
Source Code


000002:                                                                                                  ## Copyright:   Public domain.
000003:                                                                                                  ## Filename:    MAIN.agc
000004:                                                                                                  ## Purpose:     Part of the source code for SUPER JOB, a program developed
000005:                                                                                                  ##              at Raytheon to exercise the Auxiliary Memory for the AGC.
000006:                                                                                                  ##              It appears to have been developed from scratch, and shares
000007:                                                                                                  ##              no heritage with any programs from MIT. It was also built
000008:                                                                                                  ##              with a Raytheon assembler rather than YUL or GAP.
000009:                                                                                                  ## Reference:   pp. D-46 - D-223
000010:                                                                                                  ## Assembler:   yaYUL
000011:                                                                                                  ## Contact:     Ron Burkey <info@sandroid.org>.
000012:                                                                                                  ## Website:     https://www.ibiblio.org/apollo/index.html
000013:                                                                                                  ## Page Scans:  http://www.ibiblio.org/apollo/Documents/R68-4125-Volume2.pdf
000014:                                                                                                  ## Mod history: 2017-01-27 MAS  Created, and transcribed pages D-46 through D-134.
000015:                                                                                                  ##              2017-01-28 MAS  Completed transcribing.
000016:                                                                                                  ##              2017-02-02 MAS  Corrected out-of-order numbers found during
000017:                                                                                                  ##                              proofing of octals.
000018:
000019:                                                                                                  ## Page D-46
000020:                                                                                                  ## [WORKAROUND] The following line did not have the "SETLOC" in the original listing, only the address.
000021: 04,2000                                           SETLOC   CF042000
000022: 04,2000           41001                           OCT      41001
000023: 04,2001           00001                           OCT      00001
000024: 04,2002           00002                           OCT      00002
000025: 04,2003           00003                           OCT      00003
000026: 04,2004           00004                           OCT      00004
000027: 04,2005           00005                           OCT      00005
000028: 04,2006           00006                           OCT      00006
000029: 04,2007           00007                           OCT      00007
000030: 04,2010           00010                           OCT      00010
000031: 04,2011           00011                           OCT      00011
000032: 04,2012           00012                           OCT      00012
000033: 04,2013           00013                           OCT      00013
000034: 04,2014           00014                           OCT      00014
000035: 04,2015           00015                           OCT      00015
000036: 04,2016           00016                           OCT      00016
000037: 04,2017           00017                           OCT      00017
000038: 04,2020           00020                           OCT      00020
000039: 04,2021           00021                           OCT      00021
000040: 04,2022           00022                           OCT      00022
000041: 04,2023           00023                           OCT      00023
000042: 04,2024           00024                           OCT      00024
000043: 04,2025           00025                           OCT      00025
000044: 04,2026           00026                           OCT      00026
000045: 04,2027           00027                           OCT      00027
000046: 04,2030           00030                           OCT      00030
000047: 04,2031           00031                           OCT      00031
000048: 04,2032           00032                           OCT      00032
000049: 04,2033           00033                           OCT      00033
000050: 04,2034           00034                           OCT      00034
000051: 04,2035           00035                           OCT      00035
000052: 04,2036           00036                           OCT      00036
000053: 04,2037           00037                           OCT      00037
000054: 04,2040           00040                           OCT      00040
000055: 04,2041           00041                           OCT      00041
000056: 04,2042           00042                           OCT      00042
000057: 04,2043           00043                           OCT      00043
000058: 04,2044           00044                           OCT      00044
000059: 04,2045           00045                           OCT      00045
000060: 04,2046           00046                           OCT      00046
000061: 04,2047           00047                           OCT      00047
000062: 04,2050           00050                           OCT      00050
000063: 04,2051           00051                           OCT      00051
000064: 04,2052           00052                           OCT      00052
000065: 04,2053           00053                           OCT      00053
000066: 04,2054           00054                           OCT      00054
000067: 04,2055           00055                           OCT      00055
000068: 04,2056           00056                           OCT      00056
000069: 04,2057           00057                           OCT      00057
000070: 04,2060           00060                           OCT      00060
000071: 04,2061           00061                           OCT      00061
000072: 04,2062           00062                           OCT      00062
000073: 04,2063           00063                           OCT      00063
000074: 04,2064           00064                           OCT      00064
000075: 04,2065           00065                           OCT      00065


000077: 04,2066           00066                           OCT      00066
000078: 04,2067           00067                           OCT      00067
000079: 04,2070           00070                           OCT      00070
000080: 04,2071           00071                           OCT      00071
000081: 04,2072           00072                           OCT      00072
000082: 04,2073           00073                           OCT      00073
000083: 04,2074           00074                           OCT      00074
000084: 04,2075           00075                           OCT      00075
000085: 04,2076           00076                           OCT      00076
000086: 04,2077           00077                           OCT      00077
000087: 04,2100           00100                           OCT      00100
000088: 04,2101           00101                           OCT      00101
000089: 04,2102           00102                           OCT      00102
000090: 04,2103           00103                           OCT      00103
000091: 04,2104           00104                           OCT      00104
000092: 04,2105           00105                           OCT      00105
000093: 04,2106           00106                           OCT      00106
000094: 04,2107           00107                           OCT      00107
000095: 04,2110           00110                           OCT      00110
000096: 04,2111           00111                           OCT      00111
000097: 04,2112           00112                           OCT      00112
000098: 04,2113           00113                           OCT      00113
000099: 04,2114           00114                           OCT      00114
000100: 04,2115           00115                           OCT      00115
000101: 04,2116           00116                           OCT      00116
000102: 04,2117           00117                           OCT      00117
000103: 04,2120           00120                           OCT      00120
000104: 04,2121           00121                           OCT      00121
000105: 04,2122           00122                           OCT      00122
000106: 04,2123           00123                           OCT      00123
000107: 04,2124           00124                           OCT      00124
000108: 04,2125           00125                           OCT      00125
000109: 04,2126           00126                           OCT      00126
000110: 04,2127           00127                           OCT      00127
000111: 04,2130           00130                           OCT      00130
000112: 04,2131           00131                           OCT      00131
000113: 04,2132           00132                           OCT      00132
000114: 04,2133           00133                           OCT      00133
000115: 04,2134           00134                           OCT      00134
000116: 04,2135           00135                           OCT      00135
000117: 04,2136           00136                           OCT      00136
000118: 04,2137           00137                           OCT      00137
000119: 04,2140           00140                           OCT      00140
000120: 04,2141           00141                           OCT      00141
000121: 04,2142           00142                           OCT      00142
000122: 04,2143           00143                           OCT      00143
000123: 04,2144           00144                           OCT      00144
000124: 04,2145           00145                           OCT      00145
000125: 04,2146           00146                           OCT      00146
000126: 04,2147           00147                           OCT      00147
000127: 04,2150           00150                           OCT      00150
000128: 04,2151           00151                           OCT      00151
000129: 04,2152           00152                           OCT      00152
000130: 04,2153           00153                           OCT      00153
000131: 04,2154           00154                           OCT      00154
000132: 04,2155           00155                           OCT      00155
000133: 04,2156           00156                           OCT      00156
000134: 04,2157           00157                           OCT      00157


000136: 04,2160           00160                           OCT      00160
000137: 04,2161           00161                           OCT      00161
000138: 04,2162           00162                           OCT      00162
000139: 04,2163           00163                           OCT      00163
000140: 04,2164           00164                           OCT      00164
000141: 04,2165           00165                           OCT      00165
000142: 04,2166           00166                           OCT      00166
000143: 04,2167           00167                           OCT      00167
000144: 04,2170           00170                           OCT      00170
000145: 04,2171           00171                           OCT      00171
000146: 04,2172           00172                           OCT      00172
000147: 04,2173           00173                           OCT      00173
000148: 04,2174           00174                           OCT      00174
000149: 04,2175           00175                           OCT      00175
000150: 04,2176           00176                           OCT      00176
000151: 04,2177           00177                           OCT      00177
000152: 04,2200           00200                           OCT      00200
000153: 04,2201           00201                           OCT      00201
000154: 04,2202           00202                           OCT      00202
000155: 04,2203           00203                           OCT      00203
000156: 04,2204           00204                           OCT      00204
000157: 04,2205           00205                           OCT      00205
000158: 04,2206           00206                           OCT      00206
000159: 04,2207           00207                           OCT      00207
000160: 04,2210           00210                           OCT      00210
000161: 04,2211           00211                           OCT      00211
000162: 04,2212           00212                           OCT      00212
000163: 04,2213           00213                           OCT      00213
000164: 04,2214           00214                           OCT      00214
000165: 04,2215           00215                           OCT      00215
000166: 04,2216           00216                           OCT      00216
000167: 04,2217           00217                           OCT      00217
000168: 04,2220           00220                           OCT      00220
000169: 04,2221           00221                           OCT      00221
000170: 04,2222           00222                           OCT      00222
000171: 04,2223           00223                           OCT      00223
000172: 04,2224           00224                           OCT      00224
000173: 04,2225           00225                           OCT      00225
000174: 04,2226           00226                           OCT      00226
000175: 04,2227           00227                           OCT      00227
000176: 04,2230           00230                           OCT      00230
000177: 04,2231           00231                           OCT      00231
000178: 04,2232           00232                           OCT      00232
000179: 04,2233           00233                           OCT      00233
000180: 04,2234           00234                           OCT      00234
000181: 04,2235           00235                           OCT      00235
000182: 04,2236           00236                           OCT      00236
000183: 04,2237           00237                           OCT      00237
000184: 04,2240           00240                           OCT      00240
000185: 04,2241           00241                           OCT      00241
000186: 04,2242           00242                           OCT      00242
000187: 04,2243           00243                           OCT      00243
000188: 04,2244           00244                           OCT      00244
000189: 04,2245           00245                           OCT      00245
000190: 04,2246           00246                           OCT      00246
000191: 04,2247           00247                           OCT      00247
000192: 04,2250           00250                           OCT      00250
000193: 04,2251           00251                           OCT      00251


000195: 04,2252           00252                           OCT      00252
000196: 04,2253           00253                           OCT      00253
000197: 04,2254           00254                           OCT      00254
000198: 04,2255           00255                           OCT      00255
000199: 04,2256           00256                           OCT      00256
000200: 04,2257           00257                           OCT      00257
000201: 04,2260           00260                           OCT      00260
000202: 04,2261           00261                           OCT      00261
000203: 04,2262           00262                           OCT      00262
000204: 04,2263           00263                           OCT      00263
000205: 04,2264           00264                           OCT      00264
000206: 04,2265           00265                           OCT      00265
000207: 04,2266           00266                           OCT      00266
000208: 04,2267           00267                           OCT      00267
000209: 04,2270           00270                           OCT      00270
000210: 04,2271           00271                           OCT      00271
000211: 04,2272           00272                           OCT      00272
000212: 04,2273           00273                           OCT      00273
000213: 04,2274           00274                           OCT      00274
000214: 04,2275           00275                           OCT      00275
000215: 04,2276           00276                           OCT      00276
000216: 04,2277           00277                           OCT      00277
000217: 04,2300           00300                           OCT      00300
000218: 04,2301           00301                           OCT      00301
000219: 04,2302           00302                           OCT      00302
000220: 04,2303           00303                           OCT      00303
000221: 04,2304           00304                           OCT      00304
000222: 04,2305           00305                           OCT      00305
000223: 04,2306           00306                           OCT      00306
000224: 04,2307           00307                           OCT      00307
000225: 04,2310           00310                           OCT      00310
000226: 04,2311           00311                           OCT      00311
000227: 04,2312           00312                           OCT      00312
000228: 04,2313           00313                           OCT      00313
000229: 04,2314           00314                           OCT      00314
000230: 04,2315           00315                           OCT      00315
000231: 04,2316           00316                           OCT      00316
000232: 04,2317           00317                           OCT      00317
000233: 04,2320           00320                           OCT      00320
000234: 04,2321           00321                           OCT      00321
000235: 04,2322           00322                           OCT      00322
000236: 04,2323           00323                           OCT      00323
000237: 04,2324           00324                           OCT      00324
000238: 04,2325           00325                           OCT      00325
000239: 04,2326           00326                           OCT      00326
000240: 04,2327           00327                           OCT      00327
000241: 04,2330           00330                           OCT      00330
000242: 04,2331           00331                           OCT      00331
000243: 04,2332           00332                           OCT      00332
000244: 04,2333           00333                           OCT      00333
000245: 04,2334           00334                           OCT      00334
000246: 04,2335           00335                           OCT      00335
000247: 04,2336           00336                           OCT      00336
000248: 04,2337           00337                           OCT      00337
000249: 04,2340           00340                           OCT      00340
000250: 04,2341           00341                           OCT      00341
000251: 04,2342           00342                           OCT      00342
000252: 04,2343           00343                           OCT      00343


000254: 04,2344           00344                           OCT      00344
000255: 04,2345           00345                           OCT      00345
000256: 04,2346           00346                           OCT      00346
000257: 04,2347           00347                           OCT      00347
000258: 04,2350           00350                           OCT      00350
000259: 04,2351           00351                           OCT      00351
000260: 04,2352           00352                           OCT      00352
000261: 04,2353           00353                           OCT      00353
000262: 04,2354           00354                           OCT      00354
000263: 04,2355           00355                           OCT      00355
000264: 04,2356           00356                           OCT      00356
000265: 04,2357           00357                           OCT      00357
000266: 04,2360           00360                           OCT      00360
000267: 04,2361           00361                           OCT      00361
000268: 04,2362           00362                           OCT      00362
000269: 04,2363           00363                           OCT      00363
000270: 04,2364           00364                           OCT      00364
000271: 04,2365           00365                           OCT      00365
000272: 04,2366           00366                           OCT      00366
000273: 04,2367           00367                           OCT      00367
000274: 04,2370           00370                           OCT      00370
000275: 04,2371           00371                           OCT      00371
000276: 04,2372           00372                           OCT      00372
000277: 04,2373           00373                           OCT      00373
000278: 04,2374           00374                           OCT      00374
000279: 04,2375           00375                           OCT      00375
000280: 04,2376           00376                           OCT      00376
000281: 04,2377           00377                           OCT      00377
000282: 04,2400           00400                           OCT      00400
000283: 04,2401           00401                           OCT      00401
000284: 04,2402           00402                           OCT      00402
000285: 04,2403           00403                           OCT      00403
000286: 04,2404           00404                           OCT      00404
000287: 04,2405           00405                           OCT      00405
000288: 04,2406           00406                           OCT      00406
000289: 04,2407           00407                           OCT      00407
000290: 04,2410           00410                           OCT      00410
000291: 04,2411           00411                           OCT      00411
000292: 04,2412           00412                           OCT      00412
000293: 04,2413           00413                           OCT      00413
000294: 04,2414           00414                           OCT      00414
000295: 04,2415           00415                           OCT      00415
000296: 04,2416           00416                           OCT      00416
000297: 04,2417           00417                           OCT      00417
000298: 04,2420           00420                           OCT      00420
000299: 04,2421           00421                           OCT      00421
000300: 04,2422           00422                           OCT      00422
000301: 04,2423           00423                           OCT      00423
000302: 04,2424           00424                           OCT      00424
000303: 04,2425           00425                           OCT      00425
000304: 04,2426           00426                           OCT      00426
000305: 04,2427           00427                           OCT      00427
000306: 04,2430           00430                           OCT      00430
000307: 04,2431           00431                           OCT      00431
000308: 04,2432           00432                           OCT      00432
000309: 04,2433           00433                           OCT      00433
000310: 04,2434           00434                           OCT      00434
000311: 04,2435           00435                           OCT      00435


000313: 04,2436           00436                           OCT      00436
000314: 04,2437           00437                           OCT      00437
000315: 04,2440           00440                           OCT      00440
000316: 04,2441           00441                           OCT      00441
000317: 04,2442           00442                           OCT      00442
000318: 04,2443           00443                           OCT      00443
000319: 04,2444           00444                           OCT      00444
000320: 04,2445           00445                           OCT      00445
000321: 04,2446           00446                           OCT      00446
000322: 04,2447           00447                           OCT      00447
000323: 04,2450           00450                           OCT      00450
000324: 04,2451           00451                           OCT      00451
000325: 04,2452           00452                           OCT      00452
000326: 04,2453           00453                           OCT      00453
000327: 04,2454           00454                           OCT      00454
000328: 04,2455           00455                           OCT      00455
000329: 04,2456           00456                           OCT      00456
000330: 04,2457           00457                           OCT      00457
000331: 04,2460           00460                           OCT      00460
000332: 04,2461           00461                           OCT      00461
000333: 04,2462           00462                           OCT      00462
000334: 04,2463           00463                           OCT      00463
000335: 04,2464           00464                           OCT      00464
000336: 04,2465           00465                           OCT      00465
000337: 04,2466           00466                           OCT      00466
000338: 04,2467           00467                           OCT      00467
000339: 04,2470           00470                           OCT      00470
000340: 04,2471           00471                           OCT      00471
000341: 04,2472           00472                           OCT      00472
000342: 04,2473           00473                           OCT      00473
000343: 04,2474           00474                           OCT      00474
000344: 04,2475           00475                           OCT      00475
000345: 04,2476           00476                           OCT      00476
000346: 04,2477           00477                           OCT      00477
000347: 04,2500           00500                           OCT      00500
000348: 04,2501           00501                           OCT      00501
000349: 04,2502           00502                           OCT      00502
000350: 04,2503           00503                           OCT      00503
000351: 04,2504           00504                           OCT      00504
000352: 04,2505           00505                           OCT      00505
000353: 04,2506           00506                           OCT      00506
000354: 04,2507           00507                           OCT      00507
000355: 04,2510           00510                           OCT      00510
000356: 04,2511           00511                           OCT      00511
000357: 04,2512           00512                           OCT      00512
000358: 04,2513           00513                           OCT      00513
000359: 04,2514           00514                           OCT      00514
000360: 04,2515           00515                           OCT      00515
000361: 04,2516           00516                           OCT      00516
000362: 04,2517           00517                           OCT      00517
000363: 04,2520           00520                           OCT      00520
000364: 04,2521           00521                           OCT      00521
000365: 04,2522           00522                           OCT      00522
000366: 04,2523           00523                           OCT      00523
000367: 04,2524           00524                           OCT      00524
000368: 04,2525           00525                           OCT      00525
000369: 04,2526           00526                           OCT      00526
000370: 04,2527           00527                           OCT      00527


000372: 04,2530           00530                           OCT      00530
000373: 04,2531           00531                           OCT      00531
000374: 04,2532           00532                           OCT      00532
000375: 04,2533           00533                           OCT      00533
000376: 04,2534           00534                           OCT      00534
000377: 04,2535           00535                           OCT      00535
000378: 04,2536           00536                           OCT      00536
000379: 04,2537           00537                           OCT      00537
000380: 04,2540           00540                           OCT      00540
000381: 04,2541           00541                           OCT      00541
000382: 04,2542           00542                           OCT      00542
000383: 04,2543           00543                           OCT      00543
000384: 04,2544           00544                           OCT      00544
000385: 04,2545           00545                           OCT      00545
000386: 04,2546           00546                           OCT      00546
000387: 04,2547           00547                           OCT      00547
000388: 04,2550           00550                           OCT      00550
000389: 04,2551           00551                           OCT      00551
000390: 04,2552           00552                           OCT      00552
000391: 04,2553           00553                           OCT      00553
000392: 04,2554           00554                           OCT      00554
000393: 04,2555           00555                           OCT      00555
000394: 04,2556           00556                           OCT      00556
000395: 04,2557           00557                           OCT      00557
000396: 04,2560           00560                           OCT      00560
000397: 04,2561           00561                           OCT      00561
000398: 04,2562           00562                           OCT      00562
000399: 04,2563           00563                           OCT      00563
000400: 04,2564           00564                           OCT      00564
000401: 04,2565           00565                           OCT      00565
000402: 04,2566           00566                           OCT      00566
000403: 04,2567           00567                           OCT      00567
000404: 04,2570           00570                           OCT      00570
000405: 04,2571           00571                           OCT      00571
000406: 04,2572           00572                           OCT      00572
000407: 04,2573           00573                           OCT      00573
000408: 04,2574           00574                           OCT      00574
000409: 04,2575           00575                           OCT      00575
000410: 04,2576           00576                           OCT      00576
000411: 04,2577           00577                           OCT      00577
000412: 04,2600           00600                           OCT      00600
000413: 04,2601           00601                           OCT      00601
000414: 04,2602           00602                           OCT      00602
000415: 04,2603           00603                           OCT      00603
000416: 04,2604           00604                           OCT      00604
000417: 04,2605           00605                           OCT      00605
000418: 04,2606           00606                           OCT      00606
000419: 04,2607           00607                           OCT      00607
000420: 04,2610           00610                           OCT      00610
000421: 04,2611           00611                           OCT      00611
000422: 04,2612           00612                           OCT      00612
000423: 04,2613           00613                           OCT      00613
000424: 04,2614           00614                           OCT      00614
000425: 04,2615           00615                           OCT      00615
000426: 04,2616           00616                           OCT      00616
000427: 04,2617           00617                           OCT      00617
000428: 04,2620           00620                           OCT      00620
000429: 04,2621           00621                           OCT      00621


000431: 04,2622           00622                           OCT      00622
000432: 04,2623           00623                           OCT      00623
000433: 04,2624           00624                           OCT      00624
000434: 04,2625           00625                           OCT      00625
000435: 04,2626           00626                           OCT      00626
000436: 04,2627           00627                           OCT      00627
000437: 04,2630           00630                           OCT      00630
000438: 04,2631           00631                           OCT      00631
000439: 04,2632           00632                           OCT      00632
000440: 04,2633           00633                           OCT      00633
000441: 04,2634           00634                           OCT      00634
000442: 04,2635           00635                           OCT      00635
000443: 04,2636           00636                           OCT      00636
000444: 04,2637           00637                           OCT      00637
000445: 04,2640           00640                           OCT      00640
000446: 04,2641           00641                           OCT      00641
000447: 04,2642           00642                           OCT      00642
000448: 04,2643           00643                           OCT      00643
000449: 04,2644           00644                           OCT      00644
000450: 04,2645           00645                           OCT      00645
000451: 04,2646           00646                           OCT      00646
000452: 04,2647           00647                           OCT      00647
000453: 04,2650           00650                           OCT      00650
000454: 04,2651           00651                           OCT      00651
000455: 04,2652           00652                           OCT      00652
000456: 04,2653           00653                           OCT      00653
000457: 04,2654           00654                           OCT      00654
000458: 04,2655           00655                           OCT      00655
000459: 04,2656           00656                           OCT      00656
000460: 04,2657           00657                           OCT      00657
000461: 04,2660           00660                           OCT      00660
000462: 04,2661           00661                           OCT      00661
000463: 04,2662           00662                           OCT      00662
000464: 04,2663           00663                           OCT      00663
000465: 04,2664           00664                           OCT      00664
000466: 04,2665           00665                           OCT      00665
000467: 04,2666           00666                           OCT      00666
000468: 04,2667           00667                           OCT      00667
000469: 04,2670           00670                           OCT      00670
000470: 04,2671           00671                           OCT      00671
000471: 04,2672           00672                           OCT      00672
000472: 04,2673           00673                           OCT      00673
000473: 04,2674           00674                           OCT      00674
000474: 04,2675           00675                           OCT      00675
000475: 04,2676           00676                           OCT      00676
000476: 04,2677           00677                           OCT      00677
000477: 04,2700           00700                           OCT      00700
000478: 04,2701           00701                           OCT      00701
000479: 04,2702           00702                           OCT      00702
000480: 04,2703           00703                           OCT      00703
000481: 04,2704           00704                           OCT      00704
000482: 04,2705           00705                           OCT      00705
000483: 04,2706           00706                           OCT      00706
000484: 04,2707           00707                           OCT      00707
000485: 04,2710           00710                           OCT      00710
000486: 04,2711           00711                           OCT      00711
000487: 04,2712           00712                           OCT      00712
000488: 04,2713           00713                           OCT      00713


000490: 04,2714           00714                           OCT      00714
000491: 04,2715           00715                           OCT      00715
000492: 04,2716           00716                           OCT      00716
000493: 04,2717           00717                           OCT      00717
000494: 04,2720           00720                           OCT      00720
000495: 04,2721           00721                           OCT      00721
000496: 04,2722           00722                           OCT      00722
000497: 04,2723           00723                           OCT      00723
000498: 04,2724           00724                           OCT      00724
000499: 04,2725           00725                           OCT      00725
000500: 04,2726           00726                           OCT      00726
000501: 04,2727           00727                           OCT      00727
000502: 04,2730           00730                           OCT      00730
000503: 04,2731           00731                           OCT      00731
000504: 04,2732           00732                           OCT      00732
000505: 04,2733           00733                           OCT      00733
000506: 04,2734           00734                           OCT      00734
000507: 04,2735           00735                           OCT      00735
000508: 04,2736           00736                           OCT      00736
000509: 04,2737           00737                           OCT      00737
000510: 04,2740           00740                           OCT      00740
000511: 04,2741           00741                           OCT      00741
000512: 04,2742           00742                           OCT      00742
000513: 04,2743           00743                           OCT      00743
000514: 04,2744           00744                           OCT      00744
000515: 04,2745           00745                           OCT      00745
000516: 04,2746           00746                           OCT      00746
000517: 04,2747           00747                           OCT      00747
000518: 04,2750           00750                           OCT      00750
000519: 04,2751           00751                           OCT      00751
000520: 04,2752           00752                           OCT      00752
000521: 04,2753           00753                           OCT      00753
000522: 04,2754           00754                           OCT      00754
000523: 04,2755           00755                           OCT      00755
000524: 04,2756           00756                           OCT      00756
000525: 04,2757           00757                           OCT      00757
000526: 04,2760           00760                           OCT      00760
000527: 04,2761           00761                           OCT      00761
000528: 04,2762           00762                           OCT      00762
000529: 04,2763           00763                           OCT      00763
000530: 04,2764           00764                           OCT      00764
000531: 04,2765           00765                           OCT      00765
000532: 04,2766           00766                           OCT      00766
000533: 04,2767           00767                           OCT      00767
000534: 04,2770           00770                           OCT      00770
000535: 04,2771           00771                           OCT      00771
000536: 04,2772           00772                           OCT      00772
000537: 04,2773           00773                           OCT      00773
000538: 04,2774           00774                           OCT      00774
000539: 04,2775           00775                           OCT      00775
000540: 04,2776           00776                           OCT      00776
000541: 04,2777           00777                           OCT      00777
000542: 04,3000           01000                           OCT      01000
000543: 04,3001           01001                           OCT      01001
000544: 04,3002           01002                           OCT      01002
000545: 04,3003           01003                           OCT      01003
000546: 04,3004           01004                           OCT      01004
000547: 04,3005           01005                           OCT      01005


000549: 04,3006           01006                           OCT      01006
000550: 04,3007           01007                           OCT      01007
000551: 04,3010           01010                           OCT      01010
000552: 04,3011           01011                           OCT      01011
000553: 04,3012           01012                           OCT      01012
000554: 04,3013           01013                           OCT      01013
000555: 04,3014           01014                           OCT      01014
000556: 04,3015           01015                           OCT      01015
000557: 04,3016           01016                           OCT      01016
000558: 04,3017           01017                           OCT      01017
000559: 04,3020           01020                           OCT      01020
000560: 04,3021           01021                           OCT      01021
000561: 04,3022           01022                           OCT      01022
000562: 04,3023           01023                           OCT      01023
000563: 04,3024           01024                           OCT      01024
000564: 04,3025           01025                           OCT      01025
000565: 04,3026           01026                           OCT      01026
000566: 04,3027           01027                           OCT      01027
000567: 04,3030           01030                           OCT      01030
000568: 04,3031           01031                           OCT      01031
000569: 04,3032           01032                           OCT      01032
000570: 04,3033           01033                           OCT      01033
000571: 04,3034           01034                           OCT      01034
000572: 04,3035           01035                           OCT      01035
000573: 04,3036           01036                           OCT      01036
000574: 04,3037           01037                           OCT      01037
000575: 04,3040           01040                           OCT      01040
000576: 04,3041           01041                           OCT      01041
000577: 04,3042           01042                           OCT      01042
000578: 04,3043           01043                           OCT      01043
000579: 04,3044           01044                           OCT      01044
000580: 04,3045           01045                           OCT      01045
000581: 04,3046           01046                           OCT      01046
000582: 04,3047           01047                           OCT      01047
000583: 04,3050           01050                           OCT      01050
000584: 04,3051           01051                           OCT      01051
000585: 04,3052           01052                           OCT      01052
000586: 04,3053           01053                           OCT      01053
000587: 04,3054           01054                           OCT      01054
000588: 04,3055           01055                           OCT      01055
000589: 04,3056           01056                           OCT      01056
000590: 04,3057           01057                           OCT      01057
000591: 04,3060           01060                           OCT      01060
000592: 04,3061           01061                           OCT      01061
000593: 04,3062           01062                           OCT      01062
000594: 04,3063           01063                           OCT      01063
000595: 04,3064           01064                           OCT      01064
000596: 04,3065           01065                           OCT      01065
000597: 04,3066           01066                           OCT      01066
000598: 04,3067           01067                           OCT      01067
000599: 04,3070           01070                           OCT      01070
000600: 04,3071           01071                           OCT      01071
000601: 04,3072           01072                           OCT      01072
000602: 04,3073           01073                           OCT      01073
000603: 04,3074           01074                           OCT      01074
000604: 04,3075           01075                           OCT      01075
000605: 04,3076           01076                           OCT      01076
000606: 04,3077           01077                           OCT      01077


000608: 04,3100           01100                           OCT      01100
000609: 04,3101           01101                           OCT      01101
000610: 04,3102           01102                           OCT      01102
000611: 04,3103           01103                           OCT      01103
000612: 04,3104           01104                           OCT      01104
000613: 04,3105           01105                           OCT      01105
000614: 04,3106           01106                           OCT      01106
000615: 04,3107           01107                           OCT      01107
000616: 04,3110           01110                           OCT      01110
000617: 04,3111           01111                           OCT      01111
000618: 04,3112           01112                           OCT      01112
000619: 04,3113           01113                           OCT      01113
000620: 04,3114           01114                           OCT      01114
000621: 04,3115           01115                           OCT      01115
000622: 04,3116           01116                           OCT      01116
000623: 04,3117           01117                           OCT      01117
000624: 04,3120           01120                           OCT      01120
000625: 04,3121           01121                           OCT      01121
000626: 04,3122           01122                           OCT      01122
000627: 04,3123           01123                           OCT      01123
000628: 04,3124           01124                           OCT      01124
000629: 04,3125           01125                           OCT      01125
000630: 04,3126           01126                           OCT      01126
000631: 04,3127           01127                           OCT      01127
000632: 04,3130           01130                           OCT      01130
000633: 04,3131           01131                           OCT      01131
000634: 04,3132           01132                           OCT      01132
000635: 04,3133           01133                           OCT      01133
000636: 04,3134           01134                           OCT      01134
000637: 04,3135           01135                           OCT      01135
000638: 04,3136           01136                           OCT      01136
000639: 04,3137           01137                           OCT      01137
000640: 04,3140           01140                           OCT      01140
000641: 04,3141           01141                           OCT      01141
000642: 04,3142           01142                           OCT      01142
000643: 04,3143           01143                           OCT      01143
000644: 04,3144           01144                           OCT      01144
000645: 04,3145           01145                           OCT      01145
000646: 04,3146           01146                           OCT      01146
000647: 04,3147           01147                           OCT      01147
000648: 04,3150           01150                           OCT      01150
000649: 04,3151           01151                           OCT      01151
000650: 04,3152           01152                           OCT      01152
000651: 04,3153           01153                           OCT      01153
000652: 04,3154           01154                           OCT      01154
000653: 04,3155           01155                           OCT      01155
000654: 04,3156           01156                           OCT      01156
000655: 04,3157           01157                           OCT      01157
000656: 04,3160           01160                           OCT      01160
000657: 04,3161           01161                           OCT      01161
000658: 04,3162           01162                           OCT      01162
000659: 04,3163           01163                           OCT      01163
000660: 04,3164           01164                           OCT      01164
000661: 04,3165           01165                           OCT      01165
000662: 04,3166           01166                           OCT      01166
000663: 04,3167           01167                           OCT      01167
000664: 04,3170           01170                           OCT      01170
000665: 04,3171           01171                           OCT      01171


000667: 04,3172           01172                           OCT      01172
000668: 04,3173           01173                           OCT      01173
000669: 04,3174           01174                           OCT      01174
000670: 04,3175           01175                           OCT      01175
000671: 04,3176           01176                           OCT      01176
000672: 04,3177           01177                           OCT      01177
000673: 04,3200           01200                           OCT      01200
000674: 04,3201           01201                           OCT      01201
000675: 04,3202           01202                           OCT      01202
000676: 04,3203           01203                           OCT      01203
000677: 04,3204           01204                           OCT      01204
000678: 04,3205           01205                           OCT      01205
000679: 04,3206           01206                           OCT      01206
000680: 04,3207           01207                           OCT      01207
000681: 04,3210           01210                           OCT      01210
000682: 04,3211           01211                           OCT      01211
000683: 04,3212           01212                           OCT      01212
000684: 04,3213           01213                           OCT      01213
000685: 04,3214           01214                           OCT      01214
000686: 04,3215           01215                           OCT      01215
000687: 04,3216           01216                           OCT      01216
000688: 04,3217           01217                           OCT      01217
000689: 04,3220           01220                           OCT      01220
000690: 04,3221           01221                           OCT      01221
000691: 04,3222           01222                           OCT      01222
000692: 04,3223           01223                           OCT      01223
000693: 04,3224           01224                           OCT      01224
000694: 04,3225           01225                           OCT      01225
000695: 04,3226           01226                           OCT      01226
000696: 04,3227           01227                           OCT      01227
000697: 04,3230           01230                           OCT      01230
000698: 04,3231           01231                           OCT      01231
000699: 04,3232           01232                           OCT      01232
000700: 04,3233           01233                           OCT      01233
000701: 04,3234           01234                           OCT      01234
000702: 04,3235           01235                           OCT      01235
000703: 04,3236           01236                           OCT      01236
000704: 04,3237           01237                           OCT      01237
000705: 04,3240           01240                           OCT      01240
000706: 04,3241           01241                           OCT      01241
000707: 04,3242           01242                           OCT      01242
000708: 04,3243           01243                           OCT      01243
000709: 04,3244           01244                           OCT      01244
000710: 04,3245           01245                           OCT      01245
000711: 04,3246           01246                           OCT      01246
000712: 04,3247           01247                           OCT      01247
000713: 04,3250           01250                           OCT      01250
000714: 04,3251           01251                           OCT      01251
000715: 04,3252           01252                           OCT      01252
000716: 04,3253           01253                           OCT      01253
000717: 04,3254           01254                           OCT      01254
000718: 04,3255           01255                           OCT      01255
000719: 04,3256           01256                           OCT      01256
000720: 04,3257           01257                           OCT      01257
000721: 04,3260           01260                           OCT      01260
000722: 04,3261           01261                           OCT      01261
000723: 04,3262           01262                           OCT      01262
000724: 04,3263           01263                           OCT      01263


000726: 04,3264           01264                           OCT      01264
000727: 04,3265           01265                           OCT      01265
000728: 04,3266           01266                           OCT      01266
000729: 04,3267           01267                           OCT      01267
000730: 04,3270           01270                           OCT      01270
000731: 04,3271           01271                           OCT      01271
000732: 04,3272           01272                           OCT      01272
000733: 04,3273           01273                           OCT      01273
000734: 04,3274           01274                           OCT      01274
000735: 04,3275           01275                           OCT      01275
000736: 04,3276           01276                           OCT      01276
000737: 04,3277           01277                           OCT      01277
000738: 04,3300           01300                           OCT      01300
000739: 04,3301           01301                           OCT      01301
000740: 04,3302           01302                           OCT      01302
000741: 04,3303           01303                           OCT      01303
000742: 04,3304           01304                           OCT      01304
000743: 04,3305           01305                           OCT      01305
000744: 04,3306           01306                           OCT      01306
000745: 04,3307           01307                           OCT      01307
000746: 04,3310           01310                           OCT      01310
000747: 04,3311           01311                           OCT      01311
000748: 04,3312           01312                           OCT      01312
000749: 04,3313           01313                           OCT      01313
000750: 04,3314           01314                           OCT      01314
000751: 04,3315           01315                           OCT      01315
000752: 04,3316           01316                           OCT      01316
000753: 04,3317           01317                           OCT      01317
000754: 04,3320           01320                           OCT      01320
000755: 04,3321           01321                           OCT      01321
000756: 04,3322           01322                           OCT      01322
000757: 04,3323           01323                           OCT      01323
000758: 04,3324           01324                           OCT      01324
000759: 04,3325           01325                           OCT      01325
000760: 04,3326           01326                           OCT      01326
000761: 04,3327           01327                           OCT      01327
000762: 04,3330           01330                           OCT      01330
000763: 04,3331           01331                           OCT      01331
000764: 04,3332           01332                           OCT      01332
000765: 04,3333           01333                           OCT      01333
000766: 04,3334           01334                           OCT      01334
000767: 04,3335           01335                           OCT      01335
000768: 04,3336           01336                           OCT      01336
000769: 04,3337           01337                           OCT      01337
000770: 04,3340           01340                           OCT      01340
000771: 04,3341           01341                           OCT      01341
000772: 04,3342           01342                           OCT      01342
000773: 04,3343           01343                           OCT      01343
000774: 04,3344           01344                           OCT      01344
000775: 04,3345           01345                           OCT      01345
000776: 04,3346           01346                           OCT      01346
000777: 04,3347           01347                           OCT      01347
000778: 04,3350           01350                           OCT      01350
000779: 04,3351           01351                           OCT      01351
000780: 04,3352           01352                           OCT      01352
000781: 04,3353           01353                           OCT      01353
000782: 04,3354           01354                           OCT      01354
000783: 04,3355           01355                           OCT      01355


000785: 04,3356           01356                           OCT      01356
000786: 04,3357           01357                           OCT      01357
000787: 04,3360           01360                           OCT      01360
000788: 04,3361           01361                           OCT      01361
000789: 04,3362           01362                           OCT      01362
000790: 04,3363           01363                           OCT      01363
000791: 04,3364           01364                           OCT      01364
000792: 04,3365           01365                           OCT      01365
000793: 04,3366           01366                           OCT      01366
000794: 04,3367           01367                           OCT      01367
000795: 04,3370           01370                           OCT      01370
000796: 04,3371           01371                           OCT      01371
000797: 04,3372           01372                           OCT      01372
000798: 04,3373           01373                           OCT      01373
000799: 04,3374           01374                           OCT      01374
000800: 04,3375           01375                           OCT      01375
000801: 04,3376           01376                           OCT      01376
000802: 04,3377           01377                           OCT      01377
000803: 04,3400           01400                           OCT      01400
000804: 04,3401           01401                           OCT      01401
000805: 04,3402           01402                           OCT      01402
000806: 04,3403           01403                           OCT      01403
000807: 04,3404           01404                           OCT      01404
000808: 04,3405           01405                           OCT      01405
000809: 04,3406           01406                           OCT      01406
000810: 04,3407           01407                           OCT      01407
000811: 04,3410           01410                           OCT      01410
000812: 04,3411           01411                           OCT      01411
000813: 04,3412           01412                           OCT      01412
000814: 04,3413           01413                           OCT      01413
000815: 04,3414           01414                           OCT      01414
000816: 04,3415           01415                           OCT      01415
000817: 04,3416           01416                           OCT      01416
000818: 04,3417           01417                           OCT      01417
000819: 04,3420           01420                           OCT      01420
000820: 04,3421           01421                           OCT      01421
000821: 04,3422           01422                           OCT      01422
000822: 04,3423           01423                           OCT      01423
000823: 04,3424           01424                           OCT      01424
000824: 04,3425           01425                           OCT      01425
000825: 04,3426           01426                           OCT      01426
000826: 04,3427           01427                           OCT      01427
000827: 04,3430           01430                           OCT      01430
000828: 04,3431           01431                           OCT      01431
000829: 04,3432           01432                           OCT      01432
000830: 04,3433           01433                           OCT      01433
000831: 04,3434           01434                           OCT      01434
000832: 04,3435           01435                           OCT      01435
000833: 04,3436           01436                           OCT      01436
000834: 04,3437           01437                           OCT      01437
000835: 04,3440           01440                           OCT      01440
000836: 04,3441           01441                           OCT      01441
000837: 04,3442           01442                           OCT      01442
000838: 04,3443           01443                           OCT      01443
000839: 04,3444           01444                           OCT      01444
000840: 04,3445           01445                           OCT      01445
000841: 04,3446           01446                           OCT      01446
000842: 04,3447           01447                           OCT      01447


000844: 04,3450           01450                           OCT      01450
000845: 04,3451           01451                           OCT      01451
000846: 04,3452           01452                           OCT      01452
000847: 04,3453           01453                           OCT      01453
000848: 04,3454           01454                           OCT      01454
000849: 04,3455           01455                           OCT      01455
000850: 04,3456           01456                           OCT      01456
000851: 04,3457           01457                           OCT      01457
000852: 04,3460           01460                           OCT      01460
000853: 04,3461           01461                           OCT      01461
000854: 04,3462           01462                           OCT      01462
000855: 04,3463           01463                           OCT      01463
000856: 04,3464           01464                           OCT      01464
000857: 04,3465           01465                           OCT      01465
000858: 04,3466           01466                           OCT      01466
000859: 04,3467           01467                           OCT      01467
000860: 04,3470           01470                           OCT      01470
000861: 04,3471           01471                           OCT      01471
000862: 04,3472           01472                           OCT      01472
000863: 04,3473           01473                           OCT      01473
000864: 04,3474           01474                           OCT      01474
000865: 04,3475           01475                           OCT      01475
000866: 04,3476           01476                           OCT      01476
000867: 04,3477           01477                           OCT      01477
000868: 04,3500           01500                           OCT      01500
000869: 04,3501           01501                           OCT      01501
000870: 04,3502           01502                           OCT      01502
000871: 04,3503           01503                           OCT      01503
000872: 04,3504           01504                           OCT      01504
000873: 04,3505           01505                           OCT      01505
000874: 04,3506           01506                           OCT      01506
000875: 04,3507           01507                           OCT      01507
000876: 04,3510           01510                           OCT      01510
000877: 04,3511           01511                           OCT      01511
000878: 04,3512           01512                           OCT      01512
000879: 04,3513           01513                           OCT      01513
000880: 04,3514           01514                           OCT      01514
000881: 04,3515           01515                           OCT      01515
000882: 04,3516           01516                           OCT      01516
000883: 04,3517           01517                           OCT      01517
000884: 04,3520           01520                           OCT      01520
000885: 04,3521           01521                           OCT      01521
000886: 04,3522           01522                           OCT      01522
000887: 04,3523           01523                           OCT      01523
000888: 04,3524           01524                           OCT      01524
000889: 04,3525           01525                           OCT      01525
000890: 04,3526           01526                           OCT      01526
000891: 04,3527           01527                           OCT      01527
000892: 04,3530           01530                           OCT      01530
000893: 04,3531           01531                           OCT      01531
000894: 04,3532           01532                           OCT      01532
000895: 04,3533           01533                           OCT      01533
000896: 04,3534           01534                           OCT      01534
000897: 04,3535           01535                           OCT      01535
000898: 04,3536           01536                           OCT      01536
000899: 04,3537           01537                           OCT      01537
000900: 04,3540           01540                           OCT      01540
000901: 04,3541           01541                           OCT      01541


000903: 04,3542           01542                           OCT      01542
000904: 04,3543           01543                           OCT      01543
000905: 04,3544           01544                           OCT      01544
000906: 04,3545           01545                           OCT      01545
000907: 04,3546           01546                           OCT      01546
000908: 04,3547           01547                           OCT      01547
000909: 04,3550           01550                           OCT      01550
000910: 04,3551           01551                           OCT      01551
000911: 04,3552           01552                           OCT      01552
000912: 04,3553           01553                           OCT      01553
000913: 04,3554           01554                           OCT      01554
000914: 04,3555           01555                           OCT      01555
000915: 04,3556           01556                           OCT      01556
000916: 04,3557           01557                           OCT      01557
000917: 04,3560           01560                           OCT      01560
000918: 04,3561           01561                           OCT      01561
000919: 04,3562           01562                           OCT      01562
000920: 04,3563           01563                           OCT      01563
000921: 04,3564           01564                           OCT      01564
000922: 04,3565           01565                           OCT      01565
000923: 04,3566           01566                           OCT      01566
000924: 04,3567           01567                           OCT      01567
000925: 04,3570           01570                           OCT      01570
000926: 04,3571           01571                           OCT      01571
000927: 04,3572           01572                           OCT      01572
000928: 04,3573           01573                           OCT      01573
000929: 04,3574           01574                           OCT      01574
000930: 04,3575           01575                           OCT      01575
000931: 04,3576           01576                           OCT      01576
000932: 04,3577           01577                           OCT      01577
000933: 04,3600           01600                           OCT      01600
000934: 04,3601           01601                           OCT      01601
000935: 04,3602           01602                           OCT      01602
000936: 04,3603           01603                           OCT      01603
000937: 04,3604           01604                           OCT      01604
000938: 04,3605           01605                           OCT      01605
000939: 04,3606           01606                           OCT      01606
000940: 04,3607           01607                           OCT      01607
000941: 04,3610           01610                           OCT      01610
000942: 04,3611           01611                           OCT      01611
000943: 04,3612           01612                           OCT      01612
000944: 04,3613           01613                           OCT      01613
000945: 04,3614           01614                           OCT      01614
000946: 04,3615           01615                           OCT      01615
000947: 04,3616           01616                           OCT      01616
000948: 04,3617           01617                           OCT      01617
000949: 04,3620           01620                           OCT      01620
000950: 04,3621           01621                           OCT      01621
000951: 04,3622           01622                           OCT      01622
000952: 04,3623           01623                           OCT      01623
000953: 04,3624           01624                           OCT      01624
000954: 04,3625           01625                           OCT      01625
000955: 04,3626           01626                           OCT      01626
000956: 04,3627           01627                           OCT      01627
000957: 04,3630           01630                           OCT      01630
000958: 04,3631           01631                           OCT      01631
000959: 04,3632           01632                           OCT      01632
000960: 04,3633           01633                           OCT      01633


000962: 04,3634           01634                           OCT      01634
000963: 04,3635           01635                           OCT      01635
000964: 04,3636           01636                           OCT      01636
000965: 04,3637           01637                           OCT      01637
000966: 04,3640           01640                           OCT      01640
000967: 04,3641           01641                           OCT      01641
000968: 04,3642           01642                           OCT      01642
000969: 04,3643           01643                           OCT      01643
000970: 04,3644           01644                           OCT      01644
000971: 04,3645           01645                           OCT      01645
000972: 04,3646           01646                           OCT      01646
000973: 04,3647           01647                           OCT      01647
000974: 04,3650           01650                           OCT      01650
000975: 04,3651           01651                           OCT      01651
000976: 04,3652           01652                           OCT      01652
000977: 04,3653           01653                           OCT      01653
000978: 04,3654           01654                           OCT      01654
000979: 04,3655           01655                           OCT      01655
000980: 04,3656           01656                           OCT      01656
000981: 04,3657           01657                           OCT      01657
000982: 04,3660           01660                           OCT      01660
000983: 04,3661           01661                           OCT      01661
000984: 04,3662           01662                           OCT      01662
000985: 04,3663           01663                           OCT      01663
000986: 04,3664           01664                           OCT      01664
000987: 04,3665           01665                           OCT      01665
000988: 04,3666           01666                           OCT      01666
000989: 04,3667           01667                           OCT      01667
000990: 04,3670           01670                           OCT      01670
000991: 04,3671           01671                           OCT      01671
000992: 04,3672           01672                           OCT      01672
000993: 04,3673           01673                           OCT      01673
000994: 04,3674           01674                           OCT      01674
000995: 04,3675           01675                           OCT      01675
000996: 04,3676           01676                           OCT      01676
000997: 04,3677           01677                           OCT      01677
000998: 04,3700           01700                           OCT      01700
000999: 04,3701           01701                           OCT      01701
001000: 04,3702           01702                           OCT      01702
001001: 04,3703           01703                           OCT      01703
001002: 04,3704           01704                           OCT      01704
001003: 04,3705           01705                           OCT      01705
001004: 04,3706           01706                           OCT      01706
001005: 04,3707           01707                           OCT      01707
001006: 04,3710           01710                           OCT      01710
001007: 04,3711           01711                           OCT      01711
001008: 04,3712           01712                           OCT      01712
001009: 04,3713           01713                           OCT      01713
001010: 04,3714           01714                           OCT      01714
001011: 04,3715           01715                           OCT      01715
001012: 04,3716           01716                           OCT      01716
001013: 04,3717           01717                           OCT      01717
001014: 04,3720           01720                           OCT      01720
001015: 04,3721           01721                           OCT      01721
001016: 04,3722           01722                           OCT      01722
001017: 04,3723           01723                           OCT      01723
001018: 04,3724           01724                           OCT      01724
001019: 04,3725           01725                           OCT      01725


001021: 04,3726           01726                           OCT      01726
001022: 04,3727           01727                           OCT      01727
001023: 04,3730           01730                           OCT      01730
001024: 04,3731           01731                           OCT      01731
001025: 04,3732           01733                           OCT      01733
001026: 04,3733           01732                           OCT      01732
001027: 04,3734           01734                           OCT      01734
001028: 04,3735           01735                           OCT      01735
001029: 04,3736           01736                           OCT      01736
001030: 04,3737           01737                           OCT      01737
001031: 04,3740           01740                           OCT      01740
001032: 04,3741           01741                           OCT      01741
001033: 04,3742           01742                           OCT      01742
001034: 04,3743           01743                           OCT      01743
001035: 04,3744           01744                           OCT      01744
001036: 04,3745           01745                           OCT      01745
001037: 04,3746           01746                           OCT      01746
001038: 04,3747           01747                           OCT      01747
001039: 04,3750           01750                           OCT      01750
001040: 04,3751           01751                           OCT      01751
001041: 04,3752           01752                           OCT      01752
001042: 04,3753           01753                           OCT      01753
001043: 04,3754           01754                           OCT      01754
001044: 04,3755           01755                           OCT      01755
001045: 04,3756           01756                           OCT      01756
001046: 04,3757           01757                           OCT      01757
001047: 04,3760           01760                           OCT      01760
001048: 04,3761           01761                           OCT      01761
001049: 04,3762           01762                           OCT      01762
001050: 04,3763           01763                           OCT      01763
001051: 04,3764           01764                           OCT      01764
001052: 04,3765           01765                           OCT      01765
001053: 04,3766           01766                           OCT      01766
001054: 04,3767           01767                           OCT      01767
001055: 04,3770           01770                           OCT      01770
001056: 04,3771           01771                           OCT      01771
001057: 04,3772           01772                           OCT      01772
001058: 04,3773           01773                           OCT      01773
001059: 04,3774           01774                           OCT      01774
001060: 04,3775           01775                           OCT      01775
001061: 04,3776           01776                           OCT      01776
Warning:  Next code may overflow storage.
001062: 04,3777           01777                           OCT      01777
001063: 05,2000                                           SETLOC   CF052000
001064: 05,2000           41000                           OCT      41000
001065: 05,2001           02001                           OCT      02001
001066: 05,2002           02002                           OCT      02002
001067: 05,2003           02003                           OCT      02003
001068: 05,2004           02004                           OCT      02004
001069: 05,2005           02005                           OCT      02005
001070: 05,2006           02006                           OCT      02006
001071: 05,2007           02007                           OCT      02007
001072: 05,2010           02010                           OCT      02010
001073: 05,2011           02011                           OCT      02011
001074: 05,2012           02012                           OCT      02012
001075: 05,2013           02013                           OCT      02013
001076: 05,2014           02014                           OCT      02014
001077: 05,2015           02015                           OCT      02015
001078: 05,2016           02016                           OCT      02016


001080: 05,2017           02017                           OCT      02017
001081: 05,2020           02020                           OCT      02020
001082: 05,2021           02021                           OCT      02021
001083: 05,2022           02022                           OCT      02022
001084: 05,2023           02023                           OCT      02023
001085: 05,2024           02024                           OCT      02024
001086: 05,2025           02025                           OCT      02025
001087: 05,2026           02026                           OCT      02026
001088: 05,2027           02027                           OCT      02027
001089: 05,2030           02030                           OCT      02030
001090: 05,2031           02031                           OCT      02031
001091: 05,2032           02032                           OCT      02032
001092: 05,2033           02033                           OCT      02033
001093: 05,2034           02034                           OCT      02034
001094: 05,2035           02035                           OCT      02035
001095: 05,2036           02036                           OCT      02036
001096: 05,2037           02037                           OCT      02037
001097: 05,2040           02040                           OCT      02040
001098: 05,2041           02041                           OCT      02041
001099: 05,2042           02042                           OCT      02042
001100: 05,2043           02043                           OCT      02043
001101: 05,2044           02044                           OCT      02044
001102: 05,2045           02045                           OCT      02045
001103: 05,2046           02046                           OCT      02046
001104: 05,2047           02047                           OCT      02047
001105: 05,2050           02050                           OCT      02050
001106: 05,2051           02051                           OCT      02051
001107: 05,2052           02052                           OCT      02052
001108: 05,2053           02053                           OCT      02053
001109: 05,2054           02054                           OCT      02054
001110: 05,2055           02055                           OCT      02055
001111: 05,2056           02056                           OCT      02056
001112: 05,2057           02057                           OCT      02057
001113: 05,2060           02060                           OCT      02060
001114: 05,2061           02061                           OCT      02061
001115: 05,2062           02062                           OCT      02062
001116: 05,2063           02063                           OCT      02063
001117: 05,2064           02064                           OCT      02064
001118: 05,2065           02065                           OCT      02065
001119: 05,2066           02066                           OCT      02066
001120: 05,2067           02067                           OCT      02067
001121: 05,2070           02070                           OCT      02070
001122: 05,2071           02071                           OCT      02071
001123: 05,2072           02072                           OCT      02072
001124: 05,2073           02073                           OCT      02073
001125: 05,2074           02074                           OCT      02074
001126: 05,2075           02075                           OCT      02075
001127: 05,2076           02076                           OCT      02076
001128: 05,2077           02077                           OCT      02077
001129: 05,2100           02100                           OCT      02100
001130: 05,2101           02101                           OCT      02101
001131: 05,2102           02102                           OCT      02102
001132: 05,2103           02103                           OCT      02103
001133: 05,2104           02104                           OCT      02104
001134: 05,2105           02105                           OCT      02105
001135: 05,2106           02106                           OCT      02106
001136: 05,2107           02107                           OCT      02107
001137: 05,2110           02110                           OCT      02110


001139: 05,2111           02111                           OCT      02111
001140: 05,2112           02112                           OCT      02112
001141: 05,2113           02113                           OCT      02113
001142: 05,2114           02114                           OCT      02114
001143: 05,2115           02115                           OCT      02115
001144: 05,2116           02116                           OCT      02116
001145: 05,2117           02117                           OCT      02117
001146: 05,2120           02120                           OCT      02120
001147: 05,2121           02121                           OCT      02121
001148: 05,2122           02122                           OCT      02122
001149: 05,2123           02123                           OCT      02123
001150: 05,2124           02124                           OCT      02124
001151: 05,2125           02125                           OCT      02125
001152: 05,2126           02126                           OCT      02126
001153: 05,2127           02127                           OCT      02127
001154: 05,2130           02130                           OCT      02130
001155: 05,2131           02131                           OCT      02131
001156: 05,2132           02132                           OCT      02132
001157: 05,2133           02133                           OCT      02133
001158: 05,2134           02134                           OCT      02134
001159: 05,2135           02135                           OCT      02135
001160: 05,2136           02136                           OCT      02136
001161: 05,2137           02137                           OCT      02137
001162: 05,2140           02140                           OCT      02140
001163: 05,2141           02141                           OCT      02141
001164: 05,2142           02142                           OCT      02142
001165: 05,2143           02143                           OCT      02143
001166: 05,2144           02144                           OCT      02144
001167: 05,2145           02145                           OCT      02145
001168: 05,2146           02146                           OCT      02146
001169: 05,2147           02147                           OCT      02147
001170: 05,2150           02150                           OCT      02150
001171: 05,2151           02151                           OCT      02151
001172: 05,2152           02152                           OCT      02152
001173: 05,2153           02153                           OCT      02153
001174: 05,2154           02154                           OCT      02154
001175: 05,2155           02155                           OCT      02155
001176: 05,2156           02156                           OCT      02156
001177: 05,2157           02157                           OCT      02157
001178: 05,2160           02160                           OCT      02160
001179: 05,2161           02161                           OCT      02161
001180: 05,2162           02162                           OCT      02162
001181: 05,2163           02163                           OCT      02163
001182: 05,2164           02164                           OCT      02164
001183: 05,2165           02165                           OCT      02165
001184: 05,2166           02166                           OCT      02166
001185: 05,2167           02167                           OCT      02167
001186: 05,2170           02170                           OCT      02170
001187: 05,2171           02171                           OCT      02171
001188: 05,2172           02172                           OCT      02172
001189: 05,2173           02173                           OCT      02173
001190: 05,2174           02174                           OCT      02174
001191: 05,2175           02175                           OCT      02175
001192: 05,2176           02176                           OCT      02176
001193: 05,2177           02177                           OCT      02177
001194: 05,2200           02200                           OCT      02200
001195: 05,2201           02201                           OCT      02201
001196: 05,2202           02202                           OCT      02202


001198: 05,2203           02203                           OCT      02203
001199: 05,2204           02204                           OCT      02204
001200: 05,2205           02205                           OCT      02205
001201: 05,2206           02206                           OCT      02206
001202: 05,2207           02207                           OCT      02207
001203: 05,2210           02210                           OCT      02210
001204: 05,2211           02211                           OCT      02211
001205: 05,2212           02212                           OCT      02212
001206: 05,2213           02213                           OCT      02213
001207: 05,2214           02214                           OCT      02214
001208: 05,2215           02215                           OCT      02215
001209: 05,2216           02216                           OCT      02216
001210: 05,2217           02217                           OCT      02217
001211: 05,2220           02220                           OCT      02220
001212: 05,2221           02221                           OCT      02221
001213: 05,2222           02222                           OCT      02222
001214: 05,2223           02223                           OCT      02223
001215: 05,2224           02224                           OCT      02224
001216: 05,2225           02225                           OCT      02225
001217: 05,2226           02226                           OCT      02226
001218: 05,2227           02227                           OCT      02227
001219: 05,2230           02230                           OCT      02230
001220: 05,2231           02231                           OCT      02231
001221: 05,2232           02232                           OCT      02232
001222: 05,2233           02233                           OCT      02233
001223: 05,2234           02234                           OCT      02234
001224: 05,2235           02235                           OCT      02235
001225: 05,2236           02236                           OCT      02236
001226: 05,2237           02237                           OCT      02237
001227: 05,2240           02240                           OCT      02240
001228: 05,2241           02241                           OCT      02241
001229: 05,2242           02242                           OCT      02242
001230: 05,2243           02243                           OCT      02243
001231: 05,2244           02244                           OCT      02244
001232: 05,2245           02245                           OCT      02245
001233: 05,2246           02246                           OCT      02246
001234: 05,2247           02247                           OCT      02247
001235: 05,2250           02250                           OCT      02250
001236: 05,2251           02251                           OCT      02251
001237: 05,2252           02252                           OCT      02252
001238: 05,2253           02253                           OCT      02253
001239: 05,2254           02254                           OCT      02254
001240: 05,2255           02255                           OCT      02255
001241: 05,2256           02256                           OCT      02256
001242: 05,2257           02257                           OCT      02257
001243: 05,2260           02260                           OCT      02260
001244: 05,2261           02261                           OCT      02261
001245: 05,2262           02262                           OCT      02262
001246: 05,2263           02263                           OCT      02263
001247: 05,2264           02264                           OCT      02264
001248: 05,2265           02265                           OCT      02265
001249: 05,2266           02266                           OCT      02266
001250: 05,2267           02267                           OCT      02267
001251: 05,2270           02270                           OCT      02270
001252: 05,2271           02271                           OCT      02271
001253: 05,2272           02272                           OCT      02272
001254: 05,2273           02273                           OCT      02273
001255: 05,2274           02274                           OCT      02274


001257: 05,2275           02275                           OCT      02275
001258: 05,2276           02276                           OCT      02276
001259: 05,2277           02277                           OCT      02277
001260: 05,2300           02300                           OCT      02300
001261: 05,2301           02301                           OCT      02301
001262: 05,2302           02302                           OCT      02302
001263: 05,2303           02303                           OCT      02303
001264: 05,2304           02304                           OCT      02304
001265: 05,2305           02305                           OCT      02305
001266: 05,2306           02306                           OCT      02306
001267: 05,2307           02307                           OCT      02307
001268: 05,2310           02310                           OCT      02310
001269: 05,2311           02311                           OCT      02311
001270: 05,2312           02312                           OCT      02312
001271: 05,2313           02313                           OCT      02313
001272: 05,2314           02314                           OCT      02314
001273: 05,2315           02315                           OCT      02315
001274: 05,2316           02316                           OCT      02316
001275: 05,2317           02317                           OCT      02317
001276: 05,2320           02320                           OCT      02320
001277: 05,2321           02321                           OCT      02321
001278: 05,2322           02322                           OCT      02322
001279: 05,2323           02323                           OCT      02323
001280: 05,2324           02324                           OCT      02324
001281: 05,2325           02325                           OCT      02325
001282: 05,2326           02326                           OCT      02326
001283: 05,2327           02327                           OCT      02327
001284: 05,2330           02330                           OCT      02330
001285: 05,2331           02331                           OCT      02331
001286: 05,2332           02332                           OCT      02332
001287: 05,2333           02333                           OCT      02333
001288: 05,2334           02334                           OCT      02334
001289: 05,2335           02335                           OCT      02335
001290: 05,2336           02336                           OCT      02336
001291: 05,2337           02337                           OCT      02337
001292: 05,2340           02340                           OCT      02340
001293: 05,2341           02341                           OCT      02341
001294: 05,2342           02342                           OCT      02342
001295: 05,2343           02343                           OCT      02343
001296: 05,2344           02344                           OCT      02344
001297: 05,2345           02345                           OCT      02345
001298: 05,2346           02346                           OCT      02346
001299: 05,2347           02347                           OCT      02347
001300: 05,2350           02350                           OCT      02350
001301: 05,2351           02351                           OCT      02351
001302: 05,2352           02352                           OCT      02352
001303: 05,2353           02353                           OCT      02353
001304: 05,2354           02354                           OCT      02354
001305: 05,2355           02355                           OCT      02355
001306: 05,2356           02356                           OCT      02356
001307: 05,2357           02357                           OCT      02357
001308: 05,2360           02360                           OCT      02360
001309: 05,2361           02361                           OCT      02361
001310: 05,2362           02362                           OCT      02362
001311: 05,2363           02363                           OCT      02363
001312: 05,2364           02364                           OCT      02364
001313: 05,2365           02365                           OCT      02365
001314: 05,2366           02366                           OCT      02366


001316: 05,2367           02367                           OCT      02367
001317: 05,2370           02370                           OCT      02370
001318: 05,2371           02371                           OCT      02371
001319: 05,2372           02372                           OCT      02372
001320: 05,2373           02373                           OCT      02373
001321: 05,2374           02374                           OCT      02374
001322: 05,2375           02375                           OCT      02375
001323: 05,2376           02376                           OCT      02376
001324: 05,2377           02377                           OCT      02377
001325: 05,2400           02400                           OCT      02400
001326: 05,2401           02401                           OCT      02401
001327: 05,2402           02402                           OCT      02402
001328: 05,2403           02403                           OCT      02403
001329: 05,2404           02404                           OCT      02404
001330: 05,2405           02405                           OCT      02405
001331: 05,2406           02406                           OCT      02406
001332: 05,2407           02407                           OCT      02407
001333: 05,2410           02410                           OCT      02410
001334: 05,2411           02411                           OCT      02411
001335: 05,2412           02412                           OCT      02412
001336: 05,2413           02413                           OCT      02413
001337: 05,2414           02414                           OCT      02414
001338: 05,2415           02415                           OCT      02415
001339: 05,2416           02416                           OCT      02416
001340: 05,2417           02417                           OCT      02417
001341: 05,2420           02420                           OCT      02420
001342: 05,2421           02421                           OCT      02421
001343: 05,2422           02422                           OCT      02422
001344: 05,2423           02423                           OCT      02423
001345: 05,2424           02424                           OCT      02424
001346: 05,2425           02425                           OCT      02425
001347: 05,2426           02426                           OCT      02426
001348: 05,2427           02427                           OCT      02427
001349: 05,2430           02430                           OCT      02430
001350: 05,2431           02431                           OCT      02431
001351: 05,2432           02432                           OCT      02432
001352: 05,2433           02433                           OCT      02433
001353: 05,2434           02434                           OCT      02434
001354: 05,2435           02435                           OCT      02435
001355: 05,2436           02436                           OCT      02436
001356: 05,2437           02437                           OCT      02437
001357: 05,2440           02440                           OCT      02440
001358: 05,2441           02441                           OCT      02441
001359: 05,2442           02442                           OCT      02442
001360: 05,2443           02443                           OCT      02443
001361: 05,2444           02444                           OCT      02444
001362: 05,2445           02445                           OCT      02445
001363: 05,2446           02446                           OCT      02446
001364: 05,2447           02447                           OCT      02447
001365: 05,2450           02450                           OCT      02450
001366: 05,2451           02451                           OCT      02451
001367: 05,2452           02452                           OCT      02452
001368: 05,2453           02453                           OCT      02453
001369: 05,2454           02454                           OCT      02454
001370: 05,2455           02455                           OCT      02455
001371: 05,2456           02456                           OCT      02456
001372: 05,2457           02457                           OCT      02457
001373: 05,2460           02460                           OCT      02460


001375: 05,2461           02461                           OCT      02461
001376: 05,2462           02462                           OCT      02462
001377: 05,2463           02463                           OCT      02463
001378: 05,2464           02464                           OCT      02464
001379: 05,2465           02465                           OCT      02465
001380: 05,2466           02466                           OCT      02466
001381: 05,2467           02467                           OCT      02467
001382: 05,2470           02470                           OCT      02470
001383: 05,2471           02471                           OCT      02471
001384: 05,2472           02472                           OCT      02472
001385: 05,2473           02473                           OCT      02473
001386: 05,2474           02474                           OCT      02474
001387: 05,2475           02475                           OCT      02475
001388: 05,2476           02476                           OCT      02476
001389: 05,2477           02477                           OCT      02477
001390: 05,2500           02500                           OCT      02500
001391: 05,2501           02501                           OCT      02501
001392: 05,2502           02502                           OCT      02502
001393: 05,2503           02503                           OCT      02503
001394: 05,2504           02504                           OCT      02504
001395: 05,2505           02505                           OCT      02505
001396: 05,2506           02506                           OCT      02506
001397: 05,2507           02507                           OCT      02507
001398: 05,2510           02510                           OCT      02510
001399: 05,2511           02511                           OCT      02511
001400: 05,2512           02512                           OCT      02512
001401: 05,2513           02513                           OCT      02513
001402: 05,2514           02514                           OCT      02514
001403: 05,2515           02515                           OCT      02515
001404: 05,2516           02516                           OCT      02516
001405: 05,2517           02517                           OCT      02517
001406: 05,2520           02520                           OCT      02520
001407: 05,2521           02521                           OCT      02521
001408: 05,2522           02522                           OCT      02522
001409: 05,2523           02523                           OCT      02523
001410: 05,2524           02524                           OCT      02524
001411: 05,2525           02525                           OCT      02525
001412: 05,2526           02526                           OCT      02526
001413: 05,2527           02527                           OCT      02527
001414: 05,2530           02530                           OCT      02530
001415: 05,2531           02531                           OCT      02531
001416: 05,2532           02532                           OCT      02532
001417: 05,2533           02533                           OCT      02533
001418: 05,2534           02534                           OCT      02534
001419: 05,2535           02535                           OCT      02535
001420: 05,2536           02536                           OCT      02536
001421: 05,2537           02537                           OCT      02537
001422: 05,2540           02540                           OCT      02540
001423: 05,2541           02541                           OCT      02541
001424: 05,2542           02542                           OCT      02542
001425: 05,2543           02543                           OCT      02543
001426: 05,2544           02544                           OCT      02544
001427: 05,2545           02545                           OCT      02545
001428: 05,2546           02546                           OCT      02546
001429: 05,2547           02547                           OCT      02547
001430: 05,2550           02550                           OCT      02550
001431: 05,2551           02551                           OCT      02551
001432: 05,2552           02552                           OCT      02552


001434: 05,2553           02553                           OCT      02553
001435: 05,2554           02554                           OCT      02554
001436: 05,2555           02555                           OCT      02555
001437: 05,2556           02556                           OCT      02556
001438: 05,2557           02557                           OCT      02557
001439: 05,2560           02560                           OCT      02560
001440: 05,2561           02561                           OCT      02561
001441: 05,2562           02562                           OCT      02562
001442: 05,2563           02563                           OCT      02563
001443: 05,2564           02564                           OCT      02564
001444: 05,2565           02565                           OCT      02565
001445: 05,2566           02566                           OCT      02566
001446: 05,2567           02567                           OCT      02567
001447: 05,2570           02570                           OCT      02570
001448: 05,2571           02571                           OCT      02571
001449: 05,2572           02572                           OCT      02572
001450: 05,2573           02573                           OCT      02573
001451: 05,2574           02574                           OCT      02574
001452: 05,2575           02575                           OCT      02575
001453: 05,2576           02576                           OCT      02576
001454: 05,2577           02577                           OCT      02577
001455: 05,2600           02600                           OCT      02600
001456: 05,2601           02601                           OCT      02601
001457: 05,2602           02602                           OCT      02602
001458: 05,2603           02603                           OCT      02603
001459: 05,2604           02604                           OCT      02604
001460: 05,2605           02605                           OCT      02605
001461: 05,2606           02606                           OCT      02606
001462: 05,2607           02607                           OCT      02607
001463: 05,2610           02610                           OCT      02610
001464: 05,2611           02611                           OCT      02611
001465: 05,2612           02612                           OCT      02612
001466: 05,2613           02613                           OCT      02613
001467: 05,2614           02614                           OCT      02614
001468: 05,2615           02615                           OCT      02615
001469: 05,2616           02616                           OCT      02616
001470: 05,2617           02617                           OCT      02617
001471: 05,2620           02620                           OCT      02620
001472: 05,2621           02621                           OCT      02621
001473: 05,2622           02622                           OCT      02622
001474: 05,2623           02623                           OCT      02623
001475: 05,2624           02624                           OCT      02624
001476: 05,2625           02625                           OCT      02625
001477: 05,2626           02626                           OCT      02626
001478: 05,2627           02627                           OCT      02627
001479: 05,2630           02630                           OCT      02630
001480: 05,2631           02631                           OCT      02631
001481: 05,2632           02632                           OCT      02632
001482: 05,2633           02633                           OCT      02633
001483: 05,2634           02634                           OCT      02634
001484: 05,2635           02635                           OCT      02635
001485: 05,2636           02636                           OCT      02636
001486: 05,2637           02637                           OCT      02637
001487: 05,2640           02640                           OCT      02640
001488: 05,2641           02641                           OCT      02641
001489: 05,2642           02642                           OCT      02642
001490: 05,2643           02643                           OCT      02643
001491: 05,2644           02644                           OCT      02644


001493: 05,2645           02645                           OCT      02645
001494: 05,2646           02646                           OCT      02646
001495: 05,2647           02647                           OCT      02647
001496: 05,2650           02650                           OCT      02650
001497: 05,2651           02651                           OCT      02651
001498: 05,2652           02652                           OCT      02652
001499: 05,2653           02653                           OCT      02653
001500: 05,2654           02654                           OCT      02654
001501: 05,2655           02655                           OCT      02655
001502: 05,2656           02656                           OCT      02656
001503: 05,2657           02657                           OCT      02657
001504: 05,2660           02660                           OCT      02660
001505: 05,2661           02661                           OCT      02661
001506: 05,2662           02662                           OCT      02662
001507: 05,2663           02663                           OCT      02663
001508: 05,2664           02664                           OCT      02664
001509: 05,2665           02665                           OCT      02665
001510: 05,2666           02666                           OCT      02666
001511: 05,2667           02667                           OCT      02667
001512: 05,2670           02670                           OCT      02670
001513: 05,2671           02671                           OCT      02671
001514: 05,2672           02672                           OCT      02672
001515: 05,2673           02673                           OCT      02673
001516: 05,2674           02674                           OCT      02674
001517: 05,2675           02675                           OCT      02675
001518: 05,2676           02676                           OCT      02676
001519: 05,2677           02677                           OCT      02677
001520: 05,2700           02700                           OCT      02700
001521: 05,2701           02701                           OCT      02701
001522: 05,2702           02702                           OCT      02702
001523: 05,2703           02703                           OCT      02703
001524: 05,2704           02704                           OCT      02704
001525: 05,2705           02705                           OCT      02705
001526: 05,2706           02706                           OCT      02706
001527: 05,2707           02707                           OCT      02707
001528: 05,2710           02710                           OCT      02710
001529: 05,2711           02711                           OCT      02711
001530: 05,2712           02712                           OCT      02712
001531: 05,2713           02713                           OCT      02713
001532: 05,2714           02714                           OCT      02714
001533: 05,2715           02715                           OCT      02715
001534: 05,2716           02716                           OCT      02716
001535: 05,2717           02717                           OCT      02717
001536: 05,2720           02720                           OCT      02720
001537: 05,2721           02721                           OCT      02721
001538: 05,2722           02722                           OCT      02722
001539: 05,2723           02723                           OCT      02723
001540: 05,2724           02724                           OCT      02724
001541: 05,2725           02725                           OCT      02725
001542: 05,2726           02726                           OCT      02726
001543: 05,2727           02727                           OCT      02727
001544: 05,2730           02730                           OCT      02730
001545: 05,2731           02731                           OCT      02731
001546: 05,2732           02732                           OCT      02732
001547: 05,2733           02733                           OCT      02733
001548: 05,2734           02734                           OCT      02734
001549: 05,2735           02735                           OCT      02735
001550: 05,2736           02736                           OCT      02736


001552: 05,2737           02737                           OCT      02737
001553: 05,2740           02740                           OCT      02740
001554: 05,2741           02741                           OCT      02741
001555: 05,2742           02742                           OCT      02742
001556: 05,2743           02743                           OCT      02743
001557: 05,2744           02744                           OCT      02744
001558: 05,2745           02745                           OCT      02745
001559: 05,2746           02746                           OCT      02746
001560: 05,2747           02747                           OCT      02747
001561: 05,2750           02750                           OCT      02750
001562: 05,2751           02751                           OCT      02751
001563: 05,2752           02752                           OCT      02752
001564: 05,2753           02753                           OCT      02753
001565: 05,2754           02754                           OCT      02754
001566: 05,2755           02755                           OCT      02755
001567: 05,2756           02756                           OCT      02756
001568: 05,2757           02757                           OCT      02757
001569: 05,2760           02760                           OCT      02760
001570: 05,2761           02761                           OCT      02761
001571: 05,2762           02762                           OCT      02762
001572: 05,2763           02763                           OCT      02763
001573: 05,2764           02764                           OCT      02764
001574: 05,2765           02765                           OCT      02765
001575: 05,2766           02766                           OCT      02766
001576: 05,2767           02767                           OCT      02767
001577: 05,2770           02770                           OCT      02770
001578: 05,2771           02771                           OCT      02771
001579: 05,2772           02772                           OCT      02772
001580: 05,2773           02773                           OCT      02773
001581: 05,2774           02774                           OCT      02774
001582: 05,2775           02775                           OCT      02775
001583: 05,2776           02776                           OCT      02776
001584: 05,2777           02777                           OCT      02777
001585: 05,3000           03000                           OCT      03000
001586: 05,3001           03001                           OCT      03001
001587: 05,3002           03002                           OCT      03002
001588: 05,3003           03003                           OCT      03003
001589: 05,3004           03004                           OCT      03004
001590: 05,3005           03005                           OCT      03005
001591: 05,3006           03006                           OCT      03006
001592: 05,3007           03007                           OCT      03007
001593: 05,3010           03010                           OCT      03010
001594: 05,3011           03011                           OCT      03011
001595: 05,3012           03012                           OCT      03012
001596: 05,3013           03013                           OCT      03013
001597: 05,3014           03014                           OCT      03014
001598: 05,3015           03015                           OCT      03015
001599: 05,3016           03016                           OCT      03016
001600: 05,3017           03017                           OCT      03017
001601: 05,3020           03020                           OCT      03020
001602: 05,3021           03021                           OCT      03021
001603: 05,3022           03022                           OCT      03022
001604: 05,3023           03023                           OCT      03023
001605: 05,3024           03024                           OCT      03024
001606: 05,3025           03025                           OCT      03025
001607: 05,3026           03026                           OCT      03026
001608: 05,3027           03027                           OCT      03027
001609: 05,3030           03030                           OCT      03030


001611: 05,3031           03031                           OCT      03031
001612: 05,3032           03032                           OCT      03032
001613: 05,3033           03033                           OCT      03033
001614: 05,3034           03034                           OCT      03034
001615: 05,3035           03035                           OCT      03035
001616: 05,3036           03036                           OCT      03036
001617: 05,3037           03037                           OCT      03037
001618: 05,3040           03040                           OCT      03040
001619: 05,3041           03041                           OCT      03041
001620: 05,3042           03042                           OCT      03042
001621: 05,3043           03043                           OCT      03043
001622: 05,3044           03044                           OCT      03044
001623: 05,3045           03045                           OCT      03045
001624: 05,3046           03046                           OCT      03046
001625: 05,3047           03047                           OCT      03047
001626: 05,3050           03050                           OCT      03050
001627: 05,3051           03051                           OCT      03051
001628: 05,3052           03052                           OCT      03052
001629: 05,3053           03053                           OCT      03053
001630: 05,3054           03054                           OCT      03054
001631: 05,3055           03055                           OCT      03055
001632: 05,3056           03056                           OCT      03056
001633: 05,3057           03057                           OCT      03057
001634: 05,3060           03060                           OCT      03060
001635: 05,3061           03061                           OCT      03061
001636: 05,3062           03062                           OCT      03062
001637: 05,3063           03063                           OCT      03063
001638: 05,3064           03064                           OCT      03064
001639: 05,3065           03065                           OCT      03065
001640: 05,3066           03066                           OCT      03066
001641: 05,3067           03067                           OCT      03067
001642: 05,3070           03070                           OCT      03070
001643: 05,3071           03071                           OCT      03071
001644: 05,3072           03072                           OCT      03072
001645: 05,3073           03073                           OCT      03073
001646: 05,3074           03074                           OCT      03074
001647: 05,3075           03075                           OCT      03075
001648: 05,3076           03076                           OCT      03076
001649: 05,3077           03077                           OCT      03077
001650: 05,3100           03100                           OCT      03100
001651: 05,3101           03101                           OCT      03101
001652: 05,3102           03102                           OCT      03102
001653: 05,3103           03103                           OCT      03103
001654: 05,3104           03104                           OCT      03104
001655: 05,3105           03105                           OCT      03105
001656: 05,3106           03106                           OCT      03106
001657: 05,3107           03107                           OCT      03107
001658: 05,3110           03110                           OCT      03110
001659: 05,3111           03111                           OCT      03111
001660: 05,3112           03112                           OCT      03112
001661: 05,3113           03113                           OCT      03113
001662: 05,3114           03114                           OCT      03114
001663: 05,3115           03115                           OCT      03115
001664: 05,3116           03116                           OCT      03116
001665: 05,3117           03117                           OCT      03117
001666: 05,3120           03120                           OCT      03120
001667: 05,3121           03121                           OCT      03121
001668: 05,3122           03122                           OCT      03122


001670: 05,3123           03123                           OCT      03123
001671: 05,3124           03124                           OCT      03124
001672: 05,3125           03125                           OCT      03125
001673: 05,3126           03126                           OCT      03126
001674: 05,3127           03127                           OCT      03127
001675: 05,3130           03130                           OCT      03130
001676: 05,3131           03131                           OCT      03131
001677: 05,3132           03132                           OCT      03132
001678: 05,3133           03133                           OCT      03133
001679: 05,3134           03134                           OCT      03134
001680: 05,3135           03135                           OCT      03135
001681: 05,3136           03136                           OCT      03136
001682: 05,3137           03137                           OCT      03137
001683: 05,3140           03140                           OCT      03140
001684: 05,3141           03141                           OCT      03141
001685: 05,3142           03142                           OCT      03142
001686: 05,3143           03143                           OCT      03143
001687: 05,3144           03144                           OCT      03144
001688: 05,3145           03145                           OCT      03145
001689: 05,3146           03146                           OCT      03146
001690: 05,3147           03147                           OCT      03147
001691: 05,3150           03150                           OCT      03150
001692: 05,3151           03151                           OCT      03151
001693: 05,3152           03152                           OCT      03152
001694: 05,3153           03153                           OCT      03153
001695: 05,3154           03154                           OCT      03154
001696: 05,3155           03155                           OCT      03155
001697: 05,3156           03156                           OCT      03156
001698: 05,3157           03157                           OCT      03157
001699: 05,3160           03160                           OCT      03160
001700: 05,3161           03161                           OCT      03161
001701: 05,3162           03162                           OCT      03162
001702: 05,3163           03163                           OCT      03163
001703: 05,3164           03164                           OCT      03164
001704: 05,3165           03165                           OCT      03165
001705: 05,3166           03166                           OCT      03166
001706: 05,3167           03167                           OCT      03167
001707: 05,3170           03170                           OCT      03170
001708: 05,3171           03171                           OCT      03171
001709: 05,3172           03172                           OCT      03172
001710: 05,3173           03173                           OCT      03173
001711: 05,3174           03174                           OCT      03174
001712: 05,3175           03175                           OCT      03175
001713: 05,3176           03176                           OCT      03176
001714: 05,3177           03177                           OCT      03177
001715: 05,3200           03200                           OCT      03200
001716: 05,3201           03201                           OCT      03201
001717: 05,3202           03202                           OCT      03202
001718: 05,3203           03203                           OCT      03203
001719: 05,3204           03204                           OCT      03204
001720: 05,3205           03205                           OCT      03205
001721: 05,3206           03206                           OCT      03206
001722: 05,3207           03207                           OCT      03207
001723: 05,3210           03210                           OCT      03210
001724: 05,3211           03211                           OCT      03211
001725: 05,3212           03212                           OCT      03212
001726: 05,3213           03213                           OCT      03213
001727: 05,3214           03214                           OCT      03214


001729: 05,3215           03215                           OCT      03215
001730: 05,3216           03216                           OCT      03216
001731: 05,3217           03217                           OCT      03217
001732: 05,3220           03220                           OCT      03220
001733: 05,3221           03221                           OCT      03221
001734: 05,3222           03222                           OCT      03222
001735: 05,3223           03223                           OCT      03223
001736: 05,3224           03224                           OCT      03224
001737: 05,3225           03225                           OCT      03225
001738: 05,3226           03226                           OCT      03226
001739: 05,3227           03227                           OCT      03227
001740: 05,3230           03230                           OCT      03230
001741: 05,3231           03231                           OCT      03231
001742: 05,3232           03232                           OCT      03232
001743: 05,3233           03233                           OCT      03233
001744: 05,3234           03234                           OCT      03234
001745: 05,3235           03235                           OCT      03235
001746: 05,3236           03236                           OCT      03236
001747: 05,3237           03237                           OCT      03237
001748: 05,3240           03240                           OCT      03240
001749: 05,3241           03241                           OCT      03241
001750: 05,3242           03242                           OCT      03242
001751: 05,3243           03243                           OCT      03243
001752: 05,3244           03244                           OCT      03244
001753: 05,3245           03245                           OCT      03245
001754: 05,3246           03246                           OCT      03246
001755: 05,3247           03247                           OCT      03247
001756: 05,3250           03250                           OCT      03250
001757: 05,3251           03251                           OCT      03251
001758: 05,3252           03252                           OCT      03252
001759: 05,3253           03253                           OCT      03253
001760: 05,3254           03254                           OCT      03254
001761: 05,3255           03255                           OCT      03255
001762: 05,3256           03256                           OCT      03256
001763: 05,3257           03257                           OCT      03257
001764: 05,3260           03260                           OCT      03260
001765: 05,3261           03261                           OCT      03261
001766: 05,3262           03262                           OCT      03262
001767: 05,3263           03263                           OCT      03263
001768: 05,3264           03264                           OCT      03264
001769: 05,3265           03265                           OCT      03265
001770: 05,3266           03266                           OCT      03266
001771: 05,3267           03267                           OCT      03267
001772: 05,3270           03270                           OCT      03270
001773: 05,3271           03271                           OCT      03271
001774: 05,3272           03272                           OCT      03272
001775: 05,3273           03273                           OCT      03273
001776: 05,3274           03274                           OCT      03274
001777: 05,3275           03275                           OCT      03275
001778: 05,3276           03276                           OCT      03276
001779: 05,3277           03277                           OCT      03277
001780: 05,3300           03300                           OCT      03300
001781: 05,3301           03301                           OCT      03301
001782: 05,3302           03302                           OCT      03302
001783: 05,3303           03303                           OCT      03303
001784: 05,3304           03304                           OCT      03304
001785: 05,3305           03305                           OCT      03305
001786: 05,3306           03306                           OCT      03306


001788: 05,3307           03307                           OCT      03307
001789: 05,3310           03310                           OCT      03310
001790: 05,3311           03311                           OCT      03311
001791: 05,3312           03312                           OCT      03312
001792: 05,3313           03313                           OCT      03313
001793: 05,3314           03314                           OCT      03314
001794: 05,3315           03315                           OCT      03315
001795: 05,3316           03316                           OCT      03316
001796: 05,3317           03317                           OCT      03317
001797: 05,3320           03320                           OCT      03320
001798: 05,3321           03321                           OCT      03321
001799: 05,3322           03322                           OCT      03322
001800: 05,3323           03323                           OCT      03323
001801: 05,3324           03324                           OCT      03324
001802: 05,3325           03325                           OCT      03325
001803: 05,3326           03326                           OCT      03326
001804: 05,3327           03327                           OCT      03327
001805: 05,3330           03330                           OCT      03330
001806: 05,3331           03331                           OCT      03331
001807: 05,3332           03332                           OCT      03332
001808: 05,3333           03333                           OCT      03333
001809: 05,3334           03334                           OCT      03334
001810: 05,3335           03335                           OCT      03335
001811: 05,3336           03336                           OCT      03336
001812: 05,3337           03337                           OCT      03337
001813: 05,3340           03340                           OCT      03340
001814: 05,3341           03341                           OCT      03341
001815: 05,3342           03342                           OCT      03342
001816: 05,3343           03343                           OCT      03343
001817: 05,3344           03344                           OCT      03344
001818: 05,3345           03345                           OCT      03345
001819: 05,3346           03346                           OCT      03346
001820: 05,3347           03347                           OCT      03347
001821: 05,3350           03350                           OCT      03350
001822: 05,3351           03351                           OCT      03351
001823: 05,3352           03352                           OCT      03352
001824: 05,3353           03353                           OCT      03353
001825: 05,3354           03354                           OCT      03354
001826: 05,3355           03355                           OCT      03355
001827: 05,3356           03356                           OCT      03356
001828: 05,3357           03357                           OCT      03357
001829: 05,3360           03360                           OCT      03360
001830: 05,3361           03361                           OCT      03361
001831: 05,3362           03362                           OCT      03362
001832: 05,3363           03363                           OCT      03363
001833: 05,3364           03364                           OCT      03364
001834: 05,3365           03365                           OCT      03365
001835: 05,3366           03366                           OCT      03366
001836: 05,3367           03367                           OCT      03367
001837: 05,3370           03370                           OCT      03370
001838: 05,3371           03371                           OCT      03371
001839: 05,3372           03372                           OCT      03372
001840: 05,3373           03373                           OCT      03373
001841: 05,3374           03374                           OCT      03374
001842: 05,3375           03375                           OCT      03375
001843: 05,3376           03376                           OCT      03376
001844: 05,3377           03377                           OCT      03377
001845: 05,3400           03400                           OCT      03400


001847: 05,3401           03401                           OCT      03401
001848: 05,3402           03402                           OCT      03402
001849: 05,3403           03403                           OCT      03403
001850: 05,3404           03404                           OCT      03404
001851: 05,3405           03405                           OCT      03405
001852: 05,3406           03406                           OCT      03406
001853: 05,3407           03407                           OCT      03407
001854: 05,3410           03410                           OCT      03410
001855: 05,3411           03411                           OCT      03411
001856: 05,3412           03412                           OCT      03412
001857: 05,3413           03413                           OCT      03413
001858: 05,3414           03414                           OCT      03414
001859: 05,3415           03415                           OCT      03415
001860: 05,3416           03416                           OCT      03416
001861: 05,3417           03417                           OCT      03417
001862: 05,3420           03420                           OCT      03420
001863: 05,3421           03421                           OCT      03421
001864: 05,3422           03422                           OCT      03422
001865: 05,3423           03423                           OCT      03423
001866: 05,3424           03424                           OCT      03424
001867: 05,3425           03425                           OCT      03425
001868: 05,3426           03426                           OCT      03426
001869: 05,3427           03427                           OCT      03427
001870: 05,3430           03430                           OCT      03430
001871: 05,3431           03431                           OCT      03431
001872: 05,3432           03432                           OCT      03432
001873: 05,3433           03433                           OCT      03433
001874: 05,3434           03434                           OCT      03434
001875: 05,3435           03435                           OCT      03435
001876: 05,3436           03436                           OCT      03436
001877: 05,3437           03437                           OCT      03437
001878: 05,3440           03440                           OCT      03440
001879: 05,3441           03441                           OCT      03441
001880: 05,3442           03442                           OCT      03442
001881: 05,3443           03443                           OCT      03443
001882: 05,3444           03444                           OCT      03444
001883: 05,3445           03445                           OCT      03445
001884: 05,3446           03446                           OCT      03446
001885: 05,3447           03447                           OCT      03447
001886: 05,3450           03450                           OCT      03450
001887: 05,3451           03451                           OCT      03451
001888: 05,3452           03452                           OCT      03452
001889: 05,3453           03453                           OCT      03453
001890: 05,3454           03454                           OCT      03454
001891: 05,3455           03455                           OCT      03455
001892: 05,3456           03456                           OCT      03456
001893: 05,3457           03457                           OCT      03457
001894: 05,3460           03460                           OCT      03460
001895: 05,3461           03461                           OCT      03461
001896: 05,3462           03462                           OCT      03462
001897: 05,3463           03463                           OCT      03463
001898: 05,3464           03464                           OCT      03464
001899: 05,3465           03465                           OCT      03465
001900: 05,3466           03466                           OCT      03466
001901: 05,3467           03467                           OCT      03467
001902: 05,3470           03470                           OCT      03470
001903: 05,3471           03471                           OCT      03471
001904: 05,3472           03472                           OCT      03472


001906: 05,3473           03473                           OCT      03473
001907: 05,3474           03474                           OCT      03474
001908: 05,3475           03475                           OCT      03475
001909: 05,3476           03476                           OCT      03476
001910: 05,3477           03477                           OCT      03477
001911: 05,3500           03500                           OCT      03500
001912: 05,3501           03501                           OCT      03501
001913: 05,3502           03502                           OCT      03502
001914: 05,3503           03503                           OCT      03503
001915: 05,3504           03504                           OCT      03504
001916: 05,3505           03505                           OCT      03505
001917: 05,3506           03506                           OCT      03506
001918: 05,3507           03507                           OCT      03507
001919: 05,3510           03510                           OCT      03510
001920: 05,3511           03511                           OCT      03511
001921: 05,3512           03512                           OCT      03512
001922: 05,3513           03513                           OCT      03513
001923: 05,3514           03514                           OCT      03514
001924: 05,3515           03515                           OCT      03515
001925: 05,3516           03516                           OCT      03516
001926: 05,3517           03517                           OCT      03517
001927: 05,3520           03520                           OCT      03520
001928: 05,3521           03521                           OCT      03521
001929: 05,3522           03522                           OCT      03522
001930: 05,3523           03523                           OCT      03523
001931: 05,3524           03524                           OCT      03524
001932: 05,3525           03525                           OCT      03525
001933: 05,3526           03526                           OCT      03526
001934: 05,3527           03527                           OCT      03527
001935: 05,3530           03530                           OCT      03530
001936: 05,3531           03531                           OCT      03531
001937: 05,3532           03532                           OCT      03532
001938: 05,3533           03533                           OCT      03533
001939: 05,3534           03534                           OCT      03534
001940: 05,3535           03535                           OCT      03535
001941: 05,3536           03536                           OCT      03536
001942: 05,3537           03537                           OCT      03537
001943: 05,3540           03540                           OCT      03540
001944: 05,3541           03541                           OCT      03541
001945: 05,3542           03542                           OCT      03542
001946: 05,3543           03543                           OCT      03543
001947: 05,3544           03544                           OCT      03544
001948: 05,3545           03545                           OCT      03545
001949: 05,3546           03546                           OCT      03546
001950: 05,3547           03547                           OCT      03547
001951: 05,3550           03550                           OCT      03550
001952: 05,3551           03551                           OCT      03551
001953: 05,3552           03552                           OCT      03552
001954: 05,3553           03553                           OCT      03553
001955: 05,3554           03554                           OCT      03554
001956: 05,3555           03555                           OCT      03555
001957: 05,3556           03556                           OCT      03556
001958: 05,3557           03557                           OCT      03557
001959: 05,3560           03560                           OCT      03560
001960: 05,3561           03561                           OCT      03561
001961: 05,3562           03562                           OCT      03562
001962: 05,3563           03563                           OCT      03563
001963: 05,3564           03564                           OCT      03564


001965: 05,3565           03565                           OCT      03565
001966: 05,3566           03566                           OCT      03566
001967: 05,3567           03567                           OCT      03567
001968: 05,3570           03570                           OCT      03570
001969: 05,3571           03571                           OCT      03571
001970: 05,3572           03572                           OCT      03572
001971: 05,3573           03573                           OCT      03573
001972: 05,3574           03574                           OCT      03574
001973: 05,3575           03575                           OCT      03575
001974: 05,3576           03576                           OCT      03576
001975: 05,3577           03577                           OCT      03577
001976: 05,3600           03600                           OCT      03600
001977: 05,3601           03601                           OCT      03601
001978: 05,3602           03602                           OCT      03602
001979: 05,3603           03603                           OCT      03603
001980: 05,3604           03604                           OCT      03604
001981: 05,3605           03605                           OCT      03605
001982: 05,3606           03606                           OCT      03606
001983: 05,3607           03607                           OCT      03607
001984: 05,3610           03610                           OCT      03610
001985: 05,3611           03611                           OCT      03611
001986: 05,3612           03612                           OCT      03612
001987: 05,3613           03613                           OCT      03613
001988: 05,3614           03614                           OCT      03614
001989: 05,3615           03615                           OCT      03615
001990: 05,3616           03616                           OCT      03616
001991: 05,3617           03617                           OCT      03617
001992: 05,3620           03620                           OCT      03620
001993: 05,3621           03621                           OCT      03621
001994: 05,3622           03622                           OCT      03622
001995: 05,3623           03623                           OCT      03623
001996: 05,3624           03624                           OCT      03624
001997: 05,3625           03625                           OCT      03625
001998: 05,3626           03626                           OCT      03626
001999: 05,3627           03627                           OCT      03627
002000: 05,3630           03630                           OCT      03630
002001: 05,3631           03631                           OCT      03631
002002: 05,3632           03632                           OCT      03632
002003: 05,3633           03633                           OCT      03633
002004: 05,3634           03634                           OCT      03634
002005: 05,3635           03635                           OCT      03635
002006: 05,3636           03636                           OCT      03636
002007: 05,3637           03637                           OCT      03637
002008: 05,3640           03640                           OCT      03640
002009: 05,3641           03641                           OCT      03641
002010: 05,3642           03642                           OCT      03642
002011: 05,3643           03643                           OCT      03643
002012: 05,3644           03644                           OCT      03644
002013: 05,3645           03645                           OCT      03645
002014: 05,3646           03646                           OCT      03646
002015: 05,3647           03647                           OCT      03647
002016: 05,3650           03650                           OCT      03650
002017: 05,3651           03651                           OCT      03651
002018: 05,3652           03652                           OCT      03652
002019: 05,3653           03653                           OCT      03653
002020: 05,3654           03654                           OCT      03654
002021: 05,3655           03655                           OCT      03655
002022: 05,3656           03656                           OCT      03656


002024: 05,3657           03657                           OCT      03657
002025: 05,3660           03660                           OCT      03660
002026: 05,3661           03661                           OCT      03661
002027: 05,3662           03662                           OCT      03662
002028: 05,3663           03663                           OCT      03663
002029: 05,3664           03664                           OCT      03664
002030: 05,3665           03665                           OCT      03665
002031: 05,3666           03666                           OCT      03666
002032: 05,3667           03667                           OCT      03667
002033: 05,3670           03670                           OCT      03670
002034: 05,3671           03671                           OCT      03671
002035: 05,3672           03672                           OCT      03672
002036: 05,3673           03673                           OCT      03673
002037: 05,3674           03674                           OCT      03674
002038: 05,3675           03675                           OCT      03675
002039: 05,3676           03676                           OCT      03676
002040: 05,3677           03677                           OCT      03677
002041: 05,3700           03700                           OCT      03700
002042: 05,3701           03701                           OCT      03701
002043: 05,3702           03702                           OCT      03702
002044: 05,3703           03703                           OCT      03703
002045: 05,3704           03704                           OCT      03704
002046: 05,3705           03705                           OCT      03705
002047: 05,3706           03706                           OCT      03706
002048: 05,3707           03707                           OCT      03707
002049: 05,3710           03710                           OCT      03710
002050: 05,3711           03711                           OCT      03711
002051: 05,3712           03712                           OCT      03712
002052: 05,3713           03713                           OCT      03713
002053: 05,3714           03714                           OCT      03714
002054: 05,3715           03715                           OCT      03715
002055: 05,3716           03716                           OCT      03716
002056: 05,3717           03717                           OCT      03717
002057: 05,3720           03720                           OCT      03720
002058: 05,3721           03721                           OCT      03721
002059: 05,3722           03722                           OCT      03722
002060: 05,3723           03723                           OCT      03723
002061: 05,3724           03724                           OCT      03724
002062: 05,3725           03725                           OCT      03725
002063: 05,3726           03726                           OCT      03726
002064: 05,3727           03727                           OCT      03727
002065: 05,3730           03730                           OCT      03730
002066: 05,3731           03731                           OCT      03731
002067: 05,3732           03732                           OCT      03732
002068: 05,3733           03733                           OCT      03733
002069: 05,3734           03734                           OCT      03734
002070: 05,3735           03735                           OCT      03735
002071: 05,3736           03736                           OCT      03736
002072: 05,3737           03737                           OCT      03737
002073: 05,3740           03740                           OCT      03740
002074: 05,3741           03741                           OCT      03741
002075: 05,3742           03742                           OCT      03742
002076: 05,3743           03743                           OCT      03743
002077: 05,3744           03744                           OCT      03744
002078: 05,3745           03745                           OCT      03745
002079: 05,3746           03746                           OCT      03746
002080: 05,3747           03747                           OCT      03747
002081: 05,3750           03750                           OCT      03750


002083: 05,3751           03751                           OCT      03751
002084: 05,3752           03752                           OCT      03752
002085: 05,3753           03753                           OCT      03753
002086: 05,3754           03754                           OCT      03754
002087: 05,3755           03755                           OCT      03755
002088: 05,3756           03756                           OCT      03756
002089: 05,3757           03757                           OCT      03757
002090: 05,3760           03760                           OCT      03760
002091: 05,3761           03761                           OCT      03761
002092: 05,3762           03762                           OCT      03762
002093: 05,3763           03763                           OCT      03763
002094: 05,3764           03764                           OCT      03764
002095: 05,3765           03765                           OCT      03765
002096: 05,3766           03766                           OCT      03766
002097: 05,3767           03767                           OCT      03767
002098: 05,3770           03770                           OCT      03770
002099: 05,3771           03771                           OCT      03771
002100: 05,3772           03772                           OCT      03772
002101: 05,3773           03773                           OCT      03773
002102: 05,3774           03774                           OCT      03774
002103: 05,3775           03775                           OCT      03775
002104: 05,3776           03776                           OCT      03776
Warning:  Next code may overflow storage.
002105: 05,3777           03777                           OCT      03777
002106: 06,2000                                           SETLOC   CF062000
002107: 06,2000           41001                           OCT      41001
002108: 06,2001           04001                           OCT      04001
002109: 06,2002           04002                           OCT      04002
002110: 06,2003           04003                           OCT      04003
002111: 06,2004           04004                           OCT      04004
002112: 06,2005           04005                           OCT      04005
002113: 06,2006           04006                           OCT      04006
002114: 06,2007           04007                           OCT      04007
002115: 06,2010           04010                           OCT      04010
002116: 06,2011           04011                           OCT      04011
002117: 06,2012           04012                           OCT      04012
002118: 06,2013           04013                           OCT      04013
002119: 06,2014           04014                           OCT      04014
002120: 06,2015           04015                           OCT      04015
002121: 06,2016           04016                           OCT      04016
002122: 06,2017           04017                           OCT      04017
002123: 06,2020           04020                           OCT      04020
002124: 06,2021           04021                           OCT      04021
002125: 06,2022           04022                           OCT      04022
002126: 06,2023           04023                           OCT      04023
002127: 06,2024           04024                           OCT      04024
002128: 06,2025           04025                           OCT      04025
002129: 06,2026           04026                           OCT      04026
002130: 06,2027           04027                           OCT      04027
002131: 06,2030           04030                           OCT      04030
002132: 06,2031           04031                           OCT      04031
002133: 06,2032           04032                           OCT      04032
002134: 06,2033           04033                           OCT      04033
002135: 06,2034           04034                           OCT      04034
002136: 06,2035           04035                           OCT      04035
002137: 06,2036           04036                           OCT      04036
002138: 06,2037           04037                           OCT      04037
002139: 06,2040           04040                           OCT      04040
002140: 06,2041           04041                           OCT      04041


002142: 06,2042           04042                           OCT      04042
002143: 06,2043           04043                           OCT      04043
002144: 06,2044           04044                           OCT      04044
002145: 06,2045           04045                           OCT      04045
002146: 06,2046           04046                           OCT      04046
002147: 06,2047           04047                           OCT      04047
002148: 06,2050           04050                           OCT      04050
002149: 06,2051           04051                           OCT      04051
002150: 06,2052           04052                           OCT      04052
002151: 06,2053           04053                           OCT      04053
002152: 06,2054           04054                           OCT      04054
002153: 06,2055           04055                           OCT      04055
002154: 06,2056           04056                           OCT      04056
002155: 06,2057           04057                           OCT      04057
002156: 06,2060           04060                           OCT      04060
002157: 06,2061           04061                           OCT      04061
002158: 06,2062           04062                           OCT      04062
002159: 06,2063           04063                           OCT      04063
002160: 06,2064           04064                           OCT      04064
002161: 06,2065           04065                           OCT      04065
002162: 06,2066           04066                           OCT      04066
002163: 06,2067           04067                           OCT      04067
002164: 06,2070           04070                           OCT      04070
002165: 06,2071           04071                           OCT      04071
002166: 06,2072           04072                           OCT      04072
002167: 06,2073           04073                           OCT      04073
002168: 06,2074           04074                           OCT      04074
002169: 06,2075           04075                           OCT      04075
002170: 06,2076           04076                           OCT      04076
002171: 06,2077           04077                           OCT      04077
002172: 06,2100           04100                           OCT      04100
002173: 06,2101           04101                           OCT      04101
002174: 06,2102           04102                           OCT      04102
002175: 06,2103           04103                           OCT      04103
002176: 06,2104           04104                           OCT      04104
002177: 06,2105           04105                           OCT      04105
002178: 06,2106           04106                           OCT      04106
002179: 06,2107           04107                           OCT      04107
002180: 06,2110           04110                           OCT      04110
002181: 06,2111           04111                           OCT      04111
002182: 06,2112           04112                           OCT      04112
002183: 06,2113           04113                           OCT      04113
002184: 06,2114           04114                           OCT      04114
002185: 06,2115           04115                           OCT      04115
002186: 06,2116           04116                           OCT      04116
002187: 06,2117           04117                           OCT      04117
002188: 06,2120           04120                           OCT      04120
002189: 06,2121           04121                           OCT      04121
002190: 06,2122           04122                           OCT      04122
002191: 06,2123           04123                           OCT      04123
002192: 06,2124           04124                           OCT      04124
002193: 06,2125           04125                           OCT      04125
002194: 06,2126           04126                           OCT      04126
002195: 06,2127           04127                           OCT      04127
002196: 06,2130           04130                           OCT      04130
002197: 06,2131           04131                           OCT      04131
002198: 06,2132           04132                           OCT      04132
002199: 06,2133           04133                           OCT      04133


002201: 06,2134           04134                           OCT      04134
002202: 06,2135           04135                           OCT      04135
002203: 06,2136           04136                           OCT      04136
002204: 06,2137           04137                           OCT      04137
002205: 06,2140           04140                           OCT      04140
002206: 06,2141           04141                           OCT      04141
002207: 06,2142           04142                           OCT      04142
002208: 06,2143           04143                           OCT      04143
002209: 06,2144           04144                           OCT      04144
002210: 06,2145           04145                           OCT      04145
002211: 06,2146           04146                           OCT      04146
002212: 06,2147           04147                           OCT      04147
002213: 06,2150           04150                           OCT      04150
002214: 06,2151           04151                           OCT      04151
002215: 06,2152           04152                           OCT      04152
002216: 06,2153           04153                           OCT      04153
002217: 06,2154           04154                           OCT      04154
002218: 06,2155           04155                           OCT      04155
002219: 06,2156           04156                           OCT      04156
002220: 06,2157           04157                           OCT      04157
002221: 06,2160           04160                           OCT      04160
002222: 06,2161           04161                           OCT      04161
002223: 06,2162           04162                           OCT      04162
002224: 06,2163           04163                           OCT      04163
002225: 06,2164           04164                           OCT      04164
002226: 06,2165           04165                           OCT      04165
002227: 06,2166           04166                           OCT      04166
002228: 06,2167           04167                           OCT      04167
002229: 06,2170           04170                           OCT      04170
002230: 06,2171           04171                           OCT      04171
002231: 06,2172           04172                           OCT      04172
002232: 06,2173           04173                           OCT      04173
002233: 06,2174           04174                           OCT      04174
002234: 06,2175           04175                           OCT      04175
002235: 06,2176           04176                           OCT      04176
002236: 06,2177           04177                           OCT      04177
002237: 06,2200           04200                           OCT      04200
002238: 06,2201           04201                           OCT      04201
002239: 06,2202           04202                           OCT      04202
002240: 06,2203           04203                           OCT      04203
002241: 06,2204           04204                           OCT      04204
002242: 06,2205           04205                           OCT      04205
002243: 06,2206           04206                           OCT      04206
002244: 06,2207           04207                           OCT      04207
002245: 06,2210           04210                           OCT      04210
002246: 06,2211           04211                           OCT      04211
002247: 06,2212           04212                           OCT      04212
002248: 06,2213           04213                           OCT      04213
002249: 06,2214           04214                           OCT      04214
002250: 06,2215           04215                           OCT      04215
002251: 06,2216           04216                           OCT      04216
002252: 06,2217           04217                           OCT      04217
002253: 06,2220           04220                           OCT      04220
002254: 06,2221           04221                           OCT      04221
002255: 06,2222           04222                           OCT      04222
002256: 06,2223           04223                           OCT      04223
002257: 06,2224           04224                           OCT      04224
002258: 06,2225           04225                           OCT      04225


002260: 06,2226           04226                           OCT      04226
002261: 06,2227           04227                           OCT      04227
002262: 06,2230           04230                           OCT      04230
002263: 06,2231           04231                           OCT      04231
002264: 06,2232           04232                           OCT      04232
002265: 06,2233           04233                           OCT      04233
002266: 06,2234           04234                           OCT      04234
002267: 06,2235           04235                           OCT      04235
002268: 06,2236           04236                           OCT      04236
002269: 06,2237           04237                           OCT      04237
002270: 06,2240           04240                           OCT      04240
002271: 06,2241           04241                           OCT      04241
002272: 06,2242           04242                           OCT      04242
002273: 06,2243           04243                           OCT      04243
002274: 06,2244           04244                           OCT      04244
002275: 06,2245           04245                           OCT      04245
002276: 06,2246           04246                           OCT      04246
002277: 06,2247           04247                           OCT      04247
002278: 06,2250           04250                           OCT      04250
002279: 06,2251           04251                           OCT      04251
002280: 06,2252           04252                           OCT      04252
002281: 06,2253           04253                           OCT      04253
002282: 06,2254           04254                           OCT      04254
002283: 06,2255           04255                           OCT      04255
002284: 06,2256           04256                           OCT      04256
002285: 06,2257           04257                           OCT      04257
002286: 06,2260           04260                           OCT      04260
002287: 06,2261           04261                           OCT      04261
002288: 06,2262           04262                           OCT      04262
002289: 06,2263           04263                           OCT      04263
002290: 06,2264           04264                           OCT      04264
002291: 06,2265           04265                           OCT      04265
002292: 06,2266           04266                           OCT      04266
002293: 06,2267           04267                           OCT      04267
002294: 06,2270           04270                           OCT      04270
002295: 06,2271           04271                           OCT      04271
002296: 06,2272           04272                           OCT      04272
002297: 06,2273           04273                           OCT      04273
002298: 06,2274           04274                           OCT      04274
002299: 06,2275           04275                           OCT      04275
002300: 06,2276           04276                           OCT      04276
002301: 06,2277           04277                           OCT      04277
002302: 06,2300           04300                           OCT      04300
002303: 06,2301           04301                           OCT      04301
002304: 06,2302           04302                           OCT      04302
002305: 06,2303           04303                           OCT      04303
002306: 06,2304           04304                           OCT      04304
002307: 06,2305           04305                           OCT      04305
002308: 06,2306           04306                           OCT      04306
002309: 06,2307           04307                           OCT      04307
002310: 06,2310           04310                           OCT      04310
002311: 06,2311           04311                           OCT      04311
002312: 06,2312           04312                           OCT      04312
002313: 06,2313           04313                           OCT      04313
002314: 06,2314           04314                           OCT      04314
002315: 06,2315           04315                           OCT      04315
002316: 06,2316           04316                           OCT      04316
002317: 06,2317           04317                           OCT      04317


002319: 06,2320           04320                           OCT      04320
002320: 06,2321           04321                           OCT      04321
002321: 06,2322           04322                           OCT      04322
002322: 06,2323           04323                           OCT      04323
002323: 06,2324           04324                           OCT      04324
002324: 06,2325           04325                           OCT      04325
002325: 06,2326           04326                           OCT      04326
002326: 06,2327           04327                           OCT      04327
002327: 06,2330           04330                           OCT      04330
002328: 06,2331           04331                           OCT      04331
002329: 06,2332           04332                           OCT      04332
002330: 06,2333           04333                           OCT      04333
002331: 06,2334           04334                           OCT      04334
002332: 06,2335           04335                           OCT      04335
002333: 06,2336           04336                           OCT      04336
002334: 06,2337           04337                           OCT      04337
002335: 06,2340           04340                           OCT      04340
002336: 06,2341           04341                           OCT      04341
002337: 06,2342           04342                           OCT      04342
002338: 06,2343           04343                           OCT      04343
002339: 06,2344           04344                           OCT      04344
002340: 06,2345           04345                           OCT      04345
002341: 06,2346           04346                           OCT      04346
002342: 06,2347           04347                           OCT      04347
002343: 06,2350           04350                           OCT      04350
002344: 06,2351           04351                           OCT      04351
002345: 06,2352           04352                           OCT      04352
002346: 06,2353           04353                           OCT      04353
002347: 06,2354           04354                           OCT      04354
002348: 06,2355           04355                           OCT      04355
002349: 06,2356           04356                           OCT      04356
002350: 06,2357           04357                           OCT      04357
002351: 06,2360           04360                           OCT      04360
002352: 06,2361           04361                           OCT      04361
002353: 06,2362           04362                           OCT      04362
002354: 06,2363           04363                           OCT      04363
002355: 06,2364           04364                           OCT      04364
002356: 06,2365           04365                           OCT      04365
002357: 06,2366           04366                           OCT      04366
002358: 06,2367           04367                           OCT      04367
002359: 06,2370           04370                           OCT      04370
002360: 06,2371           04371                           OCT      04371
002361: 06,2372           04372                           OCT      04372
002362: 06,2373           04373                           OCT      04373
002363: 06,2374           04374                           OCT      04374
002364: 06,2375           04375                           OCT      04375
002365: 06,2376           04376                           OCT      04376
002366: 06,2377           04400                           OCT      04400
002367: 06,2400           04377                           OCT      04377
002368: 06,2401           04401                           OCT      04401
002369: 06,2402           04402                           OCT      04402
002370: 06,2403           04403                           OCT      04403
002371: 06,2404           04404                           OCT      04404
002372: 06,2405           04405                           OCT      04405
002373: 06,2406           04406                           OCT      04406
002374: 06,2407           04407                           OCT      04407
002375: 06,2410           04410                           OCT      04410
002376: 06,2411           04411                           OCT      04411


002378: 06,2412           04412                           OCT      04412
002379: 06,2413           04413                           OCT      04413
002380: 06,2414           04414                           OCT      04414
002381: 06,2415           04415                           OCT      04415
002382: 06,2416           04416                           OCT      04416
002383: 06,2417           04417                           OCT      04417
002384: 06,2420           04420                           OCT      04420
002385: 06,2421           04421                           OCT      04421
002386: 06,2422           04422                           OCT      04422
002387: 06,2423           04423                           OCT      04423
002388: 06,2424           04424                           OCT      04424
002389: 06,2425           04425                           OCT      04425
002390: 06,2426           04426                           OCT      04426
002391: 06,2427           04427                           OCT      04427
002392: 06,2430           04430                           OCT      04430
002393: 06,2431           04431                           OCT      04431
002394: 06,2432           04432                           OCT      04432
002395: 06,2433           04433                           OCT      04433
002396: 06,2434           04434                           OCT      04434
002397: 06,2435           04435                           OCT      04435
002398: 06,2436           04436                           OCT      04436
002399: 06,2437           04437                           OCT      04437
002400: 06,2440           04440                           OCT      04440
002401: 06,2441           04441                           OCT      04441
002402: 06,2442           04442                           OCT      04442
002403: 06,2443           04443                           OCT      04443
002404: 06,2444           04444                           OCT      04444
002405: 06,2445           04445                           OCT      04445
002406: 06,2446           04446                           OCT      04446
002407: 06,2447           04447                           OCT      04447
002408: 06,2450           04450                           OCT      04450
002409: 06,2451           04451                           OCT      04451
002410: 06,2452           04452                           OCT      04452
002411: 06,2453           04453                           OCT      04453
002412: 06,2454           04454                           OCT      04454
002413: 06,2455           04455                           OCT      04455
002414: 06,2456           04456                           OCT      04456
002415: 06,2457           04457                           OCT      04457
002416: 06,2460           04460                           OCT      04460
002417: 06,2461           04461                           OCT      04461
002418: 06,2462           04462                           OCT      04462
002419: 06,2463           04463                           OCT      04463
002420: 06,2464           04464                           OCT      04464
002421: 06,2465           04465                           OCT      04465
002422: 06,2466           04466                           OCT      04466
002423: 06,2467           04467                           OCT      04467
002424: 06,2470           04470                           OCT      04470
002425: 06,2471           04471                           OCT      04471
002426: 06,2472           04472                           OCT      04472
002427: 06,2473           04473                           OCT      04473
002428: 06,2474           04474                           OCT      04474
002429: 06,2475           04475                           OCT      04475
002430: 06,2476           04476                           OCT      04476
002431: 06,2477           04477                           OCT      04477
002432: 06,2500           04500                           OCT      04500
002433: 06,2501           04501                           OCT      04501
002434: 06,2502           04502                           OCT      04502
002435: 06,2503           04503                           OCT      04503


002437: 06,2504           04504                           OCT      04504
002438: 06,2505           04505                           OCT      04505
002439: 06,2506           04506                           OCT      04506
002440: 06,2507           04507                           OCT      04507
002441: 06,2510           04510                           OCT      04510
002442: 06,2511           04511                           OCT      04511
002443: 06,2512           04512                           OCT      04512
002444: 06,2513           04513                           OCT      04513
002445: 06,2514           04514                           OCT      04514
002446: 06,2515           04515                           OCT      04515
002447: 06,2516           04516                           OCT      04516
002448: 06,2517           04517                           OCT      04517
002449: 06,2520           04520                           OCT      04520
002450: 06,2521           04521                           OCT      04521
002451: 06,2522           04522                           OCT      04522
002452: 06,2523           04523                           OCT      04523
002453: 06,2524           04524                           OCT      04524
002454: 06,2525           04525                           OCT      04525
002455: 06,2526           04526                           OCT      04526
002456: 06,2527           04527                           OCT      04527
002457: 06,2530           04530                           OCT      04530
002458: 06,2531           04531                           OCT      04531
002459: 06,2532           04532                           OCT      04532
002460: 06,2533           04533                           OCT      04533
002461: 06,2534           04534                           OCT      04534
002462: 06,2535           04535                           OCT      04535
002463: 06,2536           04536                           OCT      04536
002464: 06,2537           04537                           OCT      04537
002465: 06,2540           04540                           OCT      04540
002466: 06,2541           04541                           OCT      04541
002467: 06,2542           04542                           OCT      04542
002468: 06,2543           04543                           OCT      04543
002469: 06,2544           04544                           OCT      04544
002470: 06,2545           04545                           OCT      04545
002471: 06,2546           04546                           OCT      04546
002472: 06,2547           04547                           OCT      04547
002473: 06,2550           04550                           OCT      04550
002474: 06,2551           04551                           OCT      04551
002475: 06,2552           04552                           OCT      04552
002476: 06,2553           04553                           OCT      04553
002477: 06,2554           04554                           OCT      04554
002478: 06,2555           04555                           OCT      04555
002479: 06,2556           04556                           OCT      04556
002480: 06,2557           04557                           OCT      04557
002481: 06,2560           04560                           OCT      04560
002482: 06,2561           04561                           OCT      04561
002483: 06,2562           04562                           OCT      04562
002484: 06,2563           04563                           OCT      04563
002485: 06,2564           04564                           OCT      04564
002486: 06,2565           04565                           OCT      04565
002487: 06,2566           04566                           OCT      04566
002488: 06,2567           04567                           OCT      04567
002489: 06,2570           04570                           OCT      04570
002490: 06,2571           04571                           OCT      04571
002491: 06,2572           04572                           OCT      04572
002492: 06,2573           04573                           OCT      04573
002493: 06,2574           04574                           OCT      04574
002494: 06,2575           04575                           OCT      04575


002496: 06,2576           04576                           OCT      04576
002497: 06,2577           04577                           OCT      04577
002498: 06,2600           04600                           OCT      04600
002499: 06,2601           04601                           OCT      04601
002500: 06,2602           04602                           OCT      04602
002501: 06,2603           04603                           OCT      04603
002502: 06,2604           04604                           OCT      04604
002503: 06,2605           04605                           OCT      04605
002504: 06,2606           04606                           OCT      04606
002505: 06,2607           04607                           OCT      04607
002506: 06,2610           04610                           OCT      04610
002507: 06,2611           04611                           OCT      04611
002508: 06,2612           04612                           OCT      04612
002509: 06,2613           04613                           OCT      04613
002510: 06,2614           04614                           OCT      04614
002511: 06,2615           04615                           OCT      04615
002512: 06,2616           04616                           OCT      04616
002513: 06,2617           04617                           OCT      04617
002514: 06,2620           04620                           OCT      04620
002515: 06,2621           04621                           OCT      04621
002516: 06,2622           04622                           OCT      04622
002517: 06,2623           04623                           OCT      04623
002518: 06,2624           04624                           OCT      04624
002519: 06,2625           04625                           OCT      04625
002520: 06,2626           04626                           OCT      04626
002521: 06,2627           04627                           OCT      04627
002522: 06,2630           04630                           OCT      04630
002523: 06,2631           04631                           OCT      04631
002524: 06,2632           04632                           OCT      04632
002525: 06,2633           04633                           OCT      04633
002526: 06,2634           04634                           OCT      04634
002527: 06,2635           04635                           OCT      04635
002528: 06,2636           04636                           OCT      04636
002529: 06,2637           04637                           OCT      04637
002530: 06,2640           04640                           OCT      04640
002531: 06,2641           04641                           OCT      04641
002532: 06,2642           04642                           OCT      04642
002533: 06,2643           04643                           OCT      04643
002534: 06,2644           04644                           OCT      04644
002535: 06,2645           04645                           OCT      04645
002536: 06,2646           04646                           OCT      04646
002537: 06,2647           04647                           OCT      04647
002538: 06,2650           04650                           OCT      04650
002539: 06,2651           04651                           OCT      04651
002540: 06,2652           04652                           OCT      04652
002541: 06,2653           04653                           OCT      04653
002542: 06,2654           04654                           OCT      04654
002543: 06,2655           04655                           OCT      04655
002544: 06,2656           04656                           OCT      04656
002545: 06,2657           04657                           OCT      04657
002546: 06,2660           04660                           OCT      04660
002547: 06,2661           04661                           OCT      04661
002548: 06,2662           04662                           OCT      04662
002549: 06,2663           04663                           OCT      04663
002550: 06,2664           04664                           OCT      04664
002551: 06,2665           04665                           OCT      04665
002552: 06,2666           04666                           OCT      04666
002553: 06,2667           04667                           OCT      04667


002555: 06,2670           04670                           OCT      04670
002556: 06,2671           04671                           OCT      04671
002557: 06,2672           04672                           OCT      04672
002558: 06,2673           04673                           OCT      04673
002559: 06,2674           04674                           OCT      04674
002560: 06,2675           04675                           OCT      04675
002561: 06,2676           04676                           OCT      04676
002562: 06,2677           04677                           OCT      04677
002563: 06,2700           04700                           OCT      04700
002564: 06,2701           04701                           OCT      04701
002565: 06,2702           04702                           OCT      04702
002566: 06,2703           04703                           OCT      04703
002567: 06,2704           04704                           OCT      04704
002568: 06,2705           04705                           OCT      04705
002569: 06,2706           04706                           OCT      04706
002570: 06,2707           04707                           OCT      04707
002571: 06,2710           04710                           OCT      04710
002572: 06,2711           04711                           OCT      04711
002573: 06,2712           04712                           OCT      04712
002574: 06,2713           04713                           OCT      04713
002575: 06,2714           04714                           OCT      04714
002576: 06,2715           04715                           OCT      04715
002577: 06,2716           04716                           OCT      04716
002578: 06,2717           04717                           OCT      04717
002579: 06,2720           04720                           OCT      04720
002580: 06,2721           04721                           OCT      04721
002581: 06,2722           04722                           OCT      04722
002582: 06,2723           04723                           OCT      04723
002583: 06,2724           04724                           OCT      04724
002584: 06,2725           04725                           OCT      04725
002585: 06,2726           04726                           OCT      04726
002586: 06,2727           04727                           OCT      04727
002587: 06,2730           04730                           OCT      04730
002588: 06,2731           04731                           OCT      04731
002589: 06,2732           04732                           OCT      04732
002590: 06,2733           04733                           OCT      04733
002591: 06,2734           04734                           OCT      04734
002592: 06,2735           04735                           OCT      04735
002593: 06,2736           04736                           OCT      04736
002594: 06,2737           04737                           OCT      04737
002595: 06,2740           04740                           OCT      04740
002596: 06,2741           04741                           OCT      04741
002597: 06,2742           04742                           OCT      04742
002598: 06,2743           04743                           OCT      04743
002599: 06,2744           04744                           OCT      04744
002600: 06,2745           04745                           OCT      04745
002601: 06,2746           04746                           OCT      04746
002602: 06,2747           04747                           OCT      04747
002603: 06,2750           04750                           OCT      04750
002604: 06,2751           04751                           OCT      04751
002605: 06,2752           04752                           OCT      04752
002606: 06,2753           04753                           OCT      04753
002607: 06,2754           04754                           OCT      04754
002608: 06,2755           04755                           OCT      04755
002609: 06,2756           04756                           OCT      04756
002610: 06,2757           04757                           OCT      04757
002611: 06,2760           04760                           OCT      04760
002612: 06,2761           04761                           OCT      04761


002614: 06,2762           04762                           OCT      04762
002615: 06,2763           04763                           OCT      04763
002616: 06,2764           04764                           OCT      04764
002617: 06,2765           04765                           OCT      04765
002618: 06,2766           04766                           OCT      04766
002619: 06,2767           04767                           OCT      04767
002620: 06,2770           04770                           OCT      04770
002621: 06,2771           04771                           OCT      04771
002622: 06,2772           04772                           OCT      04772
002623: 06,2773           04773                           OCT      04773
002624: 06,2774           04774                           OCT      04774
002625: 06,2775           04775                           OCT      04775
002626: 06,2776           04776                           OCT      04776
002627: 06,2777           04777                           OCT      04777
002628: 06,3000           05000                           OCT      05000
002629: 06,3001           05001                           OCT      05001
002630: 06,3002           05002                           OCT      05002
002631: 06,3003           05003                           OCT      05003
002632: 06,3004           05004                           OCT      05004
002633: 06,3005           05005                           OCT      05005
002634: 06,3006           05006                           OCT      05006
002635: 06,3007           05007                           OCT      05007
002636: 06,3010           05010                           OCT      05010
002637: 06,3011           05011                           OCT      05011
002638: 06,3012           05012                           OCT      05012
002639: 06,3013           05013                           OCT      05013
002640: 06,3014           05014                           OCT      05014
002641: 06,3015           05015                           OCT      05015
002642: 06,3016           05016                           OCT      05016
002643: 06,3017           05017                           OCT      05017
002644: 06,3020           05020                           OCT      05020
002645: 06,3021           05021                           OCT      05021
002646: 06,3022           05022                           OCT      05022
002647: 06,3023           05023                           OCT      05023
002648: 06,3024           05024                           OCT      05024
002649: 06,3025           05025                           OCT      05025
002650: 06,3026           05026                           OCT      05026
002651: 06,3027           05027                           OCT      05027
002652: 06,3030           05030                           OCT      05030
002653: 06,3031           05031                           OCT      05031
002654: 06,3032           05032                           OCT      05032
002655: 06,3033           05033                           OCT      05033
002656: 06,3034           05034                           OCT      05034
002657: 06,3035           05035                           OCT      05035
002658: 06,3036           05036                           OCT      05036
002659: 06,3037           05037                           OCT      05037
002660: 06,3040           05040                           OCT      05040
002661: 06,3041           05041                           OCT      05041
002662: 06,3042           05042                           OCT      05042
002663: 06,3043           05043                           OCT      05043
002664: 06,3044           05044                           OCT      05044
002665: 06,3045           05045                           OCT      05045
002666: 06,3046           05046                           OCT      05046
002667: 06,3047           05047                           OCT      05047
002668: 06,3050           05050                           OCT      05050
002669: 06,3051           05051                           OCT      05051
002670: 06,3052           05052                           OCT      05052
002671: 06,3053           05053                           OCT      05053


002673: 06,3054           05054                           OCT      05054
002674: 06,3055           05055                           OCT      05055
002675: 06,3056           05056                           OCT      05056
002676: 06,3057           05057                           OCT      05057
002677: 06,3060           05060                           OCT      05060
002678: 06,3061           05061                           OCT      05061
002679: 06,3062           05062                           OCT      05062
002680: 06,3063           05063                           OCT      05063
002681: 06,3064           05064                           OCT      05064
002682: 06,3065           05065                           OCT      05065
002683: 06,3066           05066                           OCT      05066
002684: 06,3067           05067                           OCT      05067
002685: 06,3070           05070                           OCT      05070
002686: 06,3071           05071                           OCT      05071
002687: 06,3072           05072                           OCT      05072
002688: 06,3073           05073                           OCT      05073
002689: 06,3074           05074                           OCT      05074
002690: 06,3075           05075                           OCT      05075
002691: 06,3076           05076                           OCT      05076
002692: 06,3077           05077                           OCT      05077
002693: 06,3100           05100                           OCT      05100
002694: 06,3101           05101                           OCT      05101
002695: 06,3102           05102                           OCT      05102
002696: 06,3103           05103                           OCT      05103
002697: 06,3104           05104                           OCT      05104
002698: 06,3105           05105                           OCT      05105
002699: 06,3106           05106                           OCT      05106
002700: 06,3107           05107                           OCT      05107
002701: 06,3110           05110                           OCT      05110
002702: 06,3111           05111                           OCT      05111
002703: 06,3112           05112                           OCT      05112
002704: 06,3113           05113                           OCT      05113
002705: 06,3114           05114                           OCT      05114
002706: 06,3115           05115                           OCT      05115
002707: 06,3116           05116                           OCT      05116
002708: 06,3117           05117                           OCT      05117
002709: 06,3120           05120                           OCT      05120
002710: 06,3121           05121                           OCT      05121
002711: 06,3122           05122                           OCT      05122
002712: 06,3123           05123                           OCT      05123
002713: 06,3124           05124                           OCT      05124
002714: 06,3125           05125                           OCT      05125
002715: 06,3126           05126                           OCT      05126
002716: 06,3127           05127                           OCT      05127
002717: 06,3130           05130                           OCT      05130
002718: 06,3131           05131                           OCT      05131
002719: 06,3132           05132                           OCT      05132
002720: 06,3133           05133                           OCT      05133
002721: 06,3134           05134                           OCT      05134
002722: 06,3135           05135                           OCT      05135
002723: 06,3136           05136                           OCT      05136
002724: 06,3137           05137                           OCT      05137
002725: 06,3140           05140                           OCT      05140
002726: 06,3141           05141                           OCT      05141
002727: 06,3142           05142                           OCT      05142
002728: 06,3143           05143                           OCT      05143
002729: 06,3144           05144                           OCT      05144
002730: 06,3145           05145                           OCT      05145


002732: 06,3146           05146                           OCT      05146
002733: 06,3147           05147                           OCT      05147
002734: 06,3150           05150                           OCT      05150
002735: 06,3151           05151                           OCT      05151
002736: 06,3152           05152                           OCT      05152
002737: 06,3153           05153                           OCT      05153
002738: 06,3154           05154                           OCT      05154
002739: 06,3155           05155                           OCT      05155
002740: 06,3156           05156                           OCT      05156
002741: 06,3157           05157                           OCT      05157
002742: 06,3160           05160                           OCT      05160
002743: 06,3161           05161                           OCT      05161
002744: 06,3162           05162                           OCT      05162
002745: 06,3163           05163                           OCT      05163
002746: 06,3164           05164                           OCT      05164
002747: 06,3165           05165                           OCT      05165
002748: 06,3166           05166                           OCT      05166
002749: 06,3167           05167                           OCT      05167
002750: 06,3170           05170                           OCT      05170
002751: 06,3171           05171                           OCT      05171
002752: 06,3172           05172                           OCT      05172
002753: 06,3173           05173                           OCT      05173
002754: 06,3174           05174                           OCT      05174
002755: 06,3175           05175                           OCT      05175
002756: 06,3176           05176                           OCT      05176
002757: 06,3177           05177                           OCT      05177
002758: 06,3200           05200                           OCT      05200
002759: 06,3201           05201                           OCT      05201
002760: 06,3202           05202                           OCT      05202
002761: 06,3203           05203                           OCT      05203
002762: 06,3204           05204                           OCT      05204
002763: 06,3205           05205                           OCT      05205
002764: 06,3206           05206                           OCT      05206
002765: 06,3207           05207                           OCT      05207
002766: 06,3210           05210                           OCT      05210
002767: 06,3211           05211                           OCT      05211
002768: 06,3212           05212                           OCT      05212
002769: 06,3213           05213                           OCT      05213
002770: 06,3214           05214                           OCT      05214
002771: 06,3215           05215                           OCT      05215
002772: 06,3216           05216                           OCT      05216
002773: 06,3217           05217                           OCT      05217
002774: 06,3220           05220                           OCT      05220
002775: 06,3221           05221                           OCT      05221
002776: 06,3222           05222                           OCT      05222
002777: 06,3223           05223                           OCT      05223
002778: 06,3224           05224                           OCT      05224
002779: 06,3225           05225                           OCT      05225
002780: 06,3226           05226                           OCT      05226
002781: 06,3227           05227                           OCT      05227
002782: 06,3230           05230                           OCT      05230
002783: 06,3231           05231                           OCT      05231
002784: 06,3232           05232                           OCT      05232
002785: 06,3233           05233                           OCT      05233
002786: 06,3234           05234                           OCT      05234
002787: 06,3235           05235                           OCT      05235
002788: 06,3236           05236                           OCT      05236
002789: 06,3237           05237                           OCT      05237


002791: 06,3240           05240                           OCT      05240
002792: 06,3241           05241                           OCT      05241
002793: 06,3242           05242                           OCT      05242
002794: 06,3243           05243                           OCT      05243
002795: 06,3244           05244                           OCT      05244
002796: 06,3245           05245                           OCT      05245
002797: 06,3246           05246                           OCT      05246
002798: 06,3247           05247                           OCT      05247
002799: 06,3250           05250                           OCT      05250
002800: 06,3251           05251                           OCT      05251
002801: 06,3252           05252                           OCT      05252
002802: 06,3253           05253                           OCT      05253
002803: 06,3254           05254                           OCT      05254
002804: 06,3255           05255                           OCT      05255
002805: 06,3256           05256                           OCT      05256
002806: 06,3257           05257                           OCT      05257
002807: 06,3260           05260                           OCT      05260
002808: 06,3261           05261                           OCT      05261
002809: 06,3262           05262                           OCT      05262
002810: 06,3263           05263                           OCT      05263
002811: 06,3264           05264                           OCT      05264
002812: 06,3265           05265                           OCT      05265
002813: 06,3266           05266                           OCT      05266
002814: 06,3267           05267                           OCT      05267
002815: 06,3270           05270                           OCT      05270
002816: 06,3271           05271                           OCT      05271
002817: 06,3272           05272                           OCT      05272
002818: 06,3273           05273                           OCT      05273
002819: 06,3274           05274                           OCT      05274
002820: 06,3275           05275                           OCT      05275
002821: 06,3276           05276                           OCT      05276
002822: 06,3277           05277                           OCT      05277
002823: 06,3300           05300                           OCT      05300
002824: 06,3301           05301                           OCT      05301
002825: 06,3302           05302                           OCT      05302
002826: 06,3303           05303                           OCT      05303
002827: 06,3304           05304                           OCT      05304
002828: 06,3305           05305                           OCT      05305
002829: 06,3306           05306                           OCT      05306
002830: 06,3307           05307                           OCT      05307
002831: 06,3310           05310                           OCT      05310
002832: 06,3311           05311                           OCT      05311
002833: 06,3312           05312                           OCT      05312
002834: 06,3313           05313                           OCT      05313
002835: 06,3314           05314                           OCT      05314
002836: 06,3315           05315                           OCT      05315
002837: 06,3316           05316                           OCT      05316
002838: 06,3317           05317                           OCT      05317
002839: 06,3320           05320                           OCT      05320
002840: 06,3321           05321                           OCT      05321
002841: 06,3322           05322                           OCT      05322
002842: 06,3323           05323                           OCT      05323
002843: 06,3324           05324                           OCT      05324
002844: 06,3325           05325                           OCT      05325
002845: 06,3326           05326                           OCT      05326
002846: 06,3327           05327                           OCT      05327
002847: 06,3330           05330                           OCT      05330
002848: 06,3331           05331                           OCT      05331


002850: 06,3332           05332                           OCT      05332
002851: 06,3333           05333                           OCT      05333
002852: 06,3334           05334                           OCT      05334
002853: 06,3335           05335                           OCT      05335
002854: 06,3336           05336                           OCT      05336
002855: 06,3337           05337                           OCT      05337
002856: 06,3340           05340                           OCT      05340
002857: 06,3341           05341                           OCT      05341
002858: 06,3342           05342                           OCT      05342
002859: 06,3343           05343                           OCT      05343
002860: 06,3344           05344                           OCT      05344
002861: 06,3345           05345                           OCT      05345
002862: 06,3346           05346                           OCT      05346
002863: 06,3347           05347                           OCT      05347
002864: 06,3350           05350                           OCT      05350
002865: 06,3351           05351                           OCT      05351
002866: 06,3352           05352                           OCT      05352
002867: 06,3353           05353                           OCT      05353
002868: 06,3354           05354                           OCT      05354
002869: 06,3355           05355                           OCT      05355
002870: 06,3356           05356                           OCT      05356
002871: 06,3357           05357                           OCT      05357
002872: 06,3360           05360                           OCT      05360
002873: 06,3361           05361                           OCT      05361
002874: 06,3362           05362                           OCT      05362
002875: 06,3363           05363                           OCT      05363
002876: 06,3364           05364                           OCT      05364
002877: 06,3365           05365                           OCT      05365
002878: 06,3366           05366                           OCT      05366
002879: 06,3367           05367                           OCT      05367
002880: 06,3370           05370                           OCT      05370
002881: 06,3371           05371                           OCT      05371
002882: 06,3372           05372                           OCT      05372
002883: 06,3373           05373                           OCT      05373
002884: 06,3374           05374                           OCT      05374
002885: 06,3375           05375                           OCT      05375
002886: 06,3376           05376                           OCT      05376
002887: 06,3377           05377                           OCT      05377
002888: 06,3400           05400                           OCT      05400
002889: 06,3401           05401                           OCT      05401
002890: 06,3402           05402                           OCT      05402
002891: 06,3403           05403                           OCT      05403
002892: 06,3404           05404                           OCT      05404
002893: 06,3405           05405                           OCT      05405
002894: 06,3406           05406                           OCT      05406
002895: 06,3407           05407                           OCT      05407
002896: 06,3410           05410                           OCT      05410
002897: 06,3411           05411                           OCT      05411
002898: 06,3412           05412                           OCT      05412
002899: 06,3413           05413                           OCT      05413
002900: 06,3414           05414                           OCT      05414
002901: 06,3415           05415                           OCT      05415
002902: 06,3416           05416                           OCT      05416
002903: 06,3417           05417                           OCT      05417
002904: 06,3420           05420                           OCT      05420
002905: 06,3421           05421                           OCT      05421
002906: 06,3422           05422                           OCT      05422
002907: 06,3423           05423                           OCT      05423


002909: 06,3424           05424                           OCT      05424
002910: 06,3425           05425                           OCT      05425
002911: 06,3426           05426                           OCT      05426
002912: 06,3427           05427                           OCT      05427
002913: 06,3430           05430                           OCT      05430
002914: 06,3431           05431                           OCT      05431
002915: 06,3432           05432                           OCT      05432
002916: 06,3433           05433                           OCT      05433
002917: 06,3434           05434                           OCT      05434
002918: 06,3435           05435                           OCT      05435
002919: 06,3436           05436                           OCT      05436
002920: 06,3437           05437                           OCT      05437
002921: 06,3440           05440                           OCT      05440
002922: 06,3441           05441                           OCT      05441
002923: 06,3442           05442                           OCT      05442
002924: 06,3443           05443                           OCT      05443
002925: 06,3444           05444                           OCT      05444
002926: 06,3445           05445                           OCT      05445
002927: 06,3446           05446                           OCT      05446
002928: 06,3447           05447                           OCT      05447
002929: 06,3450           05450                           OCT      05450
002930: 06,3451           05451                           OCT      05451
002931: 06,3452           05452                           OCT      05452
002932: 06,3453           05453                           OCT      05453
002933: 06,3454           05454                           OCT      05454
002934: 06,3455           05455                           OCT      05455
002935: 06,3456           05456                           OCT      05456
002936: 06,3457           05457                           OCT      05457
002937: 06,3460           05460                           OCT      05460
002938: 06,3461           05461                           OCT      05461
002939: 06,3462           05462                           OCT      05462
002940: 06,3463           05463                           OCT      05463
002941: 06,3464           05464                           OCT      05464
002942: 06,3465           05465                           OCT      05465
002943: 06,3466           05466                           OCT      05466
002944: 06,3467           05467                           OCT      05467
002945: 06,3470           05470                           OCT      05470
002946: 06,3471           05471                           OCT      05471
002947: 06,3472           05472                           OCT      05472
002948: 06,3473           05473                           OCT      05473
002949: 06,3474           05474                           OCT      05474
002950: 06,3475           05475                           OCT      05475
002951: 06,3476           05476                           OCT      05476
002952: 06,3477           05477                           OCT      05477
002953: 06,3500           05500                           OCT      05500
002954: 06,3501           05501                           OCT      05501
002955: 06,3502           05502                           OCT      05502
002956: 06,3503           05503                           OCT      05503
002957: 06,3504           05504                           OCT      05504
002958: 06,3505           05505                           OCT      05505
002959: 06,3506           05506                           OCT      05506
002960: 06,3507           05507                           OCT      05507
002961: 06,3510           05510                           OCT      05510
002962: 06,3511           05511                           OCT      05511
002963: 06,3512           05512                           OCT      05512
002964: 06,3513           05513                           OCT      05513
002965: 06,3514           05514                           OCT      05514
002966: 06,3515           05515                           OCT      05515


002968: 06,3516           05516                           OCT      05516
002969: 06,3517           05517                           OCT      05517
002970: 06,3520           05520                           OCT      05520
002971: 06,3521           05521                           OCT      05521
002972: 06,3522           05522                           OCT      05522
002973: 06,3523           05523                           OCT      05523
002974: 06,3524           05524                           OCT      05524
002975: 06,3525           05525                           OCT      05525
002976: 06,3526           05526                           OCT      05526
002977: 06,3527           05527                           OCT      05527
002978: 06,3530           05530                           OCT      05530
002979: 06,3531           05531                           OCT      05531
002980: 06,3532           05532                           OCT      05532
002981: 06,3533           05533                           OCT      05533
002982: 06,3534           05534                           OCT      05534
002983: 06,3535           05535                           OCT      05535
002984: 06,3536           05536                           OCT      05536
002985: 06,3537           05537                           OCT      05537
002986: 06,3540           05540                           OCT      05540
002987: 06,3541           05541                           OCT      05541
002988: 06,3542           05542                           OCT      05542
002989: 06,3543           05543                           OCT      05543
002990: 06,3544           05544                           OCT      05544
002991: 06,3545           05545                           OCT      05545
002992: 06,3546           05546                           OCT      05546
002993: 06,3547           05547                           OCT      05547
002994: 06,3550           05550                           OCT      05550
002995: 06,3551           05551                           OCT      05551
002996: 06,3552           05552                           OCT      05552
002997: 06,3553           05553                           OCT      05553
002998: 06,3554           05554                           OCT      05554
002999: 06,3555           05555                           OCT      05555
003000: 06,3556           05556                           OCT      05556
003001: 06,3557           05557                           OCT      05557
003002: 06,3560           05560                           OCT      05560
003003: 06,3561           05561                           OCT      05561
003004: 06,3562           05562                           OCT      05562
003005: 06,3563           05563                           OCT      05563
003006: 06,3564           05564                           OCT      05564
003007: 06,3565           05565                           OCT      05565
003008: 06,3566           05566                           OCT      05566
003009: 06,3567           05567                           OCT      05567
003010: 06,3570           05570                           OCT      05570
003011: 06,3571           05571                           OCT      05571
003012: 06,3572           05572                           OCT      05572
003013: 06,3573           05573                           OCT      05573
003014: 06,3574           05574                           OCT      05574
003015: 06,3575           05575                           OCT      05575
003016: 06,3576           05576                           OCT      05576
003017: 06,3577           05577                           OCT      05577
003018: 06,3600           05600                           OCT      05600
003019: 06,3601           05601                           OCT      05601
003020: 06,3602           05602                           OCT      05602
003021: 06,3603           05603                           OCT      05603
003022: 06,3604           05604                           OCT      05604
003023: 06,3605           05605                           OCT      05605
003024: 06,3606           05606                           OCT      05606
003025: 06,3607           05607                           OCT      05607


003027: 06,3610           05610                           OCT      05610
003028: 06,3611           05611                           OCT      05611
003029: 06,3612           05612                           OCT      05612
003030: 06,3613           05613                           OCT      05613
003031: 06,3614           05614                           OCT      05614
003032: 06,3615           05615                           OCT      05615
003033: 06,3616           05616                           OCT      05616
003034: 06,3617           05617                           OCT      05617
003035: 06,3620           05620                           OCT      05620
003036: 06,3621           05621                           OCT      05621
003037: 06,3622           05622                           OCT      05622
003038: 06,3623           05623                           OCT      05623
003039: 06,3624           05624                           OCT      05624
003040: 06,3625           05625                           OCT      05625
003041: 06,3626           05626                           OCT      05626
003042: 06,3627           05627                           OCT      05627
003043: 06,3630           05630                           OCT      05630
003044: 06,3631           05631                           OCT      05631
003045: 06,3632           05632                           OCT      05632
003046: 06,3633           05633                           OCT      05633
003047: 06,3634           05634                           OCT      05634
003048: 06,3635           05635                           OCT      05635
003049: 06,3636           05636                           OCT      05636
003050: 06,3637           05637                           OCT      05637
003051: 06,3640           05640                           OCT      05640
003052: 06,3641           05641                           OCT      05641
003053: 06,3642           05642                           OCT      05642
003054: 06,3643           05643                           OCT      05643
003055: 06,3644           05644                           OCT      05644
003056: 06,3645           05645                           OCT      05645
003057: 06,3646           05646                           OCT      05646
003058: 06,3647           05647                           OCT      05647
003059: 06,3650           05650                           OCT      05650
003060: 06,3651           05651                           OCT      05651
003061: 06,3652           05652                           OCT      05652
003062: 06,3653           05653                           OCT      05653
003063: 06,3654           05654                           OCT      05654
003064: 06,3655           05655                           OCT      05655
003065: 06,3656           05656                           OCT      05656
003066: 06,3657           05657                           OCT      05657
003067: 06,3660           05660                           OCT      05660
003068: 06,3661           05661                           OCT      05661
003069: 06,3662           05662                           OCT      05662
003070: 06,3663           05663                           OCT      05663
003071: 06,3664           05664                           OCT      05664
003072: 06,3665           05665                           OCT      05665
003073: 06,3666           05666                           OCT      05666
003074: 06,3667           05667                           OCT      05667
003075: 06,3670           05670                           OCT      05670
003076: 06,3671           05671                           OCT      05671
003077: 06,3672           05672                           OCT      05672
003078: 06,3673           05673                           OCT      05673
003079: 06,3674           05674                           OCT      05674
003080: 06,3675           05675                           OCT      05675
003081: 06,3676           05676                           OCT      05676
003082: 06,3677           05677                           OCT      05677
003083: 06,3700           05700                           OCT      05700
003084: 06,3701           05701                           OCT      05701


003086: 06,3702           05702                           OCT      05702
003087: 06,3703           05703                           OCT      05703
003088: 06,3704           05704                           OCT      05704
003089: 06,3705           05705                           OCT      05705
003090: 06,3706           05706                           OCT      05706
003091: 06,3707           05707                           OCT      05707
003092: 06,3710           05710                           OCT      05710
003093: 06,3711           05711                           OCT      05711
003094: 06,3712           05712                           OCT      05712
003095: 06,3713           05713                           OCT      05713
003096: 06,3714           05714                           OCT      05714
003097: 06,3715           05715                           OCT      05715
003098: 06,3716           05716                           OCT      05716
003099: 06,3717           05717                           OCT      05717
003100: 06,3720           05720                           OCT      05720
003101: 06,3721           05721                           OCT      05721
003102: 06,3722           05722                           OCT      05722
003103: 06,3723           05723                           OCT      05723
003104: 06,3724           05724                           OCT      05724
003105: 06,3725           05725                           OCT      05725
003106: 06,3726           05726                           OCT      05726
003107: 06,3727           05727                           OCT      05727
003108: 06,3730           05730                           OCT      05730
003109: 06,3731           05731                           OCT      05731
003110: 06,3732           05732                           OCT      05732
003111: 06,3733           05733                           OCT      05733
003112: 06,3734           05734                           OCT      05734
003113: 06,3735           05735                           OCT      05735
003114: 06,3736           05736                           OCT      05736
003115: 06,3737           05737                           OCT      05737
003116: 06,3740           05740                           OCT      05740
003117: 06,3741           05741                           OCT      05741
003118: 06,3742           05742                           OCT      05742
003119: 06,3743           05743                           OCT      05743
003120: 06,3744           05744                           OCT      05744
003121: 06,3745           05745                           OCT      05745
003122: 06,3746           05746                           OCT      05746
003123: 06,3747           05747                           OCT      05747
003124: 06,3750           05750                           OCT      05750
003125: 06,3751           05751                           OCT      05751
003126: 06,3752           05752                           OCT      05752
003127: 06,3753           05753                           OCT      05753
003128: 06,3754           05754                           OCT      05754
003129: 06,3755           05755                           OCT      05755
003130: 06,3756           05756                           OCT      05756
003131: 06,3757           05757                           OCT      05757
003132: 06,3760           05760                           OCT      05760
003133: 06,3761           05761                           OCT      05761
003134: 06,3762           05762                           OCT      05762
003135: 06,3763           05763                           OCT      05763
003136: 06,3764           05764                           OCT      05764
003137: 06,3765           05765                           OCT      05765
003138: 06,3766           05766                           OCT      05766
003139: 06,3767           05767                           OCT      05767
003140: 06,3770           05770                           OCT      05770
003141: 06,3771           05771                           OCT      05771
003142: 06,3772           05772                           OCT      05772
003143: 06,3773           05773                           OCT      05773


003145: 06,3774           05774                           OCT      05774
003146: 06,3775           05775                           OCT      05775
003147: 06,3776           05776                           OCT      05776
Warning:  Next code may overflow storage.
003148: 06,3777           05777                           OCT      05777
003149: 07,2000                                           SETLOC   CF072000
003150: 07,2000           41002                           OCT      41002
003151: 07,2001           06001                           OCT      06001
003152: 07,2002           06002                           OCT      06002
003153: 07,2003           06003                           OCT      06003
003154: 07,2004           06004                           OCT      06004
003155: 07,2005           06005                           OCT      06005
003156: 07,2006           06006                           OCT      06006
003157: 07,2007           06007                           OCT      06007
003158: 07,2010           06010                           OCT      06010
003159: 07,2011           06011                           OCT      06011
003160: 07,2012           06012                           OCT      06012
003161: 07,2013           06013                           OCT      06013
003162: 07,2014           06014                           OCT      06014
003163: 07,2015           06015                           OCT      06015
003164: 07,2016           06016                           OCT      06016
003165: 07,2017           06017                           OCT      06017
003166: 07,2020           06020                           OCT      06020
003167: 07,2021           06021                           OCT      06021
003168: 07,2022           06022                           OCT      06022
003169: 07,2023           06023                           OCT      06023
003170: 07,2024           06024                           OCT      06024
003171: 07,2025           06025                           OCT      06025
003172: 07,2026           06026                           OCT      06026
003173: 07,2027           06027                           OCT      06027
003174: 07,2030           06030                           OCT      06030
003175: 07,2031           06031                           OCT      06031
003176: 07,2032           06032                           OCT      06032
003177: 07,2033           06033                           OCT      06033
003178: 07,2034           06034                           OCT      06034
003179: 07,2035           06035                           OCT      06035
003180: 07,2036           06036                           OCT      06036
003181: 07,2037           06037                           OCT      06037
003182: 07,2040           06040                           OCT      06040
003183: 07,2041           06041                           OCT      06041
003184: 07,2042           06042                           OCT      06042
003185: 07,2043           06043                           OCT      06043
003186: 07,2044           06044                           OCT      06044
003187: 07,2045           06045                           OCT      06045
003188: 07,2046           06046                           OCT      06046
003189: 07,2047           06047                           OCT      06047
003190: 07,2050           06050                           OCT      06050
003191: 07,2051           06051                           OCT      06051
003192: 07,2052           06052                           OCT      06052
003193: 07,2053           06053                           OCT      06053
003194: 07,2054           06054                           OCT      06054
003195: 07,2055           06055                           OCT      06055
003196: 07,2056           06056                           OCT      06056
003197: 07,2057           06057                           OCT      06057
003198: 07,2060           06060                           OCT      06060
003199: 07,2061           06061                           OCT      06061
003200: 07,2062           06062                           OCT      06062
003201: 07,2063           06063                           OCT      06063
003202: 07,2064           06064                           OCT      06064


003204: 07,2065           06065                           OCT      06065
003205: 07,2066           06066                           OCT      06066
003206: 07,2067           06067                           OCT      06067
003207: 07,2070           06070                           OCT      06070
003208: 07,2071           06071                           OCT      06071
003209: 07,2072           06072                           OCT      06072
003210: 07,2073           06073                           OCT      06073
003211: 07,2074           06074                           OCT      06074
003212: 07,2075           06075                           OCT      06075
003213: 07,2076           06076                           OCT      06076
003214: 07,2077           06077                           OCT      06077
003215: 07,2100           06100                           OCT      06100
003216: 07,2101           06101                           OCT      06101
003217: 07,2102           06102                           OCT      06102
003218: 07,2103           06103                           OCT      06103
003219: 07,2104           06104                           OCT      06104
003220: 07,2105           06105                           OCT      06105
003221: 07,2106           06106                           OCT      06106
003222: 07,2107           06107                           OCT      06107
003223: 07,2110           06110                           OCT      06110
003224: 07,2111           06111                           OCT      06111
003225: 07,2112           06112                           OCT      06112
003226: 07,2113           06113                           OCT      06113
003227: 07,2114           06114                           OCT      06114
003228: 07,2115           06115                           OCT      06115
003229: 07,2116           06116                           OCT      06116
003230: 07,2117           06117                           OCT      06117
003231: 07,2120           06120                           OCT      06120
003232: 07,2121           06121                           OCT      06121
003233: 07,2122           06122                           OCT      06122
003234: 07,2123           06123                           OCT      06123
003235: 07,2124           06124                           OCT      06124
003236: 07,2125           06125                           OCT      06125
003237: 07,2126           06126                           OCT      06126
003238: 07,2127           06127                           OCT      06127
003239: 07,2130           06130                           OCT      06130
003240: 07,2131           06131                           OCT      06131
003241: 07,2132           06132                           OCT      06132
003242: 07,2133           06133                           OCT      06133
003243: 07,2134           06134                           OCT      06134
003244: 07,2135           06135                           OCT      06135
003245: 07,2136           06136                           OCT      06136
003246: 07,2137           06137                           OCT      06137
003247: 07,2140           06140                           OCT      06140
003248: 07,2141           06141                           OCT      06141
003249: 07,2142           06142                           OCT      06142
003250: 07,2143           06143                           OCT      06143
003251: 07,2144           06144                           OCT      06144
003252: 07,2145           06145                           OCT      06145
003253: 07,2146           06146                           OCT      06146
003254: 07,2147           06147                           OCT      06147
003255: 07,2150           06150                           OCT      06150
003256: 07,2151           06151                           OCT      06151
003257: 07,2152           06152                           OCT      06152
003258: 07,2153           06153                           OCT      06153
003259: 07,2154           06154                           OCT      06154
003260: 07,2155           06155                           OCT      06155
003261: 07,2156           06156                           OCT      06156


003263: 07,2157           06157                           OCT      06157
003264: 07,2160           06160                           OCT      06160
003265: 07,2161           06161                           OCT      06161
003266: 07,2162           06162                           OCT      06162
003267: 07,2163           06163                           OCT      06163
003268: 07,2164           06164                           OCT      06164
003269: 07,2165           06165                           OCT      06165
003270: 07,2166           06166                           OCT      06166
003271: 07,2167           06167                           OCT      06167
003272: 07,2170           06170                           OCT      06170
003273: 07,2171           06171                           OCT      06171
003274: 07,2172           06172                           OCT      06172
003275: 07,2173           06173                           OCT      06173
003276: 07,2174           06174                           OCT      06174
003277: 07,2175           06175                           OCT      06175
003278: 07,2176           06176                           OCT      06176
003279: 07,2177           06177                           OCT      06177
003280: 07,2200           06200                           OCT      06200
003281: 07,2201           06201                           OCT      06201
003282: 07,2202           06202                           OCT      06202
003283: 07,2203           06203                           OCT      06203
003284: 07,2204           06204                           OCT      06204
003285: 07,2205           06205                           OCT      06205
003286: 07,2206           06206                           OCT      06206
003287: 07,2207           06207                           OCT      06207
003288: 07,2210           06210                           OCT      06210
003289: 07,2211           06211                           OCT      06211
003290: 07,2212           06212                           OCT      06212
003291: 07,2213           06213                           OCT      06213
003292: 07,2214           06214                           OCT      06214
003293: 07,2215           06215                           OCT      06215
003294: 07,2216           06216                           OCT      06216
003295: 07,2217           06217                           OCT      06217
003296: 07,2220           06220                           OCT      06220
003297: 07,2221           06221                           OCT      06221
003298: 07,2222           06222                           OCT      06222
003299: 07,2223           06223                           OCT      06223
003300: 07,2224           06224                           OCT      06224
003301: 07,2225           06225                           OCT      06225
003302: 07,2226           06226                           OCT      06226
003303: 07,2227           06227                           OCT      06227
003304: 07,2230           06230                           OCT      06230
003305: 07,2231           06231                           OCT      06231
003306: 07,2232           06232                           OCT      06232
003307: 07,2233           06233                           OCT      06233
003308: 07,2234           06234                           OCT      06234
003309: 07,2235           06235                           OCT      06235
003310: 07,2236           06236                           OCT      06236
003311: 07,2237           06237                           OCT      06237
003312: 07,2240           06240                           OCT      06240
003313: 07,2241           06241                           OCT      06241
003314: 07,2242           06242                           OCT      06242
003315: 07,2243           06243                           OCT      06243
003316: 07,2244           06244                           OCT      06244
003317: 07,2245           06245                           OCT      06245
003318: 07,2246           06246                           OCT      06246
003319: 07,2247           06247                           OCT      06247
003320: 07,2250           06250                           OCT      06250


003322: 07,2251           06251                           OCT      06251
003323: 07,2252           06252                           OCT      06252
003324: 07,2253           06253                           OCT      06253
003325: 07,2254           06254                           OCT      06254
003326: 07,2255           06255                           OCT      06255
003327: 07,2256           06256                           OCT      06256
003328: 07,2257           06257                           OCT      06257
003329: 07,2260           06260                           OCT      06260
003330: 07,2261           06261                           OCT      06261
003331: 07,2262           06262                           OCT      06262
003332: 07,2263           06263                           OCT      06263
003333: 07,2264           06264                           OCT      06264
003334: 07,2265           06265                           OCT      06265
003335: 07,2266           06266                           OCT      06266
003336: 07,2267           06267                           OCT      06267
003337: 07,2270           06270                           OCT      06270
003338: 07,2271           06271                           OCT      06271
003339: 07,2272           06272                           OCT      06272
003340: 07,2273           06273                           OCT      06273
003341: 07,2274           06274                           OCT      06274
003342: 07,2275           06275                           OCT      06275
003343: 07,2276           06276                           OCT      06276
003344: 07,2277           06277                           OCT      06277
003345: 07,2300           06300                           OCT      06300
003346: 07,2301           06301                           OCT      06301
003347: 07,2302           06302                           OCT      06302
003348: 07,2303           06303                           OCT      06303
003349: 07,2304           06304                           OCT      06304
003350: 07,2305           06305                           OCT      06305
003351: 07,2306           06306                           OCT      06306
003352: 07,2307           06307                           OCT      06307
003353: 07,2310           06310                           OCT      06310
003354: 07,2311           06311                           OCT      06311
003355: 07,2312           06312                           OCT      06312
003356: 07,2313           06313                           OCT      06313
003357: 07,2314           06314                           OCT      06314
003358: 07,2315           06315                           OCT      06315
003359: 07,2316           06316                           OCT      06316
003360: 07,2317           06317                           OCT      06317
003361: 07,2320           06320                           OCT      06320
003362: 07,2321           06321                           OCT      06321
003363: 07,2322           06322                           OCT      06322
003364: 07,2323           06323                           OCT      06323
003365: 07,2324           06324                           OCT      06324
003366: 07,2325           06325                           OCT      06325
003367: 07,2326           06326                           OCT      06326
003368: 07,2327           06327                           OCT      06327
003369: 07,2330           06330                           OCT      06330
003370: 07,2331           06331                           OCT      06331
003371: 07,2332           06332                           OCT      06332
003372: 07,2333           06333                           OCT      06333
003373: 07,2334           06334                           OCT      06334
003374: 07,2335           06335                           OCT      06335
003375: 07,2336           06336                           OCT      06336
003376: 07,2337           06337                           OCT      06337
003377: 07,2340           06340                           OCT      06340
003378: 07,2341           06341                           OCT      06341
003379: 07,2342           06342                           OCT      06342


003381: 07,2343           06343                           OCT      06343
003382: 07,2344           06344                           OCT      06344
003383: 07,2345           06345                           OCT      06345
003384: 07,2346           06346                           OCT      06346
003385: 07,2347           06347                           OCT      06347
003386: 07,2350           06350                           OCT      06350
003387: 07,2351           06351                           OCT      06351
003388: 07,2352           06352                           OCT      06352
003389: 07,2353           06353                           OCT      06353
003390: 07,2354           06354                           OCT      06354
003391: 07,2355           06355                           OCT      06355
003392: 07,2356           06356                           OCT      06356
003393: 07,2357           06357                           OCT      06357
003394: 07,2360           06360                           OCT      06360
003395: 07,2361           06361                           OCT      06361
003396: 07,2362           06362                           OCT      06362
003397: 07,2363           06363                           OCT      06363
003398: 07,2364           06364                           OCT      06364
003399: 07,2365           06365                           OCT      06365
003400: 07,2366           06366                           OCT      06366
003401: 07,2367           06367                           OCT      06367
003402: 07,2370           06370                           OCT      06370
003403: 07,2371           06371                           OCT      06371
003404: 07,2372           06372                           OCT      06372
003405: 07,2373           06373                           OCT      06373
003406: 07,2374           06374                           OCT      06374
003407: 07,2375           06375                           OCT      06375
003408: 07,2376           06376                           OCT      06376
003409: 07,2377           06377                           OCT      06377
003410: 07,2400           06400                           OCT      06400
003411: 07,2401           06401                           OCT      06401
003412: 07,2402           06402                           OCT      06402
003413: 07,2403           06403                           OCT      06403
003414: 07,2404           06404                           OCT      06404
003415: 07,2405           06405                           OCT      06405
003416: 07,2406           06406                           OCT      06406
003417: 07,2407           06407                           OCT      06407
003418: 07,2410           06410                           OCT      06410
003419: 07,2411           06411                           OCT      06411
003420: 07,2412           06412                           OCT      06412
003421: 07,2413           06413                           OCT      06413
003422: 07,2414           06414                           OCT      06414
003423: 07,2415           06415                           OCT      06415
003424: 07,2416           06416                           OCT      06416
003425: 07,2417           06417                           OCT      06417
003426: 07,2420           06420                           OCT      06420
003427: 07,2421           06421                           OCT      06421
003428: 07,2422           06422                           OCT      06422
003429: 07,2423           06423                           OCT      06423
003430: 07,2424           06424                           OCT      06424
003431: 07,2425           06425                           OCT      06425
003432: 07,2426           06426                           OCT      06426
003433: 07,2427           06427                           OCT      06427
003434: 07,2430           06430                           OCT      06430
003435: 07,2431           06431                           OCT      06431
003436: 07,2432           06432                           OCT      06432
003437: 07,2433           06433                           OCT      06433
003438: 07,2434           06434                           OCT      06434


003440: 07,2435           06435                           OCT      06435
003441: 07,2436           06436                           OCT      06436
003442: 07,2437           06437                           OCT      06437
003443: 07,2440           06440                           OCT      06440
003444: 07,2441           06441                           OCT      06441
003445: 07,2442           06442                           OCT      06442
003446: 07,2443           06443                           OCT      06443
003447: 07,2444           06444                           OCT      06444
003448: 07,2445           06445                           OCT      06445
003449: 07,2446           06446                           OCT      06446
003450: 07,2447           06447                           OCT      06447
003451: 07,2450           06450                           OCT      06450
003452: 07,2451           06451                           OCT      06451
003453: 07,2452           06452                           OCT      06452
003454: 07,2453           06453                           OCT      06453
003455: 07,2454           06454                           OCT      06454
003456: 07,2455           06455                           OCT      06455
003457: 07,2456           06456                           OCT      06456
003458: 07,2457           06457                           OCT      06457
003459: 07,2460           06460                           OCT      06460
003460: 07,2461           06461                           OCT      06461
003461: 07,2462           06462                           OCT      06462
003462: 07,2463           06463                           OCT      06463
003463: 07,2464           06464                           OCT      06464
003464: 07,2465           06465                           OCT      06465
003465: 07,2466           06466                           OCT      06466
003466: 07,2467           06467                           OCT      06467
003467: 07,2470           06470                           OCT      06470
003468: 07,2471           06471                           OCT      06471
003469: 07,2472           06472                           OCT      06472
003470: 07,2473           06473                           OCT      06473
003471: 07,2474           06474                           OCT      06474
003472: 07,2475           06475                           OCT      06475
003473: 07,2476           06476                           OCT      06476
003474: 07,2477           06477                           OCT      06477
003475: 07,2500           06500                           OCT      06500
003476: 07,2501           06501                           OCT      06501
003477: 07,2502           06502                           OCT      06502
003478: 07,2503           06503                           OCT      06503
003479: 07,2504           06504                           OCT      06504
003480: 07,2505           06505                           OCT      06505
003481: 07,2506           06506                           OCT      06506
003482: 07,2507           06507                           OCT      06507
003483: 07,2510           06510                           OCT      06510
003484: 07,2511           06511                           OCT      06511
003485: 07,2512           06512                           OCT      06512
003486: 07,2513           06513                           OCT      06513
003487: 07,2514           06514                           OCT      06514
003488: 07,2515           06515                           OCT      06515
003489: 07,2516           06516                           OCT      06516
003490: 07,2517           06517                           OCT      06517
003491: 07,2520           06520                           OCT      06520
003492: 07,2521           06521                           OCT      06521
003493: 07,2522           06522                           OCT      06522
003494: 07,2523           06523                           OCT      06523
003495: 07,2524           06524                           OCT      06524
003496: 07,2525           06525                           OCT      06525
003497: 07,2526           06526                           OCT      06526


003499: 07,2527           06527                           OCT      06527
003500: 07,2530           06530                           OCT      06530
003501: 07,2531           06531                           OCT      06531
003502: 07,2532           06532                           OCT      06532
003503: 07,2533           06533                           OCT      06533
003504: 07,2534           06534                           OCT      06534
003505: 07,2535           06535                           OCT      06535
003506: 07,2536           06536                           OCT      06536
003507: 07,2537           06537                           OCT      06537
003508: 07,2540           06540                           OCT      06540
003509: 07,2541           06541                           OCT      06541
003510: 07,2542           06542                           OCT      06542
003511: 07,2543           06543                           OCT      06543
003512: 07,2544           06544                           OCT      06544
003513: 07,2545           06545                           OCT      06545
003514: 07,2546           06546                           OCT      06546
003515: 07,2547           06547                           OCT      06547
003516: 07,2550           06550                           OCT      06550
003517: 07,2551           06551                           OCT      06551
003518: 07,2552           06552                           OCT      06552
003519: 07,2553           06553                           OCT      06553
003520: 07,2554           06554                           OCT      06554
003521: 07,2555           06555                           OCT      06555
003522: 07,2556           06556                           OCT      06556
003523: 07,2557           06557                           OCT      06557
003524: 07,2560           06560                           OCT      06560
003525: 07,2561           06561                           OCT      06561
003526: 07,2562           06562                           OCT      06562
003527: 07,2563           06563                           OCT      06563
003528: 07,2564           06564                           OCT      06564
003529: 07,2565           06565                           OCT      06565
003530: 07,2566           06566                           OCT      06566
003531: 07,2567           06567                           OCT      06567
003532: 07,2570           06570                           OCT      06570
003533: 07,2571           06571                           OCT      06571
003534: 07,2572           06572                           OCT      06572
003535: 07,2573           06573                           OCT      06573
003536: 07,2574           06574                           OCT      06574
003537: 07,2575           06575                           OCT      06575
003538: 07,2576           06576                           OCT      06576
003539: 07,2577           06577                           OCT      06577
003540: 07,2600           06600                           OCT      06600
003541: 07,2601           06601                           OCT      06601
003542: 07,2602           06602                           OCT      06602
003543: 07,2603           06603                           OCT      06603
003544: 07,2604           06604                           OCT      06604
003545: 07,2605           06605                           OCT      06605
003546: 07,2606           06606                           OCT      06606
003547: 07,2607           06607                           OCT      06607
003548: 07,2610           06610                           OCT      06610
003549: 07,2611           06611                           OCT      06611
003550: 07,2612           06612                           OCT      06612
003551: 07,2613           06613                           OCT      06613
003552: 07,2614           06614                           OCT      06614
003553: 07,2615           06615                           OCT      06615
003554: 07,2616           06616                           OCT      06616
003555: 07,2617           06617                           OCT      06617
003556: 07,2620           06620                           OCT      06620


003558: 07,2621           06621                           OCT      06621
003559: 07,2622           06622                           OCT      06622
003560: 07,2623           06623                           OCT      06623
003561: 07,2624           06624                           OCT      06624
003562: 07,2625           06625                           OCT      06625
003563: 07,2626           06626                           OCT      06626
003564: 07,2627           06627                           OCT      06627
003565: 07,2630           06630                           OCT      06630
003566: 07,2631           06631                           OCT      06631
003567: 07,2632           06632                           OCT      06632
003568: 07,2633           06633                           OCT      06633
003569: 07,2634           06634                           OCT      06634
003570: 07,2635           06635                           OCT      06635
003571: 07,2636           06636                           OCT      06636
003572: 07,2637           06637                           OCT      06637
003573: 07,2640           06640                           OCT      06640
003574: 07,2641           06641                           OCT      06641
003575: 07,2642           06642                           OCT      06642
003576: 07,2643           06643                           OCT      06643
003577: 07,2644           06644                           OCT      06644
003578: 07,2645           06645                           OCT      06645
003579: 07,2646           06646                           OCT      06646
003580: 07,2647           06647                           OCT      06647
003581: 07,2650           06650                           OCT      06650
003582: 07,2651           06651                           OCT      06651
003583: 07,2652           06652                           OCT      06652
003584: 07,2653           06653                           OCT      06653
003585: 07,2654           06654                           OCT      06654
003586: 07,2655           06655                           OCT      06655
003587: 07,2656           06656                           OCT      06656
003588: 07,2657           06657                           OCT      06657
003589: 07,2660           06660                           OCT      06660
003590: 07,2661           06661                           OCT      06661
003591: 07,2662           06662                           OCT      06662
003592: 07,2663           06663                           OCT      06663
003593: 07,2664           06664                           OCT      06664
003594: 07,2665           06665                           OCT      06665
003595: 07,2666           06666                           OCT      06666
003596: 07,2667           06667                           OCT      06667
003597: 07,2670           06670                           OCT      06670
003598: 07,2671           06671                           OCT      06671
003599: 07,2672           06672                           OCT      06672
003600: 07,2673           06673                           OCT      06673
003601: 07,2674           06674                           OCT      06674
003602: 07,2675           06675                           OCT      06675
003603: 07,2676           06676                           OCT      06676
003604: 07,2677           06677                           OCT      06677
003605: 07,2700           06700                           OCT      06700
003606: 07,2701           06701                           OCT      06701
003607: 07,2702           06702                           OCT      06702
003608: 07,2703           06703                           OCT      06703
003609: 07,2704           06704                           OCT      06704
003610: 07,2705           06705                           OCT      06705
003611: 07,2706           06706                           OCT      06706
003612: 07,2707           06707                           OCT      06707
003613: 07,2710           06710                           OCT      06710
003614: 07,2711           06711                           OCT      06711
003615: 07,2712           06712                           OCT      06712


003617: 07,2713           06713                           OCT      06713
003618: 07,2714           06714                           OCT      06714
003619: 07,2715           06715                           OCT      06715
003620: 07,2716           06716                           OCT      06716
003621: 07,2717           06717                           OCT      06717
003622: 07,2720           06720                           OCT      06720
003623: 07,2721           06721                           OCT      06721
003624: 07,2722           06722                           OCT      06722
003625: 07,2723           06723                           OCT      06723
003626: 07,2724           06724                           OCT      06724
003627: 07,2725           06725                           OCT      06725
003628: 07,2726           06726                           OCT      06726
003629: 07,2727           06727                           OCT      06727
003630: 07,2730           06730                           OCT      06730
003631: 07,2731           06731                           OCT      06731
003632: 07,2732           06732                           OCT      06732
003633: 07,2733           06733                           OCT      06733
003634: 07,2734           06734                           OCT      06734
003635: 07,2735           06735                           OCT      06735
003636: 07,2736           06736                           OCT      06736
003637: 07,2737           06737                           OCT      06737
003638: 07,2740           06740                           OCT      06740
003639: 07,2741           06741                           OCT      06741
003640: 07,2742           06742                           OCT      06742
003641: 07,2743           06743                           OCT      06743
003642: 07,2744           06744                           OCT      06744
003643: 07,2745           06745                           OCT      06745
003644: 07,2746           06746                           OCT      06746
003645: 07,2747           06747                           OCT      06747
003646: 07,2750           06750                           OCT      06750
003647: 07,2751           06751                           OCT      06751
003648: 07,2752           06752                           OCT      06752
003649: 07,2753           06753                           OCT      06753
003650: 07,2754           06754                           OCT      06754
003651: 07,2755           06755                           OCT      06755
003652: 07,2756           06756                           OCT      06756
003653: 07,2757           06757                           OCT      06757
003654: 07,2760           06760                           OCT      06760
003655: 07,2761           06761                           OCT      06761
003656: 07,2762           06762                           OCT      06762
003657: 07,2763           06763                           OCT      06763
003658: 07,2764           06764                           OCT      06764
003659: 07,2765           06765                           OCT      06765
003660: 07,2766           06766                           OCT      06766
003661: 07,2767           06767                           OCT      06767
003662: 07,2770           06770                           OCT      06770
003663: 07,2771           06771                           OCT      06771
003664: 07,2772           06772                           OCT      06772
003665: 07,2773           06773                           OCT      06773
003666: 07,2774           06774                           OCT      06774
003667: 07,2775           06775                           OCT      06775
003668: 07,2776           06776                           OCT      06776
003669: 07,2777           06777                           OCT      06777
003670: 07,3000           07000                           OCT      07000
003671: 07,3001           07001                           OCT      07001
003672: 07,3002           07002                           OCT      07002
003673: 07,3003           07003                           OCT      07003
003674: 07,3004           07004                           OCT      07004


003676: 07,3005           07005                           OCT      07005
003677: 07,3006           07006                           OCT      07006
003678: 07,3007           07007                           OCT      07007
003679: 07,3010           07010                           OCT      07010
003680: 07,3011           07011                           OCT      07011
003681: 07,3012           07012                           OCT      07012
003682: 07,3013           07013                           OCT      07013
003683: 07,3014           07014                           OCT      07014
003684: 07,3015           07015                           OCT      07015
003685: 07,3016           07016                           OCT      07016
003686: 07,3017           07017                           OCT      07017
003687: 07,3020           07020                           OCT      07020
003688: 07,3021           07021                           OCT      07021
003689: 07,3022           07022                           OCT      07022
003690: 07,3023           07023                           OCT      07023
003691: 07,3024           07024                           OCT      07024
003692: 07,3025           07025                           OCT      07025
003693: 07,3026           07026                           OCT      07026
003694: 07,3027           07027                           OCT      07027
003695: 07,3030           07030                           OCT      07030
003696: 07,3031           07031                           OCT      07031
003697: 07,3032           07032                           OCT      07032
003698: 07,3033           07033                           OCT      07033
003699: 07,3034           07034                           OCT      07034
003700: 07,3035           07035                           OCT      07035
003701: 07,3036           07036                           OCT      07036
003702: 07,3037           07037                           OCT      07037
003703: 07,3040           07040                           OCT      07040
003704: 07,3041           07041                           OCT      07041
003705: 07,3042           07042                           OCT      07042
003706: 07,3043           07043                           OCT      07043
003707: 07,3044           07044                           OCT      07044
003708: 07,3045           07045                           OCT      07045
003709: 07,3046           07046                           OCT      07046
003710: 07,3047           07047                           OCT      07047
003711: 07,3050           07050                           OCT      07050
003712: 07,3051           07051                           OCT      07051
003713: 07,3052           07052                           OCT      07052
003714: 07,3053           07053                           OCT      07053
003715: 07,3054           07054                           OCT      07054
003716: 07,3055           07055                           OCT      07055
003717: 07,3056           07056                           OCT      07056
003718: 07,3057           07057                           OCT      07057
003719: 07,3060           07060                           OCT      07060
003720: 07,3061           07061                           OCT      07061
003721: 07,3062           07062                           OCT      07062
003722: 07,3063           07063                           OCT      07063
003723: 07,3064           07064                           OCT      07064
003724: 07,3065           07065                           OCT      07065
003725: 07,3066           07066                           OCT      07066
003726: 07,3067           07067                           OCT      07067
003727: 07,3070           07070                           OCT      07070
003728: 07,3071           07071                           OCT      07071
003729: 07,3072           07072                           OCT      07072
003730: 07,3073           07073                           OCT      07073
003731: 07,3074           07074                           OCT      07074
003732: 07,3075           07075                           OCT      07075
003733: 07,3076           07076                           OCT      07076


003735: 07,3077           07077                           OCT      07077
003736: 07,3100           07100                           OCT      07100
003737: 07,3101           07101                           OCT      07101
003738: 07,3102           07102                           OCT      07102
003739: 07,3103           07103                           OCT      07103
003740: 07,3104           07104                           OCT      07104
003741: 07,3105           07105                           OCT      07105
003742: 07,3106           07106                           OCT      07106
003743: 07,3107           07107                           OCT      07107
003744: 07,3110           07110                           OCT      07110
003745: 07,3111           07111                           OCT      07111
003746: 07,3112           07112                           OCT      07112
003747: 07,3113           07113                           OCT      07113
003748: 07,3114           07114                           OCT      07114
003749: 07,3115           07115                           OCT      07115
003750: 07,3116           07116                           OCT      07116
003751: 07,3117           07117                           OCT      07117
003752: 07,3120           07120                           OCT      07120
003753: 07,3121           07121                           OCT      07121
003754: 07,3122           07122                           OCT      07122
003755: 07,3123           07123                           OCT      07123
003756: 07,3124           07124                           OCT      07124
003757: 07,3125           07125                           OCT      07125
003758: 07,3126           07126                           OCT      07126
003759: 07,3127           07127                           OCT      07127
003760: 07,3130           07130                           OCT      07130
003761: 07,3131           07131                           OCT      07131
003762: 07,3132           07132                           OCT      07132
003763: 07,3133           07133                           OCT      07133
003764: 07,3134           07134                           OCT      07134
003765: 07,3135           07135                           OCT      07135
003766: 07,3136           07136                           OCT      07136
003767: 07,3137           07137                           OCT      07137
003768: 07,3140           07140                           OCT      07140
003769: 07,3141           07141                           OCT      07141
003770: 07,3142           07142                           OCT      07142
003771: 07,3143           07143                           OCT      07143
003772: 07,3144           07144                           OCT      07144
003773: 07,3145           07145                           OCT      07145
003774: 07,3146           07146                           OCT      07146
003775: 07,3147           07147                           OCT      07147
003776: 07,3150           07150                           OCT      07150
003777: 07,3151           07151                           OCT      07151
003778: 07,3152           07152                           OCT      07152
003779: 07,3153           07153                           OCT      07153
003780: 07,3154           07154                           OCT      07154
003781: 07,3155           07155                           OCT      07155
003782: 07,3156           07156                           OCT      07156
003783: 07,3157           07157                           OCT      07157
003784: 07,3160           07160                           OCT      07160
003785: 07,3161           07161                           OCT      07161
003786: 07,3162           07162                           OCT      07162
003787: 07,3163           07163                           OCT      07163
003788: 07,3164           07164                           OCT      07164
003789: 07,3165           07165                           OCT      07165
003790: 07,3166           07166                           OCT      07166
003791: 07,3167           07167                           OCT      07167
003792: 07,3170           07170                           OCT      07170


003794: 07,3171           07171                           OCT      07171
003795: 07,3172           07172                           OCT      07172
003796: 07,3173           07173                           OCT      07173
003797: 07,3174           07174                           OCT      07174
003798: 07,3175           07175                           OCT      07175
003799: 07,3176           07176                           OCT      07176
003800: 07,3177           07177                           OCT      07177
003801: 07,3200           07200                           OCT      07200
003802: 07,3201           07201                           OCT      07201
003803: 07,3202           07202                           OCT      07202
003804: 07,3203           07203                           OCT      07203
003805: 07,3204           07204                           OCT      07204
003806: 07,3205           07205                           OCT      07205
003807: 07,3206           07206                           OCT      07206
003808: 07,3207           07207                           OCT      07207
003809: 07,3210           07210                           OCT      07210
003810: 07,3211           07211                           OCT      07211
003811: 07,3212           07212                           OCT      07212
003812: 07,3213           07213                           OCT      07213
003813: 07,3214           07214                           OCT      07214
003814: 07,3215           07215                           OCT      07215
003815: 07,3216           07216                           OCT      07216
003816: 07,3217           07217                           OCT      07217
003817: 07,3220           07220                           OCT      07220
003818: 07,3221           07221                           OCT      07221
003819: 07,3222           07222                           OCT      07222
003820: 07,3223           07223                           OCT      07223
003821: 07,3224           07224                           OCT      07224
003822: 07,3225           07225                           OCT      07225
003823: 07,3226           07226                           OCT      07226
003824: 07,3227           07227                           OCT      07227
003825: 07,3230           07230                           OCT      07230
003826: 07,3231           07231                           OCT      07231
003827: 07,3232           07232                           OCT      07232
003828: 07,3233           07233                           OCT      07233
003829: 07,3234           07234                           OCT      07234
003830: 07,3235           07235                           OCT      07235
003831: 07,3236           07236                           OCT      07236
003832: 07,3237           07237                           OCT      07237
003833: 07,3240           07240                           OCT      07240
003834: 07,3241           07241                           OCT      07241
003835: 07,3242           07242                           OCT      07242
003836: 07,3243           07243                           OCT      07243
003837: 07,3244           07244                           OCT      07244
003838: 07,3245           07245                           OCT      07245
003839: 07,3246           07246                           OCT      07246
003840: 07,3247           07247                           OCT      07247
003841: 07,3250           07250                           OCT      07250
003842: 07,3251           07251                           OCT      07251
003843: 07,3252           07252                           OCT      07252
003844: 07,3253           07253                           OCT      07253
003845: 07,3254           07254                           OCT      07254
003846: 07,3255           07255                           OCT      07255
003847: 07,3256           07256                           OCT      07256
003848: 07,3257           07257                           OCT      07257
003849: 07,3260           07260                           OCT      07260
003850: 07,3261           07261                           OCT      07261
003851: 07,3262           07262                           OCT      07262


003853: 07,3263           07263                           OCT      07263
003854: 07,3264           07264                           OCT      07264
003855: 07,3265           07265                           OCT      07265
003856: 07,3266           07266                           OCT      07266
003857: 07,3267           07267                           OCT      07267
003858: 07,3270           07270                           OCT      07270
003859: 07,3271           07271                           OCT      07271
003860: 07,3272           07272                           OCT      07272
003861: 07,3273           07273                           OCT      07273
003862: 07,3274           07274                           OCT      07274
003863: 07,3275           07275                           OCT      07275
003864: 07,3276           07276                           OCT      07276
003865: 07,3277           07277                           OCT      07277
003866: 07,3300           07300                           OCT      07300
003867: 07,3301           07301                           OCT      07301
003868: 07,3302           07302                           OCT      07302
003869: 07,3303           07303                           OCT      07303
003870: 07,3304           07304                           OCT      07304
003871: 07,3305           07305                           OCT      07305
003872: 07,3306           07306                           OCT      07306
003873: 07,3307           07307                           OCT      07307
003874: 07,3310           07310                           OCT      07310
003875: 07,3311           07311                           OCT      07311
003876: 07,3312           07312                           OCT      07312
003877: 07,3313           07313                           OCT      07313
003878: 07,3314           07314                           OCT      07314
003879: 07,3315           07315                           OCT      07315
003880: 07,3316           07316                           OCT      07316
003881: 07,3317           07317                           OCT      07317
003882: 07,3320           07320                           OCT      07320
003883: 07,3321           07321                           OCT      07321
003884: 07,3322           07322                           OCT      07322
003885: 07,3323           07323                           OCT      07323
003886: 07,3324           07324                           OCT      07324
003887: 07,3325           07325                           OCT      07325
003888: 07,3326           07326                           OCT      07326
003889: 07,3327           07327                           OCT      07327
003890: 07,3330           07330                           OCT      07330
003891: 07,3331           07331                           OCT      07331
003892: 07,3332           07332                           OCT      07332
003893: 07,3333           07333                           OCT      07333
003894: 07,3334           07334                           OCT      07334
003895: 07,3335           07335                           OCT      07335
003896: 07,3336           07336                           OCT      07336
003897: 07,3337           07337                           OCT      07337
003898: 07,3340           07340                           OCT      07340
003899: 07,3341           07341                           OCT      07341
003900: 07,3342           07342                           OCT      07342
003901: 07,3343           07343                           OCT      07343
003902: 07,3344           07344                           OCT      07344
003903: 07,3345           07345                           OCT      07345
003904: 07,3346           07346                           OCT      07346
003905: 07,3347           07347                           OCT      07347
003906: 07,3350           07350                           OCT      07350
003907: 07,3351           07351                           OCT      07351
003908: 07,3352           07352                           OCT      07352
003909: 07,3353           07353                           OCT      07353
003910: 07,3354           07354                           OCT      07354


003912: 07,3355           07355                           OCT      07355
003913: 07,3356           07356                           OCT      07356
003914: 07,3357           07357                           OCT      07357
003915: 07,3360           07360                           OCT      07360
003916: 07,3361           07361                           OCT      07361
003917: 07,3362           07362                           OCT      07362
003918: 07,3363           07363                           OCT      07363
003919: 07,3364           07364                           OCT      07364
003920: 07,3365           07365                           OCT      07365
003921: 07,3366           07366                           OCT      07366
003922: 07,3367           07367                           OCT      07367
003923: 07,3370           07370                           OCT      07370
003924: 07,3371           07371                           OCT      07371
003925: 07,3372           07372                           OCT      07372
003926: 07,3373           07373                           OCT      07373
003927: 07,3374           07374                           OCT      07374
003928: 07,3375           07375                           OCT      07375
003929: 07,3376           07376                           OCT      07376
003930: 07,3377           07377                           OCT      07377
003931: 07,3400           07400                           OCT      07400
003932: 07,3401           07401                           OCT      07401
003933: 07,3402           07402                           OCT      07402
003934: 07,3403           07403                           OCT      07403
003935: 07,3404           07404                           OCT      07404
003936: 07,3405           07405                           OCT      07405
003937: 07,3406           07406                           OCT      07406
003938: 07,3407           07407                           OCT      07407
003939: 07,3410           07410                           OCT      07410
003940: 07,3411           07411                           OCT      07411
003941: 07,3412           07412                           OCT      07412
003942: 07,3413           07413                           OCT      07413
003943: 07,3414           07414                           OCT      07414
003944: 07,3415           07415                           OCT      07415
003945: 07,3416           07416                           OCT      07416
003946: 07,3417           07417                           OCT      07417
003947: 07,3420           07420                           OCT      07420
003948: 07,3421           07421                           OCT      07421
003949: 07,3422           07422                           OCT      07422
003950: 07,3423           07423                           OCT      07423
003951: 07,3424           07424                           OCT      07424
003952: 07,3425           07425                           OCT      07425
003953: 07,3426           07426                           OCT      07426
003954: 07,3427           07427                           OCT      07427
003955: 07,3430           07430                           OCT      07430
003956: 07,3431           07431                           OCT      07431
003957: 07,3432           07432                           OCT      07432
003958: 07,3433           07433                           OCT      07433
003959: 07,3434           07434                           OCT      07434
003960: 07,3435           07435                           OCT      07435
003961: 07,3436           07436                           OCT      07436
003962: 07,3437           07437                           OCT      07437
003963: 07,3440           07440                           OCT      07440
003964: 07,3441           07441                           OCT      07441
003965: 07,3442           07442                           OCT      07442
003966: 07,3443           07443                           OCT      07443
003967: 07,3444           07444                           OCT      07444
003968: 07,3445           07445                           OCT      07445
003969: 07,3446           07446                           OCT      07446


003971: 07,3447           07447                           OCT      07447
003972: 07,3450           07450                           OCT      07450
003973: 07,3451           07451                           OCT      07451
003974: 07,3452           07452                           OCT      07452
003975: 07,3453           07453                           OCT      07453
003976: 07,3454           07454                           OCT      07454
003977: 07,3455           07455                           OCT      07455
003978: 07,3456           07456                           OCT      07456
003979: 07,3457           07457                           OCT      07457
003980: 07,3460           07460                           OCT      07460
003981: 07,3461           07461                           OCT      07461
003982: 07,3462           07462                           OCT      07462
003983: 07,3463           07463                           OCT      07463
003984: 07,3464           07464                           OCT      07464
003985: 07,3465           07465                           OCT      07465
003986: 07,3466           07466                           OCT      07466
003987: 07,3467           07467                           OCT      07467
003988: 07,3470           07470                           OCT      07470
003989: 07,3471           07471                           OCT      07471
003990: 07,3472           07472                           OCT      07472
003991: 07,3473           07473                           OCT      07473
003992: 07,3474           07474                           OCT      07474
003993: 07,3475           07475                           OCT      07475
003994: 07,3476           07476                           OCT      07476
003995: 07,3477           07477                           OCT      07477
003996: 07,3500           07500                           OCT      07500
003997: 07,3501           07501                           OCT      07501
003998: 07,3502           07502                           OCT      07502
003999: 07,3503           07503                           OCT      07503
004000: 07,3504           07504                           OCT      07504
004001: 07,3505           07505                           OCT      07505
004002: 07,3506           07506                           OCT      07506
004003: 07,3507           07507                           OCT      07507
004004: 07,3510           07510                           OCT      07510
004005: 07,3511           07511                           OCT      07511
004006: 07,3512           07512                           OCT      07512
004007: 07,3513           07513                           OCT      07513
004008: 07,3514           07514                           OCT      07514
004009: 07,3515           07515                           OCT      07515
004010: 07,3516           07516                           OCT      07516
004011: 07,3517           07517                           OCT      07517
004012: 07,3520           07520                           OCT      07520
004013: 07,3521           07521                           OCT      07521
004014: 07,3522           07522                           OCT      07522
004015: 07,3523           07523                           OCT      07523
004016: 07,3524           07524                           OCT      07524
004017: 07,3525           07525                           OCT      07525
004018: 07,3526           07526                           OCT      07526
004019: 07,3527           07527                           OCT      07527
004020: 07,3530           07530                           OCT      07530
004021: 07,3531           07531                           OCT      07531
004022: 07,3532           07532                           OCT      07532
004023: 07,3533           07533                           OCT      07533
004024: 07,3534           07534                           OCT      07534
004025: 07,3535           07535                           OCT      07535
004026: 07,3536           07536                           OCT      07536
004027: 07,3537           07537                           OCT      07537
004028: 07,3540           07540                           OCT      07540


004030: 07,3541           07541                           OCT      07541
004031: 07,3542           07542                           OCT      07542
004032: 07,3543           07543                           OCT      07543
004033: 07,3544           07544                           OCT      07544
004034: 07,3545           07545                           OCT      07545
004035: 07,3546           07546                           OCT      07546
004036: 07,3547           07547                           OCT      07547
004037: 07,3550           07550                           OCT      07550
004038: 07,3551           07551                           OCT      07551
004039: 07,3552           07552                           OCT      07552
004040: 07,3553           07553                           OCT      07553
004041: 07,3554           07554                           OCT      07554
004042: 07,3555           07555                           OCT      07555
004043: 07,3556           07556                           OCT      07556
004044: 07,3557           07557                           OCT      07557
004045: 07,3560           07560                           OCT      07560
004046: 07,3561           07561                           OCT      07561
004047: 07,3562           07562                           OCT      07562
004048: 07,3563           07563                           OCT      07563
004049: 07,3564           07564                           OCT      07564
004050: 07,3565           07565                           OCT      07565
004051: 07,3566           07566                           OCT      07566
004052: 07,3567           07567                           OCT      07567
004053: 07,3570           07570                           OCT      07570
004054: 07,3571           07571                           OCT      07571
004055: 07,3572           07572                           OCT      07572
004056: 07,3573           07573                           OCT      07573
004057: 07,3574           07574                           OCT      07574
004058: 07,3575           07575                           OCT      07575
004059: 07,3576           07576                           OCT      07576
004060: 07,3577           07577                           OCT      07577
004061: 07,3600           07600                           OCT      07600
004062: 07,3601           07601                           OCT      07601
004063: 07,3602           07602                           OCT      07602
004064: 07,3603           07603                           OCT      07603
004065: 07,3604           07604                           OCT      07604
004066: 07,3605           07605                           OCT      07605
004067: 07,3606           07606                           OCT      07606
004068: 07,3607           07607                           OCT      07607
004069: 07,3610           07610                           OCT      07610
004070: 07,3611           07611                           OCT      07611
004071: 07,3612           07612                           OCT      07612
004072: 07,3613           07613                           OCT      07613
004073: 07,3614           07614                           OCT      07614
004074: 07,3615           07615                           OCT      07615
004075: 07,3616           07616                           OCT      07616
004076: 07,3617           07617                           OCT      07617
004077: 07,3620           07620                           OCT      07620
004078: 07,3621           07621                           OCT      07621
004079: 07,3622           07622                           OCT      07622
004080: 07,3623           07623                           OCT      07623
004081: 07,3624           07624                           OCT      07624
004082: 07,3625           07625                           OCT      07625
004083: 07,3626           07626                           OCT      07626
004084: 07,3627           07627                           OCT      07627
004085: 07,3630           07630                           OCT      07630
004086: 07,3631           07631                           OCT      07631
004087: 07,3632           07632                           OCT      07632


004089: 07,3633           07633                           OCT      07633
004090: 07,3634           07634                           OCT      07634
004091: 07,3635           07635                           OCT      07635
004092: 07,3636           07636                           OCT      07636
004093: 07,3637           07637                           OCT      07637
004094: 07,3640           07640                           OCT      07640
004095: 07,3641           07641                           OCT      07641
004096: 07,3642           07642                           OCT      07642
004097: 07,3643           07643                           OCT      07643
004098: 07,3644           07644                           OCT      07644
004099: 07,3645           07645                           OCT      07645
004100: 07,3646           07646                           OCT      07646
004101: 07,3647           07647                           OCT      07647
004102: 07,3650           07650                           OCT      07650
004103: 07,3651           07651                           OCT      07651
004104: 07,3652           07652                           OCT      07652
004105: 07,3653           07653                           OCT      07653
004106: 07,3654           07654                           OCT      07654
004107: 07,3655           07655                           OCT      07655
004108: 07,3656           07656                           OCT      07656
004109: 07,3657           07657                           OCT      07657
004110: 07,3660           07660                           OCT      07660
004111: 07,3661           07661                           OCT      07661
004112: 07,3662           07662                           OCT      07662
004113: 07,3663           07663                           OCT      07663
004114: 07,3664           07664                           OCT      07664
004115: 07,3665           07665                           OCT      07665
004116: 07,3666           07666                           OCT      07666
004117: 07,3667           07667                           OCT      07667
004118: 07,3670           07670                           OCT      07670
004119: 07,3671           07671                           OCT      07671
004120: 07,3672           07672                           OCT      07672
004121: 07,3673           07673                           OCT      07673
004122: 07,3674           07674                           OCT      07674
004123: 07,3675           07675                           OCT      07675
004124: 07,3676           07676                           OCT      07676
004125: 07,3677           07677                           OCT      07677
004126: 07,3700           07700                           OCT      07700
004127: 07,3701           07701                           OCT      07701
004128: 07,3702           07702                           OCT      07702
004129: 07,3703           07703                           OCT      07703
004130: 07,3704           07704                           OCT      07704
004131: 07,3705           07705                           OCT      07705
004132: 07,3706           07706                           OCT      07706
004133: 07,3707           07707                           OCT      07707
004134: 07,3710           07710                           OCT      07710
004135: 07,3711           07711                           OCT      07711
004136: 07,3712           07712                           OCT      07712
004137: 07,3713           07713                           OCT      07713
004138: 07,3714           07714                           OCT      07714
004139: 07,3715           07715                           OCT      07715
004140: 07,3716           07716                           OCT      07716
004141: 07,3717           07717                           OCT      07717
004142: 07,3720           07720                           OCT      07720
004143: 07,3721           07721                           OCT      07721
004144: 07,3722           07722                           OCT      07722
004145: 07,3723           07723                           OCT      07723
004146: 07,3724           07724                           OCT      07724


004148: 07,3725           07725                           OCT      07725
004149: 07,3726           07726                           OCT      07726
004150: 07,3727           07727                           OCT      07727
004151: 07,3730           07730                           OCT      07730
004152: 07,3731           07731                           OCT      07731
004153: 07,3732           07732                           OCT      07732
004154: 07,3733           07733                           OCT      07733
004155: 07,3734           07734                           OCT      07734
004156: 07,3735           07735                           OCT      07735
004157: 07,3736           07736                           OCT      07736
004158: 07,3737           07737                           OCT      07737
004159: 07,3740           07740                           OCT      07740
004160: 07,3741           07741                           OCT      07741
004161: 07,3742           07742                           OCT      07742
004162: 07,3743           07743                           OCT      07743
004163: 07,3744           07744                           OCT      07744
004164: 07,3745           07745                           OCT      07745
004165: 07,3746           07746                           OCT      07746
004166: 07,3747           07747                           OCT      07747
004167: 07,3750           07750                           OCT      07750
004168: 07,3751           07751                           OCT      07751
004169: 07,3752           07752                           OCT      07752
004170: 07,3753           07753                           OCT      07753
004171: 07,3754           07754                           OCT      07754
004172: 07,3755           07755                           OCT      07755
004173: 07,3756           07756                           OCT      07756
004174: 07,3757           07757                           OCT      07757
004175: 07,3760           07760                           OCT      07760
004176: 07,3761           07761                           OCT      07761
004177: 07,3762           07762                           OCT      07762
004178: 07,3763           07763                           OCT      07763
004179: 07,3764           07764                           OCT      07764
004180: 07,3765           07765                           OCT      07765
004181: 07,3766           07766                           OCT      07766
004182: 07,3767           07767                           OCT      07767
004183: 07,3770           07770                           OCT      07770
004184: 07,3771           07771                           OCT      07771
004185: 07,3772           07772                           OCT      07772
004186: 07,3773           07773                           OCT      07773
004187: 07,3774           07774                           OCT      07774
004188: 07,3775           07775                           OCT      07775
004189: 07,3776           07776                           OCT      07776
Warning:  Next code may overflow storage.
004190: 07,3777           07777                           OCT      07777
004191: 10,2000                                           SETLOC   CF102000
004192: 10,2000           41003                           OCT      41003
004193: 10,2001           01001                           OCT      01001
004194: 10,2002           01002                           OCT      01002
004195: 10,2003           01003                           OCT      01003
004196: 10,2004           01004                           OCT      01004
004197: 10,2005           01005                           OCT      01005
004198: 10,2006           01006                           OCT      01006
004199: 10,2007           01007                           OCT      01007
004200: 10,2010           01010                           OCT      01010
004201: 10,2011           01011                           OCT      01011
004202: 10,2012           01012                           OCT      01012
004203: 10,2013           01013                           OCT      01013
004204: 10,2014           01014                           OCT      01014
004205: 10,2015           01015                           OCT      01015


004207: 10,2016           01016                           OCT      01016
004208: 10,2017           01017                           OCT      01017
004209: 10,2020           01020                           OCT      01020
004210: 10,2021           01021                           OCT      01021
004211: 10,2022           01022                           OCT      01022
004212: 10,2023           01023                           OCT      01023
004213: 10,2024           01024                           OCT      01024
004214: 10,2025           01025                           OCT      01025
004215: 10,2026           01026                           OCT      01026
004216: 10,2027           01027                           OCT      01027
004217: 10,2030           01030                           OCT      01030
004218: 10,2031           01031                           OCT      01031
004219: 10,2032           01032                           OCT      01032
004220: 10,2033           01033                           OCT      01033
004221: 10,2034           01034                           OCT      01034
004222: 10,2035           01035                           OCT      01035
004223: 10,2036           01036                           OCT      01036
004224: 10,2037           01037                           OCT      01037
004225: 10,2040           01040                           OCT      01040
004226: 10,2041           01041                           OCT      01041
004227: 10,2042           01042                           OCT      01042
004228: 10,2043           01043                           OCT      01043
004229: 10,2044           01044                           OCT      01044
004230: 10,2045           01045                           OCT      01045
004231: 10,2046           01046                           OCT      01046
004232: 10,2047           01047                           OCT      01047
004233: 10,2050           01050                           OCT      01050
004234: 10,2051           01051                           OCT      01051
004235: 10,2052           01052                           OCT      01052
004236: 10,2053           01053                           OCT      01053
004237: 10,2054           01054                           OCT      01054
004238: 10,2055           01055                           OCT      01055
004239: 10,2056           01056                           OCT      01056
004240: 10,2057           01057                           OCT      01057
004241: 10,2060           01060                           OCT      01060
004242: 10,2061           01061                           OCT      01061
004243: 10,2062           01062                           OCT      01062
004244: 10,2063           01063                           OCT      01063
004245: 10,2064           01064                           OCT      01064
004246: 10,2065           01065                           OCT      01065
004247: 10,2066           01066                           OCT      01066
004248: 10,2067           01067                           OCT      01067
004249: 10,2070           01070                           OCT      01070
004250: 10,2071           01071                           OCT      01071
004251: 10,2072           01072                           OCT      01072
004252: 10,2073           01073                           OCT      01073
004253: 10,2074           01074                           OCT      01074
004254: 10,2075           01075                           OCT      01075
004255: 10,2076           01076                           OCT      01076
004256: 10,2077           01077                           OCT      01077
004257: 10,2100           01100                           OCT      01100
004258: 10,2101           01101                           OCT      01101
004259: 10,2102           01102                           OCT      01102
004260: 10,2103           01103                           OCT      01103
004261: 10,2104           01104                           OCT      01104
004262: 10,2105           01105                           OCT      01105
004263: 10,2106           01106                           OCT      01106
004264: 10,2107           01107                           OCT      01107


004266: 10,2110           01110                           OCT      01110
004267: 10,2111           01111                           OCT      01111
004268: 10,2112           01112                           OCT      01112
004269: 10,2113           01113                           OCT      01113
004270: 10,2114           01114                           OCT      01114
004271: 10,2115           01115                           OCT      01115
004272: 10,2116           01116                           OCT      01116
004273: 10,2117           01117                           OCT      01117
004274: 10,2120           01120                           OCT      01120
004275: 10,2121           01121                           OCT      01121
004276: 10,2122           01122                           OCT      01122
004277: 10,2123           01123                           OCT      01123
004278: 10,2124           01124                           OCT      01124
004279: 10,2125           01125                           OCT      01125
004280: 10,2126           01126                           OCT      01126
004281: 10,2127           01127                           OCT      01127
004282: 10,2130           01130                           OCT      01130
004283: 10,2131           01131                           OCT      01131
004284: 10,2132           01132                           OCT      01132
004285: 10,2133           01133                           OCT      01133
004286: 10,2134           01134                           OCT      01134
004287: 10,2135           01135                           OCT      01135
004288: 10,2136           01136                           OCT      01136
004289: 10,2137           01137                           OCT      01137
004290: 10,2140           01140                           OCT      01140
004291: 10,2141           01141                           OCT      01141
004292: 10,2142           01142                           OCT      01142
004293: 10,2143           01143                           OCT      01143
004294: 10,2144           01144                           OCT      01144
004295: 10,2145           01145                           OCT      01145
004296: 10,2146           01146                           OCT      01146
004297: 10,2147           01147                           OCT      01147
004298: 10,2150           01150                           OCT      01150
004299: 10,2151           01151                           OCT      01151
004300: 10,2152           01152                           OCT      01152
004301: 10,2153           01153                           OCT      01153
004302: 10,2154           01154                           OCT      01154
004303: 10,2155           01155                           OCT      01155
004304: 10,2156           01156                           OCT      01156
004305: 10,2157           01157                           OCT      01157
004306: 10,2160           01160                           OCT      01160
004307: 10,2161           01161                           OCT      01161
004308: 10,2162           01162                           OCT      01162
004309: 10,2163           01163                           OCT      01163
004310: 10,2164           01164                           OCT      01164
004311: 10,2165           01165                           OCT      01165
004312: 10,2166           01166                           OCT      01166
004313: 10,2167           01167                           OCT      01167
004314: 10,2170           01170                           OCT      01170
004315: 10,2171           01171                           OCT      01171
004316: 10,2172           01172                           OCT      01172
004317: 10,2173           01173                           OCT      01173
004318: 10,2174           01174                           OCT      01174
004319: 10,2175           01175                           OCT      01175
004320: 10,2176           01176                           OCT      01176
004321: 10,2177           01177                           OCT      01177
004322: 10,2200           01200                           OCT      01200
004323: 10,2201           01201                           OCT      01201


004325: 10,2202           01202                           OCT      01202
004326: 10,2203           01203                           OCT      01203
004327: 10,2204           01204                           OCT      01204
004328: 10,2205           01205                           OCT      01205
004329: 10,2206           01206                           OCT      01206
004330: 10,2207           01207                           OCT      01207
004331: 10,2210           01210                           OCT      01210
004332: 10,2211           01211                           OCT      01211
004333: 10,2212           01212                           OCT      01212
004334: 10,2213           01213                           OCT      01213
004335: 10,2214           01214                           OCT      01214
004336: 10,2215           01215                           OCT      01215
004337: 10,2216           01216                           OCT      01216
004338: 10,2217           01217                           OCT      01217
004339: 10,2220           01220                           OCT      01220
004340: 10,2221           01221                           OCT      01221
004341: 10,2222           01222                           OCT      01222
004342: 10,2223           01223                           OCT      01223
004343: 10,2224           01224                           OCT      01224
004344: 10,2225           01225                           OCT      01225
004345: 10,2226           01226                           OCT      01226
004346: 10,2227           01227                           OCT      01227
004347: 10,2230           01230                           OCT      01230
004348: 10,2231           01231                           OCT      01231
004349: 10,2232           01232                           OCT      01232
004350: 10,2233           01233                           OCT      01233
004351: 10,2234           01234                           OCT      01234
004352: 10,2235           01235                           OCT      01235
004353: 10,2236           01236                           OCT      01236
004354: 10,2237           01237                           OCT      01237
004355: 10,2240           01240                           OCT      01240
004356: 10,2241           01241                           OCT      01241
004357: 10,2242           01242                           OCT      01242
004358: 10,2243           01243                           OCT      01243
004359: 10,2244           01244                           OCT      01244
004360: 10,2245           01245                           OCT      01245
004361: 10,2246           01246                           OCT      01246
004362: 10,2247           01247                           OCT      01247
004363: 10,2250           01250                           OCT      01250
004364: 10,2251           01251                           OCT      01251
004365: 10,2252           01252                           OCT      01252
004366: 10,2253           01253                           OCT      01253
004367: 10,2254           01254                           OCT      01254
004368: 10,2255           01255                           OCT      01255
004369: 10,2256           01256                           OCT      01256
004370: 10,2257           01257                           OCT      01257
004371: 10,2260           01260                           OCT      01260
004372: 10,2261           01261                           OCT      01261
004373: 10,2262           01262                           OCT      01262
004374: 10,2263           01263                           OCT      01263
004375: 10,2264           01264                           OCT      01264
004376: 10,2265           01265                           OCT      01265
004377: 10,2266           01266                           OCT      01266
004378: 10,2267           01267                           OCT      01267
004379: 10,2270           01270                           OCT      01270
004380: 10,2271           01271                           OCT      01271
004381: 10,2272           01272                           OCT      01272
004382: 10,2273           01273                           OCT      01273


004384: 10,2274           01274                           OCT      01274
004385: 10,2275           01275                           OCT      01275
004386: 10,2276           01276                           OCT      01276
004387: 10,2277           01277                           OCT      01277
004388: 10,2300           01300                           OCT      01300
004389: 10,2301           01301                           OCT      01301
004390: 10,2302           01302                           OCT      01302
004391: 10,2303           01303                           OCT      01303
004392: 10,2304           01304                           OCT      01304
004393: 10,2305           01305                           OCT      01305
004394: 10,2306           01306                           OCT      01306
004395: 10,2307           01307                           OCT      01307
004396: 10,2310           01310                           OCT      01310
004397: 10,2311           01311                           OCT      01311
004398: 10,2312           01312                           OCT      01312
004399: 10,2313           01313                           OCT      01313
004400: 10,2314           01314                           OCT      01314
004401: 10,2315           01315                           OCT      01315
004402: 10,2316           01316                           OCT      01316
004403: 10,2317           01317                           OCT      01317
004404: 10,2320           01320                           OCT      01320
004405: 10,2321           01321                           OCT      01321
004406: 10,2322           01322                           OCT      01322
004407: 10,2323           01323                           OCT      01323
004408: 10,2324           01324                           OCT      01324
004409: 10,2325           01325                           OCT      01325
004410: 10,2326           01326                           OCT      01326
004411: 10,2327           01327                           OCT      01327
004412: 10,2330           01330                           OCT      01330
004413: 10,2331           01331                           OCT      01331
004414: 10,2332           01332                           OCT      01332
004415: 10,2333           01333                           OCT      01333
004416: 10,2334           01334                           OCT      01334
004417: 10,2335           01335                           OCT      01335
004418: 10,2336           01336                           OCT      01336
004419: 10,2337           01337                           OCT      01337
004420: 10,2340           01340                           OCT      01340
004421: 10,2341           01341                           OCT      01341
004422: 10,2342           01342                           OCT      01342
004423: 10,2343           01343                           OCT      01343
004424: 10,2344           01344                           OCT      01344
004425: 10,2345           01345                           OCT      01345
004426: 10,2346           01346                           OCT      01346
004427: 10,2347           01347                           OCT      01347
004428: 10,2350           01350                           OCT      01350
004429: 10,2351           01351                           OCT      01351
004430: 10,2352           01352                           OCT      01352
004431: 10,2353           01353                           OCT      01353
004432: 10,2354           01354                           OCT      01354
004433: 10,2355           01355                           OCT      01355
004434: 10,2356           01356                           OCT      01356
004435: 10,2357           01357                           OCT      01357
004436: 10,2360           01360                           OCT      01360
004437: 10,2361           01361                           OCT      01361
004438: 10,2362           01362                           OCT      01362
004439: 10,2363           01363                           OCT      01363
004440: 10,2364           01364                           OCT      01364
004441: 10,2365           01365                           OCT      01365


004443: 10,2366           01366                           OCT      01366
004444: 10,2367           01367                           OCT      01367
004445: 10,2370           01370                           OCT      01370
004446: 10,2371           01371                           OCT      01371
004447: 10,2372           01372                           OCT      01372
004448: 10,2373           01373                           OCT      01373
004449: 10,2374           01374                           OCT      01374
004450: 10,2375           01375                           OCT      01375
004451: 10,2376           01376                           OCT      01376
004452: 10,2377           01377                           OCT      01377
004453: 10,2400           01400                           OCT      01400
004454: 10,2401           01401                           OCT      01401
004455: 10,2402           01402                           OCT      01402
004456: 10,2403           01403                           OCT      01403
004457: 10,2404           01404                           OCT      01404
004458: 10,2405           01405                           OCT      01405
004459: 10,2406           01406                           OCT      01406
004460: 10,2407           01407                           OCT      01407
004461: 10,2410           01410                           OCT      01410
004462: 10,2411           01411                           OCT      01411
004463: 10,2412           01412                           OCT      01412
004464: 10,2413           01413                           OCT      01413
004465: 10,2414           01414                           OCT      01414
004466: 10,2415           01415                           OCT      01415
004467: 10,2416           01416                           OCT      01416
004468: 10,2417           01417                           OCT      01417
004469: 10,2420           01420                           OCT      01420
004470: 10,2421           01421                           OCT      01421
004471: 10,2422           01422                           OCT      01422
004472: 10,2423           01423                           OCT      01423
004473: 10,2424           01424                           OCT      01424
004474: 10,2425           01425                           OCT      01425
004475: 10,2426           01426                           OCT      01426
004476: 10,2427           01427                           OCT      01427
004477: 10,2430           01430                           OCT      01430
004478: 10,2431           01431                           OCT      01431
004479: 10,2432           01432                           OCT      01432
004480: 10,2433           01433                           OCT      01433
004481: 10,2434           01434                           OCT      01434
004482: 10,2435           01435                           OCT      01435
004483: 10,2436           01436                           OCT      01436
004484: 10,2437           01437                           OCT      01437
004485: 10,2440           01440                           OCT      01440
004486: 10,2441           01441                           OCT      01441
004487: 10,2442           01442                           OCT      01442
004488: 10,2443           01443                           OCT      01443
004489: 10,2444           01444                           OCT      01444
004490: 10,2445           01445                           OCT      01445
004491: 10,2446           01446                           OCT      01446
004492: 10,2447           01447                           OCT      01447
004493: 10,2450           01450                           OCT      01450
004494: 10,2451           01451                           OCT      01451
004495: 10,2452           01452                           OCT      01452
004496: 10,2453           01453                           OCT      01453
004497: 10,2454           01454                           OCT      01454
004498: 10,2455           01455                           OCT      01455
004499: 10,2456           01456                           OCT      01456
004500: 10,2457           01457                           OCT      01457


004502: 10,2460           01460                           OCT      01460
004503: 10,2461           01461                           OCT      01461
004504: 10,2462           01462                           OCT      01462
004505: 10,2463           01463                           OCT      01463
004506: 10,2464           01464                           OCT      01464
004507: 10,2465           01465                           OCT      01465
004508: 10,2466           01466                           OCT      01466
004509: 10,2467           01467                           OCT      01467
004510: 10,2470           01470                           OCT      01470
004511: 10,2471           01471                           OCT      01471
004512: 10,2472           01472                           OCT      01472
004513: 10,2473           01473                           OCT      01473
004514: 10,2474           01474                           OCT      01474
004515: 10,2475           01475                           OCT      01475
004516: 10,2476           01476                           OCT      01476
004517: 10,2477           01477                           OCT      01477
004518: 10,2500           01500                           OCT      01500
004519: 10,2501           01501                           OCT      01501
004520: 10,2502           01502                           OCT      01502
004521: 10,2503           01503                           OCT      01503
004522: 10,2504           01504                           OCT      01504
004523: 10,2505           01505                           OCT      01505
004524: 10,2506           01506                           OCT      01506
004525: 10,2507           01507                           OCT      01507
004526: 10,2510           01510                           OCT      01510
004527: 10,2511           01511                           OCT      01511
004528: 10,2512           01512                           OCT      01512
004529: 10,2513           01513                           OCT      01513
004530: 10,2514           01514                           OCT      01514
004531: 10,2515           01515                           OCT      01515
004532: 10,2516           01516                           OCT      01516
004533: 10,2517           01517                           OCT      01517
004534: 10,2520           01520                           OCT      01520
004535: 10,2521           01521                           OCT      01521
004536: 10,2522           01522                           OCT      01522
004537: 10,2523           01523                           OCT      01523
004538: 10,2524           01524                           OCT      01524
004539: 10,2525           01525                           OCT      01525
004540: 10,2526           01526                           OCT      01526
004541: 10,2527           01527                           OCT      01527
004542: 10,2530           01530                           OCT      01530
004543: 10,2531           01531                           OCT      01531
004544: 10,2532           01532                           OCT      01532
004545: 10,2533           01533                           OCT      01533
004546: 10,2534           01534                           OCT      01534
004547: 10,2535           01535                           OCT      01535
004548: 10,2536           01536                           OCT      01536
004549: 10,2537           01537                           OCT      01537
004550: 10,2540           01540                           OCT      01540
004551: 10,2541           01541                           OCT      01541
004552: 10,2542           01542                           OCT      01542
004553: 10,2543           01543                           OCT      01543
004554: 10,2544           01544                           OCT      01544
004555: 10,2545           01545                           OCT      01545
004556: 10,2546           01546                           OCT      01546
004557: 10,2547           01547                           OCT      01547
004558: 10,2550           01550                           OCT      01550
004559: 10,2551           01551                           OCT      01551


004561: 10,2552           01552                           OCT      01552
004562: 10,2553           01553                           OCT      01553
004563: 10,2554           01554                           OCT      01554
004564: 10,2555           01555                           OCT      01555
004565: 10,2556           01556                           OCT      01556
004566: 10,2557           01557                           OCT      01557
004567: 10,2560           01560                           OCT      01560
004568: 10,2561           01561                           OCT      01561
004569: 10,2562           01562                           OCT      01562
004570: 10,2563           01563                           OCT      01563
004571: 10,2564           01564                           OCT      01564
004572: 10,2565           01565                           OCT      01565
004573: 10,2566           01566                           OCT      01566
004574: 10,2567           01567                           OCT      01567
004575: 10,2570           01570                           OCT      01570
004576: 10,2571           01571                           OCT      01571
004577: 10,2572           01572                           OCT      01572
004578: 10,2573           01573                           OCT      01573
004579: 10,2574           01574                           OCT      01574
004580: 10,2575           01575                           OCT      01575
004581: 10,2576           01576                           OCT      01576
004582: 10,2577           01577                           OCT      01577
004583: 10,2600           01600                           OCT      01600
004584: 10,2601           01601                           OCT      01601
004585: 10,2602           01602                           OCT      01602
004586: 10,2603           01603                           OCT      01603
004587: 10,2604           01604                           OCT      01604
004588: 10,2605           01605                           OCT      01605
004589: 10,2606           01606                           OCT      01606
004590: 10,2607           01607                           OCT      01607
004591: 10,2610           01610                           OCT      01610
004592: 10,2611           01611                           OCT      01611
004593: 10,2612           01612                           OCT      01612
004594: 10,2613           01613                           OCT      01613
004595: 10,2614           01614                           OCT      01614
004596: 10,2615           01615                           OCT      01615
004597: 10,2616           01616                           OCT      01616
004598: 10,2617           01617                           OCT      01617
004599: 10,2620           01620                           OCT      01620
004600: 10,2621           01621                           OCT      01621
004601: 10,2622           01622                           OCT      01622
004602: 10,2623           01623                           OCT      01623
004603: 10,2624           01624                           OCT      01624
004604: 10,2625           01625                           OCT      01625
004605: 10,2626           01626                           OCT      01626
004606: 10,2627           01627                           OCT      01627
004607: 10,2630           01630                           OCT      01630
004608: 10,2631           01631                           OCT      01631
004609: 10,2632           01632                           OCT      01632
004610: 10,2633           01633                           OCT      01633
004611: 10,2634           01634                           OCT      01634
004612: 10,2635           01635                           OCT      01635
004613: 10,2636           01636                           OCT      01636
004614: 10,2637           01637                           OCT      01637
004615: 10,2640           01640                           OCT      01640
004616: 10,2641           01641                           OCT      01641
004617: 10,2642           01642                           OCT      01642
004618: 10,2643           01643                           OCT      01643


004620: 10,2644           01644                           OCT      01644
004621: 10,2645           01645                           OCT      01645
004622: 10,2646           01646                           OCT      01646
004623: 10,2647           01647                           OCT      01647
004624: 10,2650           01650                           OCT      01650
004625: 10,2651           01651                           OCT      01651
004626: 10,2652           01652                           OCT      01652
004627: 10,2653           01653                           OCT      01653
004628: 10,2654           01654                           OCT      01654
004629: 10,2655           01655                           OCT      01655
004630: 10,2656           01656                           OCT      01656
004631: 10,2657           01657                           OCT      01657
004632: 10,2660           01660                           OCT      01660
004633: 10,2661           01661                           OCT      01661
004634: 10,2662           01662                           OCT      01662
004635: 10,2663           01663                           OCT      01663
004636: 10,2664           01664                           OCT      01664
004637: 10,2665           01665                           OCT      01665
004638: 10,2666           01666                           OCT      01666
004639: 10,2667           01667                           OCT      01667
004640: 10,2670           01670                           OCT      01670
004641: 10,2671           01671                           OCT      01671
004642: 10,2672           01672                           OCT      01672
004643: 10,2673           01673                           OCT      01673
004644: 10,2674           01674                           OCT      01674
004645: 10,2675           01675                           OCT      01675
004646: 10,2676           01676                           OCT      01676
004647: 10,2677           01677                           OCT      01677
004648: 10,2700           01700                           OCT      01700
004649: 10,2701           01701                           OCT      01701
004650: 10,2702           01702                           OCT      01702
004651: 10,2703           01703                           OCT      01703
004652: 10,2704           01704                           OCT      01704
004653: 10,2705           01705                           OCT      01705
004654: 10,2706           01706                           OCT      01706
004655: 10,2707           01707                           OCT      01707
004656: 10,2710           01710                           OCT      01710
004657: 10,2711           01711                           OCT      01711
004658: 10,2712           01712                           OCT      01712
004659: 10,2713           01713                           OCT      01713
004660: 10,2714           01714                           OCT      01714
004661: 10,2715           01715                           OCT      01715
004662: 10,2716           01716                           OCT      01716
004663: 10,2717           01717                           OCT      01717
004664: 10,2720           01720                           OCT      01720
004665: 10,2721           01721                           OCT      01721
004666: 10,2722           01722                           OCT      01722
004667: 10,2723           01723                           OCT      01723
004668: 10,2724           01724                           OCT      01724
004669: 10,2725           01725                           OCT      01725
004670: 10,2726           01726                           OCT      01726
004671: 10,2727           01727                           OCT      01727
004672: 10,2730           01730                           OCT      01730
004673: 10,2731           01731                           OCT      01731
004674: 10,2732           01732                           OCT      01732
004675: 10,2733           01733                           OCT      01733
004676: 10,2734           01734                           OCT      01734
004677: 10,2735           01735                           OCT      01735


004679: 10,2736           01736                           OCT      01736
004680: 10,2737           01737                           OCT      01737
004681: 10,2740           01740                           OCT      01740
004682: 10,2741           01741                           OCT      01741
004683: 10,2742           01742                           OCT      01742
004684: 10,2743           01743                           OCT      01743
004685: 10,2744           01744                           OCT      01744
004686: 10,2745           01745                           OCT      01745
004687: 10,2746           01746                           OCT      01746
004688: 10,2747           01747                           OCT      01747
004689: 10,2750           01750                           OCT      01750
004690: 10,2751           01751                           OCT      01751
004691: 10,2752           01752                           OCT      01752
004692: 10,2753           01753                           OCT      01753
004693: 10,2754           01754                           OCT      01754
004694: 10,2755           01755                           OCT      01755
004695: 10,2756           01756                           OCT      01756
004696: 10,2757           01757                           OCT      01757
004697: 10,2760           01760                           OCT      01760
004698: 10,2761           01761                           OCT      01761
004699: 10,2762           01762                           OCT      01762
004700: 10,2763           01763                           OCT      01763
004701: 10,2764           01764                           OCT      01764
004702: 10,2765           01765                           OCT      01765
004703: 10,2766           01766                           OCT      01766
004704: 10,2767           01767                           OCT      01767
004705: 10,2770           01770                           OCT      01770
004706: 10,2771           01771                           OCT      01771
004707: 10,2772           01772                           OCT      01772
004708: 10,2773           01773                           OCT      01773
004709: 10,2774           01774                           OCT      01774
004710: 10,2775           01775                           OCT      01775
004711: 10,2776           01776                           OCT      01776
004712: 10,2777           01777                           OCT      01777
004713: 10,3000           02000                           OCT      02000
004714: 10,3001           02001                           OCT      02001
004715: 10,3002           02002                           OCT      02002
004716: 10,3003           02003                           OCT      02003
004717: 10,3004           02004                           OCT      02004
004718: 10,3005           02005                           OCT      02005
004719: 10,3006           02006                           OCT      02006
004720: 10,3007           02007                           OCT      02007
004721: 10,3010           02010                           OCT      02010
004722: 10,3011           02011                           OCT      02011
004723: 10,3012           02012                           OCT      02012
004724: 10,3013           02013                           OCT      02013
004725: 10,3014           02014                           OCT      02014
004726: 10,3015           02015                           OCT      02015
004727: 10,3016           02016                           OCT      02016
004728: 10,3017           02017                           OCT      02017
004729: 10,3020           02020                           OCT      02020
004730: 10,3021           02021                           OCT      02021
004731: 10,3022           02022                           OCT      02022
004732: 10,3023           02023                           OCT      02023
004733: 10,3024           02024                           OCT      02024
004734: 10,3025           02025                           OCT      02025
004735: 10,3026           02026                           OCT      02026
004736: 10,3027           02027                           OCT      02027


004738: 10,3030           02030                           OCT      02030
004739: 10,3031           02031                           OCT      02031
004740: 10,3032           02032                           OCT      02032
004741: 10,3033           02033                           OCT      02033
004742: 10,3034           02034                           OCT      02034
004743: 10,3035           02035                           OCT      02035
004744: 10,3036           02036                           OCT      02036
004745: 10,3037           02037                           OCT      02037
004746: 10,3040           02040                           OCT      02040
004747: 10,3041           02041                           OCT      02041
004748: 10,3042           02042                           OCT      02042
004749: 10,3043           02043                           OCT      02043
004750: 10,3044           02044                           OCT      02044
004751: 10,3045           02045                           OCT      02045
004752: 10,3046           02046                           OCT      02046
004753: 10,3047           02047                           OCT      02047
004754: 10,3050           02050                           OCT      02050
004755: 10,3051           02051                           OCT      02051
004756: 10,3052           02052                           OCT      02052
004757: 10,3053           02053                           OCT      02053
004758: 10,3054           02054                           OCT      02054
004759: 10,3055           02055                           OCT      02055
004760: 10,3056           02056                           OCT      02056
004761: 10,3057           02057                           OCT      02057
004762: 10,3060           02060                           OCT      02060
004763: 10,3061           02061                           OCT      02061
004764: 10,3062           02062                           OCT      02062
004765: 10,3063           02063                           OCT      02063
004766: 10,3064           02064                           OCT      02064
004767: 10,3065           02065                           OCT      02065
004768: 10,3066           02066                           OCT      02066
004769: 10,3067           02067                           OCT      02067
004770: 10,3070           02070                           OCT      02070
004771: 10,3071           02071                           OCT      02071
004772: 10,3072           02072                           OCT      02072
004773: 10,3073           02073                           OCT      02073
004774: 10,3074           02074                           OCT      02074
004775: 10,3075           02075                           OCT      02075
004776: 10,3076           02076                           OCT      02076
004777: 10,3077           02077                           OCT      02077
004778: 10,3100           02100                           OCT      02100
004779: 10,3101           02101                           OCT      02101
004780: 10,3102           02102                           OCT      02102
004781: 10,3103           02103                           OCT      02103
004782: 10,3104           02104                           OCT      02104
004783: 10,3105           02105                           OCT      02105
004784: 10,3106           02106                           OCT      02106
004785: 10,3107           02107                           OCT      02107
004786: 10,3110           02110                           OCT      02110
004787: 10,3111           02111                           OCT      02111
004788: 10,3112           02112                           OCT      02112
004789: 10,3113           02113                           OCT      02113
004790: 10,3114           02114                           OCT      02114
004791: 10,3115           02115                           OCT      02115
004792: 10,3116           02116                           OCT      02116
004793: 10,3117           02117                           OCT      02117
004794: 10,3120           02120                           OCT      02120
004795: 10,3121           02121                           OCT      02121


004797: 10,3122           02122                           OCT      02122
004798: 10,3123           02123                           OCT      02123
004799: 10,3124           02124                           OCT      02124
004800: 10,3125           02125                           OCT      02125
004801: 10,3126           02126                           OCT      02126
004802: 10,3127           02127                           OCT      02127
004803: 10,3130           02130                           OCT      02130
004804: 10,3131           02131                           OCT      02131
004805: 10,3132           02132                           OCT      02132
004806: 10,3133           02133                           OCT      02133
004807: 10,3134           02134                           OCT      02134
004808: 10,3135           02135                           OCT      02135
004809: 10,3136           02136                           OCT      02136
004810: 10,3137           02137                           OCT      02137
004811: 10,3140           02140                           OCT      02140
004812: 10,3141           02141                           OCT      02141
004813: 10,3142           02142                           OCT      02142
004814: 10,3143           02143                           OCT      02143
004815: 10,3144           02144                           OCT      02144
004816: 10,3145           02145                           OCT      02145
004817: 10,3146           02146                           OCT      02146
004818: 10,3147           02147                           OCT      02147
004819: 10,3150           02150                           OCT      02150
004820: 10,3151           02151                           OCT      02151
004821: 10,3152           02152                           OCT      02152
004822: 10,3153           02153                           OCT      02153
004823: 10,3154           02154                           OCT      02154
004824: 10,3155           02155                           OCT      02155
004825: 10,3156           02156                           OCT      02156
004826: 10,3157           02157                           OCT      02157
004827: 10,3160           02160                           OCT      02160
004828: 10,3161           02161                           OCT      02161
004829: 10,3162           02162                           OCT      02162
004830: 10,3163           02163                           OCT      02163
004831: 10,3164           02164                           OCT      02164
004832: 10,3165           02165                           OCT      02165
004833: 10,3166           02166                           OCT      02166
004834: 10,3167           02167                           OCT      02167
004835: 10,3170           02170                           OCT      02170
004836: 10,3171           02171                           OCT      02171
004837: 10,3172           02172                           OCT      02172
004838: 10,3173           02173                           OCT      02173
004839: 10,3174           02174                           OCT      02174
004840: 10,3175           02175                           OCT      02175
004841: 10,3176           02176                           OCT      02176
004842: 10,3177           02177                           OCT      02177
004843: 10,3200           02200                           OCT      02200
004844: 10,3201           02201                           OCT      02201
004845: 10,3202           02202                           OCT      02202
004846: 10,3203           02203                           OCT      02203
004847: 10,3204           02204                           OCT      02204
004848: 10,3205           02205                           OCT      02205
004849: 10,3206           02206                           OCT      02206
004850: 10,3207           02207                           OCT      02207
004851: 10,3210           02210                           OCT      02210
004852: 10,3211           02211                           OCT      02211
004853: 10,3212           02212                           OCT      02212
004854: 10,3213           02213                           OCT      02213


004856: 10,3214           02214                           OCT      02214
004857: 10,3215           02215                           OCT      02215
004858: 10,3216           02216                           OCT      02216
004859: 10,3217           02217                           OCT      02217
004860: 10,3220           02220                           OCT      02220
004861: 10,3221           02221                           OCT      02221
004862: 10,3222           02222                           OCT      02222
004863: 10,3223           02223                           OCT      02223
004864: 10,3224           02224                           OCT      02224
004865: 10,3225           02225                           OCT      02225
004866: 10,3226           02226                           OCT      02226
004867: 10,3227           02227                           OCT      02227
004868: 10,3230           02230                           OCT      02230
004869: 10,3231           02231                           OCT      02231
004870: 10,3232           02232                           OCT      02232
004871: 10,3233           02233                           OCT      02233
004872: 10,3234           02234                           OCT      02234
004873: 10,3235           02235                           OCT      02235
004874: 10,3236           02236                           OCT      02236
004875: 10,3237           02237                           OCT      02237
004876: 10,3240           02240                           OCT      02240
004877: 10,3241           02241                           OCT      02241
004878: 10,3242           02242                           OCT      02242
004879: 10,3243           02243                           OCT      02243
004880: 10,3244           02244                           OCT      02244
004881: 10,3245           02245                           OCT      02245
004882: 10,3246           02246                           OCT      02246
004883: 10,3247           02247                           OCT      02247
004884: 10,3250           02250                           OCT      02250
004885: 10,3251           02251                           OCT      02251
004886: 10,3252           02252                           OCT      02252
004887: 10,3253           02253                           OCT      02253
004888: 10,3254           02254                           OCT      02254
004889: 10,3255           02255                           OCT      02255
004890: 10,3256           02256                           OCT      02256
004891: 10,3257           02257                           OCT      02257
004892: 10,3260           02260                           OCT      02260
004893: 10,3261           02261                           OCT      02261
004894: 10,3262           02262                           OCT      02262
004895: 10,3263           02263                           OCT      02263
004896: 10,3264           02264                           OCT      02264
004897: 10,3265           02265                           OCT      02265
004898: 10,3266           02266                           OCT      02266
004899: 10,3267           02267                           OCT      02267
004900: 10,3270           02270                           OCT      02270
004901: 10,3271           02271                           OCT      02271
004902: 10,3272           02272                           OCT      02272
004903: 10,3273           02273                           OCT      02273
004904: 10,3274           02274                           OCT      02274
004905: 10,3275           02275                           OCT      02275
004906: 10,3276           02276                           OCT      02276
004907: 10,3277           02277                           OCT      02277
004908: 10,3300           02300                           OCT      02300
004909: 10,3301           02301                           OCT      02301
004910: 10,3302           02302                           OCT      02302
004911: 10,3303           02303                           OCT      02303
004912: 10,3304           02304                           OCT      02304
004913: 10,3305           02305                           OCT      02305


004915: 10,3306           02306                           OCT      02306
004916: 10,3307           02307                           OCT      02307
004917: 10,3310           02310                           OCT      02310
004918: 10,3311           02311                           OCT      02311
004919: 10,3312           02312                           OCT      02312
004920: 10,3313           02313                           OCT      02313
004921: 10,3314           02314                           OCT      02314
004922: 10,3315           02315                           OCT      02315
004923: 10,3316           02316                           OCT      02316
004924: 10,3317           02317                           OCT      02317
004925: 10,3320           02320                           OCT      02320
004926: 10,3321           02321                           OCT      02321
004927: 10,3322           02322                           OCT      02322
004928: 10,3323           02323                           OCT      02323
004929: 10,3324           02324                           OCT      02324
004930: 10,3325           02325                           OCT      02325
004931: 10,3326           02326                           OCT      02326
004932: 10,3327           02327                           OCT      02327
004933: 10,3330           02330                           OCT      02330
004934: 10,3331           02331                           OCT      02331
004935: 10,3332           02332                           OCT      02332
004936: 10,3333           02333                           OCT      02333
004937: 10,3334           02334                           OCT      02334
004938: 10,3335           02335                           OCT      02335
004939: 10,3336           02336                           OCT      02336
004940: 10,3337           02337                           OCT      02337
004941: 10,3340           02340                           OCT      02340
004942: 10,3341           02341                           OCT      02341
004943: 10,3342           02342                           OCT      02342
004944: 10,3343           02343                           OCT      02343
004945: 10,3344           02344                           OCT      02344
004946: 10,3345           02345                           OCT      02345
004947: 10,3346           02346                           OCT      02346
004948: 10,3347           02347                           OCT      02347
004949: 10,3350           02350                           OCT      02350
004950: 10,3351           02351                           OCT      02351
004951: 10,3352           02352                           OCT      02352
004952: 10,3353           02353                           OCT      02353
004953: 10,3354           02354                           OCT      02354
004954: 10,3355           02355                           OCT      02355
004955: 10,3356           02356                           OCT      02356
004956: 10,3357           02357                           OCT      02357
004957: 10,3360           02360                           OCT      02360
004958: 10,3361           02361                           OCT      02361
004959: 10,3362           02362                           OCT      02362
004960: 10,3363           02363                           OCT      02363
004961: 10,3364           02364                           OCT      02364
004962: 10,3365           02365                           OCT      02365
004963: 10,3366           02366                           OCT      02366
004964: 10,3367           02367                           OCT      02367
004965: 10,3370           02370                           OCT      02370
004966: 10,3371           02371                           OCT      02371
004967: 10,3372           02372                           OCT      02372
004968: 10,3373           02373                           OCT      02373
004969: 10,3374           02374                           OCT      02374
004970: 10,3375           02375                           OCT      02375
004971: 10,3376           02376                           OCT      02376
004972: 10,3377           02377                           OCT      02377


004974: 10,3400           02400                           OCT      02400
004975: 10,3401           02401                           OCT      02401
004976: 10,3402           02402                           OCT      02402
004977: 10,3403           02403                           OCT      02403
004978: 10,3404           02404                           OCT      02404
004979: 10,3405           02405                           OCT      02405
004980: 10,3406           02406                           OCT      02406
004981: 10,3407           02407                           OCT      02407
004982: 10,3410           02410                           OCT      02410
004983: 10,3411           02411                           OCT      02411
004984: 10,3412           02412                           OCT      02412
004985: 10,3413           02413                           OCT      02413
004986: 10,3414           02414                           OCT      02414
004987: 10,3415           02415                           OCT      02415
004988: 10,3416           02416                           OCT      02416
004989: 10,3417           02417                           OCT      02417
004990: 10,3420           02420                           OCT      02420
004991: 10,3421           02421                           OCT      02421
004992: 10,3422           02422                           OCT      02422
004993: 10,3423           02423                           OCT      02423
004994: 10,3424           02424                           OCT      02424
004995: 10,3425           02425                           OCT      02425
004996: 10,3426           02426                           OCT      02426
004997: 10,3427           02427                           OCT      02427
004998: 10,3430           02430                           OCT      02430
004999: 10,3431           02431                           OCT      02431
005000: 10,3432           02432                           OCT      02432
005001: 10,3433           02433                           OCT      02433
005002: 10,3434           02434                           OCT      02434
005003: 10,3435           02435                           OCT      02435
005004: 10,3436           02436                           OCT      02436
005005: 10,3437           02437                           OCT      02437
005006: 10,3440           02440                           OCT      02440
005007: 10,3441           02441                           OCT      02441
005008: 10,3442           02442                           OCT      02442
005009: 10,3443           02443                           OCT      02443
005010: 10,3444           02444                           OCT      02444
005011: 10,3445           02445                           OCT      02445
005012: 10,3446           02446                           OCT      02446
005013: 10,3447           02447                           OCT      02447
005014: 10,3450           02450                           OCT      02450
005015: 10,3451           02451                           OCT      02451
005016: 10,3452           02452                           OCT      02452
005017: 10,3453           02453                           OCT      02453
005018: 10,3454           02454                           OCT      02454
005019: 10,3455           02455                           OCT      02455
005020: 10,3456           02456                           OCT      02456
005021: 10,3457           02457                           OCT      02457
005022: 10,3460           02460                           OCT      02460
005023: 10,3461           02461                           OCT      02461
005024: 10,3462           02462                           OCT      02462
005025: 10,3463           02463                           OCT      02463
005026: 10,3464           02464                           OCT      02464
005027: 10,3465           02465                           OCT      02465
005028: 10,3466           02466                           OCT      02466
005029: 10,3467           02467                           OCT      02467
005030: 10,3470           02470                           OCT      02470
005031: 10,3471           02471                           OCT      02471


005033: 10,3472           02472                           OCT      02472
005034: 10,3473           02473                           OCT      02473
005035: 10,3474           02474                           OCT      02474
005036: 10,3475           02475                           OCT      02475
005037: 10,3476           02476                           OCT      02476
005038: 10,3477           02477                           OCT      02477
005039: 10,3500           02500                           OCT      02500
005040: 10,3501           02501                           OCT      02501
005041: 10,3502           02502                           OCT      02502
005042: 10,3503           02503                           OCT      02503
005043: 10,3504           02504                           OCT      02504
005044: 10,3505           02505                           OCT      02505
005045: 10,3506           02506                           OCT      02506
005046: 10,3507           02507                           OCT      02507
005047: 10,3510           02510                           OCT      02510
005048: 10,3511           02511                           OCT      02511
005049: 10,3512           02512                           OCT      02512
005050: 10,3513           02513                           OCT      02513
005051: 10,3514           02514                           OCT      02514
005052: 10,3515           02515                           OCT      02515
005053: 10,3516           02516                           OCT      02516
005054: 10,3517           02517                           OCT      02517
005055: 10,3520           02520                           OCT      02520
005056: 10,3521           02521                           OCT      02521
005057: 10,3522           02522                           OCT      02522
005058: 10,3523           02523                           OCT      02523
005059: 10,3524           02524                           OCT      02524
005060: 10,3525           02525                           OCT      02525
005061: 10,3526           02526                           OCT      02526
005062: 10,3527           02527                           OCT      02527
005063: 10,3530           02530                           OCT      02530
005064: 10,3531           02531                           OCT      02531
005065: 10,3532           02532                           OCT      02532
005066: 10,3533           02533                           OCT      02533
005067: 10,3534           02534                           OCT      02534
005068: 10,3535           02535                           OCT      02535
005069: 10,3536           02536                           OCT      02536
005070: 10,3537           02537                           OCT      02537
005071: 10,3540           02540                           OCT      02540
005072: 10,3541           02541                           OCT      02541
005073: 10,3542           02542                           OCT      02542
005074: 10,3543           02543                           OCT      02543
005075: 10,3544           02544                           OCT      02544
005076: 10,3545           02545                           OCT      02545
005077: 10,3546           02546                           OCT      02546
005078: 10,3547           02547                           OCT      02547
005079: 10,3550           02550                           OCT      02550
005080: 10,3551           02551                           OCT      02551
005081: 10,3552           02552                           OCT      02552
005082: 10,3553           02553                           OCT      02553
005083: 10,3554           02554                           OCT      02554
005084: 10,3555           02555                           OCT      02555
005085: 10,3556           02556                           OCT      02556
005086: 10,3557           02557                           OCT      02557
005087: 10,3560           02560                           OCT      02560
005088: 10,3561           02561                           OCT      02561
005089: 10,3562           02562                           OCT      02562
005090: 10,3563           02563                           OCT      02563


005092: 10,3564           02564                           OCT      02564
005093: 10,3565           02565                           OCT      02565
005094: 10,3566           02566                           OCT      02566
005095: 10,3567           02567                           OCT      02567
005096: 10,3570           02570                           OCT      02570
005097: 10,3571           02571                           OCT      02571
005098: 10,3572           02572                           OCT      02572
005099: 10,3573           02573                           OCT      02573
005100: 10,3574           02574                           OCT      02574
005101: 10,3575           02575                           OCT      02575
005102: 10,3576           02576                           OCT      02576
005103: 10,3577           02577                           OCT      02577
005104: 10,3600           02600                           OCT      02600
005105: 10,3601           02601                           OCT      02601
005106: 10,3602           02602                           OCT      02602
005107: 10,3603           02603                           OCT      02603
005108: 10,3604           02604                           OCT      02604
005109: 10,3605           02605                           OCT      02605
005110: 10,3606           02606                           OCT      02606
005111: 10,3607           02607                           OCT      02607
005112: 10,3610           02610                           OCT      02610
005113: 10,3611           02611                           OCT      02611
005114: 10,3612           02612                           OCT      02612
005115: 10,3613           02613                           OCT      02613
005116: 10,3614           02614                           OCT      02614
005117: 10,3615           02615                           OCT      02615
005118: 10,3616           02616                           OCT      02616
005119: 10,3617           02617                           OCT      02617
005120: 10,3620           02620                           OCT      02620
005121: 10,3621           02621                           OCT      02621
005122: 10,3622           02622                           OCT      02622
005123: 10,3623           02623                           OCT      02623
005124: 10,3624           02624                           OCT      02624
005125: 10,3625           02625                           OCT      02625
005126: 10,3626           02626                           OCT      02626
005127: 10,3627           02627                           OCT      02627
005128: 10,3630           02630                           OCT      02630
005129: 10,3631           02631                           OCT      02631
005130: 10,3632           02632                           OCT      02632
005131: 10,3633           02633                           OCT      02633
005132: 10,3634           02634                           OCT      02634
005133: 10,3635           02635                           OCT      02635
005134: 10,3636           02636                           OCT      02636
005135: 10,3637           02637                           OCT      02637
005136: 10,3640           02640                           OCT      02640
005137: 10,3641           02641                           OCT      02641
005138: 10,3642           02642                           OCT      02642
005139: 10,3643           02643                           OCT      02643
005140: 10,3644           02644                           OCT      02644
005141: 10,3645           02645                           OCT      02645
005142: 10,3646           02646                           OCT      02646
005143: 10,3647           02647                           OCT      02647
005144: 10,3650           02650                           OCT      02650
005145: 10,3651           02651                           OCT      02651
005146: 10,3652           02652                           OCT      02652
005147: 10,3653           02653                           OCT      02653
005148: 10,3654           02654                           OCT      02654
005149: 10,3655           02655                           OCT      02655


005151: 10,3656           02656                           OCT      02656
005152: 10,3657           02657                           OCT      02657
005153: 10,3660           02660                           OCT      02660
005154: 10,3661           02661                           OCT      02661
005155: 10,3662           02662                           OCT      02662
005156: 10,3663           02663                           OCT      02663
005157: 10,3664           02664                           OCT      02664
005158: 10,3665           02665                           OCT      02665
005159: 10,3666           02666                           OCT      02666
005160: 10,3667           02667                           OCT      02667
005161: 10,3670           02670                           OCT      02670
005162: 10,3671           02671                           OCT      02671
005163: 10,3672           02672                           OCT      02672
005164: 10,3673           02673                           OCT      02673
005165: 10,3674           02674                           OCT      02674
005166: 10,3675           02675                           OCT      02675
005167: 10,3676           02676                           OCT      02676
005168: 10,3677           02677                           OCT      02677
005169: 10,3700           02700                           OCT      02700
005170: 10,3701           02701                           OCT      02701
005171: 10,3702           02702                           OCT      02702
005172: 10,3703           02703                           OCT      02703
005173: 10,3704           02704                           OCT      02704
005174: 10,3705           02705                           OCT      02705
005175: 10,3706           02706                           OCT      02706
005176: 10,3707           02707                           OCT      02707
005177: 10,3710           02710                           OCT      02710
005178: 10,3711           02711                           OCT      02711
005179: 10,3712           02712                           OCT      02712
005180: 10,3713           02713                           OCT      02713
005181: 10,3714           02714                           OCT      02714
005182: 10,3715           02715                           OCT      02715
005183: 10,3716           02716                           OCT      02716
005184: 10,3717           02717                           OCT      02717
005185: 10,3720           02720                           OCT      02720
005186: 10,3721           02721                           OCT      02721
005187: 10,3722           02722                           OCT      02722
005188: 10,3723           02723                           OCT      02723
005189: 10,3724           02724                           OCT      02724
005190: 10,3725           02725                           OCT      02725
005191: 10,3726           02726                           OCT      02726
005192: 10,3727           02727                           OCT      02727
005193: 10,3730           02730                           OCT      02730
005194: 10,3731           02731                           OCT      02731
005195: 10,3732           02732                           OCT      02732
005196: 10,3733           02733                           OCT      02733
005197: 10,3734           02734                           OCT      02734
005198: 10,3735           02735                           OCT      02735
005199: 10,3736           02736                           OCT      02736
005200: 10,3737           02737                           OCT      02737
005201: 10,3740           02740                           OCT      02740
005202: 10,3741           02741                           OCT      02741
005203: 10,3742           02742                           OCT      02742
005204: 10,3743           02743                           OCT      02743
005205: 10,3744           02744                           OCT      02744
005206: 10,3745           02745                           OCT      02745
005207: 10,3746           02746                           OCT      02746
005208: 10,3747           02747                           OCT      02747


005210: 10,3750           02750                           OCT      02750
005211: 10,3751           02751                           OCT      02751
005212: 10,3752           02752                           OCT      02752
005213: 10,3753           02753                           OCT      02753
005214: 10,3754           02754                           OCT      02754
005215: 10,3755           02755                           OCT      02755
005216: 10,3756           02756                           OCT      02756
005217: 10,3757           02757                           OCT      02757
005218: 10,3760           02760                           OCT      02760
005219: 10,3761           02761                           OCT      02761
005220: 10,3762           02762                           OCT      02762
005221: 10,3763           02763                           OCT      02763
005222: 10,3764           02764                           OCT      02764
005223: 10,3765           02765                           OCT      02765
005224: 10,3766           02766                           OCT      02766
005225: 10,3767           02767                           OCT      02767
005226: 10,3770           02770                           OCT      02770
005227: 10,3771           02771                           OCT      02771
005228: 10,3772           02772                           OCT      02772
005229: 10,3773           02773                           OCT      02773
005230: 10,3774           02774                           OCT      02774
005231: 10,3775           02775                           OCT      02775
005232: 10,3776           02776                           OCT      02776
Warning:  Next code may overflow storage.
005233: 10,3777           02777                           OCT      02777


005235: 11,2000                                           SETLOC   CF112000
005236: 11,2000           51005                           OCT      51005
005237: 11,2001           03001                           OCT      03001
005238: 11,2002           03002                           OCT      03002
005239: 11,2003           03003                           OCT      03003
005240: 11,2004           03004                           OCT      03004
005241: 11,2005           03005                           OCT      03005
005242: 11,2006           03006                           OCT      03006
005243: 11,2007           03007                           OCT      03007
005244: 11,2010           03010                           OCT      03010
005245: 11,2011           03011                           OCT      03011
005246: 11,2012           03012                           OCT      03012
005247: 11,2013           03013                           OCT      03013
005248: 11,2014           03014                           OCT      03014
005249: 11,2015           03015                           OCT      03015
005250: 11,2016           03016                           OCT      03016
005251: 11,2017           03017                           OCT      03017
005252: 11,2020           03020                           OCT      03020
005253: 11,2021           03021                           OCT      03021
005254: 11,2022           03022                           OCT      03022
005255: 11,2023           03023                           OCT      03023
005256: 11,2024           03024                           OCT      03024
005257: 11,2025           03025                           OCT      03025
005258: 11,2026           03026                           OCT      03026
005259: 11,2027           03027                           OCT      03027
005260: 11,2030           03030                           OCT      03030
005261: 11,2031           03031                           OCT      03031
005262: 11,2032           03032                           OCT      03032
005263: 11,2033           03033                           OCT      03033
005264: 11,2034           03034                           OCT      03034
005265: 11,2035           03035                           OCT      03035
005266: 11,2036           03036                           OCT      03036
005267: 11,2037           03037                           OCT      03037
005268: 11,2040           03040                           OCT      03040
005269: 11,2041           03041                           OCT      03041
005270: 11,2042           03042                           OCT      03042
005271: 11,2043           03043                           OCT      03043
005272: 11,2044           03044                           OCT      03044
005273: 11,2045           03045                           OCT      03045
005274: 11,2046           03046                           OCT      03046
005275: 11,2047           03047                           OCT      03047
005276: 11,2050           03050                           OCT      03050
005277: 11,2051           03051                           OCT      03051
005278: 11,2052           03052                           OCT      03052
005279: 11,2053           03053                           OCT      03053
005280: 11,2054           03054                           OCT      03054
005281: 11,2055           03055                           OCT      03055
005282: 11,2056           03056                           OCT      03056
005283: 11,2057           03057                           OCT      03057
005284: 11,2060           03060                           OCT      03060
005285: 11,2061           03061                           OCT      03061
005286: 11,2062           03062                           OCT      03062
005287: 11,2063           03063                           OCT      03063
005288: 11,2064           03064                           OCT      03064
005289: 11,2065           03065                           OCT      03065
005290: 11,2066           03066                           OCT      03066
005291: 11,2067           03067                           OCT      03067


005293: 11,2070           03070                           OCT      03070
005294: 11,2071           03071                           OCT      03071
005295: 11,2072           03072                           OCT      03072
005296: 11,2073           03073                           OCT      03073
005297: 11,2074           03074                           OCT      03074
005298: 11,2075           03075                           OCT      03075
005299: 11,2076           03076                           OCT      03076
005300: 11,2077           03077                           OCT      03077
005301: 11,2100           03100                           OCT      03100
005302: 11,2101           03101                           OCT      03101
005303: 11,2102           03102                           OCT      03102
005304: 11,2103           03103                           OCT      03103
005305: 11,2104           03104                           OCT      03104
005306: 11,2105           03105                           OCT      03105
005307: 11,2106           03106                           OCT      03106
005308: 11,2107           03107                           OCT      03107
005309: 11,2110           03110                           OCT      03110
005310: 11,2111           03111                           OCT      03111
005311: 11,2112           03112                           OCT      03112
005312: 11,2113           03113                           OCT      03113
005313: 11,2114           03114                           OCT      03114
005314: 11,2115           03115                           OCT      03115
005315: 11,2116           03116                           OCT      03116
005316: 11,2117           03117                           OCT      03117
005317: 11,2120           03120                           OCT      03120
005318: 11,2121           03121                           OCT      03121
005319: 11,2122           03122                           OCT      03122
005320: 11,2123           03123                           OCT      03123
005321: 11,2124           03124                           OCT      03124
005322: 11,2125           03125                           OCT      03125
005323: 11,2126           03126                           OCT      03126
005324: 11,2127           03127                           OCT      03127
005325: 11,2130           03130                           OCT      03130
005326: 11,2131           03131                           OCT      03131
005327: 11,2132           03132                           OCT      03132
005328: 11,2133           03133                           OCT      03133
005329: 11,2134           03134                           OCT      03134
005330: 11,2135           03135                           OCT      03135
005331: 11,2136           03136                           OCT      03136
005332: 11,2137           03137                           OCT      03137
005333: 11,2140           03140                           OCT      03140
005334: 11,2141           03141                           OCT      03141
005335: 11,2142           03142                           OCT      03142
005336: 11,2143           03143                           OCT      03143
005337: 11,2144           03144                           OCT      03144
005338: 11,2145           03145                           OCT      03145
005339: 11,2146           03146                           OCT      03146
005340: 11,2147           03147                           OCT      03147
005341: 11,2150           03150                           OCT      03150
005342: 11,2151           03151                           OCT      03151
005343: 11,2152           03152                           OCT      03152
005344: 11,2153           03153                           OCT      03153
005345: 11,2154           03154                           OCT      03154
005346: 11,2155           03155                           OCT      03155
005347: 11,2156           03156                           OCT      03156
005348: 11,2157           03157                           OCT      03157
005349: 11,2160           03160                           OCT      03160
005350: 11,2161           03161                           OCT      03161


005352: 11,2162           03162                           OCT      03162
005353: 11,2163           03163                           OCT      03163
005354: 11,2164           03164                           OCT      03164
005355: 11,2165           03165                           OCT      03165
005356: 11,2166           03166                           OCT      03166
005357: 11,2167           03167                           OCT      03167
005358: 11,2170           03170                           OCT      03170
005359: 11,2171           03171                           OCT      03171
005360: 11,2172           03172                           OCT      03172
005361: 11,2173           03173                           OCT      03173
005362: 11,2174           03174                           OCT      03174
005363: 11,2175           03175                           OCT      03175
005364: 11,2176           03176                           OCT      03176
005365: 11,2177           03177                           OCT      03177
005366: 11,2200           03200                           OCT      03200
005367: 11,2201           03201                           OCT      03201
005368: 11,2202           03202                           OCT      03202
005369: 11,2203           03203                           OCT      03203
005370: 11,2204           03204                           OCT      03204
005371: 11,2205           03205                           OCT      03205
005372: 11,2206           03206                           OCT      03206
005373: 11,2207           03207                           OCT      03207
005374: 11,2210           03210                           OCT      03210
005375: 11,2211           03211                           OCT      03211
005376: 11,2212           03212                           OCT      03212
005377: 11,2213           03213                           OCT      03213
005378: 11,2214           03214                           OCT      03214
005379: 11,2215           03215                           OCT      03215
005380: 11,2216           03216                           OCT      03216
005381: 11,2217           03217                           OCT      03217
005382: 11,2220           03220                           OCT      03220
005383: 11,2221           03221                           OCT      03221
005384: 11,2222           03222                           OCT      03222
005385: 11,2223           03223                           OCT      03223
005386: 11,2224           03224                           OCT      03224
005387: 11,2225           03225                           OCT      03225
005388: 11,2226           03226                           OCT      03226
005389: 11,2227           03227                           OCT      03227
005390: 11,2230           03230                           OCT      03230
005391: 11,2231           03231                           OCT      03231
005392: 11,2232           03232                           OCT      03232
005393: 11,2233           03233                           OCT      03233
005394: 11,2234           03234                           OCT      03234
005395: 11,2235           03235                           OCT      03235
005396: 11,2236           03236                           OCT      03236
005397: 11,2237           03237                           OCT      03237
005398: 11,2240           03240                           OCT      03240
005399: 11,2241           03241                           OCT      03241
005400: 11,2242           03242                           OCT      03242
005401: 11,2243           03243                           OCT      03243
005402: 11,2244           03244                           OCT      03244
005403: 11,2245           03245                           OCT      03245
005404: 11,2246           03246                           OCT      03246
005405: 11,2247           03247                           OCT      03247
005406: 11,2250           03250                           OCT      03250
005407: 11,2251           03251                           OCT      03251
005408: 11,2252           03252                           OCT      03252
005409: 11,2253           03253                           OCT      03253


005411: 11,2254           03254                           OCT      03254
005412: 11,2255           03255                           OCT      03255
005413: 11,2256           03256                           OCT      03256
005414: 11,2257           03257                           OCT      03257
005415: 11,2260           03260                           OCT      03260
005416: 11,2261           03261                           OCT      03261
005417: 11,2262           03262                           OCT      03262
005418: 11,2263           03263                           OCT      03263
005419: 11,2264           03264                           OCT      03264
005420: 11,2265           03265                           OCT      03265
005421: 11,2266           03266                           OCT      03266
005422: 11,2267           03267                           OCT      03267
005423: 11,2270           03270                           OCT      03270
005424: 11,2271           03271                           OCT      03271
005425: 11,2272           03272                           OCT      03272
005426: 11,2273           03273                           OCT      03273
005427: 11,2274           03274                           OCT      03274
005428: 11,2275           03275                           OCT      03275
005429: 11,2276           03276                           OCT      03276
005430: 11,2277           03277                           OCT      03277
005431: 11,2300           03300                           OCT      03300
005432: 11,2301           03301                           OCT      03301
005433: 11,2302           03302                           OCT      03302
005434: 11,2303           03303                           OCT      03303
005435: 11,2304           03304                           OCT      03304
005436: 11,2305           03305                           OCT      03305
005437: 11,2306           03306                           OCT      03306
005438: 11,2307           03307                           OCT      03307
005439: 11,2310           03310                           OCT      03310
005440: 11,2311           03311                           OCT      03311
005441: 11,2312           03312                           OCT      03312
005442: 11,2313           03313                           OCT      03313
005443: 11,2314           03314                           OCT      03314
005444: 11,2315           03315                           OCT      03315
005445: 11,2316           03316                           OCT      03316
005446: 11,2317           03317                           OCT      03317
005447: 11,2320           03320                           OCT      03320
005448: 11,2321           03321                           OCT      03321
005449: 11,2322           03322                           OCT      03322
005450: 11,2323           03323                           OCT      03323
005451: 11,2324           03324                           OCT      03324
005452: 11,2325           03325                           OCT      03325
005453: 11,2326           03326                           OCT      03326
005454: 11,2327           03327                           OCT      03327
005455: 11,2330           03330                           OCT      03330
005456: 11,2331           03331                           OCT      03331
005457: 11,2332           03332                           OCT      03332
005458: 11,2333           03333                           OCT      03333
005459: 11,2334           03334                           OCT      03334
005460: 11,2335           03335                           OCT      03335
005461: 11,2336           03336                           OCT      03336
005462: 11,2337           03337                           OCT      03337
005463: 11,2340           03340                           OCT      03340
005464: 11,2341           03341                           OCT      03341
005465: 11,2342           03342                           OCT      03342
005466: 11,2343           03343                           OCT      03343
005467: 11,2344           03344                           OCT      03344
005468: 11,2345           03345                           OCT      03345


005470: 11,2346           03346                           OCT      03346
005471: 11,2347           03347                           OCT      03347
005472: 11,2350           03350                           OCT      03350
005473: 11,2351           03351                           OCT      03351
005474: 11,2352           03352                           OCT      03352
005475: 11,2353           03353                           OCT      03353
005476: 11,2354           03354                           OCT      03354
005477: 11,2355           03355                           OCT      03355
005478: 11,2356           03356                           OCT      03356
005479: 11,2357           03357                           OCT      03357
005480: 11,2360           03360                           OCT      03360
005481: 11,2361           03361                           OCT      03361
005482: 11,2362           03362                           OCT      03362
005483: 11,2363           03363                           OCT      03363
005484: 11,2364           03364                           OCT      03364
005485: 11,2365           03365                           OCT      03365
005486: 11,2366           03366                           OCT      03366
005487: 11,2367           03367                           OCT      03367
005488: 11,2370           03370                           OCT      03370
005489: 11,2371           03371                           OCT      03371
005490: 11,2372           03372                           OCT      03372
005491: 11,2373           03373                           OCT      03373
005492: 11,2374           03374                           OCT      03374
005493: 11,2375           03375                           OCT      03375
005494: 11,2376           03376                           OCT      03376
005495: 11,2377           03377                           OCT      03377
005496: 11,2400           03400                           OCT      03400
005497: 11,2401           03401                           OCT      03401
005498: 11,2402           03402                           OCT      03402
005499: 11,2403           03403                           OCT      03403
005500: 11,2404           03404                           OCT      03404
005501: 11,2405           03405                           OCT      03405
005502: 11,2406           03406                           OCT      03406
005503: 11,2407           03407                           OCT      03407
005504: 11,2410           03410                           OCT      03410
005505: 11,2411           03411                           OCT      03411
005506: 11,2412           03412                           OCT      03412
005507: 11,2413           03413                           OCT      03413
005508: 11,2414           03414                           OCT      03414
005509: 11,2415           03415                           OCT      03415
005510: 11,2416           03416                           OCT      03416
005511: 11,2417           03417                           OCT      03417
005512: 11,2420           03420                           OCT      03420
005513: 11,2421           03421                           OCT      03421
005514: 11,2422           03422                           OCT      03422
005515: 11,2423           03423                           OCT      03423
005516: 11,2424           03424                           OCT      03424
005517: 11,2425           03425                           OCT      03425
005518: 11,2426           03426                           OCT      03426
005519: 11,2427           03427                           OCT      03427
005520: 11,2430           03430                           OCT      03430
005521: 11,2431           03431                           OCT      03431
005522: 11,2432           03432                           OCT      03432
005523: 11,2433           03433                           OCT      03433
005524: 11,2434           03434                           OCT      03434
005525: 11,2435           03435                           OCT      03435
005526: 11,2436           03436                           OCT      03436
005527: 11,2437           03437                           OCT      03437


005529: 11,2440           03440                           OCT      03440
005530: 11,2441           03441                           OCT      03441
005531: 11,2442           03442                           OCT      03442
005532: 11,2443           03443                           OCT      03443
005533: 11,2444           03444                           OCT      03444
005534: 11,2445           03445                           OCT      03445
005535: 11,2446           03446                           OCT      03446
005536: 11,2447           03447                           OCT      03447
005537: 11,2450           03450                           OCT      03450
005538: 11,2451           03451                           OCT      03451
005539: 11,2452           03452                           OCT      03452
005540: 11,2453           03453                           OCT      03453
005541: 11,2454           03454                           OCT      03454
005542: 11,2455           03455                           OCT      03455
005543: 11,2456           03456                           OCT      03456
005544: 11,2457           03457                           OCT      03457
005545: 11,2460           03460                           OCT      03460
005546: 11,2461           03461                           OCT      03461
005547: 11,2462           03462                           OCT      03462
005548: 11,2463           03463                           OCT      03463
005549: 11,2464           03464                           OCT      03464
005550: 11,2465           03465                           OCT      03465
005551: 11,2466           03466                           OCT      03466
005552: 11,2467           03467                           OCT      03467
005553: 11,2470           03470                           OCT      03470
005554: 11,2471           03471                           OCT      03471
005555: 11,2472           03472                           OCT      03472
005556: 11,2473           03473                           OCT      03473
005557: 11,2474           03474                           OCT      03474
005558: 11,2475           03475                           OCT      03475
005559: 11,2476           03476                           OCT      03476
005560: 11,2477           03477                           OCT      03477
005561: 11,2500           03500                           OCT      03500
005562: 11,2501           03501                           OCT      03501
005563: 11,2502           03502                           OCT      03502
005564: 11,2503           03503                           OCT      03503
005565: 11,2504           03504                           OCT      03504
005566: 11,2505           03505                           OCT      03505
005567: 11,2506           03506                           OCT      03506
005568: 11,2507           03507                           OCT      03507
005569: 11,2510           03510                           OCT      03510
005570: 11,2511           03511                           OCT      03511
005571: 11,2512           03512                           OCT      03512
005572: 11,2513           03513                           OCT      03513
005573: 11,2514           03514                           OCT      03514
005574: 11,2515           03515                           OCT      03515
005575: 11,2516           03516                           OCT      03516
005576: 11,2517           03517                           OCT      03517
005577: 11,2520           03520                           OCT      03520
005578: 11,2521           03521                           OCT      03521
005579: 11,2522           03522                           OCT      03522
005580: 11,2523           03523                           OCT      03523
005581: 11,2524           03524                           OCT      03524
005582: 11,2525           03525                           OCT      03525
005583: 11,2526           03526                           OCT      03526
005584: 11,2527           03527                           OCT      03527
005585: 11,2530           03530                           OCT      03530
005586: 11,2531           03531                           OCT      03531


005588: 11,2532           03532                           OCT      03532
005589: 11,2533           03533                           OCT      03533
005590: 11,2534           03534                           OCT      03534
005591: 11,2535           03535                           OCT      03535
005592: 11,2536           03536                           OCT      03536
005593: 11,2537           03537                           OCT      03537
005594: 11,2540           03540                           OCT      03540
005595: 11,2541           03541                           OCT      03541
005596: 11,2542           03542                           OCT      03542
005597: 11,2543           03543                           OCT      03543
005598: 11,2544           03544                           OCT      03544
005599: 11,2545           03545                           OCT      03545
005600: 11,2546           03546                           OCT      03546
005601: 11,2547           03547                           OCT      03547
005602: 11,2550           03550                           OCT      03550
005603: 11,2551           03551                           OCT      03551
005604: 11,2552           03552                           OCT      03552
005605: 11,2553           03553                           OCT      03553
005606: 11,2554           03554                           OCT      03554
005607: 11,2555           03555                           OCT      03555
005608: 11,2556           03556                           OCT      03556
005609: 11,2557           03557                           OCT      03557
005610: 11,2560           03560                           OCT      03560
005611: 11,2561           03561                           OCT      03561
005612: 11,2562           03562                           OCT      03562
005613: 11,2563           03563                           OCT      03563
005614: 11,2564           03564                           OCT      03564
005615: 11,2565           03565                           OCT      03565
005616: 11,2566           03566                           OCT      03566
005617: 11,2567           03567                           OCT      03567
005618: 11,2570           03570                           OCT      03570
005619: 11,2571           03571                           OCT      03571
005620: 11,2572           03572                           OCT      03572
005621: 11,2573           03573                           OCT      03573
005622: 11,2574           03574                           OCT      03574
005623: 11,2575           03575                           OCT      03575
005624: 11,2576           03576                           OCT      03576
005625: 11,2577           03577                           OCT      03577
005626: 11,2600           03600                           OCT      03600
005627: 11,2601           03601                           OCT      03601
005628: 11,2602           03602                           OCT      03602
005629: 11,2603           03603                           OCT      03603
005630: 11,2604           03604                           OCT      03604
005631: 11,2605           03605                           OCT      03605
005632: 11,2606           03606                           OCT      03606
005633: 11,2607           03607                           OCT      03607
005634: 11,2610           03610                           OCT      03610
005635: 11,2611           03611                           OCT      03611
005636: 11,2612           03612                           OCT      03612
005637: 11,2613           03613                           OCT      03613
005638: 11,2614           03614                           OCT      03614
005639: 11,2615           03615                           OCT      03615
005640: 11,2616           03616                           OCT      03616
005641: 11,2617           03617                           OCT      03617
005642: 11,2620           03620                           OCT      03620
005643: 11,2621           03621                           OCT      03621
005644: 11,2622           03622                           OCT      03622
005645: 11,2623           03623                           OCT      03623


005647: 11,2624           03624                           OCT      03624
005648: 11,2625           03625                           OCT      03625
005649: 11,2626           03626                           OCT      03626
005650: 11,2627           03627                           OCT      03627
005651: 11,2630           03630                           OCT      03630
005652: 11,2631           03631                           OCT      03631
005653: 11,2632           03632                           OCT      03632
005654: 11,2633           03633                           OCT      03633
005655: 11,2634           03634                           OCT      03634
005656: 11,2635           03635                           OCT      03635
005657: 11,2636           03636                           OCT      03636
005658: 11,2637           03637                           OCT      03637
005659: 11,2640           03640                           OCT      03640
005660: 11,2641           03641                           OCT      03641
005661: 11,2642           03642                           OCT      03642
005662: 11,2643           03643                           OCT      03643
005663: 11,2644           03644                           OCT      03644
005664: 11,2645           03645                           OCT      03645
005665: 11,2646           03646                           OCT      03646
005666: 11,2647           03647                           OCT      03647
005667: 11,2650           03650                           OCT      03650
005668: 11,2651           03651                           OCT      03651
005669: 11,2652           03652                           OCT      03652
005670: 11,2653           03653                           OCT      03653
005671: 11,2654           03654                           OCT      03654
005672: 11,2655           03655                           OCT      03655
005673: 11,2656           03656                           OCT      03656
005674: 11,2657           03657                           OCT      03657
005675: 11,2660           03660                           OCT      03660
005676: 11,2661           03661                           OCT      03661
005677: 11,2662           03662                           OCT      03662
005678: 11,2663           03663                           OCT      03663
005679: 11,2664           03664                           OCT      03664
005680: 11,2665           03665                           OCT      03665
005681: 11,2666           03666                           OCT      03666
005682: 11,2667           03667                           OCT      03667
005683: 11,2670           03670                           OCT      03670
005684: 11,2671           03671                           OCT      03671
005685: 11,2672           03672                           OCT      03672
005686: 11,2673           03673                           OCT      03673
005687: 11,2674           03674                           OCT      03674
005688: 11,2675           03675                           OCT      03675
005689: 11,2676           03676                           OCT      03676
005690: 11,2677           03677                           OCT      03677
005691: 11,2700           03700                           OCT      03700
005692: 11,2701           03701                           OCT      03701
005693: 11,2702           03702                           OCT      03702
005694: 11,2703           03703                           OCT      03703
005695: 11,2704           03704                           OCT      03704
005696: 11,2705           03705                           OCT      03705
005697: 11,2706           03706                           OCT      03706
005698: 11,2707           03707                           OCT      03707
005699: 11,2710           03710                           OCT      03710
005700: 11,2711           03711                           OCT      03711
005701: 11,2712           03712                           OCT      03712
005702: 11,2713           03713                           OCT      03713
005703: 11,2714           03714                           OCT      03714
005704: 11,2715           03715                           OCT      03715


005706: 11,2716           03716                           OCT      03716
005707: 11,2717           03717                           OCT      03717
005708: 11,2720           03720                           OCT      03720
005709: 11,2721           03721                           OCT      03721
005710: 11,2722           03722                           OCT      03722
005711: 11,2723           03723                           OCT      03723
005712: 11,2724           03724                           OCT      03724
005713: 11,2725           03725                           OCT      03725
005714: 11,2726           03726                           OCT      03726
005715: 11,2727           03727                           OCT      03727
005716: 11,2730           03730                           OCT      03730
005717: 11,2731           03731                           OCT      03731
005718: 11,2732           03732                           OCT      03732
005719: 11,2733           03733                           OCT      03733
005720: 11,2734           03734                           OCT      03734
005721: 11,2735           03735                           OCT      03735
005722: 11,2736           03736                           OCT      03736
005723: 11,2737           03737                           OCT      03737
005724: 11,2740           03740                           OCT      03740
005725: 11,2741           03741                           OCT      03741
005726: 11,2742           03742                           OCT      03742
005727: 11,2743           03743                           OCT      03743
005728: 11,2744           03744                           OCT      03744
005729: 11,2745           03745                           OCT      03745
005730: 11,2746           03746                           OCT      03746
005731: 11,2747           03747                           OCT      03747
005732: 11,2750           03750                           OCT      03750
005733: 11,2751           03751                           OCT      03751
005734: 11,2752           03752                           OCT      03752
005735: 11,2753           03753                           OCT      03753
005736: 11,2754           03754                           OCT      03754
005737: 11,2755           03755                           OCT      03755
005738: 11,2756           03756                           OCT      03756
005739: 11,2757           03757                           OCT      03757
005740: 11,2760           03760                           OCT      03760
005741: 11,2761           03761                           OCT      03761
005742: 11,2762           03762                           OCT      03762
005743: 11,2763           03763                           OCT      03763
005744: 11,2764           03764                           OCT      03764
005745: 11,2765           03765                           OCT      03765
005746: 11,2766           03766                           OCT      03766
005747: 11,2767           03767                           OCT      03767
005748: 11,2770           03770                           OCT      03770
005749: 11,2771           03771                           OCT      03771
005750: 11,2772           03772                           OCT      03772
005751: 11,2773           03773                           OCT      03773
005752: 11,2774           03774                           OCT      03774
005753: 11,2775           03775                           OCT      03775
005754: 11,2776           03776                           OCT      03776
005755: 11,2777           03777                           OCT      03777
005756: 11,3000           04000                           OCT      04000
005757: 11,3001           04001                           OCT      04001
005758: 11,3002           04002                           OCT      04002
005759: 11,3003           04003                           OCT      04003
005760: 11,3004           04004                           OCT      04004
005761: 11,3005           04005                           OCT      04005
005762: 11,3006           04006                           OCT      04006
005763: 11,3007           04007                           OCT      04007


005765: 11,3010           04010                           OCT      04010
005766: 11,3011           04011                           OCT      04011
005767: 11,3012           04012                           OCT      04012
005768: 11,3013           04013                           OCT      04013
005769: 11,3014           04014                           OCT      04014
005770: 11,3015           04015                           OCT      04015
005771: 11,3016           04016                           OCT      04016
005772: 11,3017           04017                           OCT      04017
005773: 11,3020           04020                           OCT      04020
005774: 11,3021           04021                           OCT      04021
005775: 11,3022           04022                           OCT      04022
005776: 11,3023           04023                           OCT      04023
005777: 11,3024           04024                           OCT      04024
005778: 11,3025           04025                           OCT      04025
005779: 11,3026           04026                           OCT      04026
005780: 11,3027           04027                           OCT      04027
005781: 11,3030           04030                           OCT      04030
005782: 11,3031           04031                           OCT      04031
005783: 11,3032           04032                           OCT      04032
005784: 11,3033           04033                           OCT      04033
005785: 11,3034           04034                           OCT      04034
005786: 11,3035           04035                           OCT      04035
005787: 11,3036           04036                           OCT      04036
005788: 11,3037           04037                           OCT      04037
005789: 11,3040           04040                           OCT      04040
005790: 11,3041           04041                           OCT      04041
005791: 11,3042           04042                           OCT      04042
005792: 11,3043           04043                           OCT      04043
005793: 11,3044           04044                           OCT      04044
005794: 11,3045           04045                           OCT      04045
005795: 11,3046           04046                           OCT      04046
005796: 11,3047           04047                           OCT      04047
005797: 11,3050           04050                           OCT      04050
005798: 11,3051           04051                           OCT      04051
005799: 11,3052           04052                           OCT      04052
005800: 11,3053           04053                           OCT      04053
005801: 11,3054           04054                           OCT      04054
005802: 11,3055           04055                           OCT      04055
005803: 11,3056           04056                           OCT      04056
005804: 11,3057           04057                           OCT      04057
005805: 11,3060           04060                           OCT      04060
005806: 11,3061           04061                           OCT      04061
005807: 11,3062           04062                           OCT      04062
005808: 11,3063           04063                           OCT      04063
005809: 11,3064           04064                           OCT      04064
005810: 11,3065           04065                           OCT      04065
005811: 11,3066           04066                           OCT      04066
005812: 11,3067           04067                           OCT      04067
005813: 11,3070           04070                           OCT      04070
005814: 11,3071           04071                           OCT      04071
005815: 11,3072           04072                           OCT      04072
005816: 11,3073           04073                           OCT      04073
005817: 11,3074           04074                           OCT      04074
005818: 11,3075           04075                           OCT      04075
005819: 11,3076           04076                           OCT      04076
005820: 11,3077           04077                           OCT      04077
005821: 11,3100           04100                           OCT      04100
005822: 11,3101           04101                           OCT      04101


005824: 11,3102           04102                           OCT      04102
005825: 11,3103           04103                           OCT      04103
005826: 11,3104           04104                           OCT      04104
005827: 11,3105           04105                           OCT      04105
005828: 11,3106           04106                           OCT      04106
005829: 11,3107           04107                           OCT      04107
005830: 11,3110           04110                           OCT      04110
005831: 11,3111           04111                           OCT      04111
005832: 11,3112           04112                           OCT      04112
005833: 11,3113           04113                           OCT      04113
005834: 11,3114           04114                           OCT      04114
005835: 11,3115           04115                           OCT      04115
005836: 11,3116           04116                           OCT      04116
005837: 11,3117           04117                           OCT      04117
005838: 11,3120           04120                           OCT      04120
005839: 11,3121           04121                           OCT      04121
005840: 11,3122           04122                           OCT      04122
005841: 11,3123           04123                           OCT      04123
005842: 11,3124           04124                           OCT      04124
005843: 11,3125           04125                           OCT      04125
005844: 11,3126           04126                           OCT      04126
005845: 11,3127           04127                           OCT      04127
005846: 11,3130           04130                           OCT      04130
005847: 11,3131           04131                           OCT      04131
005848: 11,3132           04132                           OCT      04132
005849: 11,3133           04133                           OCT      04133
005850: 11,3134           04134                           OCT      04134
005851: 11,3135           04135                           OCT      04135
005852: 11,3136           04136                           OCT      04136
005853: 11,3137           04137                           OCT      04137
005854: 11,3140           04140                           OCT      04140
005855: 11,3141           04141                           OCT      04141
005856: 11,3142           04142                           OCT      04142
005857: 11,3143           04143                           OCT      04143
005858: 11,3144           04144                           OCT      04144
005859: 11,3145           04145                           OCT      04145
005860: 11,3146           04146                           OCT      04146
005861: 11,3147           04147                           OCT      04147
005862: 11,3150           04150                           OCT      04150
005863: 11,3151           04151                           OCT      04151
005864: 11,3152           04152                           OCT      04152
005865: 11,3153           04153                           OCT      04153
005866: 11,3154           04154                           OCT      04154
005867: 11,3155           04155                           OCT      04155
005868: 11,3156           04156                           OCT      04156
005869: 11,3157           04157                           OCT      04157
005870: 11,3160           04160                           OCT      04160
005871: 11,3161           04161                           OCT      04161
005872: 11,3162           04162                           OCT      04162
005873: 11,3163           04163                           OCT      04163
005874: 11,3164           04164                           OCT      04164
005875: 11,3165           04165                           OCT      04165
005876: 11,3166           04166                           OCT      04166
005877: 11,3167           04167                           OCT      04167
005878: 11,3170           04170                           OCT      04170
005879: 11,3171           04171                           OCT      04171
005880: 11,3172           04172                           OCT      04172
005881: 11,3173           04173                           OCT      04173


005883: 11,3174           04174                           OCT      04174
005884: 11,3175           04175                           OCT      04175
005885: 11,3176           04176                           OCT      04176
005886: 11,3177           04177                           OCT      04177
005887: 11,3200           04200                           OCT      04200
005888: 11,3201           04201                           OCT      04201
005889: 11,3202           04202                           OCT      04202
005890: 11,3203           04203                           OCT      04203
005891: 11,3204           04204                           OCT      04204
005892: 11,3205           04205                           OCT      04205
005893: 11,3206           04206                           OCT      04206
005894: 11,3207           04207                           OCT      04207
005895: 11,3210           04210                           OCT      04210
005896: 11,3211           04211                           OCT      04211
005897: 11,3212           04212                           OCT      04212
005898: 11,3213           04213                           OCT      04213
005899: 11,3214           04214                           OCT      04214
005900: 11,3215           04215                           OCT      04215
005901: 11,3216           04216                           OCT      04216
005902: 11,3217           04217                           OCT      04217
005903: 11,3220           04220                           OCT      04220
005904: 11,3221           04221                           OCT      04221
005905: 11,3222           04222                           OCT      04222
005906: 11,3223           04223                           OCT      04223
005907: 11,3224           04224                           OCT      04224
005908: 11,3225           04225                           OCT      04225
005909: 11,3226           04226                           OCT      04226
005910: 11,3227           04227                           OCT      04227
005911: 11,3230           04230                           OCT      04230
005912: 11,3231           04231                           OCT      04231
005913: 11,3232           04232                           OCT      04232
005914: 11,3233           04233                           OCT      04233
005915: 11,3234           04234                           OCT      04234
005916: 11,3235           04235                           OCT      04235
005917: 11,3236           04236                           OCT      04236
005918: 11,3237           04237                           OCT      04237
005919: 11,3240           04240                           OCT      04240
005920: 11,3241           04241                           OCT      04241
005921: 11,3242           04242                           OCT      04242
005922: 11,3243           04243                           OCT      04243
005923: 11,3244           04244                           OCT      04244
005924: 11,3245           04245                           OCT      04245
005925: 11,3246           04246                           OCT      04246
005926: 11,3247           04247                           OCT      04247
005927: 11,3250           04250                           OCT      04250
005928: 11,3251           04251                           OCT      04251
005929: 11,3252           04252                           OCT      04252
005930: 11,3253           04253                           OCT      04253
005931: 11,3254           04254                           OCT      04254
005932: 11,3255           04255                           OCT      04255
005933: 11,3256           04256                           OCT      04256
005934: 11,3257           04257                           OCT      04257
005935: 11,3260           04260                           OCT      04260
005936: 11,3261           04261                           OCT      04261
005937: 11,3262           04262                           OCT      04262
005938: 11,3263           04263                           OCT      04263
005939: 11,3264           04264                           OCT      04264
005940: 11,3265           04265                           OCT      04265


005942: 11,3266           04266                           OCT      04266
005943: 11,3267           04267                           OCT      04267
005944: 11,3270           04270                           OCT      04270
005945: 11,3271           04271                           OCT      04271
005946: 11,3272           04272                           OCT      04272
005947: 11,3273           04273                           OCT      04273
005948: 11,3274           04274                           OCT      04274
005949: 11,3275           04275                           OCT      04275
005950: 11,3276           04276                           OCT      04276
005951: 11,3277           04277                           OCT      04277
005952: 11,3300           04300                           OCT      04300
005953: 11,3301           04301                           OCT      04301
005954: 11,3302           04302                           OCT      04302
005955: 11,3303           04303                           OCT      04303
005956: 11,3304           04304                           OCT      04304
005957: 11,3305           04305                           OCT      04305
005958: 11,3306           04306                           OCT      04306
005959: 11,3307           04307                           OCT      04307
005960: 11,3310           04310                           OCT      04310
005961: 11,3311           04311                           OCT      04311
005962: 11,3312           04312                           OCT      04312
005963: 11,3313           04313                           OCT      04313
005964: 11,3314           04314                           OCT      04314
005965: 11,3315           04315                           OCT      04315
005966: 11,3316           04316                           OCT      04316
005967: 11,3317           04317                           OCT      04317
005968: 11,3320           04320                           OCT      04320
005969: 11,3321           04321                           OCT      04321
005970: 11,3322           04322                           OCT      04322
005971: 11,3323           04323                           OCT      04323
005972: 11,3324           04324                           OCT      04324
005973: 11,3325           04325                           OCT      04325
005974: 11,3326           04326                           OCT      04326
005975: 11,3327           04327                           OCT      04327
005976: 11,3330           04330                           OCT      04330
005977: 11,3331           04331                           OCT      04331
005978: 11,3332           04332                           OCT      04332
005979: 11,3333           04333                           OCT      04333
005980: 11,3334           04334                           OCT      04334
005981: 11,3335           04335                           OCT      04335
005982: 11,3336           04336                           OCT      04336
005983: 11,3337           04337                           OCT      04337
005984: 11,3340           04340                           OCT      04340
005985: 11,3341           04341                           OCT      04341
005986: 11,3342           04342                           OCT      04342
005987: 11,3343           04343                           OCT      04343
005988: 11,3344           04344                           OCT      04344
005989: 11,3345           04345                           OCT      04345
005990: 11,3346           04346                           OCT      04346
005991: 11,3347           04347                           OCT      04347
005992: 11,3350           04350                           OCT      04350
005993: 11,3351           04351                           OCT      04351
005994: 11,3352           04352                           OCT      04352
005995: 11,3353           04353                           OCT      04353
005996: 11,3354           04354                           OCT      04354
005997: 11,3355           04355                           OCT      04355
005998: 11,3356           04356                           OCT      04356
005999: 11,3357           04357                           OCT      04357


006001: 11,3360           04360                           OCT      04360
006002: 11,3361           04361                           OCT      04361
006003: 11,3362           04362                           OCT      04362
006004: 11,3363           04363                           OCT      04363
006005: 11,3364           04364                           OCT      04364
006006: 11,3365           04365                           OCT      04365
006007: 11,3366           04366                           OCT      04366
006008: 11,3367           04367                           OCT      04367
006009: 11,3370           04370                           OCT      04370
006010: 11,3371           04371                           OCT      04371
006011: 11,3372           04372                           OCT      04372
006012: 11,3373           04373                           OCT      04373
006013: 11,3374           04374                           OCT      04374
006014: 11,3375           04375                           OCT      04375
006015: 11,3376           04376                           OCT      04376
006016: 11,3377           04377                           OCT      04377
006017: 11,3400           04400                           OCT      04400
006018: 11,3401           04401                           OCT      04401
006019: 11,3402           04402                           OCT      04402
006020: 11,3403           04403                           OCT      04403
006021: 11,3404           04404                           OCT      04404
006022: 11,3405           04405                           OCT      04405
006023: 11,3406           04406                           OCT      04406
006024: 11,3407           04407                           OCT      04407
006025: 11,3410           04410                           OCT      04410
006026: 11,3411           04411                           OCT      04411
006027: 11,3412           04412                           OCT      04412
006028: 11,3413           04413                           OCT      04413
006029: 11,3414           04414                           OCT      04414
006030: 11,3415           04415                           OCT      04415
006031: 11,3416           04416                           OCT      04416
006032: 11,3417           04417                           OCT      04417
006033: 11,3420           04420                           OCT      04420
006034: 11,3421           04421                           OCT      04421
006035: 11,3422           04422                           OCT      04422
006036: 11,3423           04423                           OCT      04423
006037: 11,3424           04424                           OCT      04424
006038: 11,3425           04425                           OCT      04425
006039: 11,3426           04426                           OCT      04426
006040: 11,3427           04427                           OCT      04427
006041: 11,3430           04430                           OCT      04430
006042: 11,3431           04431                           OCT      04431
006043: 11,3432           04432                           OCT      04432
006044: 11,3433           04433                           OCT      04433
006045: 11,3434           04434                           OCT      04434
006046: 11,3435           04435                           OCT      04435
006047: 11,3436           04436                           OCT      04436
006048: 11,3437           04437                           OCT      04437
006049: 11,3440           04440                           OCT      04440
006050: 11,3441           04441                           OCT      04441
006051: 11,3442           04442                           OCT      04442
006052: 11,3443           04443                           OCT      04443
006053: 11,3444           04444                           OCT      04444
006054: 11,3445           04445                           OCT      04445
006055: 11,3446           04446                           OCT      04446
006056: 11,3447           04447                           OCT      04447
006057: 11,3450           04450                           OCT      04450
006058: 11,3451           04451                           OCT      04451


006060: 11,3452           04452                           OCT      04452
006061: 11,3453           04453                           OCT      04453
006062: 11,3454           04454                           OCT      04454
006063: 11,3455           04455                           OCT      04455
006064: 11,3456           04456                           OCT      04456
006065: 11,3457           04457                           OCT      04457
006066: 11,3460           04460                           OCT      04460
006067: 11,3461           04461                           OCT      04461
006068: 11,3462           04462                           OCT      04462
006069: 11,3463           04463                           OCT      04463
006070: 11,3464           04464                           OCT      04464
006071: 11,3465           04465                           OCT      04465
006072: 11,3466           04466                           OCT      04466
006073: 11,3467           04467                           OCT      04467
006074: 11,3470           04470                           OCT      04470
006075: 11,3471           04471                           OCT      04471
006076: 11,3472           04472                           OCT      04472
006077: 11,3473           04473                           OCT      04473
006078: 11,3474           04474                           OCT      04474
006079: 11,3475           04475                           OCT      04475
006080: 11,3476           04476                           OCT      04476
006081: 11,3477           04477                           OCT      04477
006082: 11,3500           04500                           OCT      04500
006083: 11,3501           04501                           OCT      04501
006084: 11,3502           04502                           OCT      04502
006085: 11,3503           04503                           OCT      04503
006086: 11,3504           04504                           OCT      04504
006087: 11,3505           04505                           OCT      04505
006088: 11,3506           04506                           OCT      04506
006089: 11,3507           04507                           OCT      04507
006090: 11,3510           04510                           OCT      04510
006091: 11,3511           04511                           OCT      04511
006092: 11,3512           04512                           OCT      04512
006093: 11,3513           04513                           OCT      04513
006094: 11,3514           04514                           OCT      04514
006095: 11,3515           04515                           OCT      04515
006096: 11,3516           04516                           OCT      04516
006097: 11,3517           04517                           OCT      04517
006098: 11,3520           04520                           OCT      04520
006099: 11,3521           04521                           OCT      04521
006100: 11,3522           04522                           OCT      04522
006101: 11,3523           04523                           OCT      04523
006102: 11,3524           04524                           OCT      04524
006103: 11,3525           04525                           OCT      04525
006104: 11,3526           04526                           OCT      04526
006105: 11,3527           04527                           OCT      04527
006106: 11,3530           04530                           OCT      04530
006107: 11,3531           04531                           OCT      04531
006108: 11,3532           04532                           OCT      04532
006109: 11,3533           04533                           OCT      04533
006110: 11,3534           04534                           OCT      04534
006111: 11,3535           04535                           OCT      04535
006112: 11,3536           04536                           OCT      04536
006113: 11,3537           04537                           OCT      04537
006114: 11,3540           04540                           OCT      04540
006115: 11,3541           04541                           OCT      04541
006116: 11,3542           04542                           OCT      04542
006117: 11,3543           04543                           OCT      04543


006119: 11,3544           04544                           OCT      04544
006120: 11,3545           04545                           OCT      04545
006121: 11,3546           04546                           OCT      04546
006122: 11,3547           04547                           OCT      04547
006123: 11,3550           04550                           OCT      04550
006124: 11,3551           04551                           OCT      04551
006125: 11,3552           04552                           OCT      04552
006126: 11,3553           04553                           OCT      04553
006127: 11,3554           04554                           OCT      04554
006128: 11,3555           04555                           OCT      04555
006129: 11,3556           04556                           OCT      04556
006130: 11,3557           04557                           OCT      04557
006131: 11,3560           04560                           OCT      04560
006132: 11,3561           04561                           OCT      04561
006133: 11,3562           04562                           OCT      04562
006134: 11,3563           04563                           OCT      04563
006135: 11,3564           04564                           OCT      04564
006136: 11,3565           04565                           OCT      04565
006137: 11,3566           04566                           OCT      04566
006138: 11,3567           04567                           OCT      04567
006139: 11,3570           04570                           OCT      04570
006140: 11,3571           04571                           OCT      04571
006141: 11,3572           04572                           OCT      04572
006142: 11,3573           04573                           OCT      04573
006143: 11,3574           04574                           OCT      04574
006144: 11,3575           04575                           OCT      04575
006145: 11,3576           04576                           OCT      04576
006146: 11,3577           04577                           OCT      04577
006147: 11,3600           04600                           OCT      04600
006148: 11,3601           04601                           OCT      04601
006149: 11,3602           04602                           OCT      04602
006150: 11,3603           04603                           OCT      04603
006151: 11,3604           04604                           OCT      04604
006152: 11,3605           04605                           OCT      04605
006153: 11,3606           04606                           OCT      04606
006154: 11,3607           04607                           OCT      04607
006155: 11,3610           04610                           OCT      04610
006156: 11,3611           04611                           OCT      04611
006157: 11,3612           04612                           OCT      04612
006158: 11,3613           04613                           OCT      04613
006159: 11,3614           04614                           OCT      04614
006160: 11,3615           04615                           OCT      04615
006161: 11,3616           04616                           OCT      04616
006162: 11,3617           04617                           OCT      04617
006163: 11,3620           04620                           OCT      04620
006164: 11,3621           04621                           OCT      04621
006165: 11,3622           04622                           OCT      04622
006166: 11,3623           04623                           OCT      04623
006167: 11,3624           04624                           OCT      04624
006168: 11,3625           04625                           OCT      04625
006169: 11,3626           04626                           OCT      04626
006170: 11,3627           04627                           OCT      04627
006171: 11,3630           04630                           OCT      04630
006172: 11,3631           04631                           OCT      04631
006173: 11,3632           04632                           OCT      04632
006174: 11,3633           04633                           OCT      04633
006175: 11,3634           04634                           OCT      04634
006176: 11,3635           04635                           OCT      04635


006178: 11,3636           04636                           OCT      04636
006179: 11,3637           04637                           OCT      04637
006180: 11,3640           04640                           OCT      04640
006181: 11,3641           04641                           OCT      04641
006182: 11,3642           04642                           OCT      04642
006183: 11,3643           04643                           OCT      04643
006184: 11,3644           04644                           OCT      04644
006185: 11,3645           04645                           OCT      04645
006186: 11,3646           04646                           OCT      04646
006187: 11,3647           04647                           OCT      04647
006188: 11,3650           04650                           OCT      04650
006189: 11,3651           04651                           OCT      04651
006190: 11,3652           04652                           OCT      04652
006191: 11,3653           04653                           OCT      04653
006192: 11,3654           04654                           OCT      04654
006193: 11,3655           04655                           OCT      04655
006194: 11,3656           04656                           OCT      04656
006195: 11,3657           04657                           OCT      04657
006196: 11,3660           04660                           OCT      04660
006197: 11,3661           04661                           OCT      04661
006198: 11,3662           04662                           OCT      04662
006199: 11,3663           04663                           OCT      04663
006200: 11,3664           04664                           OCT      04664
006201: 11,3665           04665                           OCT      04665
006202: 11,3666           04666                           OCT      04666
006203: 11,3667           04667                           OCT      04667
006204: 11,3670           04670                           OCT      04670
006205: 11,3671           04671                           OCT      04671
006206: 11,3672           04672                           OCT      04672
006207: 11,3673           04673                           OCT      04673
006208: 11,3674           04674                           OCT      04674
006209: 11,3675           04675                           OCT      04675
006210: 11,3676           04676                           OCT      04676
006211: 11,3677           04677                           OCT      04677
006212: 11,3700           04700                           OCT      04700
006213: 11,3701           04701                           OCT      04701
006214: 11,3702           04702                           OCT      04702
006215: 11,3703           04703                           OCT      04703
006216: 11,3704           04704                           OCT      04704
006217: 11,3705           04705                           OCT      04705
006218: 11,3706           04706                           OCT      04706
006219: 11,3707           04707                           OCT      04707
006220: 11,3710           04710                           OCT      04710
006221: 11,3711           04711                           OCT      04711
006222: 11,3712           04712                           OCT      04712
006223: 11,3713           04713                           OCT      04713
006224: 11,3714           04714                           OCT      04714
006225: 11,3715           04715                           OCT      04715
006226: 11,3716           04716                           OCT      04716
006227: 11,3717           04717                           OCT      04717
006228: 11,3720           04720                           OCT      04720
006229: 11,3721           04721                           OCT      04721
006230: 11,3722           04722                           OCT      04722
006231: 11,3723           04723                           OCT      04723
006232: 11,3724           04724                           OCT      04724
006233: 11,3725           04725                           OCT      04725
006234: 11,3726           04726                           OCT      04726
006235: 11,3727           04727                           OCT      04727


006237: 11,3730           04730                           OCT      04730
006238: 11,3731           04731                           OCT      04731
006239: 11,3732           04732                           OCT      04732
006240: 11,3733           04733                           OCT      04733
006241: 11,3734           04734                           OCT      04734
006242: 11,3735           04735                           OCT      04735
006243: 11,3736           04736                           OCT      04736
006244: 11,3737           04737                           OCT      04737
006245: 11,3740           04740                           OCT      04740
006246: 11,3741           04741                           OCT      04741
006247: 11,3742           04742                           OCT      04742
006248: 11,3743           04743                           OCT      04743
006249: 11,3744           04744                           OCT      04744
006250: 11,3745           04745                           OCT      04745
006251: 11,3746           04746                           OCT      04746
006252: 11,3747           04747                           OCT      04747
006253: 11,3750           04750                           OCT      04750
006254: 11,3751           04751                           OCT      04751
006255: 11,3752           04752                           OCT      04752
006256: 11,3753           04753                           OCT      04753
006257: 11,3754           04754                           OCT      04754
006258: 11,3755           04755                           OCT      04755
006259: 11,3756           04756                           OCT      04756
006260: 11,3757           04757                           OCT      04757
006261: 11,3760           04760                           OCT      04760
006262: 11,3761           04761                           OCT      04761
006263: 11,3762           04762                           OCT      04762
006264: 11,3763           04763                           OCT      04763
006265: 11,3764           04764                           OCT      04764
006266: 11,3765           04765                           OCT      04765
006267: 11,3766           04766                           OCT      04766
006268: 11,3767           04767                           OCT      04767
006269: 11,3770           04770                           OCT      04770
006270: 11,3771           04771                           OCT      04771
006271: 11,3772           04772                           OCT      04772
006272: 11,3773           04773                           OCT      04773
006273: 11,3774           04774                           OCT      04774
006274: 11,3775           04775                           OCT      04775
006275: 11,3776           04776                           OCT      04776
Warning:  Next code may overflow storage.
006276: 11,3777           04777                           OCT      04777
006277: 12,2000                                           SETLOC   CF122000
006278: 12,2000           51010                           OCT      51010
006279: 12,2001           00001                           OCT      00001
006280: 12,2002           00002                           OCT      00002
006281: 12,2003           00003                           OCT      00003
006282: 12,2004           00004                           OCT      00004
006283: 12,2005           00005                           OCT      00005
006284: 12,2006           00006                           OCT      00006
006285: 12,2007           00007                           OCT      00007
006286: 12,2010           00010                           OCT      00010
006287: 12,2011           00011                           OCT      00011
006288: 12,2012           00012                           OCT      00012
006289: 12,2013           00013                           OCT      00013
006290: 12,2014           00014                           OCT      00014
006291: 12,2015           00015                           OCT      00015
006292: 12,2016           00016                           OCT      00016
006293: 12,2017           00017                           OCT      00017
006294: 12,2020           00020                           OCT      00020


006296: 12,2021           00021                           OCT      00021
006297: 12,2022           00022                           OCT      00022
006298: 12,2023           00023                           OCT      00023
006299: 12,2024           00024                           OCT      00024
006300: 12,2025           00025                           OCT      00025
006301: 12,2026           00026                           OCT      00026
006302: 12,2027           00027                           OCT      00027
006303: 12,2030           00030                           OCT      00030
006304: 12,2031           00031                           OCT      00031
006305: 12,2032           00032                           OCT      00032
006306: 12,2033           00033                           OCT      00033
006307: 12,2034           00034                           OCT      00034
006308: 12,2035           00035                           OCT      00035
006309: 12,2036           00036                           OCT      00036
006310: 12,2037           00037                           OCT      00037
006311: 12,2040           00040                           OCT      00040
006312: 12,2041           00041                           OCT      00041
006313: 12,2042           00042                           OCT      00042
006314: 12,2043           00043                           OCT      00043
006315: 12,2044           00044                           OCT      00044
006316: 12,2045           00045                           OCT      00045
006317: 12,2046           00046                           OCT      00046
006318: 12,2047           00047                           OCT      00047
006319: 12,2050           00050                           OCT      00050
006320: 12,2051           00051                           OCT      00051
006321: 12,2052           00052                           OCT      00052
006322: 12,2053           00053                           OCT      00053
006323: 12,2054           00054                           OCT      00054
006324: 12,2055           00055                           OCT      00055
006325: 12,2056           00056                           OCT      00056
006326: 12,2057           00057                           OCT      00057
006327: 12,2060           00060                           OCT      00060
006328: 12,2061           00061                           OCT      00061
006329: 12,2062           00062                           OCT      00062
006330: 12,2063           00063                           OCT      00063
006331: 12,2064           00064                           OCT      00064
006332: 12,2065           00065                           OCT      00065
006333: 12,2066           00066                           OCT      00066
006334: 12,2067           00067                           OCT      00067
006335: 12,2070           00070                           OCT      00070
006336: 12,2071           00071                           OCT      00071
006337: 12,2072           00072                           OCT      00072
006338: 12,2073           00073                           OCT      00073
006339: 12,2074           00074                           OCT      00074
006340: 12,2075           00075                           OCT      00075
006341: 12,2076           00076                           OCT      00076
006342: 12,2077           00077                           OCT      00077
006343: 12,2100           00100                           OCT      00100
006344: 12,2101           00101                           OCT      00101
006345: 12,2102           00102                           OCT      00102
006346: 12,2103           00103                           OCT      00103
006347: 12,2104           00104                           OCT      00104
006348: 12,2105           00105                           OCT      00105
006349: 12,2106           00106                           OCT      00106
006350: 12,2107           00107                           OCT      00107
006351: 12,2110           00110                           OCT      00110
006352: 12,2111           00111                           OCT      00111
006353: 12,2112           00112                           OCT      00112


006355: 12,2113           00113                           OCT      00113
006356: 12,2114           00114                           OCT      00114
006357: 12,2115           00115                           OCT      00115
006358: 12,2116           00116                           OCT      00116
006359: 12,2117           00117                           OCT      00117
006360: 12,2120           00120                           OCT      00120
006361: 12,2121           00121                           OCT      00121
006362: 12,2122           00122                           OCT      00122
006363: 12,2123           00123                           OCT      00123
006364: 12,2124           00124                           OCT      00124
006365: 12,2125           00125                           OCT      00125
006366: 12,2126           00126                           OCT      00126
006367: 12,2127           00127                           OCT      00127
006368: 12,2130           00130                           OCT      00130
006369: 12,2131           00131                           OCT      00131
006370: 12,2132           00132                           OCT      00132
006371: 12,2133           00133                           OCT      00133
006372: 12,2134           00134                           OCT      00134
006373: 12,2135           00135                           OCT      00135
006374: 12,2136           00136                           OCT      00136
006375: 12,2137           00137                           OCT      00137
006376: 12,2140           00140                           OCT      00140
006377: 12,2141           00141                           OCT      00141
006378: 12,2142           00142                           OCT      00142
006379: 12,2143           00143                           OCT      00143
006380: 12,2144           00144                           OCT      00144
006381: 12,2145           00145                           OCT      00145
006382: 12,2146           00146                           OCT      00146
006383: 12,2147           00147                           OCT      00147
006384: 12,2150           00150                           OCT      00150
006385: 12,2151           00151                           OCT      00151
006386: 12,2152           00152                           OCT      00152
006387: 12,2153           00153                           OCT      00153
006388: 12,2154           00154                           OCT      00154
006389: 12,2155           00155                           OCT      00155
006390: 12,2156           00156                           OCT      00156
006391: 12,2157           00157                           OCT      00157
006392: 12,2160           00160                           OCT      00160
006393: 12,2161           00161                           OCT      00161
006394: 12,2162           00162                           OCT      00162
006395: 12,2163           00163                           OCT      00163
006396: 12,2164           00164                           OCT      00164
006397: 12,2165           00165                           OCT      00165
006398: 12,2166           00166                           OCT      00166
006399: 12,2167           00167                           OCT      00167
006400: 12,2170           00170                           OCT      00170
006401: 12,2171           00171                           OCT      00171
006402: 12,2172           00172                           OCT      00172
006403: 12,2173           00173                           OCT      00173
006404: 12,2174           00174                           OCT      00174
006405: 12,2175           00175                           OCT      00175
006406: 12,2176           00176                           OCT      00176
006407: 12,2177           00177                           OCT      00177
006408: 12,2200           00200                           OCT      00200
006409: 12,2201           00201                           OCT      00201
006410: 12,2202           00202                           OCT      00202
006411: 12,2203           00203                           OCT      00203
006412: 12,2204           00204                           OCT      00204


006414: 12,2205           00205                           OCT      00205
006415: 12,2206           00206                           OCT      00206
006416: 12,2207           00207                           OCT      00207
006417: 12,2210           00210                           OCT      00210
006418: 12,2211           00211                           OCT      00211
006419: 12,2212           00212                           OCT      00212
006420: 12,2213           00213                           OCT      00213
006421: 12,2214           00214                           OCT      00214
006422: 12,2215           00215                           OCT      00215
006423: 12,2216           00216                           OCT      00216
006424: 12,2217           00217                           OCT      00217
006425: 12,2220           00220                           OCT      00220
006426: 12,2221           00221                           OCT      00221
006427: 12,2222           00222                           OCT      00222
006428: 12,2223           00223                           OCT      00223
006429: 12,2224           00224                           OCT      00224
006430: 12,2225           00225                           OCT      00225
006431: 12,2226           00226                           OCT      00226
006432: 12,2227           00227                           OCT      00227
006433: 12,2230           00230                           OCT      00230
006434: 12,2231           00231                           OCT      00231
006435: 12,2232           00232                           OCT      00232
006436: 12,2233           00233                           OCT      00233
006437: 12,2234           00234                           OCT      00234
006438: 12,2235           00235                           OCT      00235
006439: 12,2236           00236                           OCT      00236
006440: 12,2237           00237                           OCT      00237
006441: 12,2240           00240                           OCT      00240
006442: 12,2241           00241                           OCT      00241
006443: 12,2242           00242                           OCT      00242
006444: 12,2243           00243                           OCT      00243
006445: 12,2244           00244                           OCT      00244
006446: 12,2245           00245                           OCT      00245
006447: 12,2246           00246                           OCT      00246
006448: 12,2247           00247                           OCT      00247
006449: 12,2250           00250                           OCT      00250
006450: 12,2251           00251                           OCT      00251
006451: 12,2252           00252                           OCT      00252
006452: 12,2253           00253                           OCT      00253
006453: 12,2254           00254                           OCT      00254
006454: 12,2255           00255                           OCT      00255
006455: 12,2256           00256                           OCT      00256
006456: 12,2257           00257                           OCT      00257
006457: 12,2260           00260                           OCT      00260
006458: 12,2261           00261                           OCT      00261
006459: 12,2262           00262                           OCT      00262
006460: 12,2263           00263                           OCT      00263
006461: 12,2264           00264                           OCT      00264
006462: 12,2265           00265                           OCT      00265
006463: 12,2266           00266                           OCT      00266
006464: 12,2267           00267                           OCT      00267
006465: 12,2270           00270                           OCT      00270
006466: 12,2271           00271                           OCT      00271
006467: 12,2272           00272                           OCT      00272
006468: 12,2273           00273                           OCT      00273
006469: 12,2274           00274                           OCT      00274
006470: 12,2275           00275                           OCT      00275
006471: 12,2276           00276                           OCT      00276


006473: 12,2277           00277                           OCT      00277
006474: 12,2300           00300                           OCT      00300
006475: 12,2301           00301                           OCT      00301
006476: 12,2302           00302                           OCT      00302
006477: 12,2303           00303                           OCT      00303
006478: 12,2304           00304                           OCT      00304
006479: 12,2305           00305                           OCT      00305
006480: 12,2306           00306                           OCT      00306
006481: 12,2307           00307                           OCT      00307
006482: 12,2310           00310                           OCT      00310
006483: 12,2311           00311                           OCT      00311
006484: 12,2312           00312                           OCT      00312
006485: 12,2313           00313                           OCT      00313
006486: 12,2314           00314                           OCT      00314
006487: 12,2315           00315                           OCT      00315
006488: 12,2316           00316                           OCT      00316
006489: 12,2317           00317                           OCT      00317
006490: 12,2320           00320                           OCT      00320
006491: 12,2321           00321                           OCT      00321
006492: 12,2322           00322                           OCT      00322
006493: 12,2323           00323                           OCT      00323
006494: 12,2324           00324                           OCT      00324
006495: 12,2325           00325                           OCT      00325
006496: 12,2326           00326                           OCT      00326
006497: 12,2327           00327                           OCT      00327
006498: 12,2330           00330                           OCT      00330
006499: 12,2331           00331                           OCT      00331
006500: 12,2332           00332                           OCT      00332
006501: 12,2333           00333                           OCT      00333
006502: 12,2334           00334                           OCT      00334
006503: 12,2335           00335                           OCT      00335
006504: 12,2336           00336                           OCT      00336
006505: 12,2337           00337                           OCT      00337
006506: 12,2340           00340                           OCT      00340
006507: 12,2341           00341                           OCT      00341
006508: 12,2342           00342                           OCT      00342
006509: 12,2343           00343                           OCT      00343
006510: 12,2344           00344                           OCT      00344
006511: 12,2345           00345                           OCT      00345
006512: 12,2346           00346                           OCT      00346
006513: 12,2347           00347                           OCT      00347
006514: 12,2350           00350                           OCT      00350
006515: 12,2351           00351                           OCT      00351
006516: 12,2352           00352                           OCT      00352
006517: 12,2353           00353                           OCT      00353
006518: 12,2354           00354                           OCT      00354
006519: 12,2355           00355                           OCT      00355
006520: 12,2356           00356                           OCT      00356
006521: 12,2357           00357                           OCT      00357
006522: 12,2360           00360                           OCT      00360
006523: 12,2361           00361                           OCT      00361
006524: 12,2362           00362                           OCT      00362
006525: 12,2363           00363                           OCT      00363
006526: 12,2364           00364                           OCT      00364
006527: 12,2365           00365                           OCT      00365
006528: 12,2366           00366                           OCT      00366
006529: 12,2367           00367                           OCT      00367
006530: 12,2370           00370                           OCT      00370


006532: 12,2371           00371                           OCT      00371
006533: 12,2372           00372                           OCT      00372
006534: 12,2373           00373                           OCT      00373
006535: 12,2374           00374                           OCT      00374
006536: 12,2375           00375                           OCT      00375
006537: 12,2376           00376                           OCT      00376
006538: 12,2377           00377                           OCT      00377
006539: 12,2400           00400                           OCT      00400
006540: 12,2401           00401                           OCT      00401
006541: 12,2402           00402                           OCT      00402
006542: 12,2403           00403                           OCT      00403
006543: 12,2404           00404                           OCT      00404
006544: 12,2405           00405                           OCT      00405
006545: 12,2406           00406                           OCT      00406
006546: 12,2407           00407                           OCT      00407
006547: 12,2410           00410                           OCT      00410
006548: 12,2411           00411                           OCT      00411
006549: 12,2412           00412                           OCT      00412
006550: 12,2413           00413                           OCT      00413
006551: 12,2414           00414                           OCT      00414
006552: 12,2415           00415                           OCT      00415
006553: 12,2416           00416                           OCT      00416
006554: 12,2417           00417                           OCT      00417
006555: 12,2420           00420                           OCT      00420
006556: 12,2421           00421                           OCT      00421
006557: 12,2422           00422                           OCT      00422
006558: 12,2423           00423                           OCT      00423
006559: 12,2424           00424                           OCT      00424
006560: 12,2425           00425                           OCT      00425
006561: 12,2426           00426                           OCT      00426
006562: 12,2427           00427                           OCT      00427
006563: 12,2430           00430                           OCT      00430
006564: 12,2431           00431                           OCT      00431
006565: 12,2432           00432                           OCT      00432
006566: 12,2433           00433                           OCT      00433
006567: 12,2434           00434                           OCT      00434
006568: 12,2435           00435                           OCT      00435
006569: 12,2436           00436                           OCT      00436
006570: 12,2437           00437                           OCT      00437
006571: 12,2440           00440                           OCT      00440
006572: 12,2441           00441                           OCT      00441
006573: 12,2442           00442                           OCT      00442
006574: 12,2443           00443                           OCT      00443
006575: 12,2444           00444                           OCT      00444
006576: 12,2445           00445                           OCT      00445
006577: 12,2446           00446                           OCT      00446
006578: 12,2447           00447                           OCT      00447
006579: 12,2450           00450                           OCT      00450
006580: 12,2451           00451                           OCT      00451
006581: 12,2452           00452                           OCT      00452
006582: 12,2453           00453                           OCT      00453
006583: 12,2454           00454                           OCT      00454
006584: 12,2455           00455                           OCT      00455
006585: 12,2456           00456                           OCT      00456
006586: 12,2457           00457                           OCT      00457
006587: 12,2460           00460                           OCT      00460
006588: 12,2461           00461                           OCT      00461
006589: 12,2462           00462                           OCT      00462


006591: 12,2463           00463                           OCT      00463
006592: 12,2464           00464                           OCT      00464
006593: 12,2465           00465                           OCT      00465
006594: 12,2466           00466                           OCT      00466
006595: 12,2467           00467                           OCT      00467
006596: 12,2470           00470                           OCT      00470
006597: 12,2471           00471                           OCT      00471
006598: 12,2472           00472                           OCT      00472
006599: 12,2473           00473                           OCT      00473
006600: 12,2474           00474                           OCT      00474
006601: 12,2475           00475                           OCT      00475
006602: 12,2476           00476                           OCT      00476
006603: 12,2477           00477                           OCT      00477
006604: 12,2500           00500                           OCT      00500
006605: 12,2501           00501                           OCT      00501
006606: 12,2502           00502                           OCT      00502
006607: 12,2503           00503                           OCT      00503
006608: 12,2504           00504                           OCT      00504
006609: 12,2505           00505                           OCT      00505
006610: 12,2506           00506                           OCT      00506
006611: 12,2507           00507                           OCT      00507
006612: 12,2510           00510                           OCT      00510
006613: 12,2511           00511                           OCT      00511
006614: 12,2512           00512                           OCT      00512
006615: 12,2513           00513                           OCT      00513
006616: 12,2514           00514                           OCT      00514
006617: 12,2515           00515                           OCT      00515
006618: 12,2516           00516                           OCT      00516
006619: 12,2517           00517                           OCT      00517
006620: 12,2520           00520                           OCT      00520
006621: 12,2521           00521                           OCT      00521
006622: 12,2522           00522                           OCT      00522
006623: 12,2523           00523                           OCT      00523
006624: 12,2524           00524                           OCT      00524
006625: 12,2525           00525                           OCT      00525
006626: 12,2526           00526                           OCT      00526
006627: 12,2527           00527                           OCT      00527
006628: 12,2530           00530                           OCT      00530
006629: 12,2531           00531                           OCT      00531
006630: 12,2532           00532                           OCT      00532
006631: 12,2533           00533                           OCT      00533
006632: 12,2534           00534                           OCT      00534
006633: 12,2535           00535                           OCT      00535
006634: 12,2536           00536                           OCT      00536
006635: 12,2537           00537                           OCT      00537
006636: 12,2540           00540                           OCT      00540
006637: 12,2541           00541                           OCT      00541
006638: 12,2542           00542                           OCT      00542
006639: 12,2543           00543                           OCT      00543
006640: 12,2544           00544                           OCT      00544
006641: 12,2545           00545                           OCT      00545
006642: 12,2546           00546                           OCT      00546
006643: 12,2547           00547                           OCT      00547
006644: 12,2550           00550                           OCT      00550
006645: 12,2551           00551                           OCT      00551
006646: 12,2552           00552                           OCT      00552
006647: 12,2553           00553                           OCT      00553
006648: 12,2554           00554                           OCT      00554


006650: 12,2555           00555                           OCT      00555
006651: 12,2556           00556                           OCT      00556
006652: 12,2557           00557                           OCT      00557
006653: 12,2560           00560                           OCT      00560
006654: 12,2561           00561                           OCT      00561
006655: 12,2562           00562                           OCT      00562
006656: 12,2563           00563                           OCT      00563
006657: 12,2564           00564                           OCT      00564
006658: 12,2565           00565                           OCT      00565
006659: 12,2566           00566                           OCT      00566
006660: 12,2567           00567                           OCT      00567
006661: 12,2570           00570                           OCT      00570
006662: 12,2571           00571                           OCT      00571
006663: 12,2572           00572                           OCT      00572
006664: 12,2573           00573                           OCT      00573
006665: 12,2574           00574                           OCT      00574
006666: 12,2575           00575                           OCT      00575
006667: 12,2576           00576                           OCT      00576
006668: 12,2577           00577                           OCT      00577
006669: 12,2600           00600                           OCT      00600
006670: 12,2601           00601                           OCT      00601
006671: 12,2602           00602                           OCT      00602
006672: 12,2603           00603                           OCT      00603
006673: 12,2604           00604                           OCT      00604
006674: 12,2605           00605                           OCT      00605
006675: 12,2606           00606                           OCT      00606
006676: 12,2607           00607                           OCT      00607
006677: 12,2610           00610                           OCT      00610
006678: 12,2611           00611                           OCT      00611
006679: 12,2612           00612                           OCT      00612
006680: 12,2613           00613                           OCT      00613
006681: 12,2614           00614                           OCT      00614
006682: 12,2615           00615                           OCT      00615
006683: 12,2616           00616                           OCT      00616
006684: 12,2617           00617                           OCT      00617
006685: 12,2620           00620                           OCT      00620
006686: 12,2621           00621                           OCT      00621
006687: 12,2622           00622                           OCT      00622
006688: 12,2623           00623                           OCT      00623
006689: 12,2624           00624                           OCT      00624
006690: 12,2625           00625                           OCT      00625
006691: 12,2626           00626                           OCT      00626
006692: 12,2627           00627                           OCT      00627
006693: 12,2630           00630                           OCT      00630
006694: 12,2631           00631                           OCT      00631
006695: 12,2632           00632                           OCT      00632
006696: 12,2633           00633                           OCT      00633
006697: 12,2634           00634                           OCT      00634
006698: 12,2635           00635                           OCT      00635
006699: 12,2636           00636                           OCT      00636
006700: 12,2637           00637                           OCT      00637
006701: 12,2640           00640                           OCT      00640
006702: 12,2641           00641                           OCT      00641
006703: 12,2642           00642                           OCT      00642
006704: 12,2643           00643                           OCT      00643
006705: 12,2644           00644                           OCT      00644
006706: 12,2645           00645                           OCT      00645
006707: 12,2646           00646                           OCT      00646


006709: 12,2647           00647                           OCT      00647
006710: 12,2650           00650                           OCT      00650
006711: 12,2651           00651                           OCT      00651
006712: 12,2652           00652                           OCT      00652
006713: 12,2653           00653                           OCT      00653
006714: 12,2654           00654                           OCT      00654
006715: 12,2655           00655                           OCT      00655
006716: 12,2656           00656                           OCT      00656
006717: 12,2657           00657                           OCT      00657
006718: 12,2660           00660                           OCT      00660
006719: 12,2661           00661                           OCT      00661
006720: 12,2662           00662                           OCT      00662
006721: 12,2663           00663                           OCT      00663
006722: 12,2664           00664                           OCT      00664
006723: 12,2665           00665                           OCT      00665
006724: 12,2666           00666                           OCT      00666
006725: 12,2667           00667                           OCT      00667
006726: 12,2670           00670                           OCT      00670
006727: 12,2671           00671                           OCT      00671
006728: 12,2672           00672                           OCT      00672
006729: 12,2673           00673                           OCT      00673
006730: 12,2674           00674                           OCT      00674
006731: 12,2675           00675                           OCT      00675
006732: 12,2676           00676                           OCT      00676
006733: 12,2677           00677                           OCT      00677
006734: 12,2700           00700                           OCT      00700
006735: 12,2701           00701                           OCT      00701
006736: 12,2702           00702                           OCT      00702
006737: 12,2703           00703                           OCT      00703
006738: 12,2704           00704                           OCT      00704
006739: 12,2705           00705                           OCT      00705
006740: 12,2706           00706                           OCT      00706
006741: 12,2707           00707                           OCT      00707
006742: 12,2710           00710                           OCT      00710
006743: 12,2711           00711                           OCT      00711
006744: 12,2712           00712                           OCT      00712
006745: 12,2713           00713                           OCT      00713
006746: 12,2714           00714                           OCT      00714
006747: 12,2715           00715                           OCT      00715
006748: 12,2716           00716                           OCT      00716
006749: 12,2717           00717                           OCT      00717
006750: 12,2720           00720                           OCT      00720
006751: 12,2721           00721                           OCT      00721
006752: 12,2722           00722                           OCT      00722
006753: 12,2723           00723                           OCT      00723
006754: 12,2724           00724                           OCT      00724
006755: 12,2725           00725                           OCT      00725
006756: 12,2726           00726                           OCT      00726
006757: 12,2727           00727                           OCT      00727
006758: 12,2730           00730                           OCT      00730
006759: 12,2731           00731                           OCT      00731
006760: 12,2732           00732                           OCT      00732
006761: 12,2733           00733                           OCT      00733
006762: 12,2734           00734                           OCT      00734
006763: 12,2735           00735                           OCT      00735
006764: 12,2736           00736                           OCT      00736
006765: 12,2737           00737                           OCT      00737
006766: 12,2740           00740                           OCT      00740


006768: 12,2741           00741                           OCT      00741
006769: 12,2742           00742                           OCT      00742
006770: 12,2743           00743                           OCT      00743
006771: 12,2744           00744                           OCT      00744
006772: 12,2745           00745                           OCT      00745
006773: 12,2746           00746                           OCT      00746
006774: 12,2747           00747                           OCT      00747
006775: 12,2750           00750                           OCT      00750
006776: 12,2751           00751                           OCT      00751
006777: 12,2752           00752                           OCT      00752
006778: 12,2753           00753                           OCT      00753
006779: 12,2754           00754                           OCT      00754
006780: 12,2755           00755                           OCT      00755
006781: 12,2756           00756                           OCT      00756
006782: 12,2757           00757                           OCT      00757
006783: 12,2760           00760                           OCT      00760
006784: 12,2761           00761                           OCT      00761
006785: 12,2762           00762                           OCT      00762
006786: 12,2763           00763                           OCT      00763
006787: 12,2764           00764                           OCT      00764
006788: 12,2765           00765                           OCT      00765
006789: 12,2766           00766                           OCT      00766
006790: 12,2767           00767                           OCT      00767
006791: 12,2770           00770                           OCT      00770
006792: 12,2771           00771                           OCT      00771
006793: 12,2772           00772                           OCT      00772
006794: 12,2773           00773                           OCT      00773
006795: 12,2774           00774                           OCT      00774
006796: 12,2775           00775                           OCT      00775
006797: 12,2776           00776                           OCT      00776
006798: 12,2777           00777                           OCT      00777
006799: 12,3000           01000                           OCT      01000
006800: 12,3001           01001                           OCT      01001
006801: 12,3002           01002                           OCT      01002
006802: 12,3003           01003                           OCT      01003
006803: 12,3004           01004                           OCT      01004
006804: 12,3005           01005                           OCT      01005
006805: 12,3006           01006                           OCT      01006
006806: 12,3007           01007                           OCT      01007
006807: 12,3010           01010                           OCT      01010
006808: 12,3011           01011                           OCT      01011
006809: 12,3012           01012                           OCT      01012
006810: 12,3013           01013                           OCT      01013
006811: 12,3014           01014                           OCT      01014
006812: 12,3015           01015                           OCT      01015
006813: 12,3016           01016                           OCT      01016
006814: 12,3017           01017                           OCT      01017
006815: 12,3020           01020                           OCT      01020
006816: 12,3021           01021                           OCT      01021
006817: 12,3022           01022                           OCT      01022
006818: 12,3023           01023                           OCT      01023
006819: 12,3024           01024                           OCT      01024
006820: 12,3025           01025                           OCT      01025
006821: 12,3026           01026                           OCT      01026
006822: 12,3027           01027                           OCT      01027
006823: 12,3030           01030                           OCT      01030
006824: 12,3031           01031                           OCT      01031
006825: 12,3032           01032                           OCT      01032


006827: 12,3033           01033                           OCT      01033
006828: 12,3034           01034                           OCT      01034
006829: 12,3035           01035                           OCT      01035
006830: 12,3036           01036                           OCT      01036
006831: 12,3037           01037                           OCT      01037
006832: 12,3040           01040                           OCT      01040
006833: 12,3041           01041                           OCT      01041
006834: 12,3042           01042                           OCT      01042
006835: 12,3043           01043                           OCT      01043
006836: 12,3044           01044                           OCT      01044
006837: 12,3045           01045                           OCT      01045
006838: 12,3046           01046                           OCT      01046
006839: 12,3047           01047                           OCT      01047
006840: 12,3050           01050                           OCT      01050
006841: 12,3051           01051                           OCT      01051
006842: 12,3052           01052                           OCT      01052
006843: 12,3053           01053                           OCT      01053
006844: 12,3054           01054                           OCT      01054
006845: 12,3055           01055                           OCT      01055
006846: 12,3056           01056                           OCT      01056
006847: 12,3057           01057                           OCT      01057
006848: 12,3060           01060                           OCT      01060
006849: 12,3061           01061                           OCT      01061
006850: 12,3062           01062                           OCT      01062
006851: 12,3063           01063                           OCT      01063
006852: 12,3064           01064                           OCT      01064
006853: 12,3065           01065                           OCT      01065
006854: 12,3066           01066                           OCT      01066
006855: 12,3067           01067                           OCT      01067
006856: 12,3070           01070                           OCT      01070
006857: 12,3071           01071                           OCT      01071
006858: 12,3072           01072                           OCT      01072
006859: 12,3073           01073                           OCT      01073
006860: 12,3074           01074                           OCT      01074
006861: 12,3075           01075                           OCT      01075
006862: 12,3076           01076                           OCT      01076
006863: 12,3077           01077                           OCT      01077
006864: 12,3100           01100                           OCT      01100
006865: 12,3101           01101                           OCT      01101
006866: 12,3102           01102                           OCT      01102
006867: 12,3103           01103                           OCT      01103
006868: 12,3104           01104                           OCT      01104
006869: 12,3105           01105                           OCT      01105
006870: 12,3106           01106                           OCT      01106
006871: 12,3107           01107                           OCT      01107
006872: 12,3110           01110                           OCT      01110
006873: 12,3111           01111                           OCT      01111
006874: 12,3112           01112                           OCT      01112
006875: 12,3113           01113                           OCT      01113
006876: 12,3114           01114                           OCT      01114
006877: 12,3115           01115                           OCT      01115
006878: 12,3116           01116                           OCT      01116
006879: 12,3117           01117                           OCT      01117
006880: 12,3120           01120                           OCT      01120
006881: 12,3121           01121                           OCT      01121
006882: 12,3122           01122                           OCT      01122
006883: 12,3123           01123                           OCT      01123
006884: 12,3124           01124                           OCT      01124


006886: 12,3125           01125                           OCT      01125
006887: 12,3126           01126                           OCT      01126
006888: 12,3127           01127                           OCT      01127
006889: 12,3130           01130                           OCT      01130
006890: 12,3131           01131                           OCT      01131
006891: 12,3132           01132                           OCT      01132
006892: 12,3133           01133                           OCT      01133
006893: 12,3134           01134                           OCT      01134
006894: 12,3135           01135                           OCT      01135
006895: 12,3136           01136                           OCT      01136
006896: 12,3137           01137                           OCT      01137
006897: 12,3140           01140                           OCT      01140
006898: 12,3141           01141                           OCT      01141
006899: 12,3142           01142                           OCT      01142
006900: 12,3143           01143                           OCT      01143
006901: 12,3144           01144                           OCT      01144
006902: 12,3145           01145                           OCT      01145
006903: 12,3146           01146                           OCT      01146
006904: 12,3147           01147                           OCT      01147
006905: 12,3150           01150                           OCT      01150
006906: 12,3151           01151                           OCT      01151
006907: 12,3152           01152                           OCT      01152
006908: 12,3153           01153                           OCT      01153
006909: 12,3154           01154                           OCT      01154
006910: 12,3155           01155                           OCT      01155
006911: 12,3156           01156                           OCT      01156
006912: 12,3157           01157                           OCT      01157
006913: 12,3160           01160                           OCT      01160
006914: 12,3161           01161                           OCT      01161
006915: 12,3162           01162                           OCT      01162
006916: 12,3163           01163                           OCT      01163
006917: 12,3164           01164                           OCT      01164
006918: 12,3165           01165                           OCT      01165
006919: 12,3166           01166                           OCT      01166
006920: 12,3167           01167                           OCT      01167
006921: 12,3170           01170                           OCT      01170
006922: 12,3171           01171                           OCT      01171
006923: 12,3172           01172                           OCT      01172
006924: 12,3173           01173                           OCT      01173
006925: 12,3174           01174                           OCT      01174
006926: 12,3175           01175                           OCT      01175
006927: 12,3176           01176                           OCT      01176
006928: 12,3177           01177                           OCT      01177
006929: 12,3200           01200                           OCT      01200
006930: 12,3201           01201                           OCT      01201
006931: 12,3202           01202                           OCT      01202
006932: 12,3203           01203                           OCT      01203
006933: 12,3204           01204                           OCT      01204
006934: 12,3205           01205                           OCT      01205
006935: 12,3206           01206                           OCT      01206
006936: 12,3207           01207                           OCT      01207
006937: 12,3210           01210                           OCT      01210
006938: 12,3211           01211                           OCT      01211
006939: 12,3212           01212                           OCT      01212
006940: 12,3213           01213                           OCT      01213
006941: 12,3214           01214                           OCT      01214
006942: 12,3215           01215                           OCT      01215
006943: 12,3216           01216                           OCT      01216


006945: 12,3217           01217                           OCT      01217
006946: 12,3220           01220                           OCT      01220
006947: 12,3221           01221                           OCT      01221
006948: 12,3222           01222                           OCT      01222
006949: 12,3223           01223                           OCT      01223
006950: 12,3224           01224                           OCT      01224
006951: 12,3225           01225                           OCT      01225
006952: 12,3226           01226                           OCT      01226
006953: 12,3227           01227                           OCT      01227
006954: 12,3230           01230                           OCT      01230
006955: 12,3231           01231                           OCT      01231
006956: 12,3232           01232                           OCT      01232
006957: 12,3233           01233                           OCT      01233
006958: 12,3234           01234                           OCT      01234
006959: 12,3235           01235                           OCT      01235
006960: 12,3236           01236                           OCT      01236
006961: 12,3237           01237                           OCT      01237
006962: 12,3240           01240                           OCT      01240
006963: 12,3241           01241                           OCT      01241
006964: 12,3242           01242                           OCT      01242
006965: 12,3243           01243                           OCT      01243
006966: 12,3244           01244                           OCT      01244
006967: 12,3245           01245                           OCT      01245
006968: 12,3246           01246                           OCT      01246
006969: 12,3247           01247                           OCT      01247
006970: 12,3250           01250                           OCT      01250
006971: 12,3251           01251                           OCT      01251
006972: 12,3252           01252                           OCT      01252
006973: 12,3253           01253                           OCT      01253
006974: 12,3254           01254                           OCT      01254
006975: 12,3255           01255                           OCT      01255
006976: 12,3256           01256                           OCT      01256
006977: 12,3257           01257                           OCT      01257
006978: 12,3260           01260                           OCT      01260
006979: 12,3261           01261                           OCT      01261
006980: 12,3262           01262                           OCT      01262
006981: 12,3263           01263                           OCT      01263
006982: 12,3264           01264                           OCT      01264
006983: 12,3265           01265                           OCT      01265
006984: 12,3266           01266                           OCT      01266
006985: 12,3267           01267                           OCT      01267
006986: 12,3270           01270                           OCT      01270
006987: 12,3271           01271                           OCT      01271
006988: 12,3272           01272                           OCT      01272
006989: 12,3273           01273                           OCT      01273
006990: 12,3274           01274                           OCT      01274
006991: 12,3275           01275                           OCT      01275
006992: 12,3276           01276                           OCT      01276
006993: 12,3277           01277                           OCT      01277
006994: 12,3300           01300                           OCT      01300
006995: 12,3301           01301                           OCT      01301
006996: 12,3302           01302                           OCT      01302
006997: 12,3303           01303                           OCT      01303
006998: 12,3304           01304                           OCT      01304
006999: 12,3305           01305                           OCT      01305
007000: 12,3306           01306                           OCT      01306
007001: 12,3307           01307                           OCT      01307
007002: 12,3310           01310                           OCT      01310


007004: 12,3311           01311                           OCT      01311
007005: 12,3312           01312                           OCT      01312
007006: 12,3313           01313                           OCT      01313
007007: 12,3314           01314                           OCT      01314
007008: 12,3315           01315                           OCT      01315
007009: 12,3316           01316                           OCT      01316
007010: 12,3317           01317                           OCT      01317
007011: 12,3320           01320                           OCT      01320
007012: 12,3321           01321                           OCT      01321
007013: 12,3322           01322                           OCT      01322
007014: 12,3323           01323                           OCT      01323
007015: 12,3324           01324                           OCT      01324
007016: 12,3325           01325                           OCT      01325
007017: 12,3326           01326                           OCT      01326
007018: 12,3327           01327                           OCT      01327
007019: 12,3330           01330                           OCT      01330
007020: 12,3331           01331                           OCT      01331
007021: 12,3332           01332                           OCT      01332
007022: 12,3333           01333                           OCT      01333
007023: 12,3334           01334                           OCT      01334
007024: 12,3335           01335                           OCT      01335
007025: 12,3336           01336                           OCT      01336
007026: 12,3337           01337                           OCT      01337
007027: 12,3340           01340                           OCT      01340
007028: 12,3341           01341                           OCT      01341
007029: 12,3342           01342                           OCT      01342
007030: 12,3343           01343                           OCT      01343
007031: 12,3344           01344                           OCT      01344
007032: 12,3345           01345                           OCT      01345
007033: 12,3346           01346                           OCT      01346
007034: 12,3347           01347                           OCT      01347
007035: 12,3350           01350                           OCT      01350
007036: 12,3351           01351                           OCT      01351
007037: 12,3352           01352                           OCT      01352
007038: 12,3353           01353                           OCT      01353
007039: 12,3354           01354                           OCT      01354
007040: 12,3355           01355                           OCT      01355
007041: 12,3356           01356                           OCT      01356
007042: 12,3357           01357                           OCT      01357
007043: 12,3360           01360                           OCT      01360
007044: 12,3361           01361                           OCT      01361
007045: 12,3362           01362                           OCT      01362
007046: 12,3363           01363                           OCT      01363
007047: 12,3364           01364                           OCT      01364
007048: 12,3365           01365                           OCT      01365
007049: 12,3366           01366                           OCT      01366
007050: 12,3367           01367                           OCT      01367
007051: 12,3370           01370                           OCT      01370
007052: 12,3371           01371                           OCT      01371
007053: 12,3372           01372                           OCT      01372
007054: 12,3373           01373                           OCT      01373
007055: 12,3374           01374                           OCT      01374
007056: 12,3375           01375                           OCT      01375
007057: 12,3376           01376                           OCT      01376
007058: 12,3377           01377                           OCT      01377
007059: 12,3400           01400                           OCT      01400
007060: 12,3401           01401                           OCT      01401
007061: 12,3402           01402                           OCT      01402


007063: 12,3403           01403                           OCT      01403
007064: 12,3404           01404                           OCT      01404
007065: 12,3405           01405                           OCT      01405
007066: 12,3406           01406                           OCT      01406
007067: 12,3407           01407                           OCT      01407
007068: 12,3410           01410                           OCT      01410
007069: 12,3411           01411                           OCT      01411
007070: 12,3412           01412                           OCT      01412
007071: 12,3413           01413                           OCT      01413
007072: 12,3414           01414                           OCT      01414
007073: 12,3415           01415                           OCT      01415
007074: 12,3416           01416                           OCT      01416
007075: 12,3417           01417                           OCT      01417
007076: 12,3420           01420                           OCT      01420
007077: 12,3421           01421                           OCT      01421
007078: 12,3422           01422                           OCT      01422
007079: 12,3423           01423                           OCT      01423
007080: 12,3424           01424                           OCT      01424
007081: 12,3425           01425                           OCT      01425
007082: 12,3426           01426                           OCT      01426
007083: 12,3427           01427                           OCT      01427
007084: 12,3430           01430                           OCT      01430
007085: 12,3431           01431                           OCT      01431
007086: 12,3432           01432                           OCT      01432
007087: 12,3433           01433                           OCT      01433
007088: 12,3434           01434                           OCT      01434
007089: 12,3435           01435                           OCT      01435
007090: 12,3436           01436                           OCT      01436
007091: 12,3437           01437                           OCT      01437
007092: 12,3440           01440                           OCT      01440
007093: 12,3441           01441                           OCT      01441
007094: 12,3442           01442                           OCT      01442
007095: 12,3443           01443                           OCT      01443
007096: 12,3444           01444                           OCT      01444
007097: 12,3445           01445                           OCT      01445
007098: 12,3446           01446                           OCT      01446
007099: 12,3447           01447                           OCT      01447
007100: 12,3450           01450                           OCT      01450
007101: 12,3451           01451                           OCT      01451
007102: 12,3452           01452                           OCT      01452
007103: 12,3453           01453                           OCT      01453
007104: 12,3454           01454                           OCT      01454
007105: 12,3455           01455                           OCT      01455
007106: 12,3456           01456                           OCT      01456
007107: 12,3457           01457                           OCT      01457
007108: 12,3460           01460                           OCT      01460
007109: 12,3461           01461                           OCT      01461
007110: 12,3462           01462                           OCT      01462
007111: 12,3463           01463                           OCT      01463
007112: 12,3464           01464                           OCT      01464
007113: 12,3465           01465                           OCT      01465
007114: 12,3466           01466                           OCT      01466
007115: 12,3467           01467                           OCT      01467
007116: 12,3470           01470                           OCT      01470
007117: 12,3471           01471                           OCT      01471
007118: 12,3472           01472                           OCT      01472
007119: 12,3473           01473                           OCT      01473
007120: 12,3474           01474                           OCT      01474


007122: 12,3475           01475                           OCT      01475
007123: 12,3476           01476                           OCT      01476
007124: 12,3477           01477                           OCT      01477
007125: 12,3500           01500                           OCT      01500
007126: 12,3501           01501                           OCT      01501
007127: 12,3502           01502                           OCT      01502
007128: 12,3503           01503                           OCT      01503
007129: 12,3504           01504                           OCT      01504
007130: 12,3505           01505                           OCT      01505
007131: 12,3506           01506                           OCT      01506
007132: 12,3507           01507                           OCT      01507
007133: 12,3510           01510                           OCT      01510
007134: 12,3511           01511                           OCT      01511
007135: 12,3512           01512                           OCT      01512
007136: 12,3513           01513                           OCT      01513
007137: 12,3514           01514                           OCT      01514
007138: 12,3515           01515                           OCT      01515
007139: 12,3516           01516                           OCT      01516
007140: 12,3517           01517                           OCT      01517
007141: 12,3520           01520                           OCT      01520
007142: 12,3521           01521                           OCT      01521
007143: 12,3522           01522                           OCT      01522
007144: 12,3523           01523                           OCT      01523
007145: 12,3524           01524                           OCT      01524
007146: 12,3525           01525                           OCT      01525
007147: 12,3526           01526                           OCT      01526
007148: 12,3527           01527                           OCT      01527
007149: 12,3530           01530                           OCT      01530
007150: 12,3531           01531                           OCT      01531
007151: 12,3532           01532                           OCT      01532
007152: 12,3533           01533                           OCT      01533
007153: 12,3534           01534                           OCT      01534
007154: 12,3535           01535                           OCT      01535
007155: 12,3536           01536                           OCT      01536
007156: 12,3537           01537                           OCT      01537
007157: 12,3540           01540                           OCT      01540
007158: 12,3541           01541                           OCT      01541
007159: 12,3542           01542                           OCT      01542
007160: 12,3543           01543                           OCT      01543
007161: 12,3544           01544                           OCT      01544
007162: 12,3545           01545                           OCT      01545
007163: 12,3546           01546                           OCT      01546
007164: 12,3547           01547                           OCT      01547
007165: 12,3550           01550                           OCT      01550
007166: 12,3551           01551                           OCT      01551
007167: 12,3552           01552                           OCT      01552
007168: 12,3553           01553                           OCT      01553
007169: 12,3554           01554                           OCT      01554
007170: 12,3555           01555                           OCT      01555
007171: 12,3556           01556                           OCT      01556
007172: 12,3557           01557                           OCT      01557
007173: 12,3560           01560                           OCT      01560
007174: 12,3561           01561                           OCT      01561
007175: 12,3562           01562                           OCT      01562
007176: 12,3563           01563                           OCT      01563
007177: 12,3564           01564                           OCT      01564
007178: 12,3565           01565                           OCT      01565
007179: 12,3566           01566                           OCT      01566


007181: 12,3567           01567                           OCT      01567
007182: 12,3570           01570                           OCT      01570
007183: 12,3571           01571                           OCT      01571
007184: 12,3572           01572                           OCT      01572
007185: 12,3573           01573                           OCT      01573
007186: 12,3574           01574                           OCT      01574
007187: 12,3575           01575                           OCT      01575
007188: 12,3576           01576                           OCT      01576
007189: 12,3577           01577                           OCT      01577
007190: 12,3600           01600                           OCT      01600
007191: 12,3601           01601                           OCT      01601
007192: 12,3602           01602                           OCT      01602
007193: 12,3603           01603                           OCT      01603
007194: 12,3604           01604                           OCT      01604
007195: 12,3605           01605                           OCT      01605
007196: 12,3606           01606                           OCT      01606
007197: 12,3607           01607                           OCT      01607
007198: 12,3610           01610                           OCT      01610
007199: 12,3611           01611                           OCT      01611
007200: 12,3612           01612                           OCT      01612
007201: 12,3613           01613                           OCT      01613
007202: 12,3614           01614                           OCT      01614
007203: 12,3615           01615                           OCT      01615
007204: 12,3616           01616                           OCT      01616
007205: 12,3617           01617                           OCT      01617
007206: 12,3620           01620                           OCT      01620
007207: 12,3621           01621                           OCT      01621
007208: 12,3622           01622                           OCT      01622
007209: 12,3623           01623                           OCT      01623
007210: 12,3624           01624                           OCT      01624
007211: 12,3625           01625                           OCT      01625
007212: 12,3626           01626                           OCT      01626
007213: 12,3627           01627                           OCT      01627
007214: 12,3630           01630                           OCT      01630
007215: 12,3631           01631                           OCT      01631
007216: 12,3632           01632                           OCT      01632
007217: 12,3633           01633                           OCT      01633
007218: 12,3634           01634                           OCT      01634
007219: 12,3635           01635                           OCT      01635
007220: 12,3636           01636                           OCT      01636
007221: 12,3637           01637                           OCT      01637
007222: 12,3640           01640                           OCT      01640
007223: 12,3641           01641                           OCT      01641
007224: 12,3642           01642                           OCT      01642
007225: 12,3643           01643                           OCT      01643
007226: 12,3644           01644                           OCT      01644
007227: 12,3645           01645                           OCT      01645
007228: 12,3646           01646                           OCT      01646
007229: 12,3647           01647                           OCT      01647
007230: 12,3650           01650                           OCT      01650
007231: 12,3651           01651                           OCT      01651
007232: 12,3652           01652                           OCT      01652
007233: 12,3653           01653                           OCT      01653
007234: 12,3654           01654                           OCT      01654
007235: 12,3655           01655                           OCT      01655
007236: 12,3656           01656                           OCT      01656
007237: 12,3657           01657                           OCT      01657
007238: 12,3660           01660                           OCT      01660


007240: 12,3661           01661                           OCT      01661
007241: 12,3662           01662                           OCT      01662
007242: 12,3663           01663                           OCT      01663
007243: 12,3664           01664                           OCT      01664
007244: 12,3665           01665                           OCT      01665
007245: 12,3666           01666                           OCT      01666
007246: 12,3667           01667                           OCT      01667
007247: 12,3670           01670                           OCT      01670
007248: 12,3671           01671                           OCT      01671
007249: 12,3672           01672                           OCT      01672
007250: 12,3673           01673                           OCT      01673
007251: 12,3674           01674                           OCT      01674
007252: 12,3675           01675                           OCT      01675
007253: 12,3676           01676                           OCT      01676
007254: 12,3677           01677                           OCT      01677
007255: 12,3700           01700                           OCT      01700
007256: 12,3701           01701                           OCT      01701
007257: 12,3702           01702                           OCT      01702
007258: 12,3703           01703                           OCT      01703
007259: 12,3704           01704                           OCT      01704
007260: 12,3705           01705                           OCT      01705
007261: 12,3706           01706                           OCT      01706
007262: 12,3707           01707                           OCT      01707
007263: 12,3710           01710                           OCT      01710
007264: 12,3711           01711                           OCT      01711
007265: 12,3712           01712                           OCT      01712
007266: 12,3713           01713                           OCT      01713
007267: 12,3714           01714                           OCT      01714
007268: 12,3715           01715                           OCT      01715
007269: 12,3716           01716                           OCT      01716
007270: 12,3717           01717                           OCT      01717
007271: 12,3720           01720                           OCT      01720
007272: 12,3721           01721                           OCT      01721
007273: 12,3722           01722                           OCT      01722
007274: 12,3723           01723                           OCT      01723
007275: 12,3724           01724                           OCT      01724
007276: 12,3725           01725                           OCT      01725
007277: 12,3726           01726                           OCT      01726
007278: 12,3727           01727                           OCT      01727
007279: 12,3730           01730                           OCT      01730
007280: 12,3731           01731                           OCT      01731
007281: 12,3732           01733                           OCT      01733
007282: 12,3733           01732                           OCT      01732
007283: 12,3734           01734                           OCT      01734
007284: 12,3735           01735                           OCT      01735
007285: 12,3736           01736                           OCT      01736
007286: 12,3737           01737                           OCT      01737
007287: 12,3740           01740                           OCT      01740
007288: 12,3741           01741                           OCT      01741
007289: 12,3742           01742                           OCT      01742
007290: 12,3743           01743                           OCT      01743
007291: 12,3744           01744                           OCT      01744
007292: 12,3745           01745                           OCT      01745
007293: 12,3746           01746                           OCT      01746
007294: 12,3747           01747                           OCT      01747
007295: 12,3750           01750                           OCT      01750
007296: 12,3751           01751                           OCT      01751
007297: 12,3752           01752                           OCT      01752


007299: 12,3753           01753                           OCT      01753
007300: 12,3754           01754                           OCT      01754
007301: 12,3755           01755                           OCT      01755
007302: 12,3756           01756                           OCT      01756
007303: 12,3757           01757                           OCT      01757
007304: 12,3760           01760                           OCT      01760
007305: 12,3761           01761                           OCT      01761
007306: 12,3762           01762                           OCT      01762
007307: 12,3763           01763                           OCT      01763
007308: 12,3764           01764                           OCT      01764
007309: 12,3765           01765                           OCT      01765
007310: 12,3766           01766                           OCT      01766
007311: 12,3767           01767                           OCT      01767
007312: 12,3770           01770                           OCT      01770
007313: 12,3771           01771                           OCT      01771
007314: 12,3772           01772                           OCT      01772
007315: 12,3773           01773                           OCT      01773
007316: 12,3774           01774                           OCT      01774
007317: 12,3775           01775                           OCT      01775
007318: 12,3776           01776                           OCT      01776
Warning:  Next code may overflow storage.
007319: 12,3777           01777                           OCT      01777
007320: 13,2000                                           SETLOC   CF132000
007321: 13,2000           51011                           OCT      51011
007322: 13,2001           04001                           OCT      04001
007323: 13,2002           04002                           OCT      04002
007324: 13,2003           04003                           OCT      04003
007325: 13,2004           04004                           OCT      04004
007326: 13,2005           04005                           OCT      04005
007327: 13,2006           04006                           OCT      04006
007328: 13,2007           04007                           OCT      04007
007329: 13,2010           04010                           OCT      04010
007330: 13,2011           04011                           OCT      04011
007331: 13,2012           04012                           OCT      04012
007332: 13,2013           04013                           OCT      04013
007333: 13,2014           04014                           OCT      04014
007334: 13,2015           04015                           OCT      04015
007335: 13,2016           04016                           OCT      04016
007336: 13,2017           04017                           OCT      04017
007337: 13,2020           04020                           OCT      04020
007338: 13,2021           04021                           OCT      04021
007339: 13,2022           04022                           OCT      04022
007340: 13,2023           04023                           OCT      04023
007341: 13,2024           04024                           OCT      04024
007342: 13,2025           04025                           OCT      04025
007343: 13,2026           04026                           OCT      04026
007344: 13,2027           04027                           OCT      04027
007345: 13,2030           04030                           OCT      04030
007346: 13,2031           04031                           OCT      04031
007347: 13,2032           04032                           OCT      04032
007348: 13,2033           04033                           OCT      04033
007349: 13,2034           04034                           OCT      04034
007350: 13,2035           04035                           OCT      04035
007351: 13,2036           04036                           OCT      04036
007352: 13,2037           04037                           OCT      04037
007353: 13,2040           04040                           OCT      04040
007354: 13,2041           04041                           OCT      04041
007355: 13,2042           04042                           OCT      04042
007356: 13,2043           04043                           OCT      04043


007358: 13,2044           04044                           OCT      04044
007359: 13,2045           04045                           OCT      04045
007360: 13,2046           04046                           OCT      04046
007361: 13,2047           04047                           OCT      04047
007362: 13,2050           04050                           OCT      04050
007363: 13,2051           04051                           OCT      04051
007364: 13,2052           04052                           OCT      04052
007365: 13,2053           04053                           OCT      04053
007366: 13,2054           04054                           OCT      04054
007367: 13,2055           04055                           OCT      04055
007368: 13,2056           04056                           OCT      04056
007369: 13,2057           04057                           OCT      04057
007370: 13,2060           04060                           OCT      04060
007371: 13,2061           04061                           OCT      04061
007372: 13,2062           04062                           OCT      04062
007373: 13,2063           04063                           OCT      04063
007374: 13,2064           04064                           OCT      04064
007375: 13,2065           04065                           OCT      04065
007376: 13,2066           04066                           OCT      04066
007377: 13,2067           04067                           OCT      04067
007378: 13,2070           04070                           OCT      04070
007379: 13,2071           04071                           OCT      04071
007380: 13,2072           04072                           OCT      04072
007381: 13,2073           04073                           OCT      04073
007382: 13,2074           04074                           OCT      04074
007383: 13,2075           04075                           OCT      04075
007384: 13,2076           04076                           OCT      04076
007385: 13,2077           04077                           OCT      04077
007386: 13,2100           04100                           OCT      04100
007387: 13,2101           04101                           OCT      04101
007388: 13,2102           04102                           OCT      04102
007389: 13,2103           04103                           OCT      04103
007390: 13,2104           04104                           OCT      04104
007391: 13,2105           04105                           OCT      04105
007392: 13,2106           04106                           OCT      04106
007393: 13,2107           04107                           OCT      04107
007394: 13,2110           04110                           OCT      04110
007395: 13,2111           04111                           OCT      04111
007396: 13,2112           04112                           OCT      04112
007397: 13,2113           04113                           OCT      04113
007398: 13,2114           04114                           OCT      04114
007399: 13,2115           04115                           OCT      04115
007400: 13,2116           04116                           OCT      04116
007401: 13,2117           04117                           OCT      04117
007402: 13,2120           04120                           OCT      04120
007403: 13,2121           04121                           OCT      04121
007404: 13,2122           04122                           OCT      04122
007405: 13,2123           04123                           OCT      04123
007406: 13,2124           04124                           OCT      04124
007407: 13,2125           04125                           OCT      04125
007408: 13,2126           04126                           OCT      04126
007409: 13,2127           04127                           OCT      04127
007410: 13,2130           04130                           OCT      04130
007411: 13,2131           04131                           OCT      04131
007412: 13,2132           04132                           OCT      04132
007413: 13,2133           04133                           OCT      04133
007414: 13,2134           04134                           OCT      04134
007415: 13,2135           04135                           OCT      04135


007417: 13,2136           04136                           OCT      04136
007418: 13,2137           04137                           OCT      04137
007419: 13,2140           04140                           OCT      04140
007420: 13,2141           04141                           OCT      04141
007421: 13,2142           04142                           OCT      04142
007422: 13,2143           04143                           OCT      04143
007423: 13,2144           04144                           OCT      04144
007424: 13,2145           04145                           OCT      04145
007425: 13,2146           04146                           OCT      04146
007426: 13,2147           04147                           OCT      04147
007427: 13,2150           04150                           OCT      04150
007428: 13,2151           04151                           OCT      04151
007429: 13,2152           04152                           OCT      04152
007430: 13,2153           04153                           OCT      04153
007431: 13,2154           04154                           OCT      04154
007432: 13,2155           04155                           OCT      04155
007433: 13,2156           04156                           OCT      04156
007434: 13,2157           04157                           OCT      04157
007435: 13,2160           04160                           OCT      04160
007436: 13,2161           04161                           OCT      04161
007437: 13,2162           04162                           OCT      04162
007438: 13,2163           04163                           OCT      04163
007439: 13,2164           04164                           OCT      04164
007440: 13,2165           04165                           OCT      04165
007441: 13,2166           04166                           OCT      04166
007442: 13,2167           04167                           OCT      04167
007443: 13,2170           04170                           OCT      04170
007444: 13,2171           04171                           OCT      04171
007445: 13,2172           04172                           OCT      04172
007446: 13,2173           04173                           OCT      04173
007447: 13,2174           04174                           OCT      04174
007448: 13,2175           04175                           OCT      04175
007449: 13,2176           04176                           OCT      04176
007450: 13,2177           04177                           OCT      04177
007451: 13,2200           04200                           OCT      04200
007452: 13,2201           04201                           OCT      04201
007453: 13,2202           04202                           OCT      04202
007454: 13,2203           04203                           OCT      04203
007455: 13,2204           04204                           OCT      04204
007456: 13,2205           04205                           OCT      04205
007457: 13,2206           04206                           OCT      04206
007458: 13,2207           04207                           OCT      04207
007459: 13,2210           04210                           OCT      04210
007460: 13,2211           04211                           OCT      04211
007461: 13,2212           04212                           OCT      04212
007462: 13,2213           04213                           OCT      04213
007463: 13,2214           04214                           OCT      04214
007464: 13,2215           04215                           OCT      04215
007465: 13,2216           04216                           OCT      04216
007466: 13,2217           04217                           OCT      04217
007467: 13,2220           04220                           OCT      04220
007468: 13,2221           04221                           OCT      04221
007469: 13,2222           04222                           OCT      04222
007470: 13,2223           04223                           OCT      04223
007471: 13,2224           04224                           OCT      04224
007472: 13,2225           04225                           OCT      04225
007473: 13,2226           04226                           OCT      04226
007474: 13,2227           04227                           OCT      04227


007476: 13,2230           04230                           OCT      04230
007477: 13,2231           04231                           OCT      04231
007478: 13,2232           04232                           OCT      04232
007479: 13,2233           04233                           OCT      04233
007480: 13,2234           04234                           OCT      04234
007481: 13,2235           04235                           OCT      04235
007482: 13,2236           04236                           OCT      04236
007483: 13,2237           04237                           OCT      04237
007484: 13,2240           04240                           OCT      04240
007485: 13,2241           04241                           OCT      04241
007486: 13,2242           04242                           OCT      04242
007487: 13,2243           04243                           OCT      04243
007488: 13,2244           04244                           OCT      04244
007489: 13,2245           04245                           OCT      04245
007490: 13,2246           04246                           OCT      04246
007491: 13,2247           04247                           OCT      04247
007492: 13,2250           04250                           OCT      04250
007493: 13,2251           04251                           OCT      04251
007494: 13,2252           04252                           OCT      04252
007495: 13,2253           04253                           OCT      04253
007496: 13,2254           04254                           OCT      04254
007497: 13,2255           04255                           OCT      04255
007498: 13,2256           04256                           OCT      04256
007499: 13,2257           04257                           OCT      04257
007500: 13,2260           04260                           OCT      04260
007501: 13,2261           04261                           OCT      04261
007502: 13,2262           04262                           OCT      04262
007503: 13,2263           04263                           OCT      04263
007504: 13,2264           04264                           OCT      04264
007505: 13,2265           04265                           OCT      04265
007506: 13,2266           04266                           OCT      04266
007507: 13,2267           04267                           OCT      04267
007508: 13,2270           04270                           OCT      04270
007509: 13,2271           04271                           OCT      04271
007510: 13,2272           04272                           OCT      04272
007511: 13,2273           04273                           OCT      04273
007512: 13,2274           04274                           OCT      04274
007513: 13,2275           04275                           OCT      04275
007514: 13,2276           04276                           OCT      04276
007515: 13,2277           04277                           OCT      04277
007516: 13,2300           04300                           OCT      04300
007517: 13,2301           04301                           OCT      04301
007518: 13,2302           04302                           OCT      04302
007519: 13,2303           04303                           OCT      04303
007520: 13,2304           04304                           OCT      04304
007521: 13,2305           04305                           OCT      04305
007522: 13,2306           04306                           OCT      04306
007523: 13,2307           04307                           OCT      04307
007524: 13,2310           04310                           OCT      04310
007525: 13,2311           04311                           OCT      04311
007526: 13,2312           04312                           OCT      04312
007527: 13,2313           04313                           OCT      04313
007528: 13,2314           04314                           OCT      04314
007529: 13,2315           04315                           OCT      04315
007530: 13,2316           04316                           OCT      04316
007531: 13,2317           04317                           OCT      04317
007532: 13,2320           04320                           OCT      04320
007533: 13,2321           04321                           OCT      04321


007535: 13,2322           04322                           OCT      04322
007536: 13,2323           04323                           OCT      04323
007537: 13,2324           04324                           OCT      04324
007538: 13,2325           04325                           OCT      04325
007539: 13,2326           04326                           OCT      04326
007540: 13,2327           04327                           OCT      04327
007541: 13,2330           04330                           OCT      04330
007542: 13,2331           04331                           OCT      04331
007543: 13,2332           04332                           OCT      04332
007544: 13,2333           04333                           OCT      04333
007545: 13,2334           04334                           OCT      04334
007546: 13,2335           04335                           OCT      04335
007547: 13,2336           04336                           OCT      04336
007548: 13,2337           04337                           OCT      04337
007549: 13,2340           04340                           OCT      04340
007550: 13,2341           04341                           OCT      04341
007551: 13,2342           04342                           OCT      04342
007552: 13,2343           04343                           OCT      04343
007553: 13,2344           04344                           OCT      04344
007554: 13,2345           04345                           OCT      04345
007555: 13,2346           04346                           OCT      04346
007556: 13,2347           04347                           OCT      04347
007557: 13,2350           04350                           OCT      04350
007558: 13,2351           04351                           OCT      04351
007559: 13,2352           04352                           OCT      04352
007560: 13,2353           04353                           OCT      04353
007561: 13,2354           04354                           OCT      04354
007562: 13,2355           04355                           OCT      04355
007563: 13,2356           04356                           OCT      04356
007564: 13,2357           04357                           OCT      04357
007565: 13,2360           04360                           OCT      04360
007566: 13,2361           04361                           OCT      04361
007567: 13,2362           04362                           OCT      04362
007568: 13,2363           04363                           OCT      04363
007569: 13,2364           04364                           OCT      04364
007570: 13,2365           04365                           OCT      04365
007571: 13,2366           04366                           OCT      04366
007572: 13,2367           04367                           OCT      04367
007573: 13,2370           04370                           OCT      04370
007574: 13,2371           04371                           OCT      04371
007575: 13,2372           04372                           OCT      04372
007576: 13,2373           04373                           OCT      04373
007577: 13,2374           04374                           OCT      04374
007578: 13,2375           04375                           OCT      04375
007579: 13,2376           04376                           OCT      04376
007580: 13,2377           04400                           OCT      04400
007581: 13,2400           04377                           OCT      04377
007582: 13,2401           04401                           OCT      04401
007583: 13,2402           04402                           OCT      04402
007584: 13,2403           04403                           OCT      04403
007585: 13,2404           04404                           OCT      04404
007586: 13,2405           04405                           OCT      04405
007587: 13,2406           04406                           OCT      04406
007588: 13,2407           04407                           OCT      04407
007589: 13,2410           04410                           OCT      04410
007590: 13,2411           04411                           OCT      04411
007591: 13,2412           04412                           OCT      04412
007592: 13,2413           04413                           OCT      04413


007594: 13,2414           04414                           OCT      04414
007595: 13,2415           04415                           OCT      04415
007596: 13,2416           04416                           OCT      04416
007597: 13,2417           04417                           OCT      04417
007598: 13,2420           04420                           OCT      04420
007599: 13,2421           04421                           OCT      04421
007600: 13,2422           04422                           OCT      04422
007601: 13,2423           04423                           OCT      04423
007602: 13,2424           04424                           OCT      04424
007603: 13,2425           04425                           OCT      04425
007604: 13,2426           04426                           OCT      04426
007605: 13,2427           04427                           OCT      04427
007606: 13,2430           04430                           OCT      04430
007607: 13,2431           04431                           OCT      04431
007608: 13,2432           04432                           OCT      04432
007609: 13,2433           04433                           OCT      04433
007610: 13,2434           04434                           OCT      04434
007611: 13,2435           04435                           OCT      04435
007612: 13,2436           04436                           OCT      04436
007613: 13,2437           04437                           OCT      04437
007614: 13,2440           04440                           OCT      04440
007615: 13,2441           04441                           OCT      04441
007616: 13,2442           04442                           OCT      04442
007617: 13,2443           04443                           OCT      04443
007618: 13,2444           04444                           OCT      04444
007619: 13,2445           04445                           OCT      04445
007620: 13,2446           04446                           OCT      04446
007621: 13,2447           04447                           OCT      04447
007622: 13,2450           04450                           OCT      04450
007623: 13,2451           04451                           OCT      04451
007624: 13,2452           04452                           OCT      04452
007625: 13,2453           04453                           OCT      04453
007626: 13,2454           04454                           OCT      04454
007627: 13,2455           04455                           OCT      04455
007628: 13,2456           04456                           OCT      04456
007629: 13,2457           04457                           OCT      04457
007630: 13,2460           04460                           OCT      04460
007631: 13,2461           04461                           OCT      04461
007632: 13,2462           04462                           OCT      04462
007633: 13,2463           04463                           OCT      04463
007634: 13,2464           04464                           OCT      04464
007635: 13,2465           04465                           OCT      04465
007636: 13,2466           04466                           OCT      04466
007637: 13,2467           04467                           OCT      04467
007638: 13,2470           04470                           OCT      04470
007639: 13,2471           04471                           OCT      04471
007640: 13,2472           04472                           OCT      04472
007641: 13,2473           04473                           OCT      04473
007642: 13,2474           04474                           OCT      04474
007643: 13,2475           04475                           OCT      04475
007644: 13,2476           04476                           OCT      04476
007645: 13,2477           04477                           OCT      04477
007646: 13,2500           04500                           OCT      04500
007647: 13,2501           04501                           OCT      04501
007648: 13,2502           04502                           OCT      04502
007649: 13,2503           04503                           OCT      04503
007650: 13,2504           04504                           OCT      04504
007651: 13,2505           04505                           OCT      04505


007653: 13,2506           04506                           OCT      04506
007654: 13,2507           04507                           OCT      04507
007655: 13,2510           04510                           OCT      04510
007656: 13,2511           04511                           OCT      04511
007657: 13,2512           04512                           OCT      04512
007658: 13,2513           04513                           OCT      04513
007659: 13,2514           04514                           OCT      04514
007660: 13,2515           04515                           OCT      04515
007661: 13,2516           04516                           OCT      04516
007662: 13,2517           04517                           OCT      04517
007663: 13,2520           04520                           OCT      04520
007664: 13,2521           04521                           OCT      04521
007665: 13,2522           04522                           OCT      04522
007666: 13,2523           04523                           OCT      04523
007667: 13,2524           04524                           OCT      04524
007668: 13,2525           04525                           OCT      04525
007669: 13,2526           04526                           OCT      04526
007670: 13,2527           04527                           OCT      04527
007671: 13,2530           04530                           OCT      04530
007672: 13,2531           04531                           OCT      04531
007673: 13,2532           04532                           OCT      04532
007674: 13,2533           04533                           OCT      04533
007675: 13,2534           04534                           OCT      04534
007676: 13,2535           04535                           OCT      04535
007677: 13,2536           04536                           OCT      04536
007678: 13,2537           04537                           OCT      04537
007679: 13,2540           04540                           OCT      04540
007680: 13,2541           04541                           OCT      04541
007681: 13,2542           04542                           OCT      04542
007682: 13,2543           04543                           OCT      04543
007683: 13,2544           04544                           OCT      04544
007684: 13,2545           04545                           OCT      04545
007685: 13,2546           04546                           OCT      04546
007686: 13,2547           04547                           OCT      04547
007687: 13,2550           04550                           OCT      04550
007688: 13,2551           04551                           OCT      04551
007689: 13,2552           04552                           OCT      04552
007690: 13,2553           04553                           OCT      04553
007691: 13,2554           04554                           OCT      04554
007692: 13,2555           04555                           OCT      04555
007693: 13,2556           04556                           OCT      04556
007694: 13,2557           04557                           OCT      04557
007695: 13,2560           04560                           OCT      04560
007696: 13,2561           04561                           OCT      04561
007697: 13,2562           04562                           OCT      04562
007698: 13,2563           04563                           OCT      04563
007699: 13,2564           04564                           OCT      04564
007700: 13,2565           04565                           OCT      04565
007701: 13,2566           04566                           OCT      04566
007702: 13,2567           04567                           OCT      04567
007703: 13,2570           04570                           OCT      04570
007704: 13,2571           04571                           OCT      04571
007705: 13,2572           04572                           OCT      04572
007706: 13,2573           04573                           OCT      04573
007707: 13,2574           04574                           OCT      04574
007708: 13,2575           04575                           OCT      04575
007709: 13,2576           04576                           OCT      04576
007710: 13,2577           04577                           OCT      04577


007712: 13,2600           04600                           OCT      04600
007713: 13,2601           04601                           OCT      04601
007714: 13,2602           04602                           OCT      04602
007715: 13,2603           04603                           OCT      04603
007716: 13,2604           04604                           OCT      04604
007717: 13,2605           04605                           OCT      04605
007718: 13,2606           04606                           OCT      04606
007719: 13,2607           04607                           OCT      04607
007720: 13,2610           04610                           OCT      04610
007721: 13,2611           04611                           OCT      04611
007722: 13,2612           04612                           OCT      04612
007723: 13,2613           04613                           OCT      04613
007724: 13,2614           04614                           OCT      04614
007725: 13,2615           04615                           OCT      04615
007726: 13,2616           04616                           OCT      04616
007727: 13,2617           04617                           OCT      04617
007728: 13,2620           04620                           OCT      04620
007729: 13,2621           04621                           OCT      04621
007730: 13,2622           04622                           OCT      04622
007731: 13,2623           04623                           OCT      04623
007732: 13,2624           04624                           OCT      04624
007733: 13,2625           04625                           OCT      04625
007734: 13,2626           04626                           OCT      04626
007735: 13,2627           04627                           OCT      04627
007736: 13,2630           04630                           OCT      04630
007737: 13,2631           04631                           OCT      04631
007738: 13,2632           04632                           OCT      04632
007739: 13,2633           04633                           OCT      04633
007740: 13,2634           04634                           OCT      04634
007741: 13,2635           04635                           OCT      04635
007742: 13,2636           04636                           OCT      04636
007743: 13,2637           04637                           OCT      04637
007744: 13,2640           04640                           OCT      04640
007745: 13,2641           04641                           OCT      04641
007746: 13,2642           04642                           OCT      04642
007747: 13,2643           04643                           OCT      04643
007748: 13,2644           04644                           OCT      04644
007749: 13,2645           04645                           OCT      04645
007750: 13,2646           04646                           OCT      04646
007751: 13,2647           04647                           OCT      04647
007752: 13,2650           04650                           OCT      04650
007753: 13,2651           04651                           OCT      04651
007754: 13,2652           04652                           OCT      04652
007755: 13,2653           04653                           OCT      04653
007756: 13,2654           04654                           OCT      04654
007757: 13,2655           04655                           OCT      04655
007758: 13,2656           04656                           OCT      04656
007759: 13,2657           04657                           OCT      04657
007760: 13,2660           04660                           OCT      04660
007761: 13,2661           04661                           OCT      04661
007762: 13,2662           04662                           OCT      04662
007763: 13,2663           04663                           OCT      04663
007764: 13,2664           04664                           OCT      04664
007765: 13,2665           04665                           OCT      04665
007766: 13,2666           04666                           OCT      04666
007767: 13,2667           04667                           OCT      04667
007768: 13,2670           04670                           OCT      04670
007769: 13,2671           04671                           OCT      04671


007771: 13,2672           04672                           OCT      04672
007772: 13,2673           04673                           OCT      04673
007773: 13,2674           04674                           OCT      04674
007774: 13,2675           04675                           OCT      04675
007775: 13,2676           04676                           OCT      04676
007776: 13,2677           04677                           OCT      04677
007777: 13,2700           04700                           OCT      04700
007778: 13,2701           04701                           OCT      04701
007779: 13,2702           04702                           OCT      04702
007780: 13,2703           04703                           OCT      04703
007781: 13,2704           04704                           OCT      04704
007782: 13,2705           04705                           OCT      04705
007783: 13,2706           04706                           OCT      04706
007784: 13,2707           04707                           OCT      04707
007785: 13,2710           04710                           OCT      04710
007786: 13,2711           04711                           OCT      04711
007787: 13,2712           04712                           OCT      04712
007788: 13,2713           04713                           OCT      04713
007789: 13,2714           04714                           OCT      04714
007790: 13,2715           04715                           OCT      04715
007791: 13,2716           04716                           OCT      04716
007792: 13,2717           04717                           OCT      04717
007793: 13,2720           04720                           OCT      04720
007794: 13,2721           04721                           OCT      04721
007795: 13,2722           04722                           OCT      04722
007796: 13,2723           04723                           OCT      04723
007797: 13,2724           04724                           OCT      04724
007798: 13,2725           04725                           OCT      04725
007799: 13,2726           04726                           OCT      04726
007800: 13,2727           04727                           OCT      04727
007801: 13,2730           04730                           OCT      04730
007802: 13,2731           04731                           OCT      04731
007803: 13,2732           04732                           OCT      04732
007804: 13,2733           04733                           OCT      04733
007805: 13,2734           04734                           OCT      04734
007806: 13,2735           04735                           OCT      04735
007807: 13,2736           04736                           OCT      04736
007808: 13,2737           04737                           OCT      04737
007809: 13,2740           04740                           OCT      04740
007810: 13,2741           04741                           OCT      04741
007811: 13,2742           04742                           OCT      04742
007812: 13,2743           04743                           OCT      04743
007813: 13,2744           04744                           OCT      04744
007814: 13,2745           04745                           OCT      04745
007815: 13,2746           04746                           OCT      04746
007816: 13,2747           04747                           OCT      04747
007817: 13,2750           04750                           OCT      04750
007818: 13,2751           04751                           OCT      04751
007819: 13,2752           04752                           OCT      04752
007820: 13,2753           04753                           OCT      04753
007821: 13,2754           04754                           OCT      04754
007822: 13,2755           04755                           OCT      04755
007823: 13,2756           04756                           OCT      04756
007824: 13,2757           04757                           OCT      04757
007825: 13,2760           04760                           OCT      04760
007826: 13,2761           04761                           OCT      04761
007827: 13,2762           04762                           OCT      04762
007828: 13,2763           04763                           OCT      04763


007830: 13,2764           04764                           OCT      04764
007831: 13,2765           04765                           OCT      04765
007832: 13,2766           04766                           OCT      04766
007833: 13,2767           04767                           OCT      04767
007834: 13,2770           04770                           OCT      04770
007835: 13,2771           04771                           OCT      04771
007836: 13,2772           04772                           OCT      04772
007837: 13,2773           04773                           OCT      04773
007838: 13,2774           04774                           OCT      04774
007839: 13,2775           04775                           OCT      04775
007840: 13,2776           04776                           OCT      04776
007841: 13,2777           04777                           OCT      04777
007842: 13,3000           05000                           OCT      05000
007843: 13,3001           05001                           OCT      05001
007844: 13,3002           05002                           OCT      05002
007845: 13,3003           05003                           OCT      05003
007846: 13,3004           05004                           OCT      05004
007847: 13,3005           05005                           OCT      05005
007848: 13,3006           05006                           OCT      05006
007849: 13,3007           05007                           OCT      05007
007850: 13,3010           05010                           OCT      05010
007851: 13,3011           05011                           OCT      05011
007852: 13,3012           05012                           OCT      05012
007853: 13,3013           05013                           OCT      05013
007854: 13,3014           05014                           OCT      05014
007855: 13,3015           05015                           OCT      05015
007856: 13,3016           05016                           OCT      05016
007857: 13,3017           05017                           OCT      05017
007858: 13,3020           05020                           OCT      05020
007859: 13,3021           05021                           OCT      05021
007860: 13,3022           05022                           OCT      05022
007861: 13,3023           05023                           OCT      05023
007862: 13,3024           05024                           OCT      05024
007863: 13,3025           05025                           OCT      05025
007864: 13,3026           05026                           OCT      05026
007865: 13,3027           05027                           OCT      05027
007866: 13,3030           05030                           OCT      05030
007867: 13,3031           05031                           OCT      05031
007868: 13,3032           05032                           OCT      05032
007869: 13,3033           05033                           OCT      05033
007870: 13,3034           05034                           OCT      05034
007871: 13,3035           05035                           OCT      05035
007872: 13,3036           05036                           OCT      05036
007873: 13,3037           05037                           OCT      05037
007874: 13,3040           05040                           OCT      05040
007875: 13,3041           05041                           OCT      05041
007876: 13,3042           05042                           OCT      05042
007877: 13,3043           05043                           OCT      05043
007878: 13,3044           05044                           OCT      05044
007879: 13,3045           05045                           OCT      05045
007880: 13,3046           05046                           OCT      05046
007881: 13,3047           05047                           OCT      05047
007882: 13,3050           05050                           OCT      05050
007883: 13,3051           05051                           OCT      05051
007884: 13,3052           05052                           OCT      05052
007885: 13,3053           05053                           OCT      05053
007886: 13,3054           05054                           OCT      05054
007887: 13,3055           05055                           OCT      05055


007889: 13,3056           05056                           OCT      05056
007890: 13,3057           05057                           OCT      05057
007891: 13,3060           05060                           OCT      05060
007892: 13,3061           05061                           OCT      05061
007893: 13,3062           05062                           OCT      05062
007894: 13,3063           05063                           OCT      05063
007895: 13,3064           05064                           OCT      05064
007896: 13,3065           05065                           OCT      05065
007897: 13,3066           05066                           OCT      05066
007898: 13,3067           05067                           OCT      05067
007899: 13,3070           05070                           OCT      05070
007900: 13,3071           05071                           OCT      05071
007901: 13,3072           05072                           OCT      05072
007902: 13,3073           05073                           OCT      05073
007903: 13,3074           05074                           OCT      05074
007904: 13,3075           05075                           OCT      05075
007905: 13,3076           05076                           OCT      05076
007906: 13,3077           05077                           OCT      05077
007907: 13,3100           05100                           OCT      05100
007908: 13,3101           05101                           OCT      05101
007909: 13,3102           05102                           OCT      05102
007910: 13,3103           05103                           OCT      05103
007911: 13,3104           05104                           OCT      05104
007912: 13,3105           05105                           OCT      05105
007913: 13,3106           05106                           OCT      05106
007914: 13,3107           05107                           OCT      05107
007915: 13,3110           05110                           OCT      05110
007916: 13,3111           05111                           OCT      05111
007917: 13,3112           05112                           OCT      05112
007918: 13,3113           05113                           OCT      05113
007919: 13,3114           05114                           OCT      05114
007920: 13,3115           05115                           OCT      05115
007921: 13,3116           05116                           OCT      05116
007922: 13,3117           05117                           OCT      05117
007923: 13,3120           05120                           OCT      05120
007924: 13,3121           05121                           OCT      05121
007925: 13,3122           05122                           OCT      05122
007926: 13,3123           05123                           OCT      05123
007927: 13,3124           05124                           OCT      05124
007928: 13,3125           05125                           OCT      05125
007929: 13,3126           05126                           OCT      05126
007930: 13,3127           05127                           OCT      05127
007931: 13,3130           05130                           OCT      05130
007932: 13,3131           05131                           OCT      05131
007933: 13,3132           05132                           OCT      05132
007934: 13,3133           05133                           OCT      05133
007935: 13,3134           05134                           OCT      05134
007936: 13,3135           05135                           OCT      05135
007937: 13,3136           05136                           OCT      05136
007938: 13,3137           05137                           OCT      05137
007939: 13,3140           05140                           OCT      05140
007940: 13,3141           05141                           OCT      05141
007941: 13,3142           05142                           OCT      05142
007942: 13,3143           05143                           OCT      05143
007943: 13,3144           05144                           OCT      05144
007944: 13,3145           05145                           OCT      05145
007945: 13,3146           05146                           OCT      05146
007946: 13,3147           05147                           OCT      05147


007948: 13,3150           05150                           OCT      05150
007949: 13,3151           05151                           OCT      05151
007950: 13,3152           05152                           OCT      05152
007951: 13,3153           05153                           OCT      05153
007952: 13,3154           05154                           OCT      05154
007953: 13,3155           05155                           OCT      05155
007954: 13,3156           05156                           OCT      05156
007955: 13,3157           05157                           OCT      05157
007956: 13,3160           05160                           OCT      05160
007957: 13,3161           05161                           OCT      05161
007958: 13,3162           05162                           OCT      05162
007959: 13,3163           05163                           OCT      05163
007960: 13,3164           05164                           OCT      05164
007961: 13,3165           05165                           OCT      05165
007962: 13,3166           05166                           OCT      05166
007963: 13,3167           05167                           OCT      05167
007964: 13,3170           05170                           OCT      05170
007965: 13,3171           05171                           OCT      05171
007966: 13,3172           05172                           OCT      05172
007967: 13,3173           05173                           OCT      05173
007968: 13,3174           05174                           OCT      05174
007969: 13,3175           05175                           OCT      05175
007970: 13,3176           05176                           OCT      05176
007971: 13,3177           05177                           OCT      05177
007972: 13,3200           05200                           OCT      05200
007973: 13,3201           05201                           OCT      05201
007974: 13,3202           05202                           OCT      05202
007975: 13,3203           05203                           OCT      05203
007976: 13,3204           05204                           OCT      05204
007977: 13,3205           05205                           OCT      05205
007978: 13,3206           05206                           OCT      05206
007979: 13,3207           05207                           OCT      05207
007980: 13,3210           05210                           OCT      05210
007981: 13,3211           05211                           OCT      05211
007982: 13,3212           05212                           OCT      05212
007983: 13,3213           05213                           OCT      05213
007984: 13,3214           05214                           OCT      05214
007985: 13,3215           05215                           OCT      05215
007986: 13,3216           05216                           OCT      05216
007987: 13,3217           05217                           OCT      05217
007988: 13,3220           05220                           OCT      05220
007989: 13,3221           05221                           OCT      05221
007990: 13,3222           05222                           OCT      05222
007991: 13,3223           05223                           OCT      05223
007992: 13,3224           05224                           OCT      05224
007993: 13,3225           05225                           OCT      05225
007994: 13,3226           05226                           OCT      05226
007995: 13,3227           05227                           OCT      05227
007996: 13,3230           05230                           OCT      05230
007997: 13,3231           05231                           OCT      05231
007998: 13,3232           05232                           OCT      05232
007999: 13,3233           05233                           OCT      05233
008000: 13,3234           05234                           OCT      05234
008001: 13,3235           05235                           OCT      05235
008002: 13,3236           05236                           OCT      05236
008003: 13,3237           05237                           OCT      05237
008004: 13,3240           05240                           OCT      05240
008005: 13,3241           05241                           OCT      05241


008007: 13,3242           05242                           OCT      05242
008008: 13,3243           05243                           OCT      05243
008009: 13,3244           05244                           OCT      05244
008010: 13,3245           05245                           OCT      05245
008011: 13,3246           05246                           OCT      05246
008012: 13,3247           05247                           OCT      05247
008013: 13,3250           05250                           OCT      05250
008014: 13,3251           05251                           OCT      05251
008015: 13,3252           05252                           OCT      05252
008016: 13,3253           05253                           OCT      05253
008017: 13,3254           05254                           OCT      05254
008018: 13,3255           05255                           OCT      05255
008019: 13,3256           05256                           OCT      05256
008020: 13,3257           05257                           OCT      05257
008021: 13,3260           05260                           OCT      05260
008022: 13,3261           05261                           OCT      05261
008023: 13,3262           05262                           OCT      05262
008024: 13,3263           05263                           OCT      05263
008025: 13,3264           05264                           OCT      05264
008026: 13,3265           05265                           OCT      05265
008027: 13,3266           05266                           OCT      05266
008028: 13,3267           05267                           OCT      05267
008029: 13,3270           05270                           OCT      05270
008030: 13,3271           05271                           OCT      05271
008031: 13,3272           05272                           OCT      05272
008032: 13,3273           05273                           OCT      05273
008033: 13,3274           05274                           OCT      05274
008034: 13,3275           05275                           OCT      05275
008035: 13,3276           05276                           OCT      05276
008036: 13,3277           05277                           OCT      05277
008037: 13,3300           05300                           OCT      05300
008038: 13,3301           05301                           OCT      05301
008039: 13,3302           05302                           OCT      05302
008040: 13,3303           05303                           OCT      05303
008041: 13,3304           05304                           OCT      05304
008042: 13,3305           05305                           OCT      05305
008043: 13,3306           05306                           OCT      05306
008044: 13,3307           05307                           OCT      05307
008045: 13,3310           05310                           OCT      05310
008046: 13,3311           05311                           OCT      05311
008047: 13,3312           05312                           OCT      05312
008048: 13,3313           05313                           OCT      05313
008049: 13,3314           05314                           OCT      05314
008050: 13,3315           05315                           OCT      05315
008051: 13,3316           05316                           OCT      05316
008052: 13,3317           05317                           OCT      05317
008053: 13,3320           05320                           OCT      05320
008054: 13,3321           05321                           OCT      05321
008055: 13,3322           05322                           OCT      05322
008056: 13,3323           05323                           OCT      05323
008057: 13,3324           05324                           OCT      05324
008058: 13,3325           05325                           OCT      05325
008059: 13,3326           05326                           OCT      05326
008060: 13,3327           05327                           OCT      05327
008061: 13,3330           05330                           OCT      05330
008062: 13,3331           05331                           OCT      05331
008063: 13,3332           05332                           OCT      05332
008064: 13,3333           05333                           OCT      05333


008066: 13,3334           05334                           OCT      05334
008067: 13,3335           05335                           OCT      05335
008068: 13,3336           05336                           OCT      05336
008069: 13,3337           05337                           OCT      05337
008070: 13,3340           05340                           OCT      05340
008071: 13,3341           05341                           OCT      05341
008072: 13,3342           05342                           OCT      05342
008073: 13,3343           05343                           OCT      05343
008074: 13,3344           05344                           OCT      05344
008075: 13,3345           05345                           OCT      05345
008076: 13,3346           05346                           OCT      05346
008077: 13,3347           05347                           OCT      05347
008078: 13,3350           05350                           OCT      05350
008079: 13,3351           05351                           OCT      05351
008080: 13,3352           05352                           OCT      05352
008081: 13,3353           05353                           OCT      05353
008082: 13,3354           05354                           OCT      05354
008083: 13,3355           05355                           OCT      05355
008084: 13,3356           05356                           OCT      05356
008085: 13,3357           05357                           OCT      05357
008086: 13,3360           05360                           OCT      05360
008087: 13,3361           05361                           OCT      05361
008088: 13,3362           05362                           OCT      05362
008089: 13,3363           05363                           OCT      05363
008090: 13,3364           05364                           OCT      05364
008091: 13,3365           05365                           OCT      05365
008092: 13,3366           05366                           OCT      05366
008093: 13,3367           05367                           OCT      05367
008094: 13,3370           05370                           OCT      05370
008095: 13,3371           05371                           OCT      05371
008096: 13,3372           05372                           OCT      05372
008097: 13,3373           05373                           OCT      05373
008098: 13,3374           05374                           OCT      05374
008099: 13,3375           05375                           OCT      05375
008100: 13,3376           05376                           OCT      05376
008101: 13,3377           05377                           OCT      05377
008102: 13,3400           05400                           OCT      05400
008103: 13,3401           05401                           OCT      05401
008104: 13,3402           05402                           OCT      05402
008105: 13,3403           05403                           OCT      05403
008106: 13,3404           05404                           OCT      05404
008107: 13,3405           05405                           OCT      05405
008108: 13,3406           05406                           OCT      05406
008109: 13,3407           05407                           OCT      05407
008110: 13,3410           05410                           OCT      05410
008111: 13,3411           05411                           OCT      05411
008112: 13,3412           05412                           OCT      05412
008113: 13,3413           05413                           OCT      05413
008114: 13,3414           05414                           OCT      05414
008115: 13,3415           05415                           OCT      05415
008116: 13,3416           05416                           OCT      05416
008117: 13,3417           05417                           OCT      05417
008118: 13,3420           05420                           OCT      05420
008119: 13,3421           05421                           OCT      05421
008120: 13,3422           05422                           OCT      05422
008121: 13,3423           05423                           OCT      05423
008122: 13,3424           05424                           OCT      05424
008123: 13,3425           05425                           OCT      05425


008125: 13,3426           05426                           OCT      05426
008126: 13,3427           05427                           OCT      05427
008127: 13,3430           05430                           OCT      05430
008128: 13,3431           05431                           OCT      05431
008129: 13,3432           05432                           OCT      05432
008130: 13,3433           05433                           OCT      05433
008131: 13,3434           05434                           OCT      05434
008132: 13,3435           05435                           OCT      05435
008133: 13,3436           05436                           OCT      05436
008134: 13,3437           05437                           OCT      05437
008135: 13,3440           05440                           OCT      05440
008136: 13,3441           05441                           OCT      05441
008137: 13,3442           05442                           OCT      05442
008138: 13,3443           05443                           OCT      05443
008139: 13,3444           05444                           OCT      05444
008140: 13,3445           05445                           OCT      05445
008141: 13,3446           05446                           OCT      05446
008142: 13,3447           05447                           OCT      05447
008143: 13,3450           05450                           OCT      05450
008144: 13,3451           05451                           OCT      05451
008145: 13,3452           05452                           OCT      05452
008146: 13,3453           05453                           OCT      05453
008147: 13,3454           05454                           OCT      05454
008148: 13,3455           05455                           OCT      05455
008149: 13,3456           05456                           OCT      05456
008150: 13,3457           05457                           OCT      05457
008151: 13,3460           05460                           OCT      05460
008152: 13,3461           05461                           OCT      05461
008153: 13,3462           05462                           OCT      05462
008154: 13,3463           05463                           OCT      05463
008155: 13,3464           05464                           OCT      05464
008156: 13,3465           05465                           OCT      05465
008157: 13,3466           05466                           OCT      05466
008158: 13,3467           05467                           OCT      05467
008159: 13,3470           05470                           OCT      05470
008160: 13,3471           05471                           OCT      05471
008161: 13,3472           05472                           OCT      05472
008162: 13,3473           05473                           OCT      05473
008163: 13,3474           05474                           OCT      05474
008164: 13,3475           05475                           OCT      05475
008165: 13,3476           05476                           OCT      05476
008166: 13,3477           05477                           OCT      05477
008167: 13,3500           05500                           OCT      05500
008168: 13,3501           05501                           OCT      05501
008169: 13,3502           05502                           OCT      05502
008170: 13,3503           05503                           OCT      05503
008171: 13,3504           05504                           OCT      05504
008172: 13,3505           05505                           OCT      05505
008173: 13,3506           05506                           OCT      05506
008174: 13,3507           05507                           OCT      05507
008175: 13,3510           05510                           OCT      05510
008176: 13,3511           05511                           OCT      05511
008177: 13,3512           05512                           OCT      05512
008178: 13,3513           05513                           OCT      05513
008179: 13,3514           05514                           OCT      05514
008180: 13,3515           05515                           OCT      05515
008181: 13,3516           05516                           OCT      05516
008182: 13,3517           05517                           OCT      05517


008184: 13,3520           05520                           OCT      05520
008185: 13,3521           05521                           OCT      05521
008186: 13,3522           05522                           OCT      05522
008187: 13,3523           05523                           OCT      05523
008188: 13,3524           05524                           OCT      05524
008189: 13,3525           05525                           OCT      05525
008190: 13,3526           05526                           OCT      05526
008191: 13,3527           05527                           OCT      05527
008192: 13,3530           05530                           OCT      05530
008193: 13,3531           05531                           OCT      05531
008194: 13,3532           05532                           OCT      05532
008195: 13,3533           05533                           OCT      05533
008196: 13,3534           05534                           OCT      05534
008197: 13,3535           05535                           OCT      05535
008198: 13,3536           05536                           OCT      05536
008199: 13,3537           05537                           OCT      05537
008200: 13,3540           05540                           OCT      05540
008201: 13,3541           05541                           OCT      05541
008202: 13,3542           05542                           OCT      05542
008203: 13,3543           05543                           OCT      05543
008204: 13,3544           05544                           OCT      05544
008205: 13,3545           05545                           OCT      05545
008206: 13,3546           05546                           OCT      05546
008207: 13,3547           05547                           OCT      05547
008208: 13,3550           05550                           OCT      05550
008209: 13,3551           05551                           OCT      05551
008210: 13,3552           05552                           OCT      05552
008211: 13,3553           05553                           OCT      05553
008212: 13,3554           05554                           OCT      05554
008213: 13,3555           05555                           OCT      05555
008214: 13,3556           05556                           OCT      05556
008215: 13,3557           05557                           OCT      05557
008216: 13,3560           05560                           OCT      05560
008217: 13,3561           05561                           OCT      05561
008218: 13,3562           05562                           OCT      05562
008219: 13,3563           05563                           OCT      05563
008220: 13,3564           05564                           OCT      05564
008221: 13,3565           05565                           OCT      05565
008222: 13,3566           05566                           OCT      05566
008223: 13,3567           05567                           OCT      05567
008224: 13,3570           05570                           OCT      05570
008225: 13,3571           05571                           OCT      05571
008226: 13,3572           05572                           OCT      05572
008227: 13,3573           05573                           OCT      05573
008228: 13,3574           05574                           OCT      05574
008229: 13,3575           05575                           OCT      05575
008230: 13,3576           05576                           OCT      05576
008231: 13,3577           05577                           OCT      05577
008232: 13,3600           05600                           OCT      05600
008233: 13,3601           05601                           OCT      05601
008234: 13,3602           05602                           OCT      05602
008235: 13,3603           05603                           OCT      05603
008236: 13,3604           05604                           OCT      05604
008237: 13,3605           05605                           OCT      05605
008238: 13,3606           05606                           OCT      05606
008239: 13,3607           05607                           OCT      05607
008240: 13,3610           05610                           OCT      05610
008241: 13,3611           05611                           OCT      05611


008243: 13,3612           05612                           OCT      05612
008244: 13,3613           05613                           OCT      05613
008245: 13,3614           05614                           OCT      05614
008246: 13,3615           05615                           OCT      05615
008247: 13,3616           05616                           OCT      05616
008248: 13,3617           05617                           OCT      05617
008249: 13,3620           05620                           OCT      05620
008250: 13,3621           05621                           OCT      05621
008251: 13,3622           05622                           OCT      05622
008252: 13,3623           05623                           OCT      05623
008253: 13,3624           05624                           OCT      05624
008254: 13,3625           05625                           OCT      05625
008255: 13,3626           05626                           OCT      05626
008256: 13,3627           05627                           OCT      05627
008257: 13,3630           05630                           OCT      05630
008258: 13,3631           05631                           OCT      05631
008259: 13,3632           05632                           OCT      05632
008260: 13,3633           05633                           OCT      05633
008261: 13,3634           05634                           OCT      05634
008262: 13,3635           05635                           OCT      05635
008263: 13,3636           05636                           OCT      05636
008264: 13,3637           05637                           OCT      05637
008265: 13,3640           05640                           OCT      05640
008266: 13,3641           05641                           OCT      05641
008267: 13,3642           05642                           OCT      05642
008268: 13,3643           05643                           OCT      05643
008269: 13,3644           05644                           OCT      05644
008270: 13,3645           05645                           OCT      05645
008271: 13,3646           05646                           OCT      05646
008272: 13,3647           05647                           OCT      05647
008273: 13,3650           05650                           OCT      05650
008274: 13,3651           05651                           OCT      05651
008275: 13,3652           05652                           OCT      05652
008276: 13,3653           05653                           OCT      05653
008277: 13,3654           05654                           OCT      05654
008278: 13,3655           05655                           OCT      05655
008279: 13,3656           05656                           OCT      05656
008280: 13,3657           05657                           OCT      05657
008281: 13,3660           05660                           OCT      05660
008282: 13,3661           05661                           OCT      05661
008283: 13,3662           05662                           OCT      05662
008284: 13,3663           05663                           OCT      05663
008285: 13,3664           05664                           OCT      05664
008286: 13,3665           05665                           OCT      05665
008287: 13,3666           05666                           OCT      05666
008288: 13,3667           05667                           OCT      05667
008289: 13,3670           05670                           OCT      05670
008290: 13,3671           05671                           OCT      05671
008291: 13,3672           05672                           OCT      05672
008292: 13,3673           05673                           OCT      05673
008293: 13,3674           05674                           OCT      05674
008294: 13,3675           05675                           OCT      05675
008295: 13,3676           05676                           OCT      05676
008296: 13,3677           05677                           OCT      05677
008297: 13,3700           05700                           OCT      05700
008298: 13,3701           05701                           OCT      05701
008299: 13,3702           05702                           OCT      05702
008300: 13,3703           05703                           OCT      05703


008302: 13,3704           05704                           OCT      05704
008303: 13,3705           05705                           OCT      05705
008304: 13,3706           05706                           OCT      05706
008305: 13,3707           05707                           OCT      05707
008306: 13,3710           05710                           OCT      05710
008307: 13,3711           05711                           OCT      05711
008308: 13,3712           05712                           OCT      05712
008309: 13,3713           05713                           OCT      05713
008310: 13,3714           05714                           OCT      05714
008311: 13,3715           05715                           OCT      05715
008312: 13,3716           05716                           OCT      05716
008313: 13,3717           05717                           OCT      05717
008314: 13,3720           05720                           OCT      05720
008315: 13,3721           05721                           OCT      05721
008316: 13,3722           05722                           OCT      05722
008317: 13,3723           05723                           OCT      05723
008318: 13,3724           05724                           OCT      05724
008319: 13,3725           05725                           OCT      05725
008320: 13,3726           05726                           OCT      05726
008321: 13,3727           05727                           OCT      05727
008322: 13,3730           05730                           OCT      05730
008323: 13,3731           05731                           OCT      05731
008324: 13,3732           05732                           OCT      05732
008325: 13,3733           05733                           OCT      05733
008326: 13,3734           05734                           OCT      05734
008327: 13,3735           05735                           OCT      05735
008328: 13,3736           05736                           OCT      05736
008329: 13,3737           05737                           OCT      05737
008330: 13,3740           05740                           OCT      05740
008331: 13,3741           05741                           OCT      05741
008332: 13,3742           05742                           OCT      05742
008333: 13,3743           05743                           OCT      05743
008334: 13,3744           05744                           OCT      05744
008335: 13,3745           05745                           OCT      05745
008336: 13,3746           05746                           OCT      05746
008337: 13,3747           05747                           OCT      05747
008338: 13,3750           05750                           OCT      05750
008339: 13,3751           05751                           OCT      05751
008340: 13,3752           05752                           OCT      05752
008341: 13,3753           05753                           OCT      05753
008342: 13,3754           05754                           OCT      05754
008343: 13,3755           05755                           OCT      05755
008344: 13,3756           05756                           OCT      05756
008345: 13,3757           05757                           OCT      05757
008346: 13,3760           05760                           OCT      05760
008347: 13,3761           05761                           OCT      05761
008348: 13,3762           05762                           OCT      05762
008349: 13,3763           05763                           OCT      05763
008350: 13,3764           05764                           OCT      05764
008351: 13,3765           05765                           OCT      05765
008352: 13,3766           05766                           OCT      05766
008353: 13,3767           05767                           OCT      05767
008354: 13,3770           05770                           OCT      05770
008355: 13,3771           05771                           OCT      05771
008356: 13,3772           05772                           OCT      05772
008357: 13,3773           05773                           OCT      05773
008358: 13,3774           05774                           OCT      05774
008359: 13,3775           05775                           OCT      05775


008361: 13,3776           05776                           OCT      05776
Warning:  Next code may overflow storage.
008362: 13,3777           05777                           OCT      05777
008363: 14,2000                                           SETLOC   CF142000
008364: 14,2000           51012                           OCT      51012
008365: 14,2001           06001                           OCT      06001
008366: 14,2002           06002                           OCT      06002
008367: 14,2003           06003                           OCT      06003
008368: 14,2004           06004                           OCT      06004
008369: 14,2005           06005                           OCT      06005
008370: 14,2006           06006                           OCT      06006
008371: 14,2007           06007                           OCT      06007
008372: 14,2010           06010                           OCT      06010
008373: 14,2011           06011                           OCT      06011
008374: 14,2012           06012                           OCT      06012
008375: 14,2013           06013                           OCT      06013
008376: 14,2014           06014                           OCT      06014
008377: 14,2015           06015                           OCT      06015
008378: 14,2016           06016                           OCT      06016
008379: 14,2017           06017                           OCT      06017
008380: 14,2020           06020                           OCT      06020
008381: 14,2021           06021                           OCT      06021
008382: 14,2022           06022                           OCT      06022
008383: 14,2023           06023                           OCT      06023
008384: 14,2024           06024                           OCT      06024
008385: 14,2025           06025                           OCT      06025
008386: 14,2026           06026                           OCT      06026
008387: 14,2027           06027                           OCT      06027
008388: 14,2030           06030                           OCT      06030
008389: 14,2031           06031                           OCT      06031
008390: 14,2032           06032                           OCT      06032
008391: 14,2033           06033                           OCT      06033
008392: 14,2034           06034                           OCT      06034
008393: 14,2035           06035                           OCT      06035
008394: 14,2036           06036                           OCT      06036
008395: 14,2037           06037                           OCT      06037
008396: 14,2040           06040                           OCT      06040
008397: 14,2041           06041                           OCT      06041
008398: 14,2042           06042                           OCT      06042
008399: 14,2043           06043                           OCT      06043
008400: 14,2044           06044                           OCT      06044
008401: 14,2045           06045                           OCT      06045
008402: 14,2046           06046                           OCT      06046
008403: 14,2047           06047                           OCT      06047
008404: 14,2050           06050                           OCT      06050
008405: 14,2051           06051                           OCT      06051
008406: 14,2052           06052                           OCT      06052
008407: 14,2053           06053                           OCT      06053
008408: 14,2054           06054                           OCT      06054
008409: 14,2055           06055                           OCT      06055
008410: 14,2056           06056                           OCT      06056
008411: 14,2057           06057                           OCT      06057
008412: 14,2060           06060                           OCT      06060
008413: 14,2061           06061                           OCT      06061
008414: 14,2062           06062                           OCT      06062
008415: 14,2063           06063                           OCT      06063
008416: 14,2064           06064                           OCT      06064
008417: 14,2065           06065                           OCT      06065
008418: 14,2066           06066                           OCT      06066


008420: 14,2067           06067                           OCT      06067
008421: 14,2070           06070                           OCT      06070
008422: 14,2071           06071                           OCT      06071
008423: 14,2072           06072                           OCT      06072
008424: 14,2073           06073                           OCT      06073
008425: 14,2074           06074                           OCT      06074
008426: 14,2075           06075                           OCT      06075
008427: 14,2076           06076                           OCT      06076
008428: 14,2077           06077                           OCT      06077
008429: 14,2100           06100                           OCT      06100
008430: 14,2101           06101                           OCT      06101
008431: 14,2102           06102                           OCT      06102
008432: 14,2103           06103                           OCT      06103
008433: 14,2104           06104                           OCT      06104
008434: 14,2105           06105                           OCT      06105
008435: 14,2106           06106                           OCT      06106
008436: 14,2107           06107                           OCT      06107
008437: 14,2110           06110                           OCT      06110
008438: 14,2111           06111                           OCT      06111
008439: 14,2112           06112                           OCT      06112
008440: 14,2113           06113                           OCT      06113
008441: 14,2114           06114                           OCT      06114
008442: 14,2115           06115                           OCT      06115
008443: 14,2116           06116                           OCT      06116
008444: 14,2117           06117                           OCT      06117
008445: 14,2120           06120                           OCT      06120
008446: 14,2121           06121                           OCT      06121
008447: 14,2122           06122                           OCT      06122
008448: 14,2123           06123                           OCT      06123
008449: 14,2124           06124                           OCT      06124
008450: 14,2125           06125                           OCT      06125
008451: 14,2126           06126                           OCT      06126
008452: 14,2127           06127                           OCT      06127
008453: 14,2130           06130                           OCT      06130
008454: 14,2131           06131                           OCT      06131
008455: 14,2132           06132                           OCT      06132
008456: 14,2133           06133                           OCT      06133
008457: 14,2134           06134                           OCT      06134
008458: 14,2135           06135                           OCT      06135
008459: 14,2136           06136                           OCT      06136
008460: 14,2137           06137                           OCT      06137
008461: 14,2140           06140                           OCT      06140
008462: 14,2141           06141                           OCT      06141
008463: 14,2142           06142                           OCT      06142
008464: 14,2143           06143                           OCT      06143
008465: 14,2144           06144                           OCT      06144
008466: 14,2145           06145                           OCT      06145
008467: 14,2146           06146                           OCT      06146
008468: 14,2147           06147                           OCT      06147
008469: 14,2150           06150                           OCT      06150
008470: 14,2151           06151                           OCT      06151
008471: 14,2152           06152                           OCT      06152
008472: 14,2153           06153                           OCT      06153
008473: 14,2154           06154                           OCT      06154
008474: 14,2155           06155                           OCT      06155
008475: 14,2156           06156                           OCT      06156
008476: 14,2157           06157                           OCT      06157
008477: 14,2160           06160                           OCT      06160


008479: 14,2161           06161                           OCT      06161
008480: 14,2162           06162                           OCT      06162
008481: 14,2163           06163                           OCT      06163
008482: 14,2164           06164                           OCT      06164
008483: 14,2165           06165                           OCT      06165
008484: 14,2166           06166                           OCT      06166
008485: 14,2167           06167                           OCT      06167
008486: 14,2170           06170                           OCT      06170
008487: 14,2171           06171                           OCT      06171
008488: 14,2172           06172                           OCT      06172
008489: 14,2173           06173                           OCT      06173
008490: 14,2174           06174                           OCT      06174
008491: 14,2175           06175                           OCT      06175
008492: 14,2176           06176                           OCT      06176
008493: 14,2177           06177                           OCT      06177
008494: 14,2200           06200                           OCT      06200
008495: 14,2201           06201                           OCT      06201
008496: 14,2202           06202                           OCT      06202
008497: 14,2203           06203                           OCT      06203
008498: 14,2204           06204                           OCT      06204
008499: 14,2205           06205                           OCT      06205
008500: 14,2206           06206                           OCT      06206
008501: 14,2207           06207                           OCT      06207
008502: 14,2210           06210                           OCT      06210
008503: 14,2211           06211                           OCT      06211
008504: 14,2212           06212                           OCT      06212
008505: 14,2213           06213                           OCT      06213
008506: 14,2214           06214                           OCT      06214
008507: 14,2215           06215                           OCT      06215
008508: 14,2216           06216                           OCT      06216
008509: 14,2217           06217                           OCT      06217
008510: 14,2220           06220                           OCT      06220
008511: 14,2221           06221                           OCT      06221
008512: 14,2222           06222                           OCT      06222
008513: 14,2223           06223                           OCT      06223
008514: 14,2224           06224                           OCT      06224
008515: 14,2225           06225                           OCT      06225
008516: 14,2226           06226                           OCT      06226
008517: 14,2227           06227                           OCT      06227
008518: 14,2230           06230                           OCT      06230
008519: 14,2231           06231                           OCT      06231
008520: 14,2232           06232                           OCT      06232
008521: 14,2233           06233                           OCT      06233
008522: 14,2234           06234                           OCT      06234
008523: 14,2235           06235                           OCT      06235
008524: 14,2236           06236                           OCT      06236
008525: 14,2237           06237                           OCT      06237
008526: 14,2240           06240                           OCT      06240
008527: 14,2241           06241                           OCT      06241
008528: 14,2242           06242                           OCT      06242
008529: 14,2243           06243                           OCT      06243
008530: 14,2244           06244                           OCT      06244
008531: 14,2245           06245                           OCT      06245
008532: 14,2246           06246                           OCT      06246
008533: 14,2247           06247                           OCT      06247
008534: 14,2250           06250                           OCT      06250
008535: 14,2251           06251                           OCT      06251
008536: 14,2252           06252                           OCT      06252


008538: 14,2253           06253                           OCT      06253
008539: 14,2254           06254                           OCT      06254
008540: 14,2255           06255                           OCT      06255
008541: 14,2256           06256                           OCT      06256
008542: 14,2257           06257                           OCT      06257
008543: 14,2260           06260                           OCT      06260
008544: 14,2261           06261                           OCT      06261
008545: 14,2262           06262                           OCT      06262
008546: 14,2263           06263                           OCT      06263
008547: 14,2264           06264                           OCT      06264
008548: 14,2265           06265                           OCT      06265
008549: 14,2266           06266                           OCT      06266
008550: 14,2267           06267                           OCT      06267
008551: 14,2270           06270                           OCT      06270
008552: 14,2271           06271                           OCT      06271
008553: 14,2272           06272                           OCT      06272
008554: 14,2273           06273                           OCT      06273
008555: 14,2274           06274                           OCT      06274
008556: 14,2275           06275                           OCT      06275
008557: 14,2276           06276                           OCT      06276
008558: 14,2277           06277                           OCT      06277
008559: 14,2300           06300                           OCT      06300
008560: 14,2301           06301                           OCT      06301
008561: 14,2302           06302                           OCT      06302
008562: 14,2303           06303                           OCT      06303
008563: 14,2304           06304                           OCT      06304
008564: 14,2305           06305                           OCT      06305
008565: 14,2306           06306                           OCT      06306
008566: 14,2307           06307                           OCT      06307
008567: 14,2310           06310                           OCT      06310
008568: 14,2311           06311                           OCT      06311
008569: 14,2312           06312                           OCT      06312
008570: 14,2313           06313                           OCT      06313
008571: 14,2314           06314                           OCT      06314
008572: 14,2315           06315                           OCT      06315
008573: 14,2316           06316                           OCT      06316
008574: 14,2317           06317                           OCT      06317
008575: 14,2320           06320                           OCT      06320
008576: 14,2321           06321                           OCT      06321
008577: 14,2322           06322                           OCT      06322
008578: 14,2323           06323                           OCT      06323
008579: 14,2324           06324                           OCT      06324
008580: 14,2325           06325                           OCT      06325
008581: 14,2326           06326                           OCT      06326
008582: 14,2327           06327                           OCT      06327
008583: 14,2330           06330                           OCT      06330
008584: 14,2331           06331                           OCT      06331
008585: 14,2332           06332                           OCT      06332
008586: 14,2333           06333                           OCT      06333
008587: 14,2334           06334                           OCT      06334
008588: 14,2335           06335                           OCT      06335
008589: 14,2336           06336                           OCT      06336
008590: 14,2337           06337                           OCT      06337
008591: 14,2340           06340                           OCT      06340
008592: 14,2341           06341                           OCT      06341
008593: 14,2342           06342                           OCT      06342
008594: 14,2343           06343                           OCT      06343
008595: 14,2344           06344                           OCT      06344


008597: 14,2345           06345                           OCT      06345
008598: 14,2346           06346                           OCT      06346
008599: 14,2347           06347                           OCT      06347
008600: 14,2350           06350                           OCT      06350
008601: 14,2351           06351                           OCT      06351
008602: 14,2352           06352                           OCT      06352
008603: 14,2353           06353                           OCT      06353
008604: 14,2354           06354                           OCT      06354
008605: 14,2355           06355                           OCT      06355
008606: 14,2356           06356                           OCT      06356
008607: 14,2357           06357                           OCT      06357
008608: 14,2360           06360                           OCT      06360
008609: 14,2361           06361                           OCT      06361
008610: 14,2362           06362                           OCT      06362
008611: 14,2363           06363                           OCT      06363
008612: 14,2364           06364                           OCT      06364
008613: 14,2365           06365                           OCT      06365
008614: 14,2366           06366                           OCT      06366
008615: 14,2367           06367                           OCT      06367
008616: 14,2370           06370                           OCT      06370
008617: 14,2371           06371                           OCT      06371
008618: 14,2372           06372                           OCT      06372
008619: 14,2373           06373                           OCT      06373
008620: 14,2374           06374                           OCT      06374
008621: 14,2375           06375                           OCT      06375
008622: 14,2376           06376                           OCT      06376
008623: 14,2377           06377                           OCT      06377
008624: 14,2400           06400                           OCT      06400
008625: 14,2401           06401                           OCT      06401
008626: 14,2402           06402                           OCT      06402
008627: 14,2403           06403                           OCT      06403
008628: 14,2404           06404                           OCT      06404
008629: 14,2405           06405                           OCT      06405
008630: 14,2406           06406                           OCT      06406
008631: 14,2407           06407                           OCT      06407
008632: 14,2410           06410                           OCT      06410
008633: 14,2411           06411                           OCT      06411
008634: 14,2412           06412                           OCT      06412
008635: 14,2413           06413                           OCT      06413
008636: 14,2414           06414                           OCT      06414
008637: 14,2415           06415                           OCT      06415
008638: 14,2416           06416                           OCT      06416
008639: 14,2417           06417                           OCT      06417
008640: 14,2420           06420                           OCT      06420
008641: 14,2421           06421                           OCT      06421
008642: 14,2422           06422                           OCT      06422
008643: 14,2423           06423                           OCT      06423
008644: 14,2424           06424                           OCT      06424
008645: 14,2425           06425                           OCT      06425
008646: 14,2426           06426                           OCT      06426
008647: 14,2427           06427                           OCT      06427
008648: 14,2430           06430                           OCT      06430
008649: 14,2431           06431                           OCT      06431
008650: 14,2432           06432                           OCT      06432
008651: 14,2433           06433                           OCT      06433
008652: 14,2434           06434                           OCT      06434
008653: 14,2435           06435                           OCT      06435
008654: 14,2436           06436                           OCT      06436


008656: 14,2437           06437                           OCT      06437
008657: 14,2440           06440                           OCT      06440
008658: 14,2441           06441                           OCT      06441
008659: 14,2442           06442                           OCT      06442
008660: 14,2443           06443                           OCT      06443
008661: 14,2444           06444                           OCT      06444
008662: 14,2445           06445                           OCT      06445
008663: 14,2446           06446                           OCT      06446
008664: 14,2447           06447                           OCT      06447
008665: 14,2450           06450                           OCT      06450
008666: 14,2451           06451                           OCT      06451
008667: 14,2452           06452                           OCT      06452
008668: 14,2453           06453                           OCT      06453
008669: 14,2454           06454                           OCT      06454
008670: 14,2455           06455                           OCT      06455
008671: 14,2456           06456                           OCT      06456
008672: 14,2457           06457                           OCT      06457
008673: 14,2460           06460                           OCT      06460
008674: 14,2461           06461                           OCT      06461
008675: 14,2462           06462                           OCT      06462
008676: 14,2463           06463                           OCT      06463
008677: 14,2464           06464                           OCT      06464
008678: 14,2465           06465                           OCT      06465
008679: 14,2466           06466                           OCT      06466
008680: 14,2467           06467                           OCT      06467
008681: 14,2470           06470                           OCT      06470
008682: 14,2471           06471                           OCT      06471
008683: 14,2472           06472                           OCT      06472
008684: 14,2473           06473                           OCT      06473
008685: 14,2474           06474                           OCT      06474
008686: 14,2475           06475                           OCT      06475
008687: 14,2476           06476                           OCT      06476
008688: 14,2477           06477                           OCT      06477
008689: 14,2500           06500                           OCT      06500
008690: 14,2501           06501                           OCT      06501
008691: 14,2502           06502                           OCT      06502
008692: 14,2503           06503                           OCT      06503
008693: 14,2504           06504                           OCT      06504
008694: 14,2505           06505                           OCT      06505
008695: 14,2506           06506                           OCT      06506
008696: 14,2507           06507                           OCT      06507
008697: 14,2510           06510                           OCT      06510
008698: 14,2511           06511                           OCT      06511
008699: 14,2512           06512                           OCT      06512
008700: 14,2513           06513                           OCT      06513
008701: 14,2514           06514                           OCT      06514
008702: 14,2515           06515                           OCT      06515
008703: 14,2516           06516                           OCT      06516
008704: 14,2517           06517                           OCT      06517
008705: 14,2520           06520                           OCT      06520
008706: 14,2521           06521                           OCT      06521
008707: 14,2522           06522                           OCT      06522
008708: 14,2523           06523                           OCT      06523
008709: 14,2524           06524                           OCT      06524
008710: 14,2525           06525                           OCT      06525
008711: 14,2526           06526                           OCT      06526
008712: 14,2527           06527                           OCT      06527
008713: 14,2530           06530                           OCT      06530


008715: 14,2531           06531                           OCT      06531
008716: 14,2532           06532                           OCT      06532
008717: 14,2533           06533                           OCT      06533
008718: 14,2534           06534                           OCT      06534
008719: 14,2535           06535                           OCT      06535
008720: 14,2536           06536                           OCT      06536
008721: 14,2537           06537                           OCT      06537
008722: 14,2540           06540                           OCT      06540
008723: 14,2541           06541                           OCT      06541
008724: 14,2542           06542                           OCT      06542
008725: 14,2543           06543                           OCT      06543
008726: 14,2544           06544                           OCT      06544
008727: 14,2545           06545                           OCT      06545
008728: 14,2546           06546                           OCT      06546
008729: 14,2547           06547                           OCT      06547
008730: 14,2550           06550                           OCT      06550
008731: 14,2551           06551                           OCT      06551
008732: 14,2552           06552                           OCT      06552
008733: 14,2553           06553                           OCT      06553
008734: 14,2554           06554                           OCT      06554
008735: 14,2555           06555                           OCT      06555
008736: 14,2556           06556                           OCT      06556
008737: 14,2557           06557                           OCT      06557
008738: 14,2560           06560                           OCT      06560
008739: 14,2561           06561                           OCT      06561
008740: 14,2562           06562                           OCT      06562
008741: 14,2563           06563                           OCT      06563
008742: 14,2564           06564                           OCT      06564
008743: 14,2565           06565                           OCT      06565
008744: 14,2566           06566                           OCT      06566
008745: 14,2567           06567                           OCT      06567
008746: 14,2570           06570                           OCT      06570
008747: 14,2571           06571                           OCT      06571
008748: 14,2572           06572                           OCT      06572
008749: 14,2573           06573                           OCT      06573
008750: 14,2574           06574                           OCT      06574
008751: 14,2575           06575                           OCT      06575
008752: 14,2576           06576                           OCT      06576
008753: 14,2577           06577                           OCT      06577
008754: 14,2600           06600                           OCT      06600
008755: 14,2601           06601                           OCT      06601
008756: 14,2602           06602                           OCT      06602
008757: 14,2603           06603                           OCT      06603
008758: 14,2604           06604                           OCT      06604
008759: 14,2605           06605                           OCT      06605
008760: 14,2606           06606                           OCT      06606
008761: 14,2607           06607                           OCT      06607
008762: 14,2610           06610                           OCT      06610
008763: 14,2611           06611                           OCT      06611
008764: 14,2612           06612                           OCT      06612
008765: 14,2613           06613                           OCT      06613
008766: 14,2614           06614                           OCT      06614
008767: 14,2615           06615                           OCT      06615
008768: 14,2616           06616                           OCT      06616
008769: 14,2617           06617                           OCT      06617
008770: 14,2620           06620                           OCT      06620
008771: 14,2621           06621                           OCT      06621
008772: 14,2622           06622                           OCT      06622


008774: 14,2623           06623                           OCT      06623
008775: 14,2624           06624                           OCT      06624
008776: 14,2625           06625                           OCT      06625
008777: 14,2626           06626                           OCT      06626
008778: 14,2627           06627                           OCT      06627
008779: 14,2630           06630                           OCT      06630
008780: 14,2631           06631                           OCT      06631
008781: 14,2632           06632                           OCT      06632
008782: 14,2633           06633                           OCT      06633
008783: 14,2634           06634                           OCT      06634
008784: 14,2635           06635                           OCT      06635
008785: 14,2636           06636                           OCT      06636
008786: 14,2637           06637                           OCT      06637
008787: 14,2640           06640                           OCT      06640
008788: 14,2641           06641                           OCT      06641
008789: 14,2642           06642                           OCT      06642
008790: 14,2643           06643                           OCT      06643
008791: 14,2644           06644                           OCT      06644
008792: 14,2645           06645                           OCT      06645
008793: 14,2646           06646                           OCT      06646
008794: 14,2647           06647                           OCT      06647
008795: 14,2650           06650                           OCT      06650
008796: 14,2651           06651                           OCT      06651
008797: 14,2652           06652                           OCT      06652
008798: 14,2653           06653                           OCT      06653
008799: 14,2654           06654                           OCT      06654
008800: 14,2655           06655                           OCT      06655
008801: 14,2656           06656                           OCT      06656
008802: 14,2657           06657                           OCT      06657
008803: 14,2660           06660                           OCT      06660
008804: 14,2661           06661                           OCT      06661
008805: 14,2662           06662                           OCT      06662
008806: 14,2663           06663                           OCT      06663
008807: 14,2664           06664                           OCT      06664
008808: 14,2665           06665                           OCT      06665
008809: 14,2666           06666                           OCT      06666
008810: 14,2667           06667                           OCT      06667
008811: 14,2670           06670                           OCT      06670
008812: 14,2671           06671                           OCT      06671
008813: 14,2672           06672                           OCT      06672
008814: 14,2673           06673                           OCT      06673
008815: 14,2674           06674                           OCT      06674
008816: 14,2675           06675                           OCT      06675
008817: 14,2676           06676                           OCT      06676
008818: 14,2677           06677                           OCT      06677
008819: 14,2700           06700                           OCT      06700
008820: 14,2701           06701                           OCT      06701
008821: 14,2702           06702                           OCT      06702
008822: 14,2703           06703                           OCT      06703
008823: 14,2704           06704                           OCT      06704
008824: 14,2705           06705                           OCT      06705
008825: 14,2706           06706                           OCT      06706
008826: 14,2707           06707                           OCT      06707
008827: 14,2710           06710                           OCT      06710
008828: 14,2711           06711                           OCT      06711
008829: 14,2712           06712                           OCT      06712
008830: 14,2713           06713                           OCT      06713
008831: 14,2714           06714                           OCT      06714


008833: 14,2715           06715                           OCT      06715
008834: 14,2716           06716                           OCT      06716
008835: 14,2717           06717                           OCT      06717
008836: 14,2720           06720                           OCT      06720
008837: 14,2721           06721                           OCT      06721
008838: 14,2722           06722                           OCT      06722
008839: 14,2723           06723                           OCT      06723
008840: 14,2724           06724                           OCT      06724
008841: 14,2725           06725                           OCT      06725
008842: 14,2726           06726                           OCT      06726
008843: 14,2727           06727                           OCT      06727
008844: 14,2730           06730                           OCT      06730
008845: 14,2731           06731                           OCT      06731
008846: 14,2732           06732                           OCT      06732
008847: 14,2733           06733                           OCT      06733
008848: 14,2734           06734                           OCT      06734
008849: 14,2735           06735                           OCT      06735
008850: 14,2736           06736                           OCT      06736
008851: 14,2737           06737                           OCT      06737
008852: 14,2740           06740                           OCT      06740
008853: 14,2741           06741                           OCT      06741
008854: 14,2742           06742                           OCT      06742
008855: 14,2743           06743                           OCT      06743
008856: 14,2744           06744                           OCT      06744
008857: 14,2745           06745                           OCT      06745
008858: 14,2746           06746                           OCT      06746
008859: 14,2747           06747                           OCT      06747
008860: 14,2750           06750                           OCT      06750
008861: 14,2751           06751                           OCT      06751
008862: 14,2752           06752                           OCT      06752
008863: 14,2753           06753                           OCT      06753
008864: 14,2754           06754                           OCT      06754
008865: 14,2755           06755                           OCT      06755
008866: 14,2756           06756                           OCT      06756
008867: 14,2757           06757                           OCT      06757
008868: 14,2760           06760                           OCT      06760
008869: 14,2761           06761                           OCT      06761
008870: 14,2762           06762                           OCT      06762
008871: 14,2763           06763                           OCT      06763
008872: 14,2764           06764                           OCT      06764
008873: 14,2765           06765                           OCT      06765
008874: 14,2766           06766                           OCT      06766
008875: 14,2767           06767                           OCT      06767
008876: 14,2770           06770                           OCT      06770
008877: 14,2771           06771                           OCT      06771
008878: 14,2772           06772                           OCT      06772
008879: 14,2773           06773                           OCT      06773
008880: 14,2774           06774                           OCT      06774
008881: 14,2775           06775                           OCT      06775
008882: 14,2776           06776                           OCT      06776
008883: 14,2777           06777                           OCT      06777
008884: 14,3000           07000                           OCT      07000
008885: 14,3001           07001                           OCT      07001
008886: 14,3002           07002                           OCT      07002
008887: 14,3003           07003                           OCT      07003
008888: 14,3004           07004                           OCT      07004
008889: 14,3005           07005                           OCT      07005
008890: 14,3006           07006                           OCT      07006


008892: 14,3007           07007                           OCT      07007
008893: 14,3010           07010                           OCT      07010
008894: 14,3011           07011                           OCT      07011
008895: 14,3012           07012                           OCT      07012
008896: 14,3013           07013                           OCT      07013
008897: 14,3014           07014                           OCT      07014
008898: 14,3015           07015                           OCT      07015
008899: 14,3016           07016                           OCT      07016
008900: 14,3017           07017                           OCT      07017
008901: 14,3020           07020                           OCT      07020
008902: 14,3021           07021                           OCT      07021
008903: 14,3022           07022                           OCT      07022
008904: 14,3023           07023                           OCT      07023
008905: 14,3024           07024                           OCT      07024
008906: 14,3025           07025                           OCT      07025
008907: 14,3026           07026                           OCT      07026
008908: 14,3027           07027                           OCT      07027
008909: 14,3030           07030                           OCT      07030
008910: 14,3031           07031                           OCT      07031
008911: 14,3032           07032                           OCT      07032
008912: 14,3033           07033                           OCT      07033
008913: 14,3034           07034                           OCT      07034
008914: 14,3035           07035                           OCT      07035
008915: 14,3036           07036                           OCT      07036
008916: 14,3037           07037                           OCT      07037
008917: 14,3040           07040                           OCT      07040
008918: 14,3041           07041                           OCT      07041
008919: 14,3042           07042                           OCT      07042
008920: 14,3043           07043                           OCT      07043
008921: 14,3044           07044                           OCT      07044
008922: 14,3045           07045                           OCT      07045
008923: 14,3046           07046                           OCT      07046
008924: 14,3047           07047                           OCT      07047
008925: 14,3050           07050                           OCT      07050
008926: 14,3051           07051                           OCT      07051
008927: 14,3052           07052                           OCT      07052
008928: 14,3053           07053                           OCT      07053
008929: 14,3054           07054                           OCT      07054
008930: 14,3055           07055                           OCT      07055
008931: 14,3056           07056                           OCT      07056
008932: 14,3057           07057                           OCT      07057
008933: 14,3060           07060                           OCT      07060
008934: 14,3061           07061                           OCT      07061
008935: 14,3062           07062                           OCT      07062
008936: 14,3063           07063                           OCT      07063
008937: 14,3064           07064                           OCT      07064
008938: 14,3065           07065                           OCT      07065
008939: 14,3066           07066                           OCT      07066
008940: 14,3067           07067                           OCT      07067
008941: 14,3070           07070                           OCT      07070
008942: 14,3071           07071                           OCT      07071
008943: 14,3072           07072                           OCT      07072
008944: 14,3073           07073                           OCT      07073
008945: 14,3074           07074                           OCT      07074
008946: 14,3075           07075                           OCT      07075
008947: 14,3076           07076                           OCT      07076
008948: 14,3077           07077                           OCT      07077
008949: 14,3100           07100                           OCT      07100


008951: 14,3101           07101                           OCT      07101
008952: 14,3102           07102                           OCT      07102
008953: 14,3103           07103                           OCT      07103
008954: 14,3104           07104                           OCT      07104
008955: 14,3105           07105                           OCT      07105
008956: 14,3106           07106                           OCT      07106
008957: 14,3107           07107                           OCT      07107
008958: 14,3110           07110                           OCT      07110
008959: 14,3111           07111                           OCT      07111
008960: 14,3112           07112                           OCT      07112
008961: 14,3113           07113                           OCT      07113
008962: 14,3114           07114                           OCT      07114
008963: 14,3115           07115                           OCT      07115
008964: 14,3116           07116                           OCT      07116
008965: 14,3117           07117                           OCT      07117
008966: 14,3120           07120                           OCT      07120
008967: 14,3121           07121                           OCT      07121
008968: 14,3122           07122                           OCT      07122
008969: 14,3123           07123                           OCT      07123
008970: 14,3124           07124                           OCT      07124
008971: 14,3125           07125                           OCT      07125
008972: 14,3126           07126                           OCT      07126
008973: 14,3127           07127                           OCT      07127
008974: 14,3130           07130                           OCT      07130
008975: 14,3131           07131                           OCT      07131
008976: 14,3132           07132                           OCT      07132
008977: 14,3133           07133                           OCT      07133
008978: 14,3134           07134                           OCT      07134
008979: 14,3135           07135                           OCT      07135
008980: 14,3136           07136                           OCT      07136
008981: 14,3137           07137                           OCT      07137
008982: 14,3140           07140                           OCT      07140
008983: 14,3141           07141                           OCT      07141
008984: 14,3142           07142                           OCT      07142
008985: 14,3143           07143                           OCT      07143
008986: 14,3144           07144                           OCT      07144
008987: 14,3145           07145                           OCT      07145
008988: 14,3146           07146                           OCT      07146
008989: 14,3147           07147                           OCT      07147
008990: 14,3150           07150                           OCT      07150
008991: 14,3151           07151                           OCT      07151
008992: 14,3152           07152                           OCT      07152
008993: 14,3153           07153                           OCT      07153
008994: 14,3154           07154                           OCT      07154
008995: 14,3155           07155                           OCT      07155
008996: 14,3156           07156                           OCT      07156
008997: 14,3157           07157                           OCT      07157
008998: 14,3160           07160                           OCT      07160
008999: 14,3161           07161                           OCT      07161
009000: 14,3162           07162                           OCT      07162
009001: 14,3163           07163                           OCT      07163
009002: 14,3164           07164                           OCT      07164
009003: 14,3165           07165                           OCT      07165
009004: 14,3166           07166                           OCT      07166
009005: 14,3167           07167                           OCT      07167
009006: 14,3170           07170                           OCT      07170
009007: 14,3171           07171                           OCT      07171
009008: 14,3172           07172                           OCT      07172


009010: 14,3173           07173                           OCT      07173
009011: 14,3174           07174                           OCT      07174
009012: 14,3175           07175                           OCT      07175
009013: 14,3176           07176                           OCT      07176
009014: 14,3177           07177                           OCT      07177
009015: 14,3200           07200                           OCT      07200
009016: 14,3201           07201                           OCT      07201
009017: 14,3202           07202                           OCT      07202
009018: 14,3203           07203                           OCT      07203
009019: 14,3204           07204                           OCT      07204
009020: 14,3205           07205                           OCT      07205
009021: 14,3206           07206                           OCT      07206
009022: 14,3207           07207                           OCT      07207
009023: 14,3210           07210                           OCT      07210
009024: 14,3211           07211                           OCT      07211
009025: 14,3212           07212                           OCT      07212
009026: 14,3213           07213                           OCT      07213
009027: 14,3214           07214                           OCT      07214
009028: 14,3215           07215                           OCT      07215
009029: 14,3216           07216                           OCT      07216
009030: 14,3217           07217                           OCT      07217
009031: 14,3220           07220                           OCT      07220
009032: 14,3221           07221                           OCT      07221
009033: 14,3222           07222                           OCT      07222
009034: 14,3223           07223                           OCT      07223
009035: 14,3224           07224                           OCT      07224
009036: 14,3225           07225                           OCT      07225
009037: 14,3226           07226                           OCT      07226
009038: 14,3227           07227                           OCT      07227
009039: 14,3230           07230                           OCT      07230
009040: 14,3231           07231                           OCT      07231
009041: 14,3232           07232                           OCT      07232
009042: 14,3233           07233                           OCT      07233
009043: 14,3234           07234                           OCT      07234
009044: 14,3235           07235                           OCT      07235
009045: 14,3236           07236                           OCT      07236
009046: 14,3237           07237                           OCT      07237
009047: 14,3240           07240                           OCT      07240
009048: 14,3241           07241                           OCT      07241
009049: 14,3242           07242                           OCT      07242
009050: 14,3243           07243                           OCT      07243
009051: 14,3244           07244                           OCT      07244
009052: 14,3245           07245                           OCT      07245
009053: 14,3246           07246                           OCT      07246
009054: 14,3247           07247                           OCT      07247
009055: 14,3250           07250                           OCT      07250
009056: 14,3251           07251                           OCT      07251
009057: 14,3252           07252                           OCT      07252
009058: 14,3253           07253                           OCT      07253
009059: 14,3254           07254                           OCT      07254
009060: 14,3255           07255                           OCT      07255
009061: 14,3256           07256                           OCT      07256
009062: 14,3257           07257                           OCT      07257
009063: 14,3260           07260                           OCT      07260
009064: 14,3261           07261                           OCT      07261
009065: 14,3262           07262                           OCT      07262
009066: 14,3263           07263                           OCT      07263
009067: 14,3264           07264                           OCT      07264


009069: 14,3265           07265                           OCT      07265
009070: 14,3266           07266                           OCT      07266
009071: 14,3267           07267                           OCT      07267
009072: 14,3270           07270                           OCT      07270
009073: 14,3271           07271                           OCT      07271
009074: 14,3272           07272                           OCT      07272
009075: 14,3273           07273                           OCT      07273
009076: 14,3274           07274                           OCT      07274
009077: 14,3275           07275                           OCT      07275
009078: 14,3276           07276                           OCT      07276
009079: 14,3277           07277                           OCT      07277
009080: 14,3300           07300                           OCT      07300
009081: 14,3301           07301                           OCT      07301
009082: 14,3302           07302                           OCT      07302
009083: 14,3303           07303                           OCT      07303
009084: 14,3304           07304                           OCT      07304
009085: 14,3305           07305                           OCT      07305
009086: 14,3306           07306                           OCT      07306
009087: 14,3307           07307                           OCT      07307
009088: 14,3310           07310                           OCT      07310
009089: 14,3311           07311                           OCT      07311
009090: 14,3312           07312                           OCT      07312
009091: 14,3313           07313                           OCT      07313
009092: 14,3314           07314                           OCT      07314
009093: 14,3315           07315                           OCT      07315
009094: 14,3316           07316                           OCT      07316
009095: 14,3317           07317                           OCT      07317
009096: 14,3320           07320                           OCT      07320
009097: 14,3321           07321                           OCT      07321
009098: 14,3322           07322                           OCT      07322
009099: 14,3323           07323                           OCT      07323
009100: 14,3324           07324                           OCT      07324
009101: 14,3325           07325                           OCT      07325
009102: 14,3326           07326                           OCT      07326
009103: 14,3327           07327                           OCT      07327
009104: 14,3330           07330                           OCT      07330
009105: 14,3331           07331                           OCT      07331
009106: 14,3332           07332                           OCT      07332
009107: 14,3333           07333                           OCT      07333
009108: 14,3334           07334                           OCT      07334
009109: 14,3335           07335                           OCT      07335
009110: 14,3336           07336                           OCT      07336
009111: 14,3337           07337                           OCT      07337
009112: 14,3340           07340                           OCT      07340
009113: 14,3341           07341                           OCT      07341
009114: 14,3342           07342                           OCT      07342
009115: 14,3343           07343                           OCT      07343
009116: 14,3344           07344                           OCT      07344
009117: 14,3345           07345                           OCT      07345
009118: 14,3346           07346                           OCT      07346
009119: 14,3347           07347                           OCT      07347
009120: 14,3350           07350                           OCT      07350
009121: 14,3351           07351                           OCT      07351
009122: 14,3352           07352                           OCT      07352
009123: 14,3353           07353                           OCT      07353
009124: 14,3354           07354                           OCT      07354
009125: 14,3355           07355                           OCT      07355
009126: 14,3356           07356                           OCT      07356


009128: 14,3357           07357                           OCT      07357
009129: 14,3360           07360                           OCT      07360
009130: 14,3361           07361                           OCT      07361
009131: 14,3362           07362                           OCT      07362
009132: 14,3363           07363                           OCT      07363
009133: 14,3364           07364                           OCT      07364
009134: 14,3365           07365                           OCT      07365
009135: 14,3366           07366                           OCT      07366
009136: 14,3367           07367                           OCT      07367
009137: 14,3370           07370                           OCT      07370
009138: 14,3371           07371                           OCT      07371
009139: 14,3372           07372                           OCT      07372
009140: 14,3373           07373                           OCT      07373
009141: 14,3374           07374                           OCT      07374
009142: 14,3375           07375                           OCT      07375
009143: 14,3376           07376                           OCT      07376
009144: 14,3377           07377                           OCT      07377
009145: 14,3400           07400                           OCT      07400
009146: 14,3401           07401                           OCT      07401
009147: 14,3402           07402                           OCT      07402
009148: 14,3403           07403                           OCT      07403
009149: 14,3404           07404                           OCT      07404
009150: 14,3405           07405                           OCT      07405
009151: 14,3406           07406                           OCT      07406
009152: 14,3407           07407                           OCT      07407
009153: 14,3410           07410                           OCT      07410
009154: 14,3411           07411                           OCT      07411
009155: 14,3412           07412                           OCT      07412
009156: 14,3413           07413                           OCT      07413
009157: 14,3414           07414                           OCT      07414
009158: 14,3415           07415                           OCT      07415
009159: 14,3416           07416                           OCT      07416
009160: 14,3417           07417                           OCT      07417
009161: 14,3420           07420                           OCT      07420
009162: 14,3421           07421                           OCT      07421
009163: 14,3422           07422                           OCT      07422
009164: 14,3423           07423                           OCT      07423
009165: 14,3424           07424                           OCT      07424
009166: 14,3425           07425                           OCT      07425
009167: 14,3426           07426                           OCT      07426
009168: 14,3427           07427                           OCT      07427
009169: 14,3430           07430                           OCT      07430
009170: 14,3431           07431                           OCT      07431
009171: 14,3432           07432                           OCT      07432
009172: 14,3433           07433                           OCT      07433
009173: 14,3434           07434                           OCT      07434
009174: 14,3435           07435                           OCT      07435
009175: 14,3436           07436                           OCT      07436
009176: 14,3437           07437                           OCT      07437
009177: 14,3440           07440                           OCT      07440
009178: 14,3441           07441                           OCT      07441
009179: 14,3442           07442                           OCT      07442
009180: 14,3443           07443                           OCT      07443
009181: 14,3444           07444                           OCT      07444
009182: 14,3445           07445                           OCT      07445
009183: 14,3446           07446                           OCT      07446
009184: 14,3447           07447                           OCT      07447
009185: 14,3450           07450                           OCT      07450


009187: 14,3451           07451                           OCT      07451
009188: 14,3452           07452                           OCT      07452
009189: 14,3453           07453                           OCT      07453
009190: 14,3454           07454                           OCT      07454
009191: 14,3455           07455                           OCT      07455
009192: 14,3456           07456                           OCT      07456
009193: 14,3457           07457                           OCT      07457
009194: 14,3460           07460                           OCT      07460
009195: 14,3461           07461                           OCT      07461
009196: 14,3462           07462                           OCT      07462
009197: 14,3463           07463                           OCT      07463
009198: 14,3464           07464                           OCT      07464
009199: 14,3465           07465                           OCT      07465
009200: 14,3466           07466                           OCT      07466
009201: 14,3467           07467                           OCT      07467
009202: 14,3470           07470                           OCT      07470
009203: 14,3471           07471                           OCT      07471
009204: 14,3472           07472                           OCT      07472
009205: 14,3473           07473                           OCT      07473
009206: 14,3474           07474                           OCT      07474
009207: 14,3475           07475                           OCT      07475
009208: 14,3476           07476                           OCT      07476
009209: 14,3477           07477                           OCT      07477
009210: 14,3500           07500                           OCT      07500
009211: 14,3501           07501                           OCT      07501
009212: 14,3502           07502                           OCT      07502
009213: 14,3503           07503                           OCT      07503
009214: 14,3504           07504                           OCT      07504
009215: 14,3505           07505                           OCT      07505
009216: 14,3506           07506                           OCT      07506
009217: 14,3507           07507                           OCT      07507
009218: 14,3510           07510                           OCT      07510
009219: 14,3511           07511                           OCT      07511
009220: 14,3512           07512                           OCT      07512
009221: 14,3513           07513                           OCT      07513
009222: 14,3514           07514                           OCT      07514
009223: 14,3515           07515                           OCT      07515
009224: 14,3516           07516                           OCT      07516
009225: 14,3517           07517                           OCT      07517
009226: 14,3520           07520                           OCT      07520
009227: 14,3521           07521                           OCT      07521
009228: 14,3522           07522                           OCT      07522
009229: 14,3523           07523                           OCT      07523
009230: 14,3524           07524                           OCT      07524
009231: 14,3525           07525                           OCT      07525
009232: 14,3526           07526                           OCT      07526
009233: 14,3527           07527                           OCT      07527
009234: 14,3530           07530                           OCT      07530
009235: 14,3531           07531                           OCT      07531
009236: 14,3532           07532                           OCT      07532
009237: 14,3533           07533                           OCT      07533
009238: 14,3534           07534                           OCT      07534
009239: 14,3535           07535                           OCT      07535
009240: 14,3536           07536                           OCT      07536
009241: 14,3537           07537                           OCT      07537
009242: 14,3540           07540                           OCT      07540
009243: 14,3541           07541                           OCT      07541
009244: 14,3542           07542                           OCT      07542


009246: 14,3543           07543                           OCT      07543
009247: 14,3544           07544                           OCT      07544
009248: 14,3545           07545                           OCT      07545
009249: 14,3546           07546                           OCT      07546
009250: 14,3547           07547                           OCT      07547
009251: 14,3550           07550                           OCT      07550
009252: 14,3551           07551                           OCT      07551
009253: 14,3552           07552                           OCT      07552
009254: 14,3553           07553                           OCT      07553
009255: 14,3554           07554                           OCT      07554
009256: 14,3555           07555                           OCT      07555
009257: 14,3556           07556                           OCT      07556
009258: 14,3557           07557                           OCT      07557
009259: 14,3560           07560                           OCT      07560
009260: 14,3561           07561                           OCT      07561
009261: 14,3562           07562                           OCT      07562
009262: 14,3563           07563                           OCT      07563
009263: 14,3564           07564                           OCT      07564
009264: 14,3565           07565                           OCT      07565
009265: 14,3566           07566                           OCT      07566
009266: 14,3567           07567                           OCT      07567
009267: 14,3570           07570                           OCT      07570
009268: 14,3571           07571                           OCT      07571
009269: 14,3572           07572                           OCT      07572
009270: 14,3573           07573                           OCT      07573
009271: 14,3574           07574                           OCT      07574
009272: 14,3575           07575                           OCT      07575
009273: 14,3576           07576                           OCT      07576
009274: 14,3577           07577                           OCT      07577
009275: 14,3600           07600                           OCT      07600
009276: 14,3601           07601                           OCT      07601
009277: 14,3602           07602                           OCT      07602
009278: 14,3603           00760                           OCT      0760
009279: 14,3604           07605                           OCT      07605
009280: 14,3605           07606                           OCT      07606
009281: 14,3606           07607                           OCT      07607
009282: 14,3607           07610                           OCT      07610
009283: 14,3610           07611                           OCT      07611
009284: 14,3611           07612                           OCT      07612
009285: 14,3612           07613                           OCT      07613
009286: 14,3613           07614                           OCT      07614
009287: 14,3614           07615                           OCT      07615
009288: 14,3615           07616                           OCT      07616
009289: 14,3616           07617                           OCT      07617
009290: 14,3617           07620                           OCT      07620
009291: 14,3620           07621                           OCT      07621
009292: 14,3621           07622                           OCT      07622
009293: 14,3622           07623                           OCT      07623
009294: 14,3623           07624                           OCT      07624
009295: 14,3624           07625                           OCT      07625
009296: 14,3625           07626                           OCT      07626
009297: 14,3626           07627                           OCT      07627
009298: 14,3627           07630                           OCT      07630
009299: 14,3630           07631                           OCT      07631
009300: 14,3631           07632                           OCT      07632
009301: 14,3632           07633                           OCT      07633
009302: 14,3633           07634                           OCT      07634
009303: 14,3634           07635                           OCT      07635


009305: 14,3635           07636                           OCT      07636
009306: 14,3636           07637                           OCT      07637
009307: 14,3637           07640                           OCT      07640
009308: 14,3640           07641                           OCT      07641
009309: 14,3641           07642                           OCT      07642
009310: 14,3642           07643                           OCT      07643
009311: 14,3643           07644                           OCT      07644
009312: 14,3644           07645                           OCT      07645
009313: 14,3645           07646                           OCT      07646
009314: 14,3646           07647                           OCT      07647
009315: 14,3647           07650                           OCT      07650
009316: 14,3650           07651                           OCT      07651
009317: 14,3651           07652                           OCT      07652
009318: 14,3652           07653                           OCT      07653
009319: 14,3653           07654                           OCT      07654
009320: 14,3654           07655                           OCT      07655
009321: 14,3655           07656                           OCT      07656
009322: 14,3656           07657                           OCT      07657
009323: 14,3657           07660                           OCT      07660
009324: 14,3660           07661                           OCT      07661
009325: 14,3661           07662                           OCT      07662
009326: 14,3662           07663                           OCT      07663
009327: 14,3663           07664                           OCT      07664
009328: 14,3664           07665                           OCT      07665
009329: 14,3665           07666                           OCT      07666
009330: 14,3666           07667                           OCT      07667
009331: 14,3667           07670                           OCT      07670
009332: 14,3670           07671                           OCT      07671
009333: 14,3671           07672                           OCT      07672
009334: 14,3672           07673                           OCT      07673
009335: 14,3673           07674                           OCT      07674
009336: 14,3674           07675                           OCT      07675
009337: 14,3675           07676                           OCT      07676
009338: 14,3676           07677                           OCT      07677
009339: 14,3677           07700                           OCT      07700
009340: 14,3700           07701                           OCT      07701
009341: 14,3701           07702                           OCT      07702
009342: 14,3702           07703                           OCT      07703
009343: 14,3703           07704                           OCT      07704
009344: 14,3704           07705                           OCT      07705
009345: 14,3705           07706                           OCT      07706
009346: 14,3706           07707                           OCT      07707
009347: 14,3707           07710                           OCT      07710
009348: 14,3710           07711                           OCT      07711
009349: 14,3711           07712                           OCT      07712
009350: 14,3712           07713                           OCT      07713
009351: 14,3713           07714                           OCT      07714
009352: 14,3714           07715                           OCT      07715
009353: 14,3715           07716                           OCT      07716
009354: 14,3716           07717                           OCT      07717
009355: 14,3717           07720                           OCT      07720
009356: 14,3720           07721                           OCT      07721
009357: 14,3721           07722                           OCT      07722
009358: 14,3722           07723                           OCT      07723
009359: 14,3723           07724                           OCT      07724
009360: 14,3724           07725                           OCT      07725
009361: 14,3725           07726                           OCT      07726
009362: 14,3726           07727                           OCT      07727


009364: 14,3727           07730                           OCT      07730
009365: 14,3730           07731                           OCT      07731
009366: 14,3731           07732                           OCT      07732
009367: 14,3732           07733                           OCT      07733
009368: 14,3733           07734                           OCT      07734
009369: 14,3734           07735                           OCT      07735
009370: 14,3735           07736                           OCT      07736
009371: 14,3736           07737                           OCT      07737
009372: 14,3737           07740                           OCT      07740
009373: 14,3740           07741                           OCT      07741
009374: 14,3741           07742                           OCT      07742
009375: 14,3742           07743                           OCT      07743
009376: 14,3743           07744                           OCT      07744
009377: 14,3744           07745                           OCT      07745
009378: 14,3745           07746                           OCT      07746
009379: 14,3746           07747                           OCT      07747
009380: 14,3747           07750                           OCT      07750
009381: 14,3750           07751                           OCT      07751
009382: 14,3751           07752                           OCT      07752
009383: 14,3752           07753                           OCT      07753
009384: 14,3753           07754                           OCT      07754
009385: 14,3754           07755                           OCT      07755
009386: 14,3755           07756                           OCT      07756
009387: 14,3756           07757                           OCT      07757
009388: 14,3757           07760                           OCT      07760
009389: 14,3760           07761                           OCT      07761
009390: 14,3761           07762                           OCT      07762
009391: 14,3762           07763                           OCT      07763
009392: 14,3763           07764                           OCT      07764
009393: 14,3764           07765                           OCT      07765
009394: 14,3765           07766                           OCT      07766
009395: 14,3766           07767                           OCT      07767
009396: 14,3767           07770                           OCT      07770
009397: 14,3770           07771                           OCT      07771
009398: 14,3771           07772                           OCT      07772
009399: 14,3772           07773                           OCT      07773
009400: 14,3773           07774                           OCT      07774
009401: 14,3774           07775                           OCT      07775
009402: 14,3775           07776                           OCT      07776
009403: 14,3776           07777                           OCT      07777
009404: 15,2000                                           SETLOC   CF152000
009405: 15,2000           51013                           OCT      51013
009406: 15,2001           01001                           OCT      01001
009407: 15,2002           01002                           OCT      01002
009408: 15,2003           01003                           OCT      01003
009409: 15,2004           01004                           OCT      01004
009410: 15,2005           01005                           OCT      01005
009411: 15,2006           01006                           OCT      01006
009412: 15,2007           01007                           OCT      01007
009413: 15,2010           01010                           OCT      01010
009414: 15,2011           01011                           OCT      01011
009415: 15,2012           01012                           OCT      01012
009416: 15,2013           01013                           OCT      01013
009417: 15,2014           01014                           OCT      01014
009418: 15,2015           01015                           OCT      01015
009419: 15,2016           01016                           OCT      01016
009420: 15,2017           01017                           OCT      01017
009421: 15,2020           01020                           OCT      01020


009423: 15,2021           01021                           OCT      01021
009424: 15,2022           01022                           OCT      01022
009425: 15,2023           01023                           OCT      01023
009426: 15,2024           01024                           OCT      01024
009427: 15,2025           01025                           OCT      01025
009428: 15,2026           01026                           OCT      01026
009429: 15,2027           01027                           OCT      01027
009430: 15,2030           01030                           OCT      01030
009431: 15,2031           01031                           OCT      01031
009432: 15,2032           01032                           OCT      01032
009433: 15,2033           01033                           OCT      01033
009434: 15,2034           01034                           OCT      01034
009435: 15,2035           01035                           OCT      01035
009436: 15,2036           01036                           OCT      01036
009437: 15,2037           01037                           OCT      01037
009438: 15,2040           01040                           OCT      01040
009439: 15,2041           01041                           OCT      01041
009440: 15,2042           01042                           OCT      01042
009441: 15,2043           01043                           OCT      01043
009442: 15,2044           01044                           OCT      01044
009443: 15,2045           01045                           OCT      01045
009444: 15,2046           01046                           OCT      01046
009445: 15,2047           01047                           OCT      01047
009446: 15,2050           01050                           OCT      01050
009447: 15,2051           01051                           OCT      01051
009448: 15,2052           01052                           OCT      01052
009449: 15,2053           01053                           OCT      01053
009450: 15,2054           01054                           OCT      01054
009451: 15,2055           01055                           OCT      01055
009452: 15,2056           01056                           OCT      01056
009453: 15,2057           01057                           OCT      01057
009454: 15,2060           01060                           OCT      01060
009455: 15,2061           01061                           OCT      01061
009456: 15,2062           01062                           OCT      01062
009457: 15,2063           01063                           OCT      01063
009458: 15,2064           01064                           OCT      01064
009459: 15,2065           01065                           OCT      01065
009460: 15,2066           01066                           OCT      01066
009461: 15,2067           01067                           OCT      01067
009462: 15,2070           01070                           OCT      01070
009463: 15,2071           01071                           OCT      01071
009464: 15,2072           01072                           OCT      01072
009465: 15,2073           01073                           OCT      01073
009466: 15,2074           01074                           OCT      01074
009467: 15,2075           01075                           OCT      01075
009468: 15,2076           01076                           OCT      01076
009469: 15,2077           01077                           OCT      01077
009470: 15,2100           01100                           OCT      01100
009471: 15,2101           01101                           OCT      01101
009472: 15,2102           01102                           OCT      01102
009473: 15,2103           01103                           OCT      01103
009474: 15,2104           01104                           OCT      01104
009475: 15,2105           01105                           OCT      01105
009476: 15,2106           01106                           OCT      01106
009477: 15,2107           01107                           OCT      01107
009478: 15,2110           01110                           OCT      01110
009479: 15,2111           01111                           OCT      01111
009480: 15,2112           01112                           OCT      01112


009482: 15,2113           01113                           OCT      01113
009483: 15,2114           01114                           OCT      01114
009484: 15,2115           01115                           OCT      01115
009485: 15,2116           01116                           OCT      01116
009486: 15,2117           01117                           OCT      01117
009487: 15,2120           01120                           OCT      01120
009488: 15,2121           01121                           OCT      01121
009489: 15,2122           01122                           OCT      01122
009490: 15,2123           01123                           OCT      01123
009491: 15,2124           01124                           OCT      01124
009492: 15,2125           01125                           OCT      01125
009493: 15,2126           01126                           OCT      01126
009494: 15,2127           01127                           OCT      01127
009495: 15,2130           01130                           OCT      01130
009496: 15,2131           01131                           OCT      01131
009497: 15,2132           01132                           OCT      01132
009498: 15,2133           01133                           OCT      01133
009499: 15,2134           01134                           OCT      01134
009500: 15,2135           01135                           OCT      01135
009501: 15,2136           01136                           OCT      01136
009502: 15,2137           01137                           OCT      01137
009503: 15,2140           01140                           OCT      01140
009504: 15,2141           01141                           OCT      01141
009505: 15,2142           01142                           OCT      01142
009506: 15,2143           01143                           OCT      01143
009507: 15,2144           01144                           OCT      01144
009508: 15,2145           01145                           OCT      01145
009509: 15,2146           01146                           OCT      01146
009510: 15,2147           01147                           OCT      01147
009511: 15,2150           01150                           OCT      01150
009512: 15,2151           01151                           OCT      01151
009513: 15,2152           01152                           OCT      01152
009514: 15,2153           01153                           OCT      01153
009515: 15,2154           01154                           OCT      01154
009516: 15,2155           01155                           OCT      01155
009517: 15,2156           01156                           OCT      01156
009518: 15,2157           01157                           OCT      01157
009519: 15,2160           01160                           OCT      01160
009520: 15,2161           01161                           OCT      01161
009521: 15,2162           01162                           OCT      01162
009522: 15,2163           01163                           OCT      01163
009523: 15,2164           01164                           OCT      01164
009524: 15,2165           01165                           OCT      01165
009525: 15,2166           01166                           OCT      01166
009526: 15,2167           01167                           OCT      01167
009527: 15,2170           01170                           OCT      01170
009528: 15,2171           01171                           OCT      01171
009529: 15,2172           01172                           OCT      01172
009530: 15,2173           01173                           OCT      01173
009531: 15,2174           01174                           OCT      01174
009532: 15,2175           01175                           OCT      01175
009533: 15,2176           01176                           OCT      01176
009534: 15,2177           01177                           OCT      01177
009535: 15,2200           01200                           OCT      01200
009536: 15,2201           01201                           OCT      01201
009537: 15,2202           01202                           OCT      01202
009538: 15,2203           01203                           OCT      01203
009539: 15,2204           01204                           OCT      01204


009541: 15,2205           01205                           OCT      01205
009542: 15,2206           01206                           OCT      01206
009543: 15,2207           01207                           OCT      01207
009544: 15,2210           01210                           OCT      01210
009545: 15,2211           01211                           OCT      01211
009546: 15,2212           01212                           OCT      01212
009547: 15,2213           01213                           OCT      01213
009548: 15,2214           01214                           OCT      01214
009549: 15,2215           01215                           OCT      01215
009550: 15,2216           01216                           OCT      01216
009551: 15,2217           01217                           OCT      01217
009552: 15,2220           01220                           OCT      01220
009553: 15,2221           01221                           OCT      01221
009554: 15,2222           01222                           OCT      01222
009555: 15,2223           01223                           OCT      01223
009556: 15,2224           01224                           OCT      01224
009557: 15,2225           01225                           OCT      01225
009558: 15,2226           01226                           OCT      01226
009559: 15,2227           01227                           OCT      01227
009560: 15,2230           01230                           OCT      01230
009561: 15,2231           01231                           OCT      01231
009562: 15,2232           01232                           OCT      01232
009563: 15,2233           01233                           OCT      01233
009564: 15,2234           01234                           OCT      01234
009565: 15,2235           01235                           OCT      01235
009566: 15,2236           01236                           OCT      01236
009567: 15,2237           01237                           OCT      01237
009568: 15,2240           01240                           OCT      01240
009569: 15,2241           01241                           OCT      01241
009570: 15,2242           01242                           OCT      01242
009571: 15,2243           01243                           OCT      01243
009572: 15,2244           01244                           OCT      01244
009573: 15,2245           01245                           OCT      01245
009574: 15,2246           01246                           OCT      01246
009575: 15,2247           01247                           OCT      01247
009576: 15,2250           01250                           OCT      01250
009577: 15,2251           01251                           OCT      01251
009578: 15,2252           01252                           OCT      01252
009579: 15,2253           01253                           OCT      01253
009580: 15,2254           01254                           OCT      01254
009581: 15,2255           01255                           OCT      01255
009582: 15,2256           01256                           OCT      01256
009583: 15,2257           01257                           OCT      01257
009584: 15,2260           01260                           OCT      01260
009585: 15,2261           01261                           OCT      01261
009586: 15,2262           01262                           OCT      01262
009587: 15,2263           01263                           OCT      01263
009588: 15,2264           01264                           OCT      01264
009589: 15,2265           01265                           OCT      01265
009590: 15,2266           01266                           OCT      01266
009591: 15,2267           01267                           OCT      01267
009592: 15,2270           01270                           OCT      01270
009593: 15,2271           01271                           OCT      01271
009594: 15,2272           01272                           OCT      01272
009595: 15,2273           01273                           OCT      01273
009596: 15,2274           01274                           OCT      01274
009597: 15,2275           01275                           OCT      01275
009598: 15,2276           01276                           OCT      01276


009600: 15,2277           01277                           OCT      01277
009601: 15,2300           01300                           OCT      01300
009602: 15,2301           01301                           OCT      01301
009603: 15,2302           01302                           OCT      01302
009604: 15,2303           01303                           OCT      01303
009605: 15,2304           01304                           OCT      01304
009606: 15,2305           01305                           OCT      01305
009607: 15,2306           01306                           OCT      01306
009608: 15,2307           01307                           OCT      01307
009609: 15,2310           01310                           OCT      01310
009610: 15,2311           01311                           OCT      01311
009611: 15,2312           01312                           OCT      01312
009612: 15,2313           01313                           OCT      01313
009613: 15,2314           01314                           OCT      01314
009614: 15,2315           01315                           OCT      01315
009615: 15,2316           01316                           OCT      01316
009616: 15,2317           01317                           OCT      01317
009617: 15,2320           01320                           OCT      01320
009618: 15,2321           01321                           OCT      01321
009619: 15,2322           01322                           OCT      01322
009620: 15,2323           01323                           OCT      01323
009621: 15,2324           01324                           OCT      01324
009622: 15,2325           01325                           OCT      01325
009623: 15,2326           01326                           OCT      01326
009624: 15,2327           01327                           OCT      01327
009625: 15,2330           01330                           OCT      01330
009626: 15,2331           01331                           OCT      01331
009627: 15,2332           01332                           OCT      01332
009628: 15,2333           01333                           OCT      01333
009629: 15,2334           01334                           OCT      01334
009630: 15,2335           01335                           OCT      01335
009631: 15,2336           01336                           OCT      01336
009632: 15,2337           01337                           OCT      01337
009633: 15,2340           01340                           OCT      01340
009634: 15,2341           01341                           OCT      01341
009635: 15,2342           01342                           OCT      01342
009636: 15,2343           01343                           OCT      01343
009637: 15,2344           01344                           OCT      01344
009638: 15,2345           01345                           OCT      01345
009639: 15,2346           01346                           OCT      01346
009640: 15,2347           01347                           OCT      01347
009641: 15,2350           01350                           OCT      01350
009642: 15,2351           01351                           OCT      01351
009643: 15,2352           01352                           OCT      01352
009644: 15,2353           01353                           OCT      01353
009645: 15,2354           01354                           OCT      01354
009646: 15,2355           01355                           OCT      01355
009647: 15,2356           01356                           OCT      01356
009648: 15,2357           01357                           OCT      01357
009649: 15,2360           01360                           OCT      01360
009650: 15,2361           01361                           OCT      01361
009651: 15,2362           01362                           OCT      01362
009652: 15,2363           01363                           OCT      01363
009653: 15,2364           01364                           OCT      01364
009654: 15,2365           01365                           OCT      01365
009655: 15,2366           01366                           OCT      01366
009656: 15,2367           01367                           OCT      01367
009657: 15,2370           01370                           OCT      01370


009659: 15,2371           01371                           OCT      01371
009660: 15,2372           01372                           OCT      01372
009661: 15,2373           01373                           OCT      01373
009662: 15,2374           01374                           OCT      01374
009663: 15,2375           01375                           OCT      01375
009664: 15,2376           01376                           OCT      01376
009665: 15,2377           01377                           OCT      01377
009666: 15,2400           01400                           OCT      01400
009667: 15,2401           01401                           OCT      01401
009668: 15,2402           01402                           OCT      01402
009669: 15,2403           01403                           OCT      01403
009670: 15,2404           01404                           OCT      01404
009671: 15,2405           01405                           OCT      01405
009672: 15,2406           01406                           OCT      01406
009673: 15,2407           01407                           OCT      01407
009674: 15,2410           01410                           OCT      01410
009675: 15,2411           01411                           OCT      01411
009676: 15,2412           01412                           OCT      01412
009677: 15,2413           01413                           OCT      01413
009678: 15,2414           01414                           OCT      01414
009679: 15,2415           01415                           OCT      01415
009680: 15,2416           01416                           OCT      01416
009681: 15,2417           01417                           OCT      01417
009682: 15,2420           01420                           OCT      01420
009683: 15,2421           01421                           OCT      01421
009684: 15,2422           01422                           OCT      01422
009685: 15,2423           01423                           OCT      01423
009686: 15,2424           01424                           OCT      01424
009687: 15,2425           01425                           OCT      01425
009688: 15,2426           01426                           OCT      01426
009689: 15,2427           01427                           OCT      01427
009690: 15,2430           01430                           OCT      01430
009691: 15,2431           01431                           OCT      01431
009692: 15,2432           01432                           OCT      01432
009693: 15,2433           01433                           OCT      01433
009694: 15,2434           01434                           OCT      01434
009695: 15,2435           01435                           OCT      01435
009696: 15,2436           01436                           OCT      01436
009697: 15,2437           01437                           OCT      01437
009698: 15,2440           01440                           OCT      01440
009699: 15,2441           01441                           OCT      01441
009700: 15,2442           01442                           OCT      01442
009701: 15,2443           01443                           OCT      01443
009702: 15,2444           01444                           OCT      01444
009703: 15,2445           01445                           OCT      01445
009704: 15,2446           01446                           OCT      01446
009705: 15,2447           01447                           OCT      01447
009706: 15,2450           01450                           OCT      01450
009707: 15,2451           01451                           OCT      01451
009708: 15,2452           01452                           OCT      01452
009709: 15,2453           01453                           OCT      01453
009710: 15,2454           01454                           OCT      01454
009711: 15,2455           01455                           OCT      01455
009712: 15,2456           01456                           OCT      01456
009713: 15,2457           01457                           OCT      01457
009714: 15,2460           01460                           OCT      01460
009715: 15,2461           01461                           OCT      01461
009716: 15,2462           01462                           OCT      01462


009718: 15,2463           01463                           OCT      01463
009719: 15,2464           01464                           OCT      01464
009720: 15,2465           01465                           OCT      01465
009721: 15,2466           01466                           OCT      01466
009722: 15,2467           01467                           OCT      01467
009723: 15,2470           01470                           OCT      01470
009724: 15,2471           01471                           OCT      01471
009725: 15,2472           01472                           OCT      01472
009726: 15,2473           01473                           OCT      01473
009727: 15,2474           01474                           OCT      01474
009728: 15,2475           01475                           OCT      01475
009729: 15,2476           01476                           OCT      01476
009730: 15,2477           01477                           OCT      01477
009731: 15,2500           01500                           OCT      01500
009732: 15,2501           01501                           OCT      01501
009733: 15,2502           01502                           OCT      01502
009734: 15,2503           01503                           OCT      01503
009735: 15,2504           01504                           OCT      01504
009736: 15,2505           01505                           OCT      01505
009737: 15,2506           01506                           OCT      01506
009738: 15,2507           01507                           OCT      01507
009739: 15,2510           01510                           OCT      01510
009740: 15,2511           01511                           OCT      01511
009741: 15,2512           01512                           OCT      01512
009742: 15,2513           01513                           OCT      01513
009743: 15,2514           01514                           OCT      01514
009744: 15,2515           01515                           OCT      01515
009745: 15,2516           01516                           OCT      01516
009746: 15,2517           01517                           OCT      01517
009747: 15,2520           01520                           OCT      01520
009748: 15,2521           01521                           OCT      01521
009749: 15,2522           01522                           OCT      01522
009750: 15,2523           01523                           OCT      01523
009751: 15,2524           01524                           OCT      01524
009752: 15,2525           01525                           OCT      01525
009753: 15,2526           01526                           OCT      01526
009754: 15,2527           01527                           OCT      01527
009755: 15,2530           01530                           OCT      01530
009756: 15,2531           01531                           OCT      01531
009757: 15,2532           01532                           OCT      01532
009758: 15,2533           01533                           OCT      01533
009759: 15,2534           01534                           OCT      01534
009760: 15,2535           01535                           OCT      01535
009761: 15,2536           01536                           OCT      01536
009762: 15,2537           01537                           OCT      01537
009763: 15,2540           01540                           OCT      01540
009764: 15,2541           01541                           OCT      01541
009765: 15,2542           01542                           OCT      01542
009766: 15,2543           01543                           OCT      01543
009767: 15,2544           01544                           OCT      01544
009768: 15,2545           01545                           OCT      01545
009769: 15,2546           01546                           OCT      01546
009770: 15,2547           01547                           OCT      01547
009771: 15,2550           01550                           OCT      01550
009772: 15,2551           01551                           OCT      01551
009773: 15,2552           01552                           OCT      01552
009774: 15,2553           01553                           OCT      01553
009775: 15,2554           01554                           OCT      01554


009777: 15,2555           01555                           OCT      01555
009778: 15,2556           01556                           OCT      01556
009779: 15,2557           01557                           OCT      01557
009780: 15,2560           01560                           OCT      01560
009781: 15,2561           01561                           OCT      01561
009782: 15,2562           01562                           OCT      01562
009783: 15,2563           01563                           OCT      01563
009784: 15,2564           01564                           OCT      01564
009785: 15,2565           01565                           OCT      01565
009786: 15,2566           01566                           OCT      01566
009787: 15,2567           01567                           OCT      01567
009788: 15,2570           01570                           OCT      01570
009789: 15,2571           01571                           OCT      01571
009790: 15,2572           01572                           OCT      01572
009791: 15,2573           01573                           OCT      01573
009792: 15,2574           01574                           OCT      01574
009793: 15,2575           01575                           OCT      01575
009794: 15,2576           01576                           OCT      01576
009795: 15,2577           01577                           OCT      01577
009796: 15,2600           01600                           OCT      01600
009797: 15,2601           01601                           OCT      01601
009798: 15,2602           01602                           OCT      01602
009799: 15,2603           01603                           OCT      01603
009800: 15,2604           01604                           OCT      01604
009801: 15,2605           01605                           OCT      01605
009802: 15,2606           01606                           OCT      01606
009803: 15,2607           01607                           OCT      01607
009804: 15,2610           01610                           OCT      01610
009805: 15,2611           01611                           OCT      01611
009806: 15,2612           01612                           OCT      01612
009807: 15,2613           01613                           OCT      01613
009808: 15,2614           01614                           OCT      01614
009809: 15,2615           01615                           OCT      01615
009810: 15,2616           01616                           OCT      01616
009811: 15,2617           01617                           OCT      01617
009812: 15,2620           01620                           OCT      01620
009813: 15,2621           01621                           OCT      01621
009814: 15,2622           01622                           OCT      01622
009815: 15,2623           01623                           OCT      01623
009816: 15,2624           01624                           OCT      01624
009817: 15,2625           01625                           OCT      01625
009818: 15,2626           01626                           OCT      01626
009819: 15,2627           01627                           OCT      01627
009820: 15,2630           01630                           OCT      01630
009821: 15,2631           01631                           OCT      01631
009822: 15,2632           01632                           OCT      01632
009823: 15,2633           01633                           OCT      01633
009824: 15,2634           01634                           OCT      01634
009825: 15,2635           01635                           OCT      01635
009826: 15,2636           01636                           OCT      01636
009827: 15,2637           01637                           OCT      01637
009828: 15,2640           01640                           OCT      01640
009829: 15,2641           01641                           OCT      01641
009830: 15,2642           01642                           OCT      01642
009831: 15,2643           01643                           OCT      01643
009832: 15,2644           01644                           OCT      01644
009833: 15,2645           01645                           OCT      01645
009834: 15,2646           01646                           OCT      01646


009836: 15,2647           01647                           OCT      01647
009837: 15,2650           01650                           OCT      01650
009838: 15,2651           01651                           OCT      01651
009839: 15,2652           01652                           OCT      01652
009840: 15,2653           01653                           OCT      01653
009841: 15,2654           01654                           OCT      01654
009842: 15,2655           01655                           OCT      01655
009843: 15,2656           01656                           OCT      01656
009844: 15,2657           01657                           OCT      01657
009845: 15,2660           01660                           OCT      01660
009846: 15,2661           01661                           OCT      01661
009847: 15,2662           01662                           OCT      01662
009848: 15,2663           01663                           OCT      01663
009849: 15,2664           01664                           OCT      01664
009850: 15,2665           01665                           OCT      01665
009851: 15,2666           01666                           OCT      01666
009852: 15,2667           01667                           OCT      01667
009853: 15,2670           01670                           OCT      01670
009854: 15,2671           01671                           OCT      01671
009855: 15,2672           01672                           OCT      01672
009856: 15,2673           01673                           OCT      01673
009857: 15,2674           01674                           OCT      01674
009858: 15,2675           01675                           OCT      01675
009859: 15,2676           01676                           OCT      01676
009860: 15,2677           01677                           OCT      01677
009861: 15,2700           01700                           OCT      01700
009862: 15,2701           01701                           OCT      01701
009863: 15,2702           01702                           OCT      01702
009864: 15,2703           01703                           OCT      01703
009865: 15,2704           01704                           OCT      01704
009866: 15,2705           01705                           OCT      01705
009867: 15,2706           01706                           OCT      01706
009868: 15,2707           01707                           OCT      01707
009869: 15,2710           01710                           OCT      01710
009870: 15,2711           01711                           OCT      01711
009871: 15,2712           01712                           OCT      01712
009872: 15,2713           01713                           OCT      01713
009873: 15,2714           01714                           OCT      01714
009874: 15,2715           01715                           OCT      01715
009875: 15,2716           01716                           OCT      01716
009876: 15,2717           01717                           OCT      01717
009877: 15,2720           01720                           OCT      01720
009878: 15,2721           01721                           OCT      01721
009879: 15,2722           01722                           OCT      01722
009880: 15,2723           01723                           OCT      01723
009881: 15,2724           01724                           OCT      01724
009882: 15,2725           01725                           OCT      01725
009883: 15,2726           01726                           OCT      01726
009884: 15,2727           01727                           OCT      01727
009885: 15,2730           01730                           OCT      01730
009886: 15,2731           01731                           OCT      01731
009887: 15,2732           01732                           OCT      01732
009888: 15,2733           01733                           OCT      01733
009889: 15,2734           01734                           OCT      01734
009890: 15,2735           01735                           OCT      01735
009891: 15,2736           01736                           OCT      01736
009892: 15,2737           01737                           OCT      01737
009893: 15,2740           01740                           OCT      01740


009895: 15,2741           01741                           OCT      01741
009896: 15,2742           01742                           OCT      01742
009897: 15,2743           01743                           OCT      01743
009898: 15,2744           01744                           OCT      01744
009899: 15,2745           01745                           OCT      01745
009900: 15,2746           01746                           OCT      01746
009901: 15,2747           01747                           OCT      01747
009902: 15,2750           01750                           OCT      01750
009903: 15,2751           01751                           OCT      01751
009904: 15,2752           01752                           OCT      01752
009905: 15,2753           01753                           OCT      01753
009906: 15,2754           01754                           OCT      01754
009907: 15,2755           01755                           OCT      01755
009908: 15,2756           01756                           OCT      01756
009909: 15,2757           01757                           OCT      01757
009910: 15,2760           01760                           OCT      01760
009911: 15,2761           01761                           OCT      01761
009912: 15,2762           01762                           OCT      01762
009913: 15,2763           01763                           OCT      01763
009914: 15,2764           01764                           OCT      01764
009915: 15,2765           01765                           OCT      01765
009916: 15,2766           01766                           OCT      01766
009917: 15,2767           01767                           OCT      01767
009918: 15,2770           01770                           OCT      01770
009919: 15,2771           01771                           OCT      01771
009920: 15,2772           01772                           OCT      01772
009921: 15,2773           01773                           OCT      01773
009922: 15,2774           01774                           OCT      01774
009923: 15,2775           01775                           OCT      01775
009924: 15,2776           01776                           OCT      01776
009925: 15,2777           01777                           OCT      01777
009926: 15,3000           02000                           OCT      02000
009927: 15,3001           02001                           OCT      02001
009928: 15,3002           02002                           OCT      02002
009929: 15,3003           02003                           OCT      02003
009930: 15,3004           02004                           OCT      02004
009931: 15,3005           02005                           OCT      02005
009932: 15,3006           02006                           OCT      02006
009933: 15,3007           02007                           OCT      02007
009934: 15,3010           02010                           OCT      02010
009935: 15,3011           02011                           OCT      02011
009936: 15,3012           02012                           OCT      02012
009937: 15,3013           02013                           OCT      02013
009938: 15,3014           02014                           OCT      02014
009939: 15,3015           02015                           OCT      02015
009940: 15,3016           02016                           OCT      02016
009941: 15,3017           02017                           OCT      02017
009942: 15,3020           02020                           OCT      02020
009943: 15,3021           02021                           OCT      02021
009944: 15,3022           02022                           OCT      02022
009945: 15,3023           02023                           OCT      02023
009946: 15,3024           02024                           OCT      02024
009947: 15,3025           02025                           OCT      02025
009948: 15,3026           02026                           OCT      02026
009949: 15,3027           02027                           OCT      02027
009950: 15,3030           02030                           OCT      02030
009951: 15,3031           02031                           OCT      02031
009952: 15,3032           02032                           OCT      02032


009954: 15,3033           02033                           OCT      02033
009955: 15,3034           02034                           OCT      02034
009956: 15,3035           02035                           OCT      02035
009957: 15,3036           02036                           OCT      02036
009958: 15,3037           02037                           OCT      02037
009959: 15,3040           02040                           OCT      02040
009960: 15,3041           02041                           OCT      02041
009961: 15,3042           02042                           OCT      02042
009962: 15,3043           02043                           OCT      02043
009963: 15,3044           02044                           OCT      02044
009964: 15,3045           02045                           OCT      02045
009965: 15,3046           02046                           OCT      02046
009966: 15,3047           02047                           OCT      02047
009967: 15,3050           02050                           OCT      02050
009968: 15,3051           02051                           OCT      02051
009969: 15,3052           02052                           OCT      02052
009970: 15,3053           02053                           OCT      02053
009971: 15,3054           02054                           OCT      02054
009972: 15,3055           02055                           OCT      02055
009973: 15,3056           02056                           OCT      02056
009974: 15,3057           02057                           OCT      02057
009975: 15,3060           02060                           OCT      02060
009976: 15,3061           02061                           OCT      02061
009977: 15,3062           02062                           OCT      02062
009978: 15,3063           02063                           OCT      02063
009979: 15,3064           02064                           OCT      02064
009980: 15,3065           02065                           OCT      02065
009981: 15,3066           02066                           OCT      02066
009982: 15,3067           02067                           OCT      02067
009983: 15,3070           02070                           OCT      02070
009984: 15,3071           02071                           OCT      02071
009985: 15,3072           02072                           OCT      02072
009986: 15,3073           02073                           OCT      02073
009987: 15,3074           02074                           OCT      02074
009988: 15,3075           02075                           OCT      02075
009989: 15,3076           02076                           OCT      02076
009990: 15,3077           02077                           OCT      02077
009991: 15,3100           02100                           OCT      02100
009992: 15,3101           02101                           OCT      02101
009993: 15,3102           02102                           OCT      02102
009994: 15,3103           02103                           OCT      02103
009995: 15,3104           02104                           OCT      02104
009996: 15,3105           02105                           OCT      02105
009997: 15,3106           02106                           OCT      02106
009998: 15,3107           02107                           OCT      02107
009999: 15,3110           02110                           OCT      02110
010000: 15,3111           02111                           OCT      02111
010001: 15,3112           02112                           OCT      02112
010002: 15,3113           02113                           OCT      02113
010003: 15,3114           02114                           OCT      02114
010004: 15,3115           02115                           OCT      02115
010005: 15,3116           02116                           OCT      02116
010006: 15,3117           02117                           OCT      02117
010007: 15,3120           02120                           OCT      02120
010008: 15,3121           02121                           OCT      02121
010009: 15,3122           02122                           OCT      02122
010010: 15,3123           02123                           OCT      02123
010011: 15,3124           02124                           OCT      02124


010013: 15,3125           02125                           OCT      02125
010014: 15,3126           02126                           OCT      02126
010015: 15,3127           02127                           OCT      02127
010016: 15,3130           02130                           OCT      02130
010017: 15,3131           02131                           OCT      02131
010018: 15,3132           02132                           OCT      02132
010019: 15,3133           02133                           OCT      02133
010020: 15,3134           02134                           OCT      02134
010021: 15,3135           02135                           OCT      02135
010022: 15,3136           02136                           OCT      02136
010023: 15,3137           02137                           OCT      02137
010024: 15,3140           02140                           OCT      02140
010025: 15,3141           02141                           OCT      02141
010026: 15,3142           02142                           OCT      02142
010027: 15,3143           02143                           OCT      02143
010028: 15,3144           02144                           OCT      02144
010029: 15,3145           02145                           OCT      02145
010030: 15,3146           02146                           OCT      02146
010031: 15,3147           02147                           OCT      02147
010032: 15,3150           02150                           OCT      02150
010033: 15,3151           02151                           OCT      02151
010034: 15,3152           02152                           OCT      02152
010035: 15,3153           02153                           OCT      02153
010036: 15,3154           02154                           OCT      02154
010037: 15,3155           02155                           OCT      02155
010038: 15,3156           02156                           OCT      02156
010039: 15,3157           02157                           OCT      02157
010040: 15,3160           02160                           OCT      02160
010041: 15,3161           02161                           OCT      02161
010042: 15,3162           02162                           OCT      02162
010043: 15,3163           02163                           OCT      02163
010044: 15,3164           02164                           OCT      02164
010045: 15,3165           02165                           OCT      02165
010046: 15,3166           02166                           OCT      02166
010047: 15,3167           02167                           OCT      02167
010048: 15,3170           02170                           OCT      02170
010049: 15,3171           02171                           OCT      02171
010050: 15,3172           02172                           OCT      02172
010051: 15,3173           02173                           OCT      02173
010052: 15,3174           02174                           OCT      02174
010053: 15,3175           02175                           OCT      02175
010054: 15,3176           02176                           OCT      02176
010055: 15,3177           02177                           OCT      02177
010056: 15,3200           02200                           OCT      02200
010057: 15,3201           02201                           OCT      02201
010058: 15,3202           02202                           OCT      02202
010059: 15,3203           02203                           OCT      02203
010060: 15,3204           02204                           OCT      02204
010061: 15,3205           02205                           OCT      02205
010062: 15,3206           02206                           OCT      02206
010063: 15,3207           02207                           OCT      02207
010064: 15,3210           02210                           OCT      02210
010065: 15,3211           02211                           OCT      02211
010066: 15,3212           02212                           OCT      02212
010067: 15,3213           02213                           OCT      02213
010068: 15,3214           02214                           OCT      02214
010069: 15,3215           02215                           OCT      02215
010070: 15,3216           02216                           OCT      02216


010072: 15,3217           02217                           OCT      02217
010073: 15,3220           02220                           OCT      02220
010074: 15,3221           02221                           OCT      02221
010075: 15,3222           02222                           OCT      02222
010076: 15,3223           02223                           OCT      02223
010077: 15,3224           02224                           OCT      02224
010078: 15,3225           02225                           OCT      02225
010079: 15,3226           02226                           OCT      02226
010080: 15,3227           02227                           OCT      02227
010081: 15,3230           02230                           OCT      02230
010082: 15,3231           02231                           OCT      02231
010083: 15,3232           02232                           OCT      02232
010084: 15,3233           02233                           OCT      02233
010085: 15,3234           02234                           OCT      02234
010086: 15,3235           02235                           OCT      02235
010087: 15,3236           02236                           OCT      02236
010088: 15,3237           02237                           OCT      02237
010089: 15,3240           02240                           OCT      02240
010090: 15,3241           02241                           OCT      02241
010091: 15,3242           02242                           OCT      02242
010092: 15,3243           02243                           OCT      02243
010093: 15,3244           02244                           OCT      02244
010094: 15,3245           02245                           OCT      02245
010095: 15,3246           02246                           OCT      02246
010096: 15,3247           02247                           OCT      02247
010097: 15,3250           02250                           OCT      02250
010098: 15,3251           02251                           OCT      02251
010099: 15,3252           02252                           OCT      02252
010100: 15,3253           02253                           OCT      02253
010101: 15,3254           02254                           OCT      02254
010102: 15,3255           02255                           OCT      02255
010103: 15,3256           02256                           OCT      02256
010104: 15,3257           02257                           OCT      02257
010105: 15,3260           02260                           OCT      02260
010106: 15,3261           02261                           OCT      02261
010107: 15,3262           02262                           OCT      02262
010108: 15,3263           02263                           OCT      02263
010109: 15,3264           02264                           OCT      02264
010110: 15,3265           02265                           OCT      02265
010111: 15,3266           02266                           OCT      02266
010112: 15,3267           02267                           OCT      02267
010113: 15,3270           02270                           OCT      02270
010114: 15,3271           02271                           OCT      02271
010115: 15,3272           02272                           OCT      02272
010116: 15,3273           02273                           OCT      02273
010117: 15,3274           02274                           OCT      02274
010118: 15,3275           02275                           OCT      02275
010119: 15,3276           02276                           OCT      02276
010120: 15,3277           02277                           OCT      02277
010121: 15,3300           02300                           OCT      02300
010122: 15,3301           02301                           OCT      02301
010123: 15,3302           02302                           OCT      02302
010124: 15,3303           02303                           OCT      02303
010125: 15,3304           02304                           OCT      02304
010126: 15,3305           02305                           OCT      02305
010127: 15,3306           02306                           OCT      02306
010128: 15,3307           02307                           OCT      02307
010129: 15,3310           02310                           OCT      02310


010131: 15,3311           02311                           OCT      02311
010132: 15,3312           02312                           OCT      02312
010133: 15,3313           02313                           OCT      02313
010134: 15,3314           02314                           OCT      02314
010135: 15,3315           02315                           OCT      02315
010136: 15,3316           02316                           OCT      02316
010137: 15,3317           02317                           OCT      02317
010138: 15,3320           02320                           OCT      02320
010139: 15,3321           02321                           OCT      02321
010140: 15,3322           02322                           OCT      02322
010141: 15,3323           02323                           OCT      02323
010142: 15,3324           02324                           OCT      02324
010143: 15,3325           02325                           OCT      02325
010144: 15,3326           02326                           OCT      02326
010145: 15,3327           02327                           OCT      02327
010146: 15,3330           02330                           OCT      02330
010147: 15,3331           02331                           OCT      02331
010148: 15,3332           02332                           OCT      02332
010149: 15,3333           02333                           OCT      02333
010150: 15,3334           02334                           OCT      02334
010151: 15,3335           02335                           OCT      02335
010152: 15,3336           02336                           OCT      02336
010153: 15,3337           02337                           OCT      02337
010154: 15,3340           02340                           OCT      02340
010155: 15,3341           02341                           OCT      02341
010156: 15,3342           02342                           OCT      02342
010157: 15,3343           02343                           OCT      02343
010158: 15,3344           02344                           OCT      02344
010159: 15,3345           02345                           OCT      02345
010160: 15,3346           02346                           OCT      02346
010161: 15,3347           02347                           OCT      02347
010162: 15,3350           02350                           OCT      02350
010163: 15,3351           02351                           OCT      02351
010164: 15,3352           02352                           OCT      02352
010165: 15,3353           02353                           OCT      02353
010166: 15,3354           02354                           OCT      02354
010167: 15,3355           02355                           OCT      02355
010168: 15,3356           02356                           OCT      02356
010169: 15,3357           02357                           OCT      02357
010170: 15,3360           02360                           OCT      02360
010171: 15,3361           02361                           OCT      02361
010172: 15,3362           02362                           OCT      02362
010173: 15,3363           02363                           OCT      02363
010174: 15,3364           02364                           OCT      02364
010175: 15,3365           02365                           OCT      02365
010176: 15,3366           02366                           OCT      02366
010177: 15,3367           02367                           OCT      02367
010178: 15,3370           02370                           OCT      02370
010179: 15,3371           02371                           OCT      02371
010180: 15,3372           02372                           OCT      02372
010181: 15,3373           02373                           OCT      02373
010182: 15,3374           02374                           OCT      02374
010183: 15,3375           02375                           OCT      02375
010184: 15,3376           02376                           OCT      02376
010185: 15,3377           02377                           OCT      02377
010186: 15,3400           02400                           OCT      02400
010187: 15,3401           02401                           OCT      02401
010188: 15,3402           02402                           OCT      02402


010190: 15,3403           02403                           OCT      02403
010191: 15,3404           02404                           OCT      02404
010192: 15,3405           02405                           OCT      02405
010193: 15,3406           02406                           OCT      02406
010194: 15,3407           02407                           OCT      02407
010195: 15,3410           02410                           OCT      02410
010196: 15,3411           02411                           OCT      02411
010197: 15,3412           02412                           OCT      02412
010198: 15,3413           02413                           OCT      02413
010199: 15,3414           02414                           OCT      02414
010200: 15,3415           02415                           OCT      02415
010201: 15,3416           02416                           OCT      02416
010202: 15,3417           02417                           OCT      02417
010203: 15,3420           02420                           OCT      02420
010204: 15,3421           02421                           OCT      02421
010205: 15,3422           02422                           OCT      02422
010206: 15,3423           02423                           OCT      02423
010207: 15,3424           02424                           OCT      02424
010208: 15,3425           02425                           OCT      02425
010209: 15,3426           02426                           OCT      02426
010210: 15,3427           02427                           OCT      02427
010211: 15,3430           02430                           OCT      02430
010212: 15,3431           02431                           OCT      02431
010213: 15,3432           02432                           OCT      02432
010214: 15,3433           02433                           OCT      02433
010215: 15,3434           02434                           OCT      02434
010216: 15,3435           02435                           OCT      02435
010217: 15,3436           02436                           OCT      02436
010218: 15,3437           02437                           OCT      02437
010219: 15,3440           02440                           OCT      02440
010220: 15,3441           02441                           OCT      02441
010221: 15,3442           02442                           OCT      02442
010222: 15,3443           02443                           OCT      02443
010223: 15,3444           02444                           OCT      02444
010224: 15,3445           02445                           OCT      02445
010225: 15,3446           02446                           OCT      02446
010226: 15,3447           02447                           OCT      02447
010227: 15,3450           02450                           OCT      02450
010228: 15,3451           02451                           OCT      02451
010229: 15,3452           02452                           OCT      02452
010230: 15,3453           02453                           OCT      02453
010231: 15,3454           02454                           OCT      02454
010232: 15,3455           02455                           OCT      02455
010233: 15,3456           02456                           OCT      02456
010234: 15,3457           02457                           OCT      02457
010235: 15,3460           02460                           OCT      02460
010236: 15,3461           02461                           OCT      02461
010237: 15,3462           02462                           OCT      02462
010238: 15,3463           02463                           OCT      02463
010239: 15,3464           02464                           OCT      02464
010240: 15,3465           02465                           OCT      02465
010241: 15,3466           02466                           OCT      02466
010242: 15,3467           02467                           OCT      02467
010243: 15,3470           02470                           OCT      02470
010244: 15,3471           02471                           OCT      02471
010245: 15,3472           02472                           OCT      02472
010246: 15,3473           02473                           OCT      02473
010247: 15,3474           02474                           OCT      02474


010249: 15,3475           02475                           OCT      02475
010250: 15,3476           02476                           OCT      02476
010251: 15,3477           02477                           OCT      02477
010252: 15,3500           02500                           OCT      02500
010253: 15,3501           02501                           OCT      02501
010254: 15,3502           02502                           OCT      02502
010255: 15,3503           02503                           OCT      02503
010256: 15,3504           02504                           OCT      02504
010257: 15,3505           02505                           OCT      02505
010258: 15,3506           02506                           OCT      02506
010259: 15,3507           02507                           OCT      02507
010260: 15,3510           02510                           OCT      02510
010261: 15,3511           02511                           OCT      02511
010262: 15,3512           02512                           OCT      02512
010263: 15,3513           02513                           OCT      02513
010264: 15,3514           02514                           OCT      02514
010265: 15,3515           02515                           OCT      02515
010266: 15,3516           02516                           OCT      02516
010267: 15,3517           02517                           OCT      02517
010268: 15,3520           02520                           OCT      02520
010269: 15,3521           02521                           OCT      02521
010270: 15,3522           02522                           OCT      02522
010271: 15,3523           02523                           OCT      02523
010272: 15,3524           02524                           OCT      02524
010273: 15,3525           02525                           OCT      02525
010274: 15,3526           02526                           OCT      02526
010275: 15,3527           02527                           OCT      02527
010276: 15,3530           02530                           OCT      02530
010277: 15,3531           02531                           OCT      02531
010278: 15,3532           02532                           OCT      02532
010279: 15,3533           02533                           OCT      02533
010280: 15,3534           02534                           OCT      02534
010281: 15,3535           02535                           OCT      02535
010282: 15,3536           02536                           OCT      02536
010283: 15,3537           02537                           OCT      02537
010284: 15,3540           02540                           OCT      02540
010285: 15,3541           02541                           OCT      02541
010286: 15,3542           02542                           OCT      02542
010287: 15,3543           02543                           OCT      02543
010288: 15,3544           02544                           OCT      02544
010289: 15,3545           02545                           OCT      02545
010290: 15,3546           02546                           OCT      02546
010291: 15,3547           02547                           OCT      02547
010292: 15,3550           02550                           OCT      02550
010293: 15,3551           02551                           OCT      02551
010294: 15,3552           02552                           OCT      02552
010295: 15,3553           02553                           OCT      02553
010296: 15,3554           02554                           OCT      02554
010297: 15,3555           02555                           OCT      02555
010298: 15,3556           02556                           OCT      02556
010299: 15,3557           02557                           OCT      02557
010300: 15,3560           02560                           OCT      02560
010301: 15,3561           02561                           OCT      02561
010302: 15,3562           02562                           OCT      02562
010303: 15,3563           02563                           OCT      02563
010304: 15,3564           02564                           OCT      02564
010305: 15,3565           02565                           OCT      02565
010306: 15,3566           02566                           OCT      02566


010308: 15,3567           02567                           OCT      02567
010309: 15,3570           02570                           OCT      02570
010310: 15,3571           02571                           OCT      02571
010311: 15,3572           02572                           OCT      02572
010312: 15,3573           02573                           OCT      02573
010313: 15,3574           02574                           OCT      02574
010314: 15,3575           02575                           OCT      02575
010315: 15,3576           02576                           OCT      02576
010316: 15,3577           02577                           OCT      02577
010317: 15,3600           02600                           OCT      02600
010318: 15,3601           02601                           OCT      02601
010319: 15,3602           02602                           OCT      02602
010320: 15,3603           02603                           OCT      02603
010321: 15,3604           02604                           OCT      02604
010322: 15,3605           02605                           OCT      02605
010323: 15,3606           02606                           OCT      02606
010324: 15,3607           02607                           OCT      02607
010325: 15,3610           02610                           OCT      02610
010326: 15,3611           02611                           OCT      02611
010327: 15,3612           02612                           OCT      02612
010328: 15,3613           02613                           OCT      02613
010329: 15,3614           02614                           OCT      02614
010330: 15,3615           02615                           OCT      02615
010331: 15,3616           02616                           OCT      02616
010332: 15,3617           02617                           OCT      02617
010333: 15,3620           02620                           OCT      02620
010334: 15,3621           02621                           OCT      02621
010335: 15,3622           02622                           OCT      02622
010336: 15,3623           02623                           OCT      02623
010337: 15,3624           02624                           OCT      02624
010338: 15,3625           02625                           OCT      02625
010339: 15,3626           02626                           OCT      02626
010340: 15,3627           02627                           OCT      02627
010341: 15,3630           02630                           OCT      02630
010342: 15,3631           02631                           OCT      02631
010343: 15,3632           02632                           OCT      02632
010344: 15,3633           02633                           OCT      02633
010345: 15,3634           02634                           OCT      02634
010346: 15,3635           02635                           OCT      02635
010347: 15,3636           02636                           OCT      02636
010348: 15,3637           02637                           OCT      02637
010349: 15,3640           02640                           OCT      02640
010350: 15,3641           02641                           OCT      02641
010351: 15,3642           02642                           OCT      02642
010352: 15,3643           02643                           OCT      02643
010353: 15,3644           02644                           OCT      02644
010354: 15,3645           02645                           OCT      02645
010355: 15,3646           02646                           OCT      02646
010356: 15,3647           02647                           OCT      02647
010357: 15,3650           02650                           OCT      02650
010358: 15,3651           02651                           OCT      02651
010359: 15,3652           02652                           OCT      02652
010360: 15,3653           02653                           OCT      02653
010361: 15,3654           02654                           OCT      02654
010362: 15,3655           02655                           OCT      02655
010363: 15,3656           02656                           OCT      02656
010364: 15,3657           02657                           OCT      02657
010365: 15,3660           02660                           OCT      02660


010367: 15,3661           02661                           OCT      02661
010368: 15,3662           02662                           OCT      02662
010369: 15,3663           02663                           OCT      02663
010370: 15,3664           02664                           OCT      02664
010371: 15,3665           02665                           OCT      02665
010372: 15,3666           02666                           OCT      02666
010373: 15,3667           02667                           OCT      02667
010374: 15,3670           02670                           OCT      02670
010375: 15,3671           02671                           OCT      02671
010376: 15,3672           02672                           OCT      02672
010377: 15,3673           02673                           OCT      02673
010378: 15,3674           02674                           OCT      02674
010379: 15,3675           02675                           OCT      02675
010380: 15,3676           02676                           OCT      02676
010381: 15,3677           02677                           OCT      02677
010382: 15,3700           02700                           OCT      02700
010383: 15,3701           02701                           OCT      02701
010384: 15,3702           02702                           OCT      02702
010385: 15,3703           02703                           OCT      02703
010386: 15,3704           02704                           OCT      02704
010387: 15,3705           02705                           OCT      02705
010388: 15,3706           02706                           OCT      02706
010389: 15,3707           02707                           OCT      02707
010390: 15,3710           02710                           OCT      02710
010391: 15,3711           02711                           OCT      02711
010392: 15,3712           02712                           OCT      02712
010393: 15,3713           02713                           OCT      02713
010394: 15,3714           02714                           OCT      02714
010395: 15,3715           02715                           OCT      02715
010396: 15,3716           02716                           OCT      02716
010397: 15,3717           02717                           OCT      02717
010398: 15,3720           02720                           OCT      02720
010399: 15,3721           02721                           OCT      02721
010400: 15,3722           02722                           OCT      02722
010401: 15,3723           02723                           OCT      02723
010402: 15,3724           02724                           OCT      02724
010403: 15,3725           02725                           OCT      02725
010404: 15,3726           02726                           OCT      02726
010405: 15,3727           02727                           OCT      02727
010406: 15,3730           02730                           OCT      02730
010407: 15,3731           02731                           OCT      02731
010408: 15,3732           02732                           OCT      02732
010409: 15,3733           02733                           OCT      02733
010410: 15,3734           02734                           OCT      02734
010411: 15,3735           02735                           OCT      02735
010412: 15,3736           02736                           OCT      02736
010413: 15,3737           02737                           OCT      02737
010414: 15,3740           02740                           OCT      02740
010415: 15,3741           02741                           OCT      02741
010416: 15,3742           02742                           OCT      02742
010417: 15,3743           02743                           OCT      02743
010418: 15,3744           02744                           OCT      02744
010419: 15,3745           02745                           OCT      02745
010420: 15,3746           02746                           OCT      02746
010421: 15,3747           02747                           OCT      02747
010422: 15,3750           02750                           OCT      02750
010423: 15,3751           02751                           OCT      02751
010424: 15,3752           02752                           OCT      02752


010426: 15,3753           02753                           OCT      02753
010427: 15,3754           02754                           OCT      02754
010428: 15,3755           02755                           OCT      02755
010429: 15,3756           02756                           OCT      02756
010430: 15,3757           02757                           OCT      02757
010431: 15,3760           02760                           OCT      02760
010432: 15,3761           02761                           OCT      02761
010433: 15,3762           02762                           OCT      02762
010434: 15,3763           02763                           OCT      02763
010435: 15,3764           02764                           OCT      02764
010436: 15,3765           02765                           OCT      02765
010437: 15,3766           02766                           OCT      02766
010438: 15,3767           02767                           OCT      02767
010439: 15,3770           02770                           OCT      02770
010440: 15,3771           02771                           OCT      02771
010441: 15,3772           02772                           OCT      02772
010442: 15,3773           02773                           OCT      02773
010443: 15,3774           02774                           OCT      02774
010444: 15,3775           02775                           OCT      02775
010445: 15,3776           02776                           OCT      02776
Warning:  Next code may overflow storage.
010446: 15,3777           02777                           OCT      02777

End of include-file AM_DEMONSTRATION.agc.  Parent file is MAIN.agc


