
Source Code


000002:                                                                                                  ## Copyright:   Public domain.
000003:                                                                                                  ## Filename:    MAIN.agc
000004:                                                                                                  ## Purpose:     Part of the source code for SUPER JOB, a program developed
000005:                                                                                                  ##              at Raytheon to exercise the Auxiliary Memory for the AGC.
000006:                                                                                                  ##              It appears to have been developed from scratch, and shares
000007:                                                                                                  ##              no heritage with any programs from MIT. It was also built
000008:                                                                                                  ##              with a Raytheon assembler rather than YUL or GAP.
000009:                                                                                                  ## Reference:   pp. D-4 - D-35
000010:                                                                                                  ## Assembler:   yaYUL
000011:                                                                                                  ## Contact:     Ron Burkey <info@sandroid.org>.
000012:                                                                                                  ## Website:     https://www.ibiblio.org/apollo/index.html
000013:                                                                                                  ## Page Scans:  http://www.ibiblio.org/apollo/Documents/R68-4125-Volume2.pdf
000014:                                                                                                  ## Mod history: 2017-01-27 MAS  Created and transcribed, then corrected
000015:                                                                                                  ##                              errors until assembly succeeded. Octals
000016:                                                                                                  ##                              have not yet been extracted, so errors
000017:                                                                                                  ##                              almost certainly remain.
000018:                                                                                                  ##              2017-01-28 MAS  Corrected errors found by counting lines
000019:                                                                                                  ##                              on each page (there should be 58).
000020:                                                                                                  ##              2017-01-29 MAS  Fixed a few errors identified during
000021:                                                                                                  ##                              octal transcription.
000022:                                                                                                  ##              2017-01-30 MAS  Fixed a transcription error in the octals
000023:                                                                                                  ##                              noticed while transcribing the inline
000024:                                                                                                  ##                              assembled octals. There are probably more
000025:                                                                                                  ##                              of those left, but for now the assembly
000026:                                                                                                  ##                              matches the binsource.
000027:                                                                                                  ##              2017-02-02 MAS  Did a quick visual proofing pass over the
000028:                                                                                                  ##                              comments and fixed a few errors.
000029:                                                                                                  ##              2017-03-14 MAS  Fixed a comment text typo.
000030:
000031:                                                                                                  ## Page D-4 (continued)
000032:    4000                                           SETLOC   FF024000
000033:    4000           00004        GOJAM              INHINT                                         #  4000
000034:    4001           06017                           TC       GOJAMPR                               #  4001
000035:    4002           00021        VBCDEL             OCT      00021                                 #  VERB CODE
000036:    4003           00001        ONE                OCT      00001
000037:    4004           50017        T6RUPT             RESUME                                         #  4004
000038:    4005           00000        ZERO               OCT      00000
000039:    4006           01010        D520               OCT      01010
000040:    4007           50000        VBB                OCT      50000                                 #  CODE TO BLANK DSKY VERB
000041:    4010           50017        T5RUPT             RESUME                                         #  4010
000042:    4011           00030        THIRTY             OCT      00030
000043:    4012           00037        FIRST5             OCT      00037
000044:    4013           00034        ENTRCDEL           OCT      00034                                 #  ENTER CODE


000046:    4014           14444        T3RUPT             TCF      T3RPTPR                               #  4014
000047:    4015           00002        TWO                OCT      00002
000048:    4016           00032        HGHTST+1           OCT      00032                                 #  HIGHEST TEST +1
000049:    4017           00360        BLANKNRL           OCT      00360
000050:    4020           14462        T4RUPT             TCF      T4RPTPR                               #  4020
000051:    4021           00017        OC17               OCT      00017
000052:    4022           00012        D10                OCT      00012
000053:    4023           01740        CENTERL            OCT      01740
000054:    4024           14107        K1RUPT             TCF      KYPROC1L                              #  4024
000055:    4025           00100        OPERCDL            OCT      00100                                 #  CODE FOR OPERATOR ERROR
000056:    4026           00040        FLASHL             OCT      00040
000057:    4027           77737        NOFLASHL           OCT      77737
000058:    4030           14115        K2RUPT             TCF      KYPROC2L                              #  4030
000059:    4031           07446        MDISPLA            TC       UPDISPLA                              #  XFER TO DISPLAY FOR MIKE
000060:    4032           05224        JMPTBL             TC       V01                                   #  TURN ON ACM AND ATM
000061:    4033           05321                           TC       V02                                   #  TURN ON ACM
000062:    4034           05362                           TC       V03                                   #  TURN OFF ACM AND ATM
000063:    4035           05411                           TC       V04                                   #  TURN OFF ATM
000064:    4036           05435                           TC       V05                                   #  TURN ATM FROM ON TO STANDBY
000065:    4037           05504                           TC       V0607                                 #  DSKY  DEMONSTRATION  NO ERRORS
000066:    4040           05504                           TC       V0607                                 #  DSKY  DEMONSTRATION  CORRECTABLE
000067:    4041           05510                           TC       V08                                   #  UNCORRECTABLE ERROR LOCATION 3000
000068:    4042           05523                           TC       V09                                   #  4 BANKS WITH SUM CHECK
000069:    4043           07346                           TC       V10                                   #  CORRECTABLE ERRORS
000070:    4044           05526                           TC       V11                                   #  SHORT TAPE BANK
000071:    4045           05531                           TC       V12                                   #  LONG TAPE BANK
000072:    4046           05534                           TC       V13                                   #  NONEXISTENT TAPE BANK
000073:    4047           07032                           TC       V14                                   #  SINGLE BANK TRIPLEX
000074:    4050           07040                           TC       V15                                   #  SINGLE BANK SIMPLEX
000075:    4051           07301                           TC       V16                                   #  4 BK XFER WITH 1 BK REWRITE
000076:    4052           05537                           TC       V17                                   #  AM PARITY GOJAM
000077:    4053           04471                           TC       V18                                   #  GENERATE TC TRAP GOJAM
000078:    4054           04475                           TC       V19                                   #  GENERATE RUPTLOC GOJAM
000079:    4055           04501                           TC       V20                                   #  GENERATE NWATCH  GOJAM
000080:    4056           07617                           TC       V21                                   #  MU 4  4000 WORD PROGRAM
000081:    4057           07623                           TC       V22                                   #  PAC TO MU4 TO MU5 TO ATM TO MU5 CHK
000082:    4060           04060                           TC       +0                                    #        V23
000083:    4061           04061                           TC       +0                                    #        V24
000084:    4062           04062                           TC       +0                                    #        V25
000085:    4063           52025        VB0F               OCT      52025                                 #  CODE FOR 0 LEAST SIG DIGIT
000086:    4064           52003                           OCT      52003                                 #  CODE FOR 1 LEAST SIG DIGIT
000087:    4065           52031                           OCT      52031                                 #  CODE FOR 2 LEAST SIG DIGIT
000088:    4066           52033                           OCT      52033                                 #  CODE FOR 3 LEAST SIG DIGIT
000089:    4067           52017                           OCT      52017                                 #  CODE FOR 4 LEAST SIG DIGIT
000090:    4070           52036                           OCT      52036                                 #  CODE FOR 5 LEAST SIG DIGIT
000091:    4071           52034                           OCT      52034                                 #  CODE FOR 6 LEAST SIG DIGIT
000092:    4072           52023                           OCT      52023                                 #  CODE FOR 7 LEAST SIG DIGIT
000093:    4073           52035                           OCT      52035                                 #  CODE FOR 8 LEAST SIG DIGIT
000094:    4074           52037                           OCT      52037                                 #  CODE FOR 9 LEAST SIG DIGIT
000095:    4075           53240        V0BF               OCT      53240                                 #  CODE FOR 0 MOST SIG DIGIT
000096:    4076           52140                           OCT      52140                                 #  CODE FOR 1 MOST SIG DIGIT
000097:    4077           53440                           OCT      53440                                 #  CODE FOR 2 MOST SIG DIGIT
000098:    4100           53540                           OCT      53540                                 #  CODE FOR 3 MOST SIG DIGIT
000099:    4101           52740                           OCT      52740                                 #  CODE FOR 4 MOST SIG DIGIT
000100:    4102           53700                           OCT      53700                                 #  CODE FOR 5 MOST SIG DIGIT
000101:    4103           53600                           OCT      53600                                 #  CODE FOR 6 MOST SIG DIGIT
000102:    4104           53140                           OCT      53140                                 #  CODE FOR 7 MOST SIG DIGIT
000103:    4105           53640                           OCT      53640                                 #  CODE FOR 8 MOST SIG DIGIT


000105:    4106           53740                           OCT      53740                                 #  CODE FOR 9 MOST SIG DIGIT
000106:    4107           52011        KYPROC1L           DXCH     ARUPT                                 #  START PROCESSING MAIN DSKY
000107:    4110           00006                           EXTEND
000108:    4111           22012                           QXCH     QRUPT
000109:    4112           00006                           EXTEND
000110:    4113           00015                           READ     CH15
000111:    4114           04122                           TC       PROCL
000112:    4115           52011        KYPROC2L           DXCH     ARUPT                                 #  START PROCESSING NAV DSKY
000113:    4116           00006                           EXTEND
000114:    4117           22012                           QXCH     QRUPT
000115:    4120           00006                           EXTEND
000116:    4121           00016                           READ     CH16
000117:    4122           74012        PROCL              MSK      FIRST5
000118:    4123           54110                           TS       TEMP1L                                #  STORE DSKY OUTPUT CODE
000119:    4124           40110                           CS       TEMP1L
000120:    4125           64321                           AD       ERRSTL                                #  ERROR RESET CODE
000121:    4126           10000                           CCS      A                                     #  WAS ERROR RESET HIT+
000122:    4127           04135                           TC       +6                                    #  NO
000123:    4130           06000                           TC       MERR
000124:    4131           04135                           TC       +4                                    #  NO
000125:    4132           30007                           CA       ZEROS                                 #  YES
000126:    4133           54166                           TS       SWITCH
000127:    4134           04171                           TC       PRERSTL
000128:    4135           40110                           CS       TEMP1L
000129:    4136           64002                           AD       VBCDEL                                #  VERB CODE
000130:    4137           10000                           CCS      A                                     #  WAS VERB HIT
000131:    4140           04204                           TC       NONVERBL                              #  NO
000132:    4141           06000                           TC       MERR                                  #  NO
000133:    4142           04204                           TC       NONVERBL                              #  NO
000134:    4143           30007                           CA       ZEROS                                 #  YES
000135:    4144           54166                           TS       SWITCH
000136:    4145           00006                           EXTEND
000137:    4146           00027                           READ     CH27                                  #  CLEAR CONIN
000138:    4147           36110                           CA       FEXTA                                 #  LOAD BITS 7 AND 6 IN FEXT
000139:    4150           00006                           EXTEND
000140:    4151           01007                           WRITE    CH7
000141:    4152           34003                           CA       ONE
000142:    4153           54114                           TS       VERBFFL
000143:    4154           34005                           CA       ZERO
000144:    4155           54115                           TS       VERBREGL                              #  CLEAR TEST NO
000145:    4156           54107                           TS       ZZTAG
000146:    4157           54106                           TS       DCNTL                                 #  CLEAR DIGIT COUNTER
000147:    4160           34007        VBBLNK             CA       VBB
000148:    4161           00006                           EXTEND
000149:    4162           01010                           WRITE    CH10                                  #  BLANKS VERB ON DSKY
000150:    4163           34006        CH10RST            CA       D520                                  #  START OF 20MS DELAY TO CLEAR CH 10
000151:    4164           10000                           CCS      A
000152:    4165           04164                           TC       -1                                    #  ACC IS NOT ZERO
000153:    4166           00006                           EXTEND                                         #  ACC IS ZERO
000154:    4167           01010                           WRITE    CH10                                  #  CLEAR CH 10
000155:    4170           04454                           TC       RETURNL
000156:    4171           34005        PRERSTL            CA       ZERO                                  #  ERROR RESET FROM DSKY
000157:    4172           54115                           TS       VERBREGL
000158:    4173           54114                           TS       VERBFFL
000159:    4174           54106                           TS       DCNTL
000160:    4175           54107                           TS       ZZTAG
000161:    4176           00006                           EXTEND                                         #  TURNS FLASH OFF
000162:    4177           00011                           READ     CH11


000164:    4200           74320                           MSK      OUTCOML
000165:    4201           00006                           EXTEND
000166:    4202           01011                           WRITE    CH11
000167:    4203           04160                           TC       VBBLNK
000168:    4204           44003        NONVERBL           CS       ONE
000169:    4205           60107                           AD       ZZTAG
000170:    4206           10000                           CCS      A
000171:    4207           04213                           TC       +4
000172:    4210           04213                           TC       +3
000173:    4211           04213                           TC       +2
000174:    4212           07404                           TC       ZZPROC
000175:    4213           10114                           CCS      VERBFFL                               #  HAD VERB PREVIOUSLY BEEN HIT
000176:    4214           04220                           TC       +4                                    #  YES
000177:    4215           04435                           TC       OPERROR                               #  NO
000178:    4216           04435                           TC       OPERROR                               #  NO
000179:    4217           04435                           TC       OPERROR                               #  NO
000180:    4220           40110                           CS       TEMP1L
000181:    4221           74011                           MSK      THIRTY
000182:    4222           10000                           CCS      A                                     #  WAS A DIGIT HIT+
000183:    4223           04366                           TC       PROCDIGT                              #  YES
000184:    4224           40110                           CS       TEMP1L                                #  NO
000185:    4225           64013                           AD       ENTRCDEL
000186:    4226           10000                           CCS      A                                     #  WAS ENTER HIT+
000187:    4227           04435                           TC       OPERROR                               #  NO
000188:    4230           04435                           TC       OPERROR                               #  NO
000189:    4231           04435                           TC       OPERROR                               #  NO
000190:    4232           40106                           CS       DCNTL                                 #  YES
000191:    4233           64015                           AD       TWO
000192:    4234           10000                           CCS      A                                     #  WERE TWO DIGITS PREVIOUSLY HIT+
000193:    4235           04435                           TC       OPERROR                               #  NO
000194:    4236           04435                           TC       OPERROR                               #  NO
000195:    4237           04435                           TC       OPERROR                               #  NO
000196:    4240           10115                           CCS      VERBREGL                              #  YES   WAS V00 HIT
000197:    4241           04244                           TC       +3                                    #        NO
000198:    4242           24107                           INCR     ZZTAG                                 #        YES
000199:    4243           07363                           TC       V00PROC
000200:    4244           44016                           CS       HGHTST+1
000201:    4245           60115                           AD       VERBREGL
000202:    4246           10000                           CCS      A                                     #  IS VERB CODE LEGAL+
000203:    4247           04435                           TC       OPERROR                               #  NO
000204:    4250           06000                           TC       MERR
000205:    4251           04253                           TC       +2                                    #  YES
000206:    4252           04435                           TC       OPERROR                               #  NO
000207:    4253           00006                           EXTEND
000208:    4254           00011                           READ     CH11
000209:    4255           74027                           MASK     NOFLASHL
000210:    4256           00006                           EXTEND
000211:    4257           01011                           WRITE    CH11                                  #  TURNS FLASH OFF
000212:    4260           34005                           CA       ZERO
000213:    4261           54106                           TS       DCNTL
000214:    4262           54114                           TS       VERBFFL
000215:    4263           34017                           CA       BLANKNRL
000216:    4264           54071                           TS       STATUS
000217:    4265           50115                           NDX      VERBREGL
000218:    4266           34031                           CA       JMPTBL     -1
000219:    4267           54017                           TS       BRUPT
000220:    4270           05146                           TC       AMSTAT
000221:    4271           50115                           INDEX    VERBREGL


000223:    4272           34275                           CA       STARTBLE   -6
000224:    4273           54120                           TS       IDSTARTL                              #  GET IDSTART
000225:    4274           50115                           INDEX    VERBREGL
000226:    4275           34316                           CA       STOPTBLE   -6
000227:    4276           54121                           TS       IDSTOPL                               #  GET IDSTOP
000228:    4277           50115                           INDEX    VERBREGL
000229:    4300           34337                           CA       CH25TBLE   -6
000230:    4301           54124                           TS       CH25LOAD                              #  GET CONOUT TO BE LOADED IN REGISTER
000231:    4302           50017                           RESUME
000232:    4303           00024        STARTBLE           OCT      00024                                 #  START TABLE   V06
000233:    4304           04025                           OCT      04025                                 #                V07
000234:    4305           10026                           OCT      10026                                 #                V08
000235:    4306           14124                           OCT      14124                                 #                V09
000236:    4307           20024                           OCT      20024                                 #                V10
000237:    4310           24025                           OCT      24025                                 #                V11
000238:    4311           30026                           OCT      30026                                 #                V12
000239:    4312           34127                           OCT      34127
000240:    4313           40001                           OCT      40001                                 #                V14
000241:    4314           50000                           OCT      50000                                 #                V15
000242:    4315           40001                           OCT      40001                                 #                V16
000243:    4316           37774        4TOGO              OCT      37774
000244:    4317           37716        50TOGO             OCT      37716
000245:    4320           00400        OUTCOML            OCT      00400
000246:    4321           00022        ERRSTL             OCT      00022                                 #  ERROR RESET CODE
000247:    4322           14020                           OCT      14020                                 #                V21
000248:    4323           51005                           OCT      51005                                 #                V22
000249:    4324           00000        STOPTBLE           OCT      00000                                 #  STOP TABLE    V06
000250:    4325           00000                           OCT      00000                                 #                V07
000251:    4326           00000                           OCT      00000                                 #                V08
000252:    4327           00030                           OCT      00030                                 #                V09
000253:    4330           00000                           OCT      00000                                 #                V10
000254:    4331           00000                           OCT      00000                                 #                V11
000255:    4332           00000                           OCT      00000                                 #                V12
000256:    4333           00000                           OCT      00000                                 #                V13
000257:    4334           00006                           OCT      00006                                 #                V14
000258:    4335           00006                           OCT      00006                                 #                V15
000259:    4336           00000                           OCT      00000                                 #                V16
000260:    4337           77777        ALL7SL             OCT      77777
000261:    4340           66666        ALL6SL             OCT      66666
000262:    4341           00037        MASKAA             OCT      37
000263:    4342           00012        NUMAA              OCT      12
000264:    4343           00024                           OCT      00024                                 #                V21
000265:    4344           00000                           OCT      00000                                 #                V22
000266:    4345           02000        CH25TBLE           OCT      02000                                 #  CH 25 LOAD TABLE   V06
000267:    4346           02000                           OCT      02000                                 #                V07
000268:    4347           02000                           OCT      02000                                 #                V08
000269:    4350           02000                           OCT      02000                                 #                V09
000270:    4351           02000                           OCT      02000                                 #                V10
000271:    4352           02000                           OCT      02000                                 #                V11
000272:    4353           02000                           OCT      02000                                 #                V12
000273:    4354           02000                           OCT      02000                                 #                V13
000274:    4355           03000                           OCT      03000                                 #                V14
000275:    4356           03400                           OCT      03400                                 #                V15
000276:    4357           03000                           OCT      03000                                 #                V16
000277:    4360           00007        MASKBA             OCT      7
000278:    4361           01740        MASKCA             OCT      1740
000279:    4362           01053        TIMAA              OCT      1053
000280:    4363           04254        TIMBA              OCT      4254


000282:    4364           02000                           OCT      02000                                 #                V21
000283:    4365           03000                           OCT      03000                                 #                V22
000284:    4366           44003        PROCDIGT           CS       ONE
000285:    4367           60106                           AD       DCNTL
000286:    4370           10000                           CCS      A                                     #  HOW MANY DIGITS HAVE BEEN HIT
000287:    4371           04435                           TC       OPERROR                               #  3
000288:    4372           06000                           TC       MERR
000289:    4373           04414                           TC       FRSTDIG                               #  1
000290:    4374           24106                           INCR     DCNTL                                 #  2
000291:    4375           30110                           CA       TEMP1L
000292:    4376           74021                           MSK      OC17
000293:    4377           54115                           TS       VERBREGL                              #  STORE 2ND DIGIT
000294:    4400           50000                           NDX      A
000295:    4401           34063                           CA       VB0F
000296:    4402           60111                           AD       TEMP2L
000297:    4403           00006                           EXTEND
000298:    4404           01010                           WRITE    CH10                                  #  SENDS BOTH DIGITS TO DSKY
000299:    4405           54113                           TS       TEMP4L
000300:    4406           30112                           CA       TEMP3L
000301:    4407           00006                           EXTEND
000302:    4410           74022                           MP       D10
000303:    4411           30001                           CA       L
000304:    4412           26115                           ADS      VERBREGL
000305:    4413           04163                           TC       CH10RST
000306:    4414           30110        FRSTDIG            CA       TEMP1L
000307:    4415           74021                           MSK      OC17
000308:    4416           54112                           TS       TEMP3L
000309:    4417           50000                           NDX      A
000310:    4420           34075                           CA       V0BF
000311:    4421           00006                           EXTEND
000312:    4422           01010                           WRITE    CH10
000313:    4423           74023                           MSK      CENTERL
000314:    4424           54111                           TS       TEMP2L
000315:    4425           24106                           INCR     DCNTL
000316:    4426           00006                           EXTEND                                         #  TURNS FLASH ON
000317:    4427           00011                           READ     CH11
000318:    4430           74027                           MSK      NOFLASHL
000319:    4431           64026                           AD       FLASHL
000320:    4432           00006                           EXTEND
000321:    4433           01011                           WRITE    CH11
000322:    4434           04163                           TC       CH10RST
000323:    4435           35462        OPERROR            CA       COMOUT
000324:    4436           00006                           EXTEND
000325:    4437           02011                           RAND     CH11
000326:    4440           64025                           AD       OPERCDL
000327:    4441           00006                           EXTEND
000328:    4442           01011                           WRITE    CH11
000329:    4443           04454                           TC       RETURNL
000330:    4444           52011        T3RPTPR            DXCH     ARUPT
000331:    4445           00006                           EXTEND
000332:    4446           22012                           QXCH     QRUPT
000333:    4447           34316                           CA       4TOGO
000334:    4450           54026                           TS       TIME3
000335:    4451           54031                           TS       TIME6
000336:    4452           34005                           CA       ZERO
000337:    4453           54030                           TS       TIME5
000338:    4454           52011        RETURNL            DXCH     ARUPT
000339:    4455           00006                           EXTEND


000341:    4456           22012                           QXCH     QRUPT
000342:    4457           50017                           RESUME
000343:    4460           05146        IDLE               TC       AMSTAT
000344:    4461           04460                           TC       -1
000345:    4462           52011        T4RPTPR            DXCH     ARUPT
000346:    4463           00006                           EXTEND
000347:    4464           22012                           QXCH     QRUPT
000348:    4465           34317                           CA       50TOGO
000349:    4466           54027                           TS       TIME4
000350:    4467           30067                           CA       NWATCH
000351:    4470           04454                           TC       RETURNL
000352:    4471           04506        V18                TC       DISPLAY                               #  GENERATES TC TRAP GOJAM
000353:    4472           34005                           CA       ZERO
000354:    4473           00000                           TC       A
000355:    4474           00000                           TC       A
000356:    4475           04506        V19                TC       DISPLAY                               #  GENERATES RUPTLOC GOJAM
000357:    4476           00004                           INHINT
000358:    4477           30000                           CA       A
000359:    4500           04477                           TC       -1
000360:    4501           04506        V20                TC       DISPLAY                               #  GENERATES NWATCH GOJAM
000361:    4502           34005                           CA       ZERO
000362:    4503           54027                           TS       TIME4
000363:    4504           30000                           CA       A
000364:    4505           04504                           TC       -1
000365:                                                                                                  #  *               STATUS WORD FOR DISPLAY
000366:                                                                                                  #  *     9       8       7       6       5       4       3       2       1
000367:                                                                                                  #  *         BLK NOUN BLK R1    R2      R3 UPDATE NOUN  R1      R2      R3
000368:    4506           30002        DISPLAY            CA       Q
000369:    4507           54070                           TS       QSTORE
000370:    4510           30071                           CA       STATUS
000371:    4511           74712                           MASK     MASKA
000372:    4512           10000                           CCS      A
000373:    4513           04605                           TC       BLANKNA                               #  BLANK NOUN
000374:    4514           34712                           CA       MASKA
000375:    4515           54020                           TS       CYR
000376:    4516           30020                           CA       CYR
000377:    4517           54076                           TS       TMASKA
000378:    4520           30071                           CA       STATUS
000379:    4521           70076                           MASK     TMASKA
000380:    4522           10000                           CCS      A
000381:    4523           04613                           TC       BLANKR1A                              #  BLANK R1
000382:    4524           30076                           CA       TMASKA                                #  TMASKA CONTAINS LAST CONTENTS OF CYR
000383:    4525           54020                           TS       CYR                                   #  RESTORE CYR
000384:    4526           30020                           CA       CYR
000385:    4527           54076                           TS       TMASKA
000386:    4530           30071                           CA       STATUS
000387:    4531           70076                           MASK     TMASKA
000388:    4532           10000                           CCS      A
000389:    4533           04625                           TC       BLANKR2A                              #  BLANK R2
000390:    4534           30076                           CA       TMASKA                                #  TMASKA CONTAINS LAST CONTENTS OF CYR
000391:    4535           54020                           TS       CYR                                   #  RESTORE CYR
000392:    4536           30020                           CA       CYR
000393:    4537           54076                           TS       TMASKA
000394:    4540           30071                           CA       STATUS
000395:    4541           70076                           MASK     TMASKA
000396:    4542           10000                           CCS      A
000397:    4543           04653                           TC       BLANKR3A                              #  BLANK R3
000398:    4544           30076                           CA       TMASKA                                #  TMASKA CONTAINS LAST CONTENTS OF CYR


000400:    4545           54020                           TS       CYR                                   #  RESTORE CYR
000401:    4546           30020                           CA       CYR
000402:    4547           54076                           TS       TMASKA
000403:    4550           30071                           CA       STATUS
000404:    4551           70076                           MASK     TMASKA
000405:    4552           10000                           CCS      A
000406:    4553           04736                           TC       UPDATENA                              #  UPDATE NOUN
000407:    4554           30076                           CA       TMASKA                                #  TMASKA CONTAINS LAST CONTENTS OF CYR
000408:    4555           54020                           TS       CYR                                   #  RESTORE CYR
000409:    4556           30020                           CA       CYR
000410:    4557           54076                           TS       TMASKA
000411:    4560           30071                           CA       STATUS
000412:    4561           70076                           MASK     TMASKA
000413:    4562           10000                           CCS      A
000414:    4563           04746                           TC       UPDATE1A                              #  UPDATE R1
000415:    4564           30076                           CA       TMASKA                                #  TMASKA CONTAINS LAST CONTENTS OF CYR
000416:    4565           54020                           TS       CYR                                   #  RESTORE CYR
000417:    4566           30020                           CA       CYR
000418:    4567           54076                           TS       TMASKA
000419:    4570           30071                           CA       STATUS
000420:    4571           70076                           MASK     TMASKA
000421:    4572           10000                           CCS      A
000422:    4573           04774                           TC       UPDATE2A                              #  UPDATE R2
000423:    4574           30076                           CA       TMASKA                                #  TMASKA CONTAINS LAST CONTENTS OF CYR
000424:    4575           54020                           TS       CYR                                   #  RESTORE CYR
000425:    4576           30020                           CA       CYR
000426:    4577           54076                           TS       TMASKA
000427:    4600           30071                           CA       STATUS
000428:    4601           70076                           MASK     TMASKA
000429:    4602           10000                           CCS      A
000430:    4603           05052                           TC       UPDATE3A                              #  UPDATE R3
000431:    4604           00070                           TC       QSTORE
000432:    4605           30002        BLANKNA            CA       Q
000433:    4606           54077                           TS       RESUMEA
000434:    4607           30007                           CA       ZEROS
000435:    4610           64713                           AD       ADDRESSA
000436:    4611           04677                           TC       WRITEBA
000437:    4612           00077                           TC       RESUMEA
000438:    4613           30002        BLANKR1A           CA       Q
000439:    4614           54077                           TS       RESUMEA
000440:    4615           30007                           CA       ZEROS
000441:    4616           64714                           AD       ADDRESSA   +1
000442:    4617           04677                           TC       WRITEBA
000443:    4620           64715                           AD       ADDRESSA   +2
000444:    4621           04677                           TC       WRITEBA
000445:    4622           64716                           AD       ADDRESSA   +3
000446:    4623           04677                           TC       WRITEBA
000447:    4624           00077                           TC       RESUMEA
000448:    4625           30002        BLANKR2A           CA       Q
000449:    4626           54077                           TS       RESUMEA
000450:    4627           30007                           CA       ZEROS
000451:    4630           64717                           AD       ADDRESSA   +4
000452:    4631           04677                           TC       WRITEBA
000453:    4632           64720                           AD       ADDRESSA   +5
000454:    4633           04677                           TC       WRITEBA
000455:    4634           30075                           CA       R3
000456:    4635           54020                           TS       CYR
000457:    4636           34342                           CA       NUMAA


000459:    4637           54105        AAA                TS       NUMA                                  #  SET NUMA EQUAL TO NUMAA FOR CCS E
000460:    4640           30020                           CA       CYR                                   #  SHIFT ONCE PLUS NUMA TIMES
000461:    4641           10105                           CCS      NUMA
000462:    4642           04637                           TC       AAA
000463:    4643           30020                           CA       CYR                                   #  SHIFT ONE POSITION
000464:    4644           74360                           MASK     MASKBA
000465:    4645           50000                           INDEX    A
000466:    4646           34724                           CA       LOOKUPA
000467:    4647           74341                           MASK     MASKAA
000468:    4650           64721                           AD       ADDRESSA   +6
000469:    4651           04677                           TC       WRITEBA
000470:    4652           00077                           TC       RESUMEA
000471:    4653           30002        BLANKR3A           CA       Q
000472:    4654           54077                           TS       RESUMEA
000473:    4655           30071                           CA       STATUS
000474:    4656           75145                           MASK     MASKR2CA                              #  IS R2 BLANK
000475:    4657           10000                           CCS      A
000476:    4660           04675                           TC       BLKR2R3A                              #  R2 IS BLANK
000477:    4661           30074                           CA       R2                                    #  R2 IS NOT BLANK
000478:    4662           74360                           MASK     MASKBA
000479:    4663           50000                           INDEX    A
000480:    4664           34724                           CA       LOOKUPA
000481:    4665           74361                           MASK     MASKCA
000482:    4666           64721        CCA                AD       ADDRESSA   +6                         #  14000
000483:    4667           04677                           TC       WRITEBA
000484:    4670           64722                           AD       ADDRESSA   +7
000485:    4671           04677                           TC       WRITEBA
000486:    4672           64723                           AD       ADDRESSA   +8
000487:    4673           04677                           TC       WRITEBA
000488:    4674           00077                           TC       RESUMEA
000489:    4675           30007        BLKR2R3A           CA       ZEROS                                 #  BOTH BLANK
000490:    4676           04666                           TC       CCA
000491:    4677           00006        WRITEBA            EXTEND
000492:    4700           01010                           WRITE    CH10
000493:    4701           34362                           CA       TIMAA                                 #  20MS DELAY
000494:    4702           10000                           CCS      A
000495:    4703           14702                           TCF      -1
000496:    4704           00006                           EXTEND
000497:    4705           01010                           WRITE    CH10
000498:    4706           34363                           CA       TIMBA                                 #  100MS DELAY
000499:    4707           10000                           CCS      A
000500:    4710           14707                           TCF      -1
000501:    4711           00002                           TC       Q
000502:    4712           00200        MASKA              OCT      200
000503:    4713           44000        ADDRESSA           OCT      44000
000504:    4714           40000                           OCT      40000
000505:    4715           34000                           OCT      34000
000506:    4716           30000                           OCT      30000
000507:    4717           24000                           OCT      24000
000508:    4720           20000                           OCT      20000
000509:    4721           14000                           OCT      14000
000510:    4722           10000                           OCT      10000
000511:    4723           04000                           OCT      4000
000512:    4724           01265        LOOKUPA            OCT      1265                                  #  00
000513:    4725           00143                           OCT      143                                   #  11
000514:    4726           01471                           OCT      1471                                  #  22
000515:    4727           01573                           OCT      1573                                  #  33
000516:    4730           00757                           OCT      757                                   #  44


000518:    4731           01736                           OCT      1736                                  #  55
000519:    4732           01634                           OCT      1634                                  #  66
000520:    4733           01163                           OCT      1163                                  #  77
000521:    4734           01675                           OCT      1675                                  #  88
000522:    4735           01777                           OCT      1777                                  #  99
000523:    4736           30002        UPDATENA           CA       Q
000524:    4737           54077                           TS       RESUMEA
000525:    4740           30072                           CA       NOUN
000526:    4741           54101                           TS       ITA
000527:    4742           34713                           CA       ADDRESSA
000528:    4743           54102                           TS       ADDERA
000529:    4744           05117                           TC       ROUTINA
000530:    4745           00077                           TC       RESUMEA
000531:    4746           30002        UPDATE1A           CA       Q
000532:    4747           54077                           TS       RESUMEA
000533:    4750           30073                           CA       R1
000534:    4751           54101                           TS       ITA
000535:    4752           34716                           CA       ADDRESSA   +3
000536:    4753           54102                           TS       ADDERA
000537:    4754           05117                           TC       ROUTINA
000538:    4755           30020                           CA       CYR
000539:    4756           30020                           CA       CYR
000540:    4757           30020                           CA       CYR
000541:    4760           54101                           TS       ITA
000542:    4761           34715                           CA       ADDRESSA   +2
000543:    4762           54102                           TS       ADDERA
000544:    4763           05117                           TC       ROUTINA
000545:    4764           30020                           CA       CYR
000546:    4765           30020                           CA       CYR
000547:    4766           30020                           CA       CYR
000548:    4767           54101                           TS       ITA
000549:    4770           34714                           CA       ADDRESSA   +1
000550:    4771           54102                           TS       ADDERA
000551:    4772           05117                           TC       ROUTINA
000552:    4773           00077                           TC       RESUMEA
000553:    4774           30002        UPDATE2A           CA       Q
000554:    4775           54077                           TS       RESUMEA
000555:    4776           30007                           CA       ZEROS
000556:    4777           54103                           TS       TEMPA
000557:    5000           30071                           CA       STATUS
000558:    5001           75144                           MASK     MASKR3CA                              #  IS R3 BLANK+
000559:    5002           10000                           CCS      A
000560:    5003           05021                           TC       PART2A
000561:    5004           30075                           CA       R3
000562:    5005           54020                           TS       CYR
000563:    5006           34342                           CA       NUMAA
000564:    5007           54105        BBA                TS       NUMA                                  #  SET NUMA EQUAL TO NUMAA FOR CCS E
000565:    5010           30020                           CA       CYR                                   #  SHIFT ONCE PLUS NUMA TIMES
000566:    5011           10105                           CCS      NUMA
000567:    5012           05007                           TC       BBA
000568:    5013           30020                           CA       CYR                                   #  SHIFT ONE POSITION
000569:    5014           74360                           MASK     MASKBA
000570:    5015           50000                           INDEX    A
000571:    5016           34724                           CA       LOOKUPA
000572:    5017           74341                           MASK     MASKAA
000573:    5020           54103                           TS       TEMPA
000574:    5021           30074        PART2A             CA       R2
000575:    5022           74360                           MASK     MASKBA


000577:    5023           50000                           INDEX    A
000578:    5024           34724                           CA       LOOKUPA
000579:    5025           74361                           MASK     MASKCA
000580:    5026           60103                           AD       TEMPA
000581:    5027           64721                           AD       ADDRESSA   +6
000582:    5030           04677                           TC       WRITEBA
000583:    5031           30074                           CA       R2
000584:    5032           54020                           TS       CYR
000585:    5033           30020                           CA       CYR
000586:    5034           30020                           CA       CYR
000587:    5035           30020                           CA       CYR
000588:    5036           54101                           TS       ITA
000589:    5037           34720                           CA       ADDRESSA   +5
000590:    5040           54102                           TS       ADDERA
000591:    5041           05117                           TC       ROUTINA
000592:    5042           30020                           CA       CYR
000593:    5043           30020                           CA       CYR
000594:    5044           30020                           CA       CYR
000595:    5045           54101                           TS       ITA
000596:    5046           34717                           CA       ADDRESSA   +4
000597:    5047           54102                           TS       ADDERA
000598:    5050           05117                           TC       ROUTINA
000599:    5051           00077                           TC       RESUMEA
000600:    5052           30002        UPDATE3A           CA       Q
000601:    5053           54077                           TS       RESUMEA
000602:    5054           30075                           CA       R3
000603:    5055           54101                           TS       ITA
000604:    5056           34723                           CA       ADDRESSA   +8
000605:    5057           54102                           TS       ADDERA
000606:    5060           05117                           TC       ROUTINA
000607:    5061           30020                           CA       CYR
000608:    5062           30020                           CA       CYR
000609:    5063           30020                           CA       CYR
000610:    5064           54101                           TS       ITA
000611:    5065           34722                           CA       ADDRESSA   +7
000612:    5066           54102                           TS       ADDERA
000613:    5067           05117                           TC       ROUTINA
000614:    5070           30020                           CA       CYR
000615:    5071           30020                           CA       CYR
000616:    5072           30020                           CA       CYR
000617:    5073           74360                           MASK     MASKBA
000618:    5074           50000                           INDEX    A
000619:    5075           34724                           CA       LOOKUPA
000620:    5076           74341                           MASK     MASKAA
000621:    5077           54103                           TS       TEMPA
000622:    5100           30071                           CA       STATUS
000623:    5101           75145                           MASK     MASKR2CA                              #  IS R2 BLANK+
000624:    5102           10000                           CCS      A
000625:    5103           05115                           TC       PARTCONA
000626:    5104           30074                           CA       R2
000627:    5105           74360                           MASK     MASKBA
000628:    5106           50000                           INDEX    A
000629:    5107           34724                           CA       LOOKUPA
000630:    5110           74361                           MASK     MASKCA
000631:    5111           60103        3CONT              AD       TEMPA
000632:    5112           64721                           AD       ADDRESSA   +6
000633:    5113           04677                           TC       WRITEBA
000634:    5114           00077                           TC       RESUMEA


000636:    5115           30007        PARTCONA           CA       ZEROS
000637:    5116           05111                           TC       3CONT
000638:    5117           30002        ROUTINA            CA       Q                                     #  STANDARD LOOKUP ROUTINE
000639:    5120           54104                           TS       GOBAKA
000640:    5121           30101                           CA       ITA
000641:    5122           74360                           MASK     MASKBA
000642:    5123           50000                           INDEX    A
000643:    5124           34724                           CA       LOOKUPA
000644:    5125           74341                           MASK     MASKAA
000645:    5126           54103                           TS       TEMPA
000646:    5127           30101                           CA       ITA
000647:    5130           54020                           TS       CYR
000648:    5131           30020                           CA       CYR
000649:    5132           30020                           CA       CYR                                   #  SHIFT
000650:    5133           30020                           CA       CYR
000651:    5134           74360                           MASK     MASKBA
000652:    5135           50000                           INDEX    A
000653:    5136           34724                           CA       LOOKUPA
000654:    5137           74361                           MASK     MASKCA
000655:    5140           60103                           AD       TEMPA
000656:    5141           60102                           AD       ADDERA
000657:    5142           04677                           TC       WRITEBA
000658:    5143           00104                           TC       GOBAKA
000659:    5144           00020        MASKR3CA           OCT      20
000660:    5145           00040        MASKR2CA           OCT      40
000661:    5146           30002        AMSTAT             CA       Q
000662:    5147           54070                           TS       QSTORE
000663:    5150           30006                           CA       BB                                    #  FOR W PICKUP
000664:    5151           54000                           TS       A
000665:    5152           00006                           EXTEND
000666:    5153           00025                           READ     CONOUT
000667:    5154           75222                           MASK     MASK1A
000668:    5155           54103                           TS       TEMPA
000669:    5156           45223                           CS       SUBA
000670:    5157           60103                           AD       TEMPA
000671:    5160           10000                           CCS      A
000672:    5161           05165                           TC       BOTHONA
000673:    5162           06000                           TC       MERR
000674:    5163           05167                           TC       NOTONA
000675:    5164           05172                           TC       ACMONA
000676:    5165           35220        BOTHONA            CA       BOTHN1A                               #  11
000677:    5166           05170                           TC       WRITE1A
000678:    5167           35217        NOTONA             CA       NOTON1A                               #  00
000679:    5170           04677        WRITE1A            TC       WRITEBA
000680:    5171           00070                           TC       QSTORE
000681:    5172           35221        ACMONA             CA       ACMON1A                               #  10
000682:    5173           05170                           TC       WRITE1A
000683:    5174           05146        TERR               TC       AMSTAT
000684:    5175           00006                           EXTEND
000685:    5176           00025                           READ     CONOUT
000686:    5177           54074                           TS       R2
000687:    5200           34712                           CA       MASKA
000688:    5201           00006                           EXTEND
000689:    5202           01025                           WRITE    CH25
000690:    5203           00006                           EXTEND
000691:    5204           00027                           READ     CONIN
000692:    5205           54075                           TS       R3
000693:    5206           04506                           TC       DISPLAY


000695:    5207           35216                           CA       SUPIMPA
000696:    5210           00006                           EXTEND
000697:    5211           04011                           ROR      CH11
000698:    5212           00006                           EXTEND
000699:    5213           01011                           WRITE    CH11
000700:    5214           04460                           TC       IDLE
000701:    5215           34000        V00BK              OCT      34000
000702:    5216           00040        SUPIMPA            OCT      40
000703:    5217           55265        NOTON1A            OCT      55265                                 #  00  NOUN
000704:    5220           54143        BOTHN1A            OCT      54143                                 #  11  NOUN
000705:    5221           54165        ACMON1A            OCT      54165                                 #  10  NOUN
000706:    5222           24000        MASK1A             OCT      24000
000707:    5223           20000        SUBA               OCT      20000
000708:    5224           04506        V01                TC       DISPLAY                               #  TURN ON ACM AND ATM
000709:    5225           35462                           CA       COMOUT
000710:    5226           00006                           EXTEND
000711:    5227           01011                           WRITE    CH11                                  #  SET OUTCOM
000712:    5230           35463                           CA       STATUS1A
000713:    5231           54071                           TS       STATUS
000714:    5232           35471                           CA       C1A
000715:    5233           54116                           TS       ACMSTAT
000716:    5234           35464                           CA       TIME1A                                #  8MSEC
000717:    5235           10000                           CCS      A
000718:    5236           05235                           TC       -1
000719:    5237           00006                           EXTEND
000720:    5240           00025                           READ     CONOUT                                #  CH25
000721:    5241           75461                           MASK     BOTEOT6A                              #  ELIMINATE BITS 5 AND 6
000722:    5242           54103                           TS       TEMPA
000723:    5243           45465                           CS       OUTCONAA
000724:    5244           60103                           AD       TEMPA
000725:    5245           10000                           CCS      A
000726:    5246           05252                           TC       CONT1A
000727:    5247           05252                           TC       CONT1A
000728:    5250           05252                           TC       CONT1A
000729:    5251           05255                           TC       SUCCESAA
000730:    5252           35471        CONT1A             CA       C1A                                   #  ERROR N1 N0 20010
000731:    5253           54072                           TS       NOUN
000732:    5254           05174                           TC       TERR
000733:    5255           35475        SUCCESAA           CA       OC10
000734:    5256           54116                           TS       ACMSTAT
000735:    5257           00006                           EXTEND
000736:    5260           00027                           READ     CH27                                  #  CLEAR VFAIL
000737:    5261           00006                           EXTEND
000738:    5262           00026                           READ     CH26
000739:    5263           10000                           CCS      A
000740:    5264           05270                           TC       CONT2A
000741:    5265           05273                           TC       SUCCESBA
000742:    5266           05270                           TC       CONT2A
000743:    5267           05270                           TC       CONT2A
000744:    5270           35472        CONT2A             CA       C2A                                   #  ERROR N2 N0 00000
000745:    5271           54072                           TS       NOUN
000746:    5272           05174                           TC       TERR
000747:    5273           35466        SUCCESBA           CA       OUTCONBA
000748:    5274           00006                           EXTEND
000749:    5275           01025                           WRITE    CONOUT                                #  CH25
000750:    5276           35470                           CA       TIME2A                                #  500MSEC
000751:    5277           10000                           CCS      A
000752:    5300           05277                           TC       -1


000754:    5301           00006                           EXTEND
000755:    5302           00025                           READ     CONOUT                                #  CH25
000756:    5303           75461                           MASK     BOTEOT6A                              #  ELIMINATE BITS 5 AND 6
000757:    5304           54103                           TS       TEMPA
000758:    5305           45467                           CS       OUTCONCA
000759:    5306           60103                           AD       TEMPA
000760:    5307           10000                           CCS      A
000761:    5310           05314                           TC       CONT3A
000762:    5311           05314                           TC       CONT3A
000763:    5312           05314                           TC       CONT3A
000764:    5313           05317                           TC       SUCCESCA
000765:    5314           35473        CONT3A             CA       C3A                                   #  ERROR N3 N0 74000
000766:    5315           54072                           TS       NOUN
000767:    5316           05174                           TC       TERR
000768:    5317           05146        SUCCESCA           TC       AMSTAT
000769:    5320           05620                           TC       SUCCESS
000770:    5321           04506        V02                TC       DISPLAY                               #  TURN ON ACM
000771:    5322           35462                           CA       COMOUT
000772:    5323           00006                           EXTEND
000773:    5324           01011                           WRITE    CH11                                  #  SET OUTCOM
000774:    5325           35463                           CA       STATUS1A
000775:    5326           54071                           TS       STATUS
000776:    5327           35471                           CA       C1A
000777:    5330           54116                           TS       ACMSTAT
000778:    5331           35464                           CA       TIME1A                                #  8MSEC
000779:    5332           10000                           CCS      A
000780:    5333           05332                           TC       -1
000781:    5334           00006                           EXTEND
000782:    5335           00025                           READ     CONOUT                                #  CH25
000783:    5336           75461                           MASK     BOTEOT6A                              #  ELIMINATE BITS 5 AND 6
000784:    5337           54103                           TS       TEMPA
000785:    5340           45465                           CS       OUTCONAA
000786:    5341           60103                           AD       TEMPA
000787:    5342           10000                           CCS      A
000788:    5343           05252                           TC       CONT1A                                #  ERROR N1 N0 20010
000789:    5344           05252                           TC       CONT1A
000790:    5345           05252                           TC       CONT1A
000791:    5346           05347                           TC       SUCCESDA
000792:    5347           35475        SUCCESDA           CA       OC10
000793:    5350           54116                           TS       ACMSTAT
000794:    5351           00006                           EXTEND
000795:    5352           00027                           READ     CH27                                  #  CLEAR VFAIL
000796:    5353           00006                           EXTEND
000797:    5354           00026                           READ     CH26
000798:    5355           10000                           CCS      A
000799:    5356           05270                           TC       CONT2A
000800:    5357           05317                           TC       SUCCESCA
000801:    5360           05270                           TC       CONT2A
000802:    5361           05270                           TC       CONT2A                                #  ERROR N2 N0 0000
000803:    5362           04506        V03                TC       DISPLAY                               #  TURN OFF ACM AND ATM
000804:    5363           30007                           CA       ZEROS
000805:    5364           00006                           EXTEND
000806:    5365           01011                           WRITE    CH11                                  #  OUTCOM OFF
000807:    5366           35474                           CA       STATUS2A
000808:    5367           54071                           TS       STATUS
000809:    5370           35470                           CA       TIME2A                                #  1/2 OF 1 SEC.
000810:    5371           10000                           CCS      A
000811:    5372           05371                           TC       -1


000813:    5373           35470                           CA       TIME2A                                #  1/2 OF 1 SEC.
000814:    5374           10000                           CCS      A
000815:    5375           05374                           TC       -1
000816:    5376           00006                           EXTEND
000817:    5377           00025                           READ     CONOUT                                #  CH25
000818:    5400           75461                           MASK     BOTEOT6A                              #  ELIMINATE BITS 5 AND 6
000819:    5401           10000                           CCS      A
000820:    5402           05174                           TC       TERR
000821:    5403           05406                           TC       DDA
000822:    5404           05174                           TC       TERR
000823:    5405           05174                           TC       TERR
000824:    5406           30007        DDA                CA       ZEROS
000825:    5407           54116                           TS       ACMSTAT
000826:    5410           05317                           TC       SUCCESCA
000827:    5411           04506        V04                TC       DISPLAY                               #  TURN OFF ATM
000828:    5412           35477                           CA       OUTCONDA
000829:    5413           00006                           EXTEND
000830:    5414           01025                           WRITE    CONOUT                                #  CH25
000831:    5415           35474                           CA       STATUS2A
000832:    5416           54071                           TS       STATUS
000833:    5417           35476                           CA       TIME4A                                #  50MSEC
000834:    5420           10000                           CCS      A
000835:    5421           05420                           TC       -1
000836:    5422           00006                           EXTEND
000837:    5423           00025                           READ     CONOUT                                #  CH25
000838:    5424           75461                           MASK     BOTEOT6A                              #  ELIMINATE BITS 5 AND 6
000839:    5425           54103                           TS       TEMPA
000840:    5426           45500                           CS       OUTCONEA
000841:    5427           60103                           AD       TEMPA
000842:    5430           10000                           CCS      A
000843:    5431           05174                           TC       TERR
000844:    5432           05174                           TC       TERR
000845:    5433           05174                           TC       TERR
000846:    5434           05317                           TC       SUCCESCA
000847:    5435           04506        V05                TC       DISPLAY                               #  TURN ATM TO STANBY
000848:    5436           35501                           CA       OUTCONFA
000849:    5437           00006                           EXTEND
000850:    5440           01025                           WRITE    CONOUT                                #  CH25
000851:    5441           35474                           CA       STATUS2A
000852:    5442           54071                           TS       STATUS
000853:    5443           35503                           CA       TIME5A                                #  200USEC
000854:    5444           10000                           CCS      A
000855:    5445           05444                           TC       -1
000856:    5446           00006                           EXTEND
000857:    5447           00025                           READ     CONOUT                                #  CH25
000858:    5450           75461                           MASK     BOTEOT6A                              #  ELIMINATE BITS 5 AND 6
000859:    5451           54103                           TS       TEMPA
000860:    5452           45502                           CS       OUTCONGA
000861:    5453           60103                           AD       TEMPA
000862:    5454           10000                           CCS      A
000863:    5455           05174                           TC       TERR
000864:    5456           05174                           TC       TERR
000865:    5457           05174                           TC       TERR
000866:    5460           05317                           TC       SUCCESCA
000867:    5461           77717        BOTEOT6A           OCT      77717
000868:    5462           00400        COMOUT             OCT      400
000869:    5463           00113        STATUS1A           OCT      113
000870:    5464           00350        TIME1A             OCT      350                                   #  8MSEC


000872:    5465           20010        OUTCONAA           OCT      20010
000873:    5466           50000        OUTCONBA           OCT      50000
000874:    5467           74000        OUTCONCA           OCT      74000
000875:    5470           34000        TIME2A             OCT      34000                                 #  500MSEC
000876:    5471           00001        C1A                OCT      1
000877:    5472           00002        C2A                OCT      2
000878:    5473           00003        C3A                OCT      3
000879:    5474           00303        STATUS2A           OCT      303                                   #  R2,R3 UPDATE
000880:    5475           00010        OC10               OCT      10
000881:    5476           02640        TIME4A             OCT      2640                                  #  50MSEC
000882:    5477           24000        OUTCONDA           OCT      24000
000883:    5500           20010        OUTCONEA           OCT      20010
000884:    5501           04000        OUTCONFA           OCT      04000
000885:    5502           60000        OUTCONGA           OCT      60000
000886:    5503           00006        TIME5A             OCT      6
000887:    5504           04506        V0607              TC       DISPLAY
000888:    5505           06142                           TC       TPTRAN
000889:    5506           02001                           TC       2001
000890:    5507           05620                           TC       SUCCESS
000891:    5510           04506        V08                TC       DISPLAY
000892:    5511           06142                           TC       TPTRAN                                #  GO TO READ TAPE
000893:    5512           00030        MU530A             OCT      00030
000894:    5513           00031        MU531A             OCT      00031
000895:    5514           00032        MU532A             OCT      00032
000896:    5515           00033        MU533A             OCT      00033
000897:    5516           00010        OCT10A             OCT      00010
000898:    5517           00400        AMTOGOA            OCT      00400
000899:    5520           00207        STATUS4A           OCT      00207
000900:    5521           07777        LAST4A             OCT      07777
000901:    5522           74000        BANK536A           OCT      74000
000902:    5523           04506        V09                TC       DISPLAY
000903:    5524           06142                           TC       TPTRAN
000904:    5525           05620                           TC       SUCCESS
000905:    5526           04506        V11                TC       DISPLAY
000906:    5527           06142                           TC       TPTRAN
000907:    5530           05620                           TC       SUCCESS
000908:    5531           04506        V12                TC       DISPLAY
000909:    5532           06142                           TC       TPTRAN
000910:    5533           05620                           TC       SUCCESS
000911:    5534           04506        V13                TC       DISPLAY
000912:    5535           06142                           TC       TPTRAN
000913:    5536           05620                           TC       SUCCESS
000914:    5537           04506        V17                TC       DISPLAY
000915:    5540           35614                           CA       STATU17A
000916:    5541           54071                           TS       STATUS                                #  LOAD STATUS
000917:    5542           35502                           CA       OUTCONGA                              #  GET FIRST FIXED BANK REG LOAD
000918:    5543           54133        STARTBKA           TS       BANKNUMA
000919:    5544           54073                           TS       R1                                    #  LOAD R1 WITH BANK REG LOAD
000920:    5545           54004                           TS       FB
000921:    5546           35617                           CA       OCT77A
000922:    5547           54135                           TS       DISYES                                #  DISPLAY ADDRESS EVERY 100 LOCATIONS
000923:    5550           30007                           CA       ZEROS                                 #  START ADDRESS WITH ZEROS
000924:    5551           54134                           TS       LOCA
000925:    5552           50134        GOA                INDEX    LOCA
000926:    5553           32000                           CA       2000                                  #  READ ALL LOCATIONS
000927:    5554           24134                           INCR     LOCA
000928:    5555           30134                           CA       LOCA                                  #  ADDRESS 2000 IN L
000929:    5556           54001                           TS       L


000931:    5557           45613                           CS       STOPA
000932:    5560           60134                           AD       LOCA
000933:    5561           10000                           CCS      A                                     #  IS IT THE END OF THE BANK
000934:    5562           06000                           TC       MERR
000935:    5563           06000                           TC       MERR
000936:    5564           05566                           TC       GOBAA                                 #  NOT THE END OF THE BANK
000937:    5565           05600                           TC       ENDFBA                                #  THE END OF THE FIXED BANK
000938:    5566           10135        GOBAA              CCS      DISYES                                #  IS IT TIME TO UPDATE DSKY DISPLAY
000939:    5567           05576                           TC       GOBBA                                 #  NO
000940:    5570           35617                           CA       OCT77A                                #  YES
000941:    5571           54135                           TS       DISYES                                #  SET DISYES EQUAL TO 77
000942:    5572           30134                           CA       LOCA                                  #  GET LOCATION ADDRESS
000943:    5573           54074                           TS       R2                                    #  LOAD IT INTO R2
000944:    5574           04506                           TC       DISPLAY                               #  GO TO UPDATE DISPLAY
000945:    5575           05552                           TC       GOA                                   #  GO TO READ
000946:    5576           54135        GOBBA              TS       DISYES                                #  DIMINISH DISYES
000947:    5577           05552                           TC       GOA                                   #  GO TO READ
000948:    5600           45615        ENDFBA             CS       LASTBKA                               #  END OF FIXED BANK ROUTINE
000949:    5601           60133                           AD       BANKNUMA
000950:    5602           10000                           CCS      A                                     #  IS THE LAST BANK DONE
000951:    5603           06000                           TC       MERR
000952:    5604           06000                           TC       MERR
000953:    5605           05607                           TC       GETNXBA                               #  NO GET NEXT BANK REG LOAD
000954:    5606           05620                           TC       SUCCESS                               #  YES ALL DONE
000955:    5607           30133        GETNXBA            CA       BANKNUMA
000956:    5610           65616                           AD       INCRBKA                               #  INCREMENT TO NEXT BANK
000957:    5611           05543                           TC       STARTBKA                              #  START NEXT BANK
000958:    5612           70000        FIRSTBKA           OCT      70000
000959:    5613           02000        STOPA              OCT      02000
000960:    5614           00226        STATU17A           OCT      00226
000961:    5615           76000        LASTBKA            OCT      76000
000962:    5616           02000        INCRBKA            OCT      02000
000963:    5617           00077        OCT77A             OCT      00077
000964:    5620           34021        SUCCESS            CA       OC17                                  #  LOAD NOUN R1 R2 R3 WITH ALL 7S
000965:    5621           54071                           TS       STATUS                                #  INDICATES TEST SUCCESS
000966:    5622           34337                           CA       ALL7SL
000967:    5623           54073                           TS       R1
000968:    5624           54074                           TS       R2
000969:    5625           54075                           TS       R3
000970:    5626           54072                           TS       NOUN
000971:    5627           04506                           TC       DISPLAY
000972:    5630           04460                           TC       IDLE
000973:    5631           30153        FXDPR              CA       BANKNO
000974:    5632           54020                           TS       CYR
000975:    5633           30020                           CA       CYR
000976:    5634           30020                           CA       CYR
000977:    5635           30020                           CA       CYR
000978:    5636           30020                           CA       CYR
000979:    5637           30020                           CA       CYR
000980:    5640           54153                           TS       BANKNO
000981:    5641           54073                           TS       R1
000982:    5642           07446                           TC       UPDISPLA
000983:    5643           54157        SHIFT3L            TS       1STBNKNO
000984:    5644           30146                           CA       HOLDIT
000985:    5645           60160                           AD       HOLDBKDG
000986:    5646           54022                           TS       CYL
000987:    5647           30022                           CA       CYL
000988:    5650           30022                           CA       CYL


000990:    5651           30022                           CA       CYL
000991:    5652           54160                           TS       HOLDBKDG
000992:    5653           04454                           TC       RETURNL
000993:    5654           00010        BIT4               OCT      00010
000994:    5655           10000        BIT13              OCT      10000
000995:    5656           20000        BIT14              OCT      20000
000996:    5657           40000        BIT15              OCT      40000
000997:    5660           16000        BNK3A              OCT      16000
000998:    5661           11110        FOUR1S             OCT      11110
000999:    5662           22220        FOUR2S             OCT      22220
001000:    5663           33330        FOUR3S             OCT      33330
001001:    5664           44440        FOUR4S             OCT      44440
001002:    5665           55550        FOUR5S             OCT      55550
001003:    5666           66660        FOUR6S             OCT      66660
001004:    5667           00037        LOW5               OCT      00037
001005:    5670           77740        HIGH10             OCT      77740
001006:    5671           03777        LOW11              OCT      03777
001007:    5672           00124        WAIT2L             OCT      00124
001008:    5673           37777        PFS                OCT      37777
001009:    5674           00200        BIT8               OCT      00200
001010:    5675           07700        ABORTL             OCT      07700
001011:    5676           31145        WAIT1L             OCT      31145
001012:    5677           02200        GOATTRNS           OCT      02200
001013:    5700           07740        ABORTCER           OCT      07740
001014:    5701           01000        WDATAL             OCT      01000
001015:    5702           06000        BNK3               OCT      06000
001016:    5703           70000        BNK34              OCT      70000
001017:    5704           01776        HIGHLOC            OCT      01776
001018:    5705           00003        LASTBNK            OCT      00003
001019:    5706           00005        BNK5               OCT      00005
001020:    5707           02000        INCRFB             OCT      02000
001021:    5710           00076        NOUN76             OCT      00076
001022:    5711           00075        NOUN75             OCT      00075
001023:    5712           00074        NOUN74             OCT      00074
001024:    5713           00073        NOUN73             OCT      00073
001025:    5714           00072        NOUN72             OCT      00072
001026:    5715           00071        NOUN71             OCT      00071
001027:    5716           00070        NOUN70             OCT      00070
001028:    5717           00067        NOUN67             OCT      00067
001029:    5720           00065        NOUN65             OCT      00065
001030:    5721           00064        NOUN64             OCT      00064
001031:    5722           00063        NOUN63             OCT      00063
001032:    5723           00062        NOUN62             OCT      00062
001033:    5724           00061        NOUN61             OCT      00061
001034:    5725           11400        EBKEQUIV           OCT      11400
001035:    5726           13400                           OCT      13400
001036:    5727           15400                           OCT      15400
001037:    5730           17400                           OCT      17400
001038:    5731           00014        OC14               OCT      00014
001039:    5732           77767        VERB8              OCT      77767
001040:    5733           41001        READK14            OCT      41001
001041:    5734           51005        READK15            OCT      51005
001042:    5735           00400        EBFULL             OCT      00400
001043:    5736           02000        FBFULL             OCT      02000
001044:    5737           72000        ACMFBKA            OCT      72000
001045:    5740           00057        NOUN57             OCT      00057
001046:    5741           02000        READKC25           OCT      02000
001047:    5742           00056        NOUN56             OCT      00056


001049:    5743           10024        BBKAA              OCT      10024                                 #  PAC BANK 4
001050:    5744           22024        BBKBA              OCT      22024                                 #  PAC BANK 11
001051:    5745           01776        FULLESS2           OCT      01776
001052:    5746           12020        1STBKA             OCT      12020                                 #  FBANK  5 EBANK 20
001053:    5747           14024        2NDBKA             OCT      14024                                 #         6       24
001054:    5750           16030        3RDBKA             OCT      16030                                 #         7       30
001055:    5751           20034        4THBKA             OCT      20034                                 #        10       34
001056:    5752           24100        BBKCA              OCT      24100                                 #  F BANK 12 EBANK 100
001057:    5753           26104        BBKDA              OCT      26104                                 #  F BANK 13 EBANK 104
001058:    5754           30010        BBKEA              OCT      30010                                 #  F BANK 14 EBANK  10
001059:    5755           32014        BBKFA              OCT      32014                                 #  F BANK 15 EBANK  14
001060:    5756           60020        BBKGA              OCT      60020                                 #  FEXT 6 F BANK 30 EBANK 20
001061:    5757           62024        BBKHA              OCT      62024                                 #  FEXT 6 F BANK 31 EBANK 24
001062:    5760           64030        BBKIA              OCT      64030                                 #  FEXT 6 F BANK 32 EBANK 30
001063:    5761           66034        BBKJA              OCT      66034                                 #  FEXT 6 F BANK 33 EBANK 34
001064:    5762           51010        OCT51010           OCT      51010
001065:    5763           77757        MINUS20            OCT      77757
001066:    5764           77771        MINUS6             OCT      77771
001067:    5765           00066        NOUN66             OCT      00066
001068:    6000                                           SETLOC   FF036000
001069:    6000           34021        MERR               CA       OC17                                  #  LOAD NOUN R1 R2 WITH ALL 6S
001070:    6001           54071                           TS       STATUS                                #  INDICATES MACHINE ERROR
001071:    6002           34340                           CA       ALL6SL                                #  R3 HAS LOCATION WHERE ERROR OCCURED
001072:    6003           54073                           TS       R1
001073:    6004           54074                           TS       R2
001074:    6005           54072                           TS       NOUN
001075:    6006           30002                           CA       Q
001076:    6007           54075                           TS       R3
001077:    6010           04506                           TC       DISPLAY
001078:    6011           34026                           CA       FLASHL
001079:    6012           00006                           EXTEND
001080:    6013           04011                           ROR      CH11
001081:    6014           00006                           EXTEND
001082:    6015           01011                           WRITE    CH11
001083:    6016           04460                           TC       IDLE
001084:    6017           34316        GOJAMPR            CA       4TOGO
001085:    6020           54026                           TS       TIME3
001086:    6021           54031                           TS       TIME6
001087:    6022           34317                           CA       50TOGO
001088:    6023           54027                           TS       TIME4
001089:    6024           34005                           CA       ZERO
001090:    6025           54030                           TS       TIME5
001091:    6026           54117                           TS       R1ADD
001092:    6027           34320                           CA       OUTCOML
001093:    6030           00006                           EXTEND
001094:    6031           02011                           RAND     CH11
001095:    6032           10000                           CCS      A                                     #  WAS OUTCOM ON
001096:    6033           24117                           INCR     R1ADD                                 #  YES
001097:    6034           35655                           CA       BIT13                                 #  NO
001098:    6035           00006                           EXTEND
001099:    6036           02026                           RAND     CH26
001100:    6037           10000                           CCS      A                                     #  WAS GOJAM CAUSED BY E PARITY FAIL
001101:    6040           06111                           TC       EPARPRO                               #  YES
001102:    6041           35656                           CA       BIT14                                 #  NO
001103:    6042           00006                           EXTEND
001104:    6043           02026                           RAND     CH26
001105:    6044           10000                           CCS      A                                     #  WAS GOJAM CAUSED BY F PARITY FAIL
001106:    6045           06115                           TC       FPARPRO                               #  YES


001108:    6046           35657                           CA       BIT15                                 #  NO
001109:    6047           00006                           EXTEND
001110:    6050           02026                           RAND     CH26
001111:    6051           10000                           CCS      A                                     #  WAS GOJAM CAUSED BY ECHO CHECK
001112:    6052           06121                           TC       ECHCKPRO                              #  YES
001113:    6053           30116                           CA       ACMSTAT                               #  NO
001114:    6054           75654                           MSK      BIT4
001115:    6055           10000                           CCS      A                                     #  WAS ACM SUPPOSED TO BE ON
001116:    6056           06125                           TC       REQCHK                                #  YES
001117:    6057           30116                           CA       ACMSTAT                               #  NO
001118:    6060           74003                           MSK      ONE
001119:    6061           10000                           CCS      A                                     #  WAS ACM REQUESTED TO TURN ON
001120:    6062           06067                           TC       +5
001121:    6063           35664                           CA       FOUR4S
001122:    6064           60117                           AD       R1ADD
001123:    6065           54073                           TS       R1
001124:    6066           06102                           TC       GETOUT
001125:    6067           34005                           CA       ZERO
001126:    6070           54116                           TS       ACMSTAT
001127:    6071           35666                           CA       FOUR6S
001128:    6072           60117                           AD       R1ADD
001129:    6073           54073                           TS       R1
001130:    6074           06102                           TC       GETOUT
001131:    6075           34320        OUTCMSET           CA       OUTCOML
001132:    6076           00006                           EXTEND
001133:    6077           04011                           ROR      CH11
001134:    6100           00006                           EXTEND
001135:    6101           01011                           WRITE    CH11
001136:    6102           00003        GETOUT             RELINT
001137:    6103           30116                           CA       ACMSTAT
001138:    6104           54072                           TS       NOUN                                  #  01 REQ   10 ON   00 OFF
001139:    6105           34021                           CA       OC17
001140:    6106           54071                           TS       STATUS
001141:    6107           05174                           TC       TERR
001142:    6110           00140        FEXTA              OCT      00140
001143:    6111           35661        EPARPRO            CA       FOUR1S
001144:    6112           60117                           AD       R1ADD
001145:    6113           54073                           TS       R1
001146:    6114           06075                           TC       OUTCMSET
001147:    6115           35662        FPARPRO            CA       FOUR2S
001148:    6116           60117                           AD       R1ADD
001149:    6117           54073                           TS       R1
001150:    6120           06075                           TC       OUTCMSET
001151:    6121           35663        ECHCKPRO           CA       FOUR3S
001152:    6122           60117                           AD       R1ADD
001153:    6123           54073                           TS       R1
001154:    6124           06075                           TC       OUTCMSET
001155:    6125           35656        REQCHK             CA       BIT14
001156:    6126           00006                           EXTEND
001157:    6127           02025                           RAND     CH25
001158:    6130           10000                           CCS      A                                     #  IS CH 25 ACM-ON BIT ON
001159:    6131           06136                           TC       AGCFAULT                              #  YES
001160:    6132           35665                           CA       FOUR5S                                #  NO
001161:    6133           60117                           AD       R1ADD
001162:    6134           54073                           TS       R1
001163:    6135           06102                           TC       GETOUT
001164:    6136           35664        AGCFAULT           CA       FOUR4S
001165:    6137           60117                           AD       R1ADD


001167:    6140           54073                           TS       R1
001168:    6141           06075                           TC       OUTCMSET
001169:    6142           30002        TPTRAN             CA       Q
001170:    6143           54137                           TS       QSTORL
001171:    6144           35462                           CA       COMOUT
001172:    6145           54171                           TS       LSTCNT
001173:    6146           54170                           TS       OLDID
001174:    6147           30124                           CA       CH25LOAD
001175:    6150           75701                           MASK     WDATAL                                #  01000
001176:    6151           10000                           CCS      A                                     #  WILL THE XFER BE READ OR WRITE TAPE
001177:    6152           06675                           TC       SUMIT                                 #  WRITE
001178:    6153           30120        BEGINL             CA       IDSTARTL                              #  READ
001179:    6154           00006                           EXTEND
001180:    6155           01021                           WRITE    CH21                                  #  LOAD ID START
001181:    6156           30121                           CA       IDSTOPL                               #  LOAD LAST BANK OF AM DATA TRANSFER
001182:    6157           00006                           EXTEND
001183:    6160           01023                           WRITE    CH23                                  #  LOAD ID STOP
001184:    6161           00006                           EXTEND                                         #  CHECK ID STOP
001185:    6162           02020                           RAND     CH20
001186:    6163           40000                           CS       A
001187:    6164           00006                           EXTEND
001188:    6165           02020                           RAND     CH20
001189:    6166           75667                           MASK     LOW5
001190:    6167           10000                           CCS      A                                     #  IS ID STOP OK
001191:    6170           06604                           TC       IDSTPERR                              #  NO
001192:    6171           00006                           EXTEND                                         #  YES    CHECK ID START
001193:    6172           00020                           READ     CH20
001194:    6173           75670                           MSK      HIGH10
001195:    6174           54122                           TS       JUNK1L                                #  STORE CH20 IDSTART BITS 6 TO 15
001196:    6175           00006                           EXTEND
001197:    6176           00021                           READ     CH21
001198:    6177           54123                           TS       TPBNKL                                #  STORE CH21
001199:    6200           54021                           TS       SR
001200:    6201           30021                           CA       SR                                    #  SHIFT THREE PLACES RIGHT
001201:    6202           30021                           CA       SR
001202:    6203           30021                           CA       SR
001203:    6204           54023                           TS       EDOP                                  #  SHIFT SEVEN PLACES RIGHT
001204:    6205           30023                           CA       EDOP
001205:    6206           74341                           MASK     MASKAA                                #  MASK LOW 5
001206:    6207           26122                           ADS      JUNK1L                                #  COMPLETE ID START WORD
001207:    6210           40000                           CS       A
001208:    6211           60120                           AD       IDSTARTL
001209:    6212           10000                           CCS      A                                     #  IS ID START OK
001210:    6213           06612                           TC       IDSTAERR                              #  NO
001211:    6214           06612                           TC       IDSTAERR                              #  NO
001212:    6215           06612                           TC       IDSTAERR                              #  NO
001213:    6216           00006        CONOTCHK           EXTEND                                         #  YES
001214:    6217           00025                           READ     CH25                                  #  CONOUT
001215:    6220           75461                           MASK     BOTEOT6A
001216:    6221           65671                           AD       LOW11
001217:    6222           10000                           CCS      A                                     #  IS CONOUT OK
001218:    6223           06624                           TC       CONOUTER                              #  NO
001219:    6224           06624                           TC       CONOUTER                              #  NO
001220:    6225           06624                           TC       CONOUTER                              #  NO
001221:    6226           00006                           EXTEND                                         #  YES
001222:    6227           00027                           READ     CH27
001223:    6230           00006                           EXTEND
001224:    6231           00026                           READ     CH26
001225:                                                                                                  #  Page D-25
001226:    6232           10000                           CCS      A                                     #  IS CONIN OK
001227:    6233           06640                           TC       CONINERR                              #  NO
001228:    6234           06237                           TC       +3                                    #  YES
001229:    6235           06640                           TC       CONINERR                              #  NO
001230:    6236           06640                           TC       CONINERR                              #  NO
001231:    6237           30120                           CA       IDSTARTL
001232:    6240           75657                           MASK     BIT15
001233:    6241           10000                           CCS      A
001234:    6242           06000                           TC       MERR
001235:    6243           06246                           TC       PROG
001236:    6244           06270                           TC       OKNDATA
001237:    6245           06000                           TC       MERR
001238:    6246           30121        PROG               CA       IDSTOPL
001239:    6247           75667                           MASK     LOW5
001240:    6250           10000                           CCS      A
001241:    6251           06255                           TC       CHECK
001242:    6252           06270                           TC       OKNDATA
001243:    6253           06000                           TC       MERR
001244:    6254           06000                           TC       MERR
001245:    6255           65763        CHECK              AD       MINUS20
001246:    6256           10000                           CCS      A
001247:    6257           06263                           TC       CHECKAG
001248:    6260           06000                           TC       MERR
001249:    6261           06604                           TC       IDSTPERR
001250:    6262           06270                           TC       OKNDATA
001251:    6263           65764        CHECKAG            AD       MINUS6
001252:    6264           10000                           CCS      A
001253:    6265           06604                           TC       IDSTPERR
001254:    6266           06000                           TC       MERR
001255:    6267           06270                           TC       +1
001256:    6270           30124        OKNDATA            CA       CH25LOAD
001257:    6271           00006                           EXTEND                                         #  LOAD CONOUT
001258:    6272           01025                           WRITE    CH25
001259:    6273           00006                           EXTEND
001260:    6274           02025                           RAND     CH25
001261:    6275           40000                           CS       A
001262:    6276           60124                           AD       CH25LOAD
001263:    6277           10000                           CCS      A                                     #  DID CH25 LOAD CORRECTLY
001264:    6300           06643                           TC       CH25ERR                               #  NO
001265:    6301           06643                           TC       CH25ERR                               #  NO
001266:    6302           06643                           TC       CH25ERR                               #  NO
001267:    6303           34005                           CA       ZERO                                  #  YES
001268:    6304           54125                           TS       CORERCNT                              #  CLEAR CORRECTABLE ERROR COUNT
001269:    6305           35672                           CA       WAIT2L
001270:    6306           54126                           TS       CNTDWN2L
001271:    6307           35673        LOOKAGAN           CA       PFS
001272:    6310           54127                           TS       CNTDWN1L
001273:    6311           00006        FNDTRNSP           EXTEND                                         #  LOOK FOR TRNSIP
001274:    6312           00025                           READ     CH25
001275:    6313           75674                           MSK      BIT8
001276:    6314           10000                           CCS      A                                     #  HAS TRNSIP APPEARED
001277:    6315           06337                           TC       DATATRAN                              #  YES
001278:    6316           30127                           CA       CNTDWN1L                              #  NO
001279:    6317           10000                           CCS      A                                     #  IS FIRST COUNTDOWN OVER
001280:    6320           06322                           TC       +2                                    #  NO
001281:    6321           06324                           TC       +3                                    #  YES
001282:    6322           54127                           TS       CNTDWN1L
001283:    6323           07751                           TC       LISTID


001285:    6324           30126                           CA       CNTDWN2L
001286:    6325           10000                           CCS      A                                     #  HAVE 7 MINUTES PASSED
001287:    6326           06330                           TC       +2                                    #  NO
001288:    6327           06646                           TC       7MINERR                               #  YES
001289:    6330           54126                           TS       CNTDWN2L
001290:    6331           00006                           EXTEND
001291:    6332           00026                           READ     CH26
001292:    6333           75675                           MSK      ABORTL
001293:    6334           10000                           CCS      A                                     #  HAS AN ABORT BIT APPEARED
001294:    6335           06570                           TC       ABORTER1                              #  YES
001295:    6336           06307                           TC       LOOKAGAN                              #  NO
001296:    6337           34003        DATATRAN           CA       ONE                                   #  AM DATA TRANSFER IS IN PROGRESS
001297:    6340           54126                           TS       CNTDWN2L
001298:    6341           35676        STARTCNT           CA       WAIT1L
001299:    6342           54127                           TS       CNTDWN1L
001300:    6343           00006        DEVIDES            EXTEND
001301:    6344           10122                           DV       JUNK1L
001302:    6345           00006                           EXTEND
001303:    6346           10122                           DV       JUNK1L
001304:    6347           00006                           EXTEND
001305:    6350           10122                           DV       JUNK1L
001306:    6351           00006                           EXTEND
001307:    6352           70122                           MP       JUNK1L
001308:    6353           35677                           CA       GOATTRNS
001309:    6354           00006                           EXTEND
001310:    6355           02025                           RAND     CH25
001311:    6356           00006                           EXTEND
001312:    6357           16414                           BZF      BOTHGONE                              #  HAVE BOTH GOATM AND TRNSIP GONE
001313:    6360           40000                           CS       A                                     #  NO
001314:    6361           65677                           AD       GOATTRNS
001315:    6362           00006                           EXTEND
001316:    6363           16365                           BZF      +2                                    #  HAVE EITHER GOATM OR TRNSIP GONE
001317:    6364           06573                           TC       ONEUPERR                              #  YES
001318:    6365           30127                           CA       CNTDWN1L
001319:    6366           10000                           CCS      A                                     #  IS FIRST COUNTDOWN OVER
001320:    6367           06376                           TC       CONTINUE                              #  NO
001321:    6370           30126                           CA       CNTDWN2L                              #  YES
001322:    6371           10000                           CCS      A                                     #  HAVE 16 SECONDS PASSED
001323:    6372           06374                           TC       +2                                    #  NO
001324:    6373           06576                           TC       TRANSERR                              #  YES
001325:    6374           54126                           TS       CNTDWN2L
001326:    6375           06341                           TC       STARTCNT
001327:    6376           54127        CONTINUE           TS       CNTDWN1L
001328:    6377           35700                           CA       ABORTCER
001329:    6400           00006                           EXTEND
001330:    6401           02026                           RAND     CH26
001331:    6402           00006                           EXTEND
001332:    6403           16343                           BZF      DEVIDES                               #  HAS AN ABORT OR CORRECTABLE ERROR
001333:    6404           75675                           MSK      ABORTL                                #  OCCURED   YES
001334:    6405           00006                           EXTEND
001335:    6406           16410                           BZF      UPERRCNT                              #  HAS AN ABORT OCCURED
001336:    6407           06601                           TC       ABORTER2                              #  YES
001337:    6410           24125        UPERRCNT           INCR     CORERCNT
001338:    6411           00006                           EXTEND                                         #  CLEAR CONIN
001339:    6412           00027                           READ     CH27
001340:    6413           06343                           TC       DEVIDES
001341:    6414           35700        BOTHGONE           CA       ABORTCER
001342:    6415           00006                           EXTEND


001344:    6416           02026                           RAND     CH26
001345:    6417           00006                           EXTEND
001346:    6420           16430                           BZF      RDORWRTL                              #  HAS AN ABORT OR CORRECTABLE ERROR
001347:    6421           75675                           MSK      ABORTL                                #  OCCURED    YES
001348:    6422           00006                           EXTEND
001349:    6423           16425                           BZF      INCRERRC                              #  HAS AN ABORT OCCURED
001350:    6424           06654                           TC       ABORTER3                              #  YES
001351:    6425           24125        INCRERRC           INCR     CORERCNT
001352:    6426           00006                           EXTEND                                         #  CLEAR CHANNEL 27
001353:    6427           00027                           READ     CH27
001354:    6430           30124        RDORWRTL           CA       CH25LOAD
001355:    6431           75701                           MASK     WDATAL
001356:    6432           10000                           CCS      A                                     #  WAS THE DATA XFER READ OR WRITE TAPE
001357:    6433           07601                           TC       7SCHKA                                #  WRITE
001358:    6434           30123                           CA       TPBNKL                                #  READ CH21
001359:    6435           75660                           MASK     BNK3A                                 #  BITS 11, 12, AND 13
001360:    6436           65502                           AD       OUTCONGA                              #  BITS 14 AND 15
001361:    6437           54064                           TS       TEMPAA                                #  STORE
001362:    6440           00006                           EXTEND
001363:    6441           01001                           WRITE    CH1                                   #  STORE IN L
001364:    6442           30122                           CA       JUNK1L                                #  CH20
001365:    6443           75657                           MASK     BIT15                                 #  BIT 15 DATA
001366:    6444           10000                           CCS      A                                     #  DATA OR PROG
001367:    6445           06000                           TC       MERR                                  #  ERROR
001368:    6446           06451                           TC       +3                                    #  PROG
001369:    6447           06454                           TC       +5                                    #  DATA
001370:    6450           06000                           TC       MERR                                  #  ERROR
001371:    6451           30064                           CA       TEMPAA                                #  PROG O.K.
001372:    6452           54004                           TS       FB                                    #  LOAD FB
001373:    6453           06460                           TC       +5                                    #  CONTINUE
001374:    6454           35655                           CA       BIT13                                 #      ADD
001375:    6455           00006                           EXTEND                                         #      BIT
001376:    6456           04001                           ROR      CH1                                   #       13
001377:    6457           54004                           TS       FB                                    #  LOAD FB
001378:    6460           34005        STARTADD           CA       ZERO
001379:    6461           54130                           TS       SUML
001380:    6462           54131                           TS       OVFLOL
001381:    6463           35704                           CA       HIGHLOC
001382:    6464           54127                           TS       CNTDWN1L
001383:    6465           10127        LOCCNTDN           CCS      CNTDWN1L                              #  HAS BANK BEEN SUMMED
001384:    6466           06551                           TC       CONTSUM                               #  NO
001385:    6467           43776                           CS       FXDSUM                                #  YES
001386:    6470           60130                           AD       SUML
001387:    6471           10000                           CCS      A                                     #  WAS SUM OK
001388:    6472           06657                           TC       SUMERR                                #  NO
001389:    6473           06657                           TC       SUMERR                                #  NO
001390:    6474           06657                           TC       SUMERR                                #  NO
001391:    6475           43777                           CS       FXDOVFLO                              #  YES
001392:    6476           60131                           AD       OVFLOL
001393:    6477           10000                           CCS      A                                     #  WAS OVERFLOW OK
001394:    6500           06666                           TC       OVFLOERR                              #  NO
001395:    6501           06666                           TC       OVFLOERR                              #  NO
001396:    6502           06666                           TC       OVFLOERR                              #  NO
001397:    6503           00006                           EXTEND                                         #  YES
001398:    6504           00020                           READ     CH20
001399:    6505           75667                           MASK     LOW5
001400:    6506           10000                           CCS      A                                     #  WAS ID STOP ZERO
001401:    6507           06511                           TC       +2                                    #  NO


001403:    6510           00137                           TC       QSTORL                                #  YES
001404:    6511           54103                           TS       TEMPA                                 #  IDSTOP-1
001405:    6512           30123                           CA       TPBNKL
001406:    6513           75615                           MASK     LASTBKA
001407:    6514           54022                           TS       CYL
001408:    6515           30022                           CA       CYL
001409:    6516           30022                           CA       CYL
001410:    6517           30022                           CA       CYL
001411:    6520           30022                           CA       CYL
001412:    6521           30022                           CA       CYL
001413:    6522           40000                           CS       A
001414:    6523           60103                           AD       TEMPA
001415:    6524           10000                           CCS      A                                     #  WAS LAST BANK OF TRANSFER SUMMED
001416:    6525           06531                           TC       +4                                    #  NO
001417:    6526           06531                           TC       +3                                    #  NO
001418:    6527           06531                           TC       +2                                    #  NO
001419:    6530           00137                           TC       QSTORL                                #  YES
001420:    6531           30123                           CA       TPBNKL
001421:    6532           65707                           AD       INCRFB
001422:    6533           54123                           TS       TPBNKL
001423:    6534           45615                           CS       LASTBKA
001424:    6535           60004                           AD       FB
001425:    6536           10000                           CCS      A
001426:    6537           06545                           TC       INKFB
001427:    6540           06545                           TC       INKFB
001428:    6541           06545                           TC       INKFB
001429:    6542           35703                           CA       BNK34
001430:    6543           54004                           TS       FB
001431:    6544           06460                           TC       STARTADD
001432:    6545           30004        INKFB              CA       FB                                    #  INCREMENT FIXED BANK REGISTER
001433:    6546           65707                           AD       INCRFB
001434:    6547           54004                           TS       FB
001435:    6550           06460                           TC       STARTADD
001436:    6551           54127        CONTSUM            TS       CNTDWN1L
001437:    6552           54001                           TS       L                                     #  ADDRESS 2000 IN L
001438:    6553           50000                           NDX      A
001439:    6554           32000                           CA       2000
001440:    6555           60130                           AD       SUML
001441:    6556           54130                           TS       SUML
001442:    6557           06465                           TC       LOCCNTDN
001443:    6560           24131                           INCR     OVFLOL
001444:    6561           06465                           TC       LOCCNTDN
001445:    6562           00006        R1STATLD           EXTEND                                         #  LOAD R1 WITH ID READ AND STATUS 17
001446:    6563           00023                           READ     CH23
001447:    6564           54073                           TS       R1
001448:    6565           34021        IDSERRA            CA       OC17
001449:    6566           54071                           TS       STATUS
001450:    6567           05174                           TC       TERR
001451:    6570           35716        ABORTER1           CA       NOUN70                                #  LOAD NOUN WITH 70
001452:    6571           54072                           TS       NOUN                                  #  INDICATES ABORT WAS DETECTED BEFORE
001453:    6572           07020                           TC       V8CHK
001454:    6573           35717        ONEUPERR           CA       NOUN67                                #  LOAD NOUN WITH 67
001455:    6574           54072                           TS       NOUN                                  #  INDICATES EITHER GOATM OR TRNSIP
001456:    6575           07020                           TC       V8CHK
001457:    6576           35720        TRANSERR           CA       NOUN65                                #  LOAD NOUN WITH 65
001458:    6577           54072                           TS       NOUN                                  #  INDICATES DATA TRANSFER HAS NOT
001459:    6600           06562                           TC       R1STATLD                              #  ENDED AFTER 16 SECONDS
001460:    6601           35721        ABORTER2           CA       NOUN64                                #  LAOD NOUN WITH 64


001462:    6602           54072                           TS       NOUN                                  #  INDICATES AN ABORT WAS DETECTED
001463:    6603           07020                           TC       V8CHK
001464:    6604           35710        IDSTPERR           CA       NOUN76                                #  LOAD NOUN WITH 76
001465:    6605           54072                           TS       NOUN                                  #  INDICATES ID STOP IN CH 20 DID
001466:    6606           00006                           EXTEND                                         #  NOT VERIFIED
001467:    6607           00020                           READ     CH20
001468:    6610           54073                           TS       R1
001469:    6611           06565                           TC       IDSERRA
001470:    6612           35711        IDSTAERR           CA       NOUN75                                #  LOAD NOUN WITH 75
001471:    6613           54072                           TS       NOUN                                  #  INDICATES ID START IN CHS 20 AND 21
001472:    6614           30122                           CA       JUNK1L                                #  DID NOT VERIFY
001473:    6615           54073                           TS       R1
001474:    6616           06565                           TC       IDSERRA
001475:    6617           35765        IDSTAERA           CA       NOUN66
001476:    6620           54072                           TS       NOUN
001477:    6621           32000                           CA       2000
001478:    6622           54073                           TS       R1
001479:    6623           06565                           TC       IDSERRA
001480:    6624           35674        CONOUTER           CA       BIT8
001481:    6625           00006                           EXTEND
001482:    6626           02025                           RAND     CH25
001483:    6627           10000                           CCS      A
001484:    6630           06634                           TC       RESTRNSP
001485:    6631           35712                           CA       NOUN74                                #  LOAD NOUN WITH 74
001486:    6632           54072                           TS       NOUN                                  #  INDICATES CONOUT CH 25 DID NOT
001487:    6633           06562                           TC       R1STATLD                              #  VERIFY
001488:    6634           35674        RESTRNSP           CA       BIT8
001489:    6635           00006                           EXTEND
001490:    6636           01025                           WRITE    CH25
001491:    6637           06216                           TC       CONOTCHK
001492:    6640           35713        CONINERR           CA       NOUN73                                #  LOAD NOUN WITH 73
001493:    6641           54072                           TS       NOUN                                  #  INDICATES CONIN CH 26 IS NOT ZERO
001494:    6642           06562                           TC       R1STATLD
001495:    6643           35714        CH25ERR            CA       NOUN72                                #  LOAD NOUN WITH 72
001496:    6644           54072                           TS       NOUN                                  #  INDICATES CONOUT CH 25 DID NOT
001497:    6645           06562                           TC       R1STATLD                              #  LOAD CORRECTLY
001498:    6646           35715        7MINERR            CA       NOUN71                                #  LOAD NOUN WITH 71
001499:    6647           54072                           TS       NOUN                                  #  INDICATES TRNSIP HAS NOT APPEARED
001500:    6650           30007                           CA       ZEROS
001501:    6651           00006                           EXTEND
001502:    6652           01025                           WRITE    CH25
001503:    6653           06562                           TC       R1STATLD                              #  WITHIN 7 MIN AFTER GOATM WAS LOADED
001504:    6654           35722        ABORTER3           CA       NOUN63                                #  LOAD NOUN WITH 63
001505:    6655           54072                           TS       NOUN                                  #  INDICATES ABORT WAS DETECTED AFTER
001506:    6656           07020                           TC       V8CHK
001507:    6657           35723        SUMERR             CA       NOUN62                                #  LOAD NOUN WITH 62
001508:    6660           54072                           TS       NOUN                                  #  INDICATES SUM CHECK NOT CORRECT
001509:    6661           30130                           CA       SUML                                  #  LOAD R1 WITH SUM
001510:    6662           54073                           TS       R1
001511:    6663           34021                           CA       OC17
001512:    6664           54071                           TS       STATUS
001513:    6665           05174                           TC       TERR
001514:    6666           35724        OVFLOERR           CA       NOUN61                                #  LOAD NOUN WITH 61
001515:    6667           54072                           TS       NOUN                                  #  INDICATES OVERFLOW COUNT NOT CORRECT
001516:    6670           30131                           CA       OVFLOL                                #  LOAD R1 WITH OVERFLOW COUNT
001517:    6671           54073                           TS       R1
001518:    6672           34021                           CA       OC17
001519:    6673           54071                           TS       STATUS


001521:    6674           05174                           TC       TERR
001522:    6675           30121        SUMIT              CA       IDSTOPL                               #  GET BANK SUM + LOAD LAST 2 LOC IN BK
001523:    6676           75731                           MSK      OC14                                  #  00014
001524:    6677           54020                           TS       CYR
001525:    6700           30020                           CA       CYR
001526:    6701           30020                           CA       CYR
001527:    6702           54140                           TS       HOLD1STB                              #  STORE FIRST BANK OF TRANSFER
001528:    6703           54022                           TS       CYL
001529:    6704           30022                           CA       CYL
001530:    6705           30022                           CA       CYL
001531:    6706           30022                           CA       CYL
001532:    6707           30022                           CA       CYL
001533:    6710           30022                           CA       CYL
001534:    6711           30022                           CA       CYL
001535:    6712           30022                           CA       CYL
001536:    6713           30022                           CA       CYL
001537:    6714           30022                           CA       CYL
001538:    6715           30022                           CA       CYL
001539:    6716           65703                           AD       BNK34
001540:    6717           54004                           TS       FB
001541:    6720           34005        STARTSUM           CA       ZERO
001542:    6721           54130                           TS       SUML
001543:    6722           54131                           TS       OVFLOL
001544:    6723           35704                           CA       HIGHLOC
001545:    6724           54127                           TS       CNTDWN1L
001546:    6725           10127        CHKCNTDN           CCS      CNTDWN1L                              #  HAS BANK BEEN SUMMED
001547:    6726           07007                           TC       GETSUM                                #  NO
001548:    6727           30140                           CA       HOLD1STB                              #  YES
001549:    6730           50000                           NDX      A
001550:    6731           35725                           CA       EBKEQUIV
001551:    6732           54003                           TS       EB
001552:    6733           42000                           CS       2000
001553:    6734           60120                           AD       IDSTARTL
001554:    6735           10000                           CCS      A
001555:    6736           06617                           TC       IDSTAERA
001556:    6737           06617                           TC       IDSTAERA
001557:    6740           06742                           TC       SOMEA
001558:    6741           06617                           TC       IDSTAERA
001559:    6742           30124        SOMEA              CA       CH25LOAD
001560:    6743           75462                           MASK     COMOUT
001561:    6744           54020                           TS       CYR
001562:    6745           30020                           CA       CYR
001563:    6746           30020                           CA       CYR
001564:    6747           30020                           CA       CYR
001565:    6750           30020                           CA       CYR
001566:    6751           30020                           CA       CYR
001567:    6752           30020                           CA       CYR
001568:    6753           54144                           TS       HOLD
001569:    6754           32000                           CA       2000
001570:    6755           77362                           MASK     BIT3
001571:    6756           60144                           AD       HOLD
001572:    6757           77362                           MASK     BIT3
001573:    6760           10000                           CCS      A
001574:    6761           06617                           TC       IDSTAERA
001575:    6762           30130                           CA       SUML
001576:    6763           55776                           TS       1776
001577:    6764           30131                           CA       OVFLOL
001578:    6765           55777                           TS       1777


001580:    6766           30140                           CA       HOLD1STB
001581:    6767           24000                           INCR     A
001582:    6770           75705                           MSK      LASTBNK
001583:    6771           54140                           TS       HOLD1STB
001584:    6772           30121                           CA       IDSTOPL
001585:    6773           75705                           MSK      LASTBNK
001586:    6774           40000                           CS       A
001587:    6775           60140                           AD       HOLD1STB
001588:    6776           10000                           CCS      A
001589:    6777           07003                           TC       +4
001590:    7000           07003                           TC       +3
001591:    7001           07003                           TC       +2
001592:    7002           06153                           TC       BEGINL
001593:    7003           30004                           CA       FB
001594:    7004           65707                           AD       INCRFB
001595:    7005           54004                           TS       FB
001596:    7006           06720                           TC       STARTSUM
001597:    7007           54127        GETSUM             TS       CNTDWN1L
001598:    7010           54001                           TS       L                                     #  ADDRESS 2000 IN L
001599:    7011           50000                           NDX      A
001600:    7012           32000                           CA       2000
001601:    7013           60130                           AD       SUML
001602:    7014           54130                           TS       SUML
001603:    7015           06725                           TC       CHKCNTDN                              #  NO OVERFLOW
001604:    7016           24131                           INCR     OVFLOL                                #  OVERFLOW
001605:    7017           06725                           TC       CHKCNTDN
001606:    7020           30115        V8CHK              CA       VERBREGL
001607:    7021           65732                           AD       VERB8
001608:    7022           10000                           CCS      A
001609:    7023           06562                           TC       R1STATLD
001610:    7024           06562                           TC       R1STATLD
001611:    7025           06562                           TC       R1STATLD
001612:    7026           00006                           EXTEND
001613:    7027           00021                           READ     CH21
001614:    7030           54073                           TS       R1
001615:    7031           06565                           TC       IDSERRA
001616:    7032           04506        V14                TC       DISPLAY
001617:    7033           35733                           CA       READK14
001618:    7034           54136                           TS       READKSTA
001619:    7035           35743                           CA       BBKAA
001620:    7036           54145                           TS       BBK
001621:    7037           07045                           TC       COMROUTN
001622:    7040           04506        V15                TC       DISPLAY
001623:    7041           35734                           CA       READK15
001624:    7042           54136                           TS       READKSTA
001625:    7043           35744                           CA       BBKBA
001626:    7044           54145                           TS       BBK
001627:    7045           30145        COMROUTN           CA       BBK                                   #  TRANSFER DATA FROM PAC TO ACM
001628:    7046           54006                           TS       BB
001629:    7047           35737                           CA       ACMFBKA
001630:    7050           54165                           TS       ACMFBK
001631:    7051           34005                           CA       ZERO
001632:    7052           54141                           TS       EBCOUNT
001633:    7053           54142                           TS       FBCOUNT
001634:    7054           07060                           TC       PACTRNS
001635:    7055           06142                           TC       TPTRAN
001636:    7056           07107                           TC       CLRACM
001637:    7057           07164                           TC       CRTNAFT


001639:    7060           30002        PACTRNS            CA       Q
001640:    7061           54137                           TS       QSTORL
001641:    7062           50142        CONTTRNS           NDX      FBCOUNT
001642:    7063           32000                           CA       2000
001643:    7064           50141                           NDX      EBCOUNT
001644:    7065           55400                           TS       1400
001645:    7066           24142                           INCR     FBCOUNT
001646:    7067           24141                           INCR     EBCOUNT
001647:    7070           30142                           CA       FBCOUNT
001648:    7071           54001                           TS       L                                     #  ADDRESS 1400 IN L
001649:    7072           45735                           CS       EBFULL
001650:    7073           60141                           AD       EBCOUNT
001651:    7074           10000                           CCS      A                                     #  IS AN ACM EBANK FULL
001652:    7075           06000                           TC       MERR                                  #  ERROR
001653:    7076           06000                           TC       MERR                                  #  ERROR
001654:    7077           07062                           TC       CONTTRNS                              #  NO
001655:    7100           45736                           CS       FBFULL                                #  YES
001656:    7101           60142                           AD       FBCOUNT
001657:    7102           10000                           CCS      A                                     #  HAS A COMPLETE PAC BANK BEEN TRANSFD
001658:    7103           06000                           TC       MERR                                  #  ERROR
001659:    7104           06000                           TC       MERR                                  #  ERROR
001660:    7105           07257                           TC       INCREB                                #  NO
001661:    7106           00137                           TC       QSTORL                                #  YES GO TO SUBROUTINE WHICH XFERS
001662:                                                                                                  #   DATA FROM ACM TO ATM
001663:    7107           30145        CLRACM             CA       BBK                                   #  CLEAR ACM
001664:    7110           54006                           TS       BB
001665:    7111           34005                           CA       ZERO
001666:    7112           54142                           TS       FBCOUNT
001667:    7113           54141                           TS       EBCOUNT
001668:    7114           30002                           CA       Q
001669:    7115           54070                           TS       QSTORE
001670:    7116           30142        CONTCLR            CA       FBCOUNT
001671:    7117           54103                           TS       TEMPA
001672:    7120           30007                           CA       ZEROS
001673:    7121           50141                           NDX      EBCOUNT
001674:    7122           55400                           TS       1400
001675:    7123           24141                           INCR     EBCOUNT
001676:    7124           24142                           INCR     FBCOUNT
001677:    7125           45735                           CS       EBFULL
001678:    7126           60141                           AD       EBCOUNT
001679:    7127           10000                           CCS      A                                     #  HAS AN ACM EBANK BEEN CLEARED
001680:    7130           06000                           TC       MERR                                  #  ERROR
001681:    7131           06000                           TC       MERR                                  #  ERROR
001682:    7132           07263                           TC       ZEROA                                 #  NO
001683:    7133           45736                           CS       FBFULL                                #  YES
001684:    7134           60142                           AD       FBCOUNT
001685:    7135           10000                           CCS      A                                     #  HAVE 4 ACM EBANKS BEEN CLEARED
001686:    7136           06000                           TC       MERR                                  #  ERROR
001687:    7137           06000                           TC       MERR                                  #  ERROR
001688:    7140           07265                           TC       INCREBA                               #  NO
001689:    7141           30103                           CA       TEMPA
001690:    7142           54142                           TS       FBCOUNT
001691:    7143           30165                           CA       ACMFBK
001692:    7144           54004                           TS       FB
001693:    7145           50142        CONTZCHK           NDX      FBCOUNT
001694:    7146           32000                           CA       2000
001695:    7147           10000                           CCS      A                                     #  IS ACM WORD CLARED
001696:    7150           07271                           TC       CLRERROR                              #  NO


001698:    7151           07154                           TC       +3                                    #  YES
001699:    7152           07271                           TC       CLRERROR                              #  NO
001700:    7153           07271                           TC       CLRERROR                              #  NO
001701:    7154           24142                           INCR     FBCOUNT
001702:    7155           45736                           CS       FBFULL
001703:    7156           60142                           AD       FBCOUNT
001704:    7157           10000                           CCS      A                                     #  HAS EVERY ACM WORD BEEN CHECKED
001705:    7160           06000                           TC       MERR                                  #  ERROR
001706:    7161           06000                           TC       MERR                                  #  ERROR
001707:    7162           07145                           TC       CONTZCHK                              #  NO
001708:    7163           00070                           TC       QSTORE                                #  YES
001709:    7164           35741        CRTNAFT            CA       READKC25                              #  CONTINUE
001710:    7165           54124                           TS       CH25LOAD
001711:    7166           30136                           CA       READKSTA
001712:    7167           54120                           TS       IDSTARTL
001713:    7170           34005                           CA       ZERO
001714:    7171           54121                           TS       IDSTOPL
001715:    7172           06142                           TC       TPTRAN
001716:    7173           30007        AMCHKLA            CA       ZEROS                                 #  CHECK ACM AGAINST PAC
001717:    7174           54142                           TS       FBCOUNT
001718:    7175           54143                           TS       ERRCOUNT
001719:    7176           07200                           TC       +2
001720:    7177           07230                           TC       ERRCHKAA
001721:    7200           30002                           CA       Q
001722:    7201           54137                           TS       QSTORL
001723:    7202           30145        CONTWDCK           CA       BBK
001724:    7203           54006                           TS       BB
001725:    7204           50142                           NDX      FBCOUNT
001726:    7205           32000                           CA       2000
001727:    7206           54144                           TS       HOLD
001728:    7207           30165                           CA       ACMFBK
001729:    7210           54004                           TS       FB
001730:    7211           50142                           NDX      FBCOUNT
001731:    7212           42000                           CS       2000
001732:    7213           60144                           AD       HOLD
001733:    7214           10000                           CCS      A                                     #  DOES ACM WORD AGREE WITH PAC WORD
001734:    7215           07234                           TC       UPERCNT                               #  NO
001735:    7216           07234                           TC       UPERCNT                               #  NO
001736:    7217           07234                           TC       UPERCNT                               #  NO
001737:    7220           24142        CONTINU            INCR     FBCOUNT
001738:    7221           40142                           CS       FBCOUNT
001739:    7222           65745                           AD       FULLESS2
001740:    7223           10000                           CCS      A                                     #  HAS EVERY WORD BEEN CHECKED
001741:    7224           07202                           TC       CONTWDCK                              #  NO
001742:    7225           07202                           TC       CONTWDCK                              #  NO
001743:    7226           07202                           TC       CONTWDCK                              #  NO
001744:    7227           00137                           TC       QSTORL
001745:    7230           30143        ERRCHKAA           CA       ERRCOUNT
001746:    7231           10000                           CCS      A                                     #  WERE THERE ANY ERRORS
001747:    7232           04460                           TC       IDLE                                  #  YES
001748:    7233           05620                           TC       SUCCESS                               #  NO
001749:    7234           24143        UPERCNT            INCR     ERRCOUNT
001750:    7235           35742                           CA       NOUN56
001751:    7236           54072                           TS       NOUN
001752:    7237           35736                           CA       FBFULL
001753:    7240           60142                           AD       FBCOUNT
001754:    7241           54073                           TS       R1                                    #  LOAD R1 WITH ADDRESS OF ERROR
001755:    7242           50000                           NDX      A


001757:    7243           30000                           CA       A
001758:    7244           54074                           TS       R2                                    #  LOAD R2 WITH ACM DATA
001759:    7245           30145                           CA       BBK
001760:    7246           54006                           TS       BB
001761:    7247           30073                           CA       R1
001762:    7250           50000                           NDX      A
001763:    7251           30000                           CA       A
001764:    7252           54075                           TS       R3                                    #  LOAD R3 WITH PAC DATA
001765:    7253           34021                           CA       OC17
001766:    7254           54071                           TS       STATUS
001767:    7255           04506                           TC       DISPLAY                               #  DISPLAY NOUN R1 R2 AND R3
001768:    7256           07220                           TC       CONTINU                               #  CHECK NEXT WORD
001769:    7257           34005        INCREB             CA       ZERO                                  #  PAC DATA XFER NOT COMPLETE UPDATE
001770:    7260           54141                           TS       EBCOUNT                               #  ACM EBANK
001771:    7261           24006                           INCR     BB
001772:    7262           07062                           TC       CONTTRNS
001773:    7263           34005        ZEROA              CA       ZERO
001774:    7264           07116                           TC       CONTCLR
001775:    7265           24006        INCREBA            INCR     BB
001776:    7266           34005                           CA       ZERO
001777:    7267           54141                           TS       EBCOUNT
001778:    7270           07116                           TC       CONTCLR
001779:    7271           35736        CLRERROR           CA       FBFULL                                #  LOAD NOUN WITH 57
001780:    7272           60142                           AD       FBCOUNT                               #  INDICATES ACM DID NOT CLEAR AFTER
001781:    7273           54073                           TS       R1                                    #  DATA WAS SENT TO ATM
001782:    7274           34021                           CA       OC17                                  #  LOAD R1 WITH FIRST ACM ADDRESS THAT
001783:    7275           54071                           TS       STATUS                                #  WAS NOT CLEARED
001784:    7276           35740                           CA       NOUN57
001785:    7277           54072                           TS       NOUN
001786:    7300           05174                           TC       TERR
001787:    7301           04506        V16                TC       DISPLAY
001788:    7302           35746                           CA       1STBKA
001789:    7303           54163                           TS       BNKNUMAA
001790:    7304           35747                           CA       2NDBKA
001791:    7305           54164                           TS       BNKNUMBA
001792:    7306           07315                           TC       TRFRA
001793:    7307           35750                           CA       3RDBKA
001794:    7310           54163                           TS       BNKNUMAA
001795:    7311           35751                           CA       4THBKA
001796:    7312           54164                           TS       BNKNUMBA
001797:    7313           07315                           TC       TRFRA
001798:    7314           07336                           TC       NARTCAPA
001799:    7315           30002        TRFRA              CA       Q
001800:    7316           54070                           TS       QSTORE
001801:    7317           30163                           CA       BNKNUMAA
001802:    7320           54006                           TS       BB
001803:    7321           32000                           CA       2000                                  #  LOAD ID FOR EBANK
001804:    7322           55400                           TS       1400                                  #  ENDING ZERO
001805:    7323           35475                           CA       OC10
001806:    7324           54141                           TS       EBCOUNT
001807:    7325           54142                           TS       FBCOUNT
001808:    7326           07060                           TC       PACTRNS
001809:    7327           30164                           CA       BNKNUMBA
001810:    7330           54006                           TS       BB
001811:    7331           30007                           CA       ZEROS
001812:    7332           54141                           TS       EBCOUNT
001813:    7333           54142                           TS       FBCOUNT
001814:    7334           07060                           TC       PACTRNS


001816:    7335           00070                           TC       QSTORE
001817:    7336           06142        NARTCAPA           TC       TPTRAN
001818:    7337           34313                           CA       STARTBLE   +8
001819:    7340           54120                           TS       IDSTARTL
001820:    7341           34334                           CA       STOPTBLE   +8
001821:    7342           54121                           TS       IDSTOPL
001822:    7343           34355                           CA       CH25TBLE   +8
001823:    7344           54124                           TS       CH25LOAD
001824:    7345           07032                           TC       V14
001825:    7346           04506        V10                TC       DISPLAY
001826:    7347           06142                           TC       TPTRAN
001827:    7350           30125                           CA       CORERCNT
001828:    7351           54073                           TS       R1
001829:    7352           34337                           CA       ALL7SL
001830:    7353           54074                           TS       R2
001831:    7354           54075                           TS       R3
001832:    7355           54072                           TS       NOUN
001833:    7356           34021                           CA       OC17
001834:    7357           54071                           TS       STATUS
001835:    7360           04506                           TC       DISPLAY
001836:    7361           04460                           TC       IDLE
001837:    7362           00004        BIT3               OCT      00004
001838:    7363           34005        V00PROC            CA       ZERO
001839:    7364           54152                           TS       READX
001840:    7365           54153                           TS       BANKNO
001841:    7366           54162                           TS       DATAHOLD
001842:    7367           54154                           TS       ADDHOLD
001843:    7370           54156                           TS       BNKSHFT
001844:    7371           54160                           TS       HOLDBKDG
001845:    7372           35706                           CA       BNK5
001846:    7373           54161                           TS       GETDATA
001847:    7374           54151                           TS       GETADD
001848:    7375           34015                           CA       TWO
001849:    7376           54157                           TS       1STBNKNO
001850:    7377           64003                           AD       ONE
001851:    7400           54150                           TS       BNKPR
001852:    7401           34003                           CA       ONE
001853:    7402           54147                           TS       1STDIGPR
001854:    7403           04454                           TC       RETURNL
001855:    7404           30166        ZZPROC             CA       SWITCH
001856:    7405           10000                           CCS      A
001857:    7406           02000                           TC       2000
001858:    7407           40110                           CS       TEMP1L
001859:    7410           74011                           MSK      THIRTY
001860:    7411           10000                           CCS      A                                     #  WAS A DIGIT HIT
001861:    7412           07414                           TC       +2                                    #  YES
001862:    7413           04435                           TC       OPERROR                               #  NO
001863:    7414           30110                           CA       TEMP1L
001864:    7415           75475                           MSK      OC10
001865:    7416           10000                           CCS      A                                     #  WAS 8 OR 9 HIT
001866:    7417           04435                           TC       OPERROR                               #  YES
001867:    7420           30110                           CA       TEMP1L                                #  NO
001868:    7421           74360                           MSK      MASKBA
001869:    7422           54146                           TS       HOLDIT
001870:    7423           10147                           CCS      1STDIGPR                              #  IS THIS FIRST DIGIT HIT
001871:    7424           07463                           TC       MODESEL                               #  YES
001872:    7425           10150                           CCS      BNKPR                                 #  NO IS THIS THE 2ND OR 3RD DIGIT
001873:    7426           07515                           TC       LDBNKL                                #  YES


001875:    7427           10151                           CCS      GETADD                                #  NO IS THE ADDRESS COMPLETE
001876:    7430           07530                           TC       ADDPROC                               #  NO
001877:    7431           10152                           CCS      READX                                 #  YES IS THIS A LOAD
001878:    7432           07542                           TC       DATALD                                #  YES
001879:    7433           30153                           CA       BANKNO                                #  NO
001880:    7434           54006                           TS       BB
001881:    7435           10146                           CCS      HOLDIT
001882:    7436           07440                           TC       +2
001883:    7437           07455                           TC       TRANSC
001884:    7440           30154                           CA       ADDHOLD
001885:    7441           54074                           TS       R2                                    #  DISPLAY ADDRESS IN R2
001886:    7442           50000                           NDX      A
001887:    7443           30000                           CA       A
001888:    7444           54075                           TS       R3                                    #  DISPLAY DATA IN R3
001889:    7445           24154                           INCR     ADDHOLD
001890:    7446           37451        UPDISPLA           CA       GODISP                                #  UPDATE DISPLAY WITH BRUPT
001891:    7447           54017                           TS       BRUPT
001892:    7450           50017                           RESUME
001893:    7451           07452        GODISP             TC       +1
001894:    7452           04506                           TC       DISPLAY
001895:    7453           04460                           TC       IDLE
001896:    7454           05620        TOSUCCL            TC       SUCCESS
001897:    7455           37454        TRANSC             CA       TOSUCCL
001898:    7456           54070                           TS       QSTORE
001899:    7457           54137                           TS       QSTORL
001900:    7460           30154                           CA       ADDHOLD
001901:    7461           54017                           TS       BRUPT
001902:    7462           50017                           RESUME
001903:    7463           54147        MODESEL            TS       1STDIGPR
001904:    7464           30146                           CA       HOLDIT
001905:    7465           54072                           TS       NOUN
001906:    7466           34021                           CA       OC17
001907:    7467           54071                           TS       STATUS
001908:    7470           30007                           CA       ZEROS
001909:    7471           54073                           TS       R1
001910:    7472           54074                           TS       R2
001911:    7473           54075                           TS       R3
001912:    7474           10146                           CCS      HOLDIT                                #  WILL THE OP BE READ FXD
001913:    7475           07501                           TC       CONTMODE                              #  NO
001914:    7476           34003                           CA       ONE                                   #  YES
001915:    7477           54156                           TS       BNKSHFT
001916:    7500           07446                           TC       UPDISPLA
001917:    7501           10000        CONTMODE           CCS      A                                     #  WILL THE OP BE LOAD OR READ ERR
001918:    7502           07504                           TC       ENDOP
001919:    7503           07446                           TC       UPDISPLA
001920:    7504           10000        ENDOP              CCS      A
001921:    7505           07512                           TC       MIKEB
001922:    7506           07507                           TC       LOADSET
001923:    7507           34003        LOADSET            CA       ONE
001924:    7510           54152                           TS       READX
001925:    7511           07446                           TC       UPDISPLA
001926:    7512           35215        MIKEB              CA       V00BK
001927:    7513           54004                           TS       FB
001928:    7514           02001                           TC       2001
001929:    7515           54150        LDBNKL             TS       BNKPR
001930:    7516           10157                           CCS      1STBNKNO                              #  IS THIS THE 1ST BNK NO
001931:    7517           05643                           TC       SHIFT3L                               #  YES
001932:    7520           30146                           CA       HOLDIT                                #  NO


001934:    7521           60160                           AD       HOLDBKDG
001935:    7522           54153                           TS       BANKNO
001936:    7523           10156                           CCS      BNKSHFT                               #  IS THE ADDRESS FXD OR ERR
001937:    7524           05631                           TC       FXDPR
001938:    7525           30153                           CA       BANKNO
001939:    7526           54073                           TS       R1
001940:    7527           07446                           TC       UPDISPLA
001941:    7530           54151        ADDPROC            TS       GETADD
001942:    7531           30154                           CA       ADDHOLD
001943:    7532           54022                           TS       CYL
001944:    7533           30022                           CA       CYL
001945:    7534           30022                           CA       CYL
001946:    7535           30022                           CA       CYL
001947:    7536           60146                           AD       HOLDIT
001948:    7537           54154                           TS       ADDHOLD
001949:    7540           54074                           TS       R2
001950:    7541           07446                           TC       UPDISPLA
001951:    7542           10161        DATALD             CCS      GETDATA                               #  IS DATA COMPLETE
001952:    7543           07567                           TC       CONTDATA                              #  NO
001953:    7544           30153                           CA       BANKNO                                #  YES
001954:    7545           54006                           TS       BB
001955:    7546           30154                           CA       ADDHOLD
001956:    7547           54074                           TS       R2
001957:    7550           35706                           CA       BNK5
001958:    7551           54161                           TS       GETDATA
001959:    7552           30162                           CA       DATAHOLD
001960:    7553           50154                           NDX      ADDHOLD
001961:    7554           54000                           TS       A
001962:    7555           50154                           NDX      ADDHOLD
001963:    7556           30000                           CA       A
001964:    7557           54073                           TS       R1
001965:    7560           24154                           INCR     ADDHOLD
001966:    7561           34005                           CA       ZERO
001967:    7562           54162                           TS       DATAHOLD
001968:    7563           37451                           CA       GODISP
001969:    7564           54017                           TS       BRUPT
001970:    7565           50017                           RESUME
001971:    7566           04460                           TC       IDLE
001972:    7567           54161        CONTDATA           TS       GETDATA
001973:    7570           30162                           CA       DATAHOLD
001974:    7571           54022                           TS       CYL
001975:    7572           30022                           CA       CYL
001976:    7573           30022                           CA       CYL
001977:    7574           30022                           CA       CYL
001978:    7575           60146                           AD       HOLDIT
001979:    7576           54162                           TS       DATAHOLD
001980:    7577           54075                           TS       R3
001981:    7600           07446                           TC       UPDISPLA
001982:    7601           00006        7SCHKA             EXTEND
001983:    7602           00023                           READ     CH23
001984:    7603           10000                           CCS      A
001985:    7604           00137                           TC       QSTORL
001986:    7605           00137                           TC       QSTORL
001987:    7606           00137                           TC       QSTORL
001988:    7607           37615                           CA       OC177
001989:    7610           00006                           EXTEND
001990:    7611           01011                           WRITE    CH11
001991:    7612           37616                           CA       NOUN60


001993:    7613           54072                           TS       NOUN
001994:    7614           06562                           TC       R1STATLD
001995:    7615           00177        OC177              OCT      00177
001996:    7616           00060        NOUN60             OCT      00060
001997:    7617           04506        V21                TC       DISPLAY
001998:    7620           06142                           TC       TPTRAN
001999:    7621           02001                           TC       2001
002000:    7622           05620                           TC       SUCCESS
002001:    7623           04506        V22                TC       DISPLAY
002002:    7624           35752                           CA       BBKCA                                 #  ...........
002003:    7625           54163                           TS       BNKNUMAA                              #            .
002004:    7626           35753                           CA       BBKDA                                 #            .
002005:    7627           54164                           TS       BNKNUMBA                              #            .
002006:    7630           07315                           TC       TRFRA                                 #       PAC TO MU4
002007:    7631           35754                           CA       BBKEA                                 #            .
002008:    7632           54163                           TS       BNKNUMAA                              #            .
002009:    7633           35755                           CA       BBKFA                                 #            .
002010:    7634           54164                           TS       BNKNUMBA                              #            .
002011:    7635           07315                           TC       TRFRA                                 #  ...........
002012:    7636           35756                           CA       BBKGA                                 #            .
002013:    7637           54163                           TS       BNKNUMAA                              #            .
002014:    7640           35757                           CA       BBKHA                                 #            .
002015:    7641           54164                           TS       BNKNUMBA                              #            .
002016:    7642           07315                           TC       TRFRA                                 #       MU4 TO MU5
002017:    7643           35760                           CA       BBKIA                                 #            .
002018:    7644           54163                           TS       BNKNUMAA                              #            .
002019:    7645           35761                           CA       BBKJA                                 #            .
002020:    7646           54164                           TS       BNKNUMBA                              #            .
002021:    7647           07315                           TC       TRFRA                                 #  ...........
002022:    7650           06142                           TC       TPTRAN                                #  MU5 TO ATM
002023:    7651           35756                           CA       BBKGA
002024:    7652           54006                           TS       BB
002025:    7653           35703                           CA       BNK34                                 #  70000
002026:    7654           54165                           TS       ACMFBK
002027:    7655           35475                           CA       OC10
002028:    7656           54142                           TS       FBCOUNT
002029:    7657           54141                           TS       EBCOUNT
002030:    7660           07114                           TC       CONTCLR    -2
002031:    7661           35757                           CA       BBKHA
002032:    7662           54145                           TS       BBK
002033:    7663           35737                           CA       ACMFBKA                               #  72000
002034:    7664           54165                           TS       ACMFBK
002035:    7665           07107                           TC       CLRACM                                #  CLEAR ACM MU5 BK35
002036:    7666           35760                           CA       BBKIA
002037:    7667           54006                           TS       BB
002038:    7670           35467                           CA       OUTCONCA                              #  74000
002039:    7671           54165                           TS       ACMFBK
002040:    7672           35475                           CA       OC10
002041:    7673           54142                           TS       FBCOUNT
002042:    7674           54141                           TS       EBCOUNT
002043:    7675           07114                           TC       CONTCLR    -2
002044:    7676           35761                           CA       BBKJA
002045:    7677           54145                           TS       BBK
002046:    7700           35615                           CA       LASTBKA                               #  76000
002047:    7701           54165                           TS       ACMFBK
002048:    7702           07107                           TC       CLRACM                                #  CLEAR ACM MU5 BK37
002049:    7703           35613                           CA       STOPA                                 #  ...........
002050:    7704           54124                           TS       CH25LOAD                              #            .


002052:    7705           35762                           CA       OCT51010
002053:    7706           54120                           TS       IDSTARTL                              #        SET UP TPTRAN
002054:    7707           35731                           CA       OC14
002055:    7710           54121                           TS       IDSTOPL                               #            .
002056:    7711           06142                           TC       TPTRAN                                #  ...........
002057:    7712           30007                           CA       ZEROS
002058:    7713           54143                           TS       ERRCOUNT                              #  SET ERROR COUNT TO ZERO
002059:    7714           35475                           CA       OC10
002060:    7715           54142                           TS       FBCOUNT                               #  START 1ST BANK AT 2010
002061:    7716           35756                           CA       BBKGA                                 #  MU4 FBANK 30 R3 IF ERROR
002062:    7717           54145                           TS       BBK
002063:    7720           35703                           CA       BNK34                                 #  MU5 FBANK 34 R2 IF ERROR
002064:    7721           54165                           TS       ACMFBK
002065:    7722           07200                           TC       CONTWDCK   -2
002066:    7723           30007                           CA       ZEROS
002067:    7724           54142                           TS       FBCOUNT                               #  START 2ND BANK AT 2000
002068:    7725           35757                           CA       BBKHA                                 #  MU4 FBANK 31 R3 IF ERROR
002069:    7726           54145                           TS       BBK
002070:    7727           35737                           CA       ACMFBKA                               #  MU5 FBANK 35 R2 IF ERROR
002071:    7730           54165                           TS       ACMFBK
002072:    7731           07200                           TC       CONTWDCK   -2
002073:    7732           35475                           CA       OC10
002074:    7733           54142                           TS       FBCOUNT                               #  START 3RD BANK AT 2010
002075:    7734           35760                           CA       BBKIA                                 #  MU4 FBANK 32 R3 IF ERROR
002076:    7735           54145                           TS       BBK
002077:    7736           35467                           CA       OUTCONCA                              #  MU5 FBANK 36 R2 IF ERROR
002078:    7737           54165                           TS       ACMFBK
002079:    7740           07200                           TC       CONTWDCK   -2
002080:    7741           30007                           CA       ZEROS
002081:    7742           54142                           TS       FBCOUNT                               #  START 4TH BANK AT 2000
002082:    7743           35761                           CA       BBKJA                                 #  MU4 FBANK 33 R3 IF ERROR
002083:    7744           54145                           TS       BBK
002084:    7745           35615                           CA       LASTBKA                               #  MU5 FBANK 37 R2 IF ERROR
002085:    7746           54165                           TS       ACMFBK
002086:    7747           07200                           TC       CONTWDCK   -2
002087:    7750           07230                           TC       ERRCHKAA
002088:    7751           00006        LISTID             EXTEND
002089:    7752           00023                           READ     CH23
002090:    7753           54167                           TS       NEWID
002091:    7754           40000                           CS       A
002092:    7755           60170                           AD       OLDID
002093:    7756           10000                           CCS      A                                     #  IS NEWID EQUAL TO OLDID
002094:    7757           07763                           TC       +4                                    #  STORE NEWID
002095:    7760           07763                           TC       +3                                    #  STORE NEWID
002096:    7761           07763                           TC       +2                                    #  STORE NEWID
002097:    7762           06311                           TC       FNDTRNSP                              #  YES GO BACK TO ROUTINE
002098:    7763           30167                           CA       NEWID
002099:    7764           54170                           TS       OLDID
002100:    7765           50171                           INDEX    LSTCNT
002101:    7766           54000                           TS       A                                     #  LOAD LIST
002102:    7767           24171                           INCR     LSTCNT
002103:    7770           35462                           CA       COMOUT
002104:    7771           50171                           INDEX    LSTCNT
002105:    7772           54000                           TS       A
002106:    7773           06311                           TC       FNDTRNSP
002107: 16,2000                                           SETLOC   CF162000
002108: 16,2000           02047                           TC       STDATTR
002109: 16,2001           32426                           CA       FIVE


002111: 16,2002           54172                           TS       ONETO5
002112: 16,2003           34005                           CA       ZERO
002113: 16,2004           54173                           TS       SIXTH
002114: 16,2005           54174                           TS       SEVENTH
002115: 16,2006           54175                           TS       EIGHTH
002116: 16,2007           54201                           TS       PUNCH5
002117: 16,2010           54210                           TS       PUNCH6
002118: 16,2011           34021                           CA       OC17
002119: 16,2012           54071                           TS       STATUS
002120: 16,2013           35472                           CA       C2A
002121: 16,2014           54202                           TS       LDFBLL
002122: 16,2015           35705                           CA       LASTBNK
002123: 16,2016           54203                           TS       LDEBLL
002124: 16,2017           50146                           NDX      HOLDIT
002125: 16,2020           02021                           TC       WHCHMBD
002126: 16,2021           04435        WHCHMBD            TC       OPERROR
002127: 16,2022           04435                           TC       OPERROR
002128: 16,2023           04435                           TC       OPERROR
002129: 16,2024           02035                           TC       RLRD                                  #  THREE READ
002130: 16,2025           02040                           TC       RLLD                                  #  FOUR LOAD
002131: 16,2026           02265                           TC       LDPN5
002132: 16,2027           02031                           TC       AMCHKL
002133: 16,2030           04435                           TC       OPERROR
002134: 16,2031           34003        AMCHKL             CA       ONE
002135: 16,2032           54210                           TS       PUNCH6
002136: 16,2033           54201                           TS       PUNCH5
002137: 16,2034           02044                           TC       SETSW
002138: 16,2035           34003        RLRD               CA       ONE
002139: 16,2036           54176                           TS       RDLD
002140: 16,2037           02042                           TC       +3
002141: 16,2040           34005        RLLD               CA       ZERO
002142: 16,2041           54176                           TS       RDLD
002143: 16,2042           34005                           CA       ZERO
002144: 16,2043           54146                           TS       HOLDIT
002145: 16,2044           34003        SETSW              CA       ONE
002146: 16,2045           54166                           TS       SWITCH
002147: 16,2046           07446                           TC       UPDISPLA
002148: 16,2047           10201        STDATTR            CCS      PUNCH5
002149: 16,2050           02270                           TC       TRPACBNK
002150: 16,2051           40110                           CS       TEMP1L
002151: 16,2052           74011                           MSK      THIRTY
002152: 16,2053           10000                           CCS      A                                     #  DIGIT
002153: 16,2054           02056                           TC       +2                                    #  YES
002154: 16,2055           02063                           TC       ENTCHK                                #  NO
002155: 16,2056           30110                           CA       TEMP1L
002156: 16,2057           75475                           MSK      OC10
002157: 16,2060           10000                           CCS      A                                     #  8 OR 9
002158: 16,2061           04435                           TC       OPERROR                               #  YES
002159: 16,2062           02071                           TC       ENTROK                                #  NO
002160: 16,2063           40110        ENTCHK             CS       TEMP1L
002161: 16,2064           64013                           AD       ENTRCDEL
002162: 16,2065           10000                           CCS      A                                     #  ENTER
002163: 16,2066           04435                           TC       OPERROR                               #  NO
002164: 16,2067           04435                           TC       OPERROR                               #  NO
002165: 16,2070           04435                           TC       OPERROR                               #  NO
002166: 16,2071           30110        ENTROK             CA       TEMP1L
002167: 16,2072           74360                           MSK      MASKBA
002168: 16,2073           54177                           TS       HOLDNO


002170: 16,2074           30172                           CA       ONETO5
002171: 16,2075           10000                           CCS      A
002172: 16,2076           02100                           TC       +2
002173: 16,2077           02125                           TC       SMPXTPX
002174: 16,2100           54172                           TS       ONETO5
002175: 16,2101           30177                           CA       HOLDNO
002176: 16,2102           26146                           ADS      HOLDIT
002177: 16,2103           30172                           CA       ONETO5
002178: 16,2104           10000                           CCS      A
002179: 16,2105           02107                           TC       +2
002180: 16,2106           02117                           TC       DISPITL
002181: 16,2107           30146                           CA       HOLDIT
002182: 16,2110           54073                           TS       R1
002183: 16,2111           54022                           TS       CYL
002184: 16,2112           30022                           CA       CYL
002185: 16,2113           30022                           CA       CYL
002186: 16,2114           30022                           CA       CYL
002187: 16,2115           54146                           TS       HOLDIT
002188: 16,2116           07446                           TC       UPDISPLA
002189: 16,2117           30146        DISPITL            CA       HOLDIT
002190: 16,2120           54073                           TS       R1
002191: 16,2121           34005                           CA       ZERO
002192: 16,2122           54074                           TS       R2
002193: 16,2123           54075                           TS       R3
002194: 16,2124           07446                           TC       UPDISPLA
002195: 16,2125           30173        SMPXTPX            CA       SIXTH
002196: 16,2126           10000                           CCS      A
002197: 16,2127           02145                           TC       NOBNKS
002198: 16,2130           30177                           CA       HOLDNO
002199: 16,2131           10000                           CCS      A                                     #   ZERO TRIPLEX
002200: 16,2132           34320                           CA       OUTCOML                               #   ONE SIMPLEX
002201: 16,2133           64345                           AD       CH25TBLE
002202: 16,2134           54146                           TS       HOLDIT
002203: 16,2135           10176                           CCS      RDLD
002204: 16,2136           02140                           TC       +2                                    #  ONE READ TAPE
002205: 16,2137           35701                           CA       WDATAL                                #  ZERO WRITE TAPE
002206: 16,2140           60146                           AD       HOLDIT
002207: 16,2141           54075                           TS       R3
002208: 16,2142           34003                           CA       ONE
002209: 16,2143           54173                           TS       SIXTH
002210: 16,2144           07446                           TC       UPDISPLA
002211: 16,2145           30174        NOBNKS             CA       SEVENTH
002212: 16,2146           10000                           CCS      A
002213: 16,2147           02201                           TC       KEEPGNG
002214: 16,2150           30177                           CA       HOLDNO
002215: 16,2151           54200                           TS       NOOFBNKS
002216: 16,2152           50000                           NDX      A
002217: 16,2153           02154                           TC       BNKNOOK
002218: 16,2154           04435        BNKNOOK            TC       OPERROR
002219: 16,2155           02164                           TC       ONEBNK
002220: 16,2156           02171                           TC       BNKGD
002221: 16,2157           02171                           TC       BNKGD
002222: 16,2160           02171                           TC       BNKGD
002223: 16,2161           04435                           TC       OPERROR
002224: 16,2162           04435                           TC       OPERROR
002225: 16,2163           04435                           TC       OPERROR
002226: 16,2164           34005        ONEBNK             CA       ZERO
002227: 16,2165           54074                           TS       R2


002229: 16,2166           34003                           CA       ONE
002230: 16,2167           54174                           TS       SEVENTH
002231: 16,2170           07446                           TC       UPDISPLA
002232: 16,2171           30073        BNKGD              CA       R1
002233: 16,2172           74012                           MSK      FIRST5
002234: 16,2173           60177                           AD       HOLDNO
002235: 16,2174           74012                           MSK      FIRST5
002236: 16,2175           54074                           TS       R2
002237: 16,2176           34003                           CA       ONE
002238: 16,2177           54174                           TS       SEVENTH
002239: 16,2200           07446                           TC       UPDISPLA
002240: 16,2201           30175        KEEPGNG            CA       EIGHTH
002241: 16,2202           10000                           CCS      A
002242: 16,2203           02256                           TC       WRITEIT
002243: 16,2204           40110                           CS       TEMP1L
002244: 16,2205           64013                           AD       ENTRCDEL
002245: 16,2206           10000                           CCS      A                                     #  WAS ENTER HIT
002246: 16,2207           02230                           TC       WRITTPL                               #  NO
002247: 16,2210           02230                           TC       WRITTPL                               #  NO
002248: 16,2211           02230                           TC       WRITTPL                               #  NO
002249: 16,2212           10176                           CCS      RDLD                                  #  YES WAS A READ REQUESTED
002250: 16,2213           02215                           TC       +2                                    #  YES
002251: 16,2214           04435                           TC       OPERROR                               #  NO
002252: 16,2215           30073        EXITLLL            CA       R1
002253: 16,2216           54120                           TS       IDSTARTL
002254: 16,2217           30074                           CA       R2
002255: 16,2220           54121                           TS       IDSTOPL
002256: 16,2221           30075                           CA       R3
002257: 16,2222           54124                           TS       CH25LOAD
002258: 16,2223           34005                           CA       ZERO
002259: 16,2224           54107                           TS       ZZTAG
002260: 16,2225           32427                           CA       GOL
002261: 16,2226           54017                           TS       BRUPT
002262: 16,2227           50017                           RESUME
002263: 16,2230           10176        WRITTPL            CCS      RDLD
002264: 16,2231           04435                           TC       OPERROR
002265: 16,2232           30177                           CA       HOLDNO
002266: 16,2233           10000                           CCS      A
002267: 16,2234           10000                           CCS      A
002268: 16,2235           10000                           CCS      A
002269: 16,2236           30000                           CA       A
002270: 16,2237           10000                           CCS      A
002271: 16,2240           04435                           TC       OPERROR
002272: 16,2241           30177                           CA       HOLDNO
002273: 16,2242           54022                           TS       CYL
002274: 16,2243           30022                           CA       CYL
002275: 16,2244           30022                           CA       CYL
002276: 16,2245           54074                           TS       R2
002277: 16,2246           30200                           CA       NOOFBNKS
002278: 16,2247           60177                           AD       HOLDNO
002279: 16,2250           75473                           MSK      C3A
002280: 16,2251           60074                           AD       R2
002281: 16,2252           54074                           TS       R2
002282: 16,2253           34003                           CA       ONE
002283: 16,2254           54175                           TS       EIGHTH
002284: 16,2255           07446                           TC       UPDISPLA
002285: 16,2256           40110        WRITEIT            CS       TEMP1L
002286: 16,2257           64013                           AD       ENTRCDEL


002288: 16,2260           10000                           CCS      A
002289: 16,2261           04435                           TC       OPERROR
002290: 16,2262           04435                           TC       OPERROR
002291: 16,2263           04435                           TC       OPERROR
002292: 16,2264           02215                           TC       EXITLLL
002293: 16,2265           34003        LDPN5              CA       ONE
002294: 16,2266           54201                           TS       PUNCH5
002295: 16,2267           02044                           TC       SETSW
002296: 16,2270           30110        TRPACBNK           CA       TEMP1L
002297: 16,2271           74360                           MSK      MASKBA
002298: 16,2272           54177                           TS       HOLDNO
002299: 16,2273           30202                           CA       LDFBLL
002300: 16,2274           10000                           CCS      A
002301: 16,2275           02277                           TC       FBKPR
002302: 16,2276           02335                           TC       EBKPR
002303: 16,2277           54202        FBKPR              TS       LDFBLL
002304: 16,2300           30177                           CA       HOLDNO
002305: 16,2301           60173                           AD       SIXTH
002306: 16,2302           54173                           TS       SIXTH
002307: 16,2303           10202                           CCS      LDFBLL
002308: 16,2304           02306                           TC       SHFBNK
002309: 16,2305           02315                           TC       TWOSH
002310: 16,2306           30173        SHFBNK             CA       SIXTH
002311: 16,2307           54022                           TS       CYL
002312: 16,2310           30022                           CA       CYL
002313: 16,2311           30022                           CA       CYL
002314: 16,2312           30022                           CA       CYL
002315: 16,2313           54173                           TS       SIXTH
002316: 16,2314           07446                           TC       UPDISPLA
002317: 16,2315           30173        TWOSH              CA       SIXTH
002318: 16,2316           54022                           TS       CYL
002319: 16,2317           30022                           CA       CYL
002320: 16,2320           30022                           CA       CYL
002321: 16,2321           30022                           CA       CYL
002322: 16,2322           30022                           CA       CYL
002323: 16,2323           30022                           CA       CYL
002324: 16,2324           30022                           CA       CYL
002325: 16,2325           30022                           CA       CYL
002326: 16,2326           30022                           CA       CYL
002327: 16,2327           30022                           CA       CYL
002328: 16,2330           30022                           CA       CYL
002329: 16,2331           54173                           TS       SIXTH
002330: 16,2332           10210                           CCS      PUNCH6
002331: 16,2333           02431                           TC       GTNXTBK
002332: 16,2334           07446                           TC       UPDISPLA
002333: 16,2335           10210        EBKPR              CCS      PUNCH6
002334: 16,2336           02366                           TC       GOTRPAC
002335: 16,2337           30203                           CA       LDEBLL
002336: 16,2340           10000                           CCS      A
002337: 16,2341           02343                           TC       EBKPRA
002338: 16,2342           02366                           TC       GOTRPAC
002339: 16,2343           54203        EBKPRA             TS       LDEBLL
002340: 16,2344           30177                           CA       HOLDNO
002341: 16,2345           60174                           AD       SEVENTH
002342: 16,2346           54174                           TS       SEVENTH
002343: 16,2347           10203                           CCS      LDEBLL
002344: 16,2350           02352                           TC       SHEBNK
002345: 16,2351           02361                           TC       TWOSHE


002347: 16,2352           30174        SHEBNK             CA       SEVENTH
002348: 16,2353           54022                           TS       CYL
002349: 16,2354           30022                           CA       CYL
002350: 16,2355           30022                           CA       CYL
002351: 16,2356           30022                           CA       CYL
002352: 16,2357           54174                           TS       SEVENTH
002353: 16,2360           07446                           TC       UPDISPLA
002354: 16,2361           30173        TWOSHE             CA       SIXTH
002355: 16,2362           60174                           AD       SEVENTH
002356: 16,2363           54073                           TS       R1
002357: 16,2364           54145                           TS       BBK
002358: 16,2365           07446                           TC       UPDISPLA
002359: 16,2366           40110        GOTRPAC            CS       TEMP1L
002360: 16,2367           64013                           AD       ENTRCDEL
002361: 16,2370           10000                           CCS      A
002362: 16,2371           04435                           TC       OPERROR
002363: 16,2372           04435                           TC       OPERROR
002364: 16,2373           04435                           TC       OPERROR
002365: 16,2374           10210                           CCS      PUNCH6
002366: 16,2375           02447                           TC       BLOBA
002367: 16,2376           32422                           CA       GOTOERR
002368: 16,2377           54204                           TS       TRXYB
002369: 16,2400           32423                           CA       GOTOSUC
002370: 16,2401           54205                           TS       TRYXB
002371: 16,2402           32424                           CA       XXX
002372: 16,2403           54206                           TS       TRXXB
002373: 16,2404           32425                           CA       YYY
002374: 16,2405           54207                           TS       TRYYB
002375: 16,2406           32430                           CA       ZZZ
002376: 16,2407           54017                           TS       BRUPT
002377: 16,2410           30174                           CA       SEVENTH
002378: 16,2411           74360                           MASK     MASKBA
002379: 16,2412           10000                           CCS      A
002380: 16,2413           02420                           TC       +5
002381: 16,2414           35475                           CA       OC10
002382: 16,2415           54141                           TS       EBCOUNT
002383: 16,2416           54142                           TS       FBCOUNT
002384: 16,2417           50017                           RESUME
002385: 16,2420           30007                           CA       ZEROS
002386: 16,2421           02415                           TC       -4
002387: 16,2422           30145        GOTOERR            CA       BBK
002388: 16,2423           54006        GOTOSUC            TS       BB
002389: 16,2424           07060        XXX                TC       PACTRNS
002390: 16,2425           05620        YYY                TC       SUCCESS
002391: 16,2426           00005        FIVE               OCT      00005
002392: 16,2427           05526        GOL                TC       V11
002393: 16,2430           00204        ZZZ                TC       TRXYB
002394: 16,2431           10172        GTNXTBK            CCS      ONETO5
002395: 16,2432           02437                           TC       +5
002396: 16,2433           30173                           CA       SIXTH
002397: 16,2434           54165                           TS       ACMFBK
002398: 16,2435           54074                           TS       R2
002399: 16,2436           07446                           TC       UPDISPLA
002400: 16,2437           30173                           CA       SIXTH
002401: 16,2440           54145                           TS       BBK
002402: 16,2441           54073                           TS       R1
002403: 16,2442           30007                           CA       ZEROS
002404: 16,2443           54172                           TS       ONETO5


002406: 16,2444           35472                           CA       C2A
002407: 16,2445           54202                           TS       LDFBLL


002410: 16,2446           07446                           TC       UPDISPLA
002411: 16,2447           32452        BLOBA              CA       FINKBKA
002412: 16,2450           54017                           TS       BRUPT
002413: 16,2451           50017                           RESUME
002414: 16,2452           07173        FINKBKA            TC       AMCHKLA


End of include-file SUPER_JOB.agc.  Parent file is MAIN.agc


