
Source Code


000002:                                                                                                  ## Copyright:   Public domain.
000003:                                                                                                  ## Filename:    MAIN.agc
000004:                                                                                                  ## Purpose:     Part of the source code for SUPER JOB, a program developed
000005:                                                                                                  ##              at Raytheon to exercise the Auxiliary Memory for the AGC.
000006:                                                                                                  ##              It appears to have been developed from scratch, and shares
000007:                                                                                                  ##              no heritage with any programs from MIT. It was also built
000008:                                                                                                  ##              with a Raytheon assembler rather than YUL or GAP.
000009:                                                                                                  ## Reference:   pp. D-4 - D-35
000010:                                                                                                  ## Assembler:   yaYUL
000011:                                                                                                  ## Contact:     Ron Burkey <info@sandroid.org>.
000012:                                                                                                  ## Website:     https://www.ibiblio.org/apollo/index.html
000013:                                                                                                  ## Page Scans:  http://www.ibiblio.org/apollo/Documents/R68-4125-Volume2.pdf
000014:                                                                                                  ## Mod history: 2017-01-27 MAS  Created and transcribed, then corrected
000015:                                                                                                  ##                              errors until assembly succeeded. Octals
000016:                                                                                                  ##                              have not yet been extracted, so errors
000017:                                                                                                  ##                              almost certainly remain.
000018:                                                                                                  ##              2017-01-28 MAS  Corrected errors found by counting lines
000019:                                                                                                  ##                              on each page (there should be 58).
000020:                                                                                                  ##              2017-01-29 MAS  Fixed a few errors identified during
000021:                                                                                                  ##                              octal transcription.
000022:                                                                                                  ##              2017-01-30 MAS  Fixed a transcription error in the octals
000023:                                                                                                  ##                              noticed while transcribing the inline
000024:                                                                                                  ##                              assembled octals. There are probably more
000025:                                                                                                  ##                              of those left, but for now the assembly
000026:                                                                                                  ##                              matches the binsource.
000027:                                                                                                  ##              2017-02-02 MAS  Did a quick visual proofing pass over the
000028:                                                                                                  ##                              comments and fixed a few errors.
000029:
000030:                                                                                                  ## Page D-4 (continued)
000031:    4000                                           SETLOC   FF024000
000032:    4000           00004        GOJAM              INHINT                                         #  4000
000033:    4001           06017                           TC       GOJAMPR                               #  4001
000034:    4002           00021        VBCDEL             OCT      00021                                 #  VERB CODE
000035:    4003           00001        ONE                OCT      00001
000036:    4004           50017        T6RUPT             RESUME                                         #  4004
000037:    4005           00000        ZERO               OCT      00000
000038:    4006           01010        D520               OCT      01010
000039:    4007           50000        VBB                OCT      50000                                 #  CODE TO BLANK DSKY VERB
000040:    4010           50017        T5RUPT             RESUME                                         #  4010
000041:    4011           00030        THIRTY             OCT      00030
000042:    4012           00037        FIRST5             OCT      00037
000043:    4013           00034        ENTRCDEL           OCT      00034                                 #  ENTER CODE


000045:    4014           14444        T3RUPT             TCF      T3RPTPR                               #  4014
000046:    4015           00002        TWO                OCT      00002
000047:    4016           00032        HGHTST+1           OCT      00032                                 #  HIGHEST TEST +1
000048:    4017           00360        BLANKNRL           OCT      00360
000049:    4020           14462        T4RUPT             TCF      T4RPTPR                               #  4020
000050:    4021           00017        OC17               OCT      00017
000051:    4022           00012        D10                OCT      00012
000052:    4023           01740        CENTERL            OCT      01740
000053:    4024           14107        K1RUPT             TCF      KYPROC1L                              #  4024
000054:    4025           00100        OPERCDL            OCT      00100                                 #  CODE FOR OPERATOR ERROR
000055:    4026           00040        FLASHL             OCT      00040
000056:    4027           77737        NOFLASHL           OCT      77737
000057:    4030           14115        K2RUPT             TCF      KYPROC2L                              #  4030
000058:    4031           07446        MDISPLA            TC       UPDISPLA                              #  XFER TO DISPLAY FOR MIKE
000059:    4032           05224        JMPTBL             TC       V01                                   #  TURN ON ACM AND ATM
000060:    4033           05321                           TC       V02                                   #  TURN ON ACM
000061:    4034           05362                           TC       V03                                   #  TURN OFF ACM AND ATM
000062:    4035           05411                           TC       V04                                   #  TURN OFF ATM
000063:    4036           05435                           TC       V05                                   #  TURN ATM FROM ON TO STANDBY
000064:    4037           05504                           TC       V0607                                 #  DSKY  DEMONSTRATION  NO ERRORS
000065:    4040           05504                           TC       V0607                                 #  DSKY  DEMONSTRATION  CORRECTABLE
000066:    4041           05510                           TC       V08                                   #  UNCORRECTABLE ERROR LOCATION 3000
000067:    4042           05523                           TC       V09                                   #  4 BANKS WITH SUM CHECK
000068:    4043           07346                           TC       V10                                   #  CORRECTABLE ERRORS
000069:    4044           05526                           TC       V11                                   #  SHORT TAPE BANK
000070:    4045           05531                           TC       V12                                   #  LONG TAPE BANK
000071:    4046           05534                           TC       V13                                   #  NONEXISTENT TAPE BANK
000072:    4047           07032                           TC       V14                                   #  SINGLE BANK TRIPLEX
000073:    4050           07040                           TC       V15                                   #  SINGLE BANK SIMPLEX
000074:    4051           07301                           TC       V16                                   #  4 BK XFER WITH 1 BK REWRITE
000075:    4052           05537                           TC       V17                                   #  AM PARITY GOJAM
000076:    4053           04471                           TC       V18                                   #  GENERATE TC TRAP GOJAM
000077:    4054           04475                           TC       V19                                   #  GENERATE RUPTLOC GOJAM
000078:    4055           04501                           TC       V20                                   #  GENERATE NWATCH  GOJAM
000079:    4056           07617                           TC       V21                                   #  MU 4  4000 WORD PROGRAM
000080:    4057           07623                           TC       V22                                   #  PAC TO MU4 TO MU5 TO ATM TO MU5 CHK
000081:    4060           04060                           TC       +0                                    #        V23
000082:    4061           04061                           TC       +0                                    #        V24
000083:    4062           04062                           TC       +0                                    #        V25
000084:    4063           52025        VB0F               OCT      52025                                 #  CODE FOR 0 LEAST SIG DIGIT
000085:    4064           52003                           OCT      52003                                 #  CODE FOR 1 LEAST SIG DIGIT
000086:    4065           52031                           OCT      52031                                 #  CODE FOR 2 LEAST SIG DIGIT
000087:    4066           52033                           OCT      52033                                 #  CODE FOR 3 LEAST SIG DIGIT
000088:    4067           52017                           OCT      52017                                 #  CODE FOR 4 LEAST SIG DIGIT
000089:    4070           52036                           OCT      52036                                 #  CODE FOR 5 LEAST SIG DIGIT
000090:    4071           52034                           OCT      52034                                 #  CODE FOR 6 LEAST SIG DIGIT
000091:    4072           52023                           OCT      52023                                 #  CODE FOR 7 LEAST SIG DIGIT
000092:    4073           52035                           OCT      52035                                 #  CODE FOR 8 LEAST SIG DIGIT
000093:    4074           52037                           OCT      52037                                 #  CODE FOR 9 LEAST SIG DIGIT
000094:    4075           53240        V0BF               OCT      53240                                 #  CODE FOR 0 MOST SIG DIGIT
000095:    4076           52140                           OCT      52140                                 #  CODE FOR 1 MOST SIG DIGIT
000096:    4077           53440                           OCT      53440                                 #  CODE FOR 2 MOST SIG DIGIT
000097:    4100           53540                           OCT      53540                                 #  CODE FOR 3 MOST SIG DIGIT
000098:    4101           52740                           OCT      52740                                 #  CODE FOR 4 MOST SIG DIGIT
000099:    4102           53700                           OCT      53700                                 #  CODE FOR 5 MOST SIG DIGIT
000100:    4103           53600                           OCT      53600                                 #  CODE FOR 6 MOST SIG DIGIT
000101:    4104           53140                           OCT      53140                                 #  CODE FOR 7 MOST SIG DIGIT
000102:    4105           53640                           OCT      53640                                 #  CODE FOR 8 MOST SIG DIGIT


000104:    4106           53740                           OCT      53740                                 #  CODE FOR 9 MOST SIG DIGIT
000105:    4107           52011        KYPROC1L           DXCH     ARUPT                                 #  START PROCESSING MAIN DSKY
000106:    4110           00006                           EXTEND
000107:    4111           22012                           QXCH     QRUPT
000108:    4112           00006                           EXTEND
000109:    4113           00015                           READ     CH15
000110:    4114           04122                           TC       PROCL
000111:    4115           52011        KYPROC2L           DXCH     ARUPT                                 #  START PROCESSING NAV DSKY
000112:    4116           00006                           EXTEND
000113:    4117           22012                           QXCH     QRUPT
000114:    4120           00006                           EXTEND
000115:    4121           00016                           READ     CH16
000116:    4122           74012        PROCL              MSK      FIRST5
000117:    4123           54110                           TS       TEMP1L                                #  STORE DSKY OUTPUT CODE
000118:    4124           40110                           CS       TEMP1L
000119:    4125           64321                           AD       ERRSTL                                #  ERROR RESET CODE
000120:    4126           10000                           CCS      A                                     #  WAS ERROR RESET HIT+
000121:    4127           04135                           TC       +6                                    #  NO
000122:    4130           06000                           TC       MERR
000123:    4131           04135                           TC       +4                                    #  NO
000124:    4132           30007                           CA       ZEROS                                 #  YES
000125:    4133           54166                           TS       SWITCH
000126:    4134           04171                           TC       PRERSTL
000127:    4135           40110                           CS       TEMP1L
000128:    4136           64002                           AD       VBCDEL                                #  VERB CODE
000129:    4137           10000                           CCS      A                                     #  WAS VERB HIT
000130:    4140           04204                           TC       NONVERBL                              #  NO
000131:    4141           06000                           TC       MERR                                  #  NO
000132:    4142           04204                           TC       NONVERBL                              #  NO
000133:    4143           30007                           CA       ZEROS                                 #  YES
000134:    4144           54166                           TS       SWITCH
000135:    4145           00006                           EXTEND
000136:    4146           00027                           READ     CH27                                  #  CLEAR CONIN
000137:    4147           36110                           CA       FEXTA                                 #  LOAD BITS 7 AND 6 IN FEXT
000138:    4150           00006                           EXTEND
000139:    4151           01007                           WRITE    CH7
000140:    4152           34003                           CA       ONE
000141:    4153           54114                           TS       VERBFFL
000142:    4154           34005                           CA       ZERO
000143:    4155           54115                           TS       VERBREGL                              #  CLEAR TEST NO
000144:    4156           54107                           TS       ZZTAG
000145:    4157           54106                           TS       DCNTL                                 #  CLEAR DIGIT COUNTER
000146:    4160           34007        VBBLNK             CA       VBB
000147:    4161           00006                           EXTEND
000148:    4162           01010                           WRITE    CH10                                  #  BLANKS VERB ON DSKY
000149:    4163           34006        CH10RST            CA       D520                                  #  START OF 20MS DELAY TO CLEAR CH 10
000150:    4164           10000                           CCS      A
000151:    4165           04164                           TC       -1                                    #  ACC IS NOT ZERO
000152:    4166           00006                           EXTEND                                         #  ACC IS ZERO
000153:    4167           01010                           WRITE    CH10                                  #  CLEAR CH 10
000154:    4170           04454                           TC       RETURNL
000155:    4171           34005        PRERSTL            CA       ZERO                                  #  ERROR RESET FROM DSKY
000156:    4172           54115                           TS       VERBREGL
000157:    4173           54114                           TS       VERBFFL
000158:    4174           54106                           TS       DCNTL
000159:    4175           54107                           TS       ZZTAG
000160:    4176           00006                           EXTEND                                         #  TURNS FLASH OFF
000161:    4177           00011                           READ     CH11


000163:    4200           74320                           MSK      OUTCOML
000164:    4201           00006                           EXTEND
000165:    4202           01011                           WRITE    CH11
000166:    4203           04160                           TC       VBBLNK
000167:    4204           44003        NONVERBL           CS       ONE
000168:    4205           60107                           AD       ZZTAG
000169:    4206           10000                           CCS      A
000170:    4207           04213                           TC       +4
000171:    4210           04213                           TC       +3
000172:    4211           04213                           TC       +2
000173:    4212           07404                           TC       ZZPROC
000174:    4213           10114                           CCS      VERBFFL                               #  HAD VERB PREVIOUSLY BEEN HIT
000175:    4214           04220                           TC       +4                                    #  YES
000176:    4215           04435                           TC       OPERROR                               #  NO
000177:    4216           04435                           TC       OPERROR                               #  NO
000178:    4217           04435                           TC       OPERROR                               #  NO
000179:    4220           40110                           CS       TEMP1L
000180:    4221           74011                           MSK      THIRTY
000181:    4222           10000                           CCS      A                                     #  WAS A DIGIT HIT+
000182:    4223           04366                           TC       PROCDIGT                              #  YES
000183:    4224           40110                           CS       TEMP1L                                #  NO
000184:    4225           64013                           AD       ENTRCDEL
000185:    4226           10000                           CCS      A                                     #  WAS ENTER HIT+
000186:    4227           04435                           TC       OPERROR                               #  NO
000187:    4230           04435                           TC       OPERROR                               #  NO
000188:    4231           04435                           TC       OPERROR                               #  NO
000189:    4232           40106                           CS       DCNTL                                 #  YES
000190:    4233           64015                           AD       TWO
000191:    4234           10000                           CCS      A                                     #  WERE TWO DIGITS PREVIOUSLY HIT+
000192:    4235           04435                           TC       OPERROR                               #  NO
000193:    4236           04435                           TC       OPERROR                               #  NO
000194:    4237           04435                           TC       OPERROR                               #  NO
000195:    4240           10115                           CCS      VERBREGL                              #  YES   WAS V00 HIT
000196:    4241           04244                           TC       +3                                    #        NO
000197:    4242           24107                           INCR     ZZTAG                                 #        YES
000198:    4243           07363                           TC       V00PROC
000199:    4244           44016                           CS       HGHTST+1
000200:    4245           60115                           AD       VERBREGL
000201:    4246           10000                           CCS      A                                     #  IS VERB CODE LEGAL+
000202:    4247           04435                           TC       OPERROR                               #  NO
000203:    4250           06000                           TC       MERR
000204:    4251           04253                           TC       +2                                    #  YES
000205:    4252           04435                           TC       OPERROR                               #  NO
000206:    4253           00006                           EXTEND
000207:    4254           00011                           READ     CH11
000208:    4255           74027                           MASK     NOFLASHL
000209:    4256           00006                           EXTEND
000210:    4257           01011                           WRITE    CH11                                  #  TURNS FLASH OFF
000211:    4260           34005                           CA       ZERO
000212:    4261           54106                           TS       DCNTL
000213:    4262           54114                           TS       VERBFFL
000214:    4263           34017                           CA       BLANKNRL
000215:    4264           54071                           TS       STATUS
000216:    4265           50115                           NDX      VERBREGL
000217:    4266           34031                           CA       JMPTBL     -1
000218:    4267           54017                           TS       BRUPT
000219:    4270           05146                           TC       AMSTAT
000220:    4271           50115                           INDEX    VERBREGL


000222:    4272           34275                           CA       STARTBLE   -6
000223:    4273           54120                           TS       IDSTARTL                              #  GET IDSTART
000224:    4274           50115                           INDEX    VERBREGL
000225:    4275           34316                           CA       STOPTBLE   -6
000226:    4276           54121                           TS       IDSTOPL                               #  GET IDSTOP
000227:    4277           50115                           INDEX    VERBREGL
000228:    4300           34337                           CA       CH25TBLE   -6
000229:    4301           54124                           TS       CH25LOAD                              #  GET CONOUT TO BE LOADED IN REGISTER
000230:    4302           50017                           RESUME
000231:    4303           00024        STARTBLE           OCT      00024                                 #  START TABLE   V06
000232:    4304           04025                           OCT      04025                                 #                V07
000233:    4305           10026                           OCT      10026                                 #                V08
000234:    4306           14124                           OCT      14124                                 #                V09
000235:    4307           20024                           OCT      20024                                 #                V10
000236:    4310           24025                           OCT      24025                                 #                V11
000237:    4311           30026                           OCT      30026                                 #                V12
000238:    4312           34127                           OCT      34127
000239:    4313           40001                           OCT      40001                                 #                V14
000240:    4314           50000                           OCT      50000                                 #                V15
000241:    4315           40001                           OCT      40001                                 #                V16
000242:    4316           37774        4TOGO              OCT      37774
000243:    4317           37716        50TOGO             OCT      37716
000244:    4320           00400        OUTCOML            OCT      00400
000245:    4321           00022        ERRSTL             OCT      00022                                 #  ERROR RESET CODE
000246:    4322           14020                           OCT      14020                                 #                V21
000247:    4323           51005                           OCT      51005                                 #                V22
000248:    4324           00000        STOPTBLE           OCT      00000                                 #  STOP TABLE    V06
000249:    4325           00000                           OCT      00000                                 #                V07
000250:    4326           00000                           OCT      00000                                 #                V08
000251:    4327           00030                           OCT      00030                                 #                V09
000252:    4330           00000                           OCT      00000                                 #                V10
000253:    4331           00000                           OCT      00000                                 #                V11
000254:    4332           00000                           OCT      00000                                 #                V12
000255:    4333           00000                           OCT      00000                                 #                V13
000256:    4334           00006                           OCT      00006                                 #                V14
000257:    4335           00006                           OCT      00006                                 #                V15
000258:    4336           00000                           OCT      00000                                 #                V16
000259:    4337           77777        ALL7SL             OCT      77777
000260:    4340           66666        ALL6SL             OCT      66666
000261:    4341           00037        MASKAA             OCT      37
000262:    4342           00012        NUMAA              OCT      12
000263:    4343           00024                           OCT      00024                                 #                V21
000264:    4344           00000                           OCT      00000                                 #                V22
000265:    4345           02000        CH25TBLE           OCT      02000                                 #  CH 25 LOAD TABLE   V06
000266:    4346           02000                           OCT      02000                                 #                V07
000267:    4347           02000                           OCT      02000                                 #                V08
000268:    4350           02000                           OCT      02000                                 #                V09
000269:    4351           02000                           OCT      02000                                 #                V10
000270:    4352           02000                           OCT      02000                                 #                V11
000271:    4353           02000                           OCT      02000                                 #                V12
000272:    4354           02000                           OCT      02000                                 #                V13
000273:    4355           03000                           OCT      03000                                 #                V14
000274:    4356           03400                           OCT      03400                                 #                V15
000275:    4357           03000                           OCT      03000                                 #                V16
000276:    4360           00007        MASKBA             OCT      7
000277:    4361           01740        MASKCA             OCT      1740
000278:    4362           01053        TIMAA              OCT      1053
000279:    4363           04254        TIMBA              OCT      4254


000281:    4364           02000                           OCT      02000                                 #                V21
000282:    4365           03000                           OCT      03000                                 #                V22
000283:    4366           44003        PROCDIGT           CS       ONE
000284:    4367           60106                           AD       DCNTL
000285:    4370           10000                           CCS      A                                     #  HOW MANY DIGITS HAVE BEEN HIT
000286:    4371           04435                           TC       OPERROR                               #  3
000287:    4372           06000                           TC       MERR
000288:    4373           04414                           TC       FRSTDIG                               #  1
000289:    4374           24106                           INCR     DCNTL                                 #  2
000290:    4375           30110                           CA       TEMP1L
000291:    4376           74021                           MSK      OC17
000292:    4377           54115                           TS       VERBREGL                              #  STORE 2ND DIGIT
000293:    4400           50000                           NDX      A
000294:    4401           34063                           CA       VB0F
000295:    4402           60111                           AD       TEMP2L
000296:    4403           00006                           EXTEND
000297:    4404           01010                           WRITE    CH10                                  #  SENDS BOTH DIGITS TO DSKY
000298:    4405           54113                           TS       TEMP4L
000299:    4406           30112                           CA       TEMP3L
000300:    4407           00006                           EXTEND
000301:    4410           74022                           MP       D10
000302:    4411           30001                           CA       L
000303:    4412           26115                           ADS      VERBREGL
000304:    4413           04163                           TC       CH10RST
000305:    4414           30110        FRSTDIG            CA       TEMP1L
000306:    4415           74021                           MSK      OC17
000307:    4416           54112                           TS       TEMP3L
000308:    4417           50000                           NDX      A
000309:    4420           34075                           CA       V0BF
000310:    4421           00006                           EXTEND
000311:    4422           01010                           WRITE    CH10
000312:    4423           74023                           MSK      CENTERL
000313:    4424           54111                           TS       TEMP2L
000314:    4425           24106                           INCR     DCNTL
000315:    4426           00006                           EXTEND                                         #  TURNS FLASH ON
000316:    4427           00011                           READ     CH11
000317:    4430           74027                           MSK      NOFLASHL
000318:    4431           64026                           AD       FLASHL
000319:    4432           00006                           EXTEND
000320:    4433           01011                           WRITE    CH11
000321:    4434           04163                           TC       CH10RST
000322:    4435           35462        OPERROR            CA       COMOUT
000323:    4436           00006                           EXTEND
000324:    4437           02011                           RAND     CH11
000325:    4440           64025                           AD       OPERCDL
000326:    4441           00006                           EXTEND
000327:    4442           01011                           WRITE    CH11
000328:    4443           04454                           TC       RETURNL
000329:    4444           52011        T3RPTPR            DXCH     ARUPT
000330:    4445           00006                           EXTEND
000331:    4446           22012                           QXCH     QRUPT
000332:    4447           34316                           CA       4TOGO
000333:    4450           54026                           TS       TIME3
000334:    4451           54031                           TS       TIME6
000335:    4452           34005                           CA       ZERO
000336:    4453           54030                           TS       TIME5
000337:    4454           52011        RETURNL            DXCH     ARUPT
000338:    4455           00006                           EXTEND


000340:    4456           22012                           QXCH     QRUPT
000341:    4457           50017                           RESUME
000342:    4460           05146        IDLE               TC       AMSTAT
000343:    4461           04460                           TC       -1
000344:    4462           52011        T4RPTPR            DXCH     ARUPT
000345:    4463           00006                           EXTEND
000346:    4464           22012                           QXCH     QRUPT
000347:    4465           34317                           CA       50TOGO
000348:    4466           54027                           TS       TIME4
000349:    4467           30067                           CA       NWATCH
000350:    4470           04454                           TC       RETURNL
000351:    4471           04506        V18                TC       DISPLAY                               #  GENERATES TC TRAP GOJAM
000352:    4472           34005                           CA       ZERO
000353:    4473           00000                           TC       A
000354:    4474           00000                           TC       A
000355:    4475           04506        V19                TC       DISPLAY                               #  GEENRATES RUPTLOC GOJAM
000356:    4476           00004                           INHINT
000357:    4477           30000                           CA       A
000358:    4500           04477                           TC       -1
000359:    4501           04506        V20                TC       DISPLAY                               #  GENERATES NWATCH GOJAM
000360:    4502           34005                           CA       ZERO
000361:    4503           54027                           TS       TIME4
000362:    4504           30000                           CA       A
000363:    4505           04504                           TC       -1
000364:                                                                                                  #  *               STATUS WORD FOR DISPLAY
000365:                                                                                                  #  *     9       8       7       6       5       4       3       2       1
000366:                                                                                                  #  *         BLK NOUN BLK R1    R2      R3 UPDATE NOUN  R1      R2      R3
000367:    4506           30002        DISPLAY            CA       Q
000368:    4507           54070                           TS       QSTORE
000369:    4510           30071                           CA       STATUS
000370:    4511           74712                           MASK     MASKA
000371:    4512           10000                           CCS      A
000372:    4513           04605                           TC       BLANKNA                               #  BLANK NOUN
000373:    4514           34712                           CA       MASKA
000374:    4515           54020                           TS       CYR
000375:    4516           30020                           CA       CYR
000376:    4517           54076                           TS       TMASKA
000377:    4520           30071                           CA       STATUS
000378:    4521           70076                           MASK     TMASKA
000379:    4522           10000                           CCS      A
000380:    4523           04613                           TC       BLANKR1A                              #  BLANK R1
000381:    4524           30076                           CA       TMASKA                                #  TMASKA CONTAINS LAST CONTENTS OF CYR
000382:    4525           54020                           TS       CYR                                   #  RESTORE CYR
000383:    4526           30020                           CA       CYR
000384:    4527           54076                           TS       TMASKA
000385:    4530           30071                           CA       STATUS
000386:    4531           70076                           MASK     TMASKA
000387:    4532           10000                           CCS      A
000388:    4533           04625                           TC       BLANKR2A                              #  BLANK R2
000389:    4534           30076                           CA       TMASKA                                #  TMASKA CONTAINS LAST CONTENTS OF CYR
000390:    4535           54020                           TS       CYR                                   #  RESTORE CYR
000391:    4536           30020                           CA       CYR
000392:    4537           54076                           TS       TMASKA
000393:    4540           30071                           CA       STATUS
000394:    4541           70076                           MASK     TMASKA
000395:    4542           10000                           CCS      A
000396:    4543           04653                           TC       BLANKR3A                              #  BLANK R3
000397:    4544           30076                           CA       TMASKA                                #  TMASKA CONTAINS LAST CONTENTS OF CYR


000399:    4545           54020                           TS       CYR                                   #  RESTORE CYR
000400:    4546           30020                           CA       CYR
000401:    4547           54076                           TS       TMASKA
000402:    4550           30071                           CA       STATUS
000403:    4551           70076                           MASK     TMASKA
000404:    4552           10000                           CCS      A
000405:    4553           04736                           TC       UPDATENA                              #  UPDATE NOUN
000406:    4554           30076                           CA       TMASKA                                #  TMASKA CONTAINS LAST CONTENTS OF CYR
000407:    4555           54020                           TS       CYR                                   #  RESTORE CYR
000408:    4556           30020                           CA       CYR
000409:    4557           54076                           TS       TMASKA
000410:    4560           30071                           CA       STATUS
000411:    4561           70076                           MASK     TMASKA
000412:    4562           10000                           CCS      A
000413:    4563           04746                           TC       UPDATE1A                              #  UPDATE R1
000414:    4564           30076                           CA       TMASKA                                #  TMASKA CONTAINS LAST CONTENTS OF CYR
000415:    4565           54020                           TS       CYR                                   #  RESTORE CYR
000416:    4566           30020                           CA       CYR
000417:    4567           54076                           TS       TMASKA
000418:    4570           30071                           CA       STATUS
000419:    4571           70076                           MASK     TMASKA
000420:    4572           10000                           CCS      A
000421:    4573           04774                           TC       UPDATE2A                              #  UPDATE R2
000422:    4574           30076                           CA       TMASKA                                #  TMASKA CONTAINS LAST CONTENTS OF CYR
000423:    4575           54020                           TS       CYR                                   #  RESTORE CYR
000424:    4576           30020                           CA       CYR
000425:    4577           54076                           TS       TMASKA
000426:    4600           30071                           CA       STATUS
000427:    4601           70076                           MASK     TMASKA
000428:    4602           10000                           CCS      A
000429:    4603           05052                           TC       UPDATE3A                              #  UPDATE R3
000430:    4604           00070                           TC       QSTORE
000431:    4605           30002        BLANKNA            CA       Q
000432:    4606           54077                           TS       RESUMEA
000433:    4607           30007                           CA       ZEROS
000434:    4610           64713                           AD       ADDRESSA
000435:    4611           04677                           TC       WRITEBA
000436:    4612           00077                           TC       RESUMEA
000437:    4613           30002        BLANKR1A           CA       Q
000438:    4614           54077                           TS       RESUMEA
000439:    4615           30007                           CA       ZEROS
000440:    4616           64714                           AD       ADDRESSA   +1
000441:    4617           04677                           TC       WRITEBA
000442:    4620           64715                           AD       ADDRESSA   +2
000443:    4621           04677                           TC       WRITEBA
000444:    4622           64716                           AD       ADDRESSA   +3
000445:    4623           04677                           TC       WRITEBA
000446:    4624           00077                           TC       RESUMEA
000447:    4625           30002        BLANKR2A           CA       Q
000448:    4626           54077                           TS       RESUMEA
000449:    4627           30007                           CA       ZEROS
000450:    4630           64717                           AD       ADDRESSA   +4
000451:    4631           04677                           TC       WRITEBA
000452:    4632           64720                           AD       ADDRESSA   +5
000453:    4633           04677                           TC       WRITEBA
000454:    4634           30075                           CA       R3
000455:    4635           54020                           TS       CYR
000456:    4636           34342                           CA       NUMAA


000458:    4637           54105        AAA                TS       NUMA                                  #  SET NUMA EQUAL TO NUMAA FOR CCS E
000459:    4640           30020                           CA       CYR                                   #  SHIFT ONCE PLUS NUMA TIMES
000460:    4641           10105                           CCS      NUMA
000461:    4642           04637                           TC       AAA
000462:    4643           30020                           CA       CYR                                   #  SHIFT ONE POSITION
000463:    4644           74360                           MASK     MASKBA
000464:    4645           50000                           INDEX    A
000465:    4646           34724                           CA       LOOKUPA
000466:    4647           74341                           MASK     MASKAA
000467:    4650           64721                           AD       ADDRESSA   +6
000468:    4651           04677                           TC       WRITEBA
000469:    4652           00077                           TC       RESUMEA
000470:    4653           30002        BLANKR3A           CA       Q
000471:    4654           54077                           TS       RESUMEA
000472:    4655           30071                           CA       STATUS
000473:    4656           75145                           MASK     MASKR2CA                              #  IS R2 BLANK
000474:    4657           10000                           CCS      A
000475:    4660           04675                           TC       BLKR2R3A                              #  R2 IS BLANK
000476:    4661           30074                           CA       R2                                    #  R2 IS NOT BLANK
000477:    4662           74360                           MASK     MASKBA
000478:    4663           50000                           INDEX    A
000479:    4664           34724                           CA       LOOKUPA
000480:    4665           74361                           MASK     MASKCA
000481:    4666           64721        CCA                AD       ADDRESSA   +6                         #  14000
000482:    4667           04677                           TC       WRITEBA
000483:    4670           64722                           AD       ADDRESSA   +7
000484:    4671           04677                           TC       WRITEBA
000485:    4672           64723                           AD       ADDRESSA   +8
000486:    4673           04677                           TC       WRITEBA
000487:    4674           00077                           TC       RESUMEA
000488:    4675           30007        BLKR2R3A           CA       ZEROS                                 #  BOTH BLANK
000489:    4676           04666                           TC       CCA
000490:    4677           00006        WRITEBA            EXTEND
000491:    4700           01010                           WRITE    CH10
000492:    4701           34362                           CA       TIMAA                                 #  20MS DELAY
000493:    4702           10000                           CCS      A
000494:    4703           14702                           TCF      -1
000495:    4704           00006                           EXTEND
000496:    4705           01010                           WRITE    CH10
000497:    4706           34363                           CA       TIMBA                                 #  100MS DELAY
000498:    4707           10000                           CCS      A
000499:    4710           14707                           TCF      -1
000500:    4711           00002                           TC       Q
000501:    4712           00200        MASKA              OCT      200
000502:    4713           44000        ADDRESSA           OCT      44000
000503:    4714           40000                           OCT      40000
000504:    4715           34000                           OCT      34000
000505:    4716           30000                           OCT      30000
000506:    4717           24000                           OCT      24000
000507:    4720           20000                           OCT      20000
000508:    4721           14000                           OCT      14000
000509:    4722           10000                           OCT      10000
000510:    4723           04000                           OCT      4000
000511:    4724           01265        LOOKUPA            OCT      1265                                  #  00
000512:    4725           00143                           OCT      143                                   #  11
000513:    4726           01471                           OCT      1471                                  #  22
000514:    4727           01573                           OCT      1573                                  #  33
000515:    4730           00757                           OCT      757                                   #  44


000517:    4731           01736                           OCT      1736                                  #  55
000518:    4732           01634                           OCT      1634                                  #  66
000519:    4733           01163                           OCT      1163                                  #  77
000520:    4734           01675                           OCT      1675                                  #  88
000521:    4735           01777                           OCT      1777                                  #  99
000522:    4736           30002        UPDATENA           CA       Q
000523:    4737           54077                           TS       RESUMEA
000524:    4740           30072                           CA       NOUN
000525:    4741           54101                           TS       ITA
000526:    4742           34713                           CA       ADDRESSA
000527:    4743           54102                           TS       ADDERA
000528:    4744           05117                           TC       ROUTINA
000529:    4745           00077                           TC       RESUMEA
000530:    4746           30002        UPDATE1A           CA       Q
000531:    4747           54077                           TS       RESUMEA
000532:    4750           30073                           CA       R1
000533:    4751           54101                           TS       ITA
000534:    4752           34716                           CA       ADDRESSA   +3
000535:    4753           54102                           TS       ADDERA
000536:    4754           05117                           TC       ROUTINA
000537:    4755           30020                           CA       CYR
000538:    4756           30020                           CA       CYR
000539:    4757           30020                           CA       CYR
000540:    4760           54101                           TS       ITA
000541:    4761           34715                           CA       ADDRESSA   +2
000542:    4762           54102                           TS       ADDERA
000543:    4763           05117                           TC       ROUTINA
000544:    4764           30020                           CA       CYR
000545:    4765           30020                           CA       CYR
000546:    4766           30020                           CA       CYR
000547:    4767           54101                           TS       ITA
000548:    4770           34714                           CA       ADDRESSA   +1
000549:    4771           54102                           TS       ADDERA
000550:    4772           05117                           TC       ROUTINA
000551:    4773           00077                           TC       RESUMEA
000552:    4774           30002        UPDATE2A           CA       Q
000553:    4775           54077                           TS       RESUMEA
000554:    4776           30007                           CA       ZEROS
000555:    4777           54103                           TS       TEMPA
000556:    5000           30071                           CA       STATUS
000557:    5001           75144                           MASK     MASKR3CA                              #  IS R3 BLANK+
000558:    5002           10000                           CCS      A
000559:    5003           05021                           TC       PART2A
000560:    5004           30075                           CA       R3
000561:    5005           54020                           TS       CYR
000562:    5006           34342                           CA       NUMAA
000563:    5007           54105        BBA                TS       NUMA                                  #  SET NUMA EQUAL TO NUMAA FOR CCS E
000564:    5010           30020                           CA       CYR                                   #  SHIFT ONCE PLUS NUMA TIMES
000565:    5011           10105                           CCS      NUMA
000566:    5012           05007                           TC       BBA
000567:    5013           30020                           CA       CYR                                   #  SHIFT ONE POSITION
000568:    5014           74360                           MASK     MASKBA
000569:    5015           50000                           INDEX    A
000570:    5016           34724                           CA       LOOKUPA
000571:    5017           74341                           MASK     MASKAA
000572:    5020           54103                           TS       TEMPA
000573:    5021           30074        PART2A             CA       R2
000574:    5022           74360                           MASK     MASKBA


000576:    5023           50000                           INDEX    A
000577:    5024           34724                           CA       LOOKUPA
000578:    5025           74361                           MASK     MASKCA
000579:    5026           60103                           AD       TEMPA
000580:    5027           64721                           AD       ADDRESSA   +6
000581:    5030           04677                           TC       WRITEBA
000582:    5031           30074                           CA       R2
000583:    5032           54020                           TS       CYR
000584:    5033           30020                           CA       CYR
000585:    5034           30020                           CA       CYR
000586:    5035           30020                           CA       CYR
000587:    5036           54101                           TS       ITA
000588:    5037           34720                           CA       ADDRESSA   +5
000589:    5040           54102                           TS       ADDERA
000590:    5041           05117                           TC       ROUTINA
000591:    5042           30020                           CA       CYR
000592:    5043           30020                           CA       CYR
000593:    5044           30020                           CA       CYR
000594:    5045           54101                           TS       ITA
000595:    5046           34717                           CA       ADDRESSA   +4
000596:    5047           54102                           TS       ADDERA
000597:    5050           05117                           TC       ROUTINA
000598:    5051           00077                           TC       RESUMEA
000599:    5052           30002        UPDATE3A           CA       Q
000600:    5053           54077                           TS       RESUMEA
000601:    5054           30075                           CA       R3
000602:    5055           54101                           TS       ITA
000603:    5056           34723                           CA       ADDRESSA   +8
000604:    5057           54102                           TS       ADDERA
000605:    5060           05117                           TC       ROUTINA
000606:    5061           30020                           CA       CYR
000607:    5062           30020                           CA       CYR
000608:    5063           30020                           CA       CYR
000609:    5064           54101                           TS       ITA
000610:    5065           34722                           CA       ADDRESSA   +7
000611:    5066           54102                           TS       ADDERA
000612:    5067           05117                           TC       ROUTINA
000613:    5070           30020                           CA       CYR
000614:    5071           30020                           CA       CYR
000615:    5072           30020                           CA       CYR
000616:    5073           74360                           MASK     MASKBA
000617:    5074           50000                           INDEX    A
000618:    5075           34724                           CA       LOOKUPA
000619:    5076           74341                           MASK     MASKAA
000620:    5077           54103                           TS       TEMPA
000621:    5100           30071                           CA       STATUS
000622:    5101           75145                           MASK     MASKR2CA                              #  IS R2 BLANK+
000623:    5102           10000                           CCS      A
000624:    5103           05115                           TC       PARTCONA
000625:    5104           30074                           CA       R2
000626:    5105           74360                           MASK     MASKBA
000627:    5106           50000                           INDEX    A
000628:    5107           34724                           CA       LOOKUPA
000629:    5110           74361                           MASK     MASKCA
000630:    5111           60103        3CONT              AD       TEMPA
000631:    5112           64721                           AD       ADDRESSA   +6
000632:    5113           04677                           TC       WRITEBA
000633:    5114           00077                           TC       RESUMEA


000635:    5115           30007        PARTCONA           CA       ZEROS
000636:    5116           05111                           TC       3CONT
000637:    5117           30002        ROUTINA            CA       Q                                     #  STANDARD LOOKUP ROUTINE
000638:    5120           54104                           TS       GOBAKA
000639:    5121           30101                           CA       ITA
000640:    5122           74360                           MASK     MASKBA
000641:    5123           50000                           INDEX    A
000642:    5124           34724                           CA       LOOKUPA
000643:    5125           74341                           MASK     MASKAA
000644:    5126           54103                           TS       TEMPA
000645:    5127           30101                           CA       ITA
000646:    5130           54020                           TS       CYR
000647:    5131           30020                           CA       CYR
000648:    5132           30020                           CA       CYR                                   #  SHIFT
000649:    5133           30020                           CA       CYR
000650:    5134           74360                           MASK     MASKBA
000651:    5135           50000                           INDEX    A
000652:    5136           34724                           CA       LOOKUPA
000653:    5137           74361                           MASK     MASKCA
000654:    5140           60103                           AD       TEMPA
000655:    5141           60102                           AD       ADDERA
000656:    5142           04677                           TC       WRITEBA
000657:    5143           00104                           TC       GOBAKA
000658:    5144           00020        MASKR3CA           OCT      20
000659:    5145           00040        MASKR2CA           OCT      40
000660:    5146           30002        AMSTAT             CA       Q
000661:    5147           54070                           TS       QSTORE
000662:    5150           30006                           CA       BB                                    #  FOR W PICKUP
000663:    5151           54000                           TS       A
000664:    5152           00006                           EXTEND
000665:    5153           00025                           READ     CONOUT
000666:    5154           75222                           MASK     MASK1A
000667:    5155           54103                           TS       TEMPA
000668:    5156           45223                           CS       SUBA
000669:    5157           60103                           AD       TEMPA
000670:    5160           10000                           CCS      A
000671:    5161           05165                           TC       BOTHONA
000672:    5162           06000                           TC       MERR
000673:    5163           05167                           TC       NOTONA
000674:    5164           05172                           TC       ACMONA
000675:    5165           35220        BOTHONA            CA       BOTHN1A                               #  11
000676:    5166           05170                           TC       WRITE1A
000677:    5167           35217        NOTONA             CA       NOTON1A                               #  00
000678:    5170           04677        WRITE1A            TC       WRITEBA
000679:    5171           00070                           TC       QSTORE
000680:    5172           35221        ACMONA             CA       ACMON1A                               #  10
000681:    5173           05170                           TC       WRITE1A
000682:    5174           05146        TERR               TC       AMSTAT
000683:    5175           00006                           EXTEND
000684:    5176           00025                           READ     CONOUT
000685:    5177           54074                           TS       R2
000686:    5200           34712                           CA       MASKA
000687:    5201           00006                           EXTEND
000688:    5202           01025                           WRITE    CH25
000689:    5203           00006                           EXTEND
000690:    5204           00027                           READ     CONIN
000691:    5205           54075                           TS       R3
000692:    5206           04506                           TC       DISPLAY


000694:    5207           35216                           CA       SUPIMPA
000695:    5210           00006                           EXTEND
000696:    5211           04011                           ROR      CH11
000697:    5212           00006                           EXTEND
000698:    5213           01011                           WRITE    CH11
000699:    5214           04460                           TC       IDLE
000700:    5215           34000        V00BK              OCT      34000
000701:    5216           00040        SUPIMPA            OCT      40
000702:    5217           55265        NOTON1A            OCT      55265                                 #  00  NOUN
000703:    5220           54143        BOTHN1A            OCT      54143                                 #  11  NOUN
000704:    5221           54165        ACMON1A            OCT      54165                                 #  10  NOUN
000705:    5222           24000        MASK1A             OCT      24000
000706:    5223           20000        SUBA               OCT      20000
000707:    5224           04506        V01                TC       DISPLAY                               #  TURN ON ACM AND ATM
000708:    5225           35462                           CA       COMOUT
000709:    5226           00006                           EXTEND
000710:    5227           01011                           WRITE    CH11                                  #  SET OUTCOM
000711:    5230           35463                           CA       STATUS1A
000712:    5231           54071                           TS       STATUS
000713:    5232           35471                           CA       C1A
000714:    5233           54116                           TS       ACMSTAT
000715:    5234           35464                           CA       TIME1A                                #  8MSEC
000716:    5235           10000                           CCS      A
000717:    5236           05235                           TC       -1
000718:    5237           00006                           EXTEND
000719:    5240           00025                           READ     CONOUT                                #  CH25
000720:    5241           75461                           MASK     BOTEOT6A                              #  ELIMINATE BITS 5 AND 6
000721:    5242           54103                           TS       TEMPA
000722:    5243           45465                           CS       OUTCONAA
000723:    5244           60103                           AD       TEMPA
000724:    5245           10000                           CCS      A
000725:    5246           05252                           TC       CONT1A
000726:    5247           05252                           TC       CONT1A
000727:    5250           05252                           TC       CONT1A
000728:    5251           05255                           TC       SUCCESAA
000729:    5252           35471        CONT1A             CA       C1A                                   #  ERROR N1 N0 20010
000730:    5253           54072                           TS       NOUN
000731:    5254           05174                           TC       TERR
000732:    5255           35475        SUCCESAA           CA       OC10
000733:    5256           54116                           TS       ACMSTAT
000734:    5257           00006                           EXTEND
000735:    5260           00027                           READ     CH27                                  #  CLEAR VFAIL
000736:    5261           00006                           EXTEND
000737:    5262           00026                           READ     CH26
000738:    5263           10000                           CCS      A
000739:    5264           05270                           TC       CONT2A
000740:    5265           05273                           TC       SUCCESBA
000741:    5266           05270                           TC       CONT2A
000742:    5267           05270                           TC       CONT2A
000743:    5270           35472        CONT2A             CA       C2A                                   #  ERROR N2 N0 00000
000744:    5271           54072                           TS       NOUN
000745:    5272           05174                           TC       TERR
000746:    5273           35466        SUCCESBA           CA       OUTCONBA
000747:    5274           00006                           EXTEND
000748:    5275           01025                           WRITE    CONOUT                                #  CH25
000749:    5276           35470                           CA       TIME2A                                #  500MSEC
000750:    5277           10000                           CCS      A
000751:    5300           05277                           TC       -1


000753:    5301           00006                           EXTEND
000754:    5302           00025                           READ     CONOUT                                #  CH25
000755:    5303           75461                           MASK     BOTEOT6A                              #  ELIMINATE BITS 5 AND 6
000756:    5304           54103                           TS       TEMPA
000757:    5305           45467                           CS       OUTCONCA
000758:    5306           60103                           AD       TEMPA
000759:    5307           10000                           CCS      A
000760:    5310           05314                           TC       CONT3A
000761:    5311           05314                           TC       CONT3A
000762:    5312           05314                           TC       CONT3A
000763:    5313           05317                           TC       SUCCESCA
000764:    5314           35473        CONT3A             CA       C3A                                   #  ERROR N3 N0 74000
000765:    5315           54072                           TS       NOUN
000766:    5316           05174                           TC       TERR
000767:    5317           05146        SUCCESCA           TC       AMSTAT
000768:    5320           05620                           TC       SUCCESS
000769:    5321           04506        V02                TC       DISPLAY                               #  TURN ON ACM
000770:    5322           35462                           CA       COMOUT
000771:    5323           00006                           EXTEND
000772:    5324           01011                           WRITE    CH11                                  #  SET OUTCOM
000773:    5325           35463                           CA       STATUS1A
000774:    5326           54071                           TS       STATUS
000775:    5327           35471                           CA       C1A
000776:    5330           54116                           TS       ACMSTAT
000777:    5331           35464                           CA       TIME1A                                #  8MSEC
000778:    5332           10000                           CCS      A
000779:    5333           05332                           TC       -1
000780:    5334           00006                           EXTEND
000781:    5335           00025                           READ     CONOUT                                #  CH25
000782:    5336           75461                           MASK     BOTEOT6A                              #  ELIMINATE BITS 5 AND 6
000783:    5337           54103                           TS       TEMPA
000784:    5340           45465                           CS       OUTCONAA
000785:    5341           60103                           AD       TEMPA
000786:    5342           10000                           CCS      A
000787:    5343           05252                           TC       CONT1A                                #  ERROR N1 N0 20010
000788:    5344           05252                           TC       CONT1A
000789:    5345           05252                           TC       CONT1A
000790:    5346           05347                           TC       SUCCESDA
000791:    5347           35475        SUCCESDA           CA       OC10
000792:    5350           54116                           TS       ACMSTAT
000793:    5351           00006                           EXTEND
000794:    5352           00027                           READ     CH27                                  #  CLEAR VFAIL
000795:    5353           00006                           EXTEND
000796:    5354           00026                           READ     CH26
000797:    5355           10000                           CCS      A
000798:    5356           05270                           TC       CONT2A
000799:    5357           05317                           TC       SUCCESCA
000800:    5360           05270                           TC       CONT2A
000801:    5361           05270                           TC       CONT2A                                #  ERROR N2 N0 0000
000802:    5362           04506        V03                TC       DISPLAY                               #  TURN OFF ACM AND ATM
000803:    5363           30007                           CA       ZEROS
000804:    5364           00006                           EXTEND
000805:    5365           01011                           WRITE    CH11                                  #  OUTCOM OFF
000806:    5366           35474                           CA       STATUS2A
000807:    5367           54071                           TS       STATUS
000808:    5370           35470                           CA       TIME2A                                #  1/2 OF 1 SEC.
000809:    5371           10000                           CCS      A
000810:    5372           05371                           TC       -1


000812:    5373           35470                           CA       TIME2A                                #  1/2 OF 1 SEC.
000813:    5374           10000                           CCS      A
000814:    5375           05374                           TC       -1
000815:    5376           00006                           EXTEND
000816:    5377           00025                           READ     CONOUT                                #  CH25
000817:    5400           75461                           MASK     BOTEOT6A                              #  ELIMINATE BITS 5 AND 6
000818:    5401           10000                           CCS      A
000819:    5402           05174                           TC       TERR
000820:    5403           05406                           TC       DDA
000821:    5404           05174                           TC       TERR
000822:    5405           05174                           TC       TERR
000823:    5406           30007        DDA                CA       ZEROS
000824:    5407           54116                           TS       ACMSTAT
000825:    5410           05317                           TC       SUCCESCA
000826:    5411           04506        V04                TC       DISPLAY                               #  TURN OFF ATM
000827:    5412           35477                           CA       OUTCONDA
000828:    5413           00006                           EXTEND
000829:    5414           01025                           WRITE    CONOUT                                #  CH25
000830:    5415           35474                           CA       STATUS2A
000831:    5416           54071                           TS       STATUS
000832:    5417           35476                           CA       TIME4A                                #  50MSEC
000833:    5420           10000                           CCS      A
000834:    5421           05420                           TC       -1
000835:    5422           00006                           EXTEND
000836:    5423           00025                           READ     CONOUT                                #  CH25
000837:    5424           75461                           MASK     BOTEOT6A                              #  ELIMINATE BITS 5 AND 6
000838:    5425           54103                           TS       TEMPA
000839:    5426           45500                           CS       OUTCONEA
000840:    5427           60103                           AD       TEMPA
000841:    5430           10000                           CCS      A
000842:    5431           05174                           TC       TERR
000843:    5432           05174                           TC       TERR
000844:    5433           05174                           TC       TERR
000845:    5434           05317                           TC       SUCCESCA
000846:    5435           04506        V05                TC       DISPLAY                               #  TURN ATM TO STANBY
000847:    5436           35501                           CA       OUTCONFA
000848:    5437           00006                           EXTEND
000849:    5440           01025                           WRITE    CONOUT                                #  CH25
000850:    5441           35474                           CA       STATUS2A
000851:    5442           54071                           TS       STATUS
000852:    5443           35503                           CA       TIME5A                                #  200USEC
000853:    5444           10000                           CCS      A
000854:    5445           05444                           TC       -1
000855:    5446           00006                           EXTEND
000856:    5447           00025                           READ     CONOUT                                #  CH25
000857:    5450           75461                           MASK     BOTEOT6A                              #  ELIMINATE BITS 5 AND 6
000858:    5451           54103                           TS       TEMPA
000859:    5452           45502                           CS       OUTCONGA
000860:    5453           60103                           AD       TEMPA
000861:    5454           10000                           CCS      A
000862:    5455           05174                           TC       TERR
000863:    5456           05174                           TC       TERR
000864:    5457           05174                           TC       TERR
000865:    5460           05317                           TC       SUCCESCA
000866:    5461           77717        BOTEOT6A           OCT      77717
000867:    5462           00400        COMOUT             OCT      400
000868:    5463           00113        STATUS1A           OCT      113
000869:    5464           00350        TIME1A             OCT      350                                   #  8MSEC


000871:    5465           20010        OUTCONAA           OCT      20010
000872:    5466           50000        OUTCONBA           OCT      50000
000873:    5467           74000        OUTCONCA           OCT      74000
000874:    5470           34000        TIME2A             OCT      34000                                 #  500MSEC
000875:    5471           00001        C1A                OCT      1
000876:    5472           00002        C2A                OCT      2
000877:    5473           00003        C3A                OCT      3
000878:    5474           00303        STATUS2A           OCT      303                                   #  R2,R3 UPDATE
000879:    5475           00010        OC10               OCT      10
000880:    5476           02640        TIME4A             OCT      2640                                  #  50MSEC
000881:    5477           24000        OUTCONDA           OCT      24000
000882:    5500           20010        OUTCONEA           OCT      20010
000883:    5501           04000        OUTCONFA           OCT      04000
000884:    5502           60000        OUTCONGA           OCT      60000
000885:    5503           00006        TIME5A             OCT      6
000886:    5504           04506        V0607              TC       DISPLAY
000887:    5505           06142                           TC       TPTRAN
000888:    5506           02001                           TC       2001
000889:    5507           05620                           TC       SUCCESS
000890:    5510           04506        V08                TC       DISPLAY
000891:    5511           06142                           TC       TPTRAN                                #  GO TO READ TAPE
000892:    5512           00030        MU530A             OCT      00030
000893:    5513           00031        MU531A             OCT      00031
000894:    5514           00032        MU532A             OCT      00032
000895:    5515           00033        MU533A             OCT      00033
000896:    5516           00010        OCT10A             OCT      00010
000897:    5517           00400        AMTOGOA            OCT      00400
000898:    5520           00207        STATUS4A           OCT      00207
000899:    5521           07777        LAST4A             OCT      07777
000900:    5522           74000        BANK536A           OCT      74000
000901:    5523           04506        V09                TC       DISPLAY
000902:    5524           06142                           TC       TPTRAN
000903:    5525           05620                           TC       SUCCESS
000904:    5526           04506        V11                TC       DISPLAY
000905:    5527           06142                           TC       TPTRAN
000906:    5530           05620                           TC       SUCCESS
000907:    5531           04506        V12                TC       DISPLAY
000908:    5532           06142                           TC       TPTRAN
000909:    5533           05620                           TC       SUCCESS
000910:    5534           04506        V13                TC       DISPLAY
000911:    5535           06142                           TC       TPTRAN
000912:    5536           05620                           TC       SUCCESS
000913:    5537           04506        V17                TC       DISPLAY
000914:    5540           35614                           CA       STATU17A
000915:    5541           54071                           TS       STATUS                                #  LOAD STATUS
000916:    5542           35502                           CA       OUTCONGA                              #  GET FIRST FIXED BANK REG LOAD
000917:    5543           54133        STARTBKA           TS       BANKNUMA
000918:    5544           54073                           TS       R1                                    #  LOAD R1 WITH BANK REG LOAD
000919:    5545           54004                           TS       FB
000920:    5546           35617                           CA       OCT77A
000921:    5547           54135                           TS       DISYES                                #  DISPLAY ADDRESS EVERY 100 LOCATIONS
000922:    5550           30007                           CA       ZEROS                                 #  START ADDRESS WITH ZEROS
000923:    5551           54134                           TS       LOCA
000924:    5552           50134        GOA                INDEX    LOCA
000925:    5553           32000                           CA       2000                                  #  READ ALL LOCATIONS
000926:    5554           24134                           INCR     LOCA
000927:    5555           30134                           CA       LOCA                                  #  ADDRESS 2000 IN L
000928:    5556           54001                           TS       L


000930:    5557           45613                           CS       STOPA
000931:    5560           60134                           AD       LOCA
000932:    5561           10000                           CCS      A                                     #  IS IT THE END OF THE BANK
000933:    5562           06000                           TC       MERR
000934:    5563           06000                           TC       MERR
000935:    5564           05566                           TC       GOBAA                                 #  NOT THE END OF THE BANK
000936:    5565           05600                           TC       ENDFBA                                #  THE END OF THE FIXED BANK
000937:    5566           10135        GOBAA              CCS      DISYES                                #  IS IT TIME TO UPDATE DSKY DISPLAY
000938:    5567           05576                           TC       GOBBA                                 #  NO
000939:    5570           35617                           CA       OCT77A                                #  YES
000940:    5571           54135                           TS       DISYES                                #  SET DISYES EQUAL TO 77
000941:    5572           30134                           CA       LOCA                                  #  GET LOCATION ADDRESS
000942:    5573           54074                           TS       R2                                    #  LOAD IT INTO R2
000943:    5574           04506                           TC       DISPLAY                               #  GO TO UPDATE DISPLAY
000944:    5575           05552                           TC       GOA                                   #  GO TO READ
000945:    5576           54135        GOBBA              TS       DISYES                                #  DIMINISH DISYES
000946:    5577           05552                           TC       GOA                                   #  GO TO READ
000947:    5600           45615        ENDFBA             CS       LASTBKA                               #  END OF FIXED BANK ROUTINE
000948:    5601           60133                           AD       BANKNUMA
000949:    5602           10000                           CCS      A                                     #  IS THE LAST BANK DONE
000950:    5603           06000                           TC       MERR
000951:    5604           06000                           TC       MERR
000952:    5605           05607                           TC       GETNXBA                               #  NO GET NEXT BANK REG LOAD
000953:    5606           05620                           TC       SUCCESS                               #  YES ALL DONE
000954:    5607           30133        GETNXBA            CA       BANKNUMA
000955:    5610           65616                           AD       INCRBKA                               #  INCREMENT TO NEXT BANK
000956:    5611           05543                           TC       STARTBKA                              #  START NEXT BANK
000957:    5612           70000        FIRSTBKA           OCT      70000
000958:    5613           02000        STOPA              OCT      02000
000959:    5614           00226        STATU17A           OCT      00226
000960:    5615           76000        LASTBKA            OCT      76000
000961:    5616           02000        INCRBKA            OCT      02000
000962:    5617           00077        OCT77A             OCT      00077
000963:    5620           34021        SUCCESS            CA       OC17                                  #  LOAD NOUN R1 R2 R3 WITH ALL 7S
000964:    5621           54071                           TS       STATUS                                #  INDICATES TEST SUCCESS
000965:    5622           34337                           CA       ALL7SL
000966:    5623           54073                           TS       R1
000967:    5624           54074                           TS       R2
000968:    5625           54075                           TS       R3
000969:    5626           54072                           TS       NOUN
000970:    5627           04506                           TC       DISPLAY
000971:    5630           04460                           TC       IDLE
000972:    5631           30153        FXDPR              CA       BANKNO
000973:    5632           54020                           TS       CYR
000974:    5633           30020                           CA       CYR
000975:    5634           30020                           CA       CYR
000976:    5635           30020                           CA       CYR
000977:    5636           30020                           CA       CYR
000978:    5637           30020                           CA       CYR
000979:    5640           54153                           TS       BANKNO
000980:    5641           54073                           TS       R1
000981:    5642           07446                           TC       UPDISPLA
000982:    5643           54157        SHIFT3L            TS       1STBNKNO
000983:    5644           30146                           CA       HOLDIT
000984:    5645           60160                           AD       HOLDBKDG
000985:    5646           54022                           TS       CYL
000986:    5647           30022                           CA       CYL
000987:    5650           30022                           CA       CYL


000989:    5651           30022                           CA       CYL
000990:    5652           54160                           TS       HOLDBKDG
000991:    5653           04454                           TC       RETURNL
000992:    5654           00010        BIT4               OCT      00010
000993:    5655           10000        BIT13              OCT      10000
000994:    5656           20000        BIT14              OCT      20000
000995:    5657           40000        BIT15              OCT      40000
000996:    5660           16000        BNK3A              OCT      16000
000997:    5661           11110        FOUR1S             OCT      11110
000998:    5662           22220        FOUR2S             OCT      22220
000999:    5663           33330        FOUR3S             OCT      33330
001000:    5664           44440        FOUR4S             OCT      44440
001001:    5665           55550        FOUR5S             OCT      55550
001002:    5666           66660        FOUR6S             OCT      66660
001003:    5667           00037        LOW5               OCT      00037
001004:    5670           77740        HIGH10             OCT      77740
001005:    5671           03777        LOW11              OCT      03777
001006:    5672           00124        WAIT2L             OCT      00124
001007:    5673           37777        PFS                OCT      37777
001008:    5674           00200        BIT8               OCT      00200
001009:    5675           07700        ABORTL             OCT      07700
001010:    5676           31145        WAIT1L             OCT      31145
001011:    5677           02200        GOATTRNS           OCT      02200
001012:    5700           07740        ABORTCER           OCT      07740
001013:    5701           01000        WDATAL             OCT      01000
001014:    5702           06000        BNK3               OCT      06000
001015:    5703           70000        BNK34              OCT      70000
001016:    5704           01776        HIGHLOC            OCT      01776
001017:    5705           00003        LASTBNK            OCT      00003
001018:    5706           00005        BNK5               OCT      00005
001019:    5707           02000        INCRFB             OCT      02000
001020:    5710           00076        NOUN76             OCT      00076
001021:    5711           00075        NOUN75             OCT      00075
001022:    5712           00074        NOUN74             OCT      00074
001023:    5713           00073        NOUN73             OCT      00073
001024:    5714           00072        NOUN72             OCT      00072
001025:    5715           00071        NOUN71             OCT      00071
001026:    5716           00070        NOUN70             OCT      00070
001027:    5717           00067        NOUN67             OCT      00067
001028:    5720           00065        NOUN65             OCT      00065
001029:    5721           00064        NOUN64             OCT      00064
001030:    5722           00063        NOUN63             OCT      00063
001031:    5723           00062        NOUN62             OCT      00062
001032:    5724           00061        NOUN61             OCT      00061
001033:    5725           11400        EBKEQUIV           OCT      11400
001034:    5726           13400                           OCT      13400
001035:    5727           15400                           OCT      15400
001036:    5730           17400                           OCT      17400
001037:    5731           00014        OC14               OCT      00014
001038:    5732           77767        VERB8              OCT      77767
001039:    5733           41001        READK14            OCT      41001
001040:    5734           51005        READK15            OCT      51005
001041:    5735           00400        EBFULL             OCT      00400
001042:    5736           02000        FBFULL             OCT      02000
001043:    5737           72000        ACMFBKA            OCT      72000
001044:    5740           00057        NOUN57             OCT      00057
001045:    5741           02000        READKC25           OCT      02000
001046:    5742           00056        NOUN56             OCT      00056


001048:    5743           10024        BBKAA              OCT      10024                                 #  PAC BANK 4
001049:    5744           22024        BBKBA              OCT      22024                                 #  PAC BANK 11
001050:    5745           01776        FULLESS2           OCT      01776
001051:    5746           12020        1STBKA             OCT      12020                                 #  FBANK  5 EBANK 20
001052:    5747           14024        2NDBKA             OCT      14024                                 #         6       24
001053:    5750           16030        3RDBKA             OCT      16030                                 #         7       30
001054:    5751           20034        4THBKA             OCT      20034                                 #        10       34
001055:    5752           24100        BBKCA              OCT      24100                                 #  F BANK 12 EBANK 100
001056:    5753           26104        BBKDA              OCT      26104                                 #  F BANK 13 EBANK 104
001057:    5754           30010        BBKEA              OCT      30010                                 #  F BANK 14 EBANK  10
001058:    5755           32014        BBKFA              OCT      32014                                 #  F BANK 15 EBANK  14
001059:    5756           60020        BBKGA              OCT      60020                                 #  FEXT 6 F BANK 30 EBANK 20
001060:    5757           62024        BBKHA              OCT      62024                                 #  FEXT 6 F BANK 31 EBANK 24
001061:    5760           64030        BBKIA              OCT      64030                                 #  FEXT 6 F BANK 32 EBANK 30
001062:    5761           66034        BBKJA              OCT      66034                                 #  FEXT 6 F BANK 33 EBANK 34
001063:    5762           51010        OCT51010           OCT      51010
001064:    5763           77757        MINUS20            OCT      77757
001065:    5764           77771        MINUS6             OCT      77771
001066:    5765           00066        NOUN66             OCT      00066
001067:    6000                                           SETLOC   FF036000
001068:    6000           34021        MERR               CA       OC17                                  #  LOAD NOUN R1 R2 WITH ALL 6S
001069:    6001           54071                           TS       STATUS                                #  INDICATES MACHINE ERROR
001070:    6002           34340                           CA       ALL6SL                                #  R3 HAS LOCATION WHERE ERROR OCCURED
001071:    6003           54073                           TS       R1
001072:    6004           54074                           TS       R2
001073:    6005           54072                           TS       NOUN
001074:    6006           30002                           CA       Q
001075:    6007           54075                           TS       R3
001076:    6010           04506                           TC       DISPLAY
001077:    6011           34026                           CA       FLASHL
001078:    6012           00006                           EXTEND
001079:    6013           04011                           ROR      CH11
001080:    6014           00006                           EXTEND
001081:    6015           01011                           WRITE    CH11
001082:    6016           04460                           TC       IDLE
001083:    6017           34316        GOJAMPR            CA       4TOGO
001084:    6020           54026                           TS       TIME3
001085:    6021           54031                           TS       TIME6
001086:    6022           34317                           CA       50TOGO
001087:    6023           54027                           TS       TIME4
001088:    6024           34005                           CA       ZERO
001089:    6025           54030                           TS       TIME5
001090:    6026           54117                           TS       R1ADD
001091:    6027           34320                           CA       OUTCOML
001092:    6030           00006                           EXTEND
001093:    6031           02011                           RAND     CH11
001094:    6032           10000                           CCS      A                                     #  WAS OUTCOM ON
001095:    6033           24117                           INCR     R1ADD                                 #  YES
001096:    6034           35655                           CA       BIT13                                 #  NO
001097:    6035           00006                           EXTEND
001098:    6036           02026                           RAND     CH26
001099:    6037           10000                           CCS      A                                     #  WAS GOJAM CAUSED BY E PARITY FAIL
001100:    6040           06111                           TC       EPARPRO                               #  YES
001101:    6041           35656                           CA       BIT14                                 #  NO
001102:    6042           00006                           EXTEND
001103:    6043           02026                           RAND     CH26
001104:    6044           10000                           CCS      A                                     #  WAS GOJAM CAUSED BY F PARITY FAIL
001105:    6045           06115                           TC       FPARPRO                               #  YES


001107:    6046           35657                           CA       BIT15                                 #  NO
001108:    6047           00006                           EXTEND
001109:    6050           02026                           RAND     CH26
001110:    6051           10000                           CCS      A                                     #  WAS GOJAM CAUSED BY ECHO CHECK
001111:    6052           06121                           TC       ECHCKPRO                              #  YES
001112:    6053           30116                           CA       ACMSTAT                               #  NO
001113:    6054           75654                           MSK      BIT4
001114:    6055           10000                           CCS      A                                     #  WAS ACM SUPPOSED TO BE ON
001115:    6056           06125                           TC       REQCHK                                #  YES
001116:    6057           30116                           CA       ACMSTAT                               #  NO
001117:    6060           74003                           MSK      ONE
001118:    6061           10000                           CCS      A                                     #  WAS ACM REQUESTED TO TURN ON
001119:    6062           06067                           TC       +5
001120:    6063           35664                           CA       FOUR4S
001121:    6064           60117                           AD       R1ADD
001122:    6065           54073                           TS       R1
001123:    6066           06102                           TC       GETOUT
001124:    6067           34005                           CA       ZERO
001125:    6070           54116                           TS       ACMSTAT
001126:    6071           35666                           CA       FOUR6S
001127:    6072           60117                           AD       R1ADD
001128:    6073           54073                           TS       R1
001129:    6074           06102                           TC       GETOUT
001130:    6075           34320        OUTCMSET           CA       OUTCOML
001131:    6076           00006                           EXTEND
001132:    6077           04011                           ROR      CH11
001133:    6100           00006                           EXTEND
001134:    6101           01011                           WRITE    CH11
001135:    6102           00003        GETOUT             RELINT
001136:    6103           30116                           CA       ACMSTAT
001137:    6104           54072                           TS       NOUN                                  #  01 REQ   10 ON   00 OFF
001138:    6105           34021                           CA       OC17
001139:    6106           54071                           TS       STATUS
001140:    6107           05174                           TC       TERR
001141:    6110           00140        FEXTA              OCT      00140
001142:    6111           35661        EPARPRO            CA       FOUR1S
001143:    6112           60117                           AD       R1ADD
001144:    6113           54073                           TS       R1
001145:    6114           06075                           TC       OUTCMSET
001146:    6115           35662        FPARPRO            CA       FOUR2S
001147:    6116           60117                           AD       R1ADD
001148:    6117           54073                           TS       R1
001149:    6120           06075                           TC       OUTCMSET
001150:    6121           35663        ECHCKPRO           CA       FOUR3S
001151:    6122           60117                           AD       R1ADD
001152:    6123           54073                           TS       R1
001153:    6124           06075                           TC       OUTCMSET
001154:    6125           35656        REQCHK             CA       BIT14
001155:    6126           00006                           EXTEND
001156:    6127           02025                           RAND     CH25
001157:    6130           10000                           CCS      A                                     #  IS CH 25 ACM-ON BIT ON
001158:    6131           06136                           TC       AGCFAULT                              #  YES
001159:    6132           35665                           CA       FOUR5S                                #  NO
001160:    6133           60117                           AD       R1ADD
001161:    6134           54073                           TS       R1
001162:    6135           06102                           TC       GETOUT
001163:    6136           35664        AGCFAULT           CA       FOUR4S
001164:    6137           60117                           AD       R1ADD


001166:    6140           54073                           TS       R1
001167:    6141           06075                           TC       OUTCMSET
001168:    6142           30002        TPTRAN             CA       Q
001169:    6143           54137                           TS       QSTORL
001170:    6144           35462                           CA       COMOUT
001171:    6145           54171                           TS       LSTCNT
001172:    6146           54170                           TS       OLDID
001173:    6147           30124                           CA       CH25LOAD
001174:    6150           75701                           MASK     WDATAL                                #  01000
001175:    6151           10000                           CCS      A                                     #  WILL THE XFER BE READ OR WRITE TAPE
001176:    6152           06675                           TC       SUMIT                                 #  WRITE
001177:    6153           30120        BEGINL             CA       IDSTARTL                              #  READ
001178:    6154           00006                           EXTEND
001179:    6155           01021                           WRITE    CH21                                  #  LOAD ID START
001180:    6156           30121                           CA       IDSTOPL                               #  LOAD LAST BANK OF AM DATA TRANSFER
001181:    6157           00006                           EXTEND
001182:    6160           01023                           WRITE    CH23                                  #  LOAD ID STOP
001183:    6161           00006                           EXTEND                                         #  CHECK ID STOP
001184:    6162           02020                           RAND     CH20
001185:    6163           40000                           CS       A
001186:    6164           00006                           EXTEND
001187:    6165           02020                           RAND     CH20
001188:    6166           75667                           MASK     LOW5
001189:    6167           10000                           CCS      A                                     #  IS ID STOP OK
001190:    6170           06604                           TC       IDSTPERR                              #  NO
001191:    6171           00006                           EXTEND                                         #  YES    CHECK ID START
001192:    6172           00020                           READ     CH20
001193:    6173           75670                           MSK      HIGH10
001194:    6174           54122                           TS       JUNK1L                                #  STORE CH20 IDSTART BITS 6 TO 15
001195:    6175           00006                           EXTEND
001196:    6176           00021                           READ     CH21
001197:    6177           54123                           TS       TPBNKL                                #  STORE CH21
001198:    6200           54021                           TS       SR
001199:    6201           30021                           CA       SR                                    #  SHIFT THREE PLACES RIGHT
001200:    6202           30021                           CA       SR
001201:    6203           30021                           CA       SR
001202:    6204           54023                           TS       EDOP                                  #  SHIFT SEVEN PLACES RIGHT
001203:    6205           30023                           CA       EDOP
001204:    6206           74341                           MASK     MASKAA                                #  MASK LOW 5
001205:    6207           26122                           ADS      JUNK1L                                #  COMPLETE ID START WORD
001206:    6210           40000                           CS       A
001207:    6211           60120                           AD       IDSTARTL
001208:    6212           10000                           CCS      A                                     #  IS ID START OK
001209:    6213           06612                           TC       IDSTAERR                              #  NO
001210:    6214           06612                           TC       IDSTAERR                              #  NO
001211:    6215           06612                           TC       IDSTAERR                              #  NO
001212:    6216           00006        CONOTCHK           EXTEND                                         #  YES
001213:    6217           00025                           READ     CH25                                  #  CONOUT
001214:    6220           75461                           MASK     BOTEOT6A
001215:    6221           65671                           AD       LOW11
001216:    6222           10000                           CCS      A                                     #  IS CONOUT OK
001217:    6223           06624                           TC       CONOUTER                              #  NO
001218:    6224           06624                           TC       CONOUTER                              #  NO
001219:    6225           06624                           TC       CONOUTER                              #  NO
001220:    6226           00006                           EXTEND                                         #  YES
001221:    6227           00027                           READ     CH27
001222:    6230           00006                           EXTEND
001223:    6231           00026                           READ     CH26
001224:                                                                                                  #  Page D-25
001225:    6232           10000                           CCS      A                                     #  IS CONIN OK
001226:    6233           06640                           TC       CONINERR                              #  NO
001227:    6234           06237                           TC       +3                                    #  YES
001228:    6235           06640                           TC       CONINERR                              #  NO
001229:    6236           06640                           TC       CONINERR                              #  NO
001230:    6237           30120                           CA       IDSTARTL
001231:    6240           75657                           MASK     BIT15
001232:    6241           10000                           CCS      A
001233:    6242           06000                           TC       MERR
001234:    6243           06246                           TC       PROG
001235:    6244           06270                           TC       OKNDATA
001236:    6245           06000                           TC       MERR
001237:    6246           30121        PROG               CA       IDSTOPL
001238:    6247           75667                           MASK     LOW5
001239:    6250           10000                           CCS      A
001240:    6251           06255                           TC       CHECK
001241:    6252           06270                           TC       OKNDATA
001242:    6253           06000                           TC       MERR
001243:    6254           06000                           TC       MERR
001244:    6255           65763        CHECK              AD       MINUS20
001245:    6256           10000                           CCS      A
001246:    6257           06263                           TC       CHECKAG
001247:    6260           06000                           TC       MERR
001248:    6261           06604                           TC       IDSTPERR
001249:    6262           06270                           TC       OKNDATA
001250:    6263           65764        CHECKAG            AD       MINUS6
001251:    6264           10000                           CCS      A
001252:    6265           06604                           TC       IDSTPERR
001253:    6266           06000                           TC       MERR
001254:    6267           06270                           TC       +1
001255:    6270           30124        OKNDATA            CA       CH25LOAD
001256:    6271           00006                           EXTEND                                         #  LOAD CONOUT
001257:    6272           01025                           WRITE    CH25
001258:    6273           00006                           EXTEND
001259:    6274           02025                           RAND     CH25
001260:    6275           40000                           CS       A
001261:    6276           60124                           AD       CH25LOAD
001262:    6277           10000                           CCS      A                                     #  DID CH25 LOAD CORRECTLY
001263:    6300           06643                           TC       CH25ERR                               #  NO
001264:    6301           06643                           TC       CH25ERR                               #  NO
001265:    6302           06643                           TC       CH25ERR                               #  NO
001266:    6303           34005                           CA       ZERO                                  #  YES
001267:    6304           54125                           TS       CORERCNT                              #  CLEAR CORRECTABLE ERROR COUNT
001268:    6305           35672                           CA       WAIT2L
001269:    6306           54126                           TS       CNTDWN2L
001270:    6307           35673        LOOKAGAN           CA       PFS
001271:    6310           54127                           TS       CNTDWN1L
001272:    6311           00006        FNDTRNSP           EXTEND                                         #  LOOK FOR TRNSIP
001273:    6312           00025                           READ     CH25
001274:    6313           75674                           MSK      BIT8
001275:    6314           10000                           CCS      A                                     #  HAS TRNSIP APPEARED
001276:    6315           06337                           TC       DATATRAN                              #  YES
001277:    6316           30127                           CA       CNTDWN1L                              #  NO
001278:    6317           10000                           CCS      A                                     #  IS FIRST COUNTDOWN OVER
001279:    6320           06322                           TC       +2                                    #  NO
001280:    6321           06324                           TC       +3                                    #  YES
001281:    6322           54127                           TS       CNTDWN1L
001282:    6323           07751                           TC       LISTID


001284:    6324           30126                           CA       CNTDWN2L
001285:    6325           10000                           CCS      A                                     #  HAVE 7 MINUTES PASSED
001286:    6326           06330                           TC       +2                                    #  NO
001287:    6327           06646                           TC       7MINERR                               #  YES
001288:    6330           54126                           TS       CNTDWN2L
001289:    6331           00006                           EXTEND
001290:    6332           00026                           READ     CH26
001291:    6333           75675                           MSK      ABORTL
001292:    6334           10000                           CCS      A                                     #  HAS AN ABORT BIT APPEARED
001293:    6335           06570                           TC       ABORTER1                              #  YES
001294:    6336           06307                           TC       LOOKAGAN                              #  NO
001295:    6337           34003        DATATRAN           CA       ONE                                   #  AM DATA TRANSFER IS IN PROGRESS
001296:    6340           54126                           TS       CNTDWN2L
001297:    6341           35676        STARTCNT           CA       WAIT1L
001298:    6342           54127                           TS       CNTDWN1L
001299:    6343           00006        DEVIDES            EXTEND
001300:    6344           10122                           DV       JUNK1L
001301:    6345           00006                           EXTEND
001302:    6346           10122                           DV       JUNK1L
001303:    6347           00006                           EXTEND
001304:    6350           10122                           DV       JUNK1L
001305:    6351           00006                           EXTEND
001306:    6352           70122                           MP       JUNK1L
001307:    6353           35677                           CA       GOATTRNS
001308:    6354           00006                           EXTEND
001309:    6355           02025                           RAND     CH25
001310:    6356           00006                           EXTEND
001311:    6357           16414                           BZF      BOTHGONE                              #  HAVE BOTH GOATM AND TRNSIP GONE
001312:    6360           40000                           CS       A                                     #  NO
001313:    6361           65677                           AD       GOATTRNS
001314:    6362           00006                           EXTEND
001315:    6363           16365                           BZF      +2                                    #  HAVE EITHER GOATM OR TRNSIP GONE
001316:    6364           06573                           TC       ONEUPERR                              #  YES
001317:    6365           30127                           CA       CNTDWN1L
001318:    6366           10000                           CCS      A                                     #  IS FIRST COUNTDOWN OVER
001319:    6367           06376                           TC       CONTINUE                              #  NO
001320:    6370           30126                           CA       CNTDWN2L                              #  YES
001321:    6371           10000                           CCS      A                                     #  HAVE 16 SECONDS PASSED
001322:    6372           06374                           TC       +2                                    #  NO
001323:    6373           06576                           TC       TRANSERR                              #  YES
001324:    6374           54126                           TS       CNTDWN2L
001325:    6375           06341                           TC       STARTCNT
001326:    6376           54127        CONTINUE           TS       CNTDWN1L
001327:    6377           35700                           CA       ABORTCER
001328:    6400           00006                           EXTEND
001329:    6401           02026                           RAND     CH26
001330:    6402           00006                           EXTEND
001331:    6403           16343                           BZF      DEVIDES                               #  HAS AN ABORT OR CORRECTABLE ERROR
001332:    6404           75675                           MSK      ABORTL                                #  OCCURED   YES
001333:    6405           00006                           EXTEND
001334:    6406           16410                           BZF      UPERRCNT                              #  HAS AN ABORT OCCURED
001335:    6407           06601                           TC       ABORTER2                              #  YES
001336:    6410           24125        UPERRCNT           INCR     CORERCNT
001337:    6411           00006                           EXTEND                                         #  CLEAR CONIN
001338:    6412           00027                           READ     CH27
001339:    6413           06343                           TC       DEVIDES
001340:    6414           35700        BOTHGONE           CA       ABORTCER
001341:    6415           00006                           EXTEND


001343:    6416           02026                           RAND     CH26
001344:    6417           00006                           EXTEND
001345:    6420           16430                           BZF      RDORWRTL                              #  HAS AN ABORT OR CORRECTABLE ERROR
001346:    6421           75675                           MSK      ABORTL                                #  OCCURED    YES
001347:    6422           00006                           EXTEND
001348:    6423           16425                           BZF      INCRERRC                              #  HAS AN ABORT OCCURED
001349:    6424           06654                           TC       ABORTER3                              #  YES
001350:    6425           24125        INCRERRC           INCR     CORERCNT
001351:    6426           00006                           EXTEND                                         #  CLEAR CHANNEL 27
001352:    6427           00027                           READ     CH27
001353:    6430           30124        RDORWRTL           CA       CH25LOAD
001354:    6431           75701                           MASK     WDATAL
001355:    6432           10000                           CCS      A                                     #  WAS THE DATA XFER READ OR WRITE TAPE
001356:    6433           07601                           TC       7SCHKA                                #  WRITE
001357:    6434           30123                           CA       TPBNKL                                #  READ CH21
001358:    6435           75660                           MASK     BNK3A                                 #  BITS 11, 12, AND 13
001359:    6436           65502                           AD       OUTCONGA                              #  BITS 14 AND 15
001360:    6437           54064                           TS       TEMPAA                                #  STORE
001361:    6440           00006                           EXTEND
001362:    6441           01001                           WRITE    CH1                                   #  STORE IN L
001363:    6442           30122                           CA       JUNK1L                                #  CH20
001364:    6443           75657                           MASK     BIT15                                 #  BIT 15 DATA
001365:    6444           10000                           CCS      A                                     #  DATA OR PROG
001366:    6445           06000                           TC       MERR                                  #  ERROR
001367:    6446           06451                           TC       +3                                    #  PROG
001368:    6447           06454                           TC       +5                                    #  DATA
001369:    6450           06000                           TC       MERR                                  #  ERROR
001370:    6451           30064                           CA       TEMPAA                                #  PROG O.K.
001371:    6452           54004                           TS       FB                                    #  LOAD FB
001372:    6453           06460                           TC       +5                                    #  CONTINUE
001373:    6454           35655                           CA       BIT13                                 #      ADD
001374:    6455           00006                           EXTEND                                         #      BIT
001375:    6456           04001                           ROR      CH1                                   #       13
001376:    6457           54004                           TS       FB                                    #  LOAD FB
001377:    6460           34005        STARTADD           CA       ZERO
001378:    6461           54130                           TS       SUML
001379:    6462           54131                           TS       OVFLOL
001380:    6463           35704                           CA       HIGHLOC
001381:    6464           54127                           TS       CNTDWN1L
001382:    6465           10127        LOCCNTDN           CCS      CNTDWN1L                              #  HAS BANK BEEN SUMMED
001383:    6466           06551                           TC       CONTSUM                               #  NO
001384:    6467           43776                           CS       FXDSUM                                #  YES
001385:    6470           60130                           AD       SUML
001386:    6471           10000                           CCS      A                                     #  WAS SUM OK
001387:    6472           06657                           TC       SUMERR                                #  NO
001388:    6473           06657                           TC       SUMERR                                #  NO
001389:    6474           06657                           TC       SUMERR                                #  NO
001390:    6475           43777                           CS       FXDOVFLO                              #  YES
001391:    6476           60131                           AD       OVFLOL
001392:    6477           10000                           CCS      A                                     #  WAS OVERFLOW OK
001393:    6500           06666                           TC       OVFLOERR                              #  NO
001394:    6501           06666                           TC       OVFLOERR                              #  NO
001395:    6502           06666                           TC       OVFLOERR                              #  NO
001396:    6503           00006                           EXTEND                                         #  YES
001397:    6504           00020                           READ     CH20
001398:    6505           75667                           MASK     LOW5
001399:    6506           10000                           CCS      A                                     #  WAS ID STOP ZERO
001400:    6507           06511                           TC       +2                                    #  NO


001402:    6510           00137                           TC       QSTORL                                #  YES
001403:    6511           54103                           TS       TEMPA                                 #  IDSTOP-1
001404:    6512           30123                           CA       TPBNKL
001405:    6513           75615                           MASK     LASTBKA
001406:    6514           54022                           TS       CYL
001407:    6515           30022                           CA       CYL
001408:    6516           30022                           CA       CYL
001409:    6517           30022                           CA       CYL
001410:    6520           30022                           CA       CYL
001411:    6521           30022                           CA       CYL
001412:    6522           40000                           CS       A
001413:    6523           60103                           AD       TEMPA
001414:    6524           10000                           CCS      A                                     #  WAS LAST BANK OF TRANSFER SUMMED
001415:    6525           06531                           TC       +4                                    #  NO
001416:    6526           06531                           TC       +3                                    #  NO
001417:    6527           06531                           TC       +2                                    #  NO
001418:    6530           00137                           TC       QSTORL                                #  YES
001419:    6531           30123                           CA       TPBNKL
001420:    6532           65707                           AD       INCRFB
001421:    6533           54123                           TS       TPBNKL
001422:    6534           45615                           CS       LASTBKA
001423:    6535           60004                           AD       FB
001424:    6536           10000                           CCS      A
001425:    6537           06545                           TC       INKFB
001426:    6540           06545                           TC       INKFB
001427:    6541           06545                           TC       INKFB
001428:    6542           35703                           CA       BNK34
001429:    6543           54004                           TS       FB
001430:    6544           06460                           TC       STARTADD
001431:    6545           30004        INKFB              CA       FB                                    #  INCREMENT FIXED BANK REGISTER
001432:    6546           65707                           AD       INCRFB
001433:    6547           54004                           TS       FB
001434:    6550           06460                           TC       STARTADD
001435:    6551           54127        CONTSUM            TS       CNTDWN1L
001436:    6552           54001                           TS       L                                     #  ADDRESS 2000 IN L
001437:    6553           50000                           NDX      A
001438:    6554           32000                           CA       2000
001439:    6555           60130                           AD       SUML
001440:    6556           54130                           TS       SUML
001441:    6557           06465                           TC       LOCCNTDN
001442:    6560           24131                           INCR     OVFLOL
001443:    6561           06465                           TC       LOCCNTDN
001444:    6562           00006        R1STATLD           EXTEND                                         #  LOAD R1 WITH ID READ AND STATUS 17
001445:    6563           00023                           READ     CH23
001446:    6564           54073                           TS       R1
001447:    6565           34021        IDSERRA            CA       OC17
001448:    6566           54071                           TS       STATUS
001449:    6567           05174                           TC       TERR
001450:    6570           35716        ABORTER1           CA       NOUN70                                #  LOAD NOUN WITH 70
001451:    6571           54072                           TS       NOUN                                  #  INDICATES ABORT WAS DETECTED BEFORE
001452:    6572           07020                           TC       V8CHK
001453:    6573           35717        ONEUPERR           CA       NOUN67                                #  LOAD NOUN WITH 67
001454:    6574           54072                           TS       NOUN                                  #  INDICATES EITHER GOATM OR TRNSIP
001455:    6575           07020                           TC       V8CHK
001456:    6576           35720        TRANSERR           CA       NOUN65                                #  LOAD NOUN WITH 65
001457:    6577           54072                           TS       NOUN                                  #  INDICATES DATA TRANSFER HAS NOT
001458:    6600           06562                           TC       R1STATLD                              #  ENDED AFTER 16 SECONDS
001459:    6601           35721        ABORTER2           CA       NOUN64                                #  LAOD NOUN WITH 64


001461:    6602           54072                           TS       NOUN                                  #  INDICATES AN ABORT WAS DETECTED
001462:    6603           07020                           TC       V8CHK
001463:    6604           35710        IDSTPERR           CA       NOUN76                                #  LOAD NOUN WITH 76
001464:    6605           54072                           TS       NOUN                                  #  INDICATES ID STOP IN CH 20 DID
001465:    6606           00006                           EXTEND                                         #  NOT VERIFIED
001466:    6607           00020                           READ     CH20
001467:    6610           54073                           TS       R1
001468:    6611           06565                           TC       IDSERRA
001469:    6612           35711        IDSTAERR           CA       NOUN75                                #  LOAD NOUN WITH 75
001470:    6613           54072                           TS       NOUN                                  #  INDICATES ID START IN CHS 20 AND 21
001471:    6614           30122                           CA       JUNK1L                                #  DID NOT VERIFY
001472:    6615           54073                           TS       R1
001473:    6616           06565                           TC       IDSERRA
001474:    6617           35765        IDSTAERA           CA       NOUN66
001475:    6620           54072                           TS       NOUN
001476:    6621           32000                           CA       2000
001477:    6622           54073                           TS       R1
001478:    6623           06565                           TC       IDSERRA
001479:    6624           35674        CONOUTER           CA       BIT8
001480:    6625           00006                           EXTEND
001481:    6626           02025                           RAND     CH25
001482:    6627           10000                           CCS      A
001483:    6630           06634                           TC       RESTRNSP
001484:    6631           35712                           CA       NOUN74                                #  LOAD NOUN WITH 74
001485:    6632           54072                           TS       NOUN                                  #  INDICATES CONOUT CH 25 DID NOT
001486:    6633           06562                           TC       R1STATLD                              #  VERIFY
001487:    6634           35674        RESTRNSP           CA       BIT8
001488:    6635           00006                           EXTEND
001489:    6636           01025                           WRITE    CH25
001490:    6637           06216                           TC       CONOTCHK
001491:    6640           35713        CONINERR           CA       NOUN73                                #  LOAD NOUN WITH 73
001492:    6641           54072                           TS       NOUN                                  #  INDICATES CONIN CH 26 IS NOT ZERO
001493:    6642           06562                           TC       R1STATLD
001494:    6643           35714        CH25ERR            CA       NOUN72                                #  LOAD NOUN WITH 72
001495:    6644           54072                           TS       NOUN                                  #  INDICATES CONOUT CH 25 DID NOT
001496:    6645           06562                           TC       R1STATLD                              #  LOAD CORRECTLY
001497:    6646           35715        7MINERR            CA       NOUN71                                #  LOAD NOUN WITH 71
001498:    6647           54072                           TS       NOUN                                  #  INDICATES TRNSIP HAS NOT APPEARED
001499:    6650           30007                           CA       ZEROS
001500:    6651           00006                           EXTEND
001501:    6652           01025                           WRITE    CH25
001502:    6653           06562                           TC       R1STATLD                              #  WITHIN 7 MIN AFTER GOATM WAS LOADED
001503:    6654           35722        ABORTER3           CA       NOUN63                                #  LOAD NOUN WITH 63
001504:    6655           54072                           TS       NOUN                                  #  INDICATES ABORT WAS DETECTED AFTER
001505:    6656           07020                           TC       V8CHK
001506:    6657           35723        SUMERR             CA       NOUN62                                #  LOAD NOUN WITH 62
001507:    6660           54072                           TS       NOUN                                  #  INDICATES SUM CHECK NOT CORRECT
001508:    6661           30130                           CA       SUML                                  #  LOAD R1 WITH SUM
001509:    6662           54073                           TS       R1
001510:    6663           34021                           CA       OC17
001511:    6664           54071                           TS       STATUS
001512:    6665           05174                           TC       TERR
001513:    6666           35724        OVFLOERR           CA       NOUN61                                #  LOAD NOUN WITH 61
001514:    6667           54072                           TS       NOUN                                  #  INDICATES OVERFLOW COUNT NOT CORRECT
001515:    6670           30131                           CA       OVFLOL                                #  LOAD R1 WITH OVERFLOW COUNT
001516:    6671           54073                           TS       R1
001517:    6672           34021                           CA       OC17
001518:    6673           54071                           TS       STATUS


001520:    6674           05174                           TC       TERR
001521:    6675           30121        SUMIT              CA       IDSTOPL                               #  GET BANK SUM + LOAD LAST 2 LOC IN BK
001522:    6676           75731                           MSK      OC14                                  #  00014
001523:    6677           54020                           TS       CYR
001524:    6700           30020                           CA       CYR
001525:    6701           30020                           CA       CYR
001526:    6702           54140                           TS       HOLD1STB                              #  STORE FIRST BANK OF TRANSFER
001527:    6703           54022                           TS       CYL
001528:    6704           30022                           CA       CYL
001529:    6705           30022                           CA       CYL
001530:    6706           30022                           CA       CYL
001531:    6707           30022                           CA       CYL
001532:    6710           30022                           CA       CYL
001533:    6711           30022                           CA       CYL
001534:    6712           30022                           CA       CYL
001535:    6713           30022                           CA       CYL
001536:    6714           30022                           CA       CYL
001537:    6715           30022                           CA       CYL
001538:    6716           65703                           AD       BNK34
001539:    6717           54004                           TS       FB
001540:    6720           34005        STARTSUM           CA       ZERO
001541:    6721           54130                           TS       SUML
001542:    6722           54131                           TS       OVFLOL
001543:    6723           35704                           CA       HIGHLOC
001544:    6724           54127                           TS       CNTDWN1L
001545:    6725           10127        CHKCNTDN           CCS      CNTDWN1L                              #  HAS BANK BEEN SUMMED
001546:    6726           07007                           TC       GETSUM                                #  NO
001547:    6727           30140                           CA       HOLD1STB                              #  YES
001548:    6730           50000                           NDX      A
001549:    6731           35725                           CA       EBKEQUIV
001550:    6732           54003                           TS       EB
001551:    6733           42000                           CS       2000
001552:    6734           60120                           AD       IDSTARTL
001553:    6735           10000                           CCS      A
001554:    6736           06617                           TC       IDSTAERA
001555:    6737           06617                           TC       IDSTAERA
001556:    6740           06742                           TC       SOMEA
001557:    6741           06617                           TC       IDSTAERA
001558:    6742           30124        SOMEA              CA       CH25LOAD
001559:    6743           75462                           MASK     COMOUT
001560:    6744           54020                           TS       CYR
001561:    6745           30020                           CA       CYR
001562:    6746           30020                           CA       CYR
001563:    6747           30020                           CA       CYR
001564:    6750           30020                           CA       CYR
001565:    6751           30020                           CA       CYR
001566:    6752           30020                           CA       CYR
001567:    6753           54144                           TS       HOLD
001568:    6754           32000                           CA       2000
001569:    6755           77362                           MASK     BIT3
001570:    6756           60144                           AD       HOLD
001571:    6757           77362                           MASK     BIT3
001572:    6760           10000                           CCS      A
001573:    6761           06617                           TC       IDSTAERA
001574:    6762           30130                           CA       SUML
001575:    6763           55776                           TS       1776
001576:    6764           30131                           CA       OVFLOL
001577:    6765           55777                           TS       1777


001579:    6766           30140                           CA       HOLD1STB
001580:    6767           24000                           INCR     A
001581:    6770           75705                           MSK      LASTBNK
001582:    6771           54140                           TS       HOLD1STB
001583:    6772           30121                           CA       IDSTOPL
001584:    6773           75705                           MSK      LASTBNK
001585:    6774           40000                           CS       A
001586:    6775           60140                           AD       HOLD1STB
001587:    6776           10000                           CCS      A
001588:    6777           07003                           TC       +4
001589:    7000           07003                           TC       +3
001590:    7001           07003                           TC       +2
001591:    7002           06153                           TC       BEGINL
001592:    7003           30004                           CA       FB
001593:    7004           65707                           AD       INCRFB
001594:    7005           54004                           TS       FB
001595:    7006           06720                           TC       STARTSUM
001596:    7007           54127        GETSUM             TS       CNTDWN1L
001597:    7010           54001                           TS       L                                     #  ADDRESS 2000 IN L
001598:    7011           50000                           NDX      A
001599:    7012           32000                           CA       2000
001600:    7013           60130                           AD       SUML
001601:    7014           54130                           TS       SUML
001602:    7015           06725                           TC       CHKCNTDN                              #  NO OVERFLOW
001603:    7016           24131                           INCR     OVFLOL                                #  OVERFLOW
001604:    7017           06725                           TC       CHKCNTDN
001605:    7020           30115        V8CHK              CA       VERBREGL
001606:    7021           65732                           AD       VERB8
001607:    7022           10000                           CCS      A
001608:    7023           06562                           TC       R1STATLD
001609:    7024           06562                           TC       R1STATLD
001610:    7025           06562                           TC       R1STATLD
001611:    7026           00006                           EXTEND
001612:    7027           00021                           READ     CH21
001613:    7030           54073                           TS       R1
001614:    7031           06565                           TC       IDSERRA
001615:    7032           04506        V14                TC       DISPLAY
001616:    7033           35733                           CA       READK14
001617:    7034           54136                           TS       READKSTA
001618:    7035           35743                           CA       BBKAA
001619:    7036           54145                           TS       BBK
001620:    7037           07045                           TC       COMROUTN
001621:    7040           04506        V15                TC       DISPLAY
001622:    7041           35734                           CA       READK15
001623:    7042           54136                           TS       READKSTA
001624:    7043           35744                           CA       BBKBA
001625:    7044           54145                           TS       BBK
001626:    7045           30145        COMROUTN           CA       BBK                                   #  TRANSFER DATA FROM PAC TO ACM
001627:    7046           54006                           TS       BB
001628:    7047           35737                           CA       ACMFBKA
001629:    7050           54165                           TS       ACMFBK
001630:    7051           34005                           CA       ZERO
001631:    7052           54141                           TS       EBCOUNT
001632:    7053           54142                           TS       FBCOUNT
001633:    7054           07060                           TC       PACTRNS
001634:    7055           06142                           TC       TPTRAN
001635:    7056           07107                           TC       CLRACM
001636:    7057           07164                           TC       CRTNAFT


001638:    7060           30002        PACTRNS            CA       Q
001639:    7061           54137                           TS       QSTORL
001640:    7062           50142        CONTTRNS           NDX      FBCOUNT
001641:    7063           32000                           CA       2000
001642:    7064           50141                           NDX      EBCOUNT
001643:    7065           55400                           TS       1400
001644:    7066           24142                           INCR     FBCOUNT
001645:    7067           24141                           INCR     EBCOUNT
001646:    7070           30142                           CA       FBCOUNT
001647:    7071           54001                           TS       L                                     #  ADDRESS 1400 IN L
001648:    7072           45735                           CS       EBFULL
001649:    7073           60141                           AD       EBCOUNT
001650:    7074           10000                           CCS      A                                     #  IS AN ACM EBANK FULL
001651:    7075           06000                           TC       MERR                                  #  ERROR
001652:    7076           06000                           TC       MERR                                  #  ERROR
001653:    7077           07062                           TC       CONTTRNS                              #  NO
001654:    7100           45736                           CS       FBFULL                                #  YES
001655:    7101           60142                           AD       FBCOUNT
001656:    7102           10000                           CCS      A                                     #  HAS A COMPLETE PAC BANK BEEN TRANSFD
001657:    7103           06000                           TC       MERR                                  #  ERROR
001658:    7104           06000                           TC       MERR                                  #  ERROR
001659:    7105           07257                           TC       INCREB                                #  NO
001660:    7106           00137                           TC       QSTORL                                #  YES GO TO SUBROUTINE WHICH XFERS
001661:                                                                                                  #   DATA FROM ACM TO ATM
001662:    7107           30145        CLRACM             CA       BBK                                   #  CLEAR ACM
001663:    7110           54006                           TS       BB
001664:    7111           34005                           CA       ZERO
001665:    7112           54142                           TS       FBCOUNT
001666:    7113           54141                           TS       EBCOUNT
001667:    7114           30002                           CA       Q
001668:    7115           54070                           TS       QSTORE
001669:    7116           30142        CONTCLR            CA       FBCOUNT
001670:    7117           54103                           TS       TEMPA
001671:    7120           30007                           CA       ZEROS
001672:    7121           50141                           NDX      EBCOUNT
001673:    7122           55400                           TS       1400
001674:    7123           24141                           INCR     EBCOUNT
001675:    7124           24142                           INCR     FBCOUNT
001676:    7125           45735                           CS       EBFULL
001677:    7126           60141                           AD       EBCOUNT
001678:    7127           10000                           CCS      A                                     #  HAS AN ACM EBANK BEEN CLEARED
001679:    7130           06000                           TC       MERR                                  #  ERROR
001680:    7131           06000                           TC       MERR                                  #  ERROR
001681:    7132           07263                           TC       ZEROA                                 #  NO
001682:    7133           45736                           CS       FBFULL                                #  YES
001683:    7134           60142                           AD       FBCOUNT
001684:    7135           10000                           CCS      A                                     #  HAVE 4 ACM EBANKS BEEN CLEARED
001685:    7136           06000                           TC       MERR                                  #  ERROR
001686:    7137           06000                           TC       MERR                                  #  ERROR
001687:    7140           07265                           TC       INCREBA                               #  NO
001688:    7141           30103                           CA       TEMPA
001689:    7142           54142                           TS       FBCOUNT
001690:    7143           30165                           CA       ACMFBK
001691:    7144           54004                           TS       FB
001692:    7145           50142        CONTZCHK           NDX      FBCOUNT
001693:    7146           32000                           CA       2000
001694:    7147           10000                           CCS      A                                     #  IS ACM WORD CLARED
001695:    7150           07271                           TC       CLRERROR                              #  NO


001697:    7151           07154                           TC       +3                                    #  YES
001698:    7152           07271                           TC       CLRERROR                              #  NO
001699:    7153           07271                           TC       CLRERROR                              #  NO
001700:    7154           24142                           INCR     FBCOUNT
001701:    7155           45736                           CS       FBFULL
001702:    7156           60142                           AD       FBCOUNT
001703:    7157           10000                           CCS      A                                     #  HAS EVERY ACM WORD BEEN CHECKED
001704:    7160           06000                           TC       MERR                                  #  ERROR
001705:    7161           06000                           TC       MERR                                  #  ERROR
001706:    7162           07145                           TC       CONTZCHK                              #  NO
001707:    7163           00070                           TC       QSTORE                                #  YES
001708:    7164           35741        CRTNAFT            CA       READKC25                              #  CONTINUE
001709:    7165           54124                           TS       CH25LOAD
001710:    7166           30136                           CA       READKSTA
001711:    7167           54120                           TS       IDSTARTL
001712:    7170           34005                           CA       ZERO
001713:    7171           54121                           TS       IDSTOPL
001714:    7172           06142                           TC       TPTRAN
001715:    7173           30007        AMCHKLA            CA       ZEROS                                 #  CHECK ACM AGAINST PAC
001716:    7174           54142                           TS       FBCOUNT
001717:    7175           54143                           TS       ERRCOUNT
001718:    7176           07200                           TC       +2
001719:    7177           07230                           TC       ERRCHKAA
001720:    7200           30002                           CA       Q
001721:    7201           54137                           TS       QSTORL
001722:    7202           30145        CONTWDCK           CA       BBK
001723:    7203           54006                           TS       BB
001724:    7204           50142                           NDX      FBCOUNT
001725:    7205           32000                           CA       2000
001726:    7206           54144                           TS       HOLD
001727:    7207           30165                           CA       ACMFBK
001728:    7210           54004                           TS       FB
001729:    7211           50142                           NDX      FBCOUNT
001730:    7212           42000                           CS       2000
001731:    7213           60144                           AD       HOLD
001732:    7214           10000                           CCS      A                                     #  DOES ACM WORD AGREE WITH PAC WORD
001733:    7215           07234                           TC       UPERCNT                               #  NO
001734:    7216           07234                           TC       UPERCNT                               #  NO
001735:    7217           07234                           TC       UPERCNT                               #  NO
001736:    7220           24142        CONTINU            INCR     FBCOUNT
001737:    7221           40142                           CS       FBCOUNT
001738:    7222           65745                           AD       FULLESS2
001739:    7223           10000                           CCS      A                                     #  HAS EVERY WORD BEEN CHECKED
001740:    7224           07202                           TC       CONTWDCK                              #  NO
001741:    7225           07202                           TC       CONTWDCK                              #  NO
001742:    7226           07202                           TC       CONTWDCK                              #  NO
001743:    7227           00137                           TC       QSTORL
001744:    7230           30143        ERRCHKAA           CA       ERRCOUNT
001745:    7231           10000                           CCS      A                                     #  WERE THERE ANY ERRORS
001746:    7232           04460                           TC       IDLE                                  #  YES
001747:    7233           05620                           TC       SUCCESS                               #  NO
001748:    7234           24143        UPERCNT            INCR     ERRCOUNT
001749:    7235           35742                           CA       NOUN56
001750:    7236           54072                           TS       NOUN
001751:    7237           35736                           CA       FBFULL
001752:    7240           60142                           AD       FBCOUNT
001753:    7241           54073                           TS       R1                                    #  LOAD R1 WITH ADDRESS OF ERROR
001754:    7242           50000                           NDX      A


001756:    7243           30000                           CA       A
001757:    7244           54074                           TS       R2                                    #  LOAD R2 WITH ACM DATA
001758:    7245           30145                           CA       BBK
001759:    7246           54006                           TS       BB
001760:    7247           30073                           CA       R1
001761:    7250           50000                           NDX      A
001762:    7251           30000                           CA       A
001763:    7252           54075                           TS       R3                                    #  LOAD R3 WITH PAC DATA
001764:    7253           34021                           CA       OC17
001765:    7254           54071                           TS       STATUS
001766:    7255           04506                           TC       DISPLAY                               #  DISPLAY NOUN R1 R2 AND R3
001767:    7256           07220                           TC       CONTINU                               #  CHECK NEXT WORD
001768:    7257           34005        INCREB             CA       ZERO                                  #  PAC DATA XFER NOT COMPLETE UPDATE
001769:    7260           54141                           TS       EBCOUNT                               #  ACM EBANK
001770:    7261           24006                           INCR     BB
001771:    7262           07062                           TC       CONTTRNS
001772:    7263           34005        ZEROA              CA       ZERO
001773:    7264           07116                           TC       CONTCLR
001774:    7265           24006        INCREBA            INCR     BB
001775:    7266           34005                           CA       ZERO
001776:    7267           54141                           TS       EBCOUNT
001777:    7270           07116                           TC       CONTCLR
001778:    7271           35736        CLRERROR           CA       FBFULL                                #  LOAD NOUN WITH 57
001779:    7272           60142                           AD       FBCOUNT                               #  INDICATES ACM DID NOT CLEAR AFTER
001780:    7273           54073                           TS       R1                                    #  DATA WAS SENT TO ATM
001781:    7274           34021                           CA       OC17                                  #  LOAD R1 WITH FIRST ACM ADDRESS THAT
001782:    7275           54071                           TS       STATUS                                #  WAS NOT CLEARED
001783:    7276           35740                           CA       NOUN57
001784:    7277           54072                           TS       NOUN
001785:    7300           05174                           TC       TERR
001786:    7301           04506        V16                TC       DISPLAY
001787:    7302           35746                           CA       1STBKA
001788:    7303           54163                           TS       BNKNUMAA
001789:    7304           35747                           CA       2NDBKA
001790:    7305           54164                           TS       BNKNUMBA
001791:    7306           07315                           TC       TRFRA
001792:    7307           35750                           CA       3RDBKA
001793:    7310           54163                           TS       BNKNUMAA
001794:    7311           35751                           CA       4THBKA
001795:    7312           54164                           TS       BNKNUMBA
001796:    7313           07315                           TC       TRFRA
001797:    7314           07336                           TC       NARTCAPA
001798:    7315           30002        TRFRA              CA       Q
001799:    7316           54070                           TS       QSTORE
001800:    7317           30163                           CA       BNKNUMAA
001801:    7320           54006                           TS       BB
001802:    7321           32000                           CA       2000                                  #  LOAD ID FOR EBANK
001803:    7322           55400                           TS       1400                                  #  ENDING ZERO
001804:    7323           35475                           CA       OC10
001805:    7324           54141                           TS       EBCOUNT
001806:    7325           54142                           TS       FBCOUNT
001807:    7326           07060                           TC       PACTRNS
001808:    7327           30164                           CA       BNKNUMBA
001809:    7330           54006                           TS       BB
001810:    7331           30007                           CA       ZEROS
001811:    7332           54141                           TS       EBCOUNT
001812:    7333           54142                           TS       FBCOUNT
001813:    7334           07060                           TC       PACTRNS


001815:    7335           00070                           TC       QSTORE
001816:    7336           06142        NARTCAPA           TC       TPTRAN
001817:    7337           34313                           CA       STARTBLE   +8
001818:    7340           54120                           TS       IDSTARTL
001819:    7341           34334                           CA       STOPTBLE   +8
001820:    7342           54121                           TS       IDSTOPL
001821:    7343           34355                           CA       CH25TBLE   +8
001822:    7344           54124                           TS       CH25LOAD
001823:    7345           07032                           TC       V14
001824:    7346           04506        V10                TC       DISPLAY
001825:    7347           06142                           TC       TPTRAN
001826:    7350           30125                           CA       CORERCNT
001827:    7351           54073                           TS       R1
001828:    7352           34337                           CA       ALL7SL
001829:    7353           54074                           TS       R2
001830:    7354           54075                           TS       R3
001831:    7355           54072                           TS       NOUN
001832:    7356           34021                           CA       OC17
001833:    7357           54071                           TS       STATUS
001834:    7360           04506                           TC       DISPLAY
001835:    7361           04460                           TC       IDLE
001836:    7362           00004        BIT3               OCT      00004
001837:    7363           34005        V00PROC            CA       ZERO
001838:    7364           54152                           TS       READX
001839:    7365           54153                           TS       BANKNO
001840:    7366           54162                           TS       DATAHOLD
001841:    7367           54154                           TS       ADDHOLD
001842:    7370           54156                           TS       BNKSHFT
001843:    7371           54160                           TS       HOLDBKDG
001844:    7372           35706                           CA       BNK5
001845:    7373           54161                           TS       GETDATA
001846:    7374           54151                           TS       GETADD
001847:    7375           34015                           CA       TWO
001848:    7376           54157                           TS       1STBNKNO
001849:    7377           64003                           AD       ONE
001850:    7400           54150                           TS       BNKPR
001851:    7401           34003                           CA       ONE
001852:    7402           54147                           TS       1STDIGPR
001853:    7403           04454                           TC       RETURNL
001854:    7404           30166        ZZPROC             CA       SWITCH
001855:    7405           10000                           CCS      A
001856:    7406           02000                           TC       2000
001857:    7407           40110                           CS       TEMP1L
001858:    7410           74011                           MSK      THIRTY
001859:    7411           10000                           CCS      A                                     #  WAS A DIGIT HIT
001860:    7412           07414                           TC       +2                                    #  YES
001861:    7413           04435                           TC       OPERROR                               #  NO
001862:    7414           30110                           CA       TEMP1L
001863:    7415           75475                           MSK      OC10
001864:    7416           10000                           CCS      A                                     #  WAS 8 OR 9 HIT
001865:    7417           04435                           TC       OPERROR                               #  YES
001866:    7420           30110                           CA       TEMP1L                                #  NO
001867:    7421           74360                           MSK      MASKBA
001868:    7422           54146                           TS       HOLDIT
001869:    7423           10147                           CCS      1STDIGPR                              #  IS THIS FIRST DIGIT HIT
001870:    7424           07463                           TC       MODESEL                               #  YES
001871:    7425           10150                           CCS      BNKPR                                 #  NO IS THIS THE 2ND OR 3RD DIGIT
001872:    7426           07515                           TC       LDBNKL                                #  YES


001874:    7427           10151                           CCS      GETADD                                #  NO IS THE ADDRESS COMPLETE
001875:    7430           07530                           TC       ADDPROC                               #  NO
001876:    7431           10152                           CCS      READX                                 #  YES IS THIS A LOAD
001877:    7432           07542                           TC       DATALD                                #  YES
001878:    7433           30153                           CA       BANKNO                                #  NO
001879:    7434           54006                           TS       BB
001880:    7435           10146                           CCS      HOLDIT
001881:    7436           07440                           TC       +2
001882:    7437           07455                           TC       TRANSC
001883:    7440           30154                           CA       ADDHOLD
001884:    7441           54074                           TS       R2                                    #  DISPLAY ADDRESS IN R2
001885:    7442           50000                           NDX      A
001886:    7443           30000                           CA       A
001887:    7444           54075                           TS       R3                                    #  DISPLAY DATA IN R3
001888:    7445           24154                           INCR     ADDHOLD
001889:    7446           37451        UPDISPLA           CA       GODISP                                #  UPDATE DISPLAY WITH BRUPT
001890:    7447           54017                           TS       BRUPT
001891:    7450           50017                           RESUME
001892:    7451           07452        GODISP             TC       +1
001893:    7452           04506                           TC       DISPLAY
001894:    7453           04460                           TC       IDLE
001895:    7454           05620        TOSUCCL            TC       SUCCESS
001896:    7455           37454        TRANSC             CA       TOSUCCL
001897:    7456           54070                           TS       QSTORE
001898:    7457           54137                           TS       QSTORL
001899:    7460           30154                           CA       ADDHOLD
001900:    7461           54017                           TS       BRUPT
001901:    7462           50017                           RESUME
001902:    7463           54147        MODESEL            TS       1STDIGPR
001903:    7464           30146                           CA       HOLDIT
001904:    7465           54072                           TS       NOUN
001905:    7466           34021                           CA       OC17
001906:    7467           54071                           TS       STATUS
001907:    7470           30007                           CA       ZEROS
001908:    7471           54073                           TS       R1
001909:    7472           54074                           TS       R2
001910:    7473           54075                           TS       R3
001911:    7474           10146                           CCS      HOLDIT                                #  WILL THE OP BE READ FXD
001912:    7475           07501                           TC       CONTMODE                              #  NO
001913:    7476           34003                           CA       ONE                                   #  YES
001914:    7477           54156                           TS       BNKSHFT
001915:    7500           07446                           TC       UPDISPLA
001916:    7501           10000        CONTMODE           CCS      A                                     #  WILL THE OP BE LOAD OR READ ERR
001917:    7502           07504                           TC       ENDOP
001918:    7503           07446                           TC       UPDISPLA
001919:    7504           10000        ENDOP              CCS      A
001920:    7505           07512                           TC       MIKEB
001921:    7506           07507                           TC       LOADSET
001922:    7507           34003        LOADSET            CA       ONE
001923:    7510           54152                           TS       READX
001924:    7511           07446                           TC       UPDISPLA
001925:    7512           35215        MIKEB              CA       V00BK
001926:    7513           54004                           TS       FB
001927:    7514           02001                           TC       2001
001928:    7515           54150        LDBNKL             TS       BNKPR
001929:    7516           10157                           CCS      1STBNKNO                              #  IS THIS THE 1ST BNK NO
001930:    7517           05643                           TC       SHIFT3L                               #  YES
001931:    7520           30146                           CA       HOLDIT                                #  NO


001933:    7521           60160                           AD       HOLDBKDG
001934:    7522           54153                           TS       BANKNO
001935:    7523           10156                           CCS      BNKSHFT                               #  IS THE ADDRESS FXD OR ERR
001936:    7524           05631                           TC       FXDPR
001937:    7525           30153                           CA       BANKNO
001938:    7526           54073                           TS       R1
001939:    7527           07446                           TC       UPDISPLA
001940:    7530           54151        ADDPROC            TS       GETADD
001941:    7531           30154                           CA       ADDHOLD
001942:    7532           54022                           TS       CYL
001943:    7533           30022                           CA       CYL
001944:    7534           30022                           CA       CYL
001945:    7535           30022                           CA       CYL
001946:    7536           60146                           AD       HOLDIT
001947:    7537           54154                           TS       ADDHOLD
001948:    7540           54074                           TS       R2
001949:    7541           07446                           TC       UPDISPLA
001950:    7542           10161        DATALD             CCS      GETDATA                               #  IS DATA COMPLETE
001951:    7543           07567                           TC       CONTDATA                              #  NO
001952:    7544           30153                           CA       BANKNO                                #  YES
001953:    7545           54006                           TS       BB
001954:    7546           30154                           CA       ADDHOLD
001955:    7547           54074                           TS       R2
001956:    7550           35706                           CA       BNK5
001957:    7551           54161                           TS       GETDATA
001958:    7552           30162                           CA       DATAHOLD
001959:    7553           50154                           NDX      ADDHOLD
001960:    7554           54000                           TS       A
001961:    7555           50154                           NDX      ADDHOLD
001962:    7556           30000                           CA       A
001963:    7557           54073                           TS       R1
001964:    7560           24154                           INCR     ADDHOLD
001965:    7561           34005                           CA       ZERO
001966:    7562           54162                           TS       DATAHOLD
001967:    7563           37451                           CA       GODISP
001968:    7564           54017                           TS       BRUPT
001969:    7565           50017                           RESUME
001970:    7566           04460                           TC       IDLE
001971:    7567           54161        CONTDATA           TS       GETDATA
001972:    7570           30162                           CA       DATAHOLD
001973:    7571           54022                           TS       CYL
001974:    7572           30022                           CA       CYL
001975:    7573           30022                           CA       CYL
001976:    7574           30022                           CA       CYL
001977:    7575           60146                           AD       HOLDIT
001978:    7576           54162                           TS       DATAHOLD
001979:    7577           54075                           TS       R3
001980:    7600           07446                           TC       UPDISPLA
001981:    7601           00006        7SCHKA             EXTEND
001982:    7602           00023                           READ     CH23
001983:    7603           10000                           CCS      A
001984:    7604           00137                           TC       QSTORL
001985:    7605           00137                           TC       QSTORL
001986:    7606           00137                           TC       QSTORL
001987:    7607           37615                           CA       OC177
001988:    7610           00006                           EXTEND
001989:    7611           01011                           WRITE    CH11
001990:    7612           37616                           CA       NOUN60


001992:    7613           54072                           TS       NOUN
001993:    7614           06562                           TC       R1STATLD
001994:    7615           00177        OC177              OCT      00177
001995:    7616           00060        NOUN60             OCT      00060
001996:    7617           04506        V21                TC       DISPLAY
001997:    7620           06142                           TC       TPTRAN
001998:    7621           02001                           TC       2001
001999:    7622           05620                           TC       SUCCESS
002000:    7623           04506        V22                TC       DISPLAY
002001:    7624           35752                           CA       BBKCA                                 #  ...........
002002:    7625           54163                           TS       BNKNUMAA                              #            .
002003:    7626           35753                           CA       BBKDA                                 #            .
002004:    7627           54164                           TS       BNKNUMBA                              #            .
002005:    7630           07315                           TC       TRFRA                                 #       PAC TO MU4
002006:    7631           35754                           CA       BBKEA                                 #            .
002007:    7632           54163                           TS       BNKNUMAA                              #            .
002008:    7633           35755                           CA       BBKFA                                 #            .
002009:    7634           54164                           TS       BNKNUMBA                              #            .
002010:    7635           07315                           TC       TRFRA                                 #  ...........
002011:    7636           35756                           CA       BBKGA                                 #            .
002012:    7637           54163                           TS       BNKNUMAA                              #            .
002013:    7640           35757                           CA       BBKHA                                 #            .
002014:    7641           54164                           TS       BNKNUMBA                              #            .
002015:    7642           07315                           TC       TRFRA                                 #       MU4 TO MU5
002016:    7643           35760                           CA       BBKIA                                 #            .
002017:    7644           54163                           TS       BNKNUMAA                              #            .
002018:    7645           35761                           CA       BBKJA                                 #            .
002019:    7646           54164                           TS       BNKNUMBA                              #            .
002020:    7647           07315                           TC       TRFRA                                 #  ...........
002021:    7650           06142                           TC       TPTRAN                                #  MU5 TO ATM
002022:    7651           35756                           CA       BBKGA
002023:    7652           54006                           TS       BB
002024:    7653           35703                           CA       BNK34                                 #  70000
002025:    7654           54165                           TS       ACMFBK
002026:    7655           35475                           CA       OC10
002027:    7656           54142                           TS       FBCOUNT
002028:    7657           54141                           TS       EBCOUNT
002029:    7660           07114                           TC       CONTCLR    -2
002030:    7661           35757                           CA       BBKHA
002031:    7662           54145                           TS       BBK
002032:    7663           35737                           CA       ACMFBKA                               #  72000
002033:    7664           54165                           TS       ACMFBK
002034:    7665           07107                           TC       CLRACM                                #  CLEAR ACM MU5 BK35
002035:    7666           35760                           CA       BBKIA
002036:    7667           54006                           TS       BB
002037:    7670           35467                           CA       OUTCONCA                              #  74000
002038:    7671           54165                           TS       ACMFBK
002039:    7672           35475                           CA       OC10
002040:    7673           54142                           TS       FBCOUNT
002041:    7674           54141                           TS       EBCOUNT
002042:    7675           07114                           TC       CONTCLR    -2
002043:    7676           35761                           CA       BBKJA
002044:    7677           54145                           TS       BBK
002045:    7700           35615                           CA       LASTBKA                               #  76000
002046:    7701           54165                           TS       ACMFBK
002047:    7702           07107                           TC       CLRACM                                #  CLEAR ACM MU5 BK37
002048:    7703           35613                           CA       STOPA                                 #  ...........
002049:    7704           54124                           TS       CH25LOAD                              #            .


002051:    7705           35762                           CA       OCT51010
002052:    7706           54120                           TS       IDSTARTL                              #        SET UP TPTRAN
002053:    7707           35731                           CA       OC14
002054:    7710           54121                           TS       IDSTOPL                               #            .
002055:    7711           06142                           TC       TPTRAN                                #  ...........
002056:    7712           30007                           CA       ZEROS
002057:    7713           54143                           TS       ERRCOUNT                              #  SET ERROR COUNT TO ZERO
002058:    7714           35475                           CA       OC10
002059:    7715           54142                           TS       FBCOUNT                               #  START 1ST BANK AT 2010
002060:    7716           35756                           CA       BBKGA                                 #  MU4 FBANK 30 R3 IF ERROR
002061:    7717           54145                           TS       BBK
002062:    7720           35703                           CA       BNK34                                 #  MU5 FBANK 34 R2 IF ERROR
002063:    7721           54165                           TS       ACMFBK
002064:    7722           07200                           TC       CONTWDCK   -2
002065:    7723           30007                           CA       ZEROS
002066:    7724           54142                           TS       FBCOUNT                               #  START 2ND BANK AT 2000
002067:    7725           35757                           CA       BBKHA                                 #  MU4 FBANK 31 R3 IF ERROR
002068:    7726           54145                           TS       BBK
002069:    7727           35737                           CA       ACMFBKA                               #  MU5 FBANK 35 R2 IF ERROR
002070:    7730           54165                           TS       ACMFBK
002071:    7731           07200                           TC       CONTWDCK   -2
002072:    7732           35475                           CA       OC10
002073:    7733           54142                           TS       FBCOUNT                               #  START 3RD BANK AT 2010
002074:    7734           35760                           CA       BBKIA                                 #  MU4 FBANK 32 R3 IF ERROR
002075:    7735           54145                           TS       BBK
002076:    7736           35467                           CA       OUTCONCA                              #  MU5 FBANK 36 R2 IF ERROR
002077:    7737           54165                           TS       ACMFBK
002078:    7740           07200                           TC       CONTWDCK   -2
002079:    7741           30007                           CA       ZEROS
002080:    7742           54142                           TS       FBCOUNT                               #  START 4TH BANK AT 2000
002081:    7743           35761                           CA       BBKJA                                 #  MU4 FBANK 33 R3 IF ERROR
002082:    7744           54145                           TS       BBK
002083:    7745           35615                           CA       LASTBKA                               #  MU5 FBANK 37 R2 IF ERROR
002084:    7746           54165                           TS       ACMFBK
002085:    7747           07200                           TC       CONTWDCK   -2
002086:    7750           07230                           TC       ERRCHKAA
002087:    7751           00006        LISTID             EXTEND
002088:    7752           00023                           READ     CH23
002089:    7753           54167                           TS       NEWID
002090:    7754           40000                           CS       A
002091:    7755           60170                           AD       OLDID
002092:    7756           10000                           CCS      A                                     #  IS NEWID EQUAL TO OLDID
002093:    7757           07763                           TC       +4                                    #  STORE NEWID
002094:    7760           07763                           TC       +3                                    #  STORE NEWID
002095:    7761           07763                           TC       +2                                    #  STORE NEWID
002096:    7762           06311                           TC       FNDTRNSP                              #  YES GO BACK TO ROUTINE
002097:    7763           30167                           CA       NEWID
002098:    7764           54170                           TS       OLDID
002099:    7765           50171                           INDEX    LSTCNT
002100:    7766           54000                           TS       A                                     #  LOAD LIST
002101:    7767           24171                           INCR     LSTCNT
002102:    7770           35462                           CA       COMOUT
002103:    7771           50171                           INDEX    LSTCNT
002104:    7772           54000                           TS       A
002105:    7773           06311                           TC       FNDTRNSP
002106: 16,2000                                           SETLOC   CF162000
002107: 16,2000           02047                           TC       STDATTR
002108: 16,2001           32426                           CA       FIVE


002110: 16,2002           54172                           TS       ONETO5
002111: 16,2003           34005                           CA       ZERO
002112: 16,2004           54173                           TS       SIXTH
002113: 16,2005           54174                           TS       SEVENTH
002114: 16,2006           54175                           TS       EIGHTH
002115: 16,2007           54201                           TS       PUNCH5
002116: 16,2010           54210                           TS       PUNCH6
002117: 16,2011           34021                           CA       OC17
002118: 16,2012           54071                           TS       STATUS
002119: 16,2013           35472                           CA       C2A
002120: 16,2014           54202                           TS       LDFBLL
002121: 16,2015           35705                           CA       LASTBNK
002122: 16,2016           54203                           TS       LDEBLL
002123: 16,2017           50146                           NDX      HOLDIT
002124: 16,2020           02021                           TC       WHCHMBD
002125: 16,2021           04435        WHCHMBD            TC       OPERROR
002126: 16,2022           04435                           TC       OPERROR
002127: 16,2023           04435                           TC       OPERROR
002128: 16,2024           02035                           TC       RLRD                                  #  THREE READ
002129: 16,2025           02040                           TC       RLLD                                  #  FOUR LOAD
002130: 16,2026           02265                           TC       LDPN5
002131: 16,2027           02031                           TC       AMCHKL
002132: 16,2030           04435                           TC       OPERROR
002133: 16,2031           34003        AMCHKL             CA       ONE
002134: 16,2032           54210                           TS       PUNCH6
002135: 16,2033           54201                           TS       PUNCH5
002136: 16,2034           02044                           TC       SETSW
002137: 16,2035           34003        RLRD               CA       ONE
002138: 16,2036           54176                           TS       RDLD
002139: 16,2037           02042                           TC       +3
002140: 16,2040           34005        RLLD               CA       ZERO
002141: 16,2041           54176                           TS       RDLD
002142: 16,2042           34005                           CA       ZERO
002143: 16,2043           54146                           TS       HOLDIT
002144: 16,2044           34003        SETSW              CA       ONE
002145: 16,2045           54166                           TS       SWITCH
002146: 16,2046           07446                           TC       UPDISPLA
002147: 16,2047           10201        STDATTR            CCS      PUNCH5
002148: 16,2050           02270                           TC       TRPACBNK
002149: 16,2051           40110                           CS       TEMP1L
002150: 16,2052           74011                           MSK      THIRTY
002151: 16,2053           10000                           CCS      A                                     #  DIGIT
002152: 16,2054           02056                           TC       +2                                    #  YES
002153: 16,2055           02063                           TC       ENTCHK                                #  NO
002154: 16,2056           30110                           CA       TEMP1L
002155: 16,2057           75475                           MSK      OC10
002156: 16,2060           10000                           CCS      A                                     #  8 OR 9
002157: 16,2061           04435                           TC       OPERROR                               #  YES
002158: 16,2062           02071                           TC       ENTROK                                #  NO
002159: 16,2063           40110        ENTCHK             CS       TEMP1L
002160: 16,2064           64013                           AD       ENTRCDEL
002161: 16,2065           10000                           CCS      A                                     #  ENTER
002162: 16,2066           04435                           TC       OPERROR                               #  NO
002163: 16,2067           04435                           TC       OPERROR                               #  NO
002164: 16,2070           04435                           TC       OPERROR                               #  NO
002165: 16,2071           30110        ENTROK             CA       TEMP1L
002166: 16,2072           74360                           MSK      MASKBA
002167: 16,2073           54177                           TS       HOLDNO


002169: 16,2074           30172                           CA       ONETO5
002170: 16,2075           10000                           CCS      A
002171: 16,2076           02100                           TC       +2
002172: 16,2077           02125                           TC       SMPXTPX
002173: 16,2100           54172                           TS       ONETO5
002174: 16,2101           30177                           CA       HOLDNO
002175: 16,2102           26146                           ADS      HOLDIT
002176: 16,2103           30172                           CA       ONETO5
002177: 16,2104           10000                           CCS      A
002178: 16,2105           02107                           TC       +2
002179: 16,2106           02117                           TC       DISPITL
002180: 16,2107           30146                           CA       HOLDIT
002181: 16,2110           54073                           TS       R1
002182: 16,2111           54022                           TS       CYL
002183: 16,2112           30022                           CA       CYL
002184: 16,2113           30022                           CA       CYL
002185: 16,2114           30022                           CA       CYL
002186: 16,2115           54146                           TS       HOLDIT
002187: 16,2116           07446                           TC       UPDISPLA
002188: 16,2117           30146        DISPITL            CA       HOLDIT
002189: 16,2120           54073                           TS       R1
002190: 16,2121           34005                           CA       ZERO
002191: 16,2122           54074                           TS       R2
002192: 16,2123           54075                           TS       R3
002193: 16,2124           07446                           TC       UPDISPLA
002194: 16,2125           30173        SMPXTPX            CA       SIXTH
002195: 16,2126           10000                           CCS      A
002196: 16,2127           02145                           TC       NOBNKS
002197: 16,2130           30177                           CA       HOLDNO
002198: 16,2131           10000                           CCS      A                                     #   ZERO TRIPLEX
002199: 16,2132           34320                           CA       OUTCOML                               #   ONE SIMPLEX
002200: 16,2133           64345                           AD       CH25TBLE
002201: 16,2134           54146                           TS       HOLDIT
002202: 16,2135           10176                           CCS      RDLD
002203: 16,2136           02140                           TC       +2                                    #  ONE READ TAPE
002204: 16,2137           35701                           CA       WDATAL                                #  ZERO WRITE TAPE
002205: 16,2140           60146                           AD       HOLDIT
002206: 16,2141           54075                           TS       R3
002207: 16,2142           34003                           CA       ONE
002208: 16,2143           54173                           TS       SIXTH
002209: 16,2144           07446                           TC       UPDISPLA
002210: 16,2145           30174        NOBNKS             CA       SEVENTH
002211: 16,2146           10000                           CCS      A
002212: 16,2147           02201                           TC       KEEPGNG
002213: 16,2150           30177                           CA       HOLDNO
002214: 16,2151           54200                           TS       NOOFBNKS
002215: 16,2152           50000                           NDX      A
002216: 16,2153           02154                           TC       BNKNOOK
002217: 16,2154           04435        BNKNOOK            TC       OPERROR
002218: 16,2155           02164                           TC       ONEBNK
002219: 16,2156           02171                           TC       BNKGD
002220: 16,2157           02171                           TC       BNKGD
002221: 16,2160           02171                           TC       BNKGD
002222: 16,2161           04435                           TC       OPERROR
002223: 16,2162           04435                           TC       OPERROR
002224: 16,2163           04435                           TC       OPERROR
002225: 16,2164           34005        ONEBNK             CA       ZERO
002226: 16,2165           54074                           TS       R2


002228: 16,2166           34003                           CA       ONE
002229: 16,2167           54174                           TS       SEVENTH
002230: 16,2170           07446                           TC       UPDISPLA
002231: 16,2171           30073        BNKGD              CA       R1
002232: 16,2172           74012                           MSK      FIRST5
002233: 16,2173           60177                           AD       HOLDNO
002234: 16,2174           74012                           MSK      FIRST5
002235: 16,2175           54074                           TS       R2
002236: 16,2176           34003                           CA       ONE
002237: 16,2177           54174                           TS       SEVENTH
002238: 16,2200           07446                           TC       UPDISPLA
002239: 16,2201           30175        KEEPGNG            CA       EIGHTH
002240: 16,2202           10000                           CCS      A
002241: 16,2203           02256                           TC       WRITEIT
002242: 16,2204           40110                           CS       TEMP1L
002243: 16,2205           64013                           AD       ENTRCDEL
002244: 16,2206           10000                           CCS      A                                     #  WAS ENTER HIT
002245: 16,2207           02230                           TC       WRITTPL                               #  NO
002246: 16,2210           02230                           TC       WRITTPL                               #  NO
002247: 16,2211           02230                           TC       WRITTPL                               #  NO
002248: 16,2212           10176                           CCS      RDLD                                  #  YES WAS A READ REQUESTED
002249: 16,2213           02215                           TC       +2                                    #  YES
002250: 16,2214           04435                           TC       OPERROR                               #  NO
002251: 16,2215           30073        EXITLLL            CA       R1
002252: 16,2216           54120                           TS       IDSTARTL
002253: 16,2217           30074                           CA       R2
002254: 16,2220           54121                           TS       IDSTOPL
002255: 16,2221           30075                           CA       R3
002256: 16,2222           54124                           TS       CH25LOAD
002257: 16,2223           34005                           CA       ZERO
002258: 16,2224           54107                           TS       ZZTAG
002259: 16,2225           32427                           CA       GOL
002260: 16,2226           54017                           TS       BRUPT
002261: 16,2227           50017                           RESUME
002262: 16,2230           10176        WRITTPL            CCS      RDLD
002263: 16,2231           04435                           TC       OPERROR
002264: 16,2232           30177                           CA       HOLDNO
002265: 16,2233           10000                           CCS      A
002266: 16,2234           10000                           CCS      A
002267: 16,2235           10000                           CCS      A
002268: 16,2236           30000                           CA       A
002269: 16,2237           10000                           CCS      A
002270: 16,2240           04435                           TC       OPERROR
002271: 16,2241           30177                           CA       HOLDNO
002272: 16,2242           54022                           TS       CYL
002273: 16,2243           30022                           CA       CYL
002274: 16,2244           30022                           CA       CYL
002275: 16,2245           54074                           TS       R2
002276: 16,2246           30200                           CA       NOOFBNKS
002277: 16,2247           60177                           AD       HOLDNO
002278: 16,2250           75473                           MSK      C3A
002279: 16,2251           60074                           AD       R2
002280: 16,2252           54074                           TS       R2
002281: 16,2253           34003                           CA       ONE
002282: 16,2254           54175                           TS       EIGHTH
002283: 16,2255           07446                           TC       UPDISPLA
002284: 16,2256           40110        WRITEIT            CS       TEMP1L
002285: 16,2257           64013                           AD       ENTRCDEL


002287: 16,2260           10000                           CCS      A
002288: 16,2261           04435                           TC       OPERROR
002289: 16,2262           04435                           TC       OPERROR
002290: 16,2263           04435                           TC       OPERROR
002291: 16,2264           02215                           TC       EXITLLL
002292: 16,2265           34003        LDPN5              CA       ONE
002293: 16,2266           54201                           TS       PUNCH5
002294: 16,2267           02044                           TC       SETSW
002295: 16,2270           30110        TRPACBNK           CA       TEMP1L
002296: 16,2271           74360                           MSK      MASKBA
002297: 16,2272           54177                           TS       HOLDNO
002298: 16,2273           30202                           CA       LDFBLL
002299: 16,2274           10000                           CCS      A
002300: 16,2275           02277                           TC       FBKPR
002301: 16,2276           02335                           TC       EBKPR
002302: 16,2277           54202        FBKPR              TS       LDFBLL
002303: 16,2300           30177                           CA       HOLDNO
002304: 16,2301           60173                           AD       SIXTH
002305: 16,2302           54173                           TS       SIXTH
002306: 16,2303           10202                           CCS      LDFBLL
002307: 16,2304           02306                           TC       SHFBNK
002308: 16,2305           02315                           TC       TWOSH
002309: 16,2306           30173        SHFBNK             CA       SIXTH
002310: 16,2307           54022                           TS       CYL
002311: 16,2310           30022                           CA       CYL
002312: 16,2311           30022                           CA       CYL
002313: 16,2312           30022                           CA       CYL
002314: 16,2313           54173                           TS       SIXTH
002315: 16,2314           07446                           TC       UPDISPLA
002316: 16,2315           30173        TWOSH              CA       SIXTH
002317: 16,2316           54022                           TS       CYL
002318: 16,2317           30022                           CA       CYL
002319: 16,2320           30022                           CA       CYL
002320: 16,2321           30022                           CA       CYL
002321: 16,2322           30022                           CA       CYL
002322: 16,2323           30022                           CA       CYL
002323: 16,2324           30022                           CA       CYL
002324: 16,2325           30022                           CA       CYL
002325: 16,2326           30022                           CA       CYL
002326: 16,2327           30022                           CA       CYL
002327: 16,2330           30022                           CA       CYL
002328: 16,2331           54173                           TS       SIXTH
002329: 16,2332           10210                           CCS      PUNCH6
002330: 16,2333           02431                           TC       GTNXTBK
002331: 16,2334           07446                           TC       UPDISPLA
002332: 16,2335           10210        EBKPR              CCS      PUNCH6
002333: 16,2336           02366                           TC       GOTRPAC
002334: 16,2337           30203                           CA       LDEBLL
002335: 16,2340           10000                           CCS      A
002336: 16,2341           02343                           TC       EBKPRA
002337: 16,2342           02366                           TC       GOTRPAC
002338: 16,2343           54203        EBKPRA             TS       LDEBLL
002339: 16,2344           30177                           CA       HOLDNO
002340: 16,2345           60174                           AD       SEVENTH
002341: 16,2346           54174                           TS       SEVENTH
002342: 16,2347           10203                           CCS      LDEBLL
002343: 16,2350           02352                           TC       SHEBNK
002344: 16,2351           02361                           TC       TWOSHE


002346: 16,2352           30174        SHEBNK             CA       SEVENTH
002347: 16,2353           54022                           TS       CYL
002348: 16,2354           30022                           CA       CYL
002349: 16,2355           30022                           CA       CYL
002350: 16,2356           30022                           CA       CYL
002351: 16,2357           54174                           TS       SEVENTH
002352: 16,2360           07446                           TC       UPDISPLA
002353: 16,2361           30173        TWOSHE             CA       SIXTH
002354: 16,2362           60174                           AD       SEVENTH
002355: 16,2363           54073                           TS       R1
002356: 16,2364           54145                           TS       BBK
002357: 16,2365           07446                           TC       UPDISPLA
002358: 16,2366           40110        GOTRPAC            CS       TEMP1L
002359: 16,2367           64013                           AD       ENTRCDEL
002360: 16,2370           10000                           CCS      A
002361: 16,2371           04435                           TC       OPERROR
002362: 16,2372           04435                           TC       OPERROR
002363: 16,2373           04435                           TC       OPERROR
002364: 16,2374           10210                           CCS      PUNCH6
002365: 16,2375           02447                           TC       BLOBA
002366: 16,2376           32422                           CA       GOTOERR
002367: 16,2377           54204                           TS       TRXYB
002368: 16,2400           32423                           CA       GOTOSUC
002369: 16,2401           54205                           TS       TRYXB
002370: 16,2402           32424                           CA       XXX
002371: 16,2403           54206                           TS       TRXXB
002372: 16,2404           32425                           CA       YYY
002373: 16,2405           54207                           TS       TRYYB
002374: 16,2406           32430                           CA       ZZZ
002375: 16,2407           54017                           TS       BRUPT
002376: 16,2410           30174                           CA       SEVENTH
002377: 16,2411           74360                           MASK     MASKBA
002378: 16,2412           10000                           CCS      A
002379: 16,2413           02420                           TC       +5
002380: 16,2414           35475                           CA       OC10
002381: 16,2415           54141                           TS       EBCOUNT
002382: 16,2416           54142                           TS       FBCOUNT
002383: 16,2417           50017                           RESUME
002384: 16,2420           30007                           CA       ZEROS
002385: 16,2421           02415                           TC       -4
002386: 16,2422           30145        GOTOERR            CA       BBK
002387: 16,2423           54006        GOTOSUC            TS       BB
002388: 16,2424           07060        XXX                TC       PACTRNS
002389: 16,2425           05620        YYY                TC       SUCCESS
002390: 16,2426           00005        FIVE               OCT      00005
002391: 16,2427           05526        GOL                TC       V11
002392: 16,2430           00204        ZZZ                TC       TRXYB
002393: 16,2431           10172        GTNXTBK            CCS      ONETO5
002394: 16,2432           02437                           TC       +5
002395: 16,2433           30173                           CA       SIXTH
002396: 16,2434           54165                           TS       ACMFBK
002397: 16,2435           54074                           TS       R2
002398: 16,2436           07446                           TC       UPDISPLA
002399: 16,2437           30173                           CA       SIXTH
002400: 16,2440           54145                           TS       BBK
002401: 16,2441           54073                           TS       R1
002402: 16,2442           30007                           CA       ZEROS
002403: 16,2443           54172                           TS       ONETO5


002405: 16,2444           35472                           CA       C2A
002406: 16,2445           54202                           TS       LDFBLL


002409: 16,2446           07446                           TC       UPDISPLA
002410: 16,2447           32452        BLOBA              CA       FINKBKA
002411: 16,2450           54017                           TS       BRUPT
002412: 16,2451           50017                           RESUME
002413: 16,2452           07173        FINKBKA            TC       AMCHKLA


End of include-file SUPER_JOB.agc.  Parent file is MAIN.agc


