
Source Code


000002:                                                                                                  ## Copyright:   Public domain.
000003:                                                                                                  ## Filename:    ALARM_AND_ABORT.agc
000004:                                                                                                  ## Purpose:     A section of LUM69 revision 2.
000005:                                                                                                  ##              It is part of the reconstructed source code for the flown
000006:                                                                                                  ##              version of the flight software for the Lunar Module's (LM)
000007:                                                                                                  ##              Apollo Guidance Computer (AGC) for Apollo 10. The code has
000008:                                                                                                  ##              been recreated from a copy of Luminary revsion 069, using
000009:                                                                                                  ##              changes present in Luminary 099 which were described in
000010:                                                                                                  ##              Luminary memos 75 and 78. The code has been adapted such
000011:                                                                                                  ##              that the resulting bugger words exactly match those specified
000012:                                                                                                  ##              for LUM69 revision 2 in NASA drawing 2021152B, which gives
000013:                                                                                                  ##              relatively high confidence that the reconstruction is correct.
000014:                                                                                                  ## Reference:   pp. 1375-1378
000015:                                                                                                  ## Assembler:   yaYUL
000016:                                                                                                  ## Contact:     Ron Burkey <info@sandroid.org>.
000017:                                                                                                  ## Website:     www.ibiblio.org/apollo/index.html
000018:                                                                                                  ## Mod history: 2019-07-27 MAS  Created from Luminary 69.
000019:                                                                                                  ##              2021-05-30 ABS  OCT21103 -> OCT1103
000020:


000022:                                                                                                  #           THE FOLLOWING SUBROUTINE MAY BE CALLED TO DISPLAY A NON-ABORTIVE ALARM CONDITION. IT MAY BE CALLED
000023:                                                                                                  #  EITHER IN INTERRUPT OR UNDER EXECUTIVE CONTROL.
000024:
000025:                                                                                                  #  CALLING SEQUENCE IS AS FOLLOWS:
000026:                                                                                                  #                TC      ALARM
000027:                                                                                                  #                OCT     AAANN           ALARM NO. NN IN GENERAL AREA AAA.
000028:                                                                                                  #                                        (RETURNS HERE)
000029:
000030:    5567                                           BLOCK    02
000031:    4000                                           SETLOC   FFTAG7
000032:    4000                                           BANK
000033:
000034:    5567     0375                                  EBANK=   FAILREG
000035:
000036:    5567                                           COUNT*   $$/ALARM
000037:                                                                                                  #  ALARM TURNS ON THE PROGRAM ALARM LIGHT, BUT DOES NOT DISPLAY.
000038:
000039:    5567           00004        ALARM              INHINT
000040:
000041:    5570           30002                           CA       Q
000042:    5571           55363        ALARM2             TS       ALMCADR
000043:    5572           50002                           INDEX    Q
000044:    5573           30000                           CA       0
000045:    5574           54001        BORTENT            TS       L
000046:
000047:    5575           30006        PRIOENT            CA       BBANK
000048:    5576           00006                 +1        EXTEND
000049:    5577           04007                           ROR      SUPERBNK                              #  ADD SUPER BITS.
000050:    5600           55364                           TS       ALMCADR    +1
000051:
000052:    5601           30002        LARMENT            CA       Q                                     #  STORE RETURN FOR ALARM
000053:    5602           54061                           TS       ITEMP1
000054:
000055:    5603           10375        CHKFAIL1           CCS      FAILREG                               #  IS ANYTHING IN FAILREG
000056:    5604           15607                           TCF      CHKFAIL2                              #  YES TRY NEXT REG
000057:    5605           22375                           LXCH     FAILREG
000058:    5606           15621                           TCF      PROGLARM                              #  TURN ALARM LIGHT ON FOR FIRST ALARM
000059:
000060:    5607           10376        CHKFAIL2           CCS      FAILREG    +1
000061:    5610           15613                           TCF      FAIL3
000062:    5611           22376                           LXCH     FAILREG    +1
000063:    5612           15624                           TCF      MULTEXIT
000064:
000065:    5613           30377        FAIL3              CA       FAILREG    +2
000066:    5614           74733                           MASK     POSMAX
000067:    5615           10000                           CCS      A
000068:    5616           15630                           TCF      MULTFAIL
000069:    5617           22377                           LXCH     FAILREG    +2
000070:    5620           15624                           TCF      MULTEXIT
000071:


000073:
000074:    5621           41036        PROGLARM           CS       DSPTAB     +11D
000075:    5622           75642                           MASK     OCT40400
000076:    5623           27036                           ADS      DSPTAB     +11D
000077:
000078:    5624           56061        MULTEXIT           XCH      ITEMP1                                #  OBTAIN RETURN ADDRESS IN A
000079:    5625           00003                           RELINT
000080:    5626           50000                           INDEX    A
000081:    5627           00001                           TC       1
000082:
000083:    5630           30001        MULTFAIL           CA       L
000084:    5631           64735                           AD       BIT15
000085:    5632           54377                           TS       FAILREG    +2
000086:
000087:    5633           15624                           TCF      MULTEXIT
000088:
000089:                                                                                                  #  PRIOLARM DISPLAYS V05N09 VIA PRIODSPR WITH 3 RETURNS TO THE USER FROM THE ASTRONAUT AT CALL LOC +1,+2,+3 AND
000090:                                                                                                  #  AN IMMEDIATE RETURN TO THE USER AT CALL LOC +4.  EXAMPLE FOLLOWS,
000091:                                                                                                  #                CAF     OCTXX           ALARM CODE
000092:                                                                                                  #                TC      BANKCALL
000093:                                                                                                  #                CADR    PRIOLARM
000094:
000095:                                                                                                  #                ...     ...
000096:                                                                                                  #                ...     ...
000097:                                                                                                  #                ...     ...             ASTRONAUT RETURN
000098:                                                                                                  #                TC      PHASCHNG        IMMEDIATE RETURN TO USER.  RESTART
000099:                                                                                                  #                OCT     X.1             PHASE CHANGE FOR PRIO DISPLAY
000100:
000101: 10,3451                                           BANK     10
000102: 10,2000                                           SETLOC   DISPLAYS
000103: 10,2000                                           BANK
000104:
000105: 10,3451                                           COUNT*   $$/DSPLA
000106: 10,3451           00004        PRIOLARM           INHINT                                         #  * * * KEEP IN DISPLAY ROUTINES BANK
000107: 10,3452           54001                           TS       L                                     #  SAVE ALARM CODE
000108:
000109: 10,3453           30133                           CA       BUF2                                  #  2 CADR OF PRIOLARM USER
000110: 10,3454           55363                           TS       ALMCADR
000111: 10,3455           30134                           CA       BUF2       +1
000112: 10,3456           05576                           TC       PRIOENT    +1                         #  * LEAVE L ALONE
000113: 10,3457           77467        -2SEC              DEC      -200       B-14                       #  *** DONT MOVE
000114: 10,3460           35006                           CAF      V05N09
000115: 10,3461           12357                           TCF      PRIODSPR
000116:
000117:    5634                                           BLOCK    02
000118:    4000                                           SETLOC   FFTAG7
000119:    4000                                           BANK
000120:
000121:    5634                                           COUNT*   $$/ALARM
000122:    5634           00004        BAILOUT            INHINT
000123:    5635           30002                           CA       Q


000125:    5636           55363                           TS       ALMCADR
000126:
000127:    5637           50002                           INDEX    Q
000128:    5640           30000                           CAF      0
000129:    5641           05574                           TC       BORTENT
000130:    5642           40400        OCT40400           OCT      40400
000131:
000132:    5643           00004                           INHINT
000133:    5644           34752        WHIMPER            CA       TWO
000134:    5645           60005                           AD       Z
000135:    5646           54017                           TS       BRUPT
000136:    5647           50017                           RESUME
000137:    5650           04635                           TC       POSTJUMP                              #  RESUME SENDS CONTROL HERE
000138:    5651           12766                           CADR     ENEMA
000139:    5652           00004        POODOO             INHINT
000140:    5653           30002                           CA       Q
000141:    5654           55363        ABORT2             TS       ALMCADR
000142:    5655           50002                           INDEX    Q
000143:    5656           30000                           CAF      0
000144:    5657           05574                           TC       BORTENT
000145:    5660           77770        OCT77770           OCT      77770                                 #  DON'T MOVE
000146:
000147:    5661           34765                           CAF      OCT35                                 #  4.35SPOT FOR GOPOODOO
000148:    5662           54001                           TS       L
000149:    5663           40000                           COM
000150:    5664           52761                           DXCH     -PHASE4
000151:    5665           00004        GOPOODOO           INHINT
000152:    5666           30103                           CA       FLAGWRD7                              #  IS SERVICER CURRENTLY IN OPERATION?
000153:    5667           74746                           MASK     V37FLBIT
000154:    5670           10000                           CCS      A
000155:    5671           15675                           TCF      STRTIDLE
000156:    5672           04616                           TC       BANKCALL
000157:    5673           12643                           CADR     MR.KLEAN
000158:    5674           15644                           TCF      WHIMPER
000159:    5675           04635        STRTIDLE           TC       POSTJUMP                              #  PUT SERVICER INTO ITS "GROUND" STATE
000160:    5676           65711                           CADR     SERVIDLE                              #  AND PROCEED TO GOTOPOOH.
000161:    5677           00004        CCSHOLE            INHINT
000162:    5700           30002                           CA       Q
000163:    5701           05654                           TC       ABORT2
000164:    5702           01103        OCT1103            OCT      1103
000165:    5703           00004        CURTAINS           INHINT
000166:    5704           30002                           CA       Q
000167:    5705           05571                           TC       ALARM2
000168:    5706           00217        OCT217             OCT      00217
000169:    5707           01363                           TC       ALMCADR                               #  RETURN TO USER
000170:
000171:    5710           00004        BAILOUT1           INHINT
000172:    5711           53364                           DXCH     ALMCADR
000173:    5712           35734                           CAF      ADR40400
000174:    5713           54061        BOTHABRT           TS       ITEMP1


000176:    5714           50002                           INDEX    Q
000177:    5715           30000                           CAF      0
000178:    5716           54001                           TS       L
000179:    5717           15603                           TCF      CHKFAIL1
000180:    5720           00004        POODOO1            INHINT
000181:    5721           53364                           DXCH     ALMCADR
000182:    5722           35733                           CAF      ADR77770
000183:    5723           15713                           TCF      BOTHABRT
000184:
000185:    5724           00004        ALARM1             INHINT
000186:    5725           53364                           DXCH     ALMCADR
000187:    5726           00004        ALMNCADR           INHINT
000188:    5727           50002                           INDEX    Q
000189:    5730           30000                           CA       0
000190:    5731           54001                           TS       L
000191:    5732           15601                           TCF      LARMENT
000192:
000193:    5733           15660        ADR77770           TCF      OCT77770
000194:    5734           15642        ADR40400           TCF      OCT40400
000195:    5735     5155               DOALARM            EQUALS   ENDOFJOB
000196:
000197:                                                                                                  #  CALLING SEQUENCE FOR VARALARM
000198:                                                                                                  #                CAF     (ALARM)
000199:                                                                                                  #                TC      VARALARM
000200:
000201:                                                                                                  #  VARALARM TURNS ON PROGRAM ALARM LIGHT BUT DOES NOT DISPLAY
000202:
000203:    5735           00004        VARALARM           INHINT
000204:
000205:    5736           54001                           TS       L                                     #  SAVE USERS ALARM CODE
000206:
000207:    5737           30002                           CA       Q                                     #  SAVE USERS Q
000208:    5740           55363                           TS       ALMCADR
000209:
000210:    5741           05575                           TC       PRIOENT
000211:    5742           00014        OCT14              OCT      14                                    #  DONT MOVE
000212:
000213:    5743           01363                           TC       ALMCADR                               #  RETURN TO USER
000214:
000215:    5744     5644               ABORT              EQUALS   WHIMPER
000216:

End of include-file ALARM_AND_ABORT.agc.  Parent file is MAIN.agc


