
Source Code


000002:                                                                                                  ## Copyright:   Public domain.
000003:                                                                                                  ## Filename:    ALARM_AND_ABORT.agc
000004:                                                                                                  ## Purpose:     A section of LUM69 revision 2.
000005:                                                                                                  ##              It is part of the reconstructed source code for the flown
000006:                                                                                                  ##              version of the flight software for the Lunar Module's (LM)
000007:                                                                                                  ##              Apollo Guidance Computer (AGC) for Apollo 10. The code has
000008:                                                                                                  ##              been recreated from a copy of Luminary revsion 069, using
000009:                                                                                                  ##              changes present in Luminary 099 which were described in
000010:                                                                                                  ##              Luminary memos 75 and 78. The code has been adapted such
000011:                                                                                                  ##              that the resulting bugger words exactly match those specified
000012:                                                                                                  ##              for LUM69 revision 2 in NASA drawing 2021152B, which gives
000013:                                                                                                  ##              relatively high confidence that the reconstruction is correct.
000014:                                                                                                  ## Reference:   pp. 1375-1378
000015:                                                                                                  ## Assembler:   yaYUL
000016:                                                                                                  ## Contact:     Ron Burkey <info@sandroid.org>.
000017:                                                                                                  ## Website:     www.ibiblio.org/apollo/index.html
000018:                                                                                                  ## Mod history: 2019-07-27 MAS  Created from Luminary 69.
000019:


000021:                                                                                                  #           THE FOLLOWING SUBROUTINE MAY BE CALLED TO DISPLAY A NON-ABORTIVE ALARM CONDITION. IT MAY BE CALLED
000022:                                                                                                  #  EITHER IN INTERRUPT OR UNDER EXECUTIVE CONTROL.
000023:
000024:                                                                                                  #  CALLING SEQUENCE IS AS FOLLOWS:
000025:                                                                                                  #                TC      ALARM
000026:                                                                                                  #                OCT     AAANN           ALARM NO. NN IN GENERAL AREA AAA.
000027:                                                                                                  #                                        (RETURNS HERE)
000028:
000029:    5567                                           BLOCK    02
000030:    4000                                           SETLOC   FFTAG7
000031:    4000                                           BANK
000032:
000033:    5567     0375                                  EBANK=   FAILREG
000034:
000035:    5567                                           COUNT*   $$/ALARM
000036:                                                                                                  #  ALARM TURNS ON THE PROGRAM ALARM LIGHT, BUT DOES NOT DISPLAY.
000037:
000038:    5567           00004        ALARM              INHINT
000039:
000040:    5570           30002                           CA       Q
000041:    5571           55363        ALARM2             TS       ALMCADR
000042:    5572           50002                           INDEX    Q
000043:    5573           30000                           CA       0
000044:    5574           54001        BORTENT            TS       L
000045:
000046:    5575           30006        PRIOENT            CA       BBANK
000047:    5576           00006                 +1        EXTEND
000048:    5577           04007                           ROR      SUPERBNK                              #  ADD SUPER BITS.
000049:    5600           55364                           TS       ALMCADR    +1
000050:
000051:    5601           30002        LARMENT            CA       Q                                     #  STORE RETURN FOR ALARM
000052:    5602           54061                           TS       ITEMP1
000053:
000054:    5603           10375        CHKFAIL1           CCS      FAILREG                               #  IS ANYTHING IN FAILREG
000055:    5604           15607                           TCF      CHKFAIL2                              #  YES TRY NEXT REG
000056:    5605           22375                           LXCH     FAILREG
000057:    5606           15621                           TCF      PROGLARM                              #  TURN ALARM LIGHT ON FOR FIRST ALARM
000058:
000059:    5607           10376        CHKFAIL2           CCS      FAILREG    +1
000060:    5610           15613                           TCF      FAIL3
000061:    5611           22376                           LXCH     FAILREG    +1
000062:    5612           15624                           TCF      MULTEXIT
000063:
000064:    5613           30377        FAIL3              CA       FAILREG    +2
000065:    5614           74733                           MASK     POSMAX
000066:    5615           10000                           CCS      A
000067:    5616           15630                           TCF      MULTFAIL
000068:    5617           22377                           LXCH     FAILREG    +2
000069:    5620           15624                           TCF      MULTEXIT
000070:


000072:
000073:    5621           41036        PROGLARM           CS       DSPTAB     +11D
000074:    5622           75642                           MASK     OCT40400
000075:    5623           27036                           ADS      DSPTAB     +11D
000076:
000077:    5624           56061        MULTEXIT           XCH      ITEMP1                                #  OBTAIN RETURN ADDRESS IN A
000078:    5625           00003                           RELINT
000079:    5626           50000                           INDEX    A
000080:    5627           00001                           TC       1
000081:
000082:    5630           30001        MULTFAIL           CA       L
000083:    5631           64735                           AD       BIT15
000084:    5632           54377                           TS       FAILREG    +2
000085:
000086:    5633           15624                           TCF      MULTEXIT
000087:
000088:                                                                                                  #  PRIOLARM DISPLAYS V05N09 VIA PRIODSPR WITH 3 RETURNS TO THE USER FROM THE ASTRONAUT AT CALL LOC +1,+2,+3 AND
000089:                                                                                                  #  AN IMMEDIATE RETURN TO THE USER AT CALL LOC +4.  EXAMPLE FOLLOWS,
000090:                                                                                                  #                CAF     OCTXX           ALARM CODE
000091:                                                                                                  #                TC      BANKCALL
000092:                                                                                                  #                CADR    PRIOLARM
000093:
000094:                                                                                                  #                ...     ...
000095:                                                                                                  #                ...     ...
000096:                                                                                                  #                ...     ...             ASTRONAUT RETURN
000097:                                                                                                  #                TC      PHASCHNG        IMMEDIATE RETURN TO USER.  RESTART
000098:                                                                                                  #                OCT     X.1             PHASE CHANGE FOR PRIO DISPLAY
000099:
000100: 10,3451                                           BANK     10
000101: 10,2000                                           SETLOC   DISPLAYS
000102: 10,2000                                           BANK
000103:
000104: 10,3451                                           COUNT*   $$/DSPLA
000105: 10,3451           00004        PRIOLARM           INHINT                                         #  * * * KEEP IN DISPLAY ROUTINES BANK
000106: 10,3452           54001                           TS       L                                     #  SAVE ALARM CODE
000107:
000108: 10,3453           30133                           CA       BUF2                                  #  2 CADR OF PRIOLARM USER
000109: 10,3454           55363                           TS       ALMCADR
000110: 10,3455           30134                           CA       BUF2       +1
000111: 10,3456           05576                           TC       PRIOENT    +1                         #  * LEAVE L ALONE
000112: 10,3457           77467        -2SEC              DEC      -200       B-14                       #  *** DONT MOVE
000113: 10,3460           35006                           CAF      V05N09
000114: 10,3461           12357                           TCF      PRIODSPR
000115:
000116:    5634                                           BLOCK    02
000117:    4000                                           SETLOC   FFTAG7
000118:    4000                                           BANK
000119:
000120:    5634                                           COUNT*   $$/ALARM
000121:    5634           00004        BAILOUT            INHINT
000122:    5635           30002                           CA       Q


000124:    5636           55363                           TS       ALMCADR
000125:
000126:    5637           50002                           INDEX    Q
000127:    5640           30000                           CAF      0
000128:    5641           05574                           TC       BORTENT
000129:    5642           40400        OCT40400           OCT      40400
000130:
000131:    5643           00004                           INHINT
000132:    5644           34752        WHIMPER            CA       TWO
000133:    5645           60005                           AD       Z
000134:    5646           54017                           TS       BRUPT
000135:    5647           50017                           RESUME
000136:    5650           04635                           TC       POSTJUMP                              #  RESUME SENDS CONTROL HERE
000137:    5651           12766                           CADR     ENEMA
000138:    5652           00004        POODOO             INHINT
000139:    5653           30002                           CA       Q
000140:    5654           55363        ABORT2             TS       ALMCADR
000141:    5655           50002                           INDEX    Q
000142:    5656           30000                           CAF      0
000143:    5657           05574                           TC       BORTENT
000144:    5660           77770        OCT77770           OCT      77770                                 #  DON'T MOVE
000145:
000146:    5661           34765                           CAF      OCT35                                 #  4.35SPOT FOR GOPOODOO
000147:    5662           54001                           TS       L
000148:    5663           40000                           COM
000149:    5664           52761                           DXCH     -PHASE4
000150:    5665           00004        GOPOODOO           INHINT
000151:    5666           30103                           CA       FLAGWRD7                              #  IS SERVICER CURRENTLY IN OPERATION?
000152:    5667           74746                           MASK     V37FLBIT
000153:    5670           10000                           CCS      A
000154:    5671           15675                           TCF      STRTIDLE
000155:    5672           04616                           TC       BANKCALL
000156:    5673           12643                           CADR     MR.KLEAN
000157:    5674           15644                           TCF      WHIMPER
000158:    5675           04635        STRTIDLE           TC       POSTJUMP                              #  PUT SERVICER INTO ITS "GROUND" STATE
000159:    5676           65711                           CADR     SERVIDLE                              #  AND PROCEED TO GOTOPOOH.
000160:    5677           00004        CCSHOLE            INHINT
000161:    5700           30002                           CA       Q
000162:    5701           05654                           TC       ABORT2
000163:    5702           01103        OCT21103           OCT      1103
000164:    5703           00004        CURTAINS           INHINT
000165:    5704           30002                           CA       Q
000166:    5705           05571                           TC       ALARM2
000167:    5706           00217        OCT217             OCT      00217
000168:    5707           01363                           TC       ALMCADR                               #  RETURN TO USER
000169:
000170:    5710           00004        BAILOUT1           INHINT
000171:    5711           53364                           DXCH     ALMCADR
000172:    5712           35734                           CAF      ADR40400
000173:    5713           54061        BOTHABRT           TS       ITEMP1


000175:    5714           50002                           INDEX    Q
000176:    5715           30000                           CAF      0
000177:    5716           54001                           TS       L
000178:    5717           15603                           TCF      CHKFAIL1
000179:    5720           00004        POODOO1            INHINT
000180:    5721           53364                           DXCH     ALMCADR
000181:    5722           35733                           CAF      ADR77770
000182:    5723           15713                           TCF      BOTHABRT
000183:
000184:    5724           00004        ALARM1             INHINT
000185:    5725           53364                           DXCH     ALMCADR
000186:    5726           00004        ALMNCADR           INHINT
000187:    5727           50002                           INDEX    Q
000188:    5730           30000                           CA       0
000189:    5731           54001                           TS       L
000190:    5732           15601                           TCF      LARMENT
000191:
000192:    5733           15660        ADR77770           TCF      OCT77770
000193:    5734           15642        ADR40400           TCF      OCT40400
000194:    5735     5155               DOALARM            EQUALS   ENDOFJOB
000195:
000196:                                                                                                  #  CALLING SEQUENCE FOR VARALARM
000197:                                                                                                  #                CAF     (ALARM)
000198:                                                                                                  #                TC      VARALARM
000199:
000200:                                                                                                  #  VARALARM TURNS ON PROGRAM ALARM LIGHT BUT DOES NOT DISPLAY
000201:
000202:    5735           00004        VARALARM           INHINT
000203:
000204:    5736           54001                           TS       L                                     #  SAVE USERS ALARM CODE
000205:
000206:    5737           30002                           CA       Q                                     #  SAVE USERS Q
000207:    5740           55363                           TS       ALMCADR
000208:
000209:    5741           05575                           TC       PRIOENT
000210:    5742           00014        OCT14              OCT      14                                    #  DONT MOVE
000211:
000212:    5743           01363                           TC       ALMCADR                               #  RETURN TO USER
000213:
000214:    5744     5644               ABORT              EQUALS   WHIMPER
000215:

End of include-file ALARM_AND_ABORT.agc.  Parent file is MAIN.agc


