
Source Code


000002:                                                                                                  ## Copyright:   Public domain.
000003:                                                                                                  ## Filename:    DAPIDLER_PROGRAM.agc
000004:                                                                                                  ## Purpose:     A section of LUM69 revision 2.
000005:                                                                                                  ##              It is part of the reconstructed source code for the flown
000006:                                                                                                  ##              version of the flight software for the Lunar Module's (LM)
000007:                                                                                                  ##              Apollo Guidance Computer (AGC) for Apollo 10. The code has
000008:                                                                                                  ##              been recreated from a copy of Luminary revsion 069, using
000009:                                                                                                  ##              changes present in Luminary 099 which were described in
000010:                                                                                                  ##              Luminary memos 75 and 78. The code has been adapted such
000011:                                                                                                  ##              that the resulting bugger words exactly match those specified
000012:                                                                                                  ##              for LUM69 revision 2 in NASA drawing 2021152B, which gives
000013:                                                                                                  ##              relatively high confidence that the reconstruction is correct.
000014:                                                                                                  ## Reference:   pp. 1405-1415
000015:                                                                                                  ## Assembler:   yaYUL
000016:                                                                                                  ## Contact:     Ron Burkey <info@sandroid.org>.
000017:                                                                                                  ## Website:     www.ibiblio.org/apollo/index.html
000018:                                                                                                  ## Mod history: 2019-07-27 MAS  Created from Luminary 69.
000019:


000021:                                                                                                  #  THE DAPIDLER PROGRAM IS STARTED BY FRESH START AND RESTART.  THE DAPIDLER PROGRAM IS DONE 10 TIMES
000022:                                                                                                  #  PER SECOND UNTIL THE ASTRONAUT DESIRES THE DAP TO WAKE UP, AND THE IMU AND CDUS ARE READY FOR USE BY THE DAP.
000023:                                                                                                  #  THE NECESSARY INITIALIZATION OF THE DAP IS DONE BY THE DAPIDLER PROGRAM.
000024:
000025: 16,2000                                           BANK     16
000026: 16,2000                                           SETLOC   DAPS1
000027: 16,2000                                           BANK
000028:
000029: 16,2000  E6,1537                                  EBANK=   AOSQ
000030:
000031: 16,2000                                           COUNT*   $$/DAPID
000032:
000033: 16,2000           00006        CHEKBITS           EXTEND
000034: 16,2001           00031                           READ     CHAN31                                #  IF BOTH BIT13 AND BIT14 ARE ONE, THEN
000035: 16,2002           40000                           COM                                            #  THE MODE SELECT SWITCH IS IN THE OFF
000036: 16,2003           74355                           MASK     BIT13-14                              #  POSITION, AND SO THE DAP SHOULD BE OFF,
000037: 16,2004           00006                           EXTEND                                         #  WITH NO ATTITUDE ERROR DISPLAY.
000038: 16,2005           12154                           BZF      MOREIDLE
000039:
000040: 16,2006           41303                           CS       IMODES33
000041: 16,2007           74746                           MASK     BIT6
000042: 16,2010           10000                           CCS      A
000043: 16,2011           12203                           TCF      JUMPDSP
000044: 16,2012           41273                           CS       RCSFLAGS                              #  IMU NOT USABLE.  SET UP INITIALIZATION
000045: 16,2013           74751                           MASK     BIT3                                  #  FLAG FOR ATT ERROR DISPLAY ROUTINE.
000046: 16,2014           27273                           ADS      RCSFLAGS
000047: 16,2015           12160                           TCF      SHUTDOWN
000048:
000049: 16,2016           34742        CHEKMORE           CAF      BIT10                                 #  BIT 10 OF 30 IS PGNCS CONTROL OF S/C
000050: 16,2017           00006                           EXTEND
000051: 16,2020           02030                           RAND     CHAN30                                #  BITS IN 30 ARE INVERTED
000052: 16,2021           10000                           CCS      A
000053: 16,2022           12154                           TCF      MOREIDLE
000054:
000055: 16,2023           00002                           RETURN
000056:


000058:                                                                                                  #  DAPIDLER ENTRY.
000059:
000060: 16,2024           22016        DAPIDLER           LXCH     BANKRUPT                              #  INTERRUPT LEAD INS (CONTINUED)
000061: 16,2025           00006                           EXTEND
000062: 16,2026           22012                           QXCH     QRUPT
000063:
000064: 16,2027           31273                           CA       RCSFLAGS
000065: 16,2030           74737                           MASK     BIT13
000066: 16,2031           10000                           CCS      A                                     #  CHECK IF 1/ACCJOB HAS BEEN SET UP SINCE
000067: 16,2032           12041                           TCF      CHECKUP                               #  THE LAST FRESH START OR RESTART.
000068: 16,2033           34737                           CA       BIT13
000069: 16,2034           27273                           ADS      RCSFLAGS                              #  BIT 13 IS 1.
000070: 16,2035           37714                           CAF      PRIO27
000071: 16,2036           05072                           TC       NOVAC                                 #  SET UP JOB TO DO A LITTLE INITIALIZATION
000072: 16,2037  E6,1537                                  EBANK=   AOSQ                                  #        AND EXECUTE 1/ACCS.
000073: 16,2037           02447 40106                     2CADR    1/ACCSET                              #  (WILL BRANCH TO MOREIDLE ON ACCSOKAY)
000074:
000075: 16,2041           02000        CHECKUP            TC       CHEKBITS                              #  CHECK TO SEE IF LM DAP IS TO GO ON AND
000076:                                                                                                  #        DO ERROR DISPLAY.
000077:
000078: 16,2042           30111                           CAE      DAPBOOLS                              #  IF 1/ACCS HAS NOT BEEN COMPLETED, IDLE.
000079: 16,2043           74751                           MASK     ACCSOKAY                              #        NOTE:   ONLY FRESH START AND RESTART
000080: 16,2044           00006                           EXTEND                                         #                KNOCK THIS BIT DOWN.
000081: 16,2045           12154                           BZF      MOREIDLE
000082:
000083: 16,2046           04674        STARTDAP           TC       IBNKCALL                              #  ZERO ATTITUDE ERROR AND DESIRED RATES.
000084: 16,2047           40153                           FCADR    ZATTEROR
000085: 16,2050           34755                           CAF      ZERO                                  #  ********** INITIALIZE: **********
000086: 16,2051           55524                           TS       TJP
000087: 16,2052           55525                           TS       TJU
000088: 16,2053           55526                           TS       TJV
000089: 16,2054           55417                           TS       OMEGAP                                #  RATES IN BODY (PILOT) COORDINATES.
000090: 16,2055           55420                           TS       OMEGAQ
000091: 16,2056           55421                           TS       OMEGAR
000092: 16,2057           55426                           TS       TRAPEDP
000093: 16,2060           55427                           TS       TRAPEDQ
000094: 16,2061           55430                           TS       TRAPEDR
000095: 16,2062           55537                           TS       AOSQ                                  #  OFFSET ACCELERATION ESTIMATES.
000096: 16,2063           55540                           TS       AOSQ       +1
000097: 16,2064           55541                           TS       AOSR
000098: 16,2065           55542                           TS       AOSR       +1
000099: 16,2066           55422                           TS       ALPHAQ                                #  COPIES OF OFFSET ESTIMATES FOR DOWNLIST.
000100: 16,2067           55423                           TS       ALPHAR
000101: 16,2070           55500                           TS       NEGUQ
000102: 16,2071           55502                           TS       NEGUR
000103: 16,2072           55545                           TS       AOSQTERM                              #  QRAXIS RATE DERIVATION TERMS AND KALMAN
000104: 16,2073           55546                           TS       AOSRTERM                              #  FILTER INITIALIZATION TERMS.
000105: 16,2074           55510                           TS       QACCDOT                               #  DESCENT ACCELERATION DERIVATIVE EST.
000106: 16,2075           55512                           TS       RACCDOT


000108: 16,2076           55501                           TS       ALLOWGTS                              #  AOSTASK FLAG FOR QRAXIS RCS CONTROL USE.
000109: 16,2077           55627                           TS       COTROLER                              #  DO TRYGTS ON FIRST PASS (WILL GO TO RCS)
000110: 16,2100           55631                           TS       INGTS                                 #  RECOGNIZE FIRST GTS PASS AS SUCH.
000111: 16,2101           55630                           TS       QGIMTIMR                              #  STOP GIMBAL DRIVES.  (PROBABLY WOULD BE
000112: 16,2102           55632                           TS       RGIMTIMR                              #        GOOD ENOUGH JUST TO INACTIVATE TIMERS)
000113: 16,2103           55456                           TS       OLDPMIN                               #  MINIMUM IMPULSE MODE ERASABLES
000114: 16,2104           55457                           TS       OLDQRMIN
000115: 16,2105     4747               CALLGMBL           EQUALS   BIT5                                  #  RCSFLAGS INITIALIZATION.
000116: 16,2105           42177                           CS       MANFLAG
000117: 16,2106           71273                           MASK     RCSFLAGS                              #  NEGUQ(R) HAVE BEEN GENERATED.
000118: 16,2107           55273                           TS       RCSFLAGS
000119:
000120:                                                                                                  #  SET UP "OLD" MEASURED CDU ANGLES:
000121:
000122: 16,2110           00006                           EXTEND
000123: 16,2111           30033                           DCA      CDUX                                  #  OLDXFORP AND OLDYFORP
000124: 16,2112           53437                           DXCH     OLDXFORP
000125: 16,2113           30034                           CA       CDUZ
000126: 16,2114           55440                           TS       OLDZFORQ
000127: 16,2115           41273                           CS       RCSFLAGS
000128: 16,2116           74740                           MASK     BIT12
000129: 16,2117           27273                           ADS      RCSFLAGS                              #  BIT 12 SET TO 1.
000130: 16,2120           34751                           CA       FOUR
000131: 16,2121           55535                           TS       SKIPU
000132: 16,2122           55536                           TS       SKIPV
000133: 16,2123           34733                           CA       POSMAX
000134: 16,2124           54031                           TS       TIME6
000135: 16,2125           55464                           TS       T6NEXT
000136: 16,2126           55466                           TS       T6FURTHA
000137: 16,2127           34755                           CA       ZERO
000138: 16,2130           55465                           TS       T6NEXT     +1
000139: 16,2131           55467                           TS       T6FURTHA   +1
000140: 16,2132           55463                           TS       NXT6ADR
000141: 16,2133           55470                           TS       NEXTP
000142: 16,2134           55471                           TS       NEXTU
000143: 16,2135           55472                           TS       NEXTV
000144: 16,2136           44363                           CS       TEN
000145: 16,2137           55755                           TS       DAPZRUPT                              #  JASK NOT IN PROGRESS, INITIALIZE NEG.
000146: 16,2140           34752                           CA       TWO
000147: 16,2141           55431                           TS       NPTRAPS
000148: 16,2142           55432                           TS       NQTRAPS
000149: 16,2143           55433                           TS       NRTRAPS
000150: 16,2144           00006                           EXTEND
000151: 16,2145           32202                           DCA      PAXADIDL
000152: 16,2146           53275                           DXCH     T5ADR
000153: 16,2147           37726        SETTIME5           CAF      MS100
000154: 16,2150           54030                           TS       TIME5
000155: 16,2151           15270                           TCF      RESUME
000156: 16,2152  E6,1537                                  EBANK=   AOSQ
000157: 16,2152           02024 34106  IDLERADR           2CADR    DAPIDLER


000159: 16,2154           04674        MOREIDLE           TC       IBNKCALL                              #  CALCULATE Q,R-AXES ATTITUDE ERRORS.
000160: 16,2155           36563                           CADR     QERRCALC
000161:
000162: 16,2156           04674                           TC       IBNKCALL
000163: 16,2157           35425                           CADR     CALCPERR                              #  CALCULATE P AXIS ATTITUDE ERRORS.
000164:
000165: 16,2160           00006        SHUTDOWN           EXTEND
000166: 16,2161           32153                           DCA      IDLERADR
000167: 16,2162           53275                           DXCH     T5ADR
000168:
000169: 16,2163           34755                           CAF      ZERO                                  #  KILL ANY POSSIBLE JET REQUESTS
000170: 16,2164           55470                           TS       NEXTP
000171: 16,2165           55471                           TS       NEXTU
000172: 16,2166           55472                           TS       NEXTV
000173: 16,2167           00006                           EXTEND                                         #  COMMAND JETS OFF.
000174: 16,2170           01005                           WRITE    CHAN5
000175: 16,2171           00006                           EXTEND
000176: 16,2172           01006                           WRITE    CHAN6
000177: 16,2173           42200                           CS       BGIM23                                #  TURN TRIM GIMBAL OFF
000178: 16,2174           00006                           EXTEND
000179: 16,2175           03012                           WAND     CHAN12
000180: 16,2176           12147                           TCF      SETTIME5                              #  RETURN IN 100 MSEC.
000181:
000182: 16,2177           03021        MANFLAG            OCT      03021
000183: 16,2200           07400        BGIM23             OCTAL    07400
000184: 16,2201  E6,1417                                  EBANK=   OMEGAP
000185: 16,2201           02210 34106  PAXADIDL           2CADR    PAXIS
000186:
000187: 16,2203     7726               MS100              =        OCT37766
000188: 16,2203     0061               COSMG              =        ITEMP1
000189: 16,2203           00006        JUMPDSP            EXTEND                                         #  TRANSFER TO BANK 20
000190: 16,2204           32207                           DCA      DSPCADR                               #  FOR ATTITUDE ERROR DISPLAYS
000191: 16,2205           52006                           DTCB
000192:
000193: 16,2206  E6,1757                                  EBANK=   AK
000194: 16,2206           02226 40106  DSPCADR            2CADR    ALTDSPLY
000195:


000197: 20,2226                                           BANK     20
000198: 20,2000                                           SETLOC   DAPS3
000199: 20,2000                                           BANK
000200: 20,2226                                           COUNT*   $$/NEEDL
000201:
000202:                                                                                                  #  PROGRAM:      ALTDSPLY
000203:                                                                                                  #  MOD 0.        6 DEC 1967
000204:                                                                                                  #  AUTHOR:       CRAIG WORK, DON KEENE, MIT IL
000205:                                                                                                  #  MOD 3 BY DON KEENE AUG 1, 1968 MOVED PROGRAM TO BANK 20
000206:
000207:                                                                                                  #  PROGRAM DESCRIPTION:
000208:                                                                                                  #        ALTDSPLY REVERSES THE DSPLYALT BIT OF RCSFLAGS EACH TIME IT IS CALLED, WHICH IS PRESUMABLY EVERY 100 MS.
000209:                                                                                                  #        IF THE REVERSED BIT IS ONE, NEEDLER IS CALLED TO DISPLAY ATTITUDE ERRORS.  IF THE BIT IS ZERO, THE ATTITUDE ERR-
000210:                                                                                                  #        ORS ARE CALCULATED AS 1) DAP FOLLOWING ERRORS, IF NEEDLFLG = 0, AND 2) TOTAL ATTITUDE ERRORS FOR NEEDLFLG = 1.
000211:
000212:
000213:                                                                                                  #  WARNING:      ALTDSPLY MAY ONLY BE CALLED WITH INTERRUPT INHIBITED.
000214:
000215:                                                                                                  #  WARNING:      EBANK MUST BE SET TO 6 WHEN USING THIS ROUTINE.
000216:
000217:                                                                                                  #  INPUT:        RCSFLAGS AND    1) IF NEEDLFLG = 0, INPUT PERROR, QERROR, RERROR.
000218:                                                                                                  #                                2) IF NEEDLFLG = 1, INPUT CPHI,CTHETA,CPSI,CDUX,CDUY,CDUZ,M11,M21,M31,M22,M32.  (GPMATRIX)
000219:
000220:
000221:                                                                                                  #  OUTPUTS:      RCSFLAGS WITH DSPLYALT REVERSED, AK, AK1, AK2, + NEEDLER OUTPUTS.
000222:
000223:                                                                                                  #  ENTRY:        TCF     ALTDSPLY
000224:
000225:                                                                                                  #  EXIT:         TCF     CHEKMORE
000226:
000227:                                                                                                  #  ALARM OR ABORT EXITS: NONE
000228:
000229:                                                                                                  #  SUBPROGRAMS CALLED:  NEEDLER, OVERSUB2
000230:
000231:                                                                                                  #  DEBRIS:       A, L, AND NEEDLER DEBRIS.
000232:
000233: 20,2226           31273        ALTDSPLY           CA       RCSFLAGS                              #  INVERT THE DISPLAY ALTERNATION BIT.
000234: 20,2227           54001                           TS       L
000235: 20,2230           34750                           CA       DSPLYALT
000236: 20,2231           00006                           EXTEND
000237: 20,2232           06001                           RXOR     LCHAN
000238: 20,2233           55273                           TS       RCSFLAGS
000239:
000240: 20,2234           74750                           MASK     DSPLYALT
000241: 20,2235           10000                           CCS      A                                     #  IS ALTERNATION FLAG ZERO?
000242: 20,2236           12322                           TCF      NEEDLER
000243:
000244: 20,2237           30074                           CAE      FLAGWRD0                              #  NEEDLFLG WILL INDICATE TOTAL OR DAP AT-


000246: 20,2240           74750                           MASK     NEEDLBIT                              #  TITUDE ERROR DISPLAY REQUEST.
000247: 20,2241           10000                           CCS      A
000248: 20,2242           12252                           TCF      DSPLYTOT                              #  TOTAL ERROR IS NEEDED IN AK, AK +1, AK +2
000249:
000250: 20,2243           41446                           CS       QERROR                                #  YES.  DISPLAY ATT ERRORS ON THE ,-BALL.
000251: 20,2244           55760                           TS       AK         +1                         #  ERROR COMPLEMENTS ARE INPUT TO NEEDLER.
000252: 20,2245           41450                           CS       RERROR
000253: 20,2246           55761                           TS       AK         +2
000254: 20,2247           41462                           CS       PERROR
000255: 20,2250           57757                           XCH      AK
000256:
000257: 20,2251           12442                           TCF      RETNMORE                              #  DISPLAY THESE THE NEXT TIME THROUGH
000258:
000259:                                                                                                  #  CALCULATE GIMBAL ANGLE TOTAL ERRORS, RESOLVE INTO PILOT AXES, STORE TOTAL ERRORS FOR NEEDLER.  Q-AXIS FIRST.
000260:
000261: 20,2252           00006        DSPLYTOT           EXTEND
000262: 20,2253           22061                           QXCH     ITEMP1                                #  SAVE Q FOR CHEKBITS RETURN.
000263:
000264: 20,2254           30322                           CA       CTHETA                                #  DESIRED ATTITUDE, Y-AXIS, 2'S COMP.
000265: 20,2255           00006                           EXTEND                                         #  SUBTRACT CURRENT ATTITUDE.
000266: 20,2256           20033                           MSU      CDUY                                  #  DIFFERENCE SCALED AT PI, 1'S COMP.
000267: 20,2257           55757                           TS       AK                                    #  SAVE FOR R-ERROR CALCULATION.
000268: 20,2260           00006                           EXTEND
000269: 20,2261           71413                           MP       M21                                   #  (CHTETA-CDUY)*M21 SCALED AT PI RADIANS.
000270: 20,2262           57760                           XCH      AK         +1                         #  STORE FIRST TERM OF Q ERROR.
000271: 20,2263           30323                           CA       CPSI                                  #  DESIRED ATTITUDE, Z-AXIS, 2'S COMP.
000272: 20,2264           00006                           EXTEND                                         #  SUBTRACT CURRENT ATTITUDE.
000273: 20,2265           20034                           MSU      CDUZ                                  #  DIFFERENCE SCALED AT PI, 1'S COMP.
000274: 20,2266           55761                           TS       AK         +2                         #  SAVE Z-AXIS TERM FOR R ERROR CALCULATION
000275: 20,2267           00006                           EXTEND
000276: 20,2270           71415                           MP       M22                                   #  (CPSI-CDUZ)*M22, SCALED AT PI RADIANS.
000277: 20,2271           61760                           AD       AK         +1                         #  Q ERROR COMPLETE         , AT PI RAD.
000278: 20,2272           02435                           TC       OVERSUB2                              #  PIN NEEDLES IN CASE OF OVERFLOW.
000279: 20,2273           55760                           TS       AK         +1
000280:
000281:                                                                                                  #  R ERROR CALCULATION NEXT.
000282:
000283: 20,2274           31757                           CA       AK                                    #  Y-AXIS DIFFERENCE STORED BY Q-AXIS CALC.
000284: 20,2275           00006                           EXTEND
000285: 20,2276           71414                           MP       M31                                   #  (CTHETA-CDUY)*M31, SCALED AT PI RADIANS.
000286: 20,2277           57761                           XCH      AK         +2                         #  FIRST TERM OF R ERROR.
000287:                                                                                                  #  Z-AXIS DIFFERENCE, STORED BY A CALC. IS
000288: 20,2300           00006                           EXTEND                                         #  RECOVERED BY THE EXCHANGE.
000289: 20,2301           71416                           MP       M32                                   #  (CPSI-CDUZ)*M32, SCALED AT PI RADIANS.
000290: 20,2302           61761                           AD       AK         +2                         #  R ERROR COMPLETE         , AT PI RAD.
000291: 20,2303           02435                           TC       OVERSUB2                              #  PIN NEEDLES IN CASE OF OVERFLOW.
000292: 20,2304           55761                           TS       AK         +2
000293:
000294:                                                                                                  #  NOW CALCULATE P ERROR.  (NOTE THAT M13 = 1, SCALED AT 1, SO THE MULTIPLICATION IS BY-PASSED.)


000296: 20,2305           31757                           CA       AK                                    #  Y-AXIS DIFFERENCE STORED BY Q AXIS CALC.
000297: 20,2306           00006                           EXTEND
000298: 20,2307           71412                           MP       M11                                   #  (CTHETA-CDUY)*M11 SCALED AT PI RADIANS.
000299: 20,2310           57757                           XCH      AK                                    #  FIRST TERM OF P ERROR IN AK, AT PI RAD.
000300: 20,2311           30321                           CAE      CPHI                                  #  DESIRED ATTITUDE, X-AXIS, 2'S COMP.
000301: 20,2312           00006                           EXTEND                                         #  SUBTRACT CURRENT X ATTITUDE.
000302: 20,2313           20032                           MSU      CDUX                                  #  X-AXIS DIFFERENCE, 1'S COMP, AT PI RAD.
000303:
000304:                                                                                                  #  M13 = 1, SO BYPASS THE MULTIPLICATION.
000305:                                                                                                  #                EXTEND
000306:                                                                                                  #                MP      M13             (CPHI-CDUX)*M13 SCALED AT PI RADIANS.
000307:
000308: 20,2314           61757                           AD       AK                                    #  P ERROR COMPLETE      , SCALED AT PI RAD
000309: 20,2315           02435                           TC       OVERSUB2                              #  PIN NEEDLES IN CASE OF OVERFLOW.
000310: 20,2316           55757                           TS       AK
000311:
000312: 20,2317           00006                           EXTEND
000313: 20,2320           22061                           QXCH     ITEMP1                                #  RESTORE Q FOR CHEKBITS RETURN.
000314:
000315: 20,2321           12442                           TCF      RETNMORE                              #  DISPLAY THESE THE NEXT TIME THROUGH
000316:


000318:                                                                                                  #  FDAI ATTITUDE ERROR DISPLAY SUBROUTINE
000319:
000320:                                                                                                  #  PROGRAM DESCRIPTION:          D. KEENE        5/24/67
000321:                                                                                                  #  MOD 1 BY CRAIG WORK, 12 DEC 67
000322:                                                                                                  #  MOD 2 BY CRAIG WORK, 6 APRIL 68 CONVERTS ATTITUDE ERROR DISPLAY SCALING FROM 16 7/8 DEG. TO 42 3/16 DEGREES.
000323:
000324:                                                                                                  #  THIS SUBROUTINE IS USED TO DISPLAY ATTITUDE ERRORS ON THE FDAI VIA THE DIGITAL TO ANALOG CONVERTERS (DACS)
000325:                                                                                                  #  IN THE CDUS.  CARE IS TAKEN TO METER OUT THE APPROPRIATE NUMBER OF PULSES TO THE IMU ERROR COUNTERS AND PREVENT
000326:                                                                                                  #  OVERFLOW, TO CONTROL THE RELAY SEQUENCING, AND TO AVOID INTERFERENCE WITH THE COARSE ALIGN LOOP WHICH ALSO USES
000327:                                                                                                  #  THE DACS.
000328:
000329:                                                                                                  #  CALLING SEQUENCE:
000330:                                                                                                  #        DURING THE INITIALIZATION SECTION OF THE USER'S PROGRAM, BIT3 OF RCSFLAGS SHOULD BE SET TO INITIATE THE
000331:                                                                                                  #        TURN-ON SEQUENCE WITHIN THE NEEDLES PROGRAM:
000332:                                                                                                  #                CS      RCSFLAGS        IN EBANK6
000333:                                                                                                  #                MASK    BIT3
000334:                                                                                                  #                ADS     RCSFLAGS
000335:                                                                                                  #        THEREAFTER, THE ATTITUDE ERRORS GENERATED BY THE USER SHOULD BE TRANSFERED TO THE FOLLOWING LOCATIONS IN EBANK6:
000336:                                                                                                  #                AK      SCALED 180 DEGREES      NOTE:   THESE LOCATIONS ARE SUBJECT
000337:                                                                                                  #                AK1     SCALED 180 DEGREES              TO CHANGE
000338:                                                                                                  #                AK2     SCALED 180 DEGREES
000339:                                                                                                  #        FULL SCALED DEFLECTION OF THE NEEDLES CORRESPONDS TO 5 1/16 DEGREES, WHILE 384 BITS IN THE IMU ERROR COUNTER
000340:                                                                                                  #        CORRESPONDS TO 42 3/16 DEGREES.  (DAC MAXIMUM CAPACITY IS 384 BITS.)  46 BITS EFFECTIVELY PIN THE NEEDLES.
000341:
000342:                                                                                                  #        A CALL TO NEEDLER WILL THEN UPDATE THE DISPLAY:
000343:                                                                                                  #                INHINT
000344:                                                                                                  #                TC      IBNKCALL        NOTE:  EBANK SHOULD BE SET TO E6
000345:                                                                                                  #                CADR    NEEDLER
000346:                                                                                                  #                RELINT
000347:                                                                                                  #        THIS PROCESS SHOULD BE REPEATED EACH TIME THE ERRORS ARE UPDATED.  AT LEAST 3 PASSES THRU THE PROGRAM ARE
000348:                                                                                                  #        REQUIRED BEFORE ANYTHING IS ACTUALLY DISPLAYED ON THE ERROR METERS.
000349:                                                                                                  #        NOTE:  EACH CALL TO NEEDLER MUST BE SEPARATED BY AT LEAST 50 MS TO ASSURE PROPER RELAY SEQUENCING.
000350:
000351:                                                                                                  #  ERASABLE USED:
000352:                                                                                                  #        AK              CDUXCMD
000353:                                                                                                  #        AK1             CDUYCMD
000354:                                                                                                  #        AK2             CDUZCMD
000355:                                                                                                  #        EDRIVEX         A,L,Q
000356:                                                                                                  #        EDRIVEY         T5TEMP
000357:                                                                                                  #        EDRIVEZ         DINDX


000359:
000360:                                                                                                  #  SWITCHES:             RCSFLAGS  BITS 3,2
000361:
000362:                                                                                                  #  I/O CHANNELS:         CHAN12  BIT 4 (COARSE ALIGN - READ ONLY)
000363:                                                                                                  #                        CHAN12  BIT 6 (IMU ERROR COUNTER ENABLE)
000364:                                                                                                  #                        CHAN14  BIT 13,14,15 (DAC ACTIVITY)
000365:
000366:                                                                                                  #  SIGN CONVENTION<      AK = THETAC - THETA
000367:                                                                                                  #                        WHERE   THETAC = COMMAND ANGLE
000368:                                                                                                  #                                THETA = PRESENT ANGLE
000369:
000370: 20,2322           31273        NEEDLER            CA       RCSFLAGS
000371: 20,2323           76241                           MASK     SIX
000372: 20,2324           00006                           EXTEND
000373: 20,2325           12362                           BZF      NEEDLES3
000374: 20,2326           74751                           MASK     BIT3
000375: 20,2327           00006                           EXTEND
000376: 20,2330           12353                           BZF      NEEDLER2                              #  BIT3 = 0, BIT2 = 1
000377:
000378: 20,2331           44746                           CS       BIT6                                  #  FIRST PASS BIT3 = 1
000379: 20,2332           00006                           EXTEND                                         #  DISABLE IMU ERROR COUNTER TO ZERO DACS
000380: 20,2333           03012                           WAND     CHAN12                                #  MUST WAIT AT LEAST 60 MS BEFORE
000381: 20,2334           44755        NEEDLE11           CS       ZERO                                  #  ENABLING COUNTERS.
000382: 20,2335           55757                           TS       AK                                    #  ZERO THE INPUTS ON FIRST PASS
000383: 20,2336           55760                           TS       AK1
000384: 20,2337           55761                           TS       AK2
000385: 20,2340           55762                           TS       EDRIVEX                               #  ZERO THE DISPLAY REGISTERS
000386: 20,2341           55763                           TS       EDRIVEY
000387: 20,2342           55764                           TS       EDRIVEZ
000388: 20,2343           54050                           TS       CDUXCMD                               #  ZERO THE OUT COUNTERS
000389: 20,2344           54051                           TS       CDUYCMD
000390: 20,2345           54052                           TS       CDUZCMD
000391: 20,2346           46241                           CS       SIX                                   #  RESET RCSFLAGS FOR PASS2
000392: 20,2347           71273                           MASK     RCSFLAGS
000393: 20,2350           64752                           AD       BIT2
000394: 20,2351           55273                           TS       RCSFLAGS
000395: 20,2352           12442                           TCF      RETNMORE
000396:
000397: 20,2353           34746        NEEDLER2           CAF      BIT6                                  #  ENABLE IMU ERROR COUNTERS
000398: 20,2354           00006                           EXTEND
000399: 20,2355           05012                           WOR      CHAN12
000400: 20,2356           46241                           CS       SIX                                   #  RESET RCSFLAGS TO DISPLAY ATTITUDE
000401: 20,2357           71273                           MASK     RCSFLAGS                              #  ERRORS    WAIT AT LEAST 4 MS FOR
000402: 20,2360           55273                           TS       RCSFLAGS                              #  RELAY CLOSURE
000403: 20,2361           12442                           TCF      RETNMORE
000404:
000405: 20,2362           34746        NEEDLES3           CAF      BIT6                                  #  CHECK TO SEE IF IMU ERROR COUNTER
000406: 20,2363           00006                           EXTEND                                         #  IS ENABLED
000407: 20,2364           02012                           RAND     CHAN12


000409: 20,2365           10000                           CCS      A                                     #  IF NOT, RE-INITIALIZE NEEDLER.
000410: 20,2366           12373                           TCF      NEEDLES
000411:
000412: 20,2367           41273                           CS       RCSFLAGS                              #  SET UP INITIALIZATION FLAG IN RCSFLAGS.
000413: 20,2370           74751                           MASK     BIT3
000414: 20,2371           27273                           ADS      RCSFLAGS
000415: 20,2372           12442                           TCF      RETNMORE
000416:
000417: 20,2373           34752        NEEDLES            CAF      TWO
000418: 20,2374           54063        DACLOOP            TS       DINDX
000419: 20,2375           42434                           CS       ONETENTH                              #  RESCALE INPUTS TO + OR - 1800 DEGREES.
000420: 20,2376           00006                           EXTEND
000421: 20,2377           50063                           INDEX    DINDX
000422: 20,2400           71757                           MP       AK
000423: 20,2401           54001                           TS       L
000424: 20,2402           10000                           CCS      A
000425: 20,2403           32432                           CA       DACLIMIT
000426: 20,2404           12406                           TCF      +2
000427: 20,2405           42432                           CS       DACLIMIT
000428: 20,2406           60001                           AD       L
000429: 20,2407           54061                           TS       T5TEMP                                #  OVFLO CHK
000430: 20,2410           12414                           TCF      +4
000431: 20,2411           50000                           INDEX    A                                     #  ON OVERFLOW LIMIT OUTPUT TO +-384
000432: 20,2412           32432                           CAF      DACLIMIT
000433: 20,2413           54001                           TS       L
000434: 20,2414           50063                           INDEX    DINDX
000435: 20,2415           41762                           CS       EDRIVEX                               #  CURRENT VALUE OF DAC
000436: 20,2416           60001                           AD       L
000437: 20,2417           50063                           INDEX    DINDX
000438: 20,2420           26050                           ADS      CDUXCMD
000439: 20,2421           50063                           INDEX    DINDX
000440: 20,2422           23762                           LXCH     EDRIVEX
000441: 20,2423           10063                           CCS      DINDX
000442: 20,2424           12374                           TCF      DACLOOP
000443: 20,2425           37737                           CAF      13,14,15
000444: 20,2426           00006                           EXTEND
000445: 20,2427           05014                           WOR      CHAN14                                #  SET DAC ACTIVITY BITS
000446: 20,2430           12442                           TCF      RETNMORE
000447:
000448: 20,2431           77177                           DEC      -384       B-14
000449: 20,2432           37200        DACLIMIT           DEC      16000      B-14
000450: 20,2433           00600                           DEC      384        B-14
000451:
000452: 20,2434           03146        ONETENTH           OCT      03146                                 #  DECIMAL +0.1, SCALED AT 1.
000453: 20,2435     4750               DSPLYALT           EQUALS   BIT4                                  #  100 MS ALTERNATION BIT IN RCSFLAGS
000454:
000455: 20,2435           54007        OVERSUB2           TS       7                                     #  RETURNS A UNCHANGED OR LIMITED TO
000456: 20,2436           00002                           TC       Q                                     #  POSMAX OR NEGMAX IF A HAS OVERFLOW
000457: 20,2437           50000                           INDEX    A


000459: 20,2440           44734                           CS       LIMITS                                #  DUPLICATE CODING IN BANK 16
000460: 20,2441           00002                           TC       Q
000461:
000462: 20,2442           00006        RETNMORE           EXTEND                                         #  RETURN TO CHEKMORE
000463: 20,2443           32446                           DCA      MORECADR
000464: 20,2444           52006                           DTCB
000465:
000466: 20,2445  E6,1537                                  EBANK=   AOSQ
000467: 20,2445           02016 34106  MORECADR           2CADR    CHEKMORE
000468:

End of include-file DAPIDLER_PROGRAM.agc.  Parent file is MAIN.agc


