
Source Code


000002:                                                                                                  ## Copyright:   Public domain.
000003:                                                                                                  ## Filename:    DISPLAY_INTERFACE_ROUTINES.agc
000004:                                                                                                  ## Purpose:     A section of LUM69 revision 2.
000005:                                                                                                  ##              It is part of the reconstructed source code for the flown
000006:                                                                                                  ##              version of the flight software for the Lunar Module's (LM)
000007:                                                                                                  ##              Apollo Guidance Computer (AGC) for Apollo 10. The code has
000008:                                                                                                  ##              been recreated from a copy of Luminary revsion 069, using
000009:                                                                                                  ##              changes present in Luminary 099 which were described in
000010:                                                                                                  ##              Luminary memos 75 and 78. The code has been adapted such
000011:                                                                                                  ##              that the resulting bugger words exactly match those specified
000012:                                                                                                  ##              for LUM69 revision 2 in NASA drawing 2021152B, which gives
000013:                                                                                                  ##              relatively high confidence that the reconstruction is correct.
000014:                                                                                                  ## Reference:   pp. 1335-1367
000015:                                                                                                  ## Assembler:   yaYUL
000016:                                                                                                  ## Contact:     Ron Burkey <info@sandroid.org>.
000017:                                                                                                  ## Website:     www.ibiblio.org/apollo/index.html
000018:                                                                                                  ## Mod history: 2019-07-27 MAS  Created from Luminary 69.
000019:


000021:                                                                                                  #  DISPLAYS CAN BE CLASSIFIED INTO THE FOLLOWING CATEGORIES-
000022:
000023:                                                                                                  #      1. PRIORITY DISPLAYS- DISPLAYS WHICH TAKE PRIORITY OVER ALL OTHER DISPLAYS. USUALLY THESE DISPLAYS ARE SENT
000024:                                                                                                  #         OUT UNDER CRITICAL ALARM CONDITIONS.
000025:                                                                                                  #      2. EXTENDED VERB DISPLAYS- ALL EXTENDED VERBS AND MARK ROUTINES SHOULD USE EXTENDED VERB (MARK) DISPLAYS.
000026:                                                                                                  #      3. NORMAL DISPLAYS- ALL MISSION PROGRAM DISPLAYS WHICH INTERFACE WITH THE ASTRONAUT DURING THE NORMAL
000027:                                                                                                  #         SEQUENCE OF EVENTS.
000028:                                                                                                  #      4. MISC. DISPLAYS- ALL DISPLAYS NOT HANDLED BY THE DISPLAY INTERFACEROUTINES. THESE INCLUDE SUCH DISPLAYS AS
000029:                                                                                                  #         MM DISPLAYS AND SPECIAL PURPOSE DISPLAYS HANDLED BY PINBALL.
000030:
000031:
000032:                                                                                                  #      5. ASTRONAUT INITIATED DISPLAYS- ALL DISPLAYS INITIATED EXTERNALLY.
000033:                                                                                                  #  THE FOLLOWING TERMS ARE USED TO DESCRIBE THE STATUS OF DISPLAYS-
000034:
000035:                                                                                                  #      1. ACTIVE-THE DISPLAY WHICH IS (1) BEING DISPLAYED TO THE ASTRONAUT AND WAITING FOR A RESPONSE OR
000036:                                                                                                  #         (2) WAITING FIRST IN LINE FOR THE ASTRONAUT TO FINISH USING THE DSKY OR (3) BEING DISPLAYED ON THE DSKY
000037:                                                                                                  #         BUT NOT WAITING FOR A RESPONSE.
000038:                                                                                                  #      2. INACTIVE -A DISPLAY WHICH HAS (1) BEEN ACTIVE BUT WAS INTERRUPTEDBY A DISPLAY OF HIGHER PRIORITY,
000039:                                                                                                  #         (2) BEEN PUT INTO THE WAITING LIST AT TIME IT WAS REQUESTED DUE TO THE FACT A HIGHER PRIORITY DISPLAY
000040:                                                                                                  #         WAS ALREADY GOING, (3) BEEN INTERRUPTED BY THE ASTRONAUT (CALLED A PINBRANCH CONDITION, SINCE THIS TYPE
000041:                                                                                                  #         OF INACTIVE DISPLAY IS USUALLY REACTIVATED ONLY BY PINBALL) OR (4) A DISPLAY WHICH HAS FINISHED BUT STILL
000042:                                                                                                  #         HAS INFO SAVED FOR RESTART PURPOSES.
000043:
000044:
000045:                                                                                                  #  DISPLAY PRIORITIES WORK AS FOLLOWS-
000046:
000047:                                                                                                  #    INTERRUPTS-
000048:                                                                                                  #      1. THE ASTRONAUT CAN INTERRUPT ANY DISPLAY WITH AN EXTERNAL DISPLAY REQUEST.
000049:                                                                                                  #      2. INTERNAL DISPLAYS CAN NOT BE SENT OUT WHEN THE ASTRONAUT IS USING THE DSKY.
000050:                                                                                                  #      3. PRIORITY DISPLAYS INTERRUPT ALL OTHER TYPES OF INTERNAL DISPLAYS. A PRIORITY DISPLAY INTERRUPTING ANOTHER
000051:                                                                                                  #         PRIORITY DISPLAY WILL CAUSE AN ABORT UNLESS BIT14 IS SET FOR THE LINUS ROUTINE.
000052:                                                                                                  #      4. A MARK DISPLAY INTERRUPTS ANY NORMAL DISPLAY.
000053:                                                                                                  #      5. A MARK THAT INTERRUPTS A MARK COMPLETELY REPLACES IT.
000054:
000055:                                                                                                  #    ORDER OF WAITING DISPLAYS-
000056:                                                                                                  #      1. ASTRONAUT EXTERNAL USE
000057:                                                                                                  #      2. PRIORITY
000058:                                                                                                  #      3. INTERRUPTED MARK
000059:                                                                                                  #      4. INTERRUPTED NORMAL
000060:
000061:                                                                                                  #      5. MARK TO BE REQUESTED (SEE DESCRIPTION OF ENDMARK)
000062:                                                                                                  #      6. MARK WAITING
000063:                                                                                                  #      7. NORMAL WAITING
000064:


000066:                                                                                                  #  THE DISPLAY ROUTINES ARE INTENDED TO SERVE AS AN INTERFACE BETWEEN THE USER AND PINBALL.  THE
000067:                                                                                                  #  FOLLOWING STATEMENTS CAN BE MADE ABOUT NORMAL DISPLAYS AND PRIORITY DISPLAYS (A DESCRIPTION OF MARK ROUTINES
000068:                                                                                                  #  WILL FOLLOW LATER):
000069:
000070:                                                                                                  #       1.  ALL ROUTINES THAT END IN R HAVE AN IMMEDIATE RETURN TO THE USER.  FOR ALL FLASHING DISPLAYS THIS RETURN
000071:                                                                                                  #           IS TO THE USERS CALL CADR +4.  FOR THE ONLY NON FLASHING IMMEDIATE RETURN DISPLAY (GODSPR) THIS RETURN
000072:                                                                                                  #           IS TO THE USERS CALLING LOC +1.
000073:                                                                                                  #       2.  ALL ROUTINES NOT ENDING IN R DO NOT DO AN IMMEDIATE RETURN TO THE USER.
000074:                                                                                                  #       3.  ALL ROUTINES THAT END IN R START A SEPARATE JOB (MAKEPLAY) WITH USERS JOB PRIORITY.
000075:                                                                                                  #       4.  ALL ROUTINES NOT ENDING IN R BRANCH DIRECTLY TO MAKEPLAY WHICH MAKES THESE DISPLAYS A PART OF THE
000076:                                                                                                  #           USERS JOB.
000077:                                                                                                  #       5.  ALL DISPLAY ROUTINES ARE CALLED VIA BANKCALL.
000078:                                                                                                  #       6.  TO RESTART A DISPLAY THE USER WILL GENERALLY USE A PHASE OF ONE WITH DESIRED RESTART GROUP (SEE
000079:                                                                                                  #           DESCRIPTION OF RESTARTS).
000080:                                                                                                  #       7.  ALL FLASHING DISPLAYS HAVE 3 RETURNS TO THE USER FROM ASTRONAUT RESPONSES.  A TERMINATE (V34) BRANCHES
000081:                                                                                                  #           TO THE USERS CALL CADR +1.  A PROCEED (V33) BRANCHES TO THE USERS CALL CADR +2.  AN ENTER OR RECYCLE
000082:                                                                                                  #           (V32) BRANCHES TO THE USERS CALL CADR +3.
000083:                                                                                                  #       8.  ALL ROUTINES MUST BE USED UNDER EXECUTIVE CONTROL.
000084:
000085:                                                                                                  #  A DESCRIPTION OF EACH ROUTINE WITH AN EXAMPLE FOLLOWS:
000086:
000087:                                                                                                  #  GODSP IS USED TO DISPLAY A VERB NOUN ARRIVING IN A.  NO RETURN IS MADE TO THE USER.
000088:
000089:                                                                                                  #       1. GODSP IS NOT RESTARTABLE
000090:                                                                                                  #       2. A VERB PASTE WITH GODSP ALWAYS TURNS ON THE FLASH.
000091:                                                                                                  #                                                   CAF    VXXNYY
000092:                                                                                                  #                                                   TC     BANKCALL
000093:                                                                                                  #                                                   CADR   GODSP
000094:
000095:                                                                                                  #                                          VXXNYY   OCT    0XXYY
000096:
000097:                                                                                                  #  GODSPR IS THE SAME AS GODSP ONLY RETURN IS TO THE USER.
000098:
000099:                                                                                                  #                                                   CAF    VXXNYY
000100:                                                                                                  #                                                   TC     BANKCALL
000101:                                                                                                  #                                                   CADR   GODSPR
000102:
000103:                                                                                                  #                                                   ...    ...             IMMEDIATE RETURN OF GODSPR
000104:
000105:                                                                                                  #  GOFLASH DISPLAYS A FLASHING VERB NOUN WITH NO IMMEDIATE RETURN TO THE USER. 3 RETURNS ARE POSSIBLE FROM
000106:                                                                                                  #  THE ASTRONAUT (SEE NO. 7 ABOVE).
000107:
000108:                                                                                                  #                                                   CAF    VXXNYY          VXX NYY WILL BE A FLASHING VERB NOUN.
000109:                                                                                                  #                                                   TC     BANKCALL
000110:                                                                                                  #                                                   CADR   GOFLASH
000111:                                                                                                  #                                                   ...    ...             TERMINATE RETURN
000112:                                                                                                  #                                                   ...    ...             PROCEED RETURN
000113:                                                                                                  #                                                   ...    ...             ENTER OR RECYCLE RETURN
000114:
000115:                                                                                                  #  GOPERF1 IS ENTERED WITH DESIRED CHECKLIST VALUE IN A.  GOPERF1 WILL DISPLAY THIS VALUE IN R1 BY MEANS OF A


000117:                                                                                                  #  V01 N25.A FLASHING PLEASE PERFORM ON CHECKLIST ( V50 N25) IS THEN DISPLAYED.  NO IMMEDIATE RETURN IS MADE TO
000118:                                                                                                  #  USER (SEE NO. 7 ABOVE).
000119:
000120:                                                                                                  #  GOPERF1 BLANKS REGISTERS R2 AND R3
000121:                                                                                                  #                                                   CAF    OCTXX           CODE FOR CHECKLIST VALUE XX
000122:                                                                                                  #                                                   TC     BANKCALL
000123:                                                                                                  #                                                   CADR   GOPERF1
000124:                                                                                                  #                                                   ...    ...             TERMINATE RETURN
000125:                                                                                                  #                                                   ...    ...             PROCEED RETURN
000126:                                                                                                  #                                                   ...    ...             ENTER RETURN
000127:
000128:                                                                                                  #  GOPERF2 IS ENTERED WITH A VARIABLE NOUN AND V01 ( V00 FOR N10 OR N11) IN A.  GOPERF2 WILL FIRST DISPLAY THE
000129:                                                                                                  #  REQUESTED NOUN BY MEANS OF A V01NYY OR A V00NYY. PLEASE PERFORM ON NOUN (V50 NYY) THEN BECOMES A FLASHING
000130:                                                                                                  #  DISPLAY.  NO IMMEDIATE RETURN IS MADE TO THE USER (SEE NO. 7 ABOVE).
000131:
000132:                                                                                                  #  GOPERF2 DOES NOT BLANK ANY REGISTERS
000133:
000134:                                                                                                  #                                                   CAF    VXXNYY          VARIABLE NOUN YY. XX=00 OR 01.
000135:                                                                                                  #                                                   TC     BANKCALL
000136:                                                                                                  #                                                   CADR   GOPERF2
000137:                                                                                                  #                                                   ...    ...             TERMINATE RETURN
000138:                                                                                                  #                                                   ...    ...             PROCEED RETURN
000139:                                                                                                  #                                                   ...    ...             ENTER RETURN
000140:
000141:                                                                                                  #  GOPERF3 IS USED FOR A PLEASE PERFORM ON A PROGRAM NUMBER.  THE DESIRED PROGRAM NO. IS ENTERED IN A.  GOPERF3
000142:                                                                                                  #  DISPLAYS THE NO. BY MEANS OF A V06 N07 FOLLOWED BY A FLASHING V50 N07 FOR A PLEASE PERFORM. NO IMMEDIATE RETURN
000143:                                                                                                  #  IS MADE TO THE USER (SEE NO. 7 ABOVE).
000144:
000145:                                                                                                  #  GOPERF3 BLANKS REGISTERS R2 AND R3
000146:
000147:                                                                                                  #                                                   CAF    DECXX           REQUEST PERFORM ON PXX
000148:                                                                                                  #                                                   TC     BANKCALL
000149:                                                                                                  #                                                   CADR   GOPERF3
000150:                                                                                                  #                                                   ...    ...             TERMINATE RETURN
000151:                                                                                                  #                                                   ...    ...             PROCEED RETURN
000152:                                                                                                  #                                                   ...    ...             ENTER RETURN
000153:
000154:                                                                                                  #  GOPERF4 IS USED FOR A PLEASE PERFORM ON AN OPTION. THE DESIRED OPTION ISENTERED IN A AND STORED IN OPTION1.
000155:                                                                                                  #  GOPERF4 DISPLAYS R1 AND R2 BY MEANS OF A V04N06 FOLLOWED BY A FLASHING  V50N06 FOR A PLEASE PERFORM. NO
000156:                                                                                                  #  IMMEDIATE RETURN IS MADE TO THE USER (SEE NO. 7 ABOVE).
000157:
000158:                                                                                                  #                                                   CAF    OCTXX           REQUEST PERFORM ON OPTION XX
000159:                                                                                                  #                                                   TC     BANKCALL
000160:                                                                                                  #                                                   CADR   GOPERF4
000161:                                                                                                  #                                                   ...    ...             TERMINATE RETURN
000162:                                                                                                  #                                                   ...    ...             PROCEED RETURN
000163:                                                                                                  #                                                   ...    ...             ENTER RETURN
000164:
000165:                                                                                                  #  GOPERF4 BLANKS REGISTER R3
000166:


000168:                                                                                                  #  GODSPRET IS USED TO DISPLAY A VERB NOUN ARRIVING IN A WITH A RETURN TO THE USER AFTER THE DISPLAY HAS BEEN SENT
000169:                                                                                                  #  OUT.
000170:
000171:                                                                                                  #                                                   CAF    VXXNYY
000172:                                                                                                  #                                                   TC     BANKCALL
000173:                                                                                                  #                                                   CADR   GODSPRET
000174:                                                                                                  #                                                   ...    ...             RETURN TO USER
000175:
000176:                                                                                                  #  REGODSP IS USED TO DISPLAY A VERB NOUN ARRIVING IN A.  REGODSP IS THE SAME AS GODSP ONLY REGODSP REPLACES ANY
000177:                                                                                                  #  ACTIVE NORMAL DISPLAY IF ONE WAS ACTIVE.
000178:
000179:                                                                                                  #                                                   CAF    VXXNYY
000180:                                                                                                  #                                                   TC     BANKCALL
000181:                                                                                                  #                                                   CADR   REGODSP
000182:
000183:                                                                                                  #  REFLASH IS THE SAME AS GOFLASH ONLY REFLASH REPLACES ANY ACTIVE NORMAL DISPLAY IF ONE WAS ACTIVE.
000184:
000185:                                                                                                  #                                                   CAF    VXXNYY          VXX NYY WILL BE A FLASHING VERB NOUN
000186:                                                                                                  #                                                   TC     BANKCALL
000187:                                                                                                  #                                                   CADR   REFLASH
000188:                                                                                                  #                                                   ...    ...             TERMINATE RETURN
000189:                                                                                                  #                                                   ...    ...             PROCEED RETURN
000190:                                                                                                  #                                                   ...    ...             ENTER RETURN
000191:
000192:                                                                                                  #  GOFLASHR IS SAME AS GOFLASH ONLY AN IMMEDIATE RETURN IS MADE TO THE USERS CALL CADR +4.
000193:
000194:                                                                                                  #                                                   CAF    VXXNYY
000195:                                                                                                  #                                                   TC     BANKCALL
000196:                                                                                                  #                                                   CADR   GOFLASHR
000197:                                                                                                  #                                                   ...    ...             TERMINATE RETURN
000198:                                                                                                  #                                                   ...    ...             PROCEED RETURN
000199:                                                                                                  #                                                   ...    ...             ENTER OR RECYCLE RETURN
000200:
000201:                                                                                                  #                                                   ...    ...             IMMEDIATE RETURN FROM GOFLASHR
000202:
000203:                                                                                                  #  GOPERF1R IS THE SAME AS GOPERF1 ONLY GOPERF1R HAS AN IMMEDIATE RETURN TOUSERS CALL CADR +4.
000204:
000205:                                                                                                  #  GOPERF1R BLANKS REGISTERS R2 AND R3
000206:
000207:                                                                                                  #                                                   CAF    OCTXX           CODE FOR CHECKLIST VALUE XX.
000208:                                                                                                  #                                                   TC     BANKCALL
000209:                                                                                                  #                                                   CADR   GOPERF1R
000210:                                                                                                  #                                                   ...    ...             TERMINATE RETURN
000211:                                                                                                  #                                                   ...    ...             PROCEED RETURN
000212:                                                                                                  #                                                   ...    ...             ENTER RETURN
000213:
000214:                                                                                                  #                                                   ...    ...             IMMEDIATE RETURN FROM GOPERF1R
000215:
000216:                                                                                                  #  GOPERF2R IS THE SAME AS GOPERF2 ONLY AN IMMEDIATE RETURN IS MADE TO USERS CALL CADR +4.
000217:


000219:                                                                                                  #  GOPERF2R DOES NOT BLANK ANY REGISTERS
000220:
000221:                                                                                                  #                                                   CAF    VXXNYY          VARIABLE NOUN YY REQUESTED.  XX=00 OR 01
000222:                                                                                                  #                                                   TC     BANKCALL
000223:                                                                                                  #                                                   CADR   GOPERF2R
000224:                                                                                                  #                                                   ...    ...             TERMINATE RETURN
000225:                                                                                                  #                                                   ...    ...             PROCEED RETURN
000226:                                                                                                  #                                                   ...    ...             ENTER RETURN
000227:
000228:                                                                                                  #                                                   ...    ...             IMMEDIATE RETURN HERE FROM GOPERF2R
000229:
000230:                                                                                                  #  GOPERF3R IS THE SAME AS GOPERF3 ONLY AN IMMEDIATE RETURN IS MADE TO USERS CALL CADR +4.
000231:
000232:                                                                                                  #  GOPERF3R BLANKS REGISTERS R2 AND R3
000233:
000234:                                                                                                  #                                                   CAF    PROGXX          PERFORM PROGRAM XX
000235:                                                                                                  #                                                   TC     BANKCALL
000236:                                                                                                  #                                                   CADR   GOPERF3R
000237:                                                                                                  #                                                   ...    ...             TERMINATE RETURN
000238:                                                                                                  #                                                   ...    ...             PROCEED RETURN
000239:                                                                                                  #                                                   ...    ...             ENTER RETURN
000240:
000241:                                                                                                  #                                                   ...    ...             GOPERF3R IMMEDIATELY RETURNS HERE
000242:
000243:                                                                                                  #  GOPERF4R IS THE SAME AS GOPERF4 ONLY AN IMMEDIATE RETURN IS MADE TO USERS CALL CADR +4.
000244:
000245:                                                                                                  #                                                   CAF    OCTXX           REQUEST PERFORM ON OPTIONXX
000246:                                                                                                  #                                                   TC     BANKCALL
000247:                                                                                                  #                                                   CADR   GOPERF4R
000248:                                                                                                  #                                                   ...    ...             TERMINATE RETURN
000249:                                                                                                  #                                                   ...    ...             PROCEED RETURN
000250:                                                                                                  #                                                   ...    ...             ENTER RETURN
000251:
000252:                                                                                                  #                                                   ...    ...             IMMEDIATE RETURN TO USER
000253:
000254:                                                                                                  #  GOPERF4R BLANKS REGISTER R3
000255:
000256:                                                                                                  #  REFLASHR IS THE SAME AS REFLASH ONLY AN IMMEDIATE RETURN IS MADE TO THE USERS CALL CADR +4.
000257:
000258:                                                                                                  #                                                   CAF    VXXNYY          VXX NYY WILL BE A FLASHING VERB NOUN
000259:                                                                                                  #                                                   TC     BANKCALL
000260:                                                                                                  #                                                   CADR   REFLASHR
000261:                                                                                                  #                                                   ...    ...             TERMINATE RETURN
000262:                                                                                                  #                                                   ...    ...             PROCEED RETURN
000263:                                                                                                  #                                                   ...    ...             ENTER RETURN
000264:
000265:                                                                                                  #                                                   ...    ...             IMMEDIATE RETURN TO USER
000266:
000267:                                                                                                  #  REGODSPR IS THE SAME AS REGODSP ONLY A RETURN (IMMEDIATE) IS MADE TO THE USER.
000268:


000270:                                                                                                  #                                                   CAF    VXXNYY
000271:                                                                                                  #                                                   TC     BANKCALL
000272:                                                                                                  #                                                   CADR   REGODSPR
000273:                                                                                                  #                                                   ...    ...             IMMEDIATE RETURN TO USER


000275:                                                                                                  #  GOMARK IS USED TO DISPLAY A MARK VERB NOUN ARRIVING IN A.  NO RETURN IS MADE TO THE USER.
000276:
000277:                                                                                                  #  GOXDSP = GOMARK
000278:
000279:                                                                                                  #                                                   CAF    VXXNYY          VXXNYY CONTAINS VERB AND NOUN
000280:                                                                                                  #                                                   TC     BANKCALL
000281:                                                                                                  #                                                   CADR   GOMARK          OTHER EXTENDED VERBS USE CADR GOXDSP
000282:
000283:                                                                                                  #  GOMARKR IS THE SAME AS GOMARK ONLY RETURN IS TO THE USER.
000284:
000285:                                                                                                  #  GOXDSPR = GOMARKR
000286:
000287:                                                                                                  #                                                   CAF    VXXNYY
000288:                                                                                                  #                                                   TC     BANKCALL
000289:                                                                                                  #                                                   CADR   GOMARKR         OTHER EXTENDED VERBS USE CADR GOXDSPR
000290:
000291:                                                                                                  #                                                   ...    ...             IMMEDIATE RETURN OF GOMARKR
000292:
000293:                                                                                                  #  GOMARKF DISPLAYS A FLASHING MARK VERB NOUN WITH NO IMMEDIATE RETURN TO THE USER. 3 RETURNS ARE POSSIBLE FROM
000294:                                                                                                  #  THE ASTRONAUT (SEE NO. 7 ABOVE ).
000295:
000296:                                                                                                  #  GOXDSPF = GOMARKF
000297:
000298:                                                                                                  #                                                   CAF    VXXNYY          VXXNYY WILL BE A FLASHING MARK VERB NOUN
000299:                                                                                                  #                                                   TC     BANKCALL
000300:                                                                                                  #                                                   CADR   GOMARKF         OTHER EXTENDED VERBS USE CADR GOXDSPF
000301:                                                                                                  #                                                   ...    ...             TERMINATE RETURN
000302:                                                                                                  #                                                   ...    ...             PROCEED RETURN
000303:                                                                                                  #                                                   ...    ...             ENTER OR RECYCLE RETURN
000304:
000305:                                                                                                  #  GOMARKFR IS THE SAME AS GOMARKF ONLY AN IMMEDIATE RETURN IS MADE TO THE USER CALL CADR +4.
000306:
000307:                                                                                                  #  GOXDSPFR = GOMARKFR
000308:
000309:                                                                                                  #                                                   CAF    VXXNYY          FLASHING MARK VERB NOUN
000310:                                                                                                  #                                                   TC     BANKCALL
000311:                                                                                                  #                                                   CADR   GOMARKFR        OTHER EXTENDED VERBS USE CADR GOXDSPFR
000312:                                                                                                  #                                                   ...    ...             TERMINATE RETURN
000313:                                                                                                  #                                                   ...    ...             PROCEED RETURN
000314:                                                                                                  #                                                   ...    ...             ENTER OR RECYCLE RETURN
000315:
000316:                                                                                                  #                                                   ...    ...             IMMEDIATE RETURN TO THE USER
000317:
000318:                                                                                                  #  GOMARK1 IS USED FOR A PLEASE PERFORM ON A MARK REQUEST WITH ONLY 1 ASTRONAUT RETURN TO THE USER. NO IMMEDIATE
000319:                                                                                                  #  RETURN IS MADE. THE DESIRED MARK PLEASE PERFORM VERB AND DESIRED NOUN ISENTERED IN A. GOMARK1 DISPLAYS R1, R2, R
000320:                                                                                                  #  MEANS OF A V05NYY FOLLOWED BY A FLASHING V5XNYY FOR A PLEASE PERFORM. THE ASTRONAUT WILL RESPOND WITH A MARK
000321:                                                                                                  #  OR MARK REJECT OR AN ENTER. THE ENTER IS THE ONLY ASTRONAUT RESPONSE THAT WILL COME BACK TO THE USER.
000322:
000323:                                                                                                  #                                                   CAF    V5XNYY          X=1,2,3,4   Y=NOUN
000324:                                                                                                  #                                                   TC     BANKCALL


000326:                                                                                                  #                                                   CADR   GOMARK1
000327:
000328:                                                                                                  #                                                   ...    ...             ENTER RETURN
000329:
000330:                                                                                                  #  *** IF BLANKING DESIRED ON NON R ROUTINES, NOTIFY DISPLAYER.
000331:
000332:                                                                                                  #  GOMARK1R IS THE SAME AS A GOMARK1 ONLY AN IMMEDIATE RETURN IS MADE TO THE USERS CALL CADR +2.
000333:                                                                                                  #                                                   CAF    V5XNYY          X=1,2,3,4    YY = NOUN
000334:                                                                                                  #                                                   TC     BANKCALL
000335:                                                                                                  #                                                   CADR   GOMARK1R
000336:
000337:                                                                                                  #                                                   ...    ...             ASTRONAUT ENTER RETURN
000338:                                                                                                  #                                                   ...    ...             IMMEDIATE RETURN TO USER
000339:
000340:                                                                                                  #  GOMARK2 IS THE SAME AS GOMARK1 ONLY 3 RETURNS ARE MADE TO THE USER FROM THE ASTRONAUT.
000341:                                                                                                  #                                                   CAF    V5XNYY          X=1,2,3,4   YY=NOUN
000342:                                                                                                  #                                                   TC     BANKCALL
000343:                                                                                                  #                                                   CADR   GOMARK2
000344:                                                                                                  #                                                   ...    ...             TERMINATE RETURN
000345:                                                                                                  #                                                   ...    ...             PROCEED RETURN
000346:                                                                                                  #                                                   ...    ...             ENTER RETURN
000347:                                                                                                  #  GOMARK2R IS THE SAME AS GOMARK1R ONLY 3 ASTRONAUT RETURNS ARE MADE TO THE USER.
000348:
000349:                                                                                                  #                                                   CAF    V5XNYY          X=0,1,2,3,4   YY=NOUN
000350:                                                                                                  #                                                   TC     BANKCALL
000351:                                                                                                  #                                                   CADR   GOMARK2R
000352:                                                                                                  #                                                   ...    ...             TERMINATE RETURN
000353:                                                                                                  #                                                   ...    ...             PROCEED RETURN
000354:                                                                                                  #                                                   ...    ...             ENTER RETURN
000355:
000356:                                                                                                  #                                                   ...    ...             IMMEDIATE RETURN TO THE USER
000357:
000358:                                                                                                  #  GOMARK3 IS USED FOR A PLEASE PERFORM ON A MARK REQUEST WITH A 3 COMP. DEC DISPLAY. THE DESIRED MARK PLEASE
000359:                                                                                                  #  PERFORM VERB AND NOUN ARE ENTERED IN A. GOMARK3 DISPLAYS R1, R2, R3 BY MEANS OF A V06NYY FOLLOWED BY A FLASHING
000360:                                                                                                  #  V5XNYY FOR A PLEASE PERFORM. GOMARK3 HAS 3 ASTRONAUT RETURNS TO THE USER WITH NO IMMEDIATE RETURN.
000361:
000362:                                                                                                  #                                                   CAF    V5XNYY          X=1, 2,3,4 YY=NOUN
000363:                                                                                                  #                                                   TC     BANKCALL
000364:                                                                                                  #                                                   CADR   GOMARK3
000365:                                                                                                  #                                                   ...    ...             TERMINATE RETURN
000366:                                                                                                  #                                                   ...    ...             PROCEED RETURN
000367:                                                                                                  #                                                   ...    ...             ENTER RETURN
000368:
000369:                                                                                                  #  GOMARK4 IS THE SAME AS GOMARK3 ONLY R2 AND R3 ARE BLANKED AND R1 IS DISPLAYED IN OCTAL.
000370:
000371:                                                                                                  #                                                   CAF    V5XNYY          X=1,2,3,4 YY=NOUN
000372:                                                                                                  #                                                   TC     BANKCALL
000373:                                                                                                  #                                                   CADR   GOMARK4
000374:                                                                                                  #                                                   ...    ...             TERMINATE RETURN
000375:                                                                                                  #                                                   ...    ...             PROCEED RETURN


000377:                                                                                                  #                                                   ...    ...             ENTER RETURN
000378:
000379:                                                                                                  #  EXDSPRET IS USED TO DISPLAY A VERB NOUN ARRIVING IN A WITH A RETURN MADE TO THE USER AFTER THE DISPLAY HAS BEEN
000380:                                                                                                  #  SENT OUT.
000381:                                                                                                  #                                                   CAF    VXXNYY
000382:                                                                                                  #                                                   TC     BANKCALL
000383:                                                                                                  #                                                   CADR   EXDSPRET
000384:
000385:                                                                                                  #                                                   ...    ...             RETURN TO USER
000386:
000387:                                                                                                  #  KLEENEX CLEANS OUT ALL MARK DISPLAYS (ACTIVE AND INACTIVE). A RETURN IS MADE TO THE USER AFTER THE MARK DISPLAYS
000388:                                                                                                  #  HAVE BEEN CLEANED OUT.
000389:
000390:                                                                                                  #                                                   TC     BANKCALL
000391:                                                                                                  #                                                   CADR   KLEENEX
000392:
000393:                                                                                                  #                                                   ...    ...             RETURN TO USER
000394:
000395:                                                                                                  #  MARKBRAN IS A SPECIAL PURPOSE ROUTINE USED FOR SAVING JOB VAC AREAS (SEE DESCRIPTION OF MARKBRAN BELOW).
000396:
000397:                                                                                                  #                                                   TC     BANKCALL
000398:                                                                                                  #                                                   CADR   MARKBRAN
000399:
000400:                                                                                                  #                                                   ...    ...             BAD RETURN IF MARK DISPLAY NOT ACTIVE
000401:
000402:                                                                                                  #                                                                          (GOOD RETURN TO IMMEDIATE RETURN LOC OF
000403:                                                                                                  #                                                                          LAST FLASHING MARK R ROUTINE)
000404:
000405:                                                                                                  #  PINBRNCH REESTABLISHES THE LAST ACTIVE FLASHING DISPLAY. IF THERE IS NO ACTIVE FLASHING DISPLAY, THE DSKY IS
000406:                                                                                                  #  BLANKED AND CONTROL IS SENT TO ENDOFJOB.
000407:
000408:                                                                                                  #                                                   TC     POSTJUMP
000409:                                                                                                  #                                                   CADR   PINBRNCH
000410:
000411:                                                                                                  #  PRIODSP IS USED AS A PRIORITY DISPLAY.  IT WILL DISPLAY A GOFLASH TYPE DISPLAY WITH THREE POSSIBLE RETURNS FROM
000412:                                                                                                  #  THE ASTRONAUT(SEE NO.7 ABOVE).
000413:
000414:                                                                                                  #       THE MAIN PURPOSE OF PRIODSP IS TO REPLACE THE PRESENT DISPLAY WITH A DISPLAY OF HIGHER PRIORITY AND TO
000415:                                                                                                  #  PROVIDE A MEANS FOR RESTORING THE OLD DISPLAY WHEN THE PRIORITY DISPLAY
000416:                                                                                                  #  IS RESPONDED TO BY THE ASTRONAUT.
000417:
000418:                                                                                                  #       THE FORMER DISPLAY IS RESTORED BY AN AUTOMATIC BRANCH TO WAKE UP THE DISPLAY THAT WAS INTERRUPTED BY THE
000419:                                                                                                  #  PRIO DISPLAY.
000420:
000421:                                                                                                  #                                                   CAF    VXXNYY          VXXNYY WILL BE A FLASHING VERB NOUN
000422:                                                                                                  #                                                   TC     BANKCALL
000423:                                                                                                  #                                                   CADR   PRIODSP
000424:                                                                                                  #                                                   ...    ...             TERMINATE RETURN
000425:                                                                                                  #                                                   ...    ...             PROCEED RETURN


000427:                                                                                                  #                                                   ...    ...             ENTER OR RECYCLE RETURN
000428:
000429:                                                                                                  #  PRIODSPR IS THE SAME AS PRIODSP ONLY AN IMMEDIATE RETURN IS MADE TO THE USERS CALL CADR +4.
000430:
000431:                                                                                                  #                                                   CAF    VXXNYY          VXXNYY WILL BE A FLASHING VERB NOUN
000432:                                                                                                  #                                                   TC     BANKCALL
000433:                                                                                                  #                                                   CADR   PRIODSPR
000434:                                                                                                  #                                                   ...    ...             TERMINATE RETURN
000435:                                                                                                  #                                                   ...    ...             PROCEED RETURN
000436:                                                                                                  #                                                   ...    ...             ENTER OR RECYCLE RETURN
000437:
000438:                                                                                                  #                                                   ...    ...             IMMEDIATE RETURN
000439:
000440:                                                                                                  #  PRIOLARM DOES A V05N09 PRIODSPR.
000441:                                                                                                  #  CLEANDSP CLEANS OUT ALL NORMAL DISPLAYS (ACTIVE AND INACTIVE). A RETURN IS MADE TO THE USER AFTER NORMAL
000442:                                                                                                  #  DISPLAYS ARE CLEANED OUT.
000443:                                                                                                  #                                                   TC     BANKCALL
000444:                                                                                                  #                                                   CADR   CLEANDSP
000445:
000446:                                                                                                  #                                                   ...    ...             RETURN TO USER
000447:


000449:
000450:                                                                                                  #  GENERAL INFORMATION
000451:                                                                                                  #  ------- -----------
000452:
000453:
000454:                                                                                                  #  ALARM OR ABORT EXIT MODES--
000455:
000456:                                                                                                  #                                          PRIOBORT TC     ABORT
000457:                                                                                                  #                                                   OCT    1502
000458:
000459:                                                                                                  #  PRIOBORT IS BRANCED TO WHEN (1)  A NORMAL DISPLAY IS REQUESTED AND  ANOTHER NORMAL DISPLAY IS ALREADY ACTIVE
000460:                                                                                                  #  (REFLASH AND REGODSP ARE EXCEPTIONS) OR (2) A PRIORITY DISPLAY IS REQUESTED WHEN ANOTHER PRIORITY DISPLAY IS
000461:                                                                                                  #  ALREADY ACTIVE (A PRIORITY WITH LINUS BIT14 IS AN EXCEPTION).
000462:
000463:
000464:                                                                                                  #  ERASABLE INITIALIZATION REQUIRED--
000465:
000466:                                                                                                  #       ACCOMPLISHED BY FRESH START- 1. FLAGWRD4 (USED EXCLUSIVELY BY DISPLAY INTERFACE ROUTINES)
000467:                                                                                                  #                                    2. NVSAVE = NORMAL VERB AND NOUN      REGISTER.
000468:                                                                                                  #                                    3. EBANKTEM = NORMAL INACTIVE FLAGWORD(ALSO CONTAINS NORMALS EBANK).
000469:
000470:
000471:                                                                                                  #                                    5. R1SAVE = MARKBRAN CONTROL WORD
000472:                                                                                                  #                                    4. RESTREG = PRIORITY 30 AND SUPERBANK 3.
000473:
000474:                                                                                                  #  OUTPUT --
000475:
000476:                                                                                                  #       NVWORD = PRIO VERB AND NOUN
000477:                                                                                                  #       NVWORD +1(MARKNV) = MARK VERB AND NOUN
000478:                                                                                                  #       NVWORD +2(NVSAVE) = NORMAL VERB AND NOUN
000479:
000480:                                                                                                  #       DSPFLG(EBANKSAV) = PRIO FLAGWORD (INCLUDING EBANK)
000481:                                                                                                  #       DSPFLG +1(MARKEBAN) = MARK FLAGWORD (INCLUDING EBANK)
000482:                                                                                                  #       DSPFLG +2(EBANKTEM) = NORMAL FLAGWORD (INCLUDIG EBANK)
000483:
000484:                                                                                                  #       CADRFLSH = PRIO USERS CALL CADR +1 LOCATION
000485:                                                                                                  #       CADRFLSH +1(MARKFLSH) = MARK USERS CALL CADR +1 LOCATION
000486:                                                                                                  #       CADRFLSH +2(TEMPFLSH) = NORMAL USERS CALL CADR +1 LOCATION
000487:
000488:                                                                                                  #       PRIOTIME = TIME EACH PRIO REQUEST FIRST SENT OUT
000489:                                                                                                  #       OPTION1 = DESIRED OPTION FROM GOPERF4
000490:                                                                                                  #       FLAGWRD4 = BIT INFO FOR CONTROL OF ALL DISPLAY ROUTINES
000491:                                                                                                  #       DSPTEM1 = R1 INFO FOR ASTRONAUT FROM PERFORM DISPLAYS(NORMAL)
000492:                                                                                                  #  SUBROUTINES USED-- NVSUB, FLAGUP, FLAGDOWN, ENDOFJOB, BLANKSUB, ABORT, JOBWAKE, JOBSLEEP, FINDVAC, PRIOCHNG,
000493:                                                                                                  #  JAMTERM, NVSUBUSY, FLASHON, ENDIDLE, CHANG1, BANKJUMP, MAKECADR, NOVAC,
000494:                                                                                                  #  DEBRIS-- (STORED INTO)
000495:
000496:                                                                                                  #       TEMPORARY TEMPORARIES- A, Q, L, MPAC +2, MPAC +3, MPAC +4, MPAC +5, MPAC +6, RUPTREG2, RUPTREG3, CYL,
000497:                                                                                                  #  EBANK, RUPTREG4, LOC, BANKSET, MODE, MPAC, MPAC +1                      4, FACEREG
000498:                                                                                                  #       ERASABES(SHARED AND USED WITH OTHER PROGRAMS) CADRSTOR, DSPLIST, LOC, DSPTEM1, OPTION1
000499:
000500:                                                                                                  #       ERASABLES(USED ONLY BY DISPLAY ROUTINES)- NVWORD,+1,+2, DSPFLG,+1,+2, CADRFLSH,+1,+2, PRIOTIME, FLAGWRD4,


000502:                                                                                                  #  R1SAVE, MARK2PAC,
000503:
000504:
000505:                                                                                                  #  DEBRIS-- (USED BUT NOT STORED INTO)- NOUNREG, VERBREG, LOCCTR, MONSAVE1
000506:                                                                                                  #  FLAGWORD DESCRIPTIONS--
000507:                                                                                                  #      FLAGWRD4- SEE DESCRIPTION UNDER LOG SECTION ERASABLE ASSIGNMENTS
000508:
000509:                                                                                                  #      DSPFLG, DSPFLG+1, DSPFLG +2-
000510:                                                                                                  #      ----------------------------
000511:                                                                                                  #  BITS 1 BLANK R1
000512:                                                                                                  #       2 BLANK R2
000513:                                                                                                  #       3 BLANK R3
000514:                                                                                                  #       4 FLASHING DISPLAY REQUESTED
000515:                                                                                                  #       5 PERFORM DISPLAY REQUESTED
000516:                                                                                                  #       6 -----            EXDSPRET           GODSPRET
000517:                                                                                                  #       7 PRIO DISPLAY     -----               -----
000518:                                                                                                  #       8 -----         DEC MARK PERFORM      -----
000519:                                                                                                  #       9 EBANK
000520:                                                                                                  #      10 EBANK
000521:                                                                                                  #      11 EBANK
000522:                                                                                                  #      12 -----           -----       V99PASTE
000523:                                                                                                  #      13 2ND PART OF PERFORM
000524:                                                                                                  #      15 REFLASH OR REDO  -----           REFLASH OR REDO
000525:                                                                                                  #      15 -----          MARK REQUEST          -----
000526:                                                                                                  #  RESTARTING DISPLAYS--
000527:
000528:                                                                                                  #  RULES FOR THE DSKY OPERATOR--
000529:
000530:                                                                                                  #       1. PROCEED AND TERMINATE SERVE AS RESPONSES TO REQUESTS FOR OPERATOR RESPONSE (FLASHING V/N).  AS LONG
000531:                                                                                                  #          AS THERE IS ANY REQUEST AWAITING OPERATOR RESPONSE, ANY USE OF PROCEED OR TERMINATE WILL SERVE AS
000532:                                                                                                  #          RESPONSES TO THAT REQUEST.  CARE SHOULD BE EXERCISED IN ATTEMPTING TO KILL AN OPERATOR INITIATED MONITOR
000533:                                                                                                  #          WITH PROCEED AND TERMINATE FOR THIS REASON.
000534:                                                                                                  #       2. THE ASTRONAUT MUST RESPOND TO A PRIORITY DISPLAY NO             SOONER THAN 2 SECONDS FROM THE TIME THE
000535:                                                                                                  #          PROGRAM SENT OUT THE REQUEST FOR OPERATOR RESPONSE (THE ASTRONAUT WOULD SEE THIS DISPLAY FOR LESS TIME
000536:                                                                                                  #          DUE TO TIME IT TAKES TO GET DISPLAY SENT OUT.) IF THE ASTRONAUT RESPONDS TOO SOON, THE PRIORITY DISPLAY
000537:                                                                                                  #           IS SENT OUT AGAIN -- AND AGAIN UNTIL AN ACCUMULATED 2 SECS     FROM THE TIME THE FIRST PRIORITY DISPLAY
000538:                                                                                                  #          OUT. THE SAME 2 SEC. DELAY WILL OCCUR AT 163.84 SECS OR IN ANY  MULTIPLE OF THAT TIME DUE TO PROGRAM
000539:                                                                                                  #          CONSIDERATION.
000540:                                                                                                  #       3. KEY RELEASE BUTTON-
000541:                                                                                                  #          A) IF THE KEY RELEASE LIGHT IS ON, IT SIMPLY RELEASES THE KEYBOARD AND DISPLAY FOR INTERNAL USE.
000542:                                                                                                  #          B) IF THE KEY RELEASE LIGHT IS OFF, AND IF SOME REQUEST FOR OPERATOR RESPONSE (FLASHING V/N) IS STILL
000543:                                                                                                  #             AWAITING RESPONSE  THEN IT RE-ESTABLISHES THE DISPLAYS THAT ORIGINALLY REQUESTED RESPONSE.
000544:                                                                                                  #          IF AN OPERATOR WANTS THEREFORE TO RE-ESTABLISH BUT CONDITION (A) IS ENCOUNTERED, A SECOND DEPRESSION OF
000545:                                                                                                  #          KEY RELEASE BUTTON MAY BE NECESSARY.
000546:                                                                                                  #       4. IT IS IMPORTANT TO ANSWER ALL REQUESTS FOR OPERATOR RESPONSE.
000547:                                                                                                  #       5. IT IS ALWAYS GOOD PRACTICE TO TERMINATE AN EXTENDED VERB BEFORE ASKING FOR ANOTHER ONE OR THE SAME ONE
000548:                                                                                                  #          OVER AGAIN.
000549:
000550:
000551:                                                                                                  #  SPECIAL CONSIDERATIONS--


000553:                                                                                                  #       1. MPAC +2  SAVED ONLY IN MARK DISPLAYS
000554:                                                                                                  #       2. GODSP(R),REGODSP(R),GOMARK(R) ALWAYS TURN ON THE FLASH IF ENTERED WITH A PASTE VERB REQUEST.
000555:                                                                                                  #       3. ALL NORMAL DISPLAYS ARE RESTARTABLE EXCEPT GODSP(R), REGODSP(R)
000556:                                                                                                  #       4. ALL EXTENDED VERBS WITH DISPLAYS SHOULD START WITH A TC TESTXACT AND FINISH WITH A TC ENDEXT.
000557:                                                                                                  #       5. GODSP(R) AND REGODSP(R) MUST BE IN THE SAME EBANK AND SUPERBANK AS THE LAST NORMAL DISPLAY RESTARTED
000558:                                                                                                  #          BY A .1 RESTART PHASE CHANGE.
000559:                                                                                                  #       6. IN ORDER TO SET UP A NON DISPLAY .1 RESTART POINT, THE USER MUST MAKE CERTAIN THAT RESTREG CONTAINS THE
000560:                                                                                                  #          CORRECT PRIORITY AND SUPERBANK AND THAT EBANKTEM CONTAINS THE CO
000561:                                                                                                  #       7. IF CLEANDSP IS RESTARTED VIA A .1 PHASE CHANGE, CAF ZERO SHOULD BE EXECUTED  BEFORE THE TC BANKCALL.
000562:


000564:                                                                                                  #  CALLING SEQUENCE FOR BLANKING
000565:                                                                                                  #                                                   CAF    BITX            X=1,2,3 BLANK R1,R2,R3 RESPECTIVELY
000566:                                                                                                  #                                                   TC     BLANKET
000567:                                                                                                  #                                                   ...    ...             RETURN TO USER HERE
000568:
000569:                                                                                                  #  IN ORDER TO USE BLANKET CORRECTLY THE USER MUST USE A DISPLAY ROUTINE THAT ENDS IN R FIRST FOLLOWED BY THE CALL
000570:                                                                                                  #  TO BLANKET AT THE IMMEDIATE RETURN LOC.
000571:
000572:    5464                                           BLOCK    02
000573:    4000                                           SETLOC   FFTAG4
000574:    4000                                           BANK
000575:
000576:    5464                                           COUNT*   $$/DSPLA
000577:    5464           54162        BLANKET            TS       MPAC       +6
000578:    5465           40160                           CS       PLAYTEM4
000579:    5466           70162                           MASK     MPAC       +6
000580:    5467           50161                           INDEX    MPAC       +5
000581:    5470           26160                           ADS      PLAYTEM4
000582:
000583:    5471           00002                           TC       Q
000584:
000585:    5472           04635        ENDMARK            TC       POSTJUMP
000586:    5473           20204                           CADR     MARKEND
000587:
000588:    5474           34755        CLEARMRK           CAF      ZERO
000589:    5475           55044                           TS       EXTVBACT
000590:
000591:    5476           00004                           INHINT
000592:    5477           44753                           CS       BIT1
000593:    5500           70100                           MASK     FLAGWRD4
000594:    5501           54100                           TS       FLAGWRD4
000595:
000596:    5502           00003                           RELINT
000597:    5503           00002                           TC       Q
000598:                                                                                                  #  ***ALL EXTENDED VERB ROUTINES THAT HAVE AT LEAST ONE FLASHING DISPLAY MUST TCF ENDMARK OR TCF ENDEXT WHEN
000599:                                                                                                  #  FINISHED.
000600:
000601: 10,2204                                           BANK     10
000602: 10,2000                                           SETLOC   DISPLAYS
000603: 10,2000                                           BANK
000604:
000605: 10,2204                                           COUNT*   $$/DSPLA
000606:                                                                                                  #  NTERONLY IS USED TO DIFFERENTIATE THE MARK ROUTINE WITH ONLY ONE RETURN TO THE USER FROM THE MARKING ROUTINE WIT
000607:                                                                                                  #  3 RETURNS TO THE USER. THIS ROUTINE IS ONLY USED BY GOMARK1 AND GOMARK1R.
000608:
000609: 10,2204           05474        MARKEND            TC       CLEARMRK
000610: 10,2205           13274                           TCF      MARKOVER
000611:
000612: 10,2206           54155        GOMARK             TS       PLAYTEM1                              #  ENTRANCE FOR MARK GODSP


000614: 10,2207           34735        GOMARS             CAF      BIT15                                 #  BIT15 SET FOR ALL MARK REQUESTS
000615: 10,2210           12353                           TCF      GOFLASH2
000616:
000617: 10,2211           34755        KLEENEX            CAF      ZERO                                  #  CLEAN OUT EXTENDED VERBS
000618: 10,2212           54155        GOMARKF            TS       PLAYTEM1                              #  ENTRANCE FOR MARK GOFLASH
000619:
000620: 10,2213           32704                           CAF      MARKFMSK                              #  MARK,FLASH
000621: 10,2214           12353                           TCF      GOFLASH2
000622:
000623: 10,2215           54155        GOMARK2            TS       PLAYTEM1                              #  MARK GOPERFS-3 AST. RETURNS
000624: 10,2216           33373        MARKFORM           CAF      MPERFMSK                              #  MARK, PERFORM, FLASH
000625: 10,2217           12353                           TCF      GOFLASH2
000626:
000627: 10,2220           54155        GOMARK3            TS       PLAYTEM1                              #  USED FOR 3COMP DECIMAL PERFORM
000628: 10,2221           33360                           CAF      MARK3MSK
000629: 10,2222           12353                           TCF      GOFLASH2
000630:
000631: 10,2223           54155        GOMARK4            TS       PLAYTEM1
000632: 10,2224           33361                           CAF      MARK4MSK                              #  MARK,PERFORM,FLASH,BLANK
000633: 10,2225           12353                           TCF      GOFLASH2
000634:
000635: 10,2226           54155        GOMARKR            TS       PLAYTEM1                              #  ENTR+NCE FOR MARK GODSPR
000636:
000637: 10,2227           34735                           CAF      BIT15
000638: 10,2230           12331                           TCF      GODSPR2
000639:
000640: 10,2231           54155        GOMARKFR           TS       PLAYTEM1                              #  ENTRANCE FOR MARK GOFLASHR
000641:
000642: 10,2232           32704                           CAF      MARKFMSK
000643: 10,2233           12512                           TCF      GODSPRS
000644:
000645: 10,2234           54155        GOMARK2R           TS       PLAYTEM1                              #  MARK GOPERFS-3 AST. RETS+ IMMEDIATE RET.
000646: 10,2235           33373                           CAF      MPERFMSK                              #  MARK, PERFORM, FLASH
000647: 10,2236           12512                           TCF      GODSPRS
000648:
000649: 10,2237           54155        GOMARK3R           TS       PLAYTEM1
000650: 10,2240           33360                           CAF      MARK3MSK
000651: 10,2241           12512                           TCF      GODSPRS
000652:
000653: 10,2242           34753        MAKEMARK           CAF      ONE
000654: 10,2243           02610                           TC       COPIES
000655:
000656: 10,2244           30100                           CA       FLAGWRD4                              #  IS NORM OR PRIO BUSY OR WAITING
000657: 10,2245           73374                           MASK     OCT34300
000658: 10,2246           10000                           CCS      A
000659: 10,2247           12305                           TCF      CHKPRIO
000660:
000661: 10,2250           30100                           CA       FLAGWRD4                              #  IS MARK SLEEPING DUE TO ASTRO BUSY
000662: 10,2251           74743                           MASK     MRKNVBIT
000663:
000664: 10,2252           00006                           EXTEND


000666: 10,2253           12255                           BZF      MARKPLAY                              #  NO
000667:
000668: 10,2254           15155                           TCF      ENDOFJOB
000669:
000670: 10,2255           00004        MARKPLAY           INHINT
000671: 10,2256           44756                           CS       FIVE                                  #  RESET MARK OVER NORM, SET MARK
000672: 10,2257           70100                           MASK     FLAGWRD4
000673: 10,2260           64753                           AD       ONE
000674: 10,2261           54100                           TS       FLAGWRD4
000675: 10,2262           00003                           RELINT
000676:
000677: 10,2263           41071        GOGOMARK           CS       MARKFLAG                              #  PERFORM
000678: 10,2264           74747                           MASK     BIT5
000679: 10,2265           10000                           CCS      A
000680: 10,2266           12271                           TCF      MARKCOP
000681: 10,2267           40370                           CS       MARKNV
000682: 10,2270           54370                           TS       MARKNV
000683:
000684: 10,2271           34753        MARKCOP            CAF      ONE                                   #  MARK INDEX
000685: 10,2272           12471                           TCF      PRIOPLAY
000686:
000687: 10,2273           30165        COPYTOGO           CA       MPAC2SAV
000688: 10,2274           54156                           TS       MPAC       +2
000689:
000690: 10,2275           50164        COPYPACS           INDEX    COPINDEX
000691: 10,2276           33404                           CAF      PRIOOCT
000692: 10,2277           54162                           TS       GENMASK
000693:
000694: 10,2300           50164                           INDEX    COPINDEX
000695: 10,2301           31070                           CAF      EBANKSAV
000696: 10,2302           54160                           TS       TEMPOR2                               #  ACTIVE EBANK AND FLAG
000697:
000698: 10,2303           54003                           TS       EBANK
000699:
000700: 10,2304           00002                           TC       Q
000701:
000702:                                                                                                  #  PINCHEK CHECKS TO SEE IF THE CURRENT MARK REQUEST IS MADE BY THE ASTRONAUT WHILE INTERRUPTING A GOPLAY DISPLAY
000703:                                                                                                  #  (A NORMAL OR A PRIO). IF THE ASTRONAUT TRIES TO MARK DURING A PRIO, THE CHECK FAIL LIGHT GOES ON AND THE MARK
000704:                                                                                                  #  REQUEST IS ENDED. IF HE TRIES TO MARK DURING A NORM, THE MARK IS ALLOWED. IN THIS CASE THE NORM IS PUT TO SLEEP
000705:                                                                                                  #  UNTIL ALL MARKING IS FINISHED.
000706:
000707:                                                                                                  #       IF THE MARK REQUEST COMES FROM THE PROGRAM DURING A TIME THE ASTRONAUT IS NOT INTERRUPTING A NORMAL OR A
000708:                                                                                                  #  PRIO, THE MARK REQUEST IS PUT TO SLEEP UNTIL THE +RESENT ACTIVE DISPLAY IS RESPONDED TO BY THE ASTRONAUT.
000709:
000710: 10,2305           30100        CHKPRIO            CA       FLAGWRD4                              #  MARK ATTEMPT DURING PRIO
000711: 10,2306           73127                           MASK     OCT24100
000712: 10,2307           10000                           CCS      A
000713: 10,2310           13327                           TCF      MARSLEEP
000714:
000715: 10,2311           40100                           CS       FLAGWRD4


000717: 10,2312           74751                           MASK     MKOVBIT                               #  SET MARK OVER NORM
000718: 10,2313           00004                           INHINT
000719: 10,2314           26100                           ADS      FLAGWRD4
000720:
000721: 10,2315           12407                           TCF      SETNORM
000722:
000723: 10,2316           30370        MARKPERF           CA       MARKNV
000724: 10,2317           74144                           MASK     VERBMASK
000725: 10,2320           12773                           TCF      NV50DSP
000726:
000727: 10,2321           54155        GODSP              TS       PLAYTEM1
000728:
000729: 10,2322           34755        GODSP2             CAF      ZERO
000730: 10,2323           12353                           TCF      GOFLASH2
000731:
000732: 10,2324           54155        GODSPRET           TS       PLAYTEM1                              #  ENTRANCE FOR A GODSP WITH A PASTE
000733:
000734: 10,2325           34746                           CAF      BIT6                                  #  SET BIT6 TO GO BACK TO USER AFTER NVSUB
000735: 10,2326           12353                           TCF      GOFLASH2
000736:
000737: 10,2327           54155        GODSPR             TS       PLAYTEM1
000738:
000739: 10,2330           34755        GODSPR1            CAF      ZERO
000740: 10,2331           54160        GODSPR2            TS       PLAYTEM4
000741:
000742: 10,2332           34755                           CAF      ZERO                                  #  * DONT MOVE
000743: 10,2333           12514                           TCF      GODSPRS1
000744:
000745:                                                                                                  #       CLEANDSP IS USED FOR CLEARING OUT A NORMAL DISPLAY THAT IS PRESENTLY ACTIVE OR A NORMAL DISPLAY THAT IS
000746:                                                                                                  #  SET UP TO BE STARTED OR RESTARTED.
000747:
000748:                                                                                                  #       NORMALLY THE USER WILL NOT NEED TO USE THIS ROUTINE SINCE A NEW NORMAL DISPLAY AUTOMATICALLY CLEARS OUT AN
000749:                                                                                                  #  OLD DISPLAY.
000750:
000751:                                                                                                  #       CALLING SEQUENCE FOR CLEANDSP-
000752:
000753:                                                                                                  #                TC      BANKCALL
000754:                                                                                                  #                CADR    CLEANDSP
000755:
000756: 10,2334           34755        CLEANDSP           CAF      ZERO
000757: 10,2335           54155        REFLASH            TS       PLAYTEM1
000758:
000759: 10,2336           33357                           CAF      REDOMASK                              #  FLASH AND PERMIT
000760: 10,2337           12353                           TCF      GOFLASH2
000761:
000762: 10,2340           54155        REFLASHR           TS       PLAYTEM1
000763:
000764: 10,2341           33357                           CAF      REDOMASK                              #  FLASH AND PERMIT
000765: 10,2342           12512                           TCF      GODSPRS
000766:


000768: 10,2343           54155        REGODSP            TS       PLAYTEM1
000769:
000770: 10,2344           34736                           CAF      BIT14
000771: 10,2345           12353                           TCF      GOFLASH2
000772:
000773: 10,2346           54155        REGODSPR           TS       PLAYTEM1
000774:
000775: 10,2347           34736                           CAF      BIT14
000776: 10,2350           12331                           TCF      GODSPR2
000777:
000778: 10,2351           54155        GOFLASH            TS       PLAYTEM1
000779:
000780: 10,2352           34750                           CAF      BIT4                                  #  LEAVE ONLY FLASH BIT SET
000781: 10,2353           54160        GOFLASH2           TS       PLAYTEM4
000782:
000783: 10,2354           02575                           TC       SAVELOCS
000784:
000785: 10,2355           00003                           RELINT
000786:
000787: 10,2356           12421                           TCF      MAKEPLAY                              #  BRANCH DIRECT WITH NO SEPARATE JOB CALL
000788:
000789: 10,2357           54155        PRIODSPR           TS       PLAYTEM1
000790:
000791: 10,2360           33376                           CAF      BITS7+4
000792: 10,2361           12512                           TCF      GODSPRS
000793:
000794: 10,2362           54155        PRIODSP            TS       PLAYTEM1
000795:
000796: 10,2363           33376        SETPRIO            CAF      BITS7+4
000797: 10,2364           12353                           TCF      GOFLASH2
000798:
000799: 10,2365           34755        MAKEPRIO           CAF      ZERO
000800: 10,2366           54164                           TS       COPINDEX
000801:
000802: 10,2367           03247                           TC       LINUSCHR
000803: 10,2370           12375                           TCF      HIPRIO                                #  LINUS RETURN
000804: 10,2371           30100                           CA       FLAGWRD4
000805: 10,2372           73415                           MASK     OCT20100                              #  IS PRIO IN ENDIDLE OR BUSY
000806: 10,2373           10000                           CCS      A
000807: 10,2374           12450                           TCF      PRIOBORT                              #  YES, ABORT
000808:
000809: 10,2375           30100        HIPRIO             CA       FLAGWRD4                              #  MARK ACTIVE
000810: 10,2376           75642                           MASK     OCT40400
000811: 10,2377           00006                           EXTEND
000812: 10,2400           12403                           BZF      ASKIFNRM                              #  NO
000813:
000814: 10,2401           34755        SETMARK            CAF      ZERO
000815: 10,2402           12647                           TCF      JOBXCHS
000816:
000817: 10,2403           30100        ASKIFNRM           CA       FLAGWRD4                              #  NORMAL ACTIVE


000819: 10,2404           73413                           MASK     OCT10200                              #  BITS 13+8
000820: 10,2405           00006                           EXTEND
000821: 10,2406           12411                           BZF      OKTOCOPY                              #  NO
000822:
000823: 10,2407           34753        SETNORM            CAF      ONE
000824: 10,2410           12647                           TCF      JOBXCHS
000825:
000826: 10,2411           02607        OKTOCOPY           TC       COPYNORM
000827: 10,2412           03060                           TC       WITCHONE
000828:
000829: 10,2413           05137                           TC       JOBWAKE
000830:
000831: 10,2414           03075                           TC       XCHTOEND
000832:
000833: 10,2415           30025        REDOPRIO           CA       TIME1                                 #  SAVE TIME PRIODSP SENT OUT
000834: 10,2416           55165                           TS       PRIOTIME
000835:
000836: 10,2417           34755        KEEPPRIO           CAF      ZERO                                  #  START UP PRIO DISPLAY
000837: 10,2420           12471                           TCF      PRIOPLAY
000838:
000839: 10,2421           30167        MAKEPLAY           CA       PRIORITY                              #  SAVE USERS PRIORITY
000840: 10,2422           77724                           MASK     PRIO37
000841: 10,2423           54163                           TS       USERPRIO
000842:
000843: 10,2424           37720                           CAF      PRIO33                                #  RAISE PRIORITY FOR FAST JOBS AFTER WAKE
000844: 10,2425           05146                           TC       PRIOCHNG
000845:
000846: 10,2426           30160                           CA       PLAYTEM4                              #  IS IT MARK OR PRIO OR NORM
000847: 10,2427           73375                           MASK     BITS15+7
000848: 10,2430           10000                           CCS      A
000849: 10,2431           12365                           TCF      MAKEPRIO                              #  ITS PRIO
000850: 10,2432           12434                           TCF      IFLEGAL
000851: 10,2433           12242                           TCF      MAKEMARK                              #  ITS MARK
000852:
000853: 10,2434           34752        IFLEGAL            CAF      TWO
000854: 10,2435           54164                           TS       COPINDEX
000855:
000856: 10,2436           03247                           TC       LINUSCHR
000857:
000858: 10,2437           12452                           TCF      OKTOPLAY                              #  LINUS RETURN
000859: 10,2440           41072                           CS       EBANKTEM
000860: 10,2441           74750                           MASK     BIT4
000861: 10,2442           10000                           CCS      A
000862: 10,2443           12452                           TCF      OKTOPLAY                              #  NO
000863:
000864: 10,2444           30100                           CA       FLAGWRD4                              #  WAS NORM ASLEEP
000865: 10,2445           73366                           MASK     NBUSMASK                              #  ARE ANY NORMS ASLEEP
000866: 10,2446           00006                           EXTEND
000867: 10,2447           12452                           BZF      OKTOPLAY                              #  NO
000868:


000870: 10,2450           05652        PRIOBORT           TC       POODOO
000871: 10,2451           01502                           OCT      1502
000872:
000873: 10,2452           02611        OKTOPLAY           TC       COPIES2
000874:
000875: 10,2453           30163                           CA       USERPRIO
000876: 10,2454           00006                           EXTEND
000877: 10,2455           04007                           ROR      SUPERBNK
000878: 10,2456           54366                           TS       RESTREG
000879:
000880: 10,2457           30100                           CA       FLAGWRD4                              #  PRIO OR MARK GOING
000881: 10,2460           73367                           MASK     PMMASK
000882: 10,2461           10000                           CCS      A
000883: 10,2462           12627                           TCF      GOSLEEPS                              #  YES
000884:
000885: 10,2463           12465                           TCF      +2
000886: 10,2464           12627                           TCF      GOSLEEPS                              #  MARK GOING
000887:
000888:                                                                                                  #  COULD PUT NORM BUSY CHECK HERE TO SAVE TIME
000889: 10,2465           03060                           TC       WITCHONE                              #  IS IT NVSUB BUSY, ENDIDLE OR NOONE
000890: 10,2466           05137                           TC       JOBWAKE
000891:
000892: 10,2467           03075                           TC       XCHTOEND
000893:
000894: 10,2470           34752        PLAYJUM1           CAF      TWO
000895: 10,2471           54164        PRIOPLAY           TS       COPINDEX
000896:
000897: 10,2472           12743                           TCF      GOPLAY
000898:
000899: 10,2473           54155        EXDSPRET           TS       PLAYTEM1
000900:
000901: 10,2474           37733                           CAF      BIT15+6
000902: 10,2475           12353                           TCF      GOFLASH2
000903:
000904: 10,2476           55045        GOPERF1            TS       NORMTEM1                              #  STORE DESIRED CHECKLIST VALUE
000905: 10,2477           33351                           CAF      V01N25                                #  USED TO DISPLAY CHECKLIST VALUE IN R1
000906:
000907: 10,2500           54155        GOPERFS            TS       PLAYTEM1
000908:
000909: 10,2501           33350                           CAF      PERFMASK                              #  LEAVE ONLY FLASH, PERFORM, BLANKING
000910: 10,2502           12353                           TCF      GOFLASH2
000911:
000912: 10,2503           54155        GOPERF2            TS       PLAYTEM1                              #  DESIRED VERB-NOUN TO DISPLAY R1,R2,R3
000913:
000914: 10,2504           33354                           CAF      PERF2MSK
000915: 10,2505           12353                           TCF      GOFLASH2
000916:
000917: 10,2506           02570        GOPERF4            TC       PURRS4
000918:
000919: 10,2507           12353                           TCF      GOFLASH2
000920:


000922: 10,2510           54155        GOFLASHR           TS       PLAYTEM1
000923:
000924: 10,2511           34750                           CAF      BIT4                                  #  LEAVE ONLY FLASH BIT SET
000925: 10,2512           54160        GODSPRS            TS       PLAYTEM4
000926:
000927: 10,2513           36244                           CAF      THREE
000928:
000929: 10,2514           00004        GODSPRS1           INHINT                                         #  IMMEDIATE RETURN IS CALL CADR +4
000930: 10,2515           54072                           TS       RUPTREG3
000931:
000932: 10,2516           30167                           CA       PRIORITY                              #  MAKE DISPLAY ONE HIGHER THAN USER
000933: 10,2517           77724                           MASK     PRIO37
000934: 10,2520           54063                           TS       NEWPRIO
000935:
000936: 10,2521           30160                           CA       PLAYTEM4                              #  IS THIS A FLASHING R DISPLAY
000937: 10,2522           74750                           MASK     BIT4
000938: 10,2523           10000                           CCS      A
000939: 10,2524           12532                           TCF      VACDSP                                #  YES, MAKE DSPLAY JOB A VAC
000940: 10,2525           30063                           CA       NEWPRIO                               #  NO, MAKE DSPLAY JOB A NOVAC
000941: 10,2526           05072                           TC       NOVAC
000942: 10,2527  E7,1467                                  EBANK=   WHOCARES
000943: 10,2527           02421 20067                     2CADR    MAKEPLAY
000944:
000945: 10,2531           12540                           TCF      BOTHJOBS
000946:
000947: 10,2532           30006        VACDSP             CA       BBANK
000948: 10,2533           00006                           EXTEND
000949: 10,2534           04007                           ROR      SUPERBNK
000950: 10,2535           54001                           TS       L
000951: 10,2536           33412                           CAF      MAKEGEN
000952: 10,2537           05116                           TC       SPVAC
000953:
000954: 10,2540           02575        BOTHJOBS           TC       SAVELOCS                              #  COPY TEMPS INTO PERMANENT REGISTERS
000955:
000956: 10,2541           00006                           EXTEND                                         #  SAVE NVWORD AND USERS MPAC +2
000957: 10,2542           30156                           DCA      MPAC       +1
000958: 10,2543           50064                           INDEX    LOCCTR
000959: 10,2544           52156                           DXCH     MPAC       +1
000960:
000961: 10,2545           00006                           EXTEND                                         #  SAVE USERS CADR, FLAGS AND EBANK
000962: 10,2546           30160                           DCA      MPAC       +3
000963: 10,2547           50064                           INDEX    LOCCTR
000964: 10,2550           52160                           DXCH     MPAC       +3
000965:
000966: 10,2551           30064                           CA       LOCCTR
000967: 10,2552           54161                           TS       MPAC       +5
000968:
000969: 10,2553           02602                           TC       SAVELOCR
000970: 10,2554           00003                           RELINT
000971:


000973: 10,2555           14640                           TCF      BANKJUMP                              #  CALL CADR +4
000974:
000975: 10,2556           55045        GOPERF1R           TS       NORMTEM1                              #  DESIRED CHECKLIST VALUE
000976:
000977: 10,2557           33351                           CAF      V01N25                                #  DISPLAYS CHECKLIST VALUE IN R1
000978:
000979: 10,2560           54155        GOPERFRS           TS       PLAYTEM1
000980:
000981: 10,2561           33350                           CAF      PERFMASK                              #  LEAVE ONLY FLASH, PERFORM, BLANKING
000982: 10,2562           12512                           TCF      GODSPRS
000983:
000984: 10,2563           54155        GOPERF2R           TS       PLAYTEM1                              #  DESIRED VERB-NOUN TO DISPLAY R1,R2,R3
000985:
000986: 10,2564           33354                           CAF      PERF2MSK
000987: 10,2565           12512                           TCF      GODSPRS
000988:
000989: 10,2566           02570        GOPERF4R           TC       PURRS4
000990:
000991: 10,2567           12512                           TCF      GODSPRS
000992:
000993: 10,2570           55144        PURRS4             TS       OPTION1                               #  DESIRED OPTION CODE
000994:
000995: 10,2571           33355                           CAF      V04N06
000996: 10,2572           54155                           TS       PLAYTEM1
000997:
000998: 10,2573           33356                           CAF      PERF4MSK                              #  FLASH,PERFORM AND BLANK R3
000999: 10,2574           00002                           TC       Q
001000:
001001: 10,2575           00004        SAVELOCS           INHINT
001002:
001003: 10,2576           43365                           CS       OCT3400                               #  EBANK BITS
001004: 10,2577           70160                           MASK     PLAYTEM4
001005: 10,2600           60003                           AD       EBANK
001006: 10,2601           54160                           TS       PLAYTEM4
001007:
001008: 10,2602           22002        SAVELOCR           LXCH     Q
001009:
001010: 10,2603           04645                           TC       MAKECADR
001011: 10,2604           54157                           TS       PLAYTEM3
001012:
001013: 10,2605           60072                           AD       RUPTREG3                              #  NOT USED FOR NON R ROUTINES
001014: 10,2606           00001                           TC       L
001015:
001016: 10,2607           34755        COPYNORM           CAF      ZERO
001017: 10,2610           54164        COPIES             TS       COPINDEX
001018: 10,2611           00004        COPIES2            INHINT
001019: 10,2612           30160                           CA       PLAYTEM4                              #  FLAGWORD
001020: 10,2613           50164                           INDEX    COPINDEX
001021: 10,2614           55070                           TS       EBANKSAV                              #  EQUIV TO DSPFLG
001022:


001024: 10,2615           73403                           MASK     CADRMASK                              #  FLASH AND GODSPRET
001025: 10,2616           00006                           EXTEND
001026: 10,2617           12623                           BZF      SKIPADD
001027:
001028: 10,2620           30157                           CA       PLAYTEM3
001029: 10,2621           50164                           INDEX    COPINDEX
001030: 10,2622           54372                           TS       CADRFLSH
001031:
001032: 10,2623           30155        SKIPADD            CA       PLAYTEM1                              #  VERB NOUN
001033: 10,2624           50164                           INDEX    COPINDEX
001034: 10,2625           54367                           TS       NVWORD
001035:
001036: 10,2626           13104                           TCF      RELINTQ
001037:
001038: 10,2627           50164        GOSLEEPS           INDEX    COPINDEX
001039: 10,2630           33404                           CA       PRIOOCT
001040: 10,2631           72633                           MASK     WAITMASK
001041: 10,2632           03416                           TC       UPENT2
001042: 10,2633           03004        WAITMASK           OCT      3004
001043: 10,2634           44753                           CS       ONE
001044: 10,2635           60164                           AD       COPINDEX
001045: 10,2636           54154                           TS       FACEREG
001046:
001047: 10,2637           50154        XCHSLEEP           INDEX    FACEREG
001048: 10,2640           33363                           CAF      WAKECADR
001049: 10,2641           00004                           INHINT
001050: 10,2642           05137                           TC       JOBWAKE                               #  FIND CADR IN JOB AREA
001051:
001052: 10,2643           03075                           TC       XCHTOEND                              #  CAUSES AWAKENED JOB TO GO TO ENDOFJOB
001053:
001054: 10,2644           50154                           INDEX    FACEREG                               #  REPLACE SAME CADR BUT NEW JOB AREA
001055: 10,2645           33363                           CAF      WAKECADR
001056: 10,2646           15133                           TCF      JOBSLEEP
001057:
001058: 10,2647           54154        JOBXCHS            TS       FACEREG                               #  CONTROLS TYPE OF DISPLAY PUT TO SLEEP
001059: 10,2650           03060                           TC       WITCHONE
001060: 10,2651           05137                           TC       JOBWAKE
001061: 10,2652           30154                           CA       FACEREG
001062: 10,2653           50064                           INDEX    LOCCTR
001063: 10,2654           54154                           TS       FACEREG
001064:
001065: 10,2655           32670                           CAF      XCHQADD
001066: 10,2656           03076                           TC       XCHNYLOC
001067:
001068: 10,2657           50154                           INDEX    FACEREG
001069: 10,2660           33405                           CA       MARKOCT
001070: 10,2661           73407                           MASK     IDLESLEP
001071: 10,2662           03434                           TC       DOWNENT2
001072: 10,2663           74004        IDLEMASK           OCT      74004                                 #  * DONT MOVE
001073:


001075: 10,2664           50154                           INDEX    FACEREG                               #  BIT SHOWS PRIO INTERRUPTED NORM OR MARK
001076: 10,2665           34747                           CA       BIT5                                  #  BIT5 FOR MARK, BIT4 FOR NORMAL
001077: 10,2666           64751                           AD       FOUR
001078: 10,2667           03416                           TC       UPENT2                                #  FLAG ROUTINE DOES RELINT
001079: 10,2670           02637        XCHQADD            GENADR   XCHSLEEP                              #  * DONT MOVE
001080: 10,2671           30100                           CA       FLAGWRD4
001081: 10,2672           74751                           MASK     MKOVBIT                               #  MARK OVER NORM ?
001082: 10,2673           10000                           CCS      A
001083: 10,2674           02255        GENMARK            TC       MARKPLAY                              #  USED AS GENADR FOR JOBWAKE
001084: 10,2675           12411                           TCF      OKTOCOPY
001085:
001086: 10,2676           34755        MARKWAKE           CAF      ZERO
001087: 10,2677           54160        WAKEPLAY           TS       TEMPOR2
001088:
001089: 10,2700           50160                           INDEX    TEMPOR2
001090: 10,2701           33377                           CA       BITS5+11
001091: 10,2702           64751                           AD       FOUR
001092: 10,2703           03434                           TC       DOWNENT2
001093: 10,2704           40010        MARKFMSK           OCT      40010                                 #  ***DONT MOVE
001094:
001095: 10,2705           50160                           INDEX    TEMPOR2
001096: 10,2706           33363                           CAF      WAKECADR
001097: 10,2707           00004                           INHINT
001098: 10,2710           05137                           TC       JOBWAKE
001099:
001100: 10,2711           13210                           TCF      ENDRET
001101:
001102:                                                                                                  #       ALL .1 RESTARTS BRANCH DIRECTLY TO INITDSP. NORMAL DISPLAYS ARE THEONLY DISPLAYS ALLOWED TO USE .1 RESTARTS
001103:                                                                                                  #  INITDSP FIRST RESTORES THE EBANK AND THE SUPERBANK TO THE MOST RECENT NORMAL EBANK AND SUPERBANK.
001104:                                                                                                  #       IF THE MOST RECENT NORMAL DISPLAY REQUEST WAS NOT FINISHED, CONTROLIS SENT BACK TO THE LAST NORMAL USER.
001105:                                                                                                  #  OTHERWISE THE NORMAL DISPLAY SET UP IN THE NORMAL DISPLAY REGS IS STARTED UP IMMEDIATELY.
001106:
001107: 10,2712           31072        INITDSP            CA       EBANKTEM                              #  RESTORE MOST RECECT NORMAL EBANK
001108: 10,2713           54003                           TS       EBANK
001109:
001110: 10,2714           30366                           CA       RESTREG                               #  SUPERBANK AND JOB PRIORITY
001111: 10,2715           04727                           TC       SUPERSW                               #  RESTORE SUPERBANK
001112:
001113: 10,2716           77724                           MASK     PRIO37
001114: 10,2717           05146                           TC       PRIOCHNG
001115:
001116: 10,2720           46244                           CS       THREE
001117: 10,2721           60374                           AD       TEMPFLSH
001118: 10,2722           14640                           TCF      BANKJUMP
001119:
001120: 10,2723           00003        PINBRNCH           RELINT                                         #  FOR GOPIN USERS
001121: 10,2724           31073                           CA       MARK2PAC                              #  NEEDED TO SAVE MPAC +2 FOR MARK USERS
001122: 10,2725           54156                           TS       MPAC       +2                         #  ONLY
001123:
001124: 10,2726           30100                           CA       FLAGWRD4                              #  PINBRANCH CONDITION


001126: 10,2727           77737                           MASK     PINMASK
001127: 10,2730           10000                           CCS      A
001128: 10,2731           12734                           TCF      +3
001129: 10,2732           13344                           TCF      ERASER                                #  ** NOTHING IN ENDIDLE
001130: 10,2733           12255                           TCF      MARKPLAY
001131:
001132: 10,2734           05504        NORMBNCH           TC       UPFLAG                                #  SET PINBRANCH BIT
001133: 10,2735           00105                           ADRES    PINBRFLG
001134:
001135: 10,2736           34736                           CAF      PRIODBIT                              #  PRIO INTERRUPTED
001136: 10,2737           70100                           MASK     FLAGWRD4
001137: 10,2740           10000                           CCS      A
001138: 10,2741           12417                           TCF      KEEPPRIO
001139:
001140: 10,2742           12470                           TCF      PLAYJUM1
001141:
001142: 10,2743           02275        NVDSP              TC       COPYPACS
001143:
001144: 10,2744           30160                           CA       TEMPOR2                               #  SET UP BLANK BITS FOR NVMONOPT IN CASE
001145: 10,2745           74757                           MASK     SEVEN                                 #  USER REQUESTS BLANKING MONITOR
001146: 10,2746           54001                           TS       L
001147:
001148: 10,2747           44737                           CS       BIT13
001149: 10,2750           50164                           INDEX    COPINDEX
001150: 10,2751           71070                           MASK     DSPFLG
001151: 10,2752           50164                           INDEX    COPINDEX
001152: 10,2753           55070                           TS       DSPFLG
001153:
001154: 10,2754           74744                           MASK     BIT8                                  #  BIT8 SET IF DEC MARK PERFORM DISPLAY
001155: 10,2755           54141                           TS       TEM1
001156:
001157: 10,2756           30156                           CA       MPAC       +2
001158: 10,2757           54165                           TS       MPAC2SAV
001159:
001160: 10,2760           55073                           TS       MARK2PAC                              #  * FOR DISK ONLY *
001161: 10,2761           50164                           INDEX    COPINDEX
001162: 10,2762           10367                           CCS      NVWORD
001163: 10,2763           12772                           TCF      NVDSP1
001164: 10,2764           13106                           TCF      CLEANEND
001165: 10,2765           40370                           CS       MARKNV
001166: 10,2766           54370                           TS       MARKNV                                #  IN CASE MARKPLAY AWAKENED AFTER SLEEPING
001167: 10,2767           76073                           MASK     LOW7
001168: 10,2770           63370                           AD       V05N00M1
001169: 10,2771           60141                           AD       TEM1
001170: 10,2772           64753        NVDSP1             AD       ONE
001171: 10,2773           04155        NV50DSP            TC       NVMONOPT
001172: 10,2774           13120                           TCF      REST                                  #  IF BUSY
001173: 10,2775           04433                           TC       FLASHOFF                              #  IN CASE OF EXTENDED VERB NON FLASH
001174:
001175: 10,2776           02273                           TC       COPYTOGO                              #  MPACS DESTROYED BY NVSUB


001177: 10,2777           05516                           TC       DOWNFLAG                              #  UNSET SLEEPING BITS
001178: 10,3000           00102                           ADRES    MRKNVFLG
001179: 10,3001           05516                           TC       DOWNFLAG
001180: 10,3002           00103                           ADRES    NRMNVFLG
001181: 10,3003           05516                           TC       DOWNFLAG
001182: 10,3004           00104                           ADRES    PRONVFLG
001183: 10,3005           30160        BLANKCHK           CA       TEMPOR2                               #  BLANK BITS 1,2,3 IF SET
001184: 10,3006           04255                           TC       BLANKSUB
001185: 10,3007           12743                           TCF      NVDSP
001186: 10,3010           34747        PERFCHEK           CAF      BIT5                                  #  BIT5 FOR PERFORM
001187: 10,3011           70160                           MASK     TEMPOR2
001188: 10,3012           10000                           CCS      A                                     #  IS THIS A GOPERF DISPLAY
001189: 10,3013           13036                           TCF      1STOR2ND                              #  YES
001190:
001191: 10,3014           34750        GOANIDLE           CAF      BIT4
001192: 10,3015           70160                           MASK     TEMPOR2
001193: 10,3016           10000                           CCS      A
001194: 10,3017           13133                           TCF      FLASHSUB                              #  IT IS
001195:
001196: 10,3020           40160                           CS       TEMPOR2                               #  IS THIS A GODSPRET
001197: 10,3021           74746                           MASK     BIT6
001198: 10,3022           10000                           CCS      A
001199: 10,3023           13030                           TCF      ISITN00
001200:
001201: 10,3024           50164                           INDEX    COPINDEX
001202: 10,3025           30372                           CA       CADRFLSH
001203: 10,3026           54157                           TS       MPAC       +3
001204: 10,3027           13226                           TCF      ENDIT
001205:
001206: 10,3030           50164        ISITN00            INDEX    COPINDEX                              #  IS THIS A PASTE
001207: 10,3031           30367                           CA       NVWORD
001208: 10,3032           76073                           MASK     LOW7                                  #  CHECK MADE FOR PINBRNCH AND PRIO ON MARK
001209: 10,3033           00006                           EXTEND
001210: 10,3034           13133                           BZF      FLASHSUB                              #  YES, ASSUME PASTE ALWAYS ON FLASH
001211:
001212: 10,3035           15155                           TCF      ENDOFJOB                              #  NOT FLASH, NOT GOPERF, THERFORE EXIT
001213:
001214: 10,3036           30160        1STOR2ND           CA       TEMPOR2
001215: 10,3037           74737                           MASK     BIT13
001216: 10,3040           10000                           CCS      A
001217: 10,3041           13014                           TCF      GOANIDLE                              #  SECOND
001218:
001219: 10,3042           34737                           CA       BIT13
001220: 10,3043           50164                           INDEX    COPINDEX
001221: 10,3044           27070                           ADS      DSPFLG
001222:
001223: 10,3045           22007                           ZL
001224: 10,3046           00006                           EXTEND                                         #  IS IT MARK
001225: 10,3047           62316                           BZMF     MARKPERF                              #  YES
001226:


001228: 10,3050           74740                           MASK     BIT12
001229: 10,3051           00006                           EXTEND
001230: 10,3052           13056                           BZF      V50PASTE
001231: 10,3053           41067                           CS       NVWORD1                               #  NVOWRD1= -0 IS V97. NVWORD1= -400 IS V99
001232: 10,3054           63414                           AD       V97N00
001233: 10,3055           12773                           TCF      NV50DSP
001234: 10,3056           33353        V50PASTE           CAF      V50N00
001235: 10,3057           12773                           TCF      NV50DSP                               #  DISPLAY SECOND PART OF GOPERF
001236:
001237: 10,3060           44747        WITCHONE           CS       BIT5                                  #  TURN OFF KEY RELEASE LIGHT
001238: 10,3061           00006                           EXTEND
001239: 10,3062           03011                           WAND     DSALMOUT
001240:
001241: 10,3063           30100                           CA       FLAGWRD4
001242: 10,3064           73371                           MASK     NVBUSMSK                              #  IS IT NVSUB ASLEEP
001243: 10,3065           10000                           CCS      A
001244: 10,3066           34753                           CAF      ONE
001245: 10,3067           54001                           TS       L
001246: 10,3070           34755                           CAF      ZERO
001247: 10,3071           50001                           INDEX    L
001248: 10,3072           57042                           XCH      CADRSTOR
001249:
001250: 10,3073           00004                           INHINT
001251: 10,3074           00002                           TC       Q
001252:
001253: 10,3075           34217        XCHTOEND           CAF      ENDINST                               #  TC ENDOFJOB REPLACES GENADR IN LOC FOR
001254: 10,3076           56064        XCHNYLOC           XCH      LOCCTR                                #  WAS THIS ADDRESS SLEEPING
001255: 10,3077           00006                           EXTEND
001256: 10,3100           63104                           BZMF     RELINTQ                               #  NO
001257: 10,3101           56064                           XCH      LOCCTR                                #  YES
001258: 10,3102           50064                           INDEX    LOCCTR
001259: 10,3103           54164                           TS       LOC
001260:
001261: 10,3104           00003        RELINTQ            RELINT
001262: 10,3105           00002                           TC       Q                                     #  BACK TO USER
001263:
001264: 10,3106           37717        CLEANEND           CAF      PRIO32                                #  ONE LOWER THAN DISPLAYS SLEEPING
001265: 10,3107           05105                           TC       FINDVAC
001266: 10,3110     0371                                  EBANK=   NVSAVE
001267: 10,3110           04231 04060                     2CADR    JAMTERM
001268:
001269:
001270: 10,3112           13134                           TCF      FLASHSUB   +1
001271:
001272: 10,3113           30100        ISITPRIO           CA       FLAGWRD4
001273: 10,3114           73141                           MASK     ITISMASK                              #  IS PINBRFLG, MARKIDFLG SET
001274: 10,3115           00006                           EXTEND
001275: 10,3116           12450                           BZF      PRIOBORT
001276: 10,3117           15155                           TCF      ENDOFJOB
001277:


001279: 10,3120           11042        REST               CCS      CADRSTOR                              #  IS SOMEONE IN ENDIDLE
001280: 10,3121           15155                           TCF      ENDOFJOB                              #  YES
001281: 10,3122           13124                           TCF      RESTSLEP
001282:
001283: 10,3123           15155                           TCF      ENDOFJOB
001284:
001285: 10,3124           30162        RESTSLEP           CA       GENMASK                               #  SET NVSLEEP BITS
001286: 10,3125           73372                           MASK     ASTROMSK
001287: 10,3126           03416                           TC       UPENT2
001288: 10,3127           24100        OCT24100           OCT      24100                                 #  *** DONT MOVE
001289:
001290: 10,3130           50164                           INDEX    COPINDEX
001291: 10,3131           33362                           CAF      NVCADR
001292: 10,3132           04442                           TC       NVSUBUSY                              #  BUSY OR ABORT IF ILLEGAL
001293:
001294: 10,3133           04427        FLASHSUB           TC       FLASHON
001295:
001296: 10,3134           30164                           CA       COPINDEX                              #  COPINDEX DESTROYED BY ENDIDLE
001297: 10,3135           54157                           TS       COPMPAC
001298:
001299: 10,3136           30162                           CA       GENMASK
001300: 10,3137           72663                           MASK     IDLEMASK
001301: 10,3140           03416                           TC       UPENT2
001302: 10,3141           40040        ITISMASK           OCT      40040                                 #  *** ENDIDLE ALLOW *** DONT MOVE
001303:
001304: 10,3142           31074                           CA       R1SAVE                                #  IS THIS A REPEAT AND RETURN DISPLAY
001305: 10,3143           50164                           INDEX    COPINDEX
001306: 10,3144           74751                           MASK     BIT3
001307: 10,3145           10000                           CCS      A
001308: 10,3146           13233                           TCF      UNSETR1                               #  YES
001309:
001310: 10,3147           11042                           CCS      CADRSTOR                              #  SEE IF SOMEONE ALREADY IN ENDIDLE
001311: 10,3150           13113                           TCF      ISITPRIO
001312: 10,3151           13153                           TCF      +2
001313: 10,3152           13113                           TCF      ISITPRIO
001314:
001315: 10,3153           04207                           TC       ENDIDLE
001316: 10,3154           13245        IDLERET1           TCF      TERMATE
001317:
001318: 10,3155           13264                           TCF      PROCEED                               #  ENDIDLE RETURNS HERE ON PROCEED
001319:
001320: 10,3156           43401                           CS       LOWLOAD
001321: 10,3157           60154                           AD       MPAC                                  #  VERBREG
001322: 10,3160           00006                           EXTEND
001323: 10,3161           26000                           DIM      A
001324: 10,3162           00006                           EXTEND
001325: 10,3163           13334                           BZF      LOADITIS                              #  V21 OR V22 OR V23 ON DSKY
001326: 10,3164           34752        OKTOENT            CAF      TWO
001327: 10,3165           54161        ENDOUT             TS       OUTHERE
001328:


001330: 10,3166           30100                           CA       FLAGWRD4                              #  CHECK NATURE OF ENDIDLE RETURN
001331: 10,3167           74101                           MASK     OCT60000
001332: 10,3170           10000                           CCS      A
001333: 10,3171           13174                           TCF      TIMECHEK                              #  PRIO ENDIDLE RETURN
001334: 10,3172           13302                           TCF      NORMRET                               #  NORMAL ENDIDLE RETURN
001335: 10,3173           13266                           TCF      MARKRET                               #  MARK ENDIDLE RETURN
001336:
001337: 10,3174           40025        TIMECHEK           CS       TIME1
001338: 10,3175           61165                           AD       PRIOTIME
001339: 10,3176           10000                           CCS      A
001340: 10,3177           40000                           COM
001341: 10,3200           67730                           AD       OCT37776
001342: 10,3201           64753                           AD       ONE
001343: 10,3202           63457                           AD       -2SEC
001344: 10,3203           00006                           EXTEND
001345: 10,3204           62417                           BZMF     KEEPPRIO
001346:
001347: 10,3205           13302                           TCF      NORMRET
001348:
001349: 10,3206           34753        NORMWAKE           CAF      ONE
001350: 10,3207           12677                           TCF      WAKEPLAY
001351:
001352: 10,3210           10161        ENDRET             CCS      OUTHERE
001353: 10,3211           64753                           AD       ONE
001354: 10,3212           13214                           TCF      +2                                    #  NORMAL ENDIDLE EXIT
001355: 10,3213           15155                           TCF      ENDOFJOB
001356: 10,3214           50157                           INDEX    COPMPAC
001357: 10,3215           60372                           AD       CADRFLSH
001358: 10,3216           54157                           TS       MPAC       +3
001359:
001360: 10,3217           30162                           CA       GENMASK                               #  REMOVE ENDIDLE AND PINBRANCH BITS
001361: 10,3220           73222                           MASK     PINIDMSK
001362: 10,3221           03434                           TC       DOWNENT2
001363: 10,3222           74044        PINIDMSK           OCT      74044                                 #  *** DONT MOVE
001364:
001365: 10,3223           46244                           CS       THREE                                 #  BLANK EVERYTHING EXCEPT MM
001366: 10,3224           04154                           TC       NVSUB
001367: 10,3225           13226                           TCF      +1
001368:
001369: 10,3226           30163        ENDIT              CA       USERPRIO                              #  RETURN TO USERS PRIORITY
001370: 10,3227           77724                           MASK     PRIO37
001371: 10,3230           05146                           TC       PRIOCHNG
001372: 10,3231           30157                           CA       MPAC       +3
001373: 10,3232           14640                           TCF      BANKJUMP
001374:
001375: 10,3233           50164        UNSETR1            INDEX    COPINDEX                              #  RESET REPEAT AND RETURN REQUEST
001376: 10,3234           44751                           CS       BIT3
001377: 10,3235           71074                           MASK     R1SAVE
001378: 10,3236           55074                           TS       R1SAVE
001379:


001381: 10,3237           34755                           CAF      ZERO                                  #  *** 205 ONLY MARKBRAN USERS IN
001382: 10,3240           04727                           TC       SUPERSW                               #  SUPERBANK 0
001383:
001384: 10,3241           36244                 -1        CAF      THREE                                 #  RETURN TO USERS IMMEDIATE RETURN LOC
001385: 10,3242           50164        IMMEDRET           INDEX    COPINDEX
001386: 10,3243           60372                           AD       CADRFLSH
001387: 10,3244           14640                           TCF      BANKJUMP
001388:
001389: 10,3245           34755        TERMATE            CAF      ZERO                                  #  ASTRONAUT TERMINATE (V34) RETURNS TO
001390: 10,3246           13165                           TCF      ENDOUT
001391:
001392: 10,3247           40160        LINUSCHR           CS       PLAYTEM4                              #  IS THIS A LINUS
001393: 10,3250           74736                           MASK     BIT14
001394: 10,3251           10000                           CCS      A
001395: 10,3252           16736                           TCF      Q+1                                   #  NO
001396: 10,3253           40157                           CS       PLAYTEM3                              #  YES, IS IT ALREADY IN ENDIDLE
001397: 10,3254           50164                           INDEX    COPINDEX
001398: 10,3255           60372                           AD       CADRFLSH
001399: 10,3256           00006                           EXTEND
001400: 10,3257           13261                           BZF      +2                                    #  YES
001401:
001402: 10,3260           00002                           TC       Q                                     #  NO
001403: 10,3261           11012                           CCS      DSPLOCK                               #  IS THE ASTRONAUT BUSY
001404: 10,3262           05155                           TC       ENDOFJOB                              #  END THE NEW DISPLAY, ITS ALREADY ACTIVE
001405: 10,3263           00002                           TC       Q
001406:
001407:                                                                                                  #  MORE LOGIC COULD BE INCORPORATED HERE TO MAKE SURE A RECYCLE IS A RECYCLAND CONVERSLY THAT A LOAD IS A LOAD.
001408: 10,3264           34753        PROCEED            CAF      ONE                                   #  ASTRONAUT PROCEED (V33) RETURNS
001409: 10,3265           13165                           TCF      ENDOUT
001410:
001411:                                                                                                  #       LASTPLAY CHECKS TO SEE IF (1) THE LAST NORMAL DISPLAY WAS EITHER INTERRUPTED BY A PRIO OR A MARK (MARK
001412:                                                                                                  #  COULD ONLY HAPPEN DURING PINBRANCH) OR IF (2) THE LAST NORMAL DISPLAY WAS REQUESTED WHILE A HIGHER PRIORITY
001413:                                                                                                  #  DISPLAY WAS GOING RESULTING IN THE NORMAL BEING PUT TO SLEEP.
001414:
001415:                                                                                                  #       IF EITHER OF THE ABOVE 2 CONDITIONS EXISTS , THE NORMAL DISPLAY IS AWAKENED TO GO TO PLAYJUM1 WHICH STARTS
001416:                                                                                                  #  UP THE MOST RECENT VALID NORMAL DISPLAY. IF THESE 2 CONDITIONS DO NOT EXIST, CONTROL GOES TO PLAYJUM1 WHICH IS
001417:                                                                                                  #  STARTED IMMEDIATELY WITH THE ASSUMPTION THAT THE MOST RECENT NORMAL DISPLAY IS ALREADY IN-ENDIDLE(DURING A
001418:                                                                                                  #  PINBRANCH) OR THAT A RESTART HAS OCCURRED AND THE DISPLAY CAN BE STARTED AS A .1 RESTART.
001419:
001420: 10,3266           46241        MARKRET            CS       SIX
001421: 10,3267           70100                           MASK     FLAGWRD4
001422: 10,3270           00004                           INHINT                                         #  *** MAY MOVE DISPLAY FLAGWORD OUT OF
001423: 10,3271           54100                           TS       FLAGWRD4
001424:
001425: 10,3272           00003                           RELINT                                         #  INHINT REALM
001426: 10,3273           13210                           TCF      ENDRET
001427:
001428: 10,3274           37746        MARKOVER           CAF      MINUS1                                #  RUPTREG2 IS - MEANS ENDOFJOB TO ENDRET
001429: 10,3275           54161                           TS       OUTHERE
001430:


001432: 10,3276           30100                           CA       FLAGWRD4                              #  IS ENDIDFLG SET
001433: 10,3277           74355                           MASK     PRIO30                                #  IS NORMAL OR PRIO IN ENDIDLE
001434: 10,3300           10000                           CCS      A
001435: 10,3301           12734                           TCF      NORMBNCH
001436:
001437: 10,3302           30100        NORMRET            CA       FLAGWRD4                              #  IS MARK SLEEPING
001438: 10,3303           73377                           MASK     BITS5+11                              #  OR WAITING
001439: 10,3304           10000                           CCS      A
001440: 10,3305           12676                           TCF      MARKWAKE
001441:
001442: 10,3306           30100                           CA       FLAGWRD4                              #  NO
001443: 10,3307           73400                           MASK     BITS4+10                              #  IS NORMAL INTERRUPTED OR WAITING
001444: 10,3310           10000                           CCS      A
001445: 10,3311           13206                           TCF      NORMWAKE                              #  YES
001446:
001447: 10,3312           31072                           CA       EBANKTEM                              #  NO, WAS IT A FLASH REQUEST
001448: 10,3313           74771                           MASK     OCT50                                 #  OR A GODSPRET
001449: 10,3314           10000                           CCS      A
001450: 10,3315           13210                           TCF      ENDRET                                #  YES
001451: 10,3316           30371                           CA       NVSAVE
001452: 10,3317           00006                           EXTEND
001453: 10,3320           13210                           BZF      ENDRET
001454:
001455: 10,3321           35025                           CAF      PRIO15
001456: 10,3322           00004                           INHINT
001457: 10,3323           05072                           TC       NOVAC
001458: 10,3324     0367                                  EBANK=   NVWORD
001459: 10,3324           02470 20060                     2CADR    PLAYJUM1
001460:
001461:
001462: 10,3326           13210                           TCF      ENDRET
001463:
001464: 10,3327           30100        MARSLEEP           CA       FLAGWRD4                              #  IS MARK ALREADY IN
001465: 10,3330           73377                           MASK     BITS5+11
001466: 10,3331           10000                           CCS      A
001467: 10,3332           15155                           TCF      ENDOFJOB                              #  YES
001468: 10,3333           12627                           TCF      GOSLEEPS
001469:
001470: 10,3334           50157        LOADITIS           INDEX    COPMPAC
001471: 10,3335           30367                           CA       NVWORD
001472: 10,3336           76073                           MASK     LOW7
001473: 10,3337           40000                           COM
001474: 10,3340           60155                           AD       MPAC       +1                         #  NOUNREG
001475: 10,3341           00006                           EXTEND
001476: 10,3342           13164                           BZF      OKTOENT                               #  NO, THEN LOAD IS VALID
001477: 10,3343           12723                           TCF      PINBRNCH                              #  YES, ACCEPT LOAD BUT ASK FOR LAST AGAIN
001478:
001479: 10,3344           46244        ERASER             CS       THREE                                 #  BLANK EVERYTHING EXCEPT MM
001480: 10,3345           04154                           TC       NVSUB
001481: 10,3346           15155                           TCF      ENDOFJOB


001483: 10,3347           15155                           TCF      ENDOFJOB
001484:
001485: 10,3350           00036        PERFMASK           OCT      0036                                  #  FLASH,PERFORM,BLANK R2 AND R3
001486: 10,3351           00231        V01N25             VN       00125
001487: 10,3352           01407        V06N07             VN       00607                                 #  GOPERF3 VN DISPLAY BEFORE V50
001488: 10,3353           14400        V50N00             VN       5000
001489: 10,3354           00030        PERF2MSK           OCT      00030                                 #  FLASH, PERFORM
001490: 10,3355           01006        V04N06             VN       00406
001491: 10,3356           00014        PERF4MSK           OCT      14                                    #  FLASH, BLANK R3
001492: 10,3357  10,2723               GOAGIN             EQUALS   PINBRNCH
001493: 10,3357           20010        REDOMASK           OCT      20010                                 #  BITS 4 AND 14
001494: 10,3360           40230        MARK3MSK           OCT      40230                                 #  MARK,DECIMAL NOUN, PERFORM,FLASH
001495: 10,3361           40036        MARK4MSK           OCT      40036                                 #  MARK,PERFORM,FLASH,BLANK 2 AND 3
001496: 10,3362           20415        NVCADR             CADR     REDOPRIO
001497: 10,3363           20255        WAKECADR           CADR     MARKPLAY
001498: 10,3364           20470                           CADR     PLAYJUM1
001499:
001500: 10,3365           03400        OCT3400            OCT      3400                                  #  EBANK MASK
001501: 10,3366           11210        NBUSMASK           OCT      11210
001502: 10,3367           66521        PMMASK             OCT      66521
001503: 10,3370     4144               VERBMASK           =        MID7                                  #  (OCT 37600)
001504: 10,3370           01177        V05N00M1           OCT      1177                                  #  V05 MINUS ONE
001505: 10,3371  10,2206               GOXDSP             EQUALS   GOMARK
001506: 10,3371  10,2226               GOXDSPR            EQUALS   GOMARKR
001507: 10,3371  10,2212               GOXDSPF            EQUALS   GOMARKF
001508: 10,3371  10,2231               GOXDSPFR           EQUALS   GOMARKFR
001509: 10,3371     5472               ENDEXT             EQUALS   ENDMARK
001510: 10,3371     0165               MPAC2SAV           EQUALS   BANKSET
001511: 10,3371           00700        NVBUSMSK           OCT      700
001512: 10,3372           00704        ASTROMSK           OCT      704
001513: 10,3373           40030        MPERFMSK           OCT      40030                                 #  BIT 15,5,4 FOR MARK,PERFORM,FLASH
001514: 10,3374           34300        OCT34300           OCT      34300
001515: 10,3375           40100        BITS15+7           OCT      40100
001516: 10,3376           00110        BITS7+4            OCT      110
001517: 10,3377     1070               DSPFLG             EQUALS   EBANKSAV
001518: 10,3377     1071               MARKFLAG           EQUALS   MARKEBAN
001519: 10,3377     1072               SAVEFLAG           EQUALS   EBANKTEM
001520: 10,3377           02020        BITS5+11           OCT      2020                                  #  * DONT MOVE
001521: 10,3400           01010        BITS4+10           OCT      1010                                  #  * DONT MOVE
001522: 10,3401           00026        LOWLOAD            DEC      22         B-14
001523: 10,3402           77730        BUSYMASK           OCT      77730
001524: 10,3403           00050        CADRMASK           OCT      50
001525: 10,3404     7737               PINMASK            EQUALS   13,14,15
001526: 10,3404  10,2743               GOPLAY             EQUALS   NVDSP
001527:                                                                                                  #  PRIOSAVE      EQUALS  R1SAVE
001528: 10,3404     0157               COPMPAC            EQUALS   MPAC       +3
001529: 10,3404     0160               TEMPOR2            EQUALS   MPAC       +4
001530: 10,3404     0161               OUTHERE            EQUALS   MPAC       +5
001531: 10,3404     0164               COPINDEX           EQUALS   LOC
001532: 10,3404     0163               USERPRIO           EQUALS   MODE


001534: 10,3404     0162               GENMASK            EQUALS   MPAC       +6
001535: 10,3404           20144        PRIOOCT            OCT      20144                                 #  PRIO
001536: 10,3405           42424        MARKOCT            OCT      42424                                 #  MARK
001537: 10,3406           11254                           OCT      11254                                 #  NORM
001538:
001539: 10,3407           74704        IDLESLEP           OCT      74704
001540: 10,3410           67777        OCT67777           OCT      67777
001541: 10,3411     5464               LINUS              EQUALS   BLANKET
001542: 10,3411     0154               FACEREG            EQUALS   MPAC
001543: 10,3411     0155               PLAYTEM1           EQUALS   MPAC       +1
001544: 10,3411     0157               PLAYTEM3           EQUALS   MPAC       +3
001545: 10,3411     0160               PLAYTEM4           EQUALS   MPAC       +4
001546: 10,3411           40420        OCT40420           OCT      40420
001547: 10,3412           02421        MAKEGEN            GENADR   MAKEPLAY
001548: 10,3413           10200        OCT10200           OCT      10200
001549: 10,3414           30200        V97N00             VN       09700                                 #  PASTE FOR V97 OR V99
001550: 10,3415           20100        OCT20100           OCT      20100

End of include-file DISPLAY_INTERFACE_ROUTINES.agc.  Parent file is MAIN.agc


