
Source Code


000002:                                                                                                  ## Copyright:   Public domain.
000003:                                                                                                  ## Filename:    EXECUTIVE.agc
000004:                                                                                                  ## Purpose:     A section of LUM69 revision 2.
000005:                                                                                                  ##              It is part of the reconstructed source code for the flown
000006:                                                                                                  ##              version of the flight software for the Lunar Module's (LM)
000007:                                                                                                  ##              Apollo Guidance Computer (AGC) for Apollo 10. The code has
000008:                                                                                                  ##              been recreated from a copy of Luminary revsion 069, using
000009:                                                                                                  ##              changes present in Luminary 099 which were described in
000010:                                                                                                  ##              Luminary memos 75 and 78. The code has been adapted such
000011:                                                                                                  ##              that the resulting bugger words exactly match those specified
000012:                                                                                                  ##              for LUM69 revision 2 in NASA drawing 2021152B, which gives
000013:                                                                                                  ##              relatively high confidence that the reconstruction is correct.
000014:                                                                                                  ## Reference:   pp. 1098-1111
000015:                                                                                                  ## Assembler:   yaYUL
000016:                                                                                                  ## Contact:     Ron Burkey <info@sandroid.org>.
000017:                                                                                                  ## Website:     www.ibiblio.org/apollo/index.html
000018:                                                                                                  ## Mod history: 2019-07-27 MAS  Created from Luminary 69.
000019:


000021:    5072                                           BLOCK    02
000022:                                                                                                  #           TO ENTER A JOB REQUEST REQUIRING NO VAC AREA:
000023:
000024:    5072                                           COUNT*   $$/EXEC
000025:    5072           00004        NOVAC              INHINT
000026:    5073           65164                           AD       FAKEPRET                              #  LOC(MPAC +6) - LOC(QPRET)
000027:    5074           54063                           TS       NEWPRIO                               #  PRIORITY OF NEW JOB + NOVAC C(FIXLOC)
000028:
000029:    5075           00006                           EXTEND
000030:    5076           50002                           INDEX    Q                                     #  Q WILL BE UNDISTURBED THROUGHOUT.
000031:    5077           30001                           DCA      0                                     #  2CADR OF JOB ENTERED.
000032:    5100           52066                           DXCH     NEWLOC
000033:    5101           35163                           CAF      EXECBANK
000034:    5102           56004                           XCH      FBANK
000035:    5103           54061                           TS       EXECTEM1
000036:    5104           12622                           TCF      NOVAC2                                #  ENTER EXECUTIVE BANK.
000037:
000038:                                                                                                  #           TO ENTER A JOB REQUEST REQUIRING A VAC AREA - E.G., ALL (PARTIALLY) INTERPRETIVE JOBS.
000039:
000040:    5105           00004        FINDVAC            INHINT
000041:    5106           54063                           TS       NEWPRIO
000042:    5107           00006                           EXTEND
000043:    5110           50002                           INDEX    Q
000044:    5111           30001                           DCA      0
000045:    5112           52066        SPVACIN            DXCH     NEWLOC
000046:    5113           35163                           CAF      EXECBANK
000047:    5114           56004                           XCH      FBANK
000048:    5115           12576                           TCF      FINDVAC2                              #  OFF TO EXECUTIVE SWITCHED-BANK.
000049:
000050:                                                                                                  #           TO ENTER A FINDVAC WITH THE PRIORITY IN NEWPRIO TO THE 2CADR ARRIVING IN A AND L:
000051:
000052:                                                                                                  #           USERS OF SPVAC MUST INHINT BEFORE STORING IN NEWPRIO.
000053:
000054:    5116           56002        SPVAC              XCH      Q
000055:    5117           67745                           AD       NEG2
000056:    5120           56002                           XCH      Q
000057:    5121           15112                           TCF      SPVACIN
000058:
000059:                                                                                                  #           TO SUSPEND A BASIC JOB SO A HIGHER PRIORITY JOB MAY BE SERVICED:
000060:
000061:    5122           22002        CHANG1             LXCH     Q
000062:    5123           35163                           CAF      EXECBANK
000063:    5124           56006                           XCH      BBANK
000064:    5125           12703                           TCF      CHANJOB
000065:
000066:                                                                                                  #           TO SUSPEND AN INTERPRETIVE JOB:
000067:
000068:    5126           40164        CHANG2             CS       LOC                                   #  NEGATIVE LOC SHOWS JOB = INTERPRETIVE.
000069:                                                                                                  #           ITRACE (4) REFERS TO "CHANG2".
000070:    5127           54001                           TS       L
000071:


000073:    5130           35163                 +2        CAF      EXECBANK
000074:    5131           54006                           TS       BBANK
000075:    5132           12702                           TCF      CHANJOB    -1
000076:


000078:                                                                                                  #           TO VOLUNTARILY SUSPEND A JOB UNTIL THE COMPLETION OF SOME ANTICIPATED EVENT (I/O EVENT ETC.):
000079:
000080:    5133           54164        JOBSLEEP           TS       LOC
000081:    5134           35163                           CAF      EXECBANK
000082:    5135           54004                           TS       FBANK
000083:    5136           12773                           TCF      JOBSLP1
000084:
000085:                                                                                                  #           TO AWAKEN A JOB PUT TO SLEEP IN THE ABOVE FASHION:
000086:
000087:    5137           00004        JOBWAKE            INHINT
000088:    5140           54065                           TS       NEWLOC
000089:    5141           44752                           CS       TWO                                   #  EXIT IS VIA FINDVAC/NOVAC PROCEDURES.
000090:    5142           26002                           ADS      Q
000091:    5143           35163                           CAF      EXECBANK
000092:    5144           56004                           XCH      FBANK
000093:    5145           13020                           TCF      JOBWAKE2
000094:
000095:                                                                                                  #           TO CHANGE THE PRIORITY OF A JOB CURRENTLY UNDER EXECUTION:
000096:
000097:    5146           00004        PRIOCHNG           INHINT                                         #  NEW PRIORITY ARRIVES IN A. RETURNS TO
000098:    5147           54063                           TS       NEWPRIO                               #  CALLER AS SOON AS NEW JOB PRIORITY IS
000099:    5150           35163                           CAF      EXECBANK                              #  HIGHEST.  PREPARE FOR POSSIBLE BASIC-
000100:    5151           56006                           XCH      BBANK                                 #  STYLE CHANGE-JOB.
000101:    5152           54165                           TS       BANKSET
000102:    5153           30002                           CA       Q
000103:    5154           13067                           TCF      PRIOCH2
000104:
000105:                                                                                                  #           TO REMOVE A JOB FROM EXECUTIVE CONSIDERATIONS:
000106:
000107:    5155           35163        ENDOFJOB           CAF      EXECBANK
000108:    5156           54004                           TS       FBANK
000109:    5157           13100                           TCF      ENDJOB1
000110:
000111:    5160           30061        ENDFIND            CA       EXECTEM1                              #  RETURN TO CALLER AFTER JOB ENTRY
000112:    5161           54004                           TS       FBANK                                 #  COMPLETE.
000113:    5162           16740                           TCF      Q+2
000114:    5163           02576        EXECBANK           CADR     FINDVAC2
000115:
000116:    5164           00110        FAKEPRET           ADRES    MPAC       -36D                       #  LOC(MPAC +6) - LOC(QPRET)
000117:


000119:                                                                                                  #           LOCATE AN AVAILABLE VAC AREA.
000120:
000121: 01,2576                                           BANK     01
000122: 01,2576                                           COUNT*   $$/EXEC
000123: 01,2576           54061        FINDVAC2           TS       EXECTEM1                              #  (SAVE CALLER'S BANK FIRST.)
000124: 01,2577           10400                           CCS      VAC1USE
000125: 01,2600           12615                           TCF      VACFOUND
000126: 01,2601           10454                           CCS      VAC2USE
000127: 01,2602           12615                           TCF      VACFOUND
000128: 01,2603           10530                           CCS      VAC3USE
000129: 01,2604           12615                           TCF      VACFOUND
000130: 01,2605           10604                           CCS      VAC4USE
000131: 01,2606           12615                           TCF      VACFOUND
000132: 01,2607           10660                           CCS      VAC5USE
000133: 01,2610           12615                           TCF      VACFOUND
000134: 01,2611           22061                           LXCH     EXECTEM1
000135: 01,2612           30002                           CA       Q
000136: 01,2613           05710                           TC       BAILOUT1
000137: 01,2614           01201                           OCT      1201                                  #  NO VAC AREAS.
000138:
000139: 01,2615           64752        VACFOUND           AD       TWO                                   #  RESERVE THIS VAC AREA BY STORING A ZERO
000140: 01,2616           22007                           ZL                                             #  IN ITS VAC USE REGISTER AND STORE THE
000141: 01,2617           50000                           INDEX    A                                     #  ADDRESS OF THE FIRST WORD OF IT IN THE
000142: 01,2620           21777                           LXCH     0          -1                         #  LOW NINE BITS OF THE PRIORITY WORD.
000143: 01,2621           26063                           ADS      NEWPRIO
000144:
000145: 01,2622           34755        NOVAC2             CAF      ZERO                                  #  NOVAC ENTERS HERE. FIND A CORE SET.
000146: 01,2623           54064                           TS       LOCCTR
000147: 01,2624           32631                           CAF      NO.CORES                              #  SEVEN SETS OF ELEVEN REGISTERS EACH.
000148: 01,2625           54062        NOVAC3             TS       EXECTEM2
000149: 01,2626           50064                           INDEX    LOCCTR
000150: 01,2627           10167                           CCS      PRIORITY                              #  EACH PRIORITY REGISTER CONTAINS -0 IF
000151: 01,2630           12671                           TCF      NEXTCORE                              #  THE CORRESPONDING CORE SET IS AVAILABLE.
000152: 01,2631           00007        NO.CORES           DEC      7          B-14
000153: 01,2632           12671                           TCF      NEXTCORE                              #  AN ACTIVE JOB HAS A POSITIVE PRIORITY
000154:                                                                                                  #  BUT A DORMANT JOB'S PRIORITY IS NEGATIVE
000155:


000157: 01,2633           30063        CORFOUND           CA       NEWPRIO                               #  SET THE PRIORITY OF THIS JOB IN THE CORE
000158: 01,2634           50064                           INDEX    LOCCTR                                #  SET'S PRIORITY REGISTER AND SET THE
000159: 01,2635           54167                           TS       PRIORITY                              #  JOB'S PUSH-DOWN POINTER AT THE BEGINNING
000160: 01,2636           75004                           MASK     LOW9                                  #  OF THE WORK AREA AND OVERFLOW INDICATOR
000161: 01,2637           50064                           INDEX    LOCCTR
000162: 01,2640           54166                           TS       PUSHLOC                               #  OFF TO PREPARE FOR INTERPRETIVE PROGRAMS
000163:
000164: 01,2641           10064                           CCS      LOCCTR                                #  IF CORE SET ZERO IS BEING LOADED, SET UP
000165: 01,2642           12656                           TCF      SETLOC                                #  OVFIND AND FIXLOC IMMEDIATELY.
000166: 01,2643           54121                           TS       OVFIND
000167: 01,2644           30166                           CA       PUSHLOC
000168: 01,2645           54120                           TS       FIXLOC
000169:
000170: 01,2646           10067        SPECTEST           CCS      NEWJOB                                #  SEE IF ANY ACTIVE JOBS WAITING (RARE).
000171: 01,2647           12656                           TCF      SETLOC                                #  MUST BE AWAKENED BUT UNCHANGED JOB.
000172: 01,2650           05677                           TC       CCSHOLE
000173: 01,2651           05677                           TC       CCSHOLE
000174: 01,2652           54067                           TS       NEWJOB                                #  +0 SHOWS ACTIVE JOB ALREADY SET.
000175: 01,2653           52066                           DXCH     NEWLOC
000176: 01,2654           52165                           DXCH     LOC
000177: 01,2655           15160                           TCF      ENDFIND
000178:
000179: 01,2656           52066        SETLOC             DXCH     NEWLOC                                #  SET UP THE LOCATION REGISTERS FOR THIS
000180: 01,2657           50064                           INDEX    LOCCTR
000181: 01,2660           52165                           DXCH     LOC
000182: 01,2661           50067                           INDEX    NEWJOB                                #  THIS INDEX INSTRUCTION INSURES THAT THE
000183: 01,2662           40167                           CS       PRIORITY                              #  HIGHEST ACTIVE PRIORITY WILL BE COMPARED
000184: 01,2663           60063                           AD       NEWPRIO                               #  WITH THE NEW PRIORITY TO SEE IF NEWJOB
000185: 01,2664           00006                           EXTEND                                         #  SHOULD BE SET TO SIGNAL A SWITCH.
000186: 01,2665           65160                           BZMF     ENDFIND
000187: 01,2666           30064                           CA       LOCCTR                                #  LOCCTR IS LEFT SET AT THIS CORE SET IF
000188: 01,2667           54067                           TS       NEWJOB                                #  THE CALLER WANTS TO LOAD ANY MPAC
000189: 01,2670           15160                           TCF      ENDFIND                               #  REGISTERS, ETC.
000190:
000191: 01,2671           33030        NEXTCORE           CAF      COREINC
000192: 01,2672           26064                           ADS      LOCCTR
000193: 01,2673           10062                           CCS      EXECTEM2
000194: 01,2674           12625                           TCF      NOVAC3
000195: 01,2675           22061                           LXCH     EXECTEM1
000196: 01,2676           30002                           CA       Q
000197: 01,2677           05710                           TC       BAILOUT1                              #  NO CORE SETS AVAILABLE.
000198: 01,2700           01202                           OCT      1202
000199:


000201:                                                                                                  #           THE FOLLOWING ROUTINE SWAPS CORE SET 0 WITH THAT WHOSE RELATIVE ADDRESS IS IN NEWJOB.
000202:
000203: 01,2701           22164                 -2        LXCH     LOC
000204: 01,2702           30165                 -1        CAE      BANKSET                               #  BANKSET, NOT BBANK, HAS RIGHT CONTENTS.
000205: 01,2703           00004        CHANJOB            INHINT
000206: 01,2704           00006                           EXTEND
000207: 01,2705           04007                           ROR      SUPERBNK                              #  PICK UP CURRENT SBANK FOR BBCON
000208: 01,2706           56001                           XCH      L                                     #  LOC IN A AND BBCON IN L.
000209: 01,2707           50067                 +4        INDEX    NEWJOB                                #  SWAP LOC AND BANKSET.
000210: 01,2710           52165                           DXCH     LOC
000211: 01,2711           52165                           DXCH     LOC
000212:
000213: 01,2712           30165                           CAE      BANKSET
000214: 01,2713           00006                           EXTEND
000215: 01,2714           01007                           WRITE    SUPERBNK                              #  SET SBANK FOR NEW JOB.
000216: 01,2715           52155                           DXCH     MPAC                                  #  SWAP MULTI-PURPOSE ACCUMULATOR AREAS.
000217: 01,2716           50067                           INDEX    NEWJOB
000218: 01,2717           52155                           DXCH     MPAC
000219: 01,2720           52155                           DXCH     MPAC
000220: 01,2721           52157                           DXCH     MPAC       +2
000221: 01,2722           50067                           INDEX    NEWJOB
000222: 01,2723           52157                           DXCH     MPAC       +2
000223: 01,2724           52157                           DXCH     MPAC       +2
000224: 01,2725           52161                           DXCH     MPAC       +4
000225: 01,2726           50067                           INDEX    NEWJOB
000226: 01,2727           52161                           DXCH     MPAC       +4
000227: 01,2730           52161                           DXCH     MPAC       +4
000228: 01,2731           52163                           DXCH     MPAC       +6
000229: 01,2732           50067                           INDEX    NEWJOB
000230: 01,2733           52163                           DXCH     MPAC       +6
000231: 01,2734           52163                           DXCH     MPAC       +6
000232:
000233: 01,2735           34755                           CAF      ZERO
000234: 01,2736           56121                           XCH      OVFIND                                #  MAKE PUSHLOC NEGATIVE IF OVFIND NZ.
000235: 01,2737           00006                           EXTEND
000236: 01,2740           12743                           BZF      +3
000237: 01,2741           40166                           CS       PUSHLOC
000238: 01,2742           54166                           TS       PUSHLOC
000239:
000240: 01,2743           52167                           DXCH     PUSHLOC
000241: 01,2744           50067                           INDEX    NEWJOB
000242: 01,2745           52167                           DXCH     PUSHLOC
000243: 01,2746           52167                           DXCH     PUSHLOC                               #  SWAPS PUSHLOC AND PRIORITY.
000244: 01,2747           35004                           CAF      LOW9                                  #  SET FIXLOC TO BASE OF VAC AREA.
000245: 01,2750           70167                           MASK     PRIORITY
000246: 01,2751           54120                           TS       FIXLOC
000247:
000248: 01,2752           10166                           CCS      PUSHLOC                               #  SET OVERFLOW INDICATOR ACCORDING TO
000249: 01,2753           34755                           CAF      ZERO
000250: 01,2754           12761                           TCF      ENDPRCHG   -1
000251:


000253: 01,2755           40166                           CS       PUSHLOC
000254: 01,2756           54166                           TS       PUSHLOC
000255: 01,2757           34753                           CAF      ONE
000256: 01,2760           56121                           XCH      OVFIND
000257: 01,2761           54067                           TS       NEWJOB
000258:
000259: 01,2762           00003        ENDPRCHG           RELINT
000260: 01,2763           52165                           DXCH     LOC                                   #  BASIC JOBS HAVE POSITIVE ADDRESSES, SO
000261: 01,2764           00006                           EXTEND                                         #  DISPATCH WITH A DTCB.
000262: 01,2765           62767                           BZMF     +2                                    #  IF INTERPRETIVE, SET UP EBANK, ETC.
000263: 01,2766           52006                           DTCB
000264:


000266: 01,2767           40000                           COM                                            #  EPILOGUE TO JOB CHANGE FOR INTERPRETIVE
000267: 01,2770           64753                           AD       ONE
000268: 01,2771           54164                           TS       LOC                                   #  RESUME.
000269: 01,2772           16047                           TCF      INTRSM
000270:
000271:                                                                                                  #           COMPLETE JOBSLEEP PREPARATIONS.
000272:
000273: 01,2773           00004        JOBSLP1            INHINT
000274: 01,2774           40167                           CS       PRIORITY                              #  NNZ PRIORITY SHOWS JOB ASLEEP.
000275: 01,2775           54167                           TS       PRIORITY
000276: 01,2776           36073                           CAF      LOW7
000277: 01,2777           70006                           MASK     BBANK
000278: 01,3000           00006                           EXTEND
000279: 01,3001           04007                           ROR      SUPERBNK                              #  SAVE OLD SUPERBANK VALUE.
000280: 01,3002           54165                           TS       BANKSET
000281: 01,3003           44755                           CS       ZERO
000282: 01,3004           54131        JOBSLP2            TS       BUF        +1                         #  HOLDS - HIGHEST PRIORITY.
000283: 01,3005           13115                           TCF      EJSCAN                                #  SCAN FOR HIGHEST PRIORITY ALA ENDOFJOB.
000284:
000285: 01,3006           00004        NUCHANG2           INHINT                                         #  QUICK... DONT LET NEWJOB CHANGE TO +0.
000286: 01,3007           10067                           CCS      NEWJOB
000287: 01,3010           13013                           TCF      +3                                    #  NEWJOB STILL PNZ
000288: 01,3011           00003                           RELINT                                         #  NEW JOB HAS CHANGED TO +0. WAKE UP JOB
000289: 01,3012           13213                           TCF      ADVAN      +2                         #  VIA NUDIRECT. (VERY RARE CASE.)
000290:
000291: 01,3013           34752                           CAF      TWO
000292: 01,3014           00006                           EXTEND
000293: 01,3015           05011                           WOR      DSALMOUT                              #  TURN ON ACTIVITY LIGHT
000294: 01,3016           52165                           DXCH     LOC                                   #  AND SAVE ADDRESS INFO FOR BENEFIT OF
000295: 01,3017           12707                           TCF      CHANJOB    +4                         #   POSSIBLE SLEEPING JOB.
000296:


000298:                                                                                                  #           TO WAKE UP A JOB, EACH CORE SET IS FOUND TO LOCATE ALL JOBS WHICH ARE ASLEEP. IF THE FCADR IN THE
000299:                                                                                                  #  LOC REGISTER OF ANY SUCH JOB MATCHES THAT SUPPLIED BY THE CALLER, THAT JOB IS AWAKENED. IF NO JOB IS FOUND,
000300:                                                                                                  #  LOCCTR IS SET TO -1 AND NO FURTHER ACTION TAKES PLACE.
000301:
000302: 01,3020           54061        JOBWAKE2           TS       EXECTEM1
000303: 01,3021           34755                           CAF      ZERO                                  #  BEGIN CORE SET SCAN.
000304: 01,3022           54064                           TS       LOCCTR
000305: 01,3023           32631                           CAF      NO.CORES
000306: 01,3024           54062        JOBWAKE4           TS       EXECTEM2
000307: 01,3025           50064                           INDEX    LOCCTR
000308: 01,3026           10167                           CCS      PRIORITY
000309: 01,3027           13032                           TCF      JOBWAKE3                              #  ACTIVE JOB - CHECK NEXT CORE SET.
000310: 01,3030           00014        COREINC            DEC      12         B-14                       #  12 REGISTERS PER CORE SET.
000311: 01,3031           13041                           TCF      WAKETEST                              #  SLEEPING JOB - SEE IF CADR MATCHES.
000312:
000313: 01,3032           33030        JOBWAKE3           CAF      COREINC
000314: 01,3033           26064                           ADS      LOCCTR
000315: 01,3034           10062                           CCS      EXECTEM2
000316: 01,3035           13024                           TCF      JOBWAKE4
000317: 01,3036           44753                           CS       ONE                                   #  EXIT IF SLEEPING JOB NOT FOUND.
000318: 01,3037           54064                           TS       LOCCTR
000319: 01,3040           15160                           TCF      ENDFIND
000320:
000321: 01,3041           40065        WAKETEST           CS       NEWLOC
000322: 01,3042           50064                           INDEX    LOCCTR
000323: 01,3043           60164                           AD       LOC
000324: 01,3044           00006                           EXTEND
000325: 01,3045           13047                           BZF      +2                                    #  IF MATCH.
000326: 01,3046           13032                           TCF      JOBWAKE3                              #  EXAMINE NEXT CORE SET IF NO MATCH.
000327:
000328: 01,3047           50064                           INDEX    LOCCTR                                #  RE-COMPLEMENT PRIORITY TO SHOW JOB AWAKE
000329: 01,3050           40167                           CS       PRIORITY
000330: 01,3051           54063                           TS       NEWPRIO
000331: 01,3052           50064                           INDEX    LOCCTR
000332: 01,3053           54167                           TS       PRIORITY
000333:
000334: 01,3054           44350                           CS       FBANKMSK                              #  MAKE UP THE 2CADR OF THE WAKE ADDRESS
000335: 01,3055           70065                           MASK     NEWLOC                                #  USING THE CADR IN NEWLOC AND THE EBANK
000336: 01,3056           64741                           AD       2K                                    #  HALF OF BBANK SAVED IN BANKSET.
000337: 01,3057           56065                           XCH      NEWLOC
000338: 01,3060           74350                           MASK     FBANKMSK
000339: 01,3061           50064                           INDEX    LOCCTR
000340: 01,3062           60165                           AD       BANKSET
000341: 01,3063           54066                           TS       NEWLOC     +1
000342:
000343: 01,3064           10064                           CCS      LOCCTR                                #  SPECIAL TREATMENT IF THIS JOB WAS
000344: 01,3065           12656                           TCF      SETLOC                                #  ALREADY IN THE RUN (0) POSITION.
000345: 01,3066           12646                           TCF      SPECTEST
000346:


000348:                                                                                                  #           PRIORITY CHANGE.  CHANGE THE CONTENTS OF PRIORITY AND SCAN FOR THE JOB OF HIGHEST PRIORITY.
000349:
000350: 01,3067           54164        PRIOCH2            TS       LOC
000351: 01,3070           34755                           CAF      ZERO                                  #  SET FLAG TO TELL ENDJOB SCANNER IF THIS
000352: 01,3071           54130                           TS       BUF                                   #  JOB IS STILL HIGHEST PRIORITY.
000353: 01,3072           35004                           CAF      LOW9
000354: 01,3073           70167                           MASK     PRIORITY
000355: 01,3074           60063                           AD       NEWPRIO
000356: 01,3075           54167                           TS       PRIORITY
000357: 01,3076           40000                           COM
000358: 01,3077           13004                           TCF      JOBSLP2                               #  AND TO EJSCAN.
000359:


000361:                                                                                                  #           RELEASE THIS CORE SET AND VAC AREA AND SCAN FOR THE JOB OF HIGHEST ACTIVE PRIORITY.
000362:
000363: 01,3100           00004        ENDJOB1            INHINT
000364: 01,3101           44755                           CS       ZERO
000365: 01,3102           54131                           TS       BUF        +1
000366: 01,3103           56167                           XCH      PRIORITY
000367: 01,3104           75004                           MASK     LOW9
000368: 01,3105           54001                           TS       L
000369:
000370: 01,3106           45164                           CS       FAKEPRET
000371: 01,3107           60001                           AD       L
000372:
000373: 01,3110           00006                           EXTEND
000374: 01,3111           63115                           BZMF     EJSCAN                                #  NOVAC ENDOFJOB
000375:
000376: 01,3112           10001                           CCS      L
000377: 01,3113           50000                           INDEX    A
000378: 01,3114           54000                           TS       0
000379:
000380: 01,3115           10203        EJSCAN             CCS      PRIORITY   +12D
000381: 01,3116           03166                           TC       EJ1
000382: 01,3117           05677                           TC       CCSHOLE
000383: 01,3120           13121                           TCF      +1
000384:
000385: 01,3121           10217                           CCS      PRIORITY   +24D                       #  EXAMINE EACH PRIORITY REGISTER TO FIND
000386: 01,3122           03166                           TC       EJ1                                   #  THE JOB OF HIGHEST ACTIVE PRIORITY.
000387: 01,3123           05677                           TC       CCSHOLE
000388: 01,3124           13125                           TCF      +1
000389:
000390: 01,3125           10233                           CCS      PRIORITY   +36D
000391: 01,3126           03166                           TC       EJ1
000392: 01,3127           67610        -CCSPR             -CCS     PRIORITY
000393: 01,3130           13131                           TCF      +1
000394:
000395: 01,3131           10247                           CCS      PRIORITY   +48D
000396: 01,3132           03166                           TC       EJ1
000397: 01,3133           05677                           TC       CCSHOLE
000398: 01,3134           13135                           TCF      +1
000399:
000400: 01,3135           10263                           CCS      PRIORITY   +60D
000401: 01,3136           03166                           TC       EJ1
000402: 01,3137           05677                           TC       CCSHOLE
000403: 01,3140           13141                           TCF      +1
000404:
000405: 01,3141           10277                           CCS      PRIORITY   +72D
000406: 01,3142           03166                           TC       EJ1
000407: 01,3143           05677                           TC       CCSHOLE
000408: 01,3144           13145                           TCF      +1
000409:
000410: 01,3145           10313                           CCS      PRIORITY   +84D
000411:


000413: 01,3146           03166                           TC       EJ1
000414: 01,3147           05677                           TC       CCSHOLE
000415: 01,3150           13151                           TCF      +1
000416:


000418:                                                                                                  #           EVALUATE THE RESULTS OF THE SCAN.
000419:
000420: 01,3151           10131                           CCS      BUF        +1                         #  SEE IF THERE ARE ANY ACTIVE JOBS WAITING
000421: 01,3152           05677                           TC       CCSHOLE
000422: 01,3153           05677                           TC       CCSHOLE
000423:
000424: 01,3154           13156                           TCF      +2
000425: 01,3155           13203                           TCF      DUMMYJOB
000426: 01,3156           10130                           CCS      BUF                                   #  BUF IS ZERO IF THIS IS A PRIOCHNG AND
000427: 01,3157           13161                           TCF      +2                                    #  CHANGED PRIORITY IS STILL HIGHEST.
000428: 01,3160           12761                           TCF      ENDPRCHG   -1
000429:
000430: 01,3161           50000                           INDEX    A                                     #  OTHERWISE, SET NEWJOB TO THE RELATIVE
000431: 01,3162           27777                           CAF      0          -1                         #  ADDRESS OF THE NEW JOB'S CORE SET.
000432: 01,3163           63127                           AD       -CCSPR
000433: 01,3164           54067                           TS       NEWJOB
000434: 01,3165           12701                           TCF      CHANJOB    -2
000435:
000436: 01,3166           54132        EJ1                TS       BUF        +2
000437: 01,3167           60131                           AD       BUF        +1                         #  - OLD HIGH PRIORITY.
000438: 01,3170           10000                           CCS      A
000439: 01,3171           40132                           CS       BUF        +2
000440: 01,3172           13176                           TCF      EJ2                                   #  NEW HIGH PRIORITY.
000441: 01,3173           13174                           NOOP
000442: 01,3174           50002                           INDEX    Q
000443: 01,3175           00002                           TC       2                                     #  PROCEED WITH SEARCH.
000444:
000445: 01,3176           54131        EJ2                TS       BUF        +1
000446: 01,3177           00006                           EXTEND
000447: 01,3200           22130                           QXCH     BUF                                   #  FOR LOCATING CCS PRIORITY + X INSTR.
000448: 01,3201           50130                           INDEX    BUF
000449: 01,3202           00002                           TC       2
000450:


000452:                                                                                                  #           IDLING AND COMPUTER ACTIVITY (GREEN) LIGHT MAINTENANCE. THE IDLING ROUTINE IS NOT A JOB IN ITSELF,
000453:                                                                                                  #  BUT RATHER A SUBROUTINE OF THE EXECUTIVE.
000454:
000455: 01,3203     1361                                  EBANK=   SELFRET                               #  SELF-CHECK STORAGE IN EBANK.
000456:
000457: 01,3203           44755        DUMMYJOB           CS       ZERO                                  #  SET NEWJOB TO -0 FOR IDLING.
000458: 01,3204           54067                           TS       NEWJOB
000459: 01,3205           00003                           RELINT
000460: 01,3206           44752                           CS       TWO                                   #  TURN OFF THE ACTIVITY LIGHT.
000461: 01,3207           00006                           EXTEND
000462: 01,3210           03011                           WAND     DSALMOUT
000463: 01,3211           10067        ADVAN              CCS      NEWJOB                                #  IS A NEWJOB ACTIVE?
000464: 01,3212           13006                           TCF      NUCHANG2                              #  YES... ONE REQUIRING A CHANGE JOB.
000465: 01,3213           34752                           CAF      TWO                                   #  NEW JOB ALREADY IN POSITION FOR
000466: 01,3214           13222                           TCF      NUDIRECT                              #  EXECUTION.
000467:
000468: 01,3215           31361                           CA       SELFRET
000469: 01,3216           54001                           TS       L                                     #  PUT RETURN ADDRESS IN L.
000470: 01,3217           33221                           CAF      SELFBANK
000471: 01,3220           15166                           TCF      SUPDXCHZ   +1                         #   AND DISPATCH JOB.
000472:
000473: 01,3221     1361                                  EBANK=   SELFRET
000474: 01,3221           66102        SELFBANK           BBCON    SELFCHK
000475:
000476: 01,3222           00006        NUDIRECT           EXTEND                                         #  TURN THE GREEN LIGHT BACK ON.
000477: 01,3223           05011                           WOR      DSALMOUT
000478: 01,3224           52165                           DXCH     LOC                                   #  JOBS STARTED IN THIS FASHION MUST BE
000479: 01,3225           15165                           TCF      SUPDXCHZ
000480:
000481:    5165                                           BLOCK    2                                     #  IN FIXED-FIXED SO OTHERS MAY USE.
000482:
000483:    5165                                           COUNT*   $$/EXEC
000484:                                                                                                  #  SUPDXCHZ - ROUTINE TO TRANSFER TO SUPERBANK.
000485:                                                                                                  #  CALLING SEQUENCE
000486:                                                                                                  #                TCF     SUPDXCHZ        WITH 2CADR OF DESIRED LOCATION IN A + L.
000487:
000488:    5165           56001        SUPDXCHZ           XCH      L                                     #  BASIC.
000489:    5166           00006                 +1        EXTEND
000490:    5167           01007                           WRITE    SUPERBNK
000491:    5170           54006                           TS       BBANK
000492:    5171           00001                           TC       L
000493:
000494:    5172           77677        NEG100             OCT      77677

End of include-file EXECUTIVE.agc.  Parent file is MAIN.agc


