
Source Code


000002:                                                                                                  ## Copyright:   Public domain.
000003:                                                                                                  ## Filename:    EXTENDED_VERBS.agc
000004:                                                                                                  ## Purpose:     A section of LUM69 revision 2.
000005:                                                                                                  ##              It is part of the reconstructed source code for the flown
000006:                                                                                                  ##              version of the flight software for the Lunar Module's (LM)
000007:                                                                                                  ##              Apollo Guidance Computer (AGC) for Apollo 10. The code has
000008:                                                                                                  ##              been recreated from a copy of Luminary revsion 069, using
000009:                                                                                                  ##              changes present in Luminary 099 which were described in
000010:                                                                                                  ##              Luminary memos 75 and 78. The code has been adapted such
000011:                                                                                                  ##              that the resulting bugger words exactly match those specified
000012:                                                                                                  ##              for LUM69 revision 2 in NASA drawing 2021152B, which gives
000013:                                                                                                  ##              relatively high confidence that the reconstruction is correct.
000014:                                                                                                  ## Reference:   pp. 277-315
000015:                                                                                                  ## Assembler:   yaYUL
000016:                                                                                                  ## Contact:     Ron Burkey <info@sandroid.org>.
000017:                                                                                                  ## Website:     www.ibiblio.org/apollo/index.html
000018:                                                                                                  ## Mod history: 2019-07-27 MAS  Created from Luminary 69.
000019:


000021: 07,2667                                           BANK     7
000022: 43,2000                                           SETLOC   EXTVERBS
000023: 43,2000                                           BANK
000024:
000025: 43,2000  E5,1737                                  EBANK=   OGC
000026:
000027: 43,2000                                           COUNT*   $$/EXTVB
000028:                                                                                                  #  FAN-OUT
000029:
000030: 43,2000           50154        GOEXTVB            INDEX    MPAC                                  #  VERB-40 IS IN MPAC
000031: 43,2001           02002                           TC       LST2FAN                               #  FAN AS BEFORE.
000032:
000033: 43,2002           02130        LST2FAN            TC       VBZERO                                #  VB40 ZERO (USED WITH NOUN 20 OR 72 ONLY)
000034: 43,2003           02171                           TC       VBCOARK                               #  VB41 COARSE ALIGN (USED WITH NOUN 20 OR
000035:                                                                                                  #                                  72 ONLY)
000036: 43,2004           02340                           TC       IMUFINEK                              #  VB42 FINE ALIGN IMU
000037: 43,2005           02717                           TC       IMUATTCK                              #  VB43  LOAD IMU ATTITUDE ERROR METERS.
000038: 43,2006           02302                           TC       RRDESEND                              #  VB44 TERMINATE CONTINUOUS DESIGNATE
000039: 43,2007           02120                           TC       ALM/END                               #  VB45 SPARE
000040: 43,2010           02120                           TC       ALM/END                               #  VB46 SPARE
000041: 43,2011           02377                           TC       V47TXACT                              #  VB47 AGS INITIALIZATION
000042: 43,2012           03143                           TC       DAPDISP                               #  VB48  LOAD A/P DATA
000043: 43,2013           13025                           TCF      CREWMANU                              #  VB49 START AUTOMATIC ATTITUDE MANEUVER
000044: 43,2014           02371                           TC       GOLOADLV                              #  VB50 PLEASE PERFORM
000045: 43,2015           02120                           TC       ALM/END                               #  VB51 SPARE
000046: 43,2016           02371                           TC       GOLOADLV                              #  VB52 PLEASE MARK X - RETICLE.
000047: 43,2017           02371                           TC       GOLOADLV                              #  VB53 PLEASE MARK Y - RETICLE.
000048: 43,2020           02371                           TC       GOLOADLV                              #  VB54 PLEASE MARK X OR Y - RETICLE
000049: 43,2021           02411                           TC       ALINTIME                              #  VB55 ALIGN TIME
000050: 43,2022           03034                           TC       TRMTRACK                              #  VB56 TERMINATE TRACKING - P20 + P25
000051: 43,2023           02322                           TC       LRON                                  #  VB57 PERMIT  LANDING RADAR UPDATES
000052: 43,2024           02325                           TC       LROFF                                 #  VB58 INHIBIT LANDING RADAR UPDATES
000053: 43,2025           02120                           TC       ALM/END                               #  VB59 SPARE
000054: 43,2026           02151                           TC       LRPOS2K                               #  VB60 COMMAND LR TO POSITION 2.
000055: 43,2027           02163                           TC       DAPATTER                              #  VB61 DISPLAY DAP ATTITUDE ERROR
000056: 43,2030           02166                           TC       TOTATTER                              #  VB62 DISPLAY TOTAL ATTITUDE ERROR
000057: 43,2031           02424                           TC       R04                                   #  VB63 SAMPLE RADAR ONCE PER SECOND
000058: 43,2032           02710                           TC       VB64                                  #  VB64 CALCULATE,DISPLAY S-BAND ANT ANGLES
000059: 43,2033           03227                           TC       SNUFFOUT                              #  VB65 DISABLE U,V JETS DURING DPS BURNS.
000060: 43,2034           03150                           TC       ATTACHED                              #  VB66 ATTACHED   MOVE THIS TO OTHER STATE
000061: 43,2035           03221                           TC       V67                                   #  VB67 W MATRIX MONITOR
000062: 43,2036           02330                           TC       P64NOW                                #  VB68 START P64 IMMEDIATELY.
000063: 43,2037           02037        VERB69             TC       VERB69                                #  VB69 FORCE A HARDWARE RESTART
000064: 43,2040           03732                           TC       V70UPDAT                              #  VB70 UPDATE LIFTOFF TIME.
000065: 43,2041           03734                           TC       V71UPDAT                              #  VB71 UNIVERSAL UPDATE - BLOCK ADDRESS.
000066: 43,2042           03736                           TC       V72UPDAT                              #  VB72 UNIVERSAL UPDATE - SINGLE ADDRESS.
000067: 43,2043           03740                           TC       V73UPDAT                              #  VB73 UPDATE AGC TIME (OCTAL).
000068: 43,2044           03053                           TC       DNEDUMP                               #  VB74 INITIALIZE DOWN-TELEMETRY PROGRAM
000069:                                                                                                  #         FOR ERASABLE DUMP.
000070: 43,2045           03232                           TC       OUTSNUFF                              #  VB75 ENABLE U,V JETS DURING DPS BURNS.
000071:


000073: 43,2046           03011                           TC       MINIMP                                #  VB76 MINIMUM IMPULSE MODE
000074: 43,2047           03016                           TC       NOMINIMP                              #  VB77 RATE COMMAND MODE
000075: 43,2050           02414                           TC       R77                                   #  VB78 START LR SPURIOUS RETURN TEST
000076: 43,2051           02627                           TC       R77END                                #  VB79 TERMINATE LR SPURIOUS RETURN TEST
000077: 43,2052           03057                           TC       LEMVEC                                #  VB80 UPDATE LEM STATE VECTOR
000078: 43,2053           03062                           TC       CSMVEC                                #  VB81 UPDATE CSM STATE VECTOR
000079: 43,2054           02756                           TC       V82PERF                               #  VB82 REQUEST ORBIT PARAM DISPLAY (R30)
000080: 43,2055           02766                           TC       V83PERF                               #  VB83 REQUEST REND PARAM DISPLAY (R31)
000081: 43,2056           02120                           TC       ALM/END                               #  VB84 SPARE
000082: 43,2057           03235                           TC       VERB85                                #  VB85 DISPLAY RR LOS AZ AND ELEV
000083: 43,2060           02120                           TC       ALM/END                               #  VB86 SPARE
000084: 43,2061           02120                           TC       ALM/END                               #  VB87 SPARE
000085: 43,2062           02120                           TC       ALM/END                               #  VB88 SPARE
000086: 43,2063           02774                           TC       V89PERF                               #  VB89 ALIGN XORZ LEM AXIS ALONG LOS (R63)
000087: 43,2064           03003                           TC       V90PERF                               #  VB90 OUT OF PLANE RENDEZVOUS DISPLAY
000088: 43,2065           03106                           TC       GOSHOSUM                              #  VB91 DISPLAY BANK SUM.
000089: 43,2066           03072                           TC       SYSTEST                               #  VB92 OPERATE IMU PERFORMANCE TEST.
000090: 43,2067           03101                           TC       WMATRXNG                              #  VB93 CLEAR RENDWFLG
000091: 43,2070           02120                           TC       ALM/END                               #  VB94 SPARE
000092: 43,2071           03067                           TC       UPDATOFF                              #  VB95 NO STATE VECTOR UPDATE ALLOWED
000093: 43,2072           03214                           TC       VERB96                                #  VB96 INTERRUPT INTEGRATION AND GO TO POO
000094: 43,2073           02371                           TC       GOLOADLV                              #  VB97 PLEASE VERIFY ENGINE FAILURE
000095: 43,2074           02120                           TC       ALM/END                               #  VB98 SPARE
000096: 43,2075           02371                           TC       GOLOADLV                              #  VB99 PLEASE ENABLE ENGINE
000097:
000098:                                                                                                  #  END OF EXTENDED VERB FAN
000099:
000100: 43,2076           11044        TESTXACT           CCS      EXTVBACT                              #  ARE EXTENDED VERBS BUSY
000101: 43,2077           02120                           TC       ALM/END                               #  YES, TURN ON OPERATOR LIGHT
000102: 43,2100           30100                           CA       FLAGWRD4                              #  ARE PRIORITY DISPLAYS USING DSKY
000103: 43,2101           72127                           MASK     OC24100
000104: 43,2102           10000                           CCS      A
000105: 43,2103           02120                           TC       ALM/END                               #  YES
000106: 43,2104           36007                           CAF      OCT24                                 #  SET BITS 3 AND 5
000107: 43,2105           55044        SETXTACT           TS       EXTVBACT                              #  NO. SET FLAG TO SHOW EXT VERB DISPLAY
000108:                                                                                                  #  SYSTEM BUSY
000109:
000110: 43,2106           30002                           CA       Q
000111: 43,2107           54155                           TS       MPAC       +1
000112:
000113: 43,2110           44752                           CS       TWO                                   #  BLANK EVERYTHING EXCEPT MM AND VERB
000114: 43,2111           04154                           TC       NVSUB
000115: 43,2112           02113                           TC       +1
000116: 43,2113           00155                           TC       MPAC       +1
000117:
000118: 43,2114           04364        XACTALM            TC       FALTON                                #  TURN ON OPERATOR ERROR LIGHT.
000119: 43,2115           05472                           TC       ENDEXT                                #  RELEASE MARK AND EXT. VERB DISPLAY SYS.
000120:
000121: 43,2116     5472               TERMEXTV           EQUALS   ENDEXT
000122:


000124: 43,2116     5472               ENDEXTVB           EQUALS   ENDEXT
000125:
000126: 43,2116           34755        XACT0              CAF      ZERO                                  #  RELEASE MARK AND EXT. VERB DISPLAY SYS.
000127: 43,2117           02105                           TC       SETXTACT
000128:
000129: 43,2120           04364        ALM/END            TC       FALTON                                #  TURN ON OPERATOR ERROR LIGHT
000130: 43,2121           04635        GOPIN              TC       POSTJUMP
000131: 43,2122           20723                           CADR     PINBRNCH
000132:
000133: 43,2123           31011        CHKPOOH            CA       MODREG                                #  CHECK FOR POO OR POO-.
000134: 43,2124           00006                           EXTEND
000135: 43,2125           16741                           BZF      TCQ
000136: 43,2126           02120                           TC       ALM/END
000137:
000138: 43,2127           24100        OC24100            OCT      24100
000139:


000141:                                                                                                  #           VBZERO       VERB 40            DESCRIPTION
000142:
000143:                                                                                                  #               1. REQUIRE NOUN 20 (ICDU ANGLES) OR NOUN 72 (RCDU ANGLES).
000144:                                                                                                  #              2. FOR N20, CHECK IMUCADR IN AN EFFORT TO AVOID A 1210 RESTART.
000145:                                                                                                  #                 FOR N72, CHECK IF EITHER RADAR IS IN USE.
000146:                                                                                                  #               3. EXECUTE THE CDU ZERO.
000147:                                                                                                  #               4. STALL UNTILL THE ZERO IS DONE.
000148:                                                                                                  #               5. DON'T DIFFERENIATE BETWEEN A BAD OR GOOD RETURN.
000149:                                                                                                  #               6. EXIT, RE-ESTABLISHING THE INTERRUPTED DISPLAY (IF ANY).
000150:
000151: 43,2130           02174        VBZERO             TC       OP/INERT
000152: 43,2131           02133                           TC       IMUZEROK                              #  RETURN HERE IF NOUN = ICDU(20)
000153: 43,2132           02142                           TC       RRZEROK                               #  RETURN HERE IF NOUN = RCDU(72)
000154: 43,2133           02405        IMUZEROK           TC       CKMODCAD
000155: 43,2134           04616                           TC       BANKCALL                              #  KEYBOARD REQ FOR ISS CDUZERO
000156: 43,2135           16667                           CADR     IMUZERO
000157:
000158: 43,2136           04616                           TC       BANKCALL                              #  STALL
000159: 43,2137           17671                           CADR     IMUSTALL
000160: 43,2140           02141                           TC       +1
000161:
000162: 43,2141           02121                           TC       GOPIN                                 #  IMUZERO
000163:
000164: 43,2142           02652        RRZEROK            TC       RDRUSECK
000165: 43,2143           04616                           TC       BANKCALL
000166: 43,2144           52343                           CADR     RRZERO
000167:
000168: 43,2145           04616        RWAITK             TC       BANKCALL
000169: 43,2146           17667                           CADR     RADSTALL
000170: 43,2147           12150                           TCF      +1
000171: 43,2150           02121                           TC       GOPIN                                 #  RRZERO
000172:
000173:                                                                                                  #           LRPOS2K     VERB 60             DESCRIPTION
000174:                                                                                                  #               COMMAND LANDING RADAR TO POSITION 2
000175:                                                                                                  #              1. EXIT WITH OP ERROR IF SOMEONE IS USING EITHER RADAR.
000176:                                                                                                  #               2. ALARM WITH CODE 523 IF POS 2 IS NOT INDICATED WITHIN
000177:                                                                                                  #                  THE PRESCRIBED TIME.
000178:                                                                                                  #               3. RE-ESTABLISH THE DISPLAYS.
000179:
000180: 43,2151           02652        LRPOS2K            TC       RDRUSECK
000181: 43,2152           04616                           TC       BANKCALL                              #  COMMAND LR TO POSITION 2
000182: 43,2153           53471                           CADR     LRPOS2
000183: 43,2154           04616                           TC       BANKCALL
000184: 43,2155           17667                           CADR     RADSTALL
000185: 43,2156           02160                           TC       LRP2ALM
000186: 43,2157           02121                           TC       GOPIN
000187:
000188: 43,2160           05567        LRP2ALM            TC       ALARM
000189: 43,2161           00523                           OCT      523
000190: 43,2162           02121                           TC       GOPIN
000191:


000193:
000194:                                                                                                  #  V61      VERB 61, DISPLAY DAP ATTITUDE ERRORS ON FDAI ATTITUDE ERROR NEEDLES.
000195:
000196: 43,2163           05516        DAPATTER           TC       DOWNFLAG
000197: 43,2164           00013                           ADRES    NEEDLFLG
000198: 43,2165           02121                           TC       GOPIN
000199:
000200:                                                                                                  #  V62      VERB 62, DISPLAY TOTAL ATTITUDE ERRORS ON FDAI ATTITUDE ERROR NEEDLES.
000201:
000202: 43,2166           05504        TOTATTER           TC       UPFLAG
000203: 43,2167           00013                           ADRES    NEEDLFLG
000204: 43,2170           02121                           TC       GOPIN
000205:


000207:                                                                                                  #           VBCOARK      VERB 41            DESCRIPTION
000208:                                                                                                  #               COARSE ALIGN IMU OR RADAR
000209:                                                                                                  #              1. REQUIRE NOUN 20 OR NOUN 72 OR TURN ON OPERATOR ERROR.
000210:                                                                                                  #               2. REQUIRE EXT VERB DISPLAY SYS AVAILABLE OR TURN ON OPERATOR ERROR LIGHT AND GO TO PINBRNCH.
000211:                                                                                                  #               CASE 1     NOUN 20     (ICDU ANGLES)
000212:                                                                                                  #               3. SET EXT VERB DISPLAY ACTIVE FLAG.
000213:                                                                                                  #               4. DISPLAY FLASHING V25,N22 (LOAD NEW ICDU ANGLES).
000214:                                                                                                  #                  RESPONSES
000215:                                                                                                  #                    A. TERMINATE
000216:                                                                                                  #                       1. RELEASE EXT VERB DISPLAY SYSTEM
000217:                                                                                                  #                    B. PROCEED
000218:                                                                                                  #                      1. COARSE ALIGN TO THE EXISTING THETAD'S (ICORK2).
000219:                                                                                                  #                    C. ENTER
000220:                                                                                                  #                      1. COARSE ALIGN TO THE LOADED THETAD'S (ICORK2).
000221:                                                                                                  #               ICORK2
000222:                                                                                                  #                  1. RE-DISPLAY VERB 41.
000223:                                                                                                  #                  2. EXECUTE IMUCOARS (IMU COARSE ALIGN).
000224:                                                                                                  #                  3. EXECUTE IMUSTALL (ALLOW TIME FOR DATA TRANSFER).
000225:                                                                                                  #                  4. RELEASE EXT VERB DISPLAY SYSTEM.
000226:                                                                                                  #               CASE 2     NOUN 72     (RCDU ANGLES)
000227:                                                                                                  #                 EXIT WITH OP ERROR IF SOMEONE IS USING EITHER RADAD.
000228:                                                                                                  #               5. DISPLAY FLASHING V24,N73 (LOAD NEW RR TRUNION ANGLE AND NEW SHAFT ANGLE).
000229:                                                                                                  #                  RESPONSES
000230:                                                                                                  #                  A. TERMINATE
000231:                                                                                                  #                     1. RELEASE EXT VERB DISPLAY SYS.
000232:                                                                                                  #                  B. PROCEED OR ENTER
000233:                                                                                                  #                     1. EXECUTE AURLOKON (ASK OPERATOR FOR LOCK-ON REQUIREMENTS).
000234:                                                                                                  #                     2. RE-DISPLAY VERB 41.
000235:                                                                                                  #                     3. SCHEDULE RRDESK2 WITH PRIORITY 20.
000236:                                                                                                  #                     4. RELEASE EXT VERB DISPLAY SYS.
000237:
000238:                                                                                                  #                  AURLOKON
000239:
000240:                                                                                                  #                 1. FLASH V04 N12 R1 = 00006 R2 = 00002
000241:                                                                                                  #                     RESPONSES
000242:                                                                                                  #                     A. TERMINATE
000243:                                                                                                  #                     B. PROCEED
000244:                                                                                                  #                       1. RESET LOCK-ON SWITCH
000245:                                                                                                  #                       2. SET CONTINUOUS DESIGNATE FLAG
000246:                                                                                                  #                       3. DISABLE R25
000247:                                                                                                  #                    C. V22 E 1 E, R1 = 00001, PROCEED
000248:                                                                                                  #                       1. SET LOCK-ON SWITCH
000249: 43,2171           02174        VBCOARK            TC       OP/INERT
000250: 43,2172           02205                           TC       IMUCOARK                              #  RETURN HERE IF NOUN = ICDU (20)
000251: 43,2173           02227                           TC       RRDESNBK                              #  RETURN HERE IF NOUN = RCDU (72)
000252:                                                                                                  #           RETURNS TO L+1 IF IMU OR L+2 IF RR.
000253:
000254: 43,2174           46007        OP/INERT           CS       OCT24
000255: 43,2175           61002                           AD       NOUNREG
000256: 43,2176           00006                           EXTEND
000257:


000259: 43,2177           16741                           BZF      TCQ                                   #  IF = 20.
000260:
000261: 43,2200           62204                           AD       RRIMUDIF                              #  -52
000262: 43,2201           00006                           EXTEND
000263: 43,2202           16736                           BZF      Q+1
000264:
000265: 43,2203           02120                           TC       ALM/END                               #  ILLEGAL.
000266:
000267: 43,2204           77713        RRIMUDIF           DEC      -52        B-14                       #  THE IMU
000268: 43,2205           02405        IMUCOARK           TC       CKMODCAD
000269: 43,2206           02076                           TC       TESTXACT                              #  COARSE ALIGN FROM KEYBOARD.
000270: 43,2207           32225                           CAF      VNLODCDU                              #  CALL FOR THETAD LOAD
000271: 43,2210           04616                           TC       BANKCALL
000272: 43,2211           20212                           CADR     GOXDSPF
000273: 43,2212           05472                           TC       TERMEXTV
000274: 43,2213           12214                           TCF      +1
000275:
000276: 43,2214           32226        ICORK2             CAF      IMUCOARV                              #  RE-DISPLAY COARSE ALIGN VERB.
000277: 43,2215           04616                           TC       BANKCALL
000278: 43,2216           20473                           CADR     EXDSPRET
000279:
000280: 43,2217           04616                           TC       BANKCALL                              #  CALL MODE SWITCHING PROG
000281: 43,2220           16753                           CADR     IMUCOARS
000282:
000283: 43,2221           04616                           TC       BANKCALL                              #  STALL
000284: 43,2222           17671                           CADR     IMUSTALL
000285: 43,2223           05472                           TC       ENDEXTVB
000286: 43,2224           05472                           TC       ENDEXTVB
000287:
000288: 43,2225           06226        VNLODCDU           VN       2522
000289: 43,2226           12200        IMUCOARV           VN       4100
000290:


000292:                                                                                                  #           DESIGNATE TO DESIRED GIMBAL ANGLES.
000293:
000294: 43,2227           02652        RRDESNBK           TC       RDRUSECK
000295: 43,2230           02076                           TC       TESTXACT
000296: 43,2231           34745                           CA       RNDVZBIT                              #  IS P20 RUNNING?
000297: 43,2232           70074                           MASK     FLAGWRD0
000298: 43,2233           10000                           CCS      A
000299: 43,2234           12114                           TCF      XACTALM                               #  OPERATOR ERROR IF IN P20
000300: 43,2235           42321                           CS       OCT41000                              #  TERMINATE PRESENT DESIGNATION
000301: 43,2236           00004                           INHINT                                         #  RELINT DONE IN GOXDSPF
000302: 43,2237           70110                           MASK     RADMODES
000303: 43,2240           54110                           TS       RADMODES
000304:
000305: 43,2241           32260                           CAF      VNLDRCDU                              #  ASK FOR GIMBAL ANGLES.
000306: 43,2242           04616                           TC       BANKCALL
000307: 43,2243           20212                           CADR     GOXDSPF
000308: 43,2244           05472                           TC       TERMEXTV
000309: 43,2245           12241                           TCF      -4                                    #  V33
000310:
000311: 43,2246           04616                           TC       BANKCALL                              #  ASK OP FOR LOCK ON REQUIREMENTS.
000312: 43,2247           46000                           CADR     AURLOKON
000313:
000314: 43,2250           32226                           CAF      OPTCOARV                              #  RE-DISPLAY OUR OWN VERB
000315: 43,2251           04616                           TC       BANKCALL
000316: 43,2252           20473                           CADR     EXDSPRET
000317:
000318: 43,2253           34736                           CAF      PRIO20
000319: 43,2254           05105                           TC       FINDVAC
000320: 43,2255  E7,1454                                  EBANK=   LOSCOUNT
000321: 43,2255           02261 66107                     2CADR    RRDESK2
000322:
000323: 43,2257           15472                           TCF      TERMEXTV                              #  FREES DISPLAY.
000324:
000325: 43,2260           06111        VNLDRCDU           VN       2473
000326: 43,2261  43,2226               OPTCOARV           EQUALS   IMUCOARV                              #  DIFFERENT NOUNS.
000327:
000328: 43,2261           04616        RRDESK2            TC       BANKCALL
000329: 43,2262           52475                           CADR     RRDESNB
000330:
000331: 43,2263           02264                           TC       +1                                    #  DUMMY NEEDED SINCE DESRETRN DOES INCR
000332: 43,2264           30167                           CA       PRIORITY
000333: 43,2265           75004                           MASK     LOW9
000334: 43,2266           10000                           CCS      A
000335: 43,2267           50000                           INDEX    A
000336: 43,2270           54000                           TS       A                                     #  RELEASE THIS JOBS VAC AREA.
000337: 43,2271           40000                           COM                                            #  INSURE ENDOFJOB DOES A NOVAC END (BZMF).
000338: 43,2272           26167                           ADS      PRIORITY
000339: 43,2273           04616                           TC       BANKCALL                              #  WAIT FOR COMPLETION OF DESIGNATE
000340: 43,2274           17667                           CADR     RADSTALL
000341:


000343: 43,2275           02277                           TC       +2                                    #  BADEND-NO LOCKON OR OUT OF LIMITS
000344: 43,2276           05155                           TC       ENDOFJOB                              #  GOODEND-LOCKON ACHIEVED
000345: 43,2277           05567                           TC       ALARM
000346: 43,2300           00503                           OCT      503                                   #  TURN ON ALARM LIGHT -503 DESIGNATE FAIL
000347: 43,2301           05155                           TC       ENDOFJOB
000348:
000349: 43,2302           10110        RRDESEND           CCS      RADMODES                              #  TERMINATE CONTINUOUS DESIGNATE ONLY
000350: 43,2303           12121                           TCF      GOPIN
000351: 43,2304           12121                           TCF      GOPIN
000352: 43,2305           12306                           TCF      +1
000353: 43,2306           42321                           CS       OCT41000                              #  BEGDES GOES TO ENDRADAR
000354: 43,2307           00004                           INHINT                                         #  RELINT DONE IN DOWNFLAG
000355: 43,2310           70110                           MASK     RADMODES
000356: 43,2311           54110                           TS       RADMODES
000357: 43,2312           06011                           TC       CLRADMOD
000358: 43,2313           34777                           CAF      1SEC
000359: 43,2314           04616                           TC       BANKCALL
000360: 43,2315           01735                           CADR     DELAYJOB
000361: 43,2316           05516                           TC       DOWNFLAG                              #  ENABLE R25 GIMBAL MONITOR
000362: 43,2317           00126                           ADRES    NORRMON
000363: 43,2320           12121                           TCF      GOPIN
000364: 43,2321           41000        OCT41000           OCT      41000                                 #  CONTINUOUS DESIGNATE - DESIGNATE
000365:


000367: 23,2000                                           BANK     23
000368: 23,2000                                           SETLOC   EXTVB1
000369: 23,2000                                           BANK
000370: 23,2000                                           COUNT*   $$/EXTVB
000371:
000372: 23,2000           04645        AURLOKON           TC       MAKECADR
000373: 23,2001           55113                           TS       DESRET
000374: 23,2002           34752                           CAF      TWO
000375: 23,2003           55052                           TS       OPTIONX    +1
000376: 23,2004           36241                           CAF      SIX                                   #  OPTION CODE FOR V04N12
000377: 23,2005           55051                           TS       OPTIONX
000378:
000379: 23,2006           32037                 -5        CAF      V04N1272
000380: 23,2007           04616                           TC       BANKCALL                              #       R2   00001  LOCK-ON
000381: 23,2010           20231                           CADR     GOMARKFR
000382: 23,2011           15472                           TCF      ENDEXT                                #  V34
000383: 23,2012           12017                           TCF      +5                                    #  V33
000384: 23,2013           12006                           TCF      -5                                    #  V32
000385: 23,2014           34751                           CAF      BIT3
000386: 23,2015           05464                           TC       BLANKET
000387: 23,2016           05155                           TC       ENDOFJOB
000388:
000389: 23,2017           31052                 +5        CA       OPTIONX    +1
000390: 23,2020           74752                           MASK     BIT2
000391: 23,2021           10000                           CCS      A
000392: 23,2022           12026                           TCF      NOLOKON
000393: 23,2023           05504                           TC       UPFLAG
000394: 23,2024           00012                           ADRES    LOKONSW
000395: 23,2025           12034                           TCF      AURLKON1
000396:
000397: 23,2026           05516        NOLOKON            TC       DOWNFLAG                              #  IF NO LOCK-ON, SET BIT15 OF RADMODES TO
000398: 23,2027           00012                           ADRES    LOKONSW                               #  INDICATE THAT CONTINUOUS DESIGNATION IS
000399: 23,2030           05504                           TC       UPFLAG                                #  WANTED (TO BE TERMINATED BY V44.)
000400: 23,2031           00264                           ADRES    CDESFLAG
000401: 23,2032           05504                           TC       UPFLAG                                #  SET NO RR ANGLE MONITOR FLAG.
000402: 23,2033           00126                           ADRES    NORRMON                               #  (DISABLE R25 RR GIMBAL MONITOR IN T4RUPT
000403: 23,2034           00003        AURLKON1           RELINT
000404: 23,2035           31113                           CA       DESRET
000405: 23,2036           14640                           TCF      BANKJUMP
000406:
000407:
000408: 23,2037           01014        V04N1272           VN       412
000409: 23,2040           77757        -LOKONFG           OCT      -20
000410:
000411: 43,2322                                           BANK     43
000412: 43,2000                                           SETLOC   EXTVERBS
000413: 43,2000                                           BANK
000414: 43,2322                                           COUNT*   $$/EXTVB
000415:
000416: 43,2322           05504        LRON               TC       UPFLAG                                #  PERMIT  INCORPORATION OF LR DATA     V57
000417:


000419: 43,2323           00254                           ADRES    LRINH
000420: 43,2324           12121                           TCF      GOPIN
000421:
000422: 43,2325           05516        LROFF              TC       DOWNFLAG                              #  INHIBIT INCORPORATION OF LR DATA      V58
000423: 43,2326           00254                           ADRES    LRINH
000424: 43,2327           12121                           TCF      GOPIN
000425:
000426:
000427:                                                                                                  #  THIS EXTENDED VERB CAUSES P63 TO SWITCH INTO P64.
000428:
000429:
000430: 43,2330  E7,1425                                  EBANK=   TENDBRAK
000431: 43,2330           05321        P64NOW             TC       CHECKMM                               #  ARE WE CURRENTLY IN P63?
000432: 43,2331           00077                           DEC      63         B-14
000433: 43,2332           12120                           TCF      ALM/END                               #  NO   LIGHT OPERATOR ERROR LIGHT.
000434: 43,2333           35016                           CAF      EBANK7
000435: 43,2334           54003                           TS       EBANK
000436: 43,2335           34733                           CAF      POSMAX
000437: 43,2336           55425                           TS       TENDBRAK
000438: 43,2337           12121                           TCF      GOPIN
000439:
000440: 43,2340  E5,1737                                  EBANK=   OGC
000441:


000443:                                                                                                  #           IMUFINEK     VERB 42            DESCRIPTION
000444:                                                                                                  #               FINE ALIGN IMU
000445:                                                                                                  #               1. REQUIRE EXT VERB DISPLAY AVAILABLE AND SET BUSY FLAG OR TURN ON OPER ERROR AND GO TO PINBRNCH.
000446:                                                                                                  #               2. DISPLAY FLASHING V25,N93....LOAD DELTA GYRO ANGLES....
000447:                                                                                                  #                  RESPONSES
000448:                                                                                                  #                  A. TERMINATE
000449:                                                                                                  #                     1. RELEASE EXT VERB DISPLAY SYSTEM.
000450:                                                                                                  #                  B. PROCEED OR ENTER
000451:                                                                                                  #                     1. RE-DISPLAY VERB 42
000452:                                                                                                  #                     2. EXECUTE IMUFINE (IMU FIVE ALIGN MODE SWITCHING).
000453:                                                                                                  #                     3. EXECUTE IMUSTALL (ALLOW FOR DATA TRANSFER)
000454:                                                                                                  #                        A. FAILED
000455:                                                                                                  #                           1. RELEASE EXT VERB DISPLAY SYSTEM.
000456:                                                                                                  #                        B. GOOD
000457:                                                                                                  #                           1. EXECUTE IMUPULSE (TORQUE IRIGS).
000458:                                                                                                  #                           2. EXECUTE IMUSTALL AND RELEASE EXT VERB DISPLAY SYSTEM.
000459:
000460: 43,2340           02405        IMUFINEK           TC       CKMODCAD
000461: 43,2341           02076                           TC       TESTXACT                              #  FINE ALIGN WITH GYRO TORQUING.
000462: 43,2342           32367                           CAF      VNLODGYR                              #  CALL FOR LOAD OF GYRO COMMANDS
000463: 43,2343           04616                           TC       BANKCALL
000464: 43,2344           20212                           CADR     GOXDSPF
000465: 43,2345           05472                           TC       TERMEXTV
000466: 43,2346           02347                           TC       +1                                    #  PROCEED WITHOUT A LOAD
000467:
000468: 43,2347           32370                           CAF      IMUFINEV                              #  RE-DISPLAY OUR OWN VERB
000469: 43,2350           04616                           TC       BANKCALL
000470: 43,2351           20473                           CADR     EXDSPRET
000471:
000472: 43,2352           04616                           TC       BANKCALL                              #  CALL MODE SWITCH PROG
000473: 43,2353           17163                           CADR     IMUFINE
000474:
000475: 43,2354           04616                           TC       BANKCALL                              #  HIBERNATION
000476: 43,2355           17671                           CADR     IMUSTALL
000477: 43,2356           05472                           TC       ENDEXTVB
000478:
000479: 43,2357           32366        FINEK2             CAF      LGYROBIN                              #  PINBALL LEFT COMMANDS IN OGC REGIST5RS
000480: 43,2360           04616                           TC       BANKCALL
000481: 43,2361           17276                           CADR     IMUPULSE
000482:
000483: 43,2362           04616                           TC       BANKCALL                              #  WAIT FOR PULSES TO GET OUT.
000484: 43,2363           17671                           CADR     IMUSTALL
000485: 43,2364           05472                           TC       ENDEXTVB
000486: 43,2365           05472                           TC       ENDEXTVB
000487:
000488: 43,2366           02737        LGYROBIN           ECADR    OGC
000489: 43,2367           06335        VNLODGYR           VN       2593
000490: 43,2370           12400        IMUFINEV           VN       4200
000491:                                                                                                  #           GOLOADLV     VERB 50            DESCRIPTION
000492:                                                                                                  #                        AND OTHER PLEASE
000493:


000495:                                                                                                  #                        DO SOMETHING VERBS
000496:                                                                                                  #               PLEASE PERFORM, MARK, CALIBRATE, ETC.
000497:                                                                                                  #               1. PRESSING ENTER ON DSKY INDICATES REQUESTED ACTION HAS BEEN  PERFORMED, AND THE PROGRAM DOES THE
000498:                                                                                                  #                  SAME RECALL AS A COMPLETED LOAD.
000499:                                                                                                  #               2. THE EXECUTION OF A VERB 33 (PROCEED WITHOUT DATA) INDICATES THE REQUESTED ACTION IS NOT DESIRED.
000500:
000501: 43,2371  40,2000                                  SBANK=   PINSUPER                              #  FOR LOADLV1 AND SHOWSUM CADR'S.
000502:
000503: 43,2371           04433        GOLOADLV           TC       FLASHOFF
000504:
000505: 43,2372           34201                           CAF      PINSUPBT
000506: 43,2373           00006                           EXTEND
000507: 43,2374           01007                           WRITE    SUPERBNK
000508: 43,2375           04635                           TC       POSTJUMP
000509: 43,2376           62001                           CADR     LOADLV1
000510:
000511:                                                                                                  #  VERB 47 - AGS INITIALIZATION - R47.
000512:
000513:                                                                                                  #           SEE LOG SECTION AGS INITIALIZATION FOR OTHER PERTINENT REMARKS.
000514:
000515: 43,2377           02076        V47TXACT           TC       TESTXACT                              #  NO OTHER EXTVERB.
000516: 43,2400           34740                           CAF      PRIO4
000517: 43,2401           05105                           TC       FINDVAC
000518: 43,2402  E4,1604                                  EBANK=   AGSBUFF
000519: 43,2402           02015 64064                     2CADR    AGSINIT
000520:
000521: 43,2404           05155                           TC       ENDOFJOB
000522:
000523: 43,2405           31304        CKMODCAD           CA       MODECADR
000524: 43,2406           00006                           EXTEND
000525: 43,2407           16741                           BZF      TCQ
000526: 43,2410           02120                           TC       ALM/END                               #  SOMEBODY IS USING MODECADR SO EXIT
000527:


000529:                                                                                                  #           ALINTIME     VERB 55            DESCRIPTION
000530:                                                                                                  #                  REQUIRE POO OR POO-.
000531:                                                                                                  #               1. SET EXT VERB DISPLAY BUSY FLAG.
000532:                                                                                                  #               2. DISPLAY FLASHING V25,N24 (LOAD DELTA TIME FOR AGC CLOCK.
000533:                                                                                                  #               3. REQUIRE EXECUTION OF VERB 23.
000534:                                                                                                  #               4. ADD DELTA TIME, RECEIVED FROM INPUT REGISTER, TO THE COMPUTER TIME.
000535:                                                                                                  #               5. RELEASE EXT VERB DISPLAY SYSTEM
000536:
000537: 43,2411           02076        ALINTIME           TC       TESTXACT
000538: 43,2412           04635                           TC       POSTJUMP                              #  NO ROOM IN 43
000539: 43,2413           64002                           CADR     R33
000540:
000541: 42,2002                                           BANK     42
000542: 42,2000                                           SETLOC   SBAND
000543: 42,2000                                           BANK
000544: 42,2002                                           COUNT*   $$/R33
000545:
000546: 42,2002           35021        R33                CAF      PRIO7
000547: 42,2003           05146                           TC       PRIOCHNG
000548: 42,2004           32034                           CAF      VNLODDT
000549: 42,2005           04616                           TC       BANKCALL
000550: 42,2006           20212                           CADR     GOXDSPF
000551: 42,2007           05472                           TC       ENDEXT                                #  TERMINATE
000552: 42,2010           05472                           TC       ENDEXT                                #  PROCEED
000553: 42,2011           42033                           CS       DEC23                                 #  DATA IN OR RESEQUENCE(UNLIKELY)
000554: 42,2012           60154                           AD       MPAC                                  #  RECALL LEFT VERB IN MPAC
000555: 42,2013           00006                           EXTEND
000556: 42,2014           12016                           BZF      UPDATIME                              #  GO AHEAD WITH UPDATE ONLY IF RECALL
000557: 42,2015           05472                           TC       ENDEXT                                #    WITH V23 (DATA IN).
000558:
000559: 42,2016           00004        UPDATIME           INHINT                                         #  DELTA TIME IS IN DSPTEM1, +1.
000560: 42,2017           34755                           CAF      ZERO
000561: 42,2020           54156                           TS       MPAC       +2                         #  NEEDED FOR TP AGREE
000562: 42,2021           54001                           TS       L                                     #  ZERO T1 + 2 WHILE ALIGNING.
000563: 42,2022           52025                           DXCH     TIME2
000564: 42,2023           52155                           DXCH     MPAC
000565: 42,2024           53052                           DXCH     DSPTEM2    +1                         #  INCREMENT
000566: 42,2025           20155                           DAS      MPAC
000567:
000568: 42,2026           07256                           TC       TPAGREE                               #  FORCE SIGN AGREEMENT.
000569: 42,2027           52155                           DXCH     MPAC                                  #  NEW CLOCK.
000570: 42,2030           20025                           DAS      TIME2
000571: 42,2031           00003                           RELINT
000572: 42,2032           05472        UPDTMEND           TC       ENDEXT
000573:
000574: 42,2033           00027        DEC23              DEC      23         B-14                       #  V 23
000575:
000576: 42,2034           06230        VNLODDT            VN       2524                                  #  V25N24 FOR LOAD DELTA TIME
000577:


000579:                                                                                                  #  SET UP FOR RADAR SAMPLING.
000580:
000581: 42,2035                                           BANK     42
000582: 43,2000                                           SETLOC   EXTVERBS
000583: 43,2000                                           BANK
000584:
000585: 43,2414  E4,1604                                  EBANK=   RSTACK
000586:
000587: 43,2414                                           COUNT*   $$/R0477
000588:
000589: 43,2414           02652        R77                TC       RDRUSECK                              #  TRY TO AVOID THE 1210.
000590: 43,2415           30077                           CA       FLAGWRD3                              #  IS R04 RUNNING?
000591: 43,2416           74743                           MASK     R04FLBIT
000592: 43,2417           10000                           CCS      A
000593: 43,2420           02120                           TC       ALM/END                               #  YES.
000594: 43,2421           05504                           TC       UPFLAG
000595: 43,2422           00117                           ADRES    R77FLAG
000596: 43,2423           12430                           TCF      R04Z
000597:
000598: 43,2424           02652        R04                TC       RDRUSECK                              #  TRY TO AVOID THE 1210.
000599: 43,2425           02076                           TC       TESTXACT
000600: 43,2426           05504                           TC       UPFLAG
000601: 43,2427           00063                           ADRES    R04FLAG                               #  SET R04FLAG FOR ALARMS
000602:
000603: 43,2430           34741        R04Z               CAF      EBANK4
000604: 43,2431           54003                           TS       EBANK
000605: 43,2432           32650                           CAF      1SEC+1                                #  SAMPLE ONCE PER SECOND
000606: 43,2433           55761                           TS       RSAMPDT
000607: 43,2434           34755                           CAF      ZERO
000608: 43,2435           55760                           TS       RTSTLOC
000609: 43,2436           55762                           TS       RFAILCNT                              #  ZERO BAD SAMPLE COUNTER
000610:
000611: 43,2437           00004                           INHINT
000612: 43,2440           42651                           CS       LRPOSCAL                              #  INITIALIZE
000613: 43,2441           70110                           MASK     RADMODES                              #      BIT 9   LR RANGE  LOW SCALE =0
000614: 43,2442           54110                           TS       RADMODES                              #      BIT 6   LR POS 1 =0
000615: 43,2443           32651                           CAF      LRPOSCAL                              #      BIT 3   RR RANGE  LOW SCALE =0
000616: 43,2444           00006                           EXTEND
000617: 43,2445           02033                           RAND     CHAN33
000618: 43,2446           26110                           ADS      RADMODES
000619: 43,2447           00003                           RELINT
000620:
000621: 43,2450           40077                           CS       FLAGWRD3                              #  CHECK R04FLAG       R04 =1    R77 =0
000622: 43,2451           74743                           MASK     R04FLBIT
000623: 43,2452           10000                           CCS      A
000624: 43,2453           12605                           TCF      R04K
000625:
000626: 43,2454           34753                           CAF      ONE                                   #  INDICATES RENDEZVOUS DESIRED
000627: 43,2455           55052                           TS       OPTIONX    +1
000628: 43,2456           34751        R04A               CAF      BIT3                                  #  OPTION CODE FOR V04N12
000629:


000631: 43,2457           55051                           TS       OPTIONX
000632: 43,2460           32645                           CAF      V04N12X
000633: 43,2461           04616                           TC       BANKCALL                              #        R2   00001  RENDEZVOUS RADAR
000634: 43,2462           20231                           CADR     GOMARKFR                              #             00002  LANDING RADAR
000635: 43,2463           12613                           TCF      R04END                                #  V34
000636: 43,2464           12471                           TCF      +5                                    #  V33
000637: 43,2465           12460                           TCF      R04A       +2                         #  R2
000638: 43,2466           34751                           CAF      BIT3
000639: 43,2467           05464                           TC       BLANKET
000640: 43,2470           05155                           TC       ENDOFJOB
000641:
000642: 43,2471           31052                           CA       OPTIONX    +1                         #  SAVE DESIRED OPTION       RR =1      LR =2
000643: 43,2472           55755                           TS       RTSTDEX
000644:
000645: 43,2473           36241        R04X               CAF      SIX                                   #  RR OR LR DESIRED
000646: 43,2474           71755                           MASK     RTSTDEX
000647: 43,2475           10000                           CCS      A
000648: 43,2476           12607                           TCF      R04L                                  #  LANDING RADAR
000649: 43,2477           55757                           TS       RTSTBASE                              #  FOR RR   BASE = 0, MAX = 1
000650:
000651: 43,2500           34752        R04B               CAF      BIT2                                  #  IS RR AUTO MODE DISCRETE PRESENT
000652: 43,2501           00006                           EXTEND
000653: 43,2502           02033                           RAND     CHAN33
000654: 43,2503           00006                           EXTEND
000655: 43,2504           12515                           BZF      R04C                                  #  YES
000656:
000657: 43,2505           32647                           CAF      201R04                                #  REQUEST SELECTION OF RR AUTO MODE
000658: 43,2506           55045                           TS       DSPTEM1
000659: 43,2507           32646                           CAF      V50N25X
000660: 43,2510           04616                           TC       BANKCALL
000661: 43,2511           20223                           CADR     GOMARK4
000662: 43,2512           12613                           TCF      R04END                                #  V34
000663: 43,2513           12500                           TCF      R04B                                  #  V33
000664: 43,2514           12505                           TCF      -7                                    #  E
000665:
000666: 43,2515           34736        R04C               CAF      BIT14                                 #  ENABLE RR AUTO TRACKER
000667: 43,2516           00006                           EXTEND
000668: 43,2517           05012                           WOR      CHAN12
000669:
000670: 43,2520           34752                           CAF      TWO
000671: 43,2521           55756                           TS       RTSTMAX                               #  FOR SEQUENTIAL STORAGE
000672:
000673: 43,2522           05203                           TC       WAITLIST
000674: 43,2523  E4,1604                                  EBANK=   RSTACK
000675: 43,2523           02003 52104                     2CADR    RADSAMP
000676:
000677: 43,2525           00003                           RELINT
000678:
000679: 43,2526           40077                           CS       FLAGWRD3                              #  CHECK R04FLAG      R04 =1    R77 =0
000680: 43,2527           74743                           MASK     R04FLBIT
000681:


000683: 43,2530           10000                           CCS      A
000684: 43,2531           12121                           TCF      GOPIN                                 #  R77
000685:
000686: 43,2532           36241                           CAF      SIX                                   #  RR OR LR
000687: 43,2533           71755                           MASK     RTSTDEX
000688: 43,2534           10000                           CCS      A
000689: 43,2535           12552                           TCF      R04LR                                 #  LR
000690:
000691: 43,2536           32641        R04RR              CAF      V16N72                                #  DISPLAY RR CDU ANGLES (1/SEC)
000692: 43,2537           04616                           TC       BANKCALL                              #           R1  +  XXX.XX DEG   TRUNNION
000693: 43,2540           20212                           CADR     GOMARKF                               #           R2  +  XXX.XX DEG   SHAFT
000694: 43,2541           12613                           TCF      R04END                                #  V34      R3     BLANK
000695: 43,2542           12544                           TCF      +2                                    #  V33
000696: 43,2543           12536                           TCF      R04RR                                 #  V32
000697:
000698: 43,2544           32642                           CAF      V16N78                                #  DISPLAY RR RANGE AND RANGE RATE (1/SEC)
000699: 43,2545           04616                           TC       BANKCALL                              #           R1  +- XXX.XX NM    RANGE
000700: 43,2546           20212                           CADR     GOMARKF                               #           R2  +- XXXXX. FPS   RANGE RATE
000701: 43,2547           12613                           TCF      R04END                                #  V34      R3     BLANK
000702: 43,2550           12566                           TCF      R04Y                                  #  V33
000703: 43,2551           12536                           TCF      R04RR                                 #  V32
000704:
000705: 43,2552           32643        R04LR              CAF      V16N66                                #  DISPLAY LR RANGE AND POSITION (1/SEC)
000706: 43,2553           04616                           TC       BANKCALL                              #           R1  +- XXXXX. FT    LR RANGE
000707: 43,2554           20212                           CADR     GOMARKF                               #           R2  +  0000X.       POS. NO.
000708: 43,2555           12613                           TCF      R04END                                #  V34      R3     BLANK
000709: 43,2556           12560                           TCF      +2                                    #  V33
000710: 43,2557           12552                           TCF      R04LR                                 #  V32
000711:
000712: 43,2560           32644                           CAF      V16N67                                #  DISPLAY LR VELX, VELY, VELZ (1/SEC)
000713: 43,2561           04616                           TC       BANKCALL                              #           R1  +- XXXXX. FPS   LR V(X)
000714: 43,2562           20212                           CADR     GOMARKF                               #           R2  +- XXXXX. FPS   LR V(Y)
000715: 43,2563           12613                           TCF      R04END                                #  V34      R3  +- XXXXX. FPS   LR V(Z)
000716: 43,2564           12566                           TCF      R04Y                                  #  V33
000717: 43,2565           12552                           TCF      R04LR                                 #  V32
000718:
000719: 43,2566           34755        R04Y               CAF      ZERO                                  #  TO TERMINATE SAMPLING
000720: 43,2567           55761                           TS       RSAMPDT
000721: 43,2570           35000                           CAF      2SECS                                 #  WAIT FOR LAST RADARUPT
000722: 43,2571           04616                           TC       BANKCALL
000723: 43,2572           01735                           CADR     DELAYJOB
000724: 43,2573           32650                           CAF      1SEC+1                                #  SAMPLE ONCE PER SECOND
000725: 43,2574           55761                           TS       RSAMPDT
000726: 43,2575           34755                           CAF      ZERO                                  #  FOR STORING RESULTS
000727: 43,2576           55760                           TS       RTSTLOC
000728: 43,2577           36241                           CAF      SIX
000729: 43,2600           71755                           MASK     RTSTDEX
000730: 43,2601           10000                           CCS      A
000731: 43,2602           44753                           CS       ONE                                   #  WAS LR
000732: 43,2603           64752                           AD       TWO                                   #  WAS RR
000733:


000735:
000736: 43,2604           12472                           TCF      R04X       -1
000737:
000738: 43,2605           34766        R04K               CAF      250MS+1                               #  SAMPLE 4 LR COMPONENTS PER SECOND.
000739: 43,2606           55761                           TS       RSAMPDT
000740:
000741: 43,2607           34752        R04L               CAF      TWO
000742: 43,2610           55757                           TS       RTSTBASE                              #  FOR LR   BASE = 2, MAX = 3
000743: 43,2611           36241                           CAF      SIX
000744: 43,2612           12521                           TCF      R04C       +4
000745: 43,2613           34755        R04END             CAF      ZERO                                  #  ZERO RSAMPDT
000746: 43,2614           55761                           TS       RSAMPDT                               #  TO TERMINATE SAMPLING
000747: 43,2615           34744                           CAF      BIT8                                  #  WAIT 1.28 SECONDS FOR POSSIBLE
000748: 43,2616           04616                           TC       BANKCALL                              #  PENDING RUPT.
000749: 43,2617           01735                           CADR     DELAYJOB
000750:
000751: 43,2620           00004                           INHINT
000752: 43,2621           44736                           CS       BIT14                                 #  DISABLE RR AUTO TRACKER
000753: 43,2622           00006                           EXTEND
000754: 43,2623           03012                           WAND     CHAN12
000755:
000756: 43,2624           05516                           TC       DOWNFLAG
000757: 43,2625           00063                           ADRES    R04FLAG                               #  SIGNAL END OF R04.
000758:
000759: 43,2626           05472                           TC       ENDEXT
000760:
000761: 43,2627           34741        R77END             CAF      EBANK4                                #  TO TERMINATE SAMPLING
000762: 43,2630           54003                           TS       EBANK
000763: 43,2631           34755                           CAF      ZERO
000764: 43,2632           55761                           TS       RSAMPDT
000765: 43,2633           34746                           CAF      BIT6                                  #  WAIT 320 MS FOR POSSIBLE
000766: 43,2634           04616                           TC       BANKCALL                              #  PENDING RUPT.
000767: 43,2635           01735                           CADR     DELAYJOB
000768:
000769: 43,2636           05516                           TC       DOWNFLAG
000770: 43,2637           00117                           ADRES    R77FLAG
000771: 43,2640           12121                           TCF      GOPIN
000772:
000773: 43,2641           04110        V16N72             VN       1672
000774: 43,2642           04116        V16N78             VN       1678
000775: 43,2643           04102        V16N66             VN       1666
000776: 43,2644           04103        V16N67             VN       1667
000777: 43,2645           01014        V04N12X            VN       412
000778: 43,2646           14431        V50N25X            VN       5025
000779: 43,2647           00201        201R04             OCT      00201
000780: 43,2650           00145        1SEC+1             DEC      101        B-14
000781: 43,2651     4766               250MS+1            EQUALS   CALLCODE
000782: 43,2651           00444        LRPOSCAL           OCT      444
000783:


000785: 43,2652           40077        RDRUSECK           CS       FLAGWRD3                              #  IS R29 ON?
000786: 43,2653           74741                           MASK     NR29FBIT
000787: 43,2654           10000                           CCS      A
000788: 43,2655           02120                           TC       ALM/END                               #  YES
000789: 43,2656           30101                           CA       FLAGWRD5                              #  IS R77 RUNNING?
000790: 43,2657           74741                           MASK     R77FLBIT
000791: 43,2660           10000                           CCS      A
000792: 43,2661           02120                           TC       ALM/END                               #  YES.
000793: 43,2662           40103                           CS       FLAGWRD7                              #  IS SERVICER RUNNING AND HENCE POSSIBLY
000794: 43,2663           74746                           MASK     V37FLBIT                              #  R12 USING THE LR?
000795: 43,2664           10000                           CCS      A
000796: 43,2665           12672                           TCF      CHECKRR                               #  NO
000797: 43,2666           40107                           CS       FLGWRD11                              #  YES, IS R12 ON?
000798: 43,2667           74735                           MASK     LRBYBIT
000799: 43,2670           10000                           CCS      A
000800: 43,2671           02120                           TC       ALM/END                               #  YES
000801: 43,2672           40075        CHECKRR            CS       FLAGWRD1                              #  IS THE TRACK FLAG SET AND HENCE POSSIBLY
000802: 43,2673           74747                           MASK     TRACKBIT                              #  P20 USING THE RR?
000803: 43,2674           10000                           CCS      A
000804: 43,2675           12702                           TCF      CHECKP22                              #  NO, CHECK FOR P22.
000805:
000806: 43,2676           30074        CKRNDBIT           CA       FLAGWRD0                              #  YES, BUT IS IT P25?
000807: 43,2677           74745                           MASK     RNDVZBIT
000808: 43,2700           10000                           CCS      A
000809: 43,2701           02120                           TC       ALM/END
000810: 43,2702           41011        CHECKP22           CS       MODREG
000811: 43,2703           62707                           AD       DEC22
000812: 43,2704           00006                           EXTEND
000813: 43,2705           12120                           BZF      ALM/END
000814: 43,2706           00002                           TC       Q
000815:
000816: 43,2707           00026        DEC22              DEC      22         B-14
000817:
000818: 43,2710                                           COUNT*   $$/EXTVB
000819:
000820: 43,2710           02123        VB64               TC       CHKPOOH                               #  DEMAND PROGRAM 00.
000821: 43,2711           02076                           TC       TESTXACT                              #  IF DISPLAY SYS. NOT BUSY,MAKE IT BUSY.
000822: 43,2712           34740                           CAF      PRIO4
000823: 43,2713           05105                           TC       FINDVAC
000824: 43,2714  E4,1604                                  EBANK=   ALPHASB
000825: 43,2714           03602 64104                     2CADR    SBANDANT                              #  CALC.,DISPLAY S-BAND ANTENNA ANGLES.
000826:
000827: 43,2716           05155                           TC       ENDOFJOB
000828:


000830:                                                                                                  #           IMUATTCK      VERB 43           DESCRIPTION
000831:                                                                                                  #               LOAD IMU ATTITUDE ERROR METERS
000832:                                                                                                  #                  1. REQUIRE POO OR FRESH START.
000833:                                                                                                  #                  2. REQUIRE COARSE ALIGN ENABLE AND ZERO ICDU BITS OFF.
000834:                                                                                                  #                  3. REQUIRE THAT NEEDLES BE OFF.
000835:                                                                                                  #                  4. REQUEST LOAD OF N22  (VAUES TO BE DISPLAYED).
000836:                                                                                                  #                  5. ON PROCEED OR ENTER RE-DISPLAY V43 AND SEND PULSES.
000837:
000838: 43,2717           02123        IMUATTCK           TC       CHKPOOH                               #  VB 76 - LOAD IMU ATT. ERROR METERS
000839:
000840: 43,2720           34763                           CAF      BITS4&5                               #  SEE IF COARSE ALIGN ENABLE AND ZERO IMU
000841: 43,2721           00006                           EXTEND                                         #  CDUS BITS ARE ON
000842: 43,2722           02012                           RAND     CHAN12
000843: 43,2723           10000                           CCS      A
000844: 43,2724           12120                           TCF      ALM/END                               #  NOT ALLOWED IF IMU COARSE OR IMU ZERO ON
000845:
000846: 43,2725           34355                           CAF      BIT13-14                              #  BOTH BITS 13 AND 14 MUST BE 1
000847: 43,2726           00006                           EXTEND                                         #  INDICATING THE MODE SELECTED IS OFF.
000848: 43,2727           06031                           RXOR     CHAN31
000849: 43,2730           74355                           MASK     BIT13-14
000850: 43,2731           00006                           EXTEND
000851: 43,2732           12734                           BZF      +2                                    #  NEEDLES IS OFF.
000852: 43,2733           12120                           TCF      ALM/END                               #  EXIT.  NEEDLES IS ON.
000853:
000854: 43,2734           02076                           TC       TESTXACT
000855:
000856: 43,2735           32225                           CAF      VNLODCDU
000857: 43,2736           04616                           TC       BANKCALL
000858: 43,2737           20212                           CADR     GOXDSPF
000859: 43,2740           05472                           TC       ENDEXT                                #  V34
000860: 43,2741           02742                           TC       +1
000861: 43,2742           32755                           CAF      V43K                                  #  REDISPLAY OUR VERB.
000862: 43,2743           04616                           TC       BANKCALL
000863: 43,2744           20473                           CADR     EXDSPRET
000864: 43,2745           34746                           CAF      BIT6
000865: 43,2746           00006                           EXTEND
000866: 43,2747           05012                           WOR      CHAN12                                #  ENABLE ERROR COUNTERS.
000867: 43,2750           34752                           CAF      TWO
000868: 43,2751           05203                           TC       WAITLIST                              #  PUT OUT COMMANDS IN .32 SECONDS.
000869: 43,2752     0321                                  EBANK=   THETAD
000870: 43,2752           02035 64100                     2CADR    ATTCK2
000871:
000872: 43,2754           15472                           TCF      ENDEXT
000873:
000874: 42,2035                                           BANK     42
000875: 42,2000                                           SETLOC   PINBALL3                              #  SOMETHING IN B42.
000876: 42,2000                                           BANK
000877:
000878: 42,2035                                           COUNT*   $$/EXTVB
000879:


000881: 42,2035           34752        ATTCK2             CAF      TWO                                   #  PUT OUT COMMANDS.
000882: 42,2036           54002                 +1        TS       Q                                     #  CDU WILL LIMIT EXCESS DATA.
000883: 42,2037           50000                           INDEX    A
000884: 42,2040           30321                           CA       THETAD
000885: 42,2041           00006                           EXTEND
000886: 42,2042           72053                           MP       ATTSCALE
000887: 42,2043           50002                           INDEX    Q
000888: 42,2044           56050                           XCH      CDUXCMD
000889: 42,2045           10002                           CCS      Q
000890: 42,2046           12036                           TCF      ATTCK2     +1
000891:
000892: 42,2047           37737                           CAF      13,14,15
000893: 42,2050           00006                           EXTEND
000894: 42,2051           05014                           WOR      CHAN14
000895: 42,2052           15261                           TCF      TASKOVER                              #  LEAVE ERROR COUNTERS ENABLED.
000896:
000897: 42,2053           03146        ATTSCALE           DEC      0.1
000898:
000899: 07,2667                                           BANK     7
000900: 43,2000                                           SETLOC   EXTVERBS
000901: 43,2000                                           BANK
000902:
000903: 43,2755                                           COUNT*   $$/EXTVB
000904:
000905: 43,2755           12600        V43K               VN       4300
000906:                                                                                                  #           V82PERF     VERB 82             DESCRIPTION
000907:                                                                                                  #               REQUEST ORBIT PARAMETERS DISPLAY (R30)
000908:                                                                                                  #  1. IF AVERAGE G IS OFF:
000909:                                                                                                  #           FLASH DISPLAY V04N06. R2 INDICATES WHICH SHIP'S STATE VECTOR IS
000910:                                                                                                  #            TO BE UPDATED. INITIAL CHOICE IS THIS SHIP (R2=1). ASTRONAUT
000911:                                                                                                  #            CAN CHANGE TO OTHER SHIP BY V22EXE, WHERE X NOT EQ 1.
000912:                                                                                                  #           SELECTED STATE VECTOR UPDATED BY THISPREC (OTHPREC).
000913:                                                                                                  #           CALLS SR30.1 (WHICH CALLS TFFCONMU + TFFRP/RA) TO CALCULATE
000914:                                                                                                  #            RPER (PERIGEE RADIUS), RAPO (APOGEE RADIUS), HPER (PERIGEE
000915:                                                                                                  #            HEIGHT ABOVE LAUNCH PAD OR LUNAR LANDING SITE), HAPO (APOGEE
000916:                                                                                                  #            HEIGHT AS ABOVE), TPER (TIME TO PERIGEE), TFF (TIME TO
000917:                                                                                                  #            INTERSECT 300 KFT ABOVE PAD OR 35KFT ABOVE LANDING SITE).
000918:                                                                                                  #           FLASH MONITOR V16N44 (HAPO, HPER, TFF).TFF IS -59M59S IF IT WAS
000919:                                                                                                  #            NOT COMPUTABLE, OTHERWISE IT INCREMENTS ONCE PER SECOND.
000920:                                                                                                  #            ASTRONAUT HAS OPTION TO MONITOR TPER BY KEYING IN N 32 E.
000921:                                                                                                  #            DISPLAY IS IN HMS, IS NEGATIVE (AS WAS TFF), AND INCREMENTS
000922:                                                                                                  #            ONCE PER SECOND ONLY IF TFF DISPLAY WAS -59M59S.
000923:
000924:                                                                                                  #  2. IF AVERAGE G IS ON:
000925:                                                                                                  #           CALLS SR30.1 APPROX EVERY TWO SECS.  STATE VECTOR IS ALWAYS
000926:                                                                                                  #            FOR THIS VEHICLE. V82 DOES NOT DISTURB STATE VECTOR.  RESULTS
000927:                                                                                                  #            OF SR30.1 ARE RAPO, RPER, HAPO, HPER, TPER, TFF.
000928:                                                                                                  #           FLASH MONITOR V16N44 (HAPO, HPER, TFF).
000929:                                                                                                  #           IF MODE IS P11, THEN CALL DELRSPL SO ASTRONAUT CAN MONITOR
000930:                                                                                                  #            RESULTS BY N50E. SPLASH COMPUTATION DONE ONCE PER TWO SECS.
000931:


000933: 43,2756           02076        V82PERF            TC       TESTXACT
000934:
000935: 43,2757           35021                           CAF      PRIO7                                 #  LESS THAN LAMBERT.  R30,V82
000936: 43,2760           05146                           TC       PRIOCHNG
000937: 43,2761           00006                           EXTEND
000938: 43,2762           32765                           DCA      V82CON
000939: 43,2763           05165                           TC       SUPDXCHZ                              #  V82CALL IN DIFF SUPERBANK FROM V82PERF
000940:
000941: 43,2764  E4,1722                                  EBANK=   HAPO
000942: 43,2764           03242 44104  V82CON             2CADR    V82CALL
000943:
000944:
000945:                                                                                                  #           VB83PERF     VERB 83            DESCRIPTION
000946:                                                                                                  #               REQUEST RENDEZVOUS PARAMETER DISPLAY (R31)
000947:                                                                                                  #               1. SET EXT VERB DISPLAY BUSY FLAG.
000948:                                                                                                  #               2. SCHEDULE R31CALL WITH PRIORITY 5.
000949:                                                                                                  #                  A. DISPLAY
000950:                                                                                                  #                      R1  RANGE
000951:                                                                                                  #                      R2  RANGE RATE
000952:                                                                                                  #                      R3  THETA
000953:
000954: 43,2766           02076        V83PERF            TC       TESTXACT
000955:
000956: 43,2767           34752                           CAF      BIT2
000957: 43,2770           05203                           TC       WAITLIST
000958: 43,2771  E7,1607                                  EBANK=   TSTRT
000959: 43,2771           03113 76067                     2CADR    R31CALL
000960:
000961: 43,2773           05155                           TC       ENDOFJOB
000962:
000963:                                                                                                  #  VERB 89 DESCRIPTION     RENDEZVOUS FINAL ATTITUDE ROUTINE (R63)
000964:
000965:                                                                                                  #  CALLED BY VERB 89 ENTER DURING P00. PRIO 10 USED.  CALCULATES AND
000966:                                                                                                  #  DISPLAYS FINAL FDAI BALL ANGLES TO POINT LM +X OR +Z AXIS AT CSM.
000967:
000968:                                                                                                  #  1. KEY IN V 89 E ONLY IF IN PROG 00. IF NOT IN P00, OPERATOR ERROR AND
000969:                                                                                                  #  EXIT R63, OTHERWISE CONTINUE.
000970:
000971:                                                                                                  #  2. IF IN P00, DO IMU STATUS CHECK ROUTINE (R02BOTH). IF IMU ON AND ITS
000972:                                                                                                  #  ORIENTATION KNOWN TO LGC, CONTINUE.
000973:
000974:                                                                                                  #  3. FLASH DISPLAY V 04 N 06.  R2 INDICATES WHICH SPACECRAFT AXIS IS TO
000975:                                                                                                  #  BE POINTED AT CSM.  INITIAL CHOICE IS PREFERRED (+Z) AXIS (R2=1).
000976:                                                                                                  #  ASTRONAUT CAN CHANGE TO (+X) AXIS (R2 NOT = 1) BY V 22 E 2 E.  CONTINUE
000977:                                                                                                  #  AFTER KEYING IN PROCEED.
000978:
000979:                                                                                                  #  4. BOTH VEHICLE STATE VECTORS UPDATED BY CONIC EQS.
000980:
000981:                                                                                                  #  5. HALF MAGNITUDE UNIT LOS VECTOR (IN STABLE MEMBER COORDINATES) AND
000982:


000984:                                                                                                  #  HALF MAGNITUDE UNIT SPACECRAFT AXIS VECTOR (IN BODY COORDINATES)
000985:                                                                                                  #  PREPARED FOR VECPOINT.
000986:
000987:                                                                                                  #  6. GIMBAL ANGLES FROM VECPOINT TRANSFORMED INTO FDAI BALL ANGLES BY
000988:                                                                                                  #  BALLANGS. FLASH DISPLAY V 06 N 18 AND AWAIT RESPONSE.
000989:
000990:                                                                                                  #  7. RECYCLE - RETURN TO STEP 4.
000991:                                                                                                  #     TERMINATE - EXIT R63.
000992:                                                                                                  #     PROCEED - RESET 3AXISFLG AND CALL R60LEM FOR ATTITUDE MANEUVER.
000993:
000994:
000995: 43,2774           02123        V89PERF            TC       CHKPOOH
000996: 43,2775           02076                           TC       TESTXACT
000997: 43,2776           34737                           CAF      PRIO10
000998: 43,2777           05105                           TC       FINDVAC
000999: 43,3000  E4,1612                                  EBANK=   RONE
001000: 43,3000           02000 54104                     2CADR    V89CALL
001001: 43,3002           05155                           TC       ENDOFJOB
001002:
001003:                                                                                                  #           V90PERF     VERB 90             DESCRIPTION
001004:                                                                                                  #               REQUEST RENDEZVOUS OUT-OF-PLANE DISPLAY (R36)
001005:                                                                                                  #               1. SET EXT VERB DISPLAY BUSY FLAG.
001006:                                                                                                  #               2. SCHEDULE R36 CALL WITH PRIORITY 10
001007:                                                                                                  #                  A. DISPLAY
001008:                                                                                                  #                      TIME OF EVENT - HOURS , MINUTES , SECONDS
001009:                                                                                                  #                      Y  OUT-OF-PLANE POSITION - NAUTICAL MILES
001010:                                                                                                  #                      YDOT  OUT-OF-PLANE VELOCITY - FEET/SECOND
001011:                                                                                                  #                      PSI  ANGLE BTW LINE OF SIGHT AND FORWARD
001012:                                                                                                  #                           DIRECTION VECTOR IN HORIZONTAL PLANE - DEGREES
001013:
001014: 43,3003           02076        V90PERF            TC       TESTXACT
001015: 43,3004           35021                           CAF      PRIO7                                 #  R36,V90
001016: 43,3005           05105                           TC       FINDVAC
001017: 43,3006  E4,1612                                  EBANK=   RPASS36
001018: 43,3006           02613 10104                     2CADR    R36
001019: 43,3010           15155                           TCF      ENDOFJOB
001020:                                                                                                  #           MINIMP     VERB 76              DESCRIPTION
001021:                                                                                                  #               MINIMUM IMPULSE MODE
001022:                                                                                                  #               1. SET MINIMUM IMPULSE RHC MODE FLAG TO 1.
001023:
001024: 43,3011           00004        MINIMP             INHINT
001025: 43,3012           40111                           CS       DAPBOOLS
001026: 43,3013           74735                           MASK     PULSES                                #  PULSES = 1 INDICATES MIN IMP MODE
001027: 43,3014           26111                           ADS      DAPBOOLS
001028: 43,3015           12121                           TCF      GOPIN                                 #  RETURN VIA PINBRNCH
001029:
001030:                                                                                                  #           NOMINIMP     VERB 77            DESCRIPTION
001031:                                                                                                  #               RATE COMMAND MODE
001032:


001034:                                                                                                  #               1. SET MINIMUM IMPULSE RHC MODE FLAG TO 0. (ZERO INDICATES NOT MINIMUM IMPULSE MODE.).
001035:                                                                                                  #               2. MOVE CDUX,CDUY,CDUZ INTO CDUXD,CDUYD,CDUZD.
001036:
001037: 43,3016           00004        NOMINIMP           INHINT
001038: 43,3017           44735                           CS       PULSES
001039: 43,3020           70111                           MASK     DAPBOOLS
001040: 43,3021           54111                           TS       DAPBOOLS                              #  PULSES = 0 NOT IN MINIMUM UMPULSE MODE
001041: 43,3022           04674                           TC       IBNKCALL
001042: 43,3023           40153                           CADR     ZATTEROR
001043: 43,3024           02121                           TC       GOPIN
001044:


001046:                                                                                                  #           CREWMANU     VERB 49            DESCRIPTION
001047:                                                                                                  #               START AUTOMATIC ATTITUDE MANEUVER
001048:                                                                                                  #               1. REQUIRE PROGRAM 00 ACTIVE.
001049:                                                                                                  #               2. SET EXT VERB DISPLAY BUSY FLAG.
001050:                                                                                                  #               3. SCHEDULE R62DISP WITH PRIORITY 10.
001051:                                                                                                  #               4. RELEASE EXT VERB DISPLAY.
001052:
001053:                                                                                                  #             R62DISP
001054:                                                                                                  #               1. DISPLAY FLASHING V06,N22.
001055:                                                                                                  #                  RESPONSES
001056:                                                                                                  #                  A. TERMINATE
001057:                                                                                                  #                     1. GO TO GOTOPOOH.
001058:                                                                                                  #                  B. PROCEED
001059:                                                                                                  #                     1. SET 3AXISFLG TO INDICATE MANEUVER IS SPECIFIED BY 3 AXIS.
001060:                                                                                                  #                     2. EXECUTE R60LEM (ATTITUDE MANEUVER).
001061:                                                                                                  #                  C. ENTER
001062:                                                                                                  #                     1. REPEAT FLASHING V06,N22.
001063:
001064: 43,3025           02123        CREWMANU           TC       CHKPOOH                               #  DEMAND POO
001065:
001066: 43,3026           02076                           TC       TESTXACT
001067:
001068: 43,3027           34737                           CAF      PRIO10
001069: 43,3030           05105                           TC       FINDVAC
001070: 43,3031  E6,1674                                  EBANK=   BCDU
001071: 43,3031           02065 46106                     2CADR    R62DISP
001072: 43,3033           05155                           TC       ENDOFJOB
001073:


001075:                                                                                                  #  TRMTRACK     VERB 56                     DESCRIPTION
001076:                                                                                                  #               TERMINATE TRACKING (P20 AND P25).
001077:                                                                                                  #               1. KNOCK DOWN RENDEZVOUS, TRACK, AND UPDATE FLAGS.
001078:                                                                                                  #               2. REQUIRE P20 OR  P25 NOT RUNNING ALONE OR GO TO GOTOPOOH (REQUEST PROGRAM 00).
001079:                                                                                                  #               3. SCHEDULE V56TOVAC WITH PRIORITY 30.
001080:
001081:                                                                                                  #               V56TOVAC
001082:                                                                                                  #               1. EXECUTE INTSTALL (IF INTEGRATION IS RUNNING, STALL UNTIL IT IS FINISHED.).
001083:                                                                                                  #               2. ZERO GROUP 2 TO HALT P20.
001084:                                                                                                  #               3. TRANSFER CONTROL TO GOPROG2 (SOFTWARE RESTART).
001085:
001086: 43,3034           33052        TRMTRACK           CA       BITS9+7                               #  IS REND OR P25 FLAG ON
001087: 43,3035           70074                           MASK     FLAGWRD0
001088: 43,3036           00006                           EXTEND
001089: 43,3037           12121                           BZF      GOPIN                                 #  NO
001090:
001091: 43,3040           05516                           TC       DOWNFLAG
001092: 43,3041           00010                           ADRES    RNDVZFLG
001093:
001094: 43,3042           05516                           TC       DOWNFLAG
001095: 43,3043           00006                           ADRES    P25FLAG
001096:
001097: 43,3044           34747                           CA       TRACKBIT                              #  IS TRACK FLAG ON?
001098: 43,3045           70075                           MASK     FLAGWRD1
001099: 43,3046           00006                           EXTEND
001100: 43,3047           12121                           BZF      GOPIN
001101:
001102: 43,3050           04635                           TC       POSTJUMP
001103: 43,3051           64054                           CADR     TRMTRAK1
001104:
001105: 43,3052           00500        BITS9+7            OCT      500
001106:
001107: 42,2000                                           SETLOC   SBAND                                 #  BANK 42
001108: 42,2000                                           BANK
001109:
001110: 42,2054                                           COUNT*   $$/EXTVB
001111:
001112: 42,2054           05516        TRMTRAK1           TC       DOWNFLAG
001113: 42,2055           00027                           ADRES    UPDATFLG                              #  UPDATE FLAG DOWN
001114: 42,2056           05516                           TC       DOWNFLAG
001115: 42,2057           00031                           ADRES    TRACKFLG                              #  TRACK FLAG DOWN
001116: 42,2060           05516                           TC       DOWNFLAG
001117: 42,2061           00007                           ADRES    IMUSE
001118:
001119: 42,2062           06036                           TC       INTPRET
001120: 42,2063           77624                           CALL
001121: 42,2064           27412                                    INTSTALL                              #  DONT INTERRUPT INTEGRATION
001122: 42,2065           77776                           EXIT
001123:
001124: 42,2066           05353                           TC       PHASCHNG
001125:


001127: 42,2067           00002                           OCT      2                                     #  KILL GROUP 2 TO HALT P20 ACTIVITY
001128:
001129: 42,2070           00004                           INHINT
001130: 42,2071           04674                           TC       IBNKCALL                              #  ZERO THE COMMANDED RATES TO STOP
001131: 42,2072           40165                           CADR     STOPRATE                              #  MANEUVER
001132:
001133: 42,2073           04674                           TC       IBNKCALL
001134: 42,2074           40123                           CADR     RESTORDB
001135:
001136: 42,2075           06011                           TC       CLRADMOD                              #  CLEAR BITS 10 + 15 OF RADMODES.
001137:
001138: 42,2076           44736                           CS       BIT14                                 #  DISABLE LOCKON
001139: 42,2077           00006                           EXTEND
001140: 42,2100           03012                           WAND     CHAN12
001141: 42,2101           04635                           TC       POSTJUMP
001142: 42,2102           12771                           CADR     GOPROG2                               #  CAUSE RESTART.
001143:
001144:                                                                                                  #           DNEDUMP     VERB 74             DESCRIPTION
001145:                                                                                                  #               INITIALIZE DOWN-TELEMETRY PROGRAM FOR ERASABLE MEMORY DUMP.
001146:                                                                                                  #               1. SET EXT VERB DISPLAY BUSY FLAG.
001147:                                                                                                  #               2. REPLACE CURRENT DOWNLIST WITH ERASABLE MEMORY.
001148:                                                                                                  #               3. RELEASE EXT VERB DISPLAY.
001149:
001150: 43,2000                                           SETLOC   EXTVERBS
001151: 43,2000                                           BANK
001152:
001153: 43,3053                                           COUNT*   $$/EXTVB
001154:
001155: 43,3053     0400                                  EBANK=   400
001156: 43,3053           33056        DNEDUMP            CAF      LDNDUMPI
001157: 43,3054           54335                           TS       DNTMGOTO
001158: 43,3055           02121                           TC       GOPIN
001159:
001160: 43,3056  43,3053               V74                EQUALS   DNEDUMP
001161: 43,3056           03631        LDNDUMPI           REMADR   DNDUMPI
001162:
001163:
001164:                                                                                                  #           LEMVEC     VERB 80              DESCRIPTION
001165:                                                                                                  #               UPDATE LEM STATE VECTOR
001166:                                                                                                  #                  RESET VEHUPFLG TO 0
001167:
001168: 43,3057           05516        LEMVEC             TC       DOWNFLAG
001169: 43,3060           00026                           ADRES    VEHUPFLG                              #  VB 80 - VEHUPFLG DOWN INDICATES LEM
001170:
001171: 43,3061           03064                           TC       NOUPDOWN
001172:                                                                                                  #           CSMVEC     VERB 81              DESCRIPTION
001173:                                                                                                  #               UPDATE CSM STATE VECTOR
001174:                                                                                                  #                  SET   VEHUPFLG TO 1
001175:
001176: 43,3062           05504        CSMVEC             TC       UPFLAG
001177:


001179: 43,3063           00026                           ADRES    VEHUPFLG                              #  VB 81 - VEHUPFLG UP INDICATES CSM
001180:
001181: 43,3064           05516        NOUPDOWN           TC       DOWNFLAG
001182: 43,3065           00030                           ADRES    NOUPFLAG
001183:
001184: 43,3066           12121                           TCF      GOPIN
001185:
001186:                                                                                                  #           UPDATOFF   VERB 95      DESCRIPTION
001187:                                                                                                  #               INHIBIT STATE VECTOR UPDATES BY INCORP
001188:                                                                                                  #                  SET NOUPFLAG TO 1
001189:
001190: 43,3067           05504        UPDATOFF           TC       UPFLAG                                #  VB 95 SET NOUPFLAG
001191: 43,3070           00030                           ADRES    NOUPFLAG
001192:
001193: 43,3071           02121                           TC       GOPIN
001194:


001196:                                                                                                  #           SYSTEST     VERB 92             DESCRIPTION
001197:                                                                                                  #             OPERATE IMU PERFORMANCE TEST.
001198:                                                                                                  #               1. REQUIRE PROGRAM 00 OR TURN ON OPERATOR ERROR.
001199:                                                                                                  #               2. SET EXT VERB BUSY FLAG.
001200: 43,3072  E5,1417                                  EBANK=   QPLACE
001201:
001202: 43,3072           02123        SYSTEST            TC       CHKPOOH                               #  DEMAND POO
001203:
001204: 43,3073           02076                           TC       TESTXACT
001205:
001206: 43,3074           37707                           CAF      PRIO22
001207: 43,3075           05105                           TC       FINDVAC
001208: 43,3076  E5,1417                                  EBANK=   QPLACE
001209: 43,3076  37,2000                                  SBANK=   IMUSUPER
001210: 43,3076           02002 76065                     2CADR    REDO
001211:
001212: 43,3100           05155                           TC       ENDOFJOB
001213:
001214:                                                                                                  #  VERB 93         CLEAR RENDWFLG, CAUSES W-MATRIX TO BE RE-INITIALIZED.
001215:
001216: 43,3101           00004        WMATRXNG           INHINT
001217: 43,3102           44753                           CS       RENDWBIT
001218: 43,3103           70101                           MASK     FLAGWRD5
001219: 43,3104           54101                           TS       FLAGWRD5
001220:
001221: 43,3105           02121                           TC       GOPIN
001222:
001223: 43,3106  43,3106               GOSHOSUM           EQUALS   SHOWSUM
001224:
001225: 43,3106           02123        SHOWSUM            TC       CHKPOOH                               #  *
001226: 43,3107           02076                           TC       TESTXACT                              #  *
001227: 43,3110           35021                           CAF      PRIO7                                 #  ALLOW OTHER CHARINS.
001228: 43,3111           05146                           TC       PRIOCHNG
001229: 43,3112           34753                           CAF      S+1                                   #  *
001230: 43,3113           55376                           TS       SKEEP6                                #  * SHOWSUM OPTION
001231: 43,3114           34755                           CAF      S+ZERO                                #  *
001232: 43,3115           55362                           TS       SMODE                                 #  * TURN OFF SELF-CHECK
001233: 43,3116           33253                           CA       SELFADRS                              #  *
001234: 43,3117           55361                           TS       SELFRET                               #  *
001235: 43,3120           03530                           TC       STSHOSUM                              #  * ENTER ROPECHK
001236:
001237: 43,3121           23372        SDISPLAY           LXCH     SKEEP2                                #  * BANK # FOR DISPLAY
001238: 43,3122           23373                           LXCH     SKEEP3                                #  * BUGGER WORD FOR DISPLAY
001239: 43,3123           33252        NOKILL             CA       ADRS1                                 #  *
001240: 43,3124           54156                           TS       MPAC       +2                         #  *
001241: 43,3125           33136                           CA       VNCON                                 #  * 0501
001242: 43,3126           04616                           TC       BANKCALL                              #  *
001243: 43,3127           20212                           CADR     GOXDSPF                               #  *
001244: 43,3130           03133                           TC       +3                                    #  *
001245: 43,3131           03641                           TC       NXTBNK                                #  *
001246:


001248: 43,3132           03123                           TC       NOKILL                                #  *
001249: 43,3133           33253                           CA       SELFADRS
001250: 43,3134           55371                           TS       SKEEP1
001251:
001252: 43,3135           05472                           TC       ENDEXT                                #  *
001253:
001254: 43,3136           01201        VNCON              VN       501                                   #  *
001255:
001256: 43,3137           31376        ENDSUMS            CA       SKEEP6                                #  *
001257: 43,3140           00006                           EXTEND                                         #  *
001258: 43,3141           13344                           BZF      SELFCHK                               #  * ROPECHK, START SELFCHK AGAIN.
001259: 43,3142           03530                           TC       STSHOSUM                              #  * START SHOWSUM AGAIN.
001260:


001262:                                                                                                  #           DAPDISP     VERB 48             DESCRIPTION
001263:                                                                                                  #               LOAD AUTO PILOT  DATA
001264:                                                                                                  #               1. REQUIRE EXT VERB DISPLAY AVAILABLE AND SET BUSY FLAG.
001265:                                                                                                  #               2. EXECUTE DAPDATA1, DAPDATA2, AND DAPDATA3.
001266:                                                                                                  #               3. RELEASE EXT VERB DISPLAY SYSTEM.
001267: 43,3143           02076        DAPDISP            TC       TESTXACT
001268: 43,3144           35021                           CAF      PRIO7                                 #  R03
001269: 43,3145           05146                           TC       PRIOCHNG
001270: 43,3146           04635                           TC       POSTJUMP
001271: 43,3147           40004                           CADR     DAPDATA1
001272: 34,2000                                           BANK     34
001273: 20,2000                                           SETLOC   LOADDAP
001274: 20,2000                                           BANK
001275:
001276: 20,2004                                           COUNT*   $$/R03
001277:
001278: 20,2004  30,2000                                  SBANK=   LOWSUPER                              #  FOR SUBSEQUENT LOW 2CADR'S.
001279:
001280: 20,2004           32114        DAPDATA1           CAF      BOOLSMSK                              #  SET DISPLAY ACCORDING TO DAPBOOLS BITS.
001281: 20,2005           70111                           MASK     DAPBOOLS                              #  LM
001282: 20,2006           55343                           TS       DAPDATR1                              #  LM
001283: 20,2007           40106                           CS       FLGWRD10                              #  SET BIT 14 TO BE COMPLEMENT OF APSFLAG.
001284: 20,2010           74737                           MASK     APSFLBIT
001285: 20,2011           10000                           CCS      A
001286: 20,2012           34736                           CAF      BIT14
001287: 20,2013           27343                           ADS      DAPDATR1
001288: 20,2014           31343        CHKDATA1           CAE      DAPDATR1                              #  IF BITS 13 AND 14 ARE BOTH ZERO, FORCE
001289: 20,2015           74355                           MASK     BIT13-14                              #    A ONE INTO BIT 13.
001290: 20,2016           00006                           EXTEND
001291: 20,2017           12034                           BZF      FORCEONE
001292: 20,2020           31343                           CAE      DAPDATR1                              #  ENSURE THAT NO ILLEGAL BITS SET BY CREW.
001293: 20,2021           72113        MSKDATR1           MASK     DSPLYMSK
001294: 20,2022           55343                           TS       DAPDATR1
001295: 20,2023           32112                           CAF      V01N46                                #  LM
001296: 20,2024           04616                           TC       BANKCALL
001297: 20,2025           20231                           CADR     GOXDSPFR
001298: 20,2026           15472                           TCF      ENDEXT                                #  V34E  TERMINATE
001299: 20,2027           12037                           TCF      DPDAT1                                #  V33E  PROCEED
001300: 20,2030           12014                           TCF      CHKDATA1                              #  E     NEW DATA    CHECK AND REDISPLAY
001301: 20,2031           36241                           CAF      REVCNT                                #  BITS 2 & 3:  BLANKS R2 & R3.
001302: 20,2032           05464                           TC       BLANKET
001303: 20,2033           15155                           TCF      ENDOFJOB
001304: 20,2034           34737        FORCEONE           CAF      BIT13
001305: 20,2035           27343                           ADS      DAPDATR1
001306: 20,2036           12021                           TCF      MSKDATR1
001307:
001308: 20,2037           00004        DPDAT1             INHINT                                         #  INHINT FOR SETTING OF FLAG BITS AND MASS
001309: 20,2040           44737                           CS       APSFLBIT                              #    ON BASIS OF DISPLAYED DAPDATR1.
001310: 20,2041           70106                           MASK     FLGWRD10
001311: 20,2042           54001                           TS       L                                     #  SET APSFLAG TO BE COMPLEMENT OF BIT 14.
001312:


001314: 20,2043           41343                           CS       DAPDATR1
001315: 20,2044           74736                           MASK     BIT14
001316: 20,2045           10000                           CCS      A
001317: 20,2046           34737                           CAF      APSFLBIT
001318: 20,2047           60001                           AD       L
001319: 20,2050           54106                           TS       FLGWRD10
001320: 20,2051           41343                           CS       DAPDATR1                              #  SET BITS OF DAPBOOLS ON BASIS OF DISPLAY
001321: 20,2052           74355                           MASK     BIT13-14                              #    MASK OUT CSMDOCKD (BIT 13) UNLESS BOTH
001322: 20,2053           10000                           CCS      A                                     #    13 AND 14 ARE SET.
001323: 20,2054           44737                           CS       CSMDOCKD
001324: 20,2055           62114                           AD       BOOLSMSK
001325: 20,2056           71343                           MASK     DAPDATR1
001326: 20,2057           54001                           TS       L
001327: 20,2060           42114                           CS       BOOLSMSK
001328: 20,2061           70111                           MASK     DAPBOOLS
001329: 20,2062           60001                           AD       L
001330: 20,2063           54111                           TS       DAPBOOLS
001331: 20,2064           74737                           MASK     CSMDOCKD                              #  LOAD MASS IN ACCORDANCE WITH CSMDOCKD.
001332: 20,2065           10000                           CCS      A                                     #    MASS IS USUALLY ALREADY OKAY, SO DO
001333: 20,2066           31332                           CAE      CSMMASS                               #    NOT TOUCH ITS LOW-ORDER PART.
001334: 20,2067           61331                           AD       LEMMASS
001335: 20,2070           55244                           TS       MASS
001336: 20,2071           30111                           CAE      DAPBOOLS
001337: 20,2072           74741                           MASK     ACC4OR2X                              #  2 OR 4 JET X-TRANSLATION
001338: 20,2073           00006                           EXTEND                                         #  (BIT ACC4OR2X = 1 FOR 4 JETS)
001339: 20,2074           12101                           BZF      +5
001340: 20,2075           44735                           CS       BIT15
001341: 20,2076           70075                           MASK     FLAGWRD1                              #  CLEAR NJTSFLAG TO 0 FOR 4 JETS
001342: 20,2077           54075                           TS       FLAGWRD1
001343: 20,2100           12104                           TCF      +4
001344: 20,2101           40075                           CS       FLAGWRD1                              #  SET NJTSFLAG TO 1 FOR 2 JETS
001345: 20,2102           74735                           MASK     BIT15
001346: 20,2103           26075                           ADS      FLAGWRD1
001347: 20,2104           30111                           CA       DAPBOOLS                              #  SELECT DESIRED KALCMANU AUTOMATIC
001348: 20,2105           76244                           MASK     THREE                                 #  MANEUVER RATE
001349: 20,2106           60000                           DOUBLE                                         #  RATEINDX HAS TO BE 0,2,4,6 SINCE RATES
001350: 20,2107           55325                           TS       RATEINDX                              #  ARE DP
001351: 20,2110           04635                           TC       POSTJUMP
001352: 20,2111           02203                           CADR     STIKLOAD
001353:
001354: 20,2112           00256        V01N46             VN       0146
001355: 20,2113           33113        DSPLYMSK           OCT      33113
001356: 20,2114           13113        BOOLSMSK           OCT      13113
001357: 01,2203                                           BANK     01
001358: 01,2000                                           SETLOC   LOADDAP1
001359: 01,2000                                           BANK
001360:
001361: 01,2203                                           COUNT*   $$/R03
001362:
001363: 01,2203           35015        STIKLOAD           CAF      EBANK6
001364:


001366: 01,2204           54003                           TS       EBANK
001367: 01,2205  E6,1442                                  EBANK=   STIKSENS
001368: 01,2205           34745                           CA       RHCSCALE                              #  SET STICK SENSITIVITY TO CORRESPOND TO A
001369: 01,2206           70111                           MASK     DAPBOOLS                              #  MAXIMUM COMMANDED RATE (AT 42 COUNTS) OF
001370: 01,2207           10000                           CCS      A                                     #  20 D/S(NORMAL) OR 4 D/S(FINE), SCALED
001371: 01,2210           32334                           CA       NORMAL                                #  AT 45 D/S.
001372: 01,2211           62335                           AD       FINE
001373: 01,2212           55442                           TS       STIKSENS
001374: 01,2213           32337                           CA       -0.6D/S
001375: 01,2214           55474                           TS       -RATEDB                               #  LM-ONLY BREAKOUT LEVEL IS .6 D/S.
001376: 01,2215           34737                           CA       CSMDOCKD                              #  IF CSM-DOCKED, DIVIDE STICK SENSITIVITY
001377: 01,2216           70111                           MASK     DAPBOOLS                              #  BY 10. NORMAL SCALING IS THEN 2 D/S AND
001378: 01,2217           00006                           EXTEND                                         #  FINE SCALING IS 0.4 D/S
001379: 01,2220           12227                           BZF      +7                                    #  BRANCH IF CSM IS NOT DOCKED.
001380: 01,2221           31442                           CA       STIKSENS
001381: 01,2222           00006                           EXTEND
001382: 01,2223           72336                           MP       1/10
001383: 01,2224           55442                           TS       STIKSENS
001384: 01,2225           32340                           CA       -0.3D/S                               #  CSM-DOCKED BREAKOUT LEVEL IS .3 D/S.
001385: 01,2226           55474                           TS       -RATEDB
001386: 01,2227           00003                           RELINT                                         #  PROCEED TO NOUN 47, MASS LOAD,
001387:
001388: 01,2230           32331        DAPDATA2           CAF      V0647
001389: 01,2231           04616                           TC       BANKCALL
001390: 01,2232           20231                           CADR     GOXDSPFR
001391: 01,2233           12241                           TCF      ENDR03                                #  V34E  TERMINATE. FIRST SET DB, DO 1/ACCS
001392: 01,2234           12245                           TCF      DAPDAT2                               #  V33E  PROCEED
001393: 01,2235           12230                           TCF      DAPDATA2                              #        LOAD NEW DATA AND RECYCLE
001394: 01,2236           34751                           CAF      BIT3                                  #  BLANKS R3
001395: 01,2237           05464                           TC       BLANKET                               #             LM
001396: 01,2240           15155                           TCF      ENDOFJOB
001397: 01,2241           00004        ENDR03             INHINT
001398: 01,2242           04674                           TC       IBNKCALL
001399: 01,2243           40123                           CADR     RESTORDB
001400: 01,2244           15472                           TCF      ENDEXT                                #  DOES RELINT
001401:
001402: 01,2245           40106        DAPDAT2            CS       FLGWRD10                              #  DETERMINE STAGE FROM APSFLAG
001403: 01,2246           74737                           MASK     APSFLBIT
001404: 01,2247           10000                           CCS      A
001405: 01,2250           32000                           CA       MINLMD
001406: 01,2251           62001                           AD       MINMINLM
001407: 01,2252           61331                           AD       LEMMASS                               #  LEMMASS MUST BE GREATER THAN EMPTY LEM
001408: 01,2253           00006                           EXTEND
001409: 01,2254           62230                           BZMF     DAPDATA2                              #  ASK FOR NEW MASSES
001410: 01,2255           30111                           CAE      DAPBOOLS
001411: 01,2256           74737                           MASK     CSMDOCKD
001412: 01,2257           00006                           EXTEND
001413: 01,2260           12266                           BZF      LEMALONE                              #  SKIP TEST ON CSMMASS IF NOT DOCKED.
001414: 01,2261           44741                           CS       MINCSM                                #  TEST CSM MASS
001415: 01,2262           61332                           AD       CSMMASS                               #  CSMMASS MUST BE GREATER THAN EMPTY CSM
001416:


001418: 01,2263           00006                           EXTEND
001419: 01,2264           62230                           BZMF     DAPDATA2                              #  ASK FOR NEW MASSES
001420: 01,2265           31332                           CAE      CSMMASS                               #  DOCKED:  MASS = CSMMASS + LEMMASS
001421: 01,2266           61331        LEMALONE           AD       LEMMASS                               #  LEM ALONE:  MASS = LEMMASS
001422: 01,2267           22007                           ZL
001423: 01,2270           53245                           DXCH     MASS
001424: 01,2271           00004                           INHINT
001425: 01,2272           04674                           TC       IBNKCALL                              #  SET DEADBANK AND COMPUTE MOMENTS OF
001426: 01,2273           40123                           CADR     RESTORDB                              #    INERTIA.
001427: 01,2274           00003                           RELINT                                         #  PROCEED TO NOUN 48 (OR END).
001428:
001429: 01,2275           40106        DAPDATA3           CS       FLGWRD10
001430: 01,2276           74737                           MASK     APSFLBIT
001431: 01,2277           00006                           EXTEND                                         #  END ROUTINE IF LEM HAS STAGED,
001432: 01,2300           15472                           BZF      ENDEXT
001433: 01,2301           32332                           CAF      V06N48                                #  DISPLAY TRIM ANGLES AND REQUEST RESPONSE
001434: 01,2302           04616                           TC       BANKCALL
001435: 01,2303           20231                           CADR     GOXDSPFR
001436: 01,2304           05472                           TC       ENDEXT
001437: 01,2305           12312                           TCF      DPDAT3                                #  V33E GO DO TRIM (WAITLIST TO TRIMGIMB)
001438: 01,2306           12301                           TCF      -5                                    #       LOAD NEW DATA AND RECYCLE
001439: 01,2307           34751                           CAF      BIT3
001440: 01,2310           05464                           TC       BLANKET                               #  BLANK R3
001441: 01,2311           15155                           TCF      ENDOFJOB
001442: 01,2312           34753        DPDAT3             CAF      BIT1                                  #  GO TO TRIMGIMB VIA WAITLIST SO IT
001443: 01,2313           00004                           INHINT                                         #  CAN USE FIXDELAY AND VARDELAY
001444: 01,2314           05203                           TC       WAITLIST
001445: 01,2315  E6,1401                                  EBANK=   ROLLTIME
001446: 01,2315           03106 56066                     2CADR    TRIMGIMB
001447: 01,2317           15155                           TCF      ENDOFJOB                              #  DOES A RELINT
001448: 01,2320           32333        TRIMDONE           CAF      V50N48
001449: 01,2321           04616                           TC       BANKCALL                              #  TRIM IS FINISHED; PLEASE TERMINATE R03
001450: 01,2322           20237                           CADR     GOMARK3R
001451: 01,2323           05472                           TC       ENDEXT                                #  V34E TERMINATE
001452: 01,2324           05472                           TC       ENDEXT
001453: 01,2325           05472                           TC       ENDEXT
001454: 01,2326           36007                           CAF      OCT24                                 #  BIT5 TO CHANGE TO PERFORM, 3 TO BLANK R3
001455: 01,2327           05464                           TC       BLANKET
001456: 01,2330           15155                           TCF      ENDOFJOB
001457:
001458: 01,2331           01457        V0647              VN       0647
001459: 01,2332           01460        V06N48             VN       0648
001460:
001461: 01,2333           14460        V50N48             VN       5048
001462: 01,2334           25101        NORMAL             DEC      .660214
001463:                                                                                                  #  NORMAL SCALING IS 20 D/S
001464: 01,2335           05220        FINE               DEC      .165054                               #  FINE STICK SCALING (4 D/S).
001465: 01,2336           03146        1/10               DEC      .1                                    #  FACTOR FOR CSM-DOCKED SCALING
001466: 01,2337           77445        -0.6D/S            DEC      -218       B-14
001467:


001469:
001470: 01,2340           77622        -0.3D/S            DEC      -109       B-14
001471:


001473:                                                                                                  #  VERB 66.  VEHICLES ARE ATTACHED.  MOVE THIS VEHICLE STATE VECTOR TO
001474:                                                                                                  #            OTHER VEHICLE STATE VECTOR.
001475:
001476:                                                                                                  #      USE SUBROUTINE GENTRAN.
001477:
001478: 07,2667                                           BANK     7
001479: 43,2000                                           SETLOC   EXTVERBS
001480: 43,2000                                           BANK
001481:
001482: 43,3150                                           COUNT*   $$/EXTVB
001483:
001484: 43,3150  E3,1626                                  EBANK=   RRECTHIS
001485:
001486: 43,3150           34737        ATTACHED           CAF      PRIO10
001487: 43,3151           05105                           TC       FINDVAC
001488: 43,3152  E3,1626                                  EBANK=   RRECTHIS
001489:
001490: 43,3152           03155 66103                     2CADR    ATTACHIT
001491:
001492: 43,3154           05155                           TC       ENDOFJOB
001493:
001494: 43,3155           06036        ATTACHIT           TC       INTPRET
001495: 43,3156           77624                           CALL
001496: 43,3157           27412                                    INTSTALL
001497: 43,3160           43014                           SET      BON
001498: 43,3161           04063                                    MOONOTH
001499: 43,3162           04304                                    MOONTHIS
001500: 43,3163           67166                                    +3
001501: 43,3164           77614                           CLEAR
001502: 43,3165           04263                                    MOONOTH
001503: 43,3166           77776                           EXIT
001504: 43,3167           33212                           CAF      OCT51
001505: 43,3170           05544                           TC       GENTRAN
001506: 43,3171           01626                           ADRES    RRECTHIS                              #  OUR STATE VECTOR INTO OTHER VIA GENTRAN
001507: 43,3172           01554                           ADRES    RRECTOTH
001508:
001509: 43,3173           00003                           RELINT
001510: 43,3174           06036                           TC       INTPRET
001511: 43,3175           77624                           CALL                                           #  UPDATE R-OTHER, V-OTHER
001512: 43,3176           26760                                    PTOALEM
001513: 43,3177           45154                           LXA,2    CALL
001514: 43,3200           02030                                    PBODY
001515: 43,3201           26114                                    SVDWN1
001516: 43,3202           77776                           EXIT
001517:
001518: 43,3203           33213                           CAF      TCPINAD
001519: 43,3204           50120                           INDEX    FIXLOC
001520: 43,3205           54052                           TS       QPRET
001521: 43,3206           04635                           TC       POSTJUMP
001522: 43,3207           27427                           CADR     INTWAKE                               #  FREE INTEGRATION AND EXIT.
001523:


001525:
001526: 43,3210           77634        TCPIN              RTB
001527: 43,3211           20723                                    PINBRNCH
001528:
001529: 43,3212           00051        OCT51              OCT      51
001530: 43,3213           67210        TCPINAD            CADR     TCPIN
001531:
001532:                                                                                                  #  VERB 96  SET QUITFLAG TO STOP INTEGRATION.
001533:
001534:                                                                                                  #           GO TO V37 WITH ZERO TO CAUSE POO.
001535:                                                                                                  #           STATEINT WILL CHECK QUITFLAG AND SKIP 1ST PASS,
001536:                                                                                                  #                  THUS ALLOWING A 10 MINUTE PERIOD WITHOUT INTEGRATION.
001537:
001538: 43,3214           05504        VERB96             TC       UPFLAG                                #  QUITFLAG WILL CAUSE INTEGRATION TO EXIT
001539: 43,3215           00221                           ADRES    QUITFLAG                              #        AT NEXT TIMESTEP
001540:
001541: 43,3216           34755                           CAF      ZERO
001542: 43,3217           04635                           TC       POSTJUMP
001543: 43,3220           10037                           CADR     V37                                   #  GO TO POO
001544:
001545:
001546:                                                                                                  #  VERB 67:     DISPLAY OF W MATRIX
001547:
001548: 43,3221           02076        V67                TC       TESTXACT
001549: 43,3222           35017                           CAF      PRIO5
001550: 43,3223           05105                           TC       FINDVAC
001551: 43,3224  E4,1604                                  EBANK=   WWPOS
001552: 43,3224           02011 62064                     2CADR    V67CALL
001553:
001554: 43,3226           05155                           TC       ENDOFJOB
001555:
001556:                                                                                                  #  VERB 65          DISABLE U,V JETS DURING DPS BURNS
001557:
001558: 43,3227           05504        SNUFFOUT           TC       UPFLAG
001559: 43,3230           00115                           ADRES    SNUFFER
001560: 43,3231           02121                           TC       GOPIN
001561:
001562:                                                                                                  #  VERB 75          ENABLE U,V JETS DURING DPS BURNS
001563:
001564: 43,3232           05516        OUTSNUFF           TC       DOWNFLAG
001565: 43,3233           00115                           ADRES    SNUFFER
001566: 43,3234           02121                           TC       GOPIN
001567:                                                                                                  #  VERB 85         DISPLAY RR LOS AZIMUTH AND ELEVATION.
001568:
001569:                                                                                                  #           AZIMUTH IS THE ANGLE BETWEEN THE LOS AND THE X-Z NB PLANE, 0 - 90 DEG IN THE +Y HEMISPHERE,
001570:                                                                                                  #  360 - 270 DEG IN THE -Y HEMISPHERE.
001571:
001572:                                                                                                  #           ELEVATION IS THE ANGLE BETWEEN +ZNB AND THE PROJECTION OF THE LOS INTO THE X-Z PLANE, 0 - 360 ABOUT +Y.
001573:
001574: 43,3235  E7,1750                                  EBANK=   TANGNB
001575:


001577: 43,3235           02076        VERB85             TC       TESTXACT
001578: 43,3236           04635                           TC       POSTJUMP
001579: 43,3237           60000                           CADR     DSPRRLOS
001580:
001581: 40,2000                                           SETLOC   PINBALL1
001582: 40,2000                                           BANK
001583:
001584: 40,2000                                           COUNT*   $$/EXTVB
001585:
001586: 40,2000           35017        DSPRRLOS           CAF      PRIO5
001587: 40,2001           05105                           TC       FINDVAC
001588: 40,2002  E7,1750                                  EBANK=   TANGNB
001589: 40,2002           02017 60107                     2CADR    RRLOSDSP
001590: 40,2004           34740                           CAF      PRIO4
001591: 40,2005           05146                           TC       PRIOCHNG
001592: 40,2006           32076                           CAF      V16N56
001593: 40,2007           04616                           TC       BANKCALL
001594: 40,2010           20231                           CADR     GOMARKFR
001595: 40,2011           05563                           TC       B5OFF
001596: 40,2012           05563                           TC       B5OFF
001597: 40,2013           05563                           TC       B5OFF
001598:
001599: 40,2014           34751                           CAF      BIT3
001600: 40,2015           05464                           TC       BLANKET
001601: 40,2016           05155                           TC       ENDOFJOB
001602:
001603: 40,2017           00006        RRLOSDSP           EXTEND
001604: 40,2020           30036                           DCA      CDUT
001605: 40,2021           53751                           DXCH     TANGNB
001606: 40,2022           06036                           TC       INTPRET
001607: 40,2023           77624                           CALL
001608: 40,2024           46041                                    RRNB                                  #  GET RR LOS IN BODY AXES.
001609: 40,2025           00001                           STORE    0D                                    #  UNIT LOS
001610: 40,2026           14007                           STODL    6D
001611: 40,2027           06424                                    HI6ZEROS
001612: 40,2030           24011                           STOVL    8D
001613: 40,2031           00007                                    6D
001614: 40,2032           77656                           UNIT
001615: 40,2033           00007                           STORE    6D                                    #  UNIT OF LOS PROJ IN X-Z PLANE
001616: 40,2034           77641                           DOT
001617: 40,2035           06416                                    UNITZ
001618: 40,2036           24021                           STOVL    COSTH                                 #  16D
001619: 40,2037           06422                                    UNITX
001620: 40,2040           77641                           DOT
001621: 40,2041           00007                                    6D
001622: 40,2042           34023                           STCALL   SINTH                                 #  18D
001623: 40,2043           47222                                    ARCTRIG
001624: 40,2044           43244                           BPL      DAD                                   #  INSURE DISPLAY OF 0 - 360 DEG.
001625: 40,2045           60047                                    +2
001626:


001628: 40,2046           06432                                    DPPOSMAX                              #  INTRODUCES AN ERROR OF B-28 REVS.
001629: 40,2047           26207                           STOVL    RR-ELEV
001630: 40,2050           00001                                    0D
001631: 40,2051           77641                           DOT
001632: 40,2052           06420                                    UNITY
001633: 40,2053           24023                           STOVL    SINTH
001634: 40,2054           00001                                    0D
001635: 40,2055           77641                           DOT
001636: 40,2056           00007                                    6D
001637: 40,2057           34021                           STCALL   COSTH
001638: 40,2060           47222                                    ARCTRIG
001639: 40,2061           43244                           BPL      DAD                                   #  INSURE DISPLAY OF 0 - 360 DEG.
001640: 40,2062           60064                                    +2
001641: 40,2063           06432                                    DPPOSMAX                              #  INTRODUCES AN ERROR OF B-28 REVS.
001642: 40,2064           02205                           STORE    RR-AZ
001643: 40,2065           77776                           EXIT
001644: 40,2066           34777                           CA       1SEC
001645: 40,2067           04616                           TC       BANKCALL
001646: 40,2070           01735                           CADR     DELAYJOB
001647:
001648: 40,2071           34747                           CA       BIT5
001649: 40,2072           71044                           MASK     EXTVBACT
001650: 40,2073           10000                           CCS      A
001651: 40,2074           02017                           TC       RRLOSDSP
001652: 40,2075           05472                           TC       ENDEXT
001653:
001654: 40,2076           04070        V16N56             VN       1656

End of include-file EXTENDED_VERBS.agc.  Parent file is MAIN.agc


