
Source Code


000002:                                                                                                  ## Copyright:   Public domain.
000003:                                                                                                  ## Filename:    FLAGWORD_ASSIGNMENTS.agc
000004:                                                                                                  ## Purpose:     A section of LUM69 revision 2.
000005:                                                                                                  ##              It is part of the reconstructed source code for the flown
000006:                                                                                                  ##              version of the flight software for the Lunar Module's (LM)
000007:                                                                                                  ##              Apollo Guidance Computer (AGC) for Apollo 10. The code has
000008:                                                                                                  ##              been recreated from a copy of Luminary revsion 069, using
000009:                                                                                                  ##              changes present in Luminary 099 which were described in
000010:                                                                                                  ##              Luminary memos 75 and 78. The code has been adapted such
000011:                                                                                                  ##              that the resulting bugger words exactly match those specified
000012:                                                                                                  ##              for LUM69 revision 2 in NASA drawing 2021152B, which gives
000013:                                                                                                  ##              relatively high confidence that the reconstruction is correct.
000014:                                                                                                  ## Reference:   pp. 77-104
000015:                                                                                                  ## Assembler:   yaYUL
000016:                                                                                                  ## Contact:     Ron Burkey <info@sandroid.org>.
000017:                                                                                                  ## Website:     www.ibiblio.org/apollo/index.html
000018:                                                                                                  ## Mod history: 2019-07-27 MAS  Created from Luminary 69.
000019:


000021:                                                                                                  #           FLAGWORDS 0-11  ARE DOWNLINKED AND CAN BE SET AND CLEARED BY UP-FLAG AND DOWN-FLAG INSTRUCTIONS IN THE
000022:                                                                                                  #                           INTERPRETER. THESE WERE PREVIOUSLY LISTED UNDER "INTERPRETIVE SWITCH BIT ASSIGNMENTS" IN
000023:                                                                                                  #                           THE ERASABLE LOG SECTION. FLAGWORDS 12 & 13 WEREPREVIOUSLY RADMODES AND DAPBOOLS AND
000024:                                                                                                  #                           ARE STILL DOWNLINKED UNDER THOSE NAMES.
000025:
000026:
000027:
000028:                                                                                                  #           ALPHABETICAL LIST OF FLAGWORDS
000029:
000030:
000031:                                                                                                  #  FLAGWORD        DEC. NUMBER     BIT AND FLAG         BIT NAME
000032:
000033:                                                                                                  #  ACCOKFLG        207             BIT 3  FLAG 13       ACCSOKAY
000034:                                                                                                  #  ACC4-2FL        199             BIT 11 FLAG 13       ACC4OR2X
000035:                                                                                                  #  ACMODFLG        032             BIT 13 FLAG 2        ACMODBIT
000036:                                                                                                  #  ALTSCALE        186             BIT 9  FLAG 12       ALTSCBIT
000037:                                                                                                  #  ANTENFLG        183             BIT 12 FLAG 12       ANTENBIT
000038:                                                                                                  #  AORBSFLG        205             BIT 5  FLAG 13       AORBSYST
000039:                                                                                                  #  AORBTFLG        200             BIT 10 FLAG 13       AORBTRAN
000040:                                                                                                  #  APSESW          130             BIT 5  FLAG 8        APSESBIT
000041:                                                                                                  #  APSFLAG         152             BIT 13 FLAG 10       APSFLBIT
000042:                                                                                                  #  ASTNFLAG        108             BIT 12 FLAG 7        ASTNBIT
000043:                                                                                                  #  ATTFLAG         104             BIT 1  FLAG 6        ATTFLBIT
000044:                                                                                                  #  AUTOMODE        193             BIT 2  FLAG 12       AUTOMBIT
000045:                                                                                                  #  AUTR1FLG        209             BIT 1  FLAG 13       AUTRATE1
000046:                                                                                                  #  AUTR2FLG        208             BIT 2  FLAG 13       AUTRATE2
000047:                                                                                                  #  AUXFLAG         103             BIT 2  FLAG 6        AUXFLBIT
000048:                                                                                                  #  AVEGFLAG        115             BIT 5  FLAG 7        AVEGFBIT
000049:                                                                                                  #  AVEMIDSW        149             BIT 1  FLAG 9        AVEMDBIT
000050:                                                                                                  #  AVFLAG          040             BIT 5  FLAG 2        AVFLBIT
000051:                                                                                                  #  CALCMAN2        043             BIT 2  FLAG 2        CALC2BIT
000052:                                                                                                  #  CALCMAN3        042             BIT 3  FLAG 2        CALC3BIT
000053:                                                                                                  #  CDESFLAG        180             BIT 15 FLAG 12       CDESBIT
000054:                                                                                                  #  CMOONFLG        123             BIT 12 FLAG 8        CMOONBIT
000055:                                                                                                  #  COGAFLAG        131             BIT 4  FLAG 8        COGAFBIT
000056:                                                                                                  #  COMPUTER        082             BIT 8  FLAG 5        COMPTBIT
000057:                                                                                                  #  CPHIFLAG        000             BIT 15 FLAG 0        CPHIBIT
000058:                                                                                                  #  CSMDKFLG        197             BIT 13 FLAG 13       CSMDOCKD
000059:                                                                                                  #  CULTFLAG        053             BIT 7  FLAG 3        CULTBIT
000060:                                                                                                  #  CYCLESW         035             BIT 10 FLAG 2        CYCLEBIT
000061:                                                                                                  #  DAPBOOLS                        FLGWRD13
000062:                                                                                                  #  DBSELFLG        206             BIT 4  FLAG 13       DBSELECT
000063:                                                                                                  #  DESIGFLG        185             BIT 10 FLAG 12       DESIGBIT
000064:                                                                                                  #  DIDFLAG         016             BIT 14 FLAG          DIDFLBIT
000065:                                                                                                  #  DIMOFLAG        059             BIT 1  FLAG 3        DIMOBIT
000066:                                                                                                  #  DMENFLG         081             BIT 9  FLAG 5        DMENFBIT
000067:


000069:                                                                                                  #  DRIFTDFL        202             BIT 8  FLAG 13       DRIFTBIT
000070:                                                                                                  #  DRIFTFLG        030             BIT 15 FLAG 2        DRFTBIT
000071:                                                                                                  #  DSKYFLAG        075             BIT 15 FLAG 5        DSKYFBIT
000072:                                                                                                  #  D6OR9FLG        058             BIT 2  FLAG 3        D6OR9BIT
000073:                                                                                                  #  ENGONFLG        083             BIT 7  FLAG 5        ENGONBIT
000074:                                                                                                  #  ERADFLAG        017             BIT 13 FLAG 1        ERADFBIT
000075:                                                                                                  #  ETPIFLAG        038             BIT 7  FLAG 2        ETPIBIT         EQUIVALENT FLAG NAME:  OPTNSW
000076:                                                                                                  #  FINALFLG        039             BIT 6  FLAG 2        FINALBIT
000077:                                                                                                  #  FIRSTFLG        094             BIT 11 FLAG 6        FIRSTBIT
000078:                                                                                                  #  FLAGWRD0        (000-014)       (STATE +0)
000079:                                                                                                  #  FLAGWRD1        (015-029)       (STATE +1)
000080:                                                                                                  #  FLAGWRD2        (030-044)       (STATE +2)
000081:                                                                                                  #  FLAGWRD3        (045-059)       (STATE +3)
000082:                                                                                                  #  FLAGWRD4        (060-074)       (STATE +4)
000083:                                                                                                  #  FLAGWRD5        (075-089)       (STATE +5)
000084:                                                                                                  #  FLAGWRD6        (090-104)       (STATE +6)
000085:                                                                                                  #  FLAGWRD7        (105-119)       (STATE +7)
000086:                                                                                                  #  FLAGWRD8        (120-134)       (STATE +8D)
000087:                                                                                                  #  FLAGWRD9        (135-149)       (STATE +9D)
000088:                                                                                                  #  FLAP            142             BIT 8  FLAG 9        FLAPBIT
000089:                                                                                                  #  FLGWRD10        (150-164)       (STATE +10D)
000090:                                                                                                  #  FLGWRD11        (165-179)       (STATE +11D)
000091:                                                                                                  #  FLGWRD12        (180-194)       (STATE +12D)
000092:                                                                                                  #  FLGWRD13        (195-209)       (STATE +13D)
000093:                                                                                                  #  FLPC            138             BIT 12 FLAG 9        FLPCBIT
000094:                                                                                                  #  FLPI            139             BIT 11 FLAG 9        FLPIBIT
000095:                                                                                                  #  FLRCS           149             BIT 10 FLAG 9        FLRCSBIT
000096:                                                                                                  #  FLUNDISP        125             BIT 10 FLAG 8        FLUNDBIT
000097:                                                                                                  #  FLVR            136             BIT 14 FLAG 9        FLVRBIT
000098:                                                                                                  #  FLZONE0         144             BIT 6  FLAG 9        FLZONBIT
000099:                                                                                                  #  FREEFLAG        012             BIT 3  FLAG 0        FREEFBIT
000100:                                                                                                  #  GLOKFAIL        046             BIT 14 FLAG 3        GLOKFBIT
000101:                                                                                                  #  GMBDRVSW        095             BIT 10 FLAG 6        GMBDRBIT
000102:                                                                                                  #  GUESSW          028             BIT 2  FLAG 1        GUESSBIT
000103:                                                                                                  #  HFLSHFLG        179             BIT 1  FLAG 11       HFLSHBIT
000104:                                                                                                  #  IDLEFLAG        113             BIT 7  FLAG 7        IDLEFBIT
000105:                                                                                                  #  IGNFLAG         107             BIT 13 FLAG 7        IGNFLBIT
000106:                                                                                                  #  IMPULSW         036             BIT 9  FLAG 2        IMPULBIT
000107:                                                                                                  #  IMUSE           007             BIT 8  FLAG 0        IMUSEBIT
000108:                                                                                                  #  INFINFLG        128             BIT 7  FLAG 8        INFINBIT
000109:                                                                                                  #  INITALGN        133             BIT 2  FLAG 8        INITABIT
000110:                                                                                                  #  INTFLAG         151             BIT 14 FLAG 10       INTFLBIT
000111:                                                                                                  #  INTYPFLG        056             BIT 4  FLAG 3        INTYPBIT
000112:                                                                                                  #  ITSWICH         105             BIT 15 FLAG 7        ITSWBIT
000113:                                                                                                  #  JSWITCH         001             BIT 14 FLAG 0        JSWCHBIT
000114:                                                                                                  #  LETABORT        141             BIT 9  FLAG 9        LETABBIT
000115:                                                                                                  #  LMOONFLG        124             BIT 11 FLAG 8        LMOONBIT
000116:                                                                                                  #  LOKONSW         010             BIT 5  FLAG 0        LOKONBIT
000117:                                                                                                  #  LOSCMFLG        033             BIT 12 FLAG 2        LOSCMBIT
000118:                                                                                                  #  LRALTFLG        190             BIT 5  FLAG 12       LRALTBIT
000119:


000121:                                                                                                  #  LRBYPASS        165             BIT 15 FLAG 11       LRBYBIT
000122:                                                                                                  #  LRINH           172             BIT 8  FLAG 11       LRINHBIT
000123:                                                                                                  #  LRPOSFLG        189             BIT 6  FLAG 12       LRPOSBIT
000124:                                                                                                  #  LRVELFLG        187             BIT 8  FLAG 12       LRVELBIT
000125:                                                                                                  #  LUNAFLAG        048             BIT 12 FLAG 3        LUNABIT
000126:                                                                                                  #  MANUFLAG        106             BIT 14 FLAG 7        MANUFBIT
000127:                                                                                                  #  MGLVFLAG        088             BIT 2  FLAG 5        MGLVFBIT
000128:                                                                                                  #  MIDAVFLG        148             BIT 2  FLAG 9        MIDAVBIT
000129:                                                                                                  #  MIDFLAG         002             BIT 13 FLAG 0        MIDFLBIT
000130:                                                                                                  #  MID1FLAG        147             BIT 3  FLAG 9        MID1BIT
000131:                                                                                                  #  MKOVFLAG        072             BIT 3  FLAG 4        MKOVBIT
000132:                                                                                                  #  MOONFLAG        003             BIT 12 FLAG 0        MOONBIT
000133:                                                                                                  #  MRKIDFLG        060             BIT 15 FLAG 4        MRKIDBIT
000134:                                                                                                  #  MRKNVFLG        066             BIT 9  FLAG 4        MRKNVBIT
000135:                                                                                                  #  MRUPTFLG        070             BIT 5 FLAG 4         MRUPTBIT
000136:                                                                                                  #  MUNFLAG         097             BIT 8 FLAG 6         MUNFLBIT
000137:                                                                                                  #  MWAITFLG        064             BIT 11 FLAG 4        MWAITBIT
000138:                                                                                                  #  NEEDLFLG        011             BIT 4  FLAG 0        NEEDLBIT
000139:                                                                                                  #  NEWIFLG         122             BIT 13  FLAG 8       NEWIBIT
000140:                                                                                                  #  NJETSFLG        015             BIT 15 FLAG          NJETSBIT
000141:                                                                                                  #  NODOFLAG        044             BIT 1  FLAG 2        NODOBIT
000142:                                                                                                  #  NOLRREAD        170             BIT 10 FLAG 11       NOLRRBIT
000143:                                                                                                  #  NORMSW          110             BIT 10 FLAG 7        NORMSBIT
000144:                                                                                                  #  NORRMON         086             BIT 4  FLAG 5        NORRMBIT
000145:                                                                                                  #  NOR29FLG        049             BIT 11 FLAG 3        NR29FBIT
000146:                                                                                                  #  NOTHROTL        078             BIT 12 FLAG 5        NOTHRBIT
000147:                                                                                                  #  NOUPFLAG        024             BIT 6  FLAG 1        NOUPFBIT
000148:                                                                                                  #  NRMNVFLG        067             BIT 8  FLAG 4        NRMNVBIT
000149:                                                                                                  #  NRMIDFLG        062             BIT 13 FLAG 4        NRMIDBIT
000150:                                                                                                  #  NRUPTFLG        071             BIT 4  FLAG 4        NRUPTBIT
000151:                                                                                                  #  NTARGFLG        102             BIT 3  FLAG 6        NTARGBIT
000152:                                                                                                  #  NWAITFLG        065             BIT 10 FLAG 4        NWAITBIT
000153:                                                                                                  #  OLDESFLG        014             BIT 1  FLAG 0        OLDESBIT
000154:                                                                                                  #  OPTNSW          038             BIT 7  FLAG 2        OPTNBIT         EQUIVALENT FLAG NAME:  ETPIFLAG
000155:                                                                                                  #  ORBWFLAG        054             BIT 6  FLAG 3        ORBWFBIT
000156:                                                                                                  #  ORDERSW         129             BIT 6  FLAG 8        ORDERBIT
000157:                                                                                                  #  OURRCFLG        198             BIT 12 FLAG 13       OURRCBIT
000158:                                                                                                  #  PDSPFLAG        063             BIT 12 FLAG 4        PDSPFBIT
000159:                                                                                                  #  PFRATFLG        041             BIT 4  FLAG 2        PFRATBIT
000160:                                                                                                  #  PINBRFLG        069             BIT 6  FLAG 4        PINBRBIT
000161:                                                                                                  #  POUTFLAG        098             BIT 7  FLAG 6        POUTBIT
000162:                                                                                                  #  PRECIFLG        052             BIT 8  FLAG 3        PRECIBIT
000163:                                                                                                  #  PRIODFLG        061             BIT 14 FLAG 1        PRIODBIT
000164:                                                                                                  #  PRONVFLG        068             BIT 7  FLAG 4        PRONVBIT
000165:                                                                                                  #  PSTHIGAT        169             BIT 11 FLAG 11       PSTHIBIT
000166:                                                                                                  #  PULSEFLG        195             BIT 15 FLAG 13       PULSES
000167:                                                                                                  #  P25FLAG         006             BIT 9  FLAG 0        P25FLBIT
000168:                                                                                                  #  P39/79SW        126             BIT 9  FLAG 8        P39SWBIT
000169:                                                                                                  #  QUITFLAG        145             BIT 5  FLAG 9        QUITBIT
000170:                                                                                                  #  RADMODES                        FLGWRD12
000171:


000173:                                                                                                  #  RASFLAG                         FLGWRD10
000174:                                                                                                  #  RCDUFAIL        188             BIT 7  FLAG 12       RCDUFBIT
000175:                                                                                                  #  RCDU0FLG        182             BIT 13 FLAG 12       RCDU0BIT
000176:                                                                                                  #  READLR          174             BIT 6  FLAG 11       READLBIT
000177:                                                                                                  #  READRFLG        051             BIT 9  FLAG 3        READRBIT        EQUIVALENT FLAG NAME:  R04FLAG
000178:                                                                                                  #  READVEL         175             BIT 5  FLAG 11       READVBIT
000179:                                                                                                  #  REDFLAG         099             BIT 6  FLAG 6        REDFLBIT
000180:                                                                                                  #  REFSMFLG        047             BIT 13 FLAG 3        REFSMBIT
000181:                                                                                                  #  REINTFLG        158             BIT 7  FLAG 10       REINTBIT
000182:                                                                                                  #  REMODFLG        181             BIT 14 FLAG 12       REMODBIT
000183:                                                                                                  #  RENDWFLG        089             BIT 1  FLAG 5        RENDWBIT
000184:                                                                                                  #  REPOSMON        184             BIT 11 FLAG 12       REPOSBIT
000185:                                                                                                  #  RHCSCFLG        203             BIT 7  FLAG 13       RHCSCALE
000186:                                                                                                  #  RNDVZFLG        008             BIT 7  FLAG 0        RNDVZBIT
000187:                                                                                                  #  RNGEDATA        176             BIT 4  FLAG 11       RNGEDBIT
000188:                                                                                                  #  RNGSCFLG        080             BIT 10 FLAG 5        RNGSCBIT
000189:                                                                                                  #  RPQFLAG         120             BIT 15 FLAG 8        RPQFLBIT
000190:                                                                                                  #  RRDATAFL        191             BIT 4  FLAG 12       RRDATABT
000191:                                                                                                  #  RRNBSW          009             BIT 6 FLAG 0         RRNBBIT
000192:                                                                                                  #  RRRSFLAG        192             BIT 3  FLAG 12       RRRSBIT
000193:                                                                                                  #  RVSW            111             BIT 9  FLAG 7        RVSWBIT
000194:                                                                                                  #  R04FLAG         051             BIT 9  FLAG 3        R04FLBIT        EQUIVALENT FLAG NAME:  READRFLG
000195:                                                                                                  #  R10FLAG         013             BIT 2  FLAG 0        R10FLBIT
000196:                                                                                                  #  R61FLAG         020             BIT 10 FLAG 1        R61FLBIT
000197:                                                                                                  #  R77FLAG         079             BIT 11 FLAG 5        R77FLBIT
000198:                                                                                                  #  SCALBAD         177             BIT 3  FLAG 11       SCABBIT
000199:                                                                                                  #  SLOPESW         027             BIT 3  FLAG 1        SLOPEBIT
000200:                                                                                                  #  SNUFFER         077             BIT 13 FLAG 5        SNUFFBIT
000201:                                                                                                  #  SOLNSW          087             BIT 3  FLAG 5        SOLNSBIT
000202:                                                                                                  #  SRCHOPTN        031             BIT 14 FLAG 2        SRCHOBIT
000203:                                                                                                  #  STATEFLG        055             BIT 5  FLAG 3        STATEBIT
000204:                                                                                                  #  STEERSW         034             BIT 11 FLAG 2        STEERBIT
000205:                                                                                                  #  SURFFLAG        127             BIT 8  FLAG 8        SURFFBIT
000206:                                                                                                  #  SWANDISP        109             BIT 11 FLAG 7        SWANDBIT
000207:                                                                                                  #  S32.1F1         090             BIT 15 FLAG 6        S32BIT1
000208:                                                                                                  #  S32.1F2         092             BIT 14 FLAG 6        S32BIT2
000209:                                                                                                  #  S32.1F3A        092             BIT 13 FLAG 6        S32BIT3A
000210:                                                                                                  #  S32.1S3B        093             BIT 12 FLAG 6        S32BIT3B
000211:                                                                                                  #  TFFSW           119             BIT 1  FLAG 7        TFFSWBIT
000212:                                                                                                  #  TRACKFLG        025             BIT 5  FLAG 1        TRACKBIT
000213:                                                                                                  #  TURNONFL        194             BIT 1  FLAG 12       TURNONBT
000214:                                                                                                  #  ULLAGFLG        204             BIT 6  FLAG 13       ULLAGER
000215:                                                                                                  #  UPDATFLG        023             BIT 7  FLAG 1        UPDATBIT
000216:                                                                                                  #  UPLOCKFL        116             BIT 4  FLAG 7        UPLOCBIT
000217:                                                                                                  #  USEQRFLG        196             BIT 14 FLAG 13       USEQRJTS
000218:                                                                                                  #  VEHUPFLG        022             BIT 8  FLAG 1        VEHUPBIT
000219:                                                                                                  #  VELDATA         173             BIT 7  FLAG 11       VELDABIT
000220:                                                                                                  #  VERIFLAG        117             BIT 3  FLAG 7        VERIFBIT
000221:                                                                                                  #  VFLAG           050             BIT 10 FLAG 3        VFLAGBIT
000222:                                                                                                  #  VFLSHFLG        178             BIT 2  FLAG 11       VFLSHBIT
000223:


000225:                                                                                                  #  VINTFLAG        057             BIT 3  FLAG 3        VINTFBIT
000226:                                                                                                  #  VXINH           168             BIT 12 FLAG 11       VXINHBIT
000227:                                                                                                  #  V37FLAG         114             BIT 6  FLAG 7        V37FLBIT
000228:                                                                                                  #  V67FLAG         112             BIT 8  FLAG 7        V67FLBIT
000229:                                                                                                  #  V82EMFLG        118             BIT 2  FLAG 7        V82EMBIT
000230:                                                                                                  #  XDELVFLG        037             BIT 8  FLAG 2        XDELVBIT
000231:                                                                                                  #  XDSPFLAG        074             BIT 1  FLAG 4        XDSPBIT
000232:                                                                                                  #  XORFLG          171             BIT 9  FLAG 11       XORFLBIT
000233:                                                                                                  #  XOVINFLG        201             BIT 9  FLAG 13       XOVINHIB
000234:                                                                                                  #  2PHASFLG        096             BIT 9  FLAG 6        2PHASBIT
000235:                                                                                                  #  3AXISFLG        084             BIT 6 FLAG 5         3AXISBIT
000236:                                                                                                  #  360SW           134             BIT 1 FLAG  8        360SWBIT
000237:
000238:
000239:
000240:                                                                                                  #            ASSIGNMENT AND DESCRIPTION OF FLAGWORDS
000241:
000242: 24,2022     0074               FLAGWRD0           =        STATE      +0                         #  (000-014)
000243:
000244:                                                                                                  #  (SET)              (RESET)
000245:
000246:                                                                                                  #  BIT 15 FLAG 0 (S)
000247: 24,2022                        CPHIFLAG           =        000D                                  #  OUTPUT OF CALCGA IS OUTPUT OF CALCGA IS
000248: 24,2022     4735               CPHIBIT            =        BIT15                                 #  CPHIX               THETAD
000249:
000250:
000251:                                                                                                  #  BIT 14 FLAG 0 (S)
000252: 24,2022                        JSWITCH            =        001D                                  #  INTEGRATION OF W    INTEGRATION OF STATE
000253: 24,2022     4736               JSWCHBIT           =        BIT14                                 #  MATRIX              VECTOR
000254:
000255:
000256:                                                                                                  #  BIT 13 FLAG 0 (S)
000257: 24,2022                        MIDFLAG            =        002D                                  #  INTEGRATION WITH    INTEGRATION WITHOUT
000258:                                                                                                  #  SECONDARY BODY AND  SOLAR PERTURBATIONS
000259: 24,2022     4737               MIDFLBIT           =        BIT13                                 #  SOLAR PERTURBATIONS
000260:
000261:                                                                                                  #  BIT 12 FLAG 0 (L)
000262: 24,2022                        MOONFLAG           =        003D                                  #  MOON IS SPHERE OF   EARTH IS SPHERE OF
000263: 24,2022     4740               MOONBIT            =        BIT12                                 #  INFLUENCE           INFLUENCE
000264:
000265:                                                                                                  #  BIT 11 FLAG 0
000266:                                                                                                  #                =               004D
000267:                                                                                                  #                =               BIT11
000268:
000269:
000270:                                                                                                  #  BIT 10 FLAG 0
000271:                                                                                                  #                =               005D
000272:


000274:                                                                                                  #                =               BIT10
000275:
000276:
000277:                                                                                                  #  BIT 9 FLAG 0  (S)
000278: 24,2022                        P25FLAG            =        006D                                  #  P25 OPERATING       P25 NOT OPERATING
000279: 24,2022     4743               P25FLBIT           =        BIT9
000280:
000281:
000282:                                                                                                  #  BIT 8 FLAG 0  (S)
000283: 24,2022                        IMUSE              =        007D                                  #  IMU IN USE          IMU NOT IN USE
000284: 24,2022     4744               IMUSEBIT           =        BIT8
000285:
000286:
000287:                                                                                                  #  BIT 7 FLAG 0  (S)
000288: 24,2022                        RNDVZFLG           =        008D                                  #  P20 RUNNING (RADAR  P20 NOT RUNNING
000289: 24,2022     4745               RNDVZBIT           =        BIT7                                  #  IN USE)
000290:
000291:
000292:                                                                                                  #  BIT 6 FLAG 0  (S)
000293: 24,2022                        RRNBSW             =        009D                                  #  RADAR TARGET IN     RADAR TARGET IN
000294: 24,2022     4746               RRNBBIT            =        BIT6                                  #  NB COORDINATES      SM COORDINATES
000295:
000296:
000297:                                                                                                  #  BIT 5 FLAG 0  (S)
000298: 24,2022                        LOKONSW            =        010D                                  #  RADAR LOCK-ON       RADAR LOCK-ON NOT
000299: 24,2022     4747               LOKONBIT           =        BIT5                                  #  DESIRED             DESIRED
000300:
000301:
000302:                                                                                                  #  BIT 4 FLAG 0  (S)
000303: 24,2022                        NEEDLFLG           =        011D                                  #  TOTAL ATTITUDE      A/P FOLLOWING
000304: 24,2022     4750               NEEDLBIT           =        BIT4                                  #  ERROR DISPLAYED     ERROR DISPLAYED
000305:
000306:
000307:                                                                                                  #  BIT 3 FLAG 0
000308: 24,2022                        FREEFLAG           =        012D                                  #  (USED BY P51-53 TEMP IN MANY DIFFERENT
000309:                                                                                                  #  ROUTINES & BY LUNAR + SOLAR EPHEMERIDES)
000310: 24,2022     4751               FREEFBIT           =        BIT3
000311:
000312:
000313:                                                                                                  #  BIT 2 FLAG 0
000314: 24,2022                        R10FLAG            =        013D                                  #  R10 OUTPUTS DATA TO BESIDES OUTPUT WHEN
000315: 24,2022     4752               R10FLBIT           =        BIT2                                  #  ALTITUDE & ALTITUDE SET, R10 ALSO OUTPUT
000316:                                                                                                  #  RATE METERS ONLY    TO FORWARD & LATERAL
000317:                                                                                                  #                      VELOCITY CROSSPOINTR
000318:
000319:
000320:                                                                                                  #  BIT 1 FLAG 0  (L)
000321: 24,2022                        OLDESFLG           =        014D                                  #  R29 GYRO CMD LOOP   R29 GYRO CMD LOOP
000322: 24,2022     4753               OLDESBIT           =        BIT1                                  #  REQUESTED           NOT REQUESTED
000323:


000325:
000326: 24,2022     0075               FLAGWRD1           =        STATE      +1                         #  (015-029)
000327:
000328:                                                                                                  #   (SET)              (RESET)
000329:
000330:                                                                                                  #  BIT 15 FLAG 1 (S)
000331: 24,2022                        NJETSFLG           =        015D                                  #   TWO JET RCS BURN    FOUR JET RCS BURN
000332: 24,2022     4735               NJETSBIT           =        BIT15
000333:
000334:
000335:                                                                                                  #  BIT 14 FLAG 1 (L)
000336: 24,2022                        DIDFLAG            =        016D                                  #  INERTIAL DATA IS     PERFORM DATA DISPLAY
000337: 24,2022     4736               DIDFLBIT           =        BIT14                                 #  AVAILABLE            INITIALIZATION FUNCS
000338:
000339:
000340:                                                                                                  #  BIT 13 FLAG 1 (S)
000341: 24,2022                        ERADFLAG           =        017D                                  #  COMPUTE REARTH       USE CONSTANT REARTH
000342: 24,2022     4737               ERADFBIT           =        BIT13                                 #  FISCHER ELLIPSOID    PAD RADIUS
000343:
000344:
000345:                                                                                                  #  BIT 12 FLAG 1
000346:                                                                                                  #                =               018D
000347:                                                                                                  #                =               BIT12
000348:
000349:
000350:                                                                                                  #  BIT 11 FLAG 1
000351:                                                                                                  #                =               019D
000352:
000353:                                                                                                  #  BIT 10 FLAG 1 (L)
000354: 24,2022                        R61FLAG            =        020D                                  #  RUN R61 LEM          RUN R65 LEM
000355: 24,2022     4742               R61FLBIT           =        BIT10
000356:
000357:                                                                                                  #  BIT 9 FLAG 1
000358:                                                                                                  #                =               021D
000359:                                                                                                  #                =               BIT9
000360:
000361:                                                                                                  #  BIT 8 FLAG 1  (S)
000362: 24,2022                        VEHUPFLG           =        022D                                  #  CSM STATE VECTOR     LEM STATE VECTOR
000363: 24,2022     4744               VEHUPBIT           =        BIT8                                  #  BEING UPDATED        BEING UPDATED
000364:
000365:
000366:                                                                                                  #  BIT 7 FLAG 1  (S)
000367: 24,2022                        UPDATFLG           =        023D                                  #  UPDATING BY MARKS    UPDATING BY MARKS
000368: 24,2022     4745               UPDATBIT           =        BIT7                                  #  ALLOWED              NOT ALLOWED
000369:
000370:
000371:                                                                                                  #  BIT 6 FLAG 1  (S)
000372:


000374: 24,2022                        NOUPFLAG           =        024D                                  #  NEITHER CSM         EITHER STATE
000375:                                                                                                  #  NOR LM STATE VECTOR VECTOR MAY BE
000376: 24,2022     4746               NOUPFBIT           =        BIT6                                  #  MAY BE UPDATED      UPDATED
000377:
000378:
000379:                                                                                                  #  BIT 5 FLAG 1  (S)
000380: 24,2022                        TRACKFLG           =        025D                                  #  TRACKING ALLOWED    TRACKING NOT ALLOWED
000381: 24,2022     4747               TRACKBIT           =        BIT5
000382:
000383:                                                                                                  #  BIT 4 FLAG 1
000384:                                                                                                  #                =               026D
000385:                                                                                                  #                =               BIT4
000386:
000387:
000388:                                                                                                  #  BIT 3 FLAG 1  (S)
000389: 24,2022                        SLOPESW            =        027D                                  #  ITERATE WITH BIAS   ITERATE WITH REGULAR
000390:                                                                                                  #  METHOD IN ITERATOR  FALSI METHOD IN
000391: 24,2022     4751               SLOPEBIT           =        BIT3                                  #                      ITERATOR
000392:
000393:
000394:                                                                                                  #  BIT 2 FLAG 1  (S)
000395: 24,2022                        GUESSW             =        028D                                  #  NO STARTING VALUE   STARTING VALUE FOR
000396: 24,2022     4752               GUESSBIT           =        BIT2                                  #  FOR ITERATION       ITERATION EXISTS
000397:
000398:
000399:                                                                                                  #  BIT 1 FLAG 1
000400:                                                                                                  #                =               029D
000401:
000402:
000403: 24,2022     0076               FLAGWRD2           =        STATE      +2                         #  (030-044)
000404:
000405:                                                                                                  #  (SET)               (RESET)
000406:
000407:                                                                                                  #  BIT 15 FLAG 2 (S)
000408: 24,2022                        DRIFTFLG           =        030D                                  #  T3RUPT CALLS GYRO   T3RUPT DOES NO GYRO
000409: 24,2022     4735               DRFTBIT            =        BIT15                                 #  COMPENSATION        COMPENSATION
000410:
000411:
000412:                                                                                                  #  BIT 14 FLAG 2 (S)
000413: 24,2022                        SRCHOPTN           =        031D                                  #  RADAR IN AUTOMATIC  RADAR NOT IN AUTO-
000414: 24,2022     4736               SRCHOBIT           =        BIT14                                 #  SEARCH OPTION(R24)  MATIC SEARCH OPTION
000415:
000416:
000417:                                                                                                  #  BIT 13 FLAG 2 (S)
000418: 24,2022                        ACMODFLG           =        032D                                  #  MANUAL ACQUISITION  AUTO ACQUISITION
000419: 24,2022     4737               ACMODBIT           =        BIT13                                 #  BY RENDESVOUS RADAR BY RENDESVOUS RADAR
000420:
000421:
000422:                                                                                                  #  BIT 12 FLAG 2 (S)
000423:


000425: 24,2022                        LOSCMFLG           =        033D                                  #  LINE OF SIGHT BEING LINE OF SIGHT NOT
000426:                                                                                                  #  COMPUTED (R21)      BEING COMPUTED
000427: 24,2022     4740               LOSCMBIT           =        BIT12
000428:                                                                                                  #  IN R29 (L): RR GYRO IN R29 (L): RR GYRO
000429:                                                                                                  #  CMD LOOP RUNNING    CMD LOOP OFF
000430:
000431:                                                                                                  #  BIT 11 FLAG 2 (S)
000432: 24,2022                        STEERSW            =        034D                                  #  SUFFICIENT THRUST   INSUFFICIENT THRUST
000433: 24,2022     4741               STEERBIT           =        BIT11                                 #  IS PRESENT          IS PRESENT
000434:
000435:
000436:                                                                                                  #  BIT 10 FLAG 2 (S)
000437: 24,2022                        CYCLESW            =        035D                                  #  LAMBERT VG CALCU-   LAMBERT CALCULATION
000438: 24,2022     4742               CYCLEBIT           =        BIT10                                 #  LATION TO BE DONE   OMITTED
000439:
000440:
000441:                                                                                                  #  BIT 9 FLAG 2 (S)
000442: 24,2022                        IMPULSW            =        036D                                  #  MINIMUM IMPULSE     STEERING BURN (NO
000443:                                                                                                  #  BURN (CUTOFF TIME   CUTOFF TIME YET
000444: 24,2022     4743               IMPULBIT           =        BIT9                                  #  SPECIFIED)          AVAILABLE)
000445:
000446:
000447:                                                                                                  #  BIT 8 FLAG 2 (S)
000448: 24,2022                        XDELVFLG           =        037D                                  #  EXTERNAL DELTAV VG  LAMBERT (AIMPOINT)
000449: 24,2022     4744               XDELVBIT           =        BIT8                                  #  COMPUTATION         VG COMPUTATION
000450:
000451:
000452:                                                                                                  #  BIT 7 FLAG 2 (S)
000453: 24,2022                        ETPIFLAG           =        038D                                  #  ELEVATION ANGLE     TPI TIME SUPPLIED
000454:                                                                                                  #  SUPPLIED FOR        FOR P34,74 TO COMPUT
000455: 24,2022     4745               ETPIBIT            =        BIT7                                  #  P34,74              ELEVATION
000456:
000457:
000458:                                                                                                  #  BIT 7 FLAG 2 (L)
000459: 24,2022  0000046               OPTNSW             =        ETPIFLAG                              #  SOI PHASE OF P38/78  SOR PHASE OF P38/78
000460: 24,2022     4745               OPTNBIT            =        BIT7
000461:
000462:
000463:                                                                                                  #  BIT 6 FLAG 2 (S)
000464: 24,2022                        FINALFLG           =        039D                                  #  LAST PASS THROUGH   INTERIM PASS THROUGH
000465:                                                                                                  #  RENDEZVOUS PROGRAM  RENDEZVOUS PROGRAM
000466: 24,2022     4746               FINALBIT           =        BIT6                                  #  COMPUTATIONS        COMPUTATIONS
000467:
000468:
000469:                                                                                                  #  BIT 5 FLAG 2 (S)
000470: 24,2022                        AVFLAG             =        040D                                  #  LEM IS ACTIVE       CSM IS ACTIVE
000471: 24,2022     4747               AVFLBIT            =        BIT5                                  #  VEHICLE             VEHICLE
000472:
000473:
000474:                                                                                                  #  BIT 4 FLAG 2 (S)
000475:


000477: 24,2022                        PFRATFLG           =        041D                                  #  PREFERRED ATTITUDE  PREFERRED ATTITUDE
000478: 24,2022     4750               PFRATBIT           =        BIT4                                  #  COMPUTED            NOT COMPUTED
000479:
000480:
000481:                                                                                                  #  BIT 3 FLAG 2 (S)
000482: 24,2022                        CALCMAN3           =        042D                                  #  NO FINAL ROLL       FINAL ROLL IS
000483: 24,2022     4751               CALC3BIT           =        BIT3                                  #                      NECESSARY
000484:
000485:
000486:                                                                                                  #  BIT 2 FLAG 2 (S)
000487: 24,2022                        CALCMAN2           =        043D                                  #  PERFORM MANEUVER    BYPASS STARTING
000488: 24,2022     4752               CALC2BIT           =        BIT2                                  #  STARTING PROCEDURE  PROCEDURE
000489:
000490:
000491:                                                                                                  #  BIT 1 FLAG 2 (S)
000492: 24,2022                        NODOFLAG           =        044D                                  #  V37 NOT PERMITTED   V37 PERMITTED
000493: 24,2022     4753               NODOBIT            =        BIT1
000494:
000495:
000496: 24,2022     0077               FLAGWRD3           =        STATE      +3                         #  (045-059)
000497:
000498:                                                                                                  #  (SET)               (RESET)
000499:
000500:                                                                                                  #  BIT 15 FLAG 3
000501:                                                                                                  #                =               045D
000502:
000503:
000504:                                                                                                  #  BIT 14 FLAG 3 (S)
000505: 24,2022                        GLOKFAIL           =        046D                                  #  GIMBAL LOCK HAS     NOT IN GIMBAL LOCK
000506: 24,2022     4736               GLOKFBIT           =        BIT14                                 #  OCCURRED
000507:
000508:
000509:                                                                                                  #  BIT 13 FLAG 3   *** PROTECTED FROM FRESH START ***
000510: 24,2022                        REFSMFLG           =        047D                                  #  REFSMMAT GOOD       REFSMMAT NO GOOD
000511: 24,2022     4737               REFSMBIT           =        BIT13
000512:
000513:
000514:                                                                                                  #  BIT 12 FLAG 3 (S)
000515: 24,2022                        LUNAFLAG           =        048D                                  #  LUNAR LAT-LONG      EARTH LAT-LONG
000516: 24,2022     4740               LUNABIT            =        BIT12
000517:
000518:
000519:                                                                                                  #  BIT 11 FLAG 3 (L)
000520: 24,2022                        NOR29FLG           =        049D                                  #  R29 NOT ALLOWED     R29 ALOWED (RR DES-
000521: 24,2022     4741               NR29FBIT           =        BIT11                                 #                      IGNATE, POWERED FLT)
000522:
000523:
000524:                                                                                                  #  BIT 10 FLAG 3 (S)
000525: 24,2022                        VFLAG              =        050D                                  #  LESS THAN TWO STARS TWO STARS IN FIELD
000526: 24,2022     4742               VFLAGBIT           =        BIT10                                 #  IN FIELD OF VIEW    OF VIEW
000527:


000529:
000530:
000531:                                                                                                  #  BIT 9 FLAG 3  (S)
000532: 24,2022                        R04FLAG            =        051D                                  #  ALARM 521           ALARM 521 ALLOWED
000533:                                                                                                  #  SUPPRESSED
000534: 24,2022     4743               R04FLBIT           =        BIT9
000535:
000536:
000537:                                                                                                  #  BIT 9 FLAG 3  (L)
000538: 24,2022  0000063               READRFLG           =        R04FLAG                               #  READING RR DATA     NOT READING RR DATA
000539: 24,2022     4743               READRBIT           =        BIT9                                  #  PURSUANT TO R29     PURSUANT TO R29
000540:
000541:
000542:                                                                                                  #  BIT 8 FLAG 3  (S)
000543: 24,2022                        PRECIFLG           =        052D                                  #  NORMAL INTEGRATION  ENGAGES 4-TIME STEP
000544:                                                                                                  #  IN POO              (POO) LOGIC IN INTE-
000545: 24,2022     4744               PRECIBIT           =        BIT8                                  #                      GRATION
000546:
000547:
000548:                                                                                                  #  BIT 7 FLAG 3  (S)
000549: 24,2022                        CULTFLAG           =        053D                                  #  STAR OCCULTED       STAR NOT OCCULTED
000550: 24,2022     4745               CULTBIT            =        BIT7
000551:
000552:
000553:                                                                                                  #  BIT 6 FLAG 3  (S)
000554: 24,2022                        ORBWFLAG           =        054D                                  #  W MATRIX VALID FOR  W MATRIX INVALID FOR
000555: 24,2022     4746               ORBWFBIT           =        BIT6                                  #  ORBITAL NAVIGATION  ORBITAL NAVIGATION
000556:
000557:
000558:                                                                                                  #  BIT 5 FLAG 3  (S)
000559: 24,2022                        STATEFLG           =        055D                                  #  PERMANENT STATE     PERMANENT STATE
000560: 24,2022     4747               STATEBIT           =        BIT5                                  #  VECTOR UPDATED      VECTOR NOT UPDATED
000561:
000562:
000563:                                                                                                  #  BIT 4 FLAG 3  (S)
000564: 24,2022                        INTYPFLG           =        056D                                  #  CONIC INTEGRATION   ENCKE INTEGRATION
000565: 24,2022     4750               INTYPBIT           =        BIT4
000566:
000567:
000568:                                                                                                  #  BIT 3 FLAG 3  (S)
000569: 24,2022                        VINTFLAG           =        057D                                  #  CSM STATE VECTOR    LEM STATE VECTOR
000570: 24,2022     4751               VINTFBIT           =        BIT3                                  #  BEING INTEGRATED    BEING INTEGRATED
000571:
000572:
000573:                                                                                                  #  BIT 2 FLAG 3 (S)
000574: 24,2022                        D6OR9FLG           =        058D                                  #  DIMENSION OF W IS 9 DIMENSION OF W IS 6
000575: 24,2022     4752               D6OR9BIT           =        BIT2                                  #  FOR INTEGRATION     FOR INTEGRATION
000576:
000577:
000578:                                                                                                  #  BIT 1 FLAG 3  (S)
000579:


000581: 24,2022                        DIM0FLAG           =        059D                                  #  W MATRIX IS TO BE   W MATRIX IS NOT TO
000582: 24,2022     4753               DIM0BIT            =        BIT1                                  #  USED                BE USED
000583:
000584:
000585: 24,2022     0100               FLAGWRD4           =        STATE      +4                         #  (060-074)
000586:
000587:                                                                                                  #  (SET)               (RESET)
000588:
000589:                                                                                                  #  BIT 15 FLAG 4 (S)
000590: 24,2022                        MRKIDFLG           =        060D                                  #  MARK DISPLAY IN     NO MARK DISPLAY IN
000591: 24,2022     4735               MRKIDBIT           =        BIT15                                 #  ENDIDLE             ENDIDLE
000592:
000593:
000594:                                                                                                  #  BIT 14 FLAG 4 (S)
000595: 24,2022                        PRIODFLG           =        061D                                  #  PRIORITY DISPLAY IN NO PRIORITY DISPLAY
000596: 24,2022     4736               PRIODBIT           =        BIT14                                 #  ENDIDLE             IN ENDIDLE
000597:
000598:
000599:                                                                                                  #  BIT 13 FLAG 4 (S)
000600: 24,2022                        NRMIDFLG           =        062D                                  #  NORMAL DISPLAY IN   NO NORMAL DISPLAY
000601: 24,2022     4737               NRMIDBIT           =        BIT13                                 #  ENDIDLE             IN ENDIDLE
000602:
000603:
000604:                                                                                                  #  BIT 12 FLAG 4 (S)
000605: 24,2022                        PDSPFLAG           =        063D                                  #  P20 SETS SO AS TO   LEAVE AS NORMAL DISP
000606:                                                                                                  #  TURN A NORMAL DIS-
000607: 24,2022     4740               PDSPFBIT           =        BIT12                                 #  PLAY INTO A PRIORITY
000608:                                                                                                  #  DISPLAY IN R60
000609:
000610:
000611:                                                                                                  #  BIT 11 FLAG 4 (S)
000612: 24,2022                        MWAITFLG           =        064D                                  #  HIGHER PRIORITY      NO HIGHER PRIORITY
000613:                                                                                                  #  DISPLAY OPERATING    DISPLAY OPERATING
000614: 24,2022     4741               MWAITBIT           =        BIT11                                 #  WHEN MARK DISPLAY    WHEN MARK DISPLAY
000615:                                                                                                  #  INITIATED            INITIATED
000616:
000617:                                                                                                  #  BIT 10 FLAG 4 (S)
000618: 24,2022                        NWAITFLG           =        065D                                  #  HIGHER PRIORITY      NO HIGHER PRIORITY
000619:                                                                                                  #  DISPLAY OPERATING    DISPLAY OPERATING
000620: 24,2022     4742               NWAITBIT           =        BIT10                                 #  WHEN NORMAL          WHEN NORMAL DISPLAY
000621:                                                                                                  #  DISPLAY INITIATED    INITIATED
000622:
000623:                                                                                                  #  BIT 9 FLAG 4  (S)
000624: 24,2022                        MRKNVFLG           =        066D                                  #  ASTRONAUT USING      ASTRONAUT NOT USING
000625:                                                                                                  #  KEYBOARD WHEN MARK   KEYBOARD WHEN MARK
000626: 24,2022     4743               MRKNVBIT           =        BIT9                                  #  DISPLAY INITIATED    DISPLAY INITIATED
000627:
000628:
000629:                                                                                                  #  BIT 8 FLAG 4  (S)
000630: 24,2022                        NRMNVFLG           =        067D                                  #  ASTRONAUT USING      ASTRONAUT NOT USING
000631:


000633:                                                                                                  #  KEYBOARD WHEN        KEYBOARD WHEN
000634: 24,2022     4744               NRMNVBIT           =        BIT8                                  #  NORMAL DISPLAY       NORMAL DISPLAY
000635:                                                                                                  #  INITIATED            INITIATED
000636:
000637:                                                                                                  #  BIT 7 FLAG 4  (S)
000638: 24,2022                        PRONVFLG           =        068D                                  #  ASTRONAUT USING      ASTRONAUT NOT USING
000639:                                                                                                  #  KEYBOARD WHEN        KEYBOARD WHEN
000640: 24,2022     4745               PRONVBIT           =        BIT7                                  #  PRIORITY DISPLAY     PRIORITY DISPLAY
000641:                                                                                                  #  INITIATED            INITIATED
000642:
000643:                                                                                                  #  BIT 6 FLAG 4  (S)
000644: 24,2022                        PINBRFLG           =        069D                                  #  ASTRONAUT HAS        ASTRONAUT HAS NOT
000645:                                                                                                  #  INTERFERED WITH      INTERFERED WITH
000646: 24,2022     4746               PINBRBIT           =        BIT6                                  #  EXISTING DISPLAY     EXISTING DISPLAY
000647:
000648:
000649:                                                                                                  #  BIT 5 FLAG 4  (S)
000650: 24,2022                        MRUPTFLG           =        070D                                  #  MARK DISPLAY         MARK DISPLAY NOT
000651:                                                                                                  #  INTERRUPTED BY       INTERRUPTED BY
000652: 24,2022     4747               MRUPTBIT           =        BIT5                                  #  PRIORITY DISPLAY     PRIORITY DISPLAY
000653:
000654:
000655:                                                                                                  #  BIT 4 FLAG 4  (S)
000656: 24,2022                        NRUPTFLG           =        071D                                  #  NORMAL DISPLAY       NORMAL DISPLAY NOT
000657:                                                                                                  #  INTERRUPTED BY       INTERRUPTED BY
000658: 24,2022     4750               NRUPTBIT           =        BIT4                                  #  PRIORITY OR MARK     PRIORITY OR MARK
000659:                                                                                                  #  DISPLAY              DISPLAY
000660:
000661:                                                                                                  #  BIT 3 FLAG 4  (S)
000662: 24,2022                        MKOVFLAG           =        072D                                  #  MARK DISPLAY OVER    NO MARK DISPLAY OVER
000663: 24,2022     4751               MKOVBIT            =        BIT3                                  #  NORMAL               NORMAL
000664:
000665:
000666:                                                                                                  #  BIT 2 FLAG 4
000667:                                                                                                  #                =               073D
000668:
000669:
000670:
000671:                                                                                                  #  BIT 1 FLAG 4  (S)
000672: 24,2022                        XDSPFLAG           =        074D                                  #  MARK DISPLAY NOT     NO SPECIAL MARK
000673: 24,2022     4753               XDSPBIT            =        BIT1                                  #  TO BE INTERRUPTED    INFORMATION
000674:
000675:
000676: 24,2022     0101               FLAGWRD5           =        STATE      +5                         #  (075-089)
000677:                                                                                                  #  (SET)                (RESET)
000678:
000679:                                                                                                  #  BIT 15 FLAG 5 (S)
000680: 24,2022                        DSKYFLAG           =        075D                                  #  DISPLAYS SENT TO     NO DISPLAYS TO DSKY
000681: 24,2022     4735               DSKYFBIT           =        BIT15                                 #  DSKY
000682:
000683:


000685:                                                                                                  #  BIT 14 FLAG 5
000686:                                                                                                  #                =               076D
000687:                                                                                                  #                =               BIT14
000688:
000689:
000690:                                                                                                  #  BIT 13 FLAG 5 (S,L)
000691: 24,2022                        SNUFFER            =        077D                                  #  U,V JETS DISABLED   U,V JETS ENABLED
000692:                                                                                                  #  DURING DPS          DURING DPS
000693: 24,2022     4737               SNUFFBIT           =        BIT13                                 #  BURNS (V65)         BURNS (V75)
000694:
000695:
000696:                                                                                                  #  BIT 12 FLAG 5 (S)
000697: 24,2022                        NOTHROTL           =        078D                                  #  INHIBIT FULL        PERMIT FULL THROTTLE
000698: 24,2022     4740               NOTHRBIT           =        BIT12                                 #  THROTTLE
000699:
000700:
000701:                                                                                                  #  BIT 11 FLAG 5 (S,L)
000702: 24,2022                        R77FLAG            =        079D                                  #  R77 IS ON,         R77 IS NOT ON.
000703:                                                                                                  #  SUPPRESS ALL RADAR
000704:                                                                                                  #  ALARMS AND TRACKER
000705: 24,2022     4741               R77FLBIT           =        BIT11                                 #  FAILS
000706:
000707:
000708:                                                                                                  #  BIT 10 FLAG 5 (S)
000709: 24,2022                        RNGSCFLG           =        080D                                  #  SCALE CHANGE HAS    NO SCALE CHANGE HAS
000710:                                                                                                  #  OCCURRED DURING     OCCURRED DURING
000711: 24,2022     4742               RNGSCBIT           =        BIT10                                 #  RR READING          RR READING
000712:
000713:
000714:                                                                                                  #  BIT 9 FLAG 5  (S)
000715: 24,2022                        DMENFLG            =        081D                                  #  DIMENSION OF W IS 9 DIMENSION OF W IS 6
000716: 24,2022     4743               DMENFBIT           =        BIT9                                  #  FOR INCORPORATION   FOR INCORPORATION
000717:
000718:
000719:                                                                                                  #  BIT 8 FLAG 5  (S)
000720: 24,2022                        COMPUTER           =        082D                                  #  COMPUTER IS CMC     COMPUTER IS LGC
000721: 24,2022     4744               COMPTBIT           =        BIT8
000722:
000723:
000724:                                                                                                  #  BIT 7 FLAG 5  (S)
000725: 24,2022                        ENGONFLG           =        083D                                  #  ENGINE TURNED ON    ENGINE TURNED OFF
000726: 24,2022     4745               ENGONBIT           =        BIT7
000727:
000728:
000729:                                                                                                  #  BIT 6 FLAG 5  (S)
000730: 24,2022                        3AXISFLG           =        084D                                  #  MANEUVER SPECIFIED  MANEUVER SPECIFIED
000731:                                                                                                  #  BY THREE AXES       BY ONE AXIS; R60
000732: 24,2022     4746               3AXISBIT           =        BIT6                                  #                      CALLS VECPOINT.
000733:
000734:


000736:                                                                                                  #  BIT 5 FLAG 5
000737:                                                                                                  #                =               085D
000738:
000739:
000740:                                                                                                  #  BIT 4 FLAG 5  (S)
000741: 24,2022                        NORRMON            =        086D                                  #  BYPASS RR GIMBAL    PERFORM
000742: 24,2022     4750               NORRMBIT           =        BIT4                                  #  MONITOR             RR GIMBAL MONITOR
000743:
000744:
000745:                                                                                                  #  BIT 3 FLAG 5  (S)
000746: 24,2022                        SOLNSW             =        087D                                  #  LAMBERT DOES NOT    LAMBERT CONVERGES OR
000747:                                                                                                  #  CONVERGE,OR TIME-RADTIME-RADIUS NON
000748: 24,2022     4751               SOLNSBIT           =        BIT3                                  #  NEARLY CIRCULAR     CIRCULAR
000749:
000750:
000751:                                                                                                  #  BIT 2 FLAG 5  (S)
000752: 24,2022                        MGLVFLAG           =        088D                                  #  LOCAL VERTICAL      MIDDLE GIMBAL ANGLE
000753:                                                                                                  #  COORDINATES         COMPUTED
000754: 24,2022     4752               MGLVFBIT           =        BIT2                                  #  COMPUTED
000755:
000756:                                                                                                  #  BIT 1 FLAG 5  (S)
000757: 24,2022                        RENDWFLG           =        089D                                  #  W MATRIX VALID      W MATRIX INVALID
000758:                                                                                                  #  FOR RENDEZVOUS      FOR RENDEZVOUS
000759: 24,2022     4753               RENDWBIT           =        BIT1                                  #  NAVIGATION          NAVIGATION
000760:
000761:
000762: 24,2022     0102               FLAGWRD6           =        STATE      +6                         #  (090-104)
000763:
000764:                                                                                                  #  (SET)               (RESET)
000765:
000766:                                                                                                  #  BIT 15 FLAG 6 (S)
000767: 24,2022                        S32.1F1            =        090D                                  #  DELTA V AT CSI TIME  DVT1 LESS THEN MAX
000768: 24,2022     4735               S32BIT1            =        BIT15                                 #  ONE EXCEEDS MAX
000769:
000770:
000771:                                                                                                  #  BIT 14 FLAG 6 (S)
000772: 24,2022                        S32.1F2            =        091D                                  #  FIRST PASS OF       REITERATION OF
000773: 24,2022     4736               S32BIT2            =        BIT14                                 #  NEWTON ITERATION    NEWTON
000774:
000775:
000776:                                                                                                  #  BIT 13 FLAG 6 (S)
000777: 24,2022                        S32.1F3A           =        092D                                  #  BIT 13 AND BIT 12 FUNCTION AS AN ORDERED
000778: 24,2022     4737               S32BIT3A           =        BIT13                                 #  PAIR (13,12) INDICATING THE POSSIBLE OC-
000779:                                                                                                  #  CURRANCE OF 2NEWTON ITERATIONS FOR S32.1
000780:                                                                                                  #  IN THE PROGRAM IN THE FOLLOWING ORDER:
000781:                                                                                                  #  BIT 12 FLAG 6                                           (0,1) (I.E.BIT 13 RESET,BIT 12 SET)
000782: 24,2022                        S32.1F3B           =        093D                                  #       = FIRST NEWTON ITERATION BEING DONE
000783: 24,2022     4740               S32BIT3B           =        BIT12                                 #  (0,0)= FIRST PASS OF SECOND NEWT.ITERAT.
000784:                                                                                                  #  (1,1)= 50 FT/SEC STAGE OF SEC. NEWT.ITER
000785:


000787:                                                                                                  #  (1,0)= REMAINDER OF SECOND NEWTON ITERA.
000788:
000789:
000790:                                                                                                  #  BIT 11 FLAG 6 (S)
000791: 24,2022                        FIRSTFLG           =        094D                                  #  SUCCEEDING PASS     FIRST PASS THRU
000792: 24,2022     4741               FIRSTBIT           =        BIT11                                 #  THRU S40.9          S40.9
000793:
000794:
000795:                                                                                                  #  BIT 10 FLAG 6 (S)
000796: 24,2022                        GMBDRVSW           =        095D                                  #  TRIMGIMB OVER       TRIMGIMB NOT OVER
000797: 24,2022     4742               GMBDRBIT           =        BIT10
000798:
000799:
000800:                                                                                                  #  BIT 9 FLAG 6
000801: 24,2022                        2PHASFLG           =        096D                                  #  2-PHASE GUIDANCE IE  ONE-PHASE GUIDANCE
000802: 24,2022     4743               2PHASBIT           =        BIT9                                  #  TTF GOES TO ZERO    I.E. SWITCH OUT OF
000803:                                                                                                  #  BEFORE YOU ENTER    BRAKING PHASE BEFORE
000804:                                                                                                  #  APPROACH PHASE      TTF GETS SMALL
000805:
000806:
000807:                                                                                                  #  BIT 8 FLAG 6  (S)
000808: 24,2022                        MUNFLAG            =        097D                                  #  SERVICER CALLS      SERVICER CALLS
000809: 24,2022     4744               MUNFLBIT           =        BIT8                                  #  MUNRVG              CALCRVG
000810:
000811:
000812:                                                                                                  #  BIT 7 FLAG 6  (L)
000813: 24,2022                        POUTFLAG           =        098D                                  #  PROHIBIT THROTTLE   PERMIT THROTTLE
000814: 24,2022     4745               POUTBIT            =        BIT7                                  #  PULSE-OUT  (P60'S)  PULSE-OUT
000815:
000816:
000817:                                                                                                  #  BIT 6 FLAG 6  (L)
000818: 24,2022                        REDFLAG            =        099D                                  #  LANDING SITE        LANDING SITE
000819:                                                                                                  #  REDESIGNATION       REDESIGNATION NOT
000820: 24,2022     4746               REDFLBIT           =        BIT6                                  #  PERMITTED           PERMITTED
000821:
000822:
000823:                                                                                                  #  BIT 5 FLAG 6
000824:                                                                                                  #                =               100D
000825: 24,2022                        3
000826:
000827:                                                                                                  #  BIT 4 FLAG 6
000828:                                                                                                  #                =               101D
000829:
000830:                                                                                                  #  BIT 3 FLAG 6  (S)
000831: 24,2022                        NTARGFLG           =        102D                                  #  ASTRONAUT DID       ASTRONAUT DID NOT
000832:                                                                                                  #  OVERWRITE DELTA     OVERWRITE DELTA
000833: 24,2022     4751               NTARGBIT           =        BIT3                                  #  VELOCITY AT TPI     VELOCITY
000834:                                                                                                  #  OR TPM (P34,35)
000835:
000836:                                                                                                  #  BIT 2 FLAG 6
000837:


000839: 24,2022                        AUXFLAG            =        103D                                  #  PROVIDING IDLEFLAG  SERVICER WILL SKIP
000840: 24,2022     4752               AUXFLBIT           =        BIT2                                  #  IS NOT SET, SERV-   DVMON ON ITS NEXT
000841:                                                                                                  #  ICER WILL EXERCISE  PASS EVEN IF THE
000842:                                                                                                  #  DVMON ON ITS NEXT   IDLEFLAG IS NOT SET.
000843:                                                                                                  #  PASS.               IT WILL THEN SET
000844:                                                                                                  #  AUXFLAG.
000845:
000846:                                                                                                  #  BIT 1 FLAG 6  (L)
000847: 24,2022                        ATTFLAG            =        104D                                  #  LEM ATTITUDE EXISTS NO LEM ATTITUDE
000848:                                                                                                  #  IN MOON-FIXED       AVAILABLE IN MOON-
000849: 24,2022     4753               ATTFLBIT           =        BIT1                                  #  COORDINATES         FIXED COORDINATES
000850:
000851:
000852: 24,2022     0103               FLAGWRD7           =        STATE      +7                         #  (105-119)
000853:
000854:                                                                                                  #  (SET)               (RESET)
000855:
000856:                                                                                                  #  BIT 15 FLAG 7 (S)
000857: 24,2022                        ITSWICH            =        105D                                  #  P34;TPI TIME TO BE  TPI HAS BEEN
000858: 24,2022     4735               ITSWBIT            =        BIT15                                 #  COMPUTED            COMPUTED
000859:
000860:
000861:                                                                                                  #  BIT 14 FLAG 7 (S)
000862: 24,2022                        MANUFLAG           =        106D                                  #  ATTITUDE MANEUVER   NO ATTITUDE MANEUVER
000863:                                                                                                  #  GOING DURING RR     DURING RR SEARCH
000864: 24,2022     4736               MANUFBIT           =        BIT14                                 #  SEARCH
000865:
000866:
000867:                                                                                                  #  BIT 13 FLAG 7 (S)
000868: 24,2022                        IGNFLAG            =        107D                                  #  TIG HAS ARRIVED     TIG HAS NOT ARRIVED
000869: 24,2022     4737               IGNFLBIT           =        BIT13
000870:
000871:
000872:                                                                                                  #  BIT 12 FLAG 7 (S)
000873: 24,2022                        ASTNFLAG           =        108D                                  #  ASTRONAUT HAS       ASTRONAUT HAS NOT
000874: 24,2022     4740               ASTNBIT            =        BIT12                                 #  OKAYED IGNITION     OKAYED IGNITION
000875:
000876:
000877:                                                                                                  #  BIT 11 FLAG 7 (L)
000878: 24,2022                        SWANDISP           =        109D                                  #  LANDING ANALOG      LANDING ANALOG
000879: 24,2022     4741               SWANDBIT           =        BIT11                                 #  DISPLAYS ENABLED    DISPLAYS SUPPRESSED
000880:
000881:
000882:                                                                                                  #  BIT 10 FLAG 7 (S)
000883: 24,2022                        NORMSW             =        110D                                  #  UNIT NORMAL INPUT   LAMBERT COMPUTES ITS
000884: 24,2022     4742               NORMSBIT           =        BIT10                                 #  TO LAMBERT          OWN UNIT NORMAL
000885:
000886:
000887:                                                                                                  #  BIT 9 FLAG 7  (S)
000888: 24,2022                        RVSW               =        111D                                  #  DO NOT COMPUTE      COMPUTE FINAL STATE
000889:


000891:                                                                                                  #  FINAL STATE VECTOR  VECTOR IN TIME-THETA
000892: 24,2022     4743               RVSWBIT            =        BIT9                                  #  IN TIME-THETA
000893:
000894:
000895:                                                                                                  #  BIT 8 FLAG 7  (S)
000896: 24,2022                        V67FLAG            =        112D                                  #  ASTRONAUT OVERWRITE  ASTRONAUT DOES NOT
000897:                                                                                                  #  W-MATRIX INITIAL    OVERWRITE W-MATRIX
000898: 24,2022     4744               V67FLBIT           =        BIT8                                  #  VALUES              INITIAL VALUES
000899:
000900:
000901:                                                                                                  #  BIT 7 FLAG 7  (S)
000902: 24,2022                        IDLEFLAG           =        113D                                  #  NO DV MONITOR       CONNECT DV MONITOR
000903: 24,2022     4745               IDLEFBIT           =        BIT7
000904:
000905:
000906:                                                                                                  #  BIT 6 FLAG 7  (S)
000907: 24,2022                        V37FLAG            =        114D                                  #  AVERAGEG (SERVICER) AVERAGEG (SERVICER)
000908: 24,2022     4746               V37FLBIT           =        BIT6                                  #  RUNNING             OFF
000909:
000910:
000911:                                                                                                  #  BIT 5 FLAG 7  (S)
000912: 24,2022                        AVEGFLAG           =        115D                                  #  AVERAGEG (SERVICER) AVERAGEG (SERVICER)
000913: 24,2022     4747               AVEGFBIT           =        BIT5                                  #  DESIRED             NOT DESIRED
000914:
000915:
000916:                                                                                                  #  BIT 4 FLAG 7  (S)
000917: 24,2022                        UPLOCKFL           =        116D                                  #  K-KBAR-K FAIL       NO K-KBAR-K FAIL
000918: 24,2022     4750               UPLOCBIT           =        BIT4
000919:
000920:
000921:                                                                                                  #  BIT 3 FLAG 7  (S)
000922: 24,2022                        VERIFLAG           =        117D                                  #  CHANGED WHEN V33E OCCURS AT END OF P27
000923: 24,2022     4751               VERIFBIT           =        BIT3
000924:
000925:
000926:                                                                                                  #  BIT 2 FLAG 7  (L,C)
000927: 24,2022                        V82EMFLG           =        118D                                  #  MOON VICINITY       EARTH VICINITY
000928: 24,2022     4752               V82EMBIT           =        BIT2
000929:
000930:
000931:                                                                                                  #  BIT 1 FLAG 7  (S)
000932: 24,2022                        TFFSW              =        119D                                  #  CALCULATE TPERIGEE  CALCULATE TFF
000933: 24,2022     4753               TFFSWBIT           =        BIT1
000934:
000935:
000936: 24,2022     0104               FLAGWRD8           =        STATE      +8D                        #  (120-134)
000937:
000938:                                                                                                  #  (SET)               (RESET)
000939:
000940:                                                                                                  #  BIT 15 FLAG 8 (S)
000941:


000943: 24,2022                        RPQFLAG            =        120D                                  #  RPQ NOT COMPUTED    RPQ COMPUTED
000944:                                                                                                  #  (RPQ = VECTOR BE-
000945: 24,2022     4735               RPQFLBIT           =        BIT15                                 #  TWEEN SECONDARY BODY
000946:                                                                                                  #  AND PRIMARY BODY
000947:
000948:
000949:                                                                                                  #  BIT 14 FLAG 8
000950:                                                                                                  #                =               121D
000951:                                                                                                  #                =               BIT14
000952:
000953:
000954:                                                                                                  #  BIT 13 FLAG 8 (S)
000955: 24,2022                        NEWIFLG            =        122D                                  #  FIRST PASS THROUGH  SUCCEEDING ITERATION
000956: 24,2022     4737               NEWIBIT            =        BIT13                                 #  INTEGRATION         OF INTEGRATION
000957:
000958:
000959:                                                                                                  #  BIT 12 FLAG 8 *** PROTECTED FROM FRESH START ***
000960: 24,2022                        CMOONFLG           =        123D                                  #  PERMANENT CSM STATE PERMANENT CSM STATE
000961: 24,2022     4740               CMOONBIT           =        BIT12                                 #  IN LUNAR SPHERE     IN EARTH SPHERE
000962:
000963:
000964:                                                                                                  #  BIT 11 FLAG 8 *** PROTECTED FROM FRESH START ***
000965: 24,2022                        LMOONFLG           =        124D                                  #  PERMANENT LM STATE  PERMANENT LM STATE
000966: 24,2022     4741               LMOONBIT           =        BIT11                                 #  IN LUNAR SPHERE     IN EARTH SPHERE
000967:
000968:
000969:                                                                                                  #  BIT 10 FLAG 8 (L)
000970: 24,2022                        FLUNDISP           =        125D                                  #  CURRENT GUIDANCE    CURRENT GUIDANCE
000971: 24,2022     4742               FLUNDBIT           =        BIT10                                 #  DISPLAYS INHIBITED  DISPLAYS PERMITTED
000972:
000973:
000974:                                                                                                  #  BIT 9 FLAG 8  (L)
000975: 24,2022                        P39/79SW           =        126D                                  #  P39/79 OPERATING    P38/P78 OPERATING
000976: 24,2022     4743               P39SWBIT           =        BIT9
000977:
000978:
000979:                                                                                                  #  BIT 8 FLAG 8  *** PROTECTED FROM FRESH START ***
000980: 24,2022                        SURFFLAG           =        127D                                  #  LM ON LUNAR SURFACE LM NOT ON LUNAR
000981: 24,2022     4744               SURFFBIT           =        BIT8                                  #                      SURFACE
000982:
000983:
000984:                                                                                                  #  BIT 7 FLAG 8  (S)
000985: 24,2022                        INFINFLG           =        128D                                  #  NO CONIC SOLUTION   CONIC SOLUTION
000986:                                                                                                  #  (CLOSURE THROUGH    EXISTS
000987: 24,2022     4745               INFINBIT           =        BIT7                                  #  INFINITY REQUIRED)
000988:
000989:
000990:                                                                                                  #  BIT 6 FLAG 8  (S)
000991: 24,2022                        ORDERSW            =        129D                                  #  ITERATOR USES 2ND   ITERATOR USES 1ST
000992: 24,2022     4746               ORDERBIT           =        BIT6                                  #  ORDER MINIMUM MODE  ORDER STANDARD MODE
000993:


000995:
000996:
000997:                                                                                                  #  BIT 5 FLAG 8  (S)
000998: 24,2022                        APSESW             =        130D                                  #  RDESIRED OUTSIDE    RDESIRED INSIDE
000999:                                                                                                  #  PERICENTER-APOCENTERPERICENTER-APOCENTER
001000: 24,2022     4747               APSESBIT           =        BIT5                                  #  RANGE IN TIME-RADI  RANGE IN TIME-RADIUS
001001:
001002:
001003:                                                                                                  #  BIT 4 FLAG 8  (S)
001004: 24,2022                        COGAFLAG           =        131D                                  #  NO CONIC SOLUTION - CONIC SOLUTION
001005:                                                                                                  #  TOO CLOSE TO RECTI- EXISTS(COGA DOES NOT
001006: 24,2022     4750               COGAFBIT           =        BIT4                                  #  LINEAR(COGA OVRFLWS) OVERFLOW)
001007:
001008:
001009:                                                                                                  #  BIT 3 FLAG 8
001010:                                                                                                  #                =               132D
001011:
001012:                                                                                                  #  BIT 2 FLAG 8  (L)
001013: 24,2022                        INITALGN           =        133D                                  #  INITIAL PASS THRU   SECOND PASS THRU P57
001014: 24,2022     4752               INITABIT           =        BIT2                                  #  P57                (CHECK RESET-MILLARD)
001015:
001016:
001017:                                                                                                  #  BIT 1 FLAG 8  (S)
001018: 24,2022                        360SW              =        134D                                  #  TRANSFER ANGLE NEAR TRANSFER ANGLE NOT
001019: 24,2022     4753               360SWBIT           =        BIT1                                  #  360 DEGREES         NEAR 360 DEGREES
001020:
001021:
001022: 24,2022     0105               FLAGWRD9           =        STATE      +9D                        #  (135-149)
001023:
001024:                                                                                                  #  (SET)               (RESET)
001025:
001026:
001027:                                                                                                  #  BIT 15 FLAG 9
001028:                                                                                                  #                =               135D
001029:                                                                                                  #                =               BIT15
001030:
001031:                                                                                                  #  BIT 14 FLAG 9 (L)
001032: 24,2022                        FLVR               =        136D                                  #  VERTICAL RISE       NON-VERTICAL RISE
001033: 24,2022     4736               FLVRBIT            =        BIT14                                 #  (ASCENT GUIDANCE)
001034:
001035:
001036:                                                                                                  #  BIT 13 FLAG 9
001037:                                                                                                  #                =               137D
001038:
001039:
001040:                                                                                                  #  BIT 12 FLAG 9 (L)
001041: 24,2022                        FLPC               =        138D                                  #  NO POSITION CONTROL  POSITION CONTROL
001042: 24,2022     4740               FLPCBIT            =        BIT12                                 #  (ASCENT GUIDANCE)
001043:
001044:


001046:
001047:                                                                                                  #  BIT 11 FLAG 9 (L)
001048: 24,2022                        FLPI               =        139D                                  #  PRE-IGNITION PHASE   REGULAR GUIDANCE
001049: 24,2022     4741               FLPIBIT            =        BIT11                                 #  (ASCENT GUIDANCE)
001050:
001051:
001052:                                                                                                  #  BIT 10 FLAG 9 (L)
001053: 24,2022                        FLRCS              =        140D                                  #  RCS INJECTION MODE   MAIN ENGINE MODE
001054: 24,2022     4742               FLRCSBIT           =        BIT10                                 #  (ASCENT GUIDANCE)
001055:
001056:
001057:                                                                                                  #  BIT 9 FLAG 9  (L)
001058: 24,2022                        LETABORT           =        141D                                  #  ABORT PROGRAMS       ABORT PROGRAMS
001059: 24,2022     4743               LETABBIT           =        BIT9                                  #  ARE ENABLED          ARE NOT ENABLED
001060:
001061:
001062:                                                                                                  #  BIT 8 FLAG 9  (L)
001063: 24,2022                        FLAP               =        142D                                  #  APS CONTINUED ABORT   APS ABORT IS NOT A
001064:                                                                                                  #  AFTER DPS STAGING    CONTINUATION
001065: 24,2022     4744               FLAPBIT            =        BIT8                                  #  (ASCENT GUIDANCE)
001066:
001067:
001068:                                                                                                  #  BIT 7 FLAG 9  (L)
001069:                                                                                                  #                =               143D
001070:
001071:                                                                                                  #  BIT 6 FLAG 9  (L)
001072: 24,2022                        FLZONE0            =        144D                                  #  EARLY ABORT          LATE ABORT
001073: 24,2022     4746               FLZONBIT           =        BIT6                                  #  TFI . 50 SECS.       TFI > 50 SECS.
001074:                                                                                                  #  P70 --> P40
001075:                                                                                                  #  P71 --> P42
001076:
001077:                                                                                                  #  BIT 5 FLAG 9  (S)
001078: 24,2022                        QUITFLAG           =        145D                                  #  DISCONTINUE INTEGR.  CONTINUE INTEGRATION
001079: 24,2022     4747               QUITBIT            =        BIT5
001080:
001081:
001082:                                                                                                  #  BIT 4 FLAG 9
001083:                                                                                                  #                =               146D
001084:                                                                                                  #                =               BIT4
001085:
001086:
001087:                                                                                                  #  BIT 3 FLAG 9  (L)
001088: 24,2022                        MID1FLAG           =        147D                                  #  INTEGRATE TO TDEC    INTEGRATE TO THE
001089: 24,2022     4751               MID1FBIT           =        BIT3                                  #                       THEN-PRESENT TIME
001090:
001091:
001092:                                                                                                  #  BIT 2 FLAG 9  (L)
001093: 24,2022                        MIDAVFLG           =        148D                                  #  INTEGRATION ENTERED  INTEGRATION WAS
001094:                                                                                                  #  FROM ONE OF MIDTOAV  NOT ENTERED VIA
001095: 24,2022     4752               MIDAVBIT           =        BIT2                                  #  PORTALS              MIDTOAV
001096:
001097:


001099:                                                                                                  #  BIT 1 FLAG 9  (S)
001100: 24,2022                        AVEMIDSW           =        149D                                  #  AVETOMID CALLING    NO AVETOMID W INTEGR
001101:                                                                                                  #  FOR W.MATRIX INTEGR ALLOW SET UP RM,VN.
001102: 24,2022     4753               AVEMDBIT           =        BIT1                                  #  DONT WRITE OVER RN, PIPTIME
001103:                                                                                                  #  VN,PIPTIME
001104:
001105:
001106:
001107: 24,2022     0106               RASFLAG            EQUALS   FLGWRD10                              #  WAS ONLY AN INSTALL- ERASTALL FLAG
001108:
001109: 24,2022     0106               FLGWRD10           =        STATE      +10D                       #  (150-164)
001110:
001111:                                                                                                  #  (SET)               (RESET)
001112:
001113:                                                                                                  #  BIT 15 FLAG 10
001114:                                                                                                  #                =               150D
001115:
001116:
001117:                                                                                                  #  BIT 14 FLAG 10 (L,C)
001118: 24,2022                        INTFLAG            =        151D                                  #  INTEGRATION IN       INTEGRATION NOT IN
001119: 24,2022     4736               INTFLBIT           =        BIT14                                 #  PROGRESS             PROGRESS
001120:
001121:
001122:                                                                                                  #  BIT 13 FLAG 10 (S,L)
001123: 24,2022                        APSFLAG            =        152D                                  #  ASCENT STAGE         DESCENT STAGE
001124: 24,2022     4737               APSFLBIT           =        BIT13                                 #  *** PROTECTED FROM FRESH START ***
001125:
001126:
001127:                                                                                                  #  BIT 12 FLAG 10
001128:                                                                                                  #                =               153D
001129:
001130:
001131:                                                                                                  #  BIT 11 FLAG 10
001132:                                                                                                  #                =               154D
001133:
001134:
001135:                                                                                                  #  BIT 10 FLAG 10
001136:                                                                                                  #                =               155D
001137:
001138:
001139:                                                                                                  #  BIT 9 FLAG 10
001140:                                                                                                  #                =               156D
001141:
001142:
001143:                                                                                                  #  BIT 8 FLAG 10
001144:                                                                                                  #                =               157D
001145:
001146:
001147:                                                                                                  #  BIT 7 FLAG 10 (L,C)
001148:


001150: 24,2022                        REINTFLG           =        158D                                  #  INTEGRATION ROUTINE INTEGRATION ROUTINE
001151: 24,2022     4745               REINTBIT           =        BIT7                                  #  TO BE RESTARTED     NOT TO BE RESTARTED
001152:
001153:
001154:                                                                                                  #  BIT 6 FLAG 10
001155:                                                                                                  #                =               159D
001156:
001157:
001158:                                                                                                  #  BIT 5 FLAG 10
001159:                                                                                                  #                =               160D
001160:
001161:
001162:                                                                                                  #  BIT 4 FLAG 10
001163:                                                                                                  #                =               161D
001164:
001165:
001166:                                                                                                  #  BIT 3 FLAG 10
001167:                                                                                                  #                =               162D
001168:
001169:
001170:                                                                                                  #  BIT 2 FLAG 10
001171:                                                                                                  #                =               163D
001172:
001173:
001174:                                                                                                  #  BIT 1 FLAG 10
001175:                                                                                                  #                =               164D
001176:
001177:
001178:
001179:
001180: 24,2022     0107               FLGWRD11           =        STATE      +11D                       #  (165-179)
001181:
001182:                                                                                                  #  (SET)               (RESET)
001183:
001184:                                                                                                  #  BIT 15 FLAG 11 (L)(R12)
001185: 24,2022                        LRBYPASS           =        165D                                  #  BYPASS ALL LANDING  DO NOT BYPASS LR
001186: 24,2022     4735               LRBYBIT            =        BIT15                                 #  RADAR UPDATES       UPDATES
001187:
001188:
001189:                                                                                                  #  BIT 14 FLAG 11
001190:                                                                                                  #                =               166D
001191:                                                                                                  #                =               BIT14
001192:
001193:
001194:                                                                                                  #                =               BIT 13 FLAG 11
001195:                                                                                                  #                =               167D
001196:                                                                                                  #                =               BIT13
001197:
001198:


001200:                                                                                                  #  BIT 12 FLAG 11 (L)(R12)
001201: 24,2022                        VXINH              =        168D                                  #  IF Z VELOCITY DATA  UPDATE X AXIS
001202:                                                                                                  #  UNREASONABLE,       VELOCITY
001203: 24,2022     4740               VXINHBIT           =        BIT12                                 #  BYPASS X VELOCITY
001204:                                                                                                  #  UPDATE ON NEXT PASS
001205:
001206:                                                                                                  #  BIT 11 FLAG 11 (L)(R12)
001207: 24,2022                        PSTHIGAT           =        169D                                  #  PAST HIGATE         PREHIGATE
001208: 24,2022     4741               PSTHIBIT           =        BIT11
001209:
001210:
001211:                                                                                                  #  BIT 10 FLAG 11 (L)(R12)
001212: 24,2022                        NOLRREAD           =        170D                                  #  LANDING RADAR       LR NOT REPOSITIONING
001213:                                                                                                  #  REPOSITIONING;
001214: 24,2022     4742               NOLRRBIT           =        BIT10                                 #  BYPASS UPDATE
001215:
001216:
001217:                                                                                                  #  BIT 9 FLAG 11 (L)(R12)
001218: 24,2022                        XORFLG             =        171D                                  #  BELOW LIMIT         ABOVE LIMIT DO
001219:                                                                                                  #  INHIBIT X AXIS      NOT INHIBIT
001220: 24,2022     4743               XORFLBIT           =        BIT9                                  #  OVERRIDE
001221:
001222:
001223:                                                                                                  #  BIT 8 FLAG 11
001224: 24,2022                        LRINH              =        172D                                  #  LANDING RADAR UP-   LR UPDATES INHIBITED
001225: 24,2022     4744               LRINHBIT           =        BIT8                                  #  DATES PERMITTED     BY ASTRONAUT
001226:                                                                                                  #  BY ASTRONAUT
001227:
001228:
001229:                                                                                                  #  BIT 7 FLAG 11 (L)(R12)
001230: 24,2022                        VELDATA            =        173D                                  #  LR VELOCITY         LR VELOCITY MEASURE
001231: 24,2022     4745               VELDABIT           =        BIT7                                  #  MEASUREMENT MADE    NOT MADE
001232:
001233:
001234:                                                                                                  #  BIT 6 FLAG 11 (L)(R12)
001235: 24,2022                        READLR             =        174D                                  #  OK TO READ LR       DO NOT READ LR RANGE
001236: 24,2022     4746               READLBIT           =        BIT6                                  #  RANGE DATA          DATA
001237:
001238:
001239:                                                                                                  #  BIT 5 FLAG 11 (L)(R12)
001240: 24,2022                        READVEL            =        175D                                  #  OK TO READ LR       DO NOT READ LR
001241: 24,2022     4747               READVBIT           =        BIT5                                  #  VELOCITY DATA       VELOCITY DATA
001242:
001243:
001244:                                                                                                  #  BIT 4 FLAG 11 (L)(R12)
001245: 24,2022                        RNGEDATA           =        176D                                  #  LR ALTITUDE         LR ALTITUDE MEASURE
001246: 24,2022     4750               RNGEDBIT           =        BIT4                                  #  MEASUREMENT MADE    NOT MADE
001247:
001248:
001249:                                                                                                  #  BIT 3 FLAG 11
001250:


001252: 24,2022                        SCALBAD            =        177D                                  #  LR LOW SCALE DIS-   LR SCALE DISCRETE
001253: 24,2022     4751               SCABBIT            =        BIT3                                  #  CRETE NOT PRESENT   APPEARS OK
001254:                                                                                                  #  WHEN IT SHOULD BE
001255:
001256:                                                                                                  #  BIT 2 FLAG 11 (L)(R12)
001257: 24,2022                        VFLSHFLG           =        178D                                  #  LR VELOCITY FAIL    LR VEL FAIL LAMP
001258:                                                                                                  #  LAMP SHOULD BE      SHOULDN'T FLASH
001259: 24,2022     4752               VFLSHBIT           =        BIT2                                  #  FLASHING
001260:
001261:
001262:                                                                                                  #  BIT 1 FLAG 11 (L)(R12)
001263: 24,2022                        HFLSHFLG           =        179D                                  #  LR ALTITUDE FAIL    LR ALTITUDE FAIL
001264: 24,2022     4753               HFLSHBIT           =        BIT1                                  #  LAMP SHOULD BE      LAMP SHOULD NOT BE
001265:                                                                                                  #  FLASHING            FLASHING
001266:
001267:
001268: 24,2022     0110               RADMODES           EQUALS   FLGWRD12                              #  RADAR FLAG WORD
001269:
001270:
001271: 24,2022     0110               FLGWRD12           =        STATE      +12D                       #  (180-194)       WAS RADMODES
001272:
001273:                                                                                                  #  (SET)               (RESET)
001274:
001275:                                                                                                  #  BIT 15 FLAG 12
001276: 24,2022                        CDESFLAG           =        180D                                  #  CONTINUOUS DESIG-   LGC CHECKS FOR LOCK-
001277: 24,2022     4735               CDESBIT            =        BIT15                                 #  NATE. LGC COMMANDS  ON WHEN ANTENNA
001278:                                                                                                  #  RR REGARDLESS OF    BEING DESIGNATED
001279:                                                                                                  #  LOCK-ON
001280:
001281:                                                                                                  #  BIT 14 FLAG 12
001282: 24,2022                        REMODFLG           =        181D                                  #  CHANGE IN ANTENNA   NO REMODE REQUESTED
001283: 24,2022     4736               REMODBIT           =        BIT14                                 #  MODE BEEN REQUESTED OR OCCURRING
001284:                                                                                                  #  I.E., REMODE
001285:
001286:
001287:                                                                                                  #  BIT 13 FLAG 12
001288: 24,2022                        RCDU0FLG           =        182D                                  #  RR CDU'S BEING      RR CDU'S NOT BEING
001289: 24,2022     4737               RCDU0BIT           =        BIT13                                 #  ZEROED              ZEROED
001290:
001291:
001292:                                                                                                  #  BIT 12 FLAG 12
001293: 24,2022                        ANTENFLG           =        183D                                  #  RR ANTENNA MODE IS  RR ANTENNA IN MODE 1
001294: 24,2022     4740               ANTENBIT           =        BIT12                                 #  MODE 2
001295:
001296:
001297:                                                                                                  #  BIT 11 FLAG 12
001298: 24,2022                        REPOSMON           =        184D                                  #  REPOSITION MONITOR. NO REPOSITION TAKING
001299: 24,2022     4741               REPOSBIT           =        BIT11                                 #  RR REPOSITION IS    PLACE
001300:


001302:                                                                                                  #  TAKING PLACE
001303:
001304:
001305:                                                                                                  #  BIT 10 FLAG 12
001306: 24,2022                        DESIGFLG           =        185D                                  #  RR DESIGNATE        RR DESIGNATE NOT
001307: 24,2022     4742               DESIGBIT           =        BIT10                                 #  REQUESTED OR IN     REQUESTED OR IN
001308:                                                                                                  #  PROGRESS            PROGRESS
001309:
001310:
001311:                                                                                                  #  BIT 9 FLAG 12
001312: 24,2022                        ALTSCALE           =        186D                                  #  LR ALTITUDE READING LR ALTITUDE READING
001313: 24,2022     4743               ALTSCBIT           =        BIT9                                  #  IS ON HIGH SCALE    IS ON LOW SCALE
001314:
001315:
001316:                                                                                                  #  BIT 8 FLAG 12
001317: 24,2022                        LRVELFLG           =        187D                                  #  LR VELOCITY DATA    NO LR VELOCITY DATA
001318: 24,2022     4744               LRVELBIT           =        BIT8                                  #  FAIL                FAIL
001319:
001320:
001321:                                                                                                  #  BIT 7 FLAG 12
001322: 24,2022                        RCDUFAIL           =        188D                                  #  RR CDU FAIL HAS     RR CDU FAIL OCCURRED
001323: 24,2022     4745               RCDUFBIT           =        BIT7                                  #  NOT OCCURRED
001324:
001325:
001326:                                                                                                  #  BIT 6 FLAG 12
001327: 24,2022                        LRPOSFLG           =        189D                                  #  LANDING RADAR       LR POSITION 1
001328: 24,2022     4746               LRPOSBIT           =        BIT6                                  #  POSITION 2
001329:
001330:
001331:                                                                                                  #  BIT 5 FLAG 12
001332: 24,2022                        LRALTFLG           =        190D                                  #  LR ALTITUDE DATA    NO LR ALTITUDE DATA
001333: 24,2022     4747               LRALTBIT           =        BIT5                                  #  FAIL. COULD NOT BE  FAIL
001334:                                                                                                  #  READ SUCCESSFULLY.
001335:
001336:
001337:                                                                                                  #  BIT 4 FLAG 12
001338: 24,2022                        RRDATAFL           =        191D                                  #  RR DATA FAIL.       NO RR DATA FAIL.
001339: 24,2022     4750               RRDATABT           =        BIT4                                  #  DATA COULD NOT BE
001340:                                                                                                  #  READ SUCCESSFULLY
001341:
001342:
001343:                                                                                                  #  BIT 3 FLAG 12
001344: 24,2022                        RRRSFLAG           =        192D                                  #  RR RANGE READING    RR RANGE READING ON
001345: 24,2022     4751               RRRSBIT            =        BIT3                                  #  ON THE HIGH SCALE   THE LOW SCALE
001346:
001347:
001348:                                                                                                  #  BIT 2 FLAG 12
001349: 24,2022                        AUTOMODE           =        193D                                  #  RR NOT IN AUTO MODE.RR IN AUTO MODE
001350: 24,2022     4752               AUTOMBIT           =        BIT2                                  #  AUTO MODE DISCRETE
001351:                                                                                                  #  IS NOT PRESENT
001352:


001354:
001355:                                                                                                  #  BIT 1 FLAG 12
001356: 24,2022                        TURNONFL           =        194D                                  #  RR TURN-ON SEQUENCE NO RR TURN-ON
001357: 24,2022     4753               TURNONBT           =        BIT1                                  #  IN PROGRESS. (ZERO  SEQUENCE IN PROGRESS
001358:                                                                                                  #  CDU'S, FIX ANTENNA
001359:                                                                                                  #  MODE)
001360:
001361:
001362: 24,2022     0111               DAPBOOLS           EQUALS   FLGWRD13                              #  DIGITAL AUTOPILOT FLAGWORD
001363:
001364:
001365: 24,2022     0111               FLGWRD13           =        STATE      +13D                       #  (195-209)       WAS DAPBOOLS
001366:
001367:                                                                                                  #  (SET)               (RESET)
001368:
001369:                                                                                                  #  BIT 15 FLAG 13
001370: 24,2022                        PULSEFLG           =        195D                                  #  MINIMUM IMPULSE     NOT IN MINIMUM
001371: 24,2022     4735               PULSES             =        BIT15                                 #  COMMAND MODE IN     IMPULSE COMMAND MODE
001372:                                                                                                  #  "ATT HOLD" (V76)    (V77)
001373:
001374:
001375:                                                                                                  #  BIT 14 FLAG 13
001376: 24,2022                        USEQRFLG           =        196D                                  #  GIMBAL UNUSABLE.    TRIM GIMBAL MAY BE
001377: 24,2022     4736               USEQRJTS           =        BIT14                                 #  USE JETS ONLY.      USED.
001378:
001379:
001380:                                                                                                  #  BIT 13 FLAG 13
001381: 24,2022                        CSMDKFLG           =        197D                                  #  CSM DOCKED.  USE    CSM NOT DOCKED TO LM
001382: 24,2022     4737               CSMDOCKD           =        BIT13                                 #  BACKUP DAP
001383:
001384:
001385:                                                                                                  #  BIT 12 FLAG 13
001386: 24,2022                        OURRCFLG           =        198D                                  #  CURRENT DAP PASS    CURRENT DAP PASS IS
001387: 24,2022     4740               OURRCBIT           =        BIT12                                 #  IS RATE COMMAND     NOT RATE COMMAND
001388:
001389:
001390:                                                                                                  #  BIT 11 FLAG 13
001391: 24,2022                        ACC4-2FL           =        199D                                  #  4 JET X-AXIS TRANS- 2 JET X-AXIS TRANS-
001392: 24,2022     4741               ACC4OR2X           =        BIT11                                 #  LATION REQUESTED    LATION REQUESTED
001393:
001394:
001395:                                                                                                  #  BIT 10 FLAG 13
001396: 24,2022                        AORBTFLG           =        200D                                  #  B SYSTEM FOR X-     A SYSTEM FOR X-
001397: 24,2022     4742               AORBTRAN           =        BIT10                                 #  TRANSLATION         TRANSLATION PREFER'D
001398:
001399:
001400:                                                                                                  #  BIT 9 FLAG 13
001401: 24,2022                        XOVINFLG           =        201D                                  #  X-AXIS OVERRIDE     X-AXIS OVERRIDE OKAY
001402: 24,2022     4743               XOVINHIB           =        BIT9                                  #  LOCKED OUT
001403:
001404:


001406:
001407:
001408:                                                                                                  #  BIT 8 FLAG 13
001409: 24,2022                        DRIFTDFL           =        202D                                  #  ASSUME 0 OFFSET     USE OFFSET ACCELERA-
001410: 24,2022     4744               DRIFTBIT           =        BIT8                                  #  DRIFTING FLIGHT.    TION ESTIMATE
001411:
001412:
001413:                                                                                                  #  BIT 7 FLAG 13
001414: 24,2022                        RHCSCFLG           =        203D                                  #  NORMAL RHC SCALING  FINE RHC SCALING
001415: 24,2022     4745               RHCSCALE           =        BIT7                                  #  REQUESTED           REQUESTED
001416:
001417:
001418:                                                                                                  #  BIT 6 FLAG 13
001419: 24,2022                        ULLAGFLG           =        204D                                  #  ULLAGE REQUEST BY   NO INTERNAL ULLAGE
001420: 24,2022     4746               ULLAGER            =        BIT6                                  #  MISSION PROGRAM     REQUEST
001421:
001422:
001423:                                                                                                  #  BIT 5 FLAG 13
001424: 24,2022                        AORBSFLG           =        205D                                  #  P-AXIS COUPLES 7.15 P-AXIS COUPLES 4.12
001425: 24,2022     4747               AORBSYST           =        BIT5                                  #  AND 8,16 PREFERRED  AND 3,11 PREFERRED
001426:
001427:
001428:                                                                                                  #  BIT 4 FLAG 13
001429: 24,2022                        DBSELFLG           =        206D                                  #  MAX DB SELECTED     MIN DB SELECTED BY
001430: 24,2022     4750               DBSELECT           =        BIT4                                  #  BY CREW (5 DEG)     CREW (0.3 DEG)
001431:
001432:
001433:                                                                                                  #  BIT 3 FLAG 13
001434: 24,2022                        ACCOKFLG           =        207D                                  #  CONTROL AUTHORITY   RESTART OR FRESH ST.
001435: 24,2022     4751               ACCSOKAY           =        BIT3                                  #  VALUES FROM 1/ACCS  SINCE LAST 1/ACCS;
001436:                                                                                                  #  USABLE              OUTPUTS SUSPECT.
001437:
001438:
001439:                                                                                                  #  BIT 2 FLAG 13
001440: 24,2022                        AUTR2FLG           =        208D                                  #  THESE FLAGS ARE USED TOGETHER TO INDICAT
001441: 24,2022     4752               AUTRATE2           =        BIT2                                  #  ASTRONAUT-CHOSEN KALCMANU MANEUVER RATES
001442:                                                                                                  #  (0,0)=(BIT2,BIT1)= 0.2 DEG/SEC
001443:                                                                                                  #  (0,1)=  0.5 DEG/SEC
001444:                                                                                                  #  BIT 1 FLAG 13
001445: 24,2022                        AUTR1FLG           =        209D                                  #  (1,0)=  2.0 DEG/SEC
001446: 24,2022     4753               AUTRATE1           =        BIT1                                  #  (1,1)= 10.0 DEG/SEC
001447:
001448:

End of include-file FLAGWORD_ASSIGNMENTS.agc.  Parent file is MAIN.agc


