
Source Code


000002:                                                                                                  ## Copyright:   Public domain.
000003:                                                                                                  ## Filename:    GENERAL_LAMBERT_AIMPOINT_GUIDANCE.agc
000004:                                                                                                  ## Purpose:     A section of LUM69 revision 2.
000005:                                                                                                  ##              It is part of the reconstructed source code for the flown
000006:                                                                                                  ##              version of the flight software for the Lunar Module's (LM)
000007:                                                                                                  ##              Apollo Guidance Computer (AGC) for Apollo 10. The code has
000008:                                                                                                  ##              been recreated from a copy of Luminary revsion 069, using
000009:                                                                                                  ##              changes present in Luminary 099 which were described in
000010:                                                                                                  ##              Luminary memos 75 and 78. The code has been adapted such
000011:                                                                                                  ##              that the resulting bugger words exactly match those specified
000012:                                                                                                  ##              for LUM69 revision 2 in NASA drawing 2021152B, which gives
000013:                                                                                                  ##              relatively high confidence that the reconstruction is correct.
000014:                                                                                                  ## Reference:   pp. 661-663
000015:                                                                                                  ## Assembler:   yaYUL
000016:                                                                                                  ## Contact:     Ron Burkey <info@sandroid.org>.
000017:                                                                                                  ## Website:     www.ibiblio.org/apollo/index.html
000018:                                                                                                  ## Mod history: 2019-07-27 MAS  Created from Luminary 69.
000019:


000021:
000022:                                                                                                  #  GENERAL LAMBERT AIMPOINT GUIDANCE **
000023:                                                                                                  #  WRITTEN BY RAMA M AIYAWAR
000024:
000025:                                                                                                  #  PROGRAM P-31 DESCRIPTION **
000026:
000027:                                                                                                  #  1.    TO ACCEPT TARGETING PARAMETERS OBTAINED FROM A SOURCE EXTERNAL
000028:                                                                                                  #        TO THE LEM AND COMPUTE THERE FROM THE REQUIRED-VELOCITY AND
000029:                                                                                                  #        OTHER INITIAL CONDITIONS REQUIRED BY LM FOR DESIRED MANEUVER.
000030:                                                                                                  #        THE TARGETING PARAMETERS ARE TIG (TIME OF IGNITION), TARGET
000031:                                                                                                  #        VECTOR (RTARG), AND THE TIME FROM TIG UNTIL THE TARGET IS
000032:                                                                                                  #        REACHED(DELLT4), DESIRED TIME OF FLIGHT FROM RINIT TO RTARG..
000033:
000034:                                                                                                  #  ASSUMPTIONS **
000035:
000036:                                                                                                  #  1.    THE TARGET PARAMETERS MAY HAVE BEEN LOADED PRIOR TO THE
000037:                                                                                                  #        EXECUTION OF THIS PROGRAM.
000038:                                                                                                  #  2.    THIS PROGRAM IS APPLICABLE IN EITHER EARTH OR LUNAR ORBIT.
000039:                                                                                                  #  3.    THIS PROGRAM IS DESIGNED FOR ONE-MAN OPERATION, AND SHOULD
000040:                                                                                                  #        BE SELECTED BY THE ASTRONAUT BY DSKY ENTRY V37 E31.
000041:
000042:                                                                                                  #  SUBROUTINES USED **
000043:                                                                                                  #
000044:                                                                                                  #  MANUPARM, TTG/N35, R02BOTH, MIDGIM, DISPMGA, FLAGDOWN, BANKCALL,
000045:                                                                                                  #  GOTOPOOH, ENDOFJOB, PHASCHNG, GOFLASHR, GOFLASH.
000046:
000047:                                                                                                  #  MANUPARM      CALCULATES APOGEE, PERIGEE ALTITUDES AND DELTAV DESIRED
000048:                                                                                                  #                FOR THE MANEUVER.
000049:
000050:                                                                                                  #  TTG/N35       CLOCKTASK - UPDATES CLOCK.
000051:
000052:                                                                                                  #  MIDGIM        CALCULATES MIDDLE GIMBAL ANGLE FOR DISPLAY.
000053:
000054:                                                                                                  #  R02BOTH       IMU - STATUS CHECK ROUTINE.
000055:
000056:                                                                                                  #  DISPLAYS USED IN P-31LM **
000057:
000058:                                                                                                  #  V06N33        DISPLAY SOTRED TIG (IN HRS. MINS. SECS)
000059:                                                                                                  #  V06N42        DISPLAY APOGEE, PERIGEE, DELTAV.
000060:                                                                                                  #  V16N35        DISPLAY TIME FROM TIG.
000061:                                                                                                  #  V06N45        TIME FROM IGNITION AND MIDDLE GIMBAL ANGLE.
000062:
000063:                                                                                                  #  ERASABLE INITIALIZATION REQUIRED **
000064:
000065:                                                                                                  #  TIG           TIME OF IGNITION                DP      (B+28) CS.
000066:
000067:                                                                                                  #  DELLT4        DESIRED TIME OF FLIGHT          DP      (B+28) CS
000068:                                                                                                  #                FROM RINIT TO RTARG.
000069:                                                                                                  #  RTARG         RADIUS VECTOR OF TARGET POSITION VECTOR
000070:                                                                                                  #                RADIUS VECTOR   SCALED TO  (B+29)METERS IF EARTH ORBIT


000072:                                                                                                  #                RADIUS VECTOR SCALED TO    (B+27)METERS IF MOON ORBIT
000073:
000074:                                                                                                  #  OUTPUT **
000075:
000076:                                                                                                  #  HAPO          APOGEE ALTITUDE
000077:                                                                                                  #  HPER          PERIGEE ALTITUDE
000078:                                                                                                  #  VGDISP        MAG.OF DELTAV FOR DISPLAY ,SCALING      B+7 M/CS EARTH
000079:                                                                                                  #                MAG.OF DELTAV FOR DISPLAY, SCALING      B+5 M/CS MOON
000080:                                                                                                  #  MIDGIM        MIDDLE GIMBAL ANGLE
000081:                                                                                                  #  XDELVFLG      RESETS XDELVFLG FOR LAMBERT VG COMPUTATIONS
000082:
000083:                                                                                                  #  ALARMS OR ABORTS      NONE **
000084:
000085:                                                                                                  #  RESTARTS ARE VIA GROUP 4 **
000086:
000087: 35,2000                                           SETLOC   GLM
000088: 35,2000                                           BANK
000089:
000090: 35,2414  E7,1466                                  EBANK=   SUBEXIT
000091:
000092: 35,2414                                           COUNT*   $$/P31
000093: 35,2414           02325        P31                TC       P20FLGON
000094: 35,2415           32025                           CAF      V06N33                                #  TIG
000095: 35,2416           03651                           TC       VNPOOH
000096: 35,2417           06036                           TC       INTPRET
000097: 35,2420           71214                           CLEAR    DLOAD
000098: 35,2421           00670                                    UPDATFLG
000099: 35,2422           03440                                    TIG
000100: 35,2423           34041                           STCALL   TDEC1                                 #  INTEGRATE STATE VECTORS TO TIG
000101: 35,2424           27057                                    LEMPREC
000102: 35,2425           40375                           VLOAD    SETPD
000103: 35,2426           00001                                    RATT
000104: 35,2427           00001                                    0D
000105: 35,2430           03640                           STORE    RTIG
000106: 35,2431           26327                           STOVL    RINIT
000107: 35,2432           00007                                    VATT
000108: 35,2433           03646                           STORE    VTIG
000109: 35,2434           16335                           STODL    VINIT
000110: 35,2435           32364                                    P30ZERO
000111: 35,2436           65206                           PUSH     PDDL                                  #  E4 AND NUMIT = 0
000112: 35,2437           03450                                    DELLT4
000113: 35,2440           66015                           DAD      SXA,1
000114: 35,2441           03440                                    TIG
000115: 35,2442           03375                                    RTX1
000116: 35,2443           03627                           STORE    TPASS4
000117: 35,2444           45134                           SXA,2    CALL
000118: 35,2445           03376                                    RTX2
000119: 35,2446           22000                                    INITVEL
000120: 35,2447           41575                           VLOAD    PUSH


000122: 35,2450           03366                                    DELVEET3
000123: 35,2451           03654                           STORE    DELVSIN
000124: 35,2452           43046                           ABVAL    CLEAR
000125: 35,2453           01267                                    XDELVFLG
000126: 35,2454           37662                           STCALL   VGDISP
000127: 35,2455           20021                                    GET.LVC
000128: 35,2456           63375                           VLOAD    PDVL
000129: 35,2457           03640                                    RTIG
000130: 35,2460           02343                                    VIPRIME
000131: 35,2461           77624                           CALL
000132: 35,2462           46277                                    PERIAPO1
000133: 35,2463           77624                           CALL
000134: 35,2464           46407                                    SHIFTR1
000135: 35,2465           77624                           CALL                                           #  LIMIT DISPLAY TO 9999.9 N. MI.
000136: 35,2466           45636                                    MAXCHK
000137: 35,2467           16325                           STODL    HPER
000138: 35,2470           00005                                    4D
000139: 35,2471           77624                           CALL
000140: 35,2472           46407                                    SHIFTR1
000141: 35,2473           77624                           CALL                                           #  LIMIT DISPLAY TO 9999.9 N. MI.
000142: 35,2474           45636                                    MAXCHK
000143: 35,2475           02323                           STORE    HAPO
000144: 35,2476           77776                           EXIT
000145: 35,2477           33666                           CAF      V06N81                                #  DELVLVC
000146: 35,2500           03651                           TC       VNPOOH
000147: 35,2501           32026                           CAF      V06N42                                #  HAPO, HPER, VGDISP
000148: 35,2502           03651                           TC       VNPOOH
000149: 35,2503           06036                           TC       INTPRET
000150: 35,2504           45014        REVN1645           SET      CALL                                  #  TRKMKCNT, TTOGO, +MGA
000151: 35,2505           01071                                    FINALFLG
000152: 35,2506           73542                                    VN1645
000153: 35,2507           77650                           GOTO
000154: 35,2510           72504                                    REVN1645

End of include-file GENERAL_LAMBERT_AIMPOINT_GUIDANCE.agc.  Parent file is MAIN.agc


