
Source Code


000002:                                                                                                  ## Copyright:   Public domain.
000003:                                                                                                  ## Filename:    GIMBAL_LOCK_AVOIDANCE.agc
000004:                                                                                                  ## Purpose:     A section of LUM69 revision 2.
000005:                                                                                                  ##              It is part of the reconstructed source code for the flown
000006:                                                                                                  ##              version of the flight software for the Lunar Module's (LM)
000007:                                                                                                  ##              Apollo Guidance Computer (AGC) for Apollo 10. The code has
000008:                                                                                                  ##              been recreated from a copy of Luminary revsion 069, using
000009:                                                                                                  ##              changes present in Luminary 099 which were described in
000010:                                                                                                  ##              Luminary memos 75 and 78. The code has been adapted such
000011:                                                                                                  ##              that the resulting bugger words exactly match those specified
000012:                                                                                                  ##              for LUM69 revision 2 in NASA drawing 2021152B, which gives
000013:                                                                                                  ##              relatively high confidence that the reconstruction is correct.
000014:                                                                                                  ## Reference:   p.  377
000015:                                                                                                  ## Assembler:   yaYUL
000016:                                                                                                  ## Contact:     Ron Burkey <info@sandroid.org>.
000017:                                                                                                  ## Website:     www.ibiblio.org/apollo/index.html
000018:                                                                                                  ## Mod history: 2019-07-27 MAS  Created from Luminary 69.
000019:


000021: 15,2050                                           BANK     15
000022:
000023: 22,2000                                           SETLOC   KALCMON1
000024: 22,2000                                           BANK
000025:
000026:                                                                                                  #  DETECTING GIMBAL LOCK
000027: 22,2744  22,2744               LOCSKIRT           EQUALS   NOGIMLOC
000028:
000029: 22,2744           77614        NOGIMLOC           SET
000030: 22,2745           01074                                    CALCMAN3
000031: 22,2746           70740        WCALC              LXC,1    DLOAD*
000032: 22,2747           01325                                    RATEINDX                              #  CHOOSE THE DESIRED MANEUVER RATE
000033: 22,2750           04772                                    ARATE,1                               #  FROM A LIST OF FOUR
000034: 22,2751           45002                           SR4      CALL                                  #  COMPUTE THE INCREMENTAL ROTATION MATRIX
000035: 22,2752           44527                                    DELCOMP                               #  DEL CORRESPONDING TO A 1 SEC ROTATION
000036:                                                                                                  #  ABOUT COF
000037: 22,2753           74343                           DLOAD*   VXSC
000038: 22,2754           04772                                    ARATE,1
000039: 22,2755           03267                                    COF
000040: 22,2756           17324                           STODL    BRATE                                 #  COMPONENT MANEUVER RATES 45 DEG/SEC
000041: 22,2757           03334                                    AM
000042: 22,2760           55605                           DMP      DDV*
000043: 22,2761           05002                                    ANGLTIME
000044: 22,2762           04772                                    ARATE,1
000045: 22,2763           77661                           SR
000046: 22,2764           20606                                    5
000047: 22,2765           03332                           STORE    TM                                    #  MANEUVER EXECUTION TIME SCALED AS T2
000048: 22,2766           77614                           SETGO
000049: 22,2767           01035                                    CALCMAN2                              #  0(OFF) = CONTINUE MANEUVER
000050: 22,2770           45010                                    NEWANGL    +1                         #  1(ON) = START MANEUVER
000051:
000052:                                                                                                  #  THE FOUR SELECTABLE FREE FALL MANEUVER RATES SELECTED BY
000053:                                                                                                  #  LOADING RATEINDX WITH 0, 2, 4, 6, RESPECTIVELY
000054:
000055: 22,2771           00221 24255  ARATE              2DEC     .0088888888                            #  = 0.2 DEG/SEC         $ 22.5 DEG/SEC
000056:
000057: 22,2773           00554 02660                     2DEC     .0222222222                            #  = 0.5 DEG/SEC         $ 22.5 DEG/SEC
000058:
000059: 22,2775           02660 13301                     2DEC     .0888888888                            #  = 2.0 DEG/SEC         $ 22.5 DEG/SEC
000060:
000061: 22,2777           16161 30707                     2DEC     .4444444444                            #  = 10.0 DEG/SEC        $ 22.5 DEG/SEC
000062:
000063: 22,3001           00003 04000  ANGLTIME           2DEC     .0001907349                            #  = 100B-19 FUDGE FACTOR TO CONVERT
000064:                                                                                                  #  MANEUVER ANGLE TO MANEUVER TIME
000065:
000066:

End of include-file GIMBAL_LOCK_AVOIDANCE.agc.  Parent file is MAIN.agc


