
Source Code


000002:                                                                                                  ## Copyright:   Public domain.
000003:                                                                                                  ## Filename:    GROUND_TRACKING_DETERMINATION_PROGRAM_-_P21.agc
000004:                                                                                                  ## Purpose:     A section of LUM69 revision 2.
000005:                                                                                                  ##              It is part of the reconstructed source code for the flown
000006:                                                                                                  ##              version of the flight software for the Lunar Module's (LM)
000007:                                                                                                  ##              Apollo Guidance Computer (AGC) for Apollo 10. The code has
000008:                                                                                                  ##              been recreated from a copy of Luminary revsion 069, using
000009:                                                                                                  ##              changes present in Luminary 099 which were described in
000010:                                                                                                  ##              Luminary memos 75 and 78. The code has been adapted such
000011:                                                                                                  ##              that the resulting bugger words exactly match those specified
000012:                                                                                                  ##              for LUM69 revision 2 in NASA drawing 2021152B, which gives
000013:                                                                                                  ##              relatively high confidence that the reconstruction is correct.
000014:                                                                                                  ## Reference:   pp. 664-666
000015:                                                                                                  ## Assembler:   yaYUL
000016:                                                                                                  ## Contact:     Ron Burkey <info@sandroid.org>.
000017:                                                                                                  ## Website:     www.ibiblio.org/apollo/index.html
000018:                                                                                                  ## Mod history: 2019-07-27 MAS  Created from Luminary 69.
000019:


000021:                                                                                                  #  GROUND TRACKING DETERMINATION PROGRAM P21
000022:                                                                                                  #  PROGRAM DESCRIPTION
000023:                                                                                                  #  MOD NO - 1
000024:                                                                                                  #  MOD BY - N. M. NEVILLE
000025:
000026:                                                                                                  #  FUNCTIONAL DECRIPTION -
000027:
000028:                                                                                                  #  TO PROVIDE THE ASTRONAUT DETAILS OF THE LM OR CSM GROUND TRACK WITHOUT
000029:                                                                                                  #  THE NEED FOR GROUND COMMUNICATION (REQUESTED BY DSKY).
000030:                                                                                                  #  CALLING SEQUENCE -
000031:
000032:                                                                                                  #        ASTRONAUT REQUEST THROUGH DSKY V37E21E
000033:                                                                                                  #  SUBROUTINES CALLED -
000034:
000035:                                                                                                  #  GOPERF4
000036:                                                                                                  #  GOFLASH
000037:                                                                                                  #  THISPREC
000038:                                                                                                  #  OTHPREC
000039:                                                                                                  #  LAT-LONG
000040:
000041:                                                                                                  #  NORMAL EXIT MODES -
000042:
000043:                                                                                                  #  ASTRONAUT REQUEST TROUGH DSKY TO TERMINATE PROGRAM V34E
000044:                                                                                                  #  ALARM OR ABORT EXIT MODES -
000045:
000046:                                                                                                  #  NONE
000047:                                                                                                  #  OUTPUT -
000048:
000049:                                                                                                  #  OCTAL DISPLAY OF OPTION CODE AND VEHICLE WHOSE GROUND TRACK IS TO BE
000050:                                                                                                  #  COMPUTED
000051:                                                                                                  #        OPTION CODE     00002
000052:                                                                                                  #        THIS            00001
000053:                                                                                                  #        OTHER           00002
000054:                                                                                                  #  DECIMAL DISPLAY OF TIME TO BE INTEGRATED TO HOURS , MINUTES , SECONDS
000055:                                                                                                  #  DECIMAL DISPLAY OF LAT,LONG,ALT
000056:
000057:                                                                                                  #  ERASABLE INITIALIZATION REQUIRED
000058:
000059:                                                                                                  #  AX0           2DEC    4.652459653 E-5 RADIANS         %68-69 CONSTANTS"
000060:
000061:                                                                                                  #  -AY0          2DEC    2.147535898 E-5 RADIANS
000062:
000063:                                                                                                  #  AZ0           2DEC    .7753206164     REVOLUTIONS
000064:                                                                                                  #  FOR LUNAR ORBITS 504LM VECTOR IS NEEDED
000065:
000066:                                                                                                  #  504LM         2DEC    -2.700340600 E-5 RADIANS
000067:
000068:                                                                                                  #  504LM _2      2DEC    -7.514128400 E-4 RADIANS
000069:
000070:                                                                                                  #  504LM _4      2DEC    _2.553198641 E-4 RADIANS
000071:
000072:                                                                                                  #  NONE
000073:                                                                                                  #  DEBRIS


000075:
000076:                                                                                                  #  CENTRALS-A,Q,L
000077:                                                                                                  #  OTHER - THOSE USED BY THE ABOVE LISTED SUBROUTINES
000078:                                                                                                  #  SEE LEMPREC, LAT-LONG
000079:
000080: 35,2511  30,2000                                  SBANK=   LOWSUPER                              #  FOR LOW 2CADR'S.
000081:
000082: 33,2200                                           BANK     33
000083: 24,2000                                           SETLOC   P20S
000084: 24,2000                                           BANK
000085:
000086: 24,3402  E7,1756                                  EBANK=   P21TIME
000087: 24,3402                                           COUNT*   $$/P21
000088: 24,3402           34753        PROG21             CAF      ONE
000089: 24,3403           55145                           TS       OPTION2                               #  ASSUMED VEHICLE IS LM, R2 = 00001
000090: 24,3404           34752                           CAF      BIT2                                  #  OPTION 2
000091: 24,3405           04616                           TC       BANKCALL
000092: 24,3406           20506                           CADR     GOPERF4
000093: 24,3407           06001                           TC       GOTOPOOH                              #  TERMINATE
000094: 24,3410           03412                           TC       +2                                    #  PROCEED VALUE OF ASSUMED VEHICLE OK
000095: 24,3411           03404                           TC       -5                                    #  R2 LOADED THROUGH DSKY
000096: 24,3412           33503        P21PROG1           CAF      V6N34                                 #  LOAD DESIRED TIME OF LAT-LONG.
000097: 24,3413           04616                           TC       BANKCALL
000098: 24,3414           20351                           CADR     GOFLASH
000099: 24,3415           06001                           TC       GOTOPOOH                              #  TERM
000100: 24,3416           03420                           TC       +2                                    #  PROCEED VALUES OK
000101: 24,3417           03412                           TC       -5                                    #  TIME LOADED THROUGH DSKY
000102: 24,3420           06036                           TC       INTPRET
000103: 24,3421           77745                           DLOAD
000104: 24,3422           01046                                    DSPTEM1
000105: 24,3423           03757                           STORE    P21TIME
000106: 24,3424           45335                           SLOAD    DSU
000107: 24,3425           01146                                    OPTION2
000108: 24,3426           11501                                    P21ONENN
000109: 24,3427           71230                           BHIZ     DLOAD
000110: 24,3430           51443                                    P21PROG2                              #  VEHICLE TO BE INTEGRATED IS LEM
000111: 24,3431           03757                                    P21TIME                               #  VEHICLE TO BE INTEGRATED IS CSM
000112: 24,3432           34041                           STCALL   TDEC1                                 #  INTEGRATE TO TIME SPECIFIED IN TDEC
000113: 24,3433           27043                                    OTHPREC                               #  ADJUST UNITS FOR LAT-LONG ROUTINE
000114: 24,3434           46135        P21PROGA           SLOAD    BHIZ
000115: 24,3435           00050                                    X2
000116: 24,3436           51451                                    P21PROG3
000117: 24,3437           43175                           VLOAD    SETGO
000118: 24,3440           00001                                    RATT
000119: 24,3441           01423                                    LUNAFLAG
000120: 24,3442           51454                                    P21PROG4
000121: 24,3443           77745        P21PROG2           DLOAD
000122: 24,3444           03757                                    P21TIME
000123: 24,3445           34041                           STCALL   TDEC1
000124: 24,3446           27057                                    THISPREC
000125: 24,3447           77650                           GOTO


000127: 24,3450           51434                                    P21PROGA
000128: 24,3451           43175        P21PROG3           VLOAD    CLEAR
000129: 24,3452           00001                                    RATT
000130: 24,3453           01663                                    LUNAFLAG
000131: 24,3454           16032        P21PROG4           STODL    ALPHAV
000132: 24,3455           00015                                    TAT
000133: 24,3456           45014                           CLEAR    CALL
000134: 24,3457           00662                                    ERADFLAG
000135: 24,3460           26351                                    LAT-LONG
000136: 24,3461           77776                           EXIT
000137: 24,3462           33502                           CAF      V06N43                                #  DISPLAY LAT,LONG,ALT
000138: 24,3463           04616                           TC       BANKCALL                              #  LAT,LONG = 1/2 REVS B0
000139: 24,3464           20351                           CADR     GOFLASH                               #  ALT = KM B14
000140: 24,3465           06001                           TC       GOTOPOOH                              #  TERM
000141: 24,3466           06001                           TC       GOTOPOOH
000142: 24,3467           06036                           TC       INTPRET                               #  V32E RECYCLE
000143: 24,3470           43345                           DLOAD    DAD
000144: 24,3471           03757                                    P21TIME
000145: 24,3472           11477                                    600SEC                                #  600 SECONDS OR 10 MIN
000146: 24,3473           01046                           STORE    DSPTEM1
000147: 24,3474           77634                           RTB
000148: 24,3475           51412                                    P21PROG1
000149: 24,3476           00003 25140  600SEC             2DEC     60000      B-28                       #  10 MIN
000150:
000151: 24,3500           00001        P21ONENN           OCT      00001                                 #  NEEDED TO DETERMINE VEHICLE
000152: 24,3501           00000                           OCT      00000                                 #  TO BE INTEGRATED
000153: 24,3502           01453        V06N43             VN       00643
000154: 24,3503           01442        V6N34              VN       00634
000155:
000156:

End of include-file GROUND_TRACKING_DETERMINATION_PROGRAM_-_P21.agc.  Parent file is MAIN.agc


