
Source Code


000002:                                                                                                  ## Copyright:   Public domain.
000003:                                                                                                  ## Filename:    INTERPRETIVE_CONSTANTS.agc
000004:                                                                                                  ## Purpose:     A section of LUM69 revision 2.
000005:                                                                                                  ##              It is part of the reconstructed source code for the flown
000006:                                                                                                  ##              version of the flight software for the Lunar Module's (LM)
000007:                                                                                                  ##              Apollo Guidance Computer (AGC) for Apollo 10. The code has
000008:                                                                                                  ##              been recreated from a copy of Luminary revsion 069, using
000009:                                                                                                  ##              changes present in Luminary 099 which were described in
000010:                                                                                                  ##              Luminary memos 75 and 78. The code has been adapted such
000011:                                                                                                  ##              that the resulting bugger words exactly match those specified
000012:                                                                                                  ##              for LUM69 revision 2 in NASA drawing 2021152B, which gives
000013:                                                                                                  ##              relatively high confidence that the reconstruction is correct.
000014:                                                                                                  ## Reference:   pp. 1095-1096
000015:                                                                                                  ## Assembler:   yaYUL
000016:                                                                                                  ## Contact:     Ron Burkey <info@sandroid.org>.
000017:                                                                                                  ## Website:     www.ibiblio.org/apollo/index.html
000018:                                                                                                  ## Mod history: 2019-07-27 MAS  Created from Luminary 69.
000019:


000021: 23,2000                                           SETLOC   INTPRET1
000022: 23,2000                                           BANK
000023:
000024: 23,2413                                           COUNT*   $$/ICONS
000025: 23,2413           10000 00000  DP1/4TH            2DEC     .25
000026:
000027: 23,2415           00000 00000  UNITZ              2DEC     0          B-28
000028:
000029: 23,2417           00000 00000  UNITY              2DEC     0          B-28
000030:
000031: 23,2421           20000 00000  UNITX              2DEC     .5
000032:
000033: 23,2423           00000 00000  ZEROVECS           2DEC     0          B-28
000034:
000035: 23,2425           00000 00000                     2DEC     0          B-28
000036:
000037: 23,2427           00000 00000                     2DEC     0          B-28
000038:
000039: 23,2431  23,2421               DPHALF             =        UNITX
000040: 23,2431           37777        DPPOSMAX           OCT      37777
000041: 23,2432           37777                           OCT      37777
000042:


000044:                                                                                                  #  INTERPRETIVE CONSTANTS IN THE OTHER HALF-MEMORY
000045:
000046: 11,2000                                           SETLOC   INTPRET2
000047: 11,2000                                           BANK
000048:
000049: 11,2266                                           COUNT*   $$/ICONS
000050: 11,2266           00000 00000  ZUNIT              2DEC     0          B-28
000051:
000052: 11,2270           00000 00000  YUNIT              2DEC     0          B-28
000053:
000054: 11,2272           20000 00000  XUNIT              2DEC     .5
000055:
000056: 11,2274           00000 00000  ZEROVEC            2DEC     0          B-28
000057:
000058: 11,2276           00000 00000                     2DEC     0          B-28
000059:
000060: 11,2300           00000 00000                     2DEC     0          B-28
000061:
000062: 11,2302           77777                           OCT      77777                                 #  -0, -6, -12 MUST REMAIN IN THIS ORDER
000063: 11,2303           77771        DFC-6              DEC      -6         B-14
000064: 11,2304           77763        DFC-12             DEC      -12        B-14
000065: 11,2305           37777 37777  LODPMAX            2OCT     3777737777                            #  THESE TWO CONSTANTS MUST REMAIN
000066:
000067: 11,2307           37777 37777  LODPMAX1           2OCT     3777737777                            #  ADJACENT AND THE SAME FOR INTEGRATION
000068:
000069: 11,2311  11,2274               ZERODP             =        ZEROVEC
000070: 11,2311  11,2272               HALFDP             =        XUNIT
000071:
000072:

End of include-file INTERPRETIVE_CONSTANTS.agc.  Parent file is MAIN.agc


