
Source Code


000002:                                                                                                  ## Copyright:   Public domain.
000003:                                                                                                  ## Filename:    INTERPRETER.agc
000004:                                                                                                  ## Purpose:     A section of LUM69 revision 2.
000005:                                                                                                  ##              It is part of the reconstructed source code for the flown
000006:                                                                                                  ##              version of the flight software for the Lunar Module's (LM)
000007:                                                                                                  ##              Apollo Guidance Computer (AGC) for Apollo 10. The code has
000008:                                                                                                  ##              been recreated from a copy of Luminary revsion 069, using
000009:                                                                                                  ##              changes present in Luminary 099 which were described in
000010:                                                                                                  ##              Luminary memos 75 and 78. The code has been adapted such
000011:                                                                                                  ##              that the resulting bugger words exactly match those specified
000012:                                                                                                  ##              for LUM69 revision 2 in NASA drawing 2021152B, which gives
000013:                                                                                                  ##              relatively high confidence that the reconstruction is correct.
000014:                                                                                                  ## Reference:   pp. 997-1089
000015:                                                                                                  ## Assembler:   yaYUL
000016:                                                                                                  ## Contact:     Ron Burkey <info@sandroid.org>.
000017:                                                                                                  ## Website:     www.ibiblio.org/apollo/index.html
000018:                                                                                                  ## Mod history: 2019-07-27 MAS  Created from Luminary 69.
000019:


000021:                                                                                                  #  SECTION 1  DISPATCHER
000022:
000023:                                                                                                  #           ENTRY TO THE INTERPRETER. INTPRET SETS LOC TO THE FIRST  INSTRUCTION, BANKSET TO THE BBANK OF THE
000024:                                                                                                  #  OBJECT INTERPRETIVE PROGRAM, AND INTBIT15 TO THE BIT15 CONTENTS OF FBANK. INTERPRETIVE PROGRAMS MAY BE IN
000025:                                                                                                  #  VIRTUALLY ALL BANKS PRESENT UNDER ANY SUPER-BANK SETTING, WITH THE RESTRICTION THAT PROGRAMS IN HIGH BANKS
000026:                                                                                                  #  (BIT15 OF FBANK = 1) DO NOT REFER TO LOWBANKS, AND VICE-VERSA. THE INTERPRETER DOES NOT SWITCH SUPERBANKS.
000027:                                                                                                  #  E-BANK SWITCHING OCCURS WHENEVER GENERAL ERASABLE (100 - 3777) IS ADDRESSED.
000028:
000029:    6036                                           BLOCK    03
000030:
000031:    6036                                           COUNT*   $$/INTER
000032:    6036           00003        INTPRET            RELINT
000033:    6037           00006                           EXTEND                                         #  SET LOC TO THE WORD FOLLOWING THE TC.
000034:    6040           22164                           QXCH     LOC
000035:
000036:    6041           30006                 +2        CA       BBANK                                 #  INTERPRETIVE BRANCHES FINISH HERE.
000037:    6042           54165                           TS       BANKSET
000038:    6043           74735                           MASK     BIT15                                 #  GET 15TH BIT FOR INDEXABLE ADDRESSES.
000039:    6044           54115                           TS       INTBIT15
000040:
000041:    6045           54023                           TS       EDOP                                  #  MAKE SURE NO INSTRUCTIONS LEFT OVER
000042:
000043:    6046           16067                           TCF      NEWOPS                                #  PICK UP OP CODE PAIR AND BEGIN.
000044:
000045:
000046:    6047           22006        INTRSM             LXCH     BBANK                                 #  RESUME SUSPENDED INTERPRETIVE JOB
000047:    6050           16041                           TCF      INTPRET    +3
000048:                                                                                                  #           DLOAD LOADS MPAC, MPAC +1, LEAVING ZERO IN MPAC +2.
000049:
000050:    6051           00006        DLOAD              EXTEND
000051:    6052           50116                           INDEX    ADDRWD
000052:    6053           30001                           DCA      0                                     #  LOAD DP C(C(ADDRWD)) INTO MPAC,MPAX +1
000053:    6054           52155        SLOAD2             DXCH     MPAC
000054:    6055           34755                           CAF      ZERO                                  #  ZERO MPAC +2
000055:


000057:                                                                                                  #           AT THE END OF MOST INSTRUCTIONS, CONTROL IS GIVEN TO DANZIG TO DISPATCH THE NEXT OPERATION.
000058:
000059:    6056           54156                           TS       MPAC       +2                         #  AND DECLARE DP MODE
000060:
000061:    6057           54163        NEWMODE            TS       MODE                                  #  PROLOGUE FOR MODE-CHANGING INSTRUCTIONS.
000062:
000063:    6060           30165        DANZIG             CA       BANKSET                               #  SET BBANK BEFORE TESTING NEWJOB SO THAT
000064:    6061           54006                           TS       BBANK                                 #  IT MAY BE SAVED DIRECTLY BY CHANJOB.
000065:
000066:    6062           10023        NOIBNKSW           CCS      EDOP                                  #  SEE IF AN ORDER CODE IS LEFT OVER FROM
000067:    6063           16076                           TCF      OPJUMP                                #  THE LAST PAIR RETRIEVED. IF SO, EXECUTE.
000068:                                                                                                  #  EDOP IS SET TO ZERO ON ITS RE-EDITING.
000069:
000070:    6064           10067                           CCS      NEWJOB                                #  SEE IF A JOB OF HIGHER PRIORITY IS
000071:    6065           15126                           TCF      CHANG2                                #  PRESENT, AND IF SO, CHANGE JOBS.
000072:
000073:    6066           24164                           INCR     LOC                                   #  ADVANCE THE LOCATION COUNTER.
000074:                                                                                                  #           ITRACE (1) REFERS TO "NEWOPS".
000075:    6067           50164        NEWOPS             INDEX    LOC                                   #  ENTRY TO BEGIN BY PICKING OP CODE PAIR.
000076:    6070           30000                           CA       0                                     #  MAY BE AN OPCODE PAIR OR A STORE CODE.
000077:    6071           10000                           CCS      A                                     #  TEST SIGN AND GET DABS(A).
000078:    6072           16361                           TCF      DOSTORE                               #  PROCESS STORE CODE.
000079:
000080:    6073           00177        LOW7               OCT      177
000081:
000082:    6074           54023                           TS       EDOP                                  #  OP CODE PAIR. LEAVE THE OTHER IN EDOP
000083:    6075           76073                           MASK     LOW7                                  #  WHERE  CCS EDOP  WILL HONOR IT NEXT.
000084:
000085:    6076           54020        OPJUMP             TS       CYR                                   #  LOWWD ENTERS HERE IF A RIGHT-HAND OP
000086:    6077           10020                           CCS      CYR                                   #  CODE IS TO BE PROCESSED. TEST PREFICES.
000087:    6100           16246                           TCF      OPJUMP2                               #  TEST SECOND PREFIX BIT.
000088:
000089:    6101           16742                           TCF      EXIT                                  #  +0 OP CODE IS EXIT.
000090:


000092:                                                                                                  #           PROCESS ADDRESSES WHICH MAY BE DIRECT, INDEXED, OR REFERENCE THE PUSHDOWN LIST.
000093:
000094:    6102           74753        ADDRESS            MASK     BIT1                                  #  SEE IF ADDRESS IS INDEXED. CYR CONTAINED
000095:    6103           10000                           CCS      A                                     #  400XX, SO BIT 1 IS NOW AS IT WAS IN CYR.
000096:    6104           16145                           TCF      INDEX                                 #  FORM INDEXED ADDRESS.
000097:
000098:    6105           50164        DIRADRES           INDEX    LOC                                   #  LOOK AHEAD TO NEXT WORD TO SEE IF
000099:    6106           40001        OCT40001           CS       1                                     #  ADDRESS IS GIVEN.
000100:    6107           10000                           CCS      A
000101:    6110           16214                           TCF      PUSHUP                                #  IF NOT.
000102:
000103:    6111           77773        NEG4               DEC      -4         B-14
000104:
000105:    6112           24164                           INCR     LOC                                   #  IF SO, TO SHOW WE PICKED UP A WORD.
000106:    6113           54116                           TS       ADDRWD
000107:


000109:                                                                                                  #           FINAL DIGESTION OF DIRECT ADDRESSES OF OP CODES WITH 01 PREFIX IS DONE HERE. IN EACH CASE, THE
000110:                                                                                                  #  REQUIRED 12-BIT SUB-ADDRESS IS LEFT IN ADDRWD, WITH ANY REQUIRED E OR F BANK SWITCHING DONE. ADDRESSES LESS
000111:                                                                                                  #  THAN 45D ARE TAKEN TO BE RELATIVE TO THE WORK AREA. THE OP CODE IS NOW IN BITS 1-5 OF CYR WITH BIT 14 = 1.
000112:
000113:
000114:    6114           66250                           AD       -ENDVAC                               #  SEE IF ADDRESS RELATIVE TO WORK AREA.
000115:    6115           10000                           CCS      A
000116:    6116           67742                           AD       -ENDERAS                              #  IF NOT, SEE IF IN GENERAL ERASABLE.
000117:    6117           16124                           TCF      IERASTST
000118:
000119:    6120           30120        NETZERO            CA       FIXLOC                                #  IF SO, LEAVE THE MODIFIED ADDRESS IN
000120:    6121           26116                           ADS      ADDRWD                                #  ADDRWD AND DISPATCH.
000121:    6122           50020        ITR15              INDEX    CYR                                   #  THIS INDEX MAKES THE NEXT INSTRUCTION
000122:    6123           76272                           7        INDJUMP    -1                         #  TCF INDJUMP + OP, EDITING CYR.
000123:
000124:    6124           00006        IERASTST           EXTEND
000125:    6125           66135                           BZMF     GEADDR                                #  GO PROCESS GENERAL-ERASABLE ADDRESS.
000126:
000127:    6126           75012                           MASK     LOW10                                 #  FIXED BANK ADDRESS. RESTORE AND ADD B15.
000128:    6127           65012                           AD       LOW10                                 #  SWITCH BANKS AND LEAVE SUBADDRESS IN
000129:    6130           56116                           XCH      ADDRWD                                #  ADDRWD FOR OPERAND RETRIEVAL. (THIS
000130:    6131           60115                           AD       INTBIT15                              #  METHOD PRECLUDES USE OF THE LAST
000131:    6132           54004                           TS       FBANK                                 #  LOCATION IN EACH FBANK.)
000132:    6133           50020        ITR12              INDEX    CYR
000133:    6134           76272                           7        INDJUMP    -1
000134:
000135:    6135           74357        GEADDR             MASK     LOW8
000136:    6136           65007                           AD       OCT1400
000137:    6137           56116                           XCH      ADDRWD
000138:    6140           54003                           TS       EBANK
000139:    6141           50020        ITR10              INDEX    CYR
000140:    6142           76272                           7        INDJUMP    -1
000141:


000143:                                                                                                  #           THE FOLLOWING ROUTINE PROCESSES INTERPRETIVE INDEXED ADDRESSES. AN INTERPRETER INDEX REGISTER MAY
000144:                                                                                                  #  CONTAIN THE ADDRESS OF ANY ERASABLE REGISTER (0-42 BEING RELATIVE TO THE VAC AREA) OR ANY INTERPRETIVE PROGRAM
000145:                                                                                                  #  BANK, OR ANY INTEGER IN THAT RANGE.
000146:
000147:    6143           37732        DODLOAD*           CAF      DLOAD*                                #  STODL* COMES HERE TO PROCESS LOAD ADR.
000148:    6144           54020                           TS       CYR                                   #  (STOVL* ENTERS HERE).
000149:
000150:    6145           30120        INDEX              CA       FIXLOC                                #  SET UP INDEX LOCATION.
000151:    6146           54130                           TS       INDEXLOC
000152:    6147           24164                           INCR     LOC                                   #  (ADDRESS ALWAYS GIVEN).
000153:    6150           50164                           INDEX    LOC
000154:    6151           40000                           CS       0
000155:    6152           10000                           CCS      A                                     #  INDEX 2 IF ADDRESS STORED COMPLEMENTED.
000156:    6153           24130                           INCR     INDEXLOC
000157:    6154           16155                           NOOP
000158:
000159:    6155           54116                           TS       ADDRWD                                #  14 BIT ADDRESS TO ADDRWD.
000160:    6156           77741                           MASK     HIGH4                                 #  IF ADDRESS GREATER THAN 2K, ADD INTBIT15
000161:    6157           00006                           EXTEND
000162:    6160           16163                           BZF      INDEX2
000163:    6161           30115                           CA       INTBIT15
000164:    6162           26116                           ADS      ADDRWD
000165:
000166:    6163           50130        INDEX2             INDEX    INDEXLOC
000167:    6164           40046                           CS       X1
000168:    6165           26116                           ADS      ADDRWD                                #  DO AUGMENT, IGNORING AND CORRECTING OVF.
000169:
000170:    6166           77743                           MASK     HIGH9                                 #  SEE IF ADDRESS IS IN WORK AREA.
000171:    6167           00006                           EXTEND
000172:    6170           16203                           BZF      INDWORK
000173:    6171           77741                           MASK     HIGH4                                 #  SEE IF IN FIXED BANK.
000174:    6172           00006                           EXTEND
000175:    6173           16205                           BZF      INDERASE
000176:
000177:    6174           30116                           CA       ADDRWD                                #  IN FIXED - SWITCH BANKS AND CREATE
000178:    6175           54004                           TS       FBANK                                 #  SUB-ADDRESS.
000179:    6176           75012                           MASK     LOW10
000180:    6177           64741                           AD       2K
000181:    6200           54116                           TS       ADDRWD
000182:    6201           50020        ITR11              INDEX    CYR
000183:    6202           36272                           3        INDJUMP    -1
000184:
000185:    6203           30120        INDWORK            CA       FIXLOC                                #  MAKE ADDRWD RELATIVE TO WORK AREA.
000186:    6204           16211                           TCF      ITR13      -1
000187:
000188:    6205           35007        INDERASE           CA       OCT1400
000189:    6206           56116                           XCH      ADDRWD
000190:    6207           54003                           TS       EBANK
000191:    6210           74357                           MASK     LOW8
000192:    6211           26116                 -1        ADS      ADDRWD


000194:    6212           50020        ITR13              INDEX    CYR
000195:    6213           36272                           3        INDJUMP    -1
000196:


000198:                                                                                                  #           PUSH-UP ROUTINES. WHEN NO OPERAND ADDRESS IS GIVEN, THE APPROPRIATE OPERAND IS TAKEN FROM THE PUSH-DOWN
000199:                                                                                                  #  LIST. IN MOST CASES THE MODE OF THE RESULT (VECTOR OR SCALAR) OF THE LAST ARITHMETIC OPERATION PERFORMED
000200:                                                                                                  #  IS THE SAME AS THE TYPE OF OPERAND DESIRED (ALL ADD/SUBTRACT ETC.). EXCEPTIONS TO THIS GENERAL RULE ARE LISTED
000201:                                                                                                  #  BELOW (NOTE THAT IN EVERY CASE THE MODE REGISTER IS LEFT INTACT):
000202:
000203:                                                                                                  #           1.  VXSC AND V/SC WANT THE OPPOSITE TYPE OF OPERAND, E.G., IF THE LAST OPERATION YIELDED A VECTOR
000204:                                                                                                  #  RESULT, VXSC WANTS A SCALAR.
000205:
000206:                                                                                                  #           2.  THE LOAD CODES SHOULD LOAD THE ACCUMULATOR INDEPENDENT OF THE RESULT OF THE LAST OPERATION. THIS
000207:                                                                                                  #  INCLUDES VLOAD, DLOAD, TLOAD, PDDL, AND PDVL (NO PUSHUP WITH SLOAD).
000208:
000209:                                                                                                  #           3.  SOME ARITHMETIC OPERATIONS REQUIRE A STANDARD TYPE OF OPERAND REGARDLESS OF THE PREVIOUS OPERATION.
000210:                                                                                                  #  THIS INCLUDES SIGN WANTING DP AND TAD REQUIRING TP.
000211:
000212:    6214           34360        PUSHUP             CAF      OCT23                                 #  IF THE LOW 5 BITS OF CYR ARE LESS THAN
000213:    6215           70020                           MASK     CYR                                   #  20, THIS OP REQUIRES SPECIAL ATTENTION.
000214:    6216           66221                           AD       -OCT10                                #  (NO -0).
000215:    6217           10000                           CCS      A
000216:    6220           16232                           TCF      REGUP                                 #  FOR ALL CODES GREATER THAN OCT 7.
000217:
000218:    6221           77767        -OCT10             OCT      -10
000219:
000220:    6222           66111                           AD       NEG4                                  #  WE NOW HAVE 7 - OP CODE(MOD4). SEE IF
000221:    6223           10000                           CCS      A                                     #  THE OP CODE (MOD4) IS THREE (REVERSE).
000222:    6224           50000                           INDEX    A                                     #  NO - THE MODE IS DEFINITE. PICK UP THE
000223:    6225           46243                           CS       NO.WDS
000224:    6226           16234                           TCF      REGUP      +2
000225:
000226:    6227           50163                           INDEX    MODE                                  #  FOR VXSC AND V/SC WE WANT THE REQUIRED
000227:    6230           46241                           CS       REVCNT                                #  PUSHLOC DECREMENT WITHOUT CHANGING THE
000228:    6231           16234                           TCF      REGUP      +2                         #  MODE AT THIS TIME.
000229:
000230:    6232           50163        REGUP              INDEX    MODE                                  #  MOST ALL OP CODES PUSHUP HERE.
000231:    6233           46243                           CS       NO.WDS
000232:    6234           26166                 +2        ADS      PUSHLOC
000233:    6235           54116                           TS       ADDRWD
000234:    6236           50020        ITR14              INDEX    CYR
000235:    6237           76272                           7        INDJUMP    -1                         #  (THE INDEX MAKES THIS A TCF.)
000236:
000237:    6240           00002                           OCT      2                                     #  REVERSE PUSHUP DECREMENT. VECTOR TAKES 2
000238:    6241           00006        REVCNT             OCT      6                                     #  WORDS, SCALAR TAKES 6.
000239:    6242           00006                           OCT      6
000240:    6243           00002        NO.WDS             OCT      2                                     #  CONVENTIONAL DECREMENT IS 6 WORDS VECTOR
000241:    6244           00003        OCTAL3             OCT      3                                     #  2 IN DP, AND 3 IN TP.
000242:    6245           00006                           OCT      6
000243:


000245:                                                                                                  #           TEST THE SECOND PREFIX BIT TO SEE IF THIS IS A MISCELLANEOUS OR A UNARY/SHORT SHIFT OPERATION.
000246:
000247:    6246           10020        OPJUMP2            CCS      CYR                                   #  TEST SECOND PREFIX BIT.
000248:    6247           16262                           TCF      OPJUMP3                               #  TEST THIRD BIT TO SEE IF UNARY OR SHIFT.
000249:
000250:    6250           77722        -ENDVAC            DEC      -45        B-14
000251:
000252:                                                                                                  #           THE FOLLOWING ROUTINE PROCESSES ADDRESSES OF SUFFIX CLASS 10. THEY ARE BASICALLY WORK AREA ADDRESSES
000253:                                                                                                  #  IN THE RANGE 0 - 52, ERASABLE ECADR CONSTANTS FROM 100 - 3777, AND FCADRS ABOVE THAT. ALL 15 BITS ARE AVAILABLE
000254:                                                                                                  #  IN CONTRAST TO SUFFIX 1, IN WHICH ONLY THE LOW ORDER 14 ARE AVAILABLE.
000255:
000256:    6251           24164        15BITADR           INCR     LOC                                   #  (ENTRY HERE FROM STCALL).
000257:    6252           50164                           INDEX    LOC                                   #  PICK UP ADDRESS WORD.
000258:    6253           30000                           CA       0
000259:    6254           54117                           TS       POLISH                                #  WE MAY NEED A SUBADDRESS LATER.
000260:
000261:    6255           35013                           CAF      LOW7+2K                               #  THESE INSTRUCTIONS ARE IN BANK 1.
000262:    6256           54004                           TS       FBANK
000263:    6257           70020                           MASK     CYR
000264:    6260           50000        ITR7               INDEX    A
000265:    6261           16333                           TCF      MISCJUMP
000266:


000268:                                                                                                  #           COMPLETE THE DISPATCHING OF UNARY AND SHORT SHIFT OPERATIONS.
000269:
000270:    6262           54004        OPJUMP3            TS       FBANK                                 #  CALL IN BANK 0 (BITS 11-15 OF A ARE 0.)
000271:                                                                                                  #           ITRACE (6) REFERS TO "OPJUMP3".
000272:    6263           10020                           CCS      CYR                                   #  TEST THIRD PREFIX BIT.
000273:    6264           50000                           INDEX    A                                     #  THE DECREMENTED UNARY CODE IS IN BITS
000274:    6265           12000                           TCF      UNAJUMP                               #  1-4 OF A (ZERO, EXIT, HAS BEEN DETECTED)
000275:
000276:    6266           10163                           CCS      MODE                                  #  ITS A SHORT SHIFT CODE. SEE IF PRESENT
000277:    6267           12017                           TCF      SHORTT                                #  SCALAR OR VECTOR.
000278:    6270           12017                           TCF      SHORTT
000279:    6271           12121                           TCF      SHORTV                                #  CALLS THE APPROPRIATE ROUTINE.
000280:
000281:
000282:    6272     4350               FBANKMSK           EQUALS   BANKMASK
000283:    6272           00122        LVBUF              ADRES    VBUF
000284:


000286:                                                                                                  #           THE FOLLOWING IS THE JUMP TABLE FOR OP CODES WHICH MAY HAVE INDEXABLE ADDRESSES OR MAY PUSH UP.
000287:
000288:    6273           16504        INDJUMP            TCF      VLOAD                                 #  00 - LOAD MPAC WITH A VECTOR.
000289:    6274           17070                           TCF      TAD                                   #  01 - TRIPLE PRECISION ADD TO MPAC.
000290:    6275           17654                           TCF      SIGN                                  #  02 - COMPLEMENT MPAC (V OR SC) IF X NEG.
000291:    6276           17400                           TCF      VXSC                                  #  03 - VECTOR TIMES SCALAR.
000292:    6277           16702                           TCF      CGOTO                                 #  04 - COMPUTED GO TO.
000293:    6300           16467                           TCF      TLOAD                                 #  05 - LOAD MPAC WITH TRIPLE PRECISION.
000294:    6301           16051                           TCF      DLOAD                                 #  06 - LOAD MPAC WITH A DP SCALAR.
000295:    6302           17623                           TCF      V/SC                                  #  07 - VECTOR DIVIDED BY SCALAR.
000296:
000297:    6303           16500                           TCF      SLOAD                                 #  10 - LOAD MPACIN SINGLE PRECISION.
000298:    6304           16617                           TCF      SSP                                   #  11 - SET SINGLE PRECISION INTO X.
000299:    6305           16522                           TCF      PDDL                                  #  12 - PUSH DOWN MPAC AND RE-LOAD IN DP.
000300:    6306           17333                           TCF      MXV                                   #  13 - MATRIX POST-MULTIPLIED BY VECTOR.
000301:    6307           16556                           TCF      PDVL                                  #  14 - PUSH DOWN AND VECTOR LOAD.
000302:    6310           16625                           TCF      CCALL                                 #  15 - COMPUTED CALL.
000303:    6311           17336                           TCF      VXM                                   #  16 - MATRIX PRE-MULTIPLIED BY VECTOR.
000304:    6312           17615                           TCF      TSLC                                  #  17 - NORMALIZE MPAC (SCALAR ONLY).
000305:
000306:    6313           17573                           TCF      DMPR                                  #  20 - DP MULTIPLY AND ROUND.
000307:    6314           17576                           TCF      DDV                                   #  21 - DP DIVIDE BY.
000308:    6315           17602                           TCF      BDDV                                  #  22 - DP DIVIDE INTO.
000309:    6316           17620                           TCF      GSHIFT                                #  23 - GENERAL SHIFT INSTRUCTION.
000310:    6317           16750                           TCF      VAD                                   #  24 - VECTOR ADD.
000311:    6320           16746                           TCF      VSU                                   #  25 - VECTOR SUBTRACT.
000312:    6321           17035                           TCF      BVSU                                  #  26 - VECTOR SUBTRACT FROM.
000313:    6322           17330                           TCF      DOT                                   #  27 - VECTOR DOT PRODUCT.
000314:
000315:    6323           17457                           TCF      VXV                                   #  30 - VECTOR CROSS PRODUCT.
000316:    6324           17424                           TCF      VPROJ                                 #  31 - VECTOR PROJECTION.
000317:    6325           17004                           TCF      DSU                                   #  32 - DP SUBTRACT.
000318:    6326           17061                           TCF      BDSU                                  #  33 - DP SUBTRACT FROM.
000319:    6327           16774                           TCF      DAD                                   #  34 - DP ADD.
000320:    6330           16330                           TCF      +0                                    #  35 - AVAILABLE
000321:    6331           17571                           TCF      DMP1                                  #  36 - DP MULTIPLY.
000322:    6332           17612                           TCF      SETPD                                 #  37 - SET PUSH DOWN POINTER (DIRECT ONLY)
000323:
000324:                                                                                                  #  CODES 10 AND 14 MUST NOT PUSH UP. CODE 04 MAY BE USED FOR VECTOR DECLARE BEFORE PUSHUP IF DESIRED.
000325:


000327:                                                                                                  #           THE FOLLOWING JUMP TABLE APPLIES TO INDEX, BRANCH, AND MISCELLANEOUS INSTRUCTIONS.
000328:
000329:    6333           12341        MISCJUMP           TCF      AXT                                   #  00 - ADDRESS TO INDEX TRUE.
000330:    6334           12346                           TCF      AXC                                   #  01 - ADDRESS TO INDEX COMPLEMENTED.
000331:    6335           12351                           TCF      LXA                                   #  02 - LOAD INDEX FROM ERASABLE.
000332:    6336           12355                           TCF      LXC                                   #  03 - LOAD INDEX FROM COMPLEMENT OF ERAS.
000333:    6337           12361                           TCF      SXA                                   #  04 - STORE INDEX IN ERASABLE.
000334:    6340           12367                           TCF      XCHX                                  #  05 - EXCHANGE INDEX WITH ERASABLE.
000335:    6341           12403                           TCF      INCR                                  #  06 - INCREMENT INDEX REGISTER.
000336:    6342           12412                           TCF      TIX                                   #  07 - TRANSFER ON INDEX.
000337:
000338:    6343           12375                           TCF      XAD                                   #  10 - INDEX REGISTER ADD FROM ERASABLE.
000339:    6344           12406                           TCF      XSU                                   #  11 - INDEX SUBTRACT FROM ERASABLE.
000340:    6345           12464                           TCF      BZE/GOTO                              #  12 - BRANCH ZERO AND GOTO.
000341:    6346           12471                           TCF      BPL/BMN                               #  13 - BRANCH PLUS AND BRANCH MINUS.
000342:    6347           12444                           TCF      RTB/BHIZ                              #  14 - RETURN TO BASIC AND BRANCH HI ZERO.
000343:    6350           12504                           TCF      CALL/ITA                              #  15 - CALL AND STORE QPRET.
000344:    6351           12513                           TCF      SW/                                   #  16 - SWITCH INSTRUCTIONS AND AVAILABLE.
000345:    6352           12454                           TCF      BOV(B)                                #  17 - BRANCH ON OVERFLOW TO BASIC OR INT.
000346:


000348:                                                                                                  #           THE FOLLOWING JUMP TABLE APPIES TO UNARY INSTRUCTIONS.
000349:
000350:    6353                                           COUNT*   $$/INTER
000351: 00,2000                                           BANK     0                                     #  00 - EXIT - DETECTED EARLIER.
000352: 00,2000           13207        UNAJUMP            TCF      SQRT                                  #  01 - SQUARE ROOT.
000353: 00,2001           13530                           TCF      SINE                                  #  02 - SIN.
000354: 00,2002           13517                           TCF      COSINE                                #  03 - COS.
000355: 00,2003           13610                           TCF      ARCSIN                                #  04 - ARC SIN.
000356: 00,2004           13612                           TCF      ARCCOS                                #  05 - ARC COS.
000357: 00,2005           13174                           TCF      DSQ                                   #  06 - DP SQUARE.
000358: 00,2006           12116                           TCF      ROUND                                 #  07 - ROUND TO DP.
000359:
000360: 00,2007           17667                           TCF      COMP                                  #  10 - COMPLEMENT VECTOR OR SCALAR.
000361: 00,2010           13232                           TCF      VDEF                                  #  11 - VECTOR DEFINE.
000362: 00,2011           13023                           TCF      UNIT                                  #  12 - UNIT VECTOR.
000363: 00,2012           13176                           TCF      ABVALABS                              #  13 - LENGTH OF VECTOR OR MAG OF SCALAR.
000364: 00,2013           13245                           TCF      VSQ                                   #  14 - SQUARE OF LENGTH OF VECTOR.
000365: 00,2014           16353                           TCF      STADR                                 #  15 - PUSH UP ON STORE CODE.
000366: 00,2015           13274                           TCF      RVQ                                   #  16 - RETURN VIA QPRET.
000367: 00,2016           13247                           TCF      PUSH                                  #  17 - PUSH MPAC DOWN.
000368:


000370:                                                                                                  #  SECTION 2  LOAD AND STORE PACKAGE.
000371:
000372:                                                                                                  #           A SET OF EIGHT STORE CODES IS PROVIDED AS THE PRIMARY METHOD OF STORING THE MULTI-PURPOSE
000373:                                                                                                  #  ACCUMULATOR (MPAC). IF IN THE DANZIG SECTION LOC REFERS TO AN ALGEBRAICALLY POSITIVE WORD, IT IS TAKEN AS A
000374:                                                                                                  #  STORE CODE WITH A CORRESPONDING ERASABLE ADDRESS. MOST OF THESE CODES ARE TWO ADDRESS, SPECIFYING THAT THE WORD
000375:                                                                                                  #  FOLLOWING THE STORE CODE IS TO BE USED AS AN ADDRESS FROM WHICH TO RE-LOAD MPAC. FOUR OPTIONS ARE AVAILABLE:
000376:
000377:                                                                                                  #           1. STORE               STORE MPAC. THE E ADDRESS MAY BE INDEXED.
000378:                                                                                                  #           2. STODL               STORE MPAC AND RE-LOAD IT IN DP WITH THE NEXT ADDRESS (THE LOAD MAY BE INDEXED).
000379:                                                                                                  #           3. STOVL               STORE MPAC AND RE-LOAD A VECTOR (AS ABOVE).
000380:                                                                                                  #           4. STCALL              STORE AND DO A CALL (BOTH ADDRESSES MUST BE DIRECT HERE).
000381:
000382:                                                                                                  #           STODL AND STOVL WILL TAKE FROM THE PUSH-DOWN LIST IF NO LOAD ADDRESS IS GIVEN.
000383:
000384:    6353                                           BLOCK    3
000385:
000386:    6353                                           COUNT*   $$/INTER
000387:    6353           30165        STADR              CA       BANKSET                               #  THE STADR CODE (PUSHUP UP ON STORE
000388:    6354           54004                           TS       FBANK                                 #  ADDRESS) ENTERS HERE.
000389:    6355           24164                           INCR     LOC
000390:    6356           50164        ITR1               INDEX    LOC                                   #  THE STORECODE WAS STORED COMPLEMENTED TO
000391:    6357           40000                           CS       0                                     #  MAKE IT LOOK LIKE AN OPCODE PAIR.
000392:    6360           67746                           AD       NEGONE                                #  (YUL CANT REMOVE 1 BECAUSE OF EARLY CCS)
000393:
000394:    6361           54116        DOSTORE            TS       ADDRWD
000395:    6362           74356                           MASK     LOW11                                 #  ENTRY FROM DISPATCHER. SAVE THE ERASABLE
000396:    6363           56116                           XCH      ADDRWD                                #  ADDRESS AND JUMP ON THE STORE CODE NO.
000397:    6364           77721                           MASK     B12T14
000398:    6365           00006                           EXTEND
000399:    6366           74747                           MP       BIT5                                  #  EACH TRANSFER VECTOR ENTRY IS TWO WORDS.
000400:    6367           50000                           INDEX    A
000401:    6370           16371                           TCF      STORJUMP
000402:


000404:                                                                                                  #           STORE CODE JUMP TABLE. CALLS THE APPROPRIATE STORING ROUTINE AND EXITS TO DANZIG OR TO ADDRESS WITH
000405:                                                                                                  #  A SUPPLIED OPERATION CODE.
000406:
000407:                                                                                                  #           STORE STORE,1 AND STORE,2 RETURN TO DANZIG, THUS RESETTING THE EBANK TO ITS STATE AT INTPRET.
000408:
000409:    6371           06421        STORJUMP           TC       STORE                                 #  STORE.
000410:    6372           16060                           TCF      DANZIG                                #  PICK UP NEW OP CODE(S).
000411:    6373           06413                           TC       STORE,1
000412:    6374           16060                           TCF      DANZIG
000413:    6375           06416                           TC       STORE,2
000414:    6376           16060                           TCF      DANZIG
000415:
000416:    6377           06421                           TC       STORE                                 #  STODL.
000417:    6400           16457                           TCF      DODLOAD
000418:
000419:    6401           06421                           TC       STORE                                 #  STODL WITH INDEXED LOAD ADDRESS.
000420:    6402           16143                           TCF      DODLOAD*
000421:
000422:    6403           06421                           TC       STORE                                 #  STOVL.
000423:    6404           16462                           TCF      DOVLOAD
000424:
000425:    6405           06421                           TC       STORE                                 #  STOVL WITH INDEXED LOAD ADDRESS.
000426:    6406           16465                           TCF      DOVLOAD*
000427:    6407           06421                           TC       STORE                                 #  STOTC.
000428:    6410           34766                           CAF      CALLCODE
000429:    6411           54020                           TS       CYR
000430:    6412           16251                           TCF      15BITADR                              #  GET A 15 BIT ADDRESS.
000431:


000433:                                                                                                  #           STORE CODE ADDRESS PROCESSOR.
000434:
000435:    6413           50120        STORE,1            INDEX    FIXLOC
000436:    6414           40046                           CS       X1
000437:    6415           16420                           TCF      PRESTORE
000438:
000439:    6416           50120        STORE,2            INDEX    FIXLOC
000440:    6417           40047                           CS       X2
000441:    6420           26116        PRESTORE           ADS      ADDRWD                                #  RESULTANT ADDRESS IS IN ERASABLE.
000442:
000443:    6421           40116        STORE              CS       ADDRWD
000444:    6422           64772                           AD       DEC45
000445:    6423           10000                           CCS      A                                     #  DOES THE ADDRESS POINT TO THE WORK AREA?
000446:    6424           30120                           CA       FIXLOC                                #  YES.
000447:    6425           16432                           TCF      AHEAD5
000448:    6426           35007                           CA       OCT1400                               #  NO. SET EBANK & MAKE UP SUBADDRESS.
000449:    6427           56116                           XCH      ADDRWD
000450:    6430           54003                           TS       EBANK
000451:    6431           74357                           MASK     LOW8
000452:    6432           26116        AHEAD5             ADS      ADDRWD
000453:


000455:                                                                                                  #           STORING ROUTINES. STORE DP, TP, OR VECTOR AS INDICATED BY MODE.
000456:
000457:    6433           00006        STARTSTO           EXTEND                                         #  MPAC,+1 MUST BE STORED IN ANY EVENT.
000458:                                                                                                  #           ITRACE (5) REFERS TO "STARTSTO".
000459:    6434           30155                           DCA      MPAC
000460:    6435           50116                           INDEX    ADDRWD
000461:    6436           52001                           DXCH     0
000462:
000463:    6437           10163                           CCS      MODE
000464:    6440           16453                           TCF      TSTORE
000465:    6441           00002                           TC       Q
000466:
000467:    6442           00006        VSTORE             EXTEND
000468:    6443           30160                           DCA      MPAC       +3
000469:    6444           50116                           INDEX    ADDRWD
000470:    6445           52003                           DXCH     2
000471:
000472:    6446           00006                           EXTEND
000473:    6447           30162                           DCA      MPAC       +5
000474:    6450           50116                           INDEX    ADDRWD
000475:    6451           52005                           DXCH     4
000476:    6452           00002                           TC       Q
000477:
000478:    6453           30156        TSTORE             CA       MPAC       +2
000479:    6454           50116                           INDEX    ADDRWD
000480:    6455           54002                           TS       2
000481:    6456           00002                           TC       Q
000482:


000484:                                                                                                  #           ROUTINES TO BEGIN PROCESSING OF THE SECOND ADDRESS ASSOCIATED WITH ALL STORE-TYPE CODES EXCEPT STORE
000485:                                                                                                  #  ITSELF.
000486:
000487:    6457           37731        DODLOAD            CAF      DLOADCOD
000488:    6460           54020                           TS       CYR
000489:    6461           16105                           TCF      DIRADRES                              #  GO GET A DIRECT ADDRESS.
000490:
000491:    6462           34735        DOVLOAD            CAF      VLOADCOD
000492:    6463           54020                           TS       CYR
000493:    6464           16105                           TCF      DIRADRES
000494:
000495:    6465           36106        DOVLOAD*           CAF      VLOAD*
000496:    6466           16144                           TCF      DODLOAD*   +1                         #  PROLOGUE TO INDEX ROUTINE.
000497:


000499:                                                                                                  #           THE FOLLOWING LOAD INSTRUCTIONS ARE PROVIDED FOR LOADING THE MULTI-PURPOSE ACCUMULATOR MPAC.
000500:
000501:    6467           50116        TLOAD              INDEX    ADDRWD
000502:    6470           30002                           CA       2                                     #  LOAD A TRIPLE PRECISION ARGUMENT INTO
000503:    6471           54156                           TS       MPAC       +2                         #  THE FIRST THREE MPAC REGISTERS, WITH THE
000504:    6472           00006                           EXTEND                                         #  CONTENTS OF THE OTHER FOUR IRRELEVANT.
000505:    6473           50116                           INDEX    ADDRWD
000506:    6474           30001                           DCA      0
000507:    6475           52155                           DXCH     MPAC
000508:    6476           34753        TMODE              CAF      ONE
000509:    6477           16057                           TCF      NEWMODE                               #  DECLARE TRIPLE PRECISION MODE.
000510:
000511:    6500           22007        SLOAD              ZL                                             #  LOAD A SINGLE PRECISION NUMBER INTO
000512:    6501           50116                           INDEX    ADDRWD                                #  MPAC, SETTING MPAC+1,2 TO ZERO. THE
000513:    6502           30000                           CA       0                                     #  CONTENTS OF THE REMAINING MPAC REGISTERS
000514:    6503           16054                           TCF      SLOAD2                                #  ARE IRRELEVANT.
000515:
000516:    6504           00006        VLOAD              EXTEND                                         #  LOAD A DOUBLE PRECISION VECTOR INTO
000517:    6505           50116                           INDEX    ADDRWD                                #  MPAC,+1, MPAC+3,4, AND MPAC+5,6. THE
000518:    6506           30001                           DCA      0                                     #  CONTENTS OF MPAC +2 ARE IRRELEVANT.
000519:    6507           52155                           DXCH     MPAC
000520:
000521:    6510           00006        ENDVLOAD           EXTEND                                         #  PDVL COMES HERE TO FINISH UP FOR DP, TP.
000522:    6511           50116                           INDEX    ADDRWD
000523:    6512           30003                           DCA      2
000524:    6513           52160                           DXCH     MPAC       +3
000525:
000526:    6514           00006                 +4        EXTEND                                         #  TPDVL FINISHES HERE.
000527:    6515           50116                           INDEX    ADDRWD
000528:    6516           30005                           DCA      4
000529:    6517           52162                           DXCH     MPAC       +5
000530:
000531:    6520           44753        VMODE              CS       ONE                                   #  DECLARE VECTOR MODE.
000532:    6521           16057                           TCF      NEWMODE
000533:


000535:                                                                                                  #           THE FOLLOWING INSTRUCTIONS ARE PROVIDED FOR STORING OPERANDS IN THE PUSHDOWN LIST:
000536:
000537:                                                                                                  #           1.  PUSH               PUSHDOWN AND NO LOAD.
000538:                                                                                                  #           2.  PDDL               PUSHDOWN AND DOUBLE PRECISION LOAD.
000539:                                                                                                  #           3.  PDVL               PUSHDOWN AND VECTOR LOAD.
000540:
000541:    6522           00006        PDDL               EXTEND
000542:    6523           50116                           INDEX    ADDRWD                                #  LOAD MPAC,+1, PUSHING THE FORMER
000543:    6524           30001                           DCA      0                                     #  CONTENTS DOWN.
000544:    6525           52155                           DXCH     MPAC
000545:    6526           50166                           INDEX    PUSHLOC
000546:    6527           52001                           DXCH     0
000547:
000548:    6530           50163                           INDEX    MODE                                  #  ADVANCE THE PUSHDOWN POINTER APPRO-
000549:    6531           36243                           CAF      NO.WDS                                #  PRIATELY.
000550:    6532           26166                           ADS      PUSHLOC
000551:
000552:    6533           10163                           CCS      MODE
000553:    6534           16551                           TCF      ENDTPUSH
000554:    6535           16547                           TCF      ENDDPUSH
000555:
000556:    6536           54163                           TS       MODE                                  #  NOW DP.
000557:    6537           54156        ENDVPUSH           TS       MPAC       +2
000558:    6540           52160                           DXCH     MPAC       +3                         #  PUSH DOWN THE REST OF THE VECTOR HERE.
000559:    6541           50166                           INDEX    PUSHLOC
000560:    6542           51775                           DXCH     0          -4
000561:
000562:    6543           52162                           DXCH     MPAC       +5
000563:    6544           50166                           INDEX    PUSHLOC
000564:    6545           51777                           DXCH     0          -2
000565:
000566:    6546           16060                           TCF      DANZIG
000567:
000568:    6547           54156        ENDDPUSH           TS       MPAC       +2                         #  SET MPAC +2 TO ZERO AND EXIT ON DP.
000569:    6550           16060                           TCF      DANZIG
000570:
000571:    6551           54163        ENDTPUSH           TS       MODE
000572:    6552           56156                           XCH      MPAC       +2                         #  ON TRIPLE, SET MPAC +2 TO ZERO, PUSHING
000573:    6553           50166                 +2        INDEX    PUSHLOC                               #  DOWN THE OLD CONTENTS
000574:    6554           53777                           TS       0          -1
000575:    6555           16060                           TCF      DANZIG
000576:


000578:                                                                                                  #           PDVL - PUSHDOWN AND VECTOR LOAD.
000579:
000580:    6556           00006        PDVL               EXTEND                                         #  RELOAD MPAC AND PUSH DOWN ITS CONTENTS.
000581:    6557           50116                           INDEX    ADDRWD
000582:    6560           30001                           DCA      0
000583:    6561           52155                           DXCH     MPAC
000584:    6562           50166                           INDEX    PUSHLOC
000585:    6563           52001                           DXCH     0
000586:
000587:    6564           50163                           INDEX    MODE                                  #  ADVANCE THE PUSHDOWN POINTER.
000588:    6565           36243                           CAF      NO.WDS
000589:    6566           26166                           ADS      PUSHLOC
000590:
000591:    6567           10163                           CCS      MODE                                  #  TEST PAST MODE.
000592:    6570           16607                           TCF      TPDVL
000593:    6571           16510                           TCF      ENDVLOAD                              #  JUST LOAD LAST FOUR REGISTERS ON DP.
000594:
000595:    6572           00006        VPDVL              EXTEND                                         #  PUSHDOWN AND RE-LOAD LAST TWO COMPONENTS
000596:    6573           50116                           INDEX    ADDRWD
000597:    6574           30003                           DCA      2
000598:    6575           52160                           DXCH     MPAC       +3
000599:    6576           50166                           INDEX    PUSHLOC
000600:    6577           51775                           DXCH     0          -4
000601:
000602:    6600           00006                           EXTEND
000603:    6601           50116                           INDEX    ADDRWD
000604:    6602           30005                           DCA      4
000605:    6603           52162                           DXCH     MPAC       +5
000606:    6604           50166                           INDEX    PUSHLOC
000607:    6605           51777                           DXCH     0          -2
000608:
000609:    6606           16060                           TCF      DANZIG
000610:
000611:    6607           00006        TPDVL              EXTEND                                         #  ON TP, WE MUST LOAD THE Y COMPONENT
000612:    6610           50116                           INDEX    ADDRWD                                #  BEFORE STORING MPAC +2 IN CASE THIS IS A
000613:    6611           30003                           DCA      2                                     #  PUSHUP.
000614:    6612           52160                           DXCH     MPAC       +3
000615:
000616:    6613           30156                           CA       MPAC       +2
000617:    6614           50166                           INDEX    PUSHLOC                               #  IN DP.
000618:    6615           53777                           TS       0          -1
000619:    6616           16514                           TCF      ENDVLOAD   +4
000620:
000621:                                                                                                  #           SSP (STORE SINGLE PRECISION) IS EXECUTED HERE.
000622:
000623:    6617           24164        SSP                INCR     LOC                                   #  PICK UP THE WORD FOLLOWING THE GIVEN
000624:    6620           50164                           INDEX    LOC                                   #  ADDRESS AND STORE IT AT X.
000625:    6621           30000                           CA       0
000626:    6622           50116        STORE1             INDEX    ADDRWD                                #  SOME INDEX AND MISCELLANEOUS OPS END
000627:    6623           54000                           TS       0                                     #  HERE.


000629:    6624           16060                           TCF      DANZIG
000630:


000632:                                                                                                  #  SEQUENCE CHANGING AND SUBROUTINE CALLING OPTIONS.
000633:
000634:                                                                                                  #           THE FOLLOWING OPERATIONS ARE AVAILABLE FOR SEQUENCING CHANGING, BRANCHING, AND CALLING SUBROUTINES:
000635:
000636:                                                                                                  #           1.  GOTO               GO TO.
000637:                                                                                                  #           2.  CALL               CALL SUBROUTINE SETTING QPRET.
000638:                                                                                                  #           3.  CGOTO              COMPUTED GO TO.
000639:                                                                                                  #           4.  CCALL              COMPUTED CALL.
000640:                                                                                                  #           7.  BPL                BRANCH IF MPAC POSITIVE OR ZERO.
000641:                                                                                                  #           8.  BZE                BRANCH IF MPAC ZERO.
000642:                                                                                                  #           9.  BMN                BRANCH IF MPAC NEGATIVE NON-ZERO.
000643:
000644:    6625           24164        CCALL              INCR     LOC                                   #  MAINTAIN LOC FOR QPRET COMPUTATION.
000645:    6626           50164                           INDEX    LOC
000646:    6627           30000                           CAF      0                                     #  GET BASE ADDRESS OF CADR LIST.
000647:    6630           50116                           INDEX    ADDRWD
000648:    6631           60000                           AD       0                                     #  ADD INCREMENT.
000649:    6632           54004                           TS       FBANK                                 #  SELECT DESIRED CADR.
000650:    6633           75012                           MASK     LOW10
000651:    6634           50000                           INDEX    A
000652:    6635           32000                           CAF      10000
000653:    6636           54117                           TS       POLISH
000654:
000655:    6637           30165        CALL               CA       BANKSET                               #  FOR ANY OF THE CALL OPTIONS, MAKE UP THE
000656:    6640           74350                           MASK     BANKMASK                              #  ADDRESS OF THE NEXT OP-CODE PAIR/STORE
000657:    6641           64350                           AD       BANKMASK                              #  CODE AND LEAVE IT IN QPRET.  NOTE THAT
000658:    6642           60164                           AD       LOC                                   #  BANKMASK = -(2000 - 1).
000659:    6643           50120                           INDEX    FIXLOC
000660:    6644           54052                           TS       QPRET
000661:
000662:    6645           30117        GOTO               CA       POLISH                                #  BASIC BRANCHING SEQUENCE.
000663:    6646           77741                 +1        MASK     HIGH4
000664:    6647           00006                           EXTEND
000665:    6650           16661                           BZF      GOTOERS                               #  SEE IF ADDRESS POINTS TO FIXED OR ERAS.
000666:    6651           30165                 +4        CA       BANKSET                               #  SET EBANK PART OF BBANK. NEXT, SET UP
000667:    6652           54006                           TS       BBANK                                 #  FBANK. THE COMBINATION IS PICKED UP &
000668:    6653           30117                           CA       POLISH                                #  PUT INTO BANKSET AT INTPRET +2.
000669:    6654           54004                           TS       FBANK
000670:    6655           75012                           MASK     LOW10
000671:    6656           64741                           AD       2K
000672:    6657           54164                           TS       LOC
000673:    6660           16041                           TCF      INTPRET    +3
000674:
000675:    6661  E3,1400                                  EBANK=   1400                                  #  SO YUL DOESN'T CUSS THE "CA 1400" BELOW.
000676:
000677:    6661           30117        GOTOERS            CA       POLISH                                #  THE GIVEN ADDRESS IS IN ERASABLE - SEE
000678:    6662           66250                           AD       -ENDVAC                               #  IF RELATIVE TO THE WORK AREA.
000679:    6663           10000                           CCS      A
000680:    6664           30117                           CA       POLISH                                #  GENERAL ERASABLE.
000681:    6665           16674                           TCF      GOTOGE
000682:


000684:    6666           30120                           CA       FIXLOC                                #  WORK AREA.
000685:    6667           60117                           AD       POLISH
000686:    6670           50000                           INDEX    A                                     #  USE THE GIVEN ADDRESS AS THE ADDRESS OF
000687:    6671           30000                           CA       0                                     #  THE BRANCH ADDRESS.
000688:    6672           54117                           TS       POLISH
000689:    6673           16646                           TCF      GOTO       +1                         #  ALLOWS ARBITRARY INDIRECTNESS LEVELS.
000690:
000691:    6674           54003        GOTOGE             TS       EBANK
000692:    6675           74357                           MASK     LOW8
000693:    6676           50000                           INDEX    A                                     #  USE THE GIVEN ADDRESS AS THE ADDRESS OF
000694:    6677           31400                           CA       1400                                  #  THE BRANCH ADDRESS.
000695:    6700           54117                           TS       POLISH
000696:    6701           16646                           TCF      GOTO       +1
000697:
000698:    6702           50164        CGOTO              INDEX    LOC                                   #  COMPUTED GO TO. PICK UP ADDRESS OF CADR
000699:    6703           30001                           CA       1                                     #  LIST.
000700:    6704           50116                           INDEX    ADDRWD                                #  ADD MODIFIER.
000701:    6705           60000                           AD       0
000702:    6706           54004                           TS       FBANK                                 #  SELECT GOTO ADDRESS.
000703:    6707           75012                           MASK     LOW10
000704:    6710           50000                           INDEX    A
000705:    6711           32000                           CA       10000
000706:    6712           54117                           TS       POLISH
000707:    6713           16646                           TCF      GOTO       +1                         #  WITH ADDRESS IN A.
000708:
000709:    6714           30165        SWBRANCH           CA       BANKSET                               #  SWITCH INSTRUCTIONS WHICH ELECT TO
000710:    6715           54004                           TS       FBANK                                 #  BRANCH COME HERE TO DO SO.
000711:    6716           50164                           INDEX    LOC
000712:    6717           30001                           CA       1
000713:    6720           54117                           TS       POLISH
000714:    6721           16646                           TCF      GOTO       +1
000715:


000717:                                                                                                  #           TRIPLE PRECISION BRANCHING ROUTINE. IF CALLING TC IS AT L, RETURN IS AS FOLLOWS:
000718:
000719:                                                                                                  #           L+1  IF MPAC IS GREATER THAN ZERO.
000720:                                                                                                  #           L+2  IF MPAC IS EQUAL TO +0 OR -0.
000721:                                                                                                  #           L+3  IF MPAC IS LESS THAN ZERO.
000722:
000723:
000724:    6722           10154        BRANCH             CCS      MPAC
000725:    6723           00002                           TC       Q
000726:    6724           16726                           TCF      +2                                    #  ON ZERO.
000727:    6725           16740                           TCF      NEG
000728:
000729:    6726           10155                           CCS      MPAC       +1
000730:    6727           00002                           TC       Q
000731:    6730           16732                           TCF      +2
000732:    6731           16740                           TCF      NEG
000733:
000734:    6732           10156                           CCS      MPAC       +2
000735:    6733           00002                           TC       Q
000736:    6734           16736                           TCF      +2
000737:    6735           16740                           TCF      NEG
000738:
000739:    6736           50002        Q+1                INDEX    Q
000740:    6737           00001                           TC       1
000741:
000742:    6740           50002        NEG                INDEX    Q                                     #  IF FIRST NON-ZERO REGISTER WAS NEGATIVE.
000743:    6741           00002                           TC       2
000744:
000745:
000746:    6742     6740               Q+2                =        NEG
000747:
000748:                                                                                                  #           ITRACE (3) REFERS TO "EXIT".
000749:    6742           30165        EXIT               CA       BANKSET                               #  RESTORE USER'S BANK SETTING, AND LEAVE
000750:    6743           54006                           TS       BBANK                                 #  INTERPRETIVE MODE.
000751:    6744           50164                           INDEX    LOC
000752:    6745           00001                           TC       1
000753:


000755:                                                                                                  #  SECTION 3 - ADD/SUBTRACT PACKAGE.
000756:
000757:                                                                                                  #           THE FOLLOWING OPERATIONS ARE PROVIDED FOR ADDING TO AND SUBTRACTING FROM THE MULTI-PURPOSE ACCUMULATOR
000758:                                                                                                  #  MPAC:
000759:
000760:                                                                                                  #           1.  DAD                DOUBLE PRECISION ADD.
000761:                                                                                                  #           2.  DSU                DOUBLE PRECISION SUBTRACT.
000762:                                                                                                  #           3.  BDSU               DOUBLE PRECISION SUBTRACT FROM.
000763:
000764:                                                                                                  #           4.  TAD                TRIPLE PRECISION ADD.
000765:
000766:                                                                                                  #           5.  VAD                VECTOR ADD.
000767:                                                                                                  #           6.  VSU                VECTOR SUBTRACT.
000768:                                                                                                  #           7.  BVSU               VECTOR SUBTRACT FROM.
000769:
000770:                                                                                                  #  THE INTERPRETIVE OVERFLOW INDICATOR OVFIND IS SET NON-ZERO IF OVERFLOW OCCURS IN ANY OF THE ABOVE.
000771:
000772:    6746           34735        VSU                CAF      BIT15                                 #  CHANGES 0 TO DCS.
000773:    6747           16751                           TCF      +2
000774:
000775:    6750           34355        VAD                CAF      PRIO30                                #  CHANGES 0 TO DCA.
000776:    6751           26116                           ADS      ADDRWD
000777:    6752           00006                           EXTEND
000778:    6753           50116                           INDEX    ADDRWD
000779:    6754           00003                           READ     HISCALAR                              #  DCA  2   OR   DCS  2
000780:    6755           20160                           DAS      MPAC       +3
000781:    6756           00006                           EXTEND                                         #  CHECK OVERFLOW.
000782:    6757           16761                           BZF      +2
000783:    6760           07013                           TC       OVERFLWY
000784:
000785:    6761           00006                           EXTEND
000786:    6762           50116                           INDEX    ADDRWD
000787:    6763           00005                           READ     CHAN5                                 #  DCA  4  OR  DCS  4
000788:    6764           20162                           DAS      MPAC       +5
000789:    6765           00006                           EXTEND
000790:    6766           16770                           BZF      +2
000791:    6767           07010                           TC       OVERFLWZ
000792:
000793:    6770           00006                           EXTEND
000794:    6771           50116                           INDEX    ADDRWD
000795:    6772           00001                           READ     LCHAN                                 #  DCA  0  OR  DCS  0
000796:    6773           16777                           TCF      ENDVXV
000797:
000798:    6774           00006        DAD                EXTEND
000799:    6775           50116                           INDEX    ADDRWD
000800:    6776           30001                           DCA      0
000801:    6777           20155        ENDVXV             DAS      MPAC                                  #  VXV FINISHES HERE.
000802:    7000           00006                           EXTEND
000803:    7001           16060                           BZF      DANZIG
000804:


000806:    7002           07016        SETOVF             TC       OVERFLOW
000807:    7003           16060                           TCF      DANZIG
000808:


000810:    7004           00006        DSU                EXTEND
000811:    7005           50116                           INDEX    ADDRWD
000812:    7006           40001                           DCS      0
000813:    7007           16777                           TCF      ENDVXV
000814:
000815:    7010           54001        OVERFLWZ           TS       L                                     #  ENTRY FOR THIRD COMPONENT.
000816:    7011           34756                           CAF      FIVE
000817:    7012           17015                           TCF      +3
000818:
000819:    7013           54001        OVERFLWY           TS       L                                     #  ENTRY FOR SECOND COMPONENT.
000820:    7014           36244                           CAF      THREE
000821:    7015           56001                           XCH      L
000822:
000823:    7016           50000        OVERFLOW           INDEX    A                                     #  ENTRY FOR 1ST COMP OR DP (L=0).
000824:    7017           44734                           CS       LIMITS                                #  PICK UP POSMAX OR NEGMAX.
000825:    7020           54130                           TS       BUF
000826:    7021           00006                           EXTEND
000827:    7022           24000                           AUG      A                                     #  FORCE OVERFLOW.
000828:    7023           50001                           INDEX    L
000829:    7024           26155                           ADS      MPAC       +1
000830:    7025           54007                           TS       7
000831:    7026           34755                           CAF      ZERO
000832:    7027           60130                           AD       BUF
000833:    7030           50001                           INDEX    L
000834:    7031           26154                           ADS      MPAC
000835:    7032           54007                           TS       7
000836:    7033           00002                           TC       Q                                     #  NO OVERFLOW EXIT.
000837:    7034           17151                           TCF      SETOVF2                               #  SET OVFIND AND EXIT.
000838:
000839:    7035           00006        BVSU               EXTEND
000840:    7036           50116                           INDEX    ADDRWD
000841:    7037           30003                           DCA      2
000842:    7040           52160                           DXCH     MPAC       +3
000843:    7041           00006                           EXTEND
000844:    7042           40001                           DCOM
000845:    7043           20160                           DAS      MPAC       +3
000846:    7044           00006                           EXTEND
000847:    7045           17047                           BZF      +2
000848:    7046           07013                           TC       OVERFLWY
000849:
000850:    7047           00006                           EXTEND
000851:    7050           50116                           INDEX    ADDRWD
000852:    7051           30005                           DCA      4
000853:    7052           52162                           DXCH     MPAC       +5
000854:    7053           00006                           EXTEND
000855:    7054           40001                           DCOM
000856:    7055           20162                           DAS      MPAC       +5
000857:    7056           00006                           EXTEND
000858:    7057           17061                           BZF      +2
000859:    7060           07010                           TC       OVERFLWZ
000860:


000862:    7061           00006        BDSU               EXTEND
000863:    7062           50116                           INDEX    ADDRWD
000864:    7063           30001                           DCA      0
000865:    7064           52155                           DXCH     MPAC
000866:    7065           00006                           EXTEND
000867:    7066           40001                           DCOM
000868:    7067           16777                           TCF      ENDVXV
000869:


000871:                                                                                                  #           TRIPLE PRECISION ADD ROUTINE.
000872:
000873:    7070           00006        TAD                EXTEND
000874:    7071           50116                           INDEX    ADDRWD
000875:    7072           30002                           DCA      1                                     #  ADD MINOR PARTS FIRST.
000876:    7073           20156                           DAS      MPAC       +1
000877:    7074           50116                           INDEX    ADDRWD
000878:    7075           60000                           AD       0
000879:    7076           60154                           AD       MPAC
000880:    7077           54154                           TS       MPAC
000881:    7100           16060                           TCF      DANZIG
000882:
000883:    7101           17002                           TCF      SETOVF                                #  SET OVFIND IF SUCH OCCURS.
000884:


000886:                                                                                                  #  ARITHMETIC SUBROUTINES REQUIRED IN FIXED-FIXED.
000887:
000888:                                                                                                  #           1.  DMPSUB     DOUBLE PRECISION MULTIPLY. MULTIPLY THE CONTENTS OF MPAC,+1 BY THE DP WORD WHOSE ADDRESS
000889:                                                                                                  #                          IS IN ADDRWD AND LEAVE A TRIPLE PRECISION RESULT IN MPAC.
000890:                                                                                                  #           2.  ROUNDSUB   ROUND THE TRIPLE PRECISON CONTENTS OF MPAC TO DOUBLE PRECISION.
000891:                                                                                                  #           3.  DOTSUB     TAKE THE DOT PRODUCT OF THE VECTOR IN MPAC AND THE VECTOR WHOSE ADDRESS IS IN ADDRWD
000892:                                                                                                  #                          AND LEAVE THE TRIPLE PRECISION RESULT IN MPAC.
000893:                                                                                                  #           4.  POLY       USING THE CONTENTS OF MPAC AS A DP ARGUMENT, EVALUATE THE POLYNOMIAL WHOSE DEGREE AND
000894:                                                                                                  #                          COEFFICIENTS IMMEDIATELY FOLLOW THE TC POLY INSTRUCTION (SEE ROUTINE FOR DETAILS.)
000895:
000896:
000897:    7102           50002        DMP                INDEX    Q                                     #  BASIC SUBROUTINE FOR USE BY PINBALL, ETC
000898:    7103           30000                           CAF      0                                     #  ADRES OF ARGUMENT FOLLOWS  TC DMP  .
000899:    7104           24002                           INCR     Q
000900:    7105           54116                 -1        TS       ADDRWD                                #  (PROLOGUE FOR SETTING ADDRWD.)
000901:
000902:    7106           50116        DMPSUB             INDEX    ADDRWD                                #  GET MINOR PART OF OPERAND AT C(ADDRWD).
000903:    7107           30001                           CA       1
000904:    7110           54156                           TS       MPAC       +2                         #  THIS WORKS FOR SQUARING MPAC AS WELL.
000905:    7111           34755                           CAF      ZERO                                  #  SET MPAC +1 TO ZERO SO WE CAN ACCUMULATE
000906:    7112           56155                           XCH      MPAC       +1                         #  THE PARTIAL PRODUCTS WITH DAS
000907:    7113           54135                           TS       MPTEMP                                #  INSTRUCTIONS.
000908:    7114           00006                           EXTEND
000909:    7115           70156                           MP       MPAC       +2                         #  MINOR OF MPAC X MINOR OF C(ADDRWD).
000910:
000911:    7116           56156                           XCH      MPAC       +2                         #  DISCARD MINOR PART OF ABOVE RESULT AND
000912:    7117           00006                           EXTEND                                         #  FORM MAJOR OF MPAC X MINOR OF C(ADDRWD).
000913:    7120           70154                           MP       MPAC
000914:    7121           20156                           DAS      MPAC       +1                         #  GUARANTEED NO OVERFLOW.
000915:
000916:    7122           50116                           INDEX    ADDRWD                                #  GET MAJOR PART OF ARGUMENT AT C(ADDRWD).
000917:    7123           30000                           CA       0
000918:    7124           56135                           XCH      MPTEMP                                #  SAVE AND BRING OUT MINOR OF MPAC.
000919:    7125           00006        DMPSUB2            EXTEND
000920:    7126           70135                           MP       MPTEMP                                #  MAJOR OF C(ADDRWD) X MINOR OF MPAC.
000921:    7127           20156                           DAS      MPAC       +1                         #  ACCUMULATE, SETTING A TO NET OVERFLOW.
000922:
000923:    7130           56154                           XCH      MPAC                                  #  SETTING MPAC TO 0 OR +-1.
000924:    7131           00006                           EXTEND
000925:    7132           70135                           MP       MPTEMP                                #  MAJOR OF MPAC X MAJOR OF C(ADDRWD).
000926:    7133           20155                           DAS      MPAC                                  #  GUARANTEED NO OVERFLOW.
000927:    7134           00002                           TC       Q                                     #  49 MCT = .573 MS. INCLUDING RETURN.
000928:


000930:                                                                                                  #           ROUND MPAC TO DOUBLE PRECISION, SETTING OVFIND ON THE RARE EVENT OF OVERFLOW.
000931:
000932:    7135           34755        ROUNDSUB           CAF      ZERO                                  #  SET MPAC +2 = 0 FOR SCALARS AND CHANGE
000933:    7136           54163                 +1        TS       MODE                                  #  MODE TO DP.
000934:
000935:    7137           56156        VROUND             XCH      MPAC       +2                         #  BUT WE NEEDNT TAKE THE TIME FOR VECTORS.
000936:    7140           60000                           DOUBLE
000937:    7141           54001                           TS       L
000938:    7142           00002                           TC       Q
000939:
000940:    7143           60155                           AD       MPAC       +1                         #  ADD ROUNDING BIT IF MPAC +2 WAS GREATER
000941:    7144           54155                           TS       MPAC       +1                         #  THAN .5 IN MAGNITUDE.
000942:    7145           00002                           TC       Q
000943:
000944:    7146           60154                           AD       MPAC                                  #  PROPAGATE INTERFLOW.
000945:    7147           54154                           TS       MPAC
000946:    7150           00002                           TC       Q
000947:
000948:    7151           54121        SETOVF2            TS       OVFIND                                #  (RARE).
000949:    7152           00002                           TC       Q
000950:


000952:                                                                                                  #           THE DOT PRODUCT SUBROUTINE USUALLY FORMS THE DOT PRODUCT OF THE VECTOR IN MPAC WITH A STANDARD SIX
000953:                                                                                                  #  REGISTER VECTOR WHOSE ADDRESS IS IN ADDRWD. IN THIS CASE C(DOTINC) ARE SET TO 2. VXM, HOWEVER, SETS C(DOTINC) TO
000954:                                                                                                  #  6 SO THAT DOTSUB DOTS MPAC WITH A COLUMN VECTOR OF THE MATRIX IN QUESTION IN THIS CASE.
000955:
000956:
000957:    7153           34752        PREDOT             CAF      TWO                                   #  PROLOGUE TO SET DOTINC TO 2.
000958:    7154           54136                           TS       DOTINC
000959:
000960:    7155           00006        DOTSUB             EXTEND
000961:    7156           22137                           QXCH     DOTRET                                #  SAVE RETURN.
000962:    7157           07106                           TC       DMPSUB                                #  DOT X COMPONENTS.
000963:    7160           52160                           DXCH     MPAC       +3                         #  POSITION Y COMPONENT OF MPAC FOR
000964:    7161           52155                           DXCH     MPAC                                  #  MULTIPLICATION WHILE SAVING RESULT IN
000965:    7162           52131                           DXCH     BUF                                   #  THREE WORD BUFFER, BUF.
000966:    7163           30156                           CA       MPAC       +2
000967:    7164           54132                           TS       BUF        +2
000968:
000969:    7165           30136                           CA       DOTINC                                #  ADVANCE ADDRWD TO Y COMPONENT OF
000970:    7166           26116                           ADS      ADDRWD                                #  OTHER ARGUMENT.
000971:    7167           07106                           TC       DMPSUB
000972:    7170           52156                           DXCH     MPAC       +1                         #  ACCUMULATE PARTIAL PRODUCTS.
000973:    7171           20132                           DAS      BUF        +1
000974:    7172           60154                           AD       MPAC
000975:    7173           60130                           AD       BUF
000976:    7174           54130                           TS       BUF
000977:    7175           17177                           TCF      +2
000978:    7176           54121                           TS       OVFIND                                #  IF OVERFLOW OCCURS.
000979:
000980:    7177           52162                           DXCH     MPAC       +5                         #  MULTIPLY Z COMPONENTS.
000981:    7200           52155                           DXCH     MPAC
000982:    7201           30136                           CA       DOTINC
000983:    7202           26116                           ADS      ADDRWD
000984:    7203           07106                           TC       DMPSUB
000985:    7204           52132        ENDDOT             DXCH     BUF        +1                         #  LEAVE FINAL ACCUMULATION IN MPAC.
000986:    7205           20156                           DAS      MPAC       +1
000987:    7206           60154                           AD       MPAC
000988:    7207           60130                           AD       BUF
000989:    7210           54154                           TS       MPAC
000990:    7211           00137                           TC       DOTRET
000991:
000992:    7212           07016                           TC       OVERFLOW                              #  ON OVERFLOW HERE.
000993:    7213           00137                           TC       DOTRET
000994:


000996:                                                                                                  #  DOUBLE PRECISION POLYNOMIAL EVALUATOR
000997:
000998:                                                                                                  #                                     N        N-1
000999:                                                                                                  #           THIS ROUTINE EVALUATES A X  + A   X    + ... + A X + A  LEAVING THE DP RESULT IN MPAC ON EXIT.
001000:                                                                                                  #                                   N      N-1              1     0
001001:
001002:                                                                                                  #  THE ROUTINE HAS TWO ENTRIES
001003:
001004:                                                                                                  #           1. ENTRY THRU POWRSERS. THE COEFFICIENTS MAY BE EITHER IN FIXED OR ERASABLE, THE CALL IS BY
001005:                                                                                                  #              TC POWRSERS, AND THE RETURN IS TO LOC(TC POWRSERS)+1. THE ENTERING DATA MUST BE AS FOLLOWS
001006:
001007:                                                                                                  #                                          A        SP     LOC-3           ADDRESS FOR REFERENCING COEF TABLE
001008:                                                                                                  #                                          L        SP     N-1             N IS THE DEGREE OF THE POWER SERIES
001009:                                                                                                  #                                          MPAC     DP     X               ARGUMENT
001010:
001011:                                                                                                  #                                          LOC-2N   DP     A(0)
001012:                                                                                                  #                                                   ...
001013:                                                                                                  #                                          LOC      DP     A(N)
001014:
001015:                                                                                                  #           2. ENTRY THRU POLY. THE CALL TO POLY AND THE ENTERING DATA MUST BE AS FOLLOWS
001016:
001017:                                                                                                  #                                          MPAC     DP     X               ARGUMENT
001018:                                                                                                  #                                          LOC      TC     POLY
001019:                                                                                                  #                                          LOC+1    SP     N-1
001020:                                                                                                  #                                          LOC+2    DP     A(0)
001021:                                                                                                  #                                                   ...
001022:                                                                                                  #                                          LOC+2N+2 DP     A(N)            RETURN IS TO LOC+2N+4
001023:
001024:    7214           00006        POWRSERS           EXTEND
001025:    7215           22141                           QXCH     POLYRET                               #  RETURN ADDRESS
001026:    7216           54117                           TS       POLISH                                #  POWER SERIES ADDRESS
001027:    7217           22140                           LXCH     POLYCNT                               #  N-1 TO COUNTER
001028:    7220           17231                           TCF      POLYCOM                               #  SKIP SET UP BY POLY
001029:
001030:    7221           50002        POLY               INDEX    Q
001031:    7222           30000                           CAF      0
001032:    7223           54140                           TS       POLYCNT                               #  N-1 TO COUNTER
001033:    7224           60000                           DOUBLE
001034:    7225           60002                           AD       Q
001035:    7226           54117                           TS       POLISH                                #  L(A(N))-3 TO POLISH
001036:    7227           64756                           AD       FIVE
001037:    7230           54141                           TS       POLYRET                               #  STORE RETURN ADDRESS
001038:
001039:    7231           36272        POLYCOM            CAF      LVBUF                                 #  INCOMING X WILL BE MOVED TO VBUF, SO
001040:    7232           54116                           TS       ADDRWD                                #  SET ADDRWD SO DMPSUB WILL MPY BY VBUF.
001041:
001042:    7233           00006                           EXTEND
001043:    7234           50117                           INDEX    POLISH
001044:    7235           30004                           DCA      3


001046:    7236           52155                           DXCH     MPAC                                  #  LOAD A(N) INTO MPAC,
001047:    7237           52123                           DXCH     VBUF                                  #  SAVING X IN VBUF
001048:    7240           17244                           TCF      POLY2
001049:
001050:    7241           54140        POLYLOOP           TS       POLYCNT                               #  SAVE DECREMENTED LOOP COUNTER
001051:    7242           44752                           CS       TWO
001052:    7243           26117                           ADS      POLISH                                #  REGRESS COEFFICIENT POINTER
001053:
001054:    7244           07106        POLY2              TC       DMPSUB                                #  MULTIPLY BY X
001055:    7245           00006                           EXTEND
001056:    7246           50117                           INDEX    POLISH
001057:    7247           30002                           DCA      1                                     #  ADD IN NEXT COEFFICIENT
001058:    7250           20155                           DAS      MPAC                                  #  USERS RESPONSIBILITY TO ASSURE NO OVFLOW
001059:
001060:    7251           10140                           CCS      POLYCNT
001061:    7252           17241                           TCF      POLYLOOP
001062:    7253           00141                           TC       POLYRET                               #  RETURN CALLER
001063:


001065:                                                                                                  #           MISCELLANEOUS MULTI-PRECISION ROUTINES REQUIRED IN FIXED-FIXED BUT NOT USED BY THE INTERPRETER.
001066:
001067:    7254           34755        DPAGREE            CAF      ZERO                                  #  DOUBLE PRECISION ENTRY -
001068:    7255           54156                           TS       MPAC       +2                         #  ZERO LOW-ORDER WORD
001069:
001070:    7256           22002        TPAGREE            LXCH     Q                                     #  FORCE SIGN AGREEMENT AMONG THE TRIPLE
001071:    7257           06722                           TC       BRANCH                                #  PRECISION CONTENTS OF MPAC.  RETURNING
001072:    7260           17264                           TCF      ARG+                                  #  WITH SIGNUM OF THE INPUT IN A.
001073:    7261           17304                           TCF      ARGZERO
001074:
001075:    7262           44733                           CS       POSMAX                                #  IF NEGATIVE.
001076:    7263           17265                           TCF      +2
001077:
001078:    7264           34733        ARG+               CAF      POSMAX
001079:    7265           54002                           TS       Q
001080:    7266           00006                           EXTEND
001081:    7267           24000                           AUG      A                                     #  FORMS +-1.0.
001082:    7270           60156                           AD       MPAC       +2
001083:    7271           54156                           TS       MPAC       +2
001084:    7272           34755                           CAF      ZERO
001085:    7273           60002                           AD       Q
001086:    7274           60155                           AD       MPAC       +1
001087:    7275           54155                           TS       MPAC       +1
001088:    7276           34755                           CAF      ZERO
001089:    7277           60002                           AD       Q                                     #  Q STILL HAS POSMAX OR NEGMAX IN IT.
001090:    7300           60154                           AD       MPAC
001091:    7301           54154        ARGZERO2           TS       MPAC                                  #  ALWAYS SKIPPING UNLESS ARGZERO.
001092:    7302           54155                           TS       MPAC       +1
001093:    7303           00001                           TC       L                                     #  RETURN VIA L.
001094:
001095:    7304           54156        ARGZERO            TS       MPAC       +2                         #  SET ALL THREE MPAC REGISTERS TO ZERO.
001096:    7305           17301                           TCF      ARGZERO2
001097:
001098:                                                                                                  #           SHORTMP MULTIPLIES THE TP CONTENTS OF MPAC BY THE SINGLE PRECISION NUMBER ARRIVING IN A.
001099:
001100:    7306           54135        SHORTMP            TS       MPTEMP
001101:    7307           00006                           EXTEND
001102:    7310           70156                           MP       MPAC       +2
001103:    7311           54156                           TS       MPAC       +2
001104:    7312           34755        SHORTMP2           CAF      ZERO                                  #  SO SUBSEQUENT DAS WILL WORK.
001105:    7313           56155                           XCH      MPAC       +1
001106:    7314           17125                           TCF      DMPSUB2
001107:


001109:                                                                                                  #         DMPNSUB MULTIPLIES THE DP FRACTION ARRIVING IN MPAC BY THE SP
001110:                                                                                                  #  INTEGER ARRIVING IN A.  THE DP PRODUCT DEPARTS BOTH IN MPAC AND IN
001111:                                                                                                  #  A AND L.  NOTE THAT DMPNSUB NORMALLY INCREASES THE MAGNITUDE OF THE
001112:                                                                                                  #  CONTENTS OF MPAC.  THE CUSTOMER MUST INSURE THAT B(A) X B(MPAC,MPAC+1)
001113:                                                                                                  #  AND B(A) X B(MPAC) ARE LESS THAN 1 IN MAGNITUDE, WHERE B, AS IS OBVIOUS,
001114:                                                                                                  #  INDICATES THE ARRIVING CONTENTS.
001115:
001116:    7315           54135        DMPNSUB            TS       DMPNTEMP
001117:    7316           00006                           EXTEND
001118:    7317           70155                           MP       MPAC       +1
001119:    7320           52155                           DXCH     MPAC                                  #  LOW PRODUCT TO MPAC, HIGH FACTOR TO A
001120:    7321           00006                           EXTEND
001121:    7322           70135                           MP       DMPNTEMP
001122:    7323           30001                           CA       L
001123:    7324           26154                           ADS      MPAC                                  #  COMPLETING THE PRODUCT IN MPAC
001124:    7325           00006                           EXTEND
001125:    7326           30155                           DCA      MPAC                                  #  BRINGING THE PRODUCT INTO A AND L
001126:    7327           00002                           TC       Q
001127:


001129:                                                                                                  #  MISCELLANEOUS VECTOR OPERATIONS. INCLUDED HERE ARE THE FOLLOWING:
001130:
001131:                                                                                                  #           1.  DOT                DP VECTOR DOT PRODUCT.
001132:                                                                                                  #           2.  VXV                DP VECTOR CROSS PRODUCT.
001133:                                                                                                  #           3.  VXSC               DP VECTOR TIMES SCALAR.
001134:                                                                                                  #           4.  V/SC               DP VECTOR DIVIDED BY SCALAR.
001135:                                                                                                  #           5.  VPROJ              DP VECTOR PROJECTION. ( (MPAC.X)MPAC ).
001136:                                                                                                  #           6.  VXM                DP VECTOR POST-MULTIPLIED BY MATRIX.
001137:                                                                                                  #           7.  MXV                DP VECTOR PRE-MULTIPLIED BY MATRIX.
001138:
001139:
001140:    7330           07153        DOT                TC       PREDOT                                #  DO THE DOT PRODUCT AND EXIT, CHANGING
001141:    7331           34755        DMODE              CAF      ZERO                                  #  THE MODE TO DP SCALAR.
001142:    7332           16057                           TCF      NEWMODE
001143:
001144:
001145:    7333           34752        MXV                CAF      TWO                                   #  SET UP MATINC AND DOTINC FOR ROW
001146:    7334           54140                           TS       MATINC                                #  VECTORS.
001147:    7335           17341                           TCF      VXM/MXV                               #  GO TO COMMON PORTION.
001148:
001149:    7336           44363        VXM                CS       TEN                                   #  SET MATINC AND DOTINC TO REFER TO MATRIX
001150:    7337           54140                           TS       MATINC                                #  AS THREE COLUMN VECTORS.
001151:    7340           36241                           CAF      SIX
001152:


001154:                                                                                                  #           COMMON PORTION OF MXV AND VXM.
001155:
001156:    7341           54136        VXM/MXV            TS       DOTINC
001157:                                                                                                  #           ITRACE (2) REFERS TO "VXM/MXV".
001158:    7342           07531                           TC       MPACVBUF                              #  SAVE VECTOR IN MPAC FOR FURTHER USE.
001159:
001160:    7343           07155                           TC       DOTSUB                                #  GO DOT TO GET X COMPONENT OF ANSWER.
001161:    7344           00006                           EXTEND
001162:    7345           30123                           DCA      VBUF                                  #  MOVE MPAC VECTOR BACK INTO MPAC, SAVING
001163:    7346           52155                           DXCH     MPAC                                  #  NEW X COMPONENT IN BUF2.
001164:    7347           52134                           DXCH     BUF2
001165:    7350           00006                           EXTEND
001166:    7351           30125                           DCA      VBUF       +2
001167:    7352           52160                           DXCH     MPAC       +3
001168:    7353           00006                           EXTEND
001169:    7354           30127                           DCA      VBUF       +4
001170:    7355           52162                           DXCH     MPAC       +5
001171:    7356           30140                           CA       MATINC                                #  INITIALIZE ADDRWD FOR NEXT DOT PRODUCT.
001172:    7357           26116                           ADS      ADDRWD                                #  FORMS BASE ADDRESS OF NEXT COLUMN(ROW).
001173:
001174:    7360           07155                           TC       DOTSUB
001175:    7361           52123                           DXCH     VBUF                                  #  MOVE GIVEN VECTOR BACK TO MPAC, SAVING Y
001176:    7362           52155                           DXCH     MPAC                                  #  COMPONENT OF ANSWER IN VBUF +2.
001177:    7363           52125                           DXCH     VBUF       +2
001178:    7364           52160                           DXCH     MPAC       +3
001179:    7365           52127                           DXCH     VBUF       +4
001180:    7366           52162                           DXCH     MPAC       +5
001181:    7367           30140                           CA       MATINC                                #  FORM ADDRESS OF LAST COLUMN OR ROW.
001182:    7370           26116                           ADS      ADDRWD
001183:
001184:    7371           07155                           TC       DOTSUB
001185:    7372           52134                           DXCH     BUF2                                  #  ANSWER NOW COMPLETE. PUT COMPONENTS INTO
001186:    7373           52155                           DXCH     MPAC                                  #  PROPER MPAC REGISTERS.
001187:    7374           52162                           DXCH     MPAC       +5
001188:    7375           52125                           DXCH     VBUF       +2
001189:    7376           52160                           DXCH     MPAC       +3
001190:    7377           16060                           TCF      DANZIG                                #  EXIT.
001191:


001193:                                                                                                  #           VXSC - VECTOR TIMES SCALAR.
001194:
001195:    7400           10163        VXSC               CCS      MODE                                  #  TEST PRESENT MODE.
001196:    7401           17427                           TCF      DVXSC                                 #  SEPARATE ROUTINE WHEN SCALAR IS IN MPAC.
001197:    7402           17427                           TCF      DVXSC
001198:
001199:    7403           07106        VVXSC              TC       DMPSUB                                #  COMPUTE X COMPONENT
001200:    7404           07137                           TC       VROUND                                #  AND ROUND IT.
001201:    7405           52160                           DXCH     MPAC       +3                         #  PUT Y COMPONENT INTO MPAC SAVING MPAC IN
001202:    7406           52155                           DXCH     MPAC                                  #  MPAC +3.
001203:    7407           52160                           DXCH     MPAC       +3
001204:
001205:    7410           07106                           TC       DMPSUB                                #  DO SAME FOR Y AND Z COMPONENTS.
001206:    7411           07137                           TC       VROUND
001207:    7412           52162                           DXCH     MPAC       +5
001208:    7413           52155                           DXCH     MPAC
001209:    7414           52162                           DXCH     MPAC       +5
001210:
001211:    7415           07106                           TC       DMPSUB
001212:    7416           07137                           TC       VROUND
001213:    7417           52155        VROTATEX           DXCH     MPAC                                  #  EXIT USED TO RESTORE MPAC AFTER THIS
001214:    7420           52162                           DXCH     MPAC       +5                         #  TYPE OF ROTATION. CALLED BY VECTOR SHIFT
001215:    7421           52160                           DXCH     MPAC       +3                         #  RIGHT, V/SC, ETC.
001216:    7422           52155                           DXCH     MPAC
001217:    7423           16060                           TCF      DANZIG
001218:


001220:                                                                                                  #           DP VECTOR PROJECTION ROUTINE.
001221:
001222:    7424           07153        VPROJ              TC       PREDOT                                #  (MPAC.X)MPAC IS COMPUTED AND LEFT IN
001223:    7425           44751                           CS       FOUR                                  #  MPAC. DO DOT AND FALL INTO DVXSC.
001224:    7426           26116                           ADS      ADDRWD
001225:
001226:                                                                                                  #           VXSC WHEN SCALAR ARRIVES IN MPAC AND VECTOR IS AT X.
001227:
001228:    7427           00006        DVXSC              EXTEND                                         #  SAVE SCALAR IN MPAC +3 AND GET X
001229:    7430           30155                           DCA      MPAC                                  #  COMPONENT OF ANSWER.
001230:    7431           52160                           DXCH     MPAC       +3
001231:    7432           07106                           TC       DMPSUB
001232:    7433           07137                           TC       VROUND
001233:
001234:    7434           34752                           CAF      TWO                                   #  ADVANCE ADDRWD TO Y COMPONENT OF X.
001235:    7435           26116                           ADS      ADDRWD
001236:    7436           00006                           EXTEND
001237:    7437           30160                           DCA      MPAC       +3                         #  PUT SCALAR BACK INTO MPAC AND SAVE
001238:    7440           52155                           DXCH     MPAC                                  #  X RESULT IN MPAC +5.
001239:    7441           52162                           DXCH     MPAC       +5
001240:    7442           07106                           TC       DMPSUB
001241:    7443           07137                           TC       VROUND
001242:
001243:    7444           34752                           CAF      TWO
001244:    7445           26116                           ADS      ADDRWD                                #  TO Z COMPONENT.
001245:    7446           52160                           DXCH     MPAC       +3                         #  BRING SCALAR BACK, PUTTING Y RESULT IN
001246:    7447           52155                           DXCH     MPAC                                  #  THE PROPER PLACE.
001247:    7450           52160                           DXCH     MPAC       +3
001248:    7451           07106                           TC       DMPSUB
001249:    7452           07137                           TC       VROUND
001250:
001251:    7453           52155                           DXCH     MPAC                                  #  PUT Z COMPONENT IN PROPER PLACE, ALSO
001252:    7454           52162                           DXCH     MPAC       +5                         #  POSITIONING X.
001253:    7455           52155                           DXCH     MPAC
001254:
001255:    7456           16520                           TCF      VMODE                                 #  MODE HAS CHANGED TO VECTOR.
001256:


001258:                                                                                                  #           THE VECTOR CROSS PRODUCT ROUTINE CALCULATES (X M -X M ,X M -X M ,X M -X M ) WHERE M IS THE VECTOR IN
001259:                                                                                                  #                                                         3 2  2 3  1 3  3 1  2 1  1 2
001260:                                                                                                  #  MPAC AND X THE VECTOR AT THE GIVEN ADDRESS.
001261:
001262:
001263:    7457           00006        VXV                EXTEND
001264:    7460           30162                           DCA      MPAC       +5                         #  FORM UP M3X1, LEAVING M1 IN VBUF.
001265:    7461           52155                           DXCH     MPAC
001266:    7462           52123                           DXCH     VBUF
001267:    7463           07106                           TC       DMPSUB                                #  BY X1.
001268:
001269:    7464           00006                           EXTEND
001270:    7465           40160                           DCS      MPAC       +3                         #  CALCULATE -X1M2, SAVING X1M3 IN VBUF +2.
001271:    7466           52155                           DXCH     MPAC
001272:    7467           52125                           DXCH     VBUF       +2
001273:    7470           07106                           TC       DMPSUB
001274:
001275:    7471           34752                           CAF      TWO                                   #  ADVANCE ADDRWD TO X2.
001276:    7472           26116                           ADS      ADDRWD
001277:    7473           00006                           EXTEND
001278:    7474           40162                           DCS      MPAC       +5                         #  PREPARE TO GET -X2M3, SAVING -X1M2 IN
001279:    7475           52155                           DXCH     MPAC                                  #  MPAC +5.
001280:    7476           52162                           DXCH     MPAC       +5
001281:    7477           07106                           TC       DMPSUB
001282:
001283:    7500           00006                           EXTEND
001284:    7501           30123                           DCA      VBUF                                  #  GET X2M1, SAVING -X2M3 IN VBUF +4.
001285:    7502           52155                           DXCH     MPAC
001286:    7503           52127                           DXCH     VBUF       +4
001287:    7504           07106                           TC       DMPSUB
001288:
001289:    7505           34752                           CAF      TWO                                   #  ADVANCE ADDRWD TO X3.
001290:    7506           26116                           ADS      ADDRWD
001291:    7507           00006                           EXTEND
001292:    7510           40123                           DCS      VBUF                                  #  GET -X3M1, ADDING X2M1 TO MPAC +5 TO
001293:    7511           52155                           DXCH     MPAC                                  #  COMPLETE THE Z COMPONENT OF THE ANSWER.
001294:    7512           20162                           DAS      MPAC       +5
001295:
001296:    7513           00006                           EXTEND
001297:    7514           17516                           BZF      +2
001298:    7515           07010                           TC       OVERFLWZ
001299:
001300:    7516           07106                           TC       DMPSUB
001301:    7517           52125                           DXCH     VBUF       +2                         #  MOVE X1M3 TO MPAC +3 SETTING UP FOR X3M2
001302:    7520           52160                           DXCH     MPAC       +3                         #  AND ADD -X3M1 TO MPAC +3 TO COMPLETE THE
001303:    7521           52155                           DXCH     MPAC                                  #  Y COMPONENT OF THE RESULT.
001304:    7522           20160                           DAS      MPAC       +3
001305:
001306:    7523           00006                           EXTEND
001307:    7524           17526                           BZF      +2


001309:    7525           07013                           TC       OVERFLWY
001310:
001311:    7526           07106                           TC       DMPSUB
001312:    7527           52127                           DXCH     VBUF       +4                         #  GO ADD -X2M3 TO X3M2 TO COMPLETE THE X
001313:    7530           16777                           TCF      ENDVXV                                #  COMPONENT (TAIL END OF DAD).
001314:
001315:                                                                                                  #           THE MPACVBUF SUBROUTINE SAVES THE VECTOR IN MPAC IN VBUF WITHOUT CLOBBERING MPAC.
001316:
001317:    7531           00006        MPACVBUF           EXTEND                                         #  CALLED BY MXV, VXM, AND UNIT.
001318:    7532           30155                           DCA      MPAC
001319:    7533           52123                           DXCH     VBUF
001320:    7534           00006                           EXTEND
001321:    7535           30160                           DCA      MPAC       +3
001322:    7536           52125                           DXCH     VBUF       +2
001323:    7537           00006                           EXTEND
001324:    7540           30162                           DCA      MPAC       +5
001325:    7541           52127                           DXCH     VBUF       +4
001326:    7542           00002                           TC       Q                                     #  RETURN TO CALLER.
001327:
001328:
001329:                                                                                                  #           DOUBLE PRECISION SIGN AGREE ROUTINE. ARRIVE WITH INPUT IN A+L. OUTPUT IS IN A + L.
001330:
001331:    7543           10000        ALSIGNAG           CCS      A                                     #  TEST UPPER PART.
001332:    7544           17550                           TCF      UPPOS                                 #  IT IS POSITIVE
001333:    7545           00002                           TC       Q                                     #  ZERO
001334:    7546           17560                           TCF      UPNEG                                 #  NEGATIVE
001335:    7547           00002                           TC       Q                                     #  ZERO
001336:
001337:    7550           56001        UPPOS              XCH      L                                     #  SAVE DECREMENTED UPPER PART.
001338:    7551           64736                           AD       HALF
001339:    7552           64736                           AD       HALF
001340:    7553           54000                           TS       A                                     #  SKIPS ON OVERFLOW
001341:    7554           17556                           TCF      +2
001342:    7555           24001                           INCR     L                                     #  RESTORE UPPER TO ROIGINAL VALUE
001343:    7556           56001                           XCH      L                                     #  SWAP A + L BACK.
001344:    7557           00002                           TC       Q
001345:
001346:    7560           56001        UPNEG              XCH      L                                     #  SAVE COMPLEMENTED + DECREMENTED UPPER PT
001347:    7561           64735                           AD       NEGMAX
001348:    7562           67746                           AD       NEGONE
001349:    7563           54000                           TS       A
001350:    7564           17566                           TCF      +2                                    #  DONT INCREMENT IF NO OVERFLOW.
001351:    7565           24001                           INCR     L
001352:    7566           56001                           XCH      L
001353:    7567           40000                           COM                                            #  MAKE NEGATIVE AGAIN.
001354:    7570           00002                           TC       Q
001355:


001357:                                                                                                  #           INTERPRETIVE INSTRUCTIONS WHOSE EXECUTION CONSISTS OF PRINCIPALLY CALLING SUBROUTINES.
001358:
001359:    7571           07106        DMP1               TC       DMPSUB                                #  DMP INSTRUCTION.
001360:    7572           16060                           TCF      DANZIG
001361:
001362:    7573           07106        DMPR               TC       DMPSUB
001363:    7574           07136                           TC       ROUNDSUB   +1                         #  (C(A) = +0).
001364:    7575           16060                           TCF      DANZIG
001365:
001366:    7576           00006        DDV                EXTEND
001367:    7577           50116                           INDEX    ADDRWD                                #  MOVE DIVIDEND INTO BUF.
001368:    7600           30001                           DCA      0
001369:    7601           17606                           TCF      BDDV       +4
001370:
001371:    7602           00006        BDDV               EXTEND                                         #  MOVE DIVISOR INTO MPAC SAVING MPAC, THE
001372:    7603           50116                           INDEX    ADDRWD                                #  DIVIDEND, IN BUF.
001373:    7604           30001                           DCA      0
001374:    7605           52155                           DXCH     MPAC
001375:    7606           52131                 +4        DXCH     BUF
001376:    7607           34755                           CAF      ZERO                                  #  DIVIDE ROUTINES IN BANK 0.
001377:    7610           54004                           TS       FBANK
001378:    7611           12353                           TCF      DDV/BDDV
001379:
001380:    7612           30116        SETPD              CA       ADDRWD                                #  MUST SET TO WORK AREA, OR EBANK TROUBLE.
001381:    7613           54166                           TS       PUSHLOC
001382:    7614           16062                           TCF      NOIBNKSW                              #  NO FBANK SWITCH REQUIRED.
001383:
001384:    7615           34755        TSLC               CAF      ZERO                                  #  SHIFTING ROUTINES LOCATED IN BANK 00.
001385:    7616           54004                           TS       FBANK
001386:    7617           12172                           TCF      TSLC2
001387:
001388:    7620           36073        GSHIFT             CAF      LOW7                                  #  USED AS MASK AT GENSHIFT. THIS PROCESSES
001389:    7621           54004                           TS       FBANK                                 #  ANY SHIFT INSTRUCTION (EXCEPT TSLC) WITH
001390:    7622           12214                           TCF      GENSHIFT                              #  AN ADDRESS (ROUTINES IN BANK 0).
001391:


001393:                                                                                                  #           THE FOLLOWING IS THE PROLOGUE TO V/SC. IF THE PRESENT MODE IS VECTOR, IT SAVES THE SCALAR AT X IN BUF
001394:                                                                                                  #  AND CALLS THE V/SC ROUTINE IN BANK 0. IF THE PRESENT MODE IS SCALAR, IT MOVES THE VECTOR AT X INTO MPAC, SAVING
001395:                                                                                                  #  THE SCALAR IN MPAC IN BUF BEFORE CALLING THE V/SC ROUTINE IN BANK 0.
001396:
001397:    7623           10163        V/SC               CCS      MODE
001398:    7624           17635                           TCF      DV/SC                                 #  MOVE VECTOR INTO MPAC.
001399:    7625           17635                           TCF      DV/SC
001400:
001401:    7626           00006        VV/SC              EXTEND
001402:    7627           50116                           INDEX    ADDRWD
001403:    7630           30001                           DCA      0
001404:    7631           52131        V/SC1              DXCH     BUF                                   #  IN BOTH CASES, VECTOR IS NOW IN MPAC AND
001405:    7632           34755                           CAF      ZERO                                  #  SCALAR IN BUF.
001406:    7633           54004                           TS       FBANK
001407:    7634           12654                           TCF      V/SC2
001408:
001409:    7635           00006        DV/SC              EXTEND
001410:    7636           50116                           INDEX    ADDRWD
001411:    7637           30003                           DCA      2
001412:    7640           52160                           DXCH     MPAC       +3
001413:    7641           00006                           EXTEND
001414:    7642           50116                           INDEX    ADDRWD
001415:    7643           30005                           DCA      4
001416:    7644           52162                           DXCH     MPAC       +5
001417:
001418:    7645           44753                           CS       ONE                                   #  CHANGE MODE TO VECTOR.
001419:    7646           54163                           TS       MODE
001420:
001421:    7647           00006                           EXTEND
001422:    7650           50116                           INDEX    ADDRWD
001423:    7651           30001                           DCA      0
001424:    7652           52155                           DXCH     MPAC
001425:    7653           17631                           TCF      V/SC1                                 #  FINISH PROLOGUE AT COMMON SECTION.
001426:


001428:                                                                                                  #           SIGN AND COMPLEMENT INSTRUCTIONS.
001429:
001430:    7654           50116        SIGN               INDEX    ADDRWD                                #  CALL COMP INSTRUCTION IF WORD AT X IS
001431:    7655           10000                           CCS      0                                     #  NEGATIVE NON-ZERO.
001432:    7656           16060                           TCF      DANZIG
001433:    7657           17661                           TCF      +2
001434:    7660           17667                           TCF      COMP                                  #  DO THE COMPLEMENT.
001435:
001436:    7661           50116                           INDEX    ADDRWD
001437:    7662           10001        CCSL               CCS      1
001438:    7663           16060                           TCF      DANZIG
001439:    7664           16060                           TCF      DANZIG
001440:    7665           17667                           TCF      COMP
001441:    7666           16060                           TCF      DANZIG
001442:    7667           00006        COMP               EXTEND                                         #  COMPLEMENT DP MPAC IN EVERY CASE.
001443:    7670           40155                           DCS      MPAC
001444:    7671           52155                           DXCH     MPAC
001445:
001446:    7672           10163                           CCS      MODE                                  #  EITHER COMPLEMENT MPAC +3 OR THE REST OF
001447:    7673           17704                           TCF      DCOMP                                 #  THE VECTOR ACCUMULATOR.
001448:    7674           17704                           TCF      DCOMP
001449:
001450:    7675           00006                           EXTEND                                         #  VECTOR COMPLEMENT.
001451:    7676           40160                           DCS      MPAC       +3
001452:    7677           52160                           DXCH     MPAC       +3
001453:    7700           00006                           EXTEND
001454:    7701           40162                           DCS      MPAC       +5
001455:    7702           52162                           DXCH     MPAC       +5
001456:    7703           16060                           TCF      DANZIG
001457:
001458:    7704           40156        DCOMP              CS       MPAC       +2
001459:    7705           54156                           TS       MPAC       +2
001460:    7706           16060                           TCF      DANZIG
001461:


001463:                                                                                                  #           THE FOLLOWING SHORT SHIFT CODES REQUIRE NO ADDRESS WORD:
001464:
001465:                                                                                                  #           1.  SR1 TO SR4         SCALAR SHIFT RIGHT.
001466:                                                                                                  #           2.  SR1R TO SR4R       SCALAR SHIFT RIGHT AND ROUND.
001467:                                                                                                  #           3.  SL1 TO SL4         SCALAR SHIFT LEFT.
001468:                                                                                                  #           4.  SL1R TO SL4R       SCALAR SHIFT LEFT AND ROUND.
001469:
001470:                                                                                                  #           5.  VSR1 TO VSR8       VECTOR SHIFT RIGHT (ALWAYS ROUNDS).
001471:                                                                                                  #           6.  VSL1 TO VSL8       VECTOR SHIFT LEFT (NEVER ROUNDS).
001472:
001473:                                                                                                  #           THE FOLLOWING CODES REQUIRE AN ADDRESS WHICH MAY BE INDEXED:*
001474:
001475:                                                                                                  #           1.  SR                 SCALAR SHIFT RIGHT.
001476:                                                                                                  #           2.  SRR                SCALAR SHIFT RIGHT AND ROUND.
001477:                                                                                                  #           3.  SL                 SCALAR SHIFT LEFT.
001478:                                                                                                  #           4.  SLR                SCALAR SHIFT LEFT AND ROUND.
001479:
001480:                                                                                                  #           5.  VSR                VECTOR SHIFT RIGHT.
001481:                                                                                                  #           6.  VSL                VECTOR SHIFT LEFT.
001482:
001483:                                                                                                  #  *  IF THE ADDRESS IS INDEXED, AND THE INDEX MODIFICATION RESULTS IN A NEGATIVE SHIFT COUNT, A SHIFT OF THE
001484:                                                                                                  #  ABSOLUTE VALUE OF THE COUNT IS DONE IN THE OPPOSITE DIRECTION.
001485:
001486:
001487: 00,2017                                           BANK     00
001488:
001489: 00,2017                                           COUNT*   $$/INTER
001490: 00,2017           36241        SHORTT             CAF      SIX                                   #  SCALAR SHORT SHIFTS COME HERE. THE SHIFT
001491: 00,2020           70020                           MASK     CYR                                   #  COUNT-1 IS NOW IN BITS 2-3 OF CYR. THE
001492: 00,2021           54021                           TS       SR                                    #  ROUNDING BIT IS IN BIT1 AT THIS POINT.
001493:
001494: 00,2022           10020                           CCS      CYR                                   #  SEE IF RIGHT OR LEFT SHIFT DESIRED.
001495: 00,2023           12101                           TCF      TSSL                                  #  SHIFT LEFT.
001496:
001497: 00,2024           00024        SRDDV              DEC      20         B-14                       #  MPTEMP SETTING FOR SR BEFORE DDV.
001498:
001499: 00,2025           50021        TSSR               INDEX    SR                                    #  GET SHIFTING BIT.
001500: 00,2026           34736                           CAF      BIT14
001501: 00,2027           54135                           TS       MPTEMP
001502:
001503: 00,2030           10020                           CCS      CYR                                   #  SEE IF A ROUND IS DESIRED.
001504: 00,2031           02050        RIGHTR             TC       MPACSRND                              #  YES - SHIFT RIGHT AND ROUND.
001505: 00,2032           16057                           TCF      NEWMODE                               #  SET MODE TO DP (C(A) = 0).
001506: 00,2033           30135        MPACSHR            CA       MPTEMP                                #  DO A TRIPLE PRECISION SHIFT RIGHT.
001507: 00,2034           00006                           EXTEND
001508: 00,2035           70156                           MP       MPAC       +2
001509: 00,2036           54156                 +3        TS       MPAC       +2                         #  (EXIT FROM SQRT AND ABVAL).
001510: 00,2037           30135                           CA       MPTEMP
001511: 00,2040           00006                           EXTEND
001512: 00,2041           70154                           MP       MPAC                                  #  SHIFT MAJOR PART INTO A,L AND PLACE IN


001514: 00,2042           52155                           DXCH     MPAC                                  #  MPAC,+1.
001515: 00,2043           30135                           CA       MPTEMP
001516: 00,2044           00006                           EXTEND
001517: 00,2045           70001                           MP       L                                     #  ORIGINAL C(MPAC +1).
001518: 00,2046           20156                           DAS      MPAC       +1                         #  GUARANTEED NO OVERFLOW.
001519: 00,2047           16060                           TCF      DANZIG
001520:
001521:                                                                                                  #           MPAC SHIFT RIGHT AND ROUND SUBROUTINES.
001522:
001523: 00,2050           30156        MPACSRND           CA       MPAC       +2                         #  WE HAVE TO DO ALL THREE MULTIPLIES SINCE
001524: 00,2051           00006                           EXTEND                                         #  MPAC +1 AND MPAC +2 MIGHT HAVE SIGN
001525: 00,2052           70135                           MP       MPTEMP                                #  DISAGREEMENT WITH A SHIFT RIGHT OF 1.
001526: 00,2053           56155                           XCH      MPAC       +1
001527: 00,2054           00006                           EXTEND
001528: 00,2055           70135                           MP       MPTEMP
001529: 00,2056           56155                           XCH      MPAC       +1                         #  TRIAL MINOR PART.
001530: 00,2057           60001                           AD       L
001531:
001532: 00,2060           60000        VSHR2              DOUBLE                                         #  (FINISH VECTOR COMPONENT SHIFT RIGHT
001533: 00,2061           54156                           TS       MPAC       +2                         #  AND ROUND.
001534: 00,2062           12064                           TCF      +2
001535: 00,2063           26155                           ADS      MPAC       +1                         #  GUARANTEED NO OVERFLOW.
001536:
001537: 00,2064           34755                           CAF      ZERO
001538: 00,2065           54156                           TS       MPAC       +2
001539: 00,2066           56154                           XCH      MPAC                                  #  SETTING TO ZERO SO FOLLOWING DAS WORKS.
001540: 00,2067           00006                           EXTEND
001541: 00,2070           70135                           MP       MPTEMP
001542: 00,2071           20155                           DAS      MPAC                                  #  AGAIN NO OVERFLOW.
001543: 00,2072           00002                           TC       Q
001544:
001545: 00,2073           30135        VSHRRND            CA       MPTEMP                                #  ENTRY TO SHIFT RIGHT AND ROUND MPAC WHEN
001546: 00,2074           00006                           EXTEND                                         #  MPAC CONTAINS A VECTOR COMPONENT.
001547: 00,2075           70155                           MP       MPAC       +1
001548: 00,2076           54155                           TS       MPAC       +1
001549: 00,2077           56001                           XCH      L
001550: 00,2100           12060                           TCF      VSHR2                                 #  GO ADD ONE IF NECESSARY AND FINISH.
001551:


001553:                                                                                                  #           ROUTINE FOR SHORT SCALAR SHIFT LEFT (AND MAYBE ROUND).
001554:
001555: 00,2101           30021        TSSL               CA       SR                                    #  GET SHIFT COUNT FOR SR.
001556: 00,2102           54135                 +1        TS       MPTEMP
001557:
001558: 00,2103           00006                 +2        EXTEND                                         #  ENTRY HERE FROM SL FOR SCALARS.
001559: 00,2104           30156                           DCA      MPAC       +1                         #  SHIFTING LEFT ONE PLACE AT A TIME IS
001560: 00,2105           20156                           DAS      MPAC       +1                         #  FASTER THAN DOING THE WHOLE SHIFT WITH
001561: 00,2106           60154                           AD       MPAC                                  #  MULTIPLIES ASSUMING THAT FREQUENCY OF
001562: 00,2107           60154                           AD       MPAC                                  #  SHIFT COUNTS GOES DOWN RAPIDLY AS A
001563: 00,2110           54154                           TS       MPAC                                  #  FUNCTION OF THEIR MAGNITUDE.
001564: 00,2111           12113                           TCF      +2
001565: 00,2112           54121                           TS       OVFIND                                #  OVERFLOW. (LEAVES OVERFLOW-CORRECTED
001566:                                                                                                  #  RESULT ANYWAY).
001567: 00,2113           10135                           CCS      MPTEMP                                #  LOOP ON DECREMENTED SHIFT COUNT.
001568: 00,2114           12102                           TCF      TSSL       +1
001569:
001570: 00,2115           10020                           CCS      CYR                                   #  SEE IF ROUND WANTED.
001571: 00,2116           07135        ROUND              TC       ROUNDSUB                              #  YES - ROUND AND EXIT.
001572: 00,2117           16060                           TCF      DANZIG                                #  SL LEAVES A ZERO IN CYR FOR NO ROUND.
001573: 00,2120           16060                           TCF      DANZIG                                #  NO - EXIT IMMEDIATL
001574:


001576:                                                                                                  #  VECTOR SHIFTING ROUTINES.
001577:
001578: 00,2121           34757        SHORTV             CAF      LOW3                                  #  SAVE 3 BIT SHIFT COUNT - 1 WITHOUT
001579: 00,2122           70020                           MASK     CYR                                   #  EDITING CYR.
001580: 00,2123           54135                           TS       MPTEMP
001581: 00,2124           10020                           CCS      CYR                                   #  SEE IF LEFT OR RIGHT SHIFT.
001582: 00,2125           12145                           TCF      VSSL                                  #  VECTOR SHIFT LEFT.
001583: 00,2126           00176        OCT176             OCT      176                                   #  USED IN PROCESSED SHIFTS WITH - COUNT.
001584:
001585: 00,2127           50135        VSSR               INDEX    MPTEMP                                #  (ENTRY FROM SR). PICK UP SHIFTING BIT.
001586: 00,2130           34736                           CAF      BIT14                                 #  MPTEMP CONTAINS THE SHIFT COUNT - 1.
001587: 00,2131           54135                           TS       MPTEMP
001588: 00,2132           02073                           TC       VSHRRND                               #  SHIFT X COMPONENT.
001589:
001590: 00,2133           52155                           DXCH     MPAC                                  #  SWAP X AND Y COMPONENTS.
001591: 00,2134           52160                           DXCH     MPAC       +3
001592: 00,2135           52155                           DXCH     MPAC
001593: 00,2136           02073                           TC       VSHRRND                               #  SHIFT Y COMPONENT.
001594:
001595: 00,2137           52155                           DXCH     MPAC                                  #  SWAP Y AND Z COMPONENTS.
001596: 00,2140           52162                           DXCH     MPAC       +5
001597: 00,2141           52155                           DXCH     MPAC
001598: 00,2142           02073                           TC       VSHRRND                               #  SHIFT Z COMPONENT.
001599:
001600: 00,2143           17417                           TCF      VROTATEX                              #  RESTORE COMPONENTS TO PROPER PLACES.
001601:


001603:                                                                                                  #  VECTOR SHIFT LEFT - DONE ONE PLACE AT A TIME.
001604:
001605: 00,2144           54135                 -1        TS       MPTEMP                                #  SHIFTING LOOP.
001606:
001607: 00,2145           00006        VSSL               EXTEND
001608: 00,2146           30155                           DCA      MPAC
001609: 00,2147           20155                           DAS      MPAC
001610: 00,2150           00006                           EXTEND
001611: 00,2151           12153                           BZF      +2
001612: 00,2152           07016                           TC       OVERFLOW
001613:
001614: 00,2153           00006                           EXTEND
001615: 00,2154           30160                           DCA      MPAC       +3
001616: 00,2155           20160                           DAS      MPAC       +3
001617: 00,2156           00006                           EXTEND
001618: 00,2157           12161                           BZF      +2
001619: 00,2160           07013                           TC       OVERFLWY
001620:
001621: 00,2161           00006                           EXTEND
001622: 00,2162           30162                           DCA      MPAC       +5
001623: 00,2163           20162                           DAS      MPAC       +5
001624: 00,2164           00006                           EXTEND
001625: 00,2165           12167                           BZF      +2
001626: 00,2166           07010                           TC       OVERFLWZ
001627:
001628: 00,2167           10135                           CCS      MPTEMP                                #  LOOP ON DECREMENTED SHIFT COUNTER.
001629: 00,2170           12144                           TCF      VSSL       -1
001630: 00,2171           16060                           TCF      DANZIG                                #  EXIT.
001631:


001633:                                                                                                  #           TSLC - TRIPLE SHIFT LEFT AND COUNT. SHIFTS MPAC LEFT UNTIL GREATER THAN .5 IN MAGNITUDE, LEAVING
001634:                                                                                                  #  THE COMPLEMENT OF THE NUMBER OF SHIFTS REQUIRED IN X.
001635:
001636: 00,2172           54135        TSLC2              TS       MPTEMP                                #  START BY ZEROING SHIFT COUNT (IN A NOW).
001637: 00,2173           06722                           TC       BRANCH                                #  EXIT WITH NO SHIFTING IF ARGUMENT ZERO.
001638: 00,2174           12176                           TCF      +2
001639: 00,2175           12212                           TCF      ENDTSLC                               #  STORES ZERO SHIFT COUNT IN THIS CASE.
001640:
001641: 00,2176           07256                           TC       TPAGREE                               #  MAY CAUSE UPSHIFT OF ONE EXTRA PLACE.
001642:
001643: 00,2177           30154                           CA       MPAC                                  #  BEGIN NORMALIZATION LOOP.
001644: 00,2200           12207                           TCF      TSLCTEST
001645:
001646: 00,2201           24135        TSLCLOOP           INCR     MPTEMP                                #  INCREMENT SHIFT COUNTER.
001647: 00,2202           00006                           EXTEND
001648: 00,2203           30156                           DCA      MPAC       +1
001649: 00,2204           20156                           DAS      MPAC       +1
001650: 00,2205           60154                           AD       MPAC
001651: 00,2206           26154                           ADS      MPAC
001652: 00,2207           60000        TSLCTEST           DOUBLE                                         #  SEE IF (ANOTHER) SHIFT IS REQUIRED.
001653: 00,2210           54000                           OVSK
001654: 00,2211           12201                           TCF      TSLCLOOP                              #  YES - INCREMENT COUNT AND SHIFT AGAIN.
001655:
001656: 00,2212           40135        ENDTSLC            CS       MPTEMP
001657: 00,2213           16622                           TCF      STORE1                                #  STORE SHIFT COUNT AND RETURN TO DANZIG.
001658:


001660:                                                                                                  #           THE FOLLOWING ROUTINES PROCESSES THE GENERAL SHIFT INSTRUCTIONS SR, SRR, SL, AND SLR.
001661:                                                                                                  #  THE GIVEN ADDRESS IS DECODED AS FOLLOWS:
001662:
001663:                                                                                                  #           BITS 1-7    SHIFT COUNT (SUBADDRESS) LESS THAN 125 DECIMAL.
001664:                                                                                                  #           BIT 8       PSEUDO SIGN BIT (DETECTS CHANGE IN SIGN IN INDEXED SHIFTS).
001665:                                                                                                  #           BIT 9       0 FOR LEFT SHIFT, AND 1 FOR RIGHT SHIFT.
001666:                                                                                                  #           BIT 10      1 FOR TERMINAL ROUND ON SCALAR SHIFTS, 0 OTHERWISE.
001667:                                                                                                  #           BITS 11-13  0.
001668:                                                                                                  #           BIT 14      1.
001669:                                                                                                  #           BIT 15      0.
001670:
001671:                                                                                                  #  THE ABOVE ENCODING IS DONE BY THE YUL SYSTEM.
001672:
001673: 00,2214           70116        GENSHIFT           MASK     ADDRWD                                #  GET SHIFT COUNT, TESTING FOR ZERO.
001674: 00,2215           10000                           CCS      A                                     #  (ARRIVES WITH C(A) = LOW7).
001675: 00,2216           12224                           TCF      GENSHFT2                              #  IF NON-ZERO, PROCEED WITH DECREMENTED CT
001676:
001677: 00,2217           34742                           CAF      BIT10                                 #  ZERO SHIFT COUNT. NO SHIFTS NEEDED BUT
001678: 00,2220           70116                           MASK     ADDRWD                                #  WE MIGHT HAVE TO ROUND MPAC ON SLR AND
001679: 00,2221           10000                           CCS      A                                     #  SRR (SCALAR ONLY).
001680: 00,2222           07135                           TC       ROUNDSUB
001681: 00,2223           16060                           TCF      DANZIG
001682:
001683: 00,2224           54135        GENSHFT2           TS       MPTEMP                                #  DECREMENTED SHIFT COUNT TO MPTEMP.
001684: 00,2225           34744                           CAF      BIT8                                  #  TEST MEANING OF LOW SEVEN BIT COUNT IN
001685: 00,2226           00006                           EXTEND                                         #  MPTEMP NOW.
001686: 00,2227           70116                           MP       ADDRWD
001687: 00,2230           76244                           MASK     LOW2                                  #  JUMPS ON SHIFT DIRECTION (BIT8) AND
001688: 00,2231           50000                           INDEX    A
001689: 00,2232           12233                           TCF      +1                                    #  ORIGINAL SHIFT DIRECTION (BIT 9).
001690: 00,2233           12332                           TCF      RIGHT-                                #  NEGATIVE SHIFT COUNT FOR SL OR SLR.
001691: 00,2234           12342                           TCF      LEFT                                  #  SL OR SLR.
001692: 00,2235           12336                           TCF      LEFT-                                 #  NEGATIVE SHIFT COUNT WITH SR OR SRR.
001693:


001695:                                                                                                  #           GENERAL SHIFT RIGHT.
001696:
001697: 00,2236           10163        RIGHT              CCS      MODE                                  #  SEE IF VECTOR OR SCALAR.
001698: 00,2237           12277                           TCF      GENSCR
001699: 00,2240           12277                           TCF      GENSCR
001700:
001701: 00,2241           30135                           CA       MPTEMP                                #  SEE IF SHIFT COUNT LESS THAN 14D.
001702: 00,2242           63733        VRIGHT2            AD       NEG12
001703: 00,2243           00006                           EXTEND
001704: 00,2244           62127                           BZMF     VSSR                                  #  IF SO, BRANCH AND SHIFT IMMEDIATELY.
001705:
001706: 00,2245           67746                           AD       NEGONE                                #  IF NOT, REDUCE MPTEMP BY A TOTAL OF 14,
001707: 00,2246           54135                           TS       MPTEMP                                #  AND DO A SHIFT RIGHT AND ROUND BY 14.
001708: 00,2247           34755                           CAF      ZERO                                  #  THE ROUND AT THIS STAGE MAY INTRODUCE A
001709: 00,2250           54001                           TS       L                                     #  ONE BIT ERROR IN A SHIFT RIGHT 15D.
001710: 00,2251           56154                           XCH      MPAC
001711: 00,2252           56155                           XCH      MPAC       +1
001712: 00,2253           02272                           TC       SETROUND                              #  X COMPONENT NOW SHIFTED, SO MAKE UP THE
001713: 00,2254           20155                           DAS      MPAC                                  #  ROUNDING QUANTITY (0 IN A AND 0 OR +-1
001714:                                                                                                  #  IN L).
001715: 00,2255           56157                           XCH      MPAC       +3                         #  REPEAT THE ABOVE PROCESS FOR Y AND Z.
001716: 00,2256           56160                           XCH      MPAC       +4
001717: 00,2257           02272                           TC       SETROUND
001718: 00,2260           20160                           DAS      MPAC       +3                         #  NO OVERFLOW ON THESE ADDS.
001719:
001720: 00,2261           56161                           XCH      MPAC       +5
001721: 00,2262           56162                           XCH      MPAC       +6
001722: 00,2263           02272                           TC       SETROUND
001723: 00,2264           20162                           DAS      MPAC       +5
001724:
001725: 00,2265           10135                           CCS      MPTEMP                                #  SEE IF DONE, DOING FINAL DECREMENT.
001726: 00,2266           54135                           TS       MPTEMP
001727: 00,2267           12242                           TCF      VRIGHT2
001728: 00,2270           04604        BIASLO             DEC      .2974      B-1                        #  SQRT CONSTANT
001729:
001730: 00,2271           16060                           TCF      DANZIG
001731:
001732:
001733: 00,2272           60000        SETROUND           DOUBLE                                         #  MAKES UP ROUNDING QUANTITY FROM ARRIVING
001734: 00,2273           54156                           TS       MPAC       +2                         #  C(A). L IS ZERO INITIALLY.
001735: 00,2274           34755                           CAF      ZERO
001736: 00,2275           56001                           XCH      L
001737: 00,2276           00002                           TC       Q                                     #  RETURN AND DO THE DAS, RESETTING L TO 0.
001738:


001740:                                                                                                  #           PROCESS SR AND SRR FOR SCALARS.
001741:
001742: 00,2277           30135        GENSCR             CA       MPTEMP                                #  SEE IF THE ORIGINAL SHIFT COUNT WAS LESS
001743: 00,2300           63733                 +1        AD       NEG12                                 #  THAN 14D.
001744: 00,2301           00006                           EXTEND
001745: 00,2302           62322                           BZMF     DOSSHFT                               #  DO THE SHIFT IMMEDIATELY IF SO.
001746:
001747: 00,2303           67746                 +4        AD       NEGONE                                #  IF NOT, DECREMENT SHIFT COUNT BY 14D AND
001748: 00,2304           54135                           TS       MPTEMP                                #  SHIFT MPAC RIGHT 14 PLACES.
001749: 00,2305           34755                           CAF      ZERO
001750: 00,2306           56154                           XCH      MPAC
001751: 00,2307           56155                           XCH      MPAC       +1
001752: 00,2310           54156                           TS       MPAC       +2
001753: 00,2311           10135                           CCS      MPTEMP                                #  SEE IF FINISHED, DO FINAL DECREMENT.
001754: 00,2312           54135                           TS       MPTEMP
001755: 00,2313           02300                           TC       GENSCR     +1
001756: 00,2314           22650        SLOPEHI            DEC      .5884                                 #  SQRT CONSTANT.
001757: 00,2315           34742                           CAF      BIT10                                 #  FINISHED WITH SHIFT.  SEE IF ROUND
001758: 00,2316           70116                           MASK     ADDRWD                                #  WANTED.
001759: 00,2317           10000                           CCS      A
001760: 00,2320           07135                           TC       ROUNDSUB
001761: 00,2321           16060                           TCF      DANZIG                                #  DO SO AND/OR EXIT.
001762:
001763: 00,2322           50135        DOSSHFT            INDEX    MPTEMP                                #  PICK UP SHIFTING BIT.
001764: 00,2323           34736                           CAF      BIT14
001765: 00,2324           54135                           TS       MPTEMP
001766: 00,2325           34742                           CAF      BIT10                                 #  SEE IF TERMINAL ROUND DESIRED.
001767: 00,2326           70116                           MASK     ADDRWD
001768: 00,2327           10000                           CCS      A
001769: 00,2330           12031                           TCF      RIGHTR                                #  YES.
001770: 00,2331           12033                           TCF      MPACSHR                               #  JUST SHIFT RIGHT.
001771:


001773:                                                                                                  #           PROCESS THE RIGHT- (SL(R) WITH A NEGATIVE COUNT), LEFT-, AND LEFT OPTIONS.
001774:
001775: 00,2332           40135        RIGHT-             CS       MPTEMP                                #  GET ABSOLUTE VALUE - 1 OF SHIFT COUNT
001776: 00,2333           62126                           AD       OCT176                                #  UNDERSTANDING THAT BIT8 (PSEUDO-SIGN)
001777: 00,2334           54135                           TS       MPTEMP                                #  WAS 1 INITIALLY.
001778: 00,2335           12236                           TCF      RIGHT                                 #  DO NORMAL SHIFT RIGHT.
001779:
001780: 00,2336           42126        LEFT-              CS       OCT176                                #  SAME PROLOGUE TO LEFT FOR INDEXED RIGHT
001781: 00,2337           60135                           AD       MPTEMP                                #  SHIFTS WHOSE NET SHIFT COUNT IS NEGATIVE
001782: 00,2340           40000                           COM
001783: 00,2341           54135                           TS       MPTEMP
001784:
001785: 00,2342           10163        LEFT               CCS      MODE                                  #  SINCE LEFT SHIFTING IS SONE ONE PLACE AT
001786: 00,2343           12346                           TCF      GENSCL                                #  A TIME, NO COMPARISON WITH 14 NEED BE
001787: 00,2344           12346                           TCF      GENSCL                                #  DONE. FOR SCALARS, SEE IF TERMINAL ROUND
001788: 00,2345           12145                           TCF      VSSL                                  #  DESIRED. FOR VECTORS, SHIFT IMMEDIATELY.
001789:
001790: 00,2346           40116        GENSCL             CS       ADDRWD                                #  PUT ROUNDING BIT (BIT 10 OF ADDRWD) INTO
001791: 00,2347           00006                           EXTEND                                         #  BIT 15 OF CYR WHERE THE ROUNDING BIT OF
001792: 00,2350           74746                           MP       BIT6                                  #  A SHORT SHIFT LEFT WOULD BE
001793: 00,2351           54020                           TS       CYR
001794: 00,2352           12103                           TCF      TSSL       +2                         #  DO THE SHIFT.
001795:


001797:                                                                                                  #           SCALAR DIVISION INSTRUCTIONS, DDV AND BDDV, ARE EXECUTED HERE. AT THIS POINT, THE DIVIDEND IS IN MPAC
001798:                                                                                                  #  AND THE DIVISOR IN BUF.
001799:
001800: 00,2353           44753        DDV/BDDV           CS       ONE                                   #  INITIALIZATION.
001801: 00,2354           54136                           TS       DVSIGN                                #  +-1 FOR POSITIVE QUOTIENT - -0 FOR NEG.
001802: 00,2355           54137                           TS       DVNORMCT                              #  DIVIDEND NORMALIZATION COUNT.
001803: 00,2356           54140                           TS       MAXDVSW                               #  NEAR-ONE DIVIDE FLAG.
001804:
001805: 00,2357           10130                           CCS      BUF                                   #  FORCE BUF POSITIVE WITH THE MAJOR PART
001806: 00,2360           12516                           TCF      BUFPOS                                #  NON-ZERO.
001807: 00,2361           12363                           TCF      +2
001808: 00,2362           12531                           TCF      BUFNEG
001809:
001810: 00,2363           54156        BUFZERO            TS       MPAC       +2                         #  ZERO THIS.
001811: 00,2364           07256                           TC       TPAGREE                               #  FORCE SIGN AGREEMENT BEFORE OVERFLOW
001812:
001813: 00,2365           10154                           CCS      MPAC                                  #  TEST TO SEE IF MPAC NON-ZERO.  (TOO BIG)
001814: 00,2366           12414                           TCF      OVF+                                  #  MAJOR PART OF DIVIDEND IS POSITIVE NON-0
001815: 00,2367           12371                           TCF      +2
001816: 00,2370           12413                           TCF      OVF+       -1                         #  MAJOR PART OF DIVIDEND IS NEG. NON-ZERO
001817:
001818: 00,2371           56131                           XCH      BUF        +1                         #  SHIFT DIVIDEND AND DIVISOR LEFT 14.
001819: 00,2372           56130                           XCH      BUF
001820: 00,2373           56155                           XCH      MPAC       +1
001821: 00,2374           56154                           XCH      MPAC
001822: 00,2375           10130                           CCS      BUF                                   #  TRY AGAIN ON FORMER MINOR PART.
001823: 00,2376           12422                           TCF      BUF+
001824: 00,2377           12401                           TCF      +2                                    #  OVERFLOW ON ZERO DIVISOR.
001825: 00,2400           12416                           TCF      BUF-
001826:
001827: 00,2401           40154                           CS       MPAC                                  #  SIGN OF MPAC DETERMINES SIGN OF RESULT.
001828: 00,2402           00006        SGNDVOVF           EXTEND
001829: 00,2403           62405                           BZMF     +2
001830: 00,2404           24136                           INCR     DVSIGN                                #  NEGMAX IN MPAC PERHAPS.
001831: 00,2405           34733        DVOVF              CAF      POSMAX                                #  ON DIVISION OVERFLOW OF ANY SORT, SET
001832: 00,2406           54154                           TS       MPAC                                  #  SET DP MPAC TO +-POSMAX.
001833: 00,2407           02630                           TC       FINALDV    +3
001834: 00,2410           34753                           CAF      ONE                                   #  SET OVERFLOW INDICATOR AND EXIT.
001835: 00,2411           54121                           TS       OVFIND
001836: 00,2412           06060                           TC       DANZIG
001837:
001838: 00,2413           24136                 -1        INCR     DVSIGN
001839: 00,2414           40131        OVF+               CS       BUF        +1                         #  LOAD LOWER ORDER PART OF DIVISOR.
001840: 00,2415           12402                           TCF      SGNDVOVF                              #  GET SIGN OF RESULT.
001841:
001842: 00,2416           00006        BUF-               EXTEND                                         #  IF BUF IS NEGATIVE, COMPLEMENT IT AND
001843: 00,2417           40131                           DCS      BUF                                   #  MAINTAIN DVSIGN FOR FINAL QUOTIENT SIGN.
001844: 00,2420           52131                           DXCH     BUF
001845: 00,2421           24136                           INCR     DVSIGN                                #  NOW -0.
001846:


001848: 00,2422           10154        BUF+               CCS      MPAC                                  #  FORCE MPAC POSITIVE, CHECKING FOR ZERO
001849: 00,2423           12437                           TCF      MPAC+                                 #  DIVIDEND IN THE PROCESS.
001850: 00,2424           12426                           TCF      +2
001851: 00,2425           12433                           TCF      MPAC-
001852: 00,2426           10155                           CCS      MPAC       +1
001853: 00,2427           12437                           TCF      MPAC+
001854: 00,2430           16060                           TCF      DANZIG                                #  EXIT IMMEDIATELY ON ZERO DIVIDEND.
001855: 00,2431           12433                           TCF      MPAC-
001856: 00,2432           16060                           TCF      DANZIG
001857:
001858: 00,2433           00006        MPAC-              EXTEND                                         #  FORCE MPAC POSITIVE AS BUF IN BUF-.
001859: 00,2434           40155                           DCS      MPAC
001860: 00,2435           52155                           DXCH     MPAC
001861: 00,2436           24136                           INCR     DVSIGN                                #  NOW +1 OR -0.
001862:


001864: 00,2437           40154        MPAC+              CS       MPAC                                  #  CHECK FOR DIVISION OVERFLOW. IF THE
001865: 00,2440           67746                           AD       NEGONE                                #  MAJOR PART OF THE DIVIDEND IS LESS THAN
001866: 00,2441           60130                           AD       BUF                                   #  THE MAJOR PART OF THE DIVISOR BY AT
001867: 00,2442           10000                           CCS      A                                     #  LEAST TWO, WE CAN PROCEED IMMEDIATELY
001868: 00,2443           12505                           TCF      DVNORM                                #  WITHOUT NORMALIZATION PRODUCING A DVMAX.
001869: 00,2444           60001        -1/2+2             OCT      60001                                 #  USED IN SQRTSUB.
001870:
001871: 00,2445           12446                           TCF      +1                                    #  IF THE ABOVE DOES NOT HOLD, FORCE SIGN
001872: 00,2446           34736                           CAF      HALF                                  #  AGREEMENT IN NUMERATOR AND DENOMINATOR
001873: 00,2447           60000                           DOUBLE                                         #  TO FACILITATE OVERFLOW AND NEAR-ONE
001874: 00,2450           60155                           AD       MPAC       +1                         #  CHECKING.
001875: 00,2451           54155                           TS       MPAC       +1
001876: 00,2452           34755                           CAF      ZERO
001877: 00,2453           64733                           AD       POSMAX
001878: 00,2454           26154                           ADS      MPAC
001879:
001880: 00,2455           34736                           CAF      HALF                                  #  SAME FOR BUF.
001881: 00,2456           60000                           DOUBLE
001882: 00,2457           60131                           AD       BUF        +1
001883: 00,2460           54131                           TS       BUF        +1
001884: 00,2461           34755                           CAF      ZERO
001885: 00,2462           64733                           AD       POSMAX
001886: 00,2463           26130                           ADS      BUF
001887:
001888: 00,2464           40154                           CS       MPAC                                  #  CHECK MAGNITUDE OF SIGN-CORRECTED
001889: 00,2465           60130                           AD       BUF                                   #  OPERANDS.
001890: 00,2466           10000                           CCS      A
001891: 00,2467           12505                           TCF      DVNORM                                #  DIVIDE OK - WILL NOT BECOME MAXDV CASE.
001892: 00,2470           00133        LBUF2              ADRES    BUF2
001893: 00,2471           12405                           TCF      DVOVF                                 #  DIVISOR NOT LESS THAN DIVIDEND - OVF.
001894:
001895: 00,2472           54140                           TS       MAXDVSW                               #  IF THE MAJOR PARTS OF THE DIVIDEND AND
001896: 00,2473           40155                           CS       MPAC       +1                         #  DIVISOR ARE EQUAL, A SPECIAL APPROXIMA-
001897: 00,2474           60131                           AD       BUF        +1                         #  TION IS USED (PROVIDED THE DIVISION IS
001898: 00,2475           00006                           EXTEND                                         #  POSSIBLE, OF COURSE).
001899: 00,2476           62405                           BZMF     DVOVF
001900: 00,2477           12505                           TCF      DVNORM                                #  IF NO OVERFLOW.
001901:


001903: 00,2500           00006        BUFNORM            EXTEND                                         #  ADD -1 TO AUGMENT SHIFT COUNT AND SHIFT
001904: 00,2501           24137                           AUG      DVNORMCT                              #  LEFT ONE PLACE.
001905: 00,2502           00006                           EXTEND
001906: 00,2503           30131                           DCA      BUF
001907: 00,2504           20131                           DAS      BUF
001908:
001909: 00,2505           30130        DVNORM             CA       BUF                                   #  SEE IF DIVISOR NORMALIZED YET.
001910: 00,2506           60000                           DOUBLE
001911: 00,2507           54000                           OVSK
001912: 00,2510           12500                           TCF      BUFNORM                               #  NO - SHIFT LEFT ONE AND TRY AGAIN.
001913:
001914: 00,2511           52155                           DXCH     MPAC                                  #  CALL DIVIDEND NORMALIZATION SEQUENCE
001915: 00,2512           50137                           INDEX    DVNORMCT                              #  PRIOR TO DOING THE DIVIDE.
001916: 00,2513           02565                           TC       MAXTEST
001917:
001918: 00,2514           54156                           TS       MPAC       +2                         #  RETURNS WITH DIVISION DONE AND C(A) = 0.
001919: 00,2515           16060                           TCF      DANZIG
001920:
001921: 00,2516           10000        BUFPOS             CCS      A
001922: 00,2517           12422                           TCF      BUF+                                  #  TO BUF+ IF BUF IS GREATER THAN +1.
001923:
001924: 00,2520           40131                           CS       BUF        +1                         #  IF BUF IS +1, FORCING SIGN AGREEMENT
001925: 00,2521           00006                           EXTEND                                         #  MAY CAUSE BUF TO BECOME ZERO.
001926: 00,2522           62422                           BZMF     BUF+                                  #  BRANCH IF SIGNS AGREE.
001927:
001928: 00,2523           34736                           CA       HALF                                  #  SIGNS DISAGREE.  FORCE AGREEMENT.
001929: 00,2524           60000                 +6        DOUBLE
001930: 00,2525           26131                           ADS      BUF        +1
001931: 00,2526           34755                           CA       ZERO
001932: 00,2527           54130                           TS       BUF
001933: 00,2530           12363                           TCF      BUFZERO
001934:
001935:
001936: 00,2531           10000        BUFNEG             CCS      A
001937: 00,2532           12416                           TCF      BUF-                                  #  TO BUF- IF BUF IS LESS THAN -1.
001938:
001939: 00,2533           30131                           CA       BUF        +1                         #  IF BUF IS -1, FORCING SIGN AGREEMENT
001940: 00,2534           00006                           EXTEND                                         #  MAY CAUSE BUF TO BECOME ZERO.
001941: 00,2535           62416                           BZMF     BUF-                                  #  BRANCH IF SIGNS AGREE.
001942:
001943: 00,2536           44736                           CS       HALF                                  #  SIGNS DISAGREE.  FORCE AGREEMENT.
001944: 00,2537           12524                           TCF      BUFPOS     +6
001945:


001947:                                                                                                  #           THE FOLLOWING ARE PROLOGUES TO SHIFT THE DIVIDEND ARRIVING IN A AND L BEFORE THE DIVIDE.
001948:
001949: 00,2540           22021                 -21D      LXCH     SR                                    #  SPECIAL PROLOGUE FOR UNIT WHEN THE
001950: 00,2541           00006                           EXTEND                                         #  LENGTH OF THE ARGUMENT WAS NOT LESS THAN
001951: 00,2542           74736                           MP       HALF                                  #  .5. IN THIS CASE, EACH COMPONENT MUST BE
001952: 00,2543           56001                           XCH      L                                     #  SHIFTED RIGHT ONE TO PRODUCE A HALF-UNIT
001953: 00,2544           60021                           AD       SR                                    #  VECTOR.
001954: 00,2545           56001                           XCH      L
001955: 00,2546           12571                           TCF      GENDDV     +1                         #  WITH DP DIVIDEND IN A,L.
001956:
001957: 00,2547           20001                           DDOUBL                                         #  PROLOGUE WHICH NORMALIZES THE DIVIDEND
001958: 00,2550           20001                           DDOUBL                                         #  WHEN IT IS KNOWN THAT NO DIVISION
001959: 00,2551           20001                           DDOUBL                                         #  OVERFLOW WILL OCCUR.
001960: 00,2552           20001                           DDOUBL
001961: 00,2553           20001                           DDOUBL
001962: 00,2554           20001                           DDOUBL
001963: 00,2555           20001                           DDOUBL
001964: 00,2556           20001                           DDOUBL
001965: 00,2557           20001                           DDOUBL
001966: 00,2560           20001                           DDOUBL
001967: 00,2561           20001                           DDOUBL
001968: 00,2562           20001                           DDOUBL
001969: 00,2563           20001                           DDOUBL
001970: 00,2564           52155                           DXCH     MPAC
001971:
001972: 00,2565           10140        MAXTEST            CCS      MAXDVSW                               #  0 IF MAJORS MIGHT BE =, -1 OTHERWISE.
001973: 00,2566           06552        BIASHI             DEC      .4192      B-1                        #  SQRT CONSTANTS
001974:
001975: 00,2567           12642                           TCF      MAXDV                                 #  CHECK TO SEE IF THEY ARE NOW EQUAL.
001976:


001978:                                                                                                  #           THE FOLLOWING IS A GENERAL PURPOSE DOUBLE PRECISION DIVISION ROUTINE. IT DIVIDES MPAC BY BUF AND LEAVES
001979:                                                                                                  #  THE RESULT IN MPAC. THE FOLLOWING CONDITIONS MUST BE SATISFIED:
001980:
001981:                                                                                                  #           1.  THE DIVISOR (BUF) MUST BE POSITIVE AND NOT LESS THAN .5.
001982:
001983:                                                                                                  #           2.  THE DIVIDEND (MPAC) MUST BE POSITIVE WITH THE MAJOR PART OF MPAC STRICTLY LESS THAN THAT OF BUF
001984:                                                                                                  #  (A SPECIAL APPROXIMATION, MAXDV, IS USED WHEN THE MAJOR PARTS ARE EQUAL).
001985:
001986:                                                                                                  #           UNDERSTANDING THAT A/B = Q + S(R/B) WHERE S = 2(-14) AND Q AND R ARE QUOTIENT AND REMAINDER, RESPEC-
001987:                                                                                                  #  TIVELY, THE FOLLOWING APPROXIMATION IS OBTAINED BY MULTIPLYING ABOVE AND BELOW BY C - SD AND NEGLECTING TERMS OF
001988:                                                                                                  #  ORDER S-SQUARED (POSSIBLY INTRODUCING ERROR INTO THE LOW TWO BITS OF THE RESULT). SIGN AGREEMENT IS UNNECESSARY.
001989:
001990:                                                                                                  #           A + SB .      (R - QD)                                             A + SB
001991:                                                                                                  #           ------ = Q + S(------) WHERE Q AND R ARE QUOTIENT AND REMAINDER OF ------ RESPECTIVELY.
001992:                                                                                                  #           C + SD        (  C   )                                                C
001993:
001994:
001995: 00,2570           52155        GENDDV             DXCH     MPAC                                  #  WE NEED A AND B ONLY FOR FIRST DV.
001996: 00,2571           00006                 +1        EXTEND                                         #  (SPECIAL UNIT PROLOGUE ENTERS HERE).
001997: 00,2572           10130                           DV       BUF                                   #  A NOW CONTAINS Q AND L, R.
001998: 00,2573           52155                           DXCH     MPAC
001999:
002000: 00,2574           40154                           CS       MPAC                                  #  FORM DIVIDEND FOR MINOR PART OF RESULT.
002001: 00,2575           00006                           EXTEND
002002: 00,2576           70131                           MP       BUF        +1
002003: 00,2577           60155                           AD       MPAC       +1                         #  OVERFLOW AT THIS POINT IS POSITIVE SINCE
002004: 00,2600           54000                           OVSK                                           #  R IS POSITIVE IN EVERY CASE.
002005: 00,2601           12606                           TCF      +5
002006:
002007: 00,2602           00006                           EXTEND                                         #  OVERFLOW CAN BE REMOVED BY SUBTRACTING C
002008: 00,2603           60130                           SU       BUF                                   #  (BUF) ONCE SINCE R IS ALWAYS LESS THAN C
002009: 00,2604           24154                           INCR     MPAC                                  #  IN THIS CASE. INCR COMPENSATES SUBTRACT.
002010: 00,2605           12610                           TCF      +DOWN                                 #  (SINCE C(A) IS STILL POSITIVE).
002011:
002012: 00,2606           00006                 +5        EXTEND                                         #  C(A) CAN BE MADE LESS THAN C IN MAGNI-
002013: 00,2607           62620                           BZMF     -UP                                   #  TUDE BY DIMINISHING IT BY C (SINCE C IS
002014:                                                                                                  #  NOT LESS THAN .5) UNLESS C(A) = 0.
002015:


002017: 00,2610           00006        +DOWN              EXTEND
002018: 00,2611           60130                           SU       BUF                                   #  IF POSITIVE, REDUCE ONLY IF NECESSARY
002019: 00,2612           00006                           EXTEND                                         #  SINCE THE COMPENSATING INCR MIGHT CAUSE
002020: 00,2613           12616                           BZF      +3                                    #  OVERFLOW.
002021: 00,2614           00006                           EXTEND                                         #  DONT SUBTRACT UNLESS RESULT IS POSITIVE
002022: 00,2615           62624                           BZMF     ENDMAXDV                              #  OR ZERO.
002023:
002024: 00,2616           24154                 +3        INCR     MPAC                                  #  KEEP SUBTRACT HERE AND COMPENSATE.
002025: 00,2617           12625                           TCF      FINALDV
002026:
002027: 00,2620           00006        -UP                EXTEND                                         #  IF ZERO, SET MINOR PART OF RESULT TO
002028: 00,2621           12630                           BZF      FINALDV    +3                         #  ZERO.
002029:
002030: 00,2622           00006                           EXTEND                                         #  IF NEGATIVE, ADD C TO A, SUBTRACTING ONE
002031: 00,2623           26154                           DIM      MPAC                                  #  TO COMPENSATE. DIM IS OK HERE SINCE THE
002032: 00,2624           60130        ENDMAXDV           AD       BUF                                   #  MAJOR PART NEVER GOES NEGATIVE.
002033:


002035: 00,2625           22007        FINALDV            ZL                                             #  DO DV TO OBTAIN MINOR PART OF RESULT.
002036: 00,2626           00006                           EXTEND
002037: 00,2627           10130                           DV       BUF
002038: 00,2630           54155                 +3        TS       MPAC       +1
002039:
002040: 00,2631           10136                           CCS      DVSIGN                                #  LEAVE RESULT POSITIVE UNLESS C(DVSIGN)=
002041: 00,2632           00002                           TC       Q                                     #  -0.
002042: 00,2633           00002                           TC       Q
002043: 00,2634           00002                           TC       Q
002044:
002045: 00,2635           00006                           EXTEND
002046: 00,2636           40155                           DCS      MPAC
002047: 00,2637           52155                           DXCH     MPAC
002048: 00,2640           34755                           CAF      ZERO                                  #  SO WE ALWAYS RETURN WITH C(A) = 0.
002049: 00,2641           00002                           TC       Q
002050:


002052:                                                                                                  #           IF THE MAJOR PARTS OF THE DIVISOR AND DIVIDEND ARE EQUAL, BUT THE MINOR PARTS ARE SUCH THAT THE
002053:                                                                                                  #  DIVIDEND IS STRICTLY LESS THAN THE DIVISOR IN MAGNITUDE, THE FOLLOWING APPROXIMATION IS USED. THE ASSUMPTIONS
002054:                                                                                                  #  ARE THE SAME AS THE GENERAL ROUTINE WITH THE ADDITION THAT SIGN AGREEMENT IS NECESSARY (B, C, & D POSITIVE).
002055:
002056:                                                                                                  #                  C + SB .          (C + B - D)
002057:                                                                                                  #                  ------ = 37777 + S(---------)
002058:                                                                                                  #                  C + SD            (    C    )
002059:
002060:                                                                                                  #           THE DIVISION MAY BE PERFORMED IMMEDIATELY SINCE B IS STRICTLY LESS THAN D AND C IS NOT LESS THAN .5.
002061:
002062:
002063: 00,2642           40154        MAXDV              CS       MPAC                                  #  SEE IF MAXDV CASE STILL HOLDS AFTER
002064: 00,2643           60130                           AD       BUF                                   #  NORMALIZATION.
002065: 00,2644           00006                           EXTEND
002066: 00,2645           12647                           BZF      +2
002067: 00,2646           12570                           TCF      GENDDV                                #  MPAC NOW LESS THAN BUF - DIVIDE AS USUAL
002068:
002069: 00,2647           34733                 +2        CAF      POSMAX                                #  SET MAJOR PART OF RESULT.
002070: 00,2650           54154                           TS       MPAC
002071:
002072: 00,2651           40131                           CS       BUF        +1                         #  FORM DIVIDEND OF MINOR PART OF RESULT.
002073: 00,2652           60155                           AD       MPAC       +1
002074: 00,2653           12624                           TCF      ENDMAXDV                              #  GO ADD C AND DO DIVIDE, ATTACHING SIGN
002075:                                                                                                  #  BEFORE EXITING.
002076:


002078:                                                                                                  #           VECTOR DIVIDED BY SCALAR, V/SC, IS EXECUTED HERE. THE VECTOR IS NOW IN MPAC WITH SCALAR IN BUF.
002079:
002080: 00,2654           44753        V/SC2              CS       ONE                                   #  INITIALIZE DIVIDEND NORMALIZATION COUNT
002081: 00,2655           54137                           TS       DVNORMCT                              #  AND DIVISION SIGN REGISTER.
002082: 00,2656           54127                           TS       VBUF       +5
002083:
002084: 00,2657           03010                           TC       VECAGREE                              #  FORCE SIGN AGREEMENT IN VECTOR
002085:
002086: 00,2660           52131                           DXCH     BUF
002087: 00,2661           07543                           TC       ALSIGNAG                              #  SIGN AGREE BUF
002088: 00,2662           52131                           DXCH     BUF
002089: 00,2663           10130                           CCS      BUF                                   #  FORCE DIVISOR POSITIVE WITH MAJOR PART
002090: 00,2664           12721                           TCF      /BUF+                                 #  NON-ZERO (IF POSSIBLE).
002091: 00,2665           12667                           TCF      +2
002092: 00,2666           12715                           TCF      /BUF-
002093:
002094: 00,2667           56131                           XCH      BUF        +1                         #  SHIFT VECTOR AND SCALAR LEFT 14.
002095: 00,2670           56130                           XCH      BUF
002096: 00,2671           56155                           XCH      MPAC       +1
002097: 00,2672           56154                           XCH      MPAC
002098: 00,2673           00006                           EXTEND                                         #  CHECK FOR OVERFLOW IN EACH CASE.
002099: 00,2674           12676                           BZF      +2
002100: 00,2675           12405                           TCF      DVOVF
002101:
002102: 00,2676           56160                           XCH      MPAC       +4
002103: 00,2677           56157                           XCH      MPAC       +3
002104: 00,2700           00006                           EXTEND
002105: 00,2701           12703                           BZF      +2
002106: 00,2702           12405                           TCF      DVOVF
002107:
002108: 00,2703           56162                           XCH      MPAC       +6
002109: 00,2704           56161                           XCH      MPAC       +5
002110: 00,2705           00006                           EXTEND
002111: 00,2706           12710                           BZF      +2
002112: 00,2707           12405                           TCF      DVOVF
002113:
002114: 00,2710           10130                           CCS      BUF
002115: 00,2711           12721                           TCF      /BUF+
002116: 00,2712           12405                           TCF      DVOVF                                 #  ZERO DIVISOR - OVERFLOW.
002117: 00,2713           12715                           TCF      /BUF-
002118: 00,2714           12405                           TCF      DVOVF
002119:
002120: 00,2715           00006        /BUF-              EXTEND                                         #  ON NEGATIVE, COMPLEMENT BUF AND MAINTAIN
002121: 00,2716           40131                           DCS      BUF                                   #  DVSIGN IN VBUF +5.
002122: 00,2717           52131                           DXCH     BUF
002123: 00,2720           24127                           INCR     VBUF       +5
002124:


002126: 00,2721           00006        /BUF+              EXTEND
002127: 00,2722           30131                           DCA      BUF                                   #  LEAVE ABS(ORIG DIVISOR) IN BUF2
002128: 00,2723           52134                           DXCH     BUF2                                  #  FOR OVERFLOW TESTING
002129: 00,2724           12732                           TCF      /NORM                                 #  NORMALIZE DIVISOR IN BUF.
002130:
002131: 00,2725           00006        /NORM2             EXTEND                                         #  IF LESS THAN .5, AUGMENT DVNORMCT AND
002132: 00,2726           24137                           AUG      DVNORMCT                              #  DOUBLE DIVISOR.
002133: 00,2727           00006                           EXTEND
002134: 00,2730           30131                           DCA      BUF
002135: 00,2731           20131                           DAS      BUF
002136:
002137: 00,2732           30130        /NORM              CA       BUF                                   #  SEE IF DIVISOR NORMALIZED.
002138: 00,2733           60000                           DOUBLE
002139: 00,2734           54000                           OVSK
002140: 00,2735           12725                           TCF      /NORM2                                #  DOUBLE AND TRY AGAIN IF NOT.
002141:
002142: 00,2736           02750                           TC       V/SCDV                                #  DO X COMPONENT DIVIDE.
002143: 00,2737           52160                           DXCH     MPAC       +3                         #  SUPPLY ARGUMENTS IN USUAL SEQUENCE.
002144: 00,2740           52155                           DXCH     MPAC
002145: 00,2741           52160                           DXCH     MPAC       +3
002146:
002147: 00,2742           02750                           TC       V/SCDV                                #  Y COMPONENT.
002148: 00,2743           52162                           DXCH     MPAC       +5
002149: 00,2744           52155                           DXCH     MPAC
002150: 00,2745           52162                           DXCH     MPAC       +5
002151:
002152: 00,2746           02750                           TC       V/SCDV                                #  Z COMPONENT.
002153: 00,2747           17417                           TCF      VROTATEX                              #  GO RE-ARRANGE COMPONENTS BEFORE EXIT.
002154:


002156:                                                                                                  #           SUBROUTINE USED BY V/SC TO DIVIDE VECTOR COMPONENT IN MPAC,+1 BY THE SCALAR GIVEN IN BUF.
002157:
002158: 00,2750           30127        V/SCDV             CA       VBUF       +5                         #  REFLECTS SIGN OF SCALAR.
002159: 00,2751           54136                           TS       DVSIGN
002160:
002161: 00,2752           10154                           CCS      MPAC                                  #  FORCE MPAC POSITIVE, EXITING ON ZERO.
002162: 00,2753           12767                           TCF      /MPAC+
002163: 00,2754           12756                           TCF      +2
002164: 00,2755           12763                           TCF      /MPAC-
002165:
002166: 00,2756           10155                           CCS      MPAC       +1
002167: 00,2757           12767                           TCF      /MPAC+
002168: 00,2760           00002                           TC       Q
002169: 00,2761           12763                           TCF      /MPAC-
002170: 00,2762           00002                           TC       Q
002171:
002172: 00,2763           00006        /MPAC-             EXTEND                                         #  USUAL COMPLEMENTING AND SETTING OF SIGN.
002173: 00,2764           40155                           DCS      MPAC
002174: 00,2765           52155                           DXCH     MPAC
002175: 00,2766           24136                           INCR     DVSIGN
002176:
002177: 00,2767           44753        /MPAC+             CS       ONE                                   #  INITIALIZE NEAR-ONE SWITCH.
002178: 00,2770           54140                           TS       MAXDVSW
002179:
002180: 00,2771           40154                           CS       MPAC                                  #  CHECK POSSIBLE OVERFLOW.
002181: 00,2772           60133                           AD       BUF2                                  #  UNNORMALIZED INPUT DIVISOR.
002182: 00,2773           10000                           CCS      A
002183: 00,2774           13004                           TCF      DDVCALL                               #  NOT NEAR-ONE
002184: 00,2775           12777                           TCF      +2                                    #  +0 IS JUST POSSIBLE
002185: 00,2776           12405                           TCF      DVOVF                                 #  NO HOPE
002186: 00,2777           54140                           TS       MAXDVSW                               #  SIGNAL POSSIBLE NEAR-ONE CASE
002187: 00,3000           40155                           CS       MPAC       +1                         #  SEE IF DIVISION CAN BE DONE
002188: 00,3001           60134                           AD       BUF2       +1
002189: 00,3002           00006                           EXTEND
002190: 00,3003           62405                           BZMF     DVOVF
002191:
002192: 00,3004           52155        DDVCALL            DXCH     MPAC                                  #  CALL PRE-DIVIDE NORMALIZATION.
002193: 00,3005           50137                           INDEX    DVNORMCT
002194: 00,3006           12565                           TCF      MAXTEST
002195:


002197: 00,3007           32506        SLOPELO            DEC      .8324
002198:
002199: 00,3010           56002        VECAGREE           XCH      Q                                     #  SAVE Q IN A
002200: 00,3011           52155                           DXCH     MPAC
002201: 00,3012           07543                           TC       ALSIGNAG                              #  SIGNAGREE MPAC
002202: 00,3013           52155                           DXCH     MPAC
002203: 00,3014           52160                           DXCH     MPAC       +3
002204: 00,3015           07543                           TC       ALSIGNAG                              #  SIGN AGREE MPAC +3
002205: 00,3016           52160                           DXCH     MPAC       +3
002206: 00,3017           52162                           DXCH     MPAC       +5
002207: 00,3020           07543                           TC       ALSIGNAG                              #  SIGNAGREE MPAC +5
002208: 00,3021           52162                           DXCH     MPAC       +5
002209: 00,3022           00000                           TC       A
002210:


002212:                                                                                                  #           THE FOLLOWING ROUTINE EXECUTES THE UNIT INSTRUCTION, WHICH TAKES THE UNIT OF THE VECTOR IN MPAC.
002213:
002214: 00,3023           03010        UNIT               TC       VECAGREE                              #  FORCE SIGN AGREEMENT IN VECTOR
002215: 00,3024           07531                           TC       MPACVBUF                              #  SAVE ARGUMENT IN VBUF
002216: 00,3025           34755                           CAF      ZERO                                  #  MUST SENSE OVERFLOW IN FOLLOWING DOT.
002217: 00,3026           56121                           XCH      OVFIND
002218: 00,3027           54141                           TS       TEM1
002219: 00,3030           03317                           TC       VSQSUB                                #  DOT MPAC WITH ITSELF.
002220: 00,3031           30141                           CA       TEM1
002221: 00,3032           56121                           XCH      OVFIND
002222: 00,3033           00006                           EXTEND
002223: 00,3034           13036                           BZF      +2
002224: 00,3035           12405                           TCF      DVOVF
002225: 00,3036           00006                           EXTEND
002226: 00,3037           30155                           DCA      MPAC                                  #  LEAVE THE SQUARE OF THE LENGTH OF THE
002227: 00,3040           50120                           INDEX    FIXLOC                                #  ARGUMENT IN LVSQUARE.
002228: 00,3041           52043                           DXCH     LVSQUARE
002229:
002230: 00,3042           03343                           TC       SQRTSUB                               #  GO TAKE THE NORMALIZED SQUARE ROOT.
002231:
002232: 00,3043           10154                           CCS      MPAC                                  #  CHECK FOR UNIT OVERFLOW.
002233: 00,3044           13051                           TCF      +5                                    #  MPAC IS NOT LESS THAN .5 UNLESS
002234: 00,3045           54001                           TS       L
002235: 00,3046           50120                           INDEX    FIXLOC
002236: 00,3047           52045                           DXCH     LV
002237: 00,3050           12405                           TCF      DVOVF                                 #  INPUT TO SQRTSUB WAS 0.
002238:
002239: 00,3051           44317                           CS       FOURTEEN                              #  SEE IF THE INPUT WAS SO SMALL THE THE
002240: 00,3052           60135                           AD       MPTEMP                                #  FIRST TWO REGISTERS OF THE SQUARE WERE 0
002241: 00,3053           10000                           CCS      A
002242: 00,3054           40000                           COM                                            #  IF SO, SAVE THE NEGATIVE OF THE SHIFT
002243: 00,3055           13133                           TCF      SMALL                                 #  COUNT -15D.
002244:
002245: 00,3056           13065                           TCF      LARGE                                 #  (THIS IS USUALLY THE CASE.)
002246:
002247: 00,3057           44761                           CS       THIRTEEN                              #  IF THE SHIFT COUNT WAS EXACTLY 14, SET
002248: 00,3060           54135                           TS       MPTEMP                                #  THE PRE-DIVIDE NORM COUNT TO -13D.
002249:
002250: 00,3061           30154                           CA       MPAC                                  #  SHIFT THE LENGTH RIGHT 14 BEFORE STORING
002251: 00,3062           54001        SMALL2             TS       L                                     #  (SMALL EXITS TO THIS POINT).
002252: 00,3063           34755                           CAF      ZERO
002253: 00,3064           13112                           TCF      LARGE2                                #  GO TO STORE LENGTH AND PROCEED.
002254:
002255: 00,3065           10135        LARGE              CCS      MPTEMP                                #  MOST ALL CASES COME HERE.
002256: 00,3066           13074                           TCF      LARGE3                                #  SEE IF NO NORMALIZATION WAS REQUIRED BY
002257:
002258: 00,3067           42024                           CS       SRDDV                                 #  SQRT, AND IF SO, SET UP FOR A SHIFT
002259: 00,3070           54135                           TS       MPTEMP                                #  RIGHT 1 BEFORE DIVIDING TO PRODUCE
002260: 00,3071           00006                           EXTEND                                         #  THE DESIRED HALF UNIT VECTOR.
002261: 00,3072           30155                           DCA      MPAC


002263: 00,3073           13112                           TCF      LARGE2
002264:


002266: 00,3074           40000        LARGE3             COM                                            #  LEAVE NEGATIVE OF SHIFT COUNT-1 FOR
002267: 00,3075           54135                           TS       MPTEMP                                #  PREDIVIDE LEFT SHIFT.
002268:
002269: 00,3076           40000                           COM                                            #  PICK UP REQUIRED SHIFTING BIT TO UNNORM-
002270: 00,3077           50000                           INDEX    A                                     #  ALIZE THE SQRT RESULT.
002271: 00,3100           34736                           CAF      BIT14
002272: 00,3101           54130                           TS       BUF
002273: 00,3102           00006                           EXTEND
002274: 00,3103           70155                           MP       MPAC       +1
002275: 00,3104           56130                           XCH      BUF
002276: 00,3105           00006                           EXTEND                                         #  (UNNORMALIZE THE SQRT FOR LV).
002277: 00,3106           70154                           MP       MPAC
002278: 00,3107           56001                           XCH      L
002279: 00,3110           60130                           AD       BUF
002280: 00,3111           56001                           XCH      L
002281:
002282: 00,3112           50120        LARGE2             INDEX    FIXLOC
002283: 00,3113           52045                           DXCH     LV                                    #  LENGTH NOW STORED IN WORK AREA.
002284:
002285: 00,3114           44753                           CS       ONE
002286: 00,3115           54140                           TS       MAXDVSW                               #  NO MAXDV CASES IN UNIT.
002287:
002288: 00,3116           52123                           DXCH     VBUF                                  #  PREPARE X COMPONENT FOR DIVIDE, SETTING
002289: 00,3117           52155                           DXCH     MPAC                                  #  LENGTH OF VECTOR AS DIVISOR IN BUF.
002290: 00,3120           52131                           DXCH     BUF
002291: 00,3121           03151                           TC       UNITDV
002292:
002293: 00,3122           52125                           DXCH     VBUF       +2                         #  DO Y AND Z IN USUAL FASHION SO WE CAN
002294: 00,3123           52155                           DXCH     MPAC                                  #  EXIT THROUGH VROTATEX.
002295: 00,3124           52160                           DXCH     MPAC       +3
002296: 00,3125           03151                           TC       UNITDV
002297:
002298: 00,3126           52127                           DXCH     VBUF       +4
002299: 00,3127           52155                           DXCH     MPAC
002300: 00,3130           52162                           DXCH     MPAC       +5
002301: 00,3131           03151                           TC       UNITDV
002302: 00,3132           17417                           TCF      VROTATEX                              #  AND EXIT.
002303:


002305:                                                                                                  #           IF THE LENGTH OF THE ARGUMENT VECTOR WAS LESS THAN 2(-28), EACH COMPONENT MUST BE SHIFTED LEFT AT LEAST
002306:                                                                                                  #  14 PLACES BEFORE THE DIVIDE. NOTE THAT IN THIS CASE, THE MAJOR PART OF EACH COMPONENT IS ZERO.
002307:
002308: 00,3133           54135        SMALL              TS       MPTEMP                                #  NEGATIVE OF PRE-DIVIDE SHIFT COUNT.
002309:
002310: 00,3134           34755                           CAF      ZERO                                  #  SHIFT EACH COMPONENT LEFT 14.
002311: 00,3135           56123                           XCH      VBUF       +1
002312: 00,3136           56122                           XCH      VBUF
002313: 00,3137           56125                           XCH      VBUF       +3
002314: 00,3140           56124                           XCH      VBUF       +2
002315: 00,3141           56127                           XCH      VBUF       +5
002316: 00,3142           56126                           XCH      VBUF       +4
002317:
002318: 00,3143           40135                           CS       MPTEMP
002319: 00,3144           50000                           INDEX    A
002320: 00,3145           34736                           CAF      BIT14
002321: 00,3146           00006                           EXTEND
002322: 00,3147           70154                           MP       MPAC
002323: 00,3150           13062                           TCF      SMALL2
002324:
002325: 00,3151     4761               THIRTEEN           =        OCT15
002326: 00,3151     4317               FOURTEEN           =        OCT16
002327: 00,3151     4317               OCT16              =        R1D1
002328:


002330:                                                                                                  #           THE FOLLOWING ROUTINE SETS UP THE CALL TO THE DIVIDE ROUTINES.
002331:
002332: 00,3151           10154        UNITDV             CCS      MPAC                                  #  FORCE MPAC POSITIVE IF POSSIBLE, SETTING
002333: 00,3152           13170                           TCF      UMPAC+                                #  DVSIGN ACCORDING TO THE SIGN OF MPAC
002334: 00,3153           13155                           TCF      +2                                    #  SINCE THE DIVISOR IS ALWAYS POSITIVE
002335: 00,3154           13162                           TCF      UMPAC-                                #  HERE.
002336:
002337: 00,3155           10155                           CCS      MPAC       +1
002338: 00,3156           13170                           TCF      UMPAC+
002339: 00,3157           00002                           TC       Q                                     #  EXIT IMMEDIATELY ON ZERO.
002340: 00,3160           13162                           TCF      UMPAC-
002341: 00,3161           00002                           TC       Q
002342:
002343: 00,3162           44755        UMPAC-             CS       ZERO                                  #  IF NEGATIVE, SET -0 IN DVSIGN FOR FINAL
002344: 00,3163           54136                           TS       DVSIGN                                #  COMPLEMENT.
002345: 00,3164           00006                           EXTEND
002346: 00,3165           40155                           DCS      MPAC                                  #  PICK UP ABSOLUTE VALUE OF ARG AND JUMP.
002347: 00,3166           50135                           INDEX    MPTEMP
002348: 00,3167           12564                           TCF      MAXTEST    -1
002349:
002350: 00,3170           54136        UMPAC+             TS       DVSIGN                                #  SET DVSIGN FOR POSITIVE QUOTIENT.
002351: 00,3171           52155                           DXCH     MPAC
002352: 00,3172           50135                           INDEX    MPTEMP
002353: 00,3173           12564                           TCF      MAXTEST    -1
002354:


002356:                                                                                                  #           MISCELLANEOUS UNARY OPERATIONS.
002357:
002358: 00,3174           03300        DSQ                TC       DSQSUB                                #  SQUARE THE DP CONTENTS OF MPAC.
002359: 00,3175           16060                           TCF      DANZIG
002360:
002361: 00,3176           10163        ABVALABS           CCS      MODE                                  #  ABVAL OR ABS INSTRUCTION.
002362: 00,3177           13226                           TCF      ABS                                   #  DO ABS ON SCALAR.
002363: 00,3200           13226                           TCF      ABS
002364:
002365: 00,3201           03317        ABVAL              TC       VSQSUB                                #  DOT MPAC WITH ITSELF.
002366: 00,3202           22163                           LXCH     MODE                                  #  MODE IS NOW DP (L ZERO AFTER DAS).
002367:
002368: 00,3203           00006                           EXTEND                                         #  STORE SQUARE OF LENGTH IN WORK AREA.
002369: 00,3204           30155                           DCA      MPAC
002370: 00,3205           50120                           INDEX    FIXLOC
002371: 00,3206           52043                           DXCH     LVSQUARE
002372:


002374:                                                                                                  #  PROGRAM DESCRIPTION- SUBROUTINE SQRT
002375:                                                                                                  #  FUNCTIONAL DESCRIPTION-DOUBLE PRECISION SQUARE ROOT ROUTINE
002376:                                                                                                  #      THIS PROGRAM TAKES THE SQUARE ROOT OF THE 27 OR 28 MOST SIGNIFICANT BITS IN THE TRIPLE PRECISION SET OF
002377:                                                                                                  #      NUMBERS-MPAC,MPAC+1,AND MPAC+2.  THE ROOT IS RETURNED DOUBLE        PRECISION IN MPAC AND MPAC+1.
002378:                                                                                                  #  WARNING- THIS SUBROUTINE USES A TRIPLE PRECISION INPUT. THE PROGRAMMER  MUST ASSURE THE CONTENTS OF MPAC+2
002379:                                                                                                  #      ESPECIALLY IF THE CONTENTS OF MPAC IS SMALL OR ZERO.  FOR DETAILS SEE STG MEMO NO.949.
002380:                                                                                                  #  CALLING SEQUENCE- IN INTERPRETIVE MODE I.E., FOLLOWING TC  INTPRET,SQRT   NO ADDRESS IS ALLOWED
002381:                                                                                                  #  INPUT SCALING  THE BINARY POINT IS ASSUMED TO THE RIGHT OF BIT 15. THE  ANSWER IS RETURNED WITH THE SAME SCALING
002382:                                                                                                  #  SUBROUTINES- GENSCR,MPACSHR, SQRTSUB,ABORT
002383:                                                                                                  #  ABORT EXIT MODE- ABORTS ON NEGATIVE INPUT -1.2X10E-4 (77775  OCTAL)     OR LESS.
002384:                                                                                                  #      DISPLAYS ERROR CODE 1302
002385:                                                                                                  #                  TC   ABORT
002386:                                                                                                  #                  OCT  1302
002387:                                                                                                  #  DEBRIS -  LOCATIONS BUF,MPTEMP,ADDRWD ARE USED
002388: 00,3207           03343        SQRT               TC       SQRTSUB                               #  TAKE THE SQUARE ROOT OF MPAC.
002389: 00,3210           10135                           CCS      MPTEMP                                #  RETURNED NORMALIZED SQUARE ROOT. SEE IF
002390: 00,3211           13213                           TCF      +2                                    #  ANY UN-NORMALIZATION REQUIRED AND EXIT
002391: 00,3212           16060                           TCF      DANZIG                                #  IF NOT.
002392:
002393: 00,3213           63733                           AD       NEG12                                 #  A RIGHT SHIFT OF MORE THAN 13 COULD BE
002394: 00,3214           00006                           EXTEND                                         #  REQUIRED IF INPUT WAS ZERO IN MPAC,+1.
002395: 00,3215           63221                           BZMF     SQRTSHFT                              #  GOES HERE IN MOST CASES.
002396: 00,3216           22007                           ZL                                             #  IF A LONG SHIFT IS REQUIRED, GO TO
002397: 00,3217           22116                           LXCH     ADDRWD                                #  GENERAL RIGHT SHIFT ROUTINES.
002398: 00,3220           12303                           TCF      GENSCR     +4                         #  ADDRWD WAS ZERO TO PREVENT ROUND.
002399:
002400: 00,3221           50135        SQRTSHFT           INDEX    MPTEMP                                #  SELECT SHIFTING BIT AND EXIT THROUGH
002401: 00,3222           34735                           CAF      BIT15                                 #  SHIFT ROUTINES.
002402: 00,3223           54135                           TS       MPTEMP
002403: 00,3224           34755                           CAF      ZERO                                  #  TO ZERO MPAC +2 IN THE PROCESS.
002404: 00,3225           12036                           TCF      MPACSHR    +3
002405:
002406: 00,3226           06722        ABS                TC       BRANCH                                #  TEST SIGN OF MPAC AND COMPLEMENT IF
002407: 00,3227           16060                           TCF      DANZIG
002408: 00,3230           16060                           TCF      DANZIG
002409: 00,3231           17667                           TCF      COMP
002410:


002412: 00,3232           44751        VDEF               CS       FOUR                                  #  VECTOR DEFINE - ESSENTIALLY TREATS
002413: 00,3233           26166                           ADS      PUSHLOC                               #  SCALAR IN MPAC AS X COMPONENT, PUSHES UP
002414: 00,3234           00006                           EXTEND                                         #  FOR Y AND THEN AGAIN FOR Z.
002415: 00,3235           50000                           INDEX    A
002416: 00,3236           30003                           DCA      2
002417: 00,3237           52160                           DXCH     MPAC       +3
002418: 00,3240           00006                           EXTEND
002419: 00,3241           50166                           INDEX    PUSHLOC
002420: 00,3242           30001                           DCA      0
002421: 00,3243           52162                           DXCH     MPAC       +5
002422: 00,3244           16520                           TCF      VMODE                                 #  MODE IS NON VECTOR.
002423:
002424: 00,3245           03317        VSQ                TC       VSQSUB                                #  DOT MPAC WITH ITSELF.
002425: 00,3246           17331                           TCF      DMODE                                 #  MODE IS NOW DP.
002426:
002427: 00,3247           00006        PUSH               EXTEND                                         #  PUSH DOWN MPAC LEAVING IT LOADED.
002428: 00,3250           30155                           DCA      MPAC
002429: 00,3251           50166                           INDEX    PUSHLOC                               #  PUSH DOWN FIRST TWO REGISTERS IN EACH
002430: 00,3252           52001                           DXCH     0
002431:
002432: 00,3253           50163                           INDEX    MODE                                  #  INCREMENT PUSHDOWN POINTER.
002433: 00,3254           36243                           CAF      NO.WDS
002434: 00,3255           26166                           ADS      PUSHLOC
002435:
002436: 00,3256           10163                           CCS      MODE
002437: 00,3257           13272                           TCF      TPUSH                                 #  PUSH DOWN MPAC +2.
002438: 00,3260           16060                           TCF      DANZIG                                #  DONE FOR DP.
002439:
002440: 00,3261           00006                           EXTEND                                         #  ON VECTOR, PUSH DOWN Y AND Z COMPONENTS.
002441: 00,3262           30160                           DCA      MPAC       +3
002442: 00,3263           50166                           INDEX    PUSHLOC
002443: 00,3264           51775                           DXCH     0          -4
002444: 00,3265           00006                           EXTEND
002445: 00,3266           30162                           DCA      MPAC       +5
002446: 00,3267           50166                           INDEX    PUSHLOC
002447: 00,3270           51777                           DXCH     0          -2
002448: 00,3271           16060                           TCF      DANZIG
002449:
002450: 00,3272           30156        TPUSH              CA       MPAC       +2
002451: 00,3273           16553                           TCF      ENDTPUSH   +2
002452:
002453: 00,3274           50120        RVQ                INDEX    FIXLOC                                #  RVQ - RETURN IVA QPRET.
002454: 00,3275           30052                           CA       QPRET
002455: 00,3276           54117                           TS       POLISH
002456: 00,3277           16651                           TCF      GOTO       +4                         #  (ASSUME QPRET POINTS TO FIXED ONLY.)
002457:


002459:                                                                                                  #           THE FOLLOWING SUBROUTINES ARE USED IN SQUARING MPAC, IN BOTH THE SCALAR AND VECTOR SENSE. THEY ARE
002460:                                                                                                  #  SPECIAL CASES OF DMPSUB AND DOTSUB, PUT IN TO SAVE SOME TIME.
002461:
002462: 00,3300           30155        DSQSUB             CA       MPAC       +1                         #  SQUARES THE SCALAR CONTENTS OF MPAC.
002463: 00,3301           00006                           EXTEND
002464: 00,3302           70000                           SQUARE
002465: 00,3303           54156                           TS       MPAC       +2
002466: 00,3304           34755                           CAF      ZERO                                  #  FORM 2(CROSS TERM).
002467: 00,3305           56155                           XCH      MPAC       +1
002468: 00,3306           00006                           EXTEND
002469: 00,3307           70154                           MP       MPAC
002470: 00,3310           20001                           DDOUBL                                         #  AND MAYBE OVERFLOW.
002471: 00,3311           20156                           DAS      MPAC       +1                         #  AND SET A TO NET OVERFLOW.
002472: 00,3312           56154                           XCH      MPAC
002473: 00,3313           00006                           EXTEND
002474: 00,3314           70000                           SQUARE
002475: 00,3315           20155                           DAS      MPAC
002476: 00,3316           00002                           TC       Q
002477:
002478: 00,3317           00006        VSQSUB             EXTEND                                         #  DOTS THE VECTOR IN MPAC WITH ITSELF.
002479: 00,3320           22137                           QXCH     DOTRET
002480: 00,3321           03300                           TC       DSQSUB                                #  SQUARE THE X COMPONENT.
002481: 00,3322           52160                           DXCH     MPAC       +3
002482: 00,3323           52155                           DXCH     MPAC
002483: 00,3324           52131                           DXCH     BUF                                   #  SO WE CAN END IN DOTSUB.
002484: 00,3325           30156                           CA       MPAC       +2
002485: 00,3326           54132                           TS       BUF        +2
002486:
002487: 00,3327           03300                           TC       DSQSUB                                #  SQUARE Y COMPONENT.
002488: 00,3330           52156                           DXCH     MPAC       +1
002489: 00,3331           20132                           DAS      BUF        +1
002490: 00,3332           60154                           AD       MPAC
002491: 00,3333           60130                           AD       BUF
002492: 00,3334           54130                           TS       BUF
002493: 00,3335           13337                           TCF      +2
002494: 00,3336           54121                           TS       OVFIND                                #  IF OVERFLOW.
002495:
002496: 00,3337           52162                           DXCH     MPAC       +5
002497: 00,3340           52155                           DXCH     MPAC
002498: 00,3341           03300                           TC       DSQSUB                                #  SQUARE Z COMPONENT.
002499: 00,3342           17204                           TCF      ENDDOT                                #  END AS IN DOTSUB.
002500:


002502:                                                                                                  #           DOUBLE PRECISION SQUARE ROOT ROUTINE. TAKE THE SQUARE ROOT OF THE TRIPLE PRECISION (MPAC +2 USED ONLY
002503:                                                                                                  #  IN NORMALIZATION) CONTENTS OF MPAC AND LEAVE THE NORMALIZED RESULT IN MPAC (C(MPAC) GREATER THAN OR EQUAL TO
002504:                                                                                                  #  .5). THE RIGHT SHIFT COUNT (TO UNNORMALIZE) IS LEFT IN MPTEMP.
002505:
002506:
002507: 00,3343           34755        SQRTSUB            CAF      ZERO                                  #  START BY ZEROING RIGHT SHIFT COUNT.
002508: 00,3344           54135                           TS       MPTEMP
002509:
002510: 00,3345           10154                           CCS      MPAC                                  #  CHECK FOR POSITIVE ARGUMENT, SHIFTING
002511: 00,3346           13405                           TCF      SMPAC+                                #  FIRST SIGNIFICANT MPAC REGISTER INTO
002512: 00,3347           13351                           TCF      +2                                    #  MPAC ITSELF.
002513: 00,3350           13373                           TCF      SQRTNEG                               #  SEE IF MAG OF ARGUMENT LESS THAN 10(-4).
002514:
002515: 00,3351           56156                           XCH      MPAC       +2                         #  MPAC IS ZERO - SHIFT LEFT 14.
002516: 00,3352           56155                           XCH      MPAC       +1
002517: 00,3353           54154                           TS       MPAC
002518: 00,3354           34757                           CAF      SEVEN                                 #  AUGMENT RIGHT SHIFT COUNTER.
002519: 00,3355           54135                           TS       MPTEMP
002520:
002521: 00,3356           10154                           CCS      MPAC                                  #  SEE IF MPAC NOW PNZ.
002522: 00,3357           13405                           TCF      SMPAC+
002523: 00,3360           13362                           TCF      +2
002524: 00,3361           13376                           TCF      ZEROANS                               #  NEGATIVE BUT LESS THAN 10(-4) IN MAG.
002525:
002526: 00,3362           56155                           XCH      MPAC       +1                         #  ZERO - SHIFT LEFT 14 AGAIN.
002527: 00,3363           54154                           TS       MPAC
002528: 00,3364           34757                           CAF      SEVEN                                 #  AUGMENT RIGHT SHIFT COUNTER.
002529: 00,3365           26135                           ADS      MPTEMP
002530:
002531: 00,3366           10154                           CCS      MPAC
002532: 00,3367           13405                           TCF      SMPAC+
002533: 00,3370           00002                           TC       Q                                     #  SQRT(0) = 0.
002534: 00,3371           13376                           TCF      ZEROANS
002535: 00,3372           13453                           TCF      FIXROOT                               #  DO NOT LEAVE SQRTSUB WITH -0 IN MPAC.
002536:
002537:
002538: 00,3373           10000        SQRTNEG            CCS      A                                     #  ARGUMENT IS NEGATIVE, BUT SEE IF SIGN-
002539: 00,3374           13402                           TCF      SQRTABRT                              #  CORRECTED ARGUMENT IS LESS THAN 10(-4)
002540:
002541: 00,3375           10155                           CCS      MPAC       +1                         #  IN MAGNITUDE. IF SO, CALL ANSWER ZERO.
002542: 00,3376           34755        ZEROANS            CAF      ZERO                                  #  FORCE ANSWER TO ZERO HERE.
002543: 00,3377           13453                           TCF      FIXROOT
002544: 00,3400           13402                           TCF      SQRTABRT
002545: 00,3401           13453                           TCF      FIXROOT
002546:
002547: 00,3402           52165        SQRTABRT           DXCH     LOC
002548: 00,3403           05720                           TC       POODOO1
002549: 00,3404           01302                           OCT      1302
002550:


002552: 00,3405           62444        SMPAC+             AD       -1/2+2                                #  SEE IF ARGUMENT GREATER THAN OR EQUAL TO
002553: 00,3406           00006                           EXTEND                                         #  .5.
002554: 00,3407           63456                           BZMF     SRTEST                                #  IF SO, SEE IF LESS THAN .25.
002555:
002556: 00,3410           52155                           DXCH     MPAC                                  #  WE WILL TAKE THE SQUARE ROOT OF MPAC/2.
002557: 00,3411           22021                           LXCH     SR                                    #  SHIFT RIGHT 1 AND GO TO THE SQRT ROUTINE
002558: 00,3412           00006                           EXTEND
002559: 00,3413           74736                           MP       HALF
002560: 00,3414           52155                           DXCH     MPAC
002561: 00,3415           56021                           XCH      SR
002562: 00,3416           26155                           ADS      MPAC       +1                         #  GUARANTEED NO OVERFLOW.
002563:
002564: 00,3417           32314        ARGHI              CAF      SLOPEHI                               #  ARGUMENT BETWEEN .25 AND .5. GET A
002565: 00,3420           00006                           EXTEND                                         #  LINEAR APPROXIMATION FOR THIS RANGE.
002566: 00,3421           70154                           MP       MPAC
002567: 00,3422           62566                           AD       BIASHI                                #  X0/2 = (MPAC/2)(SLOPEHI) + BIASHI/2.
002568:
002569: 00,3423           54130                 +4        TS       BUF                                   #  X0/2 (ARGLO ENTERS HERE).
002570: 00,3424           30154                           CA       MPAC                                  #  SINGLE-PRECISION THROUGHOUT.
002571: 00,3425           22007                           ZL
002572: 00,3426           00006                           EXTEND
002573: 00,3427           10130                           DV       BUF                                   #  (MPAC/2)/(X0/2)
002574: 00,3430           00006                           EXTEND
002575: 00,3431           74736                           MP       HALF
002576: 00,3432           26130                           ADS      BUF                                   #  X1 = X0/2 + .5(MPAC/2)/(X0/2).
002577:
002578: 00,3433           00006                           EXTEND
002579: 00,3434           74736                           MP       HALF                                  #  FORM UP X1/2.
002580: 00,3435           52155                           DXCH     MPAC                                  #  SAVE AND BRING OUT ARGUMENT.
002581: 00,3436           00006                           EXTEND                                         #  TAKE DP QUOTIENT WITH X1.
002582: 00,3437           10130                           DV       BUF
002583: 00,3440           54131                           TS       BUF        +1                         #  SAVE MAJOR PART OF QUOTIENT.
002584: 00,3441           34755                           CAF      ZERO                                  #  FORM MINOR PART OF QUOTIENT USING
002585: 00,3442           56001                           XCH      L                                     #  (REMAINDER,0).
002586: 00,3443           00006                           EXTEND
002587: 00,3444           10130                           DV       BUF
002588: 00,3445           54001                           TS       L                                     #  IN PREPARATION FOR DAS.
002589: 00,3446           30131                           CA       BUF        +1
002590: 00,3447           20155                           DAS      MPAC                                  #  X2 = X1/2 + (MPAC/2)X1
002591:
002592: 00,3450           00006                           EXTEND                                         #  OVERFLOWS IF ARG. NEAR POSMAX.
002593: 00,3451           13455                           BZF      TCQBNK00
002594: 00,3452           34733                           CAF      POSMAX
002595: 00,3453           54154        FIXROOT            TS       MPAC
002596: 00,3454           54155                           TS       MPAC       +1
002597: 00,3455           00002        TCQBNK00           TC       Q                                     #  RETURN TO CALLER TO UNNORMALIZE, ETC.
002598:


002600: 00,3456           64737        SRTEST             AD       QUARTER                               #  ARGUMENT WAS LESS THAN .5, SEE IF LESS
002601: 00,3457           00006                           EXTEND                                         #  THAN .25.
002602: 00,3460           63502                           BZMF     SQRTNORM                              #  IF SO, BEGIN NORMALIZATION.
002603:
002604: 00,3461           52155                           DXCH     MPAC                                  #  IF BETWEEN .5 AND .25, SHIFT RIGHT 1 AND
002605: 00,3462           22021                           LXCH     SR                                    #  START AT ARGLO.
002606: 00,3463           00006                           EXTEND
002607: 00,3464           74736                           MP       HALF
002608: 00,3465           52155                           DXCH     MPAC
002609: 00,3466           56021                           XCH      SR
002610: 00,3467           26155                           ADS      MPAC       +1                         #  NO OVERFLOW.
002611:
002612: 00,3470           33007        ARGLO              CAF      SLOPELO                               #  (NORMALIZED) ARGUMENT BETWEEN .125 AND
002613: 00,3471           00006                           EXTEND                                         #  .25
002614: 00,3472           70154                           MP       MPAC
002615: 00,3473           62270                           AD       BIASLO
002616: 00,3474           13423                           TCF      ARGHI      +4                         #  BEGIN SQUARE ROOT.
002617:
002618: 00,3475           00006        SQRTNM2            EXTEND                                         #  SHIFT LEFT 2 AND INCREMENT RIGHT SHIFT
002619: 00,3476           30156                           DCA      MPAC       +1                         #  COUNT (FOR TERMINAL UNNORMALIZATION).
002620: 00,3477           20156                           DAS      MPAC       +1
002621: 00,3500           60154                           AD       MPAC
002622: 00,3501           26154                           ADS      MPAC                                  #  (NO OVERFLOW).
002623:
002624: 00,3502           24135        SQRTNORM           INCR     MPTEMP                                #  FIRST TIME THROUGH, JUST SHIFT LEFT 1
002625: 00,3503           00006                           EXTEND                                         #  (PUTS IN EFFECTIVE RIGHT SHIFT SINCE
002626: 00,3504           30156                           DCA      MPAC       +1                         #  WE WANT MPAC/2).
002627: 00,3505           20156                           DAS      MPAC       +1
002628: 00,3506           60154                           AD       MPAC
002629: 00,3507           26154                           ADS      MPAC                                  #  (AGAIN NO OVERFLOW).
002630: 00,3510           60000                           DOUBLE
002631: 00,3511           54022                           TS       CYL
002632:
002633: 00,3512           10022        NORMTEST           CCS      CYL                                   #  SEE IF ARGUMENT NOW NORMALIZED AT
002634: 00,3513           10022                           CCS      CYL                                   #  GREATER THAN .125.
002635: 00,3514           13475                           TCF      SQRTNM2                               #  NO - SHIFT LEFT 2 MORE AND TRY AGAIN.
002636: 00,3515           13417                           TCF      ARGHI                                 #  YES - NOW BETWEEN .5 AND .25.
002637: 00,3516           13470                           TCF      ARGLO                                 #  ARGUMENT NOW BETWEEN .25 AND .125.
002638:


002640:                                                                                                  #  TRIGONOMETRIC FUNCTION PACKAGE.
002641:
002642:                                                                                                  #           THE FOLLOWING TRIGONOMETRIC FUNCTIONS ARE AVAILABLE AS INTERPRETIVE OPERATIONS:
002643:
002644:                                                                                                  #           1.  SIN                COMPUTES (1/2)SINE(2 PI MPAC).
002645:                                                                                                  #           2.  COS                COMPUTES (1/2)COSINE(2 PI MPAC).
002646:
002647:                                                                                                  #           3.  ASIN               COMPUTES (1/2PI)ARCSINE(2 MPAC).
002648:                                                                                                  #           4.  ACOS               COMPUTES (1/2PI)ARCCOSINE(2 MPAC).
002649:
002650:                                                                                                  #  SIN-ASIN AND COS-ACOS ARE MUTUALLY INVERSE, IE SIN(ASIN(X)) = X.
002651:
002652:
002653: 00,3517           06722        COSINE             TC       BRANCH                                #  FINDS COSINE USING THE IDENTITY
002654: 00,3520           13523                           TCF      +3                                    #  COS(X) = SIN(PI/2 - ABS(X)).
002655: 00,3521           13526                           TCF      PRESINE
002656: 00,3522           13526                           TCF      PRESINE
002657:
002658: 00,3523           00006                 +3        EXTEND
002659: 00,3524           40155                           DCS      MPAC
002660: 00,3525           52155                           DXCH     MPAC
002661:
002662: 00,3526           34737        PRESINE            CAF      QUARTER                               #  PI/2 SCALED.
002663: 00,3527           26154                           ADS      MPAC
002664:
002665:
002666: 00,3530           52155        SINE               DXCH     MPAC                                  #  DOUBLE ARGUMENT.
002667: 00,3531           20001                           DDOUBL
002668: 00,3532           54000                           OVSK                                           #  SEE IF OVERFLOW PRESENT.
002669: 00,3533           13536                           TCF      +3                                    #  IF NOT, ARGUMENT OK AS IS.
002670:
002671: 00,3534           00006                           EXTEND                                         #  IF SO, WE LOST (OR GAINED) PI, SO
002672: 00,3535           40001                           DCOM                                           #  COMPLEMENT MPAC USING THE IDENTITY
002673:                                                                                                  #  SIN(X-(+)PI) = SIN(-X).
002674: 00,3536           52155                 +3        DXCH     MPAC
002675: 00,3537           30154                           CA       MPAC                                  #  SEE IF ARGUMENT GREATER THAN .5 IN
002676: 00,3540           60000                           DOUBLE                                         #  MAGNITUDE. IF SO, REDUCE IT TO LESS THAN
002677: 00,3541           54001                           TS       L                                     #  .5 (+-PI/2 SCALED) AS FOLLOWS:
002678: 00,3542           13553                           TCF      SN1
002679:
002680: 00,3543           50000                           INDEX    A                                     #  IF POSITIVE, FORM PI - X, IF NEGATIVE
002681: 00,3544           34735                           CAF      NEG1/2     +1                         #  USE -PI - X.
002682: 00,3545           60000                           DOUBLE
002683: 00,3546           00006                           EXTEND
002684: 00,3547           60154                           SU       MPAC                                  #  GUARANTEED NO OVERFLOW.
002685: 00,3550           54154                           TS       MPAC
002686: 00,3551           40155                           CS       MPAC       +1
002687: 00,3552           54155                           TS       MPAC       +1
002688:


002690: 00,3553           00006        SN1                EXTEND                                         #  SET UP TO EVALUATE HASTINGS POLYNOMIAL
002691: 00,3554           30155                           DCA      MPAC
002692: 00,3555           52134                           DXCH     BUF2
002693: 00,3556           03300                           TC       DSQSUB                                #  SQUARE MPAC.
002694:
002695: 00,3557           07221                           TC       POLY                                  #  EVALUATE FOURTH ORDER POLYNOMIAL.
002696: 00,3560           00003                           DEC      3          B-14
002697: 00,3561           14441 37325                     2DEC     +.3926990796
002698:
002699: 00,3563           53250 60764                     2DEC     -.6459637111
002700:
002701: 00,3565           12146 21276                     2DEC     +.318758717
002702:
002703: 00,3567           75466 71471                     2DEC     -.074780249
002704:
002705: 00,3571           00236 32757                     2DEC     +.009694988
002706:
002707: 00,3573           32470                           CAF      LBUF2                                 #  MULTIPLY BY ARGUMENT AND SHIFT LEFT 2.
002708: 00,3574           07105                           TC       DMPSUB     -1
002709:
002710: 00,3575           00006                           EXTEND
002711: 00,3576           30156                           DCA      MPAC       +1
002712: 00,3577           20156                           DAS      MPAC       +1
002713: 00,3600           60154                           AD       MPAC
002714: 00,3601           26154                           ADS      MPAC                                  #  NEITHER SHIFT OVERFLOWS.
002715: 00,3602           00006                           EXTEND
002716: 00,3603           30156                           DCA      MPAC       +1
002717: 00,3604           20156                           DAS      MPAC       +1
002718: 00,3605           60154                           AD       MPAC
002719: 00,3606           26154                           ADS      MPAC
002720: 00,3607           16060                           TCF      DANZIG
002721:


002723:                                                                                                  #           ARCSIN/ARCCOS ROUTINE.
002724:
002725: 00,3610           33631        ARCSIN             CAF      LASINEX                               #  COMPUTE ARCSIN BY USING THE IDENTITY
002726: 00,3611           13613                           TCF      +2                                    #  ARCSIN(X) = PI/2 - ARCCOS(X).
002727:
002728: 00,3612           33713        ARCCOS             CAF      LDANZIG                               #  (EXITS IMMEDIATELY).
002729: 00,3613           54136                           TS       ESCAPE
002730: 00,3614           06722                           TC       BRANCH                                #  TEST SIGN OF INPUT.
002731: 00,3615           13625                           TCF      ACOSST                                #  START IMMEDIATELY IF POSITIVE.
002732: 00,3616           13731                           TCF      ACOSZERO                              #  ARCCOS(0) = PI/2 = .25.
002733: 00,3617           00006                           EXTEND                                         #  IF NEGATIVE, USE THE IDENTITY
002734: 00,3620           40155                           DCS      MPAC                                  #  ARCCOS(X) = PI - ARCCOS(-X), FORCING
002735: 00,3621           52155                           DXCH     MPAC                                  #  ARGUMENT POSITIVE.
002736: 00,3622           33734                           CAF      TCSUBTR                               #  SET EXIT  TO DO ABOVE BEFORE
002737: 00,3623           56136                           XCH      ESCAPE                                #  ARCSIN/ARCCOS CONSIDERATIONS.
002738: 00,3624           54137                           TS       ESCAPE2
002739:
002740: 00,3625           44736        ACOSST             CS       HALF                                  #  TEST MAGNITUDE OF INPUT.
002741: 00,3626           60154                           AD       MPAC
002742: 00,3627           10000                           CCS      A
002743: 00,3630           13721                           TCF      ACOSOVF                               #  THIS IS PROBABLY AN OVERFLOW CASE.
002744:
002745: 00,3631           13707        LASINEX            TCF      ASINEX
002746:
002747: 00,3632           13642                           TCF      ACOSST2                               #  NO OVERFLOW - PROCEED.
002748:
002749: 00,3633           10155                           CCS      MPAC       +1                         #  IF MAJOR PART IS .5, CALL ANSWER 0
002750: 00,3634           34755                           CAF      ZERO                                  #  UNLESS MINOR PART NEGATIVE.
002751: 00,3635           13637                           TCF      ACOS=0
002752:
002753: 00,3636           13642                           TCF      ACOSST2
002754:
002755: 00,3637           54155        ACOS=0             TS       MPAC       +1
002756: 00,3640           54154                           TS       MPAC
002757: 00,3641           00136                           TC       ESCAPE
002758:
002759: 00,3642           00006        ACOSST2            EXTEND                                         #  NOW THAT ARGUMENT IS IN PROPER RANGE,
002760: 00,3643           40155                           DCS      MPAC                                  #  BEGIN COMPUTATION. USE HASTINGS
002761: 00,3644           64736                           AD       HALF                                  #  APPROXIMATION ARCCOS(X) = SQRT(1-X)P(X)
002762: 00,3645           52155                           DXCH     MPAC                                  #  IN A SCALED VERSION WHERE P(X) IS A
002763: 00,3646           52134                           DXCH     BUF2                                  #  SEVENTH ORDER POLYNOMIAL.
002764:
002765: 00,3647           03343                           TC       SQRTSUB                               #  RETURNS WITH NORMALIZED SQUARE ROOT.
002766:
002767: 00,3650           10135                           CCS      MPTEMP                                #  SEE IF UN-NORMALIZATION REQUIRED.
002768: 00,3651           13714                           TCF      ACOSSHR                               #  IF SO.
002769:


002771: 00,3652           52155        ACOS3              DXCH     MPAC                                  #  SET UP FOR POLYNOMIAL EVALUATION.
002772: 00,3653           52134                           DXCH     BUF2
002773: 00,3654           52155                           DXCH     MPAC
002774:
002775: 00,3655           07221                           TC       POLY
002776: 00,3656           00006                           DEC      6          B-14
002777: 00,3657           13240 23630                     2DEC     +.353553385                            #  COEFFICIENTS ARE C 2(+I)/PISQRT(2) WHERE
002778:
002779: 00,3661           74721 47775                     2DEC*    -.0483017006 B+1*                       #                  I
002780:
002781: 00,3663           02440 20237                     2DEC*    +.0200273085 B+2*                       #     WHERE C STANDS FOR ORIGINAL COEFFS.
002782:
002783: 00,3665           75067 70742                     2DEC*    -.0112931863 B+3*
002784:
002785: 00,3667           03436 26756                     2DEC*    +.00695311612 B+4*
002786:
002787: 00,3671           74037 57640                     2DEC*    -.00384617957 B+5*
002788:
002789: 00,3673           03046 07143                     2DEC*    +.001501297736 B+6*
002790:
002791: 00,3675           76654 42244                     2DEC*    -.000284160334 B+7*
002792:
002793:
002794: 00,3677           32470                           CAF      LBUF2                                 #  DO FINAL MULTIPLY AND GO TO ANY
002795: 00,3700           07105                           TC       DMPSUB     -1                         #  EPILOGUE SEQUENCES.
002796: 00,3701           00136                           TC       ESCAPE
002797:
002798: 00,3702           00006        SUBTR              EXTEND                                         #  EPILOGUE FOR NEGATIVE INPUTS TO ARCCOS.
002799: 00,3703           40155                           DCS      MPAC
002800: 00,3704           64736                           AD       HALF                                  #  FORMS PI - ARCCOS(-X) = ARCCOS(X).
002801: 00,3705           52155                           DXCH     MPAC
002802: 00,3706           00137                           TC       ESCAPE2                               #  GO TO POSSIBLE ARCSIN EPILOGUE.
002803:
002804: 00,3707           00006        ASINEX             EXTEND
002805: 00,3710           40155                           DCS      MPAC                                  #  ARCSIN EPILOGUE - GET ARCSIN(X)
002806: 00,3711           64737                           AD       QUARTER                               #  = PI/2 - ARCCOS(X).
002807: 00,3712           52155                           DXCH     MPAC
002808: 00,3713           16060        LDANZIG            TCF      DANZIG
002809:


002811: 00,3714           50000        ACOSSHR            INDEX    A                                     #  THE SHIFT RIGHT IS LESS THAN 14 SINCE
002812: 00,3715           34736                           CAF      BIT14                                 #  THE INPUT WAS NON-ZERO DP.
002813: 00,3716           54135                           TS       MPTEMP
002814: 00,3717           02073                           TC       VSHRRND                               #  DP SHIFT RIGHT AND ROUND.
002815: 00,3720           13652                           TCF      ACOS3                                 #  PROCEED.
002816:
002817: 00,3721           00006        ACOSOVF            EXTEND                                         #  IF MAJOR PART WAS ONLY 1 MORE THAN .5,
002818: 00,3722           13637                           BZF      ACOS=0                                #  CALL ANSWER ZERO.
002819:
002820: 00,3723           00006        ACOSABRT           EXTEND                                         #  IF OVERFLOW, CALL ANSWER ZERO BUT
002821: 00,3724           30165                           DCA      LOC                                   #  SOUND AN ALARM.
002822: 00,3725           05724                           TC       ALARM1
002823: 00,3726           01301                           OCT      1301
002824:
002825: 00,3727           34755                           CAF      ZERO
002826: 00,3730           13637                           TCF      ACOS=0
002827:
002828: 00,3731           34737        ACOSZERO           CAF      QUARTER                               #  ACOS(0) = PI/2.
002829: 00,3732           13640                           TCF      ACOS=0     +1                         #  SET MPAC AND EXIT VIA ESCAPE.
002830:
002831: 00,3733           77763        NEG12              DEC      -12        B-14
002832: 00,3734           13702        TCSUBTR            TCF      SUBTR
002833:


002835:                                                                                                  #           THE FOLLOWING INSTRUCTIONS ARE AVAILABLE FOR SETTING, MODIFYING, AND BRANCHING ON INDEX REGISTERS:
002836:
002837:                                                                                                  #           1.  AXT                ADDRESS TO INDEX TRUE.
002838:                                                                                                  #           1.  AXC                ADDRESS TO INDEX COMPLEMENTED.
002839:                                                                                                  #           3.  LXA                LOAD INDEX FROM ERASABLE.
002840:                                                                                                  #           4.  LXC                LOAD INDEX COMPLEMENTED FROM ERASABLE.
002841:                                                                                                  #           5.  SXA                STORE INDEX IN ERASABLE.
002842:                                                                                                  #           6.  XCHX               EXCHANGE INDEX REIGSTER WITH ERASABLE.
002843:
002844:                                                                                                  #           7.  INCR               INCREMENT INDEX REGISTER.
002845:                                                                                                  #           8.  XAD                ERASABLE ADD TO INDEX REGISTER.
002846:                                                                                                  #           9.  XSU                ERASABLE SUBTRACT FROM INDEX REGISTER.
002847:
002848:                                                                                                  #          10.  TIX                BRANCH ON INDEX REGISTER AND DECREMENT.
002849:
002850: 01,2341                                           BANK     01
002851:
002852: 01,2341                                           COUNT*   $$/INTER
002853: 01,2341           02436        AXT                TC       TAGSUB                                #  SELECT APPROPRIATE INDEX REGISTER.
002854: 01,2342           30117                           CA       POLISH
002855: 01,2343           50130        XSTORE             INDEX    INDEXLOC                              #  CONTAINS C(FIXLOC) OR C(FIXLOC)+1.
002856: 01,2344           54046                           TS       X1
002857: 01,2345           16060                           TCF      DANZIG
002858:
002859: 01,2346           02436        AXC                TC       TAGSUB
002860: 01,2347           40117                           CS       POLISH
002861: 01,2350           02343                           TC       XSTORE
002862:
002863: 01,2351           02424        LXA                TC       15ADRERS                              #  LOAD INDEX REGISTER FROM ERASABLE.
002864: 01,2352           50117                           INDEX    POLISH
002865: 01,2353           30000                           CA       0
002866: 01,2354           12343                           TCF      XSTORE
002867:
002868: 01,2355           02424        LXC                TC       15ADRERS                              #  LOAD NDX REG FROM ERASABLE COMPLEMENTED.
002869: 01,2356           50117                           INDEX    POLISH
002870: 01,2357           40000                           CS       0
002871: 01,2360           12343                           TCF      XSTORE
002872:
002873: 01,2361           02424        SXA                TC       15ADRERS                              #  STORE INDEX REGISTER IN ERASABLE.
002874: 01,2362           50130                           INDEX    INDEXLOC
002875: 01,2363           30046                           CA       X1
002876: 01,2364           50117        MSTORE1            INDEX    POLISH
002877: 01,2365           54000                           TS       0
002878: 01,2366           16060                           TCF      DANZIG
002879:


002881: 01,2367           02424        XCHX               TC       15ADRERS                              #  EXCHANGE INDEX REGISTER WITH ERASABLE.
002882: 01,2370           50117                           INDEX    POLISH
002883: 01,2371           30000                           CA       0
002884: 01,2372           50130                           INDEX    INDEXLOC
002885: 01,2373           56046                           XCH      X1
002886: 01,2374           12364                           TCF      MSTORE1
002887:
002888: 01,2375           02424        XAD                TC       15ADRERS                              #  ADD ERASABLE TO INDEX REGISTER.
002889: 01,2376           50117                           INDEX    POLISH
002890: 01,2377           30000                           CA       0
002891: 01,2400           50130        XAD2               INDEX    INDEXLOC
002892: 01,2401           26046                           ADS      X1                                    #  IGNORING OVERFLOWS.
002893: 01,2402           16060                           TCF      DANZIG
002894:
002895: 01,2403           02436        INCR               TC       TAGSUB                                #  INCREMENT INDEX REGISTER.
002896: 01,2404           30117                           CA       POLISH
002897: 01,2405           12400                           TCF      XAD2
002898:
002899: 01,2406           02424        XSU                TC       15ADRERS                              #  SUBTRACT ERASABLE FROM INDEX REGISTER.
002900: 01,2407           50117                           INDEX    POLISH
002901: 01,2410           40000                           CS       0
002902: 01,2411           12400                           TCF      XAD2
002903:
002904: 01,2412           02436        TIX                TC       TAGSUB                                #  BRANCH AND DECREMENT ON INDEX.
002905: 01,2413           50130                           INDEX    INDEXLOC
002906: 01,2414           40050                           CS       S1
002907: 01,2415           50130                           INDEX    INDEXLOC
002908: 01,2416           60046                           AD       X1
002909: 01,2417           00006                           EXTEND                                         #  NO OPERATION IF DECREMENTED INDEX IS
002910: 01,2420           66060                           BZMF     DANZIG                                #  NEGATIVE OR ZERO.
002911:
002912: 01,2421           50130        DOTIXBR            INDEX    INDEXLOC
002913: 01,2422           56046                           XCH      X1                                    #  IGNORING OVERFLOWS.
002914:
002915: 01,2423           16645                           TCF      GOTO                                  #  DO THE BRANCH USING THE CADR IN POLISH.
002916:


002918:                                                                                                  #           SUBROUTINE TO CONVERT AN ERASABLE ADDRESS (11 BITS) TO AN EBANK SETTING AND SUBADDRESS.
002919:
002920: 01,2424           40117        15ADRERS           CS       POLISH
002921: 01,2425           64772                           AD       DEC45
002922: 01,2426           10000                           CCS      A                                     #  DOES THE ADDRESS POINT TO THE WORK AREA?
002923: 01,2427           30120                           CA       FIXLOC                                #  YES.  ADD FIXLOC.  EBANK OK AS IS.
002924: 01,2430           12435                           TCF      +5
002925:
002926: 01,2431           35007                           CA       OCT1400                               #  NO.  SET EBANK & MAKE UP SUBADDRESS.
002927: 01,2432           56117                           XCH      POLISH
002928: 01,2433           54003                           TS       EBANK
002929: 01,2434           74357                           MASK     LOW8
002930: 01,2435           26117                 +5        ADS      POLISH                                #  FALL INTO TAGSUB, AND RETURN VIA Q.
002931:
002932:                                                                                                  #           SUBROUTINE WHICH SETS THE ADDRESS OF THE SPECIFIED INDEX IN INDEXLOC. (ACTUALLY, THE ADDRESS -38D.)
002933:
002934: 01,2436           30120        TAGSUB             CA       FIXLOC
002935: 01,2437           54130                           TS       INDEXLOC
002936:
002937: 01,2440           10020                           CCS      CYR                                   #  BIT 15 SPECIFIES INDEX.
002938: 01,2441           24130                           INCR     INDEXLOC                              #  0 MEANS USE X2.
002939: 01,2442           00002                           TC       Q
002940: 01,2443           00002                           TC       Q                                     #  1 FOR X1.
002941:


002943:                                                                                                  #           MISCELLANEOUS OPERATION CODES WITH DIRECT ADDRESSES. INCLUDED HERE ARE:
002944:
002945:                                                                                                  #           1.  ITA                STORE QPRET (RETURN ADDRESS) IN ERASABLE.
002946:                                                                                                  #           2.  CALL               CALL A SUBROUTINE, LEAVING RETURN IN QPRET.
002947:                                                                                                  #           3.  RTB                RETURN TO BASIC LANGUAGE AT THE GIVEN ADDRESS.
002948:                                                                                                  #           4.  BHIZ               BRANCH IF THE HIGH ORDER OF MPAC IS ZERO (SINGLE PRECISION).
002949:                                                                                                  #           5.  BOV                BRANCH ON OVERFLOW.
002950:                                                                                                  #           6.  GOTO               SIMPLE SEQUENCE CHANGE.
002951:
002952: 01,2444           10020        RTB/BHIZ           CCS      CYR
002953: 01,2445           30117        RTB                CA       POLISH
002954: 01,2446           04621                           TC       SWCALL     -1                         #  SO A "TC Q" FROM ROUTINE LEADS TO DANZIG
002955:
002956: 01,2447           10154        BHIZ               CCS      MPAC
002957: 01,2450           16060                           TCF      DANZIG
002958: 01,2451           16645                           TCF      GOTO
002959: 01,2452           16060                           TCF      DANZIG
002960: 01,2453           16645                           TCF      GOTO
002961:
002962: 01,2454           10121        BOV(B)             CCS      OVFIND                                #  BRANCH ON OVERFLOW TO BASIC OR INTERP.
002963: 01,2455           12457                           TCF      +2
002964: 01,2456           16060                           TCF      DANZIG
002965: 01,2457           54121                           TS       OVFIND
002966: 01,2460           10020                           CCS      CYR
002967: 01,2461           12445                           TCF      RTB                                   #  IF BASIC.
002968: 01,2462           00360        B5TOBB             OCT      360
002969: 01,2463           16645                           TCF      GOTO
002970:


002972: 01,2464           10020        BZE/GOTO           CCS      CYR                                   #  SEE WHICH OP-CODE IS DESIRED.
002973: 01,2465           06722                           TC       BRANCH                                #  DO BZE.
002974: 01,2466           16060                           TCF      DANZIG
002975: 01,2467           16645                           TCF      GOTO                                  #  DO GOTO.
002976: 01,2470           16060                           TCF      DANZIG
002977:
002978: 01,2471           10020        BPL/BMN            CCS      CYR
002979: 01,2472           12500                           TCF      BPL
002980: 01,2473           12000        5B10               DEC      5          B+10                       #  SHIFTS OP CODE IN SWITCH INSTRUCTION ADR
002981:
002982: 01,2474           06722                           TC       BRANCH                                #  DO BMN.
002983: 01,2475           16060                           TCF      DANZIG
002984: 01,2476           16060                           TCF      DANZIG
002985: 01,2477           16645                           TCF      GOTO                                  #  ONLY IF NNZ.
002986:
002987: 01,2500           06722        BPL                TC       BRANCH
002988: 01,2501           16645                           TCF      GOTO                                  #  IF POSITIVE OR ZERO.
002989: 01,2502           16645                           TCF      GOTO
002990: 01,2503           16060                           TCF      DANZIG
002991:
002992: 01,2504           10020        CALL/ITA           CCS      CYR
002993: 01,2505           16637                           TCF      CALL
002994:
002995: 01,2506           05677                           TC       CCSHOLE
002996: 01,2507           02424                           TC       15ADRERS                              #  STORE QPRET. (TAGSUB AFTER 15ADRERS IS
002997: 01,2510           50120                           INDEX    FIXLOC                                #  SLOW IN THIS CASE, BUT SAVES STORAGE.)
002998: 01,2511           30052                           CA       QPRET
002999: 01,2512           12364                           TCF      MSTORE1
003000:


003002:                                                                                                  #           THE FOLLOWING OPERATIONS ARE AVAILABLE FOR ALTERING AND TESTING INTERPRETIVE SWITCHES:
003003:
003004:                                                                                                  #  00       BONSET                 SET A SWITCH AND DO A GOTO IF IT WAS ON.
003005:                                                                                                  #  01       SETGO                  SET A SWITCH AND DO A GOTO.
003006:                                                                                                  #  02       BOFSET                 SET A SWITCH AND DOA GOTO IF IT WAS OFF
003007:                                                                                                  #  03       SET                    SET A SWITCH.
003008:
003009:                                                                                                  #  04       BONINV                 INVERT A SWITCH AND BRANCH IF IT WAS ON.
003010:                                                                                                  #  05       INVGO                  INVERT A SWITCH AND DO A GOTO.
003011:                                                                                                  #  06       BOFINV                 INVERT A SWITCH AND BRANCH IF IT WAS OFF
003012:                                                                                                  #  07       INVERT                 INVERT A SWITCH.
003013:
003014:                                                                                                  #  10       BONCLR                 CLEAR A SWITCH AND BRANCH IF IT WAS ON.
003015:                                                                                                  #  11       CLRGO                  CLEAR A SWITCH AND DO A GOTO.
003016:                                                                                                  #  12       BOFCLR                 CLEAR A SWITCH AND BRANCH IF IT WAS OFF.
003017:                                                                                                  #  13       CLEAR                  CLEAR A SWITCH.
003018:
003019:                                                                                                  #  14       BON                    BRANCH IF A SWITCH WAS ON.
003020:                                                                                                  #  16       BOFF                   BRANCH IF A SWITCH WAS OFF.
003021:
003022:
003023:                                                                                                  #           THE ADDRESS SUPPLIED WITH THE SWITCH INSTRUCTION IS INTERPRETED AS FOLLOWS:
003024:
003025:                                                                                                  #           BITS 1-4    SWITCH BIT NUMBER (1-15).
003026:                                                                                                  #           BITS 5-8    SWITCH OPERATION NUMBER.
003027:                                                                                                  #           BITS 9-     SWITCH WORD NUMBER (UP TO 64 SWITCH WORDS).
003028:
003029:                                                                                                  #           THE ADDRESS ITSELF IS MADE UP BY THE YUL SYSTEM ASSEMBLER. THE BRANCH INSTRUCTIONS REQUIRE TWO
003030:                                                                                                  #  ADDRESSES, THE SECOND TAKEN AS THE DIRECT (OR INDIRECT IF IN ERASABLE) ADDRESS OF THE BRANCH.
003031:
003032:
003033: 01,2513           34762        SWITCHES           CAF      LOW4                                  #  LEAVE THE SWITCH BIT IN  SWBIT  .
003034: 01,2514           70117                           MASK     POLISH
003035: 01,2515           50000                           INDEX    A
003036: 01,2516           34735                           CAF      BIT15                                 #  (NUMBER FROM LEFT TO RIGHT.)
003037: 01,2517           54131                           TS       SWBIT
003038:
003039: 01,2520           34745                           CAF      BIT7                                  #  LEAVE THE SWITCH NUMBER IN SWWORD.
003040: 01,2521           00006                           EXTEND
003041: 01,2522           70117                           MP       POLISH
003042: 01,2523           54130                           TS       SWWORD
003043:
003044: 01,2524           00004                           INHINT                                         #  DURING SWITCH CHANGE SO RUPT CAN USE TOO
003045: 01,2525           50000                           INDEX    A                                     #  LEAVE THE SWITCH WORD ITSELF IN L.
003046: 01,2526           30074                           CA       STATE
003047: 01,2527           54002                           TS       Q                                     #  Q WILL BE USED AS A CHANNEL.


003049: 01,2530           34741                           CAF      BIT11
003050: 01,2531           00006                           EXTEND                                         #  DISPATCH SWITCH BIT OPERATION AS IN BITS
003051: 01,2532           70117                           MP       POLISH                                #  7-8 OF POLISH.
003052: 01,2533           72573                           MASK     B3TOB4                                #  GETS 4X2-BIT CODE.
003053: 01,2534           50000                           INDEX    A
003054: 01,2535           12536                           TCF      +1
003055:
003056: 01,2536           30131                 +1        CA       SWBIT                                 #  00 - SET SWITCH IN QUESTION.
003057: 01,2537           00006                           EXTEND
003058: 01,2540           04002                           ROR      QCHAN
003059: 01,2541           12550                           TCF      SWSTORE
003060:
003061: 01,2542           30131                 +5        CA       SWBIT                                 #  01 - INVERT SWITCH.
003062: 01,2543           00006                           EXTEND
003063: 01,2544           06002                           RXOR     QCHAN
003064: 01,2545           12550                           TCF      SWSTORE
003065:
003066: 01,2546           40131                 +9D       CS       SWBIT                                 #  10 - CLEAR.
003067: 01,2547           70002                           MASK     Q
003068: 01,2550           50130        SWSTORE            INDEX    SWWORD
003069: 01,2551           54074                           TS       STATE                                 #  NEW SWITCH WORD.
003070:


003072: 01,2552           00003                 +13D      RELINT                                         #  11 - NOOP.
003073: 01,2553           34737                           CAF      BIT13
003074: 01,2554           00006                           EXTEND                                         #  DISPATCH SEQUCE CHANGING OR BRANCHING
003075: 01,2555           70117                           MP       POLISH                                #  CODE.
003076: 01,2556           72573                           MASK     B3TOB4
003077: 01,2557           50000                           INDEX    A
003078: 01,2560           12561                           TCF      +1                                    #  ORIGINALLY STORED IN BITS 5-6.
003079:
003080: 01,2561           40002                 +1        CS       Q                                     #  00 - BRANCH IF ON.
003081: 01,2562           70131        TEST               MASK     SWBIT
003082: 01,2563           10000                           CCS      A
003083: 01,2564           12574                           TCF      SWSKIP
003084:
003085: 01,2565           16714                 +5        TCF      SWBRANCH                              #  01 - GO TO.
003086:
003087: 01,2566           12574                           TCF      SWSKIP                                #  HERE ONLY ON BIT 15.
003088:
003089: 01,2567           05677                           TC       CCSHOLE
003090: 01,2570           05677                           TC       CCSHOLE
003091:
003092: 01,2571           30002                 +9D       CA       Q                                     #  10 - BRANCH IF OFF.
003093: 01,2572           12562                           TCF      TEST
003094:
003095: 01,2573           00014        B3TOB4             OCT      0014
003096: 01,2574           24164        SWSKIP             INCR     LOC
003097:
003098: 01,2575  01,2513               SW/                EQUALS   SWITCHES
003099:
003100: 01,2575           16060                 +13D      TCF      DANZIG                                #  11 - NOOP.

End of include-file INTERPRETER.agc.  Parent file is MAIN.agc


