
Source Code


000002:                                                                                                  ## Copyright:   Public domain.
000003:                                                                                                  ## Filename:    INTERPRETER.agc
000004:                                                                                                  ## Purpose:     A section of LUM69 revision 2.
000005:                                                                                                  ##              It is part of the reconstructed source code for the flown
000006:                                                                                                  ##              version of the flight software for the Lunar Module's (LM)
000007:                                                                                                  ##              Apollo Guidance Computer (AGC) for Apollo 10. The code has
000008:                                                                                                  ##              been recreated from a copy of Luminary revsion 069, using
000009:                                                                                                  ##              changes present in Luminary 099 which were described in
000010:                                                                                                  ##              Luminary memos 75 and 78. The code has been adapted such
000011:                                                                                                  ##              that the resulting bugger words exactly match those specified
000012:                                                                                                  ##              for LUM69 revision 2 in NASA drawing 2021152B, which gives
000013:                                                                                                  ##              relatively high confidence that the reconstruction is correct.
000014:                                                                                                  ## Reference:   pp. 997-1089
000015:                                                                                                  ## Assembler:   yaYUL
000016:                                                                                                  ## Contact:     Ron Burkey <info@sandroid.org>.
000017:                                                                                                  ## Website:     www.ibiblio.org/apollo/index.html
000018:                                                                                                  ## Mod history: 2019-07-27 MAS  Created from Luminary 69.
000019:                                                                                                  ##              2021-05-30 ABS  Added IRT0 location symbol to match Luminary 69.
000020:                                                                                                  ##                              B5TOBB -> B5TOB8
000021:
000022:


000024:                                                                                                  #  SECTION 1  DISPATCHER
000025:
000026:                                                                                                  #           ENTRY TO THE INTERPRETER. INTPRET SETS LOC TO THE FIRST  INSTRUCTION, BANKSET TO THE BBANK OF THE
000027:                                                                                                  #  OBJECT INTERPRETIVE PROGRAM, AND INTBIT15 TO THE BIT15 CONTENTS OF FBANK. INTERPRETIVE PROGRAMS MAY BE IN
000028:                                                                                                  #  VIRTUALLY ALL BANKS PRESENT UNDER ANY SUPER-BANK SETTING, WITH THE RESTRICTION THAT PROGRAMS IN HIGH BANKS
000029:                                                                                                  #  (BIT15 OF FBANK = 1) DO NOT REFER TO LOWBANKS, AND VICE-VERSA. THE INTERPRETER DOES NOT SWITCH SUPERBANKS.
000030:                                                                                                  #  E-BANK SWITCHING OCCURS WHENEVER GENERAL ERASABLE (100 - 3777) IS ADDRESSED.
000031:
000032:    6036                                           BLOCK    03
000033:
000034:    6036                                           COUNT*   $$/INTER
000035:    6036           00003        INTPRET            RELINT
000036:    6037           00006                           EXTEND                                         #  SET LOC TO THE WORD FOLLOWING THE TC.
000037:    6040           22164                           QXCH     LOC
000038:
000039:    6041           30006                 +2        CA       BBANK                                 #  INTERPRETIVE BRANCHES FINISH HERE.
000040:    6042           54165                           TS       BANKSET
000041:    6043           74735                           MASK     BIT15                                 #  GET 15TH BIT FOR INDEXABLE ADDRESSES.
000042:    6044           54115                           TS       INTBIT15
000043:
000044:    6045           54023                           TS       EDOP                                  #  MAKE SURE NO INSTRUCTIONS LEFT OVER
000045:
000046:    6046           16067                           TCF      NEWOPS                                #  PICK UP OP CODE PAIR AND BEGIN.
000047:
000048:
000049:    6047           22006        INTRSM             LXCH     BBANK                                 #  RESUME SUSPENDED INTERPRETIVE JOB
000050:    6050           16041                           TCF      INTPRET    +3
000051:                                                                                                  #           DLOAD LOADS MPAC, MPAC +1, LEAVING ZERO IN MPAC +2.
000052:
000053:    6051           00006        DLOAD              EXTEND
000054:    6052           50116                           INDEX    ADDRWD
000055:    6053           30001                           DCA      0                                     #  LOAD DP C(C(ADDRWD)) INTO MPAC,MPAX +1
000056:    6054           52155        SLOAD2             DXCH     MPAC
000057:    6055           34755                           CAF      ZERO                                  #  ZERO MPAC +2
000058:


000060:                                                                                                  #           AT THE END OF MOST INSTRUCTIONS, CONTROL IS GIVEN TO DANZIG TO DISPATCH THE NEXT OPERATION.
000061:
000062:    6056           54156                           TS       MPAC       +2                         #  AND DECLARE DP MODE
000063:
000064:    6057           54163        NEWMODE            TS       MODE                                  #  PROLOGUE FOR MODE-CHANGING INSTRUCTIONS.
000065:
000066:    6060           30165        DANZIG             CA       BANKSET                               #  SET BBANK BEFORE TESTING NEWJOB SO THAT
000067:    6061           54006                           TS       BBANK                                 #  IT MAY BE SAVED DIRECTLY BY CHANJOB.
000068:
000069:    6062           10023        NOIBNKSW           CCS      EDOP                                  #  SEE IF AN ORDER CODE IS LEFT OVER FROM
000070:    6063           16076                           TCF      OPJUMP                                #  THE LAST PAIR RETRIEVED. IF SO, EXECUTE.
000071:                                                                                                  #  EDOP IS SET TO ZERO ON ITS RE-EDITING.
000072:
000073:    6064           10067                           CCS      NEWJOB                                #  SEE IF A JOB OF HIGHER PRIORITY IS
000074:    6065           15126                           TCF      CHANG2                                #  PRESENT, AND IF SO, CHANGE JOBS.
000075:
000076:    6066           24164                           INCR     LOC                                   #  ADVANCE THE LOCATION COUNTER.
000077:                                                                                                  #           ITRACE (1) REFERS TO "NEWOPS".
000078:    6067           50164        NEWOPS             INDEX    LOC                                   #  ENTRY TO BEGIN BY PICKING OP CODE PAIR.
000079:    6070           30000                           CA       0                                     #  MAY BE AN OPCODE PAIR OR A STORE CODE.
000080:    6071           10000                           CCS      A                                     #  TEST SIGN AND GET DABS(A).
000081:    6072           16361                           TCF      DOSTORE                               #  PROCESS STORE CODE.
000082:
000083:    6073           00177        LOW7               OCT      177
000084:
000085:    6074           54023                           TS       EDOP                                  #  OP CODE PAIR. LEAVE THE OTHER IN EDOP
000086:    6075           76073                           MASK     LOW7                                  #  WHERE  CCS EDOP  WILL HONOR IT NEXT.
000087:
000088:    6076           54020        OPJUMP             TS       CYR                                   #  LOWWD ENTERS HERE IF A RIGHT-HAND OP
000089:    6077           10020                           CCS      CYR                                   #  CODE IS TO BE PROCESSED. TEST PREFICES.
000090:    6100           16246                           TCF      OPJUMP2                               #  TEST SECOND PREFIX BIT.
000091:
000092:    6101           16742                           TCF      EXIT                                  #  +0 OP CODE IS EXIT.
000093:


000095:                                                                                                  #           PROCESS ADDRESSES WHICH MAY BE DIRECT, INDEXED, OR REFERENCE THE PUSHDOWN LIST.
000096:
000097:    6102           74753        ADDRESS            MASK     BIT1                                  #  SEE IF ADDRESS IS INDEXED. CYR CONTAINED
000098:    6103           10000                           CCS      A                                     #  400XX, SO BIT 1 IS NOW AS IT WAS IN CYR.
000099:    6104           16145                           TCF      INDEX                                 #  FORM INDEXED ADDRESS.
000100:
000101:    6105           50164        DIRADRES           INDEX    LOC                                   #  LOOK AHEAD TO NEXT WORD TO SEE IF
000102:    6106           40001        OCT40001           CS       1                                     #  ADDRESS IS GIVEN.
000103:    6107           10000                           CCS      A
000104:    6110           16214                           TCF      PUSHUP                                #  IF NOT.
000105:
000106:    6111           77773        NEG4               DEC      -4         B-14
000107:
000108:    6112           24164                           INCR     LOC                                   #  IF SO, TO SHOW WE PICKED UP A WORD.
000109:    6113           54116                           TS       ADDRWD
000110:


000112:                                                                                                  #           FINAL DIGESTION OF DIRECT ADDRESSES OF OP CODES WITH 01 PREFIX IS DONE HERE. IN EACH CASE, THE
000113:                                                                                                  #  REQUIRED 12-BIT SUB-ADDRESS IS LEFT IN ADDRWD, WITH ANY REQUIRED E OR F BANK SWITCHING DONE. ADDRESSES LESS
000114:                                                                                                  #  THAN 45D ARE TAKEN TO BE RELATIVE TO THE WORK AREA. THE OP CODE IS NOW IN BITS 1-5 OF CYR WITH BIT 14 = 1.
000115:
000116:
000117:    6114           66250                           AD       -ENDVAC                               #  SEE IF ADDRESS RELATIVE TO WORK AREA.
000118:    6115           10000                           CCS      A
000119:    6116           67742                           AD       -ENDERAS                              #  IF NOT, SEE IF IN GENERAL ERASABLE.
000120:    6117           16124                           TCF      IERASTST
000121:
000122:    6120           30120        NETZERO            CA       FIXLOC                                #  IF SO, LEAVE THE MODIFIED ADDRESS IN
000123:    6121           26116                           ADS      ADDRWD                                #  ADDRWD AND DISPATCH.
000124:    6122           50020        ITR15              INDEX    CYR                                   #  THIS INDEX MAKES THE NEXT INSTRUCTION
000125:    6123           76272                           7        INDJUMP    -1                         #  TCF INDJUMP + OP, EDITING CYR.
000126:
000127:    6124           00006        IERASTST           EXTEND
000128:    6125           66135                           BZMF     GEADDR                                #  GO PROCESS GENERAL-ERASABLE ADDRESS.
000129:
000130:    6126           75012                           MASK     LOW10                                 #  FIXED BANK ADDRESS. RESTORE AND ADD B15.
000131:    6127           65012                           AD       LOW10                                 #  SWITCH BANKS AND LEAVE SUBADDRESS IN
000132:    6130           56116                           XCH      ADDRWD                                #  ADDRWD FOR OPERAND RETRIEVAL. (THIS
000133:    6131           60115                           AD       INTBIT15                              #  METHOD PRECLUDES USE OF THE LAST
000134:    6132           54004                           TS       FBANK                                 #  LOCATION IN EACH FBANK.)
000135:    6133           50020        ITR12              INDEX    CYR
000136:    6134           76272                           7        INDJUMP    -1
000137:
000138:    6135           74357        GEADDR             MASK     LOW8
000139:    6136           65007                           AD       OCT1400
000140:    6137           56116                           XCH      ADDRWD
000141:    6140           54003                           TS       EBANK
000142:    6141           50020        ITR10              INDEX    CYR
000143:    6142           76272                           7        INDJUMP    -1
000144:


000146:                                                                                                  #           THE FOLLOWING ROUTINE PROCESSES INTERPRETIVE INDEXED ADDRESSES. AN INTERPRETER INDEX REGISTER MAY
000147:                                                                                                  #  CONTAIN THE ADDRESS OF ANY ERASABLE REGISTER (0-42 BEING RELATIVE TO THE VAC AREA) OR ANY INTERPRETIVE PROGRAM
000148:                                                                                                  #  BANK, OR ANY INTEGER IN THAT RANGE.
000149:
000150:    6143           37732        DODLOAD*           CAF      DLOAD*                                #  STODL* COMES HERE TO PROCESS LOAD ADR.
000151:    6144           54020                           TS       CYR                                   #  (STOVL* ENTERS HERE).
000152:
000153:    6145           30120        INDEX              CA       FIXLOC                                #  SET UP INDEX LOCATION.
000154:    6146           54130                           TS       INDEXLOC
000155:    6147           24164                           INCR     LOC                                   #  (ADDRESS ALWAYS GIVEN).
000156:    6150           50164                           INDEX    LOC
000157:    6151           40000                           CS       0
000158:    6152           10000                           CCS      A                                     #  INDEX 2 IF ADDRESS STORED COMPLEMENTED.
000159:    6153           24130                           INCR     INDEXLOC
000160:    6154           16155                           NOOP
000161:
000162:    6155           54116                           TS       ADDRWD                                #  14 BIT ADDRESS TO ADDRWD.
000163:    6156           77741                           MASK     HIGH4                                 #  IF ADDRESS GREATER THAN 2K, ADD INTBIT15
000164:    6157           00006                           EXTEND
000165:    6160           16163                           BZF      INDEX2
000166:    6161           30115                           CA       INTBIT15
000167:    6162           26116                           ADS      ADDRWD
000168:
000169:    6163           50130        INDEX2             INDEX    INDEXLOC
000170:    6164           40046                           CS       X1
000171:    6165           26116                           ADS      ADDRWD                                #  DO AUGMENT, IGNORING AND CORRECTING OVF.
000172:
000173:    6166           77743                           MASK     HIGH9                                 #  SEE IF ADDRESS IS IN WORK AREA.
000174:    6167           00006                           EXTEND
000175:    6170           16203                           BZF      INDWORK
000176:    6171           77741                           MASK     HIGH4                                 #  SEE IF IN FIXED BANK.
000177:    6172           00006                           EXTEND
000178:    6173           16205                           BZF      INDERASE
000179:
000180:    6174           30116                           CA       ADDRWD                                #  IN FIXED - SWITCH BANKS AND CREATE
000181:    6175           54004                           TS       FBANK                                 #  SUB-ADDRESS.
000182:    6176           75012                           MASK     LOW10
000183:    6177           64741                           AD       2K
000184:    6200           54116                           TS       ADDRWD
000185:    6201           50020        ITR11              INDEX    CYR
000186:    6202           36272                           3        INDJUMP    -1
000187:
000188:    6203           30120        INDWORK            CA       FIXLOC                                #  MAKE ADDRWD RELATIVE TO WORK AREA.
000189:    6204           16211                           TCF      ITR13      -1
000190:
000191:    6205           35007        INDERASE           CA       OCT1400
000192:    6206           56116                           XCH      ADDRWD
000193:    6207           54003                           TS       EBANK
000194:    6210           74357                           MASK     LOW8
000195:    6211           26116                 -1        ADS      ADDRWD


000197:    6212           50020        ITR13              INDEX    CYR
000198:    6213           36272                           3        INDJUMP    -1
000199:


000201:                                                                                                  #           PUSH-UP ROUTINES. WHEN NO OPERAND ADDRESS IS GIVEN, THE APPROPRIATE OPERAND IS TAKEN FROM THE PUSH-DOWN
000202:                                                                                                  #  LIST. IN MOST CASES THE MODE OF THE RESULT (VECTOR OR SCALAR) OF THE LAST ARITHMETIC OPERATION PERFORMED
000203:                                                                                                  #  IS THE SAME AS THE TYPE OF OPERAND DESIRED (ALL ADD/SUBTRACT ETC.). EXCEPTIONS TO THIS GENERAL RULE ARE LISTED
000204:                                                                                                  #  BELOW (NOTE THAT IN EVERY CASE THE MODE REGISTER IS LEFT INTACT):
000205:
000206:                                                                                                  #           1.  VXSC AND V/SC WANT THE OPPOSITE TYPE OF OPERAND, E.G., IF THE LAST OPERATION YIELDED A VECTOR
000207:                                                                                                  #  RESULT, VXSC WANTS A SCALAR.
000208:
000209:                                                                                                  #           2.  THE LOAD CODES SHOULD LOAD THE ACCUMULATOR INDEPENDENT OF THE RESULT OF THE LAST OPERATION. THIS
000210:                                                                                                  #  INCLUDES VLOAD, DLOAD, TLOAD, PDDL, AND PDVL (NO PUSHUP WITH SLOAD).
000211:
000212:                                                                                                  #           3.  SOME ARITHMETIC OPERATIONS REQUIRE A STANDARD TYPE OF OPERAND REGARDLESS OF THE PREVIOUS OPERATION.
000213:                                                                                                  #  THIS INCLUDES SIGN WANTING DP AND TAD REQUIRING TP.
000214:
000215:    6214           34360        PUSHUP             CAF      OCT23                                 #  IF THE LOW 5 BITS OF CYR ARE LESS THAN
000216:    6215           70020                           MASK     CYR                                   #  20, THIS OP REQUIRES SPECIAL ATTENTION.
000217:    6216           66221                           AD       -OCT10                                #  (NO -0).
000218:    6217           10000                           CCS      A
000219:    6220           16232                           TCF      REGUP                                 #  FOR ALL CODES GREATER THAN OCT 7.
000220:
000221:    6221           77767        -OCT10             OCT      -10
000222:
000223:    6222           66111                           AD       NEG4                                  #  WE NOW HAVE 7 - OP CODE(MOD4). SEE IF
000224:    6223           10000                           CCS      A                                     #  THE OP CODE (MOD4) IS THREE (REVERSE).
000225:    6224           50000                           INDEX    A                                     #  NO - THE MODE IS DEFINITE. PICK UP THE
000226:    6225           46243                           CS       NO.WDS
000227:    6226           16234                           TCF      REGUP      +2
000228:
000229:    6227           50163                           INDEX    MODE                                  #  FOR VXSC AND V/SC WE WANT THE REQUIRED
000230:    6230           46241                           CS       REVCNT                                #  PUSHLOC DECREMENT WITHOUT CHANGING THE
000231:    6231           16234                           TCF      REGUP      +2                         #  MODE AT THIS TIME.
000232:
000233:    6232           50163        REGUP              INDEX    MODE                                  #  MOST ALL OP CODES PUSHUP HERE.
000234:    6233           46243                           CS       NO.WDS
000235:    6234           26166                 +2        ADS      PUSHLOC
000236:    6235           54116                           TS       ADDRWD
000237:    6236           50020        ITR14              INDEX    CYR
000238:    6237           76272                           7        INDJUMP    -1                         #  (THE INDEX MAKES THIS A TCF.)
000239:
000240:    6240           00002                           OCT      2                                     #  REVERSE PUSHUP DECREMENT. VECTOR TAKES 2
000241:    6241           00006        REVCNT             OCT      6                                     #  WORDS, SCALAR TAKES 6.
000242:    6242           00006                           OCT      6
000243:    6243           00002        NO.WDS             OCT      2                                     #  CONVENTIONAL DECREMENT IS 6 WORDS VECTOR
000244:    6244           00003        OCTAL3             OCT      3                                     #  2 IN DP, AND 3 IN TP.
000245:    6245           00006                           OCT      6
000246:


000248:                                                                                                  #           TEST THE SECOND PREFIX BIT TO SEE IF THIS IS A MISCELLANEOUS OR A UNARY/SHORT SHIFT OPERATION.
000249:
000250:    6246           10020        OPJUMP2            CCS      CYR                                   #  TEST SECOND PREFIX BIT.
000251:    6247           16262                           TCF      OPJUMP3                               #  TEST THIRD BIT TO SEE IF UNARY OR SHIFT.
000252:
000253:    6250           77722        -ENDVAC            DEC      -45        B-14
000254:
000255:                                                                                                  #           THE FOLLOWING ROUTINE PROCESSES ADDRESSES OF SUFFIX CLASS 10. THEY ARE BASICALLY WORK AREA ADDRESSES
000256:                                                                                                  #  IN THE RANGE 0 - 52, ERASABLE ECADR CONSTANTS FROM 100 - 3777, AND FCADRS ABOVE THAT. ALL 15 BITS ARE AVAILABLE
000257:                                                                                                  #  IN CONTRAST TO SUFFIX 1, IN WHICH ONLY THE LOW ORDER 14 ARE AVAILABLE.
000258:
000259:    6251           24164        15BITADR           INCR     LOC                                   #  (ENTRY HERE FROM STCALL).
000260:    6252           50164                           INDEX    LOC                                   #  PICK UP ADDRESS WORD.
000261:    6253           30000                           CA       0
000262:    6254           54117                           TS       POLISH                                #  WE MAY NEED A SUBADDRESS LATER.
000263:
000264:    6255           35013                           CAF      LOW7+2K                               #  THESE INSTRUCTIONS ARE IN BANK 1.
000265:    6256           54004                           TS       FBANK
000266:    6257           70020                           MASK     CYR
000267:    6260           50000        ITR7               INDEX    A
000268:    6261           16333                           TCF      MISCJUMP
000269:


000271:                                                                                                  #           COMPLETE THE DISPATCHING OF UNARY AND SHORT SHIFT OPERATIONS.
000272:
000273:    6262           54004        OPJUMP3            TS       FBANK                                 #  CALL IN BANK 0 (BITS 11-15 OF A ARE 0.)
000274:                                                                                                  #           ITRACE (6) REFERS TO "OPJUMP3".
000275:    6263           10020                           CCS      CYR                                   #  TEST THIRD PREFIX BIT.
000276:    6264           50000                           INDEX    A                                     #  THE DECREMENTED UNARY CODE IS IN BITS
000277:    6265           12000                           TCF      UNAJUMP                               #  1-4 OF A (ZERO, EXIT, HAS BEEN DETECTED)
000278:
000279:    6266           10163                           CCS      MODE                                  #  ITS A SHORT SHIFT CODE. SEE IF PRESENT
000280:    6267           12017                           TCF      SHORTT                                #  SCALAR OR VECTOR.
000281:    6270           12017                           TCF      SHORTT
000282:    6271           12121                           TCF      SHORTV                                #  CALLS THE APPROPRIATE ROUTINE.
000283:
000284:
000285:    6272     4350               FBANKMSK           EQUALS   BANKMASK
000286:    6272           00122        LVBUF              ADRES    VBUF
000287:


000289:                                                                                                  #           THE FOLLOWING IS THE JUMP TABLE FOR OP CODES WHICH MAY HAVE INDEXABLE ADDRESSES OR MAY PUSH UP.
000290:
000291:    6273           16504        INDJUMP            TCF      VLOAD                                 #  00 - LOAD MPAC WITH A VECTOR.
000292:    6274           17070                           TCF      TAD                                   #  01 - TRIPLE PRECISION ADD TO MPAC.
000293:    6275           17654                           TCF      SIGN                                  #  02 - COMPLEMENT MPAC (V OR SC) IF X NEG.
000294:    6276           17400                           TCF      VXSC                                  #  03 - VECTOR TIMES SCALAR.
000295:    6277           16702                           TCF      CGOTO                                 #  04 - COMPUTED GO TO.
000296:    6300           16467                           TCF      TLOAD                                 #  05 - LOAD MPAC WITH TRIPLE PRECISION.
000297:    6301           16051                           TCF      DLOAD                                 #  06 - LOAD MPAC WITH A DP SCALAR.
000298:    6302           17623                           TCF      V/SC                                  #  07 - VECTOR DIVIDED BY SCALAR.
000299:
000300:    6303           16500                           TCF      SLOAD                                 #  10 - LOAD MPACIN SINGLE PRECISION.
000301:    6304           16617                           TCF      SSP                                   #  11 - SET SINGLE PRECISION INTO X.
000302:    6305           16522                           TCF      PDDL                                  #  12 - PUSH DOWN MPAC AND RE-LOAD IN DP.
000303:    6306           17333                           TCF      MXV                                   #  13 - MATRIX POST-MULTIPLIED BY VECTOR.
000304:    6307           16556                           TCF      PDVL                                  #  14 - PUSH DOWN AND VECTOR LOAD.
000305:    6310           16625                           TCF      CCALL                                 #  15 - COMPUTED CALL.
000306:    6311           17336                           TCF      VXM                                   #  16 - MATRIX PRE-MULTIPLIED BY VECTOR.
000307:    6312           17615                           TCF      TSLC                                  #  17 - NORMALIZE MPAC (SCALAR ONLY).
000308:
000309:    6313           17573                           TCF      DMPR                                  #  20 - DP MULTIPLY AND ROUND.
000310:    6314           17576                           TCF      DDV                                   #  21 - DP DIVIDE BY.
000311:    6315           17602                           TCF      BDDV                                  #  22 - DP DIVIDE INTO.
000312:    6316           17620                           TCF      GSHIFT                                #  23 - GENERAL SHIFT INSTRUCTION.
000313:    6317           16750                           TCF      VAD                                   #  24 - VECTOR ADD.
000314:    6320           16746                           TCF      VSU                                   #  25 - VECTOR SUBTRACT.
000315:    6321           17035                           TCF      BVSU                                  #  26 - VECTOR SUBTRACT FROM.
000316:    6322           17330                           TCF      DOT                                   #  27 - VECTOR DOT PRODUCT.
000317:
000318:    6323           17457                           TCF      VXV                                   #  30 - VECTOR CROSS PRODUCT.
000319:    6324           17424                           TCF      VPROJ                                 #  31 - VECTOR PROJECTION.
000320:    6325           17004                           TCF      DSU                                   #  32 - DP SUBTRACT.
000321:    6326           17061                           TCF      BDSU                                  #  33 - DP SUBTRACT FROM.
000322:    6327           16774                           TCF      DAD                                   #  34 - DP ADD.
000323:    6330           16330                           TCF      +0                                    #  35 - AVAILABLE
000324:    6331           17571                           TCF      DMP1                                  #  36 - DP MULTIPLY.
000325:    6332           17612                           TCF      SETPD                                 #  37 - SET PUSH DOWN POINTER (DIRECT ONLY)
000326:
000327:                                                                                                  #  CODES 10 AND 14 MUST NOT PUSH UP. CODE 04 MAY BE USED FOR VECTOR DECLARE BEFORE PUSHUP IF DESIRED.
000328:


000330:                                                                                                  #           THE FOLLOWING JUMP TABLE APPLIES TO INDEX, BRANCH, AND MISCELLANEOUS INSTRUCTIONS.
000331:
000332:    6333           12341        MISCJUMP           TCF      AXT                                   #  00 - ADDRESS TO INDEX TRUE.
000333:    6334           12346                           TCF      AXC                                   #  01 - ADDRESS TO INDEX COMPLEMENTED.
000334:    6335           12351                           TCF      LXA                                   #  02 - LOAD INDEX FROM ERASABLE.
000335:    6336           12355                           TCF      LXC                                   #  03 - LOAD INDEX FROM COMPLEMENT OF ERAS.
000336:    6337           12361                           TCF      SXA                                   #  04 - STORE INDEX IN ERASABLE.
000337:    6340           12367                           TCF      XCHX                                  #  05 - EXCHANGE INDEX WITH ERASABLE.
000338:    6341           12403                           TCF      INCR                                  #  06 - INCREMENT INDEX REGISTER.
000339:    6342           12412                           TCF      TIX                                   #  07 - TRANSFER ON INDEX.
000340:
000341:    6343           12375                           TCF      XAD                                   #  10 - INDEX REGISTER ADD FROM ERASABLE.
000342:    6344           12406                           TCF      XSU                                   #  11 - INDEX SUBTRACT FROM ERASABLE.
000343:    6345           12464                           TCF      BZE/GOTO                              #  12 - BRANCH ZERO AND GOTO.
000344:    6346           12471                           TCF      BPL/BMN                               #  13 - BRANCH PLUS AND BRANCH MINUS.
000345:    6347           12444                           TCF      RTB/BHIZ                              #  14 - RETURN TO BASIC AND BRANCH HI ZERO.
000346:    6350           12504                           TCF      CALL/ITA                              #  15 - CALL AND STORE QPRET.
000347:    6351           12513                           TCF      SW/                                   #  16 - SWITCH INSTRUCTIONS AND AVAILABLE.
000348:    6352           12454                           TCF      BOV(B)                                #  17 - BRANCH ON OVERFLOW TO BASIC OR INT.
000349:


000351:                                                                                                  #           THE FOLLOWING JUMP TABLE APPIES TO UNARY INSTRUCTIONS.
000352:
000353:    6353                                           COUNT*   $$/INTER
000354: 00,2000                                           BANK     0                                     #  00 - EXIT - DETECTED EARLIER.
000355: 00,2000           13207        UNAJUMP            TCF      SQRT                                  #  01 - SQUARE ROOT.
000356: 00,2001           13530                           TCF      SINE                                  #  02 - SIN.
000357: 00,2002           13517                           TCF      COSINE                                #  03 - COS.
000358: 00,2003           13610                           TCF      ARCSIN                                #  04 - ARC SIN.
000359: 00,2004           13612                           TCF      ARCCOS                                #  05 - ARC COS.
000360: 00,2005           13174                           TCF      DSQ                                   #  06 - DP SQUARE.
000361: 00,2006           12116                           TCF      ROUND                                 #  07 - ROUND TO DP.
000362:
000363: 00,2007           17667                           TCF      COMP                                  #  10 - COMPLEMENT VECTOR OR SCALAR.
000364: 00,2010           13232                           TCF      VDEF                                  #  11 - VECTOR DEFINE.
000365: 00,2011           13023                           TCF      UNIT                                  #  12 - UNIT VECTOR.
000366: 00,2012           13176                           TCF      ABVALABS                              #  13 - LENGTH OF VECTOR OR MAG OF SCALAR.
000367: 00,2013           13245                           TCF      VSQ                                   #  14 - SQUARE OF LENGTH OF VECTOR.
000368: 00,2014           16353                           TCF      STADR                                 #  15 - PUSH UP ON STORE CODE.
000369: 00,2015           13274                           TCF      RVQ                                   #  16 - RETURN VIA QPRET.
000370: 00,2016           13247                           TCF      PUSH                                  #  17 - PUSH MPAC DOWN.
000371:


000373:                                                                                                  #  SECTION 2  LOAD AND STORE PACKAGE.
000374:
000375:                                                                                                  #           A SET OF EIGHT STORE CODES IS PROVIDED AS THE PRIMARY METHOD OF STORING THE MULTI-PURPOSE
000376:                                                                                                  #  ACCUMULATOR (MPAC). IF IN THE DANZIG SECTION LOC REFERS TO AN ALGEBRAICALLY POSITIVE WORD, IT IS TAKEN AS A
000377:                                                                                                  #  STORE CODE WITH A CORRESPONDING ERASABLE ADDRESS. MOST OF THESE CODES ARE TWO ADDRESS, SPECIFYING THAT THE WORD
000378:                                                                                                  #  FOLLOWING THE STORE CODE IS TO BE USED AS AN ADDRESS FROM WHICH TO RE-LOAD MPAC. FOUR OPTIONS ARE AVAILABLE:
000379:
000380:                                                                                                  #           1. STORE               STORE MPAC. THE E ADDRESS MAY BE INDEXED.
000381:                                                                                                  #           2. STODL               STORE MPAC AND RE-LOAD IT IN DP WITH THE NEXT ADDRESS (THE LOAD MAY BE INDEXED).
000382:                                                                                                  #           3. STOVL               STORE MPAC AND RE-LOAD A VECTOR (AS ABOVE).
000383:                                                                                                  #           4. STCALL              STORE AND DO A CALL (BOTH ADDRESSES MUST BE DIRECT HERE).
000384:
000385:                                                                                                  #           STODL AND STOVL WILL TAKE FROM THE PUSH-DOWN LIST IF NO LOAD ADDRESS IS GIVEN.
000386:
000387:    6353                                           BLOCK    3
000388:
000389:    6353                                           COUNT*   $$/INTER
000390:    6353           30165        STADR              CA       BANKSET                               #  THE STADR CODE (PUSHUP UP ON STORE
000391:    6354           54004                           TS       FBANK                                 #  ADDRESS) ENTERS HERE.
000392:    6355           24164                           INCR     LOC
000393:    6356           50164        ITR1               INDEX    LOC                                   #  THE STORECODE WAS STORED COMPLEMENTED TO
000394:    6357           40000                           CS       0                                     #  MAKE IT LOOK LIKE AN OPCODE PAIR.
000395:    6360           67746                           AD       NEGONE                                #  (YUL CANT REMOVE 1 BECAUSE OF EARLY CCS)
000396:
000397:    6361           54116        DOSTORE            TS       ADDRWD
000398:    6362           74356                           MASK     LOW11                                 #  ENTRY FROM DISPATCHER. SAVE THE ERASABLE
000399:    6363           56116                           XCH      ADDRWD                                #  ADDRESS AND JUMP ON THE STORE CODE NO.
000400:    6364           77721                           MASK     B12T14
000401:    6365           00006                           EXTEND
000402:    6366           74747                           MP       BIT5                                  #  EACH TRANSFER VECTOR ENTRY IS TWO WORDS.
000403:    6367           50000        ITR0               INDEX    A
000404:    6370           16371                           TCF      STORJUMP
000405:


000407:                                                                                                  #           STORE CODE JUMP TABLE. CALLS THE APPROPRIATE STORING ROUTINE AND EXITS TO DANZIG OR TO ADDRESS WITH
000408:                                                                                                  #  A SUPPLIED OPERATION CODE.
000409:
000410:                                                                                                  #           STORE STORE,1 AND STORE,2 RETURN TO DANZIG, THUS RESETTING THE EBANK TO ITS STATE AT INTPRET.
000411:
000412:    6371           06421        STORJUMP           TC       STORE                                 #  STORE.
000413:    6372           16060                           TCF      DANZIG                                #  PICK UP NEW OP CODE(S).
000414:    6373           06413                           TC       STORE,1
000415:    6374           16060                           TCF      DANZIG
000416:    6375           06416                           TC       STORE,2
000417:    6376           16060                           TCF      DANZIG
000418:
000419:    6377           06421                           TC       STORE                                 #  STODL.
000420:    6400           16457                           TCF      DODLOAD
000421:
000422:    6401           06421                           TC       STORE                                 #  STODL WITH INDEXED LOAD ADDRESS.
000423:    6402           16143                           TCF      DODLOAD*
000424:
000425:    6403           06421                           TC       STORE                                 #  STOVL.
000426:    6404           16462                           TCF      DOVLOAD
000427:
000428:    6405           06421                           TC       STORE                                 #  STOVL WITH INDEXED LOAD ADDRESS.
000429:    6406           16465                           TCF      DOVLOAD*
000430:    6407           06421                           TC       STORE                                 #  STOTC.
000431:    6410           34766                           CAF      CALLCODE
000432:    6411           54020                           TS       CYR
000433:    6412           16251                           TCF      15BITADR                              #  GET A 15 BIT ADDRESS.
000434:


000436:                                                                                                  #           STORE CODE ADDRESS PROCESSOR.
000437:
000438:    6413           50120        STORE,1            INDEX    FIXLOC
000439:    6414           40046                           CS       X1
000440:    6415           16420                           TCF      PRESTORE
000441:
000442:    6416           50120        STORE,2            INDEX    FIXLOC
000443:    6417           40047                           CS       X2
000444:    6420           26116        PRESTORE           ADS      ADDRWD                                #  RESULTANT ADDRESS IS IN ERASABLE.
000445:
000446:    6421           40116        STORE              CS       ADDRWD
000447:    6422           64772                           AD       DEC45
000448:    6423           10000                           CCS      A                                     #  DOES THE ADDRESS POINT TO THE WORK AREA?
000449:    6424           30120                           CA       FIXLOC                                #  YES.
000450:    6425           16432                           TCF      AHEAD5
000451:    6426           35007                           CA       OCT1400                               #  NO. SET EBANK & MAKE UP SUBADDRESS.
000452:    6427           56116                           XCH      ADDRWD
000453:    6430           54003                           TS       EBANK
000454:    6431           74357                           MASK     LOW8
000455:    6432           26116        AHEAD5             ADS      ADDRWD
000456:


000458:                                                                                                  #           STORING ROUTINES. STORE DP, TP, OR VECTOR AS INDICATED BY MODE.
000459:
000460:    6433           00006        STARTSTO           EXTEND                                         #  MPAC,+1 MUST BE STORED IN ANY EVENT.
000461:                                                                                                  #           ITRACE (5) REFERS TO "STARTSTO".
000462:    6434           30155                           DCA      MPAC
000463:    6435           50116                           INDEX    ADDRWD
000464:    6436           52001                           DXCH     0
000465:
000466:    6437           10163                           CCS      MODE
000467:    6440           16453                           TCF      TSTORE
000468:    6441           00002                           TC       Q
000469:
000470:    6442           00006        VSTORE             EXTEND
000471:    6443           30160                           DCA      MPAC       +3
000472:    6444           50116                           INDEX    ADDRWD
000473:    6445           52003                           DXCH     2
000474:
000475:    6446           00006                           EXTEND
000476:    6447           30162                           DCA      MPAC       +5
000477:    6450           50116                           INDEX    ADDRWD
000478:    6451           52005                           DXCH     4
000479:    6452           00002                           TC       Q
000480:
000481:    6453           30156        TSTORE             CA       MPAC       +2
000482:    6454           50116                           INDEX    ADDRWD
000483:    6455           54002                           TS       2
000484:    6456           00002                           TC       Q
000485:


000487:                                                                                                  #           ROUTINES TO BEGIN PROCESSING OF THE SECOND ADDRESS ASSOCIATED WITH ALL STORE-TYPE CODES EXCEPT STORE
000488:                                                                                                  #  ITSELF.
000489:
000490:    6457           37731        DODLOAD            CAF      DLOADCOD
000491:    6460           54020                           TS       CYR
000492:    6461           16105                           TCF      DIRADRES                              #  GO GET A DIRECT ADDRESS.
000493:
000494:    6462           34735        DOVLOAD            CAF      VLOADCOD
000495:    6463           54020                           TS       CYR
000496:    6464           16105                           TCF      DIRADRES
000497:
000498:    6465           36106        DOVLOAD*           CAF      VLOAD*
000499:    6466           16144                           TCF      DODLOAD*   +1                         #  PROLOGUE TO INDEX ROUTINE.
000500:


000502:                                                                                                  #           THE FOLLOWING LOAD INSTRUCTIONS ARE PROVIDED FOR LOADING THE MULTI-PURPOSE ACCUMULATOR MPAC.
000503:
000504:    6467           50116        TLOAD              INDEX    ADDRWD
000505:    6470           30002                           CA       2                                     #  LOAD A TRIPLE PRECISION ARGUMENT INTO
000506:    6471           54156                           TS       MPAC       +2                         #  THE FIRST THREE MPAC REGISTERS, WITH THE
000507:    6472           00006                           EXTEND                                         #  CONTENTS OF THE OTHER FOUR IRRELEVANT.
000508:    6473           50116                           INDEX    ADDRWD
000509:    6474           30001                           DCA      0
000510:    6475           52155                           DXCH     MPAC
000511:    6476           34753        TMODE              CAF      ONE
000512:    6477           16057                           TCF      NEWMODE                               #  DECLARE TRIPLE PRECISION MODE.
000513:
000514:    6500           22007        SLOAD              ZL                                             #  LOAD A SINGLE PRECISION NUMBER INTO
000515:    6501           50116                           INDEX    ADDRWD                                #  MPAC, SETTING MPAC+1,2 TO ZERO. THE
000516:    6502           30000                           CA       0                                     #  CONTENTS OF THE REMAINING MPAC REGISTERS
000517:    6503           16054                           TCF      SLOAD2                                #  ARE IRRELEVANT.
000518:
000519:    6504           00006        VLOAD              EXTEND                                         #  LOAD A DOUBLE PRECISION VECTOR INTO
000520:    6505           50116                           INDEX    ADDRWD                                #  MPAC,+1, MPAC+3,4, AND MPAC+5,6. THE
000521:    6506           30001                           DCA      0                                     #  CONTENTS OF MPAC +2 ARE IRRELEVANT.
000522:    6507           52155                           DXCH     MPAC
000523:
000524:    6510           00006        ENDVLOAD           EXTEND                                         #  PDVL COMES HERE TO FINISH UP FOR DP, TP.
000525:    6511           50116                           INDEX    ADDRWD
000526:    6512           30003                           DCA      2
000527:    6513           52160                           DXCH     MPAC       +3
000528:
000529:    6514           00006                 +4        EXTEND                                         #  TPDVL FINISHES HERE.
000530:    6515           50116                           INDEX    ADDRWD
000531:    6516           30005                           DCA      4
000532:    6517           52162                           DXCH     MPAC       +5
000533:
000534:    6520           44753        VMODE              CS       ONE                                   #  DECLARE VECTOR MODE.
000535:    6521           16057                           TCF      NEWMODE
000536:


000538:                                                                                                  #           THE FOLLOWING INSTRUCTIONS ARE PROVIDED FOR STORING OPERANDS IN THE PUSHDOWN LIST:
000539:
000540:                                                                                                  #           1.  PUSH               PUSHDOWN AND NO LOAD.
000541:                                                                                                  #           2.  PDDL               PUSHDOWN AND DOUBLE PRECISION LOAD.
000542:                                                                                                  #           3.  PDVL               PUSHDOWN AND VECTOR LOAD.
000543:
000544:    6522           00006        PDDL               EXTEND
000545:    6523           50116                           INDEX    ADDRWD                                #  LOAD MPAC,+1, PUSHING THE FORMER
000546:    6524           30001                           DCA      0                                     #  CONTENTS DOWN.
000547:    6525           52155                           DXCH     MPAC
000548:    6526           50166                           INDEX    PUSHLOC
000549:    6527           52001                           DXCH     0
000550:
000551:    6530           50163                           INDEX    MODE                                  #  ADVANCE THE PUSHDOWN POINTER APPRO-
000552:    6531           36243                           CAF      NO.WDS                                #  PRIATELY.
000553:    6532           26166                           ADS      PUSHLOC
000554:
000555:    6533           10163                           CCS      MODE
000556:    6534           16551                           TCF      ENDTPUSH
000557:    6535           16547                           TCF      ENDDPUSH
000558:
000559:    6536           54163                           TS       MODE                                  #  NOW DP.
000560:    6537           54156        ENDVPUSH           TS       MPAC       +2
000561:    6540           52160                           DXCH     MPAC       +3                         #  PUSH DOWN THE REST OF THE VECTOR HERE.
000562:    6541           50166                           INDEX    PUSHLOC
000563:    6542           51775                           DXCH     0          -4
000564:
000565:    6543           52162                           DXCH     MPAC       +5
000566:    6544           50166                           INDEX    PUSHLOC
000567:    6545           51777                           DXCH     0          -2
000568:
000569:    6546           16060                           TCF      DANZIG
000570:
000571:    6547           54156        ENDDPUSH           TS       MPAC       +2                         #  SET MPAC +2 TO ZERO AND EXIT ON DP.
000572:    6550           16060                           TCF      DANZIG
000573:
000574:    6551           54163        ENDTPUSH           TS       MODE
000575:    6552           56156                           XCH      MPAC       +2                         #  ON TRIPLE, SET MPAC +2 TO ZERO, PUSHING
000576:    6553           50166                 +2        INDEX    PUSHLOC                               #  DOWN THE OLD CONTENTS
000577:    6554           53777                           TS       0          -1
000578:    6555           16060                           TCF      DANZIG
000579:


000581:                                                                                                  #           PDVL - PUSHDOWN AND VECTOR LOAD.
000582:
000583:    6556           00006        PDVL               EXTEND                                         #  RELOAD MPAC AND PUSH DOWN ITS CONTENTS.
000584:    6557           50116                           INDEX    ADDRWD
000585:    6560           30001                           DCA      0
000586:    6561           52155                           DXCH     MPAC
000587:    6562           50166                           INDEX    PUSHLOC
000588:    6563           52001                           DXCH     0
000589:
000590:    6564           50163                           INDEX    MODE                                  #  ADVANCE THE PUSHDOWN POINTER.
000591:    6565           36243                           CAF      NO.WDS
000592:    6566           26166                           ADS      PUSHLOC
000593:
000594:    6567           10163                           CCS      MODE                                  #  TEST PAST MODE.
000595:    6570           16607                           TCF      TPDVL
000596:    6571           16510                           TCF      ENDVLOAD                              #  JUST LOAD LAST FOUR REGISTERS ON DP.
000597:
000598:    6572           00006        VPDVL              EXTEND                                         #  PUSHDOWN AND RE-LOAD LAST TWO COMPONENTS
000599:    6573           50116                           INDEX    ADDRWD
000600:    6574           30003                           DCA      2
000601:    6575           52160                           DXCH     MPAC       +3
000602:    6576           50166                           INDEX    PUSHLOC
000603:    6577           51775                           DXCH     0          -4
000604:
000605:    6600           00006                           EXTEND
000606:    6601           50116                           INDEX    ADDRWD
000607:    6602           30005                           DCA      4
000608:    6603           52162                           DXCH     MPAC       +5
000609:    6604           50166                           INDEX    PUSHLOC
000610:    6605           51777                           DXCH     0          -2
000611:
000612:    6606           16060                           TCF      DANZIG
000613:
000614:    6607           00006        TPDVL              EXTEND                                         #  ON TP, WE MUST LOAD THE Y COMPONENT
000615:    6610           50116                           INDEX    ADDRWD                                #  BEFORE STORING MPAC +2 IN CASE THIS IS A
000616:    6611           30003                           DCA      2                                     #  PUSHUP.
000617:    6612           52160                           DXCH     MPAC       +3
000618:
000619:    6613           30156                           CA       MPAC       +2
000620:    6614           50166                           INDEX    PUSHLOC                               #  IN DP.
000621:    6615           53777                           TS       0          -1
000622:    6616           16514                           TCF      ENDVLOAD   +4
000623:
000624:                                                                                                  #           SSP (STORE SINGLE PRECISION) IS EXECUTED HERE.
000625:
000626:    6617           24164        SSP                INCR     LOC                                   #  PICK UP THE WORD FOLLOWING THE GIVEN
000627:    6620           50164                           INDEX    LOC                                   #  ADDRESS AND STORE IT AT X.
000628:    6621           30000                           CA       0
000629:    6622           50116        STORE1             INDEX    ADDRWD                                #  SOME INDEX AND MISCELLANEOUS OPS END
000630:    6623           54000                           TS       0                                     #  HERE.


000632:    6624           16060                           TCF      DANZIG
000633:


000635:                                                                                                  #  SEQUENCE CHANGING AND SUBROUTINE CALLING OPTIONS.
000636:
000637:                                                                                                  #           THE FOLLOWING OPERATIONS ARE AVAILABLE FOR SEQUENCING CHANGING, BRANCHING, AND CALLING SUBROUTINES:
000638:
000639:                                                                                                  #           1.  GOTO               GO TO.
000640:                                                                                                  #           2.  CALL               CALL SUBROUTINE SETTING QPRET.
000641:                                                                                                  #           3.  CGOTO              COMPUTED GO TO.
000642:                                                                                                  #           4.  CCALL              COMPUTED CALL.
000643:                                                                                                  #           7.  BPL                BRANCH IF MPAC POSITIVE OR ZERO.
000644:                                                                                                  #           8.  BZE                BRANCH IF MPAC ZERO.
000645:                                                                                                  #           9.  BMN                BRANCH IF MPAC NEGATIVE NON-ZERO.
000646:
000647:    6625           24164        CCALL              INCR     LOC                                   #  MAINTAIN LOC FOR QPRET COMPUTATION.
000648:    6626           50164                           INDEX    LOC
000649:    6627           30000                           CAF      0                                     #  GET BASE ADDRESS OF CADR LIST.
000650:    6630           50116                           INDEX    ADDRWD
000651:    6631           60000                           AD       0                                     #  ADD INCREMENT.
000652:    6632           54004                           TS       FBANK                                 #  SELECT DESIRED CADR.
000653:    6633           75012                           MASK     LOW10
000654:    6634           50000                           INDEX    A
000655:    6635           32000                           CAF      10000
000656:    6636           54117                           TS       POLISH
000657:
000658:    6637           30165        CALL               CA       BANKSET                               #  FOR ANY OF THE CALL OPTIONS, MAKE UP THE
000659:    6640           74350                           MASK     BANKMASK                              #  ADDRESS OF THE NEXT OP-CODE PAIR/STORE
000660:    6641           64350                           AD       BANKMASK                              #  CODE AND LEAVE IT IN QPRET.  NOTE THAT
000661:    6642           60164                           AD       LOC                                   #  BANKMASK = -(2000 - 1).
000662:    6643           50120                           INDEX    FIXLOC
000663:    6644           54052                           TS       QPRET
000664:
000665:    6645           30117        GOTO               CA       POLISH                                #  BASIC BRANCHING SEQUENCE.
000666:    6646           77741                 +1        MASK     HIGH4
000667:    6647           00006                           EXTEND
000668:    6650           16661                           BZF      GOTOERS                               #  SEE IF ADDRESS POINTS TO FIXED OR ERAS.
000669:    6651           30165                 +4        CA       BANKSET                               #  SET EBANK PART OF BBANK. NEXT, SET UP
000670:    6652           54006                           TS       BBANK                                 #  FBANK. THE COMBINATION IS PICKED UP &
000671:    6653           30117                           CA       POLISH                                #  PUT INTO BANKSET AT INTPRET +2.
000672:    6654           54004                           TS       FBANK
000673:    6655           75012                           MASK     LOW10
000674:    6656           64741                           AD       2K
000675:    6657           54164                           TS       LOC
000676:    6660           16041                           TCF      INTPRET    +3
000677:
000678:    6661  E3,1400                                  EBANK=   1400                                  #  SO YUL DOESN'T CUSS THE "CA 1400" BELOW.
000679:
000680:    6661           30117        GOTOERS            CA       POLISH                                #  THE GIVEN ADDRESS IS IN ERASABLE - SEE
000681:    6662           66250                           AD       -ENDVAC                               #  IF RELATIVE TO THE WORK AREA.
000682:    6663           10000                           CCS      A
000683:    6664           30117                           CA       POLISH                                #  GENERAL ERASABLE.
000684:    6665           16674                           TCF      GOTOGE
000685:


000687:    6666           30120                           CA       FIXLOC                                #  WORK AREA.
000688:    6667           60117                           AD       POLISH
000689:    6670           50000                           INDEX    A                                     #  USE THE GIVEN ADDRESS AS THE ADDRESS OF
000690:    6671           30000                           CA       0                                     #  THE BRANCH ADDRESS.
000691:    6672           54117                           TS       POLISH
000692:    6673           16646                           TCF      GOTO       +1                         #  ALLOWS ARBITRARY INDIRECTNESS LEVELS.
000693:
000694:    6674           54003        GOTOGE             TS       EBANK
000695:    6675           74357                           MASK     LOW8
000696:    6676           50000                           INDEX    A                                     #  USE THE GIVEN ADDRESS AS THE ADDRESS OF
000697:    6677           31400                           CA       1400                                  #  THE BRANCH ADDRESS.
000698:    6700           54117                           TS       POLISH
000699:    6701           16646                           TCF      GOTO       +1
000700:
000701:    6702           50164        CGOTO              INDEX    LOC                                   #  COMPUTED GO TO. PICK UP ADDRESS OF CADR
000702:    6703           30001                           CA       1                                     #  LIST.
000703:    6704           50116                           INDEX    ADDRWD                                #  ADD MODIFIER.
000704:    6705           60000                           AD       0
000705:    6706           54004                           TS       FBANK                                 #  SELECT GOTO ADDRESS.
000706:    6707           75012                           MASK     LOW10
000707:    6710           50000                           INDEX    A
000708:    6711           32000                           CA       10000
000709:    6712           54117                           TS       POLISH
000710:    6713           16646                           TCF      GOTO       +1                         #  WITH ADDRESS IN A.
000711:
000712:    6714           30165        SWBRANCH           CA       BANKSET                               #  SWITCH INSTRUCTIONS WHICH ELECT TO
000713:    6715           54004                           TS       FBANK                                 #  BRANCH COME HERE TO DO SO.
000714:    6716           50164                           INDEX    LOC
000715:    6717           30001                           CA       1
000716:    6720           54117                           TS       POLISH
000717:    6721           16646                           TCF      GOTO       +1
000718:


000720:                                                                                                  #           TRIPLE PRECISION BRANCHING ROUTINE. IF CALLING TC IS AT L, RETURN IS AS FOLLOWS:
000721:
000722:                                                                                                  #           L+1  IF MPAC IS GREATER THAN ZERO.
000723:                                                                                                  #           L+2  IF MPAC IS EQUAL TO +0 OR -0.
000724:                                                                                                  #           L+3  IF MPAC IS LESS THAN ZERO.
000725:
000726:
000727:    6722           10154        BRANCH             CCS      MPAC
000728:    6723           00002                           TC       Q
000729:    6724           16726                           TCF      +2                                    #  ON ZERO.
000730:    6725           16740                           TCF      NEG
000731:
000732:    6726           10155                           CCS      MPAC       +1
000733:    6727           00002                           TC       Q
000734:    6730           16732                           TCF      +2
000735:    6731           16740                           TCF      NEG
000736:
000737:    6732           10156                           CCS      MPAC       +2
000738:    6733           00002                           TC       Q
000739:    6734           16736                           TCF      +2
000740:    6735           16740                           TCF      NEG
000741:
000742:    6736           50002        Q+1                INDEX    Q
000743:    6737           00001                           TC       1
000744:
000745:    6740           50002        NEG                INDEX    Q                                     #  IF FIRST NON-ZERO REGISTER WAS NEGATIVE.
000746:    6741           00002                           TC       2
000747:
000748:
000749:    6742     6740               Q+2                =        NEG
000750:
000751:                                                                                                  #           ITRACE (3) REFERS TO "EXIT".
000752:    6742           30165        EXIT               CA       BANKSET                               #  RESTORE USER'S BANK SETTING, AND LEAVE
000753:    6743           54006                           TS       BBANK                                 #  INTERPRETIVE MODE.
000754:    6744           50164                           INDEX    LOC
000755:    6745           00001                           TC       1
000756:


000758:                                                                                                  #  SECTION 3 - ADD/SUBTRACT PACKAGE.
000759:
000760:                                                                                                  #           THE FOLLOWING OPERATIONS ARE PROVIDED FOR ADDING TO AND SUBTRACTING FROM THE MULTI-PURPOSE ACCUMULATOR
000761:                                                                                                  #  MPAC:
000762:
000763:                                                                                                  #           1.  DAD                DOUBLE PRECISION ADD.
000764:                                                                                                  #           2.  DSU                DOUBLE PRECISION SUBTRACT.
000765:                                                                                                  #           3.  BDSU               DOUBLE PRECISION SUBTRACT FROM.
000766:
000767:                                                                                                  #           4.  TAD                TRIPLE PRECISION ADD.
000768:
000769:                                                                                                  #           5.  VAD                VECTOR ADD.
000770:                                                                                                  #           6.  VSU                VECTOR SUBTRACT.
000771:                                                                                                  #           7.  BVSU               VECTOR SUBTRACT FROM.
000772:
000773:                                                                                                  #  THE INTERPRETIVE OVERFLOW INDICATOR OVFIND IS SET NON-ZERO IF OVERFLOW OCCURS IN ANY OF THE ABOVE.
000774:
000775:    6746           34735        VSU                CAF      BIT15                                 #  CHANGES 0 TO DCS.
000776:    6747           16751                           TCF      +2
000777:
000778:    6750           34355        VAD                CAF      PRIO30                                #  CHANGES 0 TO DCA.
000779:    6751           26116                           ADS      ADDRWD
000780:    6752           00006                           EXTEND
000781:    6753           50116                           INDEX    ADDRWD
000782:    6754           00003                           READ     HISCALAR                              #  DCA  2   OR   DCS  2
000783:    6755           20160                           DAS      MPAC       +3
000784:    6756           00006                           EXTEND                                         #  CHECK OVERFLOW.
000785:    6757           16761                           BZF      +2
000786:    6760           07013                           TC       OVERFLWY
000787:
000788:    6761           00006                           EXTEND
000789:    6762           50116                           INDEX    ADDRWD
000790:    6763           00005                           READ     CHAN5                                 #  DCA  4  OR  DCS  4
000791:    6764           20162                           DAS      MPAC       +5
000792:    6765           00006                           EXTEND
000793:    6766           16770                           BZF      +2
000794:    6767           07010                           TC       OVERFLWZ
000795:
000796:    6770           00006                           EXTEND
000797:    6771           50116                           INDEX    ADDRWD
000798:    6772           00001                           READ     LCHAN                                 #  DCA  0  OR  DCS  0
000799:    6773           16777                           TCF      ENDVXV
000800:
000801:    6774           00006        DAD                EXTEND
000802:    6775           50116                           INDEX    ADDRWD
000803:    6776           30001                           DCA      0
000804:    6777           20155        ENDVXV             DAS      MPAC                                  #  VXV FINISHES HERE.
000805:    7000           00006                           EXTEND
000806:    7001           16060                           BZF      DANZIG
000807:


000809:    7002           07016        SETOVF             TC       OVERFLOW
000810:    7003           16060                           TCF      DANZIG
000811:


000813:    7004           00006        DSU                EXTEND
000814:    7005           50116                           INDEX    ADDRWD
000815:    7006           40001                           DCS      0
000816:    7007           16777                           TCF      ENDVXV
000817:
000818:    7010           54001        OVERFLWZ           TS       L                                     #  ENTRY FOR THIRD COMPONENT.
000819:    7011           34756                           CAF      FIVE
000820:    7012           17015                           TCF      +3
000821:
000822:    7013           54001        OVERFLWY           TS       L                                     #  ENTRY FOR SECOND COMPONENT.
000823:    7014           36244                           CAF      THREE
000824:    7015           56001                           XCH      L
000825:
000826:    7016           50000        OVERFLOW           INDEX    A                                     #  ENTRY FOR 1ST COMP OR DP (L=0).
000827:    7017           44734                           CS       LIMITS                                #  PICK UP POSMAX OR NEGMAX.
000828:    7020           54130                           TS       BUF
000829:    7021           00006                           EXTEND
000830:    7022           24000                           AUG      A                                     #  FORCE OVERFLOW.
000831:    7023           50001                           INDEX    L
000832:    7024           26155                           ADS      MPAC       +1
000833:    7025           54007                           TS       7
000834:    7026           34755                           CAF      ZERO
000835:    7027           60130                           AD       BUF
000836:    7030           50001                           INDEX    L
000837:    7031           26154                           ADS      MPAC
000838:    7032           54007                           TS       7
000839:    7033           00002                           TC       Q                                     #  NO OVERFLOW EXIT.
000840:    7034           17151                           TCF      SETOVF2                               #  SET OVFIND AND EXIT.
000841:
000842:    7035           00006        BVSU               EXTEND
000843:    7036           50116                           INDEX    ADDRWD
000844:    7037           30003                           DCA      2
000845:    7040           52160                           DXCH     MPAC       +3
000846:    7041           00006                           EXTEND
000847:    7042           40001                           DCOM
000848:    7043           20160                           DAS      MPAC       +3
000849:    7044           00006                           EXTEND
000850:    7045           17047                           BZF      +2
000851:    7046           07013                           TC       OVERFLWY
000852:
000853:    7047           00006                           EXTEND
000854:    7050           50116                           INDEX    ADDRWD
000855:    7051           30005                           DCA      4
000856:    7052           52162                           DXCH     MPAC       +5
000857:    7053           00006                           EXTEND
000858:    7054           40001                           DCOM
000859:    7055           20162                           DAS      MPAC       +5
000860:    7056           00006                           EXTEND
000861:    7057           17061                           BZF      +2
000862:    7060           07010                           TC       OVERFLWZ
000863:


000865:    7061           00006        BDSU               EXTEND
000866:    7062           50116                           INDEX    ADDRWD
000867:    7063           30001                           DCA      0
000868:    7064           52155                           DXCH     MPAC
000869:    7065           00006                           EXTEND
000870:    7066           40001                           DCOM
000871:    7067           16777                           TCF      ENDVXV
000872:


000874:                                                                                                  #           TRIPLE PRECISION ADD ROUTINE.
000875:
000876:    7070           00006        TAD                EXTEND
000877:    7071           50116                           INDEX    ADDRWD
000878:    7072           30002                           DCA      1                                     #  ADD MINOR PARTS FIRST.
000879:    7073           20156                           DAS      MPAC       +1
000880:    7074           50116                           INDEX    ADDRWD
000881:    7075           60000                           AD       0
000882:    7076           60154                           AD       MPAC
000883:    7077           54154                           TS       MPAC
000884:    7100           16060                           TCF      DANZIG
000885:
000886:    7101           17002                           TCF      SETOVF                                #  SET OVFIND IF SUCH OCCURS.
000887:


000889:                                                                                                  #  ARITHMETIC SUBROUTINES REQUIRED IN FIXED-FIXED.
000890:
000891:                                                                                                  #           1.  DMPSUB     DOUBLE PRECISION MULTIPLY. MULTIPLY THE CONTENTS OF MPAC,+1 BY THE DP WORD WHOSE ADDRESS
000892:                                                                                                  #                          IS IN ADDRWD AND LEAVE A TRIPLE PRECISION RESULT IN MPAC.
000893:                                                                                                  #           2.  ROUNDSUB   ROUND THE TRIPLE PRECISON CONTENTS OF MPAC TO DOUBLE PRECISION.
000894:                                                                                                  #           3.  DOTSUB     TAKE THE DOT PRODUCT OF THE VECTOR IN MPAC AND THE VECTOR WHOSE ADDRESS IS IN ADDRWD
000895:                                                                                                  #                          AND LEAVE THE TRIPLE PRECISION RESULT IN MPAC.
000896:                                                                                                  #           4.  POLY       USING THE CONTENTS OF MPAC AS A DP ARGUMENT, EVALUATE THE POLYNOMIAL WHOSE DEGREE AND
000897:                                                                                                  #                          COEFFICIENTS IMMEDIATELY FOLLOW THE TC POLY INSTRUCTION (SEE ROUTINE FOR DETAILS.)
000898:
000899:
000900:    7102           50002        DMP                INDEX    Q                                     #  BASIC SUBROUTINE FOR USE BY PINBALL, ETC
000901:    7103           30000                           CAF      0                                     #  ADRES OF ARGUMENT FOLLOWS  TC DMP  .
000902:    7104           24002                           INCR     Q
000903:    7105           54116                 -1        TS       ADDRWD                                #  (PROLOGUE FOR SETTING ADDRWD.)
000904:
000905:    7106           50116        DMPSUB             INDEX    ADDRWD                                #  GET MINOR PART OF OPERAND AT C(ADDRWD).
000906:    7107           30001                           CA       1
000907:    7110           54156                           TS       MPAC       +2                         #  THIS WORKS FOR SQUARING MPAC AS WELL.
000908:    7111           34755                           CAF      ZERO                                  #  SET MPAC +1 TO ZERO SO WE CAN ACCUMULATE
000909:    7112           56155                           XCH      MPAC       +1                         #  THE PARTIAL PRODUCTS WITH DAS
000910:    7113           54135                           TS       MPTEMP                                #  INSTRUCTIONS.
000911:    7114           00006                           EXTEND
000912:    7115           70156                           MP       MPAC       +2                         #  MINOR OF MPAC X MINOR OF C(ADDRWD).
000913:
000914:    7116           56156                           XCH      MPAC       +2                         #  DISCARD MINOR PART OF ABOVE RESULT AND
000915:    7117           00006                           EXTEND                                         #  FORM MAJOR OF MPAC X MINOR OF C(ADDRWD).
000916:    7120           70154                           MP       MPAC
000917:    7121           20156                           DAS      MPAC       +1                         #  GUARANTEED NO OVERFLOW.
000918:
000919:    7122           50116                           INDEX    ADDRWD                                #  GET MAJOR PART OF ARGUMENT AT C(ADDRWD).
000920:    7123           30000                           CA       0
000921:    7124           56135                           XCH      MPTEMP                                #  SAVE AND BRING OUT MINOR OF MPAC.
000922:    7125           00006        DMPSUB2            EXTEND
000923:    7126           70135                           MP       MPTEMP                                #  MAJOR OF C(ADDRWD) X MINOR OF MPAC.
000924:    7127           20156                           DAS      MPAC       +1                         #  ACCUMULATE, SETTING A TO NET OVERFLOW.
000925:
000926:    7130           56154                           XCH      MPAC                                  #  SETTING MPAC TO 0 OR +-1.
000927:    7131           00006                           EXTEND
000928:    7132           70135                           MP       MPTEMP                                #  MAJOR OF MPAC X MAJOR OF C(ADDRWD).
000929:    7133           20155                           DAS      MPAC                                  #  GUARANTEED NO OVERFLOW.
000930:    7134           00002                           TC       Q                                     #  49 MCT = .573 MS. INCLUDING RETURN.
000931:


000933:                                                                                                  #           ROUND MPAC TO DOUBLE PRECISION, SETTING OVFIND ON THE RARE EVENT OF OVERFLOW.
000934:
000935:    7135           34755        ROUNDSUB           CAF      ZERO                                  #  SET MPAC +2 = 0 FOR SCALARS AND CHANGE
000936:    7136           54163                 +1        TS       MODE                                  #  MODE TO DP.
000937:
000938:    7137           56156        VROUND             XCH      MPAC       +2                         #  BUT WE NEEDNT TAKE THE TIME FOR VECTORS.
000939:    7140           60000                           DOUBLE
000940:    7141           54001                           TS       L
000941:    7142           00002                           TC       Q
000942:
000943:    7143           60155                           AD       MPAC       +1                         #  ADD ROUNDING BIT IF MPAC +2 WAS GREATER
000944:    7144           54155                           TS       MPAC       +1                         #  THAN .5 IN MAGNITUDE.
000945:    7145           00002                           TC       Q
000946:
000947:    7146           60154                           AD       MPAC                                  #  PROPAGATE INTERFLOW.
000948:    7147           54154                           TS       MPAC
000949:    7150           00002                           TC       Q
000950:
000951:    7151           54121        SETOVF2            TS       OVFIND                                #  (RARE).
000952:    7152           00002                           TC       Q
000953:


000955:                                                                                                  #           THE DOT PRODUCT SUBROUTINE USUALLY FORMS THE DOT PRODUCT OF THE VECTOR IN MPAC WITH A STANDARD SIX
000956:                                                                                                  #  REGISTER VECTOR WHOSE ADDRESS IS IN ADDRWD. IN THIS CASE C(DOTINC) ARE SET TO 2. VXM, HOWEVER, SETS C(DOTINC) TO
000957:                                                                                                  #  6 SO THAT DOTSUB DOTS MPAC WITH A COLUMN VECTOR OF THE MATRIX IN QUESTION IN THIS CASE.
000958:
000959:
000960:    7153           34752        PREDOT             CAF      TWO                                   #  PROLOGUE TO SET DOTINC TO 2.
000961:    7154           54136                           TS       DOTINC
000962:
000963:    7155           00006        DOTSUB             EXTEND
000964:    7156           22137                           QXCH     DOTRET                                #  SAVE RETURN.
000965:    7157           07106                           TC       DMPSUB                                #  DOT X COMPONENTS.
000966:    7160           52160                           DXCH     MPAC       +3                         #  POSITION Y COMPONENT OF MPAC FOR
000967:    7161           52155                           DXCH     MPAC                                  #  MULTIPLICATION WHILE SAVING RESULT IN
000968:    7162           52131                           DXCH     BUF                                   #  THREE WORD BUFFER, BUF.
000969:    7163           30156                           CA       MPAC       +2
000970:    7164           54132                           TS       BUF        +2
000971:
000972:    7165           30136                           CA       DOTINC                                #  ADVANCE ADDRWD TO Y COMPONENT OF
000973:    7166           26116                           ADS      ADDRWD                                #  OTHER ARGUMENT.
000974:    7167           07106                           TC       DMPSUB
000975:    7170           52156                           DXCH     MPAC       +1                         #  ACCUMULATE PARTIAL PRODUCTS.
000976:    7171           20132                           DAS      BUF        +1
000977:    7172           60154                           AD       MPAC
000978:    7173           60130                           AD       BUF
000979:    7174           54130                           TS       BUF
000980:    7175           17177                           TCF      +2
000981:    7176           54121                           TS       OVFIND                                #  IF OVERFLOW OCCURS.
000982:
000983:    7177           52162                           DXCH     MPAC       +5                         #  MULTIPLY Z COMPONENTS.
000984:    7200           52155                           DXCH     MPAC
000985:    7201           30136                           CA       DOTINC
000986:    7202           26116                           ADS      ADDRWD
000987:    7203           07106                           TC       DMPSUB
000988:    7204           52132        ENDDOT             DXCH     BUF        +1                         #  LEAVE FINAL ACCUMULATION IN MPAC.
000989:    7205           20156                           DAS      MPAC       +1
000990:    7206           60154                           AD       MPAC
000991:    7207           60130                           AD       BUF
000992:    7210           54154                           TS       MPAC
000993:    7211           00137                           TC       DOTRET
000994:
000995:    7212           07016                           TC       OVERFLOW                              #  ON OVERFLOW HERE.
000996:    7213           00137                           TC       DOTRET
000997:


000999:                                                                                                  #  DOUBLE PRECISION POLYNOMIAL EVALUATOR
001000:
001001:                                                                                                  #                                     N        N-1
001002:                                                                                                  #           THIS ROUTINE EVALUATES A X  + A   X    + ... + A X + A  LEAVING THE DP RESULT IN MPAC ON EXIT.
001003:                                                                                                  #                                   N      N-1              1     0
001004:
001005:                                                                                                  #  THE ROUTINE HAS TWO ENTRIES
001006:
001007:                                                                                                  #           1. ENTRY THRU POWRSERS. THE COEFFICIENTS MAY BE EITHER IN FIXED OR ERASABLE, THE CALL IS BY
001008:                                                                                                  #              TC POWRSERS, AND THE RETURN IS TO LOC(TC POWRSERS)+1. THE ENTERING DATA MUST BE AS FOLLOWS
001009:
001010:                                                                                                  #                                          A        SP     LOC-3           ADDRESS FOR REFERENCING COEF TABLE
001011:                                                                                                  #                                          L        SP     N-1             N IS THE DEGREE OF THE POWER SERIES
001012:                                                                                                  #                                          MPAC     DP     X               ARGUMENT
001013:
001014:                                                                                                  #                                          LOC-2N   DP     A(0)
001015:                                                                                                  #                                                   ...
001016:                                                                                                  #                                          LOC      DP     A(N)
001017:
001018:                                                                                                  #           2. ENTRY THRU POLY. THE CALL TO POLY AND THE ENTERING DATA MUST BE AS FOLLOWS
001019:
001020:                                                                                                  #                                          MPAC     DP     X               ARGUMENT
001021:                                                                                                  #                                          LOC      TC     POLY
001022:                                                                                                  #                                          LOC+1    SP     N-1
001023:                                                                                                  #                                          LOC+2    DP     A(0)
001024:                                                                                                  #                                                   ...
001025:                                                                                                  #                                          LOC+2N+2 DP     A(N)            RETURN IS TO LOC+2N+4
001026:
001027:    7214           00006        POWRSERS           EXTEND
001028:    7215           22141                           QXCH     POLYRET                               #  RETURN ADDRESS
001029:    7216           54117                           TS       POLISH                                #  POWER SERIES ADDRESS
001030:    7217           22140                           LXCH     POLYCNT                               #  N-1 TO COUNTER
001031:    7220           17231                           TCF      POLYCOM                               #  SKIP SET UP BY POLY
001032:
001033:    7221           50002        POLY               INDEX    Q
001034:    7222           30000                           CAF      0
001035:    7223           54140                           TS       POLYCNT                               #  N-1 TO COUNTER
001036:    7224           60000                           DOUBLE
001037:    7225           60002                           AD       Q
001038:    7226           54117                           TS       POLISH                                #  L(A(N))-3 TO POLISH
001039:    7227           64756                           AD       FIVE
001040:    7230           54141                           TS       POLYRET                               #  STORE RETURN ADDRESS
001041:
001042:    7231           36272        POLYCOM            CAF      LVBUF                                 #  INCOMING X WILL BE MOVED TO VBUF, SO
001043:    7232           54116                           TS       ADDRWD                                #  SET ADDRWD SO DMPSUB WILL MPY BY VBUF.
001044:
001045:    7233           00006                           EXTEND
001046:    7234           50117                           INDEX    POLISH
001047:    7235           30004                           DCA      3


001049:    7236           52155                           DXCH     MPAC                                  #  LOAD A(N) INTO MPAC,
001050:    7237           52123                           DXCH     VBUF                                  #  SAVING X IN VBUF
001051:    7240           17244                           TCF      POLY2
001052:
001053:    7241           54140        POLYLOOP           TS       POLYCNT                               #  SAVE DECREMENTED LOOP COUNTER
001054:    7242           44752                           CS       TWO
001055:    7243           26117                           ADS      POLISH                                #  REGRESS COEFFICIENT POINTER
001056:
001057:    7244           07106        POLY2              TC       DMPSUB                                #  MULTIPLY BY X
001058:    7245           00006                           EXTEND
001059:    7246           50117                           INDEX    POLISH
001060:    7247           30002                           DCA      1                                     #  ADD IN NEXT COEFFICIENT
001061:    7250           20155                           DAS      MPAC                                  #  USERS RESPONSIBILITY TO ASSURE NO OVFLOW
001062:
001063:    7251           10140                           CCS      POLYCNT
001064:    7252           17241                           TCF      POLYLOOP
001065:    7253           00141                           TC       POLYRET                               #  RETURN CALLER
001066:


001068:                                                                                                  #           MISCELLANEOUS MULTI-PRECISION ROUTINES REQUIRED IN FIXED-FIXED BUT NOT USED BY THE INTERPRETER.
001069:
001070:    7254           34755        DPAGREE            CAF      ZERO                                  #  DOUBLE PRECISION ENTRY -
001071:    7255           54156                           TS       MPAC       +2                         #  ZERO LOW-ORDER WORD
001072:
001073:    7256           22002        TPAGREE            LXCH     Q                                     #  FORCE SIGN AGREEMENT AMONG THE TRIPLE
001074:    7257           06722                           TC       BRANCH                                #  PRECISION CONTENTS OF MPAC.  RETURNING
001075:    7260           17264                           TCF      ARG+                                  #  WITH SIGNUM OF THE INPUT IN A.
001076:    7261           17304                           TCF      ARGZERO
001077:
001078:    7262           44733                           CS       POSMAX                                #  IF NEGATIVE.
001079:    7263           17265                           TCF      +2
001080:
001081:    7264           34733        ARG+               CAF      POSMAX
001082:    7265           54002                           TS       Q
001083:    7266           00006                           EXTEND
001084:    7267           24000                           AUG      A                                     #  FORMS +-1.0.
001085:    7270           60156                           AD       MPAC       +2
001086:    7271           54156                           TS       MPAC       +2
001087:    7272           34755                           CAF      ZERO
001088:    7273           60002                           AD       Q
001089:    7274           60155                           AD       MPAC       +1
001090:    7275           54155                           TS       MPAC       +1
001091:    7276           34755                           CAF      ZERO
001092:    7277           60002                           AD       Q                                     #  Q STILL HAS POSMAX OR NEGMAX IN IT.
001093:    7300           60154                           AD       MPAC
001094:    7301           54154        ARGZERO2           TS       MPAC                                  #  ALWAYS SKIPPING UNLESS ARGZERO.
001095:    7302           54155                           TS       MPAC       +1
001096:    7303           00001                           TC       L                                     #  RETURN VIA L.
001097:
001098:    7304           54156        ARGZERO            TS       MPAC       +2                         #  SET ALL THREE MPAC REGISTERS TO ZERO.
001099:    7305           17301                           TCF      ARGZERO2
001100:
001101:                                                                                                  #           SHORTMP MULTIPLIES THE TP CONTENTS OF MPAC BY THE SINGLE PRECISION NUMBER ARRIVING IN A.
001102:
001103:    7306           54135        SHORTMP            TS       MPTEMP
001104:    7307           00006                           EXTEND
001105:    7310           70156                           MP       MPAC       +2
001106:    7311           54156                           TS       MPAC       +2
001107:    7312           34755        SHORTMP2           CAF      ZERO                                  #  SO SUBSEQUENT DAS WILL WORK.
001108:    7313           56155                           XCH      MPAC       +1
001109:    7314           17125                           TCF      DMPSUB2
001110:


001112:                                                                                                  #         DMPNSUB MULTIPLIES THE DP FRACTION ARRIVING IN MPAC BY THE SP
001113:                                                                                                  #  INTEGER ARRIVING IN A.  THE DP PRODUCT DEPARTS BOTH IN MPAC AND IN
001114:                                                                                                  #  A AND L.  NOTE THAT DMPNSUB NORMALLY INCREASES THE MAGNITUDE OF THE
001115:                                                                                                  #  CONTENTS OF MPAC.  THE CUSTOMER MUST INSURE THAT B(A) X B(MPAC,MPAC+1)
001116:                                                                                                  #  AND B(A) X B(MPAC) ARE LESS THAN 1 IN MAGNITUDE, WHERE B, AS IS OBVIOUS,
001117:                                                                                                  #  INDICATES THE ARRIVING CONTENTS.
001118:
001119:    7315           54135        DMPNSUB            TS       DMPNTEMP
001120:    7316           00006                           EXTEND
001121:    7317           70155                           MP       MPAC       +1
001122:    7320           52155                           DXCH     MPAC                                  #  LOW PRODUCT TO MPAC, HIGH FACTOR TO A
001123:    7321           00006                           EXTEND
001124:    7322           70135                           MP       DMPNTEMP
001125:    7323           30001                           CA       L
001126:    7324           26154                           ADS      MPAC                                  #  COMPLETING THE PRODUCT IN MPAC
001127:    7325           00006                           EXTEND
001128:    7326           30155                           DCA      MPAC                                  #  BRINGING THE PRODUCT INTO A AND L
001129:    7327           00002                           TC       Q
001130:


001132:                                                                                                  #  MISCELLANEOUS VECTOR OPERATIONS. INCLUDED HERE ARE THE FOLLOWING:
001133:
001134:                                                                                                  #           1.  DOT                DP VECTOR DOT PRODUCT.
001135:                                                                                                  #           2.  VXV                DP VECTOR CROSS PRODUCT.
001136:                                                                                                  #           3.  VXSC               DP VECTOR TIMES SCALAR.
001137:                                                                                                  #           4.  V/SC               DP VECTOR DIVIDED BY SCALAR.
001138:                                                                                                  #           5.  VPROJ              DP VECTOR PROJECTION. ( (MPAC.X)MPAC ).
001139:                                                                                                  #           6.  VXM                DP VECTOR POST-MULTIPLIED BY MATRIX.
001140:                                                                                                  #           7.  MXV                DP VECTOR PRE-MULTIPLIED BY MATRIX.
001141:
001142:
001143:    7330           07153        DOT                TC       PREDOT                                #  DO THE DOT PRODUCT AND EXIT, CHANGING
001144:    7331           34755        DMODE              CAF      ZERO                                  #  THE MODE TO DP SCALAR.
001145:    7332           16057                           TCF      NEWMODE
001146:
001147:
001148:    7333           34752        MXV                CAF      TWO                                   #  SET UP MATINC AND DOTINC FOR ROW
001149:    7334           54140                           TS       MATINC                                #  VECTORS.
001150:    7335           17341                           TCF      VXM/MXV                               #  GO TO COMMON PORTION.
001151:
001152:    7336           44363        VXM                CS       TEN                                   #  SET MATINC AND DOTINC TO REFER TO MATRIX
001153:    7337           54140                           TS       MATINC                                #  AS THREE COLUMN VECTORS.
001154:    7340           36241                           CAF      SIX
001155:


001157:                                                                                                  #           COMMON PORTION OF MXV AND VXM.
001158:
001159:    7341           54136        VXM/MXV            TS       DOTINC
001160:                                                                                                  #           ITRACE (2) REFERS TO "VXM/MXV".
001161:    7342           07531                           TC       MPACVBUF                              #  SAVE VECTOR IN MPAC FOR FURTHER USE.
001162:
001163:    7343           07155                           TC       DOTSUB                                #  GO DOT TO GET X COMPONENT OF ANSWER.
001164:    7344           00006                           EXTEND
001165:    7345           30123                           DCA      VBUF                                  #  MOVE MPAC VECTOR BACK INTO MPAC, SAVING
001166:    7346           52155                           DXCH     MPAC                                  #  NEW X COMPONENT IN BUF2.
001167:    7347           52134                           DXCH     BUF2
001168:    7350           00006                           EXTEND
001169:    7351           30125                           DCA      VBUF       +2
001170:    7352           52160                           DXCH     MPAC       +3
001171:    7353           00006                           EXTEND
001172:    7354           30127                           DCA      VBUF       +4
001173:    7355           52162                           DXCH     MPAC       +5
001174:    7356           30140                           CA       MATINC                                #  INITIALIZE ADDRWD FOR NEXT DOT PRODUCT.
001175:    7357           26116                           ADS      ADDRWD                                #  FORMS BASE ADDRESS OF NEXT COLUMN(ROW).
001176:
001177:    7360           07155                           TC       DOTSUB
001178:    7361           52123                           DXCH     VBUF                                  #  MOVE GIVEN VECTOR BACK TO MPAC, SAVING Y
001179:    7362           52155                           DXCH     MPAC                                  #  COMPONENT OF ANSWER IN VBUF +2.
001180:    7363           52125                           DXCH     VBUF       +2
001181:    7364           52160                           DXCH     MPAC       +3
001182:    7365           52127                           DXCH     VBUF       +4
001183:    7366           52162                           DXCH     MPAC       +5
001184:    7367           30140                           CA       MATINC                                #  FORM ADDRESS OF LAST COLUMN OR ROW.
001185:    7370           26116                           ADS      ADDRWD
001186:
001187:    7371           07155                           TC       DOTSUB
001188:    7372           52134                           DXCH     BUF2                                  #  ANSWER NOW COMPLETE. PUT COMPONENTS INTO
001189:    7373           52155                           DXCH     MPAC                                  #  PROPER MPAC REGISTERS.
001190:    7374           52162                           DXCH     MPAC       +5
001191:    7375           52125                           DXCH     VBUF       +2
001192:    7376           52160                           DXCH     MPAC       +3
001193:    7377           16060                           TCF      DANZIG                                #  EXIT.
001194:


001196:                                                                                                  #           VXSC - VECTOR TIMES SCALAR.
001197:
001198:    7400           10163        VXSC               CCS      MODE                                  #  TEST PRESENT MODE.
001199:    7401           17427                           TCF      DVXSC                                 #  SEPARATE ROUTINE WHEN SCALAR IS IN MPAC.
001200:    7402           17427                           TCF      DVXSC
001201:
001202:    7403           07106        VVXSC              TC       DMPSUB                                #  COMPUTE X COMPONENT
001203:    7404           07137                           TC       VROUND                                #  AND ROUND IT.
001204:    7405           52160                           DXCH     MPAC       +3                         #  PUT Y COMPONENT INTO MPAC SAVING MPAC IN
001205:    7406           52155                           DXCH     MPAC                                  #  MPAC +3.
001206:    7407           52160                           DXCH     MPAC       +3
001207:
001208:    7410           07106                           TC       DMPSUB                                #  DO SAME FOR Y AND Z COMPONENTS.
001209:    7411           07137                           TC       VROUND
001210:    7412           52162                           DXCH     MPAC       +5
001211:    7413           52155                           DXCH     MPAC
001212:    7414           52162                           DXCH     MPAC       +5
001213:
001214:    7415           07106                           TC       DMPSUB
001215:    7416           07137                           TC       VROUND
001216:    7417           52155        VROTATEX           DXCH     MPAC                                  #  EXIT USED TO RESTORE MPAC AFTER THIS
001217:    7420           52162                           DXCH     MPAC       +5                         #  TYPE OF ROTATION. CALLED BY VECTOR SHIFT
001218:    7421           52160                           DXCH     MPAC       +3                         #  RIGHT, V/SC, ETC.
001219:    7422           52155                           DXCH     MPAC
001220:    7423           16060                           TCF      DANZIG
001221:


001223:                                                                                                  #           DP VECTOR PROJECTION ROUTINE.
001224:
001225:    7424           07153        VPROJ              TC       PREDOT                                #  (MPAC.X)MPAC IS COMPUTED AND LEFT IN
001226:    7425           44751                           CS       FOUR                                  #  MPAC. DO DOT AND FALL INTO DVXSC.
001227:    7426           26116                           ADS      ADDRWD
001228:
001229:                                                                                                  #           VXSC WHEN SCALAR ARRIVES IN MPAC AND VECTOR IS AT X.
001230:
001231:    7427           00006        DVXSC              EXTEND                                         #  SAVE SCALAR IN MPAC +3 AND GET X
001232:    7430           30155                           DCA      MPAC                                  #  COMPONENT OF ANSWER.
001233:    7431           52160                           DXCH     MPAC       +3
001234:    7432           07106                           TC       DMPSUB
001235:    7433           07137                           TC       VROUND
001236:
001237:    7434           34752                           CAF      TWO                                   #  ADVANCE ADDRWD TO Y COMPONENT OF X.
001238:    7435           26116                           ADS      ADDRWD
001239:    7436           00006                           EXTEND
001240:    7437           30160                           DCA      MPAC       +3                         #  PUT SCALAR BACK INTO MPAC AND SAVE
001241:    7440           52155                           DXCH     MPAC                                  #  X RESULT IN MPAC +5.
001242:    7441           52162                           DXCH     MPAC       +5
001243:    7442           07106                           TC       DMPSUB
001244:    7443           07137                           TC       VROUND
001245:
001246:    7444           34752                           CAF      TWO
001247:    7445           26116                           ADS      ADDRWD                                #  TO Z COMPONENT.
001248:    7446           52160                           DXCH     MPAC       +3                         #  BRING SCALAR BACK, PUTTING Y RESULT IN
001249:    7447           52155                           DXCH     MPAC                                  #  THE PROPER PLACE.
001250:    7450           52160                           DXCH     MPAC       +3
001251:    7451           07106                           TC       DMPSUB
001252:    7452           07137                           TC       VROUND
001253:
001254:    7453           52155                           DXCH     MPAC                                  #  PUT Z COMPONENT IN PROPER PLACE, ALSO
001255:    7454           52162                           DXCH     MPAC       +5                         #  POSITIONING X.
001256:    7455           52155                           DXCH     MPAC
001257:
001258:    7456           16520                           TCF      VMODE                                 #  MODE HAS CHANGED TO VECTOR.
001259:


001261:                                                                                                  #           THE VECTOR CROSS PRODUCT ROUTINE CALCULATES (X M -X M ,X M -X M ,X M -X M ) WHERE M IS THE VECTOR IN
001262:                                                                                                  #                                                         3 2  2 3  1 3  3 1  2 1  1 2
001263:                                                                                                  #  MPAC AND X THE VECTOR AT THE GIVEN ADDRESS.
001264:
001265:
001266:    7457           00006        VXV                EXTEND
001267:    7460           30162                           DCA      MPAC       +5                         #  FORM UP M3X1, LEAVING M1 IN VBUF.
001268:    7461           52155                           DXCH     MPAC
001269:    7462           52123                           DXCH     VBUF
001270:    7463           07106                           TC       DMPSUB                                #  BY X1.
001271:
001272:    7464           00006                           EXTEND
001273:    7465           40160                           DCS      MPAC       +3                         #  CALCULATE -X1M2, SAVING X1M3 IN VBUF +2.
001274:    7466           52155                           DXCH     MPAC
001275:    7467           52125                           DXCH     VBUF       +2
001276:    7470           07106                           TC       DMPSUB
001277:
001278:    7471           34752                           CAF      TWO                                   #  ADVANCE ADDRWD TO X2.
001279:    7472           26116                           ADS      ADDRWD
001280:    7473           00006                           EXTEND
001281:    7474           40162                           DCS      MPAC       +5                         #  PREPARE TO GET -X2M3, SAVING -X1M2 IN
001282:    7475           52155                           DXCH     MPAC                                  #  MPAC +5.
001283:    7476           52162                           DXCH     MPAC       +5
001284:    7477           07106                           TC       DMPSUB
001285:
001286:    7500           00006                           EXTEND
001287:    7501           30123                           DCA      VBUF                                  #  GET X2M1, SAVING -X2M3 IN VBUF +4.
001288:    7502           52155                           DXCH     MPAC
001289:    7503           52127                           DXCH     VBUF       +4
001290:    7504           07106                           TC       DMPSUB
001291:
001292:    7505           34752                           CAF      TWO                                   #  ADVANCE ADDRWD TO X3.
001293:    7506           26116                           ADS      ADDRWD
001294:    7507           00006                           EXTEND
001295:    7510           40123                           DCS      VBUF                                  #  GET -X3M1, ADDING X2M1 TO MPAC +5 TO
001296:    7511           52155                           DXCH     MPAC                                  #  COMPLETE THE Z COMPONENT OF THE ANSWER.
001297:    7512           20162                           DAS      MPAC       +5
001298:
001299:    7513           00006                           EXTEND
001300:    7514           17516                           BZF      +2
001301:    7515           07010                           TC       OVERFLWZ
001302:
001303:    7516           07106                           TC       DMPSUB
001304:    7517           52125                           DXCH     VBUF       +2                         #  MOVE X1M3 TO MPAC +3 SETTING UP FOR X3M2
001305:    7520           52160                           DXCH     MPAC       +3                         #  AND ADD -X3M1 TO MPAC +3 TO COMPLETE THE
001306:    7521           52155                           DXCH     MPAC                                  #  Y COMPONENT OF THE RESULT.
001307:    7522           20160                           DAS      MPAC       +3
001308:
001309:    7523           00006                           EXTEND
001310:    7524           17526                           BZF      +2


001312:    7525           07013                           TC       OVERFLWY
001313:
001314:    7526           07106                           TC       DMPSUB
001315:    7527           52127                           DXCH     VBUF       +4                         #  GO ADD -X2M3 TO X3M2 TO COMPLETE THE X
001316:    7530           16777                           TCF      ENDVXV                                #  COMPONENT (TAIL END OF DAD).
001317:
001318:                                                                                                  #           THE MPACVBUF SUBROUTINE SAVES THE VECTOR IN MPAC IN VBUF WITHOUT CLOBBERING MPAC.
001319:
001320:    7531           00006        MPACVBUF           EXTEND                                         #  CALLED BY MXV, VXM, AND UNIT.
001321:    7532           30155                           DCA      MPAC
001322:    7533           52123                           DXCH     VBUF
001323:    7534           00006                           EXTEND
001324:    7535           30160                           DCA      MPAC       +3
001325:    7536           52125                           DXCH     VBUF       +2
001326:    7537           00006                           EXTEND
001327:    7540           30162                           DCA      MPAC       +5
001328:    7541           52127                           DXCH     VBUF       +4
001329:    7542           00002                           TC       Q                                     #  RETURN TO CALLER.
001330:
001331:
001332:                                                                                                  #           DOUBLE PRECISION SIGN AGREE ROUTINE. ARRIVE WITH INPUT IN A+L. OUTPUT IS IN A + L.
001333:
001334:    7543           10000        ALSIGNAG           CCS      A                                     #  TEST UPPER PART.
001335:    7544           17550                           TCF      UPPOS                                 #  IT IS POSITIVE
001336:    7545           00002                           TC       Q                                     #  ZERO
001337:    7546           17560                           TCF      UPNEG                                 #  NEGATIVE
001338:    7547           00002                           TC       Q                                     #  ZERO
001339:
001340:    7550           56001        UPPOS              XCH      L                                     #  SAVE DECREMENTED UPPER PART.
001341:    7551           64736                           AD       HALF
001342:    7552           64736                           AD       HALF
001343:    7553           54000                           TS       A                                     #  SKIPS ON OVERFLOW
001344:    7554           17556                           TCF      +2
001345:    7555           24001                           INCR     L                                     #  RESTORE UPPER TO ROIGINAL VALUE
001346:    7556           56001                           XCH      L                                     #  SWAP A + L BACK.
001347:    7557           00002                           TC       Q
001348:
001349:    7560           56001        UPNEG              XCH      L                                     #  SAVE COMPLEMENTED + DECREMENTED UPPER PT
001350:    7561           64735                           AD       NEGMAX
001351:    7562           67746                           AD       NEGONE
001352:    7563           54000                           TS       A
001353:    7564           17566                           TCF      +2                                    #  DONT INCREMENT IF NO OVERFLOW.
001354:    7565           24001                           INCR     L
001355:    7566           56001                           XCH      L
001356:    7567           40000                           COM                                            #  MAKE NEGATIVE AGAIN.
001357:    7570           00002                           TC       Q
001358:


001360:                                                                                                  #           INTERPRETIVE INSTRUCTIONS WHOSE EXECUTION CONSISTS OF PRINCIPALLY CALLING SUBROUTINES.
001361:
001362:    7571           07106        DMP1               TC       DMPSUB                                #  DMP INSTRUCTION.
001363:    7572           16060                           TCF      DANZIG
001364:
001365:    7573           07106        DMPR               TC       DMPSUB
001366:    7574           07136                           TC       ROUNDSUB   +1                         #  (C(A) = +0).
001367:    7575           16060                           TCF      DANZIG
001368:
001369:    7576           00006        DDV                EXTEND
001370:    7577           50116                           INDEX    ADDRWD                                #  MOVE DIVIDEND INTO BUF.
001371:    7600           30001                           DCA      0
001372:    7601           17606                           TCF      BDDV       +4
001373:
001374:    7602           00006        BDDV               EXTEND                                         #  MOVE DIVISOR INTO MPAC SAVING MPAC, THE
001375:    7603           50116                           INDEX    ADDRWD                                #  DIVIDEND, IN BUF.
001376:    7604           30001                           DCA      0
001377:    7605           52155                           DXCH     MPAC
001378:    7606           52131                 +4        DXCH     BUF
001379:    7607           34755                           CAF      ZERO                                  #  DIVIDE ROUTINES IN BANK 0.
001380:    7610           54004                           TS       FBANK
001381:    7611           12353                           TCF      DDV/BDDV
001382:
001383:    7612           30116        SETPD              CA       ADDRWD                                #  MUST SET TO WORK AREA, OR EBANK TROUBLE.
001384:    7613           54166                           TS       PUSHLOC
001385:    7614           16062                           TCF      NOIBNKSW                              #  NO FBANK SWITCH REQUIRED.
001386:
001387:    7615           34755        TSLC               CAF      ZERO                                  #  SHIFTING ROUTINES LOCATED IN BANK 00.
001388:    7616           54004                           TS       FBANK
001389:    7617           12172                           TCF      TSLC2
001390:
001391:    7620           36073        GSHIFT             CAF      LOW7                                  #  USED AS MASK AT GENSHIFT. THIS PROCESSES
001392:    7621           54004                           TS       FBANK                                 #  ANY SHIFT INSTRUCTION (EXCEPT TSLC) WITH
001393:    7622           12214                           TCF      GENSHIFT                              #  AN ADDRESS (ROUTINES IN BANK 0).
001394:


001396:                                                                                                  #           THE FOLLOWING IS THE PROLOGUE TO V/SC. IF THE PRESENT MODE IS VECTOR, IT SAVES THE SCALAR AT X IN BUF
001397:                                                                                                  #  AND CALLS THE V/SC ROUTINE IN BANK 0. IF THE PRESENT MODE IS SCALAR, IT MOVES THE VECTOR AT X INTO MPAC, SAVING
001398:                                                                                                  #  THE SCALAR IN MPAC IN BUF BEFORE CALLING THE V/SC ROUTINE IN BANK 0.
001399:
001400:    7623           10163        V/SC               CCS      MODE
001401:    7624           17635                           TCF      DV/SC                                 #  MOVE VECTOR INTO MPAC.
001402:    7625           17635                           TCF      DV/SC
001403:
001404:    7626           00006        VV/SC              EXTEND
001405:    7627           50116                           INDEX    ADDRWD
001406:    7630           30001                           DCA      0
001407:    7631           52131        V/SC1              DXCH     BUF                                   #  IN BOTH CASES, VECTOR IS NOW IN MPAC AND
001408:    7632           34755                           CAF      ZERO                                  #  SCALAR IN BUF.
001409:    7633           54004                           TS       FBANK
001410:    7634           12654                           TCF      V/SC2
001411:
001412:    7635           00006        DV/SC              EXTEND
001413:    7636           50116                           INDEX    ADDRWD
001414:    7637           30003                           DCA      2
001415:    7640           52160                           DXCH     MPAC       +3
001416:    7641           00006                           EXTEND
001417:    7642           50116                           INDEX    ADDRWD
001418:    7643           30005                           DCA      4
001419:    7644           52162                           DXCH     MPAC       +5
001420:
001421:    7645           44753                           CS       ONE                                   #  CHANGE MODE TO VECTOR.
001422:    7646           54163                           TS       MODE
001423:
001424:    7647           00006                           EXTEND
001425:    7650           50116                           INDEX    ADDRWD
001426:    7651           30001                           DCA      0
001427:    7652           52155                           DXCH     MPAC
001428:    7653           17631                           TCF      V/SC1                                 #  FINISH PROLOGUE AT COMMON SECTION.
001429:


001431:                                                                                                  #           SIGN AND COMPLEMENT INSTRUCTIONS.
001432:
001433:    7654           50116        SIGN               INDEX    ADDRWD                                #  CALL COMP INSTRUCTION IF WORD AT X IS
001434:    7655           10000                           CCS      0                                     #  NEGATIVE NON-ZERO.
001435:    7656           16060                           TCF      DANZIG
001436:    7657           17661                           TCF      +2
001437:    7660           17667                           TCF      COMP                                  #  DO THE COMPLEMENT.
001438:
001439:    7661           50116                           INDEX    ADDRWD
001440:    7662           10001        CCSL               CCS      1
001441:    7663           16060                           TCF      DANZIG
001442:    7664           16060                           TCF      DANZIG
001443:    7665           17667                           TCF      COMP
001444:    7666           16060                           TCF      DANZIG
001445:    7667           00006        COMP               EXTEND                                         #  COMPLEMENT DP MPAC IN EVERY CASE.
001446:    7670           40155                           DCS      MPAC
001447:    7671           52155                           DXCH     MPAC
001448:
001449:    7672           10163                           CCS      MODE                                  #  EITHER COMPLEMENT MPAC +3 OR THE REST OF
001450:    7673           17704                           TCF      DCOMP                                 #  THE VECTOR ACCUMULATOR.
001451:    7674           17704                           TCF      DCOMP
001452:
001453:    7675           00006                           EXTEND                                         #  VECTOR COMPLEMENT.
001454:    7676           40160                           DCS      MPAC       +3
001455:    7677           52160                           DXCH     MPAC       +3
001456:    7700           00006                           EXTEND
001457:    7701           40162                           DCS      MPAC       +5
001458:    7702           52162                           DXCH     MPAC       +5
001459:    7703           16060                           TCF      DANZIG
001460:
001461:    7704           40156        DCOMP              CS       MPAC       +2
001462:    7705           54156                           TS       MPAC       +2
001463:    7706           16060                           TCF      DANZIG
001464:


001466:                                                                                                  #           THE FOLLOWING SHORT SHIFT CODES REQUIRE NO ADDRESS WORD:
001467:
001468:                                                                                                  #           1.  SR1 TO SR4         SCALAR SHIFT RIGHT.
001469:                                                                                                  #           2.  SR1R TO SR4R       SCALAR SHIFT RIGHT AND ROUND.
001470:                                                                                                  #           3.  SL1 TO SL4         SCALAR SHIFT LEFT.
001471:                                                                                                  #           4.  SL1R TO SL4R       SCALAR SHIFT LEFT AND ROUND.
001472:
001473:                                                                                                  #           5.  VSR1 TO VSR8       VECTOR SHIFT RIGHT (ALWAYS ROUNDS).
001474:                                                                                                  #           6.  VSL1 TO VSL8       VECTOR SHIFT LEFT (NEVER ROUNDS).
001475:
001476:                                                                                                  #           THE FOLLOWING CODES REQUIRE AN ADDRESS WHICH MAY BE INDEXED:*
001477:
001478:                                                                                                  #           1.  SR                 SCALAR SHIFT RIGHT.
001479:                                                                                                  #           2.  SRR                SCALAR SHIFT RIGHT AND ROUND.
001480:                                                                                                  #           3.  SL                 SCALAR SHIFT LEFT.
001481:                                                                                                  #           4.  SLR                SCALAR SHIFT LEFT AND ROUND.
001482:
001483:                                                                                                  #           5.  VSR                VECTOR SHIFT RIGHT.
001484:                                                                                                  #           6.  VSL                VECTOR SHIFT LEFT.
001485:
001486:                                                                                                  #  *  IF THE ADDRESS IS INDEXED, AND THE INDEX MODIFICATION RESULTS IN A NEGATIVE SHIFT COUNT, A SHIFT OF THE
001487:                                                                                                  #  ABSOLUTE VALUE OF THE COUNT IS DONE IN THE OPPOSITE DIRECTION.
001488:
001489:
001490: 00,2017                                           BANK     00
001491:
001492: 00,2017                                           COUNT*   $$/INTER
001493: 00,2017           36241        SHORTT             CAF      SIX                                   #  SCALAR SHORT SHIFTS COME HERE. THE SHIFT
001494: 00,2020           70020                           MASK     CYR                                   #  COUNT-1 IS NOW IN BITS 2-3 OF CYR. THE
001495: 00,2021           54021                           TS       SR                                    #  ROUNDING BIT IS IN BIT1 AT THIS POINT.
001496:
001497: 00,2022           10020                           CCS      CYR                                   #  SEE IF RIGHT OR LEFT SHIFT DESIRED.
001498: 00,2023           12101                           TCF      TSSL                                  #  SHIFT LEFT.
001499:
001500: 00,2024           00024        SRDDV              DEC      20         B-14                       #  MPTEMP SETTING FOR SR BEFORE DDV.
001501:
001502: 00,2025           50021        TSSR               INDEX    SR                                    #  GET SHIFTING BIT.
001503: 00,2026           34736                           CAF      BIT14
001504: 00,2027           54135                           TS       MPTEMP
001505:
001506: 00,2030           10020                           CCS      CYR                                   #  SEE IF A ROUND IS DESIRED.
001507: 00,2031           02050        RIGHTR             TC       MPACSRND                              #  YES - SHIFT RIGHT AND ROUND.
001508: 00,2032           16057                           TCF      NEWMODE                               #  SET MODE TO DP (C(A) = 0).
001509: 00,2033           30135        MPACSHR            CA       MPTEMP                                #  DO A TRIPLE PRECISION SHIFT RIGHT.
001510: 00,2034           00006                           EXTEND
001511: 00,2035           70156                           MP       MPAC       +2
001512: 00,2036           54156                 +3        TS       MPAC       +2                         #  (EXIT FROM SQRT AND ABVAL).
001513: 00,2037           30135                           CA       MPTEMP
001514: 00,2040           00006                           EXTEND
001515: 00,2041           70154                           MP       MPAC                                  #  SHIFT MAJOR PART INTO A,L AND PLACE IN


001517: 00,2042           52155                           DXCH     MPAC                                  #  MPAC,+1.
001518: 00,2043           30135                           CA       MPTEMP
001519: 00,2044           00006                           EXTEND
001520: 00,2045           70001                           MP       L                                     #  ORIGINAL C(MPAC +1).
001521: 00,2046           20156                           DAS      MPAC       +1                         #  GUARANTEED NO OVERFLOW.
001522: 00,2047           16060                           TCF      DANZIG
001523:
001524:                                                                                                  #           MPAC SHIFT RIGHT AND ROUND SUBROUTINES.
001525:
001526: 00,2050           30156        MPACSRND           CA       MPAC       +2                         #  WE HAVE TO DO ALL THREE MULTIPLIES SINCE
001527: 00,2051           00006                           EXTEND                                         #  MPAC +1 AND MPAC +2 MIGHT HAVE SIGN
001528: 00,2052           70135                           MP       MPTEMP                                #  DISAGREEMENT WITH A SHIFT RIGHT OF 1.
001529: 00,2053           56155                           XCH      MPAC       +1
001530: 00,2054           00006                           EXTEND
001531: 00,2055           70135                           MP       MPTEMP
001532: 00,2056           56155                           XCH      MPAC       +1                         #  TRIAL MINOR PART.
001533: 00,2057           60001                           AD       L
001534:
001535: 00,2060           60000        VSHR2              DOUBLE                                         #  (FINISH VECTOR COMPONENT SHIFT RIGHT
001536: 00,2061           54156                           TS       MPAC       +2                         #  AND ROUND.
001537: 00,2062           12064                           TCF      +2
001538: 00,2063           26155                           ADS      MPAC       +1                         #  GUARANTEED NO OVERFLOW.
001539:
001540: 00,2064           34755                           CAF      ZERO
001541: 00,2065           54156                           TS       MPAC       +2
001542: 00,2066           56154                           XCH      MPAC                                  #  SETTING TO ZERO SO FOLLOWING DAS WORKS.
001543: 00,2067           00006                           EXTEND
001544: 00,2070           70135                           MP       MPTEMP
001545: 00,2071           20155                           DAS      MPAC                                  #  AGAIN NO OVERFLOW.
001546: 00,2072           00002                           TC       Q
001547:
001548: 00,2073           30135        VSHRRND            CA       MPTEMP                                #  ENTRY TO SHIFT RIGHT AND ROUND MPAC WHEN
001549: 00,2074           00006                           EXTEND                                         #  MPAC CONTAINS A VECTOR COMPONENT.
001550: 00,2075           70155                           MP       MPAC       +1
001551: 00,2076           54155                           TS       MPAC       +1
001552: 00,2077           56001                           XCH      L
001553: 00,2100           12060                           TCF      VSHR2                                 #  GO ADD ONE IF NECESSARY AND FINISH.
001554:


001556:                                                                                                  #           ROUTINE FOR SHORT SCALAR SHIFT LEFT (AND MAYBE ROUND).
001557:
001558: 00,2101           30021        TSSL               CA       SR                                    #  GET SHIFT COUNT FOR SR.
001559: 00,2102           54135                 +1        TS       MPTEMP
001560:
001561: 00,2103           00006                 +2        EXTEND                                         #  ENTRY HERE FROM SL FOR SCALARS.
001562: 00,2104           30156                           DCA      MPAC       +1                         #  SHIFTING LEFT ONE PLACE AT A TIME IS
001563: 00,2105           20156                           DAS      MPAC       +1                         #  FASTER THAN DOING THE WHOLE SHIFT WITH
001564: 00,2106           60154                           AD       MPAC                                  #  MULTIPLIES ASSUMING THAT FREQUENCY OF
001565: 00,2107           60154                           AD       MPAC                                  #  SHIFT COUNTS GOES DOWN RAPIDLY AS A
001566: 00,2110           54154                           TS       MPAC                                  #  FUNCTION OF THEIR MAGNITUDE.
001567: 00,2111           12113                           TCF      +2
001568: 00,2112           54121                           TS       OVFIND                                #  OVERFLOW. (LEAVES OVERFLOW-CORRECTED
001569:                                                                                                  #  RESULT ANYWAY).
001570: 00,2113           10135                           CCS      MPTEMP                                #  LOOP ON DECREMENTED SHIFT COUNT.
001571: 00,2114           12102                           TCF      TSSL       +1
001572:
001573: 00,2115           10020                           CCS      CYR                                   #  SEE IF ROUND WANTED.
001574: 00,2116           07135        ROUND              TC       ROUNDSUB                              #  YES - ROUND AND EXIT.
001575: 00,2117           16060                           TCF      DANZIG                                #  SL LEAVES A ZERO IN CYR FOR NO ROUND.
001576: 00,2120           16060                           TCF      DANZIG                                #  NO - EXIT IMMEDIATL
001577:


001579:                                                                                                  #  VECTOR SHIFTING ROUTINES.
001580:
001581: 00,2121           34757        SHORTV             CAF      LOW3                                  #  SAVE 3 BIT SHIFT COUNT - 1 WITHOUT
001582: 00,2122           70020                           MASK     CYR                                   #  EDITING CYR.
001583: 00,2123           54135                           TS       MPTEMP
001584: 00,2124           10020                           CCS      CYR                                   #  SEE IF LEFT OR RIGHT SHIFT.
001585: 00,2125           12145                           TCF      VSSL                                  #  VECTOR SHIFT LEFT.
001586: 00,2126           00176        OCT176             OCT      176                                   #  USED IN PROCESSED SHIFTS WITH - COUNT.
001587:
001588: 00,2127           50135        VSSR               INDEX    MPTEMP                                #  (ENTRY FROM SR). PICK UP SHIFTING BIT.
001589: 00,2130           34736                           CAF      BIT14                                 #  MPTEMP CONTAINS THE SHIFT COUNT - 1.
001590: 00,2131           54135                           TS       MPTEMP
001591: 00,2132           02073                           TC       VSHRRND                               #  SHIFT X COMPONENT.
001592:
001593: 00,2133           52155                           DXCH     MPAC                                  #  SWAP X AND Y COMPONENTS.
001594: 00,2134           52160                           DXCH     MPAC       +3
001595: 00,2135           52155                           DXCH     MPAC
001596: 00,2136           02073                           TC       VSHRRND                               #  SHIFT Y COMPONENT.
001597:
001598: 00,2137           52155                           DXCH     MPAC                                  #  SWAP Y AND Z COMPONENTS.
001599: 00,2140           52162                           DXCH     MPAC       +5
001600: 00,2141           52155                           DXCH     MPAC
001601: 00,2142           02073                           TC       VSHRRND                               #  SHIFT Z COMPONENT.
001602:
001603: 00,2143           17417                           TCF      VROTATEX                              #  RESTORE COMPONENTS TO PROPER PLACES.
001604:


001606:                                                                                                  #  VECTOR SHIFT LEFT - DONE ONE PLACE AT A TIME.
001607:
001608: 00,2144           54135                 -1        TS       MPTEMP                                #  SHIFTING LOOP.
001609:
001610: 00,2145           00006        VSSL               EXTEND
001611: 00,2146           30155                           DCA      MPAC
001612: 00,2147           20155                           DAS      MPAC
001613: 00,2150           00006                           EXTEND
001614: 00,2151           12153                           BZF      +2
001615: 00,2152           07016                           TC       OVERFLOW
001616:
001617: 00,2153           00006                           EXTEND
001618: 00,2154           30160                           DCA      MPAC       +3
001619: 00,2155           20160                           DAS      MPAC       +3
001620: 00,2156           00006                           EXTEND
001621: 00,2157           12161                           BZF      +2
001622: 00,2160           07013                           TC       OVERFLWY
001623:
001624: 00,2161           00006                           EXTEND
001625: 00,2162           30162                           DCA      MPAC       +5
001626: 00,2163           20162                           DAS      MPAC       +5
001627: 00,2164           00006                           EXTEND
001628: 00,2165           12167                           BZF      +2
001629: 00,2166           07010                           TC       OVERFLWZ
001630:
001631: 00,2167           10135                           CCS      MPTEMP                                #  LOOP ON DECREMENTED SHIFT COUNTER.
001632: 00,2170           12144                           TCF      VSSL       -1
001633: 00,2171           16060                           TCF      DANZIG                                #  EXIT.
001634:


001636:                                                                                                  #           TSLC - TRIPLE SHIFT LEFT AND COUNT. SHIFTS MPAC LEFT UNTIL GREATER THAN .5 IN MAGNITUDE, LEAVING
001637:                                                                                                  #  THE COMPLEMENT OF THE NUMBER OF SHIFTS REQUIRED IN X.
001638:
001639: 00,2172           54135        TSLC2              TS       MPTEMP                                #  START BY ZEROING SHIFT COUNT (IN A NOW).
001640: 00,2173           06722                           TC       BRANCH                                #  EXIT WITH NO SHIFTING IF ARGUMENT ZERO.
001641: 00,2174           12176                           TCF      +2
001642: 00,2175           12212                           TCF      ENDTSLC                               #  STORES ZERO SHIFT COUNT IN THIS CASE.
001643:
001644: 00,2176           07256                           TC       TPAGREE                               #  MAY CAUSE UPSHIFT OF ONE EXTRA PLACE.
001645:
001646: 00,2177           30154                           CA       MPAC                                  #  BEGIN NORMALIZATION LOOP.
001647: 00,2200           12207                           TCF      TSLCTEST
001648:
001649: 00,2201           24135        TSLCLOOP           INCR     MPTEMP                                #  INCREMENT SHIFT COUNTER.
001650: 00,2202           00006                           EXTEND
001651: 00,2203           30156                           DCA      MPAC       +1
001652: 00,2204           20156                           DAS      MPAC       +1
001653: 00,2205           60154                           AD       MPAC
001654: 00,2206           26154                           ADS      MPAC
001655: 00,2207           60000        TSLCTEST           DOUBLE                                         #  SEE IF (ANOTHER) SHIFT IS REQUIRED.
001656: 00,2210           54000                           OVSK
001657: 00,2211           12201                           TCF      TSLCLOOP                              #  YES - INCREMENT COUNT AND SHIFT AGAIN.
001658:
001659: 00,2212           40135        ENDTSLC            CS       MPTEMP
001660: 00,2213           16622                           TCF      STORE1                                #  STORE SHIFT COUNT AND RETURN TO DANZIG.
001661:


001663:                                                                                                  #           THE FOLLOWING ROUTINES PROCESSES THE GENERAL SHIFT INSTRUCTIONS SR, SRR, SL, AND SLR.
001664:                                                                                                  #  THE GIVEN ADDRESS IS DECODED AS FOLLOWS:
001665:
001666:                                                                                                  #           BITS 1-7    SHIFT COUNT (SUBADDRESS) LESS THAN 125 DECIMAL.
001667:                                                                                                  #           BIT 8       PSEUDO SIGN BIT (DETECTS CHANGE IN SIGN IN INDEXED SHIFTS).
001668:                                                                                                  #           BIT 9       0 FOR LEFT SHIFT, AND 1 FOR RIGHT SHIFT.
001669:                                                                                                  #           BIT 10      1 FOR TERMINAL ROUND ON SCALAR SHIFTS, 0 OTHERWISE.
001670:                                                                                                  #           BITS 11-13  0.
001671:                                                                                                  #           BIT 14      1.
001672:                                                                                                  #           BIT 15      0.
001673:
001674:                                                                                                  #  THE ABOVE ENCODING IS DONE BY THE YUL SYSTEM.
001675:
001676: 00,2214           70116        GENSHIFT           MASK     ADDRWD                                #  GET SHIFT COUNT, TESTING FOR ZERO.
001677: 00,2215           10000                           CCS      A                                     #  (ARRIVES WITH C(A) = LOW7).
001678: 00,2216           12224                           TCF      GENSHFT2                              #  IF NON-ZERO, PROCEED WITH DECREMENTED CT
001679:
001680: 00,2217           34742                           CAF      BIT10                                 #  ZERO SHIFT COUNT. NO SHIFTS NEEDED BUT
001681: 00,2220           70116                           MASK     ADDRWD                                #  WE MIGHT HAVE TO ROUND MPAC ON SLR AND
001682: 00,2221           10000                           CCS      A                                     #  SRR (SCALAR ONLY).
001683: 00,2222           07135                           TC       ROUNDSUB
001684: 00,2223           16060                           TCF      DANZIG
001685:
001686: 00,2224           54135        GENSHFT2           TS       MPTEMP                                #  DECREMENTED SHIFT COUNT TO MPTEMP.
001687: 00,2225           34744                           CAF      BIT8                                  #  TEST MEANING OF LOW SEVEN BIT COUNT IN
001688: 00,2226           00006                           EXTEND                                         #  MPTEMP NOW.
001689: 00,2227           70116                           MP       ADDRWD
001690: 00,2230           76244                           MASK     LOW2                                  #  JUMPS ON SHIFT DIRECTION (BIT8) AND
001691: 00,2231           50000                           INDEX    A
001692: 00,2232           12233                           TCF      +1                                    #  ORIGINAL SHIFT DIRECTION (BIT 9).
001693: 00,2233           12332                           TCF      RIGHT-                                #  NEGATIVE SHIFT COUNT FOR SL OR SLR.
001694: 00,2234           12342                           TCF      LEFT                                  #  SL OR SLR.
001695: 00,2235           12336                           TCF      LEFT-                                 #  NEGATIVE SHIFT COUNT WITH SR OR SRR.
001696:


001698:                                                                                                  #           GENERAL SHIFT RIGHT.
001699:
001700: 00,2236           10163        RIGHT              CCS      MODE                                  #  SEE IF VECTOR OR SCALAR.
001701: 00,2237           12277                           TCF      GENSCR
001702: 00,2240           12277                           TCF      GENSCR
001703:
001704: 00,2241           30135                           CA       MPTEMP                                #  SEE IF SHIFT COUNT LESS THAN 14D.
001705: 00,2242           63733        VRIGHT2            AD       NEG12
001706: 00,2243           00006                           EXTEND
001707: 00,2244           62127                           BZMF     VSSR                                  #  IF SO, BRANCH AND SHIFT IMMEDIATELY.
001708:
001709: 00,2245           67746                           AD       NEGONE                                #  IF NOT, REDUCE MPTEMP BY A TOTAL OF 14,
001710: 00,2246           54135                           TS       MPTEMP                                #  AND DO A SHIFT RIGHT AND ROUND BY 14.
001711: 00,2247           34755                           CAF      ZERO                                  #  THE ROUND AT THIS STAGE MAY INTRODUCE A
001712: 00,2250           54001                           TS       L                                     #  ONE BIT ERROR IN A SHIFT RIGHT 15D.
001713: 00,2251           56154                           XCH      MPAC
001714: 00,2252           56155                           XCH      MPAC       +1
001715: 00,2253           02272                           TC       SETROUND                              #  X COMPONENT NOW SHIFTED, SO MAKE UP THE
001716: 00,2254           20155                           DAS      MPAC                                  #  ROUNDING QUANTITY (0 IN A AND 0 OR +-1
001717:                                                                                                  #  IN L).
001718: 00,2255           56157                           XCH      MPAC       +3                         #  REPEAT THE ABOVE PROCESS FOR Y AND Z.
001719: 00,2256           56160                           XCH      MPAC       +4
001720: 00,2257           02272                           TC       SETROUND
001721: 00,2260           20160                           DAS      MPAC       +3                         #  NO OVERFLOW ON THESE ADDS.
001722:
001723: 00,2261           56161                           XCH      MPAC       +5
001724: 00,2262           56162                           XCH      MPAC       +6
001725: 00,2263           02272                           TC       SETROUND
001726: 00,2264           20162                           DAS      MPAC       +5
001727:
001728: 00,2265           10135                           CCS      MPTEMP                                #  SEE IF DONE, DOING FINAL DECREMENT.
001729: 00,2266           54135                           TS       MPTEMP
001730: 00,2267           12242                           TCF      VRIGHT2
001731: 00,2270           04604        BIASLO             DEC      .2974      B-1                        #  SQRT CONSTANT
001732:
001733: 00,2271           16060                           TCF      DANZIG
001734:
001735:
001736: 00,2272           60000        SETROUND           DOUBLE                                         #  MAKES UP ROUNDING QUANTITY FROM ARRIVING
001737: 00,2273           54156                           TS       MPAC       +2                         #  C(A). L IS ZERO INITIALLY.
001738: 00,2274           34755                           CAF      ZERO
001739: 00,2275           56001                           XCH      L
001740: 00,2276           00002                           TC       Q                                     #  RETURN AND DO THE DAS, RESETTING L TO 0.
001741:


001743:                                                                                                  #           PROCESS SR AND SRR FOR SCALARS.
001744:
001745: 00,2277           30135        GENSCR             CA       MPTEMP                                #  SEE IF THE ORIGINAL SHIFT COUNT WAS LESS
001746: 00,2300           63733                 +1        AD       NEG12                                 #  THAN 14D.
001747: 00,2301           00006                           EXTEND
001748: 00,2302           62322                           BZMF     DOSSHFT                               #  DO THE SHIFT IMMEDIATELY IF SO.
001749:
001750: 00,2303           67746                 +4        AD       NEGONE                                #  IF NOT, DECREMENT SHIFT COUNT BY 14D AND
001751: 00,2304           54135                           TS       MPTEMP                                #  SHIFT MPAC RIGHT 14 PLACES.
001752: 00,2305           34755                           CAF      ZERO
001753: 00,2306           56154                           XCH      MPAC
001754: 00,2307           56155                           XCH      MPAC       +1
001755: 00,2310           54156                           TS       MPAC       +2
001756: 00,2311           10135                           CCS      MPTEMP                                #  SEE IF FINISHED, DO FINAL DECREMENT.
001757: 00,2312           54135                           TS       MPTEMP
001758: 00,2313           02300                           TC       GENSCR     +1
001759: 00,2314           22650        SLOPEHI            DEC      .5884                                 #  SQRT CONSTANT.
001760: 00,2315           34742                           CAF      BIT10                                 #  FINISHED WITH SHIFT.  SEE IF ROUND
001761: 00,2316           70116                           MASK     ADDRWD                                #  WANTED.
001762: 00,2317           10000                           CCS      A
001763: 00,2320           07135                           TC       ROUNDSUB
001764: 00,2321           16060                           TCF      DANZIG                                #  DO SO AND/OR EXIT.
001765:
001766: 00,2322           50135        DOSSHFT            INDEX    MPTEMP                                #  PICK UP SHIFTING BIT.
001767: 00,2323           34736                           CAF      BIT14
001768: 00,2324           54135                           TS       MPTEMP
001769: 00,2325           34742                           CAF      BIT10                                 #  SEE IF TERMINAL ROUND DESIRED.
001770: 00,2326           70116                           MASK     ADDRWD
001771: 00,2327           10000                           CCS      A
001772: 00,2330           12031                           TCF      RIGHTR                                #  YES.
001773: 00,2331           12033                           TCF      MPACSHR                               #  JUST SHIFT RIGHT.
001774:


001776:                                                                                                  #           PROCESS THE RIGHT- (SL(R) WITH A NEGATIVE COUNT), LEFT-, AND LEFT OPTIONS.
001777:
001778: 00,2332           40135        RIGHT-             CS       MPTEMP                                #  GET ABSOLUTE VALUE - 1 OF SHIFT COUNT
001779: 00,2333           62126                           AD       OCT176                                #  UNDERSTANDING THAT BIT8 (PSEUDO-SIGN)
001780: 00,2334           54135                           TS       MPTEMP                                #  WAS 1 INITIALLY.
001781: 00,2335           12236                           TCF      RIGHT                                 #  DO NORMAL SHIFT RIGHT.
001782:
001783: 00,2336           42126        LEFT-              CS       OCT176                                #  SAME PROLOGUE TO LEFT FOR INDEXED RIGHT
001784: 00,2337           60135                           AD       MPTEMP                                #  SHIFTS WHOSE NET SHIFT COUNT IS NEGATIVE
001785: 00,2340           40000                           COM
001786: 00,2341           54135                           TS       MPTEMP
001787:
001788: 00,2342           10163        LEFT               CCS      MODE                                  #  SINCE LEFT SHIFTING IS SONE ONE PLACE AT
001789: 00,2343           12346                           TCF      GENSCL                                #  A TIME, NO COMPARISON WITH 14 NEED BE
001790: 00,2344           12346                           TCF      GENSCL                                #  DONE. FOR SCALARS, SEE IF TERMINAL ROUND
001791: 00,2345           12145                           TCF      VSSL                                  #  DESIRED. FOR VECTORS, SHIFT IMMEDIATELY.
001792:
001793: 00,2346           40116        GENSCL             CS       ADDRWD                                #  PUT ROUNDING BIT (BIT 10 OF ADDRWD) INTO
001794: 00,2347           00006                           EXTEND                                         #  BIT 15 OF CYR WHERE THE ROUNDING BIT OF
001795: 00,2350           74746                           MP       BIT6                                  #  A SHORT SHIFT LEFT WOULD BE
001796: 00,2351           54020                           TS       CYR
001797: 00,2352           12103                           TCF      TSSL       +2                         #  DO THE SHIFT.
001798:


001800:                                                                                                  #           SCALAR DIVISION INSTRUCTIONS, DDV AND BDDV, ARE EXECUTED HERE. AT THIS POINT, THE DIVIDEND IS IN MPAC
001801:                                                                                                  #  AND THE DIVISOR IN BUF.
001802:
001803: 00,2353           44753        DDV/BDDV           CS       ONE                                   #  INITIALIZATION.
001804: 00,2354           54136                           TS       DVSIGN                                #  +-1 FOR POSITIVE QUOTIENT - -0 FOR NEG.
001805: 00,2355           54137                           TS       DVNORMCT                              #  DIVIDEND NORMALIZATION COUNT.
001806: 00,2356           54140                           TS       MAXDVSW                               #  NEAR-ONE DIVIDE FLAG.
001807:
001808: 00,2357           10130                           CCS      BUF                                   #  FORCE BUF POSITIVE WITH THE MAJOR PART
001809: 00,2360           12516                           TCF      BUFPOS                                #  NON-ZERO.
001810: 00,2361           12363                           TCF      +2
001811: 00,2362           12531                           TCF      BUFNEG
001812:
001813: 00,2363           54156        BUFZERO            TS       MPAC       +2                         #  ZERO THIS.
001814: 00,2364           07256                           TC       TPAGREE                               #  FORCE SIGN AGREEMENT BEFORE OVERFLOW
001815:
001816: 00,2365           10154                           CCS      MPAC                                  #  TEST TO SEE IF MPAC NON-ZERO.  (TOO BIG)
001817: 00,2366           12414                           TCF      OVF+                                  #  MAJOR PART OF DIVIDEND IS POSITIVE NON-0
001818: 00,2367           12371                           TCF      +2
001819: 00,2370           12413                           TCF      OVF+       -1                         #  MAJOR PART OF DIVIDEND IS NEG. NON-ZERO
001820:
001821: 00,2371           56131                           XCH      BUF        +1                         #  SHIFT DIVIDEND AND DIVISOR LEFT 14.
001822: 00,2372           56130                           XCH      BUF
001823: 00,2373           56155                           XCH      MPAC       +1
001824: 00,2374           56154                           XCH      MPAC
001825: 00,2375           10130                           CCS      BUF                                   #  TRY AGAIN ON FORMER MINOR PART.
001826: 00,2376           12422                           TCF      BUF+
001827: 00,2377           12401                           TCF      +2                                    #  OVERFLOW ON ZERO DIVISOR.
001828: 00,2400           12416                           TCF      BUF-
001829:
001830: 00,2401           40154                           CS       MPAC                                  #  SIGN OF MPAC DETERMINES SIGN OF RESULT.
001831: 00,2402           00006        SGNDVOVF           EXTEND
001832: 00,2403           62405                           BZMF     +2
001833: 00,2404           24136                           INCR     DVSIGN                                #  NEGMAX IN MPAC PERHAPS.
001834: 00,2405           34733        DVOVF              CAF      POSMAX                                #  ON DIVISION OVERFLOW OF ANY SORT, SET
001835: 00,2406           54154                           TS       MPAC                                  #  SET DP MPAC TO +-POSMAX.
001836: 00,2407           02630                           TC       FINALDV    +3
001837: 00,2410           34753                           CAF      ONE                                   #  SET OVERFLOW INDICATOR AND EXIT.
001838: 00,2411           54121                           TS       OVFIND
001839: 00,2412           06060                           TC       DANZIG
001840:
001841: 00,2413           24136                 -1        INCR     DVSIGN
001842: 00,2414           40131        OVF+               CS       BUF        +1                         #  LOAD LOWER ORDER PART OF DIVISOR.
001843: 00,2415           12402                           TCF      SGNDVOVF                              #  GET SIGN OF RESULT.
001844:
001845: 00,2416           00006        BUF-               EXTEND                                         #  IF BUF IS NEGATIVE, COMPLEMENT IT AND
001846: 00,2417           40131                           DCS      BUF                                   #  MAINTAIN DVSIGN FOR FINAL QUOTIENT SIGN.
001847: 00,2420           52131                           DXCH     BUF
001848: 00,2421           24136                           INCR     DVSIGN                                #  NOW -0.
001849:


001851: 00,2422           10154        BUF+               CCS      MPAC                                  #  FORCE MPAC POSITIVE, CHECKING FOR ZERO
001852: 00,2423           12437                           TCF      MPAC+                                 #  DIVIDEND IN THE PROCESS.
001853: 00,2424           12426                           TCF      +2
001854: 00,2425           12433                           TCF      MPAC-
001855: 00,2426           10155                           CCS      MPAC       +1
001856: 00,2427           12437                           TCF      MPAC+
001857: 00,2430           16060                           TCF      DANZIG                                #  EXIT IMMEDIATELY ON ZERO DIVIDEND.
001858: 00,2431           12433                           TCF      MPAC-
001859: 00,2432           16060                           TCF      DANZIG
001860:
001861: 00,2433           00006        MPAC-              EXTEND                                         #  FORCE MPAC POSITIVE AS BUF IN BUF-.
001862: 00,2434           40155                           DCS      MPAC
001863: 00,2435           52155                           DXCH     MPAC
001864: 00,2436           24136                           INCR     DVSIGN                                #  NOW +1 OR -0.
001865:


001867: 00,2437           40154        MPAC+              CS       MPAC                                  #  CHECK FOR DIVISION OVERFLOW. IF THE
001868: 00,2440           67746                           AD       NEGONE                                #  MAJOR PART OF THE DIVIDEND IS LESS THAN
001869: 00,2441           60130                           AD       BUF                                   #  THE MAJOR PART OF THE DIVISOR BY AT
001870: 00,2442           10000                           CCS      A                                     #  LEAST TWO, WE CAN PROCEED IMMEDIATELY
001871: 00,2443           12505                           TCF      DVNORM                                #  WITHOUT NORMALIZATION PRODUCING A DVMAX.
001872: 00,2444           60001        -1/2+2             OCT      60001                                 #  USED IN SQRTSUB.
001873:
001874: 00,2445           12446                           TCF      +1                                    #  IF THE ABOVE DOES NOT HOLD, FORCE SIGN
001875: 00,2446           34736                           CAF      HALF                                  #  AGREEMENT IN NUMERATOR AND DENOMINATOR
001876: 00,2447           60000                           DOUBLE                                         #  TO FACILITATE OVERFLOW AND NEAR-ONE
001877: 00,2450           60155                           AD       MPAC       +1                         #  CHECKING.
001878: 00,2451           54155                           TS       MPAC       +1
001879: 00,2452           34755                           CAF      ZERO
001880: 00,2453           64733                           AD       POSMAX
001881: 00,2454           26154                           ADS      MPAC
001882:
001883: 00,2455           34736                           CAF      HALF                                  #  SAME FOR BUF.
001884: 00,2456           60000                           DOUBLE
001885: 00,2457           60131                           AD       BUF        +1
001886: 00,2460           54131                           TS       BUF        +1
001887: 00,2461           34755                           CAF      ZERO
001888: 00,2462           64733                           AD       POSMAX
001889: 00,2463           26130                           ADS      BUF
001890:
001891: 00,2464           40154                           CS       MPAC                                  #  CHECK MAGNITUDE OF SIGN-CORRECTED
001892: 00,2465           60130                           AD       BUF                                   #  OPERANDS.
001893: 00,2466           10000                           CCS      A
001894: 00,2467           12505                           TCF      DVNORM                                #  DIVIDE OK - WILL NOT BECOME MAXDV CASE.
001895: 00,2470           00133        LBUF2              ADRES    BUF2
001896: 00,2471           12405                           TCF      DVOVF                                 #  DIVISOR NOT LESS THAN DIVIDEND - OVF.
001897:
001898: 00,2472           54140                           TS       MAXDVSW                               #  IF THE MAJOR PARTS OF THE DIVIDEND AND
001899: 00,2473           40155                           CS       MPAC       +1                         #  DIVISOR ARE EQUAL, A SPECIAL APPROXIMA-
001900: 00,2474           60131                           AD       BUF        +1                         #  TION IS USED (PROVIDED THE DIVISION IS
001901: 00,2475           00006                           EXTEND                                         #  POSSIBLE, OF COURSE).
001902: 00,2476           62405                           BZMF     DVOVF
001903: 00,2477           12505                           TCF      DVNORM                                #  IF NO OVERFLOW.
001904:


001906: 00,2500           00006        BUFNORM            EXTEND                                         #  ADD -1 TO AUGMENT SHIFT COUNT AND SHIFT
001907: 00,2501           24137                           AUG      DVNORMCT                              #  LEFT ONE PLACE.
001908: 00,2502           00006                           EXTEND
001909: 00,2503           30131                           DCA      BUF
001910: 00,2504           20131                           DAS      BUF
001911:
001912: 00,2505           30130        DVNORM             CA       BUF                                   #  SEE IF DIVISOR NORMALIZED YET.
001913: 00,2506           60000                           DOUBLE
001914: 00,2507           54000                           OVSK
001915: 00,2510           12500                           TCF      BUFNORM                               #  NO - SHIFT LEFT ONE AND TRY AGAIN.
001916:
001917: 00,2511           52155                           DXCH     MPAC                                  #  CALL DIVIDEND NORMALIZATION SEQUENCE
001918: 00,2512           50137                           INDEX    DVNORMCT                              #  PRIOR TO DOING THE DIVIDE.
001919: 00,2513           02565                           TC       MAXTEST
001920:
001921: 00,2514           54156                           TS       MPAC       +2                         #  RETURNS WITH DIVISION DONE AND C(A) = 0.
001922: 00,2515           16060                           TCF      DANZIG
001923:
001924: 00,2516           10000        BUFPOS             CCS      A
001925: 00,2517           12422                           TCF      BUF+                                  #  TO BUF+ IF BUF IS GREATER THAN +1.
001926:
001927: 00,2520           40131                           CS       BUF        +1                         #  IF BUF IS +1, FORCING SIGN AGREEMENT
001928: 00,2521           00006                           EXTEND                                         #  MAY CAUSE BUF TO BECOME ZERO.
001929: 00,2522           62422                           BZMF     BUF+                                  #  BRANCH IF SIGNS AGREE.
001930:
001931: 00,2523           34736                           CA       HALF                                  #  SIGNS DISAGREE.  FORCE AGREEMENT.
001932: 00,2524           60000                 +6        DOUBLE
001933: 00,2525           26131                           ADS      BUF        +1
001934: 00,2526           34755                           CA       ZERO
001935: 00,2527           54130                           TS       BUF
001936: 00,2530           12363                           TCF      BUFZERO
001937:
001938:
001939: 00,2531           10000        BUFNEG             CCS      A
001940: 00,2532           12416                           TCF      BUF-                                  #  TO BUF- IF BUF IS LESS THAN -1.
001941:
001942: 00,2533           30131                           CA       BUF        +1                         #  IF BUF IS -1, FORCING SIGN AGREEMENT
001943: 00,2534           00006                           EXTEND                                         #  MAY CAUSE BUF TO BECOME ZERO.
001944: 00,2535           62416                           BZMF     BUF-                                  #  BRANCH IF SIGNS AGREE.
001945:
001946: 00,2536           44736                           CS       HALF                                  #  SIGNS DISAGREE.  FORCE AGREEMENT.
001947: 00,2537           12524                           TCF      BUFPOS     +6
001948:


001950:                                                                                                  #           THE FOLLOWING ARE PROLOGUES TO SHIFT THE DIVIDEND ARRIVING IN A AND L BEFORE THE DIVIDE.
001951:
001952: 00,2540           22021                 -21D      LXCH     SR                                    #  SPECIAL PROLOGUE FOR UNIT WHEN THE
001953: 00,2541           00006                           EXTEND                                         #  LENGTH OF THE ARGUMENT WAS NOT LESS THAN
001954: 00,2542           74736                           MP       HALF                                  #  .5. IN THIS CASE, EACH COMPONENT MUST BE
001955: 00,2543           56001                           XCH      L                                     #  SHIFTED RIGHT ONE TO PRODUCE A HALF-UNIT
001956: 00,2544           60021                           AD       SR                                    #  VECTOR.
001957: 00,2545           56001                           XCH      L
001958: 00,2546           12571                           TCF      GENDDV     +1                         #  WITH DP DIVIDEND IN A,L.
001959:
001960: 00,2547           20001                           DDOUBL                                         #  PROLOGUE WHICH NORMALIZES THE DIVIDEND
001961: 00,2550           20001                           DDOUBL                                         #  WHEN IT IS KNOWN THAT NO DIVISION
001962: 00,2551           20001                           DDOUBL                                         #  OVERFLOW WILL OCCUR.
001963: 00,2552           20001                           DDOUBL
001964: 00,2553           20001                           DDOUBL
001965: 00,2554           20001                           DDOUBL
001966: 00,2555           20001                           DDOUBL
001967: 00,2556           20001                           DDOUBL
001968: 00,2557           20001                           DDOUBL
001969: 00,2560           20001                           DDOUBL
001970: 00,2561           20001                           DDOUBL
001971: 00,2562           20001                           DDOUBL
001972: 00,2563           20001                           DDOUBL
001973: 00,2564           52155                           DXCH     MPAC
001974:
001975: 00,2565           10140        MAXTEST            CCS      MAXDVSW                               #  0 IF MAJORS MIGHT BE =, -1 OTHERWISE.
001976: 00,2566           06552        BIASHI             DEC      .4192      B-1                        #  SQRT CONSTANTS
001977:
001978: 00,2567           12642                           TCF      MAXDV                                 #  CHECK TO SEE IF THEY ARE NOW EQUAL.
001979:


001981:                                                                                                  #           THE FOLLOWING IS A GENERAL PURPOSE DOUBLE PRECISION DIVISION ROUTINE. IT DIVIDES MPAC BY BUF AND LEAVES
001982:                                                                                                  #  THE RESULT IN MPAC. THE FOLLOWING CONDITIONS MUST BE SATISFIED:
001983:
001984:                                                                                                  #           1.  THE DIVISOR (BUF) MUST BE POSITIVE AND NOT LESS THAN .5.
001985:
001986:                                                                                                  #           2.  THE DIVIDEND (MPAC) MUST BE POSITIVE WITH THE MAJOR PART OF MPAC STRICTLY LESS THAN THAT OF BUF
001987:                                                                                                  #  (A SPECIAL APPROXIMATION, MAXDV, IS USED WHEN THE MAJOR PARTS ARE EQUAL).
001988:
001989:                                                                                                  #           UNDERSTANDING THAT A/B = Q + S(R/B) WHERE S = 2(-14) AND Q AND R ARE QUOTIENT AND REMAINDER, RESPEC-
001990:                                                                                                  #  TIVELY, THE FOLLOWING APPROXIMATION IS OBTAINED BY MULTIPLYING ABOVE AND BELOW BY C - SD AND NEGLECTING TERMS OF
001991:                                                                                                  #  ORDER S-SQUARED (POSSIBLY INTRODUCING ERROR INTO THE LOW TWO BITS OF THE RESULT). SIGN AGREEMENT IS UNNECESSARY.
001992:
001993:                                                                                                  #           A + SB .      (R - QD)                                             A + SB
001994:                                                                                                  #           ------ = Q + S(------) WHERE Q AND R ARE QUOTIENT AND REMAINDER OF ------ RESPECTIVELY.
001995:                                                                                                  #           C + SD        (  C   )                                                C
001996:
001997:
001998: 00,2570           52155        GENDDV             DXCH     MPAC                                  #  WE NEED A AND B ONLY FOR FIRST DV.
001999: 00,2571           00006                 +1        EXTEND                                         #  (SPECIAL UNIT PROLOGUE ENTERS HERE).
002000: 00,2572           10130                           DV       BUF                                   #  A NOW CONTAINS Q AND L, R.
002001: 00,2573           52155                           DXCH     MPAC
002002:
002003: 00,2574           40154                           CS       MPAC                                  #  FORM DIVIDEND FOR MINOR PART OF RESULT.
002004: 00,2575           00006                           EXTEND
002005: 00,2576           70131                           MP       BUF        +1
002006: 00,2577           60155                           AD       MPAC       +1                         #  OVERFLOW AT THIS POINT IS POSITIVE SINCE
002007: 00,2600           54000                           OVSK                                           #  R IS POSITIVE IN EVERY CASE.
002008: 00,2601           12606                           TCF      +5
002009:
002010: 00,2602           00006                           EXTEND                                         #  OVERFLOW CAN BE REMOVED BY SUBTRACTING C
002011: 00,2603           60130                           SU       BUF                                   #  (BUF) ONCE SINCE R IS ALWAYS LESS THAN C
002012: 00,2604           24154                           INCR     MPAC                                  #  IN THIS CASE. INCR COMPENSATES SUBTRACT.
002013: 00,2605           12610                           TCF      +DOWN                                 #  (SINCE C(A) IS STILL POSITIVE).
002014:
002015: 00,2606           00006                 +5        EXTEND                                         #  C(A) CAN BE MADE LESS THAN C IN MAGNI-
002016: 00,2607           62620                           BZMF     -UP                                   #  TUDE BY DIMINISHING IT BY C (SINCE C IS
002017:                                                                                                  #  NOT LESS THAN .5) UNLESS C(A) = 0.
002018:


002020: 00,2610           00006        +DOWN              EXTEND
002021: 00,2611           60130                           SU       BUF                                   #  IF POSITIVE, REDUCE ONLY IF NECESSARY
002022: 00,2612           00006                           EXTEND                                         #  SINCE THE COMPENSATING INCR MIGHT CAUSE
002023: 00,2613           12616                           BZF      +3                                    #  OVERFLOW.
002024: 00,2614           00006                           EXTEND                                         #  DONT SUBTRACT UNLESS RESULT IS POSITIVE
002025: 00,2615           62624                           BZMF     ENDMAXDV                              #  OR ZERO.
002026:
002027: 00,2616           24154                 +3        INCR     MPAC                                  #  KEEP SUBTRACT HERE AND COMPENSATE.
002028: 00,2617           12625                           TCF      FINALDV
002029:
002030: 00,2620           00006        -UP                EXTEND                                         #  IF ZERO, SET MINOR PART OF RESULT TO
002031: 00,2621           12630                           BZF      FINALDV    +3                         #  ZERO.
002032:
002033: 00,2622           00006                           EXTEND                                         #  IF NEGATIVE, ADD C TO A, SUBTRACTING ONE
002034: 00,2623           26154                           DIM      MPAC                                  #  TO COMPENSATE. DIM IS OK HERE SINCE THE
002035: 00,2624           60130        ENDMAXDV           AD       BUF                                   #  MAJOR PART NEVER GOES NEGATIVE.
002036:


002038: 00,2625           22007        FINALDV            ZL                                             #  DO DV TO OBTAIN MINOR PART OF RESULT.
002039: 00,2626           00006                           EXTEND
002040: 00,2627           10130                           DV       BUF
002041: 00,2630           54155                 +3        TS       MPAC       +1
002042:
002043: 00,2631           10136                           CCS      DVSIGN                                #  LEAVE RESULT POSITIVE UNLESS C(DVSIGN)=
002044: 00,2632           00002                           TC       Q                                     #  -0.
002045: 00,2633           00002                           TC       Q
002046: 00,2634           00002                           TC       Q
002047:
002048: 00,2635           00006                           EXTEND
002049: 00,2636           40155                           DCS      MPAC
002050: 00,2637           52155                           DXCH     MPAC
002051: 00,2640           34755                           CAF      ZERO                                  #  SO WE ALWAYS RETURN WITH C(A) = 0.
002052: 00,2641           00002                           TC       Q
002053:


002055:                                                                                                  #           IF THE MAJOR PARTS OF THE DIVISOR AND DIVIDEND ARE EQUAL, BUT THE MINOR PARTS ARE SUCH THAT THE
002056:                                                                                                  #  DIVIDEND IS STRICTLY LESS THAN THE DIVISOR IN MAGNITUDE, THE FOLLOWING APPROXIMATION IS USED. THE ASSUMPTIONS
002057:                                                                                                  #  ARE THE SAME AS THE GENERAL ROUTINE WITH THE ADDITION THAT SIGN AGREEMENT IS NECESSARY (B, C, & D POSITIVE).
002058:
002059:                                                                                                  #                  C + SB .          (C + B - D)
002060:                                                                                                  #                  ------ = 37777 + S(---------)
002061:                                                                                                  #                  C + SD            (    C    )
002062:
002063:                                                                                                  #           THE DIVISION MAY BE PERFORMED IMMEDIATELY SINCE B IS STRICTLY LESS THAN D AND C IS NOT LESS THAN .5.
002064:
002065:
002066: 00,2642           40154        MAXDV              CS       MPAC                                  #  SEE IF MAXDV CASE STILL HOLDS AFTER
002067: 00,2643           60130                           AD       BUF                                   #  NORMALIZATION.
002068: 00,2644           00006                           EXTEND
002069: 00,2645           12647                           BZF      +2
002070: 00,2646           12570                           TCF      GENDDV                                #  MPAC NOW LESS THAN BUF - DIVIDE AS USUAL
002071:
002072: 00,2647           34733                 +2        CAF      POSMAX                                #  SET MAJOR PART OF RESULT.
002073: 00,2650           54154                           TS       MPAC
002074:
002075: 00,2651           40131                           CS       BUF        +1                         #  FORM DIVIDEND OF MINOR PART OF RESULT.
002076: 00,2652           60155                           AD       MPAC       +1
002077: 00,2653           12624                           TCF      ENDMAXDV                              #  GO ADD C AND DO DIVIDE, ATTACHING SIGN
002078:                                                                                                  #  BEFORE EXITING.
002079:


002081:                                                                                                  #           VECTOR DIVIDED BY SCALAR, V/SC, IS EXECUTED HERE. THE VECTOR IS NOW IN MPAC WITH SCALAR IN BUF.
002082:
002083: 00,2654           44753        V/SC2              CS       ONE                                   #  INITIALIZE DIVIDEND NORMALIZATION COUNT
002084: 00,2655           54137                           TS       DVNORMCT                              #  AND DIVISION SIGN REGISTER.
002085: 00,2656           54127                           TS       VBUF       +5
002086:
002087: 00,2657           03010                           TC       VECAGREE                              #  FORCE SIGN AGREEMENT IN VECTOR
002088:
002089: 00,2660           52131                           DXCH     BUF
002090: 00,2661           07543                           TC       ALSIGNAG                              #  SIGN AGREE BUF
002091: 00,2662           52131                           DXCH     BUF
002092: 00,2663           10130                           CCS      BUF                                   #  FORCE DIVISOR POSITIVE WITH MAJOR PART
002093: 00,2664           12721                           TCF      /BUF+                                 #  NON-ZERO (IF POSSIBLE).
002094: 00,2665           12667                           TCF      +2
002095: 00,2666           12715                           TCF      /BUF-
002096:
002097: 00,2667           56131                           XCH      BUF        +1                         #  SHIFT VECTOR AND SCALAR LEFT 14.
002098: 00,2670           56130                           XCH      BUF
002099: 00,2671           56155                           XCH      MPAC       +1
002100: 00,2672           56154                           XCH      MPAC
002101: 00,2673           00006                           EXTEND                                         #  CHECK FOR OVERFLOW IN EACH CASE.
002102: 00,2674           12676                           BZF      +2
002103: 00,2675           12405                           TCF      DVOVF
002104:
002105: 00,2676           56160                           XCH      MPAC       +4
002106: 00,2677           56157                           XCH      MPAC       +3
002107: 00,2700           00006                           EXTEND
002108: 00,2701           12703                           BZF      +2
002109: 00,2702           12405                           TCF      DVOVF
002110:
002111: 00,2703           56162                           XCH      MPAC       +6
002112: 00,2704           56161                           XCH      MPAC       +5
002113: 00,2705           00006                           EXTEND
002114: 00,2706           12710                           BZF      +2
002115: 00,2707           12405                           TCF      DVOVF
002116:
002117: 00,2710           10130                           CCS      BUF
002118: 00,2711           12721                           TCF      /BUF+
002119: 00,2712           12405                           TCF      DVOVF                                 #  ZERO DIVISOR - OVERFLOW.
002120: 00,2713           12715                           TCF      /BUF-
002121: 00,2714           12405                           TCF      DVOVF
002122:
002123: 00,2715           00006        /BUF-              EXTEND                                         #  ON NEGATIVE, COMPLEMENT BUF AND MAINTAIN
002124: 00,2716           40131                           DCS      BUF                                   #  DVSIGN IN VBUF +5.
002125: 00,2717           52131                           DXCH     BUF
002126: 00,2720           24127                           INCR     VBUF       +5
002127:


002129: 00,2721           00006        /BUF+              EXTEND
002130: 00,2722           30131                           DCA      BUF                                   #  LEAVE ABS(ORIG DIVISOR) IN BUF2
002131: 00,2723           52134                           DXCH     BUF2                                  #  FOR OVERFLOW TESTING
002132: 00,2724           12732                           TCF      /NORM                                 #  NORMALIZE DIVISOR IN BUF.
002133:
002134: 00,2725           00006        /NORM2             EXTEND                                         #  IF LESS THAN .5, AUGMENT DVNORMCT AND
002135: 00,2726           24137                           AUG      DVNORMCT                              #  DOUBLE DIVISOR.
002136: 00,2727           00006                           EXTEND
002137: 00,2730           30131                           DCA      BUF
002138: 00,2731           20131                           DAS      BUF
002139:
002140: 00,2732           30130        /NORM              CA       BUF                                   #  SEE IF DIVISOR NORMALIZED.
002141: 00,2733           60000                           DOUBLE
002142: 00,2734           54000                           OVSK
002143: 00,2735           12725                           TCF      /NORM2                                #  DOUBLE AND TRY AGAIN IF NOT.
002144:
002145: 00,2736           02750                           TC       V/SCDV                                #  DO X COMPONENT DIVIDE.
002146: 00,2737           52160                           DXCH     MPAC       +3                         #  SUPPLY ARGUMENTS IN USUAL SEQUENCE.
002147: 00,2740           52155                           DXCH     MPAC
002148: 00,2741           52160                           DXCH     MPAC       +3
002149:
002150: 00,2742           02750                           TC       V/SCDV                                #  Y COMPONENT.
002151: 00,2743           52162                           DXCH     MPAC       +5
002152: 00,2744           52155                           DXCH     MPAC
002153: 00,2745           52162                           DXCH     MPAC       +5
002154:
002155: 00,2746           02750                           TC       V/SCDV                                #  Z COMPONENT.
002156: 00,2747           17417                           TCF      VROTATEX                              #  GO RE-ARRANGE COMPONENTS BEFORE EXIT.
002157:


002159:                                                                                                  #           SUBROUTINE USED BY V/SC TO DIVIDE VECTOR COMPONENT IN MPAC,+1 BY THE SCALAR GIVEN IN BUF.
002160:
002161: 00,2750           30127        V/SCDV             CA       VBUF       +5                         #  REFLECTS SIGN OF SCALAR.
002162: 00,2751           54136                           TS       DVSIGN
002163:
002164: 00,2752           10154                           CCS      MPAC                                  #  FORCE MPAC POSITIVE, EXITING ON ZERO.
002165: 00,2753           12767                           TCF      /MPAC+
002166: 00,2754           12756                           TCF      +2
002167: 00,2755           12763                           TCF      /MPAC-
002168:
002169: 00,2756           10155                           CCS      MPAC       +1
002170: 00,2757           12767                           TCF      /MPAC+
002171: 00,2760           00002                           TC       Q
002172: 00,2761           12763                           TCF      /MPAC-
002173: 00,2762           00002                           TC       Q
002174:
002175: 00,2763           00006        /MPAC-             EXTEND                                         #  USUAL COMPLEMENTING AND SETTING OF SIGN.
002176: 00,2764           40155                           DCS      MPAC
002177: 00,2765           52155                           DXCH     MPAC
002178: 00,2766           24136                           INCR     DVSIGN
002179:
002180: 00,2767           44753        /MPAC+             CS       ONE                                   #  INITIALIZE NEAR-ONE SWITCH.
002181: 00,2770           54140                           TS       MAXDVSW
002182:
002183: 00,2771           40154                           CS       MPAC                                  #  CHECK POSSIBLE OVERFLOW.
002184: 00,2772           60133                           AD       BUF2                                  #  UNNORMALIZED INPUT DIVISOR.
002185: 00,2773           10000                           CCS      A
002186: 00,2774           13004                           TCF      DDVCALL                               #  NOT NEAR-ONE
002187: 00,2775           12777                           TCF      +2                                    #  +0 IS JUST POSSIBLE
002188: 00,2776           12405                           TCF      DVOVF                                 #  NO HOPE
002189: 00,2777           54140                           TS       MAXDVSW                               #  SIGNAL POSSIBLE NEAR-ONE CASE
002190: 00,3000           40155                           CS       MPAC       +1                         #  SEE IF DIVISION CAN BE DONE
002191: 00,3001           60134                           AD       BUF2       +1
002192: 00,3002           00006                           EXTEND
002193: 00,3003           62405                           BZMF     DVOVF
002194:
002195: 00,3004           52155        DDVCALL            DXCH     MPAC                                  #  CALL PRE-DIVIDE NORMALIZATION.
002196: 00,3005           50137                           INDEX    DVNORMCT
002197: 00,3006           12565                           TCF      MAXTEST
002198:


002200: 00,3007           32506        SLOPELO            DEC      .8324
002201:
002202: 00,3010           56002        VECAGREE           XCH      Q                                     #  SAVE Q IN A
002203: 00,3011           52155                           DXCH     MPAC
002204: 00,3012           07543                           TC       ALSIGNAG                              #  SIGNAGREE MPAC
002205: 00,3013           52155                           DXCH     MPAC
002206: 00,3014           52160                           DXCH     MPAC       +3
002207: 00,3015           07543                           TC       ALSIGNAG                              #  SIGN AGREE MPAC +3
002208: 00,3016           52160                           DXCH     MPAC       +3
002209: 00,3017           52162                           DXCH     MPAC       +5
002210: 00,3020           07543                           TC       ALSIGNAG                              #  SIGNAGREE MPAC +5
002211: 00,3021           52162                           DXCH     MPAC       +5
002212: 00,3022           00000                           TC       A
002213:


002215:                                                                                                  #           THE FOLLOWING ROUTINE EXECUTES THE UNIT INSTRUCTION, WHICH TAKES THE UNIT OF THE VECTOR IN MPAC.
002216:
002217: 00,3023           03010        UNIT               TC       VECAGREE                              #  FORCE SIGN AGREEMENT IN VECTOR
002218: 00,3024           07531                           TC       MPACVBUF                              #  SAVE ARGUMENT IN VBUF
002219: 00,3025           34755                           CAF      ZERO                                  #  MUST SENSE OVERFLOW IN FOLLOWING DOT.
002220: 00,3026           56121                           XCH      OVFIND
002221: 00,3027           54141                           TS       TEM1
002222: 00,3030           03317                           TC       VSQSUB                                #  DOT MPAC WITH ITSELF.
002223: 00,3031           30141                           CA       TEM1
002224: 00,3032           56121                           XCH      OVFIND
002225: 00,3033           00006                           EXTEND
002226: 00,3034           13036                           BZF      +2
002227: 00,3035           12405                           TCF      DVOVF
002228: 00,3036           00006                           EXTEND
002229: 00,3037           30155                           DCA      MPAC                                  #  LEAVE THE SQUARE OF THE LENGTH OF THE
002230: 00,3040           50120                           INDEX    FIXLOC                                #  ARGUMENT IN LVSQUARE.
002231: 00,3041           52043                           DXCH     LVSQUARE
002232:
002233: 00,3042           03343                           TC       SQRTSUB                               #  GO TAKE THE NORMALIZED SQUARE ROOT.
002234:
002235: 00,3043           10154                           CCS      MPAC                                  #  CHECK FOR UNIT OVERFLOW.
002236: 00,3044           13051                           TCF      +5                                    #  MPAC IS NOT LESS THAN .5 UNLESS
002237: 00,3045           54001                           TS       L
002238: 00,3046           50120                           INDEX    FIXLOC
002239: 00,3047           52045                           DXCH     LV
002240: 00,3050           12405                           TCF      DVOVF                                 #  INPUT TO SQRTSUB WAS 0.
002241:
002242: 00,3051           44317                           CS       FOURTEEN                              #  SEE IF THE INPUT WAS SO SMALL THE THE
002243: 00,3052           60135                           AD       MPTEMP                                #  FIRST TWO REGISTERS OF THE SQUARE WERE 0
002244: 00,3053           10000                           CCS      A
002245: 00,3054           40000                           COM                                            #  IF SO, SAVE THE NEGATIVE OF THE SHIFT
002246: 00,3055           13133                           TCF      SMALL                                 #  COUNT -15D.
002247:
002248: 00,3056           13065                           TCF      LARGE                                 #  (THIS IS USUALLY THE CASE.)
002249:
002250: 00,3057           44761                           CS       THIRTEEN                              #  IF THE SHIFT COUNT WAS EXACTLY 14, SET
002251: 00,3060           54135                           TS       MPTEMP                                #  THE PRE-DIVIDE NORM COUNT TO -13D.
002252:
002253: 00,3061           30154                           CA       MPAC                                  #  SHIFT THE LENGTH RIGHT 14 BEFORE STORING
002254: 00,3062           54001        SMALL2             TS       L                                     #  (SMALL EXITS TO THIS POINT).
002255: 00,3063           34755                           CAF      ZERO
002256: 00,3064           13112                           TCF      LARGE2                                #  GO TO STORE LENGTH AND PROCEED.
002257:
002258: 00,3065           10135        LARGE              CCS      MPTEMP                                #  MOST ALL CASES COME HERE.
002259: 00,3066           13074                           TCF      LARGE3                                #  SEE IF NO NORMALIZATION WAS REQUIRED BY
002260:
002261: 00,3067           42024                           CS       SRDDV                                 #  SQRT, AND IF SO, SET UP FOR A SHIFT
002262: 00,3070           54135                           TS       MPTEMP                                #  RIGHT 1 BEFORE DIVIDING TO PRODUCE
002263: 00,3071           00006                           EXTEND                                         #  THE DESIRED HALF UNIT VECTOR.
002264: 00,3072           30155                           DCA      MPAC


002266: 00,3073           13112                           TCF      LARGE2
002267:


002269: 00,3074           40000        LARGE3             COM                                            #  LEAVE NEGATIVE OF SHIFT COUNT-1 FOR
002270: 00,3075           54135                           TS       MPTEMP                                #  PREDIVIDE LEFT SHIFT.
002271:
002272: 00,3076           40000                           COM                                            #  PICK UP REQUIRED SHIFTING BIT TO UNNORM-
002273: 00,3077           50000                           INDEX    A                                     #  ALIZE THE SQRT RESULT.
002274: 00,3100           34736                           CAF      BIT14
002275: 00,3101           54130                           TS       BUF
002276: 00,3102           00006                           EXTEND
002277: 00,3103           70155                           MP       MPAC       +1
002278: 00,3104           56130                           XCH      BUF
002279: 00,3105           00006                           EXTEND                                         #  (UNNORMALIZE THE SQRT FOR LV).
002280: 00,3106           70154                           MP       MPAC
002281: 00,3107           56001                           XCH      L
002282: 00,3110           60130                           AD       BUF
002283: 00,3111           56001                           XCH      L
002284:
002285: 00,3112           50120        LARGE2             INDEX    FIXLOC
002286: 00,3113           52045                           DXCH     LV                                    #  LENGTH NOW STORED IN WORK AREA.
002287:
002288: 00,3114           44753                           CS       ONE
002289: 00,3115           54140                           TS       MAXDVSW                               #  NO MAXDV CASES IN UNIT.
002290:
002291: 00,3116           52123                           DXCH     VBUF                                  #  PREPARE X COMPONENT FOR DIVIDE, SETTING
002292: 00,3117           52155                           DXCH     MPAC                                  #  LENGTH OF VECTOR AS DIVISOR IN BUF.
002293: 00,3120           52131                           DXCH     BUF
002294: 00,3121           03151                           TC       UNITDV
002295:
002296: 00,3122           52125                           DXCH     VBUF       +2                         #  DO Y AND Z IN USUAL FASHION SO WE CAN
002297: 00,3123           52155                           DXCH     MPAC                                  #  EXIT THROUGH VROTATEX.
002298: 00,3124           52160                           DXCH     MPAC       +3
002299: 00,3125           03151                           TC       UNITDV
002300:
002301: 00,3126           52127                           DXCH     VBUF       +4
002302: 00,3127           52155                           DXCH     MPAC
002303: 00,3130           52162                           DXCH     MPAC       +5
002304: 00,3131           03151                           TC       UNITDV
002305: 00,3132           17417                           TCF      VROTATEX                              #  AND EXIT.
002306:


002308:                                                                                                  #           IF THE LENGTH OF THE ARGUMENT VECTOR WAS LESS THAN 2(-28), EACH COMPONENT MUST BE SHIFTED LEFT AT LEAST
002309:                                                                                                  #  14 PLACES BEFORE THE DIVIDE. NOTE THAT IN THIS CASE, THE MAJOR PART OF EACH COMPONENT IS ZERO.
002310:
002311: 00,3133           54135        SMALL              TS       MPTEMP                                #  NEGATIVE OF PRE-DIVIDE SHIFT COUNT.
002312:
002313: 00,3134           34755                           CAF      ZERO                                  #  SHIFT EACH COMPONENT LEFT 14.
002314: 00,3135           56123                           XCH      VBUF       +1
002315: 00,3136           56122                           XCH      VBUF
002316: 00,3137           56125                           XCH      VBUF       +3
002317: 00,3140           56124                           XCH      VBUF       +2
002318: 00,3141           56127                           XCH      VBUF       +5
002319: 00,3142           56126                           XCH      VBUF       +4
002320:
002321: 00,3143           40135                           CS       MPTEMP
002322: 00,3144           50000                           INDEX    A
002323: 00,3145           34736                           CAF      BIT14
002324: 00,3146           00006                           EXTEND
002325: 00,3147           70154                           MP       MPAC
002326: 00,3150           13062                           TCF      SMALL2
002327:
002328: 00,3151     4761               THIRTEEN           =        OCT15
002329: 00,3151     4317               FOURTEEN           =        OCT16
002330: 00,3151     4317               OCT16              =        R1D1
002331:


002333:                                                                                                  #           THE FOLLOWING ROUTINE SETS UP THE CALL TO THE DIVIDE ROUTINES.
002334:
002335: 00,3151           10154        UNITDV             CCS      MPAC                                  #  FORCE MPAC POSITIVE IF POSSIBLE, SETTING
002336: 00,3152           13170                           TCF      UMPAC+                                #  DVSIGN ACCORDING TO THE SIGN OF MPAC
002337: 00,3153           13155                           TCF      +2                                    #  SINCE THE DIVISOR IS ALWAYS POSITIVE
002338: 00,3154           13162                           TCF      UMPAC-                                #  HERE.
002339:
002340: 00,3155           10155                           CCS      MPAC       +1
002341: 00,3156           13170                           TCF      UMPAC+
002342: 00,3157           00002                           TC       Q                                     #  EXIT IMMEDIATELY ON ZERO.
002343: 00,3160           13162                           TCF      UMPAC-
002344: 00,3161           00002                           TC       Q
002345:
002346: 00,3162           44755        UMPAC-             CS       ZERO                                  #  IF NEGATIVE, SET -0 IN DVSIGN FOR FINAL
002347: 00,3163           54136                           TS       DVSIGN                                #  COMPLEMENT.
002348: 00,3164           00006                           EXTEND
002349: 00,3165           40155                           DCS      MPAC                                  #  PICK UP ABSOLUTE VALUE OF ARG AND JUMP.
002350: 00,3166           50135                           INDEX    MPTEMP
002351: 00,3167           12564                           TCF      MAXTEST    -1
002352:
002353: 00,3170           54136        UMPAC+             TS       DVSIGN                                #  SET DVSIGN FOR POSITIVE QUOTIENT.
002354: 00,3171           52155                           DXCH     MPAC
002355: 00,3172           50135                           INDEX    MPTEMP
002356: 00,3173           12564                           TCF      MAXTEST    -1
002357:


002359:                                                                                                  #           MISCELLANEOUS UNARY OPERATIONS.
002360:
002361: 00,3174           03300        DSQ                TC       DSQSUB                                #  SQUARE THE DP CONTENTS OF MPAC.
002362: 00,3175           16060                           TCF      DANZIG
002363:
002364: 00,3176           10163        ABVALABS           CCS      MODE                                  #  ABVAL OR ABS INSTRUCTION.
002365: 00,3177           13226                           TCF      ABS                                   #  DO ABS ON SCALAR.
002366: 00,3200           13226                           TCF      ABS
002367:
002368: 00,3201           03317        ABVAL              TC       VSQSUB                                #  DOT MPAC WITH ITSELF.
002369: 00,3202           22163                           LXCH     MODE                                  #  MODE IS NOW DP (L ZERO AFTER DAS).
002370:
002371: 00,3203           00006                           EXTEND                                         #  STORE SQUARE OF LENGTH IN WORK AREA.
002372: 00,3204           30155                           DCA      MPAC
002373: 00,3205           50120                           INDEX    FIXLOC
002374: 00,3206           52043                           DXCH     LVSQUARE
002375:


002377:                                                                                                  #  PROGRAM DESCRIPTION- SUBROUTINE SQRT
002378:                                                                                                  #  FUNCTIONAL DESCRIPTION-DOUBLE PRECISION SQUARE ROOT ROUTINE
002379:                                                                                                  #      THIS PROGRAM TAKES THE SQUARE ROOT OF THE 27 OR 28 MOST SIGNIFICANT BITS IN THE TRIPLE PRECISION SET OF
002380:                                                                                                  #      NUMBERS-MPAC,MPAC+1,AND MPAC+2.  THE ROOT IS RETURNED DOUBLE        PRECISION IN MPAC AND MPAC+1.
002381:                                                                                                  #  WARNING- THIS SUBROUTINE USES A TRIPLE PRECISION INPUT. THE PROGRAMMER  MUST ASSURE THE CONTENTS OF MPAC+2
002382:                                                                                                  #      ESPECIALLY IF THE CONTENTS OF MPAC IS SMALL OR ZERO.  FOR DETAILS SEE STG MEMO NO.949.
002383:                                                                                                  #  CALLING SEQUENCE- IN INTERPRETIVE MODE I.E., FOLLOWING TC  INTPRET,SQRT   NO ADDRESS IS ALLOWED
002384:                                                                                                  #  INPUT SCALING  THE BINARY POINT IS ASSUMED TO THE RIGHT OF BIT 15. THE  ANSWER IS RETURNED WITH THE SAME SCALING
002385:                                                                                                  #  SUBROUTINES- GENSCR,MPACSHR, SQRTSUB,ABORT
002386:                                                                                                  #  ABORT EXIT MODE- ABORTS ON NEGATIVE INPUT -1.2X10E-4 (77775  OCTAL)     OR LESS.
002387:                                                                                                  #      DISPLAYS ERROR CODE 1302
002388:                                                                                                  #                  TC   ABORT
002389:                                                                                                  #                  OCT  1302
002390:                                                                                                  #  DEBRIS -  LOCATIONS BUF,MPTEMP,ADDRWD ARE USED
002391: 00,3207           03343        SQRT               TC       SQRTSUB                               #  TAKE THE SQUARE ROOT OF MPAC.
002392: 00,3210           10135                           CCS      MPTEMP                                #  RETURNED NORMALIZED SQUARE ROOT. SEE IF
002393: 00,3211           13213                           TCF      +2                                    #  ANY UN-NORMALIZATION REQUIRED AND EXIT
002394: 00,3212           16060                           TCF      DANZIG                                #  IF NOT.
002395:
002396: 00,3213           63733                           AD       NEG12                                 #  A RIGHT SHIFT OF MORE THAN 13 COULD BE
002397: 00,3214           00006                           EXTEND                                         #  REQUIRED IF INPUT WAS ZERO IN MPAC,+1.
002398: 00,3215           63221                           BZMF     SQRTSHFT                              #  GOES HERE IN MOST CASES.
002399: 00,3216           22007                           ZL                                             #  IF A LONG SHIFT IS REQUIRED, GO TO
002400: 00,3217           22116                           LXCH     ADDRWD                                #  GENERAL RIGHT SHIFT ROUTINES.
002401: 00,3220           12303                           TCF      GENSCR     +4                         #  ADDRWD WAS ZERO TO PREVENT ROUND.
002402:
002403: 00,3221           50135        SQRTSHFT           INDEX    MPTEMP                                #  SELECT SHIFTING BIT AND EXIT THROUGH
002404: 00,3222           34735                           CAF      BIT15                                 #  SHIFT ROUTINES.
002405: 00,3223           54135                           TS       MPTEMP
002406: 00,3224           34755                           CAF      ZERO                                  #  TO ZERO MPAC +2 IN THE PROCESS.
002407: 00,3225           12036                           TCF      MPACSHR    +3
002408:
002409: 00,3226           06722        ABS                TC       BRANCH                                #  TEST SIGN OF MPAC AND COMPLEMENT IF
002410: 00,3227           16060                           TCF      DANZIG
002411: 00,3230           16060                           TCF      DANZIG
002412: 00,3231           17667                           TCF      COMP
002413:


002415: 00,3232           44751        VDEF               CS       FOUR                                  #  VECTOR DEFINE - ESSENTIALLY TREATS
002416: 00,3233           26166                           ADS      PUSHLOC                               #  SCALAR IN MPAC AS X COMPONENT, PUSHES UP
002417: 00,3234           00006                           EXTEND                                         #  FOR Y AND THEN AGAIN FOR Z.
002418: 00,3235           50000                           INDEX    A
002419: 00,3236           30003                           DCA      2
002420: 00,3237           52160                           DXCH     MPAC       +3
002421: 00,3240           00006                           EXTEND
002422: 00,3241           50166                           INDEX    PUSHLOC
002423: 00,3242           30001                           DCA      0
002424: 00,3243           52162                           DXCH     MPAC       +5
002425: 00,3244           16520                           TCF      VMODE                                 #  MODE IS NON VECTOR.
002426:
002427: 00,3245           03317        VSQ                TC       VSQSUB                                #  DOT MPAC WITH ITSELF.
002428: 00,3246           17331                           TCF      DMODE                                 #  MODE IS NOW DP.
002429:
002430: 00,3247           00006        PUSH               EXTEND                                         #  PUSH DOWN MPAC LEAVING IT LOADED.
002431: 00,3250           30155                           DCA      MPAC
002432: 00,3251           50166                           INDEX    PUSHLOC                               #  PUSH DOWN FIRST TWO REGISTERS IN EACH
002433: 00,3252           52001                           DXCH     0
002434:
002435: 00,3253           50163                           INDEX    MODE                                  #  INCREMENT PUSHDOWN POINTER.
002436: 00,3254           36243                           CAF      NO.WDS
002437: 00,3255           26166                           ADS      PUSHLOC
002438:
002439: 00,3256           10163                           CCS      MODE
002440: 00,3257           13272                           TCF      TPUSH                                 #  PUSH DOWN MPAC +2.
002441: 00,3260           16060                           TCF      DANZIG                                #  DONE FOR DP.
002442:
002443: 00,3261           00006                           EXTEND                                         #  ON VECTOR, PUSH DOWN Y AND Z COMPONENTS.
002444: 00,3262           30160                           DCA      MPAC       +3
002445: 00,3263           50166                           INDEX    PUSHLOC
002446: 00,3264           51775                           DXCH     0          -4
002447: 00,3265           00006                           EXTEND
002448: 00,3266           30162                           DCA      MPAC       +5
002449: 00,3267           50166                           INDEX    PUSHLOC
002450: 00,3270           51777                           DXCH     0          -2
002451: 00,3271           16060                           TCF      DANZIG
002452:
002453: 00,3272           30156        TPUSH              CA       MPAC       +2
002454: 00,3273           16553                           TCF      ENDTPUSH   +2
002455:
002456: 00,3274           50120        RVQ                INDEX    FIXLOC                                #  RVQ - RETURN IVA QPRET.
002457: 00,3275           30052                           CA       QPRET
002458: 00,3276           54117                           TS       POLISH
002459: 00,3277           16651                           TCF      GOTO       +4                         #  (ASSUME QPRET POINTS TO FIXED ONLY.)
002460:


002462:                                                                                                  #           THE FOLLOWING SUBROUTINES ARE USED IN SQUARING MPAC, IN BOTH THE SCALAR AND VECTOR SENSE. THEY ARE
002463:                                                                                                  #  SPECIAL CASES OF DMPSUB AND DOTSUB, PUT IN TO SAVE SOME TIME.
002464:
002465: 00,3300           30155        DSQSUB             CA       MPAC       +1                         #  SQUARES THE SCALAR CONTENTS OF MPAC.
002466: 00,3301           00006                           EXTEND
002467: 00,3302           70000                           SQUARE
002468: 00,3303           54156                           TS       MPAC       +2
002469: 00,3304           34755                           CAF      ZERO                                  #  FORM 2(CROSS TERM).
002470: 00,3305           56155                           XCH      MPAC       +1
002471: 00,3306           00006                           EXTEND
002472: 00,3307           70154                           MP       MPAC
002473: 00,3310           20001                           DDOUBL                                         #  AND MAYBE OVERFLOW.
002474: 00,3311           20156                           DAS      MPAC       +1                         #  AND SET A TO NET OVERFLOW.
002475: 00,3312           56154                           XCH      MPAC
002476: 00,3313           00006                           EXTEND
002477: 00,3314           70000                           SQUARE
002478: 00,3315           20155                           DAS      MPAC
002479: 00,3316           00002                           TC       Q
002480:
002481: 00,3317           00006        VSQSUB             EXTEND                                         #  DOTS THE VECTOR IN MPAC WITH ITSELF.
002482: 00,3320           22137                           QXCH     DOTRET
002483: 00,3321           03300                           TC       DSQSUB                                #  SQUARE THE X COMPONENT.
002484: 00,3322           52160                           DXCH     MPAC       +3
002485: 00,3323           52155                           DXCH     MPAC
002486: 00,3324           52131                           DXCH     BUF                                   #  SO WE CAN END IN DOTSUB.
002487: 00,3325           30156                           CA       MPAC       +2
002488: 00,3326           54132                           TS       BUF        +2
002489:
002490: 00,3327           03300                           TC       DSQSUB                                #  SQUARE Y COMPONENT.
002491: 00,3330           52156                           DXCH     MPAC       +1
002492: 00,3331           20132                           DAS      BUF        +1
002493: 00,3332           60154                           AD       MPAC
002494: 00,3333           60130                           AD       BUF
002495: 00,3334           54130                           TS       BUF
002496: 00,3335           13337                           TCF      +2
002497: 00,3336           54121                           TS       OVFIND                                #  IF OVERFLOW.
002498:
002499: 00,3337           52162                           DXCH     MPAC       +5
002500: 00,3340           52155                           DXCH     MPAC
002501: 00,3341           03300                           TC       DSQSUB                                #  SQUARE Z COMPONENT.
002502: 00,3342           17204                           TCF      ENDDOT                                #  END AS IN DOTSUB.
002503:


002505:                                                                                                  #           DOUBLE PRECISION SQUARE ROOT ROUTINE. TAKE THE SQUARE ROOT OF THE TRIPLE PRECISION (MPAC +2 USED ONLY
002506:                                                                                                  #  IN NORMALIZATION) CONTENTS OF MPAC AND LEAVE THE NORMALIZED RESULT IN MPAC (C(MPAC) GREATER THAN OR EQUAL TO
002507:                                                                                                  #  .5). THE RIGHT SHIFT COUNT (TO UNNORMALIZE) IS LEFT IN MPTEMP.
002508:
002509:
002510: 00,3343           34755        SQRTSUB            CAF      ZERO                                  #  START BY ZEROING RIGHT SHIFT COUNT.
002511: 00,3344           54135                           TS       MPTEMP
002512:
002513: 00,3345           10154                           CCS      MPAC                                  #  CHECK FOR POSITIVE ARGUMENT, SHIFTING
002514: 00,3346           13405                           TCF      SMPAC+                                #  FIRST SIGNIFICANT MPAC REGISTER INTO
002515: 00,3347           13351                           TCF      +2                                    #  MPAC ITSELF.
002516: 00,3350           13373                           TCF      SQRTNEG                               #  SEE IF MAG OF ARGUMENT LESS THAN 10(-4).
002517:
002518: 00,3351           56156                           XCH      MPAC       +2                         #  MPAC IS ZERO - SHIFT LEFT 14.
002519: 00,3352           56155                           XCH      MPAC       +1
002520: 00,3353           54154                           TS       MPAC
002521: 00,3354           34757                           CAF      SEVEN                                 #  AUGMENT RIGHT SHIFT COUNTER.
002522: 00,3355           54135                           TS       MPTEMP
002523:
002524: 00,3356           10154                           CCS      MPAC                                  #  SEE IF MPAC NOW PNZ.
002525: 00,3357           13405                           TCF      SMPAC+
002526: 00,3360           13362                           TCF      +2
002527: 00,3361           13376                           TCF      ZEROANS                               #  NEGATIVE BUT LESS THAN 10(-4) IN MAG.
002528:
002529: 00,3362           56155                           XCH      MPAC       +1                         #  ZERO - SHIFT LEFT 14 AGAIN.
002530: 00,3363           54154                           TS       MPAC
002531: 00,3364           34757                           CAF      SEVEN                                 #  AUGMENT RIGHT SHIFT COUNTER.
002532: 00,3365           26135                           ADS      MPTEMP
002533:
002534: 00,3366           10154                           CCS      MPAC
002535: 00,3367           13405                           TCF      SMPAC+
002536: 00,3370           00002                           TC       Q                                     #  SQRT(0) = 0.
002537: 00,3371           13376                           TCF      ZEROANS
002538: 00,3372           13453                           TCF      FIXROOT                               #  DO NOT LEAVE SQRTSUB WITH -0 IN MPAC.
002539:
002540:
002541: 00,3373           10000        SQRTNEG            CCS      A                                     #  ARGUMENT IS NEGATIVE, BUT SEE IF SIGN-
002542: 00,3374           13402                           TCF      SQRTABRT                              #  CORRECTED ARGUMENT IS LESS THAN 10(-4)
002543:
002544: 00,3375           10155                           CCS      MPAC       +1                         #  IN MAGNITUDE. IF SO, CALL ANSWER ZERO.
002545: 00,3376           34755        ZEROANS            CAF      ZERO                                  #  FORCE ANSWER TO ZERO HERE.
002546: 00,3377           13453                           TCF      FIXROOT
002547: 00,3400           13402                           TCF      SQRTABRT
002548: 00,3401           13453                           TCF      FIXROOT
002549:
002550: 00,3402           52165        SQRTABRT           DXCH     LOC
002551: 00,3403           05720                           TC       POODOO1
002552: 00,3404           01302                           OCT      1302
002553:


002555: 00,3405           62444        SMPAC+             AD       -1/2+2                                #  SEE IF ARGUMENT GREATER THAN OR EQUAL TO
002556: 00,3406           00006                           EXTEND                                         #  .5.
002557: 00,3407           63456                           BZMF     SRTEST                                #  IF SO, SEE IF LESS THAN .25.
002558:
002559: 00,3410           52155                           DXCH     MPAC                                  #  WE WILL TAKE THE SQUARE ROOT OF MPAC/2.
002560: 00,3411           22021                           LXCH     SR                                    #  SHIFT RIGHT 1 AND GO TO THE SQRT ROUTINE
002561: 00,3412           00006                           EXTEND
002562: 00,3413           74736                           MP       HALF
002563: 00,3414           52155                           DXCH     MPAC
002564: 00,3415           56021                           XCH      SR
002565: 00,3416           26155                           ADS      MPAC       +1                         #  GUARANTEED NO OVERFLOW.
002566:
002567: 00,3417           32314        ARGHI              CAF      SLOPEHI                               #  ARGUMENT BETWEEN .25 AND .5. GET A
002568: 00,3420           00006                           EXTEND                                         #  LINEAR APPROXIMATION FOR THIS RANGE.
002569: 00,3421           70154                           MP       MPAC
002570: 00,3422           62566                           AD       BIASHI                                #  X0/2 = (MPAC/2)(SLOPEHI) + BIASHI/2.
002571:
002572: 00,3423           54130                 +4        TS       BUF                                   #  X0/2 (ARGLO ENTERS HERE).
002573: 00,3424           30154                           CA       MPAC                                  #  SINGLE-PRECISION THROUGHOUT.
002574: 00,3425           22007                           ZL
002575: 00,3426           00006                           EXTEND
002576: 00,3427           10130                           DV       BUF                                   #  (MPAC/2)/(X0/2)
002577: 00,3430           00006                           EXTEND
002578: 00,3431           74736                           MP       HALF
002579: 00,3432           26130                           ADS      BUF                                   #  X1 = X0/2 + .5(MPAC/2)/(X0/2).
002580:
002581: 00,3433           00006                           EXTEND
002582: 00,3434           74736                           MP       HALF                                  #  FORM UP X1/2.
002583: 00,3435           52155                           DXCH     MPAC                                  #  SAVE AND BRING OUT ARGUMENT.
002584: 00,3436           00006                           EXTEND                                         #  TAKE DP QUOTIENT WITH X1.
002585: 00,3437           10130                           DV       BUF
002586: 00,3440           54131                           TS       BUF        +1                         #  SAVE MAJOR PART OF QUOTIENT.
002587: 00,3441           34755                           CAF      ZERO                                  #  FORM MINOR PART OF QUOTIENT USING
002588: 00,3442           56001                           XCH      L                                     #  (REMAINDER,0).
002589: 00,3443           00006                           EXTEND
002590: 00,3444           10130                           DV       BUF
002591: 00,3445           54001                           TS       L                                     #  IN PREPARATION FOR DAS.
002592: 00,3446           30131                           CA       BUF        +1
002593: 00,3447           20155                           DAS      MPAC                                  #  X2 = X1/2 + (MPAC/2)X1
002594:
002595: 00,3450           00006                           EXTEND                                         #  OVERFLOWS IF ARG. NEAR POSMAX.
002596: 00,3451           13455                           BZF      TCQBNK00
002597: 00,3452           34733                           CAF      POSMAX
002598: 00,3453           54154        FIXROOT            TS       MPAC
002599: 00,3454           54155                           TS       MPAC       +1
002600: 00,3455           00002        TCQBNK00           TC       Q                                     #  RETURN TO CALLER TO UNNORMALIZE, ETC.
002601:


002603: 00,3456           64737        SRTEST             AD       QUARTER                               #  ARGUMENT WAS LESS THAN .5, SEE IF LESS
002604: 00,3457           00006                           EXTEND                                         #  THAN .25.
002605: 00,3460           63502                           BZMF     SQRTNORM                              #  IF SO, BEGIN NORMALIZATION.
002606:
002607: 00,3461           52155                           DXCH     MPAC                                  #  IF BETWEEN .5 AND .25, SHIFT RIGHT 1 AND
002608: 00,3462           22021                           LXCH     SR                                    #  START AT ARGLO.
002609: 00,3463           00006                           EXTEND
002610: 00,3464           74736                           MP       HALF
002611: 00,3465           52155                           DXCH     MPAC
002612: 00,3466           56021                           XCH      SR
002613: 00,3467           26155                           ADS      MPAC       +1                         #  NO OVERFLOW.
002614:
002615: 00,3470           33007        ARGLO              CAF      SLOPELO                               #  (NORMALIZED) ARGUMENT BETWEEN .125 AND
002616: 00,3471           00006                           EXTEND                                         #  .25
002617: 00,3472           70154                           MP       MPAC
002618: 00,3473           62270                           AD       BIASLO
002619: 00,3474           13423                           TCF      ARGHI      +4                         #  BEGIN SQUARE ROOT.
002620:
002621: 00,3475           00006        SQRTNM2            EXTEND                                         #  SHIFT LEFT 2 AND INCREMENT RIGHT SHIFT
002622: 00,3476           30156                           DCA      MPAC       +1                         #  COUNT (FOR TERMINAL UNNORMALIZATION).
002623: 00,3477           20156                           DAS      MPAC       +1
002624: 00,3500           60154                           AD       MPAC
002625: 00,3501           26154                           ADS      MPAC                                  #  (NO OVERFLOW).
002626:
002627: 00,3502           24135        SQRTNORM           INCR     MPTEMP                                #  FIRST TIME THROUGH, JUST SHIFT LEFT 1
002628: 00,3503           00006                           EXTEND                                         #  (PUTS IN EFFECTIVE RIGHT SHIFT SINCE
002629: 00,3504           30156                           DCA      MPAC       +1                         #  WE WANT MPAC/2).
002630: 00,3505           20156                           DAS      MPAC       +1
002631: 00,3506           60154                           AD       MPAC
002632: 00,3507           26154                           ADS      MPAC                                  #  (AGAIN NO OVERFLOW).
002633: 00,3510           60000                           DOUBLE
002634: 00,3511           54022                           TS       CYL
002635:
002636: 00,3512           10022        NORMTEST           CCS      CYL                                   #  SEE IF ARGUMENT NOW NORMALIZED AT
002637: 00,3513           10022                           CCS      CYL                                   #  GREATER THAN .125.
002638: 00,3514           13475                           TCF      SQRTNM2                               #  NO - SHIFT LEFT 2 MORE AND TRY AGAIN.
002639: 00,3515           13417                           TCF      ARGHI                                 #  YES - NOW BETWEEN .5 AND .25.
002640: 00,3516           13470                           TCF      ARGLO                                 #  ARGUMENT NOW BETWEEN .25 AND .125.
002641:


002643:                                                                                                  #  TRIGONOMETRIC FUNCTION PACKAGE.
002644:
002645:                                                                                                  #           THE FOLLOWING TRIGONOMETRIC FUNCTIONS ARE AVAILABLE AS INTERPRETIVE OPERATIONS:
002646:
002647:                                                                                                  #           1.  SIN                COMPUTES (1/2)SINE(2 PI MPAC).
002648:                                                                                                  #           2.  COS                COMPUTES (1/2)COSINE(2 PI MPAC).
002649:
002650:                                                                                                  #           3.  ASIN               COMPUTES (1/2PI)ARCSINE(2 MPAC).
002651:                                                                                                  #           4.  ACOS               COMPUTES (1/2PI)ARCCOSINE(2 MPAC).
002652:
002653:                                                                                                  #  SIN-ASIN AND COS-ACOS ARE MUTUALLY INVERSE, IE SIN(ASIN(X)) = X.
002654:
002655:
002656: 00,3517           06722        COSINE             TC       BRANCH                                #  FINDS COSINE USING THE IDENTITY
002657: 00,3520           13523                           TCF      +3                                    #  COS(X) = SIN(PI/2 - ABS(X)).
002658: 00,3521           13526                           TCF      PRESINE
002659: 00,3522           13526                           TCF      PRESINE
002660:
002661: 00,3523           00006                 +3        EXTEND
002662: 00,3524           40155                           DCS      MPAC
002663: 00,3525           52155                           DXCH     MPAC
002664:
002665: 00,3526           34737        PRESINE            CAF      QUARTER                               #  PI/2 SCALED.
002666: 00,3527           26154                           ADS      MPAC
002667:
002668:
002669: 00,3530           52155        SINE               DXCH     MPAC                                  #  DOUBLE ARGUMENT.
002670: 00,3531           20001                           DDOUBL
002671: 00,3532           54000                           OVSK                                           #  SEE IF OVERFLOW PRESENT.
002672: 00,3533           13536                           TCF      +3                                    #  IF NOT, ARGUMENT OK AS IS.
002673:
002674: 00,3534           00006                           EXTEND                                         #  IF SO, WE LOST (OR GAINED) PI, SO
002675: 00,3535           40001                           DCOM                                           #  COMPLEMENT MPAC USING THE IDENTITY
002676:                                                                                                  #  SIN(X-(+)PI) = SIN(-X).
002677: 00,3536           52155                 +3        DXCH     MPAC
002678: 00,3537           30154                           CA       MPAC                                  #  SEE IF ARGUMENT GREATER THAN .5 IN
002679: 00,3540           60000                           DOUBLE                                         #  MAGNITUDE. IF SO, REDUCE IT TO LESS THAN
002680: 00,3541           54001                           TS       L                                     #  .5 (+-PI/2 SCALED) AS FOLLOWS:
002681: 00,3542           13553                           TCF      SN1
002682:
002683: 00,3543           50000                           INDEX    A                                     #  IF POSITIVE, FORM PI - X, IF NEGATIVE
002684: 00,3544           34735                           CAF      NEG1/2     +1                         #  USE -PI - X.
002685: 00,3545           60000                           DOUBLE
002686: 00,3546           00006                           EXTEND
002687: 00,3547           60154                           SU       MPAC                                  #  GUARANTEED NO OVERFLOW.
002688: 00,3550           54154                           TS       MPAC
002689: 00,3551           40155                           CS       MPAC       +1
002690: 00,3552           54155                           TS       MPAC       +1
002691:


002693: 00,3553           00006        SN1                EXTEND                                         #  SET UP TO EVALUATE HASTINGS POLYNOMIAL
002694: 00,3554           30155                           DCA      MPAC
002695: 00,3555           52134                           DXCH     BUF2
002696: 00,3556           03300                           TC       DSQSUB                                #  SQUARE MPAC.
002697:
002698: 00,3557           07221                           TC       POLY                                  #  EVALUATE FOURTH ORDER POLYNOMIAL.
002699: 00,3560           00003                           DEC      3          B-14
002700: 00,3561           14441 37325                     2DEC     +.3926990796
002701:
002702: 00,3563           53250 60764                     2DEC     -.6459637111
002703:
002704: 00,3565           12146 21276                     2DEC     +.318758717
002705:
002706: 00,3567           75466 71471                     2DEC     -.074780249
002707:
002708: 00,3571           00236 32757                     2DEC     +.009694988
002709:
002710: 00,3573           32470                           CAF      LBUF2                                 #  MULTIPLY BY ARGUMENT AND SHIFT LEFT 2.
002711: 00,3574           07105                           TC       DMPSUB     -1
002712:
002713: 00,3575           00006                           EXTEND
002714: 00,3576           30156                           DCA      MPAC       +1
002715: 00,3577           20156                           DAS      MPAC       +1
002716: 00,3600           60154                           AD       MPAC
002717: 00,3601           26154                           ADS      MPAC                                  #  NEITHER SHIFT OVERFLOWS.
002718: 00,3602           00006                           EXTEND
002719: 00,3603           30156                           DCA      MPAC       +1
002720: 00,3604           20156                           DAS      MPAC       +1
002721: 00,3605           60154                           AD       MPAC
002722: 00,3606           26154                           ADS      MPAC
002723: 00,3607           16060                           TCF      DANZIG
002724:


002726:                                                                                                  #           ARCSIN/ARCCOS ROUTINE.
002727:
002728: 00,3610           33631        ARCSIN             CAF      LASINEX                               #  COMPUTE ARCSIN BY USING THE IDENTITY
002729: 00,3611           13613                           TCF      +2                                    #  ARCSIN(X) = PI/2 - ARCCOS(X).
002730:
002731: 00,3612           33713        ARCCOS             CAF      LDANZIG                               #  (EXITS IMMEDIATELY).
002732: 00,3613           54136                           TS       ESCAPE
002733: 00,3614           06722                           TC       BRANCH                                #  TEST SIGN OF INPUT.
002734: 00,3615           13625                           TCF      ACOSST                                #  START IMMEDIATELY IF POSITIVE.
002735: 00,3616           13731                           TCF      ACOSZERO                              #  ARCCOS(0) = PI/2 = .25.
002736: 00,3617           00006                           EXTEND                                         #  IF NEGATIVE, USE THE IDENTITY
002737: 00,3620           40155                           DCS      MPAC                                  #  ARCCOS(X) = PI - ARCCOS(-X), FORCING
002738: 00,3621           52155                           DXCH     MPAC                                  #  ARGUMENT POSITIVE.
002739: 00,3622           33734                           CAF      TCSUBTR                               #  SET EXIT  TO DO ABOVE BEFORE
002740: 00,3623           56136                           XCH      ESCAPE                                #  ARCSIN/ARCCOS CONSIDERATIONS.
002741: 00,3624           54137                           TS       ESCAPE2
002742:
002743: 00,3625           44736        ACOSST             CS       HALF                                  #  TEST MAGNITUDE OF INPUT.
002744: 00,3626           60154                           AD       MPAC
002745: 00,3627           10000                           CCS      A
002746: 00,3630           13721                           TCF      ACOSOVF                               #  THIS IS PROBABLY AN OVERFLOW CASE.
002747:
002748: 00,3631           13707        LASINEX            TCF      ASINEX
002749:
002750: 00,3632           13642                           TCF      ACOSST2                               #  NO OVERFLOW - PROCEED.
002751:
002752: 00,3633           10155                           CCS      MPAC       +1                         #  IF MAJOR PART IS .5, CALL ANSWER 0
002753: 00,3634           34755                           CAF      ZERO                                  #  UNLESS MINOR PART NEGATIVE.
002754: 00,3635           13637                           TCF      ACOS=0
002755:
002756: 00,3636           13642                           TCF      ACOSST2
002757:
002758: 00,3637           54155        ACOS=0             TS       MPAC       +1
002759: 00,3640           54154                           TS       MPAC
002760: 00,3641           00136                           TC       ESCAPE
002761:
002762: 00,3642           00006        ACOSST2            EXTEND                                         #  NOW THAT ARGUMENT IS IN PROPER RANGE,
002763: 00,3643           40155                           DCS      MPAC                                  #  BEGIN COMPUTATION. USE HASTINGS
002764: 00,3644           64736                           AD       HALF                                  #  APPROXIMATION ARCCOS(X) = SQRT(1-X)P(X)
002765: 00,3645           52155                           DXCH     MPAC                                  #  IN A SCALED VERSION WHERE P(X) IS A
002766: 00,3646           52134                           DXCH     BUF2                                  #  SEVENTH ORDER POLYNOMIAL.
002767:
002768: 00,3647           03343                           TC       SQRTSUB                               #  RETURNS WITH NORMALIZED SQUARE ROOT.
002769:
002770: 00,3650           10135                           CCS      MPTEMP                                #  SEE IF UN-NORMALIZATION REQUIRED.
002771: 00,3651           13714                           TCF      ACOSSHR                               #  IF SO.
002772:


002774: 00,3652           52155        ACOS3              DXCH     MPAC                                  #  SET UP FOR POLYNOMIAL EVALUATION.
002775: 00,3653           52134                           DXCH     BUF2
002776: 00,3654           52155                           DXCH     MPAC
002777:
002778: 00,3655           07221                           TC       POLY
002779: 00,3656           00006                           DEC      6          B-14
002780: 00,3657           13240 23630                     2DEC     +.353553385                            #  COEFFICIENTS ARE C 2(+I)/PISQRT(2) WHERE
002781:
002782: 00,3661           74721 47775                     2DEC*    -.0483017006 B+1*                       #                  I
002783:
002784: 00,3663           02440 20237                     2DEC*    +.0200273085 B+2*                       #     WHERE C STANDS FOR ORIGINAL COEFFS.
002785:
002786: 00,3665           75067 70742                     2DEC*    -.0112931863 B+3*
002787:
002788: 00,3667           03436 26756                     2DEC*    +.00695311612 B+4*
002789:
002790: 00,3671           74037 57640                     2DEC*    -.00384617957 B+5*
002791:
002792: 00,3673           03046 07143                     2DEC*    +.001501297736 B+6*
002793:
002794: 00,3675           76654 42244                     2DEC*    -.000284160334 B+7*
002795:
002796:
002797: 00,3677           32470                           CAF      LBUF2                                 #  DO FINAL MULTIPLY AND GO TO ANY
002798: 00,3700           07105                           TC       DMPSUB     -1                         #  EPILOGUE SEQUENCES.
002799: 00,3701           00136                           TC       ESCAPE
002800:
002801: 00,3702           00006        SUBTR              EXTEND                                         #  EPILOGUE FOR NEGATIVE INPUTS TO ARCCOS.
002802: 00,3703           40155                           DCS      MPAC
002803: 00,3704           64736                           AD       HALF                                  #  FORMS PI - ARCCOS(-X) = ARCCOS(X).
002804: 00,3705           52155                           DXCH     MPAC
002805: 00,3706           00137                           TC       ESCAPE2                               #  GO TO POSSIBLE ARCSIN EPILOGUE.
002806:
002807: 00,3707           00006        ASINEX             EXTEND
002808: 00,3710           40155                           DCS      MPAC                                  #  ARCSIN EPILOGUE - GET ARCSIN(X)
002809: 00,3711           64737                           AD       QUARTER                               #  = PI/2 - ARCCOS(X).
002810: 00,3712           52155                           DXCH     MPAC
002811: 00,3713           16060        LDANZIG            TCF      DANZIG
002812:


002814: 00,3714           50000        ACOSSHR            INDEX    A                                     #  THE SHIFT RIGHT IS LESS THAN 14 SINCE
002815: 00,3715           34736                           CAF      BIT14                                 #  THE INPUT WAS NON-ZERO DP.
002816: 00,3716           54135                           TS       MPTEMP
002817: 00,3717           02073                           TC       VSHRRND                               #  DP SHIFT RIGHT AND ROUND.
002818: 00,3720           13652                           TCF      ACOS3                                 #  PROCEED.
002819:
002820: 00,3721           00006        ACOSOVF            EXTEND                                         #  IF MAJOR PART WAS ONLY 1 MORE THAN .5,
002821: 00,3722           13637                           BZF      ACOS=0                                #  CALL ANSWER ZERO.
002822:
002823: 00,3723           00006        ACOSABRT           EXTEND                                         #  IF OVERFLOW, CALL ANSWER ZERO BUT
002824: 00,3724           30165                           DCA      LOC                                   #  SOUND AN ALARM.
002825: 00,3725           05724                           TC       ALARM1
002826: 00,3726           01301                           OCT      1301
002827:
002828: 00,3727           34755                           CAF      ZERO
002829: 00,3730           13637                           TCF      ACOS=0
002830:
002831: 00,3731           34737        ACOSZERO           CAF      QUARTER                               #  ACOS(0) = PI/2.
002832: 00,3732           13640                           TCF      ACOS=0     +1                         #  SET MPAC AND EXIT VIA ESCAPE.
002833:
002834: 00,3733           77763        NEG12              DEC      -12        B-14
002835: 00,3734           13702        TCSUBTR            TCF      SUBTR
002836:


002838:                                                                                                  #           THE FOLLOWING INSTRUCTIONS ARE AVAILABLE FOR SETTING, MODIFYING, AND BRANCHING ON INDEX REGISTERS:
002839:
002840:                                                                                                  #           1.  AXT                ADDRESS TO INDEX TRUE.
002841:                                                                                                  #           1.  AXC                ADDRESS TO INDEX COMPLEMENTED.
002842:                                                                                                  #           3.  LXA                LOAD INDEX FROM ERASABLE.
002843:                                                                                                  #           4.  LXC                LOAD INDEX COMPLEMENTED FROM ERASABLE.
002844:                                                                                                  #           5.  SXA                STORE INDEX IN ERASABLE.
002845:                                                                                                  #           6.  XCHX               EXCHANGE INDEX REIGSTER WITH ERASABLE.
002846:
002847:                                                                                                  #           7.  INCR               INCREMENT INDEX REGISTER.
002848:                                                                                                  #           8.  XAD                ERASABLE ADD TO INDEX REGISTER.
002849:                                                                                                  #           9.  XSU                ERASABLE SUBTRACT FROM INDEX REGISTER.
002850:
002851:                                                                                                  #          10.  TIX                BRANCH ON INDEX REGISTER AND DECREMENT.
002852:
002853: 01,2341                                           BANK     01
002854:
002855: 01,2341                                           COUNT*   $$/INTER
002856: 01,2341           02436        AXT                TC       TAGSUB                                #  SELECT APPROPRIATE INDEX REGISTER.
002857: 01,2342           30117                           CA       POLISH
002858: 01,2343           50130        XSTORE             INDEX    INDEXLOC                              #  CONTAINS C(FIXLOC) OR C(FIXLOC)+1.
002859: 01,2344           54046                           TS       X1
002860: 01,2345           16060                           TCF      DANZIG
002861:
002862: 01,2346           02436        AXC                TC       TAGSUB
002863: 01,2347           40117                           CS       POLISH
002864: 01,2350           02343                           TC       XSTORE
002865:
002866: 01,2351           02424        LXA                TC       15ADRERS                              #  LOAD INDEX REGISTER FROM ERASABLE.
002867: 01,2352           50117                           INDEX    POLISH
002868: 01,2353           30000                           CA       0
002869: 01,2354           12343                           TCF      XSTORE
002870:
002871: 01,2355           02424        LXC                TC       15ADRERS                              #  LOAD NDX REG FROM ERASABLE COMPLEMENTED.
002872: 01,2356           50117                           INDEX    POLISH
002873: 01,2357           40000                           CS       0
002874: 01,2360           12343                           TCF      XSTORE
002875:
002876: 01,2361           02424        SXA                TC       15ADRERS                              #  STORE INDEX REGISTER IN ERASABLE.
002877: 01,2362           50130                           INDEX    INDEXLOC
002878: 01,2363           30046                           CA       X1
002879: 01,2364           50117        MSTORE1            INDEX    POLISH
002880: 01,2365           54000                           TS       0
002881: 01,2366           16060                           TCF      DANZIG
002882:


002884: 01,2367           02424        XCHX               TC       15ADRERS                              #  EXCHANGE INDEX REGISTER WITH ERASABLE.
002885: 01,2370           50117                           INDEX    POLISH
002886: 01,2371           30000                           CA       0
002887: 01,2372           50130                           INDEX    INDEXLOC
002888: 01,2373           56046                           XCH      X1
002889: 01,2374           12364                           TCF      MSTORE1
002890:
002891: 01,2375           02424        XAD                TC       15ADRERS                              #  ADD ERASABLE TO INDEX REGISTER.
002892: 01,2376           50117                           INDEX    POLISH
002893: 01,2377           30000                           CA       0
002894: 01,2400           50130        XAD2               INDEX    INDEXLOC
002895: 01,2401           26046                           ADS      X1                                    #  IGNORING OVERFLOWS.
002896: 01,2402           16060                           TCF      DANZIG
002897:
002898: 01,2403           02436        INCR               TC       TAGSUB                                #  INCREMENT INDEX REGISTER.
002899: 01,2404           30117                           CA       POLISH
002900: 01,2405           12400                           TCF      XAD2
002901:
002902: 01,2406           02424        XSU                TC       15ADRERS                              #  SUBTRACT ERASABLE FROM INDEX REGISTER.
002903: 01,2407           50117                           INDEX    POLISH
002904: 01,2410           40000                           CS       0
002905: 01,2411           12400                           TCF      XAD2
002906:
002907: 01,2412           02436        TIX                TC       TAGSUB                                #  BRANCH AND DECREMENT ON INDEX.
002908: 01,2413           50130                           INDEX    INDEXLOC
002909: 01,2414           40050                           CS       S1
002910: 01,2415           50130                           INDEX    INDEXLOC
002911: 01,2416           60046                           AD       X1
002912: 01,2417           00006                           EXTEND                                         #  NO OPERATION IF DECREMENTED INDEX IS
002913: 01,2420           66060                           BZMF     DANZIG                                #  NEGATIVE OR ZERO.
002914:
002915: 01,2421           50130        DOTIXBR            INDEX    INDEXLOC
002916: 01,2422           56046                           XCH      X1                                    #  IGNORING OVERFLOWS.
002917:
002918: 01,2423           16645                           TCF      GOTO                                  #  DO THE BRANCH USING THE CADR IN POLISH.
002919:


002921:                                                                                                  #           SUBROUTINE TO CONVERT AN ERASABLE ADDRESS (11 BITS) TO AN EBANK SETTING AND SUBADDRESS.
002922:
002923: 01,2424           40117        15ADRERS           CS       POLISH
002924: 01,2425           64772                           AD       DEC45
002925: 01,2426           10000                           CCS      A                                     #  DOES THE ADDRESS POINT TO THE WORK AREA?
002926: 01,2427           30120                           CA       FIXLOC                                #  YES.  ADD FIXLOC.  EBANK OK AS IS.
002927: 01,2430           12435                           TCF      +5
002928:
002929: 01,2431           35007                           CA       OCT1400                               #  NO.  SET EBANK & MAKE UP SUBADDRESS.
002930: 01,2432           56117                           XCH      POLISH
002931: 01,2433           54003                           TS       EBANK
002932: 01,2434           74357                           MASK     LOW8
002933: 01,2435           26117                 +5        ADS      POLISH                                #  FALL INTO TAGSUB, AND RETURN VIA Q.
002934:
002935:                                                                                                  #           SUBROUTINE WHICH SETS THE ADDRESS OF THE SPECIFIED INDEX IN INDEXLOC. (ACTUALLY, THE ADDRESS -38D.)
002936:
002937: 01,2436           30120        TAGSUB             CA       FIXLOC
002938: 01,2437           54130                           TS       INDEXLOC
002939:
002940: 01,2440           10020                           CCS      CYR                                   #  BIT 15 SPECIFIES INDEX.
002941: 01,2441           24130                           INCR     INDEXLOC                              #  0 MEANS USE X2.
002942: 01,2442           00002                           TC       Q
002943: 01,2443           00002                           TC       Q                                     #  1 FOR X1.
002944:


002946:                                                                                                  #           MISCELLANEOUS OPERATION CODES WITH DIRECT ADDRESSES. INCLUDED HERE ARE:
002947:
002948:                                                                                                  #           1.  ITA                STORE QPRET (RETURN ADDRESS) IN ERASABLE.
002949:                                                                                                  #           2.  CALL               CALL A SUBROUTINE, LEAVING RETURN IN QPRET.
002950:                                                                                                  #           3.  RTB                RETURN TO BASIC LANGUAGE AT THE GIVEN ADDRESS.
002951:                                                                                                  #           4.  BHIZ               BRANCH IF THE HIGH ORDER OF MPAC IS ZERO (SINGLE PRECISION).
002952:                                                                                                  #           5.  BOV                BRANCH ON OVERFLOW.
002953:                                                                                                  #           6.  GOTO               SIMPLE SEQUENCE CHANGE.
002954:
002955: 01,2444           10020        RTB/BHIZ           CCS      CYR
002956: 01,2445           30117        RTB                CA       POLISH
002957: 01,2446           04621                           TC       SWCALL     -1                         #  SO A "TC Q" FROM ROUTINE LEADS TO DANZIG
002958:
002959: 01,2447           10154        BHIZ               CCS      MPAC
002960: 01,2450           16060                           TCF      DANZIG
002961: 01,2451           16645                           TCF      GOTO
002962: 01,2452           16060                           TCF      DANZIG
002963: 01,2453           16645                           TCF      GOTO
002964:
002965: 01,2454           10121        BOV(B)             CCS      OVFIND                                #  BRANCH ON OVERFLOW TO BASIC OR INTERP.
002966: 01,2455           12457                           TCF      +2
002967: 01,2456           16060                           TCF      DANZIG
002968: 01,2457           54121                           TS       OVFIND
002969: 01,2460           10020                           CCS      CYR
002970: 01,2461           12445                           TCF      RTB                                   #  IF BASIC.
002971: 01,2462           00360        B5TOB8             OCT      360
002972: 01,2463           16645                           TCF      GOTO
002973:


002975: 01,2464           10020        BZE/GOTO           CCS      CYR                                   #  SEE WHICH OP-CODE IS DESIRED.
002976: 01,2465           06722                           TC       BRANCH                                #  DO BZE.
002977: 01,2466           16060                           TCF      DANZIG
002978: 01,2467           16645                           TCF      GOTO                                  #  DO GOTO.
002979: 01,2470           16060                           TCF      DANZIG
002980:
002981: 01,2471           10020        BPL/BMN            CCS      CYR
002982: 01,2472           12500                           TCF      BPL
002983: 01,2473           12000        5B10               DEC      5          B+10                       #  SHIFTS OP CODE IN SWITCH INSTRUCTION ADR
002984:
002985: 01,2474           06722                           TC       BRANCH                                #  DO BMN.
002986: 01,2475           16060                           TCF      DANZIG
002987: 01,2476           16060                           TCF      DANZIG
002988: 01,2477           16645                           TCF      GOTO                                  #  ONLY IF NNZ.
002989:
002990: 01,2500           06722        BPL                TC       BRANCH
002991: 01,2501           16645                           TCF      GOTO                                  #  IF POSITIVE OR ZERO.
002992: 01,2502           16645                           TCF      GOTO
002993: 01,2503           16060                           TCF      DANZIG
002994:
002995: 01,2504           10020        CALL/ITA           CCS      CYR
002996: 01,2505           16637                           TCF      CALL
002997:
002998: 01,2506           05677                           TC       CCSHOLE
002999: 01,2507           02424                           TC       15ADRERS                              #  STORE QPRET. (TAGSUB AFTER 15ADRERS IS
003000: 01,2510           50120                           INDEX    FIXLOC                                #  SLOW IN THIS CASE, BUT SAVES STORAGE.)
003001: 01,2511           30052                           CA       QPRET
003002: 01,2512           12364                           TCF      MSTORE1
003003:


003005:                                                                                                  #           THE FOLLOWING OPERATIONS ARE AVAILABLE FOR ALTERING AND TESTING INTERPRETIVE SWITCHES:
003006:
003007:                                                                                                  #  00       BONSET                 SET A SWITCH AND DO A GOTO IF IT WAS ON.
003008:                                                                                                  #  01       SETGO                  SET A SWITCH AND DO A GOTO.
003009:                                                                                                  #  02       BOFSET                 SET A SWITCH AND DOA GOTO IF IT WAS OFF
003010:                                                                                                  #  03       SET                    SET A SWITCH.
003011:
003012:                                                                                                  #  04       BONINV                 INVERT A SWITCH AND BRANCH IF IT WAS ON.
003013:                                                                                                  #  05       INVGO                  INVERT A SWITCH AND DO A GOTO.
003014:                                                                                                  #  06       BOFINV                 INVERT A SWITCH AND BRANCH IF IT WAS OFF
003015:                                                                                                  #  07       INVERT                 INVERT A SWITCH.
003016:
003017:                                                                                                  #  10       BONCLR                 CLEAR A SWITCH AND BRANCH IF IT WAS ON.
003018:                                                                                                  #  11       CLRGO                  CLEAR A SWITCH AND DO A GOTO.
003019:                                                                                                  #  12       BOFCLR                 CLEAR A SWITCH AND BRANCH IF IT WAS OFF.
003020:                                                                                                  #  13       CLEAR                  CLEAR A SWITCH.
003021:
003022:                                                                                                  #  14       BON                    BRANCH IF A SWITCH WAS ON.
003023:                                                                                                  #  16       BOFF                   BRANCH IF A SWITCH WAS OFF.
003024:
003025:
003026:                                                                                                  #           THE ADDRESS SUPPLIED WITH THE SWITCH INSTRUCTION IS INTERPRETED AS FOLLOWS:
003027:
003028:                                                                                                  #           BITS 1-4    SWITCH BIT NUMBER (1-15).
003029:                                                                                                  #           BITS 5-8    SWITCH OPERATION NUMBER.
003030:                                                                                                  #           BITS 9-     SWITCH WORD NUMBER (UP TO 64 SWITCH WORDS).
003031:
003032:                                                                                                  #           THE ADDRESS ITSELF IS MADE UP BY THE YUL SYSTEM ASSEMBLER. THE BRANCH INSTRUCTIONS REQUIRE TWO
003033:                                                                                                  #  ADDRESSES, THE SECOND TAKEN AS THE DIRECT (OR INDIRECT IF IN ERASABLE) ADDRESS OF THE BRANCH.
003034:
003035:
003036: 01,2513           34762        SWITCHES           CAF      LOW4                                  #  LEAVE THE SWITCH BIT IN  SWBIT  .
003037: 01,2514           70117                           MASK     POLISH
003038: 01,2515           50000                           INDEX    A
003039: 01,2516           34735                           CAF      BIT15                                 #  (NUMBER FROM LEFT TO RIGHT.)
003040: 01,2517           54131                           TS       SWBIT
003041:
003042: 01,2520           34745                           CAF      BIT7                                  #  LEAVE THE SWITCH NUMBER IN SWWORD.
003043: 01,2521           00006                           EXTEND
003044: 01,2522           70117                           MP       POLISH
003045: 01,2523           54130                           TS       SWWORD
003046:
003047: 01,2524           00004                           INHINT                                         #  DURING SWITCH CHANGE SO RUPT CAN USE TOO
003048: 01,2525           50000                           INDEX    A                                     #  LEAVE THE SWITCH WORD ITSELF IN L.
003049: 01,2526           30074                           CA       STATE
003050: 01,2527           54002                           TS       Q                                     #  Q WILL BE USED AS A CHANNEL.


003052: 01,2530           34741                           CAF      BIT11
003053: 01,2531           00006                           EXTEND                                         #  DISPATCH SWITCH BIT OPERATION AS IN BITS
003054: 01,2532           70117                           MP       POLISH                                #  7-8 OF POLISH.
003055: 01,2533           72573                           MASK     B3TOB4                                #  GETS 4X2-BIT CODE.
003056: 01,2534           50000                           INDEX    A
003057: 01,2535           12536                           TCF      +1
003058:
003059: 01,2536           30131                 +1        CA       SWBIT                                 #  00 - SET SWITCH IN QUESTION.
003060: 01,2537           00006                           EXTEND
003061: 01,2540           04002                           ROR      QCHAN
003062: 01,2541           12550                           TCF      SWSTORE
003063:
003064: 01,2542           30131                 +5        CA       SWBIT                                 #  01 - INVERT SWITCH.
003065: 01,2543           00006                           EXTEND
003066: 01,2544           06002                           RXOR     QCHAN
003067: 01,2545           12550                           TCF      SWSTORE
003068:
003069: 01,2546           40131                 +9D       CS       SWBIT                                 #  10 - CLEAR.
003070: 01,2547           70002                           MASK     Q
003071: 01,2550           50130        SWSTORE            INDEX    SWWORD
003072: 01,2551           54074                           TS       STATE                                 #  NEW SWITCH WORD.
003073:


003075: 01,2552           00003                 +13D      RELINT                                         #  11 - NOOP.
003076: 01,2553           34737                           CAF      BIT13
003077: 01,2554           00006                           EXTEND                                         #  DISPATCH SEQUCE CHANGING OR BRANCHING
003078: 01,2555           70117                           MP       POLISH                                #  CODE.
003079: 01,2556           72573                           MASK     B3TOB4
003080: 01,2557           50000                           INDEX    A
003081: 01,2560           12561                           TCF      +1                                    #  ORIGINALLY STORED IN BITS 5-6.
003082:
003083: 01,2561           40002                 +1        CS       Q                                     #  00 - BRANCH IF ON.
003084: 01,2562           70131        TEST               MASK     SWBIT
003085: 01,2563           10000                           CCS      A
003086: 01,2564           12574                           TCF      SWSKIP
003087:
003088: 01,2565           16714                 +5        TCF      SWBRANCH                              #  01 - GO TO.
003089:
003090: 01,2566           12574                           TCF      SWSKIP                                #  HERE ONLY ON BIT 15.
003091:
003092: 01,2567           05677                           TC       CCSHOLE
003093: 01,2570           05677                           TC       CCSHOLE
003094:
003095: 01,2571           30002                 +9D       CA       Q                                     #  10 - BRANCH IF OFF.
003096: 01,2572           12562                           TCF      TEST
003097:
003098: 01,2573           00014        B3TOB4             OCT      0014
003099: 01,2574           24164        SWSKIP             INCR     LOC
003100:
003101: 01,2575  01,2513               SW/                EQUALS   SWITCHES
003102:
003103: 01,2575           16060                 +13D      TCF      DANZIG                                #  11 - NOOP.

End of include-file INTERPRETER.agc.  Parent file is MAIN.agc


