
Source Code


000002:                                                                                                  ## Copyright:   Public domain.
000003:                                                                                                  ## Filename:    KALMAN_FILTER.agc
000004:                                                                                                  ## Purpose:     A section of LUM69 revision 2.
000005:                                                                                                  ##              It is part of the reconstructed source code for the flown
000006:                                                                                                  ##              version of the flight software for the Lunar Module's (LM)
000007:                                                                                                  ##              Apollo Guidance Computer (AGC) for Apollo 10. The code has
000008:                                                                                                  ##              been recreated from a copy of Luminary revsion 069, using
000009:                                                                                                  ##              changes present in Luminary 099 which were described in
000010:                                                                                                  ##              Luminary memos 75 and 78. The code has been adapted such
000011:                                                                                                  ##              that the resulting bugger words exactly match those specified
000012:                                                                                                  ##              for LUM69 revision 2 in NASA drawing 2021152B, which gives
000013:                                                                                                  ##              relatively high confidence that the reconstruction is correct.
000014:                                                                                                  ## Reference:   pp. 1465-1466
000015:                                                                                                  ## Assembler:   yaYUL
000016:                                                                                                  ## Contact:     Ron Burkey <info@sandroid.org>.
000017:                                                                                                  ## Website:     www.ibiblio.org/apollo/index.html
000018:                                                                                                  ## Mod history: 2019-07-27 MAS  Created from Luminary 69.
000019:


000021: 17,3700  E6,1522                                  EBANK=   NO.UJETS
000022: 16,3624                                           BANK     16
000023: 16,2000                                           SETLOC   DAPS1
000024: 16,2000                                           BANK
000025:
000026: 16,3624                                           COUNT*   $$/DAP
000027:
000028: 16,3624           34752        RATELOOP           CA       TWO
000029: 16,3625           55742                           TS       DAPTEMP6
000030: 16,3626           60000                           DOUBLE
000031: 16,3627           54002                           TS       Q
000032: 16,3630           51742                           INDEX    DAPTEMP6
000033: 16,3631           11524                           CCS      TJP
000034: 16,3632           13634                           TCF      +2
000035: 16,3633           13653                           TCF      LOOPRATE
000036: 16,3634           63714                           AD       -100MST6
000037: 16,3635           00006                           EXTEND
000038: 16,3636           63672                           BZMF     SMALLTJU
000039: 16,3637           51742                           INDEX    DAPTEMP6
000040: 16,3640           11524                           CCS      TJP
000041: 16,3641           33714                           CA       -100MST6
000042: 16,3642           13644                           TCF      +2
000043: 16,3643           43714                           CS       -100MST6
000044: 16,3644           51742                           INDEX    DAPTEMP6
000045: 16,3645           27524                           ADS      TJP
000046: 16,3646           51742                           INDEX    DAPTEMP6
000047: 16,3647           11524                           CCS      TJP
000048: 16,3650           43600                           CS       -100MS                                #  0.1 AT 1
000049: 16,3651           13653                           TCF      +2
000050: 16,3652           33600                           CA       -100MS
000051: 16,3653           00006        LOOPRATE           EXTEND
000052: 16,3654           51742                           INDEX    DAPTEMP6
000053: 16,3655           71521                           MP       NO.PJETS
000054: 16,3656           30001                           CA       L
000055: 16,3657           51742                           INDEX    DAPTEMP6
000056: 16,3660           55735                           TS       DAPTEMP1                              #  SIGNED TORQUE AT 1 JET-SEC FOR FILTER
000057: 16,3661           00006                           EXTEND
000058: 16,3662           74742                           MP       BIT10                                 #  RESCALE TO 32; ONE BIT ABOUT 2 JET-MSEC
000059: 16,3663           00006                           EXTEND
000060: 16,3664           63715                           BZMF     NEGTORK
000061: 16,3665           50002        STORTORK           INDEX    Q                                     #  INCREMENT DOWNLIST REGISTER.
000062: 16,3666           27513                           ADS      DOWNTORK                              #    NOTE: NOT INITIALIZED; OVERFLOWS.
000063:
000064: 16,3667           11742                           CCS      DAPTEMP6
000065: 16,3670           13625                           TCF      RATELOOP   +1
000066: 16,3671           13701                           TCF      ROTORQUE
000067: 16,3672           34755        SMALLTJU           CA       ZERO
000068: 16,3673           51742                           INDEX    DAPTEMP6
000069: 16,3674           57524                           XCH      TJP
000070: 16,3675           00006                           EXTEND


000072: 16,3676           74760                           MP       ELEVEN                                #  10.24 PLUS
000073: 16,3677           30001                           CA       L
000074: 16,3700           13653                           TCF      LOOPRATE
000075: 16,3701           31736        ROTORQUE           CA       DAPTEMP2
000076: 16,3702           61737                           AD       DAPTEMP3
000077: 16,3703           00006                           EXTEND
000078: 16,3704           71532                           MP       1JACCR
000079: 16,3705           55745                           TS       JETRATER
000080: 16,3706           41737                           CS       DAPTEMP3
000081: 16,3707           61736                           AD       DAPTEMP2
000082: 16,3710           00006                           EXTEND
000083: 16,3711           71531                           MP       1JACCQ
000084: 16,3712           55744                           TS       JETRATEQ
000085: 16,3713           12305                           TCF      BACKP
000086: 16,3714           77537        -100MST6           DEC      -160       B-14
000087:
000088: 16,3715           40000        NEGTORK            COM
000089: 16,3716           24002                           INCR     Q
000090: 16,3717           13665                           TCF      STORTORK
000091:
000092:

End of include-file KALMAN_FILTER.agc.  Parent file is MAIN.agc


