
Source Code


000002:                                                                                                  ## Copyright:   Public domain.
000003:                                                                                                  ## Filename:    LUNAR_AND_SOLAR_EPHEMERIDES_SUBROUTINES.agc
000004:                                                                                                  ## Purpose:     A section of LUM69 revision 2.
000005:                                                                                                  ##              It is part of the reconstructed source code for the flown
000006:                                                                                                  ##              version of the flight software for the Lunar Module's (LM)
000007:                                                                                                  ##              Apollo Guidance Computer (AGC) for Apollo 10. The code has
000008:                                                                                                  ##              been recreated from a copy of Luminary revsion 069, using
000009:                                                                                                  ##              changes present in Luminary 099 which were described in
000010:                                                                                                  ##              Luminary memos 75 and 78. The code has been adapted such
000011:                                                                                                  ##              that the resulting bugger words exactly match those specified
000012:                                                                                                  ##              for LUM69 revision 2 in NASA drawing 2021152B, which gives
000013:                                                                                                  ##              relatively high confidence that the reconstruction is correct.
000014:                                                                                                  ## Reference:   pp. 979-982
000015:                                                                                                  ## Assembler:   yaYUL
000016:                                                                                                  ## Contact:     Ron Burkey <info@sandroid.org>.
000017:                                                                                                  ## Website:     www.ibiblio.org/apollo/index.html
000018:                                                                                                  ## Mod history: 2019-07-27 MAS  Created from Luminary 69.
000019:


000021:                                                                                                  #  NAME - LSPOS  - LOCATE SUN AND MOON                   DATE - 25 OCT 67
000022:                                                                                                  #  MOD NO.1
000023:                                                                                                  #  MOD BY NEVILLE                                        ASSEMBLY SUNDANCE
000024:
000025:                                                                                                  #  FUNCTIONAL DESCRIPTION
000026:
000027:                                                                                                  #         COMPUTES UNIT POSITION VECTOR OF THE SUN AND MOON IN THE BASIC REFERENCE SYSTEM. THE SUN VECTOR S IS
000028:                                                                                                  #  LOCATED VIA TWO ANGLES. THE FIRST ANGLE(OBLIQUITY) IS THE ANGLE BETWEEN THE EARTH EQUATOR AND THE ECLIPTIC. THE
000029:                                                                                                  #  SECOND ANGLE IS THE LONGITUDE OF THE SUN MEASURED IN THE ECLIPTIC.
000030:                                                                                                  #  THE POSITION VECTOR OF THE SUN IS
000031:                                                                                                  #        -
000032:                                                                                                  #        S = (COS(LOS), COS(OBL)*SIN(LOS), SIN(OBL)*SIN(LOS)), WHERE
000033:
000034:                                                                                                  #        LOS = LOS +LOS *T-(C *SIN(2PI*T)/365.24 +C *COS(2PI*T)/365.24)
000035:                                                                                                  #                 0    R     0                     1
000036:                                                                                                  #        LOS  (RAD) IS THE LONGITUDE OF THE SUN FOR MIDNIGHT JUNE 30TH OF THE PARTICULAR YEAR.
000037:                                                                                                  #           0
000038:                                                                                                  #        LOS  (RAD/DAY) IS THE MEAN RATE FOR THE PARTICULAR YEAR.
000039:                                                                                                  #           R
000040:
000041:                                                                                                  #  LOS  AND LOS  ARE STORED AS LOSC AND LOSR IN RATESP.
000042:                                                                                                  #     0        R
000043:                                                                                                  #  COS(OBL) AND SIN(OBL) ARE STORED IN THE MATRIX KONMAT.
000044:                                                                                                  #  T, TIME MEASURED IN DAYS (24 HOURS), IS STORED IN TIMEP.
000045:                                                                                                  #  C  AND C  ARE FUDGE FACTORS TO MINIMIZE THE DEVIATION.  THEY ARE STORED AS ONE CONSTANT (CMOD), SINCE
000046:                                                                                                  #   0      1                               2  2 1/2
000047:                                                                                                  #  C *SIN(X)+C *COS(X) CAN BE WRITTEN AS (C +C )   *SIN(X+PHI), WHERE PHI=ARCTAN(C /C ).
000048:                                                                                                  #   0         1                            0  1                                   1  0
000049:
000050:                                                                                                  #  THE MOON IS LOCATED VIA FOUR ANGLES. THE FIRST IS THE OBLIQUITY. THE SECOND IS THE MEAN LONGITUDE OF THE MOON,
000051:                                                                                                  #  MEASURED IN THE ECLIPTIC FROM THE MEAN EQUINOX TO THE MEAN ASCENDING NODE OF THE LUNAR ORBIT, AND THEN ALONG THE
000052:                                                                                                  #  ORBIT.  THE THIRD ANGLE IS THE ANGLE BETWEEN THE ECLIPTIC AND THE LUNAR ORBIT.  THE FOURTH ANGLE IS THE LONGITUDE
000053:                                                                                                  #  OF THE NODE OF THE MOON, MEASURED IN THE LUNAR ORBIT.  LET THESE ANGLES BE OBL,LOM,IM, AND LON RESPECTIVELY.
000054:
000055:                                                                                                  #  THE SIMPLIFIED POSITION VECTOR OF THE MOON IS
000056:                                                                                                  #        -
000057:                                                                                                  #        M=(COS(LOM), COS(OBL)*SIN(LOM)-SIN(OBL)*SIN(IM)*SIN(LOM-LON), SIN(OBL)*SIN(LOM)+COS(OBL)*SIN(IM)*SIN(LOM-LON))
000058:
000059:                                                                                                  #  WHERE
000060:                                                                                                  #        LOM=LOM +LOM *T-(A *SIN 2PI*T/27.5545+A *COS(2PI*T/27.5545)+B *SIN 2PI*T/32+B *COS(2PI*T/32)), AND
000061:                                                                                                  #               0    R     0                    1                     0               1
000062:                                                                                                  #        LON=LON +LON
000063:                                                                                                  #               0    R
000064:                                                                                                  #  A , A , B  AND B  ARE STORED AS AMOD AND BMOD (SEE DESCRIPTION OF CMOD, ABOVE).  COS(OBL), SIN(OBL)*SIN(IM),
000065:                                                                                                  #   0   1   0      1
000066:                                                                                                  #  SIN(OBL), AND COS(OBL)*SIN(IM) ARE STORED IN KONMAT AS K1, K2, K3 AND K4, RESPECTIVELY.  LOM , LOM , LON , LON
000067:                                                                                                  #  ARE STORED AS LOMO, LOMR, LONO, AND LONR IN RATESP.                                         0     R     0     R
000068:                                                                                                  #  THE THREE PHIS ARE STORED AS AARG, BARG, AND CARG(SUN).  ALL CONSTANTS ARE UPDATED BY YEAR.
000069:
000070:                                                                                                  #  CALLING SEQUENCE


000072:                                                                                                  #        CALL LSPOS.  RETURN IS VIA CPRET.
000073:
000074:                                                                                                  #  ALARMS OR ABORTS
000075:                                                                                                  #        NONE
000076:
000077:                                                                                                  #  ERASABLE INITIALIZATION REQUIRED
000078:                                                                                                  #        TEPHEM - TIME FROM MIDNIGHT 1 JULY PRECEDING THE LAUNCH TO THE TIME OF THE LAUNCH (WHEN THE AGC CLOCK WENT
000079:                                                                                                  #        TO ZERO).  TEPHEM IS TP WITH UNITS OF CENTI-SECONDS.
000080:
000081:                                                                                                  #        TIME2 AND TIME1 ARE IN MPAC AND MPAC +1 WHEN PROGRAM IS CALLED.
000082:
000083:                                                                                                  #  OUTPUT
000084:                                                                                                  #        UNIT POSITIONAL VECTOR OF SUN IN VSUN.  (SCALED B-1)
000085:                                                                                                  #        UNIT POSITIONAL VECTOR OF MOON IN VMOON.  (SCALED B-1)
000086:
000087:                                                                                                  #  SUBROUTINES USED
000088:                                                                                                  #        NONE
000089:
000090:                                                                                                  #  DEBRIS
000091:                                                                                                  #        CURRENT CORE SET, WORK AREA AND FREEFLAG
000092:
000093: 04,2750                                           BANK     04
000094: 15,2000                                           SETLOC   EPHEM
000095: 15,2000                                           BANK
000096:
000097: 15,3663  E5,1714                                  EBANK=   VSUN
000098: 15,3663                                           COUNT*   $$/EPHEM
000099: 15,3663  15,3663               LUNPOS             EQUALS   LSPOS
000100:
000101: 15,3663           54201        LSPOS              SETPD    SR
000102: 15,3664           00001                                    0
000103: 15,3665           20617                                    14D                                   #  TP
000104: 15,3666           56371                           TAD      DDV


000106: 15,3667           01707                                    TEPHEM                                #  TIME OF LAUNCH
000107: 15,3670           12024                                    CSTODAY                               #  24 HOURS-8640000 CENTI-SECS/DAY B-33


000109: 15,3671           00031                           STORE    TIMEP                                 #  T IN DAYS


000111: 15,3672           77170                           AXT,1    AXT,2
000112: 15,3673           00000                                    0
000113: 15,3674           00000                                    0
000114: 15,3675           77614                           CLEAR
000115: 15,3676           00274                                    FREEFLAG                              #  SWITCH BIT
000116: 15,3677           77745        POSITA             DLOAD
000117: 15,3700           12004                                    KONMAT     +2                         #  ZEROS
000118: 15,3701           00027                           STORE    GTMP
000119: 15,3702           40745        POSITB             DLOAD    DMP*
000120: 15,3703           00031                                    TIMEP                                 #  T
000121: 15,3704           12050                                    VAL67      +4,1                       #  1/27 OR 1/32 OR 1/365


000123: 15,3705           42661                           SL       DAD*
000124: 15,3706           20211                                    8D
000125: 15,3707           12046                                    VAL67      +2,1                       #  AARG
000126: 15,3710           40756                           SIN      DMP*                                  #  SIN(T/27+PHI) OR T/32 OR T/365
000127: 15,3711           12044                                    VAL67,1                               #  (A0**2+A1**2)**1/2 SIN(X+PHIA)
000128: 15,3712           62015                           DAD      INCR,1                                #  PLUS
000129: 15,3713           00027                                    GTMP                                  #  (B0**2+B1**2)**1/2 SIN(X+PHIB)
000130: 15,3714           77771                           DEC      -6         B-14
000131: 15,3715           00027                           STORE    GTMP                                  #  OR (C0**2+C1**2)**1/2 SIN(X+PHIC)
000132: 15,3716           77614                           BOFSET
000133: 15,3717           00054                                    FREEFLAG
000134: 15,3720           33702                                    POSITB
000135: 15,3721           40745        POSITD             DLOAD    DMP*
000136: 15,3722           00031                                    TIMEP                                 #  T
000137: 15,3723           65747                                    RATESP,2                              #  LOMR,LOSR,LONR
000138: 15,3724           42661                           SL       DAD*
000139: 15,3725           20206                                    5D
000140: 15,3726           65741                                    RATESP     +6,2                       #  LOMO,LOSO,LONO
000141: 15,3727           77625                           DSU
000142: 15,3730           00027                                    GTMP
000143: 15,3731           10021                           STORE    STMP,2                                #  LOM,LOS,LON
000144: 15,3732           63135                           SLOAD    INCR,2
000145: 15,3733           00050                                    X2
000146: 15,3734           77775                           DEC      -2         B-14
000147: 15,3735           53015                           DAD      BZE
000148: 15,3736           12026                                    RCB-13                                #  PLUS 2
000149: 15,3737           33767                                    POSITE                                #  2ND
000150: 15,3740           77644                           BPL
000151: 15,3741           33677                                    POSITA                                #  1ST
000152: 15,3742           45345        POSITF             DLOAD    DSU                                   #  3RD
000153: 15,3743           00021                                    STMP                                  #  LOM
000154: 15,3744           00025                                    STMP       +4                         #  LON
000155: 15,3745           65356                           SIN      PDDL                                  #  SIN(LOM-LON)
000156: 15,3746           00021                                    STMP
000157: 15,3747           65356                           SIN      PDDL                                  #  SIN LOM
000158: 15,3750           00021                                    STMP
000159: 15,3751           55546                           COS      VDEF                                  #  COS LOM
000160: 15,3752           53521                           MXV      UNIT
000161: 15,3753           12002                                    KONMAT                                #  K1,K2,K3,K4,
000162: 15,3754           02723                           STORE    VMOON
000163: 15,3755           65345                           DLOAD    PDDL
000164: 15,3756           12004                                    KONMAT     +2                         #  ZERO
000165: 15,3757           00023                                    STMP       +2
000166: 15,3760           65356                           SIN      PDDL                                  #  SIN LOS
000167: 15,3761           00023                                    STMP       +2
000168: 15,3762           55546                           COS      VDEF                                  #  COS LOS
000169: 15,3763           53521                           MXV      UNIT
000170: 15,3764           12002                                    KONMAT
000171: 15,3765           02715                           STORE    VSUN
000172: 15,3766           77616                           RVQ


000174: 15,3767           77745        POSITE             DLOAD
000175: 15,3770           12004                                    KONMAT     +2                         #  ZEROS
000176: 15,3771           00027                           STORE    GTMP
000177: 15,3772           77650                           GOTO
000178: 15,3773           33721                                    POSITD
000179: 15,3774           77616        LUNVEL             RVQ                                            #         TO FOOL INTEGRATION
000180: 05,2000                                           SETLOC   EPHEM1
000181: 05,2000                                           BANK
000182:
000183: 05,3430                                           COUNT*   $$/EPHEM
000184: 05,3430                        STMP               EQUALS   16D
000185:
000186: 05,3430                        GTMP               EQUALS   22D
000187:
000188: 05,3430                        TIMEP              EQUALS   24D
000189:

End of include-file LUNAR_AND_SOLAR_EPHEMERIDES_SUBROUTINES.agc.  Parent file is MAIN.agc


