
Source Code


000002:                                                                                                  ## Copyright:   Public domain.
000003:                                                                                                  ## Filename:    LUNAR_LANDING_GUIDANCE_EQUATIONS.agc
000004:                                                                                                  ## Purpose:     A section of LUM69 revision 2.
000005:                                                                                                  ##              It is part of the reconstructed source code for the flown
000006:                                                                                                  ##              version of the flight software for the Lunar Module's (LM)
000007:                                                                                                  ##              Apollo Guidance Computer (AGC) for Apollo 10. The code has
000008:                                                                                                  ##              been recreated from a copy of Luminary revsion 069, using
000009:                                                                                                  ##              changes present in Luminary 099 which were described in
000010:                                                                                                  ##              Luminary memos 75 and 78. The code has been adapted such
000011:                                                                                                  ##              that the resulting bugger words exactly match those specified
000012:                                                                                                  ##              for LUM69 revision 2 in NASA drawing 2021152B, which gives
000013:                                                                                                  ##              relatively high confidence that the reconstruction is correct.
000014:                                                                                                  ## Reference:   pp. 802-828
000015:                                                                                                  ## Assembler:   yaYUL
000016:                                                                                                  ## Contact:     Ron Burkey <info@sandroid.org>.
000017:                                                                                                  ## Website:     www.ibiblio.org/apollo/index.html
000018:                                                                                                  ## Mod history: 2019-07-27 MAS  Created from Luminary 69.
000019:                                                                                                  ##              2021-05-30 ABS  Removed DEC66 symbol not present in Luminary 69.
000020:


000022: 31,2445  E7,1617                                  EBANK=   E2DPS
000023:
000024: 31,2445                                           COUNT*   $$/F2DPS
000025:
000026:                                                                                                  #  ****************************************************************************************************************
000027:                                                                                                  #  LUNAR LANDING FLIGHT SEQUENCE TABLES
000028:                                                                                                  #  ****************************************************************************************************************
000029:
000030:                                                                                                  #  FLIGHT SEQUENCE TABLES ARE ARRANGED BY FUNCTION.   THEY ARE REFERENCED USING AS AN INDEX THE REGISTER WCHPHASE:
000031:                                                                                                  #                                                   WCHPHASE  =  -1  --->  IGNALG
000032:                                                                                                  #                                                   WCHPHASE  =   0  --->  BRAKQUAD
000033:                                                                                                  #                                                   WCHPHASE  =   1  --->  BRAKLING
000034:                                                                                                  #                                                   WCHPHASE  =   2  --->  APPRQUAD
000035:                                                                                                  #                                                   WCHPHASE  =   3  --->  APPRLING
000036:                                                                                                  #                                                   WCHPHASE  =   4  --->  VERTICAL
000037:
000038:                                                                                                  #  ***************************************************************************************************************
000039:
000040:                                                                                                  #  ROUTINES FOR STARTING NEW GUIDANCE PHASES:
000041:
000042: 31,2445           12657                           TCF      TTFINCR                               #  IGNALG
000043: 31,2446           12657        NEWPHASE           TCF      TTFINCR                               #  BRAKQUAD
000044: 31,2447           12643                           TCF      LINSET?                               #  BRAKLING
000045: 31,2450           12627                           TCF      STARTP64                              #  APPRQUAD
000046: 31,2451           12647                           TCF      LINSET                                #  APPRLING
000047: 31,2452           12616                           TCF      P65START                              #  VERTICAL
000048:
000049:
000050:
000051:                                                                                                  #  PRE-GUIDANCE COMPUTATIONS:
000052:
000053: 31,2453           13025                           TCF      CALCRGVG                              #  IGNALG
000054: 31,2454           13035        PREGUIDE           TCF      RGVGCALC                              #  BRAKQUAD
000055: 31,2455           13035                           TCF      RGVGCALC                              #  BRAKLING
000056: 31,2456           12725                           TCF      REDESIG                               #  APPRQUAD
000057: 31,2457           13035                           TCF      RGVGCALC                              #  APPRLING
000058: 31,2460           13035                           TCF      RGVGCALC                              #  VERTICAL
000059:
000060:
000061:                                                                                                  #  GUIDANCE EQUATIONS:
000062:
000063: 31,2461           13107                           TCF      TTF/8CL                               #  IGNALG
000064: 31,2462           13107        WHATGUID           TCF      TTF/8CL                               #  BRAKQUAD
000065: 31,2463           13101                           TCF      LINGUID                               #  BRAKLING
000066: 31,2464           13107                           TCF      TTF/8CL                               #  APPRQUAD
000067: 31,2465           13101                           TCF      LINGUID                               #  BRAKLING
000068: 31,2466           13477                           TCF      VERTGUID                              #  VERTICAL
000069:


000071:                                                                                                  #  POST GUIDANCE EQUATION COMPUTATIONS:
000072:
000073: 31,2467           13240                           TCF      CGCALC                                #  IGNALG
000074: 31,2470           13240        AFTRGUID           TCF      CGCALC                                #  BRAKQUAD
000075: 31,2471           13270                           TCF      LINXLOGC                              #  BRAKLING
000076: 31,2472           13240                           TCF      CGCALC                                #  APPRQUAD
000077: 31,2473           13270                           TCF      LINXLOGC                              #  APPRLING
000078: 31,2474           13411                           TCF      EXVERT                                #  VERTICAL
000079:
000080:
000081:                                                                                                  #  WINDOW VECTOR COMPUTATIONS:
000082:
000083: 31,2475           13304                           TCF      EXGSUB                                #  IGNALG
000084: 31,2476           13325        WHATEXIT           TCF      EXBRAK                                #  BRAKQUAD
000085: 31,2477           13325                           TCF      EXBRAK                                #  BRAKLING
000086: 31,2500           13333                           TCF      EXNORM                                #  APPRQUAD
000087: 31,2501           13333                           TCF      EXNORM                                #  APPRLING
000088:
000089:
000090:                                                                                                  #  DISPLAY ROUTINES:
000091:
000092: 31,2502           13441        WHATDISP           TCF      P63DISPS                              #  BRAKQUAD
000093: 31,2503           13441                           TCF      P63DISPS                              #  BRAKLING
000094: 31,2504           13445                           TCF      P64DISPS                              #  APPRQUAD
000095: 31,2505           13445                           TCF      P64DISPS                              #  APPRLING
000096: 31,2506           13475                           TCF      VERTDISP                              #  VERTICAL
000097:
000098:
000099:                                                                                                  #  INDICES FOR REFERENCING TARGET PARAMETERS:
000100:
000101: 31,2507           00000                           OCT      0                                     #  IGNALG
000102: 31,2510           00000        TARGTDEX           OCT      0                                     #  BRAKQUAD
000103: 31,2511           00000                           OCT      0                                     #  BRAKLING
000104: 31,2512           00030                           OCT      30                                    #  APPRQUAD
000105: 31,2513           00030                           OCT      30                                    #  APPRLING
000106:
000107:
000108:                                                                                                  #  ****************************************************************************************************************
000109:                                                                                                  #  ENTRY POINTS:   2GUIDSUB FOR THE IGNITION ALGORITHM, LUNLAND FOR SERVOUT
000110:                                                                                                  #  ****************************************************************************************************************
000111:
000112:                                                                                                  #  IGNITION ALGORITHM ENTRY:  DELIVERS N PASSES OF QUADRATIC QUIDANCE
000113:
000114: 31,2514           77776        ?GUIDSUB           EXIT
000115: 31,2515           34752                           CAF      TWO                                   #  N = 3
000116: 31,2516           55645                           TS       NGUIDSUB
000117: 31,2517           12600                           TCF      GUILDRET
000118:
000119: 31,2520           55645        GUIDSUB            TS       NGUIDSUB                              #  ON SUCEEDING PASSES SKIP TTFINCR
000120: 31,2521           13025                           TCF      CALCRGVG
000121:


000123:
000124:                                                                                                  #  NORMAL ENTRY:  CONTROL COMES HERE FROM SERVOUT
000125:
000126: 31,2522           05353        LUNLAND            TC       PHASCHNG
000127: 31,2523           00035                           OCT      00035                                 #  GROUP 5:  RETAIN ONLY PIPA TASK
000128: 31,2524           05353                           TC       PHASCHNG
000129: 31,2525           05023                           OCT      05023                                 #  GROUP 3:  PROTECT GUIDANCE WITH PRIO 21
000130: 31,2526           21000                           OCT      21000                                 #        JUST HIGHER THAN SERVICER'S PRIORITY
000131:
000132:                                                                                                  #  ****************************************************************************************************************
000133:                                                                                                  #  GUILDENSTERN:  AUTO-MODES MONITOR (R13)
000134:                                                                                                  #  ****************************************************************************************************************
000135:
000136: 31,2527                                           COUNT*   $$/R13
000137:
000138:                                                                                                  #     HERE IS THE PHILOSOPHY OF GUILDENSTERN:    ON EVERY APPEARANCE OR DISAPPEARANCE OF THE MANUAL THROTTLE
000139:                                                                                                  #  DISCRETE TO SELECT P67 OR P66 RESPECTIVELY;   ON EVERY APPEARANCE OF THE ATTITUDE-HOLD DISCRETE TO SELECT P66
000140:                                                                                                  #  UNLESS THE CURRENT PROGRAM IS P67 IN WHICH CASE THERE IS NO CHANGE.
000141:
000142: 31,2527           00006        GUILDEN            EXTEND                                         #  IS UN-AUTO-THROTTLE DISCRETE PRESENT?
000143: 31,2530           00030                           READ     CHAN30
000144: 31,2531           74747                           MASK     BIT5
000145: 31,2532           10000                           CCS      A
000146: 31,2533           12564                           TCF      STARTP67                              #  YES
000147: 31,2534           05321        P67NOW?            TC       CHECKMM                               #  NO:   ARE WE IN P67 NOW?
000148: 31,2535           00103                           DEC      67         B-14
000149: 31,2536           12570                           TCF      STABL?                                #  NO
000150: 31,2537           03721        STARTP66           TC       FASTCHNG                              #  YES
000151: 31,2540           05311                           TC       NEWMODEX
000152: 31,2541           00102                           DEC      66         B-14
000153: 31,2542           00006                           EXTEND                                         #  INITIALIZE VDGVERT USING
000154: 31,2543           31625                           DCA      VGU                                   #    PRESENT DOWNWARD VELOCITY
000155: 31,2544           53643                           DXCH     VDGVERT
000156: 31,2545           34755                           CAF      ZERO
000157: 31,2546           55644                           TS       RODCOUNT
000158: 31,2547           55645        VRTSTART           TS       WCHVERT
000159: 31,2550           34751                           CAF      FOUR                                  #  WCHPHASE = 4 --> VERTICAL: P65,P66,P67
000160: 31,2551           55617                           TS       WCHPHOLD
000161: 31,2552           55620                           TS       WCHPHASE
000162: 31,2553           04616                           TC       BANKCALL                              #  TEMPORARY, I HOPE HOPE HOPE
000163: 31,2554           40165                           CADR     STOPRATE                              #  TEMPORARY, I HOPE HOPE HOPE
000164: 31,2555           05516                           TC       DOWNFLAG                              #  PERMIT X-AXIS OVERRIDE
000165: 31,2556           00311                           ADRES    XOVINFLG
000166: 31,2557           05516                           TC       DOWNFLAG
000167: 31,2560           00143                           ADRES    REDFLAG
000168: 31,2561           05516                           TC       DOWNFLAG
000169: 31,2562           00142                           ADRES    POUTFLAG                              #  PERMIT PULSE-OUTS
000170: 31,2563           12600                           TCF      GUILDRET
000171:
000172: 31,2564           05311        STARTP67           TC       NEWMODEX                              #  NO HARM IN "STARTING" P67 OVER AND OVER
000173: 31,2565           00103                           DEC      67         B-14                       #    SO NO NEED FOR A FASTCHNG AND NO NEED
000174:


000176: 31,2566           34363                           CAF      TEN                                   #    TO SEE IF ALREADY IN P67
000177: 31,2567           12547                           TCF      VRTSTART
000178:
000179: 31,2570           34737        STABL?             CAF      BIT13                                 #  IS UN-ATTITUDE-HOLD DISCRETE PRESENT?
000180: 31,2571           00006                           EXTEND
000181: 31,2572           02031                           RAND     CHAN31
000182: 31,2573           10000                           CCS      A
000183: 31,2574           12600                           TCF      GUILDRET                              #  YES: ALL'S WELL
000184: 31,2575           05321        P66NOW?            TC       CHECKMM                               #  NO:  ARE WE IN P66 NOW?
000185: 31,2576           00102                           DEC      66         B-14
000186: 31,2577           12537                           TCF      STARTP66                              #  NO
000187:
000188:                                                                                                  #                                                (CONTINUE TO GUILDRET) YES
000189:
000190:                                                                                                  #  ****************************************************************************************************************
000191:                                                                                                  #  INITIALIZATION FOR THIS PASS
000192:                                                                                                  #  ****************************************************************************************************************
000193:
000194: 31,2600                                           COUNT*   $$/F2DPS
000195:
000196: 31,2600           00006        GUILDRET           EXTEND
000197: 31,2601           31623                           DCA      TPIP
000198: 31,2602           53572                           DXCH     TPIPOLD
000199:
000200: 31,2603           03721                           TC       FASTCHNG
000201:
000202: 31,2604           00006                           EXTEND
000203: 31,2605           31557                           DCA      PIPTIME1
000204: 31,2606           53623                           DXCH     TPIP
000205:
000206: 31,2607           00006                           EXTEND
000207: 31,2610           31641                           DCA      TTF/8
000208: 31,2611           53551                           DXCH     TTF/8TMP
000209:
000210: 31,2612           11621                           CCS      FLPASS0
000211: 31,2613           12657                           TCF      TTFINCR
000212:
000213: 31,2614           51620        BRSPOT1            INDEX    WCHPHASE
000214: 31,2615           12446                           TCF      NEWPHASE
000215:
000216:                                                                                                  #  ****************************************************************************************************************
000217:                                                                                                  #  ROUTINES TO START NEW PHASES
000218:                                                                                                  #  ****************************************************************************************************************
000219:
000220: 31,2616           05311        P65START           TC       NEWMODEX
000221: 31,2617           00101                           DEC      65         B-14
000222: 31,2620           44752                           CS       TWO
000223: 31,2621           55645                           TS       WCHVERT
000224: 31,2622           05516                           TC       DOWNFLAG                              #  PERMIT X-AXIS OVERRIDE
000225: 31,2623           00311                           ADRES    XOVINFLG
000226:


000228: 31,2624           05516        COMSTART           TC       DOWNFLAG
000229: 31,2625           00142                           ADRES    POUTFLAG
000230: 31,2626           12657                           TCF      TTFINCR
000231:
000232:
000233: 31,2627           33743        STARTP64           CAF      DELTTFAP                              #  AUGMENT TTF/8 (TWO-PHASE ONLY)
000234: 31,2630           27550                           ADS      TTF/8TMP
000235: 31,2631           05311                 +2        TC       NEWMODEX
000236: 31,2632           00100                           DEC      64         B-14
000237: 31,2633           34752                           CAF      TWO
000238: 31,2634           55620                           TS       WCHPHASE
000239: 31,2635           34740                           CA       BIT12                                 #  ENABLE RUPT10
000240: 31,2636           00006                           EXTEND
000241: 31,2637           05013                           WOR      CHAN13
000242: 31,2640           05516                           TC       DOWNFLAG                              #  INITIALIZE REDESIGNATION FLAG
000243: 31,2641           00143                           ADRES    REDFLAG
000244: 31,2642           12624                           TCF      COMSTART
000245:
000246:                                                                                                  #  ****************************************************************************************************************
000247:                                                                                                  #  SET LINEAR GUIDANCE COEFFICIENTS
000248:                                                                                                  #  ****************************************************************************************************************
000249:
000250: 31,2643           30102        LINSET?            CA       FLAGWRD6                              #  ONE-PHASE OR TWO-PHASE?
000251: 31,2644           74743                           MASK     2PHASBIT
000252: 31,2645           00006                           EXTEND
000253: 31,2646           12631                           BZF      STARTP64   +2                         #  ONE-PHASE: GO DIRECTLY TO APPROACH PHASE
000254:
000255: 31,2647           03667        LINSET             TC       INTPRETX
000256: 31,2650           51775                           VLOAD    VSU*                                  #  -        -     -
000257: 31,2651           02271                                    ACG                                   #  JLING = (ACG - ADG)/TTF
000258: 31,2652           02417                                    ADG,1
000259: 31,2653           70322                           VSR3     V/SC
000260: 31,2654           03551                                    TTF/8TMP                              #  TTF/8 NOT YET UPDATED
000261: 31,2655           02277                           STORE    JLING                                 #  JLING IS IN UMITS OF 2(-18) M/CS/CS/CS
000262: 31,2656           77776                           EXIT
000263:
000264:                                                                                                  #                                              (CONTINUE TO TTFINCR)
000265:
000266:                                                                                                  #  ****************************************************************************************************************
000267:                                                                                                  #  INCREMENT TTF/8, UPDATE LAND FOR LUNAR ROTATION, DO OTHER USEFUL THINGS
000268:                                                                                                  #  ****************************************************************************************************************
000269:
000270:                                                                                                  #             TTFINCR COMPUTATIONS ARE AS FOLLOWS:-
000271:
000272:                                                                                                  #                       TTF/8 UPDATED FOR TIME SINCE LAST PASS:
000273:
000274:                                                                                                  #                                  TTF/8 = TTF/8 + (TPIP - TPIPOLD)/8
000275:
000276:                                                                                                  #                       LANDING SITE VECTOR UPDATED FOR LUNAR ROTATION:
000277:


000279:                                                                                                  #                                  -                  -      -                      -
000280:                                                                                                  #                                  LAND = /LAND/ UNIT(LAND - LAND(TPIP - TPIPOLD) * WM)
000281:
000282:                                                                                                  #                       SLANT RANGE TO LANDING SITE, FOR DISPLAY:
000283:
000284:                                                                                                  #                                                   -      -
000285:                                                                                                  #                                  RANGEDSP = ABVAL(LAND - R)
000286:
000287: 31,2657           06036        TTFINCR            TC       INTPRET
000288: 31,2660           45345                           DLOAD    DSU
000289: 31,2661           03623                                    TPIP
000290: 31,2662           03572                                    TPIPOLD
000291: 31,2663           41461                           SLR      PUSH                                  #  SHIFT SCALES DELTA TIME TO 2(17) CSECS
000292: 31,2664           21214                                    11D
000293: 31,2665           47361                           VXSC     VXV
000294: 31,2666           03633                                    LAND
000295: 31,2667           02331                                    WM
000296: 31,2670           47045                           BVSU     RTB
000297: 31,2671           03633                                    LAND
000298: 31,2672           21700                                    NORMUNIT
000299: 31,2673           76561                           VXSC     VSL1
000300: 31,2674           02337                                    /LAND/
000301: 31,2675           03543                           STORE    LANDTEMP
000302: 31,2676           51451                           VSU      ABVAL
000303: 31,2677           03517                                    R
000304: 31,2700           16532                           STODL    RANGEDSP
000305: 31,2701           77776                           EXIT
000306:
000307: 31,2702           52155                           DXCH     MPAC
000308: 31,2703           21551                           DAS      TTF/8TMP                              #  NOW HAVE INCREMENTED TTF/8 IN TTF/8TMP
000309:
000310: 31,2704           03721                           TC       FASTCHNG
000311:
000312: 31,2705           00006                           EXTEND
000313: 31,2706           31551                           DCA      TTF/8TMP
000314: 31,2707           53641                           DXCH     TTF/8
000315:
000316: 31,2710           00006                           EXTEND
000317: 31,2711           31543                           DCA      LANDTEMP
000318: 31,2712           53633                           DXCH     LAND
000319: 31,2713           00006                           EXTEND
000320: 31,2714           31545                           DCA      LANDTEMP   +2
000321: 31,2715           53635                           DXCH     LAND       +2
000322: 31,2716           00006                           EXTEND
000323: 31,2717           31547                           DCA      LANDTEMP   +4
000324: 31,2720           53637                           DXCH     LAND       +4
000325:
000326: 31,2721           03674                           TC       TDISPSET
000327: 31,2722           03721                           TC       FASTCHNG                              #  SINCE REDESIG MAY CHANGE LANDTEMP
000328:


000330: 31,2723           51620        BRSPOT2            INDEX    WCHPHASE
000331: 31,2724           12454                           TCF      PREGUIDE
000332:
000333:                                                                                                  #  ****************************************************************************************************************
000334:                                                                                                  #  LANDING SITE PERTURBATION EQUATIONS
000335:                                                                                                  #  ****************************************************************************************************************
000336:
000337: 31,2725           30102        REDESIG            CA       FLAGWRD6                              #  IS REDFLAG SET?
000338: 31,2726           74746                           MASK     REDFLBIT
000339: 31,2727           00006                           EXTEND
000340: 31,2730           13035                           BZF      RGVGCALC                              #  NO:   SKIP REDESIGNATION LOGIC
000341:
000342: 31,2731           31664                           CA       TREDES                                #  YES:  HAS TREDES REACHED ZERO?
000343: 31,2732           00006                           EXTEND
000344: 31,2733           13035                           BZF      RGVGCALC                              #  YES:  SKIP REDESIGNATION LOGIC
000345:
000346: 31,2734           00004                           INHINT
000347: 31,2735           31642                           CA       ELINCR1
000348: 31,2736           55552                           TS       ELINCR
000349: 31,2737           31643                           CA       AZINCR1
000350: 31,2740           55554                           TS       AZINCR
000351: 31,2741           03721                           TC       FASTCHNG
000352:
000353: 31,2742           34755                           CA       ZERO
000354: 31,2743           55642                           TS       ELINCR1
000355: 31,2744           55643                           TS       AZINCR1
000356: 31,2745           00003                           RELINT
000357: 31,2746           55553                           TS       ELINCR     +1
000358: 31,2747           55555                           TS       AZINCR     +1
000359:
000360: 31,2750           30120                           CA       FIXLOC                                #  SET PD TO 0
000361: 31,2751           54166                           TS       PUSHLOC
000362:
000363: 31,2752           06036                           TC       INTPRET
000364: 31,2753           52375                           VLOAD    VSU
000365: 31,2754           03633                                    LAND
000366: 31,2755           03517                                    R                                     #                  -      -
000367: 31,2756           41434                           RTB      PUSH                                  #  PUSH DOWN UNIT (LAND - R)
000368: 31,2757           21700                                    NORMUNIT
000369: 31,2760           76435                           VXV      VSL1
000370: 31,2761           02154                                    YNBPIP                                #                     -          -      -
000371: 31,2762           65361                           VXSC     PDDL                                  #  PUSH DOWN - ELINCR(YNB * UNIT(LAND - R))
000372: 31,2763           03553                                    ELINCR
000373: 31,2764           03555                                    AZINCR
000374: 31,2765           52361                           VXSC     VSU
000375: 31,2766           02154                                    YNBPIP
000376: 31,2767           41455                           VAD      PUSH                                  #  RESULTING VECTOR IS 1/2 REAL SIZE
000377:
000378: 31,2770           45345                           DLOAD    DSU                                   #  MAKE SURE REDESIGNATION IS NOT
000379: 31,2771           00001                                    0                                     #    TOO CLOSE TO THE HORIZON
000380:


000382: 31,2772           23762                                    DEPRCRIT
000383: 31,2773           71240                           BMN      DLOAD
000384: 31,2774           62777                                    REDES1
000385: 31,2775           23762                                    DEPRCRIT
000386: 31,2776           00001                           STORE    0
000387: 31,2777           45345        REDES1             DLOAD    DSU
000388: 31,3000           03633                                    LAND
000389: 31,3001           03517                                    R
000390: 31,3002           74271                           DDV      VXSC
000391: 31,3003           00001                                    0
000392: 31,3004           53455                           VAD      UNIT
000393: 31,3005           03517                                    R
000394: 31,3006           76561                           VXSC     VSL1
000395: 31,3007           02337                                    /LAND/
000396: 31,3010           03543                           STORE    LANDTEMP
000397: 31,3011           77776                           EXIT                                           #  LOOKANGL WILL BE COMPUTED AT RGVGCALC
000398:
000399: 31,3012           03721                           TC       FASTCHNG
000400:
000401: 31,3013           00006                           EXTEND
000402: 31,3014           31543                           DCA      LANDTEMP
000403: 31,3015           53633                           DXCH     LAND
000404: 31,3016           00006                           EXTEND
000405: 31,3017           31545                           DCA      LANDTEMP   +2
000406: 31,3020           53635                           DXCH     LAND       +2
000407: 31,3021           00006                           EXTEND
000408: 31,3022           31547                           DCA      LANDTEMP   +4
000409: 31,3023           53637                           DXCH     LAND       +4
000410:
000411: 31,3024           13035                           TCF      RGVGCALC
000412:
000413:                                                                                                  #  ****************************************************************************************************************
000414:                                                                                                  #  COMPUTE STATE IN GUIDANCE COORDINATES
000415:                                                                                                  #  ****************************************************************************************************************
000416:
000417:                                                                                                  #             RGVGCALC COMPUTATIONS ARE AS FOLLOWS:-
000418:
000419:                                                                                                  #                      VELOCITY RELATIVE TO THE SURFACE:
000420:
000421:                                                                                                  #                                  -         -   -   -
000422:                                                                                                  #                                  ANGTERM = V + R * WM
000423:
000424:                                                                                                  #                      STATE IN GUIDANCE COORDINATES:
000425:
000426:                                                                                                  #                                  -     *   -   -
000427:                                                                                                  #                                  RGU = CG (R - LAND)
000428:
000429:                                                                                                  #                                  -     *   -   -    -
000430:                                                                                                  #                                  VGU = CG (V - WM * R)
000431:


000433:                                                                                                  #                      HORIZONTAL VELOCITY FOR DISPLAY:
000434:
000435:                                                                                                  #                                  VHORIZ = 8 ABVAL (0, VG , VG )
000436:                                                                                                  #                                                         2    1
000437:
000438:                                                                                                  #                      DEPRESSION ANGLE FOR DISPLAY:
000439:
000440:                                                                                                  #                                                         -   -     -
000441:                                                                                                  #                                  LOOKANGL = ARCSIN(UNIT(R - LAND).XMBPIP)
000442:
000443: 31,3025           06036        CALCRGVG           TC       INTPRET                               #  IN IGNALG, COMPUTE V FROM INTEGRATION
000444: 31,3026           64375                           VLOAD    MXV                                   #    OUTPUT AND TRIM CORRECTION TERM
000445: 31,3027           00025                                    VATT1                                 #    COMPUTED LAST PASS AND LEFT IN UNFC/2
000446: 31,3030           01734                                    REFSMMAT
000447: 31,3031           53362                           VSR1     VAD
000448: 31,3032           03252                                    UNFC/2
000449: 31,3033           03525                           STORE    V
000450: 31,3034           77776                           EXIT
000451:
000452: 31,3035           06036        RGVGCALC           TC       INTPRET                               #  ENTER HERE TO RECOMPUTE RG AND VG
000453: 31,3036           47375                           VLOAD    VXV
000454: 31,3037           03517                                    R
000455: 31,3040           02331                                    WM
000456: 31,3041           70455                           VAD      VSR2                                  #  RESCALE TO UNITS OF 2(9) M/CS
000457: 31,3042           03525                                    V
000458: 31,3043           02305                           STORE    ANGTERM
000459: 31,3044           77721                           MXV
000460: 31,3045           02510                                    CG                                    #  NO SHIFT SINCE ANGTERM IS DOUBLE SIZED
000461: 31,3046           03625                           STORE    VGU
000462: 31,3047           55525                           PDDL     VDEF                                  #  FORM (0,VG ,VG ) IN UNITS OF 2(10) M/CS
000463: 31,3050           06424                                    ZEROVECS                              #            2   1
000464: 31,3051           52446                           ABVAL    SL3
000465: 31,3052           26267                           STOVL    VHORIZ                                #  VHORIZ FOR DISPLAY DURING P65, P66, P67
000466: 31,3053           03517                                    R                                     #            -   -
000467: 31,3054           41451                           VSU      PUSH                                  #  PUSH DOWN R - LAND
000468: 31,3055           03633                                    LAND
000469: 31,3056           76521                           MXV      VSL1
000470: 31,3057           02510                                    CG
000471: 31,3060           26544                           STOVL    RGU
000472: 31,3061           50234                           RTB      DOT                                   #  NOW IN MPAC IS SINE(LOOKANGL)/4
000473: 31,3062           21700                                    NORMUNIT
000474: 31,3063           02146                                    XNBPIP
000475: 31,3064           77776                           EXIT
000476:
000477: 31,3065           30120                           CA       FIXLOC                                #  RESET PUSH DOWN POINTER
000478: 31,3066           54166                           TS       PUSHLOC
000479:
000480: 31,3067           30154                           CA       MPAC                                  #  COMPUTE LOOKANGL ITSELF
000481: 31,3070           60000                           DOUBLE
000482: 31,3071           04616                           TC       BANKCALL
000483:


000485: 31,3072           61643                           CADR     SPARCSIN   -1
000486: 31,3073           63742                           AD       1/2DEG
000487: 31,3074           00006                           EXTEND
000488: 31,3075           73741                           MP       180DEGS
000489: 31,3076           55665                           TS       LOOKANGL                              #  LOOKANGL FOR DISPLAY DURING P64
000490:
000491: 31,3077           51620        BRSPOT3            INDEX    WCHPHASE
000492: 31,3100           12462                           TCF      WHATGUID
000493:
000494:                                                                                                  # ****************************************************************************************************************
000495:                                                                                                  #  LINEAR GUIDANCE EQUATION
000496:                                                                                                  # ****************************************************************************************************************
000497:
000498: 31,3101           03667        LINGUID            TC       INTPRETX
000499: 31,3102           74375                           VLOAD    VXSC                                  #  -     -     -
000500: 31,3103           02277                                    JLING                                 #  ACG = ADG + JLING TTF
000501: 31,3104           03641                                    TTF/8
000502: 31,3105           52132                           VSL3     GOTO                                  #  PICK UP THE VAD* AT AFCCALC
000503: 31,3106           63171                                    AFCCALC
000504:
000505:                                                                                                  # ****************************************************************************************************************
000506:                                                                                                  #  TTF/4 COMPUTATION
000507:                                                                                                  # ****************************************************************************************************************
000508:
000509: 31,3107           03667        TTF/8CL            TC       INTPRETX
000510: 31,3110           77743                           DLOAD*
000511: 31,3111           02431                                    JDG2TTF,1
000512: 31,3112           23567                           STODL*   TABLTTF    +6                         #  A(3) = 8 JDG  TO TABLTTF
000513: 31,3113           02427                                    ADG2TTF,1                             #              2
000514: 31,3114           17565                           STODL    TABLTTF    +4                         #  A(2) = 6 ADG  TO TABLTTF
000515: 31,3115           03631                                    VGU        +4                         #              2
000516: 31,3116           42605                           DMP      DAD*
000517: 31,3117           23755                                    3/4DP
000518: 31,3120           02425                                    VDG2TTF,1
000519: 31,3121           23563                           STODL*   TABLTTF    +2                         #  A(1) = (6 VGU  + 18 VDG )/8 TO TABLTTF
000520: 31,3122           02407                                    RDG        +4,1                       #               2         2
000521: 31,3123           41225                           DSU      DMP
000522: 31,3124           02550                                    RGU        +4
000523: 31,3125           23753                                    3/8DP
000524: 31,3126           03561                           STORE    TABLTTF                               #  A(0) = -24 (RGU  - RDG )/64 TO TABLTTF
000525: 31,3127           77776                           EXIT                                           #                 2      2
000526:
000527: 31,3130           34744                           CA       BIT8
000528: 31,3131           55570                           TS       TABLTTF    +10                        #  FRACTIONAL PRECISION FOR TTF TO TABLE
000529:
000530: 31,3132           00006                           EXTEND
000531: 31,3133           31641                           DCA      TTF/8
000532: 31,3134           52155                           DXCH     MPAC                                  #  LOADS TTF/8 (INITIAL GUESS) INTO MPAC
000533: 31,3135           34752                           CAF      TWO                                   #  DEGREE - ONE
000534: 31,3136           54001                           TS       L
000535:


000537: 31,3137           33733                           CAF      TABLTTFL
000538: 31,3140           03543                           TC       ROOTPSRS                              #  YIELDS TTF/8 IN MPAC
000539: 31,3141           05652                           TC       POODOO                                #  BAD RETURN
000540: 31,3142           01406                           OCT      01406
000541: 31,3143           00006                           EXTEND                                         #  GOOD RETURN
000542: 31,3144           30155                           DCA      MPAC                                  #  FETCH TTF/8 KEEPING IT IN MPAC
000543: 31,3145           53641                           DXCH     TTF/8                                 #  CORRECTED TTF/8
000544:
000545: 31,3146           03674                           TC       TDISPSET
000546:
000547:                                                                                                  #                                               (CONTINUE TO QUADGUID)
000548:
000549:                                                                                                  #  ****************************************************************************************************************
000550:                                                                                                  #  MAIN GUIDANCE EQUATION
000551:                                                                                                  #  ****************************************************************************************************************
000552:
000553:                                                                                                  #                       AS PUBLISHED:-
000554:
000555:                                                                                                  #                                                -     -        -     -
000556:                                                                                                  #                                  -     -     6(VDG + VG)   12(RDG - RG)
000557:                                                                                                  #                                  ACG = ADG + ----------- + ------------
000558:                                                                                                  #                                                  TTF         (TTF)(TTF)
000559:
000560:                                                                                                  #                       AS HERE PROGRAMMED:-
000561:
000562:                                                                                                  #                                              -     -
000563:                                                                                                  #                                       3 (1/4(RDG - RG)   -     - )
000564:                                                                                                  #                                       - (------------- + VDG + VG)
000565:                                                                                                  #                                 -     4 (    TTF/8               )   -
000566:                                                                                                  #                                 ACG = ---------------------------- + ADG
000567:                                                                                                  #                                                  TTF/8
000568:
000569: 31,3147           33732        QUADGUID           CAF      30SEC*17                              #  PULSE-OUTS ARE INHIBITED WHENEVER
000570: 31,3150           61640                           AD       TTF/8                                 #    TTF < 30 SECONDS, REGARDLESS OF
000571: 31,3151           00006                           EXTEND                                         #    THE DURATION OF LINEAR GUIDANCE
000572: 31,3152           63155                           BZMF     Q**DG**D
000573: 31,3153           05504                           TC       UPFLAG
000574: 31,3154           00142                           ADRES    POUTFLAG
000575: 31,3155           03667        Q**DG**D           TC       INTPRETX
000576: 31,3156           52373                           VLOAD*   VSU
000577: 31,3157           02403                                    RDG,1
000578: 31,3160           02544                                    RGU
000579: 31,3161           70541                           V/SC     VSR2
000580: 31,3162           03641                                    TTF/8
000581: 31,3163           53253                           VAD*     VAD
000582: 31,3164           02411                                    VDG,1
000583: 31,3165           03625                                    VGU
000584: 31,3166           74341                           V/SC     VXSC
000585: 31,3167           03641                                    TTF/8
000586:


000588: 31,3170           23755                                    3/4DP
000589: 31,3171           77653        AFCCALC            VAD*
000590: 31,3172           02417                                    ADG,1                                 #  CURRENT TARGET ACCELERATION
000591: 31,3173           02271                           STORE    ACG
000592: 31,3174           76505        AFCCALC1           VXM      VSL1                                  #  VERTGUID COMES HERE
000593: 31,3175           02510                                    CG
000594: 31,3176           70315                           PDVL     V/SC
000595: 31,3177           01237                                    GDT/2
000596: 31,3200           23751                                    GSCALE
000597: 31,3201           45445                           BVSU     STADR
000598: 31,3202           74525                           STORE    UNFC/2                                #  UNFC/2 NEED NOT BE UNITIZED
000599: 31,3203           77646                           ABVAL
000600: 31,3204           03574        AFCCALC2           STORE    /AFC/                                 #  MAGNITUDE OF AFC FOR THROTTLE
000601: 31,3205           71214                           BON      DLOAD
000602: 31,3206           03306                                    2PHASFLG
000603: 31,3207           63231                                    AFCCLEND
000604: 31,3210           03252                                    UNFC/2                                #  VERTICAL COMPONENT
000605: 31,3211           65316                           DSQ      PDDL
000606: 31,3212           03254                                    UNFC/2     +2                         #  OUT-OF-PLANE
000607: 31,3213           65316                           DSQ      PDDL
000608: 31,3214           23735                                    HIGHESTF
000609: 31,3215           63471                           DDV      DSQ
000610: 31,3216           01245                                    MASS                                  #                         2    2    2
000611: 31,3217           45225                           DSU      DSU                                   #  AMAXHORIZ = SQRT(ATOTAL - A  - A  )
000612: 31,3220           71244                           BPL      DLOAD                                 #                             1    0
000613: 31,3221           63223                                    AFCCALC3
000614: 31,3222           06424                                    ZEROVECS
000615: 31,3223           43366        AFCCALC3           SQRT     DAD
000616: 31,3224           03256                                    UNFC/2     +4
000617: 31,3225           44244                           BPL      BDSU
000618: 31,3226           63231                                    AFCCLEND
000619: 31,3227           03256                                    UNFC/2     +4
000620: 31,3230           03256                           STORE    UNFC/2     +4
000621: 31,3231           77776        AFCCLEND           EXIT
000622: 31,3232           03721                           TC       FASTCHNG
000623:
000624: 31,3233           31620                           CA       WCHPHASE                              #  PREPARE FOR PHASE SWITCHING LOGIC
000625: 31,3234           55617                           TS       WCHPHOLD
000626: 31,3235           25621                           INCR     FLPASS0                               #  INCREMENT PASS COUNTER
000627:
000628: 31,3236           51620        BRSPOT4            INDEX    WCHPHASE
000629: 31,3237           12470                           TCF      AFTRGUID
000630:
000631:                                                                                                  #  ***************************************************************************************************************
000632:                                                                                                  #  ERECT GUIDANCE-STABLE MEMBER TRANSFORMATION MATRIX
000633:                                                                                                  #  ***************************************************************************************************************
000634:
000635: 31,3240           06036        CGCALC             TC       INTPRET
000636: 31,3241           53575                           VLOAD    UNIT
000637: 31,3242           03633                                    LAND
000638:


000640: 31,3243           26510                           STOVL    CG                                    #  FIRST ROW
000641: 31,3244           02305                                    ANGTERM
000642: 31,3245           53361                           VXSC     VAD                                   #  REMEMBER THAT ANGTERM IS DOUBLE-SIZED
000643: 31,3246           03641                                    TTF/8
000644: 31,3247           03633                                    LAND
000645: 31,3250           47051                           VSU      RTB
000646: 31,3251           03517                                    R
000647: 31,3252           21700                                    NORMUNIT
000648: 31,3253           47035                           VXV      RTB
000649: 31,3254           03633                                    LAND
000650: 31,3255           21700                                    NORMUNIT
000651: 31,3256           26516                           STOVL    CG         +6                         #  SECOND ROW
000652: 31,3257           02510                                    CG
000653: 31,3260           76435                           VXV      VSL1
000654: 31,3261           02516                                    CG         +6
000655: 31,3262           02524                           STORE    CG         +14
000656: 31,3263           77776                           EXIT
000657:
000658:                                                                                                  #                                              (CONTINUE TO EXTLOGIC)
000659:
000660:                                                                                                  #  ****************************************************************************************************************
000661:                                                                                                  #  PREPARE TO EXIT
000662:                                                                                                  #  ****************************************************************************************************************
000663:
000664:                                                                                                  #  DECIDE (1) HOW TO EXIT, AND (2) WHETHER TO SWITCH PHASES
000665:
000666: 31,3264           11620        EXTLOGIC           CCS      WCHPHASE
000667: 31,3265           50000                           INDEX    A                                     #  WCHPHASE = +2    APPRQUAD    A = 1
000668: 31,3266           31425                           CA       TENDBRAK                              #  WCHPHASE = +0    BRAKQUAD    A = 0
000669: 31,3267           13271                           TCF      EXSPOT1    -1                         #  WCHPHASE = -1    IGNALG      A = 0
000670:
000671: 31,3270           33727        LINXLOGC           CA       3SEC*17
000672: 31,3271           61640                           AD       TTF/8
000673:
000674: 31,3272           00006        EXSPOT1            EXTEND
000675: 31,3273           51620                           INDEX    WCHPHASE
000676: 31,3274           62476                           BZMF     WHATEXIT
000677:
000678: 31,3275           03721                           TC       FASTCHNG
000679:
000680: 31,3276           31617                           CA       WCHPHOLD
000681: 31,3277           64753                           AD       ONE
000682: 31,3300           22007                           ZL                                             #  +0
000683: 31,3301           53621                           DXCH     WCHPHASE                              #  ADVANCING WCHPHASE AND RESETTING FLPASS0
000684:
000685: 31,3302           51617                           INDEX    WCHPHOLD
000686: 31,3303           12476                           TCF      WHATEXIT
000687:
000688:                                                                                                  #  ****************************************************************************************************************
000689:                                                                                                  #  ROUTINES FOR EXITING FROM LANDING GUIDANCE
000690:


000692:                                                                                                  #  ****************************************************************************************************************
000693:
000694:                                                                                                  #  1.        EXGSUB IS THE RETURN WHEN GUIDSUB IS CALLED BY THE IGNITION ALGORITHM.
000695:
000696:                                                                                                  #  2.        EXBRAK IN THE EXIT USED DURING THE BRAKING PHASE.   IN THIS CASE UNIT(R) IS THE WINDOW POINTING VECTOR.
000697:
000698:                                                                                                  #  3.        EXNORM IS THE EXIT USED AT OTHER TIMES DURING THE BURN.
000699:
000700:                                                                                                  #           (EXOVFLOW IS A SUBROUTINE OF EXBRAK AND EXNORM CALLED WHEN OVERFLOW OCCURRED ANYWHERE IN GUIDANCE.)
000701:
000702: 31,3304           06036        EXGSUB             TC       INTPRET                               #  COMPUTE TRIM VELOCITY CORRECTION TERM
000703: 31,3305           47175                           VLOAD    RTB
000704: 31,3306           03252                                    UNFC/2
000705: 31,3307           21700                                    NORMUNIT
000706: 31,3310           74361                           VXSC     VXSC
000707: 31,3311           03425                                    ZOOMTIME
000708: 31,3312           22001                                    TRIMACCL
000709: 31,3313           03252                           STORE    UNFC/2
000710: 31,3314           77776                           EXIT
000711:
000712: 31,3315           11645                           CCS      NGUIDSUB
000713: 31,3316           12520                           TCF      GUIDSUB
000714: 31,3317           11644                           CCS      NIGNLOOP
000715: 31,3320           13323                           TCF      +3
000716: 31,3321           05567                           TC       ALARM
000717: 31,3322           01412                           OCT      01412
000718:
000719: 31,3323           04635                 +3        TC       POSTJUMP
000720: 31,3324           65075                           CADR     DDUMCALC
000721:
000722: 31,3325           06036        EXBRAK             TC       INTPRET
000723: 31,3326           77775                           VLOAD
000724: 31,3327           03535                                    UNIT/R/
000725: 31,3330           03260                           STORE    UNWC/2
000726: 31,3331           77776                           EXIT
000727: 31,3332           13405                           TCF      STEER?
000728:
000729: 31,3333           06036        EXNORM             TC       INTPRET
000730: 31,3334           52375                           VLOAD    VSU
000731: 31,3335           03633                                    LAND
000732: 31,3336           03517                                    R
000733: 31,3337           77634                           RTB
000734: 31,3340           21700                                    NORMUNIT
000735: 31,3341           03260                           STORE    UNWC/2                                #  UNIT(LAND - R) IS TENTATIVE CHOICE
000736: 31,3342           50235                           VXV      DOT
000737: 31,3343           02146                                    XNBPIP
000738: 31,3344           02516                                    CG         +6
000739: 31,3345           77776                           EXIT                                           #  WITH PROJ IN MPAC 1/8 REAL SIZE
000740:
000741: 31,3346           40154                           CS       MPAC                                  #  GET COEFFICIENT FOR CG +14
000742:


000744: 31,3347           63763                           AD       PROJMAX
000745: 31,3350           64733                           AD       POSMAX
000746: 31,3351           54130                           TS       BUF
000747: 31,3352           40130                           CS       BUF
000748: 31,3353           26130                           ADS      BUF                                   #  RESULT IS 0 IF PROJMAX - PROJ NEGATIVE
000749:
000750: 31,3354           43764                           CS       PROJMIN                               #  GET COEFFICIENT FOR UNIT(LAND - R)
000751: 31,3355           60154                           AD       MPAC
000752: 31,3356           64733                           AD       POSMAX
000753: 31,3357           54131                           TS       BUF        +1
000754: 31,3360           40131                           CS       BUF        +1
000755: 31,3361           26131                           ADS      BUF        +1                         #  RESULT IS 0 IF PROJ - PROJMIN NEGATIVE
000756:
000757: 31,3362           34751                           CAF      FOUR
000758: 31,3363           76241        UNWCLOOP           MASK     SIX
000759: 31,3364           54002                           TS       Q
000760: 31,3365           35014                           CA       EBANK5
000761: 31,3366           54003                           TS       EBANK
000762: 31,3367  E5,1507                                  EBANK=   CG
000763: 31,3367           30130                           CA       BUF
000764: 31,3370           00006                           EXTEND
000765: 31,3371           50002                           INDEX    Q
000766: 31,3372           71523                           MP       CG         +14
000767: 31,3373           24006                           INCR     BBANK
000768: 31,3374  E6,1657                                  EBANK=   UNWC/2
000769: 31,3374           50002                           INDEX    Q
000770: 31,3375           53660                           DXCH     UNWC/2
000771: 31,3376           00006                           EXTEND
000772: 31,3377           70131                           MP       BUF        +1
000773: 31,3400           50002                           INDEX    Q
000774: 31,3401           21660                           DAS      UNWC/2
000775: 31,3402           10002                           CCS      Q
000776: 31,3403           13363                           TCF      UNWCLOOP
000777:
000778: 31,3404           24006                           INCR     BBANK
000779: 31,3405  E7,1610                                  EBANK=   PIF
000780:
000781: 31,3405           30076        STEER?             CA       FLAGWRD2                              #  IF STEERSW DOWN NO OUTPUTS
000782: 31,3406           74741                           MASK     STEERBIT
000783: 31,3407           00006                           EXTEND
000784: 31,3410           13416                           BZF      RATESTOP
000785:
000786: 31,3411           30121        EXVERT             CA       OVFIND                                #  IF OVERFLOW ANYWHERE IN GUIDANCE
000787: 31,3412           00006                           EXTEND                                         #    DON'T CALL THROTTLE OR FINDCDUW
000788: 31,3413           13421                           BZF      +6
000789:
000790: 31,3414           05567        EXOVFLOW           TC       ALARM                                 #  SOUND THE ALARM NON-ABORTIVELY.
000791: 31,3415           01410                           OCT      01410
000792:
000793: 31,3416           04616        RATESTOP           TC       BANKCALL                              #  CLEAN UP AFTER LAST FINDCDUW
000794:


000796: 31,3417           40165                           CADR     STOPRATE
000797:
000798: 31,3420           13426                           TCF      DISPEXIT
000799:
000800: 31,3421           02247        GDUMP1             TC       THROTTLE
000801: 31,3422           06036                           TC       INTPRET
000802: 31,3423           77624                           CALL
000803: 31,3424           61062                                    FINDCDUW   -2
000804: 31,3425           77776                           EXIT
000805:
000806:                                                                                                  #                                                    (CONTINUE TO DISPEXIT)
000807:
000808:
000809:                                                                                                  #  ****************************************************************************************************************
000810:                                                                                                  #  GUIDANCE LOOP DISPLAYS
000811:                                                                                                  #  ****************************************************************************************************************
000812:
000813: 31,3426           00006        DISPEXIT           EXTEND                                         #  KILL GROUP 3:  DISPLAYS WILL BE
000814: 31,3427           34755                           DCA      NEG0                                  #    RESTORED BY NEXT GUIDANCE CYCLE
000815: 31,3430           52757                           DXCH     -PHASE3
000816:
000817: 31,3431           40104                           CS       FLAGWRD8                              #  IF FLUNDISP SET, NO DISPLAY THIS PASS
000818: 31,3432           74742                           MASK     FLUNDBIT
000819: 31,3433           00006                           EXTEND
000820: 31,3434           13444                           BZF      ENDLLJOB                              #  TO PICK UP THE TAG
000821:
000822: 31,3435           51617                           INDEX    WCHPHOLD
000823: 31,3436           12502                           TCF      WHATDISP
000824:
000825: 31,3437           05353                 -2        TC       PHASCHNG                              #  KILL GROUP 5
000826: 31,3440           00035                           OCT      00035
000827:
000828: 31,3441           33765        P63DISPS           CAF      V06N63
000829: 31,3442           04616        DISPCOMN           TC       BANKCALL
000830: 31,3443           20346                           CADR     REGODSPR
000831:
000832: 31,3444           15155        ENDLLJOB           TCF      ENDOFJOB
000833:
000834: 31,3445           31664        P64DISPS           CA       TREDES                                #  HAS TREDES REACHED ZERO?
000835: 31,3446           00006                           EXTEND
000836: 31,3447           13471                           BZF      RED-OVER                              #  YES:  CLEAR REDESIGNATION FLAG
000837:
000838: 31,3450           40102                           CS       FLAGWRD6                              #  NO:   IS REDFLAG SET?
000839: 31,3451           74746                           MASK     REDFLBIT
000840: 31,3452           00006                           EXTEND
000841: 31,3453           13473                           BZF      REDES-OK                              #  YES:  DO STATIC DISPLAY
000842:
000843: 31,3454           33766                           CAF      V06N64                                #  OTHERWISE USE FLASHING DISPLAY
000844: 31,3455           04616                           TC       BANKCALL
000845:


000847: 31,3456           20340                           CADR     REFLASHR
000848: 31,3457           16001                           TCF      GOTOPOOH                              #  TERMINATE
000849: 31,3460           13463                           TCF      P64CEED                               #  PROCEED    PERMIT REDESIGNATIONS
000850: 31,3461           13445                           TCF      P64DISPS                              #  RECYCLE
000851:
000852: 31,3462           13444                           TCF      ENDLLJOB                              #  TO PICK UP THE TAG
000853:
000854: 31,3463           34755        P64CEED            CAF      ZERO
000855: 31,3464           55642                           TS       ELINCR1
000856: 31,3465           55643                           TS       AZINCR1
000857:
000858: 31,3466           05504                           TC       UPFLAG                                #  ENABLE REDESIGNATION LOGIC
000859: 31,3467           00143                           ADRES    REDFLAG
000860:
000861: 31,3470           15155                           TCF      ENDOFJOB
000862:
000863: 31,3471           05516        RED-OVER           TC       DOWNFLAG
000864: 31,3472           00143                           ADRES    REDFLAG
000865: 31,3473           33766        REDES-OK           CAF      V06N64
000866: 31,3474           13442                           TCF      DISPCOMN
000867:
000868:
000869: 31,3475           33767        VERTDISP           CAF      V06N60
000870: 31,3476           13442                           TCF      DISPCOMN
000871:
000872:
000873:                                                                                                  #  ****************************************************************************************************************
000874:                                                                                                  #  GUIDANCE FOR VERTICAL DESCENT
000875:                                                                                                  #  ****************************************************************************************************************
000876:
000877: 31,3477           11645        VERTGUID           CCS      WCHVERT
000878: 31,3500           13426                           TCF      DISPEXIT                              #  POSITIVE   P67, WHICH SKIPS ALL GUIDANCE
000879: 31,3501           13516                           TCF      P66VERT                               #  +0
000880:
000881:                                                                                                  #           THE P65 GUIDANCE EQUATION IS AS FOLLOWS:-
000882:
000883:                                                                                                  #                            -         -
000884:                                                                                                  #                      -     VDGVERT - VGU          -
000885:                                                                                                  #                      ACG = -------------  , WHERE VDGVERT = (-3FPS,0,0)
000886:                                                                                                  #                               TAUVERT
000887:
000888: 31,3502           00006        P65VERT            EXTEND                                         #  NEGATIVE
000889: 31,3503           43760                           DCS      +3FPS
000890: 31,3504           53643                           DXCH     VDGVERT
000891: 31,3505           06036                           TC       INTPRET
000892: 31,3506           65375                           VLOAD    PDDL
000893: 31,3507           06424                                    ZEROVECS
000894: 31,3510           03643                                    VDGVERT
000895: 31,3511           52266                           VDEF     VSU                                   #  FORM (VDGVERT,0,0), LEAVING DP 0 IN PDL
000896: 31,3512           03625                                    VGU
000897:


000899: 31,3513           52141                           V/SC     GOTO
000900: 31,3514           23745                                    TAUVERT
000901: 31,3515           63174                                    AFCCALC1
000902:
000903:
000904:                                                                                                  #           THE R.O.D. EQUATION IS AS FOLLOWS:-
000905:
000906:                                                                                                  #                             (VDGVERTX - VGUX)/TAUVERT - GMOON
000907:                                                                                                  #                     /AFC/ = ---------------------------------
000908:                                                                                                  #                                       UNIT/R/ . XNB
000909:
000910: 31,3516           57644        P66VERT            XCH      RODCOUNT                              #  RESTART COULD CAUSE RODCOUNTS TO BE LOST
000911: 31,3517           00006                           EXTEND
000912: 31,3520           73756                           MP       +1FPS
000913: 31,3521           21643                           DAS      VDGVERT
000914: 31,3522           03721                           TC       FASTCHNG
000915: 31,3523           06036                           TC       INTPRET
000916: 31,3524           45345                           DLOAD    DSU
000917: 31,3525           03643                                    VDGVERT
000918: 31,3526           03625                                    VGU
000919: 31,3527           45271                           DDV      DSU
000920: 31,3530           23747                                    TAUROD
000921: 31,3531           22010                                    MOONG
000922: 31,3532           50315                           PDVL     DOT                                   #  HAVE ACC IN UNITS OF 2(-2) M/CS/CS
000923: 31,3533           02146                                    XNBPIP
000924: 31,3534           03535                                    UNIT/R/
000925: 31,3535           45465                           BDDV     STADR
000926: 31,3536           74203                           STORE    /AFC/
000927: 31,3537           77404                           BOVB     EXIT
000928: 31,3540           63414                                    EXOVFLOW
000929: 31,3541           02247                           TC       THROTTLE
000930: 31,3542           13426                           TCF      DISPEXIT
000931:
000932:
000933:                                                                                                  #  ****************************************************************************************************************
000934:                                                                                                  #  REDESIGNATOR TRAP
000935:                                                                                                  #  ****************************************************************************************************************
000936:
000937: 21,2006                                           BANK     21
000938: 21,2000                                           SETLOC   F2DPS*21
000939: 21,2000                                           BANK
000940:
000941: 21,2006                                           COUNT*   $$/F2DPS
000942:
000943: 21,2006           56016        PITFALL            XCH      BANKRUPT
000944: 21,2007           00006                           EXTEND
000945: 21,2010           22012                           QXCH     QRUPT
000946:
000947: 21,2011           05321                           TC       CHECKMM                               #  IF NOT IN P64, NO REASON TO CONTINUE
000948: 21,2012           00100                           DEC      64         B-14
000949:


000951: 21,2013           15270                           TCF      RESUME
000952:
000953: 21,2014           00006                           EXTEND
000954: 21,2015           00031                           READ     CHAN31
000955: 21,2016           40000                           COM
000956: 21,2017           72077                           MASK     ALL4BITS
000957: 21,2020           55645                           TS       ELVIRA
000958: 21,2021           34752                           CAF      TWO
000959: 21,2022           55644                           TS       ZERLINA
000960: 21,2023           34756                           CAF      FIVE
000961: 21,2024           05173                           TC       TWIDDLE
000962: 21,2025           02032                           ADRES    REDESMON
000963: 21,2026           15270                           TCF      RESUME
000964:
000965:
000966:                                                                                                  #  REDESIGNATION MONITOR (INITIATED BY PITFALL)
000967:
000968:
000969: 21,2027           55644        PREMON1            TS       ZERLINA
000970: 21,2030           34757        PREMON2            CAF      SEVEN
000971: 21,2031           05224                           TC       VARDELAY
000972: 21,2032           00006        REDESMON           EXTEND
000973: 21,2033           00031                           READ     31
000974: 21,2034           40000                           COM
000975: 21,2035           72077                           MASK     ALL4BITS
000976: 21,2036           57645                           XCH      ELVIRA
000977: 21,2037           54001                           TS       L
000978: 21,2040           11645                           CCS      ELVIRA                                #  DO ANY BITS APPEAR THIS PASS?
000979: 21,2041           12030                           TCF      PREMON2                               #    Y: CONTINUE MONITOR
000980:
000981: 21,2042           10001                           CCS      L                                     #    N: ANY LAST PASS?
000982: 21,2043           12052                           TCF      COUNT'EM                              #       Y: COUNT 'EM, RESET RUPT, TERMINATE
000983: 21,2044           11644                           CCS      ZERLINA                               #       N: HAS ZERLINA REACHED ZERO YET?
000984: 21,2045           12027                           TCF      PREMON1                               #          N: DIMINISH ZERLINA, CONTINUE
000985: 21,2046           34740        RESETRPT           CAF      BIT12                                 #          Y: RESET RUPT, TERMINATE
000986: 21,2047           00006                           EXTEND
000987: 21,2050           05013                           WOR      CHAN13
000988: 21,2051           15261                           TCF      TASKOVER
000989:
000990: 21,2052           30001        COUNT'EM           CA       L
000991: 21,2053           74746                           MASK     -AZBIT
000992: 21,2054           10000                           CCS      A
000993: 21,2055           42100        -AZ                CS       AZEACH
000994: 21,2056           27643                           ADS      AZINCR1
000995: 21,2057           30001                           CA       L
000996: 21,2060           74747                           MASK     +AZBIT
000997: 21,2061           10000                           CCS      A
000998: 21,2062           32100        +AZ                CA       AZEACH
000999: 21,2063           27643                           ADS      AZINCR1
001000: 21,2064           30001                           CA       L
001001:


001003: 21,2065           74753                           MASK     -ELBIT
001004: 21,2066           10000                           CCS      A
001005: 21,2067           42101        -EL                CS       ELEACH
001006: 21,2070           27642                           ADS      ELINCR1
001007: 21,2071           30001                           CA       L
001008: 21,2072           74752                           MASK     +ELBIT
001009: 21,2073           10000                           CCS      A
001010: 21,2074           32101        +EL                CA       ELEACH
001011: 21,2075           27642                           ADS      ELINCR1
001012: 21,2076           12046                           TCF      RESETRPT
001013:
001014:
001015:                                                                                                  #  THESE EQUIVALENCIES ARE BASED ON GSOP CHAPTER 4, REVISION 16 OF P64LM
001016:
001017: 21,2077     4752               +ELBIT             =        BIT2                                  #  -PITCH
001018:
001019:
001020: 21,2077     4753               -ELBIT             =        BIT1                                  #  +PITCH
001021:
001022:
001023: 21,2077     4747               +AZBIT             =        BIT5
001024:
001025:
001026: 21,2077     4746               -AZBIT             =        BIT6
001027:
001028: 21,2077           00063        ALL4BITS           OCT      00063
001029:
001030:
001031: 21,2100           01074        AZEACH             DEC      .03491                                #  2 DEGREES
001032:
001033:
001034: 21,2101           00217        ELEACH             DEC      .00873                                #  1/2 DEGREE
001035:
001036:
001037:                                                                                                  #  ****************************************************************************************************************
001038:                                                                                                  #  R.O.D. TRAP
001039:                                                                                                  #  ************************************************************************
001040:
001041: 20,2115                                           BANK     20
001042: 20,2000                                           SETLOC   RODTRAP
001043: 20,2000                                           BANK
001044: 20,2115                                           COUNT*   $$/F2DPS                              #  ****************************************
001045:
001046: 20,2115           74745        DESCBITS           MASK     BIT7                                  #  COME HERE FROM MARKRUPT CODING WITH BIT
001047: 20,2116           10000                           CCS      A                                     #    7 OR 6 OF CHANNEL 16 IN A: BIT 7 MEANS
001048: 20,2117           44752                           CS       TWO                                   #    - RATE INCREMENT, BIT 6 + INCREMENT
001049: 20,2120           64753                           AD       ONE
001050: 20,2121           27644                           ADS      RODCOUNT
001051:


001053: 20,2122           15270                           TCF      RESUME                                #  TRAP IS RESET WHEN SWITCH IS RELEASED
001054:
001055:
001056: 31,3543                                           BANK     31
001057: 31,2000                                           SETLOC   F2DPS*31
001058: 31,2000                                           BANK
001059:
001060: 31,3543                                           COUNT*   $$/F2DPS
001061:
001062:                                                                                                  #  ****************************************************************************************************************
001063:                                                                                                  #  DOUBLE PRECISION ROOT FINDER SUBROUTINE (BY ALLAN KLUMPP)
001064:                                                                                                  #  ****************************************************************************************************************
001065:
001066:                                                                                                  #                                                          N        N-1
001067:                                                                                                  #           ROOTPSRS FINDS ONE ROOT OF THE POWER SERIES A X  + A   X    + ... + A X + A
001068:                                                                                                  #                                                        N      N-1              1     0
001069:
001070:                                                                                                  #  USING NEWTON'S METHOD STARTING WITH AN INITIAL GUESS FOR THE ROOT.  THE ENTERING DATA MUST BE AS FOLLOWS:
001071:
001072:                                                                                                  #                                          A        SP     LOC-3            ADRES FOR REFERENCING PWR COF TABL
001073:                                                                                                  #                                          L        SP     N-1              N IS THE DEGREE OF THE POWER SERIES
001074:                                                                                                  #                                          MPAC     DP     X                INITIAL GUESS FOR ROOT
001075:
001076:                                                                                                  #                                          LOC-2N   DP     A(0)
001077:                                                                                                  #                                                   ...
001078:                                                                                                  #                                          LOC      DP     A(N)
001079:                                                                                                  #                                          LOC+2    SP     PRECROOT         PREC RQD OF ROOT (AS FRACT OF 1ST GUESS)
001080:
001081:                                                                                                  #  THE DP RESULT IS LEFT IN MPAC UPON EXIT, AND A SP COUNT OF THE ITERATIONS TO CONVERGENCE IS LEFT IN MPAC+2.
001082:                                                                                                  #  RETURN IS NORMALLY TO LOC(TC ROOTPSRS)+3.   IF ROOTPSRS FAILS TO CONVERGE IN 32 PASSES, RETURN IS TO LOC+1 AND
001083:                                                                                                  #  OUTPUTS ARE NOT TO BE TRUSTED.
001084:
001085:                                                                                                  #           PRECAUTION: ROOTPSRS MAKES NO CHECKS FOR OVERFLOW OR FOR IMPROPER USAGE. IMPROPER USAGE COULD
001086:                                                                                                  #  PRECLUDE CONVERGENCE OR REQUIRE EXCESSIVE ITERATIONS. AS A SPECIFIC EXAMPLE, ROOTPSRS FORMS A DERIVATIVE
001087:                                                                                                  #  COEFFICIENT TABLE BY MULTIPLYING EACH A(I) BY I, WHERE I RANGES FROM 1 TO N. IF AN ELEMENT OF THE DERIVATIVE
001088:                                                                                                  #  COEFFICIENT TABLE = 1 OR > 1 IN MAGNITUDE, ONLY THE EXCESS IS RETAINED. ROOTPSRS MAY CONVERGE ON THE CORRECT
001089:                                                                                                  #  ROOT NONETHELESS, BUT IT MAY TAKE AN EXCESSIVE NUMBER OF ITERATIONS. THEREFORE THE USER SHOULD RECOGNIZE:
001090:
001091:                                                                                                  #  1. USER'S RESPONSIBILITY TO ASSURE THAT I X A(I) < 1 IN MAGNITUDE FOR ALL I.
001092:
001093:                                                                                                  #  2. USER'S RESPONSIBILITY TO ASSURE OVERFLOW WILL NOT OCCUR IN EVALUATING EITHER THE RESIDUAL OR THE DERIVATIVE
001094:                                                                                                  #     POWER SERIES.   THIS OVERFLOW WOULD BE PRODUCED BY SUBROUTINE POWRSERS, CALLED BY ROOTPSRS, AND MIGHT NOT
001095:                                                                                                  #     PRECLUDE EVENTUAL CONVERGENCE.
001096:
001097:                                                                                                  #  3. AT PRESENT, ERASABLE LOCATIONS ARE RESERVED ONLY FOR N UP TO 5.  AN N IN EXCESS OF 5 WILL PRODUCE CHAOS.
001098:                                                                                                  #     ALL ERASABLES USED BY ROOTPSRS ARE UNSWITCHED LOCATED IN THE REGION FROM MPAC-33 OCT TO MPAC+7.
001099:
001100:                                                                                                  #  4. THE ITERATION COUNT RETURNED IN MPAC+2 MAY BE USED TO DETECT ABNORMAL PERFORMANCE.
001101:
001102:                                                                                                  #                                                                          STORE ENTERING DATA, INITLIZE ERASABLES
001103:


001105: 31,3543           00006        ROOTPSRS           EXTEND
001106: 31,3544           22132                           QXCH     RETROOT                               #  RETURN ADRES
001107: 31,3545           54117                           TS       PWRPTR                                #  PWR TABL POINTER
001108: 31,3546           52160                           DXCH     MPAC       +3                         #  PWR TABL ADRES, N-1
001109: 31,3547           33666                           CA       DERTABLL
001110: 31,3550           54141                           TS       DERPTR                                #  DER TABL POINTER
001111: 31,3551           54161                           TS       MPAC       +5                         #  DER TABL ADRES
001112: 31,3552           10160                           CCS      MPAC       +4                         #  NO POWER SERIES OF DEGREE 1 OR LESS
001113: 31,3553           54162                           TS       MPAC       +6                         #  N-2
001114: 31,3554           34755                           CA       ZERO                                  #  MODE USED AS ITERATION COUNTER. MODE
001115: 31,3555           54163                           TS       MODE                                  #  MUST BE POS SO ABS WON'T COMP MPAC+3 ETC
001116:
001117:                                                                                                  #  COMPUTE CRITERION TO STOP ITERATING
001118:
001119: 31,3556           00006                           EXTEND
001120: 31,3557           30155                           DCA      MPAC                                  #  FETCH ROOT GUESS, KEEPING IT IN MPAC
001121: 31,3560           52127                           DXCH     ROOTPS                                #  AND IN ROOTPS
001122: 31,3561           50157                           INDEX    MPAC       +3                         #  PWR TABL ADRES
001123: 31,3562           30005                           CA       5                                     #  PRECROOT TO A
001124: 31,3563           07306                           TC       SHORTMP                               #  YIELDS DP PRODUCT IN MPAC
001125: 31,3564           04713                           TC       USPRCADR
001126: 31,3565           01226                           CADR     ABS                                   #  YIELDS ABVAL OF CRITERION ON DX IN MPAC
001127: 31,3566           52155                           DXCH     MPAC
001128: 31,3567           52125                           DXCH     DXCRIT                                #  CRITERION
001129:
001130:                                                                                                  #  SET UP DER COF TABL
001131:
001132: 31,3570           00006                           EXTEND
001133: 31,3571           50117                           INDEX    PWRPTR
001134: 31,3572           30004                           DCA      3
001135: 31,3573           52155                           DXCH     MPAC                                  #  A(N) TO MPAC
001136:
001137: 31,3574           30160                           CA       MPAC       +4                         #  N-1 TO A
001138:
001139: 31,3575           54140        DERCLOOP           TS       PWRCNT                                #  LOOP COUNTER
001140: 31,3576           64753                           AD       ONE
001141: 31,3577           07315                           TC       DMPNSUB                               #  YIELDS DERCOF = I X A(I) IN MPAC
001142: 31,3600           00006                           EXTEND
001143: 31,3601           50117                           INDEX    PWRPTR
001144: 31,3602           30002                           DCA      1
001145: 31,3603           52155                           DXCH     MPAC                                  #  A(I-1) TO MPAC, FETCHING DERCOF
001146: 31,3604           50141                           INDEX    DERPTR
001147: 31,3605           52004                           DXCH     3                                     #  DERCOF TO DER TABL
001148: 31,3606           44752                           CS       TWO
001149: 31,3607           26117                           ADS      PWRPTR                                #  DECREMENT PWR POINTER
001150: 31,3610           44752                           CS       TWO
001151: 31,3611           26141                           ADS      DERPTR                                #  DECREMENT DER POINTER
001152: 31,3612           10140                           CCS      PWRCNT
001153: 31,3613           13575                           TCF      DERCLOOP
001154:
001155:


001157:                                                                                                  #  CONVERGE ON ROOT
001158:
001159: 31,3614           00006        ROOTLOOP           EXTEND
001160: 31,3615           30127                           DCA      ROOTPS                                #  FETCH CURRENT ROOT
001161: 31,3616           52155                           DXCH     MPAC                                  #  LEAVE IN MPAC
001162: 31,3617           00006                           EXTEND
001163: 31,3620           30162                           DCA      MPAC       +5                         #  LOAD A, L WITH DER TABL ADRES, N-2
001164: 31,3621           07214                           TC       POWRSERS                              #  YIELDS DERIVATIVE IN MPAC
001165:
001166: 31,3622           00006                           EXTEND
001167: 31,3623           30127                           DCA      ROOTPS
001168: 31,3624           52155                           DXCH     MPAC                                  #  CURRENT ROOT TO MPAC, FETCHING DERIVTIVE
001169: 31,3625           52131                           DXCH     BUF                                   #  LEAVE DERIVATIVE IN BUF AS DIVISOR
001170: 31,3626           00006                           EXTEND
001171: 31,3627           30160                           DCA      MPAC       +3                         #  LOAD A, L WITH PWR TABL ADRES, N-1
001172: 31,3630           07214                           TC       POWRSERS                              #  YIELDS RESIDUAL IN MPAC
001173:
001174: 31,3631           04713                           TC       USPRCADR
001175: 31,3632           00353                           CADR     DDV/BDDV                              #  YIELDS -DX IN MPAC
001176:
001177: 31,3633           00006                           EXTEND
001178: 31,3634           40155                           DCS      MPAC                                  #  FETCH DX, LEAVING -DX IN MPAC
001179: 31,3635           20127                           DAS      ROOTPS                                #  CORRECTED ROOT NOW IN ROOTPS
001180:
001181: 31,3636           04713                           TC       USPRCADR
001182: 31,3637           01226                           CADR     ABS                                   #  YIELDS ABS(DX) IN MPAC
001183: 31,3640           00006                           EXTEND
001184: 31,3641           40125                           DCS      DXCRIT
001185: 31,3642           20155                           DAS      MPAC                                  #  ABS(DX)-ABS(DXCRIT) IN MPAC
001186:
001187: 31,3643           24163                           INCR     MODE                                  #  INCREMENT ITERATION COUNTER
001188: 31,3644           30163                           CA       MODE
001189: 31,3645           74750                           MASK     BIT4                                  #  KLUMPP SAYS GIVE UP AFTER EIGHT PASSES
001190: 31,3646           10000                           CCS      A
001191: 31,3647           00132        BADROOT            TC       RETROOT
001192:
001193: 31,3650           10154                           CCS      MPAC                                  #  TEST HI ORDER DX
001194: 31,3651           13614                           TCF      ROOTLOOP
001195: 31,3652           13654                           TCF      TESTLODX
001196: 31,3653           13660                           TCF      ROOTSTOR
001197: 31,3654           10155        TESTLODX           CCS      MPAC       +1                         #  TEST LO ORDER DX
001198: 31,3655           13614                           TCF      ROOTLOOP
001199: 31,3656           13660                           TCF      ROOTSTOR
001200: 31,3657           13660                           TCF      ROOTSTOR
001201: 31,3660           52127        ROOTSTOR           DXCH     ROOTPS
001202: 31,3661           52155                           DXCH     MPAC
001203: 31,3662           30163                           CA       MODE
001204: 31,3663           54156                           TS       MPAC       +2                         #  STORE SP ITERATION COUNT IN MPAC+2
001205: 31,3664           50132                           INDEX    RETROOT
001206: 31,3665           10002                           TCF      2
001207:


001209:
001210: 31,3666           00147        DERTABLL           ADRES    DERCOFN    -3
001211:
001212:                                                                                                  #  ****************************************************************************************************************
001213:                                                                                                  #  TRASHY LITTLE SUBROUTINES
001214:                                                                                                  #  ****************************************************************************************************************
001215:
001216: 31,3667           51620        INTPRETX           INDEX    WCHPHASE                              #  SET X1 ON THE WAY TO THE INTERPRETER
001217: 31,3670           42510                           CS       TARGTDEX
001218: 31,3671           50120                           INDEX    FIXLOC
001219: 31,3672           54046                           TS       X1
001220: 31,3673           16036                           TCF      INTPRET
001221:
001222:
001223: 31,3674           31640        TDISPSET           CA       TTF/8
001224: 31,3675           00006                           EXTEND
001225: 31,3676           74750                           MP       TSCALINV
001226: 31,3677           53474                           DXCH     TTFDISP
001227:
001228: 31,3700           31640                           CA       TTF/8
001229: 31,3701           00006                           EXTEND
001230: 31,3702           73740                           MP       SCTTFDSP
001231: 31,3703           54001                           TS       L
001232: 31,3704           63736                           AD       99+LINT
001233: 31,3705           00006                           EXTEND
001234: 31,3706           63717                           BZMF     +11
001235: 31,3707           40001                           CS       L
001236: 31,3710           63737                           AD       -LINT
001237: 31,3711           00006                           EXTEND
001238: 31,3712           63715                           BZMF     +3
001239: 31,3713           55664                           TS       TREDES
001240: 31,3714           00002                           TC       Q
001241:
001242: 31,3715           34755                           CA       ZERO
001243: 31,3716           13713                           TCF      -3
001244:
001245: 31,3717           33736                           CA       99+LINT
001246: 31,3720           13710                           TCF      -10
001247:
001248:
001249:                                                                                                  #  ****************************************************************************************************************
001250:                                                                                                  #  SPECIALIZED "PHASCHNG" SUBROUTINE
001251:                                                                                                  #  ****************************************************************************************************************
001252:
001253: 31,3721  E3,1440                                  EBANK=   PHSNAME2
001254: 31,3721           35007        FASTCHNG           CA       EBANK3                                #  SPECIALIZED 'PHASCHNG' ROUTINE
001255: 31,3722           56003                           XCH      EBANK
001256: 31,3723           52002                           DXCH     L
001257: 31,3724           55442                           TS       PHSNAME3
001258: 31,3725           22003                           LXCH     EBANK
001259:


001261: 31,3726  E7,1617                                  EBANK=   E2DPS
001262: 31,3726           00000                           TC       A
001263:
001264:
001265:                                                                                                  #  ****************************************************************************************************************
001266:                                                                                                  #  PARAMETER TABLE INDIRECT ADDRESSES
001267:                                                                                                  #  ****************************************************************************************************************
001268:
001269: 31,3727  E5,1402               RDG                =        RBRFG
001270: 31,3727  E5,1410               VDG                =        VBRFG
001271: 31,3727  E5,1416               ADG                =        ABRFG
001272: 31,3727  E5,1424               VDG2TTF            =        VBRFG*
001273: 31,3727  E5,1426               ADG2TTF            =        ABRFG*
001274: 31,3727  E5,1430               JDG2TTF            =        JBRFG*
001275:
001276:                                                                                                  #  ****************************************************************************************************************
001277:                                                                                                  #  LUNAR LANDING CONSTANTS
001278:                                                                                                  #  ***************************************************************************************************************
001279:
001280: 31,3727           00046        3SEC*17            DEC      +3         E2         B-17
001281:
001282:
001283: 31,3730           00175        10SEC*17           DEC      +10        E2         B-17
001284:
001285:
001286: 31,3731           00372        20SEC*17           DEC      +20        E2         B-17
001287:
001288:
001289: 31,3732           00567        30SEC*17           DEC      +30        E2         B-17
001290:
001291:
001292: 31,3733           01563        TABLTTFL           ADRES    TABLTTF    +3                         #  ADDRESS FOR REFERENCING TTF TABLE
001293:
001294:
001295: 31,3734           00021 11422  HIGHESTF           2DEC     +43245     E-4        B-12            #  THRUST FOR RADIAL CONTROL
001296: 31,3736     4740               TTFSCALE           =        BIT12
001297:
001298:
001299: 31,3736     4750               TSCALINV           =        BIT4
001300:
001301:
001302: 31,3736           00167        99+LINT            DEC      +119       B-14
001303:
001304:
001305: 31,3737           77753        -LINT              DEC      -20        B-14
001306:
001307:
001308: 31,3740           02437        SCTTFDSP           DEC      .08                                   #  RESCALES FROM 2(-17) CS TO WHOLE SECONDS
001309:
001310:


001312: 31,3741           00264        180DEGS            DEC      +180       B-14
001313:
001314:
001315: 31,3742           00056        1/2DEG             DEC      +.00278
001316:
001317:
001318: 31,3743           74110        DELTTFAP           DEC      -158       E2         B-17
001319:
001320:
001321: 31,3744           01130 00000  TAUVERT            2DEC     600        B-14
001322:
001323:
001324: 31,3746           02260 00000  TAUROD             2DEC     300        B-12
001325:
001326:
001327: 31,3750           01440 00000  GSCALE             2DEC     100        B-11
001328:
001329:
001330: 31,3752           14000 00000  3/8DP              2DEC     .375000000
001331:
001332:
001333: 31,3754           30000 00000  3/4DP              2DEC     .750000000
001334: 31,3756           01437        +1FPS              DEC      .3048      E-2        B+4
001335:
001336:
001337: 31,3757           00000 04535  +3FPS              2DEC     +0.9144    E-2        B-10
001338:
001339:
001340: 31,3761           77656 42436  DEPRCRIT           2DEC     -.02       B-2                        #  DEPRESSION ANGLE CRITERION
001341:
001342:
001343: 31,3763           01542        PROJMAX            DEC      .42262     B-3                        #  SIN(25')/8 TO COMPARE WITH PROJ
001344:
001345:
001346: 31,3764           01022        PROJMIN            DEC      .25882     B-3                        #  SIN(15')/8 TO COMPARE WITH PROJ
001347:
001348:
001349: 31,3765           01477        V06N63             VN       0663                                  #  P63
001350:
001351: 31,3766           01500        V06N64             VN       0664                                  #  P64
001352:
001353: 31,3767           01474        V06N60             VN       0660                                  #  P65, P66, P67
001354:


001356:                                                                                                  #  ****************************************************************************************************************
001357:                                                                                                  #  ****************************************************************************************************************

End of include-file LUNAR_LANDING_GUIDANCE_EQUATIONS.agc.  Parent file is MAIN.agc


