
Source Code


000002:                                                                                                  ## Copyright:   Public domain.
000003:                                                                                                  ## Filename:    P30,P37.agc
000004:                                                                                                  ## Purpose:     A section of LUM69 revision 2.
000005:                                                                                                  ##              It is part of the reconstructed source code for the flown
000006:                                                                                                  ##              version of the flight software for the Lunar Module's (LM)
000007:                                                                                                  ##              Apollo Guidance Computer (AGC) for Apollo 10. The code has
000008:                                                                                                  ##              been recreated from a copy of Luminary revsion 069, using
000009:                                                                                                  ##              changes present in Luminary 099 which were described in
000010:                                                                                                  ##              Luminary memos 75 and 78. The code has been adapted such
000011:                                                                                                  ##              that the resulting bugger words exactly match those specified
000012:                                                                                                  ##              for LUM69 revision 2 in NASA drawing 2021152B, which gives
000013:                                                                                                  ##              relatively high confidence that the reconstruction is correct.
000014:                                                                                                  ## Reference:   pp. 624-627
000015:                                                                                                  ## Assembler:   yaYUL
000016:                                                                                                  ## Contact:     Ron Burkey <info@sandroid.org>.
000017:                                                                                                  ## Website:     www.ibiblio.org/apollo/index.html
000018:                                                                                                  ## Mod history: 2019-07-27 MAS  Created from Luminary 69.
000019:


000021:                                                                                                  #  PROGRAM DESCRIPTION P30       DATE 3-6-67
000022:
000023:                                                                                                  #  MOD.1 BY RAMA AIYAWAR
000024:                                                                                                  #  FUNCTIONAL DESCRIPTION
000025:                                                                                                  #        ACCEPT ASTRONAUT INPUTS OF TIG,DELV(LV)
000026:                                                                                                  #        CALL IMU STATUS CHECK ROUTINE (R02)
000027:                                                                                                  #        DISPLAY TIME TO GO, APOGEE, PERIGEE, DELV(MAG), MGA AT IGN
000028:                                                                                                  #        REQUEST BURN PROGRAM
000029:
000030:                                                                                                  #  CALLING SEQUENCE VIA JOB FROM V37
000031:
000032:                                                                                                  #  EXIT VIA V37 CALL OR TO GOTOPOOH (V34E)
000033:
000034:                                                                                                  #  SUBROUTINE CALLS -    FLAGUP, PHASCHNG, BANKCALL, ENDOFJOB, GOFLASH, GOFLASHR
000035:                                                                                                  #                        GOPERF3R, INTPRET, BLANKET, GOTOPOOH, R02BOTH, S30.1,
000036:                                                                                                  #                        TTG/N35, MIDGIM, DISPMGA
000037:
000038:                                                                                                  #  ERASABLE INITIALIZATION - STATE VECTOR
000039:
000040:                                                                                                  #  OUTPUT-RINIT, VINIT, +MGA, VTIG, RTIG, DELVSIN, DELVSAB, DELVSLV, HAPO,
000041:                                                                                                  #         HPER, TTOGO
000042:
000043:                                                                                                  #  DEBRIS- A,L, MPAC, PUSHLIST
000044:
000045: 32,2772                                           BANK     32
000046: 35,2000                                           SETLOC   P30S
000047: 35,2000                                           BANK
000048: 35,2000  E4,1656                                  EBANK=   +MGA
000049: 35,2000                                           COUNT*   $$/P30
000050: 35,2000           05504        P30                TC       UPFLAG                                #  SET UPDATE FLAG
000051: 35,2001           00027                           ADRES    UPDATFLG
000052: 35,2002           05504                           TC       UPFLAG                                #  SET TRACK FLAG
000053: 35,2003           00031                           ADRES    TRACKFLG
000054:
000055: 35,2004           32025        P30N33             CAF      V06N33                                #  T OF IGN
000056: 35,2005           03651                           TC       VNPOOH                                #  RETURNS ON PROCEED, POOH ON TERMINATE
000057:
000058: 35,2006           33666                           CAF      V06N81                                #  DISPLAY DELTA V (LV)
000059: 35,2007           03651                           TC       VNPOOH                                #        REDISPLAY ON RECYCLE
000060:
000061: 35,2010           05516                           TC       DOWNFLAG                              #  RESET UPDATE FLAG
000062: 35,2011           00027                           ADRES    UPDATFLG
000063: 35,2012           06036                           TC       INTPRET
000064: 35,2013           77624                           CALL
000065: 35,2014           70000                                    S30.1
000066: 35,2015           77414                           SET      EXIT
000067: 35,2016           00470                                    UPDATFLG
000068: 35,2017           32026        PARAM30            CAF      V06N42                                #  DISPLAY APOGEE,PERIGEE ,DELTA V
000069: 35,2020           03651                           TC       VNPOOH


000071:
000072: 35,2021           06036                           TC       INTPRET
000073: 35,2022           77614                           SETGO
000074: 35,2023           01027                                    XDELVFLG                              #  FOR P40'S: EXTERNAL DELTA-V GUIDANCE.
000075: 35,2024           72504                                    REVN1645                              #  TRKMKCNT, TGO, +MGA  DISPLAY
000076:
000077: 35,2025           01441        V06N33             VN       0633
000078: 35,2026           01452        V06N42             VN       0642
000079:


000081:                                                                                                  #  PROGRAM DESCRIPTION S30.1     DATE 9NOV66
000082:
000083:                                                                                                  #  MOD NO 1                      LOG SECTION P30,P37
000084:                                                                                                  #  MOD BY RAMA AIYAWAR **
000085:
000086:                                                                                                  #  FUNCTIONAL DESCRIPTION
000087:                                                                                                  #        BASED ON STORED TARGET PARAMETERS(R OF IGNITION (RTIG), V OF
000088:                                                                                                  #        IGNITION(VTIG), TIME OF IGNITION (TIG)),COMPUTE PERIGEE ALTITUDE
000089:                                                                                                  #        APOGEE ALTITUDE AND DELTAV REQUIRED(DELVSIN).
000090:
000091:                                                                                                  #  CALLING SEQUENCE
000092:                                                                                                  #        L       CALL
000093:                                                                                                  #        L+1             S30.1
000094:
000095:                                                                                                  #  NORMAL EXIT MODE
000096:                                                                                                  #        AT L+2 OR CALLING SEQUENCE (GOTO L+2)
000097:
000098:                                                                                                  #  SUBROUTINES CALLED
000099:                                                                                                  #        LEMPREC
000100:                                                                                                  #        PERIAPO
000101:
000102:                                                                                                  #  ALARM OR ABORT EXIT MODES
000103:                                                                                                  #                NONE
000104:
000105:                                                                                                  #  ERASABLE INITIALIZATION REQUIRED
000106:                                                                                                  #        TIG             TIME OF IGNITION                DP B28CS
000107:                                                                                                  #        DELVSLV         SPECIFIED DELTA-V IN LOCAL VERT.
000108:                                                                                                  #                        COORDS. OF ACTIVE VEHICLE AT
000109:                                                                                                  #                TIME OF IGNITION        VECTOR B+7 METERS/CS
000110:
000111:                                                                                                  #  OUTPUT
000112:                                                                                                  #        RTIG    POSITION AT TIG         VECTOR  B+29 METERS
000113:                                                                                                  #        VTIG    VELOCITY AT TIG         VECTOR  B+29 METERS/CS
000114:                                                                                                  #        PDL 4D  APOGEE ALTITUDE         DP      B+29 M ,  B+27 METERS.
000115:                                                                                                  #        HAPO    APOGEE ALTITUDE         DP      B+29 METERS
000116:                                                                                                  #        PDL 8D  PERIGEE ALTITUDE        DP      B+29 M ,  B+27 METERS.
000117:                                                                                                  #        HPER    PERIGEE ALTITUDE        DP      B+29 METERS
000118:                                                                                                  #        DELVSIN    SPECIFIED DELTA-V IN INERTIAL
000119:                                                                                                  #                   COORD. OF ACTIVE VEHICLE AT
000120:                                                                                                  #                TIME OF IGNITION        VECTOR  B+7 METERS/CS
000121:                                                                                                  #        DELVSAB MAG. OF DELVSIN         VECTOR  B+7 METERS/CS
000122:
000123:                                                                                                  #  DEBRIS        QTEMP   TEMP.ERASABLE
000124:                                                                                                  #                QPRET, MPAC
000125:                                                                                                  #                PUSHLIST
000126:
000127: 34,2000                                           SETLOC   P30S1
000128: 34,2000                                           BANK
000129:
000130: 34,2000                                           COUNT*   $$/S30S
000131:
000132: 34,2000           71220        S30.1              STQ      DLOAD
000133: 34,2001           03630                                    QTEMP
000134: 34,2002           03440                                    TIG                                   #  TIME IGNITION SCALED AT 2(+28)CS
000135: 34,2003           34041                           STCALL   TDEC1
000136: 34,2004           27057                                    LEMPREC                               #  ENCKE ROUTINE FOR LEM
000137:
000138: 34,2005           67175                           VLOAD    SXA,2


000140: 34,2006           00001                                    RATT
000141: 34,2007           03376                                    RTX2
000142: 34,2010           03640                           STORE    RTIG                                  #  RADIUS VECTOR AT IGNITION TIME
000143: 34,2011           57456                           UNIT     VCOMP
000144: 34,2012           27654                           STOVL    DELVSIN                               #  ZRF/LV IN DELVSIN SCALED AT 2
000145: 34,2013           00007                                    VATT                                  #  VELOCITY VECTOR AT TIG, SCALED 2(7) M/CS
000146: 34,2014           03646                           STORE    VTIG
000147: 34,2015           53435                           VXV      UNIT
000148: 34,2016           03640                                    RTIG
000149: 34,2017           66001                           SETPD    SXA,1
000150: 34,2020           00001                                    0
000151: 34,2021           03375                                    RTX1
000152: 34,2022           47206                           PUSH     VXV                                   #  YRF/LV PDL 0 SCALED AT 2
000153: 34,2023           03654                                    DELVSIN
000154: 34,2024           63372                           VSL1     PDVL
000155: 34,2025           63315                           PDVL     PDVL                                  #  YRF/LV PDL 6 SCALED AT 2
000156: 34,2026           03654                                    DELVSIN                               #  ZRF/LV PDL 12D SCALED AT 2
000157: 34,2027           03432                                    DELVSLV
000158: 34,2030           76505                           VXM      VSL1
000159: 34,2031           00001                                    0
000160: 34,2032           03654                           STORE    DELVSIN                               #  DELTAV IN INERT. COOR. SCALED TO B+7M/CS
000161: 34,2033           77646                           ABVAL
000162: 34,2034           27662                           STOVL    DELVSAB                               #  DELTA V MAG.
000163: 34,2035           03640                                    RTIG                                  #  (FOR PERIAPO)
000164: 34,2036           53315                           PDVL     VAD                                   #  VREQUIRED = VTIG + DELVSIN (FOR PERIAPO)
000165: 34,2037           03646                                    VTIG
000166: 34,2040           03654                                    DELVSIN
000167: 34,2041           77624                           CALL
000168: 34,2042           46277                                    PERIAPO1
000169: 34,2043           77624                           CALL
000170: 34,2044           46407                                    SHIFTR1                               #  RESCALE IF NEEDED
000171: 34,2045           77624                           CALL                                           #  LIMIT DISPLAY TO 9999.9 N. MI.
000172: 34,2046           45636                                    MAXCHK
000173: 34,2047           16325                           STODL    HPER                                  #  PERIGEE ALT 2(29) METERS, FOR DISPLAY
000174: 34,2050           00005                                    4D
000175: 34,2051           77624                           CALL
000176: 34,2052           46407                                    SHIFTR1                               #  RESCALE IF NEEDED
000177: 34,2053           77624                           CALL                                           #  LIMIT DISPLAY TO 9999.9 N. MI.
000178: 34,2054           45636                                    MAXCHK
000179: 34,2055           36323                           STCALL   HAPO                                  #  APOGEE ALT 2(29) METERS, FOR DISPLAY
000180: 34,2056           03630                                    QTEMP
000181:
000182:

End of include-file P30,P37.agc.  Parent file is MAIN.agc


