
Source Code


000002:                                                                                                  ## Copyright:   Public domain.
000003:                                                                                                  ## Filename:    P32-P35,_P72-P75.agc
000004:                                                                                                  ## Purpose:     A section of LUM69 revision 2.
000005:                                                                                                  ##              It is part of the reconstructed source code for the flown
000006:                                                                                                  ##              version of the flight software for the Lunar Module's (LM)
000007:                                                                                                  ##              Apollo Guidance Computer (AGC) for Apollo 10. The code has
000008:                                                                                                  ##              been recreated from a copy of Luminary revsion 069, using
000009:                                                                                                  ##              changes present in Luminary 099 which were described in
000010:                                                                                                  ##              Luminary memos 75 and 78. The code has been adapted such
000011:                                                                                                  ##              that the resulting bugger words exactly match those specified
000012:                                                                                                  ##              for LUM69 revision 2 in NASA drawing 2021152B, which gives
000013:                                                                                                  ##              relatively high confidence that the reconstruction is correct.
000014:                                                                                                  ## Reference:   pp. 628-660
000015:                                                                                                  ## Assembler:   yaYUL
000016:                                                                                                  ## Contact:     Ron Burkey <info@sandroid.org>.
000017:                                                                                                  ## Website:     www.ibiblio.org/apollo/index.html
000018:                                                                                                  ## Mod history: 2019-07-27 MAS  Created from Luminary 69.
000019:                                                                                                  ##              2021-05-30 ABS  TTPIO -> TTPI0
000020:                                                                                                  ##                              K10RK2 -> K1ORK2
000021:


000023:                                                                                                  #  COELLIPTIC SEQUENCE INITIATION (CSI) PROGRAMS (P32 AND P72)
000024:
000025:                                                                                                  #  MOD NO -1       LOG SECTION - P32-P35, P72-P75
000026:                                                                                                  #  MOD BY WHITE.P  DATE  1JUNE67
000027:
000028:                                                                                                  #  PURPOSE
000029:
000030:                                                                                                  #        (1) TO CALCULATE PARAMETERS ASSOCIATED WITH THE FOLLOWING
000031:                                                                                                  #            CONCENTRIC FLIGHT PLAN MANEUVERS - THE CO-ELLIPTIC SEQUENCE
000032:                                                                                                  #            INITIATION (CSI) MANEUVER AND THE CONSTANT DELTA ALTITUDE
000033:                                                                                                  #            (CDH) MANEUVER.
000034:
000035:                                                                                                  #        (2) TO CALCULATE THESE PARAMETERS BASED UPON MANEUVER DATA
000036:                                                                                                  #            APPROVED AND KEYED INTO THE DSKY BY THE ASTRONAUT.
000037:
000038:                                                                                                  #        (3) TO DISPLAY TO THE ASTRONAUT AND THE GROUND DEPENDENT VARIABLES
000039:                                                                                                  #            ASSOCIATED WITH THE CONCENTRIC FLIGNT PLAN MANEUVERS FOR
000040:                                                                                                  #            APPROVAL BY THE ASTRONAUT/GROUND.
000041:
000042:                                                                                                  #        (4) TO STORE THE CSI TARGET PARAMETERS FOR USE BY THE DESIRED
000043:                                                                                                  #            THRUSTING PROGRAM.
000044:
000045:                                                                                                  #  ASSUMPTIONS
000046:
000047:                                                                                                  #        (1) AT A SELECTED TPI TIME THE LINE OF SIGHT BETWEEN THE ACTIVE
000048:                                                                                                  #            AND PASSIVE VEHICLES IS SELECTED TO BE A PRESCRIBED ANGLE (E)
000049:                                                                                                  #            FROM THE HORIZONTAL PLANE DEFINED BY THE ACTIVE VEHICLE
000050:                                                                                                  #            POSITION.
000051:
000052:                                                                                                  #        (2) THE TIME BETWEEN CSI IGNITION AND CDH IGNITION MUST BE
000053:                                                                                                  #            COMPUTED TO BE GREATER THAN 10 MINUTES FOR SUCCESSFUL
000054:                                                                                                  #            COMPLETION OF THE PROGRAM.
000055:
000056:                                                                                                  #        (3) THE TIME BETWEEN CDH IGNITION AND TPI IGNITION MUST BE
000057:                                                                                                  #            COMPUTED TO BE GREATER THAN 10 MINUTES FOR SUCCESSFUL
000058:                                                                                                  #            COMPLETION OF THE PROGRAM.
000059:
000060:                                                                                                  #        (4) CDH DELTA V IS SELECTED TO MINIMIZE THE VARIATION OF THE
000061:                                                                                                  #            ALTITUDE DIFFERENCE BETWEEN THE ORBITS.
000062:
000063:                                                                                                  #        (5) CSI BURN IS DEFINED SUCH THAT THE IMPULSIVE DELTA V IS IN THE
000064:                                                                                                  #            HORIZONTAL PLANE DEFINED BY THE ACTIVE VEHICLE POSITION AT CSI
000065:                                                                                                  #            IGNITION.
000066:
000067:                                                                                                  #        (6) THE PERICENTER ALTITUDE OF THE ORBIT FOLLOWING CSI AND CDH
000068:                                                                                                  #            MUST BE GREATER THAN 35,000 FT (LUNAR ORBIT) OR 85 NM (EARTH
000069:                                                                                                  #            ORBIT) FOR SUCCESSFUL COMPLETION OF THIS PROGRAM.
000070:
000071:                                                                                                  #        (7) THE CSI AND CDH MANEUVERS ARE ORIGINALLY ASSUMED TO BE
000072:                                                                                                  #            PARALLEL TO THE PLANE OF THE CSM ORBIT.  HOWEVER CREW


000074:                                                                                                  #            MODIFICATION OF DELTA V (LV) COMPONENTS MAY RESULT IN AN
000075:                                                                                                  #            OUT-OF-PLANE CSI MANEUVER.
000076:
000077:                                                                                                  #        (8) STATE VECTOR UPDATES BY P27 ARE DISALLOWED DURING AUTOMATIC
000078:                                                                                                  #            STATE VECTOR UPDATING INITIATED BY P20 (SEE ASSUMPTION 10).
000079:
000080:                                                                                                  #        (9) COMPUTED VARIABLES MAY BE STORED FOR LATER VERIFICATION BY
000081:                                                                                                  #            THE GROUND.  THESE STORAGE CAPABILITIES ARE NORMALLY LIMITED
000082:                                                                                                  #            ONLY TO THE PARAMETERS FOR ONE THRUSTING MANEUVER AT A TIME
000083:                                                                                                  #            EXCEPT FOR CONCENTRIC FLIGHT PLAN MANEUVER SEQUENCES.
000084:
000085:                                                                                                  #       (10) THE RENDEZVOUS RADAR MAY OR MAY NOT BE USED TO UPDATE THE LM
000086:                                                                                                  #            OR CSM STATE VECTORS FOR THIS PROGRAM.  IF RADAR USE IS
000087:                                                                                                  #            DESIRED THE RADAR WAS TURNED ON AND LOCKED ON THE CSM BY
000088:                                                                                                  #            PREVIOUS SELECTION OF P20.  RADAR SIGHTING MARKS WILL BE MADE
000089:                                                                                                  #            AUTOMATICALLY APPROXIMATELY ONCE A MINUTE WHEN ENABLED BY THE
000090:                                                                                                  #            TRACK AND UPDATE FLAGS (SEE P20).  THE RENDEZVOUS TRACKING
000091:                                                                                                  #            MARK COUNTER IS ZEROED BY THE SELECTION OF P20 AND AFTER EACH
000092:                                                                                                  #            THRUSTING MANEUVER.
000093:
000094:                                                                                                  #       (11) THE ISS NEED NOT BE ON TO COMPLETE THIS PROGRAM.
000095:
000096:                                                                                                  #       (12) THE OPERATION OF THE PROGRAM UTILIZES THE FOLLOWING FLAGS -
000097:
000098:                                                                                                  #                ACTIVE VEHICLE FLAG - DESIGNATES THE VEHICLE WHICH IS
000099:                                                                                                  #                DOING RENDEZVOUS THRUSTING MANEUVERS TO THE PROGRAM WHICH
000100:                                                                                                  #                CALCULATES THE MANEUVER PARAMETERS.  SET AT THE START OF
000101:                                                                                                  #                EACH RENDEZVOUS PRE-THRUSTING PROGRAM.
000102:
000103:                                                                                                  #                FINAL FLAG - SELECTS FINAL PROGRAM DISPLAYS AFTER CREW HAS
000104:                                                                                                  #                COMPLETED THE FINAL MANEUVER COMPUTATION AND DISPLAY
000105:                                                                                                  #                CYCLE.
000106:
000107:                                                                                                  #                EXTERNAL DELTA V STEERING FLAG - DESIGNATES THE TYPE OF
000108:                                                                                                  #                STEERING REQUIRED FOR EXECUTION OF THIS MANEUVER BY THE
000109:                                                                                                  #                THRUSTING PROGRAM SELECTED AFTER COMPLETION OF THIS
000110:                                                                                                  #                PROGRAM.
000111:
000112:                                                                                                  #       (13) IT IS NORMALLY REQUIRED THAT THE ISS BE ON FOR 1 HOUR PRIOR TO
000113:                                                                                                  #            A THRUSTING MANEUVER.
000114:
000115:                                                                                                  #       (14) THIS PROGRAM IS SELECTED BY THE ASTRONAUT BY DSKY ENTRY -
000116:
000117:                                                                                                  #                P32 IF THIS VEHICLE IS ACTIVE VEHICLE.
000118:
000119:                                                                                                  #                P72 IF THIS VEHICLE IS PASSIVE VEHICLE.
000120:
000121:                                                                                                  #  INPUT
000122:
000123:                                                                                                  #        (1) TCSI     TIME OF THE CSI MANEUVER


000125:                                                                                                  #        (2) NN       NUMBER OF APSIDAL CROSSINGS THRU WHICH THE ACTIVE
000126:                                                                                                  #                     VEHICLE ORBIT CAN BE ADVANCED TO OBTAIN THE CDH
000127:                                                                                                  #                     MANEUVER POINT
000128:                                                                                                  #        (3) ELEV     DESIRED LOS ANGLE AT TPI
000129:                                                                                                  #        (4) TTPI     TIME OF THE TPI MANEUVER
000130:                                                                                                  #  OUTPUT
000131:
000132:                                                                                                  #        (1) TRKMKCNT NUMBER OF MARKS
000133:                                                                                                  #        (2) TTOGO    TIME TO GO
000134:                                                                                                  #        (3) +MGA     MIDDLE GIMBAL ANGLE
000135:                                                                                                  #        (4) DIFFALT  DELTA ALTITUDE AT CDH
000136:                                                                                                  #        (5) T1TOT2   DELTA TIME FROM CSI TO CDH
000137:                                                                                                  #        (6) T2TOT3   DELTA TIME FROM CDH TO TPI
000138:                                                                                                  #        (7) DELVLVC  DELTA VELOCITY AT CSI - LOCAL VERTICAL COORDINATES
000139:                                                                                                  #        (8) DELVLVC  DELTA VELOCITY AT CDH - LOCAL VERTICAL COORDINATES
000140:
000141:                                                                                                  #  DOWNLINK
000142:
000143:                                                                                                  #        (1) TCSI     TIME OF THE CSI MANEUVER
000144:                                                                                                  #        (2) TCDH     TIME OF THE CDH MANEUVER
000145:                                                                                                  #        (3) TTPI     TIME OF THE TPI MANEUVER
000146:                                                                                                  #        (4) TIG      TIME OF THE CSI MANEUVER
000147:                                                                                                  #        (5) DELVEET1 DELTA VELOCITY AT CSI - REFERENCE COORDINATES
000148:                                                                                                  #        (6) DELVEET2 DELTA VELOCITY AT CDH - REFERENCE COORDINATES
000149:                                                                                                  #        (7) DIFFALT  DELTA ALTITUDE AT CDH
000150:                                                                                                  #        (8) NN       NUMBER OF APSIDAL CROSSINGS THRU WHICH THE ACTIVE
000151:                                                                                                  #                     VEHICLE ORBIT CAN BE ADVANCED TO OBTAIN THE CDH
000152:                                                                                                  #                     MANEUVER POINT
000153:                                                                                                  #        (9) ELEV     DESIRED LOS ANGLE AT TPI
000154:
000155:                                                                                                  #  COMMUNICATION TO THRUSTING PROGRAMS
000156:
000157:                                                                                                  #        (1) TIG      TIME OF THE CSI MANEUVER
000158:                                                                                                  #        (2) RTIG     POSITION OF ACTIVE VEHICLE AT CSI - BEFORE ROTATION
000159:                                                                                                  #                     INTO PLANE OF PASSIVE VEHICLE
000160:                                                                                                  #        (3) VTIG     VELOCITY OF ACTIVE VEHICLE AT CSE - BEFORE ROTATION
000161:                                                                                                  #                     INTO PLANE OF PASSIVE VEHICLE
000162:                                                                                                  #        (4) DELVSIN  DELTA VELOCITY AT CSI - REFERENCE COORDINATES
000163:                                                                                                  #        (5) DELVSAB  MAGNITUDE OF DELTA VELOCITY AT CSI
000164:                                                                                                  #        (6) XDELVFLG SET TO INDICATE EXTERNAL DELTA V VG COMPUTATION
000165:
000166:                                                                                                  #  SUBROUTINES USED
000167:
000168:                                                                                                  #        AVFLAGA
000169:                                                                                                  #        AVFLAGP
000170:                                                                                                  #        P20FLGON
000171:                                                                                                  #        VARALARM
000172:                                                                                                  #        BANKCALL
000173:                                                                                                  #        GOFLASH
000174:                                                                                                  #        GOTOPOOH


000176:                                                                                                  #        VNPOOH
000177:                                                                                                  #        GOFLASHR
000178:                                                                                                  #        BLANKET
000179:                                                                                                  #        ENDOFJOB
000180:                                                                                                  #        SELECTMU
000181:                                                                                                  #        ADVANCE
000182:                                                                                                  #        INTINT
000183:                                                                                                  #        PASSIVE
000184:                                                                                                  #        CSI/A
000185:                                                                                                  #        S32/33.1
000186:                                                                                                  #        DISDVLVC
000187:                                                                                                  #        VN1645
000188:
000189: 35,2027                                           BANK     35
000190: 35,2000                                           SETLOC   CSI/CDH
000191: 35,2000                                           BANK
000192: 35,2027  E7,1466                                  EBANK=   SUBEXIT
000193: 35,2027                                           COUNT*   $$/P3272
000194: 35,2027           02313        P32                TC       AVFLAGA
000195: 35,2030           02032                           TC       P32STRT
000196: 35,2031           02320        P72                TC       AVFLAGP
000197: 35,2032           00006        P32STRT            EXTEND
000198: 35,2033           32364                           DCA      P30ZERO
000199: 35,2034           53617                           DXCH     CENTANG
000200: 35,2035           02053                           TC       P32/P72A
000201: 35,2036           77734        ALMXITA            SXA,2
000202: 35,2037           03611                                    CSIALRM
000203: 35,2040           77740        ALMXIT             LXC,1
000204: 35,2041           03611                                    CSIALRM
000205: 35,2042           77533                           SLOAD*   EXIT
000206: 35,2043           32367                                    ALARM/TB   -1,1
000207: 35,2044           30154                           CA       MPAC
000208: 35,2045           05735                           TC       VARALARM
000209: 35,2046           35006                           CAF      V05N09
000210: 35,2047           04616                           TC       BANKCALL
000211: 35,2050           20351                           CADR     GOFLASH
000212: 35,2051           06001                           TC       GOTOPOOH
000213: 35,2052           02046                           TC       -4
000214: 35,2053           02325        P32/P72A           TC       P20FLGON
000215: 35,2054           32363                           CAF      P30ZERO
000216: 35,2055           55465                           TS       NN         +1
000217: 35,2056           32354                           CAF      V06N11                                #  TCSI
000218: 35,2057           03651                           TC       VNPOOH
000219: 35,2060           33663                           CAF      V06N55                                #  NN, ELEV(RGLOS)
000220: 35,2061           04616                           TC       BANKCALL
000221: 35,2062           20351                           CADR     GOFLASH
000222: 35,2063           06001                           TC       GOTOPOOH
000223: 35,2064           02066                           TC       +2
000224: 35,2065           02060                           TC       -5
000225: 35,2066           33662                           CAF      V06N37                                #  TTPI


000227: 35,2067           03651                           TC       VNPOOH
000228: 35,2070           06036                           TC       INTPRET
000229: 35,2071           77745                           DLOAD
000230: 35,2072           03632                                    TCSI
000231: 35,2073           37440                           STCALL   TIG
000232: 35,2074           20041                                    SELECTMU
000233: 35,2075           77624        P32/P72B           CALL
000234: 35,2076           71016                                    ADVANCE
000235: 35,2077           77201                           SETPD    VLOAD
000236: 35,2100           00001                                    0D
000237: 35,2101           03504                                    VPASS1
000238: 35,2102           65315                           PDVL     PDDL
000239: 35,2103           03476                                    RPASS1
000240: 35,2104           03632                                    TCSI
000241: 35,2105           65325                           PDDL     PDDL
000242: 35,2106           03634                                    TTPI
000243: 35,2107           33671                                    TWOPI
000244: 35,2110           45006                           PUSH     CALL
000245: 35,2111           73422                                    INTINT
000246: 35,2112           77624                           CALL
000247: 35,2113           46373                                    PASSIVE
000248: 35,2114           77624                           CALL
000249: 35,2115           70113                                    CSI/A
000250: 35,2116           43014        P32/P72C           BON      SET
000251: 35,2117           01311                                    FINALFLG
000252: 35,2120           72122                                    P32/P72D
000253: 35,2121           00470                                    UPDATFLG
000254: 35,2122           77745        P32/P72D           DLOAD
000255: 35,2123           02257                                    T1TOT2
000256: 35,2124           02257        P32/P72E           STORE    T1TOT2
000257: 35,2125           51025                           DSU      BPL
000258: 35,2126           32366                                    60MIN
000259: 35,2127           72124                                    P32/P72E
000260: 35,2130           77745                           DLOAD
000261: 35,2131           02261                                    T2TOT3
000262: 35,2132           02261        P32/P72F           STORE    T2TOT3
000263: 35,2133           51025                           DSU      BPL
000264: 35,2134           32366                                    60MIN
000265: 35,2135           72132                                    P32/P72F
000266: 35,2136           77776                           EXIT
000267: 35,2137           32356                           CAF      V06N75
000268: 35,2140           03651                           TC       VNPOOH
000269: 35,2141           06036                           TC       INTPRET
000270: 35,2142           45175                           VLOAD    CALL
000271: 35,2143           02273                                    DELVEET1
000272: 35,2144           71100                                    S32/33.1
000273: 35,2145           26273                           STOVL    DELVEET1
000274: 35,2146           02315                                    RACT2
000275: 35,2147           26307                           STOVL    RACT1
000276: 35,2150           02301                                    DELVEET2


000278: 35,2151           45170                           AXT,1    CALL
000279: 35,2152           01522                           VN       0682
000280: 35,2153           72334                                    DISDVLVC
000281: 35,2154           77745                           DLOAD
000282: 35,2155           03634                                    TTPI
000283: 35,2156           37636                           STCALL   TTPI0
000284: 35,2157           73542                                    VN1645
000285: 35,2160           77650                           GOTO
000286: 35,2161           72075                                    P32/P72B
000287:


000289:                                                                                                  #  CONSTANT DELTA HEIGHT (CDH) PROGRAMS (P33 AND P73)
000290:
000291:                                                                                                  #  MOD NO -1       LOG SECTION - P32-P35, P72-P75
000292:                                                                                                  #  MOD BY WHITE.P  DATE  1JUNE67
000293:                                                                                                  #  PURPOSE
000294:
000295:                                                                                                  #        (1) TO CALCULATE PARAMETERS ASSOCIATED WITH THE CONSTANT DELTA
000296:                                                                                                  #            ALTITUDE MANEUVER (CDH).
000297:
000298:                                                                                                  #        (2) TO CALCULATE THESE PARAMETERS BASED UPON MANEUVER DATA
000299:                                                                                                  #            APPROVED AND KEYED INTO THE DSKY BY THE ASTRONAUT.
000300:
000301:                                                                                                  #        (3) TO DISPLAY TO THE ASTRONAUT AND THE GROUND DEPENDENT VARIABLES
000302:                                                                                                  #            ASSOCIATED WITH THE CDH MANEUVER FOR APPROVAL BY THE
000303:                                                                                                  #            ASTRONAUT/GROUND.
000304:
000305:                                                                                                  #        (4) TO STORE THE CDH TARGET PARAMETERS FOR USE BY THE DESIRED
000306:                                                                                                  #            THRUSTING PROGRAM.
000307:
000308:                                                                                                  #  ASSUMPTIONS
000309:
000310:                                                                                                  #        (1) THIS PROGRAM IS BASED UPON PREVIOUS COMPLETION OF THE
000311:                                                                                                  #            CO-ELLIPTIC SEQUENCE INITIATION (CSI) PROGRAM (P32/P72).
000312:                                                                                                  #            THERFORE -
000313:
000314:                                                                                                  #            (A) AT A SELECTED TPI TIME (NOW IN STORAGE) THE LINE OF SIGHT
000315:                                                                                                  #                BETWEEN THE ACTIVE AND PASSIVE VEHICLES WAS SELECTED TO BE
000316:                                                                                                  #                A PRESCRIBED ANGLE (E) (NOW IN STORAGE) FROM THE
000317:                                                                                                  #                HORIZONTAL PLANE DEFINED BY THE ACTIVE VEHICLE POSITION.
000318:
000319:                                                                                                  #            (B) THE TIME BETWEEN CSI IGNITION AND CDH IGNITION WAS
000320:                                                                                                  #                COMPUTED TO BE GREATER THAN 10 MINUTES.
000321:
000322:                                                                                                  #            (C) THE TIME BETWEEN CDH IGNITION AND TPI IGNITION WAS
000323:                                                                                                  #                COMPUTED TO BE GREATER THAN 10 MINUTES.
000324:
000325:                                                                                                  #            (D) THE VARIATION OF THE ALTITUDE DIFFERENCE BETWEEN THE
000326:                                                                                                  #                ORBITS WAS MINMIZED.
000327:
000328:                                                                                                  #            (E) CSI BURN WAS DEFINED SUCH THAT THE IMPULSIVE DELTA V WAS
000329:                                                                                                  #                IN THE HORIZONTAL PLANE DEFINED BY ACTIVE VEHICLE
000330:
000331:                                                                                                  #                POSITION AT CSI IGNITION.
000332:
000333:                                                                                                  #            (F) THE PERICENTER ALTITUDES OF THE ORBITS FOLLOWING CSI AND
000334:                                                                                                  #                CDH WERE COMPUTED TO BE GREATER THAN 35,000 FT FOR LUNAR
000335:                                                                                                  #                ORBIT OR 85 NM FOR EARTH ORBIT.
000336:
000337:                                                                                                  #            (G) THE CSI AND CDH MANEUVERS WERE ASSUMED TO BE PARALLEL TO
000338:                                                                                                  #                THE PLANE OF THE PASSIVE VEHICLE ORBIT.  HOWEVER, CREW


000340:                                                                                                  #                MODIFICATION OF DELTA V (LV) COMPONENTS MAY HAVE RESULTED
000341:                                                                                                  #                IN AN OUT-OF-PLANE MANEUVER.
000342:
000343:                                                                                                  #        (2) STATE VECTOR UPDATES BY P27 ARE DISALLOWED DURING AUTOMATIC
000344:                                                                                                  #            STATE VECTOR UPDATING INITIATED BY P20 (SEE ASSUMPTION 4).
000345:
000346:                                                                                                  #        (3) COMPUTED VARIABLES MAY BE STORED FOR LATER VERIFICATION BY
000347:                                                                                                  #            THE GROUND.  THESE STORAGE CAPABILITES ARE NORMALLY LIMITED
000348:                                                                                                  #            ONLY TO THE PARAMETERS FOR ONE THRUSTING MANEUVER AT A TIME
000349:                                                                                                  #            EXCEPT FOR CONCENTRIC FLIGHT PLAN MANEUVER SEQUENCES.
000350:
000351:                                                                                                  #        (4) THE RENDEZVOUS RADAR MAY OR MAY NOT BE USED TO UPDATE THE LM
000352:                                                                                                  #            OR CSM STATE VECTORS FOR THIS PROGRAM.  IF RADAR USE IS
000353:                                                                                                  #            DESIRED THE RADAR WAS TURNED ON AND LOCKED ON THE CSM BY
000354:                                                                                                  #            PREVIOUS SELECTION OF P20.  RADAR SIGHTING MARKS WILL BE MADE
000355:                                                                                                  #            AUTOMATICALLY APPROXIMATELY ONCE A MINUTE WHEN ENABLED BY THE
000356:                                                                                                  #            TRACK AND UPDATE FLAGS (SEE P20).  THE RENDEZVOUS TRACKING
000357:                                                                                                  #            MARK COUNTER IS ZEROED BY THE SELECTION OF P20 AND AFTER EACH
000358:                                                                                                  #            THRUSTING MANEUVER.
000359:
000360:                                                                                                  #        (5) THE ISS NEED NOT BE ON TO COMPLETE THIS PROGRAM.
000361:
000362:                                                                                                  #        (6) THE OPERATION OF THE PROGRAM UTILIZES THE FOLLOWING FLAGS -
000363:
000364:                                                                                                  #                ACTIVE VEGICLE FLAG - DESIGNATES THE VEHICLE WHICH IS
000365:                                                                                                  #                DOING RENDEZVOUS THRUSTING MANEUVERS TO THE PROGRAM WHICH
000366:                                                                                                  #                CALCULATES THE MANEUVER PARAMETERS.  SET AT THE START OF
000367:                                                                                                  #                EACH RENDEZVOUS PRE-THRUSTING PROGRAM.
000368:
000369:                                                                                                  #                FINAL FLAG - SELECTS FINAL PROGRAM DISPLAYS AFTER CREW HAS
000370:                                                                                                  #                COMPLETED THE FINAL MANEUVER COMPUTATION AND DISPLAY
000371:                                                                                                  #                CYCLE.
000372:
000373:                                                                                                  #                EXTERNAL DELTA V STEERING FLAG - DESIGNATES THE TYPE OF
000374:                                                                                                  #                STEERING REQUIRED FOR EXECUTION OF THIS MANEUVER BY THE
000375:                                                                                                  #                THRUSTING PROGRAM SELECTED AFTER COMPLETION OF THIS
000376:                                                                                                  #                PROGRAM.
000377:
000378:                                                                                                  #        (7) IT IS NORMALLY REQUIRED THAT THE ISS BE ON FOR 1 HOUR PRIOR TO
000379:                                                                                                  #            A THRUSTING MANEUVER.
000380:
000381:                                                                                                  #        (8) THIS PROGRAM IS SELECTED BY THE ASTRONAUT BY DSKY ENTRY -
000382:
000383:                                                                                                  #                P33 IF THIS VEHICLE IS ACTIVE VEHICLE.
000384:
000385:                                                                                                  #                P73 IF THIS VEHICLE IS PASSIVE VEHICLE.
000386:
000387:                                                                                                  #  INPUT
000388:
000389:                                                                                                  #        (1) TTPI0    TIME OF THE TPI MANEUVER - SAVED FROM P32/P72


000391:                                                                                                  #        (2) ELEV     DESIRED LOS ANGLE AT TPI - SAVED FROM P32/P72
000392:                                                                                                  #        (3) TCDH     TIME OF THE CDH MANEUVER
000393:
000394:                                                                                                  #  OUTPUT
000395:
000396:                                                                                                  #        (1) TRKMKCNT NUMBER OF MARKS
000397:                                                                                                  #        (2) TTOGO    TIME TO GO
000398:                                                                                                  #        (3) +MGA     MIDDLE GIMBAL ANGLE
000399:                                                                                                  #        (4) DIFFALT  DELTA ALTITUDE AT CDH
000400:                                                                                                  #        (5) T2TOT3   DELTA TIME FROM CDH TO COMPUTED TPI
000401:                                                                                                  #        (6) NOMTPI   DELTA TIME FROM NOMINAL TPI TO COMPUTED TPI
000402:                                                                                                  #        (7) DELVLVC  DELTA VELOCITY AT CDH - LOCAL VERTICAL COORDINATES
000403:
000404:                                                                                                  #  DOWNLINK
000405:
000406:                                                                                                  #        (1) TCDH     TIME OF THE CDH MANEUVER
000407:                                                                                                  #        (2) TTPI     TIME OF THE TPI MANEUVER
000408:                                                                                                  #        (3) TIG      TIME OF THE CDH MANEUVER
000409:                                                                                                  #        (4) DELVEET2 DELTA VELOCITY AT CDH - REFERENCE COORDINATES
000410:                                                                                                  #        (5) DIFFALT  DELTA ALTITUDE AT CDH
000411:                                                                                                  #        (6) ELEV     DESIRED LOS ANGLE AT TPI
000412:                                                                                                  #  COMMUNICATION TO THRUSTING PROGRAMS
000413:
000414:                                                                                                  #        (1) TIG      TIME OF THE CDH MANEUVER
000415:                                                                                                  #        (2) RTIG     POSITION OF ACTIVE VEHICLE AT CDH - BEFORE ROTATION
000416:                                                                                                  #                     INTO PLANE OF PASSIVE VEHICLE
000417:                                                                                                  #        (3) VTIG     VELOCITY OF ACTIVE VEHICLE AT CDH - BEFORE ROTATION
000418:                                                                                                  #                     INTO PLANE OF PASSIVE VEHICLE
000419:                                                                                                  #        (4) DELVSIN  DELTA VELOCITY AT CDH - REFERENCE COORDINATES
000420:                                                                                                  #        (5) DELVSAB  MAGNITUDE OF DELTA VELOCITY AT CDH
000421:                                                                                                  #        (6) XDELVFLG SET TO INDICATE EXTERNAL DELTA V VG COMPUTATION
000422:
000423:                                                                                                  #  SUBROUTINES USED
000424:
000425:                                                                                                  #        AVFLAGA
000426:                                                                                                  #        AVFLAGP
000427:                                                                                                  #        P20FLGON
000428:                                                                                                  #        VNPOOH
000429:                                                                                                  #        SELECTMU
000430:                                                                                                  #        ADVANCE
000431:                                                                                                  #        CDHMVR
000432:                                                                                                  #        INTINT3P
000433:                                                                                                  #        ACTIVE
000434:                                                                                                  #        PASSIVE
000435:                                                                                                  #        S33/34.1
000436:                                                                                                  #        ALARM
000437:                                                                                                  #        BANKCALL
000438:                                                                                                  #        GOFLASH
000439:                                                                                                  #        GOTOPOOH
000440:                                                                                                  #        S32/33.1


000442:                                                                                                  #        VN1645
000443:
000444: 35,2162                                           COUNT*   $$/P3373
000445: 35,2162           02313        P33                TC       AVFLAGA
000446: 35,2163           02165                           TC       P33/P73A
000447: 35,2164           02320        P73                TC       AVFLAGP
000448: 35,2165           02325        P33/P73A           TC       P20FLGON
000449: 35,2166           32355                           CAF      V06N13                                #  TCDH
000450: 35,2167           03651                           TC       VNPOOH
000451: 35,2170           06036                           TC       INTPRET
000452: 35,2171           77745                           DLOAD
000453: 35,2172           03636                                    TTPI0
000454: 35,2173           17634                           STODL    TTPI
000455: 35,2174           03374                                    TCDH
000456: 35,2175           37440                           STCALL   TIG
000457: 35,2176           20041                                    SELECTMU
000458: 35,2177           77624        P33/P73B           CALL
000459: 35,2200           71016                                    ADVANCE
000460: 35,2201           77624                           CALL
000461: 35,2202           71133                                    CDHMVR
000462: 35,2203           77201                           SETPD    VLOAD
000463: 35,2204           00001                                    0D
000464: 35,2205           03542                                    VACT3
000465: 35,2206           45115                           PDVL     CALL
000466: 35,2207           02315                                    RACT2
000467: 35,2210           71071                                    INTINT3P
000468: 35,2211           77624                           CALL
000469: 35,2212           46363                                    ACTIVE
000470: 35,2213           77201                           SETPD    VLOAD
000471: 35,2214           00001                                    0D
000472: 35,2215           03526                                    VPASS2
000473: 35,2216           45115                           PDVL     CALL
000474: 35,2217           03520                                    RPASS2
000475: 35,2220           71071                                    INTINT3P
000476: 35,2221           77624                           CALL
000477: 35,2222           46373                                    PASSIVE
000478: 35,2223           43145                           DLOAD    SET
000479: 35,2224           32364                                    P30ZERO
000480: 35,2225           03460                                    ITSWICH
000481: 35,2226           36323                           STCALL   NOMTPI
000482: 35,2227           72726                                    S33/34.1
000483: 35,2230           77454                           BZE      EXIT
000484: 35,2231           72246                                    P33/P73C
000485: 35,2232           05567                           TC       ALARM
000486: 35,2233           00611                           OCT      611
000487: 35,2234           35006                           CAF      V05N09
000488: 35,2235           04616                           TC       BANKCALL
000489: 35,2236           20351                           CADR     GOFLASH
000490: 35,2237           06001                           TC       GOTOPOOH
000491: 35,2240           02242                           TC       +2


000493: 35,2241           02165                           TC       P33/P73A
000494: 35,2242           06036                           TC       INTPRET
000495: 35,2243           77745                           DLOAD
000496: 35,2244           32364                                    P30ZERO
000497: 35,2245           02323                           STORE    NOMTPI
000498: 35,2246           43014        P33/P73C           BON      SET
000499: 35,2247           01311                                    FINALFLG
000500: 35,2250           72252                                    P33/P73D
000501: 35,2251           00470                                    UPDATFLG
000502: 35,2252           43345        P33/P73D           DLOAD    DAD
000503: 35,2253           02323                                    NOMTPI
000504: 35,2254           03634                                    TTPI
000505: 35,2255           03634                           STORE    TTPI
000506: 35,2256           77625                           DSU
000507: 35,2257           03374                                    TCDH
000508: 35,2260           51025        P33/P73E           DSU      BPL
000509: 35,2261           32366                                    60MIN
000510: 35,2262           72260                                    P33/P73E
000511: 35,2263           77615                           DAD
000512: 35,2264           32366                                    60MIN
000513: 35,2265           16257                           STODL    T1TOT2
000514: 35,2266           03634                                    TTPI
000515: 35,2267           41425                           DSU      PUSH
000516: 35,2270           03636                                    TTPI0
000517: 35,2271           45246        P33/P73F           ABS      DSU
000518: 35,2272           32366                                    60MIN
000519: 35,2273           43244                           BPL      DAD
000520: 35,2274           72271                                    P33/P73F
000521: 35,2275           32366                                    60MIN
000522: 35,2276           45565                           SIGN     STADR
000523: 35,2277           75516                           STORE    T2TOT3
000524: 35,2300           77776                           EXIT
000525: 35,2301           32356                           CAF      V06N75
000526: 35,2302           03651                           TC       VNPOOH
000527: 35,2303           06036                           TC       INTPRET
000528: 35,2304           45175                           VLOAD    CALL
000529: 35,2305           02301                                    DELVEET2
000530: 35,2306           71100                                    S32/33.1
000531: 35,2307           36301                           STCALL   DELVEET2
000532: 35,2310           73542                                    VN1645
000533: 35,2311           77650                           GOTO
000534: 35,2312           72177                                    P33/P73B
000535:


000537:                                                                                                  #  ..... AVFLAGA/P .....
000538:
000539:                                                                                                  #  SUBROUTINES USED
000540:
000541:                                                                                                  #           UPFLAG
000542:                                                                                                  #           DOWNFLAG
000543:
000544: 35,2313           00006        AVFLAGA            EXTEND                                         #  AVFLAG = LEM
000545: 35,2314           23466                           QXCH     SUBEXIT
000546: 35,2315           05504                           TC       UPFLAG
000547: 35,2316           00050                           ADRES    AVFLAG
000548: 35,2317           01466                           TC       SUBEXIT
000549: 35,2320           00006        AVFLAGP            EXTEND                                         #  AVFLAG = CSM
000550: 35,2321           23466                           QXCH     SUBEXIT
000551: 35,2322           05516                           TC       DOWNFLAG
000552: 35,2323           00050                           ADRES    AVFLAG
000553: 35,2324           01466                           TC       SUBEXIT
000554: 35,2325           00006        P20FLGON           EXTEND
000555: 35,2326           23466                           QXCH     SUBEXIT
000556: 35,2327           05504                           TC       UPFLAG
000557: 35,2330           00027                           ADRES    UPDATFLG                              #  SET UPDATFLG
000558: 35,2331           05504                           TC       UPFLAG
000559: 35,2332           00031                           ADRES    TRACKFLG                              #  SET TRACKFLG
000560: 35,2333           01466                           TC       SUBEXIT
000561:


000563:                                                                                                  #  ..... DISDVLVC .....
000564:
000565:                                                                                                  #  SUBROUTINES USED
000566:
000567:                                                                                                  #        S32/33.X
000568:                                                                                                  #         VNPOOH
000569:
000570: 35,2334           03432        DISDVLVC           STORE    DELVLVC
000571: 35,2335           45020                           STQ      CALL
000572: 35,2336           03461                                    NORMEX
000573: 35,2337           71120                                    S32/33.X
000574: 35,2340           64375                           VLOAD    MXV
000575: 35,2341           03432                                    DELVLVC
000576: 35,2342           00001                                    0D
000577: 35,2343           66172                           VSL1     SXA,1
000578: 35,2344           03613                                    VERBNOUN
000579: 35,2345           03432                           STORE    DELVLVC
000580: 35,2346           77776                           EXIT
000581: 35,2347           31613                           CA       VERBNOUN
000582: 35,2350           03651                           TC       VNPOOH
000583: 35,2351           06036                           TC       INTPRET
000584: 35,2352           77650                           GOTO
000585: 35,2353           03461                                    NORMEX
000586:


000588:                                                                                                  #  ..... CONSTANTS .....
000589:
000590: 35,2354           01413        V06N11             VN       0611
000591: 35,2355           01415        V06N13             VN       0613
000592: 35,2356           01513        V06N75             VN       0675
000593: 35,2357           77776 62460  SN359+             2DEC     -.000086601
000594:
000595: 35,2361           17777 37776  CS359+             2DEC     +.499999992
000596:
000597: 35,2363           00000 00000  P30ZERO            2DEC     0          B-28
000598:
000599: 35,2365           00025 37100  60MIN              2DEC     360000     B-28
000600:
000601: 35,2367           00600        ALARM/TB           OCT      00600                                 #  NO 1
000602: 35,2370           00601                           OCT      00601                                 #     2
000603: 35,2371           00602                           OCT      00602                                 #     3
000604: 35,2372           00603                           OCT      00603                                 #     4
000605: 35,2373           00604                           OCT      00604                                 #     5
000606: 35,2374           00605                           OCT      00605                                 #     6
000607: 35,2375           00606                           OCT      00606                                 #     7
000608:


000610:                                                                                                  #  ..... CSI/A     .....
000611:
000612:                                                                                                  #  SUBROUTINES USED
000613:
000614:                                                                                                  #        VECSHIFT
000615:                                                                                                  #        TIMETHET
000616:                                                                                                  #        PERIAPO
000617:                                                                                                  #        SHIFTR1
000618:                                                                                                  #        INTINT2C
000619:                                                                                                  #        CDHMVR
000620:                                                                                                  #        PERIAPO1
000621:                                                                                                  #        INTINT
000622:                                                                                                  #        ACTIVE
000623:
000624: 34,2057                                           BANK     34
000625: 34,2000                                           SETLOC   CSI/CDH1
000626: 34,2000                                           BANK
000627: 34,2057  E7,1466                                  EBANK=   SUBEXIT
000628: 34,2057                                           COUNT*   $$/CSI
000629: 34,2057           00000 00020  LOOPMX             2DEC     16         B-28
000630:
000631: 34,2061           00003 34661  INITST             2DEC     .03048     B-7                        #       INITIAL DELDV = 10 FPS
000632:
000633: 34,2063           00606 04467  DVMAX1             2DEC     3.0480     B-7                        #       MAXIMUM DV1 = 1000 FPS
000634:
000635: 34,2065           00601 33216  DVMAX2             2DEC     3.014472   B-7                        #                      989 FPS
000636:
000637: 34,2067           10000 00000  1DPB2              2DEC     1.0        B-2
000638:
000639: 34,2071           00000 00001  1DPB28             2DEC     1          B-28
000640:
000641: 34,2073           00004 31566  PMINE              2DEC     157420     B-29                       #  85 NM    - MUST BE 8 WORDS BEFORE PMINM
000642:
000643: 34,2075           00000 01177  EPSILN1            2DEC     .0003048   B-7                        #       .1 FPS
000644:
000645: 34,2077           00002 27311  NICKELDP           2DEC     .021336    B-7                        #  7 FPS (CHANGED FROM .05 FPS)
000646:
000647: 34,2101           77754 57611  FIFPSDP            2DEC     -.152400   B-7                        #       50 FPS
000648:
000649: 34,2103           00000 12326  PMINM              2DEC     10668      B-29                       #  35000 FT - MUST BE 8 WORDS AFTER PMINE
000650:
000651: 34,2105           00116 00730  DELMAX1            2DEC     .6096000   B-7                        #       200 FPS
000652:
000653: 34,2107           00000 06433  ONETHTH            2DEC     .0001      B-3
000654:
000655: 34,2111           00003 25140  TMIN               2DEC     60000      B-28                       #  10 MIN
000656:
000657: 34,2113           43014        CSI/A              CLEAR    SET                                   #  INITIALIZE INDICATORS
000658: 34,2114           03260                                    S32.1F1                               #  DVT1 HAS EXCEEDED MAX INDICATOR
000659: 34,2115           03061                                    S32.1F2                               #  FIRST PASS FOR NEWTON ITERATION INDICATR


000661: 34,2116           43014                           CLEAR    SET
000662: 34,2117           03262                                    S32.1F3A                              #  00=1ST 2 PASSES 2ND CYCLE 01=FIRST CYCLE
000663: 34,2120           03063                                    S32.1F3B                              #  10=2ND CYCLE 11=50FPS STAGE 2ND CYCLE
000664: 34,2121           77745                           DLOAD
000665: 34,2122           32364                                    P30ZERO
000666: 34,2123           03604                           STORE    LOOPCT
000667: 34,2124           03612                           STORE    CSIALRM
000668: 34,2125           77201        CSI/B              SETPD    VLOAD
000669: 34,2126           00001                                    0D
000670: 34,2127           02307                                    RACT1
000671: 34,2130           41446                           ABVAL    PUSH                                  #  RA1                            B29 PL02D
000672: 34,2131           70501                           NORM     SR1
000673: 34,2132           00050                                    X2                                    #                          B29-N2+ B1 PL04D
000674: 34,2133           51515                           PDVL     ABVAL
000675: 34,2134           03550                                    RPASS3
000676: 34,2135           55301                           NORM     BDDV                                  #  RA1/RP3                         B1 PL02D
000677: 34,2136           00047                                    X1
000678: 34,2137           53664                           XSU,2    SR*                                   #                                  B2
000679: 34,2140           00046                                    X1
000680: 34,2141           57175                                    1,2
000681: 34,2142           41215                           DAD      DMP                                   #  (1+(RA1/RP3))RA1        B29+B2=B31 PL00D
000682: 34,2143           30070                                    1DPB2
000683: 34,2144           65301                           NORM     PDDL                                  #                                     PL02D
000684: 34,2145           00047                                    X1
000685: 34,2146           02325                                    RTMU
000686: 34,2147           56342                           SR1      DDV                                   #                         B38-B31= B7 PL00D
000687: 34,2150           75457                           SL*      SQRT                                  #                                  B7
000688: 34,2151           20172                                    0          -7,1
000689: 34,2152           53515                           PDVL     UNIT                                  #                                     PL02D
000690: 34,2153           02307                                    RACT1
000691: 34,2154           47315                           PDVL     VXV
000692: 34,2155           02265                                    UP1
000693: 34,2156           77656                           UNIT                                           #  UNIT(URP1 X UVP1 X URA1) = UH1
000694: 34,2157           72441                           DOT      SL1                                   #  VA1 . UH1                       B7
000695: 34,2160           03470                                    VACT1
000696: 34,2161           45421                           BDSU     STADR                                 #                                     PL00D
000697: 34,2162           60205                           STODL    DELVCSI
000698: 34,2163           30062                                    INITST                                #  10 FPS
000699: 34,2164           03610                           STORE    DELDV
000700: 34,2165           43345        CSI/B1             DLOAD    DAD                                   #  IF LOOPCT = 16
000701: 34,2166           03604                                    LOOPCT
000702: 34,2167           30072                                    1DPB28
000703: 34,2170           03604                           STORE    LOOPCT
000704: 34,2171           77025                           DSU      AXT,2
000705: 34,2172           30060                                    LOOPMX
000706: 34,2173           00006                                    6
000707: 34,2174           77644                           BPL
000708: 34,2175           70776                                    SCNDSOL
000709: 34,2176           77601        CSI/B2             SETPD
000710: 34,2177           00001                                    0D


000712: 34,2200           51545                           DLOAD    ABS
000713: 34,2201           03572                                    DELVCSI
000714: 34,2202           50025                           DSU      BMN
000715: 34,2203           30064                                    DVMAX1
000716: 34,2204           70224                                    CSI/B23
000717: 34,2205           43174                           AXT,2    BON
000718: 34,2206           00007                                    7
000719: 34,2207           03300                                    S32.1F1
000720: 34,2210           70776                                    SCNDSOL
000721: 34,2211           43014                           BOFF     BON
000722: 34,2212           03342                                    S32.1F3A
000723: 34,2213           70216                                    CSI/B22                               #  FLAG 3 NEQ 3
000724: 34,2214           03303                                    S32.1F3B
000725: 34,2215           70776                                    SCNDSOL
000726: 34,2216           71214        CSI/B22            SET      DLOAD
000727: 34,2217           03060                                    S32.1F1
000728: 34,2220           30066                                    DVMAX2
000729: 34,2221           77765                           SIGN
000730: 34,2222           03572                                    DELVCSI
000731: 34,2223           03572                           STORE    DELVCSI
000732: 34,2224           41575        CSI/B23            VLOAD    PUSH
000733: 34,2225           02307                                    RACT1
000734: 34,2226           63256                           UNIT     PDVL
000735: 34,2227           02265                                    UP1
000736: 34,2230           53435                           VXV      UNIT                                  #  UNIT(URP1 X UVP1 X URA1) = UH1
000737: 34,2231           76561                           VXSC     VSL1
000738: 34,2232           03572                                    DELVCSI
000739: 34,2233           02273                           STORE    DELVEET1
000740: 34,2234           40055                           VAD      BOV
000741: 34,2235           03470                                    VACT1
000742: 34,2236           70237                                    CSI/B23D
000743: 34,2237           37564        CSI/B23D           STCALL   VACT4
000744: 34,2240           46377                                    VECSHIFT
000745: 34,2241           26744                           STOVL    VVEC
000746: 34,2242           77614                           SET
000747: 34,2243           03466                                    RVSW
000748: 34,2244           26655                           STOVL    RVEC
000749: 34,2245           32360                                    SN359+
000750: 34,2246           36730                           STCALL   SNTH                                  #  ALSO CSTH
000751: 34,2247           24745                                    TIMETHET
000752: 34,2250           72142                           SR1      LXA,1
000753: 34,2251           03375                                    RTX1
000754: 34,2252           37602                           STCALL   HAFPA1
000755: 34,2253           46307                                    PERIAPO
000756: 34,2254           77624                           CALL
000757: 34,2255           46407                                    SHIFTR1
000758: 34,2256           17600                           STODL    POSTCSI
000759: 34,2257           03617                                    CENTANG
000760: 34,2260           52054                           BZE      GOTO
000761: 34,2261           70263                                    +2


000763: 34,2262           70372                                    CIRCL
000764: 34,2263           77745                           DLOAD
000765: 34,2264           02752                                    ECC
000766: 34,2265           50025                           DSU      BMN
000767: 34,2266           30110                                    ONETHTH
000768: 34,2267           70372                                    CIRCL
000769: 34,2270           45145                           DLOAD    CALL
000770: 34,2271           00041                                    R1
000771: 34,2272           46407                                    SHIFTR1
000772: 34,2273           60201                           SETPD    NORM
000773: 34,2274           00003                                    2D
000774: 34,2275           00047                                    X1
000775: 34,2276           50315                           PDVL     DOT                                   #                                     PL04D
000776: 34,2277           02307                                    RACT1
000777: 34,2300           03564                                    VACT4
000778: 34,2301           56246                           ABS      DDV
000779: 34,2302           00003                                    02D                                   #  (/RDOTV/)/R1           B36-B29= B7
000780: 34,2303           45257                           SL*      DSU
000781: 34,2304           20201                                    0,1
000782: 34,2305           30100                                    NICKELDP
000783: 34,2306           71240                           BMN      DLOAD
000784: 34,2307           70372                                    CIRCL
000785: 34,2310           02740                                    P
000786: 34,2311           45312                           SL2      DSU
000787: 34,2312           30070                                    1DPB2
000788: 34,2313           14017                           STODL    14D
000789: 34,2314           02323                                    RTSR1/MU
000790: 34,2315           56342                           SR1      DDV                                   #  (1/ROOTMU)/R1      B-16-B29 = B-45 PL02D
000791: 34,2316           41325                           PDDL     DMP
000792: 34,2317           02740                                    P
000793: 34,2320           00041                                    R1
000794: 34,2321           77624                           CALL
000795: 34,2322           46407                                    SHIFTR1
000796: 34,2323           72412                           SL4      SL1
000797: 34,2324           41366                           SQRT     DMP                                   #  ((P/MU)**.5)/R1    B14+B-45 = B-31 PL02D
000798: 34,2325           52414                           BOFF     SL3
000799: 34,2326           04343                                    CMOONFLG
000800: 34,2327           70330                                    CSI/B3
000801: 34,2330           50315        CSI/B3             PDVL     DOT
000802: 34,2331           02307                                    RACT1
000803: 34,2332           03564                                    VACT4
000804: 34,2333           03615                           STORE    RDOTV
000805: 34,2334           77646                           ABS
000806: 34,2335           41301                           NORM     DMP                                   #  ((P/MU)**.5)RDOTV/R1               PL02D
000807: 34,2336           00050                                    X2
000808: 34,2337           53660                           XSU,1    SL*                                   #                   B-31+B36-B3 = B2
000809: 34,2340           00047                                    X2
000810: 34,2341           20204                                    3,1
000811: 34,2342           14015                           STODL    12D
000812: 34,2343           32364                                    P30ZERO


000814: 34,2344           00021                           STORE    16D
000815: 34,2345           53575                           VLOAD    UNIT
000816: 34,2346           00015                                    12D
000817: 34,2347           26730                           STOVL    SNTH                                  #  ALSO STORES CSTH AND 0
000818: 34,2350           02307                                    RACT1
000819: 34,2351           75315                           PDVL     SIGN
000820: 34,2352           03564                                    VACT4
000821: 34,2353           03615                                    RDOTV
000822: 34,2354           45076                           VCOMP    CALL
000823: 34,2355           46377                                    VECSHIFT
000824: 34,2356           26744                           STOVL    VVEC
000825: 34,2357           77614                           SET
000826: 34,2360           03466                                    RVSW
000827: 34,2361           36655                           STCALL   RVEC
000828: 34,2362           24745                                    TIMETHET
000829: 34,2363           51125                           PDDL     BPL
000830: 34,2364           03615                                    RDOTV
000831: 34,2365           70376                                    NTP/2
000832: 34,2366           45345                           DLOAD    DSU
000833: 34,2367           03602                                    HAFPA1
000834: 34,2370           52006                           PUSH     GOTO
000835: 34,2371           70376                                    NTP/2
000836: 34,2372           71201        CIRCL              SETPD    DLOAD
000837: 34,2373           00001                                    00D
000838: 34,2374           32364                                    P30ZERO
000839: 34,2375           77606                           PUSH
000840: 34,2376           41345        NTP/2              DLOAD    DMP
000841: 34,2377           03465                                    NN
000842: 34,2400           03602                                    HAFPA1
000843: 34,2401           45261                           SL       DSU
000844: 34,2402           20217                                    14D
000845: 34,2403           77615                           DAD
000846: 34,2404           03632                                    TCSI
000847: 34,2405           03374                           STORE    TCDH
000848: 34,2406           77021                           BDSU     AXT,2
000849: 34,2407           03634                                    TTPI
000850: 34,2410           00005                                    5D
000851: 34,2411           40240                           BMN      SETPD
000852: 34,2412           70776                                    SCNDSOL
000853: 34,2413           00001                                    0D
000854: 34,2414           63375                           VLOAD    PDVL
000855: 34,2415           03564                                    VACT4
000856: 34,2416           02307                                    RACT1
000857: 34,2417           77624                           CALL
000858: 34,2420           71062                                    INTINT2C
000859: 34,2421           26315                           STOVL    RACT2
000860: 34,2422           00007                                    VATT
000861: 34,2423           27512                           STOVL    VACT2
000862: 34,2424           03504                                    VPASS1
000863: 34,2425           63201                           SETPD    PDVL


000865: 34,2426           00001                                    0D
000866: 34,2427           03476                                    RPASS1
000867: 34,2430           77624                           CALL
000868: 34,2431           71062                                    INTINT2C
000869: 34,2432           27520                           STOVL    RPASS2
000870: 34,2433           00007                                    VATT
000871: 34,2434           37526                           STCALL   VPASS2
000872: 34,2435           71133                                    CDHMVR
000873: 34,2436           40375                           VLOAD    SETPD
000874: 34,2437           02315                                    RACT2
000875: 34,2440           00001                                    0D
000876: 34,2441           45115                           PDVL     CALL
000877: 34,2442           03542                                    VACT3
000878: 34,2443           46277                                    PERIAPO1
000879: 34,2444           77624                           CALL
000880: 34,2445           46407                                    SHIFTR1
000881: 34,2446           27602                           STOVL    POSTCDH
000882: 34,2447           03542                                    VACT3
000883: 34,2450           63201                           SETPD    PDVL
000884: 34,2451           00001                                    0D
000885: 34,2452           02315                                    RACT2
000886: 34,2453           65325                           PDDL     PDDL
000887: 34,2454           03374                                    TCDH
000888: 34,2455           03634                                    TTPI
000889: 34,2456           41525                           PDDL     PUSH
000890: 34,2457           33671                                    TWOPI
000891: 34,2460           77624                           CALL
000892: 34,2461           73422                                    INTINT
000893: 34,2462           77624                           CALL
000894: 34,2463           46363                                    ACTIVE
000895: 34,2464           77745                           DLOAD
000896: 34,2465           02263                                    ELEV
000897: 34,2466           73401                           SETPD    SINE
000898: 34,2467           00007                                    6D
000899: 34,2470           53515                           PDVL     UNIT
000900: 34,2471           03534                                    RACT3
000901: 34,2472           00001                           STORE    00D                                   #  URA3 AT 00D
000902: 34,2473           47315                           PDVL     VXV                                   #  PL14D,PL08D
000903: 34,2474           02265                                    UP1
000904: 34,2475           77656                           UNIT
000905: 34,2476           71525                           PDDL     COSINE                                #  UNIT(URA3XUVA3XURA3) = UH3      B1 PL14D
000906: 34,2477           02263                                    ELEV
000907: 34,2500           45561                           VXSC     STADR                                 #  (COSLOS)(UH3)                   B2 PL08D
000908: 34,2501           77754                           STORE    18D                                   #      PLUS
000909: 34,2502           74345                           DLOAD    VXSC                                  #  (SINLOS)(URA3) = U              B2 PL00D
000910: 34,2503           76455                           VAD      VSL1
000911: 34,2504           00023                                    18D                                   #                                  B1
000912: 34,2505           50206                           PUSH     DOT                                   #                                     PL06D
000913: 34,2506           03534                                    RACT3                                 #  (U . RA3) = TEMP1      B1 +B29=B30
000914: 34,2507           41552                           SL1      PUSH                                  #                                 B29 PL08D


000916: 34,2510           72316                           DSQ      TLOAD                                 #  TEMP1**2                       B58
000917: 34,2511           00155                                    MPAC
000918: 34,2512           50315                           PDVL     DOT                                   #                                     PL11D
000919: 34,2513           03534                                    RACT3
000920: 34,2514           03534                                    RACT3
000921: 34,2515           57551                           TLOAD    DCOMP                                 #  RA3.RA3
000922: 34,2516           00155                                    MPAC
000923: 34,2517           50315                           PDVL     DOT                                   #  RP3.RP3                        B58 PL14D
000924: 34,2520           03550                                    RPASS3
000925: 34,2521           03550                                    RPASS3                                #                                     PL11D
000926: 34,2522           76371                           TAD      TAD                                   #  TEMP1**2+RA3.RA3+RP3.RP3=TEMP2     PL08D
000927: 34,2523           71244                           BPL      DLOAD
000928: 34,2524           70542                                    K1ORK2
000929: 34,2525           03604                                    LOOPCT
000930: 34,2526           77025                           DSU      AXT,2
000931: 34,2527           30072                                    1DPB28
000932: 34,2530           00001                                    1D
000933: 34,2531           77654                           BZE
000934: 34,2532           72036                                    ALMXITA
000935: 34,2533           70545                           DLOAD    SR1
000936: 34,2534           03610                                    DELDV
000937: 34,2535           03610                           STORE    DELDV
000938: 34,2536           77621                           BDSU
000939: 34,2537           03574                                    DVPREV
000940: 34,2540           37572                           STCALL   DELVCSI
000941: 34,2541           70165                                    CSI/B1
000942: 34,2542           41566        K1ORK2             SQRT     PUSH                                  #  TEMP3 = TEMP2**.5              B29 PL10D
000943: 34,2543           45276                           DCOMP    DSU
000944: 34,2544           00007                                    06D                                   #  -TEMP1-TEMP3 =K2 AT 10D
000945: 34,2545           14013                           STODL    10D                                   #                                     PL08D
000946: 34,2546           45425                           DSU      STADR                                 #                                     PL06D
000947: 34,2547           77762                           STORE    12D                                   #  -TEMP1+TEMP3 =K1 AT 12D
000948: 34,2550           77646                           ABS
000949: 34,2551           14017                           STODL    14D
000950: 34,2552           00013                                    10D
000951: 34,2553           45246                           ABS      DSU
000952: 34,2554           00017                                    14D
000953: 34,2555           71240                           BMN      DLOAD
000954: 34,2556           70561                                    K2.
000955: 34,2557           00015                                    12D
000956: 34,2560           00013                           STORE    10D                                   #  K=K1
000957: 34,2561           77745        K2.                DLOAD
000958: 34,2562           00013                                    10D
000959: 34,2563           76561                           VXSC     VSL1
000960: 34,2564           53455                           VAD      UNIT                                  #  V=RA3+KU  UNIT                  B1
000961: 34,2565           03534                                    RACT3
000962: 34,2566           53515                           PDVL     UNIT
000963: 34,2567           03550                                    RPASS3                                #                                     PL06D
000964: 34,2570           53515                           PDVL     UNIT
000965: 34,2571           03556                                    VPASS3                                #                                     PL12D


000967: 34,2572           63235                           VXV      PDVL                                  #  UVP3 X URP3                        PL18D
000968: 34,2573           00007                                    06D
000969: 34,2574           00007                                    06D
000970: 34,2575           50235                           VXV      DOT
000971: 34,2576           00001                                    00D
000972: 34,2577           77626                           STADR                                          #                                     PL12D
000973: 34,2600           53762                           STOVL    12D                                   #  (URP3XV).(UVP3XURP3)=TEMP          PL06D
000974: 34,2601           72441                           DOT      SL1                                   #                                     PL00D
000975: 34,2602           75326                           ARCCOS   SIGN
000976: 34,2603           00015                                    12D                                   #                                  B0
000977: 34,2604           41542                           SR1      PUSH                                  #  GAMMA=SIGN(TEMP)ARCOS(UNITV.URP3)  PL02D
000978: 34,2605           71214                           BON      DLOAD
000979: 34,2606           03301                                    S32.1F2
000980: 34,2607           70644                                    FRSTPAS
000981: 34,2610           00001                                    00D                                   #  NOT THE FIRST PASS OF A CYCLE
000982: 34,2611           65225                           DSU      PDDL                                  #  GAMMA-GAMPREV                   B1 PL04D
000983: 34,2612           03606                                    GAMPREV
000984: 34,2613           03572                                    DELVCSI
000985: 34,2614           60225                           DSU      NORM                                  #                                  B7
000986: 34,2615           03574                                    DVPREV
000987: 34,2616           00047                                    X1
000988: 34,2617           65265                           BDDV     PDDL                                  #  (GAM-GAMPREV)/(DV-DVPREV)   B-6+N1 PL06D
000989: 34,2620           00003                                    02D                                   #          = SLOPE
000990: 34,2621           03572                                    DELVCSI
000991: 34,2622           03574                           STORE    DVPREV
000992: 34,2623           43014                           BOFF     BOFF
000993: 34,2624           03342                                    S32.1F3A
000994: 34,2625           70656                                    THRDCHK
000995: 34,2626           03343                                    S32.1F3B
000996: 34,2627           70656                                    THRDCHK
000997: 34,2630           41345                           DLOAD    DMP
000998: 34,2631           00003                                    02D
000999: 34,2632           03606                                    GAMPREV
001000: 34,2633           71244                           BPL      DLOAD
001001: 34,2634           70663                                    FIFTYFPS
001002: 34,2635           30062                                    INITST
001003: 34,2636           77765                           SIGN
001004: 34,2637           03610                                    DELDV
001005: 34,2640           03610                           STORE    DELDV
001006: 34,2641           43014                           SET      CLEAR
001007: 34,2642           03062                                    S32.1F3A
001008: 34,2643           03263                                    S32.1F3B
001009: 34,2644           77745        FRSTPAS            DLOAD
001010: 34,2645           00001                                    00D
001011: 34,2646           17606                           STODL    GAMPREV
001012: 34,2647           03572                                    DELVCSI
001013: 34,2650           03574                           STORE    DVPREV
001014: 34,2651           43025                           DSU      CLEAR
001015: 34,2652           03610                                    DELDV
001016: 34,2653           03261                                    S32.1F2


001018: 34,2654           37572                           STCALL   DELVCSI
001019: 34,2655           70165                                    CSI/B1
001020: 34,2656           43014        THRDCHK            BON      BON
001021: 34,2657           03302                                    S32.1F3A
001022: 34,2660           70702                                    NEWTN
001023: 34,2661           03303                                    S32.1F3B
001024: 34,2662           70702                                    NEWTN
001025: 34,2663           75345        FIFTYFPS           DLOAD    SIGN
001026: 34,2664           30102                                    FIFPSDP
001027: 34,2665           00005                                    04D
001028: 34,2666           77765                           SIGN
001029: 34,2667           03606                                    GAMPREV
001030: 34,2670           03610                           STORE    DELDV
001031: 34,2671           43276                           DCOMP    DAD
001032: 34,2672           03572                                    DELVCSI
001033: 34,2673           17572                           STODL    DELVCSI
001034: 34,2674           00001                                    00D
001035: 34,2675           43014                           SET      SET
001036: 34,2676           03063                                    S32.1F3B
001037: 34,2677           03062                                    S32.1F3A
001038: 34,2700           37606                           STCALL   GAMPREV
001039: 34,2701           70176                                    CSI/B2
001040: 34,2702           60345        NEWTN              DLOAD    NORM
001041: 34,2703           00005                                    04D
001042: 34,2704           00050                                    X2
001043: 34,2705           54065                           BDDV     XSU,1
001044: 34,2706           00001                                    00D
001045: 34,2707           00047                                    X2
001046: 34,2710           77657                           SR*
001047: 34,2711           20601                                    0,1
001048: 34,2712           17610                           STODL    DELDV
001049: 34,2713           00001                                    00D
001050: 34,2714           03606                           STORE    GAMPREV
001051: 34,2715           51545                           DLOAD    ABS
001052: 34,2716           03610                                    DELDV                                 #                                     PL08D
001053: 34,2717           45206                           PUSH     DSU
001054: 34,2720           30076                                    EPSILN1
001055: 34,2721           71240                           BMN      DLOAD
001056: 34,2722           70737                                    CSI/SOL
001057: 34,2723           50025                           DSU      BMN
001058: 34,2724           30106                                    DELMAX1
001059: 34,2725           70732                                    CSISTEP
001060: 34,2726           75345                           DLOAD    SIGN
001061: 34,2727           30106                                    DELMAX1
001062: 34,2730           03610                                    DELDV
001063: 34,2731           03610                           STORE    DELDV
001064: 34,2732           45345        CSISTEP            DLOAD    DSU
001065: 34,2733           03572                                    DELVCSI
001066: 34,2734           03610                                    DELDV
001067: 34,2735           37572                           STCALL   DELVCSI


001069: 34,2736           70165                                    CSI/B1
001070: 34,2737           77145        CSI/SOL            DLOAD    AXT,2
001071: 34,2740           03600                                    POSTCSI
001072: 34,2741           00002                                    2
001073: 34,2742           77750                           LXA,1
001074: 34,2743           03375                                    RTX1
001075: 34,2744           50023                           DSU*     BMN
001076: 34,2745           30072                                    PMINE      -2,1
001077: 34,2746           70776                                    SCNDSOL
001078: 34,2747           71374                           AXT,2    DLOAD
001079: 34,2750           00003                                    3
001080: 34,2751           03602                                    POSTCDH
001081: 34,2752           50023                           DSU*     BMN
001082: 34,2753           30072                                    PMINE      -2,1
001083: 34,2754           70776                                    SCNDSOL
001084: 34,2755           45345                           DLOAD    DSU
001085: 34,2756           03374                                    TCDH
001086: 34,2757           03632                                    TCSI
001087: 34,2760           02257                           STORE    T1TOT2
001088: 34,2761           45374                           AXT,2    DSU
001089: 34,2762           00004                                    4
001090: 34,2763           30112                                    TMIN
001091: 34,2764           77040                           BMN      AXT,2
001092: 34,2765           70776                                    SCNDSOL
001093: 34,2766           00005                                    5
001094: 34,2767           45345                           DLOAD    DSU
001095: 34,2770           03634                                    TTPI
001096: 34,2771           03374                                    TCDH
001097: 34,2772           02261                           STORE    T2TOT3
001098: 34,2773           51025                           DSU      BPL
001099: 34,2774           30112                                    TMIN
001100: 34,2775           72116                                    P32/P72C
001101: 34,2776           43014        SCNDSOL            BON      BOFF
001102: 34,2777           03302                                    S32.1F3A
001103: 34,3000           72040                                    ALMXIT
001104: 34,3001           03343                                    S32.1F3B
001105: 34,3002           72040                                    ALMXIT
001106: 34,3003           71334                           SXA,2    DLOAD
001107: 34,3004           03611                                    CSIALRM
001108: 34,3005           32364                                    P30ZERO
001109: 34,3006           43014                           CLEAR    SET
001110: 34,3007           03260                                    S32.1F1
001111: 34,3010           03061                                    S32.1F2
001112: 34,3011           43014                           CLEAR    CLEAR
001113: 34,3012           03262                                    S32.1F3A
001114: 34,3013           03263                                    S32.1F3B
001115: 34,3014           37604                           STCALL   LOOPCT
001116: 34,3015           70125                                    CSI/B
001117:


001119:                                                                                                  #  ..... ADVANCE   .....
001120:
001121:                                                                                                  #  SUBROUTINES USED
001122:
001123:                                                                                                  #        PRECSET
001124:                                                                                                  #        ROTATE
001125:
001126: 34,3016           71220        ADVANCE            STQ      DLOAD
001127: 34,3017           03466                                    SUBEXIT
001128: 34,3020           03440                                    TIG
001129: 34,3021           34041                           STCALL   TDEC1
001130: 34,3022           46341                                    PRECSET
001131: 34,3023           77214                           SET      VLOAD
001132: 34,3024           01067                                    XDELVFLG
001133: 34,3025           03556                                    VPASS3
001134: 34,3026           03526                           STORE    VPASS2
001135: 34,3027           27504                           STOVL    VPASS1
001136: 34,3030           03550                                    RPASS3
001137: 34,3031           03520                           STORE    RPASS2
001138: 34,3032           03476                           STORE    RPASS1
001139: 34,3033           47256                           UNIT     VXV
001140: 34,3034           03504                                    VPASS1
001141: 34,3035           77656                           UNIT
001142: 34,3036           26265                           STOVL    UP1
001143: 34,3037           03534                                    RACT3
001144: 34,3040           37640                           STCALL   RTIG
001145: 34,3041           71052                                    ROTATE
001146: 34,3042           02315                           STORE    RACT2
001147: 34,3043           26307                           STOVL    RACT1
001148: 34,3044           03542                                    VACT3
001149: 34,3045           37646                           STCALL   VTIG
001150: 34,3046           71052                                    ROTATE
001151: 34,3047           03512                           STORE    VACT2
001152: 34,3050           37470                           STCALL   VACT1
001153: 34,3051           03466                                    SUBEXIT
001154:


001156:                                                                                                  #  ..... ROTATE    .....
001157:
001158: 34,3052           41406        ROTATE             PUSH     PUSH
001159: 34,3053           74241                           DOT      VXSC
001160: 34,3054           02265                                    UP1
001161: 34,3055           02265                                    UP1
001162: 34,3056           51352                           VSL2     BVSU
001163: 34,3057           63256                           UNIT     PDVL
001164: 34,3060           74246                           ABVAL    VXSC
001165: 34,3061           43572                           VSL1     RVQ
001166:


001168:                                                                                                  #  ..... INTINTNA  .....
001169:
001170: 34,3062           65325        INTINT2C           PDDL     PDDL
001171: 34,3063           03632                                    TCSI
001172: 34,3064           03374                                    TCDH
001173: 34,3065           41525                           PDDL     PUSH
001174: 34,3066           33671                                    TWOPI
001175: 34,3067           77650                           GOTO
001176: 34,3070           73422                                    INTINT
001177: 34,3071           65325        INTINT3P           PDDL     PDDL
001178: 34,3072           03374                                    TCDH
001179: 34,3073           03634                                    TTPI
001180: 34,3074           41525                           PDDL     PUSH
001181: 34,3075           32364                                    P30ZERO
001182: 34,3076           77650                           GOTO
001183: 34,3077           73422                                    INTINT
001184:


001186:                                                                                                  #  ..... S32/33.1  .....
001187:
001188:                                                                                                  #  SUBROUTINES USED
001189:
001190:                                                                                                  #        S32/33.X
001191:
001192: 34,3100           76020        S32/33.1           STQ      AXT,1
001193: 34,3101           03466                                    SUBEXIT
001194: 34,3102           01521                           VN       0681
001195: 34,3103           77624                           CALL
001196: 34,3104           72334                                    DISDVLVC
001197: 34,3105           77624                           CALL
001198: 34,3106           71120                                    S32/33.X
001199: 34,3107           61375                           VLOAD    VXM
001200: 34,3110           03432                                    DELVLVC
001201: 34,3111           00001                                    0D
001202: 34,3112           77772                           VSL1
001203: 34,3113           03654                           STORE    DELVSIN
001204: 34,3114           51406                           PUSH     ABVAL
001205: 34,3115           27662                           STOVL    DELVSAB
001206: 34,3116           77650                           GOTO
001207: 34,3117           03466                                    SUBEXIT
001208:


001210:                                                                                                  #  ..... S32/33.X  .....
001211:
001212: 34,3120           77201        S32/33.X           SETPD    VLOAD
001213: 34,3121           00007                                    6D
001214: 34,3122           02265                                    UP1
001215: 34,3123           63276                           VCOMP    PDVL
001216: 34,3124           02307                                    RACT1
001217: 34,3125           57456                           UNIT     VCOMP
001218: 34,3126           47206                           PUSH     VXV
001219: 34,3127           02265                                    UP1
001220: 34,3130           77772                           VSL1
001221: 34,3131           00001                           STORE    0D
001222: 34,3132           77616                           RVQ
001223:


001225:                                                                                                  #  ..... CDHMVR    .....
001226:
001227:                                                                                                  #  SUBROUTINES USED
001228:
001229:                                                                                                  #        VECSHIFT
001230:                                                                                                  #        TIMETHET
001231:                                                                                                  #        SHIFTR1
001232:
001233: 34,3133           77220        CDHMVR             STQ      VLOAD
001234: 34,3134           03466                                    SUBEXIT
001235: 34,3135           02315                                    RACT2
001236: 34,3136           53406                           PUSH     UNIT
001237: 34,3137           27542                           STOVL    UNVEC                                 #  UR SUB A
001238: 34,3140           03520                                    RPASS2
001239: 34,3141           50256                           UNIT     DOT
001240: 34,3142           03542                                    UNVEC
001241: 34,3143           72406                           PUSH     SL1
001242: 34,3144           16732                           STODL    CSTH
001243: 34,3145           65316                           DSQ      PDDL
001244: 34,3146           06414                                    DP1/4TH
001245: 34,3147           45302                           SR2      DSU
001246: 34,3150           72566                           SQRT     SL1
001247: 34,3151           57515                           PDVL     VCOMP
001248: 34,3152           77635                           VXV
001249: 34,3153           03520                                    RPASS2
001250: 34,3154           65241                           DOT      PDDL
001251: 34,3155           02265                                    UP1
001252: 34,3156           45565                           SIGN     STADR
001253: 34,3157           51047                           STOVL    SNTH
001254: 34,3160           03520                                    RPASS2
001255: 34,3161           45115                           PDVL     CALL
001256: 34,3162           03526                                    VPASS2
001257: 34,3163           46377                                    VECSHIFT
001258: 34,3164           26744                           STOVL    VVEC
001259: 34,3165           77614                           CLEAR
001260: 34,3166           03666                                    RVSW
001261: 34,3167           36655                           STCALL   RVEC
001262: 34,3170           24745                                    TIMETHET
001263: 34,3171           53754                           LXA,2    VSL*
001264: 34,3172           03376                                    RTX2
001265: 34,3173           57576                                    0,2
001266: 34,3174           00023                           STORE    18D
001267: 34,3175           76441                           DOT      SL1R
001268: 34,3176           03542                                    UNVEC
001269: 34,3177           51515                           PDVL     ABVAL                                 #  0D = V SUB PV
001270: 34,3200           63257                           SL*      PDVL
001271: 34,3201           57576                                    0,2
001272: 34,3202           02315                                    RACT2
001273: 34,3203           65246                           ABVAL    PDDL                                  #  2D = LENGTH OF R SUB A
001274: 34,3204           77625                           DSU


001276: 34,3205           00003                                    02D
001277: 34,3206           17576                           STODL    DIFFALT                               #  DELTA H IN METERS          B+29
001278: 34,3207           02742                                    R1A
001279: 34,3210           65301                           NORM     PDDL                                  #  2 - R V**/MU                        04D
001280: 34,3211           00047                                    X1
001281: 34,3212           00041                                    R1
001282: 34,3213           77624                           CALL
001283: 34,3214           46407                                    SHIFTR1
001284: 34,3215           56362                           SR1R     DDV
001285: 34,3216           41457                           SL*      PUSH
001286: 34,3217           20174                                    0          -5,1
001287: 34,3220           65225                           DSU      PDDL                                  #  A SUB A                    B+29     04D
001288: 34,3221           03576                                    DIFFALT
001289: 34,3222           56302                           SR2      DDV                                   #  A SUB P                   B+31
001290: 34,3223           00005                                    04D                                   #                            B+2
001291: 34,3224           75406                           PUSH     SQRT                                  #     A SUB P/A SUB A          06D
001292: 34,3225           41275                           DMPR     DMP
001293: 34,3226           00007                                    06D
001294: 34,3227           00001                                    00D
001295: 34,3230           65272                           SL3R     PDDL                                  #  V SUB AV METERS/CS         B+7      08D
001296: 34,3231           00003                                    02D                                   #  R SUB A MAGNITUDE  B+29
001297: 34,3232           65301                           NORM     PDDL
001298: 34,3233           00047                                    X1
001299: 34,3234           02325                                    RTMU
001300: 34,3235           56342                           SR1      DDV                                   #  2MU  B+38
001301: 34,3236           65257                           SL*      PDDL                                  #     2 MU/R SUBAA    B+14     10D
001302: 34,3237           20174                                    0          -5,1
001303: 34,3240           00005                                    04D                                   #  ASUBA                     B+29
001304: 34,3241           65301                           NORM     PDDL
001305: 34,3242           00050                                    X2
001306: 34,3243           02325                                    RTMU
001307: 34,3244           56342                           SR1      DDV
001308: 34,3245           44257                           SL*      BDSU
001309: 34,3246           57604                                    0          -6,2                       #  2U/R - U/A   B+14 (METERS/CS)SQ
001310: 34,3247           63525                           PDDL     DSQ                                   #                                     10D
001311: 34,3250           00011                                    08D
001312: 34,3251           75421                           BDSU     SQRT
001313: 34,3252           47315                           PDVL     VXV                                   #  SQRT(MU(2/R SUB A-1/A SUB A)-VSUBA2)10D
001314: 34,3253           02265                                    UP1
001315: 34,3254           03542                                    UNVEC
001316: 34,3255           74256                           UNIT     VXSC
001317: 34,3256           00013                                    10D
001318: 34,3257           74315                           PDVL     VXSC
001319: 34,3260           03542                                    UNVEC
001320: 34,3261           00011                                    08D
001321: 34,3262           76455                           VAD      VSL1
001322: 34,3263           77626                           STADR
001323: 34,3264           74235                           STORE    VACT3
001324: 34,3265           77651                           VSU
001325: 34,3266           03512                                    VACT2


001327: 34,3267           36301                           STCALL   DELVEET2                              #  DELTA VCDH - REFERENCE COORDINATES
001328: 34,3270           03466                                    SUBEXIT
001329:


001331:                                                                                                  #  ..... COMPTGO   .....
001332:
001333:                                                                                                  #  SUBROUTINES USED
001334:
001335:                                                                                                  #        CLOKTASK
001336:                                                                                                  #        2PHSCHNG
001337:
001338: 35,2376                                           BANK     35
001339: 35,2000                                           SETLOC   CSI/CDH
001340: 35,2000                                           BANK
001341:
001342: 35,2376  E7,1463                                  EBANK=   RTRN
001343:
001344: 35,2376                                           COUNT*   $$/P3575
001345:
001346: 35,2376           00006        COMPTGO            EXTEND
001347: 35,2377           23463                           QXCH     RTRN
001348: 35,2400           34755                           CAF      ZERO
001349: 35,2401           55163                           TS       DISPDEX
001350: 35,2402           34752                           CAF      BIT2
001351: 35,2403           00004                           INHINT
001352: 35,2404           05203                           TC       WAITLIST
001353: 35,2405  E7,1453                                  EBANK=   WHICH
001354: 35,2405           02722 74067                     2CADR    CLOKTASK
001355:
001356: 35,2407           05327                           TC       2PHSCHNG
001357: 35,2410           40036                           OCT      40036
001358: 35,2411           05024                           OCT      05024
001359: 35,2412           13000                           OCT      13000
001360: 35,2413           01463                           TC       RTRN

End of include-file P32-P35,_P72-P75.agc.  Parent file is MAIN.agc


