
Source Code


000002:                                                                                                  ## Copyright:   Public domain.
000003:                                                                                                  ## Filename:    P34-P35,_P74-P75.agc
000004:                                                                                                  ## Purpose:     A section of LUM69 revision 2.
000005:                                                                                                  ##              It is part of the reconstructed source code for the flown
000006:                                                                                                  ##              version of the flight software for the Lunar Module's (LM)
000007:                                                                                                  ##              Apollo Guidance Computer (AGC) for Apollo 10. The code has
000008:                                                                                                  ##              been recreated from a copy of Luminary revsion 069, using
000009:                                                                                                  ##              changes present in Luminary 099 which were described in
000010:                                                                                                  ##              Luminary memos 75 and 78. The code has been adapted such
000011:                                                                                                  ##              that the resulting bugger words exactly match those specified
000012:                                                                                                  ##              for LUM69 revision 2 in NASA drawing 2021152B, which gives
000013:                                                                                                  ##              relatively high confidence that the reconstruction is correct.
000014:                                                                                                  ## Reference:   pp. 667-711
000015:                                                                                                  ## Assembler:   yaYUL
000016:                                                                                                  ## Contact:     Ron Burkey <info@sandroid.org>.
000017:                                                                                                  ## Website:     www.ibiblio.org/apollo/index.html
000018:                                                                                                  ## Mod history: 2019-07-27 MAS  Created from Luminary 69.
000019:


000021:                                                                                                  #  TRANSFER PHASE INITIATION (TPI) PROGRAMS (P34 AND P74)
000022:
000023:                                                                                                  #  MOD NO -1                     LOG SECTION - P32-P35, P72-P75
000024:                                                                                                  #  MOD BY WHITE.P                DATE  1JUNE67
000025:
000026:                                                                                                  #  PURPOSE
000027:
000028:                                                                                                  #        (1)     TO CALCULATE THE REQUIRED DELTA V AND OTHER INITIAL CONDITIONS
000029:                                                                                                  #                REQUIRED BY THE ACTIVE VEHICLE FOR EXECUTION OF THE TRANSFER
000030:                                                                                                  #                PHASE INITIATION (TPI) MANEUVER, GIVEN -
000031:
000032:                                                                                                  #                (A)     TIME OF IGNITION TIG (TPI) OR THE ELEVATION ANGLE (E) OF
000033:                                                                                                  #                        THE ACTIVE/PASSIVE VEHICLE LOS AT TIG (TPI).
000034:
000035:                                                                                                  #                (B)     CENTRAL ANGLE OF TRANSFER (CENTANG) FROM TIG (TPI) TO
000036:                                                                                                  #                        INTERCEPT TIME (TIG (TPF)).
000037:
000038:                                                                                                  #        (2)     TO CALCULATE TIG (TPI) GIVEN E OR E GIVEN TIG (TPI).
000039:
000040:                                                                                                  #        (3)     TO CALCULATE THESE PARAMETERS BASED UPON MANEUVER DATA
000041:                                                                                                  #                APPROVED AND KEYED INTO THE DSKY BY THE ASTRONAUT.
000042:
000043:                                                                                                  #        (4)     TO DISPLAY TO THE ASTRONAUT AND THE GROUND CERTAIN DEPENDENT
000044:                                                                                                  #                VARIABLES ASSOCIATED WITH THE MANEUVER FOR APPROVAL BY THE
000045:                                                                                                  #                ASTRONAUT/GROUND.
000046:
000047:                                                                                                  #        (5)     TO STORE THE TPI TARGET PARAMETERS FOR USE BY THE DESIRED
000048:                                                                                                  #                THRUSTING PROGRAM.
000049:
000050:                                                                                                  #  ASSUMPTIONS
000051:
000052:                                                                                                  #        (1)     LM ONLY - THIS PROGRAM IS BASED UPON PREVIOUS COMPLETION OF
000053:                                                                                                  #                THE CONSTANT DELTA ALTITUDE (CDH) PROGRAM (P33/P73).
000054:                                                                                                  #                THEREFORE -
000055:
000056:                                                                                                  #                (A)     AT A SELECTED TPI TIME (NOW IN STORAGE) THE LINE OF SIGHT
000057:                                                                                                  #                        BETWEEN THE ACTIVE AND PASSIVE VEHICLES WAS SELECTED TO BE
000058:                                                                                                  #                        A PRESCRIBED ANGLE (E) (NOW IN STORAGE) FROM THE
000059:                                                                                                  #                        HORIZONTAL PLANE DEFINED BY THE ACTIVE VEHICLE POSITION.
000060:
000061:                                                                                                  #                (B)     THE TIME BETWEEN CDH IGNITION AND TPI IGNITION WAS
000062:                                                                                                  #                        COMPUTED TO BE GREATER THAN 10 MINUTES.
000063:
000064:                                                                                                  #                (C)     THE VARIATION OF THE ALTITUDE DIFFERENCE BETWEEN THE
000065:                                                                                                  #                        ORBITS WAS MINIMIZED.
000066:
000067:                                                                                                  #                (D)     THE PERICENTER ALTITUDES OF ORBITS FOLLOWING CSI AND
000068:                                                                                                  #                        CDH WERE COMPUTED TO BE GREATER THAN 35,000 FT FOR LUNAR


000070:                                                                                                  #                        ORBIT OR 85 NM FOR EARTH ORBIT.
000071:
000072:                                                                                                  #                (E)     THE CSI AND CDH MANEUVERS WERE ASSUMED TO BE PARALLEL TO
000073:                                                                                                  #                        THE PLANE OF THE PASSIVE VEHICLE ORBIT.  HOWEVER, CREW
000074:                                                                                                  #                        MODIFICATION OF DELTA V (LV) COMPONENTS MAY HAVE RESULTED
000075:                                                                                                  #                        IN AN OUT-OF-PLANE MANEUVER.
000076:
000077:                                                                                                  #        (2)     STATE VECTOR UPDATED BY P27 ARE DISALLOWED DURING AUTOMATIC
000078:                                                                                                  #                STATE VECTOR UPDATING INITIATED BY P20 (SEE ASSUMPTION (4)).
000079:
000080:                                                                                                  #        (3)     THIS PROGRAM MUST BE DONE OVER A TRACKING STATION FOR REAL
000081:                                                                                                  #                TIME GROUND PARTICIPATION IN DATA INPUT AND OUTPUT.  COMPUTED
000082:                                                                                                  #                VARIABLES MAY BE STORED FOR LATER VERIFICATION BY THE GROUND.
000083:                                                                                                  #                THESE STORAGE CAPABILITIES ARE LIMITED ONLY TO THE PARAMETERS
000084:                                                                                                  #                FOR ONE THRUSTING MANEUVER AT A TIME EXCEPT FOR CONCENTRIC
000085:                                                                                                  #                FLIGHT PLAN MANEUVER SEQUENCES.
000086:
000087:                                                                                                  #        (4)     THE RENDEZVOUS RADAR MAY OR MAY NOT BE USED TO UPDATE THE LM
000088:                                                                                                  #                OR CSM STATE VECTORS FOR THIS PROGRAM.  IF RADAR USE IS
000089:                                                                                                  #                DESIRED THE RADAR WAS TURNED ON AND LOCKED ON THE CSM BY
000090:                                                                                                  #                PREVIOUS SELECTION OF P20.  RADAR SIGHTING MARKS WILL BE MADE
000091:                                                                                                  #                AUTOMATICALLY APPROXIMATELY ONCE A MINUTE WHEN ENABLED BY THE
000092:                                                                                                  #                TRACK AND UPDATE FLAGS (SEE P20).  THE RENDEZVOUS TRACKING
000093:                                                                                                  #                MARK COUNTER IS ZEROED BY THE SELECTION OF P20 AND AFTER EACH
000094:                                                                                                  #                THRUSTING MANEUVER.
000095:
000096:                                                                                                  #        (5)     THE ISS NEED NOT BE ON TO COMPLETE THIS PROGRAM.
000097:
000098:                                                                                                  #        (6)     THE OPERATION OF THE PROGRAM UTILIZES THE FOLLOWING FLAGS -
000099:
000100:                                                                                                  #                        ACTIVE VEHICLE FLAG - DESIGNATES THE VEHICLE WHICH IS
000101:                                                                                                  #                        DOING RENDEZVOUS THRUSTING MANEUVERS TO THE PROGRAM WHICH
000102:                                                                                                  #                        CALCULATES THE MANEUVER PARAMETERS.  SET AT THE START OF
000103:                                                                                                  #                        EACH RENDEZVOUS PRE-THRUSTING PROGRAM.
000104:
000105:                                                                                                  #                        FINAL FLAG - SELECTS FINAL PROGRAM DISPLAYS AFTER CREW HAS
000106:                                                                                                  #                        SELECTED THE FINAL MANEUVER COMPUTATION CYCLE.
000107:
000108:                                                                                                  #                        EXTERNAL DELTA V FLAG - DESIGNATES THE TYPE OF STEERING
000109:                                                                                                  #                        REQUIRED FOR EXECUTION OF THIS MANEUVER BY THE THRUSTING
000110:                                                                                                  #                        PROGRAM SELECTED AFTER COMPLETION OF THIS PROGRAM.
000111:
000112:                                                                                                  #        (7)     ONCE THE PARAMETWRS REQUIRED FOR COMPUTION OF THE MANEUVER
000113:                                                                                                  #                HAVE BEEN COMPLETELY SPECIFIED, THE VALUE OF THE ACTIVE
000114:                                                                                                  #                VEHICLE CENTRAL ANGLE OF TRANSFER IS COMPUTED AND STORED.
000115:                                                                                                  #                THIS NUMBER WILL BE AVAILABLE FOR DISPLAY TO THE ASTRONAUT
000116:                                                                                                  #                THROUGH THE USE OF V06N52.
000117:
000118:                                                                                                  #                THE ASTRONAUT WILL CALL THIS DISPLAY TO VERIFY THAT THE
000119:                                                                                                  #                CENTRAL ANGLE OF TRANSFER OF THE ACTIVE VEHICLE IS NOT WITHIN


000121:                                                                                                  #                170 TO 190 DEGREES.  IF THE ANGLE IS WITHIN THIS ZONE THE
000122:                                                                                                  #                ASTRONAUT SHOULD REASSESS THE INPUT TARGETING PARAMETERS BASED
000123:                                                                                                  #                UPON DELTA V AND EXPECTED MANEUVER TIME.
000124:
000125:                                                                                                  #        (8)     THIS PROGRAM IS SELECTED BY THE ASTRONAUT BY DSKY ENTRY -
000126:
000127:                                                                                                  #                        P34 IF THIS VEHICLE IS ACTIVE VEHICLE.
000128:
000129:                                                                                                  #                        P74 IF THIS VEHICLE IS PASSIVE VEHICLE.
000130:
000131:                                                                                                  #  INPUT
000132:
000133:                                                                                                  #        (1)     TTPI    TIME OF THE TPI MANEUVER
000134:                                                                                                  #        (2)     ELEV    DESIRED LOS ANGLE AT TPI
000135:                                                                                                  #        (3)     CENTANG ORBITAL CENTRAL ANGLE OF THE PASSIVE VEHICLE DURING
000136:                                                                                                  #                        TRANSFER FROM TPI TO TIME OF INTERCEPT
000137:
000138:                                                                                                  #  OUTPUT
000139:
000140:                                                                                                  #        (1)     TRKMKCNT        NUMBER OF MARKS
000141:                                                                                                  #        (2)     TTOGO           TIME TO GO
000142:                                                                                                  #        (3)     +MGA            MIDDLE GIMBAL ANGLE
000143:                                                                                                  #        (4)     TTPI            COMPUTED TIME OF TPI MANEUVER
000144:                                                                                                  #                 OR
000145:                                                                                                  #                ELEV            COMPUTED LOS ANGLE AT TPI
000146:                                                                                                  #        (5)     POSTTPI         PERIGEE ALTITUDE AFTER THE TPI MANEUVER
000147:                                                                                                  #        (6)     DELVTPI         MAGNITUDE OF DELTA V AT TPI
000148:                                                                                                  #        (7)     DELVTPF         MAGNITUDE OF DELTA V AT INTERCEPT
000149:                                                                                                  #        (8)     DVLOS           DELTA VELOCITY AT TPI - LINE OF SIGHT
000150:                                                                                                  #        (9)     DELVLVC         DELTA VELOCITY AT TPI - LOCAL VERTICAL COORDINATES
000151:
000152:                                                                                                  #  DOWNLINK
000153:
000154:                                                                                                  #        (1)     TTPI            TIME OF THE TPI MANEUVER
000155:                                                                                                  #        (2)     TIG             TIME OF THE TPI MANEUVER
000156:                                                                                                  #        (3)     ELEV            DESIRED LOS ANGLE AT TPI
000157:                                                                                                  #        (4)     CENTANG         ORBITAL CENTRAL ANGLE OF THE PASSIVE VEHICLE DURING
000158:                                                                                                  #                                TRANSFER FROM TPI TO TIME OF INTERCEPT
000159:                                                                                                  #        (5)     DELVEET3        DELTA VELOCITY AT TPI - REFERENCE COORDINATES
000160:                                                                                                  #        (6)     TPASS4          TIME OF INTERCEPT
000161:
000162:                                                                                                  #  COMMUNICATION TO THRUSTING PROGRAMS
000163:
000164:                                                                                                  #        (1)     TIG             TIME OF THE TPI MANEUVER
000165:                                                                                                  #        (2)     RTARG           OFFSET TARGET POSITION
000166:                                                                                                  #        (3)     TPASS4          TIME OF INTERCEPT
000167:                                                                                                  #        (4)     XDELVFLG        RESET TO INDICATE LAMBERT (AIMPOINT) VG COMPUTATION
000168:
000169:                                                                                                  #  SUBROUTINES USED
000170:
000171:                                                                                                  #        AVFLAGA


000173:                                                                                                  #        AVFLAGP
000174:                                                                                                  #        VNPOOH
000175:                                                                                                  #        DISPLAYE
000176:                                                                                                  #        SELECTMU
000177:                                                                                                  #        PRECSET
000178:                                                                                                  #        S33/34.1
000179:                                                                                                  #        ALARM
000180:                                                                                                  #        BANKCALL
000181:                                                                                                  #        GOFLASH
000182:                                                                                                  #        GOTOPOOH
000183:                                                                                                  #        TIMETHET
000184:                                                                                                  #        S34/35.2
000185:                                                                                                  #        PERIAPO1
000186:                                                                                                  #        SHIFTR1
000187:                                                                                                  #        S34/35.5
000188:                                                                                                  #        VN1645
000189:
000190: 35,2000                                           SETLOC   CSI/CDH
000191: 35,2000                                           BANK
000192: 35,2511  E7,1466                                  EBANK=   SUBEXIT
000193: 35,2511                                           COUNT*   $$/P3474
000194: 35,2511           02313        P34                TC       AVFLAGA
000195: 35,2512           02514                           TC       P34/P74A
000196: 35,2513           02320        P74                TC       AVFLAGP
000197: 35,2514           02325        P34/P74A           TC       P20FLGON                              #  SET UPDATFLG, TRACKFLG
000198: 35,2515           33662                           CAF      V06N37                                #  TTPI
000199: 35,2516           03651                           TC       VNPOOH
000200: 35,2517           00006                           EXTEND
000201: 35,2520           33706                           DCA      130DEG
000202: 35,2521           53617                           DXCH     CENTANG
000203: 35,2522           03630                           TC       DISPLAYE                              #  ELEV AND CENTANG
000204: 35,2523           06036                           TC       INTPRET
000205: 35,2524           71214                           CLEAR    DLOAD
000206: 35,2525           01270                                    ETPIFLAG
000207: 35,2526           03634                                    TTPI
000208: 35,2527           17440                           STODL    TIG
000209: 35,2530           02263                                    ELEV
000210: 35,2531           43054                           BZE      SET
000211: 35,2532           72534                                    P34/P74B
000212: 35,2533           01070                                    ETPIFLAG
000213: 35,2534           77624        P34/P74B           CALL
000214: 35,2535           20041                                    SELECTMU
000215: 35,2536                        DELELO             EQUALS   26D
000216: 35,2536           43145        P34/P74C           DLOAD    SET
000217: 35,2537           06424                                    ZEROVECS
000218: 35,2540           03460                                    ITSWICH
000219: 35,2541           43014                           BON      CLEAR
000220: 35,2542           01310                                    ETPIFLAG
000221: 35,2543           72545                                    SWCHSET
000222: 35,2544           03660                                    ITSWICH


000224: 35,2545           02323        SWCHSET            STORE    NOMTPI
000225: 35,2546           43345        INTLOOP            DLOAD    DAD
000226: 35,2547           03634                                    TTPI
000227: 35,2550           02323                                    NOMTPI
000228: 35,2551           34041                           STCALL   TDEC1
000229: 35,2552           46341                                    PRECSET
000230: 35,2553           77624                           CALL
000231: 35,2554           72726                                    S33/34.1
000232: 35,2555           77454                           BZE      EXIT
000233: 35,2556           72567                                    SWCHCLR
000234: 35,2557           05567                           TC       ALARM
000235: 35,2560           00611                           OCT      611
000236: 35,2561           35006                           CAF      V05N09
000237: 35,2562           04616                           TC       BANKCALL
000238: 35,2563           20351                           CADR     GOFLASH
000239: 35,2564           06001                           TC       GOTOPOOH
000240: 35,2565           02514                           TC       P34/P74A                              #  PROCEED
000241: 35,2566           02557                           TC       -7                                    #  V32
000242:
000243: 35,2567           43014        SWCHCLR            BONCLR   BON
000244: 35,2570           03600                                    ITSWICH
000245: 35,2571           72546                                    INTLOOP
000246: 35,2572           01310                                    ETPIFLAG
000247: 35,2573           72577                                    P34/P74D                              #  DISPLAY TTPI
000248: 35,2574           77776                           EXIT
000249: 35,2575           03630                           TC       DISPLAYE                              #  DISPLAY ELEV AND CENTANG
000250: 35,2576           02602                           TC       P34/P74E
000251: 35,2577           77776        P34/P74D           EXIT
000252: 35,2600           33662                           CAF      V06N37                                #  TTPI
000253: 35,2601           03651                           TC       VNPOOH
000254: 35,2602           06036        P34/P74E           TC       INTPRET
000255: 35,2603           71201                           SETPD    DLOAD
000256: 35,2604           00001                                    0D
000257: 35,2605           03376                                    RTX1
000258: 35,2606           14047                           STODL    X1
000259: 35,2607           03617                                    CENTANG
000260: 35,2610           71406                           PUSH     COS
000261: 35,2611           16732                           STODL    CSTH
000262: 35,2612           77756                           SIN
000263: 35,2613           26730                           STOVL    SNTH
000264: 35,2614           03550                                    RPASS3
000265: 35,2615           77657                           VSR*
000266: 35,2616           57176                                    0,2
000267: 35,2617           26655                           STOVL    RVEC
000268: 35,2620           03556                                    VPASS3
000269: 35,2621           43057                           VSR*     SET
000270: 35,2622           57176                                    0,2
000271: 35,2623           03466                                    RVSW
000272: 35,2624           36744                           STCALL   VVEC
000273: 35,2625           24745                                    TIMETHET


000275: 35,2626           77745                           DLOAD
000276: 35,2627           03634                                    TTPI
000277: 35,2630           03606                           STORE    INTIME                                #  FOR INITVEL
000278: 35,2631           77615                           DAD
000279: 35,2632           00037                                    T                                     #  RENDEZVOUS TIME
000280: 35,2633           37627                           STCALL   TPASS4                                #  FOR INITVEL
000281: 35,2634           73250                                    S34/35.2
000282: 35,2635           51575                           VLOAD    ABVAL
000283: 35,2636           03366                                    DELVEET3
000284: 35,2637           27574                           STOVL    DELVTPI
000285: 35,2640           03504                                    VPASS4
000286: 35,2641           51451                           VSU      ABVAL
000287: 35,2642           03564                                    VTPRIME
000288: 35,2643           26354                           STOVL    DELVTPF
000289: 35,2644           03534                                    RACT3
000290: 35,2645           45115                           PDVL     CALL
000291: 35,2646           02343                                    VIPRIME
000292: 35,2647           46277                                    PERIAPO1
000293: 35,2650           77624                           CALL
000294: 35,2651           46407                                    SHIFTR1
000295: 35,2652           17604                           STODL    POSTTPI
000296: 35,2653           03634                                    TTPI
000297: 35,2654           03440                           STORE    TIG
000298: 35,2655           77776                           EXIT
000299: 35,2656           33664                           CAF      V06N58
000300: 35,2657           03651                           TC       VNPOOH
000301: 35,2660           06036                           TC       INTPRET
000302: 35,2661           77624                           CALL
000303: 35,2662           73456                                    S34/35.5
000304: 35,2663           77624                           CALL
000305: 35,2664           73542                                    VN1645
000306: 35,2665           77650                           GOTO
000307: 35,2666           72536                                    P34/P74C


000309:                                                                                                  #  RENDEZVOUS MID-COURSE MANEUVER PROGRAMS (P35 AND P75)
000310:
000311:                                                                                                  #  MOD NO -1                     LOG SECTION - P32-P35, P72-P75
000312:                                                                                                  #  MOD BY WHITE.P                DATE  1JUNE67
000313:
000314:                                                                                                  #  PURPOSE
000315:
000316:                                                                                                  #        (1)     TO CALCULATE THE REQUIRED DELTA V AND OTHER INITIAL CONDITIONS
000317:                                                                                                  #                REQUIRED BY THE ACTIVE VEHICLE FOR EXECUTION OF THE NEXT
000318:                                                                                                  #                MIDCOURSE CORRECTION OF THE TRANSFER PHASE OF AN ACTIVE
000319:                                                                                                  #                VEHICLE RENDEZVOUS.
000320:
000321:                                                                                                  #        (2)     TO DISPLAY TO THE ASTRONAUT AND THE GROUND CERTAIN DEPENDENT
000322:                                                                                                  #                VARIABLES ASSOCIATED WITH THE MANEUVER FOR APPROVAL BY THE
000323:                                                                                                  #                ASTRONAUT/GROUND.
000324:
000325:                                                                                                  #        (3)     TO STORE THE TPM TARGET PARAMETERS FOR USE BY THE DESIRED
000326:                                                                                                  #                THRUSTING PROGRAM.
000327:
000328:                                                                                                  #  ASSUMPTIONS
000329:
000330:                                                                                                  #        (1)     THE ISS NEED NOT BE ON TO COMPLETE THIS PROGRAM.
000331:
000332:                                                                                                  #        (2)     STATE VECTOR UPDATES BY P27 ARE DISALLOWED DURING AUTOMATIC
000333:                                                                                                  #                STATE VECTOR UPDATING INITIATED BY P20 (SEE ASSUMPTION (3)).
000334:
000335:                                                                                                  #        (3)     THE RENDEZVOUS RADAR IS ON AND IS LOCKED ON THE CSM.  THIS WAS
000336:                                                                                                  #                DONE DURING PREVIOUS SELECTION OF P20.  RADAR SIGHTING MARKS
000337:                                                                                                  #                WILL BE MADE AUTOMATICALLY APPROXIMATELY ONCE A MINUTE WHEN
000338:                                                                                                  #                ENABLED BY THE TRACK AND UPDATE FLAGS (SEE P20).  THE
000339:                                                                                                  #                RENDEZVOUS TRACKING MARK COUNTER IS ZEROED BY THE SELECTION OF
000340:                                                                                                  #                P20 AND AFTER EACH THRUSTING MANEUVER.
000341:
000342:                                                                                                  #        (4)     THE OPERATION OF THE PROGRAM UTILIZES THE FOLLOWING FLAGS -
000343:
000344:                                                                                                  #                        ACTIVE VEHICLE FLAG - DESIGNATES THE VEHICLE WHICH IS
000345:                                                                                                  #                        DOING RENDEZVOUS THRUSTING MANEUVERS TO THE PROGRAM WHICH
000346:                                                                                                  #                        CALCULATES THE MANEUVER PARAMETERS.  SET AT THE START OF
000347:                                                                                                  #                        EACH RENDEZVOUS PRE-THRUSTING PROGRAM.
000348:
000349:                                                                                                  #                        FINAL FLAG - SELECTS FINAL PROGRAM DISPLAYS AFTER CREW HAS
000350:                                                                                                  #                        SELECTED THE FINAL MANEUVER COMPUTATION CYCLE.
000351:
000352:                                                                                                  #                        EXTERNAL DELTA V FLAG - DESIGNATES THE TYPE OF STEERING
000353:                                                                                                  #                        REQUIRED FOR EXECUTION OF THIS MANEUVER BY THE THRUSTING
000354:                                                                                                  #                        PROGRAM SELECTED AFTER COMPLETION OF THIS PROGRAM.
000355:
000356:                                                                                                  #        (5)     THE TIME OF INTERCEPT (T(INT)) WAS DEFINED BY PREVIOUS
000357:                                                                                                  #                COMPLETION OF THE TRANSFER PHASE INITIATION (TPI) PROGRAM
000358:                                                                                                  #                (P34/P74) AND IS PRESENTLY AVAILABLE IN STORAGE.
000359:


000361:                                                                                                  #        (6)     ONCE THE PARAMETERS REQUIRED FOR COMPUTION OF THE MANEUVER
000362:                                                                                                  #                HAVE BEEN COMPLETELY SPECIFIED, THE VALUE OF THE ACTIVE
000363:                                                                                                  #                VEHICLE CENTRAL ANGLE OF TRANSFER IS COMPUTED AND STORED.
000364:                                                                                                  #                THIS NUMBER WILL BE AVAILABLE FOR DISPLAY TO THE ASTRONAUT
000365:                                                                                                  #                THROUGH THE USE OF V06N52.
000366:
000367:                                                                                                  #                THE ASTRONAUT WILL CALL THIS DISPLAY TO VERIFY THAT THE
000368:                                                                                                  #                CENTRAL ANGLE OF TRANSFER OF THE ACTIVE VEHICLE IS NOT WITHIN
000369:                                                                                                  #                170 TO 190 DEGREES.  IF THE ANGLE IS WITHIN THIS ZONE THE
000370:                                                                                                  #                ASTRONAUT SHOULD REASSESS THE INPUT TARGETING PARAMETERS BASED
000371:                                                                                                  #                UPON DELTA V AND EXPECTED MANEUVER TIME.
000372:
000373:                                                                                                  #        (7)     THIS PROGRAM IS SELECTED BY THE ASTRONAUT BY DSKY ENTRY -
000374:
000375:                                                                                                  #                        P35 IF THIS VEHICLE IS ACTIVE VEHICLE.
000376:
000377:                                                                                                  #                        P75 IF THIS VEHICLE IS PASSIVE VEHICLE.
000378:
000379:                                                                                                  #  INPUT
000380:
000381:                                                                                                  #        (1)     TPASS4          TIME OF INTERCEPT - SAVED FROM P34/P74
000382:                                                                                                  #  OUTPUT
000383:
000384:                                                                                                  #        (1)     TRKMKCNT        NUMBER OF MARKS
000385:                                                                                                  #        (2)     TTOGO           TIME TO GO
000386:                                                                                                  #        (3)     +MGA            MIDDLE GIMBAL ANGLE
000387:                                                                                                  #        (4)     DVLOS           DELTA VELOCITY AT MID - LINE OF SIGHT
000388:                                                                                                  #        (5)     DELVLVC         DELTA VELOCITY AT MID - LOCAL VERTICAL COORDINATES
000389:
000390:                                                                                                  #  DOWNLINK
000391:
000392:                                                                                                  #        (1)     TIG             TIME OF THE TPM MANEUVER
000393:                                                                                                  #        (2)     DELVEET3        DELTA VELOCITY AT TPM - REFERENCE COORDINATES
000394:                                                                                                  #        (3)     TPASS4          TIME OF INTERCEPT
000395:                                                                                                  #  COMMUNICATION TO THRUSTING PROGRAMS
000396:
000397:                                                                                                  #        (1)     TIG             TIME OF THE TPM MANEUVER
000398:                                                                                                  #        (2)     RTARG           OFFSET TARGET POSITION
000399:                                                                                                  #        (3)     TPASS4          TIME OF INTERCEPT
000400:                                                                                                  #        (4)     XDELVFLG        RESET TO INDICATE LAMBERT (AIMPOINT) VG COMPUTATION
000401:
000402:                                                                                                  #  SUBROUTINES USED
000403:
000404:                                                                                                  #        AVFLAGA
000405:                                                                                                  #        AVFLAGP
000406:                                                                                                  #        LOADTIME
000407:                                                                                                  #        SELECTMU
000408:                                                                                                  #        PRECSET
000409:                                                                                                  #        S34/35.1
000410:                                                                                                  #        S34/35.2


000412:                                                                                                  #        S34/35.5
000413:                                                                                                  #        VN1645
000414:
000415: 35,2667                                           COUNT*   $$/P3575
000416: 35,2667  E7,1573                                  EBANK=   KT
000417:
000418: 35,2667           02313        P35                TC       AVFLAGA
000419: 35,2670           00006                           EXTEND
000420: 35,2671           31401                           DCA      ATIGINC
000421: 35,2672           02676                           TC       P35/P75A
000422: 35,2673           02320        P75                TC       AVFLAGP
000423: 35,2674           00006                           EXTEND
000424: 35,2675           31403                           DCA      PTIGINC
000425: 35,2676           53574        P35/P75A           DXCH     KT
000426: 35,2677           02325                           TC       P20FLGON                              #  SET UPDATFLG, TRACKFLG
000427: 35,2700           06036                           TC       INTPRET
000428: 35,2701           77624                           CALL
000429: 35,2702           20041                                    SELECTMU
000430: 35,2703           77634        P35/P75B           RTB
000431: 35,2704           21462                                    LOADTIME
000432: 35,2705           03610                           STORE    TSTRT
000433: 35,2706           77615                           DAD
000434: 35,2707           03574                                    KT
000435: 35,2710           03440                           STORE    TIG
000436: 35,2711           03606                           STORE    INTIME                                #  FOR INITVEL
000437: 35,2712           34041                           STCALL   TDEC1
000438: 35,2713           46341                                    PRECSET                               #  ADVANCE BOTH VEHICLES
000439: 35,2714           77624                           CALL
000440: 35,2715           73236                                    S34/35.1                              #  GET NORM AND LOS FOR TRANSFORM
000441: 35,2716           77624                           CALL
000442: 35,2717           73250                                    S34/35.2                              #  GET DELTA V(LV)
000443: 35,2720           77624                           CALL
000444: 35,2721           73456                                    S34/35.5
000445: 35,2722           77624                           CALL
000446: 35,2723           73542                                    VN1645
000447: 35,2724           77650                           GOTO
000448: 35,2725           72703                                    P35/P75B


000450:                                                                                                  #  ..... S33/34.1 .....
000451:
000452: 35,2726           66220        S33/34.1           STQ      SSP
000453: 35,2727           03461                                    NORMEX
000454: 35,2730           03612                                    TITER
000455: 35,2731           40000                           OCT      40000
000456: 35,2732           40345                           DLOAD    SETPD
000457: 35,2733           33673                                    MAX250
000458: 35,2734           00001                                    0D
000459: 35,2735           27572                           STOVL    SECMAX
000460: 35,2736           03534                                    RACT3
000461: 35,2737           27476                           STOVL    RAPREC
000462: 35,2740           03542                                    VACT3
000463: 35,2741           27504                           STOVL    VAPREC
000464: 35,2742           03550                                    RPASS3
000465: 35,2743           27520                           STOVL    RPPREC
000466: 35,2744           03556                                    VPASS3
000467: 35,2745           03526                           STORE    VPPREC
000468: 35,2746           77624        ELCALC             CALL
000469: 35,2747           73236                                    S34/35.1                              #  NORMAL AND LOS
000470: 35,2750           63235                           VXV      PDVL
000471: 35,2751           03534                                    RACT3                                 #  (RA*VA)*RA 0D
000472: 35,2752           53515                           PDVL     UNIT                                  #  ULOS AT 6D
000473: 35,2753           03534                                    RACT3
000474: 35,2754           46315                           PDVL     VPROJ                                 #  XCHNJ AND UP
000475: 35,2755           51352                           VSL2     BVSU
000476: 35,2756           02315                                    ULOS
000477: 35,2757           63256                           UNIT     PDVL                                  #  UP AT 0D
000478: 35,2760           63241                           DOT      PDVL                                  #  UP.UN*RA AT 0D
000479: 35,2761           00001                                    0D                                    #  UP IN MPAC
000480: 35,2762           75241                           DOT      SIGN
000481: 35,2763           02315                                    ULOS
000482: 35,2764           65552                           SL1      ACOS
000483: 35,2765           50315                           PDVL     DOT                                   #  EA AT 0D
000484: 35,2766           02315                                    ULOS
000485: 35,2767           03534                                    RACT3
000486: 35,2770           71244                           BPL      DLOAD
000487: 35,2771           72774                                    TESTY
000488: 35,2772           06432                                    DPPOSMAX
000489: 35,2773           41425                           DSU      PUSH
000490: 35,2774           71214        TESTY              BOFF     DLOAD
000491: 35,2775           03740                                    ITSWICH
000492: 35,2776           73223                                    ELEX
000493: 35,2777           03574                                    DELEL
000494: 35,3000           14033                           STODL    DELELO
000495: 35,3001           77625                           DSU
000496: 35,3002           02263                                    ELEV
000497: 35,3003           03574                           STORE    DELEL
000498: 35,3004           45246                           ABS      DSU
000499: 35,3005           33677                                    ELEPS


000501: 35,3006           77640                           BMN
000502: 35,3007           73233                                    TIMEX                                 #  COMMERCIALS EVERYWHERE
000503: 35,3010           70535        FIGTIME            SLOAD    SR1
000504: 35,3011           03612                                    TITER
000505: 35,3012           72030                           BHIZ     LXA,1
000506: 35,3013           03461                                    NORMEX                                #  TOO MANY ITERATIONS
000507: 35,3014           00154                                    MPAC
000508: 35,3015           77330                           SXA,1    VLOAD
000509: 35,3016           03611                                    TITER
000510: 35,3017           03550                                    RPASS3
000511: 35,3020           65256                           UNIT     PDDL
000512: 35,3021           00045                                    36D
000513: 35,3022           53515                           PDVL     UNIT
000514: 35,3023           03534                                    RACT3
000515: 35,3024           77725                           PDDL
000516: 35,3025           41525                           PDDL     PUSH
000517: 35,3026           00045                                    36D
000518: 35,3027           77621                           BDSU
000519: 35,3030           00015                                    12D
000520: 35,3031           14037                           STODL    30D                                   #  RP - RA MAGNITUDES
000521: 35,3032           06422                                    DPHALF
000522: 35,3033           41425                           DSU      PUSH
000523: 35,3034           02263                                    ELEV
000524: 35,3035           50165                           SIGN     BMN
000525: 35,3036           00037                                    30D
000526: 35,3037           03461                                    NORMEX
000527: 35,3040           71545                           DLOAD    COS
000528: 35,3041           56205                           DMP      DDV
000529: 35,3042           00017                                    14D
000530: 35,3043           00015                                    12D
000531: 35,3044           77676                           DCOMP                                          #  SINCE COS(180-A)=-COS A
000532: 35,3045           00035                           STORE    28D
000533: 35,3046           44246                           ABS      BDSU
000534: 35,3047           06422                                    DPHALF
000535: 35,3050           77240                           BMN      VLOAD
000536: 35,3051           03461                                    NORMEX
000537: 35,3052           02265                                    UNRM
000538: 35,3053           53435                           VXV      UNIT
000539: 35,3054           00007                                    6D                                    #  UN*RA
000540: 35,3055           41241                           DOT      DMP
000541: 35,3056           03542                                    VACT3
000542: 35,3057           00015                                    12D
000543: 35,3060           47315                           PDVL     VXV
000544: 35,3061           00001                                    0D
000545: 35,3062           03556                                    VPASS3
000546: 35,3063           53435                           VXV      UNIT
000547: 35,3064           00001                                    0D                                    #  (RP*VP)*RP
000548: 35,3065           41241                           DOT      DMP
000549: 35,3066           03556                                    VPASS3
000550: 35,3067           00017                                    14D


000552: 35,3070           77621                           BDSU
000553: 35,3071           63301                           NORM     PDVL                                  #  NORMALIZED WA - WP 12D
000554: 35,3072           00047                                    X1
000555: 35,3073           00007                                    6D
000556: 35,3074           50235                           VXV      DOT
000557: 35,3075           00001                                    0D
000558: 35,3076           02265                                    UNRM                                  #  RA*RP.UN 14D
000559: 35,3077           50315                           PDVL     DOT
000560: 35,3100           00001                                    0D
000561: 35,3101           00007                                    6D
000562: 35,3102           65552                           SL1      ACOS
000563: 35,3103           77765                           SIGN
000564: 35,3104           43225                           DSU      DAD                                   #  ALPHA PI
000565: 35,3105           06422                                    DPHALF
000566: 35,3106           02263                                    ELEV
000567: 35,3107           65525                           PDDL     ACOS
000568: 35,3110           00035                                    28D
000569: 35,3111           75221                           BDSU     SIGN
000570: 35,3112           06422                                    DPHALF
000571: 35,3113           00037                                    30D                                   #  CONTAINS RP-RA
000572: 35,3114           77615                           DAD
000573: 35,3115           56205                           DMP      DDV
000574: 35,3116           33671                                    TWOPI
000575: 35,3117           77605                           DMP
000576: 35,3120           41257                           SL*      DMP
000577: 35,3121           20176                                    0          -3,1
000578: 35,3122           51406                           PUSH     ABS
000579: 35,3123           50025                           DSU      BMN
000580: 35,3124           03572                                    SECMAX
000581: 35,3125           73131                                    OKMAX
000582: 35,3126           75345                           DLOAD    SIGN                                  #  REPLACE TIME WITH MAX TIME SIGNED
000583: 35,3127           03572                                    SECMAX
000584: 35,3130           77606                           PUSH
000585: 35,3131           51135        OKMAX              SLOAD    BPL                                   #  TEST FIRST ITERATION
000586: 35,3132           03612                                    TITER
000587: 35,3133           73141                                    REPETE
000588: 35,3134           71331                           SSP      DLOAD
000589: 35,3135           03612                                    TITER
000590: 35,3136           37777                           OCT      37777
000591: 35,3137           77650                           GOTO
000592: 35,3140           73177                                    STORDELT
000593: 35,3141           41345        REPETE             DLOAD    DMP
000594: 35,3142           03574                                    DELEL
000595: 35,3143           00033                                    DELELO
000596: 35,3144           71244                           BPL      DLOAD
000597: 35,3145           73155                                    NEXTES
000598: 35,3146           03572                                    SECMAX
000599: 35,3147           77605                           DMP
000600: 35,3150           33675                                    THIRD
000601: 35,3151           17572                           STODL    SECMAX


000603: 35,3152           70446                           ABS      SR1                                   #  CROSSED OVER SOLUTION
000604: 35,3153           52076                           DCOMP    GOTO                                  #  DT=(-SIGN(DTO)//DT//)/2
000605: 35,3154           73165                                    RESIGN
000606: 35,3155           51545        NEXTES             DLOAD    ABS
000607: 35,3156           03574                                    DELEL
000608: 35,3157           51525                           PDDL     ABS
000609: 35,3160           00033                                    DELELO
000610: 35,3161           77625                           DSU
000611: 35,3162           71240                           BMN      DLOAD
000612: 35,3163           73170                                    REVERS                                #  WRONG DIRECTION
000613: 35,3164           77646                           ABS
000614: 35,3165           52165        RESIGN             SIGN     GOTO
000615: 35,3166           03604                                    DELTEEO
000616: 35,3167           73177                                    STORDELT
000617: 35,3170           57545        REVERS             DLOAD    DCOMP
000618: 35,3171           03604                                    DELTEEO
000619: 35,3172           70406                           PUSH     SR1
000620: 35,3173           03604                           STORE    DELTEEO
000621: 35,3174           77615                           DAD
000622: 35,3175           77650                           GOTO
000623: 35,3176           73200                                    ADTIME
000624: 35,3177           03604        STORDELT           STORE    DELTEEO
000625: 35,3200           77615        ADTIME             DAD
000626: 35,3201           02323                                    NOMTPI                                #  SUM OF DELTA T:S
000627: 35,3202           02323                           STORE    NOMTPI
000628: 35,3203           63375                           VLOAD    PDVL
000629: 35,3204           03504                                    VAPREC
000630: 35,3205           03476                                    RAPREC
000631: 35,3206           77624                           CALL
000632: 35,3207           73416                                    GOINT
000633: 35,3210           77624                           CALL
000634: 35,3211           46363                                    ACTIVE                                #  STORE NEW RACT3 VACT3
000635: 35,3212           63375                           VLOAD    PDVL
000636: 35,3213           03526                                    VPPREC
000637: 35,3214           03520                                    RPPREC
000638: 35,3215           77624                           CALL
000639: 35,3216           73416                                    GOINT
000640: 35,3217           77624                           CALL
000641: 35,3220           46373                                    PASSIVE                               #  STORE NEW RPASS3 VPASS3
000642: 35,3221           77650                           GOTO
000643: 35,3222           72746                                    ELCALC
000644: 35,3223           43345        ELEX               DLOAD    DAD
000645: 35,3224           03634                                    TTPI
000646: 35,3225           02323                                    NOMTPI
000647: 35,3226           17634                           STODL    TTPI
000648: 35,3227           77614                           BON
000649: 35,3230           01310                                    ETPIFLAG
000650: 35,3231           73233                                    TIMEX
000651: 35,3232           02263                           STORE    ELEV
000652: 35,3233           52145        TIMEX              DLOAD    GOTO


000654: 35,3234           06424                                    ZEROVECS
000655: 35,3235           03461                                    NORMEX
000656:


000658:                                                                                                  #  ..... S34/35.1 .....
000659:
000660:                                                                                                  #  COMPUTE UNIT NORMAL AND LINE OF SIGHT VECTORS GIVEN THE ACTIVE AND
000661:                                                                                                  #  PASSIVE POS AND VEL AT TIME T3
000662:
000663: 35,3236           52375        S34/35.1           VLOAD    VSU
000664: 35,3237           03550                                    RPASS3
000665: 35,3240           03534                                    RACT3
000666: 35,3241           41456                           UNIT     PUSH
000667: 35,3242           26315                           STOVL    ULOS
000668: 35,3243           03534                                    RACT3
000669: 35,3244           53435                           VXV      UNIT
000670: 35,3245           03542                                    VACT3
000671: 35,3246           02265                           STORE    UNRM
000672: 35,3247           77616                           RVQ
000673:


000675:                                                                                                  #  ..... S34/35.2 .....
000676:
000677:                                                                                                  #  ADVANCE PASSIVE VEH TO RENDEZVOUS TIME AND GET REQ VEL FROM LAMBERT
000678:
000679: 35,3250           77220        S34/35.2           STQ      VLOAD
000680: 35,3251           03466                                    SUBEXIT
000681: 35,3252           03556                                    VPASS3
000682: 35,3253           65315                           PDVL     PDDL
000683: 35,3254           03550                                    RPASS3
000684: 35,3255           03606                                    INTIME
000685: 35,3256           65325                           PDDL     PDDL
000686: 35,3257           03627                                    TPASS4
000687: 35,3260           06424                                    ZEROVECS
000688: 35,3261           45006                           PUSH     CALL
000689: 35,3262           73422                                    INTINT                                #  GET TARGET VECTOR
000690: 35,3263           27442        S3435.25           STOVL    RTARG
000691: 35,3264           00007                                    VATT
000692: 35,3265           27504                           STOVL    VPASS4
000693: 35,3266           03442                                    RTARG
000694:                                                                                                  #  COMPUTE PHI = PI + (ACOS(UNIT RA.UNIT RP) - PI)SIGN(RA*RP.U)
000695: 35,3267           63256                           UNIT     PDVL                                  #  UNIT RP
000696: 35,3270           03534                                    RACT3
000697: 35,3271           41456                           UNIT     PUSH                                  #  UNIT RA
000698: 35,3272           50235                           VXV      DOT
000699: 35,3273           00001                                    0D
000700: 35,3274           02265                                    UNRM                                  #  RA*RP.U
000701: 35,3275           77715                           PDVL
000702: 35,3276           72441                           DOT      SL1                                   #  UNIT RA.UNIT RP
000703: 35,3277           00001                                    0D
000704: 35,3300           75326                           ACOS     SIGN
000705: 35,3301           43244                           BPL      DAD
000706: 35,3302           73304                                    NOPIE
000707: 35,3303           06432                                    DPPOSMAX                              #  REASONABLE TWO PI
000708: 35,3304           15756        NOPIE              STODL    ACTCENT
000709: 35,3305           03627                                    TPASS4
000710: 35,3306           77625                           DSU
000711: 35,3307           03606                                    INTIME
000712: 35,3310           03450                           STORE    DELLT4
000713: 35,3311           40335                           SLOAD    SETPD
000714: 35,3312           33701                                    DECTWO
000715: 35,3313           00001                                    0D
000716: 35,3314           63325                           PDDL     PDVL
000717: 35,3315           33704                                    EPSFOUR
000718: 35,3316           03534                                    RACT3
000719: 35,3317           26327                           STOVL    RINIT
000720: 35,3320           03542                                    VACT3
000721: 35,3321           36335                           STCALL   VINIT
000722: 35,3322           22000                                    INITVEL
000723: 35,3323           77624                           CALL
000724: 35,3324           73403                                    LOMAT
000725: 35,3325           64375                           VLOAD    MXV


000727: 35,3326           03366                                    DELVEET3
000728: 35,3327           00001                                    0D
000729: 35,3330           77772                           VSL1
000730: 35,3331           37432                           STCALL   DELVLVC
000731: 35,3332           03466                                    SUBEXIT
000732:


000734:                                                                                                  #  ..... S34/35.3 .....
000735:
000736: 35,3333           45020        S34/35.3           STQ      CALL
000737: 35,3334           03461                                    NORMEX
000738: 35,3335           73403                                    LOMAT                                 #  GET MATRIX IN PUSH LIST
000739: 35,3336           61375                           VLOAD    VXM
000740: 35,3337           03432                                    DELVLVC                               #  NEW DEL V TPI
000741: 35,3340           00001                                    0D
000742: 35,3341           77772                           VSL1
000743: 35,3342           03366                           STORE    DELVEET3                              #  SAVE FOR TRANSFORM
000744: 35,3343           63255                           VAD      PDVL
000745: 35,3344           03542                                    VACT3                                 #  NEW V REQ
000746: 35,3345           03534                                    RACT3
000747: 35,3346           65325                           PDDL     PDDL
000748: 35,3347           03440                                    TIG
000749: 35,3350           03627                                    TPASS4
000750: 35,3351           41525                           PDDL     PUSH
000751: 35,3352           06432                                    DPPOSMAX
000752: 35,3353           77624                           CALL                                           #  INTEG. FOR NEW TARGET VEC
000753: 35,3354           73422                                    INTINT
000754: 35,3355           77775                           VLOAD
000755: 35,3356           00001                                    RATT
000756: 35,3357           03442                           STORE    RTARG
000757: 35,3360           41575        NOVRWRT            VLOAD    PUSH
000758: 35,3361           02315                                    ULOS
000759: 35,3362           57435                           VXV      VCOMP
000760: 35,3363           02265                                    UNRM
000761: 35,3364           41456                           UNIT     PUSH
000762: 35,3365           76435                           VXV      VSL1
000763: 35,3366           02315                                    ULOS
000764: 35,3367           77715                           PDVL
000765: 35,3370           64315                           PDVL     MXV
000766: 35,3371           03366                                    DELVEET3
000767: 35,3372           00001                                    0D
000768: 35,3373           77772                           VSL1
000769: 35,3374           36307                           STCALL   DVLOS
000770: 35,3375           03461                                    NORMEX
000771:


000773:                                                                                                  #  ..... S34/35.4 .....
000774:
000775: 35,3376           40220        S34/35.4           STQ      SETPD                                 #  NO ASTRONAUT OVERWRITE
000776: 35,3377           03461                                    NORMEX
000777: 35,3400           00001                                    0D
000778: 35,3401           77650                           GOTO
000779: 35,3402           73360                                    NOVRWRT
000780:


000782:                                                                                                  #  ..... LOMAT     .....
000783:
000784: 35,3403           57575        LOMAT              VLOAD    VCOMP
000785: 35,3404           02265                                    UNRM
000786: 35,3405           24007                           STOVL    6D                                    #  Y
000787: 35,3406           03534                                    RACT3
000788: 35,3407           57456                           UNIT     VCOMP
000789: 35,3410           00015                           STORE    12D
000790: 35,3411           76435                           VXV      VSL1
000791: 35,3412           02265                                    UNRM                                  #  Z*-Y
000792: 35,3413           00001                           STORE    0D
000793: 35,3414           43401                           SETPD    RVQ
000794: 35,3415           00023                                    18D
000795: 35,3416           65325        GOINT              PDDL     PDDL                                  #  DO
000796: 35,3417           06424                                    ZEROVECS                              #        NOT
000797: 35,3420           02323                                    NOMTPI
000798: 35,3421           41406                           PUSH     PUSH                                  #                ORDER OR INSERT BEFORE INTINT
000799: 35,3422           45020        INTINT             STQ      CALL
000800: 35,3423           03463                                    RTRN
000801: 35,3424           27412                                    INTSTALL
000802: 35,3425           71214                           CLEAR    DLOAD
000803: 35,3426           01673                                    INTYPFLG
000804: 35,3427           43054                           BZE      SET
000805: 35,3430           73432                                    +2
000806: 35,3431           01473                                    INTYPFLG
000807: 35,3432           45545                           DLOAD    STADR
000808: 35,3433           63736                           STODL    TDEC1
000809: 35,3434           73014                           SET      LXA,2
000810: 35,3435           00063                                    MOONFLAG
000811: 35,3436           03376                                    RTX2
000812: 35,3437           43014                           BON      CLEAR
000813: 35,3440           04303                                    CMOONFLG
000814: 35,3441           73443                                    ALLSET
000815: 35,3442           00263                                    MOONFLAG
000816: 35,3443           25517        ALLSET             STOVL    TET
000817: 35,3444           77657                           VSR*
000818: 35,3445           57176                                    0,2
000819: 35,3446           25535                           STOVL    RCV
000820: 35,3447           77657                           VSR*
000821: 35,3450           57176                                    0,2
000822: 35,3451           35543                           STCALL   VCV
000823: 35,3452           27107                                    INTEGRVS
000824: 35,3453           52175                           VLOAD    GOTO
000825: 35,3454           00001                                    RATT
000826: 35,3455           03463                                    RTRN
000827:


000829:                                                                                                  #  ..... S34/35.5 .....
000830:                                                                                                  #  SUBROUTINES USED
000831:                                                                                                  #        BANKCALL
000832:                                                                                                  #        GOFLASH
000833:                                                                                                  #        GOTOPOOH
000834:                                                                                                  #        S34/35.3
000835:                                                                                                  #        S34/35.4
000836:                                                                                                  #        VNPOOH
000837:
000838: 35,3456           43020        S34/35.5           STQ      BON
000839: 35,3457           03466                                    SUBEXIT
000840: 35,3460           01311                                    FINALFLG
000841: 35,3461           73465                                    FLAGON
000842: 35,3462           52014                           SET      GOTO
000843: 35,3463           00470                                    UPDATFLG
000844: 35,3464           73532                                    FLAGOFF
000845: 35,3465           77214        FLAGON             CLEAR    VLOAD
000846: 35,3466           03274                                    NTARGFLG
000847: 35,3467           03432                                    DELVLVC
000848: 35,3470           01237                           STORE    GDT/2
000849: 35,3471           77776                           EXIT
000850: 35,3472           33666                 +5        CAF      V06N81
000851: 35,3473           04616                           TC       BANKCALL
000852: 35,3474           20351                           CADR     GOFLASH
000853: 35,3475           06001                           TC       GOTOPOOH
000854: 35,3476           03500                           TC       +2                                    #  PRO
000855: 35,3477           03472                           TC       FLAGON     +5                         #  LOAD
000856: 35,3500           35016                 +2        CA       EBANK7
000857: 35,3501           54003                           TS       EBANK                                 #  TO BE SURE
000858:
000859: 35,3502           22007                           ZL
000860: 35,3503           34756                           CA       FIVE
000861: 35,3504           54002        NTARGCHK           TS       Q
000862: 35,3505           50002                           INDEX    Q
000863: 35,3506           41431                           CS       DELVLVC
000864: 35,3507           50002                           INDEX    Q
000865: 35,3510           61236                           AD       GDT/2
000866: 35,3511           26001                           ADS      L
000867: 35,3512           10002                           CCS      Q
000868: 35,3513           13504                           TCF      NTARGCHK
000869: 35,3514           22000                           LXCH     A
000870: 35,3515           00006                           EXTEND
000871: 35,3516           13521                           BZF      +3
000872: 35,3517           05504                           TC       UPFLAG
000873: 35,3520           00146                           ADRES    NTARGFLG
000874:
000875: 35,3521           06036                           TC       INTPRET
000876: 35,3522           45014                           BOFF     CALL
000877: 35,3523           03354                                    NTARGFLG


000879: 35,3524           73526                                    NOCHG
000880: 35,3525           73333                                    S34/35.3
000881: 35,3526           77214        NOCHG              CLEAR    VLOAD
000882: 35,3527           01267                                    XDELVFLG
000883: 35,3530           03366                                    DELVEET3
000884: 35,3531           03654                           STORE    DELVSIN
000885: 35,3532           77624        FLAGOFF            CALL
000886: 35,3533           73376                                    S34/35.4
000887: 35,3534           77776                           EXIT
000888: 35,3535           33665                           CAF      V06N59
000889: 35,3536           03651                           TC       VNPOOH
000890: 35,3537           06036                           TC       INTPRET
000891: 35,3540           77650                           GOTO
000892: 35,3541           03466                                    SUBEXIT
000893:


000895:                                                                                                  #  ..... VN1645    .....
000896:
000897:                                                                                                  #  SUBROUTINES USED
000898:                                                                                                  #        P3XORP7X
000899:                                                                                                  #        GET+MGA
000900:                                                                                                  #        BANKCALL
000901:                                                                                                  #        DELAYJOB
000902:                                                                                                  #        COMPTGO
000903:                                                                                                  #        GOFLASHR
000904:                                                                                                  #        GOTOPOOH
000905:                                                                                                  #        FLAGUP
000906:
000907: 35,3542           71220        VN1645             STQ      DLOAD
000908: 35,3543           03466                                    SUBEXIT
000909: 35,3544           33702                                    DP-.01
000910: 35,3545           02257                           STORE    +MGA                                  #  MGA = -.01
000911: 35,3546           71214                           BOFF     DLOAD
000912: 35,3547           01351                                    FINALFLG
000913: 35,3550           73570                                    GET45
000914: 35,3551           33702                                    DP-.01
000915: 35,3552           77615                           DAD
000916: 35,3553           33702                                    DP-.01
000917: 35,3554           02257                           STORE    +MGA                                  #  MGA = -.02
000918: 35,3555           77414                           BOFF     EXIT
000919: 35,3556           01742                                    REFSMFLG
000920: 35,3557           73570                                    GET45
000921: 35,3560           03643                           TC       P3XORP7X
000922: 35,3561           03563                           TC       +2                                    #  P3X
000923: 35,3562           03571                           TC       GET45      +1                         #  P7X
000924: 35,3563           06036                           TC       INTPRET
000925: 35,3564           41575                           VLOAD    PUSH
000926: 35,3565           03654                                    DELVSIN
000927: 35,3566           77624                           CALL                                           #  COMPUTE MGA
000928: 35,3567           20005                                    GET+MGA
000929: 35,3570           77776        GET45              EXIT
000930: 35,3571           02376                           TC       COMPTGO                               #  INITIATE TASK TO UPDATE TTOGO
000931: 35,3572           31466                           CA       SUBEXIT
000932: 35,3573           55462                           TS       QSAVED
000933: 35,3574           34777                           CAF      1SEC
000934: 35,3575           04616                           TC       BANKCALL
000935: 35,3576           01735                           CADR     DELAYJOB
000936: 35,3577           33667                           CAF      V16N45                                #  TRKMKCNT, TTOGO, +MGA
000937: 35,3600           04616                           TC       BANKCALL
000938: 35,3601           20351                           CADR     GOFLASH
000939: 35,3602           03605                           TC       KILCLOCK                              #  TERMINATE
000940: 35,3603           03610                           TC       N45PROC                               #  PROCEED
000941: 35,3604           03620                           TC       CLUPDATE                              #  RECYCLE - RETURN FOR INITIAL COMPUTATION
000942: 35,3605           30005        KILCLOCK           CA       Z
000943: 35,3606           55163                           TS       DISPDEX


000945: 35,3607           06001                           TC       GOTOPOOH
000946: 35,3610           40076        N45PROC            CS       FLAGWRD2
000947: 35,3611           74746                           MASK     BIT6
000948: 35,3612           00006                           EXTEND
000949: 35,3613           13605                           BZF      KILCLOCK                              #  FINALFLG IS SET-FLASH V37-AWAIT NEW PGM
000950: 35,3614           05353                           TC       PHASCHNG
000951: 35,3615           04024                           OCT      04024
000952: 35,3616           05504                           TC       UPFLAG                                #  SET
000953: 35,3617           00047                           ADRES    FINALFLG                              #  FINALFLG
000954: 35,3620           30005        CLUPDATE           CA       Z
000955: 35,3621           55163                           TS       DISPDEX
000956: 35,3622           05353                           TC       PHASCHNG
000957: 35,3623           04024                           OCT      04024
000958: 35,3624           06036                           TC       INTPRET
000959: 35,3625           52014                           CLEAR    GOTO
000960: 35,3626           00670                                    UPDATFLG
000961: 35,3627           03462                                    QSAVED
000962:


000964:                                                                                                  #  ..... DISPLAYE  .....
000965:
000966:                                                                                                  #  SUBROUTINES USED
000967:                                                                                                  #        BANKCALL
000968:                                                                                                  #        GOFLASHR
000969:                                                                                                  #        GOTOPOOH
000970:                                                                                                  #        BLANKET
000971:                                                                                                  #        ENDOFJOB
000972:
000973: 35,3630           00006        DISPLAYE           EXTEND
000974: 35,3631           23461                           QXCH     NORMEX
000975: 35,3632           33663                           CAF      V06N55
000976: 35,3633           04616                           TCR      BANKCALL
000977: 35,3634           20510                           CADR     GOFLASHR
000978: 35,3635           16001                           TCF      GOTOPOOH
000979: 35,3636           01461                           TC       NORMEX
000980: 35,3637           13632                           TCF      -5
000981: 35,3640           34753                           CAF      BIT1                                  #  BLANK R1
000982: 35,3641           05464                           TCR      BLANKET
000983: 35,3642           15155                           TCF      ENDOFJOB
000984:


000986:                                                                                                  #  ..... P3XORP7X  .....
000987:
000988: 35,3643           37743        P3XORP7X           CAF      HIGH9
000989: 35,3644           71011                           MASK     MODREG
000990: 35,3645           00006                           EXTEND
000991: 35,3646           13650                           BZF      +2
000992: 35,3647           24002                           INCR     Q
000993: 35,3650           00002                           RETURN
000994:
000995:                                                                                                  #  ..... VNPOOH   .....
000996:
000997:                                                                                                  #  SUBROUTINES USED
000998:                                                                                                  #        BANKCALL
000999:                                                                                                  #        GOFLASH
001000:                                                                                                  #        GOTOPOOH
001001:
001002: 35,3651           00006        VNPOOH             EXTEND
001003: 35,3652           23463                           QXCH     RTRN
001004: 35,3653           55613                           TS       VERBNOUN
001005: 35,3654           31613                           CA       VERBNOUN
001006: 35,3655           04616                           TCR      BANKCALL
001007: 35,3656           20351                           CADR     GOFLASH
001008: 35,3657           16001                           TCF      GOTOPOOH
001009: 35,3660           01463                           TC       RTRN
001010: 35,3661           13654                           TCF      -5
001011:


001013:                                                                                                  #  ..... CONSTANTS .....
001014:
001015: 35,3662           01445        V06N37             VN       0637
001016: 35,3663           01467        V06N55             VN       0655
001017: 35,3664           01472        V06N58             VN       0658
001018: 35,3665           01473        V06N59             VN       0659
001019: 35,3666           01521        V06N81             VN       0681
001020: 35,3667           04055        V16N45             VN       1645
001021: 35,3670           14441 37325  TWOPI              2DEC     6.283185307 B-4
001022:
001023: 35,3672           00001 20650  MAX250             2DEC     25         E3
001024:
001025: 35,3674           12525 12525  THIRD              2DEC     .333333333
001026:
001027: 35,3676           00004 21505  ELEPS              2DEC     .27777777  E-3
001028: 35,3700           00002        DECTWO             OCT      2
001029: 35,3701           77777        DP-.01             OCT      77777                                 #  CONSTANTS
001030: 35,3702           61337                           OCT      61337                                 #  ADJACENT      -.01 FOR MGA DSP
001031: 35,3703           01252 25253  EPSFOUR            2DEC     .0416666666
001032:
001033: 35,3705           13434 16162  130DEG             2DEC     .3611111111
001034:


001036:                                                                                                  #  ..... INITVEL .....
001037:
001038:                                                                                                  #  MOD NO -1                     LOG SECTION - P34-P35, P74-P75
001039:                                                                                                  #  MOD BY WHITE.P                DATE  21NOV67
001040:
001041:                                                                                                  #  FUNCTIONAL DESCRIPTION
001042:
001043:                                                                                                  #        THIS SUBROUTINE COMPUTES THE REQUIRED INITIAL VELOCITY VECTOR FOR
001044:                                                                                                  #        A TRAJECTORY OF SPECIFIED TRANSFER TIME BETWEEN SPECIFIED INITIAL
001045:                                                                                                  #        AND TARGET POSITIONS.  THE TRAJECTORY MAY BE EITHER CONIC OR
001046:                                                                                                  #        PRECISION DEPENDING ON AN INPUT PARAMETER (NAMELY, NUMBER OF
001047:                                                                                                  #        OFFSETS).  IN ADDITION, IN THE PRECISION TRAJECTORY CASE, THE
001048:                                                                                                  #        SUBROUTINE ALSO COMPUTES AN OFFSET TARGET VECTOR, TO BE USED
001049:                                                                                                  #        DURING PURE-CONIC CROSS-PRODUCT STEERING.  THE OFFSET TARGET
001050:                                                                                                  #        VECTOR IS THE TERMINAL POSITION VECTOR OF A CONIC TRAJECTORY WHICH
001051:                                                                                                  #        HAS THE SAME INITIAL STATE AS A PRECISION TRAJECTORY WHOSE
001052:                                                                                                  #        TERMINAL POSITION VECTOR IS THE SPECIFIED TARGET VECTOR.
001053:
001054:                                                                                                  #        IN ORDER TO AVOID THE INHERENT SINGULARITIES IN THE 180 DEGREE
001055:                                                                                                  #        TRANSFER CASE WHEN THE (TRUE OR OFFSET) TARGET VECTOR MAY BE
001056:                                                                                                  #        SLIGHTLY OUT OF THE ORBITAL PLANE, THIS SUBROUTINE ROTATES THIS
001057:                                                                                                  #        VECTOR INTO A PLANE DEFINED BY THE INPUT INITIAL POSITION VECTOR
001058:                                                                                                  #        AND ANOTHER INPUT VECTOR (USUALLY THE INITIAL VELOCITY VECTOR),
001059:                                                                                                  #        WHENEVER THE INPUT TARGET VECTOR LIES INSIDE A CONE WHOSE VERTEX
001060:                                                                                                  #        IS THE ORIGIN OF COORDINATES, WHOSE AXIS IS THE 180 DEGREE
001061:                                                                                                  #        TRANSFER DIRECTION, AND WHOSE CONE ANGLE IS SPECIFIED BY THE USER.
001062:
001063:                                                                                                  #        THE LAMBERT SUBROUTINE IS UTILIZED FOR THE CONIC COMPUTATIONS AND
001064:                                                                                                  #        THE COASTING INTEGRATION SUBROUTINE IS UTILIZED FOR THE PRECISION
001065:                                                                                                  #        TRAJECTORY COMPUTATIONS.
001066:
001067:                                                                                                  #  CALLING SEQUENCE
001068:
001069:                                                                                                  #        L       CALL
001070:                                                                                                  #        L+1             INITVEL
001071:                                                                                                  #        L+2     (RETURN - ALWAYS)
001072:
001073:                                                                                                  #  INPUT
001074:
001075:                                                                                                  #        (1)     RINIT           INITIAL POSITION RADIUS VECTOR
001076:                                                                                                  #        (2)     VINIT           INITIAL POSITION VELOCITY VECTOR
001077:                                                                                                  #        (3)     RTARG           TARGET POSITION RADIUS VECTOR
001078:                                                                                                  #        (4)     DELLT4          DESIRED TIME OF FLIGHT FROM RINIT TO RTARG
001079:                                                                                                  #        (5)     INTIME          TIME OF RINIT
001080:                                                                                                  #        (6)     0D              NUMBER OF ITERATIONS OF LAMBERT/INTEGRVS
001081:                                                                                                  #        (7)     2D              ANGLE TO 180 DEGREES WHEN ROTATION STARTS
001082:                                                                                                  #        (8)     RTX1            -2 FOR EARTH, -10D FOR LUNAR
001083:                                                                                                  #        (9)     RTX2            COORDINATE SYSTEM ORIGIN - 0 FOR EARTH, 2 FOR LUNAR
001084:                                                                                                  #        PUSHLOC SET AT 4D
001085:


001087:                                                                                                  #  OUTPUT
001088:
001089:                                                                                                  #        (1)     RTARG           OFFSET TARGET POSITION VECTOR
001090:                                                                                                  #        (2)     VIPRIME         MANEUVER VELOCITY REQUIRED
001091:                                                                                                  #        (3)     VTPRIME         VELOCITY AT TARGET AFTER MANEUVER
001092:                                                                                                  #        (4)     DELVEET3        DELTA VELOCITY REQUIRED FOR MANEUVER
001093:
001094:                                                                                                  #  SUBROUTINES USED
001095:
001096:                                                                                                  #        LAMBERT
001097:                                                                                                  #        INTSTALL
001098:                                                                                                  #        INTEGRVS
001099:
001100: 11,2000                                           SETLOC   INTVEL
001101: 11,2000                                           BANK
001102:
001103: 11,2000                                           COUNT*   $$/INITV
001104: 11,2000           77614        INITVEL            SET                                            #  COGA GUESS NOT AVAILABLE
001105: 11,2001           00475                                    GUESSW
001106: 11,2002           44175        HAVEGUES           VLOAD    STQ
001107: 11,2003           03442                                    RTARG
001108: 11,2004           03461                                    NORMEX
001109: 11,2005           03470                           STORE    RTARG1
001110: 11,2006           46135                           SLOAD    BHIZ
001111: 11,2007           03377                                    RTX2
001112: 11,2010           22022                                    INITVEL1
001113: 11,2011           72575                           VLOAD    VSL2
001114: 11,2012           02327                                    RINIT                                 #  B29
001115: 11,2013           26327                           STOVL    RINIT                                 #  B27
001116: 11,2014           02335                                    VINIT                                 #  B7
001117: 11,2015           77752                           VSL2
001118: 11,2016           26335                           STOVL    VINIT                                 #  B5
001119: 11,2017           03470                                    RTARG1
001120: 11,2020           77752                           VSL2
001121: 11,2021           03470                           STORE    RTARG1
001122:                                                                                                  #  INITIALIZATION
001123:
001124: 11,2022           71331        INITVEL1           SSP      DLOAD                                 #  SET ITCTR TO -1,LOAD MPAC WITH E4 (PL 2D)
001125: 11,2023           03615                                    ITCTR
001126: 11,2024           77776                                    0          -1
001127: 11,2025           70546                           COSINE   SR1                                   #  CALCULATE COSINE (E4)   (+2)
001128: 11,2026           17665                           STODL    COZY4                                 #  SET COZY4 TO COSINE (E4)          (PL 0D)
001129: 11,2027           67154                           LXA,2    SXA,2
001130: 11,2030           00154                                    MPAC
001131: 11,2031           02701                                    VTARGTAG                              #  SET VTARGTAG TO 0D (SP)
001132: 11,2032           77775                           VLOAD
001133: 11,2033           02327                                    RINIT
001134: 11,2034           26655                           STOVL    R1VEC                                 #  R1VEC EQ RINIT
001135: 11,2035           03470                                    RTARG1
001136: 11,2036           16663                           STODL    R2VEC                                 #  R2VEC EQ RTARG


001138: 11,2037           03450                                    DELLT4
001139: 11,2040           02671                           STORE    TDESIRED                              #  TDESIRED EQ DELLT4
001140: 11,2041           77201                           SETPD    VLOAD
001141: 11,2042           00001                                    0D                                    #  INITIALIZE PL TO 0D
001142: 11,2043           02327                                    RINIT                                 #  MPAC EQ RINIT (+29)
001143: 11,2044           41456                           UNIT     PUSH                                  #  UNIT(RI) (+1)                     (PL 6D)
001144: 11,2045           53435                           VXV      UNIT
001145: 11,2046           02335                                    VINIT                                 #  MPAC EQ UNIT(RI) X VI   (+8)
001146: 11,2047           26674                           STOVL    UN
001147: 11,2050           03470                                    RTARG1
001148: 11,2051           50256                           UNIT     DOT                                   #  TEMP=URT.URI (+2)                 (PL 0D)
001149: 11,2052           43015                           DAD      CLEAR
001150: 11,2053           03665                                    COZY4
001151: 11,2054           03665                                    NORMSW
001152: 11,2055           03665                           STORE    COZY4
001153: 11,2056           43044        INITVEL2           BPL      SET
001154: 11,2057           22101                                    INITVEL3                              #  UN CALCULATED IN LAMBERT
001155: 11,2060           03465                                    NORMSW
001156:
001157:                                                                                                  #  ROTATE RC INTO YC PLANE - SET UNIT NORMAL TO YC
001158:
001159: 11,2061           41575                           VLOAD    PUSH                                  #                                    (PL 6D)
001160: 11,2062           02663                                    R2VEC                                 #  RC TO 6D (+29)
001161: 11,2063           63246                           ABVAL    PDVL                                  #  RC TO MPAC, ABVAL(RC) (+29) TO OD (PL 2D)
001162: 11,2064           46206                           PUSH     VPROJ                                 #                                    (PL 8D)
001163: 11,2065           02674                                    UN
001164: 11,2066           51352                           VSL2     BVSU
001165: 11,2067           74256                           UNIT     VXSC                                  #                                    (PL 0D)
001166: 11,2070           77772                           VSL1
001167: 11,2071           02663                           STORE    R2VEC
001168: 11,2072           67351                           TLOAD    SLOAD
001169: 11,2073           22275                                    ZEROVEC
001170: 11,2074           03615                                    ITCTR
001171: 11,2075           77244                           BPL      VLOAD
001172: 11,2076           22101                                    INITVEL3
001173: 11,2077           02663                                    R2VEC
001174: 11,2100           03470                           STORE    RTARG1
001175: 11,2101           63345        INITVEL3           DLOAD    PDVL                                  #                                    (PL 2D)
001176: 11,2102           26007                                    MUEARTH                               #  POSITIVE VALUE
001177: 11,2103           02663                                    R2VEC
001178: 11,2104           63256                           UNIT     PDVL                                  #  2D = UNIT(R2VEC)                  (PL 8D)
001179: 11,2105           02655                                    R1VEC
001180: 11,2106           41456                           UNIT     PUSH                                  #  8D = UNIT(R1VEC)                 (PL 14D)
001181: 11,2107           57435                           VXV      VCOMP                                 #  -N = UNIT(R2VEC) X UNIT(R1VEC)
001182: 11,2110           00003                                    2D
001183: 11,2111           77606                           PUSH                                           #                                   (PL 20D)
001184: 11,2112           71350                           LXA,1    DLOAD
001185: 11,2113           03375                                    RTX1
001186: 11,2114           00023                                    18D
001187: 11,2115           62040                           BMN      INCR,1
001188: 11,2116           22120                                    +2


001190: 11,2117           77767                           DEC      -8         B-14
001191: 11,2120           67310                           INCR,1   SLOAD
001192: 11,2121           00012                                    10D
001193: 11,2122           00047                                    X1
001194: 11,2123           77230                           BHIZ     VLOAD                                 #                                   (PL 14D)
001195: 11,2124           22126                                    +2
001196: 11,2125           41476                           VCOMP    PUSH                                  #                                   (PL 20D)
001197: 11,2126           77775                           VLOAD                                          #                                   (PL 14D)
001198: 11,2127           50235                           VXV      DOT                                   #                                    (PL 2D)
001199: 11,2130           71244                           BPL      DLOAD                                 #                                    (PL 0D)
001200: 11,2131           22133                                    INITVEL4
001201: 11,2132           41476                           DCOMP    PUSH                                  #                                    (PL 2D)
001202: 11,2133           67154        INITVEL4           LXA,2    SXA,2
001203: 11,2134           00000                                    0D
001204: 11,2135           02672                                    GEOMSGN
001205:                                                                                                  #  SET INPUTS UP FOR LAMBERT
001206:
001207: 11,2136           43131                           SSP      BOFF
001208: 11,2137           00027                                    ITERCTR
001209: 11,2140           00024                                    20D
001210: 11,2141           03752                                    AVEGFLAG
001211: 11,2142           22146                                    +4
001212: 11,2143           77731                           SSP
001213: 11,2144           00027                                    ITERCTR
001214: 11,2145           00005                                    5
001215: 11,2146           45150                           LXA,1    CALL
001216: 11,2147           03375                                    RTX1
001217:                                                                                                  #   OPERATE THE LAMBERT CONIC ROUTINE (COASTFLT SUBROUTINE)
001218:
001219: 11,2150           25223                                    LAMBERT
001220:
001221:                                                                                                  #        DELETE THRU 4521
001222:                                                                                                  #  ARRIVED AT SOLUTION IS GOOD ENOUGH ACCORDING TO SLIGHTLY WIDER BOUNDS.
001223:
001224: 11,2151           77214                           CLEAR    VLOAD
001225: 11,2152           00675                                    GUESSW
001226: 11,2153           02744                                    VVEC
001227:
001228:                                                                                                  #  STORE CALCULATED INITIAL VELOCITY REQUIRED IN VIPRIME
001229:
001230: 11,2154           16343                           STODL    VIPRIME                               #  INITIAL VELOCITY REQUIRED (+7)
001231:
001232:                                                                                                  #     IF NUMIT IS ZERO, CONTINUE AT INITVELB, OTHERWISE
001233:                                                                                                  #  SET UP INPUTS FOR ENCKE INTEGRATION (INTEGRVS).
001234:
001235: 11,2155           02702                                    VTARGTAG
001236: 11,2156           45030                           BHIZ     CALL
001237: 11,2157           22234                                    INITVEL7
001238: 11,2160           27412                                    INTSTALL
001239: 11,2161           43135                           SLOAD    CLEAR
001240: 11,2162           03377                                    RTX2


001242: 11,2163           00263                                    MOONFLAG
001243: 11,2164           43030                           BHIZ     SET
001244: 11,2165           22167                                    INITVEL5
001245: 11,2166           00063                                    MOONFLAG
001246: 11,2167           77775        INITVEL5           VLOAD
001247: 11,2170           02327                                    RINIT
001248: 11,2171           02655                           STORE    R1VEC
001249: 11,2172           25535                           STOVL    RCV
001250: 11,2173           02343                                    VIPRIME
001251: 11,2174           15543                           STODL    VCV
001252: 11,2175           03606                                    INTIME
001253: 11,2176           01517                           STORE    TET
001254: 11,2177           43015                           DAD      CLEAR
001255: 11,2200           03450                                    DELLT4
001256: 11,2201           01673                                    INTYPFLG
001257: 11,2202           34041                           STCALL   TDEC1
001258: 11,2203           27107                                    INTEGRVS
001259: 11,2204           77775                           VLOAD
001260: 11,2205           00025                                    VATT1
001261: 11,2206           02703                           STORE    VTARGET
001262:                                                                                                  #  IF ITERATION COUNTER (ITCTR) EQ NO. ITERATIONS (NUMIT), CONTINUE AT
001263:                                                                                                  #  INITVELC, OTHERWISE REITERATE LAMBERT AND ENCKE
001264:
001265: 11,2207           63154                           LXA,2    INCR,2
001266: 11,2210           03614                                    ITCTR
001267: 11,2211           00001                                    1D                                    #  INCREMENT ITCTR
001268: 11,2212           55134                           SXA,2    XSU,2
001269: 11,2213           03614                                    ITCTR
001270: 11,2214           02701                                    VTARGTAG
001271: 11,2215           46135                           SLOAD    BHIZ                                  #  IF SP(MPAC) EQ 0, CONTINUE AT INITVELC
001272: 11,2216           00050                                    X2
001273: 11,2217           22231                                    INITVEL6
001274:
001275:                                                                                                  #  OFFSET CONIC TARGET VECTOR
001276:
001277: 11,2220           52375                           VLOAD    VSU
001278: 11,2221           03470                                    RTARG1
001279: 11,2222           00017                                    RATT1
001280: 11,2223           77655                           VAD
001281: 11,2224           02663                                    R2VEC
001282: 11,2225           16663                           STODL    R2VEC
001283: 11,2226           03665                                    COZY4
001284: 11,2227           77650                           GOTO
001285: 11,2230           22056                                    INITVEL2                              #  CONTINUE ITERATING AT INITVEL2
001286:                                                                                                  #  COMPUTE THE DELTA VELOCITY
001287:
001288: 11,2231           77775        INITVEL6           VLOAD
001289: 11,2232           02663                                    R2VEC
001290: 11,2233           03470                           STORE    RTARG1
001291: 11,2234           52375        INITVEL7           VLOAD    VSU


001293: 11,2235           02343                                    VIPRIME
001294: 11,2236           02335                                    VINIT
001295: 11,2237           27366                           STOVL    DELVEET3                              #  DELVEET3 = VIPRIME-VINIT (+7)
001296: 11,2240           02703                                    VTARGET
001297: 11,2241           03564                           STORE    VTPRIME
001298: 11,2242           46135                           SLOAD    BHIZ
001299: 11,2243           03377                                    RTX2
001300: 11,2244           22261                                    INITVELX
001301: 11,2245           70575                           VLOAD    VSR2
001302: 11,2246           03564                                    VTPRIME
001303: 11,2247           27564                           STOVL    VTPRIME
001304: 11,2250           02343                                    VIPRIME
001305: 11,2251           77742                           VSR2
001306: 11,2252           26343                           STOVL    VIPRIME
001307: 11,2253           03470                                    RTARG1
001308: 11,2254           77742                           VSR2
001309: 11,2255           27470                           STOVL    RTARG1
001310: 11,2256           03366                                    DELVEET3
001311: 11,2257           77742                           VSR2
001312: 11,2260           03366                           STORE    DELVEET3
001313: 11,2261           77201        INITVELX           SETPD    VLOAD
001314: 11,2262           00001                                    0D
001315: 11,2263           03470                                    RTARG1
001316: 11,2264           37442                           STCALL   RTARG
001317: 11,2265           03461                                    NORMEX
001318:
001319:                                                                                                  #  ..... END OF INITVEL ROUTINE .....
001320:


001322:                                                                                                  #  ..... MIDGIM .....
001323:
001324:                                                                                                  #  MOD NO. 0, BY WILLMAN, SUBROUTINE RENDGUID, LOG P34-P35, P74-P75
001325:                                                                                                  #   REVISION 03, 17 FEB 67
001326:
001327:                                                                                                  #  IF THE ACTIVE VEHICLE IS DOING THE COMPUTATION, MIDGIM COMPUTES
001328:                                                                                                  #  THE POSITIVE MIDDLE GIMBAL ANGLE OF THE ACTIVE VEHICLE TO THE INPUT
001329:                                                                                                  #  DELTA VELOCITY VECTOR (0D IN PUSH LIST), OTHERWISE
001330:                                                                                                  #  MIDGIM CONVERTS THE INPUT DELTA VELOCITY VECTOR FROM INERTIAL COORDIN-
001331:                                                                                                  #  ATES TO LOCAL VERTICAL COORDINATES OF THE ACTIVE VEHICLE.
001332:
001333:                                                                                                  #  .. INPUTS ..
001334:
001335:                                                                                                  #        NAME    MEANING                                         UNITS/SCALING/MODE
001336:
001337:                                                                                                  #        AVFLAG  INT FLAG - 0 IS CSM ACTIVE, 1 IS LEM ACTIVE                     BIT
001338:                                                                                                  #        RINIT   ACTIVE VEHICLE RADIUS VECTOR                    METERS/CSEC (+7) VT
001339:                                                                                                  #        VINIT   ACTIVE VEHICLE VELOCITY VECTOR                  METERS/CSEC (+7) VT
001340:                                                                                                  #        0D(PL)  ACTIVE VEHICLE DELTA VELOCITY VECTOR            METERS/CSEC (+7) VT
001341:
001342:                                                                                                  #  .. OUTPUTS ..
001343:
001344:                                                                                                  #     NAME       MEANING                                         UNITS/SCALING/MODE
001345:
001346:                                                                                                  #     +MGA       + MIDDLE GIMBAL ANGLE                           REVOLUTIONS (+0) DP
001347:                                                                                                  #     DELVLVC    DELTA VELOCITY VECTOR IN LV COORD.              METERS/CSEC (+7) VT
001348:                                                                                                  #     MGLVFLAG   INT FLAG - 0 IS +MGA COMPUTED, 1 IS DELVLVC COMP.       -       BIT
001349:
001350:                                                                                                  #  .. CALLING SEQUENCE ..
001351:
001352:                                                                                                  #        L       CALL
001353:                                                                                                  #        L+1             MIDGIM
001354:                                                                                                  #        L+2     (RETURN - ALWAYS)
001355:
001356:                                                                                                  #  .. NO SUBROUTINES CALLED ..
001357:
001358:                                                                                                  #  .. DEBRIS - ERASEABLE TEMPORARY USAGE
001359:
001360:                                                                                                  #        A,Q,L, PUSH LIST, MPAC.
001361:
001362:                                                                                                  #  .. ALARMS - NONE ..
001363:


001365:                                                                                                  #  MIDDLE GIMBAL ANGLE COMPUTATION.
001366:
001367: 10,2000                                           SETLOC   MIDDGIM
001368: 10,2000                                           BANK
001369:
001370: 10,2000                                           COUNT*   $$/MIDG
001371:
001372: 10,2000           20000 00000  HALFREV            2DEC     1          B-1
001373:
001374: 10,2002           77614        MIDGIM             BOFF
001375: 10,2003           01352                                    AVFLAG
001376: 10,2004           20021                                    GET.LVC
001377: 10,2005  10,2005               MIDGIM1            =        GET+MGA
001378:
001379: 10,2005           53575        GET+MGA            VLOAD    UNIT                                  #  (PL 0D) V (+7) TO MPAC, UNITIZE UV (+1)
001380: 10,2006           77656                           UNIT
001381: 10,2007           72441                           DOT      SL1                                   #  DOT UV WITH Y(STABLE MEMBER) AND RESCALE
001382: 10,2010           01742                                    REFSMMAT   +6                         #  FROM +2 TO +1 FOR ASIN ROUTINE
001383: 10,2011           51136                           ARCSIN   BPL
001384: 10,2012           20016                                    SETMGA
001385: 10,2013           43215                           DAD      DAD                                   #  CONVERT -MGA TO +MGA BY
001386: 10,2014           20001                                    HALFREV                               #  ADDING ONE REVOLUTION
001387: 10,2015           20001                                    HALFREV
001388: 10,2016           02257        SETMGA             STORE    +MGA
001389: 10,2017           43414                           CLR      RVQ                                   #  CLEAR MGLVFLAG TO INDICATE +MGA CALC
001390: 10,2020           02675                                    MGLVFLAG                              #  AND EXIT
001391: 10,2021           53575        GET.LVC            VLOAD    UNIT                                  #  (PL 6D) R (+29) IN MPAC, UNITIZE UR
001392: 10,2022           02327                                    RINIT
001393: 10,2023           77676                           VCOMP                                          #  U(-R)
001394: 10,2024           00023                           STORE    18D                                   #  U(-R) TO 18D
001395: 10,2025           53435                           VXV      UNIT                                  #  U(-R)*V EQ V*U(R), U(V*R)
001396: 10,2026           02335                                    VINIT
001397: 10,2027           00015                           STORE    12D                                   #  U(V*R) TO 12D
001398: 10,2030           53435                           VXV      UNIT                                  #  U(V*R)*U(-R), U((V*R)*(-R))
001399: 10,2031           00023                                    18D
001400: 10,2032           24007                           STOVL    6D                                    #  TRANSFORMATION MATRIX IS IN 6D (+1)
001401: 10,2033           00001                                    0D                                    #  DELTA V (+7) IN 0D
001402: 10,2034           76521                           MXV      VSL1                                  #  CONVERT FROM INER COOR TO LV COOR (+8)
001403: 10,2035           00007                                    6D                                    #  AND SCALE +7 IN MPAC
001404: 10,2036           03432                           STORE    DELVLVC                               #  STORE IN DELVLVC (+7)
001405: 10,2037           43414                           SET      RVQ                                   #  SET MGLVFLAG TO INDICATE LVC CALC
001406: 10,2040           02475                                    MGLVFLAG                              #  AND EXIT
001407:
001408:                                                                                                  #  ..... END OF MIDGIM ROUTINE .....
001409:


001411:
001412: 10,2041           77160        SELECTMU           AXC,1    AXT,2
001413: 10,2042           00002                                    2D
001414: 10,2043           00000                                    0D
001415: 10,2044           77614                           BOFF
001416: 10,2045           04343                                    CMOONFLG
001417: 10,2046           20052                                    SETMUER
001418: 10,2047           77160                           AXC,1    AXT,2
001419: 10,2050           00012                                    10D
001420: 10,2051           00002                                    2D
001421: 10,2052           66143        SETMUER            DLOAD*   SXA,1
001422: 10,2053           10011                                    MUTABLE    +4,1
001423: 10,2054           03375                                    RTX1
001424: 10,2055           22323                           STODL*   RTSR1/MU
001425: 10,2056           10003                                    MUTABLE    -2,1
001426: 10,2057           54214                           BOFF     SR
001427: 10,2060           04343                                    CMOONFLG
001428: 10,2061           20063                                    RTRNMU
001429: 10,2062           20607                                    6D
001430: 10,2063           02325        RTRNMU             STORE    RTMU
001431: 10,2064           43134                           SXA,2    CLEAR
001432: 10,2065           03376                                    RTX2
001433: 10,2066           01271                                    FINALFLG
001434: 10,2067           77650                           GOTO
001435: 10,2070           73542                                    VN1645
001436:


001438:                                                                                                  #  ..... PERIAPO .....
001439:
001440:                                                                                                  #  MOD NO -1                     LOG SECTION - P34-P35, P74-P75
001441:                                                                                                  #  MOD BY WHITE.P                DATE 18JAN68
001442:
001443:                                                                                                  #  FUNCTIONAL DESCRIPTION
001444:
001445:                                                                                                  #        THIS SUBROUTINE COMPUTES THE TWO BODY APOCENTER AND PERICENTER
001446:                                                                                                  #        ALTITUDES GIVEN THE POSITION AND VELOCITY VECTORS FOR A POINT ON
001447:                                                                                                  #        THE TRAJECTORY AND THE PRIMARY BODY.
001448:
001449:                                                                                                  #        SETRAD IS CALLED TO  DETERMINE THE RADIUS OF THE PRIMARY BODY.
001450:
001451:                                                                                                  #        APSIDES IS CALLED TO SOLVE FOR THE TWO BODY RADII OF APOCENTER AND
001452:                                                                                                  #        PERICENTER AND THE ECCENTRICITY OF THE TRAJECTORY.
001453:
001454:                                                                                                  #  CALLING SEQUENCE
001455:
001456:                                                                                                  #        L       CALL
001457:                                                                                                  #        L+1             PERIAPO
001458:                                                                                                  #        L+2     (RETURN - ALWAYS)
001459:
001460:                                                                                                  #  INPUT
001461:
001462:                                                                                                  #        (1)     RVEC    POSITION VECTOR IN METERS
001463:                                                                                                  #                        SCALE FACTOR - EARTH +29, MOON +27
001464:                                                                                                  #        (2)     VVEC    VELOCITY VECTOR IN METERS/CENTISECOND
001465:                                                                                                  #                        SCALE FACTOR - EARTH +7, MOON +5
001466:                                                                                                  #        (3)     X1      PRIMARY BODY INDICATOR
001467:                                                                                                  #                        EARTH -2, MOON -10
001468:
001469:                                                                                                  #  OUTPUT
001470:
001471:                                                                                                  #        (1)     2D      APOCENTER RADIUS IN METERS
001472:                                                                                                  #                        SCALE FACTOR - EARTH +29, MOON +27
001473:                                                                                                  #        (2)     4D      APOCENTER ALTITUDE IN METERS
001474:                                                                                                  #                        SCALE FACTOR - EARTH +29, MOON P27
001475:                                                                                                  #        (3)     6D      PERICENTER RADIUS IN METERS
001476:                                                                                                  #                        SCALE FACTOR - EARTH +29, MOON +27
001477:                                                                                                  #        (4)     8D      PERICENTER ALTITUDE IN METERS
001478:                                                                                                  #                        SCALE FACTOR - EARTH +29, MOON +27
001479:                                                                                                  #        (5)     ECC     ECCENTRICITY OF CONIC TRAJECTORY
001480:                                                                                                  #                        SCALE FACTOR - +3
001481:                                                                                                  #        (6)     XXXALT  RADIUS OF THE PRIMARY BODY IN METERS
001482:                                                                                                  #                        SCALE FACTOR - EARTH +29, MOON +27
001483:                                                                                                  #        (7)     PUSHLOC EQUALS 10D
001484:
001485:                                                                                                  #  SUBROUTINES USED
001486:
001487:                                                                                                  #        SETRAD


001489:                                                                                                  #        APSIDES
001490:
001491: 23,2000                                           SETLOC   APOPERI
001492: 23,2000                                           BANK
001493:
001494: 23,2275                                           COUNT*   $$/PERAP
001495:
001496: 23,2275           00302 17755  RPAD               2DEC     6373338    B-29                       #  STANDARD RADIUS OF PAD 37-B.
001497:                                                                                                  #  = 20 909 901.57 FT
001498:
001499: 23,2277           53754        PERIAPO1           LXA,2    VSR*
001500: 23,2300           03376                                    RTX2
001501: 23,2301           57176                                    0,2
001502: 23,2302           26744                           STOVL    VVEC
001503: 23,2303           53750                           LXA,1    VSR*
001504: 23,2304           03375                                    RTX1
001505: 23,2305           57176                                    0,2
001506: 23,2306           02655                           STORE    RVEC
001507: 23,2307           45020        PERIAPO            STQ      CALL
001508: 23,2310           03461                                    NORMEX
001509: 23,2311           46325                                    SETRAD
001510: 23,2312           37667                           STCALL   XXXALT
001511: 23,2313           25675                                    APSIDES
001512: 23,2314           41401                           SETPD    PUSH                                  #  2D = APOCENTER RADIUS         B29 OR B27
001513: 23,2315           00003                                    2D
001514: 23,2316           65225                           DSU      PDDL                                  #  4D = APOGEE ALTITUDE          B29 OR B27
001515: 23,2317           03667                                    XXXALT
001516: 23,2320           00001                                    0D
001517: 23,2321           45206                           PUSH     DSU                                   #  6D = PERICENTER RADIUS        B29 OR B27
001518: 23,2322           03667                                    XXXALT
001519: 23,2323           52006                           PUSH     GOTO                                  #  8D = PERIGEE ALTITUDE         B29 OR B27
001520: 23,2324           03461                                    NORMEX
001521:


001523:                                                                                                  #  SETRAD
001524:
001525: 23,2325           41545        SETRAD             DLOAD    PUSH
001526: 23,2326           06276                                    RPAD
001527: 23,2327           63130                           SXA,1    INCR,2
001528: 23,2330           00047                                    X2
001529: 23,2331           00002                                    2D
001530: 23,2332           46135                           SLOAD    BHIZ
001531: 23,2333           00050                                    X2
001532: 23,2334           46340                                    SETRADX
001533: 23,2335           51575                           VLOAD    ABVAL
001534: 23,2336           02023                                    RLS
001535: 23,2337           77725                           PDDL
001536: 23,2340           43545        SETRADX            DLOAD    RVQ
001537:


001539:                                                                                                  #  PRECSET
001540:
001541: 23,2341           77620        PRECSET            STQ
001542: 23,2342           03461                                    NORMEX
001543: 23,2343           37572                           STCALL   TDEC2
001544: 23,2344           27057                                    LEMPREC
001545: 23,2345           77624                           CALL
001546: 23,2346           46357                                    LEMSTORE
001547: 23,2347           77745                           DLOAD
001548: 23,2350           03572                                    TDEC2
001549: 23,2351           34041                           STCALL   TDEC1
001550: 23,2352           27043                                    CSMPREC
001551: 23,2353           77624                           CALL
001552: 23,2354           46367                                    CSMSTORE
001553: 23,2355           77650                           GOTO
001554: 23,2356           03461                                    NORMEX
001555: 23,2357           43175        LEMSTORE           VLOAD    BOFF
001556: 23,2360           00001                                    RATT
001557: 23,2361           01352                                    AVFLAG
001558: 23,2362           46373                                    PASSIVE
001559: 23,2363           27534        ACTIVE             STOVL    RACT3
001560: 23,2364           00007                                    VATT
001561: 23,2365           03542                           STORE    VACT3
001562: 23,2366           77616                           RVQ
001563: 23,2367           43175        CSMSTORE           VLOAD    BOFF
001564: 23,2370           00001                                    RATT
001565: 23,2371           01352                                    AVFLAG
001566: 23,2372           46363                                    ACTIVE
001567: 23,2373           27550        PASSIVE            STOVL    RPASS3
001568: 23,2374           00007                                    VATT
001569: 23,2375           03556                           STORE    VPASS3
001570: 23,2376           77616                           RVQ
001571:


001573:                                                                                                  #  VECSHIFT
001574: 23,2377           53754        VECSHIFT           LXA,2    VSR*
001575: 23,2400           03376                                    RTX2
001576: 23,2401           57176                                    0,2
001577: 23,2402           63350                           LXA,1    PDVL
001578: 23,2403           03375                                    RTX1
001579: 23,2404           63257                           VSR*     PDVL
001580: 23,2405           57176                                    0,2
001581: 23,2406           77616                           RVQ
001582:


001584:                                                                                                  #  SHIFTR1
001585:
001586: 23,2407           53754        SHIFTR1            LXA,2    SL*
001587: 23,2410           03376                                    RTX2
001588: 23,2411           57576                                    0,2
001589: 23,2412           77616                           RVQ
001590:


001592:                                                                                                  #  PROGRAM DESCRIPTION
001593:                                                                                                  #  SUBROUTINE NAME       R36     OUT-OF-PLANE RENDEZVOUS ROUTINE
001594:                                                                                                  #  MOD NO. 0             DATE    22 DECEMBER 67
001595:                                                                                                  #  MOD BY N.M.NEVILLE    LOG SECTION EXTENDED VERBS
001596:                                                                                                  #  FUNCTIONAL DESCRIPTION
001597:
001598:                                                                                                  #  TO DISPLAY AT ASTRONAUT REQUEST LGC CALCULATED RENDEZVOUS
001599:                                                                                                  #  OUT-OF-PLANE PARAMETERS (Y , YDOT , PSI). (REQUESTED BY DSKY).
001600:
001601:                                                                                                  #  CALLING SEQUENCE
001602:
001603:                                                                                                  #  ASTRONAUT REQUEST THROUGH DSKY V 90 E
001604:
001605:                                                                                                  #  SUBROUTINES CALLED
001606:
001607:                                                                                                  #  EXDSPRET
001608:                                                                                                  #  GOMARKF
001609:                                                                                                  #  CSMPREC
001610:                                                                                                  #  LEMPREC
001611:                                                                                                  #  SGNAGREE
001612:                                                                                                  #  LOADTIME
001613:
001614:                                                                                                  #  NORMAL EXIT MODES
001615:
001616:                                                                                                  #  ASTRONAUT REQUEST THROUGH DSKY TO TERMINATE PROGRAM V 34 E
001617:
001618:                                                                                                  #  ALARM OR ABORT EXIT MODES
001619:
001620:                                                                                                  #  NONE
001621:
001622:                                                                                                  #  OUTPUT
001623:
001624:                                                                                                  #  DECIMAL DISPLAY OF TIME , Y , YDOT AND PSI
001625:
001626:                                                                                                  #  DISPLAYED VALUES Y , YDOT , AND PSI , ARE STORED IN ERASABLE
001627:                                                                                                  #  REGISTERS RANGE , RRATE AND RTHETA RESPECTIVELY.
001628:
001629:                                                                                                  #  ERASABLE INITIALIZATION REQUIRED
001630:
001631:                                                                                                  #  CSM AND LEM STATE VECTORS
001632:
001633:                                                                                                  #  DEBRIS
001634:
001635:                                                                                                  #  CENTRALS A,Q,L
001636:                                                                                                  #  OTHER THOSE USED BY THE ABOVE LISTED SUBROUTINES
001637:
001638: 20,2115                                           BANK     20
001639: 04,2000                                           SETLOC   R36LM
001640: 04,2000                                           BANK


001642: 04,2613  E4,1612                                  EBANK=   RPASS36
001643:
001644: 04,2613                                           COUNT*   $$/R36
001645:
001646: 04,2613           22007        R36                ZL
001647: 04,2614           34755                           CAF      ZERO                                  #  SET TIME OF EVENT TO ZERO FOR FIRST
001648: 04,2615           53052                           DXCH     DSPTEMX                               #  DISPLAY
001649: 04,2616           32746                           CAF      V06N16N
001650: 04,2617           04616                           TC       BANKCALL
001651: 04,2620           20212                           CADR     GOMARKF
001652: 04,2621           15472                           TCF      ENDEXT                                #  TERMINATE
001653: 04,2622           12624                           TCF      +2                                    #  PROCEED
001654: 04,2623           12616                           TCF      -5                                    #  RECYCLE FOR ASTRONAUT INPUT TIME
001655: 04,2624           53052                           DXCH     DSPTEMX
001656: 04,2625           00006                           EXTEND
001657: 04,2626           12735                           BZF      LREGCHK                               #  A-REG ZERO GOTO CHECK L-REG FOR ZERO
001658: 04,2627           52155        ASTROTIM           DXCH     MPAC                                  #  A-REG NON-ZERO, TIME = ASTRO INPUT TIME
001659: 04,2630           06036                           TC       INTPRET
001660: 04,2631           77634                           RTB
001661: 04,2632           21670                                    DPMODE
001662: 04,2633           34041        R36INT             STCALL   TDEC1
001663: 04,2634           27043                                    OTHPREC
001664: 04,2635           63375                           VLOAD    PDVL
001665: 04,2636           00007                                    VATT
001666: 04,2637           00001                                    RATT                                  #  -
001667: 04,2640           02213                           STORE    RPASS36                               #  R
001668: 04,2641           63256                           UNIT     PDVL                                  #   P
001669: 04,2642           53435                           VXV      UNIT                                  #  -
001670: 04,2643           77626                           STADR
001671: 04,2644           61556                           STODL    UNP36                                 #  U
001672: 04,2645           00015                                    TAT
001673: 04,2646           34041                           STCALL   TDEC1
001674: 04,2647           27057                                    THISPREC
001675: 04,2650           63375                           VLOAD    PDVL                                  #                  -
001676: 04,2651           00007                                    VATT                                  #  VELOCITY VECTOR V             00D
001677: 04,2652           00001                                    RATT                                  #                   A
001678: 04,2653           77725                           PDDL
001679: 04,2654           00015                                    TAT                                   #  SAVE TIME IN LOCATION 30D FOR REDISPLAY
001680: 04,2655           24037                           STOVL    30D                                   #                  -
001681: 04,2656           41406                           PUSH     PUSH                                  #  POSITION VECTOR R  IN 06D AND 12D
001682: 04,2657           63245                           BVSU     PDVL                                  #                   A   -   -
001683: 04,2660           02213                                    RPASS36                               #  LINE OF SIGHT VECTOR R - R    12D
001684: 04,2661           72441                           DOT      SL1                                   #                        P   A
001685: 04,2662           02221                                    UNP36                                 #      -   -
001686: 04,2663           26205                           STOVL    RANGE                                 #  Y = U . R
001687: 04,2664           00001                                    00D                                   #           A
001688: 04,2665           72441                           DOT      SL1
001689: 04,2666           02221                                    UNP36                                 #  .   -   -
001690: 04,2667           26207                           STOVL    RRATE                                 #  Y = U . V
001691: 04,2670           00007                                    06D                                   #  -        A  -


001693: 04,2671           41456                           UNIT     PUSH                                  #  U  = UNIT ( R  )              18D
001694: 04,2672           47235                           VXV      VXV                                   #   RA          A
001695: 04,2673           00001                                    00D                                   #   -    -     -     -
001696: 04,2674           00023                                    18D                                   #  (U  X V ) X U   = U
001697: 04,2675           53552                           VSL2     UNIT                                  #    RA   A     RA    A
001698: 04,2676           77656                           UNIT
001699: 04,2677           24001                           STOVL    00D                                   #  UNIT HORIZONTAL IN FORWARD DIR. 00D
001700: 04,2700           00023                                    18D
001701: 04,2701           74241                           DOT      VXSC                                  #  -
001702: 04,2702           00015                                    12D                                   #  U
001703: 04,2703           77752                           VSL2                                           #   L
001704: 04,2704           53445                           BVSU     UNIT
001705: 04,2705           77656                           UNIT
001706: 04,2706           50206                           PUSH     DOT                                   #  LOS PROJECTED INTO HORIZONTAL  12D
001707: 04,2707           00001                                    00D                                   #  PLANE
001708: 04,2710           65552                           SL1      ARCCOS                                #               -   -
001709: 04,2711           26211                           STOVL    RTHETA                                #  PSI = ARCCOS(U . U )
001710: 04,2712           50235                           VXV      DOT                                   #                A   L
001711: 04,2713           00001                                    00D
001712: 04,2714           71244                           BPL      DLOAD
001713: 04,2715           10722                                    R36TAG2
001714: 04,2716           22306                                    LODPMAX
001715: 04,2717           77625                           DSU
001716: 04,2720           02211                                    RTHETA
001717: 04,2721           02211                           STORE    RTHETA
001718: 04,2722           47145        R36TAG2            DLOAD    RTB
001719: 04,2723           00037                                    30D
001720: 04,2724           21516                                    SGNAGREE
001721: 04,2725           01052                           STORE    DSPTEMX
001722: 04,2726           77776                           EXIT
001723: 04,2727           32747                           CAF      V06N90N                               #   DISPLAY Y , YDOT , AND PSI
001724: 04,2730           04616                           TC       BANKCALL
001725: 04,2731           20212                           CADR     GOMARKF
001726: 04,2732           15472                           TCF      ENDEXT                                #  TERMINATE
001727: 04,2733           15472                           TCF      ENDEXT                                #  PROCEED , END OF PROGRAM
001728: 04,2734           12616                           TCF      R36        +3                         #  REDISPLAY OUTPUT
001729: 04,2735           56001        LREGCHK            XCH      L
001730: 04,2736           00006                           EXTEND
001731: 04,2737           12742                           BZF      ENTTIM2                               #  L-REG ZERO, SET TIME = PRESENT TIME
001732: 04,2740           56001                           XCH      L                                     #  L-REG NON ZERO, TIME = ASTRO INPUT TIME
001733: 04,2741           12627                           TCF      ASTROTIM
001734: 04,2742           06036        ENTTIM2            TC       INTPRET
001735: 04,2743           52034                           RTB      GOTO
001736: 04,2744           21462                                    LOADTIME
001737: 04,2745           10633                                    R36INT
001738: 04,2746           01420        V06N16N            VN       00616
001739: 04,2747           01532        V06N90N            VN       00690

End of include-file P34-P35,_P74-P75.agc.  Parent file is MAIN.agc


