
Source Code


000002:                                                                                                  ## Copyright:   Public domain.
000003:                                                                                                  ## Filename:    P51-P53.agc
000004:                                                                                                  ## Purpose:     A section of LUM69 revision 2.
000005:                                                                                                  ##              It is part of the reconstructed source code for the flown
000006:                                                                                                  ##              version of the flight software for the Lunar Module's (LM)
000007:                                                                                                  ##              Apollo Guidance Computer (AGC) for Apollo 10. The code has
000008:                                                                                                  ##              been recreated from a copy of Luminary revsion 069, using
000009:                                                                                                  ##              changes present in Luminary 099 which were described in
000010:                                                                                                  ##              Luminary memos 75 and 78. The code has been adapted such
000011:                                                                                                  ##              that the resulting bugger words exactly match those specified
000012:                                                                                                  ##              for LUM69 revision 2 in NASA drawing 2021152B, which gives
000013:                                                                                                  ##              relatively high confidence that the reconstruction is correct.
000014:                                                                                                  ## Reference:   pp. 925-978
000015:                                                                                                  ## Assembler:   yaYUL
000016:                                                                                                  ## Contact:     Ron Burkey <info@sandroid.org>.
000017:                                                                                                  ## Website:     www.ibiblio.org/apollo/index.html
000018:                                                                                                  ## Mod history: 2019-07-27 MAS  Created from Luminary 69.
000019:


000021:                                                                                                  #  PROGRAM NAME- PROG52                                                                   DATE- JAN 9, 1967
000022:                                                                                                  #  MOD NO- 0                                                                              LOG SECTION- P51-P53
000023:                                                                                                  #  MODIFICATION BY- LONSKE                                                                ASSEMBLY- SUNDANCE REV 46
000024:
000025:                                                                                                  #  FUNCTIONAL DESCRIPTION-
000026:
000027:                                                                                                  #       ALIGNS THE IMU TO ONE OF THREE ORIENTATIONS SELECTED BY THE ASTRONAUT. THE PRESENT IMU ORIENTATION IS KNOWN
000028:                                                                                                  #  AND IS STORED IN REFSMMAT. THE THREE POSSIBLE ORIENTATIONS MAY BE_
000029:
000030:                                                                                                  #       (A) PREFERRED ORIENTATION
000031:
000032:                                                                                                  #        AN OPTIMUM ORIENTATION FOR A PREVIOUSLY CALCULATED MANUEVER. THIS ORIENTATION MUST BE CALCULATED AND
000033:                                                                                                  #       STORED BY A PREVIOUSLY SELECTED PROGRAM.
000034:
000035:                                                                                                  #       (B) NOMINAL ORIENTATION
000036:
000037:                                                                                                  #           X   =  UNIT ( R )
000038:                                                                                                  #           -SM
000039:
000040:                                                                                                  #           Y  =  UNIT (V X R)
000041:                                                                                                  #            SM
000042:
000043:                                                                                                  #           Z   =  UNIT (X   X  Y  )
000044:                                                                                                  #            SM           SM     SM
000045:
000046:                                                                                                  #           WHERE_
000047:                                                                                                  #            R = THE GEOCENTRIC RADIUS VECTOR AT TIME T(ALIGN) SELECTED BY THE ASTRONAUT
000048:                                                                                                  #            -
000049:
000050:                                                                                                  #            V = THE INERTIAL VELOCITY VECTOR AT TIME T(ALIGN) SELECTED BY THE ASTRONAUT
000051:                                                                                                  #            -
000052:
000053:                                                                                                  #       (C) REFSMMAT ORIENTATION
000054:
000055:                                                                                                  #           (D)  LANDING SITE - THIS IS NOT AVAILIBLE IN SUNDANCE
000056:
000057:                                                                                                  #        THIS SELECTION CORRECTS THE PRESENT IMU ORIENTATION. THE PRESENT ORIENTATION DIFFERS FROM THAT TO WHICH IT
000058:                                                                                                  #       WAS LAST ALIGNED ONLY DUE TO GYRO DRIFT(I.E. NEITHER GIMBAL LOCK NOR IMU POWER INTERRUPTION HAS OCCURED
000059:                                                                                                  #       SINCE THE LAST ALIGNMENT).
000060:
000061:                                                                                                  #       AFTER A IMU ORIENTATION HAS BEEN SELECTED ROUTINE S52.2 IS OPERATED TO COMPUTE THE GIMBAL ANGLES USING THE
000062:                                                                                                  #  NEW ORIENTATION AND THE PRESENT VEHICLE ATTITUDE. CAL52A THEN USES THESE ANGLES, STORED IN THETAD,+1,+2, TO
000063:                                                                                                  #  COARSE ALIGN THE IMU. THE STAR SELECTION ROUTINE, R56, IS THEN OPERATED. IF 2 STARS ARE NOT AVAILABLE AN ALARM
000064:                                                                                                  #  IS FLASHED TO NOTIFY THE ASTRONAUT. AT THIS POINT THE ASTRONAUT WILL MANUEVER THE VEHICLE AND SELECT 2 STARS
000065:                                                                                                  #  EITHER MANUALLY OR AUTOMATICALLY. AFTER 2 STARS HAVE BEEN SELECTED THE IMU IS FINE ALIGNED USING ROUTINE R51. IF
000066:                                                                                                  #  THE RENDEZVOUS NAVIGATION PROCESS IS OPERATING(INDICATED BY RNDVZFLG) P20 IS DISPLAYED. OTHERWISE P00 IS
000067:                                                                                                  #  REQUESTED.
000068:
000069:                                                                                                  #  CALLING SEQUENCE-
000070:


000072:                                                                                                  #       THE PROGRAM IS CALLED BY THE ASTRONAUT BY DSKY ENTRY.
000073:
000074:                                                                                                  #  SUBROUTINES CALLED-
000075:
000076:                                                                                                  #      1. FLAGDOWN      7. S52.2           13. NEWMODEX
000077:                                                                                                  #      2. R02BOTH       8. CAL53A          14. PRIOLARM
000078:                                                                                                  #      3. GOPERF4       9. FLAGUP
000079:                                                                                                  #      4. MATMOVE      10. R56
000080:                                                                                                  #      5. GOFLASH      11. R51
000081:                                                                                                  #      6. S52.3        12. GOPERF3
000082:
000083:                                                                                                  #  NORMAL EXIT MODES-
000084:
000085:                                                                                                  #      EXITS TO ENDOFJOB
000086:
000087:                                                                                                  #  ALARM OR ABORT EXIT MODES-
000088:
000089:                                                                                                  #      NONE
000090:
000091:                                                                                                  #  OUTPUT-
000092:
000093:                                                                                                  #      THE FOLLOWING MAY BE FLASHED ON THE DSKY
000094:                                                                                                  #         1. IMU ORIENTATION CODE
000095:                                                                                                  #         2. ALARM CODE 215 -PREFERRED IMU ORIENTATION NOT SPECIFIED
000096:                                                                                                  #         3. TIME OF NEXT IGNITION
000097:                                                                                                  #         4. GIMBAL ANGLES
000098:                                                                                                  #         5. ALARM CODE 405 -TWO STARS NOT AVAILABLE
000099:                                                                                                  #         6. PLEASE PERFORM P00
000100:                                                                                                  #      THE MODE DISPLAY MAY BE CHANGED TO 20
000101:
000102:                                                                                                  #  ERASABLE INITIALIZATION REQUIRED-
000103:
000104:                                                                                                  #      PFRATFLG SHOULD BE SET IF A PREFERRED ORIENTATION HAS BEEN COMPUTED.IF IT HAS BEEN COMPUTED IT IS STORED IN
000105:                                                                                                  #      XSMD,YSMD,ZSMD.
000106:                                                                                                  #      RNDVZFLG INDICATES WHETHER THE RENDEZVOUS NAVIGATION PROCESS IS OPERATING.
000107:
000108:                                                                                                  #  DEBRIS-
000109:
000110:                                                                                                  #      WORK AREA
000111: 33,3755                                           BANK     33
000112: 15,2000                                           SETLOC   P50S
000113: 15,2000                                           BANK
000114:
000115: 15,2050  E5,1755                                  EBANK=   BESTI
000116: 15,2050                                           COUNT*   $$/P52
000117: 15,2050           04616        PROG52             TC       BANKCALL
000118: 15,2051           11175                           CADR     R02BOTH                               #  IMU STATUS CHECK
000119: 15,2052           34750                           CAF      PFRATBIT
000120: 15,2053           70076                           MASK     FLAGWRD2                              #  IS PFRATFLG SET?
000121: 15,2054           10000                           CCS      A
000122:


000124: 15,2055           02060                           TC       P52A                                  #  YES
000125: 15,2056           34752                           CAF      BIT2                                  #  NO
000126: 15,2057           02061                           TC       P52A       +1
000127: 15,2060           34753        P52A               CAF      BIT1
000128: 15,2061           55145                           TS       OPTION2
000129: 15,2062           34753        P52B               CAF      BIT1
000130: 15,2063           04616                           TC       BANKCALL                              #  FLASH OPTION CODE AND ORIENTATION CODE
000131: 15,2064           20566                           CADR     GOPERF4R                              #  FLASH V04N06
000132: 15,2065           06001                           TC       GOTOPOOH
000133: 15,2066           12073                           TCF      +5                                    #  V33-PROCEED
000134: 15,2067           02062                           TC       P52B                                  #  NEW CODE - NEW ORIENTATION CODE INPUT
000135: 15,2070           05353                           TC       PHASCHNG                              #  DISPLAY RETURN
000136: 15,2071           00014                           OCT      00014
000137: 15,2072           05155                           TC       ENDOFJOB
000138:
000139: 15,2073           31145                           CA       OPTION2
000140: 15,2074           76244                           MASK     THREE
000141: 15,2075           50000                           INDEX    A
000142: 15,2076           02077                           TC       +1
000143: 15,2077           02105                           TC       P52T
000144: 15,2100           02166                           TC       P52H
000145: 15,2101           02105                           TC       P52T
000146: 15,2102           06036        P52E               TC       INTPRET
000147: 15,2103           77650                           GOTO
000148: 15,2104           32162                                    P52F
000149: 15,2105           00006        P52T               EXTEND
000150: 15,2106           34755                           DCA      NEG0
000151: 15,2107           53046                           DXCH     DSPTEM1
000152: 15,2110           32172                           CAF      V06N34*
000153: 15,2111           04616                           TC       BANKCALL
000154: 15,2112           20351                           CADR     GOFLASH
000155: 15,2113           06001                           TC       GOTOPOOH
000156: 15,2114           02116                           TC       +2
000157: 15,2115           02110                           TC       -5
000158: 15,2116           53046                           DXCH     DSPTEM1
000159: 15,2117           00006                           EXTEND
000160: 15,2120           62122                           BZMF     +2                                    #  IF TIME ZERO OR NEG USE TIME2
000161: 15,2121           12124                           TCF      +3
000162: 15,2122           00006                           EXTEND
000163: 15,2123           30025                           DCA      TIME2
000164: 15,2124           53775                           DXCH     TALIGN
000165: 15,2125           31145        P52V               CA       OPTION2
000166: 15,2126           74752                           MASK     BIT2
000167: 15,2127           10000                           CCS      A
000168: 15,2130           02134                           TC       P52W
000169: 15,2131           06036                           TC       INTPRET                               #  OPTION 4 - GET LS ORIENTATION
000170: 15,2132           77650                           GOTO
000171: 15,2133           32223                                    P52LS
000172:


000174:                                                                                                  #  START ALIGNMENT
000175:
000176: 15,2134           06036        P52W               TC       INTPRET
000177: 15,2135           77745                           DLOAD
000178: 15,2136           02775                                    TALIGN                                #  PICK UP ALIGN TIME
000179: 15,2137           77624                           CALL                                           #  COMPUTE NOMINAL IMU
000180: 15,2140           31566                                    S52.3                                 #   ORIENTATION
000181: 15,2141           77624        P52D               CALL                                           #  READ VEHICLE ATTITUDE AND
000182: 15,2142           31534                                    S52.2                                 #   COMPUTE GIMBAL ANGLES
000183: 15,2143           77776                           EXIT
000184: 15,2144           32171                           CAF      V06N22*
000185: 15,2145           04616                           TC       BANKCALL                              #  DISPLAY GIMBAL ANGLES
000186: 15,2146           20351                           CADR     GOFLASH
000187: 15,2147           06001                           TC       GOTOPOOH
000188: 15,2150           12174                           TCF      COARSTYP                              #  V33-PROCEED, SEE IF GYRO TORQUE COARSE
000189: 15,2151           06036                           TC       INTPRET                               #  RECYCLE - VEHICLE HAS BEEN MANUEVERED
000190: 15,2152           77650                           GOTO
000191: 15,2153           32141                                    P52D
000192: 15,2154           06036        REGCOARS           TC       INTPRET
000193: 15,2155           77624                           CALL                                           #  DO COARSE ALIGN
000194: 15,2156           31172                                    CAL53A                                #   ROUTINE
000195: 15,2157           43014                           SET      CLEAR
000196: 15,2160           01462                                    REFSMFLG
000197: 15,2161           01273                                    PFRATFLG
000198: 15,2162           77624        P52F               CALL
000199: 15,2163           30656                                    R51
000200: 15,2164           77776        P52OUT             EXIT
000201: 15,2165           06001                           TC       GOTOPOOH
000202: 15,2166           06036        P52H               TC       INTPRET                               #  PREFERRED OPTION, GO COMPUTE GIMBALS
000203: 15,2167           77650                           GOTO
000204: 15,2170           32141                                    P52D
000205:
000206: 15,2171     5006               VB05N09            =        V05N09
000207: 15,2171           01426        V06N22*            VN       00622
000208: 15,2172           01442        V06N34*            VN       634
000209:
000210: 15,2173           01531        V06N89*            VN       0689
000211:


000213:                                                                                                  #  CHECK FOR GRRO TORQUE COARSE ALIGNMENT
000214: 15,2174           32222        COARSTYP           CAF      OCT13
000215: 15,2175           04616                           TC       BANKCALL                              #  DISPLAY V 50N25 WITH COARSE ALIGN OPTION
000216: 15,2176           20476                           CADR     GOPERF1
000217: 15,2177           16001                           TCF      GOTOPOOH                              #  V34-TERMIN&OE
000218: 15,2200           12154                           TCF      REGCOARS                              #  V33-NORMAL COARSE
000219: 15,2201           06036                           TC       INTPRET                               #  V32-GYRO TORQUE COARSE
000220: 15,2202           64375                           VLOAD    MXV
000221: 15,2203           03605                                    XSMD                                  #  GET SM(DESIRED) WRT SM(PRESENT)
000222: 15,2204           01734                                    REFSMMAT
000223: 15,2205           77656                           UNIT
000224: 15,2206           26665                           STOVL    XDC
000225: 15,2207           03613                                    YSMD
000226: 15,2210           53521                           MXV      UNIT
000227: 15,2211           01734                                    REFSMMAT
000228: 15,2212           26673                           STOVL    YDC
000229: 15,2213           03621                                    ZSMD
000230: 15,2214           53521                           MXV      UNIT
000231: 15,2215           01734                                    REFSMMAT
000232: 15,2216           36701                           STCALL   ZDC
000233: 15,2217           31025                                    GYCOARS
000234: 15,2220           77650                           GOTO
000235: 15,2221           32164                                    P52OUT
000236: 15,2222           00013        OCT13              OCT      13
000237:


000239:                                                                                                  #  COMPUTE LANDING ORIENTATION FOR OPTION 4
000240: 15,2223           43014        P52LS              SET      CLEAR                                 #  GET LANDING SITE ORIENTATION
000241: 15,2224           01463                                    LUNAFLAG
000242: 15,2225           00662                                    ERADFLAG                              #  TO PICK UP RLS
000243: 15,2226           77201                           SETPD    VLOAD
000244: 15,2227           00001                                    0
000245: 15,2230           02023                                    RLS                                   #  PICK UP LANDING SITE VEC IN MF
000246: 15,2231           41525                           PDDL     PUSH                                  #  RLS PD 0-5
000247: 15,2232           02775                                    TALIGN
000248: 15,2233           77624                           CALL
000249: 15,2234           51504                                    RP-TO-R                               #  TRANS RLS TO REF
000250: 15,2235           77742                           VSR2
000251: 15,2236           16032                           STODL    ALPHAV                                #  INPUT TO LAT-LONG
000252: 15,2237           02775                                    TALIGN
000253: 15,2240           77624                           CALL
000254: 15,2241           26351                                    LAT-LONG                              #  GET LAT, LONG, AND ALT
000255: 15,2242           70545                           DLOAD    SR1                                   #  RESCALE LONG TO DEGREES/2
000256: 15,2243           01123                                    LONG
000257: 15,2244           16711                           STODL    LANDLONG
000258: 15,2245           01125                                    ALT
000259: 15,2246           16713                           STODL    LANDALT                               #  ALT ALREADY AT 2(29) METERS
000260: 15,2247           01121                                    LAT
000261: 15,2250           02707                           STORE    LANDLAT
000262: 15,2251           77776                           EXIT
000263:
000264: 15,2252           32173        LSDISP             CAF      V06N89*                               #  DISPLAY LAT,LONG/2, ALT
000265: 15,2253           04616                           TC       BANKCALL
000266: 15,2254           20351                           CADR     GOFLASH
000267: 15,2255           16001                           TCF      GOTOPOOH                              #  VB34 TERMINATE
000268: 15,2256           12260                           TCF      +2                                    #  VB33 PROCEED
000269: 15,2257           12252                           TCF      LSDISP                                #  VB32 RECYCLE
000270:
000271: 15,2260           06036                           TC       INTPRET
000272: 15,2261           72545                           DLOAD    SL1
000273: 15,2262           02711                                    LANDLONG
000274: 15,2263           15123                           STODL    LONG
000275: 15,2264           02713                                    LANDALT
000276: 15,2265           15125                           STODL    ALT
000277: 15,2266           02707                                    LANDLAT
000278: 15,2267           15121                           STODL    LAT
000279: 15,2270           02775                                    TALIGN
000280: 15,2271           77624                           CALL
000281: 15,2272           26422                                    LALOTORV
000282: 15,2273           53575                           VLOAD    UNIT                                  #  COMPUTE LANDING SITE ORIENT (XSMD)
000283: 15,2274           02032                                    ALPHAV
000284: 15,2275           37605                           STCALL   XSMD
000285: 15,2276           33647                                    LSORIENT
000286: 15,2277           77650                           GOTO
000287: 15,2300           32141                                    P52D                                  #  NOW GO COMPUTE GIMBAL ANGLES
000288:


000290:                                                                                                  #  NAME -S50 ALIAS  LOCSAM
000291:                                                                                                  #  BY
000292:                                                                                                  #  VINCENT
000293:                                                                                                  #  FUNCTION - COMPUTE INPUTS FOR PICAPAR  AND PLANET
000294:
000295:                                                                                                  #           DEFINE
000296:
000297:
000298:                                                                                                  #           U    = UNIT( SUN WRT EARTH)
000299:                                                                                                  #            ES
000300:
000301:                                                                                                  #           U    =UNIT( MOON WRT EARTH)
000302:                                                                                                  #            EM
000303:
000304:                                                                                                  #           R    =POSITION VECTOR OF LEM
000305:                                                                                                  #            L
000306:
000307:                                                                                                  #           R    =MEAN DISTANCE (384402KM) BETWEEN EARTH AND MOON
000308:                                                                                                  #            EM
000309:
000310:                                                                                                  #           P    =RATIO   R   /(DISTANCE SUN TO EARTH)    >.00257125
000311:                                                                                                  #                           EM
000312:
000313:                                                                                                  #           R    =EQUATORIAL RADIUSS (6378.166KM) OF EARTH
000314:                                                                                                  #            E
000315:
000316:                                                                                                  #           LOCSAM  COMPUTES IN EARTH INFLUENCE
000317:
000318:
000319:                                                                                                  #       VSUN   =   U
000320:                                                                                                  #                   ES
000321:
000322:                                                                                                  #      VEARTH  =   -UNIT( R  )
000323:                                                                                                  #                          L
000324:
000325:                                                                                                  #      VMOON   =    UNIT(R  .U   - R  )
000326:                                                                                                  #                         EM  EM    L
000327:
000328:                                                                                                  #      CSUN    =   COS 90
000329:
000330:                                                                                                  #      CEARTH  =    COS(5 + ARCSIN(R /MAG(R )))
000331:                                                                                                  #                                   E      L
000332:
000333:                                                                                                  #      CMOON   =    COS 5
000334:
000335:
000336:                                                                                                  #  INPUT -  TIME IN MPAC
000337:                                                                                                  #  OUTPUT - LISTED ABOVE
000338:                                                                                                  #  SUBROUTINES -LSPOS,LEMPREC
000339:                                                                                                  #  DEBRIS - VAC AREA ,TSIGHT
000340:


000342: 14,2000                                           SETLOC   P50S1
000343: 14,2000                                           BANK
000344: 14,2347  E5,1642                                  EBANK=   XSM
000345:
000346: 14,2347                                           COUNT*   $$/LOSAM
000347:
000348: 14,2347  14,2347               S50                =        LOCSAM
000349: 14,2347           77620        LOCSAM             STQ
000350: 14,2350           02745                                    QMIN
000351: 14,2351           37560                           STCALL   TSIGHT
000352: 14,2352           33663                                    LSPOS
000353: 14,2353           77745                           DLOAD
000354: 14,2354           03560                                    TSIGHT
000355: 14,2355           34041                           STCALL   TDEC1
000356: 14,2356           27057                                    LEMPREC
000357: 14,2357           61131                           SSP      TIX,2
000358: 14,2360           00052                                    S2
000359: 14,2361           00000                                    0
000360: 14,2362           30404                                    MOONCNTR
000361: 14,2363           74375        EARTCNTR           VLOAD    VXSC
000362: 14,2364           02723                                    VMOON
000363: 14,2365           30001                                    RSUBEM
000364: 14,2366           52372                           VSL1     VSU
000365: 14,2367           00001                                    RATT
000366: 14,2370           77656                           UNIT
000367: 14,2371           26723                           STOVL    VMOON
000368: 14,2372           00001                                    RATT
000369: 14,2373           57456                           UNIT     VCOMP
000370: 14,2374           16707                           STODL    VEARTH
000371: 14,2375           30005                                    RSUBE
000372: 14,2376           77624                           CALL
000373: 14,2377           30436                                    OCCOS
000374: 14,2400           14017                           STODL    CEARTH
000375: 14,2401           30445                                    CSS5
000376: 14,2402           34023                           STCALL   CMOON
000377: 14,2403           30431                                    ENDSAM
000378: 14,2404           74375        MOONCNTR           VLOAD    VXSC
000379: 14,2405           02723                                    VMOON
000380: 14,2406           30007                                    ROE
000381: 14,2407           53445                           BVSU     UNIT
000382: 14,2410           02715                                    VSUN
000383: 14,2411           26715                           STOVL    VSUN
000384: 14,2412           02723                                    VMOON
000385: 14,2413           53361                           VXSC     VAD
000386: 14,2414           30001                                    RSUBEM
000387: 14,2415           00001                                    RATT
000388: 14,2416           57456                           UNIT     VCOMP
000389: 14,2417           26707                           STOVL    VEARTH
000390: 14,2420           00001                                    RATT
000391: 14,2421           57456                           UNIT     VCOMP
000392:


000394: 14,2422           16723                           STODL    VMOON
000395: 14,2423           30003                                    RSUBM
000396: 14,2424           77624                           CALL
000397: 14,2425           30436                                    OCCOS
000398: 14,2426           14023                           STODL    CMOON
000399: 14,2427           30445                                    CSS5
000400: 14,2430           00017                           STORE    CEARTH
000401: 14,2431           77745        ENDSAM             DLOAD
000402: 14,2432           30447                                    CSSUN
000403: 14,2433           00021                           STORE    CSUN
000404: 14,2434           77650                           GOTO
000405: 14,2435           02745                                    QMIN
000406: 14,2436           70471        OCCOS              DDV      SR1
000407: 14,2437           00045                                    36D
000408: 14,2440           43336                           ASIN     DAD
000409: 14,2441           30451                                    5DEGREES
000410: 14,2442           70546                           COS      SR1
000411: 14,2443           77616                           RVQ
000412: 14,2444                        CEARTH             =        14D
000413: 14,2444                        CSUN               =        16D
000414: 14,2444                        CMOON              =        18D
000415: 14,2444           07760 14473  CSS5               2DEC     .2490475                              #  (COS 5)/4
000416: 14,2446           04000 00000  CSSUN              2DEC     .125                                  #  (COS 60)/4
000417: 14,2450           00343 21616  5DEGREES           2DEC     .013888889                            #     SCALED IN REVS
000418:


000420:                                                                                                  #  PROGRAM NAME - R56              DATE  DEC 20 66
000421:                                                                                                  #  MOD 1                           LOG SECTION P51-P53
000422:                                                                                                  #                                  ASSEMBLY  SUNDISK  REV40
000423:                                                                                                  #  BY KEN VINCENT
000424:
000425:                                                                                                  #  FUNCTION
000426:                                                                                                  #    THIS PROGRAM READ THE IMU-CDUS AND COMPUTES THE VEHICLE ORIENTATION
000427:                                                                                                  #  WITH RESPECT TO INERTIAL SPACE. IT THEN COMPUTES THE SHAFT AXIS (SAX)
000428:                                                                                                  #  WITH RESPECT TO REFERENCE INERTIAL. EACH STAR IN THE CATALOG IS TESTED
000429:                                                                                                  #  TO DETERMINE IF IT IS OCCULTED BY EITHER THE EARTH,SUN OR MOON. IF A
000430:                                                                                                  #  STAR IS NOT OCCULTED  THEN IT IS PAIRED WITH ALL STAR OF LOWER INDEX.
000431:                                                                                                  #  THE PAIRED STAR  IS TESTED FOR OCCULTATION. PAIRS OF STARS THAT PASS
000432:                                                                                                  #  THE OCCULTATION TESTS ARE TESTED FOR GOOD SEPARATION.A PAIR OF STARS
000433:                                                                                                  #  HAVE GOOD SEPERATION IF THE ANGLE BETWEEN THEM IS LESS THAN 100 DEGREES
000434:                                                                                                  #  AND MORE THAN 50 DEGREES. THOSE PAIRS WITH GOOD SEPARATION
000435:                                                                                                  #  ARE THEN TESTED TO SEE IF THEY LIE IN CURRENT FIELD OF VIEW.(WITHIN
000436:                                                                                                  #  50 DEGREESOF SAX).THE PAIR WITH MAX SEPARATION IS CHOSEN FROM
000437:                                                                                                  #  THOSE WITH GOOD SEPARATION,AND     IN FIELD OF VIEW.
000438:
000439:                                                                                                  #  CALLING SEQUENCE
000440:                                                                                                  #  L        TC     BANKCALL
000441:                                                                                                  #  L+1      CADR   R56
000442:                                                                                                  #  L+2      ERROR RETURN - NO STARS IN FIELD OF VIEW
000443:                                                                                                  #  L+3      NORMAL RETURN
000444:
000445:                                                                                                  #  OUTPUT
000446:                                                                                                  #  BESTI,BESTJ -SINGLE PREC,INTEGERS,STAR NUMBERS TIMES 6
000447:                                                                                                  #  VFLAG - FLAG BIT  SET IMPLIES NO STARS IN FIELD OF VIEW
000448:
000449:                                                                                                  #  INITIALIZATION
000450:                                                                                                  #  1)A CALL TO LOCSAM MUST BE MADE
000451:
000452:                                                                                                  #  DEBRIS
000453:                                                                                                  #  WORK AREA
000454:                                                                                                  #  X,Y,ZNB
000455:                                                                                                  #  SINCDU,COSCDU
000456:                                                                                                  #  STARAD - STAR +5
000457: 14,2452  14,2452               R56                =        PICAPAR
000458: 14,2452                                           COUNT*   $$/R56
000459: 14,2452           04645        PICAPAR            TC       MAKECADR
000460: 14,2453           55745                           TS       QMIN
000461: 14,2454           06036                           TC       INTPRET
000462: 14,2455           77624                           CALL
000463: 14,2456           47443                                    CDUTRIG
000464: 14,2457           77624                           CALL
000465: 14,2460           31267                                    CALCSMSC
000466: 14,2461           77601                           SETPD
000467: 14,2462           00001                                    0
000468: 14,2463           71214                           SET      DLOAD                                 #  VFLAG = 1
000469: 14,2464           01465                                    VFLAG
000470:


000472: 14,2465           22275                                    DPZERO
000473: 14,2466           26756                           STOVL    BESTI
000474: 14,2467           02665                                    XNB
000475: 14,2470           63361                           VXSC     PDVL
000476: 14,2471           22273                                    HALFDP
000477: 14,2472           02701                                    ZNB
000478: 14,2473           74370                           AXT,1    VXSC
000479: 14,2474           00344                                    228D                                  #  X1 = 37 X 6 + 6
000480: 14,2475           22273                                    HALFDP
000481: 14,2476           77655                           VAD
000482: 14,2477           53505                           VXM      UNIT
000483: 14,2500           01734                                    REFSMMAT
000484: 14,2501           02731                           STORE    SAX                                   #  SAX = SHAFT AXIS
000485: 14,2502           66331                           SSP      SSP                                   #  S1=S2=6
000486: 14,2503           00051                                    S1
000487: 14,2504           00006                                    6
000488: 14,2505           00052                                    S2
000489: 14,2506           00006                                    6
000490: 14,2507           52100        PIC1               TIX,1    GOTO                                  #  MAJOR STAR
000491: 14,2510           30512                                    PIC2
000492: 14,2511           30627                                    PICEND
000493: 14,2512           50373        PIC2               VLOAD*   DOT
000494: 14,2513           30347                                    CATLOG,1
000495: 14,2514           02731                                    SAX
000496: 14,2515           50025                           DSU      BMN
000497: 14,2516           30626                                    CSS33
000498: 14,2517           30507                                    PIC1
000499: 14,2520           77754                           LXA,2
000500: 14,2521           00046                                    X1
000501: 14,2522           52104        PIC3               TIX,2    GOTO
000502: 14,2523           30525                                    PIC4
000503: 14,2524           30507                                    PIC1
000504: 14,2525           50373        PIC4               VLOAD*   DOT
000505: 14,2526           47430                                    CATLOG,2
000506: 14,2527           02731                                    SAX
000507: 14,2530           50025                           DSU      BMN
000508: 14,2531           30626                                    CSS33
000509: 14,2532           30522                                    PIC3
000510: 14,2533           47773                           VLOAD*   DOT*
000511: 14,2534           30347                                    CATLOG,1
000512: 14,2535           47430                                    CATLOG,2
000513: 14,2536           51025                           DSU      BPL
000514: 14,2537           30624                                    CSS40
000515: 14,2540           30522                                    PIC3
000516: 14,2541           45173                           VLOAD*   CALL
000517: 14,2542           30347                                    CATLOG,1
000518: 14,2543           30601                                    OCCULT
000519: 14,2544           77614                           BON
000520: 14,2545           01710                                    CULTFLAG
000521: 14,2546           30507                                    PIC1
000522:


000524: 14,2547           45173                           VLOAD*   CALL
000525: 14,2550           47430                                    CATLOG,2
000526: 14,2551           30601                                    OCCULT
000527: 14,2552           77614                           BON
000528: 14,2553           01710                                    CULTFLAG
000529: 14,2554           30522                                    PIC3
000530: 14,2555           77614        STRATGY            BONCLR
000531: 14,2556           01605                                    VFLAG
000532: 14,2557           30574                                    NEWPAR
000533: 14,2560           65120                           XCHX,1   XCHX,2
000534: 14,2561           02755                                    BESTI
000535: 14,2562           02756                                    BESTJ
000536: 14,2563           47773        STRAT              VLOAD*   DOT*
000537: 14,2564           30347                                    CATLOG,1
000538: 14,2565           47430                                    CATLOG,2
000539: 14,2566           43006                           PUSH     BOFINV
000540: 14,2567           01545                                    VFLAG
000541: 14,2570           30560                                    STRAT      -3
000542: 14,2571           45345                           DLOAD    DSU
000543: 14,2572           77644                           BPL
000544: 14,2573           30522                                    PIC3
000545: 14,2574           67130        NEWPAR             SXA,1    SXA,2
000546: 14,2575           02755                                    BESTI
000547: 14,2576           02756                                    BESTJ
000548: 14,2577           77650                           GOTO
000549: 14,2600           30522                                    PIC3
000550: 14,2601           51321        OCCULT             MXV      BVSU
000551: 14,2602           02707                                    CULTRIX
000552: 14,2603           00017                                    CSS
000553: 14,2604           77654                           BZE
000554: 14,2605           30620                                    CULTED
000555: 14,2606           75240                           BMN      SIGN
000556: 14,2607           30620                                    CULTED
000557: 14,2610           00160                                    MPAC       +3
000558: 14,2611           75240                           BMN      SIGN
000559: 14,2612           30620                                    CULTED
000560: 14,2613           00162                                    MPAC       +5
000561: 14,2614           43040                           BMN      CLRGO
000562: 14,2615           30620                                    CULTED
000563: 14,2616           01630                                    CULTFLAG
000564: 14,2617           00052                                    QPRET
000565: 14,2620           77614        CULTED             SETGO
000566: 14,2621           01430                                    CULTFLAG
000567: 14,2622           00052                                    QPRET
000568: 14,2623  0000016               CSS                =        CEARTH
000569: 14,2623           05110 35052  CSS40              2DEC     .16070                                #  COS 50 / 4
000570: 14,2625           05110 35052  CSS33              2DEC     .16070                                #   COS 50 / 4
000571: 14,2627           77414        PICEND             BOFF     EXIT
000572:


000574: 14,2630           01745                                    VFLAG
000575: 14,2631           30633                                    PICGXT
000576: 14,2632           02654                           TC       PICBXT
000577: 14,2633           73150        PICGXT             LXA,1    LXA,2
000578: 14,2634           02755                                    BESTI
000579: 14,2635           02756                                    BESTJ
000580: 14,2636           47775                           VLOAD    DOT*
000581: 14,2637           02731                                    SAX
000582: 14,2640           30347                                    CATLOG,1
000583: 14,2641           47715                           PDVL     DOT*
000584: 14,2642           02731                                    SAX
000585: 14,2643           47430                                    CATLOG,2
000586: 14,2644           77625                           DSU
000587: 14,2645           66044                           BPL      SXA,1
000588: 14,2646           30652                                    PICNSWP
000589: 14,2647           02756                                    BESTJ
000590: 14,2650           77734                           SXA,2
000591: 14,2651           02755                                    BESTI
000592: 14,2652           77776        PICNSWP            EXIT
000593: 14,2653           25745                           INCR     QMIN
000594: 14,2654           31745        PICBXT             CA       QMIN
000595: 14,2655           04622                           TC       SWCALL
000596: 14,2656                        VPD                =        0D
000597: 14,2656                        V0                 =        6D
000598: 14,2656                        V1                 =        12D
000599: 14,2656                        V2                 =        18D
000600: 14,2656                        V3                 =        24D
000601: 14,2656                        DP0                =        30D
000602: 14,2656                        DP1                =        32D
000603:


000605:                                                                                                  #  NAME-R51  FINE ALIGN
000606:                                                                                                  #  FUNCTION-TO ALIGN THE STABLE MEMBER TO REFSMMAT
000607:                                                                                                  #  CALLING SEQ- CALL  R51
000608:                                                                                                  #  INPUT -  REFSMMAT
000609:                                                                                                  #  OUTPUT- GYRO TORQUE PULSES
000610:                                                                                                  #  SUBROUTINES -LOCSAM,PICAPAR,R52,R53,R54,R55
000611: 14,2656                                           COUNT*   $$/R51
000612: 14,2656           77620        R51                STQ
000613: 14,2657           02746                                    QMAJ
000614: 14,2660           77776        R51.1              EXIT
000615: 14,2661           34761        R51C               CAF      OCT15
000616: 14,2662           04616                           TC       BANKCALL
000617: 14,2663           20476                           CADR     GOPERF1
000618: 14,2664           06001                           TC       GOTOPOOH
000619: 14,2665           02667                           TC       +2                                    #  V33E
000620: 14,2666           02712                           TC       R51E                                  #  ENTER
000621: 14,2667           06036                           TC       INTPRET
000622: 14,2670           43234                           RTB      DAD
000623: 14,2671           21462                                    LOADTIME
000624: 14,2672           31024                                    TSIGHT1
000625: 14,2673           77624                           CALL
000626: 14,2674           30347                                    LOCSAM
000627: 14,2675           77776                           EXIT
000628: 14,2676           04616                           TC       BANKCALL
000629: 14,2677           30452                           CADR     R56
000630: 14,2700           02702                           TC       R51I
000631: 14,2701           02712        R51F               TC       R51E
000632: 14,2702           05567        R51I               TC       ALARM
000633: 14,2703           00405                           OCT      405
000634: 14,2704           35006                           CAF      VB05N09
000635: 14,2705           04616                           TC       BANKCALL
000636: 14,2706           20351                           CADR     GOFLASH
000637: 14,2707           06001                           TC       GOTOPOOH
000638: 14,2710           02712                           TC       R51E
000639: 14,2711           02661                           TC       R51C
000640: 14,2712           34755        R51E               CAF      ZERO
000641: 14,2713           55757                           TS       STARIND
000642: 14,2714           06036        R51.2              TC       INTPRET
000643: 14,2715           77776        R51.3              EXIT
000644: 14,2716           05353                           TC       PHASCHNG
000645: 14,2717           05024                           OCT      05024
000646: 14,2720           13000                           OCT      13000
000647: 14,2721           06036                           TC       INTPRET
000648: 14,2722           77624                           CALL
000649: 14,2723           31610                                    R52                                   #  AOP WILL MAKE CALLS TO SIGHTING
000650: 14,2724           77776                           EXIT
000651: 14,2725           04616                           TC       BANKCALL
000652: 14,2726           16000                           CADR     AOTMARK
000653: 14,2727           04616                           TC       BANKCALL
000654: 14,2730           17665                           CADR     OPTSTALL
000655:


000657: 14,2731           05703                           TC       CURTAINS
000658: 14,2732           11757                           CCS      STARIND
000659: 14,2733           12735                           TCF      +2
000660: 14,2734           03006                           TC       R51.4
000661: 14,2735           06036                           TC       INTPRET
000662: 14,2736           77775                           VLOAD
000663: 14,2737           02715                                    STARAD     +6
000664: 14,2740           02767                           STORE    STARSAV2
000665: 14,2741           77776                           EXIT
000666: 14,2742           05353                           TC       PHASCHNG
000667: 14,2743           05024                           OCT      05024
000668: 14,2744           13000                           OCT      13000
000669: 14,2745           06036                           TC       INTPRET
000670: 14,2746           45145                           DLOAD    CALL
000671: 14,2747           03560                                    TSIGHT
000672: 14,2750           32540                                    PLANET
000673: 14,2751           53521                           MXV      UNIT
000674: 14,2752           01734                                    REFSMMAT
000675: 14,2753           26715                           STOVL    STARAD     +6
000676: 14,2754           03552                                    PLANVEC
000677: 14,2755           53521                           MXV      UNIT
000678: 14,2756           01734                                    REFSMMAT
000679: 14,2757           26707                           STOVL    STARAD
000680: 14,2760           02761                                    STARSAV1
000681: 14,2761           24007                           STOVL    6D
000682: 14,2762           02767                                    STARSAV2
000683: 14,2763           34015                           STCALL   12D
000684: 14,2764           31121                                    R54                                   #  STAR DATA TEST
000685: 14,2765           45014                           BOFF     CALL
000686: 14,2766           00354                                    FREEFLAG
000687: 14,2767           30775                                    R51K
000688: 14,2770           47345                                    AXISGEN
000689: 14,2771           77624                           CALL
000690: 14,2772           31066                                    R55                                   #  GYRO TORQUE
000691: 14,2773           77614                           CLEAR
000692: 14,2774           01273                                    PFRATFLG
000693: 14,2775           77776        R51K               EXIT
000694: 14,2776           35742        R51P63             CAF      OCT14
000695: 14,2777           04616                           TC       BANKCALL
000696: 14,3000           20476                           CADR     GOPERF1
000697: 14,3001           06001                           TC       GOTOPOOH
000698: 14,3002           02661                           TC       R51C
000699: 14,3003           06036                           TC       INTPRET
000700: 14,3004           77650                           GOTO
000701: 14,3005           02746                                    QMAJ
000702: 14,3006           06036        R51.4              TC       INTPRET
000703: 14,3007           77775                           VLOAD
000704: 14,3010           02715                                    STARAD     +6
000705: 14,3011           02761                           STORE    STARSAV1
000706: 14,3012           45145                           DLOAD    CALL
000707:


000709: 14,3013           03560                                    TSIGHT
000710: 14,3014           32540                                    PLANET
000711: 14,3015           03552                           STORE    PLANVEC
000712: 14,3016           77731                           SSP
000713: 14,3017           02760                                    STARIND
000714: 14,3020           00001                                    1
000715: 14,3021           77650                           GOTO
000716: 14,3022           30715                                    R51.3
000717: 14,3023           00002 06240  TSIGHT1            2DEC     36000      B-28                       #  6 MIN TO MARKING
000718:


000720:                                                                                                  #  GYRO TORQUE COARSE ALIGNMENT
000721: 14,3025           45020        GYCOARS            STQ      CALL
000722: 14,3026           02746                                    QMAJ
000723: 14,3027           47151                                    CALCGTA
000724: 14,3030           43014                           CLEAR    CLEAR
000725: 14,3031           01260                                    DRIFTFLG
000726: 14,3032           01662                                    REFSMFLG
000727: 14,3033           77776                           EXIT
000728: 14,3034           33065                           CAF      V16N20                                #  MONITOR GIMBALS
000729: 14,3035           04616                           TC       BANKCALL
000730: 14,3036           20327                           CADR     GODSPR
000731: 14,3037           33120                           CA       R55CDR
000732: 14,3040           04616                           TC       BANKCALL
000733: 14,3041           17276                           CADR     IMUPULSE
000734: 14,3042           04616                           TC       BANKCALL
000735: 14,3043           17671                           CADR     IMUSTALL
000736: 14,3044           05703                           TC       CURTAINS
000737: 14,3045           05353                           TC       PHASCHNG
000738: 14,3046           05024                           OCT      05024
000739: 14,3047           13000                           OCT      13000
000740: 14,3050           06036                           TC       INTPRET
000741: 14,3051           75160                           AXC,1    AXC,2
000742: 14,3052           03604                                    XSMD
000743: 14,3053           01733                                    REFSMMAT
000744: 14,3054           77624                           CALL                                           #  STORE DESIRED REFSMMAT
000745: 14,3055           31237                                    MATMOVE
000746: 14,3056           43014                           CLEAR    SET
000747: 14,3057           01273                                    PFRATFLG
000748: 14,3060           01462                                    REFSMFLG
000749: 14,3061           77624                           CALL
000750: 14,3062           31523                                    NCOARSE                               #  SET DRIFT AND INITIALIZE 1/PIPADT
000751: 14,3063           77650                           GOTO
000752: 14,3064           30775                                    R51K
000753: 14,3065           04024        V16N20             VN       1620
000754:


000756:                                                                                                  #  R55  GYRO TORQUE
000757:                                                                                                  #  FUNCTION-COMPUTE AND SEND GYRO PULSES
000758:                                                                                                  #  CALLING SEQ- CALL R55
000759:                                                                                                  #  INPUT- X,Y,ZDC- REFSMMAT WRT PRESENT STABLE MEMBER
000760:                                                                                                  #  OUTPUT- GYRO PULSES
000761:                                                                                                  #  SUBROUTINES- CALCGTA,GOFLASH,GODSPR,IMUFINE, IMUPULSE,GOPERF1
000762: 14,3066                                           COUNT*   $$/R55
000763: 14,3066           77620        R55                STQ
000764: 14,3067           02745                                    QMIN
000765: 14,3070           77624                           CALL
000766: 14,3071           47151                                    CALCGTA
000767: 14,3072           77776        PULSEM             EXIT
000768: 14,3073           33117        R55.1              CAF      V06N93
000769: 14,3074           04616                           TC       BANKCALL
000770: 14,3075           20351                           CADR     GOFLASH
000771: 14,3076           06001                           TC       GOTOPOOH
000772: 14,3077           03101                           TC       R55.2
000773: 14,3100           03114                           TC       R55RET
000774: 14,3101           05353        R55.2              TC       PHASCHNG
000775: 14,3102           00214                           OCT      00214
000776: 14,3103           33120                           CA       R55CDR
000777: 14,3104           04616                           TC       BANKCALL
000778: 14,3105           17276                           CADR     IMUPULSE
000779: 14,3106           04616                           TC       BANKCALL
000780: 14,3107           17671                           CADR     IMUSTALL
000781: 14,3110           05703                           TC       CURTAINS
000782: 14,3111           05353                           TC       PHASCHNG
000783: 14,3112           05024                           OCT      05024
000784: 14,3113           13000                           OCT      13000
000785: 14,3114           06036        R55RET             TC       INTPRET
000786: 14,3115           77650                           GOTO
000787: 14,3116           02745                                    QMIN
000788: 14,3117           01535        V06N93             VN       0693
000789: 14,3120           02737        R55CDR             ECADR    OGC
000790: 14,3121  14,3121               R54                =        CHKSDATA
000791:                                                                                                  #  ROUTINE NAME- CHKSDATA                                                                 DATE- JAN 9, 1967
000792:                                                                                                  #  MOD NO- 0                                                                              LOG SECTION- P51-P53
000793:                                                                                                  #  MODIFICATION BY- LONSKE                                                                ASSEMBLY-
000794:
000795:                                                                                                  #  FUNCTIONAL DESCRIPTION - CHECKS THE VALIDITY OF A PAIR OF STAR SIGHTINGS. WHEN A PAIR OF STAR SIGHTINGS ARE MADE
000796:                                                                                                  #  BY THE ASTRONAUT THIS ROUTINE OPERATES AND CHECKS THE OBSERVED SIGHTINGS AGAINST STORED STAR VECTORS IN THE
000797:                                                                                                  #  COMPUTER TO INSURE A PROPER SIGHTING WAS MADE. THE FOLLOWING COMPUTATIONS ARE PERFORMED_
000798:
000799:                                                                                                  #                  OS1 = OBSERVED STAR 1 VECTOR
000800:                                                                                                  #                  OS2 = OBSERVED STAR 2 VECTOR
000801:                                                                                                  #                  SS1 = STORED STAR 1 VECTOR
000802:                                                                                                  #                  SS2 = STORED STAR 2 VECTOR
000803:                                                                                                  #                  A1  = ARCCOS(OS1 - OS2)
000804:                                                                                                  #                  A2  = ARCCOS(SS1 - SS2)
000805:                                                                                                  #                  A   = ABS(2(A1 - A2))
000806:


000808:                                                                                                  #  THE ANGULAR DIFFERENCE IS DISPLAYED FOR ASTRONAUT ACCEPTENCE
000809:                                                                                                  #  EXIT MODE 1. FREEFLAG SET  IMPLIES  ASTRONAUT WANTS TO PROCEED
000810:                                                                                                  #            2. FREEFLAG RESET IMPLIES ASTRONAUT WANTS TO RECYCLE          ERANCE)
000811:                                                                                                  #  OUTPUT - 1.VERB 6,NOUN 3- DISPLAYS ANGULAR DIFFERENCE BETWEEN 2 SETS OF STARS.
000812:                                                                                                  #           2.STAR VECTORS FROM STAR CATALOG ARE LEFT IN 6D AND 12D.
000813:
000814:                                                                                                  #  ERASABLE INITIALIZATION REQUIRED -
000815:                                                                                                  #           1.MARK VECTORS ARE STORED IN STARAD AND STARAD +6.
000816:                                                                                                  #           2.CATALOG VECTORS ARE STORED IN 6D AND 12D.
000817:                                                                                                  #  DEBRIS -
000818: 14,3121                                           COUNT*   $$/R54
000819: 14,3121           43020        CHKSDATA           STQ      SET
000820: 14,3122           02745                                    QMIN
000821: 14,3123           00074                                    FREEFLAG
000822: 14,3124           77760        CHKSAB             AXC,1                                          #  SET X1 TO STORE EPHEMERIS DATA
000823: 14,3125           02706                                    STARAD
000824:
000825: 14,3126           47773        CHKSB              VLOAD*   DOT*                                  #  CAL. ANGLE THETA
000826: 14,3127           00001                                    0,1
000827: 14,3130           00007                                    6,1
000828: 14,3131           65552                           SL1      ACOS
000829: 14,3132           00025                           STORE    THETA
000830: 14,3133           43014                           BOFF     INVERT                                #  BRANCH TO CHKSD IF THIS IS 2ND PASS
000831: 14,3134           00354                                    FREEFLAG
000832: 14,3135           31145                                    CHKSD
000833: 14,3136           00174                                    FREEFLAG                              #  CLEAR FREEFLAG
000834: 14,3137           71360                           AXC,1    DLOAD                                 #  SET X1 TO MARK ANGLES
000835: 14,3140           00006                                    6D
000836: 14,3141           00025                                    THETA
000837: 14,3142           00023                           STORE    18D
000838: 14,3143           77650                           GOTO
000839: 14,3144           31126                                    CHKSB                                 #  RETURN TO CAL. 2ND ANGLE
000840: 14,3145           45345        CHKSD              DLOAD    DSU
000841: 14,3146           00025                                    THETA
000842: 14,3147           00023                                    18D
000843: 14,3150           47046                           ABS      RTB                                   #  COMPUTE POS DIFF
000844: 14,3151           21516                                    SGNAGREE
000845: 14,3152           01046                           STORE    NORMTEM1
000846: 14,3153           77414                           SET      EXIT
000847: 14,3154           00074                                    FREEFLAG
000848: 14,3155           33171                           CAF      VB6N5
000849: 14,3156           04616                           TC       BANKCALL
000850: 14,3157           20351                           CADR     GOFLASH
000851: 14,3160           16001                           TCF      GOTOPOOH
000852: 14,3161           03166                           TC       CHKSDA                                #  PROCEED
000853: 14,3162           06036                           TC       INTPRET
000854: 14,3163           52014                           CLEAR    GOTO
000855: 14,3164           00274                                    FREEFLAG
000856: 14,3165           02745                                    QMIN
000857: 14,3166           06036        CHKSDA             TC       INTPRET
000858:


000860: 14,3167           77650                           GOTO
000861: 14,3170           02745                                    QMIN
000862: 14,3171           01405        VB6N5              VN       605
000863:                                                                                                  #  NAME - CAL53A
000864:                                                                                                  #  FUNCTION -COMPUTE DESIRED GIMBAL ANGLES AND COARSE ALIGN IF NECESSARY
000865:                                                                                                  #  CALLING SEQUENCE - CALL CAL53A
000866:                                                                                                  #  INPUT - X,Y,ZSMD ,CDUX,Y,Z
000867:                                                                                                  #          DESIRED GIMBAL ANGLES - THETAD,+1,+2
000868:                                                                                                  #  OUTPUT - THE IMU COORDINATES ARE STORED IN REFSMMAT
000869:                                                                                                  #  SUBROUTINES - S52.2, IMUCOARSE , IMUFINE
000870: 14,3172                                           COUNT*   $$/R50
000871: 14,3172           45020        CAL53A             STQ      CALL
000872: 14,3173           00035                                    29D
000873: 14,3174           31534                                    S52.2                                 #  MAKE ONE FINAL COMP OF GIMBLE ANGLES
000874: 14,3175           66234                           RTB      SSP
000875: 14,3176           31253                                    RDCDUS                                #  READ CDUS
000876: 14,3177           00051                                    S1
000877: 14,3200           00001                                    1
000878: 14,3201           40370                           AXT,1    SETPD
000879: 14,3202           00003                                    3
000880: 14,3203           00005                                    4
000881: 14,3204           70543        CALOOP             DLOAD*   SR1
000882: 14,3205           00325                                    THETAD     +3D,1
000883: 14,3206           70523                           PDDL*    SR1
000884: 14,3207           00005                                    4,1
000885: 14,3210           51425                           DSU      ABS
000886: 14,3211           45206                           PUSH     DSU
000887: 14,3212           31252                                    DEGREE1
000888: 14,3213           71240                           BMN      DLOAD
000889: 14,3214           31226                                    CALOOP1
000890: 14,3215           51025                           DSU      BPL
000891: 14,3216           31253                                    DEG359
000892: 14,3217           31226                                    CALOOP1
000893: 14,3220           77624        COARFINE           CALL
000894: 14,3221           31506                                    COARSE
000895: 14,3222           77624                           CALL
000896: 14,3223           31523                                    NCOARSE
000897: 14,3224           77650                           GOTO
000898: 14,3225           31230                                    FINEONLY
000899: 14,3226           77700        CALOOP1            TIX,1
000900: 14,3227           31204                                    CALOOP
000901: 14,3230           75160        FINEONLY           AXC,1    AXC,2
000902: 14,3231           02642                                    XSM
000903: 14,3232           01733                                    REFSMMAT
000904: 14,3233           77624                           CALL
000905: 14,3234           31237                                    MATMOVE
000906: 14,3235           77650                           GOTO
000907: 14,3236           00035                                    29D
000908: 14,3237           77773        MATMOVE            VLOAD*                                         #  TRANSFER MATRIX
000909: 14,3240           00001                                    0,1
000910:


000912: 14,3241           10001                           STORE    0,2
000913: 14,3242           77773                           VLOAD*
000914: 14,3243           00007                                    6D,1
000915: 14,3244           10007                           STORE    6D,2
000916: 14,3245           77773                           VLOAD*
000917: 14,3246           00015                                    12D,1
000918: 14,3247           10015                           STORE    12D,2
000919: 14,3250           77616                           RVQ
000920: 14,3251           00056        DEGREE1            DEC      46         B-14                       #  1 DEG SCALED CDU/2
000921: 14,3252           37722        DEG359             DEC      16338      B-14                       #  359 DEG SCALED CDU/2
000922: 14,3253           00004        RDCDUS             INHINT                                         #  READ CDUS
000923: 14,3254           30032                           CA       CDUX
000924: 14,3255           50120                           INDEX    FIXLOC
000925: 14,3256           54001                           TS       1
000926: 14,3257           30033                           CA       CDUY
000927: 14,3260           50120                           INDEX    FIXLOC
000928: 14,3261           54002                           TS       2
000929: 14,3262           30034                           CA       CDUZ
000930: 14,3263           50120                           INDEX    FIXLOC
000931: 14,3264           54003                           TS       3
000932: 14,3265           00003                           RELINT
000933: 14,3266           06060                           TC       DANZIG                                #                                        +
000934: 14,3267                                           COUNT*   $$/INFLT
000935: 14,3267           77760        CALCSMSC           AXC,1
000936: 14,3270           02664                                    XNB
000937:
000938: 14,3271           41345        XNBNDX             DLOAD    DMP
000939: 14,3272           00737                                    SINCDUY
000940: 14,3273           00747                                    COSCDUZ
000941: 14,3274           77676                           DCOMP
000942: 14,3275           70525                           PDDL     SR1
000943: 14,3276           00741                                    SINCDUZ
000944: 14,3277           41325                           PDDL     DMP
000945: 14,3300           00745                                    COSCDUY
000946: 14,3301           00747                                    COSCDUZ
000947: 14,3302           76466                           VDEF     VSL1
000948: 14,3303           04001                           STORE    0,1
000949: 14,3304           41345                           DLOAD    DMP
000950: 14,3305           00743                                    SINCDUX
000951: 14,3306           00741                                    SINCDUZ
000952: 14,3307           77752                           SL1
000953: 14,3310           00033                           STORE    26D
000954: 14,3311           77605                           DMP
000955: 14,3312           00737                                    SINCDUY
000956: 14,3313           41325                           PDDL     DMP
000957: 14,3314           00751                                    COSCDUX
000958: 14,3315           00745                                    COSCDUY
000959: 14,3316           77625                           DSU
000960: 14,3317           41325                           PDDL     DMP
000961: 14,3320           00743                                    SINCDUX
000962:


000964: 14,3321           00747                                    COSCDUZ
000965: 14,3322           77676                           DCOMP
000966: 14,3323           41325                           PDDL     DMP
000967: 14,3324           00751                                    COSCDUX
000968: 14,3325           00737                                    SINCDUY
000969: 14,3326           41325                           PDDL     DMP
000970: 14,3327           00745                                    COSCDUY
000971: 14,3330           00033                                    26D
000972: 14,3331           55415                           DAD      VDEF
000973: 14,3332           77772                           VSL1
000974: 14,3333           04015                           STORE    14,1
000975: 14,3334           76433                           VXV*     VSL1
000976: 14,3335           00001                                    0,1
000977: 14,3336           04007                           STORE    6,1
000978: 14,3337           77616                           RVQ
000979:


000981:                                                                                                  #  NAME - P51 - IMU ORIENTATION DETERMINATION
000982:                                                                                                  #           MOD.NO.1  23 JAN 67                                                             LOG SECTION - P51-P53
000983:                                                                                                  #  MOD BY STURLAUGSON                                                                      ASSEMBLY SUNDANCE REV56
000984:
000985:                                                                                                  #  FUNCTIONAL DESCRIPTION
000986:
000987:                                                                                                  #       DETERMINES THE INERTIAL ORIENTATION OF THE IMU. THE PROGRAM IS SELECTED BY DSKY ENTRY. THE SIGHTING
000988:                                                                                                  #  (AOTMARK)ROUTINE IS CALLED TO COLLECT AND PROCESS MARKED-STAR DATA. AOTMARK(R53) RETURNS THE STAR NUMBER AND THE
000989:                                                                                                  #  STAR LOS VECTOR IN STARAD+6. TWO STARS ARE THUS SIGHTED. THE ANGLE BETWEEN THE TWO STARS IS THEN CHECKED AT
000990:                                                                                                  #  CHKSDATA(R54). REFSMMAT IS THEN COMPUTED AT AXISGEN.
000991:
000992:                                                                                                  #  CALLING SEQUENCE
000993:
000994:                                                                                                  #    THE PROGRAM IS CALLED BY THE ASTRONAUT BY DSKY ENTRY.
000995:
000996:                                                                                                  #  SUBROUTINES CALLED.
000997:
000998:                                                                                                  #       GOPERF3
000999:                                                                                                  #       GOPERF1
001000:                                                                                                  #       GODSPR
001001:                                                                                                  #       IMUCOARS
001002:                                                                                                  #       IMUFIN20
001003:                                                                                                  #       AOTMARK(R53)
001004:                                                                                                  #       CHKSDATA(R54)
001005:                                                                                                  #       MKRELEAS
001006:                                                                                                  #       AXISGEN
001007:                                                                                                  #       MATMOVE
001008:
001009:                                                                                                  #  ALARMS
001010:
001011:                                                                                                  #       NONE.
001012:
001013:                                                                                                  #  ERASABLE INITIALIZATION
001014:
001015:                                                                                                  #       IMU ZERO FLAG SHOULD BE SET.
001016:
001017:                                                                                                  #  OUTPUT
001018:
001019:                                                                                                  #       REFSMMAT
001020:                                                                                                  #       REFSMFLG
001021:
001022:                                                                                                  #  DEBRIS
001023:
001024:                                                                                                  #       WORK AREA
001025:                                                                                                  #       STARAD
001026:                                                                                                  #       STARIND
001027:                                                                                                  #       BESTI
001028:                                                                                                  #       BESTJ
001029:
001030: 14,3340                                           COUNT*   $$/P51


001032: 14,3340           04616        P51                TC       BANKCALL                              #  IS ISS ON - IF NOT, IMUCHK WILL SEND
001033: 14,3341           33635                           CADR     IMUCHK                                #  ALARM CODE 210 AND EXIT VIA GOTOPOOH.
001034:
001035: 14,3342           34761                           CAF      PRFMSTAQ
001036: 14,3343           04616                           TC       BANKCALL
001037: 14,3344           20476                           CADR     GOPERF1
001038: 14,3345           06001                           TC       GOTOPOOH                              #  TERM.
001039: 14,3346           13374                           TCF      P51B                                  #  V33
001040: 14,3347           05353                           TC       PHASCHNG
001041: 14,3350           05024                           OCT      05024
001042: 14,3351           13000                           OCT      13000
001043: 14,3352           34755                           CAF      P51ZERO
001044: 14,3353           54321                           TS       THETAD                                #  ZERO THE GIMBALS
001045: 14,3354           54322                           TS       THETAD     +1
001046: 14,3355           54323                           TS       THETAD     +2
001047: 14,3356           33504                           CAF      V6N22
001048: 14,3357           04616                           TC       BANKCALL
001049: 14,3360           20324                           CADR     GODSPRET
001050: 14,3361           33505                           CAF      V41K                                  #  NOW DISPLAY COARSE ALIGN VERB 41
001051: 14,3362           04616                           TC       BANKCALL
001052: 14,3363           20324                           CADR     GODSPRET
001053: 14,3364           06036                           TC       INTPRET
001054: 14,3365           77624                           CALL
001055: 14,3366           31506                                    COARSE
001056: 14,3367           77776                           EXIT
001057: 14,3370           05353                           TC       PHASCHNG
001058: 14,3371           05024                           OCT      05024
001059: 14,3372           13000                           OCT      13000
001060: 14,3373           13342                           TCF      P51        +2
001061:
001062: 14,3374           05353        P51B               TC       PHASCHNG
001063: 14,3375           00014                           OCT      00014
001064: 14,3376           06036                           TC       INTPRET
001065: 14,3377           77624                           CALL
001066: 14,3400           31523                                    NCOARSE
001067: 14,3401           40331                           SSP      SETPD
001068: 14,3402           02760                                    STARIND                               #  INDEX-STAR 1 OR 2
001069: 14,3403           00000                                    0
001070: 14,3404           00001                                    0
001071: 14,3405           77776        P51C               EXIT
001072: 14,3406           05353                           TC       PHASCHNG
001073: 14,3407           05024                           OCT      05024
001074: 14,3410           13000                           OCT      13000
001075: 14,3411           04616                           TC       BANKCALL
001076: 14,3412           16000                           CADR     AOTMARK                               #  R53
001077: 14,3413           04616                           TC       BANKCALL
001078: 14,3414           17665                           CADR     AOTSTALL
001079: 14,3415           05703                           TC       CURTAINS
001080: 14,3416           11757                           CCS      STARIND
001081: 14,3417           13425                           TCF      P51D       +1
001082:


001084: 14,3420           06036                           TC       INTPRET
001085: 14,3421           77775                           VLOAD
001086: 14,3422           02715                                    STARAD     +6
001087: 14,3423           02761                           STORE    STARSAV1
001088: 14,3424           77776        P51D               EXIT
001089: 14,3425           05353                           TC       PHASCHNG
001090: 14,3426           05024                           OCT      05024
001091: 14,3427           13000                           OCT      13000
001092: 14,3430           11757                           CCS      STARIND
001093: 14,3431           13446                           TCF      P51E
001094: 14,3432           05353                           TC       PHASCHNG
001095: 14,3433           05024                           OCT      05024
001096: 14,3434           13000                           OCT      13000
001097: 14,3435           06036                           TC       INTPRET
001098: 14,3436           45145                           DLOAD    CALL
001099: 14,3437           03560                                    TSIGHT
001100: 14,3440           32540                                    PLANET
001101: 14,3441           03552                           STORE    PLANVEC
001102: 14,3442           77776                           EXIT
001103: 14,3443           34753                           CAF      BIT1
001104: 14,3444           55757                           TS       STARIND
001105: 14,3445           13406                           TCF      P51C       +1                         #  DO SECOND STAR
001106: 14,3446           05353        P51E               TC       PHASCHNG
001107: 14,3447           05024                           OCT      05024
001108: 14,3450           13000                           OCT      13000
001109: 14,3451           06036                           TC       INTPRET
001110: 14,3452           45145                           DLOAD    CALL
001111: 14,3453           03560                                    TSIGHT
001112: 14,3454           32540                                    PLANET
001113: 14,3455           24015                           STOVL    12D
001114: 14,3456           03552                                    PLANVEC
001115: 14,3457           24007                           STOVL    6D
001116: 14,3460           02761                                    STARSAV1
001117: 14,3461           26707                           STOVL    STARAD
001118: 14,3462           02767                                    STARSAV2
001119: 14,3463           36715                           STCALL   STARAD     +6
001120: 14,3464           31121                                    CHKSDATA                              #  CHECK STAR ANGLES IN STARAD AND
001121: 14,3465           77414                           BON      EXIT
001122: 14,3466           00314                                    FREEFLAG
001123: 14,3467           31471                                    P51G
001124: 14,3470           03342                           TC       P51        +2
001125: 14,3471           77624        P51G               CALL
001126: 14,3472           47345                                    AXISGEN                               #  COME BACK WITH REFSMMAT IN XDC
001127: 14,3473           75160                           AXC,1    AXC,2
001128: 14,3474           02664                                    XDC
001129: 14,3475           01733                                    REFSMMAT
001130: 14,3476           77624                           CALL
001131: 14,3477           31237                                    MATMOVE
001132: 14,3500           77614                           SET
001133: 14,3501           01462                                    REFSMFLG
001134:


001136: 14,3502           77776                           EXIT
001137: 14,3503           06001                           TC       GOTOPOOH                              #  FINIS
001138: 14,3504     4761               PRFMSTAQ           =        OCT15
001139: 14,3504     4755               P51ZERO            =        ZERO
001140: 14,3504     4756               P51FIVE            =        FIVE
001141: 14,3504           01426        V6N22              VN       0622
001142: 14,3505           12200        V41K               VN       4100
001143: 14,3506           77776        COARSE             EXIT
001144: 14,3507           04616                           TC       BANKCALL
001145: 14,3510           16753                           CADR     IMUCOARS
001146: 14,3511           04616                           TC       BANKCALL
001147: 14,3512           17671                           CADR     IMUSTALL
001148: 14,3513           05703                           TC       CURTAINS
001149: 14,3514           04616                           TC       BANKCALL
001150: 14,3515           17163                           CADR     IMUFINE
001151: 14,3516           04616                           TC       BANKCALL
001152: 14,3517           17671                           CADR     IMUSTALL
001153: 14,3520           05703                           TC       CURTAINS
001154: 14,3521           06036                           TC       INTPRET
001155: 14,3522           77616                           RVQ
001156: 14,3523           77776        NCOARSE            EXIT
001157: 14,3524           30025                           CA       TIME1
001158: 14,3525           55075                           TS       1/PIPADT
001159: 14,3526           06036                           TC       INTPRET
001160: 14,3527           77775                           VLOAD
001161: 14,3530           22275                                    ZEROVEC
001162: 14,3531           01472                           STORE    GCOMP
001163: 14,3532           43414                           SET      RVQ
001164: 14,3533           01060                                    DRIFTFLG
001165:


001167:                                                                                                  #  NAME-S52.2
001168:                                                                                                  #  FUNCTION-COMPUTE GIMBAL ANGLES FOR DESIRED SM AND PRESENT VEHICLE
001169:                                                                                                  #  CALL-  CALL  S52.2
001170:                                                                                                  #  INPUT- X,Y,ZSMD
001171:                                                                                                  #  OUTPUT- OGC,IGC,MGC,THETAD,+1,+2
001172:                                                                                                  #  SUBROUTINES-CDUTRIG,CALCSMSC,MATMOVE,CALCGA
001173: 14,3534                                           COUNT*   $$/S52.1
001174: 14,3534           77620        S52.2              STQ
001175: 14,3535           02746                                    QMAJ
001176: 14,3536           77624                           CALL
001177: 14,3537           47443                                    CDUTRIG
001178: 14,3540           77624                           CALL
001179: 14,3541           31267                                    CALCSMSC
001180: 14,3542           66370                           AXT,1    SSP
001181: 14,3543           00022                                    18D
001182: 14,3544           00051                                    S1
001183: 14,3545           00006                                    6D
001184: 14,3546           61373        S52.2A             VLOAD*   VXM
001185: 14,3547           02707                                    XNB        +18D,1
001186: 14,3550           01734                                    REFSMMAT
001187: 14,3551           77656                           UNIT
001188: 14,3552           06707                           STORE    XNB        +18D,1
001189: 14,3553           77700                           TIX,1
001190: 14,3554           31546                                    S52.2A
001191: 14,3555           75160        S52.2.1            AXC,1    AXC,2
001192: 14,3556           03604                                    XSMD
001193: 14,3557           02642                                    XSM
001194: 14,3560           77624                           CALL
001195: 14,3561           31237                                    MATMOVE
001196: 14,3562           77624                           CALL
001197: 14,3563           47255                                    CALCGA
001198: 14,3564           77650                           GOTO
001199: 14,3565           02746                                    QMAJ
001200:


001202:                                                                                                  #  NAME-S52.3
001203:                                                                                                  #  FUNCTION  XSMD= UNIT R
001204:                                                                                                  #            YSMD= UNIT(V X R)
001205:                                                                                                  #            ZSMD= UNIT(XSMD X YSMD)
001206:                                                                                                  #  CALL     DLOAD  CALL
001207:                                                                                                  #                  TALIGN
001208:                                                                                                  #                  S52.3
001209:                                                                                                  #  INPUT-   TIME OF ALIGNMENT IN MPAC
001210:                                                                                                  #  OUTPUT-  X,Y,ZSMD
001211:                                                                                                  #  SUBROUTINES- CSMCONIC
001212: 14,3566                                           COUNT*   $$/S52.3
001213: 14,3566           77620        S52.3              STQ
001214: 14,3567           02746                                    QMAJ
001215: 14,3570           34041                           STCALL   TDEC1
001216: 14,3571           27100                                    LEMCONIC
001217: 14,3572           77601                           SETPD
001218: 14,3573           00001                                    0
001219: 14,3574           53575                           VLOAD    UNIT
001220: 14,3575           00001                                    RATT
001221: 14,3576           27605                           STOVL    XSMD
001222: 14,3577           00007                                    VATT
001223: 14,3600           53435                           VXV      UNIT
001224: 14,3601           00001                                    RATT
001225: 14,3602           27613                           STOVL    YSMD
001226: 14,3603           03605                                    XSMD
001227: 14,3604           53435                           VXV      UNIT
001228: 14,3605           03613                                    YSMD
001229: 14,3606           37621                           STCALL   ZSMD
001230: 14,3607           02746                                    QMAJ
001231:


001233:                                                                                                  #  NAME    -R52 (AUTOMATIC OPTICS POSITIONING ROUTINE)
001234:
001235:                                                                                                  #  FUNCTION-POINT THE AOT OPTIC AXIS BY MANEUVERING THE LEM TO A NAVIGATION
001236:                                                                                                  #           STAR SELECTED BY ALIGNMENT PROGRAMS OR DSKY INPUT
001237:
001238:                                                                                                  #  CALLING -CALL R52
001239:
001240:                                                                                                  #  INPUT   -BESTI AND BESTJ (STAR CODES TIMES 6)
001241:                                                                                                  #  OUTPUT  -STAR CODE IN BITS1-6, DETENT CODE IN BITS 7-9
001242:                                                                                                  #           (NO CHECK IS MADE TO INSURE THE DETENT  CODE TO BE VALID)
001243:                                                                                                  #           POINTVSM-1/2 UNIT NAV STAR VEC IN SM
001244:                                                                                                  #           SCAXIS-AOT OPTIC AXIS VEC IN NB X-Z PLANE
001245:
001246:                                                                                                  #  SUBROUT -R60LEM
001247:
001248: 14,3610                                           COUNT*   $$/R52
001249: 14,3610           77420        R52                STQ      EXIT
001250: 14,3611           03663                                    SAVQR52
001251: 14,3612           51757                           INDEX    STARIND
001252: 14,3613           31755                           CA       BESTI                                 #  PICK UP STARCODE DETERMINED BY R56
001253: 14,3614           00006                           EXTEND
001254: 14,3615           73706                           MP       1/6TH
001255: 14,3616           64744                           AD       BIT8                                  #  SET DETENT POSITION 2
001256: 14,3617           54735                           TS       STARCODE                              #  SCALE AND STORE IN STARCODE
001257:
001258: 14,3620           33707        R52A               CAF      V01N70
001259: 14,3621           04616                           TC       BANKCALL
001260: 14,3622           20351                           CADR     GOFLASH                               #  DISPLAY STARCODE AND WAIT FOR RESPONSE
001261: 14,3623           06001                           TC       GOTOPOOH                              #  V34-TERMINATE
001262: 14,3624           13626                           TCF      R52B                                  #  V33-PROCEED TO ORIENT LEM
001263: 14,3625           13620                           TCF      R52A                                  #  ENTER-SELECT NEW STARCODE-RECYCLE
001264:
001265: 14,3626           05516        R52B               TC       DOWNFLAG
001266: 14,3627           00124                           ADRES    3AXISFLG                              #  BIT6 OF FLAGWRD5 ZERO TO ALLOW VECPOINT
001267: 14,3630           30735                           CA       STARCODE                              #  GRAB DETENT CODE
001268: 14,3631           77743                           MASK     HIGH9
001269: 14,3632           00006                           EXTEND
001270: 14,3633           63620                           BZMF     R52A                                  #  DONT ALLOW ZERO CODE-RECYCLE
001271: 14,3634           74743                           MASK     BIT9                                  #  SEE IF CODE 4 OR 5
001272: 14,3635           10000                           CCS      A
001273: 14,3636           13655                           TCF      GETAZEL                               #  CODE 4 OR 5-GET CALIBRATION AZ EL
001274: 14,3637  E7,1547                                  EBANK=   XYMARK
001275: 14,3637           35016                           CA       EBANK7
001276: 14,3640           54003                           TS       EBANK
001277: 14,3641           37743                           CAF      HIGH9                                 #  FORWARD DETENT, INDEX DETENT AND GRAB
001278: 14,3642           70735                           MASK     STARCODE                              #  AZIMUTH  ANGLE AND ELV = 45 DEG
001279: 14,3643           00006                           EXTEND
001280: 14,3644           74743                           MP       BIT9                                  #  SHIFT DETENT TO BITS1-2 FOR INDEX
001281: 14,3645           50000                           INDEX    A
001282: 14,3646           31403                           CA       AOTAZ      -1                         #  PICK UP AZ CORRESPONDING TO DETENT
001283:


001285: 14,3647           54001                           TS       L
001286: 14,3650  E5,1642                                  EBANK=   XSM
001287: 14,3650           35014                           CA       EBANK5                                #  CHANGE TO EBANK5 BUT DONT DISTURB L
001288: 14,3651           54003                           TS       EBANK
001289: 14,3652           34737                           CA       BIT13                                 #  SET ELV TO 45 DEG
001290: 14,3653           56001                           XCH      L                                     #  SET C(A)=AZ, C(L)=45 DEG
001291: 14,3654           13665                           TCF      AZEL                                  #  GO COMP OPTIC AXIS
001292:
001293: 14,3655           33710        GETAZEL            CAF      V06N87                                #  CODE 4 OR 5-GET AZ AND EL FROM ASTRO
001294: 14,3656           04616                           TC       BANKCALL
001295: 14,3657           20351                           CADR     GOFLASH
001296: 14,3660           06001                           TC       GOTOPOOH                              #  V34-TERMINATE
001297: 14,3661           13663                           TCF      +2                                    #  PROCEED-CALC OPTIC AXIS
001298: 14,3662           13655                           TCF      GETAZEL                               #  ENTER-RECYCLE
001299:
001300: 14,3663           00006                           EXTEND
001301: 14,3664           31350                           DCA      AZ                                    #  PICK UP AZ AND EL IN SP 2S COMP
001302: 14,3665           50120        AZEL               INDEX    FIXLOC                                #  JAM AZ AND EL IN 8 AND 9 OF VAC
001303: 14,3666           52011                           DXCH     8D
001304: 14,3667           06036                           TC       INTPRET
001305: 14,3670           77624                           CALL                                           #  GO COMPUTE OPTIC AXIS AND STORE IN
001306: 14,3671           13370                                    OANB                                  #  SCAXIS IN NB COORDS
001307: 14,3672           45034                           RTB      CALL
001308: 14,3673           21462                                    LOADTIME
001309: 14,3674           32540                                    PLANET
001310: 14,3675           53521                           MXV      UNIT
001311: 14,3676           01734                                    REFSMMAT
001312: 14,3677           03767                           STORE    POINTVSM                              #  STORE FOR VECPOINT
001313:
001314: 14,3700           77776                           EXIT
001315: 14,3701           04616                           TC       BANKCALL
001316: 14,3702           54101                           CADR     R60LEM                                #  GO TORQUE LEM OPTIC AXIS TO STAR LOS
001317:
001318: 14,3703           06036                           TC       INTPRET                               #  RETURN FROM KALCMANU
001319: 14,3704           77650                           GOTO
001320: 14,3705           03663                                    SAVQR52                               #  RETURN TO CALLER
001321:
001322: 14,3706           05253        1/6TH              DEC      .1666667
001323: 14,3707           00306        V01N70             VN       0170
001324: 14,3710           01527        V06N87             VN       687
001325:


001327:                                                                                                  #  LUNAR SURFACE STAR AQUISITION
001328:
001329: 15,2301                                           BANK     15
001330: 15,2000                                           SETLOC   P50S
001331: 15,2000                                           BANK
001332: 15,2301                                           COUNT*   $$/R59
001333:
001334: 15,2301           40077        R59                CS       FLAGWRD3
001335: 15,2302           74737                           MASK     REFSMBIT                              #  IF REFSMMAT FLAG CLEAR BYPASS STAR AQUIR
001336: 15,2303           10000                           CCS      A
001337: 15,2304           12523                           TCF      R59OUT                                #  NO REFSMMAT GO TO AOTMARK
001338:
001339: 15,2305           32531                           CAF      V01N70*                               #  SELECT STAR CODE FOR ACQUISITION
001340: 15,2306           04616                           TC       BANKCALL
001341: 15,2307           20351                           CADR     GOFLASH
001342: 15,2310           06001                           TC       GOTOPOOH                              #  V34-TERMINATE
001343: 15,2311           12313                           TCF      R59A                                  #  V33-PROCEED
001344: 15,2312           12301                           TCF      R59                                   #  V32-RECYCLE
001345:
001346: 15,2313           47743        R59A               CS       HIGH9                                 #  GRAB STARCODE FOR INDEX
001347: 15,2314           70735                           MASK     AOTCODE
001348: 15,2315           00006                           EXTEND
001349: 15,2316           76241                           MP       REVCNT                                #  JUST 6
001350: 15,2317           56001                           XCH      L
001351: 15,2320           51757                           INDEX    STARIND
001352: 15,2321           55755                           TS       BESTI
001353: 15,2322           50120                           INDEX    FIXLOC
001354: 15,2323           54046                           TS       X1                                    #  CODE X 6 FOR CATLOG STAR INDEX
001355: 15,2324           00006                           EXTEND
001356: 15,2325           12523                           BZF      R59OUT                                #  BYPASS AQUISITION IF NOT CATLOG STAR
001357: 15,2326           40000                           COM
001358: 15,2327           62625                           AD       DEC227
001359: 15,2330           00006                           EXTEND
001360: 15,2331           62523                           BZMF     R59OUT
001361:
001362: 15,2332           06036                           TC       INTPRET
001363: 15,2333           77624                           CALL
001364: 15,2334           47443                                    CDUTRIG                               #  GET CDU JAZZ FOR SMNB
001365: 15,2335           64373                           VLOAD*   MXV
001366: 15,2336           30347                                    CATLOG,1                              #  GRAB STAR VECTOR
001367: 15,2337           01734                                    REFSMMAT                              #  TRANSFORM TO SM
001368: 15,2340           45056                           UNIT     CALL
001369: 15,2341           47575                                    *SMNB*                                #  TRANSFORM TO NB
001370: 15,2342           02731                           STORE    STAR                                  #  TEMP STORE STAR VEC(NB)
001371: 15,2343           77776                           EXIT
001372:
001373: 15,2344           34753                           CAF      BIT1                                  #  INITIALIZE POS TO ONE
001374: 15,2345           55052                           TS       POSCODE
001375: 15,2346           42537                           CS       DEG60                                 #  AS(N) TO -60 DEG
001376: 15,2347           55745                           TS       QMIN
001377:


001379:
001380:
001381: 15,2350           54000        STORPOS            TS       A                                     #  DETECT OVF AZ = -120
001382: 15,2351           12354                           TCF      +3                                    #  NO OVF
001383: 15,2352           34735                           CAF      BIT15                                 #  OVF SKIP-ADD NEGMAX TO OVF CORRECT QMIN
001384: 15,2353           27745                           ADS      QMIN
001385: 15,2354           34737                           CAF      BIT13                                 #  ELV=45 DEG
001386: 15,2355           54001                           TS       L
001387: 15,2356           31745                           CA       QMIN
001388: 15,2357           50120                           INDEX    FIXLOC
001389: 15,2360           52011                           DXCH     8D                                    #  JAM AZ IN 8D, 45 DEG IN 9D FOR OANB
001390:
001391: 15,2361           06036                           TC       INTPRET
001392: 15,2362           77624                           CALL
001393: 15,2363           13370                                    OANB                                  #  GO CALC OPTIC AXIS WRT NB
001394: 15,2364           50375                           VLOAD    DOT
001395: 15,2365           02731                                    STAR                                  #  DOT STAR WITH OA
001396: 15,2366           03761                                    SCAXIS
001397: 15,2367           65552                           SL1      ARCCOS
001398: 15,2370           00031                           STORE    24D                                   #  TEMP STORE ARCCOS(STAR.OPTAXIS)
001399:
001400: 15,2371           51025                           DSU      BPL
001401: 15,2372           32534                                    DEG30                                 #  SEE IF STAR IN AOT FIELD-OF-VIEW
001402: 15,2373           32455                                    NXAX                                  #  NOT IN FIELD - TRY NEXT POSITION
001403: 15,2374           45345                           DLOAD    DSU                                   #  SEE IF STAR AT FIELD CENTER
001404: 15,2375           00031                                    24D
001405: 15,2376           32536                                    DEG.5
001406: 15,2377           71240                           BMN      DLOAD                                 #  CALC SPIRAL AND CURSOR
001407: 15,2400           32450                                    ZSPCR                                 #  GO ZERO CURSOR AND SPIRAL
001408: 15,2401           00031                                    24D                                   #  GET SPIRAL
001409: 15,2402           42405                           DMP      SL4
001410: 15,2403           23710                                    3/4                                   #  12 SCALED AT 16
001411: 15,2404           24031                           STOVL    24D                                   #  12(ARCCOS(AO.STAR)) SCALED IN REVS
001412:
001413: 15,2405           03761                                    SCAXIS                                #  OA
001414: 15,2406           53435                           VXV      UNIT
001415: 15,2407           22273                                    XUNIT
001416: 15,2410           47206                           PUSH     VXV                                   #   OA X UNITX   PD 0-5
001417: 15,2411           03761                                    SCAXIS
001418: 15,2412           77676                           VCOMP
001419: 15,2413           63256                           UNIT     PDVL                                  #  UNIT(OA X(OA X UNITX))  PD 6-11
001420: 15,2414           03761                                    SCAXIS
001421: 15,2415           53435                           VXV      UNIT
001422: 15,2416           02731                                    STAR
001423: 15,2417           50206                           PUSH     DOT                                   #  1/2(OA X STAR)   PD 12-17
001424: 15,2420           00001                                    0                                     #  DOT WITH 1/2(OA X UNITX)  FOR YROT
001425: 15,2421           65552                           SL1      ARCCOS
001426: 15,2422           24033                           STOVL    26D                                   #  STORE THET SCALED IN REVS
001427:
001428: 15,2423           77641                           DOT                                            #  UP 12-17, UP 6-11 FOR C2
001429: 15,2424           71244                           BPL      DLOAD                                 #  IF THET NEG-GET 360-THET
001430: 15,2425           32432                                    R59D
001431:


001433: 15,2426           32047                                    ABOUTONE
001434: 15,2427           77625                           DSU
001435: 15,2430           00033                                    26D
001436: 15,2431           00033                           STORE    26D                                   #  360-THET SCALED IN REVS
001437:
001438: 15,2432           70535        R59D               SLOAD    SR1
001439: 15,2433           02746                                    QMIN                                  #  RESCALE AZ(N) TO REVS
001440: 15,2434           41415                           DAD      PUSH                                  #  PUSH YROT + AZ(N) REVS
001441: 15,2435           00033                                    26D
001442: 15,2436           77634                           RTB
001443: 15,2437           21520                                    1STO2S
001444: 15,2440           15046                           STODL    CURSOR                                #  YROT IN 1/2 REVS
001445: 15,2441           00031                                    24D                                   #  LOAD SROT IN REVS
001446: 15,2442           77615                           DAD                                            #  12(SEP) + YROT
001447: 15,2443           77634                           RTB
001448: 15,2444           21520                                    1STO2S
001449: 15,2445           01047                           STORE    SPIRAL                                #  SROT IN 1/2 REVS
001450: 15,2446           77776                           EXIT
001451: 15,2447           12476                           TCF      79DISP                                #  GO DISPLAY CURSOR-SPIRAL-POS CODE
001452:
001453: 15,2450           77776        ZSPCR              EXIT
001454: 15,2451           34755                           CAF      ZERO                                  #  STAR ALMOST OPTIC AXIS,ZERO CURSOR
001455: 15,2452           55045                           TS       CURSOR                                #  AND SPIRAL ANGLES
001456: 15,2453           55046                           TS       SPIRAL
001457: 15,2454           12476                           TCF      79DISP
001458:
001459: 15,2455           77776        NXAX               EXIT
001460: 15,2456           25052                           INCR     POSCODE
001461: 15,2457           41052                           CS       POSCODE
001462: 15,2460           64757                           AD       SEVEN
001463: 15,2461           00006                           EXTEND
001464: 15,2462           62466                           BZMF     R59ALM                                #  THIS STAR NOT AT ANY POSITION
001465: 15,2463           32537                           CAF      DEG60                                 #  ADVANCE AZ(N) BY 60 DEG
001466: 15,2464           27745                           ADS      QMIN                                  #  IF OVF, QMIN CONTAINS OVF CORRECTED
001467: 15,2465           12350                           TCF      STORPOS
001468: 15,2466           05567        R59ALM             TC       ALARM                                 #  THIS STAR CANT BE LOCATED IN AOT FIELD
001469: 15,2467           00404                           OCT      404
001470: 15,2470           35006                           CAF      VB05N09                               #  DISPLAY ALARM
001471: 15,2471           04616                           TC       BANKCALL
001472: 15,2472           20351                           CADR     GOFLASH
001473: 15,2473           16001                           TCF      GOTOPOOH                              #  VB34-TERMINATE
001474: 15,2474           12523                           TCF      R59OUT                                #  VB33-PROCEED, GO WITHOUT AQUIRE
001475: 15,2475           12301                           TCF      R59                                   #  VB32-RECYCLE AND TRY ANOTHER STAR
001476:
001477: 15,2476           32532        79DISP             CAF      V06N79                                #  DISPLAY CURSOR, SPIRAL AND POS CODE
001478: 15,2477           04616                           TC       BANKCALL
001479: 15,2500           20351                           CADR     GOFLASH
001480: 15,2501           16001                           TCF      GOTOPOOH                              #  V34-TERMINATE
001481: 15,2502           12504                           TCF      R59E                                  #  V33-PROCEED TO MARK ROUTINE
001482: 15,2503           12301                           TCF      R59                                   #  V32-RECYCLE TO TOP OF R59 AGAIN
001483:


001485: 15,2504           34751        R59E               CAF      BIT3                                  #  GET DETENT CORRESPONDING TO POSITION COD
001486: 15,2505           71052                           MASK     POSCODE                               #  KEYED IN POS CODE
001487: 15,2506           00006                           EXTEND
001488: 15,2507           12511                           BZF      +2                                    #  FORWARD DETENT
001489: 15,2510           12513                           TCF      +3                                    #  ITS REAR DETENT, 4 ALREADY IN (A)
001490: 15,2511           34757                           CAF      SEVEN                                 #  GET FORWARD DETENT
001491: 15,2512           71052                           MASK     POSCODE
001492: 15,2513           00006                           EXTEND
001493: 15,2514           74745                           MP       BIT7
001494: 15,2515           56001                           XCH      L
001495: 15,2516           55745                           TS       QMIN
001496: 15,2517           47743                           CS       HIGH9
001497: 15,2520           70735                           MASK     AOTCODE
001498: 15,2521           61745                           AD       QMIN
001499: 15,2522           54735                           TS       AOTCODE                               #  STORE DETENT IN 7-9
001500:
001501: 15,2523           04616        R59OUT             TC       BANKCALL                              #  GO TO AOTMARK FOR SIGHTING
001502: 15,2524           16000                           CADR     AOTMARK
001503: 15,2525           04616                           TC       BANKCALL
001504: 15,2526           17665                           CADR     AOTSTALL                              #  SLEEP TILL SIGHTING DONE
001505: 15,2527           05703                           TC       CURTAINS                              #  BADEND RETURN FROM AOTMARK
001506: 15,2530           13123                           TCF      R59RET                                #  RETURN TO 1 STAR OR 2STAR
001507:
001508: 15,2531           00306        V01N70*            VN       170
001509: 15,2532           01517        V06N79             VN       679
001510: 15,2533           02525 12525  DEG30              2DEC     .083333333                            #  30 DEGRESS
001511: 15,2535           00026 30131  DEG.5              2DEC     .00138888                             #  .5 DEGRESS SCALED IN REVS
001512: 15,2537           12525        DEG60              OCT      12525                                 #  60 DEG CDU SCALING
001513: 15,2540     1045               CURSOR             EQUALS   DSPTEM1
001514: 15,2540     1046               SPIRAL             EQUALS   DSPTEM1    +1
001515: 15,2540     1052               POSCODE            EQUALS   DSPTEM2    +2
001516:


001518:                                                                                                  #  NAME -    PLANET
001519:                                                                                                  #  FUNCTION -TO PROVIDE THE REFERENCE VECTOR FOR THE SIGHTED CELESTIAL
001520:                                                                                                  #            BODY. STARS ARE FETCHED FROM THE CATALOG,SUN,EARTH AND
001521:                                                                                                  #            MOON ARE COMPUTED BY LOCSAM,PLANET VECTORS ARE ENTERED
001522:                                                                                                  #            BY DSDY INPUT
001523:                                                                                                  #  CALL  -  CALL
001524:                                                                                                  #                  PLANET
001525:                                                                                                  #  INPUT -  TIME IN MPAC
001526:                                                                                                  #  OUTPUT - VECTOR  IN MPAC
001527:                                                                                                  #  SUBROUTINES - LOCSAM
001528:                                                                                                  #  DEBRIS - VAC ,STARAD - STARAD +17
001529:
001530: 15,2000                                           SETLOC   P50S
001531: 15,2000                                           BANK
001532: 15,2540                                           COUNT*   $$/P51
001533:
001534: 15,2540           03560        PLANET             STORE    TSIGHT
001535: 15,2541           77420                           STQ      EXIT
001536: 15,2542           02736                                    GCTR
001537: 15,2543           47743                           CS       HIGH9
001538: 15,2544           70735                           MASK     AOTCODE
001539: 15,2545           00006                           EXTEND
001540: 15,2546           76241                           MP       REVCNT
001541: 15,2547           56001                           XCH      L
001542: 15,2550           51757                           INDEX    STARIND
001543: 15,2551           55755                           TS       BESTI
001544: 15,2552           10000                           CCS      A
001545: 15,2553           12567                           TCF      NOTPLAN
001546: 15,2554           32626                           CAF      VNPLANV
001547: 15,2555           04616                           TC       BANKCALL
001548: 15,2556           20351                           CADR     GOFLASH
001549: 15,2557           02554                           TC       -3
001550: 15,2560           02562                           TC       +2
001551: 15,2561           02554                           TC       -5
001552: 15,2562           06036                           TC       INTPRET
001553: 15,2563           53575                           VLOAD    UNIT
001554: 15,2564           02707                                    STARAD
001555: 15,2565           77650                           GOTO
001556: 15,2566           02736                                    GCTR
001557: 15,2567           40000        NOTPLAN            CS       A
001558: 15,2570           62625                           AD       DEC227
001559: 15,2571           00006                           EXTEND
001560: 15,2572           62603                           BZMF     CALSAM1
001561: 15,2573           51757                           INDEX    STARIND
001562: 15,2574           31755                           CA       BESTI
001563: 15,2575           50120                           INDEX    FIXLOC
001564: 15,2576           54046                           TS       X1
001565: 15,2577           06036                           TC       INTPRET
001566: 15,2600           52173                           VLOAD*   GOTO
001567: 15,2601           30347                                    CATLOG,1
001568:


001570: 15,2602           02736                                    GCTR
001571: 15,2603           06036        CALSAM1            TC       INTPRET
001572: 15,2604           45145        CALSAM             DLOAD    CALL
001573: 15,2605           03560                                    TSIGHT
001574: 15,2606           30347                                    LOCSAM
001575: 15,2607           77340                           LXC,1    VLOAD
001576: 15,2610           02757                                    STARIND
001577: 15,2611           02707                                    VEARTH
001578: 15,2612           24001                           STOVL    0D
001579: 15,2613           02715                                    VSUN
001580: 15,2614           26707                           STOVL    VEARTH
001581: 15,2615           00001                                    0D
001582: 15,2616           02715                           STORE    VSUN
001583: 15,2617           70143                           DLOAD*   LXC,1
001584: 15,2620           02756                                    BESTI,1
001585: 15,2621           00154                                    MPAC
001586: 15,2622           52173                           VLOAD*   GOTO
001587: 15,2623           02343                                    STARAD     -228D,1
001588: 15,2624           02736                                    GCTR
001589: 15,2625           00343        DEC227             DEC      227        B-14
001590: 15,2626           01530        VNPLANV            VN       0688
001591: 15,2627  37,3533               PIPSRINE           =        PIPASR     +3                         #  EBANK NOT 4 SO DONT LOAD PIPTIME1
001592:


001594:                                                                                                  #  GRAVITY VECTOR DETERMINATION ROUTINE
001595:                                                                                                  #  BY KEN VINCENT
001596:                                                                                                  #  FOR DETAILED DESCRIPTION SEE 504GSOP 5.6.3.2.5
001597:                                                                                                  #  THIS PROGRAM FINDS THE DIRECTION OF THE MOONS GRAVITY
001598:                                                                                                  #  WHILE THE LM IS ON THE MOONS SURFACE. IT WILL BE USED
001599:                                                                                                  #  FOR LUNAR SURFACE ALIGNMENT. THE GRAVITY VECTOR IS
001600:                                                                                                  #  DETERMINED BY READING THE PIPAS WITH THE IMU AT TWO
001601:                                                                                                  #  PARTICULAR ORIONTATIONS. THE TWO READINGS ARE AVERAGED
001602:                                                                                                  #  AND UNITIZED AND TRANSFORMED TO NB COORDINATES. THE TWO
001603:                                                                                                  #  ORIENTATION WERE CHOSEN TO REDUCE BIAS ERRORS IN THE
001604:                                                                                                  #  READINGS.
001605:
001606:                                                                                                  #  CALL-
001607:                                                                                                  #           TC     BANKCALL
001608:                                                                                                  #           CADR   GVDETER
001609:                                                                                                  #  INPUTS-
001610:                                                                                                  #           PIPAS,CDUS
001611:                                                                                                  #  OUTPUTS-
001612:                                                                                                  #           STARSAV1 = UNIT GRAVITY
001613:                                                                                                  #           GSAV     =   DITTO
001614:                                                                                                  #           GRAVBIT  = 1
001615:                                                                                                  #  SUBROUTINES-
001616:                                                                                                  #           PIPASR,IMUCOARS,IMUFINE,IMUSTALL,1/PIPA,DELAYJOB,CDUTRIG,
001617:                                                                                                  #           *NBSM* ,*SNMB*, CALCGA,FOFLASH
001618:                                                                                                  #  DEBRIS-
001619:                                                                                                  #           VAC,SAC,STARAD,XSM,XNB,THETAD,DELV,COSCDU,SINCDU
001620: 15,2627           44737        GVDETER            CS       BIT13                                 #  JAM 45 DEG IN DESIRED GIMBAL ANGLES
001621: 15,2630           54322                           TS       THETAD     +1
001622: 15,2631           40000                           COM
001623: 15,2632           54323                           TS       THETAD     +2
001624: 15,2633           54321                           TS       THETAD
001625: 15,2634           06036                           TC       INTPRET
001626: 15,2635           45014                           CLEAR    CALL
001627: 15,2636           01662                                    REFSMFLG
001628: 15,2637           32734                                    LUNG
001629:                                                                                                  #  FIND  GIMBAL ANGLES WHICH ROTATE SM 180DEG  ABOUT  G VEC
001630:
001631:                                                                                                  #   DEFINE G COOR SYS
001632:                                                                                                  #                       -
001633:                                                                                                  #                       X    UNIT G
001634:                                                                                                  #                   *   -               -
001635:                                                                                                  #                   M=  Y =  UNITEZSM * X )
001636:                                                                                                  #                       -         -     -
001637:                                                                                                  #                       Z    UNIT(X   * Y )
001638:                                                                                                  #   THEN   ROTATED  SM WRT  PRESENT IS
001639:
001640:
001641:                                                                                                  #                      1,  0 , 0
001642:                                                                                                  #            *      *T            *          *         *
001643:                                                                                                  #           XSM =   M  0, -1 , 0  M  = 2  (X X ) - 1/2 I  *
001644:


001646:                                                                                                  #                                           I J
001647:                                                                                                  #                      0,  0 ,-1
001648:
001649:                                                                                                  #   ALSO   NB WRT PRES SM  IS
001650:
001651:                                                                                                  #                 *      *   *
001652:                                                                                                  #                XNB = NBSM  I
001653:                                                                                                  #                             *     *
001654:                                                                                                  #   GIMBAL ANGLES  = CALCGA( XSM , XNB )
001655:
001656: 15,2000                                           SETLOC   P50S
001657: 15,2000                                           BANK
001658: 15,2640                                           COUNT*   $$/P57
001659: 15,2640           66370                           AXT,1    SSP                                   #  X1=18
001660: 15,2641           00022                                    18D                                   #  S1= 6
001661: 15,2642           00051                                    S1                                    #  X2, -2
001662: 15,2643           00006                                    6D
001663: 15,2644           77744                           LXC,2
001664: 15,2645           00050                                    S1
001665: 15,2646           45173        GRAVEL             VLOAD*   CALL
001666: 15,2647           55512                                    XUNIT      -6,2
001667: 15,2650           47577                                    *NBSM*                                #  SIN AND COS COMPUTED IN LUNG
001668: 15,2651           06707                           STORE    XNB        +18D,1
001669: 15,2652           77775                           VLOAD
001670: 15,2653           02731                                    STAR
001671: 15,2654           73744                           LXC,2    VXSC*                                 #  COMPLEMENT- UNITX  ARE BACKWARD -
001672: 15,2655           00047                                    X2
001673: 15,2656           75040                                    STAR       +6,2                       #  OUTER PRODUCT
001674: 15,2657           71152                           VSL2     LXC,2
001675: 15,2660           00047                                    X2
001676: 15,2661           63047                           VSU*     INCR,2
001677: 15,2662           55512                                    XUNIT      -6,2
001678: 15,2663           00002                                    2D
001679: 15,2664           06665                           STORE    XSM        +18D,1
001680: 15,2665           45100                           TIX,1    CALL
001681: 15,2666           32646                                    GRAVEL
001682: 15,2667           47255                                    CALCGA
001683: 15,2670           74575                           VLOAD    VSR1
001684: 15,2671           02715                                    GOUT
001685: 15,2672           36723                           STCALL   STARAD     +12D
001686: 15,2673           32734                                    LUNG
001687: 15,2674           74575                           VLOAD    VSR1
001688: 15,2675           02715                                    GOUT
001689: 15,2676           53455                           VAD      UNIT
001690: 15,2677           02723                                    STARAD     +12D
001691: 15,2700           02761                           STORE    STARSAV1
001692: 15,2701           77641                           DOT
001693: 15,2702           02235                                    GSAV
001694: 15,2703           65552                           SL1      ACOS
001695: 15,2704           01046                           STORE    DSPTEM1
001696:


001698: 15,2705           77776                           EXIT
001699: 15,2706           05516                           TC       DOWNFLAG                              #  CLEAR FREEFLAG IN CASE OF RECYCLE
001700: 15,2707           00014                           ADRES    FREEFLAG
001701:
001702: 15,2710           33040                           CA       DISGRVER
001703: 15,2711           04616                           TC       BANKCALL
001704: 15,2712           20351                           CADR     GOFLASH
001705: 15,2713           06001                           TC       GOTOPOOH
001706: 15,2714           12717                           TCF      PROGRAV                               #  VB33-PROCEED
001707: 15,2715           05504                           TC       UPFLAG                                #  VB32-RECYCLE-STORE GRAV AND DO IT AGAIN
001708: 15,2716           00014                           ADRES    FREEFLAG                              #  AND SET FREEFLAG TO SHOW RECYCLE
001709:
001710: 15,2717           05353        PROGRAV            TC       PHASCHNG
001711: 15,2720           05024                           OCT      05024
001712: 15,2721           13000                           OCT      13000
001713: 15,2722           06036                           TC       INTPRET
001714: 15,2723           77775                           VLOAD
001715: 15,2724           02761                                    STARSAV1
001716: 15,2725           02235                           STORE    GSAV
001717: 15,2726           77776                           EXIT
001718: 15,2727           34751                           CAF      FREEFBIT                              #  IF FREEFLAG SET, RE-COMPUTE GRAVITY.
001719: 15,2730           70074                           MASK     FLAGWRD0
001720: 15,2731           10000                           CCS      A
001721: 15,2732           12627                           TCF      GVDETER                               #  SET
001722: 15,2733           13535                           TCF      ATTCHK                                #  EXIT FROM GVDETER
001723:
001724: 15,2734           77220        LUNG               STQ      VLOAD
001725: 15,2735           02745                                    QMIN
001726: 15,2736           22275                                    ZEROVEC
001727: 15,2737           02707                           STORE    GACC
001728: 15,2740           77776                           EXIT
001729: 15,2741           05353                           TC       PHASCHNG
001730: 15,2742           05024                           OCT      05024
001731: 15,2743           13000                           OCT      13000
001732: 15,2744           04616                           TC       BANKCALL
001733: 15,2745           16753                           CADR     IMUCOARS
001734: 15,2746           04616                           TC       BANKCALL
001735: 15,2747           17671                           CADR     IMUSTALL
001736: 15,2750           05703                           TC       CURTAINS
001737: 15,2751           04616                           TC       BANKCALL
001738: 15,2752           17163                           CADR     IMUFINE
001739: 15,2753           04616                           TC       BANKCALL
001740: 15,2754           17671                           CADR     IMUSTALL
001741: 15,2755           05703                           TC       CURTAINS
001742: 15,2756           33037                           CA       T/2SEC
001743: 15,2757           55736                           TS       GCTR
001744: 15,2760           37715                           CA       PRIO31
001745: 15,2761           55075                           TS       1/PIPADT
001746: 15,2762           04616                           TC       BANKCALL
001747: 15,2763           15701                           CADR     GCOMPZER                              #  INITIALIZE COMPENSATION
001748:


001750: 15,2764           05353                           TC       PHASCHNG
001751: 15,2765           05024                           OCT      05024
001752: 15,2766           13000                           OCT      13000
001753: 15,2767           04616                           TC       BANKCALL                              #   DONT NEED TO INHINY  THIS USED TO
001754: 15,2770           77533                           CADR     PIPSRINE                              #  INITIALIZE PIPAS  DONT USE DATA
001755: 15,2771           06036                           TC       INTPRET
001756: 15,2772           77776        GREED              EXIT                                           #  = MASK 7776 IN BASIC SO DONT CARE
001757: 15,2773           35000                           CAF      2SECS
001758: 15,2774           05173                           TC       TWIDDLE                               #  SET UP 2 SEC TASK TO READ PIPAS
001759: 15,2775           02777                           ADRES    GRABGRAV
001760:
001761: 15,2776           05155                           TC       ENDOFJOB
001762:
001763: 15,2777           04674        GRABGRAV           TC       IBNKCALL
001764: 15,3000           77533                           CADR     PIPSRINE
001765: 15,3001           35023                           CAF      PRIO13                                #  RE-ESTABLISH MAINLINE JOB
001766: 15,3002           05105                           TC       FINDVAC
001767: 15,3003  E5,1706                                  EBANK=   STARAD
001768: 15,3003           03006 32065                     2CADR    ADDGRAV
001769:
001770: 15,3005           05261                           TC       TASKOVER
001771:
001772: 15,3006           04616        ADDGRAV            TC       BANKCALL
001773: 15,3007           15263                           CADR     1/PIPA
001774: 15,3010           25736                           INCR     GCTR
001775: 15,3011           06036                           TC       INTPRET
001776: 15,3012           53375                           VLOAD    VAD
001777: 15,3013           00325                                    DELV
001778: 15,3014           02707                                    GACC
001779: 15,3015           02707                           STORE    GACC                                  #  ACCUMULATE G VECTOR
001780: 15,3016           50135                           SLOAD    BMN
001781: 15,3017           02737                                    GCTR
001782: 15,3020           32772                                    GREED
001783: 15,3021           53575                           VLOAD    UNIT
001784: 15,3022           02707                                    GACC
001785: 15,3023           36731                           STCALL   STAR
001786: 15,3024           47443                                    CDUTRIG                               #  TRANSFORM IN NB COOR  AND  STORE
001787: 15,3025           77624                           CALL                                           #   IN OUTPUT
001788: 15,3026           47575                                    *SMNB*
001789: 15,3027           02715                           STORE    GOUT
001790: 15,3030           77776                           EXIT
001791: 15,3031           05353                           TC       PHASCHNG
001792: 15,3032           05024                           OCT      05024
001793: 15,3033           13000                           OCT      13000
001794: 15,3034           06036                           TC       INTPRET
001795: 15,3035           77650                           GOTO
001796: 15,3036           02745                                    QMIN
001797: 15,3037           77751        T/2SEC             DEC      -22        B-14
001798: 15,3040           01404        DISGRVER           VN       0604
001799:


001801:                                                                                                  #  NAME  GYROTRIM
001802:
001803:                                                                                                  #  THIS PROGRAM COMPUTES AND SENDS GYRO COMMANDS WHICH CAUSE THE CDUS
001804:                                                                                                  #    TO ATTAIN A PRESCRIBED SET OF ANGLES. THIS ROUTINE ASSUMES THE
001805:                                                                                                  #    VEHICLES ATTITUDE REMAINS STATIONARY DURING ITS OPERATION.
001806:
001807:                                                                                                  #  CALL     CALL
001808:                                                                                                  #                  GYROTRIM
001809:
001810:                                                                                                  #  INPUT    THETAD,+1,+2 = DESIRED CDU ANGLES
001811:                                                                                                  #           CDUX,CDUY,CDUZ
001812:
001813:                                                                                                  #  OUTPUT - GYRO TORQUE PULSES
001814:
001815:                                                                                                  #  SUBROUTINES- TRG*NBSM,*NBSM*,CDUTRIG,AXISGEN,CALCGTA,IMUFINE
001816:                                                                                                  #               IMPULSE,IMUSTALL
001817:                                                                                                  #             -         -        -        *           *     -
001818:                                                                                                  #  DEBRIS -  CDUSPOT ,SINCDU ,COSCDU , STARAD ,VAC , XDC , OGC
001819: 15,3041                                           COUNT*   $$/P57
001820: 15,3041           71220        GYROTRIM           STQ      DLOAD
001821: 15,3042           02745                                    QMIN
001822: 15,3043           00322                                    THETAD
001823: 15,3044           65325                           PDDL     PDDL
001824: 15,3045           00324                                    THETAD     +2
001825: 15,3046           00323                                    THETAD     +1
001826: 15,3047           77666                           VDEF
001827: 15,3050           24767                           STOVL    CDUSPOT
001828: 15,3051           22273                                    XUNIT
001829: 15,3052           77624                           CALL
001830: 15,3053           47570                                    TRG*NBSM
001831: 15,3054           26707                           STOVL    STARAD
001832: 15,3055           22271                                    YUNIT
001833: 15,3056           77624                           CALL
001834: 15,3057           47577                                    *NBSM*
001835: 15,3060           36715                           STCALL   STARAD     +6
001836: 15,3061           47443                                    CDUTRIG
001837: 15,3062           77624                           CALL
001838: 15,3063           31267                                    CALCSMSC
001839: 15,3064           77775                           VLOAD
001840: 15,3065           02665                                    XNB
001841: 15,3066           24007                           STOVL    6D
001842: 15,3067           02673                                    YNB
001843: 15,3070           34015                           STCALL   12D
001844: 15,3071           47345                                    AXISGEN
001845: 15,3072           77624                           CALL
001846: 15,3073           47151                                    CALCGTA
001847: 15,3074           77776        JUSTTRIM           EXIT
001848: 15,3075           04616                           TC       BANKCALL
001849: 15,3076           17163                           CADR     IMUFINE
001850: 15,3077           04616                           TC       BANKCALL
001851:


001853: 15,3100           17671                           CADR     IMUSTALL
001854: 15,3101           05703                           TC       CURTAINS
001855: 15,3102           33113                           CA       GYRCDR
001856: 15,3103           04616                           TC       BANKCALL
001857: 15,3104           17276                           CADR     IMUPULSE
001858: 15,3105           04616                           TC       BANKCALL
001859: 15,3106           17671                           CADR     IMUSTALL
001860: 15,3107           05703                           TC       CURTAINS
001861: 15,3110           06036                           TC       INTPRET
001862: 15,3111           77650                           GOTO
001863: 15,3112           02745                                    QMIN
001864: 15,3113           02737        GYRCDR             ECADR    OGC
001865:


001867:                                                                                                  #  PERFORM STAR AQUISITION AND STAR SIGHTINGS
001868:
001869: 15,3114           34755        2STARS             CAF      ZERO                                  #  INITALIZE STARIND
001870: 15,3115           13117                           TCF      +2                                    #  ZERO FOR 1ST STAR, ONE FOR 2ND STAR
001871: 15,3116           34753        1STAR              CAF      BIT1
001872: 15,3117           55757                           TS       STARIND
001873:
001874: 15,3120           05353                           TC       PHASCHNG
001875: 15,3121           04024                           OCT      04024
001876:
001877: 15,3122           12301                           TCF      R59                                   #  GO DO STAR AQUIRE AND AOTMARK
001878:
001879: 15,3123           31757        R59RET             CA       STARIND                               #  BACK FROM SURFACE MARKING
001880: 15,3124           00006                           EXTEND
001881: 15,3125           13144                           BZF      ASTAR                                 #  1ST STAR MARKED
001882:
001883: 15,3126           06036                           TC       INTPRET                               #  2ND STAR MARKED
001884: 15,3127           77775                           VLOAD
001885: 15,3130           02715                                    STARAD     +6
001886: 15,3131           02767                           STORE    STARSAV2                              #  2ND STAR IN SM
001887:
001888: 15,3132           77776                           EXIT
001889: 15,3133           05353                           TC       PHASCHNG
001890: 15,3134           05024                           OCT      05024
001891: 15,3135           13000                           OCT      13000
001892:
001893: 15,3136           06036                           TC       INTPRET
001894: 15,3137           45145                           DLOAD    CALL
001895: 15,3140           03560                                    TSIGHT                                #  TIME OF 2ND MARK
001896: 15,3141           32540                                    PLANET
001897: 15,3142           36731                           STCALL   VEC2                                  #  STORE 2ND CATALOG VEC (REF)
001898: 15,3143           33156                                    SURFLINE
001899:
001900: 15,3144           06036        ASTAR              TC       INTPRET
001901: 15,3145           77775                           VLOAD
001902: 15,3146           02715                                    STARAD     +6
001903: 15,3147           02761                           STORE    STARSAV1                              #  1ST OBSERVED STAR (SM)
001904: 15,3150           45145                           DLOAD    CALL
001905: 15,3151           03560                                    TSIGHT                                #  TIME OF 1ST MARK
001906: 15,3152           32540                                    PLANET
001907: 15,3153           02723                           STORE    VEC1                                  #  STORE 1ST CATALOG VEC (REF)
001908: 15,3154           77776                           EXIT
001909: 15,3155           13116                           TCF      1STAR                                 #  GO GET 2ND STAR SIGHTING
001910:


001912:                                                                                                  #  DO FINE OR COARSE ALIGNMENT OF IMU
001913:
001914: 15,3156           77131        SURFLINE           SSP      AXT,2
001915: 15,3157           00052                                    S2
001916: 15,3160           00006                                    6
001917: 15,3161           00014                                    12D
001918: 15,3162           64373        WRTDESIR           VLOAD*   MXV
001919: 15,3163           75040                                    VEC1       +12D,2                     #  PICK UP VEC IN REF, TRANS TO DESIRED SH
001920: 15,3164           03605                                    XSMD
001921: 15,3165           77656                           UNIT
001922: 15,3166           12723                           STORE    STARAD     +12D,2                     #  VEC IN SM
001923: 15,3167           77773                           VLOAD*
001924: 15,3170           75002                                    STARSAV1   +12D,2                     #  PICK UP VEC IN PRESENT SM
001925: 15,3171           10023                           STORE    18D,2
001926: 15,3172           43104                           TIX,2    BON
001927: 15,3173           33162                                    WRTDESIR
001928: 15,3174           04315                                    INITALGN                              #  IF INITIAL PASS (OPTION 0) BYPASS R54
001929: 15,3175           33203                                    INITBY
001930: 15,3176           77624        DOALIGN            CALL
001931: 15,3177           31121                                    R54                                   #  DO CHKSDATA
001932: 15,3200           77614                           BOFF
001933: 15,3201           00354                                    FREEFLAG
001934: 15,3202           33264                                    P57POST                               #  ASTRO DOES NOT LIKE DATA TEST RESULTS
001935: 15,3203           77624        INITBY             CALL
001936: 15,3204           47345                                    AXISGEN                               #  GET DESIRED ORIENT WRT PRES.XDC,YDC,ZDC
001937: 15,3205           77624                           CALL
001938: 15,3206           47151                                    CALCGTA                               #  GET GYRO TORQ ANGLES, OGC,IGC,MGC
001939: 15,3207           77776                           EXIT
001940: 15,3210           34752                           CAF      INITABIT                              #  IF INITIAL PASS BYPASS NOUN 93 DISPLAY
001941: 15,3211           70104                           MASK     FLAGWRD8
001942: 15,3212           10000                           CCS      A
001943: 15,3213           13222                           TCF      5DEGTEST
001944: 15,3214           33316                           CAF      DISPGYRO                              #  DISPLAY GYRO TORQ ANGLES V 06N93
001945: 15,3215           04616                           TC       BANKCALL
001946: 15,3216           20351                           CADR     GOFLASH
001947: 15,3217           06001                           TC       GOTOPOOH                              #  V34-TERMINATE
001948: 15,3220           13222                           TCF      5DEGTEST                              #  VB33-PROCEED TO COARSE OR FINE
001949: 15,3221           13265                           TCF      P57POST    +1                         #  VB32-RECYCLE, MAYBE RE-ALIGN
001950:
001951: 15,3222           06036        5DEGTEST           TC       INTPRET                               #  IF ANGLES GREATER THAN 5 DEGS, DO COARSE
001952: 15,3223           40175                           VLOAD    BOV
001953: 15,3224           02740                                    OGC
001954: 15,3225           33226                                    SURFSUP
001955: 15,3226           02750        SURFSUP            STORE    OGCT
001956: 15,3227           40141                           V/SC     BOV
001957: 15,3230           30451                                    5DEGREES
001958: 15,3231           33273                                    COATRIM
001959: 15,3232           52131                           SSP      GOTO
001960: 15,3233           02746                                    QMIN
001961: 15,3234           33236                                    SURFDISP
001962:


001964: 15,3235           33074                                    JUSTTRIM                              #  ANGLES LESS THAN 5 DEG, DO GYRO TORQ
001965:
001966: 15,3236           77776        SURFDISP           EXIT
001967: 15,3237           05353                           TC       PHASCHNG
001968: 15,3240           05024                           OCT      05024                                 #  STORE REFSMMAT ,SET REFSMFLG   AND
001969: 15,3241           13000                           OCT      13000                                 #  DISPLAY ORIGINAL  TORQ ANGLES
001970: 15,3242           06036                           TC       INTPRET
001971: 15,3243           75160                           AXC,1    AXC,2
001972: 15,3244           03604                                    XSMD
001973: 15,3245           01733                                    REFSMMAT
001974: 15,3246           45014                           SET      CALL
001975: 15,3247           01462                                    REFSMFLG
001976: 15,3250           31237                                    MATMOVE
001977: 15,3251           77776                           EXIT
001978: 15,3252           11145                           CCS      OPTION2                               #  IF OPTION ZERO DO FINISH
001979: 15,3253           13255                           TCF      B2F8
001980: 15,3254           13265                           TCF      P57POST    +1
001981:
001982: 15,3255           34752        B2F8               CAF      INITABIT                              #  IF INITIAL FLAG SET, RE-CYCLE.
001983: 15,3256           70104                           MASK     FLAGWRD8
001984: 15,3257           10000                           CCS      A
001985: 15,3260           13543                           TCF      P57JUMP                               #  ITS SET
001986: 15,3261           06036                           TC       INTPRET
001987: 15,3262           77624                           CALL
001988: 15,3263           33470                                    REFMF                                 #  GO GET ATTITUDE VEC IN MF(YNBSAV,XNBSAV)
001989: 15,3264           77776        P57POST            EXIT
001990: 15,3265           35742                           CAF      OCT14                                 #  DISPLAY V50N25 CHK CODE 14
001991: 15,3266           04616                           TC       BANKCALL
001992: 15,3267           20476                           CADR     GOPERF1
001993: 15,3270           16001                           TCF      GOTOPOOH                              #  VB34-TERMINATE
001994: 15,3271           13543                           TCF      P57JUMP                               #  VB33-PROCEED TO RE-ALIGN
001995: 15,3272           16001                           TCF      GOTOPOOH                              #  VB32-R59 DONE-GO TO PROG 00
001996:


001998:                                                                                                  #  COARSE AND FINE ALIGN IMU
001999: 15,3273           75160        COATRIM            AXC,1    AXC,2
002000: 15,3274           02664                                    XDC
002001: 15,3275           02642                                    XSM
002002: 15,3276           77624                           CALL
002003: 15,3277           31237                                    MATMOVE
002004: 15,3300           77624                           CALL
002005: 15,3301           47443                                    CDUTRIG
002006: 15,3302           77624                           CALL
002007: 15,3303           31267                                    CALCSMSC
002008: 15,3304           77624                           CALL
002009: 15,3305           47255                                    CALCGA
002010: 15,3306           77624                           CALL
002011: 15,3307           31506                                    COARSE
002012: 15,3310           77624                           CALL
002013: 15,3311           31523                                    NCOARSE
002014: 15,3312           77624                           CALL
002015: 15,3313           33041                                    GYROTRIM
002016: 15,3314           77650                           GOTO
002017: 15,3315           33236                                    SURFDISP
002018: 15,3316           01535        DISPGYRO           VN       0693
002019:


002021:                                                                                                  #  LUNAR SURFACE IMU ALIGNMENT PROGRAM
002022:
002023: 15,3317           04616        P57                TC       BANKCALL                              #  IS ISS ON - IF NOT, IMUCHK WILL SEND
002024: 15,3320           33635                           CADR     IMUCHK                                #  ALARM CODE 210 AND EXIT VIA GOTOPOOH.
002025:
002026: 15,3321           06036                           TC       INTPRET
002027: 15,3322           77745                           DLOAD
002028: 15,3323           03440                                    TIG                                   #  LOAD ASCENT TIME FOR DISPLAY
002029: 15,3324           01046        P57A               STORE    DSPTEM1
002030: 15,3325           77776                           EXIT
002031: 15,3326           32172        P57AA              CAF      V06N34*                               #  DISPLAY TALIGN, TALIGN : DSPTEM1
002032: 15,3327           04616                           TC       BANKCALL
002033: 15,3330           20510                           CADR     GOFLASHR
002034: 15,3331           16001                           TCF      GOTOPOOH                              #  V34-TERMINATE
002035: 15,3332           13337                           TCF      +5
002036: 15,3333           13326                           TCF      P57AA                                 #  VB32-RECYCLE
002037:
002038: 15,3334           05353                           TC       PHASCHNG
002039: 15,3335           00014                           OCT      00014
002040: 15,3336           05155                           TC       ENDOFJOB
002041:
002042: 15,3337           06036                           TC       INTPRET
002043: 15,3340           50145                           DLOAD    BMN
002044: 15,3341           01046                                    DSPTEM1
002045: 15,3342           33367                                    PACKOPTN   -1                         #  NEG TIME-PREF ORIENT IN XSMD MATRIX
002046: 15,3343           65234                           RTB      PDDL
002047: 15,3344           21462                                    LOADTIME                              #  PUSH CURRENT TIME AND PICK UP KEY IN
002048: 15,3345           01046                                    DSPTEM1
002049: 15,3346           65254                           BZE      PDDL
002050: 15,3347           33357                                    P57C                                  #  IF KEY IN TIME ZERO-TALIGN=CURRENT TIME
002051: 15,3350           51025                           DSU      BPL                                   #  NOT ZERO SO EXCHANGE PD WITH DSPTEM1
002052: 15,3351           01046                                    DSPTEM1
002053: 15,3352           33357                                    P57C
002054: 15,3353           45545                           DLOAD    STADR                                 #  IF KEYIN TIME GREATER THAN CURRENT TIME
002055: 15,3354           74337                           STORE    TIG                                   #  STORE IT IN TIG
002056: 15,3355           36775                           STCALL   TALIGN
002057: 15,3356           33361                                    P57D
002058: 15,3357           45545        P57C               DLOAD    STADR
002059: 15,3360           75002                           STORE    TALIGN
002060: 15,3361           34041        P57D               STCALL   TDEC1
002061: 15,3362           27057                                    LEMPREC                               #  COMPUTE DESIRED IMU ORIENTATION STORE
002062: 15,3363           53575                           VLOAD    UNIT                                  #  IN  X,Y,ZSMD
002063: 15,3364           00001                                    RATT
002064: 15,3365           37605                           STCALL   XSMD
002065: 15,3366           33647                                    LSORIENT
002066: 15,3367           77776                           EXIT
002067: 15,3370           34755        PACKOPTN           CAF      ZERO                                  #  PACK FLAG BITS FOR OPTION DISPLAY
002068: 15,3371           55145                           TS       OPTION1    +1                         #  JAM ZERO IN ALIGNMENT OPTION
002069: 15,3372           55146                           TS       OPTION1    +2                         #  INITIALIZE FLAG BIT CONFIGURATION
002070: 15,3373           34737                           CAF      REFSMBIT
002071:


002073: 15,3374           70077                           MASK     FLAGWRD3                              #  REFSMFLG
002074: 15,3375           10000                           CCS      A
002075: 15,3376           34745                           CAF      BIT7                                  #  SET
002076: 15,3377           27146                           ADS      OPTION1    +2                         #  CLEAR-JUST ZERO
002077: 15,3400           34753                           CAF      ATTFLBIT
002078: 15,3401           70102                           MASK     FLAGWRD6                              #  ATTFLG
002079: 15,3402           10000                           CCS      A
002080: 15,3403           34750                           CAF      BIT4                                  #  SET
002081: 15,3404           27146                           ADS      OPTION1    +2                         #  CLEAR-ZERO IN A
002082: 15,3405           34750                           CAF      BIT4
002083: 15,3406           55144                           TS       OPTION1                               #  JAM 00010 IN OPTION1 FOR CHECK LIST
002084:
002085: 15,3407           33634        DSPOPTN            CAF      VB05N06                               #  DISPLAY OPTION CODE AND FLAG BITS
002086: 15,3410           04616                           TC       BANKCALL
002087: 15,3411           20351                           CADR     GOFLASH
002088: 15,3412           16001                           TCF      GOTOPOOH                              #  VB34-TERMINATE
002089: 15,3413           13415                           TCF      +2                                    #  V33-PROCEED
002090: 15,3414           13407                           TCF      DSPOPTN                               #  V32-RECYCLE
002091:
002092: 15,3415           05353                           TC       PHASCHNG
002093: 15,3416           05024                           OCT      05024
002094: 15,3417           13000                           OCT      13000
002095: 15,3420           34737                           CAF      REFSMBIT
002096: 15,3421           70077                           MASK     FLAGWRD3
002097: 15,3422           10000                           CCS      A
002098: 15,3423           13523                           TCF      GETLMATT                              #  SET, GO COMPUTE LM ATTITUDE
002099: 15,3424           34753                           CAF      ATTFLBIT                              #  CLEAR-CHECK ATTFLAG FOR STORED ATTITUDE.
002100: 15,3425           70102                           MASK     FLAGWRD6
002101: 15,3426           10000                           CCS      A
002102: 15,3427           13527                           TCF      BYLMATT                               #  ALLFLG SET, CHK OPTION FOR GRAVITY COMP
002103: 15,3430           34752                           CAF      BIT2                                  #  SEE IF OPTION 2 OR 3
002104: 15,3431           71145                           MASK     OPTION2
002105: 15,3432           10000                           CCS      A
002106: 15,3433           13527                           TCF      BYLMATT                               #  OPTION 2 OR 3 BUT DONT HAVE ATTITUDE
002107: 15,3434           05567                           TC       ALARM                                 #  OPTION INCONSISTANT WITH FLAGS-ALARM 701
002108: 15,3435           00701                           OCT      701
002109: 15,3436           35006                           CAF      VB05N09                               #  DISPLAY ALARM FOR ACTION
002110: 15,3437           04616                           TC       BANKCALL
002111: 15,3440           20351                           CADR     GOFLASH
002112: 15,3441           16001                           TCF      GOTOPOOH                              #  VB34-TERMINATE
002113: 15,3442           13407                           TCF      DSPOPTN                               #  V33-PROCEED   ********TEMPORARY
002114: 15,3443           13407                           TCF      DSPOPTN                               #  VB32-RECYCLE TO OPTION DISPLAY V 05N06
002115:


002117:                                                                                                  #  TRANSFORM VEC1,2 FROM MOON FIXED TO REF AND JAM BACK IN VEC1,2
002118:
002119: 15,3444           40220        MFREF              STQ      SETPD
002120: 15,3445           02746                                    QMAJ
002121: 15,3446           00001                                    0
002122: 15,3447           77634                           RTB
002123: 15,3450           21462                                    LOADTIME
002124: 15,3451           27560                           STOVL    TSIGHT
002125: 15,3452           02723                                    VEC1
002126: 15,3453           41525                           PDDL     PUSH
002127: 15,3454           03560                                    TSIGHT
002128: 15,3455           77624                           CALL
002129: 15,3456           51504                                    RP-TO-R
002130: 15,3457           26723                           STOVL    VEC1
002131: 15,3460           02731                                    VEC2
002132: 15,3461           65201                           SETPD    PDDL
002133: 15,3462           00001                                    0
002134: 15,3463           03560                                    TSIGHT
002135: 15,3464           45006                           PUSH     CALL
002136: 15,3465           51504                                    RP-TO-R
002137: 15,3466           36731                           STCALL   VEC2
002138: 15,3467           02746                                    QMAJ
002139:


002141:                                                                                                  #  COMPUTE LM ATTITUDE IN MOON FIXED COORDINATES USING REFSMMAT AND
002142:                                                                                                  #  STORE IN YNBSAV AND ZNBSAV
002143:
002144: 15,3470           45020        REFMF              STQ      CALL
002145: 15,3471           02746                                    QMAJ
002146: 15,3472           47443                                    CDUTRIG                               #  GET SIN AND COS OF CDUS
002147: 15,3473           40234                           RTB      SETPD
002148: 15,3474           21462                                    LOADTIME
002149: 15,3475           00001                                    0
002150: 15,3476           37560                           STCALL   TSIGHT
002151: 15,3477           31267                                    CALCSMSC                              #  GET YNB IN SM
002152: 15,3500           61375                           VLOAD    VXM
002153: 15,3501           02673                                    YNB
002154: 15,3502           01734                                    REFSMMAT                              #   YNB TO REF
002155: 15,3503           65256                           UNIT     PDDL
002156: 15,3504           03560                                    TSIGHT
002157: 15,3505           45006                           PUSH     CALL
002158: 15,3506           51531                                    R-TO-RP
002159: 15,3507           26243                           STOVL    YNBSAV                                #  YNB TO MF
002160: 15,3510           02701                                    ZNB
002161: 15,3511           53505                           VXM      UNIT
002162: 15,3512           01734                                    REFSMMAT                              #  ZNB TO REF
002163: 15,3513           41525                           PDDL     PUSH
002164: 15,3514           03560                                    TSIGHT
002165: 15,3515           77624                           CALL
002166: 15,3516           51531                                    R-TO-RP                               #  ZNB TO MF
002167: 15,3517           02251                           STORE    ZNBSAV
002168: 15,3520           77614                           SETGO
002169: 15,3521           03036                                    ATTFLAG
002170: 15,3522           02746                                    QMAJ
002171:


002173:                                                                                                  #  BRANCH TO ALIGNMENT OPTION
002174:
002175: 15,3523           06036        GETLMATT           TC       INTPRET
002176: 15,3524           77624                           CALL
002177: 15,3525           33470                                    REFMF                                 #  GO TRANSFORM TO MF IN YNBSAV,ZNBSAV
002178: 15,3526           77776                           EXIT
002179:
002180: 15,3527           05504        BYLMATT            TC       UPFLAG                                #  SET INITIAL ALIGN FLAG
002181: 15,3530           00205                           ADRES    INITALGN
002182: 15,3531           34753                           CAF      BIT1
002183: 15,3532           71145                           MASK     OPTION2                               #  SEE IF OPTION 1 OR 3
002184: 15,3533           10000                           CCS      A
002185: 15,3534           12627                           TCF      GVDETER                               #  OPTION 1 OR 2, GET GRAVITY
002186:
002187: 15,3535           05353        ATTCHK             TC       PHASCHNG
002188: 15,3536           04024                           OCT      04024
002189:
002190: 15,3537           34753                           CAF      ATTFLBIT                              #  NOT 1 OR 3, CHECK ATTFLAG
002191: 15,3540           70102                           MASK     FLAGWRD6
002192: 15,3541           10000                           CCS      A
002193: 15,3542           13557                           TCF      P57OPT0                               #  GET ALIGNMENT VECS FOR OPTION 0
002194: 15,3543           05353        P57JUMP            TC       PHASCHNG
002195: 15,3544           04024                           OCT      04024
002196:
002197: 15,3545           05516                           TC       DOWNFLAG                              #  ATTFLG CLEAR-RESET INTALIGN FLAG
002198: 15,3546           00205                           ADRES    INITALGN
002199: 15,3547           36244                           CAF      THREE
002200: 15,3550           71145                           MASK     OPTION2                               #  BRANCH ON OPTION CODE
002201: 15,3551           50000                           INDEX    A
002202: 15,3552           13553                           TCF      +1
002203: 15,3553           13557                           TCF      P57OPT0                               #  OPTION IS 0
002204: 15,3554           13600                           TCF      P57OPT1                               #  OPTION IS 1
002205: 15,3555           13616                           TCF      P57OPT2                               #  OPTION IS 2
002206: 15,3556           13617                           TCF      P57OPT3                               #  OPTION IS 3
002207:


002209:                                                                                                  #  OPTION 0, GET TWO ATTITUDE VECS
002210:
002211: 15,3557           06036        P57OPT0            TC       INTPRET
002212: 15,3560           77775                           VLOAD
002213: 15,3561           02243                                    YNBSAV                                #  Y AND Z ATTITUDE WILL BE PUT IN REF
002214: 15,3562           26723                           STOVL    VEC1
002215: 15,3563           02251                                    ZNBSAV
002216: 15,3564           36731                           STCALL   VEC2
002217: 15,3565           47443                                    CDUTRIG
002218: 15,3566           77624                           CALL
002219: 15,3567           31267                                    CALCSMSC                              #  COMPUTE SC AXIS WRT PRESENT SM
002220: 15,3570           77775                           VLOAD
002221: 15,3571           02673                                    YNB
002222: 15,3572           26761        SAMETYP            STOVL    STARSAV1                              #  Y SC AXIS WRT PRESENT SM
002223: 15,3573           02701                                    ZNB
002224: 15,3574           36767                           STCALL   STARSAV2                              #  Z SC AXIS WRT PRESENT SM
002225: 15,3575           33444                                    MFREF                                 #  TRANSFORM VEC1,2 FROM MF TO REF
002226: 15,3576           77650                           GOTO
002227: 15,3577           33156                                    SURFLINE
002228:
002229:                                                                                                  #  OPTION 1, GET LANDING SITE AND Z-ATTITUDE VEC
002230:
002231: 15,3600           06036        P57OPT1            TC       INTPRET
002232: 15,3601           53575                           VLOAD    UNIT
002233: 15,3602           02023                                    RLS                                   #  LANDING SITE VEC
002234: 15,3603           26723                           STOVL    VEC1
002235: 15,3604           02251                                    ZNBSAV                                #  Z ATTITUDE VEC
002236: 15,3605           36731                           STCALL   VEC2
002237: 15,3606           47443                                    CDUTRIG
002238: 15,3607           77624                           CALL
002239: 15,3610           31267                                    CALCSMSC                              #  GET ZNB AXIS WRT PRES SM FOR STARSAV2
002240: 15,3611           45175                           VLOAD    CALL
002241: 15,3612           02235                                    GSAV                                  #  TRANS GSAV FROM NB TO SM FOR STARSAV1
002242: 15,3613           47565                                    CDU*NBSM
002243: 15,3614           77650                           GOTO
002244: 15,3615           33572                                    SAMETYP                               #  NOW DO SAME AS OPTION 0
002245:


002247:                                                                                                  #  OPTION 2, GET TWO STAR SIGHTINGS
002248:
002249: 15,3616           13114        P57OPT2            TCF      2STARS                                #  DO SIGHTING ON 2 STARS
002250:
002251:                                                                                                  #  OPTION 3, GET LANDING SITE VEC AND ONE STAR SIGHTING
002252:
002253: 15,3617           06036        P57OPT3            TC       INTPRET
002254: 15,3620           53575                           VLOAD    UNIT
002255: 15,3621           02023                                    RLS                                   #  LANDING SITE VEC
002256: 15,3622           02723                           STORE    VEC1
002257: 15,3623           26731                           STOVL    VEC2                                  #  DUMMY VEC2 FOR 2ND CATALOG STAR
002258: 15,3624           02235                                    GSAV                                  #  GRAVITY VEC NB
002259: 15,3625           77624                           CALL
002260: 15,3626           47565                                    CDU*NBSM                              #  TRANS GSAV FROM NB TO SM FOR STARSAV1
002261: 15,3627           36761                           STCALL   STARSAV1
002262: 15,3630           33444                                    MFREF                                 #  STARSAV2 IS STORED AS 2ND OBSERVED STAR
002263: 15,3631           77776                           EXIT
002264: 15,3632           13116                           TCF      1STAR                                 #  1STAR GET VEC2,STARSAV2,GOES TO SURFLINE
002265:
002266: 15,3633           00701        BADOPT             OCT      00701                                 #  **** TEMP ****
002267: 15,3634           01206        VB05N06            VN       506
002268:


002270:                                                                                                  #  CHECK IMODES30 TO VARIFY IMU IS ON
002271:
002272: 15,3635           41302        IMUCHK             CS       IMODES30
002273: 15,3636           74743                           MASK     BIT9
002274: 15,3637           10000                           CCS      A                                     #  IS IMU ON
002275: 15,3640           13644                           TCF      +4                                    #  YES
002276:
002277: 15,3641           05567                           TC       ALARM                                 #  NO, SEND ALARM AND EXIT
002278: 15,3642           00210                           OCT      210
002279: 15,3643           06001                           TC       GOTOPOOH
002280:
002281: 15,3644           05504                           TC       UPFLAG
002282: 15,3645           00007                           ADRES    IMUSE                                 #  SET IMUSE FLAG
002283:
002284: 15,3646           04631                           TC       SWRETURN
002285:
002286: 15,3647           77220        LSORIENT           STQ      VLOAD
002287: 15,3650           02746                                    QMAJ
002288: 15,3651           01555                                    RRECTCSM
002289: 15,3652           47235                           VXV      VXV
002290: 15,3653           01563                                    VRECTCSM
002291: 15,3654           03605                                    XSMD
002292: 15,3655           77656                           UNIT
002293: 15,3656           03621                           STORE    ZSMD
002294: 15,3657           53435                           VXV      UNIT
002295: 15,3660           03605                                    XSMD
002296: 15,3661           37613                           STCALL   YSMD
002297: 15,3662           02746                                    QMAJ

End of include-file P51-P53.agc.  Parent file is MAIN.agc


