
Source Code


000002:                                                                                                  ## Copyright:   Public domain.
000003:                                                                                                  ## Filename:    P76.agc
000004:                                                                                                  ## Purpose:     A section of LUM69 revision 2.
000005:                                                                                                  ##              It is part of the reconstructed source code for the flown
000006:                                                                                                  ##              version of the flight software for the Lunar Module's (LM)
000007:                                                                                                  ##              Apollo Guidance Computer (AGC) for Apollo 10. The code has
000008:                                                                                                  ##              been recreated from a copy of Luminary revsion 069, using
000009:                                                                                                  ##              changes present in Luminary 099 which were described in
000010:                                                                                                  ##              Luminary memos 75 and 78. The code has been adapted such
000011:                                                                                                  ##              that the resulting bugger words exactly match those specified
000012:                                                                                                  ##              for LUM69 revision 2 in NASA drawing 2021152B, which gives
000013:                                                                                                  ##              relatively high confidence that the reconstruction is correct.
000014:                                                                                                  ## Reference:   pp. 717-719
000015:                                                                                                  ## Assembler:   yaYUL
000016:                                                                                                  ## Contact:     Ron Burkey <info@sandroid.org>.
000017:                                                                                                  ## Website:     www.ibiblio.org/apollo/index.html
000018:                                                                                                  ## Mod history: 2019-07-27 MAS  Created from Luminary 69.
000019:


000021:                                                                                                  #  1)    PROGRAM NAME - TARGET DELTA V PROGRAM (P76).
000022:                                                                                                  #  2)    FUNCTIONAL DESCRIPTION - UPON ENTRY BY ASTRONAUT ACTION, P76 FLASHES DSKY REQUESTS TO THE ASTRONAUT
000023:                                                                                                  #        TO PROVIDE VIA DSKY (1) THE DELTA V TO BE APPLIED TO THE OTHER VEHICLE STATE VECTOR AND (2) THE
000024:                                                                                                  #        TIME (TIG) AT WHICH THE OTHER VEHICLE VELOCITY WAS CHANGED BY  EXECUTION OF A THRUSTING MANEUVER. THE
000025:                                                                                                  #        OTHER VEHICLE STATE VECTOR IS INTEGRATED TO TIG AND UPDATED BY THE ADDITION OF DELTA V (DELTA V HAVING
000026:                                                                                                  #        BEEN TRANSFORMED FROM LV TO REF COSYS).  USING INTEGRVS, THE   PROGRAM THEN INTEGRATES THE OTHER
000027:                                                                                                  #  VEHICLE STATE VECTOR TO THE STATE VECTOR OF THIS VEHICLE, THUS INSURING THAT THE W-MATRIX AND BOTH VEHICLE
000028:                                                                                                  #  STATES CORRESPOND TO THE SAME TIME.
000029:                                                                                                  #  3)    ERASABLE INITIALIZATION REQUIRED - NONE.
000030:                                                                                                  #  4)    CALLING SEQUENCES AND EXIT MODES - CALLED BY ASTRONAUT REQUEST THRU DSKY V 37 E 76E.
000031:                                                                                                  #        EXITS BY TCF ENDOFJOB.
000032:                                                                                                  #  5)    OUTPUT - OTHER VEHICLE STATE VECTOR INTEGRATED TO TIG AND INCREMENTED BY DELTA V IN REF COSYS.
000033:                                                                                                  #        THE PUSHLIST CONTAINS THE MATRIX BY WHICH THE INPUT DELTA V MUST BE POST-MULTIPLIED TO CONVERT FROM LV
000034:                                                                                                  #        TO REF COSYS.
000035:                                                                                                  #  6)    DEBRIS - OTHER VEHICLE STATE VECTOR.
000036:                                                                                                  #  7)    SUBROUTINES CALLED - BANKCALL, GOXDSPF, CSMPREC (OR LEMPREC), ATOPCSM (OR ATOPLEM), INTSTALL, INTWAKE, PHASCHNG
000037:                                                                                                  #        INTPRET, INTEGRVS, AND MINIRECT.
000038:                                                                                                  #  8)    FLAG USE - MOONFLAG, CMOONFLAG, INTYPFLG, RASFLAG, AND MARKCTR.
000039:
000040: 30,2006                                           BANK     30
000041: 13,2000                                           SETLOC   P76LOC
000042: 13,2000                                           BANK
000043:
000044: 13,2207                                           COUNT*   $$/P76
000045:
000046: 13,2207  E7,1437                                  EBANK=   TIG
000047:
000048: 13,2207           05504        P76                TC       UPFLAG
000049: 13,2210           00031                           ADRES    TRACKFLG
000050:
000051: 13,2211           06036                           TC       INTPRET
000052: 13,2212           77775                           VLOAD
000053: 13,2213           03432                                    DELVLVC
000054: 13,2214           02227                           STORE    DELVOV
000055: 13,2215           77776                           EXIT
000056:
000057: 13,2216           32336                           CAF      V06N84                                #  FLASH LAST DELTA V,
000058: 13,2217           04616                           TC       BANKCALL                              #  AND WAIT FOR KEYBOARD ACTION.
000059: 13,2220           20351                           CADR     GOFLASH
000060: 13,2221           12333                           TCF      ENDP76
000061: 13,2222           02224                           TC       +2                                    #  PROCEED
000062: 13,2223           02216                           TC       -5                                    #  STORE DATA AND REPEAT FLASHING
000063: 13,2224           32337                           CAF      V06N84     +1                         #  FLASH VERB 06 NOUN 33, DISPLAY LAST TIG,
000064: 13,2225           04616                           TC       BANKCALL                              #  AND WAIT FOR KEYBOARD ACTION.
000065: 13,2226           20351                           CADR     GOFLASH
000066: 13,2227           12333                           TCF      ENDP76
000067: 13,2230           02232                           TC       +2
000068: 13,2231           02224                           TC       -5
000069: 13,2232           06036                           TC       INTPRET                               #  RETURN TO INTERPRETIVE CODE


000071: 13,2233           77745                           DLOAD                                          #  SET D(MPAC)=TIG IN CSEC B28
000072: 13,2234           03440                                    TIG
000073: 13,2235           34041                           STCALL   TDEC1                                 #  SET TDEC1=TIG FOR ORBITAL INTEGRATION
000074: 13,2236           27043                                    OTHPREC
000075: 13,2237           53575        COMPMAT            VLOAD    UNIT
000076: 13,2240           00001                                    RATT
000077: 13,2241           77676                           VCOMP                                          #  U(-R)
000078: 13,2242           00031                           STORE    24D                                   #  U(-R) TO 24D
000079: 13,2243           53435                           VXV      UNIT                                  #  U(-R) X V = U(V X R)
000080: 13,2244           00007                                    VATT
000081: 13,2245           00023                           STORE    18D
000082: 13,2246           53435                           VXV      UNIT                                  #  U(V X R) X U(-R) = U((R X V) X R)
000083: 13,2247           00031                                    24D
000084: 13,2250           24015                           STOVL    12D
000085: 13,2251           02227                                    DELVOV
000086: 13,2252           76505                           VXM      VSL1                                  #  V(MPAC)=DELTA V IN REFCOSYS
000087: 13,2253           00015                                    12D
000088: 13,2254           77655                           VAD
000089: 13,2255           00007                                    VATT
000090: 13,2256           00007                           STORE    6                                     #  V(PD6)=VATT + DELTA V
000091: 13,2257           77624                           CALL                                           #  PREVENT WOULD-BE USER OF ORBITAL
000092: 13,2260           27412                                    INTSTALL                              #  INTEG FROM INTERFERING WITH UPDATING
000093: 13,2261           77624                           CALL
000094: 13,2262           26340                                    P76SUB1
000095: 13,2263           53775                           VLOAD    VSR*
000096: 13,2264           00007                                    6
000097: 13,2265           57176                                    0,2
000098: 13,2266           25543                           STOVL    VCV
000099: 13,2267           00001                                    RATT
000100: 13,2270           77657                           VSR*
000101: 13,2271           57176                                    0,2
000102: 13,2272           15535                           STODL    RCV
000103: 13,2273           03440                                    TIG
000104: 13,2274           01517                           STORE    TET
000105: 13,2275           71214                           CLEAR    DLOAD
000106: 13,2276           01673                                    INTYPFLG
000107: 13,2277           01643                                    TETTHIS
000108: 13,2300           34041        INTOTHIS           STCALL   TDEC1
000109: 13,2301           27107                                    INTEGRVS
000110: 13,2302           77624                           CALL
000111: 13,2303           27412                                    INTSTALL
000112: 13,2304           77775                           VLOAD
000113: 13,2305           00017                                    RATT1
000114: 13,2306           01503                           STORE    RRECT
000115: 13,2307           15535                           STODL    RCV
000116: 13,2310           00015                                    TAT
000117: 13,2311           25517                           STOVL    TET
000118: 13,2312           00025                                    VATT1
000119: 13,2313           77624                           CALL
000120: 13,2314           23361                                    MINIRECT


000122: 13,2315           77776                           EXIT
000123: 13,2316           05353                           TC       PHASCHNG
000124: 13,2317           04024                           OCT      04024
000125:
000126: 13,2320           05504                           TC       UPFLAG
000127: 13,2321           00236                           ADRES    REINTFLG
000128:
000129: 13,2322           06036                           TC       INTPRET
000130: 13,2323           77624                           CALL
000131: 13,2324           26661                                    ATOPOTH
000132: 13,2325           77531                           SSP      EXIT
000133: 13,2326           00053                                    QPRET
000134: 13,2327           26332                                    OUT
000135: 13,2330           04616                           TC       BANKCALL                              #  PERMIT USE OF ORBITAL INTEGRATION
000136: 13,2331           27447                           CADR     INTWAKE1
000137: 13,2332           77776        OUT                EXIT
000138: 13,2333           34755        ENDP76             CAF      ZERO
000139: 13,2334           55460                           TS       MARKCTR                               #  CLEAR RR TRACKING MARK COUNTER
000140: 13,2335           16001                           TCF      GOTOPOOH
000141:
000142: 13,2336           01524        V06N84             NV       0684
000143: 13,2337           01441                           NV       0633
000144: 13,2340           43174        P76SUB1            AXT,2    SET
000145: 13,2341           00002                                    2
000146: 13,2342           00063                                    MOONFLAG                              #  SET MEANS MOON IS SPHERE OF INFLUENCE.
000147: 13,2343           77014                           BON      AXT,2
000148: 13,2344           04303                                    CMOONFLG                              #  SET MEANS PERM CM STATE IN LUNAR SPHERE.
000149: 13,2345           00052                                    QPRET
000150: 13,2346           00000                                    0
000151: 13,2347           43414                           CLEAR    RVQ
000152: 13,2350           00263                                    MOONFLAG
000153:
000154:
000155:

End of include-file P76.agc.  Parent file is MAIN.agc


