
Source Code


000002:                                                                                                  ## Copyright:   Public domain.
000003:                                                                                                  ## Filename:    PHASE_TABLE_MAINTENANCE.agc
000004:                                                                                                  ## Purpose:     A section of LUM69 revision 2.
000005:                                                                                                  ##              It is part of the reconstructed source code for the flown
000006:                                                                                                  ##              version of the flight software for the Lunar Module's (LM)
000007:                                                                                                  ##              Apollo Guidance Computer (AGC) for Apollo 10. The code has
000008:                                                                                                  ##              been recreated from a copy of Luminary revsion 069, using
000009:                                                                                                  ##              changes present in Luminary 099 which were described in
000010:                                                                                                  ##              Luminary memos 75 and 78. The code has been adapted such
000011:                                                                                                  ##              that the resulting bugger words exactly match those specified
000012:                                                                                                  ##              for LUM69 revision 2 in NASA drawing 2021152B, which gives
000013:                                                                                                  ##              relatively high confidence that the reconstruction is correct.
000014:                                                                                                  ## Reference:   pp. 1288-1296
000015:                                                                                                  ## Assembler:   yaYUL
000016:                                                                                                  ## Contact:     Ron Burkey <info@sandroid.org>.
000017:                                                                                                  ## Website:     www.ibiblio.org/apollo/index.html
000018:                                                                                                  ## Mod history: 2019-07-27 MAS  Created from Luminary 69.
000019:


000021:                                                                                                  #  SUBROUTINE TO UPDATE THE PROGRAM NUMBER DISPLAY ON THE DSKY.
000022:
000023: 43,3732                                           COUNT*   $$/PHASE
000024:    5311                                           BLOCK    02
000025:    4000                                           SETLOC   FFTAG1
000026:    4000                                           BANK
000027:
000028:    5311           50002        NEWMODEX           INDEX    Q                                     #  UPDATE MODREG. ENTRY FOR MODE IN FIXED.
000029:    5312           30000                           CAF      0
000030:    5313           24002                           INCR     Q
000031:
000032:    5314           55011        NEWMODEA           TS       MODREG                                #  ENTRY FOR MODE IN A.
000033:    5315           35320        MMDSPLAY           CAF      +3                                    #  DISPLAY MAJOR MODE.
000034:    5316           22006        PREBJUMP           LXCH     BBANK                                 #  PUTS BBANK IN L
000035:    5317           14640                           TCF      BANKJUMP                              #  PUTS Q INTO A
000036:    5320           20071                           CADR     SETUPDSP
000037:
000038:                                                                                                  #  RETURN TO CALLER +3 IF MODE = THAT AT CALLER +1. OTHERWISE RETURN TO CALLER +2.
000039:
000040:    5321           50002        CHECKMM            INDEX    Q
000041:    5322           40000                           CS       0
000042:    5323           61011                           AD       MODREG
000043:    5324           00006                           EXTEND
000044:    5325           16740                           BZF      Q+2
000045:    5326           16736                           TCF      Q+1                                   #  NO MATCH
000046:
000047:    5327     6741               TCQ                =        Q+2        +1
000048:
000049: 14,3711                                           BANK     14
000050: 10,2000                                           SETLOC   PHASETAB
000051: 10,2000                                           BANK
000052:
000053: 10,2071                                           COUNT*   $$/PHASE
000054: 10,2071           00004        SETUPDSP           INHINT
000055: 10,2072           52071                           DXCH     RUPTREG1                              #  SAVE CALLER-S RETURN 2CADR
000056: 10,2073           34355                           CAF      PRIO30                                #    EITHER A TASK OR JOB CAN COME TO
000057: 10,2074           05072                           TC       NOVAC                                 #    NEWMODE X
000058: 10,2075     1011                                  EBANK=   MODREG
000059: 10,2075           03532 60102                     2CADR    DSPMMJOB
000060:
000061: 10,2077           52071                           DXCH     RUPTREG1
000062: 10,2100           00003                           RELINT
000063: 10,2101           52006                           DXCH     Z                                     #  RETURN
000064:
000065: 10,2102  40,3532               DSPMMJOB           EQUALS   DSPMMJB
000066:
000067:    5327                                           BLOCK    02
000068:    4000                                           SETLOC   FFTAG1
000069:    4000                                           BANK
000070:


000072:                                                                                                  #  PHASCHNG IS THE MAIN WAY OF MAKING PHASE CHANGES FOR RESTARTS.  THERE ARE THREE FORMS OF PHASCHNG, KNOWN AS TYPE
000073:                                                                                                  #  A, TYPE B, AND TYPE C. THEY ARE ALL CALLED AS FOLLOWS, WHERE OCT XXXXX CONTAINS THE PHASE INFORMATION,
000074:                                                                                                  #                TC      PHASCHNG
000075:                                                                                                  #                OCT     XXXXX
000076:                                                                                                  #  TYPE A IS CONCERNED WITH FIXED PHASE CHANGES, THAT IS, PHASE INFORMATION THAT IS STORED PERMANENTLY.  THESE
000077:                                                                                                  #  OPTIONS ARE, WHERE G STANDS FOR A GROUP AND .X FOR THE PHASE,
000078:                                                                                                  #        G.0             INACTIVE, WILLNOT PERMIT A GROUP G RESTART
000079:                                                                                                  #        G.1             WILL CAUSE THE LAST DISPLAY TO BE REACTIVATED, USED MAINLY IN MANNED FLIGHTS
000080:                                                                                                  #        G.EVEN          A DOUBLE TABLE RESTART, CAN CAUSE ANY COMBINATION OF TWO JOBS, TASKS, AND/OR
000081:                                                                                                  #                        LONGCALL TO BE RESTARTED.
000082:                                                                                                  #        G.ODD NOT .1    A SINGLE TABLE RESTART, CAN CAUSE EITHER A JOB, TASK, OR LONGCALL RESTART
000083:
000084:                                                                                                  #  THIS INFORMATION IS PUT INTO THE OCTAL WORD AFTER TC PHASCHNG AS FOLLOWS
000085:                                                                                                  #        TL0 00P PPP PPP GGG                                               ,
000086:                                                                                                  #  WHERE EACH LETTER OR NUMBER STANDS FOR A BIT.  THE G:S STAND FOR THE GROUP, OCTAL 1-7, THE P:S FOR THE PHASE,
000087:                                                                                                  #  OCTAL 0 - 127.  0:S MUST BE 0.              IF ONE WISHES TO HAVE THE TBASE OF GROUP G TO BE SET AT THIS TIME,
000088:                                                                                                  #  T IS SET TO 1, OTHERWISE IT IS SET TO 0.  SIMIARLY IF ONE WISHES TO SET LONGBASE, THEN L IS SET TO 1, OTHERWISE
000089:                                                                                                  #  IT IS SET TO 0.  SOME EXAMPLES,
000090:                                                                                                  #                TC      PHASCHNG        THIS WILL CAUSE GROUP 3 TO BE SET TO 0,
000091:                                                                                                  #                OCT     00003           MAKING GROUP 3 INACTIVE
000092:
000093:                                                                                                  #                TC      PHASCHNG        IF A RESTART OCCURS THIS WOULD CAUSE
000094:                                                                                                  #                OCT     00012           GROUP 2 TO RESTART THE LAST DISPLAY
000095:
000096:                                                                                                  #                TC      PHASCHNG        THIS SETS THE TBASE OF GROUP 4 AND IN
000097:                                                                                                  #                OCT     40064           CASE OF A RESTART WOULD START UP THE TWO
000098:                                                                                                  #                                        THINGS LOCATED IN THE DOUBLE 4.6 RESTART
000099:                                                                                                  #                                        LOCATION
000100:                                                                                                  #                TC      PHASCHNG        THIS SETS LONGBASE AND UPON A RESTART
000101:                                                                                                  #                OCT     20135           CAUSES 5.13 TO BE RESTARTED (SINCE
000102:                                                                                                  #                                        LONGBASE WAS SET THIS SINGLE ENTRY
000103:                                                                                                  #                                        SHOULD BE A LONGCALL)
000104:
000105:                                                                                                  #                TC      PHASCHNG        SINCE BOTH TBASE4 AND LONGBASE ARE SET,
000106:                                                                                                  #                OCT     60124           4.12 SHOULD CONTAIN BOTH A TASK AND A
000107:                                                                                                  #                                        LONGCALL TO BE RESTARTED
000108:
000109:                                                                                                  #  TYPE C PHASCHNG CONTAINS THE VARIABLE TYPE OF PHASCHNG INFORMATION. INSTEAD OF THE INFORMATION BEING IN A
000110:                                                                                                  #  PERMANENT FORM, ONE STORES THE DESIRED RESTART INFORMATION IN A VARIABKE LOCATION. THE BITS ARE AS FOLLOWS,
000111:                                                                                                  #        TL0 1AD XXX CJW GGG
000112:                                                                                                  #  WHERE EACH LETTER OR NUMBER STANDS FOR A BIT.  THE G:S STAND FOR THE GROUP, OCTAL 1 - 7.  IF THE RESTART IS TO
000113:                                                                                                  #  BE BY WAITLIST, W IS SET TO 1, IF IT IS A JOB, J IS SET TO 1, IF IT IS A LONGCALL, C IS SET TO 1.  ONLY ONE OF
000114:                                                                                                  #  THESE THREE BITS MAY BE SET.  X:S ARE IGNORED  1 MUST BE 1, AND 0 MUST BE 0.  AGAIN T STANDS FOR THE TBASE,


000116:                                                                                                  #  AND L FOR LONGBASE.  THE BITS A AND D ARE CONCERNED WITH THE VARIABLE INFORMATION. IF D IS SET TO 1, A PRIORITY
000117:                                                                                                  #  OR DELTA TIME WILL BE READ FROM THE NEXT LOCATION AFTER THE OCTAL INFORMATION, IF THIS IS TO BE INDIRECT, THAT
000118:                                                                                                  #  IS, THE NAME OF A LOCATION COMT+INING THE INFORMATION (DELTA TIME ONLY), THEN THIS IS GIVEN AS THE -GENADR OF
000119:                                                                                                  #  THAT LOCATION WHICH CONTAINS THE DELTA TIME.  IF THE OLD PRIORITY OR DELTA TIME IS TO BE USED, THAT WHICH IS
000120:                                                                                                  #  ALREADY IN THE VARIABLE STORAGE, THEN D IS SET TO 0. NEXT THE A BIT IS USED.  IF IT IS SET TO 0, THE ADDRESS
000121:                                                                                                  #  THAT WOULD BE RESTARTED DURING A RESTART IS THE NEXT LOCATION AFTER  THE PHASE INFORMATION, THAT IS, EITHER
000122:                                                                                                  #  (TC PHASCHNG) +2 OR +3, DEPENDING ON WHETHER D HAD BEEN SET OR NOT.  IF A IS SET TO 1, THEN THE ADDRESS THAT
000123:                                                                                                  #  WOULD BE RESTARTED IS THE 2CADR THAT IS READ FROM THE NEXT TWO LOCATIONS.  EXAMPLES,
000124:                                                                                                  #        AD      TC      PHASCHNG        THIS WOULD CAUSE LOCATION AD +3 TO BE
000125:                                                                                                  #        AD+1    OCT     05023           RESTARTED BY GROUP THREE WITH A PRIORITY
000126:                                                                                                  #        AD+2    OCT     23000           OF 23.  NOTE UPON RETURNING IT WOULD
000127:                                                                                                  #        AD+3                            ALSO GO TO AD+3
000128:
000129:                                                                                                  #        AD      TC      PHASCHNG        GROUP 1 WOULD CAUSE CAUSE CALLCALL TO
000130:                                                                                                  #        AD+1    OCT     27441           BE STARTED AS A LONGCALL FROM THE TIME
000131:                                                                                                  #        AD+2    -GENADR DELTIME         STORED IN LONGBASE (LONGBASE WAS SET) BY
000132:                                                                                                  #        AD+3    2CADR   CALLCALL        A DELTA TIME STORED IN DELTIME.  THE
000133:                                                                                                  #        AD+4                            BBCON OF THE 2CADR SHOULD CONTAIN THE E
000134:                                                                                                  #        AD+5                            BANK OF DELTIME.  PHASCHNG RETURNS TO
000135:                                                                                                  #                                        LOCATION AD+5
000136:
000137:                                                                                                  #  NOTE THAT IF A VARIABLE PRIORITY IS GIVEN FOR A JOB, THE JOB WILL BE RESTARTED AS A NOVAC IF THE PRIORITY IS
000138:                                                                                                  #  NEGATIVE, AS A FINDVAC IF THE PRIORITY IS POSITIVE.
000139:
000140:                                                                                                  #  TYPE B PHASCHNG IS A COMBINATION OF VARIABLE AND FIXED PHASE CHANGES. IT WILL START UP A JOB AS INDICATED
000141:                                                                                                  #  BELOW AND ALSO START UP ONE FIXED RESTART, THAT IS EITHER AN G.1 OR A G.ODD OR THE FIRST ENTRY OF G.EVEN
000142:                                                                                                  #  DOUBLE ENTRY.  THE BIT INFORMATION IS AS FOLLOWS,
000143:                                                                                                  #        TL1 DAP PPP PPP GGG
000144:                                                                                                  #  WHERE EACH LETTER OR NUMBER STANDS FOR A BIT.  THE G:S STAND FOR THE GROUP, OCTAL 1 - 7. THE P:S FOR THE FIXED
000145:                                                                                                  #  PHASE INFORMATION, OCTAL 0 - 127. 1 MUST BE 1.  AND AGAIN T STANDS FOR THE TBASE AND L FOR LONGBASE. D THIS
000146:                                                                                                  #  TIME STANDS ONLY FOR PRIORITY SINCE THIS WILL BE CONSIDERED A JOB, AND IT MUST BE GIVEN DIRECTLY IF GIVEN.
000147:                                                                                                  #  AGAIN A STANDS FOR THE ADDRESS OF THE LOCATION TO BE RESTARTED, 1 IF THE 2CADR IS GIVEN, OR 0 IF IT IS TO BE
000148:                                                                                                  #  THE NEXT LOCATION.  (THE RETURN LOCATION OF PHASCHNG) EXAMPLES,
000149:                                                                                                  #        AD      TC      PHASCHNG        TBASE IS SET AND A RESTART CAUSE GROUP 3
000150:                                                                                                  #        AD+1    OCT     56043           TO START THE JOB AJOBAJOB WITH PRIORITY
000151:                                                                                                  #        AD+2    OCT     31000           31 AND THE FIRST ENTRY OF 3.4SPOT (WE CAN
000152:                                                                                                  #        AD+3    2CADR   AJOBAJOB        ASSUME IT IS A TASK SINCE WE SET TBASE3)
000153:                                                                                                  #        AD+4                            UPON RETURN FROM PHASCHNG CONTROL WOULD
000154:                                                                                                  #        AD+5                            GO TO AD+5
000155:
000156:                                                                                                  #        AD      TC      PHASCHNG        UPON A RESTART THE LAST DISPLAY WOULD BE
000157:                                                                                                  #        AD+1    OCT     10015           RESTARTED AND A JOB WITH THE PREVIOUSLY
000158:                                                                                                  #        AD+2                            STORED PRIORITY WOULD BE BEGUN AT AD+2
000159:                                                                                                  #                                        BY MEANS OF GROUP 5


000161:                                                                                                  #  THE NOVAC-FINDVAC CHOICE FOR JOBS HOLDS HERE ALSO - NEGATIVE PRIORITY CAUSES A NOVAC CALL, POSITIVE A FINDVAC.
000162:
000163:                                                                                                  #  SUMMARY OF BITS
000164:                                                                                                  #        TYPE A          TL0 00P PPP PPP GGG
000165:                                                                                                  #        TYPE B          TL1 DAP PPP PPP GGG
000166:                                                                                                  #        TYPE C          TL0 1AD XXX CJW GGG
000167:


000169:                                                                                                  #  2PHSCHNG IS USED WHEN ONE WISHES TO START UP A GROUP OR CHANGE A GROUP WHILE UNDER THE CONTROL OF A DIFFERENT
000170:                                                                                                  #  GROUP. FOR EXAMPLE, CHANGE THE PHASE OF GROUP 3 WHILE THE PORTION OF THE PROGRAM IS UNDER GROUP 5. ALL 2PHSCHNG
000171:                                                                                                  #  CALLS ARE MADE IN THE FOLLOWING MANNER,
000172:                                                                                                  #                TC      2PHSCHNG
000173:                                                                                                  #                OCT     XXXXX
000174:                                                                                                  #                OCT     YYYYY
000175:                                                                                                  #  WHERE OCT XXXXX MUST BE OF TYPE A AND OCT YYYYY MAY BE OF EITHER TYPE A OR TYPE B OR TYPEC.  THERE IS ONE
000176:                                                                                                  #  DIFFERENCE --- NOTE- IF LONGBASE IS TO BE SET THIS INFORMATION IS GIVEN IN THE OCT YYYYY INFORMATION, IT WILL
000177:                                                                                                  #  BE DISREGARDED IF GIVEN WITH THE OCT XXXXX INFORMATION.  A COUPLE OF EXAMPLES MAY HELP,
000178:                                                                                                  #        AD      TC      2PHSCHNG        SET TBASE3 AND IF A RESTART OCCURS START
000179:                                                                                                  #        AD+1    OCT     40083           THE TWO ENTRIES IN 3.8 TABLE LOCATION
000180:                                                                                                  #        AD+2    OCT     05025           THIS IS OF TYPE C, SET THE JOB TO BE
000181:                                                                                                  #        AD+3    OCT     18000           TO BE LOCATION AD+4, WITH A PRIORITY 18,
000182:                                                                                                  #        AD+4                            FOR GROUP 5 PHASE INFORMATION
000183:
000184:    5327                                           COUNT*   $$/PHASE
000185:    5327           00004        2PHSCHNG           INHINT                                         #  THE ENTRY FOR A DOUBLE PHASE CHANGE
000186:    5330           50002                           NDX      Q
000187:    5331           30000                           CA       0
000188:    5332           24002                           INCR     Q
000189:    5333           54072                           TS       TEMPP2
000190:
000191:    5334           74757                           MASK     OCT7
000192:    5335           60000                           DOUBLE
000193:    5336           54071                           TS       TEMPG2
000194:
000195:    5337           30072                           CA       TEMPP2
000196:    5340           75030                           MASK     OCT17770                              #  NEED ONLY 1770, BUT WHY GET A NEW CONST.
000197:    5341           00006                           EXTEND
000198:    5342           74740                           MP       BIT12
000199:    5343           56072                           XCH      TEMPP2
000200:
000201:    5344           74735                           MASK     BIT15
000202:    5345           54066                           TS       TEMPSW2                               #  INDICATES WHETHER TO SET TBASE OR NOT
000203:
000204:    5346           50002                           INDEX    Q
000205:    5347           30000                           CA       0
000206:    5350           24002                           INCR     Q
000207:    5351           54065                           TS       TEMPSW
000208:
000209:    5352           15363                           TCF      PHASJUMP
000210:
000211:    5353           00004        PHASCHNG           INHINT                                         #  NORMAL PHASCHNG ENTRY POINT.
000212:    5354           50002                           INDEX    Q
000213:    5355           30000                           CA       0
000214:    5356           24002                           INCR     Q
000215:    5357           00004        PHSCHNGA           INHINT                                         #  FIRST OCTAL PARAMETER IN A.


000217:    5360           54065                           TS       TEMPSW
000218:    5361           34753                           CA       ONE
000219:    5362           54066                           TS       TEMPSW2
000220:    5363           00006        PHASJUMP           EXTEND
000221:    5364           35367                           DCA      ADRPCHN2                              #  OFF TO SWITCHED BANK
000222:    5365           52006                           DTCB
000223:
000224:    5366  E3,1400                                  EBANK=   LST1
000225:    5366           02102 20103  ADRPCHN2           2CADR    PHSCHNG2
000226:
000227:    5370           22073        ONEORTWO           LXCH     TEMPBBCN
000228:    5371           22006                           LXCH     BBANK
000229:    5372           22073                           LXCH     TEMPBBCN
000230:
000231:    5373           75024                           MASK     OCT14000                              #  SEE WHAT KIND OF PHASE CHANGE IT IS
000232:    5374           10000                           CCS      A
000233:    5375           17747                           TCF      CHECKB                                #  IT IS OF TYPE :B:
000234:
000235:    5376           30062                           CA       TEMPP
000236:    5377           74745                           MASK     BIT7
000237:    5400           10000                           CCS      A                                     #  SHALL WE USE THE OLD PRIORITY
000238:    5401           15423                           TCF      GETPRIO                               #  NO GET A NEW PRIORITY (OR DELTA T)
000239:
000240:    5402           50061        OLDPRIO            NDX      TEMPG                                 #  USE THE OLD PRIORITY (OR DELTA T)
000241:    5403           31052                           CA       PHSPRDT1   -2
000242:    5404           54070                           TS       TEMPPR
000243:
000244:    5405           30062        CON1               CA       TEMPP                                 #  SEE IF A 2CADR IS GIVEN
000245:    5406           74744                           MASK     BIT8
000246:    5407           10000                           CCS      A
000247:    5410           15427                           TCF      GETNEWNM
000248:
000249:    5411           30002                           CA       Q
000250:    5412           54063                           TS       TEMPNM
000251:    5413           30006                           CA       BB
000252:    5414           00006                           EXTEND                                         #  PICK UP USERS SUPERBANK
000253:    5415           04007                           ROR      SUPERBNK
000254:    5416           54064                           TS       TEMPBB
000255:
000256:    5417           35422        TOCON2             CA       CON2ADR                               #  BACK TO SWITCHED BANK
000257:    5420           22073                           LXCH     TEMPBBCN
000258:    5421           52006                           DTCB
000259:
000260:    5422           02170        CON2ADR            GENADR   CON2
000261:
000262:    5423           50002        GETPRIO            NDX      Q                                     #  DON:T CARE IF DIRECT OR INDIRECT
000263:    5424           30000                           CA       0                                     #  LEAVE THAT DECISION TO RESTARTS
000264:    5425           24002                           INCR     Q                                     #  OBTAIN RETURN ADDRESS


000266:    5426           15404                           TCF      CON1       -1
000267:
000268:    5427           00006        GETNEWNM           EXTEND
000269:    5430           50002                           INDEX    Q
000270:    5431           30001                           DCA      0
000271:    5432           52064                           DXCH     TEMPNM
000272:    5433           34752                           CA       TWO
000273:    5434           26002                           ADS      Q                                     #  OBTAIN RETURN ADDRESS
000274:
000275:    5435           15417                           TCF      TOCON2
000276:
000277:    5436     5024               OCT14000           EQUALS   PRIO14
000278:    5436     0061               TEMPG              EQUALS   ITEMP1
000279:    5436     0062               TEMPP              EQUALS   ITEMP2
000280:    5436     0063               TEMPNM             EQUALS   ITEMP3
000281:    5436     0064               TEMPBB             EQUALS   ITEMP4
000282:    5436     0065               TEMPSW             EQUALS   ITEMP5
000283:    5436     0066               TEMPSW2            EQUALS   ITEMP6
000284:    5436     0070               TEMPPR             EQUALS   RUPTREG1
000285:    5436     0071               TEMPG2             EQUALS   RUPTREG2
000286:    5436     0072               TEMPP2             EQUALS   RUPTREG3
000287:
000288:    5436     0073               TEMPBBCN           EQUALS   RUPTREG4
000289:    5436  0000006               BB                 EQUALS   BBANK
000290:
000291: 14,3711                                           BANK     14
000292: 10,2000                                           SETLOC   PHASETAB
000293: 10,2000                                           BANK
000294:
000295: 10,2102  E3,1436                                  EBANK=   PHSNAME1
000296: 10,2102                                           COUNT*   $$/PHASE
000297: 10,2102           22073        PHSCHNG2           LXCH     TEMPBBCN
000298: 10,2103           30065                           CA       TEMPSW
000299: 10,2104           74757                           MASK     OCT7
000300: 10,2105           60000                           DOUBLE
000301: 10,2106           54061                           TS       TEMPG
000302:
000303: 10,2107           30065                           CA       TEMPSW
000304: 10,2110           75030                           MASK     OCT17770
000305: 10,2111           00006                           EXTEND
000306: 10,2112           74740                           MP       BIT12
000307: 10,2113           54062                           TS       TEMPP
000308:
000309: 10,2114           30065                           CA       TEMPSW
000310: 10,2115           74101                           MASK     OCT60000
000311: 10,2116           56065                           XCH      TEMPSW
000312: 10,2117           75024                           MASK     OCT14000
000313: 10,2120           10000                           CCS      A


000315: 10,2121           15370                           TCF      ONEORTWO
000316:
000317: 10,2122           30062                           CA       TEMPP                                 #  START STORING THE PHASE INFORMATION
000318: 10,2123           50061                           NDX      TEMPG
000319: 10,2124           54751                           TS       PHASE1     -2
000320:
000321: 10,2125           10066        BELOW1             CCS      TEMPSW2                               #  IS IT A PHASCHNG OR A 2PHSCHNG
000322: 10,2126           12142                           TCF      BELOW2                                #  IT:S A PHASCHNG
000323:
000324: 10,2127           12130                           TCF      +1                                    #  IT:S A 2PHSCHNG
000325: 10,2130           40072                           CS       TEMPP2
000326: 10,2131           22072                           LXCH     TEMPP2
000327: 10,2132           50071                           NDX      TEMPG2
000328: 10,2133           52751                           DXCH     -PHASE1    -2
000329:
000330: 10,2134           10066                           CCS      TEMPSW2
000331: 10,2135           12136                           NOOP                                           #  CAN:T GET HERE
000332: 10,2136           12142                           TCF      BELOW2
000333:
000334: 10,2137           40025                           CS       TIME1
000335: 10,2140           50071                           NDX      TEMPG2
000336: 10,2141           55051                           TS       TBASE1     -2
000337:
000338: 10,2142           10065        BELOW2             CCS      TEMPSW                                #  SEE IF WE SHOULD SET TBASE OR LONGBASE
000339: 10,2143           12156                           TCF      BELOW3                                #  SET LONGBASE ONLY
000340: 10,2144           12161                           TCF      BELOW4                                #  SET NEITHER
000341:
000342: 10,2145           40025                           CS       TIME1                                 #  SET TBASE TO BEGIN WITH
000343: 10,2146           50061                           NDX      TEMPG
000344: 10,2147           55051                           TS       TBASE1     -2
000345:
000346: 10,2150           30065                           CA       TEMPSW                                #  SHALL WE NOW SET LONGBASE
000347: 10,2151           62154                           AD       BIT14COM
000348: 10,2152           10000                           CCS      A
000349: 10,2153           12154                           NOOP                                           #  ***** CANT GET HERE *****
000350: 10,2154           17777        BIT14COM           OCT      17777                                 #  ***** CANT GET HERE *****
000351: 10,2155           12161                           TCF      BELOW4                                #  NO WE NEED ONLY SET TBASE
000352:
000353: 10,2156           00006        BELOW3             EXTEND                                         #  SET LONGBASE
000354: 10,2157           30025                           DCA      TIME2
000355: 10,2160           53152                           DXCH     LONGBASE
000356:
000357: 10,2161           40062        BELOW4             CS       TEMPP                                 #  AND STORE THE FINAL PART OF THE PHASE
000358: 10,2162           50061                           NDX      TEMPG
000359: 10,2163           54750                           TS       -PHASE1    -2
000360:
000361: 10,2164           30002                           CA       Q
000362: 10,2165           22073                           LXCH     TEMPBBCN
000363: 10,2166           00003                           RELINT
000364: 10,2167           52006                           DTCB


000366: 10,2170           22073        CON2               LXCH     TEMPBBCN
000367:
000368: 10,2171           30062                           CA       TEMPP
000369: 10,2172           50061                           NDX      TEMPG
000370: 10,2173           54751                           TS       PHASE1     -2
000371:
000372: 10,2174           30070                           CA       TEMPPR
000373: 10,2175           50061                           NDX      TEMPG
000374: 10,2176           55052                           TS       PHSPRDT1   -2
000375:
000376: 10,2177           00006                           EXTEND
000377: 10,2200           30064                           DCA      TEMPNM
000378: 10,2201           50061                           NDX      TEMPG
000379: 10,2202           53435                           DXCH     PHSNAME1   -2
000380:
000381: 10,2203           12125                           TCF      BELOW1
000382:
000383:    7747                                           BLOCK    03
000384:    6000                                           SETLOC   FFTAG6
000385:    6000                                           BANK
000386:
000387:    7747                                           COUNT*   $$/PHASE
000388:    7747           74740        CHECKB             MASK     BIT12                                 #  SINCE THIS IS OF TYPE B, THIS BIT SHOULD
000389:    7750           10000                           CCS      A                                     #   BE HERE IF WE ARE TO GET A NEW PRIORITY
000390:    7751           15423                           TCF      GETPRIO                               #  IT IS, SO GET NEW PRIORITY
000391:
000392:    7752           15402                           TCF      OLDPRIO                               #  IT ISN:T, USE THE OLD PRIORITY
000393:
000394:

End of include-file PHASE_TABLE_MAINTENANCE.agc.  Parent file is MAIN.agc


