
Source Code


000002:                                                                                                  ## Copyright:   Public domain.
000003:                                                                                                  ## Filename:    PINBALL_NOUN_TABLES.agc
000004:                                                                                                  ## Purpose:     A section of LUM69 revision 2.
000005:                                                                                                  ##              It is part of the reconstructed source code for the flown
000006:                                                                                                  ##              version of the flight software for the Lunar Module's (LM)
000007:                                                                                                  ##              Apollo Guidance Computer (AGC) for Apollo 10. The code has
000008:                                                                                                  ##              been recreated from a copy of Luminary revsion 069, using
000009:                                                                                                  ##              changes present in Luminary 099 which were described in
000010:                                                                                                  ##              Luminary memos 75 and 78. The code has been adapted such
000011:                                                                                                  ##              that the resulting bugger words exactly match those specified
000012:                                                                                                  ##              for LUM69 revision 2 in NASA drawing 2021152B, which gives
000013:                                                                                                  ##              relatively high confidence that the reconstruction is correct.
000014:                                                                                                  ## Reference:   pp. 316-333
000015:                                                                                                  ## Assembler:   yaYUL
000016:                                                                                                  ## Contact:     Ron Burkey <info@sandroid.org>.
000017:                                                                                                  ## Website:     www.ibiblio.org/apollo/index.html
000018:                                                                                                  ## Mod history: 2019-07-27 MAS  Created from Luminary 69.
000019:


000021:                                                                                                  #  THE FOLLOWING REFERS TO THE NOUN TABLES
000022:
000023:
000024:                                                                                                  #  COMPONENT CODE NUMBER           INTERPRETATION
000025:
000026:                                                                                                  #  00000                           1 COMPONENT
000027:                                                                                                  #  00001                           2 COMPONENT
000028:                                                                                                  #  00010                           3 COMPONENT
000029:                                                                                                  #  X1XXX                           BIT 4 = 1. DECIMAL ONLY
000030:                                                                                                  #  1XXXX                           BIT 5 = 1. NO LOAD
000031:                                                                                                  #  END OF COMPONENT CODE NUMBERS
000032:
000033:
000034:                                                                                                  #  SF ROUTINE CODE NUMBER          INTERPRETATION
000035:
000036:                                                                                                  #  00000    OCTAL ONLY
000037:                                                                                                  #  00001    STRAIGHT FRACTIONAL
000038:                                                                                                  #  00010    CDU DEGREES (XXX.XX)
000039:                                                                                                  #  00011    ARITHMETIC SF
000040:                                                                                                  #  00100    ARITH DP1   OUT (MULT BY 2EXP14 AT END)   IN (STRAIGHT)
000041:                                                                                                  #  00101    ARITH DP2   OUT (STRAIGHT)                IN (SL 7 AT END)
000042:                                                                                                  #  00110    LANDING RADAR POSITION (+0000X)
000043:                                                                                                  #  00111    ARITH DP3   OUT (SL 7 AT END)        IN ( STRAIGHT)
000044:                                                                                                  #  01000    WHOLE HOURS IN R1, WHOLE MINUTES (MOD 60) IN R2,
000045:                                                                                                  #              SECONDS (MOD 60) 0XX.XX IN R3. *** ALARMS IF USED WITH OCTAL
000046:                                                                                                  #  01001    MINUTES (MOD 60) IN D1D2, D3 BLANK, SECONDS (MOD 60) IN D4D5
000047:                                                                                                  #                          LIMITS TO 59B59 IF MAG EXCEEDS THIS VALUE.
000048:                                                                                                  #                          ALARMS IF USED WITH OCTAL  ********  IN (ALARM)
000049:                                                                                                  #  01010    ARITH DP4   OUT (STRAIGHT)                  IN (SL 3 AT END)
000050:                                                                                                  #  01011    ARITH1 SF   OUT(MULT BY 2EXP14 AT END)    IN(STRAIGHT)
000051:                                                                                                  #  01100    2 INTEGERS IN D1D2, D4D5, D3 BLANK.
000052:                                                                                                  #                          ALARMS IF USED WITH OCTAL  ********  IN (ALARM)
000053:                                                                                                  #  01101    360-CDU DEGREES (XXX.XX)
000054:                                                                                                  #  END OF SF ROUTINE CODE NUMBERS
000055:
000056:
000057:                                                                                                  #  SF CONSTANT CODE NUMBER         INTERPRETATION
000058:
000059:                                                                                                  #  00000                           WHOLE                       USE ARITH
000060:                                                                                                  #  00000                           DP TIME SEC (XXX.XX SEC)    USE ARITHDP1
000061:                                                                                                  #  00000                           LR POSITION (+0000X)     USE LR POSITION
000062:                                                                                                  #  00001                           SPARE
000063:                                                                                                  #  00010                           CDU DEGREES              USE CDU DEGREES
000064:                                                                                                  #  00010                           360-CDU DEGREES      USE 360-CDU DEGREES
000065:                                                                                                  #  00011                           DP DEGREES (90) XX.XXX DEG  USE ARITHDP3
000066:                                                                                                  #  00100                           DP DEGREES (360) XXX.XX DEG USE ARITHDP4
000067:                                                                                                  #  00101                           DEGREES (180) XXX.XX DEG    USE ARITH
000068:                                                                                                  #  00101                           OPTICAL TRACKER AZIMUTH ANGLE(XXX.XXDEG)
000069:                                                                                                  #                                                              USE ARITHDP1
000070:                                                                                                  #  00110                           WEIGHT2 (XXXXX. LBS)        USE ARITH1
000071:


000073:                                                                                                  #  00111                           POSITION5 (XXX.XX NAUTICAL MILES)
000074:                                                                                                  #                                                              USE ARITHDP3
000075:                                                                                                  #  01000                           POSITION4 (XXXX.X NAUTICAL MILES)
000076:                                                                                                  #                                                              USE ARITHDP3
000077:                                                                                                  #  01001                           VELOCITY2 (XXXXX. FT/SEC)   USE ARITHDP4
000078:                                                                                                  #  01010                           VELOCITY3 (XXXX.X FT/SEC)   USE ARITHDP3
000079:                                                                                                  #  01011                           ELEVATION DEGREES(89.999MAX) USE ARITH
000080:                                                                                                  #  01100                           RENDEZVOUS RADAR RANGE (XXX.XX NAUT MI)
000081:                                                                                                  #                                                              USE ARITHDP1
000082:                                                                                                  #  01101                           RENDEZVOUS RADAR RANGE RATE(XXXXX.FT/SEC
000083:                                                                                                  #                                                              USE ARITHDP1
000084:                                                                                                  #  01110                           LANDING RADAR ALTITUDE(XXXXX.FEET)
000085:                                                                                                  #                                                              USE ARITHDP1
000086:                                                                                                  #  01111                           INITIAL/FINAL ALTITUDE(XXXXX.FEET)
000087:                                                                                                  #                                                              USE ARITHDP1
000088:                                                                                                  #  10000                           ALTITUDE RATE(XXXXX.FT/SEC)    USE ARITH
000089:                                                                                                  #  10001                           FORWARD/LATERAL VELOCITY(XXXXX.FEET/SEC)
000090:                                                                                                  #                                                                 USE ARITH
000091:                                                                                                  #  10010                           ROTATIONAL HAND CONTROLLER ANGLE RATES
000092:                                                                                                  #                                        XXXXX.DEG/SEC            USE ARITH
000093:                                                                                                  #  10011                           LANDING RADAR VELX(XXXXX.FEET/SEC)
000094:                                                                                                  #                                                              USE ARITHDP1
000095:                                                                                                  #  10100                           LANDING RADAR VELY(XXXXX.FEET/SEC)
000096:                                                                                                  #                                                              USE ARITHDP1
000097:                                                                                                  #  10101                           LANDING RADAR VELZ(XXXXX.FEET/SEC)
000098:                                                                                                  #                                                              USE ARITHDP1
000099:                                                                                                  #  10110                           POSITION7 (XXXX.X NAUT MI)  USE ARITHDP4
000100:                                                                                                  #  10111                           TRIM DEGREES2 (XXX.XX DEG)  USE ARITH
000101:                                                                                                  #  11000                           COMPUTED ALTITUDE (XXXXX. FEET)
000102:                                                                                                  #                                                              USE ARITHDP1
000103:                                                                                                  #  11001                           DP DEGREES (XXXX.X DEG)     USE ARITHDP3
000104:                                                                                                  #  11010                           POSITION9 (XXX.XX NAUT MI)  USE ARITHDP4
000105:                                                                                                  #  11011                           VELOCITY4 (XXXX.X FT/SEC)   USE ARITHDP2
000106:                                                                                                  #  END OF SF CONSTANT CODE NUMBERS
000107:
000108:
000109:                                                                                                  #  FOR GREATER THAN SINGLE PRECISION SCALES, PUT ADDRESS OF MAJOR PART INTO
000110:                                                                                                  #  NOUN TABLES.
000111:                                                                                                  #  OCTAL LOADS PLACE +0 INTO MAJOR PART, DATA INTO MINOR PART.
000112:                                                                                                  #  OCTAL DISPLAYS SHOW MINOR PART ONLY.
000113:                                                                                                  #  TO GET AT BOTH MAJOR AND MINOR PARTS(IN OCTAL), USE NOUN 01.
000114:
000115:
000116:                                                                                                  #  A NOUN MAY BE DECLARED :DECIMAL ONLY: BY MAKING BIT4=1 OF ITS COMPONENT
000117:                                                                                                  #  CODE NUMBER. IF THIS NOUN IS USED WITH ANY OCTAL DISPLAY VERB, OR IF
000118:                                                                                                  #  DATA IS LOADED IN OCTAL, IT ALARMS.
000119:
000120:                                                                                                  #  IN LOADING AN :HOURS, MINUTES, SECONDS: NOUN, ALL 3 WORDS MUST BE
000121:                                                                                                  #  LOADED, OR ALARM.
000122:                                                                                                  #  ALARM IF AN ATTEMPT IS MADE TO LOAD :SPLIT MINUTES/SECONDS: (MMBSS).
000123:


000125:                                                                                                  #  THIS IS USED FOR DISPLAY ONLY.
000126:


000128:                                                                                                  #  THE FOLLOWING ROUTINES ARE FOR READING THE NOUN TABLES AND THE SF TABLES
000129:                                                                                                  #  (WHICH ARE IN A SEPARATE BANK FROM THE REST OF PINBALL). THESE READING
000130:                                                                                                  #  ROUTINES ARE IN THE SAME BANK AS THE TABLES. THEY ARE CALLED BY DXCH Z.
000131:
000132:
000133:                                                                                                  #  LODNNTAB LOADS NNADTEM WITH THE NNADTAB ENTRY, NNTYPTEM WITH THE
000134:                                                                                                  #  NNTYPTAB ENTRY. IF THE NOUN IS MIXED, IDAD1TEM IS LOADED WITH THE FIRST
000135:                                                                                                  #  IDADDTAB ENTRY, IDAD2TEM THE SECOND IDADDTAB ENTRY, IDAD3TEM THE THIRD
000136:                                                                                                  #  IDADDTAB ENTRY, RUTMXTEM WITH THE RUTMXTAB ENTRY. MIXBR IS SET FOR
000137:                                                                                                  #  MIXED OR NORMAL NOUN.
000138:
000139: 06,3263                                           BANK     6
000140: 42,2000                                           SETLOC   PINBALL3
000141: 42,2000                                           BANK
000142: 42,2103                                           COUNT*   $$/NOUNS
000143: 42,2103           52152        LODNNTAB           DXCH     IDAD2TEM                              #  SAVE RETURN INFO IN IDAD2TEM, IDAD3TEM.
000144: 42,2104           51002                           INDEX    NOUNREG
000145: 42,2105           32154                           CAF      NNADTAB
000146: 42,2106           54146                           TS       NNADTEM
000147: 42,2107           51002                           INDEX    NOUNREG
000148: 42,2110           32320                           CAF      NNTYPTAB
000149: 42,2111           54147                           TS       NNTYPTEM
000150: 42,2112           41002                           CS       NOUNREG
000151: 42,2113           64771                           AD       MIXCON
000152: 42,2114           00006                           EXTEND
000153: 42,2115           62121                           BZMF     LODMIXNN                              #  NOUN NUMBER G/E FIRST MIXED NOUN
000154: 42,2116           34753                           CAF      ONE                                   #  NOUN NUMBER L/ FIRST MIXED NOUN
000155: 42,2117           54140                           TS       MIXBR                                 #  NORMAL.  +1 INTO MIXBR.
000156: 42,2120           02137                           TC       LODNLV
000157: 42,2121           34752        LODMIXNN           CAF      TWO                                   #  MIXED.  +2 INTO MIXBR.
000158: 42,2122           54140                           TS       MIXBR
000159: 42,2123           51002                           INDEX    NOUNREG
000160: 42,2124           33060                           CAF      RUTMXTAB   -40D                       #  FIRST MIXED NOUN = 40.
000161: 42,2125           54153                           TS       RUTMXTEM
000162: 42,2126           35012                           CAF      LOW10
000163: 42,2127           70146                           MASK     NNADTEM
000164: 42,2130           54002                           TS       Q                                     #  TEMP
000165: 42,2131           50000                           INDEX    A
000166: 42,2132           32644                           CAF      IDADDTAB
000167: 42,2133           54150                           TS       IDAD1TEM                              #  LOAD IDAD1TEM WITH FIRST IDADDTAB ENTRY
000168: 42,2134           00006                           EXTEND
000169: 42,2135           50002                           INDEX    Q                                     #  LOAD IDAD2TEM WITH 2ND IDADDTAB ENTRY
000170: 42,2136           32646                           DCA      IDADDTAB   +1                         #  LOAD IDAD3TEM WITH 3RD IDADDTAB ENTRY.
000171: 42,2137           52152        LODNLV             DXCH     IDAD2TEM                              #  PUT RETURN INFO INTO A, L.
000172: 42,2140           52006                           DXCH     Z
000173:
000174: 42,2141     4771               MIXCON             =        OCT50                                 #  (DEC 40)
000175:                                                                                                  #  GTSFOUT LOADS SFTEMP1, SFTEMP2 WITH THE DP SFOUTAB ENTRIES.
000176:
000177: 42,2141           52124        GTSFOUT            DXCH     SFTEMP1                               #  2X(SFCONUM) ARRIVES IN SFTEMP1.
000178:


000180: 42,2142           00006                           EXTEND
000181: 42,2143           50000                           INDEX    A
000182: 42,2144           32555                           DCA      SFOUTAB
000183: 42,2145           52124        SFCOM              DXCH     SFTEMP1
000184: 42,2146           52006                           DXCH     Z
000185:
000186:
000187:                                                                                                  #  GTSFIN LOADS SFTEMP1, SFTEMP2 WITH THE DP SFINTAB ENTRIES.
000188:
000189: 42,2147           52124        GTSFIN             DXCH     SFTEMP1                               #  2X(SFCONUM) ARRIVES IN SFTEMP1.
000190: 42,2150           00006                           EXTEND
000191: 42,2151           50000                           INDEX    A
000192: 42,2152           32465                           DCA      SFINTAB
000193: 42,2153           12145                           TCF      SFCOM
000194:
000195:                                                                                                  #  NN  NORMAL NOUNS
000196: 42,2154           00000        NNADTAB            OCT      00000                                 #  00 NOT IN USE
000197: 42,2155           40000                           OCT      40000                                 #  01 SPECIFY MACHINE ADDRESS (FRACTIONAL)
000198: 42,2156           40000                           OCT      40000                                 #  02 SPECIFY MACHINE ADDRESS (WHOLE)
000199: 42,2157           40000                           OCT      40000                                 #  03 SPECIFY MACHINE ADDRESS (DEGREES)
000200: 42,2160           01045                           ECADR    DSPTEM1                               #  04 ANGULAR ERROR/DIFFERENCE
000201: 42,2161           01045                           ECADR    DSPTEM1                               #  05 ANGULAR ERROR/DIFFERENCE
000202: 42,2162           01144                           ECADR    OPTION1                               #  06 OPTION CODE
000203: 42,2163           01003                           ECADR    XREG                                  #  07 ECADR OF WORD TO BE MODIFIED
000204:                                                                                                  #     ONES FOR BITS TO BE MODIFIED
000205:                                                                                                  #     1 TO SET OR 0 TO RESET SELECTED BITS
000206: 42,2164           01363                           ECADR    ALMCADR                               #  08 ALARM DATA
000207: 42,2165           00375                           ECADR    FAILREG                               #  09 ALARM CODES
000208: 42,2166           77776                           OCT      77776                                 #  10 CHANNEL TO BE SPECIFIED
000209: 42,2167           03631                           ECADR    TCSI                                  #  11 TIG OF CSI (HRS,MIN,SEC)
000210: 42,2170           01051                           ECADR    OPTIONX                               #  12 OPTION CODE
000211:                                                                                                  #        (USED BY EXTENDED VERBS ONLY)
000212: 42,2171           03373                           ECADR    TCDH                                  #  13 TIG OF CDH (HRS,MIN,SEC)
000213: 42,2172           01051                           ECADR    DSPTEMX                               #  14 CHECKLIST
000214:                                                                                                  #        (USED BY EXTENDED VERBS ONLY)
000215: 42,2173           77777                           OCT      77777                                 #  15 INCREMENT MACHINE ADDRESS
000216: 42,2174           01051                           ECADR    DSPTEMX                               #  16 TIME OF EVENT (HRS,MIN,SEC)
000217: 42,2175           00000                           OCT      00000                                 #  17 SPARE
000218: 42,2176           02350                           ECADR    FDAIX                                 #  18 AUTO MANEUVER BALL ANGLES
000219: 42,2177           00000                           OCT      00000                                 #  19 SPARE
000220: 42,2200           00032                           ECADR    CDUX                                  #  20 ICDU ANGLES
000221: 42,2201           00037                           ECADR    PIPAX                                 #  21 PIPAS
000222: 42,2202           00321                           ECADR    THETAD                                #  22 NEW ICDU ANGLES
000223: 42,2203           00000                           OCT      00000                                 #  23 SPARE
000224: 42,2204           01051                           ECADR    DSPTEM2    +1                         #  24 DELTA TIME FOR AGC CLOCK(HRS,MIN,SEC)
000225: 42,2205           01045                           ECADR    DSPTEM1                               #  25 CHECKLIST
000226:                                                                                                  #        (USED WITH PLEASE PERFORM ONLY)
000227: 42,2206           01045                           ECADR    DSPTEM1                               #  26 PRIO/DELAY, ADRES, BBCON
000228: 42,2207           01362                           ECADR    SMODE                                 #  27 SELF TEST ON/OFF SWITCH
000229:


000231: 42,2210           00000                           OCT      00000                                 #  28 SPARE
000232: 42,2211           00000                           OCT      00000                                 #  29 SPARE
000233: 42,2212           00000                           OCT      0                                     #  30 SPARE
000234: 42,2213           00000                           OCT      0                                     #  31 SPARE
000235: 42,2214           02142                           ECADR    -TPER                                 #  32 TIME TO PERIGEE (HRS,MIN,SEC)
000236: 42,2215           03437                           ECADR    TIG                                   #  33 TIME OF IGNITION (HRS,MIN(SEC)
000237: 42,2216           01045                           ECADR    DSPTEM1                               #  34 TIME OF EVENT (HRS,MIN,SEC)
000238: 42,2217           03451                           ECADR    TTOGO                                 #  35 TIME TO GO TO EVENT (HRS,MIN,SEC)
000239: 42,2220           00024                           ECADR    TIME2                                 #  36 TIME OF AGC CLOCK (HRS,MIN,SEC)
000240: 42,2221           03633                           ECADR    TTPI                                  #  37 TIG OF TPI (HRS,MIN,SEC)
000241: 42,2222           01516                           ECADR    TET                                   #  38 TIME OF STATE BEING INTEGRATED
000242: 42,2223           00000                           OCT      00000                                 #  39 SPARE
000243:                                                                                                  #  END OF NNADTAB FOR NORMAL NOUNS
000244:
000245:
000246:                                                                                                  #  NN  MIXED NOUNS
000247: 42,2224           64000                           OCT      64000                                 #  40 TIME TO IGNITION/CUTOFF
000248:                                                                                                  #     VG
000249:                                                                                                  #     DELTA V (ACCUMULATED)
000250: 42,2225           02003                           OCT      02003                                 #  41 TARGET  AZIMUTH
000251:                                                                                                  #             ELEVATION
000252: 42,2226           24006                           OCT      24006                                 #  42 APOGEE
000253:                                                                                                  #     PERIGEE
000254:                                                                                                  #     DELTA V (REQUIRED)
000255: 42,2227           24011                           OCT      24011                                 #  43 LATITUDE
000256:                                                                                                  #     LONGITUDE
000257:                                                                                                  #     ALTITUDE
000258: 42,2230           64014                           OCT      64014                                 #  44 APOGEE
000259:                                                                                                  #     PERIGEE
000260:                                                                                                  #     TFF
000261: 42,2231           64017                           OCT      64017                                 #  45 MARKS
000262:                                                                                                  #     TTI OF NEXT BURN
000263:                                                                                                  #     MGA
000264: 42,2232           00022                           OCT      00022                                 #  46 AUTOPILOT CONFIGURATION
000265: 42,2233           22025                           OCT      22025                                 #  47 LEM WEIGHT
000266:                                                                                                  #     CSM WEIGHT
000267: 42,2234           22030                           OCT      22030                                 #  48 GIMBAL PITCH TRIM
000268:                                                                                                  #     GIMBAL ROLL TRIM
000269: 42,2235           22033                           OCT      22033                                 #  49 DELTA R
000270:                                                                                                  #     DELTA V
000271: 42,2236           00000                           OCT      0                                     #  50 SPARE
000272: 42,2237           22041                           OCT      22041                                 #  51 S-BAND ANTENNA PITCH
000273:                                                                                                  #                    YAW
000274: 42,2240           00044                           OCT      00044                                 #  52 CENTRAL ANGLE OF ACTIVE VEHICLE
000275: 42,2241           00000                           OCT      00000                                 #  53 SPARE
000276: 42,2242           24052                           OCT      24052                                 #  54 RANGE
000277:                                                                                                  #     RANGE RATE
000278:                                                                                                  #     THETA
000279: 42,2243           24055                           OCT      24055                                 #  55 NO. OF APSIDAL CROSSINGS
000280:                                                                                                  #     ELEVATION ANGLE
000281:


000283:                                                                                                  #     CENTRAL ANGLE
000284: 42,2244           02060                           OCT      02060                                 #  56 RR LOS  AZIMUTH
000285:                                                                                                  #             ELEVATION
000286: 42,2245           20063                           OCT      20063                                 #  57 DELTA R
000287: 42,2246           24066                           OCT      24066                                 #  58 PERIGEE ALT
000288:                                                                                                  #     DELTA V TPI
000289:                                                                                                  #     DELTA V TPF
000290: 42,2247           24071                           OCT      24071                                 #  59 DELTA VELOCITY LOS
000291: 42,2250           24074                           OCT      24074                                 #  60 HORIZONTAL VELOCITY
000292:                                                                                                  #     ALTITUDE RATE
000293:                                                                                                  #     COMPUTED ALTITUDE
000294: 42,2251           64077                           OCT      64077                                 #  61 TIME TO GO IN BRAKING PHASE
000295:                                                                                                  #     TIME TO IGNITION
000296:                                                                                                  #     CROSS RANGE DISTANCE
000297: 42,2252           64102                           OCT      64102                                 #  62 ABSOLUTE VALUE OF VELOCITY
000298:                                                                                                  #     TIME TO IGNITION
000299:                                                                                                  #     DELTA V (ACCUMULATED)
000300: 42,2253           24105                           OCT      24105                                 #  63 ABSOLUTE VALUE OF VELOCITY
000301:                                                                                                  #     ALTITUDE RATE
000302:                                                                                                  #     COMPUTED ALTITUDE
000303: 42,2254           64110                           OCT      64110                                 #  64 TIME LEFT FOR REDESIGNATION-LPD ANGLE
000304:                                                                                                  #     ALTITUDE RATE
000305:                                                                                                  #     COMPUTED ALTITUDE
000306: 42,2255           24113                           OCT      24113                                 #  65 SAMPLED AGC TIME (HRS,MIN,SEC)
000307:                                                                                                  #     (FETCHED IN INTERRUPT)
000308: 42,2256           62116                           OCT      62116                                 #  66 LR RANGE
000309:                                                                                                  #        POSITION
000310: 42,2257           04121                           OCT      04121                                 #  67 LRVX
000311:                                                                                                  #     LRVY
000312:                                                                                                  #     LRVZ
000313: 42,2260           64124                           OCT      64124                                 #  68 SLANT RANGE TO LANDING SIGHT
000314:                                                                                                  #     TIME TO GO IN BRAKING PHASE
000315:                                                                                                  #     LR ALTITUDE - COMPUTED ALTITUDE
000316: 42,2261           00000                           OCT      00000                                 #  69 SPARE
000317: 42,2262           04132                           OCT      04132                                 #  70 AOT DETENT CODE/STAR CODE
000318: 42,2263           04135                           OCT      04135                                 #  71 AOT DETENT CODE/STAR CODE
000319: 42,2264           02140                           OCT      02140                                 #  72 RR  360 - TRUNNION ANGLE
000320:                                                                                                  #         SHAFT ANGLE
000321: 42,2265           02143                           OCT      02143                                 #  73 NEW RR  360 - TRUNNION ANGLE
000322:                                                                                                  #             SHAFT ANGLE
000323: 42,2266           64146                           OCT      64146                                 #  74 TIME TO IGNITION
000324:                                                                                                  #     YAWAFTER VEHICLE RISE
000325:                                                                                                  #     PITCH AFTER VEHICLE RISE
000326: 42,2267           64151                           OCT      64151                                 #  75 DELTA ALTITUDE CDH
000327:                                                                                                  #     DELTA TIME (CDH-CSI OR TPI-CDH)
000328:                                                                                                  #     DELTA TIME (TPI-CDH OR TPI-NOMTPI)
000329: 42,2270           22154                           OCT      22154                                 #  76 CROSS-RANGE DISTANCE
000330:                                                                                                  #     APOCYNTHION ALTITUDE
000331: 42,2271           62157                           OCT      62157                                 #  77 TIME TO ENGINE CUTOFF
000332:                                                                                                  #     VELOCITY NORMAL TO CSM PLANE
000333:


000335: 42,2272           02162                           OCT      02162                                 #  78 RR RANGE
000336:                                                                                                  #        RANGE RATE
000337: 42,2273           24165                           OCT      24165                                 #  79 CURSOR ANGLE
000338:                                                                                                  #     SPIRAL ANGLE
000339:                                                                                                  #     POSITION CODE
000340: 42,2274           02170                           OCT      02170                                 #  80 DATA INDICATOR
000341:                                                                                                  #     OMEGA
000342: 42,2275           24173                           OCT      24173                                 #  81 DELTA V (LV)
000343: 42,2276           24176                           OCT      24176                                 #  82 DELTA V (LV)
000344: 42,2277           24201                           OCT      24201                                 #  83 DELTA V (BODY)
000345: 42,2300           24204                           OCT      24204                                 #  84 DELTA V (OTHER VEHICLE)
000346: 42,2301           24207                           OCT      24207                                 #  85 VG (BODY)
000347: 42,2302           24212                           OCT      24212                                 #  86 VG (LV)
000348: 42,2303           02215                           OCT      02215                                 #  87 BACKUP OPTICS LOS AZIMUTH
000349:                                                                                                  #                       ELEVATION
000350: 42,2304           24220                           OCT      24220                                 #  88 HALF UNIT SUN OR PLANET VECTOR
000351: 42,2305           24223                           OCT      24223                                 #  89 LANDMARK LATITUDE
000352:                                                                                                  #              LONGITUDE/2
000353:                                                                                                  #              ALTITUDE
000354: 42,2306           24226                           OCT      24226                                 #  90 Y
000355:                                                                                                  #     Y DOT
000356:                                                                                                  #     PSI
000357: 42,2307           00000                           OCT      00000                                 #  91 SPARE
000358: 42,2310           00000                           OCT      00000                                 #  92 SPARE
000359: 42,2311           04237                           OCT      04237                                 #  93 DELTA GYRO ANGLES
000360: 42,2312           00000                           OCT      00000                                 #  94 SPARE
000361: 42,2313           00000                           OCT      0                                     #  95 SPARE
000362: 42,2314           00000                           OCT      0                                     #  96 SPARE
000363: 42,2315           04253                           OCT      04253                                 #  97 SYSTEM TEST INPUTS
000364: 42,2316           04256                           OCT      04256                                 #  98 SYSTEM TEST RESULTS
000365: 42,2317           22261                           OCT      22261                                 #  99 RMS IN POSITION
000366:                                                                                                  #     RMS IN VELOCITY
000367:                                                                                                  #  END OF NNADTAB FOR MIXED NOUNS
000368:
000369:
000370:                                                                                                  #  NN        NORMAL NOUNS
000371: 42,2320           00000        NNTYPTAB           OCT      00000                                 #  00 NOT IN USE
000372: 42,2321           04040                           OCT      04040                                 #  01 3COMP  FRACTIONAL
000373: 42,2322           04140                           OCT      04140                                 #  02 3COMP  WHOLE
000374: 42,2323           04102                           OCT      04102                                 #  03 3COMP  CDU DEGREES
000375: 42,2324           00504                           OCT      00504                                 #  04 1COMP  DPDEG(360)
000376: 42,2325           00504                           OCT      00504                                 #  05 1COMP  DPDEG(360)
000377: 42,2326           04000                           OCT      04000                                 #  06 3COMP  OCTAL ONLY
000378: 42,2327           04000                           OCT      04000                                 #  07 3COMP  OCTAL ONLY
000379: 42,2330           04000                           OCT      04000                                 #  08 3COMP  OCTAL ONLY
000380: 42,2331           04000                           OCT      04000                                 #  09 3COMP  OCTAL ONLY
000381: 42,2332           00000                           OCT      00000                                 #  10 1COMP  OCTAL ONLY
000382: 42,2333           24400                           OCT      24400                                 #  11 3COMP  HMS (DEC ONLY)
000383: 42,2334           02000                           OCT      02000                                 #  12 2COMP  OCTAL ONLY
000384: 42,2335           24400                           OCT      24400                                 #  13 3COMP  HMS (DEC ONLY)
000385:


000387: 42,2336           04140                           OCT      04140                                 #  14 3COMP  WHOLE
000388: 42,2337           00000                           OCT      00000                                 #  15 1COMP  OCTAL ONLY
000389: 42,2340           24400                           OCT      24400                                 #  16 3COMP  HMS (DEC ONLY)
000390: 42,2341           00000                           OCT      0                                     #  17       SPARE
000391: 42,2342           04102                           OCT      04102                                 #  18 3COMP  CDU DEG
000392: 42,2343           00000                           OCT      00000                                 #  19        SPARE
000393: 42,2344           04102                           OCT      04102                                 #  20 3COMP  CDU DEGREES
000394: 42,2345           04140                           OCT      04140                                 #  21 3COMP  WHOLE
000395: 42,2346           04102                           OCT      04102                                 #  22 3COMP  CDU DEGREES
000396: 42,2347           00000                           OCT      00000                                 #  23        SPARE
000397: 42,2350           24400                           OCT      24400                                 #  24 3COMP  HMS (DEC ONLY)
000398: 42,2351           04140                           OCT      04140                                 #  25 3COMP  WHOLE
000399: 42,2352           04000                           OCT      04000                                 #  26 3COMP  OCTAL ONLY
000400: 42,2353           00140                           OCT      00140                                 #  27 1COMP  WHOLE
000401: 42,2354           00000                           OCT      00000                                 #  28        SPARE
000402: 42,2355           00000                           OCT      00000                                 #  29        SPARE
000403: 42,2356           00000                           OCT      0                                     #  30 SPARE
000404: 42,2357           00000                           OCT      0                                     #  31 SPARE
000405: 42,2360           24400                           OCT      24400                                 #  32 3COMP  HMS (DEC ONLY)
000406: 42,2361           24400                           OCT      24400                                 #  33 3COMP  HMS (DEC ONLY)
000407: 42,2362           24400                           OCT      24400                                 #  34 3COMP  HMS (DEC ONLY)
000408: 42,2363           24400                           OCT      24400                                 #  35 3COMP  HMS (DEC ONLY)
000409: 42,2364           24400                           OCT      24400                                 #  36 3COMP  HMS (DEC ONLY)
000410: 42,2365           24400                           OCT      24400                                 #  37 3COMP  HMS (DEC ONLY)
000411: 42,2366           24400                           OCT      24400                                 #  38 3COMP  HMS (DEC ONLY)
000412: 42,2367           00000                           OCT      00000                                 #  39        SPARE
000413:                                                                                                  #  END OF NNTYPTAB FOR NORMAL NOUNS
000414:
000415:
000416:                                                                                                  #  NN   MIXED NOUNS
000417: 42,2370           24500                           OCT      24500                                 #  40 3COMP  MIN/SEC, VEL3, VEL3
000418:                                                                                                  #            (NO LOAD, DEC ONLY)
000419: 42,2371           00542                           OCT      00542                                 #  41 2COMP  CDU DEG, ELEV DEG
000420: 42,2372           24410                           OCT      24410                                 #  42 3COMP  POS4, POS4, VEL3
000421:                                                                                                  #            (DEC ONLY)
000422: 42,2373           20204                           OCT      20204                                 #  43 3COMP  DPDEG(360), DPDEG(360), POS4
000423:                                                                                                  #            (DEC ONLY)
000424: 42,2374           00410                           OCT      00410                                 #  44 3COMP  POS4, POS4, MIN/SEC
000425:                                                                                                  #            (NO LOAD, DEC ONLY)
000426: 42,2375           10000                           OCT      10000                                 #  45 3COMP  WHOLE, MIN/SEC, DPDEG(360)
000427:                                                                                                  #            (NO LOAD, DEC ONLY)
000428: 42,2376           00000                           OCT      00000                                 #  46 1COMP  OCTAL ONLY
000429: 42,2377           00306                           OCT      00306                                 #  47 2COMP WEIGHT2 FOR EACH
000430:                                                                                                  #            (DEC ONLY)
000431: 42,2400           01367                           OCT      01367                                 #  48 2COMP  TRIM DEG2 FOR EACH
000432:                                                                                                  #            (DEC ONLY)
000433: 42,2401           00510                           OCT      00510                                 #  49 2COMP  POS4, VEL3
000434:                                                                                                  #            (DEC ONLY)
000435: 42,2402           00000                           OCT      0                                     #  50        SPARE
000436: 42,2403           00204                           OCT      00204                                 #  51 2COMP  DPDEG(360), DPDEG(360)
000437:


000439:                                                                                                  #            (DEC ONLY)
000440: 42,2404           00004                           OCT      00004                                 #  52 1COMP  DPDEG(360)
000441: 42,2405           00000                           OCT      00000                                 #  53        SPARE
000442: 42,2406           10507                           OCT      10507                                 #  54 3COMP  POS5, VEL3, DPDEG(360)
000443:                                                                                                  #            (DEC ONLY)
000444: 42,2407           10200                           OCT      10200                                 #  55 3COMP  WHOLE, DPDEG(360), DPDEG(360)
000445:                                                                                                  #            (DEC ONLY)
000446: 42,2410           00204                           OCT      00204                                 #  56 2COMP  DPDEG(360), DPDEG(360)
000447: 42,2411           00010                           OCT      00010                                 #  57 1COMP  POS4
000448:                                                                                                  #            (DEC ONLY)
000449: 42,2412           24510                           OCT      24510                                 #  58 3COMP  POS4, VEL3, VEL3
000450:                                                                                                  #            (DEC ONLY)
000451: 42,2413           24512                           OCT      24512                                 #  59 3COMP  VEL3 FOR EACH
000452:                                                                                                  #            (DEC ONLY)
000453: 42,2414           60512                           OCT      60512                                 #  60 3COMP  VEL3, VEL3, COMP ALT
000454:                                                                                                  #            (DEC ONLY)
000455: 42,2415           54000                           OCT      54000                                 #  61 3COMP  MIN/SEC, MIN/SEC, POS7
000456:                                                                                                  #            (NO LOAD, DEC ONLY)
000457: 42,2416           24012                           OCT      24012                                 #  62 3COMP  VEL3, MIN/SEC, VEL3
000458:                                                                                                  #            (NO LOAD, DEC ONLY)
000459: 42,2417           60512                           OCT      60512                                 #  63 3COMP  VEL3, VEL3, COMP ALT
000460:                                                                                                  #            (DEC ONLY)
000461: 42,2420           60500                           OCT      60500                                 #  64 3COMP  2INT, VEL3, COMP ALT
000462:                                                                                                  #            (NO LOAD, DEC ONLY)
000463: 42,2421           00000                           OCT      00000                                 #  65 3COMP  HMS (DEC ONLY)
000464: 42,2422           00016                           OCT      00016                                 #  66 2COMP  LANDING RADAR ALT, POSITION
000465:                                                                                                  #            (NO LOAD, DEC ONLY)
000466: 42,2423           53223                           OCT      53223                                 #  67 3COMP LANDING RADAR VELX, Y, Z
000467: 42,2424           60026                           OCT      60026                                 #  68 3COMP  POS7, MIN/SEC, COMP ALT
000468:                                                                                                  #            (NO LOAD, DEC ONLY)
000469: 42,2425           00000                           OCT      00000                                 #  69        SPARE
000470: 42,2426           00000                           OCT      0                                     #  70 3COMP  OCTAL ONLY FOR EACH
000471: 42,2427           00000                           OCT      0                                     #  71 3COMP  OCTAL ONLY FOR EACH
000472: 42,2430           00102                           OCT      00102                                 #  72 2COMP  360-CDU DEG, CDU DEG
000473: 42,2431           00102                           OCT      00102                                 #  73 2COMP  360-CDU DEG, CDU DEG
000474: 42,2432           10200                           OCT      10200                                 #  74 3COMP  MIN/SEC, DPDEG(360), DPDEG(360)
000475:                                                                                                  #            (NO LOAD, DEC ONLY)
000476: 42,2433           00010                           OCT      00010                                 #  75 3COMP  POS4, MIN/SEC, MIN/SEC
000477:                                                                                                  #            (NO LOAD, DEC ONLY)
000478: 42,2434           00410                           OCT      00410                                 #  76 3COMP  POS4, POS4
000479:                                                                                                  #            (DEC ONLY)
000480: 42,2435           00500                           OCT      00500                                 #  77 2COMP  MIN/SEC, VEL3
000481:                                                                                                  #            (NO LOAD, DEC ONLY)
000482: 42,2436           00654                           OCT      00654                                 #  78 2 COMP  RR RANGE, RR RANGE RATE
000483: 42,2437           00102                           OCT      00102                                 #  79 3COMP  CDU DEG, CDU DEG, WHOLE
000484:                                                                                                  #            (DEC ONLY)
000485: 42,2440           00200                           OCT      00200                                 #  80 2COMP  WHOLE, DPDEG(360)
000486: 42,2441           24512                           OCT      24512                                 #  81 3COMP  VEL3 FOR EACH
000487:                                                                                                  #            (DEC ONLY)
000488: 42,2442           24512                           OCT      24512                                 #  82 3COMP  VEL3 FOR EACH
000489:


000491:                                                                                                  #            (DEC ONLY)
000492: 42,2443           24512                           OCT      24512                                 #  83 3COMP  VEL3 FOR EACH
000493:                                                                                                  #            (DEC ONLY)
000494: 42,2444           24512                           OCT      24512                                 #  84 3COMP  VEL3 FOR EACH
000495:                                                                                                  #            (DEC ONLY)
000496: 42,2445           24512                           OCT      24512                                 #  85 3COMP  VEL3 FOR EACH
000497:                                                                                                  #            (DEC ONLY)
000498: 42,2446           24512                           OCT      24512                                 #  86 3COMP  VEL3 FOR EACH
000499:                                                                                                  #            (DEC ONLY)
000500: 42,2447           00102                           OCT      00102                                 #  87 2COMP  CDU DEG FOR EACH
000501: 42,2450           00000                           OCT      0                                     #  88 3COMP  FRAC FOR EACH
000502:                                                                                                  #             (DEC ONLY)
000503: 42,2451           16143                           OCT      16143                                 #  89 3COMP  DPDEG(90), DPDEG(90), POS5
000504:                                                                                                  #            (DEC ONLY)
000505: 42,2452           10507                           OCT      10507                                 #  90 3COMP  POS5, VEL3, DPDEG(360)
000506:                                                                                                  #            (DEC ONLY)
000507: 42,2453           00000                           OCT      00000                                 #  91        SPARE
000508: 42,2454           00000                           OCT      00000                                 #  92        SPARE
000509: 42,2455           06143                           OCT      06143                                 #  93 3COMP  DPDEG(90) FOR EACH
000510: 42,2456           00000                           OCT      00000                                 #  94        SPARE
000511: 42,2457           00000                           OCT      0                                     #  95        SPARE
000512: 42,2460           00000                           OCT      0                                     #  96        SPARE
000513: 42,2461           00000                           OCT      00000                                 #  97 3COMP  WHOLE FOR EACH
000514: 42,2462           00000                           OCT      00000                                 #  98 3COMP  WHOLE, FRAC, WHOLE
000515: 42,2463           01572                           OCT      01572                                 #  99 3COMP  POS9, VEL4
000516:                                                                                                  #            (DEC ONLY)
000517:                                                                                                  #  END OF NNTYPTAB FOR MIXED NOUNS
000518:
000519:
000520: 42,2464           00006        SFINTAB            OCT      00006                                 #  WHOLE, DP TIME (SEC)
000521: 42,2465           03240                           OCT      03240
000522: 42,2466           00000                           OCT      00000                                 #  SPARE
000523: 42,2467           00000                           OCT      00000
000524: 42,2470           00000                           OCT      00000                                 #  CDU DEGREES, 360-CDU DEGREES
000525: 42,2471           00000                           OCT      00000                                 #      (SFCONS IN DEGINSF)
000526: 42,2472           10707                           OCT      10707                                 #  DP DEGREES (90)
000527: 42,2473           03435                           OCT      03435                                 #          UPPED BY 1
000528: 42,2474           13070                           OCT      13070                                 #  DP DEGREES (360) (POINT BETWN BITS 11-12)
000529: 42,2475           34345                           OCT      34345                                 #          UPPED BY 1
000530: 42,2476           00005                           OCT      00005                                 #  DEGREES (180)
000531: 42,2477           21616                           OCT      21616
000532: 42,2500           26113                           OCT      26113                                 #  WEIGHT2
000533: 42,2501           31713                           OCT      31713
000534: 42,2502           00070                           OCT      00070                                 #  POSITION5
000535: 42,2503           20460                           OCT      20460
000536: 42,2504           01065                           OCT      01065                                 #  POSITION4
000537: 42,2505           05740                           OCT      05740
000538: 42,2506           11414                           OCT      11414                                 #  VELOCITY2       (POINT BETWN BITS 11-12)
000539: 42,2507           31463                           OCT      31463
000540: 42,2510           07475                           OCT      07475                                 #  VELOCITY3
000541:


000543: 42,2511           16051                           OCT      16051
000544: 42,2512           00001                           OCT      00001                                 #  ELEVATION DEGREES
000545: 42,2513           03434                           OCT      03434
000546: 42,2514           00047                           OCT      00047                                 #  RENDEZVOUS RADAR RANGE
000547: 42,2515           21135                           OCT      21135
000548: 42,2516           77766                           OCT      77766                                 #  RENDEZVOUS RADAR RANGE RATE
000549: 42,2517           50711                           OCT      50711
000550: 42,2520           00005 25006                     2DEC*    .9267840599 E5         B-28*           #  LANDING RADAR ALTITUDE
000551: 42,2522           00002                           OCT      00002                                 #  INITIAL/FINAL ALTITUDE
000552: 42,2523           23224                           OCT      23224
000553: 42,2524           00014                           OCT      00014                                 #  ALTITUDE RATE
000554: 42,2525           06500                           OCT      06500
000555: 42,2526           00012                           OCT      00012                                 #  FORWARD/LATERAL VELOCITY
000556: 42,2527           36455                           OCT      36455
000557: 42,2530           04256                           OCT      04256                                 #  ROT HAND CONT ANGLE RATE
000558: 42,2531           07071                           OCT      07071
000559: 42,2532           77766 60557                     2DEC*    -1.552795030 E5         B-28*           #  LANDING RADAR VELX
000560: 42,2534           00005 01114                     2DEC*    .8250825087 E5         B-28*           #  LANDING RADAR VELY
000561: 42,2536           00007 01247                     2DEC*    1.153668673 E5         B-28*           #  LANDING RADAR VELZ
000562: 42,2540           04324                           OCT      04324                                 #  POSITION7
000563: 42,2541           27600                           OCT      27600
000564: 42,2542           00036                           OCT      00036                                 #  TRIM DEGREES2
000565: 42,2543           20440                           OCT      20440
000566: 42,2544           00035                           OCT      00035                                 #  COMPUTED ALTITUDE
000567: 42,2545           30400                           OCT      30400
000568: 42,2546           23420                           OCT      23420                                 #  DP DEGREES
000569: 42,2547           00000                           OCT      00000
000570: 42,2550           16102 14000                     2DEC     1852       E3         B-22            #  POSITION 9
000571: 42,2552           07475 16051                     2DEC     30.48      B-7                        #  VELOCITY4
000572:
000573:                                                                                                  #  END OF SFINTAB
000574:
000575:
000576: 42,2554           05174        SFOUTAB            OCT      05174                                 #  WHOLE, DP TIME (SEC)
000577: 42,2555           13261                           OCT      13261
000578: 42,2556           00000                           OCT      00000                                 #  SPARE
000579: 42,2557           00000                           OCT      00000
000580: 42,2560           00000                           OCT      00000                                 #  CDU DEGREES, 360-CDU DEGREES
000581: 42,2561           00000                           OCT      00000                                 #      (SFCONS IN DEGOUTSF, 360-CDUO)
000582: 42,2562           00714                           OCT      00714                                 #  DP DEGREES (90) (POINT BETWN BITS 7-8)
000583: 42,2563           31463                           OCT      31463
000584: 42,2564           13412                           OCT      13412                                 #  DP DEGREES (360)
000585: 42,2565           07534                           OCT      07534
000586: 42,2566           05605                           OCT      05605                                 #  DEGREES (180)
000587: 42,2567           03656                           OCT      03656
000588:


000590: 42,2570           00001                           OCT      00001                                 #  WEIGHT2
000591: 42,2571           16170                           OCT      16170
000592: 42,2572           00441                           OCT      00441                                 #  POSITION5
000593: 42,2573           34306                           OCT      34306
000594: 42,2574           07176                           OCT      07176                                 #  POSITION4       (POINT BETWN BITS 7-8)
000595: 42,2575           21603                           OCT      21603
000596: 42,2576           15340                           OCT      15340                                 #  VELOCITY2
000597: 42,2577           15340                           OCT      15340
000598: 42,2600           01031                           OCT      01031                                 #  VELOCITY3       (POINT BETWN BITS 7-8)
000599: 42,2601           21032                           OCT      21032
000600: 42,2602           34631                           OCT      34631                                 #  ELEVATION DEGREES
000601: 42,2603           23146                           OCT      23146
000602: 42,2604           00636                           OCT      00636                                 #  RENDEZVOUS RADAR RANGE
000603: 42,2605           14552                           OCT      14552
000604: 42,2606           74552                           OCT      74552                                 #  RENDEZVOUS RADAR RANGE RATE
000605: 42,2607           70307                           OCT      70307
000606: 42,2610           05520 15312                     2DEC     1.079      E-5        B14             #  LANDING RADAR ALTITUDE
000607: 42,2612           14226                           OCT      14226                                 #  INITIAL/FINAL ALTITUDE
000608: 42,2613           31757                           OCT      31757
000609: 42,2614           02476                           OCT      02476                                 #  ALTITUDE RATE
000610: 42,2615           05531                           OCT      05531
000611: 42,2616           02727                           OCT      02727                                 #  FORWARD/LATERAL VELOCITY
000612: 42,2617           16415                           OCT      16415
000613: 42,2620           00007                           OCT      00007                                 #  ROT HAND CONT ANGLE RATE
000614: 42,2621           13734                           OCT      13734
000615: 42,2622           74477 50643                     2DEC     -.6440     E-5        B14             #  LANDING RADAR VELX
000616: 42,2624           06265 16004                     2DEC     1.212      E-5        B14             #  LANDING RADAR VELY
000617: 42,2626           04426 31433                     2DEC     .8668      E-5        B14             #  LANDING RADAR VELZ
000618: 42,2630           34772                           OCT      34772                                 #  POSITION7
000619: 42,2631           07016                           OCT      07016
000620: 42,2632           01030                           OCT      01030                                 #  TRIM DEGREES2
000621: 42,2633           33675                           OCT      33675
000622: 42,2634           01046                           OCT      01046                                 #  COMPUTED ALTITUDE
000623: 42,2635           15700                           OCT      15700
000624: 42,2636           00321                           OCT      00321                                 #  DP DEGREES
000625: 42,2637           26706                           OCT      26706
000626: 42,2640           11036 06144                     2DEC     .283092873                            #  POSITION 9
000627: 42,2642           01031 21032                     2DEC     .032808399                            #  VELOCITY4
000628:                                                                                                  #  END OF SFOUTAB
000629:
000630:
000631:                                                                                                  #  NN    SF CONSTANT             SF ROUTINE
000632:
000633: 42,2644           03451        IDADDTAB           ECADR    TTOGO                                 #  40 MIN/SEC                          M/S
000634:


000636: 42,2645           03661                           ECADR    VGDISP                                #  40 VEL3                             DP3
000637: 42,2646           03505                           ECADR    DVTOTAL                               #  40 VEL3                             DP3
000638: 42,2647           01045                           ECADR    DSPTEM1                               #  41 CDU DEG                          CDU
000639: 42,2650           01046                           ECADR    DSPTEM1    +1                         #  41 ELEV DEG                         ARTH
000640: 42,2651           00000                           OCT      0                                     #  41 SPARE COMPONENT
000641: 42,2652           02322                           ECADR    HAPO                                  #  42 POS4                             DP3
000642: 42,2653           02324                           ECADR    HPER                                  #  42 POS4                             DP3
000643: 42,2654           03661                           ECADR    VGDISP                                #  42 VEL3                             DP3
000644: 42,2655           01120                           ECADR    LAT                                   #  43 DPDEG(360)                       DP4
000645: 42,2656           01122                           ECADR    LONG                                  #  43 DPDEG(360)                       DP4
000646: 42,2657           01124                           ECADR    ALT                                   #  43 POS4                             DP3
000647: 42,2660           02117                           ECADR    HAPOX                                 #  44 POS4                             DP3
000648: 42,2661           02121                           ECADR    HPERX                                 #  44 POS4                             DP3
000649: 42,2662           02140                           ECADR    TFF                                   #  44 MIN/SEC                          M/S
000650: 42,2663           03460                           ECADR    TRKMKCNT                              #  45 WHOLE                            ARTH
000651: 42,2664           03451                           ECADR    TTOGO                                 #  45 MIN/SEC                          M/S
000652: 42,2665           02256                           ECADR    +MGA                                  #  45 DPDEG(360)                       DP4
000653: 42,2666           01343                           ECADR    DAPDATR1                              #  46 OCTAL ONLY                       OCT
000654: 42,2667           00000                           OCT      0                                     #  46 SPARE COMPONENT
000655: 42,2670           00000                           OCT      0                                     #  46 SPARE COMPONENT
000656: 42,2671           01331                           ECADR    LEMMASS                               #  47 WEIGHT2                         ARTH1
000657: 42,2672           01332                           ECADR    CSMMASS                               #  47 WEIGHT2                         ARTH1
000658: 42,2673           00000                           OCT      0                                     #  47 SPARE COMPONENT
000659: 42,2674           03002                           ECADR    PITTIME                               #  48 TRIM DEG2                        ARTH
000660: 42,2675           03001                           ECADR    ROLLTIME                              #  48 TRIM DEG2                        ARTH
000661: 42,2676           00000                           OCT      0                                     #  48 SPARE COMPONENT
000662: 42,2677           00314                           ECADR    R22DISP                               #  49 POS4                             DP3
000663: 42,2700           00316                           ECADR    R22DISP    +2                         #  49 VEL3                             DP3
000664: 42,2701           00000                           OCT      00000                                 #  49 SPARE COMPONENT
000665: 42,2702           00000                           OCT      0                                     #  50 SPARE
000666: 42,2703           00000                           OCT      0                                     #  50 SPARE
000667: 42,2704           00000                           OCT      0                                     #  50 SPARE
000668: 42,2705           02204                           ECADR    ALPHASB                               #  51 DPDEG(360)                       DP4
000669: 42,2706           02206                           ECADR    BETASB                                #  51 DPDEG(360)                       DP4
000670: 42,2707           00000                           OCT      0                                     #  51 SPARE COMPONENT
000671: 42,2710           01755                           ECADR    ACTCENT                               #  52 DPDEG(360)                       DP4
000672: 42,2711           00000                           OCT      00000                                 #  52 SPARE COMPONENT
000673: 42,2712           00000                           OCT      00000                                 #  52 SPARE COMPONENT
000674: 42,2713           00000                           OCT      00000                                 #  53 SPARE
000675: 42,2714           00000                           OCT      00000                                 #  53
000676: 42,2715           00000                           OCT      00000                                 #  53
000677: 42,2716           02204                           ECADR    RANGE                                 #  54 POS5                             DP1
000678: 42,2717           02206                           ECADR    RRATE                                 #  54 VEL3                             DP3
000679: 42,2720           02210                           ECADR    RTHETA                                #  54 DPDEG(360)                       DP4
000680: 42,2721           03464                           ECADR    NN                                    #  55 WHOLE                            ARTH
000681: 42,2722           02262                           ECADR    ELEV                                  #  55 DPDEG(360)                       DP4
000682: 42,2723           03616                           ECADR    CENTANG                               #  55 DPDEG(360)                       DP4
000683: 42,2724           02204                           ECADR    RR-AZ                                 #  56 DPDEG(360)                       DP4
000684: 42,2725           02206                           ECADR    RR-ELEV                               #  56 DPDEG(360)                       DP4
000685: 42,2726           00000                           OCT      0                                     #  56 SPARE COMPONENT
000686:


000688: 42,2727           02306                           ECADR    DELTAR                                #  57 POS4                             DP3
000689: 42,2730           00000                           OCT      0                                     #  57 SPARE COMPONENT
000690: 42,2731           00000                           OCT      0                                     #  57 SPARE COMPONENT
000691: 42,2732           03603                           ECADR    POSTTPI                               #  58 POS4                             DP3
000692: 42,2733           03573                           ECADR    DELVTPI                               #  58 VEL3                             DP3
000693: 42,2734           02353                           ECADR    DELVTPF                               #  58 VEL3                             DP3
000694: 42,2735           02306                           ECADR    DVLOS                                 #  59 VEL3                             DP3
000695: 42,2736           02310                           ECADR    DVLOS      +2                         #  59 VEL3                             DP3
000696: 42,2737           02312                           ECADR    DVLOS      +4                         #  59 VEL3                             DP3
000697: 42,2740           02266                           ECADR    VHORIZ                                #  60 VEL3                             DP3
000698: 42,2741           03471                           ECADR    HDOTDISP                              #  60 VEL3                             DP3
000699: 42,2742           03532                           ECADR    HCALC                                 #  60 COMP ALT                         DP1
000700: 42,2743           03473                           ECADR    TTFDISP                               #  61 MIN/SEC                          M/S
000701: 42,2744           03451                           ECADR    TTOGO                                 #  61 MIN/SEC                          M/S
000702: 42,2745           02533                           ECADR    OUTOFPLN                              #  61 POS7                             DP4
000703: 42,2746           03467                           ECADR    ABVEL                                 #  62 VEL3                             DP3
000704: 42,2747           03451                           ECADR    TTOGO                                 #  62 MIN/SEC                          M/S
000705: 42,2750           03505                           ECADR    DVTOTAL                               #  62 VEL3                             DP3
000706: 42,2751           03467                           ECADR    ABVEL                                 #  63 VEL3                             DP3
000707: 42,2752           03471                           ECADR    HDOTDISP                              #  63 VEL3                             DP3
000708: 42,2753           03532                           ECADR    HCALC                                 #  63 COMP ALT                         DP1
000709: 42,2754           03664                           ECADR    FUNNYDSP                              #  64 2INT                             2INT
000710: 42,2755           03471                           ECADR    HDOTDISP                              #  64 VEL3                             DP3
000711: 42,2756           03532                           ECADR    HCALC                                 #  64 COMP ALT                         DP1
000712: 42,2757           00013                           ECADR    SAMPTIME                              #  65 HMS (MIXED ONLY TO KEEP CODE 65) HMS
000713: 42,2760           00013                           ECADR    SAMPTIME                              #  65 HMS                              HMS
000714: 42,2761           00013                           ECADR    SAMPTIME                              #  65 HMS                              HMS
000715: 42,2762           02212                           ECADR    RSTACK     +6                         #  66 LANDING RADAR ALT                DP1
000716: 42,2763           00000                           OCT      0                                     #  66 LR POSITION                     LRPOS
000717: 42,2764           00000                           OCT      0                                     #  66 SPARE COMPONENT
000718: 42,2765           02204                           ECADR    RSTACK                                #  67 LANDING RADAR VELX               DP1
000719: 42,2766           02206                           ECADR    RSTACK     +2                         #  67 LANDING RADAR VELY               DP1
000720: 42,2767           02210                           ECADR    RSTACK     +4                         #  67 LANDING RADAR VELZ               DP1
000721: 42,2770           02531                           ECADR    RANGEDSP                              #  68 POS7                             DP4
000722: 42,2771           03473                           ECADR    TTFDISP                               #  68 MIN/SEC                          M/S
000723: 42,2772           03662                           ECADR    DELTAH                                #  68 COMP ALT                         DP1
000724: 42,2773           00000                           OCT      00000                                 #  69 SPARE
000725: 42,2774           00000                           OCT      00000                                 #  69
000726: 42,2775           00000                           OCT      00000                                 #  69
000727: 42,2776           00735                           ECADR    AOTCODE                               #  70 OCTAL ONLY                       OCT
000728: 42,2777           00736                           ECADR    AOTCODE    +1                         #  70 OCTAL ONLY                       OCT
000729: 42,3000           00737                           ECADR    AOTCODE    +2                         #  70 OCTAL ONLY                       OCT
000730: 42,3001           00735                           ECADR    AOTCODE                               #  71 OCTAL ONLY                       OCT
000731: 42,3002           00736                           ECADR    AOTCODE    +1                         #  71 OCTAL ONLY                       OCT
000732: 42,3003           00737                           ECADR    AOTCODE    +2                         #  71 OCTAL ONLY                       OCT
000733: 42,3004           00035                           ECADR    CDUT                                  #  72 360-CDU DEG                   360-CDU
000734: 42,3005           00036                           ECADR    CDUS                                  #  72 CDU DEG                          CDU
000735: 42,3006           00000                           OCT      0                                     #  72 SPARE COMPONENT
000736: 42,3007           01107                           ECADR    TANG                                  #  73 360-CDU DEG                   360-CDU
000737: 42,3010           01110                           ECADR    TANG       +1                         #  73 CDU DEG                          CDU
000738:


000740: 42,3011           00000                           OCT      0                                     #  73 SPARE COMPONENT
000741: 42,3012           03451                           ECADR    TTOGO                                 #  74 MIN/SEC                          M/S
000742: 42,3013           02366                           ECADR    YAW                                   #  74 DPDEG(360)                       DP4
000743: 42,3014           02370                           ECADR    PITCH                                 #  74 DPDEG(360)                       DP4
000744: 42,3015           03575                           ECADR    DIFFALT                               #  75 POS4                             DP3
000745: 42,3016           02256                           ECADR    T1TOT2                                #  75 MIN/SEC
000746: 42,3017           02260                           ECADR    T2TOT3                                #  75 MIN/SEC                          M/S
000747: 42,3020           03640                           ECADR    XRANGE                                #  76 POS4                             DP3
000748: 42,3021           03642                           ECADR    APO                                   #  76 POS4                             DP3
000749: 42,3022           00000                           OCT      0                                     #  76 SPARE COMPONENT
000750: 42,3023           03451                           ECADR    TTOGO                                 #  77 MIN/SEC                          M/S
000751: 42,3024           02314                           ECADR    YDOT                                  #  77 VEL3                             DP3
000752: 42,3025           00000                           OCT      0                                     #  77 SPARE COMPONENT
000753: 42,3026           02204                           ECADR    RSTACK                                #  78 RR RANGE                         DP1
000754: 42,3027           02206                           ECADR    RSTACK     +2                         #  78 RR RANGE RATE                    DP1
000755: 42,3030           00000                           OCT      00000                                 #  78 SPARE COMPONENT
000756: 42,3031           01045                           ECADR    CURSOR                                #  79 CDU DEG                          CDU
000757: 42,3032           01046                           ECADR    SPIRAL                                #  79 CDU DEG                          CDU
000758: 42,3033           01052                           ECADR    POSCODE                               #  79 WHOLE                            ARTH
000759: 42,3034           03731                           ECADR    DATAGOOD                              #  80 WHOLE                            ARTH
000760: 42,3035           03732                           ECADR    OMEGAD                                #  80 DPDEG(360)                       DP4
000761: 42,3036           00000                           OCT      0                                     #  80 SPARE COMPONENT
000762: 42,3037           03431                           ECADR    DELVLVC                               #  81 VEL3                             DP3
000763: 42,3040           03433                           ECADR    DELVLVC    +2                         #  81 VEL3                             DP3
000764: 42,3041           03435                           ECADR    DELVLVC    +4                         #  81 VEL3                             DP3
000765: 42,3042           03431                           ECADR    DELVLVC                               #  82 VEL3                             DP3
000766: 42,3043           03433                           ECADR    DELVLVC    +2                         #  82 VEL3                             DP3
000767: 42,3044           03435                           ECADR    DELVLVC    +4                         #  82 VEL3                             DP3
000768: 42,3045           03620                           ECADR    DELVIMU                               #  83 VEL3                             DP3
000769: 42,3046           03622                           ECADR    DELVIMU    +2                         #  83 VEL3                             DP3
000770: 42,3047           03624                           ECADR    DELVIMU    +4                         #  83 VEL3                             DP3
000771: 42,3050           02226                           ECADR    DELVOV                                #  84 VEL3                             DP3
000772: 42,3051           02230                           ECADR    DELVOV     +2                         #  84 VEL3                             DP3
000773: 42,3052           02232                           ECADR    DELVOV     +4                         #  84 VEL3                             DP3
000774: 42,3053           03477                           ECADR    VGBODY                                #  85 VEL3                             DP3
000775: 42,3054           03501                           ECADR    VGBODY     +2                         #  85 VEL3                             DP3
000776: 42,3055           03503                           ECADR    VGBODY     +4                         #  85 VEL3                             DP3
000777: 42,3056           03431                           ECADR    DELVLVC                               #  86 VEL3                             DP3
000778: 42,3057           03433                           ECADR    DELVLVC    +2                         #  86 VEL3                             DP3
000779: 42,3060           03435                           ECADR    DELVLVC    +4                         #  86 VEL3                             DP3
000780: 42,3061           01347                           ECADR    AZ                                    #  87 CDU DEG                          CDU
000781: 42,3062           01350                           ECADR    EL                                    #  87 CDU DEG                          CDU
000782: 42,3063           00000                           OCT      0                                     #  87 SPARE COMPONENT
000783: 42,3064           02706                           ECADR    STARAD                                #  88 FRAC                             FRAC
000784: 42,3065           02710                           ECADR    STARAD     +2                         #  88 FRAC                             FRAC
000785: 42,3066           02712                           ECADR    STARAD     +4                         #  88 FRAC                             FRAC
000786: 42,3067           02706                           ECADR    LANDLAT                               #  89 DPDEG(90)                        DP3
000787: 42,3070           02710                           ECADR    LANDLONG                              #  89 DPDEG(90)                        DP3
000788: 42,3071           02712                           ECADR    LANDALT                               #  89 POS5                             DP1
000789: 42,3072           02204                           ECADR    RANGE                                 #  90 POS5                             DP1
000790:


000792: 42,3073           02206                           ECADR    RRATE                                 #  90 VEL3                             DP3
000793: 42,3074           02210                           ECADR    RTHETA                                #  90 DPDEG(360)                       DP4
000794: 42,3075           00000                           OCT      00000                                 #  91 SPARE
000795: 42,3076           00000                           OCT      00000                                 #  91
000796: 42,3077           00000                           OCT      00000                                 #  91
000797: 42,3100           00000                           OCT      00000                                 #  92 SPARE
000798: 42,3101           00000                           OCT      00000                                 #  92
000799: 42,3102           00000                           OCT      00000                                 #  92
000800: 42,3103           02737                           ECADR    OGC                                   #  93 DPDEG(90)                        DP3
000801: 42,3104           02741                           ECADR    OGC        +2                         #  93 DPDEG(90)                        DP3
000802: 42,3105           02743                           ECADR    OGC        +4                         #  93 DPDEG(90)                        DP3
000803: 42,3106           00000                           OCT      00000                                 #  94 SPARE
000804: 42,3107           00000                           OCT      00000                                 #  94
000805: 42,3110           00000                           OCT      00000                                 #  94
000806: 42,3111           00000                           OCT      0                                     #  95 SPARE
000807: 42,3112           00000                           OCT      0                                     #  95 SPARE
000808: 42,3113           00000                           OCT      0                                     #  95 SPARE
000809: 42,3114           00000                           OCT      0                                     #  96 SPARE
000810: 42,3115           00000                           OCT      0                                     #  96 SPARE
000811: 42,3116           00000                           OCT      0                                     #  96 SPARE
000812: 42,3117           01045                           ECADR    DSPTEM1                               #  97 WHOLE                            ARTH
000813: 42,3120           01046                           ECADR    DSPTEM1    +1                         #  97 WHOLE                            ARTH
000814: 42,3121           01047                           ECADR    DSPTEM1    +2                         #  97 WHOLE                            ARTH
000815: 42,3122           01050                           ECADR    DSPTEM2                               #  98 WHOLE                            ARTH
000816: 42,3123           01051                           ECADR    DSPTEM2    +1                         #  98 FRAC                             FRAC
000817: 42,3124           01052                           ECADR    DSPTEM2    +2                         #  98 WHOLE                            ARTH
000818: 42,3125           02204                           ECADR    WWPOS                                 #  99 POS9                             DP4
000819: 42,3126           02206                           ECADR    WWVEL                                 #  99 VEL4                             DP2
000820: 42,3127           00000                           OCT      0                                     #  99 SPARE COMPONENT
000821:                                                                                                  #  END OF IDADDTAB
000822:
000823:                                                                                                  #  NN  SF ROUTINES
000824:
000825: 42,3130           16351        RUTMXTAB           OCT      16351                                 #  40 M/S, DP3, DP3
000826: 42,3131           00142                           OCT      00142                                 #  41 CDU, ARTH
000827: 42,3132           16347                           OCT      16347                                 #  42 DP3, DP3, DP3
000828: 42,3133           16512                           OCT      16512                                 #  43 DP4, DP4, DP3
000829: 42,3134           22347                           OCT      22347                                 #  44 DP3, DP3, M/S
000830: 42,3135           24443                           OCT      24443                                 #  45 ARTH, M/S, DP4
000831: 42,3136           00000                           OCT      00000                                 #  46 OCT
000832: 42,3137           00553                           OCT      00553                                 #  47 ARITH1, ARITH1
000833: 42,3140           00143                           OCT      00143                                 #  48 ARTH, ARTH
000834: 42,3141           00347                           OCT      00347                                 #  49 DP3, DP3
000835: 42,3142           00000                           OCT      0                                     #  50 SPARE
000836: 42,3143           00512                           OCT      00512                                 #  51 DP4, DP4
000837: 42,3144           00012                           OCT      00012                                 #  52 DP4
000838: 42,3145           00000                           OCT      00000                                 #  53 SPARE
000839: 42,3146           24344                           OCT      24344                                 #  54 DP1, DP3, DP4
000840: 42,3147           24503                           OCT      24503                                 #  55 ARTH, DP4, DP4
000841:


000843: 42,3150           00512                           OCT      00512                                 #  56 DP4, DP4
000844: 42,3151           00007                           OCT      00007                                 #  57 DP3
000845: 42,3152           16347                           OCT      16347                                 #  58 DP3, DP3, DP3
000846: 42,3153           16347                           OCT      16347                                 #  59 DP3, DP3, DP3
000847: 42,3154           10347                           OCT      10347                                 #  60 DP3, DP3, DP1
000848: 42,3155           24451                           OCT      24451                                 #  61 M/S, M/S, DP4
000849: 42,3156           16447                           OCT      16447                                 #  62 DP3, M/S, DP3
000850: 42,3157           10347                           OCT      10347                                 #  63 DP3, DP3, DP1
000851: 42,3160           10354                           OCT      10354                                 #  64 2INT, DP3, DP1
000852: 42,3161           20410                           OCT      20410                                 #  65 HMS, HMS, HMS
000853: 42,3162           00304                           OCT      00304                                 #  66 DP1, LRPOS
000854: 42,3163           10204                           OCT      10204                                 #  67 DP1, DP1, DP1
000855: 42,3164           10452                           OCT      10452                                 #  68 DP4, M/S, DP1
000856: 42,3165           00000                           OCT      00000                                 #  69 SPARE
000857: 42,3166           00000                           OCT      0                                     #  70 OCT, OCT, OCT
000858: 42,3167           00000                           OCT      0                                     #  71 OCT, OCT, OCT
000859: 42,3170           00115                           OCT      00115                                 #  72 360-CDU, CDU
000860: 42,3171           00115                           OCT      00115                                 #  73 360-CDU, CDU
000861: 42,3172           24511                           OCT      24511                                 #  74M/S, DP4, DP4
000862: 42,3173           22447                           OCT      22447                                 #  75 DP3, M/S, M/S
000863: 42,3174           00347                           OCT      00347                                 #  76 DP3, DP3
000864: 42,3175           00351                           OCT      00351                                 #  77 M/S, DP3
000865: 42,3176           00204                           OCT      00204                                 #  78 DP1, DP1
000866: 42,3177           06102                           OCT      06102                                 #  79 CDU, CDU, ARTH
000867: 42,3200           00503                           OCT      00503                                 #  80 ARTH, DP4
000868: 42,3201           16347                           OCT      16347                                 #  81 DP3, DP3, DP3
000869: 42,3202           16347                           OCT      16347                                 #  82 DP3, DP3, DP3
000870: 42,3203           16347                           OCT      16347                                 #  83 DP3, DP3, DP3
000871: 42,3204           16347                           OCT      16347                                 #  84 DP3, DP3, DP3
000872: 42,3205           16347                           OCT      16347                                 #  85 DP3, DP3, DP3
000873: 42,3206           16347                           OCT      16347                                 #  86 DP3, DP3, DP3
000874: 42,3207           00102                           OCT      00102                                 #  87 CDU, CDU
000875: 42,3210           02041                           OCT      02041                                 #  88 FRAC FOR EACH
000876: 42,3211           10347                           OCT      10347                                 #  89 DP3, DP3, DP1
000877: 42,3212           24344                           OCT      24344                                 #  90 DP1, DP3, DP4
000878: 42,3213           00000                           OCT      00000                                 #  91 SPARE
000879: 42,3214           00000                           OCT      00000                                 #  92 SPARE
000880: 42,3215           16347                           OCT      16347                                 #  93 DP3, DP3, DP3
000881: 42,3216           00000                           OCT      00000                                 #  94 SPARE
000882: 42,3217           00000                           OCT      0                                     #  95 SPARE
000883: 42,3220           00000                           OCT      0                                     #  96 SPARE
000884: 42,3221           06143                           OCT      06143                                 #  97 ARTH, ARTH, ARTH
000885: 42,3222           06043                           OCT      06043                                 #  98 ARTH, FRAC, ARTH
000886: 42,3223           00252                           OCT      00252                                 #  99 DP4, DP2
000887:                                                                                                  #  END OF RUTMXTAB
000888:
000889:
000890: 42,3224  30,2000                                  SBANK=   LOWSUPER
000891:

End of include-file PINBALL_NOUN_TABLES.agc.  Parent file is MAIN.agc


