
Source Code


000002:                                                                                                  ## Copyright:   Public domain.
000003:                                                                                                  ## Filename:    PLANETARY_INERTIAL_ORIENTATION.agc
000004:                                                                                                  ## Purpose:     A section of LUM69 revision 2.
000005:                                                                                                  ##              It is part of the reconstructed source code for the flown
000006:                                                                                                  ##              version of the flight software for the Lunar Module's (LM)
000007:                                                                                                  ##              Apollo Guidance Computer (AGC) for Apollo 10. The code has
000008:                                                                                                  ##              been recreated from a copy of Luminary revsion 069, using
000009:                                                                                                  ##              changes present in Luminary 099 which were described in
000010:                                                                                                  ##              Luminary memos 75 and 78. The code has been adapted such
000011:                                                                                                  ##              that the resulting bugger words exactly match those specified
000012:                                                                                                  ##              for LUM69 revision 2 in NASA drawing 2021152B, which gives
000013:                                                                                                  ##              relatively high confidence that the reconstruction is correct.
000014:                                                                                                  ## Reference:   pp. 1135-1143
000015:                                                                                                  ## Assembler:   yaYUL
000016:                                                                                                  ## Contact:     Ron Burkey <info@sandroid.org>.
000017:                                                                                                  ## Website:     www.ibiblio.org/apollo/index.html
000018:                                                                                                  ## Mod history: 2019-07-27 MAS  Created from Luminary 69.
000019:


000021:                                                                                                  #  ..... RP-TO-R SUBROUTINE .....
000022:                                                                                                  #  SUBROUTINE TO CONVERT RP (VECTOR IN PLANETARY COORDINATE SYSTEM, EITHER
000023:                                                                                                  #   EARTH-FIXED OR MOON-FIXED) TO R (SAME VECTOR IN THE BASIC REF. SYSTEM)
000024:
000025:                                                                                                  #        R = MT(T)*(RP + LP X RP)        MT = M MATRIX TRANSPOSE
000026:
000027:                                                                                                  #  CALLING SEQUENCE
000028:                                                                                                  #        L       CALL
000029:                                                                                                  #        L+1             RP-TO-R
000030:
000031:                                                                                                  #  SUBROUTINES USED
000032:                                                                                                  #        EARTHMX,MOONMX,EARTHL
000033:
000034:                                                                                                  #        ITEMS AVAILABLE FROM LAUNCH DATA
000035:                                                                                                  #                504LM = THE LIBRATION VECTOR L OF THE MOON AT TIME TIMSUBL,EXPRESSED
000036:                                                                                                  #                        IN THE MOON-FIXED COORD. SYSTEM         RADIANS B0
000037:
000038:                                                                                                  #        ITEMS NECESSARY FOR SUBR. USED (SEE DESCRIPTION OF SUBR.)
000039:
000040:                                                                                                  #  INPUT
000041:                                                                                                  #        MPAC= 0 FOR EARTH, NON-ZERO FOR MOON
000042:                                                                                                  #        0-5D= RP VECTOR
000043:                                                                                                  #        6-7D= TIME
000044:
000045:                                                                                                  #  OUTPUT
000046:                                                                                                  #        MPAC = R VECTOR METERS B-29 FOR EARTH, B-27 FOR MOON
000047:
000048: 24,2000                                           SETLOC   PLANTIN
000049: 24,2000                                           BANK
000050:
000051: 24,3504                                           COUNT*   $$/LUROT
000052:
000053: 24,3504           46020        RP-TO-R            STQ      BHIZ
000054: 24,3505           00050                                    RPREXIT
000055: 24,3506           51521                                    RPTORA
000056: 24,3507           77624                           CALL                                           #  COMPUTE M MATRIX FOR MOON
000057: 24,3510           51561                                    MOONMX                                #  LP=LM FOR MOON  RADIANS B0
000058: 24,3511           77775                           VLOAD
000059: 24,3512           02013                                    504LM
000060: 24,3513           53235        RPTORB             VXV      VAD
000061: 24,3514           00001                                    504RPR
000062: 24,3515           00001                                    504RPR
000063: 24,3516           52105                           VXM      GOTO
000064: 24,3517           00025                                    MMATRIX                               #  MPAC=R=MT(T)*(RP+LPXRP)
000065: 24,3520           51547                                    RPRPXXXX                              #  RESET PUSHLOC TO 0 BEFORE EXITING
000066: 24,3521           77624        RPTORA             CALL                                           #  EARTH COMPUTATIONS
000067: 24,3522           55657                                    EARTHMX                               #  M MATRIX B-1
000068: 24,3523           77624                           CALL
000069: 24,3524           55711                                    EARTHL                                #  L VECTOR RADIANS B0
000070: 24,3525           76521                           MXV      VSL1                                  #  LP=M(T)*L  RAD B-0
000071: 24,3526           00025                                    MMATRIX


000073: 24,3527           77650                           GOTO
000074: 24,3530           51513                                    RPTORB
000075:


000077:                                                                                                  #  ..... R-TO-RP SUBROUTINE .....
000078:                                                                                                  #  SUBROUTINE TO CONVERT R (VECTOR IN REFERENCE COORD. SYSTEM) TO RP
000079:                                                                                                  #  (VECTOR IN PLANETARY COORD SYSTEM) EITHER EARTH-FIXED OR MOON-FIXED
000080:
000081:                                                                                                  #        RP = M(T)*(R - L X R)
000082:
000083:                                                                                                  #  CALLING SEQUENCE
000084:                                                                                                  #        L       CALL
000085:                                                                                                  #        L+1             R-TO-RP
000086:
000087:                                                                                                  #  SUBROUTINES USED
000088:                                                                                                  #        EARTHMX,MOONMX,EARTHL
000089:
000090:                                                                                                  #  INPUT
000091:                                                                                                  #        MPAC= 0 FOR EARTH,NON-ZERO FOR MOON
000092:                                                                                                  #        0-5D= R VECTOR
000093:                                                                                                  #        6-7D= TIME
000094:
000095:                                                                                                  #        ITEMS AVAILABLE FROM LAUNCH DATA
000096:                                                                                                  #                504LM = THE LIBRATION VECTOR L OF THE MOON AT TIME TIMSUBL,EXPRESSED
000097:                                                                                                  #                        IN THE MOON-FIXED COORD. SYSTEM   RADIANS B0
000098:
000099:                                                                                                  #        ITEMS NECESSARY FOR SUBROUTINES USED (SEE DESCRIPTION OF SUBR.)
000100:
000101:                                                                                                  #  OUTPUT
000102:                                                                                                  #        MPAC = RP VECTOR METERS B-29 FOR EARTH, B-27 FOR MOON
000103:
000104: 24,3531           46020        R-TO-RP            STQ      BHIZ
000105: 24,3532           00050                                    RPREXIT
000106: 24,3533           51553                                    RTORPA
000107: 24,3534           77624                           CALL
000108: 24,3535           51561                                    MOONMX
000109: 24,3536           61375                           VLOAD    VXM
000110: 24,3537           02013                                    504LM                                 #  LP=LM
000111: 24,3540           00025                                    MMATRIX
000112: 24,3541           77772                           VSL1                                           #   L=MT(T)*LP  RADIANS B0
000113: 24,3542           51235        RTORPB             VXV      BVSU
000114: 24,3543           00001                                    504RPR
000115: 24,3544           00001                                    504RPR
000116: 24,3545           77721                           MXV                                            #  M(T)*(R-LXR) B-2
000117: 24,3546           00025                                    MMATRIX
000118: 24,3547           40372        RPRPXXXX           VSL1     SETPD
000119: 24,3550           00001                                    0D
000120: 24,3551           77650                           GOTO
000121: 24,3552           00050                                    RPREXIT
000122: 24,3553           77624        RTORPA             CALL                                           #  EARTH COMPUTATIONS
000123: 24,3554           55657                                    EARTHMX
000124: 24,3555           77624                           CALL
000125: 24,3556           55711                                    EARTHL
000126: 24,3557           77650                           GOTO                                           #  MPAC=L=(-AX,-AY,0) RAD B-0
000127: 24,3560           51542                                    RTORPB
000128:


000130:                                                                                                  #  ..... MOONMX SUBROUTINE .....
000131:                                                                                                  #  SUBROUTINE TO COMPUTE THE TRANSFORMATION MATRIX M FOR THE MOON
000132:
000133:                                                                                                  #  CALLING SEQUENCE
000134:                                                                                                  #        L       CALL
000135:                                                                                                  #        L+1             MOONMX
000136:
000137:                                                                                                  #  SUBROUTINES USED
000138:                                                                                                  #        NEWANGLE
000139:
000140:                                                                                                  #  INPUT
000141:                                                                                                  #        6-7D= TIME
000142:
000143:                                                                                                  #        ITEMS AVAILABLE FROM LAUNCH DATA
000144:                                                                                                  #                BSUBO,BDOT
000145:                                                                                                  #                TIMSUBO,NODIO,NODDOT,FSUBO,FDOT
000146:                                                                                                  #                COSI= COS(I)    B-1
000147:                                                                                                  #                SINI= SIN(I)    B-1
000148:                                                                                                  #                  I IS THE ANGLE BETWEEN THE MEAN LUNAR EQUATORIAL PLANE AND THE
000149:                                                                                                  #                  PLANE OF THE ECLIPTIC (1 DEGREE 32.1 MINUTES)
000150:
000151:                                                                                                  #  OUTPUT
000152:                                                                                                  #        MMATRIX= 3X3 M MATRIX B-1       (STORED IN VAC AREA)
000153:
000154: 24,3561           40220        MOONMX             STQ      SETPD
000155: 24,3562           00051                                    EARTHMXX
000156: 24,3563           00011                                    8D
000157: 24,3564           77770                           AXT,1                                          #  B REQUIRES SL 0, SL 5 IN NEWANGLE
000158: 24,3565           00005                                    5
000159: 24,3566           65345                           DLOAD    PDDL                                  #  PD 10D        8-9D=BSUBO
000160: 24,3567           10017                                    BSUBO                                 #                10-11D=BDOT
000161: 24,3570           10011                                    BDOT
000162: 24,3571           45006                           PUSH     CALL                                  #  PD 12D
000163: 24,3572           51706                                    NEWANGLE                              #  EXIT WITH PD 8D AND MPAC= B   REVS B0
000164: 24,3573           71406                           PUSH     COS                                   #  PD 10D
000165: 24,3574           14041                           STODL    COB                                   #  PD 8D         COS(B) B-1
000166: 24,3575           77756                           SIN                                            #                SIN(B) B-1
000167: 24,3576           14043                           STODL    SOB                                   #  SETUP INPUT FOR NEWANGLE
000168: 24,3577           10015                                    FSUBO                                 #                        8-9D=FSUBO
000169: 24,3600           41525                           PDDL     PUSH                                  #  PD 10D THEN 12D       10-11D=FDOT
000170: 24,3601           10007                                    FDOT
000171: 24,3602           45170                           AXT,1    CALL                                  #  F REQUIRES SL 1, SL 6 IN NEWANGLE
000172: 24,3603           00004                                    4
000173: 24,3604           51706                                    NEWANGLE                              #  EXIT WITH PD 8D AND MPAC= F REVS B0
000174: 24,3605           14027                           STODL    AVECTR     +2                         #  SAVE F TEMP
000175: 24,3606           10013                                    NODIO                                 #                        8-9D=NODIO
000176: 24,3607           41525                           PDDL     PUSH                                  #  PD 10D THEN 12D       10-11D=NODDOT
000177: 24,3610           10005                                    NODDOT                                #                        MPAC=T
000178: 24,3611           45170                           AXT,1    CALL                                  #  NODE REQUIRES SL 0, SL 5 IN NEWANGLE
000179: 24,3612           00005                                    5
000180: 24,3613           51706                                    NEWANGLE                              #  EXIT WITH PD 8D AND MPAC= NODI REVS B0


000182: 24,3614           71406                           PUSH     COS                                   #  PD 10D        8-9D= NODI REVS B0
000183: 24,3615           77606                           PUSH                                           #  PD 12D        10-11D= COS(NODI) B-1
000184: 24,3616           00025                           STORE    AVECTR
000185: 24,3617           76405                           DMP      SL1R
000186: 24,3620           00041                                    COB                                   #                         COS(NODI) B-1
000187: 24,3621           14035                           STODL    BVECTR     +2                         #  PD 10D  20-25D=AVECTR= COB*SIN(NODI)
000188: 24,3622           76405                           DMP      SL1R                                  #                         SOB*SIN(NODI)
000189: 24,3623           00043                                    SOB
000190: 24,3624           14037                           STODL    BVECTR     +4                         #  PD 8D
000191: 24,3625           41556                           SIN      PUSH                                  #  PD 10D                -SIN(NODI) B-1
000192: 24,3626           77676                           DCOMP                                          #          26-31D=BVECTR= COB*COS(NODI)
000193: 24,3627           14033                           STODL    BVECTR                                #  PD 8D                  SOB*COS(NODI)
000194: 24,3630           00027                                    AVECTR     +2                         #  MOVE F FROM TEMP LOC. TO 504F
000195: 24,3631           14007                           STODL    504F
000196: 24,3632           76405                           DMP      SL1R
000197: 24,3633           00041                                    COB
000198: 24,3634           14027                           STODL    AVECTR     +2
000199: 24,3635           00011                                    SINNODI                               #  8-9D=SIN(NODI) B-1
000200: 24,3636           76405                           DMP      SL1R
000201: 24,3637           00043                                    SOB
000202: 24,3640           14031                           STODL    AVECTR     +4                         #                         0
000203: 24,3641           06424                                    HI6ZEROS                              #        8-13D= CVECTR= -SOB  B-1
000204: 24,3642           57525                           PDDL     DCOMP                                 #  PD 10D                COB
000205: 24,3643           00043                                    SOB
000206: 24,3644           63325                           PDDL     PDVL                                  #  PD 12D THEN PD 14D
000207: 24,3645           00041                                    COB
000208: 24,3646           00033                                    BVECTR
000209: 24,3647           63361                           VXSC     PDVL                                  #  PD 20D        BVECTR*SINI  B-2
000210: 24,3650           10003                                    SINI
000211: 24,3651           00011                                    CVECTR
000212: 24,3652           53361                           VXSC     VAD                                   #  PD 14D        CVECTR*COSI  B-2
000213: 24,3653           10001                                    COSI
000214: 24,3654           77772                           VSL1
000215: 24,3655           24041                           STOVL    MMATRIX    +12D                       #  PD 8D  M2=BVECTR*SINI+CVECTR*COSI  B-1
000216: 24,3656           63361                           VXSC     PDVL                                  #  PD 14D
000217: 24,3657           10003                                    SINI                                  #                CVECTR*SINI  B-2
000218: 24,3660           00033                                    BVECTR
000219: 24,3661           52361                           VXSC     VSU                                   #  PD 8D         BVECTR*COSI  B-2
000220: 24,3662           10001                                    COSI
000221: 24,3663           65372                           VSL1     PDDL                                  #  PD 14D
000222: 24,3664           00007                                    504F                                  #  8-13D=DVECTR=BVECTR*COSI-CVECTR*SINI  B-1
000223: 24,3665           74346                           COS      VXSC
000224: 24,3666           00011                                    DVECTR
000225: 24,3667           73525                           PDDL     SIN                                   #  PD 20D  14-19D= DVECTR*COSF  B-2
000226: 24,3670           00007                                    504F
000227: 24,3671           52361                           VXSC     VSU                                   #  PD 14D          AVECTR*SINF  B-2
000228: 24,3672           00025                                    AVECTR
000229: 24,3673           77772                           VSL1
000230: 24,3674           14033                           STODL    MMATRIX    +6                         #  M1= AVECTR*SINF-DVECTR*COSF  B-1
000231: 24,3675           00007                                    504F


000233: 24,3676           74356                           SIN      VXSC                                  #  PD 8D
000234: 24,3677           71525                           PDDL     COS                                   #  PD 14D  8-13D=DVECTR*SINF B-2
000235: 24,3700           00007                                    504F
000236: 24,3701           53361                           VXSC     VAD                                   #  PD 8D         AVECTR*COSF B-2
000237: 24,3702           00025                                    AVECTR
000238: 24,3703           57572                           VSL1     VCOMP
000239: 24,3704           34025                           STCALL   MMATRIX                               #  M0= -(AVECTR*COSF+DVECTR*SINF)  B-1
000240: 24,3705           00051                                    EARTHMXX
000241:
000242:                                                                                                  #  COMPUTE X=X0+(XDOT)(T+T0)
000243:                                                                                                  #  8-9D= XO (REVS B-0), PUSHLOC SET AT 12D
000244:                                                                                                  #  10-11D=XDOT (REVS/CSEC) SCALED B+23 FOR WEARTH,B+28 FOR NODDOT AND BDOT
000245:                                                                                                  #                        AND B+27 FOR FDOT
000246:                                                                                                  #   X1=DIFFERENCE IN 23 AND SCALING OF XDOT,=0 FOR WEARTH,5 FOR NODDOT AND
000247:                                                                                                  #                                        BDOT AND 4 FOR FDOT
000248:                                                                                                  #  6-7D=T (CSEC B-28), TIMSUBO= (CSEC B-42 TRIPLE PREC.)
000249:
000250: 24,3706           54345        NEWANGLE           DLOAD    SR                                    #  ENTER PD 12D
000251: 24,3707           00007                                    6D
000252: 24,3710           20617                                    14D
000253: 24,3711           72371                           TAD      TLOAD                                 #  CHANGE MODE TO TP
000254: 24,3712           01707                                    TIMSUBO
000255: 24,3713           00155                                    MPAC
000256: 24,3714           14017                           STODL    TIMSUBM                               #  T+T0 CSEC B-42
000257: 24,3715           00020                                    TIMSUBM    +1
000258: 24,3716           77605                           DMP                                            #  PD 10D        MULT BY XDOT IN 10-11D
000259: 24,3717           43257                           SL*      DAD                                   #  PD 8D         ADD XO IN 8-9D AFTER SHIFTING
000260: 24,3720           20206                                    5,1                                   #                SUCH THAT SCALING IS B-0
000261: 24,3721           67206                           PUSH     SLOAD                                 #  PD 10D  SAVE PARTIAL (X0+XDOT*T) IN 8-9D
000262: 24,3722           00017                                    TIMSUBM
000263: 24,3723           41261                           SL       DMP
000264: 24,3724           20212                                    9D
000265: 24,3725           00013                                    10D                                   #  XDOT
000266: 24,3726           43257                           SL*      DAD                                   #  PD 8D         SHIFT SUCH THAT THIS PART OF X
000267: 24,3727           20213                                    10D,1                                 #                IS SCALED REVS/CSEC B-0
000268: 24,3730           77600                           BOV                                            #  TURN OFF OVERFLOW IF SET BY SHIFT
000269: 24,3731           51732                                    +1                                    #  INSTRUCTION BEFORE EXITING
000270: 24,3732           77616                           RVQ                                            #  MPAC=X= X0+(XDOT)(T+T0)  REVS B0
000271:


000273:                                                                                                  #  ..... EARTHMX SUBROUTINE .....
000274:                                                                                                  #  SUBROUTINE TO COMPUTE THE TRANSFORMATION MATRIX M FOR THE EARTH
000275:
000276:                                                                                                  #  CALLING SEQUENCE
000277:                                                                                                  #        L       CALL
000278:                                                                                                  #        L+1             EARTHMX
000279:
000280:                                                                                                  #  SUBROUTINES USED
000281:                                                                                                  #        NEWANGLE
000282:
000283:                                                                                                  #  INPUT
000284:                                                                                                  #        INPUT AVAILABLE FROM LAUNCH DATA        AZO  REVS B-0
000285:                                                                                                  #                                                TEPHEM  CSEC B-42
000286:                                                                                                  #        6-7D= TIME CSEC B-28
000287:
000288:                                                                                                  #  OUTPUT
000289:                                                                                                  #        MMATRIX= 3X3 M MATRIX B-1       (STORED IN VAC AREA)
000290:
000291: 26,3657                                           BANK     26
000292: 26,2000                                           SETLOC   PLANTIN1
000293: 26,2000                                           BANK
000294: 26,3657                                           COUNT*   $$/LUROT
000295:
000296: 26,3657           40220        EARTHMX            STQ      SETPD                                 #  SET 8-9D=AZO
000297: 26,3660           00051                                    EARTHMXX
000298: 26,3661           00011                                    8D                                    #  10-11D=WEARTH
000299: 26,3662           77770                           AXT,1                                          #  FOR SL 5, AND SL 10 IN NEWANGLE
000300: 26,3663           00000                                    0
000301: 26,3664           65345                           DLOAD    PDDL                                  #  LEAVING PD SET AT 12D FOR NEWANGLE
000302: 26,3665           01712                                    AZO
000303: 26,3666           10021                                    WEARTH
000304: 26,3667           45006                           PUSH     CALL
000305: 26,3670           51706                                    NEWANGLE
000306: 26,3671           41401                           SETPD    PUSH                                  #  18-19D=504AZ
000307: 26,3672           00023                                    18D                                   #                         COS(AZ)   SIN(AZ)     0
000308: 26,3673           65346                           COS      PDDL                                  #  20-37D=  MMATRIX=     -SIN(AZ)   COS(AZ)     0    B-1
000309: 26,3674           00023                                    504AZ                                 #                            0         0        1
000310: 26,3675           65356                           SIN      PDDL
000311: 26,3676           06424                                    HI6ZEROS
000312: 26,3677           73525                           PDDL     SIN
000313: 26,3700           00023                                    504AZ
000314: 26,3701           65276                           DCOMP    PDDL
000315: 26,3702           00023                                    504AZ
000316: 26,3703           63346                           COS      PDVL
000317: 26,3704           06424                                    HI6ZEROS
000318: 26,3705           41525                           PDDL     PUSH
000319: 26,3706           06422                                    HIDPHALF
000320: 26,3707           77650                           GOTO
000321: 26,3710           00051                                    EARTHMXX
000322:


000324:                                                                                                  #  ..... EARTHL SUBROUTINE .....
000325:                                                                                                  #  SUBROUTINE TO COMPUTE L VECTOR FOR EARTH
000326:
000327:                                                                                                  #  CALLING SEQUENCE
000328:                                                                                                  #        L       CALL
000329:                                                                                                  #        L+1             EARTHL
000330:
000331:                                                                                                  #  INPUT
000332:                                                                                                  #        AXO,AYO SET AT LAUNCH TIME WITH AYO IMMEDIATELY FOLLOWING AXO IN CORE
000333:
000334:                                                                                                  #  OUTPUT
000335:                                                                                                  #                -AX
000336:                                                                                                  #        MPAC=   -AY     RADIANS B-0
000337:                                                                                                  #                  0
000338:
000339: 26,3711           57545        EARTHL             DLOAD    DCOMP
000340: 26,3712           01716                                    AXO
000341: 26,3713           14017                           STODL    504LPL
000342: 26,3714           01714                                    -AYO
000343: 26,3715           14021                           STODL    504LPL     +2
000344: 26,3716           06424                                    HI6ZEROS
000345: 26,3717           24023                           STOVL    504LPL     +4
000346: 26,3720           00017                                    504LPL
000347: 26,3721           77616                           RVQ
000348:


000350:                                                                                                  #  CONSTANTS AND ERASABLE ASSIGNMENTS
000351:
000352: 26,3722  11,2272               1B1                =        DP1/2                                 #  1  SCALED B-1
000353: 26,3722  0000050               RPREXIT            =        S1                                    #  R-TO-RP AND RP-TO-R SUBR EXIT
000354: 26,3722  0000051               EARTHMXX           =        S2                                    #  EARTHMX,MOONMX SUBR. EXITS
000355: 26,3722                        504RPR             =        0D                                    #  6 REGS        R OR RP VECTOR
000356: 26,3722                        SINNODI            =        8D                                    #  2             SIN(NODI)
000357: 26,3722                        DVECTR             =        8D                                    #  6             D VECTOR MOON
000358: 26,3722                        CVECTR             =        8D                                    #  6             C VECTR MOON
000359: 26,3722                        504AZ              =        18D                                   #  2            AZ
000360: 26,3722                        TIMSUBM            =        14D                                   #  3             TIME SUB M (MOON) T+T0 IN GETAZ
000361: 26,3722                        504LPL             =        14D                                   #  6             L OR LP VECTOR
000362: 26,3722                        AVECTR             =        20D                                   #  6             A VECTOR (MOON)
000363: 26,3722                        BVECTR             =        26D                                   #  6             B VECTOR (MOON)
000364: 26,3722                        MMATRIX            =        20D                                   #  18            M MATRIX
000365: 26,3722                        COB                =        32D                                   #  2             COS(B) B-1
000366: 26,3722                        SOB                =        34D                                   #  2             SIN(B) B-1
000367: 26,3722                        504F               =        6D                                    #  2             F(MOON)
000368:

End of include-file PLANETARY_INERTIAL_ORIENTATION.agc.  Parent file is MAIN.agc


