
Source Code


000002:                                                                                                  ## Copyright:   Public domain.
000003:                                                                                                  ## Filename:    Q,R-AXES_RCS_AUTOPILOT.agc
000004:                                                                                                  ## Purpose:     A section of LUM69 revision 2.
000005:                                                                                                  ##              It is part of the reconstructed source code for the flown
000006:                                                                                                  ##              version of the flight software for the Lunar Module's (LM)
000007:                                                                                                  ##              Apollo Guidance Computer (AGC) for Apollo 10. The code has
000008:                                                                                                  ##              been recreated from a copy of Luminary revsion 069, using
000009:                                                                                                  ##              changes present in Luminary 099 which were described in
000010:                                                                                                  ##              Luminary memos 75 and 78. The code has been adapted such
000011:                                                                                                  ##              that the resulting bugger words exactly match those specified
000012:                                                                                                  ##              for LUM69 revision 2 in NASA drawing 2021152B, which gives
000013:                                                                                                  ##              relatively high confidence that the reconstruction is correct.
000014:                                                                                                  ## Reference:   pp. 1436-1453
000015:                                                                                                  ## Assembler:   yaYUL
000016:                                                                                                  ## Contact:     Ron Burkey <info@sandroid.org>.
000017:                                                                                                  ## Website:     www.ibiblio.org/apollo/index.html
000018:                                                                                                  ## Mod history: 2019-07-27 MAS  Created from Luminary 69.
000019:


000021: 17,2043                                           BANK     17
000022: 17,2000                                           SETLOC   DAPS2
000023: 17,2000                                           BANK
000024:
000025: 17,2043  E6,1633                                  EBANK=   CDUXD
000026:
000027: 17,2043                                           COUNT*   $$/DAPQR
000028:
000029: 17,2043           34737        CALLQERR           CA       BIT13                                 #  CALCULATE Q,R ERRORS UNLESS THESE AXES
000030: 17,2044           00006                           EXTEND                                         #  ARE IN MANUAL RATE COMMAND.
000031: 17,2045           02031                           RAND     CHAN31
000032: 17,2046           10000                           CCS      A
000033: 17,2047           12054                           TCF      +5                                    #  IN AUTO COMPUTE Q,R ERRORS
000034: 17,2050           40111                           CS       DAPBOOLS                              #  IN MANUAL RATE COMMAND?
000035: 17,2051           74740                           MASK     OURRCBIT
000036: 17,2052           00006                           EXTEND
000037: 17,2053           12055                           BZF      Q,RORGTS                              #  IF SO BYPASS CALCULATION OF ERRORS.
000038: 17,2054           02563                           TC       QERRCALC
000039:
000040: 17,2055           11627        Q,RORGTS           CCS      COTROLER                              #  CHOOSE CONTROL SYSTEM FOR THIS DAP PASS:
000041: 17,2056           12544                           TCF      GOTOGTS                               #    GTS (ALTERNATES WITH RCS WHEN DOCKED)
000042: 17,2057           12531                           TCF      TRYGTS                                #    GTS IF ALLOWED, OTHERWISE RCS
000043: 17,2060           34755        RCS                CAF      ZERO                                  #    RCS (TRYGTS MAY BRANCH TO HERE)
000044: 17,2061           55627                           TS       COTROLER
000045:
000046: 17,2062           53435                           DXCH     EDOTQ
000047: 17,2063           03100                           TC       ROT45DEG
000048: 17,2064           53425                           DXCH     OMEGAU
000049:
000050:                                                                                                  #  X - TRANSLATION:
000051:
000052:                                                                                                  #  INPUT:        BITS 7,8 OF CH31 (TRANSLATION CONTROLLER)
000053:                                                                                                  #                ULLAGER
000054:                                                                                                  #                APSFLAG, DRIFTBIT
000055:                                                                                                  #                ACC40R2X, ACRBTRAN
000056:
000057:                                                                                                  #  OUTPUT:       NEXTU, NEXTV    CODES OF TRANSLATION FOR AFTER ROTATION
000058:                                                                                                  #                SENSETYP        TELL ROTATION DIRECTION AND DESIRE
000059:
000060:                                                                                                  #  X-TRANS POLICIES ARE EITHER 4 JETS OR A DIAGONAL PAIR.  IN 2-JET TRANSLATION THE SYSTEM IS SPECIFIED.  A FAILURE
000061:                                                                                                  #  WILL OVERRIDE THIS SPECIFICATION.  AN ALARM RESULTS WHEN NO POLICY IS AVAILABLE BECAUSE OF FAILURES.
000062:
000063: 17,2065           34745        SENSEGET           CA       BIT7                                  #  INPUT BITS OVERRIDE THE INTERNAL BITS
000064: 17,2066           00006                           EXTEND                                         #  SENSETYP WILL NOT OPPOSE ANYTRANS
000065: 17,2067           02031                           RAND     CHAN31
000066: 17,2070           00006                           EXTEND
000067: 17,2071           12117                           BZF      +XORULGE


000069: 17,2072           34744                           CA       BIT8
000070: 17,2073           00006                           EXTEND
000071: 17,2074           02031                           RAND     CHAN31
000072: 17,2075           00006                           EXTEND
000073: 17,2076           12120                           BZF      -XTRANS
000074:
000075: 17,2077           34746                           CA       ULLAGER
000076: 17,2100           70111                           MASK     DAPBOOLS
000077: 17,2101           10000                           CCS      A
000078: 17,2102           12117                           TCF      +XORULGE
000079:
000080: 17,2103           55471                           TS       NEXTU                                 #  STORE NULL TRANSLATION POLICIES
000081: 17,2104           55472                           TS       NEXTV
000082: 17,2105           40111                           CS       DAPBOOLS                              #  BURNING OR DRIFTING?
000083: 17,2106           74744                           MASK     DRIFTBIT
000084: 17,2107           00006                           EXTEND
000085: 17,2110           12115                           BZF      TSENSE
000086: 17,2111           30106                           CA       FLGWRD10                              #  DPS (INCLUDING DOCKED) OR APS?
000087: 17,2112           74737                           MASK     APSFLBIT
000088: 17,2113           10000                           CCS      A
000089: 17,2114           34752                           CAF      TWO                                   #  FAVOR +X JETS DURING AN APS BURN.
000090: 17,2115           55477        TSENSE             TS       SENSETYP
000091: 17,2116           12151                           TCF      QRCONTRL
000092:
000093: 17,2117           34753        +XORULGE           CAF      ONE
000094: 17,2120           64751        -XTRANS            AD       FOUR
000095: 17,2121           55742                           TS       ROTINDEX
000096: 17,2122           67744                           AD       NEG3
000097: 17,2123           55477                           TS       SENSETYP                              #  FAVOR APPROPRIATE JETS DURING TRANS.
000098: 17,2124           30111                           CA       DAPBOOLS
000099: 17,2125           74741                           MASK     ACC4OR2X
000100: 17,2126           10000                           CCS      A
000101: 17,2127           12256                           TCF      TRANS4
000102:
000103: 17,2130           30111                           CA       DAPBOOLS
000104: 17,2131           74742                           MASK     AORBTRAN
000105: 17,2132           10000                           CCS      A
000106: 17,2133           34753                           CA       ONE                                   #  THREE FOR B
000107: 17,2134           64752                           AD       TWO                                   #  TWO FOR A SYSTEM 2 JET X TRANS
000108: 17,2135           55741        TSNUMBRT           TS       NUMBERT
000109:
000110: 17,2136           03130                           TC       SELCTSUB
000111:
000112: 17,2137           11737                           CCS      POLYTEMP
000113: 17,2140           12143                           TCF      +3
000114: 17,2141           05567                           TC       ALARM
000115: 17,2142           02002                           OCT      02002
000116: 17,2143           35765                           CA       00314OCT
000117: 17,2144           71737                           MASK     POLYTEMP
000118: 17,2145           55471        TSNEXTS            TS       NEXTU


000120: 17,2146           45765                           CS       00314OCT
000121: 17,2147           71737                           MASK     POLYTEMP
000122: 17,2150           55472                           TS       NEXTV
000123:
000124:                                                                                                  #  Q,R-AXES RCS CONTROL MODE SELECTION
000125:                                                                                                  #        SWITCHES        INDICATION WHEN SET
000126:                                                                                                  #        BIT13/CHAN31    AUTO, GO TO ATTSTEER
000127:                                                                                                  #        PULSES          MINIMUM IMPULSE MODE
000128:                                                                                                  #        (OTHERWISE)     RATE COMMAND/ATTITUDE HOLD MODE
000129:
000130: 17,2151           34737        QRCONTRL           CA       BIT13                                 #  CHECK MODE SELECT SWITCH.
000131: 17,2152           00006                           EXTEND
000132: 17,2153           02031                           RAND     CHAN31                                #  BITS INVERTED
000133: 17,2154           10000                           CCS      A
000134: 17,2155           12616                           TCF      ATTSTEER
000135: 17,2156           34735        CHKBIT10           CAF      PULSES                                #  PULSES = 1 FOR MIN IMP USE OF RHC
000136: 17,2157           70111                           MASK     DAPBOOLS
000137: 17,2160           00006                           EXTEND
000138: 17,2161           12260                           BZF      CHEKSTIK                              #  IN ATT-HOLD/RATE-COMMAND IF BIT10=0
000139:
000140:                                                                                                  #  MINIMUM IMPULSE MODE
000141:
000142: 17,2162           00004                           INHINT
000143: 17,2163           04674                           TC       IBNKCALL
000144: 17,2164           40153                           CADR     ZATTEROR
000145: 17,2165           34755                           CA       ZERO
000146: 17,2166           55446                           TS       QERROR
000147: 17,2167           55450                           TS       RERROR                                #  FOR DISPLAYS
000148: 17,2170           00003                           RELINT
000149:
000150: 17,2171           00006                           EXTEND
000151: 17,2172           00031                           READ     CHAN31
000152: 17,2173           55735                           TS       TEMP31                                #  IS EQUAL TO DAPTEMP1
000153: 17,2174           11457                           CCS      OLDQRMIN
000154: 17,2175           12217                           TCF      CHECKIN
000155:
000156: 17,2176           31735        FIREQR             CA       TEMP31
000157: 17,2177           74753                           MASK     BIT1
000158: 17,2200           00006                           EXTEND
000159: 17,2201           12223                           BZF      +QMIN
000160:
000161: 17,2202           31735                           CA       TEMP31
000162: 17,2203           74752                           MASK     BIT2
000163: 17,2204           00006                           EXTEND
000164: 17,2205           12227                           BZF      -QMIN
000165:
000166: 17,2206           31735                           CA       TEMP31
000167: 17,2207           74747                           MASK     BIT5


000169: 17,2210           00006                           EXTEND
000170: 17,2211           12233                           BZF      +RMIN
000171:
000172: 17,2212           31735                           CA       TEMP31
000173: 17,2213           74746                           MASK     BIT6
000174: 17,2214           00006                           EXTEND
000175: 17,2215           12235                           BZF      -RMIN
000176:
000177: 17,2216           13015                           TCF      XTRANS
000178:
000179: 17,2217           41735        CHECKIN            CS       TEMP31
000180: 17,2220           72255                           MASK     OCT63
000181: 17,2221           55457                           TS       OLDQRMIN
000182: 17,2222           13015                           TCF      XTRANS
000183:
000184: 17,2223           33041        +QMIN              CA       14MS
000185: 17,2224           55525                           TS       TJU
000186: 17,2225           43041                           CS       14MS
000187: 17,2226           12237                           TCF      MINQR
000188: 17,2227           43041        -QMIN              CS       14MS
000189: 17,2230           55525                           TS       TJU
000190: 17,2231           33041                           CA       14MS
000191: 17,2232           12237                           TCF      MINQR
000192: 17,2233           33041        +RMIN              CA       14MS
000193: 17,2234           12236                           TCF      +2
000194: 17,2235           43041        -RMIN              CS       14MS
000195: 17,2236           55525                           TS       TJU
000196: 17,2237           55526        MINQR              TS       TJV
000197: 17,2240           32254                           CA       MINADR
000198: 17,2241           55475                           TS       RETJADR
000199: 17,2242           34753                           CA       ONE
000200: 17,2243           55457                           TS       OLDQRMIN
000201: 17,2244           55476        MINRTN             TS       AXISCTR
000202: 17,2245           30111                           CA       DAPBOOLS
000203: 17,2246           74742                           MASK     AORBTRAN
000204: 17,2247           10000                           CCS      A
000205: 17,2250           34753                           CA       ONE
000206: 17,2251           64752                           AD       TWO
000207: 17,2252           55741                           TS       NUMBERT
000208: 17,2253           12661                           TCF      AFTERTJ
000209:
000210: 17,2254           02244        MINADR             GENADR   MINRTN
000211: 17,2255           00063        OCT63              OCT      63
000212: 17,2256  17,3041               14MS               =        +TJMINT6
000213:
000214: 17,2256           34751        TRANS4             CA       FOUR
000215: 17,2257           12135                           TCF      TSNUMBRT
000216:
000217:                                                                                                  #  RATE COMMAND MODE:


000219:                                                                                                  #  DESCRIPTION (SAME AS P-AXIS)
000220:
000221: 17,2260           55631        CHEKSTIK           TS       INGTS                                 #  NOT IN GTS WHEN IN ATT HOLD
000222: 17,2261           44753                           CS       ONE                                   #  1/ACCS WILL DO THE NULLING DRIVES
000223: 17,2262           55627                           TS       COTROLER                              #  COME BACK TO RCS NEXT TIME
000224: 17,2263           34735                           CA       BIT15
000225: 17,2264           71441                           MASK     CH31TEMP
000226: 17,2265           00006                           EXTEND
000227: 17,2266           12305                           BZF      RHCACTIV                              #  BRANCH IF OUT OF DETENT.
000228: 17,2267           34740                           CA       OURRCBIT                              #  ***********
000229: 17,2270           70111                           MASK     DAPBOOLS                              #  *IN DETENT*   CHECK FOR MANUAL CONTROL
000230: 17,2271           00006                           EXTEND                                         #  ***********   LAST TIME.
000231: 17,2272           12616                           BZF      STILLRCS
000232: 17,2273           44743                           CS       BIT9
000233: 17,2274           71273                           MASK     RCSFLAGS
000234: 17,2275           55273                           TS       RCSFLAGS                              #  BIT 9 IS 0.
000235: 17,2276           12302                           TCF      DAMPING
000236: 17,2277           00050        40CYCL             OCT      50
000237: 17,2300           00001        1/10S              OCT      1
000238: 17,2301           00056        LINRAT             DEC      46         B-14
000239:
000240:                                                                                                  #  ================================
000241:
000242: 17,2302           34755        DAMPING            CA       ZERO
000243: 17,2303           55460                           TS       SAVEHAND
000244: 17,2304           55461                           TS       SAVEHAND   +1
000245: 17,2305           11460        RHCACTIV           CCS      SAVEHAND                              #  *******************
000246: 17,2306           12311                           TCF      +3                                    #  Q,R MANUAL CONTROL    WC = A*(B+|D|)*D
000247: 17,2307           12311                           TCF      +2                                    #  *******************
000248: 17,2310           12311                           TCF      +1
000249: 17,2311           60000                           DOUBLE                                         #  WHERE
000250: 17,2312           60000                           DOUBLE
000251: 17,2313           62301                           AD       LINRAT                                #        WC  = COMMANDED ROTATIONAL RATE
000252: 17,2314           00006                           EXTEND                                         #        A   = QUADRATIC SENSITIVITY FACTOR
000253: 17,2315           71460                           MP       SAVEHAND                              #        B   = LINEAR/QUADRATIC SENSITIVITY
000254: 17,2316           30001                           CA       L                                     #        |D| = ABS. VALUE OF DEFLECTION
000255: 17,2317           00006                           EXTEND                                         #        D   = HAND CONTROLLER DEFLECTION
000256: 17,2320           71442                           MP       STIKSENS
000257: 17,2321           57453                           XCH      QLAST                                 #  COMMAND Q RATE     SCALED 45 DEG/SEC
000258: 17,2322           40000                           COM
000259: 17,2323           61453                           AD       QLAST
000260: 17,2324           55737                           TS       DAPTEMP3
000261: 17,2325           11461                           CCS      SAVEHAND   +1
000262: 17,2326           12331                           TCF      +3
000263: 17,2327           12331                           TCF      +2
000264: 17,2330           12331                           TCF      +1
000265: 17,2331           60000                           DOUBLE
000266: 17,2332           60000                           DOUBLE
000267: 17,2333           62301                           AD       LINRAT
000268: 17,2334           00006                           EXTEND
000269: 17,2335           71461                           MP       SAVEHAND   +1
000270: 17,2336           30001                           CA       L


000272: 17,2337           00006                           EXTEND
000273: 17,2340           71442                           MP       STIKSENS
000274: 17,2341           57454                           XCH      RLAST
000275: 17,2342           40000                           COM
000276: 17,2343           61454                           AD       RLAST
000277: 17,2344           55740                           TS       DAPTEMP4
000278: 17,2345           41453                           CS       QLAST                                 #  INTERVAL.
000279: 17,2346           61420                           AD       OMEGAQ
000280: 17,2347           55434                           TS       QRATEDIF
000281: 17,2350           41454                           CS       RLAST
000282: 17,2351           61421                           AD       OMEGAR
000283: 17,2352           55435                           TS       RRATEDIF
000284: 17,2353           53435        ENTERQR            DXCH     QRATEDIF                              #  TRANSFORM RATES FROM Q,R TO U,V AXES
000285: 17,2354           03100                           TC       ROT45DEG
000286: 17,2355           53425                           DXCH     URATEDIF
000287: 17,2356           11737                           CCS      DAPTEMP3                              #  CHECK IF Q COMMAND CHANGE EXCEEDS
000288: 17,2357           02362                           TC       +3                                    #  BREAKOUT LEVEL.  IF NOT, CHECK R.
000289: 17,2360           02362                           TC       +2
000290: 17,2361           02362                           TC       +1
000291: 17,2362           61474                           AD       -RATEDB
000292: 17,2363           00006                           EXTEND
000293: 17,2364           62366                           BZMF     +2
000294: 17,2365           12404                           TCF      ENTERUV    -2                         #  BREAKOUT LEVEL EXCEEDED.  DIRECT RATE.
000295: 17,2366           11740                           CCS      DAPTEMP4                              #  R COMMAND BREAKOUT CHECK.
000296: 17,2367           02372                           TC       +3
000297: 17,2370           02372                           TC       +2
000298: 17,2371           02372                           TC       +1
000299: 17,2372           61474                           AD       -RATEDB
000300: 17,2373           00006                           EXTEND
000301: 17,2374           62376                           BZMF     +2
000302: 17,2375           12404                           TCF      ENTERUV    -2                         #  BREAKOUT LEVEL EXCEEDED.  DIRECT RATE.
000303: 17,2376           31273                           CA       RCSFLAGS                              #  BREAKOUT LEVEL NOT EXCEEDED.  CHECK FOR
000304: 17,2377           74741                           MASK     QRBIT                                 #  DIRECT RATE CONTROL LAST TIME.
000305: 17,2400           00006                           EXTEND
000306: 17,2401           12403                           BZF      +2
000307: 17,2402           12406                           TCF      ENTERUV                               #  CONTINUE DIRECT RATE CONTROL.
000308: 17,2403           12616                           TCF      STILLRCS                              #  PSEUDO-AUTO CONTROL.
000309: 17,2404           32277                           CA       40CYCL
000310: 17,2405           55455                           TS       TCQR
000311: 17,2406           00004        ENTERUV            INHINT                                         #  DIRECT RATE CONTROL.
000312: 17,2407           04674                           TC       IBNKCALL
000313: 17,2410           40153                           FCADR    ZATTEROR
000314: 17,2411           00003                           RELINT
000315: 17,2412           34755                           CA       ZERO
000316: 17,2413           55446                           TS       DYERROR
000317: 17,2414           55447                           TS       DYERROR    +1
000318: 17,2415           55450                           TS       DZERROR
000319: 17,2416           55451                           TS       DZERROR    +1
000320: 17,2417           11424                           CCS      URATEDIF
000321: 17,2420           12423                           TCF      +3


000323: 17,2421           12423                           TCF      +2
000324: 17,2422           12423                           TCF      +1
000325: 17,2423           61474                           AD       TARGETDB                              #  IF TARGET DB IS EXCEEDED, CONTINUE
000326: 17,2424           00006                           EXTEND                                         #  DIRECT RATE CONTROL.
000327: 17,2425           62441                           BZMF     VDB
000328: 17,2426           11425                           CCS      VRATEDIF
000329: 17,2427           12432                           TCF      +3
000330: 17,2430           12432                           TCF      +2
000331: 17,2431           12432                           TCF      +1
000332: 17,2432           61474                           AD       TARGETDB
000333: 17,2433           00006                           EXTEND
000334: 17,2434           62436                           BZMF     +2
000335: 17,2435           12452                           TCF      QRTIME
000336: 17,2436           34755                           CA       ZERO
000337: 17,2437           55425                           TS       VRATEDIF
000338: 17,2440           12452                           TCF      QRTIME
000339: 17,2441           11425        VDB                CCS      VRATEDIF
000340: 17,2442           02445                           TC       +3
000341: 17,2443           02445                           TC       +2
000342: 17,2444           02445                           TC       +1
000343: 17,2445           61474                           AD       TARGETDB                              #  IF TARGET DB IS EXCEEDED, CONTINUE
000344: 17,2446           00006                           EXTEND                                         #  DIRECT RATE CONTROL.  IF NOT, FIRE AND
000345: 17,2447           62461                           BZMF     TOPSEUDO                              #  SWITCH TO PSEUDO-AUTO CONTROL ON NEXT
000346: 17,2450           34755                           CA       ZERO                                  #  PASS.
000347: 17,2451           55424                           TS       URATEDIF
000348: 17,2452           31455        QRTIME             CA       TCQR                                  #  DIRECT RATE TIME CHECK.
000349: 17,2453           00006                           EXTEND
000350: 17,2454           62461                           BZMF     +5                                    #  BRANCH IF TIME EXCEEDS 4 SEC.
000351: 17,2455           41273                           CS       RCSFLAGS
000352: 17,2456           74741                           MASK     QRBIT
000353: 17,2457           27273                           ADS      RCSFLAGS                              #  BIT 11 IS 1.
000354: 17,2460           02464                           TC       +4
000355: 17,2461           44741        TOPSEUDO           CS       QRBIT
000356: 17,2462           71273                           MASK     RCSFLAGS
000357: 17,2463           55273                           TS       RCSFLAGS                              #  BIT 11 IS 0.
000358: 17,2464           32530                           CA       HANDADR
000359: 17,2465           55475                           TS       RETJADR
000360: 17,2466           34753                           CA       ONE
000361: 17,2467           55476        BACKHAND           TS       AXISCTR
000362:
000363: 17,2470           34751                           CA       FOUR
000364: 17,2471           55741                           TS       NUMBERT
000365:
000366: 17,2472           51476                           INDEX    AXISCTR
000367: 17,2473           51535                           INDEX    SKIPU
000368: 17,2474           12475                           TCF      +1
000369: 17,2475           34751                           CA       FOUR
000370: 17,2476           51476                           INDEX    AXISCTR
000371: 17,2477           55535                           TS       SKIPU
000372: 17,2500           12737                           TCF      LOOPER


000374: 17,2501           51476                           INDEX    AXISCTR
000375: 17,2502           11424                           CCS      URATEDIF                              #        INDEX   AXIS    QUANITY
000376: 17,2503           34755                           CA       ZERO                                  #        0       -U      1/JETACC-AOSU
000377: 17,2504           12506                           TCF      +2                                    #        1       +U      1/JETACC+AOSU
000378: 17,2505           34753                           CA       ONE                                   #        16      -V      1/JETACC-AOSV
000379: 17,2506           51476                           INDEX    AXISCTR                               #        17      +V      1/JETACC+AOSV
000380: 17,2507           63657                           AD       AXISDIFF                              #  JETACC = 2 JET ACCELERATION (1 FOR FAIL)
000381:
000382: 17,2510           50000                           INDEX    A
000383: 17,2511           41571                           CS       1/ANET2    +1
000384: 17,2512           00006                           EXTEND
000385: 17,2513           51476                           INDEX    AXISCTR                               #  URATEDIF IS SCALED AT PI/4 RAD/SEC
000386: 17,2514           71424                           MP       URATEDIF                              #   JET TIME IN A      SCALED 32 SEC
000387: 17,2515           54002                           TS       Q
000388: 17,2516           20001                           DAS      A
000389: 17,2517           60002                           AD       Q
000390: 17,2520           54000                           TS       A                                     #   OVERFLOW SKIP
000391: 17,2521           12523                           TCF      +2
000392: 17,2522           30002                           CA       Q                                     #  RIGHT SIGN AND BIGGER THAN 150MS
000393: 17,2523           51476        SETTIME            INDEX    AXISCTR
000394: 17,2524           55525                           TS       TJU                                   #  SCALED AT 10.67 WHICH IS CLOSE TO 10.24
000395: 17,2525           12661                           TCF      AFTERTJ
000396:
000397: 17,2526           34755        ZEROTJ             CA       ZERO
000398: 17,2527           12523                           TCF      SETTIME
000399:
000400: 17,2530           02467        HANDADR            GENADR   BACKHAND
000401:
000402:                                                                                                  #  GTS WILL BE TRIED IF
000403:                                                                                                  #        1. USEQRJTS= 0,
000404:                                                                                                  #        2. ALLOWGTS POS,
000405:                                                                                                  #        3. JETS ARE OFF (Q,R-AXES)
000406:
000407: 17,2531           34736        TRYGTS             CAF      USEQRJTS                              #  IS JET USE MANDATORY.         (AS LONG AS
000408: 17,2532           70111                           MASK     DAPBOOLS                              #  USEQRJTS BIT IS NOT BIT 15, CCS IS SAFE)
000409: 17,2533           10000                           CCS      A
000410: 17,2534           12060                           TCF      RCS
000411: 17,2535           11501                           CCS      ALLOWGTS                              #  NO.  DOES AOSTASK OK CONTROL FOR GTS?
000412: 17,2536           12540                           TCF      +2
000413: 17,2537           12060                           TCF      RCS
000414: 17,2540           00006                           EXTEND
000415: 17,2541           00005                           READ     CHAN5
000416: 17,2542           10000                           CCS      A
000417: 17,2543           12547                           TCF      CHKINGTS
000418: 17,2544           00006        GOTOGTS            EXTEND
000419: 17,2545           32562                           DCA      GTSCADR
000420: 17,2546           52006                           DTCB
000421:
000422: 17,2547           11631        CHKINGTS           CCS      INGTS                                 #  WAS THE TRIM GIMBAL CONTROLLING
000423: 17,2550           12552                           TCF      +2                                    #        YES.  SET UP A DAMPED NULLING DRIVE.
000424: 17,2551           12060                           TCF      RCS                                   #        NO.  NULLING WAS SET UP BEFORE.  DO RCS


000426: 17,2552           00004                           INHINT
000427: 17,2553           04674                           TC       IBNKCALL
000428: 17,2554           43450                           CADR     TIMEGMBL
000429: 17,2555           00003                           RELINT
000430: 17,2556           34755                           CAF      ZERO
000431: 17,2557           55631                           TS       INGTS
000432: 17,2560           12060                           TCF      RCS
000433:
000434: 17,2561  E6,1633                                  EBANK=   CDUXD
000435: 17,2561           03263 42106  GTSCADR            2CADR    GTS
000436:


000438:                                                                                                  #  SUBROUTINE TO COMPUTE Q,R-AXES ATTITUDE ERRORS FOR USE IN THE RCS AND GTS CONTROL LAWS AND THE DISPLAYS.
000439:
000440: 17,2563           30033        QERRCALC           CAE      CDUY                                  #  Q-ERROR CALCULATION
000441: 17,2564           00006                           EXTEND
000442: 17,2565           21634                           MSU      CDUYD                                 #  CDU ANGLE - ANGLE DESIRED (Y-AXIS)
000443: 17,2566           55735                           TS       DAPTEMP1                              #  SAVE FOR RERRCALC
000444: 17,2567           00006                           EXTEND
000445: 17,2570           71413                           MP       M21                                   #  (CDUY-CDUYD)*M21 SCALED AT PI RADIANS
000446: 17,2571           55750                           TS       E
000447: 17,2572           30034                           CAE      CDUZ                                  #  SECOND TERM CALCULATION:
000448: 17,2573           00006                           EXTEND
000449: 17,2574           21635                           MSU      CDUZD                                 #  CDU ANGLE -ANGLE DESIRED (Z-AXIS)
000450: 17,2575           55736                           TS       DAPTEMP2                              #  SAVE FOR RERRCALC
000451: 17,2576           00006                           EXTEND
000452: 17,2577           71415                           MP       M22                                   #  (CDUZ-CDUZD)*M22 SCALED AT PI RADIANS
000453: 17,2600           61300                           AD       DELQEROR                              #  KALCMANU INERFACE ERROR
000454: 17,2601           61750                           AD       E
000455: 17,2602           57446                           XCH      QERROR                                #  SAVE Q-ERROR FOR EIGHT-BALL DISPLAY.
000456:
000457: 17,2603           31735        RERRCALC           CAE      DAPTEMP1                              #  R-ERROR CALCULATION:
000458: 17,2604           00006                           EXTEND                                         #  CDU ANGLE -ANGLE DESIRED (Y-AXIS)
000459: 17,2605           71414                           MP       M31                                   #  (CDUY-CDUYD)*M31 SCALED AT PI RADIANS
000460: 17,2606           55750                           TS       E
000461: 17,2607           31736                           CAE      DAPTEMP2                              #  SECOND TERM CALCULATION:
000462: 17,2610           00006                           EXTEND                                         #  CDU ANGLE -ANGLE DESIRED (Z-AXIS)
000463: 17,2611           71416                           MP       M32                                   #  (CDUZ-CDUZD)*M32 SCALED AT PI RADIANS
000464: 17,2612           61301                           AD       DELREROR                              #  KALCMANU INERFACE ERROR
000465: 17,2613           61750                           AD       E
000466: 17,2614           57450                           XCH      RERROR                                #  SAVE R-ERROR FOR EIGHT-BALL DISPLAY.
000467: 17,2615           00002                           TC       Q
000468:


000470:                                                                                                  #  "ATTSTEER" IS THE ENTRY POINT FOR Q,R-AXES (U,V-AXES) ATTITUDE CONTROL USING THE REACTION CONTROL SYSTEM
000471:
000472: 17,2616  17,2616               ATTSTEER           EQUALS   STILLRCS                              #  "STILLRCS" IS THE RCS EXIT FROM TRYGTS.
000473:
000474: 17,2616           31450        STILLRCS           CA       RERROR
000475: 17,2617           22000                           LXCH     A
000476: 17,2620           31446                           CA       QERROR
000477: 17,2621           03100                           TC       ROT45DEG
000478: 17,2622           53750                           DXCH     UERROR
000479:
000480:                                                                                                  #  PREPARES CALL TO TJETLAW (OR SPSRCS(DOCKED))
000481:                                                                                                  #  PREFORMS SKIP LOGIC ON U OR Y AXIS IF NEEDED.
000482:
000483: 17,2623           33045        TJLAW              CA       TJLAWADR
000484: 17,2624           55475                           TS       RETJADR
000485: 17,2625           34753                           CA       ONE
000486: 17,2626           55476                           TS       AXISCTR
000487: 17,2627           51476                           INDEX    AXISCTR
000488: 17,2630           51535                           INDEX    SKIPU
000489: 17,2631           12632                           TCF      +1
000490: 17,2632           34751                           CA       FOUR
000491: 17,2633           51476                           INDEX    AXISCTR
000492: 17,2634           55535                           TS       SKIPU
000493: 17,2635           12737                           TCF      LOOPER
000494: 17,2636           51476                           INDEX    AXISCTR
000495: 17,2637           31747                           CA       UERROR
000496: 17,2640           55750                           TS       E
000497: 17,2641           51476                           INDEX    AXISCTR
000498: 17,2642           31424                           CA       OMEGAU
000499: 17,2643           55425                           TS       EDOT
000500: 17,2644           30111                           CA       DAPBOOLS
000501: 17,2645           74737                           MASK     CSMDOCKD
000502: 17,2646           10000                           CCS      A
000503: 17,2647           12652                           TCF      +3
000504: 17,2650           03207                           TC       TJETLAW
000505: 17,2651           12661                           TCF      AFTERTJ
000506: 17,2652           40111                 +3        CS       DAPBOOLS                              #  DOCKED.  IF GIMBAL USABLE DO GTS CONTROL
000507: 17,2653           74736                           MASK     USEQRJTS                              #   ON THE NEXT PASS.
000508: 17,2654           10000                           CCS      A                                     #  USEQRJTS BIT MUST NOT BE BIT 15.
000509: 17,2655           55627                           TS       COTROLER                              #  GIMBAL USABLE.  STORE POSITIVE VALUE.
000510: 17,2656           03700                           TC       SPSRCS                                #  DETERMINE RCS CONTROL.
000511: 17,2657           34751                           CAF      FOUR                                  #  ALWAYS CALL FOR 2-JET CONTROL ABOUT U,V.
000512: 17,2660           55741                           TS       NUMBERT                               #  FALL THROUGH TO JET SELECTION, ETC.
000513:
000514:                                                                                                  #  Q,R-JET-SELECTION-LOGIC
000515:
000516:                                                                                                  #  INPUT:        AXISCTR         0,1 FOR U,V
000517:                                                                                                  #                SNUFFBIT        ZERO TJETU,V AND TRANS. ONLY IF SET IN A DPS BURN
000518:                                                                                                  #                TJU,TJV         JET TIME SCALED 10.24 SEC.
000519:                                                                                                  #                NUMBERT         INDICATES NUMBER OF JETS AND TYPE OF POLICY
000520:                                                                                                  #                RETJADR         WHERE TO RETURN TO


000522:                                                                                                  #  OUTPUT:       NO.U(V)JETS     RATE DERIVATION FEEDBACK
000523:                                                                                                  #                CHANNEL 5
000524:                                                                                                  #                SKIPU,SKIRV     FOR LESS THAN 150MS FIRING
000525:
000526:                                                                                                  #  NOTES:        IN CASE OF FAILURE IN DESIRED ROTATION POLICY, "ALL" UNFAILED
000527:                                                                                                  #                JETS OF THE DESIRED POLICY ARE SELECTED. SINCE THERE ARE ONLY
000528:                                                                                                  #                TWO JETS, THIS MEANS THE OTHER ONE OR NONE. THE ALARM IS SENT
000529:                                                                                                  #                IF NONE CAN BE FOUND.
000530:
000531:                                                                                                  #                TIMES LESS THAN 14 MSEC ARE TAKEN TO CALL FOR A SINGLE-JET
000532:                                                                                                  #                MINIMUM IMPULSE, WITH THE JET CHOSEN SEMI-RANDOMLY.
000533:
000534: 17,2661           30101        AFTERTJ            CA       FLAGWRD5                              #  IF SNUFFBIT SET DURING A DPS BURN GO TO
000535: 17,2662           74737                           MASK     SNUFFBIT                              #   XTRANS; THAT IS, INHIBIT CONTROL.
000536: 17,2663           00006                           EXTEND
000537: 17,2664           12675                           BZF      DOROTAT
000538: 17,2665           40106                           CS       FLGWRD10
000539: 17,2666           74737                           MASK     APSFLBIT
000540: 17,2667           00006                           EXTEND
000541: 17,2670           12675                           BZF      DOROTAT
000542: 17,2671           30111                           CA       DAPBOOLS
000543: 17,2672           74744                           MASK     DRIFTBIT
000544: 17,2673           00006                           EXTEND
000545: 17,2674           13015                           BZF      XTRANS
000546:
000547: 17,2675           34752        DOROTAT            CAF      TWO
000548: 17,2676           54001                           TS       L
000549: 17,2677           51476                           INDEX    AXISCTR
000550: 17,2700           11525                           CCS      TJU
000551: 17,2701           12706                           TCF      +5
000552: 17,2702           12731                           TCF      NOROTAT
000553: 17,2703           12705                           TCF      +2
000554: 17,2704           12731                           TCF      NOROTAT
000555: 17,2705           22007                           ZL
000556: 17,2706           64753                           AD       ONE
000557: 17,2707           55735                           TS       ABSTJ
000558:
000559: 17,2710           31476                           CA       AXISCTR
000560: 17,2711           60001                           AD       L
000561: 17,2712           55742                           TS       ROTINDEX                              #  0 1 2 3 = -U -V -+U +V
000562:
000563: 17,2713           31735                           CA       ABSTJ
000564: 17,2714           63042                           AD       -150MS
000565: 17,2715           00006                           EXTEND
000566: 17,2716           62742                           BZMF     DOSKIP
000567:
000568: 17,2717           03130                           TC       SELCTSUB
000569:
000570: 17,2720           51476                           INDEX    AXISCTR
000571: 17,2721           33037                           CA       INDEXES


000573: 17,2722           54001                           TS       L
000574:
000575: 17,2723           31737                           CA       POLYTEMP
000576: 17,2724           00004                           INHINT
000577: 17,2725           50001                           INDEX    L
000578: 17,2726           05745                           TC       WRITEP
000579:
000580: 17,2727           00003                           RELINT
000581: 17,2730           13003                           TCF      FEEDBACK
000582:
000583: 17,2731           51476        NOROTAT            INDEX    AXISCTR
000584: 17,2732           33037                           CA       INDEXES
000585: 17,2733           00004                           INHINT
000586: 17,2734           50000                           INDEX    A
000587: 17,2735           05744                           TC       WRITEP     -1
000588:
000589: 17,2736           00003                           RELINT
000590: 17,2737           11476        LOOPER             CCS      AXISCTR
000591: 17,2740           01475                           TC       RETJADR
000592: 17,2741           13173                           TCF      CLOSEOUT
000593: 17,2742           41735        DOSKIP             CS       ABSTJ
000594: 17,2743           63041                           AD       +TJMINT6                              #  14MS
000595: 17,2744           00006                           EXTEND
000596: 17,2745           62764                           BZMF     NOTMIN
000597:
000598: 17,2746           27735                           ADS      ABSTJ
000599: 17,2747           51476                           INDEX    AXISCTR
000600: 17,2750           11525                           CCS      TJU
000601: 17,2751           33041                           CA       +TJMINT6
000602: 17,2752           12754                           TCF      +2
000603: 17,2753           43041                           CS       +TJMINT6
000604: 17,2754           51476                           INDEX    AXISCTR
000605: 17,2755           55525                           TS       TJU
000606:
000607: 17,2756           11477                           CCS      SENSETYP                              #  ENSURE MIN-IMPULSE NOT AGAINST TRANS
000608: 17,2757           12763                           TCF      NOTMIN     -1
000609: 17,2760           00006                           EXTEND
000610: 17,2761           00004                           READ     LOSCALAR
000611: 17,2762           74753                           MASK     ONE
000612: 17,2763           55741                           TS       NUMBERT
000613:
000614: 17,2764           03130        NOTMIN             TC       SELCTSUB
000615:
000616: 17,2765           51476                           INDEX    AXISCTR
000617: 17,2766           33037                           CA       INDEXES
000618: 17,2767           00004                           INHINT
000619: 17,2770           55467                           TS       T6FURTHA   +1
000620: 17,2771           31737                           CA       POLYTEMP
000621: 17,2772           51467                           INDEX    T6FURTHA   +1
000622: 17,2773           05745                           TC       WRITEP


000624: 17,2774           31735                           CA       ABSTJ
000625: 17,2775           55466                           TS       T6FURTHA
000626: 17,2776           03046                           TC       JTLST                                 #  IN QR BANK BY NOW
000627:
000628: 17,2777           00003                           RELINT
000629:
000630: 17,3000           34755                           CA       ZERO
000631: 17,3001           51476                           INDEX    AXISCTR
000632: 17,3002           55535                           TS       SKIPU
000633:
000634: 17,3003           46244        FEEDBACK           CS       THREE
000635: 17,3004           61741                           AD       NUMBERT
000636: 17,3005           00006                           EXTEND
000637: 17,3006           63011                           BZMF     +3
000638:
000639: 17,3007           34752                           CA       TWO
000640: 17,3010           13012                           TCF      +2
000641: 17,3011           34753                           CA       ONE
000642: 17,3012           51476                           INDEX    AXISCTR
000643: 17,3013           55522                           TS       NO.UJETS
000644: 17,3014           12737                           TCF      LOOPER
000645:
000646: 17,3015           34755        XTRANS             CA       ZERO
000647: 17,3016           55525                           TS       TJU
000648: 17,3017           55526                           TS       TJV
000649: 17,3020           34751                           CA       FOUR
000650: 17,3021           00004                           INHINT
000651: 17,3022           57535                           XCH      SKIPU
000652: 17,3023           00006                           EXTEND
000653: 17,3024           13026                           BZF      +2
000654: 17,3025           05750                           TC       WRITEU     -1
000655: 17,3026           34751                           CA       FOUR
000656: 17,3027           57536                           XCH      SKIPV
000657: 17,3030           00003                           RELINT
000658:
000659: 17,3031           00006                           EXTEND
000660: 17,3032           13173                           BZF      CLOSEOUT
000661: 17,3033           00004                           INHINT
000662: 17,3034           05761                           TC       WRITEV     -1
000663: 17,3035           00003                           RELINT
000664:
000665: 17,3036           13173                           TCF      CLOSEOUT
000666: 17,3037           00004        INDEXES            DEC      4          B-14
000667: 17,3040           00015                           DEC      13         B-14
000668: 17,3041           00026        +TJMINT6           DEC      22         B-14
000669: 17,3042           77417        -150MS             DEC      -240       B-14
000670: 17,3043           00600        BIT8,9             OCT      00600
000671: 17,3044           00266        SCLNORM            OCT      266
000672: 17,3045           02626        TJLAWADR           GENADR   TJLAW      +3                         #  RETURN ADDRESS FOR RCS ATTITUDE CONTROL
000673:


000675:                                                                                                  #  THE JET LIST:
000676:                                                                                                  #  THIS IS A WAITLIST FOR T6RUPTS.
000677:
000678:                                                                                                  #  CALLED BY:
000679:                                                                                                  #                CA      TJ              TIME WHEN NEXT JETS WILL BE WRITTEN
000680:                                                                                                  #                TS      T6FURTHA
000681:                                                                                                  #                CA      INDEX           AXIS TO BE WIRTTEN AT TJ (FROM NOW)
000682:                                                                                                  #                TS      T6FURTHA +1
000683:                                                                                                  #                TC      JTLST
000684:
000685:                                                                                                  #  EXAMPLE - U-AXIS AUTOPILOT WILL WRITE ITS ROTATION CODE OF
000686:                                                                                                  #  JETS INTO CHANNEL 5.  IF IT DESIRES TO TURN OFF THIS POLICY WITHIN
000687:                                                                                                  #  150MS AND THEN FIRE NEXTU, A CALL TO JTLST IS MADE WITH T6FURTHA
000688:                                                                                                  #  CONTAINING THE TIME TO TURN OFF THE POLICY, T6FURTHA +1 THE INDEX
000689:                                                                                                  #  OF THE U-AXIS(4), AND NEXTU WILL CONTAIN THE "U-TRANS" POLICY OR ZERO.
000690:
000691:                                                                                                  #  THE LIST IS EXACTLY 3 LONG.  (THIS LEADS TO SKIP LOGIC AND 150MS LIMIT)
000692:                                                                                                  #  THE INPUT IS THE LAST MEMBER OF THE LIST
000693:
000694:                                                                                                  #  RETURNS BY:
000695:                                                                                                  #        +       TC      Q
000696:
000697:                                                                                                  #  DEFINITIONS:  (OUTPUT)
000698:                                                                                                  #        TIME6           TIME OF NEXT RUPT
000699:                                                                                                  #        T6NEXT          DELTA TIME TO NEXT RUPT
000700:                                                                                                  #        T6FURTHA        DELTA TIME FROM 2ND TO LAST RUPT
000701:                                                                                                  #        NXT6ADR         AXIS INDEX       Q - P-AXIS
000702:                                                                                                  #        T6NEXT +1       AXIS INDEX       4 - U-AXIS
000703:                                                                                                  #        T6FURTHA +1     AXIS INDEX      13 - V-AXIS
000704:
000705: 17,3046           41466        JTLST              CS       T6FURTHA
000706: 17,3047           60031                           AD       TIME6
000707: 17,3050           00006                           EXTEND
000708: 17,3051           63063                           BZMF     MIDORLST                              #  TIME6 - T IS IN A
000709:
000710: 17,3052           23463                           LXCH     NXT6ADR
000711: 17,3053           53465                           DXCH     T6NEXT
000712: 17,3054           53467                           DXCH     T6FURTHA
000713: 17,3055           54031                           TS       TIME6
000714: 17,3056           23463                           LXCH     NXT6ADR
000715:
000716: 17,3057           34735        TURNON             CA       BIT15
000717: 17,3060           00006                           EXTEND
000718: 17,3061           05013                           WOR      CHAN13
000719: 17,3062           00002                           TC       Q
000720:
000721: 17,3063           61464        MIDORLST           AD       T6NEXT
000722: 17,3064           00006                           EXTEND
000723: 17,3065           63074                           BZMF     LASTCHG                               #  TIME6 + T6NEXT - T IS IN A
000724:
000725: 17,3066           23465                           LXCH     T6NEXT     +1


000727: 17,3067           53467                           DXCH     T6FURTHA
000728: 17,3070           00006                           EXTEND
000729: 17,3071           60031                           SU       TIME6
000730: 17,3072           53465                           DXCH     T6NEXT
000731:
000732: 17,3073           00002                           TC       Q
000733:
000734: 17,3074           40000        LASTCHG            CS       A
000735: 17,3075           64754                           AD       NEG0
000736: 17,3076           55466                           TS       T6FURTHA
000737:
000738: 17,3077           00002                           TC       Q
000739:
000740: 17,3100           55735        ROT45DEG           TS       ROTEMP1
000741: 17,3101           60001                           AD       L
000742: 17,3102           55736                           TS       ROTEMP2
000743: 17,3103           13111                           TCF      +6
000744: 17,3104           10000                           CCS      A
000745: 17,3105           34733                           CA       POSMAX
000746: 17,3106           13110                           TCF      +2
000747: 17,3107           34735                           CA       NEGMAX
000748: 17,3110           55736                           TS       ROTEMP2                               #  Q+R
000749: 17,3111           41735                           CS       ROTEMP1
000750: 17,3112           60001                           AD       L
000751: 17,3113           55735                           TS       ROTEMP1                               #  R-Q
000752: 17,3114           13120                           TCF      +4
000753: 17,3115           00006                           EXTEND
000754: 17,3116           74733                           MP       POSMAX
000755: 17,3117           30001                           CA       L
000756: 17,3120           00006                           EXTEND
000757: 17,3121           73127                           MP       .707
000758: 17,3122           57736                           XCH      ROTEMP2
000759: 17,3123           00006                           EXTEND
000760: 17,3124           73127                           MP       .707
000761: 17,3125           23736                           LXCH     ROTEMP2
000762: 17,3126           00002                           TC       Q
000763:
000764: 17,3127           26501        .707               DEC      .70711
000765:
000766: 17,3130           51742        SELCTSUB           INDEX    ROTINDEX
000767: 17,3131           33162                           CA       ALLJETS
000768: 17,3132           51741                           INDEX    NUMBERT
000769: 17,3133           73166                           MASK     TYPEPOLY
000770: 17,3134           55737                           TS       POLYTEMP
000771:
000772: 17,3135           71262                           MASK     CH5MASK
000773: 17,3136           10000                           CCS      A
000774: 17,3137           13141                           TCF      +2


000776: 17,3140           00002                           TC       Q
000777:
000778: 17,3141           36244                           CA       THREE
000779: 17,3142           55741        FAILOOP            TS       NUMBERT
000780: 17,3143           51742                           INDEX    ROTINDEX
000781: 17,3144           33162                           CA       ALLJETS
000782: 17,3145           51741                           INDEX    NUMBERT
000783: 17,3146           73166                           MASK     TYPEPOLY
000784: 17,3147           55737                           TS       POLYTEMP
000785: 17,3150           71262                           MASK     CH5MASK
000786: 17,3151           00006                           EXTEND
000787: 17,3152           13140                           BZF      FAILOOP    -2
000788: 17,3153           11741                           CCS      NUMBERT
000789: 17,3154           13142                           TCF      FAILOOP
000790: 17,3155           51476                           INDEX    AXISCTR
000791: 17,3156           55525                           TS       TJU
000792: 17,3157           05567                           TC       ALARM
000793: 17,3160           02004                           OCT      02004
000794: 17,3161           12731                           TCF      NOROTAT
000795: 17,3162           00110        ALLJETS            OCT      00110                                 #        -U      6 13
000796: 17,3163           00022                           OCT      00022                                 #        -V      2 9
000797: 17,3164           00204                           OCT      00204                                 #        +U      5 14
000798: 17,3165           00041                           OCT      00041                                 #        +V      1 10
000799: 17,3166           00125        TYPEPOLY           OCT      00125                                 #        -X      1 5 9 13
000800: 17,3167           00252                           OCT      00252                                 #        +X      2 6 10 14
000801: 17,3170           00146                           OCT      00146                                 #        A       2 5 10 13
000802: 17,3171           00231                           OCT      00231                                 #        B       1 6 9 14
000803: 17,3172           00377                           OCT      00377                                 #        ALL     1 2 5 6 9 10 13 14
000804:
000805:                                                                                                  #  THE FOLLOWING SETS THE INTERRUPT FLIP-FLOP AS SOON AS POSSIBLE, WHICH PERMITS A RETURN TO THE INTERRUPTED JOB.
000806:
000807: 17,3173           33175        CLOSEOUT           CA       ADRRUPT
000808: 17,3174           07753                           TC       MAKERUPT
000809:
000810: 17,3175           03176        ADRRUPT            ADRES    ENDJASK
000811:
000812: 17,3176           53752        ENDJASK            DXCH     DAPARUPT
000813: 17,3177           52011                           DXCH     ARUPT
000814: 17,3200           53754                           DXCH     DAPBQRPT
000815: 17,3201           56017                           XCH      BRUPT
000816: 17,3202           22002                           LXCH     Q
000817: 17,3203           34735                           CAF      NEGMAX                                #  NEGATIVE DAPZRUPT SIGNALS JASK IS OVER.
000818: 17,3204           53756                           DXCH     DAPZRUPT
000819: 17,3205           52016                           DXCH     ZRUPT
000820: 17,3206           15272                           TCF      NOQRSM
000821:    7753                                           BLOCK    3
000822:    6000                                           SETLOC   FFTAG6
000823:    6000                                           BANK


000825:    7753                                           COUNT*   $$/DAP
000826:
000827:    7753           00006        MAKERUPT           EXTEND
000828:    7754           07753                           EDRUPT   MAKERUPT
000829:

End of include-file Q,R-AXES_RCS_AUTOPILOT.agc.  Parent file is MAIN.agc


