
Source Code


000002:                                                                                                  ## Copyright:   Public domain.
000003:                                                                                                  ## Filename:    R31.agc
000004:                                                                                                  ## Purpose:     A section of LUM69 revision 2.
000005:                                                                                                  ##              It is part of the reconstructed source code for the flown
000006:                                                                                                  ##              version of the flight software for the Lunar Module's (LM)
000007:                                                                                                  ##              Apollo Guidance Computer (AGC) for Apollo 10. The code has
000008:                                                                                                  ##              been recreated from a copy of Luminary revsion 069, using
000009:                                                                                                  ##              changes present in Luminary 099 which were described in
000010:                                                                                                  ##              Luminary memos 75 and 78. The code has been adapted such
000011:                                                                                                  ##              that the resulting bugger words exactly match those specified
000012:                                                                                                  ##              for LUM69 revision 2 in NASA drawing 2021152B, which gives
000013:                                                                                                  ##              relatively high confidence that the reconstruction is correct.
000014:                                                                                                  ## Reference:   pp. 712-716
000015:                                                                                                  ## Assembler:   yaYUL
000016:                                                                                                  ## Contact:     Ron Burkey <info@sandroid.org>.
000017:                                                                                                  ## Website:     www.ibiblio.org/apollo/index.html
000018:                                                                                                  ## Mod history: 2019-07-27 MAS  Created from Luminary 69.
000019:


000021: 34,3271                                           BANK     34
000022: 37,2000                                           SETLOC   R31
000023: 37,2000                                           BANK
000024:
000025: 37,3113                                           COUNT*   $$/R31
000026:
000027: 37,3113           35015        R31CALL            CAF      PRIO3
000028: 37,3114           05105                           TC       FINDVAC
000029: 37,3115  E7,1466                                  EBANK=   SUBEXIT
000030: 37,3115           03145 76067                     2CADR    V83CALL
000031:
000032: 37,3117           05221        DSPDELAY           TC       FIXDELAY
000033: 37,3120           00144                           DEC      100        B-14
000034: 37,3121           31044                           CA       EXTVBACT
000035: 37,3122           74740                           MASK     BIT12
000036: 37,3123           00006                           EXTEND
000037: 37,3124           13117                           BZF      DSPDELAY
000038:
000039: 37,3125           35017                           CAF      PRIO5
000040: 37,3126           05072                           TC       NOVAC
000041: 37,3127  E7,1607                                  EBANK=   TSTRT
000042: 37,3127           03132 76067                     2CADR    DISPN5X
000043:
000044: 37,3131           15261                           TCF      TASKOVER
000045:
000046: 37,3132           33240        DISPN5X            CAF      V16N54
000047: 37,3133           04616                           TC       BANKCALL
000048: 37,3134           20212                           CADR     GOMARKF
000049: 37,3135           05563                           TC       B5OFF
000050: 37,3136           05563                           TC       B5OFF
000051: 37,3137           13132                           TCF      DISPN5X
000052:
000053: 37,3140           06036        V83                TC       INTPRET
000054: 37,3141           77624                           CALL
000055: 37,3142           77371                                    REDOEXTP
000056: 37,3143           77650                           GOTO
000057: 37,3144           77150                                    COMPDISP
000058: 37,3145           06036        V83CALL            TC       INTPRET
000059: 37,3146           77624                           CALL
000060: 37,3147           77241                                    STATEXTP                              #  EXTRAPOLATE STATE VECTORS
000061: 37,3150           52375        COMPDISP           VLOAD    VSU
000062: 37,3151           00001                                    RATT
000063: 37,3152           02213                                    RONE
000064: 37,3153           51406                           PUSH     ABVAL                                 #  RATT-RONE TO 0D               PD = 6
000065: 37,3154           02205                           STORE    RANGE                                 #  METERS B-29
000066: 37,3155           77301                           NORM     VLOAD
000067: 37,3156           00047                                    X1                                    #  RATT-RONE                     PD = 0
000068: 37,3157           53457                           VSL*     UNIT
000069: 37,3160           20201                                    0,1


000071: 37,3161           52315                           PDVL     VSU                                   #  UNIT(LOS) TO 0D              PD = 6
000072: 37,3162           00007                                    VATT
000073: 37,3163           02221                                    VONE
000074: 37,3164           77641                           DOT                                            #  (VATT-VONE).UNIT(LOS)        PD = 0
000075: 37,3165           77752                           SL1
000076: 37,3166           26207                           STOVL    RRATE                                 #  RANGE RATE M/CS B-7
000077: 37,3167           02213                                    RONE
000078: 37,3170           63256                           UNIT     PDVL                                  #  UR TO 0D                           PD = 6
000079: 37,3171           06416                                    THISAXIS                              #  UNITX FOR CM, UNTIZ FOR LM
000080: 37,3172           77624                           CALL
000081: 37,3173           47565                                    CDU*NBSM
000082: 37,3174           41505                           VXM      PUSH                                  #  UXORZ TO 6D                  PD=12D
000083: 37,3175           01734                                    REFSMMAT
000084: 37,3176           72431                           VPROJ    VSL2
000085: 37,3177           00001                                    0D
000086: 37,3200           53445                           BVSU     UNIT
000087: 37,3201           00007                                    6D
000088: 37,3202           47315                           PDVL     VXV                                   #  UP/2 TO 12D                  PD=18D
000089: 37,3203           02213                                    RONE
000090: 37,3204           02221                                    VONE
000091: 37,3205           47256                           UNIT     VXV
000092: 37,3206           02213                                    RONE
000093: 37,3207           63241                           DOT      PDVL                                  #  SIGN TO 12D, UP/2 TO MPAC    PD=18D
000094: 37,3210           00015                                    12D
000095: 37,3211           50372                           VSL1     DOT                                   #  UP.UXORZ
000096: 37,3212           00007                                    6D
000097: 37,3213           72565                           SIGN     SL1
000098: 37,3214           00015                                    12D
000099: 37,3215           77726                           ACOS
000100: 37,3216           26211                           STOVL    RTHETA
000101: 37,3217           02213                                    RONE
000102: 37,3220           51041                           DOT      BPL
000103: 37,3221           00007                                    6D
000104: 37,3222           77227                                    +5
000105: 37,3223           44345                           DLOAD    BDSU                                  #  IF UXORZ.R NEG, RTHETA = 1 - RTHETA
000106: 37,3224           02211                                    RTHETA
000107: 37,3225           06432                                    DPPOSMAX
000108: 37,3226           02211                           STORE    RTHETA                                #  RTHETA BETWEEN 0 AND 1 REV.
000109: 37,3227           77776                           EXIT
000110: 37,3230           34747                           CAF      BIT5                                  #  HAVE WE BEEN ANSWERED
000111: 37,3231           71044                           MASK     EXTVBACT
000112: 37,3232           00006                           EXTEND
000113: 37,3233           15472                           BZF      ENDEXT                                #  YES, DIE
000114:
000115: 37,3234           41044                           CS       EXTVBACT
000116: 37,3235           74740                           MASK     BIT12
000117: 37,3236           27044                           ADS      EXTVBACT
000118:
000119: 37,3237           13140                           TCF      V83
000120: 37,3240           04066        V16N54             VN       1654
000121:


000123:                                                                                                  #  THE STATEXTP SUBROUTINE DOES A PRECISION EXTRAPOLATION OF BOTH VEHICLES
000124:                                                                                                  #  STATE VECTORS TO PRESENT TIME AND SAVES THEM AS BASE VECTORS.
000125:                                                                                                  #  IF SERVICER IS OFF ---
000126:                                                                                                  #                  THIS VEHICLES BASE VECTOR IS CONIC EXTRAPOLATED TO
000127:                                                                                                  #                  PRESENT TIME AND SAVED AS RONE, VONE.
000128:                                                                                                  #                  THE OTHER VEHICLES BASE VECTOR IS CONIC EXTRAPOLATED
000129:                                                                                                  #                  TO THE SAME TIME, THE OUTPUT BEING LEFT IN RATT, VATT.
000130:                                                                                                  #  IF SERVICER IS ON ---
000131:                                                                                                  #                  RONE, VONE ARE SET EQUAL TO RN, VN AND THE OTHER
000132:                                                                                                  #                  VEHICLES STATE VECTOR IS PREC. EXTRAPOLATED TO PIPTIME.
000133:
000134: 37,3241           47020        STATEXTP           STQ      RTB
000135: 37,3242           02116                                    STATEXIT
000136: 37,3243           21462                                    LOADTIME
000137: 37,3244           34041                           STCALL   TDEC1
000138: 37,3245           27043                                    OTHPREC                               #  GET BASE VECTORS
000139: 37,3246           77775                           VLOAD
000140: 37,3247           00017                                    RATT1
000141: 37,3250           26140                           STOVL    BASEOTP                               #  OTHER POS.
000142: 37,3251           00025                                    VATT1
000143: 37,3252           16120                           STODL    BASEOTV                               #  OTHER VEL.
000144: 37,3253           00015                                    TAT
000145: 37,3254           02114                           STORE    BASETIME
000146: 37,3255           34041                           STCALL   TDEC1
000147: 37,3256           27057                                    THISPREC
000148: 37,3257           77775                           VLOAD
000149: 37,3260           00017                                    RATT1
000150: 37,3261           26170                           STOVL    BASETHP                               #  THIS POS.
000151: 37,3262           00025                                    VATT1
000152: 37,3263           02105                           STORE    BASETHV                               #  THIS VEL
000153: 37,3264           47014        HAVEBASE           BON      RTB
000154: 37,3265           03712                                    AVEGFLAG
000155: 37,3266           77346                                    GETRVN                                #  IF AVG ON ,GET RN ETC.
000156: 37,3267           21462                                    LOADTIME
000157: 37,3270           52014                           BON      GOTO                                  #  TEST FOR LM ON SURFACE.
000158: 37,3271           04307                                    SURFFLAG
000159: 37,3272           77365                                    R31SURF
000160: 37,3273           77274                                    +1
000161: 37,3274           34041                           STCALL   TDEC1                                 #  BEGIN SET UP FOR CONIC EXTRAP. FOR THIS.
000162: 37,3275           27412                                    INTSTALL
000163: 37,3276           43175                           VLOAD    CLEAR
000164: 37,3277           02170                                    BASETHP
000165: 37,3300           00263                                    MOONFLAG
000166: 37,3301           25535                           STOVL    RCV
000167: 37,3302           02105                                    BASETHV
000168: 37,3303           15543                           STODL    VCV
000169: 37,3304           02114                                    BASETIME
000170: 37,3305           43014                           BOF      SET                                   #  GET APPROPRIATE MOONFLAG SETTING
000171: 37,3306           04344                                    MOONTHIS
000172: 37,3307           77311                                    +2
000173: 37,3310           00063                                    MOONFLAG


000175: 37,3311           77614                           SET
000176: 37,3312           01473                                    INTYPFLG                              #  CONIC EXTRAP.
000177: 37,3313           35517                           STCALL   TET
000178: 37,3314           27107                                    INTEGRVS                              #  INTEGRATION --- AT LAST---
000179: 37,3315           77775        OTHCONIC           VLOAD
000180: 37,3316           00001                                    RATT
000181: 37,3317           26213                           STOVL    RONE
000182: 37,3320           00007                                    VATT
000183: 37,3321           36221                           STCALL   VONE                                  #  GET SET FOR CONIC EXTRAP.,OTHER.
000184: 37,3322           27412                                    INTSTALL
000185: 37,3323           71214                           SET      DLOAD
000186: 37,3324           01473                                    INTYPFLG
000187: 37,3325           00015                                    TAT
000188: 37,3326           00041        OTHINT             STORE    TDEC1
000189: 37,3327           43175                           VLOAD    CLEAR
000190: 37,3330           02140                                    BASEOTP
000191: 37,3331           00263                                    MOONFLAG
000192: 37,3332           25535                           STOVL    RCV
000193: 37,3333           02120                                    BASEOTV
000194: 37,3334           15543                           STODL    VCV
000195: 37,3335           02114                                    BASETIME
000196: 37,3336           43014                           BOF      SET
000197: 37,3337           04344                                    MOONTHIS
000198: 37,3340           77342                                    +2
000199: 37,3341           00063                                    MOONFLAG
000200: 37,3342           35517                           STCALL   TET
000201: 37,3343           27107                                    INTEGRVS
000202: 37,3344           77650                           GOTO
000203: 37,3345           02116                                    STATEXIT                              #  THIS VEHICLES POS.,VEL. IN PUSHLIST.
000204: 37,3346           52175        GETRVN             VLOAD    GOTO
000205: 37,3347           01221                                    RN
000206: 37,3350           77351                                    +1
000207: 37,3351           36213                           STCALL   RONE
000208: 37,3352           77353                                    +1
000209: 37,3353           52175                           VLOAD    GOTO
000210: 37,3354           01227                                    VN
000211: 37,3355           77356                                    +1
000212: 37,3356           16221                           STODL    VONE
000213: 37,3357           01235                                    PIPTIME
000214: 37,3360           77624        GETRVN2            CALL
000215: 37,3361           27412                                    INTSTALL
000216: 37,3362           52014                           CLEAR    GOTO
000217: 37,3363           01673                                    INTYPFLG                              #  PREC EXTRAP FOR OTHER
000218: 37,3364           77326                                    OTHINT
000219: 37,3365           34041        R31SURF            STCALL   TDEC1                                 #  LM ON SURFACE.
000220: 37,3366           27057                                    LEMPREC
000221: 37,3367           77650                           GOTO                                           #  DO CSM CONIC
000222: 37,3370           77315                                    OTHCONIC


000224: 37,3371           52020        REDOEXTP           STQ      GOTO
000225: 37,3372           02116                                    STATEXIT
000226: 37,3373           77264                                    HAVEBASE
000227:

End of include-file R31.agc.  Parent file is MAIN.agc


