
Source Code


000002:                                                                                                  ## Copyright:   Public domain.
000003:                                                                                                  ## Filename:    R60,R62.agc
000004:                                                                                                  ## Purpose:     A section of LUM69 revision 2.
000005:                                                                                                  ##              It is part of the reconstructed source code for the flown
000006:                                                                                                  ##              version of the flight software for the Lunar Module's (LM)
000007:                                                                                                  ##              Apollo Guidance Computer (AGC) for Apollo 10. The code has
000008:                                                                                                  ##              been recreated from a copy of Luminary revsion 069, using
000009:                                                                                                  ##              changes present in Luminary 099 which were described in
000010:                                                                                                  ##              Luminary memos 75 and 78. The code has been adapted such
000011:                                                                                                  ##              that the resulting bugger words exactly match those specified
000012:                                                                                                  ##              for LUM69 revision 2 in NASA drawing 2021152B, which gives
000013:                                                                                                  ##              relatively high confidence that the reconstruction is correct.
000014:                                                                                                  ## Reference:   pp. 485-497
000015:                                                                                                  ## Assembler:   yaYUL
000016:                                                                                                  ## Contact:     Ron Burkey <info@sandroid.org>.
000017:                                                                                                  ## Website:     www.ibiblio.org/apollo/index.html
000018:                                                                                                  ## Mod history: 2019-07-27 MAS  Created from Luminary 69.
000019:


000021:                                                                                                  #  MOD NO: 0                             DATE: 1 MAY 1968
000022:                                                                                                  #  MOD BY: DIGITAL DEVEL GROUP           LOG SECTION R60,R62
000023:
000024:                                                                                                  #  FUNCTIONAL DESCRIPTION:
000025:
000026:                                                                                                  #  CALLED AS A GENERAL SUBROUTINE TO MANEUVER THE LM TO A SPECIFIED
000027:                                                                                                  #  ATTITUDE.
000028:
000029:                                                                                                  #  1. IF THE 3-AXIS FLAG IS NOT SET THE FINAL CDU ANGLES ARE
000030:                                                                                                  #  CALCULATED (VECPOINT).
000031:
000032:                                                                                                  #  2. THE FDAI BALL ANGLES (NOUN 18) ARE CALCULATED (BALLANGS).
000033:
000034:                                                                                                  #  3. REQUEST FLASHING DISPLAY V50 N18 PLEASE PERFORM AUTO MANEUVER.
000035:
000036:                                                                                                  #  4. IF PRIORITY DISPLAY FLAG IS SET DO A PHASECHANGE. THEN AWAIT
000037:                                                                                                  #  ASTRONAUT RESPONSE.
000038:
000039:                                                                                                  #  5. DISPLAY RESPONSE RETURNS:
000040:
000041:                                                                                                  #        A.      ENTER - RESET 3-AXIS FLAG AND RETURN TO CLIENT.
000042:
000043:                                                                                                  #        B.      TERMINATE - IF IN P00 GO TO STEP 5A. OTHERWISE CHECK IF R61 IS
000044:                                                                                                  #                THE CALLING PROGRAM. IF IN R61 AN EXIT IS MADE TO GOTOV56.  IF
000045:                                                                                                  #                NOT IN R61 AN EXIT IS DONE VIA GOTOP00H.
000046:
000047:                                                                                                  #        C.      PROCEED - CONTINUE WITH PROGRAM AT STEP 6.
000048:
000049:                                                                                                  #  6. IF THE 3-AXISFLAG IS NOT SET, THE FINAL CDU ANGLES ARE CALCULATED
000050:                                                                                                  #  (VECPOINT).
000051:
000052:                                                                                                  #  7. THE FDAI BALL ANGLES (NOUN 18) ARE CALCULATED (BALLANGS).
000053:
000054:                                                                                                  #  8. IF THE G+N SWITCH IS NOT SET GO BACK TO STEP 3.
000055:                                                                                                  #
000056:                                                                                                  #  9. IF THE AUTO SWITCH IS NOT SET GO BACK TO STEP 3.
000057:
000058:                                                                                                  #  10. NONFLASHING DISPLAY V06N18 (FDAI ANGLES).
000059:
000060:                                                                                                  #  11. DO A PHASECHANGE.
000061:
000062:                                                                                                  #  12. DO A MANEUVER CALCULATION AND ICDU DRIVE ROUTINE TO ACHIEVE FINAL
000063:
000064:                                                                                                  #  GIMBAL ANGLES (GOMANUR).
000065:                                                                                                  #  13. AT END OF MANEUVER GO TO STEP 3.
000066:
000067:                                                                                                  #        IF SATISFACTORY MANEUVER STEP 5A EXITS R60.
000068:                                                                                                  #        FOR FURTHER ADJUSTMENT OF THE VEHICLE ATTITUDE ABOUT THE
000069:                                                                                                  #        DESIRED VECTOR, THE ROUTINE MAY BE PERFORMED AGAIN STARTING AT


000071:                                                                                                  #        STEP 5C.
000072:
000073:                                                                                                  #  CALLING SEQUENCE:     TC      BANKCALL
000074:                                                                                                  #                        CADR    R60LEM
000075:
000076:                                                                                                  #  ERASABLE INITIALIZATION REQUIRED:     SCAXIS, POINTVSM (FOR VECPOINT)
000077:                                                                                                  #                                        3AXISFLG.
000078:
000079:                                                                                                  #  SUBROUTINES CALLED:   VECPOINT, BALLANGS, GOPERF2R, LINUS, GODSPER,
000080:                                                                                                  #                        GOMANUR, DOWNFLAG, PHASCHNG, UPFLAG
000081:
000082:                                                                                                  #  NORMAL EXIT MODES:    CAE     TEMPR60         (CALLERS RETURN ADDRESS)
000083:                                                                                                  #                        TC      BANKJUMP
000084:
000085:                                                                                                  #  ALARMS: NONE
000086:
000087:                                                                                                  #  OUTPUT: NONE
000088:
000089:                                                                                                  #  DEBRIS: CPHI, CTHETA, CPSI, 3AXISFLG, TBASE2
000090:
000091: 34,2000                                           BANK     34
000092: 26,2000                                           SETLOC   MANUVER
000093: 26,2000                                           BANK
000094:
000095: 26,2101     1164                                  EBANK=   TEMPR60
000096:
000097: 26,2101                                           COUNT*   $$/R06
000098: 26,2101           04645        R60LEM             TC       MAKECADR
000099: 26,2102           55164                           TS       TEMPR60
000100:
000101: 26,2103           34746        REDOMANN           CAF      3AXISBIT
000102: 26,2104           70101                           MASK     FLAGWRD5                              #  IS 3-AXIS FLAG SET
000103: 26,2105           10000                           CCS      A
000104: 26,2106           12114                           TCF      TOBALL                                #  YES
000105: 26,2107           06036                           TC       INTPRET
000106: 26,2110           77624                           CALL
000107: 26,2111           56016                                    VECPOINT                              #  TO COMPUTE FINAL ANGLES
000108: 26,2112           00322                           STORE    CPHI                                  #  STORE FINAL ANGLES - CPHI, CTHETA, CPSI
000109: 26,2113           77776                           EXIT
000110:
000111: 26,2114           04616        TOBALL             TC       BANKCALL
000112: 26,2115           54244                           CADR     BALLANGS                              #  TO CONVERT ANGLES TO FDAI
000113: 26,2116           32232        TOBALLA            CAF      V06N18
000114: 26,2117           04616                           TC       BANKCALL
000115: 26,2120           20563                           CADR     GOPERF2R                              #  DISPLAY PLEASE PERFORM AUTO MANEUVER
000116: 26,2121           02220                           TC       R61TEST
000117: 26,2122           02126                           TC       REDOMANC                              #  PROCEED
000118: 26,2123           02153                           TC       ENDMANU1                              #  ENTER I.E. FINISHED WITH R60


000120: 26,2124           02157                           TC       CHKLINUS                              #  TO CHECK FOR PRIORITY DISPLAYS
000121: 26,2125           05155                           TC       ENDOFJOB
000122:
000123: 26,2126           34746        REDOMANC           CAF      3AXISBIT
000124: 26,2127           70101                           MASK     FLAGWRD5                              #  IS 3-AXIS FLAG SET
000125: 26,2130           10000                           CCS      A
000126: 26,2131           12137                           TCF      TOBALLC                               #  YES
000127: 26,2132           06036                           TC       INTPRET
000128: 26,2133           77624                           CALL
000129: 26,2134           56016                                    VECPOINT                              #  TO COMPUTE FINAL ANGLES
000130: 26,2135           00322                           STORE    CPHI                                  #  STORE ANGLES
000131: 26,2136           77776                           EXIT
000132:
000133: 26,2137           04616        TOBALLC            TC       BANKCALL
000134: 26,2140           54244                           CADR     BALLANGS                              #  TO CONVERT ANGLES TO FDAI
000135: 26,2141           02233                           TC       G+N,AUTO                              #  CHECK AUTO MODE
000136: 26,2142           10000                           CCS      A
000137: 26,2143           12116                           TCF      TOBALLA                               #  NOT AUTO, GO REREQUEST AUTO MANEUVER.
000138:
000139: 26,2144           32232        AUTOMANV           CAF      V06N18                                #  STATIC DISPLAY DURING AUTO MANEUVER
000140: 26,2145           04616                           TC       BANKCALL                              #                                        -
000141: 26,2146           20327                           CADR     GODSPR                                #                                        -
000142: 26,2147           02157                           TC       CHKLINUS                              #  TO CHECK FOR PRIORITY DISPLAYS
000143:
000144: 26,2150           04616        STARTMNV           TC       BANKCALL                              #  PERFORM MANEUVER VIA KALCMANU
000145: 26,2151           17723                           CADR     GOMANUR
000146:
000147: 26,2152           12116        ENDMANUV           TCF      TOBALLA                               #  FINISHED MANEUVER.
000148: 26,2153           05516        ENDMANU1           TC       DOWNFLAG                              #  RESET 3-AXIS FLAG
000149: 26,2154           00124                           ADRES    3AXISFLG
000150: 26,2155           31164                           CAE      TEMPR60                               #                                        -
000151: 26,2156           04640                           TC       BANKJUMP                              #                                        -
000152:
000153: 26,2157           40100        CHKLINUS           CS       FLAGWRD4
000154: 26,2160           74740                           MASK     PDSPFBIT                              #  IS PRIORITY DISPLAY FLAG SET?
000155: 26,2161           10000                           CCS      A                                     #                                        -
000156: 26,2162           00002                           TC       Q                                     #  NO - EXIT
000157: 26,2163           30002                           CA       Q
000158: 26,2164           54156                           TS       MPAC       +2                         #  SAVE RETURN
000159: 26,2165           46244                           CS       THREE                                 #  OBTAIN LOCATION FOR RESTART
000160: 26,2166           60133                           AD       BUF2                                  #  HOLDS Q OF LAST DISPLAY
000161: 26,2167           55055                           TS       TBASE2
000162:
000163: 26,2170           05353                           TC       PHASCHNG
000164: 26,2171           00132                           OCT      00132
000165:
000166: 26,2172           34745                           CAF      BIT7
000167: 26,2173           05464                           TC       LINUS                                 #  GO SET BITS FOR PRIORITY DISPLAY      -
000168: 26,2174           00156                           TC       MPAC       +2
000169:


000171: 26,2175           37713        RELINUS            CAF      PRIO26                                #  RESTORE ORIGINAL PRIORITY
000172: 26,2176           05146                           TC       PRIOCHNG
000173:
000174: 26,2177           34747                           CAF      TRACKBIT                              #  DON'T CONTINUE R60 UNLESS TRACKFLAG ON.
000175: 26,2200           70075                           MASK     FLAGWRD1
000176: 26,2201           10000                           CCS      A
000177: 26,2202           12215                           TCF      RER60
000178:
000179: 26,2203           34745                           CAF      RNDVZBIT                              #  IS IT P20?
000180: 26,2204           70074                           MASK     FLAGWRD0
000181: 26,2205           10000                           CCS      A
000182: 26,2206           02212                           TC       +4                                    #  YES
000183: 26,2207           05353                           TC       PHASCHNG                              #  NO, MUST BE P25, SET 2.11 SPOT
000184: 26,2210           40112                           OCT      40112
000185:
000186: 26,2211           05155                           TC       ENDOFJOB
000187:
000188: 26,2212           05353                           TC       PHASCHNG                              #  SET 2.7 SPOT FOR P20
000189: 26,2213           40072                           OCT      40072
000190:
000191: 26,2214           05155                           TC       ENDOFJOB
000192:
000193: 26,2215           05504        RER60              TC       UPFLAG                                #  SET PRIO DISPLAY FLAG AFTER RESTART
000194: 26,2216           00077                           ADRES    PDSPFLAG
000195:
000196: 26,2217           01055                           TC       TBASE2
000197:
000198: 26,2220           31011        R61TEST            CA       MODREG                                #  IF WE ARE IN P00 IT MUST BE V49 OR V89
000199: 26,2221           00006                           EXTEND
000200: 26,2222           12153                           BZF      ENDMANU1                              #  THUS WE GO TO ENDEXT VIA USER
000201:
000202: 26,2223           30100                           CA       FLAGWRD4                              #  ARE WE IN R61 (P20 OR P25)
000203: 26,2224           74740                           MASK     PDSPFBIT
000204: 26,2225           00006                           EXTEND
000205: 26,2226           16001                           BZF      GOTOPOOH                              #  NO
000206: 26,2227           06022                           TC       GOTOV56                               #  YES
000207:
000208: 26,2230           20100        BIT14+7            OCT      20100                                 #                                        -
000209: 26,2231           00203        OCT203             OCT      203
000210: 26,2232           01422        V06N18             VN       0618
000211:
000212:                                                                                                  #  SUBROUTINE TO CHECK FOR G+N CONTROL, AUTO STABILIZATION
000213:
000214:                                                                                                  #  RETURNS WITH C(A) = +         IF NOT SET FOR G+N, AUTO
000215:                                                                                                  #  RETURNS WITH C(A) = +0        IF SWITCHES ARE SET
000216:
000217: 26,2233           00006        G+N,AUTO           EXTEND
000218: 26,2234           00030                           READ     CHAN30
000219: 26,2235           74742                           MASK     BIT10
000220: 26,2236           10000                           CCS      A
000221: 26,2237           00002                           TC       Q                                     #  NOT IN G+N    C(A) = +


000223: 26,2240           00006        ISITAUTO           EXTEND                                         #  CHECK FOR AUTO MODE
000224: 26,2241           00031                           READ     CHAN31
000225: 26,2242           74736                           MASK     BIT14
000226: 26,2243           00002                           TC       Q                                     #  (+) = NOT IN AUTO, (+0) = AOK
000227:


000229:                                                                                                  #  PROGRAM DESCRIPTION BALLANGS
000230:                                                                                                  #  MOD NO.         LOG SECTION R60,R62
000231:
000232:                                                                                                  #  WRITTEN BY RAMA M. AIYAWAR
000233:                                                                                                  #  FUNCTIONAL DESCRIPTION
000234:
000235:                                                                                                  #  COMPUTES LM FDAI BALL DISPLAY ANGLES
000236:                                                                                                  #  CALLING SEQUENCE
000237:
000238:                                                                                                  #           TC     BALLANGS
000239:                                                                                                  #  NORMAL EXIT MODE
000240:
000241:                                                                                                  #           TC     BALLEXIT        (SAVED Q)
000242:
000243:                                                                                                  #  ALARM OR EXIT MODE  NIL
000244:                                                                                                  #  SUBROUTINES CALLED
000245:                                                                                                  #           CD*TR*G
000246:                                                                                                  #           ARCTAN
000247:
000248:                                                                                                  #  INPUT
000249:
000250:                                                                                                  #  CPHI,CTHETA,CPSI  ARE  THE ANGLES CORRESPONDING TO AOG,AIG,AMG. THEY ARE
000251:                                                                                                  #  SP,2S COMPLIMENT SCALED TO HALF REVOLUTION.
000252:                                                                                                  #  OUTPUT
000253:
000254:                                                                                                  #  FDAIX, FDAIY, FDAIZ ARE THE REQUIRED BALL ANGLES SCALED TO HALF REVOLUTION
000255:                                                                                                  #  SP,2S COMPLIMENT.
000256:                                                                                                  #  THESE ANGLES WILL BE DISPLAYED AS DEGREES AND HUNDREDTHS, IN THE ORDER ROLL, PITCH, YAW, USING NOUNS 18 & 19.
000257:
000258:                                                                                                  #  ERASABLE INITIALIZATION REQUIRED
000259:
000260:                                                                                                  #  CPHI,CTHETA,CPSI EACH A SP REGISTER
000261:                                                                                                  #  DEBRIS
000262:
000263:                                                                                                  #  A,L,Q,MPAC,SINCDU,COSCDU,PUSHLIST,BALLEXIT
000264:
000265:                                                                                                  #  NOMENCLATURE:  CPHI, CTHETA, & CPSI REPRESENT THE OUTER, INNER, & MIDDLE GIMBAL ANGLES, RESPECTIVELY; OR
000266:                                                                                                  #  EQUIVALENTLY, CDUX, CDUY, & CDUZ.
000267:
000268:                                                                                                  #  NOTE:  ARCTAN CHECKS FOR OVERFLOW AND SHOULD BE ABLE TO HANDLE ANY SINGULARITIES.
000269:
000270: 26,2000                                           SETLOC   BAWLANGS
000271: 26,2000                                           BANK
000272:
000273: 26,2244                                           COUNT*   $$/BALL
000274: 26,2244           04645        BALLANGS           TC       MAKECADR
000275: 26,2245           55342                           TS       BALLEXIT
000276: 26,2246           30321                           CA       CPHI


000278: 26,2247           54772                           TS       CDUSPOT    +4
000279: 26,2250           30322                           CA       CTHETA
000280: 26,2251           54766                           TS       CDUSPOT
000281: 26,2252           30323                           CA       CPSI
000282: 26,2253           54770                           TS       CDUSPOT    +2
000283:
000284: 26,2254           06036                           TC       INTPRET
000285: 26,2255           45001                           SETPD    CALL
000286: 26,2256           00001                                    0D
000287: 26,2257           47447                                    CD*TR*G
000288:
000289: 26,2260           41345                           DLOAD    DMP
000290: 26,2261           00743                                    SINCDUX                               #  SIN (OGA)
000291: 26,2262           00747                                    COSCDUZ                               #  COS (MGA)
000292:
000293: 26,2263           57552                           SL1      DCOMP                                 #  SCALE
000294: 26,2264           65336                           ARCSIN   PDDL                                  #  YAW = ARCSIN(-SXCZ) INTO 0 PD
000295: 26,2265           00741                                    SINCDUZ
000296: 26,2266           14023                           STODL    SINTH                                 #  (SINTH = 18D IN PD)
000297: 26,2267           00747                                    COSCDUZ
000298: 26,2270           72405                           DMP      SL1                                   #  RESCALE
000299: 26,2271           00751                                    COSCDUX
000300: 26,2272           34021                           STCALL   COSTH                                 #  (COSTH= 16D IN PD)
000301: 26,2273           26510                                    ARCTAN
000302: 26,2274           41325                           PDDL     DMP                                   #  ROLL = ARCTAN(SZ/CZCX) INTO 2 PD
000303: 26,2275           00741                                    SINCDUZ
000304: 26,2276           00743                                    SINCDUX
000305: 26,2277           41512                           SL2      PUSH                                  #  SXSZ INTO 4 PD
000306: 26,2300           65205                           DMP      PDDL                                  #  SXSZCY INTO 4 PD
000307: 26,2301           00745                                    COSCDUY
000308: 26,2302           65205                           DMP      PDDL                                  #  SXSZSY INTO 6 PD
000309: 26,2303           00737                                    SINCDUY
000310: 26,2304           00751                                    COSCDUX
000311: 26,2305           72405                           DMP      SL1                                   #  CXCY
000312: 26,2306           00745                                    COSCDUY
000313: 26,2307           45425                           DSU      STADR                                 #  PULL UP FROM 6 PD
000314: 26,2310           63756                           STODL    COSTH                                 #  COSTH = CXCY - SXSZSY
000315: 26,2311           00737                                    SINCDUY
000316: 26,2312           72405                           DMP      SL1
000317: 26,2313           00751                                    COSCDUX                               #  CXSY
000318: 26,2314           45415                           DAD      STADR                                 #  PULL UP FROM 4 PD
000319: 26,2315           43754                           STCALL   SINTH                                 #  SINTH = CXSY + SXSZCY
000320: 26,2316           26510                                    ARCTAN                                #  RETURNS WITH D(MPAC) = PITCH
000321: 26,2317           55525                           PDDL     VDEF                                  #  PITCH INTO 2 PD, ROLL INTO MPAC FROM 2 PD
000322: 26,2320           77634                           RTB                                            #  VDEF MAKES V(MPAC) = ROLL, PITCH, YAW
000323: 26,2321           21524                                    V1STO2S
000324: 26,2322           02351                           STORE    FDAIX                                 #  MODE IS TP
000325: 26,2323           77776                           EXIT
000326:
000327: 26,2324           31342        ENDBALL            CA       BALLEXIT
000328:


000330: 26,2325           04640                           TC       BANKJUMP
000331:


000333:                                                                                                  #  PROGRAM DESCRIPTION - VECPOINT
000334:
000335:                                                                                                  #           THIS INTERPRETIVE SUBROUTINE MAY BE USED TO POINT A SPACECRAFT AXIS IN A DESIRED DIRECTION.  THE AXIS
000336:                                                                                                  #  TO BE POINTED MUST APPEAR AS A HALF UNIT DOUBLE PRECISION VECTOR IN SUCCESSIVE LOCATIONS OF ERASABLE MEMORY
000337:                                                                                                  #  BEGINNING WITH THE LOCATION CALLED SCAXIS.  THE COMPONENTS OF THIS VECTOR ARE GIVEN IN SPACECRAFT COORDINATES.
000338:                                                                                                  #  THE DIRECTION IN WHICH THIS AXIS IS TO BE POINTED MUST APPEAR AS A HALF UNIT DOUBLE PRECISION VECTOR IN
000339:                                                                                                  #  SUCCESSIVE LOCATIONS OF ERASABLE MEMORY BEGINNING WITH THE ADDRESS CALLED POINTVSM.  THE COMPONENTS OF THIS
000340:                                                                                                  #  VECTOR ARE GIVEN IN STABLE MEMBER COORDINATES.  WITH THIS INFORMATION VECPOINT COMPUTES A SET OF THREE GIMBAL
000341:                                                                                                  #  ANGLES (2S COMPLEMENT) CORESPONDING TO THE CROSS-PRODUCT ROTATION BETWEEN SCAXIS AND POINTVSM AND STORES THEM
000342:                                                                                                  #  IN T(MPAC) BEFORE RETURNING TO THE CALLER.
000343:                                                                                                  #           THIS ROTATION, HOWEVER, MAY BRING THE S/C INTO GIMBAL LOCK.  WHEN POINTING A VECTOR IN THE Y-Z PLANE,
000344:                                                                                                  #  THE TRANSPONDER AXIS, OR THE AOT FOR THE LEM, THE PROGRAM WILL CORRECT THIS PROBLEM BY ROTATING THE CROSS-
000345:                                                                                                  #  PRODUCT ATTITUDE ABOUT POINTVSM BY A FIXED AMOUNT SUFFICIENT TO ROTATE THE DESIRED S/C ATTITUDE OUT OF GIMBAL
000346:                                                                                                  #  LOCK.  IF THE AXIS TO BE POINTED IS MORE THAN 40.6 DEGREES BUT LESS THAN 60.5 DEG FROM THE +X (OR -X) AXIS,
000347:                                                                                                  #  THE ADDITIONAL ROTATION TO AVOID GIMAL LOCK IS 35 DEGREES.  IF THE AXIS IS MORE THAN 60.5 DEGEES FROM +X (OR -X)
000348:                                                                                                  #  THE ADDITIONAL ROTATION IS 35 DEGREES.  THE GIMBAL ANGLES CORRESPONDING TO THIS ATTITUDE ARE THEN COMPUTED AND
000349:                                                                                                  #  STORED AS 2S COMPLIMENT ANGLES IN T(MPAC) BEFORE RETURNING TO THE CALLER.
000350:                                                                                                  #           WHEN POINTING THE X-AXIS, OR THE THRUST VECTOR, OR ANY VECTOR WITHIN 40.6 DEG OF THE X-AXIS, VECPOINT
000351:                                                                                                  #  CANNOT CORRECT FOR A CROSS-PRODUCT ROTATION INTO GIMBAL LOCK.  IN THIS CASE A PLATFORM REALIGNMENT WOULD BE
000352:                                                                                                  #  REQUIRED TO POINT THE VECTOR IN THE DESIRED DIRECTION.  AT PRESENT NO INDICATION IS GIVEN FOR THIS SITUATION
000353:                                                                                                  #  EXCEPT THAT THE FINAL MIDDLE GIMBAL ANGLE IN MPAC +2 IS GREATER THAN 59 DEGREES.
000354:
000355:                                                                                                  #           CALLING SEQUENCE -
000356:                                                                                                  #               1) LOAD SCAXIS, POINTVSM
000357:                                                                                                  #               2) CALL
000358:                                                                                                  #                       VECPOINT
000359:
000360:                                                                                                  #           RETURNS WITH
000361:
000362:                                                                                                  #               1) DESIRED OUTER GIMBAL ANGLE IN MPAC
000363:                                                                                                  #               2) DESIRED INNER GIMBAL ANGLE IN MPAC +1
000364:                                                                                                  #               3) DESIRED MIDDLE GIMBAL ANGLE IN MPAC +2
000365:
000366:                                                                                                  #  ERASABLES USED -
000367:
000368:                                                                                                  #      1) SCAXIS           6
000369:                                                                                                  #      2) POINTVSM         6
000370:                                                                                                  #      3) MIS             18
000371:                                                                                                  #      4) DEL             18
000372:                                                                                                  #      5) COF              6
000373:                                                                                                  #      6) VECQTEMP         1
000374:                                                                                                  #      7) ALL OF VAC AREA 43
000375:
000376:                                                                                                  #               TOTAL     99
000377:
000378: 27,2000                                           SETLOC   VECPT
000379: 27,2000                                           BANK


000381: 27,2016                                           COUNT*   $$/VECPT
000382:
000383: 27,2016  E6,1674                                  EBANK=   BCDU
000384:
000385: 27,2016           40020        VECPOINT           STQ      BOV                                   #  SAVE RETURN ADDRESS
000386: 27,2017           03323                                    VECQTEMP
000387: 27,2020           56021                                    VECLEAR                               #  AND CLEAR OVFIND
000388: 27,2021           47164        VECLEAR            AXC,2    RTB
000389: 27,2022           03244                                    MIS                                   #  READ THE PRESENT CDU ANGLES AND
000390: 27,2023           44403                                    READCDUK                              #  STORE THEM IN PD25, 26, 27
000391: 27,2024           34032                           STCALL   25D
000392: 27,2025           44410                                    CDUTODCM                              #  S/C AXES TO STABLE MEMBER AXES (MIS)
000393: 27,2026           61375                           VLOAD    VXM
000394: 27,2027           03767                                    POINTVSM                              #  RESOLVE THE POINTING DIRECTION VF INTO
000395: 27,2030           03245                                    MIS                                   #  INITIAL S/C AXES (VF = POINTVSM)
000396: 27,2031           77656                           UNIT
000397: 27,2032           00035                           STORE    28D
000398:                                                                                                  #  PD 28 29 30 31 32 33
000399: 27,2033           53435                           VXV      UNIT                                  #  TAKE THE CROSS PRODUCT VF X VI
000400: 27,2034           03761                                    SCAXIS                                #  WHERE VI = SCAXIS
000401: 27,2035           57400                           BOV      VCOMP
000402: 27,2036           56146                                    PICKAXIS
000403: 27,2037           17267                           STODL    COF                                   #  CHECK MAGNITUDE
000404: 27,2040           00045                                    36D                                   #  OF CROSS PRODUCT
000405: 27,2041           50025                           DSU      BMN                                   #  VECTOR, IF LESS
000406: 27,2042           14367                                    DPB-14                                #  THAN B-14 ASSUME
000407: 27,2043           56146                                    PICKAXIS                              #  UNIT OPERATION
000408: 27,2044           50375                           VLOAD    DOT                                   #           INVALID.
000409: 27,2045           03761                                    SCAXIS
000410: 27,2046           00035                                    28D
000411: 27,2047           65552                           SL1      ARCCOS
000412: 27,2050           77624        COMPMATX           CALL                                           #  NOW COMPUTE THE TRANSFORMATION FROM
000413: 27,2051           44527                                    DELCOMP                               #  FINAL S/C AXES TO INITIAL S/C AXES  MFI
000414: 27,2052           75160                           AXC,1    AXC,2
000415: 27,2053           03244                                    MIS                                   #  COMPUTE THE TRANSFORMATION FROM FINAL
000416: 27,2054           02234                                    KEL                                   #  S/C AXES TO STABLE MEMBER AXES
000417: 27,2055           77624                           CALL                                           #  MFS = MIS MFI
000418: 27,2056           44312                                    MXM3                                  #  (IN PD LIST)
000419:
000420: 27,2057           51545                           DLOAD    ABS
000421: 27,2060           00007                                    6                                     #  MFS6 = SIN(CPSI)                      $2
000422: 27,2061           50025                           DSU      BMN
000423: 27,2062           14354                                    SINGIMLC                              #  = SIN(59 DEGS)                        $2
000424: 27,2063           56136                                    FINDGIMB                              #  /CPSI/ LESS THAN 59 DEGS
000425:                                                                                                  #  I.E. DESIRED ATTITUDE NOT IN GIMBAL LOCK
000426:
000427: 27,2064           51545                           DLOAD    ABS                                   #  CHECK TO SEE IF WE ARE POINTING
000428: 27,2065           03761                                    SCAXIS                                #  THE THRUST AXIS
000429: 27,2066           51025                           DSU      BPL
000430: 27,2067           14356                                    SINVEC1                               #  SIN 49.4 DEGS                         $2


000432: 27,2070           56136                                    FINDGIMB                              #  IF SO, WE ARE TRYING TO POINT IT INTO
000433: 27,2071           77775                           VLOAD                                          #  GIMBAL LOCK, ABORT COULD GO HERE
000434: 27,2072           77626                           STADR
000435: 27,2073           50516                           STOVL    MIS        +12D
000436: 27,2074           77626                           STADR                                          #  STORE MFS (IN PD LIST) IN MIS
000437: 27,2075           50524                           STOVL    MIS        +6
000438: 27,2076           77626                           STADR
000439: 27,2077           50532                           STOVL    MIS
000440: 27,2100           03253                                    MIS        +6                         #  INNER GIMBAL AXIS IN FINAL S/C AXES
000441: 27,2101           57444                           BPL      VCOMP                                 #  LOCATE THE IG AXIS DIRECTION CLOSEST TO
000442: 27,2102           56103                                    IGSAMEX                               #  FINAL X S/C AXIS
000443:
000444: 27,2103           50035        IGSAMEX            VXV      BMN                                   #  FIND THE SHORTEST WAY OF ROTATING THE
000445: 27,2104           03761                                    SCAXIS                                #  S/C OUT OF GIMBAL LOCK BY A ROTATION
000446: 27,2105           56112                                    U=SCAXIS                              #  ABOUT +- SCAXIS, I.E. IF  (IG (SGN MFS3)
000447:                                                                                                  #  X SCAXIS . XF) LESS THAN 0, U = SCAXIS
000448:                                                                                                  #  OTHERWISE U = -SCAXIS
000449:
000450: 27,2106           57575                           VLOAD    VCOMP
000451: 27,2107           03761                                    SCAXIS
000452: 27,2110           37267                           STCALL   COF                                   #  ROTATE ABOUT -SCAXIS
000453: 27,2111           56115                                    CHEKAXIS
000454: 27,2112           77775        U=SCAXIS           VLOAD
000455: 27,2113           03761                                    SCAXIS
000456: 27,2114           03267                           STORE    COF                                   #  ROTATE ABOUT + SCAXIS
000457: 27,2115           51545        CHEKAXIS           DLOAD    ABS
000458: 27,2116           03761                                    SCAXIS                                #  SEE IF WE ARE POINTING THE AOT
000459: 27,2117           51025                           DSU      BPL
000460: 27,2120           14360                                    SINVEC2                               #  SIN 29.5 DEGS                         $2
000461: 27,2121           56125                                    PICKANG1                              #  IF SO, ROTATE 50 DEGS ABOUT +- SCAXIS
000462: 27,2122           52145                           DLOAD    GOTO                                  #  IF NOT, MUST BE POINTING THE TRANSPONDER
000463: 27,2123           14364                                    VECANG2                               #  OR SOME VECTOR IN THE Y, OR Z PLANE
000464: 27,2124           56127                                    COMPMFSN                              #  IN THIS CASE ROTATE 35 DEGS TO GET OUT
000465:                                                                                                  #  OF GIMBAL LOCK (VECANG2  $360)
000466: 27,2125           77745        PICKANG1           DLOAD
000467: 27,2126           14362                                    VECANG1                               #  = 50 DEGS                             $360
000468: 27,2127           77624        COMPMFSN           CALL
000469: 27,2130           44527                                    DELCOMP                               #  COMPUTE THE ROTATION ABOUT SCAXIS TO
000470: 27,2131           75160                           AXC,1    AXC,2                                 #  BRING MFS OUT OF GIMBAL LOCK
000471: 27,2132           03244                                    MIS
000472: 27,2133           02234                                    KEL
000473: 27,2134           77624                           CALL                                           #  COMPUTE THE NEW TRANSFORMATION FROM
000474: 27,2135           44312                                    MXM3                                  #  DESIRED S/C AXES TO STABLE MEMBER AXES
000475:                                                                                                  #  WHICH WILL ALIGN VI WITH VF AND AVOID
000476:                                                                                                  #  GIMBAL LOCK
000477: 27,2136           45160        FINDGIMB           AXC,1    CALL
000478: 27,2137           00000                                    0                                     #  EXTRACT THE COMMANDED CDU ANGLES FROM
000479: 27,2140           44654                                    DCMTOCDU                              #  THIS MATRIX
000480: 27,2141           40234                           RTB      SETPD
000481: 27,2142           21524                                    V1STO2S                               #  CONVERT TO 2:S COMPLEMENT


000483: 27,2143           00001                                    0
000484: 27,2144           77650                           GOTO
000485: 27,2145           03323                                    VECQTEMP                              #  RETURN TO CALLER
000486:
000487: 27,2146           50375        PICKAXIS           VLOAD    DOT                                   #  IF VF X VI = 0, FIND VF . VI
000488: 27,2147           00035                                    28D
000489: 27,2150           03761                                    SCAXIS
000490: 27,2151           72240                           BMN      TLOAD
000491: 27,2152           54326                                    ROT180
000492: 27,2153           00032                                    25D
000493: 27,2154           77650                           GOTO                                           #  IF VF = VI, CDU DESIRED = PRESENT CDU
000494: 27,2155           03323                                    VECQTEMP                              #  PRESENT CDU ANGLES
000495:
000496: 35,2000                                           BANK     35
000497: 26,2000                                           SETLOC   MANUVER1
000498: 26,2000                                           BANK
000499: 26,2326           47375        ROT180             VLOAD    VXV                                   #  IF VF, VI ANTIPARALLEL, 108 DEG ROTATION
000500: 26,2327           03253                                    MIS        +6                         #  IS REQUIRED. Y STABLE MEMBER AXIS IN
000501: 26,2330           06422                                    HIDPHALF                              #  INITIAL S/C AXES.
000502: 26,2331           47256                           UNIT     VXV                                   #  FIND Y(SM) X X(I)
000503: 26,2332           03761                                    SCAXIS                                #  FIND UNIT(VI X UNIT(Y(SM) X X(I)))
000504: 26,2333           40056                           UNIT     BOV                                   #  I.E. PICK A VECTOR IN THE PLANE OF X(I),
000505: 26,2334           54350                                    PICKX                                 #  Y(SM) PERPENDICULAR TO VI
000506: 26,2335           17267                           STODL    COF
000507: 26,2336           00045                                    36D                                   #  CHECK MAGNITUDE
000508: 26,2337           50025                           DSU      BMN                                   #  OF THIS VECTOR.
000509: 26,2340           14367                                    DPB-14                                #  IF LESS THAN B-14,
000510: 26,2341           54350                                    PICKX                                 #  PICK X-AXIS.
000511: 26,2342           77775                           VLOAD
000512: 26,2343           03267                                    COF
000513: 26,2344           17267        XROT               STODL    COF
000514: 26,2345           06422                                    HIDPHALF
000515: 26,2346           77650                           GOTO
000516: 26,2347           56050                                    COMPMATX
000517: 26,2350           52175        PICKX              VLOAD    GOTO                                  #  PICK THE XAXIS IN THIS CASE
000518: 26,2351           06422                                    HIDPHALF
000519: 26,2352           54344                                    XROT
000520: 26,2353           15555 35172  SINGIMLC           2DEC     .4285836003                            #  = SIN(59)                             $2
000521:
000522: 26,2355           14113 36326  SINVEC1            2DEC     .3796356537                            #  = SIN(49.4)                           $2
000523:
000524: 26,2357           07701 35703  SINVEC2            2DEC     .2462117800                            #  = SIN(29.5)                           $2
000525:
000526: 26,2361           04343 21616  VECANG1            2DEC     .1388888889                            #  = 50 DEGREES                          $360
000527:
000528: 26,2363           03070 34344  VECANG2            2DEC     .09722222222                            #  = 35 DEGREES                          $360
000529:
000530: 26,2365           00000        1BITDP             OCT      0                                     #  KEEP THIS BEFORE DPB(-14)        *********
000531: 26,2366           00001        DPB-14             OCT      00001
000532: 26,2367           00000                           OCT      00000
000533:


000535:                                                                                                  #  ROUTINE FOR INITIATING AUTOMATIC MANEUVER VIA KEYBOARD (V49)
000536:
000537: 34,2000                                           BANK     34
000538: 23,2000                                           SETLOC   R62
000539: 23,2000                                           BANK
000540: 23,2065  E6,1674                                  EBANK=   BCDU
000541:
000542: 23,2065                                           COUNT*   $$/R62
000543:
000544: 23,2065  23,2065               R62DISP            EQUALS   R62FLASH
000545:
000546: 23,2065           35010        R62FLASH           CAF      V06N22                                #  FLASH V06N22 AND
000547: 23,2066           04616                           TC       BANKCALL                              #  ICDU ANGLES
000548: 23,2067           20351                           CADR     GOFLASH
000549: 23,2070           15472                           TCF      ENDEXT                                #  TERMINATE
000550: 23,2071           12073                           TCF      GOMOVE                                #  PROCEED
000551: 23,2072           12065                           TCF      R62FLASH                              #  ENTER
000552:
000553:                                                                                                  #  ASTRONAUT MAY LOAD NEW ICDUS AT THIS
000554:                                                                                                  #  POINT
000555: 23,2073           05504        GOMOVE             TC       UPFLAG                                #  SET FOR 3-AXIS MANEUVER
000556: 23,2074           00124                           ADRES    3AXISFLG
000557:
000558: 23,2075           04616                           TC       BANKCALL
000559: 23,2076           54101                           CADR     R60LEM
000560: 23,2077           15472                           TCF      ENDEXT                                #  END R62
000561:

End of include-file R60,R62.agc.  Parent file is MAIN.agc


