
Source Code


000002:                                                                                                  ## Copyright:   Public domain.
000003:                                                                                                  ## Filename:    R63.agc
000004:                                                                                                  ## Purpose:     A section of LUM69 revision 2.
000005:                                                                                                  ##              It is part of the reconstructed source code for the flown
000006:                                                                                                  ##              version of the flight software for the Lunar Module's (LM)
000007:                                                                                                  ##              Apollo Guidance Computer (AGC) for Apollo 10. The code has
000008:                                                                                                  ##              been recreated from a copy of Luminary revsion 069, using
000009:                                                                                                  ##              changes present in Luminary 099 which were described in
000010:                                                                                                  ##              Luminary memos 75 and 78. The code has been adapted such
000011:                                                                                                  ##              that the resulting bugger words exactly match those specified
000012:                                                                                                  ##              for LUM69 revision 2 in NASA drawing 2021152B, which gives
000013:                                                                                                  ##              relatively high confidence that the reconstruction is correct.
000014:                                                                                                  ## Reference:   pp. 351-354
000015:                                                                                                  ## Assembler:   yaYUL
000016:                                                                                                  ## Contact:     Ron Burkey <info@sandroid.org>.
000017:                                                                                                  ## Website:     www.ibiblio.org/apollo/index.html
000018:                                                                                                  ## Mod history: 2019-07-27 MAS  Created from Luminary 69.
000019:


000021:                                                                                                  #  SUBROUTINE NAME:      V89CALL
000022:                                                                                                  #  MOD NO:       0                       DATE:           9 JAN 1968
000023:                                                                                                  #  MOD BY:       DIGITAL DEVEL GROUP     LOG SECTION:    R63
000024:
000025:                                                                                                  #  FUNCTIONAL DESCRIPTION:
000026:
000027:                                                                                                  #  CALLED BY VERB 89 ENTER DURING P00.  PRIO 10 USED.  CALCULATES AND
000028:                                                                                                  #  DISPLAYS FINAL FDAI BALL ANGLES TO POINT LM +X OR +Z AXIS AT CSM.
000029:
000030:                                                                                                  #  1. KEY IN V 89 E ONLY IF IN PROG 00.  IF NOT IN P00, OPERATOR ERROR AND
000031:                                                                                                  #  EXIT R63, OTHERWISE CONTINUE.
000032:
000033:                                                                                                  #  2. IF IN P00, DO IMU STATUS CHECK ROUTINE (R02BOTH).  IF IMU ON AND ITS
000034:                                                                                                  #  ORIENTATION KNOWN TO LGC, CONTINUE.
000035:
000036:                                                                                                  #  3. FLASH DISPLAY V 04 N 06.  R2 INDICATES WHICH SPACECRAFT AXIS IS TO
000037:                                                                                                  #  BE POINTED AT CSM.  INITIAL CHOICE IS PREFERRED (+Z) AXIS (R2=1).
000038:                                                                                                  #  ASTRONAUT CAN CHANGE TO (+X) AXIS (R2 NOT =1) BY V 22 E 2 E.  CONTINUE
000039:                                                                                                  #  AFTER KEYING IN PROCEED.
000040:
000041:                                                                                                  #  4. BOTH VEHICLE STATE VECTORS UPDATED BY CONIC EQS.
000042:
000043:                                                                                                  #  5. HALF MAGNITUDE UNIT LOS VECTOR (IN STABLE MEMBER COORDINATES) AND
000044:                                                                                                  #  HALF MAGNITUDE UNIT SPACECRAFT AXIS VECTOR (IN BODY COORDINATES)
000045:                                                                                                  #  PREPARED FOR VECPOINT.
000046:
000047:                                                                                                  #  6. GIMBAL ANGLES FROM VECPOINT TRANSFORMED INTO FDAI BALL ANGLES BY
000048:                                                                                                  #  BALLANGS.  FLASH DISPLAY V 06 N 18 AND AWAIT RESPONSE.
000049:
000050:                                                                                                  #  7.    RECYCLE - RETURN TO STEP 4.
000051:                                                                                                  #        TERMINATE - EXIT R63.
000052:                                                                                                  #        PROCEED - RESET 3AXISFLG AND CALL R60LEM FOR ATTITUDE MANEUVER.
000053:
000054:                                                                                                  #  CALLING SEQUENCE:     V 89 E.
000055:
000056:                                                                                                  #  SUBROUTINES CALLED:   CHKPOOH, R02BOTH, GOXDSPF, CSMCONIC, LEMCONIC,
000057:                                                                                                  #                        VECPOINT, BALLANGS, R60LEM.
000058:
000059:                                                                                                  #  NORMAL EXIT MODES:    TC ENDEXT
000060:
000061:                                                                                                  #  ALARMS:       1. OPERATOR ERROR IF NOT IN P00.
000062:                                                                                                  #                2. PROGRAM ALARM IF IMU IS OFF.
000063:                                                                                                  #                3. PROGRAM ALARM IF IMU ORIENTATION IS UNKNOWN.
000064:
000065:                                                                                                  #  OUTPUT:       NONE
000066:
000067:                                                                                                  #  ERASABLE INITIALIZATION REQUIRED:  NONE
000068:
000069:                                                                                                  #  DEBRIS:       OPTION1, +1, TDEC1, POINTVSM, SCAXIS, CPHI, CTHETA, CPSI,


000071:                                                                                                  #                3AXISFLG.
000072:
000073: 06,3715  E4,1612                                  EBANK=   RONE
000074: 32,2227                                           BANK     32
000075: 26,2000                                           SETLOC   BAWLANGS
000076: 26,2000                                           BANK
000077:
000078: 26,2000                                           COUNT*   $$/R63
000079: 26,2000           04616        V89CALL            TC       BANKCALL                              #  IMU STATUS CHECK.  RETURNS IF ORIENTATION
000080: 26,2001           11175                           CADR     R02BOTH                               #  KNOWN.  ALARMS IF NOT.
000081: 26,2002           36244                           CAF      THREE                                 #  ALLOW ASTRONAUT TO SELECT DESIRED
000082: 26,2003           55051                           TS       OPTIONX                               #  TRACKING ATTITUDE AXIS.
000083: 26,2004           34753                           CAF      ONE
000084: 26,2005           55052                           TS       OPTIONX    +1
000085: 26,2006           32075                           CAF      VB04N12                               #  V 04 N 12
000086: 26,2007           04616                           TC       BANKCALL
000087: 26,2010           20351                           CADR     GOFLASH
000088: 26,2011           05472                           TC       ENDEXT                                #  TERMINATE
000089: 26,2012           02014                           TC       +2                                    #  PROCEED
000090: 26,2013           02006                           TC       -5                                    #  DATA IN. OPTION1+1 = 1 FOR Z AXIS
000091: 26,2014           06036        V89RECL            TC       INTPRET                               #                    = 2 FOR X AXIS
000092: 26,2015           43234                           RTB      DAD
000093: 26,2016           21462                                    LOADTIME                              #  READ PRESENT TIME
000094: 26,2017           14100                                    DP1MIN
000095: 26,2020           02211                           STORE    TSTART82                              #  SAVE TIME FOR LEMCONIC CALL
000096: 26,2021           34041                           STCALL   TDEC1                                 #  STORE TIME FOR CSMCONIC CALL
000097: 26,2022           27066                                    CSMCONIC                              #  CSM STATE VECTOR UPDATE
000098: 26,2023           77775                           VLOAD                                          #  CSMCONIC LEFT R VECTOR IN RATT
000099: 26,2024           00001                                    RATT
000100: 26,2025           16213                           STODL    RONE                                  #  SAVE FOR LINE OF SIGHT (LOS) COMPUTATION
000101: 26,2026           02211                                    TSTART82
000102: 26,2027           34041                           STCALL   TDEC1                                 #  STORE TIME FOR LEMCONIC CALL
000103: 26,2030           27100                                    LEMCONIC                              #  LEM STATE VECTOR UPDATE
000104: 26,2031           52375                           VLOAD    VSU                                   #  CSM POSITION - LEM POSITION = LOS
000105: 26,2032           02213                                    RONE                                  #  LOS VECTOR LEFT IN MPAC
000106: 26,2033           00001                                    RATT
000107: 26,2034           47121                           MXV      RTB                                   #  (REFSMMAT X LOS).  TRANSFORMS LOS FROM
000108: 26,2035           01734                                    REFSMMAT                              #  REFERENCE COORD TO STAB MEMB COORD.
000109: 26,2036           21700                                    NORMUNIT
000110: 26,2037           03767                           STORE    POINTVSM                              #  STORE LOS FOR VECPOINT CALL
000111: 26,2040           77776                           EXIT
000112: 26,2041           41052                           CS       OPTIONX    +1                         #  1 FOR Z AXIS.  2 FOR X AXIS.
000113: 26,2042           64753                           AD       ONE
000114: 26,2043           00006                           EXTEND
000115: 26,2044           12071                           BZF      ALINEZ
000116: 26,2045           06036        ALINEX             TC       INTPRET                               #  X AXIS ALIGNMENT
000117: 26,2046           77775                           VLOAD
000118: 26,2047           06422                                    UNITX                                 #  READ (.5, 0, 0)


000120: 26,2050           37761        V89CALL1           STCALL   SCAXIS                                #  STORE SELECTED ALIGNMENT AXIS
000121: 26,2051           56016                                    VECPOINT                              #  PUTS DESIRED GIM ANG (OG,IG,MG) IN TMPAC
000122: 26,2052           00322                           STORE    CPHI                                  #  STORE GIMBAL ANGLES FOR BALLANGS CALL.
000123: 26,2053           77776                           EXIT
000124: 26,2054           04616                           TC       BANKCALL
000125: 26,2055           54244                           CADR     BALLANGS                              #  PUTS DESIRED BALL ANGLES IN FDAIX,Y,Z
000126: 26,2056           32076                           CAF      VB06N18                               #  V 06 N 18
000127: 26,2057           04616                           TC       BANKCALL                              #  NOUN 18 REFERS TO FDAIX,Y,Z
000128: 26,2060           20351                           CADR     GOFLASH
000129: 26,2061           05472                           TC       ENDEXT                                #  TERMINATE
000130: 26,2062           02064                           TC       +2                                    #  PROCEED
000131: 26,2063           02014                           TC       V89RECL                               #  RECYCLE
000132: 26,2064           05516                           TC       DOWNFLAG                              #  RESET 3 AXIS FLAG
000133: 26,2065           00124                           ADRES    3AXISFLG                              #  RESET BIT6 FLAG WORD 5
000134: 26,2066           04616                           TC       BANKCALL                              #  PERFORMS LEM MANEUVER TO ALIGN SELECTED
000135: 26,2067           54101                           CADR     R60LEM                                #  SPACECRAFT AXIS TO CSM.
000136: 26,2070           15472                           TCF      ENDEXT                                #  TERMINATE R63
000137:
000138: 26,2071           06036        ALINEZ             TC       INTPRET                               #  Z AXIS ALIGNMENT
000139: 26,2072           52175                           VLOAD    GOTO
000140: 26,2073           06416                                    UNITZ                                 #  READ (0, 0, .5)
000141: 26,2074           54050                                    V89CALL1
000142:
000143: 26,2075           01014        VB04N12            VN       412
000144: 26,2076           01422        VB06N18            VN       0618


000146: 26,2077           00000 13560  DP1MIN             2DEC     6000       B-28
000147:

End of include-file R63.agc.  Parent file is MAIN.agc


