
Source Code


000002:                                                                                                  ## Copyright:   Public domain.
000003:                                                                                                  ## Filename:    RADAR_LEADIN_ROUTINES.agc
000004:                                                                                                  ## Purpose:     A section of LUM69 revision 2.
000005:                                                                                                  ##              It is part of the reconstructed source code for the flown
000006:                                                                                                  ##              version of the flight software for the Lunar Module's (LM)
000007:                                                                                                  ##              Apollo Guidance Computer (AGC) for Apollo 10. The code has
000008:                                                                                                  ##              been recreated from a copy of Luminary revsion 069, using
000009:                                                                                                  ##              changes present in Luminary 099 which were described in
000010:                                                                                                  ##              Luminary memos 75 and 78. The code has been adapted such
000011:                                                                                                  ##              that the resulting bugger words exactly match those specified
000012:                                                                                                  ##              for LUM69 revision 2 in NASA drawing 2021152B, which gives
000013:                                                                                                  ##              relatively high confidence that the reconstruction is correct.
000014:                                                                                                  ## Reference:   pp. 502-503
000015:                                                                                                  ## Assembler:   yaYUL
000016:                                                                                                  ## Contact:     Ron Burkey <info@sandroid.org>.
000017:                                                                                                  ## Website:     www.ibiblio.org/apollo/index.html
000018:                                                                                                  ## Mod history: 2019-07-27 MAS  Created from Luminary 69.
000019:


000021: 25,2003                                           BANK     25
000022: 25,2000                                           SETLOC   RRLEADIN
000023: 25,2000                                           BANK
000024:
000025: 25,2003  E4,1604                                  EBANK=   RSTACK
000026:
000027:                                                                                                  #  RADAR SAMPLING LOOP.
000028:
000029: 25,2003                                           COUNT*   $$/RLEAD
000030: 25,2003           11761        RADSAMP            CCS      RSAMPDT                               #  TIMES NORMAL ONCE-PER-SECOND SAMPLING.
000031: 25,2004           12006                           TCF      +2
000032: 25,2005           15261                           TCF      TASKOVER                              #  +0 INSERTED MANUALLY TERMINATES TEST.
000033:
000034: 25,2006           05203                           TC       WAITLIST
000035: 25,2007  E4,1604                                  EBANK=   RSTACK
000036: 25,2007           02003 52064                     2CADR    RADSAMP
000037:
000038: 25,2011           37712                           CAF      PRIO25
000039: 25,2012           05072                           TC       NOVAC
000040: 25,2013  E4,1604                                  EBANK=   RSTACK
000041: 25,2013           02023 52064                     2CADR    DORSAMP
000042:
000043: 25,2015           34736                           CAF      BIT14                                 #  FOR CYCLIC SAMPLING, RTSTDEX=
000044: 25,2016           00006                           EXTEND                                         #  RTSTLOC/2 + RTSTBASE
000045: 25,2017           71760                           MP       RTSTLOC
000046: 25,2020           61757                           AD       RTSTBASE                              #  0 FOR RR, 2 FOR LR.
000047: 25,2021           55755                           TS       RTSTDEX
000048: 25,2022           15261                           TCF      TASKOVER
000049:
000050:                                                                                                  #  DO THE ACTUAL RADAR SAMPLE.
000051:
000052: 25,2023           02047        DORSAMP            TC       VARADAR                               #  SELECTS VARIABLE RADAR CHANNEL.
000053: 25,2024           04616                           TC       BANKCALL
000054: 25,2025           17667                           CADR     RADSTALL
000055:
000056: 25,2026           25762                           INCR     RFAILCNT                              #  ADVANCE FAIL COUNTER BUT ACCEPT BAD DATA
000057:
000058: 25,2027           00004        DORSAMP2           INHINT
000059: 25,2030           30101                           CA       FLAGWRD5                              #  DON'T UPDATE RSTACK IF IN R77.
000060: 25,2031           74741                           MASK     R77FLBIT
000061: 25,2032           10000                           CCS      A
000062: 25,2033           12037                           TCF      +4
000063:
000064: 25,2034           53102                           DXCH     SAMPLSUM
000065: 25,2035           51760                           INDEX    RTSTLOC
000066: 25,2036           53605                           DXCH     RSTACK
000067:
000068: 25,2037           41760                           CS       RTSTLOC                               #  CYCLE RTSTLOC.
000069: 25,2040           61756                           AD       RTSTMAX
000070: 25,2041           00006                           EXTEND
000071:


000073: 25,2042           12045                           BZF      +3
000074: 25,2043           31760                           CA       RTSTLOC
000075: 25,2044           64752                           AD       TWO                                   #  STORAGE IS DP
000076: 25,2045           55760                           TS       RTSTLOC
000077: 25,2046           15155                           TCF      ENDOFJOB                              #  CONTINUOUS SAMPLING AND 2N TRIES - GONE.
000078:
000079:                                                                                                  #  VARIABLE RADAR DATA CALLER FOR ONE MEASUREMENT ONLY.
000080:
000081: 25,2047           34753        VARADAR            CAF      ONE                                   #  WILL BE SENT TO RADAR ROUTINE IN A BY
000082: 25,2050           54133                           TS       BUF2                                  #  SWCALL.
000083: 25,2051           51755                           INDEX    RTSTDEX
000084: 25,2052           32054                           CAF      RDRLOCS
000085: 25,2053           14622                           TCF      SWCALL                                #  NOT TOUCHING Q.
000086:
000087: 25,2054           53105        RDRLOCS            CADR     RRRANGE                               #  = 0
000088: 25,2055           53103                           CADR     RRRDOT                                #  = 1
000089: 25,2056           53101                           CADR     LRVELX                                #  = 2
000090: 25,2057           53077                           CADR     LRVELY                                #  = 3
000091: 25,2060           53075                           CADR     LRVELZ                                #  = 4
000092: 25,2061           53073                           CADR     LRALT                                 #  = 5
000093:
000094:

End of include-file RADAR_LEADIN_ROUTINES.agc.  Parent file is MAIN.agc


