
Source Code


000002:                                                                                                  ## Copyright:   Public domain.
000003:                                                                                                  ## Filename:    S-BAND_ANTENNA_FOR_LM.agc
000004:                                                                                                  ## Purpose:     A section of LUM69 revision 2.
000005:                                                                                                  ##              It is part of the reconstructed source code for the flown
000006:                                                                                                  ##              version of the flight software for the Lunar Module's (LM)
000007:                                                                                                  ##              Apollo Guidance Computer (AGC) for Apollo 10. The code has
000008:                                                                                                  ##              been recreated from a copy of Luminary revsion 069, using
000009:                                                                                                  ##              changes present in Luminary 099 which were described in
000010:                                                                                                  ##              Luminary memos 75 and 78. The code has been adapted such
000011:                                                                                                  ##              that the resulting bugger words exactly match those specified
000012:                                                                                                  ##              for LUM69 revision 2 in NASA drawing 2021152B, which gives
000013:                                                                                                  ##              relatively high confidence that the reconstruction is correct.
000014:                                                                                                  ## Reference:   pp. 498-501
000015:                                                                                                  ## Assembler:   yaYUL
000016:                                                                                                  ## Contact:     Ron Burkey <info@sandroid.org>.
000017:                                                                                                  ## Website:     www.ibiblio.org/apollo/index.html
000018:                                                                                                  ## Mod history: 2019-07-27 MAS  Created from Luminary 69.
000019:


000021:                                                                                                  #  SUBROUTINE NAME: R05 - S-BAND ANTENNA FOR LM
000022:
000023:                                                                                                  #  MOD0 BY T. JAMES
000024:                                                                                                  #  MOD1 BY P. SHAKIR
000025:
000026:                                                                                                  #  FUNCTIONAL DESCRIPTION
000027:
000028:                                                                                                  #        THE S-BAND ANTENNA ROUTINE, R05, COMPUTES AND DISPLAYS THE PITCH AND
000029:                                                                                                  #  YAW ANTENNA GIMBAL ANGLES REQUIRED TO POINT THE LM STEERABLE ANTENNA
000030:                                                                                                  #  TOWARD THE CENTER OF THE EARTH.  THIS ROUTINE IS SELECTED BY THE ASTRO-
000031:                                                                                                  #  NAUT VIA DSKY ENTRY DURING COASTING FLIGHT OR WHEN THE LM IS ON THE MOON
000032:                                                                                                  #  SURFACE.  THE EARTH OR MOON REFERENCE COORDINATE SYSTEM IS USED DEPENDING
000033:                                                                                                  #  ON WHETHER THE LM IS ABOUT TO ENTER OR HAS ALREADY ENTERED THE MOON
000034:                                                                                                  #  SPHERE OF INFLUENCE, RESPECTIVELY
000035:
000036:                                                                                                  #  TO CALL SUBROUTINE, ASTRONAUT KEYS IN V 64 E
000037:
000038:                                                                                                  #  SUBROUTINES CALLED-
000039:                                                                                                  #        R02BOTH
000040:                                                                                                  #        INTPRET
000041:                                                                                                  #        LOADTIME
000042:                                                                                                  #        LEMCONIC
000043:                                                                                                  #        LUNPOS
000044:                                                                                                  #        CDUTRIG
000045:                                                                                                  #        *SMNB*
000046:                                                                                                  #        BANKCALL
000047:                                                                                                  #        B5OFF
000048:                                                                                                  #        ENDOFJOB
000049:                                                                                                  #        BLANKET
000050:
000051:                                                                                                  #  RETURNS WITH
000052:                                                                                                  #        PITCH ANGLE IN PITCHANG  REV. B0
000053:                                                                                                  #        YAW ANGLE IN YAWANG  REV. B0
000054:
000055:                                                                                                  #  ERASABLES USED
000056:                                                                                                  #        PITCHANG
000057:                                                                                                  #        YAWANG
000058:                                                                                                  #        RLM
000059:                                                                                                  #        VAC AREA
000060:
000061: 41,3731                                           BANK     41
000062: 42,2000                                           SETLOC   SBAND
000063: 42,2000                                           BANK
000064:
000065: 42,3602  E7,1467                                  EBANK=   WHOCARES
000066: 42,3602                                           COUNT*   $$/R05
000067: 42,3602           04616        SBANDANT           TC       BANKCALL


000069: 42,3603           11175                           CADR     R02BOTH                               #  CHECK IF IMU IS ON AND ALIGNED
000070: 42,3604           06036                           TC       INTPRET
000071: 42,3605           47001                           SETPD    RTB
000072: 42,3606           00001                                    0D
000073: 42,3607           21462                                    LOADTIME                              #  PICK UP CURRENT TIME
000074: 42,3610           34041                           STCALL   TDEC1                                 #  ADVANCE INTEGRATION TO TIME IN TDEC1
000075: 42,3611           27100                                    LEMCONIC                              #  USING CONIC INTEGRATION
000076: 42,3612           46135                           SLOAD    BHIZ
000077: 42,3613           00050                                    X2                                    #  X2 =0 EARTH SPHERE, X2 =2 MOON SPHERE
000078: 42,3614           65632                                    CONV4
000079: 42,3615           77775                           VLOAD
000080: 42,3616           00001                                    RATT
000081: 42,3617           16211                           STODL    RLM
000082: 42,3620           00015                                    TAT
000083: 42,3621           77624        CONV3              CALL
000084: 42,3622           33663                                    LUNPOS                                #  UNIT POSITION VECTOR FROM EARTH TO MOON
000085: 42,3623           74375                           VLOAD    VXSC
000086: 42,3624           02723                                    VMOON
000087: 42,3625           24001                                    REMDIST                               #  MEAN DISTANCE FROM EARTH TO MOON
000088: 42,3626           53372                           VSL1     VAD
000089: 42,3627           02211                                    RLM
000090: 42,3630           77650                           GOTO
000091: 42,3631           65634                                    CONV5
000092: 42,3632           77775        CONV4              VLOAD
000093: 42,3633           00001                                    RATT                                  #  UE = -UNIT(RATT)  EARTH SPHERE
000094: 42,3634           53401        CONV5              SETPD    UNIT                                  #  UE = -UNIT((REM)(UEM) + RL)  MOON SPHERE
000095: 42,3635           00001                                    0D                                    #  SET PL POINTER TO 0
000096: 42,3636           45076                           VCOMP    CALL
000097: 42,3637           47443                                    CDUTRIG                               #  COMPUTE SINES AND COSINES OF CDU ANGLES
000098: 42,3640           76521                           MXV      VSL1                                  #  TRANSFORM REF. COORDINATE SYSTEM TO
000099: 42,3641           01734                                    REFSMMAT                              #  STABLE MEMBER B-1 X B-1 X B+1 = B-1
000100: 42,3642           71206                           PUSH     DLOAD                                 #  8D
000101: 42,3643           06424                                    HI6ZEROS
000102: 42,3644           02205                           STORE    PITCHANG
000103: 42,3645           26207                           STOVL    YAWANG                                #  ZERO OUT ANGLES
000104: 42,3646           77624                           CALL
000105: 42,3647           47575                                    *SMNB*
000106: 42,3650           16211                           STODL    RLM                                   #  PRE-MULTIPLY RLM BY (NBSA) MATRIX(B0)
000107: 42,3651           02213                                    RLM        +2
000108: 42,3652           45206                           PUSH     DSU
000109: 42,3653           02211                                    RLM
000110: 42,3654           77605                           DMP
000111: 42,3655           25765                                    1OVSQRT2
000112: 42,3656           16213                           STODL    RLM        +2
000113: 42,3657           41215                           DAD      DMP
000114: 42,3660           02211                                    RLM
000115: 42,3661           25765                                    1OVSQRT2
000116: 42,3662           26211                           STOVL    RLM                                   #  R B-1
000117: 42,3663           02211                                    RLM
000118: 42,3664           63256                           UNIT     PDVL


000120: 42,3665           02211                                    RLM
000121: 42,3666           72431                           VPROJ    VSL2                                  #  PROJECTION OF R ONTO LM XZ PLANE
000122: 42,3667           06420                                    HIUNITY
000123: 42,3670           40045                           BVSU     BOV                                   #  CLEAR OVERFLOW INDICATOR IF ON
000124: 42,3671           02211                                    RLM
000125: 42,3672           65673                                    COVCNV
000126: 42,3673           40056        COVCNV             UNIT     BOV                                   #  EXIT ON OVERFLOW
000127: 42,3674           65741                                    SBANDEX
000128: 42,3675           47206                           PUSH     VXV                                   #  URP VECTOR B-1
000129: 42,3676           06416                                    HIUNITZ
000130: 42,3677           57572                           VSL1     VCOMP                                 #  UZ X URP = -(URP X UZ)
000131: 42,3700           02211                           STORE    RLM                                   #  X VEC B-1
000132: 42,3701           63241                           DOT      PDVL                                  #  SGN(X.UY) UNSCALED
000133: 42,3702           06420                                    HIUNITY
000134: 42,3703           02211                                    RLM
000135: 42,3704           75246                           ABVAL    SIGN
000136: 42,3705           77736                           ASIN                                           #  ASIN((SGN(X.UY))ABV(X)) REV B0
000137: 42,3706           26205                           STOVL    PITCHANG
000138: 42,3707           00007                                    URP
000139: 42,3710           51041                           DOT      BPL
000140: 42,3711           06416                                    HIUNITZ
000141: 42,3712           65717                                    NOADJUST                              #  YES, -90 TO +90
000142: 42,3713           45345                           DLOAD    DSU
000143: 42,3714           06422                                    HIDPHALF
000144: 42,3715           02205                                    PITCHANG
000145: 42,3716           02205                           STORE    PITCHANG
000146: 42,3717           47375        NOADJUST           VLOAD    VXV
000147: 42,3720           00001                                    UR                                    #  Z = (UR X URP)
000148: 42,3721           00007                                    URP
000149: 42,3722           77772                           VSL1
000150: 42,3723           16211                           STODL    RLM                                   #  Z VEC B-1
000151: 42,3724           02205                                    PITCHANG
000152: 42,3725           74356                           SIN      VXSC
000153: 42,3726           06416                                    HIUNITZ
000154: 42,3727           71525                           PDDL     COS
000155: 42,3730           02205                                    PITCHANG
000156: 42,3731           52361                           VXSC     VSU
000157: 42,3732           06422                                    HIUNITX                               #  (UX COS ALPHA) - (UZ SIN ALPHA)
000158: 42,3733           63241                           DOT      PDVL                                  #  YAW.Z
000159: 42,3734           02211                                    RLM
000160: 42,3735           02211                                    RLM
000161: 42,3736           75246                           ABVAL    SIGN
000162: 42,3737           77736                           ASIN
000163: 42,3740           02207                           STORE    YAWANG
000164: 42,3741           77776        SBANDEX            EXIT
000165: 42,3742           31044                           CA       EXTVBACT
000166: 42,3743           74747                           MASK     BIT5                                  #  IS BIT5 STILL ON
000167: 42,3744           00006                           EXTEND
000168: 42,3745           15472                           BZF      ENDEXT                                #  NO
000169: 42,3746           35017                           CAF      PRIO5


000171: 42,3747           05146                           TC       PRIOCHNG
000172: 42,3750           33763                           CAF      V06N51                                #  DISPLAY ANGLES
000173: 42,3751           04616                           TC       BANKCALL
000174: 42,3752           20231                           CADR     GOMARKFR
000175: 42,3753           05563                           TC       B5OFF                                 #  TERMINATE
000176: 42,3754           05563                           TC       B5OFF                                 #  PROCEED
000177: 42,3755           05155                           TC       ENDOFJOB                              #  RECYCLE
000178: 42,3756           34751                           CAF      BIT3                                  #  IMMEDIATE RETURN
000179: 42,3757           05464                           TC       BLANKET                               #  BLANK R3
000180: 42,3760           34740                           CAF      PRIO4
000181: 42,3761           05146                           TC       PRIOCHNG
000182: 42,3762           03604                           TC       SBANDANT   +2                         #  YES, CONTINUE DISPLAYING ANGLES
000183: 42,3763           01463        V06N51             VN       0651
000184: 42,3764           26501 07463  1OVSQRT2           2DEC     .7071067815                            #  1/SQRT(2)
000185:
000186: 42,3766                        UR                 EQUALS   0D
000187: 42,3766                        URP                EQUALS   6D
000188: 42,3766  30,2000                                  SBANK=   LOWSUPER

End of include-file S-BAND_ANTENNA_FOR_LM.agc.  Parent file is MAIN.agc


