
Source Code


000002:                                                                                                  ## Copyright:   Public domain.
000003:                                                                                                  ## Filename:    SERVICE_ROUTINES.agc
000004:                                                                                                  ## Purpose:     A section of LUM69 revision 2.
000005:                                                                                                  ##              It is part of the reconstructed source code for the flown
000006:                                                                                                  ##              version of the flight software for the Lunar Module's (LM)
000007:                                                                                                  ##              Apollo Guidance Computer (AGC) for Apollo 10. The code has
000008:                                                                                                  ##              been recreated from a copy of Luminary revsion 069, using
000009:                                                                                                  ##              changes present in Luminary 099 which were described in
000010:                                                                                                  ##              Luminary memos 75 and 78. The code has been adapted such
000011:                                                                                                  ##              that the resulting bugger words exactly match those specified
000012:                                                                                                  ##              for LUM69 revision 2 in NASA drawing 2021152B, which gives
000013:                                                                                                  ##              relatively high confidence that the reconstruction is correct.
000014:                                                                                                  ## Reference:   pp. 1368-1374
000015:                                                                                                  ## Assembler:   yaYUL
000016:                                                                                                  ## Contact:     Ron Burkey <info@sandroid.org>.
000017:                                                                                                  ## Website:     www.ibiblio.org/apollo/index.html
000018:                                                                                                  ## Mod history: 2019-07-27 MAS  Created from Luminary 69.
000019:


000021: 10,3416                                           BANK     10
000022: 10,2000                                           SETLOC   DISPLAYS
000023: 10,2000                                           BANK
000024: 10,3416                                           COUNT*   $$/DSPLA
000025:
000026: 10,3416           54001        UPENT2             TS       L                                     #  WHICH FLAGWORD IS IT
000027: 10,3417           74757                           MASK     OCT7
000028: 10,3420           56001                           XCH      L                                     #  SAVE IN L FOR INDEXING
000029:
000030: 10,3421           75660                           MASK     OCT77770                              #  OBTAIN THE BIT INFORMATION
000031: 10,3422           00004                           INHINT                                         #  PREVENT INTERUPTS
000032: 10,3423           54061                           TS       ITEMP1                                #  STORE THE BIT INFORMATION TEMPORARIALY
000033:
000034: 10,3424           50001                           NDX      L
000035: 10,3425           40074                           CS       FLAGWRD0
000036: 10,3426           70061                           MASK     ITEMP1
000037: 10,3427           50001                           NDX      L
000038: 10,3430           26074                           ADS      FLAGWRD0
000039: 10,3431           00003                           RELINT                                         #  RELEASE INTERUPT INHIBIT
000040:
000041: 10,3432           24002                           INCR     Q                                     #  OBTAIN THE CORRECT RETURN ADDRESS
000042: 10,3433           00002                           TC       Q                                     #  RETURN
000043:
000044: 10,3434           54001        DOWNENT2           TS       L                                     #  WHICH FLAGWORD IS IT
000045: 10,3435           74757                           MASK     OCT7
000046: 10,3436           56001                           XCH      L                                     #  SAVE IN L FOR INDEXING
000047:
000048: 10,3437           75660                           MASK     OCT77770                              #  OBTAIN THE BIT INFORMATION
000049: 10,3440           40000                           COM                                            #  START TO PROCESS THE INFORMATION
000050:
000051: 10,3441           00004                           INHINT                                         #  PREVENT INTERUPTS
000052: 10,3442           50001                           NDX      L
000053: 10,3443           70074                           MASK     FLAGWRD0
000054: 10,3444           50001                           NDX      L
000055: 10,3445           54074                           TS       FLAGWRD0
000056: 10,3446           00003                           RELINT                                         #  RELEASE INTERUPT INHIBIT
000057:
000058: 10,3447           24002                           INCR     Q                                     #  OBTAIN THE CORRECT RETURN ADDRESS
000059: 10,3450           00002                           TC       Q                                     #  RETURN
000060:
000061: 10,3451     4757               OCT7               EQUALS   SEVEN
000062:


000064:                                                                                                  #      UPFLAG AND DOWNFLAG ARE ENTIRELY GENERAL FLAG SETTING AND CLEARING SUBROUTINES.   USING THEM, WHETHER OR
000065:                                                                                                  #  NOT IN INTERRUPT, ONE MAY SET OR CLEAR ANY SINGLE, NAMED BIT IN ANY ERASABLE REGISTER, SUBJECT OF COURSE TO
000066:                                                                                                  #  EBANK SETTING.   A "NAMED" BIT, AS THE WORD IS USED HERE, IS ANY BIT WITH A NAME FORMALLY ASSIGNED BY THE YUL
000067:                                                                                                  #  ASSEMBLER.
000068:
000069:                                                                                                  #      AT PRESENT THE ONLY NAMED BITS ARE THOSE IN THE FLAGWORDS.   ASSEMBLER CHANGES WILL MAKE IT POSSIBLE TO
000070:                                                                                                  #  NAME ANY BIT IN ERASABLE MEMORY.
000071:
000072:                                                                                                  #      CALLING SEQUENCES ARE AS FOLLOWS :-
000073:                                                                                                  #                TC      UPFLAG                  TC      DOWNFLAG
000074:                                                                                                  #                ADRES   NAME OF FLAG            ADRES   NAME OF FLAG
000075:
000076:                                                                                                  #      RETURN IS TO THE LOCATION FOLLOWING THE "ADRES" ABOUT .58 MS AFTER THE "TC".
000077:
000078:                                                                                                  #      UPON RETURN A CONTAINS THE CURRENT FLAGWRD SETTING.
000079:
000080:    5504                                           BLOCK    02
000081:    4000                                           SETLOC   FFTAG1
000082:    4000                                           BANK
000083:    5504                                           COUNT*   $$/FLAG
000084:
000085:    5504           30002        UPFLAG             CA       Q
000086:    5505           05522                           TC       DEBIT
000087:    5506           40000                           COM                                            #  +(15 - BIT)
000088:    5507           00006                           EXTEND
000089:    5510           04001                           ROR      LCHAN                                 #  SET BIT
000090:    5511           50061        COMFLAG            INDEX    ITEMP1
000091:    5512           54074                           TS       FLAGWRD0
000092:    5513           22063                           LXCH     ITEMP3
000093:    5514           00003                           RELINT
000094:    5515           00001                           TC       L
000095:
000096:    5516           30002        DOWNFLAG           CA       Q
000097:    5517           05522                           TC       DEBIT
000098:    5520           70001                           MASK     L                                     #  RESET BIT
000099:    5521           15511                           TCF      COMFLAG
000100:
000101:    5522           64753        DEBIT              AD       ONE                                   #  GET DE BITS
000102:    5523           00004                           INHINT
000103:    5524           54063                           TS       ITEMP3
000104:    5525           34762                           CA       LOW4                                  #  DEC15
000105:    5526           54061                           TS       ITEMP1
000106:    5527           50063                           INDEX    ITEMP3
000107:    5530           27777                           CA       0          -1                         #  ADRES
000108:    5531           54001                           TS       L
000109:    5532           34755                           CA       ZERO


000111:    5533           00006                           EXTEND
000112:    5534           10061                           DV       ITEMP1                                #  A = FLAGWRD, L = (15 - BIT)
000113:    5535           52062                           DXCH     ITEMP1
000114:    5536           50061                           INDEX    ITEMP1
000115:    5537           30074                           CA       FLAGWRD0
000116:    5540           54001                           TS       L                                     #  CURRENT STATE
000117:    5541           50062                           INDEX    ITEMP2
000118:    5542           44735                           CS       BIT15                                 #  -(15 - BIT)
000119:    5543           00002                           TC       Q
000120:


000122:                                                                                                  #  DELAYJOB - A GENERAL ROUTINE TO DELAY A JOB A SPECIFIC AMOUNT OF TIME BEFORE PICKING UP AGAIN.
000123:
000124:                                                                                                  #  ENTRANCE REQUIREMENTS ...
000125:                                                                                                  #                CAF     DT              DELAY JOB FOR DT CENTISECS
000126:                                                                                                  #                TC      BANKCALL
000127:                                                                                                  #                CADR    DELAYJOB
000128:
000129: 06,3715                                           BANK     06
000130: 00,2000                                           SETLOC   DLAYJOB
000131: 00,2000                                           BANK
000132:
000133:                                                                                                  #  THIS MUST REMAIN IN BANK 0 *****************************************
000134:
000135: 00,3735                                           COUNT*   $$/DELAY
000136: 00,3735           00004        DELAYJOB           INHINT
000137: 00,3736           54002                           TS       Q                                     #  STORE DELAY DT IN Q FOR DLY -1 IN
000138:
000139: 00,3737           34752                           CAF      DELAYNUM                              #  WAITLIST
000140: 00,3740           54070        DELLOOP            TS       RUPTREG1
000141: 00,3741           50000                           INDEX    A
000142: 00,3742           31326                           CA       DELAYLOC                              #  IS THIS DELAYLOC AVAILABLE
000143: 00,3743           00006                           EXTEND
000144: 00,3744           13752                           BZF      OK2DELAY                              #  YES
000145:
000146: 00,3745           10070                           CCS      RUPTREG1                              #  NO, TRY NEXT DELAYLOC
000147: 00,3746           13740                           TCF      DELLOOP
000148:
000149: 00,3747           52134                           DXCH     BUF2
000150: 00,3750           05710                           TC       BAILOUT1                              #  NO AVAILABLE LOCS.
000151: 00,3751           01104                           OCT      1104
000152:
000153: 00,3752           33772        OK2DELAY           CA       TCSLEEP                               #  SET WAITLIST IMMEDIATE RETURN
000154: 00,3753           54061                           TS       WAITEXIT
000155:
000156: 00,3754           30004                           CA       FBANK
000157: 00,3755           60070                           AD       RUPTREG1                              #  STORE BBANK FOR TASK CALL
000158: 00,3756           54001                           TS       L
000159:
000160: 00,3757           33773                           CAF      WAKECAD                               #  STORE CADR FOR TASK CALL
000161: 00,3760           15211                           TCF      DLY2       -1                         #  DLY IS IN WAITLIST ROUTINE
000162:
000163: 00,3761           04645        TCGETCAD           TC       MAKECADR                              #  GET CALLERS FCADR
000164:
000165: 00,3762           50070                           INDEX    RUPTREG1
000166: 00,3763           55326                           TS       DELAYLOC                              #  SAVE DELAY CADRS
000167:
000168: 00,3764           05133                           TC       JOBSLEEP
000169:
000170: 00,3765           34755        WAKER              CAF      ZERO
000171: 00,3766           50006                           INDEX    BBANK
000172: 00,3767           57326                           XCH      DELAYLOC                              #  MAKE DELAYLOC AVAILABLE


000174: 00,3770           05137                           TC       JOBWAKE
000175:
000176: 00,3771           05261                           TC       TASKOVER
000177:
000178: 00,3772           03757        TCSLEEP            GENADR   TCGETCAD   -2
000179: 00,3773           03765        WAKECAD            GENADR   WAKER
000180:


000182:                                                                                                  #  GENTRAN, A BLOCK TRANSFER ROUTINE.
000183:
000184:                                                                                                  #  WRITTEN BY D. EYLES
000185:                                                                                                  #  MOD 1 BY KERNAN                               UTILITYM REV 17 11/18/67
000186:
000187:                                                                                                  #  MOD 2 BY SCHULENBERG (REMOVE RELINT) SKIPPER REV 4 2/28/68
000188:
000189:                                                                                                  #           THIS ROUTINE IS USEFULL FOR TRANSFERING N CONSECUTIVE ERASABLE OR FIXED QUANTITIES TO SOME OTHER N
000190:                                                                                                  #  CONSECUTIVE ERASABLE LOCATIONS.  IF BOTH BLOCKS OF DATA ARE IN SWITCHABLE EBANKS, THEY MUST BE IN THE SAME ONE.
000191:
000192:                                                                                                  #           GENTRAN IS CALLABLE IN A JOB AS WELL AS A RUPT.  THE CALLING SEQUENCE IS:
000193:                                                                                                  #                                          I        CA    N-1              # OF QUANTITIES MINUS ONE.
000194:                                                                                                  #                                          I +1     TC    GENTRAN          IN FIXED-FIXED.
000195:                                                                                                  #                                          I +2     ADRES L                STARTING ADRES OF DATA TO BE MOVED.
000196:                                                                                                  #                                          I +3     ADRES M                STARTING ADRES OF DUPLICATION BLOCK.
000197:                                                                                                  #                                          I +4                            RETURNS HERE.
000198:
000199:                                                                                                  #           GENTRAN TAKES 25 MCT'S (300 MICROSECONDS) PER ITEM + 5 MCT'S (60 MICS) FOR ENTERING AND EXITING.
000200:                                                                                                  #           A, L AND ITEMP1 ARE NOT PRESERVED.
000201:
000202:    5544                                           BLOCK    02
000203:    4000                                           SETLOC   FFTAG4
000204:    4000                                           BANK
000205:
000206:    5544     0061                                  EBANK=   ITEMP1
000207:
000208:    5544                                           COUNT*   $$/TRAN
000209:
000210:    5544           00004        GENTRAN            INHINT
000211:    5545           54061                           TS       ITEMP1                                #  SAVE N-1.
000212:    5546           50002                           INDEX    Q                                     #  C(Q) = ADRES L.
000213:    5547           60000                           AD       0                                     #  ADRES (L + N - 1).
000214:    5550           50000                           INDEX    A
000215:    5551           30000                           CA       0                                     #  C(ABOVE).
000216:    5552           54001                           TS       L                                     #  SAVE DATA.
000217:    5553           30061                           CA       ITEMP1
000218:    5554           50002                           INDEX    Q
000219:    5555           60001                           AD       1                                     #  ADRES (M + N - 1).
000220:    5556           50000                           INDEX    A
000221:    5557           22000                           LXCH     0                                     #  STUFF IT.
000222:    5560           10061                           CCS      ITEMP1                                #  LOOP UNTIL N-1 = 0.
000223:    5561           15545                           TCF      GENTRAN    +1
000224:    5562           16740                           TCF      Q+2                                   #  RETURN TO CALLER.
000225:


000227:                                                                                                  #  B5OFF   ZERO BIT 5 OF EXTVBACT, WHICH IS SET BY TESTXACT.
000228:                                                                                                  #           MAY BE USED AS NEEDED BY ANY EXTENDED VERB WHICH HAS DONE TESTXACT
000229:
000230:    5563                                           COUNT*   $$/EXTVB
000231:
000232:    5563           44747        B5OFF              CS       BIT5
000233:    5564           71044                           MASK     EXTVBACT
000234:    5565           55044                           TS       EXTVBACT
000235:    5566           05155                           TC       ENDOFJOB
000236:
000237:
000238:

End of include-file SERVICE_ROUTINES.agc.  Parent file is MAIN.agc


