
Source Code


000002:                                                                                                  ## Copyright:   Public domain.
000003:                                                                                                  ## Filename:    SPS_BACK-UP_RCS_CONTROL.agc
000004:                                                                                                  ## Purpose:     A section of LUM69 revision 2.
000005:                                                                                                  ##              It is part of the reconstructed source code for the flown
000006:                                                                                                  ##              version of the flight software for the Lunar Module's (LM)
000007:                                                                                                  ##              Apollo Guidance Computer (AGC) for Apollo 10. The code has
000008:                                                                                                  ##              been recreated from a copy of Luminary revsion 069, using
000009:                                                                                                  ##              changes present in Luminary 099 which were described in
000010:                                                                                                  ##              Luminary memos 75 and 78. The code has been adapted such
000011:                                                                                                  ##              that the resulting bugger words exactly match those specified
000012:                                                                                                  ##              for LUM69 revision 2 in NASA drawing 2021152B, which gives
000013:                                                                                                  ##              relatively high confidence that the reconstruction is correct.
000014:                                                                                                  ## Reference:   pp. 1500-1502
000015:                                                                                                  ## Assembler:   yaYUL
000016:                                                                                                  ## Contact:     Ron Burkey <info@sandroid.org>.
000017:                                                                                                  ## Website:     www.ibiblio.org/apollo/index.html
000018:                                                                                                  ## Mod history: 2019-07-27 MAS  Created from Luminary 69.
000019:


000021:                                                                                                  #  PROGRAM NAME:  SPSRCS
000022:
000023:                                                                                                  #  AUTHOR:  EDGAR M. OSHIKA (AC ELECTRONICS)
000024:
000025:                                                                                                  #  MODIFIED:  TO RETURN TO ALL AXES VIA Q BY P. S. WEISSMAN, OCT 7, 1968
000026:
000027:                                                                                                  #  FUNCTIONAL DESCRIPTION:
000028:
000029:                                                                                                  #  THIS PROGRAM CONTROLS THE FIRING OF ALL RCS JETS IN THE DOCKED CONFIGURATION ACCORDING TO THE FOLLOWING PHASE
000030:                                                                                                  #  PLANE LOGIC.
000031:
000032:                                                                                                  #  1.  OUTER RATE LIMIT (SPSRCS)
000033:
000034:                                                                                                  #  IF MAGNITUDE OF EDOT IS GREATER THAN 1.73 DEG/SEC SET JET FIRING TIME, TJ, TO REDUCE RATE AND THEN RETURN TO
000035:                                                                                                  #  CALLING PROGRAM (REQUESTING 4 JETS FOR P-AXIS).
000036:                                                                                                  #  OTHERWISE, CONTINUE.
000037:
000038:                                                                                                  #  2.  RATE DEAD BAND TEST ( JTONTEST)
000039:
000040:                                                                                                  #  IF JETS ARE FIRING NEGATIVE AND RATE IS GREATER THAN -0.101 DEG/SEC, LEAVE JETS ON AND RETURN,
000041:                                                                                                  #  IF JETS ARE FIRING POSITIVE AND RATE IS LESS THAN +0.101 DEG/SEC, LEAVE JETS ON AND RETURN, OTHERWISE CONTINUE.
000042:
000043:                                                                                                  #  3.  COASTING TEST (SPSSTART)
000044:
000045:                                                                                                  #  IF STATE (E,EDOT) IS BELOW LINE  E + 4 X EDOT > -1.4 DEG  AND EDOT IS LESS THAN 1.30 DEG/SEC SET JET TIME POSI-
000046:                                                                                                  #  TIVE AND RETURN,
000047:                                                                                                  #  IF STATE IS ABOVE LINE E + 4 X EDOT > +1.4 DEG AND EDOT IS GREATER THAN -1.30 DEG/SEC, SET JET TIME NEGATIVE
000048:                                                                                                  #  AND RETURN,
000049:                                                                                                  #  OTHERWISE, SET JET TIME ZERO AND RETURN.
000050:
000051:                                                                                                  #  THE MINIMUM PULSE WIDTH OF THIS CONTROLLER IS DETERMINED BY THE REPETITION  RATE AT WHICH THIS ROUTINE IS CALLED
000052:                                                                                                  #  AND IS NOMINALLY 100 MS FOR ALL AXES IN DRIFTING FLIGHT.   DURING POWERED FLIGHT THE MINIMUM IS 100 MS FOR THE
000053:                                                                                                  #  P AXIS AND 200 MS FOR THE CONTROL OF THE U AND V AXES.
000054:
000055:                                                                                                  #  CALLING SEQUENCE:
000056:
000057:                                                                                                  #           TC     SPSRCS          FROM Q,R AXES RCS AUTOPILOT
000058:                                                                                                  #                      INHINT                  FROM P-AXIS RCS AUTOPILOT
000059:                                                                                                  #                      TC      IBNKCALL
000060:                                                                                                  #                      CADR    SPSRCS
000061:
000062:
000063:                                                                                                  #  EXIT:
000064:
000065:                                                                                                  #           TC     Q
000066:                                                                                                  #  ALARM/ABORT MODE:    NONE
000067:
000068:                                                                                                  #  SUBROUTINES CALLED:    NONE
000069:
000070:                                                                                                  #  INPUT:      E, EDOT
000071:


000073:                                                                                                  #             TJP, TJV, TJU           TJ MUST NOT BE NEGATIVE ZERO
000074:
000075:                                                                                                  #  OUTPUT:    TJP, TJV, TJU
000076:                                                                                                  #             NUMBERT = 6,            WHEN RATE LIMITING P AXIS.
000077:
000078:
000079: 17,3700                                           BANK     17
000080: 17,2000                                           SETLOC   DAPS2
000081: 17,2000                                           BANK
000082:
000083: 17,3700                                           COUNT*   $$/DAPBU
000084:
000085: 17,3700  E6,1525                                  EBANK=   TJU
000086: 17,3700           31425        SPSRCS             CA       EDOT
000087: 17,3701           00006                           EXTEND
000088: 17,3702           74766                           MP       RATELIM1                              #  OUTER RATE LIMIT = 1.73 DEG/SEC
000089: 17,3703           00006                           EXTEND
000090: 17,3704           13717                           BZF      JTONTEST
000091:
000092: 17,3705           54001                           TS       L
000093: 17,3706           36241                           CA       SIX
000094: 17,3707           55741                           TS       NUMBERT
000095: 17,3710           10001                           CCS      L
000096: 17,3711           13753                           TCF      NEGTHRST
000097: 17,3712           05677                           TC       CCSHOLE                               #  **TEMP ** FILL WITH A CONSTANT
000098: 17,3713  17,3664               RATELIM2           =        .1AT4                                 #  = OCT 00632,  1.125 DEG/SEC
000099: 17,3713           34736        POSTHRST           CA       HALF
000100:
000101: 17,3714           51476                           NDX      AXISCTR
000102: 17,3715           55525                           TS       TJU
000103: 17,3716           00002                           TC       Q
000104:
000105: 17,3717           51476        JTONTEST           NDX      AXISCTR
000106: 17,3720           11525                           CCS      TJU
000107: 17,3721           13725                           TCF      +4
000108: 17,3722           13737                           TCF      SPSSTART
000109: 17,3723           31425                           CA       EDOT
000110: 17,3724           13726                           TCF      +2
000111:
000112: 17,3725           41425                 +4        CS       EDOT
000113: 17,3726           22000                           LXCH     A
000114: 17,3727           40111                           CS       DAPBOOLS                              #  IF DRIFTBIT = 1, USE ZERO TARGET RATE
000115: 17,3730           74744                           MASK     DRIFTBIT                              #  IF DRIFTBIT = 0, USE 0.10 RATE TARGET
000116: 17,3731           10000                           CCS      A
000117: 17,3732           34767                           CA       RATEDB1
000118: 17,3733           60001                           AD       L
000119: 17,3734           00006                           EXTEND
000120: 17,3735           63737                           BZMF     +2
000121: 17,3736           13716                           TCF      POSTHRST   +3
000122:


000124: 17,3737           31425        SPSSTART           CA       EDOT
000125: 17,3740           61750                           AD       E
000126: 17,3741           00006                           EXTEND
000127: 17,3742           71411                           MP       DKDB                                  #  PAD LOADED DEADBAND. FRESHSTART: 1.4 DEG
000128: 17,3743           00006                           EXTEND
000129: 17,3744           13761                           BZF      TJZERO
000130:
000131: 17,3745           00006                           EXTEND
000132: 17,3746           63755                           BZMF     +7
000133: 17,3747           31425                           CA       EDOT
000134: 17,3750           63664                           AD       RATELIM2
000135: 17,3751           00006                           EXTEND
000136: 17,3752           63761                           BZMF     TJZERO
000137: 17,3753           44736        NEGTHRST           CS       HALF
000138: 17,3754           13714                           TCF      POSTHRST   +1
000139: 17,3755           43664                 +7        CS       RATELIM2
000140: 17,3756           61425                           AD       EDOT
000141: 17,3757           00006                           EXTEND
000142: 17,3760           63713                           BZMF     POSTHRST
000143: 17,3761           34755        TJZERO             CA       ZERO
000144: 17,3762           13714                           TCF      POSTHRST   +1
000145:
000146:
000147: 17,3763     4766               RATELIM1           =        CALLCODE                              #  = 00032, CORRESPONDING TO 1.73 DEG/SEC
000148: 17,3763     4767               RATEDB1            =        TBUILDFX                              #   = 00045, CORRESPONDS TO 0.101 DEG/SEC

End of include-file SPS_BACK-UP_RCS_CONTROL.agc.  Parent file is MAIN.agc


