
Source Code


000002:                                                                                                  ## Copyright:   Public domain.
000003:                                                                                                  ## Filename:    STABLE_ORBIT_-_P38-P39.agc
000004:                                                                                                  ## Purpose:     A section of LUM69 revision 2.
000005:                                                                                                  ##              It is part of the reconstructed source code for the flown
000006:                                                                                                  ##              version of the flight software for the Lunar Module's (LM)
000007:                                                                                                  ##              Apollo Guidance Computer (AGC) for Apollo 10. The code has
000008:                                                                                                  ##              been recreated from a copy of Luminary revsion 069, using
000009:                                                                                                  ##              changes present in Luminary 099 which were described in
000010:                                                                                                  ##              Luminary memos 75 and 78. The code has been adapted such
000011:                                                                                                  ##              that the resulting bugger words exactly match those specified
000012:                                                                                                  ##              for LUM69 revision 2 in NASA drawing 2021152B, which gives
000013:                                                                                                  ##              relatively high confidence that the reconstruction is correct.
000014:                                                                                                  ## Reference:   pp. 731-738
000015:                                                                                                  ## Assembler:   yaYUL
000016:                                                                                                  ## Contact:     Ron Burkey <info@sandroid.org>.
000017:                                                                                                  ## Website:     www.ibiblio.org/apollo/index.html
000018:                                                                                                  ## Mod history: 2019-07-27 MAS  Created from Luminary 69.
000019:


000021:                                                                                                  #  STABLE ORBIT RENDEZVOUS PROGRAMS (P38 AND P78)
000022:
000023:                                                                                                  #  MOD NO -1             LOG SECTION - STABLE ORBIT - P38-P39
000024:                                                                                                  #  MOD BY RUDNICKI.S     DATE 25JAN68
000025:
000026:                                                                                                  #  FUNCTIONAL DESCRIPTION
000027:
000028:                                                                                                  #        P38 AND P78 CALCULATE THE REQUIRED DELTA V AND OTHER INITIAL
000029:                                                                                                  #        CONDITIONS REQUIRED BY THE AGC TO (1) PUT THE ACTIVE VEHICLE
000030:                                                                                                  #        ON A TRANSFER TRAJECTORY THAT INTERCEPTS THE PASSIVE VEHICLE
000031:                                                                                                  #        ORBIT A GIVEN DISTANCE, DELTA R, EITHER AHEAD OF OR BEHIND THE
000032:                                                                                                  #        PASSIVE VEHICLE AND (2) ACTUALLY PLACE THE ACTIVE VEHICLE IN THE
000033:                                                                                                  #        PASSIVE VEHICLE ORBIT WITH A DELTA R SEPARATION BETWEEN THE TWO
000034:                                                                                                  #        VEHICLES
000035:
000036:                                                                                                  #  CALLING SEQUENCE
000037:
000038:                                                                                                  #        ASTRONAUT REQUEST THRU DSKY
000039:
000040:                                                                                                  #        V37E38E         IF THIS VEHICLE IS ACTIVE VEHICLE
000041:                                                                                                  #        V37E78E         IF OTHER VEHICLE IS ACTIVE VEHICLE
000042:
000043:                                                                                                  #  INPUT
000044:
000045:                                                                                                  #        (1)     SOI MANEUVER
000046:
000047:                                                                                                  #                (A)  TIG        TIME OF SOI MANEUVER
000048:                                                                                                  #                (B)  CENTANG    ORBITAL CENTRAL ANGLE OF THE PASSIVE VEHICLE
000049:                                                                                                  #                                DURING TRANSFER FROM TIG TO TIME OF INTERCEPT
000050:                                                                                                  #                (C)  DELTAR     THE DESIRED SEPARATION OF THE TWO VEHICLES
000051:                                                                                                  #                                SPECIFIED AS A DISTANCE ALONG THE PASSIVE VEHICLE
000052:                                                                                                  #                                ORBIT
000053:                                                                                                  #                (D)  OPTION     EQUALS 1 FOR SOI
000054:
000055:                                                                                                  #        (2)     SOR MANEUVER
000056:
000057:                                                                                                  #                (A)  TIG        TIME OF SOR MANEUVER
000058:                                                                                                  #                (B)  CENTANG    AN OPTIONAL RESPECIFICATION OF 1 (B) ABOVE
000059:                                                                                                  #                (C)  OPTION     EQUALS 2 FOR SOR
000060:                                                                                                  #                (D)  DELTTIME   THE TIME REQUIRED TO TRAVERSE DELTA R WHEN
000061:                                                                                                  #                                TRAVELING AT A VELOCITY EQUAL TO THE HORIZONTAL
000062:                                                                                                  #                                VELOCITY OF THE PASSIVE VEHICLE - SAVED FROM
000063:                                                                                                  #                                SOI PHASE
000064:                                                                                                  #                (E)  TINT       TIME OF INTERCEPT (SOI) - SAVED FROM SOI PHASE
000065:
000066:                                                                                                  #  OUTPUT
000067:
000068:                                                                                                  #        (1)  TRKMKCNT   NUMBER OF MARKS
000069:                                                                                                  #        (2)  TTOGO      TIME TO GO
000070:                                                                                                  #        (3)  +MGA       MIDDLE GIMBAL ANGLE


000072:                                                                                                  #        (4)  DSPTEM1    TIME OF INTERCEPT OF PASSIVE VEHICLE ORBIT
000073:                                                                                                  #                        (FOR SOI ONLY)
000074:                                                                                                  #        (5)  POSTTPI    PERIGEE ALTITUDE OF ACTIVE VEHICLE ORBIT AFTER
000075:                                                                                                  #                        THE SOI (SOR) MANEUVER
000076:                                                                                                  #        (6)  DELVTPI    MAGNITUDE OF DELTA V AT SOI (SOR) TIME
000077:                                                                                                  #        (7)  DELVTPF    MAGNITUDE OF DELTA V AT INTERCEPT TIME
000078:                                                                                                  #        (8)  DELVLVC    DELTA VELOCITY AT SOI (AND SOR) - LOCAL VERTICAL
000079:                                                                                                  #                        COORDINATES
000080:
000081:                                                                                                  #  SUBROUTINES USED
000082:
000083:                                                                                                  #        AVFLAGA
000084:                                                                                                  #        AVFLAGP
000085:                                                                                                  #        VNDSPLY
000086:                                                                                                  #        BANKCALL
000087:                                                                                                  #        GOFLASHR
000088:                                                                                                  #        GOTOPOOH
000089:                                                                                                  #        BLANKET
000090:                                                                                                  #        ENDOFJOB
000091:                                                                                                  #        PREC/TT
000092:                                                                                                  #        SELECTMU
000093:                                                                                                  #        INTRPVP
000094:                                                                                                  #        MAINRTNE
000095:
000096: 04,2750                                           BANK     04
000097: 34,2000                                           SETLOC   STBLEORB
000098: 34,2000                                           BANK
000099:
000100: 34,3271  E7,1466                                  EBANK=   SUBEXIT
000101: 34,3271                                           COUNT*   $$/P3879
000102:
000103: 34,3271           04616        P38                TC       BANKCALL
000104: 34,3272           72313                           CADR     AVFLAGA                               #  THIS VEHICLE ACTIVE
000105: 34,3273           03276                           TC       +3
000106: 34,3274           04616        P78                TC       BANKCALL
000107: 34,3275           72320                           CADR     AVFLAGP                               #  OTHER VEHICLE ACTIVE
000108: 34,3276           04616                           TC       BANKCALL
000109: 34,3277           72325                           CADR     P20FLGON                              #  SET UPDATFLG, TRACKFLG
000110: 34,3300           33630                           CAF      V06N33SR                              #  DISPLAY TIG
000111: 34,3301           03617                           TC       VNDSPLY
000112: 34,3302           33631                           CAF      V06N55SR                              #  DISPLAY CENTANG
000113: 34,3303           04616                           TCR      BANKCALL
000114: 34,3304           20510                           CADR     GOFLASHR
000115: 34,3305           16001                           TCF      GOTOPOOH                              #  TERMINATE
000116: 34,3306           13313                           TCF      +5                                    #  PROCEED
000117: 34,3307           13302                           TCF      -5                                    #  RECYCLE
000118: 34,3310           36244                           CAF      THREE                                 #  IMMEDIATE RETURN - BLANK R1, R2
000119: 34,3311           05464                           TCR      BLANKET
000120: 34,3312           15155                           TCF      ENDOFJOB
000121: 34,3313           34756                           CAF      FIVE


000123: 34,3314           55144                           TS       OPTION1
000124: 34,3315           34753                           CAF      ONE
000125: 34,3316           55145                           TS       OPTION2                               #  OPTION CODE IS SET TO 1
000126: 34,3317           33632                           CAF      V04N06SR                              #  DISPLAY OPTION CODE - 1 = SOI, 2 = SOR
000127: 34,3320           04616                           TCR      BANKCALL
000128: 34,3321           20510                           CADR     GOFLASHR
000129: 34,3322           16001                           TCF      GOTOPOOH                              #  TERMINATE
000130: 34,3323           13330                           TCF      +5                                    #  PROCEED
000131: 34,3324           13317                           TCF      -5                                    #  RECYCLE
000132: 34,3325           34751                           CAF      BIT3                                  #  IMMEDIATE RETURN - BLANK R3
000133: 34,3326           05464                           TCR      BLANKET
000134: 34,3327           15155                           TCF      ENDOFJOB
000135: 34,3330           06036                           TC       INTPRET
000136: 34,3331           70535                           SLOAD    SR1
000137: 34,3332           01146                                    OPTION2
000138: 34,3333           71230                           BHIZ     DLOAD
000139: 34,3334           71342                                    OPTN1
000140: 34,3335           03627                                    TINT
000141: 34,3336           02307                           STORE    TINTSOI                               #  STORE FOR SOR PHASE
000142: 34,3337           77614                           CLRGO
000143: 34,3340           01230                                    OPTNSW                                #  OPTNSW; ON = SOI, OFF = SOR
000144: 34,3341           71373                                    JUNCTN1
000145: 34,3342           43014        OPTN1              SET      CLEAR                                 #  SOI
000146: 34,3343           01070                                    OPTNSW
000147: 34,3344           00670                                    UPDATFLG
000148: 34,3345           77624                           CALL
000149: 34,3346           71552                                    PREC/TT
000150: 34,3347           43015                           DAD      SET
000151: 34,3350           03440                                    TIG
000152: 34,3351           00470                                    UPDATFLG
000153: 34,3352           03627                           STORE    TINT                                  #  TI = TIG + TF
000154: 34,3353           77776                           EXIT
000155: 34,3354           33633                           CAF      V06N57SR                              #  DISPLAY DELTA R
000156: 34,3355           04616                           TCR      BANKCALL
000157: 34,3356           20510                           CADR     GOFLASHR
000158: 34,3357           16001                           TCF      GOTOPOOH                              #  TERMINATE
000159: 34,3360           13365                           TCF      +5                                    #  PROCEED
000160: 34,3361           13354                           TCF      -5                                    #  RECYCLE
000161: 34,3362           36241                           CAF      SIX                                   #  IMMEDIATE RETURN - BLANK R2, R3
000162: 34,3363           05464                           TCR      BLANKET
000163: 34,3364           15155                           TCF      ENDOFJOB
000164: 34,3365           00006                 +5        EXTEND
000165: 34,3366           31627                           DCA      TINT
000166: 34,3367           53046                           DXCH     DSPTEM1                               #  FOR DISPLAY
000167: 34,3370           33634                           CAF      V06N34SR                              #  DISPLAY TIME OF INTERCEPT
000168: 34,3371           03617                           TC       VNDSPLY
000169: 34,3372           06036                           TC       INTPRET
000170: 34,3373           45014        JUNCTN1            CLEAR    CALL
000171: 34,3374           04266                                    P39/79SW
000172: 34,3375           20041                                    SELECTMU                              #  SELECT MU, CLEAR FINALFLG, GO TO VN1645


000174: 34,3376           77624        RECYCLE            CALL
000175: 34,3377           71552                                    PREC/TT
000176: 34,3400           71214                           BOFF     DLOAD
000177: 34,3401           01350                                    OPTNSW
000178: 34,3402           71422                                    OPTN2
000179: 34,3403           03627                                    TINT
000180: 34,3404           34041                           STCALL   TDEC1                                 #  PRECISION UPDATE PASSIVE VEHICLE TO
000181: 34,3405           71603                                    INTRPVP                               #     INTERCEPT TIME
000182: 34,3406           53575                           VLOAD    UNIT
000183: 34,3407           00001                                    RATT                                  #  RP/(RP)
000184: 34,3410           47315                           PDVL     VXV
000185: 34,3411           00007                                    VATT
000186: 34,3412           60246                           ABVAL    NORM                                  #  (VP X RP/(RP))
000187: 34,3413           00047                                    X1
000188: 34,3414           56325                           PDDL     DDV
000189: 34,3415           02307                                    DELTAR
000190: 34,3416           77657                           SL*                                            #  DELTA R / (VP X RP/RP)
000191: 34,3417           20172                                    0          -7,1
000192: 34,3420           36311                           STCALL   DELTTIME                              #  DELTA T = (RP) DELTA R / (VP X RP)
000193: 34,3421           71426                                    JUNCTN2
000194: 34,3422           43345        OPTN2              DLOAD    DAD
000195: 34,3423           02307                                    TINTSOI
000196: 34,3424           00037                                    T
000197: 34,3425           03627                           STORE    TINT                                  #  TI = TI + TF
000198: 34,3426           45345        JUNCTN2            DLOAD    DSU
000199: 34,3427           03627                                    TINT
000200: 34,3430           02311                                    DELTTIME
000201: 34,3431           02313                           STORE    TARGTIME                              #  TT = TI - DELTA T
000202:
000203:                                                                                                  #  .... MAINRTNE ....
000204:
000205:                                                                                                  #  SUBROUTINES USED
000206:
000207:                                                                                                  #        S3435.25
000208:                                                                                                  #        PERIAPO1
000209:                                                                                                  #        SHIFTR1
000210:                                                                                                  #        VNDSPLY
000211:                                                                                                  #        BANKCALL
000212:                                                                                                  #        GOFLASH
000213:                                                                                                  #        GOTOPOOH
000214:                                                                                                  #        VN1645
000215:
000216: 34,3432           34041        MAINRTNE           STCALL   TDEC1                                 #  PRECISION UPDATE PASSIVE VEHICLE TO
000217: 34,3433           71603                                    INTRPVP                               #     TARGET TIME
000218: 34,3434           77745                           DLOAD
000219: 34,3435           03440                                    TIG
000220: 34,3436           03606                           STORE    INTIME
000221: 34,3437           77331                           SSP      VLOAD
000222: 34,3440           03467                                    SUBEXIT
000223: 34,3441           71445                                    TEST3979
000224: 34,3442           00001                                    RATT
000225: 34,3443           77624                           CALL


000227: 34,3444           73263                                    S3435.25
000228: 34,3445           43014        TEST3979           BOFF     BON
000229: 34,3446           04346                                    P39/79SW
000230: 34,3447           71456                                    MAINRTN1
000231: 34,3450           01311                                    FINALFLG
000232: 34,3451           71454                                    P39P79
000233: 34,3452           77614                           SET
000234: 34,3453           00470                                    UPDATFLG
000235: 34,3454           77776        P39P79             EXIT
000236: 34,3455           03503                           TC       DSPLY81                               #  FOR P39 AND P79
000237: 34,3456           51575        MAINRTN1           VLOAD    ABVAL
000238: 34,3457           03366                                    DELVEET3
000239: 34,3460           27574                           STOVL    DELVTPI                               #  DELTA V
000240: 34,3461           03504                                    VPASS4
000241: 34,3462           51451                           VSU      ABVAL
000242: 34,3463           03564                                    VTPRIME
000243: 34,3464           26354                           STOVL    DELVTPF                               #  DELTA V (FINAL) = V'T - VT
000244: 34,3465           03534                                    RACT3
000245: 34,3466           45115                           PDVL     CALL
000246: 34,3467           02343                                    VIPRIME
000247: 34,3470           46277                                    PERIAPO1                              #  GET PERIGEE ALTITUDE
000248: 34,3471           77624                           CALL
000249: 34,3472           46407                                    SHIFTR1
000250: 34,3473           03604                           STORE    POSTTPI
000251: 34,3474           43014                           BON      SET
000252: 34,3475           01311                                    FINALFLG
000253: 34,3476           71500                                    DSPLY58
000254: 34,3477           00470                                    UPDATFLG
000255: 34,3500           77776        DSPLY58            EXIT
000256: 34,3501           33635                           CAF      V06N58SR                              #  DISPLAY HP, DELTA V, DELTA V (FINAL)
000257: 34,3502           03617                           TC       VNDSPLY
000258: 34,3503           33636        DSPLY81            CAF      V06N81SR                              #  DISPLAY DELTA V (LV)
000259: 34,3504           03617                           TC       VNDSPLY
000260: 34,3505           06036                           TC       INTPRET
000261: 34,3506           77214                           CLEAR    VLOAD
000262: 34,3507           01267                                    XDELVFLG
000263: 34,3510           03366                                    DELVEET3
000264: 34,3511           37654                           STCALL   DELVSIN
000265: 34,3512           73542                                    VN1645                                #  DISPLAY TRKMKCNT, TTOGO, +MGA
000266: 34,3513           52014                           BON      GOTO
000267: 34,3514           04306                                    P39/79SW
000268: 34,3515           71537                                    P39/P79B
000269: 34,3516           71376                                    RECYCLE
000270:
000271:                                                                                                  #  STABLE ORBIT MIDCOURSE PROGRAM (P39 AND P79)
000272:
000273:                                                                                                  #  MOD NO -1             LOG SECTION - STABLE ORBIT - P38-P39
000274:                                                                                                  #  MOD BY RUDNICKI.S     DATE 25JAN68
000275:
000276:                                                                                                  #  FUNCTIONAL DESCRIPTION


000278:
000279:                                                                                                  #        P39 AND P79 CALCULATE THE REQUIRED DELTA V AND OTHER INITIAL
000280:                                                                                                  #        CONDITIONS REQUIRED BY THE AGC TO MAKE A MIDCOURSE CORRECTION
000281:                                                                                                  #        MANEUVER AFTER COMPLETING THE SOI MANEUVER BUT BEFORE MAKING
000282:                                                                                                  #        THE SOR MANEUVER
000283:
000284:                                                                                                  #  CALLING SEQUENCE
000285:
000286:                                                                                                  #        ASTRONAUT REQUEST THRU DSKY
000287:
000288:                                                                                                  #        V37E39E         IF THIS VEHICLE IS ACTIVE VEHICLE
000289:                                                                                                  #        V37E79E         IF OTHER VEHICLE IS ACTIVE VEHICLE
000290:
000291:                                                                                                  #  INPUT
000292:
000293:                                                                                                  #        (1)  TPASS4     TIME OF INTERCEPT - SAVED FROM P38/P78
000294:                                                                                                  #        (2)  TARGTIME   TIME THAT PASSIVE VEHICLE IS AT INTERCEPT POINT -
000295:                                                                                                  #                        SAVED FROM P38/P78
000296:
000297:                                                                                                  #  OUTPUT
000298:
000299:                                                                                                  #        (1)  TRKMKCNT   NUMBER OF MARKS
000300:                                                                                                  #        (2)  TTOGO      TIME TO GO
000301:                                                                                                  #        (3)  +MGA       MIDDLE GIMBAL ANGLE
000302:                                                                                                  #        (4)  DELVLVC    DELTA VELOCITY AT MID - LOCAL VERTICAL COORDINATES
000303:
000304:                                                                                                  #  SUBROUTINES USED
000305:
000306:                                                                                                  #        AVFLAGA
000307:                                                                                                  #        AVFLAGP
000308:                                                                                                  #        LOADTIME
000309:                                                                                                  #        SELECTMU
000310:                                                                                                  #        PRECSET
000311:                                                                                                  #        S34/35.1
000312:                                                                                                  #        MAINRTNE
000313:
000314: 34,3517           04616        P39                TC       BANKCALL
000315: 34,3520           72313                           CADR     AVFLAGA                               #  THIS VEHICLE ACTIVE
000316: 34,3521           00006                           EXTEND
000317: 34,3522           31401                           DCA      ATIGINC
000318: 34,3523           03530                           TC       P39/P79A
000319: 34,3524           04616        P79                TC       BANKCALL
000320: 34,3525           72320                           CADR     AVFLAGP                               #  OTHER VEHICLE ACTIVE
000321: 34,3526           00006                           EXTEND
000322: 34,3527           31403                           DCA      PTIGINC
000323: 34,3530           53574        P39/P79A           DXCH     KT                                    #  TIME TO PREPARE FOR BURN
000324: 34,3531           04616                           TC       BANKCALL
000325: 34,3532           72325                           CADR     P20FLGON                              #  SET UPDATFLG, TRACKFLG
000326: 34,3533           06036                           TC       INTPRET
000327: 34,3534           45014                           SET      CALL
000328: 34,3535           04066                                    P39/79SW


000330: 34,3536           20041                                    SELECTMU                              #  SELECT MU, CLEAR FINALFLG, GO TO VN1645
000331: 34,3537           43234        P39/P79B           RTB      DAD
000332: 34,3540           21462                                    LOADTIME
000333: 34,3541           03574                                    KT
000334: 34,3542           03440                           STORE    TIG                                   #  TIG = T (PRESENT) + PREPARATION TIME
000335: 34,3543           34041                           STCALL   TDEC1                                 #  PRECISION UPDATE ACTIVE AND PASSIVE
000336: 34,3544           46341                                    PRECSET                               #     VEHICLES TO TIG
000337: 34,3545           77624                           CALL
000338: 34,3546           73236                                    S34/35.1                              #  GET UNIT NORMAL
000339: 34,3547           52145                           DLOAD    GOTO
000340: 34,3550           02313                                    TARGTIME
000341: 34,3551           71432                                    MAINRTNE                              #  CALCULATE DELTA V AND DELTA V (LV)
000342:
000343:                                                                                                  #  .... PREC/TT ....
000344:                                                                                                  #  SUBROUTINES USED
000345:
000346:                                                                                                  #        PRECSET
000347:                                                                                                  #        TIMETHET
000348:                                                                                                  #        S34/35.1
000349:
000350: 34,3552           71220        PREC/TT            STQ      DLOAD
000351: 34,3553           03463                                    RTRN
000352: 34,3554           03440                                    TIG
000353: 34,3555           34041                           STCALL   TDEC1                                 #  PRECISION UPDATE ACTIVE AND PASSIVE
000354: 34,3556           46341                                    PRECSET                               #     VEHICLES TO TIG
000355: 34,3557           53775                           VLOAD    VSR*
000356: 34,3560           03550                                    RPASS3
000357: 34,3561           57176                                    0,2
000358: 34,3562           16655                           STODL    RVEC
000359: 34,3563           03617                                    CENTANG
000360: 34,3564           71406                           PUSH     COS
000361: 34,3565           16732                           STODL    CSTH
000362: 34,3566           43156                           SIN      SET
000363: 34,3567           03466                                    RVSW
000364: 34,3570           26730                           STOVL    SNTH
000365: 34,3571           03556                                    VPASS3
000366: 34,3572           77657                           VSR*
000367: 34,3573           57176                                    0,2
000368: 34,3574           36744                           STCALL   VVEC                                  #  GET TRANSFER TIME BASED ON CENTANG OF
000369: 34,3575           24745                                    TIMETHET                              #     PASSIVE VEHICLE
000370: 34,3576           77624                           CALL
000371: 34,3577           73236                                    S34/35.1                              #  GET UNIT NORMAL
000372: 34,3600           52145                           DLOAD    GOTO
000373: 34,3601           00037                                    T
000374: 34,3602           03463                                    RTRN
000375:
000376:                                                                                                  #  .... INTRPVP ....
000377:                                                                                                  #  SUBROUTINES USED
000378:
000379:                                                                                                  #        CSMPREC
000380:                                                                                                  #        LEMPREC


000382: 34,3603           43020        INTRPVP            STQ      BOFF                                  #  PRECISION UPDATE PASSIVE VEHICLE TO
000383: 34,3604           03463                                    RTRN                                  #     TDEC1
000384: 34,3605           01352                                    AVFLAG
000385: 34,3606           71613                                    OTHERV
000386: 34,3607           77624                           CALL
000387: 34,3610           27043                                    CSMPREC
000388: 34,3611           77650                           GOTO
000389: 34,3612           03463                                    RTRN
000390: 34,3613           77624        OTHERV             CALL
000391: 34,3614           27057                                    LEMPREC
000392: 34,3615           77650                           GOTO
000393: 34,3616           03463                                    RTRN
000394:
000395:                                                                                                  #  .... VNDSPLY ....
000396:                                                                                                  #  SUBROUTINES USED
000397:
000398:                                                                                                  #        BANKCALL
000399:                                                                                                  #        GOFLASH
000400:                                                                                                  #        GOTOPOOH
000401:
000402: 34,3617           00006        VNDSPLY            EXTEND                                         #  FLASH DISPLAY
000403: 34,3620           23463                           QXCH     RTRN
000404: 34,3621           55613                           TS       VERBNOUN
000405: 34,3622           31613                           CA       VERBNOUN
000406: 34,3623           04616                           TCR      BANKCALL
000407: 34,3624           20351                           CADR     GOFLASH
000408: 34,3625           16001                           TCF      GOTOPOOH                              #  TERMINATE
000409: 34,3626           01463                           TC       RTRN                                  #  PROCEED
000410: 34,3627           13622                           TCF      -5                                    #  RECYCLE
000411: 34,3630           01441        V06N33SR           VN       0633
000412: 34,3631           01467        V06N55SR           VN       0655
000413: 34,3632           01006        V04N06SR           VN       0406
000414: 34,3633           01471        V06N57SR           VN       0657
000415: 34,3634           01442        V06N34SR           VN       0634
000416: 34,3635           01472        V06N58SR           VN       0658
000417: 34,3636           01521        V06N81SR           VN       0681
000418:
000419:
000420:

End of include-file STABLE_ORBIT_-_P38-P39.agc.  Parent file is MAIN.agc


