
Source Code


000002:                                                                                                  ## Copyright:   Public domain.
000003:                                                                                                  ## Filename:    T6-RUPT_PROGRAMS.agc
000004:                                                                                                  ## Purpose:     A section of LUM69 revision 2.
000005:                                                                                                  ##              It is part of the reconstructed source code for the flown
000006:                                                                                                  ##              version of the flight software for the Lunar Module's (LM)
000007:                                                                                                  ##              Apollo Guidance Computer (AGC) for Apollo 10. The code has
000008:                                                                                                  ##              been recreated from a copy of Luminary revsion 069, using
000009:                                                                                                  ##              changes present in Luminary 099 which were described in
000010:                                                                                                  ##              Luminary memos 75 and 78. The code has been adapted such
000011:                                                                                                  ##              that the resulting bugger words exactly match those specified
000012:                                                                                                  ##              for LUM69 revision 2 in NASA drawing 2021152B, which gives
000013:                                                                                                  ##              relatively high confidence that the reconstruction is correct.
000014:                                                                                                  ## Reference:   pp. 1398-1400
000015:                                                                                                  ## Assembler:   yaYUL
000016:                                                                                                  ## Contact:     Ron Burkey <info@sandroid.org>.
000017:                                                                                                  ## Website:     www.ibiblio.org/apollo/index.html
000018:                                                                                                  ## Mod history: 2019-07-27 MAS  Created from Luminary 69.
000019:


000021:                                                                                                  #  PROGRAM NAMES:        (1) T6JOBCHK    MOD. NO. 5      OCTOBER 2, 1967
000022:                                                                                                  #                        (2) DOT6RUPT
000023:                                                                                                  #  MODIFICATION BY:      LOWELL G HULL (A.C.ELECTRONICS)
000024:
000025:                                                                                                  #  THESE PROGRAMS ENABLE THE LM DAP TO CONTROL THE THRUST TIMES OF THE REACTION CONTROL SYSTEM JETS BY USING TIME6.
000026:                                                                                                  #  SINCE THE LM DAP MAINTAINS EXCLUSIVE CONTROL OVER TIME6 AND ITS INTERRUPTS, THE FOLLOWING CONVENTIONS HAVE BEEN
000027:                                                                                                  #  ESTABLISHED AND MUST NOT BE TAMPERED WITH:
000028:                                                                                                  #        1.      NO NUMBER IS EVER PLACED INTO TIME6 EXCEPT BY LM DAP.
000029:                                                                                                  #        2.      NO PROGRAM OTHER THAN LM DAP ENABLES THE TIME6 COUNTER.
000030:                                                                                                  #        3.      TO USE TIME6, THE FOLLOWING SEQUENCE IS ALWAYS EMPLOYED:
000031:                                                                                                  #                A.      A POSITIVE (NON-ZERO) NUMBER IS STORED IN TIME6.
000032:                                                                                                  #                B.      THE TIME6 CLOCK IS ENABLED.
000033:                                                                                                  #                C.      TIME6 IS INTERROGATED AND IS:
000034:                                                                                                  #                        I.      NEVER FOUND NEGATIVE (NON-ZERO) OR +0.
000035:                                                                                                  #                        II.     SOMETIMES FOUND POSITIVE (BETWEEN 1 AND 240D) INDICATING THAT IT IS ACTIVE.
000036:                                                                                                  #                        III.    SOMETIMES FOUND POSMAX INDICATING THAT IT IS INACTIVE AND NOT ENABLED.
000037:                                                                                                  #                        IV.     SOMETIMES FOUND NEGATIVE ZERO INDICATING THAT:
000038:                                                                                                  #                                A.      A T6RUPT IS ABOUT TO OCCUR AT THE NEXT DINC, OR
000039:                                                                                                  #                                B.      A T6RUPT IS WAITING IN THE PRIORITY CHAIN, OR
000040:                                                                                                  #                                C.      A T6RUPT IS IN PROCESS NOW.
000041:                                                                                                  #        4)      ALL PROGRAMS WHICH OPERATE IN EITHER INTERRUPT MODE OR WITH INTERRUPT INHIBITED MUST CALL T6JOBCHK
000042:                                                                                                  #                EVERY 5 MILLISECONDS TO PROCESS A POSSIBLE WAITING T6RUPT BEFORE IT CAN BE HONORED BY THE HARDWARE.
000043:                                                                                                  #       (5.      PROGRAM JTLST, IN Q,R-AXES, HANDLES THE INPUT LIST.)
000044:
000045:                                                                                                  #  T6JOBCHK CALLING SEQUENCE:
000046:                                                                                                  #                L       TC      T6JOBCHK
000047:                                                                                                  #                L+1     (RETURN)
000048:
000049:                                                                                                  #  DOT6RUPT CALLING SEQUENCE:
000050:                                                                                                  #                        DXCH    ARUPT           T6RUPT LEAD IN AT LOCATION 4004.
000051:                                                                                                  #                        EXTEND
000052:                                                                                                  #                        DCA     T6ADR
000053:                                                                                                  #                        DTCB
000054:
000055:                                                                                                  #  SUBROUTINES CALLED:   DOT6RUPT CALLS T6JOBCHK.
000056:
000057:                                                                                                  #  NORMAL EXIT MODES:    T6JOBCHK RETURNS TO L +1.
000058:                                                                                                  #                        DOT6RUPT TRANSFERS CONTROL TO RESUME.
000059:
000060:                                                                                                  #  ALARM/ABORT MODES:    NONE.
000061:
000062:                                                                                                  #  INPUT:        TIME6           NXT6ADR         OUTPUT:         TIME6           NXT6ADR         CHANNEL 5
000063:                                                                                                  #                T6NEXT          T6NEXT +1                       T6NEXT          T6NEXT +1       CHANNEL 6
000064:                                                                                                  #                T6FURTHA        T6FURTHA +1                     T6FURTHA        T6FURTHA +1     BIT15/CH13
000065:
000066:                                                                                                  #  DEBRIS:       T6JOBCHK CLOBBERS A.  DOT6RUPT CLOBBERS NOTHING.
000067:
000068:    5744                                           BLOCK    02


000070: 17,2000                                           BANK     17
000071: 17,2000                                           SETLOC   DAPS2
000072: 17,2000                                           BANK
000073: 17,2000  E6,1464                                  EBANK=   T6NEXT
000074: 17,2000                                           COUNT*   $$/DAPT6
000075:
000076: 17,2000           10031        T6JOBCHK           CCS      TIME6                                 #  CHECK TIME6 FOR WAITING T6RUPT:
000077: 17,2001           00002                           TC       Q                                     #  NONE: CLOCK COUTING DOWN.
000078: 17,2002           05677                           TC       CCSHOLE
000079: 17,2003           02003                           TC       T6JOBCHK   +3
000080:
000081:                                                                                                  #  CONTROL PASSES TO T6JOB ONLY WHEN C(TIME6) = -0 (I.E. WHEN A T6RUPT MUST BE PROCESSED).
000082:
000083: 17,2004           34733        T6JOB              CAF      POSMAX                                #  DISABLE CLOCK: NEEDED SINCE RUPT OCCURS
000084: 17,2005           00006                           EXTEND                                         #  1 DINC AFTER T6 = 77777. FOR 625 MUSECS
000085: 17,2006           03013                           WAND     CHAN13                                #  MUST NOT HAVE T6 = +0 WITH ENABLE SET
000086:
000087: 17,2007           34733                           CA       POSMAX
000088: 17,2010           22007                           ZL
000089: 17,2011           53467                           DXCH     T6FURTHA
000090: 17,2012           53465                           DXCH     T6NEXT
000091: 17,2013           23463                           LXCH     NXT6ADR
000092: 17,2014           54031                           TS       TIME6
000093:
000094: 17,2015           67724                           AD       PRIO37
000095: 17,2016           54000                           TS       A
000096: 17,2017           12023                           TCF      ENABLET6
000097: 17,2020           34733                           CA       POSMAX
000098: 17,2021           54031                           TS       TIME6
000099: 17,2022           12034                           TCF      GOCH56
000100: 17,2023           34735        ENABLET6           CA       BIT15
000101: 17,2024           00006                           EXTEND
000102: 17,2025           05013                           WOR      CHAN13
000103: 17,2026           31464                           CA       T6NEXT
000104: 17,2027           67724                           AD       PRIO37
000105: 17,2030           54000                           TS       A
000106: 17,2031           12034                           TCF      GOCH56
000107: 17,2032           34733                           CA       POSMAX
000108: 17,2033           55464                           TS       T6NEXT
000109: 17,2034           50001        GOCH56             INDEX    L
000110: 17,2035           15744                           TCF      WRITEP     -1
000111:
000112:    5744                                           BLOCK    02
000113:    4000                                           SETLOC   FFTAG9
000114:    4000                                           BANK
000115:    5744  E6,1633                                  EBANK=   CDUXD
000116:    5744                                           COUNT*   $$/DAPT6
000117:
000118:    5744           31470                           CA       NEXTP
000119:    5745           00006        WRITEP             EXTEND
000120:    5746           01006                           WRITE    CHAN6


000122:    5747           00002                           TC       Q
000123:
000124:    5750           31471                           CA       NEXTU
000125:    5751           54001        WRITEU             TS       L
000126:    5752           45765                           CS       00314OCT
000127:    5753           00006                           EXTEND
000128:    5754           02005                           RAND     CHAN5
000129:    5755           60001                           AD       L
000130:    5756           00006                           EXTEND
000131:    5757           01005                           WRITE    CHAN5
000132:    5760           00002                           TC       Q
000133:
000134:    5761           31472                           CA       NEXTV
000135:    5762           54001        WRITEV             TS       L
000136:    5763           35765                           CA       00314OCT
000137:    5764           15753                           TCF      -9D
000138:    5765           00314        00314OCT           OCT      00314
000139:
000140: 17,2036                                           BANK     17
000141: 17,2000                                           SETLOC   DAPS2
000142: 17,2000                                           BANK
000143:
000144: 17,2036  E6,1464                                  EBANK=   T6NEXT
000145: 17,2036                                           COUNT*   $$/DAPT6
000146:
000147: 17,2036           22016        DOT6RUPT           LXCH     BANKRUPT                              #  (INTERRUPT LEAD INS CONTINUED)
000148: 17,2037           00006                           EXTEND
000149: 17,2040           22012                           QXCH     QRUPT
000150:
000151: 17,2041           02000                           TC       T6JOBCHK                              #  CALL T6JOBCHK.
000152:
000153: 17,2042           15270                           TCF      RESUME                                #  END TIME6 INTERRUPT PROCESSOR.
000154:

End of include-file T6-RUPT_PROGRAMS.agc.  Parent file is MAIN.agc


