
Source Code


000002:                                                                                                  ## Copyright:   Public domain.
000003:                                                                                                  ## Filename:    TAGS_FOR_RELATIVE_SETLOC_AND_BLANK_BANK_CARDS.agc
000004:                                                                                                  ## Purpose:     A section of LUM69 revision 2.
000005:                                                                                                  ##              It is part of the reconstructed source code for the flown
000006:                                                                                                  ##              version of the flight software for the Lunar Module's (LM)
000007:                                                                                                  ##              Apollo Guidance Computer (AGC) for Apollo 10. The code has
000008:                                                                                                  ##              been recreated from a copy of Luminary revsion 069, using
000009:                                                                                                  ##              changes present in Luminary 099 which were described in
000010:                                                                                                  ##              Luminary memos 75 and 78. The code has been adapted such
000011:                                                                                                  ##              that the resulting bugger words exactly match those specified
000012:                                                                                                  ##              for LUM69 revision 2 in NASA drawing 2021152B, which gives
000013:                                                                                                  ##              relatively high confidence that the reconstruction is correct.
000014:                                                                                                  ## Reference:   pp. 27-36
000015:                                                                                                  ## Assembler:   yaYUL
000016:                                                                                                  ## Contact:     Ron Burkey <info@sandroid.org>.
000017:                                                                                                  ## Website:     www.ibiblio.org/apollo/index.html
000018:                                                                                                  ## Mod history: 2019-07-27 MAS  Created from Luminary 69.
000019:                                                                                                  ##              2019-07-27 MAS  Added tag for LUM69 rev 2 lunar potential code.
000020:                                                                                                  ##              2020-12-14 RSB  Tweaked the annotation relevant to the
000021:                                                                                                  ##                              change mentioned above to conform to the
000022:                                                                                                  ##                              style and extent of similar justifying
000023:                                                                                                  ##                              annotations previously added to
000024:                                                                                                  ##                              Comanche 44 and 51.
000025:


000027: ???????                                           COUNT    BANKSUM
000028:
000029:                                                                                                  #  MODULE 1 CONTAINS BANKS 0 THROUGH 5
000030:
000031:    4000                                           BLOCK    02
000032:    4000                        RADARFF            EQUALS
000033:    4000                        FFTAG1             EQUALS
000034:    4000                        FFTAG2             EQUALS
000035:    4000                        FFTAG3             EQUALS
000036:    4000                        FFTAG4             EQUALS
000037:    4000                        FFTAG7             EQUALS
000038:    4000                        FFTAG8             EQUALS
000039:    4000                        FFTAG9             EQUALS
000040:    4000                        FFTAG10            EQUALS
000041:    4000                        FFTAG11            EQUALS
000042:    4000                        FFTAG12            EQUALS
000043:    4000                        FFTAG13            EQUALS
000044:    4000                                           BNKSUM   02
000045:
000046:
000047:    6000                                           BLOCK    03
000048:    6000                        FFTAG5             EQUALS
000049:    6000                        FFTAG6             EQUALS
000050:    6000                                           BNKSUM   03
000051:
000052:
000053: 00,2000                                           BANK     00
000054: 00,2000                        DLAYJOB            EQUALS
000055: 00,2000                                           BNKSUM   00
000056:
000057:
000058: 01,2000                                           BANK     01
000059: 01,2000                        RESTART            EQUALS
000060: 01,2000                        LOADDAP1           EQUALS
000061: 01,2000                                           BNKSUM   01
000062:
000063:
000064: 04,2000                                           BANK     04
000065: 04,2000                        R02                EQUALS
000066: 04,2000                        VERB37             EQUALS
000067: 04,2000                        PINBALL4           EQUALS
000068: 04,2000                        CONICS1            EQUALS
000069: 04,2000                        KEYRUPT            EQUALS
000070: 04,2000                        R36LM              EQUALS
000071: 04,2000                        UPDATE2            EQUALS
000072: 04,2000                        E/PROG             EQUALS
000073: 04,2000                                           BNKSUM   04
000074:
000075:


000077: 05,2000                                           BANK     05
000078: 05,2000                        FRANDRES           EQUALS
000079: 05,2000                        DOWNTELM           EQUALS
000080: 05,2000                        AOTMARK2           EQUALS
000081: 05,2000                        EPHEM1             EQUALS
000082: 05,2000                                           BNKSUM   05
000083:
000084:
000085:                                                                                                  #  MODULE 2 CONTAINS BANKS 6 THROUGH 13
000086:
000087: 06,2000                                           BANK     06
000088: 06,2000                        IMUCOMP            EQUALS
000089: 06,2000                        T4RUP              EQUALS
000090: 06,2000                        RCSMONT            EQUALS
000091: 06,2000                                           BNKSUM   06
000092:
000093:
000094: 07,2000                                           BANK     07
000095: 07,2000                        AOTMARK1           EQUALS
000096: 07,2000                        MODESW             EQUALS
000097: 07,2000                                           BNKSUM   07
000098:
000099:
000100: 10,2000                                           BANK     10
000101: 10,2000                        RTBCODES           EQUALS
000102: 10,2000                        DISPLAYS           EQUALS
000103: 10,2000                        PHASETAB           EQUALS
000104: 10,2000                        MIDDGIM            EQUALS
000105: 10,2000                                           BNKSUM   10
000106:
000107:
000108: 11,2000                                           BANK     11
000109: 11,2000                        ORBITAL            EQUALS
000110: 11,2000                        ORBITAL1           EQUALS
000111: 11,2000                        INTVEL             EQUALS
000112: 11,2000                        INTPRET2           EQUALS


000129: 11,2000                        MODCHG1            EQUALS
000130: 11,2000                                           BNKSUM   11
000131:
000132:
000133: 12,2000                                           BANK     12
000134: 12,2000                        CONICS             EQUALS
000135: 12,2000                                           BNKSUM   12
000136:
000137:


000139: 13,2000                                           BANK     13
000140: 13,2000                        LATLONG            EQUALS
000141: 13,2000                        INTINIT            EQUALS
000142: 13,2000                        LEMGEOM            EQUALS
000143: 13,2000                        P76LOC             EQUALS
000144: 13,2000                        ORBITAL2           EQUALS
000145: 13,2000                                           BNKSUM   13
000146:
000147:


000149:                                                                                                  #  MODULE 3 CONTAINS BANKS 14 THROUGH 21
000150:
000151: 14,2000                                           BANK     14
000152: 14,2000                        P50S1              EQUALS
000153: 14,2000                        STARTAB            EQUALS
000154: 14,2000                                           BNKSUM   14
000155:
000156:
000157: 15,2000                                           BANK     15
000158: 15,2000                        P50S               EQUALS
000159: 15,2000                        EPHEM              EQUALS
000160: 15,2000                                           BNKSUM   15
000161:
000162:
000163: 16,2000                                           BANK     16
000164: 16,2000                        DAPS1              EQUALS
000165: 16,2000                                           BNKSUM   16
000166:
000167:
000168: 17,2000                                           BANK     17
000169: 17,2000                        DAPS2              EQUALS
000170: 17,2000                                           BNKSUM   17
000171:
000172:
000173: 20,2000                                           BANK     20
000174: 20,2000                        DAPS3              EQUALS
000175: 20,2000                        LOADDAP            EQUALS
000176: 20,2000                        RODTRAP            EQUALS
000177: 20,2000                                           BNKSUM   20
000178:
000179:
000180: 21,2000                                           BANK     21
000181: 21,2000                        DAPS4              EQUALS
000182: 21,2000                        F2DPS*21           EQUALS
000183: 21,2000                        R10                EQUALS
000184: 21,2000                        R11                EQUALS
000185: 21,2000                                           BNKSUM   21
000186:


000188:
000189:                                                                                                  #  MODULE 4 CONTAINS BANKS 22 THROUGH 27
000190:
000191: 22,2000                                           BANK     22
000192: 22,2000                        KALCMON1           EQUALS
000193: 22,2000                        KALCMON2           EQUALS
000194: 22,2000                        R30LOC             EQUALS
000195: 22,2000                        RENDEZ             EQUALS
000196: 22,2000                                           BNKSUM   22
000197:
000198:
000199: 23,2000                                           BANK     23
000200: 23,2000                        POWFLITE           EQUALS
000201: 23,2000                        POWFLIT1           EQUALS
000202: 23,2000                        INFLIGHT           EQUALS
000203: 23,2000                        APOPERI            EQUALS
000204: 23,2000                        R61                EQUALS
000205: 23,2000                        R62                EQUALS
000206: 23,2000                        INTPRET1           EQUALS
000207: 23,2000                        MEASINC            EQUALS
000208: 23,2000                        MEASINC1           EQUALS
000209: 23,2000                        EXTVB1             EQUALS
000210: 23,2000                                           BNKSUM   23
000211:
000212:
000213: 24,2000                                           BANK     24
000214: 24,2000                        PLANTIN            EQUALS
000215: 24,2000                        P20S               EQUALS
000216: 24,2000                                           BNKSUM   24
000217:
000218:
000219: 25,2000                                           BANK     25
000220: 25,2000                        P20S1              EQUALS
000221: 25,2000                        P20S2              EQUALS
000222: 25,2000                        RADARUPT           EQUALS
000223: 25,2000                        RRLEADIN           EQUALS
000224: 25,2000                        R29S1              EQUALS
000225: 25,2000                                           BNKSUM   25
000226:
000227:
000228: 26,2000                                           BANK     26
000229: 26,2000                        P20S3              EQUALS
000230: 26,2000                        BAWLANGS           EQUALS
000231: 26,2000                        MANUVER            EQUALS
000232: 26,2000                        MANUVER1           EQUALS
000233: 26,2000                        PLANTIN1           EQUALS
000234: 26,2000                                           BNKSUM   26
000235:
000236:


000238: 27,2000                                           BANK     27
000239: 27,2000                        TOF-FF             EQUALS
000240: 27,2000                        TOF-FF1            EQUALS
000241: 27,2000                        P40S1              EQUALS
000242: 27,2000                        VECPT              EQUALS
000243: 27,2000                        ASENT1             EQUALS
000244: 27,2000                                           BNKSUM   27
000245:
000246:


000248:                                                                                                  #  MODULE 5 CONTAINS BANKS 30 THROUGH 35
000249:
000250: 30,2000                                           BANK     30
000251: 30,2000                        LOWSUPER           EQUALS
000252: 30,2000                        P12                EQUALS
000253: 30,2000                        ASENT              EQUALS
000254: 30,2000                        FCDUW              EQUALS
000255: 30,2000                                           BNKSUM   30
000256:
000257:
000258: 31,2000                                           BANK     31
000259: 31,2000                        FTHROT             EQUALS
000260: 31,2000                        F2DPS*31           EQUALS
000261: 31,2000                        VB67               EQUALS
000262: 31,2000                                           BNKSUM   31
000263:
000264:
000265: 32,2000                                           BANK     32
000266: 32,2000                        P20S4              EQUALS
000267: 32,2000                        F2DPS*32           EQUALS
000268: 32,2000                        ABORTS             EQUALS
000269: 32,2000                        LRS22              EQUALS
000270: 32,2000                        FLOGSUB            EQUALS
000271: 32,2000                        SERV2              EQUALS
000272: 32,2000                        R47                EQUALS
000273: 32,2000                                           BNKSUM   32
000274:
000275:
000276: 33,2000                                           BANK     33
000277: 33,2000                        SERVICES           EQUALS
000278: 33,2000                        R29/SERV           EQUALS
000279: 33,2000                                           BNKSUM   33
000280:
000281:
000282: 34,2000                                           BANK     34
000283: 34,2000                        STBLEORB           EQUALS
000284: 34,2000                        P30S1              EQUALS
000285: 34,2000                        CSI/CDH1           EQUALS
000286: 34,2000                        ASCFILT            EQUALS
000287: 34,2000                        R12STUFF           EQUALS
000288: 34,2000                                           BNKSUM   34
000289:
000290:
000291: 35,2000                                           BANK     35
000292: 35,2000                        CSI/CDH            EQUALS
000293:


000295: 35,2000                        P30S               EQUALS
000296: 35,2000                        GLM                EQUALS
000297: 35,2000                        P40S2              EQUALS
000298: 35,2000                                           BNKSUM   35
000299:


000301:                                                                                                  #  MODULE 6 CONTAINS BANKS 36 THROUGH 43
000302:
000303: 36,2000                                           BANK     36
000304: 36,2000                        P40S               EQUALS
000305: 36,2000                                           BNKSUM   36
000306:
000307:
000308: 37,2000                                           BANK     37
000309: 37,2000                        P05P06             EQUALS
000310: 37,2000                        IMU2               EQUALS
000311: 37,2000                        IMU4               EQUALS
000312: 37,2000                        R31                EQUALS
000313: 37,2000                        IMUSUPER           EQUALS
000314: 37,2000                        SERV1              EQUALS
000315: 37,2000                                           BNKSUM   37
000316:
000317:
000318: 40,2000                                           BANK     40
000319: 40,2000                        PINBALL1           EQUALS
000320: 40,2000                        SELFSUPR           EQUALS
000321: 40,2000                        PINSUPER           EQUALS
000322: 40,2000                                           BNKSUM   40
000323:
000324:
000325: 41,2000                                           BANK     41
000326: 41,2000                        PINBALL2           EQUALS
000327: 41,2000                                           BNKSUM   41
000328:
000329:
000330: 42,2000                                           BANK     42
000331: 42,2000                        SBAND              EQUALS
000332: 42,2000                        PINBALL3           EQUALS
000333: 42,2000                                           BNKSUM   42
000334:
000335:
000336: 43,2000                                           BANK     43
000337: 43,2000                        EXTVERBS           EQUALS
000338: 43,2000                        SELFCHEC           EQUALS
000339:
000340: 43,2000                                           BNKSUM   43
000341:


000343:
000344: 43,2000  23,2423               HI6ZEROS           EQUALS   ZEROVECS                              #  ZERO VECTOR ALWAYS IN HIGH MEMORY
000345: 43,2000  11,2274               LO6ZEROS           EQUALS   ZEROVEC                               #  ZERO VECTOR ALWAYS IN LOW MEMORY
000346: 43,2000  23,2421               HIDPHALF           EQUALS   UNITX
000347: 43,2000  11,2272               LODPHALF           EQUALS   XUNIT
000348: 43,2000  23,2413               HIDP1/4            EQUALS   DP1/4TH
000349: 43,2000  04,2757               LODP1/4            EQUALS   D1/4                                  #  2DEC .25
000350: 43,2000  23,2421               HIUNITX            EQUALS   UNITX
000351: 43,2000  23,2417               HIUNITY            EQUALS   UNITY
000352: 43,2000  23,2415               HIUNITZ            EQUALS   UNITZ
000353: 43,2000  11,2272               LOUNITX            EQUALS   XUNIT                                 #  2DEC .5
000354: 43,2000  11,2270               LOUNITY            EQUALS   YUNIT                                 #  2DEC 0
000355: 43,2000  11,2266               LOUNITZ            EQUALS   ZUNIT                                 #  2DEC 0
000356:
000357:
000358:
000359: 43,2000  22,3541               DELRSPL            EQUALS   SPLRET                                #  COL PGM, ALSO CALLED BY R30 IN LUMINARY
000360:                                                                                                  #  ROPE-SPECIFIC ASSIGNS OBVIATING NEED TO CHECK COMPUTER FLAG IN           DETERMINING INTEGRATION AREA ENTRIES.
000361:
000362: 43,2000  13,2734               ATOPTHIS           EQUALS   ATOPLEM
000363: 43,2000  13,2661               ATOPOTH            EQUALS   ATOPCSM
000364: 43,2000  13,3043               OTHPREC            EQUALS   CSMPREC
000365: 43,2000  0000174               MOONTHIS           EQUALS   LMOONFLG
000366: 43,2000  0000173               MOONOTH            EQUALS   CMOONFLG
000367: 43,2000  13,2747               MOVATHIS           EQUALS   MOVEALEM
000368: 43,2000  11,2305               RMM                =        LODPMAX
000369: 43,2000  11,2307               RME                =        LODPMAX1
000370: 43,2000  13,3057               THISPREC           EQUALS   LEMPREC
000371: 43,2000  23,2415               THISAXIS           =        UNITZ
000372: 43,2000  23,2415               NB1NB2             EQUALS   THISAXIS                              #  FOR R31
000373: 43,2000     5011               ERASID             EQUALS   BITS2-10                              #  DOWNLINK ERASABLE DUMP ID
000374: 43,2000     4752               DELAYNUM           EQUALS   TWO

End of include-file TAGS_FOR_RELATIVE_SETLOC_AND_BLANK_BANK_CARDS.agc.  Parent file is MAIN.agc


