
Source Code


000002:                                                                                                  ## Copyright:   Public domain.
000003:                                                                                                  ## Filename:    TAGS_FOR_RELATIVE_SETLOC_AND_BLANK_BANK_CARDS.agc
000004:                                                                                                  ## Purpose:     A section of LUM69 revision 2.
000005:                                                                                                  ##              It is part of the reconstructed source code for the flown
000006:                                                                                                  ##              version of the flight software for the Lunar Module's (LM)
000007:                                                                                                  ##              Apollo Guidance Computer (AGC) for Apollo 10. The code has
000008:                                                                                                  ##              been recreated from a copy of Luminary revsion 069, using
000009:                                                                                                  ##              changes present in Luminary 099 which were described in
000010:                                                                                                  ##              Luminary memos 75 and 78. The code has been adapted such
000011:                                                                                                  ##              that the resulting bugger words exactly match those specified
000012:                                                                                                  ##              for LUM69 revision 2 in NASA drawing 2021152B, which gives
000013:                                                                                                  ##              relatively high confidence that the reconstruction is correct.
000014:                                                                                                  ## Reference:   pp. 27-36
000015:                                                                                                  ## Assembler:   yaYUL
000016:                                                                                                  ## Contact:     Ron Burkey <info@sandroid.org>.
000017:                                                                                                  ## Website:     www.ibiblio.org/apollo/index.html
000018:                                                                                                  ## Mod history: 2019-07-27 MAS  Created from Luminary 69.
000019:                                                                                                  ##              2019-07-27 MAS  Added tag for LUM69 rev 2 lunar potential code.
000020:


000022: ???????                                           COUNT    BANKSUM
000023:
000024:                                                                                                  #  MODULE 1 CONTAINS BANKS 0 THROUGH 5
000025:
000026:    4000                                           BLOCK    02
000027:    4000                        RADARFF            EQUALS
000028:    4000                        FFTAG1             EQUALS
000029:    4000                        FFTAG2             EQUALS
000030:    4000                        FFTAG3             EQUALS
000031:    4000                        FFTAG4             EQUALS
000032:    4000                        FFTAG7             EQUALS
000033:    4000                        FFTAG8             EQUALS
000034:    4000                        FFTAG9             EQUALS
000035:    4000                        FFTAG10            EQUALS
000036:    4000                        FFTAG11            EQUALS
000037:    4000                        FFTAG12            EQUALS
000038:    4000                        FFTAG13            EQUALS
000039:    4000                                           BNKSUM   02
000040:
000041:
000042:    6000                                           BLOCK    03
000043:    6000                        FFTAG5             EQUALS
000044:    6000                        FFTAG6             EQUALS
000045:    6000                                           BNKSUM   03
000046:
000047:
000048: 00,2000                                           BANK     00
000049: 00,2000                        DLAYJOB            EQUALS
000050: 00,2000                                           BNKSUM   00
000051:
000052:
000053: 01,2000                                           BANK     01
000054: 01,2000                        RESTART            EQUALS
000055: 01,2000                        LOADDAP1           EQUALS
000056: 01,2000                                           BNKSUM   01
000057:
000058:
000059: 04,2000                                           BANK     04
000060: 04,2000                        R02                EQUALS
000061: 04,2000                        VERB37             EQUALS
000062: 04,2000                        PINBALL4           EQUALS
000063: 04,2000                        CONICS1            EQUALS
000064: 04,2000                        KEYRUPT            EQUALS
000065: 04,2000                        R36LM              EQUALS
000066: 04,2000                        UPDATE2            EQUALS
000067: 04,2000                        E/PROG             EQUALS
000068: 04,2000                                           BNKSUM   04
000069:
000070:


000072: 05,2000                                           BANK     05
000073: 05,2000                        FRANDRES           EQUALS
000074: 05,2000                        DOWNTELM           EQUALS
000075: 05,2000                        AOTMARK2           EQUALS
000076: 05,2000                        EPHEM1             EQUALS
000077: 05,2000                                           BNKSUM   05
000078:
000079:
000080:                                                                                                  #  MODULE 2 CONTAINS BANKS 6 THROUGH 13
000081:
000082: 06,2000                                           BANK     06
000083: 06,2000                        IMUCOMP            EQUALS
000084: 06,2000                        T4RUP              EQUALS
000085: 06,2000                        RCSMONT            EQUALS
000086: 06,2000                                           BNKSUM   06
000087:
000088:
000089: 07,2000                                           BANK     07
000090: 07,2000                        AOTMARK1           EQUALS
000091: 07,2000                        MODESW             EQUALS
000092: 07,2000                                           BNKSUM   07
000093:
000094:
000095: 10,2000                                           BANK     10
000096: 10,2000                        RTBCODES           EQUALS
000097: 10,2000                        DISPLAYS           EQUALS
000098: 10,2000                        PHASETAB           EQUALS
000099: 10,2000                        MIDDGIM            EQUALS
000100: 10,2000                                           BNKSUM   10
000101:
000102:
000103: 11,2000                                           BANK     11
000104: 11,2000                        ORBITAL            EQUALS
000105: 11,2000                        ORBITAL1           EQUALS
000106: 11,2000                        INTVEL             EQUALS
000107: 11,2000                        INTPRET2           EQUALS


000111: 11,2000                        MODCHG1            EQUALS
000112: 11,2000                                           BNKSUM   11
000113:
000114:
000115: 12,2000                                           BANK     12
000116: 12,2000                        CONICS             EQUALS
000117: 12,2000                                           BNKSUM   12
000118:
000119:


000121: 13,2000                                           BANK     13
000122: 13,2000                        LATLONG            EQUALS
000123: 13,2000                        INTINIT            EQUALS
000124: 13,2000                        LEMGEOM            EQUALS
000125: 13,2000                        P76LOC             EQUALS
000126: 13,2000                        ORBITAL2           EQUALS
000127: 13,2000                                           BNKSUM   13
000128:
000129:


000131:                                                                                                  #  MODULE 3 CONTAINS BANKS 14 THROUGH 21
000132:
000133: 14,2000                                           BANK     14
000134: 14,2000                        P50S1              EQUALS
000135: 14,2000                        STARTAB            EQUALS
000136: 14,2000                                           BNKSUM   14
000137:
000138:
000139: 15,2000                                           BANK     15
000140: 15,2000                        P50S               EQUALS
000141: 15,2000                        EPHEM              EQUALS
000142: 15,2000                                           BNKSUM   15
000143:
000144:
000145: 16,2000                                           BANK     16
000146: 16,2000                        DAPS1              EQUALS
000147: 16,2000                                           BNKSUM   16
000148:
000149:
000150: 17,2000                                           BANK     17
000151: 17,2000                        DAPS2              EQUALS
000152: 17,2000                                           BNKSUM   17
000153:
000154:
000155: 20,2000                                           BANK     20
000156: 20,2000                        DAPS3              EQUALS
000157: 20,2000                        LOADDAP            EQUALS
000158: 20,2000                        RODTRAP            EQUALS
000159: 20,2000                                           BNKSUM   20
000160:
000161:
000162: 21,2000                                           BANK     21
000163: 21,2000                        DAPS4              EQUALS
000164: 21,2000                        F2DPS*21           EQUALS
000165: 21,2000                        R10                EQUALS
000166: 21,2000                        R11                EQUALS
000167: 21,2000                                           BNKSUM   21
000168:


000170:
000171:                                                                                                  #  MODULE 4 CONTAINS BANKS 22 THROUGH 27
000172:
000173: 22,2000                                           BANK     22
000174: 22,2000                        KALCMON1           EQUALS
000175: 22,2000                        KALCMON2           EQUALS
000176: 22,2000                        R30LOC             EQUALS
000177: 22,2000                        RENDEZ             EQUALS
000178: 22,2000                                           BNKSUM   22
000179:
000180:
000181: 23,2000                                           BANK     23
000182: 23,2000                        POWFLITE           EQUALS
000183: 23,2000                        POWFLIT1           EQUALS
000184: 23,2000                        INFLIGHT           EQUALS
000185: 23,2000                        APOPERI            EQUALS
000186: 23,2000                        R61                EQUALS
000187: 23,2000                        R62                EQUALS
000188: 23,2000                        INTPRET1           EQUALS
000189: 23,2000                        MEASINC            EQUALS
000190: 23,2000                        MEASINC1           EQUALS
000191: 23,2000                        EXTVB1             EQUALS
000192: 23,2000                                           BNKSUM   23
000193:
000194:
000195: 24,2000                                           BANK     24
000196: 24,2000                        PLANTIN            EQUALS
000197: 24,2000                        P20S               EQUALS
000198: 24,2000                                           BNKSUM   24
000199:
000200:
000201: 25,2000                                           BANK     25
000202: 25,2000                        P20S1              EQUALS
000203: 25,2000                        P20S2              EQUALS
000204: 25,2000                        RADARUPT           EQUALS
000205: 25,2000                        RRLEADIN           EQUALS
000206: 25,2000                        R29S1              EQUALS
000207: 25,2000                                           BNKSUM   25
000208:
000209:
000210: 26,2000                                           BANK     26
000211: 26,2000                        P20S3              EQUALS
000212: 26,2000                        BAWLANGS           EQUALS
000213: 26,2000                        MANUVER            EQUALS
000214: 26,2000                        MANUVER1           EQUALS
000215: 26,2000                        PLANTIN1           EQUALS
000216: 26,2000                                           BNKSUM   26
000217:
000218:


000220: 27,2000                                           BANK     27
000221: 27,2000                        TOF-FF             EQUALS
000222: 27,2000                        TOF-FF1            EQUALS
000223: 27,2000                        P40S1              EQUALS
000224: 27,2000                        VECPT              EQUALS
000225: 27,2000                        ASENT1             EQUALS
000226: 27,2000                                           BNKSUM   27
000227:
000228:


000230:                                                                                                  #  MODULE 5 CONTAINS BANKS 30 THROUGH 35
000231:
000232: 30,2000                                           BANK     30
000233: 30,2000                        LOWSUPER           EQUALS
000234: 30,2000                        P12                EQUALS
000235: 30,2000                        ASENT              EQUALS
000236: 30,2000                        FCDUW              EQUALS
000237: 30,2000                                           BNKSUM   30
000238:
000239:
000240: 31,2000                                           BANK     31
000241: 31,2000                        FTHROT             EQUALS
000242: 31,2000                        F2DPS*31           EQUALS
000243: 31,2000                        VB67               EQUALS
000244: 31,2000                                           BNKSUM   31
000245:
000246:
000247: 32,2000                                           BANK     32
000248: 32,2000                        P20S4              EQUALS
000249: 32,2000                        F2DPS*32           EQUALS
000250: 32,2000                        ABORTS             EQUALS
000251: 32,2000                        LRS22              EQUALS
000252: 32,2000                        FLOGSUB            EQUALS
000253: 32,2000                        SERV2              EQUALS
000254: 32,2000                        R47                EQUALS
000255: 32,2000                                           BNKSUM   32
000256:
000257:
000258: 33,2000                                           BANK     33
000259: 33,2000                        SERVICES           EQUALS
000260: 33,2000                        R29/SERV           EQUALS
000261: 33,2000                                           BNKSUM   33
000262:
000263:
000264: 34,2000                                           BANK     34
000265: 34,2000                        STBLEORB           EQUALS
000266: 34,2000                        P30S1              EQUALS
000267: 34,2000                        CSI/CDH1           EQUALS
000268: 34,2000                        ASCFILT            EQUALS
000269: 34,2000                        R12STUFF           EQUALS
000270: 34,2000                                           BNKSUM   34
000271:
000272:
000273: 35,2000                                           BANK     35
000274: 35,2000                        CSI/CDH            EQUALS
000275:


000277: 35,2000                        P30S               EQUALS
000278: 35,2000                        GLM                EQUALS
000279: 35,2000                        P40S2              EQUALS
000280: 35,2000                                           BNKSUM   35
000281:


000283:                                                                                                  #  MODULE 6 CONTAINS BANKS 36 THROUGH 43
000284:
000285: 36,2000                                           BANK     36
000286: 36,2000                        P40S               EQUALS
000287: 36,2000                                           BNKSUM   36
000288:
000289:
000290: 37,2000                                           BANK     37
000291: 37,2000                        P05P06             EQUALS
000292: 37,2000                        IMU2               EQUALS
000293: 37,2000                        IMU4               EQUALS
000294: 37,2000                        R31                EQUALS
000295: 37,2000                        IMUSUPER           EQUALS
000296: 37,2000                        SERV1              EQUALS
000297: 37,2000                                           BNKSUM   37
000298:
000299:
000300: 40,2000                                           BANK     40
000301: 40,2000                        PINBALL1           EQUALS
000302: 40,2000                        SELFSUPR           EQUALS
000303: 40,2000                        PINSUPER           EQUALS
000304: 40,2000                                           BNKSUM   40
000305:
000306:
000307: 41,2000                                           BANK     41
000308: 41,2000                        PINBALL2           EQUALS
000309: 41,2000                                           BNKSUM   41
000310:
000311:
000312: 42,2000                                           BANK     42
000313: 42,2000                        SBAND              EQUALS
000314: 42,2000                        PINBALL3           EQUALS
000315: 42,2000                                           BNKSUM   42
000316:
000317:
000318: 43,2000                                           BANK     43
000319: 43,2000                        EXTVERBS           EQUALS
000320: 43,2000                        SELFCHEC           EQUALS
000321:
000322: 43,2000                                           BNKSUM   43
000323:


000325:
000326: 43,2000  23,2423               HI6ZEROS           EQUALS   ZEROVECS                              #  ZERO VECTOR ALWAYS IN HIGH MEMORY
000327: 43,2000  11,2274               LO6ZEROS           EQUALS   ZEROVEC                               #  ZERO VECTOR ALWAYS IN LOW MEMORY
000328: 43,2000  23,2421               HIDPHALF           EQUALS   UNITX
000329: 43,2000  11,2272               LODPHALF           EQUALS   XUNIT
000330: 43,2000  23,2413               HIDP1/4            EQUALS   DP1/4TH
000331: 43,2000  04,2757               LODP1/4            EQUALS   D1/4                                  #  2DEC .25
000332: 43,2000  23,2421               HIUNITX            EQUALS   UNITX
000333: 43,2000  23,2417               HIUNITY            EQUALS   UNITY
000334: 43,2000  23,2415               HIUNITZ            EQUALS   UNITZ
000335: 43,2000  11,2272               LOUNITX            EQUALS   XUNIT                                 #  2DEC .5
000336: 43,2000  11,2270               LOUNITY            EQUALS   YUNIT                                 #  2DEC 0
000337: 43,2000  11,2266               LOUNITZ            EQUALS   ZUNIT                                 #  2DEC 0
000338:
000339:
000340:
000341: 43,2000  22,3541               DELRSPL            EQUALS   SPLRET                                #  COL PGM, ALSO CALLED BY R30 IN LUMINARY
000342:                                                                                                  #  ROPE-SPECIFIC ASSIGNS OBVIATING NEED TO CHECK COMPUTER FLAG IN           DETERMINING INTEGRATION AREA ENTRIES.
000343:
000344: 43,2000  13,2734               ATOPTHIS           EQUALS   ATOPLEM
000345: 43,2000  13,2661               ATOPOTH            EQUALS   ATOPCSM
000346: 43,2000  13,3043               OTHPREC            EQUALS   CSMPREC
000347: 43,2000  0000174               MOONTHIS           EQUALS   LMOONFLG
000348: 43,2000  0000173               MOONOTH            EQUALS   CMOONFLG
000349: 43,2000  13,2747               MOVATHIS           EQUALS   MOVEALEM
000350: 43,2000  11,2305               RMM                =        LODPMAX
000351: 43,2000  11,2307               RME                =        LODPMAX1
000352: 43,2000  13,3057               THISPREC           EQUALS   LEMPREC
000353: 43,2000  23,2415               THISAXIS           =        UNITZ
000354: 43,2000  23,2415               NB1NB2             EQUALS   THISAXIS                              #  FOR R31
000355: 43,2000     5011               ERASID             EQUALS   BITS2-10                              #  DOWNLINK ERASABLE DUMP ID
000356: 43,2000     4752               DELAYNUM           EQUALS   TWO

End of include-file TAGS_FOR_RELATIVE_SETLOC_AND_BLANK_BANK_CARDS.agc.  Parent file is MAIN.agc


