
Source Code


000002:                                                                                                  ## Copyright:   Public domain.
000003:                                                                                                  ## Filename:    TRIM_GIMBAL_CONTROL_SYSTEM.agc
000004:                                                                                                  ## Purpose:     A section of LUM69 revision 2.
000005:                                                                                                  ##              It is part of the reconstructed source code for the flown
000006:                                                                                                  ##              version of the flight software for the Lunar Module's (LM)
000007:                                                                                                  ##              Apollo Guidance Computer (AGC) for Apollo 10. The code has
000008:                                                                                                  ##              been recreated from a copy of Luminary revsion 069, using
000009:                                                                                                  ##              changes present in Luminary 099 which were described in
000010:                                                                                                  ##              Luminary memos 75 and 78. The code has been adapted such
000011:                                                                                                  ##              that the resulting bugger words exactly match those specified
000012:                                                                                                  ##              for LUM69 revision 2 in NASA drawing 2021152B, which gives
000013:                                                                                                  ##              relatively high confidence that the reconstruction is correct.
000014:                                                                                                  ## Reference:   pp. 1467-1478
000015:                                                                                                  ## Assembler:   yaYUL
000016:                                                                                                  ## Contact:     Ron Burkey <info@sandroid.org>.
000017:                                                                                                  ## Website:     www.ibiblio.org/apollo/index.html
000018:                                                                                                  ## Mod history: 2019-07-27 MAS  Created from Luminary 69.
000019:                                                                                                  ##              2021-05-30 ABS  GTSGO+DN -> GTSGO+ON
000020:                                                                                                  ##                              MAXISHIFT -> MAXISHFT
000021:                                                                                                  ##                              MINISHIFT -> MINISHFT
000022:


000024: 21,3263                                           BANK     21
000025: 21,3263  E6,1446                                  EBANK=   QDIFF
000026: 21,2000                                           SETLOC   DAPS4
000027: 21,2000                                           BANK
000028:
000029: 21,3263                                           COUNT*   $$/DAPGT
000030:
000031:                                                                                                  #  CONTROL REACHES THIS POINT UNDER EITHER OF THE FOLLOWING TWO CONDITIONS ONCE THE DESCENT ENGINE AND THE DIGITAL
000032:                                                                                                  #  AUTOPILOT ARE BOTH ON:
000033:                                                                                                  #        A) THE TRIM GIMBAL CONTROL LAW WAS ON DURING THE PREVIOUS Q,R-AXIS TIME5 INTERRUPT (OR THE DAPIDLER
000034:                                                                                                  #           INITIALIZATION WAS SET FOR TRIM GIMBAL CONTROL AND THIS IS THE FIRST PASS), OR
000035:                                                                                                  #        B) THE Q,R-AXES RCS AUTOPILOT DETERMINED THAT THE VEHICLE WAS ENTERING (OR HAD JUST ENTERED) A COAST
000036:                                                                                                  #           ZONE WITH A SMALL OFFSET ANGULAR ACCELERATION.
000037:                                                                                                  #  GTS IS THE ENTRY TO THE GIMBAL TRIM SYSTEM FOR CONTROLLING ATTITUDE ERRORS AND RATES AS WELL AS ACCELERATIONS.
000038:
000039: 21,3263           37746        GTS                CAF      NEGONE                                #  MAKE THE NEXT PASS THROUGH THE DAP BE
000040: 21,3264           55627                           TS       COTROLER                              #        THROUGH RCS CONTROL,
000041: 21,3265           34751                           CAF      FOUR                                  #        AND ENSURE THAT IT IS NOT A SKIP.
000042: 21,3266           55535                           TS       SKIPU
000043: 21,3267           55536                           TS       SKIPV
000044:
000045: 21,3270           34752                           CAF      TWO
000046: 21,3271           55631                           TS       INGTS                                 #  SET INDICATOR OF GTS CONTROL POSITIVE.
000047: 21,3272           55630                           TS       QGIMTIMR                              #  SET TIMERS TO 200 MSEC TO AVOID BOTH
000048: 21,3273           55632                           TS       RGIMTIMR                              #  RUNAWAY AND INTERFERENCE BY NULLING.
000049:
000050:                                                                                                  #  THE DRIVE SETTING ALGORITHM
000051:
000052:                                                                                                  #        DEL = SGN(OMEGA*K + ALPHA*ABS(ALPHA)/2).
000053:
000054:                                                                                                  #        NEGUSUM = ERROR.K(2) + DEL(OMEGA.K.DEL + ALPHA(2)/2)(3/2) + ALPHA(OMEGA.K.DEL + ALPHA(2)/3)
000055:
000056:                                                                                                  #        DRIVE = -SGN(NEGUSUM)
000057:
000058: 21,3274           30021                           CA       SR                                    #  SAVE THE SR.  SHIFT IT LEFT TO CORRECT
000059: 21,3275           60000                           AD       A                                     #  FOR THE RIGHT SHIFT DUE TO EDITING.
000060: 21,3276           55476                           TS       SAVESR
000061:
000062: 21,3277           34752        GTSGO+ON           CAF      TWO                                   #  SET INDEXER FOR R-AXIS CALCULATIONS.
000063: 21,3300           55746                           TS       QRCNTR
000064: 21,3301           31541                           CA       AOSR
000065: 21,3302           00006                           EXTEND
000066: 21,3303           74751                           MP       BIT3
000067: 21,3304           31435                           CA       EDOTR
000068: 21,3305           13314                           TCF      GTSQAXIS
000069:
000070: 21,3306           34755        GOQTRIMG           CAF      ZERO                                  #  SET INDEXER FOR Q-AXIS CALCULATIONS
000071: 21,3307           55746                           TS       QRCNTR


000073: 21,3310           31537                           CA       AOSQ
000074: 21,3311           00006                           EXTEND
000075: 21,3312           74751                           MP       BIT3
000076: 21,3313           31434                           CA       EDOTQ
000077: 21,3314           53744        GTSQAXIS           DXCH     WCENTRAL
000078: 21,3315           00006                           EXTEND
000079: 21,3316           51746                           INDEX    QRCNTR                                #  PICK UP K AND K(2) FOR THIS AXIS
000080: 21,3317           31504                           DCA      KQ
000081: 21,3320           53742                           DXCH     KCENTRAL
000082:
000083: 21,3321           51746                           INDEX    QRCNTR                                #  QDIFF, RDIFF ARE STORED IN D.P.
000084: 21,3322           31446                           CAE      QDIFF
000085:
000086: 21,3323           00006        ALGORTHM           EXTEND                                         #  Q(R)DIFF IS THETA (ERROR) SCALED AT PI.
000087: 21,3324           71742                           MP       K2CNTRAL                              #  FORM K(2)*THETA IN D.P.
000088: 21,3325           23735                           LXCH     K2THETA
000089: 21,3326           00006                           EXTEND                                         #  FORM K(2)*THETA*SF2 IN D.P.
000090: 21,3327           74743                           MP       BIT9
000091: 21,3330           53736                           DXCH     K2THETA
000092: 21,3331           00006                           EXTEND
000093: 21,3332           74743                           MP       BIT9
000094: 21,3333           27736                           ADS      K2THETA    +1
000095:
000096: 21,3334           31743                           CAE      WCENTRAL                              #  GET OMEGA
000097: 21,3335           00006                           EXTEND
000098: 21,3336           71741                           MP       KCENTRAL                              #  FORM K*OMEGA IN D.P.
000099: 21,3337           23741                           LXCH     OMEGA.K
000100: 21,3340           00006                           EXTEND                                         #  FORM OMEGA*K*SF1 IN D.P.
000101: 21,3341           74740                           MP       BIT12
000102: 21,3342           53742                           DXCH     OMEGA.K
000103: 21,3343           00006                           EXTEND
000104: 21,3344           74740                           MP       BIT12
000105: 21,3345           27742                           ADS      OMEGA.K    +1
000106:
000107: 21,3346           31744                           CAE      ACENTRAL                              #  FORM ALPHA(2)/2 IN D.P.
000108: 21,3347           00006                           EXTEND
000109: 21,3350           70000                           SQUARE
000110: 21,3351           53740                           DXCH     A2CNTRAL
000111:
000112: 21,3352           31744                           CAE      ACENTRAL                              #  GET ALPHA*ABS(ALPHA)/2, IF ALPHA GREATER
000113:                                                                                                  #  THAN 0. OTHERWISE TAKE NEGATIVE OF ABOVE
000114: 21,3353           00006                           EXTEND
000115: 21,3354           63360                           BZMF     +4
000116: 21,3355           00006                           EXTEND
000117: 21,3356           31740                           DCA      A2CNTRAL
000118: 21,3357           13362                           TCF      +3
000119: 21,3360           00006                           EXTEND
000120: 21,3361           41740                           DCS      A2CNTRAL
000121: 21,3362           53750                           DXCH     FUNCTION                              #  SAVE AS SGN(ALPHA)*ALPHA(2)/2


000123: 21,3363           00006                           EXTEND
000124: 21,3364           31742                           DCA      OMEGA.K
000125: 21,3365           21750                           DAS      FUNCTION                              #  FORM FUNCT1
000126:
000127: 21,3366           11747                           CCS      FUNCTION                              #  DEL = +1 FOR FUNCT1 GREATER THAN ZERO.
000128: 21,3367           13373                           TCF      POSFNCT1                              #  OTHERWISE DEL = -1
000129: 21,3370           13372                           TCF      +2
000130: 21,3371           13375                           TCF      NEGFNCT1
000131:
000132: 21,3372           11750                           CCS      FUNCTION   +1                         #  USE LOW ORDER WORD SINCE HIGH IS ZERO
000133: 21,3373           34753        POSFNCT1           CAF      BIT1
000134: 21,3374           13376                           TCF      +2
000135: 21,3375           44753        NEGFNCT1           CS       BIT1
000136: 21,3376           55745                           TS       DEL
000137:
000138: 21,3377           11745                           CCS      DEL                                   #  MAKE OMEGA*K REALLY DEL*OMEGA*K
000139: 21,3400           13405                           TCF      FUNCT2                                #  (NOTHING NEED BE DONE)
000140: 21,3401           13405                           TCF      FUNCT2
000141: 21,3402           00006                           EXTEND
000142: 21,3403           41742                           DCS      OMEGA.K
000143: 21,3404           53742                           DXCH     OMEGA.K                               #  CHANGE SIGN OF OMEGA*K
000144:
000145: 21,3405           00006        FUNCT2             EXTEND
000146: 21,3406           31742                           DCA      OMEGA.K
000147: 21,3407           53750                           DXCH     FUNCTION                              #  DEL*OMEGA*K
000148: 21,3410           00006                           EXTEND
000149: 21,3411           31740                           DCA      A2CNTRAL
000150: 21,3412           21750                           DAS      FUNCTION                              #  DEL*OMEGA*K + ALPHA(2)/2
000151: 21,3413           31737        FUNCT3             CAE      A2CNTRAL                              #  CALCULATE (2/3)*ALPHA(2)/2 = ALPHA(2)/3
000152: 21,3414           00006                           EXTEND
000153: 21,3415           73446                           MP       .66667
000154: 21,3416           53740                           DXCH     A2CNTRAL
000155: 21,3417           56001                           XCH      L
000156: 21,3420           00006                           EXTEND
000157: 21,3421           73446                           MP       .66667
000158: 21,3422           27740                           ADS      A2CNTRAL   +1
000159: 21,3423           54001                           TS       L
000160: 21,3424           13426                           TCF      +2
000161: 21,3425           27737                           ADS      A2CNTRAL
000162: 21,3426           53742                           DXCH     OMEGA.K                               #  DEL*OMEGA*K + ALPHA(2)/3 = G
000163: 21,3427           21740                           DAS      A2CNTRAL
000164: 21,3430           31737                           CAE      A2CNTRAL                              #  G*ALPHA IN D.P.
000165: 21,3431           00006                           EXTEND
000166: 21,3432           71744                           MP       ACENTRAL
000167: 21,3433           53740                           DXCH     A2CNTRAL
000168: 21,3434           56001                           XCH      L
000169: 21,3435           00006                           EXTEND
000170: 21,3436           71744                           MP       ACENTRAL
000171: 21,3437           27740                           ADS      A2CNTRAL   +1
000172: 21,3440           54001                           TS       L


000174: 21,3441           13443                           TCF      +2
000175: 21,3442           27737                           ADS      A2CNTRAL
000176:
000177: 21,3443           53740                           DXCH     A2CNTRAL                              #  FIRST AND THIRD TERMS
000178: 21,3444           21736                           DAS      K2THETA                               #  SUMMED IN D.P.
000179:
000180: 21,3445           13561                           TCF      RSTOFGTS
000181:
000182: 21,3446           25253        .66667             DEC      .66667
000183:
000184: 16,3720                                           BANK     16
000185: 16,3720  E6,1500                                  EBANK=   NEGUQ
000186: 16,2000                                           SETLOC   DAPS1
000187: 16,2000                                           BANK
000188:
000189:                                                                                                  #  THE WRCHN12 SUBROUTINE SETS BITS 9,10,11,12 OF CHANNEL 12 ON THE BASIS OF THE CONTENTS OF NEGUQ,NEGUR WHICH ARE
000190:                                                                                                  #  THE NEGATIVES OF THE DESIRED ACCELERATION CHANGES.  ACDT+C12 SETS Q(R)ACCDOT TO REFLECT THE NEW DRIVES.
000191:
000192:                                                                                                  #  WARNING:  ACDT+C12 AND WRCHN12 MUST BE CALLED WITH INTERRUPT INHIBITED.
000193:
000194: 16,3720           07400        BGIM               OCTAL    07400
000195: 16,3721     0066               CHNL12             EQUALS   ITEMP6
000196: 16,3721           41500        ACDT+C12           CS       NEGUQ
000197: 16,3722           00006                           EXTEND                                         #  GIMBAL DRIVE REQUESTS.
000198: 16,3723           71507                           MP       ACCDOTQ
000199: 16,3724           23510                           LXCH     QACCDOT
000200: 16,3725           41502                           CS       NEGUR
000201: 16,3726           00006                           EXTEND
000202: 16,3727           71511                           MP       ACCDOTR
000203: 16,3730           23512                           LXCH     RACCDOT
000204:
000205: 16,3731           11500                           CCS      NEGUQ
000206: 16,3732           34742                           CAF      BIT10
000207: 16,3733           13735                           TCF      +2
000208: 16,3734           34743                           CAF      BIT9
000209: 16,3735           54066                           TS       CHNL12
000210:
000211: 16,3736           11502                           CCS      NEGUR
000212: 16,3737           34740                           CAF      BIT12
000213: 16,3740           13742                           TCF      +2
000214: 16,3741           34741                           CAF      BIT11
000215: 16,3742           26066                           ADS      CHNL12                                #  (STORED RESULT NOT USED AT PRESENT)
000216:
000217: 16,3743           43720                           CS       BGIM
000218: 16,3744           00006                           EXTEND
000219: 16,3745           02012                           RAND     CHAN12
000220: 16,3746           60066                           AD       CHNL12
000221: 16,3747           00006                           EXTEND
000222: 16,3750           01012                           WRITE    CHAN12


000224: 16,3751           44747                           CS       CALLGMBL                              #  TURN OFF REQUEST FOR ACDT+C12 EXECUTION.
000225: 16,3752           71273                           MASK     RCSFLAGS
000226: 16,3753           55273                           TS       RCSFLAGS
000227:
000228: 16,3754           00002                           TC       Q                                     #  RETURN TO CALLER.
000229:
000230: 21,3447                                           BANK     21
000231: 21,3447  E6,1446                                  EBANK=   QDIFF
000232: 21,2000                                           SETLOC   DAPS4
000233: 21,2000                                           BANK
000234:


000236:                                                                                                  #  SUBROUTINE TIMEGMBL:  MOD 0, OCTOBER 1967, CRAIG WORK
000237:
000238:                                                                                                  #  TIMEGMBL COMPUTES THE DRIVE TIME NEEDED FOR THE TRIM GIMBAL TO POSITION THE DESCENT ENGINE NOZZLE SO AS TO NULL
000239:                                                                                                  #  THE OFFSET ANGULAR ACCELERATION ABOUT THE Q (OR R) AXIS.  INSTEAD OF USING AOSQ(R), TIMEGMBL USES .4*AOSQ(R),
000240:                                                                                                  #  SCALED AT PI/8.                         FOR EACH AXIS, THE DRIVE TIME IS COMPUTED AS ABS(ALPHA/ACCDOT).  A ZERO
000241:                                                                                                  #  ALPHA OR ACCDOT OR A ZERO QUOTIENT TURNS OFF THE GIMBAL DRIVE IMMEDIATELY.  OTHERWISE, THE GIMBAL IS TURNED ON
000242:                                                                                                  #  DRIVING IN THE CORRECT DIRECTION. THE Q(R)GIMTIMR IS SET TO TERMINATE THE DRIVE AND Q(R)ACCDOT
000243:                                                                                                  #  IS STORED TO REFLECT THE NEW ACCELERATION DERIVATIVE.  NEGUQ(R) WILL CONTAIN +1,+0,-1 FOR A Q(R)ACCDOT VALUE
000244:                                                                                                  #  WHICH IS NEGATIVE, ZERO, OR POSITIVE.
000245:
000246:                                                                                                  #  INPUTS:       AOSQ,AOSR, SCALED AT P1/2, AND ACCDOTQ, ACCDOTR AT PI/2(7).     PI/2(7).
000247:
000248:                                                                                                  #  OUTPUTS:      NEW GIMBAL DRIVE BITS IN CHANNEL 12,NEGUQ,NEGUR,QACCDOT AND RACCDOT, THE LAST SCALED AT PI/2(7).
000249:                                                                                                  #                Q(R)GIMTIMR WILL BE SET TO TIME AND TERMINATE GIMBAL DRIVE(S)
000250:
000251:                                                                                                  #  DEBRIS:       A,L,Q, ITEMPS 2,3,6, RUPTREG2 AND ACDT+C12 DEBRIS.
000252:
000253:                                                                                                  #  EXITS:        VIA TC Q.
000254:
000255:                                                                                                  #  ALARMS, ABORTS, :  NONE
000256:
000257:                                                                                                  #  SUBROUTINES:  ACDT+C12, IBNKCALL
000258:
000259:                                                                                                  #  WARNING:      THIS SUBROUTINE WRITES INTO CHANNEL 12 AND USES THE ITEMPS.  THEREFORE IT MAY ONLY BE CALLED WITH
000260:                                                                                                  #  INTERRUPT INHIBITED.
000261:
000262:                                                                                                  #  ERASABLE STORAGE CONFIGURATION (NEEDED BY THE INDEXING METHODS):
000263:                                                                                                  #        NEGUQ           ERASE   +2              NEGATIVE OF Q-AXIS GIMBAL DRIVE
000264:                                                                                                  #        (SPWORD)        EQUALS  NEGUQ +1        ANY S.P. ERASABLE NUMBER, NOW THRSTCMD
000265:                                                                                                  #        NEGUR           EQUALS  NEGUQ +2        NEGATIVE OF R-AXIS GIMBAL DRIVE
000266:
000267:                                                                                                  #        ACCDOTQ         ERASE   +2              Q-JERK TERM SCALED AT PI/2(7) RAD/SEC(3)
000268:                                                                                                  #        (SPWORD)        EQUALS  ACCDOTQ +1      ANY S.P. ERASABLE NUMBER NOW QACCDOT
000269:                                                                                                  #        ACCDOTR         EQUALS  ACCDOTQ +2      R-JERK TERM SCALED AT PI/2(7) RAD/SEC(3)
000270:                                                                                                  #                                                ACCDOTQ, ACCDOTR ARE MAGNITUDES.
000271:                                                                                                  #        AOSQ            ERASE   +4              Q-AXIS ACC., D.P. AT PI/2 R/SEC(2)
000272:                                                                                                  #        AOSR            EQUALS  AOSQ +2         R-AXIS ACCELERATION SCALED AT PI/2 R/S2
000273:
000274: 21,3447     0066               QRNDXER            EQUALS   ITEMP6
000275: 21,3447           23146        OCT23146           OCTAL    23146                                 #  DECIMAL .6
000276: 21,3450     0063               NZACCDOT           EQUALS   ITEMP3
000277:
000278: 21,3450           34753        TIMEGMBL           CAF      ONE                                   #  INITIALIZE ALLOWGTS.
000279: 21,3451           55501                           TS       ALLOWGTS
000280:
000281: 21,3452           34752                           CAF      TWO                                   #  SET UP LOOP FOR R AXIS.
000282: 21,3453           22002                           LXCH     Q                                     #  SAVE RETURN ADDRESS.
000283: 21,3454           22071                           LXCH     RUPTREG2


000285: 21,3455           13457                           TCF      +2
000286: 21,3456           34755        TIMQGMBL           CAF      ZERO                                  #  NOW DO THE Q-AXIS
000287: 21,3457           54066                           TS       QRNDXER
000288: 21,3460           50066                           INDEX    QRNDXER
000289: 21,3461           31507                           CA       ACCDOTQ                               #  ACCDOT IS PRESUMED TO BE AT PI/2(7).
000290: 21,3462           00006                           EXTEND
000291: 21,3463           63533                           BZMF     TGOFFNOW                              #  IS ACCDOT LESS THAN OR EQUAL TO 0?
000292: 21,3464           54063                           TS       NZACCDOT                              #  NO.  STORE NON-ZERO, POSITIVE ACCDOT.
000293:
000294: 21,3465           50066        ALPHATRY           INDEX    QRNDXER
000295: 21,3466           41537                           CS       AOSQ
000296: 21,3467           00006                           EXTEND
000297: 21,3470           13533                           BZF      TGOFFNOW                              #  IS ALPHA ZERO?
000298:
000299: 21,3471           54002                           TS       Q                                     #  SAVE A COPY OF -AOS.
000300: 21,3472           00006                           EXTEND                                         #  NO.  RESCALE FOR TIMEGMBL USE.
000301: 21,3473           73447                           MP       OCT23146                              #  OCTAL 23146 IS DECIMAL .6
000302: 21,3474           60002                           AD       Q                                     #  -1.6*AOS AT PI/2 = -.4*AOS AT PI/8.
000303: 21,3475           54001                           TS       L                                     #  WAS THERE OVERFLOW?
000304: 21,3476           13503                           TCF      SETNEGU                               #  NO.  COMPUTE DRIVE TIME.
000305:
000306: 21,3477           40000                           CS       A                                     #  RECOVER  -SGN(AOS) IN THE A REGISTER.
000307: 21,3500           50066                           INDEX    QRNDXER                               #  YES.  START DRIVE WITHOUT WAITLIST.
000308: 21,3501           57500                           XCH      NEGUQ
000309: 21,3502           13537                           TCF      NOTALLOW                              #  KNOCK DOWN THE ALLOWGTS FLAG.
000310:
000311: 21,3503           00006        SETNEGU            EXTEND
000312: 21,3504           63511                           BZMF     POSALPH
000313:
000314: 21,3505           40000                           COM
000315: 21,3506           54062                           TS       ITEMP2                                #  STORE -ABS(.4*AOS) SCALED AT PI/8.
000316: 21,3507           44753                           CS       BIT1
000317: 21,3510           13513                           TCF      POSALPH    +2
000318: 21,3511           54062        POSALPH            TS       ITEMP2                                #  STORE -ABS(.4*AOS) SCALED AT PI/8.
000319: 21,3512           34753                           CA       BIT1
000320: 21,3513           50066                 +2        INDEX    QRNDXER                               #  SGN(AOS) INTO NEGU
000321: 21,3514           55500                           TS       NEGUQ                                 #  STORE SGN(APLHA) AS NEGU
000322:
000323: 21,3515           30063                           CA       NZACCDOT
000324: 21,3516           00006                           EXTEND
000325: 21,3517           74740                           MP       BIT12                                 #  2*ACCDOT, SCALED AT PI/8.
000326: 21,3520           60062                           AD       ITEMP2                                #  -ABS(ALPHA) + 2*ACCDOT, AT PI/8.
000327: 21,3521           00006                           EXTEND
000328: 21,3522           63537                           BZMF     NOTALLOW                              #  IS DRIVE TIME MORE THAN TWO SECONDS?
000329: 21,3523           40062                           CS       ITEMP2                                #  NO.  COMPUTE DRIVE TIME.
000330: 21,3524           00006                           EXTEND                                         #  ABS(ALPHA) AT PI/8.
000331: 21,3525           73560                           MP       OCT00240                              #  DECIMAL 10/1024
000332: 21,3526           00006                           EXTEND                                         #  QUOTIENT IS DRIVE TIME AT WAITLIST.
000333: 21,3527           10063                           DV       NZACCDOT                              #  ABS(ALPHA)/ACCDOT AT 2(14)/100


000335: 21,3530           00006                           EXTEND
000336: 21,3531           13533                           BZF      TGOFFNOW                              #  DRIVE TIME MUST BE GREATER THAN ZERO.
000337:
000338: 21,3532           13545                           TCF      DRIVEON
000339:
000340: 21,3533           34755        TGOFFNOW           CAF      ZERO                                  #  TURN OFF GIMBAL NOW.
000341: 21,3534           50066                           INDEX    QRNDXER
000342: 21,3535           55500                           TS       NEGUQ
000343:
000344: 21,3536           13547                           TCF      DONEYET
000345:
000346: 21,3537           36010        NOTALLOW           CAF      OCT31
000347: 21,3540           50066                           INDEX    QRNDXER
000348: 21,3541           55630                           TS       QGIMTIMR
000349: 21,3542           34755                           CAF      ZERO                                  #  DRIVE TIME IS MORE THAN 2 SECONDS, SO
000350: 21,3543           55501                           TS       ALLOWGTS                              #  DO NOT PERMIT FURTHER GTS ATTITUDE-RATE
000351:                                                                                                  #  CONTROL UNTIL AOSTASK APPROVES.
000352: 21,3544           13547                           TCF      DONEYET                               #  NO WAITLIST CALL IS MADE.
000353:
000354: 21,3545           50066        DRIVEON            INDEX    QRNDXER
000355: 21,3546           55630                           TS       QGIMTIMR                              #  CHOOSE Q OR R AXIS.
000356:
000357: 21,3547           10066        DONEYET            CCS      QRNDXER
000358: 21,3550           13456                           TCF      TIMQGMBL
000359:
000360: 21,3551           52073                           DXCH     RUPTREG3                              #  PROTECT IBNKCALL ERASABLES.  ACDT+C12
000361: 21,3552           52063                           DXCH     ITEMP2                                #  LEAVES ITEMPS2,3 ALONE.
000362:
000363: 21,3553           04674                           TC       IBNKCALL                              #  TURN OF CHANNEL BITS, SET Q(R)ACCDOTS.
000364: 21,3554           35721                           CADR     ACDT+C12
000365:
000366: 21,3555           52063                           DXCH     ITEMP2                                #  RESTORE ERASABLES FOR IBNKCALL.
000367: 21,3556           52073                           DXCH     RUPTREG3
000368:
000369: 21,3557           00071                           TC       RUPTREG2                              #  RETURN TO CALLER.
000370:
000371: 21,3560           00240        OCT00240           OCTAL    00240                                 #  DECIMAL 10/1024
000372:


000374:                                                                                                  #  THE FOLLOWING SECTION IS A CONTINUATION OF THE TRIM GIMBAL CONTROL FROM THE LAST GTS ENTRY.  THE QUANTITY NEGUSUM
000375:                                                                                                  #  IS COMPUTED FOR EACH AXIS (Q,R), .707*DEL*FUNCTION(3/2) + K2THETA = NEGUSUM.  NEW DRIVES ARE ENTERED TO CH 12.
000376:
000377: 21,3561           11747        RSTOFGTS           CCS      FUNCTION
000378: 21,3562           13603                           TCF      GOODARG                               #  FUNCTION IS POSITIVE.  GET 3/2 POWER.
000379: 21,3563           13565                           TCF      +2                                    #  HIGH ORDER WORD IS ZERO.  TRY THE LOWER.
000380: 21,3564           13571                           TCF      ZEROOT                                #  NEGATIVE.  USE ZERO FOR 3/2 POWER.
000381:
000382: 21,3565           41750                           CS       FUNCTION   +1                         #  IF ARG IS LESS THAN 2(-18), THEN THE 3/2
000383: 21,3566           64741                           AD       BIT11                                 #  POWER IS LESS THAN 2(-27).  USE ZERO.
000384: 21,3567           00006                           EXTEND
000385: 21,3570           63574                           BZMF     ZEROHIGH                              #  BRANCH IF ARG NOT LESS THAN 2(-18).
000386:
000387: 21,3571           00006        ZEROOT             EXTEND
000388: 21,3572           34756                           DCA      ZERO
000389: 21,3573           13714                           TCF      NEGUSUM
000390:
000391: 21,3574           34317        ZEROHIGH           CA       FOURTEEN                              #  ARG LESS THAN 2(-14) MEANS 3/2 POWER
000392:                                                                                                  #  WILL BE LESS THAN 2(-21).
000393: 21,3575           55737                           TS       SHFTFLAG
000394:
000395: 21,3576           34752                           CA       TWO
000396: 21,3577           55740                           TS       ININDEX                               #  INITIALIZE THE SHIFT LOOP.
000397:
000398:                                                                                                  #  COLLECT THE 14 MOST SIGNIFICANT BITS OF
000399: 21,3600           57750                           XCH      FUNCTION   +1                         #  THE 28 INTO THE HIGH ORDER WORD.
000400: 21,3601           57747                           XCH      FUNCTION
000401: 21,3602           13616                           TCF      SCALLOOP
000402: 21,3603           35742        GOODARG            CA       TWELVE
000403: 21,3604           55740                           TS       ININDEX                               #  INITIALIZE THE SHIFT LOOP.
000404: 21,3605           34755                           CA       ZERO                                  #  THERE ARE SIGNIFICANT BITS IN THE HIGH
000405: 21,3606           55737                           TS       SHFTFLAG                              #  ORDER WORD, SO SET SHFTFLAG TO ZERO.
000406:
000407: 21,3607           13616                           TCF      SCALLOOP
000408:
000409: 21,3610           31747        SCALSTRT           CA       FUNCTION
000410: 21,3611           13633                           TCF      SCALDONE
000411:
000412: 21,3612           37745        MULBUSH            CA       NEG2                                  #  IF ARG IS NOT LESS THAN 1/4, INDEX IS
000413: 21,3613           27740                           ADS      ININDEX                               #  ZERO, INDICATING NO SHIFT NEEDED.
000414: 21,3614           00006                           EXTEND                                         #  BRANCH IF ARG IS NOT LESS THAN 1/4.
000415: 21,3615           63610                           BZMF     SCALSTRT                              #  OTHERWISE COMPARE ARG WITH A REFERENCE
000416:                                                                                                  #  WHICH IS 4 TIMES LARGER THAN THE LAST.
000417: 21,3616           41747        SCALLOOP           CS       FUNCTION
000418: 21,3617           51740                           INDEX    ININDEX
000419: 21,3620           64735                           AD       BIT15                                 #  REFERENCE MAGNITUDE LESS OR EQUAL TO 1/4
000420: 21,3621           00006                           EXTEND
000421: 21,3622           63612                           BZMF     MULBUSH                               #  IF ARG IS NOT LESS THAN REFERENCE, GO
000422:                                                                                                  #  AROUND THE MULBERRY BUSH ONCE MORE.
000423: 21,3623           51740                           INDEX    ININDEX


000425: 21,3624           34735                           CA       BIT15                                 #  THIS IS THE SCALE MAGNITUDE
000426: 21,3625           56002                           XCH      Q                                     #  2**(-ININDEX) IS THE SHIFT DIVISOR.
000427: 21,3626           00006                           EXTEND                                         #  RESCALE ARGUMENT.
000428: 21,3627           31750                           DCA      FUNCTION
000429: 21,3630           00006                           EXTEND
000430: 21,3631           10002                           DV       Q
000431: 21,3632           55747                           TS       FUNCTION                              #  ININDEX AND SHFTFLAG PRESERVE INFO FOR
000432:                                                                                                  #  RESCALING AFTER ROOT PROCESS.
000433: 21,3633           00006        SCALDONE           EXTEND                                         #  AFTER 3/2 POWER IS TAKEN, SCALE FACTOR
000434: 21,3634           74737                           MP       BIT13                                 #  OF SQRT(1/2) WILL BE NEEDED, SO FACTOR
000435: 21,3635           55743                           TS       HALFARG                               #  OF 1/2 IS INCLUDED NOW, BEFORE SQRT.
000436:
000437: 21,3636           33761                           CA       STARTER                               #  INITIAL GUESS FOR SQRT ALGORITHM.
000438: 21,3637           03763                           TC       ROOTCYCL
000439: 21,3640           03763                           TC       ROOTCYCL
000440: 21,3641           03763                           TC       ROOTCYCL
000441:
000442: 21,3642           00006                           EXTEND                                         #  SQRT(1/2)*SQRT(ARG) IN A.
000443: 21,3643           71747                           MP       FUNCTION                              #  SQRT(1/2)*ARG*SQRT(ARG) IN A,L.
000444: 21,3644           53750                           DXCH     FUNCTION
000445:
000446: 21,3645           31737        DOSHIFT            CA       SHFTFLAG                              #  HOW MANY SHIFT BITS ARE THERE?
000447: 21,3646           61740                           AD       ININDEX                               #  2**(-ININDEX) WAS SHIFT DIVISOR.
000448: 21,3647           54021                           TS       SR
000449: 21,3650           60021                           AD       SR                                    #  THIS MANY SHIFTS ARE REQUIRED.
000450: 21,3651           54002        SAVESHFT           TS       Q                                     #  Q BOUNDS ARE ZERO AND 24 (DECIMAL).
000451: 21,3652           00006                           EXTEND
000452: 21,3653           63701                           BZMF     SUMNEGU                               #  BRANCH IF SHIFTING IS UNNECESSARY.
000453:
000454: 21,3654           44317                           CS       FOURTEEN
000455: 21,3655           60002                           AD       Q
000456: 21,3656           00006                           EXTEND                                         #  Q = 0(MOD 3), SO A REG IS NON-ZERO.
000457: 21,3657           63664                           BZMF     MINISHFT                              #  BRANCH IF SMALL SHIFT SUFFICES.
000458:
000459: 21,3660           54002        MAXISHFT           TS       Q                                     #  14 BIT SHIFT RIGHT NOW.
000460: 21,3661           34755                           CA       ZERO
000461: 21,3662           57747                           XCH      FUNCTION
000462: 21,3663           55750                           TS       FUNCTION   +1
000463:
000464: 21,3664           50002        MINISHFT           INDEX    Q                                     #  C(Q) ARE GREATER THAN ZERO.
000465: 21,3665           34735                           CA       BIT15
000466: 21,3666           54002                           TS       Q                                     #  2**(-Q) WILL BE SHIFT MULTIPLIER.
000467: 21,3667           00006                           EXTEND
000468: 21,3670           71750                           MP       FUNCTION   +1
000469: 21,3671           56001                           XCH      L
000470: 21,3672           34755                           CA       ZERO
000471: 21,3673           53750                           DXCH     FUNCTION                              #  LOWER WORD SHIFTED NOW.
000472: 21,3674           00006                           EXTEND
000473: 21,3675           63701                           BZMF     SUMNEGU                               #  BRANCH IF UPPER WORD WAS ZERO.


000475: 21,3676           00006                           EXTEND                                         #  SHIFT UPPER WORD.
000476: 21,3677           70002                           MP       Q
000477: 21,3700           21750                           DAS      FUNCTION                              #  NO OVERFLOW POSSIBLE.
000478:
000479: 21,3701           41745        SUMNEGU            CS       DEL                                   #  INCLUDE DEL FACTOR IN PRODUCT TERM.
000480: 21,3702           00006                           EXTEND
000481: 21,3703           63707                           BZMF     SUMTERMS
000482:
000483: 21,3704           00006                           EXTEND                                         #  DEL FACTOR IS MINUS ONE.
000484: 21,3705           41750                           DCS      FUNCTION
000485: 21,3706           13713                           TCF      NEGUSUM    -1                         #  NOW ADD IN THE K2THETA TERM.
000486:
000487: 21,3707           00006        SUMTERMS           EXTEND
000488: 21,3710           13714                           BZF      NEGUSUM                               #  BRANCH IF DEL IS ZERO.
000489:
000490: 21,3711           00006                           EXTEND                                         #  DEL FACTOR IS +1.
000491: 21,3712           31750                           DCA      FUNCTION
000492: 21,3713           21736                           DAS      K2THETA                               #  NOW ADD IN THE K2THETA TERM.
000493: 21,3714           11735        NEGUSUM            CCS      K2THETA                               #  TEST SIGN OF HIGH ORDER PART.
000494: 21,3715           13721                           TCF      NEGDRIVE
000495: 21,3716           13720                           TCF      +2
000496: 21,3717           13723                           TCF      POSDRIVE
000497:
000498: 21,3720           11736                           CCS      K2THETA    +1                         #  SIGN TEST FOR LOW ORDER PART.
000499: 21,3721           34753        NEGDRIVE           CA       BIT1
000500: 21,3722           13724                           TCF      +2                                    #  STOP GIMBAL DRIVE FOR A ZERO NEGUSUM.
000501: 21,3723           44753        POSDRIVE           CS       BIT1
000502: 21,3724           54001                           TS       L                                     #  SAVE FOR DRIVE REVERSAL TEST.
000503: 21,3725           51746                           INDEX    QRCNTR
000504: 21,3726           57500                           XCH      NEGUQ
000505:
000506: 21,3727           00006                           EXTEND
000507: 21,3730           70001                           MP       L                                     #  MULTIPLY OLD NEGU AND NEW NEGU.
000508: 21,3731           10001                           CCS      L
000509: 21,3732           13747                           TCF      LOUPE                                 #  NON-ZERO GIMBAL DRIVE BEING CONTINUED.
000510:
000511: 21,3733           13744                           TCF      ZEROLOUP                              #  NO REVERSAL PROBLEM HERE.
000512:
000513: 21,3734           13736                           TCF      REVERSAL                              #  NON-ZERO GIMBAL DRIVE BEING REVERSED.
000514: 21,3735           13744                           TCF      ZEROLOUP                              #  NO REVERSAL PROBLEM HERE.
000515:
000516: 21,3736           51746        REVERSAL           INDEX    QRCNTR                                #  A ZERO-DRIVE PAUSE IS NEEDED HERE.  ZERO
000517: 21,3737           55510                           TS       QACCDOT                               #  IS IN A REGISTER FROM CCS ON (-1).
000518: 21,3740           51746                           INDEX    QRCNTR
000519: 21,3741           43760                           CS       GMBLBITA
000520: 21,3742           00006                           EXTEND
000521: 21,3743           03012                           WAND     CHAN12
000522:
000523: 21,3744           41273        ZEROLOUP           CS       RCSFLAGS                              #  SET UP REQUEST FOR ACDT+C12 CALL.
000524: 21,3745           74747                           MASK     CALLGMBL


000526: 21,3746           27273                           ADS      RCSFLAGS
000527:
000528: 21,3747           11746        LOUPE              CCS      QRCNTR                                #  HAVE BOTH AXES BEEN PROCESSED?
000529: 21,3750           13306                           TCF      GOQTRIMG                              #  NO.  DO Q AXIS NEXT.
000530:
000531: 21,3751           31476                           CA       SAVESR                                #  RESTORE THE SR
000532: 21,3752           54021                           TS       SR
000533:
000534: 21,3753           00006        GOCLOSE            EXTEND                                         #  TERMINATE THE JASK.
000535: 21,3754           33757                           DCA      CLOSEADR
000536: 21,3755           52006                           DTCB
000537:
000538: 21,3756  E6,1537                                  EBANK=   AOSQ
000539: 21,3756           03173 36106  CLOSEADR           2CADR    CLOSEOUT                              #  TERMINATE THE JASK.
000540:
000541: 21,3760     5742               TWELVE             EQUALS   OCT14
000542: 21,3760           01400        GMBLBITA           OCTAL    01400                                 #  INDEXED WRT GMBLBITB   DO NOT MOVE ******
000543: 21,3761           20761        STARTER            DEC      .53033                                #  INITIAL VALUE FOR SQRT ALGORITHM.
000544: 21,3762           06000        GMBLBITB           OCTAL    06000                                 #  INDEXED WRT GMBLBITA   DO NOT MOVE ******
000545:
000546:                                                                                                  #  SUBROUTINE ROOTCYCL:  BY CRAIG WORK,3 APRIL 68
000547:
000548:                                                                                                  #  ROOTCYCL IS A SUBROUTINE WHICH EXECUTES ONE NEWTON SQUARE ROOT ALGORITHM ITERATION.  THE INITIAL GUESS AT THE
000549:                                                                                                  #  SQUARE ROOT IS PRESUMED TO BE IN THE A REGISTER AND ONE-HALF THE SQUARE IS TAKEN FROM HALFARG.  THE NEW APPROXI-
000550:                                                                                                  #  MATION TO THE SQUARE ROOT IS RETURNED IN THE A REGISTER.  DEBRIS:  A,L,SR,SCRATCH.   ROOTCYCL IS CALLED FROM
000551:                                                                                                  #  LOCATION (LOC) BY A TC ROOTCYCL, AND RETURNS (TC Q) TO LOC +1.
000552:
000553:                                                                                                  #  WARNING:  IF THE INITIAL GUESS IS NOT GREATER THAN THE SQUARE, DIVIDE OR ADD OVERFLOW IS A REAL POSSIBILITY.
000554:
000555: 21,3763           55742        ROOTCYCL           TS       SCRATCH                               #  STORE X
000556: 21,3764           54021                           TS       SR                                    #  X/2 NOW IN SR
000557: 21,3765           31743                           CA       HALFARG                               #  ARG/2 IN THE A REG
000558: 21,3766           22007                           ZL                                             #  PREPARE FOR DIVISION
000559: 21,3767           00006                           EXTEND
000560: 21,3770           11742                           DV       SCRATCH                               #  (ARG/X)/2
000561: 21,3771           60021                           AD       SR                                    #  (X + ARG/X)/2 IN THE A REG
000562: 21,3772           00002                           TC       Q
000563:
000564:

End of include-file TRIM_GIMBAL_CONTROL_SYSTEM.agc.  Parent file is MAIN.agc


