
Source Code


000002:                                                                                                  ## Copyright:   Public domain.
000003:                                                                                                  ## Filename:    WAITLIST.agc
000004:                                                                                                  ## Purpose:     A section of LUM69 revision 2.
000005:                                                                                                  ##              It is part of the reconstructed source code for the flown
000006:                                                                                                  ##              version of the flight software for the Lunar Module's (LM)
000007:                                                                                                  ##              Apollo Guidance Computer (AGC) for Apollo 10. The code has
000008:                                                                                                  ##              been recreated from a copy of Luminary revsion 069, using
000009:                                                                                                  ##              changes present in Luminary 099 which were described in
000010:                                                                                                  ##              Luminary memos 75 and 78. The code has been adapted such
000011:                                                                                                  ##              that the resulting bugger words exactly match those specified
000012:                                                                                                  ##              for LUM69 revision 2 in NASA drawing 2021152B, which gives
000013:                                                                                                  ##              relatively high confidence that the reconstruction is correct.
000014:                                                                                                  ## Reference:   pp. 1112-1127
000015:                                                                                                  ## Assembler:   yaYUL
000016:                                                                                                  ## Contact:     Ron Burkey <info@sandroid.org>.
000017:                                                                                                  ## Website:     www.ibiblio.org/apollo/index.html
000018:                                                                                                  ## Mod history: 2019-07-27 MAS  Created from Luminary 69.
000019:


000021:                                                                                                  #  PROGRAM DESCRIPTION                                                           DATE - 10 OCTOBER 1966
000022:                                                                                                  #  MOD NO - 2                                                                    LOG SECTION - WAITLIST
000023:                                                                                                  #  MOD BY - MILLER       (DTMAX INCREASED TO 162.5 SEC)                          ASSEMBLY SUNBURST REV 5
000024:                                                                                                  #  MOD 3 BY KERNAN       (INHINT INSERTED AT WAITLIST) 2/28/68 SKIPPER REV 4
000025:                                                                                                  #  MOD 4 BY KERNAN       (TWIDDLE IN 54) 3/28/68 SKIPPER REV 13.
000026:
000027:                                                                                                  #  FUNCTIONAL DESCRIPTION -
000028:                                                                                                  #        PART OF A SECTION OF PROGRAMS,- WAITLIST, TASKOVER, T3RUPT, USED TO CALL A PROGRAM, (CALLED A TASK),
000029:                                                                                                  #        WHICH IS TO BEGIN IN C(A) CENTISECONDS.  WAITLIST UPDATES TIME3, LST1 AND LST2.  THE MEANING OF THESE LISTS
000030:                                                                                                  #        FOLLOW.
000031:
000032:                                                                                                  #                C(TIME3) = 16384 -(T1-T) CENTISECONDS, (T=PRESENT TIME, T1-TIME FOR TASK1)
000033:
000034:                                                                                                  #                        C(LST1)    = -(T2-T1)+1
000035:                                                                                                  #                        C(LST1 +1) = -(T3-T2)+1
000036:                                                                                                  #                        C(LST1 +2) = -(T4-T3)+1
000037:                                                                                                  #                                   .
000038:                                                                                                  #                                   .
000039:                                                                                                  #                        C(LST1 +6) = -(T8-T7)+1
000040:                                                                                                  #                        C(LST1 +7) = -(T9-T8)+1
000041:
000042:                                                                                                  #                        C(LST2)    = 2CADR OF TASK1
000043:                                                                                                  #                        C(LST2 +2) = 2CADR OF TASK2
000044:                                                                                                  #                                   .
000045:                                                                                                  #                                   .
000046:                                                                                                  #                        C(LST2 +14)= 2CADR OF TASK8
000047:                                                                                                  #                        C(LST2 +16)= 2CADR OF TASK9
000048:
000049:                                                                                                  #  WARNINGS -
000050:                                                                                                  #  --------
000051:                                                                                                  #        1)      1 <= C(A) <= 16250D (1 CENTISECOND TO 162.5 SEC)
000052:                                                                                                  #        2)      9 TASKS MAXIMUM
000053:                                                                                                  #        3)      TASKS CALLED UNDER INTERRUPT INHIBITED
000054:                                                                                                  #        4)      TASKS END BY TC TASKOVER
000055:
000056:                                                                                                  #  CALLING SEQUENCE -
000057:                                                                                                  #        L-1     CA      DELTAT  (TIME IN CENTISECONDS TO TASK START)
000058:                                                                                                  #        L       TC      WAITLIST
000059:                                                                                                  #        L+1     2CADR   DESIRED TASK
000060:                                                                                                  #        L+2     (MINOR OF 2CADR)
000061:                                                                                                  #        L+3     RELINT          (RETURNS HERE)
000062:
000063:                                                                                                  #  TWIDDLE -
000064:                                                                                                  #  -------
000065:                                                                                                  #        TWIDDLE IS FOR USE WHEN THE TASK BEING SET UP IS IN THE SAME EBANK AND FBANK AS THE USER.  IN
000066:                                                                                                  #        SUCH CASES, IT IMPROVES UPON WAITLIST BY ELIMINATING THE NEED FOR THE BBCON HALF OF THE 2CADR,


000068:                                                                                                  #        SAVING A WORD.  TWIDDLE IS LIKE WAITLIST IN EVERY RESPECT EXCEPT CALLING SEQUENCE, TO WIT-
000069:                                                                                                  #                L-1     CA      DELTAT
000070:                                                                                                  #                L       TC      TWIDDLE
000071:                                                                                                  #                L+1     ADRES   DESIRED TASK
000072:                                                                                                  #                L+2     RELINT          (RETURNS HERE)
000073:
000074:                                                                                                  #  NORMAL EXIT MODES -
000075:                                                                                                  #        AT L+3 OF CALLING SEQUENCE
000076:
000077:                                                                                                  #  ALARM OR ABORT EXIT MODES -
000078:                                                                                                  #        TC      ABORT
000079:                                                                                                  #        OCT     1203    (WAITLIST OVERFLOW - TOO MANY TASKS)
000080:
000081:                                                                                                  #  ERASABLE INITIALIZATION REQUIRED -
000082:                                                                                                  #        ACCOMPLISHED BY FRESH START,--LST2, ..., LST2 +16 = ENDTASK
000083:                                                                                                  #                                      LST1, ..., LST1 +7  = NEG1/2
000084:
000085:                                                                                                  #  OUTPUT --
000086:                                                                                                  #        LST1 AND LST2 UPDATED WITH NEW TASK AND ASSOCIATED TIME.
000087:
000088:                                                                                                  #  DEBRIS -
000089:                                                                                                  #        CENTRALS - A,Q,L
000090:                                                                                                  #        OTHER    - WAITEXIT, WAITADR, WAITTEMP, WAITBANK
000091:
000092:                                                                                                  #  DETAILED ANALYSIS OF TIMING -
000093:                                                                                                  #        CONTROL WILL NOT BE RETURNED TO THE SPECIFIED ADDRESS (2CADR) IN EXACTLY DELTA T CENTISECONDS.
000094:                                                                                                  #        THE APPROXIMATE TIME MAY BE CALCULATED AS FOLLOWS
000095:                                                                                                  #                LET TO = THE TIME OF THE TC WAITLIST
000096:                                                                                                  #                LET TS = TO +147U + COUNTER INCREMENTS (SET UP TIME)
000097:                                                                                                  #                LET X  = TS -(100TS)/100  (VARIANCE FROM COUNTERS)
000098:                                                                                                  #                LET Y  = LENGTH OF TIME OF INHIBIT INTERRUPT AFTER T3RUPT
000099:                                                                                                  #                LET Z  = LENGTH OF TIME TO PROCESS TASKS WHICH ARE DUE THIS T3RUPT BUT DISPATCHED EARLIER.
000100:                                                                                                  #                         (Z=0, USUALLY)
000101:                                                                                                  #                LET DELTD  = THE ACTUAL TIME TAKEN TO GIVE CONTROL TO 2CADR
000102:                                                                                                  #                THEN DELTD = TS+DELTA T -X +Y +Z +1.05MS* +COUNTERS*
000103:                                                                                                  #                *-THE TIME TAKEN BY WAITLIST ITSELF AND THE COUNTER TICKING DURING THIS WAITLIST TIME.
000104:                                                                                                  #        IN SHORT, THE ACTUAL TIME TO RETURN CONTROL TO A 2CADR IS AUGMENTED BY THE TIME TO SET UP THE TASK:S
000105:                                                                                                  #        INTERRUPT, ALL COUNTERS TICKING, THE T3RUPT PROCESSING TIME, THE WAITLIST PROCESSING TIME AND THE POSSIBILITY
000106:                                                                                                  #        OF OTHER TASKS INHIBITING THE INTERRUPT.
000107:
000108:    5173                                           BLOCK    02


000110:    5173  E3,1400                                  EBANK=   LST1                                  #  TASK LISTS IN SWITCHED E BANK.
000111:
000112:    5173                                           COUNT*   $$/WAIT
000113:    5173           00004        TWIDDLE            INHINT
000114:    5174           54001                           TS       L                                     #  SAVE DELAY TIME IN L
000115:    5175           34733                           CA       POSMAX
000116:    5176           26002                           ADS      Q                                     #  CREATING OVERFLOW AND Q-1 IN Q
000117:    5177           30006                           CA       BBANK
000118:    5200           00006                           EXTEND
000119:    5201           04007                           ROR      SUPERBNK
000120:    5202           56001                           XCH      L
000121:
000122:    5203           00004        WAITLIST           INHINT
000123:    5204           56002                           XCH      Q                                     #  SAVE DELTA T IN Q AND RETURN IN
000124:    5205           54061                           TS       WAITEXIT                              #  WAITEXIT.
000125:    5206           00006                           EXTEND
000126:    5207           50061                           INDEX    WAITEXIT                              #  IF TWIDDLING, THE TS SKIPS TO HERE
000127:    5210           30001                           DCA      0                                     #  PICK UP 2CADR OF TASK.
000128:    5211           54063                 -1        TS       WAITADR                               #  BBCON WILL REMAIN IN L
000129:    5212           35220        DLY2               CAF      WAITBB                                #  ENTRY FROM FIXDELAY AND VARDELAY.
000130:    5213           56006                           XCH      BBANK
000131:    5214           13226                           TCF      WAIT2
000132:
000133:                                                                                                  #  RETURN TO CALLER AFTER TASK INSERTION:
000134:
000135:    5215           52062        LVWTLIST           DXCH     WAITEXIT
000136:    5216           64752                           AD       TWO
000137:    5217           52006                           DTCB
000138:
000139:    5220  E3,1400                                  EBANK=   LST1
000140:    5220           02063        WAITBB             BBCON    WAIT2
000141:
000142:                                                                                                  #  RETURN TO CALLER +2 AFTER WAITING DT SPECIFIED AT CALLER +1.
000143:
000144:    5221           50002        FIXDELAY           INDEX    Q                                     #  BOTH ROUTINES MUST BE CALLED UNDER
000145:    5222           30000                           CAF      0                                     #  WAITLIST CONTROL AND TERMINATE THE TASK
000146:    5223           24002                           INCR     Q                                     #  IN WHICH THEY WERE CALLED.
000147:
000148:                                                                                                  #  RETURN TO CALLER +1 AFTER WAITING THE DT AS ARRIVING IN A.
000149:
000150:    5224           56002        VARDELAY           XCH      Q                                     #  DT TO Q.  TASK ADRES TO WAITADR.
000151:    5225           54063                           TS       WAITADR
000152:    5226           30006                           CA       BBANK                                 #  BBANK IS SAVED DURING DELAY.
000153:    5227           00006                           EXTEND
000154:    5230           04007                           ROR      SUPERBNK                              #  ADD SBANK TO BBCON.
000155:    5231           54001                           TS       L
000156:    5232           35235                           CAF      DELAYEX
000157:    5233           54061                           TS       WAITEXIT                              #  GO TO TASKOVER AFTER TASK ENTRY.
000158:    5234           15212                           TCF      DLY2
000159:


000161:    5235           15257        DELAYEX            TCF      TASKOVER   -2                         #  RETURNS TO TASKOVER
000162:


000164:                                                                                                  #  ENDTASK MUST BE ENTERED IN FIXED-FIXED SO IT IS DISTINGUISHABLE BY ITS ADRES ALONE.
000165:
000166:    5236  E3,1400                                  EBANK=   LST1
000167:    5236           72537 73714  ENDTASK            -2CADR   SVCT3
000168:
000169:    5240           10076        SVCT3              CCS      FLAGWRD2                              #  DRIFT FLAG
000170:    5241           15261                           TCF      TASKOVER
000171:    5242           15261                           TCF      TASKOVER
000172:    5243           15244                           TCF      +1
000173:
000174:    5244           11304        CKIMUSE            CCS      IMUCADR                               #  DON'T DO NBDONLY IF SOMEONE ELSE IS IN
000175:    5245           15256                           TCF      SVCT3X                                #  IMUSTALL.
000176:    5246           15251                           TCF      +3
000177:    5247           15256                           TCF      SVCT3X
000178:    5250           15256                           TCF      SVCT3X
000179:
000180:    5251           37722                 +3        CAF      PRIO35                                #  COMPENSATE FOR NBD COEFFICIENTS ONLY.
000181:    5252           05072                           TC       NOVAC                                 #        ENABLE EVERY 81.93 SECONDS
000182:    5253  E3,1460                                  EBANK=   NBDX
000183:    5253           03555 14063                     2CADR    NBDONLY
000184:
000185:    5255           15261                           TCF      TASKOVER
000186:
000187:    5256           05221        SVCT3X             TC       FIXDELAY                              #  DELAY MAX OF 2 TIMES FOR IMUZERO.
000188:    5257           00764                           DEC      500        B-14
000189:    5260           05240                           TC       SVCT3                                 #  CHECK DRIFT FLAG AGAIN.
000190:


000192:                                                                                                  #  BEGIN TASK INSERTION.
000193:
000194: 01,3226                                           BANK     01
000195: 01,3226                                           COUNT*   $$/WAIT
000196: 01,3226           54062        WAIT2              TS       WAITBANK                              #  BBANK OF CALLING PROGRAM.
000197: 01,3227           30002                           CA       Q
000198: 01,3230           00006                           EXTEND
000199: 01,3231           63520                           BZMF     WAITPOOH
000200:
000201: 01,3232           40026                           CS       TIME3
000202: 01,3233           64744                           AD       BIT8                                  #  BIT 8 = OCT 200
000203: 01,3234           10000                           CCS      A                                     #  TEST 200 - C(TIME3).  IF POSITIVE,
000204:                                                                                                  #  IT MEANS THAT TIME3 OVERFLOW HAS OCCURRED PRIOR TO CS TIME3 AND THAT
000205:                                                                                                  #  C(TIME3) = T - T1, INSTEAD OF 1.0 - (T1 - T).  THE FOLLOWING FOUR
000206:                                                                                                  #  ORDERS SET C(A) = TD - T1 + 1 IN EITHER CASE.
000207:
000208: 01,3235           66106                           AD       OCT40001                              #  OVERFLOW HAS OCCURRED.  SET C(A) =
000209: 01,3236           40000                           CS       A                                     #  T - T1 + 1.0 - 201
000210:
000211:                                                                                                  #  NORMAL CASE (C(A) NNZ) YIELDS SAME C(A):  -( -(1.0-(T1-T)) + 200) - 1
000212:
000213: 01,3237           63365                           AD       OCT40201
000214: 01,3240           60002                           AD       Q                                     #  RESULT = TD - T1 + 1.
000215:
000216: 01,3241           10000                           CCS      A                                     #  TEST TD - T1 + 1
000217:
000218: 01,3242           61400                           AD       LST1                                  #  IF TD - T1 POS, GO TO WTLST5 WITH
000219: 01,3243           13305                           TCF      WTLST5                                #  C(A) = (TD - T1) + C(LST1) = TD-T2+1
000220:
000221: 01,3244           13245                           NOOP
000222: 01,3245           40002                           CS       Q
000223:
000224:                                                                                                  #  NOTE THAT THIS PROGRAM SECTION IS NEVER ENTERED WHEN T-T1 G/E -1,
000225:                                                                                                  #  SINCE TD-T1+1 = (TD-T) + (T-T1+1), AND DELTA T = TD-T G/E +1.  (G/E
000226:                                                                                                  #  SYMBOL MEANS GREATER THAN OR EQUAL TO).  THUS THERE NEED BE NO CON-
000227:                                                                                                  #  CERN OVER A PREVIOUS OR IMMINENT OVERFLOW OF TIME3 HERE.
000228:
000229: 01,3246           64736                           AD       POS1/2                                #  WHEN TD IS NEXT, FORM QUANTITY
000230: 01,3247           64736                           AD       POS1/2                                #        1.0 - DELTA T = 1.0 - (TD - T)
000231: 01,3250           56026                           XCH      TIME3
000232: 01,3251           64735                           AD       NEGMAX
000233: 01,3252           60002                           AD       Q                                     #  1.0 - DELTAT T NOW COMPLETE.
000234: 01,3253           00006                           EXTEND                                         #  ZERO INDEX Q.
000235: 01,3254           22007                           QXCH     7                                     #  (ZQ)
000236:


000238: 01,3255           57400        WTLST4             XCH      LST1
000239: 01,3256           57401                           XCH      LST1       +1
000240: 01,3257           57402                           XCH      LST1       +2
000241: 01,3260           57403                           XCH      LST1       +3
000242: 01,3261           57404                           XCH      LST1       +4
000243: 01,3262           57405                           XCH      LST1       +5
000244: 01,3263           57406                           XCH      LST1       +6
000245: 01,3264           57407                           XCH      LST1       +7
000246:
000247: 01,3265           30063                           CA       WAITADR                               #  (MINOR PART OF TASK CADR HAS BEEN IN L.)
000248: 01,3266           50002                           INDEX    Q
000249: 01,3267           13270                           TCF      +1
000250:
000251: 01,3270           53411                           DXCH     LST2
000252: 01,3271           53413                           DXCH     LST2       +2
000253: 01,3272           53415                           DXCH     LST2       +4
000254: 01,3273           53417                           DXCH     LST2       +6
000255: 01,3274           53421                           DXCH     LST2       +8D
000256: 01,3275           53423                           DXCH     LST2       +10D                       #  AT END, CHECK THAT C(LST2 +10) IS STD
000257: 01,3276           53425                           DXCH     LST2       +12D
000258: 01,3277           53427                           DXCH     LST2       +14D
000259: 01,3300           53431                           DXCH     LST2       +16D
000260: 01,3301           65236                           AD       ENDTASK                               #  END ITEM, AS CHECK FOR EXCEEDING
000261:                                                                                                  #  THE LENGTH OF THE LIST.
000262: 01,3302           00006                           EXTEND                                         #  DUMMY TASK ADRES SHOULD BE IN FIXED-
000263: 01,3303           15215                           BZF      LVWTLIST                              #  FIXED SO ITS ADRES ALONE DISTINGUISHES
000264: 01,3304           13360                           TCF      WTABORT                               #  IT.
000265:


000267: 01,3305           10000        WTLST5             CCS      A                                     #  TEST TD - T2 + 1
000268: 01,3306           61401                           AD       LST1       +1
000269: 01,3307           13313                           TCF      +4
000270: 01,3310           64753                           AD       ONE
000271: 01,3311           03371                           TC       WTLST2
000272: 01,3312           00001                           OCT      1
000273:
000274: 01,3313           10000                 +4        CCS      A                                     #  TEST TD - T3 + 1
000275: 01,3314           61402                           AD       LST1       +2
000276: 01,3315           13321                           TCF      +4
000277: 01,3316           64753                           AD       ONE
000278: 01,3317           03371                           TC       WTLST2
000279: 01,3320           00002                           OCT      2
000280:
000281: 01,3321           10000                 +4        CCS      A                                     #  TEST TD - T4 + 1
000282: 01,3322           61403                           AD       LST1       +3
000283: 01,3323           13327                           TCF      +4
000284: 01,3324           64753                           AD       ONE
000285: 01,3325           03371                           TC       WTLST2
000286: 01,3326           00003                           OCT      3
000287:
000288: 01,3327           10000                 +4        CCS      A                                     #  TEST TD - T5 + 1
000289: 01,3330           61404                           AD       LST1       +4
000290: 01,3331           13335                           TCF      +4
000291: 01,3332           64753                           AD       ONE
000292: 01,3333           03371                           TC       WTLST2
000293: 01,3334           00004                           OCT      4
000294:
000295: 01,3335           10000                 +4        CCS      A                                     #  TEST TD - T6 + 1
000296: 01,3336           61405                           AD       LST1       +5
000297: 01,3337           13343                           TCF      +4
000298: 01,3340           64753                           AD       ONE
000299: 01,3341           03371                           TC       WTLST2
000300: 01,3342           00005                           OCT      5
000301:
000302: 01,3343           10000                 +4        CCS      A                                     #  TEST TD - T7 + 1
000303: 01,3344           61406                           AD       LST1       +6
000304: 01,3345           13351                           TCF      +4
000305: 01,3346           64753                           AD       ONE
000306: 01,3347           03371                           TC       WTLST2
000307: 01,3350           00006                           OCT      6
000308:


000310: 01,3351           10000                 +4        CCS      A
000311: 01,3352           61407                           AD       LST1       +7
000312: 01,3353           13357                           TCF      +4
000313: 01,3354           64753                           AD       ONE
000314: 01,3355           03371                           TC       WTLST2
000315: 01,3356           00007                           OCT      7
000316:
000317: 01,3357           10000                 +4        CCS      A
000318: 01,3360           03366        WTABORT            TC       FILLED
000319: 01,3361           13362                           NOOP                                           #  CAN'T GET HERE
000320: 01,3362           64753                           AD       ONE
000321: 01,3363           03371                           TC       WTLST2
000322: 01,3364           00010                           OCT      10
000323:
000324: 01,3365           40201        OCT40201           OCT      40201
000325:


000327: 01,3366           52062        FILLED             DXCH     WAITEXIT
000328: 01,3367           05710                           TC       BAILOUT1                              #  NO ROOM IN THE INN
000329: 01,3370           01203                           OCT      01203
000330:


000332:                                                                                                  #  THE ENTRY TO WTLST2 JUST PRECEDING OCT N IS FOR T  LE TD LE T   -1.
000333:                                                                                                  #                                                   N           N+1
000334:                                                                                                  #  (LE MEANS LESS THAN OR EQUAL TO).  AT ENTRY, C(A) = -(TD - T   + 1)
000335:                                                                                                  #                                                              N+1
000336:                                                                                                  #  THE LST1 ENTRY -(T   -T +1) IS TO BE REPLACED BY -(TD - T  + 1), AND
000337:                                                                                                  #                    N+1  N                                 N
000338:                                                                                                  #  THE ENTRY -(T   - TD + 1) IS TO BE INSERTED IMMEDIATELY FOLLOWING.
000339:                                                                                                  #               N+1
000340:
000341: 01,3371           54064        WTLST2             TS       WAITTEMP                              #  C(A) = -(TD - T + 1)
000342: 01,3372           50002                           INDEX    Q
000343: 01,3373           30000                           CAF      0
000344: 01,3374           54002                           TS       Q                                     #  INDEX VALUE INTO Q.
000345:
000346: 01,3375           34753                           CAF      ONE
000347: 01,3376           60064                           AD       WAITTEMP
000348: 01,3377           50002                           INDEX    Q                                     #  C(A) = -(TD - T ) + 1.
000349: 01,3400           27377                           ADS      LST1       -1                         #                 N
000350:
000351: 01,3401           40064                           CS       WAITTEMP
000352: 01,3402           50002                           INDEX    Q
000353: 01,3403           13255                           TCF      WTLST4
000354:
000355:                                                                                                  #        C(TIME3)        =       1.0 - (T1 - T)
000356:
000357:                                                                                                  #        C(LST1  )       =       - (T2 - T1) + 1
000358:                                                                                                  #        C(LST1+1)       =       - (T3 - T2) + 1
000359:                                                                                                  #        C(LST1+2)       =       - (T4 - T3) + 1
000360:                                                                                                  #        C(LST1+3)       =       - (T5 - T4) + 1
000361:                                                                                                  #        C(LST1+4)       =       - (T6 - T5) + 1
000362:
000363:                                                                                                  #        C(LST2   )      =       2CADR TASK1
000364:                                                                                                  #        C(LST2+2 )      =       2CADR TASK2
000365:                                                                                                  #        C(LST2+4 )      =       2CADR TASK3
000366:                                                                                                  #        C(LST2+6 )      =       2CADR TASK4
000367:                                                                                                  #        C(LST2+8 )      =       2CADR TASK5
000368:                                                                                                  #        C(LST2+10)      =       2CADR TASK6
000369:


000371:                                                                                                  #  ENTERS HERE ON T3 RUPT TO DISPATCH WAITLISTED TASK.
000372:
000373: 01,3404           00006        T3RUPT             EXTEND
000374: 01,3405           04007                           ROR      SUPERBNK                              #  READ CURRENT SUPERBANK VALUE AND
000375: 01,3406           54016                           TS       BANKRUPT                              #  SAVE WITH E AND F BANK VALUES.
000376: 01,3407           00006                           EXTEND
000377: 01,3410           22012                           QXCH     QRUPT
000378:
000379: 01,3411           34734        T3RUPT2            CAF      NEG1/2                                #  DISPATCH WAITLIST TASK.
000380: 01,3412           57407                           XCH      LST1       +7
000381: 01,3413           57406                           XCH      LST1       +6
000382: 01,3414           57405                           XCH      LST1       +5
000383: 01,3415           57404                           XCH      LST1       +4                         #  1. MOVE UP LST1 CONTENTS, ENTERING
000384: 01,3416           57403                           XCH      LST1       +3                         #     A VALUE OF 1/2 +1 AT THE BOTTOM
000385: 01,3417           57402                           XCH      LST1       +2                         #     FOR T6-T5, CORRESPONDING TO THE
000386: 01,3420           57401                           XCH      LST1       +1                         #     INTERVAL 81.91 SEC FOR ENDTASK.
000387: 01,3421           57400                           XCH      LST1
000388: 01,3422           64733                           AD       POSMAX                                #  2. SET T3 = 1.0 - T2 - T USING LIST 1.
000389: 01,3423           26026                           ADS      TIME3                                 #  SO T3 WONT TICK DURING UPDATE.
000390: 01,3424           54734                           TS       RUPTAGN
000391: 01,3425           44755                           CS       ZERO
000392: 01,3426           54734                           TS       RUPTAGN                               #  SETS RUPTAGN TO +1 ON OVERFLOW.
000393:
000394: 01,3427           00006                           EXTEND                                         #  DISPATCH TASK.
000395: 01,3430           45237                           DCS      ENDTASK
000396: 01,3431           53431                           DXCH     LST2       +16D
000397: 01,3432           53427                           DXCH     LST2       +14D
000398: 01,3433           53425                           DXCH     LST2       +12D
000399: 01,3434           53423                           DXCH     LST2       +10D
000400: 01,3435           53421                           DXCH     LST2       +8D
000401: 01,3436           53417                           DXCH     LST2       +6
000402: 01,3437           53415                           DXCH     LST2       +4
000403: 01,3440           53413                           DXCH     LST2       +2
000404: 01,3441           53411                           DXCH     LST2
000405:
000406: 01,3442           56001                           XCH      L
000407: 01,3443           00006                           EXTEND
000408: 01,3444           01007                           WRITE    SUPERBNK                              #  SET SUPERBANK FROM BBCON OF 2CADR
000409: 01,3445           56001                           XCH      L                                     #  RESTORE TO L FOR DXCH Z.
000410: 01,3446           52006                           DTCB
000411:


000413:                                                                                                  #  RETURN, AFTER EXECUTION OF T3 OVERFLOW TASK:
000414:
000415:    5261                                           BLOCK    02
000416:    5261                                           COUNT*   $$/WAIT
000417:    5261           10734        TASKOVER           CCS      RUPTAGN                               #  IF +1 RETURN TO T3RUPT, IF -0 RESUME.
000418:    5262           35220                           CAF      WAITBB
000419:    5263           54006                           TS       BBANK
000420:    5264           13411                           TCF      T3RUPT2                               #  DISPATCH NEXT TASK IF IT WAS DUE.
000421:
000422:    5265           30016                           CA       BANKRUPT
000423:    5266           00006                           EXTEND
000424:    5267           01007                           WRITE    SUPERBNK                              #  RESTORE SUPERBANK BEFORE RESUME IS DONE
000425:
000426:    5270           00006        RESUME             EXTEND
000427:    5271           22012                           QXCH     QRUPT
000428:    5272           30016        NOQRSM             CA       BANKRUPT
000429:    5273           56006                           XCH      BBANK
000430:    5274           52011        NOQBRSM            DXCH     ARUPT
000431:    5275           00003                           RELINT
000432:    5276           50017                           RESUME
000433:


000435:                                                                                                  #  LONGCALL
000436:                                                                                                  #  PROGRAM DESCRIPTION                           DATE - 17 MARCH 1967
000437:                                                                                                  #  PROGRAM WRITTEN BY W.H.VANDEVER               LOG SECTION WAITLIST
000438:                                                                                                  #  MOD BY - R. MELANSON TO ADD DOCUMENTATION     ASSEMBLY SUNDISK REV. 100
000439:
000440:                                                                                                  #  FUNCTIONAL DESCRIPTION -
000441:                                                                                                  #        LONGCALL IS CALLED WITH THE DELTA TIME ARRIVING IN A,L SCALED AS TIME2,TIME1 WITH THE 2CADR OF THE TASK
000442:                                                                                                  #        IMMEDIATELY FOLLOWING THE TC LONGCALL.  FOR EXAMPLE, IT MIGHT BE DONE AS FOLLOWS WHERE TIMELOC IS THE NAME OF
000443:                                                                                                  #        A DP REGISTER CONTAINING A DELTA TIME AND WHERE TASKTODO IS THE NAME OF THE LOCATION AT WHICH LONGCALL IS TO
000444:                                                                                                  #        START
000445:                                                                                                  #  CALLING SEQUENCE -
000446:                                                                                                  #                EXTEND
000447:                                                                                                  #                DCA     TIMELOC
000448:                                                                                                  #                TC      LONGCALL
000449:                                                                                                  #                2CADR   TASKTODO
000450:                                                                                                  #  NORMAL EXIT MODE -
000451:                                                                                                  #        1).     TC      WAITLIST
000452:                                                                                                  #        2).     DTCB    (TO L+3 OF CALLING ROUTINE 1ST PASS THRU LONGCYCL)
000453:                                                                                                  #        3).     DTCB    (TO TASKOVER ON SUBSEQUENT PASSES THRU LONGCYCL)
000454:                                                                                                  #  ALARM OR ABORT EXIT MODE -
000455:                                                                                                  #        NONE
000456:                                                                                                  #  OUTPUT -
000457:                                                                                                  #        LONGTIME AND LONGTIME+1 = DELTA TIME
000458:                                                                                                  #        LONGEXIT AND LONGEXIT+1 = RETURN 2CADR
000459:                                                                                                  #        LONGCADR AND LONGCADR+1 = TASK 2CADR
000460:                                                                                                  #        A = SINGLE PRECISION TIME FOR WAITLIST
000461:                                                                                                  #  ERASABLE INITIALIZATION -
000462:                                                                                                  #        A = MOST SIGNIFICANT PART OF DELTA TIME
000463:                                                                                                  #        L = LEAST SIGNIFICANT PART OF DELTA TIME
000464:                                                                                                  #        Q = ADDRESS OF 2CADR TASK VALUE
000465:                                                                                                  #  DEBRIS -
000466:                                                                                                  #        A,Q,L
000467:                                                                                                  #        LONGCADR AND LONGCADR+1
000468:                                                                                                  #        LONGEXIT AND LONGEXIT+1
000469:                                                                                                  #        LONGTIME AND LONGTIME+1
000470:                                                                                                  #  *** THE FOLLOWING IS TO BE IN FIXED-FIXED AND UNSWITCHED ERRASIBLE ***
000471:
000472:    5277                                           BLOCK    02
000473:    5277  E3,1400                                  EBANK=   LST1
000474:    5277           53154        LONGCALL           DXCH     LONGTIME                              #  OBTAIN THE DELTA TIME
000475:
000476:    5300           00006                           EXTEND                                         #  OBTAIN THE 2CADR


000478:    5301           50002                           NDX      Q
000479:    5302           30001                           DCA      0
000480:    5303           53150                           DXCH     LONGCADR
000481:
000482:    5304           00006                           EXTEND                                         #  NOW GO TO THE APPROPRIATE SWITCHED BANK
000483:    5305           35310                           DCA      LGCL2CDR                              #  FOR THE REST OF LONGCALL
000484:    5306           52006                           DTCB
000485:
000486:    5307  E3,1400                                  EBANK=   LST1
000487:    5307           03447 02063  LGCL2CDR           2CADR    LNGCALL2
000488:
000489:                                                                                                  #  *** THE FOLLOWING MAY BE IN A SWITCHED BANK, INCLUDING ITS ERASABLE ***
000490:
000491: 01,3447                                           BANK     01
000492: 01,3447                                           COUNT*   $$/WAIT
000493: 01,3447           23435        LNGCALL2           LXCH     LONGEXIT   +1                         #  SAVE THE CORRECT BB FOR RETURN
000494: 01,3450           34752                           CA       TWO                                   #  OBTAIN THE RETURN ADDRESS
000495: 01,3451           26002                           ADS      Q
000496: 01,3452           55434                           TS       LONGEXIT
000497:
000498: 01,3453           31153                           CA       LONGTIME                              #  CHECK FOR LEGITIMATE DELTA-TIME
000499: 01,3454           10000                           CCS      A
000500: 01,3455           13463                           TCF      LONGCYCL                              #  HI-ORDER OK --> ALL IS OK.
000501: 01,3456           13460                           TCF      +2                                    #  HI-ORDER ZERO --> CHECK LO-ORDER.
000502: 01,3457           13516                           TCF      LONGPOOH                              #  HI-ORDER NEG. --> NEG. DT
000503: 01,3460           31154                 +2        CA       LONGTIME   +1                         #  CHECK LO-ORDER FOR ZERO OR NEGATIVE.
000504: 01,3461           00006                           EXTEND
000505: 01,3462           63516                           BZMF     LONGPOOH                              #  BAD DELTA-TIME.  ABORT
000506:
000507:                                                                                                  #  *** WAITLIST TASK LONGCYCL ***
000508:
000509: 01,3463           00006        LONGCYCL           EXTEND                                         #  CAN WE SUCCESFULLY TAKE ABOUT 1.25
000510: 01,3464           43475                           DCS      DPBIT14                               #  MINUTES OFF OF LONGTIME
000511: 01,3465           21154                           DAS      LONGTIME
000512:
000513: 01,3466           11154                           CCS      LONGTIME   +1                         #  THE REASONIBG BEHIND THIS PART IS
000514: 01,3467           13506                           TCF      MUCHTIME                              #  INVOLVED, TAKING INTO ACCOUNT THAT THE
000515:                                                                                                  #  WORDS MAY NOT BE SIGNED CORRECTED (DP
000516:                                                                                                  #  BASIC INSTRUCTIONS
000517:                                                                                                  #  DO NOT SIGN CORRECT) AND THAT WE SUBTRAC
000518:                                                                                                  #  TED BIT14 (1 OVER HALF THE POS. VALUE
000519:                                                                                                  #  REPRESENTIBLE IN SINGLE WORD)
000520: 01,3470           13471                           NOOP                                           #  CAN:T GET HERE **********
000521: 01,3471           13472                           TCF      +1
000522: 01,3472           11153                           CCS      LONGTIME
000523: 01,3473           13506                           TCF      MUCHTIME
000524: 01,3474           00000        DPBIT14            OCT      00000
000525: 01,3475           20000                           OCT      20000
000526:
000527:                                                                                                  #  LONGCALL


000529: 01,3476           34736        LASTTIME           CA       BIT14                                 #  GET BACK THE CORRECT DELTA TFOR WAITLIST
000530: 01,3477           27154                           ADS      LONGTIME   +1
000531: 01,3500           05203                           TC       WAITLIST
000532: 01,3501  E3,1400                                  EBANK=   LST1
000533: 01,3501           03513 02063                     2CADR    GETCADR                               #  THE ENTRY TO OUR LONGCADR
000534:
000535: 01,3503           33515        LONGRTRN           CA       TSKOVCDR                              #  SET IT UP SO THAT ONLY THE FIRST EXIT IS
000536: 01,3504           53435                           DXCH     LONGEXIT                              #  TO THE CALLER OF LONGCALL
000537: 01,3505           52006                           DTCB                                           #  THE REST ARE TO TASKOVER
000538:
000539: 01,3506           34736        MUCHTIME           CA       BIT14                                 #  WE HAVE OVER OUR ABOUT 1.25 MINUTES
000540: 01,3507           05203                           TC       WAITLIST                              #  SO SET UP FOR ANOTHER CYCLE THROUGH HERE
000541: 01,3510  E3,1400                                  EBANK=   LST1
000542: 01,3510           03463 02063                     2CADR    LONGCYCL
000543:
000544: 01,3512           13503                           TCF      LONGRTRN                              #  NOW EXIT PROPERLY
000545:
000546:                                                                                                  #  *** WAITLIST TASK GETCADR ***
000547:
000548: 01,3513           53150        GETCADR            DXCH     LONGCADR                              #  GET THE LONGCALL THAT WE WISHED TO START
000549: 01,3514           52006                           DTCB                                           #  AND TRANSFER CONTROL TO IT
000550:
000551: 01,3515           05261        TSKOVCDR           GENADR   TASKOVER
000552: 01,3516           53435        LONGPOOH           DXCH     LONGEXIT
000553: 01,3517           13521                           TCF      +2
000554: 01,3520           52062        WAITPOOH           DXCH     WAITEXIT
000555: 01,3521           05720                 +2        TC       POODOO1
000556: 01,3522           01204                           OCT      01204
000557:

End of include-file WAITLIST.agc.  Parent file is MAIN.agc


