
Source Code


000002:                                                                                                  ## Copyright:   Public domain.
000003:                                                                                                  ## Filename:    DISPLAY_INTERFACE_ROUTINES.agc
000004:                                                                                                  ## Purpose:     A section of Comanche revision 051.
000005:                                                                                                  ##              It is part of the reconstructed source code for the
000006:                                                                                                  ##              original release of the flight software for the Command
000007:                                                                                                  ##              Module's (CM) Apollo Guidance Computer (AGC) for Apollo 11.
000008:                                                                                                  ##              The code has been recreated from a copy of Comanche 055. It
000009:                                                                                                  ##              has been adapted such that the resulting bugger words
000010:                                                                                                  ##              exactly match those specified for Comanche 51 in NASA drawing
000011:                                                                                                  ##              2021153D, which gives relatively high confidence that the
000012:                                                                                                  ##              reconstruction is correct.
000013:                                                                                                  ## Reference:   pp. 1452-1484
000014:                                                                                                  ## Assembler:   yaYUL
000015:                                                                                                  ## Contact:     Ron Burkey <info@sandroid.org>.
000016:                                                                                                  ## Website:     www.ibiblio.org/apollo/index.html
000017:                                                                                                  ## Mod history: 2019-07-30 MAS  Created from Comanche 55.
000018:


000020:                                                                                                  #  DISPLAYS CAN BE CLASSIFIED INTO THE FOLLOWING CATEGORIES-
000021:                                                                                                  #        1.  PRIORITY DISPLAYS - DISPLAYS WHICH TAKE PRIORITY OVER ALL OTHER DISPLAYS.  USUALLY THESE DISPLAYS ARE SENT
000022:                                                                                                  #            OUT UNDER CRITICAL ALARM CONDITIONS.
000023:                                                                                                  #        2.  EXTENDED VERB DISPLAYS - ALL EXTENDED VERBS AND MARK ROUTINES SHOULD USE EXTENDED VERB (MARK) DISPLAYS.
000024:                                                                                                  #        3.  NORMAL DISPLAYS - ALL MISSION PROGRAM DISPLAYS WHICH INTERFACE WITH THE ASTRONAUT DURING THE NORMAL
000025:                                                                                                  #            SEQUENCE OF EVENTS.
000026:                                                                                                  #        4.  MISC. DISPLAYS - ALL DISPLAYS NOT HANDLED BY THE DISPLAY INTERFACE ROUTINES.  THESE INCLUDE SUCH DISPLAYS AS
000027:                                                                                                  #            MM DISPLAYS AND SPECIAL PURPOSE DISPLAYS HANDLED BY PINBALL.
000028:                                                                                                  #        5.  ASTRONAUT INITIATED DISPLAYS - ALL DISPLAYS INITIATED EXTERNALLY.
000029:
000030:                                                                                                  #  THE FOLLOWING TERMS ARE USED TO DESCRIBE THE STATUS OF DISPLAYS-
000031:                                                                                                  #        1.  ACTIVE - THE DISPLAY WHICH IS (1) BEING DISPLAYED TO THE ASTRONAUT AND WAITING FOR A RESPONSE OR
000032:                                                                                                  #            (2) WAITING FIRST IN LINE FOR THE ASTRONAUT TO FINISH USING THE DSKY OR (3) BEING DISPLAYED ON THE DSKY
000033:                                                                                                  #            BUT NOT WAITING FOR A RESPONSE.
000034:                                                                                                  #        2.  INACTIVE - A DISPLAY WHICH HAS (1) BEEN ACTIVE BUT WAS INTERRUPTED BY A DISPLAY OF HIGHER PRIORITY,
000035:                                                                                                  #            (2) BEEN PUT INTO THE WAITING LIST AT TIME IT WAS REQUESTED DUE TO THE FACT A HIGHER PRIORITY DISPLAY
000036:                                                                                                  #            WAS ALREADY GOING, (3) BEEN INTERRUPTED BY THE ASTRONAUT (CALLED A PINBRANCH CONDITION, SINCE THIS TYPE
000037:                                                                                                  #            OF INACTIVE DISPLAY IS USUALLY REACTIVATED ONLY BY PINBALL) OR (4) A DISPLAY WHICH HAS FINISHED BUT STILL
000038:                                                                                                  #            HAS INFO SAVED FOR RESTART PURPOSES.
000039:
000040:                                                                                                  #  DISPLAY PRIORITIES WORK AS FOLLOWS-
000041:                                                                                                  #        INTERRUPTS -
000042:                                                                                                  #                1.  THE ASTRONAUT CAN INTERRUPT ANY DISPLAY WITH AN EXTERNAL DISPLAY REQUEST.
000043:                                                                                                  #                2.  INTERNAL DISPLAYS CAN NOT BE SENT OUT WHEN THE ASTRONAUT IS USING THE DSKY.
000044:                                                                                                  #                3.  PRIORITY DISPLAYS INTERRUPT ALL OTHER TYPES OF INTERNAL DISPLAYS.  A PRIORITY DISPLAY INTERRUPTING ANOTHER
000045:                                                                                                  #                    PRIORITY DISPLAY WILL CAUSE AN ABORT UNLESS BIT14 IS SET FOR THE LINUS ROUTINE.
000046:                                                                                                  #                4.  A MARK DISPLAY INTERRUPTS ANY NORMAL DISPLAY.
000047:                                                                                                  #                5.  A MARK THAT INTERRUPTS A MARK COMPLETELY REPLACES IT.
000048:
000049:                                                                                                  #        ORDER OF WAITING DISPLAYS-
000050:                                                                                                  #                1.  ASTRONAUT EXTERNAL USE
000051:                                                                                                  #                2.  PRIORITY
000052:                                                                                                  #                3.  INTERRUPTED MARK
000053:                                                                                                  #                4.  INTERRUPTED NORMAL
000054:                                                                                                  #                5.  MARK TO BE REQUESTED (SEE DESCRIPTION OF ENDMARK)
000055:                                                                                                  #                6.  MARK WAITING
000056:                                                                                                  #                7.  NORMAL WAITING
000057:


000059:                                                                                                  #  THE DISPLAY ROUTINES ARE INTENDED TO SERVE AS AN INTERFACE BETWEEN THE USER AND PINBALL.  THE
000060:                                                                                                  #  FOLLOWING STATEMENTS CAN BE MADE ABOUT NORMAL DISPLAYS AND PRIORITY DISPLAYS (A DESCRIPTION OF MARK ROUTINES
000061:                                                                                                  #  WILL FOLLOW LATER):
000062:                                                                                                  #        1.  ALL ROUTINES THAT END IN R HAVE AN IMMEDIATE RETURN TO THE USER.  FOR ALL FLASHING DISPLAYS THIS RETURN
000063:                                                                                                  #            IS TO THE USERS CALL CADR +4.  FOR THE ONLY NON FLASHING IMMEDIATE RETURN DISPLAY (GODSPR) THIS RETURN
000064:                                                                                                  #            IS TO THE USERS CALLING LOC +1.
000065:                                                                                                  #        2.  ALL ROUTINES NOT ENDING IN R DO NOT DO AN IMMEDIATE RETURN TO THE USER.
000066:                                                                                                  #        3.  ALL ROUTINES THAT END IN R START A SEPARATE JOB (MAKEPLAY) WITH USERS JOB PRIORITY.
000067:                                                                                                  #        4.  ALL ROUTINES NOT ENDING IN R BRANCH DIRECTLY TO MAKEPLAY WHICH MAKES THESE DISPLAYS A PART OF THE
000068:                                                                                                  #            USERS JOB.
000069:                                                                                                  #        5.  ALL DISPLAY ROUTINES ARE CALLED VIA BANKCALL.
000070:                                                                                                  #        6.  TO RESTART A DISPLAY THE USER WILL GENERALLY USE A PHASE OF ONE WITH DESIRED RESTART GROUP (SEE
000071:                                                                                                  #            DESCRIPTION OF RESTARTS).
000072:                                                                                                  #        7.  ALL FLASHING DISPLAYS HAVE 3 RETURNS TO THE USER FROM ASTRONAUT RESPONSES.  A TERMINATE (V34) BRANCHES
000073:                                                                                                  #            TO THE USERS CALL CADR +1.  A PROCEED (V33) BRANCHES TO THE USERS CALL CADR +2.  AN ENTER OR RECYCLE
000074:                                                                                                  #            (V32) BRANCHES TO THE USERS CALL CADR +3.
000075:                                                                                                  #        8.  ALL ROUTINES MUST BE USED UNDER EXECUTIVE CONTROL.
000076:
000077:                                                                                                  #  A DESCRIPTION OF EACH ROUTINE WITH AN EXAMPLE FOLLOWS:
000078:
000079:                                                                                                  #        GODSP IS USED TO DISPLAY A VERB NOUN ARRIVING IN A.  NO RETURN IS MADE TO THE USER.
000080:                                                                                                  #                1.  GODSP IS NOT RESTARTABLE
000081:                                                                                                  #                2.  A VERB PASTE WITH GODSP ALWAYS TURNS ON THE FLASH.
000082:                                                                                                  #                                CAF     VXXNYY
000083:                                                                                                  #                                TC      BANKCALL
000084:                                                                                                  #                                CADR    GODSP
000085:                                                                                                  #                        VXXNYY  OCT     0XXYY
000086:
000087:                                                                                                  #        GODSPR IS THE SAME AS GODSP ONLY RETURN IS TO THE USER.
000088:                                                                                                  #                                CAF     VXXNYY
000089:                                                                                                  #                                TC      BANKCALL
000090:                                                                                                  #                                CADR    GODSPR
000091:                                                                                                  #                                ...     ...             IMMEDIATE RETURN OF GODSPR
000092:
000093:                                                                                                  #        GOFLASH DISPLAYS A FLASHING VERB NOUN WITH NO IMMEDIATE RETURN TO THE USER.  3 RETURNS ARE POSSIBLE FROM
000094:                                                                                                  #        THE ASTRONAUT (SEE NO. 7 ABOVE).
000095:                                                                                                  #                                CAF     VXXNYY          VXX NYY WILL BE A FLASHING VERB NOUN.
000096:                                                                                                  #                                TC      BANKCALL
000097:                                                                                                  #                                CADR    GOFLASH
000098:                                                                                                  #                                ...     ...             TERMINATE RETURN
000099:                                                                                                  #                                ...     ...             PROCEED RETURN
000100:                                                                                                  #                                ...     ...             ENTER OR RECYCLE RETURN
000101:
000102:                                                                                                  #        GOPERF1 IS ENTERED WITH DESIRED CHECKLIST VALUE IN A.  GOPERF1 WILL DISPLAY THIS VALUE IN R1 BY MEANS OF A


000104:                                                                                                  #        V01 N25.  A FLASHING PLEASE PERFORM ON CHECKLIST (V50 N25) IS THEN DISPLAYED.  NO IMMEDIATE RETURN IS MADE TO
000105:                                                                                                  #        USER (SEE NO. 7 ABOVE).
000106:                                                                                                  #        GOPERF1 BLANKS REGISTERS R2 AND R3
000107:                                                                                                  #                                CAF     OCTXX           CODE FOR CHECKLIST VALUE XX
000108:                                                                                                  #                                TC      BANKCALL
000109:                                                                                                  #                                CADR    GOPERF1
000110:                                                                                                  #                                ...     ...             TERMINATE RETURN
000111:                                                                                                  #                                ...     ...             PROCEED RETURN
000112:                                                                                                  #                                ...     ...             ENTER RETURN
000113:                                                                                                  #        GOPERF2 IS ENTERED WITH A VARIABLE NOUN AND V01 (V00 FOR N10 OR N11) IN A.  GOPERF2 WILL FIRST DISPLAY THE
000114:                                                                                                  #        REQUESTED NOUN BY MEANS OF A V01NYY OR A V00NYY.  PLEASE PERFORM ON NOUN (V50 NYY) THEN BECOMES A FLASHING
000115:                                                                                                  #        DISPLAY.  NO IMMEDIATE RETURN IS MADE TO THE USER (SEE NO. 7 ABOVE).
000116:                                                                                                  #        GOPERF2 DOES NOT BLANK ANY REGISTERS
000117:                                                                                                  #                                CAF     VXXNYY          VARIABLE NOUN YY. XX=00 OR 01.
000118:                                                                                                  #                                TC      BANKCALL
000119:                                                                                                  #                                CADR    GOPERF2
000120:                                                                                                  #                                ...     ...             TERMINATE RETURN
000121:                                                                                                  #                                ...     ...             PROCEED RETURN
000122:                                                                                                  #                                ...     ...             ENTER RETURN
000123:                                                                                                  #        GOPERF3 IS USED FOR A PLEASE PERFORM ON A PROGRAM NUMBER.  THE DESIRED PROGRAM NO. IS ENTERED IN A.  GOPERF3
000124:                                                                                                  #        DISPLAYS THE NO. BY MEANS OF A V06 N07 FOLLOWED BY A FLASHING V50 N07 FOR A PLEASE PERFORM.  NO IMMEDIATE RETURN
000125:                                                                                                  #        IS MADE TO THE USER (SEE NO. 7 ABOVE).
000126:                                                                                                  #        GOPERF3 BLANKS REGISTERS R2 AND R3
000127:                                                                                                  #                                CAF     DECXX           REQUEST PERFORM ON PXX
000128:                                                                                                  #                                TC      BANKCALL
000129:                                                                                                  #                                CADR    GOPERF3
000130:                                                                                                  #                                ...     ...             TERMINATE RETURN
000131:                                                                                                  #                                ...     ...             PROCEED RETURN
000132:                                                                                                  #                                ...     ...             ENTER RETURN
000133:
000134:                                                                                                  #        GOPERF4 IS USED FOR A PLEASE PERFORM ON AN OPTION.  THE DESIRED OPTION IS ENTERED IN A AND STORED IN OPTION1.
000135:                                                                                                  #        GOPERF4 DISPLAYS R1 AND R2 BY MEANS OF A V04N06 FOLLOWED BY A FLASHING V50N06 FOR A PLEASE PERFORM.  NO
000136:                                                                                                  #        IMMEDIATE RETURN IS MADE TO THE USER (SEE NO. 7 ABOVE).
000137:                                                                                                  #                                CAF     OCTXX           REQUEST PERFORM ON OPTION XX
000138:                                                                                                  #                                TC      BANKCALL
000139:                                                                                                  #                                CADR    GOPERF4
000140:                                                                                                  #                                ...     ...             TERMINATE RETURN
000141:                                                                                                  #                                ...     ...             PROCEED RETURN
000142:                                                                                                  #                                ...     ...             ENTER RETURN
000143:                                                                                                  #        GOPERF4 BLANKS REGISTER R3
000144:


000146:                                                                                                  #        GODSPRET IS USED TO DISPLAY A VERB NOUN ARRIVING IN A WITH A RETURN TO THE USER AFTER THE DISPLAY HAS BEEN SENT
000147:                                                                                                  #        OUT.
000148:                                                                                                  #                                CAF     VXXNYY
000149:                                                                                                  #                                TC      BANKCALL
000150:                                                                                                  #                                CADR    GODSPRET
000151:                                                                                                  #                                ...     ...             RETURN TO USER
000152:
000153:                                                                                                  #        REGODSP IS USED TO DISPLAY A VERB NOUN ARRIVING IN A.  REGODSP IS THE SAME AS GODSP ONLY REGODSP REPLACES ANY
000154:                                                                                                  #        ACTIVE NORMAL DISPLAY IF ONE WAS ACTIVE.
000155:                                                                                                  #                                CAF     VXXNYY
000156:                                                                                                  #                                TC      BANKCALL
000157:                                                                                                  #                                CADR    REGODSP
000158:
000159:                                                                                                  #        REFLASH IS THE SAME AS GOFLASH ONLY REFLASH REPLACES ANY ACTIVE NORMAL DISPLAY IF ONE WAS ACTIVE.
000160:                                                                                                  #                                CAF     VXXNYY          VXX NYY WILL BE A FLASHING VERB NOUN
000161:                                                                                                  #                                TC      BANKCALL
000162:                                                                                                  #                                CADR    REFLASH
000163:                                                                                                  #                                ...     ...             TERMINATE RETURN
000164:                                                                                                  #                                ...     ...             PROCEED RETURN
000165:                                                                                                  #                                ...     ...             ENTER RETURN
000166:
000167:                                                                                                  #        GOFLASHR IS SAME AS GOFLASH ONLY AN IMMEDIATE RETURN IS MADE TO THE USERS CALL CADR +4.
000168:                                                                                                  #                                CAF     VXXNYY
000169:                                                                                                  #                                TC      BANKCALL
000170:                                                                                                  #                                CADR    GOFLASHR
000171:                                                                                                  #                                ...     ...             TERMINATE RETURN
000172:                                                                                                  #                                ...     ...             PROCEED RETURN
000173:                                                                                                  #                                ...     ...             ENTER OR RECYCLE RETURN
000174:                                                                                                  #                                ...     ...             IMMEDIATE RETURN FROM GOFLASHR
000175:
000176:                                                                                                  #        GOPERF1R IS THE SAME AS GOPERF1 ONLY GOPERF1R HAS AN IMMEDIATE RETURN TO USERS CALL CADR +4.
000177:                                                                                                  #        GOPERF1R BLANKS REGISTERS R2 AND R3
000178:                                                                                                  #                                CAF     OCTXX           CODE FOR CHECKLIST VALUE XX.
000179:                                                                                                  #                                TC      BANKCALL
000180:                                                                                                  #                                CADR    GOPERF1R
000181:                                                                                                  #                                ...     ...             TERMINATE RETURN
000182:                                                                                                  #                                ...     ...             PROCEED RETURN
000183:                                                                                                  #                                ...     ...             ENTER RETURN
000184:                                                                                                  #                                ...     ...             IMMEDIATE RETURN FROM GOPERF1R
000185:
000186:                                                                                                  #        GOPERF2R IS THE SAME AS GOPERF2 ONLY AN IMMEDIATE RETURN IS MADE TO USERS CALL CADR +4.


000188:                                                                                                  #        GOPERF2R DOES NOT BLANK ANY REGISTERS
000189:                                                                                                  #                                CAF     VXXNYY          VARIABLE NOUN YY REQUESTED.  XX=00 OR 01
000190:                                                                                                  #                                TC      BANKCALL
000191:                                                                                                  #                                CADR    GOPERF2R
000192:                                                                                                  #                                ...     ...             TERMINATE RETURN
000193:                                                                                                  #                                ...     ...             PROCEED RETURN
000194:                                                                                                  #                                ...     ...             ENTER RETURN
000195:                                                                                                  #                                ...     ...             IMMEDIATE RETURN HERE FROM GOPERF2R
000196:
000197:                                                                                                  #        GOPERF3R IS THE SAME AS GOPERF3 ONLY AN IMMEDIATE RETURN IS MADE TO USERS CALL CADR +4.
000198:                                                                                                  #        GOPERF3R BLANKS REGISTERS R2 AND R3
000199:                                                                                                  #                                CAF     PROGXX          PERFORM PROGRAM XX
000200:                                                                                                  #                                TC      BANKCALL
000201:                                                                                                  #                                CADR    GOPERF3R
000202:                                                                                                  #                                ...     ...             TERMINATE RETURN
000203:                                                                                                  #                                ...     ...             PROCEED RETURN
000204:                                                                                                  #                                ...     ...             ENTER RETURN
000205:                                                                                                  #                                ...     ...             GOPERF3R IMMEDIATELY RETURNS HERE
000206:
000207:                                                                                                  #        GOPERF4R IS THE SAME AS GOPERF4 ONLY AN IMMEDIATE RETURN IS MADE TO USERS CALL CADR +4.
000208:                                                                                                  #                                CAF     OCTXX           REQUEST PERFORM ON OPTIONXX
000209:                                                                                                  #                                TC      BANKCALL
000210:                                                                                                  #                                CADR    GOPERF4R
000211:                                                                                                  #                                ...     ...             TERMINATE RETURN
000212:                                                                                                  #                                ...     ...             PROCEED RETURN
000213:                                                                                                  #                                ...     ...             ENTER RETURN
000214:                                                                                                  #                                ...     ...             IMMEDIATE RETURN TO USER
000215:                                                                                                  #        GOPERF4R BLANKS REGISTER R3
000216:
000217:                                                                                                  #        REFLASHR IS THE SAME AS REFLASH ONLY AN IMMEDIATE RETURN IS MADE TO THE USERS CALL CADR +4.
000218:                                                                                                  #                                CAF     VXXNYY          VXX NYY WILL BE A FLASHING VERB NOUN
000219:                                                                                                  #                                TC      BANKCALL
000220:                                                                                                  #                                CADR    REFLASHR
000221:                                                                                                  #                                ...     ...             TERMINATE RETURN
000222:                                                                                                  #                                ...     ...             PROCEED RETURN
000223:                                                                                                  #                                ...     ...             ENTER RETURN
000224:                                                                                                  #                                ...     ...             IMMEDIATE RETURN TO USER
000225:
000226:                                                                                                  #        REGODSPR IS THE SAME AS REGODSP ONLY A RETURN (IMMEDIATE) IS MADE TO THE USER.


000228:                                                                                                  #                                CAF     VXXNYY
000229:                                                                                                  #                                TC      BANKCALL
000230:                                                                                                  #                                CADR    REGODSPR
000231:                                                                                                  #                                ...     ...             IMMEDIATE RETURN TO USER
000232:


000234:                                                                                                  #        GOMARK IS USED TO DISPLAY A MARK VERB NOUN ARRIVING IN A.  NO RETURN IS MADE TO THE USER.
000235:                                                                                                  #        GOXDSP = GOMARK
000236:                                                                                                  #                                CAF     VXXNYY          VXXNYY CONTAINS VERB AND NOUN
000237:                                                                                                  #                                TC      BANKCALL
000238:                                                                                                  #                                CADR    GOMARK          OTHER EXTENDED VERBS USE CADR GOXDSP
000239:
000240:                                                                                                  #        GOMARKR IS THE SAME AS GOMARK ONLY RETURN IS TO THE USER.
000241:                                                                                                  #        GOXDSPR = GOMARKR
000242:                                                                                                  #                                CAF     VXXNYY
000243:                                                                                                  #                                TC      BANKCALL
000244:                                                                                                  #                                CADR    GOMARKR         OTHER EXTENDED VERBS USE CADR GOXDSPR
000245:
000246:                                                                                                  #                                ...     ...             IMMEDIATE RETURN OF GOMARKR
000247:
000248:                                                                                                  #        GOMARKF DISPLAYS A FLASHING MARK VERB NOUN WITH NO IMMEDIATE RETURN TO THE USER.  3 RETURNS ARE POSSIBLE FROM
000249:                                                                                                  #        THE ASTRONAUT (SEE NO. 7 ABOVE).
000250:
000251:                                                                                                  #        GOXDSPF = GOMARKF
000252:
000253:                                                                                                  #                                CAF     VXXNYY          VXXNYY WILL BE A FLASHING MARK VERB NOUN
000254:                                                                                                  #                                TC      BANKCALL
000255:                                                                                                  #                                CADR    GOMARKF         OTHER EXTENDED VERBS USE CADR GOXDSPF
000256:                                                                                                  #                                ...     ...             TERMINATE RETURN
000257:                                                                                                  #                                ...     ...             PROCEED RETURN
000258:                                                                                                  #                                ...     ...             ENTER OR RECYCLE RETURN
000259:
000260:                                                                                                  #        GOMARKFR IS THE SAME AS GOMARKF ONLY AN IMMEDIATE RETURN IS MADE TO THE USER CALL CADR +4.
000261:                                                                                                  #        GOXDSPFR = GOMARKFR
000262:                                                                                                  #                                CAF     VXXNYY          FLASHING MARK VERB NOUN
000263:                                                                                                  #                                TC      BANKCALL
000264:                                                                                                  #                                CADR    GOMARKFR        OTHER EXTENDED VERBS USE CADR GOXDSPFR
000265:                                                                                                  #                                ...     ...             TERMINATE RETURN
000266:                                                                                                  #                                ...     ...             PROCEED RETURN
000267:                                                                                                  #                                ...     ...             ENTER OR RECYCLE RETURN
000268:                                                                                                  #
000269:                                                                                                  #                                ...     ...             IMMEDIATE RETURN TO THE USER
000270:
000271:                                                                                                  #        GOMARK1 IS USED FOR A PLEASE PERFORM ON A MARK REQUEST WITH ONLY 1 ASTRONAUT RETURN TO THE USER.  NO IMMEDIATE
000272:                                                                                                  #        RETURN IS MADE.  THE DESIRED MARK PLEASE PERFORM VERB AND DESIRED NOUN IS ENTERED IN A.  GOMARK1 DISPLAYS R1, R2, R
000273:                                                                                                  #        MEANS OF A V05NYY FOLLOWED BY A FLASHING V5XNYY FOR A PLEASE PERFORM.  THE ASTRONAUT WILL RESPOND WITH A MARK
000274:                                                                                                  #        OR MARK REJECT OR AN ENTER.  THE ENTER IS THE ONLY ASTRONAUT RESPONSE THAT WILL COME BACK TO THE USER.
000275:
000276:                                                                                                  #                                CAF     V5XNYY          X=1,2,3,4       Y=NOUN
000277:                                                                                                  #                                TC      BANKCALL


000279:                                                                                                  #                                CADR    GOMARK1
000280:                                                                                                  #                                ...     ...             ENTER RETURN
000281:
000282:                                                                                                  #        *** IF BLANKING DESIRED ON NON R ROUTINES, NOTIFY DISPLAYER.
000283:
000284:                                                                                                  #        GOMARK1R IS THE SAME AS A GOMARK1 ONLY AN IMMEDIATE RETURN IS MADE TO THE USERS CALL CADR +2.
000285:                                                                                                  #                                CAF     V5XNYY          X=1,2,3,4       YY=NOUN
000286:                                                                                                  #                                TC      BANKCALL
000287:                                                                                                  #                                CADR    GOMARK1R
000288:                                                                                                  #                                ...     ...             ASTRONAUT ENTER RETURN
000289:                                                                                                  #                                ...     ...             IMMEDIATE RETURN TO USER
000290:
000291:                                                                                                  #        GOMARK2 IS THE SAME AS GOMARK1 ONLY 3 RETURNS ARE MADE TO THE USER FROM THE ASTRONAUT.
000292:                                                                                                  #                                CAF     V5XNYY          X=1,2,3,4       YY=NOUN
000293:                                                                                                  #                                TC      BANKCALL
000294:                                                                                                  #                                CADR    GOMARK2
000295:                                                                                                  #                                ...     ...             TERMINATE RETURN
000296:                                                                                                  #                                ...     ...             PROCEED RETURN
000297:                                                                                                  #                                ...     ...             ENTER RETURN
000298:
000299:                                                                                                  #        GOMARK2R IS THE SAME AS GOMARK1R ONLY 3 ASTRONAUT RETURNS ARE MADE TO THE USER.
000300:                                                                                                  #                                CAF     V5XNYY          X=0,1,2,3,4     YY=NOUN
000301:                                                                                                  #                                TC      BANKCALL
000302:                                                                                                  #                                CADR    GOMARK2R
000303:                                                                                                  #                                ...     ...             TERMINATE RETURN
000304:                                                                                                  #                                ...     ...             PROCEED RETURN
000305:                                                                                                  #                                ...     ...             ENTER RETURN
000306:                                                                                                  #                                ...     ...             IMMEDIATE RETURN TO THE USER
000307:
000308:                                                                                                  #        GOMARK3 IS USED FOR A PLEASE PERFORM ON A MARK REQUEST WITH A 3 COMP. DEC DISPLAY.  THE DESIRED MARK PLEASE
000309:                                                                                                  #        PERFORM VERB AND NOUN ARE ENTERED IN A.  GOMARK3 DISPLAYS R1, R2, R3 BY MEANS OF A V06NYY FOLLOWED BY A FLASHING
000310:                                                                                                  #        V5XNYY FOR A PLEASE PERFORM.  GOMARK3 HAS 3 ASTRONAUT RETURNS TO THE USER WITH NO IMMEDIATE RETURN.
000311:                                                                                                  #                                CAF     V5XNYY          X=1,2,3,4       YY=NOUN
000312:                                                                                                  #                                TC      BANKCALL
000313:                                                                                                  #                                CADR    GOMARK3
000314:                                                                                                  #                                ...     ...             TERMINATE RETURN
000315:                                                                                                  #                                ...     ...             PROCEED RETURN
000316:                                                                                                  #                                ...     ...             ENTER RETURN
000317:
000318:                                                                                                  #        GOMARK4 IS THE SAME AS GOMARK3 ONLY R2 AND R3 ARE BLANKED AND R1 IS DISPLAYED IN OCTAL.
000319:                                                                                                  #                                CAF     V5XNYY          X=1,2,3,4       YY=NOUN
000320:                                                                                                  #                                TC      BANKCALL
000321:                                                                                                  #                                CADR    GOMARK4
000322:                                                                                                  #                                ...     ...             TERMINATE RETURN
000323:                                                                                                  #                                ...     ...             PROCEED RETURN


000325:                                                                                                  #                        ...     ...                     ENTER RETURN
000326:                                                                                                  #        EXDSPRET IS USED TO DISPLAY A VERB NOUN ARRIVING IN A WITH A RETURN MADE TO THE USER AFTER THE DISPLAY HAS BEEN
000327:                                                                                                  #        SENT OUT.
000328:                                                                                                  #                                CAF     VXXNYY
000329:                                                                                                  #                                TC      BANKCALL
000330:                                                                                                  #                                CADR    EXDSPRET
000331:                                                                                                  #                                ...     ...             RETURN TO USER
000332:
000333:                                                                                                  #        KLEENEX CLEANS OUT ALL MARK DISPLAYS (ACTIVE AND INACTIVE). A RETURN IS MADE TO THE USER AFTER THE MARK DISPLAYS
000334:                                                                                                  #        HAVE BEEN CLEANED OUT.
000335:                                                                                                  #                                TC      BANKCALL
000336:                                                                                                  #                                CADR    KLEENEX
000337:                                                                                                  #                                ...     ...             RETURN TO USER
000338:
000339:                                                                                                  #        MARKBRAN IS A SPECIAL PURPOSE ROUTINE USED FOR SAVING JOB VAC AREAS (SEE DESCRIPTION OF MARKBRAN BELOW).
000340:                                                                                                  #                                TC      BANKCALL
000341:                                                                                                  #                                CADR    MARKBRAN
000342:                                                                                                  #                                ...     ...             BAD RETURN IF MARK DISPLAY NOT ACTIVE
000343:                                                                                                  #                                                        (GOOD RETURN TO IMMEDIATE RETURN LOC OF
000344:                                                                                                  #                                                        LAST FLASHING MARK R ROUTINE)
000345:
000346:                                                                                                  #        PINBRNCH REESTABLISHES THE LAST ACTIVE FLASHING DISPLAY.  IF THERE IS NO ACTIVE FLASHING DISPLAY, THE DSKY IS
000347:                                                                                                  #        BLANKED AND CONTROL IS SENT TO ENDOFJOB.
000348:                                                                                                  #                                TC      POSTJUMP
000349:                                                                                                  #                                CADR    PINBRNCH
000350:
000351:                                                                                                  #        PRIODSP IS USED AS A PRIORITY DISPLAY.  IT WILL DISPLAY A GOFLASH TYPE DISPLAY WITH THREE POSSIBLE RETURNS FROM
000352:                                                                                                  #        THE ASTRONAUT (SEE NO. 7 ABOVE).
000353:
000354:                                                                                                  #        THE MAIN PURPOSE OF PRIODSP IS TO REPLACE THE PRESENT DISPLAY WITH A DISPLAY OF HIGHER PRIORITY AND TO
000355:                                                                                                  #        PROVIDE A MEANS FOR RESTORING THE OLD DISPLAY WHEN THE PRIORITY DISPLAY
000356:                                                                                                  #        IS RESPONDED TO BY THE ASTRONAUT.
000357:
000358:                                                                                                  #        THE FORMER DISPLAY IS RESTORED BY AN AUTOMATIC BRANCH TO WAKE UP THE DISPLAY THAT WAS INTERRUPTED BY THE
000359:                                                                                                  #        PRIO DISPLAY.
000360:                                                                                                  #                                CAF     VXXNYY          VXXNYY WILL BE A FLASHING VERB NOUN
000361:                                                                                                  #                                TC      BANKCALL
000362:                                                                                                  #                                CADR    PRIODSP
000363:                                                                                                  #                                ...     ...             TERMINATE RETURN
000364:                                                                                                  #                                ...     ...             PROCEED RETURN


000366:                                                                                                  #                                ...     ...             ENTER OR RECYCLE RETURN
000367:
000368:                                                                                                  #        PRIODSPR IS THE SAME AS PRIODSP ONLY AN IMMEDIATE RETURN IS MADE TO THE USERS CALL CADR +4.
000369:                                                                                                  #                                CAF     VXXNYY          VXXNYY WILL BE A FLASHING VERB NOUN
000370:                                                                                                  #                                TC      BANKCALL
000371:                                                                                                  #                                CADR    PRIODSPR
000372:                                                                                                  #                                ...     ...             TERMINATE RETURN
000373:                                                                                                  #                                ...     ...             PROCEED RETURN
000374:                                                                                                  #                                ...     ...             ENTER OR RECYCLE RETURN
000375:                                                                                                  #                                ...     ...             IMMEDIATE RETURN
000376:
000377:                                                                                                  #        PRIOLARM DOES A V05N09 PRIODSPR.
000378:
000379:                                                                                                  #        CLEANDSP CLEANS OUT ALL NORMAL DISPLAYS (ACTIVE AND INACTIVE).  A RETURN IS MADE TO THE USER AFTER NORMAL
000380:                                                                                                  #        DISPLAYS ARE CLEANED OUT.
000381:                                                                                                  #                                TC      BANKCALL
000382:                                                                                                  #                                CADR    CLEANDSP
000383:                                                                                                  #                                ...     ...             RETURN TO USER


000385:
000386:                                                                                                  #  GENERAL INFORMATION
000387:                                                                                                  #  ------- -----------
000388:
000389:                                                                                                  #  ALARM OR ABORT EXIT MODES--
000390:                                                                                                  #        PRIOBORT        TC      ABORT
000391:                                                                                                  #                        OCT     1502
000392:
000393:                                                                                                  #        PRIOBORT IS BRANCED TO WHEN (1) A NORMAL DISPLAY IS REQUESTED AND ANOTHER NORMAL DISPLAY IS ALREADY ACTIVE
000394:                                                                                                  #        (REFLASH AND REGODSP ARE EXCEPTIONS) OR (2) A PRIORITY DISPLAY IS REQUESTED WHEN ANOTHER PRIORITY DISPLAY IS
000395:                                                                                                  #        ALREADY ACTIVE (A PRIORITY WITH LINUS BIT14 IS AN EXCEPTION).
000396:
000397:                                                                                                  #  ERASABLE INITIALIZATION REQUIRED--
000398:                                                                                                  #        ACCOMPLISHED BY FRESH START-    1.  FLAGWRD4 (USED EXCLUSIVELY BY DISPLAY INTERFACE ROUTINES)
000399:                                                                                                  #                                        2.  NVSAVE = NORMAL VERB AND NOUN REGISTER.
000400:                                                                                                  #                                        3.  EBANKTEM = NORMAL INACTIVE FLAGWORD (ALSO CONTAINS NORMALS EBANK).
000401:                                                                                                  #                                        5.  R1SAVE = MARKBRAN CONTROL WORD
000402:                                                                                                  #                                        4.  RESTREG = PRIORITY 30 AND SUPERBANK 3.
000403:
000404:                                                                                                  #  OUTPUT--
000405:                                                                                                  #        NVWORD = PRIO VERB AND NOUN
000406:                                                                                                  #        NVWORD +1(MARKNV) = MARK VERB AND NOUN
000407:                                                                                                  #        NVWORD +2(NVSAVE) = NORMAL VERB AND NOUN
000408:
000409:                                                                                                  #        DSPFLG (EBANKSAV) = PRIO FLAGWORD (INCLUDING EBANK)
000410:                                                                                                  #        DSPFLG +1(MARKEBAN) = MARK FLAGWORD (INCLUDING EBANK)
000411:                                                                                                  #        DSPFLG +2(EBANKTEM) = NORMAL FLAGWORD (INCLUDIG EBANK)
000412:
000413:                                                                                                  #        CADRFLSH = PRIO USERS CALL CADR +1 LOCATION
000414:                                                                                                  #        CADRFLSH +1(MARKFLSH) = MARK USERS CALL CADR +1 LOCATION
000415:                                                                                                  #        CADRFLSH +2(TEMPFLSH) = NORMAL USERS CALL CADR +1 LOCATION
000416:
000417:                                                                                                  #        PRIOTIME = TIME EACH PRIO REQUEST FIRST SENT OUT
000418:                                                                                                  #        OPTION1 = DESIRED OPTION FROM GOPERF4
000419:                                                                                                  #        FLAGWRD4 = BIT INFO FOR CONTROL OF ALL DISPLAY ROUTINES
000420:                                                                                                  #        DSPTEM1 = R1 INFO FOR ASTRONAUT FROM PERFORM DISPLAYS (NORMAL)
000421:
000422:                                                                                                  #  SUBROUTINES USED-- NVSUB, FLAGUP, FLAGDOWN, ENDOFJOB, BLANKSUB, ABORT, JOBWAKE, JOBSLEEP, FINDVAC, PRIOCHNG,
000423:                                                                                                  #        JAMTERM, NVSUBUSY, FLASHON, ENDIDLE, CHANG1, BANKJUMP, MAKECADR, NOVAC,
000424:
000425:                                                                                                  #  DEBRIS-- (STORED INTO)
000426:                                                                                                  #        TEMPORARY TEMPORARIES - A, Q, L, MPAC +2, MPAC +3, MPAC +4, MPAC +5, MPAC +6, RUPTREG2, RUPTREG3, CYL,
000427:                                                                                                  #  EBANK, RUPTREG4, LOC, BANKSET, MODE, MPAC, MPAC +1                        4, FACEREG
000428:                                                                                                  #        ERASABES (SHARED AND USED WITH OTHER PROGRAMS) CADRSTOR, DSPLIST, LOC, DSPTEM1, OPTION1
000429:                                                                                                  #        ERASABLES (USED ONLY BY DISPLAY ROUTINES) - NVWORD,+1,+2, DSPFLG,+1,+2, CADRFLSH,+1,+2, PRIOTIME, FLAGWRD4,


000431:                                                                                                  #                R1SAVE, MARK2PAC,
000432:
000433:                                                                                                  #  DEBRIS-- (USED BUT NOT STORED INTO) - NOUNREG, VERBREG, LOCCTR, MONSAVE1
000434:
000435:                                                                                                  #  FLAGWORD DESCRIPTIONS--
000436:                                                                                                  #        FLAGWRD4 - SEE DESCRIPTION UNDER LOG SECTION ERASABLE ASSIGNMENTS
000437:
000438:                                                                                                  #        DSPFLG, DSPFLG+1, DSPFLG +2-
000439:                                                                                                  #        ----------------------------
000440:                                                                                                  #        BITS 1  BLANK R1
000441:                                                                                                  #             2  BLANK R2
000442:                                                                                                  #             3  BLANK R3
000443:                                                                                                  #             4  FLASHING DISPLAY REQUESTED
000444:                                                                                                  #             5  PERFORM DISPLAY REQUESTED
000445:                                                                                                  #             6  -----                   EXDSPRET                GODSPRET
000446:                                                                                                  #             7  PRIO DISPLAY            -----                   -----
000447:                                                                                                  #             8  -----                   DEC MARK PERFORM        -----
000448:                                                                                                  #             9  EBANK
000449:                                                                                                  #            10  EBANK
000450:                                                                                                  #            11  EBANK
000451:                                                                                                  #            12  -----                   -----                   V99PASTE
000452:                                                                                                  #            13  2ND PART OF PERFORM
000453:                                                                                                  #            15  REFLASH OR REDO         -----                   REFLASH OR REDO
000454:                                                                                                  #            15  -----                   MARK REQUEST            -----
000455:
000456:                                                                                                  #  RESTARTING DISPLAYS--
000457:
000458:                                                                                                  #  RULES FOR THE DSKY OPERATOR --
000459:                                                                                                  #        1.  PROCEED AND TERMINATE SERVE AS RESPONSES TO REQUESTS FOR OPERATOR RESPONSE (FLASHING V/N).  AS LONG
000460:                                                                                                  #            AS THERE IS ANY REQUEST AWAITING OPERATOR RESPONSE, ANY USE OF PROCEED OR TERMINATE WILL SERVE AS
000461:                                                                                                  #            RESPONSES TO THAT REQUEST.  CARE SHOULD BE EXERCISED IN ATTEMPTING TO KILL AN OPERATOR INITIATED MONITOR
000462:                                                                                                  #            WITH PROCEED AND TERMINATE FOR THIS REASON.
000463:                                                                                                  #        2.  THE ASTRONAUT MUST RESPOND TO A PRIORITY DISPLAY NO SOONER THAN 5 SECS FROM THE TIME THE MISSION
000464:                                                                                                  #            PROGRAM SENT OUT THE REQUEST FOR OPERATOR RESPONSE (THE ASTRONAUT WOULD SEE THIS DISPLAY FOR LESS TIME
000465:                                                                                                  #            DUE TO TIME IT TAKES TO GET DISPLAY SENT OUT.)  IF THE ASTRONAUT RESPONDS TOO SOON, THE PRIORITY DISPLAY
000466:                                                                                                  #            IS SENT OUT AGAIN---AND AGAIN UNTIL AN ACCUMULATED 5 SECS FROM TIME THE FIRST PRIORITY DISPLAY WAS SENT
000467:                                                                                                  #            OUT.  THE SAME 5 SEC. DELAY WILL OCCUR AT 163.84 SECS OR IN ANY MULTIPLE OF THAT TIME DUE TO PROGRAM
000468:                                                                                                  #            CONSIDERATION.
000469:                                                                                                  #        3.  KEY RELEASE BUTTON -
000470:                                                                                                  #            A)  IF THE KEY RELEASE LIGHT IS ON, IT SIMPLY RELEASES THE KEYBOARD AND DISPLAY FOR INTERNAL USE.
000471:                                                                                                  #            B)  IF THE KEY RELEASE LIGHT IS OFF, AND IF SOME REQUEST FOR OPERATOR RESPONSE (FLASHING V/N) IS STILL
000472:                                                                                                  #                AWAITING RESPONSE THEN IT RE-ESTABLISHES THE DISPLAYS THAT ORIGINALLY REQUESTED RESPONSE.
000473:                                                                                                  #            IF AN OPERATOR WANTS THEREFORE TO RE-ESTABLISH BUT CONDITION (A) IS ENCOUNTERED, A SECOND DEPRESSION OF
000474:                                                                                                  #            KEY RELEASE BUTTON MAY BE NECESSARY.
000475:                                                                                                  #        4.  IT IS IMPORTANT TO ANSWER ALL REQUESTS FOR OPERATOR RESPONSE.
000476:                                                                                                  #        5.  IT IS ALWAYS GOOD PRACTICE TO TERMINATE AN EXTENDED VERB BEFORE ASKING FOR ANOTHER ONE OR THE SAME ONE
000477:                                                                                                  #            OVER AGAIN.
000478:
000479:                                                                                                  #  SPECIAL CONSIDERATIONS--


000481:                                                                                                  #        1.  MPAC +2 SAVED ONLY IN MARK DISPLAYS
000482:                                                                                                  #        2.  GODSP(R), REGODSP(R), GOMARK(R) ALWAYS TURN ON THE FLASH IF ENTERED WITH A PASTE VERB REQUEST.
000483:                                                                                                  #        3.  ALL NORMAL DISPLAYS ARE RESTARTABLE EXCEPT GODSP(R), REGODSP(R)
000484:                                                                                                  #        4.  ALL EXTENDED VERBS WITH DISPLAYS SHOULD START WITH A TC TESTXACT AND FINISH WITH A TC ENDEXT.
000485:                                                                                                  #        5.  GODSP(R) AND REGODSP(R) MUST BE IN THE SAME EBANK AND SUPERBANK AS THE LAST NORMAL DISPLAY RESTARTED
000486:                                                                                                  #            BY A .1 RESTART PHASE CHANGE.
000487:                                                                                                  #        6.  IN ORDER TO SET UP A NON DISPLAY .1 RESTART POINT, THE USER MUST MAKE CERTAIN THAT RESTREG CONTAINS THE
000488:                                                                                                  #            CORRECT PRIORITY AND SUPERBANK AND THAT EBANKTEM CONTAINS THE CO
000489:                                                                                                  #        7.  IF CLEANDSP IS RESTARTED VIA A .1 PHASE CHANGE, CAF ZERO SHOULD BE EXECUTED BEFORE THE TC BANKCALL.
000490:


000492:                                                                                                  #  CALLING SEQUENCE FOR BLANKING
000493:                                                                                                  #                CAF     BITX            X=1,2,3 BLANK R1,R2,R3 RESPECTIVELY
000494:                                                                                                  #                TC      BLANKET
000495:                                                                                                  #                ...     ...             RETURN TO USER HERE
000496:                                                                                                  #  IN ORDER TO USE BLANKET CORRECTLY THE USER MUST USE A DISPLAY ROUTINE THAT ENDS IN R FIRST FOLLOWED BY THE CALL
000497:                                                                                                  #  TO BLANKET AT THE IMMEDIATE RETURN LOC.
000498:    5526                                           BLOCK    02
000499:    4000                                           SETLOC   FFTAG4
000500:    4000                                           BANK
000501:
000502:    5526                                           COUNT    02/DSPLA
000503:
000504:    5526           54162        BLANKET            TS       MPAC       +6
000505:    5527           40160                           CS       PLAYTEM4
000506:    5530           70162                           MASK     MPAC       +6
000507:    5531           50161                           INDEX    MPAC       +5
000508:    5532           26160                           ADS      PLAYTEM4
000509:
000510:    5533           00002                           TC       Q
000511:
000512:    5534           04701        ENDMARK            TC       POSTJUMP
000513:    5535           20553                           CADR     MARKEND
000514:
000515:    5536           35021        CLEARMRK           CAF      ZERO
000516:    5537           55044                           TS       EXTVBACT
000517:
000518:    5540           00004                           INHINT
000519:    5541           45017                           CS       BIT1
000520:    5542           70100                           MASK     FLAGWRD4
000521:    5543           54100                           TS       FLAGWRD4
000522:
000523:    5544           00003                           RELINT
000524:    5545           00002                           TC       Q
000525:
000526:                                                                                                  #  *** ALL EXTENDED VERB ROUTINES THAT HAVE AT LEAST ONE FLASHING DISPLAY MUST TCF ENDMARK OR TCF ENDEXT WHEN
000527:                                                                                                  #  FINISHED.
000528:
000529: 10,2553                                           BANK     10
000530: 10,2000                                           SETLOC   DISPLAYS
000531: 10,2000                                           BANK
000532:
000533: 10,2553                                           COUNT    10/DSPLA
000534:
000535:                                                                                                  #  NTERONLY IS USED TO DIFFERENTIATE THE MARK ROUTINE WITH ONLY ONE RETURN TO THE USER FROM THE MARKING ROUTINE WIT
000536:                                                                                                  #  3 RETURNS TO THE USER.  THIS ROUTINE IS ONLY USED BY GOMARK1 AND GOMARK1R.
000537:
000538: 10,2553           05536        MARKEND            TC       CLEARMRK
000539: 10,2554           13643                           TCF      MARKOVER
000540:


000542: 10,2555           54155        GOMARK             TS       PLAYTEM1                              #  ENTRANCE FOR MARK GODSP
000543:
000544: 10,2556           35001        GOMARS             CAF      BIT15                                 #  BIT15 SET FOR ALL MARK REQUESTS
000545: 10,2557           12722                           TCF      GOFLASH2
000546:
000547: 10,2560           35021        KLEENEX            CAF      ZERO                                  #  CLEAN OUT EXTENDED VERBS
000548: 10,2561           54155        GOMARKF            TS       PLAYTEM1                              #  ENTRANCE FOR MARK GOFLASH
000549:
000550: 10,2562           33253                           CAF      MARKFMSK                              #  MARK, FLASH
000551: 10,2563           12722                           TCF      GOFLASH2
000552:
000553: 10,2564           54155        GOMARK2            TS       PLAYTEM1                              #  MARK GOPERFS-3 AST. RETURNS
000554: 10,2565           33742        MARKFORM           CAF      MPERFMSK                              #  MARK, PERFORM, FLASH
000555: 10,2566           12722                           TCF      GOFLASH2
000556:
000557: 10,2567           54155        GOMARK3            TS       PLAYTEM1                              #  USED FOR 3COMP DECIMAL PERFORM
000558: 10,2570           33727                           CAF      MARK3MSK
000559: 10,2571           12722                           TCF      GOFLASH2
000560:
000561: 10,2572           54155        GOMARK4            TS       PLAYTEM1
000562: 10,2573           33730                           CAF      MARK4MSK                              #  MARK,PERFORM,FLASH,BLANK
000563: 10,2574           12722                           TCF      GOFLASH2
000564:
000565: 10,2575           54155        GOMARKR            TS       PLAYTEM1                              #  ENTR+NCE FOR MARK GODSPR
000566:
000567: 10,2576           35001                           CAF      BIT15
000568: 10,2577           12700                           TCF      GODSPR2
000569:
000570: 10,2600           54155        GOMARKFR           TS       PLAYTEM1                              #  ENTRANCE FOR MARK GOFLASHR
000571:
000572: 10,2601           33253                           CAF      MARKFMSK
000573: 10,2602           13061                           TCF      GODSPRS
000574:
000575: 10,2603           54155        GOMARK2R           TS       PLAYTEM1                              #  MARK GOPERFS-3 AST. RETS+ IMMEDIATE RET.
000576: 10,2604           33742                           CAF      MPERFMSK                              #  MARK, PERFORM, FLASH
000577: 10,2605           13061                           TCF      GODSPRS
000578:
000579: 10,2606           54155        GOMARK3R           TS       PLAYTEM1
000580: 10,2607           33727                           CAF      MARK3MSK
000581: 10,2610           13061                           TCF      GODSPRS
000582:
000583: 10,2611           35017        MAKEMARK           CAF      ONE
000584: 10,2612           03157                           TC       COPIES
000585:
000586: 10,2613           30100                           CA       FLAGWRD4                              #  IS NORM OR PRIO BUSY OR WAITING
000587: 10,2614           73743                           MASK     OCT34300
000588: 10,2615           10000                           CCS      A
000589: 10,2616           12654                           TCF      CHKPRIO
000590:
000591: 10,2617           30100                           CA       FLAGWRD4                              #  IS MARK SLEEPING DUE TO ASTRO BUSY


000593: 10,2620           75007                           MASK     BIT9
000594:
000595: 10,2621           00006                           EXTEND
000596: 10,2622           12624                           BZF      MARKPLAY                              #  NO
000597:
000598: 10,2623           15217                           TCF      ENDOFJOB
000599:
000600: 10,2624           00004        MARKPLAY           INHINT
000601: 10,2625           45022                           CS       FIVE                                  #  RESET MARK OVER NORM, SET MARK
000602: 10,2626           70100                           MASK     FLAGWRD4
000603: 10,2627           65017                           AD       ONE
000604: 10,2630           54100                           TS       FLAGWRD4
000605: 10,2631           00003                           RELINT
000606:
000607: 10,2632           41070        GOGOMARK           CS       MARKFLAG                              #  PERFORM
000608: 10,2633           75013                           MASK     BIT5
000609: 10,2634           10000                           CCS      A
000610: 10,2635           12640                           TCF      MARKCOP
000611: 10,2636           40370                           CS       MARKNV
000612: 10,2637           54370                           TS       MARKNV
000613:
000614: 10,2640           35017        MARKCOP            CAF      ONE                                   #  MARK INDEX
000615: 10,2641           13040                           TCF      PRIOPLAY
000616:
000617: 10,2642           30165        COPYTOGO           CA       MPAC2SAV
000618: 10,2643           54156                           TS       MPAC       +2
000619:
000620: 10,2644           50164        COPYPACS           INDEX    COPINDEX
000621: 10,2645           33753                           CAF      PRIOOCT
000622: 10,2646           54162                           TS       GENMASK
000623:
000624: 10,2647           50164                           INDEX    COPINDEX


000626: 10,2650           31067                           CA       EBANKSAV
000627: 10,2651           54160                           TS       TEMPOR2                               #  ACTIVE EBANK AND FLAG
000628:
000629: 10,2652           54003                           TS       EBANK
000630:
000631: 10,2653           00002                           TC       Q
000632:
000633:                                                                                                  #  PINCHEK CHECKS TO SEE IF THE CURRENT MARK REQUEST IS MADE BY THE ASTRONAUT WHILE INTERRUPTING A GOPLAY DISPLAY
000634:                                                                                                  #  (A NORMAL OR A PRIO).  IF THE ASTRONAUT TRIES TO MARK DURING A PRIO, THE CHECK FAIL LIGHT GOES ON AND THE MARK
000635:                                                                                                  #  REQUEST IS ENDED.  IF HE TRIES TO MARK DURING A NORM, THE MARK IS ALLOWED.  IN THIS CASE THE NORM IS PUT TO SLEEP
000636:                                                                                                  #  UNTIL ALL MARKING IS FINISHED.
000637:
000638:                                                                                                  #  IF THE MARK REQUEST COMES FROM THE PROGRAM DURING A TIME THE ASTRONAUT IS NOT INTERRUPTING A NORMAL OR A
000639:                                                                                                  #  PRIO, THE MARK REQUEST IS PUT TO SLEEP UNTIL THE +RESENT ACTIVE DISPLAY IS RESPONDED TO BY THE ASTRONAUT.
000640:
000641: 10,2654           30100        CHKPRIO            CA       FLAGWRD4                              #  MARK ATTEMPT DURING PRIO
000642: 10,2655           73476                           MASK     OCT24100
000643: 10,2656           10000                           CCS      A
000644: 10,2657           13676                           TCF      MARSLEEP
000645:


000647: 10,2660           40100                           CS       FLAGWRD4
000648: 10,2661           75015                           MASK     BIT3                                  #  SET MARK OVER NORM
000649: 10,2662           00004                           INHINT
000650: 10,2663           26100                           ADS      FLAGWRD4
000651:
000652: 10,2664           12756                           TCF      SETNORM
000653:
000654: 10,2665           30370        MARKPERF           CA       MARKNV
000655: 10,2666           74160                           MASK     VERBMASK
000656: 10,2667           13342                           TCF      NV50DSP
000657:
000658: 10,2670           54155        GODSP              TS       PLAYTEM1
000659:
000660: 10,2671           35021        GODSP2             CAF      ZERO
000661: 10,2672           12722                           TCF      GOFLASH2
000662:
000663: 10,2673           54155        GODSPRET           TS       PLAYTEM1                              #  ENTRANCE FOR A GODSP WITH A PASTE
000664:
000665: 10,2674           35012                           CAF      BIT6                                  #  SET BIT6 TO GO BACK TO USER AFTER NVSUB
000666: 10,2675           12722                           TCF      GOFLASH2
000667:
000668: 10,2676           54155        GODSPR             TS       PLAYTEM1
000669:
000670: 10,2677           35021        GODSPR1            CAF      ZERO
000671: 10,2700           54160        GODSPR2            TS       PLAYTEM4
000672:
000673: 10,2701           35021                           CAF      ZERO                                  #  * DONT MOVE
000674: 10,2702           13063                           TCF      GODSPRS1
000675:
000676:                                                                                                  #  CLEANDSP IS USED FOR CLEARING OUT A NORMAL DISPLAY THAT IS PRESENTLY ACTIVE OR A NORMAL DISPLAY THAT IS
000677:                                                                                                  #  SET UP TO BE STARTED OR RESTARTED.
000678:
000679:                                                                                                  #  NORMALLY THE USER WILL NOT NEED TO USE THIS ROUTINE SINCE A NEW NORMAL DISPLAY AUTOMATICALLY CLEARS OUT AN
000680:                                                                                                  #  OLD DISPLAY.
000681:
000682:                                                                                                  #  CALLING SEQUENCE FOR CLEANDSP -
000683:
000684:                                                                                                  #                TC      BANKCALL
000685:                                                                                                  #                CADR    CLEANDSP
000686:
000687: 10,2703           35021        CLEANDSP           CAF      ZERO
000688: 10,2704           54155        REFLASH            TS       PLAYTEM1
000689:
000690: 10,2705           33726                           CAF      REDOMASK                              #  FLASH AND PERMIT
000691: 10,2706           12722                           TCF      GOFLASH2
000692:
000693: 10,2707           54155        REGODSP            TS       PLAYTEM1
000694:
000695: 10,2710           35002                           CAF      BIT14
000696: 10,2711           12722                           TCF      GOFLASH2
000697:


000699:
000700: 10,2712           54155        REGODSPR           TS       PLAYTEM1
000701: 10,2713           35002                           CAF      BIT14
000702: 10,2714           12700                           TCF      GODSPR2
000703:
000704: 10,2715           54155        CLOCPLAY           TS       PLAYTEM1
000705: 10,2716           33765                           CAF      CLOCKCON
000706: 10,2717           12722                           TCF      GOFLASH2
000707: 10,2720           54155        GOFLASH            TS       PLAYTEM1
000708:
000709: 10,2721           35014                           CAF      BIT4                                  #  LEAVE ONLY FLASH BIT SET
000710: 10,2722           54160        GOFLASH2           TS       PLAYTEM4
000711:
000712: 10,2723           03144                           TC       SAVELOCS
000713:
000714: 10,2724           00003                           RELINT
000715:
000716: 10,2725           12770                           TCF      MAKEPLAY                              #  BRANCH DIRECT WITH NO SEPARATE JOB CALL
000717:
000718: 10,2726           54155        PRIODSPR           TS       PLAYTEM1
000719:
000720: 10,2727           33745                           CAF      BITS7+4
000721: 10,2730           13061                           TCF      GODSPRS
000722:
000723: 10,2731           54155        PRIODSP            TS       PLAYTEM1
000724:
000725: 10,2732           33745        SETPRIO            CAF      BITS7+4
000726: 10,2733           12722                           TCF      GOFLASH2
000727:
000728: 10,2734           35021        MAKEPRIO           CAF      ZERO
000729: 10,2735           54164                           TS       COPINDEX
000730:
000731: 10,2736           03616                           TC       LINUSCHR
000732: 10,2737           12744                           TCF      HIPRIO                                #  LINUS RETURN
000733: 10,2740           30100                           CA       FLAGWRD4
000734: 10,2741           73764                           MASK     OCT20100                              #  IS PRIO IN ENDIDLE OR BUSY
000735: 10,2742           10000                           CCS      A
000736: 10,2743           13017                           TCF      PRIOBORT                              #  YES, ABORT
000737:
000738: 10,2744           30100        HIPRIO             CA       FLAGWRD4                              #  MARK ACTIVE
000739: 10,2745           77765                           MASK     OCT40400
000740: 10,2746           00006                           EXTEND
000741: 10,2747           12752                           BZF      ASKIFNRM                              #  NO
000742:
000743: 10,2750           35021        SETMARK            CAF      ZERO
000744: 10,2751           13216                           TCF      JOBXCHS
000745:
000746: 10,2752           30100        ASKIFNRM           CA       FLAGWRD4                              #  NORMAL ACTIVE
000747: 10,2753           73762                           MASK     OCT10200                              #  BITS 13+8
000748: 10,2754           00006                           EXTEND


000750: 10,2755           12760                           BZF      OKTOCOPY                              #  NO
000751:
000752: 10,2756           35017        SETNORM            CAF      ONE
000753: 10,2757           13216                           TCF      JOBXCHS
000754:
000755: 10,2760           03156        OKTOCOPY           TC       COPYNORM
000756: 10,2761           03427                           TC       WITCHONE
000757:
000758: 10,2762           05201                           TC       JOBWAKE
000759:
000760: 10,2763           03444                           TC       XCHTOEND
000761:
000762: 10,2764           30025        REDOPRIO           CA       TIME1                                 #  SAVE TIME PRIODSP SENT OUT
000763: 10,2765           55147                           TS       PRIOTIME
000764:
000765: 10,2766           35021        KEEPPRIO           CAF      ZERO                                  #  START UP PRIO DISPLAY
000766: 10,2767           13040                           TCF      PRIOPLAY
000767:
000768: 10,2770           30167        MAKEPLAY           CA       PRIORITY                              #  SAVE USERS PRIORITY
000769: 10,2771           77674                           MASK     PRIO37
000770: 10,2772           54163                           TS       USERPRIO
000771:
000772: 10,2773           37670                           CAF      PRIO33                                #  RAISE PRIORITY FOR FAST JOBS AFTER WAKE
000773: 10,2774           05210                           TC       PRIOCHNG
000774:
000775: 10,2775           30160                           CA       PLAYTEM4                              #  IS IT MARK OR PRIO OR NORM
000776: 10,2776           73744                           MASK     BITS15+7
000777: 10,2777           10000                           CCS      A
000778: 10,3000           12734                           TCF      MAKEPRIO                              #  ITS PRIO
000779: 10,3001           13003                           TCF      IFLEGAL
000780: 10,3002           12611                           TCF      MAKEMARK                              #  ITS MARK
000781:
000782: 10,3003           35016        IFLEGAL            CAF      TWO
000783: 10,3004           54164                           TS       COPINDEX
000784:
000785: 10,3005           03616                           TC       LINUSCHR
000786:
000787: 10,3006           13021                           TCF      OKTOPLAY                              #  LINUS RETURN
000788: 10,3007           41071                           CS       EBANKTEM
000789: 10,3010           75014                           MASK     BIT4
000790: 10,3011           10000                           CCS      A
000791: 10,3012           13021                           TCF      OKTOPLAY                              #  NO
000792:
000793: 10,3013           30100                           CA       FLAGWRD4                              #  WAS NORM ASLEEP
000794: 10,3014           73735                           MASK     NBUSMASK                              #  ARE ANY NORMS ASLEEP
000795: 10,3015           00006                           EXTEND
000796: 10,3016           13021                           BZF      OKTOPLAY                              #  NO
000797:
000798: 10,3017           05721        PRIOBORT           TC       POODOO
000799: 10,3020           01502                           OCT      1502


000801:
000802: 10,3021           03160        OKTOPLAY           TC       COPIES2
000803:
000804: 10,3022           30163                           CA       USERPRIO
000805: 10,3023           00006                           EXTEND
000806: 10,3024           04007                           ROR      SUPERBNK
000807: 10,3025           54366                           TS       RESTREG
000808:
000809: 10,3026           30100                           CA       FLAGWRD4                              #  PRIO OR MARK GOING
000810: 10,3027           73736                           MASK     PMMASK
000811: 10,3030           10000                           CCS      A
000812: 10,3031           13176                           TCF      GOSLEEPS                              #  YES
000813:
000814: 10,3032           13034                           TCF      +2
000815: 10,3033           13176                           TCF      GOSLEEPS                              #  MARK GOING
000816:
000817:                                                                                                  #  COULD PUT NORM BUSY CHECK HERE TO SAVE TIME
000818:
000819: 10,3034           03427                           TC       WITCHONE                              #  IS IT NVSUB BUSY, ENDIDLE OR NOONE
000820: 10,3035           05201                           TC       JOBWAKE
000821:
000822: 10,3036           03444                           TC       XCHTOEND
000823:
000824: 10,3037           35016        PLAYJUM1           CAF      TWO
000825: 10,3040           54164        PRIOPLAY           TS       COPINDEX
000826:
000827: 10,3041           13312                           TCF      GOPLAY
000828:
000829: 10,3042           54155        EXDSPRET           TS       PLAYTEM1
000830:
000831: 10,3043           37703                           CAF      BIT15+6
000832: 10,3044           12722                           TCF      GOFLASH2
000833:
000834: 10,3045           55045        GOPERF1            TS       NORMTEM1                              #  STORE DESIRED CHECKLIST VALUE
000835: 10,3046           33720                           CAF      V01N25                                #  USED TO DISPLAY CHECKLIST VALUE IN R1
000836:
000837: 10,3047           54155        GOPERFS            TS       PLAYTEM1
000838:
000839: 10,3050           33717                           CAF      PERFMASK                              #  LEAVE ONLY FLASH, PERFORM, BLANKING
000840: 10,3051           12722                           TCF      GOFLASH2
000841:
000842: 10,3052           54155        GOPERF2            TS       PLAYTEM1                              #  DESIRED VERB-NOUN TO DISPLAY R1,R2,R3
000843:
000844: 10,3053           33723                           CAF      PERF2MSK
000845: 10,3054           12722                           TCF      GOFLASH2
000846:
000847: 10,3055           03137        GOPERF4            TC       PURRS4
000848:
000849: 10,3056           12722                           TCF      GOFLASH2
000850:
000851: 10,3057           54155        GOFLASHR           TS       PLAYTEM1


000853: 10,3060           35014                           CAF      BIT4                                  #  LEAVE ONLY FLASH BIT SET
000854: 10,3061           54160        GODSPRS            TS       PLAYTEM4
000855:
000856: 10,3062           36214                           CAF      THREE
000857:
000858: 10,3063           00004        GODSPRS1           INHINT                                         #  IMMEDIATE RETURN IS CALL CADR +4
000859: 10,3064           54072                           TS       RUPTREG3
000860:
000861: 10,3065           30167                           CA       PRIORITY                              #  MAKE DISPLAY ONE HIGHER THAN USER
000862: 10,3066           77674                           MASK     PRIO37
000863: 10,3067           54063                           TS       NEWPRIO
000864:
000865: 10,3070           30160                           CA       PLAYTEM4                              #  IS THIS A FLASHING R DISPLAY
000866: 10,3071           75014                           MASK     BIT4
000867: 10,3072           10000                           CCS      A
000868: 10,3073           13101                           TCF      VACDSP                                #  YES, MAKE DSPLAY JOB A VAC
000869: 10,3074           30063                           CA       NEWPRIO                               #  NO, MAKE DSPLAY JOB A NOVAC
000870: 10,3075           05134                           TC       NOVAC
000871: 10,3076  E7,1777                                  EBANK=   WHOCARES
000872: 10,3076           02770 20067                     2CADR    MAKEPLAY
000873:
000874: 10,3100           13107                           TCF      BOTHJOBS
000875:
000876: 10,3101           30006        VACDSP             CA       BBANK
000877: 10,3102           00006                           EXTEND
000878: 10,3103           04007                           ROR      SUPERBNK
000879: 10,3104           54001                           TS       L
000880: 10,3105           33761                           CAF      MAKEGEN
000881: 10,3106           05160                           TC       SPVAC
000882:
000883: 10,3107           03144        BOTHJOBS           TC       SAVELOCS                              #  COPY TEMPS INTO PERMANENT REGISTERS
000884:
000885: 10,3110           00006                           EXTEND                                         #  SAVE NVWORD AND USERS MPAC +2
000886: 10,3111           30156                           DCA      MPAC       +1
000887: 10,3112           50064                           INDEX    LOCCTR
000888: 10,3113           52156                           DXCH     MPAC       +1
000889:
000890: 10,3114           00006                           EXTEND                                         #  SAVE USERS CADR, FLAGS AND EBANK
000891: 10,3115           30160                           DCA      MPAC       +3
000892: 10,3116           50064                           INDEX    LOCCTR
000893: 10,3117           52160                           DXCH     MPAC       +3
000894:
000895: 10,3120           30064                           CA       LOCCTR
000896: 10,3121           54161                           TS       MPAC       +5
000897: 10,3122           03151                           TC       SAVELOCR
000898: 10,3123           00003                           RELINT
000899: 10,3124           14704                           TCF      BANKJUMP                              #  CALL CADR +4
000900:


000902: 10,3125           55045        GOPERF1R           TS       NORMTEM1                              #  DESIRED CHECKLIST VALUE
000903:
000904: 10,3126           33720                           CAF      V01N25                                #  DISPLAYS CHECKLIST VALUE IN R1
000905:
000906: 10,3127           54155        GOPERFRS           TS       PLAYTEM1
000907:
000908: 10,3130           33717                           CAF      PERFMASK                              #  LEAVE ONLY FLASH, PERFORM, BLANKING
000909: 10,3131           13061                           TCF      GODSPRS
000910:
000911: 10,3132           54155        GOPERF2R           TS       PLAYTEM1                              #  DESIRED VERB-NOUN TO DISPLAY R1,R2,R3
000912:
000913: 10,3133           33723                           CAF      PERF2MSK
000914: 10,3134           13061                           TCF      GODSPRS
000915:
000916: 10,3135           03137        GOPERF4R           TC       PURRS4
000917:
000918: 10,3136           13061                           TCF      GODSPRS
000919:
000920: 10,3137           55131        PURRS4             TS       OPTION1                               #  DESIRED OPTION CODE
000921:
000922: 10,3140           33724                           CAF      V04N06
000923: 10,3141           54155                           TS       PLAYTEM1
000924:
000925: 10,3142           33725                           CAF      PERF4MSK                              #  FLASH, PERFORM AND BLANK R3
000926: 10,3143           00002                           TC       Q
000927:
000928: 10,3144           00004        SAVELOCS           INHINT
000929:
000930: 10,3145           43734                           CS       OCT3400                               #  EBANK BITS
000931: 10,3146           70160                           MASK     PLAYTEM4
000932: 10,3147           60003                           AD       EBANK
000933: 10,3150           54160                           TS       PLAYTEM4
000934:
000935: 10,3151           22002        SAVELOCR           LXCH     Q
000936:
000937: 10,3152           04711                           TC       MAKECADR
000938: 10,3153           54157                           TS       PLAYTEM3
000939:
000940: 10,3154           60072                           AD       RUPTREG3                              #  NOT USED FOR NON R ROUTINES
000941: 10,3155           00001                           TC       L
000942:
000943: 10,3156           35021        COPYNORM           CAF      ZERO
000944: 10,3157           54164        COPIES             TS       COPINDEX
000945: 10,3160           00004        COPIES2            INHINT
000946: 10,3161           30160                           CA       PLAYTEM4                              #  FLAGWORD
000947:
000948: 10,3162           50164                           INDEX    COPINDEX
000949: 10,3163           55067                           TS       EBANKSAV                              #  EQUIV TO DSPFLG
000950: 10,3164           73752                           MASK     CADRMASK                              #  FLASH AND GODSPRET
000951: 10,3165           00006                           EXTEND


000953: 10,3166           13172                           BZF      SKIPADD
000954:
000955: 10,3167           30157                           CA       PLAYTEM3
000956: 10,3170           50164                           INDEX    COPINDEX
000957: 10,3171           54372                           TS       CADRFLSH
000958:
000959: 10,3172           30155        SKIPADD            CA       PLAYTEM1                              #  VERB NOUN
000960: 10,3173           50164                           INDEX    COPINDEX
000961: 10,3174           54367                           TS       NVWORD
000962:
000963: 10,3175           13453                           TCF      RELINTQ
000964:
000965: 10,3176           50164        GOSLEEPS           INDEX    COPINDEX
000966: 10,3177           33753                           CA       PRIOOCT
000967: 10,3200           73202                           MASK     WAITMASK
000968: 10,3201           07722                           TC       UPENT2
000969: 10,3202           03004        WAITMASK           OCT      3004
000970: 10,3203           45017                           CS       ONE
000971: 10,3204           60164                           AD       COPINDEX
000972: 10,3205           54154                           TS       FACEREG
000973:
000974: 10,3206           50154        XCHSLEEP           INDEX    FACEREG
000975: 10,3207           33732                           CAF      WAKECADR
000976: 10,3210           00004                           INHINT
000977: 10,3211           05201                           TC       JOBWAKE                               #  FIND CADR IN JOB AREA
000978:
000979: 10,3212           03444                           TC       XCHTOEND                              #  CAUSES AWAKENED JOB TO GO TO ENDOFJOB
000980:
000981: 10,3213           50154                           INDEX    FACEREG                               #  REPLACE SAME CADR BUT NEW JOB AREA
000982: 10,3214           33732                           CAF      WAKECADR
000983: 10,3215           15175                           TCF      JOBSLEEP
000984:
000985: 10,3216           54154        JOBXCHS            TS       FACEREG                               #  CONTROLS TYPE OF DISPLAY PUT TO SLEEP
000986: 10,3217           03427                           TC       WITCHONE
000987: 10,3220           05201                           TC       JOBWAKE
000988: 10,3221           30154                           CA       FACEREG
000989: 10,3222           50064                           INDEX    LOCCTR
000990: 10,3223           54154                           TS       FACEREG
000991:
000992: 10,3224           33237                           CAF      XCHQADD
000993: 10,3225           03445                           TC       XCHNYLOC
000994:
000995: 10,3226           50154                           INDEX    FACEREG
000996: 10,3227           33754                           CA       MARKOCT
000997: 10,3230           73756                           MASK     IDLESLEP
000998:
000999: 10,3231           07740                           TC       DOWNENT2
001000: 10,3232           74004        IDLEMASK           OCT      74004                                 #  * DONT MOVE
001001: 10,3233           50154                           INDEX    FACEREG                               #  BIT SHOWS PRIO INTERRUPTED NORM OR MARK
001002: 10,3234           35013                           CA       BIT5                                  #  BIT5 FOR MARK, BIT4 FOR NORMAL


001004: 10,3235           65015                           AD       FOUR
001005: 10,3236           07722                           TC       UPENT2                                #  FLAG ROUTINE DOES RELINT
001006: 10,3237           03206        XCHQADD            GENADR   XCHSLEEP                              #  * DONT MOVE
001007: 10,3240           30100                           CA       FLAGWRD4
001008: 10,3241           75015                           MASK     BIT3                                  #  IF BIT3 THEN MARK OVER NORM
001009: 10,3242           10000                           CCS      A
001010: 10,3243           02624        GENMARK            TC       MARKPLAY                              #  USED AS GENADR FOR JOBWAKE
001011: 10,3244           12760                           TCF      OKTOCOPY
001012:
001013: 10,3245           35021        MARKWAKE           CAF      ZERO
001014: 10,3246           54160        WAKEPLAY           TS       TEMPOR2
001015:
001016: 10,3247           50160                           INDEX    TEMPOR2
001017: 10,3250           33746                           CA       BITS5+11
001018: 10,3251           65015                           AD       FOUR
001019: 10,3252           07740                           TC       DOWNENT2
001020: 10,3253           40010        MARKFMSK           OCT      40010                                 #  *** DONT MOVE
001021:
001022: 10,3254           50160                           INDEX    TEMPOR2
001023: 10,3255           33732                           CAF      WAKECADR
001024: 10,3256           00004                           INHINT
001025: 10,3257           05201                           TC       JOBWAKE
001026:
001027: 10,3260           13557                           TCF      ENDRET
001028:
001029:                                                                                                  #  ALL .1 RESTARTS BRANCH DIRECTLY TO INITDSP.  NORMAL DISPLAYS ARE THE ONLY DISPLAYS ALLOWED TO USE .1 RESTARTS
001030:                                                                                                  #  INITDSP FIRST RESTORES THE EBANK AND THE SUPERBANK TO THE MOST RECENT NORMAL EBANK AND SUPERBANK.
001031:
001032:                                                                                                  #  IF THE MOST RECENT NORMAL DISPLAY REQUEST WAS NOT FINISHED, CONTROL IS SENT BACK TO THE LAST NORMAL USER.
001033:                                                                                                  #  OTHERWISE THE NORMAL DISPLAY SET UP IN THE NORMAL DISPLAY REGS IS STARTED UP IMMEDIATELY.
001034:
001035: 10,3261           31071        INITDSP            CA       EBANKTEM                              #  RESTORE MOST RECECT NORMAL EBANK
001036: 10,3262           54003                           TS       EBANK
001037:
001038: 10,3263           30366                           CA       RESTREG                               #  SUPERBANK AND JOB PRIORITY
001039: 10,3264           04773                           TC       SUPERSW                               #  RESTORE SUPERBANK
001040:
001041: 10,3265           77674                           MASK     PRIO37
001042: 10,3266           05210                           TC       PRIOCHNG
001043:
001044: 10,3267           46214                           CS       THREE
001045: 10,3270           60374                           AD       TEMPFLSH
001046: 10,3271           14704                           TCF      BANKJUMP
001047:
001048: 10,3272           00003        PINBRNCH           RELINT                                         #  FOR GOPIN USERS
001049: 10,3273           31072                           CA       MARK2PAC                              #  NEEDED TO SAVE MPAC +2 FOR MARK USERS
001050: 10,3274           54156                           TS       MPAC       +2                         #  ONLY
001051:
001052: 10,3275           30100                           CA       FLAGWRD4                              #  PINBRANCH CONDITION
001053: 10,3276           77707                           MASK     PINMASK
001054: 10,3277           10000                           CCS      A


001056: 10,3300           13303                           TCF      +3
001057: 10,3301           13713                           TCF      ERASER                                #  ** NOTHING IN ENDIDLE
001058: 10,3302           12624                           TCF      MARKPLAY
001059:
001060: 10,3303           05546        NORMBNCH           TC       UPFLAG                                #  SET PINBRANCH BIT
001061: 10,3304           00105                           ADRES    PINBRFLG
001062:
001063: 10,3305           35002                           CAF      BIT14                                 #  PRIO INTERRUPTED
001064: 10,3306           70100                           MASK     FLAGWRD4
001065: 10,3307           10000                           CCS      A
001066: 10,3310           12766                           TCF      KEEPPRIO
001067:
001068: 10,3311           13037                           TCF      PLAYJUM1
001069:
001070: 10,3312           02644        NVDSP              TC       COPYPACS
001071:
001072: 10,3313           30160                           CA       TEMPOR2                               #  SET UP BLANK BITS FOR NVMONOPT IN CASE
001073: 10,3314           75023                           MASK     SEVEN                                 #  USER REQUESTS BLANKING MONITOR
001074: 10,3315           54001                           TS       L
001075:
001076: 10,3316           45003                           CS       BIT13
001077: 10,3317           50164                           INDEX    COPINDEX
001078: 10,3320           71067                           MASK     DSPFLG
001079: 10,3321           50164                           INDEX    COPINDEX
001080: 10,3322           55067                           TS       DSPFLG
001081:
001082: 10,3323           75010                           MASK     BIT8                                  #  BIT8 SET IF DEC MARK PERFORM DISPLAY
001083: 10,3324           54141                           TS       TEM1
001084:
001085: 10,3325           30156                           CA       MPAC       +2
001086: 10,3326           54165                           TS       MPAC2SAV
001087:
001088: 10,3327           55072                           TS       MARK2PAC                              #  * FOR DISK ONLY *
001089: 10,3330           50164                           INDEX    COPINDEX
001090: 10,3331           10367                           CCS      NVWORD
001091: 10,3332           13341                           TCF      NVDSP1
001092: 10,3333           13455                           TCF      CLEANEND
001093: 10,3334           40370                           CS       MARKNV
001094: 10,3335           54370                           TS       MARKNV                                #  IN CASE MARKPLAY AWAKENED AFTER SLEEPING
001095: 10,3336           76043                           MASK     LOW7
001096: 10,3337           63737                           AD       V05N00M1
001097: 10,3340           60141                           AD       TEM1
001098: 10,3341           65017        NVDSP1             AD       ONE
001099: 10,3342           04171        NV50DSP            TC       NVMONOPT
001100: 10,3343           13467                           TCF      REST                                  #  IF BUSY
001101:
001102: 10,3344           04447                           TC       FLASHOFF                              #  IN CASE OF EXTENDED VERB NON FLASH
001103:
001104: 10,3345           02642                           TC       COPYTOGO                              #  MPACS DESTROYED BY NVSUB
001105: 10,3346           05560                           TC       DOWNFLAG                              #  UNSET SLEEPING BITS
001106: 10,3347           00102                           ADRES    MRKNVFLG


001108: 10,3350           05560                           TC       DOWNFLAG
001109: 10,3351           00103                           ADRES    NRMNVFLG
001110: 10,3352           05560                           TC       DOWNFLAG
001111: 10,3353           00104                           ADRES    PRONVFLG
001112: 10,3354           30160        BLANKCHK           CA       TEMPOR2                               #  BLANK BITS 1,2,3 IF SET
001113: 10,3355           04271                           TC       BLANKSUB
001114: 10,3356           13312                           TCF      NVDSP
001115: 10,3357           35013        PERFCHEK           CAF      BIT5                                  #  BIT 5 FOR PERFORM
001116: 10,3360           70160                           MASK     TEMPOR2
001117: 10,3361           10000                           CCS      A                                     #  IS THIS A GOPERF DISPLAY
001118: 10,3362           13405                           TCF      1STOR2ND                              #  YES
001119:
001120: 10,3363           35014        GOANIDLE           CAF      BIT4
001121: 10,3364           70160                           MASK     TEMPOR2
001122: 10,3365           10000                           CCS      A
001123: 10,3366           13502                           TCF      FLASHSUB                              #  IT IS
001124:
001125: 10,3367           40160                           CS       TEMPOR2                               #  IS THIS A GODSPRET
001126: 10,3370           75012                           MASK     BIT6
001127: 10,3371           10000                           CCS      A
001128: 10,3372           13377                           TCF      ISITN00
001129:
001130: 10,3373           50164                           INDEX    COPINDEX
001131: 10,3374           30372                           CA       CADRFLSH
001132: 10,3375           54157                           TS       MPAC       +3
001133: 10,3376           13575                           TCF      ENDIT
001134:
001135: 10,3377           50164        ISITN00            INDEX    COPINDEX                              #  IS THIS A PASTE
001136: 10,3400           30367                           CA       NVWORD
001137: 10,3401           76043                           MASK     LOW7                                  #  CHECK MADE FOR PINBRNCH AND PRIO ON MARK
001138: 10,3402           00006                           EXTEND
001139: 10,3403           13502                           BZF      FLASHSUB                              #  YES, ASSUME PASTE ALWAYS ON FLASH
001140:
001141: 10,3404           15217                           TCF      ENDOFJOB                              #  NOT FLASH, NOT GOPERF, THERFORE EXIT
001142:
001143: 10,3405           30160        1STOR2ND           CA       TEMPOR2
001144: 10,3406           75003                           MASK     BIT13
001145: 10,3407           10000                           CCS      A
001146: 10,3410           13363                           TCF      GOANIDLE                              #  SECOND
001147:
001148: 10,3411           35003                           CA       BIT13
001149: 10,3412           50164                           INDEX    COPINDEX
001150: 10,3413           27067                           ADS      DSPFLG
001151:
001152: 10,3414           22007                           ZL
001153: 10,3415           00006                           EXTEND                                         #  IS IT MARK
001154: 10,3416           62665                           BZMF     MARKPERF                              #  YES
001155: 10,3417           75004                           MASK     BIT12
001156: 10,3420           00006                           EXTEND


001158: 10,3421           13425                           BZF      V50PASTE
001159: 10,3422           41145                           CS       NVWORD1                               #  NVOWRD1= -0 IS V97.  NVWORD1= -400 IS V99
001160: 10,3423           63763                           AD       V97N00
001161: 10,3424           13342                           TCF      NV50DSP
001162: 10,3425           33722        V50PASTE           CAF      V50N00
001163: 10,3426           13342                           TCF      NV50DSP                               #  DISPLAY SECOND PART OF GOPERF
001164:
001165: 10,3427           45013        WITCHONE           CS       BIT5                                  #  TURN OFF KEY RELEASE LIGHT
001166: 10,3430           00006                           EXTEND
001167: 10,3431           03011                           WAND     DSALMOUT
001168:
001169: 10,3432           30100                           CA       FLAGWRD4
001170: 10,3433           73740                           MASK     NVBUSMSK                              #  IS IT NVSUB ASLEEP
001171: 10,3434           10000                           CCS      A
001172: 10,3435           35017                           CAF      ONE
001173: 10,3436           54001                           TS       L
001174: 10,3437           35021                           CAF      ZERO
001175: 10,3440           50001                           INDEX    L
001176: 10,3441           57042                           XCH      CADRSTOR
001177:
001178: 10,3442           00004                           INHINT
001179: 10,3443           00002                           TC       Q
001180:
001181: 10,3444           34233        XCHTOEND           CAF      ENDINST                               #  TC ENDOFJOB REPLACES GENADR IN LOC FOR
001182: 10,3445           56064        XCHNYLOC           XCH      LOCCTR                                #  WAS THIS ADDRESS SLEEPING
001183: 10,3446           00006                           EXTEND
001184: 10,3447           63453                           BZMF     RELINTQ                               #  NO
001185: 10,3450           56064                           XCH      LOCCTR                                #  YES
001186: 10,3451           50064                           INDEX    LOCCTR
001187: 10,3452           54164                           TS       LOC
001188:
001189: 10,3453           00003        RELINTQ            RELINT
001190: 10,3454           00002                           TC       Q                                     #  BACK TO USER
001191:
001192: 10,3455           37667        CLEANEND           CAF      PRIO32                                #  ONE LOWER THAN DISPLAYS SLEEPING
001193: 10,3456           05147                           TC       FINDVAC
001194: 10,3457     0371                                  EBANK=   NVSAVE
001195: 10,3457           04245 04060                     2CADR    JAMTERM
001196:
001197: 10,3461           13503                           TCF      FLASHSUB   +1
001198:
001199: 10,3462           30100        ISITPRIO           CA       FLAGWRD4
001200: 10,3463           73510                           MASK     ITISMASK                              #  IS PINBRFLG, MARKIDFLG SET
001201: 10,3464           00006                           EXTEND
001202: 10,3465           13017                           BZF      PRIOBORT
001203: 10,3466           15217                           TCF      ENDOFJOB
001204: 10,3467           11042        REST               CCS      CADRSTOR                              #  IS SOMEONE IN ENDIDLE
001205: 10,3470           15217                           TCF      ENDOFJOB                              #  YES


001207: 10,3471           13473                           TCF      RESTSLEP
001208:
001209: 10,3472           15217                           TCF      ENDOFJOB
001210:
001211: 10,3473           30162        RESTSLEP           CA       GENMASK                               #  SET NVSLEEP BITS
001212: 10,3474           73741                           MASK     ASTROMSK
001213: 10,3475           07722                           TC       UPENT2
001214: 10,3476           24100        OCT24100           OCT      24100                                 #  *** DONT MOVE
001215:
001216: 10,3477           50164                           INDEX    COPINDEX
001217: 10,3500           33731                           CAF      NVCADR
001218: 10,3501           04456                           TC       NVSUBUSY                              #  BUSY OR ABORT IF ILLEGAL
001219:
001220: 10,3502           04443        FLASHSUB           TC       FLASHON
001221:
001222: 10,3503           30164                           CA       COPINDEX                              #  COPINDEX DESTROYED BY ENDIDLE
001223: 10,3504           54157                           TS       COPMPAC
001224:
001225: 10,3505           30162                           CA       GENMASK
001226: 10,3506           73232                           MASK     IDLEMASK
001227: 10,3507           07722                           TC       UPENT2
001228: 10,3510           40040        ITISMASK           OCT      40040                                 #  *** ENDIDLE ALLOW *** DONT MOVE
001229:
001230: 10,3511           31073                           CA       R1SAVE                                #  IS THIS A REPEAT AND RETURN DISPLAY
001231: 10,3512           50164                           INDEX    COPINDEX
001232: 10,3513           75015                           MASK     BIT3
001233: 10,3514           10000                           CCS      A
001234: 10,3515           13602                           TCF      UNSETR1                               #  YES
001235:
001236: 10,3516           11042                           CCS      CADRSTOR                              #  SEE IF SOMEONE ALREADY IN ENDIDLE
001237: 10,3517           13462                           TCF      ISITPRIO
001238: 10,3520           13522                           TCF      +2
001239: 10,3521           13462                           TCF      ISITPRIO
001240:
001241: 10,3522           04223                           TC       ENDIDLE
001242: 10,3523           13614        IDLERET1           TCF      TERMATE
001243:
001244: 10,3524           13633                           TCF      PROCEED                               #  ENDIDLE RETURNS HERE ON PROCEED
001245:
001246: 10,3525           43750                           CS       LOWLOAD
001247: 10,3526           60154                           AD       MPAC                                  #  VERBREG
001248: 10,3527           00006                           EXTEND
001249: 10,3530           26000                           DIM      A
001250: 10,3531           00006                           EXTEND
001251: 10,3532           13703                           BZF      LOADITIS                              #  V21 OR V22 OR V23 ON DSKY
001252:
001253: 10,3533           35016        OKTOENT            CAF      TWO
001254: 10,3534           54161        ENDOUT             TS       OUTHERE
001255: 10,3535           30100                           CA       FLAGWRD4                              #  CHECK NATURE OF ENDIDLE RETURN
001256: 10,3536           74105                           MASK     OCT60000


001258: 10,3537           10000                           CCS      A
001259: 10,3540           13543                           TCF      TIMECHEK                              #  PRIO ENDIDLE RETURN
001260: 10,3541           13651                           TCF      NORMRET                               #  NORMAL ENDIDLE RETURN
001261: 10,3542           13635                           TCF      MARKRET                               #  MARK ENDIDLE RETURN
001262:
001263: 10,3543           40025        TIMECHEK           CS       TIME1
001264: 10,3544           61147                           AD       PRIOTIME
001265: 10,3545           10000                           CCS      A
001266: 10,3546           40000                           COM
001267: 10,3547           67700                           AD       OCT37776
001268: 10,3550           65017                           AD       ONE
001269: 10,3551           63774                           AD       -2SEC
001270: 10,3552           00006                           EXTEND
001271: 10,3553           62766                           BZMF     KEEPPRIO
001272:
001273: 10,3554           13651                           TCF      NORMRET
001274:
001275: 10,3555           35017        NORMWAKE           CAF      ONE
001276: 10,3556           13246                           TCF      WAKEPLAY
001277:
001278: 10,3557           10161        ENDRET             CCS      OUTHERE
001279: 10,3560           65017                           AD       ONE
001280: 10,3561           13563                           TCF      +2                                    #  NORMAL ENDIDLE EXIT
001281: 10,3562           15217                           TCF      ENDOFJOB
001282: 10,3563           50157                           INDEX    COPMPAC
001283: 10,3564           60372                           AD       CADRFLSH
001284: 10,3565           54157                           TS       MPAC       +3
001285:
001286: 10,3566           30162                           CA       GENMASK                               #  REMOVE ENDIDLE AND PINBRANCH BITS
001287: 10,3567           73571                           MASK     PINIDMSK
001288: 10,3570           07740                           TC       DOWNENT2
001289: 10,3571           74044        PINIDMSK           OCT      74044                                 #  *** DONT MOVE
001290:
001291: 10,3572           46214                           CS       THREE                                 #  BLANK EVERYTHING EXCEPT MM
001292: 10,3573           04170                           TC       NVSUB
001293: 10,3574           13575                           TCF      +1
001294:
001295: 10,3575           30163        ENDIT              CA       USERPRIO                              #  RETURN TO USERS PRIORITY
001296: 10,3576           77674                           MASK     PRIO37
001297: 10,3577           05210                           TC       PRIOCHNG
001298: 10,3600           30157                           CA       MPAC       +3
001299: 10,3601           14704                           TCF      BANKJUMP
001300:
001301: 10,3602           50164        UNSETR1            INDEX    COPINDEX                              #  RESET REPEAT AND RETURN REQUEST
001302: 10,3603           45015                           CS       BIT3
001303: 10,3604           71073                           MASK     R1SAVE
001304: 10,3605           55073                           TS       R1SAVE
001305: 10,3606           35021                           CAF      ZERO                                  #  *** 205 ONLY MARKBRAN USERS IN
001306: 10,3607           04773                           TC       SUPERSW                               #  SUPERBANK 0


001308:
001309: 10,3610           36214                 -1        CAF      THREE                                 #  RETURN TO USERS IMMEDIATE RETURN LOC
001310: 10,3611           50164        IMMEDRET           INDEX    COPINDEX
001311: 10,3612           60372                           AD       CADRFLSH
001312: 10,3613           14704                           TCF      BANKJUMP
001313:
001314: 10,3614           35021        TERMATE            CAF      ZERO                                  #  ASTRONAUT TERMINATE (V34) RETURNS TO
001315: 10,3615           13534                           TCF      ENDOUT
001316:
001317: 10,3616           40160        LINUSCHR           CS       PLAYTEM4                              #  IS THIS A LINUS
001318: 10,3617           75002                           MASK     BIT14
001319: 10,3620           10000                           CCS      A
001320: 10,3621           16706                           TCF      Q+1                                   #  NO
001321: 10,3622           40157                           CS       PLAYTEM3                              #  YES, IS IT ALREADY IN ENDIDLE
001322: 10,3623           50164                           INDEX    COPINDEX
001323: 10,3624           60372                           AD       CADRFLSH
001324: 10,3625           00006                           EXTEND
001325: 10,3626           13630                           BZF      +2                                    #  YES
001326:
001327: 10,3627           00002                           TC       Q                                     #  NO
001328: 10,3630           11012                           CCS      DSPLOCK                               #  IS THE ASTRONAUT BUSY
001329: 10,3631           05217                           TC       ENDOFJOB                              #  END THE NEW DISPLAY, ITS ALREADY ACTIVE
001330: 10,3632           00002                           TC       Q
001331:
001332:                                                                                                  #  MORE LOGIC COULD BE INCORPORATED HERE TO MAKE SURE A RECYCLE IS A RECYCLAND CONVERSLY THAT A LOAD IS A LOAD.
001333:
001334: 10,3633           35017        PROCEED            CAF      ONE                                   #  ASTRONAUT PROCEED (V33) RETURNS
001335: 10,3634           13534                           TCF      ENDOUT
001336:
001337:                                                                                                  #  LASTPLAY CHECKS TO SEE IF (1) THE LAST NORMAL DISPLAY WAS EITHER INTERRUPTED BY A PRIO OR A MARK (MARK
001338:                                                                                                  #  COULD ONLY HAPPEN DURING PINBRANCH) OR IF (2) THE LAST NORMAL DISPLAY WAS REQUESTED WHILE A HIGHER PRIORITY
001339:                                                                                                  #  DISPLAY WAS GOING RESULTING IN THE NORMAL BEING PUT TO SLEEP.
001340:
001341:                                                                                                  #  IF EITHER OF THE ABOVE 2 CONDITIONS EXISTS, THE NORMAL DISPLAY IS AWAKENED TO GO TO PLAYJUM1 WHICH STARTS
001342:                                                                                                  #  UP THE MOST RECENT VALID NORMAL DISPLAY.  IF THESE 2 CONDITIONS DO NOT EXIST, CONTROL GOES TO PLAYJUM1 WHICH IS
001343:                                                                                                  #  STARTED IMMEDIATELY WITH THE ASSUMPTION THAT THE MOST RECENT NORMAL DISPLAY IS ALREADY IN-ENDIDLE(DURING A
001344:                                                                                                  #  PINBRANCH) OR THAT A RESTART HAS OCCURRED AND THE DISPLAY CAN BE STARTED AS A .1 RESTART.
001345:
001346: 10,3635           46211        MARKRET            CS       SIX
001347: 10,3636           70100                           MASK     FLAGWRD4
001348: 10,3637           00004                           INHINT                                         #  *** MAY MOVE DISPLAY FLAGWORD OUT OF
001349: 10,3640           54100                           TS       FLAGWRD4
001350:
001351: 10,3641           00003                           RELINT                                         #  INHINT REALM
001352: 10,3642           13557                           TCF      ENDRET
001353:
001354: 10,3643           37716        MARKOVER           CAF      MINUS1                                #  RUPTREG2 IS - MEANS ENDOFJOB TO ENDRET
001355: 10,3644           54161                           TS       OUTHERE
001356: 10,3645           30100                           CA       FLAGWRD4                              #  IS ENDIDFLG SET
001357: 10,3646           74371                           MASK     PRIO30                                #  IS NORMAL OR PRIO IN ENDIDLE
001358: 10,3647           10000                           CCS      A


001360: 10,3650           13303                           TCF      NORMBNCH
001361:
001362: 10,3651           30100        NORMRET            CA       FLAGWRD4                              #  IS MARK SLEEPING
001363: 10,3652           73746                           MASK     BITS5+11                              #  OR WAITING
001364: 10,3653           10000                           CCS      A
001365: 10,3654           13245                           TCF      MARKWAKE
001366:
001367: 10,3655           30100                           CA       FLAGWRD4                              #  NO
001368: 10,3656           73747                           MASK     BITS4+10                              #  IS NORMAL INTERRUPTED OR WAITING
001369: 10,3657           10000                           CCS      A
001370: 10,3660           13555                           TCF      NORMWAKE                              #  YES
001371:
001372: 10,3661           31071                           CA       EBANKTEM                              #  NO, WAS IT A FLASH REQUEST
001373: 10,3662           75033                           MASK     OCT50                                 #  OR A GODSPRET
001374: 10,3663           10000                           CCS      A
001375: 10,3664           13557                           TCF      ENDRET                                #  YES
001376: 10,3665           30371                           CA       NVSAVE
001377: 10,3666           00006                           EXTEND
001378: 10,3667           13557                           BZF      ENDRET
001379:
001380: 10,3670           35067                           CAF      PRIO15
001381: 10,3671           00004                           INHINT
001382: 10,3672           05134                           TC       NOVAC
001383: 10,3673     0367                                  EBANK=   NVWORD
001384: 10,3673           03037 20060                     2CADR    PLAYJUM1
001385:
001386: 10,3675           13557                           TCF      ENDRET
001387:
001388: 10,3676           30100        MARSLEEP           CA       FLAGWRD4                              #  IS MARK ALREADY IN
001389: 10,3677           73746                           MASK     BITS5+11
001390: 10,3700           10000                           CCS      A
001391: 10,3701           15217                           TCF      ENDOFJOB                              #  YES
001392: 10,3702           13176                           TCF      GOSLEEPS
001393:
001394: 10,3703           50157        LOADITIS           INDEX    COPMPAC
001395: 10,3704           30367                           CA       NVWORD
001396: 10,3705           76043                           MASK     LOW7
001397: 10,3706           40000                           COM
001398: 10,3707           60155                           AD       MPAC       +1                         #  NOUNREG
001399: 10,3710           00006                           EXTEND
001400: 10,3711           13533                           BZF      OKTOENT                               #  NO, THEN LOAD IS VALID
001401: 10,3712           13272                           TCF      PINBRNCH                              #  YES, ACCEPT LOAD BUT ASK FOR LAST AGAIN
001402:
001403: 10,3713           46214        ERASER             CS       THREE                                 #  BLANK EVERYTHING EXCEPT MM
001404: 10,3714           04170                           TC       NVSUB
001405: 10,3715           15217                           TCF      ENDOFJOB
001406: 10,3716           15217                           TCF      ENDOFJOB
001407:
001408: 10,3717           00036        PERFMASK           OCT      0036                                  #  FLASH, PERFORM, BLANK R2 AND R3


001410: 10,3720           00231        V01N25             VN       00125
001411: 10,3721           01407        V06N07             VN       00607                                 #  GOPERF3 VN DISPLAY BEFORE V50
001412: 10,3722           14400        V50N00             VN       5000
001413: 10,3723           00030        PERF2MSK           OCT      00030                                 #  FLASH, PERFORM
001414: 10,3724           01006        V04N06             VN       00406
001415: 10,3725           00014        PERF4MSK           OCT      14                                    #  FLASH, BLANK R3
001416: 10,3726  10,3272               GOAGIN             EQUALS   PINBRNCH
001417: 10,3726           20010        REDOMASK           OCT      20010                                 #  BITS 4 AND 14
001418: 10,3727           40230        MARK3MSK           OCT      40230                                 #  MARK, DECIMAL NOUN, PERFORM, FLASH
001419: 10,3730           40036        MARK4MSK           OCT      40036                                 #  MARK, PERFORM, FLASH, BLANK 2 AND 3
001420: 10,3731           20764        NVCADR             CADR     REDOPRIO
001421: 10,3732           20624        WAKECADR           CADR     MARKPLAY
001422: 10,3733           21037                           CADR     PLAYJUM1
001423:
001424: 10,3734           03400        OCT3400            OCT      3400                                  #  EBANK MASK
001425: 10,3735           11210        NBUSMASK           OCT      11210
001426: 10,3736           66521        PMMASK             OCT      66521
001427: 10,3737     4160               VERBMASK           =        MID7                                  #  (OCT 37600)
001428: 10,3737           01177        V05N00M1           OCT      1177                                  #  V05 MINUS ONE
001429: 10,3740  10,2555               GOXDSP             EQUALS   GOMARK
001430: 10,3740  10,2575               GOXDSPR            EQUALS   GOMARKR
001431: 10,3740  10,2561               GOXDSPF            EQUALS   GOMARKF
001432: 10,3740  10,2600               GOXDSPFR           EQUALS   GOMARKFR
001433: 10,3740     5534               ENDEXT             EQUALS   ENDMARK
001434: 10,3740     0165               MPAC2SAV           EQUALS   BANKSET
001435: 10,3740           00700        NVBUSMSK           OCT      700
001436: 10,3741           00704        ASTROMSK           OCT      704
001437: 10,3742           40030        MPERFMSK           OCT      40030                                 #  BIT 15,5,4 FOR MARK,PERFORM,FLASH
001438: 10,3743           34300        OCT34300           OCT      34300
001439: 10,3744           40100        BITS15+7           OCT      40100
001440: 10,3745           00110        BITS7+4            OCT      110
001441: 10,3746     1067               DSPFLG             EQUALS   EBANKSAV
001442: 10,3746     1070               MARKFLAG           EQUALS   MARKEBAN
001443: 10,3746     1071               SAVEFLAG           EQUALS   EBANKTEM
001444: 10,3746           02020        BITS5+11           OCT      2020                                  #  * DONT MOVE
001445: 10,3747           01010        BITS4+10           OCT      1010                                  #  * DONT MOVE
001446: 10,3750           00026        LOWLOAD            DEC      22         B-14
001447: 10,3751           77730        BUSYMASK           OCT      77730
001448: 10,3752           00050        CADRMASK           OCT      50
001449: 10,3753     7707               PINMASK            EQUALS   13,14,15
001450: 10,3753  10,3312               GOPLAY             EQUALS   NVDSP
001451:                                                                                                  #  PRIOSAVE      EQUALS  R1SAVE
001452: 10,3753     0157               COPMPAC            EQUALS   MPAC       +3
001453: 10,3753     0160               TEMPOR2            EQUALS   MPAC       +4
001454: 10,3753     0161               OUTHERE            EQUALS   MPAC       +5
001455: 10,3753     0164               COPINDEX           EQUALS   LOC
001456: 10,3753     0163               USERPRIO           EQUALS   MODE
001457: 10,3753     0162               GENMASK            EQUALS   MPAC       +6
001458: 10,3753           20144        PRIOOCT            OCT      20144                                 #  PRIO
001459: 10,3754           42424        MARKOCT            OCT      42424                                 #  MARK


001461: 10,3755           11254                           OCT      11254                                 #  NORM
001462:
001463: 10,3756           74704        IDLESLEP           OCT      74704
001464: 10,3757           67777        OCT67777           OCT      67777
001465: 10,3760     5526               LINUS              EQUALS   BLANKET
001466: 10,3760     0154               FACEREG            EQUALS   MPAC
001467: 10,3760     0155               PLAYTEM1           EQUALS   MPAC       +1
001468: 10,3760     0157               PLAYTEM3           EQUALS   MPAC       +3
001469: 10,3760     0160               PLAYTEM4           EQUALS   MPAC       +4
001470: 10,3760           40420        OCT40420           OCT      40420
001471: 10,3761           02770        MAKEGEN            GENADR   MAKEPLAY
001472: 10,3762           10200        OCT10200           OCT      10200
001473: 10,3763           30200        V97N00             VN       09700                                 #  PASTE FOR V97 OR V99
001474: 10,3764           20100        OCT20100           OCT      20100
001475: 10,3765           24030        CLOCKCON           OCT      24030                                 #  FLASH, PERFORM, V99 OR V97 PASTE,REFLASH

End of include-file DISPLAY_INTERFACE_ROUTINES.agc.  Parent file is MAIN.agc


