
Source Code


000002:                                                                                                  ## Copyright:   Public domain.
000003:                                                                                                  ## Filename:    GROUND_TRACKING_DETERMINATION_PROGRAM_-_P21.agc
000004:                                                                                                  ## Purpose:     A section of Comanche revision 051.
000005:                                                                                                  ##              It is part of the reconstructed source code for the
000006:                                                                                                  ##              original release of the flight software for the Command
000007:                                                                                                  ##              Module's (CM) Apollo Guidance Computer (AGC) for Apollo 11.
000008:                                                                                                  ##              The code has been recreated from a copy of Comanche 055. It
000009:                                                                                                  ##              has been adapted such that the resulting bugger words
000010:                                                                                                  ##              exactly match those specified for Comanche 51 in NASA drawing
000011:                                                                                                  ##              2021153D, which gives relatively high confidence that the
000012:                                                                                                  ##              reconstruction is correct.
000013:                                                                                                  ## Reference:   pp. 456-459
000014:                                                                                                  ## Assembler:   yaYUL
000015:                                                                                                  ## Contact:     Ron Burkey <info@sandroid.org>.
000016:                                                                                                  ## Website:     www.ibiblio.org/apollo/index.html
000017:                                                                                                  ## Mod history: 2019-07-30 MAS  Created from Comanche 55.
000018:


000020:                                                                                                  #  GROUND TRACKING DETERMINATION PROGRAM P21
000021:
000022:                                                                                                  #  PROGRAM DESCRIPTION
000023:                                                                                                  #  MOD NO - 1
000024:                                                                                                  #  MOD BY - N. M. NEVILLE
000025:                                                                                                  #  FUNCTIONAL DECRIPTION-
000026:
000027:                                                                                                  #  TO PROVIDE THE ASTRONAUT DETAILS OF THE LM OR CSM GROUND TRACK WITHOUT
000028:                                                                                                  #  THE NEED FOR GROUND COMMUNICATION (REQUESTED BY DSKY).
000029:                                                                                                  #  CALLING SEQUENCE-
000030:
000031:                                                                                                  #  ASTRONAUT REQUEST THROUGH DSKY V37E21E
000032:                                                                                                  #  SUBROUTINES CALLED-
000033:
000034:                                                                                                  #  GOPERF4
000035:                                                                                                  #  GOFLASH
000036:                                                                                                  #  THISPREC
000037:                                                                                                  #  OTHPREC
000038:                                                                                                  #  LAT-LONG
000039:                                                                                                  #  NORMAL EXIT MODES-
000040:
000041:                                                                                                  #  ASTRONAUT REQUEST TROUGH DSKY TO TERMINATE PROGRAM V34E
000042:                                                                                                  #  ALARM OR ABORT EXIT MODES-
000043:
000044:                                                                                                  #  NONE
000045:                                                                                                  #  OUTPUT-
000046:
000047:                                                                                                  #  OCTAL DISPLAY OF OPTION CODE AND VEHICLE WHOSE GROUND TRACK IS TO BE
000048:                                                                                                  #  COMPUTED
000049:                                                                                                  #           OPTION CODE  00002
000050:                                                                                                  #           THIS         00001
000051:                                                                                                  #           OTHER                00002
000052:                                                                                                  #  DECIMAL DISPLAY OF TIME TO BE INTEGRATED TO HOURS , MINUTES , SECONDS
000053:                                                                                                  #  DECIMAL DISPLAY OF LAT,LONG,ALT
000054:                                                                                                  #  ERASABLE INITIALIZATION REQUIRED
000055:
000056:                                                                                                  #  AX0    2DEC   4.652459653 E-5   RADIANS       %68-69 CONSTANTS"
000057:
000058:                                                                                                  #  -AY0   2DEC   2.147535898 E-5   RADIANS
000059:
000060:                                                                                                  #  AZ0    2DEC   .7753206164       REVOLUTIONS
000061:                                                                                                  #  FOR LUNAR ORBITS 504LM VECTOR IS NEEDED
000062:
000063:                                                                                                  #  504LM  2DEC   -2.700340600 E-5  RADIANS
000064:
000065:                                                                                                  #  504LM _2 2DEC -7.514128400 E-4  RADIANS
000066:
000067:                                                                                                  #  504LM _4 2DEC _2.553198641 E-4  RADIANS
000068:
000069:                                                                                                  #  NONE
000070:                                                                                                  #  DEBRIS
000071:


000073:                                                                                                  #  CENTRALS-A,Q,L
000074:                                                                                                  #  OTHER-THOSE USED BY THE ABOVE LISTED SUBROUTINES
000075:                                                                                                  #  SEE LEMPREC, LAT-LONG
000076:
000077: 33,3776  30,2000                                  SBANK=   LOWSUPER                              #  FOR LOW 2CADR'S.
000078:
000079: 33,3776                                           BANK     33
000080: 37,2000                                           SETLOC   P20S
000081: 37,2000                                           BANK
000082:
000083: 37,2001  E4,1715                                  EBANK=   P21TIME
000084: 37,2001                                           COUNT    24/P21
000085:
000086: 37,2001           35017        PROG21             CAF      ONE
000087: 37,2002           55132                           TS       OPTION2                               #  ASSUMED VEHICLE IS LM, R2 = 00001
000088: 37,2003           35016                           CAF      BIT2                                  #   OPTION 2
000089: 37,2004           04662                           TC       BANKCALL
000090: 37,2005           21055                           CADR     GOPERF4
000091: 37,2006           04106                           TC       GOTOPOOH                              #  TERMINATE
000092: 37,2007           02011                           TC       +2                                    #  PROCEED VALUE OF ASSUMED VEHICLE OK
000093: 37,2010           02003                           TC       -5                                    #  R2 LOADED THROUGH DSKY
000094: 37,2011           32152        P21PROG1           CAF      V6N34                                 #  LOAD DESIRED TIME OF LAT-LONG.
000095: 37,2012           04662                           TC       BANKCALL
000096: 37,2013           20720                           CADR     GOFLASH
000097: 37,2014           04106                           TC       GOTOPOOH                              #  TERM
000098: 37,2015           02017                           TC       +2                                    #  PROCEED VALUES OK
000099: 37,2016           02011                           TC       -5                                    #  TIME LOADED THROUGH DSKY
000100: 37,2017           06006                           TC       INTPRET
000101: 37,2020           77745                           DLOAD
000102: 37,2021           01046                                    DSPTEM1
000103: 37,2022           34041                           STCALL   TDEC1                                 #  INTEG TO TIME SPECIFIED IN TDEC
000104: 37,2023           27442                                    INTSTALL
000105: 37,2024           43014                           BON      SET
000106: 37,2025           01303                                    P21FLAG
000107: 37,2026           76044                                    P21CONT                               #  ON...RECYCLE USING BASE VECTOR
000108: 37,2027           01474                                    VINTFLAG                              #  OFF..1ST PASS CALC BASE VECTOR
000109: 37,2030           70535                           SLOAD    SR1
000110: 37,2031           01133                                    OPTION2
000111: 37,2032           43030                           BHIZ     CLEAR
000112: 37,2033           76035                                    +2                                    #  ZERO..THIS VEHICLE (CM)
000113: 37,2034           01674                                    VINTFLAG                              #  ONE...OTHER VEHICLE(LM)
000114: 37,2035           43014                           CLEAR    CLEAR
000115: 37,2036           01676                                    DIM0FLAG
000116: 37,2037           01673                                    INTYPFLG                              #  PRECISION
000117: 37,2040           77624                           CALL
000118: 37,2041           27162                                    INTEGRV                               #  CALCULATE
000119: 37,2042           77650                           GOTO                                           #  .AND
000120: 37,2043           76065                                    P21VSAVE                              #  ..SAVE BASE VECTOR
000121: 37,2044           77775        P21CONT            VLOAD                                          #  RECYCLE..INTEG FROM BASE VECTOR
000122: 37,2045           03605                                    P21BASER


000124: 37,2046           25535                           STOVL    RCV                                   #  ..POS
000125: 37,2047           03613                                    P21BASEV
000126: 37,2050           15543                           STODL    VCV                                   #  ..VEL
000127: 37,2051           02316                                    P21TIME
000128: 37,2052           01517                           STORE    TET                                   #  ..TIME
000129: 37,2053           43014                           CLEAR    CLEAR
000130: 37,2054           01676                                    DIM0FLAG
000131: 37,2055           00263                                    MOONFLAG
000132: 37,2056           53135                           SLOAD    BZE
000133: 37,2057           03604                                    P21ORIG
000134: 37,2060           76063                                    +3                                    #  ZERO = EARTH
000135: 37,2061           77614                           SET                                            #  ...2 = MOON
000136: 37,2062           00063                                    MOONFLAG
000137: 37,2063           77624                           CALL
000138: 37,2064           27135                                    INTEGRVS
000139: 37,2065           77745        P21VSAVE           DLOAD                                          #  SAVE CURRENT BASE VECTOR
000140: 37,2066           00015                                    TAT
000141: 37,2067           26316                           STOVL    P21TIME                               #  ..TIME
000142: 37,2070           00017                                    RATT1
000143: 37,2071           27605                           STOVL    P21BASER                              #  ..POS B-29 OR B-27
000144: 37,2072           00025                                    VATT1
000145: 37,2073           03613                           STORE    P21BASEV                              #  ..VEL B-7  OR B-5
000146: 37,2074           53646                           ABVAL    SL*
000147: 37,2075           57576                                    0,2
000148: 37,2076           27623                           STOVL    P21VEL                                #  /VEL/ FOR N73 DSP
000149: 37,2077           00001                                    RATT
000150: 37,2100           50256                           UNIT     DOT
000151: 37,2101           00007                                    VATT                                  #  U(R).(V)
000152: 37,2102           67471                           DDV      ASIN                                  #  U(R).U(V)
000153: 37,2103           03623                                    P21VEL
000154: 37,2104           03625                           STORE    P21GAM                                #  SIN-1 U(R).U(V), -90 TO +90
000155: 37,2105           43134                           SXA,2    SET
000156: 37,2106           03603                                    P21ORIG                               #  0 = EARTH  2 = MOON
000157: 37,2107           01063                                    P21FLAG
000158: 37,2110           67214        P21DSP             CLEAR    SLOAD                                 #  GENERATE DISPLAY DATA
000159: 37,2111           01663                                    LUNAFLAG
000160: 37,2112           00050                                    X2
000161: 37,2113           43054                           BZE      SET
000162: 37,2114           76116                                    +2                                    #  0 = EARTH
000163: 37,2115           01463                                    LUNAFLAG
000164: 37,2116           77775                           VLOAD
000165: 37,2117           00001                                    RATT
000166: 37,2120           16152                           STODL    ALPHAV
000167: 37,2121           00015                                    TAT
000168: 37,2122           45014                           CLEAR    CALL
000169: 37,2123           00662                                    ERADFLAG
000170: 37,2124           26370                                    LAT-LONG
000171: 37,2125           77605                           DMP                                            #  MPAC = ALT, METERS B-29
000172: 37,2126           36154                                    K.01
000173: 37,2127           03621                           STORE    P21ALT                                #  ALT/100 FOR N73 DSP


000175: 37,2130           77776                           EXIT
000176: 37,2131           32151                           CAF      V06N43                                #  DISPLAY LAT,LONG,ALT
000177: 37,2132           04662                           TC       BANKCALL                              #  LAT,LONG = REVS B0 BOTH EARTH/MOON
000178: 37,2133           20720                           CADR     GOFLASH                               #  ALT = METERS B-29  BOTH EARTH/MOON
000179: 37,2134           04106                           TC       GOTOPOOH                              #  TERM
000180: 37,2135           04106                           TC       GOTOPOOH
000181: 37,2136           06006                           TC       INTPRET                               #  V32E RECYCLE
000182: 37,2137           43345                           DLOAD    DAD
000183: 37,2140           02316                                    P21TIME
000184: 37,2141           36146                                    600SEC                                #  600 SECONDS OR 10 MIN
000185: 37,2142           01046                           STORE    DSPTEM1
000186: 37,2143           77634                           RTB
000187: 37,2144           76011                                    P21PROG1
000188:
000189: 37,2145           00003 25140  600SEC             2DEC     60000      B-28                       #  10 MIN
000190:
000191: 37,2147           00001        P21ONENN           OCT      00001                                 #  NEEDED TO DETERMINE VEHICLE
000192: 37,2150           00000                           OCT      00000                                 #  TO BE INTEGRATED
000193: 37,2151           01453        V06N43             VN       00643
000194: 37,2152           01442        V6N34              VN       00634
000195: 37,2153           00243 32703  K.01               2DEC     .01
000196:

End of include-file GROUND_TRACKING_DETERMINATION_PROGRAM_-_P21.agc.  Parent file is MAIN.agc


