
Source Code


000002:                                                                                                  ## Copyright:   Public domain.
000003:                                                                                                  ## Filename:    INTERPRETIVE_CONSTANTS.agc
000004:                                                                                                  ## Purpose:     A section of Comanche revision 051.
000005:                                                                                                  ##              It is part of the reconstructed source code for the
000006:                                                                                                  ##              original release of the flight software for the Command
000007:                                                                                                  ##              Module's (CM) Apollo Guidance Computer (AGC) for Apollo 11.
000008:                                                                                                  ##              The code has been recreated from a copy of Comanche 055. It
000009:                                                                                                  ##              has been adapted such that the resulting bugger words
000010:                                                                                                  ##              exactly match those specified for Comanche 51 in NASA drawing
000011:                                                                                                  ##              2021153D, which gives relatively high confidence that the
000012:                                                                                                  ##              reconstruction is correct.
000013:                                                                                                  ## Reference:   pp. 1205-1206
000014:                                                                                                  ## Assembler:   yaYUL
000015:                                                                                                  ## Contact:     Ron Burkey <info@sandroid.org>.
000016:                                                                                                  ## Website:     www.ibiblio.org/apollo/index.html
000017:                                                                                                  ## Mod history: 2019-07-30 MAS  Created from Comanche 55.
000018:


000020: 26,2000                                           SETLOC   INTPRET1
000021: 26,2000                                           BANK
000022:
000023: 26,3324                                           COUNT    23/ICONS
000024:
000025: 26,3324           10000 00000  DP1/4TH            2DEC     .25
000026:
000027: 26,3326           00000 00000  UNITZ              2DEC     0          B-28
000028:
000029: 26,3330           00000 00000  UNITY              2DEC     0          B-28
000030:
000031: 26,3332           20000 00000  UNITX              2DEC     .5
000032:
000033: 26,3334           00000 00000  ZEROVECS           2DEC     0          B-28
000034:
000035: 26,3336           00000 00000                     2DEC     0          B-28
000036:
000037: 26,3340           00000 00000                     2DEC     0          B-28
000038:
000039: 26,3342  26,3332               DPHALF             =        UNITX
000040: 26,3342           37777        DPPOSMAX           OCT      37777
000041: 26,3343           37777                           OCT      37777
000042:


000044:                                                                                                  #  INTERPRETIVE CONSTANTS IN THE OTHER HALF-MEMORY
000045:
000046: 04,2000                                           SETLOC   INTPRET2
000047: 04,2000                                           BANK
000048:
000049: 04,3557                                           COUNT    14/ICONS
000050:
000051: 04,3557           00000 00000  ZUNIT              2DEC     0          B-28
000052:
000053: 04,3561           00000 00000  YUNIT              2DEC     0          B-28
000054:
000055: 04,3563           20000 00000  XUNIT              2DEC     .5
000056:
000057: 04,3565           00000 00000  ZEROVEC            2DEC     0          B-28
000058:
000059: 04,3567           00000 00000                     2DEC     0          B-28
000060:
000061: 04,3571           00000 00000                     2DEC     0          B-28
000062:
000063: 04,3573           77777                           OCT      77777                                 #  -0, -6, -12 MUST REMAIN IN THIS ORDER
000064: 04,3574           77771        DEC-6              DEC      -6         B-14
000065: 04,3575           77763        DEC-12             DEC      -12        B-14
000066: 04,3576           37777 37777  LODPMAX            2OCT     3777737777                            #  THESE TWO CONSTANTS MUST REMAIN
000067:
000068: 04,3600           37777 37777  LODPMAX1           2OCT     3777737777                            #  ADJACENT AND THE SAME FOR INTEGRATION
000069:
000070: 04,3602  04,3565               ZERODP             =        ZEROVEC
000071: 04,3602  04,3563               HALFDP             =        XUNIT
000072:
000073:
000074:
000075:

End of include-file INTERPRETIVE_CONSTANTS.agc.  Parent file is MAIN.agc


