
Source Code


000002:                                                                                                  ## Copyright:   Public domain.
000003:                                                                                                  ## Filename:    INTERRUPT_LEAD_INS.agc
000004:                                                                                                  ## Purpose:     A section of Comanche revision 051.
000005:                                                                                                  ##              It is part of the reconstructed source code for the
000006:                                                                                                  ##              original release of the flight software for the Command
000007:                                                                                                  ##              Module's (CM) Apollo Guidance Computer (AGC) for Apollo 11.
000008:                                                                                                  ##              The code has been recreated from a copy of Comanche 055. It
000009:                                                                                                  ##              has been adapted such that the resulting bugger words
000010:                                                                                                  ##              exactly match those specified for Comanche 51 in NASA drawing
000011:                                                                                                  ##              2021153D, which gives relatively high confidence that the
000012:                                                                                                  ##              reconstruction is correct.
000013:                                                                                                  ## Reference:   pp. 131-132
000014:                                                                                                  ## Assembler:   yaYUL
000015:                                                                                                  ## Contact:     Ron Burkey <info@sandroid.org>.
000016:                                                                                                  ## Website:     www.ibiblio.org/apollo/index.html
000017:                                                                                                  ## Mod history: 2019-07-30 MAS  Created from Comanche 55.
000018:


000020:    4000                                           SETLOC   4000
000021:
000022:    4000                                           COUNT    02/RUPTS
000023:
000024:    4000           00004                           INHINT                                         #  GO
000025:    4001           34054                           CAF      GOBB
000026:    4002           56006                           XCH      BBANK
000027:    4003           12526                           TCF      GOPROG
000028:
000029:    4004           52011                           DXCH     ARUPT                                 #  T6RUPT
000030:    4005           00006                           EXTEND
000031:    4006           31311                           DCA      T6LOC
000032:    4007           52006                           DTCB
000033:
000034:    4010           52011                           DXCH     ARUPT                                 #  T5RUPT
000035:    4011           40030                           CS       TIME5
000036:    4012           65036                           AD       .5SEC
000037:    4013           14065                           TCF      T5RUPT
000038:
000039:    4014           52011                           DXCH     ARUPT                                 #  T3RUPT
000040:    4015           34055                           CAF      T3RPTBB
000041:    4016           56006                           XCH      BBANK
000042:    4017           13416                           TCF      T3RUPT
000043:
000044:    4020           52011                           DXCH     ARUPT                                 #  T4RUPT
000045:    4021           34063                           CAF      T4RPTBB
000046:    4022           56006                           XCH      BBANK
000047:    4023           12000                           TCF      T4RUPT
000048:
000049:    4024           52011                           DXCH     ARUPT                                 #  KEYRUPT1
000050:    4025           34056                           CAF      KEYRPTBB
000051:    4026           56006                           XCH      BBANK
000052:    4027           13673                           TCF      KEYRUPT1
000053:
000054:    4030           52011                           DXCH     ARUPT                                 #  KEYRUPT2
000055:    4031           34057                           CAF      MKRUPTBB
000056:    4032           56006                           XCH      BBANK
000057:    4033           12104                           TCF      MARKRUPT
000058:
000059:    4034           52011                           DXCH     ARUPT                                 #  UPRUPT
000060:    4035           34056                           CAF      UPRPTBB
000061:    4036           56006                           XCH      BBANK
000062:    4037           13716                           TCF      UPRUPT
000063:
000064:    4040           52011                           DXCH     ARUPT                                 #  DOWNRUPT
000065:    4041           34060                           CAF      DWNRPTBB
000066:    4042           56006                           XCH      BBANK
000067:    4043           13521                           TCF      DODOWNTM
000068:
000069:    4044           52011                           DXCH     ARUPT                                 #  RADAR RUPT


000071:    4045           34061                           CAF      RDRPTBB
000072:    4046           56006                           XCH      BBANK
000073:    4047           12504                           TCF      VHFREAD
000074:
000075:    4050           52011                           DXCH     ARUPT                                 #  HAND CONTROL RUPT
000076:    4051           34062                           CAF      HCRUPTBB
000077:    4052           56006                           XCH      BBANK
000078:    4053           15336                           TCF      RESUME     +3                         #  NOT USED
000079:
000080:    4054  E3,1400                                  EBANK=   LST1                                  #  RESTART USES E0,E3
000081:    4054           12063        GOBB               BBCON    GOPROG
000082:
000083:    4055  E3,1400                                  EBANK=   LST1
000084:    4055           02063        T3RPTBB            BBCON    T3RUPT
000085:
000086:    4056     0073                                  EBANK=   KEYTEMP1
000087:    4056           16060        KEYRPTBB           BBCON    KEYRUPT1
000088:
000089:    4057  E7,1725                                  EBANK=   MRKBUF1
000090:    4057           16067        MKRUPTBB           BBCON    MARKRUPT
000091:
000092:    4060     4056               UPRPTBB            =        KEYRPTBB
000093:
000094:    4060     0340                                  EBANK=   DNTMBUFF
000095:    4060           12060        DWNRPTBB           BBCON    DODOWNTM
000096:
000097:    4061  E7,1603                                  EBANK=   DATATEST
000098:    4061           56067        RDRPTBB            BBCON    VHFREAD
000099:
000100:    4062     0025                                  EBANK=   TIME1
000101:    4062           04060        HCRUPTBB           BBCON    RESUME                                #  NOT USED
000102:
000103:    4063     1302                                  EBANK=   DSRUPTSW
000104:    4063           14062        T4RPTBB            BBCON    T4RUPT
000105:
000106:    4064     0025                                  EBANK=   TIME1
000107:    4064           04060        T5RPTBB            BBCON    T5RUPT
000108:
000109:    4065           00006        T5RUPT             EXTEND
000110:    4066           65337                           BZMF     NOQBRSM
000111:    4067           00006                           EXTEND
000112:    4070           31313                           DCA      T5LOC
000113:    4071           52006                           DTCB
000114:
000115:
000116:

End of include-file INTERRUPT_LEAD_INS.agc.  Parent file is MAIN.agc


