
Source Code


000002:                                                                                                  ## Copyright:   Public domain.
000003:                                                                                                  ## Filename:    KEYRUPT,_UPRUPT.agc
000004:                                                                                                  ## Purpose:     A section of Comanche revision 051.
000005:                                                                                                  ##              It is part of the reconstructed source code for the
000006:                                                                                                  ##              original release of the flight software for the Command
000007:                                                                                                  ##              Module's (CM) Apollo Guidance Computer (AGC) for Apollo 11.
000008:                                                                                                  ##              The code has been recreated from a copy of Comanche 055. It
000009:                                                                                                  ##              has been adapted such that the resulting bugger words
000010:                                                                                                  ##              exactly match those specified for Comanche 51 in NASA drawing
000011:                                                                                                  ##              2021153D, which gives relatively high confidence that the
000012:                                                                                                  ##              reconstruction is correct.
000013:                                                                                                  ## Reference:   pp. 1449-1451
000014:                                                                                                  ## Assembler:   yaYUL
000015:                                                                                                  ## Contact:     Ron Burkey <info@sandroid.org>.
000016:                                                                                                  ## Website:     www.ibiblio.org/apollo/index.html
000017:                                                                                                  ## Mod history: 2019-07-30 MAS  Created from Comanche 55.
000018:


000020: 14,3761                                           BANK     14
000021: 07,2000                                           SETLOC   KEYRUPT
000022: 07,2000                                           BANK
000023: 07,3673                                           COUNT*   $$/KEYUP
000024:
000025: 07,3673           54016        KEYRUPT1           TS       BANKRUPT
000026: 07,3674           56002                           XCH      Q
000027: 07,3675           54012                           TS       QRUPT
000028: 07,3676           04414                           TC       LODSAMPT                              #  TIME IS SNATCHED IN RUPT FOR NOUN 65.
000029: 07,3677           34362                           CAF      LOW5
000030: 07,3700           00006                           EXTEND
000031: 07,3701           02015                           RAND     MNKEYIN                               #  CHECK IF KEYS 5M-1M ON
000032: 07,3702           54073        KEYCOM             TS       RUPTREG4
000033: 07,3703           40101                           CS       FLAGWRD5
000034: 07,3704           75001                           MASK     BIT15
000035: 07,3705           26101                           ADS      FLAGWRD5
000036:
000037: 07,3706           34371        ACCEPTUP           CAF      CHRPRIO                               #  (NOTE: RUPTREG4 = KEYTEMP1)
000038: 07,3707           05134                           TC       NOVAC
000039: 07,3710     0777                                  EBANK=   DSPCOUNT
000040: 07,3710           02000 60101                     2CADR    CHARIN
000041:
000042: 07,3712           30073                           CA       RUPTREG4
000043: 07,3713           50064                           INDEX    LOCCTR
000044: 07,3714           54154                           TS       MPAC                                  #  LEAVE 5 BIT KEY CDE IN MPAC FOR CHARIN
000045: 07,3715           05333                           TC       RESUME
000046:


000048:                                                                                                  #  UPRUPT PROGRAM
000049:
000050: 07,3716           54016        UPRUPT             TS       BANKRUPT
000051: 07,3717           56002                           XCH      Q
000052: 07,3720           54012                           TS       QRUPT
000053: 07,3721           04414                           TC       LODSAMPT                              #  TIME IS SNATCHED IN RUPT FOR NOUN 65.
000054: 07,3722           35021                           CAF      ZERO
000055: 07,3723           56045                           XCH      INLINK
000056: 07,3724           54073                           TS       KEYTEMP1
000057: 07,3725           35015                           CAF      BIT3                                  #  TURN ON UPACT LIGHT
000058: 07,3726           00006                           EXTEND                                         #  (BIT 3 OF CHANNEL 11)
000059: 07,3727           05011                           WOR      DSALMOUT
000060: 07,3730           34362        UPRPT1             CAF      LOW5                                  #  TEST FOR TRIPLE CHAR REDUNDANCY
000061: 07,3731           70073                           MASK     KEYTEMP1                              #  LOW5 OF WORD
000062: 07,3732           56073                           XCH      KEYTEMP1                              #  LOW5 INTO KEYTEMP1
000063: 07,3733           00006                           EXTEND
000064: 07,3734           75006                           MP       BIT10                                 #  SHIFT RIGHT 5
000065: 07,3735           54734                           TS       KEYTEMP2
000066: 07,3736           74362                           MASK     LOW5                                  #  MID 5
000067: 07,3737           63773                           AD       HI10
000068: 07,3740           03770                           TC       UPTEST
000069: 07,3741           35006                           CAF      BIT10
000070: 07,3742           00006                           EXTEND
000071: 07,3743           70734                           MP       KEYTEMP2                              #  SHIFT RIGHT 5
000072: 07,3744           74362                           MASK     LOW5                                  #  HIGH 5
000073: 07,3745           40000                           COM
000074: 07,3746           03770                           TC       UPTEST
000075:
000076: 07,3747           43776        UPOK               CS       ELRCODE                               #  CODE IS GOOD.  IF CODE = 'ERROR RESET',
000077: 07,3750           60073                           AD       KEYTEMP1                              #  CLEAR UPLOCKFL (SET BIT4 OF FLAGWRD7 = 0)
000078: 07,3751           00006                           EXTEND                                         #  IF CODE DOES NOT = 'ERROR RESET', ACCEPT
000079: 07,3752           13760                           BZF      CLUPLOCK                              #  CODE ONLY IF UPLOCKFL IS CLEAR (=0).
000080:
000081: 07,3753           35014                           CAF      BIT4                                  #  TEST UPLOCKFL FOR 0 OR 1.
000082: 07,3754           70103                           MASK     FLAGWRD7
000083: 07,3755           10000                           CCS      A
000084: 07,3756           05333                           TC       RESUME                                #  UPLOCKFL = 1
000085: 07,3757           03706                           TC       ACCEPTUP                              #  UPLOCKFL = 0
000086:
000087: 07,3760           45014        CLUPLOCK           CS       BIT4                                  #  CLEAR UPLOCKFL (I.E., SET BIT 4 OF
000088: 07,3761           70103                           MASK     FLAGWRD7                              #  FLAGWRD7 = 0)
000089: 07,3762           54103                           TS       FLAGWRD7
000090: 07,3763           03706                           TC       ACCEPTUP
000091:
000092:                                                                                                  #  CODE IS BAD
000093: 07,3764           40103        TMFAIL2            CS       FLAGWRD7                              #  LOCK OUT FURTHER UPLINK ACTIVITY
000094: 07,3765           75014                           MASK     BIT4                                  #  (BY SETTING UPLOCKFL = 1) UNTIL
000095: 07,3766           26103                           ADS      FLAGWRD7                              #  'ERROR RESET' IS SENT VIA UPLINK.
000096: 07,3767           05333                           TC       RESUME
000097: 07,3770           60073        UPTEST             AD       KEYTEMP1


000099: 07,3771           10000                           CCS      A
000100: 07,3772           03764                           TC       TMFAIL2
000101: 07,3773           77740        HI10               OCT      77740
000102: 07,3774           03764                           TC       TMFAIL2
000103: 07,3775           00002                           TC       Q
000104:
000105: 07,3776           00022        ELRCODE            OCT      22
000106:
000107:                                                                                                  #  'UPLINK ACTIVITY LIGHT' IS TURNED OFF BY .....
000108:                                                                                                  #        1.      VBRELDSP
000109:                                                                                                  #        2.      ERROR RESET
000110:                                                                                                  #        3.      UPDATE PROGRAM (P27) ENTERED BY V70,V71,V72, AND V73.
000111:
000112:                                                                                                  #                                     -
000113:                                                                                                  #  THE RECEPTION OF A BAD CODE (I.E  CCC FAILURE) LOCKS OUT FURTHER UPLINK ACTIVITY BY SETTING BIT4 OF FLAGWRD7 = 1.
000114:                                                                                                  #  THIS INDICATION WILL BE TRANSFERRED TO THE GROUND BY THE DOWNLINK WHICH DOWNLINKS ALL FLAGWORDS.
000115:                                                                                                  #  WHEN UPLINK ACTIVITY IS LOCKED OUT, IT CAN BE ALLOWED WHEN THE GROUND UPLINKS AND 'ERROR RESET' CODE.
000116:                                                                                                  #  (IT IS RECOMMENDED THAT THE 'ERROR LIGHT RESET' CODE IS PRECEEDED BY 16 BITS THE FIRST OF WHICH IS 1 FOLLOWED
000117:                                                                                                  #  BY 15 ZEROES.  THIS WILL ELIMINATE EXTRANEOUS BITS FROM INLINK WHICH MAY HAVE BEEN LEFT OVER FROM THE ORIGINAL
000118:                                                                                                  #  FAILURE)
000119:
000120:                                                                                                  #  UPLINK ACTIVITY IS ALSO ALLOWED (UNLOCKED) DURING FRESH START WHEN FRESH START SETS BIT4 OF FLAGWRD7 = 0.
000121:
000122:

End of include-file KEYRUPT,_UPRUPT.agc.  Parent file is MAIN.agc


