
Source Code


000002:                                                                                                  ## Copyright:   Public domain.
000003:                                                                                                  ## Filename:    MYSUBS.agc
000004:                                                                                                  ## Purpose:     A section of Comanche revision 051.
000005:                                                                                                  ##              It is part of the reconstructed source code for the
000006:                                                                                                  ##              original release of the flight software for the Command
000007:                                                                                                  ##              Module's (CM) Apollo Guidance Computer (AGC) for Apollo 11.
000008:                                                                                                  ##              The code has been recreated from a copy of Comanche 055. It
000009:                                                                                                  ##              has been adapted such that the resulting bugger words
000010:                                                                                                  ##              exactly match those specified for Comanche 51 in NASA drawing
000011:                                                                                                  ##              2021153D, which gives relatively high confidence that the
000012:                                                                                                  ##              reconstruction is correct.
000013:                                                                                                  ## Reference:   pp. 999-1001
000014:                                                                                                  ## Assembler:   yaYUL
000015:                                                                                                  ## Contact:     Ron Burkey <info@sandroid.org>.
000016:                                                                                                  ## Website:     www.ibiblio.org/apollo/index.html
000017:                                                                                                  ## Mod history: 2019-07-30 MAS  Created from Comanche 55.
000018:


000020: 20,3612                                           BANK     20
000021: 21,2000                                           SETLOC   MYSUBS
000022: 21,2000                                           BANK
000023:
000024: 21,2042  E6,1510                                  EBANK=   KMPAC
000025: 21,2042     5074               SPCOS1             EQUALS   SPCOS
000026: 21,2042     5075               SPSIN1             EQUALS   SPSIN
000027: 21,2042     5074               SPCOS2             EQUALS   SPCOS
000028: 21,2042     5075               SPSIN2             EQUALS   SPSIN
000029:
000030: 21,2042                                           COUNT    21/DAPMS
000031:
000032:                                                                                                  #  ONE AND ONE HALF PRECISION MULTIPLICATION ROUTINE
000033:
000034: 21,2042           55512        SMALLMP            TS       KMPTEMP                               #  A(X+Y)
000035: 21,2043           00006                           EXTEND
000036: 21,2044           71511                           MP       KMPAC      +1
000037: 21,2045           55511                           TS       KMPAC      +1                         #  AY
000038: 21,2046           35021                           CAF      ZERO
000039: 21,2047           57510                           XCH      KMPAC
000040: 21,2050           00006                           EXTEND
000041: 21,2051           71512                           MP       KMPTEMP                               #  AX
000042: 21,2052           21511                           DAS      KMPAC                                 #  AX+AY
000043: 21,2053           00002                           TC       Q
000044:
000045:                                                                                                  #  SUBROUTINE FOR DOUBLE PRECISION ADDITIONS OF ANGLES
000046:                                                                                                  #  A AND L CONTAIN A DP(1S) ANGLE SCALED BY 180 DEGS TO BE ADDED TO KMPAC.
000047:                                                                                                  #  RESULT IS PLACED IN KMPAC.  TIMING = 6 MCT (22 MCT ON OVERFLOW)
000048:
000049: 21,2054           21511        DPADD              DAS      KMPAC
000050: 21,2055           00006                           EXTEND
000051: 21,2056           12073                           BZF      TSK        +1                         #  NO OVERFLOW
000052: 21,2057           11510                           CCS      KMPAC
000053: 21,2060           12074                           TCF      DPADD+                                #  + OVERFLOW
000054: 21,2061           12063                           TCF      +2
000055: 21,2062           12076                           TCF      DPADD-                                #  - OVERFLOW
000056: 21,2063           11511                           CCS      KMPAC      +1
000057: 21,2064           12101                           TCF      DPADD2+                               #  UPPER = 0, LOWER +
000058: 21,2065           12067                           TCF      +2
000059: 21,2066           40000                           COM                                            #  UPPER = 0, LOWER -
000060: 21,2067           64777                           AD       POSMAX                                #  LOWER = 0, A = 0
000061: 21,2070           55511                           TS       KMPAC      +1                         #  CAN NOT OVERFLOW
000062: 21,2071           34777                           CA       POSMAX                                #  UPPER WAS = 0
000063: 21,2072           55510        TSK                TS       KMPAC
000064: 21,2073           00002                           TC       Q
000065:
000066: 21,2074           65001        DPADD+             AD       NEGMAX                                #  KMPAC GREATER THAN 0
000067: 21,2075           12072                           TCF      TSK
000068:


000070: 21,2076           40000        DPADD-             COM
000071: 21,2077           64777                           AD       POSMAX                                #  KMPAC LESS THAN 0
000072: 21,2100           12072                           TCF      TSK
000073:
000074: 21,2101           65001        DPADD2+            AD       NEGMAX                                #  CAN NOT OVERFLOW
000075: 21,2102           55511                           TS       KMPAC      +1
000076: 21,2103           35001                           CA       NEGMAX                                #  UPPER WAS = 0
000077: 21,2104           12072                           TCF      TSK
000078:


000081:
000082:

End of include-file MYSUBS.agc.  Parent file is MAIN.agc


