
Source Code


000002:                                                                                                  ## Copyright:   Public domain.
000003:                                                                                                  ## Filename:    P34-P35,_P74-P75.agc
000004:                                                                                                  ## Purpose:     A section of Comanche revision 051.
000005:                                                                                                  ##              It is part of the reconstructed source code for the
000006:                                                                                                  ##              original release of the flight software for the Command
000007:                                                                                                  ##              Module's (CM) Apollo Guidance Computer (AGC) for Apollo 11.
000008:                                                                                                  ##              The code has been recreated from a copy of Comanche 055. It
000009:                                                                                                  ##              has been adapted such that the resulting bugger words
000010:                                                                                                  ##              exactly match those specified for Comanche 51 in NASA drawing
000011:                                                                                                  ##              2021153D, which gives relatively high confidence that the
000012:                                                                                                  ##              reconstruction is correct.
000013:                                                                                                  ## Reference:   pp. 460-504
000014:                                                                                                  ## Assembler:   yaYUL
000015:                                                                                                  ## Contact:     Ron Burkey <info@sandroid.org>.
000016:                                                                                                  ## Website:     www.ibiblio.org/apollo/index.html
000017:                                                                                                  ## Mod history: 2019-07-30 MAS  Created from Comanche 55.
000018:


000020:                                                                                                  #  TRANSFER PHASE INITIATION (TPI) PROGRAMS (P34 AND P74)
000021:                                                                                                  #  MOD NO -1                     LOG SECTION - P32-P35, P72-P75
000022:                                                                                                  #  MOD BY WHITE.P                DATE 1JUNE67
000023:
000024:                                                                                                  #  PURPOSE
000025:                                                                                                  #        (1)     TO CALCULATE THE REQUIRED DELTA V AND OTHER INITIAL CONDITIONS
000026:                                                                                                  #                REQUIRED BY THE ACTIVE VEHICLE FOR EXECUTION OF THE TRANSFER
000027:                                                                                                  #                PHASE INITIATION (TPI) MANEUVER, GIVEN -
000028:                                                                                                  #                (A)     TIME OF IGNITION TIG (TPI) OR THE ELEVATION ANGLE (E) OF
000029:                                                                                                  #                        THE ACTIVE/PASSIVE VEHICLE LOS AT TIG (TPI).
000030:                                                                                                  #                (B)     CENTRAL ANGLE OF TRANSFER (CENTANG) FROM TIG (TPI) TO
000031:                                                                                                  #                        INTERCEPT TIME (TIG (TPF)).
000032:                                                                                                  #        (2)     TO CALCULATE TIG (TPI) GIVEN E OR E GIVEN TIG (TPI).
000033:                                                                                                  #        (3)     TO CALCULATE THESE PARAMETERS BASED UPON MANEUVER DATA
000034:                                                                                                  #                APPROVED AND KEYED INTO THE DSKY BY THE ASTRONAUT.
000035:                                                                                                  #        (4)     TO DISPLAY TO THE ASTRONAUT AND THE GROUND CERTAIN DEPENDENT
000036:                                                                                                  #                VARIABLES ASSOCIATED WITH THE MANEUVER FOR APPROVAL BY THE
000037:                                                                                                  #                ASTRONAUT/GROUND.
000038:                                                                                                  #        (5)     TO STORE THE TPI TARGET PARAMETERS FOR USE BY THE DESIRED
000039:                                                                                                  #                THRUSTING PROGRAM.
000040:
000041:                                                                                                  #  ASSUMPTIONS
000042:                                                                                                  #        (1)     LM ONLY - THIS PROGRAM IS BASED UPON PREVIOUS COMPLETION OF
000043:                                                                                                  #                THE CONSTANT DELTA ALTITUDE (CDH) PROGRAM (P33/P73).
000044:                                                                                                  #                THEREFORE -
000045:                                                                                                  #                (A)     AT A SELECTED TPI TIME (NOW IN STORAGE) THE LINE OF SIGHT
000046:                                                                                                  #                        BETWEEN THE ACTIVE AND PASSIVE VEHICLES WAS SELECTED TO BE
000047:                                                                                                  #                        A PRESCRIBED ANGLE (E) (NOW IN STORAGE) FROM THE
000048:                                                                                                  #                        HORIZONTAL PLANE DEFINED BY THE ACTIVE VEHICLE POSITION.
000049:                                                                                                  #                (B)     THE TIME BETWEEN CDH IGNITION AND TPI IGNITION WAS
000050:                                                                                                  #                        COMPUTED TO BE GREATER THAN 10 MINUTES.
000051:                                                                                                  #                (C)     THE VARIATION OF THE ALTITUDE DIFFERENCE BETWEEN THE
000052:                                                                                                  #                        ORBITS WAS MINIMIZED.
000053:                                                                                                  #                (D)     THE PERICENTER ALTITUDES OF ORBITS FOLLOWING CSI AND
000054:                                                                                                  #                        CDH WERE COMPUTED TO BE GREATER THAN 35,000 FT FOR LUNAR


000056:                                                                                                  #                        ORBIT OR 85 NM FOR EARTH ORBIT.
000057:                                                                                                  #                (E)     THE CSI AND CDH MANEUVERS WERE ASSUMED TO BE PARALLEL TO
000058:                                                                                                  #                        THE PLANE OF THE PASSIVE VEHICLE ORBIT.  HOWEVER, CREW
000059:                                                                                                  #                        MODIFICATION OF DELTA V (LV) COMPONENTS MAY HAVE RESULTED
000060:                                                                                                  #                        IN AN OUT-OF-PLANE MANEUVER.
000061:                                                                                                  #        (2)     STATE VECTOR UPDATED BY P27 ARE DISALLOWED DURING AUTOMATIC
000062:                                                                                                  #                STATE VECTOR UPDATING INITIATED BY P20 (SEE ASSUMPTION (4)).
000063:                                                                                                  #        (3)     THIS PROGRAM MUST BE DONE OVER A TRACKING STATION FOR REAL
000064:                                                                                                  #                TIME GROUND PARTICIPATION IN DATA INPUT AND OUTPUT.  COMPUTED
000065:                                                                                                  #                VARIABLES MAY BE STORED FOR LATER VERIFICATION BY THE GROUND.
000066:                                                                                                  #                THESE STORAGE CAPABILITIES ARE LIMITED ONLY TO THE PARAMETERS
000067:                                                                                                  #                FOR ONE THRUSTING MANEUVER AT A TIME EXCEPT FOR CONCENTRIC
000068:                                                                                                  #                FLIGHT PLAN MANEUVER SEQUENCES.
000069:                                                                                                  #        (4)     THE RENDEZVOUS RADAR MAY OR MAY NOT BE USED TO UPDATE THE LM
000070:                                                                                                  #                OR CSM STATE VECTORS FOR THIS PROGRAM.  IF RADAR USE IS
000071:                                                                                                  #                DESIRED THE RADAR WAS TURNED ON AND LOCKED ON THE CSM BY
000072:                                                                                                  #                PREVIOUS SELECTION OF P20.  RADAR SIGHTING MARKS WILL BE MADE
000073:                                                                                                  #                AUTOMATICALLY APPROXIMATELY ONCE A MINUTE WHEN ENABLED BY THE
000074:                                                                                                  #                TRACK AND UPDATE FLAGS (SEE P20).  THE RENDEZVOUS TRACKING
000075:                                                                                                  #                MARK COUNTER IS ZEROED BY THE SELECTION OF P20 AND AFTER EACH
000076:                                                                                                  #                THRUSTING MANEUVER.
000077:                                                                                                  #        (5)     THE ISS NEED NOT BE ON TO COMPLETE THIS PROGRAM.
000078:                                                                                                  #        (6)     THE OPERATION OF THE PROGRAM UTILIZES THE FOLLOWING FLAGS -
000079:
000080:                                                                                                  #                        ACTIVE VEHICLE FLAG - DESIGNATES THE VEHICLE WHICH IS
000081:                                                                                                  #                        DOING RENDEZVOUS THRUSTING MANEUVERS TO THE PROGRAM WHICH
000082:                                                                                                  #                        CALCULATES THE MANEUVER PARAMETERS.  SET AT THE START OF
000083:                                                                                                  #                        EACH RENDEZVOUS PRE-THRUSTING PROGRAM.
000084:
000085:                                                                                                  #                        FINAL FLAG - SELECTS FINAL PROGRAM DISPLAYS AFTER CREW HAS
000086:                                                                                                  #                        SELECTED THE FINAL MANEUVER COMPUTATION CYCLE.
000087:
000088:                                                                                                  #                        EXTERNAL DELTA V FLAG - DESIGNATES THE TYPE OF STEERING
000089:                                                                                                  #                        REQUIRED FOR EXECUTION OF THIS MANEUVER BY THE THRUSTING
000090:                                                                                                  #                        PROGRAM SELECTED AFTER COMPLETION OF THIS PROGRAM.
000091:
000092:                                                                                                  #        (7)     ONCE THE PARAMETWRS REQUIRED FOR COMPUTION OF THE MANEUVER
000093:                                                                                                  #                HAVE BEEN COMPLETELY SPECIFIED, THE VALUE OF THE ACTIVE
000094:                                                                                                  #                VEHICLE CENTRAL ANGLE OF TRANSFER IS COMPUTED AND STORED.
000095:                                                                                                  #                THIS NUMBER WILL BE AVAILABLE FOR DISPLAY TO THE ASTRONAUT
000096:                                                                                                  #                THROUGH THE USE OF V06N52.
000097:
000098:                                                                                                  #                THE ASTRONAUT WILL CALL THIS DISPLAY TO VERIFY THAT THE
000099:                                                                                                  #                CENTRAL ANGLE OF TRANSFER OF THE ACTIVE VEHICLE IS NOT WITHIN


000101:                                                                                                  #                170 TO 190 DEGREES.  IF THE ANGLE IS WITHIN THIS ZONE THE
000102:                                                                                                  #                ASTRONAUT SHOULD REASSESS THE INPUT TARGETING PARAMETERS BASED
000103:                                                                                                  #                UPON DELTA V AND EXPECTED MANEUVER TIME.
000104:                                                                                                  #        (8)     THIS PROGRAM IS SELECTED BY THE ASTRONAUT BY DSKY ENTRY -
000105:
000106:                                                                                                  #                        P34 IF THIS VEHICLE IS ACTIVE VEHICLE.
000107:
000108:                                                                                                  #                        P74 IF THIS VEHICLE IS PASSIVE VEHICLE.
000109:
000110:                                                                                                  #  INPUT
000111:                                                                                                  #        (1)     TTPI    TIME OF THE TPI MANEUVER
000112:                                                                                                  #        (2)     ELEV    DESIRED LOS ANGLE AT TPI
000113:                                                                                                  #        (3)     CENTANG ORBITAL CENTRAL ANGLE OF THE PASSIVE VEHICLE DURING
000114:                                                                                                  #                        TRANSFER FROM TPI TO TIME OF INTERCEPT
000115:
000116:                                                                                                  #  OUTPUT
000117:                                                                                                  #        (1)     TRKMKCNT        NUMBER OF MARKS
000118:                                                                                                  #        (2)     TTOGO           TIME TO GO
000119:                                                                                                  #        (3)     +MGA            MIDDLE GIMBAL ANGLE
000120:                                                                                                  #        (4)     TTPI            COMPUTED TIME OF TPI MANEUVER
000121:                                                                                                  #                 OR
000122:                                                                                                  #                ELEV            COMPUTED LOS ANGLE AT TPI
000123:                                                                                                  #        (5)     POSTTPI         PERIGEE ALTITUDE AFTER THE TPI MANEUVER
000124:                                                                                                  #        (6)     DELVTPI         MAGNITUDE OF DELTA V AT TPI
000125:                                                                                                  #        (7)     DELVTPF         MAGNITUDE OF DELTA V AT INTERCEPT
000126:                                                                                                  #        (8)     DVLOS           DELTA VELOCITY AT TPI - LINE OF SIGHT
000127:                                                                                                  #        (9)     DELVLVC         DELTA VELOCITY AT TPI - LOCAL VERTICAL COORDINATES
000128:
000129:                                                                                                  #  DOWNLINK
000130:                                                                                                  #        (1)     TTPI            TIME OF THE TPI MANEUVER
000131:                                                                                                  #        (2)     TIG             TIME OF THE TPI MANEUVER
000132:                                                                                                  #        (3)     ELEV            DESIRED LOS ANGLE AT TPI
000133:                                                                                                  #        (4)     CENTANG         ORBITAL CENTRAL ANGLE OF THE PASSIVE VEHICLE DURING
000134:                                                                                                  #                                TRANSFER FROM TPI TO TIME OF INTERCEPT
000135:                                                                                                  #        (5)     DELVEET3        DELTA VELOCITY AT TPI - REFERENCE COORDINATES
000136:                                                                                                  #        (6)     TPASS4          TIME OF INTERCEPT
000137:
000138:                                                                                                  #  COMMUNICATION TO THRUSTING PROGRAMS
000139:                                                                                                  #        (1)     TIG             TIME OF THE TPI MANEUVER
000140:                                                                                                  #        (2)     RTARG           OFFSET TARGET POSITION
000141:                                                                                                  #        (3)     TPASS4          TIME OF INTERCEPT
000142:                                                                                                  #        (4)     XDELVFLG        RESET TO INDICATE LAMBERT (AIMPOINT) VG COMPUTATION
000143:
000144:                                                                                                  #  SUBROUTINES USED
000145:                                                                                                  #        AVFLAGA


000147:                                                                                                  #        AVFLAGP
000148:                                                                                                  #        VNPOOH
000149:                                                                                                  #        DISPLAYE
000150:                                                                                                  #        SELECTMU
000151:                                                                                                  #        PRECSET
000152:                                                                                                  #        S33/34.1
000153:                                                                                                  #        ALARM
000154:                                                                                                  #        BANKCALL
000155:                                                                                                  #        GOFLASH
000156:                                                                                                  #        GOTOPOOH
000157:                                                                                                  #        TIMETHET
000158:                                                                                                  #        S34/35.2
000159:                                                                                                  #        PERIAPO1
000160:                                                                                                  #        SHIFTR1
000161:                                                                                                  #        S34/35.5
000162:                                                                                                  #        VN1645
000163:
000164: 35,2000                                           SETLOC   CSI/CDH
000165: 35,2000                                           BANK
000166: 35,2000  E4,1770                                  EBANK=   SUBEXIT
000167: 35,2000                                           COUNT    35/P3474
000168:
000169: 35,2000           04627        P34                TC       AVFLAGA
000170: 35,2001           02003                           TC       P34/P74A
000171: 35,2002           04642        P74                TC       AVFLAGP
000172: 35,2003           04647        P34/P74A           TC       P20FLGON                              #  SET UPDATFLG, TRACKFLG
000173: 35,2004           34614                           CAF      V06N37                                #  TTPI
000174: 35,2005           04575                           TC       VNPOOH
000175: 35,2006           06006                           TC       INTPRET
000176: 35,2007           77531                           SSP      EXIT
000177: 35,2010           03766                                    NN
000178: 35,2011           00000                                    0
000179: 35,2012           03070                           TC       DISPLAYE                              #  ELEV AND CENTANG
000180: 35,2013           06006                           TC       INTPRET
000181: 35,2014           71214                           CLEAR    DLOAD
000182: 35,2015           01270                                    ETPIFLAG
000183: 35,2016           03663                                    TTPI
000184: 35,2017           17413                           STODL    TIG
000185: 35,2020           03744                                    ELEV
000186: 35,2021           43054                           BZE      SET
000187: 35,2022           72024                                    P34/P74B
000188: 35,2023           01070                                    ETPIFLAG
000189: 35,2024           77624        P34/P74B           CALL
000190: 35,2025           10712                                    SELECTMU
000191: 35,2026                        DELELO             EQUALS   26D
000192: 35,2026           43145        P34/P74C           DLOAD    SET
000193: 35,2027           15335                                    ZEROVECS
000194: 35,2030           03461                                    ITSWICH
000195: 35,2031           43014                           BON      CLEAR
000196: 35,2032           01310                                    ETPIFLAG


000198: 35,2033           72035                                    SWCHSET
000199: 35,2034           03661                                    ITSWICH
000200: 35,2035           02364        SWCHSET            STORE    NOMTPI
000201: 35,2036           43345        INTLOOP            DLOAD    DAD
000202: 35,2037           03663                                    TTPI
000203: 35,2040           02364                                    NOMTPI
000204: 35,2041           34041                           STCALL   TDEC1
000205: 35,2042           45215                                    PRECSET
000206: 35,2043           77624                           CALL
000207: 35,2044           72216                                    S33/34.1
000208: 35,2045           77454                           BZE      EXIT
000209: 35,2046           72057                                    SWCHCLR
000210: 35,2047           05650                           TC       ALARM
000211: 35,2050           00611                           OCT      611
000212: 35,2051           35050                           CAF      V05N09
000213: 35,2052           04662                           TC       BANKCALL
000214: 35,2053           20720                           CADR     GOFLASH
000215: 35,2054           04106                           TC       GOTOPOOH
000216: 35,2055           02003                           TC       P34/P74A                              #  PROCEED
000217: 35,2056           02047                           TC       -7                                    #  V32
000218:
000219: 35,2057           43014        SWCHCLR            BONCLR   BON
000220: 35,2060           03601                                    ITSWICH
000221: 35,2061           72036                                    INTLOOP
000222: 35,2062           01310                                    ETPIFLAG
000223: 35,2063           72067                                    P34/P74D                              #  DISPLAY TTPI
000224: 35,2064           77776                           EXIT
000225: 35,2065           03070                           TC       DISPLAYE                              #  DISPLAY ELEV AND CENTANG
000226: 35,2066           02072                           TC       P34/P74E
000227: 35,2067           77776        P34/P74D           EXIT
000228: 35,2070           34614                           CAF      V06N37                                #  TTPI
000229: 35,2071           04575                           TC       VNPOOH
000230: 35,2072           06006        P34/P74E           TC       INTPRET
000231: 35,2073           71201                           SETPD    DLOAD
000232: 35,2074           00001                                    0D
000233: 35,2075           03746                                    RTX1
000234: 35,2076           14047                           STODL    X1
000235: 35,2077           03754                                    CENTANG
000236: 35,2100           71406                           PUSH     COS
000237: 35,2101           16734                           STODL    CSTH
000238: 35,2102           77756                           SIN
000239: 35,2103           26732                           STOVL    SNTH
000240: 35,2104           03554                                    RPASS3
000241: 35,2105           77657                           VSR*
000242: 35,2106           57176                                    0,2
000243: 35,2107           26657                           STOVL    RVEC
000244: 35,2110           03562                                    VPASS3
000245: 35,2111           43057                           VSR*     SET
000246: 35,2112           57176                                    0,2
000247: 35,2113           03466                                    RVSW


000249: 35,2114           36746                           STCALL   VVEC
000250: 35,2115           24744                                    TIMETHET
000251: 35,2116           77745                           DLOAD
000252: 35,2117           03663                                    TTPI
000253: 35,2120           03503                           STORE    INTIME                                #  FOR INITVEL
000254: 35,2121           77615                           DAD
000255: 35,2122           00037                                    T                                     #  RENDEZVOUS TIME
000256: 35,2123           37656                           STCALL   TPASS4                                #  FOR INITVEL
000257: 35,2124           72526                                    S34/35.2
000258: 35,2125           51575                           VLOAD    ABVAL
000259: 35,2126           03646                                    DELVEET3
000260: 35,2127           26635                           STOVL    DELVTPI
000261: 35,2130           03640                                    VPASS4
000262: 35,2131           51451                           VSU      ABVAL
000263: 35,2132           03620                                    VTPRIME
000264: 35,2133           26637                           STOVL    DELVTPF
000265: 35,2134           03540                                    RACT3
000266: 35,2135           45115                           PDVL     CALL
000267: 35,2136           03612                                    VIPRIME
000268: 35,2137           45153                                    PERIAPO1
000269: 35,2140           77624                           CALL
000270: 35,2141           45263                                    SHIFTR1
000271: 35,2142           16641                           STODL    POSTTPI
000272: 35,2143           03663                                    TTPI
000273: 35,2144           03413                           STORE    TIG
000274: 35,2145           77776                           EXIT
000275: 35,2146           34616                           CAF      V06N58
000276: 35,2147           04575                           TC       VNPOOH
000277: 35,2150           06006                           TC       INTPRET
000278: 35,2151           77624                           CALL
000279: 35,2152           72741                                    S34/35.5
000280: 35,2153           77624                           CALL
000281: 35,2154           73002                                    VN1645
000282: 35,2155           77650                           GOTO
000283: 35,2156           72026                                    P34/P74C
000284:


000286:                                                                                                  #  RENDEZVOUS MID-COURSE MANEUVER PROGRAMS (P35 AND P75)
000287:                                                                                                  #  MOD NO -1                     LOG SECTION - P32-P35, P72-P75
000288:                                                                                                  #  MOD BY WHITE.P                DATE  1JUNE67
000289:
000290:                                                                                                  #  PURPOSE
000291:                                                                                                  #        (1)     TO CALCULATE THE REQUIRED DELTA V AND OTHER INITIAL CONDITIONS
000292:                                                                                                  #                REQUIRED BY THE ACTIVE VEHICLE FOR EXECUTION OF THE NEXT
000293:                                                                                                  #                MIDCOURSE CORRECTION OF THE TRANSFER PHASE OF AN ACTIVE
000294:                                                                                                  #                VEHICLE RENDEZVOUS.
000295:                                                                                                  #        (2)     TO DISPLAY TO THE ASTRONAUT AND THE GROUND CERTAIN DEPENDENT
000296:                                                                                                  #                VARIABLES ASSOCIATED WITH THE MANEUVER FOR APPROVAL BY THE
000297:                                                                                                  #                ASTRONAUT/GROUND.
000298:                                                                                                  #        (3)     TO STORE THE TPM TARGET PARAMETERS FOR USE BY THE DESIRED
000299:                                                                                                  #                THRUSTING PROGRAM.
000300:
000301:                                                                                                  #  ASSUMPTIONS
000302:                                                                                                  #        (1)     THE ISS NEED NOT BE ON TO COMPLETE THIS PROGRAM.
000303:                                                                                                  #        (2)     STATE VECTOR UPDATES BY P27 ARE DISALLOWED DURING AUTOMATIC
000304:                                                                                                  #                STATE VECTOR UPDATING INITIATED BY P20 (SEE ASSUMPTION (3)).
000305:                                                                                                  #        (3)     THE RENDEZVOUS RADAR IS ON AND IS LOCKED ON THE CSM.  THIS WAS
000306:                                                                                                  #                DONE DURING PREVIOUS SELECTION OF P20.  RADAR SIGHTING MARKS
000307:                                                                                                  #                WILL BE MADE AUTOMATICALLY APPROXIMATELY ONCE A MINUTE WHEN
000308:                                                                                                  #                ENABLED BY THE TRACK AND UPDATE FLAGS (SEE P20).  THE
000309:                                                                                                  #                RENDEZVOUS TRACKING MARK COUNTER IS ZEROED BY THE SELECTION OF
000310:                                                                                                  #                P20 AND AFTER EACH THRUSTING MANEUVER.
000311:                                                                                                  #        (4)     THE OPERATION OF THE PROGRAM UTILIZES THE FOLLOWING FLAGS -
000312:
000313:                                                                                                  #                        ACTIVE VEHICLE FLAG - DESIGNATES THE VEHICLE WHICH IS
000314:                                                                                                  #                        DOING RENDEZVOUS THRUSTING MANEUVERS TO THE PROGRAM WHICH
000315:                                                                                                  #                        CALCULATES THE MANEUVER PARAMETERS.  SET AT THE START OF
000316:                                                                                                  #                        EACH RENDEZVOUS PRE-THRUSTING PROGRAM.
000317:
000318:                                                                                                  #                        FINAL FLAG - SELECTS FINAL PROGRAM DISPLAYS AFTER CREW HAS
000319:                                                                                                  #                        SELECTED THE FINAL MANEUVER COMPUTATION CYCLE.
000320:
000321:                                                                                                  #                        EXTERNAL DELTA V FLAG - DESIGNATES THE TYPE OF STEERING
000322:                                                                                                  #                        REQUIRED FOR EXECUTION OF THIS MANEUVER BY THE THRUSTING
000323:                                                                                                  #                        PROGRAM SELECTED AFTER COMPLETION OF THIS PROGRAM.
000324:
000325:                                                                                                  #        (5)     THE TIME OF INTERCEPT (T(INT)) WAS DEFINED BY PREVIOUS
000326:                                                                                                  #                COMPLETION OF THE TRANSFER PHASE INITIATION (TPI) PROGRAM
000327:                                                                                                  #                (P34/P74) AND IS PRESENTLY AVAILABLE IN STORAGE.


000329:                                                                                                  #        (6)     ONCE THE PARAMETERS REQUIRED FOR COMPUTION OF THE MANEUVER
000330:                                                                                                  #                HAVE BEEN COMPLETELY SPECIFIED, THE VALUE OF THE ACTIVE
000331:                                                                                                  #                VEHICLE CENTRAL ANGLE OF TRANSFER IS COMPUTED AND STORED.
000332:                                                                                                  #                THIS NUMBER WILL BE AVAILABLE FOR DISPLAY TO THE ASTRONAUT
000333:                                                                                                  #                THROUGH THE USE OF V06N52.
000334:
000335:                                                                                                  #                THE ASTRONAUT WILL CALL THIS DISPLAY TO VERIFY THAT THE
000336:                                                                                                  #                CENTRAL ANGLE OF TRANSFER OF THE ACTIVE VEHICLE IS NOT WITHIN
000337:                                                                                                  #                170 TO 190 DEGREES.  IF THE ANGLE IS WITHIN THIS ZONE THE
000338:                                                                                                  #                ASTRONAUT SHOULD REASSESS THE INPUT TARGETING PARAMETERS BASED
000339:                                                                                                  #                UPON DELTA V AND EXPECTED MANEUVER TIME.
000340:                                                                                                  #        (7)     THIS PROGRAM IS SELECTED BY THE ASTRONAUT BY DSKY ENTRY -
000341:
000342:                                                                                                  #                        P35 IF THIS VEHICLE IS ACTIVE VEHICLE.
000343:
000344:                                                                                                  #                        P75 IF THIS VEHICLE IS PASSIVE VEHICLE.
000345:
000346:                                                                                                  #  INPUT
000347:                                                                                                  #        (1)     TPASS4          TIME OF INTERCEPT - SAVED FROM P34/P74
000348:
000349:                                                                                                  #  OUTPUT
000350:                                                                                                  #        (1)     TRKMKCNT        NUMBER OF MARKS
000351:                                                                                                  #        (2)     TTOGO           TIME TO GO
000352:                                                                                                  #        (3)     +MGA            MIDDLE GIMBAL ANGLE
000353:                                                                                                  #        (4)     DVLOS           DELTA VELOCITY AT MID - LINE OF SIGHT
000354:                                                                                                  #        (5)     DELVLVC         DELTA VELOCITY AT MID - LOCAL VERTICAL COORDINATES
000355:
000356:                                                                                                  #  DOWNLINK
000357:                                                                                                  #        (1)     TIG             TIME OF THE TPM MANEUVER
000358:                                                                                                  #        (2)     DELVEET3        DELTA VELOCITY AT TPM - REFERENCE COORDINATES
000359:                                                                                                  #        (3)     TPASS4          TIME OF INTERCEPT
000360:
000361:                                                                                                  #  COMMUNICATION TO THRUSTING PROGRAMS
000362:                                                                                                  #        (1)     TIG             TIME OF THE TPM MANEUVER
000363:                                                                                                  #        (2)     RTARG           OFFSET TARGET POSITION
000364:                                                                                                  #        (3)     TPASS4          TIME OF INTERCEPT
000365:                                                                                                  #        (4)     XDELVFLG        RESET TO INDICATE LAMBERT (AIMPOINT) VG COMPUTATION
000366:
000367:                                                                                                  #  SUBROUTINES USED
000368:                                                                                                  #        AVFLAGA
000369:                                                                                                  #        AVFLAGP
000370:                                                                                                  #        LOADTIME
000371:                                                                                                  #        SELECTMU
000372:                                                                                                  #        PRECSET
000373:                                                                                                  #        S34/35.1
000374:                                                                                                  #        S34/35.2


000376:                                                                                                  #        S34/35.5
000377:                                                                                                  #        VN1645
000378:
000379: 35,2157                                           COUNT    35/P3575
000380: 35,2157  E4,1763                                  EBANK=   KT
000381:
000382: 35,2157           04627        P35                TC       AVFLAGA
000383: 35,2160           00006                           EXTEND
000384: 35,2161           31422                           DCA      ATIGINC
000385: 35,2162           02166                           TC       P35/P75A
000386: 35,2163           04642        P75                TC       AVFLAGP
000387: 35,2164           00006                           EXTEND
000388: 35,2165           31424                           DCA      PTIGINC
000389: 35,2166           53764        P35/P75A           DXCH     KT
000390: 35,2167           04647                           TC       P20FLGON                              #  SET UPDATFLG, TRACKFLG
000391: 35,2170           06006                           TC       INTPRET
000392: 35,2171           77624                           CALL
000393: 35,2172           10712                                    SELECTMU
000394: 35,2173           77634        P35/P75B           RTB
000395: 35,2174           45510                                    LOADTIME
000396: 35,2175           03665                           STORE    TSTRT
000397: 35,2176           77615                           DAD
000398: 35,2177           02364                                    KT
000399: 35,2200           03413                           STORE    TIG
000400: 35,2201           03503                           STORE    INTIME                                #  FOR INITVEL
000401: 35,2202           34041                           STCALL   TDEC1
000402: 35,2203           45215                                    PRECSET                               #  ADVANCE BOTH VEHICLES
000403: 35,2204           77624                           CALL
000404: 35,2205           74000                                    S34/35.1                              #  GET NORM AND LOS FOR TRANSFORM
000405: 35,2206           77624                           CALL
000406: 35,2207           72526                                    S34/35.2                              #  GET DELTA V(LV)
000407: 35,2210           77624                           CALL
000408: 35,2211           72741                                    S34/35.5
000409: 35,2212           77624                           CALL
000410: 35,2213           73002                                    VN1645
000411: 35,2214           77650                           GOTO
000412: 35,2215           72173                                    P35/P75B


000414:                                                                                                  #  ..... S33/34.1 .....
000415:
000416: 35,2216           66220        S33/34.1           STQ      SSP
000417: 35,2217           01340                                    NORMEX
000418: 35,2220           03665                                    TITER
000419: 35,2221           40000                           OCT      40000
000420: 35,2222           40345                           DLOAD    SETPD
000421: 35,2223           33111                                    MAX250
000422: 35,2224           00001                                    0D
000423: 35,2225           27454                           STOVL    SECMAX
000424: 35,2226           03540                                    RACT3
000425: 35,2227           27576                           STOVL    RAPREC
000426: 35,2230           03546                                    VACT3
000427: 35,2231           27570                           STOVL    VAPREC
000428: 35,2232           03554                                    RPASS3
000429: 35,2233           27620                           STOVL    RPPREC
000430: 35,2234           03562                                    VPASS3
000431: 35,2235           03612                           STORE    VPPREC
000432: 35,2236           77624        ELCALC             CALL
000433: 35,2237           74000                                    S34/35.1                              #  NORMAL AND LOS
000434: 35,2240           63235                           VXV      PDVL
000435: 35,2241           03540                                    RACT3                                 #  (RA*VA)*RA 0D
000436: 35,2242           53515                           PDVL     UNIT                                  #  ULOS AT 6D
000437: 35,2243           03540                                    RACT3
000438: 35,2244           46315                           PDVL     VPROJ                                 #  XCHNJ AND UP
000439: 35,2245           51352                           VSL2     BVSU
000440: 35,2246           02625                                    ULOS
000441: 35,2247           63256                           UNIT     PDVL                                  #  UP AT 0D
000442: 35,2250           63241                           DOT      PDVL                                  #  UP.UN*RA AT 0D
000443: 35,2251           00001                                    0D                                    #  UP IN MPAC
000444: 35,2252           75241                           DOT      SIGN
000445: 35,2253           02625                                    ULOS
000446: 35,2254           65552                           SL1      ACOS
000447: 35,2255           50315                           PDVL     DOT                                   #  EA AT 0D
000448: 35,2256           02625                                    ULOS
000449: 35,2257           03540                                    RACT3
000450: 35,2260           71244                           BPL      DLOAD
000451: 35,2261           72264                                    TESTY
000452: 35,2262           15343                                    DPPOSMAX
000453: 35,2263           41425                           DSU      PUSH
000454: 35,2264           71214        TESTY              BOFF     DLOAD
000455: 35,2265           03741                                    ITSWICH
000456: 35,2266           72513                                    ELEX
000457: 35,2267           03452                                    DELEL
000458: 35,2270           14033                           STODL    DELELO
000459: 35,2271           77625                           DSU
000460: 35,2272           03744                                    ELEV
000461: 35,2273           03452                           STORE    DELEL
000462: 35,2274           45246                           ABS      DSU
000463: 35,2275           33115                                    ELEPS


000465: 35,2276           77640                           BMN
000466: 35,2277           72523                                    TIMEX                                 #  COMMERCIALS EVERYWHERE
000467: 35,2300           70535        FIGTIME            SLOAD    SR1
000468: 35,2301           03665                                    TITER
000469: 35,2302           72030                           BHIZ     LXA,1
000470: 35,2303           01340                                    NORMEX                                #  TOO MANY ITERATIONS
000471: 35,2304           00154                                    MPAC
000472: 35,2305           77330                           SXA,1    VLOAD
000473: 35,2306           03664                                    TITER
000474: 35,2307           03554                                    RPASS3
000475: 35,2310           65256                           UNIT     PDDL
000476: 35,2311           00045                                    36D
000477: 35,2312           53515                           PDVL     UNIT
000478: 35,2313           03540                                    RACT3
000479: 35,2314           77725                           PDDL
000480: 35,2315           41525                           PDDL     PUSH
000481: 35,2316           00045                                    36D
000482: 35,2317           77621                           BDSU
000483: 35,2320           00015                                    12D
000484: 35,2321           14037                           STODL    30D                                   #  RP-RA MAGNITUDES
000485: 35,2322           15333                                    DPHALF
000486: 35,2323           41425                           DSU      PUSH
000487: 35,2324           03744                                    ELEV
000488: 35,2325           50165                           SIGN     BMN
000489: 35,2326           00037                                    30D
000490: 35,2327           01340                                    NORMEX
000491: 35,2330           71545                           DLOAD    COS
000492: 35,2331           56205                           DMP      DDV
000493: 35,2332           00017                                    14D
000494: 35,2333           00015                                    12D
000495: 35,2334           77676                           DCOMP                                          #  SINCE COS(180-A)=-COS A
000496: 35,2335           00035                           STORE    28D
000497: 35,2336           44246                           ABS      BDSU
000498: 35,2337           15333                                    DPHALF
000499: 35,2340           77240                           BMN      VLOAD
000500: 35,2341           01340                                    NORMEX
000501: 35,2342           02617                                    UNRM
000502: 35,2343           53435                           VXV      UNIT
000503: 35,2344           00007                                    6D                                    #  UN*RA
000504: 35,2345           41241                           DOT      DMP
000505: 35,2346           03546                                    VACT3
000506: 35,2347           00015                                    12D
000507: 35,2350           47315                           PDVL     VXV
000508: 35,2351           00001                                    0D
000509: 35,2352           03562                                    VPASS3
000510: 35,2353           53435                           VXV      UNIT
000511: 35,2354           00001                                    0D                                    #  (RP*VP)*RP
000512: 35,2355           41241                           DOT      DMP
000513: 35,2356           03562                                    VPASS3
000514: 35,2357           00017                                    14D


000516: 35,2360           77621                           BDSU
000517: 35,2361           63301                           NORM     PDVL                                  #  NORMALIZED WA-WP 12D
000518: 35,2362           00047                                    X1
000519: 35,2363           00007                                    6D
000520: 35,2364           50235                           VXV      DOT
000521: 35,2365           00001                                    0D
000522: 35,2366           02617                                    UNRM                                  #  RA*RP.UN 14D
000523: 35,2367           50315                           PDVL     DOT
000524: 35,2370           00001                                    0D
000525: 35,2371           00007                                    6D
000526: 35,2372           65552                           SL1      ACOS
000527: 35,2373           77765                           SIGN
000528: 35,2374           43225                           DSU      DAD                                   #  ALPHA PI
000529: 35,2375           15333                                    DPHALF
000530: 35,2376           03744                                    ELEV
000531: 35,2377           65525                           PDDL     ACOS
000532: 35,2400           00035                                    28D
000533: 35,2401           75221                           BDSU     SIGN
000534: 35,2402           15333                                    DPHALF
000535: 35,2403           00037                                    30D                                   #  CONTAINS RP-RA
000536: 35,2404           77615                           DAD
000537: 35,2405           56205                           DMP      DDV
000538: 35,2406           33107                                    TWOPI
000539: 35,2407           77605                           DMP
000540: 35,2410           41257                           SL*      DMP
000541: 35,2411           20176                                    0          -3,1
000542: 35,2412           51406                           PUSH     ABS
000543: 35,2413           50025                           DSU      BMN
000544: 35,2414           03454                                    SECMAX
000545: 35,2415           72421                                    OKMAX
000546: 35,2416           75345                           DLOAD    SIGN                                  #  REPLACE TIME WITH MAX TIME SIGNED
000547: 35,2417           03454                                    SECMAX
000548: 35,2420           77606                           PUSH
000549: 35,2421           51135        OKMAX              SLOAD    BPL                                   #  TEST FIRST ITERATION
000550: 35,2422           03665                                    TITER
000551: 35,2423           72431                                    REPETE
000552: 35,2424           71331                           SSP      DLOAD
000553: 35,2425           03665                                    TITER
000554: 35,2426           37777                           OCT      37777
000555: 35,2427           77650                           GOTO
000556: 35,2430           72467                                    STORDELT
000557: 35,2431           41345        REPETE             DLOAD    DMP
000558: 35,2432           03452                                    DELEL
000559: 35,2433           00033                                    DELELO
000560: 35,2434           71244                           BPL      DLOAD
000561: 35,2435           72445                                    NEXTES
000562: 35,2436           03454                                    SECMAX
000563: 35,2437           77605                           DMP
000564: 35,2440           33113                                    THIRD
000565: 35,2441           17454                           STODL    SECMAX


000567: 35,2442           70446                           ABS      SR1                                   #  CROSSED OVER SOLUTION
000568: 35,2443           52076                           DCOMP    GOTO                                  #  DT=(-SIGN(DTO)//DT//)/2
000569: 35,2444           72455                                    RESIGN
000570: 35,2445           51545        NEXTES             DLOAD    ABS
000571: 35,2446           03452                                    DELEL
000572: 35,2447           51525                           PDDL     ABS
000573: 35,2450           00033                                    DELELO
000574: 35,2451           77625                           DSU
000575: 35,2452           71240                           BMN      DLOAD
000576: 35,2453           72460                                    REVERS                                #  WRONG DIRECTION
000577: 35,2454           77646                           ABS
000578: 35,2455           52165        RESIGN             SIGN     GOTO
000579: 35,2456           03450                                    DELTEEO
000580: 35,2457           72467                                    STORDELT
000581: 35,2460           57545        REVERS             DLOAD    DCOMP
000582: 35,2461           03450                                    DELTEEO
000583: 35,2462           70406                           PUSH     SR1
000584: 35,2463           03450                           STORE    DELTEEO
000585: 35,2464           77615                           DAD
000586: 35,2465           77650                           GOTO
000587: 35,2466           72470                                    ADTIME
000588: 35,2467           03450        STORDELT           STORE    DELTEEO
000589: 35,2470           77615        ADTIME             DAD
000590: 35,2471           02364                                    NOMTPI                                #  SUM OF DELTA T:S
000591: 35,2472           02364                           STORE    NOMTPI
000592: 35,2473           63375                           VLOAD    PDVL
000593: 35,2474           03570                                    VAPREC
000594: 35,2475           03576                                    RAPREC
000595: 35,2476           77624                           CALL
000596: 35,2477           72701                                    GOINT
000597: 35,2500           77624                           CALL
000598: 35,2501           45237                                    ACTIVE                                #  STORE NEW RACT3 VACT3
000599: 35,2502           63375                           VLOAD    PDVL
000600: 35,2503           03612                                    VPPREC
000601: 35,2504           03620                                    RPPREC
000602: 35,2505           77624                           CALL
000603: 35,2506           72701                                    GOINT
000604: 35,2507           77624                           CALL
000605: 35,2510           45247                                    PASSIVE                               #  STORE NEW RPASS3 VPASS3
000606: 35,2511           77650                           GOTO
000607: 35,2512           72236                                    ELCALC
000608: 35,2513           43345        ELEX               DLOAD    DAD
000609: 35,2514           03663                                    TTPI
000610: 35,2515           02364                                    NOMTPI
000611: 35,2516           17663                           STODL    TTPI
000612: 35,2517           77614                           BON
000613: 35,2520           01310                                    ETPIFLAG
000614: 35,2521           72523                                    TIMEX
000615: 35,2522           03744                           STORE    ELEV
000616: 35,2523           52145        TIMEX              DLOAD    GOTO


000618: 35,2524           15335                                    ZEROVECS
000619: 35,2525           01340                                    NORMEX
000620:


000622:                                                                                                  #  ..... S34/35.1 .....
000623:
000624:                                                                                                  #  COMPUTE UNIT NORMAL AND LINE OF SIGHT VECTORS GIVEN THE ACTIVE AND
000625:                                                                                                  #  PASSIVE POS AND VEL AT TIME T3
000626: 36,2000                                           SETLOC   S3435LOC
000627: 36,2000                                           BANK
000628:
000629: 36,2000           52375        S34/35.1           VLOAD    VSU
000630: 36,2001           03554                                    RPASS3
000631: 36,2002           03540                                    RACT3
000632: 36,2003           41456                           UNIT     PUSH
000633: 36,2004           26625                           STOVL    ULOS
000634: 36,2005           03540                                    RACT3
000635: 36,2006           53435                           VXV      UNIT
000636: 36,2007           03546                                    VACT3
000637: 36,2010           02617                           STORE    UNRM
000638: 36,2011           77616                           RVQ
000639:


000641:                                                                                                  #  ..... S34/35.2 .....
000642:
000643:                                                                                                  #  ADVANCE PASSIVE VEH TO RENDEZVOUS TIME AND GET REQ VEL FROM LAMBERT
000644: 35,2000                                           SETLOC   CSI/CDH
000645: 35,2000                                           BANK
000646:
000647: 35,2526           77220        S34/35.2           STQ      VLOAD
000648: 35,2527           02370                                    SUBEXIT
000649: 35,2530           03562                                    VPASS3
000650: 35,2531           65315                           PDVL     PDDL
000651: 35,2532           03554                                    RPASS3
000652: 35,2533           03503                                    INTIME
000653: 35,2534           65325                           PDDL     PDDL
000654: 35,2535           03656                                    TPASS4
000655: 35,2536           33107                                    TWOPI                                 #  CONIC
000656: 35,2537           46125                           PDDL     BHIZ
000657: 35,2540           03766                                    NN
000658: 35,2541           72544                                    S3435.23
000659: 35,2542           65345                           DLOAD    PDDL
000660: 35,2543           15335                                    ZEROVECS                              #  PRECISION
000661: 35,2544           77624        S3435.23           CALL
000662: 35,2545           72705                                    INTINT                                #  GET TARGET VECTOR
000663: 35,2546           27415        S3435.25           STOVL    RTARG
000664: 35,2547           00007                                    VATT
000665: 35,2550           27640                           STOVL    VPASS4
000666: 35,2551           03415                                    RTARG
000667:                                                                                                  #  COMPUTE PHI = PI + (ACOS(UNIT RA.UNIT RP) - PI) SIGN(RA*RP.U)
000668: 35,2552           63256                           UNIT     PDVL                                  #  UNIT RP
000669: 35,2553           03540                                    RACT3
000670: 35,2554           41456                           UNIT     PUSH                                  #  UNIT RA
000671: 35,2555           50235                           VXV      DOT
000672: 35,2556           00001                                    0D
000673: 35,2557           02617                                    UNRM                                  #  RA*RP.U
000674: 35,2560           77715                           PDVL
000675: 35,2561           72441                           DOT      SL1                                   #  UNIT RA.UNIT RP
000676: 35,2562           00001                                    0D
000677: 35,2563           75326                           ACOS     SIGN
000678: 35,2564           43244                           BPL      DAD
000679: 35,2565           72567                                    NOPIE
000680: 35,2566           15343                                    DPPOSMAX                              #  REASONABLE TWO PI
000681: 35,2567           16633        NOPIE              STODL    ACTCENT
000682: 35,2570           03656                                    TPASS4
000683: 35,2571           77625                           DSU
000684: 35,2572           03503                                    INTIME
000685: 35,2573           03423                           STORE    DELLT4
000686: 35,2574           40335                           SLOAD    SETPD
000687: 35,2575           03766                                    NN                                    #  NUMBER OF OFFSETS
000688: 35,2576           00001                                    0D
000689: 35,2577           63325                           PDDL     PDVL
000690: 35,2600           33122                                    EPSFOUR


000692: 35,2601           03540                                    RACT3
000693: 35,2602           27570                           STOVL    RINIT
000694: 35,2603           03546                                    VACT3
000695: 35,2604           37576                           STCALL   VINIT
000696: 35,2605           22000                                    INITVEL
000697: 35,2606           77624                           CALL
000698: 35,2607           72666                                    LOMAT
000699: 35,2610           64375                           VLOAD    MXV
000700: 35,2611           03646                                    DELVEET3
000701: 35,2612           00001                                    0D
000702: 35,2613           77772                           VSL1
000703: 35,2614           37405                           STCALL   DELVLVC
000704: 35,2615           02370                                    SUBEXIT
000705:


000707:                                                                                                  #  ..... S34/35.3 .....
000708:
000709: 35,2616           45020        S34/35.3           STQ      CALL
000710: 35,2617           01340                                    NORMEX
000711: 35,2620           72666                                    LOMAT                                 #  GET MATRIX IN PUSH LIST
000712: 35,2621           61375                           VLOAD    VXM
000713: 35,2622           03405                                    DELVLVC                               #  NEW DEL V TPI
000714: 35,2623           00001                                    0D
000715: 35,2624           77772                           VSL1
000716: 35,2625           03646                           STORE    DELVEET3                              #  SAVE FOR TRANSFORM
000717: 35,2626           63255                           VAD      PDVL
000718: 35,2627           03546                                    VACT3                                 #  NEW V REQ
000719: 35,2630           03540                                    RACT3
000720: 35,2631           65325                           PDDL     PDDL
000721: 35,2632           03413                                    TIG
000722: 35,2633           03656                                    TPASS4
000723: 35,2634           41525                           PDDL     PUSH
000724: 35,2635           15343                                    DPPOSMAX
000725: 35,2636           77624                           CALL                                           #  INTEG. FOR NEW TARGET VEC
000726: 35,2637           72705                                    INTINT
000727: 35,2640           77775                           VLOAD
000728: 35,2641           00001                                    RATT
000729: 35,2642           03415                           STORE    RTARG
000730: 35,2643           41575        NOVRWRT            VLOAD    PUSH
000731: 35,2644           02625                                    ULOS
000732: 35,2645           57435                           VXV      VCOMP
000733: 35,2646           02617                                    UNRM
000734: 35,2647           41456                           UNIT     PUSH
000735: 35,2650           76435                           VXV      VSL1
000736: 35,2651           02625                                    ULOS
000737: 35,2652           77715                           PDVL
000738: 35,2653           64315                           PDVL     MXV
000739: 35,2654           03646                                    DELVEET3
000740: 35,2655           00001                                    0D
000741: 35,2656           77772                           VSL1
000742: 35,2657           36611                           STCALL   DVLOS
000743: 35,2660           01340                                    NORMEX
000744:


000746:                                                                                                  #  ..... S34/35.4 .....
000747:
000748: 35,2661           40220        S34/35.4           STQ      SETPD                                 #  NO ASTRONAUT OVERWRITE
000749: 35,2662           01340                                    NORMEX
000750: 35,2663           00001                                    0D
000751: 35,2664           77650                           GOTO
000752: 35,2665           72643                                    NOVRWRT
000753:


000755:                                                                                                  #  ..... LOMAT .....
000756:
000757: 35,2666           57575        LOMAT              VLOAD    VCOMP
000758: 35,2667           02617                                    UNRM
000759: 35,2670           24007                           STOVL    6D                                    #  Y
000760: 35,2671           03540                                    RACT3
000761: 35,2672           57456                           UNIT     VCOMP
000762: 35,2673           00015                           STORE    12D
000763: 35,2674           76435                           VXV      VSL1
000764: 35,2675           02617                                    UNRM                                  #  Z*-Y
000765: 35,2676           00001                           STORE    0D
000766: 35,2677           43401                           SETPD    RVQ
000767: 35,2700           00023                                    18D
000768: 35,2701           65325        GOINT              PDDL     PDDL                                  #  DO
000769: 35,2702           15335                                    ZEROVECS                              #        NOT
000770: 35,2703           02364                                    NOMTPI
000771: 35,2704           41406                           PUSH     PUSH                                  #                ORDER OR INSERT BEFORE INTINT
000772: 35,2705           45020        INTINT             STQ      CALL
000773: 35,2706           02367                                    RTRN
000774: 35,2707           27442                                    INTSTALL
000775: 35,2710           71214                           CLEAR    DLOAD
000776: 35,2711           01673                                    INTYPFLG
000777: 35,2712           43054                           BZE      SET
000778: 35,2713           72715                                    +2
000779: 35,2714           01473                                    INTYPFLG
000780: 35,2715           45545                           DLOAD    STADR
000781: 35,2716           63736                           STODL    TDEC1
000782: 35,2717           73014                           SET      LXA,2
000783: 35,2720           00063                                    MOONFLAG
000784: 35,2721           03746                                    RTX2
000785: 35,2722           43014                           BON      CLEAR
000786: 35,2723           04303                                    CMOONFLG
000787: 35,2724           72726                                    ALLSET
000788: 35,2725           00263                                    MOONFLAG
000789: 35,2726           25517        ALLSET             STOVL    TET
000790: 35,2727           77657                           VSR*
000791: 35,2730           57176                                    0,2
000792: 35,2731           25535                           STOVL    RCV
000793: 35,2732           77657                           VSR*
000794: 35,2733           57176                                    0,2
000795: 35,2734           35543                           STCALL   VCV
000796: 35,2735           27135                                    INTEGRVS
000797: 35,2736           52175                           VLOAD    GOTO
000798: 35,2737           00001                                    RATT
000799: 35,2740           02367                                    RTRN
000800:


000802:                                                                                                  #  ..... S34/35.5 .....
000803:
000804:                                                                                                  #  SUBROUTINES USED
000805:                                                                                                  #        BANKCALL
000806:                                                                                                  #        GOFLASH
000807:                                                                                                  #        GOTOPOOH
000808:                                                                                                  #        S34/35.3
000809:                                                                                                  #        S34/35.4
000810:                                                                                                  #        VNPOOH
000811:
000812: 35,2741           43020        S34/35.5           STQ      BON
000813: 35,2742           02370                                    SUBEXIT
000814: 35,2743           01311                                    FINALFLG
000815: 35,2744           72750                                    FLAGON
000816: 35,2745           52014                           SET      GOTO
000817: 35,2746           00470                                    UPDATFLG
000818: 35,2747           72772                                    FLAGOFF
000819: 35,2750           77775        FLAGON             VLOAD
000820: 35,2751           03405                                    DELVLVC
000821: 35,2752           02611                           STORE    DVLOS                                 #  SAVE DELTA V BEFORE DISPLAY
000822: 35,2753           77776                           EXIT
000823: 35,2754           34620                           CAF      V06N81
000824: 35,2755           04575                           TC       VNPOOH
000825: 35,2756           06006                           TC       INTPRET
000826: 35,2757           52375                           VLOAD    VSU                                   #  TEST FOR OVERWRITE OF COMPUTED
000827: 35,2760           03405                                    DELVLVC                               #                       DELTA V
000828: 35,2761           02611                                    DVLOS
000829: 35,2762           53046                           ABVAL    BZE
000830: 35,2763           72766                                    NOCHG                                 #  NO OVERWRITE
000831: 35,2764           77624                           CALL
000832: 35,2765           72616                                    S34/35.3                              #  COMPUTE NEW TARGET VECTOR
000833: 35,2766           77214        NOCHG              CLEAR    VLOAD
000834: 35,2767           01267                                    XDELVFLG
000835: 35,2770           03646                                    DELVEET3
000836: 35,2771           03646                           STORE    DELVSIN
000837: 35,2772           77624        FLAGOFF            CALL
000838: 35,2773           72661                                    S34/35.4
000839: 35,2774           77776                           EXIT
000840: 35,2775           34617                           CAF      V06N59
000841: 35,2776           04575                           TC       VNPOOH
000842: 35,2777           06006                           TC       INTPRET
000843: 35,3000           77650                           GOTO
000844: 35,3001           02370                                    SUBEXIT
000845:


000847:                                                                                                  #  ..... VN1645 .....
000848:
000849:                                                                                                  #  SUBROUTINES USED
000850:                                                                                                  #        P3XORP7X
000851:                                                                                                  #        GET+MGA
000852:                                                                                                  #        BANKCALL
000853:                                                                                                  #        DELAYJOB
000854:                                                                                                  #        COMPTGO
000855:                                                                                                  #        GOFLASHR
000856:                                                                                                  #        GOTOPOOH
000857:                                                                                                  #        FLAGUP
000858:
000859: 35,3002           71220        VN1645             STQ      DLOAD
000860: 35,3003           02370                                    SUBEXIT
000861: 35,3004           33120                                    DP-.01
000862: 35,3005           03626                           STORE    +MGA                                  #  MGA = -.01
000863: 35,3006           71214                           BOFF     DLOAD
000864: 35,3007           01351                                    FINALFLG
000865: 35,3010           73030                                    GET45
000866: 35,3011           33120                                    DP-.01
000867: 35,3012           77615                           DAD
000868: 35,3013           33120                                    DP-.01
000869: 35,3014           03626                           STORE    +MGA                                  #  MGA = -.02
000870: 35,3015           77414                           BOFF     EXIT
000871: 35,3016           01742                                    REFSMFLG
000872: 35,3017           73030                                    GET45
000873: 35,3020           03100                           TC       P3XORP7X
000874: 35,3021           03023                           TC       +2                                    #  P3X
000875: 35,3022           03031                           TC       GET45      +1                         #  P7X
000876: 35,3023           06006                           TC       INTPRET
000877: 35,3024           41575                           VLOAD    PUSH
000878: 35,3025           03646                                    DELVSIN
000879: 35,3026           77624                           CALL                                           #  COMPUTE MGA
000880: 35,3027           10654                                    GET+MGA
000881: 35,3030           77776        GET45              EXIT
000882: 35,3031           03304                           TC       COMPTGO                               #  INITIATE TASK TO UPDATE TTOGO
000883: 35,3032           31770                           CA       SUBEXIT
000884: 35,3033           55766                           TS       QSAVED
000885: 35,3034           35041                           CAF      1SEC
000886: 35,3035           04662                           TC       BANKCALL
000887: 35,3036           01732                           CADR     DELAYJOB
000888: 35,3037           34621                           CAF      V16N45                                #  TRKMKCNT, TTOGO, +MGA
000889: 35,3040           04662                           TC       BANKCALL
000890: 35,3041           20720                           CADR     GOFLASH
000891: 35,3042           03045                           TC       KILCLOCK                              #  TERMINATE
000892: 35,3043           03050                           TC       N45PROC                               #  PROCEED
000893: 35,3044           03060                           TC       CLUPDATE                              #  RECYCLE - RETURN FOR INITIAL COMPUTATION
000894: 35,3045           30005        KILCLOCK           CA       Z
000895: 35,3046           54000                           TS       DISPDEX


000897: 35,3047           04106                           TC       GOTOPOOH
000898: 35,3050           40076        N45PROC            CS       FLAGWRD2
000899: 35,3051           75012                           MASK     BIT6
000900: 35,3052           00006                           EXTEND
000901: 35,3053           13045                           BZF      KILCLOCK                              #  FINALFLG IS SET - FLASH V37 - AWAIT NEW PGM
000902: 35,3054           05412                           TC       PHASCHNG
000903: 35,3055           04024                           OCT      04024
000904: 35,3056           05546                           TC       UPFLAG                                #  SET
000905: 35,3057           00047                           ADRES    FINALFLG                              #  FINALFLG
000906: 35,3060           30005        CLUPDATE           CA       Z
000907: 35,3061           54000                           TS       DISPDEX
000908: 35,3062           05412                           TC       PHASCHNG
000909: 35,3063           04024                           OCT      04024
000910: 35,3064           06006                           TC       INTPRET
000911: 35,3065           52014                           CLEAR    GOTO
000912: 35,3066           00670                                    UPDATFLG
000913: 35,3067           02366                                    QSAVED
000914:


000916:                                                                                                  #  ..... DISPLAYE .....
000917:
000918:                                                                                                  #  SUBROUTINES USED
000919:                                                                                                  #        BANKCALL
000920:                                                                                                  #        GOFLASHR
000921:                                                                                                  #        GOTOPOOH
000922:                                                                                                  #        BLANKET
000923:                                                                                                  #        ENDOFJOB
000924:
000925: 35,3070           00006        DISPLAYE           EXTEND
000926: 35,3071           23340                           QXCH     NORMEX
000927: 35,3072           34615                           CAF      V06N55
000928: 35,3073           04662                           TCR      BANKCALL
000929: 35,3074           20720                           CADR     GOFLASH
000930: 35,3075           14106                           TCF      GOTOPOOH
000931: 35,3076           01340                           TC       NORMEX
000932: 35,3077           13072                           TCF      -5
000933:


000935:                                                                                                  #  ..... P3XORP7X .....
000936:
000937: 35,3100           37713        P3XORP7X           CAF      HIGH9
000938: 35,3101           71011                           MASK     MODREG
000939: 35,3102           00006                           EXTEND
000940: 35,3103           13105                           BZF      +2
000941: 35,3104           24002                           INCR     Q
000942: 35,3105           00002                           RETURN
000943:
000944:                                                                                                  #  ..... VNPOOH .....
000945:
000946:                                                                                                  #  SUBROUTINES USED
000947:                                                                                                  #        BANKCALL
000948:                                                                                                  #        GOFLASH
000949:                                                                                                  #        GOTOPOOH
000950:
000951:    4000                                           SETLOC   P30SUBS
000952:    4000                                           BANK
000953:
000954:    4575           00006        VNPOOH             EXTEND
000955:    4576           23767                           QXCH     RTRN
000956:    4577           55765                           TS       VERBNOUN
000957:    4600           34610                           CAF      VNBANK                                #  ***** THIS ROUTINE MUST REMAIN IN
000958:    4601           56004                           XCH      FBANK                                 #        FIXED-FIXED *****
000959:    4602           55063                           TS       TBASE5                                #  * WATCH OUT *
000960:
000961:    4603           31765                           CA       VERBNOUN
000962:    4604           04662                           TCR      BANKCALL
000963:    4605           20720                           CADR     GOFLASH
000964:    4606           14106                           TCF      GOTOPOOH
000965:    4607           14611                           TCF      +2
000966:    4610           04603        VNBANK             TC       -5
000967:
000968:    4611           31063                           CA       TBASE5
000969:    4612           54004                           TS       FBANK
000970:    4613           01767                           TC       RTRN
000971:


000973:                                                                                                  #  ..... CONSTANTS .....
000974:
000975:    4614           01445        V06N37             VN       0637
000976:    4615           01467        V06N55             VN       0655
000977:    4616           01472        V06N58             VN       0658
000978:    4617           01473        V06N59             VN       0659
000979:    4620           01521        V06N81             VN       0681
000980:    4621           04055        V16N45             VN       1645
000981: 35,2000                                           SETLOC   CSI/CDH
000982: 35,2000                                           BANK
000983:
000984: 35,3106           14441 37325  TWOPI              2DEC     6.283185307 B-4
000985: 35,3110           00001 20650  MAX250             2DEC     25         E3
000986: 35,3112           12525 12525  THIRD              2DEC     .333333333
000987: 35,3114           00004 21505  ELEPS              2DEC     .27777777  E-3
000988: 35,3116           00002        DECTWO             OCT      2
000989: 35,3117           77777        DP-.01             OCT      77777                                 #  CONSTANTS
000990: 35,3120           61337                           OCT      61337                                 #  ADJACENT      -.01 FOR MGA DSP
000991: 35,3121           01252 25253  EPSFOUR            2DEC     .0416666666
000992:


000994:                                                                                                  #  ..... INITVEL .....
000995:                                                                                                  #  MOD NO -1                     LOG SECTION - P34-P35, P74-P75
000996:                                                                                                  #  MOD BY WHITE.P                DATE  21NOV67
000997:
000998:                                                                                                  #  FUNCTIONAL DESCRIPTION
000999:                                                                                                  #        THIS SUBROUTINE COMPUTES THE REQUIRED INITIAL VELOCITY VECTOR FOR
001000:                                                                                                  #        A TRAJECTORY OF SPECIFIED TRANSFER TIME BETWEEN SPECIFIED INITIAL
001001:                                                                                                  #        AND TARGET POSITIONS.  THE TRAJECTORY MAY BE EITHER CONIC OR
001002:                                                                                                  #        PRECISION DEPENDING ON AN INPUT PARAMETER (NAMELY, NUMBER OF
001003:                                                                                                  #        OFFSETS).  IN ADDITION, IN THE PRECISION TRAJECTORY CASE, THE
001004:                                                                                                  #        SUBROUTINE ALSO COMPUTES AN OFFSET TARGET VECTOR, TO BE USED
001005:                                                                                                  #        DURING PURE-CONIC CROSS-PRODUCT STEERING.  THE OFFSET TARGET
001006:                                                                                                  #        VECTOR IS THE TERMINAL POSITION VECTOR OF A CONIC TRAJECTORY WHICH
001007:                                                                                                  #        HAS THE SAME INITIAL STATE AS A PRECISION TRAJECTORY WHOSE
001008:                                                                                                  #        TERMINAL POSITION VECTOR IS THE SPECIFIED TARGET VECTOR.
001009:
001010:                                                                                                  #        IN ORDER TO AVOID THE INHERENT SINGULARITIES IN THE 180 DEGREE
001011:                                                                                                  #        TRANSFER CASE WHEN THE (TRUE OR OFFSET) TARGET VECTOR MAY BE
001012:                                                                                                  #        SLIGHTLYOUT OF THE ORBITAL PLANE, THIS SUBROUTINE ROTATES THIS
001013:                                                                                                  #        VECTOR INTO A PLANE DEFINED BY THE INPUT INITIAL POSITION VECTOR
001014:                                                                                                  #        AND ANOTHER INPUT VECTOR (USUALLY THE INITIAL VELOCITY VECTOR),
001015:                                                                                                  #        WHENEVER THE INPUT TARGET VECTOR LIES INSIDE A CONE WHOSE VERTEX
001016:                                                                                                  #        IS THE ORIGIN OF COORDINATES, WHOSE AXIS IS THE 180 DEGREE
001017:                                                                                                  #        TRANSFER DIRECTION, AND WHOSE CONE ANGLE IS SPECIFIED BY THE USER.
001018:
001019:                                                                                                  #        THE LAMBERT SUBROUTINE IS UTILIZED FOR THE CONIC COMPUTATIONS AND
001020:                                                                                                  #        THE COASTING INTEGRATION SUBROUTINE IS UTILIZED FOR THE PRECISION
001021:                                                                                                  #        TRAJECTORY COMPUTATIONS.
001022:
001023:                                                                                                  #  CALLING SEQUENCE
001024:                                                                                                  #        L       CALL
001025:                                                                                                  #        L+1             INITVEL
001026:                                                                                                  #        L+2     (RETURN - ALWAYS)
001027:
001028:                                                                                                  #  INPUT
001029:                                                                                                  #        (1)     RINIT           INITIAL POSITION RADIUS VECTOR
001030:                                                                                                  #        (2)     VINIT           INITIAL POSITION VELOCITY VECTOR
001031:                                                                                                  #        (3)     RTARG           TARGET POSITION RADIUS VECTOR
001032:                                                                                                  #        (4)     DELLT4          DESIRED TIME OF FLIGHT FROM RINIT TO RTARG
001033:                                                                                                  #        (5)     INTIME          TIME OF RINIT
001034:                                                                                                  #        (6)     0D              NUMBER OF ITERATIONS OF LAMBERT/INTEGRVS
001035:                                                                                                  #        (7)     2D              ANGLE TO 180 DEGREES WHEN ROTATION STARTS
001036:                                                                                                  #        (8)     RTX1            -2 FOR EARTH, -10D FOR LUNAR
001037:                                                                                                  #        (9)     RTX2            COORDINATE SYSTEM ORIGIN - 0 FOR EARTH, 2 FOR LUNAR
001038:                                                                                                  #        PUSHLOC SET AT 4D
001039:


001041:                                                                                                  #  OUTPUT
001042:                                                                                                  #        (1)     RTARG           OFFSET TARGET POSITION VECTOR
001043:                                                                                                  #        (2)     VIPRIME         MANEUVER VELOCITY REQUIRED
001044:                                                                                                  #        (3)     VTPRIME         VELOCITY AT TARGET AFTER MANEUVER
001045:                                                                                                  #        (4)     DELVEET3        DELTA VELOCITY REQUIRED FOR MANEUVER
001046:
001047:                                                                                                  #  SUBROUTINES USED
001048:                                                                                                  #        LAMBERT
001049:                                                                                                  #        INTSTALL
001050:                                                                                                  #        INTEGRVS
001051:
001052: 11,2000                                           SETLOC   INTVEL
001053: 11,2000                                           BANK
001054:
001055: 11,2000                                           COUNT    11/INITV
001056: 11,2000           77614        INITVEL            SET                                            #  COGA GUESS NOT AVAILABLE
001057: 11,2001           00475                                    GUESSW
001058: 11,2002           44175        HAVEGUES           VLOAD    STQ
001059: 11,2003           03415                                    RTARG
001060: 11,2004           01340                                    NORMEX
001061: 11,2005           03604                           STORE    RTARG1
001062: 11,2006           46135                           SLOAD    BHIZ
001063: 11,2007           03747                                    RTX2
001064: 11,2010           22022                                    INITVEL1
001065: 11,2011           72575                           VLOAD    VSL2
001066: 11,2012           03570                                    RINIT                                 #  B29
001067: 11,2013           27570                           STOVL    RINIT                                 #  B27
001068: 11,2014           03576                                    VINIT                                 #  B7
001069: 11,2015           77752                           VSL2
001070: 11,2016           27576                           STOVL    VINIT                                 #  B5
001071: 11,2017           03604                                    RTARG1
001072: 11,2020           77752                           VSL2
001073: 11,2021           03604                           STORE    RTARG1
001074:
001075:                                                                                                  #  INITIALIZATION
001076:
001077: 11,2022           71331        INITVEL1           SSP      DLOAD                                 #  SET ITCTR TO -1,LOAD MPAC WITH E4 (PL 2D)
001078: 11,2023           03505                                    ITCTR
001079: 11,2024           77776                                    0          -1
001080: 11,2025           70546                           COSINE   SR1                                   #  CALCULATE COSINE (E4) (+2)
001081: 11,2026           17630                           STODL    COZY4                                 #  SET COZY4 TO COSINE (E4) (PL 0D)
001082: 11,2027           67154                           LXA,2    SXA,2
001083: 11,2030           00154                                    MPAC
001084: 11,2031           02703                                    VTARGTAG                              #  SET VTARGTAG TO 0D (SP)
001085: 11,2032           77775                           VLOAD
001086: 11,2033           03570                                    RINIT
001087: 11,2034           26657                           STOVL    R1VEC                                 #  R1VEC EQ RINIT
001088: 11,2035           03604                                    RTARG1


001090: 11,2036           16665                           STODL    R2VEC                                 #  R2VEC EQ RTARG
001091: 11,2037           03423                                    DELLT4
001092: 11,2040           02673                           STORE    TDESIRED                              #  TDESIRED EQ DELLT4
001093: 11,2041           77201                           SETPD    VLOAD
001094: 11,2042           00001                                    0D                                    #  INITIALIZE PL TO 0D
001095: 11,2043           03570                                    RINIT                                 #  MPAC EQ RINIT (+29)
001096: 11,2044           41456                           UNIT     PUSH                                  #  UNIT(RI) (+1)         (PL 6D)
001097: 11,2045           53435                           VXV      UNIT
001098: 11,2046           03576                                    VINIT                                 #  MPAC EQ UNIT(RI) X VI (+8)
001099: 11,2047           26676                           STOVL    UN
001100: 11,2050           03604                                    RTARG1
001101: 11,2051           50256                           UNIT     DOT                                   #  TEMP=URT.URI (+2)     (PL 0D)
001102: 11,2052           43015                           DAD      CLEAR
001103: 11,2053           03630                                    COZY4
001104: 11,2054           03665                                    NORMSW
001105: 11,2055           03630                           STORE    COZY4
001106: 11,2056           43044        INITVEL2           BPL      SET
001107: 11,2057           22101                                    INITVEL3                              #  UN CALCULATED IN LAMBERT
001108: 11,2060           03465                                    NORMSW
001109:
001110:                                                                                                  #  ROTATE RC INTO YC PLANE - SET UNIT NORMAL TO YC
001111:
001112: 11,2061           41575                           VLOAD    PUSH                                  #                                   (PL 6D)
001113: 11,2062           02665                                    R2VEC                                 #  RC TO 6D (+29)
001114: 11,2063           63246                           ABVAL    PDVL                                  #  RC TO MPAC, ABVAL(RC) (+29) TO OD(PL 2D)
001115: 11,2064           46206                           PUSH     VPROJ                                 #                                   (PL 8D)
001116: 11,2065           02676                                    UN
001117: 11,2066           51352                           VSL2     BVSU
001118: 11,2067           74256                           UNIT     VXSC                                  #                                   (PL 0D)
001119: 11,2070           77772                           VSL1
001120: 11,2071           02665                           STORE    R2VEC
001121: 11,2072           67351                           TLOAD    SLOAD
001122: 11,2073           11566                                    ZEROVEC
001123: 11,2074           03505                                    ITCTR
001124: 11,2075           77244                           BPL      VLOAD
001125: 11,2076           22101                                    INITVEL3
001126: 11,2077           02665                                    R2VEC
001127: 11,2100           03604                           STORE    RTARG1
001128: 11,2101           63345        INITVEL3           DLOAD    PDVL                                  #                                (PL 2D)
001129: 11,2102           27735                                    MUEARTH                               #  POSITIVE VALUE
001130: 11,2103           02665                                    R2VEC
001131: 11,2104           63256                           UNIT     PDVL                                  #  2D = UNIT(R2VEC)              (PL 8D)
001132: 11,2105           02657                                    R1VEC
001133: 11,2106           41456                           UNIT     PUSH                                  #  8D = UNIT(R1VEC)              (PL 14D)
001134: 11,2107           57435                           VXV      VCOMP                                 #  -N = UNIT(R2VEC) X UNIT(R1VEC)
001135: 11,2110           00003                                    2D
001136: 11,2111           77606                           PUSH                                           #                                (PL 20D)
001137: 11,2112           71350                           LXA,1    DLOAD
001138: 11,2113           03745                                    RTX1
001139: 11,2114           00023                                    18D
001140: 11,2115           62040                           BMN      INCR,1


001142: 11,2116           22120                                    +2
001143: 11,2117           77767                           DEC      -8         B-14
001144: 11,2120           67310                           INCR,1   SLOAD
001145: 11,2121           00012                                    10D
001146: 11,2122           00047                                    X1
001147: 11,2123           77230                           BHIZ     VLOAD                                 #                        (PL 14D)
001148: 11,2124           22126                                    +2
001149: 11,2125           41476                           VCOMP    PUSH                                  #                        (PL 20 D)
001150: 11,2126           77775                           VLOAD                                          #                        (PL 14D)
001151: 11,2127           50235                           VXV      DOT                                   #                        (PL 2D)
001152: 11,2130           71244                           BPL      DLOAD                                 #                        (PL 0D)
001153: 11,2131           22133                                    INITVEL4
001154: 11,2132           41476                           DCOMP    PUSH                                  #                        (PL 2D)
001155: 11,2133           67154        INITVEL4           LXA,2    SXA,2
001156: 11,2134           00000                                    0D
001157: 11,2135           02674                                    GEOMSGN
001158:
001159:                                                                                                  #  SET INPUTS UP FOR LAMBERT
001160:
001161: 11,2136           45150                           LXA,1    CALL
001162: 11,2137           03745                                    RTX1
001163:                                                                                                  #   OPERATE THE LAMBERT CONIC ROUTINE (COASTFLT SUBROUTINE)
001164:
001165: 11,2140           25224                                    LAMBERT
001166:
001167:                                                                                                  #        DELETE THRU 4521
001168:                                                                                                  #  ARRIVED AT SOLUTION IS GOOD ENOUGH ACCORDING TO SLIGHTLY WIDER BOUNDS.
001169:
001170: 11,2141           77214                           CLEAR    VLOAD
001171: 11,2142           00675                                    GUESSW
001172: 11,2143           02746                                    VVEC
001173:
001174:                                                                                                  #  STORE CALCULATED INITIAL VELOCITY REQUIRED IN VIPRIME
001175:
001176: 11,2144           17612                           STODL    VIPRIME                               #  INITIAL VELOCITY REQUIRED (+7)
001177:
001178:                                                                                                  #     IF NUMIT IS ZERO, CONTINUE AT INITVELB, OTHERWISE
001179:                                                                                                  #  SET UP INPUTS FOR ENCKE INTEGRATION (INTEGRVS).
001180:
001181: 11,2145           02704                                    VTARGTAG
001182: 11,2146           45030                           BHIZ     CALL
001183: 11,2147           22224                                    INITVEL7
001184: 11,2150           27442                                    INTSTALL
001185: 11,2151           43135                           SLOAD    CLEAR
001186: 11,2152           03747                                    RTX2
001187: 11,2153           00263                                    MOONFLAG
001188: 11,2154           43030                           BHIZ     SET
001189: 11,2155           22157                                    INITVEL5
001190: 11,2156           00063                                    MOONFLAG
001191: 11,2157           77775        INITVEL5           VLOAD
001192: 11,2160           03570                                    RINIT
001193: 11,2161           02657                           STORE    R1VEC


001195: 11,2162           25535                           STOVL    RCV
001196: 11,2163           03612                                    VIPRIME
001197: 11,2164           15543                           STODL    VCV
001198: 11,2165           03503                                    INTIME
001199: 11,2166           01517                           STORE    TET
001200: 11,2167           43015                           DAD      CLEAR
001201: 11,2170           03423                                    DELLT4
001202: 11,2171           01673                                    INTYPFLG
001203: 11,2172           34041                           STCALL   TDEC1
001204: 11,2173           27135                                    INTEGRVS
001205: 11,2174           77775                           VLOAD
001206: 11,2175           00025                                    VATT1
001207: 11,2176           02705                           STORE    VTARGET
001208:
001209:                                                                                                  #  IF ITERATION COUNTER (ITCTR) EQ NO. ITERATIONS (NUMIT), CONTINUE AT
001210:                                                                                                  #  INITVELC, OTHERWISE REITERATE LAMBERT AND ENCKE
001211:
001212: 11,2177           63154                           LXA,2    INCR,2
001213: 11,2200           03504                                    ITCTR
001214: 11,2201           00001                                    1D                                    #  INCREMENT ITCTR
001215: 11,2202           55134                           SXA,2    XSU,2
001216: 11,2203           03504                                    ITCTR
001217: 11,2204           02703                                    VTARGTAG
001218: 11,2205           46135                           SLOAD    BHIZ                                  #  IF SP(MPAC) EQ 0, CONTINUE AT INITVELC
001219: 11,2206           00050                                    X2
001220: 11,2207           22221                                    INITVEL6
001221:
001222:                                                                                                  #  OFFSET CONIC TARGET VECTOR
001223:
001224: 11,2210           52375                           VLOAD    VSU
001225: 11,2211           03604                                    RTARG1
001226: 11,2212           00017                                    RATT1
001227: 11,2213           77655                           VAD
001228: 11,2214           02665                                    R2VEC
001229: 11,2215           16665                           STODL    R2VEC
001230: 11,2216           03630                                    COZY4
001231: 11,2217           77650                           GOTO
001232: 11,2220           22056                                    INITVEL2                              #  CONTINUE ITERATING AT INITVEL2
001233:
001234:                                                                                                  #  COMPUTE THE DELTA VELOCITY
001235:
001236: 11,2221           77775        INITVEL6           VLOAD
001237: 11,2222           02665                                    R2VEC
001238: 11,2223           03604                           STORE    RTARG1
001239: 11,2224           52375        INITVEL7           VLOAD    VSU
001240: 11,2225           03612                                    VIPRIME
001241: 11,2226           03576                                    VINIT
001242: 11,2227           27646                           STOVL    DELVEET3                              #  DELVEET3 = VIPRIME-VINIT (+7)
001243: 11,2230           02705                                    VTARGET
001244: 11,2231           03620                           STORE    VTPRIME
001245: 11,2232           46135                           SLOAD    BHIZ
001246: 11,2233           03747                                    RTX2


001248: 11,2234           22251                                    INITVELX
001249: 11,2235           70575                           VLOAD    VSR2
001250: 11,2236           03620                                    VTPRIME
001251: 11,2237           27620                           STOVL    VTPRIME
001252: 11,2240           03612                                    VIPRIME
001253: 11,2241           77742                           VSR2
001254: 11,2242           27612                           STOVL    VIPRIME
001255: 11,2243           03604                                    RTARG1
001256: 11,2244           77742                           VSR2
001257: 11,2245           27604                           STOVL    RTARG1
001258: 11,2246           03646                                    DELVEET3
001259: 11,2247           77742                           VSR2
001260: 11,2250           03646                           STORE    DELVEET3
001261: 11,2251           77201        INITVELX           SETPD    VLOAD
001262: 11,2252           00001                                    0D
001263: 11,2253           03604                                    RTARG1
001264: 11,2254           37415                           STCALL   RTARG
001265: 11,2255           01340                                    NORMEX
001266:
001267:                                                                                                  #  ..... END OF INITVEL ROUTINE .....
001268:


001270:                                                                                                  #  ..... MIDGIM .....
001271:                                                                                                  #  MOD NO. 0, BY WILLMAN, SUBROUTINE RENDGUID, LOG P34-P35, P74-P75
001272:                                                                                                  #  REVISION 03, 17 FEB 67
001273:
001274:                                                                                                  #  IF THE ACTIVE VEHICLE IS DOING THE COMPUTATION, MIDGIM COMPUTES
001275:                                                                                                  #  THE POSITIVE MIDDLE GIMBAL ANGLE OF THE ACTIVE VEHICLE TO THE INPUT
001276:                                                                                                  #  DELTA VELOCITY VECTOR (0D IN PUSH LIST), OTHERWISE
001277:                                                                                                  #  MIDGIM CONVERTS THE INPUT DELTA VELOCITY VECTOR FROM INERTIAL COORDIN-
001278:                                                                                                  #  ATES TO LOCAL VERTICAL COORDINATES OF THE ACTIVE VEHICLE.
001279:
001280:                                                                                                  #  .. INPUTS ..
001281:                                                                                                  #    NAME     MEANING                                            UNITS/SCALING/MODE
001282:                                                                                                  #    AVFLAG   INT FLAG - 0 IS CSM ACTIVE, 1 IS LEM ACTIVE        BIT
001283:                                                                                                  #    COMPUTER INT FLAG - 0 IS LEM COMPUTER, 1 IS CSM COMPUTER    BIT
001284:                                                                                                  #    RINIT    ACTIVE VEHICLE RADIUS VECTOR                       METERS/CSEC (+7) VT
001285:                                                                                                  #    VINIT    ACTIVE VEHICLE VELOCITY VECTOR                     METERS/CSEC (+7) VT
001286:                                                                                                  #    0D(PL)   ACTIVE VEHICLE DELTA VELOCITY VECTOR               METERS/CSEC (+7) VT
001287:
001288:                                                                                                  #  .. OUTPUTS ..
001289:                                                                                                  #    NAME     MEANING                                            UNITS/SCALING/MODE
001290:                                                                                                  #    +MGA     + MIDDLE GIMBAL ANGLE                              REVOLUTIONS (+0) DP
001291:                                                                                                  #    DELVLVC  DELTA VELOCITY VECTOR IN LV COORD.                 METERS/CSEC (+7) VT
001292:                                                                                                  #    MGLVFLAG INT FLAG - 0 IS +MGA COMPUTED, 1 IS DELVLVC COMP.        -         BIT
001293:
001294:                                                                                                  #  .. CALLING SEQUENCE ..
001295:                                                                                                  #        L       CALL
001296:                                                                                                  #        L+1             MIDGIM
001297:                                                                                                  #        L+2     (RETURN - ALWAYS)
001298:
001299:                                                                                                  #  .. NO SUBROUTINES CALLED ..
001300:
001301:                                                                                                  #  .. DEBRIS - ERASEABLE TEMPORARY USAGE
001302:                                                                                                  #        A,Q,L, PUSH LIST, MPAC.
001303:
001304:                                                                                                  #  .. ALARMS - NONE ..
001305:


001307:                                                                                                  #  MIDDLE GIMBAL ANGLE COMPUTATION.
001308: 04,2000                                           SETLOC   MIDDGIM
001309: 04,2000                                           BANK
001310:
001311: 04,2645                                           COUNT*   $$/MIDG
001312:
001313: 04,2645           20000 00000  HALFREV            2DEC     1          B-1
001314:
001315: 04,2647           43014        MIDGIM             BON      BOFF
001316: 04,2650           01312                                    AVFLAG
001317: 04,2651           10667                                    MIDGIM1
001318: 04,2652           02747                                    COMPUTER
001319: 04,2653           10672                                    GET.LVC
001320:
001321:                                                                                                  #  COMPUTE +MGA IF AVFLAG AND COMPUTER HAVE OPPOSITE VALUES.
001322:
001323: 04,2654           53575        GET+MGA            VLOAD    UNIT                                  #  (PL 0D) V (+7) TO MPAC, UNITIZE UV (+1)
001324: 04,2655           72441                           DOT      SL1                                   #  DOT UV WITH Y(STABLE MEMBER) AND RESCALE
001325: 04,2656           01744                                    REFSMMAT   +6                         #  FROM +2 TO +1 FOR ASIN ROUTINE
001326: 04,2657           51136                           ARCSIN   BPL
001327: 04,2660           10664                                    SETMGA
001328: 04,2661           43215                           DAD      DAD                                   #  CONVERT -MGA TO +MGA BY
001329: 04,2662           10646                                    HALFREV                               #  ADDING ONE REVOLUTION
001330: 04,2663           10646                                    HALFREV
001331: 04,2664           03626        SETMGA             STORE    +MGA
001332: 04,2665           43414                           CLR      RVQ                                   #  CLEAR MGLVFLAG TO INDICATE +MGA CALC
001333: 04,2666           02675                                    MGLVFLAG                              #  AND EXIT
001334:
001335: 04,2667           77614        MIDGIM1            BOFF
001336: 04,2670           02747                                    COMPUTER
001337: 04,2671           10654                                    GET+MGA
001338:
001339:                                                                                                  #  COMPUTE DELVLVC IF AVFLAG AND COMPUTER HAVE SAME VALUES.
001340:
001341: 04,2672           53575        GET.LVC            VLOAD    UNIT                                  #  (PL 6D) R (+29) IN MPAC, UNITIZE UR
001342: 04,2673           03570                                    RINIT
001343: 04,2674           77676                           VCOMP                                          #  U(-R)
001344: 04,2675           00023                           STORE    18D                                   #  U(-R) TO 18D
001345: 04,2676           53435                           VXV      UNIT                                  #  U(-R)*V EQ V*U(R), U(V*R)
001346: 04,2677           03576                                    VINIT
001347: 04,2700           00015                           STORE    12D                                   #  U(V*R) TO 12D
001348: 04,2701           53435                           VXV      UNIT                                  #  U(V*R)*U(-R), U((V*R)*(-R))
001349: 04,2702           00023                                    18D
001350: 04,2703           24007                           STOVL    6D                                    #  TRANSFORMATION MATRIX IS IN 6D (+1)
001351: 04,2704           00001                                    0D                                    #  DELTA V (+7) IN 0D
001352: 04,2705           76521                           MXV      VSL1                                  #  CONVERT FROM INER COOR TO LV COOR (+8)
001353: 04,2706           00007                                    6D                                    #  AND SCALE +7 IN MPAC
001354: 04,2707           03405                           STORE    DELVLVC                               #  STORE IN DELVLVC (+7)
001355: 04,2710           43414                           SET      RVQ                                   #  SET MGLVFLAG TO INDICATE LVC CALC
001356: 04,2711           02475                                    MGLVFLAG                              #  AND EXIT
001357:
001358:                                                                                                  #  ..... END OF MIDGIM ROUTINE .....
001359:


001361: 04,2712           77160        SELECTMU           AXC,1    AXT,2
001362: 04,2713           00002                                    2D
001363: 04,2714           00000                                    0D
001364: 04,2715           77614                           BOFF
001365: 04,2716           04343                                    CMOONFLG
001366: 04,2717           10723                                    SETMUER
001367: 04,2720           77160                           AXC,1    AXT,2
001368: 04,2721           00012                                    10D
001369: 04,2722           00002                                    2D
001370: 04,2723           66143        SETMUER            DLOAD*   SXA,1
001371: 04,2724           11744                                    MUTABLE    +4,1
001372: 04,2725           03745                                    RTX1
001373: 04,2726           23752                           STODL*   RTSR1/MU
001374: 04,2727           11736                                    MUTABLE    -2,1
001375: 04,2730           54214                           BOFF     SR
001376: 04,2731           04343                                    CMOONFLG
001377: 04,2732           10734                                    RTRNMU
001378: 04,2733           20607                                    6D
001379: 04,2734           03750        RTRNMU             STORE    RTMU
001380: 04,2735           43134                           SXA,2    CLEAR
001381: 04,2736           03746                                    RTX2
001382: 04,2737           01271                                    FINALFLG
001383: 04,2740           77650                           GOTO
001384: 04,2741           73002                                    VN1645
001385:


001387:                                                                                                  #  ..... PERIAPO .....
001388:                                                                                                  #  MOD NO -1                     LOG SECTION - P34-P35, P74-P75
001389:                                                                                                  #  MOD BY WHITE.P                DATE 18JAN68
001390:
001391:                                                                                                  #  FUNCTIONAL DESCRIPTION
001392:
001393:                                                                                                  #        THIS SUBROUTINE COMPUTES THE TWO BODY APOCENTER AND PERICENTER
001394:                                                                                                  #        ALTITUDES GIVEN THE POSITION AND VELOCITY VECTORS FOR A POINT ON
001395:                                                                                                  #        THE TRAJECTORY AND THE PRIMARY BODY.
001396:
001397:                                                                                                  #        SETRAD IS CALLED TO DETERMINE THE RADIUS OF THE PRIMARY BODY.
001398:
001399:                                                                                                  #        APSIDES IS CALLED TO SOLVE FOR THE TWO BODY RADII OF APOCENTER AND
001400:                                                                                                  #        PERICENTER AND THE ECCENTRICITY OF THE TRAJECTORY.
001401:
001402:                                                                                                  #  CALLING SEQUENCE
001403:                                                                                                  #        L       CALL
001404:                                                                                                  #        L+1             PERIAPO
001405:                                                                                                  #        L+2     (RETURN - ALWAYS)
001406:
001407:                                                                                                  #  INPUT
001408:                                                                                                  #        (1)     RVEC    POSITION VECTOR IN METERS
001409:                                                                                                  #                        SCALE FACTOR - EARTH +29, MOON +27
001410:                                                                                                  #        (2)     VVEC    VELOCITY VECTOR IN METERS/CENTISECOND
001411:                                                                                                  #                        SCALE FACTOR - EARTH +7, MOON +5
001412:                                                                                                  #        (3)     X1      PRIMARY BODY INDICATOR
001413:                                                                                                  #                        EARTH -2, MOON -10
001414:
001415:                                                                                                  #  OUTPUT
001416:                                                                                                  #        (1)     2D      APOCENTER RADIUS IN METERS
001417:                                                                                                  #                        SCALE FACTOR - EARTH +29, MOON +27
001418:                                                                                                  #        (2)     4D      APOCENTER ALTITUDE IN METERS
001419:                                                                                                  #                        SCALE FACTOR - EARTH +29, MOON P27
001420:                                                                                                  #        (3)     6D      PERICENTER RADIUS IN METERS
001421:                                                                                                  #                        SCALE FACTOR - EARTH +29, MOON +27
001422:                                                                                                  #        (4)     8D      PERICENTER ALTITUDE IN METERS
001423:                                                                                                  #                        SCALE FACTOR - EARTH +29, MOON +27
001424:                                                                                                  #        (5)     ECC     ECCENTRICITY OF CONIC TRAJECTORY
001425:                                                                                                  #                        SCALE FACTOR - +3
001426:                                                                                                  #        (6)     XXXALT  RADIUS OF THE PRIMARY BODY IN METERS
001427:                                                                                                  #                        SCALE FACTOR - EARTH +29, MOON +27
001428:                                                                                                  #        (7)     PUSHLOC EQUALS 10D
001429:
001430:                                                                                                  #  SUBROUTINES USED
001431:                                                                                                  #        SETRAD


001433:                                                                                                  #        APSIDES
001434:
001435: 22,2000                                           SETLOC   APOPERI
001436: 22,2000                                           BANK
001437:
001438: 22,3151                                           COUNT*   $$/PERAP
001439:
001440: 22,3151           00302 17755  RPAD               2DEC     6373338    B-29                       #  STANDARD RADIUS OF PAD 37-B.
001441:                                                                                                  #  = 20 909 901.57 FT
001442:
001443: 22,3153           53754        PERIAPO1           LXA,2    VSR*
001444: 22,3154           03746                                    RTX2
001445: 22,3155           57176                                    0,2
001446: 22,3156           26746                           STOVL    VVEC
001447: 22,3157           53750                           LXA,1    VSR*
001448: 22,3160           03745                                    RTX1
001449: 22,3161           57176                                    0,2
001450: 22,3162           02657                           STORE    RVEC
001451: 22,3163           45020        PERIAPO            STQ      CALL
001452: 22,3164           01340                                    NORMEX
001453: 22,3165           45201                                    SETRAD
001454: 22,3166           37456                           STCALL   XXXALT
001455: 22,3167           25703                                    APSIDES
001456: 22,3170           41401                           SETPD    PUSH                                  #  2D = APOCENTER RADIUS         B29 OR B27
001457: 22,3171           00003                                    2D
001458: 22,3172           65225                           DSU      PDDL                                  #  4D = APOGEE ALTITUDE          B29 OR B27
001459: 22,3173           03456                                    XXXALT
001460: 22,3174           00001                                    0D
001461: 22,3175           45206                           PUSH     DSU                                   #  6D = PERICENTER RADIUS        B29 OR B27
001462: 22,3176           03456                                    XXXALT
001463: 22,3177           52006                           PUSH     GOTO                                  #  8D = PERIGEE ALTITUDE         B29 OR B27
001464: 22,3200           01340                                    NORMEX


001466:                                                                                                  #  SETRAD
001467: 22,3201           41545        SETRAD             DLOAD    PUSH
001468: 22,3202           05152                                    RPAD
001469: 22,3203           63130                           SXA,1    INCR,2
001470: 22,3204           00047                                    X2
001471: 22,3205           00002                                    2D
001472: 22,3206           46135                           SLOAD    BHIZ
001473: 22,3207           00050                                    X2
001474: 22,3210           45214                                    SETRADX
001475: 22,3211           51575                           VLOAD    ABVAL
001476: 22,3212           02026                                    RLS
001477: 22,3213           77725                           PDDL
001478: 22,3214           43545        SETRADX            DLOAD    RVQ
001479:


001481:                                                                                                  #  PRECSET
001482: 22,3215           77620        PRECSET            STQ
001483: 22,3216           01340                                    NORMEX
001484: 22,3217           36635                           STCALL   TDEC2
001485: 22,3220           27105                                    LEMPREC
001486: 22,3221           77624                           CALL
001487: 22,3222           45233                                    LEMSTORE
001488: 22,3223           77745                           DLOAD
001489: 22,3224           02635                                    TDEC2
001490: 22,3225           34041                           STCALL   TDEC1
001491: 22,3226           27071                                    CSMPREC
001492: 22,3227           77624                           CALL
001493: 22,3230           45243                                    CSMSTORE
001494: 22,3231           77650                           GOTO
001495: 22,3232           01340                                    NORMEX
001496: 22,3233           43175        LEMSTORE           VLOAD    BOFF
001497: 22,3234           00001                                    RATT
001498: 22,3235           01352                                    AVFLAG
001499: 22,3236           45247                                    PASSIVE
001500: 22,3237           27540        ACTIVE             STOVL    RACT3
001501: 22,3240           00007                                    VATT
001502: 22,3241           03546                           STORE    VACT3
001503: 22,3242           77616                           RVQ
001504: 22,3243           43175        CSMSTORE           VLOAD    BOFF
001505: 22,3244           00001                                    RATT
001506: 22,3245           01352                                    AVFLAG
001507: 22,3246           45237                                    ACTIVE
001508: 22,3247           27554        PASSIVE            STOVL    RPASS3
001509: 22,3250           00007                                    VATT
001510: 22,3251           03562                           STORE    VPASS3
001511: 22,3252           77616                           RVQ
001512:


001514:                                                                                                  #  VECSHIFT
001515: 22,3253           53754        VECSHIFT           LXA,2    VSR*
001516: 22,3254           03746                                    RTX2
001517: 22,3255           57176                                    0,2
001518: 22,3256           63350                           LXA,1    PDVL
001519: 22,3257           03745                                    RTX1
001520: 22,3260           63257                           VSR*     PDVL
001521: 22,3261           57176                                    0,2
001522: 22,3262           77616                           RVQ
001523:


001525:                                                                                                  #  SHIFTR1
001526: 22,3263           53754        SHIFTR1            LXA,2    SL*
001527: 22,3264           03746                                    RTX2
001528: 22,3265           57576                                    0,2
001529: 22,3266           77616                           RVQ
001530:


001532:                                                                                                  #  PROGRAM DESCRIPTION
001533:
001534:                                                                                                  #  SUBROUTINE NAME       R36     OUT-OF-PLANE RENDEZVOUS ROUTINE
001535:                                                                                                  #  MOD NO. 2             DATE 2 JANUARY 1969
001536:                                                                                                  #  MOD BY A.W.BANCROFT   LOG SECTION EXTENDED VERBS
001537:
001538:                                                                                                  #  FUNCTIONAL DESCRIPTION
001539:
001540:                                                                                                  #  TO DISPLAY AT ASTRONAUT REQUEST LGC CALCULATED RENDEZVOUS
001541:                                                                                                  #  OUT-OF-PLANE PARAMETERS (Y, YDOT, PSI).  (REQUESTED BY DSKY).
001542:
001543:                                                                                                  #  CALLING SEQUENCE
001544:                                                                                                  #        ASTRONAUT REQUEST THROUGH DSKY V 90 E
001545:
001546:                                                                                                  #  SUBROUTINES CALLED
001547:                                                                                                  #        EXDSPRET
001548:                                                                                                  #        GOMARKF
001549:                                                                                                  #        CSMPREC
001550:                                                                                                  #        LEMPREC
001551:                                                                                                  #        SGNAGREE
001552:                                                                                                  #        LOADTIME
001553:
001554:                                                                                                  #  NORMAL EXIT MODES
001555:                                                                                                  #        ASTRONAUT REQUEST THROUGH DSKY TO TERMINATE PROGRAM V 34 E
001556:
001557:                                                                                                  #  ALARM OR ABORT EXIT MODES
001558:                                                                                                  #        NONE
001559:
001560:                                                                                                  #  OUTPUT
001561:                                                                                                  #        DECIMAL DISPLAY OF TIME, Y, YDOT AND PSI
001562:
001563:                                                                                                  #        DISPLAYED VALUES Y, YDOT, AND PSI, ARE STORED IN ERASABLE
001564:                                                                                                  #        REGISTERS RANGE, RRATE AND RTHETA RESPECTIVELY.
001565:
001566:                                                                                                  #  ERASABLE INITIALIZATION REQUIRED
001567:                                                                                                  #        CSM AND LEM STATE VECTORS
001568:
001569:                                                                                                  #  DEBRIS
001570:                                                                                                  #        CENTRALS A,Q,L
001571:                                                                                                  #        OTHER THOSE USED BY THE ABOVE LISTED SUBROUTINES
001572:
001573: 20,2164                                           BANK     20
001574: 20,2000                                           SETLOC   R36CM
001575: 20,2000                                           BANK


001577: 20,2164  E4,1726                                  EBANK=   RPASS36
001578:
001579: 20,2164  41,3727                                  SBANK=   R36A
001580: 20,2164                                           COUNT*   $$/R36
001581:
001582: 20,2164           35016        R36                CAF      TWO
001583: 20,2165           55051                           TS       OPTIONX
001584: 20,2166           35017                           CAF      ONE
001585: 20,2167           55052                           TS       OPTIONX    +1
001586: 20,2170           32200                           CAF      OPTION36                              #  V 04 N 12
001587: 20,2171           04662                           TC       BANKCALL
001588: 20,2172           20561                           CADR     GOXDSPF
001589: 20,2173           05534                           TC       ENDEXT                                #  TERMINATE
001590: 20,2174           02176                           TC       +2                                    #  PROCEED
001591: 20,2175           02170                           TC       -5                                    #  R2 LOADED VIA DSKY
001592: 20,2176           04701                           TC       POSTJUMP
001593: 20,2177           63727                           CADR     R36A
001594:
001595: 20,2200           01014        OPTION36           VN       0412
001596:
001597: 41,2000                                           SETLOC   R36LM
001598: 41,2000                                           BANK
001599:
001600: 41,3727           22007        R36A               ZL
001601: 41,3730           35021                           CAF      ZERO                                  #  SET TIME OF EVENT TO ZERO FOR FIRST
001602: 41,3731           53052                           DXCH     DSPTEMX                               #  DISPLAY
001603: 41,3732           23742                           LXCH     OPTIONY                               #  SAVE VEH. OPTION
001604: 41,3733           33775        R36P3              CAF      V06N16N
001605: 41,3734           04662                           TC       BANKCALL
001606: 41,3735           20561                           CADR     GOMARKF
001607: 41,3736           15534                           TCF      ENDEXT                                #  TERMINATE
001608: 41,3737           13741                           TCF      +2                                    #  PROCEED
001609: 41,3740           13733                           TCF      -5                                    #  RECYCLE FOR ASTRONAUT INPUT TIME
001610: 41,3741           53052                           DXCH     DSPTEMX
001611: 41,3742           00006                           EXTEND
001612: 41,3743           13764                           BZF      LREGCHK                               #  A-REG ZERO GOTO CHECK L-REG FOR ZERO
001613: 41,3744           52155        ASTROTIM           DXCH     MPAC                                  #  A-REG NON-ZERO, TIME = ASTRO INPUT TIME
001614: 41,3745           06006                           TC       INTPRET
001615: 41,3746           52034                           RTB      GOTO
001616: 41,3747           45716                                    DPMODE
001617: 41,3750           65521                                    R36INT
001618:
001619: 42,2000                                           SETLOC   R36LM1
001620: 42,2000                                           BANK
001621:
001622: 42,3521           00041        R36INT             STORE    TDEC1
001623: 42,3522           70535                           SLOAD    SR1
001624: 42,3523           02343                                    OPTIONY
001625: 42,3524           45030                           BHIZ     CALL
001626: 42,3525           65531                                    R36PROG2                              #  FOR CSM DISPLAY


001628: 42,3526           27071                                    THISPREC                              #  FOR LEM DISPLAY
001629: 42,3527           77650                           GOTO
001630: 42,3530           65533                                    R36PROG3
001631: 42,3531           77624        R36PROG2           CALL
001632: 42,3532           27105                                    OTHPREC
001633: 42,3533           63375        R36PROG3           VLOAD    PDVL
001634: 42,3534           00007                                    VATT
001635: 42,3535           00001                                    RATT                                  #  -
001636: 42,3536           02327                           STORE    RPASS36                               #  R
001637: 42,3537           63256                           UNIT     PDVL                                  #   P
001638: 42,3540           53435                           VXV      UNIT                                  #  -
001639: 42,3541           77626                           STADR
001640: 42,3542           61442                           STODL    UNP36                                 #  U
001641: 42,3543           00015                                    TAT
001642: 42,3544           00041                           STORE    TDEC1
001643: 42,3545           70535                           SLOAD    SR1
001644: 42,3546           02343                                    OPTIONY
001645: 42,3547           45030                           BHIZ     CALL
001646: 42,3550           65554                                    R36PROG4                              #  FOR CSM DISPLAY
001647: 42,3551           27105                                    OTHPREC                               #  FOR LEM DISPLAY
001648: 42,3552           77650                           GOTO
001649: 42,3553           65556                                    R36PROG5
001650: 42,3554           77624        R36PROG4           CALL
001651: 42,3555           27071                                    THISPREC
001652: 42,3556           63375        R36PROG5           VLOAD    PDVL                                  #                        -
001653: 42,3557           00007                                    VATT                                  #  VELOCITY VECTOR       V       00D
001654: 42,3560           00001                                    RATT                                  #                         A
001655: 42,3561           77725                           PDDL
001656: 42,3562           00015                                    TAT                                   #  SAVE TIME IN LOCATION 30D FOR REDISPLAY
001657: 42,3563           24037                           STOVL    30D                                   #                   -
001658: 42,3564           41406                           PUSH     PUSH                                  #  POSITION VECTOR  R   IN  06D AND 12D
001659: 42,3565           63245                           BVSU     PDVL                                  #                    A  -   -
001660: 42,3566           02327                                    RPASS36                               #  LINE OF SIGHT VECTOR R - R       12D
001661: 42,3567           72441                           DOT      SL1                                   #                        P   A
001662: 42,3570           02335                                    UNP36                                 #      -   -
001663: 42,3571           26321                           STOVL    RANGE                                 #  Y = U . R
001664: 42,3572           00001                                    00D                                   #           A
001665: 42,3573           72441                           DOT      SL1
001666: 42,3574           02335                                    UNP36                                 #  .   -   -
001667: 42,3575           26323                           STOVL    RRATE                                 #  Y = U . V
001668: 42,3576           00007                                    06D                                   #  -        A  -
001669: 42,3577           41456                           UNIT     PUSH                                  #  U  = UNIT ( R  )              18D
001670: 42,3600           47235                           VXV      VXV                                   #   RA          A
001671: 42,3601           00001                                    00D                                   #   -    -     -     -
001672: 42,3602           00023                                    18D                                   #  (U  X V ) X U   = U
001673: 42,3603           53552                           VSL2     UNIT                                  #    RA   A     RA    A
001674: 42,3604           52056                           UNIT     GOTO
001675: 42,3605           61600                                    R36B
001676:
001677: 40,2000                                           SETLOC   R36CM1


001679: 40,2000                                           BANK
001680:
001681: 40,3600           24001        R36B               STOVL    00D                                   #  UNIT HORIZONTAL IN FORWARD DIR. 00D
001682: 40,3601           00023                                    18D
001683: 40,3602           74241                           DOT      VXSC                                  #  -
001684: 40,3603           00015                                    12D                                   #  U
001685: 40,3604           77752                           VSL2                                           #   L
001686: 40,3605           53445                           BVSU     UNIT
001687: 40,3606           77656                           UNIT
001688: 40,3607           50206                           PUSH     DOT                                   #  LOS PROJECTED INTO HORIZONTAL  12D
001689: 40,3610           00001                                    00D                                   #  PLANE
001690: 40,3611           65552                           SL1      ARCCOS                                #               -   -
001691: 40,3612           26325                           STOVL    RTHETA                                #  PSI = ARCCOS(U . U )
001692: 40,3613           50235                           VXV      DOT                                   #                A   L
001693: 40,3614           00001                                    00D
001694: 40,3615           71244                           BPL      DLOAD
001695: 40,3616           63751                                    R36TAG2
001696: 40,3617           15343                                    DPPOSMAX
001697: 40,3620           77625                           DSU
001698: 40,3621           02325                                    RTHETA
001699: 40,3622           36325                           STCALL   RTHETA
001700: 40,3623           63751                                    R36TAG2
001701:
001702: 41,2000                                           SETLOC   R36LM
001703: 41,2000                                           BANK
001704:
001705: 41,3751           47145        R36TAG2            DLOAD    RTB
001706: 41,3752           00037                                    30D
001707: 41,3753           45544                                    SGNAGREE
001708: 41,3754           01052                           STORE    DSPTEMX
001709: 41,3755           77776                           EXIT
001710: 41,3756           33776                           CAF      V06N90N                               #  DISPLAY Y, YDOT, AND PSI
001711: 41,3757           04662                           TC       BANKCALL
001712: 41,3760           20561                           CADR     GOMARKF
001713: 41,3761           15534                           TCF      ENDEXT                                #  TERMINATE
001714: 41,3762           15534                           TCF      ENDEXT                                #  PROCEED, END OF PROGRAM
001715: 41,3763           13733                           TCF      R36P3                                 #  REDISPLAY OUTPUT
001716: 41,3764           56001        LREGCHK            XCH      L
001717: 41,3765           00006                           EXTEND
001718: 41,3766           13771                           BZF      ENTTIM2                               #  L-REG ZERO, SET TIME = PRESENT TIME
001719: 41,3767           56001                           XCH      L                                     #  L-REG NON ZERO, TIME = ASTRO INPUT TIME
001720: 41,3770           13744                           TCF      ASTROTIM
001721: 41,3771           06006        ENTTIM2            TC       INTPRET
001722: 41,3772           52034                           RTB      GOTO
001723: 41,3773           45510                                    LOADTIME
001724: 41,3774           65521                                    R36INT
001725: 41,3775           01420        V06N16N            VN       00616
001726: 41,3776           01532        V06N90N            VN       00690
001727: 41,3777  30,2000                                  SBANK=   LOWSUPER

End of include-file P34-P35,_P74-P75.agc.  Parent file is MAIN.agc


