
Source Code


000002:                                                                                                  ## Copyright:   Public domain.
000003:                                                                                                  ## Filename:    P37,P70.agc
000004:                                                                                                  ## Purpose:     A section of Comanche revision 051.
000005:                                                                                                  ##              It is part of the reconstructed source code for the
000006:                                                                                                  ##              original release of the flight software for the Command
000007:                                                                                                  ##              Module's (CM) Apollo Guidance Computer (AGC) for Apollo 11.
000008:                                                                                                  ##              The code has been recreated from a copy of Comanche 055. It
000009:                                                                                                  ##              has been adapted such that the resulting bugger words
000010:                                                                                                  ##              exactly match those specified for Comanche 51 in NASA drawing
000011:                                                                                                  ##              2021153D, which gives relatively high confidence that the
000012:                                                                                                  ##              reconstruction is correct.
000013:                                                                                                  ## Reference:   pp. 890-933
000014:                                                                                                  ## Assembler:   yaYUL
000015:                                                                                                  ## Contact:     Ron Burkey <info@sandroid.org>.
000016:                                                                                                  ## Website:     www.ibiblio.org/apollo/index.html
000017:                                                                                                  ## Mod history: 2019-07-30 MAS  Created from Comanche 55.
000018:


000020: 31,3700                                           BANK     31
000021: 36,2000                                           SETLOC   RTE1
000022: 36,2000                                           BANK
000023:
000024: 36,2466  E7,1631                                  EBANK=   RTEDVD
000025: 36,2466                                           COUNT    31/P37
000026:
000027:                                                                                                  #  PROGRAM DESCRIPTION - P37, RETURN TO EARTH
000028:
000029:                                                                                                  #  DESCRIPTION
000030:                                                                                                  #        A RETURN TO EARTH TRAJECTORY IS COMPUTED PROVIDED THE CSM IS OUTSIDE THE LUNAR SPHERE OF INFLUENCE AT THE
000031:                                                                                                  #        TIME OF IGNITION.  INITIALLY A CONIC TRAJECTORY IS DETERMINED AND RESULTING IGNITION AND REENTRY PARAMETERS ARE
000032:                                                                                                  #        DISPLAYED TO THE ASTRONAUT.  THEN IF THE ASTRONAUT SO DESIRES, A PRECISION TRAJECTORY IS DETERMINED WITH THE
000033:                                                                                                  #        RESULTING IGNITION AND REENTRY PARAMETERS DISPLAYED.  UPON FINAL ACCEPTANCE BY THE ASTRONAUT, THE PROGRAM
000034:                                                                                                  #        COMPUTES AND STORES THE TARGET PARAMETERS FOR RETURN TO EARTH FOR USE BY SPS PROGRAM (P40) OR RCS PROGRAM (P41).
000035:
000036:                                                                                                  #  CALLING SEQUENCE
000037:                                                                                                  #        L       TC      P37
000038:
000039:                                                                                                  #  SUBROUTINES CALLED
000040:                                                                                                  #        PREC100
000041:                                                                                                  #                V2T100
000042:                                                                                                  #                RTENCK2
000043:                                                                                                  #                RTENCK3
000044:                                                                                                  #                TIMERAD
000045:                                                                                                  #                PARAM
000046:                                                                                                  #        V2T100
000047:                                                                                                  #                GAMDV10
000048:                                                                                                  #                XT1LIM
000049:                                                                                                  #                DVCALC
000050:                                                                                                  #        RTENCK1
000051:                                                                                                  #                INTSTALL
000052:                                                                                                  #                INTEGRVS
000053:                                                                                                  #        RTEVN
000054:                                                                                                  #                RTEDISP
000055:                                                                                                  #                TMRAD100
000056:                                                                                                  #                AUGEKUGL
000057:                                                                                                  #                LAT-LONG
000058:                                                                                                  #        TMRAD100
000059:                                                                                                  #                TIMERAD
000060:                                                                                                  #        INVC100
000061:                                                                                                  #                CSMPREC
000062:                                                                                                  #        GETERAD
000063:                                                                                                  #        TIMETHET
000064:                                                                                                  #        P370ALRM
000065:                                                                                                  #        VN1645
000066:                                                                                                  #        POLY
000067:
000068:                                                                                                  #  ERASABLE INITIALIZATION REQUIRED
000069:                                                                                                  #        CSM STATE VECTOR


000071:                                                                                                  #        NJETSFLG        NUMBER OF JETS IF THE RCS PROPULSION SYSTEM SELECTED    STATE FLAG      0=4 JETS  1=2 JETS
000072:
000073:                                                                                                  #  ASTRONAUT INPUT
000074:                                                                                                  #        SPRTETIG        TIME OF IGNITION (OVERLAYS TIG)                         DP      B28     CS
000075:                                                                                                  #        VPRED           DESIRED CHANGE IN VELOCITY AT TIG(PROGRM COMPUTED IF 0) DP      B7      METERS/CS
000076:                                                                                                  #        GAMMAEI         DESIRED FLIGHT PATH ANGLE AT REENTRY (COMPUTED IF 0)    DP      B0      REVS + ABOVE HORIZ.
000077:                                                                                                  #        OPTION2         PROPULSION SYSTEM OPTION                                SP      B14     1=SPS, 2=RCS
000078:
000079:                                                                                                  #  OUTPUT
000080:                                                                                                  #     CONIC OR PRECISION TRAJECTORY DISPLAY
000081:                                                                                                  #        VPRED           VELOCITY MAGNITUDE AT 400,000 FT. ENTRY ALTITUDE        DP      B7      METERS/CS
000082:                                                                                                  #        T3TOT4          TRANSIT TIME TO 400,000 FT. ENTRY ALTITUDE              DP      B28     CS
000083:                                                                                                  #        GAMMAEI         FLIGHT PATH ANGLE AT 400,000 FT. ENTRY ALTITUDE         DP      B0      REVS + ABOVE HORIZON
000084:                                                                                                  #        DELVLVC         INITIAL VELOCITY CHANGE VECTOR IN LOCAL VERTICAL COORD. VECTOR  B7      METERS/CS
000085:                                                                                                  #        LAT(SPL)        LATITUDE OF THE LANDING SITE                            DP      B0      REVS
000086:                                                                                                  #        LNG(SPL)        LONGITUDE OF THE LANDING SITE                           DP      B0      REVS
000087:                                                                                                  #     TARGETING COMPUTATION DISPLAY
000088:                                                                                                  #        TIG             RECOMPUTED TIG BASED ON THRUST OPTION                   DP      B28     CS
000089:                                                                                                  #        TTOGO           TIME FROM TIG                                           DP      B28     CS
000090:                                                                                                  #        +MGA            POSITIVE MIDDLE GIMBAL ANGLE                            DP      B0      REVS -.02 IF REFSMFLG=0
000091:                                                                                                  #     THRUST PROGRAM COMMUNICATION
000092:                                                                                                  #        XDELVFLG        EXTERNAL DELTA V FLAG                                   STATE   FLAG    SET 0 FOR LAMBERT AIMPT
000093:                                                                                                  #        NORMSW          LAMBERT AIMPT ROTATION SWITCH                           STATE   FLAG    SET 0 FOR NO ROTATION
000094:                                                                                                  #        ECSTEER         CROSS PRODUCT STEERING CONSTANT                         SP      B2      SET 1
000095:                                                                                                  #        RTARG           CONICALLY INTEGRATED REENTRY POSITION VECTOR            VECTOR  B29     METERS
000096:                                                                                                  #        TPASS4          REENTRY TIME                                            DP      B28     CS
000097:
000098: 36,2466           05412        P37                TC       PHASCHNG                              #  P37 IS NOT RESTARTABLE.
000099: 36,2467           00004                           OCT      4
000100:
000101: 36,2470           06006                           TC       INTPRET
000102: 36,2471           66170                           AXT,1    SXA,1
000103: 36,2472           04000                           OCT      04000
000104: 36,2473           03424                                    ECSTEER
000105: 36,2474           77745                           DLOAD
000106: 36,2475           15335                                    ZEROVECS
000107: 36,2476           03767                           STORE    VPRED
000108: 36,2477           03771                           STORE    GAMMAEI
000109: 36,2500           77776                           EXIT
000110: 36,2501           33246                           CAF      V6N33RTE                              #  INPUT TIG     STORED IN SPRTETIG
000111: 36,2502           03235                           TCR      P370GOF                               #                OVERLAYED WITH TIG
000112: 36,2503           12501                           TCF      -2                                    #  DESPLAY NEW DATA
000113: 36,2504           33252                           CAF      V6N60RTE                              #  INPUT REENTRY ANGLE IN GAMMAEI
000114: 36,2505           03211                           TCR      P37GFRB1                              #        AND DESIRED DELTA V IN RTEDVD
000115: 36,2506           12504                           TCF      -2                                    #  DISPLAY NEW DATA
000116: 36,2507           06006        RTE299             TC       INTPRET
000117: 36,2510           71331                           SSP      DLOAD
000118: 36,2511           00122                                    OVFIND
000119: 36,2512           00000                                    0
000120: 36,2513           03767                                    VPRED


000122: 36,2514           17632                           STODL    RTEDVD
000123: 36,2515           03771                                    GAMMAEI
000124: 36,2516           17634                           STODL    RTEGAM2D
000125: 36,2517           33514                                    1RTEB13
000126: 36,2520           17735                           STODL    CONICX1
000127: 36,2521           33620                                    C4RTE
000128: 36,2522           37652                           STCALL   MAMAX1
000129: 36,2523           64450                                    INVC100                               #  GET R(T1)/,V(T1)/,UR1/,UH/
000130: 36,2524           71214                           CLEAR    DLOAD
000131: 36,2525           02662                                    SLOWFLG
000132: 36,2526           03632                                    RTEDVD
000133: 36,2527           51444                           BPL      ABS
000134: 36,2530           74540                                    RTE317
000135: 36,2531           03632                           STORE    RTEDVD
000136: 36,2532           45345                           DLOAD    DSU
000137: 36,2533           03646                                    R(T1)
000138: 36,2534           33622                                    K1RTE
000139: 36,2535           43040                           BMN      SET
000140: 36,2536           74540                                    RTE317
000141: 36,2537           02462                                    SLOWFLG
000142: 36,2540           77545        RTE317             DLOAD    EXIT
000143: 36,2541           03646                                    R(T1)
000144: 36,2542           07171                           TC       POLY
000145: 36,2543           00002                           DEC      2          B-14
000146: 36,2544           02544 35436                     2DEC     181000434. B-31
000147: 36,2546           14040 05066                     2DEC     1.50785145 B-2
000148: 36,2550           44052 60030                     2DEC*    -6.49993057 E-9        B27*
000149: 36,2552           26415 25057                     2DEC*    9.76938926 E-18       B56*
000150: 36,2554           06006                           TC       INTPRET
000151: 36,2555           77752                           SL1
000152: 36,2556           17654                           STODL    MAMAX2                                #  C0+C1*R+C2*R**2+C3*R**3=MAMAX2 B30
000153: 36,2557           33544                                    M9RTEB28
000154: 36,2560           17730                           STODL    NN1A
000155: 36,2561           33624                                    K2RTE
000156: 36,2562           17636        RTE320             STODL    RCON                                  #  RCON=K2
000157: 36,2563           03634                                    RTEGAM2D
000158: 36,2564           44254                           BZE      BDSU
000159: 36,2565           74574                                    RTE340                                #  GOTORTE340 IF REENTRY ANGLE NOT INPUT
000160: 36,2566           33502                                    1RTEB2
000161: 36,2567           71406                           PUSH     COS                                   #                                        PL02D
000162: 36,2570           73525                           PDDL     SIN
000163: 36,2571           45465                           BDDV     STADR                                 #                                        PL00D
000164: 36,2572           40051                           STCALL   X(T2)                                 #  X(T2)=COT(GAM2D)                      B0
000165: 36,2573           74607                                    RTE360
000166: 36,2574           45345        RTE340             DLOAD    DSU
000167: 36,2575           03646                                    R(T1)


000169: 36,2576           33622                                    K1RTE
000170: 36,2577           71240                           BMN      DLOAD
000171: 36,2600           74604                                    RTE350
000172: 36,2601           33630                                    K4RTE
000173: 36,2602           37726                           STCALL   X(T2)                                 #  X(T2)=K4
000174: 36,2603           74607                                    RTE360
000175: 36,2604           77745        RTE350             DLOAD
000176: 36,2605           33626                                    K3RTE
000177: 36,2606           03726                           STORE    X(T2)                                 #  X(T2)=K3
000178: 36,2607           77624        RTE360             CALL
000179: 36,2610           65075                                    V2T100
000180: 36,2611           52054                           BZE      GOTO
000181: 36,2612           74614                                    RTE367
000182: 36,2613           74776                                    RTEALRM
000183: 36,2614           77775        RTE367             VLOAD
000184: 36,2615           03640                                    R(T1)/
000185: 36,2616           16657                           STODL    RVEC
000186: 36,2617           03636                                    RCON
000187: 36,2620           26760                           STOVL    RDESIRED
000188: 36,2621           03700                                    V2(T1)/
000189: 36,2622           36746                           STCALL   VVEC
000190: 36,2623           64277                                    TMRAD100
000191: 36,2624           77615                           DAD
000192: 36,2625           03716                                    T1
000193: 36,2626           17736                           STODL    T2
000194: 36,2627           03634                                    RTEGAM2D
000195: 36,2630           52054                           BZE      GOTO
000196: 36,2631           74633                                    RTE369
000197: 36,2632           74655                                    RTE372
000198: 36,2633           51575        RTE369             VLOAD    ABVAL
000199: 36,2634           03710                                    V(T2)/
000200: 36,2635           77776                           EXIT
000201: 36,2636           07171                           TC       POLY
000202: 36,2637           00002                           DEC      2          B-14
000203: 36,2640           00000 00000                     2DEC     0          B-28
000204: 36,2642           47021 65002                     2DEC     -4.8760771 E-2        B4
000205: 36,2644           35610 07722                     2DEC     4.5419476  E-4        B11
000206: 36,2646           63772 63276                     2DEC     -1.4317675 E-6        B18
000207:
000208: 36,2650           06006                           TC       INTPRET
000209: 36,2651           77615                           DAD
000210: 36,2652           01352                                    RTED1
000211: 36,2653           52052                           SL3      GOTO                                  #  X(T2),=D1+D2V2+D3V2**2+D4V2**3
000212: 36,2654           74657                                    RTE373
000213: 36,2655           77745        RTE372             DLOAD                                          #  X(T2),=X(T2)
000214: 36,2656           03726                                    X(T2)
000215: 36,2657           41425        RTE373             DSU      PUSH                                  #  X(T2)ERR                              B0 PL02D


000217: 36,2660           03726                                    X(T2)
000218: 36,2661           53575                           VLOAD    UNIT
000219: 36,2662           03656                                    R(T2)/                                #                                        B58
000220: 36,2663           36152                           STCALL   ALPHAV
000221: 36,2664           26505                                    GETERAD
000222: 36,2665           77615                           DAD
000223: 36,2666           33634                                    E3RTE
000224: 36,2667           45206                           PUSH     DSU                                   #  RCON,=(E1/(1+E2BETA11)**.5)+E3        B29 PL04D
000225: 36,2670           03636                                    RCON
000226: 36,2671           45246                           ABS      DSU
000227: 36,2672           33600                                    EPC2RTE
000228: 36,2673           52040                           BMN      GOTO
000229: 36,2674           74676                                    RTE374
000230: 36,2675           74703                                    RTE375
000231: 36,2676           51545        RTE374             DLOAD    ABS
000232: 36,2677           00001                                    00D
000233: 36,2700           50025                           DSU      BMN
000234: 36,2701           33602                                    EPC3RTE
000235: 36,2702           74753                                    P37E
000236: 36,2703           43345        RTE375             DLOAD    DAD
000237: 36,2704           03730                                    NN1A
000238: 36,2705           33522                                    1RTEB28
000239: 36,2706           67240                           BMN      SLOAD
000240: 36,2707           74713                                    RTE380
000241: 36,2710           33562                                    OCT605
000242: 36,2711           77650                           GOTO
000243: 36,2712           74776                                    RTEALRM                               #  TOO MANY ITERATIONS
000244: 36,2713           03730        RTE380             STORE    NN1A
000245: 36,2714           53025                           DSU      BZE
000246: 36,2715           33546                                    M8RTEB28
000247: 36,2716           74734                                    RTE385
000248: 36,2717           45345                           DLOAD    DSU
000249: 36,2720           00001                                    00D
000250: 36,2721           03666                                    DRCON
000251: 36,2722           65301                           NORM     PDDL                                  #  X(T2)ERR-X(T2)ERR,=Z1                 PL06D
000252: 36,2723           00047                                    X1
000253: 36,2724           03670                                    RPRE'
000254: 36,2725           56225                           DSU      DDV                                   #  X(T2)PRI-X(T2)=Z2                     PL04D
000255: 36,2726           03726                                    X(T2)
000256: 36,2727           53605                           DMP      SL*                                   #  DX(T2)=X(T2)ERR(Z2/Z1)
000257: 36,2730           00001                                    00D
000258: 36,2731           20201                                    0,1
000259: 36,2732           77650                           GOTO
000260: 36,2733           74736                                    RTE390
000261: 36,2734           77745        RTE385             DLOAD                                          #  DX(T2)=X(T2)ERR
000262: 36,2735           00001                                    00D
000263: 36,2736           14021        RTE390             STODL    16D                                   #  DX(T2)                                PL02D
000264: 36,2737           77626                           STADR
000265: 36,2740           60141                           STODL    RCON                                  #  RCON=RCON,
000266: 36,2741           77600                           BOV


000268: 36,2742           74607                                    RTE360
000269: 36,2743           17666                           STODL    DRCON                                 #  X(T2)ERR,=X(T2)ERR
000270: 36,2744           03726                                    X(T2)
000271: 36,2745           17670                           STODL    RPRE'                                 #  X(T2)PRI=X(T2)
000272: 36,2746           00021                                    16D
000273: 36,2747           77615                           DAD
000274: 36,2750           03726                                    X(T2)
000275: 36,2751           37726                           STCALL   X(T2)                                 #  X(T2)=X(T2)+DX(T2)
000276: 36,2752           74607                                    RTE360                                #  REITERATE
000277: 36,2753           77624        P37E               CALL                                           #  DISPLAY CONIC SOLUTION
000278: 36,2754           75002                                    RTEVN
000279: 36,2755           41345        RTE505             DLOAD    DMP
000280: 36,2756           03720                                    PCON
000281: 36,2757           03754                                    BETA1
000282: 36,2760           53021                           BDSU     BZE
000283: 36,2761           03636                                    RCON
000284: 36,2762           74770                                    RTE510
000285: 36,2763           71240                           BMN      DLOAD
000286: 36,2764           74770                                    RTE510
000287: 36,2765           33502                                    1RTEB2
000288: 36,2766           77650                           GOTO                                           #  ENTRY NEAR APOGEE
000289: 36,2767           74772                                    RTE515
000290: 36,2770           57545        RTE510             DLOAD    DCOMP                                 #  ENTRY NEAR PERIGEE
000291: 36,2771           33502                                    1RTEB2
000292: 36,2772           37761        RTE515             STCALL   PHI2
000293: 36,2773           64541                                    PREC100                               #  PRECISION TRAJECTORY COMPUTATION
000294: 36,2774           77654        RTE625             BZE
000295: 36,2775           75030                                    P37G
000296: 36,2776           77624        RTEALRM            CALL
000297: 36,2777           64262                                    P370ALRM
000298: 36,3000           77776                           EXIT
000299: 36,3001           12466                           TCF      P37                                   #  RECYCLE AFTER ALARM DISPLAY
000300:
000301:                                                                                                  #  RETURN TO EARTH DISPLAY SUBROUTINE
000302:
000303: 36,3002           45020        RTEVN              STQ      CALL
000304: 36,3003           03763                                    VNSTORE
000305: 36,3004           64316                                    RTEDISP                               #  DISPLAY PREPARATION
000306: 36,3005           77776                           EXIT
000307: 36,3006           33250                           CAF      V6N61RTE                              #  LATITUDE,LONGITUDE,BLANK
000308: 36,3007           03221                           TCR      P370GOFR                              #    IN LAT(SPL),LNG(SPL),-
000309: 36,3010           35015                           CAF      FOUR
000310: 36,3011           03215                           TCR      37BLANK    +1
000311: 36,3012           13017                           TCF      +5
000312: 36,3013           12466                           TCF      P37                                   #  RECYCLE
000313: 36,3014           33251                           CAF      V6N39RTE                              #  T21 HRS,MIN,SEC IN T3TOT4
000314: 36,3015           03235                           TCR      P370GOF
000315: 36,3016           12466                           TCF      P37                                   #  RECYCLE
000316: 36,3017           33252                           CAF      V6N60RTE                              #  DISPLAY BLANK,V(T2),FPA2
000317: 36,3020           03211                           TCR      P37GFRB1                              #    IN -,VPRED,GAMMAEI


000319: 36,3021           12466                           TCF      P37                                   #  RECYCLE
000320: 36,3022           33253                           CAF      V6N81RTE                              #  DISPLAY DELTA V (LV) IN DELVLVC
000321: 36,3023           03235                           TCR      P370GOF
000322: 36,3024           12466                           TCF      P37                                   #  RECYCLE
000323: 36,3025           06006                           TCR      INTPRET
000324: 36,3026           77650                           GOTO
000325: 36,3027           03763                                    VNSTORE
000326:
000327:                                                                                                  #  PRECISION DISPLAY, TARGETING COMPUTATION AND RTE END PROCESSING
000328:
000329: 36,3030           77624        P37G               CALL
000330: 36,3031           75002                                    RTEVN
000331: 36,3032           77776                           EXIT
000332: 36,3033           35023        P37N               CAF      SEVEN
000333: 36,3034           55131                           TS       OPTION1
000334: 36,3035           35017                           CAF      ONE
000335: 36,3036           55132                           TS       OPTION2
000336: 36,3037           33247                           CAF      V4N06RTE                              #  DISPLAY RCS OR SPS OPTION  SPS ASSUMED
000337: 36,3040           03235                           TCR      P370GOF
000338: 36,3041           13037                           TCF      -2                                    #  RECYCLE
000339: 36,3042           06006                           TC       INTPRET                               #  PROCEED
000340: 36,3043           67201                           SETPD    SLOAD
000341: 36,3044           00001                                    00D
000342: 36,3045           01133                                    OPTION2
000343: 36,3046           53025                           DSU      BZE
000344: 36,3047           33514                                    1RTEB13
000345: 36,3050           75057                                    P37Q
000346: 36,3051           60335                           SLOAD    NORM                                  #  SPS
000347: 36,3052           00111                                    EMDOT
000348: 36,3053           00047                                    X1
000349: 36,3054           52125                           PDDL     GOTO
000350: 36,3055           33552                                    VCSPS
000351: 36,3056           75070                                    P37T
000352: 36,3057           43145        P37Q               DLOAD    BON                                   #  RCS
000353: 36,3060           33556                                    MDOTRCS
000354: 36,3061           00700                                    NJETSFLG
000355: 36,3062           75064                                    P37R
000356: 36,3063           77752                           SL1
000357: 36,3064           77752        P37R               SL1
000358: 36,3065           65301                           NORM     PDDL
000359: 36,3066           00047                                    X1
000360: 36,3067           33554                                    VCRCS
000361: 36,3070           56325        P37T               PDDL     DDV                                   #  DV/VC                 B7 -B5 = B2     PL02D
000362: 36,3071           03706                                    DV
000363: 36,3072           77776                           EXIT
000364: 36,3073           07171                           TC       POLY
000365: 36,3074           00001                           DEC      1          B-14
000366: 36,3075           00001 05070                     2DEC     5.66240507 E-4        B-3
000367: 36,3077           17527 36700                     2DEC     9.79487897 E-1        B-1


000369: 36,3101           47114 70670                     2DEC     -.388281955 B1
000370: 36,3103           06006                           TC       INTPRET
000371: 36,3104           67206                           PUSH     SLOAD                                 #  (1-E)**(-DV/VC)=A             B3      PL04D
000372: 36,3105           03076                                    WEIGHT/G
000373: 36,3106           56205                           DMP      DDV                                   #  DTB=(M0/MDOT)A        B16+B3-B3=B16   PL00D
000374: 36,3107           41257                           SL*      DMP
000375: 36,3110           20165                                    0          -12D,1
000376: 36,3111           33560                                    CSUBT
000377: 36,3112           77621                           BDSU
000378: 36,3113           03716                                    T1
000379: 36,3114           03413                           STORE    TIG                                   #  TIG=T1-CT*DTB                 B28
000380: 36,3115           77776                           EXIT
000381: 36,3116           33246                           CAF      V6N33RTE                              #  DISPLAY BIASED TIG
000382: 36,3117           03235                           TCR      P370GOF
000383: 36,3120           13116                           TCF      -2
000384: 36,3121           35021                           CAF      ZERO
000385: 36,3122           55125                           TS       VHFCNT
000386: 36,3123           55126                           TS       TRKMKCNT
000387: 36,3124           06006                           TC       INTPRET
000388: 36,3125           77624                           CALL                                           #  CONICALLY INTEGRATE FROM R1,V1 OVER T12
000389: 36,3126           63700                                    RTENCK1
000390: 36,3127           53575                           VLOAD    UNIT                                  #                                        PL00D
000391: 36,3130           03656                                    R(T2)/
000392: 36,3131           74315                           PDVL     VXSC                                  #  UR2                           B1      PL06D
000393: 36,3132           03740                                    UR1/
000394: 36,3133           33564                                    MCOS7.5
000395: 36,3134           74315                           PDVL     VXSC                                  #  -UR1(COS7.5)                  B1      PL12D
000396: 36,3135           03746                                    UH/
000397: 36,3136           33566                                    MSIN7.5
000398: 36,3137           50255                           VAD      DOT                                   #  K/=-UR1(COS7.5)-UH(SIN7.5)    B2      PL00D
000399: 36,3140           50015                           DAD      BMN
000400: 36,3141           33570                                    MCOS22.5
000401: 36,3142           75167                                    P37W
000402: 36,3143           50375                           VLOAD    DOT                                   #  K/ . UR2 GR COS22.5
000403: 36,3144           03746                                    UH/
000404: 36,3145           03656                                    R(T2)/
000405: 36,3146           71240                           BMN      DLOAD
000406: 36,3147           75153                                    P37U
000407: 36,3150           33572                                    THETA165
000408: 36,3151           52006                           PUSH     GOTO
000409: 36,3152           75155                                    P37V
000410: 36,3153           41545        P37U               DLOAD    PUSH
000411: 36,3154           33574                                    THETA210
000412: 36,3155           77756        P37V               SIN
000413: 36,3156           16732                           STODL    SNTH
000414: 36,3157           43146                           COS      CLEAR
000415: 36,3160           03666                                    RVSW
000416: 36,3161           26734                           STOVL    CSTH
000417: 36,3162           03640                                    R(T1)/


000419: 36,3163           26657                           STOVL    RVEC
000420: 36,3164           03700                                    V2(T1)/
000421: 36,3165           36746                           STCALL   VVEC
000422: 36,3166           24744                                    TIMETHET
000423: 36,3167           43014        P37W               CLEAR    CLEAR
000424: 36,3170           01267                                    XDELVFLG
000425: 36,3171           03665                                    NORMSW
000426: 36,3172           77214                           SET      VLOAD
000427: 36,3173           01071                                    FINALFLG
000428: 36,3174           77626                           STADR
000429: 36,3175           60362                           STODL    RTARG
000430: 36,3176           00037                                    T
000431: 36,3177           77615                           DAD
000432: 36,3200           03716                                    T1
000433: 36,3201           27656                           STOVL    TPASS4
000434: 36,3202           03700                                    V2(T1)/
000435: 36,3203           77651                           VSU
000436: 36,3204           03672                                    V(T1)/
000437: 36,3205           37646                           STCALL   DELVSIN
000438: 36,3206           73002                                    VN1645
000439: 36,3207           77650                           GOTO
000440: 36,3210           75167                                    P37W
000441:
000442:                                                                                                  #  SUBROUTINE TO GO TO GOFLASHR AND BLANK R1
000443:
000444: 36,3211           00006        P37GFRB1           EXTEND
000445: 36,3212           23762                           QXCH     SPRTEX
000446: 36,3213           03221                           TCR      P370GOFR
000447: 36,3214           35017        37BLANK            CAF      ONE
000448: 36,3215           05526                           TCR      BLANKET
000449: 36,3216           15217                           TCF      ENDOFJOB
000450: 36,3217           01762                           TC       SPRTEX                                #  RECYCLE
000451: 36,3220           13244                           TCF      P37PROC                               #  PROCEED
000452:
000453:                                                                                                  #  SUBROUTINE TO GO TO GOFLASHR
000454:
000455: 36,3221           00006        P370GOFR           EXTEND
000456: 36,3222           23733                           QXCH     RTENCKEX
000457: 36,3223           04662                           TCR      BANKCALL
000458: 36,3224           21057                           CADR     GOFLASHR
000459: 36,3225           14106                           TCF      GOTOPOOH                              #  TERMINATE
000460: 36,3226           13231                           TCF      +3
000461: 36,3227           13233                           TCF      +4
000462: 36,3230           01733                           TC       RTENCKEX                              #  IMMEDIATE RETURN
000463: 36,3231           51733                           INDEX    RTENCKEX                              #  PROCEED
000464: 36,3232           10004                           TCF      0          +4
000465: 36,3233           51733                           INDEX    RTENCKEX                              #  RECYCLE
000466: 36,3234           10003                           TCF      0          +3
000467:
000468:                                                                                                  #  SUBROUTINE TO GO TO GOFLASH
000469:


000471: 36,3235           00006        P370GOF            EXTEND
000472: 36,3236           23762                           QXCH     SPRTEX
000473: 36,3237           04662                           TCR      BANKCALL
000474: 36,3240           20720                           CADR     GOFLASH
000475: 36,3241           14106                           TCF      GOTOPOOH
000476: 36,3242           13244                           TCF      +2
000477: 36,3243           01762                           TC       SPRTEX
000478: 36,3244           51762        P37PROC            INDEX    SPRTEX
000479: 36,3245           10001                           TCF      0          +1
000480: 36,3246           01441        V6N33RTE           VN       0633
000481: 36,3247           01006        V4N06RTE           VN       0406
000482: 36,3250           01475        V6N61RTE           VN       0661
000483: 36,3251           01447        V6N39RTE           VN       0639
000484: 36,3252           01474        V6N60RTE           VN       0660
000485: 36,3253           01521        V6N81RTE           VN       0681
000486: 32,2262                                           BANK     32
000487: 32,2000                                           SETLOC   RTE
000488: 32,2000                                           BANK
000489: 32,2262                                           COUNT    32/RTE
000490:


000492:                                                                                                  #  ALARM DISPLAY SUBROUTINE
000493:
000494: 32,2262           77420        P370ALRM           STQ      EXIT
000495: 32,2263           03762                                    SPRTEX
000496: 32,2264           30154                           CA       MPAC
000497: 32,2265           05764                           TC       VARALARM
000498: 32,2266           32276                           CAF      V5N09RTE
000499: 32,2267           04662                           TC       BANKCALL
000500: 32,2270           20720                           CADR     GOFLASH
000501: 32,2271           14106                           TCF      GOTOPOOH
000502: 32,2272           12266                           TCF      -4
000503: 32,2273           06006                           TC       INTPRET
000504: 32,2274           77650                           GOTO
000505: 32,2275           03762                                    SPRTEX
000506: 32,2276           01211        V5N09RTE           VN       0509
000507:


000509:                                                                                                  #  TIME RADIUS CALLING SUBROUTINE
000510:
000511:                                                                                                  #  INPUT
000512:                                                                                                  #        RVEC            INITIAL POSITION VECTOR                                 VECTOR  B29     METERS
000513:                                                                                                  #        VVEC            INITIAL VELOCITY VECTOR                                 VECTOR  B7      METERS/CS
000514:                                                                                                  #        RDESIRED        FINAL RADIUS FOR WHICH TRANSFER TIME IS TO BE COMPUTED  DP      B29     METERS
000515:                                                                                                  #        CONICX1         X1 SETTING FOR CONIC SUBROUTINES  -2=EARTH              SP      B14
000516:
000517:                                                                                                  #  OUTPUT
000518:                                                                                                  #        R(T2)/          FINAL POSITION VECTOR                                   VECTOR  B29     METERS
000519:                                                                                                  #        V(T2)/          FINAL VELOCITY VECTOR                                   VECTOR  B7      METERS/CS
000520:                                                                                                  #        T12             TRANSFER TIME TO FINAL RADIUS                           DP      B28     CS
000521:
000522: 32,2277           43020        TMRAD100           STQ      CLEAR
000523: 32,2300           03733                                    RTENCKEX
000524: 32,2301           03666                                    RVSW
000525: 32,2302           67164                           AXC,2    SXA,2
000526: 32,2303           20000                           OCT      20000
000527: 32,2304           02756                                    SGNRDOT
000528: 32,2305           45140                           LXC,1    CALL
000529: 32,2306           03734                                    CONICX1
000530: 32,2307           25556                                    TIMERAD
000531: 32,2310           27710                           STOVL    V(T2)/                                #                                        PL00D
000532: 32,2311           77626                           STADR
000533: 32,2312           60121                           STODL    R(T2)/
000534: 32,2313           00037                                    T
000535: 32,2314           37724                           STCALL   T12
000536: 32,2315           03733                                    RTENCKEX
000537:


000539:                                                                                                  #  DISPLAY CALCULATION SUBROUTINE
000540:
000541:                                                                                                  #  DESCRIPTION
000542:                                                                                                  #        OUTPUT FOR DISPLAY IS CONVERTED TO PROPER UNITS AND PLACED IN OUTPUT STORAGE REGISTERS.  LANDING SITE
000543:                                                                                                  #        COMPUTATION FOR DETERMINING LANDING SITE LATITUDE AND LONGITUDE IS INCLUDED IN THE ROUTINE.
000544:
000545:                                                                                                  #  CALLING SEQUENCE
000546:                                                                                                  #        L       CALL
000547:                                                                                                  #        L+1             RTEDISP
000548:
000549:                                                                                                  #  SUBROUTINES CALLED
000550:                                                                                                  #        TMRAD100
000551:                                                                                                  #        AUGEKUGL
000552:                                                                                                  #        LAT-LONG
000553:
000554:                                                                                                  #  ERASABLE INITIALIZATION REQUIRED
000555:                                                                                                  #     PUSHLIST
000556:                                                                                                  #        NONE
000557:                                                                                                  #     MPAC
000558:                                                                                                  #        NONE
000559:                                                                                                  #     OTHER
000560:                                                                                                  #        R(T2)/          FINAL POSITION VECTOR                                   VECTOR  B29     METERS
000561:                                                                                                  #        V(T2)/          FINAL VELOCITY VECTOR                                   VECTOR  B7      METERS/CS
000562:                                                                                                  #        T2              FINAL TIME                                              DP      B28     CS
000563:                                                                                                  #        V2(T1)/         POST IMPULSE INITIAL VELOCITY VECTOR                    VECTOR  B7      METERS/CS
000564:                                                                                                  #        V(T1)/          INITIAL VELOCITY VECTOR                                 VECTOR  B7      METERS/CS
000565:                                                                                                  #        UR1/            UNIT INITIAL VECTOR                                     VECTOR  B1
000566:                                                                                                  #        UH/             UNIT HORIZONTAL VECTOR                                  VECTOR  B1
000567:
000568:                                                                                                  #  OUTPUT
000569:                                                                                                  #        VPRED           VELOCITY MAGNITUDE AT 400,000 FT. ENTRY ALTITUDE        DP      B7      METERS/CS
000570:                                                                                                  #        T3TOT4          TRANSIT TIME TO 400,000 FT. ENTRY ALTITUDE              DP      B28     CS
000571:                                                                                                  #        GAMMAEI         FLIGHT PATH ANGLE AT 400,000 FT. ENTRY ALTITUDE         DP      B0      REVS + ABOVE HORIZ
000572:                                                                                                  #        DELVLVC         INITIAL VELOCITY CHANGE VECTOR IN LOCAL VERTICAL COORD. VECTOR  B7      METERS/CS
000573:                                                                                                  #        LAT(SPL)        LATITUDE OF THE LANDING SITE                            DP      B0      REVS
000574:                                                                                                  #        LNG(SPL)        LONGITUDE OF THE LANDING SITE                           DP      B0      REVS
000575:
000576: 32,2316           77220        RTEDISP            STQ      VLOAD                                 #  DISPLAY
000577: 32,2317           03762                                    SPRTEX
000578: 32,2320           03710                                    V(T2)/
000579: 32,2321           65256                           UNIT     PDDL
000580: 32,2322           00045                                    36D
000581: 32,2323           17767                           STODL    VPRED                                 #  V(T2)
000582: 32,2324           03736                                    T2
000583: 32,2325           77625                           DSU
000584: 32,2326           03413                                    SPRTETIG
000585: 32,2327           26641                           STOVL    T3TOT4                                #  T21
000586: 32,2330           03656                                    R(T2)/
000587: 32,2331           50256                           UNIT     DOT
000588: 32,2332           77752                           SL1
000589:


000591: 32,2333           44326                           ARCCOS   BDSU
000592: 32,2334           33502                                    1RTEB2
000593: 32,2335           27771                           STOVL    GAMMAEI                               #  FLIGHT PATH ANGLE T2
000594: 32,2336           03700                                    V2(T1)/
000595: 32,2337           41451                           VSU      PUSH
000596: 32,2340           03672                                    V(T1)/
000597: 32,2341           57441                           DOT      DCOMP
000598: 32,2342           03740                                    UR1/
000599: 32,2343           41515                           PDVL     PUSH
000600: 32,2344           63345                           DLOAD    PDVL
000601: 32,2345           33524                                    ZERORTE
000602: 32,2346           55441                           DOT      VDEF
000603: 32,2347           03746                                    UH/
000604: 32,2350           77772                           VSL1
000605: 32,2351           17405                           STODL    DELVLVC
000606: 32,2352           03405                                    DELVLVC
000607: 32,2353           57414                           BOFF     DCOMP
000608: 32,2354           02741                                    RETROFLG
000609: 32,2355           64357                                    RTD18
000610: 32,2356           03405                           STORE    DELVLVC                               #  NEGATE X COMPONENT, RETROGRADE
000611: 32,2357           51575        RTD18              VLOAD    ABVAL
000612: 32,2360           03405                                    DELVLVC
000613: 32,2361           27773                           STOVL    VGDISP
000614: 32,2362           03656                                    R(T2)/
000615: 32,2363           02657                           STORE    RVEC                                  #  ***** LANDING SITE COMPUTATION *****
000616: 32,2364           45246                           ABVAL    DSU
000617: 32,2365           33550                                    30480RTE
000618: 32,2366           26760                           STOVL    RDESIRED
000619: 32,2367           03710                                    V(T2)/
000620: 32,2370           36746                           STCALL   VVEC
000621: 32,2371           64277                                    TMRAD100                              #  R3,V3,T23 FROM TIMERAD
000622: 32,2372           53575                           VLOAD    UNIT
000623: 32,2373           03656                                    R(T2)/
000624: 32,2374           53515                           PDVL     UNIT                                  #  UR3                                   PL06D
000625: 32,2375           03710                                    V(T2)/
000626: 32,2376           72441                           DOT      SL1                                   #  GAMMAE=ARCSIN(UR3 . UV3)              PL00D
000627: 32,2377           65336                           ARCSIN   PDDL                                  #  V(T3)                                 PL02D
000628: 32,2400           00045                                    36D
000629: 32,2401           51525                           PDDL     ABS
000630: 32,2402           45006                           PUSH     CALL                                  #  /GAMMAE/                              PL04D
000631: 32,2403           64075                                    AUGEKUGL                              #  PHIE                                  PL06D
000632: 32,2404           43215                           DAD      DAD
000633: 32,2405           03724                                    T12                                   #  T23
000634: 32,2406           03736                                    T2
000635: 32,2407           00003                           STORE    02D                                   #  T(LS)=T2&T23&TE
000636: 32,2410           53135                           SLOAD    BZE
000637: 32,2411           03377                                    P37RANGE
000638: 32,2412           64414                                    RTD22
000639: 32,2413           00005                           STORE    04D                                   #  OVERRIDE RANGE (PCR 261)
000640: 32,2414           73545        RTD22              DLOAD    SIN
000641:


000643: 32,2415           00005                                    04D
000644: 32,2416           17403                           STODL    LNG(SPL)                              #  LNG(SPL)=SIN(PHIE)                    PL04D
000645: 32,2417           77746                           COS
000646: 32,2420           03401                           STORE    LAT(SPL)                              #  LAT(SPL)=COS(PHIE)
000647: 32,2421           53575                           VLOAD    UNIT
000648: 32,2422           03656                                    R(T2)/
000649: 32,2423           41406                           PUSH     PUSH
000650: 32,2424           53515                           PDVL     UNIT                                  #                                        PL22D
000651: 32,2425           03710                                    V(T2)/
000652: 32,2426           47315                           PDVL     VXV
000653: 32,2427           53435                           VXV      UNIT                                  #  UH3=UNIT(UR3 X UV3 X UR3)             PL10D
000654: 32,2430           63361                           VXSC     PDVL
000655: 32,2431           03403                                    LNG(SPL)
000656: 32,2432           53361                           VXSC     VAD                                   #                                        PL04D
000657: 32,2433           03401                                    LAT(SPL)
000658: 32,2434           43014                           CLEAR    CLEAR                                 #  T(LS) IN MPAC
000659: 32,2435           00662                                    ERADFLAG
000660: 32,2436           01663                                    LUNAFLAG
000661: 32,2437           16152                           STODL    ALPHAV                                #  ALPHAV=UR3(COSPHIE)+UH3(SINPHIE)      PL02D
000662: 32,2440           77624                           CALL
000663: 32,2441           26370                                    LAT-LONG
000664: 32,2442           77745                           DLOAD
000665: 32,2443           01104                                    LAT
000666: 32,2444           17401                           STODL    LAT(SPL)                              #  LATITUDE LANDING SITE  *****
000667: 32,2445           01106                                    LONG
000668: 32,2446           37403                           STCALL   LNG(SPL)                              #  LONGITUDE LANDING SITE *****
000669: 32,2447           03762                                    SPRTEX
000670: 32,2450                                           COUNT*   $$/RTE
000671:


000673:                                                                                                  #  INITIAL VECTOR SUBROUTINE
000674:
000675:                                                                                                  #  DESCRIPTION
000676:                                                                                                  #        A PRECISION INTEGRATION OF THE STATE VECTOR TO THE TIME OF IGNITION IS PERFORMED. PRECOMPUTATIONS OCCUR.
000677:
000678:                                                                                                  #  CALLING SEQUENCE
000679:                                                                                                  #        L       CALL
000680:                                                                                                  #        L+1             INVC100
000681:
000682:                                                                                                  #  NORMAL EXIT MODE
000683:                                                                                                  #        AT L+2 OF CALLING SEQUENCE WITH MPAC = 0
000684:
000685:                                                                                                  #  ALARM EXIT MODE
000686:                                                                                                  #        AT L+2 OF CALLING SEQUENCE WITH MPAC = OCTAL 612 FOR STATE VECTOR IN MOONS SPHERE OF INFLUENCE
000687:
000688:                                                                                                  #  SUBROUTINES CALLED
000689:                                                                                                  #        CSMPREC
000690:
000691:                                                                                                  #  ERASABLE INITIALIZATION REQUIRED
000692:                                                                                                  #     PUSHLIST
000693:                                                                                                  #        NONE
000694:                                                                                                  #     MPAC
000695:                                                                                                  #        NONE
000696:                                                                                                  #     OTHER
000697:                                                                                                  #        SPRTETIG        TIME OF IGNITION                                        DP      B28     CS
000698:                                                                                                  #        CSM STATE VECTOR
000699:
000700:                                                                                                  #  OUTPUT
000701:                                                                                                  #        R(T1)/          INITIAL POSITION VECTOR AT TIG                          VECTOR  B29     METERS
000702:                                                                                                  #        V(T1)/          INITIAL VELOCITY VECTOR AT TIG                          VECTOR  B7      METERS/CS
000703:                                                                                                  #        T1              INITIAL VECTOR TIME (TIG)                               DP      B28     CS
000704:                                                                                                  #        UR1/            UNIT INITIAL VECTOR                                     VECTOR  B1
000705:                                                                                                  #        UH/             UNIT HORIZONTAL VECTOR                                  VECTOR  B1
000706:                                                                                                  #        CFPA            COSINE OF INITIAL FLIGHT PATH ANGLE                     DP      B1
000707:
000708: 32,2450           71220        INVC100            STQ      DLOAD
000709: 32,2451           03762                                    SPRTEX
000710: 32,2452           03413                                    SPRTETIG
000711: 32,2453           34041                           STCALL   TDEC1
000712: 32,2454           27071                                    CSMPREC                               #  PRECISION INTEGRATION  R0,V0 TO R1,V1
000713: 32,2455           67175                           VLOAD    SXA,2
000714: 32,2456           00001                                    RATT
000715: 32,2457           03755                                    P(T1)
000716: 32,2460           27640                           STOVL    R(T1)/
000717: 32,2461           00007                                    VATT
000718: 32,2462           17672                           STODL    V(T1)/
000719: 32,2463           00015                                    TAT
000720: 32,2464           03716                           STORE    T1
000721: 32,2465           53135                           SLOAD    BZE
000722: 32,2466           03756                                    P(T1)


000724: 32,2467           64473                                    INVC109
000725: 32,2470           52135        INVC107            SLOAD    GOTO
000726: 32,2471           33563                                    OCT612
000727: 32,2472           74776                                    RTEALRM                               #  R1,V1 NOT IN PROPER SPHERE OF INFLUENCE
000728: 32,2473           53575        INVC109            VLOAD    UNIT
000729: 32,2474           03640                                    R(T1)/
000730: 32,2475           17740                           STODL    UR1/                                  #  UR1/                                  B1
000731: 32,2476           00045                                    36D
000732: 32,2477           27646                           STOVL    R(T1)                                 #  R(T1)                                 B29
000733: 32,2500           03672                                    V(T1)/
000734: 32,2501           77656                           UNIT
000735: 32,2502           03746                           STORE    UV1/
000736: 32,2503           72441                           DOT      SL1
000737: 32,2504           03740                                    UR1/
000738: 32,2505           03757                           STORE    CFPA                                  #  CFPA                                  B1
000739: 32,2506           45246                           ABS      DSU
000740: 32,2507           33576                                    EPC1RTE
000741: 32,2510           71240                           BMN      DLOAD
000742: 32,2511           64520                                    INVC115                               #  NOT NEAR RECTILINEAR
000743: 32,2512           33502                                    1RTEB2
000744: 32,2513           41525                           PDDL     PUSH
000745: 32,2514           33524                                    ZERORTE
000746: 32,2515           41466                           VDEF     PUSH                                  #  N/ = (0,0,1)
000747: 32,2516           77650                           GOTO
000748: 32,2517           64524                                    INVC120
000749: 32,2520           47375        INVC115            VLOAD    VXV
000750: 32,2521           03740                                    UR1/
000751: 32,2522           03746                                    UV1/
000752: 32,2523           77606                           PUSH                                           #  N/ = UR X UV                          B2
000753: 32,2524           71214        INVC120            CLEAR    DLOAD
000754: 32,2525           02661                                    RETROFLG
000755: 32,2526           51006                           PUSH     BPL
000756: 32,2527           64533                                    INVC125
000757: 32,2530           57575                           VLOAD    VCOMP                                 #  RETROGRADE ORBIT
000758: 32,2531           43006                           PUSH     SET
000759: 32,2532           02461                                    RETROFLG
000760: 32,2533           77775        INVC125            VLOAD
000761: 32,2534           53435                           VXV      UNIT
000762: 32,2535           03740                                    UR1/
000763: 32,2536           03746                           STORE    UH/                                   #  UH/                                   B1
000764: 32,2537           77650                           GOTO
000765: 32,2540           03762                                    SPRTEX
000766:


000768:                                                                                                  #  PRECISION TRAJECTORY COMPUTATION SUBROUTINE
000769:
000770:                                                                                                  #  DESCRIPTION
000771:                                                                                                  #        A NUMERICALLY INTEGRATED TRAJECTORY IS GENERATED WHICH FOR THE RETURN TO EARTH PROBLEM SATISFIES THE REENTRY
000772:                                                                                                  #        CONSTRAINTS (RCON AND X(T2)) ACHIEVED BY THE INITIAL CONIC TRAJECTORY AND MEETS THE DVD REQUIREMENT AS CLOSELY
000773:                                                                                                  #        AS POSSIBLE.
000774:
000775:                                                                                                  #  CALLING SEQUENCE
000776:                                                                                                  #        L       CALL
000777:                                                                                                  #        L+1             PREC100
000778:
000779:                                                                                                  #  NORMAL EXIT MODE
000780:                                                                                                  #        AT L+2 OF CALLING SEQUENCE WITH MPAC = 0
000781:
000782:                                                                                                  #  ALARM EXIT MODE
000783:                                                                                                  #        AT L+2 OF CALLING SEQUENCE WITH MPAC =
000784:                                                                                                  #                OCTAL 605       FOR EXCESS ITERATIONS
000785:                                                                                                  #                OCTAL 613       FOR REENTRY ANGLE OUT OF LIMITS
000786:
000787:                                                                                                  #  SUBROUTINES CALLED
000788:                                                                                                  #        INTSTALL
000789:                                                                                                  #        RTENCK2
000790:                                                                                                  #        RTENCK3
000791:                                                                                                  #        TIMERAD
000792:                                                                                                  #        PARAM
000793:                                                                                                  #        V2T100
000794:
000795:                                                                                                  #  ERASABLE INITIALIZATION REQUIRED
000796:                                                                                                  #     PUSHLIST
000797:                                                                                                  #        NONE
000798:                                                                                                  #     MPAC
000799:                                                                                                  #        NONE
000800:                                                                                                  #     OTHER
000801:                                                                                                  #        R(T1)/          INITIAL POSITION VECTOR                                 VECTOR  B29/B27 METERS
000802:                                                                                                  #        V2(T1)/         POST IMPULSE INITIAL VELOCITY VECTOR                    VECTOR  B7/B5   METERS/CS
000803:                                                                                                  #        V(T1)/          INITIAL VELOCITY VECTOR                                 VECTOR  B7/B5   METERS/CS
000804:                                                                                                  #        T1              INITIAL VECTOR TIME                                     DP      B28     CS
000805:                                                                                                  #        T12             INITIAL TO FINAL POSITION TIME                          DP      B28     CS
000806:                                                                                                  #        RCON            CONIC FINAL RADIUS                                      DP      B29/B27 METERS
000807:                                                                                                  #        R(T1)           MAGNITUDE OF INITIAL POSITION VECTOR                    DP      B29/B27 METERS
000808:                                                                                                  #        X(T2)           COTANGENT OF FINAL FLIGHT PATH ANGLE                    DP      B0
000809:                                                                                                  #        X(T1)           COTANGENT OF INITIAL FLIGHT PATH ANGLE                  DP      B5
000810:                                                                                                  #        RTEDVD          DELTA VELOCITY DESIRED                                  DP      B7/B5   METERS/CS
000811:                                                                                                  #        MAMAX1          MAJOR AXIS LIMIT FOR LOWER BOUND ON GAMDV ITERATOR      DP      B30/B28 METERS
000812:                                                                                                  #        MAMAX2          MAJOR AXIS LIMIT FOR UPPER BOUND ON GAMDV ITERATOR      DP      B30/B28 METERS
000813:                                                                                                  #        UR1/            UNIT INITIAL VECTOR                                     VECTOR  B1
000814:                                                                                                  #        UH/             UNIT HORIZONTAL VECTOR                                  VECTOR  B1
000815:                                                                                                  #        BETA1           1+X(T2)**2                                              DP      B1
000816:                                                                                                  #        PHI2            PERIGEE OR APOGEE INDICATOR                             DP      B2      -1 PERIGEE, +1 APOGEE
000817:


000819:
000820:                                                                                                  #  OUTPUT
000821:                                                                                                  #        V2(T1)/         POST IMPULSE INITIAL VELOCITY VECTOR                    VECTOR  B7      METERS/CS
000822:                                                                                                  #        R(T2)/          FINAL POSITION VECTOR                                   VECTOR  B29     METERS
000823:                                                                                                  #        V(T2)/          FINAL VELOCITY VECTOR                                   VECTOR  B7      METERS/CS
000824:                                                                                                  #        T2              FINAL TIME                                              DP      B28     CENTISECONDS
000825:
000826:                                                                                                  #  DEBRIS
000827:                                                                                                  #        RD              FINAL R DESIRED                                         DP      B29/B27 METERS
000828:                                                                                                  #        R/APRE          R/A                                                     DP      B6
000829:                                                                                                  #        P/RPRE          P/R                                                     DP      B4
000830:                                                                                                  #        RPRE            MAGNITUDE OF R(T2)/                                     DP      B29/B27 METERS
000831:                                                                                                  #        X(T2)PRE        COTANGENT OF GAMMA2                                     DP      B0
000832:                                                                                                  #        DT12            CORRECTION TO FINAL TIME T2                             DP      B28     CENTISECONDS
000833:                                                                                                  #        RCON            FINAL RADIUS                                            DP      B29/B27 METERS
000834:                                                                                                  #        DRCON           DELTA RCON                                              DP      B29/B27 METERS
000835:
000836: 32,2541           71220        PREC100            STQ      DLOAD
000837: 32,2542           03762                                    SPRTEX
000838: 32,2543           33532                                    10RTE
000839: 32,2544           17730                           STODL    NN1A
000840: 32,2545           03636                                    RCON
000841: 32,2546           03664                           STORE    RD
000842: 32,2547           77745        PREC120            DLOAD
000843: 32,2550           33542                                    2RTEB1
000844: 32,2551           17650                           STODL    DT21PR                                #  DT21PR = POSMAX
000845: 32,2552           33530                                    M15RTE
000846: 32,2553           37732                           STCALL   NN2
000847: 32,2554           63726                                    RTENCK3
000848: 32,2555           77624        PREC125            CALL
000849: 32,2556           11637                                    PARAM
000850: 32,2557           77745                           DLOAD
000851: 32,2560           02742                                    P
000852: 32,2561           14033                           STODL    P/RPRE
000853: 32,2562           02744                                    R1A
000854: 32,2563           14035                           STODL    R/APRE
000855: 32,2564           00041                                    R1
000856: 32,2565           14031                           STODL    RPRE
000857: 32,2566           03775                                    COGA
000858: 32,2567           77661                           SL
000859: 32,2570           20206                                    5
000860: 32,2571           03724                           STORE    X(T2)PRE
000861: 32,2572           43276                           DCOMP    DAD
000862: 32,2573           03726                                    X(T2)
000863: 32,2574           45246                           ABS      DSU
000864: 32,2575           33604                                    EPC4RTE
000865: 32,2576           50000                           BOV      BMN
000866: 32,2577           64601                                    PREC130
000867: 32,2600           64770                                    PREC175
000868:
000869:                                                                                                  #  DESIRED REENTRY ANGLE NOT ACHIEVED
000870:


000872: 32,2601           50145        PREC130            DLOAD    BMN
000873: 32,2602           03732                                    NN2
000874: 32,2603           64607                                    PREC140
000875: 32,2604           52135        PREC132            SLOAD    GOTO                                  #  TOO MANY ITERATIONS
000876: 32,2605           33562                                    OCT605                                #        EXIT WITH ALARM
000877: 32,2606           65073                                    PRECX
000878:
000879:                                                                                                  #  DETERMINE RADIUS AT WHICH THE DESIRED REENTRY ANGLE WILL BE ACHIEVED
000880:
000881: 32,2607           53145        PREC140            DLOAD    BZE
000882: 32,2610           03730                                    NN1A
000883: 32,2611           64647                                    PREC162
000884: 32,2612           62545        PREC150            DLOAD    SL2                                   #                                B2
000885: 32,2613           00033                                    P/RPRE
000886: 32,2614           72405                           DMP      SL1                                   #  BETA2=BETA1*P/R               B2      PL02
000887: 32,2615           03754                                    BETA1
000888: 32,2616           71206                           PUSH     DLOAD
000889: 32,2617           00035                                    R/APRE
000890: 32,2620           41212                           SL4      DMP
000891: 32,2621           00001                                    00D
000892: 32,2622           50021                           BDSU     BMN                                   #  BETA3=1-BETA2*R/A
000893: 32,2623           33506                                    1RTEB4
000894: 32,2624           64637                                    PREC160
000895: 32,2625           75512        PREC155            SL2      SQRT
000896: 32,2626           44205                           DMP      BDSU
000897: 32,2627           03761                                    PHI2
000898: 32,2630           33504                                    1RTEB3
000899: 32,2631           65301                           NORM     PDDL
000900: 32,2632           00047                                    X1
000901: 32,2633           56342                           SR1      DDV                                   #  BETA4=BETA2/(1-PHI2*SQRT(BETA3))
000902: 32,2634           52057                           SL*      GOTO                                  #                                B1
000903: 32,2635           20200                                    0          -1,1
000904: 32,2636           64655                                    PREC165
000905: 32,2637           60345        PREC160            DLOAD    NORM
000906: 32,2640           00035                                    R/APRE
000907: 32,2641           00047                                    X1
000908: 32,2642           53665                           BDDV     SL*                                   #                                B1
000909: 32,2643           33500                                    1RTEB1
000910: 32,2644           20173                                    0          -6,1
000911: 32,2645           77650                           GOTO
000912: 32,2646           64655                                    PREC165
000913: 32,2647           60345        PREC162            DLOAD    NORM
000914: 32,2650           00031                                    RPRE
000915: 32,2651           00047                                    X1
000916: 32,2652           53665                           BDDV     SL*                                   #  BETA4=RD/RPRE                 B1
000917: 32,2653           03664                                    RD
000918: 32,2654           20200                                    0          -1,1
000919: 32,2655           41401        PREC165            SETPD    PUSH
000920: 32,2656           00001                                    0
000921: 32,2657           57425                           DSU      DCOMP


000923: 32,2660           33500                                    1RTEB1
000924: 32,2661           03765                           STORE    BETA12
000925: 32,2662           71240                           BMN      DLOAD
000926: 32,2663           64674                                    PREC168
000927: 32,2664           03724                                    X(T2)PRE
000928: 32,2665           71240                           BMN      DLOAD
000929: 32,2666           64672                                    PREC167
000930: 32,2667           03765                                    BETA12
000931: 32,2670           77676                           DCOMP
000932: 32,2671           03765                           STORE    BETA12
000933: 32,2672           77745        PREC167            DLOAD
000934: 32,2673           03765                                    BETA12
000935: 32,2674           45246        PREC168            ABS      DSU
000936: 32,2675           33610                                    EPC6RTE
000937: 32,2676           71240                           BMN      DLOAD
000938: 32,2677           64770                                    PREC175
000939: 32,2700           72405                           DMP      SL1
000940: 32,2701           00031                                    RPRE
000941: 32,2702           77606                           PUSH                                           #  RF = NEW RADIUS
000942: 32,2703           43345        PREC170            DLOAD    DAD
000943: 32,2704           03732                                    NN2
000944: 32,2705           33522                                    1RTEB28
000945: 32,2706           03732                           STORE    NN2
000946: 32,2707           43175                           VLOAD    SET
000947: 32,2710           03656                                    R(T2)/
000948: 32,2711           03466                                    RVSW
000949: 32,2712           26657                           STOVL    RVEC
000950: 32,2713           03710                                    V(T2)/
000951: 32,2714           77765                           SIGN
000952: 32,2715           03765                                    BETA12
000953: 32,2716           16746                           STODL    VVEC
000954: 32,2717           33500                                    1RTEB1
000955: 32,2720           57565                           SIGN     DCOMP
000956: 32,2721           03765                                    BETA12
000957: 32,2722           71354                           LXA,2    DLOAD
000958: 32,2723           00154                                    MPAC
000959: 32,2724           67140                           LXC,1    SXA,2
000960: 32,2725           03734                                    CONICX1
000961: 32,2726           02756                                    SGNRDOT
000962: 32,2727           36760                           STCALL   RDESIRED                              #  COMPUTE DT12 (CORRECTION TO TIME OF
000963: 32,2730           25556                                    TIMERAD                               #        NEW RADIUS)
000964: 32,2731           75345                           DLOAD    SIGN
000965: 32,2732           00037                                    T
000966: 32,2733           03765                                    BETA12
000967: 32,2734           60325                           PDDL     NORM                                  #  DT21=(PHI4)DT21                       PL02D
000968: 32,2735           03650                                    DT21PR
000969: 32,2736           00047                                    X1
000970: 32,2737           53665                           BDDV     SL*
000971: 32,2740           00001                                    00D
000972: 32,2741           20176                                    0          -3,1


000974: 32,2742           50006                           PUSH     BMN                                   #  BETA13=(DT21)/(DT21PR)        B3      PL04D
000975: 32,2743           64750                                    PREC172
000976: 32,2744           65345                           DLOAD    PDDL                                  #  BETA14=1                      B0      PL04D
000977: 32,2745           33542                                    2RTEB1
000978: 32,2746           77650                           GOTO
000979: 32,2747           64752                                    PREC173
000980: 32,2750           65345        PREC172            DLOAD    PDDL                                  #  BETA14=.6                     B0      PL04D
000981: 32,2751           33534                                    M.6RTE
000982: 32,2752           45271        PREC173            DDV      DSU
000983: 32,2753           00003                                    02D
000984: 32,2754           33504                                    1RTEB3
000985: 32,2755           71240                           BMN      DLOAD
000986: 32,2756           64762                                    PREC174
000987: 32,2757           77605                           DMP
000988: 32,2760           03650                                    DT21PR
000989: 32,2761           00001                           STORE    00D                                   #  DT21=(BETA14)DT21PR           B28
000990: 32,2762           41545        PREC174            DLOAD    PUSH
000991: 32,2763           00001                                    00D
000992: 32,2764           37650                           STCALL   DT21PR
000993: 32,2765           63710                                    RTENCK2
000994: 32,2766           77650                           GOTO
000995: 32,2767           64555                                    PREC125
000996: 32,2770           45345        PREC175            DLOAD    DSU
000997: 32,2771           00031                                    RPRE
000998: 32,2772           03664                                    RD
000999: 32,2773           51406                           PUSH     ABS                                   #  RPRE-RD = RERR
001000: 32,2774           50025                           DSU      BMN
001001: 32,2775           33612                                    EPC7RTE
001002: 32,2776           34703                                    PREC220
001003:
001004:                                                                                                  #  DESIRED RADIUS HAS NOT BEEN ACHIEVED
001005:
001006: 32,2777           53145                           DLOAD    BZE
001007: 32,3000           03730                                    NN1A
001008: 32,3001           64604                                    PREC132                               #  TOO MANY ITERATIONS
001009: 32,3002           53025                           DSU      BZE
001010: 32,3003           33532                                    10RTE
001011: 32,3004           65037                                    PREC207
001012: 32,3005           45345        PREC205            DLOAD    DSU                                   #  NOT FIRST PASS OF ITERATION
001013: 32,3006           03670                                    RPRE'
001014: 32,3007           00031                                    RPRE                                  #  RPRE,-RPRE                    B29/B27
001015: 32,3010           55301                           NORM     BDDV
001016: 32,3011           00050                                    X2
001017: 32,3012           03666                                    DRCON
001018: 32,3013           41457                           SL*      PUSH                                  #  DRCON/(RPRE,-RPRE)=S          B2
001019: 32,3014           57600                                    0          -2,2
001020: 32,3015           40015                           DAD      BOV                                   #  S GR +4 OR LS -4
001021: 32,3016           33500                                    1RTEB1
001022: 32,3017           65024                                    PREC205M
001023: 32,3020           45246                           ABS      DSU


001025: 32,3021           33500                                    1RTEB1
001026: 32,3022           77640                           BMN
001027: 32,3023           65027                                    PREC206
001028: 32,3024           57545        PREC205M           DLOAD    DCOMP                                 #  S GR 0 OR LS -4
001029: 32,3025           33542                                    2RTEB1
001030: 32,3026           77725                           PDDL                                           #  S=-4                          B2
001031: 32,3027           41345        PREC206            DLOAD    DMP
001032: 32,3030           77712                           SL2
001033: 32,3031           03666                           STORE    DRCON                                 #  DRCON=S(RERR)                 B29
001034: 32,3032           77615                           DAD
001035: 32,3033           03636                                    RCON
001036: 32,3034           03636                           STORE    RCON                                  #  RCON+DRCON=RCON
001037: 32,3035           77650                           GOTO
001038: 32,3036           65056                                    PREC210
001039: 32,3037           63545        PREC207            DLOAD    DSQ                                   #  FIRST PASS OF ITERATION
001040: 32,3040           03664                                    RD
001041: 32,3041           70501                           NORM     SR1
001042: 32,3042           00047                                    X1
001043: 32,3043           60325                           PDDL     NORM
001044: 32,3044           00031                                    RPRE
001045: 32,3045           00050                                    X2
001046: 32,3046           55260                           XSU,1    BDDV
001047: 32,3047           00047                                    X2
001048: 32,3050           77657                           SR*
001049: 32,3051           20600                                    0          -1,1
001050: 32,3052           03636                           STORE    RCON                                  #  RD**2/RPRE=RCON
001051: 32,3053           77625                           DSU
001052: 32,3054           03664                                    RD
001053: 32,3055           03666                           STORE    DRCON                                 #  RCON-RD=DRCON
001054: 32,3056           77745        PREC210            DLOAD                                          #  PREPARE FOR NEXT ITERATION
001055: 32,3057           00031                                    RPRE
001056: 32,3060           17670                           STODL    RPRE'
001057: 32,3061           03730                                    NN1A
001058: 32,3062           77625                           DSU
001059: 32,3063           33522                                    1RTEB28
001060: 32,3064           37730                           STCALL   NN1A
001061: 32,3065           65075                                    V2T100
001062: 32,3066           52030                           BHIZ     GOTO
001063: 32,3067           64547                                    PREC120
001064: 32,3070           65073                                    PRECX
001065:
001066:                                                                                                  #  DESIRED RADIUS ACHIEVED
001067:
001068: 16,2000                                           SETLOC   RTE2
001069: 16,2000                                           BANK
001070: 16,2703           45345        PREC220            DLOAD    DSU
001071: 16,2704           03726                                    X(T2)
001072: 16,2705           03724                                    X(T2)PRE
001073: 16,2706           45246                           ABS      DSU
001074: 16,2707           34716                                    EPC8RTE


001076: 16,2710           67240                           BMN      SLOAD
001077: 16,2711           65071                                    PREC225
001078: 16,2712           34720                                    OCT613
001079: 16,2713           77650                           GOTO
001080: 16,2714           65073                                    PRECX                                 #  IF REENTRY ANGLE OUT OF LIMITS
001081:
001082: 16,2715           00040 30447  EPC8RTE            2DEC     .002
001083:
001084: 16,2717           00613        OCT613             OCT      613
001085:
001086:                                                                                                  #  DESIRED FINAL ANGLE HAS BEEN REACHED
001087:
001088: 32,2000                                           SETLOC   RTE
001089: 32,2000                                           BANK
001090: 32,3071           77745        PREC225            DLOAD
001091: 32,3072           33524                                    ZERORTE
001092: 32,3073           77650        PRECX              GOTO
001093: 32,3074           03762                                    SPRTEX
001094:


001096:                                                                                                  #  INTEGRATION CALLING SUBROUTINE
001097:
001098:                                                                                                  #  DESCRIPTION
001099:                                                                                                  #        PERFORMS CONIC AND PRECISION INTEGRATIONS USING SUBROUTINE INTEGRVS.  THERE ARE THREE ENTRANCES (RTENCK1,
001100:                                                                                                  #        RTENCK2 AND RTENCK3) FOR DIFFERENT SOURCES OF INPUT AND DIFFERENT OPTIONS.  THERE IS A COMMON SET OF OUTPUT
001101:                                                                                                  #        WHICH INCLUDES SET UP OF INPUT FOR THE PARAM SUBROUTINE
001102:
001103:                                                                                                  #  RTENCK1 (CONIC INTEGRATION)
001104:
001105:                                                                                                  #     CALLING SEQUENCE
001106:                                                                                                  #        L       CALL
001107:                                                                                                  #        L+1             RTENCK1
001108:
001109:                                                                                                  #     ERASABLE INITIALIZATION REQUIRED
001110:                                                                                                  #        SAME AS FOR THE RTENCK3 ENTRANCE
001111:
001112:                                                                                                  #  RTENCK2 (PRECISION INTEGRATION)
001113:
001114:                                                                                                  #     CALLING SEQUENCE
001115:                                                                                                  #        L       CALL
001116:                                                                                                  #        L+1             RTENCK2
001117:
001118:                                                                                                  #     ERASABLE INITIALIZATION REQUIRED
001119:                                                                                                  #        PUSHLIST
001120:                                                                                                  #            PUSHLOC-2   INTEGRATION TIME DT12 (CORRECTION TO T2)                DP      B28     CS
001121:                                                                                                  #        OTHER
001122:                                                                                                  #            R(T2)/      FINAL POSITION VECTOR                                   VECTOR .B29     METERS
001123:                                                                                                  #            V(T2)/      FINAL VELOCITY VECTOR                                   VECTOR  B7      METERS/CS
001124:                                                                                                  #            T2          FINAL TIME                                              DP      B28     CS
001125:
001126:                                                                                                  #  RTENCK3 (PRECISION INTEGRATION)
001127:
001128:                                                                                                  #     CALLING SEQUENCE
001129:                                                                                                  #        L       CALL
001130:                                                                                                  #        L+1             RTENCK3
001131:
001132:                                                                                                  #     ERASABLE INITIALIZATION REQUIRED
001133:                                                                                                  #        R(T1)/          INITIAL POSITION VECTOR                                 VECTOR  B29     METERS
001134:                                                                                                  #        V2(T1)/         POST IMPULSE INITIAL VELOCITY VECTOR                    VECTOR  B7      M/CS
001135:                                                                                                  #        T1              INITIAL VECTOR TIME                                     DP      B28     CS
001136:                                                                                                  #        T2              FINAL TIME                                              DP      B28     CS
001137:
001138:                                                                                                  #  EXIT MODE
001139:                                                                                                  #        AT L+2 OF CALLING SEQUENCE
001140:
001141:                                                                                                  #  SUBROUTINES CALLED
001142:                                                                                                  #        INTSTALL
001143:                                                                                                  #        INTEGRVS
001144:
001145:                                                                                                  #  OUTPUT
001146:                                                                                                  #     PUSHLIST


001148:                                                                                                  #        PUSHLOC-6       FINAL POSITION VECTOR R(T2)/                            VECTOR  B29     METERS
001149:                                                                                                  #        X1              CONICS MUTABLE ENTRY FOR EARTH (-2)                     SP      B14
001150:                                                                                                  #     MPAC
001151:                                                                                                  #                        FINAL VELOCITY VECTOR V(T2)/                            VECTOR  B7      M/CS
001152:                                                                                                  #     OTHER
001153:                                                                                                  #        R(T2)/          AS IN PUSHLIST
001154:                                                                                                  #        V(T2)/          AS IN MPAC
001155:                                                                                                  #        T2              FINAL TIME                                              DP      B28     CS
001156:
001157: 31,2000                                           SETLOC   RTE3
001158: 31,2000                                           BANK
001159: 31,3700           45020        RTENCK1            STQ      CALL
001160: 31,3701           03733                                    RTENCKEX
001161: 31,3702           27442                                    INTSTALL
001162: 31,3703           43175                           VLOAD    SET
001163: 31,3704           03640                                    R(T1)/
001164: 31,3705           01473                                    INTYPFLG
001165: 31,3706           77650                           GOTO
001166: 31,3707           63734                                    RTENCK3B
001167:
001168: 31,3710           45020        RTENCK2            STQ      CALL
001169: 31,3711           03733                                    RTENCKEX
001170: 31,3712           27442                                    INTSTALL
001171: 31,3713           77214                           CLEAR    VLOAD
001172: 31,3714           01673                                    INTYPFLG
001173: 31,3715           03656                                    R(T2)/
001174: 31,3716           25535                           STOVL    RCV
001175: 31,3717           03710                                    V(T2)/
001176: 31,3720           15543                           STODL    VCV
001177: 31,3721           03736                                    T2
001178: 31,3722           01517                           STORE    TET
001179: 31,3723           77615                           DAD
001180: 31,3724           77650                           GOTO
001181: 31,3725           63742                                    RTENCK3D
001182:
001183: 31,3726           45020        RTENCK3            STQ      CALL
001184: 31,3727           03733                                    RTENCKEX
001185: 31,3730           27442                                    INTSTALL
001186: 31,3731           43175        RTENCK3A           VLOAD    CLEAR
001187: 31,3732           03640                                    R(T1)/
001188: 31,3733           01673                                    INTYPFLG
001189: 31,3734           25535        RTENCK3B           STOVL    RCV
001190: 31,3735           03700                                    V2(T1)/
001191: 31,3736           15543                           STODL    VCV
001192: 31,3737           03716                                    T1
001193: 31,3740           15517                           STODL    TET
001194: 31,3741           03736                                    T2


001196: 31,3742           00041        RTENCK3D           STORE    TDEC1
001197: 31,3743           45014                           CLEAR    CALL
001198: 31,3744           00263                                    MOONFLAG
001199: 31,3745           27135                                    INTEGRVS
001200: 31,3746           77775                           VLOAD
001201: 31,3747           00001                                    RATT
001202: 31,3750           03656                           STORE    R(T2)/
001203: 31,3751           70125                           PDDL     LXC,1
001204: 31,3752           00015                                    TAT
001205: 31,3753           03734                                    CONICX1
001206: 31,3754           27736                           STOVL    T2
001207: 31,3755           00007                                    VATT
001208: 31,3756           03710                           STORE    V(T2)/
001209: 31,3757           77650                           GOTO
001210: 31,3760           03733                                    RTENCKEX
001211: 32,2000                                           SETLOC   RTE
001212: 32,2000                                           BANK
001213:


001215:                                                                                                  #  V2(T1) COMPUTATION SUBROUTINE
001216:
001217:                                                                                                  #  DESCRIPTION
001218:                                                                                                  #        A POST IMPULSE VELOCITY VECTOR (V2(T1)) IS COMPUTED WHICH EITHER
001219:                                                                                                  #        (1)     MEETS THE INPUT VELOCITY CHANGE DESIRED (RTEDVD) IN A MINIMUM TIME      OR
001220:                                                                                                  #        (2)     IF A VELOCITY CHANGE ISN:T SPECIFIED (RTEDVD) = 0), A V2(T1) IS COMPUTED WHICH MINIMIZES THE IMPULSE (DV)
001221:                                                                                                  #                AND CONSEQUENTLY FUEL.
001222:
001223:                                                                                                  #  CALLING SEQUENCE
001224:                                                                                                  #        L       CALL
001225:                                                                                                  #        L+1             V2T100
001226:
001227:                                                                                                  #  NORMAL EXIT MODE
001228:                                                                                                  #        AT L+2 OF CALLING SEQUENCE WITH MPAC = 0
001229:
001230:                                                                                                  #  ALARM EXIT MODE
001231:                                                                                                  #        AT L+2 OF CALLING SEQUENCE WITH MPAC = OCTAL 605 FOR EXCESS ITERATIONS
001232:
001233:                                                                                                  #  SUBROUTINES CALLED
001234:                                                                                                  #        GAMDV10
001235:                                                                                                  #        XT1LIM
001236:                                                                                                  #        DVCALC
001237:
001238:                                                                                                  #  ERASABLE INITIALIZATION REQUIRED
001239:                                                                                                  #     PUSHLIST
001240:                                                                                                  #        NONE
001241:                                                                                                  #     MPAC
001242:                                                                                                  #        NONE
001243:                                                                                                  #     OTHER
001244:                                                                                                  #        R(T1)           MAGNITUDE OF INITIAL POSITION VECTOR                    DP      B29/B27 METERS
001245:                                                                                                  #        RCON            MAGNITUDE OF FINAL POSITION VECTOR                      DP      B29/B27 METERS
001246:                                                                                                  #        V(T1)/          INITIAL VELOCITY VECTOR                                 VECTOR  B7/B5   METERS/CS
001247:                                                                                                  #        RTEDVD          DELTA VELOCITY DESIRED                                  DP      B7/B5   METERS/CS
001248:                                                                                                  #        UR1/            UNIT INITIAL VECTOR                                     VECTOR  B1
001249:                                                                                                  #        UH/             UNIT HORIZONTAL VECTOR                                  VECTOR  B1
001250:                                                                                                  #        X(T2)           COTANGENT OF FINAL FLIGHT PATH ANGLE                    DP      B0
001251:                                                                                                  #        X(T1)           COTANGENT OF INITIAL FLIGHT PATH ANGLE (INPUT FOR PREC) DP      B5
001252:                                                                                                  #        CFPA            COSINE OF INITIAL FLIGHT PATH ANGLE                     DP      B1
001253:                                                                                                  #        MAMAX1          MAJOR AXIS LIMIT FOR LOWER BOUND ON GAMDV ITERATOR      DP      B30/B28 METERS
001254:                                                                                                  #        MAMAX2          MAJOR AXIS LIMIT FOR UPPER BOUND ON GAMDV ITERATOR      DP      B30/B28 METERS
001255:                                                                                                  #        PHI2            REENTRY NEAR PERIGEE OR APOGEE INDICATE (RTE ONLY)      DP       B2     -1 PERIGEE, +1 APOGEE
001256:                                                                                                  #        N1              CONIC OR PRECISION ITERATION COUNTER                    DP      B28     NEGATIVE CONIC,PLUS PREC
001257:
001258:                                                                                                  #  OUTPUT
001259:                                                                                                  #        V2(T1)/         POST IMPULSE INITIAL VELOCITY VECTOR                    VECTOR  B7/B5   METERS/CS
001260:                                                                                                  #        DV              INITIAL VELOCITY CHANGE                                 DP      B7/B5   METERS/CS
001261:                                                                                                  #        X(T1)           COTANGENT OF INITIAL FLIGHT PATH ANGLE (POST IMPULSE)   DP      B5
001262:                                                                                                  #        PCON            SEMI-LATUS RECTUM                                       DP      B28/B26 METERS
001263:                                                                                                  #        BETA1           1+X(T2)**2                                              DP      B1
001264:


001266:
001267:                                                                                                  #  DEBRIS
001268:                                                                                                  #     PUSHLIST
001269:                                                                                                  #        00D             X(T1),,=PREVIOUS PRECISION X(T1)                        DP      B5
001270:                                                                                                  #        02D             THETA1=BETA5*LAMBDA-1                                   TP      B17
001271:                                                                                                  #        05D             THETA2=2*R(T1)*(LAMBDA-1)                               TP      B38/B36
001272:                                                                                                  #        08D             THETA3=MU**.5/R(T1)                                     DP      B-4/B-5
001273:                                                                                                  #        10D             X(T1)MIN=LOWER BOUND ON X(T1) IN GAMDV ITERATOR         DP      B5
001274:                                                                                                  #        12D             DX(T1)MAX=MAXIMUM DELTA X(T1)                           DP      B5
001275:                                                                                                  #        14D             X(T1)MAX=UPPER BOUND ON X(T1) IN GAMDV ITERATOR         DP      B5
001276:                                                                                                  #        16D             DX(T1)=ITERATOR INCREMENT                               DP      B5
001277:                                                                                                  #        31D             GAMDV10 SUBROUTINE RETURN ADDRESS
001278:                                                                                                  #        32D             DVCALC SUBROUTINE RETURN ADDRESS
001279:                                                                                                  #        33D             V2T100 SUBROUTINE RETURN ADDRESS
001280:
001281: 32,3075           71220        V2T100             STQ      DLOAD
001282: 32,3076           00041                                    33D
001283: 32,3077           03636                                    RCON
001284: 32,3100           45240                           BMN      DSU                                   #  ABORT IF RCON NEGATIVE
001285: 32,3101           65105                                    V2TERROR
001286: 32,3102           03646                                    R(T1)
001287: 32,3103           77640                           BMN
001288: 32,3104           65110                                    V2T101
001289: 32,3105           77776        V2TERROR           EXIT                                           #        OR IF LAMBDA LESS THAN ONE
001290: 32,3106           05721                           TC       POODOO                                #  NO SOLUTION IF LAMBDA LESS THAN 1
001291: 32,3107           00610                           OCT      00610
001292: 32,3110           43001        V2T101             SETPD    CLEAR
001293: 32,3111           00001                                    0                                     #                                        PL00D
001294: 32,3112           00272                                    F2RTE
001295: 32,3113           60345                           DLOAD    NORM
001296: 32,3114           03636                                    RCON
001297: 32,3115           00047                                    X1
001298: 32,3116           60325                           PDDL     NORM
001299: 32,3117           03646                                    R(T1)
001300: 32,3120           00051                                    S1
001301: 32,3121           00013                           STORE    10D
001302: 32,3122           56342                           SR1      DDV                                   #  R1/RCON = LAMBDA              B1
001303: 32,3123           65260                           XSU,1    PDDL                                  #                                        PL02D
001304: 32,3124           00050                                    S1
001305: 32,3125           03726                                    X(T2)
001306: 32,3126           77716                           DSQ
001307: 32,3127           43342                           SR1      DAD
001308: 32,3130           33500                                    1RTEB1
001309: 32,3131           03754                           STORE    BETA1                                 #  1+X(T2)**2 = BETA1            B1
001310: 32,3132           77605                           DMP
001311: 32,3133           00001                                    00D
001312: 32,3134           00035                           STORE    28D                                   #  BETAI*LAMBDA = BETA5
001313: 32,3135           53605                           DMP      SL*
001314: 32,3136           00001                                    00D
001315: 32,3137           20172                                    0          -7,1
001316: 32,3140           45257                           SL*      DSU


001318: 32,3141           20172                                    0          -7,1
001319: 32,3142           33516                                    1RTEB17
001320: 32,3143           65234                           RTB      PDDL                                  #  BETA5*LAMBDA-1 = THETA1       B17     PL05D
001321: 32,3144           45565                                    TPMODE
001322: 32,3145           33500                                    1RTEB1
001323: 32,3146           57457                           SR*      DCOMP
001324: 32,3147           20601                                    0,1
001325: 32,3150           41215                           DAD      DMP
001326: 32,3151           00001                                    00D
001327: 32,3152           03646                                    R(T1)
001328: 32,3153           47057                           SL*      RTB
001329: 32,3154           20172                                    0          -7D,1
001330: 32,3155           45565                                    TPMODE
001331: 32,3156           77725                           PDDL                                           #  2*R(T1)*(LAMBDA-1)=THETA2     B38/B36 PL08D
001332: 32,3157           33632                                    RTMURTE
001333: 32,3160           70501                           NORM     SR1
001334: 32,3161           00050                                    X2
001335: 32,3162           56264                           XSU,2    DDV
001336: 32,3163           00050                                    S1
001337: 32,3164           00013                                    10D
001338: 32,3165           65257                           SR*      PDDL                                  #  MU**.5/R(T1)=THETA3           B-4/B-5 PL10D
001339: 32,3166           57170                                    6,2
001340: 32,3167           03652                                    MAMAX1
001341: 32,3170           41406                           PUSH     PUSH                                  #  MAMAX1=MA
001342: 32,3171           77624                           CALL
001343: 32,3172           65734                                    XT1LIM
001344: 32,3173           41476                           DCOMP    PUSH                                  #  X(T1)MIN                      B5      PL12D
001345: 32,3174           40476                           DCOMP    SR4
001346: 32,3175           41525                           PDDL     PUSH                                  #  DX(T1)MAX                     B5      PL14D
001347: 32,3176           03654                                    MAMAX2
001348: 32,3177           45006                           PUSH     CALL
001349: 32,3200           65734                                    XT1LIM
001350: 32,3201           50125                           PDDL     BMN                                   #  X(T1)MAX                      B5      PL16D
001351: 32,3202           03730                                    NN1A
001352: 32,3203           65206                                    V2T102
001353: 32,3204           77650                           GOTO
001354: 32,3205           65220                                    V2T110
001355:
001356:                                                                                                  #  PROCEED HERE IF NOT PRECISION COMPUTATION
001357:
001358: 32,3206           77745        V2T102             DLOAD
001359: 32,3207           03632                                    RTEDVD
001360: 32,3210           52054                           BZE      GOTO
001361: 32,3211           65213                                    V2T105
001362: 32,3212           65314                                    V2T140
001363: 32,3213           50145        V2T105             DLOAD    BMN
001364: 32,3214           03757                                    CFPA
001365: 32,3215           65314                                    V2T140
001366: 32,3216           77650                           GOTO
001367: 32,3217           65322                                    V2T145


001369:                                                                                                  #  DURING A PRECISION TRAJECTORY ITERATION CONSTRAIN THE INDEPENDENT
001370:                                                                                                  #  VARIABLE TO INSURE THAT ALL CONICS PASS THROUGH RCON ON THE SAME PASS
001371:                                                                                                  #  THROUGH X(T2)
001372:
001373: 32,3220           47145        V2T110             DLOAD    RTB
001374: 32,3221           33516                                    1RTEB17
001375: 32,3222           45565                                    TPMODE
001376: 32,3223           65276                           DCOMP    PDDL                                  #  -1                            B17     PL19D
001377: 32,3224           33542                                    2RTEB1
001378: 32,3225           45257                           SR*      DSU
001379: 32,3226           20601                                    0,1
001380: 32,3227           00001                                    00D
001381: 32,3230           53605                           DMP      SL*
001382: 32,3231           00035                                    28D
001383: 32,3232           20172                                    0          -7,1
001384: 32,3233           76257                           SL*      TAD
001385: 32,3234           20172                                    0          -7,1
001386: 32,3235           65234                           RTB      PDDL                                  #  BETA5(2-LAMBDA)-1=BETA6       B17     PL19D
001387: 32,3236           45565                                    TPMODE
001388: 32,3237           03722                                    X(T1)
001389: 32,3240           00001                           STORE    00D                                   #  X(T1),,                       B5
001390: 32,3241           77751                           TLOAD                                          #                                        PL16D
001391: 32,3242           53040                           BMN      BZE
001392: 32,3243           65250                                    V2T115
001393: 32,3244           65250                                    V2T115
001394: 32,3245           52061                           SL       GOTO
001395: 32,3246           20210                                    7
001396: 32,3247           65261                                    V2T120
001397: 32,3250           50145        V2T115             DLOAD    BMN
001398: 32,3251           03761                                    PHI2
001399: 32,3252           65272                                    V2T125
001400: 32,3253           77676                           DCOMP
001401: 32,3254           17761                           STODL    PHI2
001402: 32,3255           33532                                    10RTE
001403: 32,3256           03730                           STORE    NN1A
001404: 32,3257           77650                           GOTO
001405: 32,3260           65272                                    V2T125
001406: 32,3261           47166        V2T120             SQRT     RTB
001407: 32,3262           45716                                    DPMODE
001408: 32,3263           50125                           PDDL     BMN                                   #  BETA6**.5=X(T1)LIM            B5      PL18D
001409: 32,3264           03761                                    PHI2
001410: 32,3265           65300                                    V2T130
001411: 32,3266           45545                           DLOAD    STADR                                 #                                        PL16D
001412: 32,3267           77760                           STORE    14D                                   #  X(T1)LIM = X(T1)MAX
001413: 32,3270           77676                           DCOMP
001414: 32,3271           00013                           STORE    10D                                   #  -X(T1)LIM = X(T1)MIN
001415: 32,3272           53145        V2T125             DLOAD    BZE
001416: 32,3273           03722                                    X(T1)
001417: 32,3274           65314                                    V2T140
001418: 32,3275           52040                           BMN      GOTO


001420: 32,3276           65314                                    V2T140
001421: 32,3277           65322                                    V2T145
001422: 32,3300           53145        V2T130             DLOAD    BZE
001423: 32,3301           03722                                    X(T1)
001424: 32,3302           65311                                    V2T135
001425: 32,3303           71240                           BMN      DLOAD                                 #                                        PL16D
001426: 32,3304           65311                                    V2T135
001427: 32,3305           77626                           STADR
001428: 32,3306           77764                           STORE    10D                                   #  X(T1)LIM = X(T1)MIN
001429: 32,3307           77650                           GOTO
001430: 32,3310           65322                                    V2T145
001431: 32,3311           57545        V2T135             DLOAD    DCOMP                                 #                                        PL16D
001432: 32,3312           77626                           STADR
001433: 32,3313           77760                           STORE    14D                                   #  -X(T1)LIM = X(T1)MAX
001434: 32,3314           77745        V2T140             DLOAD
001435: 32,3315           00013                                    10D
001436: 32,3316           17722                           STODL    X(T1)                                 #  X(T1)MIN = X(T1)
001437: 32,3317           00015                                    12D
001438: 32,3320           52006                           PUSH     GOTO                                  #  DX(T1)MAX = DX(T1)                    PL18D
001439: 32,3321           65327                                    V2T150
001440: 32,3322           77745        V2T145             DLOAD
001441: 32,3323           00017                                    14D
001442: 32,3324           17722                           STODL    X(T1)                                 #  X(T1)MAX = X(T1)
001443: 32,3325           00015                                    12D
001444: 32,3326           41476                           DCOMP    PUSH                                  #  -DX(T1)MAX = DX(T1)                   PL18D
001445: 32,3327           77624        V2T150             CALL                                           #  GOTO X(T1)-DV ITERATOR
001446: 32,3330           65457                                    GAMDV10
001447: 32,3331           53145                           DLOAD    BZE                                   #  EXIT IF MINIMUM FUEL MODE
001448: 32,3332           03632                                    RTEDVD
001449: 32,3333           65455                                    V2T1X
001450:
001451:                                                                                                  #  CONTINUE IF TIME CRITICAL MODE
001452:
001453: 32,3334           50025                           DSU      BMN
001454: 32,3335           03706                                    DV
001455: 32,3336           65341                                    V2T155
001456: 32,3337           77650                           GOTO
001457: 32,3340           65374                                    V2T175
001458: 32,3341           50145        V2T155             DLOAD    BMN
001459: 32,3342           03730                                    NN1A
001460: 32,3343           65346                                    V2T160
001461: 32,3344           77650                           GOTO
001462: 32,3345           65416                                    V2T185
001463:
001464:                                                                                                  #  CONIC TRAJECTORY COMPUTATION
001465:
001466: 32,3346           53145        V2T160             DLOAD    BZE
001467: 32,3347           03722                                    X(T1)
001468: 32,3350           65354                                    V2T165
001469: 32,3351           52040                           BMN      GOTO


001471: 32,3352           65354                                    V2T165
001472: 32,3353           65453                                    V2T300
001473: 32,3354           53145        V2T165             DLOAD    BZE
001474: 32,3355           03757                                    CFPA
001475: 32,3356           65453                                    V2T300
001476: 32,3357           71240                           BMN      DLOAD
001477: 32,3360           65453                                    V2T300
001478: 32,3361           00017                                    14D
001479: 32,3362           17722                           STODL    X(T1)                                 #  X(T1)MAX=X(T1)
001480: 32,3363           00015                                    12D
001481: 32,3364           77676                           DCOMP
001482: 32,3365           34021                           STCALL   16D                                   #  -DX(T1)MAX=DX(T1)
001483: 32,3366           65457                                    GAMDV10
001484: 32,3367           45345                           DLOAD    DSU
001485: 32,3370           03632                                    RTEDVD
001486: 32,3371           03706                                    DV
001487: 32,3372           77640                           BMN
001488: 32,3373           65453                                    V2T300
001489: 32,3374           71214        V2T175             SET      DLOAD
001490: 32,3375           00072                                    F2RTE
001491: 32,3376           03722                                    X(T1)
001492: 32,3377           77614                           BOFF
001493: 32,3400           02742                                    SLOWFLG
001494: 32,3401           65406                                    V2T177
001495: 32,3402           14013                           STODL    10D                                   #  X(T1)MIN
001496: 32,3403           00015                                    12D                                   #  DX(T1)MAX
001497: 32,3404           77650                           GOTO
001498: 32,3405           65411                                    V2T179
001499: 32,3406           14017        V2T177             STODL    14D
001500: 32,3407           00015                                    12D
001501: 32,3410           77676                           DCOMP
001502: 32,3411           34021        V2T179             STCALL   16D                                   #  DX(T1)
001503: 32,3412           65457                                    GAMDV10
001504: 32,3413           50145                           DLOAD    BMN
001505: 32,3414           03730                                    NN1A
001506: 32,3415           65453                                    V2T300
001507:
001508:                                                                                                  #  PREVENT A LARGE CHANGE IN INDEPENDENT VARIABLE DURING AN ITERATION FOR A
001509:                                                                                                  #  PRECISION TRAJECTORY
001510:
001511: 32,3416           45345        V2T185             DLOAD    DSU
001512: 32,3417           03722                                    X(T1)
001513: 32,3420           00001                                    00D
001514: 32,3421           65246                           ABS      PDDL                                  #  /X(T1)-X(T1),,/ = BETA7
001515: 32,3422           00015                                    12D
001516: 32,3423           44352                           SL1      BDSU
001517: 32,3424           71240                           BMN      DLOAD
001518: 32,3425           65453                                    V2T300
001519: 32,3426           00001                                    00D                                   #  CONTINUE IF BETA7 LARGER THAN 2DX(T1)MAX
001520: 32,3427           03722                           STORE    X(T1)                                 #  X(T1),, = X(T1)


001522: 32,3430           50025                           DSU      BMN
001523: 32,3431           00017                                    14D
001524: 32,3432           65440                                    V2T195
001525: 32,3433           77745                           DLOAD
001526: 32,3434           00017                                    14D
001527: 32,3435           03722                           STORE    X(T1)                                 #  X(T1)MAX = X(T1)
001528: 32,3436           77650                           GOTO
001529: 32,3437           65451                                    V2T205
001530: 32,3440           45345        V2T195             DLOAD    DSU
001531: 32,3441           03722                                    X(T1)
001532: 32,3442           00013                                    10D
001533: 32,3443           52040                           BMN      GOTO
001534: 32,3444           65446                                    V2T200
001535: 32,3445           65451                                    V2T205
001536: 32,3446           77745        V2T200             DLOAD
001537: 32,3447           00013                                    10D
001538: 32,3450           03722                           STORE    X(T1)                                 #  X(T1)MIN = X(T1)
001539: 32,3451           77624        V2T205             CALL
001540: 32,3452           65660                                    DVCALC
001541: 32,3453           77745        V2T300             DLOAD
001542: 32,3454           33524                                    ZERORTE
001543: 32,3455           77650        V2T1X              GOTO
001544: 32,3456           00041                                    33D
001545:


001547:                                                                                                  #  X(T1)-DV ITERATOR SUBROUTINE
001548:
001549:                                                                                                  #  DESCRIPTION
001550:                                                                                                  #        COMPUTES A POST IMPULSE VELOCITY VECTOR (V2(T1)) WHICH REQUIRES A MINIMUM DV.
001551:
001552:                                                                                                  #  CALLING SEQUENCE
001553:                                                                                                  #        L       CALL
001554:                                                                                                  #        L+1             GAMDV10
001555:
001556:                                                                                                  #  NORMAL EXIT MODE
001557:                                                                                                  #        AT L+2 OF CALLING SEQUENCE
001558:
001559:                                                                                                  #  ALARM EXIT MODE
001560:                                                                                                  #        AT V2T1X WITH MPAC = OCTAL 605 FOR EXCESS ITERATIONS
001561:
001562:                                                                                                  #  SUBROUTINES CALLED
001563:                                                                                                  #        DVCALC
001564:
001565:                                                                                                  #  ERASABLE INITIALIZATION REQUIRED
001566:                                                                                                  #     PUSHLIST
001567:                                                                                                  #        02D             THETA1=BETA5*LAMBDA-1                                   TP      B17
001568:                                                                                                  #        05D             THETA2=2*R(T1)*(LAMBDA-1)                               TP      B38/B36
001569:                                                                                                  #        08D             THETA3=MU**.5/R(T1)                                     DP      B-4/B-5
001570:                                                                                                  #        10D             X(T1)MIN=LOWER BOUND ON INDEPENDENT VARIABLE X(T1)      DP      B5
001571:                                                                                                  #        12D             DX(T1)MAX=MAXIMUM DX(T1)                                DP      B5
001572:                                                                                                  #        14D             X(T1)MAX=UPPER BOUND ON INDEPENDENT VARIABLE X(T1)      DP      B5
001573:                                                                                                  #        16D             DX(T1)=ITERATOR INCREMENT                               DP      B5
001574:                                                                                                  #     MPAC
001575:                                                                                                  #        NONE
001576:                                                                                                  #     OTHER
001577:                                                                                                  #        V(T1)/          INITIAL VELOCITY VECTOR                                 VECTOR  B7/B5   METERS/CS
001578:                                                                                                  #        RTEDVD          DELTA VELOCITY DESIRED                                  DP      B7/B5   METERS/CS
001579:                                                                                                  #        UR1/            UNIT INITIAL VECTOR                                     VECTOR  B1
001580:                                                                                                  #        UH/             UNIT HORIZONTAL VECTOR                                  VECTOR  B1
001581:                                                                                                  #        X(T1)           COTANGENT OF INITIAL FLIGHT PATH ANGLE (FROM VERTICAL)  DP      B5
001582:                                                                                                  #        F2RTE           TIME CRITICAL OR MINIMUM FUEL MODE INDICATOR            STATE AREA      0 MIN. FUEL, 1 MIN. TIME
001583:
001584:                                                                                                  #  OUTPUT
001585:                                                                                                  #        V2(T1)/         POST IMPULSE INITIAL VELOCITY VECTOR                    VECTOR  B7/B5   METERS/CS
001586:                                                                                                  #        DV              INITIAL VELOCITY CHANGE                                 DP      B7/B5   METERS/CS
001587:                                                                                                  #        X(T1)           COTANGENT OF INITIAL FPA MEASURED FROM VERTICAL         DP      B5
001588:                                                                                                  #        PCON            SEMI-LATUS RECTUM                                       DP      B28/B26 METERS
001589:
001590:                                                                                                  #  DEBRIS
001591:                                                                                                  #     PUSHLIST
001592:                                                                                                  #        00D             X(T1),,
001593:                                                                                                  #        02D             THETA1
001594:                                                                                                  #        05D             THETA2
001595:                                                                                                  #        08D             THETA3
001596:                                                                                                  #        10D             X(T1)MIN
001597:                                                                                                  #        12D             DX(T1)MAX


001599:                                                                                                  #        14D             X(T1)MAX
001600:                                                                                                  #        16D             DX(T1)
001601:                                                                                                  #        22D             DV,=PREVIOUS DV                                         DP      B7/B5
001602:                                                                                                  #        24D             BETA9=X(T1)+1.1DX(T1)                                   DP      B5
001603:                                                                                                  #        31D             GAMDV10 SUBROUTINE RETURN ADDRESS
001604:                                                                                                  #        32D             DVCALC SUBROUTINE RETURN ADDRESS
001605:                                                                                                  #        33D             V2T100 SUBROUTINE RETURN ADDRESS
001606:
001607: 32,3457           77620        GAMDV10            STQ
001608: 32,3460           00037                                    31D
001609: 32,3461           45001                           SETPD    CALL
001610: 32,3462           00023                                    18D                                   #                                        PL18D
001611: 32,3463           65660                                    DVCALC
001612: 32,3464           45345                           DLOAD    DSU
001613: 32,3465           00017                                    14D
001614: 32,3466           00013                                    10D
001615: 32,3467           77600                           BOV
001616: 32,3470           65510                                    GAMDV20
001617: 32,3471           45206                           PUSH     DSU                                   #  X(T1)MAX-X(T1)MIN=BETA8       B5      PL20D
001618: 32,3472           33614                                    EPC9RTE
001619: 32,3473           71240                           BMN      DLOAD
001620: 32,3474           65656                                    GAMDVX                                #  BOUNDS CLOSE TOGETHER
001621: 32,3475           00023                                    18D
001622: 32,3476           50025                           DSU      BMN                                   #  BETA8-DX(T1)MAX
001623: 32,3477           00015                                    12D
001624: 32,3500           65504                                    GAMDV15
001625: 32,3501           52001                           SETPD    GOTO                                  #                                        PL18D
001626: 32,3502           00023                                    18D
001627: 32,3503           65510                                    GAMDV20
001628: 32,3504           77745        GAMDV15            DLOAD                                          #                                        PL18D
001629: 32,3505           70565                           SIGN     SR1
001630: 32,3506           00021                                    16D
001631: 32,3507           00021                           STORE    16D                                   #  BETA8(SIGNDX(T1))/2=DX(T1)
001632: 32,3510           77745        GAMDV20            DLOAD
001633: 32,3511           33526                                    M144RTE
001634: 32,3512           03732                           STORE    NN2
001635: 32,3513           43345        GAMDV25            DLOAD    DAD
001636: 32,3514           03732                                    NN2
001637: 32,3515           33522                                    1RTEB28
001638: 32,3516           67240                           BMN      SLOAD
001639: 32,3517           65523                                    GAMDV30
001640: 32,3520           33562                                    OCT605
001641: 32,3521           77650                           GOTO
001642: 32,3522           65455                                    V2T1X
001643: 32,3523           03732        GAMDV30            STORE    NN2                                   #  NN2=NN2+1
001644: 32,3524           65345                           DLOAD    PDDL                                  #  X(T1)=X(T1),                  B5      PL20D
001645: 32,3525           03722                                    X(T1)
001646: 32,3526           03706                                    DV
001647: 32,3527           43325                           PDDL     DAD                                   #  DV=DV,                        B7/B5   PL22D
001648: 32,3530           03722                                    X(T1)
001649: 32,3531           00021                                    16D


001651: 32,3532           37722                           STCALL   X(T1)                                 #  X(T1)+DX(T1)=X(T1)            B5
001652: 32,3533           65660                                    DVCALC
001653: 32,3534           71214                           BON      DLOAD
001654: 32,3535           00312                                    F2RTE
001655: 32,3536           65552                                    GAMDV35
001656: 32,3537           03706                                    DV
001657: 32,3540           50025                           DSU      BMN                                   #  CONTINUE IF FUEL CRITICAL MODE
001658: 32,3541           00025                                    20D
001659: 32,3542           65547                                    GAMDV33
001660: 32,3543           57545        GAMDV32            DLOAD    DCOMP
001661: 32,3544           00021                                    16D
001662: 32,3545           77742                           SR1
001663: 32,3546           00021                           STORE    16D
001664: 32,3547           52001        GAMDV33            SETPD    GOTO
001665: 32,3550           00023                                    18D                                   #                                        PL18D
001666: 32,3551           65615                                    GAMDV50
001667:
001668:                                                                                                  #  TIME CRITICAL MODE
001669:
001670: 32,3552           45345        GAMDV35            DLOAD    DSU
001671: 32,3553           03632                                    RTEDVD
001672: 32,3554           03706                                    DV
001673: 32,3555           41525                           PDDL     PUSH                                  #  DVD-DV=DVERR                  B7/B5   PL22D
001674: 32,3556           51545        GAMDV40            DLOAD    ABS                                   #  DV,                                   PL24D
001675: 32,3557           00025                                    20D
001676: 32,3560           50025                           DSU      BMN
001677: 32,3561           33616                                    EPC10RTE
001678: 32,3562           65656                                    GAMDVX
001679: 32,3563           71204        GAMDV45            BOVB     DLOAD
001680: 32,3564           57352                                    TCDANZIG                              #  ASSURE OVFIND IS 0
001681: 32,3565           60221                           BDSU     NORM
001682: 32,3566           03706                                    DV
001683: 32,3567           00050                                    X2
001684: 32,3570           77725                           PDDL                                           #  DV-DV,                        B7/B5-N2 PL22D
001685: 32,3571           70501                           NORM     SR1                                   #  DVERR                         B8/B6-N1
001686: 32,3572           00047                                    X1
001687: 32,3573           65271                           DDV      PDDL                                  #  DVERR/ DV - DV
001688: 32,3574           41221                           BDSU     DMP                                   #                                        PL18D
001689: 32,3575           03722                                    X(T1)
001690: 32,3576           77660                           XSU,1
001691: 32,3577           00047                                    X2
001692: 32,3600           00021                           STORE    16D                                   #  PRESERVE SIGN IF OVERFLOW
001693: 32,3601           40057                           SR*      BOV
001694: 32,3602           20600                                    0          -1,1
001695: 32,3603           65611                                    GAMDV47
001696: 32,3604           00021                           STORE    16D                                   #  (X(T1)-X(T1),)DVERR/(DV-DV,)=DX(T1)
001697: 32,3605           45246                           ABS      DSU
001698: 32,3606           00015                                    12D
001699: 32,3607           77640                           BMN
001700: 32,3610           65615                                    GAMDV50


001702: 32,3611           75345        GAMDV47            DLOAD    SIGN
001703: 32,3612           00015                                    12D
001704: 32,3613           00021                                    16D
001705: 32,3614           00021                           STORE    16D                                   #  DX(T1)MAX(SIGNDX(T1))=DX(T1)
001706:
001707:                                                                                                  #  CHECK TO KEEP INDEPENDENT VARIABLE IN BOUNDS
001708:
001709: 32,3615           41345        GAMDV50            DLOAD    DMP
001710: 32,3616           00021                                    16D
001711: 32,3617           33536                                    1.1RTEB1
001712: 32,3620           43352                           SL1      DAD
001713: 32,3621           03722                                    X(T1)
001714: 32,3622           00031                           STORE    24D                                   #  X(T1)+1.1DX(T1)=BETA9         B5
001715: 32,3623           50025                           DSU      BMN
001716: 32,3624           00017                                    14D
001717: 32,3625           65634                                    GAMDV55
001718: 32,3626           45345                           DLOAD    DSU
001719: 32,3627           00017                                    14D
001720: 32,3630           03722                                    X(T1)
001721: 32,3631           77742                           SR1
001722: 32,3632           34021                           STCALL   16D                                   #  (X(T1)MAX-X(T1))/2=DX(T1)     B5
001723: 32,3633           65647                                    GAMDV65
001724: 32,3634           45345        GAMDV55            DLOAD    DSU
001725: 32,3635           00031                                    24D
001726: 32,3636           00013                                    10D
001727: 32,3637           52040                           BMN      GOTO
001728: 32,3640           65642                                    GAMDV60
001729: 32,3641           65647                                    GAMDV65
001730: 32,3642           45345        GAMDV60            DLOAD    DSU
001731: 32,3643           00013                                    10D
001732: 32,3644           03722                                    X(T1)
001733: 32,3645           77742                           SR1
001734: 32,3646           00021                           STORE    16D                                   #  (X(T1)MIN-X(T1))/2=DX(T1)     B5
001735: 32,3647           51545        GAMDV65            DLOAD    ABS
001736: 32,3650           00021                                    16D
001737: 32,3651           50025                           DSU      BMN
001738: 32,3652           33614                                    EPC9RTE
001739: 32,3653           65656                                    GAMDVX
001740: 32,3654           77650                           GOTO
001741: 32,3655           65513                                    GAMDV25
001742: 32,3656           77650        GAMDVX             GOTO
001743: 32,3657           00037                                    31D
001744:


001746:                                                                                                  #  DV CALCULATION SUBROUTINE
001747:
001748:                                                                                                  #  INPUT
001749:                                                                                                  #     PUSHLIST
001750:                                                                                                  #        02D             THETA1=BETA5*LAMBDA-1                                   TP      B17
001751:                                                                                                  #        05D             THETA2=2*R(T1)*(LAMBDA-1)                               TP      B38/B36
001752:                                                                                                  #        08D             THETA3=MU**.5/R(T1)                                     DP      B-4/B-5
001753:                                                                                                  #     OTHER
001754:                                                                                                  #        X(T1)           COTANGENT OF POST IMPULSE INITIAL FLIGHT PATH ANGLE     DP      B5
001755:                                                                                                  #        V(T1)/          INITIAL VELOCITY VECTOR (PRE IMPULSE)                   VECTOR  B7/B5   METERS/CS
001756:                                                                                                  #        UR1/            UNIT INITIAL VECTOR                                     VECTOR  B1
001757:                                                                                                  #        UH/             UNIT HORIZONTAL VECTOR                                  VECTOR  B1
001758:
001759:                                                                                                  #  OUTPUT
001760:                                                                                                  #        V2(T1)/         POST IMPULSE INITIAL VELOCITY VECTOR                    VECTOR  B7/B5   METERS/CS
001761:                                                                                                  #        DV              INITIAL VELOCITY CHANGE                                 DP      B7/B5   METERS/CS
001762:                                                                                                  #        PCON            SEMI-LATUS RECTUM                                       DP      B28/B26 METERS
001763:
001764:                                                                                                  #  DEBRIS
001765:                                                                                                  #        28D             THETA3*PCON**.5                                         DP      B10/B8-N1
001766:                                                                                                  #        C(PUSLOC)       THETA3(PCON**.5)*X(T1)*UR1/                             VECTOR  B7/B5
001767:                                                                                                  #        32D             DVCALC SUBROUTINE RETURN ADDRESS
001768:                                                                                                  #        X1              NORMALIZATION FACTOR FOR VALUE IN 28D
001769:
001770:                                                                                                  #  PUSHLOC IS RESTORED TO ITS ENTRANCE VALUE UPON EXITING DVCALC
001771:
001772: 32,3660           71220        DVCALC             STQ      DLOAD
001773: 32,3661           00040                                    32D
001774: 32,3662           03722                                    X(T1)
001775: 32,3663           54316                           DSQ      SR
001776: 32,3664           20610                                    7
001777: 32,3665           76276                           DCOMP    TAD
001778: 32,3666           00003                                    02D
001779: 32,3667           41501                           NORM     PUSH
001780: 32,3670           00047                                    X1
001781: 32,3671           60351                           TLOAD    NORM
001782: 32,3672           00006                                    05D
001783: 32,3673           00050                                    X2
001784: 32,3674           70434                           RTB      SR1
001785: 32,3675           45716                                    DPMODE
001786: 32,3676           56264                           XSU,2    DDV
001787: 32,3677           00046                                    X1
001788: 32,3700           77657                           SR*
001789: 32,3701           57170                                    6,2
001790: 32,3702           03720                           STORE    PCON                                  #  THETA2/(THETA1-X(T1)**2)=PCON B28/26
001791: 32,3703           41366                           SQRT     DMP
001792: 32,3704           00011                                    08D
001793: 32,3705           77701                           NORM
001794: 32,3706           00047                                    X1
001795: 32,3707           14035                           STODL    28D                                   #  THETA3*PCON**.5               B10/B8 -N1


001797: 32,3710           03722                                    X(T1)
001798: 32,3711           74301                           NORM     VXSC
001799: 32,3712           00050                                    X2
001800: 32,3713           03740                                    UR1/                                  #  X(T1)*UR1/                    B5+B1 -N2
001801: 32,3714           74274                           XAD,2    VXSC
001802: 32,3715           00046                                    X1
001803: 32,3716           00035                                    28D
001804: 32,3717           63257                           VSR*     PDVL                                  #  THETA3(PCON**.5)X(T1)*UR1/    B7/B5
001805: 32,3720           57207                                    0          -9D,2                      #                +
001806: 32,3721           03746                                    UH/
001807: 32,3722           53761                           VXSC     VSR*                                  #  THETA3(PCON**.5)UH/           B7/B5
001808: 32,3723           00035                                    28D
001809: 32,3724           20575                                    0          -4,1                       #                =
001810: 32,3725           45455                           VAD      STADR
001811: 32,3726           74077                           STORE    V2(T1)/                               #  V2(T1)/                       B7/B5
001812: 32,3727           51451                           VSU      ABVAL
001813: 32,3730           03672                                    V(T1)/
001814: 32,3731           03706                           STORE    DV                                    #  ABVAL(V2(T1)/-V1(T)/)=DV      B7/B5
001815: 32,3732           77650                           GOTO
001816: 32,3733           00040                                    32D
001817:


001819:                                                                                                  #  SUBROUTINE TO COMPUTE BOUNDS ON INDEPENDENT VARIABLE X(T1)
001820:
001821:                                                                                                  #  INPUT
001822:                                                                                                  #     PUSHLIST
001823:                                                                                                  #        PUSHLOC -4      MAJOR AXIS (MA)                                         DP      B30/B28
001824:                                                                                                  #        PUSHLOC -2      MAJOR AXIS (MA) AGAIN                                   DP      B30/B28
001825:                                                                                                  #        28D             BETA5=LAMBDA*BETA1                                      DP      B9
001826:                                                                                                  #     OTHER
001827:                                                                                                  #        RCON                                                                    DP      B29/B27
001828:                                                                                                  #        R(T1)                                                                   DP      B29/B27
001829:
001830:                                                                                                  #  OUTPUT
001831:                                                                                                  #     MPAC
001832:                                                                                                  #        X(T1)LIM        LIMIT ON INDEPENDENT VARIABLE X(T1)                     DP      B5
001833:
001834:                                                                                                  #  DEBRIS
001835:                                                                                                  #     PUSHLIST
001836:                                                                                                  #        C(PUSHLOC)      MA-RCON                                                 DP      (B30/28)-N1
001837:                                                                                                  #        C(PSHLOC)+2     MA                                                      DP      B30/B28
001838:                                                                                                  #        X1              NORMALIZATION FACTOR FOR MA-RCON
001839:                                                                                                  #        20D             XT1LIM SUBROUTINE RETURN ADDRESS
001840:
001841:                                                                                                  #  PUSHLOC IS RESTORED TO ITS ENTRANCE VALUE UPON EXITING XT1LIM
001842:
001843: 32,3734           71220        XT1LIM             STQ      DLOAD
001844: 32,3735           00024                                    20D
001845: 32,3736           03636                                    RCON
001846: 32,3737           44342                           SR1      BDSU
001847: 32,3740           65301                           NORM     PDDL                                  #  MA-RCON                       B30-N1
001848: 32,3741           00050                                    X2
001849: 32,3742           70525                           PDDL     SR1
001850: 32,3743           03646                                    R(T1)
001851: 32,3744           56221                           BDSU     DDV
001852: 32,3745           41257                           SL*      DMP
001853: 32,3746           57601                                    0          -3,2                       #                                B3
001854: 32,3747           00035                                    28D
001855: 32,3750           45257                           SL*      DSU                                   #  BETA10=BETA5(MA-RT)/(MA-RC)-1 B11
001856: 32,3751           20173                                    0          -6,1
001857: 32,3752           33521                                    1RTEB25    +1                         #  1.0 B-11
001858: 32,3753           40152                           SL1      BOV
001859: 32,3754           65760                                    XT1LIM2                               #                                B10
001860: 32,3755           52040                           BMN      GOTO
001861: 32,3756           65764                                    XT1LIM5
001862: 32,3757           65762                                    XT1LIM3
001863: 32,3760           77745        XT1LIM2            DLOAD                                          #  BETA10=POSMAX IF OVERFLOW
001864: 32,3761           33542                                    2RTEB1
001865: 32,3762           52166        XT1LIM3            SQRT     GOTO                                  #  X(T1)=SQRT(BETA10)            B5
001866: 32,3763           65766                                    XT1LIMX
001867: 32,3764           77745        XT1LIM5            DLOAD
001868: 32,3765           33524                                    ZERORTE
001869: 32,3766           77650        XT1LIMX            GOTO
001870: 32,3767           00024                                    20D
001871:


001873:                                                                                                  #  CONSTANTS FOR THE P37 AND P70 PROGRAMS AND SUBROUTINES
001874:
001875: 36,3254                                           BANK     36
001876: 35,2000                                           SETLOC   RTECON1
001877: 35,2000                                           BANK
001878:
001879: 35,3477           20000 00000  1RTEB1             2DEC     1.         B-1
001880: 35,3501           10000 00000  1RTEB2             2DEC     1.         B-2
001881: 35,3503           04000 00000  1RTEB3             2DEC     1.         B-3
001882: 35,3505           02000 00000  1RTEB4             2DEC     1.         B-4
001883: 35,3507           00020 00000  1RTEB10            2DEC     1.         B-10
001884: 35,3511           00004 00000  1RTEB12            2DEC     1.         B-12
001885: 35,3513           00002 00000  1RTEB13            2DEC     1.         B-13
001886: 35,3515           00000 04000  1RTEB17            2DEC     1.         B-17
001887: 35,3517           00000 00010  1RTEB25            2DEC     1.         B-25
001888:                                                                                                  #                                        * * B25 AND B28 MUST BE CONSECUTIVE * *
001889: 35,3521           00000 00001  1RTEB28            2DEC     1.         B-28
001890: 35,3523           00000 00000  ZERORTE            2DEC     0          B-28
001891: 35,3525           77777 77557  M144RTE            2DEC     -144.      B-28
001892: 35,3527           77777 77760  M15RTE             2DEC     -15        B-28
001893: 35,3531           00000 00012  10RTE              2DEC     10         B-28
001894: 35,3533           54631 63145  M.6RTE             2DEC     -.6
001895: 35,3535           21463 06315  1.1RTEB1           2DEC     1.1        B-1
001896: 35,3537           77777 77771  M6RTEB28           2DEC     -6         B-28
001897: 35,3541           37777 37777  2RTEB1             2OCT     3777737777
001898: 35,3543           77777 77766  M9RTEB28           2DEC     -9         B-28
001899: 35,3545           77777 77767  M8RTEB28           2DEC     -8         B-28
001900: 35,3547           00000 35610  30480RTE           2DEC     30480.     B-29
001901: 35,3551           37405 12250  VCSPS              2DEC     31.510396  B-5                        #  (SEE 2VEXHUST)


001903: 35,3553           33041 37714  VCRCS              2DEC     27.0664    B-5
001904: 35,3555           00003 13241  MDOTRCS            2DEC     .0016375   B-3
001905: 35,3557           20000 00000  CSUBT              2DEC     .5
001906: 35,3561           00605        OCT605             OCT      00605
001907: 35,3562           00612        OCT612             OCT      00612
001908: 35,3563           40214 45266  MCOS7.5            2DEC     -.99144486
001909: 35,3565           73645 56536  MSIN7.5            2DEC     -.13052619
001910: 35,3567           70467 71205  MCOS22.5           2DEC     -.92387953 B-2
001911: 35,3571           16525 12525  THETA165           2DEC     .4583333333
001912: 35,3573           22525 12525  THETA210           2DEC     .5833333333
001913: 35,3575           17775 06676  EPC1RTE            2DEC     .99966     B-1
001914: 35,3577           00000 00062  EPC2RTE            2DEC     100.       B-29
001915: 35,3601           00020 14223  EPC3RTE            2DEC     .001
001916: 35,3603           00000 05174  EPC4RTE            2DEC     .00001
001917: 35,3605           00002 21727  EPC5RTE            2DEC     .01        B-6
001918: 35,3607           00000 01654  EPC6RTE            2DEC     .000007    B-1
001919: 35,3611           00000 00764  EPC7RTE            2DEC     1000.      B-29
001920: 35,3613           00000 00010  EPC9RTE            2DEC     1.         B-25
001921: 35,3615           00000 00322  EPC10RTE           2DEC     .0001      B-7
001922:
001923: 35,3617                                           BANK     35
001924: 35,2000                                           SETLOC   RTECON1
001925: 35,2000                                           BANK
001926:
001927: 35,3617           75725 75417  C4RTE              2DEC     -6.986643  E7         B-30
001928: 35,3621           00325 23740  K1RTE              2DEC     7.         E6         B-29
001929: 35,3623           00306 06614  K2RTE              2DEC     6495000.   B-29
001930: 35,3625           76027 70156  K3RTE              2DEC     -.06105
001931: 35,3627           74517 54131  K4RTE              2DEC     -.10453
001932: 35,3631           30276 05001  RTMURTE            2DEC     199650.501 B-18


001934: 35,3633           00003 27040  E3RTE              2DEC     121920.    B-29
001935:

End of include-file P37,P70.agc.  Parent file is MAIN.agc


