
Source Code


000002:                                                                                                  ## Copyright:   Public domain.
000003:                                                                                                  ## Filename:    P76.agc
000004:                                                                                                  ## Purpose:     A section of Comanche revision 051.
000005:                                                                                                  ##              It is part of the reconstructed source code for the
000006:                                                                                                  ##              original release of the flight software for the Command
000007:                                                                                                  ##              Module's (CM) Apollo Guidance Computer (AGC) for Apollo 11.
000008:                                                                                                  ##              The code has been recreated from a copy of Comanche 055. It
000009:                                                                                                  ##              has been adapted such that the resulting bugger words
000010:                                                                                                  ##              exactly match those specified for Comanche 51 in NASA drawing
000011:                                                                                                  ##              2021153D, which gives relatively high confidence that the
000012:                                                                                                  ##              reconstruction is correct.
000013:                                                                                                  ## Reference:   pp. 511-513
000014:                                                                                                  ## Assembler:   yaYUL
000015:                                                                                                  ## Contact:     Ron Burkey <info@sandroid.org>.
000016:                                                                                                  ## Website:     www.ibiblio.org/apollo/index.html
000017:                                                                                                  ## Mod history: 2019-07-30 MAS  Created from Comanche 55.
000018:


000020:                                                                                                  #  1)    PROGRAM NAME - TARGET DELTA V PROGRAM (P76).
000021:                                                                                                  #  2)    FUNCTIONAL DESCRIPTION - UPON ENTRY BY ASTRONAUT ACTION, P76 FLASHES DSKY REQUESTS TO THE ASTRONAUT
000022:                                                                                                  #        TO PROVIDE VIA DSKY (1) THE DELTA V TO BE APPLIED TO THE OTHER VEHICLE STATE VECTOR AND (2) THE
000023:                                                                                                  #        TIME (TIG) AT WHICH THE OTHER VEHICLE VELOCITY WAS CHANGED BY EXECUTION OF A THRUSTING MANEUVER. THE
000024:                                                                                                  #        OTHER VEHICLE STATE VECTOR IS INTEGRATED TO TIG AND UPDATED BY THE ADDITION OF DELTA V (DELTA V HAVING
000025:                                                                                                  #        BEEN TRANSFORMED FROM LV TO REF COSYS).  USING INTEGRVS, THE PROGRAM THEN INTEGRATES THE OTHER
000026:                                                                                                  #        VEHICLE STATE VECTOR TO THE STATE VECTOR OF THIS VEHICLE, THUS INSURING THAT THE W-MATRIX AND BOTH VEHICLE
000027:                                                                                                  #        STATES CORRESPOND TO THE SAME TIME.
000028:                                                                                                  #  3)    ERASABLE INITIALIZATION REQUIRED - NONE.
000029:                                                                                                  #  4)    CALLING SEQUENCES AND EXIT MODES - CALLED BY ASTRONAUT REQUEST THRU DSKY V 37 E 76E.
000030:                                                                                                  #        EXITS BY TCF ENDOFJOB.
000031:                                                                                                  #  5)    OUTPUT - OTHER VEHICLE STATE VECTOR INTEGRATED TO TIG AND INCREMENTED BY DELTA V IN REF COSYS.
000032:                                                                                                  #        THE PUSHLIST CONTAINS THE MATRIX BY WHICH THE INPUT DELTA V MUST BE POST-MULTIPLIED TO CONVERT FROM LV
000033:                                                                                                  #        TO REF COSYS.
000034:                                                                                                  #  6)    DEBRIS - OTHER VEHICLE STATE VECTOR.
000035:                                                                                                  #  7)    SUBROUTINES CALLED - BANKCALL, GOXDSPF, CSMPREC (OR LEMPREC), ATOPCSM (OR ATOPLEM), INTSTALL, INTWAKE, PHASCHNG
000036:                                                                                                  #        INTPRET, INTEGRVS, AND MINIRECT.
000037:                                                                                                  #  8)    FLAG USE - MOONFLAG, CMOONFLAG, INTYPFLG, RASFLAG, AND MARKCTR.
000038:
000039: 30,2000                                           BANK     30
000040: 13,2000                                           SETLOC   P76LOC
000041: 13,2000                                           BANK
000042:
000043: 13,2071                                           COUNT*   $$/P76
000044:
000045: 13,2071  E7,1412                                  EBANK=   TIG
000046:
000047: 13,2071           05546        P76                TC       UPFLAG
000048: 13,2072           00031                           ADRES    TRACKFLG
000049:
000050: 13,2073           32220                           CAF      V06N84                                #  FLASH LAST DELTA V,
000051: 13,2074           04662                           TC       BANKCALL                              #  AND WAIT FOR KEYBOARD ACTION.
000052: 13,2075           20720                           CADR     GOFLASH
000053: 13,2076           12212                           TCF      ENDP76
000054: 13,2077           02101                           TC       +2                                    #  PROCEED
000055: 13,2100           02073                           TC       -5                                    #  STORE DATA AND REPEAT FLASHING
000056: 13,2101           32221                           CAF      V06N84     +1                         #  FLASH VERB 06 NOUN 33, DISPLAY LAST TIG,
000057: 13,2102           04662                           TC       BANKCALL                              #  AND WAIT FOR KEYBOARD ACTION.
000058: 13,2103           20720                           CADR     GOFLASH
000059: 13,2104           12212                           TCF      ENDP76
000060: 13,2105           02107                           TC       +2
000061: 13,2106           02101                           TC       -5
000062: 13,2107           06006                           TC       INTPRET                               #  RETURN TO INTERPRETIVE CODE
000063: 13,2110           77745                           DLOAD                                          #  SET D(MPAC)=TIG IN CSEC B28
000064: 13,2111           03413                                    TIG
000065: 13,2112           34041                           STCALL   TDEC1                                 #  SET TDEC1=TIG FOR ORBITAL INTEGRATION
000066: 13,2113           27105                                    OTHPREC
000067: 13,2114           53575        COMPMAT            VLOAD    UNIT
000068: 13,2115           00001                                    RATT


000070: 13,2116           77676                           VCOMP                                          #  U(-R)
000071: 13,2117           00031                           STORE    24D                                   #  U(-R) TO 24D
000072: 13,2120           53435                           VXV      UNIT                                  #  U(-R) X V = U(V X R)
000073: 13,2121           00007                                    VATT
000074: 13,2122           00023                           STORE    18D
000075: 13,2123           53435                           VXV      UNIT                                  #  U(V X R) X U(-R) = U((R X V) X R)
000076: 13,2124           00031                                    24D
000077: 13,2125           24015                           STOVL    12D
000078: 13,2126           03540                                    DELVOV
000079: 13,2127           76505                           VXM      VSL1                                  #  V(MPAC)=DELTA V IN REFCOSYS
000080: 13,2130           00015                                    12D
000081: 13,2131           77655                           VAD
000082: 13,2132           00007                                    VATT
000083: 13,2133           00007                           STORE    6                                     #  V(PD6)=VATT + DELTA V
000084: 13,2134           77624                           CALL                                           #  PREVENT WOULD-BE USER OF ORBITAL
000085: 13,2135           27442                                    INTSTALL                              #  INTEG FROM INTERFERING WITH UPDATING
000086: 13,2136           77624                           CALL
000087: 13,2137           26222                                    P76SUB1
000088: 13,2140           53775                           VLOAD    VSR*
000089: 13,2141           00007                                    6
000090: 13,2142           57176                                    0,2
000091: 13,2143           25543                           STOVL    VCV
000092: 13,2144           00001                                    RATT
000093: 13,2145           77657                           VSR*
000094: 13,2146           57176                                    0,2
000095: 13,2147           15535                           STODL    RCV
000096: 13,2150           03413                                    TIG
000097: 13,2151           01517                           STORE    TET
000098: 13,2152           71214                           CLEAR    DLOAD
000099: 13,2153           01673                                    INTYPFLG
000100: 13,2154           01571                                    TETTHIS
000101: 13,2155           34041        INTOTHIS           STCALL   TDEC1
000102: 13,2156           27135                                    INTEGRVS
000103: 13,2157           77624                           CALL
000104: 13,2160           27442                                    INTSTALL
000105: 13,2161           77624                           CALL
000106: 13,2162           26222                                    P76SUB1                               #  SET/CLEAR MOONFLAG
000107: 13,2163           77775                           VLOAD
000108: 13,2164           00017                                    RATT1
000109: 13,2165           01503                           STORE    RRECT
000110: 13,2166           15535                           STODL    RCV
000111: 13,2167           00015                                    TAT
000112: 13,2170           25517                           STOVL    TET
000113: 13,2171           00025                                    VATT1
000114: 13,2172           77624                           CALL
000115: 13,2173           23435                                    MINIRECT
000116: 13,2174           77776                           EXIT
000117: 13,2175           05412                           TC       PHASCHNG
000118: 13,2176           04024                           OCT      04024


000120: 13,2177           05546                           TC       UPFLAG
000121: 13,2200           00236                           ADRES    REINTFLG
000122:
000123: 13,2201           06006                           TC       INTPRET
000124: 13,2202           77624                           CALL
000125: 13,2203           26760                                    ATOPOTH
000126: 13,2204           77531                           SSP      EXIT
000127: 13,2205           00053                                    QPRET
000128: 13,2206           26211                                    OUT
000129: 13,2207           04662                           TC       BANKCALL                              #  PERMIT USE OF ORBITAL INTEGRATION
000130: 13,2210           27477                           CADR     INTWAKE1
000131: 13,2211           77776        OUT                EXIT
000132: 13,2212           35021        ENDP76             CAF      ZERO
000133: 13,2213           55126                           TS       MARKCTR                               #  CLEAR RR TRACKING MARK COUNTER
000134: 13,2214           55125                           TS       VHFCNT
000135:
000136: 13,2215           37716                           CAF      NEGONE
000137: 13,2216           55734                           TS       MRKBUF2                               #  INVALIDATE MARK BUFFER
000138:
000139: 13,2217           14106                           TCF      GOTOPOOH
000140:
000141: 13,2220           01524        V06N84             NV       0684
000142: 13,2221           01441                           NV       0633
000143: 13,2222           67214        P76SUB1            CLEAR    SLOAD
000144: 13,2223           00263                                    MOONFLAG
000145: 13,2224           00050                                    X2
000146: 13,2225           43030                           BHIZ     SET                                   #  X2=0...CLEAR MOONFLAG
000147: 13,2226           26230                                    +2                                    #    =2.....SET MOONFLAG
000148: 13,2227           00063                                    MOONFLAG
000149: 13,2230           77616                           RVQ
000150:

End of include-file P76.agc.  Parent file is MAIN.agc


