
Source Code


000002:                                                                                                  ## Copyright:   Public domain.
000003:                                                                                                  ## Filename:    RESTART_TABLES.agc
000004:                                                                                                  ## Purpose:     A section of Comanche revision 051.
000005:                                                                                                  ##              It is part of the reconstructed source code for the
000006:                                                                                                  ##              original release of the flight software for the Command
000007:                                                                                                  ##              Module's (CM) Apollo Guidance Computer (AGC) for Apollo 11.
000008:                                                                                                  ##              The code has been recreated from a copy of Comanche 055. It
000009:                                                                                                  ##              has been adapted such that the resulting bugger words
000010:                                                                                                  ##              exactly match those specified for Comanche 51 in NASA drawing
000011:                                                                                                  ##              2021153D, which gives relatively high confidence that the
000012:                                                                                                  ##              reconstruction is correct.
000013:                                                                                                  ## Reference:   pp. 211-221
000014:                                                                                                  ## Assembler:   yaYUL
000015:                                                                                                  ## Contact:     Ron Burkey <info@sandroid.org>.
000016:                                                                                                  ## Website:     www.ibiblio.org/apollo/index.html
000017:                                                                                                  ## Mod history: 2019-07-30 MAS  Created from Comanche 55.
000018:


000020:                                                                                                  #  RESTART TABLES
000021:                                                                                                  #  ------------------
000022:
000023:                                                                                                  #  THERE ARE TWO FORMS OF RESTART TABLES FOR EACH GROUP.  THEY ARE KNOWN AS THE EVEN RESTART TABLES AND THE ODD
000024:                                                                                                  #  RESTART TABLES.  THE ODD TABLES HAVE ONLY ONE ENTRY OF THREE LOCATIONS WHILE THE EVEN TABLES HAVE TWO ENTRIES
000025:                                                                                                  #  EACH USING THREE LOCATIONS.  THE INFORMATION AS TO WHETHER IT IS A JOB, WAITLIST, OR A LONGCALL IS GIVEN BY THE
000026:                                                                                                  #  WAY THINGS ARE PUT IN TO THE TABLES.
000027:
000028:                                                                                                  #  A JOB HAS ITS PRIORITY STORED IN PRDTTAB OF THE CORRECT PHASE SPOT - A POSITIVE PRIORITY INDICATES A
000029:                                                                                                  #  FINDVAC JOB, A NEGATIVE PRIORITY A NOVAC.  THE 2CADR OF THE JOB IS STORED IN THE CADRTAB.
000030:                                                                                                  #  FOR EXAMPLE,
000031:
000032:                                                                                                  #                5.7SPOT         OCT     23000
000033:                                                                                                  #                                2CADR   SOMEJOB
000034:
000035:                                                                                                  #  A RESTART OF GROUP 5 WITH PHASE SEVEN WOULD THEN CAUSE SOMEJOB TO BE RESTARTED AS A FINDVAC WITH PRIORITY 23.
000036:
000037:                                                                                                  #                5.5SPOT         OCT     -23000
000038:                                                                                                  #                                2CADR   ANYJOB
000039:
000040:                                                                                                  #  HERE A RESTART OF GROUP 5 WITH PHASE 7 WOULD CAUSE ANYJOB TO BE RESTARTED AS A NOVAC WITH PRIORITY 23.
000041:                                                                                                  #  A LONGCALL HAS ITS GENADR OF ITS 2CADR STORED NEGATIVELY AND ITS BBCON STORED POSITIVELY.  IN ITS PRDTTAB IS
000042:                                                                                                  #  PLACED THE LOCATION OF A DP REGISTER THAT CONTAINS THE DELTA TIME THAT LONGCALL HAD BEEN ORIGINALLY STARTED
000043:                                                                                                  #  WITH.  EXAMPLE,
000044:
000045:                                                                                                  #                3.6SPOT         GENADR  DELTAT
000046:                                                                                                  #                                -GENADR LONGTASK
000047:                                                                                                  #                                BBCON   LONGTASK
000048:
000049:                                                                                                  #                                OCT     31000
000050:                                                                                                  #                                2CADR   JOBAGAIN
000051:
000052:                                                                                                  #  THIS WOULD START UP LONGTASK AT THE APPROPRIATE TIME, OR IMMEDIATELY IF THE TIME HAD ALREADY PASSED.  IT SHOULD
000053:                                                                                                  #  BE NOTED THAT IF DELTAT IS IN A SWITCHED E BANK, THIS INFORMATOIN SHOULD BE IN THE BBCON OF THE 2CADR OF THE
000054:                                                                                                  #  TASK.  FROM ABOVE, WE SEE THAT THE SECOND PART OF THIS PHASE WOULD BE STARTED AS A JOB WITH A PRIORITY OF 31.
000055:
000056:                                                                                                  #  WAITLIST CALLS ARE IDENTIFIED BY THE FACT THAT THEIR 2CADR IS STORED NEGATIVELY.  IF PRDTTAB OF THE PHASE SPOT
000057:                                                                                                  #  IS POSITIVE, THEN IT CONTAINS THE DELTA TIME, IF PRDTTAB IS NEGATIVE THEN IT IS THE -GENADR OF AN ERASABLE
000058:                                                                                                  #  LOCATION CONTAINING THE DELTA TIME, THAT IS, THE TIME IS STORED INDIRECTLY. IT SHOULD BE NOTED AS ABOVE, THAT
000059:                                                                                                  #  IF THE TIME IS STORED INDIRECTLY, THE BBCON MUST CONTAIN THE NECESSARY E BANK INFORMATION IF APPLICABLE.  WITH
000060:                                                                                                  #  WAITLIST WE HAVE ONE FURTHER OPTION, IF -0 IS STORED IN PRDTTAB, IT WILL CAUSE AN IMMEDIATE RESTART OF THE
000061:                                                                                                  #  TASK.  EXAMPLES,
000062:
000063:                                                                                                  #                                OCT     77777           THIS WILL CAUSE AN IMMEDIATE RESTART
000064:                                                                                                  #                                -2CADR  ATASK           OF THE TASK :ATASK:
000065:
000066:                                                                                                  #                                DEC     200             IF THE TIME OF THE 2 SECONDS SINCE DUMMY
000067:                                                                                                  #                                -2CADR  DUMMY           WAS PUT ON WAITLIST IS UP, IT WILL BEGIN
000068:                                                                                                  #                                                        IN 10 MS, OTHERWISE IT WILL BEGIN WHEN
000069:                                                                                                  #                                                        IT NORMALLY WOULD HAVE BEGUN.


000071:                                                                                                  #                                -GENADR DTIME           WHERE DTIME CONTAINS THE DELTA TIME
000072:                                                                                                  #                                -2CADR  TASKTASK        OTHERWISE THIS IS AS ABOVE
000073:
000074:                                                                                                  #  ***** NOW THE TABLES THEMSELVES *****
000075:
000076: 01,2000                                           BANK     01
000077: 01,2000                                           SETLOC   RESTART
000078: 01,2000                                           BANK
000079:
000080: 01,2000                                           COUNT    01/RSTAB
000081:
000082: 01,2000                        PRDTTAB            EQUALS   12000                                 #  USED TO FIND THE PRIORITY OR DELTATIME
000083: 01,2000                        CADRTAB            EQUALS   12001                                 #  THIS AND THE NEXT RELATIVE LOC CONTAIN
000084:                                                                                                  #  RESTART 2CADR
000085:
000086: 01,2000           00063        SIZETAB            TC       1.2SPOT    -12006
000087: 01,2001           00010                           TC       1.3SPOT    -12004
000088: 01,2002           00063                           TC       2.2SPOT    -12006
000089: 01,2003           00024                           TC       2.3SPOT    -12004
000090: 01,2004           00063                           TC       3.2SPOT    -12006
000091: 01,2005           00043                           TC       3.3SPOT    -12004
000092: 01,2006           00063                           TC       4.2SPOT    -12006
000093: 01,2007           00107                           TC       4.3SPOT    -12004
000094: 01,2010           00242                           TC       5.2SPOT    -12006
000095: 01,2011           00260                           TC       5.3SPOT    -12004
000096: 01,2012           00336                           TC       6.2SPOT    -12006
000097: 01,2013           00346                           TC       6.3SPOT    -12004
000098: 01,2014  01,2071               1.2SPOT            EQUALS   3.2SPOT
000099:
000100:                                                                                                  #  ANY MORE GROUP 1.EVEN RESTART VALUES SHOULD GO HERE
000101:
000102: 01,2014           00170        1.3SPOT            DEC      120        B-14                       #  THIS NUMBER MUST EQUAL C(JTAGTIME)
000103: 01,2015  E6,1661                                  EBANK=   AOG
000104: 01,2015           74570 45711                     -2CADR   SETJTAG
000105:
000106: 01,2017           10000        1.5SPOT            OCT      10000
000107: 01,2020  E6,1466                                  EBANK=   DAPDATR1
000108: 01,2020           02405 34066                     2CADR    REDO40.9
000109:
000110: 01,2022           10000        1.7SPOT            OCT      10000
000111: 01,2023  E6,1413                                  EBANK=   ESTROKER
000112: 01,2023           02074 56066                     2CADR    RELINUS
000113:
000114: 01,2025           10000        1.11SPOT           OCT      10000
000115: 01,2026  E6,1413                                  EBANK=   ESTROKER
000116: 01,2026           02345 76066                     2CADR    PIKUP20
000117:
000118:                                                                                                  #  ANY MORE GROUP 1.ODD RESTART VALUES SHOULD GO HERE
000119:
000120: 01,2030  01,2071               2.2SPOT            EQUALS   1.2SPOT
000121:
000122:                                                                                                  #  ANY MORE GROUP 2.EVEN RESTART VALUES SHOULD GO HERE


000124:
000125: 01,2030           02654        2.3SPOT            GENADR   600SECS
000126: 01,2031           75150                           -GENADR  STATEINT
000127: 01,2032  E3,1554                                  EBANK=   RRECTCSM
000128: 01,2032           26063                           BBCON    STATEINT
000129:
000130: 01,2033           05000        2.5SPOT            OCT      05000
000131: 01,2034  E3,1554                                  EBANK=   RRECTCSM
000132: 01,2034           02636 26063                     2CADR    STATINT1
000133:
000134: 01,2036           10000        2.7SPOT            OCT      10000
000135: 01,2037  E7,1734                                  EBANK=   MRKBUF2
000136: 01,2037           02630 70067                     2CADR    R22
000137:
000138: 01,2041           14000        2.11SPOT           OCT      14000
000139: 01,2042  E5,1751                                  EBANK=   LANDMARK
000140: 01,2042           02576 62065                     2CADR    V94ENTER
000141:
000142: 01,2044           10000        2.13SPOT           OCT      10000
000143: 01,2045  E7,1734                                  EBANK=   MRKBUF2
000144: 01,2045           02377 56067                     2CADR    REDOR22
000145:
000146:                                                                                                  #  ANY MORE GROUP 2.ODD RESTART VALUES SHOULD GO HERE
000147:
000148: 01,2047  01,2071               3.2SPOT            EQUALS   4.2SPOT
000149:
000150:                                                                                                  #  ANY MORE GROUP 3.EVEN RESTART VALUES SHOULD GO HERE
000151:
000152: 01,2047           20000        3.3SPOT            OCT      20000
000153: 01,2050  E7,1427                                  EBANK=   TGO
000154: 01,2050           02427 34067                     2CADR    S40.13
000155:
000156: 01,2052           00000        3.5SPOT            DEC      0          B-14
000157: 01,2053           00000                           DEC      0          B-14
000158: 01,2054           00000                           DEC      0          B-14
000159:
000160: 01,2055           22000        3.7SPOT            OCT      22000
000161: 01,2056  E3,1706                                  EBANK=   TEPHEM
000162: 01,2056           02117 70063                     2CADR    MATRXJOB
000163:
000164: 01,2060           22000        3.11SPOT           OCT      22000
000165: 01,2061  E3,1706                                  EBANK=   TEPHEM
000166: 01,2061           02253 70063                     2CADR    REP11
000167:
000168: 01,2063           22000        3.13SPOT           OCT      22000
000169: 01,2064  E3,1706                                  EBANK=   TEPHEM
000170: 01,2064           02026 70063                     2CADR    REP11A
000171:
000172: 01,2066           76347        3.15SPOT           -GENADR  TGO        +1
000173: 01,2067  E7,1427                                  EBANK=   TGO
000174: 01,2067           75011 27710                     -2CADR   ENGINOFF
000175:


000177:                                                                                                  #  ANY MORE GROUP 3.ODD RESTART VALUES SHOULD GO HERE
000178:
000179: 01,2071           77777        4.2SPOT            OCT      77777
000180: 01,2072  E7,1412                                  EBANK=   TIG
000181: 01,2072           75207 27710                     -2CADR   PRECHECK
000182:
000183: 01,2074           30000                           OCT      30000
000184: 01,2075  E7,1674                                  EBANK=   DELVIMU
000185: 01,2075           02534 50067                     2CADR    P47BODY
000186:
000187: 01,2077           77777        4.4SPOT            OCT      77777
000188: 01,2100  E7,1412                                  EBANK=   TIG
000189: 01,2100           75207 27710                     -2CADR   PRECHECK
000190:
000191: 01,2102           05664                           DEC      2996       B-14
000192: 01,2103  E6,1466                                  EBANK=   DAPDATR1
000193: 01,2103           75443 27711                     -2CADR   TTG/0
000194:
000195: 01,2105           77777        4.6SPOT            OCT      77777
000196: 01,2106  E7,1412                                  EBANK=   TIG
000197: 01,2106           75207 27710                     -2CADR   PRECHECK
000198:
000199: 01,2110           04700                           DEC      2496       B-14
000200: 01,2111  E7,1412                                  EBANK=   TIG
000201: 01,2111           75203 27710                     -2CADR   TIG-5
000202:
000203:                                                                                                  #  ANY MORE GROUP 4.EVEN RESTART VALUES SHOULD GO HERE
000204:
000205: 01,2113           00050        4.3SPOT            DEC      40         B-14
000206: 01,2114  E6,1423                                  EBANK=   PACTOFF
000207: 01,2114           75115 27711                     -2CADR   DOTVCON
000208:
000209: 01,2116           00240        4.5SPOT            DEC      160        B-14
000210: 01,2117  E6,1423                                  EBANK=   PACTOFF
000211: 01,2117           75064 27711                     -2CADR   DOSTRULL
000212:
000213: 01,2121           00764        4.7SPOT            DEC      500        B-14
000214: 01,2122  E6,1423                                  EBANK=   PACTOFF
000215: 01,2122           75165 27711                     -2CADR   TIG-0
000216:
000217: 01,2124           00372        4.11SPOT           DEC      250        B-14
000218: 01,2125  E6,1466                                  EBANK=   DAPDATR1
000219: 01,2125           74235 27711                     -2CADR   V97E40.6
000220:
000221: 01,2127           00310        4.13SPOT           DEC      200        B-14
000222: 01,2130  E7,1777                                  EBANK=   WHOCARES
000223: 01,2130           74270 27710                     -2CADR   R40ENABL
000224:
000225: 01,2132           16000        4.15SPOT           OCT      16000                                 #  PRELAUNCH OPTICAL VERIFICATION
000226: 01,2133  E5,1757                                  EBANK=   OGC


000228: 01,2133           02000 66065                     2CADR    COMPVER                               #  CALLS FOR OPTICS DATA AGAIN (STD LEADIN)
000229:
000230: 01,2135           16000        4.17SPOT           OCT      16000                                 #   PRELAUNCH AZIMUTH CHANGE
000231: 01,2136  E5,1671                                  EBANK=   XSM
000232: 01,2136           03742 66065                     2CADR    AZMTHCG1
000233:
000234: 01,2140           01672        4.21SPOT           GENADR   P40TMP                                #  DELTA TIME USED IN SETTING UP
000235: 01,2141           75340                           -GENADR  TIGBLNK                               #  LONG CALL OF TIGBLNK BY P40,P41
000236: 01,2142  E7,1672                                  EBANK=   P40TMP
000237: 01,2142           50067                           BBCON    TIGBLNK
000238:
000239: 01,2143           12000        4.23SPOT           OCT      12000                                 #  PROTECT P40S/SV BY P40 P41
000240: 01,2144  E7,1412                                  EBANK=   TIG
000241: 01,2144           02204 50067                     2CADR    P40S/SV
000242:
000243: 01,2146           24000        4.25SPOT           OCT      24000
000244: 01,2147     0302                                  EBANK=   BESTI
000245: 01,2147           02000 32060                     2CADR    PROG52
000246:
000247: 01,2151           00372        4.27SPOT           DEC      250        B-14
000248: 01,2152  E6,1423                                  EBANK=   PACTOFF
000249: 01,2152           74775 27711                     -2CADR   DOTVCRCS
000250:
000251: 01,2154           13000        4.31SPOT           OCT      13000
000252: 01,2155  E5,1765                                  EBANK=   STAR
000253: 01,2155           02533 30065                     2CADR    R51        +1
000254:
000255: 01,2157           04064        4.33SPOT           DEC      2100       B-14                       #  PROTECT CONTINUING JOB TO START P63
000256: 01,2160  E6,1661                                  EBANK=   AOG
000257: 01,2160           75403 23711                     -2CADR   WAKEP62
000258:
000259: 01,2162           12000        4.35SPOT           OCT      12000
000260: 01,2163  E6,1466                                  EBANK=   DAPDATR1
000261: 01,2163           02246 50066                     2CADR    POSTBURN
000262:
000263: 01,2165           00764        4.37SPOT           DEC      500        B-14
000264: 01,2166  E7,1412                                  EBANK=   TIG
000265: 01,2166           75222 27710                     -2CADR   TIGAVEG
000266:
000267: 01,2170           17000        4.41SPOT           OCT      17000                                 #  PROTECT DISPLAY JOB IN P67
000268: 01,2171  E6,1661                                  EBANK=   AOG
000269: 01,2171           02512 54066                     2CADR    P67.1
000270:
000271: 01,2173           76003        4.43SPOT           -GENADR  S61DT                                 #  PROTECT TASK TO START PREREAD,ENTRY
000272: 01,2174  E6,1774                                  EBANK=   S61DT                                 #  S61.1C WILL CHANGE EBANK=EB7 FOR PREREAD
000273: 01,2174           75212 23711                     -2CADR   S61.1C
000274:
000275: 01,2176           13000        4.45SPOT           OCT      13000                                 #  PROTECT CONTINUING JOB S61.1
000276: 01,2177  E6,1661                                  EBANK=   AOG                                   #  (ENTRY IMU ALIGNMENT)


000278: 01,2177           02603 54066                     2CADR    S61.1A     -1
000279:
000280: 01,2201           17000        4.47SPOT           OCT      17000                                 #  PROTECT HUNTEST ITERATION.
000281: 01,2202  E6,1661                                  EBANK=   AOG
000282: 01,2202           03014 52066                     2CADR    PRE-HUNT
000283:
000284: 01,2204           77777        4.51SPOT           OCT      77777                                 #  PROTECT FDAI ATTITUDE
000285: 01,2205  E6,1704                                  EBANK=   BODY3                                 #  ERROR DISPLAY IN P11
000286: 01,2205           75457 07711                     -2CADR   ATERTASK
000287:
000288: 01,2207           77777        4.53SPOT           DEC      -0         B-14
000289: 01,2210  E7,1777                                  EBANK=   END-E7                                #  EBANK7 FOR TIG
000290: 01,2210           74254 27710                     -2CADR   V97ETASK
000291:
000292: 01,2212           13000        4.55SPOT           OCT      13000                                 #  PROTECT P65 RESPONSIVE DISPLAY.
000293: 01,2213  E7,1451                                  EBANK=   RTINIT
000294: 01,2213           02457 54067                     2CADR    P65.1
000295:
000296: 01,2215           76105        4.57SPOT           -GENADR  P40TMP
000297: 01,2216  E7,1672                                  EBANK=   P40TMP
000298: 01,2216           75277 27710                     -2CADR   TIGON
000299:
000300: 01,2220           77777        4.61SPOT           OCT      77777
000301: 01,2221  E6,1423                                  EBANK=   PACTOFF
000302: 01,2221           75152 27711                     -2CADR   IGNITION
000303:
000304: 01,2223           77777        4.63SPOT           OCT      77777
000305: 01,2224  E6,1423                                  EBANK=   PACTOFF
000306: 01,2224           75003 27711                     -2CADR   DOSPSOFF
000307:
000308: 01,2226           00012        4.65SPOT           DEC      10         B-14
000309: 01,2227  E7,1412                                  EBANK=   TIG
000310: 01,2227           75203 27710                     -2CADR   TIG-5
000311:
000312: 01,2231           77777        4.67SPOT           DEC      -0         B-14
000313: 01,2232  E6,1474                                  EBANK=   CSMMASS
000314: 01,2232           74336 27711                     -2CADR   V97TTASK
000315:
000316: 01,2234           00372        4.71SPOT           DEC      250        B-14
000317: 01,2235  E6,1466                                  EBANK=   DAPDATR1                              #  (FOR RCSDAPON)
000318: 01,2235           74321 27711                     -2CADR   V97TRCS
000319:
000320: 01,2237           77777        4.73SPOT           DEC      -0         B-14
000321: 01,2240  E6,1444                                  EBANK=   V97VCNTR
000322: 01,2240           74304 27711                     -2CADR   V97PTASK
000323:
000324: 01,2242           77777        4.75SPOT           DEC      -0         B-14
000325: 01,2243  E6,1466                                  EBANK=   DAPDATR1
000326: 01,2243           74242 27711                     -2CADR   SPSOFF97
000327:


000329: 01,2245           77777        4.77SPOT           DEC      -0         B-14
000330: 01,2246  E6,1423                                  EBANK=   PACTOFF
000331: 01,2246           75165 27711                     -2CADR   TIG-0
000332:
000333:                                                                                                  #  ANY MORE GROUP 4.ODD RESTART VALUES SHOULD GO HERE
000334:
000335: 01,2250           32000        5.2SPOT            OCT      32000
000336: 01,2251  E7,1431                                  EBANK=   DVCNTR
000337: 01,2251           03236 76067                     2CADR    NORMLIZE
000338:
000339: 01,2253           00310                           DEC      200        B-14
000340: 01,2254  E6,1661                                  EBANK=   AOG
000341: 01,2254           74472 01711                     -2CADR   REREADAC
000342:
000343: 01,2256           20000        5.4SPOT            OCT      20000
000344: 01,2257  E7,1431                                  EBANK=   DVCNTR
000345: 01,2257           03104 76067                     2CADR    SERVICER
000346:
000347: 01,2261           00310                           DEC      200        B-14
000348: 01,2262  E6,1661                                  EBANK=   AOG
000349: 01,2262           74472 01711                     -2CADR   REREADAC
000350:
000351:                                                                                                  #  ANY MORE GROUP 5.EVEN RESTART VALUES SHOULD GO HERE
000352:
000353: 01,2264           00310        5.3SPOT            DEC      200        B-14
000354: 01,2265  E6,1661                                  EBANK=   AOG
000355: 01,2265           74472 01711                     -2CADR   REREADAC
000356:
000357: 01,2267           77777        5.5SPOT            OCT      77777
000358: 01,2270  E6,1661                                  EBANK=   AOG
000359: 01,2270           75026 01711                     -2CADR   REDO5.5
000360:
000361: 01,2272           20000        5.7SPOT            OCT      20000                                 #  USED BY PRELAUNCH
000362: 01,2273  E5,1671                                  EBANK=   XSM
000363: 01,2273           02456 66065                     2CADR    RSTGTS1
000364:
000365: 01,2275           77777        5.11SPOT           OCT      77777
000366: 01,2276  E5,1671                                  EBANK=   XSM
000367: 01,2276           75175 11712                     -2CADR   ALLOOP1
000368:
000369: 01,2300           20000        5.13SPOT           OCT      20000
000370: 01,2301  E5,1671                                  EBANK=   XSM
000371: 01,2301           02527 66065                     2CADR    WTLISTNT
000372:
000373: 01,2303           20000        5.15SPOT           OCT      20000
000374: 01,2304  E5,1671                                  EBANK=   XSM
000375: 01,2304           03324 66065                     2CADR    RESTEST1
000376:
000377: 01,2306           20000        5.17SPOT           OCT      20000
000378: 01,2307  E5,1671                                  EBANK=   XSM


000380: 01,2307           05217 04065                     2CADR    GEOSTRT4
000381:
000382: 01,2311           22000        5.21SPOT           OCT      22000
000383: 01,2312  E5,1671                                  EBANK=   XSM
000384: 01,2312           02636 66065                     2CADR    ALFLT1
000385:
000386: 01,2314           77777        5.23SPOT           OCT      77777
000387: 01,2315  E5,1671                                  EBANK=   XSM
000388: 01,2315           75152 11712                     -2CADR   SPECSTS
000389:
000390: 01,2317           20000        5.25SPOT           OCT      20000
000391: 01,2320  E5,1671                                  EBANK=   XSM
000392: 01,2320           03335 66065                     2CADR    RESTEST3
000393:
000394: 01,2322           20000        5.27SPOT           OCT      20000
000395: 01,2323  E5,1671                                  EBANK=   XSM
000396: 01,2323           03303 66065                     2CADR    RESTAIER
000397:
000398: 01,2325           00000        5.31SPOT           DEC      0          B-14
000399: 01,2326           00000                           DEC      0          B-14
000400: 01,2327           00000                           DEC      0          B-14
000401:
000402: 01,2330           20000        5.33SPOT           OCT      20000
000403: 01,2331  E5,1671                                  EBANK=   XSM
000404: 01,2331           03360 66065                     2CADR    RESCHNG
000405:
000406: 01,2333           00000        5.35SPOT           DEC      0          B-14
000407: 01,2334           00000 00000                     2DEC     0          B-28
000408:
000409: 01,2336           77777        5.37SPOT           OCT      77777
000410: 01,2337  E6,1661                                  EBANK=   AOG
000411: 01,2337           74744 01711                     -2CADR   CHEKAVEG
000412:
000413: 01,2341           77777        5.41SPOT           OCT      77777                                 #  TO PROTECT PREREAD AT TIG-30A
000414: 01,2342  E7,1431                                  EBANK=   DVCNTR                                #        TIG-15 T+60
000415: 01,2342           75076 01710                     -2CADR   PREREAD
000416:
000417:                                                                                                  #  ANY MORE GROUP 5.ODD RESTART VALUES SHOULD GO HERE
000418:
000419: 01,2344           77777        6.2SPOT            OCT      77777                                 #  USED BY P40 AFTER GIMB DR TST TO REPOS'N
000420: 01,2345  E6,1476                                  EBANK=   AK                                    #  ENGINE UNTIL TVCDAPON
000421: 01,2345           75536 37711                     -2CADR   PRE40.6
000422:
000423: 01,2347           00144                           DEC      100        B-14
000424: 01,2350  E7,1660                                  EBANK=   TTOGO
000425: 01,2350           74517 27710                     -2CADR   CLOKTASK
000426:
000427:                                                                                                  #  ANY MORE 6.ODD RESTART VALUES SHOULD GO HERE


000429:
000430: 01,2352           00144        6.3SPOT            DEC      100        B-14
000431: 01,2353  E7,1412                                  EBANK=   TIG
000432: 01,2353           74517 27710                     -2CADR   CLOKTASK
000433:
000434: 01,2355           30000        6.5SPOT            OCT      30000                                 #  PROTECT INCREMENTING OF TIME2,TIME1 BY
000435: 01,2356  E3,1706                                  EBANK=   TEPHEM                                #  P27NUPDATE PROGRAM)
000436: 01,2356           03573 56063                     2CADR    TIMEDIDR
000437:
000438: 01,2360           00000        6.7SPOT            OCT      0
000439: 01,2361           00000                           OCT      0
000440: 01,2362           00000                           OCT      0
000441:
000442: 01,2363           76052        6.11SPOT           -GENADR  CM/GYMDT                              #  PROTECT TASK TO READ CDUS.
000443: 01,2364  E6,1725                                  EBANK=   CM/GYMDT                              #  FOR ENTRY DAP
000444: 01,2364           75343 45711                     -2CADR   READGYMB
000445:
000446: 01,2366           00000        6.13SPOT           DEC      0          B-14
000447: 01,2367           00000                           DEC      0          B-14
000448: 01,2370           00000                           DEC      0          B-14
000449:


000451:                                                                                                  #  PROGRAM DESCRIPTION: NEWPHASE                                         DATE:  11 NOV 1966
000452:                                                                                                  #  MOD: 1                                                                ASSEMBLY:  SUNBURST REV
000453:                                                                                                  #  MOD BY: COPPS                                                         LOG SECTION: PHASE TABLE MAINTENANCE
000454:
000455:                                                                                                  #  FUNCTIONAL DESCRIPTION:
000456:
000457:                                                                                                  #        NEWPHASE IS THE QUICK WAY TO MAKE A NON VARIABLE PHASE CHANGE.  IT INCLUDES THE OPTION OF SETTING
000458:                                                                                                  #        TBASE OF THE GROUP.  IF TBASE IS TO BE SET, -C(TIME1) IS STORED IN THE TBASE TABLE AS FOLLOWS:
000459:
000460:                                                                                                  #                (L-1)   TBASE0
000461:                                                                                                  #                (L)     TBASE1  (IF GROUP=1)
000462:                                                                                                  #                (L+1)
000463:                                                                                                  #                (L+2)   TBASE2  (IF GROUP=2)
000464:                                                                                                  #                -----
000465:                                                                                                  #                (L+6)   TBASE4  (IF GROUP=4)
000466:                                                                                                  #                (L+7)
000467:                                                                                                  #                (L+8)   TBASE5  (IF GROUP=5)
000468:
000469:                                                                                                  #        IN ANY CASE, THE NEGATIVE OF THE PHASE, FOLLOWED (IN THE NEXT REGISTER) BY THE PHASE, IS STORED IN THE
000470:                                                                                                  #        PHASE TABLE AS FOLLOWS:
000471:
000472:                                                                                                  #                (L)     -PHASE1 (IF GROUP=1)
000473:                                                                                                  #                (L+1)   PHASE1
000474:                                                                                                  #                (L+2)   -PHASE2 (IF GROUP=2)
000475:                                                                                                  #                (L+3)   PHASE2
000476:                                                                                                  #                -----
000477:                                                                                                  #                (L+7)   PHASE4
000478:                                                                                                  #                (L+8)   -PHASE5 (IF GROUP=5)
000479:                                                                                                  #                (L+9)   PHASE5
000480:
000481:                                                                                                  #  CALLING SEQUENCE:
000482:
000483:                                                                                                  #        EXAMPLE IS FOR PLACING A PHASE OF FIVE INTO GROUP THREE:
000484:
000485:                                                                                                  #        1)      IF TBASE IS NOT TO BE SET:
000486:                                                                                                  #                        L-1     CA      FIVE
000487:                                                                                                  #                        L       TC      NEWPHASE
000488:                                                                                                  #                        L+1     OCT     00003
000489:
000490:                                                                                                  #        2)      IF TBASE IS TO BE SET:
000491:                                                                                                  #                        L-1     CS      FIVE
000492:                                                                                                  #                        L       TC      NEWPHASE
000493:                                                                                                  #                        L+1     OCT     00003
000494:
000495:                                                                                                  #  SUBROUTINES CALLED:  NONE
000496:
000497:                                                                                                  #  NORMAL EXIT MODE:  AT L+2 OF CALLING SEQUENCE
000498:
000499:                                                                                                  #  ALARM OR ABORT EXITS:  NONE
000500:
000501:                                                                                                  #  OUTPUT:  PHASE TABLE AND TBASE TABLE UPDATED
000502:
000503:                                                                                                  #  ERASABLE INITIALIZATION REQ,D:  NONE


000505:                                                                                                  #  DEBRIS:  A,L,TEMPG
000506:
000507:                                                                                                  #  *** WARNING *** THIS PROGRAM IS TO BE PLACED IN FIXED-FIXED AND UNSWITCHED ERASABLE.
000508:
000509:    4114                                           BLOCK    02
000510:    4000                                           SETLOC   FFTAG1
000511:    4000                                           BANK
000512:
000513:    4114                                           COUNT*   $$/PHASE
000514:
000515:    4114           00004        NEWPHASE           INHINT
000516:
000517:    4115           54001                           TS       L                                     #  SAVE FOR FURTHER USE
000518:
000519:    4116           50002                           NDX      Q                                     #  OBTAIN THE GROUP NUMBER
000520:    4117           30000                           CA       0
000521:    4120           24002                           INCR     Q                                     #  OBTAIN THE RETURN ADDRESS
000522:    4121           60000                           DOUBLE                                         #  SAVE THE GROUP IN A FORM USED FOR
000523:    4122           54061                           TS       TEMPG                                 #  INDEXING
000524:
000525:    4123           10001                           CCS      L                                     #  SEE IF WE ARE TO SET TBASE
000526:    4124           14133                           TCF      +7                                    #  NO, THE DELTA T WAS POSITIVE
000527:    4125           14133                           TCF      +6
000528:
000529:    4126           24000        NUFAZ+10           INCR     A                                     #  SET TBASE AND STORE PHASE CORRECTLY
000530:    4127           54001                           TS       L
000531:
000532:    4130           40025                           CS       TIME1                                 #  SET TBASE
000533:    4131           50061                           NDX      TEMPG
000534:    4132           55051                           TS       TBASE1     -2
000535:
000536:    4133           40001                           CS       L                                     #  NOW PUT THE PHASE IN THE RIGHT TABLE LOC
000537:    4134           50061                           NDX      TEMPG
000538:    4135           52751                           DXCH     -PHASE1    -2
000539:
000540:    4136           00003                           RELINT
000541:    4137           00002                           TC       Q                                     #  NOW RETURN TO CALLER
000542:
000543:

End of include-file RESTART_TABLES.agc.  Parent file is MAIN.agc


