
Source Code


000002:                                                                                                  ## Copyright:   Public domain.
000003:                                                                                                  ## Filename:    S-BAND_ANTENNA_FOR_CM.agc
000004:                                                                                                  ## Purpose:     A section of Comanche revision 051.
000005:                                                                                                  ##              It is part of the reconstructed source code for the
000006:                                                                                                  ##              original release of the flight software for the Command
000007:                                                                                                  ##              Module's (CM) Apollo Guidance Computer (AGC) for Apollo 11.
000008:                                                                                                  ##              The code has been recreated from a copy of Comanche 055. It
000009:                                                                                                  ##              has been adapted such that the resulting bugger words
000010:                                                                                                  ##              exactly match those specified for Comanche 51 in NASA drawing
000011:                                                                                                  ##              2021153D, which gives relatively high confidence that the
000012:                                                                                                  ##              reconstruction is correct.
000013:                                                                                                  ## Reference:   pp. 934-935
000014:                                                                                                  ## Assembler:   yaYUL
000015:                                                                                                  ## Contact:     Ron Burkey <info@sandroid.org>.
000016:                                                                                                  ## Website:     www.ibiblio.org/apollo/index.html
000017:                                                                                                  ## Mod history: 2019-07-30 MAS  Created from Comanche 55.
000018:


000020: 23,3205                                           BANK     23
000021: 42,2000                                           SETLOC   SBAND
000022: 42,2000                                           BANK
000023:
000024: 42,3652                                           COUNT*   $$/R05
000025: 42,3652  E4,1417                                  EBANK=   EMSALT
000026:
000027: 42,3652           04662        SBANDANT           TC       BANKCALL                              #  V 64 E GETS US HERE
000028: 42,3653           17653                           CADR     R02BOTH                               #  CHECK IF IMU IS ON AND ALIGNED
000029: 42,3654           06006                           TC       INTPRET
000030: 42,3655           45034                           RTB      CALL
000031: 42,3656           45510                                    LOADTIME                              #  PICKUP CURRENT TIME SCALED B-28
000032: 42,3657           47477                                    CDUTRIG                               #  COMPUTE SINES AND COSINES OF CDU ANGLES
000033: 42,3660           34041                           STCALL   TDEC1                                 #  ADVANCE INTEGRATION TO TIME IN TDEC1
000034: 42,3661           27114                                    CSMCONIC                              #  USING CONIC INTEGRATION
000035: 42,3662           46135                           SLOAD    BHIZ                                  #  ORIGIN OF REFERENCE INERTIAL SYSTEM IS
000036: 42,3663           00050                                    X2                                    #  EARTH = 0, MOON = 2
000037: 42,3664           65677                                    EISOI
000038: 42,3665           77775                           VLOAD
000039: 42,3666           00001                                    RATT
000040: 42,3667           00003                           STORE    RCM                                   #  MOVE RATT TO PREVENT WIPEOUT
000041: 42,3670           45145                           DLOAD    CALL                                  #  MOON, PUSH ON
000042: 42,3671           00015                                    TAT                                   #  GET ORIGINAL TIME
000043: 42,3672           54115                                    LUNPOS                                #  COMPUTE POSITION VECTOR OF MOON
000044: 42,3673           57455                           VAD      VCOMP                                 #  R= -(REM+RCM) = NEG. OF S/C POS. VEC
000045: 42,3674           00003                                    RCM
000046: 42,3675           77650                           GOTO
000047: 42,3676           65701                                    EISOI      +2
000048: 42,3677           57575        EISOI              VLOAD    VCOMP                                 #  EARTH, R= -RCM
000049: 42,3700           00001                                    RATT
000050: 42,3701           64201                           SETPD    MXV                                   #  RCS TO STABLE MEMBER- B-1X B-29X B+1
000051: 42,3702           00003                                    2D                                    #  2D
000052: 42,3703           01736                                    REFSMMAT                              #  STABLE MEMBER.  B-1X B-29X B+1= B-29
000053: 42,3704           65372                           VSL1     PDDL                                  #  8D
000054: 42,3705           15335                                    HI6ZEROS
000055: 42,3706           24025                           STOVL    YAWANG                                #  ZERO OUT YAWANG, SET UP FOR SMNB
000056: 42,3707           00003                                    RCM                                   #  TRANSFORMATION.  SM COORD.  SCALED B-29
000057: 42,3710           77624                           CALL
000058: 42,3711           47644                                    *SMNB*
000059: 42,3712           00003                           STORE    R                                     #  SAVE NAV. BASE COORDINATES
000060: 42,3713           63256                           UNIT     PDVL                                  #  14D
000061: 42,3714           00003                                    R
000062: 42,3715           72431                           VPROJ    VSL2                                  #  COMPUTE PROJECTION OF VECTOR INTO CM
000063: 42,3716           15327                                    HIUNITZ                               #  XY-PLANE, R-(R.UZ)UZ
000064: 42,3717           40045                           BVSU     BOV                                   #  CLEAR OVERFLOW INDICATOR IF SET
000065: 42,3720           00003                                    R
000066: 42,3721           65722                                    COVCNV
000067: 42,3722           40056        COVCNV             UNIT     BOV                                   #  TEST OVERFLOW FOR INDICATION OF NULL
000068: 42,3723           65737                                    NOADJUST                              #  VECTOR
000069: 42,3724           50206                           PUSH     DOT                                   #  20D


000071: 42,3725           15333                                    HIUNITX                               #  COMPUTE YAW ANGLE = ACOS (URP.UX)
000072: 42,3726           65552                           SL1      ACOS                                  #  REVOLUTIONS SCALED B0
000073: 42,3727           50315                           PDVL     DOT                                   #  22D YAWANG
000074: 42,3730           00017                                    URP
000075: 42,3731           15331                                    HIUNITY                               #  COMPUTE FOLLOWING- URP.UY
000076: 42,3732           51152                           SL1      BPL                                   #  POSITIVE
000077: 42,3733           65737                                    NOADJUST                              #  YES, 0-180 DEGREES
000078: 42,3734           45345                           DLOAD    DSU                                   #  NO, 181-360 DEGREES 20D
000079: 42,3735           15343                                    DPPOSMAX                              #  COMPUTE 2 PI MINUS YAW ANGLE
000080: 42,3736           77606                           PUSH                                           #  22D YAWANG
000081: 42,3737           50375        NOADJUST           VLOAD    DOT                                   #  COMPUTE PITCH ANGLE
000082: 42,3740           00011                                    UR                                    #  ACOS (UR.UZ) - PI/2
000083: 42,3741           15327                                    HIUNITZ
000084: 42,3742           65552                           SL1      ACOS                                  #  REVOLUTIONS B0
000085: 42,3743           77625                           DSU
000086: 42,3744           15325                                    HIDP1/4
000087: 42,3745           16321                           STODL    RHOSB
000088: 42,3746           00025                                    YAWANG
000089: 42,3747           02323                           STORE    GAMMASB                               #  PATCH FOR CHECKOUT
000090: 42,3750           77776                           EXIT
000091: 42,3751           31044                           CA       EXTVBACT                              #  IS BIT 5 STILL ON
000092: 42,3752           75013                           MASK     BIT5
000093: 42,3753           00006                           EXTEND
000094: 42,3754           15534                           BZF      ENDEXT                                #  NO, WE HAVE BEEN ANSWERED
000095: 42,3755           33771                           CAF      V06N51                                #  DISPLAY ANGLES
000096: 42,3756           04662                           TC       BANKCALL
000097: 42,3757           20600                           CADR     GOMARKFR
000098: 42,3760           05625                           TC       B5OFF                                 #  TERMINATE
000099: 42,3761           05625                           TC       B5OFF
000100: 42,3762           05217                           TC       ENDOFJOB                              #  RECYCLE
000101: 42,3763           35015                           CAF      BIT3                                  #  IMMEDIATE RETURN
000102: 42,3764           05526                           TC       BLANKET                               #  BLANK R3
000103: 42,3765           35017                           CAF      BIT1                                  #  DELAY MINIMUM TIME TO ALLOW DISPLAY IN
000104: 42,3766           04662                           TC       BANKCALL
000105: 42,3767           01732                           CADR     DELAYJOB
000106: 42,3770           13654                           TCF      SBANDANT   +2
000107: 42,3771           01463        V06N51             VN       0651
000108: 42,3772                        RCM                EQUALS   2D
000109: 42,3772                        UR                 EQUALS   8D
000110: 42,3772                        URP                EQUALS   14D
000111: 42,3772                        YAWANG             EQUALS   20D
000112: 42,3772                        PITCHANG           EQUALS   22D
000113: 42,3772  0000002               R                  EQUALS   RCM
000114: 42,3772  30,2000                                  SBANK=   LOWSUPER
000115:

End of include-file S-BAND_ANTENNA_FOR_CM.agc.  Parent file is MAIN.agc


