
Source Code


000002:                                                                                                  ## Copyright:   Public domain.
000003:                                                                                                  ## Filename:    SERVICE_ROUTINES.agc
000004:                                                                                                  ## Purpose:     A section of Comanche revision 051.
000005:                                                                                                  ##              It is part of the reconstructed source code for the
000006:                                                                                                  ##              original release of the flight software for the Command
000007:                                                                                                  ##              Module's (CM) Apollo Guidance Computer (AGC) for Apollo 11.
000008:                                                                                                  ##              The code has been recreated from a copy of Comanche 055. It
000009:                                                                                                  ##              has been adapted such that the resulting bugger words
000010:                                                                                                  ##              exactly match those specified for Comanche 51 in NASA drawing
000011:                                                                                                  ##              2021153D, which gives relatively high confidence that the
000012:                                                                                                  ##              reconstruction is correct.
000013:                                                                                                  ## Reference:   pp. 1485-1492
000014:                                                                                                  ## Assembler:   yaYUL
000015:                                                                                                  ## Contact:     Ron Burkey <info@sandroid.org>.
000016:                                                                                                  ## Website:     www.ibiblio.org/apollo/index.html
000017:                                                                                                  ## Mod history: 2019-07-30 MAS  Created from Comanche 55.
000018:


000020:    7722                                           BLOCK    3
000021:    6000                                           SETLOC   FFTAG6
000022:    6000                                           BANK
000023:    7722                                           COUNT    03/FLAG
000024:
000025:    7722           54001        UPENT2             TS       L                                     #  WHICH FLAGWORD IS IT
000026:    7723           75023                           MASK     OCT7
000027:    7724           56001                           XCH      L                                     #  SAVE IN L FOR INDEXING
000028:
000029:    7725           75731                           MASK     OCT77770                              #  OBTAIN THE BIT INFORMATION
000030:    7726           00004                           INHINT                                         #  PREVENT INTERUPTS
000031:    7727           54061                           TS       ITEMP1                                #  STORE THE BIT INFORMATION TEMPORARIALY
000032:
000033:    7730           50001                           NDX      L
000034:    7731           40074                           CS       FLAGWRD0
000035:    7732           70061                           MASK     ITEMP1
000036:    7733           50001                           NDX      L
000037:    7734           26074                           ADS      FLAGWRD0
000038:    7735           00003                           RELINT                                         #  RELEASE INTERUPT INHIBIT
000039:
000040:    7736           24002                           INCR     Q                                     #  OBTAIN THE CORRECT RETURN ADDRESS
000041:    7737           00002                           TC       Q                                     #  RETURN
000042:
000043:    7740           54001        DOWNENT2           TS       L                                     #  WHICH FLAGWORD IS IT
000044:    7741           75023                           MASK     OCT7
000045:    7742           56001                           XCH      L                                     #  SAVE IN L FOR INDEXING
000046:
000047:    7743           75731                           MASK     OCT77770                              #  OBTAIN THE BIT INFORMATION
000048:    7744           40000                           COM                                            #  START TO PROCESS THE INFORMATION
000049:
000050:    7745           00004                           INHINT                                         #  PREVENT INTERUPTS
000051:    7746           50001                           NDX      L
000052:    7747           70074                           MASK     FLAGWRD0
000053:    7750           50001                           NDX      L
000054:    7751           54074                           TS       FLAGWRD0
000055:    7752           00003                           RELINT                                         #  RELEASE INTERUPT INHIBIT
000056:
000057:    7753           24002                           INCR     Q                                     #  OBTAIN THE CORRECT RETURN ADDRESS
000058:    7754           00002                           TC       Q                                     #  RETURN
000059:
000060:    7755     5023               OCT7               EQUALS   SEVEN
000061: 10,3766                                           BANK     10
000062:


000064:                                                                                                  #  UPFLAG AND DOWNFLAG ARE ENTIRELY GENERAL FLAG SETTING AND CLEARING SUBROUTINES.  USING THEM, WHETHER OR
000065:                                                                                                  #  NOT IN INTERRUPT, ONE MAY SET OR CLEAR ANY SINGLE, NAMED BIT IN ANY ERASABLE REGISTER, SUBJECT OF COURSE TO
000066:                                                                                                  #  EBANK SETTING.  A "NAMED" BIT, AS THE WORD IS USED HERE, IS ANY BIT WITH A NAME FORMALLY ASSIGNED BY THE YUL
000067:                                                                                                  #  ASSEMBLER.
000068:
000069:                                                                                                  #  AT PRESENT THE ONLY NAMED BITS ARE THOSE IN THE FLAGWORDS.  ASSEMBLER CHANGES WILL MAKE IT POSSIBLE TO
000070:                                                                                                  #  NAME ANY BIT IN ERASABLE MEMORY.
000071:
000072:                                                                                                  #  CALLING SEQUENCES ARE AS FOLLOWS:-
000073:                                                                                                  #                TC      UPFLAG                  TC      DOWNFLAG
000074:                                                                                                  #                ADRES   NAME OF FLAG            ADRES   NAME OF FLAG
000075:
000076:                                                                                                  #  RETURN IS TO THE LOCATION FOLLOWING THE "ADRES" ABOUT .58 MS AFTER THE "TC".
000077:                                                                                                  #  UPON RETURN A CONTAINS THE CURRENT FLAGWRD SETTING.
000078:
000079:    5546                                           BLOCK    02
000080:    4000                                           SETLOC   FFTAG1
000081:    4000                                           BANK
000082:    5546                                           COUNT*   $$/FLAG
000083:
000084:    5546           30002        UPFLAG             CA       Q
000085:    5547           05564                           TC       DEBIT
000086:    5550           40000                           COM                                            #  +(15 - BIT)
000087:    5551           00006                           EXTEND
000088:    5552           04001                           ROR      LCHAN                                 #  SET BIT
000089:    5553           50061        COMFLAG            INDEX    ITEMP1
000090:    5554           54074                           TS       FLAGWRD0
000091:    5555           22063                           LXCH     ITEMP3
000092:    5556           00003                           RELINT
000093:    5557           00001                           TC       L
000094:
000095:    5560           30002        DOWNFLAG           CA       Q
000096:    5561           05564                           TC       DEBIT
000097:    5562           70001                           MASK     L                                     #  RESET BIT
000098:    5563           15553                           TCF      COMFLAG
000099:
000100:    5564           65017        DEBIT              AD       ONE                                   #  GET DE BITS
000101:    5565           00004                           INHINT
000102:    5566           54063                           TS       ITEMP3
000103:    5567           35026                           CA       LOW4                                  #  DEC15
000104:    5570           54061                           TS       ITEMP1
000105:    5571           50063                           INDEX    ITEMP3
000106:    5572           27777                           CA       0          -1                         #  ADRES
000107:    5573           54001                           TS       L
000108:    5574           35021                           CA       ZERO


000110:    5575           00006                           EXTEND
000111:    5576           10061                           DV       ITEMP1                                #  A = FLAGWRD, L = (15 - BIT)
000112:    5577           52062                           DXCH     ITEMP1
000113:    5600           50061                           INDEX    ITEMP1
000114:    5601           30074                           CA       FLAGWRD0
000115:    5602           54001                           TS       L                                     #  CURRENT STATE
000116:    5603           50062                           INDEX    ITEMP2
000117:    5604           45001                           CS       BIT15                                 #  -(15 - BIT)
000118:    5605           00002                           TC       Q
000119:


000121:                                                                                                  #  DELAYJOB- A GENERAL ROUTINE TO DELAY A JOB A SPECIFIC AMOUNT OF TIME BEFORE PICKING UP AGAIN.
000122:
000123:                                                                                                  #  ENTRANCE REQUIREMENTS...
000124:                                                                                                  #                CAF     DT              DELAY JOB FOR DT CENTISECS
000125:                                                                                                  #                TC      BANKCALL
000126:                                                                                                  #                CADR    DELAYJOB
000127:
000128: 06,3770                                           BANK     06
000129: 00,2000                                           SETLOC   DLAYJOB
000130: 00,2000                                           BANK
000131:
000132:                                                                                                  #  THIS MUST REMAIN IN BANK 0 *****************************************
000133:
000134: 00,3732                                           COUNT    00/DELAY
000135:
000136: 00,3732           00004        DELAYJOB           INHINT
000137: 00,3733           54002                           TS       Q                                     #  STORE DELAY DT IN Q FOR DLY -1 IN
000138: 00,3734           36214                           CAF      DELAYNUM                              #  WAITLIST
000139: 00,3735           54070        DELLOOP            TS       RUPTREG1
000140: 00,3736           50000                           INDEX    A
000141: 00,3737           31141                           CA       DELAYLOC                              #  IS THIS DELAYLOC AVAILABLE
000142: 00,3740           00006                           EXTEND
000143: 00,3741           13746                           BZF      OK2DELAY                              #  YES
000144:
000145: 00,3742           10070                           CCS      RUPTREG1                              #  NO, TRY NEXT DELAYLOC
000146: 00,3743           13735                           TCF      DELLOOP
000147:
000148: 00,3744           07755                           TC       BAILOUT                               #  NO AVAILABLE LOCS AVAILABLE.
000149: 00,3745           01104                           OCT      1104
000150:
000151: 00,3746           33766        OK2DELAY           CA       TCSLEEP                               #  SET WAITLIST IMMEDIATE RETURN
000152: 00,3747           54061                           TS       WAITEXIT
000153:
000154: 00,3750           30004                           CA       FBANK
000155: 00,3751           60070                           AD       RUPTREG1                              #  STORE BBANK FOR TASK CALL
000156: 00,3752           54001                           TS       L
000157:
000158: 00,3753           33767                           CAF      WAKECAD                               #  STORE CADR FOR TASK CALL
000159: 00,3754           15255                           TCF      DLY2       -1                         #  DLY IS IN WAITLIST ROUTINE
000160:
000161: 00,3755           04711        TCGETCAD           TC       MAKECADR                              #  GET CALLERS FCADR
000162:
000163: 00,3756           50070                           INDEX    RUPTREG1
000164: 00,3757           55141                           TS       DELAYLOC                              #  SAVE DELAY CADRS
000165:
000166: 00,3760           05175                           TC       JOBSLEEP
000167:
000168: 00,3761           35021        WAKER              CAF      ZERO
000169: 00,3762           50006                           INDEX    BBANK
000170: 00,3763           57141                           XCH      DELAYLOC                              #  MAKE DELAYLOC AVAILABLE


000172: 00,3764           05201                           TC       JOBWAKE
000173:
000174: 00,3765           05324                           TC       TASKOVER
000175:
000176: 00,3766           03753        TCSLEEP            GENADR   TCGETCAD   -2
000177: 00,3767           03761        WAKECAD            GENADR   WAKER
000178:


000180:                                                                                                  #  GENTRAN, A BLOCK TRANSFER ROUTINE.
000181:                                                                                                  #  WRITTEN BY D. EYLES
000182:                                                                                                  #  MOD 1 BY KERNAN                               UTILITYM REV 17 11/18/67
000183:                                                                                                  #  MOD 2 BY SCHULENBERG  (REMOVE RELINT)  SKIPPER REV 4 2/28/68
000184:
000185:                                                                                                  #  THIS ROUTINE IS USEFULL FOR TRANSFERING N CONSECUTIVE ERASABLE OR FIXED QUANTITIES TO SOME OTHER N
000186:                                                                                                  #  CONSECUTIVE ERASABLE LOCATIONS.  IF BOTH BLOCKS OF DATA ARE IN SWITCHABLE EBANKS, THEY MUST BE IN THE SAME ONE.
000187:
000188:                                                                                                  #  GENTRAN IS CALLABLE IN A JOB AS WELL AS A RUPT.  THE CALLING SEQUENCE IS:
000189:                                                                                                  #        I       CA      N-1             # OF QUANTITIES MINUS ONE.
000190:                                                                                                  #        I +1    TC      GENTRAN         IN FIXED-FIXED.
000191:                                                                                                  #        I +2    ADRES   L               STARTING ADRES OF DATA TO BE MOVED.
000192:                                                                                                  #        I +3    ADRES   M               STARTING ADRES OF DUPLICATION BLOCK.
000193:                                                                                                  #        I +4                            RETURNS HERE.
000194:
000195:                                                                                                  #  GENTRAN TAKES 25 MCT'S (300 MICROSECONDS) PER ITEM + 5 MCT'S (60 MICS) FOR ENTERING AND EXITING.
000196:                                                                                                  #  A, L AND ITEMP1 ARE NOT PRESERVED.
000197:
000198:    5606                                           BLOCK    02
000199:    4000                                           SETLOC   FFTAG4
000200:    4000                                           BANK
000201:
000202:    5606     0061                                  EBANK=   ITEMP1
000203:
000204:    5606                                           COUNT*   $$/TRAN
000205:
000206:    5606           00004        GENTRAN            INHINT
000207:    5607           54061                           TS       ITEMP1                                #  SAVE N-1.
000208:    5610           50002                           INDEX    Q                                     #  C(Q) = ADRES L.
000209:    5611           60000                           AD       0                                     #  ADRES (L + N - 1).
000210:    5612           50000                           INDEX    A
000211:    5613           30000                           CA       0                                     #  C(ABOVE).
000212:    5614           54001                           TS       L                                     #  SAVE DATA.
000213:    5615           30061                           CA       ITEMP1
000214:    5616           50002                           INDEX    Q
000215:    5617           60001                           AD       1                                     #  ADRES (M + N - 1).
000216:    5620           50000                           INDEX    A
000217:    5621           22000                           LXCH     0                                     #  STUFF IT.
000218:    5622           10061                           CCS      ITEMP1                                #  LOOP UNTIL N-1 = 0.
000219:    5623           15607                           TCF      GENTRAN    +1
000220:    5624           16710                           TCF      Q+2                                   #  RETURN TO CALLER.
000221:


000223:                                                                                                  #  B5OFF         ZERO BIT 5 OF EXTVBACT, WHICH IS SET BY TESTXACT.
000224:                                                                                                  #  MAY BE USED AS NEEDED BY ANY EXTENDED VERB WHICH HAS DONE TESTXACT
000225:
000226:    5625                                           COUNT*   $$/EXTVB
000227:
000228:    5625           45013        B5OFF              CS       BIT5
000229:    5626           71044                           MASK     EXTVBACT
000230:    5627           55044                           TS       EXTVBACT
000231:    5630           05217                           TC       ENDOFJOB
000232:


000234:                                                                                                  #  SUBROUTINES TO TURN OFF AND TURN ON TRACKER FAIL LIGHT.
000235:
000236:    5631           00004        TRFAILOF           INHINT
000237:    5632           47704                           CS       OCT40200                              #  TURN OFF TRACKER LIGHT
000238:    5633           71036                           MASK     DSPTAB     +11D
000239:    5634           65001                           AD       BIT15
000240:    5635           55036                           TS       DSPTAB     +11D
000241:    5636           41331                           CS       OPTMODES                              #  TO INSURE THAT OCDU FAIL WILL GO ON
000242:    5637           75011                           MASK     BIT7                                  #  AGAIN IF IT WAS ON IN ADDITION TO
000243:    5640           27331                           ADS      OPTMODES                              #  TRACKER FAIL.
000244:
000245:    5641           00003        REQ                RELINT
000246:    5642           00002                           TC       Q
000247:
000248:    5643           00004        TRFAILON           INHINT
000249:    5644           41036                           CS       DSPTAB     +11D                       #  TURN ON
000250:    5645           77704                           MASK     OCT40200
000251:    5646           27036                           ADS      DSPTAB     +11D
000252:    5647           15641                           TCF      REQ
000253:
000254:
000255:
000256:

End of include-file SERVICE_ROUTINES.agc.  Parent file is MAIN.agc


