
Source Code


000002:                                                                                                  ## Copyright:   Public domain.
000003:                                                                                                  ## Filename:    SINGLE_PRECISION_SUBROUTINES.agc
000004:                                                                                                  ## Purpose:     A section of Comanche revision 051.
000005:                                                                                                  ##              It is part of the reconstructed source code for the
000006:                                                                                                  ##              original release of the flight software for the Command
000007:                                                                                                  ##              Module's (CM) Apollo Guidance Computer (AGC) for Apollo 11.
000008:                                                                                                  ##              The code has been recreated from a copy of Comanche 055. It
000009:                                                                                                  ##              has been adapted such that the resulting bugger words
000010:                                                                                                  ##              exactly match those specified for Comanche 51 in NASA drawing
000011:                                                                                                  ##              2021153D, which gives relatively high confidence that the
000012:                                                                                                  ##              reconstruction is correct.
000013:                                                                                                  ## Reference:   p.  1207
000014:                                                                                                  ## Assembler:   yaYUL
000015:                                                                                                  ## Contact:     Ron Burkey <info@sandroid.org>.
000016:                                                                                                  ## Website:     www.ibiblio.org/apollo/index.html
000017:                                                                                                  ## Mod history: 2019-07-30 MAS  Created from Comanche 55.
000018:


000020:    5074                                           BLOCK    02
000021:
000022:                                                                                                  #  SINGLE PRECISION SINE AND COSINE
000023:
000024:    5074                                           COUNT    02/INTER
000025:
000026:    5074           65002        SPCOS              AD       HALF                                  #  ARGUMENTS SCALED AT PI
000027:    5075           55075        SPSIN              TS       TEMK
000028:    5076           15100                           TCF      SPT
000029:    5077           41075                           CS       TEMK
000030:    5100           60000        SPT                DOUBLE
000031:    5101           55075                           TS       TEMK
000032:    5102           15113                           TCF      POLLEY
000033:    5103           57075                           XCH      TEMK
000034:    5104           51075                           INDEX    TEMK
000035:    5105           65000                           AD       LIMITS
000036:    5106           40000                           COM
000037:    5107           61075                           AD       TEMK
000038:    5110           55075                           TS       TEMK
000039:    5111           15113                           TCF      POLLEY
000040:    5112           15131                           TCF      ARG90
000041:    5113           00006        POLLEY             EXTEND
000042:    5114           71075                           MP       TEMK
000043:    5115           55076                           TS       SQ
000044:    5116           00006                           EXTEND
000045:    5117           75047                           MP       C5/2
000046:    5120           67706                           AD       C3/2
000047:    5121           00006                           EXTEND
000048:    5122           71076                           MP       SQ
000049:    5123           67666                           AD       C1/2
000050:    5124           00006                           EXTEND
000051:    5125           71075                           MP       TEMK
000052:    5126           20001                           DDOUBL
000053:    5127           55075                           TS       TEMK
000054:    5130           00002                           TC       Q
000055:    5131           50000        ARG90              INDEX    A
000056:    5132           45000                           CS       LIMITS
000057:    5133           00002                           TC       Q                                     #  RESULT SCALED AT 1
000058:
000059:                                                                                                  #  SPROOT WAS DELETED IN REV 51 OF MASTER. ASS. CONT. HAS CARDS.
000060:
000061:
000062:
000063:

End of include-file SINGLE_PRECISION_SUBROUTINES.agc.  Parent file is MAIN.agc


