
Source Code


000002:                                                                                                  ## Copyright:   Public domain.
000003:                                                                                                  ## Filename:    STABLE_ORBIT_-_P38-P39.agc
000004:                                                                                                  ## Purpose:     A section of Comanche revision 051.
000005:                                                                                                  ##              It is part of the reconstructed source code for the
000006:                                                                                                  ##              original release of the flight software for the Command
000007:                                                                                                  ##              Module's (CM) Apollo Guidance Computer (AGC) for Apollo 11.
000008:                                                                                                  ##              The code has been recreated from a copy of Comanche 055. It
000009:                                                                                                  ##              has been adapted such that the resulting bugger words
000010:                                                                                                  ##              exactly match those specified for Comanche 51 in NASA drawing
000011:                                                                                                  ##              2021153D, which gives relatively high confidence that the
000012:                                                                                                  ##              reconstruction is correct.
000013:                                                                                                  ## Reference:   pp. 525-532
000014:                                                                                                  ## Assembler:   yaYUL
000015:                                                                                                  ## Contact:     Ron Burkey <info@sandroid.org>.
000016:                                                                                                  ## Website:     www.ibiblio.org/apollo/index.html
000017:                                                                                                  ## Mod history: 2019-07-30 MAS  Created from Comanche 55.
000018:


000020:                                                                                                  #  STABLE ORBIT RENDEZVOUS PROGRAMS (P38 AND P78)
000021:
000022:                                                                                                  #  MOD NO -1             LOG SECTION - STABLE ORBIT - P38-P39
000023:                                                                                                  #  MOD BY RUDNICKI.S     DATE 25JAN68
000024:
000025:                                                                                                  #  FUNCTIONAL DESCRIPTION
000026:
000027:                                                                                                  #        P38 AND P78 CALCULATE THE REQUIRED DELTA V AND OTHER INITIAL
000028:                                                                                                  #        CONDITIONS REQUIRED BY THE AGC TO (1) PUT THE ACTIVE VEHICLE
000029:                                                                                                  #        ON A TRANSFER TRAJECTORY THAT INTERCEPTS THE PASSIVE VEHICLE
000030:                                                                                                  #        ORBIT A GIVEN DISTANCE, DELTA R, EITHER AHEAD OF OR BEHIND THE
000031:                                                                                                  #        PASSIVE VEHICLE AND (2) ACTUALLY PLACE THE ACTIVE VEHICLE IN THE
000032:                                                                                                  #        PASSIVE VEHICLE ORBIT WITH A DELTA R SEPARATION BETWEEN THE TWO
000033:                                                                                                  #        VEHICLES
000034:
000035:                                                                                                  #  CALLING SEQUENCE
000036:
000037:                                                                                                  #        ASTRONAUT REQUEST THRU DSKY
000038:
000039:                                                                                                  #        V37E38E         IF THIS VEHICLE IS ACTIVE VEHICLE
000040:                                                                                                  #        V37E78E         IF OTHER VEHICLE IS ACTIVE VEHICLE
000041:
000042:                                                                                                  #  INPUT
000043:
000044:                                                                                                  #        (1)     SOI MANEUVER
000045:
000046:                                                                                                  #                (A)  TIG        TIME OF SOI MANEUVER
000047:                                                                                                  #                (B)  CENTANG    ORBITAL CENTRAL ANGLE OF THE PASSIVE VEHICLE
000048:                                                                                                  #                                DURING TRANSFER FROM TIG TO TIME OF INTERCEPT
000049:                                                                                                  #                (C)  DELTAR     THE DESIRED SEPARATION OF THE TWO VEHICLES
000050:                                                                                                  #                                SPECIFIED AS A DISTANCE ALONG THE PASSIVE VEHICLE
000051:                                                                                                  #                                ORBIT
000052:                                                                                                  #                (D)  OPTION     EQUALS 1 FOR SOI
000053:
000054:                                                                                                  #        (2)     SOR MANEUVER
000055:
000056:                                                                                                  #                (A)  TIG        TIME OF SOR MANEUVER
000057:                                                                                                  #                (B)  CENTANG    AN OPTIONAL RESPECIFICATION OF 1 (B) ABOVE
000058:                                                                                                  #                (C)  OPTION     EQUALS 2 FOR SOR
000059:                                                                                                  #                (D)  DELTTIME   THE TIME REQUIRED TO TRAVERSE DELTA R WHEN
000060:                                                                                                  #                                TRAVELING AT A VELOCITY EQUAL TO THE HORIZONTAL
000061:                                                                                                  #                                VELOCITY OF THE PASSIVE VEHICLE - SAVED FROM
000062:                                                                                                  #                                SOI PHASE
000063:                                                                                                  #                (E)  TINT       TIME OF INTERCEPT (SOI) - SAVED FROM SOI PHASE
000064:
000065:                                                                                                  #  OUTPUT
000066:
000067:                                                                                                  #        (1)  TRKMKCNT   NUMBER OF MARKS
000068:                                                                                                  #        (2)  TTOGO      TIME TO GO
000069:                                                                                                  #        (3)  +MGA       MIDDLE GIMBAL ANGLE


000071:                                                                                                  #        (4)  DSPTEM1    TIME OF INTERCEPT OF PASSIVE VEHICLE ORBIT
000072:                                                                                                  #                        (FOR SOI ONLY)
000073:                                                                                                  #        (5)  POSTTPI    PERIGEE ALTITUDE OF ACTIVE VEHICLE ORBIT AFTER
000074:                                                                                                  #                        THE SOI (SOR) MANEUVER
000075:                                                                                                  #        (6)  DELVTPI    MAGNITUDE OF DELTA V AT SOI (SOR) TIME
000076:                                                                                                  #        (7)  DELVTPF    MAGNITUDE OF DELTA V AT INTERCEPT TIME
000077:                                                                                                  #        (8)  DELVLVC    DELTA VELOCITY AT SOI (AND SOR) - LOCAL VERTICAL
000078:                                                                                                  #                        COORDINATES
000079:
000080:                                                                                                  #  SUBROUTINES USED
000081:
000082:                                                                                                  #        AVFLAGA
000083:                                                                                                  #        AVFLAGP
000084:                                                                                                  #        VNDSPLY
000085:                                                                                                  #        BANKCALL
000086:                                                                                                  #        GOFLASHR
000087:                                                                                                  #        GOTOPOOH
000088:                                                                                                  #        BLANKET
000089:                                                                                                  #        ENDOFJOB
000090:                                                                                                  #        PREC/TT
000091:                                                                                                  #        SELECTMU
000092:                                                                                                  #        INTRPVP
000093:                                                                                                  #        MAINRTNE
000094:
000095: 04,2742                                           BANK     04
000096: 04,2000                                           SETLOC   STBLEORB
000097: 04,2000                                           BANK
000098:
000099: 04,2742  E4,1770                                  EBANK=   SUBEXIT
000100: 04,2742                                           COUNT*   $$/P3879
000101:
000102: 04,2742           04627        P38                TC       AVFLAGA                               #  THIS VEHICLE ACTIVE
000103: 04,2743           02745                           TC       +2
000104: 04,2744           04642        P78                TC       AVFLAGP                               #  OTHER VEHICLE ACTIVE
000105: 04,2745           04647                           TC       P20FLGON                              #  SET UPDATFLG, TRACKFLG
000106: 04,2746           33274                           CAF      V06N33SR                              #  DISPLAY TIG
000107: 04,2747           03263                           TC       VNDSPLY
000108: 04,2750           33275                           CAF      V06N55SR                              #  DISPLAY CENTANG
000109: 04,2751           04662                           TCR      BANKCALL
000110: 04,2752           21057                           CADR     GOFLASHR
000111: 04,2753           14106                           TCF      GOTOPOOH                              #  TERMINATE
000112: 04,2754           12761                           TCF      +5                                    #  PROCEED
000113: 04,2755           12750                           TCF      -5                                    #  RECYCLE
000114: 04,2756           36214                           CAF      THREE                                 #  IMMEDIATE RETURN - BLANK R1, R2
000115: 04,2757           05526                           TCR      BLANKET
000116: 04,2760           15217                           TCF      ENDOFJOB
000117: 04,2761           35022                           CAF      FIVE
000118: 04,2762           55131                           TS       OPTION1
000119: 04,2763           35017                           CAF      ONE
000120: 04,2764           55132                           TS       OPTION2                               #  OPTION CODE IS SET TO 1


000122: 04,2765           33276                           CAF      V04N06SR                              #  DISPLAY OPTION CODE -1 = SOI, 2 = SOR
000123: 04,2766           04662                           TCR      BANKCALL
000124: 04,2767           21057                           CADR     GOFLASHR
000125: 04,2770           14106                           TCF      GOTOPOOH                              #  TERMINATE
000126: 04,2771           12776                           TCF      +5                                    #  PROCEED
000127: 04,2772           12765                           TCF      -5                                    #  RECYCLE
000128: 04,2773           35015                           CAF      BIT3                                  #  IMMEDIATE RETURN - BLANK R3
000129: 04,2774           05526                           TCR      BLANKET
000130: 04,2775           15217                           TCF      ENDOFJOB
000131: 04,2776           06006                           TC       INTPRET
000132: 04,2777           77731                           SSP
000133: 04,3000           03766                                    NN
000134: 04,3001           00002                                    2
000135: 04,3002           70535                           SLOAD    SR1
000136: 04,3003           01133                                    OPTION2
000137: 04,3004           71230                           BHIZ     DLOAD
000138: 04,3005           11013                                    OPTN1
000139: 04,3006           03656                                    TINT
000140: 04,3007           02611                           STORE    TINTSOI                               #  STORE FOR SOR PHASE
000141: 04,3010           77614                           CLRGO
000142: 04,3011           01230                                    OPTNSW                                #  OPTNSW; ON = SOI, OFF = SOR
000143: 04,3012           11042                                    JUNCTN1
000144: 04,3013           43014        OPTN1              SET      CLEAR                                 #  SOI
000145: 04,3014           01070                                    OPTNSW
000146: 04,3015           00670                                    UPDATFLG
000147: 04,3016           77624                           CALL
000148: 04,3017           11216                                    PREC/TT
000149: 04,3020           43214                           SET      DAD
000150: 04,3021           00470                                    UPDATFLG
000151: 04,3022           03413                                    TIG
000152: 04,3023           03656                           STORE    TINT                                  #  TI = TIG + TF
000153: 04,3024           01046                           STORE    DSPTEM1                               #  FOR DISPLAY
000154: 04,3025           77776                           EXIT
000155: 04,3026           33277                           CAF      V06N57SR                              #  DISPLAY DELTA R
000156: 04,3027           04662                           TCR      BANKCALL
000157: 04,3030           21057                           CADR     GOFLASHR
000158: 04,3031           14106                           TCF      GOTOPOOH                              #  TERMINATE
000159: 04,3032           13037                           TCF      +5                                    #  PROCEED
000160: 04,3033           13026                           TCF      -5                                    #  RECYCLE
000161: 04,3034           36211                           CAF      SIX                                   #  IMMEDIATE RETURN - BLANK R2, R3
000162: 04,3035           05526                           TCR      BLANKET
000163: 04,3036           15217                           TCF      ENDOFJOB
000164: 04,3037           33300                           CAF      V06N34SR                              #  DISPLAY TIME OF INTERCEPT
000165: 04,3040           03263                           TC       VNDSPLY
000166: 04,3041           06006                           TC       INTPRET
000167: 04,3042           45014        JUNCTN1            CLEAR    CALL
000168: 04,3043           04266                                    P39/79SW
000169: 04,3044           10712                                    SELECTMU                              #  SELECT MU, CLEAR FINALFLG, GO TO VN1645
000170: 04,3045           77624        RECYCLE            CALL
000171: 04,3046           11216                                    PREC/TT


000173: 04,3047           71214                           BOFF     DLOAD
000174: 04,3050           01350                                    OPTNSW
000175: 04,3051           11071                                    OPTN2
000176: 04,3052           03656                                    TINT
000177: 04,3053           34041                           STCALL   TDEC1                                 #  PRECISION UPDATE PASSIVE VEHICLE TO
000178: 04,3054           11247                                    INTRPVP                               #  INTERCEPT TIME
000179: 04,3055           53575                           VLOAD    UNIT
000180: 04,3056           00001                                    RATT                                  #  RP/(RP)
000181: 04,3057           47315                           PDVL     VXV
000182: 04,3060           00007                                    VATT
000183: 04,3061           60246                           ABVAL    NORM                                  #  (VP X RP/(RP))
000184: 04,3062           00047                                    X1
000185: 04,3063           56325                           PDDL     DDV
000186: 04,3064           02611                                    DELTAR
000187: 04,3065           77657                           SL*                                            #  DELTA R / (VP X RP/RP)
000188: 04,3066           20172                                    0          -7,1
000189: 04,3067           36613                           STCALL   DELTTIME                              #  DELTA T = (RP) DELTA R / (VP X RP)
000190: 04,3070           11075                                    JUNCTN2
000191: 04,3071           43345        OPTN2              DLOAD    DAD
000192: 04,3072           02611                                    TINTSOI
000193: 04,3073           00037                                    T
000194: 04,3074           03656                           STORE    TINT                                  #  TI = TI + TF
000195: 04,3075           45345        JUNCTN2            DLOAD    DSU
000196: 04,3076           03656                                    TINT
000197: 04,3077           02613                                    DELTTIME
000198: 04,3100           02615                           STORE    TARGTIME                              #  TT = TI - DELTA T
000199:
000200:                                                                                                  #  .... MAINRTNE ....
000201:
000202:                                                                                                  #  SUBROUTINES USED
000203:
000204:                                                                                                  #        S3435.25
000205:                                                                                                  #        PERIAPO1
000206:                                                                                                  #        SHIFTR1
000207:                                                                                                  #        VNDSPLY
000208:                                                                                                  #        BANKCALL
000209:                                                                                                  #        GOFLASH
000210:                                                                                                  #        GOTOPOOH
000211:                                                                                                  #        VN1645
000212:
000213: 04,3101           34041        MAINRTNE           STCALL   TDEC1                                 #  PRECISION UPDATE PASSIVE VEHICLE TO
000214: 04,3102           11247                                    INTRPVP                               #        TARGET TIME
000215: 04,3103           77745                           DLOAD
000216: 04,3104           03413                                    TIG
000217: 04,3105           03503                           STORE    INTIME
000218: 04,3106           77331                           SSP      VLOAD
000219: 04,3107           02371                                    SUBEXIT
000220: 04,3110           11114                                    TEST3979
000221: 04,3111           00001                                    RATT
000222: 04,3112           77624                           CALL
000223: 04,3113           72546                                    S3435.25
000224: 04,3114           43014        TEST3979           BOFF     BON


000226: 04,3115           04346                                    P39/79SW
000227: 04,3116           11125                                    MAINRTN1
000228: 04,3117           01311                                    FINALFLG
000229: 04,3120           11123                                    P39P79
000230: 04,3121           77614                           SET
000231: 04,3122           00470                                    UPDATFLG
000232: 04,3123           77776        P39P79             EXIT
000233: 04,3124           03152                           TC       DSPLY81                               #  FOR P39 AND P79
000234: 04,3125           51575        MAINRTN1           VLOAD    ABVAL
000235: 04,3126           03646                                    DELVEET3
000236: 04,3127           26635                           STOVL    DELVTPI                               #  DELTA V
000237: 04,3130           03640                                    VPASS4
000238: 04,3131           51451                           VSU      ABVAL
000239: 04,3132           03620                                    VTPRIME
000240: 04,3133           26637                           STOVL    DELVTPF                               #  DELTA V (FINAL) = V'T - VT
000241: 04,3134           03540                                    RACT3
000242: 04,3135           45115                           PDVL     CALL
000243: 04,3136           03612                                    VIPRIME
000244: 04,3137           45153                                    PERIAPO1                              #  GET PERIGEE ALTITUDE
000245: 04,3140           77624                           CALL
000246: 04,3141           45263                                    SHIFTR1
000247: 04,3142           02641                           STORE    POSTTPI
000248: 04,3143           43014                           BON      SET
000249: 04,3144           01311                                    FINALFLG
000250: 04,3145           11147                                    DSPLY58
000251: 04,3146           00470                                    UPDATFLG
000252: 04,3147           77776        DSPLY58            EXIT
000253: 04,3150           33301                           CAF      V06N58SR                              #  DISPLAY HP, DELTA V, DELTA V (FINAL)
000254: 04,3151           03263                           TC       VNDSPLY
000255: 04,3152           33302        DSPLY81            CAF      V06N81SR                              #  DISPLAY DELTA V (LV)
000256: 04,3153           03263                           TC       VNDSPLY
000257: 04,3154           06006                           TC       INTPRET
000258: 04,3155           77214                           CLEAR    VLOAD
000259: 04,3156           01267                                    XDELVFLG
000260: 04,3157           03646                                    DELVEET3
000261: 04,3160           37646                           STCALL   DELVSIN
000262: 04,3161           73002                                    VN1645                                #  DISPLAY TRKMKCNT, TTOGO, +MGA
000263: 04,3162           52014                           BON      GOTO
000264: 04,3163           04306                                    P39/79SW
000265: 04,3164           11203                                    P39/P79B
000266: 04,3165           11045                                    RECYCLE
000267:
000268:                                                                                                  #  STABLE ORBIT MIDCOURSE PROGRAM (P39 AND P79)
000269:
000270:                                                                                                  #  MOD NO -1             LOG SECTION - STABLE ORBIT - P38-P39
000271:                                                                                                  #  MOD BY RUDNICKI.S     DATE 25JAN68
000272:
000273:                                                                                                  #  FUNCTIONAL DESCRIPTION
000274:
000275:                                                                                                  #        P39 AND P79 CALCULATE THE REQUIRED DELTA V AND OTHER INITIAL
000276:                                                                                                  #        CONDITIONS REQUIRED BY THE AGC TO MAKE A MIDCOURSE CORRECTION


000278:                                                                                                  #        MANEUVER AFTER COMPLETING THE SOI MANEUVER BUT BEFORE MAKING
000279:                                                                                                  #        THE SOR MANEUVER
000280:
000281:                                                                                                  #  CALLING SEQUENCE
000282:
000283:                                                                                                  #        ASTRONAUT REQUEST THRU DSKY
000284:
000285:                                                                                                  #        V37E39E         IF THIS VEHICLE IS ACTIVE VEHICLE
000286:                                                                                                  #        V37E79E         IF OTHER VEHICLE IS ACTIVE VEHICLE
000287:
000288:                                                                                                  #  INPUT
000289:
000290:                                                                                                  #        (1)  TPASS4     TIME OF INTERCEPT - SAVED FROM P38/P78
000291:                                                                                                  #        (2)  TARGTIME   TIME THAT PASSIVE VEHICLE IS AT INTERCEPT POINT -
000292:                                                                                                  #                        SAVED FROM P38/P78
000293:
000294:                                                                                                  #  OUTPUT
000295:
000296:                                                                                                  #        (1)  TRKMKCNT   NUMBER OF MARKS
000297:                                                                                                  #        (2)  TTOGO      TIME TO GO
000298:                                                                                                  #        (3)  +MGA       MIDDLE GIMBAL ANGLE
000299:                                                                                                  #        (4)  DELVLVC    DELTA VELOCITY AT MID - LOCAL VERTICAL COORDINATES
000300:
000301:                                                                                                  #  SUBROUTINES USED
000302:
000303:                                                                                                  #        AVFLAGA
000304:                                                                                                  #        AVFLAGP
000305:                                                                                                  #        LOADTIME
000306:                                                                                                  #        SELECTMU
000307:                                                                                                  #        PRECSET
000308:                                                                                                  #        S34/35.1
000309:                                                                                                  #        MAINRTNE
000310:
000311: 04,3166           04627        P39                TC       AVFLAGA                               #  THIS VEHICLE ACTIVE
000312: 04,3167           00006                           EXTEND
000313: 04,3170           31422                           DCA      ATIGINC
000314: 04,3171           03175                           TC       P39/P79A
000315: 04,3172           04642        P79                TC       AVFLAGP                               #  OTHER VEHICLE ACTIVE
000316: 04,3173           00006                           EXTEND
000317: 04,3174           31424                           DCA      PTIGINC
000318: 04,3175           53764        P39/P79A           DXCH     KT                                    #  TIME TO PREPARE FOR BURN
000319: 04,3176           04647                           TC       P20FLGON                              #  SET UPDATFLG, TRACKFLG
000320: 04,3177           06006                           TC       INTPRET
000321: 04,3200           45014                           SET      CALL
000322: 04,3201           04066                                    P39/79SW
000323: 04,3202           10712                                    SELECTMU                              #  SELECT MU, CLEAR FINALFLG, GO TO VN1645
000324: 04,3203           43234        P39/P79B           RTB      DAD
000325: 04,3204           45510                                    LOADTIME
000326: 04,3205           02364                                    KT
000327: 04,3206           03413                           STORE    TIG                                   #  TIG = T (PRESENT) + PREPARATION TIME


000329: 04,3207           34041                           STCALL   TDEC1                                 #  PRECISION UPDATE ACTIVE AND PASSIVE
000330: 04,3210           45215                                    PRECSET                               #        VEHICLES TO TIG
000331: 04,3211           77624                           CALL
000332: 04,3212           74000                                    S34/35.1                              #  GET UNIT NORMAL
000333: 04,3213           52145                           DLOAD    GOTO
000334: 04,3214           02615                                    TARGTIME
000335: 04,3215           11101                                    MAINRTNE                              #  CALCULATE DELTA V AND DELTA V (LV)
000336:
000337:                                                                                                  #  .... PREC/TT ....
000338:
000339:                                                                                                  #  SUBROUTINES USED
000340:
000341:                                                                                                  #        PRECSET
000342:                                                                                                  #        TIMETHET
000343:                                                                                                  #        S34/35.1
000344:
000345: 04,3216           71220        PREC/TT            STQ      DLOAD
000346: 04,3217           02367                                    RTRN
000347: 04,3220           03413                                    TIG
000348: 04,3221           34041                           STCALL   TDEC1                                 #  PRECISION UPDATE ACTIVE AND PASSIVE
000349: 04,3222           45215                                    PRECSET                               #        VEHICLES TO TIG
000350: 04,3223           53775                           VLOAD    VSR*
000351: 04,3224           03554                                    RPASS3
000352: 04,3225           57176                                    0,2
000353: 04,3226           16657                           STODL    RVEC
000354: 04,3227           03754                                    CENTANG
000355: 04,3230           71406                           PUSH     COS
000356: 04,3231           16734                           STODL    CSTH
000357: 04,3232           43156                           SIN      SET
000358: 04,3233           03466                                    RVSW
000359: 04,3234           26732                           STOVL    SNTH
000360: 04,3235           03562                                    VPASS3
000361: 04,3236           77657                           VSR*
000362: 04,3237           57176                                    0,2
000363: 04,3240           36746                           STCALL   VVEC                                  #  GET TRANSFER TIME BASED ON CENTANG OF
000364: 04,3241           24744                                    TIMETHET                              #        PASSIVE VEHICLE
000365: 04,3242           77624                           CALL
000366: 04,3243           74000                                    S34/35.1                              #  GET UNIT NORMAL
000367: 04,3244           52145                           DLOAD    GOTO
000368: 04,3245           00037                                    T
000369: 04,3246           02367                                    RTRN
000370:
000371:                                                                                                  #  .... INTRPVP ....
000372:
000373:                                                                                                  #  SUBROUTINES USED
000374:
000375:                                                                                                  #        CSMPREC
000376:                                                                                                  #        LEMPREC
000377:
000378: 04,3247           43020        INTRPVP            STQ      BOFF                                  #  PRECISION UPDATE PASSIVE VEHICLE TO
000379: 04,3250           02367                                    RTRN                                  #        TDEC1
000380: 04,3251           01352                                    AVFLAG
000381: 04,3252           11257                                    OTHERV
000382: 04,3253           77624                           CALL


000384: 04,3254           27071                                    CSMPREC
000385: 04,3255           77650                           GOTO
000386: 04,3256           02367                                    RTRN
000387: 04,3257           77624        OTHERV             CALL
000388: 04,3260           27105                                    LEMPREC
000389: 04,3261           77650                           GOTO
000390: 04,3262           02367                                    RTRN
000391:
000392:                                                                                                  #  .... VNDSPLY ....
000393:
000394:                                                                                                  #  SUBROUTINES USED
000395:
000396:                                                                                                  #        BANKCALL
000397:                                                                                                  #        GOFLASH
000398:                                                                                                  #        GOTOPOOH
000399:
000400: 04,3263           00006        VNDSPLY            EXTEND                                         #  FLASH DISPLAY
000401: 04,3264           23767                           QXCH     RTRN
000402: 04,3265           55765                           TS       VERBNOUN
000403: 04,3266           31765                           CA       VERBNOUN
000404: 04,3267           04662                           TCR      BANKCALL
000405: 04,3270           20720                           CADR     GOFLASH
000406: 04,3271           14106                           TCF      GOTOPOOH                              #  TERMINATE
000407: 04,3272           01767                           TC       RTRN                                  #  PROCEED
000408: 04,3273           13266                           TCF      -5                                    #  RECYCLE
000409: 04,3274           01441        V06N33SR           VN       0633
000410: 04,3275           01467        V06N55SR           VN       0655
000411: 04,3276           01006        V04N06SR           VN       0406
000412: 04,3277           01471        V06N57SR           VN       0657
000413: 04,3300           01442        V06N34SR           VN       0634
000414: 04,3301           01472        V06N58SR           VN       0658
000415: 04,3302           01521        V06N81SR           VN       0681
000416:

End of include-file STABLE_ORBIT_-_P38-P39.agc.  Parent file is MAIN.agc


