
Source Code


000002:                                                                                                  ## Copyright:   Public domain.
000003:                                                                                                  ## Filename:    SXTMARK.agc
000004:                                                                                                  ## Purpose:     A section of Comanche revision 051.
000005:                                                                                                  ##              It is part of the reconstructed source code for the
000006:                                                                                                  ##              original release of the flight software for the Command
000007:                                                                                                  ##              Module's (CM) Apollo Guidance Computer (AGC) for Apollo 11.
000008:                                                                                                  ##              The code has been recreated from a copy of Comanche 055. It
000009:                                                                                                  ##              has been adapted such that the resulting bugger words
000010:                                                                                                  ##              exactly match those specified for Comanche 51 in NASA drawing
000011:                                                                                                  ##              2021153D, which gives relatively high confidence that the
000012:                                                                                                  ##              reconstruction is correct.
000013:                                                                                                  ## Reference:   pp. 222-235
000014:                                                                                                  ## Assembler:   yaYUL
000015:                                                                                                  ## Contact:     Ron Burkey <info@sandroid.org>.
000016:                                                                                                  ## Website:     www.ibiblio.org/apollo/index.html
000017:                                                                                                  ## Mod history: 2019-07-30 MAS  Created from Comanche 55.
000018:                                                                                                  ##              2021-05-30 ABS  20/SXTMK -> 10/SXTMK
000019:


000021:                                                                                                  #  PROGRAM NAME - SXTMARK                                        DATE - 5 APRIL 1967
000022:                                                                                                  #  PROGRAM MODIFIED BY 258/278 PROGRAMMERS                       LOG SECTION SXTMARK
000023:                                                                                                  #  MOD BY - R. MELANSON TO ADD DOCUMENTATION                     ASSEMBLY SUNDISK REV. 116
000024:                                                                                                  #
000025:                                                                                                  #  FUNCTIONAL DESCRIPTION-
000026:
000027:                                                                                                  #        SXTMARK IS CALLED FROM INTERNAL ROUTINES WHICH MAY REQUIRE STAR OR LANDMARK MARKINGS BY THE ASTRONAUT.  IF
000028:                                                                                                  #        THE MARK SYSTEM IS NOT IN USE, SXTMARK RESERVES A VAC AREA FOR MARKING AND REQUESTS EXECUTION OF THE MKVB51
000029:                                                                                                  #        ROUTINE VIA THE EXECUTIVE JOB PRIORITY LIST.  R21 USES THIS ROUTINE TO DETERMINE IF THE MARK SYSTEM CAN BE
000030:                                                                                                  #        USED.  IF YES, SXTMARK RETURNS TO R21 TO PERFORM ITS OWN MARK REQUESTS VIA THE V51 FLASH.
000031:
000032:                                                                                                  #  CALLING SEQUENCE-
000033:
000034:                                                                                                  #        CAF     (NO. MARK REQUESTS IN BITS 1-3 OF A)
000035:                                                                                                  #        TC      BANKCALL
000036:                                                                                                  #        CADR    SXTMARK
000037:
000038:                                                                                                  #  NORMAL EXIT MODE-
000039:
000040:                                                                                                  #        SWRETURN
000041:
000042:                                                                                                  #  ALARM OR ABORT EXIT MODE-
000043:
000044:                                                                                                  #        ABORT
000045:
000046:                                                                                                  #  OUTPUT-
000047:
000048:                                                                                                  #        1)      MARKSTAT CONTAINS MARK VALUE (BITS 14-12) AND VAC AREA ADDRESS
000049:                                                                                                  #        2)      QPRET = VAC AREA POINTER VALUE
000050:                                                                                                  #        3)      1ST WORD OF RESERVED VAC AREA SET TO +0
000051:                                                                                                  #        4)      PRIO32 PLACED IN A REGISTER
000052:
000053:                                                                                                  #  ERASABLE INITIALIZATION-
000054:
000055:                                                                                                  #        1)      BITS 1-3 OF A = NO. MARKS REQUESTED
000056:                                                                                                  #        2)      BITS 2,3 OF EXTVBACT = 0
000057:                                                                                                  #        3)      A VAC AREA MUST BE AVAILABLE (WORD 1 = ADDRESS OF VAC AREA)
000058:
000059:                                                                                                  #  DEBRIS-
000060:
000061:                                                                                                  #        A,Q,L,RUPTREG1,MARKSTAT,QPRET,BIT2 OF EXTVBACT
000062:
000063: 13,2036                                           BANK     13
000064: 07,2000                                           SETLOC   SXTMARKE
000065: 07,2000                                           BANK
000066:
000067: 07,2002  E7,1725                                  EBANK=   MRKBUF1
000068: 07,2002                                           COUNT    07/SXTMK
000069:
000070: 07,2002           00004        SXTMARK            INHINT
000071: 07,2003           54070                           TS       RUPTREG1                              #  NUMBER OF MARKS WANTED
000072:
000073: 07,2004           36211                           CAF      SIX                                   #  BIT2 = MARKING SYSTEM IN USE
000074: 07,2005           71044                           MASK     EXTVBACT                              #  BIT3 = EXTENDED VERB IN PROGRESS
000075: 07,2006           10000                           CCS      A
000076: 07,2007           02013                           TC       MKABORT                               #  SET THEREFORE ABORT


000078: 07,2010           35016                           CAF      BIT2                                  #  NOT SET
000079: 07,2011           27044                           ADS      EXTVBACT                              #  SET IT, RESET IN ENDMARK
000080: 07,2012           02015                           TC       MARKOK                                #  YES, FIND VAC AREA
000081:
000082: 07,2013           07755        MKABORT            TC       BAILOUT
000083: 07,2014           01211                           OCT      01211
000084: 07,2015           10400        MARKOK             CCS      VAC1USE                               #  FIND VAC AREA
000085: 07,2016           02031                           TC       MKVACFND
000086: 07,2017           10454                           CCS      VAC2USE
000087: 07,2020           02031                           TC       MKVACFND
000088: 07,2021           10530                           CCS      VAC3USE
000089: 07,2022           02031                           TC       MKVACFND
000090: 07,2023           10604                           CCS      VAC4USE
000091: 07,2024           02031                           TC       MKVACFND
000092: 07,2025           10660                           CCS      VAC5USE
000093: 07,2026           02031                           TC       MKVACFND
000094: 07,2027           07755                           TC       BAILOUT
000095: 07,2030           01207                           OCT      01207
000096:
000097: 07,2031           65016        MKVACFND           AD       TWO                                   #  ADDRESS OF VAC AREA
000098: 07,2032           55330                           TS       MARKSTAT
000099: 07,2033           50000                           INDEX    A
000100: 07,2034           54052                           TS       QPRET                                 #  STORE NEXT AVAILABLE MARK SLOT
000101:
000102: 07,2035           35021                           CAF      ZERO                                  #  SHOW VAC AREA OCCUPIED
000103: 07,2036           51330                           INDEX    MARKSTAT
000104: 07,2037           53777                           TS       0          -1
000105:
000106: 07,2040           05364                           TC       CHECKMM                               #  BACKUP MARK ROUTINE USES SXTMARK
000107: 07,2041           00065                           MM       53         B-14
000108: 07,2042           12044                           TCF      +2
000109: 07,2043           14675                           TCF      SWRETURN
000110: 07,2044           05364                           TC       CHECKMM
000111: 07,2045           00066                           MM       54         B-14
000112: 07,2046           12050                           TCF      +2
000113: 07,2047           14675                           TCF      SWRETURN
000114: 07,2050           35004                           CAF      BIT12                                 #  DESIRED NUMBER OF MARKS IN 12-14
000115: 07,2051           00006                           EXTEND
000116: 07,2052           70070                           MP       RUPTREG1
000117: 07,2053           56001                           XCH      L
000118: 07,2054           27330                           ADS      MARKSTAT
000119:
000120: 07,2055           37667                           CAF      PRIO32                                #  ENTER MARK JOB
000121: 07,2056           05134                           TC       NOVAC
000122: 07,2057     1330                                  EBANK=   MARKSTAT
000123: 07,2057           02347 16062                     2CADR    MKVB51
000124:
000125: 07,2061           00003                           RELINT
000126: 07,2062           14675                           TCF      SWRETURN                              #  SAME AS MODEEXIT
000127:


000129:                                                                                                  #  PROGRAM NAME - MKRELEAS                                       DATE - 5 APRIL 1967
000130:                                                                                                  #  PROGRAM MODIFIED BY 258/278 PROGRAMMERS                       LOG SECTION SXTMARK
000131:                                                                                                  #  MOD BY - R. MELANSON TO ADD DOCUMENTATION                     ASSEMBLY SUNDISK REV. 116
000132:
000133:                                                                                                  #  FUNCTIONAL DESCRIPTION-
000134:
000135:                                                                                                  #        MKRELEAS IS EXECUTED BY INTERNAL ROUTINES TO RELEASE THE MARK SYSTEM TO MAKE IT AVAILABLE TO OTHER INTERNAL
000136:                                                                                                  #        SYSTEM ROUTINES.  IT ALSO CLEARS THE COARSE OPTICS FLAG BIT AND DISABLES THE OPTICS ERROR COUNTER.
000137:
000138:                                                                                                  #  CALLING SEQUENCE-
000139:
000140:                                                                                                  #        TC      BANKCALL
000141:                                                                                                  #        CADR    MKRELEAS
000142:
000143:                                                                                                  #  NORMAL EXIT MODE-
000144:
000145:                                                                                                  #        SWRETURN
000146:
000147:                                                                                                  #  ALARM OR ABORT EXIT MODE-  NONE
000148:
000149:                                                                                                  #  OUTPUT-
000150:
000151:                                                                                                  #        1)      BIT9 OPTMODES SET TO 0
000152:                                                                                                  #        2)      OPTIND SET TO -1
000153:                                                                                                  #        3)      1ST WORD OF VAC AREA SET TO VAC ADDRESS TO SIGNIFY AVAILABILITY.
000154:                                                                                                  #        4)      MARKSTAT CLEARED
000155:                                                                                                  #        5)      BIT2 CHANNEL 12 SET TO 0
000156:
000157:                                                                                                  #  ERASABLE INITIALIZATION-  NONE
000158:
000159:                                                                                                  #  DEBRIS-
000160:
000161:                                                                                                  #        A,MARKSTAT,BIT9 OPTMODES,OPTIND,BIT2 CHANNEL 12
000162:
000163: 07,2063           35021        MKRELEAS           CAF      ZERO                                  #  SHOW MARK SYSTEM NOW AVAILABLE
000164: 07,2064           57330                           XCH      MARKSTAT
000165: 07,2065           75046                           MASK     LOW9
000166: 07,2066           10000                           CCS      A
000167: 07,2067           50000                           INDEX    A
000168: 07,2070           54000                           TS       0
000169: 07,2071           00004        MKRLEES            INHINT
000170: 07,2072           45007                           CS       BIT9                                  #  COARSE OPTICS RETURN FLAG.
000171: 07,2073           71331                           MASK     OPTMODES
000172: 07,2074           55331                           TS       OPTMODES
000173:
000174: 07,2075           37716                           CA       NEGONE
000175: 07,2076           55303                           TS       OPTIND                                #  KILL COARS OPTICS
000176:
000177: 07,2077           45016                           CS       BIT2                                  #  DISABLE OPTICS ERROR COUNTER
000178: 07,2100           00006                           EXTEND
000179: 07,2101           03012                           WAND     CHAN12
000180:
000181: 07,2102           00003                           RELINT
000182: 07,2103           04675                           TC       SWRETURN


000184:                                                                                                  #  PROGRAM NAME - MARKRUPT                                       DATE - 5 APRIL 1967
000185:                                                                                                  #  PROGRAM MODIFIED BY 258/278 PROGRAMMERS                       LOG SECTION SXTMARK
000186:                                                                                                  #  MOD BY - R. MELANSON TO ADD DOCUMENTATION                     ASSEMBLY SUNDISK REV. 116
000187:
000188:                                                                                                  #  FUNCTIONAL DESCRIPTION-
000189:                                                                                                  #        MARKRUPT STORES CDUS,OPTICS AND TIME AND TRANSFERS CONTROL TO THE MARKIT,MARK REJECT OR KEYCOM ROUTINES IF
000190:                                                                                                  #        BITS IN CHANNEL 16 ARE SET AS REQUIRED.
000191:
000192:                                                                                                  #  CALLING SEQUENCE-
000193:                                                                                                  #        ROUTINE ENTERED VIA KEYRUPT2 WHEN MARK,MARK REJECT OR DSKY KEYS DEPRESSED BY THE OPERATOR.
000194:
000195:                                                                                                  #  NORMAL EXIT MODE-
000196:                                                                                                  #        MARKIT, MKREJECT OR POSTJUMP ROUTINES (MARK, MARK REJECT OR DSKY CODE)
000197:
000198:                                                                                                  #  ALARM OR ABORT EXIT MODE-
000199:                                                                                                  #        ALARM AND RESUME
000200:
000201:                                                                                                  #  OUTPUT-
000202:                                                                                                  #        RUPTSTOR+5 = CDUT, RUPTSTOR+3 = CDUS, RUPTSTOR+2 = CDUY,
000203:                                                                                                  #        RUPTREG3 = CDUZ, RUPTSTOR+6 = CDUX, RUPTSTOR+1 AND SAMPTIME+1 = TIME1,
000204:                                                                                                  #        RUPTSTOR AND SAMPTIME = TIME2
000205:
000206:                                                                                                  #  ERASABLE INITIALIZATION-
000207:                                                                                                  #        CDUT,CDUS,CDUY,CDUZ,CDUX,TIME2,TIME1,CHANNEL 16 BITS 6,7 OR 1-5
000208:
000209:                                                                                                  #  DEBRIS-
000210:                                                                                                  #        A,QRUPT,RUPTREG3,SAMPTIME,SAMPTIME+1,RUPTSTOR TO RUPTSTOR+6 EXCEPT RUPTSTOR+4 (LOCATION 67)
000211:
000212: 07,2104           54016        MARKRUPT           TS       BANKRUPT                              #  STORE CDUS AND OPTICS NOW
000213: 07,2105           30035                           CA       CDUT
000214: 07,2106           54362                           TS       MKCDUT
000215: 07,2107           30036                           CA       CDUS
000216: 07,2110           54360                           TS       MKCDUS
000217: 07,2111           30033                           CA       CDUY
000218: 07,2112           54357                           TS       MKCDUY
000219: 07,2113           30034                           CA       CDUZ
000220: 07,2114           54361                           TS       MKCDUZ
000221: 07,2115           30032                           CA       CDUX
000222: 07,2116           54363                           TS       MKCDUX
000223: 07,2117           00006                           EXTEND
000224: 07,2120           30025                           DCA      TIME2                                 #  GET TIME
000225: 07,2121           52356                           DXCH     MKT2T1
000226: 07,2122           00006                           EXTEND
000227: 07,2123           30356                           DCA      MKT2T1
000228: 07,2124           52014                           DXCH     SAMPTIME                              #  RUPT TIME FOR NOUN 65.
000229:
000230: 07,2125           56002                           XCH      Q
000231: 07,2126           54012                           TS       QRUPT
000232:
000233: 07,2127           35012                           CAF      BIT6                                  #  SEE IF MARK OR MKREJECT


000235: 07,2130           00006                           EXTEND
000236: 07,2131           02016                           RAND     NAVKEYIN
000237: 07,2132           10000                           CCS      A
000238: 07,2133           02430                           TC       MARKIT                                #  ITS A MARK
000239:
000240: 07,2134           35011                           CAF      BIT7                                  #  NOT A MARK, SEE IF MKREJECT
000241: 07,2135           00006                           EXTEND
000242: 07,2136           02016                           RAND     NAVKEYIN
000243: 07,2137           10000                           CCS      A
000244: 07,2140           02301                           TC       MKREJECT                              #  ITS A MARK REJECT
000245:
000246: 07,2141           34362        KEYCALL            CAF      OCT37                                 #  NOT MARK OR MKREJECT, SEE IF KEYCODE
000247: 07,2142           00006                           EXTEND
000248: 07,2143           02016                           RAND     NAVKEYIN
000249: 07,2144           00006                           EXTEND
000250: 07,2145           12150                           BZF      +3                                    #  IF NO INBITS
000251: 07,2146           04701                           TC       POSTJUMP
000252: 07,2147           17702                           CADR     KEYCOM                                #  IT,S A KEY CODE, NOT A MARK.
000253:
000254: 07,2150           05650                 +3        TC       ALARM                                 #  ALARM IF NO INBITS
000255: 07,2151           00113                           OCT      113
000256: 07,2152           05333                           TC       RESUME
000257:


000259:                                                                                                  #  PROGRAM NAME - MARKCONT                               DATE - 19 SEPT 1967
000260:                                                                                                  #  PROGRAM MODIFIED BY 258/278 PROGRAMMERS               LOG SECTION SXTMARK
000261:                                                                                                  #  MOD BY - R. MELANSON TO ADD DOCUMENTATION             ASSEMBLY SUNDISK REV. 116
000262:
000263:                                                                                                  #  FUNCTIONAL DESCRIPTION-
000264:                                                                                                  #        MARKCONT IS USED TO PERFORM A SPECIAL MARK FUNCTION FOR R21, TO EXECUTE A SPECIAL DISPLAY OF OPTICS AND TIME OR
000265:                                                                                                  #        TO PERFORM A MARK OF A STAR OR LAND SIGHTING BASED UPON FLASHING V-N.
000266:
000267:                                                                                                  #  CALLING SEQUENCE-
000268:
000269:                                                                                                  #        FROM MARKDIF
000270:
000271:                                                                                                  #  NORMAL EXIT MODE-
000272:                                                                                                  #        TASKOVER
000273:
000274:                                                                                                  #  ALARM OR ABORT EXIT MODE-
000275:                                                                                                  #        ALARM AND TASKOVER
000276:
000277:                                                                                                  #  OUTPUT-
000278:                                                                                                  #        1)      FOR R21-
000279:                                                                                                  #                EBANK=EBANK7
000280:                                                                                                  #                MRKBUF1 TO MRKBUF1+6 = TIME2,TIME1,CDUY,OPTICX,CDUZ,OPTICSY,CDUX OF CURRENT R21 MARK FUNCTION.
000281:                                                                                                  #                MRKBUF2 TO MRKBUF2+6 CONTAINS PREVIOUS R21 MARK VALUES.
000282:                                                                                                  #        2)      FOR SPECIAL DISPLAY JOB-
000283:                                                                                                  #                RUPTREG1 AND MRKBUF1 = CDUS,RUPTREG2 AND MRKBUF1+1 = CDUT.
000284:                                                                                                  #                RUPTREG3 AND MRKBUF1+2 = TIME2,RUPTREG4 AND MRKBUF1+3 = TIME1
000285:                                                                                                  #        3)      FOR NORMAL MARKING-
000286:                                                                                                  #                DECREMENT BITS14-12 OF MARKSTAT BY 1,
000287:                                                                                                  #                BIT10 MARKSTAT SET TO 1, INCREMENT QPRET BY 7,
000288:                                                                                                  #                STORE TIME2,TIME1,CDUY,CDUS,CDUZ,CDUT AND CDUX IN VAC+1 TO VAC+7
000289:
000290:                                                                                                  #  ERASABLE INITIALIZATION-
000291:                                                                                                  #        1)      FOR R21-
000292:                                                                                                  #                BIT14 OF STATE+2 =1, MRKBUF1 TO MRKBUF1+6, ITEMP1, RUPTREG3,
000293:                                                                                                  #                RUPTSTOR TO RUPTSTOR+6 EXCEPT RUPTSTOR+4
000294:                                                                                                  #        2)      FOR SPECIAL DISPLAY JOB-
000295:                                                                                                  #                BIT14 OF STATE+2 =0, MARKSTAT =+0, RUPTREG1,RUPTREG2,RUPTREG3
000296:                                                                                                  #                RUPTREG4,RUPTSTOR,RUPTSTOR+1,RUPTSTOR+3,RUPTSTOR+5,
000297:                                                                                                  #                BIT12 OF STATE+5 (V59 FLAG), MRKBUF1 THRU MRKBUF1+3
000298:                                                                                                  #        3)      FOR NORMAL MARKING-
000299:                                                                                                  #                BIT14 OF STATE+2 =0, MARKSTAT =VAC ADDRESS,A REG,ITEMP1,RUPTREG3,
000300:                                                                                                  #                RUPTSTOR TO RUPTSTOR+6 EXCEPT RUPTSTOR+4
000301:
000302:                                                                                                  #  DEBRIS-
000303:                                                                                                  #        1)      FOR R21-
000304:                                                                                                  #                A, ITEMP1, MRKBUF1, MRKBUF2
000305:                                                                                                  #        2)      FOR SPECIAL DISPLAY JOB-
000306:                                                                                                  #                A,RUPTREG1,RUPTREG2,RUPTREG3,RUPTREG4,MPAC TO MPAC+3
000307:                                                                                                  #        3)      FOR NORMAL MARKING-
000308:                                                                                                  #                A,MARKSTAT,ITEMP1,QPRET,VAC+1 TO VAC+7 OF VAC AREA IN USE
000309:


000311: 07,2153           35002        MARKCONT           CAF      BIT14
000312: 07,2154           70076                           MASK     STATE      +2                         #  R21 MARK (SPECIAL MARKING FOR R21)
000313: 07,2155           00006                           EXTEND
000314: 07,2156           12170                           BZF      MARKET                                #  NOT SET THEREFORE REGULAR MARKING
000315: 07,2157           36211        MARKIT1            CAF      SIX                                   #  SPECIAL FOR R21
000316: 07,2160           05606                           TC       GENTRAN                               #  TRANSFER MRKBUF1 TO MRKBUF2
000317: 07,2161           01725                           ADRES    MRKBUF1
000318: 07,2162           01734                           ADRES    MRKBUF2
000319:
000320: 07,2163           36211                           CAF      SIX                                   #  TRANSFER CURRENT MARK DATA TO MARKBUF1
000321: 07,2164           05606                           TC       GENTRAN
000322: 07,2165           00355                           ADRES    MKT2T1
000323: 07,2166           01725                           ADRES    MRKBUF1
000324:
000325: 07,2167           15324                           TCF      TASKOVER
000326:
000327: 07,2170           11330        MARKET             CCS      MARKSTAT                              #  SEE IF MARKS CALLED FOR
000328: 07,2171           02225                           TC       MARK2                                 #  COLLECT MARKS
000329:
000330: 07,2172           35016                           CAF      TWO                                   #  IS MARKING SYSTEM IN USE (BIT2)
000331: 07,2173           71044                           MASK     EXTVBACT
000332: 07,2174           00006                           EXTEND
000333: 07,2175           12217                           BZF      MARKET3                               #  MARKING NOT CALLED FOR
000334: 07,2176           35004                           CAF      BIT12
000335: 07,2177           70101                           MASK     STATE      +5                         #  V59FLAG
000336: 07,2200           00006                           EXTEND
000337: 07,2201           12217                           BZF      MARKET3                               #  IF V59FLAG NOT SET-MARK UNCALLED FOR
000338: 07,2202           35061                           CAF      PRIO5                                 #  CALIBRATION MARK (SET) FOR P23
000339: 07,2203           05134                           TC       NOVAC                                 #  SPECIAL DISPLAY JOB
000340: 07,2204  E7,1725                                  EBANK=   MRKBUF1
000341: 07,2204           02426 76067                     2CADR    MARKDISP
000342:
000343: 07,2206           36211                           CAF      SIX
000344: 07,2207           05606                           TC       GENTRAN                               #  TRANSFER MARK DATA TO MARKDOWN
000345: 07,2210           00355                           ADRES    MKT2T1
000346: 07,2211           01674                           ADRES    MARKDOWN
000347: 07,2212           36211                           CAF      SIX
000348: 07,2213           05606                           TC       GENTRAN                               #  TRANSFER MARK DATA TO MRKBUF1 FOR
000349: 07,2214           00355                           ADRES    MKT2T1                                #  SPECIAL DISPLAY OF SHAFT AND TRUNNION
000350: 07,2215           01725                           ADRES    MRKBUF1                               #  IF V59 ACTING
000351: 07,2216           15324                           TCF      TASKOVER
000352: 07,2217           05650        MARKET3            TC       ALARM
000353: 07,2220           00122                           OCT      122                                   #  MARKING NOT CALLED FOR
000354: 07,2221           15324                           TCF      TASKOVER
000355: 07,2222           05650        114ALM             TC       ALARM                                 #  MARK NOT WANTED
000356: 07,2223           00114                           OCT      114
000357: 07,2224           15324                           TCF      TASKOVER
000358:


000360:                                                                                                  #  STORE MARK DATA IN MKVAC AND INCREMENT POINTER
000361:
000362: 07,2225           67711        MARK2              AD       74K                                   #  SEE IF MARKS WANTED-REDUCE MARKS WANTED
000363: 07,2226           00006                           EXTEND
000364: 07,2227           62222                           BZMF     114ALM                                #  MARK NOT WANTED-ALARM
000365: 07,2230           55330                           TS       MARKSTAT
000366: 07,2231           40000                           COM
000367: 07,2232           75006                           MASK     BIT10                                 #  SET BIT10 TO ENABLE REJECT
000368: 07,2233           27330                           ADS      MARKSTAT
000369:
000370: 07,2234           75046                           MASK     LOW9
000371: 07,2235           54061                           TS       ITEMP1
000372: 07,2236           50000                           INDEX    A
000373: 07,2237           56052                           XCH      QPRET                                 #  PICK UP MARK SLOT-POINTER
000374: 07,2240           54062                           TS       ITEMP2                                #  SAVE CURRENT POINTER
000375: 07,2241           65023                           AD       SEVEN                                 #  INCREMENT POINTER
000376: 07,2242           50061                           INDEX    ITEMP1
000377: 07,2243           54052                           TS       QPRET                                 #  STORE ADVANCED POINTER
000378:
000379: 07,2244           00006        VACSTOR            EXTEND
000380: 07,2245           30356                           DCA      MKT2T1
000381: 07,2246           50062                           INDEX    ITEMP2
000382: 07,2247           52001                           DXCH     0
000383: 07,2250           30357                           CA       MKCDUY
000384: 07,2251           50062                           INDEX    ITEMP2
000385: 07,2252           54002                           TS       2
000386: 07,2253           30360                           CA       MKCDUS
000387: 07,2254           50062                           INDEX    ITEMP2
000388: 07,2255           54003                           TS       3
000389: 07,2256           30361                           CA       MKCDUZ
000390: 07,2257           50062                           INDEX    ITEMP2
000391: 07,2260           54004                           TS       4
000392: 07,2261           30362                           CA       MKCDUT
000393: 07,2262           50062                           INDEX    ITEMP2
000394: 07,2263           54005                           TS       5
000395: 07,2264           30363                           CA       MKCDUX
000396: 07,2265           50062                           INDEX    ITEMP2
000397: 07,2266           54006                           TS       6
000398:
000399: 07,2267           37671                           CAF      PRIO34                                #  IF ALL MARKS MADE FLASH VB50
000400: 07,2270           71330                           MASK     MARKSTAT
000401: 07,2271           00006                           EXTEND
000402: 07,2272           12274                           BZF      +2
000403: 07,2273           15324                           TCF      TASKOVER
000404: 07,2274           37667                           CAF      PRIO32
000405: 07,2275           05134                           TC       NOVAC
000406: 07,2276     1330                                  EBANK=   MARKSTAT
000407: 07,2276           02422 16062                     2CADR    MKVB50
000408:
000409: 07,2300           15324                           TCF      TASKOVER
000410:


000412:                                                                                                  #  PROGRAM NAME - MKREJECT                                       DATE - 5 APRIL 1967
000413:                                                                                                  #  PROGRAM MODIFIED BY 258/278 PROGRAMMERS                       LOG SECTION SXTMARK
000414:                                                                                                  #  MOD BY - R. MELANSON TO ADD DOCUMENTATION                     ASSEMBLY SUNDISK REV. 116
000415:
000416:                                                                                                  #  FUNCTIONAL DESCRIPTION-
000417:                                                                                                  #        ROUTINE ALLOWS OPERATOR TO REJECT MARK MADE PRIOR TO ACCEPTANCE AND ALLOWS A NEW MARK TO BE MADE BY ASTRONAUT
000418:
000419:                                                                                                  #  CALLING SEQUENCE-
000420:                                                                                                  #        FROM MARKRUPT IF BIT7 OF CHANNEL 16 IS 1.
000421:
000422:                                                                                                  #  NORMAL EXIT MODE-
000423:                                                                                                  #        RESUME
000424:
000425:                                                                                                  #  ALARM OR ABORT EXIT MODE-
000426:                                                                                                  #        ALARM AND RESUME
000427:
000428:                                                                                                  #  OUTPUT-
000429:                                                                                                  #        1)      FOR R21-
000430:                                                                                                  #                MRKBUF1 SET TO -1
000431:                                                                                                  #        2)      FOR NORMAL MARKING-
000432:                                                                                                  #                BIT10 MARKSTAT =0, INCREMENT NO. MARKS BY 1, DECREMENT QPRET BY 7
000433:
000434:                                                                                                  #  ERASABLE INITIALIZATION-
000435:                                                                                                  #        1)      FOR R21-
000436:                                                                                                  #                BIT14 OF STATE+2 SET TO 1
000437:                                                                                                  #        2)      FOR NORMAL MARKING-
000438:                                                                                                  #                BIT14 OF STATE+2 SET TO 0, MARKSTAT,QPRET
000439:
000440:                                                                                                  #  DEBRIS-
000441:                                                                                                  #        1)      FOR R21-
000442:                                                                                                  #                A,MARKSTAT,EBANK
000443:                                                                                                  #        2)      FOR NORMAL MARKING-
000444:                                                                                                  #                A,MARKSTAT,ITEMP1,QPRET
000445:
000446: 07,2301           35002        MKREJECT           CAF      BIT14
000447: 07,2302           70076                           MASK     STATE      +2                         #  R21 MARK (SPECIAL MARKING FOR R21)
000448: 07,2303           00006                           EXTEND
000449: 07,2304           12310                           BZF      MRKREJCT                              #  NOT SET THEREFORE REGULAR REJECT
000450: 07,2305           37716                           CA       NEGONE                                #  -1 (FOR R22)
000451: 07,2306           55725                           TS       MRKBUF1                               #  -0 IN TIME IS FLAG TO R22 SIGNIFYING A
000452: 07,2307           05333                           TC       RESUME                                #  REJECTED MARK
000453: 07,2310           11330        MRKREJCT           CCS      MARKSTAT                              #  SEE IF MARKS BEING ACCEPTED
000454: 07,2311           02315                           TC       REJECT2
000455: 07,2312           05650                           TC       ALARM                                 #  MARKS NOT BEING ACCEPTED
000456: 07,2313           00112                           OCT      112
000457: 07,2314           05333                           TC       RESUME
000458:
000459: 07,2315           45006        REJECT2            CS       BIT10                                 #  SEE IF MARK HAD BEEN MADE SINCE LAST
000460: 07,2316           71330                           MASK     MARKSTAT                              #  REJECT, AND SET BIT10 TO ZERO TO
000461: 07,2317           57330                           XCH      MARKSTAT                              #  SHOW MARK REJECT


000463: 07,2320           75006                           MASK     BIT10
000464: 07,2321           10000                           CCS      A
000465: 07,2322           02326                           TC       REJECT3
000466:
000467: 07,2323           05650                           TC       ALARM                                 #  DONT ACCEPT TWO REJECTS TOGETHER
000468: 07,2324           00110                           OCT      110
000469: 07,2325           05333                           TC       RESUME
000470:
000471: 07,2326           35046        REJECT3            CAF      LOW9                                  #  DECREMENT POINTER TO REJECT MARK
000472: 07,2327           71330                           MASK     MARKSTAT
000473: 07,2330           54061                           TS       ITEMP1
000474: 07,2331           45023                           CS       SEVEN
000475: 07,2332           50061                           INDEX    ITEMP1
000476: 07,2333           26052                           ADS      QPRET                                 #  NEW POINTER
000477:
000478: 07,2334           35004                           CAF      BIT12                                 #  INCREMENT MARKS WANTED AND IF FIELD
000479: 07,2335           61330                           AD       MARKSTAT                              #  IS NOW NON-ZERO, CHANGE TO VB51 TO
000480: 07,2336           57330                           XCH      MARKSTAT                              #  INDICATE MORE MARKS WANTED
000481: 07,2337           77671                           MASK     PRIO34                                #  INDICATE MORE MARKS WANTED
000482: 07,2340           10000                           CCS      A
000483: 07,2341           05333                           TC       RESUME
000484: 07,2342           37667                           CAF      PRIO32
000485: 07,2343           05134                           TC       NOVAC
000486: 07,2344     1330                                  EBANK=   MARKSTAT
000487: 07,2344           02347 16062                     2CADR    MKVB51
000488:
000489: 07,2346           05333                           TC       RESUME
000490:


000492:                                                                                                  #  PROGRAM DESCRIPTION MKVB51 AND MKVB50
000493:
000494:                                                                                                  #  AUTHOR-BARNERT DATE-2-15-67 MOD-0
000495:                                                                                                  #  PURPOSE  FLASH V51N70,V51N43, OR V51 TO REQUEST MARKING,
000496:                                                                                                  #           AND V50N25 R1=16 TO REQUEST TERMINATE MARKING
000497:
000498:                                                                                                  #  CALLING SEQUENCE   AS JOB WITHIN SXTMARK
000499:
000500:                                                                                                  #  EXIT TO ENDMARK UPON RECEIPT OF V33, V34 CAUSES GOTOPOOH, ENTER
000501:                                                                                                  #           RECYCLES THE DISPLAY
000502:
000503:                                                                                                  #  NOTE- SXTMARK AUTOMATICALLY CHANGES FROM CALLING MKVB51 TO MKVB50 WHEN
000504:                                                                                                  #           SUFFICIENT MARKS HAVE BEEN MADE, AND THE REVERSE WHEN A MARK
000505:                                                                                                  #           REJECT REDUCES THE NUMBER MADE BELOW THAT REQUIRED
000506:
000507:                                                                                                  #  SUBROUTINES CALLED- BANKCALL, GOMARK2, GOODEND, ENDMARK, WAITLIST
000508:
000509:                                                                                                  #  ALARM OR ABORT MODES - NONE
000510:
000511:                                                                                                  #  ERASABLE USED-VERBREG,MARKSTAT,QPRET,DSPTEM1
000512:
000513:                                                                                                  #  OUTPUT MARKSTAT = VAC ADDRESS
000514:
000515:                                                                                                  #  QPRET = NO. MARKS
000516:
000517: 07,2347           04662        MKVB51             TC       BANKCALL                              #  CLEAR DISPLAY FOR MARK VERB
000518: 07,2350           20560                           CADR     KLEENEX
000519: 07,2351           32427                           CAF      VB51                                  #  DISPLAY MARK VB51
000520: 07,2352           04662                           TC       BANKCALL
000521: 07,2353           20572                           CADR     GOMARK4
000522: 07,2354           12357                           TCF      TERMSXT                               #  VB34-TERMINATE
000523: 07,2355           12370                           TCF      ENTANSWR                              #  V33-PROCEED-MARKING DONE
000524: 07,2356           12416                           TCF      MKVB5X                                #  ENTER-RECYCLE TO INITIAL MARK DISPLAY
000525:
000526: 07,2357           05536        TERMSXT            TC       CLEARMRK                              #  CLEAR MARK ACTIVITY.
000527:
000528: 07,2360           05364                           TC       CHECKMM
000529: 07,2361           00003                           MM       03         B-14
000530: 07,2362           12364                           TCF      +2
000531: 07,2363           02366                           TC       TERMP03
000532: 07,2364           04701                           TC       POSTJUMP
000533: 07,2365           30205                           CADR     TERM52
000534:
000535: 07,2366           05546        TERMP03            TC       UPFLAG
000536: 07,2367           00032                           ADRES    TRM03FLG
000537: 07,2370           35046        ENTANSWR           CAF      LOW9                                  #  PUT VAC ADR IN MARKSTAT AND NO. OF
000538: 07,2371           71330                           MASK     MARKSTAT                              #  MARKS MADE IN QPRET BEFORE LEAVING
000539: 07,2372           55330                           TS       MARKSTAT                              #  SXTMARK
000540: 07,2373           40000                           COM
000541: 07,2374           51330                           INDEX    MARKSTAT
000542: 07,2375           60052                           AD       QPRET


000544: 07,2376           00006                           EXTEND
000545: 07,2377           62403                           BZMF     JAMIT                                 #  NO MARKS MADE, SHOW IT IN QPRET, R53
000546: 07,2400           00006                           EXTEND                                         #        WILL PICK IT UP AND RECYCLE
000547: 07,2401           75004                           MP       BIT12                                 #  THIS PUTS NUMBER MARKS-1 IN A
000548: 07,2402           65017                           AD       ONE
000549: 07,2403           51330        JAMIT              INDEX    MARKSTAT                              #  STORE NO OF MARKS MADE
000550: 07,2404           54052                           TS       QPRET
000551: 07,2405           00004                           INHINT                                         #  SERVICE OPTSTALL INTERFACE WITH
000552: 07,2406           35022                           CAF      FIVE
000553: 07,2407           05245                           TC       WAITLIST
000554: 07,2410     1330                                  EBANK=   MARKSTAT
000555: 07,2410           02413 16062                     2CADR    ENDMARKS
000556:
000557: 07,2412           05534                           TC       ENDMARK                               #  KNOCKS DOWN MARKING FLAG + DOES ENDOFJOB
000558:
000559: 07,2413           35017        ENDMARKS           CAF      ONE
000560: 07,2414           04740                           TC       IBNKCALL
000561: 07,2415           17550                           CADR     GOODEND
000562: 07,2416           37671        MKVB5X             CAF      PRIO34
000563: 07,2417           71330                           MASK     MARKSTAT                              #  RE-DISPLAY VB51 IF MORE MARKS WANTED
000564: 07,2420           10000                           CCS      A                                     #  AND VB50 IF ALL IN
000565: 07,2421           12347                           TCF      MKVB51
000566: 07,2422           34333        MKVB50             CAF      R1D1                                  #  OCT 16
000567: 07,2423           55045                           TS       DSPTEM1
000568: 07,2424           32426                           CAF      V50N25
000569: 07,2425           12352                           TCF      MKVB51     +3
000570:
000571: 07,2426           14431        V50N25             VN       5025
000572: 07,2427           14600        VB51               VN       5100
000573: 07,2430     4362               OCT37              =        LOW5
000574:
000575:                                                                                                  #  PROGRAM NAME - MARKIT                         DATE - 19 SEPT 1967
000576:
000577:                                                                                                  #  CALLING SEQUENCE
000578:                                                                                                  #        FROM MARKRUPT IF CHAN 16 BIT 6 = 1
000579:
000580:                                                                                                  #  EXIT
000581:                                                                                                  #        RESUME
000582:
000583:                                                                                                  #  INPUT
000584:                                                                                                  #        CDUCHKWD.  ALSO ALL INITIALIZATION FOR MARKCONT
000585:
000586:                                                                                                  #  OUTPUT
000587:                                                                                                  #        MKT2T1,MKCDUX,MKCDUY,MKCDUZ,MKCDUS,MKCDUT
000588:
000589:                                                                                                  #  ALARM EXIT
000590:                                                                                                  #        NONE
000591:
000592: 07,2430           11341        MARKIT             CCS      CDUCHKWD
000593: 07,2431           12434                           TCF      +3                                    #  DELAY OF CDUCHKWD CS IF PNZ


000595: 07,2432           12434                           TCF      +2
000596: 07,2433           35021                           CAF      ZERO
000597: 07,2434           65017                           AD       ONE                                   #  10 MS IF NO CHECK
000598: 07,2435           05245                           TC       WAITLIST
000599: 07,2436  E7,1725                                  EBANK=   MRKBUF1
000600: 07,2436           02203 20067                     2CADR    MARKDIF
000601:
000602: 07,2440           15333                           TCF      RESUME
000603:
000604: 10,2000                                           SETLOC   SXTMARK1
000605: 10,2000                                           BANK
000606:
000607: 10,2203                                           COUNT    10/SXTMK
000608:
000609:                                                                                                  #  PROGRAM NAME - MARKDIF                        DATE- 19 SEPT 1967
000610:
000611:                                                                                                  #  CALLING SEQUENCE
000612:                                                                                                  #        WAITLIST FROM MARKIT
000613:
000614:                                                                                                  #  EXIT
000615:                                                                                                  #        TASKOVER OT IBNKCALL TO MARKCONT
000616:
000617:                                                                                                  #  INPUT
000618:                                                                                                  #        OUTPUT FROM MARKIT, INPUT TO MARKCONT, CDUCHKWD
000619:
000620:                                                                                                  #  OUTPUT
000621:                                                                                                  #        RUPTSTOR - RUPTSTOR+3, RUPTREG3, RUPTSTOR+5 - RUPTSTOR+6
000622:
000623:                                                                                                  #  ALARM EXIT
000624:                                                                                                  #        ALARM AND TASKOVER
000625:
000626: 10,2203           31341        MARKDIF            CA       CDUCHKWD                              #  IF DELAY CHECK IS ZERO OR NEG, ACP MARK
000627: 10,2204           00006                           EXTEND
000628: 10,2205           62216                           BZMF     MKACPT
000629: 10,2206           45017                           CS       BIT1
000630: 10,2207           54354                           TS       MKNDX                                 #  SET INDEX -1
000631: 10,2210           30363                           CA       MKCDUX
000632: 10,2211           02220                           TC       DIFCHK                                #  SEE IF VEHICLE RATE TO MUCH AT MARK
000633: 10,2212           30357                           CA       MKCDUY
000634: 10,2213           02220                           TC       DIFCHK
000635: 10,2214           30361                           CA       MKCDUZ
000636: 10,2215           02220                           TC       DIFCHK
000637:
000638: 10,2216           04740        MKACPT             TC       IBNKCALL
000639: 10,2217           16153                           CADR     MARKCONT                              #  MARK DATA OK, WHAT DO WE DO WITH IT
000640:
000641: 10,2220           24354        DIFCHK             INCR     MKNDX                                 #  INCREMENT INDEX
000642:
000643: 10,2221           00006                           EXTEND
000644: 10,2222           50354                           INDEX    MKNDX


000646: 10,2223           20032                           MSU      CDUX                                  #  GET MARK(ICDU) - CURRENT(ICDU)
000647: 10,2224           10000                           CCS      A
000648: 10,2225           12231                           TCF      +4
000649: 10,2226           00002                           TC       Q
000650: 10,2227           12231                           TCF      +2
000651: 10,2230           00002                           TC       Q
000652: 10,2231           67715                           AD       NEG2                                  #  SEE IF DIFFERENCE GREATER THAN 3 BITS
000653: 10,2232           00006                           EXTEND
000654: 10,2233           62230                           BZMF     -3                                    #  NOT GREATER
000655:
000656: 10,2234           05650                           TC       ALARM                                 #  COUPLED WITH PROGRAM ALARM
000657: 10,2235           00121                           OCT      00121
000658:
000659: 10,2236           15324                           TCF      TASKOVER                              #  DO NOT ACCEPT
000660:
000661:

End of include-file SXTMARK.agc.  Parent file is MAIN.agc


