
Source Code


000002:                                                                                                  ## Copyright:   Public domain.
000003:                                                                                                  ## Filename:    SXTMARK.agc
000004:                                                                                                  ## Purpose:     A section of Comanche revision 051.
000005:                                                                                                  ##              It is part of the reconstructed source code for the
000006:                                                                                                  ##              original release of the flight software for the Command
000007:                                                                                                  ##              Module's (CM) Apollo Guidance Computer (AGC) for Apollo 11.
000008:                                                                                                  ##              The code has been recreated from a copy of Comanche 055. It
000009:                                                                                                  ##              has been adapted such that the resulting bugger words
000010:                                                                                                  ##              exactly match those specified for Comanche 51 in NASA drawing
000011:                                                                                                  ##              2021153D, which gives relatively high confidence that the
000012:                                                                                                  ##              reconstruction is correct.
000013:                                                                                                  ## Reference:   pp. 222-235
000014:                                                                                                  ## Assembler:   yaYUL
000015:                                                                                                  ## Contact:     Ron Burkey <info@sandroid.org>.
000016:                                                                                                  ## Website:     www.ibiblio.org/apollo/index.html
000017:                                                                                                  ## Mod history: 2019-07-30 MAS  Created from Comanche 55.
000018:


000020:                                                                                                  #  PROGRAM NAME - SXTMARK                                        DATE - 5 APRIL 1967
000021:                                                                                                  #  PROGRAM MODIFIED BY 258/278 PROGRAMMERS                       LOG SECTION SXTMARK
000022:                                                                                                  #  MOD BY - R. MELANSON TO ADD DOCUMENTATION                     ASSEMBLY SUNDISK REV. 116
000023:                                                                                                  #
000024:                                                                                                  #  FUNCTIONAL DESCRIPTION-
000025:
000026:                                                                                                  #        SXTMARK IS CALLED FROM INTERNAL ROUTINES WHICH MAY REQUIRE STAR OR LANDMARK MARKINGS BY THE ASTRONAUT.  IF
000027:                                                                                                  #        THE MARK SYSTEM IS NOT IN USE, SXTMARK RESERVES A VAC AREA FOR MARKING AND REQUESTS EXECUTION OF THE MKVB51
000028:                                                                                                  #        ROUTINE VIA THE EXECUTIVE JOB PRIORITY LIST.  R21 USES THIS ROUTINE TO DETERMINE IF THE MARK SYSTEM CAN BE
000029:                                                                                                  #        USED.  IF YES, SXTMARK RETURNS TO R21 TO PERFORM ITS OWN MARK REQUESTS VIA THE V51 FLASH.
000030:
000031:                                                                                                  #  CALLING SEQUENCE-
000032:
000033:                                                                                                  #        CAF     (NO. MARK REQUESTS IN BITS 1-3 OF A)
000034:                                                                                                  #        TC      BANKCALL
000035:                                                                                                  #        CADR    SXTMARK
000036:
000037:                                                                                                  #  NORMAL EXIT MODE-
000038:
000039:                                                                                                  #        SWRETURN
000040:
000041:                                                                                                  #  ALARM OR ABORT EXIT MODE-
000042:
000043:                                                                                                  #        ABORT
000044:
000045:                                                                                                  #  OUTPUT-
000046:
000047:                                                                                                  #        1)      MARKSTAT CONTAINS MARK VALUE (BITS 14-12) AND VAC AREA ADDRESS
000048:                                                                                                  #        2)      QPRET = VAC AREA POINTER VALUE
000049:                                                                                                  #        3)      1ST WORD OF RESERVED VAC AREA SET TO +0
000050:                                                                                                  #        4)      PRIO32 PLACED IN A REGISTER
000051:
000052:                                                                                                  #  ERASABLE INITIALIZATION-
000053:
000054:                                                                                                  #        1)      BITS 1-3 OF A = NO. MARKS REQUESTED
000055:                                                                                                  #        2)      BITS 2,3 OF EXTVBACT = 0
000056:                                                                                                  #        3)      A VAC AREA MUST BE AVAILABLE (WORD 1 = ADDRESS OF VAC AREA)
000057:
000058:                                                                                                  #  DEBRIS-
000059:
000060:                                                                                                  #        A,Q,L,RUPTREG1,MARKSTAT,QPRET,BIT2 OF EXTVBACT
000061:
000062: 13,2036                                           BANK     13
000063: 07,2000                                           SETLOC   SXTMARKE
000064: 07,2000                                           BANK
000065:
000066: 07,2002  E7,1725                                  EBANK=   MRKBUF1
000067: 07,2002                                           COUNT    07/SXTMK
000068:
000069: 07,2002           00004        SXTMARK            INHINT
000070: 07,2003           54070                           TS       RUPTREG1                              #  NUMBER OF MARKS WANTED
000071:
000072: 07,2004           36211                           CAF      SIX                                   #  BIT2 = MARKING SYSTEM IN USE
000073: 07,2005           71044                           MASK     EXTVBACT                              #  BIT3 = EXTENDED VERB IN PROGRESS
000074: 07,2006           10000                           CCS      A
000075: 07,2007           02013                           TC       MKABORT                               #  SET THEREFORE ABORT


000077: 07,2010           35016                           CAF      BIT2                                  #  NOT SET
000078: 07,2011           27044                           ADS      EXTVBACT                              #  SET IT, RESET IN ENDMARK
000079: 07,2012           02015                           TC       MARKOK                                #  YES, FIND VAC AREA
000080:
000081: 07,2013           07755        MKABORT            TC       BAILOUT
000082: 07,2014           01211                           OCT      01211
000083: 07,2015           10400        MARKOK             CCS      VAC1USE                               #  FIND VAC AREA
000084: 07,2016           02031                           TC       MKVACFND
000085: 07,2017           10454                           CCS      VAC2USE
000086: 07,2020           02031                           TC       MKVACFND
000087: 07,2021           10530                           CCS      VAC3USE
000088: 07,2022           02031                           TC       MKVACFND
000089: 07,2023           10604                           CCS      VAC4USE
000090: 07,2024           02031                           TC       MKVACFND
000091: 07,2025           10660                           CCS      VAC5USE
000092: 07,2026           02031                           TC       MKVACFND
000093: 07,2027           07755                           TC       BAILOUT
000094: 07,2030           01207                           OCT      01207
000095:
000096: 07,2031           65016        MKVACFND           AD       TWO                                   #  ADDRESS OF VAC AREA
000097: 07,2032           55330                           TS       MARKSTAT
000098: 07,2033           50000                           INDEX    A
000099: 07,2034           54052                           TS       QPRET                                 #  STORE NEXT AVAILABLE MARK SLOT
000100:
000101: 07,2035           35021                           CAF      ZERO                                  #  SHOW VAC AREA OCCUPIED
000102: 07,2036           51330                           INDEX    MARKSTAT
000103: 07,2037           53777                           TS       0          -1
000104:
000105: 07,2040           05364                           TC       CHECKMM                               #  BACKUP MARK ROUTINE USES SXTMARK
000106: 07,2041           00065                           MM       53         B-14
000107: 07,2042           12044                           TCF      +2
000108: 07,2043           14675                           TCF      SWRETURN
000109: 07,2044           05364                           TC       CHECKMM
000110: 07,2045           00066                           MM       54         B-14
000111: 07,2046           12050                           TCF      +2
000112: 07,2047           14675                           TCF      SWRETURN
000113: 07,2050           35004                           CAF      BIT12                                 #  DESIRED NUMBER OF MARKS IN 12-14
000114: 07,2051           00006                           EXTEND
000115: 07,2052           70070                           MP       RUPTREG1
000116: 07,2053           56001                           XCH      L
000117: 07,2054           27330                           ADS      MARKSTAT
000118:
000119: 07,2055           37667                           CAF      PRIO32                                #  ENTER MARK JOB
000120: 07,2056           05134                           TC       NOVAC
000121: 07,2057     1330                                  EBANK=   MARKSTAT
000122: 07,2057           02347 16062                     2CADR    MKVB51
000123:
000124: 07,2061           00003                           RELINT
000125: 07,2062           14675                           TCF      SWRETURN                              #  SAME AS MODEEXIT
000126:


000128:                                                                                                  #  PROGRAM NAME - MKRELEAS                                       DATE - 5 APRIL 1967
000129:                                                                                                  #  PROGRAM MODIFIED BY 258/278 PROGRAMMERS                       LOG SECTION SXTMARK
000130:                                                                                                  #  MOD BY - R. MELANSON TO ADD DOCUMENTATION                     ASSEMBLY SUNDISK REV. 116
000131:
000132:                                                                                                  #  FUNCTIONAL DESCRIPTION-
000133:
000134:                                                                                                  #        MKRELEAS IS EXECUTED BY INTERNAL ROUTINES TO RELEASE THE MARK SYSTEM TO MAKE IT AVAILABLE TO OTHER INTERNAL
000135:                                                                                                  #        SYSTEM ROUTINES.  IT ALSO CLEARS THE COARSE OPTICS FLAG BIT AND DISABLES THE OPTICS ERROR COUNTER.
000136:
000137:                                                                                                  #  CALLING SEQUENCE-
000138:
000139:                                                                                                  #        TC      BANKCALL
000140:                                                                                                  #        CADR    MKRELEAS
000141:
000142:                                                                                                  #  NORMAL EXIT MODE-
000143:
000144:                                                                                                  #        SWRETURN
000145:
000146:                                                                                                  #  ALARM OR ABORT EXIT MODE-  NONE
000147:
000148:                                                                                                  #  OUTPUT-
000149:
000150:                                                                                                  #        1)      BIT9 OPTMODES SET TO 0
000151:                                                                                                  #        2)      OPTIND SET TO -1
000152:                                                                                                  #        3)      1ST WORD OF VAC AREA SET TO VAC ADDRESS TO SIGNIFY AVAILABILITY.
000153:                                                                                                  #        4)      MARKSTAT CLEARED
000154:                                                                                                  #        5)      BIT2 CHANNEL 12 SET TO 0
000155:
000156:                                                                                                  #  ERASABLE INITIALIZATION-  NONE
000157:
000158:                                                                                                  #  DEBRIS-
000159:
000160:                                                                                                  #        A,MARKSTAT,BIT9 OPTMODES,OPTIND,BIT2 CHANNEL 12
000161:
000162: 07,2063           35021        MKRELEAS           CAF      ZERO                                  #  SHOW MARK SYSTEM NOW AVAILABLE
000163: 07,2064           57330                           XCH      MARKSTAT
000164: 07,2065           75046                           MASK     LOW9
000165: 07,2066           10000                           CCS      A
000166: 07,2067           50000                           INDEX    A
000167: 07,2070           54000                           TS       0
000168: 07,2071           00004        MKRLEES            INHINT
000169: 07,2072           45007                           CS       BIT9                                  #  COARSE OPTICS RETURN FLAG.
000170: 07,2073           71331                           MASK     OPTMODES
000171: 07,2074           55331                           TS       OPTMODES
000172:
000173: 07,2075           37716                           CA       NEGONE
000174: 07,2076           55303                           TS       OPTIND                                #  KILL COARS OPTICS
000175:
000176: 07,2077           45016                           CS       BIT2                                  #  DISABLE OPTICS ERROR COUNTER
000177: 07,2100           00006                           EXTEND
000178: 07,2101           03012                           WAND     CHAN12
000179:
000180: 07,2102           00003                           RELINT
000181: 07,2103           04675                           TC       SWRETURN


000183:                                                                                                  #  PROGRAM NAME - MARKRUPT                                       DATE - 5 APRIL 1967
000184:                                                                                                  #  PROGRAM MODIFIED BY 258/278 PROGRAMMERS                       LOG SECTION SXTMARK
000185:                                                                                                  #  MOD BY - R. MELANSON TO ADD DOCUMENTATION                     ASSEMBLY SUNDISK REV. 116
000186:
000187:                                                                                                  #  FUNCTIONAL DESCRIPTION-
000188:                                                                                                  #        MARKRUPT STORES CDUS,OPTICS AND TIME AND TRANSFERS CONTROL TO THE MARKIT,MARK REJECT OR KEYCOM ROUTINES IF
000189:                                                                                                  #        BITS IN CHANNEL 16 ARE SET AS REQUIRED.
000190:
000191:                                                                                                  #  CALLING SEQUENCE-
000192:                                                                                                  #        ROUTINE ENTERED VIA KEYRUPT2 WHEN MARK,MARK REJECT OR DSKY KEYS DEPRESSED BY THE OPERATOR.
000193:
000194:                                                                                                  #  NORMAL EXIT MODE-
000195:                                                                                                  #        MARKIT, MKREJECT OR POSTJUMP ROUTINES (MARK, MARK REJECT OR DSKY CODE)
000196:
000197:                                                                                                  #  ALARM OR ABORT EXIT MODE-
000198:                                                                                                  #        ALARM AND RESUME
000199:
000200:                                                                                                  #  OUTPUT-
000201:                                                                                                  #        RUPTSTOR+5 = CDUT, RUPTSTOR+3 = CDUS, RUPTSTOR+2 = CDUY,
000202:                                                                                                  #        RUPTREG3 = CDUZ, RUPTSTOR+6 = CDUX, RUPTSTOR+1 AND SAMPTIME+1 = TIME1,
000203:                                                                                                  #        RUPTSTOR AND SAMPTIME = TIME2
000204:
000205:                                                                                                  #  ERASABLE INITIALIZATION-
000206:                                                                                                  #        CDUT,CDUS,CDUY,CDUZ,CDUX,TIME2,TIME1,CHANNEL 16 BITS 6,7 OR 1-5
000207:
000208:                                                                                                  #  DEBRIS-
000209:                                                                                                  #        A,QRUPT,RUPTREG3,SAMPTIME,SAMPTIME+1,RUPTSTOR TO RUPTSTOR+6 EXCEPT RUPTSTOR+4 (LOCATION 67)
000210:
000211: 07,2104           54016        MARKRUPT           TS       BANKRUPT                              #  STORE CDUS AND OPTICS NOW
000212: 07,2105           30035                           CA       CDUT
000213: 07,2106           54362                           TS       MKCDUT
000214: 07,2107           30036                           CA       CDUS
000215: 07,2110           54360                           TS       MKCDUS
000216: 07,2111           30033                           CA       CDUY
000217: 07,2112           54357                           TS       MKCDUY
000218: 07,2113           30034                           CA       CDUZ
000219: 07,2114           54361                           TS       MKCDUZ
000220: 07,2115           30032                           CA       CDUX
000221: 07,2116           54363                           TS       MKCDUX
000222: 07,2117           00006                           EXTEND
000223: 07,2120           30025                           DCA      TIME2                                 #  GET TIME
000224: 07,2121           52356                           DXCH     MKT2T1
000225: 07,2122           00006                           EXTEND
000226: 07,2123           30356                           DCA      MKT2T1
000227: 07,2124           52014                           DXCH     SAMPTIME                              #  RUPT TIME FOR NOUN 65.
000228:
000229: 07,2125           56002                           XCH      Q
000230: 07,2126           54012                           TS       QRUPT
000231:
000232: 07,2127           35012                           CAF      BIT6                                  #  SEE IF MARK OR MKREJECT


000234: 07,2130           00006                           EXTEND
000235: 07,2131           02016                           RAND     NAVKEYIN
000236: 07,2132           10000                           CCS      A
000237: 07,2133           02430                           TC       MARKIT                                #  ITS A MARK
000238:
000239: 07,2134           35011                           CAF      BIT7                                  #  NOT A MARK, SEE IF MKREJECT
000240: 07,2135           00006                           EXTEND
000241: 07,2136           02016                           RAND     NAVKEYIN
000242: 07,2137           10000                           CCS      A
000243: 07,2140           02301                           TC       MKREJECT                              #  ITS A MARK REJECT
000244:
000245: 07,2141           34362        KEYCALL            CAF      OCT37                                 #  NOT MARK OR MKREJECT, SEE IF KEYCODE
000246: 07,2142           00006                           EXTEND
000247: 07,2143           02016                           RAND     NAVKEYIN
000248: 07,2144           00006                           EXTEND
000249: 07,2145           12150                           BZF      +3                                    #  IF NO INBITS
000250: 07,2146           04701                           TC       POSTJUMP
000251: 07,2147           17702                           CADR     KEYCOM                                #  IT,S A KEY CODE, NOT A MARK.
000252:
000253: 07,2150           05650                 +3        TC       ALARM                                 #  ALARM IF NO INBITS
000254: 07,2151           00113                           OCT      113
000255: 07,2152           05333                           TC       RESUME
000256:


000258:                                                                                                  #  PROGRAM NAME - MARKCONT                               DATE - 19 SEPT 1967
000259:                                                                                                  #  PROGRAM MODIFIED BY 258/278 PROGRAMMERS               LOG SECTION SXTMARK
000260:                                                                                                  #  MOD BY - R. MELANSON TO ADD DOCUMENTATION             ASSEMBLY SUNDISK REV. 116
000261:
000262:                                                                                                  #  FUNCTIONAL DESCRIPTION-
000263:                                                                                                  #        MARKCONT IS USED TO PERFORM A SPECIAL MARK FUNCTION FOR R21, TO EXECUTE A SPECIAL DISPLAY OF OPTICS AND TIME OR
000264:                                                                                                  #        TO PERFORM A MARK OF A STAR OR LAND SIGHTING BASED UPON FLASHING V-N.
000265:
000266:                                                                                                  #  CALLING SEQUENCE-
000267:
000268:                                                                                                  #        FROM MARKDIF
000269:
000270:                                                                                                  #  NORMAL EXIT MODE-
000271:                                                                                                  #        TASKOVER
000272:
000273:                                                                                                  #  ALARM OR ABORT EXIT MODE-
000274:                                                                                                  #        ALARM AND TASKOVER
000275:
000276:                                                                                                  #  OUTPUT-
000277:                                                                                                  #        1)      FOR R21-
000278:                                                                                                  #                EBANK=EBANK7
000279:                                                                                                  #                MRKBUF1 TO MRKBUF1+6 = TIME2,TIME1,CDUY,OPTICX,CDUZ,OPTICSY,CDUX OF CURRENT R21 MARK FUNCTION.
000280:                                                                                                  #                MRKBUF2 TO MRKBUF2+6 CONTAINS PREVIOUS R21 MARK VALUES.
000281:                                                                                                  #        2)      FOR SPECIAL DISPLAY JOB-
000282:                                                                                                  #                RUPTREG1 AND MRKBUF1 = CDUS,RUPTREG2 AND MRKBUF1+1 = CDUT.
000283:                                                                                                  #                RUPTREG3 AND MRKBUF1+2 = TIME2,RUPTREG4 AND MRKBUF1+3 = TIME1
000284:                                                                                                  #        3)      FOR NORMAL MARKING-
000285:                                                                                                  #                DECREMENT BITS14-12 OF MARKSTAT BY 1,
000286:                                                                                                  #                BIT10 MARKSTAT SET TO 1, INCREMENT QPRET BY 7,
000287:                                                                                                  #                STORE TIME2,TIME1,CDUY,CDUS,CDUZ,CDUT AND CDUX IN VAC+1 TO VAC+7
000288:
000289:                                                                                                  #  ERASABLE INITIALIZATION-
000290:                                                                                                  #        1)      FOR R21-
000291:                                                                                                  #                BIT14 OF STATE+2 =1, MRKBUF1 TO MRKBUF1+6, ITEMP1, RUPTREG3,
000292:                                                                                                  #                RUPTSTOR TO RUPTSTOR+6 EXCEPT RUPTSTOR+4
000293:                                                                                                  #        2)      FOR SPECIAL DISPLAY JOB-
000294:                                                                                                  #                BIT14 OF STATE+2 =0, MARKSTAT =+0, RUPTREG1,RUPTREG2,RUPTREG3
000295:                                                                                                  #                RUPTREG4,RUPTSTOR,RUPTSTOR+1,RUPTSTOR+3,RUPTSTOR+5,
000296:                                                                                                  #                BIT12 OF STATE+5 (V59 FLAG), MRKBUF1 THRU MRKBUF1+3
000297:                                                                                                  #        3)      FOR NORMAL MARKING-
000298:                                                                                                  #                BIT14 OF STATE+2 =0, MARKSTAT =VAC ADDRESS,A REG,ITEMP1,RUPTREG3,
000299:                                                                                                  #                RUPTSTOR TO RUPTSTOR+6 EXCEPT RUPTSTOR+4
000300:
000301:                                                                                                  #  DEBRIS-
000302:                                                                                                  #        1)      FOR R21-
000303:                                                                                                  #                A, ITEMP1, MRKBUF1, MRKBUF2
000304:                                                                                                  #        2)      FOR SPECIAL DISPLAY JOB-
000305:                                                                                                  #                A,RUPTREG1,RUPTREG2,RUPTREG3,RUPTREG4,MPAC TO MPAC+3
000306:                                                                                                  #        3)      FOR NORMAL MARKING-
000307:                                                                                                  #                A,MARKSTAT,ITEMP1,QPRET,VAC+1 TO VAC+7 OF VAC AREA IN USE
000308:


000310: 07,2153           35002        MARKCONT           CAF      BIT14
000311: 07,2154           70076                           MASK     STATE      +2                         #  R21 MARK (SPECIAL MARKING FOR R21)
000312: 07,2155           00006                           EXTEND
000313: 07,2156           12170                           BZF      MARKET                                #  NOT SET THEREFORE REGULAR MARKING
000314: 07,2157           36211        MARKIT1            CAF      SIX                                   #  SPECIAL FOR R21
000315: 07,2160           05606                           TC       GENTRAN                               #  TRANSFER MRKBUF1 TO MRKBUF2
000316: 07,2161           01725                           ADRES    MRKBUF1
000317: 07,2162           01734                           ADRES    MRKBUF2
000318:
000319: 07,2163           36211                           CAF      SIX                                   #  TRANSFER CURRENT MARK DATA TO MARKBUF1
000320: 07,2164           05606                           TC       GENTRAN
000321: 07,2165           00355                           ADRES    MKT2T1
000322: 07,2166           01725                           ADRES    MRKBUF1
000323:
000324: 07,2167           15324                           TCF      TASKOVER
000325:
000326: 07,2170           11330        MARKET             CCS      MARKSTAT                              #  SEE IF MARKS CALLED FOR
000327: 07,2171           02225                           TC       MARK2                                 #  COLLECT MARKS
000328:
000329: 07,2172           35016                           CAF      TWO                                   #  IS MARKING SYSTEM IN USE (BIT2)
000330: 07,2173           71044                           MASK     EXTVBACT
000331: 07,2174           00006                           EXTEND
000332: 07,2175           12217                           BZF      MARKET3                               #  MARKING NOT CALLED FOR
000333: 07,2176           35004                           CAF      BIT12
000334: 07,2177           70101                           MASK     STATE      +5                         #  V59FLAG
000335: 07,2200           00006                           EXTEND
000336: 07,2201           12217                           BZF      MARKET3                               #  IF V59FLAG NOT SET-MARK UNCALLED FOR
000337: 07,2202           35061                           CAF      PRIO5                                 #  CALIBRATION MARK (SET) FOR P23
000338: 07,2203           05134                           TC       NOVAC                                 #  SPECIAL DISPLAY JOB
000339: 07,2204  E7,1725                                  EBANK=   MRKBUF1
000340: 07,2204           02426 76067                     2CADR    MARKDISP
000341:
000342: 07,2206           36211                           CAF      SIX
000343: 07,2207           05606                           TC       GENTRAN                               #  TRANSFER MARK DATA TO MARKDOWN
000344: 07,2210           00355                           ADRES    MKT2T1
000345: 07,2211           01674                           ADRES    MARKDOWN
000346: 07,2212           36211                           CAF      SIX
000347: 07,2213           05606                           TC       GENTRAN                               #  TRANSFER MARK DATA TO MRKBUF1 FOR
000348: 07,2214           00355                           ADRES    MKT2T1                                #  SPECIAL DISPLAY OF SHAFT AND TRUNNION
000349: 07,2215           01725                           ADRES    MRKBUF1                               #  IF V59 ACTING
000350: 07,2216           15324                           TCF      TASKOVER
000351: 07,2217           05650        MARKET3            TC       ALARM
000352: 07,2220           00122                           OCT      122                                   #  MARKING NOT CALLED FOR
000353: 07,2221           15324                           TCF      TASKOVER
000354: 07,2222           05650        114ALM             TC       ALARM                                 #  MARK NOT WANTED
000355: 07,2223           00114                           OCT      114
000356: 07,2224           15324                           TCF      TASKOVER
000357:


000359:                                                                                                  #  STORE MARK DATA IN MKVAC AND INCREMENT POINTER
000360:
000361: 07,2225           67711        MARK2              AD       74K                                   #  SEE IF MARKS WANTED-REDUCE MARKS WANTED
000362: 07,2226           00006                           EXTEND
000363: 07,2227           62222                           BZMF     114ALM                                #  MARK NOT WANTED-ALARM
000364: 07,2230           55330                           TS       MARKSTAT
000365: 07,2231           40000                           COM
000366: 07,2232           75006                           MASK     BIT10                                 #  SET BIT10 TO ENABLE REJECT
000367: 07,2233           27330                           ADS      MARKSTAT
000368:
000369: 07,2234           75046                           MASK     LOW9
000370: 07,2235           54061                           TS       ITEMP1
000371: 07,2236           50000                           INDEX    A
000372: 07,2237           56052                           XCH      QPRET                                 #  PICK UP MARK SLOT-POINTER
000373: 07,2240           54062                           TS       ITEMP2                                #  SAVE CURRENT POINTER
000374: 07,2241           65023                           AD       SEVEN                                 #  INCREMENT POINTER
000375: 07,2242           50061                           INDEX    ITEMP1
000376: 07,2243           54052                           TS       QPRET                                 #  STORE ADVANCED POINTER
000377:
000378: 07,2244           00006        VACSTOR            EXTEND
000379: 07,2245           30356                           DCA      MKT2T1
000380: 07,2246           50062                           INDEX    ITEMP2
000381: 07,2247           52001                           DXCH     0
000382: 07,2250           30357                           CA       MKCDUY
000383: 07,2251           50062                           INDEX    ITEMP2
000384: 07,2252           54002                           TS       2
000385: 07,2253           30360                           CA       MKCDUS
000386: 07,2254           50062                           INDEX    ITEMP2
000387: 07,2255           54003                           TS       3
000388: 07,2256           30361                           CA       MKCDUZ
000389: 07,2257           50062                           INDEX    ITEMP2
000390: 07,2260           54004                           TS       4
000391: 07,2261           30362                           CA       MKCDUT
000392: 07,2262           50062                           INDEX    ITEMP2
000393: 07,2263           54005                           TS       5
000394: 07,2264           30363                           CA       MKCDUX
000395: 07,2265           50062                           INDEX    ITEMP2
000396: 07,2266           54006                           TS       6
000397:
000398: 07,2267           37671                           CAF      PRIO34                                #  IF ALL MARKS MADE FLASH VB50
000399: 07,2270           71330                           MASK     MARKSTAT
000400: 07,2271           00006                           EXTEND
000401: 07,2272           12274                           BZF      +2
000402: 07,2273           15324                           TCF      TASKOVER
000403: 07,2274           37667                           CAF      PRIO32
000404: 07,2275           05134                           TC       NOVAC
000405: 07,2276     1330                                  EBANK=   MARKSTAT
000406: 07,2276           02422 16062                     2CADR    MKVB50
000407:
000408: 07,2300           15324                           TCF      TASKOVER
000409:


000411:                                                                                                  #  PROGRAM NAME - MKREJECT                                       DATE - 5 APRIL 1967
000412:                                                                                                  #  PROGRAM MODIFIED BY 258/278 PROGRAMMERS                       LOG SECTION SXTMARK
000413:                                                                                                  #  MOD BY - R. MELANSON TO ADD DOCUMENTATION                     ASSEMBLY SUNDISK REV. 116
000414:
000415:                                                                                                  #  FUNCTIONAL DESCRIPTION-
000416:                                                                                                  #        ROUTINE ALLOWS OPERATOR TO REJECT MARK MADE PRIOR TO ACCEPTANCE AND ALLOWS A NEW MARK TO BE MADE BY ASTRONAUT
000417:
000418:                                                                                                  #  CALLING SEQUENCE-
000419:                                                                                                  #        FROM MARKRUPT IF BIT7 OF CHANNEL 16 IS 1.
000420:
000421:                                                                                                  #  NORMAL EXIT MODE-
000422:                                                                                                  #        RESUME
000423:
000424:                                                                                                  #  ALARM OR ABORT EXIT MODE-
000425:                                                                                                  #        ALARM AND RESUME
000426:
000427:                                                                                                  #  OUTPUT-
000428:                                                                                                  #        1)      FOR R21-
000429:                                                                                                  #                MRKBUF1 SET TO -1
000430:                                                                                                  #        2)      FOR NORMAL MARKING-
000431:                                                                                                  #                BIT10 MARKSTAT =0, INCREMENT NO. MARKS BY 1, DECREMENT QPRET BY 7
000432:
000433:                                                                                                  #  ERASABLE INITIALIZATION-
000434:                                                                                                  #        1)      FOR R21-
000435:                                                                                                  #                BIT14 OF STATE+2 SET TO 1
000436:                                                                                                  #        2)      FOR NORMAL MARKING-
000437:                                                                                                  #                BIT14 OF STATE+2 SET TO 0, MARKSTAT,QPRET
000438:
000439:                                                                                                  #  DEBRIS-
000440:                                                                                                  #        1)      FOR R21-
000441:                                                                                                  #                A,MARKSTAT,EBANK
000442:                                                                                                  #        2)      FOR NORMAL MARKING-
000443:                                                                                                  #                A,MARKSTAT,ITEMP1,QPRET
000444:
000445: 07,2301           35002        MKREJECT           CAF      BIT14
000446: 07,2302           70076                           MASK     STATE      +2                         #  R21 MARK (SPECIAL MARKING FOR R21)
000447: 07,2303           00006                           EXTEND
000448: 07,2304           12310                           BZF      MRKREJCT                              #  NOT SET THEREFORE REGULAR REJECT
000449: 07,2305           37716                           CA       NEGONE                                #  -1 (FOR R22)
000450: 07,2306           55725                           TS       MRKBUF1                               #  -0 IN TIME IS FLAG TO R22 SIGNIFYING A
000451: 07,2307           05333                           TC       RESUME                                #  REJECTED MARK
000452: 07,2310           11330        MRKREJCT           CCS      MARKSTAT                              #  SEE IF MARKS BEING ACCEPTED
000453: 07,2311           02315                           TC       REJECT2
000454: 07,2312           05650                           TC       ALARM                                 #  MARKS NOT BEING ACCEPTED
000455: 07,2313           00112                           OCT      112
000456: 07,2314           05333                           TC       RESUME
000457:
000458: 07,2315           45006        REJECT2            CS       BIT10                                 #  SEE IF MARK HAD BEEN MADE SINCE LAST
000459: 07,2316           71330                           MASK     MARKSTAT                              #  REJECT, AND SET BIT10 TO ZERO TO
000460: 07,2317           57330                           XCH      MARKSTAT                              #  SHOW MARK REJECT


000462: 07,2320           75006                           MASK     BIT10
000463: 07,2321           10000                           CCS      A
000464: 07,2322           02326                           TC       REJECT3
000465:
000466: 07,2323           05650                           TC       ALARM                                 #  DONT ACCEPT TWO REJECTS TOGETHER
000467: 07,2324           00110                           OCT      110
000468: 07,2325           05333                           TC       RESUME
000469:
000470: 07,2326           35046        REJECT3            CAF      LOW9                                  #  DECREMENT POINTER TO REJECT MARK
000471: 07,2327           71330                           MASK     MARKSTAT
000472: 07,2330           54061                           TS       ITEMP1
000473: 07,2331           45023                           CS       SEVEN
000474: 07,2332           50061                           INDEX    ITEMP1
000475: 07,2333           26052                           ADS      QPRET                                 #  NEW POINTER
000476:
000477: 07,2334           35004                           CAF      BIT12                                 #  INCREMENT MARKS WANTED AND IF FIELD
000478: 07,2335           61330                           AD       MARKSTAT                              #  IS NOW NON-ZERO, CHANGE TO VB51 TO
000479: 07,2336           57330                           XCH      MARKSTAT                              #  INDICATE MORE MARKS WANTED
000480: 07,2337           77671                           MASK     PRIO34                                #  INDICATE MORE MARKS WANTED
000481: 07,2340           10000                           CCS      A
000482: 07,2341           05333                           TC       RESUME
000483: 07,2342           37667                           CAF      PRIO32
000484: 07,2343           05134                           TC       NOVAC
000485: 07,2344     1330                                  EBANK=   MARKSTAT
000486: 07,2344           02347 16062                     2CADR    MKVB51
000487:
000488: 07,2346           05333                           TC       RESUME
000489:


000491:                                                                                                  #  PROGRAM DESCRIPTION MKVB51 AND MKVB50
000492:
000493:                                                                                                  #  AUTHOR-BARNERT DATE-2-15-67 MOD-0
000494:                                                                                                  #  PURPOSE  FLASH V51N70,V51N43, OR V51 TO REQUEST MARKING,
000495:                                                                                                  #           AND V50N25 R1=16 TO REQUEST TERMINATE MARKING
000496:
000497:                                                                                                  #  CALLING SEQUENCE   AS JOB WITHIN SXTMARK
000498:
000499:                                                                                                  #  EXIT TO ENDMARK UPON RECEIPT OF V33, V34 CAUSES GOTOPOOH, ENTER
000500:                                                                                                  #           RECYCLES THE DISPLAY
000501:
000502:                                                                                                  #  NOTE- SXTMARK AUTOMATICALLY CHANGES FROM CALLING MKVB51 TO MKVB50 WHEN
000503:                                                                                                  #           SUFFICIENT MARKS HAVE BEEN MADE, AND THE REVERSE WHEN A MARK
000504:                                                                                                  #           REJECT REDUCES THE NUMBER MADE BELOW THAT REQUIRED
000505:
000506:                                                                                                  #  SUBROUTINES CALLED- BANKCALL, GOMARK2, GOODEND, ENDMARK, WAITLIST
000507:
000508:                                                                                                  #  ALARM OR ABORT MODES - NONE
000509:
000510:                                                                                                  #  ERASABLE USED-VERBREG,MARKSTAT,QPRET,DSPTEM1
000511:
000512:                                                                                                  #  OUTPUT MARKSTAT = VAC ADDRESS
000513:
000514:                                                                                                  #  QPRET = NO. MARKS
000515:
000516: 07,2347           04662        MKVB51             TC       BANKCALL                              #  CLEAR DISPLAY FOR MARK VERB
000517: 07,2350           20560                           CADR     KLEENEX
000518: 07,2351           32427                           CAF      VB51                                  #  DISPLAY MARK VB51
000519: 07,2352           04662                           TC       BANKCALL
000520: 07,2353           20572                           CADR     GOMARK4
000521: 07,2354           12357                           TCF      TERMSXT                               #  VB34-TERMINATE
000522: 07,2355           12370                           TCF      ENTANSWR                              #  V33-PROCEED-MARKING DONE
000523: 07,2356           12416                           TCF      MKVB5X                                #  ENTER-RECYCLE TO INITIAL MARK DISPLAY
000524:
000525: 07,2357           05536        TERMSXT            TC       CLEARMRK                              #  CLEAR MARK ACTIVITY.
000526:
000527: 07,2360           05364                           TC       CHECKMM
000528: 07,2361           00003                           MM       03         B-14
000529: 07,2362           12364                           TCF      +2
000530: 07,2363           02366                           TC       TERMP03
000531: 07,2364           04701                           TC       POSTJUMP
000532: 07,2365           30205                           CADR     TERM52
000533:
000534: 07,2366           05546        TERMP03            TC       UPFLAG
000535: 07,2367           00032                           ADRES    TRM03FLG
000536: 07,2370           35046        ENTANSWR           CAF      LOW9                                  #  PUT VAC ADR IN MARKSTAT AND NO. OF
000537: 07,2371           71330                           MASK     MARKSTAT                              #  MARKS MADE IN QPRET BEFORE LEAVING
000538: 07,2372           55330                           TS       MARKSTAT                              #  SXTMARK
000539: 07,2373           40000                           COM
000540: 07,2374           51330                           INDEX    MARKSTAT
000541: 07,2375           60052                           AD       QPRET


000543: 07,2376           00006                           EXTEND
000544: 07,2377           62403                           BZMF     JAMIT                                 #  NO MARKS MADE, SHOW IT IN QPRET, R53
000545: 07,2400           00006                           EXTEND                                         #        WILL PICK IT UP AND RECYCLE
000546: 07,2401           75004                           MP       BIT12                                 #  THIS PUTS NUMBER MARKS-1 IN A
000547: 07,2402           65017                           AD       ONE
000548: 07,2403           51330        JAMIT              INDEX    MARKSTAT                              #  STORE NO OF MARKS MADE
000549: 07,2404           54052                           TS       QPRET
000550: 07,2405           00004                           INHINT                                         #  SERVICE OPTSTALL INTERFACE WITH
000551: 07,2406           35022                           CAF      FIVE
000552: 07,2407           05245                           TC       WAITLIST
000553: 07,2410     1330                                  EBANK=   MARKSTAT
000554: 07,2410           02413 16062                     2CADR    ENDMARKS
000555:
000556: 07,2412           05534                           TC       ENDMARK                               #  KNOCKS DOWN MARKING FLAG + DOES ENDOFJOB
000557:
000558: 07,2413           35017        ENDMARKS           CAF      ONE
000559: 07,2414           04740                           TC       IBNKCALL
000560: 07,2415           17550                           CADR     GOODEND
000561: 07,2416           37671        MKVB5X             CAF      PRIO34
000562: 07,2417           71330                           MASK     MARKSTAT                              #  RE-DISPLAY VB51 IF MORE MARKS WANTED
000563: 07,2420           10000                           CCS      A                                     #  AND VB50 IF ALL IN
000564: 07,2421           12347                           TCF      MKVB51
000565: 07,2422           34333        MKVB50             CAF      R1D1                                  #  OCT 16
000566: 07,2423           55045                           TS       DSPTEM1
000567: 07,2424           32426                           CAF      V50N25
000568: 07,2425           12352                           TCF      MKVB51     +3
000569:
000570: 07,2426           14431        V50N25             VN       5025
000571: 07,2427           14600        VB51               VN       5100
000572: 07,2430     4362               OCT37              =        LOW5
000573:
000574:                                                                                                  #  PROGRAM NAME - MARKIT                         DATE - 19 SEPT 1967
000575:
000576:                                                                                                  #  CALLING SEQUENCE
000577:                                                                                                  #        FROM MARKRUPT IF CHAN 16 BIT 6 = 1
000578:
000579:                                                                                                  #  EXIT
000580:                                                                                                  #        RESUME
000581:
000582:                                                                                                  #  INPUT
000583:                                                                                                  #        CDUCHKWD.  ALSO ALL INITIALIZATION FOR MARKCONT
000584:
000585:                                                                                                  #  OUTPUT
000586:                                                                                                  #        MKT2T1,MKCDUX,MKCDUY,MKCDUZ,MKCDUS,MKCDUT
000587:
000588:                                                                                                  #  ALARM EXIT
000589:                                                                                                  #        NONE
000590:
000591: 07,2430           11341        MARKIT             CCS      CDUCHKWD
000592: 07,2431           12434                           TCF      +3                                    #  DELAY OF CDUCHKWD CS IF PNZ


000594: 07,2432           12434                           TCF      +2
000595: 07,2433           35021                           CAF      ZERO
000596: 07,2434           65017                           AD       ONE                                   #  10 MS IF NO CHECK
000597: 07,2435           05245                           TC       WAITLIST
000598: 07,2436  E7,1725                                  EBANK=   MRKBUF1
000599: 07,2436           02203 20067                     2CADR    MARKDIF
000600:
000601: 07,2440           15333                           TCF      RESUME
000602:
000603: 10,2000                                           SETLOC   SXTMARK1
000604: 10,2000                                           BANK
000605:
000606: 10,2203                                           COUNT    20/SXTMK
000607:
000608:                                                                                                  #  PROGRAM NAME - MARKDIF                        DATE- 19 SEPT 1967
000609:
000610:                                                                                                  #  CALLING SEQUENCE
000611:                                                                                                  #        WAITLIST FROM MARKIT
000612:
000613:                                                                                                  #  EXIT
000614:                                                                                                  #        TASKOVER OT IBNKCALL TO MARKCONT
000615:
000616:                                                                                                  #  INPUT
000617:                                                                                                  #        OUTPUT FROM MARKIT, INPUT TO MARKCONT, CDUCHKWD
000618:
000619:                                                                                                  #  OUTPUT
000620:                                                                                                  #        RUPTSTOR - RUPTSTOR+3, RUPTREG3, RUPTSTOR+5 - RUPTSTOR+6
000621:
000622:                                                                                                  #  ALARM EXIT
000623:                                                                                                  #        ALARM AND TASKOVER
000624:
000625: 10,2203           31341        MARKDIF            CA       CDUCHKWD                              #  IF DELAY CHECK IS ZERO OR NEG, ACP MARK
000626: 10,2204           00006                           EXTEND
000627: 10,2205           62216                           BZMF     MKACPT
000628: 10,2206           45017                           CS       BIT1
000629: 10,2207           54354                           TS       MKNDX                                 #  SET INDEX -1
000630: 10,2210           30363                           CA       MKCDUX
000631: 10,2211           02220                           TC       DIFCHK                                #  SEE IF VEHICLE RATE TO MUCH AT MARK
000632: 10,2212           30357                           CA       MKCDUY
000633: 10,2213           02220                           TC       DIFCHK
000634: 10,2214           30361                           CA       MKCDUZ
000635: 10,2215           02220                           TC       DIFCHK
000636:
000637: 10,2216           04740        MKACPT             TC       IBNKCALL
000638: 10,2217           16153                           CADR     MARKCONT                              #  MARK DATA OK, WHAT DO WE DO WITH IT
000639:
000640: 10,2220           24354        DIFCHK             INCR     MKNDX                                 #  INCREMENT INDEX
000641:
000642: 10,2221           00006                           EXTEND
000643: 10,2222           50354                           INDEX    MKNDX


000645: 10,2223           20032                           MSU      CDUX                                  #  GET MARK(ICDU) - CURRENT(ICDU)
000646: 10,2224           10000                           CCS      A
000647: 10,2225           12231                           TCF      +4
000648: 10,2226           00002                           TC       Q
000649: 10,2227           12231                           TCF      +2
000650: 10,2230           00002                           TC       Q
000651: 10,2231           67715                           AD       NEG2                                  #  SEE IF DIFFERENCE GREATER THAN 3 BITS
000652: 10,2232           00006                           EXTEND
000653: 10,2233           62230                           BZMF     -3                                    #  NOT GREATER
000654:
000655: 10,2234           05650                           TC       ALARM                                 #  COUPLED WITH PROGRAM ALARM
000656: 10,2235           00121                           OCT      00121
000657:
000658: 10,2236           15324                           TCF      TASKOVER                              #  DO NOT ACCEPT
000659:
000660:

End of include-file SXTMARK.agc.  Parent file is MAIN.agc


