
Source Code


000002:                                                                                                  ## Copyright:   Public domain.
000003:                                                                                                  ## Filename:    SYSTEM_TEST_STANDARD_LEAD_INS.agc
000004:                                                                                                  ## Purpose:     A section of Comanche revision 051.
000005:                                                                                                  ##              It is part of the reconstructed source code for the
000006:                                                                                                  ##              original release of the flight software for the Command
000007:                                                                                                  ##              Module's (CM) Apollo Guidance Computer (AGC) for Apollo 11.
000008:                                                                                                  ##              The code has been recreated from a copy of Comanche 055. It
000009:                                                                                                  ##              has been adapted such that the resulting bugger words
000010:                                                                                                  ##              exactly match those specified for Comanche 51 in NASA drawing
000011:                                                                                                  ##              2021153D, which gives relatively high confidence that the
000012:                                                                                                  ##              reconstruction is correct.
000013:                                                                                                  ## Reference:   pp. 420-422
000014:                                                                                                  ## Assembler:   yaYUL
000015:                                                                                                  ## Contact:     Ron Burkey <info@sandroid.org>.
000016:                                                                                                  ## Website:     www.ibiblio.org/apollo/index.html
000017:                                                                                                  ## Mod history: 2019-07-30 MAS  Created from Comanche 55.
000018:


000020: 22,3151  E5,1671                                  EBANK=   XSM
000021:
000022: 33,2000                                           BANK     33
000023: 13,2000                                           SETLOC   E/PROG1
000024: 13,2000                                           BANK
000025:
000026: 13,2036                                           COUNT*   $$/P07
000027:
000028:                                                                                                  #  SPECIAL PROGRAMS TO EASE THE PANGS OF ERASABLE MEMORY PROGRAMS.
000029:
000030:                                                                                                  #  E/BKCALL      FOR DOING BANKCALLS FROM AND RETURNING TO ERASABLE.
000031:
000032:                                                                                                  #  THIS ROUTINE IS CALLABLE FROM ERASABLE OR FIXED.  LIKE BANKCALL, HOWEVER, SWITCHING BETWEEN S3 AND S4
000033:                                                                                                  #  IS NOT POSSIBLE.
000034:
000035:                                                                                                  #  THE CALLING SEQUENCE IS:
000036:
000037:                                                                                                  #        TC      BANKCALL
000038:                                                                                                  #        CADR    E/BKCALL
000039:                                                                                                  #        CADR    ROUTINE         WHERE YOU WANT TO GO IN FIXED.
000040:                                                                                                  #        RETURN HERE FROM DISPLAY TERMINATE, BAD STALL OR TC Q.
000041:                                                                                                  #        RETURN HERE FROM DISPLAY PROCEED OR GOOD RETURN FROM STALL.
000042:                                                                                                  #        RETURN HERE FROM DISPLAY ENTER OR RECYCLE.
000043:
000044:                                                                                                  #  THIS ROUTINE REQUIRES TWO ERASABLES (EBUF2, +1) IN UNSWITCHED WHICH ARE UNSHARED BY INTERRUPTS AND
000045:                                                                                                  #  OTHER EMEMORY PROGRAMS.
000046:
000047:                                                                                                  #  A + L ARE PRESERVED THROUGH BANKCALL AND E/BKCALL.
000048:
000049: 13,2036           52134        E/BKCALL           DXCH     BUF2                                  #  SAVE A,L AND GET DP RETURN.
000050: 13,2037           52365                           DXCH     EBUF2                                 #  SAVE DP RETURN.
000051: 13,2040           24364                           INCR     EBUF2                                 #  RETURN +1 BECAUSE DOUBLE CADR.
000052: 13,2041           30006                           CA       BBANK
000053: 13,2042           75054                           MASK     LOW10                                 #  GET CURRENT EBANK.  (SBANK SOMEDAY)
000054: 13,2043           26365                           ADS      EBUF2      +1                         #  FORM BBCON.  (WAS FBANK)
000055: 13,2044           50364                           NDX      EBUF2
000056: 13,2045           27777                           CA       0          -1                         #  GET CADR OF ROUTINE.
000057: 13,2046           04666                           TC       SWCALL                                #  GO TO ROUTINE, SETTING Q TO SWRETURN
000058:                                                                                                  #  AND RESTORING A + L.
000059: 13,2047           02053                           TC       +4                                    #  TX Q, V34, OR BAD STALL RETURN.
000060: 13,2050           02052                           TC       +2                                    #  PROCEED OR GOOD STALL RETURN.
000061: 13,2051           24364                           INCR     EBUF2                                 #  ENTER OR RECYCLE RETURN.
000062: 13,2052           24364                           INCR     EBUF2
000063: 13,2053           52365        E/SWITCH           DXCH     EBUF2
000064: 13,2054           52006                           DTCB
000065:


000067:                                                                                                  #  E/CALL        FOR CALLING A FIXED MEMORY INTERPRETIVE SUBROUTINE FROM ERASABLE AND RETURNING TO ERASABLE.
000068:
000069:                                                                                                  #  THE CALLING SEQUENCE IS...
000070:
000071:                                                                                                  #        RTB
000072:                                                                                                  #                E/CALL
000073:                                                                                                  #        CADR    ROUTINE                 THE INTERPRETIVE SUBROUTINE YOU WANT.
000074:                                                                                                  #                                        RETURNS HERE IN INTERPRETIVE.
000075:
000076: 13,2055           22164        E/CALL             LXCH     LOC                                   #  ADRES -1 OF CADR.
000077: 13,2056           50001                           INDEX    L
000078: 13,2057           30001                           CA       L                                     #  CADR IN A.
000079: 13,2060           24001                           INCR     L
000080: 13,2061           24001                           INCR     L                                     #  RETURN ADRES IN L.
000081: 13,2062           52365                           DXCH     EBUF2                                 #  STORE CADR AND RETURN.
000082: 13,2063           06006                           TC       INTPRET
000083: 13,2064           77624                           CALL
000084: 13,2065           00364                                    EBUF2                                 #  INDIRECTLY EXECUTE ROUTINE.  IT MUST
000085: 13,2066           77776                           EXIT                                           #  LEAVE VIA RVQ OR EQUIVALENT.
000086: 13,2067           22365                           LXCH     EBUF2      +1                         #  PICK UP RETURN.
000087: 13,2070           16010                           TCF      INTPRET    +2                         #  SET LOC AND RETURB TO CALLER
000088:


000090:                                                                                                  #  E/JOBWAK      FOR WAKING UP ERASABLE MEMORY JOBS.
000091:
000092:                                                                                                  #  THIS ROUTINE MUST BE CALLED IN INTERRUPT OR WITH INTERRUPTS INHIBITED.
000093:
000094:                                                                                                  #  THE CALLING SEQUENCE IS:
000095:
000096:                                                                                                  #        INHINT
000097:                                                                                                  #          .
000098:                                                                                                  #          .
000099:                                                                                                  #        CA      WAKEADR         ADDRESS OF SLEEPING JOB
000100:                                                                                                  #        TC      IBNKCALL
000101:                                                                                                  #        CADR    E/JOBWAK
000102:                                                                                                  #          .                     RETURNS HERE
000103:                                                                                                  #          .
000104:                                                                                                  #          .
000105:                                                                                                  #        RELINT                  IF YOU DID AN INHINT.
000106:
000107: 33,2000                                           BANK     33
000108: 04,2000                                           SETLOC   E/PROG
000109: 04,2000                                           BANK
000110:
000111: 04,2606                                           COUNT*   $$/P07
000112:
000113: 04,2606           05201        E/JOBWAK           TC       JOBWAKE                               #  ARRIVE IWTH ADRES IN A.
000114: 04,2607           45005                           CS       BIT11
000115: 04,2610           50064                           NDX      LOCCTR
000116: 04,2611           26164                           ADS      LOC                                   #  KNOCK FIXED MEMORY BIT OUT OF ADRES.
000117: 04,2612           00072                           TC       RUPTREG3                              #  RETURN
000118:
000119:
000120:                                                                                                  #  THESE PROGRAMS ARE PROVIDED TO ALLOW OVERLAY OF BANKS 30 THRU 33 OF THE 205 VERSIONS OF SYSTEM TESTS AND
000121:                                                                                                  #  PRELAUNCH ALIGN.  THE INTENT IS TO ALLOW THE STG AND HYBRID LABS TO RUN ALL THE TESTS WITH COLOSSUS.
000122:
000123:
000124: 33,2000                                           BANK     33
000125: 33,2000                                           SETLOC   TESTLEAD
000126: 33,2000                                           BANK
000127:
000128: 33,2000                                           COUNT    33/COMST
000129:
000130: 33,2000  E5,1425                                  EBANK=   QPLACE
000131:
000132: 33,2000           03436        COMPVER            TC       GCOMPVER                              #  MUST BE 33,2000.
000133:
000134: 33,2001           03131        GTSCPSS1           TC       GTSCPSS                               #  MUST BE AT 33,2001
000135:
000136: 33,2002           05354        REDO               TC       NEWMODEX                              #  DISPLAY MM 07.
000137: 33,2003           00007                           MM       07         B-14                       #  FALL INTO IMUTEST
000138:

End of include-file SYSTEM_TEST_STANDARD_LEAD_INS.agc.  Parent file is MAIN.agc


