
Source Code


000002:                                                                                                  ## Copyright:   Public domain.
000003:                                                                                                  ## Filename:    TVCEXECUTIVE.agc
000004:                                                                                                  ## Purpose:     A section of Comanche revision 051.
000005:                                                                                                  ##              It is part of the reconstructed source code for the
000006:                                                                                                  ##              original release of the flight software for the Command
000007:                                                                                                  ##              Module's (CM) Apollo Guidance Computer (AGC) for Apollo 11.
000008:                                                                                                  ##              The code has been recreated from a copy of Comanche 055. It
000009:                                                                                                  ##              has been adapted such that the resulting bugger words
000010:                                                                                                  ##              exactly match those specified for Comanche 51 in NASA drawing
000011:                                                                                                  ##              2021153D, which gives relatively high confidence that the
000012:                                                                                                  ##              reconstruction is correct.
000013:                                                                                                  ## Reference:   pp. 945-950
000014:                                                                                                  ## Assembler:   yaYUL
000015:                                                                                                  ## Contact:     Ron Burkey <info@sandroid.org>.
000016:                                                                                                  ## Website:     www.ibiblio.org/apollo/index.html
000017:                                                                                                  ## Mod history: 2019-07-30 MAS  Created from Comanche 55.
000018:


000020:                                                                                                  #  PROGRAM NAME....      TVCEXECUTIVE, CONSISTING OF TVCEXEC, NEEDLEUP, VARGAINS
000021:                                                                                                  #                        1SHOTCHK, REPCHEK, CG.CORR, COPYCYCLES, ETC.
000022:                                                                                                  #  LOG SECTION...        TVCEXECUTIVE            SUBROUTINE...DAPCSM
000023:                                                                                                  #  MODIFIED BY SCHLUNDT                          21 OCTOBER 1968
000024:
000025:                                                                                                  #  FUNCTIONAL DESCRIPTION....
000026:                                                                                                  #       *A SELF-PERPETUATING WAITLIST TASK AT 1/2 SECOND INTERVALS WHICH:
000027:                                                                                                  #        PREPARES THE ROLL DAP WITH OGA (CDUX)
000028:                                                                                                  #        PREPARES THE ROLL FDAI NEEDLE (FLY-TO  OGA ERROR)
000029:                                                                                                  #        PREPARES THE ROLL PHASE PLANE  OGAERR  (FLY-FROM  OGA ERROR)
000030:                                                                                                  #        PREPARES THE TVC ROLLDAP TASK WAITLIST CALL (3 CS DELAY)
000031:                                                                                                  #        UPDATES THE NEEDLES DISPLAY
000032:                                                                                                  #        UPDATES VEHICLE MASS AND CALLS MASSPROP TO UPDATE INERTIA DATA
000033:                                                                                                  #        UPDATES PITCH, YAW, AND ROLL DAP GAINS FROM MASSPROP DATA
000034:                                                                                                  #        PERFORMS ONE-SHOT CORRECTION FOR TMC LOOP 0-3 SEC AFTER IGNITION
000035:                                                                                                  #        PERFORMS REPETITIVE UPDATES FOR TMC LOOP AFTER THE ONE-SHOT CORR.
000036:
000037:                                                                                                  #  CALLING SEQUENCE....
000038:                                                                                                  #       *TVCEXEC CALLED AS A WAITLIST TASK, IN PARTICULAR BY TVCINIT4 AND BY
000039:                                                                                                  #        ITSELF, BOTH AT 1/2 SECOND INTERVALS
000040:
000041:                                                                                                  #  NORMAL EXIT MODE.... TASKOVER
000042:
000043:                                                                                                  #  ALARM OR ABORT EXIT MODES.... NONE
000044:
000045:                                                                                                  #  SUBROUTINES CALLED....NEEDLER, S40.15, MASSPROP, TASKOVER, IBNKCALL
000046:
000047:                                                                                                  #  OTHER INTERFACES....
000048:                                                                                                  #       *TVCRESTART PACKAGE FOR RESTARTS
000049:                                                                                                  #       *PITCHDAP, YAWDAP FOR VARIABLE GAINS AND ENGINE TRIM ANGLES
000050:
000051:                                                                                                  #  ERASABLE INITIALIZATION REQUIRED....
000052:                                                                                                  #       *SEE TVCDAPON....TVCINIT4
000053:                                                                                                  #       *VARK AND 1/CONACC (S40.15 OF TVCINITIALIZE)
000054:                                                                                                  #       *PAD LOAD EREPFRAC
000055:                                                                                                  #       *BITS 15,14 OF FLAGWRD6 (T5 BITS)
000056:                                                                                                  #       *TVCEXPHS FOR RESTARTS
000057:                                                                                                  #       *ENGINE-ON BIT (11.13) FOR RESTARTS
000058:                                                                                                  #       *CDUX, OGAD
000059:
000060:                                                                                                  #  OUTPUT....
000061:                                                                                                  #       *ROLL DAP OGANOW, FDAI NEEDLE (AK). AND PHASE PLANE OGAERR
000062:                                                                                                  #       *VARIABLE GAINS FOR PITCH/YAW AND ROLL TVC DAPS
000063:                                                                                                  #       *SINGLE-SHOT AND REPETITIVE CORRECTIONS TO ENGINE TRIM ANGLES
000064:                                                                                                  #        PACTOFF AND YACTOFF
000065:
000066:                                                                                                  #  DEBRIS....    MUCH, BUT SHAREABLE WITH RCS/ENTRY, ALL IN EBANK6
000067:


000069: 16,2720                                           BANK     16
000070: 16,2000                                           SETLOC   DAPROLL
000071: 16,2000                                           BANK
000072: 16,2720  E6,1702                                  EBANK=   BZERO
000073: 16,2720                                           COUNT*   $$/TVCX
000074:
000075: 16,2720           40102        TVCEXEC            CS       FLAGWRD6                              #  CHECK FOR TERMINATION (BITS 15,14 READ
000076: 16,2721           74105                           MASK     OCT60000                              #        10 FROM TVCDAPON TO RCSDAPON)
000077: 16,2722           00006                           EXTEND
000078: 16,2723           63134                           BZMF     TVCEXFIN                              #  TERMINATE
000079:
000080: 16,2724           35036                           CAF      .5SEC                                 #  W.L. CALL TO PERPETUATE TVCEXEC
000081: 16,2725           05245                           TC       WAITLIST
000082: 16,2726  E6,1702                                  EBANK=   BZERO
000083: 16,2726           02720 34066                     2CADR    TVCEXEC
000084:
000085: 16,2730           30032        ROLLPREP           CAE      CDUX                                  #  UPDATE ROLL LADDERS (NO NEED TO RESTART-
000086: 16,2731           57662                           XCH      OGANOW                                #        PROTECT, SINCE ROLL DAPS RE-START)
000087: 16,2732           57663                           XCH      OGAPAST
000088:
000089: 16,2733           31450                           CAE      OGAD                                  #  PREPARE ROLL FDAI NEEDLE WITH FLY-TO
000090: 16,2734           00006                           EXTEND                                         #        ERROR (COMMAND - MEASURED)
000091: 16,2735           21662                           MSU      OGANOW
000092: 16,2736           55476                           TS       AK                                    #  FLY-TO OGA ERROR, SC.AT B-1 REVS
000093:
000094: 16,2737           00006                           EXTEND                                         #  PREPARE ROLL DAP PHASE PLANE OGAERR
000095: 16,2740           77705                           MP       -BIT14
000096: 16,2741           55664                           TS       OGAERR                                #  PHASE-PLANE (FLY-FROM) OGAERROR,
000097:                                                                                                  #        SC.AT B+0 REVS
000098:
000099: 16,2742           36214                           CAF      THREE                                 #  SET UP ROLL DAP TASK (ALLOW SOME TIME)
000100: 16,2743           05245                           TC       WAITLIST
000101: 16,2744  E6,1702                                  EBANK=   BZERO
000102: 16,2744           03272 34066                     2CADR    ROLLDAP
000103:
000104: 16,2746           04740        NEEDLEUP           TC       IBNKCALL                              #  DO A NEEDLES UPDATE (RETURNS AFTER CADR)
000105: 16,2747           42420                           CADR     NEEDLER                               #        (NEEDLES RESTARTS ITSELF)
000106:
000107: 16,2750           35003        VARGAINS           CAF      BIT13                                 #  CHECK ENGINE-ON BIT TO INHIBIT VARIABLE
000108: 16,2751           00006                           EXTEND                                         #        GAINS AND MASS IF ENGINE OFF
000109: 16,2752           02011                           RAND     DSALMOUT                              #  CHANNEL 11
000110: 16,2753           10000                           CCS      A
000111: 16,2754           12760                           TCF      +4                                    #        ON, SO OK TO UPDATE GAINS AND MASS
000112: 16,2755           35016                 +5        CAF      TWO                                   #        OFF, SO BYPASS MASS/GAIN UPDATES,
000113: 16,2756           55651                           TS       TVCEXPHS                              #                ALSO ENTRY FROM CCS BELOW WITH
000114: 16,2757           13011                           TCF      1SHOTCHK                              #                VCNTR = -0 (V97 R40 ENGFAIL)
000115: 16,2760           11643                           CCS      VCNTR                                 #        TEST FOR GAIN UPDATE TIME
000116: 16,2761           12765                           TCF      +4                                    #                NOT YET


000118: 16,2762           12771                           TCF      GAINCHNG                              #                NOW
000119: 16,2763           12763                           TCF      +0                                    #                NOT USED
000120: 16,2764           12755                           TCF      VARGAINS   +5                         #                NO, LOTHRUST (S40.8 R40)
000121:
000122: 16,2765           55653                 +4        TS       VCNTRTMP                              #        PROTECT VCNTR AND
000123: 16,2766           31474                           CAE      CSMMASS                               #        CSMMASS DURING AN IMPULSIVE BURN
000124: 16,2767           55652                           TS       MASSTMP
000125: 16,2770           13002                           TCF      EXECCOPY
000126:
000127: 16,2771           04740        GAINCHNG           TC       IBNKCALL                              #  UPDATE IXX, IAVG, IAVG/TLX
000128: 16,2772           13422                           CADR     FIXCW                                 #  MASSPROP ENTRY (ALREADY INITIALIZED)
000129: 16,2773           04740                           TC       IBNKCALL                              #  UPDATE 1/CONACC, VARK
000130: 16,2774           36462                           CADR     S40.15                                #        (S40.15 IS IN TVCINITIALIZE)
000131: 16,2775           41637                           CS       TENMDOT                               #  UPDATE MASS FOR NEXT 10 SEC. OF BURN
000132: 16,2776           61474                           AD       CSMMASS
000133: 16,2777           55652                           TS       MASSTMP                               #  KG B+16
000134:
000135: 16,3000           34374                           CAF      NINETEEN                              #  RESET THE VARIABLE-GAIN UPDATE COUNTER
000136: 16,3001           55653                           TS       VCNTRTMP
000137:
000138: 16,3002           25651        EXECCOPY           INCR     TVCEXPHS                              #  RESTART-PROTECT THE COPYCYCLE         (1)
000139:
000140: 16,3003           31652                           CAE      MASSTMP                               #  CSMMASS KG B+16
000141: 16,3004           55474                           TS       CSMMASS
000142:
000143: 16,3005           31653                           CAE      VCNTRTMP                              #  VCNTR
000144: 16,3006           55643                           TS       VCNTR
000145: 16,3007           55444                           TS       V97VCNTR                              #  FOR ENGFAIL (R41) MASS UPDATES AT SPSOFF
000146:
000147: 16,3010           25651                           INCR     TVCEXPHS                              #  COPYCYCLE OVER                        (2)
000148:
000149: 16,3011           11447        1SHOTCHK           CCS      CNTR                                  #  CHECK TIME FOR ONE-SHOT OR REPCORR
000150: 16,3012           13016                           TCF      +4                                    #        NOT YET
000151: 16,3013           13031                           TCF      1SHOTOK                               #        NOW
000152: 16,3014           13022                           TCF      REPCHEK                               #        ONE-SHOT OVER, ON TO REPCORR
000153: 16,3015           13031                           TCF      1SHOTOK                               #        NOW (ONE-SHOT ONLY, NO REPCORR)
000154:
000155: 16,3016           55676                 +4        TS       CNTRTMP                               #  COUNT DOWN
000156: 16,3017           36211                           CAF      SIX                                   #  SETUP TVCEXPHS FOR ENTRY AT CNTRCOPY
000157: 16,3020           55651                           TS       TVCEXPHS
000158: 16,3021           13132                           TCF      CNTRCOPY
000159:
000160: 16,3022           31642        REPCHEK            CAE      REPFRAC                               #  CHECK FOR REPETITIVE UPDATES
000161: 16,3023           00006                           EXTEND
000162: 16,3024           63134                           BZMF     TVCEXFIN                              #        NO,  OVER-AND-OUT
000163: 16,3025           55446                           TS       TEMPDAP    +1                         #        YES, SET UP CORRECTION FRACTION
000164: 16,3026           35015                           CAF      FOUR                                  #  SET UP TVCEXPHS FOR ENTRY AT CORSETUP
000165: 16,3027           55651                           TS       TVCEXPHS
000166: 16,3030           13043                           TCF      CORSETUP


000168: 16,3031           35003        1SHOTOK            CAF      BIT13                                 #  CHECK ENGINE-ON BIT, NOT PERMITTING
000169: 16,3032           00006                           EXTEND                                         #        ONE-SHOT DURING ENGINE-SHUTDOWN
000170: 16,3033           02011                           RAND     DSALMOUT
000171: 16,3034           10000                           CCS      A
000172: 16,3035           13037                           TCF      +2                                    #        ONE-SHOT OK
000173: 16,3036           13134                           TCF      TVCEXFIN                              #        NO, TERMINATE
000174:
000175: 16,3037           25651                           INCR     TVCEXPHS                              #                                        (3)
000176:
000177: 16,3040           33137        TEMPSET            CAF      FCORFRAC                              #        SET UP CORRECTION FRACTION
000178: 16,3041           55446                           TS       TEMPDAP    +1
000179:
000180: 16,3042           25651                           INCR     TVCEXPHS                              #  ENTRY FROM REPCHEK AT NEXT LOCATION   (4)
000181:
000182: 16,3043           31466        CORSETUP           CAE      DAPDATR1                              #  CHECK FOR LEM-OFF/ON
000183: 16,3044           75003                           MASK     BIT13                                 #  (NOTE, SHOWS LEM-OFF)
000184: 16,3045           00006                           EXTEND
000185: 16,3046           13050                           BZF      +2                                    #  LEM IS ON,  PICK UP   TEMPDAP+1
000186: 16,3047           31446                           CAE      TEMPDAP    +1                         #  LEM IS OFF, PICK UP 2(TEMPDAP+1)
000187: 16,3050           61446                           AD       TEMPDAP    +1
000188: 16,3051           55445                           TS       TEMPDAP                               #  CG.CORR USES TEMPDAP
000189:
000190: 16,3052           37716                           CAF      NEGONE                                #  SET UP FOR CNTR = -1 (ONE-SHOT DONE)
000191: 16,3053           55676                           TS       CNTRTMP                               #        (COPYCYCLE AT .CNTRCOPY.)
000192:
000193: 16,3054           00006        CG.CORR            EXTEND                                         #  PITCH TMC LOOP
000194: 16,3055           31606                           DCA      PDELOFF
000195: 16,3056           53673                           DXCH     PACTTMP
000196: 16,3057           00006                           EXTEND
000197: 16,3060           41606                           DCS      PDELOFF
000198: 16,3061           20001                           DDOUBL
000199: 16,3062           20001                           DDOUBL
000200: 16,3063           53612                           DXCH     TTMP1
000201: 16,3064           00006                           EXTEND
000202: 16,3065           31602                           DCA      DELPBAR
000203: 16,3066           20001                           DDOUBL
000204: 16,3067           20001                           DDOUBL
000205: 16,3070           21612                           DAS      TTMP1
000206: 16,3071           00006                           EXTEND
000207: 16,3072           31612                           DCA      TTMP1
000208: 16,3073           00006                           EXTEND
000209: 16,3074           71445                           MP       TEMPDAP
000210: 16,3075           21673                           DAS      PACTTMP
000211:
000212: 16,3076           00006                           EXTEND                                         #  YAW TMC LOOP
000213: 16,3077           31610                           DCA      YDELOFF
000214: 16,3100           53675                           DXCH     YACTTMP
000215: 16,3101           00006                           EXTEND
000216: 16,3102           41610                           DCS      YDELOFF
000217: 16,3103           20001                           DDOUBL


000219: 16,3104           20001                           DDOUBL
000220: 16,3105           53612                           DXCH     TTMP1
000221: 16,3106           00006                           EXTEND
000222: 16,3107           31604                           DCA      DELYBAR
000223: 16,3110           20001                           DDOUBL
000224: 16,3111           20001                           DDOUBL
000225: 16,3112           21612                           DAS      TTMP1
000226: 16,3113           00006                           EXTEND
000227: 16,3114           31612                           DCA      TTMP1
000228: 16,3115           00006                           EXTEND
000229: 16,3116           71445                           MP       TEMPDAP
000230: 16,3117           21675                           DAS      YACTTMP
000231:
000232: 16,3120           25651        CORCOPY            INCR     TVCEXPHS                              #  RESTART PROTECT THE COPYCYCLE         (5)
000233:
000234: 16,3121           00006                           EXTEND                                         #  TRIM-ESTIMATES, AND
000235: 16,3122           31673                           DCA      PACTTMP
000236: 16,3123           55423                           TS       PACTOFF                               #        TRIMS
000237: 16,3124           53606                           DXCH     PDELOFF
000238:
000239: 16,3125           00006                           EXTEND
000240: 16,3126           31675                           DCA      YACTTMP
000241: 16,3127           55424                           TS       YACTOFF
000242: 16,3130           53610                           DXCH     YDELOFF
000243:
000244: 16,3131           25651                           INCR     TVCEXPHS                              #  ENTRY FROM 1SHOTCHK AT NEXT LOCATION  (6)
000245:
000246: 16,3132           31676        CNTRCOPY           CAE      CNTRTMP                               #  UPDATE CNTR (RESTARTS OK, FOLLOWS CPYCY)
000247: 16,3133           55447                           TS       CNTR
000248:
000249: 16,3134           35021        TVCEXFIN           CAF      ZERO                                  #  RESET TVCEXPHS
000250: 16,3135           55651                           TS       TVCEXPHS
000251: 16,3136           15324                           TCF      TASKOVER                              #  TVCEXECUTIVE FINISHED
000252:
000253: 16,3137           10000        FCORFRAC           OCT      10000                                 #  ONE-SHOT CORRECTION FRACTION
000254:


000257:
000258:

End of include-file TVCEXECUTIVE.agc.  Parent file is MAIN.agc


