
Source Code


000002:                                                                                                  ## Copyright:   Public domain.
000003:                                                                                                  ## Filename:    TVCROLLDAP.agc
000004:                                                                                                  ## Purpose:     A section of Comanche revision 051.
000005:                                                                                                  ##              It is part of the reconstructed source code for the
000006:                                                                                                  ##              original release of the flight software for the Command
000007:                                                                                                  ##              Module's (CM) Apollo Guidance Computer (AGC) for Apollo 11.
000008:                                                                                                  ##              The code has been recreated from a copy of Comanche 055. It
000009:                                                                                                  ##              has been adapted such that the resulting bugger words
000010:                                                                                                  ##              exactly match those specified for Comanche 51 in NASA drawing
000011:                                                                                                  ##              2021153D, which gives relatively high confidence that the
000012:                                                                                                  ##              reconstruction is correct.
000013:                                                                                                  ## Reference:   pp. 984-998
000014:                                                                                                  ## Assembler:   yaYUL
000015:                                                                                                  ## Contact:     Ron Burkey <info@sandroid.org>.
000016:                                                                                                  ## Website:     www.ibiblio.org/apollo/index.html
000017:                                                                                                  ## Mod history: 2019-07-30 MAS  Created from Comanche 55.
000018:


000020:                                                                                                  #  PROGRAM NAME...TVC ROLL AUTOPILOT
000021:                                                                                                  #  LOG SECTION...TVCROLLDAP                      SUBROUTINE...DAPCSM
000022:                                                                                                  #  MODIFIED BY SCHLUNDT                          21 OCTOBER 1968
000023:
000024:                                                                                                  #  FUNCTIONAL DESCRIPTION....
000025:
000026:                                                                                                  #       *AN ADAPTATION OF THE LEM P-AXIS CONTROLLER
000027:                                                                                                  #       *MAINTAIN OGA WITHIN 5 DEG DEADBND OF OGAD, WHERE OGAD = OGA AS SEEN
000028:                                                                                                  #        BY IGNITION (P40)
000029:                                                                                                  #       *MAINTAIN OGA RATE LESS THAN 0.1 DEG/SEC LIMIT CYCLE RATE
000030:                                                                                                  #       *SWITCHING LOGIC IN PHASE PLANE.... SEE GSOP CHAPTER 3
000031:                                                                                                  #       *USES T6 CLOCK TO TIME JET FIRINGS
000032:                                                                                                  #       *MAXIMUM JET FIRING TIME = 2.56 SECONDS, LIMITED TO 2.5 IF GREATER
000033:                                                                                                  #       *MINIMUM JET FIRING TIME = 15 MS
000034:                                                                                                  #       *JET PAIRS FIRE ALTERNATELY
000035:                                                                                                  #       *AT LEAST 1/2 SECOND DELAY BEFORE A NEW JET PAIR IS FIRED
000036:                                                                                                  #       *JET FIRINGS MAY NOT BE EXTENDED, ONLY SHORTENED, WHEN RE-EVALUATION
000037:                                                                                                  #        OF A JET FIRING TIME IS MADE ON A LATER PASS
000038:
000039:                                                                                                  #  CALLING SEQUENCE....
000040:
000041:                                                                                                  #       *ROLLDAP CALL VIA WAITLIST, IN PARTICULAR BY TVCEXEC (EVERY 1/2 SEC)
000042:                                                                                                  #        WITH A 3CS DELAY TO ALLOW FREE TIME FOR OTHER RUPTS (DWNRPT, ETC.)
000043:
000044:                                                                                                  #  NORMAL EXIT MODES.... ENDOFJOB
000045:
000046:                                                                                                  #  ALARM OR ABORT EXIT MODES.... NONE
000047:
000048:                                                                                                  #  SUBROUTINES CALLED.....NONE
000049:
000050:                                                                                                  #  OTHER INTERFACES....
000051:
000052:                                                                                                  #       *TVCEXEC SETS UP ROLLDAP TASK EVERY 1/2 SECOND AND UPDATES 1/CONACC
000053:                                                                                                  #        EVERY 10 SECONDS (VIA MASSPROP AND S40.15)
000054:                                                                                                  #       *RESTARTS SUSPEND ROLL DAP COMPUTATIONS UNTIL THE NEXT 1/2 SEC
000055:                                                                                                  #        SAMPLE PERIOD.  (THE PART OF TVCEXECUTIVE THAT CALLS ROLL DAP IS
000056:                                                                                                  #        NOT RESTARTED.)  THE OGAD FROM IGNITION IS MAINTAINED.
000057:
000058:                                                                                                  #  ERASABLE INITIALIZATION REQUIRED....
000059:
000060:                                                                                                  #       *1/CONACC                                (S40.15)
000061:                                                                                                  #       *OGAD                                    (CDUX AT IGNITION)
000062:                                                                                                  #       *OGANOW                                  (CDUX AT TVCINIT4 AND TVCEXECUTIVE)
000063:                                                                                                  #       *OGAPAST                                 (OGANOW AT TVCEXECUTIVE)
000064:                                                                                                  #       *ROLLFIRE = TEMREG = ROLLWORD = 0        (MRCLEAN LOOP IN TVCDAPON)
000065:
000066:                                                                                                  #  OUTPUT....
000067:
000068:                                                                                                  #       *ROLL JET PAIR FIRINGS
000069:


000071:                                                                                                  #  DEBRIS.... MISCELLANEOUS, SHAREABLE WITH RCS/ENTRY, IN EBANK6 ONLY
000072:


000074:                                                                                                  #  SOME NOTES ON THE ROLL AUTOPILOT, AND IN PARTICULAR, ON ITS SWITCHING
000075:                                                                                                  #  LOGIC.  SEE SECTION THREE OF THE GSOP (SUNDISK/COLOSSUS) FOR DETAILS.
000076:
000077:                                                                                                  #  SWITCHING LOGIC IN THE PHASE PLANE....
000078:
000079:                                                                                                  #                               OGARATE
000080:                                                                                                  #                                  *
000081:                                                                                                  #                                  *
000082:                                                                                                  #   * * * * * * * * * * *          *
000083:                                                                                                  #                                  *     (REGION 1, SEE TEXT BELOW)
000084:                                                                                                  #                             *    *
000085:                                                                                                  #                                  *
000086:                                                                                                  #  * * * * * * *     (COAST)       *     ...PARABOLA (SWITCHING = CONTROL)
000087:                                                                                                  #                *                 *    .
000088:                                                                                                  #                  *               *   *
000089:                                                                                                  #                    *             *                (FIRE NEG ROLL JETS)
000090:                                                                                                  #                      *           *      *
000091:                                                                                                  #      (-DB,+LMCRATE)....*         *
000092:                                                                                                  #                        *         *        *
000093:                                                                                                  #                        *         *                              OGAERROR
000094:                                                                                                  #  ************************************************************************
000095:                                                                                                  #                                  *         *                (-AK, OGAERR)
000096:                                                                                                  #                         *        *         *      (REGION 6-PRIME)
000097:                                                                                                  #                                  *         *      (SEE TEXT BELOW)
000098:                                                                                                  #                           *      *           *
000099:                                                                                                  #                                  *             *     ...STRAIGHT LINE
000100:                                                                                                  #     (FIRE POS ROLL JETS)     *   *               *  .
000101:                                                                                                  #                                  *   (COAST)       *
000102:                                                                                                  #                                  *                   * * * * * * * * * *
000103:                                                                                                  #                                  *                         -MINLIM
000104:                                                                                                  #                                  *    *
000105:                                                                                                  #                                  *
000106:                                                                                                  #                                  *          * * * * * * * * * * * * * * *
000107:                                                                                                  #                                  *                        -MAXLIM
000108:                                                                                                  #                                  *
000109:                                                                                                  #                                  *
000110:
000111:                                                                                                  #  SWITCHING PARABOLAS ARE CONTROL PARABOLAS, THUS REQUIRING KNOWLEDGE OF
000112:                                                                                                  #        CONTROL ACCELERATION CONACC, OR ITS RECIPROCAL, 1/CONACC, THE TVC
000113:                                                                                                  #        ROLL DAP GAIN  (SEE TVCEXECUTIVE VARIABLE GAIN PACKAGE).  JET
000114:                                                                                                  #        FIRING TIME IS SIMPLY THAT REQUIRED TO ACHIEVE THE DESIRED OGARATE,
000115:                                                                                                  #        SUBJECT TO THE LIMITATIONS DISCUSSED UNDER FUNCTIONAL DESCRIPTION,
000116:                                                                                                  #        ABOVE.
000117:
000118:                                                                                                  #  THE THREE CONTROL REGIONS  (+, -, AND ZERO TORQUE) ARE COMPRIZED OF
000119:                                                                                                  #        TWELVE SUBSET REGIONS  ( 1...6, AND THE CORRESPONDING 1-PRIME...
000120:                                                                                                  #        6-PRIME )  SEE SECTION 3 OF THE GSOP  (SUNDISK OR COLOSSUS)


000122:
000123:                                                                                                  #  GIVEN THE OPERATING POINT NOT IN THE COAST REGION, THE DESIRED OGARATE
000124:                                                                                                  #        IS AT THE POINT OF PENETRATION OF THE COAST REGION BY THE CONTROL
000125:                                                                                                  #        PARABOLA WHICH PASSES THROUGH THE OPERATING POINT.  FOR REGION 3
000126:                                                                                                  #        DESIRED OGARATE IS SIMPLY +-MAXLIM.  FOR REGIONS 1 OR 6 THE SOLUTION
000127:                                                                                                  #        TO A QUADRATIC IS REQUIRED (THE PENETRATION IS ALONG THE STRAIGHT
000128:                                                                                                  #        LINE OR MINLIM BOUNDRY SWITCH LINES).  AN APPROXIMATION IS MADE
000129:                                                                                                  #        INSTEAD. TAKE AN OPERATING POINT IN REGION 6'.  PASS A TANGENT TO
000130:                                                                                                  #        THE CONTROL PARABOLA THROUGH THE OPERATING POINT, AND FIND ITS
000131:                                                                                                  #        INTERSECTION WITH THE STRAIGHT LINE SECTION OF THE SWITCH CURVE...
000132:                                                                                                  #        THE INTERSECTION DEFINES DESIRED OGARATE.  IF THE OPERATING POINT IS
000133:                                                                                                  #        CLOSE TO THE SWITCH LINE, THE APPROXIMATION IS QUITE GOOD (INDEED
000134:                                                                                                  #        THE APPROXIMATE AND QUADRATIC SOLUTIONS CONVERGE IN THE LIMIT AS
000135:                                                                                                  #        THE SWITCH LINE IS APPROACHED).  IF THE OPERATING POINT IS NOT CLOSE
000136:                                                                                                  #        TO THE SWITCH LINE, THE APPROXIMATE SOLUTION GIVES VALID TREND
000137:                                                                                                  #        INFORMATION (DIRECTION OF DESIRED OGARATE) AT LEAST.  THE
000138:                                                                                                  #        RE-EVALUATION OF DESIRED OGARATE IN SUBSEQUENT ROLL DAP PASSES (1/2
000139:                                                                                                  #        SECOND INTERVALS) WILL BENEFIT FROM THE CONVERGENT NATURE OF THE
000140:                                                                                                  #        APPROXIMATION.
000141:
000142:                                                                                                  #  FOR LARGE OGAERROR THE TANGENT INTERSECTS +-MINLIM SWITCH BOUNDRY BEFORE
000143:                                                                                                  #        INTERSECTING THE STRAIGHT LINE SWITCH.  HOWEVER THE MINLIM IS
000144:                                                                                                  #        IGNORED IN COMPUTING THE FIRING TIME, SO THAT THE EXTENSION (INTO
000145:                                                                                                  #        THE COAST REGION) OF THE STRAIGHT LINE SWITCH IS WHAT IS FIRED TO.
000146:                                                                                                  #        IF THE ROLL DAP FINDS ITSELF IN THE COAST REGION BEFORE REACHING
000147:                                                                                                  #        THE DESIRED INTERSECTION (IE, IN THE REGION BETWEEN THE MINLIM
000148:                                                                                                  #        AND THE STRAIGHT LINE SWITCH) IT WILL EXIBIT NORMAL COAST-REGION
000149:                                                                                                  #        BEHAVIOR AND TURN OFF THE JETS.  THE PURPOSE OF THIS FIRING POLICY
000150:                                                                                                  #        IS TO MAINTAIN STATIC ROLL STABILITY IN THE EVENT OF A JET
000151:                                                                                                  #        FAILED-ON.
000152:
000153:                                                                                                  #  WHEN THE OPERATING POINT IS IN REGION 1 THE SAME APPROXIMATION IS
000154:                                                                                                  #        MADE, BUT AT AN ARTIFICIALLY-CREATED OR DUMMY OPERATING POINT,
000155:                                                                                                  #        DEFINED BY.. OGAERROR = INTERSECTION OF CONTROL PARABOLA AND
000156:                                                                                                  #        OGAERROR AXIS, OGARATE = +-LMCRATE WHERE SIGN IS OPPOSITE THAT OF
000157:                                                                                                  #        REAL OPERATING POINT RATE.  WHEN THE OPERATING POINT HAS PASSED
000158:                                                                                                  #        FROM REGION 1 TO REGION 6', THE DUMMY POINT IS NO LONGER REQUIRED,
000159:                                                                                                  #        AND THE SOLUTION REVERTS TO THAT OF A REGULAR REGION 6' POINT.
000160:
000161:                                                                                                  #  EQUATION FOR SWITCHING PARABOLA (SEE FIGURE ABOVE)....
000162:                                                                                                  #                                    2
000163:                                                                                                  #        SOGAERROR = (DB - (SOGARATE) (1/CONACC)/2) SGN(SOGARATE)
000164:
000165:                                                                                                  #  EQUATION FOR SWITCHING STRAIGHT LINE SEGMENT....
000166:
000167:                                                                                                  #        SOGARATE = -(-SLOPE)(SOGAERROR) - SGN(SOGARATE) INTERCEP
000168:
000169:                                                                                                  #                WHERE  INTERCEP = DB(-SLOPE) - LMCRATE


000171:
000172:                                                                                                  #  EQUATION FOR INTERSECTION, CONTROL PARABOLA AND STRAIGHT SWITCH LINE....
000173:
000174:                                                                                                  #        DOGADOT = NUM/DEN, WHERE
000175:                                                                                                  #                                       2
000176:                                                                                                  #                NUM = (-SLOPE)(OGARATE) (1/CONACC)
000177:                                                                                                  #                      +SGN(DELOGA)(-SLOPE)(OGAERROR - SGN(DELOGA)(DB))
000178:                                                                                                  #                      +LMCRATE
000179:
000180:                                                                                                  #                DEN = (-SLOPE)(LMCRATE)(1/CONACC) - SGN(DELOGA)
000181:                                                                                                  #                                                  2
000182:                                                                                                  #                DELOGA = OGAERROR - (DB -  OGARATE (1/CONACC)/2)SGN(OGARATE)
000183:
000184:                                                                                                  #  FOR REGIONS 6 AND 6-PRIME  USE ACTUAL OPERATING POINT  (OGA, OGARATE)
000185:                                                                                                  #        FOR OGAERROR AND OGARATE IN THE INTERSECTION EQUATIONS ABOVE.
000186:                                                                                                  #        FOR REGIONS 1 AND 1-PRIME USE DUMMY OPERATING POINT FOR OGAERROR
000187:                                                                                                  #        AND OGARATE, WHERE THE DUMMY POINT IS GIVEN BY....
000188:
000189:                                                                                                  #                OGAERROR = DELOGA + DB SGN(OGARATE)
000190:
000191:                                                                                                  #                OGARATE = -LMCRATE SGN(OGARATE)
000192:
000193:                                                                                                  #  NOTE, OGAERROR = OGA - OGAD  USES DUMMY REGISTER  OGA  IN ROLL DAP CODING
000194:                                                                                                  #        ALSO, AT POINT WHERE DOGARATE IS COMPUTED, REGISTER DELOGA IS USED
000195:                                                                                                  #        AS A DUMMY REGISTER FOR THE OGAERROR IN THE NUM EQUATION ABOVE


000197:
000198:                                                                                                  #  ROLLDAP CODING....
000199:
000200: 16,2000                                           SETLOC   DAPROLL
000201: 16,2000                                           BANK
000202: 16,3272  E6,1662                                  EBANK=   OGANOW
000203: 16,3272                                           COUNT*   $$/ROLL
000204: 16,3272           31662        ROLLDAP            CAE      OGANOW                                #  OGA RATE ESTIMATOR...SIMPLE FIRST-ORDER
000205: 16,3273           00006                           EXTEND                                         #        DIFFERENCE (SAMPLE TIME = 1/2 SEC)
000206: 16,3274           21663                           MSU      OGAPAST
000207: 16,3275           00006                           EXTEND
000208: 16,3276           75013                           MP       BIT5
000209: 16,3277           22000                           LXCH     A
000210: 16,3300           55533                           TS       OGARATE                               #  SC.AT B-4 REV/SEC
000211:
000212:                                                                                                  #  COMPUTATIONS WHICH FOLLOW USE OGA FOR OGAERR (SAME REGISTER)
000213:                                                                                                  #  EXAMINE DURATION OF LAST JET FIRING IF JETS NOW ON.
000214:
000215: 16,3301           31571        DURATION           CA       ROLLFIRE                              #  SAME SGN AS PRESENT TORQ,MAGN=POSMAX
000216: 16,3302           00006                           EXTEND
000217: 16,3303           13305                           BZF      +2                                    #  ROLL JETS ARE NOW OFF.
000218: 16,3304           13313                           TCF      ROLLOGIC                              #  ENTER LOGIC, JETS NOW ON.
000219:
000220: 16,3305           31573                           CAE      TEMREG                                #  EXAMINE LAST FIRING INTERVAL
000221: 16,3306           00006                           EXTEND                                         #  IF POSITIVE, DONT FIRE
000222: 16,3307           13313                           BZF      ROLLOGIC                              #  ENTER LOGIC, JETS NOW OFF.
000223:
000224: 16,3310           35021                           CAF      ZERO                                  #  JETS HAVE NOT BEEN OFF FOR 1/2 SEC. WAIT
000225: 16,3311           55573                           TS       TEMREG                                #  RESET TEMREG
000226: 16,3312           15324        WAIT1/2            TCF      TASKOVER                              #  EXIT ROLL DAP
000227:
000228:                                                                                                  #  COMPUTE DB-(1/2 CONACC) (OGARATE)SQ  (1/2 IN THE SCALING)
000229:
000230: 16,3313           41533        ROLLOGIC           CS       OGARATE                               #  SCALED AT 2(-4) REV/SEC
000231: 16,3314           00006                           EXTEND
000232: 16,3315           71640                           MP       1/CONACC                              #  SCALED AT 2(+9) SEC SQ /REV
000233: 16,3316           00006                           EXTEND
000234: 16,3317           71533                           MP       OGARATE
000235: 16,3320           63706                           AD       DB                                    #  SCALED AT 2(+0) REV
000236: 16,3321           55573                           TS       TEMREG                                #  QUANTITY SCALED AT 2(+0) REV.
000237:
000238:                                                                                                  #  GET SIGN OF OGARATE
000239:
000240: 16,3322           31533                           CA       OGARATE
000241: 16,3323           00006                           EXTEND
000242: 16,3324           63327                           BZMF     +3                                    #  LET SGN(0) BE NEGATIVE
000243: 16,3325           35017                           CA       BIT1
000244: 16,3326           13330                           TCF      +2
000245: 16,3327           45017                           CS       BIT1
000246: 16,3330           55666                           TS       SGNRT                                 #  + OR -  2(-14)
000247:


000249:                                                                                                  #  CALCULATE DISTANCE FROM SWITCH PARABOLA (DELOGA)
000250: 16,3331           00006                           EXTEND
000251: 16,3332           71573                           MP       TEMREG                                #  SGN(OGARATE) TEMREG NOW IN L
000252: 16,3333           40001                           CS       L
000253: 16,3334           61664                           AD       OGA                                   #  SCALED AT 2(+0) REV
000254: 16,3335           55667        DELOGAC            TS       DELOGA                                #  SCALE B+0 REV, PLUS TO RIGHT OF C-PARAB
000255:
000256:                                                                                                  #  EXAMINE SGN(DELOGA) AND CREATE CA OR CS INSTR. DEPENDING UPON SIGN.
000257:
000258: 16,3336           00006                           EXTEND
000259: 16,3337           63342                           BZMF     +3
000260: 16,3340           34371                           CAF      PRIO30                                #  = CA (30000)
000261: 16,3341           13343                           TCF      +2
000262: 16,3342           35001                           CAF      BIT15                                 #  = CS (40000)
000263: 16,3343           55670                           TS       I
000264:
000265: 16,3344           51670                           INDEX    I                                     #  TSET ON  I SGN(OGARATE)
000266: 16,3345           01666                           0        SGNRT                                 #  CA OR CS
000267: 16,3346           40000                           COM
000268: 16,3347           00006                           EXTEND
000269: 16,3350           63421        REG1TST            BZMF     ROLLON                                #  IF REGION 1 (DELOGA OGARATE SAME SIGN)
000270:
000271:                                                                                                  #  NO JET FIRE YET, TEST FOR MAX OGARATE
000272:
000273: 16,3351           51670                           INDEX    I
000274: 16,3352           01533                           0        OGARATE                               #  CA OR CS...BOTH MUST BE NEG. HERE
000275: 16,3353           55671                           TS       IOGARATE                              #  I.E. I OGARATE
000276: 16,3354           63714                           AD       MAXLIM                                #  SCALED AT 2(-4) REV/SEC
000277: 16,3355           00006                           EXTEND
000278: 16,3356           63500        REG3TST            BZMF     RATELIM                               #  IF REGION 3 (RATES TOO HIGH, FIRE JETS)
000279:
000280:                                                                                                  #  COMPUTATION OF I((-SLOPE)OGA + OGARATE) - INTERCEPT..NOTE THAT STR. LINE
000281:                                                                                                  #  SWITCH SLOPE IS (SLOPE) DEG/SEC/DEG, A NEG QUANTITY
000282:
000283: 16,3357           31533                           CA       OGARATE
000284: 16,3360           00006                           EXTEND
000285: 16,3361           75002                           MP       BIT14
000286: 16,3362           55573                           TS       TEMREG
000287: 16,3363           31664                           CA       OGA
000288: 16,3364           00006                           EXTEND
000289: 16,3365           73707                           MP       -SLOPE
000290: 16,3366           20001                           DDOUBL
000291: 16,3367           20001                           DDOUBL
000292: 16,3370           20001                           DDOUBL                                         #  (OGA ERROR MUST BE LESS THAN +-225 DEG)
000293: 16,3371           61573                           AD       TEMREG
000294:
000295: 16,3372           51670                           INDEX    I
000296: 16,3373           00000                           0        A                                     #  I((-SLOPE)OGA+OGARATE) AT 2(-3)REV/SEC
000297: 16,3374           40000                           COM


000299: 16,3375           63711                           AD       INTERCEP                              #  SCALED AT 2(-3) REV.
000300: 16,3376           40000                           COM
000301: 16,3377           00006                           EXTEND
000302: 16,3400           63611        REG2TST            BZMF     NOROLL                                #  IF REGION 2 (COAST SIDE OF STRT LINE)
000303:
000304:                                                                                                  #  CHECK TO SEE IF OGARATE IS ABOVE MINLIM BOUNDARY
000305:
000306: 16,3401           31671                           CA       IOGARATE                              #  ALWAYS NEGATIVE
000307: 16,3402           63712                           AD       MINLIM                                #  SCALED AT 2(-4) REV/SEC
000308: 16,3403           00006                           EXTEND
000309: 16,3404           63611        REG4TST            BZMF     NOROLL                                #  IF REGION 4 (COAST SIDE OF MINLIM)
000310:
000311:                                                                                                  #  ALL AREAS CHECKED EXCEPT LAST AREA...NO FIRE IN THIS SMALL SEGMENT
000312:
000313: 16,3405           51670                           INDEX    I
000314: 16,3406           01664                           0        OGA
000315: 16,3407           40000                           COM
000316: 16,3410           63706                           AD       DB
000317: 16,3411           40000                           COM
000318: 16,3412           00006                           EXTEND
000319: 16,3413           63611        REG5TST            BZMF     NOROLL                                #  IF REGION 5 (COAST SIDE OF DB)
000320:
000321:                                                                                                  #  JETS MUST FIRE NOW.  OGARATE IS NEG. (OR VISA VERSA).  USE DIRECT STR. LINE.
000322:                                                                                                  #  DELOGA AND DELOGART ARE USED AS DUMMY VARIABLES IN THE SOLUTION OF A
000323:                                                                                                  #  STRAIGHT LINE APPROXIMATION TO A QUADRATIC SOLUTION OF THE INTERSECTION
000324:                                                                                                  #  OF THE CONTROL PARABOLA AND THE STRAIGHT-LINE SWITCH LINE.  THE STRAIGHT
000325:                                                                                                  #  LINE IS THE TANGENT TO THE CONTROL PARABOLA AT THE OPERATING POINT.  (FOR
000326:                                                                                                  #  OPERATING POINTS IN REGIONS 6 OR 6')
000327:
000328: 16,3414           31664        REGION6            CAE      OGA                                   #  USE ACTUAL OPERATING POINT FOR TANGENT
000329: 16,3415           55667                           TS       DELOGA                                #  ACTUAL STATE
000330: 16,3416           31533                           CA       OGARATE
000331: 16,3417           55665                           TS       DELOGART                              #  ACTUAL STATE, I.E. DEL OGARATE
000332: 16,3420           13430                           TCF      ONROLL
000333:
000334:                                                                                                  #  JETS ALSO FIRE FROM HERE EXCEPT OGARATE IS POS (VISA VERSA), USE INDIRECT
000335:                                                                                                  #  STRAIGHT LINE ESTABLISHED BY TANGENT TO A CONTROL PARABOLA AT  ((DELOGA
000336:                                                                                                  #  + DB SGN(DELOGA) ), -LMCRATE SGN(DELOGA) )    (THIS IS THE DUMMY
000337:                                                                                                  #  OPERATING POINT FOR OPERATING POINTS IN REGIONS 1 AND 1')
000338:
000339: 16,3421           51670        ROLLON             INDEX    I
000340: 16,3422           03706                           0        DB
000341: 16,3423           27667                           ADS      DELOGA                                #  DELOGA WAS DIST. FROM SWITCH PARABOLA
000342:
000343: 16,3424           43710                           CS       LMCRATE                               #  LIMIT CYCLE RATE AT 2(-4) REV/SEC
000344: 16,3425           51670                           INDEX    I
000345: 16,3426           00000                           0        A
000346: 16,3427           55665                           TS       DELOGART                              #  EVALUATE STATE FOR INDIRECT LINE.
000347:


000349:                                                                                                  #  SOLVE STRAIGHT LINES SIMULTANEOUSLY TO OBTAIN DESIRED OGARATE.
000350:
000351: 16,3430           00006        ONROLL             EXTEND                                         #  DELOGART IN ACC. ON ARRIVAL
000352: 16,3431           71640                           MP       1/CONACC
000353: 16,3432           60000                           DOUBLE
000354: 16,3433           00006                           EXTEND
000355: 16,3434           73707                           MP       -SLOPE
000356: 16,3435           55573                           TS       TEMREG                                #  2(-SLOPE)RATE /CONACC
000357: 16,3436           00006                           EXTEND
000358: 16,3437           71665                           MP       DELOGART
000359: 16,3440           55665                           TS       DELOGART                              #  2(-SLOPE)(RATESQ)/CONACC
000360: 16,3441           45005                           CS       BIT11
000361: 16,3442           51670                           INDEX    I
000362: 16,3443           00000                           0        A
000363: 16,3444           27573        RATEDEN            ADS      TEMREG                                #  DENOMINATOR COMPLETED
000364:
000365: 16,3445           51670                           INDEX    I
000366: 16,3446           01667                           0        DELOGA
000367: 16,3447           40000                           COM
000368: 16,3450           63706                           AD       DB
000369: 16,3451           40000                           COM
000370: 16,3452           00006                           EXTEND
000371: 16,3453           73707                           MP       -SLOPE
000372: 16,3454           27665                           ADS      DELOGART
000373: 16,3455           33710                           CA       LMCRATE
000374: 16,3456           00006                           EXTEND
000375: 16,3457           75005                           MP       BIT11
000376: 16,3460           61665        RATENUM            AD       DELOGART                              #  NUMERATOR COMPLETED
000377:
000378: 16,3461           56001                           XCH      L                                     #  PLACE NUMERATOR IN L FOR OVERFL.  CHECK
000379: 16,3462           35021                           CA       ZERO
000380: 16,3463           00006                           EXTEND
000381: 16,3464           11573                           DV       TEMREG                                #  OVERFLOW, IF ANYTHING, NOW APPEARS IN A
000382: 16,3465           00006                           EXTEND
000383: 16,3466           13474                           BZF      DVOK                                  #  NO OVERFLOW....(0,L)/TEMREG = 0,L
000384:
000385: 16,3467           10000        MINLIMAP           CCS      A
000386: 16,3470           34777                           CAF      POSMAX                                #        POSITIVE OVERFLOW
000387: 16,3471           13503                           TCF      ROLLSET
000388: 16,3472           44777                           CS       POSMAX                                #        NEGATIVE OVERFLOW
000389: 16,3473           13503                           TCF      ROLLSET
000390:
000391: 16,3474           22000        DVOK               LXCH     A                                     #  PUT NUMERATOR BACK INTO A, 0 IN L
000392: 16,3475           00006                           EXTEND
000393: 16,3476           11573                           DV       TEMREG                                #  RESULT OF DIVISION IS DESIRED OGARATE
000394: 16,3477           13503                           TCF      ROLLSET                               #        (SCALED AT B-4 REV/SEC)
000395:
000396: 16,3500           43714        RATELIM            CS       MAXLIM
000397: 16,3501           51670                           INDEX    I


000399: 16,3502           00000                           0        A                                     #  IF I = CA, DESIRED RATE IS  -MAXLIM
000400:
000401:                                                                                                  #  COMPUTE JET FIRE TIME, BASED ON DESIRED RATE MINUS PRESENT RATE
000402:
000403: 16,3503           55573        ROLLSET            TS       TEMREG                                #  STORE DESIRED OGARATE (SCALED B-4)
000404: 16,3504           00006                           EXTEND
000405: 16,3505           61533                           SU       OGARATE                               #  RATE DIFF. SCALED AT 2(-4) REV/SEC
000406: 16,3506           55573                           TS       TEMREG                                #        OVERFLOW PROTECT
000407: 16,3507           13512                           TCF      +3                                    #            "       "
000408: 16,3510           50000                           INDEX    A                                     #            "       "
000409: 16,3511           45000                           CS       LIMITS                                #            "       "
000410: 16,3512           00006                           EXTEND
000411: 16,3513           77665                           MP       T6SCALE                               #  T6SCALE = 8/10.24
000412: 16,3514           00006                           EXTEND
000413: 16,3515           71640                           MP       1/CONACC                              #  SCALED AT B+9 SECSQ/REV (MAX < .60)
000414: 16,3516           20001                           DDOUBL
000415: 16,3517           20001                           DDOUBL
000416: 16,3520           55573                           TS       TEMREG                                #        OVERFLOW PROTECT
000417: 16,3521           13524                           TCF      +3                                    #            "       "
000418: 16,3522           50000                           INDEX    A                                     #            "       "
000419: 16,3523           45000                           CS       LIMITS                                #            "       "
000420: 16,3524           55573                           TS       TEMREG                                #  JET FIRE TIME AT 625 MICROSEC/BIT
000421: 16,3525           00006                           EXTEND                                         #  POS MEANS POSITIVE ROLL TORQUE.
000422: 16,3526           13611                           BZF      NOROLL
000423:
000424:                                                                                                  #  JET FIRE TIME IS NZ, TEST FOR JETS NOW ON.
000425:
000426: 16,3527           31573                           CAE      TEMREG                                #  DESIRED CHANGE IN OGARATE
000427: 16,3530           00006                           EXTEND
000428: 16,3531           71571                           MP       ROLLFIRE                              #  (SGN OF TORQUE..ZERO IF JETS NOW OFF)
000429: 16,3532           10000                           CCS      A
000430: 16,3533           13537                           TCF      MOREROLL                              #  CONTINUE FIRING WITH PRESENT POLARITY
000431: 16,3534           13542                           TCF      NEWROLL                               #  START NEW FIRING NOW, PLUS
000432: 16,3535           13611                           TCF      NOROLL                                #  TERMINATE OLD FIRING, NEW SIGN REQUESTED
000433: 16,3536           13542                           TCF      NEWROLL                               #  START NEW FIRING NOW, MINUS
000434:
000435:                                                                                                  #  CONTINUE PRESENT FIRING
000436:
000437: 16,3537           35021        MOREROLL           CAF      ZERO
000438: 16,3540           55670                           TS       I                                     #  USE TEMP. AS MOREROLL SWITCH
000439: 16,3541           13553                           TCF      MAXTFIRE
000440:
000441:                                                                                                  #  START NEW FIRING, BUT CHECK IF GREATER THAN MIN FIRE TIME.
000442:
000443: 16,3542           11573        NEWROLL            CCS      TEMREG                                #  CALL THIS T6FIRE
000444: 16,3543           65017                           AD       ONE
000445: 16,3544           13546                           TCF      +2
000446: 16,3545           65017                           AD       ONE
000447: 16,3546           40000                           COM                                            #  -MAG(T6FIRE)
000448: 16,3547           63715                           AD       TMINFIRE                              #  TMINFIRE-MAG(T6FIRE)


000450: 16,3550           40000                           COM
000451: 16,3551           00006                           EXTEND
000452: 16,3552           63611        MINTST             BZMF     NOROLL                                #  IF NOT GREATER THAN TMINFIRE (NEW FIRE)
000453:
000454:                                                                                                  #  PROCEED WITH NEW FIRING, BUT NOT LONGER THAN TMAXFIRE.
000455:
000456: 16,3553           31573        MAXTFIRE           CA       TEMREG
000457: 16,3554           00006                           EXTEND
000458: 16,3555           75015                           MP       1/TMXFIR                              #  I.E. 1/TMAXFIRE
000459: 16,3556           00006                           EXTEND
000460: 16,3557           13565        MAXTST             BZF      NOMXFIRE                              #  IF LESS THAN TMAXFIRE
000461:
000462: 16,3560           10000                           CCS      A
000463: 16,3561           33716                           CAF      TMAXFIRE                              #  USE MAXIMUM
000464: 16,3562           13564                           TCF      +2
000465: 16,3563           43716                           CS       TMAXFIRE                              #  USE MAXIMUM
000466: 16,3564           55573                           TS       TEMREG
000467:
000468:                                                                                                  #  SET UP SIGN OF REQUIRED TORQUE.
000469:
000470: 16,3565           11573        NOMXFIRE           CCS      TEMREG                                #  FOR TORQUE SIGN
000471: 16,3566           34777                           CA       POSMAX                                #  POSITIVE TORQUE REQUIRED
000472: 16,3567           13571                           TCF      +2
000473: 16,3570           35001                           CA       NEGMAX                                #  NEGATIVE TORQUE REQUIRED
000474: 16,3571           55571                           TS       ROLLFIRE                              #  SET ROLLFIRE FOR + OR - TORQUE
000475:
000476: 16,3572           40000                           COM                                            #  COMPLEMENT... POS. FOR NEG. TORQUE
000477: 16,3573           00006                           EXTEND
000478: 16,3574           63577                           BZMF     +3                                    #  POSITIVE TORQUE REQUIRED
000479: 16,3575           41573                           CS       TEMREG
000480: 16,3576           55573                           TS       TEMREG
000481:
000482: 16,3577           31670        FIRELOOK           CA       I                                     #  IS IT MOREROLL
000483: 16,3600           00006                           EXTEND
000484: 16,3601           13603                           BZF      FIREPLUG                              #  YES
000485: 16,3602           13614                           TCF      JETROLL                               #  MAG(T6FIRE) NOW IN TEMREG
000486:
000487: 16,3603           30031        FIREPLUG           CAE      TIME6                                 #  CHECK FOR EXTENDED FIRING
000488: 16,3604           00006                           EXTEND
000489: 16,3605           61573                           SU       TEMREG
000490: 16,3606           00006                           EXTEND
000491: 16,3607           65324        EXTENTST           BZMF     TASKOVER                              #  IF EXTENSION WANTED, DONT, EXIT ROLL DAP
000492: 16,3610           13614                           TCF      JETROLL
000493:
000494: 16,3611           45021        NOROLL             CS       ZERO                                  #  COAST....(NEG ZERO FOR TIME6)
000495: 16,3612           55571                           TS       ROLLFIRE                              #  NOTE, JETS CAN FIRE NEXT PASS
000496: 16,3613           55573                           TS       TEMREG
000497:
000498: 16,3614           00006        JETROLL            EXTEND
000499: 16,3615           33705                           DCA      NOROL1T6


000501: 16,3616           53311                           DXCH     T6LOC
000502: 16,3617           31573                           CA       TEMREG                                #  ENTER JET FIRING TIME
000503: 16,3620           54031                           TS       TIME6
000504:
000505: 16,3621           31670                           CA       I                                     #  I=0 IF MOREROLL, KEEP SAME JETS ON
000506: 16,3622           00006                           EXTEND
000507: 16,3623           15324        SAMEJETS           BZF      TASKOVER                              #  IF JETS ON KEEP SAME JETS.  EXIT ROLL DAP
000508:
000509: 16,3624           11571                           CCS      ROLLFIRE
000510: 16,3625           13631                           TCF      +TORQUE
000511: 16,3626           13672                           TCF      T6ENABL
000512: 16,3627           13652                           TCF      -TORQUE
000513: 16,3630           13672                           TCF      T6ENABL
000514:
000515:                                                                                                  #  PROCEED WITH PLUS TORQUE.
000516:
000517: 16,3631           31572        +TORQUE            CA       ROLLWORD                              #  WHAT WAS THE LAST +TORQUE COMBINATION
000518: 16,3632           75017                           MASK     BIT1                                  #  WAS IT NO.9-11
000519: 16,3633           00006                           EXTEND
000520: 16,3634           13644                           BZF      NO.9-11                               #  NOT 9-11, SO USE IT THIS TIME
000521:
000522: 16,3635           45017        NO.13-15           CS       BIT1
000523: 16,3636           71572                           MASK     ROLLWORD
000524: 16,3637           55572                           TS       ROLLWORD                              #  CHANGE BIT 1 TO ZERO
000525: 16,3640           35037                           CAF      +ROLL2
000526: 16,3641           00006                           EXTEND
000527: 16,3642           01006                           WRITE    CHAN6
000528: 16,3643           13672                           TCF      T6ENABL
000529:
000530: 16,3644           35017        NO.9-11            CAF      BIT1                                  #  1ST + JETS TO FIRE (MRCLEAN OS ROLLWORD)
000531: 16,3645           27572                           ADS      ROLLWORD                              #  CHANGE BIT 1 TO ONE
000532: 16,3646           35022                           CAF      +ROLL1
000533: 16,3647           00006                           EXTEND
000534: 16,3650           01006                           WRITE    CHAN6
000535: 16,3651           13672                           TCF      T6ENABL
000536:
000537: 16,3652           31572        -TORQUE            CA       ROLLWORD                              #  WHAT WAS LAST -TORQUE COMBINATION
000538: 16,3653           75016                           MASK     BIT2                                  #  WAS IT NO.12-10
000539: 16,3654           00006                           EXTEND
000540: 16,3655           13665                           BZF      NO.12-10                              #  NOT 12-10, SO USE IT THIS TIME
000541:
000542: 16,3656           45016        NO.16-14           CS       BIT2
000543: 16,3657           71572                           MASK     ROLLWORD
000544: 16,3660           55572                           TS       ROLLWORD                              #  CHANGE BIT 2 TO ZERO
000545: 16,3661           33717                           CAF      -ROLL2
000546: 16,3662           00006                           EXTEND
000547: 16,3663           01006                           WRITE    CHAN6
000548: 16,3664           13672                           TCF      T6ENABL
000549:
000550: 16,3665           35016        NO.12-10           CAF      BIT2                                  #  1ST -JETS TO FIRE (MRCLEAN OS ROLLWORD)


000552: 16,3666           27572                           ADS      ROLLWORD                              #  CHANGE BIT 2 TO ONE
000553: 16,3667           34377                           CAF      -ROLL1
000554: 16,3670           00006                           EXTEND
000555: 16,3671           01006                           WRITE    CHAN6
000556:
000557: 16,3672           35001        T6ENABL            CAF      BIT15
000558: 16,3673           00006                           EXTEND
000559: 16,3674           05013                           WOR      CHAN13
000560: 16,3675           15324        RDAPEND            TCF      TASKOVER                              #  EXIT ROLL DAP
000561:


000563:                                                                                                  #  THIS T6 TASK SHUTS OFF ALL ROLL JETS
000564:
000565: 16,3676           22016        NOROLL1            LXCH     BANKRUPT                              #  SHUT OFF ALL (ROLL) JETS, (A T6 TASK
000566: 16,3677           35021                           CAF      ZERO                                  #        CALLED BY ..JETROLL..)
000567: 16,3700           55571                           TS       ROLLFIRE                              #  ZERO INDICATES JETS NOW OFF
000568: 16,3701           00006                           EXTEND
000569: 16,3702           01006        KILLJETS           WRITE    CHAN6
000570: 16,3703           15335                           TCF      NOQRSM
000571:


000573:                                                                                                  #  CONSTANTS FOR ROLL AUTOPILOT....
000574:
000575: 16,3704  E6,1702                                  EBANK=   BZERO
000576: 16,3704           03676 34066  NOROL1T6           2CADR    NOROLL1
000577:
000578: 16,3706           00344        DB                 DEC      .01388889                             #  DEAD BAND (5 DEG), SC.AT B+0 REV
000579:
000580: 16,3707           06315        -SLOPE             DEC      0.2                                   #  -SWITCHLINE SLOPE(0.2 PER SEC) SC.AT B+0
000581:                                                                                                  #        PER SEC
000582: 16,3710           00111        LMCRATE            DEC      .00027778  B+4                        #  LIMIT CYCLE RATE (0.1 DEG/SEC) SC.AT
000583:                                                                                                  #        B-4 REV/SEC
000584: 16,3711           00510        INTERCEP           DEC      .0025      B+3                        #  DB(-SLOPE) - LMCRATE, SC.AT B-3 REV/SC
000585:
000586: 16,3712           01330        MINLIM             DEC      .00277778  B+4                        #  RATELIM,MIN (1DEG/SEC), SC.AT B-4 REV/SC
000587:
000588: 16,3713           00027        1/MINLIM           DEC      360        B-18                       #  RECIPROCAL THEREOF, SHIFTED 14 RIGHT
000589:
000590: 16,3714           07071        MAXLIM             DEC      .01388889  B+4                        #  RATELIM,MAX (5DEG/SEC), SC.AT B-4 REV/SC
000591:
000592: 16,3715           00030        TMINFIRE           DEC      1.5        B+4                        #  15 MS (14MIN), SC.AT 16 BITS/CS
000593:
000594: 16,3716           07640        TMAXFIRE           DEC      250        B+4                        #  2.5 SEC, SC.AT 16 BITS/CS
000595:
000596: 16,3717     5015               1/TMXFIR           =        BIT3                                  #  RECIPROCAL THEREOF, SHIFTED 14 RIGHT,
000597:                                                                                                  #        ROUNDS TO OCT00004, SO ALLOWS 2.56
000598:                                                                                                  #        SEC FIRINGS BEFORE APPLYING LIMIT
000599: 16,3717     7665               T6SCALE            =        PRIO31                                #  (B+3) (16 BITS/CS)  (100CS/SEC)
000600:
000601: 16,3717     5022               +ROLL1             =        FIVE                                  #  ONBITS FOR JETS 9 AND 11
000602: 16,3717     5037               +ROLL2             =        OCT120                                #  ONBITS FOR JETS 13 AND 15
000603: 16,3717     4377               -ROLL1             =        TEN                                   #  ONBITS FOR JETS 12 NAD 10
000604: 16,3717           00240        -ROLL2             OCT      240                                   #  ONBITS FOR JETS 16 AND 14
000605:

End of include-file TVCROLLDAP.agc.  Parent file is MAIN.agc


