
Source Code


000002:                                                                                                  ## Copyright:   Public domain.
000003:                                                                                                  ## Filename:    TVCRESTARTS.agc
000004:                                                                                                  ## Purpose:     A section of Comanche revision 051.
000005:                                                                                                  ##              It is part of the reconstructed source code for the
000006:                                                                                                  ##              original release of the flight software for the Command
000007:                                                                                                  ##              Module's (CM) Apollo Guidance Computer (AGC) for Apollo 11.
000008:                                                                                                  ##              The code has been recreated from a copy of Comanche 055. It
000009:                                                                                                  ##              has been adapted such that the resulting bugger words
000010:                                                                                                  ##              exactly match those specified for Comanche 51 in NASA drawing
000011:                                                                                                  ##              2021153D, which gives relatively high confidence that the
000012:                                                                                                  ##              reconstruction is correct.
000013:                                                                                                  ## Reference:   pp. 956-960
000014:                                                                                                  ## Assembler:   yaYUL
000015:                                                                                                  ## Contact:     Ron Burkey <info@sandroid.org>.
000016:                                                                                                  ## Website:     www.ibiblio.org/apollo/index.html
000017:                                                                                                  ## Mod history: 2019-07-30 MAS  Created from Comanche 55.
000018:


000020:                                                                                                  #  NAME....TVCRESTART PACKAGE, CONSISTING OF REDOTVC, ENABL1, 2, CMDSOUT, PHSCHK2, ETC.
000021:                                                                                                  #  LOG SECTION...TVCRESTARTS                     SUBROUTINE...DAPCSM
000022:                                                                                                  #  MODIFIED BY SCHLUNDT                          21 OCTOBER 1968
000023:
000024:                                                                                                  #  FUNCTIONAL DESCRIPTION....
000025:
000026:                                                                                                  #       *RESTART-PROOFS THE TVC DAPS, INCLUDING PITCHDAP, YAWDAP,
000027:                                                                                                  #        TVCEXECUTIVE, ROLLDAP, TVCINIT4, TVCDAPON, AND CSM/.M V46 SWTCHOVR.
000028:
000029:                                                                                                  #       *TVC RESTARTS DESERVE SPECIAL CONSIDERATION IN SEVERAL AREAS.
000030:                                                                                                  #        RESTART DOWN-TIME IS IMPORTANT BECAUSE OF THE TRANSIENTS INTRODUCED
000031:                                                                                                  #        BY THE THRUST VECTOR RETURN TO THE ACTUATOR MECHANICAL NULLS
000032:                                                                                                  #        FOLLOWING TVC- AND OPTICS-ERROR-COUNTER-DISENABLES (CHANNEL 12).
000033:                                                                                                  #        TVC USES A MIXTURE OF WAITLIST, T5, T6, AND JOB CALLS.  THERE IS
000034:                                                                                                  #        FILTER MEMORY (UP TO 6TH ORDER) TO BE PROTECTED IF WILD TRANSIENTS
000035:                                                                                                  #        ARE TO BE AVOIDED.  COUNTERS ARE INVOLVED FOR ONE-SHOT
000036:                                                                                                  #        CORRECTIONS AND GAIN UPDATES.  THE GIMBAL TRIM ESTIMATORS AND THE
000037:                                                                                                  #        BODY AXIS ATTITUDE ERROR INTEGRATORS INVOLVE DIGITAL SUMMATION.
000038:                                                                                                  #        DIGITAL DIFFERENTIATORS ARE INVOLVED IN THE BODY AXIS RATE ESTIMA-
000039:                                                                                                  #        TIONS AND IN THE OUTPUTTING OF ACTUATOR COMMANDS.  THERE IS AN
000040:                                                                                                  #        OFFSET-TRACKER-FILTER TO PROTECT.  ETC., ETC.
000041:
000042:                                                                                                  #       *THOSE QUANTITIES WHICH MUST BE PROTECTED ARE STORED IN TEMPORARY
000043:                                                                                                  #        REGISTERS AS THEY ARE COMPUTED, FOR UPDATING THE REAL REGISTERS
000044:                                                                                                  #        DURING COPYCYCLES.
000045:
000046:                                                                                                  #       *THE SEVERAL COPYCYCLES ARE EACH PROTECTED BY PHASE POINTS AT THEIR
000047:                                                                                                  #        BEGINNING AND AT THEIR TERMINATION.  THE PHASE POINTS ARE SIMPLY
000048:                                                                                                  #        ..INCR.. INSTRUCTIONS, EITHER ..INCR TVCEXPHS.. FOR COPYCYCLES
000049:                                                                                                  #        IN THE TVCEXECUTIVE, OR ..INCR TVCPHASE.. FOR THE PITCH AND YAW
000050:                                                                                                  #        COPYCYCLES.  INDEXING ON EACH OF THESE POINTERS THEN PERMITS A
000051:                                                                                                  #        RETURN TO THE APPROPRIATE RESTART POINTS.
000052:
000053:                                                                                                  #       *IF A RESTART OCCURS DURING EITHER COPYCYCLE, THAT COPYCYCLE IS
000054:                                                                                                  #        COMPLETED.  THEN THE NORMAL TVCINIT4....DAPINIT....PITCHDAP STARTUP
000055:                                                                                                  #        SEQUENCE IS CALLED UPON TO GET THINGS GOING AGAIN.
000056:
000057:                                                                                                  #       *TVC-ENABLE AND OPTICS-ERROR-COUNTER ENABLE MUST BE SET ASAP
000058:                                                                                                  #        (ALLOWING FOR PROCEDURAL DELAYS).  THEN THE ENGINES ARE COMMANDED
000059:                                                                                                  #        TO THE P,YACTOFF TRIM VALUES.  THE DAPS ARE THEN READY TO GO ON THE
000060:                                                                                                  #        AIR, WITH THE REGULAR STARTUP SEQUENCE, EITHER AT MRCLEAN FOR A
000061:                                                                                                  #        COMPLETE INITIALIZATION OR AT TVCINIT4 FOR A PARTIAL INITIALIZATION
000062:
000063:                                                                                                  #       *FOR RESTARTS PRIOR TO THE SETTING OF THE T5 BITS AT DOTVCON THE
000064:                                                                                                  #        PRE40.6 SECTION OF S40.6 TAKES CARE OF RE-ESTABLISHING TRIMS.
000065:
000066:                                                                                                  #       *IF A RESTART OCCURS DURING THE TVCEXEC....TVCEXFIN SEQUENCE THE
000067:                                                                                                  #        COMPUTATIONS WILL BE COMPLETED, STARTING AT THE APPROPRIATE RESTART
000068:                                                                                                  #        POINT, AFTER THE DAPS ARE READY TO GO ON THE AIR.
000069:
000070:                                                                                                  #       *IF A RESTART OCCURS PRIOR TO TVCINIT4 (TVCPHASE = -1) E.G. DURING
000071:                                                                                                  #        THE EARLY DAP INITIALIZATION PHASE, THE DAP STARTUP SEQUENCE IS
000072:                                                                                                  #        ENTERED AT MRCLEAN FOR A FULL INITIALIZATION.
000073:
000074:                                                                                                  #       *FOR RESTARTS DURING CSM/LM V46 SWITCH-OVER, TVCPHASE IS SET TO -2.
000075:                                                                                                  #        AND THE RESTART LOGIC GOES BACK TO REDO SWITCH-OVER (AFTER THE
000076:                                                                                                  #        NORMAL DAP RESTART SEQUENCE IS FOLLOWED).
000077:
000078:                                                                                                  #       *RESTARTS ARE NOT CRITICAL TO THE ROLL DAP PERFORMANCES HENCE THE
000079:                                                                                                  #        THE ROLL DAP IS MERELY RESTARTED.
000080:
000081:                                                                                                  #       *RESTARTS DURING A STROKE TEST (STROKER IS NON-ZERO) WILL CAUSE THE


000083:                                                                                                  #        STROKE TEST TO BE TERMINATED.  A NEW V68 ENTRY WILL BE REQUIRED
000084:                                                                                                  #        TO GET IT GOING AGAIN (NO AUTOMATIC RESTART).
000085:                                                                                                  #
000086:                                                                                                  #       *REDOTVC IS REACHED FOLLOWING ANY RESTART WHICH FINDS THE T5 BITS
000087:                                                                                                  #        (BITS 15,14 OF FLAGWRD6) SET FOR TVC.  DOTVCON SETS TVCPHASE = -1
000088:                                                                                                  #        AND TVC EXPHS = 0 JUST BEFORE SETTING THESE BITS, JUST BEFORE
000089:                                                                                                  #        MAKING THE T5 CALL TO TVCDAPON.  ON A NORMAL SHUTDOWN DOTVCRCS
000090:                                                                                                  #        CALLS RCSDAPON, WHICH RESETS THE T5 BITS FOR RCS.
000091:
000092:                                                                                                  #  CALLING SEQUENCE....T5, IN PARTICULAR BY ELRSKIP OF FRESH START/RESTART
000093:
000094:                                                                                                  #  NORMAL EXIT MODES....RESUME, NOQRSM, POSTJUMP (TO TVCINIT4 OR MRCLEAN)
000095:
000096:                                                                                                  #  ALARM OR ABORT EXIT MODES....NONE
000097:
000098:                                                                                                  #  SUBROUTINES CALLED....
000099:
000100:                                                                                                  #       *PCOPY+1, YCOPY+1 (PITCH AND YAW COPYCYCLES)
000101:                                                                                                  #       *ENABLE1,2, CMDSOUT (RE-ESTABLISH ACTUATOR TRIMS)
000102:                                                                                                  #       *MRCLEAN OR TVCINIT4 (TVCDAP INITIALIZATIONS)
000103:                                                                                                  #       *SWICHOVR +5 (CSM/LM V46 SWITCH-OVER)
000104:                                                                                                  #       *EXRSTRT AND TVCEXECUTIVE PHASE POINTS 1 THRU 6
000105:                                                                                                  #       *WAITLIST, IBNKCALL, POSTJUMP, ISWCALL
000106:
000107:                                                                                                  #  OTHER INTERFACES....DOTVCON AND RCSDAPON (T5 BITS), ELRSKIP (CALLS IT)
000108:
000109:                                                                                                  #  ERASABLE INITIALIZATION REQUIRED....
000110:
000111:                                                                                                  #       *T5 BITS (1,0), TVCPHASE (-2,-1,0,1,2,3), TVCEXPHS (1 THRU 6)
000112:                                                                                                  #       *TVC DAP VARIABLES
000113:                                                                                                  #       *OPERATIONS PERFORMED BY REDOTVC ARE BASED ON THE ASSUMPTION THAT
000114:                                                                                                  #        THE TVC DAPS ARE RUNNING NORMALLY
000115:
000116:                                                                                                  #  OUTPUT....
000117:
000118:                                                                                                  #       *PITCH AND YAW TVC DAP COPYCYCLES COMPLETED IF INTERUPTED
000119:                                                                                                  #       *TVCEXECUTIVE COMPLETED IF INTERUPTED
000120:                                                                                                  #       *STROKE TEST TERMINATED IF INTERRUPTED
000121:                                                                                                  #       *CSM/LM V46 SWITCH-OVER REPEATED IF INTERRUPTED
000122:                                                                                                  #       *ACTUATOR TRIMS RE-ESTABLISHED (ACTUATORS BACK ON THE AIR)
000123:                                                                                                  #       *TVC DAP INITIALIZATION AS REQUIRED
000124:                                                                                                  #       *ALL TVC DAP OPERATIONS ON THE AIR
000125:
000126:                                                                                                  #  DEBRIS....TVC TEMPORARIES IN EBANK6
000127:


000129:
000130: 16,3140                                           BANK     16
000131: 16,2000                                           SETLOC   DAPROLL
000132: 16,2000                                           BANK
000133: 16,3140  E6,1644                                  EBANK=   TVCPHASE
000134: 16,3140                                           COUNT*   $$/RSRT
000135:
000136: 16,3140           22016        REDOTVC            LXCH     BANKRUPT                              #  TVC RESTART PACKAGE
000137: 16,3141           00006                           EXTEND
000138: 16,3142           22012                           QXCH     QRUPT                                 #  (..TCR.. IN ..FINCOPY..)
000139:
000140: 16,3143           11651        EXECPHS            CCS      TVCEXPHS                              #  CHECK TVCEXECUTIVE PHASE
000141: 16,3144           13146                           TCF      +2                                    #        MUST RESTART TVCEXECUTIVE
000142: 16,3145           13152                           TCF      TVCDAPHS                              #        NO NEED TO RESTART TVCEXECUTIVE
000143:
000144: 16,3146           34334                           CAF      NINE                                  #  9CS DELAY TO FORCE EXRSTRT TO OCCUR
000145: 16,3147           05245                           TC       WAITLIST                              #        BEFORE PITCHDAP, AFTER CMDSOUT
000146: 16,3150  E6,1651                                  EBANK=   TVCEXPHS
000147: 16,3150           03253 34066                     2CADR    EXRSTRT
000148:
000149: 16,3152           47700        TVCDAPHS           CS       OCT37776                              #  CHECK BITS 15 AND 1 OF TVCPHASE TO SEE
000150: 16,3153           71644                           MASK     TVCPHASE                              #        DAP RESTART LOCATION (-1,1,2,3)
000151: 16,3154           10000                           CCS      A
000152: 16,3155           13240                           TCF      FINCOPY                               #        FINISH THE COPYCYCLE FIRST
000153: 16,3156           13163                           TCF      ENABL1                                #        JUST PREPARE THE OUTCOUNTERS AND GO
000154:
000155: 16,3157           41644                           CS       TVCPHASE                              #  TEST FOR TVCPHASE = -2
000156: 16,3160           75016                           MASK     BIT2                                  #        (THIS INDICATES RESTART OCCURRED
000157: 16,3161           00006                           EXTEND                                         #         DURING CSM/LM V46 SWITCH-OVER)
000158: 16,3162           13244                           BZF      TRIM/CMD                              #  NO, TVCPHASE = -1, RSTRT WAS IN TVCINIT
000159:
000160: 16,3163           35010        ENABL1             CAF      BIT8                                  #  TVC ENABLE, FOLLOWED BY 40 MS (MIN) WAIT
000161: 16,3164           65005                           AD       BIT11                                 #        SET BIT FOR OPTICS-DAC-ENABLE ALSO
000162: 16,3165           00006                           EXTEND                                         #        (ENABL1 ENTERED FROM TVCDAPHS / FINCOPY)
000163: 16,3166           05012                           WOR      CHAN12
000164: 16,3167           33257                           CAF      TVCADDR                               #  WAIT, CALLING ENABL2 (BBCON THERE)
000165: 16,3170           55312                           TS       T5LOC
000166: 16,3171           33263                           CAF      TVCADDR    +4                         #        60 MS (TVCEXADR)
000167: 16,3172           54030                           TS       TIME5
000168:
000169: 16,3173           15333                           TCF      RESUME
000170:
000171: 16,3174           22016        ENABL2             LXCH     BANKRUPT                              #  CONTINUE PREPARATION OF OUTCOUNTERS
000172:
000173: 16,3175           35016                           CAF      BIT2                                  #  OPTICS ERROR CNTR ENABLE, 4MS MIN WAIT
000174: 16,3176           00006                           EXTEND
000175: 16,3177           05012                           WOR      CHAN12


000177: 16,3200           33261                           CAF      TVCADDR    +2                         #  WAIT, CALLING CMDSOUT (BBCON THERE)
000178: 16,3201           55312                           TS       T5LOC
000179: 16,3202           37700                           CAF      OCT37776                              #        20MS
000180: 16,3203           54030                           TS       TIME5
000181:
000182: 16,3204           15335                           TCF      NOQRSM
000183:
000184: 16,3205           22016        CMDSOUT            LXCH     BANKRUPT                              #  CONTINUE PREPARATION OF OUTCOUNTERS
000185: 16,3206           00006                           EXTEND
000186: 16,3207           22012                           QXCH     QRUPT
000187:
000188: 16,3210           45021                           CS       ZERO                                  #  MOST RECENT ACTUATOR COMMANDS
000189: 16,3211           61623                           AD       PCMD                                  #        (AVOID +0)
000190: 16,3212           54054                           TS       TVCPITCH
000191: 16,3213           45021                           CS       ZERO
000192: 16,3214           61624                           AD       YCMD
000193: 16,3215           54053                           TS       TVCYAW
000194:
000195: 16,3216           35062                           CAF      PRIO6                                 #  RELEASE THE COUNTERS (BITS 11,12)
000196: 16,3217           00006                           EXTEND
000197: 16,3220           05014                           WOR      CHAN14
000198:
000199: 16,3221           11644        PHSCHK2            CCS      TVCPHASE                              #  CHECK TVCPHASE AGAIN
000200: 16,3222           13232                           TCF      CHKSTRK
000201: 16,3223           13232                           TCF      CHKSTRK
000202: 16,3224           10000                           CCS      A                                     #  A CONTAINS THE DIMINISHED ABSOLUTE OF
000203: 16,3225           03230                           TC       +3                                    #  TVCPHASE (-2 BECOMES +1. -1 BECOMES +0)
000204:
000205: 16,3226           04701                           TC       POSTJUMP                              #        REPEAT TVC INITIALIZATION
000206: 16,3227           36152                           CADR     MRCLEAN                               #        (DO NOT RETURN)
000207:
000208: 16,3230           04740                 +3        TC       IBNKCALL                              #        REPEAT CSM/LM V46 SWITCH-OVER
000209: 16,3231           36361                           CADR     SWICHOVR   +5                         #        (RETURN TO CHECK FOR STROKE TEST)
000210:
000211: 16,3232           11574        CHKSTRK            CCS      STROKER                               #  CHECK FOR STROKE TEST IN PROGRESS
000212: 16,3233           13250                           TCF      TSTINITJ                              #  YES, KILL IT
000213: 16,3234           13236                           TCF      +2                                    #  NO, PROCEED
000214: 16,3235           13250                           TCF      TSTINITJ                              #  YES, KILL IT
000215:
000216: 16,3236           04701                 +4        TC       POSTJUMP                              #        IF POSITIVE OR ZERO, RESTART AT
000217: 16,3237           36324                           CADR     TVCINIT4                              #                TVCINIT4 (ZEROS TVCPHASE, AND
000218:                                                                                                  #                CALLS TVC DAPS VIA DAPINIT)
000219: 16,3240           51644        FINCOPY            INDEX    TVCPHASE                              #  PICK UP THE APPROPRIATE COPYCYCLE
000220: 16,3241           33257                           CAF      TVCCADR
000221: 16,3242           04744                           TCR      ISWCALL                               #  RE-ENTER THE COPYCYCLE, RETURN AT END
000222: 16,3243           13163                           TCF      ENABL1                                #  NOW PREPARE THE OUTCOUNTERS
000223:
000224: 16,3244           00006        TRIM/CMD           EXTEND                                         #  TVCDAPON INITIALIZATION NOT COMPLETED,


000226: 16,3245           31424                           DCA      PACTOFF                               #        EG. P,YCMD MAY NOT BE SET.  SET...
000227: 16,3246           53624                           DXCH     PCMD
000228: 16,3247           13163                           TCF      ENABL1                                #  NOW PREPARE THE OUTCOUNTERS
000229:
000230: 16,3250           35021        TSTINITJ           CAF      ZERO                                  #  DISABLE STROKE TEST (-0 SHOWS PRIOR V68)
000231: 16,3251           55574                           TS       STROKER                               #  (+0 MEANS NEW V68 REQUIRED FOR STARTUP)
000232:
000233: 16,3252           13236                           TCF      CHKSTRK    +4
000234:
000235: 16,3253           51651        EXRSTRT            INDEX    TVCEXPHS                              #  TVCEXECUTIVE RESTARTS....GO TO
000236: 16,3254           33263                           CAF      TVCEXADR                              #        APPROPRIATE RESTART POINT
000237: 16,3255           50000                           INDEX    A
000238: 16,3256           10000                           TCF      0
000239:
000240:                                                                                                  #  TVC RESTART TABLES.... ORDER IS REQUIRED.  HI-ORDER WORDS ONLY, OF 2CADRS, SINCE BBCON IS ALREADY THERE.
000241:
000242: 16,3257  16,3257               TVCADDR            =        TVCCADR                               #  TABLE OF CADRS, UNUSED LOCS FOR GENADRS
000243: 16,3257           03174        TVCCADR            GENADR   ENABL2                                #  (FOR T5 CALL, UNUSED TABLE LOC)
000244: 16,3260           40675                 +1        CADR     PCOPY      +1                         #  PITCH COPYCYCLE
000245: 16,3261           03205                 +2        GENADR   CMDSOUT                               #  (FOR T5 CALL, UNUSED TABLE LOC)
000246: 16,3262           41051                 +3        CADR     YCOPY      +1                         #  YAW COPYCYCLE
000247: 16,3263           37772        TVCEXADR           OCT      37772                                 #  (UNUSED TABLE LOC, FILL WITH 60MS, T5)
000248: 16,3264           03003                 +1        GENADR   EXECCOPY   +1                         #  TVCEXECUTIVE RESTART POINTS (ORDERED)
000249: 16,3265           03011                 +2        GENADR   1SHOTCHK
000250: 16,3266           03040                 +3        GENADR   TEMPSET
000251: 16,3267           03043                 +4        GENADR   CORSETUP
000252: 16,3270           03121                 +5        GENADR   CORCOPY    +1
000253: 16,3271           03132                 +6        GENADR   CNTRCOPY

End of include-file TVCRESTARTS.agc.  Parent file is MAIN.agc


