
Source Code


000002:                                                                                                  ## Copyright:   Public domain.
000003:                                                                                                  ## Filename:    WAITLIST.agc
000004:                                                                                                  ## Purpose:     A section of Comanche revision 051.
000005:                                                                                                  ##              It is part of the reconstructed source code for the
000006:                                                                                                  ##              original release of the flight software for the Command
000007:                                                                                                  ##              Module's (CM) Apollo Guidance Computer (AGC) for Apollo 11.
000008:                                                                                                  ##              The code has been recreated from a copy of Comanche 055. It
000009:                                                                                                  ##              has been adapted such that the resulting bugger words
000010:                                                                                                  ##              exactly match those specified for Comanche 51 in NASA drawing
000011:                                                                                                  ##              2021153D, which gives relatively high confidence that the
000012:                                                                                                  ##              reconstruction is correct.
000013:                                                                                                  ## Reference:   pp. 1221-1235
000014:                                                                                                  ## Assembler:   yaYUL
000015:                                                                                                  ## Contact:     Ron Burkey <info@sandroid.org>.
000016:                                                                                                  ## Website:     www.ibiblio.org/apollo/index.html
000017:                                                                                                  ## Mod history: 2019-07-30 MAS  Created from Comanche 55.
000018:


000020:                                                                                                  #  PROGRAM DESCRIPTION                                           DATE - 10 OCTOBER 1966
000021:                                                                                                  #  MOD NO - 2                                                    LOG SECTION - WAITLIST
000022:                                                                                                  #  MOD BY - MILLER       (DTMAX INCREASED TO 162.5 SEC)          ASSEMBLY SUNBURST REV 5
000023:                                                                                                  #  MOD 3 BY KERNAN       (INHINT INSERTED AT WAITLIST) 2/28/68 SKIPPER REV 4
000024:                                                                                                  #  MOD 4 BY KERNAN       (TWIDDLE IN 54) 3/28/68 SKIPPER REV 13.
000025:
000026:                                                                                                  #  FUNCTIONAL DESCRIPTION -
000027:                                                                                                  #        PART OF A SECTION OF PROGRAMS,- WAITLIST, TASKOVER, T3RUPT, USED TO CALL A PROGRAM, (CALLED A TASK),
000028:                                                                                                  #        WHICH IS TO BEGIN IN C(A) CENTISECONDS.  WAITLIST UPDATES TIME3, LST1 AND LST2.  THE MEANING OF THESE LISTS
000029:                                                                                                  #        FOLLOW.
000030:
000031:                                                                                                  #                C(TIME3) = 16384 -(T1-T) CENTISECONDS, (T=PRESENT TIME, T1-TIME FOR TASK1)
000032:
000033:                                                                                                  #                        C(LST1)         =       -(T2-T1)+1
000034:                                                                                                  #                        C(LST1 +1)      =       -(T3-T2)+1
000035:                                                                                                  #                        C(LST1 +2)      =       -(T4-T3)+1
000036:                                                                                                  #                                        .
000037:                                                                                                  #                                        .
000038:                                                                                                  #                        C(LST1 +6)      =       -(T8-T7)+1
000039:                                                                                                  #                        C(LST1 +7)      =       -(T9-T8)+1
000040:
000041:                                                                                                  #                        C(LST2)         =       2CADR OF TASK1
000042:                                                                                                  #                        C(LST2 +2)      =       2CADR OF TASK2
000043:                                                                                                  #                                        .
000044:                                                                                                  #                                        .
000045:                                                                                                  #                        C(LST2 +14)     =       2CADR OF TASK8
000046:                                                                                                  #                        C(LST2 +16)     =       2CADR OF TASK9
000047:
000048:                                                                                                  #  WARNINGS-
000049:                                                                                                  #  --------
000050:                                                                                                  #        1)      1 <= C(A) <= 16250D (1 CENTISECOND TO 162.5 SEC)
000051:                                                                                                  #        2)      9 TASKS MAXIMUM
000052:                                                                                                  #        3)      TASKS CALLED UNDER INTERRUPT INHIBITED
000053:                                                                                                  #        4)      TASKS END BY TC TASKOVER
000054:
000055:                                                                                                  #  CALLING SEQUENCE -
000056:                                                                                                  #        L-1     CA      DELTAT  (TIME IN CENTISECONDS TO TASK START)
000057:                                                                                                  #        L       TC      WAITLIST
000058:                                                                                                  #        L+1     2CADR   DESIRED TASK
000059:                                                                                                  #        L+2     (MINOR OF 2CADR)
000060:                                                                                                  #        L+3     RELINT          (RETURNS HERE)
000061:
000062:                                                                                                  #  TWIDDLE-
000063:                                                                                                  #  -------
000064:                                                                                                  #        TWIDDLE IS FOR USE WHEN THE TASK BEING SET UP IS IN THE SAME EBANK AND FBANK AS THE USER.  IN
000065:                                                                                                  #        SUCH CASES, IT IMPROVES UPON WAITLIST BY ELIMINATING THE NEED FOR THE BBCON HALF OF THE 2CADR,


000067:                                                                                                  #        SAVING A WORD.  TWIDDLE IS LIKE WAITLIST IN EVERY RESPECT EXCEPT CALLING SEQUENCE, TO WIT-
000068:                                                                                                  #                L-1     CA      DELTAT
000069:                                                                                                  #                L       TC      TWIDDLE
000070:                                                                                                  #                L+1     ADRES   DESIRED TASK
000071:                                                                                                  #                L+2     RELINT          (RETURNS HERE)
000072:
000073:                                                                                                  #  NORMAL EXIT MODES -
000074:                                                                                                  #        AT L+3 OF CALLING SEQUENCE
000075:
000076:                                                                                                  #  ALARM OR ABORT EXIT MODES -
000077:                                                                                                  #        TC      ABORT
000078:                                                                                                  #        OCT     1203    (WAITLIST OVERFLOW - TOO MANY TASKS)
000079:
000080:                                                                                                  #  ERASABLE INITIALIZATION REQUIRED -
000081:                                                                                                  #        ACCOMPLISHED BY FRESH START,--  LST2, ..., LST2 +16 = ENDTASK
000082:                                                                                                  #                                        LST1, ..., LST1 +7  = NEG1/2
000083:
000084:                                                                                                  #  OUTPUT --
000085:                                                                                                  #        LST1 AND LST2 UPDATED WITH NEW TASK AND ASSOCIATED TIME.
000086:
000087:                                                                                                  #  DEBRIS -
000088:                                                                                                  #        CENTRALS - A,Q,L
000089:                                                                                                  #        OTHER    - WAITEXIT, WAITADR, WAITTEMP, WAITBANK
000090:
000091:                                                                                                  #  DETAILED ANALYSIS OF TIMING -
000092:                                                                                                  #        CONTROL WILL NOT BE RETURNED TO THE SPECIFIED ADDRESS (2CADR) IN EXACTLY DELTA T CENTISECONDS.
000093:                                                                                                  #        THE APPROXIMATE TIME MAY BE CALCULATED AS FOLLOWS
000094:                                                                                                  #                LET TO = THE TIME OF THE TC WAITLIST
000095:                                                                                                  #                LET TS = TO +147U + COUNTER INCREMENTS (SET UP TIME)
000096:                                                                                                  #                LET X  = TS -(100TS)/100  (VARIANCE FROM COUNTERS)
000097:                                                                                                  #                LET Y  = LENGTH OF TIME OF INHIBIT INTERRUPT AFTER T3RUPT
000098:                                                                                                  #                LET Z  = LENGTH OF TIME TO PROCESS TASKS WHICH ARE DUE THIS T3RUPT BUT DISPATCHED EARLIER.
000099:                                                                                                  #                (Z=0, USUALLY)
000100:                                                                                                  #                LET DELTD = THE ACTUAL TIME TAKEN TO GIVE CONTROL TO 2CADR
000101:                                                                                                  #        THEN DELTD = TS+DELTA T -X +Y +Z +1.05MS* +COUNTERS*
000102:                                                                                                  #                *-THE TIME TAKEN BY WAITLIST ITSELF AND THE COUNTER TICKING DURING THIS WAITLIST TIME.
000103:                                                                                                  #        IN SHORT, THE ACTUAL TIME TO RETURN CONTROL TO A 2CADR IS AUGMENTED BY THE TIME TO SET UP THE TASK:S
000104:                                                                                                  #        INTERRUPT, ALL COUNTERS TICKING, THE T3RUPT PROCESSING TIME, THE WAITLIST PROCESSING TIME AND THE POSSIBILITY
000105:                                                                                                  #        OF OTHER TASKS INHIBITING THE INTERRUPT.
000106:
000107:    5235                                           BLOCK    02


000109:    5235  E3,1400                                  EBANK=   LST1                                  #  TASK LISTS IN SWITCHED E BANK.
000110:
000111:    5235                                           COUNT    02/WAIT
000112:
000113:    5235           00004        TWIDDLE            INHINT
000114:    5236           54001                           TS       L                                     #  SAVE DELAY TIME IN L
000115:    5237           34777                           CA       POSMAX
000116:    5240           26002                           ADS      Q                                     #  CREATING OVERFLOW AND Q-1 IN Q
000117:    5241           30006                           CA       BBANK
000118:    5242           00006                           EXTEND
000119:    5243           04007                           ROR      SUPERBNK
000120:    5244           56001                           XCH      L
000121:
000122:    5245           00004        WAITLIST           INHINT
000123:    5246           00006                           EXTEND
000124:    5247           65261                           BZMF     WATLST0-
000125:    5250           56002                           XCH      Q                                     #  SAVE DELTA T IN Q AND RETURN IN
000126:    5251           54061                           TS       WAITEXIT                              #  WAITEXIT.
000127:    5252           00006                           EXTEND
000128:    5253           50061                           INDEX    WAITEXIT                              #  IF TWIDDLING, THE TS SKIPS TO HERE
000129:    5254           30001                           DCA      0                                     #  PICK UP 2CADR OF TASK.
000130:    5255           54063                 -1        TS       WAITADR                               #  BBCON WILL REMAIN IN L
000131:    5256           35266        DLY2               CAF      WAITBB                                #  ENTRY FROM FIXDELAY AND VARDELAY.
000132:    5257           56006                           XCH      BBANK
000133:    5260           13246                           TCF      WAIT2
000134:
000135:    5261           05721        WATLST0-           TC       POODOO
000136:    5262           01204                           OCT      1204                                  #  WAITLIST CALL WITH ZERO OR NEG DT
000137:
000138:                                                                                                  #  RETURN TO CALLER AFTER TASK INSERTION:
000139:
000140:    5263           52062        LVWTLIST           DXCH     WAITEXIT
000141:    5264           65016                           AD       TWO
000142:    5265           52006                           DTCB
000143:
000144:    5266  E3,1400                                  EBANK=   LST1
000145:    5266           02063        WAITBB             BBCON    WAIT2
000146:
000147:                                                                                                  #  RETURN TO CALLER +2 AFTER WAITING DT SPECIFIED AT CALLER +1.
000148:
000149:    5267           50002        FIXDELAY           INDEX    Q                                     #  BOTH ROUTINES MUST BE CALLED UNDER
000150:    5270           30000                           CAF      0                                     #  WAITLIST CONTROL AND TERMINATE THE TASK
000151:    5271           24002                           INCR     Q                                     #  IN WHICH THEY WERE CALLED.
000152:
000153:                                                                                                  #  RETURN TO CALLER +1 AFTER WAITING THE DT AS ARRIVING IN A.
000154:
000155:    5272           56002        VARDELAY           XCH      Q                                     #  DT TO Q.  TASK ADRES TO WAITADR.
000156:    5273           54063                           TS       WAITADR
000157:    5274           30006                           CA       BBANK                                 #  BBANK IS SAVED DURING DELAY.
000158:    5275           00006                           EXTEND


000160:    5276           04007                           ROR      SUPERBNK                              #  ADD SBANK TO BBCON.
000161:    5277           54001                           TS       L
000162:    5300           35303                           CAF      DELAYEX
000163:    5301           54061                           TS       WAITEXIT                              #  GO TO TASKOVER AFTER TASK ENTRY.
000164:    5302           15256                           TCF      DLY2
000165:
000166:    5303           15322        DELAYEX            TCF      TASKOVER   -2                         #  RETURNS TO TASKOVER
000167:


000169:                                                                                                  #  ENDTASK MUST BE ENTERED IN FIXED-FIXED SO IT IS DISTINGUISHABLE BY ITS ADRES ALONE.
000170:
000171:    5304  E3,1400                                  EBANK=   LST1
000172:    5304           72471 73714  ENDTASK            -2CADR   SVCT3
000173:
000174:    5306           10076        SVCT3              CCS      FLAGWRD2                              #  DRIFT FLAG
000175:    5307           15324                           TCF      TASKOVER
000176:    5310           15324                           TCF      TASKOVER
000177:    5311           15312                           TCF      +1
000178:
000179:    5312           11322                           CCS      IMUCADR                               #  DON'T DO NBDONLY IF SOMEONE ELSE IS IN
000180:    5313           17717                           TCF      SVCT3X
000181:    5314           15317                           TCF      +3
000182:    5315           17717                           TCF      SVCT3X
000183:    5316           17717                           TCF      SVCT3X
000184:    5317           37672                 +3        CAF      PRIO35                                #  COMPENSATE FOR NBD COEFFICIENTS ONLY.
000185:    5320           05134                           TC       NOVAC                                 #        ENABLE EVERY 81.93 SECONDS
000186:    5321  E3,1460                                  EBANK=   NBDX
000187:    5321           03542 14063                     2CADR    NBDONLY
000188:
000189:    5323           15324                           TCF      TASKOVER
000190:
000191:    6000                                           SETLOC   FFTAG6
000192:    6000                                           BANK
000193:
000194:    7717           05267        SVCT3X             TC       FIXDELAY                              #  DELAY MAX OF 2 TIMES FOR IMU ZERO
000195:    7720           00764                           DEC      500        B-14
000196:    7721           05306                           TC       SVCT3                                 #  CHECK DRIFT FLAG AGAIN
000197:


000199:                                                                                                  #  BEGIN TASK INSERTION.
000200:
000201: 01,3246                                           BANK     01
000202: 01,3246                                           COUNT    01/WAIT
000203:
000204: 01,3246           54062        WAIT2              TS       WAITBANK                              #  BBANK OF CALLING PROGRAM.
000205: 01,3247           40026                           CS       TIME3
000206: 01,3250           65010                           AD       BIT8                                  #  BIT 8 = OCT 200
000207: 01,3251           10000                           CCS      A                                     #  TEST 200 - C(TIME3).  IF POSITIVE,
000208:                                                                                                  #  IT MEANS THAT TIME3 OVERFLOW HAS OCCURRED PRIOR TO CS TIME3 AND THAT
000209:                                                                                                  #  C(TIME3) = T - T1, INSTEAD OF 1.0 - (T1 - T).  THE FOLLOWING FOUR
000210:                                                                                                  #  ORDERS SET C(A) = TD - T1 + 1 IN EITHER CASE.
000211:
000212: 01,3252           66056                           AD       OCT40001                              #  OVERFLOW HAS OCCURRED.  SET C(A) =
000213: 01,3253           40000                           CS       A                                     #  T - T1 + 1.0 - 201
000214:
000215:                                                                                                  #  NORMAL CASE (C(A) NNZ) YIELDS SAME C(A):  -( -(1.0-(T1-T)) + 200) - 1
000216:
000217: 01,3254           63402                           AD       OCT40201
000218: 01,3255           60002                           AD       Q                                     #  RESULT = TD - T1 + 1.
000219:
000220: 01,3256           10000                           CCS      A                                     #  TEST TD - T1 +1
000221:
000222: 01,3257           61400                           AD       LST1                                  #  IF TD - T1 POS, GO TO WTLST5 WITH
000223: 01,3260           13322                           TCF      WTLST5                                #  C(A) = (TD - T1) + C(LST1) = TD-T2+1
000224:
000225: 01,3261           13262                           NOOP
000226: 01,3262           40002                           CS       Q
000227:
000228:                                                                                                  #  NOTE THAT THIS PROGRAM SECTION IS NEVER ENTERED WHEN T-T1 G/E -1,
000229:                                                                                                  #  SINCE TD-T1+1 = (TD-T) + (T-T1+1), AND DELTA T = TD-T G/E +1.  (G/E
000230:                                                                                                  #  SYMBOL MEANS GREATER THAN OR EQUAL TO).  THUS THERE NEED BE NO CON-
000231:                                                                                                  #  CERN OVER A PREVIOUS OR IMMINENT OVERFLOW OF TIME3 HERE.
000232:
000233: 01,3263           65002                           AD       POS1/2                                #  WHEN TD IS NEXT, FORM QUANTITY
000234: 01,3264           65002                           AD       POS1/2                                #        1.0 - DELTA T = 1.0 - (TD - T)
000235: 01,3265           56026                           XCH      TIME3
000236: 01,3266           65001                           AD       NEGMAX
000237: 01,3267           60002                           AD       Q                                     #  1.0 - DELTAT T NOW COMPLETE.
000238: 01,3270           00006                           EXTEND                                         #  ZERO INDEX Q.
000239: 01,3271           22007                           QXCH     7                                     #  (ZQ)
000240:


000242: 01,3272           57400        WTLST4             XCH      LST1
000243: 01,3273           57401                           XCH      LST1       +1
000244: 01,3274           57402                           XCH      LST1       +2
000245: 01,3275           57403                           XCH      LST1       +3
000246: 01,3276           57404                           XCH      LST1       +4
000247: 01,3277           57405                           XCH      LST1       +5
000248: 01,3300           57406                           XCH      LST1       +6
000249: 01,3301           57407                           XCH      LST1       +7
000250:
000251: 01,3302           30063                           CA       WAITADR                               #  (MINOR PART OF TASK CADR HAS BEEN IN L.)
000252: 01,3303           50002                           INDEX    Q
000253: 01,3304           13305                           TCF      +1
000254:
000255: 01,3305           53411                           DXCH     LST2
000256: 01,3306           53413                           DXCH     LST2       +2
000257: 01,3307           53415                           DXCH     LST2       +4
000258: 01,3310           53417                           DXCH     LST2       +6
000259: 01,3311           53421                           DXCH     LST2       +8D
000260: 01,3312           53423                           DXCH     LST2       +10D                       #  AT END, CHECK THAT C(LST2 +10) IS STD
000261: 01,3313           53425                           DXCH     LST2       +12D
000262: 01,3314           53427                           DXCH     LST2       +14D
000263: 01,3315           53431                           DXCH     LST2       +16D
000264: 01,3316           65304                           AD       ENDTASK                               #  END ITEM, AS CHECK FOR EXCEEDING
000265:                                                                                                  #  THE LENGTH OF THE LIST.
000266: 01,3317           00006                           EXTEND                                         #  DUMMY TASK ADRES SHOULD BE IN FIXED-
000267: 01,3320           15263                           BZF      LVWTLIST                              #  FIXED SO ITS ADRES ALONE DISTINGUISHES
000268: 01,3321           13375                           TCF      WTABORT                               #  IT.
000269:


000271: 01,3322           10000        WTLST5             CCS      A                                     #  TEST TD - T2 + 1
000272: 01,3323           61401                           AD       LST1       +1
000273: 01,3324           13330                           TCF      +4
000274: 01,3325           65017                           AD       ONE
000275: 01,3326           03403                           TC       WTLST2
000276: 01,3327           00001                           OCT      1
000277:
000278: 01,3330           10000                 +4        CCS      A                                     #  TEST TD - T3 + 1
000279: 01,3331           61402                           AD       LST1       +2
000280: 01,3332           13336                           TCF      +4
000281: 01,3333           65017                           AD       ONE
000282: 01,3334           03403                           TC       WTLST2
000283: 01,3335           00002                           OCT      2
000284:
000285: 01,3336           10000                 +4        CCS      A                                     #  TEST TD - T4 + 1
000286: 01,3337           61403                           AD       LST1       +3
000287: 01,3340           13344                           TCF      +4
000288: 01,3341           65017                           AD       ONE
000289: 01,3342           03403                           TC       WTLST2
000290: 01,3343           00003                           OCT      3
000291:
000292: 01,3344           10000                 +4        CCS      A                                     #  TEST TD - T5 + 1
000293: 01,3345           61404                           AD       LST1       +4
000294: 01,3346           13352                           TCF      +4
000295: 01,3347           65017                           AD       ONE
000296: 01,3350           03403                           TC       WTLST2
000297: 01,3351           00004                           OCT      4
000298:
000299: 01,3352           10000                 +4        CCS      A                                     #  TEST TD - T6 + 1
000300: 01,3353           61405                           AD       LST1       +5
000301: 01,3354           13360                           TCF      +4
000302: 01,3355           65017                           AD       ONE
000303: 01,3356           03403                           TC       WTLST2
000304: 01,3357           00005                           OCT      5
000305:
000306: 01,3360           10000                 +4        CCS      A                                     #  TEST TD - T7 + 1
000307: 01,3361           61406                           AD       LST1       +6
000308: 01,3362           13366                           TCF      +4
000309: 01,3363           65017                           AD       ONE
000310: 01,3364           03403                           TC       WTLST2
000311: 01,3365           00006                           OCT      6
000312:


000314: 01,3366           10000                 +4        CCS      A
000315: 01,3367           61407                           AD       LST1       +7
000316: 01,3370           13374                           TCF      +4
000317: 01,3371           65017                           AD       ONE
000318: 01,3372           03403                           TC       WTLST2
000319: 01,3373           00007                           OCT      7
000320:
000321: 01,3374           10000                 +4        CCS      A
000322: 01,3375           07755        WTABORT            TC       BAILOUT                               #  NO ROOM IN THE INN.
000323: 01,3376           01203                           OCT      1203
000324:
000325: 01,3377           65017                           AD       ONE
000326: 01,3400           03403                           TC       WTLST2
000327: 01,3401           00010                           OCT      10
000328:
000329: 01,3402           40201        OCT40201           OCT      40201
000330:


000332:                                                                                                  #  THE ENTRY TO WTLST2 JUST PRECEDING OCT N IS FOR T  LE TD LE T   -1.
000333:                                                                                                  #                                                   N           N+1
000334:
000335:                                                                                                  #  (LE MEANS LESS THAN OR EQUAL TO).  AT ENTRY, C(A) = -(TD - T   + 1)
000336:                                                                                                  #                                                              N+1
000337:
000338:                                                                                                  #  THE LST1 ENTRY-(T   -T +1) IS TO BE REPLACED BY -(TD - T  + 1), AND
000339:                                                                                                  #                   N+1  N                                 N
000340:
000341:                                                                                                  #  THE ENTRY-(T   - TD + 1) IS TO BE INSERTED IMMEDIATELY FOLLOWING.
000342:                                                                                                  #              N+1
000343:
000344: 01,3403           54064        WTLST2             TS       WAITTEMP                              #  C(A) = -(TD - T + 1)
000345: 01,3404           50002                           INDEX    Q
000346: 01,3405           30000                           CAF      0
000347: 01,3406           54002                           TS       Q                                     #  INDEX VALUE INTO Q.
000348:
000349: 01,3407           35017                           CAF      ONE
000350: 01,3410           60064                           AD       WAITTEMP
000351: 01,3411           50002                           INDEX    Q                                     #  C(A) = -(TD - T ) + 1.
000352: 01,3412           27377                           ADS      LST1       -1                         #                 N
000353:
000354: 01,3413           40064                           CS       WAITTEMP
000355: 01,3414           50002                           INDEX    Q
000356: 01,3415           13272                           TCF      WTLST4
000357:
000358:                                                                                                  #  C(TIME3) = 1.0 - (T1 - T)
000359:
000360:                                                                                                  #  C(LST1  ) = - (T2 - T1) + 1
000361:                                                                                                  #  C(LST1+1) = - (T3 - T2) + 1
000362:                                                                                                  #  C(LST1+2) = - (T4 - T3) + 1
000363:                                                                                                  #  C(LST1+3) = - (T5 - T4) + 1
000364:                                                                                                  #  C(LST1+4) = - (T6 - T5) + 1
000365:
000366:                                                                                                  #  C(LST2   ) = 2CADR  TASK1
000367:                                                                                                  #  C(LST2+2 ) = 2CADR  TASK2
000368:                                                                                                  #  C(LST2+4 ) = 2CADR  TASK3
000369:                                                                                                  #  C(LST2+6 ) = 2CADR  TASK4
000370:                                                                                                  #  C(LST2+8 ) = 2CADR  TASK5
000371:                                                                                                  #  C(LST2+10) = 2CADR  TASK6
000372:


000374:                                                                                                  #  ENTERS HERE ON T3 RUPT TO DISPATCH WAITLISTED TASK.
000375:
000376: 01,3416           00006        T3RUPT             EXTEND
000377: 01,3417           04007                           ROR      SUPERBNK                              #  READ CURRENT SUPERBANK VALUE AND
000378: 01,3420           54016                           TS       BANKRUPT                              #  SAVE WITH E AND F BANK VALUES.
000379: 01,3421           00006                           EXTEND
000380: 01,3422           22012                           QXCH     QRUPT
000381:
000382: 01,3423           35000        T3RUPT2            CAF      NEG1/2                                #  DISPATCH WAITLIST TASK.
000383: 01,3424           57407                           XCH      LST1       +7
000384: 01,3425           57406                           XCH      LST1       +6
000385: 01,3426           57405                           XCH      LST1       +5
000386: 01,3427           57404                           XCH      LST1       +4                         #  1. MOVE UP LST1 CONTENTS, ENTERING
000387: 01,3430           57403                           XCH      LST1       +3                         #     A VALUE OF 1/2 +1 AT THE BOTTOM
000388: 01,3431           57402                           XCH      LST1       +2                         #     FOR T6-T5, CORRESPONDING TO THE
000389: 01,3432           57401                           XCH      LST1       +1                         #     INTERVAL 81.91 SEC FOR ENDTASK.
000390: 01,3433           57400                           XCH      LST1
000391: 01,3434           64777                           AD       POSMAX                                #  2. SET T3 = 1.0 - T2 - T USING LIST 1.
000392: 01,3435           26026                           ADS      TIME3                                 #  SO T3 WONT TICK DURING UPDATE.
000393: 01,3436           54734                           TS       RUPTAGN
000394: 01,3437           45021                           CS       ZERO
000395: 01,3440           54734                           TS       RUPTAGN                               #  SETS RUPTAGN TO +1 ON OVERFLOW.
000396:
000397: 01,3441           00006                           EXTEND                                         #  DISPATCH TASK.
000398: 01,3442           45305                           DCS      ENDTASK
000399: 01,3443           53431                           DXCH     LST2       +16D
000400: 01,3444           53427                           DXCH     LST2       +14D
000401: 01,3445           53425                           DXCH     LST2       +12D
000402: 01,3446           53423                           DXCH     LST2       +10D
000403: 01,3447           53421                           DXCH     LST2       +8D
000404: 01,3450           53417                           DXCH     LST2       +6
000405: 01,3451           53415                           DXCH     LST2       +4
000406: 01,3452           53413                           DXCH     LST2       +2
000407: 01,3453           53411                           DXCH     LST2
000408:
000409: 01,3454           56001                           XCH      L
000410: 01,3455           00006                           EXTEND
000411: 01,3456           01007                           WRITE    SUPERBNK                              #  SET SUPERBANK FROM BBCON OF 2CADR
000412: 01,3457           56001                           XCH      L                                     #  RESTORE TO L FOR DXCH Z.
000413: 01,3460           52006                           DTCB
000414:


000416:                                                                                                  #  RETURN, AFTER EXECUTION OF T3 OVERFLOW TASK:
000417:
000418:    5324                                           BLOCK    02
000419:    5324                                           COUNT    02/WAIT
000420:
000421:    5324           10734        TASKOVER           CCS      RUPTAGN                               #  IF +1 RETURN TO T3RUPT, IF -0 RESUME.
000422:    5325           35266                           CAF      WAITBB
000423:    5326           54006                           TS       BBANK
000424:    5327           13423                           TCF      T3RUPT2                               #  DISPATCH NEXT TASK IF IT WAS DUE.
000425:
000426:    5330           30016                           CA       BANKRUPT
000427:    5331           00006                           EXTEND
000428:    5332           01007                           WRITE    SUPERBNK                              #  RESTORE SUPERBANK BEFORE RESUME IS DONE
000429:
000430:    5333           00006        RESUME             EXTEND
000431:    5334           22012                           QXCH     QRUPT
000432:    5335           30016        NOQRSM             CA       BANKRUPT
000433:    5336           56006                           XCH      BBANK
000434:    5337           52011        NOQBRSM            DXCH     ARUPT
000435:    5340           00003                           RELINT
000436:    5341           50017                           RESUME
000437:


000439:                                                                                                  #  LONGCALL
000440:                                                                                                  #  PROGRAM DESCRIPTION                           DATE - 17 MARCH 1967
000441:                                                                                                  #  PROGRAM WRITTEN BY W.H.VANDEVER               LOG SECTION WAITLIST
000442:                                                                                                  #  MOD BY - R. MELANSON TO ADD DOCUMENTATION     ASSEMBLY SUNDISK REV. 100
000443:
000444:                                                                                                  #  FUNCTIONAL DESCRIPTION -
000445:                                                                                                  #        LONGCALL IS CALLED WITH THE DELTA TIME ARRIVING IN A,L SCALED AS TIME2,TIME1 WITH THE 2CADR OF THE TASK
000446:                                                                                                  #        IMMEDIATELY FOLLOWING THE TC LONGCALL.  FOR EXAMPLE, IT MIGHT BE DONE AS FOLLOWS WHERE TIMELOC IS THE NAME OF
000447:                                                                                                  #        A DP REGISTER CONTAINING A DELTA TIME AND WHERE TASKTODO IS THE NAME OF THE LOCATION AT WHICH LONGCALL IS TO
000448:                                                                                                  #        START
000449:
000450:                                                                                                  #  CALLING SEQUENCE -
000451:                                                                                                  #                EXTEND
000452:                                                                                                  #                DCA     TIMELOC
000453:                                                                                                  #                TC      LONGCALL
000454:                                                                                                  #                2CADR   TASKTODO
000455:
000456:                                                                                                  #  NORMAL EXIT MODE -
000457:                                                                                                  #        1).     TC      WAITLIST
000458:                                                                                                  #        2).     DTCB    (TO L+3 OF CALLING ROUTINE 1ST PASS THRU LONGCYCL)
000459:                                                                                                  #        3).     DTCB    (TO TASKOVER ON SUBSEQUENT PASSES THRU LONGCYCL)
000460:
000461:                                                                                                  #  ALARM OR ABORT EXIT MODE -
000462:                                                                                                  #        NONE
000463:
000464:                                                                                                  #  OUTPUT -
000465:                                                                                                  #        LONGTIME AND LONGTIME+1 = DELTA TIME
000466:                                                                                                  #        LONGEXIT AND LONGEXIT+1 = RETURN 2CADR
000467:                                                                                                  #        LONGCADR AND LONGCADR+1 = TASK 2CADR
000468:                                                                                                  #        A = SINGLE PRECISION TIME FOR WAITLIST
000469:
000470:                                                                                                  #  ERASABLE INITIALIZATION -
000471:                                                                                                  #        A = MOST SIGNIFICANT PART OF DELTA TIME
000472:                                                                                                  #        L = LEAST SIGNIFICANT PART OF DELTA TIME
000473:                                                                                                  #        Q = ADDRESS OF 2CADR TASK VALUE
000474:
000475:                                                                                                  #  DEBRIS -
000476:                                                                                                  #        A,Q,L
000477:                                                                                                  #        LONGCADR AND LONGCADR+1
000478:                                                                                                  #        LONGEXIT AND LONGEXIT+1
000479:                                                                                                  #        LONGTIME AND LONGTIME+1
000480:
000481:                                                                                                  #  *** THE FOLLOWING IS TO BE IN FIXED-FIXED AND UNSWITCHED ERRASIBLE ***
000482:
000483:    5342                                           BLOCK    02
000484:    5342  E3,1400                                  EBANK=   LST1
000485:    5342           53140        LONGCALL           DXCH     LONGTIME                              #  OBTAIN THE DELTA TIME
000486:
000487:    5343           00006                           EXTEND                                         #  OBTAIN THE 2CADR


000489:    5344           50002                           NDX      Q
000490:    5345           30001                           DCA      0
000491:    5346           53134                           DXCH     LONGCADR
000492:
000493:    5347           00006                           EXTEND                                         #  NOW GO TO THE APPROPRIATE SWITCHED BANK
000494:    5350           35353                           DCA      LGCL2CDR                              #  FOR THE REST OF LONGCALL
000495:    5351           52006                           DTCB
000496:
000497:    5352  E3,1400                                  EBANK=   LST1
000498:    5352           03461 02063  LGCL2CDR           2CADR    LNGCALL2
000499:
000500:                                                                                                  #  *** THE FOLLOWING MAY BE IN A SWITCHED BANK, INCLUDING ITS ERASABLE ***
000501:
000502: 01,3461                                           BANK     01
000503: 01,3461                                           COUNT    01/WAIT
000504:
000505: 01,3461           23435        LNGCALL2           LXCH     LONGEXIT   +1                         #  SAVE THE CORRECT BB FOR RETURN
000506: 01,3462           35016                           CA       TWO                                   #  OBTAIN THE RETURN ADDRESS
000507: 01,3463           26002                           ADS      Q
000508: 01,3464           55434                           TS       LONGEXIT
000509:
000510:                                                                                                  #  *** WAITLIST TASK LONGCYCL ***
000511:
000512: 01,3465           00006        LONGCYCL           EXTEND                                         #  CAN WE SUCCESFULLY TAKE ABOUT 1.25
000513: 01,3466           43477                           DCS      DPBIT14                               #  MINUTES OFF OF LONGTIME
000514: 01,3467           21140                           DAS      LONGTIME
000515:
000516: 01,3470           11140                           CCS      LONGTIME   +1                         #  THE REASONIBG BEHIND THIS PART IS
000517: 01,3471           13510                           TCF      MUCHTIME                              #  INVOLVED, TAKING INTO ACCOUNT THAT THE
000518:                                                                                                  #  WORDS MAY NOT BE SIGNED CORRECTED (DP
000519:                                                                                                  #  BASIC INSTRUCTIONS
000520:                                                                                                  #  DO NOT SIGN CORRECT) AND THAT WE SUBTRAC
000521:                                                                                                  #  TED BIT14 (1 OVER HALF THE POS. VALUE
000522:                                                                                                  #  REPRESENTIBLE IN SINGLE WORD)
000523: 01,3472           13473                           NOOP                                           #  CAN:T GET HERE    **********
000524: 01,3473           13474                           TCF      +1
000525: 01,3474           11137                           CCS      LONGTIME
000526: 01,3475           13510                           TCF      MUCHTIME
000527: 01,3476           00000        DPBIT14            OCT      00000
000528: 01,3477           20000                           OCT      20000
000529:
000530:                                                                                                  #  LONGCALL
000531: 01,3500           35002        LASTTIME           CA       BIT14                                 #  GET BACK THE CORRECT DELTA TFOR WAITLIST
000532: 01,3501           27140                           ADS      LONGTIME   +1
000533: 01,3502           05245                           TC       WAITLIST
000534: 01,3503  E3,1400                                  EBANK=   LST1
000535: 01,3503           03515 02063                     2CADR    GETCADR                               #  THE ENTRY TO OUR LONGCADR
000536:
000537: 01,3505           33517        LONGRTRN           CA       TSKOVCDR                              #  SET IT UP SO THAT ONLY THE FIRST EXIT IS


000539: 01,3506           53435                           DXCH     LONGEXIT                              #  TO THE CALLER OF LONGCALL
000540: 01,3507           52006                           DTCB                                           #  THE REST ARE TO TASKOVER
000541:
000542: 01,3510           35002        MUCHTIME           CA       BIT14                                 #  WE HAVE OVER OUR ABOUT 1.25 MINUTES
000543: 01,3511           05245                           TC       WAITLIST                              #  SO SET UP FOR ANOTHER CYCLE THROUGH HERE
000544: 01,3512  E3,1400                                  EBANK=   LST1
000545: 01,3512           03465 02063                     2CADR    LONGCYCL
000546:
000547: 01,3514           13505                           TCF      LONGRTRN                              #  NOW EXIT PROPERLY
000548:
000549:                                                                                                  #  *** WAITLIST TASK GETCADR ***
000550:
000551: 01,3515           53134        GETCADR            DXCH     LONGCADR                              #  GET THE LONGCALL THAT WE WISHED TO START
000552: 01,3516           52006                           DTCB                                           #  AND TRANSFER CONTROL TO IT
000553:
000554: 01,3517           05324        TSKOVCDR           GENADR   TASKOVER
000555:
000556:

End of include-file WAITLIST.agc.  Parent file is MAIN.agc


