
Source Code


000002:                                                                                                  #  Copyright:    Public domain.
000003:                                                                                                  #  Filename:     ALARM_AND_ABORT.agc
000004:                                                                                                  #  Purpose:      A section of Luminary 1C, revision 131.
000005:                                                                                                  #                It is part of the source code for the Lunar Module's (LM)
000006:                                                                                                  #                Apollo Guidance Computer (AGC) for Apollo 13 and Apollo 14.
000007:                                                                                                  #                This file is intended to be a faithful transcription, except
000008:                                                                                                  #                that the code format has been changed to conform to the
000009:                                                                                                  #                requirements of the yaYUL assembler rather than the
000010:                                                                                                  #                original YUL assembler.
000011:                                                                                                  #  Reference:    pp. 1378-1382 of 1729.pdf.
000012:                                                                                                  #  Contact:      Ron Burkey <info@sandroid.org>.
000013:                                                                                                  #  Website:      www.ibiblio.org/apollo/index.html
000014:                                                                                                  #  Mod history:  06/07/03 RSB.   Began transcribing.
000015:                                                                                                  #                05/14/05 RSB    Corrected website reference above.
000016:                                                                                                  #                2010-10-25 JL   Indentation fixes.
000017:                                                                                                  #                2011-06-07 JL   Removed workarounds.
000018:
000019:                                                                                                  #  Page 1378
000020:                                                                                                  #  THE FOLLOWING SUBROUTINE MAY BE CALLED TO DISPLAY A NON-ABORTIVE ALARM CONDITION.  IT MAY BE CALLED
000021:                                                                                                  #  EITHER IN INTERRUPT OR UNDER EXECUTIVE CONTROL.
000022:
000023:                                                                                                  #  THE CALLING SEQUENCE IS AS FOLLOWS:
000024:                                                                                                  #                TC      ALARM
000025:                                                                                                  #                OCT     AAANN           # ALARM NO. NN IN GENERAL AREA AAA.
000026:                                                                                                  #                                        # (RETURNS HERE)
000027:
000028:    5567                                           BLOCK    02
000029:    4000                                           SETLOC   FFTAG7
000030:    4000                                           BANK
000031:
000032:    5567     0375                                  EBANK=   FAILREG
000033:
000034:    5567                                           COUNT*   $$/ALARM
000035:
000036:                                                                                                  #  ALARM TURNS ON THE PROGRAM ALARM LIGHT, BUT DOES NOT DISPLAY.
000037:
000038:    5567           00004        ALARM              INHINT
000039:
000040:    5570           30002                           CA       Q
000041:    5571           55363        ALARM2             TS       ALMCADR
000042:    5572           50002                           INDEX    Q
000043:    5573           30000                           CA       0
000044:    5574           54001        BORTENT            TS       L
000045:
000046:    5575           30006        PRIOENT            CA       BBANK
000047:    5576           00006                 +1        EXTEND
000048:    5577           04007                           ROR      SUPERBNK                              #  ADD SUPER BITS.
000049:    5600           55364                           TS       ALMCADR    +1
000050:
000051:    5601           30002        LARMENT            CA       Q                                     #  STORE RETURN FOR ALARM
000052:    5602           54061                           TS       ITEMP1
000053:
000054:    5603           10375        CHKFAIL1           CCS      FAILREG                               #  IS ANYTHING IN FAILREG
000055:    5604           15610                           TCF      CHKFAIL2                              #  YES TRY NEXT REG
000056:    5605           30001                           CA       L
000057:    5606           54375                           TS       FAILREG
000058:    5607           15614                           TCF      PROGLARM                              #  TURN ALARM LIGHT ON FOR FIRST ALARM
000059:
000060:    5610           10376        CHKFAIL2           CCS      FAILREG    +1
000061:    5611           15614                           TCF      PROGLARM
000062:    5612           30001                           CA       L
000063:    5613           54376                           TS       FAILREG    +1
000064:
000065:    5614           22377        PROGLARM           LXCH     FAILREG    +2                         #  STORE AS "MCST RECENT" ALARM CODE
000066:
000067:    5615           41035                           CS       DSPTAB     +11D                       #  TURN ON PROGRAM ALARM IF OFF
000068:    5616           75632                           MASK     OCT40400
000069:    5617           27035                           ADS      DSPTAB     +11D
000070:
000071:                                                                                                  #  Page 1379
000072:    5620           56061        MULTEXIT           XCH      ITEMP1                                #  OBTAIN RETURN ADDRESS IN A
000073:    5621           00003                           RELINT
000074:    5622           50000                           INDEX    A
000075:    5623           00001                           TC       1
000076:
000077:                                                                                                  #  PRIOLARM DISPLAYS V05N09 VIA PRIODSPR WITH 3 RETURNS TO THE USER FROM THE ASTRONAUT AT CALL LOC +1,+2,+3 AND
000078:                                                                                                  #  AN IMMEDIATE RETURN TO THE USER AT CALL LOC +4.  EXAMPLE FOLLOWS,
000079:                                                                                                  #                CAF     OCTXX           # ALARM CODE
000080:                                                                                                  #                TC      BANKCALL
000081:                                                                                                  #                CADR    PRIOLARM
000082:                                                                                                  #                ...     ...
000083:                                                                                                  #                ...     ...
000084:                                                                                                  #                ...     ...             # ASTRONAUT RETURN
000085:                                                                                                  #                TC      PHASCHNG        # IMMEDIATE RETURN TO USER.  RESTART
000086:                                                                                                  #                OCT     X.1             # PHASE CHANGE FOR PRIO DISPLAY
000087:
000088: 10,3563                                           BANK     10
000089: 10,2000                                           SETLOC   DISPLAYS
000090: 10,2000                                           BANK
000091:
000092: 10,3563                                           COUNT*   $$/DSPLA
000093: 10,3563           00004        PRIOLARM           INHINT                                         #  * * * KEEP IN DISPLAY ROUTINE'S BANK
000094: 10,3564           54001                           TS       L                                     #  SAVE ALARM CODE
000095:
000096: 10,3565           30133                           CA       BUF2                                  #  2 CADR OF PRIOLARM USER
000097: 10,3566           55363                           TS       ALMCADR
000098: 10,3567           30134                           CA       BUF2       +1
000099: 10,3570           05576                           TC       PRIOENT    +1                         #  * LEAVE L ALONE
000100: 10,3571           77467        -2SEC              DEC      -200       B-14                       #  *** DON'T MOVE
000101: 10,3572           35006                           CAF      V05N09
000102: 10,3573           12505                           TCF      PRIODSPR
000103:
000104:    5624                                           BLOCK    02
000105:    4000                                           SETLOC   FFTAG7
000106:    4000                                           BANK
000107:
000108:    5624                                           COUNT*   $$/ALARM
000109:    5624           00004        BAILOUT            INHINT
000110:    5625           30002                           CA       Q
000111:    5626           55363                           TS       ALMCADR
000112:
000113:    5627           50002                           INDEX    Q
000114:    5630           30000                           CAF      0
000115:    5631           05574                           TC       BORTENT
000116:    5632           40400        OCT40400           OCT      40400
000117:
000118:    5633           00004                           INHINT
000119:    5634           34752        WHIMPER            CA       TWO
000120:    5635           60005                           AD       Z
000121:                                                                                                  #  Page 1380
000122:    5636           54017                           TS       BRUPT
000123:    5637           50017                           RESUME
000124:    5640           04635                           TC       POSTJUMP                              #  RESUME SENDS CONTROL HERE
000125:    5641           12763                           CADR     ENEMA
000126:    5642           00004        P00DOO             INHINT
000127:    5643           30002                           CA       Q
000128:    5644           55363        ABORT2             TS       ALMCADR
000129:    5645           50002                           INDEX    Q
000130:    5646           30000                           CAF      0
000131:    5647           05574                           TC       BORTENT
000132:    5650           77770        OCT77770           OCT      77770                                 #  DON'T MOVE
000133:
000134:    5651           34765                           CAF      OCT35                                 #  4.35SPOT FOR GOP00DOO
000135:    5652           54001                           TS       L
000136:    5653           40000                           COM
000137:    5654           52760                           DXCH     -PHASE4
000138:    5655           00004        GOP00DOO           INHINT
000139:    5656           04616                           TC       BANKCALL                              #  RESET STATEFLG, REINTFLG, AND NODOFLAG.
000140:    5657           27746                           CADR     FLAGS
000141:    5660           30103                           CA       FLAGWRD7                              #  IS SERVICER CURRENTLY IN OPERATION?
000142:    5661           74746                           MASK     V37FLBIT
000143:    5662           10000                           CCS      A
000144:    5663           15671                           TCF      STRTIDLE
000145:    5664           04616                           TC       BANKCALL                              #  TERMINATE GRPS 1, 3, 5, AND 6
000146:    5665           12650                           CADR     V37KLEAN
000147:    5666           04616                           TC       BANKCALL                              #  TERMINATE GRPS 2, 4, 1, 3, 5, AND 6
000148:    5667           12641                           CADR     MR.KLEAN                              #        (I.E., GRP 4 LAST)
000149:    5670           15634                           TCF      WHIMPER
000150:    5671           35733        STRTIDLE           CAF      BBSERVDL
000151:    5672           04727                           TC       SUPERSW
000152:    5673           04616                           TC       BANKCALL                              #  PUT SERVICER INTO ITS "GROUND" STATE
000153:    5674           57322                           CADR     SERVIDLE                              #  AND PROCED TO GOTOP00H.
000154:    5675           00004        CCSHOLE            INHINT
000155:    5676           30002                           CA       Q
000156:    5677           05644                           TC       ABORT2
000157:    5700           21103        OCT21103           OCT      21103
000158:    5701           00004        CURTAINS           INHINT
000159:    5702           30002                           CA       Q
000160:    5703           05571                           TC       ALARM2
000161:    5704           00217        OCT217             OCT      00217
000162:    5705           01363                           TC       ALMCADR                               #  RETURN TO USER
000163:
000164:    5706           00004        BAILOUT1           INHINT
000165:    5707           53364                           DXCH     ALMCADR
000166:    5710           35732                           CAF      ADR40400
000167:    5711           54061        BOTHABRT           TS       ITEMP1
000168:    5712           50002                           INDEX    Q
000169:    5713           30000                           CAF      0
000170:    5714           54001                           TS       L
000171:    5715           15603                           TCF      CHKFAIL1
000172:
000173:                                                                                                  #  Page 1381
000174:    5716           00004        P00DOO1            INHINT
000175:    5717           53364                           DXCH     ALMCADR
000176:    5720           35731                           CAF      ADR77770
000177:    5721           15711                           TCF      BOTHABRT
000178:
000179:    5722           00004        ALARM1             INHINT
000180:    5723           53364                           DXCH     ALMCADR
000181:    5724           00004        ALMNCADR           INHINT
000182:    5725           50002                           INDEX    Q
000183:    5726           30000                           CA       0
000184:    5727           54001                           TS       L
000185:    5730           15601                           TCF      LARMENT
000186:
000187:    5731           15650        ADR77770           TCF      OCT77770
000188:    5732           15632        ADR40400           TCF      OCT40400
000189:    5733     5155               DOALARM            EQUALS   ENDOFJOB
000190:    5733  E7,1515                                  EBANK=   DVCNTR
000191:    5733           56067        BBSERVDL           BBCON    SERVIDLE
000192:
000193:                                                                                                  #  CALLING SEQUENCE FOR VARALARM
000194:                                                                                                  #                CAF     (ALARM)
000195:                                                                                                  #                TC      VARALARM
000196:
000197:                                                                                                  #  VARALARM TURNS ON PROGRAM ALARM LIGHT BUT DOES NOT DISPLAY
000198:
000199:    5734           00004        VARALARM           INHINT
000200:
000201:    5735           54001                           TS       L                                     #  SAVE USER'S ALARM CODE
000202:
000203:    5736           30002                           CA       Q                                     #  SAVE USER'S Q
000204:    5737           55363                           TS       ALMCADR
000205:
000206:    5740           05575                           TC       PRIOENT
000207:    5741           00014        OCT14              OCT      14                                    #  DON'T MOVE
000208:
000209:    5742           01363                           TC       ALMCADR                               #  RETURN TO USER
000210:
000211:    5743     5634               ABORT              EQUALS   WHIMPER
000212: 13,3746                                           BANK     13
000213: 13,2000                                           SETLOC   ABTFLGS
000214: 13,2000                                           BANK
000215: 13,3746                                           COUNT*   $$/ALARM
000216:
000217: 13,3746           44747        FLAGS              CS       STATEBIT
000218: 13,3747           70077                           MASK     FLAGWRD3
000219: 13,3750           54077                           TS       FLAGWRD3
000220: 13,3751           44745                           CS       REINTBIT
000221: 13,3752           70106                           MASK     FLGWRD10
000222: 13,3753           54106                           TS       FLGWRD10
000223: 13,3754           44753                           CS       NODOBIT
000224: 13,3755           70076                           MASK     FLAGWRD2
000225:
000226:                                                                                                  #  Page 1382
000227: 13,3756           54076                           TS       FLAGWRD2
000228: 13,3757           00002                           TC       Q
000229:
000230:

End of include-file ALARM_AND_ABORT.agc.  Parent file is MAIN.agc


