
Source Code


000002:                                                                                                  ## Copyright:   Public domain.
000003:                                                                                                  ## Filename:    ALARM_AND_ABORT.agc
000004:                                                                                                  ## Purpose:     A section of Luminary 1C, revision 131.
000005:                                                                                                  ##              It is part of the source code for the Lunar Module's (LM)
000006:                                                                                                  ##              Apollo Guidance Computer (AGC) for Apollo 13.
000007:                                                                                                  ##              This file is intended to be a faithful transcription, except
000008:                                                                                                  ##              that the code format has been changed to conform to the
000009:                                                                                                  ##              requirements of the yaYUL assembler rather than the
000010:                                                                                                  ##              original YUL assembler.
000011:                                                                                                  ## Reference:   pp. 1373-1377
000012:                                                                                                  ## Contact:     Ron Burkey <info@sandroid.org>.
000013:                                                                                                  ## Website:     www.ibiblio.org/apollo/index.html
000014:                                                                                                  ## Mod history: 06/07/03 RSB.   Began transcribing.
000015:                                                                                                  ##              05/14/05 RSB    Corrected website reference above.
000016:                                                                                                  ##              2010-10-25 JL   Indentation fixes.
000017:                                                                                                  ##              2011-06-07 JL   Removed workarounds.
000018:                                                                                                  ##              2017-01-06 RSB  Page numbers now agree with those on the
000019:                                                                                                  ##                              original harcopy, as opposed to the PDF page
000020:                                                                                                  ##                              numbers in 1701.pdf.
000021:


000023:                                                                                                  #  THE FOLLOWING SUBROUTINE MAY BE CALLED TO DISPLAY A NON-ABORTIVE ALARM CONDITION.  IT MAY BE CALLED
000024:                                                                                                  #  EITHER IN INTERRUPT OR UNDER EXECUTIVE CONTROL.
000025:
000026:                                                                                                  #  THE CALLING SEQUENCE IS AS FOLLOWS:
000027:                                                                                                  #                TC      ALARM
000028:                                                                                                  #                OCT     AAANN           # ALARM NO. NN IN GENERAL AREA AAA.
000029:                                                                                                  #                                        # (RETURNS HERE)
000030:
000031:    5567                                           BLOCK    02
000032:    4000                                           SETLOC   FFTAG7
000033:    4000                                           BANK
000034:
000035:    5567     0375                                  EBANK=   FAILREG
000036:
000037:    5567                                           COUNT*   $$/ALARM
000038:
000039:                                                                                                  #  ALARM TURNS ON THE PROGRAM ALARM LIGHT, BUT DOES NOT DISPLAY.
000040:
000041:    5567           00004        ALARM              INHINT
000042:
000043:    5570           30002                           CA       Q
000044:    5571           55363        ALARM2             TS       ALMCADR
000045:    5572           50002                           INDEX    Q
000046:    5573           30000                           CA       0
000047:    5574           54001        BORTENT            TS       L
000048:
000049:    5575           30006        PRIOENT            CA       BBANK
000050:    5576           00006                 +1        EXTEND
000051:    5577           04007                           ROR      SUPERBNK                              #  ADD SUPER BITS.
000052:    5600           55364                           TS       ALMCADR    +1
000053:
000054:    5601           30002        LARMENT            CA       Q                                     #  STORE RETURN FOR ALARM
000055:    5602           54061                           TS       ITEMP1
000056:
000057:    5603           10375        CHKFAIL1           CCS      FAILREG                               #  IS ANYTHING IN FAILREG
000058:    5604           15610                           TCF      CHKFAIL2                              #  YES TRY NEXT REG
000059:    5605           30001                           CA       L
000060:    5606           54375                           TS       FAILREG
000061:    5607           15614                           TCF      PROGLARM                              #  TURN ALARM LIGHT ON FOR FIRST ALARM
000062:
000063:    5610           10376        CHKFAIL2           CCS      FAILREG    +1
000064:    5611           15614                           TCF      PROGLARM
000065:    5612           30001                           CA       L
000066:    5613           54376                           TS       FAILREG    +1
000067:
000068:    5614           22377        PROGLARM           LXCH     FAILREG    +2                         #  STORE AS "MCST RECENT" ALARM CODE
000069:
000070:    5615           41035                           CS       DSPTAB     +11D                       #  TURN ON PROGRAM ALARM IF OFF
000071:    5616           75632                           MASK     OCT40400
000072:    5617           27035                           ADS      DSPTAB     +11D
000073:


000075:    5620           56061        MULTEXIT           XCH      ITEMP1                                #  OBTAIN RETURN ADDRESS IN A
000076:    5621           00003                           RELINT
000077:    5622           50000                           INDEX    A
000078:    5623           00001                           TC       1
000079:
000080:                                                                                                  #  PRIOLARM DISPLAYS V05N09 VIA PRIODSPR WITH 3 RETURNS TO THE USER FROM THE ASTRONAUT AT CALL LOC +1,+2,+3 AND
000081:                                                                                                  #  AN IMMEDIATE RETURN TO THE USER AT CALL LOC +4.  EXAMPLE FOLLOWS,
000082:                                                                                                  #                CAF     OCTXX           # ALARM CODE
000083:                                                                                                  #                TC      BANKCALL
000084:                                                                                                  #                CADR    PRIOLARM
000085:                                                                                                  #                ...     ...
000086:                                                                                                  #                ...     ...
000087:                                                                                                  #                ...     ...             # ASTRONAUT RETURN
000088:                                                                                                  #                TC      PHASCHNG        # IMMEDIATE RETURN TO USER.  RESTART
000089:                                                                                                  #                OCT     X.1             # PHASE CHANGE FOR PRIO DISPLAY
000090:
000091: 10,3563                                           BANK     10
000092: 10,2000                                           SETLOC   DISPLAYS
000093: 10,2000                                           BANK
000094:
000095: 10,3563                                           COUNT*   $$/DSPLA
000096: 10,3563           00004        PRIOLARM           INHINT                                         #  * * * KEEP IN DISPLAY ROUTINE'S BANK
000097: 10,3564           54001                           TS       L                                     #  SAVE ALARM CODE
000098:
000099: 10,3565           30133                           CA       BUF2                                  #  2 CADR OF PRIOLARM USER
000100: 10,3566           55363                           TS       ALMCADR
000101: 10,3567           30134                           CA       BUF2       +1
000102: 10,3570           05576                           TC       PRIOENT    +1                         #  * LEAVE L ALONE
000103: 10,3571           77467        -2SEC              DEC      -200       B-14                       #  *** DON'T MOVE
000104: 10,3572           35006                           CAF      V05N09
000105: 10,3573           12505                           TCF      PRIODSPR
000106:
000107:    5624                                           BLOCK    02
000108:    4000                                           SETLOC   FFTAG7
000109:    4000                                           BANK
000110:
000111:    5624                                           COUNT*   $$/ALARM
000112:    5624           00004        BAILOUT            INHINT
000113:    5625           30002                           CA       Q
000114:    5626           55363                           TS       ALMCADR
000115:
000116:    5627           50002                           INDEX    Q
000117:    5630           30000                           CAF      0
000118:    5631           05574                           TC       BORTENT
000119:    5632           40400        OCT40400           OCT      40400
000120:
000121:    5633           00004                           INHINT
000122:    5634           34752        WHIMPER            CA       TWO
000123:    5635           60005                           AD       Z


000125:    5636           54017                           TS       BRUPT
000126:    5637           50017                           RESUME
000127:    5640           04635                           TC       POSTJUMP                              #  RESUME SENDS CONTROL HERE
000128:    5641           12763                           CADR     ENEMA
000129:    5642           00004        POODOO             INHINT
000130:    5643           30002                           CA       Q
000131:    5644           55363        ABORT2             TS       ALMCADR
000132:    5645           50002                           INDEX    Q
000133:    5646           30000                           CAF      0
000134:    5647           05574                           TC       BORTENT
000135:    5650           77770        OCT77770           OCT      77770                                 #  DON'T MOVE
000136:
000137:    5651           34765                           CAF      OCT35                                 #  4.35SPOT FOR GOPOODOO
000138:    5652           54001                           TS       L
000139:    5653           40000                           COM
000140:    5654           52760                           DXCH     -PHASE4
000141:    5655           00004        GOPOODOO           INHINT
000142:    5656           04616                           TC       BANKCALL                              #  RESET STATEFLG, REINTFLG, AND NODOFLAG.
000143:    5657           27746                           CADR     FLAGS
000144:    5660           30103                           CA       FLAGWRD7                              #  IS SERVICER CURRENTLY IN OPERATION?
000145:    5661           74746                           MASK     V37FLBIT
000146:    5662           10000                           CCS      A
000147:    5663           15671                           TCF      STRTIDLE
000148:    5664           04616                           TC       BANKCALL                              #  TERMINATE GRPS 1, 3, 5, AND 6
000149:    5665           12650                           CADR     V37KLEAN
000150:    5666           04616                           TC       BANKCALL                              #  TERMINATE GRPS 2, 4, 1, 3, 5, AND 6
000151:    5667           12641                           CADR     MR.KLEAN                              #        (I.E., GRP 4 LAST)
000152:    5670           15634                           TCF      WHIMPER
000153:    5671           35733        STRTIDLE           CAF      BBSERVDL
000154:    5672           04727                           TC       SUPERSW
000155:    5673           04616                           TC       BANKCALL                              #  PUT SERVICER INTO ITS "GROUND" STATE
000156:    5674           57322                           CADR     SERVIDLE                              #  AND PROCED TO GOTOPOOH.
000157:    5675           00004        CCSHOLE            INHINT
000158:    5676           30002                           CA       Q
000159:    5677           05644                           TC       ABORT2
000160:    5700           21103        OCT21103           OCT      21103
000161:    5701           00004        CURTAINS           INHINT
000162:    5702           30002                           CA       Q
000163:    5703           05571                           TC       ALARM2
000164:    5704           00217        OCT217             OCT      00217
000165:    5705           01363                           TC       ALMCADR                               #  RETURN TO USER
000166:
000167:    5706           00004        BAILOUT1           INHINT
000168:    5707           53364                           DXCH     ALMCADR
000169:    5710           35732                           CAF      ADR40400
000170:    5711           54061        BOTHABRT           TS       ITEMP1
000171:    5712           50002                           INDEX    Q
000172:    5713           30000                           CAF      0
000173:    5714           54001                           TS       L
000174:    5715           15603                           TCF      CHKFAIL1
000175:


000177:    5716           00004        POODOO1            INHINT
000178:    5717           53364                           DXCH     ALMCADR
000179:    5720           35731                           CAF      ADR77770
000180:    5721           15711                           TCF      BOTHABRT
000181:
000182:    5722           00004        ALARM1             INHINT
000183:    5723           53364                           DXCH     ALMCADR
000184:    5724           00004        ALMNCADR           INHINT
000185:    5725           50002                           INDEX    Q
000186:    5726           30000                           CA       0
000187:    5727           54001                           TS       L
000188:    5730           15601                           TCF      LARMENT
000189:
000190:    5731           15650        ADR77770           TCF      OCT77770
000191:    5732           15632        ADR40400           TCF      OCT40400
000192:    5733     5155               DOALARM            EQUALS   ENDOFJOB
000193:    5733  E7,1515                                  EBANK=   DVCNTR
000194:    5733           56067        BBSERVDL           BBCON    SERVIDLE
000195:
000196:                                                                                                  #  CALLING SEQUENCE FOR VARALARM
000197:                                                                                                  #                CAF     (ALARM)
000198:                                                                                                  #                TC      VARALARM
000199:
000200:                                                                                                  #  VARALARM TURNS ON PROGRAM ALARM LIGHT BUT DOES NOT DISPLAY
000201:
000202:    5734           00004        VARALARM           INHINT
000203:
000204:    5735           54001                           TS       L                                     #  SAVE USER'S ALARM CODE
000205:
000206:    5736           30002                           CA       Q                                     #  SAVE USER'S Q
000207:    5737           55363                           TS       ALMCADR
000208:
000209:    5740           05575                           TC       PRIOENT
000210:    5741           00014        OCT14              OCT      14                                    #  DON'T MOVE
000211:
000212:    5742           01363                           TC       ALMCADR                               #  RETURN TO USER
000213:
000214:    5743     5634               ABORT              EQUALS   WHIMPER
000215: 13,3746                                           BANK     13
000216: 13,2000                                           SETLOC   ABTFLGS
000217: 13,2000                                           BANK
000218: 13,3746                                           COUNT*   $$/ALARM
000219:
000220: 13,3746           44747        FLAGS              CS       STATEBIT
000221: 13,3747           70077                           MASK     FLAGWRD3
000222: 13,3750           54077                           TS       FLAGWRD3
000223: 13,3751           44745                           CS       REINTBIT
000224: 13,3752           70106                           MASK     FLGWRD10
000225: 13,3753           54106                           TS       FLGWRD10
000226: 13,3754           44753                           CS       NODOBIT
000227: 13,3755           70076                           MASK     FLAGWRD2
000228:


000230: 13,3756           54076                           TS       FLAGWRD2
000231: 13,3757           00002                           TC       Q
000232:
000233:

End of include-file ALARM_AND_ABORT.agc.  Parent file is MAIN.agc


