
Source Code
000001:                                                                                                 #  Copyright:     Public domain.
000002:                                                                                                 #  Filename:      ALARM_AND_ABORT.agc
000003:                                                                                                 #  Purpose:       A section of Luminary 1C, revision 131.
000004:                                                                                                 #                 It is part of the source code for the Lunar Module's (LM)
000005:                                                                                                 #                 Apollo Guidance Computer (AGC) for Apollo 13 and Apollo 14.
000006:                                                                                                 #                 This file is intended to be a faithful transcription, except
000007:                                                                                                 #                 that the code format has been changed to conform to the
000008:                                                                                                 #                 requirements of the yaYUL assembler rather than the
000009:                                                                                                 #                 original YUL assembler.
000010:                                                                                                 #  Reference:     pp. 1378-1382 of 1729.pdf.
000011:                                                                                                 #  Contact:       Ron Burkey <info@sandroid.org>.
000012:                                                                                                 #  Website:       www.ibiblio.org/apollo/index.html
000013:                                                                                                 #  Mod history:   06/07/03 RSB.   Began transcribing.
000014:                                                                                                 #                 05/14/05 RSB    Corrected website reference above.
000015:
000016:                                                                                                 #  Page 1378
000017:                                                                                                 #  THE FOLLOWING SUBROUTINE MAY BE CALLED TO DISPLAY A NON-ABORTIVE ALARM CONDITION.  IT MAY BE CALLED
000018:                                                                                                 #  EITHER IN INTERRUPT OR UNDER EXECUTIVE CONTROL.
000019:
000020:                                                                                                 #  THE CALLING SEQUENCE IS AS FOLLOWS:
000021:                                                                                                 #                 TC      ALARM
000022:                                                                                                 #                 OCT     AAANN           # ALARM NO. NN IN GENERAL AREA AAA.
000023:                                                                                                 #                                         # (RETURNS HERE)
000024:
000025:    5567                                          BLOCK    02
000026:    4000                                          SETLOC   FFTAG7
000027:    4000                                          BANK
000028:
000029:    5567     0375                                 EBANK=   FAILREG
000030:
000031:    5567                                          COUNT*   $$/ALARM
000032:
000033:                                                                                                 #  ALARM TURNS ON THE PROGRAM ALARM LIGHT, BUT DOES NOT DISPLAY.
000034:
000035:    5567           00004        ALARM             INHINT
000036:
000037:    5570           30002                          CA       Q
000038:    5571           55363        ALARM2            TS       ALMCADR
000039:    5572           50002                          INDEX    Q
000040:    5573           30000                          CA       0
000041:    5574           54001        BORTENT           TS       L
000042:
000043:    5575           30006        PRIOENT           CA       BBANK
000044:    5576           00006                 +1       EXTEND
000045:    5577           04007                          ROR      SUPERBNK                              #  ADD SUPER BITS.
000046:    5600           55364                          TS       ALMCADR    +1
000047:
000048:    5601           30002        LARMENT           CA       Q                                     #  STORE RETURN FOR ALARM
000049:    5602           54061                          TS       ITEMP1
000050:
000051:    5603           10375        CHKFAIL1          CCS      FAILREG                               #  IS ANYTHING IN FAILREG
000052:    5604           15610                          TCF      CHKFAIL2                              #  YES TRY NEXT REG
000053:    5605           30001                          CA       L
000054:    5606           54375                          TS       FAILREG
000055:    5607           15614                          TCF      PROGLARM                              #  TURN ALARM LIGHT ON FOR FIRST ALARM
000056:
000057:    5610           10376        CHKFAIL2          CCS      FAILREG    +1
000058:    5611           15614                          TCF      PROGLARM
000059:    5612           30001                          CA       L
000060:    5613           54376                          TS       FAILREG    +1
000061:
000062:    5614           22377        PROGLARM          LXCH     FAILREG    +2                         #  STORE AS "MCST RECENT" ALARM CODE
000063:
000064:    5615           41035                          CS       DSPTAB     +11D                       #  TURN ON PROGRAM ALARM IF OFF
000065:    5616           75632                          MASK     OCT40400
000066:    5617           27035                          ADS      DSPTAB     +11D
000067:
000068:                                                                                                 #  Page 1379
000069:    5620           56061        MULTEXIT          XCH      ITEMP1                                #  OBTAIN RETURN ADDRESS IN A
000070:    5621           00003                          RELINT
000071:    5622           50000                          INDEX    A
000072:    5623           00001                          TC       1
000073:
000074:                                                                                                 #  PRIOLARM DISPLAYS V05N09 VIA PRIODSPR WITH 3 RETURNS TO THE USER FROM THE ASTRONAUT AT CALL LOC +1,+2,+3 AND
000075:                                                                                                 #  AN IMMEDIATE RETURN TO THE USER AT CALL LOC +4.  EXAMPLE FOLLOWS,
000076:                                                                                                 #                 CAF     OCTXX           # ALARM CODE
000077:                                                                                                 #                 TC      BANKCALL
000078:                                                                                                 #                 CADR    PRIOLARM
000079:                                                                                                 #                 ...     ...
000080:                                                                                                 #                 ...     ...
000081:                                                                                                 #                 ...     ...             # ASTRONAUT RETURN
000082:                                                                                                 #                 TC      PHASCHNG        # IMMEDIATE RETURN TO USER.  RESTART
000083:                                                                                                 #                 OCT     X.1             # PHASE CHANGE FOR PRIO DISPLAY
000084:
000085: 10,3563                                          BANK     10
000086: 10,2000                                          SETLOC   DISPLAYS
000087: 10,2000                                          BANK
000088:
000089: 10,3563                                          COUNT*   $$/DSPLA
000090: 10,3563           00004        PRIOLARM          INHINT                                         #  * * * KEEP IN DISPLAY ROUTINE'S BANK
000091: 10,3564           54001                          TS       L                                     #  SAVE ALARM CODE
000092:
000093: 10,3565           30133                          CA       BUF2                                  #  2 CADR OF PRIOLARM USER
000094: 10,3566           55363                          TS       ALMCADR
000095: 10,3567           30134                          CA       BUF2       +1
000096: 10,3570           05576                          TC       PRIOENT    +1                         #  * LEAVE L ALONE
000097: 10,3571           77467        -2SEC             DEC      -200       B-14                       #  *** DON'T MOVE
000098: 10,3572           35006                          CAF      V05N09
000099: 10,3573           12505                          TCF      PRIODSPR
000100:
000101:    5624                                          BLOCK    02
000102:    4000                                          SETLOC   FFTAG7
000103:    4000                                          BANK
000104:
000105:    5624                                          COUNT*   $$/ALARM
000106:    5624           00004        BAILOUT           INHINT
000107:    5625           30002                          CA       Q
000108:    5626           55363                          TS       ALMCADR
000109:
000110:    5627           50002                          INDEX    Q
000111:    5630           30000                          CA       0                                     #  Was CAF --- RSB 2004
000112:    5631           05574                          TC       BORTENT
000113:    5632           40400        OCT40400          OCT      40400
000114:
000115:    5633           00004                          INHINT
000116:    5634           34752        WHIMPER           CA       TWO
000117:    5635           60005                          AD       Z
000118:                                                                                                 #  Page 1380
000119:    5636           54017                          TS       BRUPT
000120:    5637           50017                          RESUME
000121:    5640           04635                          TC       POSTJUMP                              #  RESUME SENDS CONTROL HERE
000122:    5641           12763                          CADR     ENEMA
000123:    5642           00004        P00DOO            INHINT
000124:    5643           30002                          CA       Q
000125:    5644           55363        ABORT2            TS       ALMCADR
000126:    5645           50002                          INDEX    Q
000127:    5646           30000                          CA       0                                     #  Was CAF --- RSB 2004
000128:    5647           05574                          TC       BORTENT
000129:    5650           77770        OCT77770          OCT      77770                                 #  DON'T MOVE
000130:
000131:    5651           34765                          CAF      OCT35                                 #  4.35SPOT FOR GOP00DOO
000132:    5652           54001                          TS       L
000133:    5653           40000                          COM
000134:    5654           52760                          DXCH     -PHASE4
000135:    5655           00004        GOP00DOO          INHINT
000136:    5656           04616                          TC       BANKCALL                              #  RESET STATEFLG, REINTFLG, AND NODOFLAG.
000137:    5657           27746                          CADR     FLAGS
000138:    5660           30103                          CA       FLAGWRD7                              #  IS SERVICER CURRENTLY IN OPERATION?
000139:    5661           74746                          MASK     V37FLBIT
000140:    5662           10000                          CCS      A
000141:    5663           15671                          TCF      STRTIDLE
000142:    5664           04616                          TC       BANKCALL                              #  TERMINATE GRPS 1, 3, 5, AND 6
000143:    5665           12650                          CADR     V37KLEAN
000144:    5666           04616                          TC       BANKCALL                              #  TERMINATE GRPS 2, 4, 1, 3, 5, AND 6
000145:    5667           12641                          CADR     MR.KLEAN                              #         (I.E., GRP 4 LAST)
000146:    5670           15634                          TCF      WHIMPER
000147:    5671           35733        STRTIDLE          CAF      BBSERVDL
000148:    5672           04727                          TC       SUPERSW
000149:    5673           04616                          TC       BANKCALL                              #  PUT SERVICER INTO ITS "GROUND" STATE
000150:    5674           57322                          CADR     SERVIDLE                              #  AND PROCED TO GOTOP00H.
000151:    5675           00004        CCSHOLE           INHINT
000152:    5676           30002                          CA       Q
000153:    5677           05644                          TC       ABORT2
000154:    5700           21103        OCT21103          OCT      21103
000155:    5701           00004        CURTAINS          INHINT
000156:    5702           30002                          CA       Q
000157:    5703           05571                          TC       ALARM2
000158:    5704           00217        OCT217            OCT      00217
000159:    5705           01363                          TC       ALMCADR                               #  RETURN TO USER
000160:
000161:    5706           00004        BAILOUT1          INHINT
000162:    5707           53364                          DXCH     ALMCADR
000163:    5710           35732                          CAF      ADR40400
000164:    5711           54061        BOTHABRT          TS       ITEMP1
000165:    5712           50002                          INDEX    Q
000166:    5713           30000                          CA       0                                     #  Was CAF --- RSB 2004
000167:    5714           54001                          TS       L
000168:    5715           15603                          TCF      CHKFAIL1
000169:
000170:                                                                                                 #  Page 1381
000171:    5716           00004        P00DOO1           INHINT
000172:    5717           53364                          DXCH     ALMCADR
000173:    5720           35731                          CAF      ADR77770
000174:    5721           15711                          TCF      BOTHABRT
000175:
000176:    5722           00004        ALARM1            INHINT
000177:    5723           53364                          DXCH     ALMCADR
000178:    5724           00004        ALMNCADR          INHINT
000179:    5725           50002                          INDEX    Q
000180:    5726           30000                          CA       0
000181:    5727           54001                          TS       L
000182:    5730           15601                          TCF      LARMENT
000183:
000184:    5731           15650        ADR77770          TCF      OCT77770
000185:    5732           15632        ADR40400          TCF      OCT40400
000186:    5733     5155               DOALARM           EQUALS   ENDOFJOB
000187:    5733  E7,1515                                 EBANK=   DVCNTR
000188:    5733           56067        BBSERVDL          BBCON    SERVIDLE
000189:
000190:                                                                                                 #  CALLING SEQUENCE FOR VARALARM
000191:                                                                                                 #                 CAF     (ALARM)
000192:                                                                                                 #                 TC      VARALARM
000193:
000194:                                                                                                 #  VARALARM TURNS ON PROGRAM ALARM LIGHT BUT DOES NOT DISPLAY
000195:
000196:    5734           00004        VARALARM          INHINT
000197:
000198:    5735           54001                          TS       L                                     #  SAVE USER'S ALARM CODE
000199:
000200:    5736           30002                          CA       Q                                     #  SAVE USER'S Q
000201:    5737           55363                          TS       ALMCADR
000202:
000203:    5740           05575                          TC       PRIOENT
000204:    5741           00014        OCT14             OCT      14                                    #  DON'T MOVE
000205:
000206:    5742           01363                          TC       ALMCADR                               #  RETURN TO USER
000207:
000208:    5743     5634               ABORT             EQUALS   WHIMPER
000209: 13,3746                                          BANK     13
000210: 13,2000                                          SETLOC   ABTFLGS
000211: 13,2000                                          BANK
000212: 13,3746                                          COUNT*   $$/ALARM
000213:
000214: 13,3746           44747        FLAGS             CS       STATEBIT
000215: 13,3747           70077                          MASK     FLAGWRD3
000216: 13,3750           54077                          TS       FLAGWRD3
000217: 13,3751           44745                          CS       REINTBIT
000218: 13,3752           70106                          MASK     FLGWRD10
000219: 13,3753           54106                          TS       FLGWRD10
000220: 13,3754           44753                          CS       NODOBIT
000221: 13,3755           70076                          MASK     FLAGWRD2
000222:
000223:                                                                                                 #  Page 1382
000224: 13,3756           54076                          TS       FLAGWRD2
000225: 13,3757           00002                          TC       Q
000226:
000227:

End of include-file ALARM_AND_ABORT.agc.  Parent file is MAIN.agc


