
Source Code


000002:                                                                                                  ## Copyright:   Public domain.
000003:                                                                                                  ## Filename:    AOSTASK_AND_AOSJOB.agc
000004:                                                                                                  ## Purpose:     A section of Luminary 1C, revision 131.
000005:                                                                                                  ##              It is part of the source code for the Lunar Module's (LM)
000006:                                                                                                  ##              Apollo Guidance Computer (AGC) for Apollo 13.
000007:                                                                                                  ##              This file is intended to be a faithful transcription, except
000008:                                                                                                  ##              that the code format has been changed to conform to the
000009:                                                                                                  ##              requirements of the yaYUL assembler rather than the
000010:                                                                                                  ##              original YUL assembler.
000011:                                                                                                  ## Reference:   pp. 1477-1498
000012:                                                                                                  ## Contact:     Ron Burkey <info@sandroid.org>.
000013:                                                                                                  ## Website:     www.ibiblio.org/apollo/index.html
000014:                                                                                                  ## Mod history: 06/08/03 RSB.   Began transcribing.
000015:                                                                                                  ##              05/14/05 RSB    Corrected website reference above.
000016:                                                                                                  ##              2010-08-24 JL   Fixed page 1502 number.
000017:                                                                                                  ##              2010-10-25 JL   Indentation fixes.
000018:                                                                                                  ##              2017-01-06 RSB  Page numbers now agree with those on the
000019:                                                                                                  ##                              original harcopy, as opposed to the PDF page
000020:                                                                                                  ##                              numbers in 1701.pdf.
000021:


000023:                                                                                                  #  PROGRAM NAME:         1/ACCS
000024:                                                                                                  #  PROGRAM WRITTEN BY:   BOB COVELLI AND MIKE HOUSTON
000025:                                                                                                  #  LAST MODIFICATION:    FEB. 14, 1969 BY G. KALAN
000026:
000027:                                                                                                  #  PROGRAM DESCRIPTION:
000028:                                                                                                  #        1/ACCS PROVIDES THE INTERFACE BETWEEN THE GUIDANCE PROGRAMS AND THE DIGITAL AUTOPILOT.  WHENEVER THERE IS A
000029:                                                                                                  #        CHANGE IN THE MASS OS THE VEHICLE, IN THE DEADBAND SELECTED, IN THE VEHICLE CONFIGURATION (ASCENT-DESCENT-
000030:                                                                                                  #        DOCKED), AND DURING A FRESH START OR A RESTART, 1/ACCS IS CALLED TO COMMUNICATE THE DATA CHANGES TO THE DAP.
000031:
000032:                                                                                                  #        THE INPUTS TO 1/ACCS ARE MASS, ACCELERATION (ABDELV), DEADBAND (DB), OFFSET ACCELERATIONS (AOSQ AND AOSR),
000033:                                                                                                  #        STAGE VERIFY BIT (CHAN30, BIT2), DOCKED BIT (DAPBOOLS, BIT13), DRIFT BIT (DAPBOOLS, BIT8), USEQRJTS (DAPBOOLS,
000034:                                                                                                  #        BIT14), AND SURFACE FLAG (FLAGWRDB, BIT8), AND CH5MASK.
000035:
000036:                                                                                                  #        1/ACCS COMPUTES THE JET ACCELERATIONS (1JACC, 1JACCQ, 1JACCR) AS FUNCTIONS OF MASS.  1JACCU AND 1JACCV ARE
000037:                                                                                                  #        FORMED BY RESOLVING 1JACCQ AND 1JACCR.  IN THE DESCENT CASE, THE DESCENT ENGINE MOMENT ARM (L, PVT-CG) IS ALSO
000038:                                                                                                  #        COMPUTED AS A FUNCTION OF MASS.  THE RATE OF CHANGE OF ACCELERATION DUE TO ROTATION OF THE GIMBAL (ACCDOTQ,
000039:                                                                                                  #        ACCDOTR) IS ALSO COMPUTED IN THE DESCENT CASE.
000040:
000041:                                                                                                  #        AFTER THE ABOVE COMPUTATIONS, THE PROGRAM 1/ACCONT COMPUTES THE RECIPROCAL NET ACCELERATIONS ABOUT THE P, U,
000042:                                                                                                  #        AND V AXES (2 JETS FOR P-AXIS, BOTH 1 AND 2 JETS FOR U AND V AXES), AND THE RECIPROCAL COAST ACCELERATIONS ABOUT
000043:                                                                                                  #        THE P, U, AND V AXES.  THE ACCELERATION FUNCTIONS (ACCFCTZ1 AND ACCFCTZ5) ARE ALSO COMPUTED FOR THESE AXES.  THE
000044:                                                                                                  #        FIRE AND COAST DEADBANDS AND AXISDIST ARE COMPUTED FOR EACH AXIS.  FLAT AND ZONE3LIM, THE WIDTH AND HEIGHT OF THE
000045:                                                                                                  #        MINIMUM IMPULSE ZONE, ARE COMPUTED.  1/ACCONT ALSO SETS ACCSWU AND ACCSWV, WHICH INDICATE WHEN 1 JET ACCELERATION
000046:                                                                                                  #        IS NOT SUFFICIENT TO PRODUCE MINIMUM ACCELERATION.  AT THE COMPLETION OF 1/ACCS, THE ACCSOKAY BIT IS SET.
000047:
000048:                                                                                                  #  SUBROUTINES CALLED:
000049:                                                                                                  #        TIMEGMBL
000050:                                                                                                  #        MAKECADR
000051:                                                                                                  #        ROT45DEG
000052:
000053:                                                                                                  #  CALLING SEQUENCE:
000054:                                                                                                  #                TC      BANKCALL        # (1/ACCS MUST BE CALLED BY BANKCALL)
000055:                                                                                                  #                CADR    1/ACCS
000056:
000057:                                                                                                  #  NORMAL EXIT:  VIA BANKJUMP
000058:
000059:                                                                                                  #  ALARM AND EXIT MODES:  NONE
000060:
000061:                                                                                                  #  INPUT/OUTPUT:  SEE PROGRAM DESCRIPTION.
000062:
000063:                                                                                                  #  DEBRIS:
000064:                                                                                                  #        ALL FO THE EXECUTIVE TEMPORARY REGISTERS, EXCEPT FIXLOC AND OVFIND, AND THE CORE SET AREA FROM MPAC TO BANKSET.
000065:
000066:                                                                                                  #  RESTRICTIONS:
000067:                                                                                                  #        1/ACCS MUST BE CALLED BY BANKCALL
000068:                                                                                                  #        EBANK IS SET TO 6, BUT NOT RESTORED.


000070:
000071: 21,3645                                           BANK     21
000072: 21,2000                                           SETLOC   DAPS4
000073: 21,2000                                           BANK
000074:
000075: 21,3645                                           COUNT*   $$/DAPAO
000076:
000077: 21,3645  E6,1536                                  EBANK=   AOSQ
000078:
000079:                                                                                                  #  ENTRY IS THROUGH 1/ACCJOB OR 1/ACCSIT WHEN 1/ACCS IS TO BE DONE AS A SEPARATE NOVAC JOB.
000080:                                                                                                  #  IT IS POSSIBLE FOR MORE THAN ONE OF THESE JOBS TO BE SET UP CONCURRENTLY.  HOWEVER, SINCE THERE IS NO CHECK OF
000081:                                                                                                  #  NEWJOB, A SECOND MANIFESTATION CANNOT BE STARTED UNTIL THE FIRST IS COMPLETED.
000082:
000083: 21,3645           34755        1/ACCSET           CAF      ZERO                                  #  ENTRY FROM FRESH START/RESTART CODING.
000084: 21,3646           55536                           TS       AOSQ                                  #        NULL THE OFFSET ESTIMATES FOR 1/ACCS.
000085: 21,3647           55540                           TS       AOSR
000086: 21,3650           55424                           TS       ALPHAQ                                #        NULL THE OFFSET ESITMATES FOR DOWNLIST
000087: 21,3651           55425                           TS       ALPHAR
000088:
000089: 21,3652           04616        1/ACCJOB           TC       BANKCALL                              #  1/ACCS ASSUMES ENTRY VIA BANKCALL.
000090: 21,3653           40465                           CADR     1/ACCS     +2                         #  SKIP EBANK SETTING.
000091:
000092: 21,3654           05155                           TC       ENDOFJOB
000093:
000094: 20,2463                                           BANK     20
000095: 20,2000                                           SETLOC   DAPS3
000096: 20,2000                                           BANK
000097: 20,2463                                           COUNT*   $$/DAPAO
000098:
000099: 20,2463           35015        1/ACCS             CA       EBANK6                                #  ***** EBANK SET BUT NOT RESTORED *****
000100: 20,2464           54003                           TS       EBANK
000101:
000102: 20,2465           04645                           TC       MAKECADR                              #  SAVE RETURN SO THAT BUF2 MAY BE USED
000103: 20,2466           54117                           TS       ACCRETRN
000104:
000105:                                                                                                  #  DETERMINE MASS OF THE LEM.
000106:
000107: 20,2467           30111                           CA       DAPBOOLS                              #  IS THE CSM DOCKED
000108: 20,2470           74737                           MASK     CSMDOCKD
000109: 20,2471           54157                           TS       DOCKTEMP                              #  STORE REDORD OF STATE IN TEMP (MPAC +3).
000110: 20,2472           10000                           CCS      A
000111: 20,2473           41327                           CS       CSMMASS                               #        DOCKED:  LEMMAS = MASS - CSMMASS
000112: 20,2474           61243                           AD       MASS                                  #        LEM ALONE:  LEMMASS = MASS
000113: 20,2475           55326                           TS       LEMMASS
000114:
000115:                                                                                                  #  ON THE BASIS OF APSFLAG:
000116:                                                                                                  #        SET THE P-AXIS RATE COMMAND LIMIT FOR 2-JET/2-JET CONTROL
000117:                                                                                                  #        SET MPAC, WHICH INDICATES THE PROPER SET OF COEFFICIENTS FOR THE LEM-ALONE F(MASS) CALCULATIONS
000118:                                                                                                  #        ENSURE THAT THE LEM MASS VALUE IS WITHIN THE ACCEPTABLE RANGE
000119:
000120: 20,2476           00004                           INHINT


000122: 20,2477           30106                           CAE      FLGWRD10                              #  DETERMINE WHETHER STAGED.
000123: 20,2500           74737                           MASK     APSFLBIT
000124: 20,2501           00006                           EXTEND
000125: 20,2502           12526                           BZF      DPSFLITE
000126:
000127: 20,2503           44733                           CS       POSMAX                                #  ASCENT (OR ON LUNAR SURFACE)
000128: 20,2504           55475                           TS       -2JETLIM                              #  ALWAYS 2 JETS FOR P-AXIS RATE COMMAND
000129: 20,2505           35741                           CAF      OCT14                                 #  INITIALIZE INDEX AT 12.
000130: 20,2506           54154                           TS       MPAC
000131: 20,2507           41326                           CS       LEMMASS                               #  CHECK IF MASS TOO HIGH.  CATCH STAGING.
000132: 20,2510           61400                           AD       HIASCENT
000133: 20,2511           00006                           EXTEND
000134: 20,2512           62517                           BZMF     MASSFIX
000135: 20,2513           41326                           CS       LEMMASS                               #  CHECK IF MASS TOO LOW.  THIS LIMITS THE
000136: 20,2514           62001                           AD       LOASCENT                              #        DECREMENTING BY MASSMON.
000137: 20,2515           00006                           EXTEND
000138: 20,2516           62544                           BZMF     F(MASS)
000139:
000140: 20,2517           27326        MASSFIX            ADS      LEMMASS                               #  STORE THE VIOLATED LIMIT AS LEMMASS.
000141: 20,2520           22007                           ZL                                             #        ALSO CORRECT TOTAL MASS, ZEROING THE
000142: 20,2521           10157                           CCS      DOCKTEMP                              #        LOW-ORDER WORD.
000143: 20,2522           31327                           CAE      CSMMASS                               #                DOCKED:  MASS = LEMMASS + CSMMASS
000144: 20,2523           61326                           AD       LEMMASS                               #                LEM ALONE:  MASS = LEMMASS
000145: 20,2524           53244                           DXCH     MASS
000146: 20,2525           12544                           TCF      F(MASS)
000147:
000148: 20,2526           44742        DPSFLITE           CS       BIT10                                 #  FOUR JETS FOR P-AXIS RATE COMMAND ERRORS
000149: 20,2527           55475                           TS       -2JETLIM                              #        EXCEEDING 1.4 DEG/SEC (SCALED AT 45)
000150: 20,2530           36245                           CAF      SIX                                   #  INITIALIZE INDEX AT 6.
000151: 20,2531           54154                           TS       MPAC
000152: 20,2532           41326                           CS       LEMMASS                               #  CHECK IF MASS TOO HIGH.  SHOULD NEVER
000153: 20,2533           62002                           AD       HIDESCNT                              #        OCCUR EXCEPT PERHAPS BEFORE THE PAD
000154: 20,2534           00006                           EXTEND                                         #        LOAD IS DONE.
000155: 20,2535           62517                           BZMF     MASSFIX
000156: 20,2536           41326                           CS       LEMMASS                               #  CHECK IF MASS TOO LOW.  THIS LIMITS THE
000157: 20,2537           62003                           AD       LODESCNT                              #        DECREMENTING BY MASSMON.
000158: 20,2540           61400                           AD       HIASCENT
000159: 20,2541           00006                           EXTEND
000160: 20,2542           62544                           BZMF     F(MASS)
000161: 20,2543           12517                           TCF      MASSFIX
000162:
000163:                                                                                                  #  COMPUTATION OF FUNCTIONS OF MASS
000164:
000165: 20,2544           00003        F(MASS)            RELINT
000166: 20,2545           10157                           CCS      DOCKTEMP
000167: 20,2546           13111                           TCF      DOCKED                                #  DOCKED:  USE SEPARATE COMPUTATION.
000168: 20,2547           34752                           CA       TWO
000169: 20,2550           54155        STCTR              TS       MPAC       +1                         #  J=2,1,0 FOR 1JACCR,1JACCQ,1JACC
000170:
000171: 20,2551           44752                           CS       TWO
000172: 20,2552           26154                           ADS      MPAC                                  #  JX=10,8,6 OR 4,2,0 TO INDEX COEFS.
000173:


000175: 20,2553           31326        STCTR1             CAE      LEMMASS
000176: 20,2554           50154                           INDEX    MPAC
000177: 20,2555           63064                           AD       INERCONC
000178: 20,2556           54156                           TS       MPAC       +2                         #  MASS + C
000179: 20,2557           00006                           EXTEND
000180: 20,2560           50154                           INDEX    MPAC
000181: 20,2561           33046                           DCA      INERCONA
000182: 20,2562           00006                           EXTEND
000183: 20,2563           10156                           DV       MPAC       +2
000184: 20,2564           50154                           INDEX    MPAC
000185: 20,2565           63063                           AD       INERCONB
000186: 20,2566           50155                           INDEX    MPAC       +1                         #  1JACC(J)=A(JX)/(MASS+C(JX) + B(JX)
000187: 20,2567           55530                           TS       1JACC                                 #  1JACC(-1)=L,PVT-CG  SCALED AT 8 FEET
000188:
000189: 20,2570           10155                           CCS      MPAC       +1
000190: 20,2571           12550                           TCF      STCTR
000191: 20,2572           12574                           TCF      COMMEQS
000192: 20,2573           12673                           TCF      LRESC
000193:
000194:                                                                                                  #  COEFFQ AND COEFFR ARE COMPUTED IN THIS SECTION.  THEY ARE USED TO RESOLVE Q-R COMPONENTS INTO NON-ORTHOGONAL
000195:                                                                                                  #  U AND V COMPONENTS (SEE ROT-TOUV SECTION).
000196:
000197: 20,2574           22007        COMMEQS            ZL
000198: 20,2575           41532                           CS       1JACCR
000199: 20,2576           61531                           AD       1JACCQ
000200: 20,2577           00006                           EXTEND
000201: 20,2600           62624                           BZMF     BIGIQ
000202: 20,2601           00006                           EXTEND                                         #  EPSILON IS A MEASURE OF COUPLING AND IS
000203: 20,2602           11531                           DV       1JACCQ                                #  DEFINED=1-IQ/IR FOR IR GREATER THAN IQ.
000204: 20,2603           54155                           TS       EPSILON                               #  THE COMPUTED EXPRESSION IS EQUIVALENT
000205: 20,2604           63110                           AD       -EPSMAX
000206: 20,2605           00006                           EXTEND
000207: 20,2606           62611                           BZMF     GOODEPS1
000208: 20,2607           43110                           CS       -EPSMAX
000209: 20,2610           54155                           TS       EPSILON                               #  EPSILON IS LIMITED TO A MAX. OF .42265
000210: 20,2611           30155        GOODEPS1           CA       EPSILON
000211: 20,2612           00006                           EXTEND
000212: 20,2613           73104                           MP       0.35356
000213: 20,2614           63106                           AD       .7071
000214: 20,2615           55627                           TS       COEFFR                                #  IN THIS CASE WHERE IR IS GREATER THAN
000215: 20,2616           44733                           CS       POSMAX                                #  IQ, COEFFQ=-.707(1+.5EPSILON)(1-EPSILON)
000216: 20,2617           60155                           AD       EPSILON                               #  AND COEFFR=.707(1+.5EPSILON)
000217: 20,2620           00006                           EXTEND
000218: 20,2621           71627                           MP       COEFFR
000219: 20,2622           55626                           TS       COEFFQ
000220: 20,2623           12647                           TCF      JACCUV
000221: 20,2624           00006        BIGIQ              EXTEND                                         #  EPSILON IS DEFINED AS 1-IR/IQ FOR IQ
000222: 20,2625           11532                           DV       1JACCR                                #  GREATER THAN IR.  -EPSILON IS COMPUTED
000223: 20,2626           54155                           TS       -EPSILON                              #  RATHER THAN EPSILON FOR CONVENIENCE
000224: 20,2627           40155                           CS       -EPSILON


000226: 20,2630           63110                           AD       -EPSMAX
000227: 20,2631           00006                           EXTEND
000228: 20,2632           62635                           BZMF     GOODEPS2
000229: 20,2633           33110                           CA       -EPSMAX
000230: 20,2634           54155                           TS       -EPSILON                              #  EPSILON IS LIMITED TO A MAX. OF .42265
000231: 20,2635           30155        GOODEPS2           CA       -EPSILON
000232: 20,2636           00006                           EXTEND
000233: 20,2637           73104                           MP       0.35356
000234: 20,2640           63107                           AD       -.7071
000235: 20,2641           55626                           TS       COEFFQ                                #  IN THIS CASE WHERE IQ IS GREATER THAN
000236: 20,2642           40155                           CS       -EPSILON                              #  IR, COEFFQ=-.707(1+.5EPSILON) AND
000237: 20,2643           64735                           AD       NEGMAX                                #  COEFFR=.707(1+.5EPSILON)(1-EPSILON)
000238: 20,2644           00006                           EXTEND
000239: 20,2645           71626                           MP       COEFFQ
000240: 20,2646           55627                           TS       COEFFR
000241: 20,2647           41626        JACCUV             CS       COEFFQ
000242: 20,2650           00006                           EXTEND
000243: 20,2651           71531                           MP       1JACCQ                                #  1JACCQ IS SCALED AT PI/4
000244: 20,2652           55533                           TS       1JACCU                                #  1JACCU USED AS TEMPORARY STORAGE
000245: 20,2653           31627                           CA       COEFFR
000246: 20,2654           00006                           EXTEND
000247: 20,2655           71532                           MP       1JACCR
000248: 20,2656           61533                           AD       1JACCU
000249: 20,2657           00006                           EXTEND
000250: 20,2660           74736                           MP       BIT14                                 #  SCALING CHANGED FROM PI/4 TO PI/2
000251: 20,2661           55533                           TS       1JACCU                                #  SCALED AT PI/2 RADIANS/SEC(2)
000252: 20,2662           10154                           CCS      MPAC                                  #  COMPUTE L,PVT-CG IF IN DESCENT
000253: 20,2663           34755                           CAF      ZERO                                  #  ZERO SWITCHES AND GO TO 1/ACCONT IN
000254: 20,2664           55502                           TS       ALLOWGTS                              #        ASCENT
000255: 20,2665           13234                           TCF      1/ACCONT   -1
000256:
000257: 20,2666           44752                           CS       TWO
000258: 20,2667           54154                           TS       MPAC
000259: 20,2670           44753                           CS       ONE
000260: 20,2671           54155                           TS       MPAC       +1
000261: 20,2672           12553                           TCF      STCTR1
000262:
000263:                                                                                                  #  THIS SECTION COMPUTES THE RATE OF CHANGE OF ACCELERATION DUE TO THE ROTATION OF THE GIMBALS.  THE EQUATION
000264:                                                                                                  #  IMPLEMENTED IN BOTH THE Y-X PLANE AND THE Z-X PLANE IS -- D(ALPHA)/DT = TL/I*D(DELTA)/DT, WEHRE
000265:                                                                                                  #        T = ENGINE THRUST FORCE
000266:                                                                                                  #        L = PIVIT TO CT DISTANCE OF ENGINE
000267:                                                                                                  #        I = MOMENT OF INERTIA
000268:
000269: 20,2673           31245        LRESC              CAE      ABDELV                                #  SCALED AT 2(13) CM/SEC(2)
000270: 20,2674           00006                           EXTEND
000271: 20,2675           71243                           MP       MASS                                  #  SCALED AT B+16 KGS
000272: 20,2676           03002                           TC       DVOVSUB                               #  GET QUOTIENT WITH OVERFLOW PROTECTION
000273: 20,2677           03105                           ADRES    GFACTM
000274:
000275:                                                                                                  #  MASS IS DIVIDED BY ACCELERATION OF GRAVITY IN ORDER TO MATCH THE UNITS OF IXX,IYY,IZZ, WHICH ARE SLUG-FT(2).
000276:                                                                                                  #  THE RATIO OF ACCELERATION FROM PIPAS TO ACCELERATION OF GRAVITY IS THE SAME IN METRIC OR ENGINEERING UNITS, SO


000278:                                                                                                  #  THAT IS UNCONVERTED.  2.20462 CONVERTS KG. TO LB.  NOW T IN IN A SCALED AT 2(14).
000279:
000280: 20,2700           00006                           EXTEND
000281: 20,2701           71527                           MP       L,PVT-CG                              #  SCALED AT 8 FEET.
000282: 20,2702           00004                           INHINT
000283: 20,2703           54154                           TS       MPAC
000284: 20,2704           00006                           EXTEND
000285: 20,2705           71532                           MP       1JACCR
000286: 20,2706           03002                           TC       DVOVSUB                               #  GET QUOTIENT WITH OVERFLOW PROTECTION
000287: 20,2707           02000                           ADRES    TORKJET1
000288:
000289: 20,2710           55511                           TS       ACCDOTR                               #  SCALED AT PI/2(7)
000290: 20,2711           30154                           CA       MPAC
000291: 20,2712           00006                           EXTEND
000292: 20,2713           71531                           MP       1JACCQ
000293: 20,2714           03002                           TC       DVOVSUB                               #  GET QUOTIENT WITH OVERFLOW PROTECTION
000294: 20,2715           02000                           ADRES    TORKJET1
000295:
000296: 20,2716           55507        SPSCONT            TS       ACCDOTQ                               #  SCALED AT PI/2(7)
000297: 20,2717           00006                           EXTEND
000298: 20,2720           73103                           MP       DGBF                                  #  .3ACCDOTQ SCALED AT PI/2(8)
000299: 20,2721           55504                           TS       KQ
000300: 20,2722           31511                           CAE      ACCDOTR                               #  .3ACCDOTR AT PI/2(8)
000301: 20,2723           00006                           EXTEND
000302: 20,2724           73103                           MP       DGBF
000303: 20,2725           55506                           TS       KRDAP
000304: 20,2726           00006                           EXTEND                                         #  NOW COMPUTE QACCDOT, RACCDOT, THE SIGNED
000305: 20,2727           00012                           READ     CHAN12                                #  JERK TERMS.  STORE CHANNEL 12. WITH GIMBAL
000306: 20,2730           54155                           TS       MPAC       +1                         #  DRIVE BITS 9 THROUGH 12 SET LOOP
000307: 20,2731           34752                           CAF      BIT2                                  #  INDEX TO COMPUTE RACCDOT, THEN QACCDOT.
000308: 20,2732           12734                           TCF      LOOP3
000309: 20,2733           34755                           CAF      ZERO                                  #  ACCDOTQ AND ACCDOTR ARE NOT NEGATIVE,
000310: 20,2734           54154        LOOP3              TS       MPAC                                  #  BECAUSE THEY ARE MAGNITUDES
000311: 20,2735           30155                           CA       MPAC       +1
000312: 20,2736           50154                           INDEX    MPAC                                  #  MASK CHANNEL IMAGE FOR ANY GIMBAL MOTION
000313: 20,2737           73077                           MASK     GIMBLBTS
000314: 20,2740           00006                           EXTEND
000315: 20,2741           12755                           BZF      ZACCDOT                               #  IF NONE, Q(R)ACCDOT IS ZERO.
000316: 20,2742           30155                           CA       MPAC       +1
000317: 20,2743           50154                           INDEX    MPAC                                  #  GIMBAL IS MOVING.  IS ROTATION POSITIVE.
000318: 20,2744           73100                           MASK     GIMBLBTS   +1
000319: 20,2745           00006                           EXTEND
000320: 20,2746           12752                           BZF      FRSTZERO                              #  IF NOT POSITIVE, BRANCH
000321: 20,2747           50154                           INDEX    MPAC                                  #  POSITIVE ROTATION, NEGATIVE Q(R)ACCDOT.
000322: 20,2750           41507                           CS       ACCDOTQ
000323: 20,2751           12756                           TCF      STACCDOT
000324: 20,2752           50154        FRSTZERO           INDEX    MPAC                                  #  NEGATIVE ROTATION, POSITIVE Q(R)ACCDOT.
000325: 20,2753           31507                           CA       ACCDOTQ
000326: 20,2754           12756                           TCF      STACCDOT
000327: 20,2755           34755        ZACCDOT            CAF      ZERO


000329: 20,2756           50154        STACCDOT           INDEX    MPAC
000330: 20,2757           55510                           TS       QACCDOT                               #  STORE Q(R)ACCDOT.
000331: 20,2760           10154                           CCS      MPAC
000332: 20,2761           12733                           TCF      LOOP3      -1                         #  NOW DO QACCDOT.
000333: 20,2762           40111                           CS       DAPBOOLS                              #  IS GIMBAL USABLE?
000334: 20,2763           74736                           MASK     USEQRJTS
000335: 20,2764           00006                           EXTEND
000336: 20,2765           13712                           BZF      DOWNGTS                               #  NO. BE SURE THE GIMBAL SWITCHES ARE DOWN
000337: 20,2766           41263                           CS       T5ADR                                 #  YES.  IS THE DAP RUNNINT?
000338: 20,2767           63772                           AD       PAXISADR
000339: 20,2770           00006                           EXTEND
000340: 20,2771           12773                           BZF      +2
000341: 20,2772           13712                           TCF      DOWNGTS                               #  NO. BE SURE THE GIMBAL SWITCHES ARE DOWN
000342: 20,2773           11632                           CCS      INGTS                                 #  YES.  IS GTS IN CONTROL?
000343: 20,2774           12777                           TCF      DOCKTEST                              #  YES.  PROCEED WITH 1/ACCS.
000344: 20,2775           04674                           TC       IBNKCALL                              #  NO. NULL OFFSET AND FIND ALLOWGTS
000345: 20,2776           43327                           CADR     TIMEGMBL
000346:
000347: 20,2777           10157        DOCKTEST           CCS      DOCKTEMP                              #  BYPASS 1/ACCONT WHEN DOCKED.
000348: 20,3000           13675                           TCF      1/ACCRET
000349: 20,3001           13235                           TCF      1/ACCONT
000350:


000352:                                                                                                  #  SUBROUTINE:   DVOVSUB
000353:                                                                                                  #  AUTHOR:       C. WORK, MOD 0, 12 JUNE 68
000354:                                                                                                  #  PURPOSE:      THIS SUBROUTINE PROVIDES A SINGLE-PRECISION MACHINE LANGUAGE DIVISION OPERATION WHICH RETURNS
000355:                                                                                                  #                (1) THE QUOTIENT, IF THE DIVISION WAS NORMAL.
000356:                                                                                                  #                (2) NEGMAX, IF THE QUOTIENT WAS IMPROPER AND NEGATIVE.
000357:                                                                                                  #                (3) POSMAX, IF THE QUOTIENT WAS IMPROPER AND POSITIVE OR IF THERE WAS A ZERO DIVISOR.
000358:                                                                                                  #                THE CALLING PROGRAM IS PRESUMED TO BE A JOB IN THE F BANK WHICH CONTAINS DVOVSUB.  E BANK MUST BE 6.
000359:                                                                                                  #                THE DIVISOR FOR THIS ROUTINE MAY BE IN EITHER FIXED OR ERASABLE STORAGE.  SIGN AGREEMENT IS
000360:                                                                                                  #                ASSUMED BETWEEN THE TWO HALVES OF THE DIVIDEND.  (THIS IS CERTAIN IF THE A AND L REGISTERS ARE THE
000361:                                                                                                  #                RESULT OF A MULTIPLICATION OPERATION.)
000362:                                                                                                  #  CALL SEQUENCE:        L       TC      DVOVSUB
000363:                                                                                                  #                        L +1    ADRES   (DIVISOR)
000364:                                                                                                  #                        L +2    RETURN HERE, WITH RESULT IN A,L
000365:                                                                                                  #  INPUT:        DIVIDEND IN A,L (SIGN AGREEMENT ASSUMED), DIVISOR IN LOCATION DESIGNATED BY "ADRES".
000366:                                                                                                  #                DIVISOR MAY BE IN THE DVOVSUB FBANK,FIXED-FIXED FBANK,EBANK 6, OR UNSWITCHED ERASABLE.
000367:                                                                                                  #  OUTPUT:       QUOTIENT AND REMAINDER, OR POSMAX (NEGMAX), WHICHEVER IS APPROPRIATE.
000368:                                                                                                  #  DEBRIS:       SCRATCHX,SCRATCHY,SCRATCHZ,A,L  (NOTE: SCRATX,Y,Z ARE EQUATED TO MPAC +4,+5, AND +6.)
000369:                                                                                                  #  ABORTS OR ALARMS:  NONE
000370:                                                                                                  #  EXITS:        TO THE CALL POINT +2.
000371:                                                                                                  #  SUBROUTINES CALLED:  NONE.
000372:
000373: 20,3002           54161        DVOVSUB            TS       SCRATCHY                              #  SAVE UPPER HALF OF DIVIDEND
000374: 20,3003           54160                           TS       SCRATCHX
000375: 20,3004           50002                           INDEX    Q                                     #  OBTAIN ADDRESS OF DIVISOR.
000376: 20,3005           30000                           CA       0
000377: 20,3006           24002                           INCR     Q                                     #  STEP Q FOR PROPER RETURN SEQUENCE.
000378: 20,3007           50000                           INDEX    A
000379: 20,3010           30000                           CA       0                                     #  PICK UP THE DIVISOR.
000380: 20,3011           00006                           EXTEND                                         #  RETURN POSMAX FOR A ZERO DIVISOR.
000381: 20,3012           13041                           BZF      MAXPLUS
000382:
000383: 20,3013           54162                           TS       SCRATCHZ                              #  STORE DIVISOR.
000384:
000385: 20,3014           10000                           CCS      A                                     #  GET ABS(DIVISOR) IN THE A REGISTER.
000386: 20,3015           64753                           AD       BIT1
000387: 20,3016           13020                           TCF      ZEROPLUS
000388: 20,3017           64753                           AD       BIT1
000389:
000390: 20,3020           56161        ZEROPLUS           XCH      SCRATCHY                              #  STORE ABS(DIVISOR).  PICK UP TOP HALF OF
000391: 20,3021           00006                           EXTEND                                         #  DIVIDENT.
000392: 20,3022           63024                           BZMF     GOODNEG                               #  GET -ABS(DIVIDEND)


000394: 20,3023           40000                           CS       A
000395:
000396: 20,3024           60161        GOODNEG            AD       SCRATCHY                              #  ABS(DIVISOR) - ABS(DIVIDEND)
000397: 20,3025           00006                           EXTEND
000398: 20,3026           63033                           BZMF     MAKEMAX                               #  BRANCH IF DIVISION IS NOT PROPER.
000399:
000400: 20,3027           30160                           CA       SCRATCHX                              #  RE-ESTABLISH THE DIVIDEND
000401: 20,3030           00006                           EXTEND
000402: 20,3031           10162                           DV       SCRATCHZ                              #  QUOTIENT IN THE A, REMAINDER IN L.
000403: 20,3032           00002                           TC       Q                                     #  RETURN TO CALLER.
000404:
000405: 20,3033           10160        MAKEMAX            CCS      SCRATCHX                              #  DETERMINE THE SIGN OF THE QUOTIENT.
000406: 20,3034           10162                           CCS      SCRATCHZ                              #  SCRATCHX AND SCRATCHZ ARE NON-ZERO.
000407: 20,3035           13041                           TCF      MAXPLUS
000408: 20,3036           10162                           CCS      SCRATCHZ
000409: 20,3037           34735                           CAF      NEGMAX                                #  +,- OR -,+
000410: 20,3040           00002                           TC       Q
000411: 20,3041           34733        MAXPLUS            CAF      POSMAX                                #  -,- OR +,+
000412: 20,3042           00002                           TC       Q
000413:
000414:                                                                                                  #  COEFFICIENTS FOR THE JET ACCELERATION CURVE FITS
000415:                                                                                                  #  THE CURVE FITS ARE OF THE FORM --
000416:                                                                                                  #        1JACC = A/(MASS + C) + B
000417:                                                                                                  #  A IS SCALED AT PI/4 RAD/SEC**2 B+16KG, B IS SCALED AT PI/4 RAD/SEC**2, AND C IS SCALED AT B +16 KG.
000418:
000419:                                                                                                  #  THE CURVE FIT FOR L,PVT-CG IS OF THE SAME FORM, EXCEPT THAT A IS SCALED AT 8 FT B+16 KG, B IS SCALED AT 8 FT,
000420:                                                                                                  #  AND C IS SCALED AT B+16 KG.
000421:
000422: 20,3043           01240 22513                     2DEC     +.0410511917                            #  L             A               DESCENT
000423: 20,3045           00141 07416  INERCONA           2DEC     +.0059347674                            #  1JACCP        A               DESCENT
000424: 20,3047           00030 21261                     2DEC     +.0014979264                            #  1JACCQ        A               DESCENT
000425: 20,3051           00021 03766                     2DEC     +.0010451889                            #  1JACCR        A               DESCENT
000426: 20,3053           00153 07111                     2DEC     +.0065443852                            #  1JACCP        A               ASCENT
000427: 20,3055           00072 24103                     2DEC     +.0035784354                            #  1JACCQ        A               ASCENT
000428: 20,3057           00135 11511                     2DEC     +.0056946631                            #  1JACCR        A               ASCENT
000429: 20,3061           04754                           DEC      +.155044                              #  L             B               DESCENT
000430: 20,3062           77142                           DEC      -.025233                              #  L             C               DESCENT


000432: 20,3063           00061        INERCONB           DEC      +.002989                              #  1JACCP        B               DESCENT
000433: 20,3064           00217        INERCONC           DEC      +.008721                              #  1JACCP        C               DESCENT
000434: 20,3065           00464                           DEC      +.018791                              #  1JACCQ        B               DESCENT
000435: 20,3066           75642                           DEC      -.068163                              #  1JACCQ        C               DESCENT
000436: 20,3067           00536                           DEC      +.021345                              #  1JACCR        B               DESCENT
000437: 20,3070           75705                           DEC      -.066027                              #  1JACCR        C               DESCENT
000438:
000439: 20,3071           00001                           DEC      +.000032                              #  1JACCP        B               ASCENT
000440: 20,3072           77616                           DEC      -.006923                              #  1JACCP        C               ASCENT
000441: 20,3073           05154                           DEC      +.162862                              #  1JACCQ        B               ASCENT
000442: 20,3074           00052                           DEC      +.002588                              #  1JACCQ        C               ASCENT
000443: 20,3075           00231                           DEC      +.009312                              #  1JACCR        B               ASCENT
000444: 20,3076           77174                           DEC      -.023608                              #  1JACCR        C               ASCENT
000445:
000446: 20,3077           01400        GIMBLBTS           OCTAL    01400
000447: 20,3100           01000                           OCTAL    01000
000448: 20,3101           06000                           OCTAL    06000
000449: 20,3102           04000                           OCTAL    04000
000450: 20,3103           23146        DGBF               DEC      0.6                                   #  .3 SCALED AT 1/2
000451: 20,3104           13241        0.35356            DEC      0.35356                               #  .70711 SCALED AT 2
000452: 20,3105           00337        GFACTM             OCT      337                                   #  979.24/2.20462 AT B+15
000453: 20,3106           26501        .7071              DEC      .70711
000454: 20,3107           51276        -.7071             DEC      -.70711
000455: 20,3110           62362        -EPSMAX            DEC      -.42265
000456:
000457:                                                                                                  #  CSM-DOCKED INERTIA COMPUTATIONS
000458:
000459: 20,3111           34753        DOCKED             CA       ONE                                   #  COEFTR = 1 FOR INERTIA COEFFICIENTS
000460: 20,3112           54160        SPSLOOP1           TS       COEFCTR                               #         = 7 FOR CG COEFFICIENTS
000461: 20,3113           34753                           CA       ONE                                   #  MASSCTR = 1 FOR CSM
000462: 20,3114           54161                           TS       MASSCTR                               #          = 0 FOR LEM
000463:
000464: 20,3115           50160                           INDEX    COEFCTR
000465: 20,3116           33216                           CA       COEFF      -1                         #  COEFF -1 = C
000466: 20,3117           00006                           EXTEND
000467: 20,3120           71326                           MP       LEMMASS
000468: 20,3121           00006                           EXTEND
000469: 20,3122           71327                           MP       CSMMASS                               #  LET X = CSMMASS AND Y = LEMMASS
000470:
000471: 20,3123           50160                           INDEX    COEFCTR
000472: 20,3124           63217                           AD       COEFF                                 #  COEFF = F
000473: 20,3125           54154                           TS       MPAC                                  #  MPAC = C X Y + F
000474: 20,3126           13132                           TCF      +4
000475:
000476: 20,3127           54161        SPSLOOP2           TS       MASSCTR                               #  LOOP TWICE THROUGH HERE TO OBTAIN
000477: 20,3130           00006                           EXTEND                                         #  MPAC = MPAC + (A X +D)X + (B Y +E)Y
000478: 20,3131           26160                           DIM      COEFCTR                               #                 LOOP #1     LOOP #2
000479: 20,3132           50160                           INDEX    COEFCTR
000480: 20,3133           33221                           CA       COEFF      +2                         #  COEFF +2 = A OR B
000481: 20,3134           00006                           EXTEND


000483: 20,3135           50161                           INDEX    MASSCTR
000484: 20,3136           71326                           MP       LEMMASS
000485: 20,3137           50160                           INDEX    COEFCTR
000486: 20,3140           63223                           AD       COEFF      +4                         #  COEFF +4 = E OR D
000487: 20,3141           00006                           EXTEND
000488: 20,3142           50161                           INDEX    MASSCTR
000489: 20,3143           71326                           MP       LEMMASS
000490: 20,3144           26154                           ADS      MPAC
000491:
000492: 20,3145           10161                           CCS      MASSCTR
000493: 20,3146           13127                           TCF      SPSLOOP2
000494: 20,3147           10160                           CCS      COEFCTR                               #  IF COEFCTR IS POS, EXIT FROM LOOP WITH
000495: 20,3150           13157                           TCF      +7                                    #  CG X DELDOT = MPAC X 4 PI RAD-CM/SEC
000496: 20,3151           00000 20354  TORQCONS           2DEC     0.51443    B-14                       #  CORRESPONDS TO 500 LB-FT
000497:
000498: 20,3153           30154                           CA       MPAC
000499: 20,3154           54155                           TS       MPAC       +1                         #  INERTIA = (MPAC +1) X 2(38) KG-CM(2)
000500: 20,3155           34757                           CA       SEVEN
000501: 20,3156           13112                           TCF      SPSLOOP1
000502:
000503: 20,3157           33216                           CA       1JACCCON                              #  1JACC=1JACCCON/MASS
000504: 20,3160           22007                           ZL
000505: 20,3161           03002                           TC       DVOVSUB
000506: 20,3162           01243                           ADRES    MASS
000507: 20,3163           55530                           TS       1JACC                                 #  SCALED AT PI/4
000508:
000509: 20,3164           34733                           CA       POSMAX                                #  SET INVERSE JET ACCELERATIONS TO POSMAX,
000510: 20,3165           55550                           TS       1/ANETP                               #  WHICH CORRESPONDS TO ACCEL. OF 1.4 D/SS.
000511: 20,3166           55570                           TS       1/ANET2    +1
000512: 20,3167           55571                           TS       1/ANET2    +2
000513: 20,3170           55610                           TS       1/ANET2    +17D
000514: 20,3171           55611                           TS       1/ANET2    +18D
000515: 20,3172           00006                           EXTEND
000516: 20,3173           33152                           DCA      TORQCONS
000517: 20,3174           00006                           EXTEND
000518: 20,3175           10155                           DV       MPAC       +1
000519: 20,3176           00004                           INHINT
000520: 20,3177           55531                           TS       1JACCQ                                #  SCALED AT PI/4
000521: 20,3200           55532                           TS       1JACCR
000522:
000523: 20,3201           33107                           CA       -.7071
000524: 20,3202           55626                           TS       COEFFQ                                #  COEFFQ AND COEFFR ARE CHOSEN TO MAKE U-
000525: 20,3203           33106                           CA       .7071                                 #  AND V-AXES ORTHOGONAL FOR DOCKED CASE
000526: 20,3204           55627                           TS       COEFFR
000527: 20,3205           31243                           CA       MASS                                  #  SCALED AT 2(16) KG
000528: 20,3206           00006                           EXTEND
000529: 20,3207           70154                           MP       MPAC                                  #  SCALED AT 4 PI RAD-CM/SEC
000530: 20,3210           00006                           EXTEND
000531: 20,3211           71245                           MP       ABDELV                                #  SCALED AT 2(13) CM/SEC(2)
000532: 20,3212           03002                           TC       DVOVSUB                               #  GET QUOTIENT WITH OVERFLOW PROTECTION


000534: 20,3213           00155                           ADRES    MPAC       +1
000535:
000536: 20,3214           55511                           TS       ACCDOTR
000537: 20,3215           12716                           TCF      SPSCONT                               #  CONTINUE K, KSQ CALCULATIONS
000538:
000539: 20,3216           00167        1JACCCON           OCT      00167                                 #  SCALED AT PI/4X2(16) RAD/SEC(2)-KG
000540:
000541:                                                                                                  #                                                2     2
000542:                                                                                                  #  COEFFICIENTS FOR CURVE FIT OF THE FORM Z = A X  +B Y  +C X Y +D X +E Y +F
000543:
000544: 20,3217           06176        COEFF              DEC      .19518                                #  C  COEFFICIENT OF INERTIA
000545: 20,3220           77650                           DEC      -.00529                               #  F             "
000546: 20,3221           72260                           DEC      -.17670                               #  B             "
000547: 20,3222           76637                           DEC      -.03709                               #  A             "
000548: 20,3223           02167                           DEC      .06974                                #  E             "
000549: 20,3224           00645                           DEC      .02569                                #  D             "
000550:
000551: 20,3225           06335                           DEC      .20096                                #  C  COEFFICIENT OF CG
000552: 20,3226           04256                           DEC      .13564                                #  F          "
000553: 20,3227           30163                           DEC      .75704                                #  B          "
000554: 20,3230           64072                           DEC      -.37142                               #  A          "
000555: 20,3231           53632                           DEC      -.63117                               #  E          "
000556: 20,3232           15133                           DEC      .41179                                #  D          "
000557:
000558:                                                                                                  #  ASSIGNMENT OF TEMPORARIES FOR 1/ACCS (EXCLUDING 1/ACCONT)
000559:                                                                                                  #  MPAC, MPAC +1, MPAC +2  USED EXPLICITLY
000560: 20,3233     0160               COEFCTR            EQUALS   MPAC       +4
000561: 20,3233     0161               MASSCTR            EQUALS   MPAC       +5
000562: 20,3233     0160               SCRATCHX           EQUALS   MPAC       +4                         #  SCRATCH AREA FOR DVOVSUB ROUTINE.
000563: 20,3233     0161               SCRATCHY           EQUALS   SCRATCHX   +1
000564: 20,3233     0162               SCRATCHZ           EQUALS   SCRATCHX   +2
000565: 20,3233     0157               DOCKTEMP           EQUALS   MPAC       +3                         #  RECORD OF CSMDOCKED BIT OF DAPBOOLS
000566: 20,3233     0155               EPSILON            EQUALS   MPAC       +1
000567: 20,3233     0155               -EPSILON           EQUALS   EPSILON
000568: 20,3233           71777        -.1875             DEC      -.18750
000569:


000571: 20,3234                                           BANK     20
000572: 20,2000                                           SETLOC   DAPS3
000573: 20,2000                                           BANK
000574:
000575: 20,3234  E6,1536                                  EBANK=   AOSQ
000576:
000577: 20,3234                                           COUNT*   $$/DAPAO
000578:
000579: 20,3234           55632                 -1        TS       INGTS                                 #  ZERO INGTS IN ASCENT
000580: 20,3235           31343        1/ACCONT           CA       DB                                    #  INITIALIZE DBVAL1,2,3
000581: 20,3236           00006                           EXTEND
000582: 20,3237           74737                           MP       BIT13
000583: 20,3240           54001                           TS       L                                     #  0.25 DB
000584: 20,3241           60000                           AD       A
000585: 20,3242           54115                           TS       DBVAL3                                #  0.50 DB
000586: 20,3243           41343                           CS       DBVAL1
000587: 20,3244           60001                           AD       L
000588: 20,3245           54114                           TS       DBVAL2                                #  -.75 DB
000589:
000590: 20,3246           00004        GETAOSUV           INHINT
000591: 20,3247           31540                           CAE      AOSR                                  #  COMPUTE ASOU AND AOSV BY ROTATING
000592: 20,3250           54001                           TS       L                                     #        AOSQ AND AOSR.
000593: 20,3251           31536                           CAE      AOSQ
000594: 20,3252           04674                           TC       IBNKCALL
000595: 20,3253           37200                           CADR     ROT-TOUV
000596: 20,3254           53543                           DXCH     AOSU
000597:
000598: 20,3255           00003                           RELINT
000599: 20,3256           30111                           CA       DAPBOOLS
000600: 20,3257           74744                           MASK     DRIFTBIT                              #  ZERO DURING ULLAGE AND POWERED FLIGHT.
000601: 20,3260           10000                           CCS      A                                     #  IF DRIFTING LIGHT,
000602: 20,3261           34753                           CA       ONE                                   #        SET DRIFTER TO 1
000603: 20,3262           54116                           TS       DRIFTER                               #  SAVE TO TEST FOR DRIFTING FLIGHT LATER
000604: 20,3263           61502                           AD       ALLOWGTS                              #  NON-ZERO IF DRIFT OR GTS NEAR
000605: 20,3264           10000                           CCS      A
000606: 20,3265           33767                           CA       FLATVAL                               #  DRIFTING FLIGHT, STORE .8 INFLAT
000607: 20,3266           54151                           TS       FLATEMP                               #  IN POWERED FLIGHT, STORE ZERO IN FLAT
000608: 20,3267           00006                           EXTEND
000609: 20,3270           13274                           BZF      DOPAXIS                               #  IF POWERED AND NO GTS, START P AXIS,
000610: 20,3271           10116                           CCS      DRIFTER                               #  OTHERWISE SET ZONE3LIM
000611: 20,3272           33766                           CA       ZONE3MAX                              #  17.5 MS, SCALED AT 4 SECONDS.
000612: 20,3273           54152                           TS       Z3TEM
000613:
000614: 20,3274           31530        DOPAXIS            CA       1JACC                                 #  1JACC AT PI/4 = 2JACC AT PI/2 =
000615:                                                                                                  #  ANET AT PI/2 = ANET/ACOAST AT 2(6).
000616: 20,3275           64743                           AD       BIT9                                  #  1 + ANET/ACOAST AT 2(6)
000617: 20,3276           54157                           TS       FUNTEM
000618:
000619: 20,3277           31530                           CA       1JACC


000621: 20,3300           03704                           TC       INVERT
000622: 20,3301           00004                           INHINT                                         #  P AXIS DATA MUST BE CONSISTENT
000623: 20,3302           55550                           TS       1/ANETP
000624: 20,3303           55551                           TS       1/ANETP    +1
000625:
000626: 20,3304           44743                           CS       BIT9                                  #  -1 AT 2(6)
000627: 20,3305           00006                           EXTEND
000628: 20,3306           71550                           MP       1/ANETP                               #  -1/ANET AT 2(13)/PI
000629: 20,3307           00006                           EXTEND
000630: 20,3310           10157                           DV       FUNTEM                                #  -1/(ANET + ANET**2/ACOAST) AT 2(7)/PI
000631: 20,3311           55556                           TS       PACCFUN
000632: 20,3312           55557                           TS       PACCFUN    +1
000633:
000634: 20,3313           34733                           CA       1/.03                                 #  NO AOS FOR P AXIS, ACOAST = AMIN
000635: 20,3314           55552                           TS       1/ACOSTP
000636: 20,3315           55553                           TS       1/ACOSTP   +1
000637: 20,3316           00003                           RELINT
000638:
000639: 20,3317           22007                           ZL
000640: 20,3320           10116                           CCS      DRIFTER
000641: 20,3321           53543                           DXCH     AOSU                                  #  ZERO AOSU,V IF IN DRIFT, JUST BE BE SURE
000642:
000643: 20,3322           34755        UAXIS              CA       ZERO                                  #  DO U AXIS COMPUTATIONS
000644: 20,3323           54154                           TS       UV                                    #  ZERO FOR U AXIS, ONE FOR V AXIS.
000645:
000646: 20,3324           54163        BOTHAXES           TS       SIGNAOS                               #  CODING COMMON TO U,V AXES
000647: 20,3325           50154                           INDEX    UV
000648: 20,3326           11542                           CCS      AOSU                                  #  PICK UP ABS(AOSU OR AOSV)
000649: 20,3327           64753                           AD       ONE                                   #  RESTORE TO PROPER VALUE
000650: 20,3330           13333                           TCF      +3                                    #  AND LEAVE SIGNACS AT ZERO
000651: 20,3331           64753                           AD       ONE                                   #  NEGATIVE, RESTORE TO PROPER VALUE
000652: 20,3332           24163                           INCR     SIGNAOS                               #  AND SET SIGNAOS TO ONE TO SHOW AOS NEG
000653: 20,3333           54162                           TS       ABSAOS                                #  SAVE ABS(AOS)
000654: 20,3334           40163                           CS       SIGNAOS
000655: 20,3335           54164                           TS       -SIGNAOS                              #  USED AS AN INDEX
000656:
000657: 20,3336           31343                           CA       DBVAL1                                #  SET DB1, DB2 TO DBVAL1 (= DB)
000658: 20,3337           54143                           TS       DBB1
000659: 20,3340           54144                           TS       DBB2
000660:
000661: 20,3341           30162                           CA       ABSAOS                                #  TEST MAGNITUDE OF ABS(AOS)
000662: 20,3342           63770                           AD       -.03R/S2
000663: 20,3343           00006                           EXTEND
000664: 20,3344           63436                           BZMF     NOTMUCH                               #  ABS(AOS) LESS THAN AMIN
000665: 20,3345           10151        BIGAOS             CCS      FLATEMP                               #  AGS(AOS) GREATER THAN AMIN
000666: 20,3346           13376                           TCF      SKIPDB1                               #  I DRIFT OR GTS, DO NOT COMPUTE DB
000667:
000668: 20,3347           31343                           CA       DBVAL1
000669: 20,3350           50164                           INDEX    -SIGNAOS


000671: 20,3351           26144                           ADS      DBB2                                  #  DB2(1) = 2 DB
000672: 20,3352           50163                           INDEX    SIGNAOS
000673: 20,3353           54145                           TS       DBB4                                  #  DB4(3) = 1 DB
000674: 20,3354           33233                           CA       -.1875                                #  -.1875 PI/2 RAD/SEC(2) SCALED AT PI/2
000675: 20,3355           60162                           AD       ABSAOS                                #  ABSAOS IS SCALED AT PI/2
000676: 20,3356           00006                           EXTEND
000677: 20,3357           63362                           BZMF     +3
000678: 20,3360           40115                           CS       DBVAL3                                #  -.5 DB
000679: 20,3361           13371                           TCF      DBONE
000680: 20,3362           40162                           CS       ABSAOS
000681: 20,3363           60000                           DOUBLE
000682: 20,3364           60000                           DOUBLE
000683: 20,3365           64736                           AD       BIT14
000684: 20,3366           60000                           DOUBLE                                         #  1-8 ABSAOS.  (8 IS 16/PI SCALED AT 2/PI)
000685: 20,3367           00006                           EXTEND
000686: 20,3370           71343                           MP       DB
000687: 20,3371           50163        DBONE              INDEX    SIGNAOS                               #  DB1(2)=(1-8 ABSAOS) DB.  IF ABSAOS IS
000688: 20,3372           54143                           TS       DBB1                                  #  GREATER THAN .1875 THEN DB1(2) = -.5 DB
000689: 20,3373           30114                           CA       DBVAL2
000690: 20,3374           50164                           INDEX    -SIGNAOS
000691: 20,3375           54146                           TS       DBB3                                  #  DB3(4) = -.75 DB
000692:
000693: 20,3376           30162        SKIPDB1            CA       ABSAOS                                #  ABS(AOS) GREATER THAN AMIN, SO IT IS
000694: 20,3377           00006                           EXTEND
000695: 20,3400           74740                           MP       BIT12
000696: 20,3401           60162                           AD       ABSAOS                                #  (9/8) ABSAOS.
000697: 20,3402           03704                           TC       INVERT                                #  ALL RIGHT TO DIVIDE
000698: 20,3403           50164                           INDEX    -SIGNAOS
000699: 20,3404           54130                           TS       1/ACOSTT   +1                         #  1/ACOASTPOS(NET) = 1/ABS(AOS)
000700: 20,3405           34733                           CA       1/.03
000701: 20,3406           50163                           INDEX    SIGNAOS
000702: 20,3407           54127                           TS       1/ACOSTT                              #  1/ACOASTNEG(POS) = 1/AIN
000703:
000704: 20,3410           30162                           CA       ABSAOS
000705: 20,3411           61533                           AD       1JACCU
000706: 20,3412           61533                           AD       1JACCU                                #  2 JACC + ABS(AOS)
000707: 20,3413           64743                           AD       BIT9                                  #  MAXIMUM VALUE IN COMPUTATIONS
000708: 20,3414           54000                           TS       A                                     #  TEST FOR OVERFLOW
000709: 20,3415           13462                           TCF      SKIPDB2                               #  NO OVERFLOW, DO NORMAL COMPUTATION
000710:
000711: 20,3416           30162                           CA       ABSAOS                                #  RESCALE TO PI TO PREVENT OVERFLOW
000712: 20,3417           00006                           EXTEND
000713: 20,3420           74736                           MP       BIT14
000714: 20,3421           61533                           AD       1JACCU                                #  1 JACC AT PI/2 = 2JACC AT PI
000715: 20,3422           54157                           TS       ANET                                  #  ANETPOS(NEG) MAX SCALED AT PI =
000716:                                                                                                  #  ANETPOS(NEG) MAX/ACOASTNEG(POS) AT 2(7)
000717: 20,3423           64744                           AD       BIT8                                  #  1 + ANETPOS/ACOASTNEG AT 2(7)
000718: 20,3424           56157                           XCH      ANET                                  #  SAVE IN ANET, WHILE PICKING UP ANET
000719: 20,3425           03704                           TC       INVERT
000720: 20,3426           00006                           EXTEND


000722: 20,3427           74736                           MP       BIT14                                 #  SCALE 1/ANET AT 2(7)/PI
000723: 20,3430           54160                           TS       1/ANET
000724:
000725: 20,3431           33435                           CA       ACCHERE                               #  SET UP RETURN FROM COMPUTATION ROUTINE
000726: 20,3432           54161                           TS       ARET
000727: 20,3433           44744                           CS       BIT8                                  #  -1 AT 2(7)
000728: 20,3434           13737                           TCF      DOACCFUN                              #  FINISH ACCFUN COMPUTATION
000729:
000730: 20,3435           13467        ACCHERE            TCF      ACCTHERE
000731:
000732: 20,3436           54001        NOTMUCH            TS       L                                     #  ABS(AOS) LESS THAN AMIN, SAVE IN L
000733: 20,3437           34733                           CA       1/.03                                 #  ACOASTPOS,NEG = AMIN
000734: 20,3440           54127                           TS       1/ACOSTT
000735: 20,3441           54130                           TS       1/ACOSTT   +1
000736:
000737: 20,3442           10151                           CCS      FLATEMP
000738: 20,3443           13462                           TCF      SKIPDB2                               #  DO NOT COMPUTE DB IF DRIFT OR GTS
000739:
000740: 20,3444           33771                           CA       .023R/S2                              #  .0228 RAD/SEC(2)
000741: 20,3445           60001                           AD       L                                     #  L=ABS(AOS)-AMIN=ABS(AOS)-.0245RAD/SEC(2)
000742: 20,3446           00006                           EXTEND                                         #  RESULT IS ABS(AOS)-.0017 RAD/SEC(2)
000743: 20,3447           63457                           BZMF     NOAOS                                 #  ABS(AOS) LESS THAN .0017 RAD/SEC(2)
000744: 20,3450           30115        SOMEAOS            CA       DBVAL3                                #  .0017 RAD/SEC(2) LT ABS(AOS) LT AMIN
000745: 20,3451           50164                           INDEX    -SIGNAOS
000746: 20,3452           54146                           TS       DBB3                                  #  DB3(4) = DB/2
000747: 20,3453           60000                           AD       A
000748: 20,3454           50163                           INDEX    SIGNAOS
000749: 20,3455           54145                           TS       DBB4                                  #  DB4(3) = DB
000750: 20,3456           13462                           TCF      SKIPDB2
000751:
000752: 20,3457           31343        NOAOS              CA       DBVAL1
000753: 20,3460           54146                           TS       DBB3                                  #  DB3,4 = DB
000754: 20,3461           54145                           TS       DBB4
000755:
000756: 20,3462           30162        SKIPDB2            CA       ABSAOS                                #  ANETPOS(NEG) MAX = 2 JACC + ABS(AOS)
000757: 20,3463           61533                           AD       1JACCU
000758: 20,3464           61533                           AD       1JACCU
000759: 20,3465           54157                           TS       ANET                                  #  CANNOT OVERFLOW HERE
000760: 20,3466           03730        CL1/NET+           TC       DO1/NET+                              #  COMPUTE 1/ANET, ACCFUN
000761:
000762: 20,3467           50164        ACCTHERE           INDEX    -SIGNAOS
000763: 20,3470           54134                           TS       Z5TEM      +2                         #  STORE ACCFUN IN TEMPORARY BUFFER
000764: 20,3471           30160                           CA       1/ANET
000765: 20,3472           50164                           INDEX    -SIGNAOS
000766: 20,3473           54126                           TS       1/ATEM2    +2                         #  STORE 1/ANET IN TEMPORARY BUFFER
000767:
000768: 20,3474           30162                           CA       ABSAOS                                #  SEE IF OVERFLOW IN MIN CASE
000769: 20,3475           61533                           AD       1JACCU
000770: 20,3476           64743                           AD       BIT9                                  #  MAXIMUM POSSIBLE VALUE


000772: 20,3477           54000                           TS       A                                     #  OVERFLOW POSSIBLE BUT REMOTE
000773: 20,3500           13502                           TCF      +2
000774: 20,3501           34733                           CA       POSMAX                                #  IF OVERFLOW, TRUNCATE TO PI/2
000775: 20,3502           63770                           AD       -.03R/S2                              #  RESTORE TO CORRECT VALUE
000776: 20,3503           54157                           TS       ANET
000777: 20,3504           03730                           TC       DO1/NET+                              #  COMPUTE 1/ANET, ACCFUN
000778:
000779: 20,3505           50164                           INDEX    -SIGNAOS                              #  STORE MIN VALUES JUST AS MAX VALUES
000780: 20,3506           54132                           TS       Z5TEM
000781: 20,3507           30160                           CA       1/ANET
000782: 20,3510           50164                           INDEX    -SIGNAOS
000783: 20,3511           54124                           TS       1/ATEM2
000784:
000785: 20,3512           40162                           CS       ABSAOS                                #  NOW DO NEG(POS) CASES
000786: 20,3513           61533                           AD       1JACCU
000787: 20,3514           61533                           AD       1JACCU                                #  ANETNEG(POS) MAX
000788: 20,3515           03716                           TC       1/ANET-                               #  COMPUTE 1/ANET, ACCFUN, AND ACCSW
000789: 20,3516           50163                           INDEX    SIGNAOS                               #  STORE NEG(POS) VALUES JUST AS POS(NEG)
000790: 20,3517           54133                           TS       Z1TEM      +2
000791: 20,3520           54001                           TS       L                                     #  SAVE IN L FOR POSSIBLE FUTURE USE
000792: 20,3521           30160                           CA       1/ANET
000793: 20,3522           50163                           INDEX    SIGNAOS
000794: 20,3523           54125                           TS       1/ATEM1    +2
000795: 20,3524           40162                           CS       ABSAOS
000796: 20,3525           61533                           AD       1JACCU                                #  1/ANETNEG(POS) MIN
000797: 20,3526           54157                           TS       ANET
000798: 20,3527           63770                           AD       -.03R/S2                              #  TEST FOR AMIN
000799: 20,3530           00006                           EXTEND                                         #  IF ANET LESS THAN AMIN, STORE MAX JET
000800: 20,3531           63747                           BZMF     FIXMIN                                #  VALUES FOR MIN JETS AND SET ACCSW
000801:
000802: 20,3532           03724                           TC       1/NETMIN                              #  OTHERWISE DO MIN JET COMPUTATIONS
000803: 20,3533           50163        STMIN-             INDEX    SIGNAOS                               #  STORE VALUES
000804: 20,3534           54131                           TS       Z1TEM
000805: 20,3535           30160                           CA       1/ANET
000806: 20,3536           50163                           INDEX    SIGNAOS
000807: 20,3537           54123                           TS       1/ATEM1
000808:
000809: 20,3540           50154                           INDEX    UV
000810: 20,3541           33775                           CA       +UMASK
000811: 20,3542           71257                           MASK     CH5MASK                               #  TEST FOR +U (+V) JET FAILURES
000812: 20,3543           00006                           EXTEND
000813: 20,3544           13551                           BZF      FAIL-
000814: 20,3545           30124                           CA       1/ATEM2                               #  REPLACE FUNCTION VALUES DEPENDING ON THE
000815: 20,3546           54126                           TS       1/ATEM2    +2                         #  FAILED JET PAIR WITH CORRESPONDING ONE-
000816: 20,3547           30132                           CA       Z5TEM                                 #  JET (OR AMIN) FUNCTION VALUES
000817: 20,3550           54134                           TS       Z5TEM      +2
000818: 20,3551           50154        FAIL-              INDEX    UV
000819: 20,3552           33773                           CA       -UMASK


000821: 20,3553           71257                           MASK     CH5MASK                               #  TEST FOR -U (-V) JET FAILURES
000822: 20,3554           00006                           EXTEND
000823: 20,3555           13562                           BZF      DBFUN
000824: 20,3556           30123                           CA       1/ATEM1                               #  REPLACE FUNCTION VALUES DEPENDING ON THE
000825: 20,3557           54125                           TS       1/ATEM1    +2                         #  FAILED JET PAIR WITH CORRESPONDING ONE-
000826: 20,3560           30131                           CA       Z1TEM                                 #  JET (OR AMIN) FUNCTION VALUES
000827: 20,3561           54133                           TS       Z1TEM      +2
000828:
000829: 20,3562           40146        DBFUN              CS       DBB3                                  #  COMPUTE AXISDIST
000830: 20,3563           60143                           AD       DBB1
000831: 20,3564           60151                           AD       FLATEMP
000832: 20,3565           54147                           TS       AXDSTEM
000833: 20,3566           40145                           CS       DBB4
000834: 20,3567           60144                           AD       DBB2
000835: 20,3570           60151                           AD       FLATEMP
000836: 20,3571           54150                           TS       AXDSTEM    +1
000837:
000838: 20,3572           00004                           INHINT
000839: 20,3573           10154                           CCS      UV                                    #  TEST FOR U OR V AXIS
000840: 20,3574           13616                           TCF      STORV                                 #  V AXIS        STORE V VALUES
000841:
000842: 20,3575           30122                           CA       ACCSW                                 #  U AXIS        STORE U VALUES
000843: 20,3576           55546                           TS       ACCSWU
000844:
000845: 20,3577           34320                           CA       NINE                                  #  TRANSFER 10 WORDS VIA GENTRAN
000846: 20,3600           05545                           TC       GENTRAN    +1
000847: 20,3601           00123                           ADRES    1/ATEM1                               #  TEMPORARY BUFFER
000848: 20,3602           01566                           ADRES    1/ANET1                               #  THE REAL PLACE
000849:
000850: 20,3603           00003                           RELINT
000851: 20,3604           52144                           DXCH     DBB1                                  #  SAVE U DBS FOR LATER STORING
000852: 20,3605           52136                           DXCH     UDB1
000853: 20,3606           52146                           DXCH     DBB4
000854: 20,3607           52140                           DXCH     UDB4
000855:
000856: 20,3610           52150                           DXCH     AXDSTEM
000857: 20,3611           52142                           DXCH     UAXDIST
000858:
000859: 20,3612           34753                           CA       ONE                                   #  NOW DO V AXIS
000860: 20,3613           54154                           TS       UV
000861: 20,3614           34755                           CA       ZERO
000862: 20,3615           13324                           TCF      BOTHAXES                              #  AND DO IT AGAIN
000863:
000864: 20,3616           30122        STORV              CA       ACCSW                                 #  STORE V AXIS VALUES
000865: 20,3617           55547                           TS       ACCSWV
000866: 20,3620           34320                           CA       NINE
000867: 20,3621           05545                           TC       GENTRAN    +1
000868: 20,3622           00123                           ADRES    1/ATEM1                               #  TEMPORARY BUFFER


000870: 20,3623           01606                           ADRES    1/ANET1    +16D                       #  THE REAL PLACE
000871:
000872:                                                                                                  #  NOW STORE DEADBANDS FOR ALL AXES
000873: 20,3624           52152                           DXCH     FLATEMP                               #  FLAT AND ZONE3LIM
000874: 20,3625           53555                           DXCH     FLAT
000875:
000876: 20,3626           31343                           CA       DBVAL1                                #  COMPUTE P AXIS DEADBANDS
000877: 20,3627           55560                           TS       PDB1
000878: 20,3630           55561                           TS       PDB2
000879: 20,3631           61554                           AD       FLAT
000880: 20,3632           55563                           TS       PDB3
000881: 20,3633           55562                           TS       PDB4
000882: 20,3634           34755                           CA       ZERO
000883: 20,3635           55564                           TS       PAXDIST
000884: 20,3636           55565                           TS       PAXDIST    +1
000885:
000886: 20,3637           11554                           CCS      FLAT
000887: 20,3640           13656                           TCF      DRFDB                                 #  DRIFT OR GTS -- COMPUTE DBS
000888:
000889: 20,3641           52136                           DXCH     UDB1                                  #  STORE U DEADBANDS
000890: 20,3642           53601                           DXCH     FIREDB                                #  CANNOT USE GENTRAN BECAUSE OF RELINT
000891: 20,3643           52140                           DXCH     UDB4
000892: 20,3644           53603                           DXCH     COASTDB
000893: 20,3645           52142                           DXCH     UAXDIST
000894: 20,3646           53605                           DXCH     AXISDIST
000895: 20,3647           52144                           DXCH     DBB1                                  #  STORE V AXIS DEADBANDS
000896: 20,3650           53621                           DXCH     FIREDB     +16D                       #  COULD USE GENTRAN IF DESIRED
000897: 20,3651           52146                           DXCH     DBB4
000898: 20,3652           53623                           DXCH     COASTDB    +16D
000899: 20,3653           52150                           DXCH     AXDSTEM
000900: 20,3654           53625                           DXCH     AXISDIST   +16D
000901:
000902: 20,3655           13676                           TCF      1/ACCRET   +1                         #  ALL DONE
000903: 20,3656           31343        DRFDB              CA       DBVAL1                                #  DRIFT DEADBANDS
000904: 20,3657           55600                           TS       FIREDB
000905: 20,3660           55601                           TS       FIREDB     +1
000906: 20,3661           55620                           TS       FIREDB     +16D
000907: 20,3662           55621                           TS       FIREDB     +17D
000908: 20,3663           61554                           AD       FLAT
000909: 20,3664           55602                           TS       COASTDB
000910: 20,3665           55603                           TS       COASTDB    +1
000911: 20,3666           55622                           TS       COASTDB    +16D
000912: 20,3667           55623                           TS       COASTDB    +17D
000913: 20,3670           34755                           CA       ZERO
000914: 20,3671           55604                           TS       AXISDIST
000915: 20,3672           55605                           TS       AXISDIST   +1
000916: 20,3673           55624                           TS       AXISDIST   +16D
000917: 20,3674           55625                           TS       AXISDIST   +17D
000918:
000919: 20,3675           00004        1/ACCRET           INHINT


000921: 20,3676           40111                           CS       DAPBOOLS                              #  SET BIT TO INDICATE DATA GOOD.
000922: 20,3677           74751                           MASK     ACCSOKAY
000923: 20,3700           26111                           ADS      DAPBOOLS
000924: 20,3701           00003                           RELINT
000925: 20,3702           30117                           CA       ACCRETRN
000926: 20,3703           04640                           TC       BANKJUMP                              #  RETURN TO CALLER
000927:
000928: 20,3704           54165        INVERT             TS       HOLD                                  #  ROUTINE TO INVERT -INPUT AT PI/2
000929: 20,3705           34743                           CA       BIT9                                  #  1 AT 2(6)
000930: 20,3706           22007                           ZL                                             #  ZERO L FOR ACCURACY AND TO PREVENT OVFLO
000931: 20,3707           00006                           EXTEND
000932: 20,3710           10165                           DV       HOLD
000933: 20,3711           00002                           TC       Q                                     #  RESULT AT 2(7)/PI
000934:
000935: 20,3712           34755        DOWNGTS            CAF      ZERO                                  #  ZERO SWITCHES WHEN USEQRJTS BIT IS UP
000936: 20,3713           55502                           TS       ALLOWGTS                              #        OR DAP IS OFF
000937: 20,3714           55632                           TS       INGTS
000938: 20,3715           12777                           TCF      DOCKTEST
000939:
000940: 20,3716           22007        1/ANET-            ZL
000941: 20,3717           22122                           LXCH     ACCSW                                 #  ZERO ACCSW
000942: 20,3720           54157                           TS       ANET                                  #  SAVE ANET
000943: 20,3721           63770                           AD       -.03R/S2                              #  TEST FOR MIN VALUE
000944: 20,3722           00006                           EXTEND
000945: 20,3723           63744                           BZMF     NETNEG                                #  ANET LESS THAN AMIN, SO FAKE IT
000946: 20,3724           30157        1/NETMIN           CA       ANET
000947: 20,3725           00006                           EXTEND
000948: 20,3726           50164                           INDEX    -SIGNAOS
000949: 20,3727           70130                           MP       1/ACOSTT   +1                         #  ANETNEG(POS)/ACOASTPOS(NEG) AT 2(6)
000950:
000951:                                                                                                  #  THE FOLLOWING CODING IS VALID FOR BOTH POS OR NEG
000952:                                                                                                  #        VALUES OF AOS
000953:
000954: 20,3730           64743        DO1/NET+           AD       BIT9                                  #  1 + ANET/ACOAST AT 2(6)
000955: 20,3731           56157                           XCH      ANET                                  #  SAVE AND PICK UP ANET
000956: 20,3732           00006                           EXTEND
000957: 20,3733           22161                           QXCH     ARET                                  #  SAVE RETURN
000958: 20,3734           03704                           TC       INVERT
000959: 20,3735           54160                           TS       1/ANET                                #  1/ANET AT 2(7)/PI
000960: 20,3736           44743                           CS       BIT9                                  #  -1 AT 2(6)
000961: 20,3737           00006        DOACCFUN           EXTEND
000962: 20,3740           70160                           MP       1/ANET                                #  -1/ANET AT 2(13)/PI
000963: 20,3741           00006                           EXTEND
000964: 20,3742           10157                           DV       ANET                                  #  ACCFUN AT 2(7)/PI
000965: 20,3743           00161                           TC       ARET                                  #  RETURN
000966:
000967: 20,3744           43770        NETNEG             CS       -.03R/S2                              #  ANET LESS THAN AMIN -- SET EQUAL TO AMIN
000968: 20,3745           54157                           TS       ANET
000969: 20,3746           13725                           TCF      1/NETMIN   +1                         #  CONTINUE AS IF NOTHING HAPPENED.
000970:


000972: 20,3747           10163        FIXMIN             CCS      SIGNAOS
000973: 20,3750           34752                           CA       TWO                                   #  IF AOS NEG, ACCSW = +1
000974: 20,3751           67752                           AD       NEGONE                                #  IF AOS POS, ACCSW = -1
000975: 20,3752           54122                           TS       ACCSW
000976: 20,3753           60154                           AD       UV                                    #  IF ACCSW = +1, TEST FOR +U (+V) JET FAIL
000977: 20,3754           50000                           INDEX    A                                     #  IF ACCSW = -1, TEST FOR -U (-V) JET FAIL
000978: 20,3755           33774                           CA       -UMASK     +1
000979: 20,3756           71257                           MASK     CH5MASK
000980: 20,3757           00006                           EXTEND
000981: 20,3760           13764                           BZF      +4
000982: 20,3761           43770                           CS       -.03R/S2                              #  JET FAILURE -- CANNOT USE 2-JET VALUES
000983: 20,3762           54157                           TS       ANET                                  #  ANET = AMIN
000984: 20,3763           13532                           TCF      STMIN-     -1                         #  CALCULATE FUNCTIONS USING AMIN
000985: 20,3764           30001                           CA       L                                     #  L HAS ACCFUN
000986: 20,3765           13533                           TCF      STMIN-                                #  STORE MAX VALUES FOR MIN JETS
000987:
000988:                                                                                                  #  ERASABLE ASSIGNMENTS FOR 1/ACCONT
000989:
000990: 20,3766  E6,1550               1/ANETP            EQUALS   BLOCKTOP   +2
000991: 20,3766  E6,1552               1/ACOSTP           EQUALS   BLOCKTOP   +4
000992: 20,3766  E6,1556               PACCFUN            EQUALS   BLOCKTOP   +8D
000993: 20,3766  E6,1560               PDB1               EQUALS   BLOCKTOP   +10D
000994: 20,3766  E6,1561               PDB2               EQUALS   BLOCKTOP   +11D
000995: 20,3766  E6,1562               PDB4               EQUALS   BLOCKTOP   +12D
000996: 20,3766  E6,1563               PDB3               EQUALS   BLOCKTOP   +13D
000997: 20,3766  E6,1564               PAXDIST            EQUALS   BLOCKTOP   +14D
000998:
000999: 20,3766     0122               ACCSW              EQUALS   VBUF                                  #  EXECUTIVE TEMPORARIES
001000:                                                                                                  #  CANNOT DO CCS NEWJOB DURING 1/ACCS
001001: 20,3766     0123               1/ATEM1            EQUALS   ACCSW      +1
001002: 20,3766     0124               1/ATEM2            EQUALS   1/ATEM1    +1
001003: 20,3766     0127               1/ACOSTT           EQUALS   1/ATEM1    +4
001004: 20,3766     0131               Z1TEM              EQUALS   1/ATEM1    +6
001005: 20,3766     0132               Z5TEM              EQUALS   1/ATEM1    +7
001006:
001007: 20,3766     0135               UDB1               EQUALS   1/ATEM1    +10D                       #  UAXIS DEADBAND BUFFER
001008: 20,3766     0136               UDB2               EQUALS   1/ATEM1    +11D
001009: 20,3766     0137               UDB4               EQUALS   1/ATEM1    +12D
001010: 20,3766     0140               UDB3               EQUALS   1/ATEM1    +13D
001011: 20,3766     0141               UAXDIST            EQUALS   1/ATEM1    +14D
001012:
001013: 20,3766     0143               DBB1               EQUALS   1/ATEM1    +16D                       #  TEMP DEADBAND BUFFER, ALSO V AXIS
001014: 20,3766     0144               DBB2               EQUALS   1/ATEM1    +17D
001015: 20,3766     0145               DBB4               EQUALS   1/ATEM1    +18D
001016: 20,3766     0146               DBB3               EQUALS   1/ATEM1    +19D
001017: 20,3766     0147               AXDSTEM            EQUALS   1/ATEM1    +20D
001018:
001019: 20,3766     0151               FLATEMP            EQUALS   1/ATEM1    +22D
001020: 20,3766     0152               Z3TEM              EQUALS   1/ATEM1    +23D                       #  MUST FOLLOW FLATEMP


001022: 20,3766     1343               DBVAL1             EQUALS   DB
001023: 20,3766     0114               DBVAL2             EQUALS   INTB15+
001024: 20,3766     0115               DBVAL3             EQUALS   INTB15+    +1
001025:
001026: 20,3766     0116               DRIFTER            EQUALS   INTB15+    +2
001027:
001028: 20,3766     0154               UV                 EQUALS   MPAC
001029: 20,3766     0157               ANET               EQUALS   MPAC       +3
001030: 20,3766     0157               FUNTEM             EQUALS   MPAC       +3
001031: 20,3766     0160               1/ANET             EQUALS   MPAC       +4
001032: 20,3766     0161               ARET               EQUALS   MPAC       +5
001033: 20,3766     0162               ABSAOS             EQUALS   MPAC       +6
001034: 20,3766     0163               SIGNAOS            EQUALS   MPAC       +7
001035: 20,3766     0164               -SIGNAOS           EQUALS   MPAC       +8D
001036: 20,3766     0165               HOLD               EQUALS   MPAC       +9D
001037: 20,3766     0117               ACCRETRN           EQUALS   FIXLOC     -1
001038:
001039: 20,3766           00110        ZONE3MAX           DEC      .004375                               #  17.5 MS (35 MS FOR 1 JET) AT 4 SECONDS
001040: 20,3767           00443        FLATVAL            DEC      .01778                                #  .8 AT PI/4 RAD
001041: 20,3770           77377        -.03R/S2           OCT      77377                                 #  -PI/2(7) AT PI/2
001042:
001043: 20,3771           00356        .023R/S2           OCT      00356                                 #  .0228 RAD/SEC(2) AT PI/2
001044: 20,3772     4733               1/.03              EQUALS   POSMAX                                #  2(7)/PI AT 2(7)/PI
001045:
001046: 20,3772           02213        PAXISADR           GENADR   PAXIS
001047:
001048:                                                                                                  #  THE FOLLOWING 4 CONSTANTS ARE JET
001049:                                                                                                  #  FAILURE MASKS AND ARE INDEXED
001050: 20,3773           00110        -UMASK             OCT      00110                                 #  -U
001051: 20,3774           00022                           OCT      00022                                 #  -V
001052: 20,3775           00204        +UMASK             OCT      00204                                 #  +U
001053: 20,3776           00041                           OCT      00041                                 #  +V
001054:

End of include-file AOSTASK_AND_AOSJOB.agc.  Parent file is MAIN.agc


