
Source Code


000002:                                                                                                  ## Copyright:   Public domain.
000003:                                                                                                  ## Filename:    AOTMARK.agc
000004:                                                                                                  ## Purpose:     A section of Luminary 1C, revision 131.
000005:                                                                                                  ##              It is part of the source code for the Lunar Module's (LM)
000006:                                                                                                  ##              Apollo Guidance Computer (AGC) for Apollo 13 and Apollo 14.
000007:                                                                                                  ##              This file is intended to be a faithful transcription, except
000008:                                                                                                  ##              that the code format has been changed to conform to the
000009:                                                                                                  ##              requirements of the yaYUL assembler rather than the
000010:                                                                                                  ##              original YUL assembler.
000011:                                                                                                  ## Reference:   pp. 250-267 of 1729.pdf.
000012:                                                                                                  ## Contact:     Ron Burkey <info@sandroid.org>.
000013:                                                                                                  ## Website:     www.ibiblio.org/apollo/index.html
000014:                                                                                                  ## Mod history: 05/07/03 RSB.   Began transcribing.
000015:                                                                                                  ##              05/14/05 RSB.   Corrected website reference above.
000016:                                                                                                  ##              2010-08-24 JL   Fixed page 264 number.
000017:


000019: 12,2000                                           BANK     12
000020: 07,2000                                           SETLOC   AOTMARK1
000021: 07,2000                                           BANK
000022:
000023: 07,2000  E7,1551                                  EBANK=   XYMARK
000024: 07,2000                                           COUNT*   $$/MARK
000025:
000026: 07,2000           00004        AOTMARK            INHINT
000027: 07,2001           11307                           CCS      MARKSTAT                              #  SEE IF AOTMARK BUSY
000028: 07,2002           02004                           TC       +2                                    #  MARK SYSTEM BUSY -- DO ALARM
000029: 07,2003           02006                           TC       EXTVBCHK
000030: 07,2004           05642                           TC       P00DOO
000031: 07,2005           20105                           OCT      20105
000032:
000033: 07,2006           36245        EXTVBCHK           CAF      SIX                                   #  SEE IF EXT. VERB WORKING
000034: 07,2007           71043                           MASK     EXTVBACT
000035: 07,2010           10000                           CCS      A
000036: 07,2011           12044                           TCF      MKABORT                               #  YES -- ABORT
000037:
000038: 07,2012           34752                           CAF      BIT2                                  #  NO -- DISALLOW SOME EXTENDED VERB ACTION
000039: 07,2013           27043                           ADS      EXTVBACT                              #  BIT2 RESET IN ENDMARK
000040: 07,2014           10400        MKVAC              CCS      VAC1USE                               #  LOOK FOR A VAC AREAD -- DO ABORT IF
000041: 07,2015           12031                           TCF      MKVACFND                              #  NONE AVAILABLE
000042: 07,2016           10454                           CCS      VAC2USE
000043: 07,2017           12031                           TCF      MKVACFND
000044: 07,2020           10530                           CCS      VAC3USE
000045: 07,2021           12031                           TCF      MKVACFND
000046: 07,2022           10604                           CCS      VAC4USE
000047: 07,2023           12031                           TCF      MKVACFND
000048: 07,2024           10660                           CCS      VAC5USE
000049: 07,2025           12031                           TCF      MKVACFND
000050: 07,2026           52134                           DXCH     BUF2
000051: 07,2027           05706                           TC       BAILOUT1                              #  ALL VAC AREAS OCCUPIED -- ABORT.
000052: 07,2030           31207                           OCT      31207
000053:
000054: 07,2031           64752        MKVACFND           AD       TWO
000055: 07,2032           55307                           TS       MARKSTAT                              #  STORE VAC ADR INLOW 9 OF MARKSTAT
000056:
000057: 07,2033           34755                           CAF      ZERO
000058: 07,2034           51307                           INDEX    MARKSTAT
000059: 07,2035           53777                           TS       0          -1                         #  ZERO IN VACUSE REG TO SHOW VAC OCCUPIED
000060:
000061: 07,2036           35025                           CAF      PRIO15
000062: 07,2037           05105                           TC       FINDVAC                               #  SET UP JOB FOR GETDAT
000063: 07,2040  E7,1551                                  EBANK=   XYMARK
000064: 07,2040           02063 16067                     2CADR    GETDAT
000065:
000066: 07,2042           00003                           RELINT
000067: 07,2043           14631                           TCF      SWRETURN


000069: 07,2044           52134        MKABORT            DXCH     BUF2
000070: 07,2045           05706                           TC       BAILOUT1                              #  CONFLICT WITH EXTENDED VERB
000071: 07,2046           31211                           OCT      31211
000072:
000073: 07,2047           34755        MKRELEAS           CAF      ZERO
000074: 07,2050           57307                           XCH      MARKSTAT                              #  SET MARKSTAT TO ZERO
000075: 07,2051           75004                           MASK     LOW9                                  #  PICK UP VAC AREA AOR
000076: 07,2052           10000                           CCS      A
000077: 07,2053           50000                           INDEX    A
000078: 07,2054           54000                           TS       0                                     #  SHOW MKVAC AREA AVAILABLE
000079: 07,2055           34753                           CAF      ONE
000080: 07,2056           04674                           TC       IBNKCALL
000081: 07,2057           17656                           CADR     GOODEND                               #  GO WAKE UP CALLING JOB
000082:


000084: 07,2060           34755        KILLAOT            CAF      ZERO
000085: 07,2061           55043                           TS       EXTVBACT                              #  TERMINATE AOTMARK -- ALLOW EXT VERB
000086: 07,2062           06001                           TC       GOTOP00H
000087: 07,2063           41307        GETDAT             CS       MARKSTAT                              #  SET BIT12 TO DISCOURAGE MARKRUPT
000088: 07,2064           74740                           MASK     BIT12                                 #        BIT12 RESET AT GETMARK
000089: 07,2065           27307                           ADS      MARKSTAT
000090:
000091: 07,2066           32330                           CAF      V01N71                                #  DISPLAY DETENT AND STAR CODE
000092: 07,2067           04616                           TC       BANKCALL
000093: 07,2070           20334                           CADR     GOMARKF
000094:
000095: 07,2071           12060                           TCF      KILLAOT                               #  V34 -- DOES GOTOP00H
000096: 07,2072           12074                           TCF      DODAT                                 #  V33 -- PROCEED -- USE THIS STAR FOR MARKS
000097: 07,2073           12063        ENTERDAT           TCF      GETDAT                                #  ENTER -- REDISPLAY STAR CODE
000098:
000099: 07,2074           37747        DODAT              CAF      HIGH9                                 #  PICK DETENT CODE FROM BITS7-9 OF AOTCODE
000100: 07,2075           70734                           MASK     AOTCODE                               #  AND SEE IF CODE 1 TO 6
000101: 07,2076           00006                           EXTEND
000102: 07,2077           74743                           MP       BIT9
000103: 07,2100           55551                           TS       XYMARK                                #  STORE DETENT
000104:
000105: 07,2101           00006                           EXTEND
000106: 07,2102           62063                           BZMF     GETDAT                                #  COAS CALIBRATION CODE - NO GOOD HERE
000107:
000108: 07,2103           65650                           AD       NEG7                                  #  SEE IF DETENT 7 FOR COAS
000109: 07,2104           00006                           EXTEND
000110: 07,2105           12107                           BZF      CODE7
000111:
000112: 07,2106           12123                           TCF      CODE1TO6
000113:
000114: 07,2107           32331        CODE7              CAF      V06N87*                               #  CODE 7, COAS SIGHTING, GET OPTIC AXIS
000115: 07,2110           04616                           TC       BANKCALL                              #  AZ AND EL OF SIGHTING DEVICE FROM ASTRO
000116: 07,2111           20334                           CADR     GOMARKF
000117:
000118: 07,2112           12060                           TCF      KILLAOT                               #  V34 -- DOES GOTOP00H
000119: 07,2113           12115                           TCF      +2                                    #  PROCEED
000120: 07,2114           12107                           TCF      CODE7                                 #  ON ENTER, RECYCLE
000121: 07,2115           00006                           EXTEND
000122: 07,2116           31345                           DCA      AZ                                    #  PICK UP AZ AND EL IN SP 25 COMP
000123: 07,2117           50120                           INDEX    FIXLOC
000124: 07,2120           52011                           DXCH     8D                                    #  STORE IN 8D AND 9D OF LOCAL VAC
000125: 07,2121           34755                           CAF      ZERO                                  #  BACKUP SYSTEM TO BE USED
000126: 07,2122           12137                           TCF      COASCODE                              #  ZERO APPARENT ROTATION
000127:
000128: 07,2123           51551        CODE1TO6           INDEX    XYMARK                                #  INDEX AOT POSITION BY DET CODE
000129: 07,2124           31411                           CA       AOTEL      -1
000130: 07,2125           50120                           INDEX    FIXLOC
000131: 07,2126           54011                           TS       9D                                    #  STORE ELEVATION IN VAC+9D
000132:
000133: 07,2127           51551                           INDEX    XYMARK                                #  INDEX DET CODE 1,2 OR 3


000135: 07,2130           31403                           CA       AOTAZ      -1
000136: 07,2131           50120                           INDEX    FIXLOC
000137: 07,2132           54010                           TS       8D                                    #  STORE AZIMUTH IN VAC +8D
000138:
000139: 07,2133           31405                           CA       AOTAZ      +1                         #  COMPENSATION FOR APPARENT ROTATION OF
000140: 07,2134           00006                           EXTEND                                         #  AOT FIELD OF VIEW IN LEFT AND RIGHT
000141: 07,2135           50120                           INDEX    FIXLOC                                #  DETENTS IS STORED IN VAC +10D IN SP
000142: 07,2136           20010                           MSU      8D                                    #  PRECISION ONE'S COMPLEMENT
000143: 07,2137           50120        COASCODE           INDEX    FIXLOC
000144: 07,2140           54012                           TS       10D                                   #  ROT ANGLE
000145:
000146: 07,2141           06042                           TC       INTPRET                               #  COMPUTE X AND Y PLANE VECTORS.
000147:


000149:                                                                                                  #  THE OPTAXIS SOBROUTINE COMPUTES THE X AND Y MARK PLANE VECS AND
000150:                                                                                                  #  ROTATES THEM THRU THE APPARENT FIELD OF VIEW REOTATION UNIQUE TO AOT
000151:                                                                                                  #  OPTAXIS USES OANB TO COMPUTE THE OPTIC AXIS
000152:
000153:                                                                                                  #        INPUT --        AZIMUTH ANGLE IN SINGLE PREC AT CDU SCALE IN 8D OF JOB VAC
000154:                                                                                                  #                        ELEVATION ANGLE IN SINGLE PREC AT CDU SCALE IN 9D OF JOB VAC
000155:                                                                                                  #                        ROTATION ANGLE IN SINGLE PREC IS COMPSCALED BY PI IN 10D OF VAC
000156:
000157:                                                                                                  #        OUTPUT --       OPTIC AXIS VEC IN NG COORDS IN SCAXIS
000158:                                                                                                  #                        X-MARK PLANE 1/4VEC IN NB COORDS AT 18D OF JOB VAC
000159:                                                                                                  #                        Y-MARK PLANE 1/4VEC IN NB COORDS AT 12D OF JOB VAC
000160:
000161: 07,2142           77624        OPTAXIS            CALL                                           #  GO COMPUTE OA AN X AND Y PLANE VECS
000162: 07,2143           10522                                    OANB
000163: 07,2144           70535                           SLOAD    SR1                                   #  LOAD APP ROTATION IN ONES COMP
000164: 07,2145           00013                                    10D                                   #  RESCALE BY 2PI
000165: 07,2146           73406                           PUSH     SIN                                   #  1/2SIN(ROT) 0-1
000166: 07,2147           71525                           PDDL     COS
000167: 07,2150           74206                           PUSH     VXSC                                  #  1/2COS(ROT) 2-3
000168: 07,2151           00023                                    18D
000169: 07,2152           74325                           PDDL     VXSC                                  #  1/4COS(ROT)UYP 4-9
000170: 07,2153           00001                                    0
000171: 07,2154           00031                                    24D                                   #  1/4SIN(ROT)UXP
000172: 07,2155           45445                           BVSU     STADR                                 #  UP 4-9
000173: 07,2156           63762                           STODL    12D                                   #  YPNB=1/4(COS(ROT)UYP-SIN(ROT)UXP)
000174: 07,2157           65361                           VXSC     PDDL                                  #  UP 2-3 UP 0-1 FOR EXCHANGE
000175: 07,2160           00031                                    24D                                   #  1/4COS(ROT)UXP        PUSH 0-5
000176: 07,2161           53361                           VXSC     VAD                                   #  1/4SIN(ROT)UYP
000177: 07,2162           00023                                    18D
000178: 07,2163           77626                           STADR
000179: 07,2164           53754                           STOVL    18D                                   #  XPNB=1/4(COS(ROT)UXP+SIN(ROT)UYP)
000180: 07,2165           24007                                    LO6ZEROS                              #  INITIALIZE AVE STAR VEC ACCUMULATOR
000181: 07,2166           02715                           STORE    STARAD     +6
000182: 07,2167           77776                           EXIT
000183: 07,2170           12202                           TCF      GETMKS
000184:


000186:                                                                                                  #  THE OANB SUBROUTINE COMPUTES THE OPTIC AXIS OF THE SIGHTING INSTRUMENT
000187:                                                                                                  #  FROM AZIMUTH AND ELEVATION INPUT FROM THE ASTRONAUT.
000188:
000189:                                                                                                  #        INPUT --        AZIMUTH ANGLE IN SINGLE PREC 2'S COMP IN 8D OF JOB VAC
000190:                                                                                                  #                        ELEVATION ANGLE IN SINGLE PREC 2'S COMP IN 9D OF VAC
000191:
000192:                                                                                                  #        OUTPUT --       OPTIC AXIS IN NB COORDS. IN SCAXIS
000193:                                                                                                  #                        X-PLANE 1/2VEC IN NB COORDS AT 24D OF VAC
000194:                                                                                                  #                        Y-PLANE 1/2VEC IN NB COORDS AT 18D OF VAC
000195:
000196: 05,3413                                           BANK     05
000197: 04,2000                                           SETLOC   AOTMARK2
000198: 04,2000                                           BANK
000199:
000200: 04,2522                                           COUNT*   $$/MARK
000201:
000202: 04,2522           44001        OANB               SETPD    STQ
000203: 04,2523           00001                                    0
000204: 04,2524           02736                                    GCTR                                  #  STORE RETURN
000205: 04,2525           47135                           SLOAD    RTB
000206: 04,2526           00012                                    9D                                    #  PICK UP SP ELV
000207: 04,2527           21577                                    CDULOGIC
000208: 04,2530           71406                           PUSH     COS
000209: 04,2531           73525                           PDDL     SIN                                   #  1/2COS(ELV)   PD 0-1
000210: 04,2532           77626                           STADR
000211: 04,2533           60012                           STODL    SCAXIS                                #  OAX=1/2SIN(ELV)
000212: 04,2534           00011                                    8D
000213: 04,2535           77634                           RTB
000214: 04,2536           21577                                    CDULOGIC
000215: 04,2537           71406                           PUSH     COS
000216: 04,2540           00025                           STORE    20D                                   #  STORE UYP(Y)  20-21
000217: 04,2541           73525                           PDDL     SIN                                   #  1/2COS(AZ)    PD 2-3
000218: 04,2542           57406                           PUSH     DCOMP                                 #  PUSH 1/2S IN (AZ)     4-5
000219: 04,2543           14027                           STODL    22D                                   #  STORE UYP(Z)  22-23
000220: 04,2544           24007                                    LO6ZEROS
000221: 04,2545           14023                           STODL    18D                                   #  STORE UYP(X)  18-19
000222: 04,2546           72405                           DMP      SL1
000223: 04,2547           00001                                    0
000224: 04,2550           17767                           STODL    SCAXIS     +2                         #  OAY=1/2COS(ELV)SIN(AZ)
000225: 04,2551           72405                           DMP      SL1                                   #  UP    2-3
000226: 04,2552           77626                           STADR                                          #  UP    0-1
000227: 04,2553           50006                           STOVL    SCAXIS     +4                         #  OAZ=1/2COS(ELV)COS(AZ)
000228: 04,2554           00023                                    18D                                   #  LOAD UYP VEC
000229: 04,2555           53435                           VXV      UNIT
000230: 04,2556           03765                                    SCAXIS                                #  UXP VEC=UYP X OA
000231: 04,2557           00031                           STORE    24D                                   #  STORE UXP
000232: 04,2560           77650                           GOTO
000233: 04,2561           02736                                    GCTR


000235:                                                                                                  #  SURFSTAR COMPUTES A STAR VECTOR IN SM COORDINAGES FOR LUNAR
000236:                                                                                                  #  SURFACE ALIGNMENT AND EXITS TO AVEIT TO AVERAGE STAR VECTORS.
000237:                                                                                                  #
000238:                                                                                                  #        GIVEN   X-MARK PLANE 1/4 VEC IN NB AT 18D OF LOCAL VAC
000239:                                                                                                  #                Y-MARK PLANE 1/4 VEC IN NB AT 12D OF LOCAL VAC
000240:                                                                                                  #                CURSOR SP 2COMP AT POSITION 1 OF INDEXED MARKVAC
000241:                                                                                                  #                SPIRAL SP 2COMP AT POSITION 3 OF INDEXED MARKVAC
000242:                                                                                                  #                CDUY,Z,X AT POSITIONS 0,2,4 OF INDEXED MARKVAC
000243:
000244: 15,2000                                           BANK     15
000245: 15,2000                                           SETLOC   P50S
000246: 15,2000                                           BANK
000247: 15,2000                                           COUNT*   $$/R59
000248:
000249: 15,2000           77773        SURFSTAR           VLOAD*
000250: 15,2001           00001                                    0,1                                   #  PUT X-MARK CDUS IN CDUSPOT FOR TRG*NBSM
000251: 15,2002           00766                           STORE    CDUSPOT
000252: 15,2003           47133                           SLOAD*   RTB
000253: 15,2004           00002                                    1,1                                   #  PICK UP YROT
000254: 15,2005           21577                                    CDULOGIC
000255: 15,2006           00031                           STORE    24D                                   #  STORE CURSOR FOR SPIRAL COMP (REVS)
000256: 15,2007           77654                           BZE
000257: 15,2010           16171                                    YZCHK                                 #  IF YROT ZERO -- SEE IF SROT ZERO
000258: 15,2011           71406        JUSTZY             PUSH     COS
000259: 15,2012           73525                           PDDL     SIN                                   #  1/2COS(YROT)  0-1
000260: 15,2013           65361                           VXSC     PDDL                                  #  UP 0-1        1/8SIN(YROT)UXP 0-5
000261: 15,2014           00023                                    18D
000262: 15,2015           52361                           VXSC     VSU                                   #  UP    0-5
000263: 15,2016           00015                                    12D                                   #  UYP
000264: 15,2017           47256                           UNIT     VXV
000265: 15,2020           03765                                    SCAXIS
000266: 15,2021           41456                           UNIT     PUSH
000267: 15,2022           47133                           SLOAD*   RTB
000268: 15,2023           00004                                    3,1                                   #  PICK UP SPIRAL
000269: 15,2024           21577                                    CDULOGIC
000270: 15,2025           00033                           STORE    26D                                   #  STORE SPIRAL (REVS)
000271: 15,2026           43225                           DSU      DAD
000272: 15,2027           00031                                    24D
000273: 15,2030           32047                                    ABOUTONE
000274: 15,2031           77605                           DMP
000275: 15,2032           32466                                    DP1/12
000276: 15,2033           00033                           STORE    26D                                   #  SEP=(360 + SPIRAL -CURSOR)/12
000277: 15,2034           74356                           SIN      VXSC                                  #  UP    0-5
000278: 15,2035           65372                           VSL1     PDDL                                  #  1/2SIN(SEP)(UPP X OA) 0-5
000279: 15,2036           00033                                    26D
000280: 15,2037           74346                           COS      VXSC
000281: 15,2040           03765                                    SCAXIS
000282: 15,2041           53372                           VSL1     VAD                                   #  UP    0-5
000283: 15,2042           45056        JUSTOA             UNIT     CALL
000284: 15,2043           47666                                    TRG*NBSM
000285: 15,2044           34031                           STCALL   24D                                   #  STAR VEC IN SM
000286: 15,2045           16276                                    AVEIT                                 #  GO AVERAGE


000288: 15,2046           37777 37775  ABOUTONE           2DEC     .99999999
000289:
000290: 15,2050  15,2465               DP1/12             EQUALS   DEG30                                 #  .08333333
000291: 07,2171                                           BANK     7
000292: 07,2000                                           SETLOC   AOTMARK1
000293: 07,2000                                           BANK
000294: 07,2171                                           COUNT*   $$/MARK
000295: 07,2171           53133        YZCHK              SLOAD*   BZE                                   #  YROT ZERO AND IF SROT ZERO FORCE STAR
000296: 07,2172           00004                                    3,1                                   #  ALONG OPTIC AXIS
000297: 07,2173           16177                                    YSZERO
000298: 07,2174           52145                           DLOAD    GOTO
000299: 07,2175           00031                                    24D
000300: 07,2176           32011                                    JUSTZY                                #  SROT NOT ZERO -- CONTINUE NORMALLY
000301: 07,2177           52175        YSZERO             VLOAD    GOTO
000302: 07,2200           03765                                    SCAXIS
000303: 07,2201           32042                                    JUSTOA
000304:


000306:                                                                                                  #  THE GETMKS ROUTINE INITIALIZES THE SIGHTING MARK PROCEDURE
000307:
000308: 07,2202           34755        GETMKS             CAF      ZERO                                  #  INITIALIZE MARK ID REGISTER AND MARK CNT
000309: 07,2203           55551                           TS       XYMARK
000310: 07,2204           55550                           TS       MARKCNTR
000311: 07,2205           35004                           CAF      LOW9                                  #  ZERO BITS10 TO 15 RETAINING MKVAC ADR
000312: 07,2206           71307                           MASK     MARKSTAT
000313: 07,2207           55307                           TS       MARKSTAT
000314: 07,2210           32620                           CAF      MKVB54*                               #  DISPLAY VB54 INITIALLY
000315: 07,2211           04616        PASTIT             TC       BANKCALL
000316: 07,2212           20345                           CADR     GOMARK4
000317:
000318: 07,2213           12060                           TCF      KILLAOT                               #  V34 -- DOES GOTOP00H
000319: 07,2214           12216                           TCF      MARKCHEX                              #  VB33 -- PROCEED, GOT MARKS, COMPUTE LOS
000320: 07,2215           12063                           TCF      GETDAT                                #  ENTER -- RECYCLE TO V01N71
000321:
000322: 07,2216           41307        MARKCHEX           CS       MARKSTAT                              #  SET BIT12 TO DISCOURAGE MARKRUPT
000323: 07,2217           74740                           MASK     BIT12
000324: 07,2220           27307                           ADS      MARKSTAT
000325: 07,2221           75004                           MASK     LOW9
000326: 07,2222           55551                           TS       XYMARK                                #  JAM MARK VAC ADR IN XYMARK FOR AVESTAR
000327: 07,2223           34755                           CAF      ZERO
000328: 07,2224           55552                           TS       MKDEX                                 #  SET MKDEX ZERO FOR LOS VEC CNTR
000329: 07,2225           31307                           CA       MARKSTAT
000330: 07,2226           75015                           MASK     PRIO3                                 #  SEE IF LAST MK PART COMPLETE
000331: 07,2227           54001                           TS       L
000332: 07,2230           35015                           CAF      PRIO3                                 #  BITS10 AND 11
000333: 07,2231           00006                           EXTEND
000334: 07,2232           06001                           RXOR     LCHAN
000335: 07,2233           00006                           EXTEND
000336: 07,2234           12241                           BZF      AVESTAR                               #  LAST PAIR COMPLETE -- TO COMPUTE LOS
000337: 07,2235           11550        CNTCHK             CCS      MARKCNTR                              #  NO PAIR SHOWING -- SEE IF PAIR IN HOLD
000338: 07,2236           12240                           TCF      +2                                    #  PAIR BURIED -- DECREMENT COUNTER
000339: 07,2237           12325                           TCF      MKALARM                               #  NO PAIR -- ALARM
000340: 07,2240           55550                           TS       MARKCNTR                              #  STORE DECREMENTED COUNTER
000341:
000342: 07,2241           34740        AVESTAR            CAF      BIT12                                 #  INITIALIZE MKDEX FOR STAR LOS COUNTER
000343: 07,2242           27552                           ADS      MKDEX                                 #  MKDEX WAS INITIALIZED ZERO IN MARKCHEX
000344: 07,2243           41550                           CS       MARKCNTR
000345: 07,2244           00006                           EXTEND
000346: 07,2245           76245                           MP       SIX                                   #  GET C(L) = -6 MARKCNTR
000347: 07,2246           41551                           CS       XYMARK
000348: 07,2247           60001                           AD       L                                     #  ADD -- MARK VAC ADR SET IN MARKCHEX
000349: 07,2250           50120                           INDEX    FIXLOC
000350: 07,2251           54046                           TS       X1                                    #  JAM -- CDU ADR OF X-MARK IN X1
000351:
000352: 07,2252           30120                           CA       FIXLOC                                #  SET PD POINTER TO ZERO
000353: 07,2253           54166                           TS       PUSHLOC
000354:
000355: 07,2254           06042                           TC       INTPRET


000357: 07,2255           76614                           BON      VLOAD*
000358: 07,2256           04307                                    SURFFLAG                              #  IF ON SURFACE COMPUTE VEC AT SURFSTAR
000359: 07,2257           32000                                    SURFSTAR
000360: 07,2260           00002                                    1,1                                   #  PUT Y-MARK CDUS IN CDUSPOT FOR TRG*NBSM
000361: 07,2261           24766                           STOVL    CDUSPOT
000362: 07,2262           00015                                    12D                                   #  LOAD Y-PLANE VECTOR IN NG
000363: 07,2263           77624                           CALL
000364: 07,2264           47666                                    TRG*NBSM                              #  CONVERT IT TO STABLE MEMBER
000365: 07,2265           76606                           PUSH     VLOAD*
000366: 07,2266           00001                                    0,1                                   #  PUT X-MARK CDUS IN CDUSPOT FOR TRG*NBSM
000367: 07,2267           24766                           STOVL    CDUSPOT
000368: 07,2270           00023                                    18D                                   #  LOAD X-PLANE VECTOR IN NB
000369: 07,2271           77624                           CALL
000370: 07,2272           47666                                    TRG*NBSM                              #  CONVERT IT TO STABLE-MEMBER
000371: 07,2273           53435                           VXV      UNIT                                  #  UNIT(XPSM * YPSM)
000372: 07,2274           77626                           STADR
000373: 07,2275           77746                           STORE    24D
000374:
000375: 07,2276           63335        AVEIT              SLOAD    PDVL                                  #  N(NUMBER OF VECS) IN 0-1
000376: 07,2277           03553                                    MKDEX
000377: 07,2300           00031                                    24D                                   #  LOAD CURRENT VECTOR
000378: 07,2301           70322                           VSR3     V/SC
000379: 07,2302           00001                                    0
000380: 07,2303           14031                           STODL    24D                                   #  VEC/N
000381: 07,2304           00001                                    0
000382: 07,2305           56225                           DSU      DDV
000383: 07,2306           16622                                    DP1/8                                 #  (N-1)/N
000384: 07,2307           53361                           VXSC     VAD
000385: 07,2310           02715                                    STARAD     +6                         #  ADD VEC TO PREVIOUSLY AVERAGED VECTOR
000386: 07,2311           00031                                    24D                                   #  (N-1)/N AVESTVEC + VEC/N
000387: 07,2312           02715                           STORE    STARAD     +6                         #  AVERAGE STAR VECTOR
000388: 07,2313           02767                           STORE    STARSAV2
000389: 07,2314           77776                           EXIT
000390: 07,2315           11550                           CCS      MARKCNTR                              #  SEE IF ANOTHER MARK PARI IN MKVAC
000391: 07,2316           12240                           TCF      AVESTAR    -1                         #  THERE IS -- GO GET IT -- DECREMENT COUNTER
000392: 07,2317           34756        ENDMARKS           CAF      FIVE                                  #  NO MORE MARKS -- TERMINATE AOTMARK
000393: 07,2320           00004                           INHINT
000394: 07,2321           05203                           TC       WAITLIST
000395: 07,2322  E7,1551                                  EBANK=   XYMARK
000396: 07,2322           02047 16067                     2CADR    MKRELEAS
000397:
000398: 07,2324           05472                           TC       ENDMARK
000399:
000400: 07,2325           05567        MKALARM            TC       ALARM                                 #  NOT A PAIR TO PROCESS -- DO GETMKS
000401: 07,2326           00111                           OCT      111
000402: 07,2327           12202                           TCF      GETMKS
000403:
000404: 07,2330           00307        V01N71             VN       171
000405: 07,2331           01527        V06N87*            VN       687
000406:


000408:                                                                                                  #  MARKRUPT IS ENTERED FROM INTERRUPT LEAD-INS AND PROCESSES CHANNEL 16
000409:                                                                                                  #  CAUSED BY X,Y MARK OR MARK REJECT OR BY THE RATE OF DESCENT SWITCH
000410:
000411: 07,2332           54016        MARKRUPT           TS       BANKRUPT
000412: 07,2333           30033                           CA       CDUY                                  #  STORE CDUS AND TIME NOW -- THEN SEE IF
000413: 07,2334           54063                           TS       ITEMP3                                #  WE NEED THEM
000414: 07,2335           30034                           CA       CDUZ
000415: 07,2336           54064                           TS       ITEMP4
000416: 07,2337           30032                           CA       CDUX
000417: 07,2340           54065                           TS       ITEMP5
000418: 07,2341           00006                           EXTEND
000419: 07,2342           30025                           DCA      TIME2
000420: 07,2343           52062                           DXCH     ITEMP1
000421: 07,2344           56002                           XCH      Q
000422: 07,2345           54012                           TS       QRUPT
000423:
000424: 07,2346           34776                           CAF      OCT140                                #  SEE IF ROD INPUT HAS BEEN MADE
000425: 07,2347           00006                           EXTEND
000426: 07,2350           02016                           RAND     NAVKEYIN
000427: 07,2351           10000                           CCS      A
000428: 07,2352           12403                           TCF      SOMEKEY                               #  YES
000429:
000430: 07,2353           34740                           CAF      BIT12                                 #  ARE WE ASKING FOR A MARK
000431: 07,2354           71307                           MASK     MARKSTAT
000432: 07,2355           10000                           CCS      A
000433: 07,2356           05270                           TC       RESUME                                #  DON'T WANT MARK OR MKREJECT -- DO NOTHING
000434:
000435: 07,2357           11307                           CCS      MARKSTAT                              #  ARE MARKS BEING ACCEPTED
000436: 07,2360           12364                           TCF      FINDKEY                               #  THEY ARE -- WHICH ONE IS IT
000437: 07,2361           05567                           TC       ALARM                                 #  MARKS NOT BEING ACCEPTED -- DO ALARM
000438: 07,2362           00112                           OCT      112
000439: 07,2363           05270                           TC       RESUME
000440:
000441: 07,2364           34747        FINDKEY            CAF      BIT5                                  #  SEE IF MARK REJECT.
000442: 07,2365           00006                           EXTEND
000443: 07,2366           02016                           RAND     NAVKEYIN
000444: 07,2367           10000                           CCS      A
000445: 07,2370           12460                           TCF      MKREJ                                 #  IT'S A MARK REJECT
000446:
000447: 07,2371           34750                           CAF      BIT4                                  #  SEE IF Y MARK
000448: 07,2372           00006                           EXTEND
000449: 07,2373           02016                           RAND     NAVKEYIN
000450: 07,2374           10000                           CCS      A
000451:
000452: 07,2375           12421                           TCF      YMKRUPT                               #  IT'S A Y MARK
000453:
000454: 07,2376           34751                           CAF      BIT3                                  #  SEE IF X MARK
000455: 07,2377           00006                           EXTEND
000456: 07,2400           02016                           RAND     NAVKEYIN
000457: 07,2401           10000                           CCS      A
000458:


000460: 07,2402           12415                           TCF      XMKRUPT                               #  IT'S A X MARK
000461:
000462: 07,2403           34776        SOMEKEY            CAF      OCT140                                #  NOT MARK OR MKREJECT -- SEE IF DESCENT BITS
000463: 07,2404           00006                           EXTEND
000464: 07,2405           02016                           RAND     NAVKEYIN
000465: 07,2406           00006                           EXTEND
000466: 07,2407           12412                           BZF      +3                                    #  IF NO BITS
000467:
000468: 07,2410           04635                           TC       POSTJUMP                              #  IF DESCENT BITS
000469: 07,2411           46455                           CADR     DESCBITS
000470:
000471: 07,2412           05567                           TC       ALARM                                 #  NO INBITS IN CHANNEL 16.
000472: 07,2413           00113                           OCT      113
000473:
000474: 07,2414           05270                           TC       RESUME
000475:
000476: 07,2415           34755        XMKRUPT            CAF      ZERO
000477: 07,2416           54070                           TS       RUPTREG1                              #  SET X MARK STORE INDEX TO ZERO
000478: 07,2417           34742                           CAF      BIT10
000479: 07,2420           12424                           TCF      +4
000480: 07,2421           34753        YMKRUPT            CAF      ONE
000481: 07,2422           54070                           TS       RUPTREG1                              #  SET Y MARK STORE INDEX TO ONE
000482: 07,2423           34741                           CAF      BIT11
000483: 07,2424           55551                           TS       XYMARK                                #  SET MARK IDENTIFICATION
000484:
000485: 07,2425           02513                           TC       MARKTYPE                              #  SEE IF SURFACE MARK
000486: 07,2426           12520                           TCF      SURFSTOR                              #  SURFACE MARK -- JUST STORE CDUS
000487:
000488: 07,2427           34736                           CAF      BIT14                                 #  GOT A MARK -- SEE IF MARK PARI MADE
000489: 07,2430           71307                           MASK     MARKSTAT
000490: 07,2431           00006                           EXTEND
000491: 07,2432           12443                           BZF      VERIFYMK                              #  NOT A PAIR, NORMAL PROCEDURE
000492: 07,2433           41550                           CS       MARKCNTR                              #  GO A PAIR, SEE IF ANOTHER CAN BE MADE
000493: 07,2434           64751                           AD       FOUR                                  #  IF SO, INCREMENT POINTER, CLEAR BITS 10,11
000494: 07,2435           00006                           EXTEND
000495: 07,2436           62453                           BZMF     5MKALARM                              #  HAVE FIVE MARK PAIRS -- DON'T ALLOW MARK
000496: 07,2437           25550                           INCR     MARKCNTR                              #  OK FOR ANOTHER PAIR, INCR POINTER
000497: 07,2440           47714                           CS       PRIO23                                #  CLEAR BITS 10,11,14 FOR NEXT PAIR
000498: 07,2441           71307                           MASK     MARKSTAT
000499: 07,2442           55307                           TS       MARKSTAT
000500:
000501: 07,2443           31551        VERIFYMK           CA       XYMARK
000502: 07,2444           71307                           MASK     MARKSTAT
000503: 07,2445           10000                           CCS      A
000504: 07,2446           12450                           TCF      +2                                    #  THIS MARK NOT DESIRED
000505: 07,2447           12525                           TCF      VACSTOR                               #  MARK DESIRED -- STORE CDUS
000506: 07,2450           05567                           TC       ALARM
000507: 07,2451           00114                           OCT      114
000508: 07,2452           05270                           TC       RESUME                                #  RESUME -- DISPLAY UNCHANGED -- WAIT FOR ACTION
000509:


000511: 07,2453           05567        5MKALARM           TC       ALARM                                 #  ATTEMPTING TO MAKE MORE THAN 5 MK PAIRS
000512: 07,2454           00107                           OCT      107
000513: 07,2455           02513                           TC       MARKTYPE                              #  SEE IF SURFACE MARK
000514: 07,2456           12626                           TCF      DSPV6N79                              #  IT IS
000515: 07,2457           05270                           TC       RESUME                                #  DON'T CHANGE DISPLAY -- DO NOTHING
000516:


000518: 07,2460           02513        MKREJ              TC       MARKTYPE                              #  SEE IF SURFACE
000519: 07,2461           12506                           TCF      SURFREJ                               #  SURFACE -- JUST CHECK MARK COUNTER
000520:
000521: 07,2462           35015                           CAF      PRIO3                                 #  INFLIGHT -- SEE IF MARKS MADE
000522: 07,2463           71307                           MASK     MARKSTAT
000523: 07,2464           10000                           CCS      A
000524: 07,2465           12471                           TCF      REJECT                                #  MARKS MADE -- REJECT ONE
000525: 07,2466           05567        REJALM             TC       ALARM                                 #  NO MARK TO REJECT -- BAD PROCEDURE -- ALARM
000526: 07,2467           00115                           OCT      115
000527: 07,2470           05270                           TC       RESUME                                #  DESIRED ACTION DISPLAYED
000528:
000529: 07,2471           44355        REJECT             CS       PRIO30                                #  ZERO BIT14, SHOW REJ.  SEE IF MARK SINCE
000530: 07,2472           71307                           MASK     MARKSTAT                              #  LAST REJECT
000531: 07,2473           64737                           AD       BIT13
000532: 07,2474           57307                           XCH      MARKSTAT
000533: 07,2475           74737                           MASK     BIT13
000534: 07,2476           10000                           CCS      A
000535: 07,2477           12504                           TCF      REJECT2                               #  ANOTHER REJECT SET BIT 10+11 TO ZERO
000536:
000537: 07,2500           41551                           CS       XYMARK                                #  MARK MADE SINCE REJECT -- REJECT MARK IN 1D
000538: 07,2501           71307        RENEWMK            MASK     MARKSTAT
000539: 07,2502           55307                           TS       MARKSTAT
000540: 07,2503           12576                           TCF      REMARK                                #  GO REQUEST NEW MARK ACTION
000541:
000542: 07,2504           45015        REJECT2            CS       PRIO3                                 #  ON SECOND REJECT -- DISPLAY VB53 AGAIN
000543: 07,2505           12501                           TCF      RENEWMK
000544:
000545: 07,2506           11550        SURFREJ            CCS      MARKCNTR                              #  IF MARK DECREMENT COUNTER
000546: 07,2507           12511                           TCF      +2
000547: 07,2510           12466                           TCF      REJALM                                #  NO MARKS TO REJECT -- ALARM
000548: 07,2511           55550                           TS       MARKCNTR
000549: 07,2512           05270                           TC       RESUME
000550:


000552:                                                                                                  #  MARKTYPE TESTS TO SEE IF LEM ON LUNAR SURFACE.  IF IT IS RETURN TO LOC+1
000553:
000554: 07,2513           40104        MARKTYPE           CS       FLAGWRD8                              #  SURFFLAG ******** TEMPORARY ******
000555: 07,2514           74744                           MASK     BIT8
000556: 07,2515           10000                           CCS      A
000557: 07,2516           24002                           INCR     Q                                     #  IF SURFACE MARK RETURN TO LOC +1
000558: 07,2517           00002                           TC       Q                                     #  IF INFLIGHT MARK RETURN TO LOC +2
000559:
000560: 07,2520           34755        SURFSTOR           CAF      ZERO                                  #  FOR SURFACE MARK ZERO MARK KIND INDEX
000561: 07,2521           54070                           TS       RUPTREG1
000562:
000563: 07,2522           41307                           CS       MARKSTAT                              #  SET BITS 10,11 TO SHOW SURFACE MARK
000564: 07,2523           75015                           MASK     PRIO3                                 #  FOR MARKCHEX
000565: 07,2524           27307                           ADS      MARKSTAT
000566:
000567: 07,2525           35004        VACSTOR            CAF      LOW9
000568: 07,2526           71307                           MASK     MARKSTAT                              #  STORE MARK VAC ADR IN RUPTREG2
000569: 07,2527           54071                           TS       RUPTREG2
000570: 07,2530           00006                           EXTEND
000571: 07,2531           30062                           DCA      ITEMP1                                #  PICK UP MARKTIME
000572: 07,2532           53562                           DXCH     TSIGHT                                #  STORE LAST MARK TIME
000573: 07,2533           31550                           CA       MARKCNTR                              #  A X MARKCNTR FOR STORE INDEX
000574: 07,2534           00006                           EXTEND
000575: 07,2535           76245                           MP       SIX
000576: 07,2536           56001                           XCH      L                                     #  GET INDEX FROM LOW ORDER PART
000577: 07,2537           60071                           AD       RUPTREG2                              #  SET CDU STORE INDEX TO MARKVAC
000578: 07,2540           26070                           ADS      RUPTREG1                              #  INCREMENT VAC PICKUP BY MARK FOR FLIGHT
000579: 07,2541           55552                           TS       MKDEX                                 #  STORE HERE IN CASE OF SURFACE MARK
000580: 07,2542           30063                           CA       ITEMP3
000581: 07,2543           50070                           INDEX    RUPTREG1
000582: 07,2544           54000                           TS       0                                     #  STORE CDUY
000583: 07,2545           30064                           CA       ITEMP4
000584: 07,2546           50070                           INDEX    RUPTREG1
000585: 07,2547           54002                           TS       2                                     #  STORE CDUZ
000586: 07,2550           30065                           CA       ITEMP5
000587: 07,2551           50070                           INDEX    RUPTREG1
000588: 07,2552           54004                           TS       4                                     #  STORE CDUX
000589: 07,2553           02513                           TC       MARKTYPE                              #  IF SURFACE MARK -- JUST DO SURFJOB
000590: 07,2554           12603                           TCF      SURFJOB
000591:
000592: 07,2555           34737                           CAF      BIT13                                 #  CLEAR BIT13 TO SHOW MARK MADE
000593: 07,2556           61551                           AD       XYMARK                                #  SET MARK ID IN MARKSTAT
000594: 07,2557           40000                           COM
000595: 07,2560           71307                           MASK     MARKSTAT
000596: 07,2561           61551                           AD       XYMARK
000597: 07,2562           55307                           TS       MARKSTAT
000598: 07,2563           75015                           MASK     PRIO3                                 #  SEE IF X, Y MARK MADE
000599: 07,2564           54001                           TS       L
000600:


000602: 07,2565           35015                           CA       PRIO3
000603: 07,2566           00006                           EXTEND
000604: 07,2567           06001                           RXOR     LCHAN
000605: 07,2570           10000                           CCS      A
000606: 07,2571           12576                           TCF      REMARK                                #  NOT A PAIR YET, DISPLAY MARK ACTION
000607: 07,2572           41307                           CS       MARKSTAT                              #  MARK PAIR COMPLETE -- SET BIT14
000608: 07,2573           74736                           MASK     BIT14
000609: 07,2574           27307                           ADS      MARKSTAT
000610: 07,2575           12576                           TCF      REMARK                                #  GO DISPLAY V54
000611:


000613: 07,2576           35015        REMARK             CAF      PRIO3                                 #  BITS 10 AND 11
000614: 07,2577           71307                           MASK     MARKSTAT
000615: 07,2600           00006                           EXTEND
000616: 07,2601           74746                           MP       BIT6                                  #  SHIFT MARK IDS TO BE 0 TO 3 FOR INDEX
000617: 07,2602           55552                           TS       MKDEX                                 #  STORE VERB INDEX
000618: 07,2603           35025        SURFJOB            CAF      PRIO15
000619: 07,2604           05072                           TC       NOVAC                                 #  ENTER JOB TO CHANGE DISPLAY TO
000620: 07,2605  E7,1551                                  EBANK=   XYMARK                                #  REQUEST NEXT ACTION
000621: 07,2605           02610 16067                     2CADR    CHANGEVB
000622:
000623: 07,2607           05270                           TC       RESUME
000624:
000625: 07,2610           02513        CHANGEVB           TC       MARKTYPE
000626: 07,2611           12626                           TCF      DSPV6N79                              #  SURFACE -- DISPLAY V 06 N79
000627: 07,2612           51552                           INDEX    MKDEX                                 #  INFLIGHT -- PICK UP MARK VB INDEX
000628: 07,2613           32615                           CAF      MKVB54
000629: 07,2614           02211                           TC       PASTIT                                #  PASTE UP NEXT MK VERB DISPLAY
000630:
000631:                                                                                                  #  THE FOUR MKVBS ARE INDEXED -- THEIR ORDER CANNOT BE CHANGED
000632:
000633: 07,2615           15507        MKVB54             VN       5471                                  #  MAKE X OR Y MARK
000634: 07,2616           15307        MKVB53             VN       5371                                  #  MAKE Y MARK
000635: 07,2617           15107        MKVB52             VN       5271                                  #  MAKE X MARK
000636: 07,2620           15507        MKVB54*            VN       5471                                  #  MAKE X OR Y MARK
000637: 07,2621           04000 00000  DP1/8              2DEC     .125
000638:
000639: 07,2623           00034        OCT34              OCT      34
000640: 07,2624           01507        V06N71             VN       671
000641: 07,2625           01517        V06N79*            VN       679
000642:


000644:                                                                                                  #  ROUTINE TO REQUEST CURSOR AND SPIRAL MEASUREMENTS
000645: 07,2626                                           COUNT*   $$/R59
000646:
000647: 07,2626           32625        DSPV6N79           CAF      V06N79*                               #  CURSOR -- SPIRAL DISPLAY
000648: 07,2627           04616                           TC       BANKCALL
000649: 07,2630           20334                           CADR     GOMARKF
000650:
000651: 07,2631           12060                           TCF      KILLAOT                               #  V34 -- DOES GOTOP00H
000652: 07,2632           12640                           TCF      SURFEND                               #  V33 -- PROCEED, END MARKING
000653: 07,2633           34746                           CAF      BIT6                                  #  IF V32 (OCT40) IN MPAC DO RECYCLE
000654: 07,2634           70154                           MASK     MPAC                                  #  OTHERWISE IT IS LOAD VB ENTER SO
000655: 07,2635           10000                           CCS      A                                     #  RE-DISPLAY V06N79
000656: 07,2636           12644                           TCF      SURFAGAN                              #  VB32 -- RECYCLE
000657: 07,2637           12626                           TCF      DSPV6N79                              #  ENTER
000658:
000659: 07,2640           44736        SURFEND            CS       BIT14                                 #  SET BIT14 TO SHOW MARK END
000660: 07,2641           71307                           MASK     MARKSTAT
000661: 07,2642           64736                           AD       BIT14
000662: 07,2643           55307                           TS       MARKSTAT
000663:
000664: 07,2644           31235        SURFAGAN           CA       CURSOR
000665: 07,2645           51552                           INDEX    MKDEX                                 #  HOLDS VAC ARREA POINTER FOR SURF MARKING
000666: 07,2646           54001                           TS       1                                     #  STORE CURSOR SP 2COMP
000667: 07,2647           31237                           CA       SPIRAL
000668: 07,2650           51552                           INDEX    MKDEX
000669: 07,2651           54003                           TS       3                                     #  STORE SPIRAL
000670:
000671: 07,2652           41307                           CS       MARKSTAT                              #  IF BIT 14 SET -- END MARKING
000672: 07,2653           74736                           MASK     BIT14
000673: 07,2654           00006                           EXTEND
000674: 07,2655           12216                           BZF      MARKCHEX
000675: 07,2656           31550                           CA       MARKCNTR                              #  THIS IS RECYCLE -- SEE IF 5 MARKS ALREADY
000676: 07,2657           64753                           AD       ONE
000677: 07,2660           40000                           COM
000678: 07,2661           64756                           AD       FIVE
000679: 07,2662           00006                           EXTEND
000680: 07,2663           62453                           BZMF     5MKALARM                              #  CAN'T RECYCLE -- TOO MANY MARKS -- ALARM
000681: 07,2664           25550                           INCR     MARKCNTR                              #  OF FOR RECYCLE -- INCR COUNTER
000682: 07,2665           12205                           TCF      GETMKS     +3                         #  GO DISPLAY MARK VB
000683:

End of include-file AOTMARK.agc.  Parent file is MAIN.agc


