
Source Code


000002:                                                                                                  ## Copyright:   Public domain.
000003:                                                                                                  ## Filename:    ASCENT_GUIDANCE.agc
000004:                                                                                                  ## Purpose:     A section of Luminary 1C, revision 131.
000005:                                                                                                  ##              It is part of the source code for the Lunar Module's (LM)
000006:                                                                                                  ##              Apollo Guidance Computer (AGC) for Apollo 13.
000007:                                                                                                  ##              This file is intended to be a faithful transcription, except
000008:                                                                                                  ##              that the code format has been changed to conform to the
000009:                                                                                                  ##              requirements of the yaYUL assembler rather than the
000010:                                                                                                  ##              original YUL assembler.
000011:                                                                                                  ## Reference:   pp. 836-851
000012:                                                                                                  ## Contact:     Ron Burkey <info@sandroid.org>.
000013:                                                                                                  ## Website:     www.ibiblio.org/apollo/index.html
000014:                                                                                                  ## Mod history: 05/26/03 RSB.   Began transcribing.
000015:                                                                                                  ##              05/14/05 RSB    Corrected website reference above.
000016:                                                                                                  ##              2010-10-25 JL   Added missing # in comments.
000017:                                                                                                  ##              2017-01-06 RSB  Page numbers now agree with those on the
000018:                                                                                                  ##                              original hardcopy, as opposed to the PDF page
000019:                                                                                                  ##                              numbers in 1701.pdf.
000020:                                                                                                  ##              2017-02-26 RSB  Proofed comment text using octopus/ProoferComments.
000021:                                                                                                  ##              2017-03-01 RSB  Fixed lingering typos.
000022:


000024: 34,3372                                           BANK     34
000025: 34,2000                                           SETLOC   ASCFILT
000026: 34,2000                                           BANK
000027:
000028: 34,3372  E7,1515                                  EBANK=   DVCNTR
000029:
000030: 34,3372                                           COUNT*   $$/ASENT
000031:
000032: 34,3372           05353        ATMAG              TC       PHASCHNG
000033: 34,3373           00035                           OCT      00035
000034: 34,3374           06042                           TC       INTPRET
000035: 34,3375           77614                           BON
000036: 34,3376           04705                                    FLRCS
000037: 34,3377           60315                                    ASCENT
000038: 34,3400           45345                           DLOAD    DSU
000039: 34,3401           03514                                    ABDVCONV
000040: 34,3402           26203                                    MINABDV
000041: 34,3403           43040                           BMN      CLEAR
000042: 34,3404           60756                                    ASCTERM4
000043: 34,3405           04267                                    SURFFLAG
000044: 34,3406           67214                           CLEAR    SLOAD
000045: 34,3407           02676                                    RENDWFLG
000046: 34,3410           31446                                    BIT3H
000047: 34,3411           77471                           DDV      EXIT
000048: 34,3412           03514                                    ABDVCONV
000049: 34,3413           52155                           DXCH     MPAC
000050: 34,3414           53641                           DXCH     1/DV3
000051: 34,3415           53637                           DXCH     1/DV2
000052: 34,3416           53635                           DXCH     1/DV1
000053: 34,3417           53571                           DXCH     1/DV0
000054: 34,3420           06042                           TC       INTPRET
000055: 34,3421           43345                           DLOAD    DAD
000056: 34,3422           03571                                    1/DV0
000057: 34,3423           03635                                    1/DV1
000058: 34,3424           43215                           DAD      DAD
000059: 34,3425           03637                                    1/DV2
000060: 34,3426           03641                                    1/DV3
000061: 34,3427           41205                           DMP      DMP
000062: 34,3430           02265                                    VE
000063: 34,3431           21017                                    2SEC(9)
000064: 34,3432           65252                           SL3      PDDL
000065: 34,3433           02271                                    TBUP
000066: 34,3434           43342                           SR1      DAD
000067: 34,3435           77625                           DSU
000068: 34,3436           21014                                    6SEC(18)
000069: 34,3437           16271                           STODL    TBUP
000070: 34,3440           02265                                    VE
000071: 34,3441           56342                           SR1      DDV
000072: 34,3442           02271                                    TBUP
000073: 34,3443           36263                           STCALL   AT


000075: 34,3444           60315                                    ASCENT
000076: 34,3445           00004        BIT3H              OCT      4
000077:


000079: 30,2315                                           BANK     30
000080: 30,2000                                           SETLOC   ASENT
000081: 30,2000                                           BANK
000082: 30,2315                                           COUNT*   $$/ASENT
000083:
000084: 30,2315           51575        ASCENT             VLOAD    ABVAL
000085: 30,2316           03521                                    R
000086: 30,2317           26301                           STOVL    /R/MAG
000087: 30,2320           03726                                    ZAXIS1
000088: 30,2321           72441                           DOT      SL1
000089: 30,2322           03527                                    V                                     #  Z.V = ZDOT*2(-8).
000090: 30,2323           26313                           STOVL    ZDOT                                  #  ZDOT*2(-7)
000091: 30,2324           03726                                    ZAXIS1
000092: 30,2325           76435                           VXV      VSL1
000093: 30,2326           03537                                    UNIT/R/                               #  Z X UR = LAXIS*2(-2)
000094: 30,2327           02303                           STORE    LAXIS                                 #  LAXIS*2(-1)
000095: 30,2330           72441                           DOT      SL1
000096: 30,2331           03527                                    V                                     #  L.V = YDOT*2(-8).
000097: 30,2332           36311                           STCALL   YDOT                                  #  YDOT * 2(-7)
000098: 30,2333           57313                                    YCOMP
000099: 30,2334           77775                           VLOAD
000100: 30,2335           03563                                    GDT1/2                                #  LOAD GDT1/2*2(-7) M/CS.
000101: 30,2336           50341                           V/SC     DOT
000102: 30,2337           27104                                    2SEC(18)
000103: 30,2340           03537                                    UNIT/R/                               #  G.UR*2(9) = GR*2(9).
000104: 30,2341           47315                           PDVL     VXV                                   #  STORE IN PDL(0)                       (2)
000105: 30,2342           03537                                    UNIT/R/                               #  LOAD UNIT/R/ *2(-1).
000106: 30,2343           03527                                    V                                     #  UR*2(-1) X V*2(-7) = H/R*2(-8).
000107: 30,2344           56236                           VSQ      DDV                                   #  H(2)/R(2)*2(-16).
000108: 30,2345           02301                                    /R/MAG                                #  H(2)/R(3)*2(9).
000109: 30,2346           43352                           SL1      DAD
000110: 30,2347           77626                           STADR
000111: 30,2350           75462                           STORE    GEFF                                  #  GEFF*2(10) M/CS/CS
000112: 30,2351           45014                           BOFF     CALL                                  #  IF P7071FLG = 1 (I.E. P70 OR P71)
000113: 30,2352           04742                                    P7071FLG                              #        CALL ZDOTDCMP TO UPDATE ZDOTD
000114: 30,2353           60355                                    +2                                    #        ON THE BASIS OF THE LAST RP.
000115: 30,2354           71524                                    ZDOTDCMP
000116: 30,2355           45345                 +2        DLOAD    DSU
000117: 30,2356           02277                                    ZDOTD
000118: 30,2357           02313                                    ZDOT
000119: 30,2360           02343                           STORE    DZDOT                                 #  DZDOT = (ZDOTD - ZDOT) * 2(7) M/CS.
000120: 30,2361           65361                           VXSC     PDDL
000121: 30,2362           03726                                    ZAXIS1
000122: 30,2363           02275                                    YDOTD
000123: 30,2364           77625                           DSU
000124: 30,2365           02311                                    YDOT


000126: 30,2366           02341                           STORE    DYDOT                                 #  DYDOT = (YDOTD - YDOT) *2(7) M/CS.
000127: 30,2367           65361                           VXSC     PDDL
000128: 30,2370           02303                                    LAXIS
000129: 30,2371           02273                                    RDOTD
000130: 30,2372           77625                           DSU
000131: 30,2373           03474                                    RDOT
000132: 30,2374           02337                           STORE    DRDOT                                 #  DRDOT = (RDOTD - RDOT) * 2(7) M/CS.
000133: 30,2375           53361                           VXSC     VAD
000134: 30,2376           03537                                    UNIT/R/
000135: 30,2377           76455                           VAD      VSL1
000136: 30,2400           77626                           STADR
000137: 30,2401           74131                           STORE    VGVECT                                #  VG = (DRDOT)R + (DVDOT)L + (DZDOT)Z.
000138: 30,2402           41345                           DLOAD    DMP                                   #  LOAD TGO
000139: 30,2403           03517                                    TGO                                   #  TGO GEFF
000140: 30,2404           02315                                    GEFF
000141: 30,2405           76561                           VXSC     VSL1
000142: 30,2406           03537                                    UNIT/R/                               #  TGO GEFF UR
000143: 30,2407           77645                           BVSU
000144: 30,2410           03646                                    VGVECT                                #  COMPENSATED FOR GEFF
000145: 30,2411           03646                           STORE    VGVECT                                #  STORE FOR DOWNLINK
000146: 30,2412           76521                           MXV      VSL1                                  #  GET VGBODY FOR N85 DISPLAY
000147: 30,2413           02146                                    XNBPIP
000148: 30,2414           27502                           STOVL    VGBODY
000149: 30,2415           03646                                    VGVECT
000150: 30,2416           43046                           ABVAL    BOFF                                  #  MAGNITUDE OF VGVECT
000151: 30,2417           04745                                    FLRCS                                 #  IF FLRCS=0,D0 NORMAL GUIDANCE
000152: 30,2420           60427                                    MAINENG
000153: 30,2421           77671                           DDV                                            #  USE TGO=VG/AT WITH RCS
000154: 30,2422           20001                                    AT/RCS
000155: 30,2423           37517                           STCALL   TGO                                   #  THIS WILL BE USED ON NEXT CYCLE
000156: 30,2424           71475                                    RPCOMP1                               #  COMPUTE NEW RP FOR NEXT CYCLE.
000157: 30,2425           77650                           GOTO
000158: 30,2426           60754                                    ASCTERM2
000159: 30,2427           41471        MAINENG            DDV      PUSH                                  #  VG/VE IN PDL(0)               (2)
000160: 30,2430           02265                                    VE
000161: 30,2431           44342                           SR1      BDSU                                  #  1 - VG / 2 VE
000162: 30,2432           17772                                    NEARONE
000163: 30,2433           41205                           DMP      DMP                                   #  TBUP VG(1-KT VG/VE)/VE        (0)
000164: 30,2434           02271                                    TBUP                                  #        = TGO
000165: 30,2435           77625                           DSU                                            #  COMPENSATE FOR TAILOFF
000166: 30,2436           02267                                    TTO
000167: 30,2437           03517                           STORE    TGO
000168: 30,2440           57461                           SR       DCOMP
000169: 30,2441           20614                                    11D
000170: 30,2442           17454                           STODL    TTOGO                                 #  TGO *2(-28) CS
000171: 30,2443           03517                                    TGO
000172: 30,2444           45214                           BON      DSU
000173: 30,2445           03710                                    IDLEFLAG
000174: 30,2446           60452                                    T2TEST
000175: 30,2447           21006                                    4SEC(17)                              #  ( TGO - 4 )*2(-17) CS.
000176:


000178: 30,2450           77640                           BMN
000179: 30,2451           30347                                    ENGOFF
000180: 30,2452           77745        T2TEST             DLOAD
000181: 30,2453           03517                                    TGO
000182: 30,2454           50025                           DSU      BMN                                   #  IF TGO - T2 NEG., GO TO CMPONENT
000183: 30,2455           21010                                    T2A
000184: 30,2456           60612                                    CMPONENT
000185: 30,2457           45345                           DLOAD    DSU
000186: 30,2460           02271                                    TBUP
000187: 30,2461           03517                                    TGO
000188: 30,2462           45071                           DDV      CALL                                  #  1- TGO/TBUP
000189: 30,2463           02271                                    TBUP
000190: 30,2464           61023                                    LOGSUB
000191: 30,2465           41461                           SL       PUSH                                  #  -L IN PDL(0)                  (2)
000192: 30,2466           20206                                    5
000193: 30,2467           44265                           BDDV     BDSU                                  #  -TGO/L*2(-17)
000194: 30,2470           03517                                    TGO
000195: 30,2471           02271                                    TBUP                                  #  TBUP + TGO/L = D12*2(-17)
000196: 30,2472           43006                           PUSH     BON                                   #  STORE IN PDL(2)               (4)
000197: 30,2473           04703                                    FLPC                                  #  IF FLPC = 1, GO TO CONST
000198: 30,2474           60503                                    NORATES
000199: 30,2475           45345                           DLOAD    DSU
000200: 30,2476           03517                                    TGO
000201: 30,2477           21012                                    T3
000202: 30,2500           43044                           BPL      SET                                   #  FLPC=1
000203: 30,2501           60510                                    RATES
000204: 30,2502           04463                                    FLPC
000205: 30,2503           77745        NORATES            DLOAD
000206: 30,2504           06524                                    HI6ZEROS
000207: 30,2505           02351                           STORE    PRATE                                 #  B = 0
000208: 30,2506           36353                           STCALL   YRATE                                 #  D = 0
000209: 30,2507           60572                                    CONST                                 #  GO TO CONST
000210: 30,2510           45345        RATES              DLOAD    DSU
000211: 30,2511           03517                                    TGO
000212: 30,2512           00003                                    02D                                   #  TGO - D12 = D21*2(-17)
000213: 30,2513           72406                           PUSH     SL1                                   #  IN PDL(4)                     (6)
000214: 30,2514           52421                           BDSU     SL3                                   #  (1/2TGO - D21)*2(-13) = E * 2(-13)
000215: 30,2515           03517                                    TGO                                   #                                (8)
000216: 30,2516           41325                           PDDL     DMP                                   #  IN PDL(6)
000217: 30,2517           03517                                    TGO
000218: 30,2520           03474                                    RDOT                                  #  RDOT TGO * 2(-24)
000219: 30,2521           45215                           DAD      DSU                                   #  R + RDOT TGO
000220: 30,2522           02301                                    /R/MAG                                #  R + RDOT TGO - RCO
000221: 30,2523           03631                                    RCO                                   #  MPAC = -DR *2(-24).
000222: 30,2524           41325                           PDDL     DMP                                   #  -DR IN PDL(8)                 (10)
000223: 30,2525           02337                                    DRDOT
000224: 30,2526           00005                                    04D                                   #  D21 DRDOT*2(-24)
000225: 30,2527           62415                           DAD      SL2                                   #  (D21 DRDOT-DR)*2(-22)                 (8)
000226: 30,2530           56271                           DDV      DDV
000227: 30,2531           00007                                    06D                                   #  (D21 DRDOT-DR)/E*2(-9)


000229: 30,2532           03517                                    TGO
000230: 30,2533           02351                           STORE    PRATE                                 #  B * 2(8)
000231: 30,2534           71240                           BMN      DLOAD                                 #  B>0 NOT PERMITTED
000232: 30,2535           60541                                    CHKBMAG
000233: 30,2536           06524                                    HI6ZEROS
000234: 30,2537           36351                           STCALL   PRATE
000235: 30,2540           60553                                    PROK
000236: 30,2541           56202        CHKBMAG            SR4      DDV                                   #  B*2(4)
000237: 30,2542           02271                                    TBUP                                  #  (B / TAU) * 2(21)
000238: 30,2543           51025                           DSU      BPL
000239: 30,2544           26201                                    PRLIMIT                               #  ( B / TAU ) = 2(21) MAX.
000240: 30,2545           60553                                    PROK
000241: 30,2546           41345                           DLOAD    DMP
000242: 30,2547           26201                                    PRLIMIT
000243: 30,2550           02271                                    TBUP                                  #  B MAX. * 2(4)
000244: 30,2551           77612                           SL4                                            #  BMAX*2(8)
000245: 30,2552           02351                           STORE    PRATE
000246: 30,2553           77745        PROK               DLOAD
000247: 30,2554           03517                                    TGO
000248: 30,2555           43205                           DMP      DAD                                   #  YDOT TGO
000249: 30,2556           02311                                    YDOT
000250: 30,2557           02335                                    Y                                     #  Y + YDOT TGO
000251: 30,2560           65225                           DSU      PDDL                                  #  Y + YDOT TGO - YCO
000252: 30,2561           03633                                    YCO                                   #  MPAC = - DY*2(-24.) IN PDL(8)         (10)
000253: 30,2562           02341                                    DYDOT
000254: 30,2563           43205                           DMP      DAD                                   #  D21 DYDOT - DY                        (8)
000255: 30,2564           00005                                    04D
000256: 30,2565           56312                           SL2      DDV                                   #  (D21 DYDOT - DY)/E*2(-9)
000257: 30,2566           40271                           DDV      SETPD                                 #  (D21 DYDOT - DY)/E TGO*2(8)
000258: 30,2567           03517                                    TGO                                   #        = D*2(8)
000259: 30,2570           00005                                    04
000260: 30,2571           02353                           STORE    YRATE
000261: 30,2572           41345        CONST              DLOAD    DMP                                   #  LOAD B*2(8)
000262: 30,2573           02351                                    PRATE                                 #  B D12*2(-9)
000263: 30,2574           00003                                    02D
000264: 30,2575           56325                           PDDL     DDV                                   #  D12 B IN PDL(4)                       (6)
000265: 30,2576           02337                                    DRDOT                                 #  LOAD DRDOT*2(-7)
000266: 30,2577           00001                                    00D                                   #  -DRDOT/L*2(-7)
000267: 30,2600           45302                           SR2      DSU                                   #  (-DRDOT/L-D12 B)=A*2(-9)              (4)
000268: 30,2601           77626                           STADR
000269: 30,2602           61432                           STODL    PCONS
000270: 30,2603           02353                                    YRATE                                 #  D*2(8)
000271: 30,2604           65205                           DMP      PDDL                                  #  D12 D,EXCH WITH -L IN PDL(0)          (2,2)
000272: 30,2605           60465                           BDDV     SR2                                   #  -DYDOT/L*2(-9)
000273: 30,2606           02341                                    DYDOT
000274: 30,2607           77625                           DSU                                            #  (-DYDOT/L-D12 D)=C*2(-9)
000275: 30,2610           00001                                    00D
000276: 30,2611           02347                           STORE    YCONS
000277: 30,2612           43001        CMPONENT           SETPD    BOFF
000278: 30,2613           00001                                    00D


000280: 30,2614           04742                                    P7071FLG
000281: 30,2615           60620                                    +3                                    #  IF P7071FLG = 1 (I.E. P70 OR P71)
000282: 30,2616           77624                           CALL                                           #        COMPUTE NEW RP FOR NEXT CYCLE.
000283: 30,2617           71501                                    RPCOMP2
000284: 30,2620           41345                 +3        DLOAD    DMP
000285: 30,2621           27104                                    100CS
000286: 30,2622           02351                                    PRATE                                 #  B(T-T0)*2(-9)
000287: 30,2623           56215                           DAD      DDV                                   #  (A+B(T-T0))*2(-9)
000288: 30,2624           02345                                    PCONS                                 #  (A+B(T-T0))/TBUP*2(8)
000289: 30,2625           02271                                    TBUP
000290: 30,2626           45352                           SL1      DSU
000291: 30,2627           02315                                    GEFF                                  #  ATR*2(9)
000292: 30,2630           16357                           STODL    ATR
000293: 30,2631           27104                                    100CS
000294: 30,2632           43205                           DMP      DAD
000295: 30,2633           02353                                    YRATE
000296: 30,2634           02347                                    YCONS                                 #  (C+D(T-T0))*2(-9)
000297: 30,2635           72471                           DDV      SL1
000298: 30,2636           02271                                    TBUP
000299: 30,2637           02355                           STORE    ATY                                   #  ATY*2(9)
000300: 30,2640           65361                           VXSC     PDDL                                  #  ATY UY*2(8)           (6)
000301: 30,2641           02303                                    LAXIS
000302: 30,2642           02357                                    ATR
000303: 30,2643           53361                           VXSC     VAD                                   #                        (0)
000304: 30,2644           03537                                    UNIT/R/
000305: 30,2645           41572                           VSL1     PUSH                                  #  AH*2(9) IN PDL(0)     (6)
000306: 30,2646           65246                           ABVAL    PDDL                                  #  AH(2) IN PDL(34)
000307: 30,2647           02263                                    AT                                    #  AHMAG IN PDL(6)       (8)
000308: 30,2650           45316                           DSQ      DSU                                   #  (AT(2)-AH(2))*2(18)
000309: 30,2651           00043                                    34D                                   #  =ATP2*2(18)
000310: 30,2652           41525                           PDDL     PUSH                                  #                        (12)
000311: 30,2653           02263                                    AT
000312: 30,2654           45316                           DSQ      DSU                                   #  (AT(2)KR(2)-AH(2))*2(18)      (10)
000313: 30,2655           00043                                    34D                                   #  =ATP3*2(18)
000314: 30,2656           71240                           BMN      DLOAD                                 #  IF ATP3 NEG,GO TO NO-ATP
000315: 30,2657           60663                                    NO-ATP                                #  LOAD ATP2, IF ATP3 POS
000316: 30,2660           00011                                    8D
000317: 30,2661           52166                           SQRT     GOTO                                  #  ATP*2(9)
000318: 30,2662           60671                                    AIMER
000319: 30,2663           55345        NO-ATP             DLOAD    BDDV                                  #  KR AT/AH = KH         (8)
000320: 30,2664           00007                                    6D
000321: 30,2665           77761                           VXSC                                           #  KH AH*2(9)
000322: 30,2666           00001                                    00D
000323: 30,2667           14001                           STODL    00D                                   #  STORE NEW AH IN PDL(0)
000324: 30,2670           06524                                    HI6ZEROS
000325: 30,2671           77765        AIMER              SIGN
000326: 30,2672           02343                                    DZDOT
000327: 30,2673           02361                           STORE    ATP
000328: 30,2674           77761                           VXSC
000329: 30,2675           03726                                    ZAXIS1                                #  ATP ZAXIS *2(8).


000331: 30,2676           53372                           VSL1     VAD                                   #  AT*2(9)
000332: 30,2677           00001                                    00D
000333: 30,2700           03253                           STORE    UNFC/2                                #  WILL BE OVERWRITTEN IF IN VERT. RISE.
000334: 30,2701           43001                           SETPD    BON
000335: 30,2702           00001                                    00D
000336: 30,2703           04704                                    FLPI
000337: 30,2704           60216                                    P12RET
000338: 30,2705           77614                           BON
000339: 30,2706           04701                                    FLVR
000340: 30,2707           60763                                    CHECKALT
000341: 30,2710           57575        MAINLINE           VLOAD    VCOMP
000342: 30,2711           03537                                    UNIT/R/
000343: 30,2712           17261                           STODL    UNWC/2
000344: 30,2713           03654                                    TXO
000345: 30,2714           51025                           DSU      BPL
000346: 30,2715           01234                                    PIPTIME
000347: 30,2716           60730                                    ASCTERM
000348: 30,2717           77614                           BON
000349: 30,2720           04711                                    ROTFLAG
000350: 30,2721           57273                                    ANG1CHEK
000351: 30,2722           43014        CLRXFLAG           CLEAR    BON                                   #  ALLOW X-AXIS OVERRIDE
000352: 30,2723           06666                                    XOVINFLG
000353: 30,2724           04702                                    P7071FLG                              #  ONLY ACTIVATE R29 IF IN P12.
000354: 30,2725           60730                                    ASCTERM
000355: 30,2726           77614                           CLEAR
000356: 30,2727           01664                                    NOR29FLG
000357: 30,2730           77776        ASCTERM            EXIT
000358: 30,2731           30105                           CA       FLAGWRD9
000359: 30,2732           74742                           MASK     FLRCSBIT
000360: 30,2733           10000                           CCS      A
000361: 30,2734           12755                           TCF      ASCTERM3
000362: 30,2735           06042                           TC       INTPRET
000363: 30,2736           77624                           CALL
000364: 30,2737           61100                                    FINDCDUW   -2
000365: 30,2740           77776        ASCTERM1           EXIT
000366: 30,2741           30105                 +1        CA       FLAGWRD9                              #  INSURE THAT THE NOUN 63 DISPLAY IS
000367: 30,2742           74742                           MASK     FLRCSBIT                              #  BYPASSED IF WE ARE IN THE RCS TRIMMING
000368: 30,2743           10000                           CCS      A                                     #  MODE OF OPERATION
000369: 30,2744           12755                           TCF      ASCTERM3
000370: 30,2745           30104                           CA       FLAGWRD8                              #  BYPASS DISPLAYS IF ENGINE FAILURE IS
000371: 30,2746           74742                           MASK     FLUNDBIT                              #  INDICATED.
000372: 30,2747           10000                           CCS      A
000373: 30,2750           12755                           TCF      ASCTERM3
000374: 30,2751           33020                           CAF      V06N63*
000375: 30,2752           04616                           TC       BANKCALL
000376: 30,2753           20444                           CADR     GODSP
000377: 30,2754           77776        ASCTERM2           EXIT
000378: 30,2755           15155        ASCTERM3           TCF      ENDOFJOB
000379: 30,2756           77776        ASCTERM4           EXIT
000380: 30,2757           00004                           INHINT


000382: 30,2760           04674                           TC       IBNKCALL                              #  NO GUIDANCE THIS CYCLE -- HENCE ZERO
000383: 30,2761           40166                           CADR     STOPRATE                              #  THE DAP COMMANDED RATES.
000384: 30,2762           12741                           TCF      ASCTERM1   +1
000385:
000386: 30,2763           45345        CHECKALT           DLOAD    DSU
000387: 30,2764           02301                                    /R/MAG
000388: 30,2765           02333                                    /LAND/
000389: 30,2766           50025                           DSU      BMN                                   #  IF H LT 25K CHECK Z AXIS ORIENTATION.
000390: 30,2767           26205                                    25KFT
000391: 30,2770           16666                                    CHECKYAW
000392: 30,2771           43014        EXITVR             CLEAR    BON
000393: 30,2772           04661                                    FLVR
000394: 30,2773           04711                                    ROTFLAG
000395: 30,2774           60710                                    MAINLINE
000396: 30,2775           43345                           DLOAD    DAD
000397: 30,2776           01234                                    PIPTIME
000398: 30,2777           25734                                    10SECS
000399: 30,3000           37654                           STCALL   TXO
000400: 30,3001           60710                                    MAINLINE
000401: 30,3002           77614        EXITVR1            CLRGO
000402: 30,3003           04631                                    ROTFLAG
000403: 30,3004           60771                                    EXITVR
000404:
000405: 27,2000                                           SETLOC   ASENT1
000406: 27,2000                                           BANK
000407: 27,3273                                           COUNT*   $$/ASENT
000408:
000409: 27,3273           53575        ANG1CHEK           VLOAD    UNIT
000410: 27,3274           03253                                    UNFC/2
000411: 27,3275           77641                           DOT
000412: 27,3276           02146                                    XNBPIP
000413: 27,3277           51025                           DSU      BPL
000414: 27,3300           02571                                    COSTHET1
000415: 27,3301           57310                                    OFFROT
000416: 27,3302           50375                           VLOAD    DOT
000417: 27,3303           02146                                    XNBPIP
000418: 27,3304           03537                                    UNIT/R/
000419: 27,3305           50025                           DSU      BMN
000420: 27,3306           02573                                    COSTHET2
000421: 27,3307           71450                                    KEEPVR1
000422: 27,3310           77614        OFFROT             CLRGO
000423: 27,3311           04631                                    ROTFLAG
000424: 27,3312           60722                                    CLRXFLAG
000425:
000426: 07,2666                                           BANK     7
000427: 07,2000                                           SETLOC   ASENT2
000428: 07,2000                                           BANK
000429: 07,2666                                           COUNT*   $$/ASENT
000430:
000431: 07,2666  07,2666               SETXFLAG           =        CHECKYAW
000432:


000434: 07,2666           77614        CHECKYAW           SET
000435: 07,2667           06466                                    XOVINFLG                              #  PROHIBIT X-AXIS OVERRIDE
000436: 07,2670           74345                           DLOAD    VXSC
000437: 07,2671           02355                                    ATY
000438: 07,2672           02303                                    LAXIS
000439: 07,2673           74325                           PDDL     VXSC
000440: 07,2674           02361                                    ATP
000441: 07,2675           03726                                    ZAXIS1
000442: 07,2676           53455                           VAD      UNIT
000443: 07,2677           45325                           PDDL     DSU
000444: 07,2700           03474                                    RDOT
000445: 07,2701           13504                                    40FPS
000446: 07,2702           52044                           BPL      GOTO
000447: 07,2703           61002                                    EXITVR1
000448: 07,2704           71446                                    KEEPVR
000449:
000450: 05,3503                                           BANK     5
000451: 05,2000                                           SETLOC   ASENT3
000452: 05,2000                                           BANK
000453: 05,3503                                           COUNT*   $$/ASENT
000454:
000455: 05,3503           00017 23305  40FPS              2DEC     0.12192    B-7
000456:
000457: 34,3446                                           BANK     34
000458: 34,2000                                           SETLOC   ASENT8
000459: 34,2000                                           BANK
000460: 34,3446                                           COUNT*   $$/ASENT
000461:
000462: 34,3446           45575        KEEPVR             VLOAD    STADR                                 #  RECALL LOSVEC FROM PUSHLIST
000463: 34,3447           74516                           STORE    UNWC/2
000464: 34,3450           77775        KEEPVR1            VLOAD
000465: 34,3451           03537                                    UNIT/R/
000466: 34,3452           37253                           STCALL   UNFC/2
000467: 34,3453           60730                                    ASCTERM
000468:
000469: 14,2347                                           BANK     14
000470: 14,2000                                           SETLOC   ASENT4
000471: 14,2000                                           BANK
000472: 14,2347                                           COUNT*   $$/ASENT
000473:
000474: 14,2347           77634        ENGOFF             RTB
000475: 14,2350           21574                                    LOADTIME
000476: 14,2351           43225                           DSU      DAD
000477: 14,2352           01234                                    PIPTIME
000478: 14,2353           03454                                    TTOGO
000479: 14,2354           77476                           DCOMP    EXIT
000480: 14,2355           07262                           TC       TPAGREE                               #  FORCE SIGN AGREEMENT ON MPAC, MPAC +1.
000481: 14,2356           35016                           CAF      EBANK7
000482: 14,2357           54003                           TS       EBANK


000484: 14,2360  E7,1516                                  EBANK=   TGO
000485: 14,2360           00004                           INHINT
000486: 14,2361           10155                           CCS      MPAC       +1
000487: 14,2362           12365                           TCF      +3                                    #  C(A) = DT - 1 BIT
000488: 14,2363           12365                           TCF      +2                                    #  C(A) = 0
000489: 14,2364           34755                           CAF      ZERO                                  #  C(A) = 0
000490: 14,2365           64753                           AD       BIT1                                  #  C(A) = 1 BIT OR DT.
000491: 14,2366           55644                           TS       ENGOFFDT
000492: 14,2367           05173                           TC       TWIDDLE
000493: 14,2370           02402                           ADRES    ENGOFF1
000494: 14,2371           05353                           TC       PHASCHNG
000495: 14,2372           47014                           OCT      47014
000496: 14,2373           76133                           -GENADR  ENGOFFDT
000497: 14,2374  E7,1516                                  EBANK=   TGO
000498: 14,2374           02402 30067                     2CADR    ENGOFF1
000499:
000500: 14,2376           06042                           TC       INTPRET
000501: 14,2377           52014                           SET      GOTO
000502: 14,2400           03470                                    IDLEFLAG                              #  DISABLE DELTA-V MONITOR
000503: 14,2401           60452                                    T2TEST
000504:
000505: 14,2402           04674        ENGOFF1            TC       IBNKCALL                              #  SHUT OFF THE ENGINE.
000506: 14,2403           75555                           CADR     ENGINOF2
000507:
000508: 14,2404           35027                           CAF      PRIO17                                #  SET UP A JOB FOR THE ASCENT GUIDANCE
000509: 14,2405           05105                           TC       FINDVAC                               #  POSTBURN LOGIC.
000510: 14,2406  E7,1455                                  EBANK=   WHICH
000511: 14,2406           02416 30067                     2CADR    CUTOFF
000512:
000513: 14,2410           05353                           TC       PHASCHNG
000514: 14,2411           07024                           OCT      07024
000515: 14,2412           17000                           OCT      17000
000516: 14,2413  E7,1516                                  EBANK=   TGO
000517: 14,2413           02416 30067                     2CADR    CUTOFF
000518:
000519: 14,2415           15261                           TCF      TASKOVER
000520:
000521: 14,2416           05504        CUTOFF             TC       UPFLAG                                #  SET FLRCS FLAG.
000522: 14,2417           00214                           ADRES    FLRCS
000523:
000524: 14,2420           32437                 -5        CAF      V16N63
000525: 14,2421           04616                           TC       BANKCALL
000526: 14,2422           20477                           CADR     GOFLASH
000527: 14,2423           12426                           TCF      +3
000528: 14,2424           12430                           TCF      CUTOFF1
000529: 14,2425           12420                           TCF      -5
000530:
000531: 14,2426           04635                 +3        TC       POSTJUMP
000532: 14,2427           71464                           CADR     TERMASC


000534:
000535: 14,2430           00004        CUTOFF1            INHINT
000536: 14,2431           04674                           TC       IBNKCALL                              #  ZERO ATTITUDE ERRORS BEFORE REDUCING DB.
000537: 14,2432           40154                           CADR     ZATTEROR
000538: 14,2433           04674                           TC       IBNKCALL
000539: 14,2434           40141                           CADR     SETMINDB
000540: 14,2435           04635                           TC       POSTJUMP
000541: 14,2436           71454                           CADR     CUTOFF2
000542:
000543: 14,2437           04077        V16N63             VN       1663
000544: 34,3454                                           BANK     34
000545: 34,2000                                           SETLOC   ASENT8
000546: 34,2000                                           BANK
000547: 34,3454                                           COUNT*   $$/ASENT
000548:
000549: 34,3454           05353        CUTOFF2            TC       PHASCHNG
000550: 34,3455           04024                           OCT      04024
000551:
000552: 34,3456           33474                           CAF      V16N85C
000553: 34,3457           04616                           TC       BANKCALL
000554: 34,3460           20477                           CADR     GOFLASH
000555: 34,3461           13464                           TCF      TERMASC
000556: 34,3462           13464                           TCF      +2                                    #  PROCEED
000557: 34,3463           13454                           TCF      CUTOFF2
000558:
000559: 34,3464           05353        TERMASC            TC       PHASCHNG
000560: 34,3465           04024                           OCT      04024
000561:
000562: 34,3466           00004                           INHINT                                         #  RESTORE DEADBAND DESIRED BY ASTRONAUT.
000563: 34,3467           04674                           TC       IBNKCALL
000564: 34,3470           40115                           CADR     RESTORDB
000565: 34,3471           05516                           TC       DOWNFLAG                              #  DISALLOW ABORTS AT THIS TIME.
000566: 34,3472           00215                           ADRES    LETABORT
000567: 34,3473           16001                           TCF      GOTOPOOH
000568:
000569: 34,3474           04125        V16N85C            VN       1685
000570:
000571: 34,3475           77745        RPCOMP1            DLOAD                                          #  FLRCS = 1 (TRIM MODE)
000572: 34,3476           06524                                    HI6ZEROS
000573: 34,3477           02345                           STORE    PCONS                                 #  SET PCONS = PRATE = 0 SO THAT
000574: 34,3500           02351                           STORE    PRATE                                 #      RP = R + RDOT TGO
000575: 34,3501           41345        RPCOMP2            DLOAD    DMP                                   #  FLRCS = 0 (GUIDANCE MODE)
000576: 34,3502           02351                                    PRATE                                 #  LEAVE PCONS AND PRATE ALONE SO THAT
000577: 34,3503           03517                                    TGO                                   #        RP = R + RDOT TGO + (PCONS*TGO**2)/
000578: 34,3504           43205                           DMP      DAD                                   #        (2 TBUP) + (PRATE*TGO**3)/(6 TBUP)
000579: 34,3505           33645                                    THIRD
000580: 34,3506           02345                                    PCONS
000581: 34,3507           41205                           DMP      DMP
000582: 34,3510           03517                                    TGO
000583: 34,3511           03517                                    TGO
000584: 34,3512           72471                           DDV      SL1


000586: 34,3513           02271                                    TBUP
000587: 34,3514           65215                           DAD      PDDL
000588: 34,3515           02301                                    /R/MAG
000589: 34,3516           03474                                    RDOT
000590: 34,3517           43205                           DMP      DAD
000591: 34,3520           03517                                    TGO
000592: 34,3521           77626                           STADR
000593: 34,3522           75152                           STORE    RP
000594: 34,3523           77616                           RVQ
000595:
000596: 34,3524           45020        ZDOTDCMP           STQ      CALL                                  #  COMPUTE CENTRAL ANGLE         (0)
000597: 34,3525           02574                                    ASCSAVE
000598: 34,3526           71554                                    THETCOMP
000599: 34,3527           43205                           DMP      DAD                                   #  CENTRAL ANGLE IN MPAC
000600: 34,3530           02623                                    KPARM
000601: 34,3531           02621                                    JPARM
000602: 34,3532           41425                           DSU      PUSH                                  #  RA IN MPAC AND IN PUSHLIST    (2)
000603: 34,3533           02625                                    RP
000604: 34,3534           51025                           DSU      BPL
000605: 34,3535           02563                                    RAMIN
000606: 34,3536           71541                                    +3
000607: 34,3537           65345                           DLOAD    PDDL                                  #  RA < RAMIN.  SET RA = RAMIN.  (2)
000608: 34,3540           02563                                    RAMIN
000609: 34,3541           41345                 +3        DLOAD    DMP
000610: 34,3542           00001                                    0D
000611: 34,3543           16025                                    MUM(-37)
000612: 34,3544           77725                           PDDL
000613: 34,3545           41215                           DAD      DMP
000614: 34,3546           02625                                    RP
000615: 34,3547           02625                                    RP
000616: 34,3550           75465                           BDDV     SQRT                                  #                                (0)
000617: 34,3551           77626                           STADR
000618: 34,3552           41500                           STCALL   ZDOTD                                 #  UPDATE ZDOTD FOR GUIDANCE AND DOWNLINK.
000619: 34,3553           02574                                    ASCSAVE
000620:
000621: 34,3554           53575        THETCOMP           VLOAD    UNIT
000622: 34,3555           03521                                    R
000623: 34,3556           53515                           PDVL     UNIT                                  #                                (6)
000624: 34,3557           01720                                    R(CSM)
000625: 34,3560           47206                           PUSH     VXV                                   #                                (12)
000626: 34,3561           00001                                    0D
000627: 34,3562           77641                           DOT
000628: 34,3563           02325                                    WM
000629: 34,3564           24037                           STOVL    30D                                   #                                (6)
000630: 34,3565           72441                           DOT      SL1                                   #                                (0)
000631: 34,3566           75326                           ARCCOS   SIGN
000632: 34,3567           00037                                    30D
000633: 34,3570           77616                           RVQ
000634:
000635: 34,3571  E5,1574               ASCSAVE            =        CG
000636:


000638: 27,3313                                           BANK     27
000639: 27,2000                                           SETLOC   ASENT1
000640: 27,2000                                           BANK
000641: 27,3313                                           COUNT*   $$/ASENT
000642:
000643: 27,3313           50375        YCOMP              VLOAD    DOT
000644: 27,3314           03537                                    UNIT/R/
000645: 27,3315           03720                                    QAXIS
000646: 27,3316           41312                           SL2      DMP
000647: 27,3317           03631                                    RCO
000648: 27,3320           02335                           STORE    Y
000649: 27,3321           77616                           RVQ
000650:
000651: 30,3005                                           BANK     30
000652: 30,2000                                           SETLOC   ASENT
000653: 30,2000                                           BANK
000654:


000656:                                                                                                  #  ASCENT GUIDANCE CONSTANTS
000657:
000658: 30,3005  33,3103               100CS              EQUALS   2SEC(18)
000659: 30,3005  30,3007               T2A                EQUALS   2SEC(17)
000660: 30,3005           00062 00000  4SEC(17)           2DEC     400        B-17
000661: 30,3007           00031 00000  2SEC(17)           2DEC     200        B-17
000662: 30,3011           00175 00000  T3                 2DEC     1000       B-17
000663: 30,3013           00045 20000  6SEC(18)           2DEC     600        B-18
000664: 30,3015           00010        BIT4H              OCT      10
000665: 30,3016           14400 00000  2SEC(9)            2DEC     200        B-9
000666: 30,3020           01477        V06N63*            VN       0663
000667: 30,3021           01514        V06N76             VN       0676
000668: 30,3022           01441        V06N33A            VN       0633
000669:
000670: 33,2200                                           BANK     33
000671: 33,2000                                           SETLOC   ASENT6
000672: 33,2000                                           BANK
000673: 33,2200                                           COUNT*   $$/ASENT
000674:
000675: 33,2200           75751 41775  PRLIMIT            2DEC     -.0639                                #  (B/TBUP)MIN=-.1FT.SEC(-3)
000676: 33,2202           00022 07212  MINABDV            2DEC     .0356      B-5                        #  10 PERCENT BIGGER THAN GRAVITY
000677: 33,2204           00007 16100  25KFT              2DEC     7620       B-24
000678: 33,2206  E7,1570               1/DV0              =        MASS1
000679:


000681:                                                                                                  #  THE LOGARITHM SUBROUTINE
000682:
000683: 24,3700                                           BANK     24
000684: 30,2000                                           SETLOC   FLOGSUB
000685: 30,2000                                           BANK
000686:
000687:                                                                                                  #  INPUT ..... X IN MPAC
000688:                                                                                                  #  OUTPUT ..... -LOG(X) IN MPAC
000689:
000690: 30,3023           44301        LOGSUB             NORM     BDSU
000691: 30,3024           00163                                    MPAC       +6
000692: 30,3025           17772                                    NEARONE
000693: 30,3026           77776                           EXIT
000694: 30,3027           07225                           TC       POLY
000695: 30,3030           00006                           DEC      6          B-14
000696: 30,3031           00000 00002                     2DEC     .0000000060
000697: 30,3033           76777 77175                     2DEC     -.0312514377
000698: 30,3035           77400 75416                     2DEC     -.0155686771
000699: 30,3037           77507 65515                     2DEC     -.0112502068
000700: 30,3041           77741 63547                     2DEC     -.0018545108
000701: 30,3043           77052 55373                     2DEC     -.0286607906
000702: 30,3045           01167 30361                     2DEC     .0385598563
000703: 30,3047           76520 75267                     2DEC     -.0419361902
000704:
000705: 30,3051           34755                           CAF      ZERO
000706: 30,3052           54156                           TS       MPAC       +2
000707: 30,3053           00006                           EXTEND
000708: 30,3054           33070                           DCA      CLOG2/32
000709: 30,3055           52155                           DXCH     MPAC
000710: 30,3056           52132                           DXCH     BUF        +1
000711: 30,3057           30162                           CA       MPAC       +6
000712: 30,3060           07312                           TC       SHORTMP
000713: 30,3061           52156                           DXCH     MPAC       +1
000714: 30,3062           52155                           DXCH     MPAC
000715: 30,3063           52132                           DXCH     BUF        +1
000716: 30,3064           20155                           DAS      MPAC
000717: 30,3065           06042                           TC       INTPRET
000718: 30,3066           43476                           DCOMP    RVQ
000719:
000720: 30,3067           00542 34414  CLOG2/32           2DEC     .0216608494
000721:

End of include-file ASCENT_GUIDANCE.agc.  Parent file is MAIN.agc


