
Source Code
000001:                                                                                                 #  Copyright:     Public domain.
000002:                                                                                                 #  Filename:      ATTITUDE_MANEUVER_ROUTINE.agc
000003:                                                                                                 #  Purpose:       A section of Luminary 1C, revision 131.
000004:                                                                                                 #                 It is part of the source code for the Lunar Module's (LM)
000005:                                                                                                 #                 Apollo Guidance Computer (AGC) for Apollo 13 and Apollo 14.
000006:                                                                                                 #                 This file is intended to be a faithful transcription, except
000007:                                                                                                 #                 that the code format has been changed to conform to the
000008:                                                                                                 #                 requirements of the yaYUL assembler rather than the
000009:                                                                                                 #                 original YUL assembler.
000010:                                                                                                 #  Reference:     pp. 349-370 of 1729.pdf.
000011:                                                                                                 #  Contact:       Ron Burkey <info@sandroid.org>.
000012:                                                                                                 #  Website:       www.ibiblio.org/apollo/index.html
000013:                                                                                                 #  Mod history:   05/10/03 RSB.   Began transcribing.
000014:                                                                                                 #                 05/14/05 RSB    Corrected website reference above.
000015:
000016:                                                                                                 #  Page 349
000017:                                                                                                 #  BLOCK 2 LGC ATTITUDE MANEUVER ROUTINE -- KALCMANU
000018:
000019:                                                                                                 #  MOD 2          DATE 5/1/67     BY DONE KEENE
000020:
000021:                                                                                                 #  PROGRAM DESCRIPTION
000022:
000023:                                                                                                 #  KALCMANU IS A ROUTINE WHICH GENERATES COMMANDS FOR THE LM DAP TO CHANGE THE ATTITUDE OF THE SPACECRAFT
000024:                                                                                                 #  DURING FREE FALL.  IT IS DESIGNED TO MANEUVER THE SPACECRAFT FROM ITS INITIAL ORIENTATION TO SOME DESIRED
000025:                                                                                                 #  ORIENTATION SPECIFIED BY TEH PROGRAM WHICH CLALS KALCMANU, AVOIDING GIMBAL LOCK IN THE PROCESS.  IN THE
000026:                                                                                                 #  MOD 2 VERSION, THIS DESIRED ATTITUDE IS SPECIFIED BY A SET OF OF THREE COMMANDED CDU ANGLES STORES AS 2'S COMPLEMENT
000027:                                                                                                 #  SINGLE PRECISION ANGLES IN TEH THREE CONSECUTIVE LOCATIONS, CPHI, CTHETA, CPSI, WHERE
000028:
000029:                                                                                                 #         CPHI = COMMANDED OUTER GIMBAL ANGLE
000030:                                                                                                 #         CTHETA = COMMANDED INNER GIMBAL ANGLE
000031:                                                                                                 #         CPSI = COMMANDED MIDDLE GIMBAL ANGLE
000032:
000033:                                                                                                 #  WHEN POINTING A SPACECRAFT AXIS (I.E., X, Y, Z, THE AOT, THRUST AXIS, ETC.) THE SUBROUTINE VECPOINT MAY BE
000034:                                                                                                 #  USED TO GENERATE THIS SET OF DESIRED CDU ANGLES (SEE DESCRIPTION IN R60).
000035:
000036:                                                                                                 #  WITH THIS INFORMATION KALCMANU DETERMINES THE DIRECTION OF THE SINGLE EQUIVALEN ROTATION (COF ALSO U) AND THE
000037:                                                                                                 #  MAGNITUDE OF THE ROTATION (AM) TO BRING THE S/C FROM ITS INITIAL ORIENTATION TO ITS FINAL ORIENTATION.
000038:                                                                                                 #  THIS DIRECTION REMAINS FIXED BOTH IN INERTAIL COORDINATES AND IN COMMANDED S/C AXES THROUGHOUT THE
000039:                                                                                                 #                   _
000040:                                                                                                 #  MANEUVER.  ONCE COF AND AM HAVE BEEN DETERMINED, KALCMANU THEN EXAMINES THE MANEUVER TO SEE IF IT WILL BRING
000041:                                                                                                 #  THE S/C THROUGH GIMBAL LOCK.  IF SO, COF AND AM ARE READJUSTED SO THAT THE S/C WILL JUST SKIM THE GIMBAL
000042:                                                                                                 #  LOCK ZONE AND ALIGN THE X-AXIS.  IN GENERAL A FINAL YAW ABOUT X WILL BE NECESSARY TO COMPLETE THE MANEUVER.
000043:                                                                                                 #  NEEDLESS TO SAY, NEITHER THE INITIAL NOR THE FINAL ORIENTATION CAN BE IN GIMBAL LOCK.
000044:
000045:                                                                                                 #  FOR PROPER ATTITUDE CONTROL THE DIGITAL AUTOPILOT MUST BE GIVEN AN ATTITUDE REFERENCE WHICH IT CAN TRACK.
000046:                                                                                                 #  KALCMANU DOES THIS BY GENERATING A REFERENCE OF DESIRED GIMBAL ANGLES (CDUXD, CDUYD, CDUZD) WHICH ARE UPDATED
000047:                                                                                                 #  EVERY ONE SECOND DURING THE MANEUVER.  TO ACHIEVE A SMOOTHER SEQUENCE OF COMMANDS BETWEEN SUCCESSIVE UPDATED,
000048:                                                                                                 #  THE PROGRAM ALSO GENEATES A SET OF INCREMENTAL CDU ANGLES (DELDCDU) TO BE ADDED TO CDU DESIRED BY THE DIGITAL
000049:                                                                                                 #  AUTOPILOT.  KALCMANU ALSO CALCULATES THE COMPONENT MANEUVER RATES (OMEGAPD, OMEGAQD, OMEGARD), WHICH CAN
000050:                                                                                                 #  BE DETERMINED SIMPLY BY MULTIPLYING COF BY SOME SCALAR (ARATE) CORRESPONDING TO THE DESIRED ROTATIONAL RATE.
000051:
000052:                                                                                                 #  AUTOMATIC MANEUVERS ARE TIMED WTH THE HELP OF WAITLIST SO THAT AFTER A SPECIFIED INTERVAL THE Y AND Z
000053:                                                                                                 #  DESIRED RATES ARE SET TO ZERO AND THE DESIRED CDU ANGLES (CDUYD, CDUZD) ARE SET EQUAL TO THE FINAL DESIRED CDU
000054:                                                                                                 #  ANGLES (CTHETA, CPSI).  IF ANY YAW REMAINS DU TO GIMBAL LOCK AVOIDANCE, THE FINAL YAW AMNEUVER IS
000055:                                                                                                 #  CALCULATED AND THE DESIRED YAW RATE SET TO SOME FIXED VALUE (ROLLRATE = + OR - 2 DEGREES PER SEC).
000056:                                                                                                 #  IN THIS CASE ONLY AN INCREMENTAL CDUX ANGLE (DELFROLL) IS SUPPLIED TO THE DAP.  AT THE END OF THE YAW
000057:                                                                                                 #  MANEUVER OR IN THE EVENT THAT THERE WAS NO FINAL YAW, CDUXD IS SET EQUAL TO CPHI AND THE X-AXIS DESIRED
000058:                                                                                                 #  RATE SET TO ZERO.  THUS, UPON COMPLETION OF THE MANEUVER THE S/C WILL FINISH UP IN A LIMIT CYCLE ABOUT THE
000059:                                                                                                 #  DESIRED GIMBAL ANGLES.
000060:
000061:                                                                                                 #  PROGRAM LOGIC FLOW
000062:
000063:                                                                                                 #  KALCMANU IS CALLED AS A HIGH PRIORITY JOB WITH ENTRY POINTS AT KALCMAN3 AND VECPOINT.  IT FIRST PICKS
000064:                                                                                                 #  UP THE CURREN CDU ANGLES TO BE USED AS THE BASIS FOR ALL COMPUTATIONS INVOLVING THE INITIAL S/C ORIENTATION.
000065:                                                                                                 #  Page 350
000066:                                                                                                 #  IT THEN DETERMINES THE DIRECTION COSINE MATRICES RELATING BOTH THE INITIAL AND FINAL S/C ORIENTATION TO STABLE
000067:                                                                                                 #                *   *                                                                               *
000068:                                                                                                 #  MEMBER AXES (MIS,MFS).  IT ALSO COMPUTES THE MATRIX RELATING FINAL S/C AXES TO INITIAL S/C AXES (MFI).  THE
000069:                                                                                                 #  ANGLE OF ROTATION (AM) IS THEN EXTRACTED FROM THIS MATRIX, AND TEST ARE MADE TO DETERMIN IF
000070:
000071:                                                                                                 #         A)      AM LESS THAN .25 DEGREES (MINANG)
000072:                                                                                                 #         B)      AM GREATER THAN 170 DEGREES (MAXANG)
000073:
000074:                                                                                                 #  IF AM IS LESS THAN .25 DEGREES, NO COMPLICATED AUTOMATIC MANEUVERING IS NECESSARY.  THREFORE, WE CAN SIMPLY
000075:                                                                                                 #  SET CDU DESIRED EQUAL TO THE FINAL CDU DESIRED ANGLES AND TERMINATE THE JOB.
000076:
000077:                                                                                                 #  IF AM IS GRATER THAN .25 DEGREES BUT LESS THAN 170 DEGREES THE AXES OF TEH SINGLE EQUIVALENT ROTATION
000078:                                                                                                 #    _                                                       *
000079:                                                                                                 #  (COF) IS EXTRACTED FROM THE SKEW SYMMETRIC COMPONENTS OF MFI.
000080:                                                                                                 #                                                                                       *      *
000081:                                                                                                 #  IF AM GREATER T;HAN 170 DEGREES AN ALTERNATE METHOD EMPLOYING THE SYMMETRIC PART OF MFI (MFISYM) IS USED
000082:                                                                                                 #                _
000083:                                                                                                 #  TO DETERMINE COF.
000084:
000085:                                                                                                 #  THE PROGRAM THEN CHECKS TO SEE IF THE MANEUVER AS COMPUTED WILL BRING THE S/C THROUGH GIMBAL LOCK.  IF
000086:                                                                                                 #  SO, A NEW MANEUVER IS CALCULATED WHICH WILL JUST SKIM THE GIMBAL LOCK ZONE AND ALIGN THE S/C X-AXIS.  THIS
000087:                                                                                                 #  METHOD ASSURES THAT THE ADDITIONAL MANEUVERING TO AVOID GIMBAL LOCK WILL BE KEPT TO A MINIMUM.  SINCE A FINAL
000088:                                                                                                 #  P AXIS YAW WILL BE NECESSARY, A SWITCH IS RESET (STATE SWITCH 31) TO ALLOW FOR THE COMPUTATION OF THIS FINAL
000089:                                                                                                 #  YAW.
000090:
000091:                                                                                                 #  AS STATED PREVIOUSLY, KALCMANU GENERATES A SEQUENCE OF DESIRED GIMBAL ANGLES WHICH ARE UPDATED EVERY
000092:                                                                                                 #                                                                                               _
000093:                                                                                                 #  SECOND.  THIS IS ACCOMPLISHED BY A SMALL ROTATION OF THE DESIRED S/C FRAME ABOUT THE VECTOR COF.  THE NEW
000094:                                                                                                 #  DESIRED REFERENC MATRIX IS THEN,
000095:                                                                                                 #          *               *       *
000096:                                                                                                 #         MIS     =       MIS     DEL
000097:                                                                                                 #            N+1             N
000098:                                                                                                 #         *
000099:                                                                                                 #  WHERE DEL IS THE MATRIX CORRESPONDING TO THIS SMALL ROTATION.  THE NEW CDU ANGLES CAN THEN BE EXTRACTED
000100:                                                                                                 #        *
000101:                                                                                                 #  FROM MIS.
000102:
000103:                                                                                                 #  AT THE BEGINNING OF THE MANEUVER THE AUTOPILOT DESIRED RATES (OMEGAPD, OMEGAQD, OMEGARD) AND THE
000104:                                                                                                 #  MANEUVER TIMINGS ARE ESTABLISHED.  ON THE FIRST PASS AND ON ALL SUBSEQUENT UPDATES THE CDU DESIRED
000105:                                                                                                 #  ANGLES ARE LOADED WITH THE APPROPRIATE VALUES AND THE INCREMENTAL CDU ANGLES ARE COMPUTED.  THE AGC CLOCKS
000106:                                                                                                 #  (TIME1 AND TIME2) ARE THEN CHECKED TO SEE IF THE MANEUVER WILL TERMINATE BEFORE THE NEXT UPDATE.  IF
000107:                                                                                                 #  NOT, KALCMANU CALLS FOR ANOTHER UPDATE (RUN AS A JOB WITH PRIORITY TBD) IN ONE SECOND.  ANY DELAYS IN THSI
000108:                                                                                                 #  CALLING SEQUENCE ARE AUTOMATICALLY COMPENSATED IN CALLING FOR THE NEXT UPDATE.
000109:
000110:                                                                                                 #  IF IT IS FOUND THAT THE MANEUVER IS TO TERMINATE BEFORE THE NEXT UPDATE A ROUTINE IS CALLED (AS A WAIT-
000111:                                                                                                 #  LIST TASK) TO STOP THE MANEUVER AT THE APPROPRIATE TIME AS EXPLAINED ABOVE.
000112:
000113:                                                                                                 #  Page 351
000114:                                                                                                 #  CALLING SEQUENCE
000115:
000116:                                                                                                 #  IN ORDER TO PERFORM A KALCMANU SUPERVISED MANEUVER, THE COMMANDED GIMBAL ANGLES MUST BE PRECOMPUTED AND
000117:                                                                                                 #  STORED IN LOCATIONS CPHI, CTHETA, CPSI.  THE USER'S PROGRAM MUST THEN CLEAR STATE SWITCH NO 33 TO ALLOW THE
000118:                                                                                                 #  ATTITUDE MANEUVER ROUTINE TO PERFORM ANY FINAL P-AXIS YAW INCURRED BY AVOIDING GIMBAL LOCK.  THE MANEUVER IS
000119:                                                                                                 #  THEN INITIATED BY ESTABLISHING THE FOLLOWING EXECUTIVE JOB
000120:                                                                                                 #                        *
000121:                                                                                                 #         CAF     PRIO XX
000122:                                                                                                 #                      --
000123:                                                                                                 #         INHINT
000124:                                                                                                 #         TC      FINDVAC
000125:                                                                                                 #         2CADR   KALCMAN3
000126:                                                                                                 #         RELINT
000127:
000128:                                                                                                 #  THE USER'S PROGRAM MAY EITHER CONTINUE OR WAIT FOR THE TERMINATION OF THE MANEUVER.  IF THE USER WISHES TO
000129:                                                                                                 #  WAIT, HE MAY PUT HIS JOB TO SLEEP WTH THE FOLLOWING INSTRUCTIONS:
000130:
000131:                                                                                                 #         L       TC      BANKCALL
000132:                                                                                                 #         L+1     CADR    ATTSTALL
000133:                                                                                                 #         L+2     (BAD RETURN)
000134:                                                                                                 #         L+3     (GOOD RETURN)
000135:
000136:                                                                                                 #  UPON COMPLETION OF THE MANEUVER, THE PROGRAM WILL BE AWAKENED AT L+3 IF THE MANEUVER WAS COMPLETED
000137:                                                                                                 #  SUCCESSFULLY, OR AT L+2 IF THE MANEUVER WAS ABORTED.  THIS ABORT WOULD OCCUR IF THE INITIAL OR FINAL ATTITUDE
000138:                                                                                                 #  WAS IN GIMBAL LOCK.
000139:
000140:                                                                                                 #  *** NOTA BENE ***  IF IT IS ASSUMED THAT THE DESIRED MANEUVERING RATE (0.5, 2, 5, 10 DEG/SEC) HAS BEEN SELECTED BY
000141:                                                                                                 #  KEYBOARD ENTRY PRIOR TO THE EXECUTION OF KALCMANU.
000142:
000143:                                                                                                 #  IT IS ALSO ASSUMED THAT THE AUTOPILOT IS IN THE AUTO MODE.  IF THE MODE SWITCH IS CHANGED DURING THE
000144:                                                                                                 #  MANEUVER, KALCMANU WILL TERMINATE VIA GOODEND WITHIN 1 SECOND SO THAT R60 MAY REQUEST A TRIM OF THE S/C ATTITUDE
000145:                                                                                                 #  SUBROUTINES.
000146:
000147:                                                                                                 #  KALCMANU USES A NUMBER OF INTERPRETIVE SUBROUTINES WHICH MAY BE OF GENERAL INTEREST.  SINCE THESE ROUTINES
000148:                                                                                                 #  WERE PROGRAMMED EXCLUSIVELY FOR KALCMANU, THEY ARE NOT, AS YET, GENERALLY AVAILABLE FOR USE BY OTHER PROGRAMS.
000149:
000150:                                                                                                 #  MXM3
000151:                                                                                                 #  ----
000152:
000153:                                                                                                 #  THIS SUBROUTINE MULTIPLIES TWO 3X3 MATRICES AND LEAVES THE RESULT IN THE FIRST 18 LOCATIONS OF THE PUSH
000154:                                                                                                 #  DOWN LIST, I.E.,
000155:                                                                                                 #                         [ M     M     M  ]
000156:                                                                                                 #                         [  0     1     2 ]
000157:                                                                                                 #         *               [                ]              *               *
000158:                                                                                                 #         M       =       [ M     M     M  ]      =       M1      X       M2
000159:                                                                                                 #                         [  3     4     5 ]
000160:                                                                                                 #                         [                ]
000161:                                                                                                 #                         [ M     M     M  ]
000162:                                                                                                 #                         [  6     7     8 ]
000163:                                                                                                 #  Page 352
000164:                                                                                                 #                                                                                   *
000165:                                                                                                 #  INDEX REGISTER X1 MUST BE LOADED WITH THE COMPLEMENT OF THE STARTING ADDRESS FOR M1, AND X2 MUST BE
000166:                                                                                                 #                                                         *
000167:                                                                                                 #  LOADED WITH THE COMPLEMENT OF THE STARTING ADDRESS FOR M2.  THE ROUTINE USES THE FIRST 20 LOCATIONS OF THE PUSH
000168:                                                                                                 #  DOWN LIST.  THE FIRST ELEMENT OF THE MATRIX APPEARS IN PDO.  PUSH UP FOR M .
000169:                                                                                                 #                                                                            8
000170:                                                                                                 #  TRANSPOS
000171:                                                                                                 #  --------
000172:
000173:                                                                                                 #  THIS ROUTINE TRANSPOSES A 3X3 MATRIX AND LEAVES THE RESULT IN THE PUSH DOWN LIST, I.E.,
000174:                                                                                                 #
000175:                                                                                                 #         *               * T
000176:                                                                                                 #         M       =       M1
000177:
000178:                                                                                                 #  INDEX REGISTER X1 MUST CONTAIN THE COMPLEMENT OF THE STARTING ADDRESS FOR M1.  PUSH UP FOR THE FIRST AND SUB-
000179:                                                                                                 #                         *
000180:                                                                                                 #  SEQUENT COMPONENTS OF M.  THIS SUBROUTINE ALSO USES THE FIRST 20 LOCATIONS OF THE PUSH DOWN LIST.
000181:
000182:                                                                                                 #  CDU TO DCM
000183:                                                                                                 #  ----------
000184:
000185:                                                                                                 #  THIS SUBROUTINE CONVERTS THREE CDU ANGLES IN T(MPAC) TO A DIRECTION COSINE MATRIX (SCALED BY 2) RELATING
000186:                                                                                                 #  THE CORRESPONDING S/C ORIENTATIONS TO THE STABLE MEMBER FRAME.  THE FORMULAS FOR THIS CONVERSION ARE
000187:
000188:                                                                                                 #         M       =       COSY COSZ
000189:                                                                                                 #          0
000190:
000191:                                                                                                 #         M       =       -COSY SINZ COSX + SINY SINX
000192:                                                                                                 #          1
000193:
000194:                                                                                                 #         M       =       COSY SINZ SINX + SINY COSX
000195:                                                                                                 #          2
000196:
000197:                                                                                                 #         M       =       SINZ
000198:                                                                                                 #          3
000199:
000200:                                                                                                 #         M       =       COSZ COSX
000201:                                                                                                 #          4
000202:
000203:                                                                                                 #         M       =       -COSZ SINX
000204:                                                                                                 #          5
000205:
000206:                                                                                                 #         M       =       -SINY COSZ
000207:                                                                                                 #          6
000208:                                                                                                 #
000209:                                                                                                 #         M       =       SINY SINZ COSX + COSY SINX
000210:                                                                                                 #          7
000211:                                                                                                 #  Page 353
000212:                                                                                                 #         M       =       -SINY SINZ SINX + COSY COSX
000213:                                                                                                 #          8
000214:
000215:                                                                                                 #  WHERE          X       =       OUTER GIMBAL ANGLE
000216:                                                                                                 #                 Y       =       INNER GIMBAL ANGLE
000217:                                                                                                 #                 Z       =       MIDDLE GIMBAL ANGLE
000218:
000219:                                                                                                 #  THE INTERPRETATION OF THIS MATRIX IS AS FOLLOWS:
000220:
000221:                                                                                                 #  IF A , A , A  REPRESENT THE COMPONENTS OF A VECTOR IN S/C AXES THEN THE COMPONENTS OF THE SAME VECTOR IN
000222:                                                                                                 #      X   Y   Z
000223:                                                                                                 #  STABLE MEMBER AXES (B , B , B ) ARE
000224:                                                                                                 #                       X   Y   Z
000225:
000226:                                                                                                 #         [ B  ]                  [ A  ]
000227:                                                                                                 #         [  X ]                  [  X ]
000228:                                                                                                 #         [    ]                  [    ]
000229:                                                                                                 #         [ B  ]            *     [ A  ]
000230:                                                                                                 #         [  Y ]     =      M     [  Y ]
000231:                                                                                                 #         [    ]                  [    ]
000232:                                                                                                 #         [ B  ]                  [ B  ]
000233:                                                                                                 #         [  Z ]                  [  Z ]
000234:
000235:                                                                                                 #  THE SUBROUTINE WILL STORE THIS MATRIX IN SEQUENTIAL LOCATIONS OF ERASABLE MEMORY AS SPECIFIED BY THE CALLING
000236:                                                                                                 #                                                                                                              *
000237:                                                                                                 #  PROGRAM.  TO DO THIS THE CALLING PROGRAM MUST FIRST LOAD X2 WITH THE COMPLEMENT OF THE STARTING ADDRESS FOR M.
000238:
000239:                                                                                                 #  INTERNALLY, THE ROUTINE USES THE FIRST 16 LOCATIONS OF THE PUSH DOWN LIST, ALSO STEP REGISTER S1 AND INDEX
000240:                                                                                                 #  REGISTER X2.
000241:
000242:                                                                                                 #  DCM TO CDU
000243:                                                                                                 #  ----------
000244:
000245:                                                                                                 #  THIS ROUTINE EXTRACTS THE CDU ANGLES FROMA DIRECTION COSINE MATRIX (M SCALED BY 2) RELATIVE S/C AXIS TO
000246:                                                                                                 #                                                                                  *
000247:                                                                                                 #  STABLE MEMBER AXES.  X1 MUST CONTAIN THE COMPLEMENT OF THE STARTING ADDRESS FOR M.  THE SUBROUTINE LEAVES THE
000248:                                                                                                 #  CORRESPONDING GIMBAL ANGLES IN V(MPAC) AS DOUBLE PRECISION 1'S COMPLEMENT ANGLES ACALED BY 2PI.  THE FORMULAS
000249:                                                                                                 #  FOR THIS CONVERSION ARE
000250:
000251:                                                                                                 #         Z       =       ARCSIN (M  )
000252:                                                                                                 #                                  3
000253:
000254:                                                                                                 #         Y       =       ARCSIN (-M /COSZ)
000255:                                                                                                 #                                   6
000256:
000257:                                                                                                 #  IF M  IS NEGATIVE, Y IS REPLACED BY PI SGN Y - Y.
000258:                                                                                                 #      0
000259:                                                                                                 #  Page 354
000260:                                                                                                 #         X       =       ARCSIN (-M /COSZ)
000261:                                                                                                 #                                   5
000262:
000263:                                                                                                 #  IF M  IS NEGATIVE, X IS REPLACED BY PI SGN X - X.
000264:                                                                                                 #      4
000265:
000266:                                                                                                 #  THIS ROUTINE DOES NOT SET THE PUSH DOWN POINTER, BUT USES THE NEXT 8 LOCATIONS OF THE PUSH DOWN LIST AND
000267:                                                                                                 #  RETURNS THE POINTER TO ITS ORIGINAL SETTING.  THIS PROCEDURE ALLOWS THE CALLER TO STORE THE MATRIX AT THE TOP OF
000268:                                                                                                 #  THE PUSH DOWN LIST.
000269:
000270:                                                                                                 #  DELCOMP
000271:                                                                                                 #  -------
000272:                                                                                                 #                                                      *
000273:                                                                                                 #  THIS ROUTINE COMPUTES THE DIRECTION COSINE MATRIX (DEL) RELATING ON (material missing)
000274:                                                                                                 #                                                                           _
000275:                                                                                                 #  IS ROTATED WITH RESPECT TO THE FIRST BY AN ANGLE, A, ABOUT A UNIT VECTOR U.  THE FORMULA FOR THIS MATRIX IS
000276:
000277:                                                                                                 #          *              *        _ _T              *
000278:                                                                                                 #         DEL     =       I COSA + U U  (1 - COSA) + V  SINA
000279:                                                                                                 #                                                     X
000280:
000281:                                                                                                 #  WHERE          *               [ 1    0    0 ]
000282:                                                                                                 #                 I       =       [ 0    1    0 ]
000283:                                                                                                 #                                 [ 0    0    1 ]
000284:
000285:                                                                                                 #                                 [    2                             ]
000286:                                                                                                 #                                 [  U           U  U          U  U  ]
000287:                                                                                                 #                                 [   X           X  Y          X  Z ]
000288:                                                                                                 #                                 [                                  ]
000289:                                                                                                 #                 _ _T            [                 2                ]
000290:                                                                                                 #                 U U     =       [ U  U          U            U  U  ]
000291:                                                                                                 #                                 [  Y  X          Y            Y  Z ]
000292:                                                                                                 #                                 [                                  ]
000293:                                                                                                 #                                 [                               2  ]
000294:                                                                                                 #                                 [ U  U         U  U           U    ]
000295:                                                                                                 #                                 [  Z  X         X  Y           Z   ]
000296:
000297:
000298:                                                                                                 #                                 [   0           -U               U  ]
000299:                                                                                                 #                                 [                 Z               Y ]
000300:                                                                                                 #                 *               [                                   ]
000301:                                                                                                 #                 V       =       [  U             0              -U  ]
000302:                                                                                                 #                  X              [   Z                             X ]
000303:                                                                                                 #                                 [                                   ]
000304:                                                                                                 #                                 [ -U             U               0  ]
000305:                                                                                                 #                                 [   Y             X                 ]
000306:
000307:                                                                                                 #         _
000308:                                                                                                 #         U       =       UNIT ROTATION VECTOR RESOLVED INTO S/C AXES.
000309:                                                                                                 #         A       =       ROTATION ANGLE
000310:
000311:                                                                                                 #                         *
000312:                                                                                                 #  THE INTERPRETATION OF DEL IS AS FOLLOWS:
000313:
000314:                                                                                                 #  IF A , A , A  REPRESENT THE COMPONENTS OF A VECTOR INTHE ROTATED FRAME, THEN THE COMPONENTS OF THE SAME
000315:                                                                                                 #      X   Y   Z
000316:                                                                                                 #  VECTOR IN THE ORIGINAL S/C AXES (B , B , B ) ARE
000317:                                                                                                 #                                    X   Y   Z
000318:
000319:                                                                                                 #         [ B  ]                  [ A  ]
000320:                                                                                                 #         [  X ]                  [  X ]
000321:                                                                                                 #         [    ]                  [    ]
000322:                                                                                                 #         [ B  ]            *     [ A  ]
000323:                                                                                                 #         [  Y ]     =     DEL    [  Y ]
000324:                                                                                                 #         [    ]                  [    ]
000325:                                                                                                 #         [ B  ]                  [ B  ]
000326:                                                                                                 #         [  Z ]                  [  Z ]
000327:
000328:                                                                                                 #  THE ROUTINE WILL STORE THIS MATRIX (SCALED UNITY) IN SEQUENTIAL LOCATIONS OF ERASABLE MEMORY BEGINNING WITH
000329:                                                                                                 #                                                                                              _
000330:                                                                                                 #  THE LOCATION CALLED DEL.  IN ORDER TO USE THE ROUTINE, THE CALLING PROGRAM MUST FIRST STORE U (garbled UNIT
000331:                                                                                                 #  DOUBLE PRECISION VECTOR) IN THE SET OF ERASABEL LOCATIONS BEGINNING WITH THE ADDRESS CALLED COF.  THE ANGLE, A,
000332:                                                                                                 #  MUST THEN BE LOADED INTO D(MPAC).
000333:                                                                                                 #
000334:                                                                                                 #  INTERNALLY, THE PROGRAM ALSO USES THE FIRST 10 LOCATIONS OF THE PUSH DOWN LIST.
000335:
000336:                                                                                                 #  READCDUK
000337:                                                                                                 #  --------
000338:
000339:                                                                                                 #  THIS BASIC LANGUAGE SUBROUTINE LOADS T(MPAC) WITH THE THREE CDU ANGLES.
000340:
000341:                                                                                                 #  SIGNMPAC
000342:                                                                                                 #  --------
000343:
000344:                                                                                                 #  THIS IS A BASIC LANGUAGE SUBROUTINE WHICH LIMITS THE MAGNITUDE OF D(MPAC) TO + OR - DPOSMAX ON OVERFLOW.
000345:
000346:                                                                                                 #  PROGRAM STORAGE ALLOCATION
000347:
000348:                                                                                                 #         1)      FIXED MEMORY            1059 WORDS
000349:                                                                                                 #         2)      ERASABLE MEMORY           98
000350:                                                                                                 #         3)      STATE SWITCHES             3
000351:                                                                                                 #         4)      FLAGS                      1
000352:
000353:                                                                                                 #  JOB PRIORITIES
000354:
000355:                                                                                                 #         1)      KALCMANU                TBD
000356:                                                                                                 #         2)      ONE SECOND UPDATE       TBD
000357:
000358:                                                                                                 #  SUMMARY OF STATE SWITCHES AND FLAGWORDS USED BY KALCMANU.
000359:
000360:                                                                                                 #         STATE           FLAGWRD 2       SETTING         MEANING
000361:                                                                                                 #         SWITCH NO.      BIT NO.
000362:
000363:                                                                                                 #           *
000364:                                                                                                 #         31              14              0               MANEUVER WENT THROUGH GIMBAL LOCK
000365:                                                                                                 #                                         1               MANEUVER DID NOT GO THROUGH GIMBAL LOCK
000366:                                                                                                 #           *
000367:                                                                                                 #         32              13              0               CONTINUE UPDATE PROCESS
000368:                                                                                                 #                                         1               START UPDATE PROCESS
000369:
000370:                                                                                                 #         33              12              0               PERFORM FINAL P AXIS YAW IF REQUIRED
000371:                                                                                                 #                                         1               IGNORE ANY FINAL P-AXIS YAW
000372:
000373:                                                                                                 #         34              11              0               SIGNAL END OF KALCMANU
000374:                                                                                                 #                                         1               KALCMANU IN PROCESS.    USER MUST SET SWITCH BEFORE INITIATING
000375:
000376:                                                                                                 #         * INTERNAL TO KALCMANU
000377:
000378:                                                                                                 #  SUGGESTIONS FOR PROGRAM INTEGRATION
000379:
000380:                                                                                                 #  THE FOLLOWING VARIABLES SHOULD BE ASSIGNED TO UNSWITCH ERASABLE:
000381:
000382:                                                                                                 #         CPHI
000383:                                                                                                 #         CTHETA
000384:                                                                                                 #         CPSI
000385:                                                                                                 #         POINTVSM +5
000386:                                                                                                 #         SCAXIS +5
000387:                                                                                                 #         DELDCDU
000388:                                                                                                 #         DELDCDU1
000389:                                                                                                 #         DELDCDU2
000390:                                                                                                 #         RATEINDX
000391:
000392:                                                                                                 #  THE FOLLOWING SUBROUTINES MAY BE PUT IN A DIFFERENT BANK
000393:
000394:                                                                                                 #         MXM3
000395:                                                                                                 #  Page 357
000396:                                                                                                 #         TRANSPGS
000397:                                                                                                 #         SIGNMPAC
000398:                                                                                                 #         READCDUK
000399:                                                                                                 #         CDUTODCM
000400:
000401:                                                                                                 #  Page 358
000402: 15,2050                                          BANK     15
000403: 22,2000                                          SETLOC   KALCMON1
000404: 22,2000                                          BANK
000405:
000406: 22,2004  E6,1675                                 EBANK=   BCDU
000407:
000408:                                                                                                 #  THE THREE DESIRED CDU ANGLES MUST BE STORED AS SINGLE PRECISION TWO'S COMPLEMENT ANGLES IN THE THREE SUCCESSIVE
000409:                                                                                                 #  LOCATIONS, CPHI, CTHETA, CPSI.
000410:
000411: 22,2004                                          COUNT*   $$/KALC
000412: 22,2004           06042        KALCMAN3          TC       INTPRET                               #  PICK UP THE CURRENT CDU ANGLES AND
000413: 22,2005           77634                          RTB                                            #         COMPUTE THE MATRIX FROM INITIAL S/C
000414: 22,2006           44403                                   READCDUK                              #         AXES TO FINAL S/C AXES.
000415: 22,2007           03276                          STORE    BCDU                                  #  STORE INITIAL S/C ANGLES
000416: 22,2010           51535                          SLOAD    ABS                                   #  CHECK THE MAGNITUDE OF THE DESIRED
000417: 22,2011           00324                                   CPSI                                  #  MIDDLE GIMBAL ANGLE
000418: 22,2012           51025                          DSU      BPL
000419: 22,2013           04403                                   LOCKANGL                              #  IF GREATER THAN 70 DEG ABORT MANEUVER
000420: 22,2014           44724                                   TOOBADF
000421: 22,2015           72364                          AXC,2    TLOAD
000422: 22,2016           03245                                   MIS
000423: 22,2017           03276                                   BCDU
000424: 22,2020           77624                          CALL                                           #  COMPUTE THE TRANSFORMATION FROM INITIAL
000425: 22,2021           44410                                   CDUTODCM                              #  S/C AXES TO STABLE MEMBER AXES
000426: 22,2022           72364                          AXC,2    TLOAD
000427: 22,2023           02230                                   MFS                                   #  PREPARE TO CALCULATE ARRAY MFS
000428: 22,2024           00322                                   CPHI
000429: 22,2025           77624                          CALL
000430: 22,2026           44410                                   CDUTODCM
000431: 22,2027           45160        SECAD             AXC,1    CALL                                  #  MIS AND MFS ARRAYS CALCULATED
000432: 22,2030           03245                                   MIS
000433: 22,2031           44326                                   TRANSPOS
000434: 22,2032           45575                          VLOAD    STADR
000435: 22,2033           50460                          STOVL    TMIS       +12D
000436: 22,2034           77626                          STADR
000437: 22,2035           50466                          STOVL    TMIS       +6
000438: 22,2036           77626                          STADR
000439: 22,2037           74474                          STORE    TMIS                                  #  TMIS = TRANSPOSE(MIS) SCALED BY 2
000440: 22,2040           75160                          AXC,1    AXC,2
000441: 22,2041           03302                                   TMIS
000442: 22,2042           02230                                   MFS
000443: 22,2043           77624                          CALL
000444: 22,2044           44312                                   MXM3
000445: 22,2045           45575                          VLOAD    STADR
000446: 22,2046           51532                          STOVL    MFI        +12D
000447: 22,2047           77626                          STADR
000448: 22,2050           51540                          STOVL    MFI        +6
000449: 22,2051           77626                          STADR
000450: 22,2052           75546                          STORE    MFI                                   #  MFI = TMIS MFS (SCALED BY 4)
000451: 22,2053           45001                          SETPD    CALL                                  #  TRANSPOSE MFI IN PD LIST
000452:                                                                                                 #  Page 359
000453: 22,2054           00023                                   18D
000454: 22,2055           44335                                   TRNSPSPD
000455: 22,2056           45575                          VLOAD    STADR
000456: 22,2057           50460                          STOVL    TMFI       +12D
000457: 22,2060           77626                          STADR
000458: 22,2061           50466                          STOVL    TMFI       +6
000459: 22,2062           77626                          STADR
000460: 22,2063           74474                          STORE    TMFI                                  #  TMFI = TRANSPOSE (MFI) SCALED BY 4
000461:
000462:                                                                                                 #  CALCULATE COFSKEW AND MFISYM
000463:
000464: 22,2064           45345                          DLOAD    DSU
000465: 22,2065           03305                                   TMFI       +2
000466: 22,2066           02233                                   MFI        +2
000467: 22,2067           45325                          PDDL     DSU                                   #  CALCULATE COF SCALED BY 2/SIN(AM)
000468: 22,2070           02235                                   MFI        +4
000469: 22,2071           03307                                   TMFI       +4
000470: 22,2072           45325                          PDDL     DSU
000471: 22,2073           03315                                   TMFI       +10D
000472: 22,2074           02243                                   MFI        +10D
000473: 22,2075           77666                          VDEF
000474: 22,2076           03325                          STORE    COFSKEW                               #  EQUALS MFISKEW
000475:
000476:                                                                                                 #  CALCULATE AM AND PROCEED ACCORDING TO ITS MAGNITUDE
000477:
000478: 22,2077           43345                          DLOAD    DAD
000479: 22,2100           02231                                   MFI
000480: 22,2101           02251                                   MFI        +16D
000481: 22,2102           43225                          DSU      DAD
000482: 22,2103           06514                                   DP1/4TH
000483: 22,2104           02241                                   MFI        +8D
000484: 22,2105           03333                          STORE    CAM                                   #  CAM = (MFI0+MFI4+MFI8-1)/2 HALF SCALE
000485: 22,2106           77726                          ARCCOS
000486: 22,2107           03335                          STORE    AM                                    #  AM=ARCCOS(CAM) (AM SCALED BY 2)
000487: 22,2110           51025                          DSU      BPL
000488: 22,2111           04363                                   MINANG
000489: 22,2112           44117                                   CHECKMAX
000490: 22,2113           77751                          TLOAD                                          #  MANEUVER LESS THAN .25 DEGREES
000491: 22,2114           00322                                   CPHI                                  #  GO DIRECTLY INTO ATTITUDE HOLD
000492: 22,2115           37235                          STCALL   CDUXD                                 #  ABOUT COMMANDED ANGLES
000493: 22,2116           44742                                   TOOBADI                               #  STOP RATE AND EXIT
000494:
000495: 22,2117           45345        CHECKMAX          DLOAD    DSU
000496: 22,2120           03335                                   AM
000497: 22,2121           04365                                   MAXANG
000498: 22,2122           77244                          BPL      VLOAD
000499: 22,2123           44131                                   ALTCALC                               #  UNIT
000500: 22,2124           03325                                   COFSKEW                               #  COFSKEW
000501: 22,2125           77656                          UNIT
000502: 22,2126           03270                          STORE    COF                                   #  COF IS THE MANEUVER AXIS
000503:                                                                                                 #  Page 360
000504: 22,2127           77650                          GOTO                                           #  SEE IF MANEUVER GOES THRU GIMBAL LOCK
000505: 22,2130           44744                                   LOCSKIRT
000506: 22,2131           53375        ALTCALC           VLOAD    VAD                                   #  IF AM GREATER THAN 170 DEGREES
000507: 22,2132           02231                                   MFI
000508: 22,2133           03303                                   TMFI
000509: 22,2134           77762                          VSR1
000510: 22,2135           27303                          STOVL    MFISYM
000511: 22,2136           02237                                   MFI        +6
000512: 22,2137           74455                          VAD      VSR1
000513: 22,2140           03311                                   TMFI       +6
000514: 22,2141           27311                          STOVL    MFISYM     +6
000515: 22,2142           02245                                   MFI        +12D
000516: 22,2143           74455                          VAD      VSR1
000517: 22,2144           03317                                   TMFI       +12D
000518: 22,2145           03317                          STORE    MFISYM     +12D                       #  MFISYM=(MFI+TMFI)/2    SCALED BY 4
000519:
000520:                                                                                                 #  CALCULATE COF
000521:
000522: 22,2146           70545                          DLOAD    SR1
000523: 22,2147           03333                                   CAM
000524: 22,2150           45325                          PDDL     DSU                                   #  PDO CAM
000525: 22,2151           06522                                   DPHALF
000526: 22,2152           03333                                   CAM
000527: 22,2153           65204                          BOVB     PDDL                                  #  PS2 1 - CAM
000528: 22,2154           21713                                   SIGNMPAC
000529: 22,2155           03323                                   MFISYM     +16D
000530: 22,2156           56225                          DSU      DDV
000531: 22,2157           00001                                   0
000532: 22,2160           00003                                   2
000533: 22,2161           65366                          SQRT     PDDL                                  #  COFZ = SQRT(MFISYM8-CAM)/(1-CAM)
000534: 22,2162           03313                                   MFISYM     +8D
000535: 22,2163           56225                          DSU      DDV
000536: 22,2164           00001                                   0
000537: 22,2165           00003                                   2
000538: 22,2166           65366                          SQRT     PDDL                                  #  COFY = SQRT(MFISYM4-CAM)/(1-CAM)
000539: 22,2167           03303                                   MFISYM
000540: 22,2170           56225                          DSU      DDV
000541: 22,2171           00001                                   0
000542: 22,2172           00003                                   2
000543: 22,2173           55566                          SQRT     VDEF                                  #  COFX = SQRT(MFISYM-CAM)/(1-CAM)
000544: 22,2174           77656                          UNIT
000545: 22,2175           03270                          STORE    COF
000546:
000547:                                                                                                 #  DETERMINE LARGEST COF AND ADJUST ACCORDINGLY
000548:
000549: 22,2176           45345        COFMAXGO          DLOAD    DSU
000550: 22,2177           03270                                   COF
000551: 22,2200           03272                                   COF        +2
000552: 22,2201           71240                          BMN      DLOAD                                 #  COFY G COFX
000553:                                                                                                 #  Page 361
000554: 22,2202           44211                                   COMP12
000555: 22,2203           03270                                   COF
000556: 22,2204           50025                          DSU      BMN
000557: 22,2205           03274                                   COF        +4
000558: 22,2206           44266                                   METHOD3                               #  COFZ G COFX OR COFY
000559: 22,2207           77650                          GOTO
000560: 22,2210           44242                                   METHOD1                               #  COFX G COFY OR COFZ
000561: 22,2211           45345        COMP12            DLOAD    DSU
000562: 22,2212           03272                                   COF        +2
000563: 22,2213           03274                                   COF        +4
000564: 22,2214           77640                          BMN
000565: 22,2215           44266                                   METHOD3                               #  COFZ G COFY OR COFX
000566:
000567: 22,2216           51145        METHOD2           DLOAD    BPL                                   #  COFY MAX
000568: 22,2217           03327                                   COFSKEW    +2                         #  UY
000569: 22,2220           44224                                   U2POS
000570: 22,2221           57575                          VLOAD    VCOMP
000571: 22,2222           03270                                   COF
000572: 22,2223           03270                          STORE    COF
000573: 22,2224           51145        U2POS             DLOAD    BPL
000574: 22,2225           03305                                   MFISYM     +2                         #  UX UY
000575: 22,2226           44232                                   OKU21
000576: 22,2227           57545                          DLOAD    DCOMP                                 #  SIGN OF UX OPPOSITE garbled
000577: 22,2230           03270                                   COF
000578: 22,2231           03270                          STORE    COF
000579: 22,2232           51145        OKU21             DLOAD    BPL
000580: 22,2233           03315                                   MFISYM     +10D                       #  UY UZ
000581: 22,2234           44744                                   LOCSKIRT
000582: 22,2235           57545                          DLOAD    DCOMP                                 #  SIGN OF UZ OPPOSITE TO UY
000583: 22,2236           03274                                   COF        +4
000584: 22,2237           03274                          STORE    COF        +4
000585: 22,2240           77650                          GOTO
000586: 22,2241           44744                                   LOCSKIRT
000587: 22,2242           51145        METHOD1           DLOAD    BPL                                   #  COFX MAX
000588: 22,2243           03325                                   COFSKEW
000589: 22,2244           44250                                   U1POS
000590: 22,2245           57575                          VLOAD    VCOMP
000591: 22,2246           03270                                   COF
000592: 22,2247           03270                          STORE    COF
000593: 22,2250           51145        U1POS             DLOAD    BPL
000594: 22,2251           03305                                   MFISYM     +2                         #  UX UY
000595: 22,2252           44256                                   OKU12
000596: 22,2253           57545                          DLOAD    DCOMP
000597: 22,2254           03272                                   COF        +2                         #  SIGN OF UY OPPOSITE TO UX
000598: 22,2255           03272                          STORE    COF        +2
000599: 22,2256           51145        OKU12             DLOAD    BPL
000600: 22,2257           03307                                   MFISYM     +4                         #  UX UZ
000601: 22,2260           44744                                   LOCSKIRT
000602: 22,2261           57545                          DLOAD    DCOMP                                 #  SIGN OF UZ OPPOSITE TO UY
000603: 22,2262           03274                                   COF        +4
000604:                                                                                                 #  Page 362
000605: 22,2263           03274                          STORE    COF        +4
000606: 22,2264           77650                          GOTO
000607: 22,2265           44744                                   LOCSKIRT
000608: 22,2266           51145        METHOD3           DLOAD    BPL                                   #  COFZ MAX
000609: 22,2267           03331                                   COFSKEW    +4                         #  UZ
000610: 22,2270           44274                                   U3POS
000611: 22,2271           57575                          VLOAD    VCOMP
000612: 22,2272           03270                                   COF
000613: 22,2273           03270                          STORE    COF
000614: 22,2274           51145        U3POS             DLOAD    BPL
000615: 22,2275           03307                                   MFISYM     +4                         #  UX UZ
000616: 22,2276           44302                                   OKU31
000617: 22,2277           57545                          DLOAD    DCOMP
000618: 22,2300           03270                                   COF                                   #  SIGN OF UX OPPOSITE TO UZ
000619: 22,2301           03270                          STORE    COF
000620: 22,2302           51145        OKU31             DLOAD    BPL
000621: 22,2303           03315                                   MFISYM     +10D                       #  UY UZ
000622: 22,2304           44744                                   LOCSKIRT
000623: 22,2305           57545                          DLOAD    DCOMP
000624: 22,2306           03272                                   COF        +2                         #  SIGN OF UY OPPOSITE TO UZ
000625: 22,2307           03272                          STORE    COF        +2
000626: 22,2310           77650                          GOTO
000627: 22,2311           44744                                   LOCSKIRT
000628:                                                                                                 #  Page 363
000629:                                                                                                 #  MATRIX OPERATIONS
000630:
000631: 13,2207                                          BANK     13
000632: 22,2000                                          SETLOC   KALCMON2
000633: 22,2000                                          BANK
000634:
000635: 22,2312  E6,1675                                 EBANK=   BCDU
000636:
000637: 22,2312           76601        MXM3              SETPD    VLOAD*                                #  MXM3 MULTIPLIES 2 3X3 MATRICES
000638: 22,2313           00001                                   0                                     #  AND LEAVES RESULT IN PD LIST
000639: 22,2314           00001                                   0,1                                   #  AND MPAC
000640: 22,2315           62703                          VXM*     PDVL*
000641: 22,2316           77776                                   0,2
000642: 22,2317           00007                                   6,1
000643: 22,2320           62703                          VXM*     PDVL*
000644: 22,2321           77776                                   0,2
000645: 22,2322           00015                                   12D,1
000646: 22,2323           41503                          VXM*     PUSH
000647: 22,2324           77776                                   0,2
000648: 22,2325           77616                          RVQ
000649:
000650:                                                                                                 #  RETURN WITH MIXM2 IN PD LIST
000651:
000652: 22,2326           76601        TRANSPOS          SETPD    VLOAD*                                #  TRANSPOS TRANSPOSES A 3X3 MATRIX
000653: 22,2327           00001                                   0                                     #         AND LEAVES RESULT IN PD LIST
000654: 22,2330           00001                                   0,1                                   #  MATRIX ADDRESS IN XR1
000655: 22,2331           62713                          PDVL*    PDVL*
000656: 22,2332           00007                                   6,1
000657: 22,2333           00015                                   12D,1
000658: 22,2334           77606                          PUSH                                           #  MATRIX IN PD
000659: 22,2335           77776        TRNSPSPD          EXIT                                           #  ENTER WITH MATRIX AT 0 IN PD LIST
000660: 22,2336           50120                          INDEX    FIXLOC
000661: 22,2337           52013                          DXCH     12
000662: 22,2340           50120                          INDEX    FIXLOC
000663: 22,2341           52017                          DXCH     16
000664: 22,2342           50120                          INDEX    FIXLOC
000665: 22,2343           52013                          DXCH     12
000666: 22,2344           50120                          INDEX    FIXLOC
000667: 22,2345           52015                          DXCH     14
000668: 22,2346           50120                          INDEX    FIXLOC
000669: 22,2347           52005                          DXCH     4
000670: 22,2350           50120                          INDEX    FIXLOC
000671: 22,2351           52015                          DXCH     14
000672: 22,2352           50120                          INDEX    FIXLOC
000673: 22,2353           52003                          DXCH     2
000674: 22,2354           50120                          INDEX    FIXLOC
000675: 22,2355           52007                          DXCH     6
000676: 22,2356           50120                          INDEX    FIXLOC
000677: 22,2357           52003                          DXCH     2
000678:                                                                                                 #  Page 364
000679: 22,2360           06042                          TC       INTPRET
000680: 22,2361           77616                          RVQ
000681:
000682: 15,2050                                          BANK     15
000683: 22,2000                                          SETLOC   KALCMON1
000684: 22,2000                                          BANK
000685:
000686: 22,2362  E6,1675                                 EBANK=   BCDU
000687:
000688: 22,2362           00013 13563  MINANG            2DEC     0.00069375
000689: 22,2364           17070 34343  MAXANG            2DEC     0.472222222
000690:
000691:                                                                                                 #  GIMBAL LOCK CONSTANTS
000692:
000693:                                                                                                 #  D = MGA CORRESPONDING TO GIMBAL LOCK = 60 DEGREES
000694:                                                                                                 #         NGL = BUFFER ANGLE (TO AVOID DIVISIONS BY ZERO) = 2 DEGREES
000695:
000696: 22,2366           15666 20443  SD                2DEC     .433015                               #  = SIN(D)
000697: 22,2370           33555 01106  K3S1              2DEC     .86603                                #  = SIN(D)
000698: 22,2372           67777 77777  K4                2DEC     -.25                                  #  = -COS(D)
000699: 22,2374           04000 00000  K4SQ              2DEC     .125                                  #  = COS(D)COS(D)
000700: 22,2376           00216 36323  SNGLCD            2DEC     .008725                               #  = SIN(NGL)COS(D)
000701: 22,2400           17773 00057  CNGL              2DEC     .499695                               #  = COS(NGL)
000702: 22,2402           14344        LOCKANGL          DEC      .388889                               #  = 70 DEGREES
000703:
000704:                                                                                                 #  INTERPRETIVE SUBROUTINE TO READ THE CDU ANGLES
000705:
000706: 22,2403           30034        READCDUK          CA       CDUZ                                  #  LOAD T(MPAC) WITH CDU ANGLES
000707: 22,2404           54156                          TS       MPAC       +2
000708: 22,2405           00006                          EXTEND
000709: 22,2406           30033                          DCA      CDUX                                  #  AND CHANGE MODE TO TRIPLE PRECISION
000710: 22,2407           16501                          TCF      TLOAD      +6
000711:
000712: 22,2410           66370        CDUTODCM          AXT,1    SSP
Hello!
000713: 22,2411           00003                          OCT      3
000714: 22,2412           00051                                   S1
000715: 22,2413           00001                          OCT      1                                     #  SET XR1, S1, AND PD FOR LOOP
000716: 22,2414           00010                          STORE    7
000717: 22,2415           77601                          SETPD
000718: 22,2416           00001                                   0
000719: 22,2417           47133        LOOPSIN           SLOAD*   RTB
000720: 22,2420           00013                                   10D,1
000721: 22,2421           21577                                   CDULOGIC
000722:                                                                                                 #  Page 365
000723: 22,2422           00013                          STORE    10D                                   #  LOAD PD WITH   0 SIN(PHI)
000724: 22,2423           65356                          SIN      PDDL                                  #                 2 COS(PHI)
000725: 22,2424           00013                                   10D                                   #                 4 SIN(THETA)
000726: 22,2425           41546                          COS      PUSH                                  #                 6 COS(THETA)
000727: 22,2426           71300                          TIX,1    DLOAD                                 #                 8 SIN(PSI)
000728: 22,2427           44417                                   LOOPSIN                               #                 10 COS(PSI)
000729: 22,2430           00007                                   6
000730: 22,2431           72405                          DMP      SL1
000731: 22,2432           00013                                   10D
000732: 22,2433           10001                          STORE    0,2                                   #  C0 = COS(THETA)COS(PSI)
000733: 22,2434           41345                          DLOAD    DMP
000734: 22,2435           00005                                   4
000735: 22,2436           00001                                   0
000736: 22,2437           41325                          PDDL     DMP                                   #  (PD6 SIN(THETA)SIN(PHI))
000737: 22,2440           00007                                   6
000738: 22,2441           00011                                   8D
000739: 22,2442           72405                          DMP      SL1
000740: 22,2443           00003                                   2
000741: 22,2444           72421                          BDSU     SL1
000742: 22,2445           00015                                   12D
000743: 22,2446           10003                          STORE    2,2                                   #  C1=-COS(THETA)SIN(PSI)COS(PHI)
000744: 22,2447           41345                          DLOAD    DMP
000745: 22,2450           00003                                   2
000746: 22,2451           00005                                   4
000747: 22,2452           41325                          PDDL     DMP                                   #  (PD7 COS(PHI)SIN(THETA)) SCALED 4
000748: 22,2453           00007                                   6
000749: 22,2454           00011                                   8D
000750: 22,2455           72405                          DMP      SL1
000751: 22,2456           00001                                   0
000752: 22,2457           72415                          DAD      SL1
000753: 22,2460           00017                                   14D
000754: 22,2461           10005                          STORE    4,2                                   #  C2=COS(THETA)SIN(PSI)SIN(PHI)
000755: 22,2462           77745                          DLOAD
000756: 22,2463           00011                                   8D
000757: 22,2464           10007                          STORE    6,2                                   #  C3=SIN(PSI)
000758: 22,2465           77745                          DLOAD
000759: 22,2466           00013                                   10D
000760: 22,2467           72405                          DMP      SL1
000761: 22,2470           00003                                   2
000762: 22,2471           10011                          STORE    8D,2                                  #  C4=COS(PSI)COS(PHI)
000763: 22,2472           41345                          DLOAD    DMP
000764: 22,2473           00013                                   10D
000765: 22,2474           00001                                   0
000766: 22,2475           72476                          DCOMP    SL1
000767: 22,2476           10013                          STORE    10D,2                                 #  C5=-COS(PSI)SIN(PHI)
000768: 22,2477           41345                          DLOAD    DMP
000769: 22,2500           00005                                   4
000770: 22,2501           00013                                   10D
000771: 22,2502           72476                          DCOMP    SL1
000772: 22,2503           10015                          STORE    12D,2                                 #  C6=-SIN(THETA)COS(PSI)
000773:                                                                                                 #  Page 366
000774: 22,2504           77745                          DLOAD
000775: 22,2505           72405                          DMP      SL1                                   #  (PUSH UP 7)
000776: 22,2506           00011                                   8D
000777: 22,2507           41325                          PDDL     DMP                                   #  (PD7 COS(PHI)SIN(THETA)SIN(PSI)) SCALE 4
000778: 22,2510           00007                                   6
000779: 22,2511           00001                                   0
000780: 22,2512           72415                          DAD      SL1                                   #  (PUSH UP 7)
000781: 22,2513           77626                          STADR                                          #  C7=COS(PHI)SIN(THETA)SIN(PSI)
000782: 22,2514           67760                          STORE    14D,2                                 #         +COS(THETA)SIN(PHI)
000783: 22,2515           77745                          DLOAD
000784: 22,2516           72405                          DMP      SL1                                   #  (PUSH UP 6)
000785: 22,2517           00011                                   8D
000786: 22,2520           41325                          PDDL     DMP                                   #  (PD6 SIN(THETA)SIN(PHI)SIN(PSI)) SCALE 4
000787: 22,2521           00007                                   6
000788: 22,2522           00003                                   2
000789: 22,2523           72425                          DSU      SL1                                   #  (PUSH UP 6)
000790: 22,2524           77626                          STADR
000791: 22,2525           67756                          STORE    16D,2                                 #  C8=-SIN(THETA)SIN(PHI)SIN(PSI)
000792: 22,2526           77616                          RVQ                                            #  +COS(THETA)COS(PHI)
000793:
000794:                                                                                                 #  CALCULATION OF THE MATRIX DEL......
000795:
000796:                                                                                                 #          *         *           __T           *
000797:                                                                                                 #         DEL = (IDMATRIX)COS(A)+UU (1-COS(A))+UX SIN(A)          SCALED 1
000798:                                                                                                 #               _
000799:                                                                                                 #         WHERE U IS A UNIT VECTOR (DP SCALED 2) ALONG THE AXIS OF ROTATION.
000800:                                                                                                 #         A IS THE ANGLE OF ROTATION (DP SCALED 2)
000801:                                                                                                 #                                             _
000802:                                                                                                 #         UPON ENTRY, THE STARTING ADDRESS OF U IS COF, AND A IS IN MPAC
000803:
000804: 22,2527           41401        DELCOMP           SETPD    PUSH                                  #  MPAC CONTAINS THE ANGLE A
000805: 22,2530           00001                                   0
000806: 22,2531           65356                          SIN      PDDL                                  #  PD0 = SIN(A)
000807: 22,2532           41546                          COS      PUSH                                  #  PD2 = COS(A)
000808: 22,2533           65302                          SR2      PDDL                                  #  PD2 = COS(A)
000809: 22,2534           41021                          BDSU     BOVB
000810: 22,2535           06522                                   DPHALF
000811: 22,2536           21713                                   SIGNMPAC
000812: 22,2537           77725                          PDDL                                           #  PDA = 1-COS(A)
000813:
000814:                                                                                                 #  COMPUTE THE DIAGONAL COMPONENTS OF DEL
000815:
000816: 22,2540           03270                                   COF
000817: 22,2541           41316                          DSQ      DMP
000818: 22,2542           00005                                   4
000819: 22,2543           52415                          DAD      SL3
000820: 22,2544           00003                                   2
000821: 22,2545           77604                          BOVB
000822: 22,2546           21713                                   SIGNMPAC
000823:                                                                                                 #  Page 367
000824: 22,2547           16231                          STODL    KEL                                   #  UX UX(1-COS(A)) +COS(A)
000825: 22,2550           03272                                   COF        +2
000826: 22,2551           41316                          DSQ      DMP
000827: 22,2552           00005                                   4
000828: 22,2553           52415                          DAD      SL3
000829: 22,2554           00003                                   2
000830: 22,2555           77604                          BOVB
000831: 22,2556           21713                                   SIGNMPAC
000832: 22,2557           16241                          STODL    KEL        +8D                        #  UY UY(1-COS(A)) +COS(A)
000833: 22,2560           03274                                   COF        +4
000834: 22,2561           41316                          DSQ      DMP
000835: 22,2562           00005                                   4
000836: 22,2563           52415                          DAD      SL3
000837: 22,2564           00003                                   2
000838: 22,2565           77604                          BOVB
000839: 22,2566           21713                                   SIGNMPAC
000840: 22,2567           02251                          STORE    KEL        +16D                       #  UZ UZ(1-COS(A)) +COS(A)
000841:
000842:                                                                                                 #  COMPUTE TEH OFF DIAGONAL TERMS OF DEL
000843:
000844: 22,2570           41345                          DLOAD    DMP
000845: 22,2571           03270                                   COF
000846: 22,2572           03272                                   COF        +2
000847: 22,2573           72405                          DMP      SL1
000848: 22,2574           00005                                   4
000849: 22,2575           41325                          PDDL     DMP                                   #  D6      UX UY (1-COS A)
000850: 22,2576           03274                                   COF        +4
000851: 22,2577           00001                                   0
000852: 22,2600           43206                          PUSH     DAD                                   #  D8     UZ SIN A
000853: 22,2601           00007                                   6
000854: 22,2602           41112                          SL2      BOVB
000855: 22,2603           21713                                   SIGNMPAC
000856: 22,2604           16237                          STODL    KEL        +6
000857: 22,2605           62421                          BDSU     SL2
000858: 22,2606           77604                          BOVB
000859: 22,2607           21713                                   SIGNMPAC
000860: 22,2610           16233                          STODL    KEL        +2
000861: 22,2611           03270                                   COF
000862: 22,2612           41205                          DMP      DMP
000863: 22,2613           03274                                   COF        +4
000864: 22,2614           00005                                   4
000865: 22,2615           65352                          SL1      PDDL                                  #  D6     UX UZ (1-COS A)
000866: 22,2616           03272                                   COF        +2
000867: 22,2617           41405                          DMP      PUSH                                  #  D8     UY SIN(A)
000868: 22,2620           00001                                   0
000869: 22,2621           62415                          DAD      SL2
000870: 22,2622           00007                                   6
000871: 22,2623           77604                          BOVB
000872: 22,2624           21713                                   SIGNMPAC
000873: 22,2625           16235                          STODL    KEL        +4                         #  UX UZ (1-COS(A))+UY SIN(A)
000874:                                                                                                 #  Page 368
000875: 22,2626           62421                          BDSU     SL2
000876: 22,2627           77604                          BOVB
000877: 22,2630           21713                                   SIGNMPAC
000878: 22,2631           16245                          STODL    KEL        +12D                       #  UX UZ (1-COS(A))-UY SIN(A)
000879: 22,2632           03272                                   COF        +2
000880: 22,2633           41205                          DMP      DMP
000881: 22,2634           03274                                   COF        +4
000882: 22,2635           00005                                   4
000883: 22,2636           65352                          SL1      PDDL                                  #  D6     UY UZ (1-COS(A))
000884: 22,2637           03270                                   COF
000885: 22,2640           41405                          DMP      PUSH                                  #  D8     UX SIN(A)
000886: 22,2641           00001                                   0
000887: 22,2642           62415                          DAD      SL2
000888: 22,2643           00007                                   6
000889: 22,2644           77604                          BOVB
000890: 22,2645           21713                                   SIGNMPAC
000891: 22,2646           16247                          STODL    KEL        +14D                       #  UY UZ(1-COS(A)) +UX SIN(A)
000892: 22,2647           62421                          BDSU     SL2
000893: 22,2650           77604                          BOVB
000894: 22,2651           21713                                   SIGNMPAC
000895: 22,2652           02243                          STORE    KEL        +10D                       #  UY UZ (1-COS(A)) -UX SIN(A)
000896: 22,2653           77616                          RVQ
000897:
000898:                                                                                                 #  DIRECTION COSINE MATRIX TO CDU ANGLE ROUTINE
000899:
000900:                                                                                                 #  X1 CONTAINS THE COMPLEMENT OF THE STARTING ADDRESS FOR MATRIX (SCALED 2).
000901:                                                                                                 #  LEAVE CDU ANGLES SCALED 2PI IN V(MPAC).
000902:                                                                                                 #  COS(MGA) WILL BE LEFT IN S1 (SCALED 1).
000903:                                                                                                 #  THE DIRECTION COSINE MATRIX RELATING S/C AXES TO STABLE MEMBER AXES CAN BE WRITTEN AS:
000904:
000905:                                                                                                 #         C  = COS(THETA) COS(PSI
000906:                                                                                                 #          0
000907:
000908:                                                                                                 #         C  = -COS(THETA) SIN(PSI) COS(PHI) + SIN(THETA) SIN(PHI)
000909:                                                                                                 #          1
000910:
000911:                                                                                                 #         C  = COS(THETA) SIN(PSI) SIN(PHI + SIN(THETA) COS(PHI)
000912:                                                                                                 #          2
000913:
000914:                                                                                                 #         C  = SIN(PSI)
000915:                                                                                                 #          3
000916:
000917:                                                                                                 #         C  = COS(PSI) COS(PHI)
000918:                                                                                                 #          4
000919:
000920:                                                                                                 #         C  = -COS(PSI) SIN(PHI)
000921:                                                                                                 #          5
000922:
000923:                                                                                                 #         C  = -SIN(THETA) COS(PSI)
000924:                                                                                                 #          6
000925:
000926:                                                                                                 #         C  = SIN(THETA) SIN(PSI) COS(PHI) + COS (THETA) SIN(PHI)
000927:                                                                                                 #          7
000928:
000929:                                                                                                 #         C  = -SIN(THETA) SIN(PSI) SIN(PHI) + COS(THETA)COS(PHI)
000930:                                                                                                 #          8
000931:                                                                                                 #  Page 369
000932:
000933:                                                                                                 #  WHERE  PHI = OGA
000934:                                                                                                 #         THETA = IGA
000935:                                                                                                 #         PSI = MGA
000936:
000937: 22,2654           67543        DCMTOCDU          DLOAD*   ARCSIN
000938: 22,2655           00007                                   6,1
000939: 22,2656           71406                          PUSH     COS                                   #  PD +0  PSI
000940: 22,2657           41152                          SL1      BOVB
000941: 22,2660           21713                                   SIGNMPAC
000942: 22,2661           00051                          STORE    S1
000943: 22,2662           57543                          DLOAD*   DCOMP
000944: 22,2663           00015                                   12D,1
000945: 22,2664           67471                          DDV      ARCSIN
000946: 22,2665           00051                                   S1
000947: 22,2666           51123                          PDDL*    BPL                                   #  PD +2          THETA
000948: 22,2667           00001                                   0,1                                   #  MUST CHECK THE SIGN OF COS(THETA)
000949: 22,2670           44702                                   OKTHETA                               #  TO DETERMINE THE PROPER QUADRANT.
000950: 22,2671           57545                          DLOAD    DCOMP
000951: 22,2672           43244                          BPL      DAD
000952: 22,2673           44677                                   SUHALFA
000953: 22,2674           06522                                   DPHALF
000954: 22,2675           77650                          GOTO
000955: 22,2676           44701                                   CALCPHI
000956: 22,2677           77625        SUHALFA           DSU
000957: 22,2700           06522                                   DPHALF
000958: 22,2701           77606        CALCPHI           PUSH
000959: 22,2702           57543        OKTHETA           DLOAD*   DCOMP
000960: 22,2703           00013                                   10D,1
000961: 22,2704           67471                          DDV      ARCSIN
000962: 22,2705           00051                                   S1
000963: 22,2706           51123                          PDDL*    BPL                                   #  PUSH DOWN PHI
000964: 22,2707           00011                                   8D,1
000965: 22,2710           44722                                   OKPHI
000966: 22,2711           57545                          DLOAD    DCOMP                                 #  PUSH UP PHI
000967: 22,2712           43244                          BPL      DAD
000968: 22,2713           44717                                   SUHALFAP
000969: 22,2714           06522                                   DPHALF
000970: 22,2715           77650                          GOTO
000971: 22,2716           44723                                   VECOFANG
000972: 22,2717           52025        SUHALFAP          DSU      GOTO
000973: 22,2720           06522                                   DPHALF
000974: 22,2721           44723                                   VECOFANG
000975: 22,2722           77745        OKPHI             DLOAD                                          #  PUSH UP PHI
000976: 22,2723           43466        VECOFANG          VDEF     RVQ
000977:                                                                                                 #  Page 370
000978:                                                                                                 #  ROUTINES FOR TERMINATING THE AUTOMATIC MANEUVER AND RETURNING TO USER.
000979:
000980: 22,2724           77776        TOOBADF           EXIT
000981: 22,2725           05567                          TC       ALARM
000982: 22,2726           00401                          OCT      00401
000983:
000984: 22,2727           12732                          TCF      NOGO                                  #  DO NOT ZERO ATTITUDE ERRORS
000985:
000986: 22,2730           04616                          TC       BANKCALL
000987: 22,2731           40154                          CADR     ZATTEROR                              #  ZERO ATTITUDE ERRORS
000988:
000989: 22,2732           04616        NOGO              TC       BANKCALL
000990: 22,2733           40166                          CADR     STOPRATE                              #  STOP RATES
000991:
000992: 22,2734           34752                          CAF      TWO
000993: 22,2735           00004                          INHINT                                         #  ALL RETURNS ARE NOW MADE VIA GOODEND
000994: 22,2736           05203                          TC       WAITLIST
000995: 22,2737  E6,1675                                 EBANK=   BCDU
000996: 22,2737           03234 44066                    2CADR    GOODMANU
000997:
000998: 22,2741           15155                          TCF      ENDOFJOB
000999:
001000: 22,2742           77776        TOOBADI           EXIT
001001: 22,2743           12732                          TCF      NOGO
001002:
001003:

End of include-file ATTITUDE_MANEUVER_ROUTINE.agc.  Parent file is MAIN.agc


