
Source Code


000002:                                                                                                  #  Copyright:    Public domain.
000003:                                                                                                  #  Filename:     BURN_BABY_BURN--MASTER_IGNITION_ROUTINE.agc
000004:                                                                                                  #  Purpose:      A section of Luminary 1C, revision 131.
000005:                                                                                                  #                It is part of the source code for the Lunar Module's (LM)
000006:                                                                                                  #                Apollo Guidance Computer (AGC) for Apollo 13 and Apollo 14.
000007:                                                                                                  #                This file is intended to be a faithful transcription, except
000008:                                                                                                  #                that the code format has been changed to conform to the
000009:                                                                                                  #                requirements of the yaYUL assembler rather than the
000010:                                                                                                  #                original YUL assembler.
000011:                                                                                                  #  Reference:    pp. 730-751 of 1729.pdf.
000012:                                                                                                  #  Contact:      Ron Burkey <info@sandroid.org>.
000013:                                                                                                  #  Website:      www.ibiblio.org/apollo/index.html
000014:                                                                                                  #  Mod history:  05/24/03 RSB.   Began transcribing.
000015:                                                                                                  #                05/14/05 RSB    Corrected website reference above.
000016:                                                                                                  #                2010-10-25 JL   Indentation fixes.
000017:                                                                                                  #                2011-05-07 JL   Removed workarounds.
000018:


000020:                                                                                                  #  BURN, BABY, BURN -- MASTER IGNITION ROUTINE
000021:
000022: 36,2024                                           BANK     36
000023: 36,2000                                           SETLOC   P40S
000024: 36,2000                                           BANK
000025: 36,2024  E7,1455                                  EBANK=   WHICH
000026: 36,2024                                           COUNT*   $$/P40
000027:
000028:                                                                                                  #  THE MASTER IGNITION ROUTINE IS DESIGNED FOR USE BY THE FOLLOWING LEM PROGRAMS:  P12, P40, P42, P61, P63.
000029:                                                                                                  #  IT PERFORMS ALL FUNCTIONS IMMEDIATELY ASSOCIATED WITH APS OR DPS IGNITION:  IN PARTICULAR, EVERYTHING LYING
000030:                                                                                                  #  BETWEEN THE PRE-IGNITION TIME CHECK -- ARE WE WITHIN 45 SECONDS OF TIG? -- AND TIG + 26 SECONDS, WHEN DPS
000031:                                                                                                  #  PROGRAMS THROTTLE UP.
000032:
000033:                                                                                                  #  VARIATIONS AMONG PROGRAMS ARE ACCOMODATED BY MEANS OF TABLES CONTAINING CONSTANTS (FOR AVEGEXIT, FOR
000034:                                                                                                  #  WAITLIST, FOR PINBALL) AND TCF INSTRUCTIONS.  USERS PLACE THE ADRES OF THE HEAD OF THE APPROPRIATE TABLE
000035:                                                                                                  #  (OF P61TABLE FOR P61LM, FOR EXAMPLE) IN ERASABLE REGISTER `WHICH' (E4).  THE IGNITION ROUTINE THEN INDEXES BY
000036:                                                                                                  #  WHICH TO OBTAIN OR EXECUTE THE PROPER TABLE ENTRY.  THE IGNITION ROUTINE IS INITIATED BY A TCF BURNBABY,
000037:                                                                                                  #  THROUGH BANKJUMP IF NECESSARY.  THERE IS NO RETURN.
000038:
000039:                                                                                                  #  THE MASTER IGNITION ROUTINE WAS CONCEIVED AND EXECUTED, AND (NOTA BENE) IS MAINTAINED BY ADLER AND EYLES.
000040:
000041:                                                                                                  #                   HONI SOIT QUI MAL Y PENSE
000042:
000043:                                                                                                  #        ***********************************************
000044:                                                                                                  #                TABLES FOR THE IGNITION ROUTINE
000045:                                                                                                  #        ***********************************************
000046:
000047:                                                                                                  #                        NOI SE TANGERE
000048:
000049: 36,2024           01512        P12TABLE           VN       0674                                  #  (0)
000050: 36,2025           12327                           TCF      ULLGNOT                               #  (1)
000051: 36,2026           12616                           TCF      COMFAIL3                              #  (2)
000052: 36,2027           13066                           TCF      GOCUTOFF                              #  (3)
000053: 36,2030           15261                           TCF      TASKOVER                              #  (4)
000054: 36,2031           12150                           TCF      P12SPOT                               #  (5)
000055: 36,2032           00000                           DEC      0          B-14                       #  (6)   NO ULLAGE
000056: 36,2033  E7,1455                                  EBANK=   WHICH
000057: 36,2033           03746 64067                     2CADR    SERVEXIT                              #  (7)
000058:
000059: 36,2035           12402                           TCF      DISPCHNG                              #  (11)
000060: 36,2036           12567                           TCF      WAITABIT                              #  (12)
000061: 36,2037           12525                           TCF      P12IGN                                #  (13)
000062:
000063: 36,2040           01450        P40TABLE           VN       0640                                  #  (0)
000064: 36,2041           12327                           TCF      ULLGNOT                               #  (1)
000065: 36,2042           12620                           TCF      COMFAIL4                              #  (2)
000066: 36,2043           13053                           TCF      GOPOST                                #  (3)
000067: 36,2044           15261                           TCF      TASKOVER                              #  (4)
000068: 36,2045           12150                           TCF      P40SPOT                               #  (5)


000070: 36,2046           04300                           DEC      2240       B-14                       #  (6)
000071: 36,2047  E6,1422                                  EBANK=   OMEGAQ
000072: 36,2047           03672 74066                     2CADR    STEERING                              #  (7)
000073:
000074: 36,2051           12372                           TCF      P40SJUNK                              #  (11)
000075: 36,2052           12567                           TCF      WAITABIT                              #  (12)
000076: 36,2053           12510                           TCF      P40IGN                                #  (13)
000077: 36,2054           13127                           TCF      REP40ALM                              #  (14)
000078:
000079: 36,2055           12153        P41TABLE           TCF      P41SPOT                               #  (5)
000080: 36,2056           77776                           DEC      -1         B-14                       #  (6)
000081: 36,2057  E6,1422                                  EBANK=   OMEGAQ
000082: 36,2057           03402 74066                     2CADR    CALCN85                               #  (7)
000083:
000084: 36,2061           12404                           TCF      COMMON                                #  (11)
000085: 36,2062           12573                           TCF      TIGTASK                               #  (12)
000086:
000087: 36,2063           01450        P42TABLE           VN       0640                                  #  (0)
000088: 36,2064           12324                           TCF      WANTAPS                               #  (1)
000089: 36,2065           12620                           TCF      COMFAIL4                              #  (2)
000090: 36,2066           13053                           TCF      GOPOST                                #  (3)
000091: 36,2067           15261                           TCF      TASKOVER                              #  (4)
000092: 36,2070           12150                           TCF      P42SPOT                               #  (5)
000093: 36,2071           05120                           DEC      2640       B-14                       #  (6)
000094: 36,2072  E6,1422                                  EBANK=   OMEGAQ
000095: 36,2072           03672 74066                     2CADR    STEERING                              #  (7)
000096:
000097: 36,2074           12372                           TCF      P40SJUNK                              #  (11)
000098: 36,2075           12567                           TCF      WAITABIT                              #  (12)
000099: 36,2076           12545                           TCF      P42IGN                                #  (13)
000100: 36,2077           13424                           TCF      P42STAGE                              #  (14)
000101:
000102: 36,2100           01476        P63TABLE           VN       0662                                  #  (0)
000103: 36,2101           12327                           TCF      ULLGNOT                               #  (1)
000104: 36,2102           12616                           TCF      COMFAIL3                              #  (2)
000105: 36,2103           13003                           TCF      V99RECYC                              #  (3)
000106: 36,2104           15261                           TCF      TASKOVER                              #  (4)
000107: 36,2105           12153                           TCF      P63SPOT                               #  (5)
000108: 36,2106           04300                           DEC      2240       B-14                       #  (6)
000109: 36,2107  E7,1455                                  EBANK=   WHICH
000110: 36,2107           03746 64067                     2CADR    SERVEXIT                              #  (7)
000111:
000112: 36,2111           12402                           TCF      DISPCHNG                              #  (11)
000113: 36,2112           12567                           TCF      WAITABIT                              #  (12)


000115: 36,2113           12464                           TCF      P63IGN                                #  (13)
000116:
000117: 36,2114           01477        ABRTABLE           VN       0663                                  #  (0)
000118: 36,2115           12327                           TCF      ULLGNOT                               #  (1)
000119: 36,2116           12616                           TCF      COMFAIL3                              #  (2)
000120: 36,2117           13066                           TCF      GOCUTOFF                              #  (3)
000121: 36,2120           15261                           TCF      TASKOVER                              #  (4)
000122: 36,2121           12122                           NOOP                                           #  (5)
000123: 36,2122           12123                           NOOP                                           #  (6)
000124: 36,2123           12124                           NOOP                                           #  (7)
000125: 36,2124           12125                           NOOP
000126: 36,2125           12402                           TCF      DISPCHNG                              #  (11)
000127: 36,2126           12567                           TCF      WAITABIT                              #  (12)
000128: 36,2127           12535                           TCF      ABRTIGN                               #  (13)
000129:
000130:                                                                                                  #        *********************************
000131:                                                                                                  #        GENERAL PURPOSE IGNITION ROUTINES
000132:                                                                                                  #        *********************************
000133:
000134: 36,2130           05353        BURNBABY           TC       PHASCHNG                              #  GROUP 4 RESTARTS HERE
000135: 36,2131           04024                           OCT      04024
000136:
000137: 36,2132           34755                           CAF      ZERO                                  #  EXTIRPATE JUNK LEFT IN DVTOTAL
000138: 36,2133           55507                           TS       DVTOTAL
000139: 36,2134           55510                           TS       DVTOTAL    +1
000140:
000141: 36,2135           04616                           TC       BANKCALL                              #  P40AUTO MUST BE BANKCALLED EVEN FROM ITS
000142: 36,2136           73707                           CADR     P40AUTO                               #  OWN BANK TO SET UP RETURN PROPERLY
000143:
000144: 36,2137           00006        B*RNB*B*           EXTEND
000145: 36,2140           31442                           DCA      TIG                                   #  STORE NOMINAL TIG FOR OBLATENESS COMP.
000146: 36,2141           53512                           DXCH     GOBLTIME                              #  AND FOR P70 OR P71.
000147:
000148: 36,2142           00004                           INHINT
000149: 36,2143           04674                           TC       IBNKCALL
000150: 36,2144           75570                           CADR     ENGINOF3
000151: 36,2145           00003                           RELINT
000152:
000153: 36,2146           51455                           INDEX    WHICH
000154: 36,2147           10005                           TCF      5
000155:
000156: 36,2150  36,2150               P42SPOT            =        P40SPOT                               #  (5)
000157: 36,2150  36,2150               P12SPOT            =        P40SPOT                               #  (5)
000158: 36,2150  36,2153               P63SPOT            =        P41SPOT                               #  (5)   IN P63 CLOKTASK ALREADY GOING
000159: 36,2150           44762        P40SPOT            CS       CNTDNDEX                              #  (5)


000161: 36,2151           04616                           TC       BANKCALL                              #  MUST BE BANKCALLED FOR GENERALIZED
000162: 36,2152           74670                           CADR     STCLOK2                               #  RETURN
000163: 36,2153           06042        P41SPOT            TC       INTPRET                               #  (5)
000164: 36,2154           45345                           DLOAD    DSU
000165: 36,2155           03442                                    TIG
000166: 36,2156           35147                                    D29.9SEC
000167: 36,2157           34041                           STCALL   TDEC1
000168: 36,2160           61071                                    INITCDUW
000169: 36,2161           45014                           BOFF     CALL
000170: 36,2162           03347                                    MUNFLAG
000171: 36,2163           74202                                    GOMIDAV
000172: 36,2164           27042                                    CSMPREC
000173: 36,2165           64375                           VLOAD    MXV
000174: 36,2166           00025                                    VATT1
000175: 36,2167           01734                                    REFSMMAT
000176: 36,2170           77762                           VSR1
000177: 36,2171           25726                           STOVL    V(CSM)                                #  CSM VELOCITY -- M/CS*2(7)
000178: 36,2172           00017                                    RATT1
000179: 36,2173           64312                           VSL4     MXV
000180: 36,2174           01734                                    REFSMMAT
000181: 36,2175           35720                           STCALL   R(CSM)                                #  CSM POSITION -- M*2(24)
000182: 36,2176           67067                                    MUNGRAV
000183: 36,2177           16317                           STODL    G(CSM)                                #  CSM GRAVITY VEC. -- M/CS*2(7)
000184: 36,2200           00015                                    TAT
000185: 36,2201           00041                           STORE    TDEC1                                 #  RELOAD TDEC1 FOR MIDTOAV.
000186: 36,2202           77624        GOMIDAV            CALRB
000187: 36,2203           27553                                    MIDTOAV1
000188: 36,2204           12213                           TCF      CALLT-35                              #  MADE IT IN TIME.
000189:
000190: 36,2205           00006                           EXTEND                                         #  TIG WAS SLIPPED, SO RESET TIG TO 29.9
000191: 36,2206           31561                           DCA      PIPTIME1                              #  SECONDS AFTER THE TIME TO WHICH WE DID
000192: 36,2207           53442                           DXCH     TIG                                   #  INTEGRATE.
000193: 36,2210           00006                           EXTEND
000194: 36,2211           33147                           DCA      D29.9SEC
000195: 36,2212           21442                           DAS      TIG
000196:
000197: 36,2213           52155        CALLT-35           DXCH     MPAC
000198: 36,2214           53500                           DXCH     SAVET-30                              #  DELTA-T UNTIL TIG-30
000199: 36,2215           00006                           EXTEND
000200: 36,2216           43762                           DCS      5SECDP
000201: 36,2217           21500                           DAS      SAVET-30                              #  DELTA-T UNTIL TIG-35
000202: 36,2220           00006                           EXTEND
000203: 36,2221           31500                           DCA      SAVET-30
000204: 36,2222           05277                           TC       LONGCALL
000205: 36,2223  E7,1453                                  EBANK=   TTOGO
000206: 36,2223           02242 74067                     2CADR    TIG-35
000207:
000208: 36,2225           05353                           TC       PHASCHNG
000209: 36,2226           20254                           OCT      20254                                 #  4.25SPOT FOR TIG-35 RESTART.


000211: 36,2227           05321                           TC       CHECKMM
000212: 36,2230           00077                           DEC      63         B-14
000213: 36,2231           15155                           TCF      ENDOFJOB                              #  NOT P63
000214: 36,2232           44762                           CS       CNTDNDEX                              #  P63 CAN START DISPLAYING NOW.
000215: 36,2233           55162                           TS       DISPDEX
000216: 36,2234           06042                           TC       INTPRET
000217: 36,2235           51575                           VLOAD    ABVAL
000218: 36,2236           03553                                    VN1
000219: 36,2237           03472                           STORE    ABVEL                                 #  INITIALIZE ABVEL FOR P63 DISPLAY
000220: 36,2240           77776                           EXIT
000221: 36,2241           15155                           TCF      ENDOFJOB
000222:
000223:                                                                                                  #        ********************************
000224:
000225: 36,2242           33762        TIG-35             CAF      5SEC
000226: 36,2243           05173                           TC       TWIDDLE
000227: 36,2244           02300                           ADRES    TIG-30
000228:
000229: 36,2245           05353                           TC       PHASCHNG
000230: 36,2246           40154                           OCT      40154                                 #  4.15SPOT FOR TIG-30 RESTART
000231:
000232: 36,2247           44752                           CS       BLANKDEX                              #  BLANK DSKY FOR 5 SECONDS
000233: 36,2250           55162                           TS       DISPDEX
000234:
000235: 36,2251           51455                           INDEX    WHICH
000236: 36,2252           40006                           CS       6                                     #  CHECK ULLAGE TIME.
000237: 36,2253           00006                           EXTEND
000238: 36,2254           65261                           BZMF     TASKOVER
000239: 36,2255           33151                           CAF      4.9SEC                                #  SET UP TASK TO RESTORE DISPLAY AT TIG-30
000240: 36,2256           05173                           TC       TWIDDLE
000241: 36,2257           02270                           ADRES    TIG-30.1
000242:
000243: 36,2260           35027                           CAF      PRIO17                                #  A NEGATIVE ULLAGE TIME INDICATES P41, IN
000244: 36,2261           05072                           TC       NOVAC                                 #  WHICH CASE WE HAVE TO SET UP A JOB TO
000245: 36,2262  E7,1453                                  EBANK=   TTOGO                                 #  BLANK THE DSKY FOR FIVE SECONDS, SINCE
000246: 36,2262           02265 74067                     2CADR    P41BLANK                              #  CLOKJOB IS NOT RUNNING DURING P41.
000247:
000248: 36,2264           15261                           TCF      TASKOVER
000249:
000250: 36,2265           04616        P41BLANK           TC       BANKCALL                              #  BLANK DSKY.
000251: 36,2266           20457                           CADR     CLEANDSP
000252: 36,2267           15155                           TCF      ENDOFJOB
000253:
000254: 36,2270           35027        TIG-30.1           CAF      PRIO17                                #  SET UP JOB TO RESTORE DISPLAY AT TIG-30
000255: 36,2271           05072                           TC       NOVAC
000256: 36,2272  E7,1453                                  EBANK=   TTOGO
000257: 36,2272           02275 74067                     2CADR    TIG-30A
000258:
000259: 36,2274           15261                           TCF      TASKOVER


000261: 36,2275           33765        TIG-30A            CAF      V16N85B
000262: 36,2276           04616                           TC       BANKCALL                              #  RESTORE DISPLAY.
000263: 36,2277           20466                           CADR     REGODSP                               #  REGODSP DOES A TCF ENDOFJOB
000264:
000265:                                                                                                  #        ********************************
000266:
000267: 36,2300           33150        TIG-30             CAF      S24.9SEC
000268: 36,2301           05173                           TC       TWIDDLE
000269: 36,2302           02354                           ADRES    TIG-5
000270:
000271: 36,2303           44762                           CS       CNTDNDEX                              #  START UP CLOKTASK AGAIN
000272: 36,2304           55162                           TS       DISPDEX
000273:
000274: 36,2305           51455                           INDEX    WHICH                                 #  PICK UP APPROPRIATE ULLAGE -- ON TIME
000275: 36,2306           30006                           CAF      6
000276: 36,2307           00006                           EXTEND
000277: 36,2310           62327                           BZMF     ULLGNOT                               #  DON'T SET UP ULLAGE IF DT IS NEG OR ZERO
000278: 36,2311           55477                           TS       SAVET-30                              #  SAVE DELTA-T FOR RESTART
000279: 36,2312           05173                           TC       TWIDDLE
000280: 36,2313           02350                           ADRES    ULLGTASK
000281:
000282: 36,2314           36250                           CA       THREE                                 #  RESTART PROTECT ULLGTASK (1.3SPOT)
000283: 36,2315           54001                           TS       L
000284: 36,2316           46250                           CS       THREE
000285: 36,2317           52752                           DXCH     -PHASE1
000286: 36,2320           40025                           CS       TIME1
000287: 36,2321           55052                           TS       TBASE1
000288:
000289: 36,2322           51455                           INDEX    WHICH
000290: 36,2323           10001                           TCF      1
000291:
000292: 36,2324           40106        WANTAPS            CS       FLGWRD10                              #  (1) FOR P42 ENSURE APSFLAG IS SET.  IF IT
000293: 36,2325           74737                           MASK     APSFLBIT                              #  WAN'T SET, DAP WILL BE INITIALIZED TO
000294: 36,2326           26106                           ADS      FLGWRD10                              #  ASCENT VALUES BY 1/ACCS IN 2 SECONDS.
000295:
000296: 36,2327           00006        ULLGNOT            EXTEND                                         #  (1)
000297: 36,2330           51455                           INDEX    WHICH
000298: 36,2331           30010                           DCA      7                                     #  LOAD AVEGEXIT WITH APPROPRIATE 2CADR
000299: 36,2332           53252                           DXCH     AVEGEXIT
000300:
000301: 36,2333           34752                           CAF      TWO                                   #  4.2SPOT RESTARTS IMMEDIATELY AT REDO4.2
000302: 36,2334           54001                           TS       L
000303: 36,2335           44752                           CS       TWO                                   #  AND ALSO AT TIG-5 AT THE CORRECT TIME.
000304: 36,2336           52760                           DXCH     -PHASE4
000305:
000306: 36,2337           40025                           CS       TIME1
000307: 36,2340           55060                           TS       TBASE4                                #  SET TBASE4 FOR TIG-5 RESTART
000308:
000309: 36,2341           00006        REDO2.17           EXTEND


000311: 36,2342           34755                           DCA      NEG0                                  #  CLEAR OUT GROUP 2 SO LAMBERT CAN START
000312: 36,2343           52754                           DXCH     -PHASE2                               #  IF NEEDED.
000313:
000314: 36,2344           10762        REDO4.2            CCS      PHASE5                                #  IF SERVICER GOING?
000315: 36,2345           15261                           TCF      TASKOVER                              #  YES, DON'T START IT UP AGAIN.
000316:
000317: 36,2346           04635                           TC       POSTJUMP
000318: 36,2347           77410                           CADR     PREREAD                               #  PREREAD END THIS TASK
000319:
000320:                                                                                                  #        *********************************
000321:
000322: 36,2350           02663        ULLGTASK           TC       ONULLAGE                              #  THIS COMES AT TIG-7.5 OR TIG-3.5
000323: 36,2351           05353                           TC       PHASCHNG
000324: 36,2352           00001                           OCT      1
000325: 36,2353           15261                           TCF      TASKOVER
000326:
000327:                                                                                                  #        *********************************
000328:
000329: 36,2354           00006        TIG-5              EXTEND
000330: 36,2355           34755                           DCA      NEG0                                  #  INSURE THAT GROUP 3 IS INACTIVE.
000331: 36,2356           52756                           DXCH     -PHASE3
000332:
000333: 36,2357           33762                           CAF      5SEC
000334: 36,2360           05173                           TC       TWIDDLE
000335: 36,2361           02407                           ADRES    TIG-0
000336:
000337: 36,2362           05516                           TC       DOWNFLAG                              #  RESET IGNFLAG AND ASINFLAG
000338: 36,2363           00153                           ADRES    IGNFLAG                               #  FOR LIGHT-UP LOGIC.
000339: 36,2364           05516                           TC       DOWNFLAG
000340: 36,2365           00154                           ADRES    ASTNFLAG
000341: 36,2366           05516                           TC       DOWNFLAG
000342: 36,2367           00122                           ADRES    ZOOMFLAG
000343:
000344: 36,2370           51455                           INDEX    WHICH
000345: 36,2371           10011                           TCF      11
000346:
000347: 36,2372           10756        P40SJUNK           CCS      PHASE3                                #  (11) P40 AND P42.  S40.13 IN PROGRESS?
000348: 36,2373           12402                           TCF      DISPCHNG                              #  YES
000349:
000350: 36,2374           34736                           CAF      PRIO20
000351: 36,2375           05105                           TC       FINDVAC
000352: 36,2376  E7,1453                                  EBANK=   TTOGO
000353: 36,2376           02540 56067                     2CADR    S40.13
000354:
000355: 36,2400           05353                           TC       PHASCHNG                              #  3.5SPOT FOR S40.13
000356: 36,2401           00053                           OCT      00053


000358: 36,2402           44760        DISPCHNG           CS       VB99DEX                               #  (11)
000359: 36,2403           55162                           TS       DISPDEX
000360: 36,2404           05353        COMMON             TC       PHASCHNG                              #  RESTART TIG-0 (4.7SPOT)
000361: 36,2405           40074                           OCT      40074
000362: 36,2406           15261                           TCF      TASKOVER
000363:
000364:                                                                                                  #        *********************************
000365:
000366: 36,2407           40103        TIG-0              CS       FLAGWRD7                              #  SET IGNFLAG SINCE TIG HAS ARRIVED
000367: 36,2410           74737                           MASK     IGNFLBIT
000368: 36,2411           26103                           ADS      FLAGWRD7
000369:
000370: 36,2412           05321                           TC       CHECKMM                               #  IN P63 CASE, THROTTLE-UP IS ZOOMTIME
000371: 36,2413           00077                           DEC      63         B-14                       #  AFTER NOMINAL IGNITION, NOT ACTUAL
000372: 36,2414           12425                           TCF      IGNYET?
000373: 36,2415           31422                           CA       ZOOMTIME
000374: 36,2416           05203                           TC       WAITLIST
000375: 36,2417  E7,1515                                  EBANK=   DVCNTR
000376: 36,2417           03667 72067                     2CADR    ZOOM
000377:
000378: 36,2421           05327                           TC       2PHSCHNG
000379: 36,2422           40033                           OCT      40033
000380:
000381: 36,2423           05014                           OCT      05014
000382: 36,2424           77777                           OCT      77777
000383:
000384: 36,2425           34740        IGNYET?            CAF      ASTNBIT                               #  CHECK ASTNFLAG:  HAS ASTRONAUT RESPONDED
000385: 36,2426           70103                           MASK     FLAGWRD7                              #  TO OUR ENGINE ENABLE REQUEST?
000386: 36,2427           00006                           EXTEND
000387: 36,2430           51455                           INDEX    WHICH
000388: 36,2431           10012                           BZF      12                                    #  BRANCH IF HE HAS NOT RESPONDED YET
000389:
000390: 36,2432           40101        IGNITION           CS       FLAGWRD5                              #  INSURE ENGONFLG IS SET.
000391: 36,2433           74745                           MASK     ENGONBIT
000392: 36,2434           26101                           ADS      FLAGWRD5
000393: 36,2435           44355                           CS       PRIO30                                #  TURN ON THE ENGINE.
000394: 36,2436           00006                           EXTEND
000395: 36,2437           02011                           RAND     DSALMOUT
000396: 36,2440           64737                           AD       BIT13
000397: 36,2441           00006                           EXTEND
000398: 36,2442           01011                           WRITE    DSALMOUT
000399: 36,2443           00006                           EXTEND                                         #  SET TEVENT FOR DOWNLINK
000400: 36,2444           30025                           DCA      TIME2
000401: 36,2445           53342                           DXCH     TEVENT
000402:
000403: 36,2446           44735                           CS       PULSES                                #  MAKE SURE THAT DAP IS NOT IN MINIMUM.
000404: 36,2447           70111                           MASK     DAPBOOLS                              #  IMPULSE MODE IN P12,P40,P42, AND P63
000405: 36,2450           54111                           TS       DAPBOOLS


000407: 36,2451           00006                           EXTEND                                         #  UPDATE TIG USING TGO FROM S40.13
000408: 36,2452           31517                           DCA      TGO
000409: 36,2453           53442                           DXCH     TIG
000410: 36,2454           00006                           EXTEND
000411: 36,2455           30025                           DCA      TIME2
000412: 36,2456           21442                           DAS      TIG
000413:
000414: 36,2457           44742                           CS       FLUNDBIT                              #  PERMIT GUIDANCE LOOP DISPLAYS
000415: 36,2460           70104                           MASK     FLAGWRD8
000416: 36,2461           54104                           TS       FLAGWRD8
000417:
000418: 36,2462           51455                           INDEX    WHICH
000419: 36,2463           10013                           TCF      13
000420:
000421: 36,2464           00006        P63IGN             EXTEND                                         #  (13)  INITIATE BURN DISPLAYS
000422: 36,2465           33143                           DCA      LUNLANAD
000423: 36,2466           53252                           DXCH     AVGEXIT
000424:
000425: 36,2467           30005                           CA       Z                                     #  ASSASSINATE CLOKTASK
000426: 36,2470           55162                           TS       DISPDEX
000427:
000428: 36,2471           40105                           CS       FLAGWRD9                              #  SET SWANDISP TO ENABLE R10.
000429: 36,2472           74743                           MASK     LETABBIT
000430: 36,2473           26105                           ADS      FLAGWRD9
000431:
000432: 36,2474           40103                           CS       FLAGWRD7                              #  SET SWANDISP TO ENABLE R10.
000433: 36,2475           74741                           MASK     SWANDBIT
000434: 36,2476           26103                           ADS      FLAGWRD7
000435:
000436: 36,2477           00006                           EXTEND                                         #  INITIALIZE TIG FOR P70 AND P71.
000437: 36,2500           30025                           DCA      TIME2
000438: 36,2501           53442                           DXCH     TIG
000439:
000440: 36,2502           34755                           CAF      ZERO                                  #  INITIALIZE WCHPHASE, AND FLPASS0
000441: 36,2503           55346                           TS       WCHPHASE
000442: 36,2504           55621                           TS       WCHPHOLD                              #  ALSO WHCPHOLD
000443: 36,2505           34752                           CA       TWO
000444: 36,2506           55623                           TS       FLPASS0
000445:
000446: 36,2507           12545                           TCF      P42IGN
000447: 36,2510           40101        P40IGN             CS       FLAGWRD5                              #  (13)
000448: 36,2511           74740                           MASK     NOTHRBIT
000449: 36,2512           00006                           EXTEND
000450: 36,2513           12545                           BZF      P42IGN
000451: 36,2514           31422                           CA       ZOOMTIME
000452: 36,2515           05203                           TC       WAITLIST
000453: 36,2516  E7,1515                                  EBANK=   DVCNTR
000454: 36,2516           03667 72067                     2CADR    ZOOM
000455:
000456: 36,2520           05327        P63IGN1            TC       2PHSCHNG


000458: 36,2521           40033                           OCT      40033                                 #  3.3SPOT FOR ZOOM RESTART.
000459: 36,2522           05014                           OCT      05014                                 #  TYPE C RESTARTS HERE IMMEDIATELY
000460: 36,2523           77777                           OCT      77777
000461:
000462: 36,2524           12545                           TCF      P42IGN
000463: 36,2525           35015        P12IGN             CAF      EBANK6
000464: 36,2526           54003                           TS       EBANK
000465: 36,2527  E6,1536                                  EBANK=   AOSQ
000466:
000467: 36,2527           31412                           CA       IGNAOSQ                               #  INITIALIZE DAP BIAS ACCELERATION
000468: 36,2530           55536                           TS       AOSQ                                  #  ESTIMATES AT P12 IGNITION.
000469: 36,2531           31413                           CA       IGNAOSR
000470: 36,2532           55540                           TS       AOSR
000471:
000472: 36,2533           35016                           CAF      EBANK7
000473: 36,2534           54003                           TS       EBANK
000474: 36,2535  E7,1515                                  EBANK=   DVCNTR
000475:
000476: 36,2535           30005        ABRTIGN            CA       Z                                     #  (13) KILL CLOKTASK
000477: 36,2536           55162                           TS       DISPDEX
000478:
000479: 36,2537           00006                           EXTEND                                         #  CONNECT ASCENT GYIDANCE TO SERVICER.
000480: 36,2540           33145                           DCA      ATMAGADR
000481: 36,2541           53252                           DXCH     AVGEXIT
000482:
000483: 36,2542           40103                           CS       FLAGWRD7                              #  ENABLE R10.
000484: 36,2543           74741                           MASK     SWANDBIT
000485: 36,2544           26103                           ADS      FLAGWRD7
000486:
000487: 36,2545           44744        P42IGN             CS       DRIFTBIT                              #  ENSURE THAT POWERED-FLIGHT SWITCHING
000488: 36,2546           70111                           MASK     DAPBOOLS                              #  CURVES ARE USED.
000489: 36,2547           54111                           TS       DAPBOOLS
000490: 36,2550           34743                           CAF      IMPULBIT                              #  EXAMINE IMPULSE SWITCH
000491: 36,2551           70076                           MASK     FLAGWRD2
000492: 36,2552           10000                           CCS      A
000493: 36,2553           13526                           TCF      IMPLBURN
000494:
000495: 36,2554           05516        DVMONCON           TC       DOWNFLAG
000496: 36,2555           00153                           ADRES    IGNFLAG                               #  CONNECT DVMON
000497: 36,2556           05516                           TC       DOWNFLAG
000498: 36,2557           00154                           ADRES    ASTNFLAG
000499: 36,2560           05516                           TC       DOWNFLAG
000500: 36,2561           00161                           ADRES    IDLEFLAG
000501:
000502: 36,2562           05353                           TC       PHASCHNG
000503: 36,2563           40054                           OCT      40054
000504:
000505: 36,2564           05221                           TC       FIXDELAY                              #  TURN ULLAGE OFF HALF A SECOND AFTER
000506: 36,2565           00062                           DEC      50         B-14                       #  LIGHT UP.


000508: 36,2566           02657        ULLAGOFF           TC       NOULLAGE
000509:
000510: 36,2567           00006        WAITABIT           EXTEND                                         #  KILL GROUP 4
000511: 36,2570           34755                           DCA      NEG0
000512: 36,2571           52760                           DXCH     -PHASE4
000513:
000514: 36,2572           15261                           TCF      TASKOVER
000515:
000516: 36,2573           04635        TIGTASK            TC       POSTJUMP                              #  (12)
000517: 36,2574           73656                           CADR     TIGTASK1
000518:
000519:                                                                                                  #        ********************************
000520:
000521: 31,2144                                           BANK     31
000522: 35,2000                                           SETLOC   P40S3
000523: 35,2000                                           BANK
000524: 35,3656                                           COUNT*   $$/P40
000525:
000526: 35,3656           35026        TIGTASK1           CAF      PRIO16
000527: 35,3657           05072                           TC       NOVAC
000528: 35,3660  E7,1462                                  EBANK=   TRKMKCNT
000529: 35,3660           03245 74067                     2CADR    TIGNOW
000530:
000531: 35,3662           05516                           TC       DOWNFLAG
000532: 35,3663           00303                           ADRES    PULSEFLG
000533:
000534: 35,3664           05353                           TC       PHASCHNG
000535: 35,3665           00006                           OCT      6                                     #  KILL GROUP 6
000536:
000537: 35,3666           15261                           TCF      TASKOVER
000538:
000539:                                                                                                  #        ********************************
000540:
000541: 35,3667           05321        ZOOM               TC       CHECKMM                               #  P40 DR P637
000542: 35,3670           00077                           DEC      63         B-14
000543: 35,3671           13677                           TCF      P40ZOOM
000544:
000545: 35,3672           05504        P63ZOOM            TC       UPFLAG                                #  INDICATE THAT THROTTLE-UP HAS COME
000546: 35,3673           00122                           ADRES    ZOOMFLAG
000547:
000548: 35,3674           04674                           TC       IBNKCALL
000549: 35,3675           62327                           CADR     FLATOUT
000550: 35,3676           13704                           TCF      P40ZOOMA
000551:
000552: 35,3677           34737        P40ZOOM            CAF      BIT13
000553: 35,3700           54055                           TS       THRUST
000554: 35,3701           34750                           CAF      BIT4
000555:


000557: 35,3702           00006                           EXTEND
000558: 35,3703           05014                           WOR      CHAN14
000559:
000560: 35,3704           05353        P40ZOOMA           TC       PHASCHNG
000561: 35,3705           00003                           OCT      3
000562: 35,3706           15261                           TCF      TASKOVER
000563:
000564: 36,2575                                           BANK     36
000565: 36,2000                                           SETLOC   P40S
000566: 36,2000                                           BANK
000567: 36,2575                                           COUNT*   $$/P40
000568:
000569:                                                                                                  #        ********************************
000570:
000571: 36,2575           05504        COMFAIL            TC       UPFLAG                                #  (15)
000572: 36,2576           00161                           ADRES    IDLEFLAG
000573: 36,2577           05504                           TC       UPFLAG                                #  SET FLAG TO SUPRESS CONFLICTING DISPLAY
000574: 36,2600           00175                           ADRES    FLUNDISP
000575: 36,2601           34751                           CAF      FOUR                                  #  RESET DVMON
000576: 36,2602           55515                           TS       DVCNTR
000577: 36,2603           10764                           CCS      PHASE6                                #  CLOCKTASK ACTIVE?
000578: 36,2604           12607                           TCF      +3                                    #  YES
000579: 36,2605           04616                           TC       BANKCALL                              #  OTHERWISE, START IT UP
000580: 36,2606           74667                           CADR     STCLOK1
000581: 36,2607           44765                 +3        CS       VB97DEX
000582: 36,2610           55162                           TS       DISPDEX
000583: 36,2611           05353                           TC       PHASCHNG                              #  TURN OFF GROUP 4.
000584: 36,2612           00004                           OCT      00004
000585: 36,2613           15155                           TCF      ENDOFJOB
000586:
000587: 36,2614           51455        COMFAIL1           INDEX    WHICH
000588: 36,2615           10002                           TCF      2
000589:
000590: 36,2616           30005        COMFAIL3           CA       Z                                     #  (15)  KILL CLOKTASK USING Z
000591: 36,2617           12621                           TCF      +2
000592:
000593: 36,2620           44762        COMFAIL4           CS       CNTDNDEX
000594: 36,2621           55162                           TS       DISPDEX
000595:
000596: 36,2622           05516                           TC       DOWNFLAG                              #  RECONNECT DV MONITOR
000597: 36,2623           00161                           ADRES    IDLEFLAG
000598: 36,2624           05516                           TC       DOWNFLAG                              #  PERMIT GUIDANCE LOOP DISPLAYS
000599: 36,2625           00175                           ADRES    FLUNDISP
000600: 36,2626           15155                           TCF      ENDOFJOB
000601:
000602: 36,2627           05353        COMFAIL2           TC       PHASCHNG                              #  KILL ZOOM RESTART PROTECTION
000603: 36,2630           00003                           OCT      00003
000604:


000606: 36,2631           00004                           INHINT
000607: 36,2632           06032                           TC       KILLTASK                              #  KILL ZOOM IN CASE IT'S STILL TO COME
000608: 36,2633           73667                           CADR     ZOOM
000609: 36,2634           04674                           TC       IBNKCALL                              #  COMMAND ENGINE OFF
000610: 36,2635           75565                           CADR     ENGINOF4
000611: 36,2636           05504                           TC       UPFLAG                                #  SET THE DRIFT BIT FOR THE DAP.
000612: 36,2637           00312                           ADRES    DRIFTDFL
000613: 36,2640           02651                           TC       INVFLAG                               #  USE OTHER RCS SYSTEM
000614: 36,2641           00310                           ADRES    AORBTFLG
000615: 36,2642           05504                           TC       UPFLAG                                #  TURN ON ULLAGE
000616: 36,2643           00314                           ADRES    ULLAGFLG
000617: 36,2644           34753                           CAF      BIT1
000618: 36,2645           00004                           INHINT
000619: 36,2646           05173                           TC       TWIDDLE
000620: 36,2647           02354                           ADRES    TIG-5
000621: 36,2650           15155                           TCF      ENDOFJOB
000622:
000623:                                                                                                  #        ***********************************
000624:                                                                                                  #        SUBROUTINES OF THE IGNITION ROUTINE
000625:                                                                                                  #        ***********************************
000626:
000627: 36,2651           30002        INVFLAG            CA       Q
000628: 36,2652           05522                           TC       DEBIT
000629: 36,2653           40000                           COM
000630: 36,2654           00006                           EXTEND
000631: 36,2655           06001                           RXOR     LCHAN
000632: 36,2656           15511                           TCF      COMFLAG
000633:
000634:                                                                                                  #        ***********************************
000635:
000636: 36,2657           44746        NOULLAGE           CS       ULLAGER                               #  MUST BE CALLED IN A TASK OR UNDER INHINT
000637: 36,2660           70111                           MASK     DAPBOOLS
000638: 36,2661           54111                           TS       DAPBOOLS
000639: 36,2662           00002                           TC       Q
000640:
000641:                                                                                                  #        ***********************************
000642:
000643: 36,2663           40111        ONULLAGE           CS       DAPBOOLS                              #  TURN ON ULLAGE.  MUST BE CALLED IN
000644: 36,2664           74746                           MASK     ULLAGER                               #  A TASK OR WHILE INHINTED.
000645: 36,2665           26111                           ADS      DAPBOOLS
000646: 36,2666           00002                           TC       Q
000647:
000648:                                                                                                  #        ***********************************
000649:
000650: 36,2667           34755        STCLOK1            CA       ZERO                                  #  THIS ROUTINE STARTS THE COUNT-DOWN
000651: 36,2670           55162        STCLOK2            TS       DISPDEX                               #  (CLOKTASK AND CLOKJOB).  SETTING


000653: 36,2671           04645        STCLOK3            TC       MAKECADR                              #  SETTING DISPDEX POSITIVE KILLS IT.
000654: 36,2672           55060                           TS       TBASE4                                #  RETURN SAVE (NOT FOR RESTARTS).
000655: 36,2673           00006                           EXTEND
000656: 36,2674           31442                           DCA      TIG
000657: 36,2675           52155                           DXCH     MPAC
000658: 36,2676           00006                           EXTEND
000659: 36,2677           40025                           DCS      TIME2
000660: 36,2700           20155                           DAS      MPAC                                  #  HAVE TIG -- TIME2, UNDOUBTEDLY A + NUMBER
000661: 36,2701           07262                           TC       TPAGREE                               #  POSITIVE, SINCE WE PASSED THE
000662: 36,2702           34777                           CAF      1SEC                                  #  45 SECOND CHECK.
000663: 36,2703           54002                           TS       Q
000664: 36,2704           52155                           DXCH     MPAC
000665: 36,2705           74346                           MASK     LOW5                                  #  RESTRICT MAGNITUDE OF NUMBER IN A
000666: 36,2706           00006                           EXTEND
000667: 36,2707           10002                           DV       Q
000668: 36,2710           30001                           CA       L                                     #  GET REMAINDER
000669: 36,2711           64752                           AD       TWO
000670: 36,2712           00004                           INHINT
000671: 36,2713           05173                           TC       TWIDDLE
000672: 36,2714           02723                           ADRES    CLOKTASK
000673: 36,2715           05327                           TC       2PHSCHNG
000674: 36,2716           40036                           OCT      40036                                 #  6.3SPOT FOR CLOKTASK
000675: 36,2717           05024                           OCT      05024
000676: 36,2720           13000                           OCT      13000
000677:
000678: 36,2721           31060                           CA       TBASE4
000679: 36,2722           04640                           TC       BANKJUMP
000680:
000681: 36,2723           40025        CLOKTASK           CS       TIME1                                 #  SET TBASE6 FOR GROUP 6 RESTART
000682: 36,2724           55064                           TS       TBASE6
000683:
000684: 36,2725           11162                           CCS      DISPDEX
000685: 36,2726           12737                           TCF      KILLCLOK
000686: 36,2727           12730                           NOOP
000687: 36,2730           37720                           CAF      PRIO27
000688: 36,2731           05072                           TC       NOVAC
000689: 36,2732  E7,1453                                  EBANK=   TTOGO
000690: 36,2732           02743 74067                     2CADR    CLOKJOB
000691:
000692: 36,2734           05221                           TC       FIXDELAY                              #  WAIT A SECOND BEFORE STARTING OVER
000693: 36,2735           00144                           DEC      100        B-14
000694: 36,2736           12723                           TCF      CLOKTASK
000695:
000696: 36,2737           00006        KILLCLOK           EXTEND                                         #  KILL RESTART
000697: 36,2740           34755                           DCA      NEG0
000698: 36,2741           52764                           DXCH     -PHASE6


000700: 36,2742           15261                           TCF      TASKOVER
000701:
000702: 36,2743           00006        CLOKJOB            EXTEND
000703: 36,2744           41442                           DCS      TIG
000704: 36,2745           53454                           DXCH     TTOGO
000705: 36,2746           00006                           EXTEND
000706: 36,2747           30025                           DCA      TIME2
000707: 36,2750           21454                           DAS      TTOGO
000708: 36,2751           00004                           INHINT
000709: 36,2752           11162                           CCS      DISPDEX                               #  IF DISPDEX HAS BEEN SET POSITIVE BY A
000710: 36,2753           15155                           TCF      ENDOFJOB                              #  TASK OR A HIGHER PRIORITY JOB SINCE THE
000711: 36,2754           15155                           TCF      ENDOFJOB                              #  LAST CLOKTASK, AVOID USING IT AS AN
000712: 36,2755           40000                           COM                                            #  INDEX.
000713: 36,2756           00003                           RELINT                                         #  ***** DISPDEX MUST NEVER B -0 *****
000714: 36,2757           50000                           INDEX    A
000715: 36,2760           13015                           TCF      DISPNOT    -1                         #  (-1 DUE TO EFFECT OF CCS)
000716:
000717: 36,2761     4765               VB97DEX            =        OCT35                                 #  NEGATIVE OF THIS IS PROPER FOR DISPDEX
000718:
000719: 36,2761           44755                 -35       CS       ZERO                                  #  INDICATE VERB 97 PASTE
000720: 36,2762           55066                           TS       NVWORD1
000721: 36,2763           30371                           CA       NVWORD     +2                         #  NVWORD+2 CONTAINS V06 & APPROPRIATE NOUN
000722: 36,2764           04616                           TC       BANKCALL
000723: 36,2765           20474                           CADR     CLOCPLAY
000724: 36,2766           13017                           TCF      STOPCLOK                              #  TERMINATE CLOKTASK ON THE WAY TO P00H
000725: 36,2767           12614                           TCF      COMFAIL1
000726: 36,2770           12627                           TCF      COMFAIL2
000727:
000728:                                                                                                  #  THIS DISPLAY IS CALLED VIA ASTNCLOK
000729: 36,2771           33152                 -25       CAF      V06N61                                #  IT IS PRIMARILY USED BY THE CREW IN P63
000730: 36,2772           04616                           TC       BANKCALL                              #  TO RESET HIS EVENT TIMER TO AGREE WITH
000731: 36,2773           20460                           CADR     REFLASH                               #  TIG.
000732: 36,2774           13017                           TCF      STOPCLOK
000733: 36,2775           13034                           TCF      ASTNRETN
000734: 36,2776           12771                           TCF      -5
000735:
000736: 36,2777     4762               CNTDNDEX           =        LOW4                                  #  OCT17:  NEGATIVE PROPER FOR DISPDEX
000737:
000738: 36,2777           51455                 -17       INDEX    WHICH                                 #  THIS DISPLAY COMES UP AT ONE SECOND
000739: 36,3000           30000                           CAF      0                                     #  INTERVALS.  IT IS NORMALLY OPERATED
000740: 36,3001           04616                           TC       BANKCALL                              #  BETWEEN TIG-30 SECONDS AND TIG-5 SECONDS
000741: 36,3002           20466                           CADR     REGODSP                               #  REGODSP DOES ITS OWN TCF ENDOFJOB
000742:
000743: 36,3003     4760               VB99DEX            =        ELEVEN                                #  OCT13:  NEGATIVE PROPER FOR DISPDEX
000744:
000745: 36,3003                        V99RECYC           EQUALS
000746:
000747: 36,3003           44743                 -13       CS       BIT9                                  #  INDICATE VERB 99 PASTE
000748: 36,3004           55066                           TS       NVWORD1


000750: 36,3005           51455                           INDEX    WHICH                                 #  THIS IS THE "PLEASE ENABLE ENGINE"
000751: 36,3006           30000                           CAF      0                                     #  DISPLAY; IT IS INITIATED AT TIG-5 SEC.
000752: 36,3007           04616                           TC       BANKCALL                              #  THE DISPLAY IS A V99NXX, WHERE XX IS
000753: 36,3010           20474                           CADR     CLOCPLAY                              #  NOUN THAT HAD PREVIOUSLY BEEN DISPLAYED
000754: 36,3011           13017                           TCF      STOPCLOK                              #  TERMINATE GOTOP00H TURNS OFF ULLAGE.
000755: 36,3012           13045                           TCF      *PROCEED
000756: 36,3013           13050                           TCF      *ENTER
000757:
000758: 36,3014     4752               BLANKDEX           =        TWO                                   #  NEGATIVE OF THIS IS PROPER FOR DISPDEX
000759:
000760: 36,3014           04616                 -2        TC       BANKCALL                              #  BLANK DSKY.  THE DSKY IS BLANKED FOR
000761: 36,3015           20457                           CADR     CLEANDSP                              #  5 SECONDS AT TIG-35 TO INDICATE THAT
000762: 36,3016           15155        DISPNOT            TCF      ENDOFJOB                              #  AVERAGE G IS STARTING.
000763:
000764: 36,3017           03021        STOPCLOK           TC       NULLCLOK                              #  STOP CLOKTASK & TURN OFF ULLAGE ON THE
000765: 36,3020           16001                           TCF      GOTOP00H                              #  WAY TO P00 (GOTOP00H RELINTS)
000766:
000767: 36,3021           00004        NULLCLOK           INHINT
000768: 36,3022           00006                           EXTEND
000769: 36,3023           23141                           QXCH     P40/RET
000770: 36,3024           02657                           TC       NOULLAGE                              #  TURN OFF ULLAGE ...
000771: 36,3025           06032                           TC       KILLTASK                              #        DON'T LET IT COME ON, EITHER ...
000772: 36,3026           74350                           CADR     ULLGTASK
000773: 36,3027           05353                           TC       PHASCHNG                              #                NOT EVEN IF THERE'S A RESTART.
000774: 36,3030           00001                           OCT      1
000775: 36,3031           30005                           CA       Z                                     #  KILL CLOKTASK
000776: 36,3032           55162                           TS       DISPDEX
000777: 36,3033           01141                           TC       P40/RET
000778:
000779: 36,3034           05353        ASTNRETN           TC       PHASCHNG
000780: 36,3035           04024                           OCT      04024
000781: 36,3036           34755                           CAF      ZERO                                  #  STOP DISPLAYING BUT KEEP RUNNING
000782: 36,3037           55162                           TS       DISPDEX
000783: 36,3040           35023                           CAF      PRIO13
000784: 36,3041           05105                           TC       FINDVAC
000785: 36,3042  E5,1757                                  EBANK=   STARIND
000786: 36,3042           03212 64065                     2CADR    ASTNRET
000787:
000788: 36,3044           15155                           TCF      ENDOFJOB
000789:
000790: 36,3045           05504        *PROCEED           TC       UPFLAG
000791: 36,3046           00154                           ADRES    ASTNFLAG
000792:
000793: 36,3047           13106                           TCF      IGNITE
000794:
000795: 36,3050           00004        *ENTER             INHINT


000797: 36,3051           51455                           INDEX    WHICH
000798: 36,3052           10003                           TCF      3
000799:
000800: 36,3053           34644        GOPOST             CAF      PRIO12                                #  (3) MUST BE LOWER PRIORITY THAN CLOKJOB
000801: 36,3054           05105                           TC       FINDVAC
000802: 36,3055  E7,1453                                  EBANK=   TTOGO
000803: 36,3055           03227 74067                     2CADR    POSTBURN
000804:
000805: 36,3057           00004                           INHINT                                         #  SET UP THE DAP FOR COASTING FLIGHT.
000806: 36,3060           04674                           TC       IBNKCALL
000807: 36,3061           40205                           CADR     ALLCOAST
000808: 36,3062           03021                           TC       NULLCLOK
000809: 36,3063           05353                           TC       PHASCHNG                              #  4.13 RESTART FOR POSTBURN
000810: 36,3064           00134                           OCT      00134
000811:
000812: 36,3065           15155                           TCF      ENDOFJOB
000813:
000814: 36,3066           35027        GOCUTOFF           CAF      PRIO17                                #  (3)
000815: 36,3067           05105                           TC       FINDVAC
000816: 36,3070  E7,1516                                  EBANK=   TGO
000817: 36,3070           02416 30067                     2CADR    CUTOFF
000818:
000819: 36,3072           05516                           TC       DOWNFLAG
000820: 36,3073           00175                           ADRES    FLUNDISP
000821:
000822: 36,3074           00004                           INHINT                                         #  SET UP THE DAP FOR COASTING FLIGHT.
000823: 36,3075           04674                           TC       IBNKCALL
000824: 36,3076           40205                           CADR     ALLCOAST
000825: 36,3077           03021                           TC       NULLCLOK
000826: 36,3100           05353                           TC       PHASCHNG
000827: 36,3101           07024                           OCT      07024
000828: 36,3102           17000                           OCT      17000
000829: 36,3103  E7,1516                                  EBANK=   TGO
000830: 36,3103           02416 30067                     2CADR    CUTOFF
000831:
000832: 36,3105           15155                           TCF      ENDOFJOB
000833:
000834: 36,3106           40103        IGNITE             CS       FLAGWRD7                              #  (2)
000835: 36,3107           74737                           MASK     IGNFLBIT
000836: 36,3110           10000                           CCS      A
000837: 36,3111           13122                           TCF      IGNITE1
000838: 36,3112           34753                           CAF      BIT1
000839: 36,3113           00004                           INHINT
000840: 36,3114           05173                           TC       TWIDDLE
000841: 36,3115           02432                           ADRES    IGNITION
000842:
000843: 36,3116           34360                           CAF      OCT23                                 #  IMMEDIATE RESTART AT IGNITION


000845: 36,3117           54001                           TS       L
000846: 36,3120           40000                           COM
000847: 36,3121           52760                           DXCH     -PHASE4
000848:
000849: 36,3122           44762        IGNITE1            CS       CNTDNDEX                              #  RESTORE OLD DISPLAY.
000850: 36,3123           55162                           TS       DISPDEX
000851:
000852: 36,3124           15155                           TCF      ENDOFJOB
000853:
000854:                                                                                                  #        ********************************
000855:
000856: 36,3125           05567        P40ALM             TC       ALARM                                 #  PROGRAM SELECTION NOT CONSISTENT WITH
000857: 36,3126           01706                           OCT      1706                                  #  VEHICLE CONFIGURATION
000858:
000859: 36,3127           35006        REP40ALM           CAF      V05N09                                #  (14)
000860: 36,3130           04616                           TC       BANKCALL
000861: 36,3131           20477                           CADR     GOFLASH
000862:
000863: 36,3132           16001                           TCF      GOTOP00H                              #  V34E          TERMINATE
000864: 36,3133           13135                           TCF      +2                                    #  PROCEED       CHECK FOR P42
000865: 36,3134           13127                           TCF      REP40ALM                              #  V32E          REDISPLAY ALARM
000866:
000867: 36,3135           51455                           INDEX    WHICH                                 #  FOR P42, ALLOW CREW TO PRECEED EVEN
000868: 36,3136           10014                           TCF      14                                    #  THOUGH VEHICLE IS UNSTAGED.
000869:
000870:                                                                                                  #        ********************************
000871:
000872: 31,2144                                           BANK     31
000873: 35,2000                                           SETLOC   P40S2
000874: 35,2000                                           BANK
000875:
000876: 35,3707                                           COUNT*   $$/P40
000877:
000878: 35,3707           04645        P40AUTO            TC       MAKECADR                              #  HELLO THERE.
000879: 35,3710           55163                           TS       TEMPR60                               #  FOR GENERALIZED RETURN TO OTHER BANKS.
000880: 35,3711           04616        P40A/P             TC       BANKCALL                              #  SUBROUTINE TO CHECK PGNCS CONTROL
000881: 35,3712           54261                           CADR     G+N,AUTO                              #  AND AUTO STABILIZATION MODES
000882: 35,3713           10000                           CCS      A                                     #  +0 INDICATES IN PGNCS, IN AUTO
000883: 35,3714           13726                           TCF      TURNITON                              #  + INDICATES NOT IN PGNCS AND/OR AUTO
000884: 35,3715           34737                           CAF      APSFLBIT                              #  ARE WE ON THE DESCENT STAGE?
000885: 35,3716           70106                           MASK     FLGWRD10
000886: 35,3717           10000                           CCS      A
000887: 35,3720           13733                           TCF      GOBACK                                #  RETURN
000888: 35,3721           34747                           CAF      BIT5                                  #  YES, CHECK FOR AUTO-THROTTLE MODE
000889: 35,3722           00006                           EXTEND
000890: 35,3723           02030                           RAND     CHAN30
000891: 35,3724           00006                           EXTEND
000892: 35,3725           13733                           BZF      GOBACK                                #  IN AUTO-THROTTLE MODE -- RETURN


000894: 35,3726           33735        TURNITON           CAF      P40A/PMD                              #  DISPLAYS V50N25 R1=203 PLEASE PERFORM
000895: 35,3727           04616                           TC       BANKCALL                              #  CHECKLIST 203 TURN ON PGNCS ETC.
000896: 35,3730           20624                           CADR     GOPERF1
000897: 35,3731           16001                           TCF      GOTOP00H                              #  V34E TERMINATE
000898: 35,3732           13711                           TCF      P40A/P                                #  RECYCLE
000899: 35,3733           31163        GOBACK             CA       TEMPR60
000900: 35,3734           04640                           TC       BANKJUMP                              #  GOODBYE.  COME AGAIN SOON.
000901:
000902: 35,3735           00203        P40A/PMD           OCT      00203
000903:
000904: 36,3137                                           BANK     36
000905: 36,2000                                           SETLOC   P40S
000906: 36,2000                                           BANK
000907:
000908: 36,3137                                           COUNT*   $$/P40
000909:
000910:                                                                                                  #        **********************************
000911:                                                                                                  #        CONSTANTS FOR THE IGNITION ROUTINE
000912:                                                                                                  #        **********************************
000913:
000914: 36,3137  36,2107               SERVCADR           =        P63TABLE   +7
000915: 36,3137           02040        P40ADRES           ADRES    P40TABLE
000916: 36,3140           02050        P41ADRES           ADRES    P41TABLE   -5
000917: 36,3141           02063        P42ADRES           ADRES    P42TABLE
000918:
000919: 36,3142  E7,1515                                  EBANK=   DVCNTR
000920: 36,3142           02423 62067  LUNLANAD           2CADR    LUNLAND
000921:
000922: 36,3144  E7,1515                                  EBANK=   DVCNTR
000923: 36,3144           03372 70067  ATMAGADR           2CADR    ATMAG
000924:
000925: 36,3146     6001               ?                  =        GOTOP00H
000926:
000927: 36,3146           00000 05656  D29.9SEC           2DEC     2990       B-28
000928:
000929: 36,3150           04672        S24.9SEC           DEC      2490       B-14
000930:
000931: 36,3151           00752        4.9SEC             DEC      490        B-14
000932:
000933: 36,3152     4747               OCT20              =        BIT5
000934:


000936: 36,3152           01475        V06N61             VN       0661
000937:


000939:                                                                                                  #  KILLTASK
000940:                                                                                                  #  MOD NO:  NEW PROGRAM
000941:                                                                                                  #  MOD BY:  COVELLI
000942:
000943:                                                                                                  #  FUNCTIONAL DESCRIPTION:
000944:                                                                                                  #        KILLTASK IS USED TO REMOVE A TASK FROM THE WAITLIST BY SUBSTITUTING A NULL TASK CALLED `NULLTASK' (OF COURSE),
000945:                                                                                                  #        WHICH MEARELY DOES A TC TASKOVER.  IF THE SAME TASK IS SCHEDULED MORE THAN ONCE, ONLY THE ONE WHICH WILL OCCUR
000946:                                                                                                  #        FIRST IS REMOVED.  IF THE TASK IS NOT SCHEDULED, KILLTASK TAKES NO ACTION AND RETURNS WITH NO ALARM.  KILLTASK
000947:                                                                                                  #        LEAVES INTERRUPTS INHIBITED SO CALLER MUST RELINT
000948:
000949:                                                                                                  #  CALLING SEQUENCE
000950:                                                                                                  #        L       TC      KILLTASK        # IN FIXED-FIXED
000951:                                                                                                  #        L+1     CADR    ????????        # CADR (NOT 2CADR) OF TASK TO BE REMOVED.
000952:                                                                                                  #        L+2     (RELINT)                # RETURN
000953:
000954:                                                                                                  #  EXIT MODE:  AT L+2 OF CALLING SEQUENCE.
000955:
000956:                                                                                                  #  ERASABLE INITIALIZATION:  NONE.
000957:
000958:                                                                                                  #  OUTPUT:  2CADR OF NULLTASK IN LST2
000959:
000960:                                                                                                  #  DEBRIS:  ITEMP1 - ITEMP4, A, L, Q.
000961:
000962: 36,3153  E3,1410                                  EBANK=   LST2
000963:    6032                                           BLOCK    3                                     #  KILLTASK MUST BE IN FIXED-FIXED.
000964:    6000                                           SETLOC   FFTAG6
000965:    6000                                           BANK
000966:    6032                                           COUNT*   $$/KILL
000967:    6032           36041        KILLTASK           CA       KILLBB
000968:    6033           00004                           INHINT
000969:    6034           22000                           LXCH     A
000970:    6035           50002                           INDEX    Q
000971:    6036           30000                           CA       0                                     #  GET CADR.
000972:    6037           22006                           LXCH     BBANK
000973:    6040           12200                           TCF      KILLTSK2                              #  CONTINUE IN SWITCHED FIXED.
000974:
000975:    6041  E3,1410                                  EBANK=   LST2
000976:    6041           56063        KILLBB             BBCON    KILLTSK2
000977:
000978: 27,2200                                           BANK     27
000979:
000980: 27,2000                                           SETLOC   P40S1
000981: 27,2000                                           BANK
000982: 27,2200                                           COUNT*   $$/KILL
000983:
000984: 27,2200           22062        KILLTSK2           LXCH     ITEMP2                                #  SAVE CALLER'S BBANK


000986: 27,2201           24002                           INCR     Q
000987: 27,2202           00006                           EXTEND
000988: 27,2203           22061                           QXCH     ITEMP1                                #  RETURN 2ADR IN ITEMP1,ITEMP2
000989:
000990: 27,2204           54063                           TS       ITEMP3                                #  CADR IS IN A
000991: 27,2205           75012                           MASK     LOW10
000992: 27,2206           64741                           AD       BIT11
000993: 27,2207           54064                           TS       ITEMP4                                #  GENADR OF TASK
000994:
000995: 27,2210           45012                           CS       LOW10
000996: 27,2211           70063                           MASK     ITEMP3
000997: 27,2212           54063                           TS       ITEMP3                                #  FBANK OF TASK
000998:
000999: 27,2213           22007                           ZL
001000: 27,2214           50001        ADRSCAN            INDEX    L
001001: 27,2215           41410                           CS       LST2
001002: 27,2216           60064                           AD       ITEMP4                                #  COMPARE GENADRS
001003: 27,2217           00006                           EXTEND
001004: 27,2220           12232                           BZF      TSTFBANK                              #  IF THEY MATCH, COMPARE FBANKS
001005: 27,2221           44747        LETITLIV           CS       LSTLIM
001006: 27,2222           60001                           AD       L
001007: 27,2223           00006                           EXTEND                                         #  ARE WE DONE?
001008: 27,2224           12230                           BZF      DEAD                                  #  YES -- DONE, SO RETURN
001009: 27,2225           24001                           INCR     L
001010: 27,2226           24001                           INCR     L
001011: 27,2227           12214                           TCF      ADRSCAN                               #  CONTINUE LOOP.
001012:
001013: 27,2230           52062        DEAD               DXCH     ITEMP1
001014: 27,2231           52006                           DTCB
001015:
001016: 27,2232           45012        TSTFBANK           CS       LOW10
001017: 27,2233           50001                           INDEX    L
001018: 27,2234           71411                           MASK     LST2       +1                         #  COMPARE FBANKS ONLY.
001019: 27,2235           00006                           EXTEND
001020: 27,2236           60063                           SU       ITEMP3
001021: 27,2237           00006                           EXTEND
001022: 27,2240           12242                           BZF      KILLDEAD                              #  MATCH -- KILL IT.
001023: 27,2241           12221                           TCF      LETITLIV                              #  NO MATCH -- CONTINUE.
001024:
001025: 27,2242           34353        KILLDEAD           CA       TCTSKOVR
001026: 27,2243           50001                           INDEX    L
001027: 27,2244           55410                           TS       LST2                                  #  REMOVE TASK BY INSERTING TASKOVER
001028: 27,2245           12230                           TCF      DEAD
001029:
001030: 27,2246     4747               LSTLIM             EQUALS   BIT5                                  #  DEC 16

End of include-file BURN_BABY_BURN--MASTER_IGNITION_ROUTINE.agc.  Parent file is MAIN.agc


