
Source Code


000002:                                                                                                  #  Copyright:    Public domain.
000003:                                                                                                  #  Filename:     CONIC_SUBROUTINES.agc
000004:                                                                                                  #  Purpose:      A section of Luminary 1C, revision 131.
000005:                                                                                                  #                It is part of the source code for the Lunar Module's (LM)
000006:                                                                                                  #                Apollo Guidance Computer (AGC) for Apollo 13 and Apollo 14.
000007:                                                                                                  #                This file is intended to be a faithful transcription, except
000008:                                                                                                  #                that the code format has been changed to conform to the
000009:                                                                                                  #                requirements of the yaYUL assembler rather than the
000010:                                                                                                  #                original YUL assembler.
000011:                                                                                                  #  Reference:    pp. 1158-1202 of 1729.pdf.
000012:                                                                                                  #  Contact:      Ron Burkey <info@sandroid.org>.
000013:                                                                                                  #  Website:      www.ibiblio.org/apollo/index.html
000014:                                                                                                  #  Mod history:  06/01/03 RSB.   Began transcribing.
000015:                                                                                                  #                05/14/05 RSB    Corrected website reference above.
000016:                                                                                                  #                2010-08-24 JL   Fixed page 1162 number.
000017:
000018:                                                                                                  #  Page 1158
000019:                                                                                                  #  PROGRAM DESCRIPTION -- ENTIRE CONIC SUBROUTINE LOG SECTION    DATE -- 1 SEPTEMBER 1967
000020:                                                                                                  #  MOD NO. -- 0                                                  LOG SECTION -- CONIC SUBROUTINES
000021:                                                                                                  #  MOD BY KRAUSE                                                 ASSEMBLY -- COLOSSUS REVISION 88
000022:
000023:                                                                                                  #  FUNCTIONAL DESCRIPTION --
000024:                                                                                                  #        THE FOLLOWING SET OF SUBROUTINES SOLVE VARIOUS PROBLEMS INVOLVING THE TRAJECTORY PRODUCED BY A CENTRAL
000025:                                                                                                  #        INVERSE-SQUARE FORCE ACTING ON A POINT MASS, AS OUTLINED IN THE CMC AND LGC LUNAR LANDING MISSION GSOP, SECTION
000026:                                                                                                  #        5.5.1.2.  A GENERAL USAGE POINT-OF-VIEW WAS TAKEN IN FORMULATING, MECHANIZING, AND SCALING THE SUBROUTINES,
000027:                                                                                                  #        RATHER THAN OPTIMIZING EACH FOR A PARTICULAR USE.  THEREFORE, MULTIPLE USAGE CAN BE MADE OF THE SUBROUTINES
000028:                                                                                                  #        INVOLVING ANY REALISTIC SET OF CONSTRAINTS.  IT SHOULD BE NOTED THAT ONLY ONE SET OF CODING IS USED, WHETHER THE
000029:                                                                                                  #        EARTH, MOON, OR ANY OTHER CELESTIAL BODY IS SPECIFIED AS THE CENTRAL BODY OF THE PROBLEM, PROVIDED ONE OBSERVES
000030:                                                                                                  #        THE INHERENT SCALE CHANGE REQUIRED IN POSITION, VELOCITY, MU, AND TIME, AS OUTLINES IN MISSION PROGRAMMING
000031:                                                                                                  #        DEFINITION MEMO NO. 10.  THIS CAN BE ACCOMPLISHED BY SIMPLY ADDING TO THE MUTABLE AND INITIALIZING THE SUBROUTINES
000032:                                                                                                  #        APPROPRIATELY.
000033:
000034:                                                                                                  #        DUE TO THE UNIFORMITY OF THE EQUATIONS INVOLVED, CODING WAS MINIMIZED BY TREATING INDIVIDUAL EQUATIONS AND
000035:                                                                                                  #        BLOCKS OF EQUATIONS AS SUBROUTINES OF LOWER RANK WHENEVER POSSIBLE.  AS A RESULT, THREE BY-PRODUCTS SUBROUTINES,
000036:                                                                                                  #        DIRECTLY USABLE AS INDEPENDENT SUBROUTINES, WERE GENERATED.
000037:
000038:                                                                                                  #  RESTRICTIONS --
000039:                                                                                                  #        THE ONLY LIMITATION IN THE SCOPE OF THE PROBLEM WHICH CAN BE SOLVED BY A PARTICULAR SUBROUTINE IS THE SCALING
000040:                                                                                                  #        LIMIT OF EACH PARAMETER AS SPECIFIED IN THE GSOP.  THESE SCALING LIMITS WERE CHOSEN SO THAT ALL FEASIBLE TRAJECTORIES
000041:                                                                                                  #        COULD BE HANDLED.
000042:
000043:                                                                                                  #        SINCE THE SUBROUTINES (EXCEPT KEPLER) USE COMMON SUBROUTINES OF LOWER RANK WHICH USE ERASABLE OTHER THAN
000044:                                                                                                  #        THE PUSHLIST (DUE TO ITS LIMITED SIZE) AND COMMON INTERPRETIVE SWITCHES, THE CONIC SUBROUTINES CANNOT BE ALLOWED
000045:                                                                                                  #        TO INTERRUPT EACH OTHER.  IT IS UP TO THE USER TO GUARANTEE THIS CONDITION.
000046:
000047:                                                                                                  #  Page 1159
000048:                                                                                                  #  PROGRAM DESCRIPTION -- KEPLER SUBROUTINE                      DATE -- 11 OCTOBER 1967
000049:                                                                                                  #  MOD NO. -1                                                    LOG SECTION -- CONIC SUBROUTINES
000050:                                                                                                  #  MOD BY KRAUSE                                                 ASSEMBLY -- COLOSSUS 103 AND SUNDANCE 222
000051:                                                                                                  #  MOD NO. -- 2 (AUGUST 1968) BY ROBERTSON: TO PERMIT BACKDATING BY MORE THAN ONE ORBITAL PERIOD.
000052:                                                                                                  #  MOD NO. -- 3 (DEC 1968) BY ROBERTSON:  SUPPRESSION OF X-MODULO-ING
000053:                                                                                                  #  MOD NO. -- 4 (JAN 1969) BY ROBERTSON:  CLEAR OVFIND AT KEPLER ENTRY
000054:
000055:                                                                                                  #  FUNCTIONAL DESCRIPTION --
000056:                                                                                                  #        THIS SUBROUTINE, GIVEN AN INITIAL STATE VECTOR AND THE DESIRED TRANSFER TIME THROUGH WHICH THE STATE IS TO
000057:                                                                                                  #        BE UPDATED ALONG A CONIC TRAJECTORY, COMPUTES THE NEW, UPDATED STATE VECTOR.  THE TRAJECTORY MAY BE ANY CONIC
000058:                                                                                                  #        SECTION -- CIRCULAR, ELLIPTIC, PARABOLIC, HYPERPOLIC, OR RECTILINEAR WITH RESPECT TO THE EARTH OR THE MOON. THE
000059:                                                                                                  #        USE OF THE SUBROUTINE CAN BE EXTENDED USING OTHER PRIMARY BODIES BY SIMPLE ADDITIONS TO THE MUTABLE WITHOUT
000060:                                                                                                  #        INTRODUCING ANY CODING CHANGES, ACCEPTING THE INHERENT SCALE FACTOR CHANGES IN POSITION AND VELOCITY.  AN ITERATION
000061:                                                                                                  #        TECHNIQUE IS UTILIZED IN THE COMPUTATION.
000062:
000063:                                                                                                  #        IF A NEGATIVE TIME-OF-FLIGHT IS INPUT, THE PROGRAM WILL SOLVE FOR THE STATE WHICH WOULD BE PRODUCED BY
000064:                                                                                                  #        EXTRAPOLATING THE POSITION BACKWARD IN TIME.
000065:
000066:                                                                                                  #        IF THE ABSOLUTE VALUE OF THE DESIRED TRANSFER TIME EXCEEDS THE ORBITAL PERIOD, THE SUBROUTINE, THROUGH A
000067:                                                                                                  #        MODULAR TECHNIQUE, WILL COMPUTE THE STATE CORRESPONDING TO THE DESIRED TIME (WHETHER POSITIVE OR NEGATIVE).
000068:
000069:                                                                                                  #  THE RESTRICTIONS ARE --
000070:                                                                                                  #        1.      (PREVIOUS RESTRICTION ON THE NEGATIVE DESIRED TRANSFER TIME IS NOW DELETED.)
000071:                                                                                                  #        2.      THE PARAMETERS IN THE PROBLEM CANNOT EXCEED THEIR SCALING LIMITS AS SPECIFIED IN THE GSOP.  IF
000072:                                                                                                  #                ANY OF THESE LIMITS ARE EXCEEDED, THE RESULTING SOLUTION WILL BE MEANINGLESS.
000073:
000074:                                                                                                  #        THE NUMBER OF ITERATIONS AND, THEREFORE, THE COMPUTATION SPEED IS DEPENDENT ON THE ACCURACY OF THE
000075:                                                                                                  #        GUESS, XKFPNEW.  THE AGC COMPUTATION TIME IS APPROXIMATELY .061 SECONDS FOR INITIALIZATION, .065 SECONDS FOR THE
000076:                                                                                                  #        FINAL COMPUTATIONS, PLUS .083 SECONDS FOR EACH ITERATION.
000077:
000078:                                                                                                  #  REFERENCES --
000079:                                                                                                  #        R-479, MISSION PROGRAMMING DEFINITION MEMO NO. 10, LUNAR LANDING MISSION GSOP, SECTION 5.5, SGA
000080:                                                                                                  #        MEMO 67-4.
000081:
000082:                                                                                                  #  INPUT -- ERASABLE INITIALIZATION REQUIRED
000083:                                                                                                  #                         SCALE FACTOR
000084:                                                                                                  #        VARIABLE        IN POWERS OF 2          DESCRIPTION AND REMARKS
000085:                                                                                                  #        --------        --------------          -----------------------
000086:                                                                                                  #        RRECT           +29 FOR EARTH           DP INITIAL POSITION VECTOR IN METERS
000087:                                                                                                  #                        +27 FOR MOON
000088:                                                                                                  #  Page 1160
000089:                                                                                                  #        VRECT           +7 FOR EARTH            DP INITIAL VELOCITY VECTOR IN METERS/CENTISECOND
000090:                                                                                                  #                        +5 FOR MOON
000091:                                                                                                  #        X1 (38D)        NONE                    INDEX REGISTER SET TO -2D OR -10D ACCORDING TO WHETHER THE EARTH OR MOON,
000092:                                                                                                  #                                                        RESPECTIVELY, IS THE CENTRAL BODY
000093:                                                                                                  #        TAU             +28                     DESIRED TRANSFER TIME IN CENTISECONDS (DP)
000094:                                                                                                  #                                                        MAY BE POS OR NEG AND ABSOLUTE VALUE MAY BE GREATER OR LESS THAN ONE ORBITAL +
000095:                                                                                                  #        XKEPNEW         +17 FOR EARTH           DP GUESS OF ROOT X OF KEPLER'S EQN IN SQRT(METERS).  SIGN SHOULD AGREE WITH THAT OF T+
000096:                                                                                                  #                        +16 FOR MOON                    AND ABS VALUE SHOULD BE LESS THAN THAT CORRESPONDING TO A PERIOD, VIZ., 2PI S+
000097:                                                                                                  #                                                        MAJOR AXIS), FOR SPEED OF CONVERGENCE, BUT IF EITHER CONDITION FAILS, XKEPNEW+
000098:                                                                                                  #                                                        BY KEPLER TO A POOR BUT VALID GUESS.
000099:                                                                                                  #        TC              +28                     DP PREV. VALUE OF TIME IN CENTISECS.  MUST BE LESS THAN ONE ORBITAL PERIOD.
000100:                                                                                                  #        XPREV           +17 FOR EARTH           DP PREV. VALUE OF X IN SQRT(METERS).  MUST BE LESS THAN AN X CORRESPONDING TO ONE
000101:                                                                                                  #                        +16 FOR MOON                    ORBITAL PERIOD, VIZ., 2PI SQRT(SEMI-MAJOR AXIS)
000102:
000103:                                                                                                  #  SUBROUTINES CALLED --
000104:                                                                                                  #        DELTIME
000105:
000106:                                                                                                  #  CALLING SEQUENCE AND NORMAL EXIT MODES --
000107:                                                                                                  #        KEPRTN-2        GOTO                    # MUST BE IN INTERPRETIVE MODE BUT OVFIND ARBITRARY.
000108:                                                                                                  #        KEPRTN-1                KEPLER          # RETURNS WITH XPREV IN MPAC.  PL IS AT 0.
000109:                                                                                                  #        KEPRTN          ...                     # CONTINUE
000110:
000111:                                                                                                  #        KEPLER MUST NOT BE CALLED DIRECTLY SINCE AN INTERRUPTION OF IT WOULD DESTROY THE ERASABLES IT NEEDS TO COMPLETE
000112:                                                                                                  #        THE INTERRUPTED JOB.  THEREFORE THE USER MUST CALL CSMCONIC OR LEMCONIC WHICH GUARANTEES NO INTERRUPTS AND WHICH
000113:                                                                                                  #        ALSO CALLS KEPPREP TO COMPUTE A GUESS OF XKEPNEW.
000114:
000115:                                                                                                  #  ABORT EXIT MODE --
000116:                                                                                                  #        NONE
000117:
000118:                                                                                                  #  OUTPUT --
000119:                                                                                                  #                         SCALE FACTOR
000120:                                                                                                  #        VARIABLE        IN POWERS OF 2          DESCRIPTION AND REMARKS
000121:                                                                                                  #        --------        --------------          -----------------------
000122:                                                                                                  #        RCV             +29 FOR EARTH           DP TERMINAL POSITION VECTOR IN METERS
000123:                                                                                                  #                        +27 FOR MOON
000124:                                                                                                  #        VCV             +7 FOR EARTH            DP TERMINAL VELOCITY VECTOR IN METERS/CENTISEC
000125:                                                                                                  #                        +5 FOR MOON
000126:                                                                                                  #        TC              +28                     DP TRANSFER TIME IN CENTISECS TO WHICH KEPLER CONVERGED.  ALWAYS LESS THAN ONE PERIOD+
000127:                                                                                                  #        XPREV           +17 FOR EARTH           DP VALUE OF X IN SQRT(METERS) TO WHICH KEPLER CONVERGED.  ALWAYS LESS THAN THE X
000128:                                                                                                  #                        +16 FOR MOON                    CORRSPONDING ONE PERIOD.
000129:                                                                                                  #  Page 1161
000130:                                                                                                  #        FOR OTHER OUTPUT WHICH MAY BE OF USE, SEE DEBRIS.
000131:
000132:                                                                                                  #  DEBRIS --
000133:                                                                                                  #        PARAMETERS WHICH MAY BE OF USE --
000134:                                                                                                  #                         SCALE FACTOR
000135:                                                                                                  #        VARIABLE        IN POWERS OF 2          DESCRIPTION AND REMARKS
000136:                                                                                                  #        --------        --------------          -----------------------
000137:                                                                                                  #        URRECT          +1                      DP UNIT VECTOR OF INITIAL POSITION
000138:                                                                                                  #        R1              +29 FOR EARTH           DP MAGNITUDE OF INITIAL POSITION IN METERS
000139:                                                                                                  #                        +27 FOR MOON
000140:                                                                                                  #        ALPHA           -22 FOR EARTH           DP INVERSE OF SEMI-MAJOR AXIS IN 1/METERS
000141:                                                                                                  #                        -20 FOR MOON
000142:                                                                                                  #        TMODULO         +28                     DP INTEGRAL NUMBER OF PERIODS IN CENTISECS.  WHICH WAS SUBTRACTED FROM TAU. TO PRODUC+
000143:                                                                                                  #                                                        TAU. OF LESS THAN ONE PERIOD.
000144:
000145:                                                                                                  #  PARAMETERS OF NO USE --
000146:                                                                                                  #        DP PARAMETERS -- FPSILENT, DELX, DELT, RCNORM, XMODULO, PLUS PUSHLIST REGISTERS 0 THROUGH 39D.
000147:
000148:                                                                                                  #  Page 1162
000149:                                                                                                  #  PROGRAM DESCRIPTION -- LAMBERT SUBROUTINE                     DATE -- 1 SEPTEMBER 1967
000150:                                                                                                  #  MOD NO. -- 0                                                  LOG SECTION -- CONIC SUBROUTINES
000151:                                                                                                  #  MOD BY KRAUSE                                                 ASSEMBLY -- COLOSSUS REVISION 88
000152:
000153:                                                                                                  #  FUNCTIONAL DESCRIPTION --
000154:                                                                                                  #        THIS SUBROUTINE CALCULATES THE INITIAL VELOCITY REQUIRED TO TRANSFER A POINT-MASS ALONG A CONIC TRAJECTORY
000155:                                                                                                  #        FROM AN INITIAL POSITION TO A TERMINAL POSITION IN A PRESCRIBED TIME INTERVAL.  THE RESULTING TRAJECTORY MAY BE
000156:                                                                                                  #        A SECTION OF A CIRCLE, ELLIPSE, PARABOLA, OR HYPERBOLA WITH RESPECT TO TEH EARTH OR THE MOON.  THE USE OF THE
000157:                                                                                                  #        SUBROUTINE CAN BE EXTEDED USING OTHER PRIMARY BODIES BY SIMPLE ADDITIONS TO THE MUTABLE WITHOUT INTRODUCING ANY
000158:                                                                                                  #        CODING CHANGES, ACCEPTING THE INHERENT SCALE FACTOR CHANGES IN POSITION AND VELOCITY.  AN ITERATION TECHNIQUE IS
000159:                                                                                                  #        UTILIZED IN THE COMPUTATION.
000160:
000161:                                                                                                  #  THE RESTRICTIONS ARE: --
000162:                                                                                                  #        1. RECTILINEAR TRAJECTORIES CANNOT BE COMPUTED.
000163:                                                                                                  #        2. AN ACCURACY DEGRADATION OCCURS AS THE COSINE OF THE TRUE ANOMALY DIFFERENCE APPROACHES +1.0.
000164:                                                                                                  #        3. THE ANGLE BETWEEN ANY POSITION VECTOR AND ITS VELOCITY VECTOR MUST BE GREATER THAN 1 DEGREE 47.5 MINUTES
000165:                                                                                                  #           AND LESS THAN 178 DEGREES 12.5 MINUTES.
000166:                                                                                                  #        4. NEGATIVE TRANSFER TIME IS AMBUGUOUS AND WILL RESULT IN NO SOLUTION.
000167:                                                                                                  #        5. THE PARAMETERS IN THE PROBLEM MUST NOT EXCEED THEIR SCALING LIMITS SPECIFIED IN THE GSOP.  IF THE
000168:                                                                                                  #           LIMITS ARE EXCEEDED, THE RESULTING SOLUTION WILL BE MEANINGLESS.
000169:
000170:                                                                                                  #        THE NUMBER OF ITERATIONS AND, THEREFORE, THE COMPUTATION'S SPEED IS DEPENDENT ON THE ACCURACY OF THE FIRST
000171:                                                                                                  #        GUESS OF THE INDEPENDENT VARIABLE, COGA.  THE AGC COMPUTATION TIME IS APPROXIMATELY
000172:                                                                                                  #        .105 SECONDS FOR INITIALIZATION, .069 SECONDS FOR FINAL COMPUTATIONS, PLUS .205 SECONDS FOR EACH ITERATION.
000173:
000174:                                                                                                  #  REFERENCES --
000175:                                                                                                  #        R-479, MISSION PROGRAMMING DEFINITION MEMO NO. 10, LUNAR LANDING MISSION GSOP -- SECTION 5.5, SGA MEMO 67-8,
000176:                                                                                                  #        SGA MEMO 67-4.
000177:
000178:                                                                                                  #  INPUT -- ERASABLE INITIALIZATION REQUIRED
000179:                                                                                                  #                         SCALE FACTOR
000180:                                                                                                  #        VARIABLE        IN POWERS OF 2          DESCRIPTION AND REMARKS
000181:                                                                                                  #        --------        --------------          -----------------------
000182:                                                                                                  #        R1VEC           +29 FOR EARTH           DP INITIAL POSITION VECTOR IN METERS
000183:                                                                                                  #                        +27 FOR MOON
000184:                                                                                                  #        R2VEC           +29 FOR EARTH           DP TARGET OR TERMINAL POSITION VECTOR IN METERS
000185:                                                                                                  #                        +27 FOR MOON
000186:                                                                                                  #        TDESIRED        +28                     DP DESIRED TRANSFER TIME IN CENTISECONDS
000187:                                                                                                  #        X1 (38D)        NONE                    INDEX REGISTER SET TO -2D OR -10D ACCORDING TO WHETHER THE EARTH OR MOON,
000188:                                                                                                  #                                                        RESPECTIVELY, IS THE CENTRAL BODY
000189:                                                                                                  #        GEOMSGN         NONE                    SP +.5 IF DESIRED TRANSFER ANGLE IS LESS THAN 180 DEGREES, -.5 IF GREATER THAN 180 DE+
000190:                                                                                                  #        GUESSW          NONE                    AN INTERPRETER SWITCH TO BE SET IF NO GUESS OF COGA IS AVAILABLE, CLEAR IF A GUESS OF+
000191:                                                                                                  #  Page 1163
000192:                                                                                                  #                                                        COGA IS TO BE USED BY LAMBERT
000193:                                                                                                  #        COGA            +5                      DP GUESS OF COTANGENT OF FLIGHT PATH ANGLE (MEASURED FROM VERTICAL).  THIS WILL BE
000194:                                                                                                  #                                                IGNORED IF GUESSW IS SET.
000195:                                                                                                  #        NORMSW          NONE                    AN INTERPRETER SWITCH TO BE SET IF UN IS TO BE AN INPUT TO THE SUBROUTINE, CLEAR IF
000196:                                                                                                  #                                                        LAMBERT IS TO COMPUTE ITS OWN NORMAL (UN).
000197:                                                                                                  #        UN              +1                      DP UNIT NORMAL TO THE DESIRED ORBIT PLANE IN THE DIRECTION OF THE RESULTING ANGULAR
000198:                                                                                                  #                                                        MOMENTUM VECTOR.  THIS WILL BE IGNORED IF NORMSW IS CLEAR.
000199:                                                                                                  #        VTARGTAG        NONE                    A S.P. TAG TO BE SET TO ZERO IF LAMBERT IS TO COMUTE THE VELOCITY OF R2VEC AS WELL AS+
000200:                                                                                                  #                                                        AT R1VEC.
000201:                                                                                                  #        ITERCTR         NONE                    A S.P. COUNTER WHICH SPECIFIES THE MAXIMUM NUMBER OF ITERATIONS ALLOWABLE.
000202:                                                                                                  #                                                        [AN ITERATION MEANS A PASS THRU KEPLER EQN (DELTIME).  AT LEAST ONE OF THESE +
000203:                                                                                                  #                                                        ALWAYS OCCUR, EVEN IF COGA CORRESPONDING TO SOLUTION WERE INPUT AS A GUESS.]
000204:                                                                                                  #                                                        TWENTY ITERATIONS ARE SUFFICIENT TO SOLVE ALL PROBLEMS INCLUDING THOSE WITHOU+
000205:
000206:                                                                                                  #  SUBROUTINES CALLED --
000207:                                                                                                  #        GEOM, GETX, DELTIME, ITERATOR, LAMENTER (PART OF NEWSTATE)
000208:
000209:                                                                                                  #  CALLING SEQUENCE AND NORMAL EXIT MODES --
000210:                                                                                                  #        L       CALL                    # MUST BE IN INTERPRETIVE MODE BUT OVFIND ARBITRARY.
000211:                                                                                                  #        L+1             LAMBERT         # RETURNS WITH PL AT 0 AND WITH VVEC IN MPAC IF VTARGTAG WAS WAS NON-ZERO OR VTARGET
000212:                                                                                                  #                                        # IN MPAC IF VTARGTAG WAS ZERO
000213:                                                                                                  #        L+2     BON                     # CONTINUE IF SOLNSW CLEAR SINCE SOLUTION IS ACCEPTABLE
000214:                                                                                                  #        L+3             SOLNSW
000215:                                                                                                  #        L+4             LAMABORT
000216:
000217:                                                                                                  #        IF A LAMBER RESULT IS TO BE A FIRST GUESS FOR THE NEXT LAMBERT CALCULATION, COGA MUST BE PRESERVED AND
000218:                                                                                                  #        GUESSW MUST BE CLEAR FOR EACH SUCCEEDING LAMBERT CALL.
000219:
000220:                                                                                                  #  ABORT EXIT MODES --
000221:                                                                                                  #        IF SOLNSW WAS SET UPON EXITING, EITHER LAMBERT WAS ASKED TO COMPUTE A TRANSFER TOO NEAR 0 OR 260 DEG, OR T
000222:                                                                                                  #        WAS TOO SMALL TO PRODUCE A REALISTIC TRANSFER BETWEEN R1VEC AND R2FEC.  IN EITHER CASE THE FIX MUST BE MADE
000223:                                                                                                  #        ACCORDING TO THE NEEDS OF THE PARTICULAR USER.  THE ABORT EXIT MODE MAY BE CODED AS ...
000224:                                                                                                  #        LAMBERT         DLOAD   ABS             # A MEASURE OF THE PROXIMITY TO 0 OR
000225:                                                                                                  #                                1-CHTH          # 360 DEGREES.
000226:                                                                                                  #                        DSU     BWM
000227:                                                                                                  #                                ONEBIT
000228:                                                                                                  #                                CHANGER2        # CHANGE R2VEC DIRECTION SLIGHTLY.
000229:                                                                                                  #                        DLOAD   DAD
000230:                                                                                                  #                                TDESIRED
000231:                                                                                                  #                                SOMETIE
000232:                                                                                                  #                        STCALL  TDESIRED        # INCRESE TDESIRED
000233:                                                                                                  #                                LAMBERT
000234:
000235:                                                                                                  #  Page 1164
000236:                                                                                                  #  OUTPUT --
000237:                                                                                                  #                         SCALE FACTOR
000238:                                                                                                  #        VARIABLE        IN POWERS OF 2          DESCRIPTION AND REMARKS
000239:                                                                                                  #        --------        --------------          -----------------------
000240:                                                                                                  #        VVEC            +7 FOR EARTH            DP INITIAL VELOCITY VECTOR IN METERS/CENTISECOND REQUIRED TO SATISFY THE BOUNDARY VAL+
000241:                                                                                                  #                        +5 FOR MOON                     PROBLEM.
000242:                                                                                                  #        VTARGET         +7 FOR EARTH            DP RESULTANT VELOCITY VECTOR AT R2VEC IN METERS/CENTISECOND.
000243:                                                                                                  #                        +5 FOR MOON
000244:                                                                                                  #        SOLNSW          NONE                    INTERPRETER SWITCH WHICH IS SET IF THE SUBROUTINE CANNOT SOLVE THE PROBLEM, CLEAR IF +
000245:                                                                                                  #                                                        SOLUTION EXISTS.
000246:
000247:                                                                                                  #        FOR OTHER OUTPUT WHICH MAY BE OF USE, SEE DEBRIS.
000248:
000249:                                                                                                  #  DEBRIS --
000250:                                                                                                  #        PARAMETERS WHICH MAY BE OF USE --
000251:                                                                                                  #                         SCALE FACTOR
000252:                                                                                                  #        VARIABLE        IN POWERS OF 2          DESCRIPTION AND REMARKS
000253:                                                                                                  #        --------        --------------          -----------------------
000254:                                                                                                  #        SNTH            +1                      DP SIN OF ANGLE BETWEEN R1VEC AND R2VEC
000255:                                                                                                  #        CSTH            +1                      DP COSING OF ANGLE
000256:                                                                                                  #        1-CSTH          +2                      DP 1-CSTH
000257:                                                                                                  #        COGA            +5                      DP COTAN OF INITIAL REQUIRED FLIGHT PATH ANGLE MEASURED FROM VERTICAL
000258:                                                                                                  #        P               +4                      DP RATIO OF SEMILATUS RECTUM TO INITIAL RADIUS
000259:                                                                                                  #        R1A             +6                      DP RATIO OF INITIAL RADIUS TO SEMI-MAJOR AXIS
000260:                                                                                                  #        R1 (32D)        +29 FOR EARTH           DP INITIAL RADIUS IN METERS
000261:                                                                                                  #                        +27 FOR MOON
000262:                                                                                                  #        UR1             +1                      DP UNIT VECTOR OF R1VEC
000263:                                                                                                  #        U2              +1                      DP UNIT VECTOR OF R2VEC
000264:
000265:                                                                                                  #        PARAMETERS OF NO USE --
000266:                                                                                                  #                DP PARAMETERS -- EPSILONL, CSTH-RHO, TPREV, TERRLAMB, R2, RTNLAMB (SP), PLUS PUSHLIST REGISTER 0 THROUGH 41D
000267:                                                                                                  #                ADDITIONAL INTERPRETIVE SWITCHES USED -- INFINFLG, 360SW, SLOPESW, ORDERSW
000268:
000269:                                                                                                  #  Page 1165
000270:                                                                                                  #  PROGRAM DESCRIPTION -- TIME-THETA SUBROUTINE                  DATE -- 1 SEPTEMBER 1967
000271:                                                                                                  #  MOD NO. -- 0                                                  LOG SECTION -- CONIC SUBROUTINES
000272:                                                                                                  #  MOD BY KRAUSE                                                 ASSEMBLY -- COLOSSUS REVISION 88
000273:
000274:                                                                                                  #  FUNCTIONAL DESCRIPTION --
000275:                                                                                                  #        THIS SUBROUTINE, GIVEN AN INITIAL STATE VECTOR AND A DESIRED TRUE-ANOMALY-DIFFERENCE THROUGH WHICH THE
000276:                                                                                                  #        STATE IS TO BE UPDATED ALONG A CONIC TRAJECTORY, CALCULATES THE CORRESPONDING TIME-OF-FLIGHT AND, IN ADDITION,
000277:                                                                                                  #        PROVIDES THE OPTION OF COMUTING THE NEW UPDATED STATE VECTOR.  THE RESULTING TRAJECTORY MAY BE A SECTION OF A
000278:                                                                                                  #        CIRCLE, ELLIPSE, PARABOLA, OR HYPERBOLA WITH RESPECT TO THE EARTH OR THE MOON.  THE USE OF TEH SUBROUTINE CAN BE
000279:                                                                                                  #        EXTENDED USING OTHER PRIMARY BODIES BY SIMPLE ADDITIONS TO THE MUTABLE WTIHOUT INTRODUCING ANY CODING CHANGES,
000280:                                                                                                  #        ACCEPTING THE INHERENT SCALE FACTOR CHANGES IN POSITION AND VELOCITY.
000281:
000282:                                                                                                  #  THE RESTRICTIONS ARE --
000283:                                                                                                  #        1. THE ANGLE BETWEEN ANY POSITION VECTOR AND ITS VELOCITY VECTOR MUST BE GREATER THAN 1 DEGREE 47.5 MINUTES
000284:                                                                                                  #           AND LESS THAN 178 DEGREES 12.5 MINUTES.
000285:                                                                                                  #        2. THE PARAMETERS IN THE PROBLEM MUST NOT EXCEED THEIR SCALING LIMITS SPECIFIED IN THE GSCP.  IF THE LIMITS
000286:                                                                                                  #           ARE EXCEEDED, THE RESULTING SOLUTION WILL BE MEANINGLY.
000287:
000288:                                                                                                  #        THE AGC COMPUTATION TIME IS APPROXIMATELY .292 SECONDS.
000289:
000290:                                                                                                  #  REFERENCES --
000291:                                                                                                  #        R-479, MISSION PROGRAMMING DEFINITION MEMO NO. 10, LUNAR LANDING MISSION GSOP-SECTION 5.5, SGA MEMO 67-8.
000292:
000293:                                                                                                  #  INPUT -- ERASABLE INITIALIZATION REQUIRED
000294:                                                                                                  #                         SCALE FACTOR
000295:                                                                                                  #        VARIABLE        IN POWERS OF 2          DESCRIPTION AND REMARKS
000296:                                                                                                  #        --------        --------------          -----------------------
000297:                                                                                                  #        RVEC            +29 FOR EARTH           DP INITIAL POSITION VECTOR IN METERS
000298:                                                                                                  #                        +27 FOR MOON
000299:                                                                                                  #        VVEC            +7 FOR EARTH            DP INITIAL VELOCITY VECTOR IN METERS/CENTISECOND
000300:                                                                                                  #                        +5 FOR MOON
000301:                                                                                                  #        SNTH            +1              `       DP SINE OF THE TRUE-ANOMALY-DIFFERENCE THROUGH WHICH THE STATE IS TO BE UPDATED
000302:                                                                                                  #        CSTH            +1                      DP COSINE OF THE ANGLE
000303:                                                                                                  #        RVSW            NONE                    AN INTERPRETIVE SWITCH TO BE SET IF ONLY TIME IS TO BE AN OUTPUT, CLEAR IF THE NEW ST+
000304:                                                                                                  #                                                        IS TO BE COMPUTED ALSO.
000305:                                                                                                  #        X1 (38D)        NONE                    INDEX REGISTER TO BE SET TO -2D OR -10D ACCORDING TO WHETHER THE EARTH OR MOON,
000306:                                                                                                  #                                                        RESPECTIVELY, IS THE CENTRAL BODY.
000307:
000308:                                                                                                  #  SUBROUTINES CALLED --
000309:                                                                                                  #  Page 1166
000310:                                                                                                  #        PARAM, GEOM, GETX, DELTIME, NEWSTATE
000311:
000312:                                                                                                  #  CALLING SEQUENCE AND NORMAL EXIT MODES --
000313:                                                                                                  #        IF ONLY TIME IS DESIRED AS OUTPUT --
000314:                                                                                                  #        L       SET     CALL            # MUST BE IN INTERPRETIVE MODE BUT OVFIND ARBITRARY.
000315:                                                                                                  #        L+1             RVSW
000316:                                                                                                  #        L+2             TIMETHET        # RETURN WITH PL AT 0 AND T IN MPAC
000317:                                                                                                  #        L+3     ---                     # CONTINUE
000318:
000319:                                                                                                  #        IF THE UPDATE STATE VECTOR IS DESIRED AS WELL --
000320:                                                                                                  #        L       CLEAR   CALL            # MUST BE IN INTERPRETIVE MODE BUT OVFIND ARBITRARY.
000321:                                                                                                  #        L+1             RVSW
000322:                                                                                                  #        L+2             TIMETHET        # RETURNS WITH PL AT 6.  THE INITIAL POSITION VECTOR IS IN 0D OF THE PUSHLIST AND
000323:                                                                                                  #                                        # THE INITIAL VELOCITY VECTOR IN MPAC.
000324:                                                                                                  #        L+3     STOVL   NEWVVEC
000325:                                                                                                  #        L+4     STADR
000326:                                                                                                  #        L+5     STORE   NEWRVEC         # NEWVVEC AND NEWRVEC ARE SYMBOLIC REPRESENTATIONS OF THE USER'S LOCATIONS.
000327:                                                                                                  #        L+6     ...                     # CONTINUE.
000328:
000329:                                                                                                  #  ABORT EXIT MODES --
000330:                                                                                                  #        IF COGAFLAG AND/OR INFINFLG IS SET AT THE EXIT TO TIME-THETA, TIME-THETA WILL TRANSFER TO P00DOO WITH
000331:                                                                                                  #        AN ALARM CODE (ORIGINALLY 00607), AND NOT RETURN TO THE CALLING PROGRAM.  (PCR 692 AND 721).
000332:
000333:                                                                                                  #  OUTPUT --
000334:                                                                                                  #                         SCALE FACTOR
000335:                                                                                                  #        VARIABLE        IN POWERS OF 2          DESCRIPTION AND REMARKS
000336:                                                                                                  #        --------        --------------          -----------------------
000337:                                                                                                  #        T(30D)          +28                     DP TRANSFER TIME IN CENTISECONDS
000338:                                                                                                  #        INFINFLG        NONE                    AN INTERPRETIVE SWITCH WHICH IS SET IF THE TRANSFER ANGLE REQUIRES CLOSURE THROUGH
000339:                                                                                                  #                                                        INFINITY (NO SOLUTION), CLEAR IF A PHYSICAL SOLUTION IS POSSIBLE.
000340:                                                                                                  #        COGAFLAG        NONE                    AN INTERPRETIVE SWITCH WHICH IS SET IF RESTRICTION 1 HAS BEEN VIOLATED (NO SOLUTION),+
000341:                                                                                                  #                                                        CLEAR IF NOT.
000342:
000343:                                                                                                  #        IN ADDITION, IF RVSW IS CLEAR, THE FOLLOWING ARE OUTPUT --
000344:                                                                                                  #        MPAC - MPAC+5   +7 FOR EARTH            DP TERMINAL VELOCITY VECTOR IN METERS/CENTISEC.
000345:                                                                                                  #                        +5 FOR MOON
000346:                                                                                                  #        0D - 5D         +29 FOR EARTH           DP TERMINAL POSITION VECTOR IN METERS (PL AT 6D)
000347:                                                                                                  #                        +27 FOR MOON
000348:
000349:                                                                                                  #        FOR TOHER OTHER WHICH MAY BE OF USE, SEE DEBRIS.
000350:
000351:                                                                                                  #  Page 1167
000352:                                                                                                  #  DEBRIS --
000353:                                                                                                  #        PARAMETERS WHICH MAY BE OF USE --
000354:                                                                                                  #                         SCALE FACTOR
000355:                                                                                                  #        VARIABLE        IN POWERS OF 2          DESCRIPTION AND REMARKS
000356:                                                                                                  #        --------        --------------          -----------------------
000357:                                                                                                  #        R1 (32D)        +29 FOR EARTH           DP MAGNITUDE OF INITIAL POSITION VECTOR, RVEC, IN METERS
000358:                                                                                                  #                        +27 FOR MOON
000359:                                                                                                  #        R1A             +6                      DP RATIO OF R1 TO SEMI-MAJOR AXIS (NEG. FOR HYPERBOLIC TRAJECTORIES)
000360:                                                                                                  #        P               +4                      DP RATIO OF SEMILATUS RECTUM TO R1
000361:                                                                                                  #        COGA            +5                      DP COTAN OF ANGLE BETWEEN RVEC AND VVEC
000362:                                                                                                  #        UR1             +1                      DP UNIT VECTOR OF RVEC
000363:                                                                                                  #        U2              +1                      DP UNIT VECTOR OF VVEC
000364:                                                                                                  #        UN              +1                      DP UNIT VECTOR OF UR1*U2
000365:
000366:                                                                                                  #  PARAMETERS OF NO USE --
000367:                                                                                                  #        SP PARAMETERS -- RTNTT, GEOMSGN, RTNPRM, MAGVEC2=R2 (DP), PLUS PUSHLIST LOCATIONS 0-11D, 14D-21D, 24D-39D, R1D
000368:                                                                                                  #        ADDITIONAL INTERPRETIVE SWITCHES USED -- NORMSW, 360SW
000369:
000370:                                                                                                  #  Page 1168
000371:                                                                                                  #  PROGRAM DESCRIPTION -- TIME-RADIUS SUBROUTINE         DATE -- 11 OCTOBER 1967
000372:                                                                                                  #  MOD NO. -1                                            LOG SECTION -- CONIC SUBROUTINES
000373:                                                                                                  #  MOD BY KRAUSE                                         ASSEMBLY -- COLOSSUS REVISION 88
000374:
000375:                                                                                                  #  FUNCTIONAL DESCRIPTION --
000376:                                                                                                  #        THIS SUBROUTINE, GIVEN AN INITIAL STATE VECTOR AND A DESIRED RADIUS TO WHICH THE
000377:                                                                                                  #        STATE IS TO BE UPDATED ALONG A CONIC TRAJECTORY, CALCULATES THE CORRESPONDING TIME-OF-FLIGHT AND, IN ADDITION,
000378:                                                                                                  #        PROVIDES THE OPTION OF COMPUTING THE NEW UPDATED STATE VECTOR.  THE RESULTING TRAJECTORY MAY BE A SECTION OF A
000379:                                                                                                  #        CIRCLE, ELLIPSE, PARABOLA, OR HYPERBOLA WITH RESPECT TO THE EARTH OR THE MOON.  THE USE OF THE SUBROUTINE CAN BE
000380:                                                                                                  #        EXTENDED USING OTHER PRIMARY BODIES BY SIMMPE ADDITIONS TO THE MUTABLE WITHOUT INTRODUCING ANY CODING CHANGES,
000381:                                                                                                  #        ACCEPTING THE INHERENT SCALE FACTOR CHANGES IN POSITION AND VELOCITY.
000382:
000383:                                                                                                  #        IF THE DESIRED RADIUS IS BEYOND THE RADIUS OF APOCENTER OF THE CONIC OR BELOW THE RADIUS OF PERICENTER,
000384:                                                                                                  #        APSESW WILL BE SET AND THE SUBROUTINE WILL RETURN THE APOCENTER OR PERICENTER SOLUTION, RESPECTIVELY.
000385:
000386:                                                                                                  #  THE RESTRICTIONS ARE --
000387:                                                                                                  #        1. THE ANGLE BETWEEN ANY POSITION VECTOR AND ITS VELOCITY VECTOR MUST BE GREATER THAN 1 DEGREE 47.5 MINUTES
000388:                                                                                                  #           AND LESS THAN 178 DEGREES 12.5 MINUTES.
000389:                                                                                                  #        2. THE PARAMETERS IN THE PROBLEM MUST NOT EXCEED THEIR SCALING LIMITS SPECIFIED IN TEH GSOP.  IF THE LIMITS
000390:                                                                                                  #           EXCEEDED, THE RESULTING SOLUTION WILL BE MEANINGLESS.
000391:                                                                                                  #        3. AN ACCURACY DEGRADATION OCCURS AS THE SENSITIVITIES OF TIME AND UPDATED STATE VECTOR TO CHANGES IN
000392:                                                                                                  #           RDESIRED INCREASE.  THIS WILL OCCUR NEAR EITHER APSIS OF THE CONIC AND WHEN THE CONIC IS NEARLY CIRCULAR.  IN
000393:                                                                                                  #           PARTICULAR, IF THE CONIC IS AN EXACT CIRCLE, THE PROBLEM IS UNDEFINED AND THE SUBROUTINE WILL ABORT.
000394:
000395:                                                                                                  #        THE AGC COMPUTATION TIME IS APPROXIMATELY .363 SECONDS.
000396:
000397:                                                                                                  #  REFERENCES --
000398:                                                                                                  #        R-479, MISSION PROGRAMMING DEFINITION MEMO NO. 10, LUNAR LANDING MISSION GSOP-SECTION 5.5, SGA MEMO 67-8.
000399:
000400:                                                                                                  #  INPUT -- ERASABLE INITIALIZATION REQUIRED.
000401:                                                                                                  #                         SCALE FACTOR
000402:                                                                                                  #        VARIABLE        IN POWERS OF 2          DESCRIPTION AND REMARKS
000403:                                                                                                  #        --------        --------------          -----------------------
000404:                                                                                                  #        RVEC            +29 FOR EARTH           DP INITIAL POSITION VECTOR IN METERS
000405:                                                                                                  #                        +27 FOR MOON
000406:                                                                                                  #        VVEC            +7 FOR EARTH            DP INITIAL VELOCITY VECTOR IN METERS/CENTISECOND
000407:                                                                                                  #                        +5 FOR MOON
000408:                                                                                                  #        RDESIRED        +29 FOR EARTH           DP TERMINAL RADIAL DISTANCE ON CONIC TRAJECTORY FOR WHICH TRANSFER TIME IS TO BE
000409:                                                                                                  #                        +27 FOR MOON                    COMPUTED
000410:                                                                                                  #        SGNRDOT         NONE                    SP TAG SET TO +.5 OR -.5 ACCORDING TO WHETHER THE RADIAL VELOCITY AT RDESIRED IS TO B+
000411:                                                                                                  #                                                        POSITIVE OR NEGATIVE, RESPECTIVELY.   THIS TAG REDUCES THE DOUBLE-VALUED PROB+
000412:                                                                                                  #  Page 1169
000413:                                                                                                  #                                                        SINGLE-VALUED PROBLEM.
000414:                                                                                                  #        X1 (38D)        NONE                    INDEX REGISTER TO BE SET TO -2D OR -10D ACCORDING TO WHETHER THE EARTH OR MOON,
000415:                                                                                                  #                                                        RESPECTIVELY, IS THE CENTRAL BODY.
000416:                                                                                                  #        RVSW            NONE                    AN INTERPRETIVE SWITCH TO BE SET IF ONLY TIME IS TO BE AN OUTPUT, CLEAR IF THE NEW ST+
000417:                                                                                                  #                                                        IS TO BE COMPUTED ALSO.
000418:
000419:                                                                                                  #  SUBROUTINES CALLED --
000420:                                                                                                  #        PARAM, GEOM, GETX, DELTIME, NEWSTATE
000421:
000422:                                                                                                  #  CALLING SEQUENCE AND NORMAL EXIT MODES --
000423:                                                                                                  #        IF ONLY TIME IS DESIRED AS OUTPUT --
000424:                                                                                                  #        L       SET     CALL            # USE BE IN INTERPRETIVE MODE BUT OVFIND ARBITRARY.
000425:                                                                                                  #        L+1             RVSW
000426:                                                                                                  #        L+2             TIMERAD         # RETURN WITH PL AT 0 AND T IN MPAC
000427:                                                                                                  #        L+3     ...                     # CONTINUE
000428:
000429:                                                                                                  #        IF THE UPDATE STATE VECTOR IS DESIRED AS WELL --
000430:                                                                                                  #        L       CLEAR   CALL            # MUST BE IN INTERPRETIVE MODE BUT OVFIND ARBITRARY.
000431:                                                                                                  #        L+1             RVSW
000432:                                                                                                  #        L+2             TIMERAD         # RETURNS WITH PL AT 6.  THE INITIAL POSITION VECTOR IS IN 0D OF THE PUSHLIST AND
000433:                                                                                                  #                                        # THE INITIAL VELOCITY VECTOR IN MPAC.
000434:                                                                                                  #        L+3     STOVL   NEWVVEC
000435:                                                                                                  #        L+4     STADR
000436:                                                                                                  #        L+5     STORE   NEWRVEC         # NEWVVEC AND NEWRVEC ARE SYMBOLIC REPRESENTATIONS OF THE USER'S LOCATIONS.
000437:                                                                                                  #        ...                             # CONTINUE
000438:
000439:                                                                                                  #  ABORT EXIT MODES --
000440:                                                                                                  #        IF SOLNSW AND/OR COGAFLAG AND/OR INFINFLG IS SET AT THE EXIT TO TIME-RADIUS, TIME-RADIUS WILL TRANSFER
000441:                                                                                                  #        TO P00DOO WITH AN ALARM CODE (ORIGINALLY 00607), AND NOT RETURN TO THE CALLING PROGRAM. (PCR 692 & 721)
000442:
000443:                                                                                                  #  OUTPUT --
000444:                                                                                                  #                         SCALE FACTOR
000445:                                                                                                  #        VARIABLE        IN POWERS OF 2          DESCRIPTION AND REMARKS
000446:                                                                                                  #        --------        --------------          -----------------------
000447:                                                                                                  #        T (30D)         +28                     DP TRANSFER TIME IN CENTISECONDS.
000448:                                                                                                  #        INFINFLG        NONE                    AN INTERPRETIVE SWITCH WHICH IS SET IF RDESIRED AND SGNRDOT REQUIRE CLOSURE THROUGH
000449:                                                                                                  #                                                        INFINITY (NO SOLUTION), CLEAR IF A PHYSICAL SOLUTION IS POSSIBLE.
000450:                                                                                                  #        COGAFLAG        NONE                    AN INTERPRETIVE SWITCH WHICH IS SET IF RESTRICTION 1 HAS BEEN VIOLATED (NO SOLUTION),+
000451:                                                                                                  #                                                        CLEAR IF NOT.
000452:                                                                                                  #        APSESW          NONE                    AN INTERPRETIVE SWITCH WHICH IS SET IF RDESIRED WAS GREATER THAN RADIUS OF APOCENTER +
000453:                                                                                                  #  Page 1170
000454:                                                                                                  #                                                        LESS THAN RADIUS OF PERICENTER.  THE APOCENTER OR PERICENTER SOLUTION, RESPEC+
000455:                                                                                                  #                                                        WILL THEN BE RETURNED.  THE SWITCH IS CLEAR IF RDESIRED WAS BETWEEN PERICENTE+
000456:                                                                                                  #                                                        APOCENTER.
000457:                                                                                                  #        SOLNSW          NONE                    AN INTERPRETIVE SWITCH WHICH IS SET IF THE CONIC IS SO CLOSE TO A CIRCLE THAT THE TER+
000458:                                                                                                  #                                                        POINT IS AMBIGUOUS, VIOLATING RESTRICTION 3.  IF ECCENTRICITY IS GREATER THAN+
000459:                                                                                                  #                                                        MINUS-18, THE SWITCH IS CLEAR.
000460:
000461:                                                                                                  #        IN ADDITION, IF RVSW IS CLEAR, THE FOLLOWING ARE OUTPUT --
000462:                                                                                                  #        MPAC - MPAC+5   +7 FOR EARTH            DP TERMINAL VELOCITY VECTOR IN METERS/CENTISEC.
000463:                                                                                                  #                        +5 FOR MOON
000464:                                                                                                  #        0D - 5D         +29 FOR EARTH           DP TERMINAL POSITION VECTOR IN METERS (PL AT 6D)
000465:                                                                                                  #                        +27 FOR MOON
000466:
000467:                                                                                                  #        FOR OTHER OUTPUT WHICH MAY BE OF USE, SEE DEBRIS.
000468:
000469:                                                                                                  #  DEBRIS --
000470:                                                                                                  #        PARAMETERS WHICH MAY BE OF USE --
000471:                                                                                                  #                         SCALE FACTOR
000472:                                                                                                  #        VARIABLE        IN POWERS OF 2          DESCRIPTION AND REMARKS
000473:                                                                                                  #        --------        --------------          -----------------------
000474:                                                                                                  #        R1 (32D)        +29 FOR EARTH           DP MAGNITUDE OF INITIAL POSITION VECTOR, RVEC, IN METERS
000475:                                                                                                  #                        +27 FOR MOON
000476:                                                                                                  #        R1A             +6                      DP RATIO OF R1 TO SEMI-MAJOR AXIS (NEG. FOR HYPERBOLIC TRAJECTORIES)
000477:                                                                                                  #        P               +4                      DP RATIO OF SEMILATUS RECTUM TO R1
000478:                                                                                                  #        COGA            +5                      DP COTAN OF ANGLE BETWEEN RVEC AND VVEC
000479:                                                                                                  #        UR1             +1                      DP UNIT VECTOR OF RVEC
000480:                                                                                                  #        U2              +1                      DP UNIT VECTOR OF VVEC
000481:                                                                                                  #        UN              +1                      DP UNIT VECTOR OF UR1*U2
000482:                                                                                                  #        CSTH            +1                      DP COSINE OF TRUE ANOMALY DIFFERENCE BETWEEN RVEC AND RDESIRED.
000483:                                                                                                  #        SNTH            +1                      DP SINE OF TRUE ANOMALY DIFFERENCE.
000484:
000485:                                                                                                  #        PARAMETERS OF NO USE --
000486:                                                                                                  #                SP PARAMETERS -- RTNTT, GEOMSGN, RTNPRM, MAGVEC2*R2 (DP), PLUS PUSHLIST LOCATIONS 0-11D, 14D-21D, 24D-39D, 41D
000487:                                                                                                  #                ADDITIONAL INTERPRETIVE SWITCHES USED -- NORMSW, 360SW
000488:
000489:
000490:                                                                                                  #  Page 1171
000491:                                                                                                  #  PROGRAM DESCRIPTION -- APSIDES SUBROUTINE             DATE -- 1 SEPTEMBER 1967
000492:                                                                                                  #  MOD NO. -- 0                                          LOG SECTION -- CONIC SUBROUTINES
000493:                                                                                                  #  MOD BY KRAUSE                                         ASSEMBLY -- COLOSSUS REVISION 88
000494:
000495:                                                                                                  #  FUNCTIONAL DESCRIPTION --
000496:                                                                                                  #        THIS SUBROUTINE, GIVEN AN INITIAL STATE VECTOR, CALCULATES THE RADIUS OF PERICENTER AND OF APOCENTER AND THE
000497:                                                                                                  #        ECCENTRICITY OF THE RESULTING CONIC TRAJECTORY, WHICH MAY BE A STRAIGHT LINE,
000498:                                                                                                  #        CIRCLE, ELLIPSE, PARABOLA, OR HYPERBOLA WITH RESPECT TO THE EARTH OR THE MOON.  THE USE OF THE SUBROUTINE CAN
000499:                                                                                                  #        BE EXTENDED USING OTHER PRIMARY BODIES BY SIMPLE ADDITIONS TO THE MUTABLE WITHOUT INTRODUCING ANY CODING CHANGES,
000500:                                                                                                  #        EXCEPTING TEH INHERENT SCALE FACTOR CHANGES IN POSITION AND VELOCITY.
000501:
000502:                                                                                                  #  THE RESTRICTIONS ARE --
000503:                                                                                                  #        1. IF APOCENTER IS BEYOND THE SCALING OF POSITION, THE SCALE FACTOR LIMIT (536,870,910 METERS WITH RESPECT
000504:                                                                                                  #           TO THE EARTH OR 134,217,727.5 METERS WITH RESPECT TO THE MOON) WILL BE RETURNED.
000505:                                                                                                  #        2. THE PARAMETERS IN THE PROBLEM MUST NOT EXCEED THEIR SCALING LIMITS SPECIFIED IN THE GSOP.  IF THE LIMITS
000506:                                                                                                  #           ARE EXCEEDED, THE RESULTING SOLUTION WILL BE MEANINGLESS.
000507:                                                                                                  #        THE AGC COMPUTATION TIME IS APPROXIMATELY .103 SECONDS.
000508:
000509:                                                                                                  #  REFERENCES --
000510:                                                                                                  #        MISSION PROGRAMMING DEFINITION MEMO NO. 10, LUNAR LANDING MISSION GSOP-SECTION 5.5.
000511:
000512:                                                                                                  #  INPUT -- ERASABLE INITIALIZATION REQUIRED
000513:                                                                                                  #                         SCALE FACTOR
000514:                                                                                                  #        VARIABLE        IN POWERS OF 2          DESCRIPTION AND REMARKS
000515:                                                                                                  #        --------        --------------          -----------------------
000516:                                                                                                  #        RVEC            +29 FOR EARTH           DP INITIAL POSITION VECTOR IN METERS
000517:                                                                                                  #                        +27 FOR MOON
000518:                                                                                                  #        VVEC            +7 FOR EARTH            DP INITIAL VELOCITY VECTOR IN METERS/CENTISECOND
000519:                                                                                                  #                        +5 FOR MOON
000520:                                                                                                  #        X1 (38D)        NONE                    INDEX REGISTER TO BE SET TO -2D OR -10D ACCORDING TO WHETHER THE EARTH OR MOON,
000521:                                                                                                  #                                                        RESPECTIVELY, IS THE CENTRAL BODY.
000522:
000523:                                                                                                  #  SUBROUTINES CALLED --
000524:                                                                                                  #        PARAM, GEOM
000525:
000526:                                                                                                  #  CALLING SEQUENCE AND NORMAL EXIT MODES --
000527:                                                                                                  #  Page 1172
000528:                                                                                                  #        IF ONLY TIME IS DESIRED AS OUTPUT --
000529:                                                                                                  #        L       CALL                    # MUST BE IN INTERPRETIVE MODE BUT OVFIND ARBITRARY.
000530:                                                                                                  #        L+1             APSIDES         # RETURNS WITH PL AT 0, RADIUS OF APOCENTER IN MPAC AND RADIUS OF PERICENTER IN 0D
000531:                                                                                                  #        L+2     STODL   APOAPSE
000532:                                                                                                  #        L+3             0D
000533:                                                                                                  #        L+4     STORE   PERIAPSE        # APOAPSE AND PERIAPSE ARE SYMBOLIC REPRESENTATIONS OF THE USER'S LOCATIONS
000534:                                                                                                  #        L+5     ...                     # CONTINUE
000535:
000536:                                                                                                  #  OUTPUT --
000537:                                                                                                  #                         SCALE FACTOR
000538:                                                                                                  #        VARIABLE        IN POWERS OF 2          DESCRIPTION AND REMARKS
000539:                                                                                                  #        --------        --------------          -----------------------
000540:                                                                                                  #        MPAC            +29 FOR EARTH           DP RADIUS OF APOCENTER IN METERS
000541:                                                                                                  #                        +27 FOR MOON
000542:                                                                                                  #        0D-1D           +29 FOR EARTH           DP RADIUS OF PERICENTER IN METERS
000543:                                                                                                  #                        +27 FOR MOON
000544:                                                                                                  #        ECC             +3                      DP ECCENTRICITY OF CONIC TRAJECTORY
000545:                                                                                                  #        FOR OTHER OUTPUT WHICH MAY BE OF USE, SEE DEBRIS.
000546:
000547:                                                                                                  #  DEBRIS --
000548:                                                                                                  #        PARAMETERS WHICH MAY BE OF USE --
000549:                                                                                                  #                         SCALE FACTOR
000550:                                                                                                  #        VARIABLE        IN POWERS OF 2          DESCRIPTION AND REMARKS
000551:                                                                                                  #        --------        --------------          -----------------------
000552:                                                                                                  #        R1 (32D)        +29 FOR EARTH           DP MAGNITUDE OF INITIAL POSITION VECTOR, RVEC, IN METERS
000553:                                                                                                  #                        +27 FOR MOON
000554:                                                                                                  #        R1A             +6                      DP RATIO OF R1 TO SEMI-MAJOR AXIS (NEG. FOR HYPERBOLIC TRAJECTORIES)
000555:                                                                                                  #        P               +4                      DP RATIO OF SEMILATUS RECTUM TO R1
000556:                                                                                                  #        COGA            +5                      DP COTAN OF ANGLE BETWEEN RVEC AND VVEC
000557:                                                                                                  #        UR1             +1                      DP UNIT VECTOR OF RVEC
000558:                                                                                                  #        U2              +1                      DP UNIT VECTOR OF VVEC
000559:                                                                                                  #        UN              +1                      DP UNIT VECTOR OF UR1*U2
000560:                                                                                                  #        MAGVEC2         +7 FOR EARTH            DP MAGNITUDE OF VVEC
000561:                                                                                                  #                        +5 FOR MOON
000562:
000563:                                                                                                  #        PARAMETERS OF NO USE --
000564:                                                                                                  #                SP PARAMETERS -- RTNAPSE, GOMSGN, RTNPRM, PLUS PUSHLIST LOCATIONS 0-5, 10D-11D, 14D-21D, 31D-38D.
000565:                                                                                                  #                ADDITIONAL INTERPRETIVE SWITCHES USED -- NORMSW
000566:
000567: 12,2000                                           SETLOC   CONICS
000568:                                                                                                  #  Page 1173
000569: 12,2000                                           BANK
000570:
000571: 12,2023                                           COUNT*   $$/CONIC
000572: 12,2023  E5,1721                                  EBANK=   UR1
000573: 12,2023           40001        KEPLERN            SETPD    BOV
000574: 12,2024           00001                                    0
000575: 12,2025           24026                                    +1
000576: 12,2026           77773                           VLOAD*
000577: 12,2027           10005                                    MUTABLE,1
000578: 12,2030           24017                           STOVL    14D
000579: 12,2031           01503                                    RRECT
000580: 12,2032           66256                           UNIT     SSP
000581: 12,2033           00027                                    ITERCTR
000582: 12,2034           00024                                    20D
000583: 12,2035           16647                           STODL    URRECT
000584: 12,2036           00045                                    36D
000585: 12,2037           24041                           STOVL    R1
000586: 12,2040           01503                                    RRECT
000587: 12,2041           76441                           DOT      SL1R
000588: 12,2042           01511                                    VRECT
000589: 12,2043           76405                           DMP      SL1R
000590: 12,2044           00023                                    1/ROOTMU                              #  1/ROOTMU (-17 OR -14)
000591: 12,2045           24043                           STOVL    KEPC1                                 #  C1=R.V/ROOTMU (+17 OR +16)
000592: 12,2046           01511                                    VRECT
000593: 12,2047           57236                           VSQ      DMPR
000594: 12,2050           00017                                    1/MU                                  #  1/MU (-34 OR -28)
000595: 12,2051           52405                           DMP      SL3
000596: 12,2052           00041                                    R1
000597: 12,2053           61425                           DSU      ROUND
000598: 12,2054           11001                                    D1/64
000599: 12,2055           00045                           STORE    KEPC2                                 #  C2=RV.V/MU -1 (+6)
000600:
000601: 12,2056           74421                           BDSU     SR1R
000602: 12,2057           11001                                    D1/64
000603: 12,2060           77671                           DDV
000604: 12,2061           00041                                    R1
000605: 12,2062           00011                           STORE    ALPHA                                 #  ALPHA=(1-C2)/R1 (-22 OR -20)
000606:
000607: 12,2063           71244                           BPL      DLOAD                                 #  MAXIMUM X DEPENDS ON TYPE OF CONIC)
000608: 12,2064           24073                                    1REV
000609: 12,2065           11017                                    -50SC                                 #  -50SC (+12)
000610: 12,2066           40071                           DDV      BOV
000611: 12,2067           00011                                    ALPHA
000612: 12,2070           24077                                    STOREMAX
000613: 12,2071           52166                           SQRT     GOTO
000614: 12,2072           24077                                    STOREMAX
000615:
000616: 12,2073           55366        1REV               SQRT     BDDV
000617:                                                                                                  #  Page 1174
000618: 12,2074           11021                                    2PISC                                 #  2PISC (+6)
000619: 12,2075           77600                           BOV
000620: 12,2076           24077                                    STOREMAX
000621: 12,2077           00013        STOREMAX           STORE    XMAX
000622: 12,2100           65205                           DMP      PDDL
000623: 12,2101           00023                                    1/ROOTMU
000624: 12,2102           00011                                    ALPHA
000625: 12,2103           65301                           NORM     PDDL
000626: 12,2104           00047                                    X1
000627: 12,2105           56257                           SL*      DDV
000628: 12,2106           20173                                    0          -6,1
000629: 12,2107           50000                           BOV      BMN
000630: 12,2110           24124                                    MODDONE
000631: 12,2111           24124                                    MODDONE                               #  MPAC=PERIOD
000632: 12,2112           51525        PERIODCH           PDDL     ABS                                   #  0D=PERIOD
000633: 12,2113           02074                                    TAU.
000634: 12,2114           50025                           DSU      BMN
000635: 12,2115           00001                                    0D
000636: 12,2116           24124                                    MODDONE
000637: 12,2117           77765                           SIGN
000638: 12,2120           02074                                    TAU.
000639: 12,2121           16074                           STODL    TAU.
000640: 12,2122           77650                           GOTO
000641: 12,2123           24112                                    PERIODCH
000642: 12,2124           71201        MODDONE            SETPD    DLOAD
000643: 12,2125           00001                                    0
000644: 12,2126           02130                                    XKEPNEW
000645: 12,2127           00025                           STORE    X
000646: 12,2130           53165                           SIGN     BZE
000647: 12,2131           02074                                    TAU.
000648: 12,2132           24302                                    BADX
000649: 12,2133           51440                           BMN      ABS
000650: 12,2134           24302                                    BADX
000651: 12,2135           51025                           DSU      BPL
000652: 12,2136           00013                                    XMAX
000653: 12,2137           24302                                    BADX
000654: 12,2140           51145        STORBNDS           DLOAD    BPL
000655: 12,2141           02074                                    TAU.
000656: 12,2142           24152                                    STOREMIN
000657: 12,2143           57545                           DLOAD    DCOMP
000658: 12,2144           00013                                    XMAX
000659: 12,2145           14015                           STODL    XMIN
000660: 12,2146           24007                                    KEPZERO
000661: 12,2147           00013                           STORE    XMAX
000662: 12,2150           77650                           GOTO
000663: 12,2151           24155                                    DXCOMP
000664: 12,2152           77745        STOREMIN           DLOAD
000665: 12,2153           24007                                    KEPZERO
000666: 12,2154           00015                           STORE    XMIN
000667: 12,2155           57345        DXCOMP             DLOAD    DMPR
000668:                                                                                                  #  Page 1175
000669: 12,2156           02074                                    TAU.
000670: 12,2157           11012                                    BEE22
000671: 12,2160           77646                           ABS
000672: 12,2161           16177                           STODL    EPSILONT
000673: 12,2162           01553                                    XPREV
000674: 12,2163           77621        XDIFF              BDSU
000675: 12,2164           00025                                    X
000676: 12,2165           02643                           STORE    DELX
000677:
000678: 12,2166           63545        KEPLOOP            DLOAD    DSQ
000679: 12,2167           00025                                    X                                     #  X=XKEP
000680: 12,2170           41501                           NORM     PUSH                                  #  0D=XSQ (+34 OR +32 -N1)       PL AT 2
000681: 12,2171           00047                                    X1
000682: 12,2172           53605                           DMP      SRR*
000683: 12,2173           00011                                    ALPHA
000684: 12,2174           21573                                    0          -6,1
000685: 12,2175           34031                           STCALL   XI                                    #  XI=ALPHA XSQ (+6)
000686: 12,2176           24421                                    DELTIME
000687: 12,2177           44200                           BOV      BDSU
000688: 12,2200           24311                                    TIMEOVFL                              #  UNLIKELY
000689: 12,2201           02074                                    TAU.
000690: 12,2202           02645                           STORE    DELT                                  #  DELT=DELINDEP
000691: 12,2203           44246                           ABS      BDSU
000692: 12,2204           02177                                    EPSILONT
000693: 12,2205           71244                           BPL      DLOAD
000694: 12,2206           24333                                    KEPCONVG
000695: 12,2207           00037                                    T
000696: 12,2210           60225                           DSU      NORM
000697: 12,2211           01551                                    TC
000698: 12,2212           00047                                    X1
000699: 12,2213           60325                           PDDL     NORM
000700: 12,2214           02643                                    DELX
000701: 12,2215           00050                                    X2
000702: 12,2216           41260                           XSU,1    DMP
000703: 12,2217           00047                                    X2
000704: 12,2220           02645                                    DELT
000705: 12,2221           56257                           SLR*     DDV
000706: 12,2222           21202                                    1,1
000707: 12,2223           41542                           SR1      PUSH                                  #  0D=TRIAL DELX         PL AT 2
000708: 12,2224           71244                           BPL      DLOAD
000709: 12,2225           24246                                    POSDELX
000710: 12,2226           00025                                    X
000711: 12,2227           00013                           STORE    XMAX                                  #  MOVE MAX BOUND IN
000712: 12,2230           45221                           BDSU     DSU                                   #                        PL AT 0
000713: 12,2231           00015                                    XMIN
000714: 12,2232           51000                           BOV      BPL
000715: 12,2233           24240                                    NDXCHNGE
000716: 12,2234           24240                                    NDXCHNGE
000717: 12,2235           52145                           DLOAD    GOTO
000718:                                                                                                  #  Page 1176
000719: 12,2236           00001                                    0D
000720: 12,2237           24260                                    NEWDELX
000721:
000722: 12,2240           45345        NDXCHNGE           DLOAD    DSU
000723: 12,2241           00015                                    XMIN
000724: 12,2242           00025                                    X
000725: 12,2243           52075                           DMPR     GOTO                                  #  TO FORCE MPAC +2 TO ZERO
000726: 12,2244           11015                                    DP9/10
000727: 12,2245           24260                                    NEWDELX
000728:
000729: 12,2246           77745        POSDELX            DLOAD
000730: 12,2247           00025                                    X
000731: 12,2250           00015                           STORE    XMIN                                  #  MOVE MIN BOUND IN
000732: 12,2251           45221                           BDSU     DSU                                   #                        PL AT 0
000733: 12,2252           00013                                    XMAX
000734: 12,2253           50000                           BOV      BMN
000735: 12,2254           24274                                    PDXCHNGE
000736: 12,2255           24274                                    PDXCHNGE
000737: 12,2256           77745                           DLOAD
000738: 12,2257           00001                                    0D
000739: 12,2260           02643        NEWDELX            STORE    DELX
000740: 12,2261           43254                           BZE      DAD
000741: 12,2262           24333                                    KEPCONVG
000742: 12,2263           00025                                    X
000743: 12,2264           14025                           STODL    X
000744: 12,2265           00037                                    T
000745: 12,2266           01551                           STORE    TC
000746: 12,2267           46034        BRNCHCTR           RTB      BHIZ
000747: 12,2270           24644                                    CHECKCTR
000748: 12,2271           24333                                    KEPCONVG
000749: 12,2272           77650                           GOTO
000750: 12,2273           24166                                    KEPLOOP                               #  ITERATE
000751:
000752: 12,2274           45345        PDXCHNGE           DLOAD    DSU
000753: 12,2275           00013                                    XMAX
000754: 12,2276           00025                                    X
000755: 12,2277           52075                           DMPR     GOTO                                  #  TO FORCE MPAC +2 TO ZERO
000756: 12,2300           11015                                    DP9/10
000757: 12,2301           24260                                    NEWDELX
000758:
000759: 12,2302           70545        BADX               DLOAD    SR1
000760: 12,2303           00013                                    XMAX
000761: 12,2304           77765                           SIGN
000762: 12,2305           02074                                    TAU.
000763: 12,2306           00025                           STORE    X
000764: 12,2307           77650                           GOTO
000765:                                                                                                  #  Page 1177
000766: 12,2310           24140                                    STORBNDS
000767: 12,2311           50145        TIMEOVFL           DLOAD    BMN                                   #  X WAS TOO BIG
000768: 12,2312           00025                                    X
000769: 12,2313           24330                                    NEGTOVFL
000770: 12,2314           00013                           STORE    XMAX
000771: 12,2315           70545        CMNTOVFL           DLOAD    SR1
000772: 12,2316           02643                                    DELX
000773: 12,2317           02643                           STORE    DELX
000774: 12,2320           44254                           BZE      BDSU
000775: 12,2321           02112                                    KEPRTN
000776: 12,2322           00025                                    X
000777: 12,2323           14025                           STODL    X
000778: 12,2324           01551                                    TC
000779: 12,2325           00037                           STORE    T
000780: 12,2326           77650                           GOTO
000781: 12,2327           24267                                    BRNCHCTR
000782: 12,2330           00015        NEGTOVFL           STORE    XMIN
000783: 12,2331           77650                           GOTO
000784: 12,2332           24315                                    CMNTOVFL
000785: 12,2333           44545        KEPCONVG           DLOAD    SR4R
000786: 12,2334           00041                                    R1
000787: 12,2335           74225                           DSU      VXSC
000788: 12,2336           00035                                    XSQC(XI)
000789: 12,2337           02647                                    URRECT
000790: 12,2340           65372                           VSL1     PDDL                                  #  0D=(R1-XSQC(XI))URRECT (+33 OR +31)
000791: 12,2341           00025                                    X
000792: 12,2342           60316                           DSQ      NORM
000793: 12,2343           00047                                    X1
000794: 12,2344           57275                           DMPR     DMPR
000795: 12,2345           00023                                    1/ROOTMU
000796: 12,2346           00025                                    X
000797: 12,2347           53605                           DMP      SRR*
000798: 12,2350           00033                                    S(XI)
000799: 12,2351           21572                                    0          -7,1
000800: 12,2352           77621                           BDSU
000801: 12,2353           00037                                    T
000802: 12,2354           74352                           SL1      VXSC
000803: 12,2355           01511                                    VRECT
000804: 12,2356           53372                           VSL1     VAD
000805: 12,2357           77712                           VSL4
000806: 12,2360           01535                           STORE    RCV                                   #  RCV (+29 OR +27)
000807:
000808: 12,2361           60246                           ABVAL    NORM
000809: 12,2362           00050                                    X2
000810: 12,2363           14043                           STODL    RCNORM
000811: 12,2364           00031                                    XI
000812: 12,2365           45275                           DMPR     DSU
000813: 12,2366           00033                                    S(XI)
000814: 12,2367           10777                                    D1/128
000815:                                                                                                  #  Page 1178
000816: 12,2370           76405                           DMP      SL1R
000817: 12,2371           00021                                    ROOTMU
000818: 12,2372           53605                           DMP      SLR*
000819: 12,2373           00025                                    X
000820: 12,2374           56601                                    0          -3,2
000821: 12,2375           74271                           DDV      VXSC
000822: 12,2376           00043                                    RCNORM
000823: 12,2377           02647                                    URRECT
000824: 12,2400           65372                           VSL1     PDDL                                  #  0D=URRECT(XI S(XI)-1)X ROOTMU/RCV (+15
000825: 12,2401           00035                                    XSQC(XI)                              #  OR +13)                       PL AT 6
000826: 12,2402           56257                           SLR*     DDV
000827: 12,2403           56602                                    0          -4,2
000828: 12,2404           00043                                    RCNORM
000829: 12,2405           74221                           BDSU     VXSC
000830: 12,2406           11013                                    D1/256
000831: 12,2407           01511                                    VRECT
000832: 12,2410           42455                           VAD      VSL8
000833: 12,2411           77626                           STADR                                          #                                PL AT 0
000834: 12,2412           62234                           STODL    VCV                                   #  VCV (+7 OR +5)
000835: 12,2413           00037                                    T
000836: 12,2414           15551                           STODL    TC
000837: 12,2415           00025                                    X
000838: 12,2416           01553                           STORE    XPREV
000839: 12,2417           77650                           GOTO
000840: 12,2420           02112                                    KEPRTN
000841:
000842:                                                                                                  #  Page 1179
000843: 12,2421           77776        DELTIME            EXIT                                           #  MPAC=XI (+6), 0D=XSQ (+34 OR +32 -N1)
000844: 12,2422           07225                           TC       POLY
000845: 12,2423           00010                           DEC      8          B-14
000846: 12,2424           02525 12526                     2DEC     .083333334
000847: 12,2426           67356 75666                     2DEC     -.266666684
000848: 12,2430           15001 23771                     2DEC     .406349155
000849: 12,2432           64342 43674                     2DEC     -.361198675
000850: 12,2434           06563 04645                     2DEC     .210153242
000851: 12,2436           75173 52672                     2DEC     -.086221951
000852: 12,2440           00656 14331                     2DEC     .026268812
000853: 12,2442           77633 40512                     2DEC     -.006163316
000854: 12,2444           00023 11210                     2DEC     .001177342
000855: 12,2446           77774 67506                     2DEC     -.000199055
000856:
000857: 12,2450           06042                           TC       INTPRET
000858: 12,2451           14033                           STODL    S(XI)
000859: 12,2452           00031                                    XI
000860: 12,2453           77776                           EXIT
000861: 12,2454           07225                           TC       POLY
000862: 12,2455           00010                           DEC      8          B-14
000863: 12,2456           01000 00000                     2DEC     .031250001
000864: 12,2460           72525 52506                     2DEC     -.166666719
000865: 12,2462           13301 15337                     2DEC     .355555413
000866: 12,2464           62776 54733                     2DEC     -.406347410
000867: 12,2466           11176 13267                     2DEC     .288962094
000868: 12,2470           73410 51674                     2DEC     -.140117894
000869: 12,2472           01446 33641                     2DEC     .049247387
000870: 12,2474           77451 65233                     2DEC     -.013081923
000871: 12,2476           00055 37266                     2DEC     .002806389
000872: 12,2500           77767 52336                     2DEC     -.000529414
000873: 12,2502           06042                           TC       INTPRET
000874:                                                                                                  #  Page 1180
000875: 12,2503           53605                           DMP      SRR*                                  #                                PL AT 0
000876: 12,2504           00001                                    0D
000877: 12,2505           21574                                    0          -5,1
000878: 12,2506           00035                           STORE    XSQC(XI)                              #  XSQC(XI) (+33 OR +31)
000879: 12,2507           72405                           DMP      SL1
000880: 12,2510           00043                                    KEPC1
000881: 12,2511           65234                           RTB      PDDL                                  #  XCH WITH PL. 0D=C1 XSQ C(XI) (+49 OR +46)
000882: 12,2512           21634                                    TPMODE                                #                                PL AT 0,3
000883: 12,2513           53605                           DMP      SRR*
000884: 12,2514           00033                                    S(XI)
000885: 12,2515           21574                                    0          -5,1
000886: 12,2516           72405                           DMP      SL1
000887: 12,2517           00045                                    KEPC2
000888: 12,2520           65234                           RTB      PDDL                                  #  3D=C2 XSQ S(XI) (+35 OR +33)  PL AT 6
000889: 12,2521           21634                                    TPMODE
000890: 12,2522           00041                                    R1
000891: 12,2523           76261                           SR       TAD                                   #                                PL AT 3
000892: 12,2524           20607                                    6
000893: 12,2525           41301                           NORM     DMP                                   #  TO PRESERVE SIGNIF.
000894: 12,2526           00047                                    X1
000895: 12,2527           00025                                    X
000896: 12,2530           76257                           SR*      TAD                                   #  X(C2 XSQ S(XI) +R1) (+49 OR +46)  PL AT 0
000897: 12,2531           20576                                    0          -3,1
000898: 12,2532           57232                           SL4R     DMPR
000899: 12,2533           00023                                    1/ROOTMU
000900: 12,2534           00037                           STORE    T
000901: 12,2535           77616                           RVQ
000902:
000903:                                                                                                  #  Page 1181
000904: 12,2536           71214        ITERATOR           BONCLR   DLOAD
000905: 12,2537           00614                                    SLOPESW
000906: 12,2540           24606                                    FIRSTIME
000907: 12,2541           00037                                    DEP
000908: 12,2542           60225                           DSU      NORM
000909: 12,2543           02762                                    DEPREV
000910: 12,2544           00047                                    X1
000911: 12,2545           60325                           PDDL     NORM
000912: 12,2546           00015                                    DELINDEP
000913: 12,2547           00050                                    X2
000914: 12,2550           41260                           XSU,1    DMP
000915: 12,2551           00047                                    X2
000916: 12,2552           02760                                    DELDEP
000917: 12,2553           56257                           SLR*     DDV                                   #                                PL UP 2
000918: 12,2554           21202                                    1,1
000919: 12,2555           43142                           SR1      BOFF
000920: 12,2556           04351                                    ORDERSW
000921: 12,2557           24562                                    SGNCHECK
000922: 12,2560           75246                           ABS      SIGN                                  #  IN CASE 2ND DERIV. CHANGED SIGN, MUST
000923: 12,2561           02760                                    DELDEP                                #  DISREGARD IT TO FIND MIN.
000924:
000925: 12,2562           51006        SGNCHECK           PUSH     BPL                                   #  TRIAL DELINDEP                PL DOWN 2
000926: 12,2563           24620                                    POSDEL
000927: 12,2564           43145                           DLOAD    BON
000928: 12,2565           02766                                    INDEP
000929: 12,2566           04311                                    ORDERSW
000930: 12,2567           24571                                    MINCHECK
000931: 12,2570           00017                           STORE    MAX                                   #  IF NOT 2ND ORDER, CAN MOVE MAX BOUND IN.
000932:
000933: 12,2571           45221        MINCHECK           BDSU     DSU
000934: 12,2572           00011                                    MIN
000935: 12,2573           51000                           BOV      BPL
000936: 12,2574           24600                                    MODNGDEL
000937: 12,2575           24600                                    MODNGDEL
000938: 12,2576           77650                           GOTO
000939: 12,2577           24632                                    DELOK
000940:
000941: 12,2600           45345        MODNGDEL           DLOAD    DSU                                   #  TRIAL DELINDEP WOULD EXCEED MIN BOUND
000942: 12,2601           00011                                    MIN
000943: 12,2602           02766                                    INDEP
000944: 12,2603           52005                           DMP      GOTO
000945: 12,2604           11015                                    DP9/10
000946: 12,2605           24634                                    NEWDEL
000947:
000948: 12,2606           41345        FIRSTIME           DLOAD    DMP
000949: 12,2607           00011                                    MIN
000950: 12,2610           00051                                    TWEEKIT                               #  DLOAD TWEEKIT(40D) SENSITIVE TO CHANGE.
000951: 12,2611           41325                           PDDL     DMP                                   #  S2(41D) SHOULDN'T CONTAIN HI ORDER ONES
000952:                                                                                                  #  Page 1182
000953: 12,2612           00017                                    MAX
000954: 12,2613           00051                                    TWEEKIT
000955: 12,2614           77625                           DSU
000956: 12,2615           52165                           SIGN     GOTO
000957: 12,2616           02760                                    DELDEP
000958: 12,2617           24562                                    SGNCHECK
000959:
000960: 12,2620           43145        POSDEL             DLOAD    BON
000961: 12,2621           02766                                    INDEP
000962: 12,2622           04311                                    ORDERSW
000963: 12,2623           24625                                    MAXCHECK
000964: 12,2624           00011                           STORE    MIN                                   #  IF NOT 2ND ORDER, CAN MOVE MIN BOUND IN.
000965:
000966: 12,2625           45221        MAXCHECK           BDSU     DSU
000967: 12,2626           00017                                    MAX
000968: 12,2627           50000                           BOV      BMN
000969: 12,2630           24636                                    MODPSDEL
000970: 12,2631           24636                                    MODPSDEL
000971: 12,2632           77745        DELOK              DLOAD
000972: 12,2633           00001                                    0D
000973: 12,2634           00015        NEWDEL             STORE    DELINDEP
000974: 12,2635           77616                           RVQ
000975:
000976: 12,2636           45345        MODPSDEL           DLOAD    DSU
000977: 12,2637           00017                                    MAX
000978: 12,2640           02766                                    INDEP
000979: 12,2641           52005                           DMP      GOTO
000980: 12,2642           11015                                    DP9/10
000981: 12,2643           24634                                    NEWDEL
000982:
000983: 12,2644           44753        CHECKCTR           CS       ONE
000984: 12,2645           50120                           INDEX    FIXLOC
000985: 12,2646           60026                           AD       ITERCTR
000986: 12,2647           50120                           INDEX    FIXLOC
000987: 12,2650           54026                           TS       ITERCTR
000988: 12,2651           54154                           TS       MPAC
000989: 12,2652           06064                           TC       DANZIG
000990:
000991:                                                                                                  #  Page 1183
000992: 12,2653           44545        NEWSTATE           DLOAD    SR4R
000993: 12,2654           00041                                    R1
000994: 12,2655           74225                           DSU      VXSC
000995: 12,2656           00035                                    XSQC(XI)
000996: 12,2657           02722                                    UR1
000997: 12,2660           65372                           VSL1     PDDL                                  #  0D=(R1-XSQC(XI))UR1 (+33 OR 31)       PL AT 6
000998: 12,2661           00025                                    X
000999: 12,2662           60316                           DSQ      NORM
001000: 12,2663           00047                                    X1
001001: 12,2664           57275                           DMPR     DMPR
001002: 12,2665           00023                                    1/ROOTMU
001003: 12,2666           00025                                    X
001004: 12,2667           53605                           DMP      SRR*
001005: 12,2670           00033                                    S(XI)
001006: 12,2671           21572                                    0          -7,1
001007: 12,2672           77621                           BDSU
001008: 12,2673           00037                                    T
001009: 12,2674           74352                           SL1      VXSC
001010: 12,2675           02744                                    VVEC
001011: 12,2676           53372                           VSL1     VAD                                   #                                PL AT 0
001012: 12,2677           41512                           VSL4     PUSH
001013: 12,2700           77646                           ABVAL
001014: 12,2701           77701        LAMENTER           NORM
001015: 12,2702           00047                                    X1
001016: 12,2703           16720                           STODL    R2
001017: 12,2704           00031                                    XI
001018: 12,2705           45205                           DMP      DSU
001019: 12,2706           00033                                    S(XI)
001020: 12,2707           10777                                    D1/128
001021: 12,2710           76405                           DMP      SL1R
001022: 12,2711           00021                                    ROOTMU
001023: 12,2712           53605                           DMP      SLR*
001024: 12,2713           00025                                    X
001025: 12,2714           21176                                    0          -3,1
001026: 12,2715           74271                           DDV      VXSC
001027: 12,2716           02720                                    R2
001028: 12,2717           02722                                    UR1
001029: 12,2720           65372                           VSL1     PDDL                                  #  6D=V2VEC PART (+15 OR 13)     PL AT 12
001030: 12,2721           00035                                    XSQC(XI)
001031: 12,2722           56257                           SLR*     DDV
001032: 12,2723           21175                                    0          -4,1
001033: 12,2724           02720                                    R2
001034: 12,2725           77621                           BDSU
001035: 12,2726           11013                                    D1/256
001036: 12,2727           53361                           VXSC     VAD
001037: 12,2730           02744                                    VVEC                                  #                                PL AT 6
001038: 12,2731           43412                           VSL8     RVQ
001039:
001040:                                                                                                  #  Page 1184
001041: 04,2000                                           SETLOC   CONICS1
001042: 04,2000                                           BANK
001043:
001044: 04,2773                                           COUNT*   $$/CONIC
001045:                                                                                                  #  DO NOT DISTURB THE ORDER OF THESE CDS, OVERLAYS HAVE BEEN MADE.
001046: 04,2773           00000        BEE17              DEC      0          B-14                       #  KEEP WITH D1/8 2DEC 1.0B-17 (0000004000)
001047: 04,2774           04000 00000  D1/8               2DEC     1.0        B-3
001048: 04,2776           00200 00000  D1/128             2DEC     1.0        B-7
001049: 04,3000           00400 00000  D1/64              2DEC     1.0        B-6
001050: 04,3002           10000 00000  D1/4               2DEC     1.0        B-2
001051: 04,3004           02000 00000  D1/16              2DEC     1.0        B-4
001052: 04,3006           01000 00000  D1/32              2DEC     1.0        B-5
001053: 04,3010           00020 00000  D1/1024            2DEC     1.0        B-10
001054: 04,3012           00100 00000  D1/256             2DEC     1.0        B-8
001055: 04,3014           34631 23146  DP9/10             2DEC     .9
001056: 04,3016  12,2006               KEPZERO            EQUALS   LO6ZEROS
001057: 04,3016           77467 77777  -50SC              2DEC     -50.0      B-12
001058: 04,3020           03110 17665  2PISC              2DEC     6.28318530 B-6
001059: 04,3022  04,3005               BEE19              EQUALS   D1/32      -1                         #  2DEC 1.0 B-19 (00000 01000)
001060: 04,3022  04,3011               BEE22              EQUALS   D1/256     -1                         #  2DEC 1.0 B-22 (00000 00100)
001061: 04,3022           00000 00001  ONEBIT             2DEC     1.0        B-28
001062: 04,3024           37767 37737  COGUPLIM           2DEC     .999511597
001063: 04,3026           40010 40040  COGLOLIM           2DEC     -.999511597
001064:
001065:                                                                                                  #  Page 1185
001066: 12,2000                                           SETLOC   CONICS
001067: 12,2000                                           BANK
001068:
001069: 12,2732                                           COUNT*   $$/CONIC
001070: 12,2732           40220        TIMETHET           STQ      SETPD                                 #                                PL AT 0
001071: 12,2733           02710                                    RTNTT
001072: 12,2734           00001                                    0
001073: 12,2735           77600                           BOV
001074: 12,2736           24737                                    +1
001075: 12,2737           63375                           VLOAD    PDVL                                  #  SETUP FOR PARAM CALL          PL AT 6
001076: 12,2740           02655                                    RVEC
001077: 12,2741           02744                                    VVEC
001078: 12,2742           77624                           CALL
001079: 12,2743           11030                                    PARAM
001080: 12,2744           45000                           BOV      CALL
001081: 12,2745           24764                                    COGAOVFL                              #                                PL AT 0
001082: 12,2746           24767                                    GETX
001083: 12,2747           43145        COMMNOUT           DLOAD    BON
001084: 12,2750           00031                                    XI
001085: 12,2751           04310                                    INFINFLG
001086: 12,2752           25752                                    ABTCONIC
001087: 12,2753           45014                           CLEAR    CALL
001088: 12,2754           04273                                    COGAFLAG
001089: 12,2755           24421                                    DELTIME
001090: 12,2756           45014                           BON      CALL
001091: 12,2757           03706                                    RVSW
001092: 12,2760           02710                                    RTNTT
001093: 12,2761           24653                                    NEWSTATE
001094: 12,2762           77650                           GOTO
001095: 12,2763           02710                                    RTNTT
001096:
001097: 12,2764           77614        COGAOVFL           SETGO
001098: 12,2765           04033                                    COGAFLAG
001099: 12,2766           25752                                    ABTCONIC
001100:
001101: 04,3030                                           BANK     4
001102: 04,2000                                           SETLOC   CONICS1
001103: 04,2000                                           BANK
001104: 04,3030                                           COUNT*   $$/CONIC
001105: 04,3030           43020        PARAM              STQ      CLEAR                                 #  MPAC=V1VEC, 0D=R1VEC          PL AT 6
001106: 04,3031           02753                                    RTNPRM
001107: 04,3032           03665                                    NORMSW
001108: 04,3033           77614                           CLEAR
001109: 04,3034           04273                                    COGAFLAG
001110: 04,3035           45131                           SSP      CALL
001111: 04,3036           02673                                    GEOMSGN
001112: 04,3037           27777                                    37777                                 #  GAMMA ALWAYS LESS THAN 180DEG
001113: 04,3040           11074                                    GEOM                                  #  MPAC=SNGA (+1), 0D=CSGA (+1)  PL AT 2
001114: 04,3041           14045                           STODL    36D                                   #  36D=SIN GAMMA (+1)            PL AT 0
001115: 04,3042           56261                           SR       DDV
001116:                                                                                                  #  Page 1186
001117: 04,3043           20606                                    5
001118: 04,3044           00045                                    36D
001119: 04,3045           32766                           STOVL*   COGA
001120: 04,3046           10005                                    MUTABLE,1
001121: 04,3047           14017                           STODL    1/MU
001122: 04,3050           02720                                    MAGVEC2
001123: 04,3051           60316                           DSQ      NORM
001124: 04,3052           00047                                    X1
001125: 04,3053           41275                           DMPR     DMP
001126: 04,3054           00017                                    1/MU
001127: 04,3055           00041                                    R1
001128: 04,3056           77657                           SRR*
001129: 04,3057           21576                                    0          -3,1
001130: 04,3060           44206                           PUSH     BDSU                                  #  0D=R1 V1SQ/MU (+6)            PL AT 2
001131: 04,3061           11007                                    D1/32
001132: 04,3062           16742                           STODL    R1A                                   #  R1A (+6)                      PL AT 0
001133:
001134: 04,3063           60205                           DMP      NORM
001135: 04,3064           00045                                    36D
001136: 04,3065           00047                                    X1
001137: 04,3066           53605                           DMP      SR*
001138: 04,3067           00045                                    36D
001139: 04,3070           20575                                    0          -4,1
001140: 04,3071           02740                           STORE    P                                     #  P (+4)
001141: 04,3072           77650                           GOTO
001142: 04,3073           02753                                    RTNPRM
001143:
001144:                                                                                                  #  Page 1187
001145: 04,3074           77656        GEOM               UNIT                                           #  MPAC=V2VEC, 0D=R1VEC          PL AT 6
001146: 04,3075           16712                           STODL    U2                                    #  U2 (+1)
001147: 04,3076           00045                                    36D
001148: 04,3077           26720                           STOVL    MAGVEC2                               #                                PL AT 0
001149: 04,3100           77656                           UNIT
001150: 04,3101           02722                           STORE    UR1                                   #  UR1 (+1)
001151: 04,3102           72441                           DOT      SL1
001152: 04,3103           02712                                    U2
001153: 04,3104           77725                           PDDL                                           #  0D=CSTH (+1)                  PL AT 2
001154: 04,3105           00045                                    36D
001155: 04,3106           24041                           STOVL    R1                                    #  R1 (+29 OR +27)
001156: 04,3107           02722                                    UR1
001157: 04,3110           76435                           VXV      VSL1
001158: 04,3111           02712                                    U2
001159: 04,3112           75214                           BON      SIGN
001160: 04,3113           03705                                    NORMSW
001161: 04,3114           11126                                    HAVENORM
001162: 04,3115           02673                                    GEOMSGN
001163: 04,3116           40056                           UNIT     BOV
001164: 04,3117           11124                                    COLINEAR
001165: 04,3120           16674        UNITNORM           STODL    UN                                    #  UN (+1)
001166: 04,3121           00045                                    36D
001167: 04,3122           43565                           SIGN     RVQ                                   #  MPAC=SNTH (+1), 34D=SNTH.SNTH (+2)
001168: 04,3123           02673                                    GEOMSGN
001169:
001170: 04,3124           52162        COLINEAR           VSR1     GOTO
001171: 04,3125           11120                                    UNITNORM
001172:
001173: 04,3126           75246        HAVENORM           ABVAL    SIGN
001174: 04,3127           02673                                    GEOMSGN
001175: 04,3130           77616                           RVQ                                            #  MPAC=SNTH (+1), 34D=SNTH.SNTH (+2)
001176:
001177:                                                                                                  #  Page 1188
001178: 12,2767                                           BANK     12
001179: 12,2000                                           SETLOC   CONICS
001180: 12,2000                                           BANK
001181:
001182: 12,2767                                           COUNT*   $$/CONIC
001183: 12,2767           66374        GETX               AXT,2    SSP                                   #  ASSUMES P (+4) IN MPAC
001184: 12,2770           00003                                    3
001185: 12,2771           00052                                    S2
001186: 12,2772           00001                                    1
001187: 12,2773           77614                           CLEAR
001188: 12,2774           04276                                    360SW
001189: 12,2775           65366                           SQRT     PDDL                                  #  0D=SQRT(P)                    PL AT 2
001190: 12,2776           02732                                    CSTH
001191: 12,2777           44342                           SR1      BDSU
001192: 12,3000           11003                                    D1/4
001193: 12,3001           54325                           PDDL     SRR                                   #                                PL AT 4D
001194: 12,3002           02730                                    SNTH
001195: 12,3003           21607                                    6
001196: 12,3004           77671                           DDV                                            #                                PL AT 2
001197: 12,3005           77600                           BOV
001198: 12,3006           25122                                    360CHECK
001199: 12,3007           41225                           DSU      DMP
001200: 12,3010           02766                                    COGA                                  #                                PL AT 0
001201: 12,3011           40132                           SL2R     BOV
001202: 12,3012           25122                                    360CHECK
001203: 12,3013           63406        WLOOP              PUSH     DSQ                                   #  0D=W (+5)                     PL AT 2
001204: 12,3014           65351                           TLOAD    PDDL                                  #  2D=WSQ (+10)                  PL AT 5
001205: 12,3015           00155                                    MPAC
001206: 12,3016           02742                                    R1A
001207: 12,3017           76202                           SR4      TAD                                   #                                PL AT 2
001208: 12,3020           75440                           BMN      SQRT
001209: 12,3021           25205                                    INFINITY
001210: 12,3022           43306                           ROUND    DAD                                   #                                PL AT 0D
001211: 12,3023           61000                           BOV      TIX,2
001212: 12,3024           25120                                    RESETX2
001213: 12,3025           25013                                    WLOOP
001214:
001215: 12,3026           40065                           BDDV     BOV
001216: 12,3027           10777                                    D1/128
001217: 12,3030           25205                                    INFINITY
001218: 12,3031           41440        POLYCOEF           BMN      PUSH                                  #  0D=1/W (+2) OR 16/W (+6)      PL AT 2
001219: 12,3032           25205                                    INFINITY
001220: 12,3033           77716                           DSQ
001221: 12,3034           41301                           NORM     DMP
001222: 12,3035           00047                                    X1
001223: 12,3036           02742                                    R1A
001224: 12,3037           77457                           SRR*     EXIT
001225: 12,3040           21567                                    0          -10D,1
001226: 12,3041           07225                           TC       POLY
001227:                                                                                                  #  Page 1189
001228: 12,3042           00005                           DEC      5          B-14
001229: 12,3043           20000 00000                     2DEC     .5
001230: 12,3045           72525 52471                     2DEC     -.166666770
001231: 12,3047           03146 15003                     2DEC     .100000392
001232: 12,3051           75556 45210                     2DEC     -.071401086
001233: 12,3053           01615 13553                     2DEC     .055503292
001234: 12,3055           76371 63777                     2DEC     -.047264098
001235: 12,3057           01232 27367                     2DEC     .040694204
001236:
001237: 12,3061           06042                           TC       INTPRET
001238: 12,3062           76405                           DMP      SL1R                                  #                                PL AT 0D
001239: 12,3063           43006                           PUSH     BON
001240: 12,3064           04316                                    360SW
001241: 12,3065           25172                                    TRUE360X
001242: 12,3066           60316        XCOMMON            DSQ      NORM
001243: 12,3067           00047                                    X1
001244: 12,3070           53605                           DMP      SRR*
001245: 12,3071           02742                                    R1A
001246: 12,3072           21565                                    0          -12D,1
001247: 12,3073           14031                           STODL    XI                                    #  XI (+6)
001248: 12,3074           00041                                    R1
001249: 12,3075           75542                           SR1      SQRT
001250: 12,3076           41306                           ROUND    DMP
001251: 12,3077           77632                           SL4R                                           #                                PL AT 0
001252: 12,3100           00025                           STORE    X                                     #  X (+17 OR +16)
001253:
001254: 12,3101           60316                           DSQ      NORM
001255: 12,3102           00047                                    X1
001256: 12,3103           41325                           PDDL     DMP                                   #  0D=XSQ (+34 OR +32 -N1)       PL AT 2
001257: 12,3104           02740                                    P
001258: 12,3105           00041                                    R1
001259: 12,3106           75452                           SL3      SQRT
001260: 12,3107           56405                           DMP      SL3R
001261: 12,3110           02766                                    COGA
001262: 12,3111           14043                           STODL    KEPC1
001263: 12,3112           02742                                    R1A
001264: 12,3113           43021                           BDSU     CLEAR
001265: 12,3114           11001                                    D1/64
001266: 12,3115           04270                                    INFINFLG
001267: 12,3116           00045                           STORE    KEPC2
001268: 12,3117           77616                           RVQ
001269:
001270:                                                                                                  #  Page 1190
001271: 12,3120           77774        RESETX2            AXT,2
001272: 12,3121           00003                                    3
001273:
001274: 12,3122           51001        360CHECK           SETPD    BPL
001275: 12,3123           00001                                    0D
001276: 12,3124           25127                                    INVRSEQN
001277: 12,3125           77614                           SET
001278: 12,3126           04076                                    360SW
001279:
001280: 12,3127           75545        INVRSEQN           DLOAD    SQRT
001281: 12,3130           02740                                    P
001282: 12,3131           41325                           PDDL     DMP                                   #  0D=SQRT(P) (+2)               PL AT 2
001283: 12,3132           02730                                    SNTH
001284: 12,3133           02766                                    COGA
001285: 12,3134           65352                           SL1      PDDL                                  #  2D=SNTH COGA (+5)             PL AT 4
001286: 12,3135           02732                                    CSTH
001287: 12,3136           43202                           SR4      DAD
001288: 12,3137           11007                                    D1/32
001289: 12,3140           41225                           DSU      DMP                                   #                                PL AT 2,0
001290: 12,3141           55301                           NORM     BDDV
001291: 12,3142           00047                                    X1
001292: 12,3143           02730                                    SNTH
001293: 12,3144           51457                           SLR*     ABS                                   #  NOTE: NEAR 360 CASE TREATED DIFFERENTLY
001294: 12,3145           21174                                    0          -5,1
001295: 12,3146           63406                           PUSH     DSQ                                   #  0D=1/W (-1)                   PL AT 2
001296: 12,3147           14043                           STODL    34D
001297: 12,3150           11005                                    D1/16
001298: 12,3151           63406        1/WLOOP            PUSH     DSQ                                   #  2D=G (+4)                     PL AT 4
001299: 12,3152           65234                           RTB      PDDL                                  #                                PL AT 7
001300: 12,3153           21634                                    TPMODE
001301: 12,3154           02742                                    R1A
001302: 12,3155           40405                           DMP      SR4
001303: 12,3156           00043                                    34D
001304: 12,3157           77771                           TAD
001305: 12,3160           75440                           BMN      SQRT                                  #                                PL AT 4
001306: 12,3161           25205                                    INFINITY
001307: 12,3162           77615                           DAD                                            #                                PL AT 2
001308: 12,3163           60304                           TIX,2    NORM
001309: 12,3164           25151                                    1/WLOOP
001310: 12,3165           00047                                    X1
001311: 12,3166           77665                           BDDV
001312: 12,3167           52057                           SLR*     GOTO                                  #                                PL AT 0
001313: 12,3170           21172                                    0          -7,1
001314: 12,3171           25031                                    POLYCOEF
001315:
001316: 12,3172           50145        TRUE360X           DLOAD    BMN
001317: 12,3173           02742                                    R1A
001318:                                                                                                  #  Page 1191
001319: 12,3174           25205                                    INFINITY
001320: 12,3175           60366                           SQRT     NORM
001321: 12,3176           00047                                    X1
001322: 12,3177           53665                           BDDV     SL*
001323: 12,3200           11021                                    2PISC
001324: 12,3201           20176                                    0          -3,1
001325: 12,3202           41425                           DSU      PUSH                                  #  0D=2PI/SQRT(R1A) -X           PL AT 0,2
001326: 12,3203           77650                           GOTO
001327: 12,3204           25066                                    XCOMMON
001328: 12,3205           40001        INFINITY           SETPD    BOV                                   #  NO SOLUTION EXISTS SINCE CLOSURE THROUGH
001329: 12,3206           00001                                    0                                     #  INFINITY IS REQUIRED
001330: 12,3207           25210                                    OVFLCLR
001331: 12,3210           43414        OVFLCLR            SET      RVQ
001332: 12,3211           04070                                    INFINFLG
001333:
001334:                                                                                                  #  Page 1192
001335: 12,3212           40220        LAMBERT            STQ      SETPD
001336: 12,3213           02710                                    RTNLAMB
001337: 12,3214           00001                                    0D
001338: 12,3215           77600                           BOV
001339: 12,3216           25217                                    +1
001340: 12,3217           76614                           CLEAR    VLOAD*
001341: 12,3220           02674                                    SOLNSW
001342: 12,3221           10005                                    MUTABLE,1
001343: 12,3222           14017                           STODL    1/MU
001344: 12,3223           02671                                    TDESIRED
001345: 12,3224           77675                           DMPR
001346: 12,3225           11006                                    BEE19
001347: 12,3226           02764                           STORE    EPSILONL
001348: 12,3227           77214                           SET      VLOAD
001349: 12,3230           00474                                    SLOPESW
001350: 12,3231           02655                                    R1VEC
001351: 12,3232           45115                           PDVL     CALL                                  #  0D=R1VEC (+29 OR +27)         PL AT 6
001352: 12,3233           02663                                    R2VEC                                 #  MPAC=R2VEC (+29 OR +27)
001353: 12,3234           11074                                    GEOM
001354: 12,3235           16730                           STODL    SNTH                                  #  0D=CSTH (+1)                  PL AT 2
001355: 12,3236           02720                                    MAGVEC2
001356: 12,3237           65301                           NORM     PDDL
001357: 12,3240           00047                                    X1
001358: 12,3241           00041                                    R1
001359: 12,3242           56342                           SR1      DDV                                   #                                PL AT 2
001360: 12,3243           65257                           SL*      PDDL                                  #  DXCH WITH 0D, 0D=R1/R2 (+7)   PL AT 0,2
001361: 12,3244           20173                                    0          -6,1
001362: 12,3245           77626                           STADR
001363: 12,3246           75045                           STORE    CSTH                                  #  CSTH (+1)
001364: 12,3247           44342                           SR1      BDSU
001365: 12,3250           11003                                    D1/4
001366: 12,3251           02734                           STORE    1-CSTH                                #  1-CSTH (+2)
001367:
001368: 12,3252           53106                           ROUND    BZE
001369: 12,3253           25473                                    360LAMB
001370: 12,3254           65301                           NORM     PDDL                                  #                                PL AT 4
001371: 12,3255           00047                                    X1
001372: 12,3256           00001                                    0D
001373: 12,3257           56342                           SR1      DDV                                   #                                PL AT 2
001374: 12,3260           75457                           SL*      SQRT
001375: 12,3261           20176                                    0          -3,1
001376: 12,3262           54325                           PDDL     SR                                    #  2D=SQRT(2R1/R2(1-CSTH)) (+5)  PL AT 4
001377: 12,3263           02730                                    SNTH
001378: 12,3264           20607                                    6
001379: 12,3265           43271                           DDV      DAD                                   #                                PL AT 2
001380: 12,3266           02734                                    1-CSTH
001381: 12,3267           77626                           STADR
001382: 12,3270           77760                           STORE    COGAMAX
001383: 12,3271           50000                           BOV      BMN                                   #  IF OVFL, COGAMAX=COGUPLIM
001384: 12,3272           25277                                    UPLIM                                 #  IF NEG, USE EVEN IF LT COGLOLIM, SINCE
001385:                                                                                                  #  Page 1193
001386: 12,3273           25302                                    MAXCOGA                               #        THIS WOULD BE RESET IN LAMBLOOP
001387: 12,3274           50025                           DSU      BMN                                   #  IF COGAMAX GT COGUPLIM, COGAMAX=COGUPLIM
001388: 12,3275           11025                                    COGUPLIM
001389: 12,3276           25302                                    MAXCOGA                               #  OTHERWISE OK, SO GO TO MAXCOGA
001390: 12,3277           77745        UPLIM              DLOAD
001391: 12,3300           11025                                    COGUPLIM                              #  COGUPLIM=.999511597 = MAX VALUE OF COGA
001392: 12,3301           00017                           STORE    COGAMAX                               #        NOT CAUSING OVFL IN R1A CALCULATION
001393: 12,3302           77745        MAXCOGA            DLOAD
001394: 12,3303           02732                                    CSTH
001395: 12,3304           45261                           SR       DSU                                   #                                        PL AT 0
001396: 12,3305           20607                                    6
001397: 12,3306           77626                           STADR
001398: 12,3307           61041                           STODL    CSTH-RHO
001399: 12,3310           02673                                    GEOMSGN
001400: 12,3311           71240                           BMN      DLOAD
001401: 12,3312           25513                                    LOLIM
001402: 12,3313           02736                                    CSTH-RHO
001403: 12,3314           56352                           SL1      DDV
001404: 12,3315           02730                                    SNTH
001405: 12,3316           77600                           BOV
001406: 12,3317           25513                                    LOLIM
001407: 12,3320           00011        MINCOGA            STORE    COGAMIN                               #  COGAMIN (+5)
001408: 12,3321           66214                           BON      SSP
001409: 12,3322           00715                                    GUESSW
001410: 12,3323           25477                                    NOGUESS
001411: 12,3324           00051                                    TWEEKIT
001412: 12,3325           00001                                    00001
001413: 12,3326           77745                           DLOAD
001414: 12,3327           02766                                    COGA
001415:
001416: 12,3330           77605        LAMBLOOP           DMP
001417: 12,3331           02730                                    SNTH
001418: 12,3332           45342                           SR1      DSU
001419: 12,3333           02736                                    CSTH-RHO
001420: 12,3334           65301                           NORM     PDDL                                  #  0D=SNTH COGA-(CSTH-RHO) (+7+C(XI))    PL = 2
001421: 12,3335           00047                                    X1
001422: 12,3336           02734                                    1-CSTH
001423: 12,3337           56257                           SL*      DDV                                   #  1-CSTH (+2)                           PL AT 0
001424: 12,3340           20170                                    0          -9D,1
001425: 12,3341           53040                           BMN      BZE
001426: 12,3342           25427                                    NEGP
001427: 12,3343           25427                                    NEGP
001428: 12,3344           16740                           STODL    P                                     #  P=(1-CSTH)/(SNTH COGA-(CSTH-RHO)) (+4)
001429: 12,3345           02766                                    COGA
001430: 12,3346           43316                           DSQ      DAD
001431: 12,3347           11011                                    D1/1024
001432: 12,3350           41301                           NORM     DMP
001433: 12,3351           00047                                    X1
001434: 12,3352           02740                                    P
001435:                                                                                                  #  Page 1194
001436: 12,3353           44257                           SR*      BDSU
001437: 12,3354           20571                                    0          -8D,1
001438: 12,3355           11007                                    D1/32
001439: 12,3356           16742                           STODL    R1A                                   #  R1A=2-P(1+COGA COGA) (+6)
001440: 12,3357           02740                                    P
001441: 12,3360           45000                           BOV      CALL
001442: 12,3361           25432                                    HIENERGY
001443: 12,3362           24767                                    GETX
001444: 12,3363           77745                           DLOAD
001445: 12,3364           00037                                    T
001446: 12,3365           16762                           STODL    TPREV
001447: 12,3366           00031                                    XI
001448: 12,3367           45014                           BON      CALL
001449: 12,3370           04310                                    INFINFLG
001450: 12,3371           25427                                    NEGP                                  #  HAVE EXCEEDED THEORETICAL BOUNDS
001451: 12,3372           24421                                    DELTIME
001452: 12,3373           44200                           BOV      BDSU
001453: 12,3374           25447                                    BIGTIME
001454: 12,3375           02671                                    TDESIRED
001455: 12,3376           02760                           STORE    TERRLAMB
001456: 12,3377           44246                           ABS      BDSU
001457: 12,3400           02764                                    EPSILONL
001458: 12,3401           47044                           BPL      RTB
001459: 12,3402           25516                                    INITV
001460: 12,3403           24644                                    CHECKCTR
001461: 12,3404           43030                           BHIZ     BON
001462: 12,3405           25460                                    SUFFCHEK
001463: 12,3406           00714                                    SLOPESW
001464: 12,3407           25415                                    GOITER
001465: 12,3410           45345                           DLOAD    DSU
001466: 12,3411           00037                                    T
001467: 12,3412           02762                                    TPREV
001468: 12,3413           77654                           BZE
001469: 12,3414           25460                                    SUFFCHEK
001470: 12,3415           77624        GOITER             CALL
001471: 12,3416           24536                                    ITERATOR
001472: 12,3417           53145                           DLOAD    BZE
001473: 12,3420           00155                                    MPAC
001474: 12,3421           25460                                    SUFFCHEK
001475: 12,3422           77615                           DAD
001476: 12,3423           02766                                    COGA
001477: 12,3424           02766                           STORE    COGA
001478: 12,3425           77650                           GOTO
001479: 12,3426           25330                                    LAMBLOOP
001480:
001481: 12,3427           51145        NEGP               DLOAD    BPL                                   #  IMPOSSIBLE TRAJECTORY DUE TO INACCURATE
001482: 12,3430           00015                                    DCOGA                                 #  BOUND CALCULATION.  TRY NEW COGA.
001483: 12,3431           25452                                    LOENERGY
001484:
001485:                                                                                                  #  Page 1195
001486: 12,3432           71201        HIENERGY           SETPD    DLOAD                                 #  HIGH ENERGY TRAJECTORY RESULTED.
001487: 12,3433           00001                                    0
001488: 12,3434           02766                                    COGA                                  #  IN OVFL OF P OR R1A, OR XI EXCEEDING 50.
001489: 12,3435           00011                           STORE    COGAMIN                               #  THIS IS THE NEW BOUND.
001490: 12,3436           70545        COMMONLM           DLOAD    SR1
001491: 12,3437           00015                                    DCOGA
001492: 12,3440           00015                           STORE    DCOGA                                 #  USE DCOGA/2 AS DECREMENT
001493: 12,3441           44254                           BZE      BDSU
001494: 12,3442           25460                                    SUFFCHEK
001495: 12,3443           02766                                    COGA
001496: 12,3444           02766                           STORE    COGA
001497: 12,3445           77650                           GOTO                                           #  RESTART THIS LOOP
001498: 12,3446           25330                                    LAMBLOOP
001499:
001500: 12,3447           77745        BIGTIME            DLOAD
001501: 12,3450           02762                                    TPREV
001502: 12,3451           00037                           STORE    T
001503:
001504: 12,3452           71201        LOENERGY           SETPD    DLOAD                                 #  LOW ENERGY TRAJECTORY RESULTED
001505: 12,3453           00001                                    0
001506: 12,3454           02766                                    COGA                                  #  IN OVERFLOW OF TIME.
001507: 12,3455           00017                           STORE    COGAMAX                               #  THIS IS THE NEW BOUND.
001508: 12,3456           77650                           GOTO
001509: 12,3457           25436                                    COMMONLM
001510:
001511: 12,3460           51545        SUFFCHEK           DLOAD    ABS
001512: 12,3461           02760                                    TERRLAMB
001513: 12,3462           41325                           PDDL     DMP
001514: 12,3463           02671                                    TDESIRED                              #                                PL AT 2D
001515: 12,3464           10774                                    BEE17
001516: 12,3465           45215                           DAD      DSU                                   #                                PL AT 0D
001517: 12,3466           11023                                    ONEBIT
001518: 12,3467           43044                           BPL      SETGO
001519: 12,3470           25516                                    INITV
001520: 12,3471           02434                                    SOLNSW
001521: 12,3472           25516                                    INITV
001522: 12,3473           43001        360LAMB            SETPD    SETGO                                 #  LAMBERT CANNOT HANDLE CSTH=1
001523: 12,3474           00001                                    0
001524: 12,3475           02434                                    SOLNSW
001525: 12,3476           02710                                    RTNLAMB
001526:
001527: 12,3477           71331        NOGUESS            SSP      DLOAD
001528: 12,3500           00051                                    TWEEKIT
001529: 12,3501           10000                                    20000
001530: 12,3502           00011                                    COGAMIN
001531: 12,3503           65342                           SR1      PDDL
001532:                                                                                                  #  Page 1196
001533: 12,3504           00017                                    COGAMAX
001534: 12,3505           43342                           SR1      DAD
001535: 12,3506           77626                           STADR                                          #                                PL AT 0
001536: 12,3507           75011                           STORE    COGA
001537: 12,3510           00015                           STORE    DCOGA
001538: 12,3511           77650                           GOTO
001539: 12,3512           25330                                    LAMBLOOP
001540:
001541: 12,3513           52145        LOLIM              DLOAD    GOTO
001542: 12,3514           11027                                    COGLOLIM                              #  COGLOLIM=-.999511597
001543: 12,3515           25320                                    MINCOGA
001544:
001545: 12,3516           60345        INITV              DLOAD    NORM
001546: 12,3517           00041                                    R1
001547: 12,3520           00047                                    X1
001548: 12,3521           70525                           PDDL     SR1                                   #                                PL AT 2
001549: 12,3522           02740                                    P
001550: 12,3523           77671                           DDV                                            #                                PL AT 0
001551: 12,3524           75457                           SL*      SQRT
001552: 12,3525           20175                                    0          -4,1
001553: 12,3526           72405                           DMP      SL1
001554: 12,3527           00021                                    ROOTMU
001555: 12,3530           41206                           PUSH     DMP                                   #  0D=VTAN (+7)                  PL AT 2
001556: 12,3531           02766                                    COGA
001557: 12,3532           74261                           SL       VXSC
001558: 12,3533           20206                                    5
001559: 12,3534           02722                                    UR1
001560: 12,3535           77725                           PDDL                                           #  XCH WITH 0D                   PL AT 0,6
001561: 12,3536           76561                           VXSC     VSL1
001562: 12,3537           02674                                    UN
001563: 12,3540           53235                           VXV      VAD
001564: 12,3541           02722                                    UR1                                   #                                PL AT 0
001565: 12,3542           77772                           VSL1
001566: 12,3543           02744                           STORE    VVEC
001567: 12,3544           53135                           SLOAD    BZE
001568: 12,3545           02702                                    VTARGTAG
001569: 12,3546           25551                                    TARGETV
001570: 12,3547           77650                           GOTO
001571: 12,3550           02710                                    RTNLAMB
001572:
001573: 12,3551           45145        TARGETV            DLOAD    CALL
001574: 12,3552           02720                                    MAGVEC2
001575: 12,3553           24701                                    LAMENTER
001576: 12,3554           02703                           STORE    VTARGET
001577: 12,3555           77650                           GOTO
001578: 12,3556           02710                                    RTNLAMB
001579:
001580:                                                                                                  #  Page 1197
001581: 12,3557           40220        TIMERAD            STQ      SETPD                                 #                                PL AT 0
001582: 12,3560           02710                                    RTNTR
001583: 12,3561           00001                                    0
001584: 12,3562           77600                           BOV
001585: 12,3563           25564                                    +1
001586: 12,3564           63375                           VLOAD    PDVL                                  #                                PL AT 6
001587: 12,3565           02655                                    RVEC
001588: 12,3566           02744                                    VVEC
001589: 12,3567           77624                           CALL
001590: 12,3570           11030                                    PARAM
001591: 12,3571           71200                           BOV      DLOAD
001592: 12,3572           24764                                    COGAOVFL                              #                                PL AT 0
001593: 12,3573           11007                                    D1/32
001594: 12,3574           41225                           DSU      DMP
001595: 12,3575           02742                                    R1A
001596: 12,3576           02740                                    P
001597: 12,3577           41366                           SQRT     DMP
001598: 12,3600           02766                                    COGA
001599: 12,3601           74212                           SL4      VXSC
001600: 12,3602           02712                                    U2
001601: 12,3603           45325                           PDDL     DSU                                   #                                PL AT 6
001602: 12,3604           11001                                    D1/64
001603: 12,3605           02742                                    R1A
001604: 12,3606           52361                           VXSC     VSU                                   #                                PL AT 0
001605: 12,3607           02722                                    UR1
001606: 12,3610           53512                           VSL4     UNIT
001607: 12,3611           77600                           BOV
001608: 12,3612           25670                                    CIRCULAR
001609: 12,3613           60325                           PDDL     NORM                                  #  0D=UNIT(ECC) (+3)             PL AT 6
001610: 12,3614           02756                                    RDESIRED                              #  35D=ECC (+3)
001611: 12,3615           00047                                    X1
001612: 12,3616           41325                           PDDL     DMP                                   #                                PL AT 8
001613: 12,3617           00041                                    R1
001614: 12,3620           02740                                    P
001615: 12,3621           56257                           SL*      DDV                                   #                                PL AT 6
001616: 12,3622           20201                                    0,1
001617: 12,3623           56225                           DSU      DDV
001618: 12,3624           11005                                    D1/16
001619: 12,3625           00045                                    36D                                   #  36D=ECC (+3)
001620: 12,3626           00031                           STORE    COSF
001621: 12,3627           63400                           BOV      DSQ
001622: 12,3630           25674                                    BADR2
001623: 12,3631           50021                           BDSU     BMN
001624: 12,3632           11003                                    D1/4
001625: 12,3633           25674                                    BADR2
001626: 12,3634           75366                           SQRT     SIGN
001627: 12,3635           02755                                    SGNRDOT
001628: 12,3636           77614                           CLEAR
001629: 12,3637           04272                                    APSESW
001630:                                                                                                  #  Page 1198
001631: 12,3640           76561        TERMNVEC           VXSC     VSL1
001632: 12,3641           02674                                    UN
001633: 12,3642           63235                           VXV      PDVL                                  #  VXCH WITH 0D          PL AT 0,6
001634: 12,3643           00001                                    0D
001635: 12,3644           53361                           VXSC     VAD                                   #                        PL AT 0
001636: 12,3645           00031                                    COSF
001637: 12,3646           41572                           VSL1     PUSH                                  #  0D=U2                 PL AT 6
001638:
001639: 12,3647           56241                           DOT      DDV                                   #  LIMITS RESULT TO POSMAX OR NEGMAX
001640: 12,3650           02722                                    UR1
001641: 12,3651           25766                                    DP1/4
001642: 12,3652           40142                           SR1      BOV                                   #  SCALE BACK DOWN TO NORMAL
001643: 12,3653           25654                                    +1                                    #  CLEAR OVFIND IF SET
001644: 12,3654           26732                           STOVL    CSTH                                  #  CSTH (+1)
001645: 12,3655           02722                                    UR1
001646: 12,3656           76435                           VXV      VSL1
001647: 12,3657           72441                           DOT      SL1
001648: 12,3660           02674                                    UN
001649: 12,3661           16730                           STODL    SNTH                                  #  SNTH (+1)
001650: 12,3662           02740                                    P
001651: 12,3663           77624                           CALL
001652: 12,3664           24767                                    GETX
001653: 12,3665           77614                           CLRGO
001654: 12,3666           02634                                    SOLNSW
001655: 12,3667           24747                                    COMMNOUT
001656:
001657: 12,3670           43001        CIRCULAR           SETPD    SETGO
001658: 12,3671           00001                                    0
001659: 12,3672           02434                                    SOLNSW
001660: 12,3673           25752                                    ABTCONIC
001661:
001662: 12,3674           75345        BADR2              DLOAD    SIGN
001663: 12,3675           24005                                    LODPHALF
001664: 12,3676           00031                                    COSF
001665: 12,3677           14031                           STODL    COSF
001666: 12,3700           24007                                    KEPZERO
001667: 12,3701           77614                           SETGO
001668: 12,3702           04032                                    APSESW
001669: 12,3703           25640                                    TERMNVEC
001670:
001671:                                                                                                  #  Page 1199
001672: 12,3704           40220        APSIDES            STQ      SETPD                                 #                        PL AT 0
001673: 12,3705           02710                                    RTNAPSE
001674: 12,3706           00001                                    0D
001675: 12,3707           77600                           BOV
001676: 12,3710           25711                                    +1
001677: 12,3711           63375                           VLOAD    PDVL                                  #                        PL AT 6
001678: 12,3712           02655                                    RVEC
001679: 12,3713           02744                                    VVEC
001680: 12,3714           77624                           CALL
001681: 12,3715           11030                                    PARAM
001682: 12,3716           77600                           BOV                                            #                        PL AT 0
001683: 12,3717           25720                                    GETECC
001684: 12,3720           42405        GETECC             DMP      SL4
001685: 12,3721           02742                                    R1A
001686: 12,3722           75421                           BDSU     SQRT
001687: 12,3723           11001                                    D1/64
001688: 12,3724           02752                           STORE    ECC
001689: 12,3725           65215                           DAD      PDDL                                  #                        PL AT 2
001690: 12,3726           10775                                    D1/8
001691: 12,3727           00041                                    R1
001692: 12,3730           72405                           DMP      SL1
001693: 12,3731           02740                                    P
001694: 12,3732           77671                           DDV                                            #                        PL AT 0
001695: 12,3733           60325                           PDDL     NORM                                  #  0D=RP (+29 OR +27)    PL AT 2
001696: 12,3734           02742                                    R1A
001697: 12,3735           00047                                    X1
001698: 12,3736           53725                           PDDL     SL*                                   #                        PL AT 4
001699: 12,3737           00041                                    R1
001700: 12,3740           20174                                    0          -5,1
001701: 12,3741           45271                           DDV      DSU                                   #                        PL AT 2,0
001702: 12,3742           50000                           BOV      BMN
001703: 12,3743           25747                                    INFINAPO
001704: 12,3744           25747                                    INFINAPO
001705: 12,3745           77650                           GOTO
001706: 12,3746           02710                                    RTNAPSE
001707: 12,3747           52145        INFINAPO           DLOAD    GOTO                                  #  RETURNS WITH APOAPSIS IN MPAC, PERIAPSIS
001708: 12,3750           24020                                    LDPOSMAX
001709: 12,3751           02710                                    RTNAPSE                               #  THAT PL IS AT 0.
001710:
001711:                                                                                                  #  Page 1200
001712: 12,3752           77776        ABTCONIC           EXIT
001713: 12,3753           05642                           TC       P00DOO
001714: 12,3754           20607                           OCT      20607
001715:
001716: 12,3755  12,2017               LDPOSMAX           EQUALS   LODPMAX                               #  DPPOSMAX IN LOW MEMORY.
001717:
001718:                                                                                                  #  ERASABLE ASSIGNEMENTS
001719:                                                                                                  #  KEPLER SUBROUTINE
001720:
001721:                                                                                                  #  INPUT --
001722:                                                                                                  #  RRECT         ERASE   +5
001723:                                                                                                  #  VRECT         ERASE   +5
001724:                                                                                                  #  TAU.          ERASE   +1
001725:                                                                                                  #  XKEP          ERASE   +1
001726:                                                                                                  #  TC            ERASE   +1
001727:                                                                                                  #  XPREV         ERASE   +1
001728: 12,3755                        1/MU               EQUALS   14D
001729: 12,3755                        ROOTMU             EQUALS   16D
001730: 12,3755                        1/ROOTMU           EQUALS   18D
001731:
001732:                                                                                                  #  OUTPUT --
001733:                                                                                                  #  RCV           ERASE   +5
001734:                                                                                                  #  VCV           ERASE   +5
001735:                                                                                                  #  RC            ERASE   +1
001736:                                                                                                  #  XPREV         ERASE   +1
001737:
001738:                                                                                                  #  DEBRIS --
001739: 12,3755                        ALPHA              EQUALS   8D
001740: 12,3755                        XMAX               EQUALS   10D
001741: 12,3755                        XMIN               EQUALS   12D
001742: 12,3755                        X                  EQUALS   20D
001743: 12,3755                        XI                 EQUALS   24D
001744: 12,3755                        S(XI)              EQUALS   26D
001745: 12,3755                        XSQC(XI)           EQUALS   28D
001746: 12,3755                        T                  EQUALS   30D
001747: 12,3755                        R1                 EQUALS   32D
001748: 12,3755                        KEPC1              EQUALS   34D
001749: 12,3755                        KEPC2              EQUALS   36D
001750:                                                                                                  #  DELX          ERASE   +1
001751:                                                                                                  #  DELT          ERASE   +1
001752:                                                                                                  #  URRECT        ERASE   +5
001753:                                                                                                  #  RCNORM        ERASE   +1
001754:                                                                                                  #  XPREV         EQUALS  XKEP
001755:
001756:
001757:                                                                                                  #  LAMBERT SUBROUTINE
001758:
001759:                                                                                                  #  INPUT --
001760:                                                                                                  #  R1VEC         ERASE   +5
001761:                                                                                                  #  Page 1201
001762:                                                                                                  #  R2VEC         ERASE   +5
001763:                                                                                                  #  TDESIRED      ERASE   +1
001764:                                                                                                  #  GEOMSGN       ERASE   +0
001765:                                                                                                  #  GUESSW                        # 0 IF COGA GUESS AVIABLE, 1 IF NOT
001766:                                                                                                  #  COGA          ERASE   +1      # INPUT ONLY IF GUESS IS ZERO.
001767:                                                                                                  #  NORMSW                        # 0 IF UN TO BE COMPUTED, 1 IF UN INPUT
001768:                                                                                                  #  UN            ERASE   +5      # ONLY USEC IF NORMSE IS 1
001769:                                                                                                  #  VTARGTAG      ERASE   +0
001770:                                                                                                  #  TWEEKIT       EQUALS  40D     # ONLY USED IF GUESSW IS 0
001771:
001772:                                                                                                  #  OUTPUT --
001773:                                                                                                  #  VTARGET       ERASE   +5      # AVAILABLE ONLY IF VTARGTAG IS ZERO.
001774:                                                                                                  #  V1VEC         EQUALS  MPAC
001775:
001776:                                                                                                  #  DEBRIS --
001777:                                                                                                  #  RTNLAMB       ERASE   +0
001778:                                                                                                  #  U2            ERASE   +5
001779:                                                                                                  #  MAGVEC2       ERASE   +1
001780:                                                                                                  #  UR1           ERASE   +5
001781:                                                                                                  #  R1            EQUALS  31D
001782:                                                                                                  #  UN            ERASE   +5
001783:                                                                                                  #  SNTH          ERASE   +1
001784:                                                                                                  #  CSTH          ERASE   +1
001785:                                                                                                  #  1-CSTH        ERASE   +1
001786:                                                                                                  #  CSTH-RHO      ERASE   +1
001787: 12,3755                        COGAMAX            EQUALS   14D                                   #  CLOBBERS 1/MU
001788: 12,3755                        COGAMIN            EQUALS   8D
001789: 12,3755                        DCOGA              EQUALS   12D
001790:                                                                                                  #  TWEEKIT       EQUALS  40D
001791:                                                                                                  #  P             ERASE   +1
001792:                                                                                                  #  COGA          ERASE   +1
001793:                                                                                                  #  R1A           ERASE   +1
001794:                                                                                                  #  X             EQUALS  20D
001795:                                                                                                  #  XSQ           EQUALS  22D
001796:                                                                                                  #  XI            EQUALS  24D
001797:                                                                                                  #  S(XI)         EQUALS  26D
001798:                                                                                                  #  XSQC(XI)      EQUALS  28D
001799:                                                                                                  #  T             EQUALS  30D
001800:                                                                                                  #  KEPC1         EQUALS  34D
001801:                                                                                                  #  KEPC2         EQUALS  36D
001802:                                                                                                  #  SLOPSW
001803:                                                                                                  #  SOLNSW
001804:
001805:                                                                                                  #  OTHERS --
001806:                                                                                                  #  RVEC          EQUALS  R1VEC
001807:                                                                                                  #  VVEC          ERASE   +5
001808:                                                                                                  #  COGAFLAG
001809:                                                                                                  #  RVSW
001810:                                                                                                  #  INFINFLG
001811:                                                                                                  #  APSESW
001812:                                                                                                  #  Page 1202
001813:                                                                                                  #  360SW
001814:                                                                                                  #  RTNTT         EQUALS  RTNLAMB
001815:                                                                                                  #  ECC           ERASE   +1
001816:                                                                                                  #  RTNTR         EQUALS  RTNLAMB
001817:                                                                                                  #  RTNAPSE       EQUALS  RTNLAMB
001818:                                                                                                  #  R2            EQUALS  MAGVEC2
001819: 12,3755                        COSF               EQUALS   24D
001820:                                                                                                  #  RTNPRM        ERASE   +0
001821:                                                                                                  #  SCNRDOT       ERASE   +0
001822:                                                                                                  #  RDESIRED      ERASE   +1
001823:
001824:
001825:                                                                                                  #  ITERATOR SUBROUTINE
001826:                                                                                                  #  ORDERSW
001827: 12,3755                        MAX                EQUALS   14D                                   #  CLOBBERS 1/MU
001828: 12,3755                        MIN                EQUALS   8D
001829:                                                                                                  #  INDEP         ERASE   +1
001830: 12,3755                        DELINDEP           EQUALS   12D
001831: 12,3755                        ITERCTR            EQUALS   22D
001832: 12,3755                        DEP                EQUALS   30D
001833:                                                                                                  #  DELDEP        ERASE   +1
001834:                                                                                                  #  DEPREV        ERASE   +1
001835: 12,3755                        TWEEKIT            EQUALS   40D
001836:
001837:
001838:                                                                                                  #  MORE KEPLER
001839:                                                                                                  #  EPSILONT      ERASE   +1
001840:
001841:
001842:                                                                                                  #  MORE LAMBERT
001843:                                                                                                  #  TERRLAMB      EQUALS  DELDEP
001844:                                                                                                  #  TPREV         EQUALS  DEPREV
001845:                                                                                                  #  EPSILONL      EQUALS  EPSILONT +2     # DOUBLE PRECISION WORD
001846:

End of include-file CONIC_SUBROUTINES.agc.  Parent file is MAIN.agc


