
Source Code


000002:                                                                                                  ## Copyright:   Public domain.
000003:                                                                                                  ## Filename:    CONIC_SUBROUTINES.agc
000004:                                                                                                  ## Purpose:     A section of Luminary 1C, revision 131.
000005:                                                                                                  ##              It is part of the source code for the Lunar Module's (LM)
000006:                                                                                                  ##              Apollo Guidance Computer (AGC) for Apollo 13.
000007:                                                                                                  ##              This file is intended to be a faithful transcription, except
000008:                                                                                                  ##              that the code format has been changed to conform to the
000009:                                                                                                  ##              requirements of the yaYUL assembler rather than the
000010:                                                                                                  ##              original YUL assembler.
000011:                                                                                                  ## Reference:   pp. 1153-1197
000012:                                                                                                  ## Contact:     Ron Burkey <info@sandroid.org>.
000013:                                                                                                  ## Website:     www.ibiblio.org/apollo/index.html
000014:                                                                                                  ## Mod history: 06/01/03 RSB.   Began transcribing.
000015:                                                                                                  ##              05/14/05 RSB    Corrected website reference above.
000016:                                                                                                  ##              2010-08-24 JL   Fixed page 1162 number.
000017:                                                                                                  ##              2017-01-06 RSB  Page numbers now agree with those on the
000018:                                                                                                  ##                              original hardcopy, as opposed to the PDF page
000019:                                                                                                  ##                              numbers in 1701.pdf.
000020:                                                                                                  ##              2017-01-28 RSB  WTIH -> WITH.
000021:                                                                                                  ##              2017-02-27 RSB  Proofed comment text using octopus/ProoferComments.
000022:                                                                                                  ##              2017-03-01 RSB  Fixed lingering comment-text typos.
000023:                                                                                                  ##                              Added in ##-comments with hyperlinks for some of the
000024:                                                                                                  ##                              documents reference in the code comments.  (Just as
000025:                                                                                                  ##                              an experiment; I didn't do it systematically.)
000026:                                                                                                  ##              2017-03-14 RSB  Comment-text fixes noted in proofing Luminary 116.
000027:                                                                                                  ##              2017-03-15 RSB  Comment-text fixes identified in 5-way
000028:                                                                                                  ##                              side-by-side diff of Luminary 69/99/116/131/210.
000029:                                                                                                  ##              2017-03-17 RSB  Comment-text fixes identified in diff'ing
000030:                                                                                                  ##                              Luminary 99 vs Comanche 55.
000031:


000033:                                                                                                  #  PROGRAM DESCRIPTION - ENTIRE CONIC SUBROUTINE LOG SECTION     DATE - 1 SEPTEMBER 1967
000034:                                                                                                  #  MOD NO. - 0                                                   LOG SECTION - CONIC SUBROUTINES
000035:                                                                                                  #  MOD BY KRAUSE                                                 ASSEMBLY - COLOSSUS REVISION 88
000036:
000037:                                                                                                  #  FUNCTIONAL DESCRIPTION -
000038:                                                                                                  #        THE FOLLOWING SET OF SUBROUTINES SOLVE VARIOUS PROBLEMS INVOLVING THE TRAJECTORY PRODUCED BY A CENTRAL
000039:                                                                                                  #        INVERSE-SQUARE FORCE ACTING ON A POINT MASS, AS OUTLINED IN THE CMC AND LGC LUNAR LANDING MISSION GSOP, SECTION
000040:                                                                                                  #        5.5.1.2.  A GENERAL USAGE POINT-OF-VIEW WAS TAKEN IN FORMULATING, MECHANIZING, AND SCALING THE SUBROUTINES,
000041:                                                                                                  #        RATHER THAN OPTIMIZING EACH FOR A PARTICULAR USE.  THEREFORE, MULTIPLE USAGE CAN BE MADE OF THE SUBROUTINES
000042:                                                                                                  #        INVOLVING ANY REALISTIC SET OF CONSTRAINTS.  IT SHOULD BE NOTED THAT ONLY ONE SET OF CODING IS USED, WHETHER THE
000043:                                                                                                  #        EARTH, MOON, OR ANY OTHER CELESTIAL BODY IS SPECIFIED AS THE CENTRAL BODY OF THE PROBLEM, PROVIDED ONE OBSERVES
000044:                                                                                                  #        THE INHERENT SCALE CHANGE REQUIRED IN POSITION, VELOCITY, MU, AND TIME, AS OUTLINED IN MISSION PROGRAMMING
000045:                                                                                                  #        DEFINITION MEMO NO. 10.  THIS CAN BE ACCOMPLISHED BY SIMPLY ADDING TO THE MUTABLE AND INITIALIZING THE SUBROU-
000046:                                                                                                  #        TINES APPROPRIATELY.
000047:
000048:                                                                                                  #        DUE TO THE UNIFORMITY OF THE EQUATIONS INVOLVED, CODING WAS MINIMIZED BY TREATING INDIVIDUAL EQUATIONS AND
000049:                                                                                                  #        BLOCKS OF EQUATIONS AS SUBROUTINES OF LOWER RANK WHENEVER POSSIBLE.  AS A RESULT, THREE BY-PRODUCTS SUBROUTINES,
000050:                                                                                                  #        DIRECTLY USABLE AS INDEPENDENT SUBROUTINES, WERE GENERATED.
000051:
000052:                                                                                                  #  RESTRICTIONS -
000053:                                                                                                  #        THE ONLY LIMITATION IN THE SCOPE OF PROBLEM WHICH CAN BE SOLVED BY A PARTICULAR SUBROUTINE IS THE SCALING
000054:                                                                                                  #        LIMIT OF EACH PARAMETER AS SPECIFIED IN THE GSOP.  THESE SCALING LIMITS WERE CHOSEN SO THAT ALL FEASIBLE TRAJEC-
000055:                                                                                                  #        TORIES COULD BE HANDLED.
000056:
000057:                                                                                                  #        SINCE THE SUBROUTINES (EXCEPT KEPLER) USE COMMON SUBROUTINES OF LOWER RANK WHICH USE ERASABLE OTHER THAN
000058:                                                                                                  #        THE PUSHLIST (DUE TO ITS LIMITED SIZE) AND COMMON INTERPRETIVE SWITCHES, THE CONIC SUBROUTINES CANNOT BE ALLOWED
000059:                                                                                                  #        TO INTERRUPT EACH OTHER.  IT IS UP TO THE USER TO GUARANTEE THIS CONDITION.
000060:


000062:                                                                                                  #  PROGRAM DESCRIPTION - KEPLER SUBROUTINE                       DATE - 11 OCTOBER 1967
000063:                                                                                                  #  MOD NO. -1                                                    LOG SECTION - CONIC SUBROUTINES
000064:                                                                                                  #  MOD BY KRAUSE                                                 ASSEMBLY - COLOSSUS 103 AND SUNDANCE 222
000065:                                                                                                  #  MOD NO. - 2 (AUGUST 1968) BY ROBERTSON: TO PERMIT BACKDATING BY MORE THAN ONE ORBITAL PERIOD.
000066:                                                                                                  #  MOD NO. - 3 (DEC 1968) BY ROBERTSON:  SUPPRESSION OF X-MODULO-ING
000067:                                                                                                  #  MOD. NO. - 4 (JAN 1969) BY ROBERTSON:  CLEAR OVFIND AT KEPLER ENTRY
000068:
000069:                                                                                                  #  FUNCTIONAL DESCRIPTION -
000070:                                                                                                  #        THIS SUBROUTINE, GIVEN AN INITIAL STATE VECTOR AND THE DESIRED TRANSFER TIME THROUGH WHICH THE STATE IS TO
000071:                                                                                                  #        BE UPDATED ALONG A CONIC TRAJECTORY, COMPUTES THE NEW, UPDATED STATE VECTOR.  THE TRAJECTORY MAY BE ANY CONIC
000072:                                                                                                  #        SECTION - CIRCULAR, ELLIPTIC, PARABOLIC, HYPERBOLIC, OR RECTILINEAR WITH RESPECT TO THE EARTH OR THE MOON. THE
000073:                                                                                                  #        USE OF THE SUBROUTINE CAN BE EXTENDED USING OTHER PRIMARY BODIES BY SIMPLE ADDITIONS TO THE MUTABLE WITHOUT
000074:                                                                                                  #        INTRODUCING ANY CODING CHANGES, ACCEPTING THE INHERENT SCALE FACTOR CHANGES IN POSITION AND VELOCITY.  AN ITERA-
000075:                                                                                                  #        TION TECHNIQUE IS UTILIZED IN THE COMPUTATION.
000076:
000077:                                                                                                  #        IF A NEGATIVE TIME-OF-FLIGHT IS INPUT, THE PROGRAM WILL SOLVE FOR THE STATE WHICH WOULD BE PRODUCED BY
000078:                                                                                                  #        EXTRAPOLATING THE POSITION BACKWARD IN TIME.
000079:
000080:                                                                                                  #        IF THE ABSOLUTE VALUE OF THE DESIRED TRANSFER TIME EXCEEDS THE ORBITAL PERIOD, THE SUBROUTINE, THROUGH A
000081:                                                                                                  #        MODULAR TECHNIQUE, WILL COMPUTE THE STATE CORRESPONDING TO THE DESIRED TIME (WHETHER POSITIVE OR NEGATIVE).
000082:
000083:                                                                                                  #  THE RESTRICTIONS ARE -
000084:                                                                                                  #        1.      (PREVIOUS RESTRICTION ON THE NEGATIVE DESIRED TRANSFER TIME IS NOW DELETED.)
000085:                                                                                                  #        2.      THE PARAMETERS IN THE PROBLEM CANNOT EXCEED THEIR SCALING LIMITS AS SPECIFIED IN THE GSOP.  IF
000086:                                                                                                  #                ANY OF THESE LIMITS ARE EXCEEDED, THE RESULTING SOLUTION WILL BE MEANINGLESS.
000087:
000088:                                                                                                  #        THE NUMBER OF ITERATIONS AND, THEREFORE, THE COMPUTATION SPEED IS DEPENDENT ON THE ACCURACY OF THE
000089:                                                                                                  #        GUESS, XKFPNEW.  THE AGC COMPUTATION TIME IS APPROXIMATELY .061 SECONDS FOR INITIALIZATION, .065 SECONDS FOR THE
000090:                                                                                                  #        FINAL COMPUTATIONS, PLUS .083 SECONDS FOR EACH ITERATION.
000091:


000093:                                                                                                  #  REFERENCES -
000094:                                                                                                  #        R-479, MISSION PROGRAMMING DEFINITION MEMO NO. 10, LUNAR LANDING MISSION GSOP, SECTION 5.5, SGA
000095:                                                                                                  #        MEMO 67-4.
000096:
000097:                                                                                                  #  INPUT - ERASABLE INITIALIZATION REQUIRED
000098:
000099:                                                                                                  #                * SCALE FACTOR *
000100:                                                                                                  #        VARIABLE*IN POWERS OF 2*                         DESCRIPTION AND REMARKS
000101:                                                                                                  #        --------*--------------*                         -----------------------
000102:                                                                                                  #        RRECT   * +29 FOR EARTH*DP INITIAL POSITION VECTOR IN METERS
000103:                                                                                                  #                * +27 FOR MOON *


000105:                                                                                                  #        VRECT   * +7 FOR EARTH *DP INITIAL VELOCITY VECTOR IN METERS/CENTISECOND
000106:                                                                                                  #                * +5 FOR MOON  *
000107:                                                                                                  #        X1 (38D)* NONE         *INDEX REGISTER SET TO -2D OR -10D ACCORDING TO WHETHER THE EARTH OR MOON,
000108:                                                                                                  #                *              *RESPECTIVELY, IS THE CENTRAL BODY
000109:                                                                                                  #        TAU.    * +28          *DESIRED TRANSFER TIME IN CENTISECONDS (DP)
000110:                                                                                                  #                *              *    MAY BE POS OR NEG AND ABSOLUTE VALUE MAY BE GREATER OR LESS THAN ONE ORBITAL PERIOD.
000111:                                                                                                  #        XKEPNEW * +17 FOR EARTH*DP GUESS OF ROOT X OF KEPLERS EQN IN SQRT(METERS).  SIGN SHOULD AGREE WITH THAT OF TAU.
000112:                                                                                                  #                * +16 FOR MOON *    AND ABS VALUE SHOULD BE LESS THAN THAT CORRESPONDING TO A PERIOD, VIZ, 2PI SQRT(SEMI-
000113:                                                                                                  #                *              *    MAJOR AXIS), FOR SPEED OF CONVERGENCE, BUT IF EITHER CONDITION FAILS, XKEPNEW IS RESET
000114:                                                                                                  #                *              *    BY KEPLER TO A POOR BUT VALID GUESS.
000115:                                                                                                  #        TC      * +28          *DP PREV. VALUE OF TIME IN CENTISECS.  MUST BE LESS THAN ONE ORBITAL PERIOD.
000116:                                                                                                  #        XPREV   * +17 FOR EARTH*DP PREV. VALUE OF X IN SQRT(METERS).  MUST BE LESS THAN AN X CORRESPONDING TO ONE
000117:                                                                                                  #                * +16 FOR MOON *    ORBITAL PERIOD, VIZ, 2PI SQRT(SEMI-MAJOR AXIS)
000118:
000119:                                                                                                  #  SUBROUTINES CALLED -
000120:                                                                                                  #        DELTIME
000121:
000122:                                                                                                  #  CALLING SEQUENCE AND NORMAL EXIT MODES -
000123:                                                                                                  #        KEPRTN-2        GOTO                    MUST BE IN INTERPRETIVE MODE BUT OVFIND ARBITRARY.
000124:                                                                                                  #        KEPRTN-1                KEPLER          RETURNS WITH XPREV IN MPAC.  PL IS AT 0.
000125:                                                                                                  #        KEPRTN          ...                     CONTINUE
000126:
000127:                                                                                                  #        KEPLER MUST NOT BE CALLED DIRECTLY SINCE AN INTERRUPTION OF IT WOULD DESTROY THE ERASABLES IT NEEDS TO COMPLETE
000128:                                                                                                  #        THE INTERRUPTED JOB.  THEREFORE THE USER MUST CALL CSMCONIC OR LEMCONIC WHICH GUARANTEES NO INTERRUPTS AND WHICH
000129:                                                                                                  #        ALSO CALLS KEPPREP TO COMPUTE A GUESS OF XKEPNEW.
000130:
000131:                                                                                                  #  ABORT EXIT MODES -
000132:                                                                                                  #        NONE
000133:
000134:                                                                                                  #  OUTPUT -
000135:                                                                                                  #                * SCALE FACTOR *
000136:                                                                                                  #        VARIABLE*IN POWERS OF 2*                         DESCRIPTION AND REMARKS
000137:                                                                                                  #        --------*--------------*                         -----------------------
000138:                                                                                                  #        RCV     * +29 FOR EARTH*DP TERMINAL POSITION VECTOR IN METERS
000139:                                                                                                  #                * +27 FOR MOON *
000140:                                                                                                  #        VCV     * +7 FOR EARTH *DP TERMINAL VELOCITY VECTOR IN METERS/CENTISEC
000141:                                                                                                  #                * +5 FOR MOON  *
000142:                                                                                                  #        TC      * +28          *DP TRANSFER TIME IN CENTISECS TO WHICH KEPLER CONVERGED.  ALWAYS LESS THAN ONE PERIOD.
000143:                                                                                                  #        XPREV   * +17 FOR EARTH*DP VALUE OF X IN SQRT(METERS) TO WHCIH KEPLER CONVERGED.  ALWAYS LESS THAN THE X
000144:                                                                                                  #                * +16 FOR MOON *    CORRESPONDING TO ONE PERIOD.


000146:                                                                                                  #        FOR OTHER OUTPUT WHICH MAY BE OF USE, SEE DEBRIS.
000147:
000148:                                                                                                  #  DEBRIS -
000149:
000150:                                                                                                  #        PARAMETERS WHICH MAY BE OF USE -
000151:
000152:                                                                                                  #                * SCALE FACTOR *
000153:                                                                                                  #        VARIABLE*IN POWERS OF 2*                         DESCRIPTION AND REMARKS
000154:                                                                                                  #        --------*--------------*                         -----------------------
000155:                                                                                                  #        URRECT  * +1           *DP UNIT VECTOR OF INITIAL POSITION
000156:                                                                                                  #        R1      * +29 FOR EARTH*DP MAGNITUDE OF INITIAL POSITION IN METERS
000157:                                                                                                  #                * +27 FOR MOON *
000158:                                                                                                  #        ALPHA   * -22 FOR EARTH*DP INVERSE OF SEMIMAJOR AXIS IN 1/METERS
000159:                                                                                                  #                * -20 FOR MOON *
000160:                                                                                                  #        TMODULO * +28          *DP INTEGRAL NUMBER OF PERIODS IN CENTISECS.  WHICH WAS SUBTRACTED FROM TAU. TO PRODUCE A
000161:                                                                                                  #                *              *TAU. OF LESS THAN ONE PERIOD.
000162:
000163:                                                                                                  #  PARAMETERS OF NO USE -
000164:                                                                                                  #        DP PARAMETERS - EPSILONT, DELX, DELT, RCNORM, XMODULO, PLUS PUSHLIST REGISTERS 0 THROUGH 39D.
000165:


000167:                                                                                                  #  PROGRAM DESCRIPTION - LAMBERT SUBROUTINE                      DATE - 1 SEPTEMBER 1967
000168:                                                                                                  #  MOD NO. - 0                                                   LOG SECTION - CONIC SUBROUTINES
000169:                                                                                                  #  MOD BY KRAUSE                                                 ASSEMBLY - COLOSSUS REVISION 88
000170:
000171:                                                                                                  #  FUNCTIONAL DESCRIPTION -
000172:                                                                                                  #        THIS SUBROUTINE CALCULATES THE INITIAL VELOCITY REQUIRED TO TRANSFER A POINT-MASS ALONG A CONIC TRAJECTORY
000173:                                                                                                  #        FROM AN INITIAL POSITION TO A TERMINAL POSITION IN A PRESCRIBED TIME INTERVAL.  THE RESULTING TRAJECTORY MAY BE
000174:                                                                                                  #        A SECTION OF A CIRCLE, ELLIPSE, PARABOLA, OR HYPERBOLA WITH RESPECT TO THE EARTH OR THE MOON.  THE USE OF THE
000175:                                                                                                  #        SUBROUTINE CAN BE EXTENDED USING OTHER PRIMARY BODIES BY SIMPLE ADDITIONS TO THE MUTABLE WITHOUT INTRODUCING ANY
000176:                                                                                                  #        CODING CHANGES, ACCEPTING THE INHERENT SCALE FACTOR CHANGES IN POSITION AND VELOCITY.  AN ITERATION TECHNIQUE IS
000177:                                                                                                  #        UTILIZED IN THE COMPUTATION.
000178:
000179:                                                                                                  #  THE RESTRICTIONS ARE -
000180:                                                                                                  #        1. RECTILINEAR TRAJECTORIES CANNOT BE COMPUTED.
000181:                                                                                                  #        2. AN ACCURACY DEGRADATION OCCURS AS THE COSINE OF THE TRUE ANOMALY DIFFERENCE APPROACHES +1.0.
000182:                                                                                                  #        3. THE ANGLE BETWEEN ANY POSITION VECTOR AND ITS VELOCITY VECTOR MUST BE GREATER THAN 1 DEGREE 47.5 MINUTES
000183:                                                                                                  #           AND LESS THAN 178 DEGREES 12.5 MINUTES.
000184:                                                                                                  #        4. NEGATIVE TRANSFER TIME IS AMBIGUOUS AND WILL RESULT IN NO SOLUTION.
000185:                                                                                                  #        5. THE PARAMETERS IN THE PROBLEM MUST NOT EXCEED THEIR SCALING LIMITS SPECIFIED IN THE GSOP.  IF THE
000186:                                                                                                  #           LIMITS ARE EXCEEDED, THE RESULTING SOLUTION WILL BE MEANINGLESS.
000187:
000188:                                                                                                  #        THE NUMBER OF ITERATIONS AND, THEREFORE, THE COMPUTATIONS SPEED IS DEPENDENT ON THE ACCURACY OF THE FIRST
000189:                                                                                                  #        GUESS OF THE INDEPENDENT VARIABLE, COGA.                           THE AGC COMPUTATION TIME IS APPROXIMATE-
000190:                                                                                                  #        LY .105 SECONDS FOR INITIALIZATION, .069 SECONDS FOR FINAL COMPUTATIONS, PLUS .205 SECONDS FOR EACH ITERATION.
000191:


000193:                                                                                                  #  REFERENCES -
000194:                                                                                                  #        R-479, MISSION PROGRAMMING DEFINITION MEMO NO. 10, LUNAR LANDING MISSION GSOP - SECTION 5.5, SGA MEMO 67-8,
000195:                                                                                                  #        SGA MEMO 67-4.
000196:
000197:                                                                                                  #  INPUT - ERASABLE INITIALIZATION REQUIRED
000198:
000199:                                                                                                  #                * SCALE FACTOR *
000200:                                                                                                  #        VARIABLE*IN POWERS OF 2*                         DESCRIPTION AND REMARKS
000201:                                                                                                  #        --------*--------------*                         -----------------------
000202:                                                                                                  #        R1VEC   * +29 FOR EARTH*DP INITIAL POSITION VECTOR IN METERS
000203:                                                                                                  #                * +27 FOR MOON *
000204:                                                                                                  #        R2VEC   * +29 FOR EARTH*DP TARGET OR TERMINAL POSITION VECTOR IN METERS
000205:                                                                                                  #                * +27 FOR MOON *
000206:                                                                                                  #        TDESIRED* +28          *DP DESIRED TRANSFER TIME IN CENTISECONDS
000207:                                                                                                  #        X1 (38D)* NONE         *INDEX REGISTER SET TO -2D OR -10D ACCORDING TO WHETHER THE EARTH OR MOON,
000208:                                                                                                  #                *              *RESPECTIVELY, IS THE CENTRAL BODY
000209:                                                                                                  #        GEOMSGN * NONE         *SP +.5 IF DESIRED TRANSFER ANGLE IS LESS THAN 180 DEGREES, -.5 IF GREATER THAN 180 DEG.
000210:                                                                                                  #        GUESSW  * NONE         *AN INTERPRETER SWITCH TO BE SET IF NO GUESS OF COGA IS AVAILABLE, CLEAR IF A GUESS OF


000212:                                                                                                  #                *              *COGA IS TO BE USED BY LAMBERT
000213:                                                                                                  #        COGA    * +5           *DP GUESS OF COTANGNT OF FLIGHT PATH ANGLE (MEASURED FROM VERTICAL).  THIS WILL BE
000214:                                                                                                  #                               *IGNORED IF GUESSW IS SET.
000215:                                                                                                  #        NORMSW  * NONE         *AN INTERPRETER SWITCH TO BE SET IF UN IS TO BE AN INPUT TO THE SUBROUTINE, CLEAR IF
000216:                                                                                                  #                *              *LAMBERT IS TO COMPUTE ITS OWN NORMAL (UN).
000217:                                                                                                  #        UN      * +1           *DP UNIT NORMAL TO THE DESIRED ORBIT PLANE IN THE DIRECTION OF THE RESULTING ANGULAR
000218:                                                                                                  #                *              *MOMENTUM VECTOR.  THIS WILL BE IGNORED IF NORMSW IS CLEAR.
000219:                                                                                                  #        VTARGTAG* NONE         *A S.P. TAG TO BE SET TO ZERO IF LAMBERT IS TO COMPUTE THE VELOCITY AT R2VEC AS WELL AS
000220:                                                                                                  #                *              *AT R1VEC.
000221:                                                                                                  #        ITERCTR * NONE         *A S.P. COUNTER WHICH SPECIFIES THE MAXIMUM NUMBER OF ITERATIONS ALLOWABLE.
000222:                                                                                                  #                *              *(AN ITERATION MEANS A PASS THRU KEPLER EQN (DELTIME).  AT LEAST ONE OF THESE MUST
000223:                                                                                                  #                *              *ALWAYS OCCUR, EVEN IF COGA CORRESPONDING TO SOLUTION WERE INPUT AS A GUESS.)
000224:                                                                                                  #                *              *TWENTY ITERATIONS ARE SUFFICIENT TO SOLVE ALL PROBLEMS INCLUDING THOSE WITHOUT GUESS.
000225:
000226:                                                                                                  #  SUBROUTINES CALLED -
000227:                                                                                                  #        GEOM, GETX, DELTIME, ITERATOR, LAMENTER (PART OF NEWSTATE)
000228:
000229:                                                                                                  #  CALLING SEQUENCE AND NORMAL EXIT MODES -
000230:                                                                                                  #        L       CALL                    MUST BE IN INTERPRETIVE MODE BUT OVFIND ARBITRARY.
000231:                                                                                                  #        L+1             LAMBERT         RETURNS WITH PL AT 0 AND WITH VVEC IN MPAC IF VTARGTAG WAS NON-ZERO OR VTARGET
000232:                                                                                                  #                                        IN MPAC IF VTARGTAG WAS ZERO
000233:                                                                                                  #        L+2     BON                     CONTINUE IF SOLNSW CLEAR SINCE SOLUTION IS ACCEPTABLE
000234:                                                                                                  #        L+3             SOLNSW
000235:                                                                                                  #        L+4             LAMABORT
000236:
000237:                                                                                                  #        IF A LAMBERT RESULT IS TO BE A FIRST GUESS FOR THE NEXT LAMBERT CALCULATION, COGA MUST BE PRESERVED AND
000238:                                                                                                  #        GUESSW MUST BE CLEAR FOR EACH SUCCEEDING LAMBERT CALL.
000239:
000240:                                                                                                  #  ABORT EXIT MODES -
000241:                                                                                                  #        IF SOLNSW WAS SET UPON EXITING, EITHER LAMBERT WAS ASKED TO COMPUTE A TRANSFER TOO NEAR 0 OR 360 DEG, OR T
000242:                                                                                                  #        WAS TOO SMALL TO PRODUCE A REALISTIC TRANSFER BETWEEN R1VEC AND R2VEC.  IN EITHER CASE THE FIX MUST BE MADE
000243:                                                                                                  #        ACCORDING TO THE NEEDS OF THE PARTICULAR USER.  THE ABORT EXIT MODE MAY BE CODED AS ...
000244:                                                                                                  #        LAMABORT        DLOAD   ABS             A MEASURE OF PROXIMITY TO 0 OR
000245:                                                                                                  #                                1-CSTH          360 DEGREES.
000246:                                                                                                  #                        DSU     BMN
000247:                                                                                                  #                                ONEBIT
000248:                                                                                                  #                                CHANGER2        CHANGE R2VEC DIRECTION SLIGHTLY.
000249:                                                                                                  #                        DLOAD   DAD
000250:                                                                                                  #                                TDESIRED
000251:                                                                                                  #                                SOMETIME
000252:                                                                                                  #                        STCALL  TDESIRED        INCREASE TDESIRED
000253:                                                                                                  #                                LAMBERT
000254:


000256:                                                                                                  #  OUTPUT -
000257:                                                                                                  #                * SCALE FACTOR *
000258:                                                                                                  #        VARIABLE*IN POWERS OF 2*                         DESCRIPTION AND REMARKS
000259:                                                                                                  #        --------*--------------*                         -----------------------
000260:                                                                                                  #        VVEC    * +7 FOR EARTH *DP INITIAL VELOCITY VECTOR IN METERS/CENTISECOND REQUIRED TO SATISFY THE BOUNDARY VALUE
000261:                                                                                                  #                * +5 FOR MOON  *PROBLEM.
000262:                                                                                                  #        VTARGET * +7 FOR EARTH *DP RESULTANT VELOCITY VECTOR AT R2VEC IN METERS/CENTISECOND.
000263:                                                                                                  #                * +5 FOR MOON  *
000264:                                                                                                  #        SOLNSW  * NONE         *INTERPRETER SWITCH WHICH IS SET IF THE SUBROUTINE CANNOT SOLVE THE PROBLEM, CLEAR IF THE
000265:                                                                                                  #                *              *SOLUTION EXISTS.
000266:
000267:                                                                                                  #        FOR OTHER OUTPUT WHICH MAY BE OF USE, SEE DEBRIS.
000268:
000269:                                                                                                  #  DEBRIS -
000270:                                                                                                  #        PARAMETERS WHICH MAY BE OF USE -
000271:                                                                                                  #                * SCALE FACTOR *
000272:                                                                                                  #        VARIABLE*IN POWERS OF 2*                         DESCRIPTION AND REMARKS
000273:                                                                                                  #        --------*--------------*                         -----------------------
000274:                                                                                                  #        SNTH    * +1           *DP SIN OF ANGLE BETWEEN R1VEC AND R2VEC
000275:                                                                                                  #        CSTH    * +1           *DP COSINE OF ANGLE
000276:                                                                                                  #        1-CSTH  * +2           *DP 1-CSTH
000277:                                                                                                  #        COGA    * +5           *DP COTAN OF INITIAL REQUIRED FLIGHT PATH ANGLE MEASURED FROM VERTICAL
000278:                                                                                                  #        P       * +4           *DP RATIO OF SEMILATUS RECTUM TO INITIAL RADIUS
000279:                                                                                                  #        R1A     * +6           *DP RATIO OF INITIAL RADIUS TO SEMIMAJOR AXIS
000280:                                                                                                  #        R1 (32D)* +29 FOR EARTH*DP INITIAL RADIUS IN METERS
000281:                                                                                                  #                * +27 FOR MOON *
000282:                                                                                                  #        UR1     * +1           *DP UNIT VECTOR OF R1VEC
000283:                                                                                                  #        U2      * +1           *DP UNIT VECTOR OF R2VEC
000284:
000285:                                                                                                  #        PARAMETERS OF NO USE
000286:                                                                                                  #                DP PARAMETERS - EPSILONL, CSTH-RHO, TPREV, TERRLAMB, R2, RTNLAMB (SP), PLUS PUSHLIST REGISTER 0 THROUGH 41D
000287:                                                                                                  #                ADDITIONAL INTERPRETIVE SWITCHES USED - INFINFLG, 360SW, SLOPESW, ORDERSW
000288:


000290:                                                                                                  #  PROGRAM DESCRIPTION - TIME-THETA SUBROUTINE                   DATE - 1 SEPTEMBER 1967
000291:                                                                                                  #  MOD NO. - 0                                                   LOG SECTION - CONIC SUBROUTINES
000292:                                                                                                  #  MOD BY KRAUSE                                                 ASSEMBLY - COLOSSUS REVISION 88
000293:
000294:                                                                                                  #  FUNCTIONAL DESCRIPTION -
000295:                                                                                                  #        THIS SUBROUTINE, GIVEN AN INITIAL STATE VECTOR AND A DESIRED TRUE-ANOMALY-DIFFERENCE THROUGH WHICH THE
000296:                                                                                                  #        STATE IS TO BE UPDATED ALONG A CONIC TRAJECTORY, CALCULATES THE CORRESPONDING TIME-OF-FLIGHT AND, IN ADDITION,
000297:                                                                                                  #        PROVIDES THE OPTION OF COMPUTING THE NEW UPDATED STATE VECTOR.  THE RESULTING TRAJECTORY MAY BE A SECTION OF A
000298:                                                                                                  #        CIRCLE, ELLIPSE, PARABOLA, OR HYPERBOLA WITH RESPECT TO THE EARTH OR THE MOON.  THE USE OF THE SUBROUTINE CAN BE
000299:                                                                                                  #        EXTENDED USING OTHER PRIMARY BODIES BY SIMPLE ADDITIONS TO THE MUTABLE WITHOUT INTRODUCING ANY CODING CHANGES,
000300:                                                                                                  #        ACCEPTING THE INHERENT SCALE FACTOR CHANGES IN POSITION AND VELOCITY.
000301:
000302:                                                                                                  #  THE RESTRICTIONS ARE -
000303:                                                                                                  #        1. THE ANGLE BETWEEN ANY POSITION VECTOR AND ITS VELOCITY VECTOR MUST BE GREATER THAN 1 DEGREE 47.5 MINUTES
000304:                                                                                                  #           AND LESS THAN 178 DEGREES 12.5 MINUTES.
000305:                                                                                                  #        2. THE PARAMETERS IN THE PROBLEM MUST NOT EXCEED THEIR SCALING LIMITS SPECIFIED IN THE GSOP.  IF THE LIMITS
000306:                                                                                                  #           ARE EXCEEDED, THE RESULTING SOLUTION WILL BE MEANINGLESS.
000307:
000308:                                                                                                  #        THE AGC COMPUTATION TIME IS APPROXIMATELY .292 SECONDS.
000309:


000311:                                                                                                  #  REFERENCES -
000312:                                                                                                  #        R-479, MISSION PROGRAMMING DEFINITION MEMO NO. 10, LUNAR LANDING MISSION GSOP-SECTION 5.5, SGA MEMO 67-8.
000313:
000314:                                                                                                  #  INPUT - ERASABLE INITIALIZATION REQUIRED
000315:                                                                                                  #                * SCALE FACTOR *
000316:                                                                                                  #        VARIABLE*IN POWERS OF 2*                         DESCRIPTION AND REMARKS
000317:                                                                                                  #        --------*--------------*                         -----------------------
000318:                                                                                                  #        RVEC    * +29 FOR EARTH*DP INITIAL POSITION VECTOR IN METERS
000319:                                                                                                  #                * +27 FOR MOON *
000320:                                                                                                  #        VVEC    * +7 FOR EARTH *DP INITIAL VELOCITY VECTOR IN METERS/CENTISECOND
000321:                                                                                                  #                * +5 FOR MOON  *
000322:                                                                                                  #        SNTH    * +1           *DP SINE OF TRUE-ANOMALY-DIFFERENCE THROUGH WHICH THE STATE IS TO BE UPDATED
000323:                                                                                                  #        CSTH    * +1           *DP COSINE OF THE ANGLE
000324:                                                                                                  #        RVSW    * NONE         *AN INTERPRETIVE SWITCH TO BE SET IF ONLY TIME IS TO BE AN OUTPUT, CLEAR IF THE NEW STATE
000325:                                                                                                  #                *              *IS TO BE COMPUTED ALSO.
000326:                                                                                                  #        X1 (38D)* NONE         *INDEX REGISTER TO BE SET TO -2D OR -10D ACCORDING TO WHETHER THE EARTH OR MOON,
000327:                                                                                                  #                *              *RESPECTIVELY, IS THE CENTRAL BODY.
000328:
000329:                                                                                                  #  SUBROUTINES CALLED -


000331:                                                                                                  #        PARAM, GEOM, GETX, DELTIME, NEWSTATE
000332:
000333:                                                                                                  #  CALLING SEQUENCE AND NORMAL EXIT MODES -
000334:                                                                                                  #        IF ONLY TIME IS DESIRED AS OUTPUT -
000335:                                                                                                  #        L       SET     CALL            MUST BE IN INTERPRETIVE MODE BUT OVFIND ARBITRARY.
000336:                                                                                                  #        L+1             RVSW
000337:                                                                                                  #        L+2             TIMETHET        RETURN WITH PL AT 0 AND T IN MPAC
000338:                                                                                                  #        L+3     ...                     CONTINUE
000339:
000340:                                                                                                  #        IF THE UPDATE STATE VECTOR IS DESIRED AS WELL -
000341:                                                                                                  #        L       CLEAR   CALL            MUST BE IN INTERPRETIVE MODE BUT OVFIND ARBITRARY.
000342:                                                                                                  #        L+1             RVSW
000343:                                                                                                  #        L+2             TIMETHET        RETURNS WITH PL AT 6.  THE INITIAL POSITION VECTOR IS IN 0D OF THE PUSHLIST AND
000344:                                                                                                  #                                        THE INITIAL VELOCITY VECTOR IN MPAC.
000345:                                                                                                  #        L+3     STOVL   NEWVVEC
000346:                                                                                                  #        L+4     STADR
000347:                                                                                                  #        L+5     STORE   NEWRVEC         NEWVVEC AND NEWRVEC ARE SYMBOLIC REPRESENTATIONS OF THE USERS LOCATIONS.
000348:                                                                                                  #        L+6     ...                     CONTINUE
000349:
000350:                                                                                                  #  ABORT EXIT MODES -
000351:                                                                                                  #        IF COGAFLAG AND/OR INFINFLG IS SET AT THE EXIT TO TIME-THETA, TIME-THETA WILL TRANSFER TO POODOO WITH
000352:                                                                                                  #        AN ALARM CODE (ORIGINALLY 00607), AND NOT RETURN TO THE CALLING PROGRAM.  (PCR 692 AND 721).
000353:
000354:                                                                                                  #  OUTPUT -
000355:                                                                                                  #                * SCALE FACTOR *
000356:                                                                                                  #        VARIABLE*IN POWERS OF 2*                         DESCRIPTION AND REMARKS
000357:                                                                                                  #        --------*--------------*                         -----------------------
000358:                                                                                                  #        T(30D)  * +28          *DP TRANSFER TIME IN CENTISECONDS
000359:                                                                                                  #        INFINFLG* NONE         *AN INTERPRETIVE SWITCH WHICH IS SET IF THE TRANSFER ANGLE REQUIRES CLOSURE THROUGH
000360:                                                                                                  #                *              *INFINITY (NO SOLUTION), CLEAR IF A PHYSICAL SOLUTION IS POSSIBLE.
000361:                                                                                                  #        COGAFLAG* NONE         *AN INTERPRETIVE SWITCH WHICH IS SET IF RESTRICTION 1 HAS BEEN VIOLATED (NO SOLUTION),
000362:                                                                                                  #                *              *CLEAR IF NOT.
000363:
000364:                                                                                                  #        IN ADDITION, IF RVSW IS CLEAR, THE FOLLOWING ARE OUTPUT -
000365:
000366:                                                                                                  #        MPAC -  * +7 FOR EARTH *DP TERMINAL VELOCITY VECTOR IN METERS/CENTISEC.
000367:                                                                                                  #         MPAC +5* +5 FOR MOON  *
000368:                                                                                                  #        0D - 5D * +29 FOR EARTH*DP TERMINAL POSITION VECTOR IN METERS (PL AT 6D)
000369:                                                                                                  #                * +27 FOR MOON *
000370:
000371:                                                                                                  #        FOR OTHER OUTPUT WHICH MAY BE OF USE, SEE DEBRIS.
000372:


000374:                                                                                                  #  DEBRIS -
000375:                                                                                                  #        PARAMETERS WHICH MAY BE OF USE -
000376:                                                                                                  #                * SCALE FACTOR *
000377:                                                                                                  #        VARIABLE*IN POWERS OF 2*                         DESCRIPTION AND REMARKS
000378:                                                                                                  #        --------*--------------*                         -----------------------
000379:                                                                                                  #        R1 (32D)* +29 FOR EARTH*DP MAGNITUDE OF INITIAL POSITION VECTOR, RVEC, IN METERS
000380:                                                                                                  #                * +27 FOR MOON *
000381:                                                                                                  #        R1A     * +6           *DP RATIO OF R1 TO SEMIMAJOR AXIS (NEG. FOR HYPERBOLIC TRAJECTORIES)
000382:                                                                                                  #        P       * +4           *DP RATIO OF SEMILATUS RECTUM TO R1
000383:                                                                                                  #        COGA    * +5           *DP COTAN OF ANGLE BETWEEN RVEC AND VVEC
000384:                                                                                                  #        UR1     * +1           *DP UNIT VECTOR OF RVEC
000385:                                                                                                  #        U2      * +1           *DP UNIT VECTOR OF VVEC
000386:                                                                                                  #        UN      * +1           *DP UNIT VECTOR OF UR1*U2
000387:
000388:                                                                                                  #  PARAMETERS OF NO USE -
000389:                                                                                                  #        SP PARAMETERS - RTNTT, GEOMSGN, RTNPRM, MAGVEC2=R2 (DP), PLUS PUSHLIST LOCATIONS 0-11D, 14D-21D, 24D-39D, 41D
000390:                                                                                                  #        ADDITIONAL INTERPRETIVE SWITCHES USED - NORMSW, 360SW
000391:


000393:                                                                                                  #  PROGRAM DESCRIPTION - TIME-RADIUS SUBROUTINE          DATE - 11 OCTOBER 1967
000394:                                                                                                  #  MOD NO. -1                                            LOG SECTION - CONIC SUBROUTINES
000395:                                                                                                  #  MOD BY KRAUSE                                         ASSEMBLY - COLOSSUS REVISION 88
000396:
000397:                                                                                                  #  FUNCTIONAL DESCRIPTION -
000398:                                                                                                  #        THIS SUBROUTINE, GIVEN AN INITIAL STATE VECTOR AND A DESIRED RADIUS TO WHICH THE
000399:                                                                                                  #        STATE IS TO BE UPDATED ALONG A CONIC TRAJECTORY, CALCULATES THE CORRESPONDING TIME-OF-FLIGHT AND, IN ADDITION,
000400:                                                                                                  #        PROVIDES THE OPTION OF COMPUTING THE NEW UPDATED STATE VECTOR.  THE RESULTING TRAJECTORY MAY BE A SECTION OF A
000401:                                                                                                  #        CIRCLE, ELLIPSE, PARABOLA, OR HYPERBOLA WITH RESPECT TO THE EARTH OR THE MOON.  THE USE OF THE SUBROUTINE CAN BE
000402:                                                                                                  #        EXTENDED USING OTHER PRIMARY BODIES BY SIMPLE ADDITIONS TO THE MUTABLE WITHOUT INTRODUCING ANY CODING CHANGES,
000403:                                                                                                  #        ACCEPTING THE INHERENT SCALE FACTOR CHANGES IN POSITION AND VELOCITY.
000404:
000405:                                                                                                  #        IF THE DESIRED RADIUS IS BEYOND THE RADIUS OF APOCENTER OF THE CONIC OR BELOW THE RADIUS OF PERICENTER,
000406:                                                                                                  #        APSESW WILL BE SET AND THE SUBROUTINE WILL RETURN THE APOCENTER OR PERICENTER SOLUTION, RESPECTIVELY.
000407:
000408:                                                                                                  #  THE RESTRICTIONS ARE -
000409:                                                                                                  #        1. THE ANGLE BETWEEN ANY POSITION VECTOR AND ITS VELOCITY VECTOR MUST BE GREATER THAN 1 DEGREE 47.5 MINUTES
000410:                                                                                                  #           AND LESS THAN 178 DEGREES 12.5 MINUTES.
000411:                                                                                                  #        2. THE PARAMETERS IN THE PROBLEM MUST NOT EXCEED THEIR SCALING LIMITS SPECIFIED IN THE GSOP.  IF THE LIMITS
000412:                                                                                                  #           ARE EXCEEDED, THE RESULTING SOLUTION WILL BE MEANINGLESS.
000413:                                                                                                  #        3. AN ACCURACY DEGRADATION OCCURS AS THE SENSITIVITIES OF TIME AND UPDATED STATE VECTOR TO CHANGES IN
000414:                                                                                                  #           RDESIRED INCREASE.  THIS WILL OCCUR NEAR EITHER APSIS OF THE CONIC AND WHEN THE CONIC IS NEARLY CIRCULAR.  IN
000415:                                                                                                  #           PARTICULAR, IF THE CONIC IS AN EXACT CIRCLE, THE PROBLEM IS UNDEFINED AND THE SUBROUTINE WILL ABORT.
000416:
000417:                                                                                                  #        THE AGC COMPUTATION TIME IS APPROXIMATELY .363 SECONDS
000418:


000420:                                                                                                  #  REFERENCES -
000421:                                                                                                  #        R-479, MISSION PROGRAMMING DEFINITION MEMO NO. 10, LUNAR LANDING MISSION GSOP-SECTION 5.5, SGA MEMO 67-8.
000422:
000423:                                                                                                  #  INPUT - ERASABLE INITIALIZATION REQUIRED
000424:                                                                                                  #                * SCALE FACTOR *
000425:                                                                                                  #        VARIABLE*IN POWERS OF 2*                         DESCRIPTION AND REMARKS
000426:                                                                                                  #        --------*--------------*                         -----------------------
000427:                                                                                                  #        RVEC    * +29 FOR EARTH*DP INITIAL POSITION VECTOR IN METERS
000428:                                                                                                  #                * +27 FOR MOON *
000429:                                                                                                  #        VVEC    * +7 FOR EARTH *DP INITIAL VELOCITY VECTOR IN METERS/CENTISECOND
000430:                                                                                                  #                * +5 FOR MOON  *
000431:                                                                                                  #        RDESIRED* +29 FOR EARTH*DP TERMINAL RADIAL DISTANCE ON CONIC TRAJECTORY FOR WHICH TRANSFER TIME IS TO BE
000432:                                                                                                  #                * +27 FOR MOON *COMPUTED.
000433:                                                                                                  #        SGNRDOT * NONE         *SP TAG SET TO +.5 OR -.5 ACCORDING TO WHETHER THE RADIAL VELOCITY AT RDESIRED IS TO BE
000434:                                                                                                  #                *              *POSITIVE OR NEGATIVE, RESPECTIVELY.   THIS TAG REDUCES THE DOUBLE-VALUED PROBLEM TO A


000436:                                                                                                  #                *              *SINGLE-VALUED PROBLEM.
000437:                                                                                                  #        X1 (38D)*       NONE   *INDEX REGISTER TO BE SET TO -2D OR -10D ACCORDING TO WHETHER THE EARTH OR MOON,
000438:                                                                                                  #                *              *RESPECTIVELY, IS THE CENTRAL BODY.
000439:                                                                                                  #        RVSW    *       NONE   *AN INTERPRETIVE SWITCH TO BE SET IF ONLY TIME IS TO BE AN OUTPUT, CLEAR IF THE NEW STATE
000440:                                                                                                  #                *              *IS TO BE COMPUTED ALSO.
000441:
000442:                                                                                                  #  SUBROUTINES CALLED -
000443:                                                                                                  #        PARAM, GEOM, GETX, DELTIME, NEWSTATE
000444:
000445:                                                                                                  #  CALLING SEQUENCE AND NORMAL EXIT MODES -
000446:                                                                                                  #        IF ONLY TIME IS DESIRED AS OUTPUT -
000447:                                                                                                  #        L       SET     CALL            MUST BE IN INTERPRETIVE MODE BUT OVFIND ARBITRARY.
000448:                                                                                                  #        L+1             RVSW
000449:                                                                                                  #        L+2             TIMERAD         RETURN WITH PL AT 0 AND T IN MPAC
000450:                                                                                                  #        L+3     ...                     CONTINUE
000451:
000452:                                                                                                  #        IF THE UPDATE STATE VECTOR IS DESIRED AS WELL -
000453:                                                                                                  #        L       CLEAR   CALL            MUST BE IN INTERPRETIVE MODE BUT OVFIND ARBITRARY.
000454:                                                                                                  #        L+1             RVSW
000455:                                                                                                  #        L+2             TIMERAD         RETURNS WITH PL AT 6.  THE INITIAL POSITION VECTOR IS IN 0D OF THE PUSHLIST AND
000456:                                                                                                  #                                        THE INITIAL VELOCITY VECTOR IN MPAC.
000457:                                                                                                  #        L+3     STOVL   NEWVVEC
000458:                                                                                                  #        L+4     STADR
000459:                                                                                                  #        L+5     STORE   NEWRVEC         NEWVVEC AND NEWRVEC ARE SYMBOLIC REPRESENTATIONS OF THE USERS LOCATIONS.
000460:                                                                                                  #        L+6     ...                     CONTINUE
000461:
000462:                                                                                                  #  ABORT EXIT MODES -
000463:                                                                                                  #        IF SOLNSW AND/OR COGAFLAG AND/OR INFINFLG IS SET AT THE EXIT TO TIME-RADIUS, TIME-RADIUS WILL TRANSFER
000464:                                                                                                  #        TO POODOO WITH AN ALARM CODE (ORIGINALLY 00607), AND NOT RETURN TO THE CALLING PROGRAM. (PCR 692 & 721)
000465:
000466:                                                                                                  #  OUTPUT -
000467:                                                                                                  #                * SCALE FACTOR *
000468:                                                                                                  #        VARIABLE*IN POWERS OF 2*                         DESCRIPTION AND REMARKS
000469:                                                                                                  #        --------*--------------*                         -----------------------
000470:                                                                                                  #        T (30D) * +28          *DP TRANSFER TIME IN CENTISECONDS
000471:                                                                                                  #        INFINFLG* NONE         *AN INTERPRETIVE SWITCH WHICH IS SET IF RDESIRED AND SGNRDOT REQUIRE CLOSURE THROUGH
000472:                                                                                                  #                *              *INFINITY (NO SOLUTION), CLEAR IF A PHYSICAL SOLUTION IS POSSIBLE.
000473:                                                                                                  #        COGAFLAG* NONE         *AN INTERPRETIVE SWITCH WHICH IS SET IF RESTRICTION 1 HAS BEEN VIOLATED (NO SOLUTION),
000474:                                                                                                  #                *              *CLEAR IF NOT.
000475:                                                                                                  #        APSESW  * NONE         *AN INTERPRETIVE SWITCH WHICH IS SET IF RDESIRED WAS GREATER THAN RADIUS OF APOCENTER OR


000477:                                                                                                  #                *              *LESS THAN RADIUS OF PERICENTER.  THE APOCENTER OR PERICENTER SOLUTION, RESPECTIVELY,
000478:                                                                                                  #                *              *WILL THEN BE RETURNED.  THE SWITCH IS CLEAR IF RDESIRED WAS BETWEEN PERICENTER AND
000479:                                                                                                  #                *              *APOCENTER.
000480:                                                                                                  #        SOLNSW  * NONE         *AN INTERPRETIVE SWITCH WHICH IS SET IF THE CONIC IS SO CLOSE TO A CIRCLE THAT THE TERMIN
000481:                                                                                                  #                               *POINT IS AMBIGUOUS, VIOLATING RESTRICTION 3.  IF ECCENTRICITY IS GREATER THAN 2-TO-THE-
000482:                                                                                                  #                               *MINUS-18, THE SWITCH IS CLEAR.
000483:
000484:                                                                                                  #        IN ADDITION, IF RVSW IS CLEAR, THE FOLLOWING ARE OUTPUT -
000485:                                                                                                  #        MPAC -  * +7 FOR EARTH *DP TERMINAL VELOCITY VECTOR IN METERS/CENTISEC.
000486:                                                                                                  #         MPAC +5* +5 FOR MOON  *
000487:                                                                                                  #        0D - 5D * +29 FOR EARTH*DP TERMINAL POSITION VECTOR IN METERS (PL AT 6D)
000488:                                                                                                  #                * +27 FOR MOON *
000489:
000490:                                                                                                  #        FOR OTHER OUTPUT WHICH MAY BE OF USE, SEE DEBRIS.
000491:
000492:                                                                                                  #  DEBRIS -
000493:                                                                                                  #        PARAMETERS WHICH MAY BE OF USE -
000494:                                                                                                  #                * SCALE FACTOR *
000495:                                                                                                  #        VARIABLE*IN POWERS OF 2*                         DESCRIPTION AND REMARKS
000496:                                                                                                  #        --------*--------------*                         -----------------------
000497:                                                                                                  #        R1 (32D)* +29 FOR EARTH*DP MAGNITUDE OF INITIAL POSITION VECTOR, RVEC, IN METERS
000498:                                                                                                  #                * +27 FOR MOON *
000499:                                                                                                  #        R1A     * +6           *DP RATIO OF R1 TO SEMIMAJOR AXIS (NEG. FOR HYPERBOLIC TRAJECTORIES)
000500:                                                                                                  #        P       * +4           *DP RATIO OF SEMILATUS RECTUM TO R1
000501:                                                                                                  #        COGA    * +5           *DP COTAN OF ANGLE BETWEEN RVEC AND VVEC
000502:                                                                                                  #        UR1     * +1           *DP UNIT VECTOR OF RVEC
000503:                                                                                                  #        U2      * +1           *DP UNIT VECTOR OF VVEC
000504:                                                                                                  #        UN      * +1           *DP UNIT VECTOR OF UR1*U2
000505:                                                                                                  #        CSTH    * +1           *DP COSINE OF TRUE ANOMALY DIFFERENCE BETWEEN RVEC AND RDESIRED.
000506:                                                                                                  #        SNTH    * +1           *DP SINE OF TRUE ANOMALY DIFFERENCE.
000507:
000508:                                                                                                  #        PARAMETERS OF NO USE -
000509:                                                                                                  #                SP PARAMETERS - RTNTT, GEOMSGN, RTNPRM, MAGVEC2=R2 (DP), PLUS PUSHLIST LOCATIONS 0-11D, 14D-21D, 24D-39D, 41D
000510:                                                                                                  #                ADDITIONAL INTERPRETIVE SWITCHES USED - NORMSW, 360SW
000511:
000512:


000514:                                                                                                  #  PROGRAM DESCRIPTION - APSIDES SUBROUTINE              DATE - 1 SEPTEMBER 1967
000515:                                                                                                  #  MOD NO. - 0                                           LOG SECTION - CONIC SUBROUTINES
000516:                                                                                                  #  MOD BY KRAUSE                                         ASSEMBLY - COLOSSUS REVISION 88
000517:
000518:                                                                                                  #  FUNCTIONAL DESCRIPTION -
000519:                                                                                                  #        THIS SUBROUTINE, GIVEN AN INITIAL STATE VECTOR CALCULATES THE RADIUS OF PERICENTER AND OF APOCENTER AND THE
000520:                                                                                                  #        ECCENTRICITY OF THE RESULTING CONIC TRAJECTORY, WHICH MAY BE A STRAIGHT LINE,
000521:                                                                                                  #        CIRCLE, ELLIPSE, PARABOLA, OR HYPERBOLA WITH RESPECT TO THE EARTH OR THE MOON.  THE USE OF THE SUBROUTINE CAN BE
000522:                                                                                                  #        EXTENDED USING OTHER PRIMARY BODIES BY SIMPLE ADDITIONS TO THE MUTABLE WITHOUT INTRODUCING ANY CODING CHANGES,
000523:                                                                                                  #        ACCEPTING THE INHERENT SCALE FACTOR CHANGES IN POSITION AND VELOCITY.
000524:
000525:                                                                                                  #  THE RESTRICTIONS ARE -
000526:                                                                                                  #        1. IF APOCENTER IS BEYOND THE SCALING OF POSITION, THE SCALE FACTOR LIMIT (536,870,910 METERS WITH RESPECT
000527:                                                                                                  #           TO THE EARTH OR 134,217,727.5 METERS WITH RESPECT TO THE MOON) WILL BE RETURNED.
000528:                                                                                                  #        2. THE PARAMETERS IN THE PROBLEM MUST NOT EXCEED THEIR SCALING LIMITS SPECIFIED IN THE GSOP.  IF THE LIMITS
000529:                                                                                                  #           ARE EXCEEDED, THE RESULTING SOLUTION WILL BE MEANINGLESS.
000530:                                                                                                  #        THE AGC COMPUTATION TIME IS APPROXIMATELY .103 SECONDS.
000531:


000533:                                                                                                  #  REFERENCES -
000534:                                                                                                  #        MISSION PROGRAMMING DEFINITION MEMO NO. 10, LUNAR LANDING MISSION GSOP-SECTION 5.5
000535:
000536:                                                                                                  #  INPUT - ERASABLE INITIALIZATION REQUIRED
000537:                                                                                                  #                * SCALE FACTOR *
000538:                                                                                                  #        VARIABLE*IN POWERS OF 2*                         DESCRIPTION AND REMARKS
000539:                                                                                                  #        --------*--------------*                         -----------------------
000540:                                                                                                  #        RVEC    * +29 FOR EARTH*DP INITIAL POSITION VECTOR IN METERS
000541:                                                                                                  #                * +27 FOR MOON *
000542:                                                                                                  #        VVEC    * +7 FOR EARTH *DP INITIAL VELOCITY VECTOR IN METERS/CENTISECOND
000543:                                                                                                  #                * +5 FOR MOON  *
000544:                                                                                                  #        X1 (38D)* NONE         *INDEX REGISTER TO BE SET TO -2D OR -10D ACCORDING TO WHETHER THE EARTH OR MOON,
000545:                                                                                                  #                *              *RESPECTIVELY, IS THE CENTRAL BODY.
000546:
000547:                                                                                                  #  SUBROUTINES CALLED -
000548:                                                                                                  #        PARAM, GEOM
000549:
000550:                                                                                                  #  CALLING SEQUENCE AND NORMAL EXIT MODES -


000552:                                                                                                  #        IF ONLY TIME IS DESIRED AS OUTPUT -
000553:                                                                                                  #        L       CALL                    MUST BE IN INTERPRETIVE MODE BUT OVFIND ARBITRARY.
000554:                                                                                                  #        L+1             APSIDES         RETURNS WITH PL AT 0, RADIUS OF APOCENTER IN MPAC AND RADIUS OF PERICENTER IN 0D
000555:                                                                                                  #        L+2     STODL   APOAPSE
000556:                                                                                                  #        L+3             0D
000557:                                                                                                  #        L+4     STORE   PERIAPSE        APOAPSE AND PERIAPSE ARE SYMBOLIC REPRESENTATIONS OF THE USERS LOCATIONS
000558:                                                                                                  #        L+5     ...                     CONTINUE
000559:
000560:                                                                                                  #  OUTPUT -
000561:                                                                                                  #                * SCALE FACTOR *
000562:                                                                                                  #        VARIABLE*IN POWERS OF 2*                         DESCRIPTION AND REMARKS
000563:                                                                                                  #        --------*--------------*                         -----------------------
000564:                                                                                                  #        MPAC    * +29 FOR EARTH*DP RADIUS OF APOCENTER IN METERS
000565:                                                                                                  #                * +27 FOR MOON *
000566:                                                                                                  #        0D-1D   * +29 FOR EARTH*DP RADIUS OF PERICENTER IN METERS
000567:                                                                                                  #                * +27 FOR MOON *
000568:                                                                                                  #        ECC     * +3           *DP ECCENTRICITY OF CONIC TRAJECTORY.
000569:                                                                                                  #        FOR OTHER OUTPUT WHICH MAY BE OF USE, SEE DEBRIS.
000570:
000571:                                                                                                  #  DEBRIS -
000572:                                                                                                  #        PARAMETERS WHICH MAY BE OF USE -
000573:                                                                                                  #                * SCALE FACTOR *
000574:                                                                                                  #        VARIABLE*IN POWERS OF 2*                         DESCRIPTION AND REMARKS
000575:                                                                                                  #        --------*--------------*                         -----------------------
000576:                                                                                                  #        R1 (32D)* +29 FOR EARTH*DP MAGNITUDE OF INITIAL POSITION VECTOR, RVEC, IN METERS
000577:                                                                                                  #                * +27 FOR MOON *
000578:                                                                                                  #        R1A     * +6           *DP RATIO OF R1 TO SEMIMAJOR AXIS (NEG. FOR HYPERBOLIC TRAJECTORIES)
000579:                                                                                                  #        P       * +4           *DP RATIO OF SEMILATUS RECTUM TO R1
000580:                                                                                                  #        COGA    * +5           *DP COTAN OF ANGLE BETWEEN RVEC AND VVEC
000581:                                                                                                  #        UR1     * +1           *DP UNIT VECTOR OF RVEC
000582:                                                                                                  #        U2      * +1           *DP UNIT VECTOR OF VVEC
000583:                                                                                                  #        UN      * +1           *DP UNIT VECTOR OF UR1*U2
000584:                                                                                                  #        MAGVEC2 * +7 FOR EARTH *DP MAGNITUDE OF VVEC
000585:                                                                                                  #                * +5 FOR MOON  *
000586:
000587:                                                                                                  #        PARAMETERS OF NO USE -
000588:                                                                                                  #                SP PARAMETERS - RTNAPSE, GEOMSGN, RTNPRM, PLUS PUSHLIST LOCATIONS 0-5, 10D-11D, 14D-21D, 31D-38D.
000589:                                                                                                  #                ADDITIONAL INTERPRETIVE SWITCHES USED - NORMSW
000590:
000591: 12,2000                                           SETLOC   CONICS


000593: 12,2000                                           BANK
000594:
000595: 12,2023                                           COUNT*   $$/CONIC
000596: 12,2023  E5,1721                                  EBANK=   UR1
000597: 12,2023           40001        KEPLERN            SETPD    BOV
000598: 12,2024           00001                                    0
000599: 12,2025           24026                                    +1
000600: 12,2026           77773                           VLOAD*
000601: 12,2027           10005                                    MUTABLE,1
000602: 12,2030           24017                           STOVL    14D
000603: 12,2031           01503                                    RRECT
000604: 12,2032           66256                           UNIT     SSP
000605: 12,2033           00027                                    ITERCTR
000606: 12,2034           00024                                    20D
000607: 12,2035           16647                           STODL    URRECT
000608: 12,2036           00045                                    36D
000609: 12,2037           24041                           STOVL    R1
000610: 12,2040           01503                                    RRECT
000611: 12,2041           76441                           DOT      SL1R
000612: 12,2042           01511                                    VRECT
000613: 12,2043           76405                           DMP      SL1R
000614: 12,2044           00023                                    1/ROOTMU                              #  1/ROOTMU (-17 OR -14)
000615: 12,2045           24043                           STOVL    KEPC1                                 #  C1=R.V/ROOTMU (+17 OR +16)
000616: 12,2046           01511                                    VRECT
000617: 12,2047           57236                           VSQ      DMPR
000618: 12,2050           00017                                    1/MU                                  #  1/MU (-34 OR -28)
000619: 12,2051           52405                           DMP      SL3
000620: 12,2052           00041                                    R1
000621: 12,2053           61425                           DSU      ROUND
000622: 12,2054           11001                                    D1/64
000623: 12,2055           00045                           STORE    KEPC2                                 #  C2=RV.V/MU -1 (+6)
000624:
000625: 12,2056           74421                           BDSU     SR1R
000626: 12,2057           11001                                    D1/64
000627: 12,2060           77671                           DDV
000628: 12,2061           00041                                    R1
000629: 12,2062           00011                           STORE    ALPHA                                 #  ALPHA=(1-C2)/R1 (-22 OR -20)
000630:
000631: 12,2063           71244                           BPL      DLOAD                                 #  MAXIMUM X DEPENDS ON TYPE OF CONIC
000632: 12,2064           24073                                    1REV
000633: 12,2065           11017                                    -50SC                                 #  -50SC (+12)
000634: 12,2066           40071                           DDV      BOV
000635: 12,2067           00011                                    ALPHA
000636: 12,2070           24077                                    STOREMAX
000637: 12,2071           52166                           SQRT     GOTO
000638: 12,2072           24077                                    STOREMAX
000639:
000640: 12,2073           55366        1REV               SQRT     BDDV


000642: 12,2074           11021                                    2PISC                                 #  2PISC (+6)
000643: 12,2075           77600                           BOV
000644: 12,2076           24077                                    STOREMAX
000645: 12,2077           00013        STOREMAX           STORE    XMAX
000646: 12,2100           65205                           DMP      PDDL
000647: 12,2101           00023                                    1/ROOTMU
000648: 12,2102           00011                                    ALPHA
000649: 12,2103           65301                           NORM     PDDL
000650: 12,2104           00047                                    X1
000651: 12,2105           56257                           SL*      DDV
000652: 12,2106           20173                                    0          -6,1
000653: 12,2107           50000                           BOV      BMN
000654: 12,2110           24124                                    MODDONE
000655: 12,2111           24124                                    MODDONE                               #  MPAC=PERIOD
000656: 12,2112           51525        PERIODCH           PDDL     ABS                                   #  0D=PERIOD
000657: 12,2113           02074                                    TAU.
000658: 12,2114           50025                           DSU      BMN
000659: 12,2115           00001                                    0D
000660: 12,2116           24124                                    MODDONE
000661: 12,2117           77765                           SIGN
000662: 12,2120           02074                                    TAU.
000663: 12,2121           16074                           STODL    TAU.
000664: 12,2122           77650                           GOTO
000665: 12,2123           24112                                    PERIODCH
000666: 12,2124           71201        MODDONE            SETPD    DLOAD
000667: 12,2125           00001                                    0
000668: 12,2126           02130                                    XKEPNEW
000669: 12,2127           00025                           STORE    X
000670: 12,2130           53165                           SIGN     BZE
000671: 12,2131           02074                                    TAU.
000672: 12,2132           24302                                    BADX
000673: 12,2133           51440                           BMN      ABS
000674: 12,2134           24302                                    BADX
000675: 12,2135           51025                           DSU      BPL
000676: 12,2136           00013                                    XMAX
000677: 12,2137           24302                                    BADX
000678: 12,2140           51145        STORBNDS           DLOAD    BPL
000679: 12,2141           02074                                    TAU.
000680: 12,2142           24152                                    STOREMIN
000681: 12,2143           57545                           DLOAD    DCOMP
000682: 12,2144           00013                                    XMAX
000683: 12,2145           14015                           STODL    XMIN
000684: 12,2146           24007                                    KEPZERO
000685: 12,2147           00013                           STORE    XMAX
000686: 12,2150           77650                           GOTO
000687: 12,2151           24155                                    DXCOMP
000688: 12,2152           77745        STOREMIN           DLOAD
000689: 12,2153           24007                                    KEPZERO
000690: 12,2154           00015                           STORE    XMIN
000691: 12,2155           57345        DXCOMP             DLOAD    DMPR


000693: 12,2156           02074                                    TAU.
000694: 12,2157           11012                                    BEE22
000695: 12,2160           77646                           ABS
000696: 12,2161           16177                           STODL    EPSILONT
000697: 12,2162           01553                                    XPREV
000698: 12,2163           77621        XDIFF              BDSU
000699: 12,2164           00025                                    X
000700: 12,2165           02643                           STORE    DELX
000701:
000702: 12,2166           63545        KEPLOOP            DLOAD    DSQ
000703: 12,2167           00025                                    X                                     #  X=XKEP
000704: 12,2170           41501                           NORM     PUSH                                  #  0D=XSQ (+34 OR +32 -N1)       PL AT 2
000705: 12,2171           00047                                    X1
000706: 12,2172           53605                           DMP      SRR*
000707: 12,2173           00011                                    ALPHA
000708: 12,2174           21573                                    0          -6,1
000709: 12,2175           34031                           STCALL   XI                                    #  XI=ALPHA XSQ (+6)
000710: 12,2176           24421                                    DELTIME
000711: 12,2177           44200                           BOV      BDSU
000712: 12,2200           24311                                    TIMEOVFL                              #  UNLIKELY
000713: 12,2201           02074                                    TAU.
000714: 12,2202           02645                           STORE    DELT                                  #  DELT=DELINDEP
000715: 12,2203           44246                           ABS      BDSU
000716: 12,2204           02177                                    EPSILONT
000717: 12,2205           71244                           BPL      DLOAD
000718: 12,2206           24333                                    KEPCONVG
000719: 12,2207           00037                                    T
000720: 12,2210           60225                           DSU      NORM
000721: 12,2211           01551                                    TC
000722: 12,2212           00047                                    X1
000723: 12,2213           60325                           PDDL     NORM
000724: 12,2214           02643                                    DELX
000725: 12,2215           00050                                    X2
000726: 12,2216           41260                           XSU,1    DMP
000727: 12,2217           00047                                    X2
000728: 12,2220           02645                                    DELT
000729: 12,2221           56257                           SLR*     DDV
000730: 12,2222           21202                                    1,1
000731: 12,2223           41542                           SR1      PUSH                                  #  0D=TRIAL DELX         PL AT 2
000732: 12,2224           71244                           BPL      DLOAD
000733: 12,2225           24246                                    POSDELX
000734: 12,2226           00025                                    X
000735: 12,2227           00013                           STORE    XMAX                                  #  MOVE MAX BOUND IN
000736: 12,2230           45221                           BDSU     DSU                                   #                        PL AT 0
000737: 12,2231           00015                                    XMIN
000738: 12,2232           51000                           BOV      BPL
000739: 12,2233           24240                                    NDXCHNGE
000740: 12,2234           24240                                    NDXCHNGE
000741: 12,2235           52145                           DLOAD    GOTO


000743: 12,2236           00001                                    0D
000744: 12,2237           24260                                    NEWDELX
000745:
000746: 12,2240           45345        NDXCHNGE           DLOAD    DSU
000747: 12,2241           00015                                    XMIN
000748: 12,2242           00025                                    X
000749: 12,2243           52075                           DMPR     GOTO                                  #  TO FORCE MPAC +2 TO ZERO
000750: 12,2244           11015                                    DP9/10
000751: 12,2245           24260                                    NEWDELX
000752:
000753: 12,2246           77745        POSDELX            DLOAD
000754: 12,2247           00025                                    X
000755: 12,2250           00015                           STORE    XMIN                                  #  MOVE MIN BOUND IN
000756: 12,2251           45221                           BDSU     DSU                                   #                        PL AT 0
000757: 12,2252           00013                                    XMAX
000758: 12,2253           50000                           BOV      BMN
000759: 12,2254           24274                                    PDXCHNGE
000760: 12,2255           24274                                    PDXCHNGE
000761: 12,2256           77745                           DLOAD
000762: 12,2257           00001                                    0D
000763: 12,2260           02643        NEWDELX            STORE    DELX
000764: 12,2261           43254                           BZE      DAD
000765: 12,2262           24333                                    KEPCONVG
000766: 12,2263           00025                                    X
000767: 12,2264           14025                           STODL    X
000768: 12,2265           00037                                    T
000769: 12,2266           01551                           STORE    TC
000770: 12,2267           46034        BRNCHCTR           RTB      BHIZ
000771: 12,2270           24644                                    CHECKCTR
000772: 12,2271           24333                                    KEPCONVG
000773: 12,2272           77650                           GOTO
000774: 12,2273           24166                                    KEPLOOP                               #  ITERATE
000775:
000776: 12,2274           45345        PDXCHNGE           DLOAD    DSU
000777: 12,2275           00013                                    XMAX
000778: 12,2276           00025                                    X
000779: 12,2277           52075                           DMPR     GOTO                                  #  TO FORCE MPAC +2 TO ZERO
000780: 12,2300           11015                                    DP9/10
000781: 12,2301           24260                                    NEWDELX
000782:
000783: 12,2302           70545        BADX               DLOAD    SR1
000784: 12,2303           00013                                    XMAX
000785: 12,2304           77765                           SIGN
000786: 12,2305           02074                                    TAU.
000787: 12,2306           00025                           STORE    X
000788: 12,2307           77650                           GOTO


000790: 12,2310           24140                                    STORBNDS
000791: 12,2311           50145        TIMEOVFL           DLOAD    BMN                                   #  X WAS TOO BIG
000792: 12,2312           00025                                    X
000793: 12,2313           24330                                    NEGTOVFL
000794: 12,2314           00013                           STORE    XMAX
000795: 12,2315           70545        CMNTOVFL           DLOAD    SR1
000796: 12,2316           02643                                    DELX
000797: 12,2317           02643                           STORE    DELX
000798: 12,2320           44254                           BZE      BDSU
000799: 12,2321           02112                                    KEPRTN
000800: 12,2322           00025                                    X
000801: 12,2323           14025                           STODL    X
000802: 12,2324           01551                                    TC
000803: 12,2325           00037                           STORE    T
000804: 12,2326           77650                           GOTO
000805: 12,2327           24267                                    BRNCHCTR
000806: 12,2330           00015        NEGTOVFL           STORE    XMIN
000807: 12,2331           77650                           GOTO
000808: 12,2332           24315                                    CMNTOVFL
000809: 12,2333           44545        KEPCONVG           DLOAD    SR4R
000810: 12,2334           00041                                    R1
000811: 12,2335           74225                           DSU      VXSC
000812: 12,2336           00035                                    XSQC(XI)
000813: 12,2337           02647                                    URRECT
000814: 12,2340           65372                           VSL1     PDDL                                  #  0D=(R1-XSQC(XI))URRECT (+33 OR +31)
000815: 12,2341           00025                                    X
000816: 12,2342           60316                           DSQ      NORM
000817: 12,2343           00047                                    X1
000818: 12,2344           57275                           DMPR     DMPR
000819: 12,2345           00023                                    1/ROOTMU
000820: 12,2346           00025                                    X
000821: 12,2347           53605                           DMP      SRR*
000822: 12,2350           00033                                    S(XI)
000823: 12,2351           21572                                    0          -7,1
000824: 12,2352           77621                           BDSU
000825: 12,2353           00037                                    T
000826: 12,2354           74352                           SL1      VXSC
000827: 12,2355           01511                                    VRECT
000828: 12,2356           53372                           VSL1     VAD                                   #                                PL AT 0
000829: 12,2357           77712                           VSL4
000830: 12,2360           01535                           STORE    RCV                                   #  RCV (+29 OR +27)
000831:
000832: 12,2361           60246                           ABVAL    NORM
000833: 12,2362           00050                                    X2
000834: 12,2363           14043                           STODL    RCNORM
000835: 12,2364           00031                                    XI
000836: 12,2365           45275                           DMPR     DSU
000837: 12,2366           00033                                    S(XI)
000838: 12,2367           10777                                    D1/128


000840: 12,2370           76405                           DMP      SL1R
000841: 12,2371           00021                                    ROOTMU
000842: 12,2372           53605                           DMP      SLR*
000843: 12,2373           00025                                    X
000844: 12,2374           56601                                    0          -3,2
000845: 12,2375           74271                           DDV      VXSC
000846: 12,2376           00043                                    RCNORM
000847: 12,2377           02647                                    URRECT
000848: 12,2400           65372                           VSL1     PDDL                                  #  0D=URRECT(XI S(XI)-1)X ROOTMU/RCV (+15
000849: 12,2401           00035                                    XSQC(XI)                              #  OR +13)                       PL AT 6
000850: 12,2402           56257                           SLR*     DDV
000851: 12,2403           56602                                    0          -4,2
000852: 12,2404           00043                                    RCNORM
000853: 12,2405           74221                           BDSU     VXSC
000854: 12,2406           11013                                    D1/256
000855: 12,2407           01511                                    VRECT
000856: 12,2410           42455                           VAD      VSL8
000857: 12,2411           77626                           STADR                                          #                                PL AT 0
000858: 12,2412           62234                           STODL    VCV                                   #  VCV (+7 OR +5)
000859: 12,2413           00037                                    T
000860: 12,2414           15551                           STODL    TC
000861: 12,2415           00025                                    X
000862: 12,2416           01553                           STORE    XPREV
000863: 12,2417           77650                           GOTO
000864: 12,2420           02112                                    KEPRTN
000865:


000867: 12,2421           77776        DELTIME            EXIT                                           #  MPAC=XI (+6), 0D=XSQ (+34 OR +32 -N1)
000868: 12,2422           07225                           TC       POLY
000869: 12,2423           00010                           DEC      8          B-14
000870: 12,2424           02525 12526                     2DEC     .083333334
000871: 12,2426           67356 75666                     2DEC     -.266666684
000872: 12,2430           15001 23771                     2DEC     .406349155
000873: 12,2432           64342 43674                     2DEC     -.361198675
000874: 12,2434           06563 04645                     2DEC     .210153242
000875: 12,2436           75173 52672                     2DEC     -.086221951
000876: 12,2440           00656 14331                     2DEC     .026268812
000877: 12,2442           77633 40512                     2DEC     -.006163316
000878: 12,2444           00023 11210                     2DEC     .001177342
000879: 12,2446           77774 67506                     2DEC     -.000199055
000880:
000881: 12,2450           06042                           TC       INTPRET
000882: 12,2451           14033                           STODL    S(XI)
000883: 12,2452           00031                                    XI
000884: 12,2453           77776                           EXIT
000885: 12,2454           07225                           TC       POLY
000886: 12,2455           00010                           DEC      8          B-14
000887: 12,2456           01000 00000                     2DEC     .031250001
000888: 12,2460           72525 52506                     2DEC     -.166666719
000889: 12,2462           13301 15337                     2DEC     .355555413
000890: 12,2464           62776 54733                     2DEC     -.406347410
000891: 12,2466           11176 13267                     2DEC     .288962094
000892: 12,2470           73410 51674                     2DEC     -.140117894
000893: 12,2472           01446 33641                     2DEC     .049247387
000894: 12,2474           77451 65233                     2DEC     -.013081923
000895: 12,2476           00055 37266                     2DEC     .002806389
000896: 12,2500           77767 52336                     2DEC     -.000529414
000897: 12,2502           06042                           TC       INTPRET


000899: 12,2503           53605                           DMP      SRR*                                  #                                PL AT 0
000900: 12,2504           00001                                    0D
000901: 12,2505           21574                                    0          -5,1
000902: 12,2506           00035                           STORE    XSQC(XI)                              #  XSQC(XI) (+33 OR +31)
000903: 12,2507           72405                           DMP      SL1
000904: 12,2510           00043                                    KEPC1
000905: 12,2511           65234                           RTB      PDDL                                  #  XCH WITH PL. 0D=C1 XSQ C(XI) (+49 OR +46
000906: 12,2512           21634                                    TPMODE                                #                                PL AT 0,3
000907: 12,2513           53605                           DMP      SRR*
000908: 12,2514           00033                                    S(XI)
000909: 12,2515           21574                                    0          -5,1
000910: 12,2516           72405                           DMP      SL1
000911: 12,2517           00045                                    KEPC2
000912: 12,2520           65234                           RTB      PDDL                                  #  3D=C2 XSQ S(XI) (+35 OR +33)  PL AT 6
000913: 12,2521           21634                                    TPMODE
000914: 12,2522           00041                                    R1
000915: 12,2523           76261                           SR       TAD                                   #                                PL AT 3
000916: 12,2524           20607                                    6
000917: 12,2525           41301                           NORM     DMP                                   #  TO PRESERVE SIGNIF.
000918: 12,2526           00047                                    X1
000919: 12,2527           00025                                    X
000920: 12,2530           76257                           SR*      TAD                                   #  X(C2 XSQ S(XI) +R1) (+49 OR +46)  PL AT 0
000921: 12,2531           20576                                    0          -3,1
000922: 12,2532           57232                           SL4R     DMPR
000923: 12,2533           00023                                    1/ROOTMU
000924: 12,2534           00037                           STORE    T
000925: 12,2535           77616                           RVQ
000926:


000928: 12,2536           71214        ITERATOR           BONCLR   DLOAD
000929: 12,2537           00614                                    SLOPESW
000930: 12,2540           24606                                    FIRSTIME
000931: 12,2541           00037                                    DEP
000932: 12,2542           60225                           DSU      NORM
000933: 12,2543           02762                                    DEPREV
000934: 12,2544           00047                                    X1
000935: 12,2545           60325                           PDDL     NORM
000936: 12,2546           00015                                    DELINDEP
000937: 12,2547           00050                                    X2
000938: 12,2550           41260                           XSU,1    DMP
000939: 12,2551           00047                                    X2
000940: 12,2552           02760                                    DELDEP
000941: 12,2553           56257                           SLR*     DDV                                   #                                PL UP 2
000942: 12,2554           21202                                    1,1
000943: 12,2555           43142                           SR1      BOFF
000944: 12,2556           04351                                    ORDERSW
000945: 12,2557           24562                                    SGNCHECK
000946: 12,2560           75246                           ABS      SIGN                                  #  IN CASE 2ND DERIV. CHANGED SIGN, MUST
000947: 12,2561           02760                                    DELDEP                                #  DISREGARD IT TO FIND MIN.
000948:
000949: 12,2562           51006        SGNCHECK           PUSH     BPL                                   #  TRIAL DELINDEP                PL DOWN 2
000950: 12,2563           24620                                    POSDEL
000951: 12,2564           43145                           DLOAD    BON
000952: 12,2565           02766                                    INDEP
000953: 12,2566           04311                                    ORDERSW
000954: 12,2567           24571                                    MINCHECK
000955: 12,2570           00017                           STORE    MAX                                   #  IF NOT 2ND ORDER, CAN MOVE MAX BOUND IN.
000956:
000957: 12,2571           45221        MINCHECK           BDSU     DSU
000958: 12,2572           00011                                    MIN
000959: 12,2573           51000                           BOV      BPL
000960: 12,2574           24600                                    MODNGDEL
000961: 12,2575           24600                                    MODNGDEL
000962: 12,2576           77650                           GOTO
000963: 12,2577           24632                                    DELOK
000964:
000965: 12,2600           45345        MODNGDEL           DLOAD    DSU                                   #  TRIAL DELINDEP WOULD EXCEED MIN BOUND
000966: 12,2601           00011                                    MIN
000967: 12,2602           02766                                    INDEP
000968: 12,2603           52005                           DMP      GOTO
000969: 12,2604           11015                                    DP9/10
000970: 12,2605           24634                                    NEWDEL
000971:
000972: 12,2606           41345        FIRSTIME           DLOAD    DMP
000973: 12,2607           00011                                    MIN
000974: 12,2610           00051                                    TWEEKIT                               #  DLOAD TWEEKIT(40D) SENSITIVE TO CHANGE.
000975: 12,2611           41325                           PDDL     DMP                                   #  S2(41D) SHOULDNT CONTAIN HI ORDER ONES


000977: 12,2612           00017                                    MAX
000978: 12,2613           00051                                    TWEEKIT
000979: 12,2614           77625                           DSU
000980: 12,2615           52165                           SIGN     GOTO
000981: 12,2616           02760                                    DELDEP
000982: 12,2617           24562                                    SGNCHECK
000983:
000984: 12,2620           43145        POSDEL             DLOAD    BON
000985: 12,2621           02766                                    INDEP
000986: 12,2622           04311                                    ORDERSW
000987: 12,2623           24625                                    MAXCHECK
000988: 12,2624           00011                           STORE    MIN                                   #  IF NOT 2ND ORDER, CAN MOVE MIN BOUND IN.
000989:
000990: 12,2625           45221        MAXCHECK           BDSU     DSU
000991: 12,2626           00017                                    MAX
000992: 12,2627           50000                           BOV      BMN
000993: 12,2630           24636                                    MODPSDEL
000994: 12,2631           24636                                    MODPSDEL
000995: 12,2632           77745        DELOK              DLOAD
000996: 12,2633           00001                                    0D
000997: 12,2634           00015        NEWDEL             STORE    DELINDEP
000998: 12,2635           77616                           RVQ
000999:
001000: 12,2636           45345        MODPSDEL           DLOAD    DSU
001001: 12,2637           00017                                    MAX
001002: 12,2640           02766                                    INDEP
001003: 12,2641           52005                           DMP      GOTO
001004: 12,2642           11015                                    DP9/10
001005: 12,2643           24634                                    NEWDEL
001006:
001007: 12,2644           44753        CHECKCTR           CS       ONE
001008: 12,2645           50120                           INDEX    FIXLOC
001009: 12,2646           60026                           AD       ITERCTR
001010: 12,2647           50120                           INDEX    FIXLOC
001011: 12,2650           54026                           TS       ITERCTR
001012: 12,2651           54154                           TS       MPAC
001013: 12,2652           06064                           TC       DANZIG
001014:


001016: 12,2653           44545        NEWSTATE           DLOAD    SR4R
001017: 12,2654           00041                                    R1
001018: 12,2655           74225                           DSU      VXSC
001019: 12,2656           00035                                    XSQC(XI)
001020: 12,2657           02722                                    UR1
001021: 12,2660           65372                           VSL1     PDDL                                  #  0D=(R1-XSQC(XI))UR1 (+33 OR 31)       PL AT 6
001022: 12,2661           00025                                    X
001023: 12,2662           60316                           DSQ      NORM
001024: 12,2663           00047                                    X1
001025: 12,2664           57275                           DMPR     DMPR
001026: 12,2665           00023                                    1/ROOTMU
001027: 12,2666           00025                                    X
001028: 12,2667           53605                           DMP      SRR*
001029: 12,2670           00033                                    S(XI)
001030: 12,2671           21572                                    0          -7,1
001031: 12,2672           77621                           BDSU
001032: 12,2673           00037                                    T
001033: 12,2674           74352                           SL1      VXSC
001034: 12,2675           02744                                    VVEC
001035: 12,2676           53372                           VSL1     VAD                                   #                                PL AT 0
001036: 12,2677           41512                           VSL4     PUSH
001037: 12,2700           77646                           ABVAL
001038: 12,2701           77701        LAMENTER           NORM
001039: 12,2702           00047                                    X1
001040: 12,2703           16720                           STODL    R2
001041: 12,2704           00031                                    XI
001042: 12,2705           45205                           DMP      DSU
001043: 12,2706           00033                                    S(XI)
001044: 12,2707           10777                                    D1/128
001045: 12,2710           76405                           DMP      SL1R
001046: 12,2711           00021                                    ROOTMU
001047: 12,2712           53605                           DMP      SLR*
001048: 12,2713           00025                                    X
001049: 12,2714           21176                                    0          -3,1
001050: 12,2715           74271                           DDV      VXSC
001051: 12,2716           02720                                    R2
001052: 12,2717           02722                                    UR1
001053: 12,2720           65372                           VSL1     PDDL                                  #  6D=V2VEC PART (+15 OR 13)     PL AT 12
001054: 12,2721           00035                                    XSQC(XI)
001055: 12,2722           56257                           SLR*     DDV
001056: 12,2723           21175                                    0          -4,1
001057: 12,2724           02720                                    R2
001058: 12,2725           77621                           BDSU
001059: 12,2726           11013                                    D1/256
001060: 12,2727           53361                           VXSC     VAD
001061: 12,2730           02744                                    VVEC                                  #                                PL AT 6
001062: 12,2731           43412                           VSL8     RVQ
001063:


001065: 04,2000                                           SETLOC   CONICS1
001066: 04,2000                                           BANK
001067:
001068: 04,2773                                           COUNT*   $$/CONIC
001069:                                                                                                  #  DO NOT DISTURB THE ORDER OF THESE CDS, OVERLAYS HAVE BEEN MADE.
001070: 04,2773           00000        BEE17              DEC      0          B-14                       #  KEEP WITH D1/8 2DEC 1.0B-17 (0000004000)
001071: 04,2774           04000 00000  D1/8               2DEC     1.0        B-3
001072: 04,2776           00200 00000  D1/128             2DEC     1.0        B-7
001073: 04,3000           00400 00000  D1/64              2DEC     1.0        B-6
001074: 04,3002           10000 00000  D1/4               2DEC     1.0        B-2
001075: 04,3004           02000 00000  D1/16              2DEC     1.0        B-4
001076: 04,3006           01000 00000  D1/32              2DEC     1.0        B-5
001077: 04,3010           00020 00000  D1/1024            2DEC     1.0        B-10
001078: 04,3012           00100 00000  D1/256             2DEC     1.0        B-8
001079: 04,3014           34631 23146  DP9/10             2DEC     .9
001080: 04,3016  12,2006               KEPZERO            EQUALS   LO6ZEROS
001081: 04,3016           77467 77777  -50SC              2DEC     -50.0      B-12
001082: 04,3020           03110 17665  2PISC              2DEC     6.28318530 B-6
001083: 04,3022  04,3005               BEE19              EQUALS   D1/32      -1                         #  2DEC 1.0 B-19 (00000 01000)
001084: 04,3022  04,3011               BEE22              EQUALS   D1/256     -1                         #  2DEC 1.0 B-22 (00000 00100)
001085: 04,3022           00000 00001  ONEBIT             2DEC     1.0        B-28
001086: 04,3024           37767 37737  COGUPLIM           2DEC     .999511597
001087: 04,3026           40010 40040  COGLOLIM           2DEC     -.999511597
001088:


001090: 12,2000                                           SETLOC   CONICS
001091: 12,2000                                           BANK
001092:
001093: 12,2732                                           COUNT*   $$/CONIC
001094: 12,2732           40220        TIMETHET           STQ      SETPD                                 #                                PL AT 0
001095: 12,2733           02710                                    RTNTT
001096: 12,2734           00001                                    0
001097: 12,2735           77600                           BOV
001098: 12,2736           24737                                    +1
001099: 12,2737           63375                           VLOAD    PDVL                                  #  SETUP FOR PARAM CALL          PL AT 6
001100: 12,2740           02655                                    RVEC
001101: 12,2741           02744                                    VVEC
001102: 12,2742           77624                           CALL
001103: 12,2743           11030                                    PARAM
001104: 12,2744           45000                           BOV      CALL
001105: 12,2745           24764                                    COGAOVFL                              #                                PL AT 0
001106: 12,2746           24767                                    GETX
001107: 12,2747           43145        COMMNOUT           DLOAD    BON
001108: 12,2750           00031                                    XI
001109: 12,2751           04310                                    INFINFLG
001110: 12,2752           25752                                    ABTCONIC
001111: 12,2753           45014                           CLEAR    CALL
001112: 12,2754           04273                                    COGAFLAG
001113: 12,2755           24421                                    DELTIME
001114: 12,2756           45014                           BON      CALL
001115: 12,2757           03706                                    RVSW
001116: 12,2760           02710                                    RTNTT
001117: 12,2761           24653                                    NEWSTATE
001118: 12,2762           77650                           GOTO
001119: 12,2763           02710                                    RTNTT
001120:
001121: 12,2764           77614        COGAOVFL           SETGO
001122: 12,2765           04033                                    COGAFLAG
001123: 12,2766           25752                                    ABTCONIC
001124:
001125: 04,3030                                           BANK     4
001126: 04,2000                                           SETLOC   CONICS1
001127: 04,2000                                           BANK
001128: 04,3030                                           COUNT*   $$/CONIC
001129: 04,3030           43020        PARAM              STQ      CLEAR                                 #  MPAC=V1VEC, 0D=R1VEC          PL AT 6
001130: 04,3031           02753                                    RTNPRM
001131: 04,3032           03665                                    NORMSW
001132: 04,3033           77614                           CLEAR
001133: 04,3034           04273                                    COGAFLAG
001134: 04,3035           45131                           SSP      CALL
001135: 04,3036           02673                                    GEOMSGN
001136: 04,3037           27777                                    37777                                 #  GAMMA ALWAYS LESS THAN 180DEG
001137: 04,3040           11074                                    GEOM                                  #  MPAC=SNGA (+1), 0D=CSGA (+1)  PL AT 2
001138: 04,3041           14045                           STODL    36D                                   #  36D=SIN GAMMA (+1)            PL AT 0
001139: 04,3042           56261                           SR       DDV


001141: 04,3043           20606                                    5
001142: 04,3044           00045                                    36D
001143: 04,3045           32766                           STOVL*   COGA
001144: 04,3046           10005                                    MUTABLE,1
001145: 04,3047           14017                           STODL    1/MU
001146: 04,3050           02720                                    MAGVEC2
001147: 04,3051           60316                           DSQ      NORM
001148: 04,3052           00047                                    X1
001149: 04,3053           41275                           DMPR     DMP
001150: 04,3054           00017                                    1/MU
001151: 04,3055           00041                                    R1
001152: 04,3056           77657                           SRR*
001153: 04,3057           21576                                    0          -3,1
001154: 04,3060           44206                           PUSH     BDSU                                  #  0D=R1 V1SQ/MU (+6)            PL AT 2
001155: 04,3061           11007                                    D1/32
001156: 04,3062           16742                           STODL    R1A                                   #  R1A (+6)                      PL AT 0
001157:
001158: 04,3063           60205                           DMP      NORM
001159: 04,3064           00045                                    36D
001160: 04,3065           00047                                    X1
001161: 04,3066           53605                           DMP      SR*
001162: 04,3067           00045                                    36D
001163: 04,3070           20575                                    0          -4,1
001164: 04,3071           02740                           STORE    P                                     #  P (+4)
001165: 04,3072           77650                           GOTO
001166: 04,3073           02753                                    RTNPRM
001167:


001169: 04,3074           77656        GEOM               UNIT                                           #  MPAC=V2VEC, 0D=R1VEC          PL AT 6
001170: 04,3075           16712                           STODL    U2                                    #  U2 (+1)
001171: 04,3076           00045                                    36D
001172: 04,3077           26720                           STOVL    MAGVEC2                               #                                PL AT 0
001173: 04,3100           77656                           UNIT
001174: 04,3101           02722                           STORE    UR1                                   #  UR1 (+1)
001175: 04,3102           72441                           DOT      SL1
001176: 04,3103           02712                                    U2
001177: 04,3104           77725                           PDDL                                           #  OD=CSTH (+1)                  PL AT 2
001178: 04,3105           00045                                    36D
001179: 04,3106           24041                           STOVL    R1                                    #  R1 (+29 OR +27)
001180: 04,3107           02722                                    UR1
001181: 04,3110           76435                           VXV      VSL1
001182: 04,3111           02712                                    U2
001183: 04,3112           75214                           BON      SIGN
001184: 04,3113           03705                                    NORMSW
001185: 04,3114           11126                                    HAVENORM
001186: 04,3115           02673                                    GEOMSGN
001187: 04,3116           40056                           UNIT     BOV
001188: 04,3117           11124                                    COLINEAR
001189: 04,3120           16674        UNITNORM           STODL    UN                                    #  UN (+1)
001190: 04,3121           00045                                    36D
001191: 04,3122           43565                           SIGN     RVQ                                   #  MPAC=SNTH (+1), 34D=SNTH.SNTH (+2)
001192: 04,3123           02673                                    GEOMSGN
001193:
001194: 04,3124           52162        COLINEAR           VSR1     GOTO
001195: 04,3125           11120                                    UNITNORM
001196:
001197: 04,3126           75246        HAVENORM           ABVAL    SIGN
001198: 04,3127           02673                                    GEOMSGN
001199: 04,3130           77616                           RVQ                                            #  MPAC=SNTH (+1), 34D=SNTH.SNTH (+2)
001200:


001202: 12,2767                                           BANK     12
001203: 12,2000                                           SETLOC   CONICS
001204: 12,2000                                           BANK
001205:
001206: 12,2767                                           COUNT*   $$/CONIC
001207: 12,2767           66374        GETX               AXT,2    SSP                                   #  ASSUMES P (+4) IN MPAC
001208: 12,2770           00003                                    3
001209: 12,2771           00052                                    S2
001210: 12,2772           00001                                    1
001211: 12,2773           77614                           CLEAR
001212: 12,2774           04276                                    360SW
001213: 12,2775           65366                           SQRT     PDDL                                  #  0D=SQRT(P)                    PL AT 2
001214: 12,2776           02732                                    CSTH
001215: 12,2777           44342                           SR1      BDSU
001216: 12,3000           11003                                    D1/4
001217: 12,3001           54325                           PDDL     SRR                                   #                                PL AT 4D
001218: 12,3002           02730                                    SNTH
001219: 12,3003           21607                                    6
001220: 12,3004           77671                           DDV                                            #                                PL AT 2
001221: 12,3005           77600                           BOV
001222: 12,3006           25122                                    360CHECK
001223: 12,3007           41225                           DSU      DMP
001224: 12,3010           02766                                    COGA                                  #                                PL AT 0
001225: 12,3011           40132                           SL2R     BOV
001226: 12,3012           25122                                    360CHECK
001227: 12,3013           63406        WLOOP              PUSH     DSQ                                   #  0D=W (+5)                     PL AT 2
001228: 12,3014           65351                           TLOAD    PDDL                                  #  2D=WSQ (+10)                  PL AT 5
001229: 12,3015           00155                                    MPAC
001230: 12,3016           02742                                    R1A
001231: 12,3017           76202                           SR4      TAD                                   #                                PL AT 2
001232: 12,3020           75440                           BMN      SQRT
001233: 12,3021           25205                                    INFINITY
001234: 12,3022           43306                           ROUND    DAD                                   #                                PL AT 0D
001235: 12,3023           61000                           BOV      TIX,2
001236: 12,3024           25120                                    RESETX2
001237: 12,3025           25013                                    WLOOP
001238:
001239: 12,3026           40065                           BDDV     BOV
001240: 12,3027           10777                                    D1/128
001241: 12,3030           25205                                    INFINITY
001242: 12,3031           41440        POLYCOEF           BMN      PUSH                                  #  0D=1/W (+2) OR 16/W (+6)      PL AT 2
001243: 12,3032           25205                                    INFINITY
001244: 12,3033           77716                           DSQ
001245: 12,3034           41301                           NORM     DMP
001246: 12,3035           00047                                    X1
001247: 12,3036           02742                                    R1A
001248: 12,3037           77457                           SRR*     EXIT
001249: 12,3040           21567                                    0          -10D,1
001250: 12,3041           07225                           TC       POLY


001252: 12,3042           00005                           DEC      5          B-14
001253: 12,3043           20000 00000                     2DEC     .5
001254: 12,3045           72525 52471                     2DEC     -.166666770
001255: 12,3047           03146 15003                     2DEC     .100000392
001256: 12,3051           75556 45210                     2DEC     -.071401086
001257: 12,3053           01615 13553                     2DEC     .055503292
001258: 12,3055           76371 63777                     2DEC     -.047264098
001259: 12,3057           01232 27367                     2DEC     .040694204
001260:
001261: 12,3061           06042                           TC       INTPRET
001262: 12,3062           76405                           DMP      SL1R                                  #                                PL AT 0D
001263: 12,3063           43006                           PUSH     BON
001264: 12,3064           04316                                    360SW
001265: 12,3065           25172                                    TRUE360X
001266: 12,3066           60316        XCOMMON            DSQ      NORM
001267: 12,3067           00047                                    X1
001268: 12,3070           53605                           DMP      SRR*
001269: 12,3071           02742                                    R1A
001270: 12,3072           21565                                    0          -12D,1
001271: 12,3073           14031                           STODL    XI                                    #  XI (+6)
001272: 12,3074           00041                                    R1
001273: 12,3075           75542                           SR1      SQRT
001274: 12,3076           41306                           ROUND    DMP
001275: 12,3077           77632                           SL4R                                           #                                PL AT 0
001276: 12,3100           00025                           STORE    X                                     #  X (+17 OR +16)
001277:
001278: 12,3101           60316                           DSQ      NORM
001279: 12,3102           00047                                    X1
001280: 12,3103           41325                           PDDL     DMP                                   #  0D=XSQ (+34 OR +32 -N1)       PL AT 2
001281: 12,3104           02740                                    P
001282: 12,3105           00041                                    R1
001283: 12,3106           75452                           SL3      SQRT
001284: 12,3107           56405                           DMP      SL3R
001285: 12,3110           02766                                    COGA
001286: 12,3111           14043                           STODL    KEPC1
001287: 12,3112           02742                                    R1A
001288: 12,3113           43021                           BDSU     CLEAR
001289: 12,3114           11001                                    D1/64
001290: 12,3115           04270                                    INFINFLG
001291: 12,3116           00045                           STORE    KEPC2
001292: 12,3117           77616                           RVQ
001293:


001295: 12,3120           77774        RESETX2            AXT,2
001296: 12,3121           00003                                    3
001297:
001298: 12,3122           51001        360CHECK           SETPD    BPL
001299: 12,3123           00001                                    0D
001300: 12,3124           25127                                    INVRSEQN
001301: 12,3125           77614                           SET
001302: 12,3126           04076                                    360SW
001303:
001304: 12,3127           75545        INVRSEQN           DLOAD    SQRT
001305: 12,3130           02740                                    P
001306: 12,3131           41325                           PDDL     DMP                                   #  0D=SQRT(P) (+2)               PL AT 2
001307: 12,3132           02730                                    SNTH
001308: 12,3133           02766                                    COGA
001309: 12,3134           65352                           SL1      PDDL                                  #  2D=SNTH COGA (+5)             PL AT 4
001310: 12,3135           02732                                    CSTH
001311: 12,3136           43202                           SR4      DAD
001312: 12,3137           11007                                    D1/32
001313: 12,3140           41225                           DSU      DMP                                   #                                PL AT 2,0
001314: 12,3141           55301                           NORM     BDDV
001315: 12,3142           00047                                    X1
001316: 12,3143           02730                                    SNTH
001317: 12,3144           51457                           SLR*     ABS                                   #  NOTE: NEAR 360 CASE TREATED DIFFERENTLY
001318: 12,3145           21174                                    0          -5,1
001319: 12,3146           63406                           PUSH     DSQ                                   #  0D=1/W (-1)                   PL AT 2
001320: 12,3147           14043                           STODL    34D
001321: 12,3150           11005                                    D1/16
001322: 12,3151           63406        1/WLOOP            PUSH     DSQ                                   #  2D=G (+4)                     PL AT 4
001323: 12,3152           65234                           RTB      PDDL                                  #                                PL AT 7
001324: 12,3153           21634                                    TPMODE
001325: 12,3154           02742                                    R1A
001326: 12,3155           40405                           DMP      SR4
001327: 12,3156           00043                                    34D
001328: 12,3157           77771                           TAD
001329: 12,3160           75440                           BMN      SQRT                                  #                                PL AT 4
001330: 12,3161           25205                                    INFINITY
001331: 12,3162           77615                           DAD                                            #                                PL AT 2
001332: 12,3163           60304                           TIX,2    NORM
001333: 12,3164           25151                                    1/WLOOP
001334: 12,3165           00047                                    X1
001335: 12,3166           77665                           BDDV
001336: 12,3167           52057                           SLR*     GOTO                                  #                                PL AT 0
001337: 12,3170           21172                                    0          -7,1
001338: 12,3171           25031                                    POLYCOEF
001339:
001340: 12,3172           50145        TRUE360X           DLOAD    BMN
001341: 12,3173           02742                                    R1A


001343: 12,3174           25205                                    INFINITY
001344: 12,3175           60366                           SQRT     NORM
001345: 12,3176           00047                                    X1
001346: 12,3177           53665                           BDDV     SL*
001347: 12,3200           11021                                    2PISC
001348: 12,3201           20176                                    0          -3,1
001349: 12,3202           41425                           DSU      PUSH                                  #  0D=2PI/SQRT(R1A) -X           PL AT 0,2
001350: 12,3203           77650                           GOTO
001351: 12,3204           25066                                    XCOMMON
001352: 12,3205           40001        INFINITY           SETPD    BOV                                   #  NO SOLUTION EXISTS SINCE CLOSURE THROUGH
001353: 12,3206           00001                                    0                                     #  INFINITY IS REQUIRED
001354: 12,3207           25210                                    OVFLCLR
001355: 12,3210           43414        OVFLCLR            SET      RVQ
001356: 12,3211           04070                                    INFINFLG
001357:


001359: 12,3212           40220        LAMBERT            STQ      SETPD
001360: 12,3213           02710                                    RTNLAMB
001361: 12,3214           00001                                    0D
001362: 12,3215           77600                           BOV
001363: 12,3216           25217                                    +1
001364: 12,3217           76614                           CLEAR    VLOAD*
001365: 12,3220           02674                                    SOLNSW
001366: 12,3221           10005                                    MUTABLE,1
001367: 12,3222           14017                           STODL    1/MU
001368: 12,3223           02671                                    TDESIRED
001369: 12,3224           77675                           DMPR
001370: 12,3225           11006                                    BEE19
001371: 12,3226           02764                           STORE    EPSILONL
001372: 12,3227           77214                           SET      VLOAD
001373: 12,3230           00474                                    SLOPESW
001374: 12,3231           02655                                    R1VEC
001375: 12,3232           45115                           PDVL     CALL                                  #  0D=R1VEC (+29 OR +27)         PL AT 6
001376: 12,3233           02663                                    R2VEC                                 #  MPAC=R2VEC (+29 OR +27)
001377: 12,3234           11074                                    GEOM
001378: 12,3235           16730                           STODL    SNTH                                  #  0D=CSTH (+1)                  PL AT 2
001379: 12,3236           02720                                    MAGVEC2
001380: 12,3237           65301                           NORM     PDDL                                  #                                PL AT 4
001381: 12,3240           00047                                    X1
001382: 12,3241           00041                                    R1
001383: 12,3242           56342                           SR1      DDV                                   #                                PL AT 2
001384: 12,3243           65257                           SL*      PDDL                                  #  DXCH WITH 0D, 0D=R1/R2 (+7)   PL AT 0,2
001385: 12,3244           20173                                    0          -6,1
001386: 12,3245           77626                           STADR
001387: 12,3246           75045                           STORE    CSTH                                  #  CSTH (+1)
001388: 12,3247           44342                           SR1      BDSU
001389: 12,3250           11003                                    D1/4
001390: 12,3251           02734                           STORE    1-CSTH                                #  1-CSTH (+2)
001391:
001392: 12,3252           53106                           ROUND    BZE
001393: 12,3253           25473                                    360LAMB
001394: 12,3254           65301                           NORM     PDDL                                  #                                PL AT 4
001395: 12,3255           00047                                    X1
001396: 12,3256           00001                                    0D
001397: 12,3257           56342                           SR1      DDV                                   #                                PL AT 2
001398: 12,3260           75457                           SL*      SQRT
001399: 12,3261           20176                                    0          -3,1
001400: 12,3262           54325                           PDDL     SR                                    #  2D=SQRT(2R1/R2(1-CSTH)) (+5)  PL AT 4
001401: 12,3263           02730                                    SNTH
001402: 12,3264           20607                                    6
001403: 12,3265           43271                           DDV      DAD                                   #                                PL AT 2
001404: 12,3266           02734                                    1-CSTH
001405: 12,3267           77626                           STADR
001406: 12,3270           77760                           STORE    COGAMAX
001407: 12,3271           50000                           BOV      BMN                                   #  IF OVFL, COGAMAX=COGUPLIM
001408: 12,3272           25277                                    UPLIM                                 #  IF NEG, USE EVEN IF LT COGLOLIM, SINCE


001410: 12,3273           25302                                    MAXCOGA                               #        THIS WOULD BE RESET IN LAMBLOOP
001411: 12,3274           50025                           DSU      BMN                                   #  IF COGAMAX GT COGUPLIM, COGAMAX=COGUPLIM
001412: 12,3275           11025                                    COGUPLIM
001413: 12,3276           25302                                    MAXCOGA                               #  OTHERWISE OK, SO GO TO MAXCOGA
001414: 12,3277           77745        UPLIM              DLOAD
001415: 12,3300           11025                                    COGUPLIM                              #  COGUPLIM=.999511597 = MAX VALUE OF COGA
001416: 12,3301           00017                           STORE    COGAMAX                               #        NOT CAUSING OVFL IN R1A CALCULATION
001417: 12,3302           77745        MAXCOGA            DLOAD
001418: 12,3303           02732                                    CSTH
001419: 12,3304           45261                           SR       DSU                                   #                                        PL AT 0
001420: 12,3305           20607                                    6
001421: 12,3306           77626                           STADR
001422: 12,3307           61041                           STODL    CSTH-RHO
001423: 12,3310           02673                                    GEOMSGN
001424: 12,3311           71240                           BMN      DLOAD
001425: 12,3312           25513                                    LOLIM
001426: 12,3313           02736                                    CSTH-RHO
001427: 12,3314           56352                           SL1      DDV
001428: 12,3315           02730                                    SNTH
001429: 12,3316           77600                           BOV
001430: 12,3317           25513                                    LOLIM
001431: 12,3320           00011        MINCOGA            STORE    COGAMIN                               #  COGAMIN (+5)
001432: 12,3321           66214                           BON      SSP
001433: 12,3322           00715                                    GUESSW
001434: 12,3323           25477                                    NOGUESS
001435: 12,3324           00051                                    TWEEKIT
001436: 12,3325           00001                                    00001
001437: 12,3326           77745                           DLOAD
001438: 12,3327           02766                                    COGA
001439:
001440: 12,3330           77605        LAMBLOOP           DMP
001441: 12,3331           02730                                    SNTH
001442: 12,3332           45342                           SR1      DSU
001443: 12,3333           02736                                    CSTH-RHO
001444: 12,3334           65301                           NORM     PDDL                                  #  0D=SNTH COGA-(CSTH-RHO) (+7+C(X1))    PL = 2
001445: 12,3335           00047                                    X1
001446: 12,3336           02734                                    1-CSTH
001447: 12,3337           56257                           SL*      DDV                                   #  1-CSTH (+2)                           PL AT 0
001448: 12,3340           20170                                    0          -9D,1
001449: 12,3341           53040                           BMN      BZE
001450: 12,3342           25427                                    NEGP
001451: 12,3343           25427                                    NEGP
001452: 12,3344           16740                           STODL    P                                     #  P=(1-CSTH)/(SNTH COGA-(CSTH-RHO)) (+4)
001453: 12,3345           02766                                    COGA
001454: 12,3346           43316                           DSQ      DAD
001455: 12,3347           11011                                    D1/1024
001456: 12,3350           41301                           NORM     DMP
001457: 12,3351           00047                                    X1
001458: 12,3352           02740                                    P


001460: 12,3353           44257                           SR*      BDSU
001461: 12,3354           20571                                    0          -8D,1
001462: 12,3355           11007                                    D1/32
001463: 12,3356           16742                           STODL    R1A                                   #  R1A=2-P(1+COGA COGA) (+6)
001464: 12,3357           02740                                    P
001465: 12,3360           45000                           BOV      CALL
001466: 12,3361           25432                                    HIENERGY
001467: 12,3362           24767                                    GETX
001468: 12,3363           77745                           DLOAD
001469: 12,3364           00037                                    T
001470: 12,3365           16762                           STODL    TPREV
001471: 12,3366           00031                                    XI
001472: 12,3367           45014                           BON      CALL
001473: 12,3370           04310                                    INFINFLG
001474: 12,3371           25427                                    NEGP                                  #  HAVE EXCEEDED THEORETICAL BOUNDS
001475: 12,3372           24421                                    DELTIME
001476: 12,3373           44200                           BOV      BDSU
001477: 12,3374           25447                                    BIGTIME
001478: 12,3375           02671                                    TDESIRED
001479: 12,3376           02760                           STORE    TERRLAMB
001480: 12,3377           44246                           ABS      BDSU
001481: 12,3400           02764                                    EPSILONL
001482: 12,3401           47044                           BPL      RTB
001483: 12,3402           25516                                    INITV
001484: 12,3403           24644                                    CHECKCTR
001485: 12,3404           43030                           BHIZ     BON
001486: 12,3405           25460                                    SUFFCHEK
001487: 12,3406           00714                                    SLOPESW
001488: 12,3407           25415                                    GOITER
001489: 12,3410           45345                           DLOAD    DSU
001490: 12,3411           00037                                    T
001491: 12,3412           02762                                    TPREV
001492: 12,3413           77654                           BZE
001493: 12,3414           25460                                    SUFFCHEK
001494: 12,3415           77624        GOITER             CALL
001495: 12,3416           24536                                    ITERATOR
001496: 12,3417           53145                           DLOAD    BZE
001497: 12,3420           00155                                    MPAC
001498: 12,3421           25460                                    SUFFCHEK
001499: 12,3422           77615                           DAD
001500: 12,3423           02766                                    COGA
001501: 12,3424           02766                           STORE    COGA
001502: 12,3425           77650                           GOTO
001503: 12,3426           25330                                    LAMBLOOP
001504:
001505: 12,3427           51145        NEGP               DLOAD    BPL                                   #  IMPOSSIBLE TRAJECTORY DUE TO INACCURATE
001506: 12,3430           00015                                    DCOGA                                 #  BOUND CALCULATION.  TRY NEW COGA.
001507: 12,3431           25452                                    LOENERGY
001508:


001510: 12,3432           71201        HIENERGY           SETPD    DLOAD                                 #  HIGH ENERGY TRAJECTORY RESULTED
001511: 12,3433           00001                                    0
001512: 12,3434           02766                                    COGA                                  #  IN OVFL OF P OR R1A, OR XI EXCEEDING 50.
001513: 12,3435           00011                           STORE    COGAMIN                               #  THIS IS THE NEW BOUND.
001514: 12,3436           70545        COMMONLM           DLOAD    SR1
001515: 12,3437           00015                                    DCOGA
001516: 12,3440           00015                           STORE    DCOGA                                 #  USE DCOGA/2 AS DECREMENT
001517: 12,3441           44254                           BZE      BDSU
001518: 12,3442           25460                                    SUFFCHEK
001519: 12,3443           02766                                    COGA
001520: 12,3444           02766                           STORE    COGA
001521: 12,3445           77650                           GOTO                                           #  RESTART THIS LOOP
001522: 12,3446           25330                                    LAMBLOOP
001523:
001524: 12,3447           77745        BIGTIME            DLOAD
001525: 12,3450           02762                                    TPREV
001526: 12,3451           00037                           STORE    T
001527:
001528: 12,3452           71201        LOENERGY           SETPD    DLOAD                                 #  LOW ENERGY TRAJECTORY RESULTED
001529: 12,3453           00001                                    0
001530: 12,3454           02766                                    COGA                                  #  IN OVERFLOW OF TIME.
001531: 12,3455           00017                           STORE    COGAMAX                               #  THIS IS THE NEW BOUND.
001532: 12,3456           77650                           GOTO
001533: 12,3457           25436                                    COMMONLM
001534:
001535: 12,3460           51545        SUFFCHEK           DLOAD    ABS
001536: 12,3461           02760                                    TERRLAMB
001537: 12,3462           41325                           PDDL     DMP
001538: 12,3463           02671                                    TDESIRED                              #                                PL AT 2D
001539: 12,3464           10774                                    BEE17
001540: 12,3465           45215                           DAD      DSU                                   #                                PL AT 0D
001541: 12,3466           11023                                    ONEBIT
001542: 12,3467           43044                           BPL      SETGO
001543: 12,3470           25516                                    INITV
001544: 12,3471           02434                                    SOLNSW
001545: 12,3472           25516                                    INITV
001546: 12,3473           43001        360LAMB            SETPD    SETGO                                 #  LAMBERT CANNOT HANDLE CSTH=1
001547: 12,3474           00001                                    0
001548: 12,3475           02434                                    SOLNSW
001549: 12,3476           02710                                    RTNLAMB
001550:
001551: 12,3477           71331        NOGUESS            SSP      DLOAD
001552: 12,3500           00051                                    TWEEKIT
001553: 12,3501           10000                                    20000
001554: 12,3502           00011                                    COGAMIN
001555: 12,3503           65342                           SR1      PDDL                                  #                                PL AT 2


001557: 12,3504           00017                                    COGAMAX
001558: 12,3505           43342                           SR1      DAD
001559: 12,3506           77626                           STADR                                          #                                PL AT 0
001560: 12,3507           75011                           STORE    COGA
001561: 12,3510           00015                           STORE    DCOGA
001562: 12,3511           77650                           GOTO
001563: 12,3512           25330                                    LAMBLOOP
001564:
001565: 12,3513           52145        LOLIM              DLOAD    GOTO
001566: 12,3514           11027                                    COGLOLIM                              #  COGLOLIM=-.999511597
001567: 12,3515           25320                                    MINCOGA
001568:
001569: 12,3516           60345        INITV              DLOAD    NORM
001570: 12,3517           00041                                    R1
001571: 12,3520           00047                                    X1
001572: 12,3521           70525                           PDDL     SR1                                   #                                PL AT 2
001573: 12,3522           02740                                    P
001574: 12,3523           77671                           DDV                                            #                                PL AT 0
001575: 12,3524           75457                           SL*      SQRT
001576: 12,3525           20175                                    0          -4,1
001577: 12,3526           72405                           DMP      SL1
001578: 12,3527           00021                                    ROOTMU
001579: 12,3530           41206                           PUSH     DMP                                   #  0D=VTAN (+7)                  PL AT 2
001580: 12,3531           02766                                    COGA
001581: 12,3532           74261                           SL       VXSC
001582: 12,3533           20206                                    5
001583: 12,3534           02722                                    UR1
001584: 12,3535           77725                           PDDL                                           #  XCH WITH 0D                   PL AT 0,6
001585: 12,3536           76561                           VXSC     VSL1
001586: 12,3537           02674                                    UN
001587: 12,3540           53235                           VXV      VAD
001588: 12,3541           02722                                    UR1                                   #                                PL AT 0
001589: 12,3542           77772                           VSL1
001590: 12,3543           02744                           STORE    VVEC
001591: 12,3544           53135                           SLOAD    BZE
001592: 12,3545           02702                                    VTARGTAG
001593: 12,3546           25551                                    TARGETV
001594: 12,3547           77650                           GOTO
001595: 12,3550           02710                                    RTNLAMB
001596:
001597: 12,3551           45145        TARGETV            DLOAD    CALL
001598: 12,3552           02720                                    MAGVEC2
001599: 12,3553           24701                                    LAMENTER
001600: 12,3554           02703                           STORE    VTARGET
001601: 12,3555           77650                           GOTO
001602: 12,3556           02710                                    RTNLAMB
001603:


001605: 12,3557           40220        TIMERAD            STQ      SETPD                                 #                                PL AT 0
001606: 12,3560           02710                                    RTNTR
001607: 12,3561           00001                                    0
001608: 12,3562           77600                           BOV
001609: 12,3563           25564                                    +1
001610: 12,3564           63375                           VLOAD    PDVL                                  #                                PL AT 6
001611: 12,3565           02655                                    RVEC
001612: 12,3566           02744                                    VVEC
001613: 12,3567           77624                           CALL
001614: 12,3570           11030                                    PARAM
001615: 12,3571           71200                           BOV      DLOAD
001616: 12,3572           24764                                    COGAOVFL                              #                                PL AT 0
001617: 12,3573           11007                                    D1/32
001618: 12,3574           41225                           DSU      DMP
001619: 12,3575           02742                                    R1A
001620: 12,3576           02740                                    P
001621: 12,3577           41366                           SQRT     DMP
001622: 12,3600           02766                                    COGA
001623: 12,3601           74212                           SL4      VXSC
001624: 12,3602           02712                                    U2
001625: 12,3603           45325                           PDDL     DSU                                   #                                PL AT 6
001626: 12,3604           11001                                    D1/64
001627: 12,3605           02742                                    R1A
001628: 12,3606           52361                           VXSC     VSU                                   #                                PL AT 0
001629: 12,3607           02722                                    UR1
001630: 12,3610           53512                           VSL4     UNIT
001631: 12,3611           77600                           BOV
001632: 12,3612           25670                                    CIRCULAR
001633: 12,3613           60325                           PDDL     NORM                                  #  0D=UNIT(ECC) (+3)             PL AT 6
001634: 12,3614           02756                                    RDESIRED                              #  36D=ECC (+3)
001635: 12,3615           00047                                    X1
001636: 12,3616           41325                           PDDL     DMP                                   #                                PL AT 8
001637: 12,3617           00041                                    R1
001638: 12,3620           02740                                    P
001639: 12,3621           56257                           SL*      DDV                                   #                                PL AT 6
001640: 12,3622           20201                                    0,1
001641: 12,3623           56225                           DSU      DDV
001642: 12,3624           11005                                    D1/16
001643: 12,3625           00045                                    36D                                   #  36D=ECC (+3)
001644: 12,3626           00031                           STORE    COSF
001645: 12,3627           63400                           BOV      DSQ
001646: 12,3630           25674                                    BADR2
001647: 12,3631           50021                           BDSU     BMN
001648: 12,3632           11003                                    D1/4
001649: 12,3633           25674                                    BADR2
001650: 12,3634           75366                           SQRT     SIGN
001651: 12,3635           02755                                    SGNRDOT
001652: 12,3636           77614                           CLEAR
001653: 12,3637           04272                                    APSESW


001655: 12,3640           76561        TERMNVEC           VXSC     VSL1
001656: 12,3641           02674                                    UN
001657: 12,3642           63235                           VXV      PDVL                                  #  VXCH WITH 0D          PL AT 0,6
001658: 12,3643           00001                                    0D
001659: 12,3644           53361                           VXSC     VAD                                   #                        PL AT 0
001660: 12,3645           00031                                    COSF
001661: 12,3646           41572                           VSL1     PUSH                                  #  0D=U2                 PL AT 6
001662:
001663: 12,3647           56241                           DOT      DDV                                   #  LIMITS RESULT TO POSMAX OR NEGMAX
001664: 12,3650           02722                                    UR1
001665: 12,3651           25766                                    DP1/4
001666: 12,3652           40142                           SR1      BOV                                   #  SCALE BACK DOWN TO NORMAL
001667: 12,3653           25654                                    +1                                    #  CLEAR OVFIND IF SET
001668: 12,3654           26732                           STOVL    CSTH                                  #  CSTH (+1)
001669: 12,3655           02722                                    UR1
001670: 12,3656           76435                           VXV      VSL1
001671: 12,3657           72441                           DOT      SL1
001672: 12,3660           02674                                    UN
001673: 12,3661           16730                           STODL    SNTH                                  #  SNTH (+1)
001674: 12,3662           02740                                    P
001675: 12,3663           77624                           CALL
001676: 12,3664           24767                                    GETX
001677: 12,3665           77614                           CLRGO
001678: 12,3666           02634                                    SOLNSW
001679: 12,3667           24747                                    COMMNOUT
001680:
001681: 12,3670           43001        CIRCULAR           SETPD    SETGO
001682: 12,3671           00001                                    0
001683: 12,3672           02434                                    SOLNSW
001684: 12,3673           25752                                    ABTCONIC
001685:
001686: 12,3674           75345        BADR2              DLOAD    SIGN
001687: 12,3675           24005                                    LODPHALF
001688: 12,3676           00031                                    COSF
001689: 12,3677           14031                           STODL    COSF
001690: 12,3700           24007                                    KEPZERO
001691: 12,3701           77614                           SETGO
001692: 12,3702           04032                                    APSESW
001693: 12,3703           25640                                    TERMNVEC
001694:


001696: 12,3704           40220        APSIDES            STQ      SETPD                                 #                        PL AT 0
001697: 12,3705           02710                                    RTNAPSE
001698: 12,3706           00001                                    0D
001699: 12,3707           77600                           BOV
001700: 12,3710           25711                                    +1
001701: 12,3711           63375                           VLOAD    PDVL                                  #                        PL AT 6
001702: 12,3712           02655                                    RVEC
001703: 12,3713           02744                                    VVEC
001704: 12,3714           77624                           CALL
001705: 12,3715           11030                                    PARAM
001706: 12,3716           77600                           BOV                                            #                        PL AT 0
001707: 12,3717           25720                                    GETECC
001708: 12,3720           42405        GETECC             DMP      SL4
001709: 12,3721           02742                                    R1A
001710: 12,3722           75421                           BDSU     SQRT
001711: 12,3723           11001                                    D1/64
001712: 12,3724           02752                           STORE    ECC
001713: 12,3725           65215                           DAD      PDDL                                  #                        PL AT 2
001714: 12,3726           10775                                    D1/8
001715: 12,3727           00041                                    R1
001716: 12,3730           72405                           DMP      SL1
001717: 12,3731           02740                                    P
001718: 12,3732           77671                           DDV                                            #                        PL AT 0
001719: 12,3733           60325                           PDDL     NORM                                  #  0D=RP (+29 OR +27)    PL AT 2
001720: 12,3734           02742                                    R1A
001721: 12,3735           00047                                    X1
001722: 12,3736           53725                           PDDL     SL*                                   #                        PL AT 4
001723: 12,3737           00041                                    R1
001724: 12,3740           20174                                    0          -5,1
001725: 12,3741           45271                           DDV      DSU                                   #                        PL AT 2,0
001726: 12,3742           50000                           BOV      BMN
001727: 12,3743           25747                                    INFINAPO
001728: 12,3744           25747                                    INFINAPO
001729: 12,3745           77650                           GOTO
001730: 12,3746           02710                                    RTNAPSE
001731: 12,3747           52145        INFINAPO           DLOAD    GOTO                                  #  RETURNS WITH APOAPSIS IN MPAC, PERIAPSIS
001732: 12,3750           24020                                    LDPOSMAX
001733: 12,3751           02710                                    RTNAPSE                               #  THAT PL IS AT 0.
001734:


001736: 12,3752           77776        ABTCONIC           EXIT
001737: 12,3753           05642                           TC       POODOO
001738: 12,3754           20607                           OCT      20607
001739:
001740: 12,3755  12,2017               LDPOSMAX           EQUALS   LODPMAX                               #  DPPOSMAX IN LOW MEMORY.
001741:
001742:                                                                                                  #  ERASABLE ASSIGNMENTS
001743:                                                                                                  #  KEPLER SUBROUTINE
001744:
001745:                                                                                                  #  INPUT -
001746:                                                                                                  #  RRECT         ERASE   +5
001747:                                                                                                  #  VRECT         ERASE   +5
001748:                                                                                                  #  TAU.          ERASE   +1
001749:                                                                                                  #  XKEP          ERASE   +1
001750:                                                                                                  #  TC            ERASE   +1
001751:                                                                                                  #  XPREV         ERASE   +1
001752: 12,3755                        1/MU               EQUALS   14D
001753: 12,3755                        ROOTMU             EQUALS   16D
001754: 12,3755                        1/ROOTMU           EQUALS   18D
001755:
001756:                                                                                                  #  OUTPUT -
001757:                                                                                                  #  RCV           ERASE   +5
001758:                                                                                                  #  VCV           ERASE   +5
001759:                                                                                                  #  RC            ERASE   +1
001760:                                                                                                  #  XPREV         ERASE   +1
001761:
001762:                                                                                                  #  DEBRIS -
001763: 12,3755                        ALPHA              EQUALS   8D
001764: 12,3755                        XMAX               EQUALS   10D
001765: 12,3755                        XMIN               EQUALS   12D
001766: 12,3755                        X                  EQUALS   20D
001767: 12,3755                        XI                 EQUALS   24D
001768: 12,3755                        S(XI)              EQUALS   26D
001769: 12,3755                        XSQC(XI)           EQUALS   28D
001770: 12,3755                        T                  EQUALS   30D
001771: 12,3755                        R1                 EQUALS   32D
001772: 12,3755                        KEPC1              EQUALS   34D
001773: 12,3755                        KEPC2              EQUALS   36D
001774:                                                                                                  #  DELX          ERASE   +1
001775:                                                                                                  #  DELT          ERASE   +1
001776:                                                                                                  #  URRECT        ERASE   +5
001777:                                                                                                  #  RCNORM        ERASE   +1
001778:                                                                                                  #  XPREV         EQUALS  XKEP
001779:
001780:
001781:                                                                                                  #  LAMBERT SUBROUTINE
001782:
001783:                                                                                                  #  INPUT -
001784:                                                                                                  #  R1VEC         ERASE   +5


001786:                                                                                                  #  R2VEC         ERASE   +5
001787:                                                                                                  #  TDESIRED      ERASE   +1
001788:                                                                                                  #  GEOMSGN       ERASE   +0
001789:                                                                                                  #  GUESSW                        0 IF COGA GUESS AVAILABLE, 1 IF NOT
001790:                                                                                                  #  COGA          ERASE   +1      INPUT ONLY IF GUESSW IS ZERO.
001791:                                                                                                  #  NORMSW                        0 IF UN TO BE COMPUTED, 1 IF UN INPUT
001792:                                                                                                  #  UN            ERASE   +5      ONLY USED IF NORMSW IS 1
001793:                                                                                                  #  VTARGTAG      ERASE   +0
001794:                                                                                                  #  TWEEKIT       EQUALS  40D     ONLY USED IF GUESSW IS 0
001795:
001796:                                                                                                  #  OUTPUT -
001797:                                                                                                  #  VTARGET       ERASE   +5      AVAILABLE ONLY IF VTARGTAG IS ZERO.
001798:                                                                                                  #  V1VEC         EQUALS  MPAC
001799:
001800:                                                                                                  #  DEBRIS -
001801:                                                                                                  #  RTNLAMB       ERASE   +0
001802:                                                                                                  #  U2            ERASE   +5
001803:                                                                                                  #  MAGVEC2       ERASE   +1
001804:                                                                                                  #  UR1           ERASE   +5
001805:                                                                                                  #  R1            EQUALS  31D
001806:                                                                                                  #  UN            ERASE   +5
001807:                                                                                                  #  SNTH          ERASE   +1
001808:                                                                                                  #  CSTH          ERASE   +1
001809:                                                                                                  #  1-CSTH        ERASE   +1
001810:                                                                                                  #  CSTH-RHO      ERASE   +1
001811: 12,3755                        COGAMAX            EQUALS   14D                                   #  CLOBBERS 1/MU
001812: 12,3755                        COGAMIN            EQUALS   8D
001813: 12,3755                        DCOGA              EQUALS   12D
001814:                                                                                                  #  TWEEKIT       EQUALS  40D
001815:                                                                                                  #  P             ERASE   +1
001816:                                                                                                  #  COGA          ERASE   +1
001817:                                                                                                  #  R1A           ERASE   +1
001818:                                                                                                  #  X             EQUALS  20D
001819:                                                                                                  #  XSQ           EQUALS  22D
001820:                                                                                                  #  XI            EQUALS  24D
001821:                                                                                                  #  S(XI)         EQUALS  26D
001822:                                                                                                  #  XSQC(XI)      EQUALS  28D
001823:                                                                                                  #  T             EQUALS  30D
001824:                                                                                                  #  KEPC1         EQUALS  34D
001825:                                                                                                  #  KEPC2         EQUALS  36D
001826:                                                                                                  #  SLOPESW
001827:                                                                                                  #  SOLNSW
001828:
001829:                                                                                                  #  OTHERS -
001830:                                                                                                  #  RVEC          EQUALS  R1VEC
001831:                                                                                                  #  VVEC          ERASE   +5
001832:                                                                                                  #  COGAFLAG
001833:                                                                                                  #  RVSW
001834:                                                                                                  #  INFINFLG
001835:                                                                                                  #  APSESW


001837:                                                                                                  #  360SW
001838:                                                                                                  #  RTNTT         EQUALS  RTNLAMB
001839:                                                                                                  #  ECC           ERASE   +1
001840:                                                                                                  #  RTNTR         EQUALS  RTNLAMB
001841:                                                                                                  #  RTNAPSE       EQUALS  RTNLAMB
001842:                                                                                                  #  R2            EQUALS  MAGVEC2
001843: 12,3755                        COSF               EQUALS   24D
001844:                                                                                                  #  RTNPRM        ERASE   +0
001845:                                                                                                  #  SGNRDOT       ERASE   +0
001846:                                                                                                  #  RDESIRED      ERASE   +1
001847:
001848:
001849:                                                                                                  #  ITERATOR SUBROUTINE
001850:                                                                                                  #  ORDERSW
001851: 12,3755                        MAX                EQUALS   14D                                   #  CLOBBERS 1/MU
001852: 12,3755                        MIN                EQUALS   8D
001853:                                                                                                  #  INDEP         ERASE   +1
001854: 12,3755                        DELINDEP           EQUALS   12D
001855: 12,3755                        ITERCTR            EQUALS   22D
001856: 12,3755                        DEP                EQUALS   30D
001857:                                                                                                  #  DELDEP        ERASE   +1
001858:                                                                                                  #  DEPREV        ERASE   +1
001859: 12,3755                        TWEEKIT            EQUALS   40D
001860:
001861:
001862:                                                                                                  #  MORE KEPLER
001863:                                                                                                  #  EPSILONT      ERASE   +1
001864:
001865:
001866:                                                                                                  #  MORE LAMBERT
001867:                                                                                                  #  TERRLAMB      EQUALS  DELDEP
001868:                                                                                                  #  TPREV         EQUALS  DEPREV
001869:                                                                                                  #  EPSILONL      EQUALS  EPSILONT +2     DOUBLE PRECISION WORD
001870:

End of include-file CONIC_SUBROUTINES.agc.  Parent file is MAIN.agc


