
Source Code


000002:                                                                                                  ## Copyright:   Public domain.
000003:                                                                                                  ## Filename:    CONIC_SUBROUTINES.agc
000004:                                                                                                  ## Purpose:     A section of Luminary 1C, revision 131.
000005:                                                                                                  ##              It is part of the source code for the Lunar Module's (LM)
000006:                                                                                                  ##              Apollo Guidance Computer (AGC) for Apollo 13.
000007:                                                                                                  ##              This file is intended to be a faithful transcription, except
000008:                                                                                                  ##              that the code format has been changed to conform to the
000009:                                                                                                  ##              requirements of the yaYUL assembler rather than the
000010:                                                                                                  ##              original YUL assembler.
000011:                                                                                                  ## Reference:   pp. 1153-1197
000012:                                                                                                  ## Contact:     Ron Burkey <info@sandroid.org>.
000013:                                                                                                  ## Website:     www.ibiblio.org/apollo/index.html
000014:                                                                                                  ## Mod history: 06/01/03 RSB.   Began transcribing.
000015:                                                                                                  ##              05/14/05 RSB    Corrected website reference above.
000016:                                                                                                  ##              2010-08-24 JL   Fixed page 1162 number.
000017:                                                                                                  ##              2017-01-06 RSB  Page numbers now agree with those on the
000018:                                                                                                  ##                              original hardcopy, as opposed to the PDF page
000019:                                                                                                  ##                              numbers in 1701.pdf.
000020:                                                                                                  ##              2017-01-28 RSB  WTIH -> WITH.
000021:                                                                                                  ##              2017-02-27 RSB  Proofed comment text using octopus/ProoferComments.
000022:                                                                                                  ##              2017-03-01 RSB  Fixed lingering comment-text typos.
000023:                                                                                                  ##                              Added in ##-comments with hyperlinks for some of the
000024:                                                                                                  ##                              documents reference in the code comments.  (Just as
000025:                                                                                                  ##                              an experiment; I didn't do it systematically.)
000026:


000028:                                                                                                  #  PROGRAM DESCRIPTION - ENTIRE CONIC SUBROUTINE LOG SECTION     DATE - 1 SEPTEMBER 1967
000029:                                                                                                  #  MOD NO. - 0                                                   LOG SECTION - CONIC SUBROUTINES
000030:                                                                                                  #  MOD BY KRAUSE                                                 ASSEMBLY - COLOSSUS REVISION 88
000031:
000032:                                                                                                  #  FUNCTIONAL DESCRIPTION -
000033:                                                                                                  #        THE FOLLOWING SET OF SUBROUTINES SOLVE VARIOUS PROBLEMS INVOLVING THE TRAJECTORY PRODUCED BY A CENTRAL
000034:                                                                                                  #        INVERSE-SQUARE FORCE ACTING ON A POINT MASS, AS OUTLINED IN THE CMC AND LGC LUNAR LANDING MISSION GSOP, SECTION
000035:                                                                                                  #        5.5.1.2.  A GENERAL USAGE POINT-OF-VIEW WAS TAKEN IN FORMULATING, MECHANIZING, AND SCALING THE SUBROUTINES,
000036:                                                                                                  #        RATHER THAN OPTIMIZING EACH FOR A PARTICULAR USE.  THEREFORE, MULTIPLE USAGE CAN BE MADE OF THE SUBROUTINES
000037:                                                                                                  #        INVOLVING ANY REALISTIC SET OF CONSTRAINTS.  IT SHOULD BE NOTED THAT ONLY ONE SET OF CODING IS USED, WHETHER THE
000038:                                                                                                  #        EARTH, MOON, OR ANY OTHER CELESTIAL BODY IS SPECIFIED AS THE CENTRAL BODY OF THE PROBLEM, PROVIDED ONE OBSERVES
000039:                                                                                                  #        THE INHERENT SCALE CHANGE REQUIRED IN POSITION, VELOCITY, MU, AND TIME, AS OUTLINED IN MISSION PROGRAMMING
000040:                                                                                                  #        DEFINITION MEMO NO. 10.  THIS CAN BE ACCOMPLISHED BY SIMPLY ADDING TO THE MUTABLE AND INITIALIZING THE SUBROU-
000041:                                                                                                  #        TINES APPROPRIATELY.
000042:
000043:                                                                                                  #        DUE TO THE UNIFORMITY OF THE EQUATIONS INVOLVED, CODING WAS MINIMIZED BY TREATING INDIVIDUAL EQUATIONS AND
000044:                                                                                                  #        BLOCKS OF EQUATIONS AS SUBROUTINES OF LOWER RANK WHENEVER POSSIBLE.  AS A RESULT, THREE BY-PRODUCTS SUBROUTINES,
000045:                                                                                                  #        DIRECTLY USABLE AS INDEPENDENT SUBROUTINES, WERE GENERATED.
000046:
000047:                                                                                                  #  RESTRICTIONS -
000048:                                                                                                  #        THE ONLY LIMITATION IN THE SCOPE OF PROBLEM WHICH CAN BE SOLVED BY A PARTICULAR SUBROUTINE IS THE SCALING
000049:                                                                                                  #        LIMIT OF EACH PARAMETER AS SPECIFIED IN THE GSOP.  THESE SCALING LIMITS WERE CHOSEN SO THAT ALL FEASIBLE TRAJEC-
000050:                                                                                                  #        TORIES COULD BE HANDLED.
000051:
000052:                                                                                                  #        SINCE THE SUBROUTINES (EXCEPT KEPLER) USE COMMON SUBROUTINES OF LOWER RANK WHICH USE ERASABLE OTHER THAN
000053:                                                                                                  #        THE PUSHLIST (DUE TO ITS LIMITED SIZE) AND COMMON INTERPRETIVE SWITCHES, THE CONIC SUBROUTINES CANNOT BE ALLOWED
000054:                                                                                                  #        TO INTERRUPT EACH OTHER.  IT IS UP TO THE USER TO GUARANTEE THIS CONDITION.
000055:


000057:                                                                                                  #  PROGRAM DESCRIPTION - KEPLER SUBROUTINE                       DATE - 11 OCTOBER 1967
000058:                                                                                                  #  MOD NO. -1                                                    LOG SECTION - CONIC SUBROUTINES
000059:                                                                                                  #  MOD BY KRAUSE                                                 ASSEMBLY - COLOSSUS 103 AND SUNDANCE 222
000060:                                                                                                  #  MOD NO. - 2 (AUGUST 1968) BY ROBERTSON: TO PERMIT BACKDATING BY MORE THAN ONE ORBITAL PERIOD.
000061:                                                                                                  #  MOD NO. - 3 (DEC 1968) BY ROBERTSON:  SUPPRESSION OF X-MODULO-ING
000062:                                                                                                  #  MOD. NO. - 4 (JAN 1969) BY ROBERTSON:  CLEAR OVFIND AT KEPLER ENTRY
000063:
000064:                                                                                                  #  FUNCTIONAL DESCRIPTION -
000065:                                                                                                  #        THIS SUBROUTINE, GIVEN AN INITIAL STATE VECTOR AND THE DESIRED TRANSFER TIME THROUGH WHICH THE STATE IS TO
000066:                                                                                                  #        BE UPDATED ALONG A CONIC TRAJECTORY, COMPUTES THE NEW, UPDATED STATE VECTOR.  THE TRAJECTORY MAY BE ANY CONIC
000067:                                                                                                  #        SECTION - CIRCULAR, ELLIPTIC, PARABOLIC, HYPERPOLIC, OR RECTILINEAR WITH RESPECT TO THE EARTH OR THE MOON. THE
000068:                                                                                                  #        USE OF THE SUBROUTINE CAN BE EXTENDED USING OTHER PRIMARY BODIES BY SIMPLE ADDITIONS TO THE MUTABLE WITHOUT
000069:                                                                                                  #        INTRODUCING ANY CODING CHANGES, ACCEPTING THE INHERENT SCALE FACTOR CHANGES IN POSITION AND VELOCITY.  AN ITERA-
000070:                                                                                                  #        TION TECHNIQUE IS UTILIZED IN THE COMPUTATION.
000071:
000072:                                                                                                  #        IF A NEGATIVE TIME-OF-FLIGHT IS INPUT, THE PROGRAM WILL SOLVE FOR THE STATE WHICH WOULD BE PRODUCED BY
000073:                                                                                                  #        EXTRAPOLATING THE POSITION BACKWARD IN TIME.
000074:
000075:                                                                                                  #        IF THE ABSOLUTE VALUE OF THE DESIRED TRANSFER TIME EXCEEDS THE ORBITAL PERIOD, THE SUBROUTINE, THROUGH A
000076:                                                                                                  #        MODULAR TECHNIQUE, WILL COMPUTE THE STATE CORRESPONDING TO THE DESIRED TIME (WHETHER POSITIVE OR NEGATIVE).
000077:
000078:                                                                                                  #  THE RESTRICTIONS ARE -
000079:                                                                                                  #        1.      (PREVIOUS RESTRICTION ON THE NEGATIVE DESIRED TRANSFER TIME IS NOW DELETED.)
000080:                                                                                                  #        2.      THE PARAMETERS IN THE PROBLEM CANNOT EXCEED THEIR SCALING LIMITS AS SPECIFIED IN THE GSOP.  IF
000081:                                                                                                  #                ANY OF THESE LIMITS ARE EXCEEDED, THE RESULTING SOLUTION WILL BE MEANINGLESS.
000082:
000083:                                                                                                  #        THE NUMBER OF ITERATIONS AND, THEREFORE, THE COMPUTATION SPEED IS DEPENDENT ON THE ACCURACY OF THE
000084:                                                                                                  #        GUESS, XKFPNEW.  THE AGC COMPUTATION TIME IS APPROXIMATELY .061 SECONDS FOR INITIALIZATION, .065 SECONDS FOR THE
000085:                                                                                                  #        FINAL COMPUTATIONS, PLUS .083 SECONDS FOR EACH ITERATION.
000086:


000088:                                                                                                  #  REFERENCES -
000089:                                                                                                  #        R-479, MISSION PROGRAMMING DEFINITION MEMO NO. 10, LUNAR LANDING MISSION GSOP, SECTION 5.5, SGA
000090:                                                                                                  #        MEMO 67-4.
000091:
000092:                                                                                                  #  INPUT - ERASABLE INITIALIZATION REQUIRED
000093:
000094:                                                                                                  #                * SCALE FACTOR *
000095:                                                                                                  #        VARIABLE*IN POWERS OF 2*                         DESCRIPTION AND REMARKS
000096:                                                                                                  #        --------*--------------*                         -----------------------
000097:                                                                                                  #        RRECT   * +29 FOR EARTH*DP INITIAL POSITION VECTOR IN METERS
000098:                                                                                                  #                * +27 FOR MOON *


000100:                                                                                                  #        VRECT   * +7 FOR EARTH *DP INITIAL VELOCITY VECTOR IN METERS/CENTISECOND
000101:                                                                                                  #                * +5 FOR MOON  *
000102:                                                                                                  #        X1 (38D)* NONE         *INDEX REGISTER SET TO -2D OR -10D ACCORDING TO WHETHER THE EARTH OR MOON,
000103:                                                                                                  #                *              *RESPECTIVELY, IS THE CENTRAL BODY
000104:                                                                                                  #        TAU.    * +28          *DESIRED TRANSFER TIME IN CENTISECONDS (DP)
000105:                                                                                                  #                *              *    MAY BE POS OR NEG AND ABSOLUTE VALUE MAY BE GREATER OR LESS THAN ONE ORBITAL PERIOD.
000106:                                                                                                  #        XKEPNEW * +17 FOR EARTH*DP GUESS OF ROOT X OF KEPLERS EQN IN SQRT(METERS).  SIGN SHOULD AGREE WITH THAT OF TAU.
000107:                                                                                                  #                * +16 FOR MOON *    AND ABS VALUE SHOULD BE LESS THAN THAT CORRESPONDING TO A PERIOD, VIZ, 2PI SQRT(SEMI-
000108:                                                                                                  #                *              *    MAJOR AXIS), FOR SPEED OF CONVERGENCE, BUT IF EITHER CONDITION FAILS, XKEPNEW IS RESET
000109:                                                                                                  #                *              *    BY KEPLER TO A POOR BUT VALID GUESS.
000110:                                                                                                  #        TC      * +28          *DP PREV. VALUE OF TIME IN CENTISECS.  MUST BE LESS THAN ONE ORBITAL PERIOD.
000111:                                                                                                  #        XPREV   * +17 FOR EARTH*DP PREV. VALUE OF X IN SQRT(METERS).  MUST BE LESS THAN AN X CORRESPONDING TO ONE
000112:                                                                                                  #                * +16 FOR MOON *    ORBITAL PERIOD, VIZ, 2PI SQRT(SEMI-MAJOR AXIS)
000113:
000114:                                                                                                  #  SUBROUTINES CALLED -
000115:                                                                                                  #        DELTIME
000116:
000117:                                                                                                  #  CALLING SEQUENCE AND NORMAL EXIT MODES -
000118:                                                                                                  #        KEPRTN-2        GOTO                    MUST BE IN INTERPRETIVE MODE BUT OVFIND ARBITRARY.
000119:                                                                                                  #        KEPRTN-1                KEPLER          RETURNS WITH XPREV IN MPAC.  PL IS AT 0.
000120:                                                                                                  #        KEPRTN          ...                     CONTINUE
000121:
000122:                                                                                                  #        KEPLER MUST NOT BE CALLED DIRECTLY SINCE AN INTERRUPTION OF IT WOULD DESTROY THE ERASABLES IT NEEDS TO COMPLETE
000123:                                                                                                  #        THE INTERRUPTED JOB.  THEREFORE THE USER MUST CALL CSMCONIC OR LEMCONIC WHICH GUARANTEES NO INTERRUPTS AND WHICH
000124:                                                                                                  #        ALSO CALLS KEPPREP TO COMPUTE A GUESS OF XKEPNEW.
000125:
000126:                                                                                                  #  ABORT EXIT MODES -
000127:                                                                                                  #        NONE
000128:
000129:                                                                                                  #  OUTPUT -
000130:                                                                                                  #                * SCALE FACTOR *
000131:                                                                                                  #        VARIABLE*IN POWERS OF 2*                         DESCRIPTION AND REMARKS
000132:                                                                                                  #        --------*--------------*                         -----------------------
000133:                                                                                                  #        RCV     * +29 FOR EARTH*DP TERMINAL POSITION VECTOR IN METERS
000134:                                                                                                  #                * +27 FOR MOON *
000135:                                                                                                  #        VCV     * +7 FOR EARTH *DP TERMINAL VELOCITY VECTOR IN METERS/CENTISEC
000136:                                                                                                  #                * +5 FOR MOON  *
000137:                                                                                                  #        TC      * +28          *DP TRANSFER TIME IN CENTISECS TO WHICH KEPLER CONVERGED.  ALWAYS LESS THAN ONE PERIOD.
000138:                                                                                                  #        XPREV   * +17 FOR EARTH*DP VALUE OF X IN SQRT(METERS) TO WHCIH KEPLER CONVERGED.  ALWAYS LESS THAN THE X
000139:                                                                                                  #                * +16 FOR MOON *    CORRESPONDING TO ONE PERIOD.


000141:                                                                                                  #        FOR OTHER OUTPUT WHICH MAY BE OF USE, SEE DEBRIS.
000142:
000143:                                                                                                  #  DEBRIS -
000144:
000145:                                                                                                  #        PARAMETERS WHICH MAY BE OF USE -
000146:
000147:                                                                                                  #                * SCALE FACTOR *
000148:                                                                                                  #        VARIABLE*IN POWERS OF 2*                         DESCRIPTION AND REMARKS
000149:                                                                                                  #        --------*--------------*                         -----------------------
000150:                                                                                                  #        URRECT  * +1           *DP UNIT VECTOR OF INITIAL POSITION
000151:                                                                                                  #        R1      * +29 FOR EARTH*DP MAGNITUDE OF INITIAL POSITION IN METERS
000152:                                                                                                  #                * +27 FOR MOON *
000153:                                                                                                  #        ALPHA   * -22 FOR EARTH*DP INVERSE OF SEMIMAJOR AXIS IN 1/METERS
000154:                                                                                                  #                * -20 FOR MOON *
000155:                                                                                                  #        TMODULO * +28          *DP INTEGRAL NUMBER OF PERIODS IN CENTISECS.  WHICH WAS SUBTRACTED FROM TAU. TO PRODUCE A
000156:                                                                                                  #                *              *TAU. OF LESS THAN ONE PERIOD.
000157:
000158:                                                                                                  #  PARAMETERS OF NO USE -
000159:                                                                                                  #        DP PARAMETERS - FPSILENT, DELX, DELT, RCNORM, XMODULO, PLUS PUSHLIST REGISTERS 0 THROUGH 39D.
000160:


000162:                                                                                                  #  PROGRAM DESCRIPTION - LAMBERT SUBROUTINE                      DATE - 1 SEPTEMBER 1967
000163:                                                                                                  #  MOD NO. - 0                                                   LOG SECTION - CONIC SUBROUTINES
000164:                                                                                                  #  MOD BY KRAUSE                                                 ASSEMBLY - COLOSSUS REVISION 88
000165:
000166:                                                                                                  #  FUNCTIONAL DESCRIPTION -
000167:                                                                                                  #        THIS SUBROUTINE CALCULATES THE INITIAL VELOCITY REQUIRED TO TRANSFER A POINT-MASS ALONG A CONIC TRAJECTORY
000168:                                                                                                  #        FROM AN INITIAL POSITION TO A TERMINAL POSITION IN A PRESCRIBED TIME INTERVAL.  THE RESULTING TRAJECTORY MAY BE
000169:                                                                                                  #        A SECTION OF A CIRCLE, ELLIPSE, PARABOLA, OR HYPERBOLA WITH RESPECT TO THE EARTH OR THE MOON.  THE USE OF THE
000170:                                                                                                  #        SUBROUTINE CAN BE EXTENDED USING OTHER PRIMARY BODIES BY SIMPLE ADDITIONS TO THE MUTABLE WITHOUT INTRODUCING ANY
000171:                                                                                                  #        CODING CHANGES, ACCEPTING THE INHERENT SCALE FACTOR CHANGES IN POSITION AND VELOCITY.  AN ITERATION TECHNIQUE IS
000172:                                                                                                  #        UTILIZED IN THE COMPUTATION.
000173:
000174:                                                                                                  #  THE RESTRICTIONS ARE -
000175:                                                                                                  #        1. RECTILINEAR TRAJECTORIES CANNOT BE COMPUTED.
000176:                                                                                                  #        2. AN ACCURACY DEGRADATION OCCURS AS THE COSINE OF THE TRUE ANOMALY DIFFERENCE APPROACHES +1.0.
000177:                                                                                                  #        3. THE ANGLE BETWEEN ANY POSITION VECTOR AND ITS VELOCITY VECTOR MUST BE GREATER THAN 1 DEGREE 47.5 MINUTES
000178:                                                                                                  #           AND LESS THAN 178 DEGREES 12.5 MINUTES.
000179:                                                                                                  #        4. NEGATIVE TRANSFER TIME IS AMBIGUOUS AND WILL RESULT IN NO SOLUTION.
000180:                                                                                                  #        5. THE PARAMETERS IN THE PROBLEM MUST NOT EXCEED THEIR SCALING LIMITS SPECIFIED IN THE GSOP.  IF THE
000181:                                                                                                  #           LIMITS ARE EXCEEDED, THE RESULTING SOLUTION WILL BE MEANINGLESS.
000182:
000183:                                                                                                  #        THE NUMBER OF ITERATIONS AND, THEREFORE, THE COMPUTATIONS SPEED IS DEPENDENT ON THE ACCURACY OF THE FIRST
000184:                                                                                                  #        GUESS OF THE INDEPENDENT VARIABLE, COGA.                           THE AGC COMPUTATION TIME IS APPROXIMATE-
000185:                                                                                                  #        LY .105 SECONDS FOR INITIALIZATION, .069 SECONDS FOR FINAL COMPUTATIONS, PLUS .205 SECONDS FOR EACH ITERATION.
000186:


000188:                                                                                                  #  REFERENCES -
000189:                                                                                                  #        R-479, MISSION PROGRAMMING DEFINITION MEMO NO. 10, LUNAR LANDING MISSION GSOP - SECTION 5.5, SGA MEMO 67-8,
000190:                                                                                                  #        SGA MEMO 67-4.
000191:
000192:                                                                                                  #  INPUT - ERASABLE INITIALIZATION REQUIRED
000193:
000194:                                                                                                  #                * SCALE FACTOR *
000195:                                                                                                  #        VARIABLE*IN POWERS OF 2*                         DESCRIPTION AND REMARKS
000196:                                                                                                  #        --------*--------------*                         -----------------------
000197:                                                                                                  #        R1VEC   * +29 FOR EARTH*DP INITIAL POSITION VECTOR IN METERS
000198:                                                                                                  #                * +27 FOR MOON *
000199:                                                                                                  #        R2VEC   * +29 FOR EARTH*DP TARGET OR TERMINAL POSITION VECTOR IN METERS
000200:                                                                                                  #                * +27 FOR MOON *
000201:                                                                                                  #        TDESIRED* +28          *DP DESIRED TRANSFER TIME IN CENTISECONDS
000202:                                                                                                  #        X1 (38D)* NONE         *INDEX REGISTER SET TO -2D OR -10D ACCORDING TO WHETHER THE EARTH OR MOON,
000203:                                                                                                  #                *              *RESPECTIVELY, IS THE CENTRAL BODY
000204:                                                                                                  #        GEOMSGN * NONE         *SP +.5 IF DESIRED TRANSFER ANGLE IS LESS THAN 180 DEGREES, -.5 IF GREATER THAN 180 DEG.
000205:                                                                                                  #        GUESSW  * NONE         *AN INTERPRETER SWITCH TO BE SET IF NO GUESS OF COGA IS AVAILABLE, CLEAR IF A GUESS OF


000207:                                                                                                  #                *              *COGA IS TO BE USED BY LAMBERT
000208:                                                                                                  #        COGA    * +5           *DP GUESS OF COTANGNT OF FLIGHT PATH ANGLE (MEASURED FROM VERTICAL).  THIS WILL BE
000209:                                                                                                  #                               *IGNORED IF GUESSW IS SET.
000210:                                                                                                  #        NORMSW  * NONE         *AN INTERPRETER SWITCH TO BE SET IF UN IS TO BE AN INPUT TO THE SUBROUTINE, CLEAR IF
000211:                                                                                                  #                *              *LAMBERT IS TO COMPUTE ITS OWN NORMAL (UN).
000212:                                                                                                  #        UN      * +1           *DP UNIT NORMAL TO THE DESIRED ORBIT PLANE IN THE DIRECTION OF THE RESULTING ANGULAR
000213:                                                                                                  #                *              *MOMENTUM VECTOR.  THIS WILL BE IGNORED IF NORMSW IS CLEAR.
000214:                                                                                                  #        VTARGTAG* NONE         *A S.P. TAG TO BE SET TO ZERO IF LAMBERT IS TO COMPUTE THE VELOCITY AT R2VEC AS WELL AS
000215:                                                                                                  #                *              *AT R1VEC.
000216:                                                                                                  #        ITERCTR * NONE         *A S.P. COUNTER WHICH SPECIFIES THE MAXIMUM NUMBER OF ITERATIONS ALLOWABLE.
000217:                                                                                                  #                *              *(AN ITERATION MEANS A PASS THRU KEPLER EQN (DELTIME).  AT LEAST ONE OF THESE MUST
000218:                                                                                                  #                *              *ALWAYS OCCUR, EVEN IF COGA CORRESPONDING TO SOLUTION WERE INPUT AS A GUESS.)
000219:                                                                                                  #                *              *TWENTY ITERATIONS ARE SUFFICIENT TO SOLVE ALL PROBLEMS INCLUDING THOSE WITHOUT GUESS.
000220:
000221:                                                                                                  #  SUBROUTINES CALLED -
000222:                                                                                                  #        GEOM, GETX, DELTIME, ITERATOR, LAMENTER (PART OF NEWSTATE)
000223:
000224:                                                                                                  #  CALLING SEQUENCE AND NORMAL EXIT MODES -
000225:                                                                                                  #        L       CALL                    MUST BE IN INTERPRETIVE MODE BUT OVFIND ARBITRARY.
000226:                                                                                                  #        L+1             LAMBERT         RETURNS WITH PL AT 0 AND WITH VVEC IN MPAC IF VTARGTAG WAS NON-ZERO OR VTARGET
000227:                                                                                                  #                                        IN MPAC IF VTARGTAG WAS ZERO
000228:                                                                                                  #        L+2     BON                     CONTINUE IF SOLNSW CLEAR SINCE SOLUTION IS ACCEPTABLE
000229:                                                                                                  #        L+3             SOLNSW
000230:                                                                                                  #        L+4             LAMABORT
000231:
000232:                                                                                                  #        IF A LAMBERT RESULT IS TO BE A FIRST GUESS FOR THE NEXT LAMBERT CALCULATION, COGA MUST BE PRESERVED AND
000233:                                                                                                  #        GUESSW MUST BE CLEAR FOR EACH SUCCEEDING LAMBERT CALL.
000234:
000235:                                                                                                  #  ABORT EXIT MODES -
000236:                                                                                                  #        IF SOLNSW WAS SET UPON EXITING, EITHER LAMBERT WAS ASKED TO COMPUTE A TRANSFER TOO NEAR 0 OR 260 DEG, OR T
000237:                                                                                                  #        WAS TOO SMALL TO PRODUCE A REALISTIC TRANSFER BETWEEN R1VEC AND R2VEC.  IN EITHER CASE THE FIX MUST BE MADE
000238:                                                                                                  #        ACCORDING TO THE NEEDS OF THE PARTICULAR USER.  THE ABORT EXIT MODE MAY BE CODED AS ...
000239:                                                                                                  #        LAMABORT        DLOAD   ABS             A MEASURE OF PROXIMITY TO 0 OR
000240:                                                                                                  #                                1-CSTH          360 DEGREES.
000241:                                                                                                  #                        DSU     BMN
000242:                                                                                                  #                                ONEBIT
000243:                                                                                                  #                                CHANGER2        CHANGE R2VEC DIRECTION SLIGHTLY.
000244:                                                                                                  #                        DLOAD   DAD
000245:                                                                                                  #                                TDESIRED
000246:                                                                                                  #                                SOMETIME
000247:                                                                                                  #                        STCALL  TDESIRED        INCREASE TDESIRED
000248:                                                                                                  #                                LAMBERT
000249:


000251:                                                                                                  #  OUTPUT -
000252:                                                                                                  #                * SCALE FACTOR *
000253:                                                                                                  #        VARIABLE*IN POWERS OF 2*                         DESCRIPTION AND REMARKS
000254:                                                                                                  #        --------*--------------*                         -----------------------
000255:                                                                                                  #        VVEC    * +7 FOR EARTH *DP INITIAL VELOCITY VECTOR IN METERS/CENTISECOND REQUIRED TO SATISFY THE BOUNDARY VALUE
000256:                                                                                                  #                * +5 FOR MOON  *PROBLEM.
000257:                                                                                                  #        VTARGET * +7 FOR EARTH *DP RESULTANT VELOCITY VECTOR AT R2VEC IN METERS/CENTISECOND.
000258:                                                                                                  #                * +5 FOR MOON  *
000259:                                                                                                  #        SOLNSW  * NONE         *INTERPRETER SWITCH WHICH IS SET IF THE SUBROUTINE CANNOT SOLVE THE PROBLEM, CLEAR IF THE
000260:                                                                                                  #                *              *SOLUTION EXISTS.
000261:
000262:                                                                                                  #        FOR OTHER OUTPUT WHICH MAY BE OF USE, SEE DEBRIS.
000263:
000264:                                                                                                  #  DEBRIS -
000265:                                                                                                  #        PARAMETERS WHICH MAY BE OF USE -
000266:                                                                                                  #                * SCALE FACTOR *
000267:                                                                                                  #        VARIABLE*IN POWERS OF 2*                         DESCRIPTION AND REMARKS
000268:                                                                                                  #        --------*--------------*                         -----------------------
000269:                                                                                                  #        SNTH    * +1           *DP SIN OF ANGLE BETWEEN R1VEC AND R2VEC
000270:                                                                                                  #        CSTH    * +1           *DP COSING OF ANGLE
000271:                                                                                                  #        1-CSTH  * +2           *DP 1-CSTH
000272:                                                                                                  #        COGA    * +5           *DP COTAN OF INITIAL REQUIRED FLIGHT PATH ANGLE MEASURED FROM VERTICAL
000273:                                                                                                  #        P       * +4           *DP RATIO OF SEMILATUS RECTUM TO INITIAL RADIUS
000274:                                                                                                  #        R1A     * +6           *DP RATIO OF INITIAL RADIUS TO SEMIMAJOR AXIS
000275:                                                                                                  #        R1 (32D)* +29 FOR EARTH*DP INITIAL RADIUS IN METERS
000276:                                                                                                  #                * +27 FOR MOON *
000277:                                                                                                  #        UR1     * +1           *DP UNIT VECTOR OF R1VEC
000278:                                                                                                  #        U2      * +1           *DP UNIT VECTOR OF R2VEC
000279:
000280:                                                                                                  #        PARAMETERS OF NO USE
000281:                                                                                                  #                DP PARAMETERS - EPSILONL, CSTH-RHO, TPREV, TERRLAMB, R2, RTNLAMB (SP), PLUS PUSHLIST REGISTER 0 THROUGH 41D
000282:                                                                                                  #                ADDITIONAL INTERPRETIVE SWITCHES USED - INFINFLG, 360SW, SLOPESW, ORDERSW
000283:


000285:                                                                                                  #  PROGRAM DESCRIPTION - TIME-THETA SUBROUTINE                   DATE - 1 SEPTEMBER 1967
000286:                                                                                                  #  MOD NO. - 0                                                   LOG SECTION - CONIC SUBROUTINES
000287:                                                                                                  #  MOD BY KRAUSE                                                 ASSEMBLY - COLOSSUS REVISION 88
000288:
000289:                                                                                                  #  FUNCTIONAL DESCRIPTION -
000290:                                                                                                  #        THIS SUBROUTINE, GIVEN AN INITIAL STATE VECTOR AND A DESIRED TRUE-ANOMALY-DIFFERENCE THROUGH WHICH THE
000291:                                                                                                  #        STATE IS TO BE UPDATED ALONG A CONIC TRAJECTORY, CALCULATES THE CORRESPONDING TIME-OF-FLIGHT AND, IN ADDITION,
000292:                                                                                                  #        PROVIDES THE OPTION OF COMPUTING THE NEW UPDATED STATE VECTOR.  THE RESULTING TRAJECTORY MAY BE A SECTION OF A
000293:                                                                                                  #        CIRCLE, ELLIPSE, PARABOLA, OR HYPERBOLA WITH RESPECT TO THE EARTH OR THE MOON.  THE USE OF THE SUBROUTINE CAN BE
000294:                                                                                                  #        EXTENDED USING OTHER PRIMARY BODIES BY SIMPLE ADDITIONS TO THE MUTABLE WITHOUT INTRODUCING ANY CODING CHANGES,
000295:                                                                                                  #        ACCEPTING THE INHERENT SCALE FACTOR CHANGES IN POSITION AND VELOCITY.
000296:
000297:                                                                                                  #  THE RESTRICTIONS ARE -
000298:                                                                                                  #        1. THE ANGLE BETWEEN ANY POSITION VECTOR AND ITS VELOCITY VECTOR MUST BE GREATER THAN 1 DEGREE 47.5 MINUTES
000299:                                                                                                  #           AND LESS THAN 178 DEGREES 12.5 MINUTES.
000300:                                                                                                  #        2. THE PARAMETERS IN THE PROBLEM MUST NOT EXCEED THEIR SCALING LIMITS SPECIFIED IN THE GSCP.  IF THE LIMITS
000301:                                                                                                  #           ARE EXCEEDED, THE RESULTING SOLUTION WILL BE MEANINGLESS.
000302:
000303:                                                                                                  #        THE AGC COMPUTATION TIME IS APPROXIMATELY .292 SECONDS.
000304:


000306:                                                                                                  #  REFERENCES -
000307:                                                                                                  #        R-479, MISSION PROGRAMMING DEFINITION MEMO NO. 10, LUNAR LANDING MISSION GSOP-SECTION 5.5, SGA MEMO 67-8.
000308:
000309:                                                                                                  #  INPUT - ERASABLE INITIALIZATION REQUIRED
000310:                                                                                                  #                * SCALE FACTOR *
000311:                                                                                                  #        VARIABLE*IN POWERS OF 2*                         DESCRIPTION AND REMARKS
000312:                                                                                                  #        --------*--------------*                         -----------------------
000313:                                                                                                  #        RVEC    * +29 FOR EARTH*DP INITIAL POSITION VECTOR IN METERS
000314:                                                                                                  #                * +27 FOR MOON *
000315:                                                                                                  #        VVEC    * +7 FOR EARTH *DP INITIAL VELOCITY VECTOR IN METERS/CENTISECOND
000316:                                                                                                  #                * +5 FOR MOON  *
000317:                                                                                                  #        SNTH    * +1           *DP SINE OF TRUE-ANOMALY-DIFFERENCE THROUGH WHICH THE STATE IS TO BE UPDATED
000318:                                                                                                  #        CSTH    * +1           *DP COSINE OF THE ANGLE
000319:                                                                                                  #        RVSW    * NONE         *AN INTERPRETIVE SWITCH TO BE SET IF ONLY TIME IS TO BE AN OUTPUT, CLEAR IF THE NEW STATE
000320:                                                                                                  #                *              *IS TO BE COMPUTED ALSO.
000321:                                                                                                  #        X1 (38D)* NONE         *INDEX REGISTER TO BE SET TO -2D OR -10D ACCORDING TO WHETHER THE EARTH OR MOON,
000322:                                                                                                  #                *              *RESPECTIVELY, IS THE CENTRAL BODY.
000323:
000324:                                                                                                  #  SUBROUTINES CALLED -


000326:                                                                                                  #        PARAM, GEOM, GETX, DELTIME, NEWSTATE
000327:
000328:                                                                                                  #  CALLING SEQUENCE AND NORMAL EXIT MODES -
000329:                                                                                                  #        IF ONLY TIME IS DESIRED AS OUTPUT -
000330:                                                                                                  #        L       SET     CALL            MUST BE IN INTERPRETIVE MODE BUT OVFIND ARBITRARY.
000331:                                                                                                  #        L+1             RVSW
000332:                                                                                                  #        L+2             TIMETHET        RETURN WITH PL AT 0 AND T IN MPAC
000333:                                                                                                  #        L+3     ...                     CONTINUE
000334:
000335:                                                                                                  #        IF THE UPDATE STATE VECTOR IS DESIRED AS WELL -
000336:                                                                                                  #        L       CLEAR   CALL            MUST BE IN INTERPRETIVE MODE BUT OVFIND ARBITRARY.
000337:                                                                                                  #        L+1             RVSW
000338:                                                                                                  #        L+2             TIMETHET        RETURNS WITH PL AT 6.  THE INITIAL POSITION VECTOR IS IN 0D OF THE PUSHLIST AND
000339:                                                                                                  #                                        THE INITIAL VELOCITY VECTOR IN MPAC.
000340:                                                                                                  #        L+3     STOVL   NEWVVEC
000341:                                                                                                  #        L+4     STADR
000342:                                                                                                  #        L+5     STORE   NEWRVEC         NEWVVEC AND NEWRVEC ARE SYMBOLIC REPRESENTATIONS OF THE USERS LOCATIONS.
000343:                                                                                                  #        L+6     ...                     CONTINUE
000344:
000345:                                                                                                  #  ABORT EXIT MODES -
000346:                                                                                                  #        IF COGAFLAG AND/OR INFINFLG IS SET AT THE EXIT TO TIME-THETA, TIME-THETA WILL TRANSFER TO POODOO WITH
000347:                                                                                                  #        AN ALARM CODE (ORIGINALLY 00607), AND NOT RETURN TO THE CALLING PROGRAM.  (PCR 692 AND 721).
000348:
000349:                                                                                                  #  OUTPUT -
000350:                                                                                                  #                * SCALE FACTOR *
000351:                                                                                                  #        VARIABLE*IN POWERS OF 2*                         DESCRIPTION AND REMARKS
000352:                                                                                                  #        --------*--------------*                         -----------------------
000353:                                                                                                  #        T(30D)  * +28          *DP TRANSFER TIME IN CENTISECONDS
000354:                                                                                                  #        INFINFLG* NONE         *AN INTERPRETIVE SWITCH WHICH IS SET IF THE TRANSFER ANGLE REQUIRES CLOSURE THROUGH
000355:                                                                                                  #                *              *INFINITY (NO SOLUTION), CLEAR IF A PHYSICAL SOLUTION IS POSSIBLE.
000356:                                                                                                  #        COGAFLAG* NONE         *AN INTERPRETIVE SWITCH WHICH IS SET IF RESTRICTION 1 HAS BEEN VIOLATED (NO SOLUTION),
000357:                                                                                                  #                *              *CLEAR IF NOT.
000358:
000359:                                                                                                  #        IN ADDITION, IF RVSW IS CLEAR, THE FOLLOWING ARE OUTPUT -
000360:
000361:                                                                                                  #        MPAC -  * +7 FOR EARTH *DP TERMINAL VELOCITY VECTOR IN METERS/CENTISEC.
000362:                                                                                                  #         MPAC +5* +5 FOR MOON  *
000363:                                                                                                  #        0D - 5D * +29 FOR EARTH*DP TERMINAL POSITION VECTOR IN METERS (PL AT 6D)
000364:                                                                                                  #                * +27 FOR MOON *
000365:
000366:                                                                                                  #        FOR OTHER OUTPUT WHICH MAY BE OF USE, SEE DEBRIS.
000367:


000369:                                                                                                  #  DEBRIS -
000370:                                                                                                  #        PARAMETERS WHICH MAY BE OF USE -
000371:                                                                                                  #                * SCALE FACTOR *
000372:                                                                                                  #        VARIABLE*IN POWERS OF 2*                         DESCRIPTION AND REMARKS
000373:                                                                                                  #        --------*--------------*                         -----------------------
000374:                                                                                                  #        R1 (32D)* +29 FOR EARTH*DP MAGNITUDE OF INITIAL POSITION VECTOR, RVEC, IN METERS
000375:                                                                                                  #                * +27 FOR MOON *
000376:                                                                                                  #        R1A     * +6           *DP RATIO OF R1 TO SEMIMAJOR AXIS (NEG. FOR HYPERBOLIC TRAJECTORIES)
000377:                                                                                                  #        P       * +4           *DP RATIO OF SEMILATUS RECTUM TO R1
000378:                                                                                                  #        COGA    * +5           *DP COTAN OF ANGLE BETWEEN RVEC AND VVEC
000379:                                                                                                  #        UR1     * +1           *DP UNIT VECTOR OF RVEC
000380:                                                                                                  #        U2      * +1           *DP UNIT VECTOR OF VVEC
000381:                                                                                                  #        UN      * +1           *DP UNIT VECTOR OF UR1*U2
000382:
000383:                                                                                                  #  PARAMETERS OF NO USE -
000384:                                                                                                  #        SP PARAMETERS - RTNTT, GEOMSGN, RTNPRM, MAGVEC2=R2 (DP), PLUS PUSHLIST LOCATIONS 0-11D, 14D-21D, 24D-39D, 41D
000385:                                                                                                  #        ADDITIONAL INTERPRETIVE SWITCHES USED - NORMSW, 360SW
000386:


000388:                                                                                                  #  PROGRAM DESCRIPTION - TIME-RADIUS SUBROUTINE          DATE - 11 OCTOBER 1967
000389:                                                                                                  #  MOD NO. -1                                            LOG SECTION - CONIC SUBROUTINES
000390:                                                                                                  #  MOD BY KRAUSE                                         ASSEMBLY - COLOSSUS REVISION 88
000391:
000392:                                                                                                  #  FUNCTIONAL DESCRIPTION -
000393:                                                                                                  #        THIS SUBROUTINE, GIVEN AN INITIAL STATE VECTOR AND A DESIRED RADIUS TO WHICH THE
000394:                                                                                                  #        STATE IS TO BE UPDATED ALONG A CONIC TRAJECTORY, CALCULATES THE CORRESPONDING TIME-OF-FLIGHT AND, IN ADDITION,
000395:                                                                                                  #        PROVIDES THE OPTION OF COMPUTING THE NEW UPDATED STATE VECTOR.  THE RESULTING TRAJECTORY MAY BE A SECTION OF A
000396:                                                                                                  #        CIRCLE, ELLIPSE, PARABOLA, OR HYPERBOLA WITH RESPECT TO THE EARTH OR THE MOON.  THE USE OF THE SUBROUTINE CAN BE
000397:                                                                                                  #        EXTENDED USING OTHER PRIMARY BODIES BY SIMPLE ADDITIONS TO THE MUTABLE WITHOUT INTRODUCING ANY CODING CHANGES,
000398:                                                                                                  #        ACCEPTING THE INHERENT SCALE FACTOR CHANGES IN POSITION AND VELOCITY.
000399:
000400:                                                                                                  #        IF THE DESIRED RADIUS IS BEYOND THE RADIUS OF APOCENTER OF THE CONIC OR BELOW THE RADIUS OF PERICENTER,
000401:                                                                                                  #        APSESW WILL BE SET AND THE SUBROUTINE WILL RETURN THE APOCENTER OR PERICENTER SOLUTION, RESPECTIVELY.
000402:
000403:                                                                                                  #  THE RESTRICTIONS ARE -
000404:                                                                                                  #        1. THE ANGLE BETWEEN ANY POSITION VECTOR AND ITS VELOCITY VECTOR MUST BE GREATER THAN 1 DEGREE 47.5 MINUTES
000405:                                                                                                  #           AND LESS THAN 178 DEGREES 12.5 MINUTES.
000406:                                                                                                  #        2. THE PARAMETERS IN THE PROBLEM MUST NOT EXCEED THEIR SCALING LIMITS SPECIFIED IN THE GSOP.  IF THE LIMITS
000407:                                                                                                  #           ARE EXCEEDED, THE RESULTING SOLUTION WILL BE MEANINGLESS.
000408:                                                                                                  #        3. AN ACCURACY DEGRADATION OCCURS AS THE SENSITIVITIES OF TIME AND UPDATED STATE VECTOR TO CHANGES IN
000409:                                                                                                  #           RDESIRED INCREASE.  THIS WILL OCCUR NEAR EITHER APSIS OF THE CONIC AND WHEN THE CONIC IS NEARLY CIRCULAR.  IN
000410:                                                                                                  #           PARTICULAR, IF THE CONIC IS AN EXACT CIRCLE, THE PROBLEM IS UNDEFINED AND THE SUBROUTINE WILL ABORT.
000411:
000412:                                                                                                  #        THE AGC COMPUTATION TIME IS APPROXIMATELY .363 SECONDS
000413:


000415:                                                                                                  #  REFERENCES -
000416:                                                                                                  #        R-479, MISSION PROGRAMMING DEFINITION MEMO NO. 10, LUNAR LANDING MISSION GSOP-SECTION 5.5, SGA MEMO 67-8.
000417:
000418:                                                                                                  #  INPUT - ERASABLE INITIALIZATION REQUIRED
000419:                                                                                                  #                * SCALE FACTOR *
000420:                                                                                                  #        VARIABLE*IN POWERS OF 2*                         DESCRIPTION AND REMARKS
000421:                                                                                                  #        --------*--------------*                         -----------------------
000422:                                                                                                  #        RVEC    * +29 FOR EARTH*DP INITIAL POSITION VECTOR IN METERS
000423:                                                                                                  #                * +27 FOR MOON *
000424:                                                                                                  #        VVEC    * +7 FOR EARTH *DP INITIAL VELOCITY VECTOR IN METERS/CENTISECOND
000425:                                                                                                  #                * +5 FOR MOON  *
000426:                                                                                                  #        RDESIRED* +29 FOR EARTH*DP TERMINAL RADIAL DISTANCE ON CONIC TRAJECTORY FOR WHICH TRANSFER TIME IS TO BE
000427:                                                                                                  #                * +27 FOR MOON *COMPUTED.
000428:                                                                                                  #        SGNRDOT * NONE         *SP TAG SET TO +.5 OR -.5 ACCORDING TO WHETHER THE RADIAL VELOCITY AT RDESIRED IS TO BE
000429:                                                                                                  #                *              *POSITIVE OR NEGATIVE, RESPECTIVELY.   THIS TAG REDUCES THE DOUBLE-VALUED PROBLEM TO A


000431:                                                                                                  #                *              *SINGLE-VALUED PROBLEM.
000432:                                                                                                  #        X1 (38D)*       NONE   *INDEX REGISTER TO BE SET TO -2D OR -10D ACCORDING TO WHETHER THE EARTH OR MOON,
000433:                                                                                                  #                *              *RESPECTIVELY, IS THE CENTRAL BODY.
000434:                                                                                                  #        RVSW    *       NONE   *AN INTERPRETIVE SWITCH TO BE SET IF ONLY TIME IS TO BE AN OUTPUT, CLEAR IF THE NEW STATE
000435:                                                                                                  #                *              *IS TO BE COMPUTED ALSO.
000436:
000437:                                                                                                  #  SUBROUTINES CALLED -
000438:                                                                                                  #        PARAM, GEOM, GETX, DELTIME, NEWSTATE
000439:
000440:                                                                                                  #  CALLING SEQUENCE AND NORMAL EXIT MODES -
000441:                                                                                                  #        IF ONLY TIME IS DESIRED AS OUTPUT -
000442:                                                                                                  #        L       SET     CALL            MUST BE IN INTERPRETIVE MODE BUT OVFIND ARBITRARY.
000443:                                                                                                  #        L+1             RVSW
000444:                                                                                                  #        L+2             TIMERAD         RETURN WITH PL AT 0 AND T IN MPAC
000445:                                                                                                  #        L+3     ...                     CONTINUE
000446:
000447:                                                                                                  #        IF THE UPDATE STATE VECTOR IS DESIRED AS WELL -
000448:                                                                                                  #        L       CLEAR   CALL            MUST BE IN INTERPRETIVE MODE BUT OVFIND ARBITRARY.
000449:                                                                                                  #        L+1             RVSW
000450:                                                                                                  #        L+2             TIMERAD         RETURNS WITH PL AT 6.  THE INITIAL POSITION VECTOR IS IN 0D OF THE PUSHLIST AND
000451:                                                                                                  #                                        THE INITIAL VELOCITY VECTOR IN MPAC.
000452:                                                                                                  #        L+3     STOVL   NEWVVEC
000453:                                                                                                  #        L+4     STADR
000454:                                                                                                  #        L+5     STORE   NEWRVEC         NEWVVEC AND NEWRVEC ARE SYMBOLIC REPRESENTATIONS OF THE USERS LOCATIONS.
000455:                                                                                                  #        L+6     ...                     CONTINUE
000456:
000457:                                                                                                  #  ABORT EXIT MODES -
000458:                                                                                                  #        IF SOLNSW AND/OR COGAFLAG AND/OR INFINFLG IS SET AT THE EXIT TO TIME-RADIUS, TIME-RADIUS WILL TRANSFER
000459:                                                                                                  #        TO POODOO WITH AN ALARM CODE (ORIGINALLY 00607), AND NOT RETURN TO THE CALLING PROGRAM. (PCR 692 & 721)
000460:
000461:                                                                                                  #  OUTPUT -
000462:                                                                                                  #                * SCALE FACTOR *
000463:                                                                                                  #        VARIABLE*IN POWERS OF 2*                         DESCRIPTION AND REMARKS
000464:                                                                                                  #        --------*--------------*                         -----------------------
000465:                                                                                                  #        T (30D) * +28          *DP TRANSFER TIME IN CENTISECONDS
000466:                                                                                                  #        INFINFLG* NONE         *AN INTERPRETIVE SWITCH WHICH IS SET IF RDESIRED AND SGNRDOT REQUIRE CLOSURE THROUGH
000467:                                                                                                  #                *              *INFINITY (NO SOLUTION), CLEAR IF A PHYSICAL SOLUTION IS POSSIBLE.
000468:                                                                                                  #        COGAFLAG* NONE         *AN INTERPRETIVE SWITCH WHICH IS SET IF RESTRICTION 1 HAS BEEN VIOLATED (NO SOLUTION),
000469:                                                                                                  #                *              *CLEAR IF NOT.
000470:                                                                                                  #        APSESW  * NONE         *AN INTERPRETIVE SWITCH WHICH IS SET IF RDESIRED WAS GREATER THAN RADIUS OF APOCENTER OR


000472:                                                                                                  #                *              *LESS THAN RADIUS OF PERICENTER.  THE APOCENTER OR PERICENTER SOLUTION, RESPECTIVELY,
000473:                                                                                                  #                *              *WILL THEN BE RETURNED.  THE SWITCH IS CLEAR IF RDESIRED WAS BETWEEN PERICENTER AND
000474:                                                                                                  #                *              *APOCENTER.
000475:                                                                                                  #        SOLNSW  * NONE         *AN INTERPRETIVE SWITCH WHICH IS SET IF THE CONIC IS SO CLOSE TO A CIRCLE THAT THE TERMIN
000476:                                                                                                  #                               *POINT IS AMBIGUOUS, VIOLATING RESTRICTION 3.  IF ECCENTRICITY IS GREATER THAN 2-TO-THE-
000477:                                                                                                  #                               *MINUS-18, THE SWITCH IS CLEAR.
000478:
000479:                                                                                                  #        IN ADDITION, IF RVSW IS CLEAR, THE FOLLOWING ARE OUTPUT -
000480:                                                                                                  #        MPAC -  * +7 FOR EARTH *DP TERMINAL VELOCITY VECTOR IN METERS/CENTISEC.
000481:                                                                                                  #         MPAC +5* +5 FOR MOON  *
000482:                                                                                                  #        0D - 5D * +29 FOR EARTH*DP TERMINAL POSITION VECTOR IN METERS (PL AT 6D)
000483:                                                                                                  #                * +27 FOR MOON *
000484:
000485:                                                                                                  #        FOR OTHER OUTPUT WHICH MAY BE OF USE, SEE DEBRIS.
000486:
000487:                                                                                                  #  DEBRIS -
000488:                                                                                                  #        PARAMETERS WHICH MAY BE OF USE -
000489:                                                                                                  #                * SCALE FACTOR *
000490:                                                                                                  #        VARIABLE*IN POWERS OF 2*                         DESCRIPTION AND REMARKS
000491:                                                                                                  #        --------*--------------*                         -----------------------
000492:                                                                                                  #        R1 (32D)* +29 FOR EARTH*DP MAGNITUDE OF INITIAL POSITION VECTOR, RVEC, IN METERS
000493:                                                                                                  #                * +27 FOR MOON *
000494:                                                                                                  #        R1A     * +6           *DP RATIO OF R1 TO SEMIMAJOR AXIS (NEG. FOR HYPERBOLIC TRAJECTORIES)
000495:                                                                                                  #        P       * +4           *DP RATIO OF SEMILATUS RECTUM TO R1
000496:                                                                                                  #        COGA    * +5           *DP COTAN OF ANGLE BETWEEN RVEC AND VVEC
000497:                                                                                                  #        UR1     * +1           *DP UNIT VECTOR OF RVEC
000498:                                                                                                  #        U2      * +1           *DP UNIT VECTOR OF VVEC
000499:                                                                                                  #        UN      * +1           *DP UNIT VECTOR OF UR1*U2
000500:                                                                                                  #        CSTH    * +1           *DP COSINE OF TRUE ANOMALY DIFFERENCE BETWEEN RVEC AND RDESIRED.
000501:                                                                                                  #        SNTH    * +1           *DP SINE OF TRUE ANOMALY DIFFERENCE.
000502:
000503:                                                                                                  #        PARAMETERS OF NO USE -
000504:                                                                                                  #                SP PARAMETERS - RTNTT, GEOMSGN, RTNPRM, MAGVEC2*R2 (DP), PLUS PUSHLIST LOCATIONS 0-11D, 14D-21D, 24D-39D, 41D
000505:                                                                                                  #                ADDITIONAL INTERPRETIVE SWITCHES USED - NORMSW, 360SW
000506:
000507:


000509:                                                                                                  #  PROGRAM DESCRIPTION - APSIDES SUBROUTINE              DATE - 1 SEPTEMBER 1967
000510:                                                                                                  #  MOD NO. - 0                                           LOG SECTION - CONIC SUBROUTINES
000511:                                                                                                  #  MOD BY KRAUSE                                         ASSEMBLY - COLOSSUS REVISION 88
000512:
000513:                                                                                                  #  FUNCTIONAL DESCRIPTION -
000514:                                                                                                  #        THIS SUBROUTINE, GIVEN AN INITIAL STATE VECTOR CALCULATES THE RADIUS OF PERICENTER AND OF APOCENTER AND THE
000515:                                                                                                  #        ECCENTRICITY OF THE RESULTING CONIC TRAJECTORY, WHICH MAY BE A STRAIGHT LINE,
000516:                                                                                                  #        CIRCLE, ELLIPSE, PARABOLA, OR HYPERBOLA WITH RESPECT TO THE EARTH OR THE MOON.  THE USE OF THE SUBROUTINE CAN BE
000517:                                                                                                  #        EXTENDED USING OTHER PRIMARY BODIES BY SIMPLE ADDITIONS TO THE MUTABLE WITHOUT INTRODUCING ANY CODING CHANGES,
000518:                                                                                                  #        ACCEPTING THE INHERENT SCALE FACTOR CHANGES IN POSITION AND VELOCITY.
000519:
000520:                                                                                                  #  THE RESTRICTIONS ARE -
000521:                                                                                                  #        1. IF APOCENTER IS BEYOND THE SCALING OF POSITION, THE SCALE FACTOR LIMIT (536,870,910 METERS WITH RESPECT
000522:                                                                                                  #           TO THE EARTH OR 134,217,727.5 METERS WITH RESPECT TO THE MOON) WILL BE RETURNED.
000523:                                                                                                  #        2. THE PARAMETERS IN THE PROBLEM MUST NOT EXCEED THEIR SCALING LIMITS SPECIFIED IN THE GSOP.  IF THE LIMITS
000524:                                                                                                  #           ARE EXCEEDED, THE RESULTING SOLUTION WILL BE MEANINGLESS.
000525:                                                                                                  #        THE AGC COMPUTATION TIME IS APPROXIMATELY .103 SECONDS.
000526:


000528:                                                                                                  #  REFERENCES -
000529:                                                                                                  #        MISSION PROGRAMMING DEFINITION MEMO NO. 10, LUNAR LANDING MISSION GSOP-SECTION 5.5
000530:
000531:                                                                                                  #  INPUT - ERASABLE INITIALIZATION REQUIRED
000532:                                                                                                  #                * SCALE FACTOR *
000533:                                                                                                  #        VARIABLE*IN POWERS OF 2*                         DESCRIPTION AND REMARKS
000534:                                                                                                  #        --------*--------------*                         -----------------------
000535:                                                                                                  #        RVEC    * +29 FOR EARTH*DP INITIAL POSITION VECTOR IN METERS
000536:                                                                                                  #                * +27 FOR MOON *
000537:                                                                                                  #        VVEC    * +7 FOR EARTH *DP INITIAL VELOCITY VECTOR IN METERS/CENTISECOND
000538:                                                                                                  #                * +5 FOR MOON  *
000539:                                                                                                  #        X1 (38D)* NONE         *INDEX REGISTER TO BE SET TO -2D OR -10D ACCORDING TO WHETHER THE EARTH OR MOON,
000540:                                                                                                  #                *              *RESPECTIVELY, IS THE CENTRAL BODY.
000541:
000542:                                                                                                  #  SUBROUTINES CALLED -
000543:                                                                                                  #        PARAM, GEOM
000544:
000545:                                                                                                  #  CALLING SEQUENCE AND NORMAL EXIT MODES -


000547:                                                                                                  #        IF ONLY TIME IS DESIRED AS OUTPUT -
000548:                                                                                                  #        L       CALL                    MUST BE IN INTERPRETIVE MODE BUT OVFIND ARBITRARY.
000549:                                                                                                  #        L+1             APSIDES         RETURNS WITH PL AT 0, RADIUS OF APOCENTER IN MPAC AND RADIUS OF PERICENTER IN 0D
000550:                                                                                                  #        L+2     STODL   APOAPSE
000551:                                                                                                  #        L+3             0D
000552:                                                                                                  #        L+4     STORE   PERIAPSE        APOAPSE AND PERIAPSE ARE SYMBOLIC REPRESENTATIONS OF THE USERS LOCATIONS
000553:                                                                                                  #        L+5     ...                     CONTINUE
000554:
000555:                                                                                                  #  OUTPUT -
000556:                                                                                                  #                * SCALE FACTOR *
000557:                                                                                                  #        VARIABLE*IN POWERS OF 2*                         DESCRIPTION AND REMARKS
000558:                                                                                                  #        --------*--------------*                         -----------------------
000559:                                                                                                  #        MPAC    * +29 FOR EARTH*DP RADIUS OF APOCENTER IN METERS
000560:                                                                                                  #                * +27 FOR MOON *
000561:                                                                                                  #        0D-1D   * +29 FOR EARTH*DP RADIUS OF PERICENTER IN METERS
000562:                                                                                                  #                * +27 FOR MOON *
000563:                                                                                                  #        ECC     * +3           *DP ECCENTRICITY OF CONIC TRAJECTORY.
000564:                                                                                                  #        FOR OTHER OUTPUT WHICH MAY BE OF USE, SEE DEBRIS.
000565:
000566:                                                                                                  #  DEBRIS -
000567:                                                                                                  #        PARAMETERS WHICH MAY BE OF USE -
000568:                                                                                                  #                * SCALE FACTOR *
000569:                                                                                                  #        VARIABLE*IN POWERS OF 2*                         DESCRIPTION AND REMARKS
000570:                                                                                                  #        --------*--------------*                         -----------------------
000571:                                                                                                  #        R1 (32D)* +29 FOR EARTH*DP MAGNITUDE OF INITIAL POSITION VECTOR, RVEC, IN METERS
000572:                                                                                                  #                * +27 FOR MOON *
000573:                                                                                                  #        R1A     * +6           *DP RATIO OF R1 TO SEMIMAJOR AXIS (NEG. FOR HYPERBOLIC TRAJECTORIES)
000574:                                                                                                  #        P       * +4           *DP RATIO OF SEMILATUS RECTUM TO R1
000575:                                                                                                  #        COGA    * +5           *DP COTAN OF ANGLE BETWEEN RVEC AND VVEC
000576:                                                                                                  #        UR1     * +1           *DP UNIT VECTOR OF RVEC
000577:                                                                                                  #        U2      * +1           *DP UNIT VECTOR OF VVEC
000578:                                                                                                  #        UN      * +1           *DP UNIT VECTOR OF UR1*U2
000579:                                                                                                  #        MAGVEC2 * +7 FOR EARTH *DP MAGNITUDE OF VVEC
000580:                                                                                                  #                * +5 FOR MOON  *
000581:
000582:                                                                                                  #        PARAMETERS OF NO USE -
000583:                                                                                                  #                SP PARAMETERS - RTNAPSE, GEOMSGN, RTNPRM, PLUS PUSHLIST LOCATIONS 0-5, 10D-11D, 14D-21D, 31D-38D.
000584:                                                                                                  #                ADDITIONAL INTERPRETIVE SWITCHES USED - NORMSW
000585:
000586: 12,2000                                           SETLOC   CONICS


000588: 12,2000                                           BANK
000589:
000590: 12,2023                                           COUNT*   $$/CONIC
000591: 12,2023  E5,1721                                  EBANK=   UR1
000592: 12,2023           40001        KEPLERN            SETPD    BOV
000593: 12,2024           00001                                    0
000594: 12,2025           24026                                    +1
000595: 12,2026           77773                           VLOAD*
000596: 12,2027           10005                                    MUTABLE,1
000597: 12,2030           24017                           STOVL    14D
000598: 12,2031           01503                                    RRECT
000599: 12,2032           66256                           UNIT     SSP
000600: 12,2033           00027                                    ITERCTR
000601: 12,2034           00024                                    20D
000602: 12,2035           16647                           STODL    URRECT
000603: 12,2036           00045                                    36D
000604: 12,2037           24041                           STOVL    R1
000605: 12,2040           01503                                    RRECT
000606: 12,2041           76441                           DOT      SL1R
000607: 12,2042           01511                                    VRECT
000608: 12,2043           76405                           DMP      SL1R
000609: 12,2044           00023                                    1/ROOTMU                              #  1/ROOTMU (-17 OR -14)
000610: 12,2045           24043                           STOVL    KEPC1                                 #  C1=R.V/ROOTMU (+17 OR +16)
000611: 12,2046           01511                                    VRECT
000612: 12,2047           57236                           VSQ      DMPR
000613: 12,2050           00017                                    1/MU                                  #  1/MU (-34 OR -28)
000614: 12,2051           52405                           DMP      SL3
000615: 12,2052           00041                                    R1
000616: 12,2053           61425                           DSU      ROUND
000617: 12,2054           11001                                    D1/64
000618: 12,2055           00045                           STORE    KEPC2                                 #  C2=RV.V/MU -1 (+6)
000619:
000620: 12,2056           74421                           BDSU     SR1R
000621: 12,2057           11001                                    D1/64
000622: 12,2060           77671                           DDV
000623: 12,2061           00041                                    R1
000624: 12,2062           00011                           STORE    ALPHA                                 #  ALPHA=(1-C2)/R1 (-22 OR -20)
000625:
000626: 12,2063           71244                           BPL      DLOAD                                 #  MAXIMUM X DEPENDS ON TYPE OF CONIC
000627: 12,2064           24073                                    1REV
000628: 12,2065           11017                                    -50SC                                 #  -50SC (+12)
000629: 12,2066           40071                           DDV      BOV
000630: 12,2067           00011                                    ALPHA
000631: 12,2070           24077                                    STOREMAX
000632: 12,2071           52166                           SQRT     GOTO
000633: 12,2072           24077                                    STOREMAX
000634:
000635: 12,2073           55366        1REV               SQRT     BDDV


000637: 12,2074           11021                                    2PISC                                 #  2PISC (+6)
000638: 12,2075           77600                           BOV
000639: 12,2076           24077                                    STOREMAX
000640: 12,2077           00013        STOREMAX           STORE    XMAX
000641: 12,2100           65205                           DMP      PDDL
000642: 12,2101           00023                                    1/ROOTMU
000643: 12,2102           00011                                    ALPHA
000644: 12,2103           65301                           NORM     PDDL
000645: 12,2104           00047                                    X1
000646: 12,2105           56257                           SL*      DDV
000647: 12,2106           20173                                    0          -6,1
000648: 12,2107           50000                           BOV      BMN
000649: 12,2110           24124                                    MODDONE
000650: 12,2111           24124                                    MODDONE                               #  MPAC=PERIOD
000651: 12,2112           51525        PERIODCH           PDDL     ABS                                   #  0D=PERIOD
000652: 12,2113           02074                                    TAU.
000653: 12,2114           50025                           DSU      BMN
000654: 12,2115           00001                                    0D
000655: 12,2116           24124                                    MODDONE
000656: 12,2117           77765                           SIGN
000657: 12,2120           02074                                    TAU.
000658: 12,2121           16074                           STODL    TAU.
000659: 12,2122           77650                           GOTO
000660: 12,2123           24112                                    PERIODCH
000661: 12,2124           71201        MODDONE            SETPD    DLOAD
000662: 12,2125           00001                                    0
000663: 12,2126           02130                                    XKEPNEW
000664: 12,2127           00025                           STORE    X
000665: 12,2130           53165                           SIGN     BZE
000666: 12,2131           02074                                    TAU.
000667: 12,2132           24302                                    BADX
000668: 12,2133           51440                           BMN      ABS
000669: 12,2134           24302                                    BADX
000670: 12,2135           51025                           DSU      BPL
000671: 12,2136           00013                                    XMAX
000672: 12,2137           24302                                    BADX
000673: 12,2140           51145        STORBNDS           DLOAD    BPL
000674: 12,2141           02074                                    TAU.
000675: 12,2142           24152                                    STOREMIN
000676: 12,2143           57545                           DLOAD    DCOMP
000677: 12,2144           00013                                    XMAX
000678: 12,2145           14015                           STODL    XMIN
000679: 12,2146           24007                                    KEPZERO
000680: 12,2147           00013                           STORE    XMAX
000681: 12,2150           77650                           GOTO
000682: 12,2151           24155                                    DXCOMP
000683: 12,2152           77745        STOREMIN           DLOAD
000684: 12,2153           24007                                    KEPZERO
000685: 12,2154           00015                           STORE    XMIN
000686: 12,2155           57345        DXCOMP             DLOAD    DMPR


000688: 12,2156           02074                                    TAU.
000689: 12,2157           11012                                    BEE22
000690: 12,2160           77646                           ABS
000691: 12,2161           16177                           STODL    EPSILONT
000692: 12,2162           01553                                    XPREV
000693: 12,2163           77621        XDIFF              BDSU
000694: 12,2164           00025                                    X
000695: 12,2165           02643                           STORE    DELX
000696:
000697: 12,2166           63545        KEPLOOP            DLOAD    DSQ
000698: 12,2167           00025                                    X                                     #  X=XKEP
000699: 12,2170           41501                           NORM     PUSH                                  #  0D=XSQ (+34 OR +32 -N1)       PL AT 2
000700: 12,2171           00047                                    X1
000701: 12,2172           53605                           DMP      SRR*
000702: 12,2173           00011                                    ALPHA
000703: 12,2174           21573                                    0          -6,1
000704: 12,2175           34031                           STCALL   XI                                    #  XI=ALPHA XSQ (+6)
000705: 12,2176           24421                                    DELTIME
000706: 12,2177           44200                           BOV      BDSU
000707: 12,2200           24311                                    TIMEOVFL                              #  UNLIKELY
000708: 12,2201           02074                                    TAU.
000709: 12,2202           02645                           STORE    DELT                                  #  DELT=DELINDEP
000710: 12,2203           44246                           ABS      BDSU
000711: 12,2204           02177                                    EPSILONT
000712: 12,2205           71244                           BPL      DLOAD
000713: 12,2206           24333                                    KEPCONVG
000714: 12,2207           00037                                    T
000715: 12,2210           60225                           DSU      NORM
000716: 12,2211           01551                                    TC
000717: 12,2212           00047                                    X1
000718: 12,2213           60325                           PDDL     NORM
000719: 12,2214           02643                                    DELX
000720: 12,2215           00050                                    X2
000721: 12,2216           41260                           XSU,1    DMP
000722: 12,2217           00047                                    X2
000723: 12,2220           02645                                    DELT
000724: 12,2221           56257                           SLR*     DDV
000725: 12,2222           21202                                    1,1
000726: 12,2223           41542                           SR1      PUSH                                  #  0D=TRIAL DELX         PL AT 2
000727: 12,2224           71244                           BPL      DLOAD
000728: 12,2225           24246                                    POSDELX
000729: 12,2226           00025                                    X
000730: 12,2227           00013                           STORE    XMAX                                  #  MOVE MAX BOUND IN
000731: 12,2230           45221                           BDSU     DSU                                   #                        PL AT 0
000732: 12,2231           00015                                    XMIN
000733: 12,2232           51000                           BOV      BPL
000734: 12,2233           24240                                    NDXCHNGE
000735: 12,2234           24240                                    NDXCHNGE
000736: 12,2235           52145                           DLOAD    GOTO


000738: 12,2236           00001                                    0D
000739: 12,2237           24260                                    NEWDELX
000740:
000741: 12,2240           45345        NDXCHNGE           DLOAD    DSU
000742: 12,2241           00015                                    XMIN
000743: 12,2242           00025                                    X
000744: 12,2243           52075                           DMPR     GOTO                                  #  TO FORCE MPAC +2 TO ZERO
000745: 12,2244           11015                                    DP9/10
000746: 12,2245           24260                                    NEWDELX
000747:
000748: 12,2246           77745        POSDELX            DLOAD
000749: 12,2247           00025                                    X
000750: 12,2250           00015                           STORE    XMIN                                  #  MOVE MIN BOUND IN
000751: 12,2251           45221                           BDSU     DSU                                   #                        PL AT 0
000752: 12,2252           00013                                    XMAX
000753: 12,2253           50000                           BOV      BMN
000754: 12,2254           24274                                    PDXCHNGE
000755: 12,2255           24274                                    PDXCHNGE
000756: 12,2256           77745                           DLOAD
000757: 12,2257           00001                                    0D
000758: 12,2260           02643        NEWDELX            STORE    DELX
000759: 12,2261           43254                           BZE      DAD
000760: 12,2262           24333                                    KEPCONVG
000761: 12,2263           00025                                    X
000762: 12,2264           14025                           STODL    X
000763: 12,2265           00037                                    T
000764: 12,2266           01551                           STORE    TC
000765: 12,2267           46034        BRNCHCTR           RTB      BHIZ
000766: 12,2270           24644                                    CHECKCTR
000767: 12,2271           24333                                    KEPCONVG
000768: 12,2272           77650                           GOTO
000769: 12,2273           24166                                    KEPLOOP                               #  ITERATE
000770:
000771: 12,2274           45345        PDXCHNGE           DLOAD    DSU
000772: 12,2275           00013                                    XMAX
000773: 12,2276           00025                                    X
000774: 12,2277           52075                           DMPR     GOTO                                  #  TO FORCE MPAC +2 TO ZERO
000775: 12,2300           11015                                    DP9/10
000776: 12,2301           24260                                    NEWDELX
000777:
000778: 12,2302           70545        BADX               DLOAD    SR1
000779: 12,2303           00013                                    XMAX
000780: 12,2304           77765                           SIGN
000781: 12,2305           02074                                    TAU.
000782: 12,2306           00025                           STORE    X
000783: 12,2307           77650                           GOTO


000785: 12,2310           24140                                    STORBNDS
000786: 12,2311           50145        TIMEOVFL           DLOAD    BMN                                   #  X WAS TOO BIG
000787: 12,2312           00025                                    X
000788: 12,2313           24330                                    NEGTOVFL
000789: 12,2314           00013                           STORE    XMAX
000790: 12,2315           70545        CMNTOVFL           DLOAD    SR1
000791: 12,2316           02643                                    DELX
000792: 12,2317           02643                           STORE    DELX
000793: 12,2320           44254                           BZE      BDSU
000794: 12,2321           02112                                    KEPRTN
000795: 12,2322           00025                                    X
000796: 12,2323           14025                           STODL    X
000797: 12,2324           01551                                    TC
000798: 12,2325           00037                           STORE    T
000799: 12,2326           77650                           GOTO
000800: 12,2327           24267                                    BRNCHCTR
000801: 12,2330           00015        NEGTOVFL           STORE    XMIN
000802: 12,2331           77650                           GOTO
000803: 12,2332           24315                                    CMNTOVFL
000804: 12,2333           44545        KEPCONVG           DLOAD    SR4R
000805: 12,2334           00041                                    R1
000806: 12,2335           74225                           DSU      VXSC
000807: 12,2336           00035                                    XSQC(XI)
000808: 12,2337           02647                                    URRECT
000809: 12,2340           65372                           VSL1     PDDL                                  #  0D=(R1-XSQC(XI))URRECT (+33 OR +31)
000810: 12,2341           00025                                    X
000811: 12,2342           60316                           DSQ      NORM
000812: 12,2343           00047                                    X1
000813: 12,2344           57275                           DMPR     DMPR
000814: 12,2345           00023                                    1/ROOTMU
000815: 12,2346           00025                                    X
000816: 12,2347           53605                           DMP      SRR*
000817: 12,2350           00033                                    S(XI)
000818: 12,2351           21572                                    0          -7,1
000819: 12,2352           77621                           BDSU
000820: 12,2353           00037                                    T
000821: 12,2354           74352                           SL1      VXSC
000822: 12,2355           01511                                    VRECT
000823: 12,2356           53372                           VSL1     VAD                                   #                                PL AT 0
000824: 12,2357           77712                           VSL4
000825: 12,2360           01535                           STORE    RCV                                   #  RCV (+29 OR +27)
000826:
000827: 12,2361           60246                           ABVAL    NORM
000828: 12,2362           00050                                    X2
000829: 12,2363           14043                           STODL    RCNORM
000830: 12,2364           00031                                    XI
000831: 12,2365           45275                           DMPR     DSU
000832: 12,2366           00033                                    S(XI)
000833: 12,2367           10777                                    D1/128


000835: 12,2370           76405                           DMP      SL1R
000836: 12,2371           00021                                    ROOTMU
000837: 12,2372           53605                           DMP      SLR*
000838: 12,2373           00025                                    X
000839: 12,2374           56601                                    0          -3,2
000840: 12,2375           74271                           DDV      VXSC
000841: 12,2376           00043                                    RCNORM
000842: 12,2377           02647                                    URRECT
000843: 12,2400           65372                           VSL1     PDDL                                  #  0D=URRECT(XI S(XI)-1)X ROOTMU/RCV (+15
000844: 12,2401           00035                                    XSQC(XI)                              #  OR +13)                       PL AT 6
000845: 12,2402           56257                           SLR*     DDV
000846: 12,2403           56602                                    0          -4,2
000847: 12,2404           00043                                    RCNORM
000848: 12,2405           74221                           BDSU     VXSC
000849: 12,2406           11013                                    D1/256
000850: 12,2407           01511                                    VRECT
000851: 12,2410           42455                           VAD      VSL8
000852: 12,2411           77626                           STADR                                          #                                PL AT 0
000853: 12,2412           62234                           STODL    VCV                                   #  VCV (+7 OR +5)
000854: 12,2413           00037                                    T
000855: 12,2414           15551                           STODL    TC
000856: 12,2415           00025                                    X
000857: 12,2416           01553                           STORE    XPREV
000858: 12,2417           77650                           GOTO
000859: 12,2420           02112                                    KEPRTN
000860:


000862: 12,2421           77776        DELTIME            EXIT                                           #  MPAC=XI (+6), 0D=XSQ (+34 OR +32 -N1)
000863: 12,2422           07225                           TC       POLY
000864: 12,2423           00010                           DEC      8          B-14
000865: 12,2424           02525 12526                     2DEC     .083333334
000866: 12,2426           67356 75666                     2DEC     -.266666684
000867: 12,2430           15001 23771                     2DEC     .406349155
000868: 12,2432           64342 43674                     2DEC     -.361198675
000869: 12,2434           06563 04645                     2DEC     .210153242
000870: 12,2436           75173 52672                     2DEC     -.086221951
000871: 12,2440           00656 14331                     2DEC     .026268812
000872: 12,2442           77633 40512                     2DEC     -.006163316
000873: 12,2444           00023 11210                     2DEC     .001177342
000874: 12,2446           77774 67506                     2DEC     -.000199055
000875:
000876: 12,2450           06042                           TC       INTPRET
000877: 12,2451           14033                           STODL    S(XI)
000878: 12,2452           00031                                    XI
000879: 12,2453           77776                           EXIT
000880: 12,2454           07225                           TC       POLY
000881: 12,2455           00010                           DEC      8          B-14
000882: 12,2456           01000 00000                     2DEC     .031250001
000883: 12,2460           72525 52506                     2DEC     -.166666719
000884: 12,2462           13301 15337                     2DEC     .355555413
000885: 12,2464           62776 54733                     2DEC     -.406347410
000886: 12,2466           11176 13267                     2DEC     .288962094
000887: 12,2470           73410 51674                     2DEC     -.140117894
000888: 12,2472           01446 33641                     2DEC     .049247387
000889: 12,2474           77451 65233                     2DEC     -.013081923
000890: 12,2476           00055 37266                     2DEC     .002806389
000891: 12,2500           77767 52336                     2DEC     -.000529414
000892: 12,2502           06042                           TC       INTPRET


000894: 12,2503           53605                           DMP      SRR*                                  #                                PL AT 0
000895: 12,2504           00001                                    0D
000896: 12,2505           21574                                    0          -5,1
000897: 12,2506           00035                           STORE    XSQC(XI)                              #  XSQC(XI) (+33 OR +31)
000898: 12,2507           72405                           DMP      SL1
000899: 12,2510           00043                                    KEPC1
000900: 12,2511           65234                           RTB      PDDL                                  #  XCH WITH PL. 0D=C1 XSQ C(XI) (+49 OR +46
000901: 12,2512           21634                                    TPMODE                                #                                PL AT 0,3
000902: 12,2513           53605                           DMP      SRR*
000903: 12,2514           00033                                    S(XI)
000904: 12,2515           21574                                    0          -5,1
000905: 12,2516           72405                           DMP      SL1
000906: 12,2517           00045                                    KEPC2
000907: 12,2520           65234                           RTB      PDDL                                  #  3D=C2 XSQ S(XI) (+35 OR +33)  PL AT 6
000908: 12,2521           21634                                    TPMODE
000909: 12,2522           00041                                    R1
000910: 12,2523           76261                           SR       TAD                                   #                                PL AT 3
000911: 12,2524           20607                                    6
000912: 12,2525           41301                           NORM     DMP                                   #  TO PRESERVE SIGNIF.
000913: 12,2526           00047                                    X1
000914: 12,2527           00025                                    X
000915: 12,2530           76257                           SR*      TAD                                   #  X(C2 XSQ S(XI) +R1) (+49 OR +46)  PL AT 0
000916: 12,2531           20576                                    0          -3,1
000917: 12,2532           57232                           SL4R     DMPR
000918: 12,2533           00023                                    1/ROOTMU
000919: 12,2534           00037                           STORE    T
000920: 12,2535           77616                           RVQ
000921:


000923: 12,2536           71214        ITERATOR           BONCLR   DLOAD
000924: 12,2537           00614                                    SLOPESW
000925: 12,2540           24606                                    FIRSTIME
000926: 12,2541           00037                                    DEP
000927: 12,2542           60225                           DSU      NORM
000928: 12,2543           02762                                    DEPREV
000929: 12,2544           00047                                    X1
000930: 12,2545           60325                           PDDL     NORM
000931: 12,2546           00015                                    DELINDEP
000932: 12,2547           00050                                    X2
000933: 12,2550           41260                           XSU,1    DMP
000934: 12,2551           00047                                    X2
000935: 12,2552           02760                                    DELDEP
000936: 12,2553           56257                           SLR*     DDV                                   #                                PL UP 2
000937: 12,2554           21202                                    1,1
000938: 12,2555           43142                           SR1      BOFF
000939: 12,2556           04351                                    ORDERSW
000940: 12,2557           24562                                    SGNCHECK
000941: 12,2560           75246                           ABS      SIGN                                  #  IN CASE 2ND DERIV. CHANGED SIGN, MUST
000942: 12,2561           02760                                    DELDEP                                #  DISREGARD IT TO FIND MIN.
000943:
000944: 12,2562           51006        SGNCHECK           PUSH     BPL                                   #  TRIAL DELINDEP                PL DOWN 2
000945: 12,2563           24620                                    POSDEL
000946: 12,2564           43145                           DLOAD    BON
000947: 12,2565           02766                                    INDEP
000948: 12,2566           04311                                    ORDERSW
000949: 12,2567           24571                                    MINCHECK
000950: 12,2570           00017                           STORE    MAX                                   #  IF NOT 2ND ORDER, CAN MOVE MAX BOUND IN.
000951:
000952: 12,2571           45221        MINCHECK           BDSU     DSU
000953: 12,2572           00011                                    MIN
000954: 12,2573           51000                           BOV      BPL
000955: 12,2574           24600                                    MODNGDEL
000956: 12,2575           24600                                    MODNGDEL
000957: 12,2576           77650                           GOTO
000958: 12,2577           24632                                    DELOK
000959:
000960: 12,2600           45345        MODNGDEL           DLOAD    DSU                                   #  TRIAL DELINDEP WOULD EXCEED MIN BOUND
000961: 12,2601           00011                                    MIN
000962: 12,2602           02766                                    INDEP
000963: 12,2603           52005                           DMP      GOTO
000964: 12,2604           11015                                    DP9/10
000965: 12,2605           24634                                    NEWDEL
000966:
000967: 12,2606           41345        FIRSTIME           DLOAD    DMP
000968: 12,2607           00011                                    MIN
000969: 12,2610           00051                                    TWEEKIT                               #  DLOAD TWEEKIT(40D) SENSITIVE TO CHANGE.
000970: 12,2611           41325                           PDDL     DMP                                   #  S2(41D) SHOULDNT CONTAIN HI ORDER ONES


000972: 12,2612           00017                                    MAX
000973: 12,2613           00051                                    TWEEKIT
000974: 12,2614           77625                           DSU
000975: 12,2615           52165                           SIGN     GOTO
000976: 12,2616           02760                                    DELDEP
000977: 12,2617           24562                                    SGNCHECK
000978:
000979: 12,2620           43145        POSDEL             DLOAD    BON
000980: 12,2621           02766                                    INDEP
000981: 12,2622           04311                                    ORDERSW
000982: 12,2623           24625                                    MAXCHECK
000983: 12,2624           00011                           STORE    MIN                                   #  IF NOT 2ND ORDER, CAN MOVE MIN BOUND IN.
000984:
000985: 12,2625           45221        MAXCHECK           BDSU     DSU
000986: 12,2626           00017                                    MAX
000987: 12,2627           50000                           BOV      BMN
000988: 12,2630           24636                                    MODPSDEL
000989: 12,2631           24636                                    MODPSDEL
000990: 12,2632           77745        DELOK              DLOAD
000991: 12,2633           00001                                    0D
000992: 12,2634           00015        NEWDEL             STORE    DELINDEP
000993: 12,2635           77616                           RVQ
000994:
000995: 12,2636           45345        MODPSDEL           DLOAD    DSU
000996: 12,2637           00017                                    MAX
000997: 12,2640           02766                                    INDEP
000998: 12,2641           52005                           DMP      GOTO
000999: 12,2642           11015                                    DP9/10
001000: 12,2643           24634                                    NEWDEL
001001:
001002: 12,2644           44753        CHECKCTR           CS       ONE
001003: 12,2645           50120                           INDEX    FIXLOC
001004: 12,2646           60026                           AD       ITERCTR
001005: 12,2647           50120                           INDEX    FIXLOC
001006: 12,2650           54026                           TS       ITERCTR
001007: 12,2651           54154                           TS       MPAC
001008: 12,2652           06064                           TC       DANZIG
001009:


001011: 12,2653           44545        NEWSTATE           DLOAD    SR4R
001012: 12,2654           00041                                    R1
001013: 12,2655           74225                           DSU      VXSC
001014: 12,2656           00035                                    XSQC(XI)
001015: 12,2657           02722                                    UR1
001016: 12,2660           65372                           VSL1     PDDL                                  #  0D=(R1-XSQC(XI))UR1 (+33 OR 31)       PL AT 6
001017: 12,2661           00025                                    X
001018: 12,2662           60316                           DSQ      NORM
001019: 12,2663           00047                                    X1
001020: 12,2664           57275                           DMPR     DMPR
001021: 12,2665           00023                                    1/ROOTMU
001022: 12,2666           00025                                    X
001023: 12,2667           53605                           DMP      SRR*
001024: 12,2670           00033                                    S(XI)
001025: 12,2671           21572                                    0          -7,1
001026: 12,2672           77621                           BDSU
001027: 12,2673           00037                                    T
001028: 12,2674           74352                           SL1      VXSC
001029: 12,2675           02744                                    VVEC
001030: 12,2676           53372                           VSL1     VAD                                   #                                PL AT 0
001031: 12,2677           41512                           VSL4     PUSH
001032: 12,2700           77646                           ABVAL
001033: 12,2701           77701        LAMENTER           NORM
001034: 12,2702           00047                                    X1
001035: 12,2703           16720                           STODL    R2
001036: 12,2704           00031                                    XI
001037: 12,2705           45205                           DMP      DSU
001038: 12,2706           00033                                    S(XI)
001039: 12,2707           10777                                    D1/128
001040: 12,2710           76405                           DMP      SL1R
001041: 12,2711           00021                                    ROOTMU
001042: 12,2712           53605                           DMP      SLR*
001043: 12,2713           00025                                    X
001044: 12,2714           21176                                    0          -3,1
001045: 12,2715           74271                           DDV      VXSC
001046: 12,2716           02720                                    R2
001047: 12,2717           02722                                    UR1
001048: 12,2720           65372                           VSL1     PDDL                                  #  6D=V2VEC PART (+15 OR 13)     PL AT 12
001049: 12,2721           00035                                    XSQC(XI)
001050: 12,2722           56257                           SLR*     DDV
001051: 12,2723           21175                                    0          -4,1
001052: 12,2724           02720                                    R2
001053: 12,2725           77621                           BDSU
001054: 12,2726           11013                                    D1/256
001055: 12,2727           53361                           VXSC     VAD
001056: 12,2730           02744                                    VVEC                                  #                                PL AT 6
001057: 12,2731           43412                           VSL8     RVQ
001058:


001060: 04,2000                                           SETLOC   CONICS1
001061: 04,2000                                           BANK
001062:
001063: 04,2773                                           COUNT*   $$/CONIC
001064:                                                                                                  #  DO NOT DISTURB THE ORDER OF THESE CDS, OVERLAYS HAVE BEEN MADE.
001065: 04,2773           00000        BEE17              DEC      0          B-14                       #  KEEP WITH D1/8 2DEC 1.0B-17 (0000004000)
001066: 04,2774           04000 00000  D1/8               2DEC     1.0        B-3
001067: 04,2776           00200 00000  D1/128             2DEC     1.0        B-7
001068: 04,3000           00400 00000  D1/64              2DEC     1.0        B-6
001069: 04,3002           10000 00000  D1/4               2DEC     1.0        B-2
001070: 04,3004           02000 00000  D1/16              2DEC     1.0        B-4
001071: 04,3006           01000 00000  D1/32              2DEC     1.0        B-5
001072: 04,3010           00020 00000  D1/1024            2DEC     1.0        B-10
001073: 04,3012           00100 00000  D1/256             2DEC     1.0        B-8
001074: 04,3014           34631 23146  DP9/10             2DEC     .9
001075: 04,3016  12,2006               KEPZERO            EQUALS   LO6ZEROS
001076: 04,3016           77467 77777  -50SC              2DEC     -50.0      B-12
001077: 04,3020           03110 17665  2PISC              2DEC     6.28318530 B-6
001078: 04,3022  04,3005               BEE19              EQUALS   D1/32      -1                         #  2DEC 1.0 B-19 (00000 01000)
001079: 04,3022  04,3011               BEE22              EQUALS   D1/256     -1                         #  2DEC 1.0 B-22 (00000 00100)
001080: 04,3022           00000 00001  ONEBIT             2DEC     1.0        B-28
001081: 04,3024           37767 37737  COGUPLIM           2DEC     .999511597
001082: 04,3026           40010 40040  COGLOLIM           2DEC     -.999511597
001083:


001085: 12,2000                                           SETLOC   CONICS
001086: 12,2000                                           BANK
001087:
001088: 12,2732                                           COUNT*   $$/CONIC
001089: 12,2732           40220        TIMETHET           STQ      SETPD                                 #                                PL AT 0
001090: 12,2733           02710                                    RTNTT
001091: 12,2734           00001                                    0
001092: 12,2735           77600                           BOV
001093: 12,2736           24737                                    +1
001094: 12,2737           63375                           VLOAD    PDVL                                  #  SETUP FOR PARAM CALL          PL AT 6
001095: 12,2740           02655                                    RVEC
001096: 12,2741           02744                                    VVEC
001097: 12,2742           77624                           CALL
001098: 12,2743           11030                                    PARAM
001099: 12,2744           45000                           BOV      CALL
001100: 12,2745           24764                                    COGAOVFL                              #                                PL AT 0
001101: 12,2746           24767                                    GETX
001102: 12,2747           43145        COMMNOUT           DLOAD    BON
001103: 12,2750           00031                                    XI
001104: 12,2751           04310                                    INFINFLG
001105: 12,2752           25752                                    ABTCONIC
001106: 12,2753           45014                           CLEAR    CALL
001107: 12,2754           04273                                    COGAFLAG
001108: 12,2755           24421                                    DELTIME
001109: 12,2756           45014                           BON      CALL
001110: 12,2757           03706                                    RVSW
001111: 12,2760           02710                                    RTNTT
001112: 12,2761           24653                                    NEWSTATE
001113: 12,2762           77650                           GOTO
001114: 12,2763           02710                                    RTNTT
001115:
001116: 12,2764           77614        COGAOVFL           SETGO
001117: 12,2765           04033                                    COGAFLAG
001118: 12,2766           25752                                    ABTCONIC
001119:
001120: 04,3030                                           BANK     4
001121: 04,2000                                           SETLOC   CONICS1
001122: 04,2000                                           BANK
001123: 04,3030                                           COUNT*   $$/CONIC
001124: 04,3030           43020        PARAM              STQ      CLEAR                                 #  MPAC=V1VEC, 0D=R1VEC          PL AT 6
001125: 04,3031           02753                                    RTNPRM
001126: 04,3032           03665                                    NORMSW
001127: 04,3033           77614                           CLEAR
001128: 04,3034           04273                                    COGAFLAG
001129: 04,3035           45131                           SSP      CALL
001130: 04,3036           02673                                    GEOMSGN
001131: 04,3037           27777                                    37777                                 #  GAMMA ALWAYS LESS THAN 180DEG
001132: 04,3040           11074                                    GEOM                                  #  MPAC=SNGA (+1), 0D=CSGA (+1)  PL AT 2
001133: 04,3041           14045                           STODL    36D                                   #  36D=SIN GAMMA (+1)            PL AT 0
001134: 04,3042           56261                           SR       DDV


001136: 04,3043           20606                                    5
001137: 04,3044           00045                                    36D
001138: 04,3045           32766                           STOVL*   COGA
001139: 04,3046           10005                                    MUTABLE,1
001140: 04,3047           14017                           STODL    1/MU
001141: 04,3050           02720                                    MAGVEC2
001142: 04,3051           60316                           DSQ      NORM
001143: 04,3052           00047                                    X1
001144: 04,3053           41275                           DMPR     DMP
001145: 04,3054           00017                                    1/MU
001146: 04,3055           00041                                    R1
001147: 04,3056           77657                           SRR*
001148: 04,3057           21576                                    0          -3,1
001149: 04,3060           44206                           PUSH     BDSU                                  #  0D=R1 V1SQ/MU (+6)            PL AT 2
001150: 04,3061           11007                                    D1/32
001151: 04,3062           16742                           STODL    R1A                                   #  R1A (+6)                      PL AT 0
001152:
001153: 04,3063           60205                           DMP      NORM
001154: 04,3064           00045                                    36D
001155: 04,3065           00047                                    X1
001156: 04,3066           53605                           DMP      SR*
001157: 04,3067           00045                                    36D
001158: 04,3070           20575                                    0          -4,1
001159: 04,3071           02740                           STORE    P                                     #  P (+4)
001160: 04,3072           77650                           GOTO
001161: 04,3073           02753                                    RTNPRM
001162:


001164: 04,3074           77656        GEOM               UNIT                                           #  MPAC=V2VEC, 0D=R1VEC          PL AT 6
001165: 04,3075           16712                           STODL    U2                                    #  U2 (+1)
001166: 04,3076           00045                                    36D
001167: 04,3077           26720                           STOVL    MAGVEC2                               #                                PL AT 0
001168: 04,3100           77656                           UNIT
001169: 04,3101           02722                           STORE    UR1                                   #  UR1 (+1)
001170: 04,3102           72441                           DOT      SL1
001171: 04,3103           02712                                    U2
001172: 04,3104           77725                           PDDL                                           #  0D=CSTH (+1)                  PL AT 2
001173: 04,3105           00045                                    36D
001174: 04,3106           24041                           STOVL    R1                                    #  R1 (+29 OR +27)
001175: 04,3107           02722                                    UR1
001176: 04,3110           76435                           VXV      VSL1
001177: 04,3111           02712                                    U2
001178: 04,3112           75214                           BON      SIGN
001179: 04,3113           03705                                    NORMSW
001180: 04,3114           11126                                    HAVENORM
001181: 04,3115           02673                                    GEOMSGN
001182: 04,3116           40056                           UNIT     BOV
001183: 04,3117           11124                                    COLINEAR
001184: 04,3120           16674        UNITNORM           STODL    UN                                    #  UN (+1)
001185: 04,3121           00045                                    36D
001186: 04,3122           43565                           SIGN     RVQ                                   #  MPAC=SNTH (+1), 34D=SNTH.SNTH (+2)
001187: 04,3123           02673                                    GEOMSGN
001188:
001189: 04,3124           52162        COLINEAR           VSR1     GOTO
001190: 04,3125           11120                                    UNITNORM
001191:
001192: 04,3126           75246        HAVENORM           ABVAL    SIGN
001193: 04,3127           02673                                    GEOMSGN
001194: 04,3130           77616                           RVQ                                            #  MPAC=SNTH (+1), 34D=SNTH.SNTH (+2)
001195:


001197: 12,2767                                           BANK     12
001198: 12,2000                                           SETLOC   CONICS
001199: 12,2000                                           BANK
001200:
001201: 12,2767                                           COUNT*   $$/CONIC
001202: 12,2767           66374        GETX               AXT,2    SSP                                   #  ASSUMES P (+4) IN MPAC
001203: 12,2770           00003                                    3
001204: 12,2771           00052                                    S2
001205: 12,2772           00001                                    1
001206: 12,2773           77614                           CLEAR
001207: 12,2774           04276                                    360SW
001208: 12,2775           65366                           SQRT     PDDL                                  #  0D=SQRT(P)                    PL AT 2
001209: 12,2776           02732                                    CSTH
001210: 12,2777           44342                           SR1      BDSU
001211: 12,3000           11003                                    D1/4
001212: 12,3001           54325                           PDDL     SRR                                   #                                PL AT 4D
001213: 12,3002           02730                                    SNTH
001214: 12,3003           21607                                    6
001215: 12,3004           77671                           DDV                                            #                                PL AT 2
001216: 12,3005           77600                           BOV
001217: 12,3006           25122                                    360CHECK
001218: 12,3007           41225                           DSU      DMP
001219: 12,3010           02766                                    COGA                                  #                                PL AT 0
001220: 12,3011           40132                           SL2R     BOV
001221: 12,3012           25122                                    360CHECK
001222: 12,3013           63406        WLOOP              PUSH     DSQ                                   #  0D=W (+5)                     PL AT 2
001223: 12,3014           65351                           TLOAD    PDDL                                  #  2D=WSQ (+10)                  PL AT 5
001224: 12,3015           00155                                    MPAC
001225: 12,3016           02742                                    R1A
001226: 12,3017           76202                           SR4      TAD                                   #                                PL AT 2
001227: 12,3020           75440                           BMN      SQRT
001228: 12,3021           25205                                    INFINITY
001229: 12,3022           43306                           ROUND    DAD                                   #                                PL AT 0D
001230: 12,3023           61000                           BOV      TIX,2
001231: 12,3024           25120                                    RESETX2
001232: 12,3025           25013                                    WLOOP
001233:
001234: 12,3026           40065                           BDDV     BOV
001235: 12,3027           10777                                    D1/128
001236: 12,3030           25205                                    INFINITY
001237: 12,3031           41440        POLYCOEF           BMN      PUSH                                  #  0D=1/W (+2) OR 16/W (+6)      PL AT 2
001238: 12,3032           25205                                    INFINITY
001239: 12,3033           77716                           DSQ
001240: 12,3034           41301                           NORM     DMP
001241: 12,3035           00047                                    X1
001242: 12,3036           02742                                    R1A
001243: 12,3037           77457                           SRR*     EXIT
001244: 12,3040           21567                                    0          -10D,1
001245: 12,3041           07225                           TC       POLY


001247: 12,3042           00005                           DEC      5          B-14
001248: 12,3043           20000 00000                     2DEC     .5
001249: 12,3045           72525 52471                     2DEC     -.166666770
001250: 12,3047           03146 15003                     2DEC     .100000392
001251: 12,3051           75556 45210                     2DEC     -.071401086
001252: 12,3053           01615 13553                     2DEC     .055503292
001253: 12,3055           76371 63777                     2DEC     -.047264098
001254: 12,3057           01232 27367                     2DEC     .040694204
001255:
001256: 12,3061           06042                           TC       INTPRET
001257: 12,3062           76405                           DMP      SL1R                                  #                                PL AT 0D
001258: 12,3063           43006                           PUSH     BON
001259: 12,3064           04316                                    360SW
001260: 12,3065           25172                                    TRUE360X
001261: 12,3066           60316        XCOMMON            DSQ      NORM
001262: 12,3067           00047                                    X1
001263: 12,3070           53605                           DMP      SRR*
001264: 12,3071           02742                                    R1A
001265: 12,3072           21565                                    0          -12D,1
001266: 12,3073           14031                           STODL    XI                                    #  XI (+6)
001267: 12,3074           00041                                    R1
001268: 12,3075           75542                           SR1      SQRT
001269: 12,3076           41306                           ROUND    DMP
001270: 12,3077           77632                           SL4R                                           #                                PL AT 0
001271: 12,3100           00025                           STORE    X                                     #  X (+17 OR +16)
001272:
001273: 12,3101           60316                           DSQ      NORM
001274: 12,3102           00047                                    X1
001275: 12,3103           41325                           PDDL     DMP                                   #  0D=XSQ (+34 OR +32 -N1)       PL AT 2
001276: 12,3104           02740                                    P
001277: 12,3105           00041                                    R1
001278: 12,3106           75452                           SL3      SQRT
001279: 12,3107           56405                           DMP      SL3R
001280: 12,3110           02766                                    COGA
001281: 12,3111           14043                           STODL    KEPC1
001282: 12,3112           02742                                    R1A
001283: 12,3113           43021                           BDSU     CLEAR
001284: 12,3114           11001                                    D1/64
001285: 12,3115           04270                                    INFINFLG
001286: 12,3116           00045                           STORE    KEPC2
001287: 12,3117           77616                           RVQ
001288:


001290: 12,3120           77774        RESETX2            AXT,2
001291: 12,3121           00003                                    3
001292:
001293: 12,3122           51001        360CHECK           SETPD    BPL
001294: 12,3123           00001                                    0D
001295: 12,3124           25127                                    INVRSEQN
001296: 12,3125           77614                           SET
001297: 12,3126           04076                                    360SW
001298:
001299: 12,3127           75545        INVRSEQN           DLOAD    SQRT
001300: 12,3130           02740                                    P
001301: 12,3131           41325                           PDDL     DMP                                   #  0D=SQRT(P) (+2)               PL AT 2
001302: 12,3132           02730                                    SNTH
001303: 12,3133           02766                                    COGA
001304: 12,3134           65352                           SL1      PDDL                                  #  2D=SNTH COGA (+5)             PL AT 4
001305: 12,3135           02732                                    CSTH
001306: 12,3136           43202                           SR4      DAD
001307: 12,3137           11007                                    D1/32
001308: 12,3140           41225                           DSU      DMP                                   #                                PL AT 2,0
001309: 12,3141           55301                           NORM     BDDV
001310: 12,3142           00047                                    X1
001311: 12,3143           02730                                    SNTH
001312: 12,3144           51457                           SLR*     ABS                                   #  NOTE: NEAR 360 CASE TREATED DIFFERENTLY
001313: 12,3145           21174                                    0          -5,1
001314: 12,3146           63406                           PUSH     DSQ                                   #  0D=1/W (-1)                   PL AT 2
001315: 12,3147           14043                           STODL    34D
001316: 12,3150           11005                                    D1/16
001317: 12,3151           63406        1/WLOOP            PUSH     DSQ                                   #  2D=G (+4)                     PL AT 4
001318: 12,3152           65234                           RTB      PDDL                                  #                                PL AT 7
001319: 12,3153           21634                                    TPMODE
001320: 12,3154           02742                                    R1A
001321: 12,3155           40405                           DMP      SR4
001322: 12,3156           00043                                    34D
001323: 12,3157           77771                           TAD
001324: 12,3160           75440                           BMN      SQRT                                  #                                PL AT 4
001325: 12,3161           25205                                    INFINITY
001326: 12,3162           77615                           DAD                                            #                                PL AT 2
001327: 12,3163           60304                           TIX,2    NORM
001328: 12,3164           25151                                    1/WLOOP
001329: 12,3165           00047                                    X1
001330: 12,3166           77665                           BDDV
001331: 12,3167           52057                           SLR*     GOTO                                  #                                PL AT 0
001332: 12,3170           21172                                    0          -7,1
001333: 12,3171           25031                                    POLYCOEF
001334:
001335: 12,3172           50145        TRUE360X           DLOAD    BMN
001336: 12,3173           02742                                    R1A


001338: 12,3174           25205                                    INFINITY
001339: 12,3175           60366                           SQRT     NORM
001340: 12,3176           00047                                    X1
001341: 12,3177           53665                           BDDV     SL*
001342: 12,3200           11021                                    2PISC
001343: 12,3201           20176                                    0          -3,1
001344: 12,3202           41425                           DSU      PUSH                                  #  0D=2PI/SQRT(R1A) -X           PL AT 0,2
001345: 12,3203           77650                           GOTO
001346: 12,3204           25066                                    XCOMMON
001347: 12,3205           40001        INFINITY           SETPD    BOV                                   #  NO SOLUTION EXISTS SINCE CLOSURE THROUGH
001348: 12,3206           00001                                    0                                     #  INFINITY IS REQUIRED
001349: 12,3207           25210                                    OVFLCLR
001350: 12,3210           43414        OVFLCLR            SET      RVQ
001351: 12,3211           04070                                    INFINFLG
001352:


001354: 12,3212           40220        LAMBERT            STQ      SETPD
001355: 12,3213           02710                                    RTNLAMB
001356: 12,3214           00001                                    0D
001357: 12,3215           77600                           BOV
001358: 12,3216           25217                                    +1
001359: 12,3217           76614                           CLEAR    VLOAD*
001360: 12,3220           02674                                    SOLNSW
001361: 12,3221           10005                                    MUTABLE,1
001362: 12,3222           14017                           STODL    1/MU
001363: 12,3223           02671                                    TDESIRED
001364: 12,3224           77675                           DMPR
001365: 12,3225           11006                                    BEE19
001366: 12,3226           02764                           STORE    EPSILONL
001367: 12,3227           77214                           SET      VLOAD
001368: 12,3230           00474                                    SLOPESW
001369: 12,3231           02655                                    R1VEC
001370: 12,3232           45115                           PDVL     CALL                                  #  0D=R1VEC (+29 OR +27)         PL AT 6
001371: 12,3233           02663                                    R2VEC                                 #  MPAC=R2VEC (+29 OR +27)
001372: 12,3234           11074                                    GEOM
001373: 12,3235           16730                           STODL    SNTH                                  #  0D=CSTH (+1)                  PL AT 2
001374: 12,3236           02720                                    MAGVEC2
001375: 12,3237           65301                           NORM     PDDL                                  #                                PL AT 4
001376: 12,3240           00047                                    X1
001377: 12,3241           00041                                    R1
001378: 12,3242           56342                           SR1      DDV                                   #                                PL AT 2
001379: 12,3243           65257                           SL*      PDDL                                  #  DXCH WITH 0D, 0D=R1/R2 (+7)   PL AT 0,2
001380: 12,3244           20173                                    0          -6,1
001381: 12,3245           77626                           STADR
001382: 12,3246           75045                           STORE    CSTH                                  #  CSTH (+1)
001383: 12,3247           44342                           SR1      BDSU
001384: 12,3250           11003                                    D1/4
001385: 12,3251           02734                           STORE    1-CSTH                                #  1-CSTH (+2)
001386:
001387: 12,3252           53106                           ROUND    BZE
001388: 12,3253           25473                                    360LAMB
001389: 12,3254           65301                           NORM     PDDL                                  #                                PL AT 4
001390: 12,3255           00047                                    X1
001391: 12,3256           00001                                    0D
001392: 12,3257           56342                           SR1      DDV                                   #                                PL AT 2
001393: 12,3260           75457                           SL*      SQRT
001394: 12,3261           20176                                    0          -3,1
001395: 12,3262           54325                           PDDL     SR                                    #  2D=SQRT(2R1/R2(1-CSTH)) (+5)  PL AT 4
001396: 12,3263           02730                                    SNTH
001397: 12,3264           20607                                    6
001398: 12,3265           43271                           DDV      DAD                                   #                                PL AT 2
001399: 12,3266           02734                                    1-CSTH
001400: 12,3267           77626                           STADR
001401: 12,3270           77760                           STORE    COGAMAX
001402: 12,3271           50000                           BOV      BMN                                   #  IF OVFL, COGAMAX=COGUPLIM
001403: 12,3272           25277                                    UPLIM                                 #  IF NEG, USE EVEN IF LT COGLOLIM, SINCE


001405: 12,3273           25302                                    MAXCOGA                               #        THIS WOULD BE RESET IN LAMBLOOP
001406: 12,3274           50025                           DSU      BMN                                   #  IF COGAMAX GT COGUPLIM, COGAMAX=COGUPLIM
001407: 12,3275           11025                                    COGUPLIM
001408: 12,3276           25302                                    MAXCOGA                               #  OTHERWISE OK, SO GO TO MAXCOGA
001409: 12,3277           77745        UPLIM              DLOAD
001410: 12,3300           11025                                    COGUPLIM                              #  COGUPLIM=.999511597 = MAX VALUE OF COGA
001411: 12,3301           00017                           STORE    COGAMAX                               #        NOT CAUSING OVFL IN R1A CALCULATION
001412: 12,3302           77745        MAXCOGA            DLOAD
001413: 12,3303           02732                                    CSTH
001414: 12,3304           45261                           SR       DSU                                   #                                        PL AT 0
001415: 12,3305           20607                                    6
001416: 12,3306           77626                           STADR
001417: 12,3307           61041                           STODL    CSTH-RHO
001418: 12,3310           02673                                    GEOMSGN
001419: 12,3311           71240                           BMN      DLOAD
001420: 12,3312           25513                                    LOLIM
001421: 12,3313           02736                                    CSTH-RHO
001422: 12,3314           56352                           SL1      DDV
001423: 12,3315           02730                                    SNTH
001424: 12,3316           77600                           BOV
001425: 12,3317           25513                                    LOLIM
001426: 12,3320           00011        MINCOGA            STORE    COGAMIN                               #  COGAMIN (+5)
001427: 12,3321           66214                           BON      SSP
001428: 12,3322           00715                                    GUESSW
001429: 12,3323           25477                                    NOGUESS
001430: 12,3324           00051                                    TWEEKIT
001431: 12,3325           00001                                    00001
001432: 12,3326           77745                           DLOAD
001433: 12,3327           02766                                    COGA
001434:
001435: 12,3330           77605        LAMBLOOP           DMP
001436: 12,3331           02730                                    SNTH
001437: 12,3332           45342                           SR1      DSU
001438: 12,3333           02736                                    CSTH-RHO
001439: 12,3334           65301                           NORM     PDDL                                  #  0D=SNTH COGA-(CSTH-RHO) (+7+C(XI))    PL = 2
001440: 12,3335           00047                                    X1
001441: 12,3336           02734                                    1-CSTH
001442: 12,3337           56257                           SL*      DDV                                   #  1-CSTH (+2)                           PL AT 0
001443: 12,3340           20170                                    0          -9D,1
001444: 12,3341           53040                           BMN      BZE
001445: 12,3342           25427                                    NEGP
001446: 12,3343           25427                                    NEGP
001447: 12,3344           16740                           STODL    P                                     #  P=(1-CSTH)/(SNTH COGA-(CSTH-RHO)) (+4)
001448: 12,3345           02766                                    COGA
001449: 12,3346           43316                           DSQ      DAD
001450: 12,3347           11011                                    D1/1024
001451: 12,3350           41301                           NORM     DMP
001452: 12,3351           00047                                    X1
001453: 12,3352           02740                                    P


001455: 12,3353           44257                           SR*      BDSU
001456: 12,3354           20571                                    0          -8D,1
001457: 12,3355           11007                                    D1/32
001458: 12,3356           16742                           STODL    R1A                                   #  R1A=2-P(1+COGA COGA) (+6)
001459: 12,3357           02740                                    P
001460: 12,3360           45000                           BOV      CALL
001461: 12,3361           25432                                    HIENERGY
001462: 12,3362           24767                                    GETX
001463: 12,3363           77745                           DLOAD
001464: 12,3364           00037                                    T
001465: 12,3365           16762                           STODL    TPREV
001466: 12,3366           00031                                    XI
001467: 12,3367           45014                           BON      CALL
001468: 12,3370           04310                                    INFINFLG
001469: 12,3371           25427                                    NEGP                                  #  HAVE EXCEEDED THEORETICAL BOUNDS
001470: 12,3372           24421                                    DELTIME
001471: 12,3373           44200                           BOV      BDSU
001472: 12,3374           25447                                    BIGTIME
001473: 12,3375           02671                                    TDESIRED
001474: 12,3376           02760                           STORE    TERRLAMB
001475: 12,3377           44246                           ABS      BDSU
001476: 12,3400           02764                                    EPSILONL
001477: 12,3401           47044                           BPL      RTB
001478: 12,3402           25516                                    INITV
001479: 12,3403           24644                                    CHECKCTR
001480: 12,3404           43030                           BHIZ     BON
001481: 12,3405           25460                                    SUFFCHEK
001482: 12,3406           00714                                    SLOPESW
001483: 12,3407           25415                                    GOITER
001484: 12,3410           45345                           DLOAD    DSU
001485: 12,3411           00037                                    T
001486: 12,3412           02762                                    TPREV
001487: 12,3413           77654                           BZE
001488: 12,3414           25460                                    SUFFCHEK
001489: 12,3415           77624        GOITER             CALL
001490: 12,3416           24536                                    ITERATOR
001491: 12,3417           53145                           DLOAD    BZE
001492: 12,3420           00155                                    MPAC
001493: 12,3421           25460                                    SUFFCHEK
001494: 12,3422           77615                           DAD
001495: 12,3423           02766                                    COGA
001496: 12,3424           02766                           STORE    COGA
001497: 12,3425           77650                           GOTO
001498: 12,3426           25330                                    LAMBLOOP
001499:
001500: 12,3427           51145        NEGP               DLOAD    BPL                                   #  IMPOSSIBLE TRAJECTORY DUE TO INACCURATE
001501: 12,3430           00015                                    DCOGA                                 #  BOUND CALCULATION.  TRY NEW COGA.
001502: 12,3431           25452                                    LOENERGY
001503:


001505: 12,3432           71201        HIENERGY           SETPD    DLOAD                                 #  HIGH ENERGY TRAJECTORY RESULTED
001506: 12,3433           00001                                    0
001507: 12,3434           02766                                    COGA                                  #  IN OVFL OF P OR R1A, OR XI EXCEEDING 50.
001508: 12,3435           00011                           STORE    COGAMIN                               #  THIS IS THE NEW BOUND.
001509: 12,3436           70545        COMMONLM           DLOAD    SR1
001510: 12,3437           00015                                    DCOGA
001511: 12,3440           00015                           STORE    DCOGA                                 #  USE DCOGA/2 AS DECREMENT
001512: 12,3441           44254                           BZE      BDSU
001513: 12,3442           25460                                    SUFFCHEK
001514: 12,3443           02766                                    COGA
001515: 12,3444           02766                           STORE    COGA
001516: 12,3445           77650                           GOTO                                           #  RESTART THIS LOOP
001517: 12,3446           25330                                    LAMBLOOP
001518:
001519: 12,3447           77745        BIGTIME            DLOAD
001520: 12,3450           02762                                    TPREV
001521: 12,3451           00037                           STORE    T
001522:
001523: 12,3452           71201        LOENERGY           SETPD    DLOAD                                 #  LOW ENERGY TRAJECTORY RESULTED
001524: 12,3453           00001                                    0
001525: 12,3454           02766                                    COGA                                  #  IN OVERFLOW OF TIME.
001526: 12,3455           00017                           STORE    COGAMAX                               #  THIS IS THE NEW BOUND.
001527: 12,3456           77650                           GOTO
001528: 12,3457           25436                                    COMMONLM
001529:
001530: 12,3460           51545        SUFFCHEK           DLOAD    ABS
001531: 12,3461           02760                                    TERRLAMB
001532: 12,3462           41325                           PDDL     DMP
001533: 12,3463           02671                                    TDESIRED                              #                                PL AT 2D
001534: 12,3464           10774                                    BEE17
001535: 12,3465           45215                           DAD      DSU                                   #                                PL AT 0D
001536: 12,3466           11023                                    ONEBIT
001537: 12,3467           43044                           BPL      SETGO
001538: 12,3470           25516                                    INITV
001539: 12,3471           02434                                    SOLNSW
001540: 12,3472           25516                                    INITV
001541: 12,3473           43001        360LAMB            SETPD    SETGO                                 #  LAMBERT CANNOT HANDLE CSTH=1
001542: 12,3474           00001                                    0
001543: 12,3475           02434                                    SOLNSW
001544: 12,3476           02710                                    RTNLAMB
001545:
001546: 12,3477           71331        NOGUESS            SSP      DLOAD
001547: 12,3500           00051                                    TWEEKIT
001548: 12,3501           10000                                    20000
001549: 12,3502           00011                                    COGAMIN
001550: 12,3503           65342                           SR1      PDDL                                  #                                PL AT 2


001552: 12,3504           00017                                    COGAMAX
001553: 12,3505           43342                           SR1      DAD
001554: 12,3506           77626                           STADR                                          #                                PL AT 0
001555: 12,3507           75011                           STORE    COGA
001556: 12,3510           00015                           STORE    DCOGA
001557: 12,3511           77650                           GOTO
001558: 12,3512           25330                                    LAMBLOOP
001559:
001560: 12,3513           52145        LOLIM              DLOAD    GOTO
001561: 12,3514           11027                                    COGLOLIM                              #  COGLOLIM=-.999511597
001562: 12,3515           25320                                    MINCOGA
001563:
001564: 12,3516           60345        INITV              DLOAD    NORM
001565: 12,3517           00041                                    R1
001566: 12,3520           00047                                    X1
001567: 12,3521           70525                           PDDL     SR1                                   #                                PL AT 2
001568: 12,3522           02740                                    P
001569: 12,3523           77671                           DDV                                            #                                PL AT 0
001570: 12,3524           75457                           SL*      SQRT
001571: 12,3525           20175                                    0          -4,1
001572: 12,3526           72405                           DMP      SL1
001573: 12,3527           00021                                    ROOTMU
001574: 12,3530           41206                           PUSH     DMP                                   #  0D=VTAN (+7)                  PL AT 2
001575: 12,3531           02766                                    COGA
001576: 12,3532           74261                           SL       VXSC
001577: 12,3533           20206                                    5
001578: 12,3534           02722                                    UR1
001579: 12,3535           77725                           PDDL                                           #  XCH WITH 0D                   PL AT 0,6
001580: 12,3536           76561                           VXSC     VSL1
001581: 12,3537           02674                                    UN
001582: 12,3540           53235                           VXV      VAD
001583: 12,3541           02722                                    UR1                                   #                                PL AT 0
001584: 12,3542           77772                           VSL1
001585: 12,3543           02744                           STORE    VVEC
001586: 12,3544           53135                           SLOAD    BZE
001587: 12,3545           02702                                    VTARGTAG
001588: 12,3546           25551                                    TARGETV
001589: 12,3547           77650                           GOTO
001590: 12,3550           02710                                    RTNLAMB
001591:
001592: 12,3551           45145        TARGETV            DLOAD    CALL
001593: 12,3552           02720                                    MAGVEC2
001594: 12,3553           24701                                    LAMENTER
001595: 12,3554           02703                           STORE    VTARGET
001596: 12,3555           77650                           GOTO
001597: 12,3556           02710                                    RTNLAMB
001598:


001600: 12,3557           40220        TIMERAD            STQ      SETPD                                 #                                PL AT 0
001601: 12,3560           02710                                    RTNTR
001602: 12,3561           00001                                    0
001603: 12,3562           77600                           BOV
001604: 12,3563           25564                                    +1
001605: 12,3564           63375                           VLOAD    PDVL                                  #                                PL AT 6
001606: 12,3565           02655                                    RVEC
001607: 12,3566           02744                                    VVEC
001608: 12,3567           77624                           CALL
001609: 12,3570           11030                                    PARAM
001610: 12,3571           71200                           BOV      DLOAD
001611: 12,3572           24764                                    COGAOVFL                              #                                PL AT 0
001612: 12,3573           11007                                    D1/32
001613: 12,3574           41225                           DSU      DMP
001614: 12,3575           02742                                    R1A
001615: 12,3576           02740                                    P
001616: 12,3577           41366                           SQRT     DMP
001617: 12,3600           02766                                    COGA
001618: 12,3601           74212                           SL4      VXSC
001619: 12,3602           02712                                    U2
001620: 12,3603           45325                           PDDL     DSU                                   #                                PL AT 6
001621: 12,3604           11001                                    D1/64
001622: 12,3605           02742                                    R1A
001623: 12,3606           52361                           VXSC     VSU                                   #                                PL AT 0
001624: 12,3607           02722                                    UR1
001625: 12,3610           53512                           VSL4     UNIT
001626: 12,3611           77600                           BOV
001627: 12,3612           25670                                    CIRCULAR
001628: 12,3613           60325                           PDDL     NORM                                  #  0D=UNIT(ECC) (+3)             PL AT 6
001629: 12,3614           02756                                    RDESIRED                              #  35D=ECC (+3)
001630: 12,3615           00047                                    X1
001631: 12,3616           41325                           PDDL     DMP                                   #                                PL AT 8
001632: 12,3617           00041                                    R1
001633: 12,3620           02740                                    P
001634: 12,3621           56257                           SL*      DDV                                   #                                PL AT 6
001635: 12,3622           20201                                    0,1
001636: 12,3623           56225                           DSU      DDV
001637: 12,3624           11005                                    D1/16
001638: 12,3625           00045                                    36D                                   #  36D=ECC (+3)
001639: 12,3626           00031                           STORE    COSF
001640: 12,3627           63400                           BOV      DSQ
001641: 12,3630           25674                                    BADR2
001642: 12,3631           50021                           BDSU     BMN
001643: 12,3632           11003                                    D1/4
001644: 12,3633           25674                                    BADR2
001645: 12,3634           75366                           SQRT     SIGN
001646: 12,3635           02755                                    SGNRDOT
001647: 12,3636           77614                           CLEAR
001648: 12,3637           04272                                    APSESW


001650: 12,3640           76561        TERMNVEC           VXSC     VSL1
001651: 12,3641           02674                                    UN
001652: 12,3642           63235                           VXV      PDVL                                  #  VXCH WITH 0D          PL AT 0,6
001653: 12,3643           00001                                    0D
001654: 12,3644           53361                           VXSC     VAD                                   #                        PL AT 0
001655: 12,3645           00031                                    COSF
001656: 12,3646           41572                           VSL1     PUSH                                  #  0D=U2                 PL AT 6
001657:
001658: 12,3647           56241                           DOT      DDV                                   #  LIMITS RESULT TO POSMAX OR NEGMAX
001659: 12,3650           02722                                    UR1
001660: 12,3651           25766                                    DP1/4
001661: 12,3652           40142                           SR1      BOV                                   #  SCALE BACK DOWN TO NORMAL
001662: 12,3653           25654                                    +1                                    #  CLEAR OVFIND IF SET
001663: 12,3654           26732                           STOVL    CSTH                                  #  CSTH (+1)
001664: 12,3655           02722                                    UR1
001665: 12,3656           76435                           VXV      VSL1
001666: 12,3657           72441                           DOT      SL1
001667: 12,3660           02674                                    UN
001668: 12,3661           16730                           STODL    SNTH                                  #  SNTH (+1)
001669: 12,3662           02740                                    P
001670: 12,3663           77624                           CALL
001671: 12,3664           24767                                    GETX
001672: 12,3665           77614                           CLRGO
001673: 12,3666           02634                                    SOLNSW
001674: 12,3667           24747                                    COMMNOUT
001675:
001676: 12,3670           43001        CIRCULAR           SETPD    SETGO
001677: 12,3671           00001                                    0
001678: 12,3672           02434                                    SOLNSW
001679: 12,3673           25752                                    ABTCONIC
001680:
001681: 12,3674           75345        BADR2              DLOAD    SIGN
001682: 12,3675           24005                                    LODPHALF
001683: 12,3676           00031                                    COSF
001684: 12,3677           14031                           STODL    COSF
001685: 12,3700           24007                                    KEPZERO
001686: 12,3701           77614                           SETGO
001687: 12,3702           04032                                    APSESW
001688: 12,3703           25640                                    TERMNVEC
001689:


001691: 12,3704           40220        APSIDES            STQ      SETPD                                 #                        PL AT 0
001692: 12,3705           02710                                    RTNAPSE
001693: 12,3706           00001                                    0D
001694: 12,3707           77600                           BOV
001695: 12,3710           25711                                    +1
001696: 12,3711           63375                           VLOAD    PDVL                                  #                        PL AT 6
001697: 12,3712           02655                                    RVEC
001698: 12,3713           02744                                    VVEC
001699: 12,3714           77624                           CALL
001700: 12,3715           11030                                    PARAM
001701: 12,3716           77600                           BOV                                            #                        PL AT 0
001702: 12,3717           25720                                    GETECC
001703: 12,3720           42405        GETECC             DMP      SL4
001704: 12,3721           02742                                    R1A
001705: 12,3722           75421                           BDSU     SQRT
001706: 12,3723           11001                                    D1/64
001707: 12,3724           02752                           STORE    ECC
001708: 12,3725           65215                           DAD      PDDL                                  #                        PL AT 2
001709: 12,3726           10775                                    D1/8
001710: 12,3727           00041                                    R1
001711: 12,3730           72405                           DMP      SL1
001712: 12,3731           02740                                    P
001713: 12,3732           77671                           DDV                                            #                        PL AT 0
001714: 12,3733           60325                           PDDL     NORM                                  #  0D=RP (+29 OR +27)    PL AT 2
001715: 12,3734           02742                                    R1A
001716: 12,3735           00047                                    X1
001717: 12,3736           53725                           PDDL     SL*                                   #                        PL AT 4
001718: 12,3737           00041                                    R1
001719: 12,3740           20174                                    0          -5,1
001720: 12,3741           45271                           DDV      DSU                                   #                        PL AT 2,0
001721: 12,3742           50000                           BOV      BMN
001722: 12,3743           25747                                    INFINAPO
001723: 12,3744           25747                                    INFINAPO
001724: 12,3745           77650                           GOTO
001725: 12,3746           02710                                    RTNAPSE
001726: 12,3747           52145        INFINAPO           DLOAD    GOTO                                  #  RETURNS WITH APOAPSIS IN MPAC, PERIAPSIS
001727: 12,3750           24020                                    LDPOSMAX
001728: 12,3751           02710                                    RTNAPSE                               #  THAT PL IS AT 0.
001729:


001731: 12,3752           77776        ABTCONIC           EXIT
001732: 12,3753           05642                           TC       POODOO
001733: 12,3754           20607                           OCT      20607
001734:
001735: 12,3755  12,2017               LDPOSMAX           EQUALS   LODPMAX                               #  DPPOSMAX IN LOW MEMORY.
001736:
001737:                                                                                                  #  ERASABLE ASSIGNMENTS
001738:                                                                                                  #  KEPLER SUBROUTINE
001739:
001740:                                                                                                  #  INPUT -
001741:                                                                                                  #  RRECT         ERASE   +5
001742:                                                                                                  #  VRECT         ERASE   +5
001743:                                                                                                  #  TAU.          ERASE   +1
001744:                                                                                                  #  XKEP          ERASE   +1
001745:                                                                                                  #  TC            ERASE   +1
001746:                                                                                                  #  XPREV         ERASE   +1
001747: 12,3755                        1/MU               EQUALS   14D
001748: 12,3755                        ROOTMU             EQUALS   16D
001749: 12,3755                        1/ROOTMU           EQUALS   18D
001750:
001751:                                                                                                  #  OUTPUT -
001752:                                                                                                  #  RCV           ERASE   +5
001753:                                                                                                  #  VCV           ERASE   +5
001754:                                                                                                  #  RC            ERASE   +1
001755:                                                                                                  #  XPREV         ERASE   +1
001756:
001757:                                                                                                  #  DEBRIS -
001758: 12,3755                        ALPHA              EQUALS   8D
001759: 12,3755                        XMAX               EQUALS   10D
001760: 12,3755                        XMIN               EQUALS   12D
001761: 12,3755                        X                  EQUALS   20D
001762: 12,3755                        XI                 EQUALS   24D
001763: 12,3755                        S(XI)              EQUALS   26D
001764: 12,3755                        XSQC(XI)           EQUALS   28D
001765: 12,3755                        T                  EQUALS   30D
001766: 12,3755                        R1                 EQUALS   32D
001767: 12,3755                        KEPC1              EQUALS   34D
001768: 12,3755                        KEPC2              EQUALS   36D
001769:                                                                                                  #  DELX          ERASE   +1
001770:                                                                                                  #  DELT          ERASE   +1
001771:                                                                                                  #  URRECT        ERASE   +5
001772:                                                                                                  #  RCNORM        ERASE   +1
001773:                                                                                                  #  XPREV         EQUALS  XKEP
001774:
001775:
001776:                                                                                                  #  LAMBERT SUBROUTINE
001777:
001778:                                                                                                  #  INPUT -
001779:                                                                                                  #  R1VEC         ERASE   +5


001781:                                                                                                  #  R2VEC         ERASE   +5
001782:                                                                                                  #  TDESIRED      ERASE   +1
001783:                                                                                                  #  GEOMSGN       ERASE   +0
001784:                                                                                                  #  GUESSW                        0 IF COGA GUESS AVAILABLE, 1 IF NOT
001785:                                                                                                  #  COGA          ERASE   +1      INPUT ONLY IF GUESSW IS ZERO.
001786:                                                                                                  #  NORMSW                        0 IF UN TO BE COMPUTED, 1 IF UN INPUT
001787:                                                                                                  #  UN            ERASE   +5      ONLY USED IF NORMSW IS 1
001788:                                                                                                  #  VTARGTAG      ERASE   +0
001789:                                                                                                  #  TWEEKIT       EQUALS  40D     ONLY USED IF GUESSW IS 0
001790:
001791:                                                                                                  #  OUTPUT -
001792:                                                                                                  #  VTARGET       ERASE   +5      AVAILABLE ONLY IF VTARGTAG IS ZERO.
001793:                                                                                                  #  V1VEC         EQUALS  MPAC
001794:
001795:                                                                                                  #  DEBRIS -
001796:                                                                                                  #  RTNLAMB       ERASE   +0
001797:                                                                                                  #  U2            ERASE   +5
001798:                                                                                                  #  MAGVEC2       ERASE   +1
001799:                                                                                                  #  UR1           ERASE   +5
001800:                                                                                                  #  R1            EQUALS  31D
001801:                                                                                                  #  UN            ERASE   +5
001802:                                                                                                  #  SNTH          ERASE   +1
001803:                                                                                                  #  CSTH          ERASE   +1
001804:                                                                                                  #  1-CSTH        ERASE   +1
001805:                                                                                                  #  CSTH-RHO      ERASE   +1
001806: 12,3755                        COGAMAX            EQUALS   14D                                   #  CLOBBERS 1/MU
001807: 12,3755                        COGAMIN            EQUALS   8D
001808: 12,3755                        DCOGA              EQUALS   12D
001809:                                                                                                  #  TWEEKIT       EQUALS  40D
001810:                                                                                                  #  P             ERASE   +1
001811:                                                                                                  #  COGA          ERASE   +1
001812:                                                                                                  #  R1A           ERASE   +1
001813:                                                                                                  #  X             EQUALS  20D
001814:                                                                                                  #  XSQ           EQUALS  22D
001815:                                                                                                  #  XI            EQUALS  24D
001816:                                                                                                  #  S(XI)         EQUALS  26D
001817:                                                                                                  #  XSQC(XI)      EQUALS  28D
001818:                                                                                                  #  T             EQUALS  30D
001819:                                                                                                  #  KEPC1         EQUALS  34D
001820:                                                                                                  #  KEPC2         EQUALS  36D
001821:                                                                                                  #  SLOPESW
001822:                                                                                                  #  SOLNSW
001823:
001824:                                                                                                  #  OTHERS -
001825:                                                                                                  #  RVEC          EQUALS  R1VEC
001826:                                                                                                  #  VVEC          ERASE   +5
001827:                                                                                                  #  COGAFLAG
001828:                                                                                                  #  RVSW
001829:                                                                                                  #  INFINFLG
001830:                                                                                                  #  APSESW


001832:                                                                                                  #  360SW
001833:                                                                                                  #  RTNTT         EQUALS  RTNLAMB
001834:                                                                                                  #  ECC           ERASE   +1
001835:                                                                                                  #  RTNTR         EQUALS  RTNLAMB
001836:                                                                                                  #  RTNAPSE       EQUALS  RTNLAMB
001837:                                                                                                  #  R2            EQUALS  MAGVEC2
001838: 12,3755                        COSF               EQUALS   24D
001839:                                                                                                  #  RTNPRM        ERASE   +0
001840:                                                                                                  #  SCNRDOT       ERASE   +0
001841:                                                                                                  #  RDESIRED      ERASE   +1
001842:
001843:
001844:                                                                                                  #  ITERATOR SUBROUTINE
001845:                                                                                                  #  ORDERSW
001846: 12,3755                        MAX                EQUALS   14D                                   #  CLOBBERS 1/MU
001847: 12,3755                        MIN                EQUALS   8D
001848:                                                                                                  #  INDEP         ERASE   +1
001849: 12,3755                        DELINDEP           EQUALS   12D
001850: 12,3755                        ITERCTR            EQUALS   22D
001851: 12,3755                        DEP                EQUALS   30D
001852:                                                                                                  #  DELDEP        ERASE   +1
001853:                                                                                                  #  DEPREV        ERASE   +1
001854: 12,3755                        TWEEKIT            EQUALS   40D
001855:
001856:
001857:                                                                                                  #  MORE KEPLER
001858:                                                                                                  #  EPSILONT      ERASE   +1
001859:
001860:
001861:                                                                                                  #  MORE LAMBERT
001862:                                                                                                  #  TERRLAMB      EQUALS  DELDEP
001863:                                                                                                  #  TPREV         EQUALS  DEPREV
001864:                                                                                                  #  EPSILONL      EQUALS  EPSILONT +2     DOUBLE PRECISION WORD
001865:

End of include-file CONIC_SUBROUTINES.agc.  Parent file is MAIN.agc


