
Source Code
000001:                                                                                                 #  Copyright:     Public domain.
000002:                                                                                                 #  Filename:      DAP_INTERFACE_SUBROUTINES.agc
000003:                                                                                                 #  Purpose:       A section of Luminary 1C, revision 131.
000004:                                                                                                 #                 It is part of the source code for the Lunar Module's (LM)
000005:                                                                                                 #                 Apollo Guidance Computer (AGC) for Apollo 13 and Apollo 14.
000006:                                                                                                 #                 This file is intended to be a faithful transcription, except
000007:                                                                                                 #                 that the code format has been changed to conform to the
000008:                                                                                                 #                 requirements of the yaYUL assembler rather than the
000009:                                                                                                 #                 original YUL assembler.
000010:                                                                                                 #  Reference:     pp. 1403-1406 of 1729.pdf.
000011:                                                                                                 #  Contact:       Ron Burkey <info@sandroid.org>.
000012:                                                                                                 #  Website:       www.ibiblio.org/apollo/index.html
000013:                                                                                                 #  Mod history:   06/07/03 RSB.   Began transcribing.
000014:                                                                                                 #                 05/14/05 RSB    Corrected website reference above.
000015:
000016:                                                                                                 #  Page 1403
000017: 20,2115                                          BANK     20
000018: 20,2000                                          SETLOC   DAPS3
000019: 20,2000                                          BANK
000020:
000021: 20,2115  E6,1634                                 EBANK=   CDUXD
000022: 20,2115                                          COUNT*   $$/DAPIF
000023:
000024:                                                                                                 #  MOD 0          DATE    11/16/66        BY GEORGE W. CHERRY
000025:                                                                                                 #  MOD 1                  01/23/67        MODIFICATION BY PETER ADLER
000026:
000027:                                                                                                 #  FUNCTIONAL DESCRIPTION
000028:                                                                                                 #         HERIN IS A COLLECTION OF SUBROUTINES WHICH ALLOW MISSION CONTROL PROGRAMS TO CONTROL THE MODE
000029:                                                                                                 #         AND INTERFACE WITH THE DAP.
000030:
000031:                                                                                                 #  CALLING SEQUENCES
000032:                                                                                                 #         IN INTERRUPT OR WITH INTERRUPT INHIBITED
000033:                                                                                                 #                 TC      IBNKCALL
000034:                                                                                                 #                 FCADR   ROUTINE
000035:                                                                                                 #         IN A JOB WITHOUT INTERRUPT INHIBITED
000036:                                                                                                 #                 INHINT
000037:                                                                                                 #                 TC      IBNKCALL
000038:                                                                                                 #                 FCADR   ROUTINE
000039:                                                                                                 #                 RELINT
000040:
000041:                                                                                                 #  OUTPUT
000042:                                                                                                 #         SEE INDIVIDUAL ROUTINES BELOW
000043:
000044:                                                                                                 #  DEBRIS
000045:                                                                                                 #         A, L, AND SOMETIMES MDUETEMP
000046:
000047:                                                                                                 #  Page 1404
000048:                                                                                                 #  SUBROUTINE NAMES:
000049:                                                                                                 #         SETMAXDB, SETMINDB, RESTORDB, PFLITEDB
000050:                                                                                                 #  MODIFIED:      30 JANUARY 1968 BY P. S. WEISSMAN TO CREATE RESTORDB.
000051:                                                                                                 #  MODIFIED:      1 MARCH 1968 BY P. S. WEISSMAN TO SAVE EBANK AND CREATE PFLITEDB
000052:
000053:                                                                                                 #  FUNCTIONAL DESCRIPTION:
000054:                                                                                                 #         SETMAXDB -- SET DEADBAND TO 5.0 DEGREES
000055:                                                                                                 #         SETMINDB -- SET DEADBAND TO 0.3 DEGREE
000056:                                                                                                 #         RESTORDB -- SET DEADBAND TO .3, 1, OR 5 ACCORDING TO BITS 4 AND 5 OF DAPBOOLS
000057:                                                                                                 #         PFLITEDB -- SET DEADBAND TO 1.0 DEGREE AND ZERO THE COMMANDED ATTITUDE CHANGE AND COMMANDED RATE
000058:
000059:                                                                                                 #         ALL ENTRIES SET UP A NOVAC JOB TO DO 1/ACCS SO TAT THE TJETLAW SWITCH CURVES ARE POSITIONED TO
000060:                                                                                                 #         REFLECT TEH NEW DEADBAND.  IT SHOULD BE NOTED THAT THE DEADBAND REFERS TO THE ATTITUDE IN THE P-, U-, AND V-AXES.
000061:
000062:                                                                                                 #  SUBROUTINE CALLED:     NOVAC
000063:
000064:                                                                                                 #  CALLING SEQUENCE:      SAME AS ABOVE
000065:                                                                                                 #                         OR      TC RESTORDB +1    FROM ALLCOAST
000066:
000067:                                                                                                 #  DEBRIS:                A, L, Q, RUPTREG1, (ITEMPS IN NOVAC)
000068:
000069: 20,2115           30111        RESTORDB          CAE      DAPBOOLS                              #  DETERMINE CREW-SELECTED DEADBAND.
000070: 20,2116           74747                          MASK     DBSLECT2                              #  CHECK FOR MAX DB (5 DEG)
000071: 20,2117           00006                          EXTEND
000072: 20,2120           12122                          BZF      +2
000073: 20,2121           12130                          TCF      SETMAXDB                              #  BIT5 DAPBOOLS IS SET -- CREW WANTS 5 DEG
000074: 20,2122           30111                          CAE      DAPBOOLS
000075: 20,2123           74750                          MASK     DBSELECT                              #  CHECK FOR 1 DEG DEADBAND SELECTON
000076: 20,2124           00006                          EXTEND
000077: 20,2125           12141                          BZF      SETMINDB
000078:
000079: 20,2126           32153                          CAF      POWERDB                               #  BIT4 DAPBOOLS IS SET -- CREW WANTS 1 DEG
000080: 20,2127           12131                          TCF      SETMAXDB   +1
000081: 20,2130           32152        SETMAXDB          CAF      WIDEDB                                #  SET 5 DEGREE DEADBAND.
000082: 20,2131           55343                 +1       TS       DB
000083:
000084: 20,2132           00006                          EXTEND                                         #  SET UP JOB TO RE-POSITION SWITCH CURVES.
000085: 20,2133           22070                          QXCH     RUPTREG1
000086: 20,2134           37720        CALLACCS          CAF      PRIO27
000087: 20,2135           05072                          TC       NOVAC
000088: 20,2136  E6,1536                                 EBANK=   AOSQ
000089: 20,2136           03652 42106                    2CADR    1/ACCJOB
000090:
000091: 20,2140           00070                          TC       RUPTREG1                              #  RETURN TO CALLER.
000092:
000093: 20,2141           32151        SETMINDB          CAF      NARROWDB                              #  SET 0.3 DEGREE DEADBAND.
000094: 20,2142           12131                          TCF      SETMAXDB   +1
000095:
000096:                                                                                                 #  Page 1405
000097: 20,2143           00006        PFLITEDB          EXTEND                                         #  THE RETURN FROM CALLACCS IS TO RUPTREG1.
000098: 20,2144           22070                          QXCH     RUPTREG1
000099: 20,2145           02154                          TC       ZATTEROR                              #  ZERO THE ERRORS AND COMMANDED RATES.
000100: 20,2146           32153                          CAF      POWERDB                               #  SET DB TO 1.0 DEG.
000101: 20,2147           55343                          TS       DB
000102: 20,2150           12134                          TCF      CALLACCS                              #  SET UP 1/ACCS AND RETURN TO CALLER.
000103: 20,2151           00155        NARROWDB          OCTAL    00155                                 #  0.3 DEGREE SCALED AT 45.
000104: 20,2152           03434        WIDEDB            OCTAL    03434                                 #  5.0 DEGREES SCALED AT 45.
000105: 20,2153           00554        POWERDB           DEC      .02222                                #  1.0 DEGREE SCALED AT 45.
000106:
000107: 20,2154           35015        ZATTEROR          CAF      EBANK6
000108: 20,2155           56003                          XCH      EBANK
000109: 20,2156           54001                          TS       L                                     #  SAVE CALLER'S EBANK IN L.
000110: 20,2157           30032                          CAE      CDUX
000111: 20,2160           55634                          TS       CDUXD
000112: 20,2161           30033                          CAE      CDUY
000113: 20,2162           55635                          TS       CDUYD
000114: 20,2163           30034                          CAE      CDUZ
000115: 20,2164           55636                          TS       CDUZD
000116: 20,2165           12171                          TCF      STOPRATE   +3
000117:
000118: 20,2166           35015        STOPRATE          CAF      EBANK6
000119: 20,2167           56003                          XCH      EBANK
000120: 20,2170           54001                          TS       L                                     #  SAVE CALLER'S EBANK IN L.
000121: 20,2171           34755                 +3       CAF      ZERO
000122: 20,2172           55642                          TS       OMEGAPD
000123: 20,2173           55643                          TS       OMEGAQD
000124: 20,2174           55644                          TS       OMEGARD
000125: 20,2175           55637                          TS       DELCDUX
000126: 20,2176           55640                          TS       DELCDUY
000127: 20,2177           55641                          TS       DELCDUZ
000128: 20,2200           55274                          TS       DELPEROR
000129: 20,2201           55275                          TS       DELQEROR
000130: 20,2202           55276                          TS       DELREROR
000131: 20,2203           22003                          LXCH     EBANK                                 #  RESTORE CALLER'S EBANK.
000132: 20,2204           00002                          TC       Q
000133:
000134:                                                                                                 #  SUBROUTINE NAME:       ALLCOAST
000135:                                                                                                 #  WILL BE CALLED BY FRESH STARTS AND ENGINE OFF ROUTINES.
000136:
000137:                                                                                                 #  CALLING SEQUENCE:      (SAME AS ABOVE)
000138:
000139:                                                                                                 #  EXIT:                  RETURN TO Q.
000140:
000141:                                                                                                 #  SUBROUTINES CALLED:    STOPRATE, RESTORDB, NOVAC
000142:
000143:                                                                                                 #  ZERO:                  (FOR ALL AXES) AOS, ALPHA, AOSTERM, OMEGAD, DELCDU, DELEROR
000144:                                                                                                 #  Page 1406
000145:
000146:                                                                                                 #  OUTPUT:                DRIFTBIT/DAPBOOLS, OE, JOB TO DO 1/ACCS
000147:
000148:                                                                                                 #  DEBRIS:                A, L, Q, RUPTREG1, RUPTREG2, (ITEMPS IN NOVAC)
000149:
000150: 20,2205           00006        ALLCOAST          EXTEND                                         #  SAVE Q FOR RETURN
000151: 20,2206           22071                          QXCH     RUPTREG2
000152: 20,2207           02166                          TC       STOPRATE                              #  CLEAR RATE INTERFACE.  RETURN WITH A=0
000153: 20,2210           22003                          LXCH     EBANK                                 #  AND L=EBANK6.  SAVE CALLER'S EBANK.
000154: 20,2211           55536                          TS       AOSQ
000155: 20,2212           55537                          TS       AOSQ       +1
000156: 20,2213           55540                          TS       AOSR
000157: 20,2214           55541                          TS       AOSR       +1
000158: 20,2215           55424                          TS       ALPHAQ                                #  FOR DOWNLIST
000159: 20,2216           55425                          TS       ALPHAR
000160: 20,2217           55544                          TS       AOSQTERM
000161: 20,2220           55545                          TS       AOSRTERM
000162: 20,2221           22003                          LXCH     EBANK                                 #  RESTORE EBANK (EBANK6 NO LONGER NEEDED)
000163:
000164: 20,2222           40111                          CS       DAPBOOLS                              #  SET UP DRIFTBIT
000165: 20,2223           74744                          MASK     DRIFTBIT
000166: 20,2224           26111                          ADS      DAPBOOLS
000167: 20,2225           02116                          TC       RESTORDB   +1                         #  RESTORE DEADBANK TO CREW-SELECTED VALUE.
000168:
000169: 20,2226           00071                          TC       RUPTREG2                              #  RETURN
000170:
000171:
000172:

End of include-file DAP_INTERFACE_SUBROUTINES.agc.  Parent file is MAIN.agc


