
Source Code


000002:                                                                                                  #  Copyright:    Public domain.
000003:                                                                                                  #  Filename:     DAPIDLER_PROGRAM.agc
000004:                                                                                                  #  Purpose:      A section of Luminary 1C, revision 131.
000005:                                                                                                  #                It is part of the source code for the Lunar Module's (LM)
000006:                                                                                                  #                Apollo Guidance Computer (AGC) for Apollo 13 and Apollo 14.
000007:                                                                                                  #                This file is intended to be a faithful transcription, except
000008:                                                                                                  #                that the code format has been changed to conform to the
000009:                                                                                                  #                requirements of the yaYUL assembler rather than the
000010:                                                                                                  #                original YUL assembler.
000011:                                                                                                  #  Reference:    pp. 1407-1417 of 1729.pdf.
000012:                                                                                                  #  Contact:      Ron Burkey <info@sandroid.org>.
000013:                                                                                                  #  Website:      www.ibiblio.org/apollo/index.html
000014:                                                                                                  #  Mod history:  06/07/03 RSB.   Began transcribing.
000015:                                                                                                  #                05/14/05 RSB    Corrected website reference above.
000016:


000018:                                                                                                  #  THE DAPIDLER PROGRAM IS STARTED BY FRESH START AND RESTART.  THE DAPIDLER PROGRAM IS DONE 10 TIMES
000019:                                                                                                  #  PER SECOND UNTIL THE ASTRONAUT DESIRES THE DAP TO WAKE UP, AND THE IMU AND CDUS ARE READY FOR USE BY THE DAP.
000020:                                                                                                  #  THE NECESSARY INITIALIZATION OF THE DAP IS DONE BY THE DAPIDLER PROGRAM.
000021:
000022: 16,2000                                           BANK     16
000023: 16,2000                                           SETLOC   DAPS1
000024: 16,2000                                           BANK
000025:
000026: 16,2000  E6,1536                                  EBANK=   AOSQ
000027:
000028: 16,2000                                           COUNT*   $$/DAPID
000029:
000030: 16,2000           00006        CHEKBITS           EXTEND
000031: 16,2001           00031                           READ     CHAN31                                #  IF BOTH BIT13 AND BIT14 ARE ONE, THEN
000032: 16,2002           40000                           COM                                            #  THE MODE SELECT SWITCH IS IN THE OFF
000033: 16,2003           74355                           MASK     BIT13-14                              #  POSITION, AND SO THE DAP SHOULD BE OFF,
000034: 16,2004           00006                           EXTEND                                         #  WITH NO ATTITUDE ERROR DISPLAY.
000035: 16,2005           12157                           BZF      MOREIDLE
000036:
000037: 16,2006           41300                           CS       IMODES33
000038: 16,2007           74746                           MASK     BIT6
000039: 16,2010           10000                           CCS      A
000040: 16,2011           12206                           TCF      JUMPDSP
000041: 16,2012           41262                           CS       RCSFLAGS                              #  IMU NOT USABLE.  SET UP INITIALIZATION
000042: 16,2013           74751                           MASK     BIT3                                  #  FLAG FOR ATT ERROR DISPLAY ROUTINE.
000043: 16,2014           27262                           ADS      RCSFLAGS
000044: 16,2015           12163                           TCF      SHUTDOWN
000045:
000046: 16,2016           34742        CHEKMORE           CAF      BIT10                                 #  BIT 10 OF 30 IS PGNCS CONTROL OF S/C
000047: 16,2017           00006                           EXTEND
000048: 16,2020           02030                           RAND     CHAN30                                #  BITS IN 30 ARE INVERTED
000049: 16,2021           10000                           CCS      A
000050: 16,2022           12157                           TCF      MOREIDLE
000051:
000052: 16,2023           00002                           RETURN
000053:


000055:                                                                                                  #  DAPIDLER ENTRY.
000056:
000057: 16,2024           22016        DAPIDLER           LXCH     BANKRUPT                              #  INTERRUPT LEAD INS (CONTINUED)
000058: 16,2025           00006                           EXTEND
000059: 16,2026           22012                           QXCH     QRUPT
000060:
000061: 16,2027           31262                           CA       RCSFLAGS
000062: 16,2030           74737                           MASK     BIT13
000063: 16,2031           10000                           CCS      A                                     #  CHECK IF 1/ACCJOB HAS BEEN SET UP SINCE
000064: 16,2032           12041                           TCF      CHECKUP                               #  THE LAST FRESH START OR RESTART.
000065: 16,2033           34737                           CA       BIT13
000066: 16,2034           27262                           ADS      RCSFLAGS                              #  BIT 13 IS 1.
000067: 16,2035           37720                           CAF      PRIO27
000068: 16,2036           05072                           TC       NOVAC                                 #  SET UP JOB TO DO A LITTLE INITIALIZATION
000069: 16,2037  E6,1536                                  EBANK=   AOSQ                                  #        AND EXECUTE 1/ACCS.
000070: 16,2037           03645 42106                     2CADR    1/ACCSET                              #  (WILL BRANCH TO MOREIDLE ON ACCSOKAY)
000071:
000072: 16,2041           02000        CHECKUP            TC       CHEKBITS                              #  CHECK TO SEE IF LM DAP IS TO GO ON AND
000073:                                                                                                  #        DO ERROR DISPLAY.
000074:
000075: 16,2042           30111                           CAE      DAPBOOLS                              #  IF 1/ACCS HAS NOT BEEN COMPLETED, IDLE.
000076: 16,2043           74751                           MASK     ACCSOKAY                              #        NOTE:   ONLY FRESH START AND RESTART
000077: 16,2044           00006                           EXTEND                                         #                KNOCK THIS BIT DOWN.
000078: 16,2045           12157                           BZF      MOREIDLE
000079:
000080: 16,2046           04674        STARTDAP           TC       IBNKCALL                              #  ZERO ATTITUDE ERROR AND DESIRED RATES.
000081: 16,2047           40154                           FCADR    ZATTEROR
000082: 16,2050           34755                           CAF      ZERO                                  #  ************ INITIALIZE: *************
000083: 16,2051           55524                           TS       TJP
000084: 16,2052           55525                           TS       TJU
000085: 16,2053           55526                           TS       TJV
000086: 16,2054           55421                           TS       OMEGAP                                #  RATES IN BODY (PILOT) COORDINATES.
000087: 16,2055           55422                           TS       OMEGAQ
000088: 16,2056           55423                           TS       OMEGAR
000089: 16,2057           55430                           TS       TRAPEDP
000090: 16,2060           55431                           TS       TRAPEDQ
000091: 16,2061           55432                           TS       TRAPEDR
000092: 16,2062           55536                           TS       AOSQ                                  #  OFFSET ACCELERATION ESTIMATES.
000093: 16,2063           55537                           TS       AOSQ       +1
000094: 16,2064           55540                           TS       AOSR
000095: 16,2065           55541                           TS       AOSR       +1
000096: 16,2066           55424                           TS       ALPHAQ                                #  COPIES OF OFFSET ESTIMATES FOR DOWNLIST.
000097: 16,2067           55425                           TS       ALPHAR
000098: 16,2070           55501                           TS       NEGUQ
000099: 16,2071           55503                           TS       NEGUR
000100: 16,2072           55544                           TS       AOSQTERM                              #  QRAXIS RATE DERIVATION TERMS AND KALMAN
000101: 16,2073           55545                           TS       AOSRTERM                              #  FILTER INITIALIZATION TERMS.
000102: 16,2074           55510                           TS       QACCDOT                               #  DESCENT ACCELERATION DERIVATIVE EST.
000103: 16,2075           55512                           TS       RACCDOT


000105: 16,2076           55502                           TS       ALLOWGTS                              #  AOSTASK FLAG FOR QRAXIS RCS CONTROL USE.
000106: 16,2077           55630                           TS       COTROLER                              #  DO TRYGTS ON FIRST PASS (WILL GO TO RCS)
000107: 16,2100           55632                           TS       INGTS                                 #  RECOGNIZE FIRST GTS PASS AS SUCH.
000108: 16,2101           55631                           TS       QGIMTIMR                              #  STOP GIMBAL DRIVES.  (PROBABLY WOULD BE
000109: 16,2102           55633                           TS       RGIMTIMR                              #        GOOD ENOUGH JUST TO INACTIVATE TIMERS)
000110: 16,2103           55460                           TS       OLDPMIN                               #  MINIMUM IMPULSE MODE ERASABLES
000111: 16,2104           55461                           TS       OLDQRMIN
000112: 16,2105           55766                           TS       PJETCTR                               #  INITIALIZE DOCKED JET INHIBITION
000113: 16,2106           55767                           TS       UJETCTR                               #  COUNTERS
000114: 16,2107           55770                           TS       VJETCTR
000115: 16,2110     4747               CALLGMBL           EQUALS   BIT5                                  #  RCSFLAGS INITIALIZATION.
000116: 16,2110           42202                           CS       MANFLAG
000117: 16,2111           71262                           MASK     RCSFLAGS                              #  NEGUQ(R) HAVE BEEN GENERATED.
000118: 16,2112           55262                           TS       RCSFLAGS
000119:
000120:                                                                                                  #  SET UP "OLD" MEASURED CDU ANGLES:
000121:
000122: 16,2113           00006                           EXTEND
000123: 16,2114           30033                           DCA      CDUX                                  #  OLDXFORP AND OLDYFORP
000124: 16,2115           53441                           DXCH     OLDXFORP
000125: 16,2116           30034                           CA       CDUZ
000126: 16,2117           55442                           TS       OLDZFORQ
000127: 16,2120           41262                           CS       RCSFLAGS
000128: 16,2121           74740                           MASK     BIT12
000129: 16,2122           27262                           ADS      RCSFLAGS                              #  BIT 12 SET TO 1.
000130: 16,2123           34751                           CA       FOUR
000131: 16,2124           55534                           TS       SKIPU
000132: 16,2125           55535                           TS       SKIPV
000133: 16,2126           34733                           CA       POSMAX
000134: 16,2127           54031                           TS       TIME6
000135: 16,2130           55466                           TS       T6NEXT
000136: 16,2131           55470                           TS       T6FURTHA
000137: 16,2132           34755                           CA       ZERO
000138: 16,2133           55467                           TS       T6NEXT     +1
000139: 16,2134           55471                           TS       T6FURTHA   +1
000140: 16,2135           55465                           TS       NXT6ADR
000141: 16,2136           55472                           TS       NEXTP
000142: 16,2137           55473                           TS       NEXTU
000143: 16,2140           55474                           TS       NEXTV
000144: 16,2141           44363                           CS       TEN
000145: 16,2142           55756                           TS       DAPZRUPT                              #  JASK NOT IN PROGRESS, INITIALIZE NEG.
000146: 16,2143           34752                           CA       TWO
000147: 16,2144           55433                           TS       NPTRAPS
000148: 16,2145           55434                           TS       NQTRAPS
000149: 16,2146           55435                           TS       NRTRAPS
000150: 16,2147           00006                           EXTEND
000151: 16,2150           32205                           DCA      PAXADIDL
000152: 16,2151           53264                           DXCH     T5ADR
000153: 16,2152           37732        SETTIME5           CAF      MS100
000154: 16,2153           54030                           TS       TIME5


000156: 16,2154           15270                           TCF      RESUME
000157: 16,2155  E6,1536                                  EBANK=   AOSQ
000158: 16,2155           02024 34106  IDLERADR           2CADR    DAPIDLER
000159:
000160: 16,2157           04674        MOREIDLE           TC       IBNKCALL                              #  CALCULATE Q,R-AXES ATTITUDE ERRORS.
000161: 16,2160           36655                           CADR     QERRCALC
000162:
000163: 16,2161           04674                           TC       IBNKCALL
000164: 16,2162           35452                           CADR     CALCPERR                              #  CALCULATE P AXIS ATTITUDE ERRORS.
000165:
000166: 16,2163           00006        SHUTDOWN           EXTEND
000167: 16,2164           32156                           DCA      IDLERADR
000168: 16,2165           53264                           DXCH     T5ADR
000169:
000170: 16,2166           34755                           CAF      ZERO                                  #  KILL ANY POSSIBLE JET REQUESTS
000171: 16,2167           55472                           TS       NEXTP
000172: 16,2170           55473                           TS       NEXTU
000173: 16,2171           55474                           TS       NEXTV
000174: 16,2172           00006                           EXTEND                                         #  COMMAND JETS OFF.
000175: 16,2173           01005                           WRITE    CHAN5
000176: 16,2174           00006                           EXTEND
000177: 16,2175           01006                           WRITE    CHAN6
000178: 16,2176           42203                           CS       BGIM23                                #  TURN TRIM GIMBAL OFF
000179: 16,2177           00006                           EXTEND
000180: 16,2200           03012                           WAND     CHAN12
000181: 16,2201           12152                           TCF      SETTIME5                              #  RETURN IN 100 MSEC.
000182:
000183: 16,2202           03021        MANFLAG            OCT      03021
000184: 16,2203           07400        BGIM23             OCTAL    07400
000185: 16,2204  E6,1421                                  EBANK=   OMEGAP
000186: 16,2204           02213 34106  PAXADIDL           2CADR    PAXIS
000187:
000188: 16,2206     7732               MS100              =        OCT37766
000189: 16,2206     0061               COSMG              =        ITEMP1
000190: 16,2206           00006        JUMPDSP            EXTEND                                         #  TRANSFER TO BANK 20
000191: 16,2207           32212                           DCA      DSPCADR                               #  FOR ATTITUDE ERROR DISPLAYS
000192: 16,2210           52006                           DTCB
000193:
000194: 16,2211  E6,1760                                  EBANK=   AK
000195: 16,2211           02227 40106  DSPCADR            2CADR    ALTDSPLY
000196:


000198: 20,2227                                           BANK     20
000199: 20,2000                                           SETLOC   DAPS3
000200: 20,2000                                           BANK
000201: 20,2227                                           COUNT*   $$/NEEDL
000202:
000203:                                                                                                  #  PROGRAM:      ALTDSPLY
000204:                                                                                                  #  MOD 0.        6 DEC 1967
000205:                                                                                                  #  AUTHOR:       CRAIG WORK, DON KEENE, MIT IL
000206:                                                                                                  #  MOD 3 BY DON KEENE AUG 1, 1968 -- MOVED PROGRAM TO BANK 20
000207:
000208:                                                                                                  #  PROGRAM DESCRIPTION:
000209:                                                                                                  #        ALTDSPLY REVERSES THE DSPLYALT BIT OF RCSFLAGS EACH TIME IT IS CALLED, WHICH IS PRESUMABLY EVERY 100 MS.
000210:                                                                                                  #        IF THE REVERSED BIT IS ONE, NEEDLER IS CALLED TO DISPLAY ATTITUDE ERRORS.  IF THE BIT IS ZERO, THE ATTITUDE ERRORS
000211:                                                                                                  #        ARE CALCULATED AS 1) ESTIMATED RATES (FOLLOWING) IF NEED2FLG = 1, OTHERWISE AS 2) DAP FOLLOWING ERRORS FOR
000212:                                                                                                  #        NEEDLFLG = 0 AND 3) TOTAL ATTITUDE ERRORS FOR NEEDLFLG = 1.
000213:
000214:                                                                                                  #  WARNING:      ALTDSPLY MAY ONLY BE CALLED WITH INTERRUPT INHIBITED
000215:
000216:                                                                                                  #  WARNING:      EBANK MUST BE SET TO 6 WHEN USING THIS ROUTINE.
000217:
000218:                                                                                                  #  INPUT:        RCSFLAGS AND    1) IF NEEDLFLG = 0, INPUT PERROR, QERROR, RERROR.
000219:                                                                                                  #                                2) IF NEEDLFLG = 1, INPUT CPHI,CTHETA,CPSI,CDUX,CDUY,CDUZ,M11,M21,M32,M22,M32.  (GPMATRIX)
000220:                                                                                                  #                                3) IF NEED2FLG = 1, INPUT OMEGAP, OMEGAQ, AND OMEGAR
000221:
000222:                                                                                                  #  OUTPUTS:      RCSFLAGS WITH DSPLYALT REVERSED, AK, AK1, AK2, + NEEDLER OUTPUTS.
000223:
000224:                                                                                                  #  ENTRY:        TCF     ALTDSPLY
000225:
000226:                                                                                                  #  EXIT:         TCF     CHEKMORE
000227:
000228:                                                                                                  #  SUBPROGRAMS CALLED:  NEEDLER, CVERSUB2
000229:
000230:                                                                                                  #  DEBRIS:       A, L, AND NEEDLER DEBRIS.
000231:
000232: 20,2227           31262        ALTDSPLY           CA       RCSFLAGS                              #  INVERT THE DISPLAY ALTERNATION BIT.
000233: 20,2230           54001                           TS       L
000234: 20,2231           34750                           CA       DSPLYALT
000235: 20,2232           00006                           EXTEND
000236: 20,2233           06001                           RXOR     LCHAN
000237: 20,2234           55262                           TS       RCSFLAGS
000238:
000239: 20,2235           74750                           MASK     DSPLYALT
000240: 20,2236           10000                           CCS      A                                     #  IS ALTERNATION FLAG ZERO?


000242: 20,2237           12336                           TCF      NEEDLER
000243:
000244: 20,2240           40074                           CS       FLAGWRD0                              #  CHECK FOR RATE DISPLAY TO ERROR NEEDLES
000245: 20,2241           74735                           MASK     NEED2BIT                              #  VIA EXTENDED VERB 60
000246: 20,2242           00006                           EXTEND
000247: 20,2243           12257                           BZF      DISPRATE
000248:
000249: 20,2244           30074                           CAE      FLAGWRD0                              #  NEEDFLG WILL INDICATE TOTAL OR DAP
000250: 20,2245           74750                           MASK     NEEDLBIT                              #  ATTITUDE ERROR DISPLAY REQUEST.
000251: 20,2246           10000                           CCS      A
000252: 20,2247           12266                           TCF      DSPLYTOT                              #  TOTAL ERROR IS NEEDED IN AK, AK +1, AK +2
000253:
000254: 20,2250           41450                           CS       QERROR                                #  YES.  DISPLAY ATT ERRORS ON THE -BALL.
000255: 20,2251           55761                           TS       AK         +1                         #  ERROR COMPLEMENTS ARE INPUT TO NEEDLER.
000256: 20,2252           41452                           CS       RERROR
000257: 20,2253           55762                           TS       AK         +2
000258: 20,2254           41464                           CS       PERROR
000259: 20,2255           57760                           XCH      AK
000260:
000261: 20,2256           12456                           TCF      RETNMORE                              #  DISPLAY THESE THE NEXT TIME THROUGH
000262:
000263: 20,2257           41422        DISPRATE           CS       OMEGAQ                                #  LOAD ESTIMATED RATES (FOLLOWING)
000264: 20,2260           55761                           TS       AK         +1
000265: 20,2261           41423                           CS       OMEGAR
000266: 20,2262           55762                           TS       AK         +2
000267: 20,2263           41421                           CS       OMEGAP
000268: 20,2264           57760                           XCH      AK
000269: 20,2265           12456                           TCF      RETNMORE
000270:
000271:                                                                                                  #  CALCULATE GIMBAL ANGLE TOTAL ERRORS, RESOLVE INTO PILOT AXES, STORE TOTAL ERRORS FOR NEEDLER.  Q-AXIS FIRST.
000272:
000273: 20,2266           00006        DSPLYTOT           EXTEND
000274: 20,2267           22061                           QXCH     ITEMP1                                #  SAVE Q FOR CHEKBITS RETURN.
000275:
000276: 20,2270           30322                           CA       CTHETA                                #  DESIRED ATTITUDE, Y-AXIS, 2'S COMP.
000277: 20,2271           00006                           EXTEND                                         #  SUBTRACT CURRENT ATTITUDE.
000278: 20,2272           20033                           MSU      CDUY                                  #  DIFFERENCE SCALED AT PI, 1'S COMP.
000279: 20,2273           55760                           TS       AK                                    #  SAVE FOR R-ERROR CALCULATION.
000280: 20,2274           00006                           EXTEND
000281: 20,2275           71415                           MP       M21                                   #  (CTHETA-CDUY)*M21 SCALED AT PI RADIANS.
000282: 20,2276           57761                           XCH      AK         +1                         #  STORE FIRST TERM OF Q ERROR.
000283: 20,2277           30323                           CA       CPSI                                  #  DESIRED ATTITUDE, Z-AXIS, 2'S COMP.
000284: 20,2300           00006                           EXTEND                                         #  SUBTRACT CURRENT ATTITUDE.
000285: 20,2301           20034                           MSU      CDUZ                                  #  DIFFERENCE SCALED AT PI, 1'S COMP.
000286: 20,2302           55762                           TS       AK         +2                         #  SAVE Z-AXIS TERM FOR R ERROR CALCULATION
000287: 20,2303           00006                           EXTEND
000288: 20,2304           71417                           MP       M22                                   #  (CPSI-CDUZ)*M22, SCALED AT PI RADIANS.
000289: 20,2305           61761                           AD       AK         +1                         #  Q ERROR COMPLETE         , AT PI RAD.
000290: 20,2306           02451                           TC       OVERSUB2                              #  PIN NEEDLES IN CASE OF OVERFLOW
000291: 20,2307           55761                           TS       AK         +1
000292:


000294:                                                                                                  #  R ERROR CALCULATION NEXT.
000295:
000296: 20,2310           31760                           CA       AK                                    #  Y-AXIS DIFFERENCE STORED BY Q-AXIS CALC.
000297: 20,2311           00006                           EXTEND
000298: 20,2312           71416                           MP       M31                                   #  (CTHETA-CDUY)*M31, SCALED AT PI RADIANS.
000299: 20,2313           57762                           XCH      AK         +2                         #  FIRST TERM OF R ERROR.
000300:                                                                                                  #  Z-AXIS DIFFERENCE, STORED BY A CALC. IS
000301: 20,2314           00006                           EXTEND                                         #  RECOVERED BY THE EXCHANGE.
000302: 20,2315           71420                           MP       M32                                   #  (CPSI-CDUZ)*M32, SCALED AT PI RADIANS.
000303: 20,2316           61762                           AD       AK         +2                         #  R ERROR COMPLETE         , AT PI RAD.
000304: 20,2317           02451                           TC       OVERSUB2                              #  PIN NEEDLES IN CASE OF OVERFLOW.
000305: 20,2320           55762                           TS       AK         +2
000306:
000307:                                                                                                  #  NOW CALCULATE P ERROR.  (NOTE THAT M13 = 1, SCALED AT 1, SO THE MULTIPLICATION IS BY-PASSED.)
000308:
000309: 20,2321           31760                           CA       AK                                    #  Y-AXIS DIFFERENCE STORED BY Q AXIS CALC.
000310: 20,2322           00006                           EXTEND
000311: 20,2323           71414                           MP       M11                                   #  (CTHETA-CDUY)*M11 SCALED AT PI RADIANS.
000312: 20,2324           57760                           XCH      AK                                    #  FIRST TERM OF P ERROR IN AK, AT PI RAD.
000313: 20,2325           30321                           CAE      CPHI                                  #  DESIRED ATTITUDE, X-AXIS, 2'S COMP.
000314: 20,2326           00006                           EXTEND                                         #  SUBTRACT CURRENT X ATTITUDE
000315: 20,2327           20032                           MSU      CDUX                                  #  X-AXIS DIFFERENCE, 1'S COMP, AT PI RAD.
000316:
000317:                                                                                                  #  M13 = 1, SO BYPASS THE MULTIPLICATION.
000318:                                                                                                  #                EXTEND
000319:                                                                                                  #                MP      M13             # (CPHI-CDUX)*M13 SCALED AT PI RADIANS.
000320:
000321: 20,2330           61760                           AD       AK                                    #  P ERROR COMPLETE      , SCALED AT PI RAD
000322: 20,2331           02451                           TC       OVERSUB2                              #  PIN NEEDLES IN CASE OF OVERFLOW.
000323: 20,2332           55760                           TS       AK
000324:
000325: 20,2333           00006                           EXTEND
000326: 20,2334           22061                           QXCH     ITEMP1                                #  RESTORE Q FOR CHEKBITS RETURN.
000327:
000328: 20,2335           12456                           TCF      RETNMORE                              #  DISPLAY THESE THE NEXT TIME THROUGH
000329:


000331:                                                                                                  #  FDAI ATTITUDE ERROR DISPLAY SUBROUTINE
000332:
000333:                                                                                                  #  PROGRAM DESCRIPTION:          D. KEENE        5/24/67
000334:                                                                                                  #  MOD 1 BY CRAIG WORK, 12 DEC 67
000335:                                                                                                  #  MOD 2 BY CRAIG WORK, 6 APRIL 68, CONVERTS ATTITUDE ERROR DISPLAY SCALING FROM 16 7/8 DEG. TO 42 3/16 DEGREES.
000336:
000337:                                                                                                  #  THIS SUBROUTINE IS USED TO DISPLAY ATTITUDE ERRORS ON THE FDAI VIA THE DIGITAL TO ANALOG CONVERTERS (DACS)
000338:                                                                                                  #  IN THE CDUS.  CARE IS TAKEN TO METER OUT THE APPROPRIATE NUMBER OF PULSES TO THE IMU ERROR COUNTERS AND PREVENT
000339:                                                                                                  #  OVERFLOW, TO CONTROL THE RELAY SEQUENCING, AND TO AVOID INTERFERENCE WITH THE COARSE ALIGN LOOP WHICH ALSO USES
000340:                                                                                                  #  THE DACS.
000341:
000342:                                                                                                  #  CALLING SEQUENCE:
000343:                                                                                                  #        DURING THE INITIALIZATION SECTION OF THE USER'S PROGRAM, BIT3 OF RCSFLAGS SHOULD BE SET TO INITIATE THE
000344:                                                                                                  #        TURN-ON SEQUENCE WITHIN THE NEEDLES PROGRAM:
000345:                                                                                                  #                CS      RCSFLAGS        # IN EBANK6
000346:                                                                                                  #                MASK    BIT3
000347:                                                                                                  #                ADS     RCSFLAGS
000348:                                                                                                  #        THEREAFTER, THE ATTITUDE ERRORS GENERATED BY THE USER SHOULD BE TRANSFERRED TO THE FOLLOWING LOCATIONS IN EBANK6:
000349:                                                                                                  #                AK      SCALED 180 DEGREES      NOTE:   THESE LOCATIONS ARE SUBJECT
000350:                                                                                                  #                AK1     SCALED 180 DEGREES              TO CHANGE
000351:                                                                                                  #                AK2     SCALED 180 DEGREES
000352:                                                                                                  #        FULL SCALED DEFLECTION OF THE NEEDLES CORRESPONDS TO 5 1/16 DEGREES, WHILE 384 BITS IN THE IMU ERROR COUNTER
000353:                                                                                                  #        CORRESPONDS TO 42 3/16 DEGREES.  (DAC MAXIMUM CAPACITY IS 384 BITS.)  46 BITS EFFECTIVELY PIN THE NEEDLES.
000354:                                                                                                  #        FOR A RATE DISPLAY, FULL SCALE NEEDLE DEFLECTION IS 1 17/64 DEG/SEC, AND A FULL COUNTER IS ABOUT 10.5 DEG/SEC.
000355:                                                                                                  #        A CALL TO NEEDLER WILL THE UPDATE THE DISPLAY:
000356:                                                                                                  #                INHINT
000357:                                                                                                  #                TC      IBNKCALL        # NOTE:  EBANK SHOULD BE SET TO E6
000358:                                                                                                  #                CADR    NEEDLER
000359:                                                                                                  #                RELINT
000360:                                                                                                  #        THIS PROCESS SHOULD BE REPEATED EACH TIME THE ERRORS ARE UPDATED.  AT LEAST 3 PASSES THRU THE PROGRAM ARE
000361:                                                                                                  #        REQUIRED BEFORE ANYTHING IS ACTUALLY DISPLAYED ON THE ERROR METERS.
000362:                                                                                                  #        NOTE:  EACH CALL TO NEEDLER MUST BE SEPARATED BY AT LEAST 50 MS. TO ASSURE PROPER RELAY SEQUENCING.
000363:
000364:                                                                                                  #  ERASABLES USED:
000365:                                                                                                  #        AK              CDUXCMD
000366:                                                                                                  #        AK1             CDUYCMD
000367:                                                                                                  #        AK2             CDUZCMD
000368:                                                                                                  #        EDRIVEX         A,L,Q
000369:                                                                                                  #        EDRIVEY         T5TEMP


000371:                                                                                                  #        EDRIVEZ         DINDX
000372:
000373:                                                                                                  #  SWITCHES:             RCSFLAGS  BITS 3,2
000374:
000375:                                                                                                  #  I/O CHANNELS:         CHAN12  BIT 4 (COARSE ALIGN -- READ ONLY)
000376:                                                                                                  #                        CHAN12  BIT 6 (IMU ERROR COUNTER ENABLE)
000377:                                                                                                  #                        CHAN14  BIT 13,14,15 (DAC ACTIVITY)
000378:
000379:                                                                                                  #  SIGN CONVENTION:      AK = THETAC - THETA
000380:                                                                                                  #                        WHERE   THETAC = COMMAND ANGLE
000381:                                                                                                  #                                THETA = PRESENT ANGLE
000382:
000383: 20,2336           31262        NEEDLER            CA       RCSFLAGS
000384: 20,2337           76245                           MASK     SIX
000385: 20,2340           00006                           EXTEND
000386: 20,2341           12376                           BZF      NEEDLES3
000387: 20,2342           74751                           MASK     BIT3
000388: 20,2343           00006                           EXTEND
000389: 20,2344           12367                           BZF      NEEDLER2                              #  BIT3 = 0, BIT2 = 1
000390:
000391: 20,2345           44746                           CS       BIT6                                  #  FIRST PASS BIT3 = 1
000392: 20,2346           00006                           EXTEND                                         #  DISABLE IMU ERROR COUNTER TO ZERO DACS
000393: 20,2347           03012                           WAND     CHAN12                                #  MUST WAIT AT LEAST 60 MS BEFORE
000394: 20,2350           44755        NEEDLE11           CS       ZERO                                  #  ENABLING COUNTERS.
000395: 20,2351           55760                           TS       AK                                    #  ZERO THE INPUTS ON FIRST PASS
000396: 20,2352           55761                           TS       AK1
000397: 20,2353           55762                           TS       AK2
000398: 20,2354           55763                           TS       EDRIVEX                               #  ZERO THE DISPLAY REGISTERS
000399: 20,2355           55764                           TS       EDRIVEY
000400: 20,2356           55765                           TS       EDRIVEZ
000401: 20,2357           54050                           TS       CDUXCMD                               #  ZERO THE OUT COUNTERS
000402: 20,2360           54051                           TS       CDUYCMD
000403: 20,2361           54052                           TS       CDUZCMD
000404: 20,2362           46245                           CS       SIX                                   #  RESET RCSFLAGS FOR PASS2
000405: 20,2363           71262                           MASK     RCSFLAGS
000406: 20,2364           64752                           AD       BIT2
000407: 20,2365           55262                           TS       RCSFLAGS
000408: 20,2366           12456                           TCF      RETNMORE
000409:
000410: 20,2367           34746        NEEDLER2           CAF      BIT6                                  #  ENABLE IMU ERROR COUNTERS
000411: 20,2370           00006                           EXTEND
000412: 20,2371           05012                           WOR      CHAN12
000413: 20,2372           46245                           CS       SIX                                   #  RESET RCSFLAGS TO DISPLAY ATTITUDE
000414: 20,2373           71262                           MASK     RCSFLAGS                              #  ERRORS.  WAIT AT LEAST 4 MS FOR
000415: 20,2374           55262                           TS       RCSFLAGS                              #  RELAY CLOSURE.
000416: 20,2375           12456                           TCF      RETNMORE
000417:
000418: 20,2376           34746        NEEDLES3           CAF      BIT6                                  #  CHECK TO SEE IF IMU ERROR COUNTER


000420: 20,2377           00006                           EXTEND                                         #  IS ENABLED
000421: 20,2400           02012                           RAND     CHAN12
000422: 20,2401           10000                           CCS      A                                     #  IF NOT, RE-INITIALIZE NEEDLER.
000423: 20,2402           12407                           TCF      NEEDLES
000424:
000425: 20,2403           41262                           CS       RCSFLAGS                              #  SET UP INITIALIZATION FLAG IN RCSFLAGS.
000426: 20,2404           74751                           MASK     BIT3
000427: 20,2405           27262                           ADS      RCSFLAGS
000428: 20,2406           12456                           TCF      RETNMORE
000429:
000430: 20,2407           34752        NEEDLES            CAF      TWO
000431: 20,2410           54063        DACLOOP            TS       DINDX
000432: 20,2411           42450                           CS       ONETENTH                              #  SET UP INITIALIZATION FLAG IN RCSFLAGS.
000433: 20,2412           00006                           EXTEND
000434: 20,2413           50063                           INDEX    DINDX
000435: 20,2414           71760                           MP       AK
000436: 20,2415           54001                           TS       L
000437: 20,2416           10000                           CCS      A
000438: 20,2417           32446                           CA       DACLIMIT
000439: 20,2420           12422                           TCF      +2
000440: 20,2421           42446                           CS       DACLIMIT
000441: 20,2422           60001                           AD       L
000442: 20,2423           54061                           TS       T5TEMP                                #  OVFLO CHK
000443: 20,2424           12430                           TCF      +4
000444: 20,2425           50000                           INDEX    A                                     #  ON OVERFLOW LIMIT OUTPUT TO +-384
000445: 20,2426           32446                           CAF      DACLIMIT
000446: 20,2427           54001                           TS       L
000447: 20,2430           50063                           INDEX    DINDX
000448: 20,2431           41763                           CS       EDRIVEX                               #  CURRENT VALUE OF DAC
000449: 20,2432           60001                           AD       L
000450: 20,2433           50063                           INDEX    DINDX
000451: 20,2434           26050                           ADS      CDUXCMD
000452: 20,2435           50063                           INDEX    DINDX
000453: 20,2436           23763                           LXCH     EDRIVEX
000454: 20,2437           10063                           CCS      DINDX
000455: 20,2440           12410                           TCF      DACLOOP
000456: 20,2441           37743                           CAF      13,14,15
000457: 20,2442           00006                           EXTEND
000458: 20,2443           05014                           WOR      CHAN14                                #  SET DAC ACTIVITY BITS
000459: 20,2444           12456                           TCF      RETNMORE
000460:
000461: 20,2445           77177                           DEC      -384       B-14
000462: 20,2446           37200        DACLIMIT           DEC      16000      B-14
000463: 20,2447           00600                           DEC      384        B-14
000464:
000465: 20,2450           03146        ONETENTH           OCT      03146                                 #  DECIMAL +0.1, SCALED AT 1.
000466: 20,2451     4750               DSPLYALT           EQUALS   BIT4                                  #  100 MS ALTERNATION BIT IN RCSFLAGS
000467:
000468: 20,2451           54007        OVERSUB2           TS       7                                     #  RETURNS A UNCHANGED OR LIMITED TO


000470: 20,2452           00002                           TC       Q                                     #  POSMAX OR NEGMAX IF A HAS OVERFLOW
000471: 20,2453           50000                           INDEX    A
000472: 20,2454           44734                           CS       LIMITS                                #  DUPLICATE CODING IN BANK A
000473: 20,2455           00002                           TC       Q
000474:
000475: 20,2456           00006        RETNMORE           EXTEND                                         #  RETURN TO CHEKMORE
000476: 20,2457           32462                           DCA      MORECADR
000477: 20,2460           52006                           DTCB
000478:
000479: 20,2461  E6,1536                                  EBANK=   AOSQ
000480: 20,2461           02016 34106  MORECADR           2CADR    CHEKMORE
000481:
000482:
000483:
000484:

End of include-file DAPIDLER_PROGRAM.agc.  Parent file is MAIN.agc


