
Source Code


000002:                                                                                                  ## Copyright:   Public domain.
000003:                                                                                                  ## Filename:    DISPLAY_INTERFACE_ROUTINES.agc
000004:                                                                                                  ## Purpose:     A section of Luminary 1C, revision 131.
000005:                                                                                                  ##              It is part of the source code for the Lunar Module's (LM)
000006:                                                                                                  ##              Apollo Guidance Computer (AGC) for Apollo 13.
000007:                                                                                                  ##              This file is intended to be a faithful transcription, except
000008:                                                                                                  ##              that the code format has been changed to conform to the
000009:                                                                                                  ##              requirements of the yaYUL assembler rather than the
000010:                                                                                                  ##              original YUL assembler.
000011:                                                                                                  ## Reference:   pp. 1333-1365
000012:                                                                                                  ## Contact:     Ron Burkey <info@sandroid.org>.
000013:                                                                                                  ## Website:     www.ibiblio.org/apollo/index.html
000014:                                                                                                  ## Mod history: 06/06/03 RSB.   Began transcribing.
000015:                                                                                                  ##              05/14/05 RSB.   Corrected website reference above.
000016:                                                                                                  ##              2010-10-25 JL   Indentation fixes.
000017:                                                                                                  ##              2011-05-07 JL   Removed workaround.
000018:                                                                                                  ##              2017-01-06 RSB  Page numbers now agree with those on the
000019:                                                                                                  ##                              original hardcopy, as opposed to the PDF page
000020:                                                                                                  ##                              numbers in 1701.pdf.
000021:                                                                                                  ##              2017-02-27 RSB  Proofed comment text using octopus/ProoferComments.
000022:                                                                                                  ##              2017-03-01 RSB  Fixed lingering comment-text typos.
000023:                                                                                                  ##              2017-03-13 RSB  Comment-text fixes noted in proofing Luminary 116.
000024:                                                                                                  ##              2017-03-15 RSB  Comment-text fixes identified in 5-way
000025:                                                                                                  ##                              side-by-side diff of Luminary 69/99/116/131/210.
000026:


000028:                                                                                                  #  DISPLAYS CAN BE CLASSIFIED INTO THE FOLLOWING CATEGORIES -
000029:                                                                                                  #        1.  PRIORITY DISPLAYS - DISPLAYS WHICH TAKE PRIORITY OVER ALL OTHER DISPLAYS.  USUALLY THESE DISPLAYS ARE SENT
000030:                                                                                                  #            OUT UNDER CRITICAL ALARM CONDITIONS.
000031:                                                                                                  #        2.  EXTENDED VERB DISPLAYS - ALL EXTENDED VERBS AND MARK ROUTINES SHOULD USE EXTENDED VERB (MARK) DISPLAYS.
000032:                                                                                                  #        3.  NORMAL DISPLAYS - ALL MISSION PROGRAM DISPLAYS WHICH INTERFACE WITH THE ASTRONAUT DURING THE NORMAL
000033:                                                                                                  #            SEQUENCE OF EVENTS.
000034:                                                                                                  #        4.  MISC. DISPLAYS - ALL DISPLAYS NOT HANDLED BY THE DISPLAY INTERFACE ROUTINES.  THESE INCLUDE SUCH DISPLAYS AS
000035:                                                                                                  #            MM DISPLAYS AND SPECIAL PURPOSE DISPLAYS HANDLED BY PINBALL.
000036:                                                                                                  #        5.  ASTRONAUT INITIATED DISPLAYS - ALL DISPLAYS INITIATED EXTERNALLY.
000037:
000038:                                                                                                  #  THE FOLLOWING TERMS ARE USED TO DESCRIBE THE STATUS OF DISPLAYS -
000039:                                                                                                  #        1.  ACTIVE - THE DISPLAY WHICH IS (1) BEING DISPLAYED TO THE ASTRONAUT AND WAITING FOR A RESPONSE OR
000040:                                                                                                  #            (2) WAITING FIRST IN LINE FOR THE ASTRONAUT TO FINISH USING THE DSKY OR (3) BEING DISPLAYED ON THE DSKY
000041:                                                                                                  #            BUT NOT WAITING FOR A RESPONSE.
000042:                                                                                                  #        2.  INACTIVE - A DISPLAY WHICH HAS (1) BEEN ACTIVE BUT WAS INTERRUPTED BY A DISPLAY OF HIGHER PRIORITY,
000043:                                                                                                  #            (2) BEEN PUT INTO THE WAITING LIST AT TIME IT WAS REQUESTED DUE TO THE FACT A HIGHER PRIORITY DISPLAY
000044:                                                                                                  #            WAS ALREADY GOING, (3) BEEN INTERRUPTED BY THE ASTRONAUT (CALLED A PINBRANCH CONDITION, SINCE THIS TYPE
000045:                                                                                                  #            OF INACTIVE DISPLAY IS USUALLY REACTIVATED ONLY BY PINBALL) OR (4) A DISPLAY WHICH HAS FINISHED BUT STILL
000046:                                                                                                  #            HAS INFO SAVED FOR RESTART PURPOSES.
000047:
000048:                                                                                                  #  DISPLAY PRIORITIES WORK AS FOLLOWS -
000049:                                                                                                  #        INTERRUPTS -
000050:                                                                                                  #                1.  THE ASTRONAUT CAN INTERRUPT ANY DISPLAY WITH AN EXTERNAL DISPLAY REQUEST.
000051:                                                                                                  #                2.  INTERNAL DISPLAYS CAN NOT BE SENT OUT WHEN THE ASTRONAUT IS USING THE DSKY.
000052:                                                                                                  #                3.  PRIORITY DISPLAYS INTERRUPT ALL OTHER TYPES OF INTERNAL DISPLAYS.  A PRIORITY DISPLAY INTERRUPTING ANOTHER
000053:                                                                                                  #                    PRIORITY DISPLAY WILL CAUSE AN ABORT UNLESS BIT14 IS SET FOR THE LINUS ROUTINE.
000054:                                                                                                  #                4.  A MARK DISPLAY INTERRUPTS ANY NORMAL DISPLAY.
000055:                                                                                                  #                5.  A MARK THAT INTERRUPTS A MARK COMPLETELY REPLACES IT.
000056:
000057:                                                                                                  #        ORDER OF WAITING DISPLAYS -
000058:                                                                                                  #                1.  ASTRONAUT EXTERNAL USE
000059:                                                                                                  #                2.  PRIORITY
000060:                                                                                                  #                3.  INTERRUPTED MARK
000061:                                                                                                  #                4.  INTERRUPTED NORMAL
000062:                                                                                                  #                5.  MARK TO BE REQUESTED (SEE DESCRIPTION OF ENDMARK)
000063:                                                                                                  #                6.  MARK WAITING
000064:                                                                                                  #                7.  NORMAL WAITING
000065:


000067:                                                                                                  #  THE DISPLAY ROUTINES ARE INTENDED TO SERVE AS AN INTERFACE BETWEEN THE USER AND PINBALL.  THE
000068:                                                                                                  #  FOLLOWING STATEMENTS CAN BE MADE ABOUT NORMAL DISPLAYS AND PRIORITY DISPLAYS (A DESCRIPTION OF MARK ROUTINES
000069:                                                                                                  #  WILL FOLLOW LATER):
000070:                                                                                                  #        1.  ALL ROUTINES THAT END IN R HAVE AN IMMEDIATE RETURN TO THE USER.  FOR ALL FLASHING DISPLAYS THIS RETURN
000071:                                                                                                  #            IS TO THE USERS CALL CADR +4.  FOR THE ONLY NON FLASHING IMMEDIATE RETURN DISPLAY (GODSPR) THIS RETURN
000072:                                                                                                  #            IS TO THE USERS CALLING LOC +1.
000073:                                                                                                  #        2.  ALL ROUTINES NOT ENDING IN R DO NOT DO AN IMMEDIATE RETURN TO THE USER.
000074:                                                                                                  #        3.  ALL ROUTINES THAT END IN R START A SEPARATE JOB (MAKEPLAY) WITH USERS JOB PRIORITY.
000075:                                                                                                  #        4.  ALL ROUTINES NOT ENDING IN R BRANCH DIRECTLY TO MAKEPLAY WHICH MAKES THESE DISPLAYS A PART OF THE
000076:                                                                                                  #            USERS JOB.
000077:                                                                                                  #        5.  ALL DISPLAY ROUTINES ARE CALLED VIA BANKCALL.
000078:                                                                                                  #        6.  TO RESTART A DISPLAY THE USER WILL GENERALLY USE A PHASE OF ONE WITH DESIRED RESTART GROUP (SEE
000079:                                                                                                  #            DESCRIPTION OF RESTARTS).
000080:                                                                                                  #        7.  ALL FLASHING DISPLAYS HAVE 3 RETURNS TO THE USER FROM ASTRONAUT RESPONSES.  A TERMINATE (V34) BRANCHES
000081:                                                                                                  #            TO THE USERS CALL CADR +1.  A PROCEED (V33) BRANCHES TO THE USERS CALL CADR +2.  AN ENTER OR RECYCLE
000082:                                                                                                  #            (V32) BRANCHES TO THE USERS CALL CADR +3.
000083:                                                                                                  #        8.  ALL ROUTINES MUST BE USED UNDER EXECUTIVE CONTROL.
000084:
000085:                                                                                                  #  A DESCRIPTION OF EACH ROUTINE WITH AN EXAMPLE FOLLOWS:
000086:                                                                                                  #        GODSP IS USED TO DISPLAY A VERB NOUN ARRIVING IN A.  NO RETURN IS MADE TO THE USER.
000087:                                                                                                  #                1.  GODSP IS NOT RESTARTABLE
000088:                                                                                                  #                2.  A VERB PASTE WITH GODSP ALWAYS TURNS ON THE FLASH.
000089:                                                                                                  #                                CAF     VXXNYY
000090:                                                                                                  #                                TC      BANKCALL
000091:                                                                                                  #                                CADR    GODSP
000092:                                                                                                  #                        VXXNYY  OCT     0XXYY
000093:                                                                                                  #        GODSPR IS THE SAME AS GODSP ONLY RETURN IS TO THE USER.
000094:                                                                                                  #                                CAF     VXXNYY
000095:                                                                                                  #                                TC      BANKCALL
000096:                                                                                                  #                                CADR    GODSPR
000097:                                                                                                  #                                ...     ...             IMMEDIATE RETURN OF GODSPR
000098:                                                                                                  #        GOFLASH DISPLAYS A FLASHING VERB NOUN WITH NO IMMEDIATE RETURN TO THE USER.  3 RETURNS ARE POSSIBLE FROM
000099:                                                                                                  #        THE ASTRONAUT (SEE NO. 7 ABOVE).
000100:                                                                                                  #                                CAF     VXXNYY          VXX NYY WILL BE A FLASHING VERB NOUN.
000101:                                                                                                  #                                TC      BANKCALL
000102:                                                                                                  #                                CADR    GOFLASH
000103:                                                                                                  #                                ...     ...             TERMINATE RETURN
000104:                                                                                                  #                                ...     ...             PROCEED RETURN
000105:                                                                                                  #                                ...     ...             ENTER OR RECYCLE RETURN
000106:                                                                                                  #        GOPERF1 IS ENTERED WITH DESIRED CHECKLIST VALUE IN A.  GOPERF1 WILL DISPLAY THIS VALUE IN R1 BY MEANS OF A


000108:                                                                                                  #        V01 N25.  A FLASHING PLEASE PERFORM ON CHECKLIST (V50 N25) IS THEN DISPLAYED.  NO IMMEDIATE RETURN IS MADE TO
000109:                                                                                                  #        USER (SEE NO. 7 ABOVE).
000110:                                                                                                  #        GOPERF1 BLANKS REGISTERS R2 AND R3
000111:                                                                                                  #                                CAF     OCTXX           CODE FOR CHECKLIST VALUE XX
000112:                                                                                                  #                                TC      BANKCALL
000113:                                                                                                  #                                CADR    GOPERF1
000114:                                                                                                  #                                ...     ...             TERMINATE RETURN
000115:                                                                                                  #                                ...     ...             PROCEED RETURN
000116:                                                                                                  #                                ...     ...             ENTER RETURN
000117:                                                                                                  #        GOPERF2 IS ENTERED WITH A VARIABLE NOUN AND V01 (V00 FOR N10 OR N11) IN A.  GOPERF2 WILL FIRST DISPLAY THE
000118:                                                                                                  #        REQUESTED NOUN BY MEANS OF A V01NYY OR A V00NYY.  PLEASE PERFORM ON NOUN (V50 NYY) THEN BECOMES A FLASHING
000119:                                                                                                  #        DISPLAY.  NO IMMEDIATE RETURN IS MADE TO THE USER (SEE NO. 7 ABOVE).
000120:                                                                                                  #        GOPERF2 DOES NOT BLANK ANY REGISTERS
000121:                                                                                                  #                                CAF     VXXNYY          VARIABLE NOUN YY. XX=00 OR 01.
000122:                                                                                                  #                                TC      BANKCALL
000123:                                                                                                  #                                CADR    GOPERF2
000124:                                                                                                  #                                ...     ...             TERMINATE RETURN
000125:                                                                                                  #                                ...     ...             PROCEED RETURN
000126:                                                                                                  #                                ...     ...             ENTER RETURN
000127:                                                                                                  #        GOPERF3 IS USED FOR A PLEASE PERFORM ON A PROGRAM NUMBER.  THE DESIRED PROGRAM NO. IS ENTERED IN A.  GOPERF3
000128:                                                                                                  #        DISPLAYS THE NO. BY MEANS OF A V06 N07 FOLLOWED BY A FLASHING V50 N07 FOR A PLEASE PERFORM.  NO IMMEDIATE RETURN
000129:                                                                                                  #        IS MADE TO THE USER (SEE NO. 7 ABOVE).
000130:                                                                                                  #        GOPERF3 BLANKS REGISTERS R2 AND R3
000131:                                                                                                  #                                CAF     DECXX           REQUEST PERFORM ON PXX
000132:                                                                                                  #                                TC      BANKCALL
000133:                                                                                                  #                                CADR    GOPERF3
000134:                                                                                                  #                                ...     ...             TERMINATE RETURN
000135:                                                                                                  #                                ...     ...             PROCEED RETURN
000136:                                                                                                  #                                ...     ...             ENTER RETURN
000137:                                                                                                  #        GOPERF4 IS USED FOR A PLEASE PERFORM ON AN OPTION.  THE DESIRED OPTION IS ENTERED IN A AND STORED IN OPTION1.
000138:                                                                                                  #        GOPERF4 DISPLAYS R1 AND R2 BY MEANS OF A V04N06 FOLLOWED BY A FLASHING V50N06 FOR A PLEASE PERFORM.  NO
000139:                                                                                                  #        IMMEDIATE RETURN IS MADE TO THE USER (SEE NO. 7 ABOVE).
000140:
000141:                                                                                                  #                                CAF     OCTXX           REQUEST PERFORM ON OPTION XX
000142:                                                                                                  #                                TC      BANKCALL
000143:                                                                                                  #                                CADR    GOPERF4
000144:                                                                                                  #                                ...     ...             TERMINATE RETURN
000145:                                                                                                  #                                ...     ...             PROCEED RETURN
000146:                                                                                                  #                                ...     ...             ENTER RETURN
000147:
000148:                                                                                                  #        GOPERF4 BLANKS REGISTER R3
000149:


000151:                                                                                                  #        GODSPRET IS USED TO DISPLAY A VERB NOUN ARRIVING IN A WITH A RETURN TO THE USER AFTER THE DISPLAY HAS BEEN SENT
000152:                                                                                                  #        OUT.
000153:                                                                                                  #                                CAF     VXXNYY
000154:                                                                                                  #                                TC      BANKCALL
000155:                                                                                                  #                                CADR    GODSPRET
000156:                                                                                                  #                                ...     ...             RETURN TO USER
000157:                                                                                                  #        REGODSP IS USED TO DISPLAY A VERB NOUN ARRIVING IN A.  REGODSP IS THE SAME AS GODSP ONLY REGODSP REPLACES ANY
000158:                                                                                                  #        ACTIVE NORMAL DISPLAY IF ONE WAS ACTIVE.
000159:                                                                                                  #                                CAF     VXXNYY
000160:                                                                                                  #                                TC      BANKCALL
000161:                                                                                                  #                                CADR    REGODSP
000162:                                                                                                  #        REFLASH IS THE SAME AS GOFLASH ONLY REFLASH REPLACES ANY ACTIVE NORMAL DISPLAY IF ONE WAS ACTIVE.
000163:                                                                                                  #                                CAF     VXXNYY          VXX NYY WILL BE A FLASHING VERB NOUN
000164:                                                                                                  #                                TC      BANKCALL
000165:                                                                                                  #                                CADR    REFLASH
000166:                                                                                                  #                                ...     ...             TERMINATE RETURN
000167:                                                                                                  #                                ...     ...             PROCEED RETURN
000168:                                                                                                  #                                ...     ...             ENTER RETURN
000169:                                                                                                  #        GOFLASHR IS SAME AS GOFLASH ONLY AN IMMEDIATE RETURN IS MADE TO THE USERS CALL CADR +4.
000170:                                                                                                  #                                CAF     VXXNYY
000171:                                                                                                  #                                TC      BANKCALL
000172:                                                                                                  #                                CADR    GOFLASHR
000173:                                                                                                  #                                ...     ...             TERMINATE RETURN
000174:                                                                                                  #                                ...     ...             PROCEED RETURN
000175:                                                                                                  #                                ...     ...             ENTER OR RECYCLE RETURN
000176:                                                                                                  #                                ...     ...             IMMEDIATE RETURN FROM GOFLASHR
000177:                                                                                                  #        GOPERF1R IS THE SAME AS GOPERF1 ONLY GOPERF1R HAS AN IMMEDIATE RETURN TO USERS CALL CADR +4.
000178:                                                                                                  #        GOPERF1R BLANKS REGISTERS R2 AND R3
000179:                                                                                                  #                                CAF     OCTXX           CODE FOR CHECKLIST VALUE XX.
000180:                                                                                                  #                                TC      BANKCALL
000181:                                                                                                  #                                CADR    GOPERF1R
000182:                                                                                                  #                                ...     ...             TERMINATE RETURN
000183:                                                                                                  #                                ...     ...             PROCEED RETURN
000184:                                                                                                  #                                ...     ...             ENTER RETURN
000185:                                                                                                  #                                ...     ...             IMMEDIATE RETURN FROM GOPERF1R
000186:                                                                                                  #        GOPERF2R IS THE SAME AS GOPERF2 ONLY AN IMMEDIATE RETURN IS MADE TO USERS CALL CADR +4.


000188:                                                                                                  #        GOPERF2R DOES NOT BLANK ANY REGISTERS
000189:                                                                                                  #                                CAF     VXXNYY          VARIABLE NOUN YY REQUESTED.  XX=00 OR 01
000190:                                                                                                  #                                TC      BANKCALL
000191:                                                                                                  #                                CADR    GOPERF2R
000192:                                                                                                  #                                ...     ...             TERMINATE RETURN
000193:                                                                                                  #                                ...     ...             PROCEED RETURN
000194:                                                                                                  #                                ...     ...             ENTER RETURN
000195:                                                                                                  #                                ...     ...             IMMEDIATE RETURN HERE FROM GOPERF2R
000196:                                                                                                  #        GOPERF3R IS THE SAME AS GOPERF3 ONLY AN IMMEDIATE RETURN IS MADE TO USERS CALL CADR +4.
000197:                                                                                                  #        GOPERF3R BLANKS REGISTERS R2 AND R3
000198:                                                                                                  #                                CAF     PROGXX          PERFORM PROGRAM XX
000199:                                                                                                  #                                TC      BANKCALL
000200:                                                                                                  #                                CADR    GOPERF3R
000201:                                                                                                  #                                ...     ...             TERMINATE RETURN
000202:                                                                                                  #                                ...     ...             PROCEED RETURN
000203:                                                                                                  #                                ...     ...             ENTER RETURN
000204:                                                                                                  #                                ...     ...             GOPERF3R IMMEDIATELY RETURNS HERE
000205:
000206:                                                                                                  #        GOPERF4R IS THE SAME AS GOPERF4 ONLY AN IMMEDIATE RETURN IS MADE TO USERS CALL CADR +4.
000207:
000208:                                                                                                  #                                CAF     OCTXX           REQUEST PERFORM ON OPTIONXX
000209:                                                                                                  #                                TC      BANKCALL
000210:                                                                                                  #                                CADR    GOPERF4R
000211:                                                                                                  #                                ...     ...             TERMINATE RETURN
000212:                                                                                                  #                                ...     ...             PROCEED RETURN
000213:                                                                                                  #                                ...     ...             ENTER RETURN
000214:                                                                                                  #                                ...     ...             IMMEDIATE RETURN TO USER
000215:
000216:                                                                                                  #        GOPERF4R BLANKS REGISTER R3
000217:
000218:                                                                                                  #        REFLASHR IS THE SAME AS REFLASH ONLY AN IMMEDIATE RETURN IS MADE TO THE USERS CALL CADR +4.
000219:                                                                                                  #                                CAF     VXXNYY          VXX NYY WILL BE A FLASHING VERB NOUN
000220:                                                                                                  #                                TC      BANKCALL
000221:                                                                                                  #                                CADR    REFLASHR
000222:                                                                                                  #                                ...     ...             TERMINATE RETURN
000223:                                                                                                  #                                ...     ...             PROCEED RETURN
000224:                                                                                                  #                                ...     ...             ENTER RETURN
000225:                                                                                                  #                                ...     ...             IMMEDIATE RETURN TO USER
000226:                                                                                                  #        REGODSPR IS THE SAME AS REGODSP ONLY A RETURN (IMMEDIATE) IS MADE TO THE USER.


000228:                                                                                                  #                                CAF     VXXNYY
000229:                                                                                                  #                                TC      BANKCALL
000230:                                                                                                  #                                CADR    REGODSPR
000231:                                                                                                  #                                ...     ...             IMMEDIATE RETURN TO USER


000233:                                                                                                  #        GOMARK IS USED TO DISPLAY A MARK VERB NOUN ARRIVING IN A.  NO RETURN IS MADE TO THE USER.
000234:                                                                                                  #        GOXDSP = GOMARK
000235:                                                                                                  #                                CAF     VXXNYY          VXXNYY CONTAINS VERB AND NOUN
000236:                                                                                                  #                                TC      BANKCALL
000237:                                                                                                  #                                CADR    GOMARK          OTHER EXTENDED VERBS USE CADR GOXDSP
000238:                                                                                                  #        GOMARKR IS THE SAME AS GOMARK ONLY RETURN IS TO THE USER.
000239:                                                                                                  #        GOXDSPR = GOMARKR
000240:                                                                                                  #                                CAF     VXXNYY
000241:                                                                                                  #                                TC      BANKCALL
000242:                                                                                                  #                                CADR    GOMARKR         OTHER EXTENDED VERBS USE CADR GOXDSPR
000243:                                                                                                  #                                ...     ...             IMMEDIATE RETURN OF GOMARKR
000244:                                                                                                  #        GOMARKF DISPLAYS A FLASHING MARK VERB NOUN WITH NO IMMEDIATE RETURN TO THE USER.  3 RETURNS ARE POSSIBLE FROM
000245:                                                                                                  #        THE ASTRONAUT (SEE NO. 7 ABOVE).
000246:                                                                                                  #        GOXDSPF = GOMARKF
000247:                                                                                                  #                                CAF     VXXNYY          VXXNYY WILL BE A FLASHING MARK VERB NOUN
000248:                                                                                                  #                                TC      BANKCALL
000249:                                                                                                  #                                CADR    GOMARKF         OTHER EXTENDED VERBS USE CADR GOXDSPF
000250:                                                                                                  #                                ...     ...             TERMINATE RETURN
000251:                                                                                                  #                                ...     ...             PROCEED RETURN
000252:                                                                                                  #                                ...     ...             ENTER OR RECYCLE RETURN
000253:
000254:                                                                                                  #        GOMARKFR IS THE SAME AS GOMARKF ONLY AN IMMEDIATE RETURN IS MADE TO THE USER CALL CADR +4.
000255:
000256:                                                                                                  #        GOXDSPFR = GOMARKFR
000257:
000258:                                                                                                  #                                CAF     VXXNYY          FLASHING MARK VERB NOUN
000259:                                                                                                  #                                TC      BANKCALL
000260:                                                                                                  #                                CADR    GOMARKFR        OTHER EXTENDED VERBS USE CADR GOXDSPFR
000261:                                                                                                  #                                ...     ...             TERMINATE RETURN
000262:                                                                                                  #                                ...     ...             PROCEED RETURN
000263:                                                                                                  #                                ...     ...             ENTER OR RECYCLE RETURN
000264:
000265:                                                                                                  #                                ...     ...             IMMEDIATE RETURN TO THE USER
000266:                                                                                                  #        GOMARK1 IS USED FOR A PLEASE PERFORM ON A MARK REQUEST WITH ONLY 1 ASTRONAUT RETURN TO THE USER.  NO IMMEDIATE
000267:                                                                                                  #        RETURN IS MADE.  THE DESIRED MARK PLEASE PERFORM VERB AND DESIRED NOUN IS ENTERED IN A.  GOMARK1 DISPLAYS R1, R2, R
000268:                                                                                                  #        MEANS OF A V05NYY FOLLOWED BY A FLASHING V5XNYY FOR A PLEASE PERFORM.  THE ASTRONAUT WILL RESPOND WITH A MARK
000269:                                                                                                  #        OR MARK REJECT OR AN ENTER.  THE ENTER IS THE ONLY ASTRONAUT RESPONSE THAT WILL COME BACK TO THE USER.
000270:                                                                                                  #                                CAF     V5XNYY          X=1,2,3,4       Y=NOUN
000271:                                                                                                  #                                TC      BANKCALL


000273:                                                                                                  #                                CADR    GOMARK1
000274:                                                                                                  #                                ...     ...             ENTER RETURN
000275:                                                                                                  #        *** IF BLANKING DESIRED ON NON R ROUTINES, NOTIFY DISPLAYER.
000276:
000277:                                                                                                  #        GOMARK1R IS THE SAME AS A GOMARK1 ONLY AN IMMEDIATE RETURN IS MADE TO THE USERS CALL CADR +2.
000278:                                                                                                  #                                CAF     V5XNYY          X=1,2,3,4       YY=NOUN
000279:                                                                                                  #                                TC      BANKCALL
000280:                                                                                                  #                                CADR    GOMARK1R
000281:                                                                                                  #                                ...     ...             ASTRONAUT ENTER RETURN
000282:                                                                                                  #                                ...     ...             IMMEDIATE RETURN TO USER
000283:                                                                                                  #        GOMARK2 IS THE SAME AS GOMARK1 ONLY 3 RETURNS ARE MADE TO THE USER FROM THE ASTRONAUT.
000284:                                                                                                  #                                CAF     V5XNYY          X=1,2,3,4       YY=NOUN
000285:                                                                                                  #                                TC      BANKCALL
000286:                                                                                                  #                                CADR    GOMARK2
000287:                                                                                                  #                                ...     ...             TERMINATE RETURN
000288:                                                                                                  #                                ...     ...             PROCEED RETURN
000289:                                                                                                  #                                ...     ...             ENTER RETURN
000290:                                                                                                  #        GOMARK2R IS THE SAME AS GOMARK1R ONLY 3 ASTRONAUT RETURNS ARE MADE TO THE USER.
000291:                                                                                                  #                                CAF     V5XNYY          X=0,1,2,3,4     YY=NOUN
000292:                                                                                                  #                                TC      BANKCALL
000293:                                                                                                  #                                CADR    GOMARK2R
000294:                                                                                                  #                                ...     ...             TERMINATE RETURN
000295:                                                                                                  #                                ...     ...             PROCEED RETURN
000296:                                                                                                  #                                ...     ...             ENTER RETURN
000297:                                                                                                  #                                ...     ...             IMMEDIATE RETURN TO THE USER
000298:                                                                                                  #        GOMARK3 IS USED FOR A PLEASE PERFORM ON A MARK REQUEST WITH A 3 COMP. DEC DISPLAY.  THE DESIRED MARK PLEASE
000299:                                                                                                  #        PERFORM VERB AND NOUN ARE ENTERED IN A.  GOMARK3 DISPLAYS R1, R2, R3 BY MEANS OF A V06NYY FOLLOWED BY A FLASHING
000300:                                                                                                  #        V5XNYY FOR A PLEASE PERFORM.  GOMARK3 HAS 3 ASTRONAUT RETURNS TO THE USER WITH NO IMMEDIATE RETURN.
000301:                                                                                                  #                                CAF     V5XNYY          X=1,2,3,4       YY=NOUN
000302:                                                                                                  #                                TC      BANKCALL
000303:                                                                                                  #                                CADR    GOMARK3
000304:                                                                                                  #                                ...     ...             TERMINATE RETURN
000305:                                                                                                  #                                ...     ...             PROCEED RETURN
000306:                                                                                                  #                                ...     ...             ENTER RETURN
000307:                                                                                                  #        GOMARK4 IS THE SAME AS GOMARK3 ONLY R2 AND R3 ARE BLANKED AND R1 IS DISPLAYED IN OCTAL.
000308:                                                                                                  #                                CAF     V5XNYY          X=1,2,3,4       YY=NOUN
000309:                                                                                                  #                                TC      BANKCALL
000310:                                                                                                  #                                CADR    GOMARK4
000311:                                                                                                  #                                ...     ...             TERMINATE RETURN
000312:                                                                                                  #                                ...     ...             PROCEED RETURN


000314:                                                                                                  #                        ...     ...                     ENTER RETURN
000315:                                                                                                  #        EXDSPRET IS USED TO DISPLAY A VERB NOUN ARRIVING IN A WITH A RETURN MADE TO THE USER AFTER THE DISPLAY HAS BEEN
000316:                                                                                                  #        SENT OUT.
000317:                                                                                                  #                                CAF     VXXNYY
000318:                                                                                                  #                                TC      BANKCALL
000319:                                                                                                  #                                CADR    EXDSPRET
000320:                                                                                                  #                                ...     ...             RETURN TO USER
000321:                                                                                                  #        KLEENEX CLEANS OUT ALL MARK DISPLAYS (ACTIVE AND INACTIVE). A RETURN IS MADE TO THE USER AFTER THE MARK DISPLAYS
000322:                                                                                                  #        HAVE BEEN CLEANED OUT.
000323:                                                                                                  #                                TC      BANKCALL
000324:                                                                                                  #                                CADR    KLEENEX
000325:                                                                                                  #                                ...     ...             RETURN TO USER
000326:                                                                                                  #        MARKBRAN IS A SPECIAL PURPOSE ROUTINE USED FOR SAVING JOB VAC AREAS (SEE DESCRIPTION OF MARKBRAN BELOW).
000327:                                                                                                  #                                TC      BANKCALL
000328:                                                                                                  #                                CADR    MARKBRAN
000329:                                                                                                  #                                ...     ...             BAD RETURN IF MARK DISPLAY NOT ACTIVE
000330:                                                                                                  #                                                        (GOOD RETURN TO IMMEDIATE RETURN LOC OF
000331:                                                                                                  #                                                        LAST FLASHING MARK R ROUTINE)
000332:                                                                                                  #        PINBRNCH REESTABLISHES THE LAST ACTIVE FLASHING DISPLAY.  IF THERE IS NO ACTIVE FLASHING DISPLAY, THE DSKY IS
000333:                                                                                                  #        BLANKED AND CONTROL IS SENT TO ENDOFJOB.
000334:                                                                                                  #                                TC      POSTJUMP
000335:                                                                                                  #                                CADR    PINBRNCH
000336:                                                                                                  #        PRIODSP IS USED AS A PRIORITY DISPLAY.  IT WILL DISPLAY A GOFLASH TYPE DISPLAY WITH THREE POSSIBLE RETURNS FROM
000337:                                                                                                  #        THE ASTRONAUT (SEE NO. 7 ABOVE).
000338:                                                                                                  #        THE MAIN PURPOSE OF PRIODSP IS TO REPLACE THE PRESENT DISPLAY WITH A DISPLAY OF HIGHER PRIORITY AND TO
000339:                                                                                                  #        PROVIDE A MEANS FOR RESTORING THE OLD DISPLAY WHEN THE PRIORITY DISPLAY
000340:                                                                                                  #        IS RESPONDED TO BY THE ASTRONAUT.
000341:                                                                                                  #        THE FORMER DISPLAY IS RESTORED BY AN AUTOMATIC BRANCH TO WAKE UP THE DISPLAY THAT WAS INTERRUPTED BY THE
000342:                                                                                                  #        PRIO DISPLAY.
000343:                                                                                                  #                                CAF     VXXNYY          VXXNYY WILL BE A FLASHING VERB NOUN
000344:                                                                                                  #                                TC      BANKCALL
000345:                                                                                                  #                                CADR    PRIODSP
000346:                                                                                                  #                                ...     ...             TERMINATE RETURN
000347:                                                                                                  #                                ...     ...             PROCEED RETURN


000349:                                                                                                  #                                ...     ...             ENTER OR RECYCLE RETURN
000350:                                                                                                  #        PRIODSPR IS THE SAME AS PRIODSP ONLY AN IMMEDIATE RETURN IS MADE TO THE USERS CALL CADR +4.
000351:                                                                                                  #                                CAF     VXXNYY          VXXNYY WILL BE A FLASHING VERB NOUN
000352:                                                                                                  #                                TC      BANKCALL
000353:                                                                                                  #                                CADR    PRIODSPR
000354:                                                                                                  #                                ...     ...             TERMINATE RETURN
000355:                                                                                                  #                                ...     ...             PROCEED RETURN
000356:                                                                                                  #                                ...     ...             ENTER OR RECYCLE RETURN
000357:                                                                                                  #                                ...     ...             IMMEDIATE RETURN
000358:                                                                                                  #        PRIOLARM DOES A V05N09 PRIODSPR.
000359:
000360:                                                                                                  #        CLEANDSP CLEANS OUT ALL NORMAL DISPLAYS (ACTIVE AND INACTIVE).  A RETURN IS MADE TO THE USER AFTER NORMAL
000361:                                                                                                  #        DISPLAYS ARE CLEANED OUT.
000362:                                                                                                  #                                TC      BANKCALL
000363:                                                                                                  #                                CADR    CLEANDSP
000364:                                                                                                  #                                ...     ...             RETURN TO USER


000366:
000367:                                                                                                  #  GENERAL INFORMATION
000368:                                                                                                  #  ------- -----------
000369:
000370:                                                                                                  #  ALARM OR ABORT EXIT MODES--
000371:                                                                                                  #        PRIOBORT        TC      ABORT
000372:                                                                                                  #                        OCT     1502
000373:
000374:                                                                                                  #        PRIOBORT IS BRANCED TO WHEN (1) A NORMAL DISPLAY IS REQUESTED AND ANOTHER NORMAL DISPLAY IS ALREADY ACTIVE
000375:                                                                                                  #        (REFLASH AND REGODSP ARE EXCEPTIONS) OR (2) A PRIORITY DISPLAY IS REQUESTED WHEN ANOTHER PRIORITY DISPLAY IS
000376:                                                                                                  #        ALREADY ACTIVE (A PRIORITY WITH LINUS BIT14 IS AN EXCEPTION).
000377:
000378:                                                                                                  #  ERASABLE INITIALIZATION REQUIRED--
000379:                                                                                                  #        ACCOMPLISHED BY FRESH START -   1.  FLAGWRD4 (USED EXCLUSIVELY BY DISPLAY INTERFACE ROUTINES)
000380:                                                                                                  #                                        2.  NVSAVE = NORMAL VERB AND NOUN REGISTER.
000381:                                                                                                  #                                        3.  EBANKTEM = NORMAL INACTIVE FLAGWORD (ALSO CONTAINS NORMALS EBANK).
000382:                                                                                                  #                                        5.  R1SAVE = MARKBRAN CONTROL WORD
000383:                                                                                                  #                                        4.  RESTREG = PRIORITY 30 AND SUPERBANK 3.
000384:
000385:                                                                                                  #  OUTPUT--
000386:                                                                                                  #        NVWORD = PRIO VERB AND NOUN
000387:                                                                                                  #        NVWORD +1 (MARKNV) = MARK VERB AND NOUN
000388:                                                                                                  #        NVWORD +2 (NVSAVE) = NORMAL VERB AND NOUN
000389:
000390:                                                                                                  #        DSPFLG (EBANKSAV) = PRIO FLAGWORD (INCLUDING EBANK)
000391:                                                                                                  #        DSPFLG +1 (MARKEBAN) = MARK FLAGWORD (INCLUDING EBANK)
000392:                                                                                                  #        DSPFLG +2 (EBANKTEM) = NORMAL FLAGWORD (INCLUDIG EBANK)
000393:
000394:                                                                                                  #        CADRFLSH = PRIO USERS CALL CADR +1 LOCATION
000395:                                                                                                  #        CADRFLSH +1 (MARKFLSH) = MARK USERS CALL CADR +1 LOCATION
000396:                                                                                                  #        CADRFLSH +2 (TEMPFLSH) = NORMAL USERS CALL CADR +1 LOCATION
000397:
000398:                                                                                                  #        PRIOTIME = TIME EACH PRIO REQUEST FIRST SENT OUT
000399:                                                                                                  #        OPTION1 = DESIRED OPTION FROM GOPERF4
000400:                                                                                                  #        FLAGWRD4 = BIT INFO FOR CONTROL OF ALL DISPLAY ROUTINES
000401:                                                                                                  #        DSPTEM1 = R1 INFO FOR ASTRONAUT FROM PERFORM DISPLAYS (NORMAL)
000402:
000403:                                                                                                  #  SUBROUTINES USED-- NVSUB, FLAGUP, FLAGDOWN, ENDOFJOB, BLANKSUB, ABORT, JOBWAKE, JOBSLEEP, FINDVAC, PRIOCHNG,
000404:                                                                                                  #        JAMTERM, NVSUBUSY, FLASHON, ENDIDLE, CHANG1, BANKJUMP, MAKECADR, NOVAC,
000405:
000406:                                                                                                  #  DEBRIS-- (STORED INTO)
000407:                                                                                                  #        TEMPORARY TEMPORARIES - A, Q, L, MPAC +2, MPAC +3, MPAC +4, MPAC +5, MPAC +6, RUPTREG2, RUPTREG3, CYL,
000408:                                                                                                  #                EBANK, RUPTREG4, LOC, BANKSET, MODE, MPAC, MPAC +1          4, FACEREG
000409:                                                                                                  #        ERASABES (SHARED AND USED WITH OTHER PROGRAMS) CADRSTOR, DSPLIST, LOC, DSPTEM1, OPTION1
000410:
000411:                                                                                                  #        ERASABLES (USED ONLY BY DISPLAY ROUTINES) - NVWORD,+1,+2, DSPFLG,+1,+2, CADRFLSH,+1,+2, PRIOTIME, FLAGWRD4,


000413:                                                                                                  #                R1SAVE, MARK2PAC,
000414:
000415:                                                                                                  #  DEBRIS-- (USED BUT NOT STORED INTO) - NOUNREG, VERBREG, LOCCTR, MONSAVE1
000416:
000417:                                                                                                  #  FLAGWORD DESCRIPTIONS--
000418:                                                                                                  #        FLAGWRD4 - SEE DESCRIPTION UNDER LOG SECTION ERASABLE ASSIGNMENTS
000419:
000420:                                                                                                  #        DSPFLG, DSPFLG+1, DSPFLG +2-
000421:                                                                                                  #        ----------------------------
000422:                                                                                                  #        BITS 1  BLANK R1
000423:                                                                                                  #             2  BLANK R2
000424:                                                                                                  #             3  BLANK R3
000425:                                                                                                  #             4  FLASHING DISPLAY REQUESTED
000426:                                                                                                  #             5  PERFORM DISPLAY REQUESTED
000427:                                                                                                  #             6  -----                   EXDSPRET                GODSPRET
000428:                                                                                                  #             7  PRIO DISPLAY            -----                   -----
000429:                                                                                                  #             8  -----                   DEC MARK PERFORM        -----
000430:                                                                                                  #             9  EBANK
000431:                                                                                                  #            10  EBANK
000432:                                                                                                  #            11  EBANK
000433:                                                                                                  #            12  -----                   -----                   V99PASTE
000434:                                                                                                  #            13  2ND PART OF PERFORM
000435:                                                                                                  #            15  REFLASH OR REDO         -----                   REFLASH OR REDO
000436:                                                                                                  #            15  -----                   MARK REQUEST            -----
000437:
000438:                                                                                                  #  RESTARTING DISPLAYS--
000439:
000440:                                                                                                  #  RULES FOR THE DSKY OPERATOR--
000441:                                                                                                  #        1.  PROCEED AND TERMINATE SERVE AS RESPONSES TO REQUESTS FOR OPERATOR RESPONSE (FLASHING V/N).  AS LONG
000442:                                                                                                  #            AS THERE IS ANY REQUEST AWAITING OPERATOR RESPONSE, ANY USE OF PROCEED OR TERMINATE WILL SERVE AS
000443:                                                                                                  #            RESPONSES TO THAT REQUEST.  CARE SHOULD BE EXERCISED IN ATTEMPTING TO KILL AN OPERATOR INITIATED MONITOR
000444:                                                                                                  #            WITH PROCEED AND TERMINATE FOR THIS REASON.
000445:                                                                                                  #        2.  THE ASTRONAUT MUST RESPOND TO A PRIORITY DISPLAY NO             SOONER THAN 2 SECONDS FROM THE TIME THE
000446:                                                                                                  #            PROGRAM SENT OUT THE REQUEST FOR OPERATOR RESPONSE (THE ASTRONAUT WOULD SEE THIS DISPLAY FOR LESS TIME
000447:                                                                                                  #            DUE TO TIME IT TAKES TO GET DISPLAY SENT OUT.)  IF THE ASTRONAUT RESPONDS TOO SOON, THE PRIORITY DISPLAY
000448:                                                                                                  #            IS SENT OUT AGAIN -- AND AGAIN UNTIL AN ACCUMULATED 2 SECS       FROM THE TIME THE FIRST PRIORITY DISPLAY
000449:                                                                                                  #            OUT.  THE SAME 2 SEC. DELAY WILL OCCUR AT 163.84 SECS OR IN ANY MULTIPLE OF THAT TIME DUE TO PROGRAM
000450:                                                                                                  #            CONSIDERATION.
000451:                                                                                                  #        3.  KEY RELEASE BUTTON -
000452:                                                                                                  #            A)  IF THE KEY RELEASE LIGHT IS ON, IT SIMPLY RELEASES THE KEYBOARD AND DISPLAY FOR INTERNAL USE.
000453:                                                                                                  #            B)  IF THE KEY RELEASE LIGHT IS OFF, AND IF SOME REQUEST FOR OPERATOR RESPONSE (FLASHING V/N) IS STILL
000454:                                                                                                  #                AWAITING RESPONSE THEN IT RE-ESTABLISHES THE DISPLAYS THAT ORIGINALLY REQUESTED RESPONSE.
000455:                                                                                                  #            IF AN OPERATOR WANTS THEREFORE TO RE-ESTABLISH BUT CONDITION (A) IS ENCOUNTERED, A SECOND DEPRESSION OF
000456:                                                                                                  #            KEY RELEASE BUTTON MAY BE NECESSARY.
000457:                                                                                                  #        4.  IT IS IMPORTANT TO ANSWER ALL REQUESTS FOR OPERATOR RESPONSE.
000458:                                                                                                  #        5.  IT IS ALWAYS GOOD PRACTICE TO TERMINATE AN EXTENDED VERB BEFORE ASKING FOR ANOTHER ONE OR THE SAME ONE
000459:                                                                                                  #            OVER AGAIN.
000460:
000461:                                                                                                  #  SPECIAL CONSIDERATIONS--


000463:                                                                                                  #        1.  MPAC +2 SAVED ONLY IN MARK DISPLAYS
000464:                                                                                                  #        2.  GODSP(R), REGODSP(R), GOMARK(R) ALWAYS TURN ON THE FLASH IF ENTERED WITH A PASTE VERB REQUEST.
000465:                                                                                                  #        3.  ALL NORMAL DISPLAYS ARE RESTARTABLE EXCEPT GODSP(R), REGODSP(R)
000466:                                                                                                  #        4.  ALL EXTENDED VERBS WITH DISPLAYS SHOULD START WITH A TC TESTXACT AND FINISH WITH A TC ENDEXT.
000467:                                                                                                  #        5.  GODSP(R) AND REGODSP(R) MUST BE IN THE SAME EBANK AND SUPERBANK AS THE LAST NORMAL DISPLAY RESTARTED
000468:                                                                                                  #            BY A .1 RESTART PHASE CHANGE.
000469:                                                                                                  #        6.  IN ORDER TO SET UP A NON DISPLAY .1 RESTART POINT, THE USER MUST MAKE CERTAIN THAT RESTREG CONTAINS THE
000470:                                                                                                  #            CORRECT PRIORITY AND SUPERBANK AND THAT EBANKTEM CONTAINS THE CO
000471:                                                                                                  #        7.  IF CLEANDSP IS RESTARTED VIA A .1 PHASE CHANGE, CAF ZERO SHOULD BE EXECUTED BEFORE THE TC BANKCALL.
000472:


000474:                                                                                                  #  CALLING SEQUENCE FOR BLANKING
000475:                                                                                                  #                CAF     BITX            X=1,2,3 BLANK R1,R2,R3 RESPECTIVELY
000476:                                                                                                  #                TC      BLANKET
000477:                                                                                                  #                ...     ...             RETURN TO USER HERE
000478:                                                                                                  #  IN ORDER TO USE BLANKET CORRECTLY THE USER MUST USE A DISPLAY ROUTINE THAT ENDS IN R FIRST FOLLOWED BY THE CALL
000479:                                                                                                  #  TO BLANKET AT THE IMMEDIATE RETURN LOC.
000480:    5464                                           BLOCK    02
000481:    4000                                           SETLOC   FFTAG4
000482:    4000                                           BANK
000483:
000484:    5464                                           COUNT*   $$/DSPLA
000485:    5464           54162        BLANKET            TS       MPAC       +6
000486:    5465           40160                           CS       PLAYTEM4
000487:    5466           70162                           MASK     MPAC       +6
000488:    5467           50161                           INDEX    MPAC       +5
000489:    5470           26160                           ADS      PLAYTEM4
000490:
000491:    5471           00002                           TC       Q
000492:
000493:    5472           04635        ENDMARK            TC       POSTJUMP
000494:    5473           20326                           CADR     MARKEND
000495:
000496:    5474           34755        CLEARMRK           CAF      ZERO
000497:    5475           55043                           TS       EXTVBACT
000498:
000499:    5476           00004                 +2        INHINT
000500:    5477           44753                           CS       XDSPBIT
000501:    5500           70100                           MASK     FLAGWRD4
000502:    5501           54100                           TS       FLAGWRD4
000503:
000504:    5502           00003                           RELINT
000505:    5503           00002                           TC       Q
000506:
000507:                                                                                                  #  *** ALL EXTENDED VERB ROUTINES THAT HAVE AT LEAST ONE FLASHING DISPLAY MUST TCF ENDMARK OR TCF ENDEXT WHEN
000508:                                                                                                  #  FINISHED.
000509:
000510: 10,2326                                           BANK     10
000511: 10,2000                                           SETLOC   DISPLAYS
000512: 10,2000                                           BANK
000513:
000514: 10,2326                                           COUNT*   $$/DSPLA
000515:
000516:                                                                                                  #  NTERONLY IS USED TO DIFFERENTIATE THE MARK ROUTINE WITH ONLY ONE RETURN TO THE USER FROM THE MARKING ROUTINE WIT
000517:                                                                                                  #  3 RETURNS TO THE USER.  THIS ROUTINE IS ONLY USED BY GOMARK1 AND GOMARK1R.
000518:
000519: 10,2326           05474        MARKEND            TC       CLEARMRK
000520: 10,2327           13422                           TCF      MARKOVER
000521:
000522: 10,2330           54155        GOMARK             TS       PLAYTEM1                              #  ENTRANCE FOR MARK GODSP
000523:


000525: 10,2331           34735        GOMARS             CAF      BIT15                                 #  BIT15 SET FOR ALL MARK REQUESTS
000526: 10,2332           12501                           TCF      GOFLASH2
000527:
000528: 10,2333           34755        KLEENEX            CAF      ZERO                                  #  CLEAN OUT EXTENDED VERBS
000529: 10,2334           54155        GOMARKF            TS       PLAYTEM1                              #  ENTRANCE FOR MARK GOFLASH
000530:
000531: 10,2335           33032                           CAF      MARKFMSK                              #  MARK, FLASH
000532: 10,2336           12501                           TCF      GOFLASH2
000533:
000534: 10,2337           54155        GOMARK2            TS       PLAYTEM1                              #  MARK GOPERFS-3 AST. RETURNS
000535: 10,2340           33521        MARKFORM           CAF      MPERFMSK                              #  MARK, PERFORM, FLASH
000536: 10,2341           12501                           TCF      GOFLASH2
000537:
000538: 10,2342           54155        GOMARK3            TS       PLAYTEM1                              #  USED FOR 3COMP DECIMAL PERFORM
000539: 10,2343           33506                           CAF      MARK3MSK
000540: 10,2344           12501                           TCF      GOFLASH2
000541:
000542: 10,2345           54155        GOMARK4            TS       PLAYTEM1
000543: 10,2346           33507                           CAF      MARK4MSK                              #  MARK,PERFORM,FLASH,BLANK
000544: 10,2347           12501                           TCF      GOFLASH2
000545:
000546: 10,2350           54155        GOMARKR            TS       PLAYTEM1                              #  ENTR+NCE FOR MARK GODSPR
000547:
000548: 10,2351           34735                           CAF      BIT15
000549: 10,2352           12454                           TCF      GODSPR2
000550:
000551: 10,2353           54155        GOMARKFR           TS       PLAYTEM1                              #  ENTRANCE FOR MARK GOFLASHR
000552:
000553: 10,2354           33032                           CAF      MARKFMSK
000554: 10,2355           12640                           TCF      GODSPRS
000555:
000556: 10,2356           54155        GOMARK2R           TS       PLAYTEM1                              #  MARK GOPERFS-3 AST. RETS+ IMMEDIATE RET.
000557: 10,2357           33521                           CAF      MPERFMSK                              #  MARK, PERFORM, FLASH
000558: 10,2360           12640                           TCF      GODSPRS
000559:
000560: 10,2361           65023                 -1        AD       PRIO13
000561: 10,2362           54155        GOMARK3R           TS       PLAYTEM1
000562: 10,2363           33506                           CAF      MARK3MSK
000563: 10,2364           12640                           TCF      GODSPRS
000564:
000565: 10,2365           34753        MAKEMARK           CAF      ONE
000566: 10,2366           02736                           TC       COPIES
000567:
000568: 10,2367           30100                           CA       FLAGWRD4                              #  IS NORM OR PRIO BUSY OR WAITING
000569: 10,2370           73522                           MASK     OCT34300
000570: 10,2371           10000                           CCS      A
000571: 10,2372           12430                           TCF      CHKPRIO
000572:
000573: 10,2373           30100                           CA       FLAGWRD4                              #  IS MARK SLEEPING DUE TO ASTRO BUSY
000574: 10,2374           74743                           MASK     MRKNVBIT
000575:


000577: 10,2375           00006                           EXTEND
000578: 10,2376           12400                           BZF      MARKPLAY                              #  NO
000579:
000580: 10,2377           15155                           TCF      ENDOFJOB
000581:
000582: 10,2400           00004        MARKPLAY           INHINT
000583: 10,2401           44756                           CS       FIVE                                  #  RESET MARK OVER NORM, SET MARK
000584: 10,2402           70100                           MASK     FLAGWRD4
000585: 10,2403           64753                           AD       ONE
000586: 10,2404           54100                           TS       FLAGWRD4
000587: 10,2405           00003                           RELINT
000588:
000589: 10,2406           41070        GOGOMARK           CS       MARKFLAG                              #  PERFORM
000590: 10,2407           74747                           MASK     BIT5
000591: 10,2410           10000                           CCS      A
000592: 10,2411           12414                           TCF      MARKCOP
000593: 10,2412           40370                           CS       MARKNV
000594: 10,2413           54370                           TS       MARKNV
000595:
000596: 10,2414           34753        MARKCOP            CAF      ONE                                   #  MARK INDEX
000597: 10,2415           12617                           TCF      PRIOPLAY
000598:
000599: 10,2416           30165        COPYTOGO           CA       MPAC2SAV
000600: 10,2417           54156                           TS       MPAC       +2
000601:
000602: 10,2420           50164        COPYPACS           INDEX    COPINDEX
000603: 10,2421           33532                           CAF      PRIOOCT
000604: 10,2422           54162                           TS       GENMASK
000605:
000606: 10,2423           50164                           INDEX    COPINDEX
000607: 10,2424           31067                           CAF      EBANKSAV
000608: 10,2425           54160                           TS       TEMPOR2                               #  ACTIVE EBANK AND FLAG
000609:
000610: 10,2426           54003                           TS       EBANK
000611:
000612: 10,2427           00002                           TC       Q
000613:
000614:                                                                                                  #  PINCHEK CHECKS TO SEE IF THE CURRENT MARK REQUEST IS MADE BY THE ASTRONAUT WHILE INTERRUPTING A GOPLAY DISPLAY
000615:                                                                                                  #  (A NORMAL OR A PRIO).  IF THE ASTRONAUT TRIES TO MARK DURING A PRIO, THE CHECK FAIL LIGHT GOES ON AND THE MARK
000616:                                                                                                  #  REQUEST IS ENDED.  IF HE TRIES TO MARK DURING A NORM, THE MARK IS ALLOWED.  IN THIS CASE THE NORM IS PUT TO SLEEP
000617:                                                                                                  #  UNTIL ALL MARKING IS FINISHED.
000618:
000619:                                                                                                  #  IF THE MARK REQUEST COMES FROM THE PROGRAM DURING A TIME THE ASTRONAUT IS NOT INTERRUPTING A NORMAL OR A
000620:                                                                                                  #  PRIO, THE MARK REQUEST IS PUT TO SLEEP UNTIL THE +RESENT ACTIVE DISPLAY IS RESPONDED TO BY THE ASTRONAUT.
000621:
000622: 10,2430           30100        CHKPRIO            CA       FLAGWRD4                              #  MARK ATTEMPT DURING PRIO
000623: 10,2431           73255                           MASK     OCT24100
000624: 10,2432           10000                           CCS      A
000625: 10,2433           13455                           TCF      MARSLEEP
000626:


000628: 10,2434           40100                           CS       FLAGWRD4
000629: 10,2435           74751                           MASK     MKOVBIT                               #  SET MARK OVER NORM
000630: 10,2436           00004                           INHINT
000631: 10,2437           26100                           ADS      FLAGWRD4
000632:
000633: 10,2440           12535                           TCF      SETNORM
000634:
000635: 10,2441           30370        MARKPERF           CA       MARKNV
000636: 10,2442           74144                           MASK     VERBMASK
000637: 10,2443           13121                           TCF      NV50DSP
000638:
000639: 10,2444           54155        GODSP              TS       PLAYTEM1
000640:
000641: 10,2445           34755        GODSP2             CAF      ZERO
000642: 10,2446           12501                           TCF      GOFLASH2
000643:
000644: 10,2447           54155        GODSPRET           TS       PLAYTEM1                              #  ENTRANCE FOR A GODSP WITH A PASTE
000645:
000646: 10,2450           34746                           CAF      BIT6                                  #  SET BIT6 TO GO BACK TO USER AFTER NVSUB
000647: 10,2451           12501                           TCF      GOFLASH2
000648:
000649: 10,2452           54155        GODSPR             TS       PLAYTEM1
000650:
000651: 10,2453           34755        GODSPR1            CAF      ZERO
000652: 10,2454           54160        GODSPR2            TS       PLAYTEM4
000653:
000654: 10,2455           34755                           CAF      ZERO                                  #  * DONT MOVE
000655: 10,2456           12642                           TCF      GODSPRS1
000656:
000657:                                                                                                  #  CLEANDSP IS USED FOR CLEARING OUT A NORMAL DISPLAY THAT IS PRESENTLY ACTIVE OR A NORMAL DISPLAY THAT IS
000658:                                                                                                  #  SET UP TO BE STARTED OR RESTARTED.
000659:
000660:                                                                                                  #  NORMALLY THE USER WILL NOT NEED TO USE THIS ROUTINE SINCE A NEW NORMAL DISPLAY AUTOMATICALLY CLEARS OUT AN
000661:                                                                                                  #  OLD DISPLAY.
000662:
000663:                                                                                                  #  CALLING SEQUENCE FOR CLEANDSP -
000664:
000665:                                                                                                  #                TC      BANKCALL
000666:                                                                                                  #                CADR    CLEANDSP
000667:
000668: 10,2457           34755        CLEANDSP           CAF      ZERO
000669: 10,2460           54155        REFLASH            TS       PLAYTEM1
000670:
000671: 10,2461           33505                           CAF      REDOMASK                              #  FLASH AND PERMIT
000672: 10,2462           12501                           TCF      GOFLASH2
000673:
000674: 10,2463           54155        REFLASHR           TS       PLAYTEM1
000675:
000676: 10,2464           33505                           CAF      REDOMASK                              #  FLASH AND PERMIT
000677: 10,2465           12640                           TCF      GODSPRS
000678:


000680: 10,2466           54155        REGODSP            TS       PLAYTEM1
000681:
000682: 10,2467           34736                           CAF      BIT14
000683: 10,2470           12501                           TCF      GOFLASH2
000684:
000685: 10,2471           54155        REGODSPR           TS       PLAYTEM1
000686:
000687: 10,2472           34736                           CAF      BIT14
000688: 10,2473           12454                           TCF      GODSPR2
000689:
000690: 10,2474           54155        CLOCPLAY           TS       PLAYTEM1
000691: 10,2475           33544                           CAF      CLOCKCON
000692: 10,2476           12501                           TCF      GOFLASH2
000693:
000694: 10,2477           54155        GOFLASH            TS       PLAYTEM1
000695:
000696: 10,2500           34750                           CAF      BIT4                                  #  LEAVE ONLY FLASH BIT SET
000697: 10,2501           54160        GOFLASH2           TS       PLAYTEM4
000698:
000699: 10,2502           02723                           TC       SAVELOCS
000700:
000701: 10,2503           00003                           RELINT
000702:
000703: 10,2504           12547                           TCF      MAKEPLAY                              #  BRANCH DIRECT WITH NO SEPARATE JOB CALL
000704:
000705: 10,2505           54155        PRIODSPR           TS       PLAYTEM1
000706:
000707: 10,2506           33524                           CAF      BITS7+4
000708: 10,2507           12640                           TCF      GODSPRS
000709:
000710: 10,2510           54155        PRIODSP            TS       PLAYTEM1
000711:
000712: 10,2511           33524        SETPRIO            CAF      BITS7+4
000713: 10,2512           12501                           TCF      GOFLASH2
000714:
000715: 10,2513           34755        MAKEPRIO           CAF      ZERO
000716: 10,2514           54164                           TS       COPINDEX
000717:
000718: 10,2515           03375                           TC       LINUSCHR
000719: 10,2516           12523                           TCF      HIPRIO                                #  LINUS RETURN
000720: 10,2517           30100                           CA       FLAGWRD4
000721: 10,2520           73543                           MASK     OCT20100                              #  IS PRIO IN ENDIDLE OR BUSY
000722: 10,2521           10000                           CCS      A
000723: 10,2522           12576                           TCF      PRIOBORT                              #  YES, ABORT
000724:
000725: 10,2523           30100        HIPRIO             CA       FLAGWRD4                              #  MARK ACTIVE
000726: 10,2524           75632                           MASK     OCT40400
000727: 10,2525           00006                           EXTEND
000728: 10,2526           12531                           BZF      ASKIFNRM                              #  NO
000729:


000731: 10,2527           34755        SETMARK            CAF      ZERO
000732: 10,2530           12775                           TCF      JOBXCHS
000733:
000734: 10,2531           30100        ASKIFNRM           CA       FLAGWRD4                              #  NORMAL ACTIVE
000735: 10,2532           73541                           MASK     OCT10200                              #  BITS 13+8
000736: 10,2533           00006                           EXTEND
000737: 10,2534           12537                           BZF      OKTOCOPY                              #  NO
000738:
000739: 10,2535           34753        SETNORM            CAF      ONE
000740: 10,2536           12775                           TCF      JOBXCHS
000741:
000742: 10,2537           02735        OKTOCOPY           TC       COPYNORM
000743: 10,2540           03206                           TC       WITCHONE
000744:
000745: 10,2541           05137                           TC       JOBWAKE
000746:
000747: 10,2542           03223                           TC       XCHTOEND
000748:
000749: 10,2543           30025        REDOPRIO           CA       TIME1                                 #  SAVE TIME PRIODSP SENT OUT
000750: 10,2544           55164                           TS       PRIOTIME
000751:
000752: 10,2545           34755        KEEPPRIO           CAF      ZERO                                  #  START UP PRIO DISPLAY
000753: 10,2546           12617                           TCF      PRIOPLAY
000754:
000755: 10,2547           30167        MAKEPLAY           CA       PRIORITY                              #  SAVE USERS PRIORITY
000756: 10,2550           77730                           MASK     PRIO37
000757: 10,2551           54163                           TS       USERPRIO
000758:
000759: 10,2552           37724                           CAF      PRIO33                                #  RAISE PRIORITY FOR FAST JOBS AFTER WAKE
000760: 10,2553           05146                           TC       PRIOCHNG
000761:
000762: 10,2554           30160                           CA       PLAYTEM4                              #  IS IT MARK OR PRIO OR NORM
000763: 10,2555           73523                           MASK     BITS15+7
000764: 10,2556           10000                           CCS      A
000765: 10,2557           12513                           TCF      MAKEPRIO                              #  ITS PRIO
000766: 10,2560           12562                           TCF      IFLEGAL
000767: 10,2561           12365                           TCF      MAKEMARK                              #  ITS MARK
000768:
000769: 10,2562           34752        IFLEGAL            CAF      TWO
000770: 10,2563           54164                           TS       COPINDEX
000771:
000772: 10,2564           03375                           TC       LINUSCHR
000773:
000774: 10,2565           12600                           TCF      OKTOPLAY                              #  LINUS RETURN
000775: 10,2566           41071                           CS       EBANKTEM
000776: 10,2567           74750                           MASK     BIT4
000777: 10,2570           10000                           CCS      A
000778: 10,2571           12600                           TCF      OKTOPLAY                              #  NO
000779:
000780: 10,2572           30100                           CA       FLAGWRD4                              #  WAS NORM ASLEEP


000782: 10,2573           73514                           MASK     NBUSMASK                              #  ARE ANY NORMS ASLEEP
000783: 10,2574           00006                           EXTEND
000784: 10,2575           12600                           BZF      OKTOPLAY                              #  NO
000785:
000786: 10,2576           05624        PRIOBORT           TC       BAILOUT
000787: 10,2577           31502                           OCT      31502
000788:
000789: 10,2600           02737        OKTOPLAY           TC       COPIES2
000790:
000791: 10,2601           30163                           CA       USERPRIO
000792: 10,2602           00006                           EXTEND
000793: 10,2603           04007                           ROR      SUPERBNK
000794: 10,2604           54366                           TS       RESTREG
000795:
000796: 10,2605           30100                           CA       FLAGWRD4                              #  PRIO OR MARK GOING
000797: 10,2606           73515                           MASK     PMMASK
000798: 10,2607           10000                           CCS      A
000799: 10,2610           12755                           TCF      GOSLEEPS                              #  YES
000800:
000801: 10,2611           12613                           TCF      +2
000802: 10,2612           12755                           TCF      GOSLEEPS                              #  MARK GOING
000803:
000804:                                                                                                  #  COULD PUT NORM BUSY CHECK HERE TO SAVE TIME
000805:
000806: 10,2613           03206                           TC       WITCHONE                              #  IS IT NVSUB BUSY, ENDIDLE OR NOONE
000807: 10,2614           05137                           TC       JOBWAKE
000808:
000809: 10,2615           03223                           TC       XCHTOEND
000810:
000811: 10,2616           34752        PLAYJUM1           CAF      TWO
000812: 10,2617           54164        PRIOPLAY           TS       COPINDEX
000813:
000814: 10,2620           13071                           TCF      GOPLAY
000815:
000816: 10,2621           54155        EXDSPRET           TS       PLAYTEM1
000817:
000818: 10,2622           37737                           CAF      BIT15+6
000819: 10,2623           12501                           TCF      GOFLASH2
000820:
000821: 10,2624           55044        GOPERF1            TS       NORMTEM1                              #  STORE DESIRED CHECKLIST VALUE
000822: 10,2625           33477                           CAF      V01N25                                #  USED TO DISPLAY CHECKLIST VALUE IN R1
000823:
000824: 10,2626           54155        GOPERFS            TS       PLAYTEM1
000825:
000826: 10,2627           33476                           CAF      PERFMASK                              #  LEAVE ONLY FLASH, PERFORM, BLANKING
000827: 10,2630           12501                           TCF      GOFLASH2
000828:
000829: 10,2631           54155        GOPERF2            TS       PLAYTEM1                              #  DESIRED VERB-NOUN TO DISPLAY R1,R2,R3
000830:
000831: 10,2632           33502                           CAF      PERF2MSK
000832: 10,2633           12501                           TCF      GOFLASH2
000833:


000835: 10,2634           02716        GOPERF4            TC       PURRS4
000836:
000837: 10,2635           12501                           TCF      GOFLASH2
000838:
000839: 10,2636           54155        GOFLASHR           TS       PLAYTEM1
000840:
000841: 10,2637           34750                           CAF      BIT4                                  #  LEAVE ONLY FLASH BIT SET
000842: 10,2640           54160        GODSPRS            TS       PLAYTEM4
000843:
000844: 10,2641           36250                           CAF      THREE
000845:
000846: 10,2642           00004        GODSPRS1           INHINT                                         #  IMMEDIATE RETURN IS CALL CADR +4
000847: 10,2643           54072                           TS       RUPTREG3
000848:
000849: 10,2644           30167                           CA       PRIORITY                              #  MAKE DISPLAY ONE HIGHER THAN USER
000850: 10,2645           77730                           MASK     PRIO37
000851: 10,2646           54063                           TS       NEWPRIO
000852:
000853: 10,2647           30160                           CA       PLAYTEM4                              #  IS THIS A FLASHING R DISPLAY
000854: 10,2650           74750                           MASK     BIT4
000855: 10,2651           10000                           CCS      A
000856: 10,2652           12660                           TCF      VACDSP                                #  YES, MAKE DSPLAY JOB A VAC
000857: 10,2653           30063                           CA       NEWPRIO                               #  NO, MAKE DSPLAY JOB A NOVAC
000858: 10,2654           05072                           TC       NOVAC
000859: 10,2655  E7,1471                                  EBANK=   WHOCARES
000860: 10,2655           02547 20067                     2CADR    MAKEPLAY
000861:
000862: 10,2657           12666                           TCF      BOTHJOBS
000863:
000864: 10,2660           30006        VACDSP             CA       BBANK
000865: 10,2661           00006                           EXTEND
000866: 10,2662           04007                           ROR      SUPERBNK
000867: 10,2663           54001                           TS       L
000868: 10,2664           33540                           CAF      MAKEGEN
000869: 10,2665           05116                           TC       SPVAC
000870:
000871: 10,2666           02723        BOTHJOBS           TC       SAVELOCS                              #  COPY TEMPS INTO PERMANENT REGISTERS
000872:
000873: 10,2667           00006                           EXTEND                                         #  SAVE NVWORD AND USERS MPAC +2
000874: 10,2670           30156                           DCA      MPAC       +1
000875: 10,2671           50064                           INDEX    LOCCTR
000876: 10,2672           52156                           DXCH     MPAC       +1
000877:
000878: 10,2673           00006                           EXTEND                                         #  SAVE USERS CADR, FLAGS AND EBANK
000879: 10,2674           30160                           DCA      MPAC       +3
000880: 10,2675           50064                           INDEX    LOCCTR
000881: 10,2676           52160                           DXCH     MPAC       +3
000882:
000883: 10,2677           30064                           CA       LOCCTR
000884: 10,2700           54161                           TS       MPAC       +5


000886: 10,2701           02730                           TC       SAVELOCR
000887: 10,2702           00003                           RELINT
000888:
000889: 10,2703           14640                           TCF      BANKJUMP                              #  CALL CADR +4
000890:
000891: 10,2704           55044        GOPERF1R           TS       NORMTEM1                              #  DESIRED CHECKLIST VALUE
000892:
000893: 10,2705           33477                           CAF      V01N25                                #  DISPLAYS CHECKLIST VALUE IN R1
000894:
000895: 10,2706           54155        GOPERFRS           TS       PLAYTEM1
000896:
000897: 10,2707           33476                           CAF      PERFMASK                              #  LEAVE ONLY FLASH, PERFORM, BLANKING
000898: 10,2710           12640                           TCF      GODSPRS
000899:
000900: 10,2711           54155        GOPERF2R           TS       PLAYTEM1                              #  DESIRED VERB-NOUN TO DISPLAY R1,R2,R3
000901:
000902: 10,2712           33502                           CAF      PERF2MSK
000903: 10,2713           12640                           TCF      GODSPRS
000904:
000905: 10,2714           02716        GOPERF4R           TC       PURRS4
000906:
000907: 10,2715           12640                           TCF      GODSPRS
000908:
000909: 10,2716           55143        PURRS4             TS       OPTION1                               #  DESIRED OPTION CODE
000910:
000911: 10,2717           33503                           CAF      V04N06
000912: 10,2720           54155                           TS       PLAYTEM1
000913:
000914: 10,2721           33504                           CAF      PERF4MSK                              #  FLASH, PERFORM AND BLANK R3
000915: 10,2722           00002                           TC       Q
000916:
000917: 10,2723           00004        SAVELOCS           INHINT
000918:
000919: 10,2724           43513                           CS       OCT3400                               #  EBANK BITS
000920: 10,2725           70160                           MASK     PLAYTEM4
000921: 10,2726           60003                           AD       EBANK
000922: 10,2727           54160                           TS       PLAYTEM4
000923:
000924: 10,2730           22002        SAVELOCR           LXCH     Q
000925:
000926: 10,2731           04645                           TC       MAKECADR
000927: 10,2732           54157                           TS       PLAYTEM3
000928:
000929: 10,2733           60072                           AD       RUPTREG3                              #  NOT USED FOR NON R ROUTINES
000930: 10,2734           00001                           TC       L
000931:
000932: 10,2735           34755        COPYNORM           CAF      ZERO
000933: 10,2736           54164        COPIES             TS       COPINDEX
000934: 10,2737           00004        COPIES2            INHINT
000935: 10,2740           30160                           CA       PLAYTEM4                              #  FLAGWORD
000936:


000938: 10,2741           50164                           INDEX    COPINDEX
000939: 10,2742           55067                           TS       EBANKSAV                              #  EQUIV TO DSPFLG
000940:
000941: 10,2743           73531                           MASK     CADRMASK                              #  FLASH AND GODSPRET
000942: 10,2744           00006                           EXTEND
000943: 10,2745           12751                           BZF      SKIPADD
000944:
000945: 10,2746           30157                           CA       PLAYTEM3
000946: 10,2747           50164                           INDEX    COPINDEX
000947: 10,2750           54372                           TS       CADRFLSH
000948:
000949: 10,2751           30155        SKIPADD            CA       PLAYTEM1                              #  VERB NOUN
000950: 10,2752           50164                           INDEX    COPINDEX
000951: 10,2753           54367                           TS       NVWORD
000952:
000953: 10,2754           13232                           TCF      RELINTQ
000954:
000955: 10,2755           50164        GOSLEEPS           INDEX    COPINDEX
000956: 10,2756           33532                           CA       PRIOOCT
000957: 10,2757           72761                           MASK     WAITMASK
000958: 10,2760           03545                           TC       UPENT2
000959: 10,2761           03004        WAITMASK           OCT      3004
000960: 10,2762           44753                           CS       ONE
000961: 10,2763           60164                           AD       COPINDEX
000962: 10,2764           54154                           TS       FACEREG
000963:
000964: 10,2765           50154        XCHSLEEP           INDEX    FACEREG
000965: 10,2766           33511                           CAF      WAKECADR
000966: 10,2767           00004                           INHINT
000967: 10,2770           05137                           TC       JOBWAKE                               #  FIND CADR IN JOB AREA
000968:
000969: 10,2771           03223                           TC       XCHTOEND                              #  CAUSES AWAKENED JOB TO GO TO ENDOFJOB
000970:
000971: 10,2772           50154                           INDEX    FACEREG                               #  REPLACE SAME CADR BUT NEW JOB AREA
000972: 10,2773           33511                           CAF      WAKECADR
000973: 10,2774           15133                           TCF      JOBSLEEP
000974:
000975: 10,2775           54154        JOBXCHS            TS       FACEREG                               #  CONTROLS TYPE OF DISPLAY PUT TO SLEEP
000976: 10,2776           03206                           TC       WITCHONE
000977: 10,2777           05137                           TC       JOBWAKE
000978: 10,3000           30154                           CA       FACEREG
000979: 10,3001           50064                           INDEX    LOCCTR
000980: 10,3002           54154                           TS       FACEREG
000981:
000982: 10,3003           33016                           CAF      XCHQADD
000983: 10,3004           03224                           TC       XCHNYLOC
000984:
000985: 10,3005           50154                           INDEX    FACEREG
000986: 10,3006           33533                           CA       MARKOCT
000987: 10,3007           73535                           MASK     IDLESLEP
000988:


000990: 10,3010           03555                           TC       DOWNENT2
000991: 10,3011           74004        IDLEMASK           OCT      74004                                 #  * DONT MOVE
000992:
000993: 10,3012           50154                           INDEX    FACEREG                               #  BIT SHOWS PRIO INTERRUPTED NORM OR MARK
000994: 10,3013           34747                           CA       BIT5                                  #  BIT5 FOR MARK, BIT4 FOR NORMAL
000995: 10,3014           64751                           AD       FOUR
000996: 10,3015           03545                           TC       UPENT2                                #  FLAG ROUTINE DOES RELINT
000997: 10,3016           02765        XCHQADD            GENADR   XCHSLEEP                              #  * DONT MOVE
000998: 10,3017           30100                           CA       FLAGWRD4
000999: 10,3020           74751                           MASK     MKOVBIT                               #  MARK OVER NORM?
001000: 10,3021           10000                           CCS      A
001001: 10,3022           02400        GENMARK            TC       MARKPLAY                              #  USED AS GENADR FOR JOBWAKE
001002: 10,3023           12537                           TCF      OKTOCOPY
001003:
001004: 10,3024           34755        MARKWAKE           CAF      ZERO
001005: 10,3025           54160        WAKEPLAY           TS       TEMPOR2
001006:
001007: 10,3026           50160                           INDEX    TEMPOR2
001008: 10,3027           33525                           CA       BITS5+11
001009: 10,3030           64751                           AD       FOUR
001010: 10,3031           03555                           TC       DOWNENT2
001011: 10,3032           40010        MARKFMSK           OCT      40010                                 #  *** DONT MOVE
001012:
001013: 10,3033           50160                           INDEX    TEMPOR2
001014: 10,3034           33511                           CAF      WAKECADR
001015: 10,3035           00004                           INHINT
001016: 10,3036           05137                           TC       JOBWAKE
001017:
001018: 10,3037           13336                           TCF      ENDRET
001019:
001020:                                                                                                  #  ALL .1 RESTARTS BRANCH DIRECTLY TO INITDSP.  NORMAL DISPLAYS ARE THE ONLY DISPLAYS ALLOWED TO USE .1 RESTARTS
001021:                                                                                                  #  INITDSP FIRST RESTORES THE EBANK AND THE SUPERBANK TO THE MOST RECENT NORMAL EBANK AND SUPERBANK.
001022:
001023:                                                                                                  #  IF THE MOST RECENT NORMAL DISPLAY REQUEST WAS NOT FINISHED, CONTROL IS SENT BACK TO THE LAST NORMAL USER.
001024:                                                                                                  #  OTHERWISE THE NORMAL DISPLAY SET UP IN THE NORMAL DISPLAY REGS IS STARTED UP IMMEDIATELY.
001025:
001026: 10,3040           31071        INITDSP            CA       EBANKTEM                              #  RESTORE MOST RECECT NORMAL EBANK
001027: 10,3041           54003                           TS       EBANK
001028:
001029: 10,3042           30366                           CA       RESTREG                               #  SUPERBANK AND JOB PRIORITY
001030: 10,3043           04727                           TC       SUPERSW                               #  RESTORE SUPERBANK
001031:
001032: 10,3044           77730                           MASK     PRIO37
001033: 10,3045           05146                           TC       PRIOCHNG
001034:
001035: 10,3046           46250                           CS       THREE
001036: 10,3047           60374                           AD       TEMPFLSH
001037: 10,3050           14640                           TCF      BANKJUMP
001038:
001039: 10,3051           00003        PINBRNCH           RELINT                                         #  FOR GOPIN USERS
001040: 10,3052           31072                           CA       MARK2PAC                              #  NEEDED TO SAVE MPAC +2 FOR MARK USERS


001042: 10,3053           54156                           TS       MPAC       +2                         #  ONLY
001043:
001044: 10,3054           30100                           CA       FLAGWRD4                              #  PINBRANCH CONDITION
001045: 10,3055           77743                           MASK     PINMASK
001046: 10,3056           10000                           CCS      A
001047: 10,3057           13062                           TCF      +3
001048: 10,3060           13472                           TCF      ERASER                                #  ** NOTHING IN ENDIDLE
001049: 10,3061           12400                           TCF      MARKPLAY
001050:
001051: 10,3062           05504        NORMBNCH           TC       UPFLAG                                #  SET PINBRANCH BIT
001052: 10,3063           00105                           ADRES    PINBRFLG
001053:
001054: 10,3064           34736                           CAF      PRIODBIT                              #  PRIO INTERRUPTED
001055: 10,3065           70100                           MASK     FLAGWRD4
001056: 10,3066           10000                           CCS      A
001057: 10,3067           12545                           TCF      KEEPPRIO
001058:
001059: 10,3070           12616                           TCF      PLAYJUM1
001060:
001061: 10,3071           02420        NVDSP              TC       COPYPACS
001062:
001063: 10,3072           30160                           CA       TEMPOR2                               #  SET UP BLANK BITS FOR NVMONOPT IN CASE
001064: 10,3073           74757                           MASK     SEVEN                                 #  USER REQUESTS BLANKING MONITOR
001065: 10,3074           54001                           TS       L
001066:
001067: 10,3075           44737                           CS       BIT13
001068: 10,3076           50164                           INDEX    COPINDEX
001069: 10,3077           71067                           MASK     DSPFLG
001070: 10,3100           50164                           INDEX    COPINDEX
001071: 10,3101           55067                           TS       DSPFLG
001072:
001073: 10,3102           74744                           MASK     BIT8                                  #  BIT8 SET IF DEC MARK PERFORM DISPLAY
001074: 10,3103           54141                           TS       TEM1
001075:
001076: 10,3104           30156                           CA       MPAC       +2
001077: 10,3105           54165                           TS       MPAC2SAV
001078:
001079: 10,3106           55072                           TS       MARK2PAC                              #  * FOR DISK ONLY *
001080: 10,3107           50164                           INDEX    COPINDEX
001081: 10,3110           10367                           CCS      NVWORD
001082: 10,3111           13120                           TCF      NVDSP1
001083: 10,3112           13234                           TCF      CLEANEND
001084: 10,3113           40370                           CS       MARKNV
001085: 10,3114           54370                           TS       MARKNV                                #  IN CASE MARKPLAY AWAKENED AFTER SLEEPING
001086: 10,3115           76077                           MASK     LOW7
001087: 10,3116           63516                           AD       V05N00M1
001088: 10,3117           60141                           AD       TEM1
001089: 10,3120           64753        NVDSP1             AD       ONE
001090: 10,3121           04155        NV50DSP            TC       NVMONOPT
001091: 10,3122           13246                           TCF      REST                                  #  IF BUSY
001092:


001094: 10,3123           04433                           TC       FLASHOFF                              #  IN CASE OF EXTENDED VERB NON FLASH
001095:
001096: 10,3124           02416                           TC       COPYTOGO                              #  MPACS DESTROYED BY NVSUB
001097: 10,3125           05516                           TC       DOWNFLAG                              #  UNSET SLEEPING BITS
001098: 10,3126           00102                           ADRES    MRKNVFLG
001099: 10,3127           05516                           TC       DOWNFLAG
001100: 10,3130           00103                           ADRES    NRMNVFLG
001101: 10,3131           05516                           TC       DOWNFLAG
001102: 10,3132           00104                           ADRES    PRONVFLG
001103: 10,3133           30160        BLANKCHK           CA       TEMPOR2                               #  BLANK BITS 1,2,3 IF SET
001104: 10,3134           04255                           TC       BLANKSUB
001105: 10,3135           13071                           TCF      NVDSP
001106: 10,3136           34747        PERFCHEK           CAF      BIT5                                  #  BIT5 FOR PERFORM
001107: 10,3137           70160                           MASK     TEMPOR2
001108: 10,3140           10000                           CCS      A                                     #  IS THIS A GOPERF DISPLAY
001109: 10,3141           13164                           TCF      1STOR2ND                              #  YES
001110:
001111: 10,3142           34750        GOANIDLE           CAF      BIT4
001112: 10,3143           70160                           MASK     TEMPOR2
001113: 10,3144           10000                           CCS      A
001114: 10,3145           13261                           TCF      FLASHSUB                              #  IT IS
001115:
001116: 10,3146           40160                           CS       TEMPOR2                               #  IS THIS A GODSPRET
001117: 10,3147           74746                           MASK     BIT6
001118: 10,3150           10000                           CCS      A
001119: 10,3151           13156                           TCF      ISITN00
001120:
001121: 10,3152           50164                           INDEX    COPINDEX
001122: 10,3153           30372                           CA       CADRFLSH
001123: 10,3154           54157                           TS       MPAC       +3
001124: 10,3155           13354                           TCF      ENDIT
001125:
001126: 10,3156           50164        ISITN00            INDEX    COPINDEX                              #  IS THIS A PASTE
001127: 10,3157           30367                           CA       NVWORD
001128: 10,3160           76077                           MASK     LOW7                                  #  CHECK MADE FOR PINBRNCH AND PRIO ON MARK
001129: 10,3161           00006                           EXTEND
001130: 10,3162           13261                           BZF      FLASHSUB                              #  YES, ASSUME PASTE ALWAYS ON FLASH
001131:
001132: 10,3163           15155                           TCF      ENDOFJOB                              #  NOT FLASH, NOT GOPERF, THERFORE EXIT
001133:
001134: 10,3164           30160        1STOR2ND           CA       TEMPOR2
001135: 10,3165           74737                           MASK     BIT13
001136: 10,3166           10000                           CCS      A
001137: 10,3167           13142                           TCF      GOANIDLE                              #  SECOND
001138:
001139: 10,3170           34737                           CA       BIT13
001140: 10,3171           50164                           INDEX    COPINDEX
001141: 10,3172           27067                           ADS      DSPFLG
001142:
001143: 10,3173           22007                           ZL


001145: 10,3174           00006                           EXTEND                                         #  IS IT MARK
001146: 10,3175           62441                           BZMF     MARKPERF                              #  YES
001147:
001148: 10,3176           74740                           MASK     BIT12
001149: 10,3177           00006                           EXTEND
001150: 10,3200           13204                           BZF      V50PASTE
001151: 10,3201           41066                           CS       NVWORD1                               #  NVOWRD1= -0 IS V97.  NVWORD1= -400 IS V99
001152: 10,3202           63542                           AD       V97N00
001153: 10,3203           13121                           TCF      NV50DSP
001154: 10,3204           33501        V50PASTE           CAF      V50N00
001155: 10,3205           13121                           TCF      NV50DSP                               #  DISPLAY SECOND PART OF GOPERF
001156:
001157: 10,3206           44747        WITCHONE           CS       BIT5                                  #  TURN OFF KEY RELEASE LIGHT
001158: 10,3207           00006                           EXTEND
001159: 10,3210           03011                           WAND     DSALMOUT
001160:
001161: 10,3211           30100                           CA       FLAGWRD4
001162: 10,3212           73517                           MASK     NVBUSMSK                              #  IS IT NVSUB ASLEEP
001163: 10,3213           10000                           CCS      A
001164: 10,3214           34753                           CAF      ONE
001165: 10,3215           54001                           TS       L
001166: 10,3216           34755                           CAF      ZERO
001167: 10,3217           50001                           INDEX    L
001168: 10,3220           57041                           XCH      CADRSTOR
001169:
001170: 10,3221           00004                           INHINT
001171: 10,3222           00002                           TC       Q
001172:
001173: 10,3223           34217        XCHTOEND           CAF      ENDINST                               #  TC ENDOFJOB REPLACES GENADR IN LOC FOR
001174: 10,3224           56064        XCHNYLOC           XCH      LOCCTR                                #  WAS THIS ADDRESS SLEEPING
001175: 10,3225           00006                           EXTEND
001176: 10,3226           63232                           BZMF     RELINTQ                               #  NO
001177: 10,3227           56064                           XCH      LOCCTR                                #  YES
001178: 10,3230           50064                           INDEX    LOCCTR
001179: 10,3231           54164                           TS       LOC
001180:
001181: 10,3232           00003        RELINTQ            RELINT
001182: 10,3233           00002                           TC       Q                                     #  BACK TO USER
001183:
001184: 10,3234           37723        CLEANEND           CAF      PRIO32                                #  ONE LOWER THAN DISPLAYS SLEEPING
001185: 10,3235           05105                           TC       FINDVAC
001186: 10,3236     0371                                  EBANK=   NVSAVE
001187: 10,3236           04231 04060                     2CADR    JAMTERM
001188:
001189: 10,3240           13262                           TCF      FLASHSUB   +1
001190:
001191: 10,3241           30100        ISITPRIO           CA       FLAGWRD4
001192: 10,3242           73267                           MASK     ITISMASK                              #  IS PINBRFLG, MARKIDFLG SET
001193: 10,3243           00006                           EXTEND


001195: 10,3244           12576                           BZF      PRIOBORT
001196: 10,3245           15155                           TCF      ENDOFJOB
001197:
001198: 10,3246           11041        REST               CCS      CADRSTOR                              #  IS SOMEONE IN ENDIDLE
001199: 10,3247           15155                           TCF      ENDOFJOB                              #  YES
001200: 10,3250           13252                           TCF      RESTSLEP
001201:
001202: 10,3251           15155                           TCF      ENDOFJOB
001203:
001204: 10,3252           30162        RESTSLEP           CA       GENMASK                               #  SET NVSLEEP BITS
001205: 10,3253           73520                           MASK     ASTROMSK
001206: 10,3254           03545                           TC       UPENT2
001207: 10,3255           24100        OCT24100           OCT      24100                                 #  *** DONT MOVE
001208:
001209: 10,3256           50164                           INDEX    COPINDEX
001210: 10,3257           33510                           CAF      NVCADR
001211: 10,3260           04442                           TC       NVSUBUSY                              #  BUSY OR ABORT IF ILLEGAL
001212:
001213: 10,3261           04427        FLASHSUB           TC       FLASHON
001214:
001215: 10,3262           30164                           CA       COPINDEX                              #  COPINDEX DESTROYED BY ENDIDLE
001216: 10,3263           54157                           TS       COPMPAC
001217:
001218: 10,3264           30162                           CA       GENMASK
001219: 10,3265           73011                           MASK     IDLEMASK
001220: 10,3266           03545                           TC       UPENT2
001221: 10,3267           40040        ITISMASK           OCT      40040                                 #  *** ENDIDLE ALLOW *** DONT MOVE
001222:
001223: 10,3270           31073                           CA       R1SAVE                                #  IS THIS A REPEAT AND RETURN DISPLAY
001224: 10,3271           50164                           INDEX    COPINDEX
001225: 10,3272           74751                           MASK     BIT3
001226: 10,3273           10000                           CCS      A
001227: 10,3274           13361                           TCF      UNSETR1                               #  YES
001228:
001229: 10,3275           11041                           CCS      CADRSTOR                              #  SEE IF SOMEONE ALREADY IN ENDIDLE
001230: 10,3276           13241                           TCF      ISITPRIO
001231: 10,3277           13301                           TCF      +2
001232: 10,3300           13241                           TCF      ISITPRIO
001233:
001234: 10,3301           04207                           TC       ENDIDLE
001235: 10,3302           13373        IDLERET1           TCF      TERMATE
001236:
001237: 10,3303           13412                           TCF      PROCEED                               #  ENDIDLE RETURNS HERE ON PROCEED
001238:
001239: 10,3304           43527                           CS       LOWLOAD
001240: 10,3305           60154                           AD       MPAC                                  #  VERBREG
001241: 10,3306           00006                           EXTEND
001242: 10,3307           26000                           DIM      A
001243: 10,3310           00006                           EXTEND
001244: 10,3311           13462                           BZF      LOADITIS                              #  V21 OR V22 OR V23 ON DSKY
001245:


001247: 10,3312           34752        OKTOENT            CAF      TWO
001248: 10,3313           54161        ENDOUT             TS       OUTHERE
001249:
001250: 10,3314           30100                           CA       FLAGWRD4                              #  CHECK NATURE OF ENDIDLE RETURN
001251: 10,3315           74101                           MASK     OCT60000
001252: 10,3316           10000                           CCS      A
001253: 10,3317           13322                           TCF      TIMECHEK                              #  PRIO ENDIDLE RETURN
001254: 10,3320           13430                           TCF      NORMRET                               #  NORMAL ENDIDLE RETURN
001255: 10,3321           13414                           TCF      MARKRET                               #  MARK ENDIDLE RETURN
001256:
001257: 10,3322           40025        TIMECHEK           CS       TIME1
001258: 10,3323           61164                           AD       PRIOTIME
001259: 10,3324           10000                           CCS      A
001260: 10,3325           40000                           COM
001261: 10,3326           67734                           AD       OCT37776
001262: 10,3327           64753                           AD       ONE
001263: 10,3330           63571                           AD       -2SEC
001264: 10,3331           00006                           EXTEND
001265: 10,3332           62545                           BZMF     KEEPPRIO
001266:
001267: 10,3333           13430                           TCF      NORMRET
001268:
001269: 10,3334           34753        NORMWAKE           CAF      ONE
001270: 10,3335           13025                           TCF      WAKEPLAY
001271:
001272: 10,3336           10161        ENDRET             CCS      OUTHERE
001273: 10,3337           64753                           AD       ONE
001274: 10,3340           13342                           TCF      +2                                    #  NORMAL ENDIDLE EXIT
001275: 10,3341           15155                           TCF      ENDOFJOB
001276: 10,3342           50157                           INDEX    COPMPAC
001277: 10,3343           60372                           AD       CADRFLSH
001278: 10,3344           54157                           TS       MPAC       +3
001279:
001280: 10,3345           30162                           CA       GENMASK                               #  REMOVE ENDIDLE AND PINBRANCH BITS
001281: 10,3346           73350                           MASK     PINIDMSK
001282: 10,3347           03555                           TC       DOWNENT2
001283: 10,3350           74044        PINIDMSK           OCT      74044                                 #  *** DONT MOVE
001284:
001285: 10,3351           46250                           CS       THREE                                 #  BLANK EVERYTHING EXCEPT MM
001286: 10,3352           04154                           TC       NVSUB
001287: 10,3353           13354                           TCF      +1
001288:
001289: 10,3354           30163        ENDIT              CA       USERPRIO                              #  RETURN TO USERS PRIORITY
001290: 10,3355           77730                           MASK     PRIO37
001291: 10,3356           05146                           TC       PRIOCHNG
001292: 10,3357           30157                           CA       MPAC       +3
001293: 10,3360           14640                           TCF      BANKJUMP
001294:
001295: 10,3361           50164        UNSETR1            INDEX    COPINDEX                              #  RESET REPEAT AND RETURN REQUEST
001296: 10,3362           44751                           CS       BIT3


001298: 10,3363           71073                           MASK     R1SAVE
001299: 10,3364           55073                           TS       R1SAVE
001300:
001301: 10,3365           34755                           CAF      ZERO                                  #  *** 205 ONLY MARKBRAN USERS IN
001302: 10,3366           04727                           TC       SUPERSW                               #  SUPERBANK 0
001303:
001304: 10,3367           36250                 -1        CAF      THREE                                 #  RETURN TO USERS IMMEDIATE RETURN LOC
001305: 10,3370           50164        IMMEDRET           INDEX    COPINDEX
001306: 10,3371           60372                           AD       CADRFLSH
001307: 10,3372           14640                           TCF      BANKJUMP
001308:
001309: 10,3373           34755        TERMATE            CAF      ZERO                                  #  ASTRONAUT TERMINATE (V34) RETURNS TO
001310: 10,3374           13313                           TCF      ENDOUT
001311:
001312: 10,3375           40160        LINUSCHR           CS       PLAYTEM4                              #  IS THIS A LINUS
001313: 10,3376           74736                           MASK     BIT14
001314: 10,3377           10000                           CCS      A
001315: 10,3400           16742                           TCF      Q+1                                   #  NO
001316: 10,3401           40157                           CS       PLAYTEM3                              #  YES, IS IT ALREADY IN ENDIDLE
001317: 10,3402           50164                           INDEX    COPINDEX
001318: 10,3403           60372                           AD       CADRFLSH
001319: 10,3404           00006                           EXTEND
001320: 10,3405           13407                           BZF      +2                                    #  YES
001321:
001322: 10,3406           00002                           TC       Q                                     #  NO
001323: 10,3407           11011                           CCS      DSPLOCK                               #  IS THE ASTRONAUT BUSY
001324: 10,3410           05155                           TC       ENDOFJOB                              #  END THE NEW DISPLAY, ITS ALREADY ACTIVE
001325: 10,3411           00002                           TC       Q
001326:
001327:                                                                                                  #  MORE LOGIC COULD BE INCORPORATED HERE TO MAKE SURE A RECYCLE IS A RECYCLAND CONVERSLY THAT A LOAD IS A LOAD.
001328:
001329: 10,3412           34753        PROCEED            CAF      ONE                                   #  ASTRONAUT PROCEED (V33) RETURNS
001330: 10,3413           13313                           TCF      ENDOUT
001331:
001332:                                                                                                  #  LASTPLAY CHECKS TO SEE IF (1) THE LAST NORMAL DISPLAY WAS EITHER INTERRUPTED BY A PRIO OR A MARK (MARK
001333:                                                                                                  #  COULD ONLY HAPPEN DURING PINBRANCH) OR IF (2) THE LAST NORMAL DISPLAY WAS REQUESTED WHILE A HIGHER PRIORITY
001334:                                                                                                  #  DISPLAY WAS GOING RESULTING IN THE NORMAL BEING PUT TO SLEEP.
001335:
001336:                                                                                                  #  IF EITHER OF THE ABOVE 2 CONDITIONS EXISTS, THE NORMAL DISPLAY IS AWAKENED TO GO TO PLAYJUM1 WHICH STARTS
001337:                                                                                                  #  UP THE MOST RECENT VALID NORMAL DISPLAY.  IF THESE 2 CONDITIONS DO NOT EXIST, CONTROL GOES TO PLAYJUM1 WHICH IS
001338:                                                                                                  #  STARTED IMMEDIATELY WITH THE ASSUMPTION THAT THE MOST RECENT NORMAL DISPLAY IS ALREADY IN-ENDIDLE (DURING A
001339:                                                                                                  #  PINBRANCH) OR THAT A RESTART HAS OCCURRED AND THE DISPLAY CAN BE STARTED AS A .1 RESTART.
001340:
001341: 10,3414           46245        MARKRET            CS       SIX
001342: 10,3415           70100                           MASK     FLAGWRD4
001343: 10,3416           00004                           INHINT                                         #  *** MAY MOVE DISPLAY FLAGWORD OUT OF
001344: 10,3417           54100                           TS       FLAGWRD4
001345:
001346: 10,3420           00003                           RELINT                                         #  INHINT REALM
001347: 10,3421           13336                           TCF      ENDRET
001348:


001350: 10,3422           37752        MARKOVER           CAF      MINUS1                                #  RUPTREG2 IS - MEANS ENDOFJOB TO ENDRET
001351: 10,3423           54161                           TS       OUTHERE
001352:
001353: 10,3424           30100                           CA       FLAGWRD4                              #  IS ENDIDFLG SET
001354: 10,3425           74355                           MASK     PRIO30                                #  IS NORMAL OR PRIO IN ENDIDLE
001355: 10,3426           10000                           CCS      A
001356: 10,3427           13062                           TCF      NORMBNCH
001357:
001358: 10,3430           30100        NORMRET            CA       FLAGWRD4                              #  IS MARK SLEEPING
001359: 10,3431           73525                           MASK     BITS5+11                              #  OR WAITING
001360: 10,3432           10000                           CCS      A
001361: 10,3433           13024                           TCF      MARKWAKE
001362:
001363: 10,3434           30100                           CA       FLAGWRD4                              #  NO
001364: 10,3435           73526                           MASK     BITS4+10                              #  IS NORMAL INTERRUPTED OR WAITING
001365: 10,3436           10000                           CCS      A
001366: 10,3437           13334                           TCF      NORMWAKE                              #  YES
001367:
001368: 10,3440           31071                           CA       EBANKTEM                              #  NO, WAS IT A FLASH REQUEST
001369: 10,3441           74771                           MASK     OCT50                                 #  OR A GODSPRET
001370: 10,3442           10000                           CCS      A
001371: 10,3443           13336                           TCF      ENDRET                                #  YES
001372: 10,3444           30371                           CA       NVSAVE
001373: 10,3445           00006                           EXTEND
001374: 10,3446           13336                           BZF      ENDRET
001375:
001376: 10,3447           35025                           CAF      PRIO15
001377: 10,3450           00004                           INHINT
001378: 10,3451           05072                           TC       NOVAC
001379: 10,3452     0367                                  EBANK=   NVWORD
001380: 10,3452           02616 20060                     2CADR    PLAYJUM1
001381:
001382: 10,3454           13336                           TCF      ENDRET
001383:
001384: 10,3455           30100        MARSLEEP           CA       FLAGWRD4                              #  IS MARK ALREADY IN
001385: 10,3456           73525                           MASK     BITS5+11
001386: 10,3457           10000                           CCS      A
001387: 10,3460           15155                           TCF      ENDOFJOB                              #  YES
001388: 10,3461           12755                           TCF      GOSLEEPS
001389:
001390: 10,3462           50157        LOADITIS           INDEX    COPMPAC
001391: 10,3463           30367                           CA       NVWORD
001392: 10,3464           76077                           MASK     LOW7
001393: 10,3465           40000                           COM
001394: 10,3466           60155                           AD       MPAC       +1                         #  NOUNREG
001395: 10,3467           00006                           EXTEND
001396: 10,3470           13312                           BZF      OKTOENT                               #  NO, THEN LOAD IS VALID
001397: 10,3471           13051                           TCF      PINBRNCH                              #  YES, ACCEPT LOAD BUT ASK FOR LAST AGAIN
001398:


001400: 10,3472           46250        ERASER             CS       THREE                                 #  BLANK EVERYTHING EXCEPT MM
001401: 10,3473           04154                           TC       NVSUB
001402: 10,3474           15155                           TCF      ENDOFJOB
001403: 10,3475           15155                           TCF      ENDOFJOB
001404:
001405: 10,3476           00036        PERFMASK           OCT      0036                                  #  FLASH, PERFORM, BLANK R2 AND R3
001406: 10,3477           00231        V01N25             VN       00125
001407: 10,3500           01407        V06N07             VN       00607                                 #  GOPERF3 VN DISPLAY BEFORE V50
001408: 10,3501           14400        V50N00             VN       5000
001409: 10,3502           00030        PERF2MSK           OCT      00030                                 #  FLASH, PERFORM
001410: 10,3503           01006        V04N06             VN       00406
001411: 10,3504           00014        PERF4MSK           OCT      14                                    #  FLASH, BLANK R3
001412: 10,3505  10,3051               GOAGIN             EQUALS   PINBRNCH
001413: 10,3505           20010        REDOMASK           OCT      20010                                 #  BITS 4 AND 14
001414: 10,3506           40230        MARK3MSK           OCT      40230                                 #  MARK, DECIMAL NOUN, PERFORM, FLASH
001415: 10,3507           40036        MARK4MSK           OCT      40036                                 #  MARK, PERFORM, FLASH, BLANK 2 AND 3
001416: 10,3510           20543        NVCADR             CADR     REDOPRIO
001417: 10,3511           20400        WAKECADR           CADR     MARKPLAY
001418: 10,3512           20616                           CADR     PLAYJUM1
001419:
001420: 10,3513           03400        OCT3400            OCT      3400                                  #  EBANK MASK
001421: 10,3514           11210        NBUSMASK           OCT      11210
001422: 10,3515           66521        PMMASK             OCT      66521
001423: 10,3516     4144               VERBMASK           =        MID7                                  #  (OCT 37600)
001424: 10,3516           01177        V05N00M1           OCT      1177                                  #  V05 MINUS ONE
001425: 10,3517  10,2330               GOXDSP             EQUALS   GOMARK
001426: 10,3517  10,2350               GOXDSPR            EQUALS   GOMARKR
001427: 10,3517  10,2334               GOXDSPF            EQUALS   GOMARKF
001428: 10,3517  10,2353               GOXDSPFR           EQUALS   GOMARKFR
001429: 10,3517     5472               ENDEXT             EQUALS   ENDMARK
001430: 10,3517     0165               MPAC2SAV           EQUALS   BANKSET
001431: 10,3517           00700        NVBUSMSK           OCT      700
001432: 10,3520           00704        ASTROMSK           OCT      704
001433: 10,3521           40030        MPERFMSK           OCT      40030                                 #  BIT 15,5,4 FOR MARK,PERFORM,FLASH
001434: 10,3522           34300        OCT34300           OCT      34300
001435: 10,3523           40100        BITS15+7           OCT      40100
001436: 10,3524           00110        BITS7+4            OCT      110
001437: 10,3525     1067               DSPFLG             EQUALS   EBANKSAV
001438: 10,3525     1070               MARKFLAG           EQUALS   MARKEBAN
001439: 10,3525     1071               SAVEFLAG           EQUALS   EBANKTEM
001440: 10,3525           02020        BITS5+11           OCT      2020                                  #  * DONT MOVE
001441: 10,3526           01010        BITS4+10           OCT      1010                                  #  * DONT MOVE
001442: 10,3527           00026        LOWLOAD            DEC      22         B-14
001443: 10,3530           77730        BUSYMASK           OCT      77730
001444: 10,3531           00050        CADRMASK           OCT      50
001445: 10,3532     7743               PINMASK            EQUALS   13,14,15
001446: 10,3532  10,3071               GOPLAY             EQUALS   NVDSP
001447:                                                                                                  # PRIOSAVE       EQUALS  R1SAVE
001448: 10,3532     0157               COPMPAC            EQUALS   MPAC       +3
001449: 10,3532     0160               TEMPOR2            EQUALS   MPAC       +4
001450:


001452: 10,3532     0161               OUTHERE            EQUALS   MPAC       +5
001453: 10,3532     0164               COPINDEX           EQUALS   LOC
001454: 10,3532     0163               USERPRIO           EQUALS   MODE
001455: 10,3532     0162               GENMASK            EQUALS   MPAC       +6
001456: 10,3532           20144        PRIOOCT            OCT      20144                                 #  PRIO
001457: 10,3533           42424        MARKOCT            OCT      42424                                 #  MARK
001458: 10,3534           11254                           OCT      11254                                 #  NORM
001459:
001460: 10,3535           74704        IDLESLEP           OCT      74704
001461: 10,3536           67777        OCT67777           OCT      67777
001462: 10,3537     5464               LINUS              EQUALS   BLANKET
001463: 10,3537     0154               FACEREG            EQUALS   MPAC
001464: 10,3537     0155               PLAYTEM1           EQUALS   MPAC       +1
001465: 10,3537     0157               PLAYTEM3           EQUALS   MPAC       +3
001466: 10,3537     0160               PLAYTEM4           EQUALS   MPAC       +4
001467: 10,3537           40420        OCT40420           OCT      40420
001468: 10,3540           02547        MAKEGEN            GENADR   MAKEPLAY
001469: 10,3541           10200        OCT10200           OCT      10200
001470: 10,3542           30200        V97N00             VN       09700                                 #  PASTE FOR V97 OR V99
001471: 10,3543           20100        OCT20100           OCT      20100
001472: 10,3544           24030        CLOCKCON           OCT      24030                                 #  FLASH, PERFORM, V99 OR V97 PASTE, REFLASH

End of include-file DISPLAY_INTERFACE_ROUTINES.agc.  Parent file is MAIN.agc


