
Source Code


000002:                                                                                                  ## Copyright:   Public domain.
000003:                                                                                                  ## Filename:    EXECUTIVE.agc
000004:                                                                                                  ## Purpose:     A section of Luminary 1C, revision 131.
000005:                                                                                                  ##              It is part of the source code for the Lunar Module's (LM)
000006:                                                                                                  ##              Apollo Guidance Computer (AGC) for Apollo 13.
000007:                                                                                                  ##              This file is intended to be a faithful transcription, except
000008:                                                                                                  ##              that the code format has been changed to conform to the
000009:                                                                                                  ##              requirements of the yaYUL assembler rather than the
000010:                                                                                                  ##              original YUL assembler.
000011:                                                                                                  ## Reference:   pp. 1097-1110
000012:                                                                                                  ## Contact:     Ron Burkey <info@sandroid.org>.
000013:                                                                                                  ## Website:     www.ibiblio.org/apollo/index.html
000014:                                                                                                  ## Mod history: 05/31/03 RSB.   Began transcribing.
000015:                                                                                                  ##              05/14/05 RSB    Corrected website reference above.
000016:                                                                                                  ##              2010-10-25 JL   Indentation fixes.
000017:                                                                                                  ##              2011-05-07 JL   Removed workaround.
000018:                                                                                                  ##              2017-01-06 RSB  Page numbers now agree with those on the
000019:                                                                                                  ##                              original harcopy, as opposed to the PDF page
000020:                                                                                                  ##                              numbers in 1701.pdf.
000021:


000023:    5072                                           BLOCK    02
000024:
000025:                                                                                                  #  TO ENTER A JOB REQUEST REQUIRING NO VAC AREA:
000026:
000027:    5072                                           COUNT*   $$/EXEC
000028:    5072           00004        NOVAC              INHINT
000029:    5073           65164                           AD       FAKEPRET                              #  LOC(MPAC +6) - LOC(QPRET)
000030:    5074           54063                           TS       NEWPRIO                               #  PRIORITY OF NEW JOB + NOVAC C(FIXLOC)
000031:
000032:    5075           00006                           EXTEND
000033:    5076           50002                           INDEX    Q                                     #  Q WILL BE UNDISTURBED THROUGHOUT.
000034:    5077           30001                           DCA      0                                     #  2CADR OF JOB ENTERED.
000035:    5100           52066                           DXCH     NEWLOC
000036:    5101           35163                           CAF      EXECBANK
000037:    5102           56004                           XCH      FBANK
000038:    5103           54061                           TS       EXECTEM1
000039:    5104           12626                           TCF      NOVAC2                                #  ENTER EXECUTIVE BANK.
000040:
000041:                                                                                                  #  TO ENTER A JOB REQUEST REQUIREING A VAC AREA -- E.G., ALL (PARTIALLY) INTERPRETIVE JOBS.
000042:
000043:    5105           00004        FINDVAC            INHINT
000044:    5106           54063                           TS       NEWPRIO
000045:    5107           00006                           EXTEND
000046:    5110           50002                           INDEX    Q
000047:    5111           30001                           DCA      0
000048:    5112           52066        SPVACIN            DXCH     NEWLOC
000049:    5113           35163                           CAF      EXECBANK
000050:    5114           56004                           XCH      FBANK
000051:    5115           12602                           TCF      FINDVAC2                              #  OFF TO EXECUTIVE SWITCHED-BANK.
000052:
000053:                                                                                                  #  TO ENTER A FINDVAC WITH THE PRIORITY IN NEWPRIO TO THE 2CADR ARRIVING IN A AND L:
000054:                                                                                                  #  USERS OF SPVAC MUST INHINT BEFORE STORING IN NEWPRIO.
000055:
000056:    5116           56002        SPVAC              XCH      Q
000057:    5117           67751                           AD       NEG2
000058:    5120           56002                           XCH      Q
000059:    5121           15112                           TCF      SPVACIN
000060:
000061:                                                                                                  #  TO SUSPEND A BASIC JOB SO A HIGHER PRIORITY JOB MAY BE SERVICED:
000062:
000063:    5122           22002        CHANG1             LXCH     Q
000064:    5123           35163                           CAF      EXECBANK
000065:    5124           56006                           XCH      BBANK
000066:    5125           12707                           TCF      CHANJOB
000067:
000068:                                                                                                  #  TO SUSPEND AN INTERPRETIVE JOB:
000069:
000070:    5126           40164        CHANG2             CS       LOC                                   #  NEGATIVE LOC SHOWS JOB = INTERPRETIVE.
000071:                                                                                                  #  ITRACE (4) REFERS TO "CHANG2"
000072:    5127           54001                           TS       L


000074:    5130           35163                 +2        CAF      EXECBANK
000075:    5131           54006                           TS       BBANK
000076:    5132           12706                           TCF      CHANJOB    -1
000077:


000079:                                                                                                  #  TO VOLUNTARILY SUSPEND A JOB UNTIL THE COMPLETION OF SOME ANTICIPATED EVENT (I/O EVENT ETC.):
000080:
000081:    5133           54164        JOBSLEEP           TS       LOC
000082:    5134           35163                           CAF      EXECBANK
000083:    5135           54004                           TS       FBANK
000084:    5136           12777                           TCF      JOBSLP1
000085:
000086:                                                                                                  #  TO AWAKEN A JOB PUT TO SLEEP IN THE ABOVE FASHION:
000087:
000088:    5137           00004        JOBWAKE            INHINT
000089:    5140           54065                           TS       NEWLOC
000090:    5141           44752                           CS       TWO                                   #  EXIT IS VIA FINDVAC/NOVAC PROCEDURES.
000091:    5142           26002                           ADS      Q
000092:    5143           35163                           CAF      EXECBANK
000093:    5144           56004                           XCH      FBANK
000094:    5145           13024                           TCF      JOBWAKE2
000095:
000096:                                                                                                  #  TO CHANGE THE PRIORITY OF A JOB CURRENTLY UNDER EXECUTION:
000097:
000098:    5146           00004        PRIOCHNG           INHINT                                         #  NEW PRIORITY ARRIVES IN A.  RETURNS TO
000099:    5147           54063                           TS       NEWPRIO                               #  CALLER AS SOON AS NEW JOB PRIORITY IS
000100:    5150           35163                           CAF      EXECBANK                              #  HIGHEST.  PREPARE FOR POSSIBLE BASIC-
000101:    5151           56006                           XCH      BBANK                                 #  STYLE CHANGE-JOB.
000102:    5152           54165                           TS       BANKSET
000103:    5153           30002                           CA       Q
000104:    5154           13073                           TCF      PRIOCH2
000105:
000106:                                                                                                  #  TO REMOVE A JOB FROM EXECUTIVE CONSIDERATIONS:
000107:
000108:    5155           35163        ENDOFJOB           CAF      EXECBANK
000109:    5156           54004                           TS       FBANK
000110:    5157           13104                           TCF      ENDJOB1
000111:
000112:    5160           30061        ENDFIND            CA       EXECTEM1                              #  RETURN TO CALLER AFTER JOB ENTRY
000113:    5161           54004                           TS       FBANK                                 #  COMPLETE.
000114:    5162           16744                           TCF      Q+2
000115:    5163           02602        EXECBANK           CADR     FINDVAC2
000116:
000117:    5164           00110        FAKEPRET           ADRES    MPAC       -36D                       #  LOC(MPAC +6) - LOC(QPRET)
000118:


000120:                                                                                                  #  LOCATE AN AVAILABLE VAC AREA
000121:
000122: 01,2602                                           BANK     01
000123: 01,2602                                           COUNT*   $$/EXEC
000124: 01,2602           54061        FINDVAC2           TS       EXECTEM1                              #  (SAVE CALLER'S BANK FIRST.)
000125: 01,2603           10400                           CCS      VAC1USE
000126: 01,2604           12621                           TCF      VACFOUND
000127: 01,2605           10454                           CCS      VAC2USE
000128: 01,2606           12621                           TCF      VACFOUND
000129: 01,2607           10530                           CCS      VAC3USE
000130: 01,2610           12621                           TCF      VACFOUND
000131: 01,2611           10604                           CCS      VAC4USE
000132: 01,2612           12621                           TCF      VACFOUND
000133: 01,2613           10660                           CCS      VAC5USE
000134: 01,2614           12621                           TCF      VACFOUND
000135: 01,2615           22061                           LXCH     EXECTEM1
000136: 01,2616           30002                           CA       Q
000137: 01,2617           05706                           TC       BAILOUT1
000138: 01,2620           31201                           OCT      31201                                 #  NO VAC AREAS.
000139:
000140: 01,2621           64752        VACFOUND           AD       TWO                                   #  RESERVE THIS VAC AREA BY STORING A ZERO
000141: 01,2622           22007                           ZL                                             #  IN ITS VAC USE REGISTER AND STORE THE
000142: 01,2623           50000                           INDEX    A                                     #  ADDRESS OF THE FIRST WORD OF IT IN THE
000143: 01,2624           21777                           LXCH     0          -1                         #  LOW NINE BITS OF THE PRIORITY WORD.
000144: 01,2625           26063                           ADS      NEWPRIO
000145:
000146: 01,2626           34755        NOVAC2             CAF      ZERO                                  #  NOVAC ENTERS HERE.  FIND A CORE SET.
000147: 01,2627           54064                           TS       LOCCTR
000148: 01,2630           32635                           CAF      NO.CORES                              #  SEVEN SETS OF ELEVEN REGISTERS ECH.
000149: 01,2631           54062        NOVAC3             TS       EXECTEM2
000150: 01,2632           50064                           INDEX    LOCCTR
000151: 01,2633           10167                           CCS      PRIORITY                              #  EACH PRIORITY REGISTER CONTAINS -0 IF
000152: 01,2634           12675                           TCF      NEXTCORE                              #  THE CORESPONDING CORE SET IS AVAILABLE.
000153: 01,2635           00007        NO.CORES           DEC      7          B-14
000154: 01,2636           12675                           TCF      NEXTCORE                              #  AN ACTIVE JOB HAS A POSITIVE PRIORITY
000155:                                                                                                  #  BUT A DORMANT JOB'S PRIORITY IS NEGATIVE
000156:


000158: 01,2637           30063        CORFOUND           CA       NEWPRIO                               #  SET THE PRIORITY OF THIS JOB IN THE CORE
000159: 01,2640           50064                           INDEX    LOCCTR                                #  SET'S PRIORITY REGISTER AND SET THE
000160: 01,2641           54167                           TS       PRIORITY                              #  JOB'S PUSH-DOWN POINTER AT THE BEGINNING
000161: 01,2642           75004                           MASK     LOW9                                  #  OF THE WORK AREA AND OVERFLOW INDICATOR.
000162: 01,2643           50064                           INDEX    LOCCTR
000163: 01,2644           54166                           TS       PUSHLOC                               #  OFF TO PREPARE FOR INTERPRETIVE PROGRAMS.
000164:
000165: 01,2645           10064                           CCS      LOCCTR                                #  IF CORE SET ZERO IS BEING LOADED, SET UP
000166: 01,2646           12662                           TCF      SETLOC                                #  OVFIND AND FIXLOC IMMEDIATELY.
000167: 01,2647           54121                           TS       OVFIND
000168: 01,2650           30166                           CA       PUSHLOC
000169: 01,2651           54120                           TS       FIXLOC
000170:
000171: 01,2652           10067        SPECTEST           CCS      NEWJOB                                #  SEE IF ANY ACTIVE JOBS WAITING (RARE).
000172: 01,2653           12662                           TCF      SETLOC                                #  MUST BE AWAKENED OUT UNCHANGED JOB.
000173: 01,2654           05675                           TC       CCSHOLE
000174: 01,2655           05675                           TC       CCSHOLE
000175: 01,2656           54067                           TS       NEWJOB                                #  +0 SHOWS ACTIVE JOB ALREADY SET.
000176: 01,2657           52066                           DXCH     NEWLOC
000177: 01,2660           52165                           DXCH     LOC
000178: 01,2661           15160                           TCF      ENDFIND
000179:
000180: 01,2662           52066        SETLOC             DXCH     NEWLOC                                #  SET UP THE LOCATION REGISTERS FOR THIS
000181: 01,2663           50064                           INDEX    LOCCTR
000182: 01,2664           52165                           DXCH     LOC
000183: 01,2665           50067                           INDEX    NEWJOB                                #  THIS INDEX INSTRUCTION INSURES THAT THE
000184: 01,2666           40167                           CS       PRIORITY                              #  HIGHEST ACTIVE PRIORITY WILL BE COMPARED
000185: 01,2667           60063                           AD       NEWPRIO                               #  WITH THE NEW PRIORITY TO SEE IF NEWJOB
000186: 01,2670           00006                           EXTEND                                         #  SHOULD BE SET TO SIGNAL A SWITCH.
000187: 01,2671           65160                           BZMF     ENDFIND
000188: 01,2672           30064                           CA       LOCCTR                                #  LOCCTR IS LEFT SET AT THIS CORE SET IF
000189: 01,2673           54067                           TS       NEWJOB                                #  THE CALLER WANTS TO LOAD ANY MPAC
000190: 01,2674           15160                           TCF      ENDFIND                               #  REGISTERS, ETC.
000191:
000192: 01,2675           33034        NEXTCORE           CAF      COREINC
000193: 01,2676           26064                           ADS      LOCCTR
000194: 01,2677           10062                           CCS      EXECTEM2
000195: 01,2700           12631                           TCF      NOVAC3
000196: 01,2701           22061                           LXCH     EXECTEM1
000197: 01,2702           30002                           CA       Q
000198: 01,2703           05706                           TC       BAILOUT1                              #  NO CORE SETS AVAILABLE.
000199: 01,2704           31202                           OCT      31202


000201:                                                                                                  #  THE FOLLOWING ROUTINE SWAPS CORE SET 0 WITH THAT WHOSE RELATIVE ADDRESS IS IN NEWJOB.
000202:
000203: 01,2705           22164                 -2        LXCH     LOC
000204: 01,2706           30165                 -1        CAE      BANKSET                               #  BANKSET, NOT BBANK, HAS RIGHT CONTENTS.
000205: 01,2707           00004        CHANJOB            INHINT
000206: 01,2710           00006                           EXTEND
000207: 01,2711           04007                           ROR      SUPERBNK                              #  PICK UP CURRENT SBANK FOR BBCON
000208: 01,2712           56001                           XCH      L                                     #  LOC IN A AND BBCON IN L.
000209: 01,2713           50067                 +4        INDEX    NEWJOB
000210: 01,2714           52165                           DXCH     LOC
000211: 01,2715           52165                           DXCH     LOC
000212:
000213: 01,2716           30165                           CAE      BANKSET
000214: 01,2717           00006                           EXTEND
000215: 01,2720           01007                           WRITE    SUPERBNK                              #  SET SBANK FOR NEW JOB.
000216: 01,2721           52155                           DXCH     MPAC                                  #  SWAP MULTI-PURPOSE ACCUMULATOR AREAS.
000217: 01,2722           50067                           INDEX    NEWJOB
000218: 01,2723           52155                           DXCH     MPAC
000219: 01,2724           52155                           DXCH     MPAC
000220: 01,2725           52157                           DXCH     MPAC       +2
000221: 01,2726           50067                           INDEX    NEWJOB
000222: 01,2727           52157                           DXCH     MPAC       +2
000223: 01,2730           52157                           DXCH     MPAC       +2
000224: 01,2731           52161                           DXCH     MPAC       +4
000225: 01,2732           50067                           INDEX    NEWJOB
000226: 01,2733           52161                           DXCH     MPAC       +4
000227: 01,2734           52161                           DXCH     MPAC       +4
000228: 01,2735           52163                           DXCH     MPAC       +6
000229: 01,2736           50067                           INDEX    NEWJOB
000230: 01,2737           52163                           DXCH     MPAC       +6
000231: 01,2740           52163                           DXCH     MPAC       +6
000232:
000233: 01,2741           34755                           CAF      ZERO
000234: 01,2742           56121                           XCH      OVFIND                                #  MAKE PUSHLOC NEGATIVE IF OVFIND NZ.
000235: 01,2743           00006                           EXTEND
000236: 01,2744           12747                           BZF      +3
000237: 01,2745           40166                           CS       PUSHLOC
000238: 01,2746           54166                           TS       PUSHLOC
000239:
000240: 01,2747           52167                           DXCH     PUSHLOC
000241: 01,2750           50067                           INDEX    NEWJOB
000242: 01,2751           52167                           DXCH     PUSHLOC
000243: 01,2752           52167                           DXCH     PUSHLOC                               #  SWAPS PUSHLOC AND PRIORITY.
000244: 01,2753           35004                           CAF      LOW9                                  #  SET FIXLOC TO BASE OF VAC AREA.
000245: 01,2754           70167                           MASK     PRIORITY
000246: 01,2755           54120                           TS       FIXLOC
000247:
000248: 01,2756           10166                           CCS      PUSHLOC                               #  SET OVERFLOW INDICATOR ACCORDING TO
000249: 01,2757           34755                           CAF      ZERO
000250: 01,2760           12765                           TCF      ENDPRCHG   -1
000251:


000253: 01,2761           40166                           CS       PUSHLOC
000254: 01,2762           54166                           TS       PUSHLOC
000255: 01,2763           34753                           CAF      ONE
000256: 01,2764           56121                           XCH      OVFIND
000257: 01,2765           54067                           TS       NEWJOB
000258:
000259: 01,2766           00003        ENDPRCHG           RELINT
000260: 01,2767           52165                           DXCH     LOC                                   #  BASIC JOBS HAVE POSITIVE ADDRESSES, SO
000261: 01,2770           00006                           EXTEND                                         #  DISPATCH WITH A DTCB.
000262: 01,2771           62773                           BZMF     +2                                    #  IF INTERPRETIVE, SET UP EBANK, ETC.
000263: 01,2772           52006                           DTCB


000265: 01,2773           40000                           COM                                            #  EPILOGUE TO JOB CHANGE FOR INTERPRETIVE
000266: 01,2774           64753                           AD       ONE
000267: 01,2775           54164                           TS       LOC                                   #  RESUME
000268: 01,2776           16053                           TCF      INTRSM
000269:
000270:                                                                                                  #  COMPLETE JOBSLEEP PREPARATIONS.
000271:
000272: 01,2777           00004        JOBSLP1            INHINT
000273: 01,3000           40167                           CS       PRIORITY                              #  NNZ PRIORITY SHOWS JOB ASLEEP.
000274: 01,3001           54167                           TS       PRIORITY
000275: 01,3002           36077                           CAF      LOW7
000276: 01,3003           70006                           MASK     BBANK
000277: 01,3004           00006                           EXTEND
000278: 01,3005           04007                           ROR      SUPERBNK                              #  SAVE OLD SUPERBANK VALUE.
000279: 01,3006           54165                           TS       BANKSET
000280: 01,3007           44755                           CS       ZERO
000281: 01,3010           54131        JOBSLP2            TS       BUF        +1                         #  HOLDS -- HIGHEST PRIORITY.
000282: 01,3011           13121                           TCF      EJSCAN                                #  SCAN FOR HIGHEST PRIORITY ALA ENDOFJOB.
000283:
000284: 01,3012           00004        NUCHANG2           INHINT                                         #  QUICK... DON'T LET NEWJOB CHANGE TO +0.
000285: 01,3013           10067                           CCS      NEWJOB
000286: 01,3014           13017                           TCF      +3                                    #  NEWJOB STILL PNZ
000287: 01,3015           00003                           RELINT                                         #  NEW JOB HAS CHANGED TO +0.  WAKE UP JOB
000288: 01,3016           13217                           TCF      ADVAN      +2                         #  VIA NUDIRECT.  (VERY RARE CASE.)
000289:
000290: 01,3017           34752                           CAF      TWO
000291: 01,3020           00006                           EXTEND
000292: 01,3021           05011                           WOR      DSALMOUT                              #  TURN ON ACTIVITY LIGHT
000293: 01,3022           52165                           DXCH     LOC                                   #  AND SAVE ADDRESS INFO FOR BENEFIT OF
000294: 01,3023           12713                           TCF      CHANJOB    +4                         #        POSSIBLE SLEEPINT JOB.
000295:


000297:                                                                                                  #  TO WAKE UP A JOB, EACH CORE SET IS FOUND TO LOCATE ALL JOBS WHICH ARE ASLEEP.  IF THE FCADR IN THE
000298:                                                                                                  #  LOC REGISTER OF ANY SUCH JOB MATCHES THAT SUPPLIED BY THE CALLER, THAT JOB IS AWAKENED.  IF NO JOB IS FOUND,
000299:                                                                                                  #  LOCCTR IS SET TO -1 AND NO FURTHER ACTION TAKES PLACE.
000300:
000301: 01,3024           54061        JOBWAKE2           TS       EXECTEM1
000302: 01,3025           34755                           CAF      ZERO                                  #  BEGIN CORE SET SCAN
000303: 01,3026           54064                           TS       LOCCTR
000304: 01,3027           32635                           CAF      NO.CORES
000305: 01,3030           54062        JOBWAKE4           TS       EXECTEM2
000306: 01,3031           50064                           INDEX    LOCCTR
000307: 01,3032           10167                           CCS      PRIORITY
000308: 01,3033           13036                           TCF      JOBWAKE3                              #  ACTIVE JOB -- CHECK NEXT CORE SET.
000309: 01,3034           00014        COREINC            DEC      12         B-14                       #  12 REGISTERS PER CORE SET.
000310: 01,3035           13045                           TCF      WAKETEST                              #  SLEEPING JOB -- SEE IF CADR MATCHES.
000311:
000312: 01,3036           33034        JOBWAKE3           CAF      COREINC
000313: 01,3037           26064                           ADS      LOCCTR
000314: 01,3040           10062                           CCS      EXECTEM2
000315: 01,3041           13030                           TCF      JOBWAKE4
000316: 01,3042           44753                           CS       ONE                                   #  EXIT IF SLEEPIN JOB NOT FOUND.
000317: 01,3043           54064                           TS       LOCCTR
000318: 01,3044           15160                           TCF      ENDFIND
000319:
000320: 01,3045           40065        WAKETEST           CS       NEWLOC
000321: 01,3046           50064                           INDEX    LOCCTR
000322: 01,3047           60164                           AD       LOC
000323: 01,3050           00006                           EXTEND
000324: 01,3051           13053                           BZF      +2                                    #  IF MATCH.
000325: 01,3052           13036                           TCF      JOBWAKE3                              #  EXAMINE NEXT CORE SET IF NO MATCH.
000326:
000327: 01,3053           50064                           INDEX    LOCCTR                                #  RE-COMPLEMENT PRIORITY TO SHOW JOB AWAKE
000328: 01,3054           40167                           CS       PRIORITY
000329: 01,3055           54063                           TS       NEWPRIO
000330: 01,3056           50064                           INDEX    LOCCTR
000331: 01,3057           54167                           TS       PRIORITY
000332:
000333: 01,3060           44350                           CS       FBANKMSK                              #  MASK UP THE 2CADR OF THE WAKE ADDRESS
000334: 01,3061           70065                           MASK     NEWLOC                                #  USING THE CADR IN NEWLOC AND THE EBANK
000335: 01,3062           64741                           AD       2K                                    #  HALF OF BBANK SAVED IN BANKSET.
000336: 01,3063           56065                           XCH      NEWLOC
000337: 01,3064           74350                           MASK     FBANKMSK
000338: 01,3065           50064                           INDEX    LOCCTR
000339: 01,3066           60165                           AD       BANKSET
000340: 01,3067           54066                           TS       NEWLOC     +1
000341:
000342: 01,3070           10064                           CCS      LOCCTR                                #  SPECIAL TREATMENT IF THIS JOB WAS
000343: 01,3071           12662                           TCF      SETLOC                                #  ALREADY IN THE RUN (0) POSITION.
000344: 01,3072           12652                           TCF      SPECTEST
000345:


000347:                                                                                                  #  PRIORITY CHANGE.  CHANGE THE CONTENTS OF PRIORITY AND SCAN FOR THE JOB OF HIGHEST PRIORITY.
000348:
000349: 01,3073           54164        PRIOCH2            TS       LOC
000350: 01,3074           34755                           CAF      ZERO                                  #  SET FLAG TO TELL ENDJOB SCANNER IF THIS
000351: 01,3075           54130                           TS       BUF                                   #  JOB IS STILL HIGHEST PRIORITY.
000352: 01,3076           35004                           CAF      LOW9
000353: 01,3077           70167                           MASK     PRIORITY
000354: 01,3100           60063                           AD       NEWPRIO
000355: 01,3101           54167                           TS       PRIORITY
000356: 01,3102           40000                           COM
000357: 01,3103           13010                           TCF      JOBSLP2                               #  AND TO EJSCAN.
000358:


000360:                                                                                                  #  RELEASE THIS CORE SET AND VAC AREA AND SCAN FOR THE JOB OF HIGHEST ACTIVE PRIORITY.
000361:
000362: 01,3104           00004        ENDJOB1            INHINT
000363: 01,3105           44755                           CS       ZERO
000364: 01,3106           54131                           TS       BUF        +1
000365: 01,3107           56167                           XCH      PRIORITY
000366: 01,3110           75004                           MASK     LOW9
000367: 01,3111           54001                           TS       L
000368:
000369: 01,3112           45164                           CS       FAKEPRET
000370: 01,3113           60001                           AD       L
000371:
000372: 01,3114           00006                           EXTEND
000373: 01,3115           63121                           BZMF     EJSCAN                                #  NOVAC ENDOFJOB
000374:
000375: 01,3116           10001                           CCS      L
000376: 01,3117           50000                           INDEX    A
000377: 01,3120           54000                           TS       0
000378:
000379: 01,3121           10203        EJSCAN             CCS      PRIORITY   +12D
000380: 01,3122           03172                           TC       EJ1
000381: 01,3123           05675                           TC       CCSHOLE
000382: 01,3124           13125                           TCF      +1
000383:
000384: 01,3125           10217                           CCS      PRIORITY   +24D                       #  EXAMINE EACH PRIORITY REGISTER TO FIND
000385: 01,3126           03172                           TC       EJ1                                   #  THE JOB OF HIGHEST ACTIVE PRIORITY.
000386: 01,3127           05675                           TC       CCSHOLE
000387: 01,3130           13131                           TCF      +1
000388:
000389: 01,3131           10233                           CCS      PRIORITY   +36D
000390: 01,3132           03172                           TC       EJ1
000391: 01,3133           67610        -CCSPR             -CCS     PRIORITY
000392: 01,3134           13135                           TCF      +1
000393:
000394: 01,3135           10247                           CCS      PRIORITY   +48D
000395: 01,3136           03172                           TC       EJ1
000396: 01,3137           05675                           TC       CCSHOLE
000397: 01,3140           13141                           TCF      +1
000398:
000399: 01,3141           10263                           CCS      PRIORITY   +60D
000400: 01,3142           03172                           TC       EJ1
000401: 01,3143           05675                           TC       CCSHOLE
000402: 01,3144           13145                           TCF      +1
000403:
000404: 01,3145           10277                           CCS      PRIORITY   +72D
000405: 01,3146           03172                           TC       EJ1
000406: 01,3147           05675                           TC       CCSHOLE
000407: 01,3150           13151                           TCF      +1
000408:
000409: 01,3151           10313                           CCS      PRIORITY   +84D


000411: 01,3152           03172                           TC       EJ1
000412: 01,3153           05675                           TC       CCSHOLE
000413: 01,3154           13155                           TCF      +1
000414:


000416:                                                                                                  #  EVALUATE THE RESULTS OF THE SCAN.
000417:
000418: 01,3155           10131                           CCS      BUF        +1                         #  SEE IF THERE ARE ANY ACTIVE JOBS WAITING
000419: 01,3156           05675                           TC       CCSHOLE
000420: 01,3157           05675                           TC       CCSHOLE
000421:
000422: 01,3160           13162                           TCF      +2
000423: 01,3161           13207                           TCF      DUMMYJOB
000424: 01,3162           10130                           CCS      BUF                                   #  BUF IS ZERO IS THIS IS A PRIOCHNG AND
000425: 01,3163           13165                           TCF      +2                                    #  CHANGED PRIORITY IS STILL HIGHEST.
000426: 01,3164           12765                           TCF      ENDPRCHG   -1
000427:
000428: 01,3165           50000                           INDEX    A                                     #  OTHERWISE, SE NEWJOB TO THE RELATIVE
000429: 01,3166           27777                           CAF      0          -1                         #  ADDRESS OF THE NEW JOB'S CORE SET.
000430: 01,3167           63133                           AD       -CCSPR
000431: 01,3170           54067                           TS       NEWJOB
000432: 01,3171           12705                           TCF      CHANJOB    -2
000433:
000434: 01,3172           54132        EJ1                TS       BUF        +2
000435: 01,3173           60131                           AD       BUF        +1                         #  - OLD HIGH PRIORITY.
000436: 01,3174           10000                           CCS      A
000437: 01,3175           40132                           CS       BUF        +2
000438: 01,3176           13202                           TCF      EJ2                                   #  NEW HIGH PRIORITY.
000439: 01,3177           13200                           NOOP
000440: 01,3200           50002                           INDEX    Q
000441: 01,3201           00002                           TC       2                                     #  PROCEED WITH SEARCH.
000442:
000443: 01,3202           54131        EJ2                TS       BUF        +1
000444: 01,3203           00006                           EXTEND
000445: 01,3204           22130                           QXCH     BUF                                   #  FOR LOCATING CCS PRIORITY + X INSTR.
000446: 01,3205           50130                           INDEX    BUF
000447: 01,3206           00002                           TC       2
000448:


000450:                                                                                                  #  IDLING AND COMPUTER ACTIVITY (GREEN) LIGHT MAINTENANCE. THE IDLING ROUTIEN IS NOT A JOB IN ITSELF,
000451:                                                                                                  #  BUT RATHER A SUBROUTINE OF THE EXECUTIVE.
000452:
000453: 01,3207     1361                                  EBANK=   SELFRET                               #  SELF-CHECK STORAE IN EBANK.
000454:
000455: 01,3207           44755        DUMMYJOB           CS       ZERO                                  #  SET NEWJOB TO -0 FOR IDLING.
000456: 01,3210           54067                           TS       NEWJOB
000457: 01,3211           00003                           RELINT
000458: 01,3212           44752                           CS       TWO                                   #  TURN OFF THE ACTIVITY LIGHT.
000459: 01,3213           00006                           EXTEND
000460: 01,3214           03011                           WAND     DSALMOUT
000461: 01,3215           10067        ADVAN              CCS      NEWJOB                                #  IS THE NEWJOB ACTIVE?
000462: 01,3216           13012                           TCF      NUCHANG2                              #  YES... ONE REQUIRING A CHANGE JOB.
000463: 01,3217           34752                           CAF      TWO                                   #  NEW JOB ALREADY IN POSITION FOR
000464: 01,3220           13226                           TCF      NUDIRECT                              #  EXECUTION
000465:
000466: 01,3221           31361                           CA       SELFRET
000467: 01,3222           54001                           TS       L                                     #  PUT RETURN ADDRESS IN L.
000468: 01,3223           33225                           CAF      SELFBANK
000469: 01,3224           15166                           TCF      SUPDXCHZ   +1                         #  AND DISPATCH JOB.
000470:
000471: 01,3225     1361                                  EBANK=   SELFRET
000472: 01,3225           66102        SELFBANK           BBCON    SELFCHK
000473:
000474: 01,3226           00006        NUDIRECT           EXTEND                                         #  TURN THE GREEN LIGHT BACK ON.
000475: 01,3227           05011                           WOR      DSALMOUT
000476: 01,3230           52165                           DXCH     LOC                                   #  JOBS STARTED IN THIS FASHION MUST BE
000477: 01,3231           15165                           TCF      SUPDXCHZ
000478:
000479:    5165                                           BLOCK    2                                     #  IN FIXED-FIXED SO OTHERS MAY USE.
000480:
000481:    5165                                           COUNT*   $$/EXEC
000482:
000483:                                                                                                  #  SUPDXCHZ -- ROUTINE TO TRANSFER TO SUPEBANK.
000484:                                                                                                  #  CALLING SEQUENCE:
000485:                                                                                                  #                TCF     SUPDXCHZ        # WITH 2CADR OF DESIRED LOCATION IN A + l.
000486:
000487:    5165           56001        SUPDXCHZ           XCH      L                                     #  BASIC.
000488:    5166           00006                 +1        EXTEND
000489:    5167           01007                           WRITE    SUPERBNK
000490:    5170           54006                           TS       BBANK
000491:    5171           00001                           TC       L
000492:
000493:    5172           77677        NEG100             OCT      77677
000494:

End of include-file EXECUTIVE.agc.  Parent file is MAIN.agc


