
Source Code
000001:                                                                                                 #  Copyright:     Public domain.
000002:                                                                                                 #  Filename:      EXTENDED_VERBS.agc
000003:                                                                                                 #  Purpose:       A section of Luminary 1C, revision 131.
000004:                                                                                                 #                 It is part of the source code for the Lunar Module's (LM)
000005:                                                                                                 #                 Apollo Guidance Computer (AGC) for Apollo 13 and Apollo 14.
000006:                                                                                                 #                 This file is intended to be a faithful transcription, except
000007:                                                                                                 #                 that the code format has been changed to conform to the
000008:                                                                                                 #                 requirements of the yaYUL assembler rather than the
000009:                                                                                                 #                 original YUL assembler.
000010:                                                                                                 #  Reference:     pp. 268-307 of 1729.pdf.
000011:                                                                                                 #  Contact:       Ron Burkey <info@sandroid.org>.
000012:                                                                                                 #  Website:       www.ibiblio.org/apollo/index.html
000013:                                                                                                 #  Mod history:   05/08/03 RSB.   Began transcribing.
000014:                                                                                                 #                 05/14/05 RSB    Corrected website reference above.
000015:
000016:                                                                                                 #  Page 268
000017: 07,2666                                          BANK     7
000018: 43,2000                                          SETLOC   EXTVERBS
000019: 43,2000                                          BANK
000020:
000021: 43,2000  E5,1737                                 EBANK=   OGC
000022:
000023: 43,2000                                          COUNT*   $$/EXTVB
000024:
000025:                                                                                                 #  FAN-OUT
000026:
000027: 43,2000           50154        GOEXTVB           INDEX    MPAC                                  #  VERB-40 IS IN MPAC
000028: 43,2001           02002                          TC       LST2FAN                               #  FAN AS BEFROE.
000029:
000030: 43,2002           02126        LST2FAN           TC       VBZERO                                #  VB40 ZERO (USED WITH NOUN 20 OR 72 ONLY)
000031: 43,2003           02200                          TC       VBCOARK                               #  VB41 COARSE ALIGN (USED WITH NOUN 20 OR
000032:                                                                                                 #                                 72 ONLY)
000033: 43,2004           02371                          TC       IMUFINEK                              #  VB42 FINE ALIGN IMU
000034: 43,2005           02733                          TC       IMUATTCK                              #  VB43 LOAD IMU ATTITUDE ERROR METERS.
000035: 43,2006           02305                          TC       RRDESEND                              #  VB44 TERMINATE CONTINUOUS DESIGNATE
000036: 43,2007           02116                          TC       ALM/END                               #  VB45 SPARE
000037: 43,2010           02116                          TC       ALM/END                               #  VB46 SPARE
000038: 43,2011           02430                          TC       V47TXACT                              #  VB47 AGS INITIALIZATION
000039: 43,2012           03156                          TC       DAPDISP                               #  VB48 LOAD A/P DATA
000040: 43,2013           13036                          TCF      CREWMANU                              #  VB49 START AUTOMATIC ATTITUDE MANEUVER
000041: 43,2014           02422                          TC       GOLOADLV                              #  VB50 PLEASE PERFORM
000042: 43,2015           02116                          TC       ALM/END                               #  VB51 SPARE
000043: 43,2016           02422                          TC       GOLOADLV                              #  VB52 PLEASE MARK X -- RETICLE.
000044: 43,2017           02422                          TC       GOLOADLV                              #  VB53 PLEASE MARK Y -- RETICLE.
000045: 43,2020           02422                          TC       GOLOADLV                              #  VB54 PLEASE MARK X OR Y RETICLE
000046: 43,2021           02442                          TC       ALINTIME                              #  VB55 ALIGN TIME
000047: 43,2022           03045                          TC       TRMTRACK                              #  VB56 TERMINATE TRACKING -- P20 + P25
000048: 43,2023           02325                          TC       LRON                                  #  VB57 PERMIT LANDING RADAR UPDATES
000049: 43,2024           02366                          TC       LROFF                                 #  VB58 INHIBIT LANDING RADAR UPDATES
000050: 43,2025           02147                          TC       LRPOS2K                               #  VB59 COMMAND LR TO POSITION 2
000051: 43,2026           02175                          TC       RATEDISP                              #  VB60 DISPLAY DAP ESTIMATED RATES
000052: 43,2027           02165                          TC       DAPATTER                              #  VB61 DISPLAY DAP ATTITUDE ERROR
000053: 43,2030           02170                          TC       TOTATTER                              #  VB62 DISPLAY TOTAL ATTITUDE ERROR
000054: 43,2031           02455                          TC       R04                                   #  VB63 SAMPLE RADAR ONCE PER SECOND
000055: 43,2032           02725                          TC       VB64                                  #  VB64 CALCULATE, DISPLAY S-BAND ANT ANGLES
000056: 43,2033           03246                          TC       SNUFFOUT                              #  VB65 DISABLE U,V JETS DURING DPS BURNS
000057: 43,2034           03163                          TC       ATTACHED                              #  VB66 ATTACHED          MOVE THIS TO OTHER STATE
000058: 43,2035           03240                          TC       V67                                   #  VB67 W MATRIX MONITOR
000059: 43,2036           02116                          TC       ALM/END                               #  VB68 SPARE
000060: 43,2037           02037        VERB69            TC       VERB69                                #  VB69 FORCE A HARDWARE RESTART
000061: 43,2040           03751                          TC       V70UPDAT                              #  VB70 UPDATE LIFTOFF TIME.
000062: 43,2041           03753                          TC       V71UPDAT                              #  VB71 UNIVERSAL UPDATE -- BLOCK ADDRESS
000063: 43,2042           03755                          TC       V72UPDAT                              #  VB72 UNIVERSAL UPDATE -- SINGLE ADDRESS
000064: 43,2043           03757                          TC       V73UPDAT                              #  VB73 UPDATE AGC TIME (OCTAL)
000065: 43,2044           03066                          TC       DNEDUMP                               #  VB74 INITIALIZE DOWN-TELEMETRY PROGRAM
000066:                                                                                                 #         FOR ERASABLE DUMP.
000067: 43,2045           03251                          TC       OUTSNUFF                              #  VB75 ENABLE U,V JETS DURING DPS BURNS.
000068:                                                                                                 #  Page 269
000069: 43,2046           03025                          TC       MINIMP                                #  VB76 MINIMUM IMPULSE MODE
000070: 43,2047           03030                          TC       NOMINIMP                              #  VB77 RATE COMMAND MODE
000071: 43,2050           02445                          TC       R77                                   #  VB78 START LR SPURIOUS RETURN TEST
000072: 43,2051           02655                          TC       R77END                                #  VB79 TERMINATE LR SPURIOUS RETURN TEST
000073: 43,2052           03072                          TC       LEMVEC                                #  VB80 UPDATE LEM STATE VECTOR
000074: 43,2053           03075                          TC       CSMVEC                                #  VB81 UPDATE CSM STATE VECTOR
000075: 43,2054           02772                          TC       V82PERF                               #  VB82 REQUEST ORBIT PARAM DISPLAY (R30)
000076: 43,2055           03002                          TC       V83PERF                               #  VB83 REQUEST REND PARAM DISPLAY (R31)
000077: 43,2056           02116                          TC       ALM/END                               #  VB84 SPARE
000078: 43,2057           03254                          TC       VERB85                                #  VB85 DISPLAY RR LOS AZ AND ELEV
000079: 43,2060           02116                          TC       ALM/END                               #  VB86 SPARE
000080: 43,2061           02116                          TC       ALM/END                               #  VB87 SPARE
000081: 43,2062           02116                          TC       ALM/END                               #  VB88 SPARE
000082: 43,2063           03010                          TC       V89PERF                               #  VB89 ALIGN XORZ LEM AXIS ALONG LOS (R63)
000083: 43,2064           03017                          TC       V90PERF                               #  VB 90 OUT OF PLANE RENDEZVOUS DISPLAY
000084: 43,2065           03121                          TC       GOSHOSUM                              #  VB91 DISPLAY BANK SUM.
000085: 43,2066           03105                          TC       SYSTEST                               #  VB92 OPERAT IMU PERFORMANCE TEST.
000086: 43,2067           03114                          TC       WMATRXNG                              #  VB93 CLEAR RENDWFLG
000087: 43,2070           02116                          TC       ALM/END                               #  VB94 SPARE
000088: 43,2071           03102                          TC       UPDATOFF                              #  VB95 NO STATE VECTOR UPDATE ALLOWED
000089: 43,2072           03233                          TC       VERB96                                #  VB96 INTERRUPT INTEGRATION AND GO TO P00
000090: 43,2073           02422                          TC       GOLOADLV                              #  VB97 PLEASE VERIFY ENGINE FAILURE
000091: 43,2074           02116                          TC       ALM/END                               #  VB98 SPARE
000092: 43,2075           02422                          TC       GOLOADLV                              #  VB99 PLEASE ENABLE ENGINE
000093:
000094:                                                                                                 #  END OF EXTENDED VERB FAN
000095:
000096: 43,2076           11043        TESTXACT          CCS      EXTVBACT                              #  ARE EXTENDED VERBS BUSY
000097: 43,2077           02116                          TC       ALM/END                               #  YES, TURN ON OPERATOR LIGHT
000098: 43,2100           30100                          CA       FLAGWRD4                              #  ARE PRIORITY DISPLAYS USING DSKY
000099: 43,2101           72125                          MASK     OC24100
000100: 43,2102           10000                          CCS      A
000101: 43,2103           02116                          TC       ALM/END                               #  YES
000102: 43,2104           34362                          CAF      OCT25                                 #  SET BITS 1, 3, AND 5
000103: 43,2105           55043        SETXTACT          TS       EXTVBACT                              #  NO.  SET FLAG TO SHOW EXT VERB DISPLAY
000104:                                                                                                 #  SYSTEM BUSY
000105:
000106: 43,2106           30002                          CA       Q
000107: 43,2107           54155                          TS       MPAC       +1
000108:
000109: 43,2110           44752                          CS       TWO                                   #  BLANK EVERYTHING EXCEPT MM AND VERB
000110: 43,2111           04154                          TC       NVSUB
000111: 43,2112           02113                          TC       +1
000112: 43,2113           10067                          CCS      NEWJOB
000113: 43,2114           05122                          TC       CHANG1
000114:
000115: 43,2115           00155                          TC       MPAC       +1
000116:
000117: 43,2116     5472               TERMEXTV          EQUALS   ENDEXT
000118:                                                                                                 #  Page 270
000119: 43,2116     5472               ENDEXTVB          EQUALS   ENDEXT
000120:
000121: 43,2116           04364        ALM/END           TC       FALTON                                #  TURN ON OPERATOR ERROR LIGHT
000122: 43,2117           04635        GOPIN             TC       POSTJUMP
000123: 43,2120           21051                          CADR     PINBRNCH
000124:
000125: 43,2121           31010        CHKP00H           CA       MODREG                                #  CHECK FOR P00 OR P00-.
000126: 43,2122           00006                          EXTEND
000127: 43,2123           16745                          BZF      TCQ
000128: 43,2124           02116                          TC       ALM/END
000129:
000130: 43,2125           24100        OC24100           OCT      24100
000131:
000132:                                                                                                 #  Page 271
000133:                                                                                                 #  VBZERO VERB 40         DESCRIPTION
000134:
000135:                                                                                                 #         1.      REQUIRE NOUN 20 (ICDU ANGLES) OR NOUN 72 (RCDU ANGLES).
000136:                                                                                                 #         2.      FOR N20, CHECK IMUCADR IN AN EFFORT TO AVOID A 1210 RESTART.
000137:                                                                                                 #                 FOR N72, CHECK IF EITHER RADAR IS IN USE.
000138:                                                                                                 #         3.      EXECUTE THE CDU ZERO.
000139:                                                                                                 #         4.      STALL UNTIL THE ZERO IS DONE.
000140:                                                                                                 #         5.      DON'T DIFFERENTIATE BETWEEN A BAD OR GOOD RETURN.
000141:                                                                                                 #         6.      EXIT, RE-ESTABLISHING THE INTERRUPTED DISPLAY (IF ANY).
000142:
000143: 43,2126           02203        VBZERO            TC       OP/INERT
000144: 43,2127           02131                          TC       IMUZEROK                              #  RETURN HERE IF NOUN = ICDU(20)
000145: 43,2130           02140                          TC       RRZEROK                               #  RETURN HERE IF NOUN = RCDU(72)
000146: 43,2131           02436        IMUZEROK          TC       CKMODCAD
000147: 43,2132           04616                          TC       BANKCALL                              #  KEYBOARD REQ FOR ISS CDUZERO
000148: 43,2133           16705                          CADR     IMUZERO
000149:
000150: 43,2134           04616                          TC       BANKCALL                              #  STALL
000151: 43,2135           17707                          CADR     IMUSTALL
000152: 43,2136           02137                          TC       +1
000153:
000154: 43,2137           02117                          TC       GOPIN                                 #  IMUZERO
000155:
000156: 43,2140           02700        RRZEROK           TC       RDRUSECK
000157: 43,2141           04616                          TC       BANKCALL
000158: 43,2142           52354                          CADR     RRZERO
000159:
000160: 43,2143           04616        RWAITK            TC       BANKCALL
000161: 43,2144           17705                          CADR     RADSTALL
000162: 43,2145           12146                          TCF      +1
000163: 43,2146           02117                          TC       GOPIN                                 #  RRZERO
000164:
000165:                                                                                                 #  LRPOS2K        VERB 59         DESCRIPTION
000166:                                                                                                 #         COMMAND LANDING RADAR TO POSITION 2
000167:
000168:                                                                                                 #         1.      EXIT WITH OP ERROR IF SOMEONE IS USING EITHER RADAR.
000169:                                                                                                 #         2.      ALARM WITH CODE 523 IF POS 2 IS NOT INDICATED WITHIN
000170:                                                                                                 #                 THE PRESCRIBED TIME.
000171:                                                                                                 #         3.      RE-ESTABLISH THE DISPLAYS.
000172:
000173: 43,2147           06042        LRPOS2K           TC       INTPRET
000174: 43,2150           77614                          BOFF                                           #  IF AVG G ON?
000175: 43,2151           03752                                   AVEGFLAG
000176: 43,2152           66161                                   LRPOS2K1                              #  NO
000177: 43,2153           77776                          EXIT                                           #  YES: IS P63 GOING?
000178: 43,2154           05321                          TC       CHECKMM
000179: 43,2155           00077                          DEC      63         B-14
000180: 43,2156           12162                          TCF      LRPOS2K1   +1                         #  NO: COMMAND LR TO POS2
000181: 43,2157           04616                          TC       BANKCALL
000182: 43,2160           53541                          CADR     V59GP63                               #  YES: GO SET UP HIGATE JOB
000183: 43,2161           77776        LRPOS2K1          EXIT
000184:                                                                                                 #  Page 272
000185: 43,2162           02700                          TC       RDRUSECK                              #  CHECK USE OF LR
000186: 43,2163           04616                          TC       BANKCALL
000187: 43,2164           53531                          CADR     LRP2COMM                              #  COMMAND LR TO POS2
000188:
000189:                                                                                                 #  V61    VERB 61, DISPLAY DAP ATTITUDE ERRORS ON FDAI ATTITUDE ERROR NEEDLES.
000190:
000191: 43,2165           05516        DAPATTER          TC       DOWNFLAG
000192: 43,2166           00013                          ADRES    NEEDLFLG
000193: 43,2167           12172                          TCF      TOTATTER   +2
000194:
000195:                                                                                                 #  V62    VERB 62, DISPLAY TOTAL ATTITUDE ERRORS ON FDAI ATTITUDE ERROR NEEDLES.
000196:
000197: 43,2170           05504        TOTATTER          TC       UPFLAG
000198: 43,2171           00013                          ADRES    NEEDLFLG
000199: 43,2172           05516                 +2       TC       DOWNFLAG
000200: 43,2173           00000                          ADRES    NEED2FLG
000201: 43,2174           02117                          TC       GOPIN
000202:
000203:                                                                                                 #  V60    VERB 60, DISPLAY DAP ESTIMATED RATES ON FDAI ATTITUDE ERROR NEEDLES.
000204:
000205: 43,2175           05504        RATEDISP          TC       UPFLAG
000206: 43,2176           00000                          ADRES    NEED2FLG
000207: 43,2177           02117                          TC       GOPIN
000208:
000209:                                                                                                 #  Page 273
000210:                                                                                                 #  VBCOARK        VERB 41         DESCRIPTION
000211:                                                                                                 #         COARSE ALIGN IMU OR RADAR
000212:
000213:                                                                                                 #         1.      REQUIRE NOUN 20 OR NOUN 72 OR TURN ON OPERATOR ERROR.
000214:                                                                                                 #         2.      REQUIRE EXT VERB DISPLAY SYS AVAILABLE OR TURN ON OPERATOR ERROR LIGHT AND GO TO PINBRNCH.
000215:                                                                                                 #                                 *** CASE 1, NOUN 20 (ICDU ANGLES) ***
000216:                                                                                                 #         3.      SET EXT VERB DISPLAY ACTIVE FLAG.
000217:                                                                                                 #         4.      DISPLAY FLASHING V25,N22 (LOAD NEW ICDU ANGLES).
000218:                                                                                                 #                 RESPONSES
000219:                                                                                                 #                 A.      TERMINATE
000220:                                                                                                 #                         1.      RELEASE EXT VERB DISPLAY SYSTEM.
000221:                                                                                                 #                 B.      PROCEED
000222:                                                                                                 #                         1.      COARSE ALIGN TO THE EXISTING THETAD'S (ICORK2).
000223:                                                                                                 #                 C.      ENTER
000224:                                                                                                 #                         1.      COARSE ALIGN TO THE LOADED THETAD'S (ICORK2).
000225:                                                                                                 #  ICORK2
000226:                                                                                                 #         1.      RE-DISPLAY VERB 41.
000227:                                                                                                 #         2.      EXECUTE IMUCCARS (IMU COARSE ALIGN).
000228:                                                                                                 #         3.      EXECUTE IMUSTALL (ALLOW TIME FOR DATA TRANSFER).
000229:                                                                                                 #         4.      RELEASE EXT VERB DISPLAY SYSTEM.
000230:                                                                                                 #                         *** CASE 2, NOUN 72 (RCDU ANGLES) ***
000231:                                                                                                 #                 EXIT WITH OP ERROR IF SOMEONE IS USING EITHER RADAD.
000232:                                                                                                 #         5.      DISPLAY FLASHING V24, N73 (LOAD NEW RR TRUNNION ANGLE AND NEW SHAFT ANGLE).
000233:                                                                                                 #                 RESPONSES
000234:                                                                                                 #                 A.      TERMINATE
000235:                                                                                                 #                         1.      RELEASE EXT VERB DISPLAY SYS.
000236:                                                                                                 #                 B.      PROCEED OR ENTER
000237:                                                                                                 #                         1.      EXECUTE AURLOKON (ASK OPERATOR FOR LOCK-ON REQUIREMENTS).
000238:                                                                                                 #                         2.      RE-DISPLAY VERB 41
000239:                                                                                                 #                         3.      SCHEDULE RRDESK2 WITH PRIORITY 20.
000240:                                                                                                 #                         4.      RELEASE EXT VERB DISPLAY SYS.
000241:                                                                                                 #  AURLOKON
000242:                                                                                                 #         1.      FLASH V04 N12 R1 = 00006 R2 = 00002
000243:                                                                                                 #                 RESPONSES
000244:                                                                                                 #                 A.      TERMINATE
000245:                                                                                                 #                 B.      PROCEED
000246:                                                                                                 #                         1.      RESET LOCK-ON SWITCH.
000247:                                                                                                 #                         2.      SET CONTINUOUS DESIGNATE FLAG
000248:                                                                                                 #                         3.      DISABLE R25
000249:                                                                                                 #                 C.      V22 E 1 E, R1 = 00001, PROCEED
000250:                                                                                                 #                         1.      SET LOCK-ON SWITCH
000251:
000252: 43,2200           02203        VBCOARK           TC       OP/INERT
000253: 43,2201           02214                          TC       IMUCOARK                              #  RETURN HERE IF NOUN = ICDU (20)
000254: 43,2202           02236                          TC       RRDESNBK                              #  RETURN HERE IF NOUN = RCDU (72)
000255:
000256:                                                                                                 #  RETURNS TO L+1 IF IMU OR L+2 IF RR.
000257:
000258: 43,2203           46007        OP/INERT          CS       OCT24
000259: 43,2204           61001                          AD       NOUNREG
000260: 43,2205           00006                          EXTEND
000261:                                                                                                 #  Page 274
000262: 43,2206           16745                          BZF      TCQ                                   #  IF = 20.
000263:
000264: 43,2207           62213                          AD       RRIMUDIF                              #  -52
000265: 43,2210           00006                          EXTEND
000266: 43,2211           16742                          BZF      Q+1
000267:
000268: 43,2212           02116                          TC       ALM/END                               #  ILLEGAL.
000269:
000270: 43,2213           77713        RRIMUDIF          DEC      -52        B-14                       #  THE IMU
000271: 43,2214           02436        IMUCOARK          TC       CKMODCAD
000272: 43,2215           02076                          TC       TESTXACT                              #  COARSE ALIGN FROM KEYBOARD.
000273: 43,2216           32234                          CAF      VNLODCDU                              #  CALL FOR THETAD LOAD
000274: 43,2217           04616                          TC       BANKCALL
000275: 43,2220           20334                          CADR     GOXDSPF
000276: 43,2221           05472                          TC       TERMEXTV
000277: 43,2222           12223                          TCF      +1
000278:
000279: 43,2223           32235        ICORK2            CAF      IMUCOARV                              #  RE-DISPLAY COARSE ALIGN VERB
000280: 43,2224           04616                          TC       BANKCALL
000281: 43,2225           20621                          CADR     EXDSPRET
000282:
000283: 43,2226           04616                          TC       BANKCALL                              #  CALL MODE SWITCHING PROG
000284: 43,2227           16771                          CADR     IMUCOARS
000285:
000286: 43,2230           04616                          TC       BANKCALL                              #  STALL
000287: 43,2231           17707                          CADR     IMUSTALL
000288: 43,2232           05472                          TC       ENDEXTVB
000289: 43,2233           05472                          TC       ENDEXTVB
000290:
000291: 43,2234           06226        VNLODCDU          VN       2522
000292: 43,2235           12200        IMUCOARV          VN       4100
000293:
000294:                                                                                                 #  Page 275
000295:                                                                                                 #  DESIGNATE TO DESIRED GIMBAL ANGLES.
000296:
000297: 43,2236           02700        RRDESNBK          TC       RDRUSECK
000298: 43,2237           02076                          TC       TESTXACT
000299: 43,2240           42324                          CS       OCT41000                              #  TERMINATE PRESENT DESIGNATION
000300: 43,2241           00004                          INHINT                                         #  RELINT DONE IN GOXDSPF
000301: 43,2242           70110                          MASK     RADMODES
000302: 43,2243           54110                          TS       RADMODES
000303:
000304: 43,2244           32263                          CAF      VNLDRCDU                              #  ASK FOR GIMBAL ANGLES.
000305: 43,2245           04616                          TC       BANKCALL
000306: 43,2246           20334                          CADR     GOXDSPF
000307: 43,2247           05472                          TC       TERMEXTV
000308: 43,2250           12244                          TCF      -4                                    #  V33
000309:
000310: 43,2251           04616                          TC       BANKCALL                              #  ASK OP FOR LOCK ON REQUIREMENTS.
000311: 43,2252           46000                          CADR     AURLOKON
000312:
000313: 43,2253           32235                          CAF      OPTCOARV                              #  RE-DISPLAY OUR OWN VERB
000314: 43,2254           04616                          TC       BANKCALL
000315: 43,2255           20621                          CADR     EXDSPRET
000316:
000317: 43,2256           34736                          CAF      PRIO20
000318: 43,2257           05105                          TC       FINDVAC
000319: 43,2260  E7,1456                                 EBANK=   LOSCOUNT
000320: 43,2260           02264 66107                    2CADR    RRDESK2
000321:
000322: 43,2262           15472                          TCF      TERMEXTV                              #  FREES DISPLAY
000323:
000324: 43,2263           06111        VNLDRCDU          VN       2473
000325: 43,2264  43,2235               OPTCOARV          EQUALS   IMUCOARV                              #  DIFFERENT NOUNS.
000326:
000327: 43,2264           04616        RRDESK2           TC       BANKCALL
000328: 43,2265           52506                          CADR     RRDESNB
000329:
000330: 43,2266           02267                          TC       +1                                    #  DUMMY NEEDED SINCE DESRETRN DOES INCR
000331: 43,2267           30167                          CA       PRIORITY
000332: 43,2270           75004                          MASK     LOW9
000333: 43,2271           10000                          CCS      A
000334: 43,2272           50000                          INDEX    A
000335: 43,2273           54000                          TS       A                                     #  RELEASE THIS JOB'S VAC AREA.
000336: 43,2274           40000                          COM                                            #  INSURE ENDOFJOB DOES A NOVAC END (BZMF).
000337: 43,2275           26167                          ADS      PRIORITY
000338: 43,2276           04616                          TC       BANKCALL                              #  WAIT FOR COMPLETION OF DESIGNATE
000339: 43,2277           17705                          CADR     RADSTALL
000340: 43,2300           02302                          TC       +2                                    #  BADEND -- NO LOCKON OR OUT OF LIMITS
000341: 43,2301           05155                          TC       ENDOFJOB                              #  GOODEND -- LOCKON ACHIEVED
000342: 43,2302           05567                          TC       ALARM
000343: 43,2303           00503                          OCT      503                                   #  TURN ON ALARM LIGHT -- 503 DESIGNATE FAIL
000344:                                                                                                 #  Page 276
000345: 43,2304           05155                          TC       ENDOFJOB
000346:
000347: 43,2305           10110        RRDESEND          CCS      RADMODES                              #  TERMINATE CONTINOUS DESIGNATE ONLY
000348: 43,2306           12117                          TCF      GOPIN
000349: 43,2307           12117                          TCF      GOPIN
000350: 43,2310           12311                          TCF      +1
000351: 43,2311           42324                          CS       OCT41000                              #  BEGDES GOES TO ENDRADAR
000352: 43,2312           00004                          INHINT                                         #  RELINT DONE IN DOWNFLAG
000353: 43,2313           70110                          MASK     RADMODES
000354: 43,2314           54110                          TS       RADMODES
000355: 43,2315           06011                          TC       CLRADMOD
000356: 43,2316           34777                          CAF      1SEC
000357: 43,2317           04616                          TC       BANKCALL
000358: 43,2320           01736                          CADR     DELAYJOB
000359: 43,2321           05516                          TC       DOWNFLAG                              #  ENABLE R25 GIMBAL MONITOR
000360: 43,2322           00126                          ADRES    NORRMON
000361: 43,2323           12117                          TCF      GOPIN
000362: 43,2324           41000        OCT41000          OCT      41000                                 #  CONTINOUS DESIGNATE -- DESIGNATE
000363:
000364:                                                                                                 #  Page 277
000365: 23,2000                                          BANK     23
000366: 23,2000                                          SETLOC   EXTVB1
000367: 23,2000                                          BANK
000368: 23,2000                                          COUNT*   $$/EXTVB
000369:
000370: 23,2000           04645        AURLOKON          TC       MAKECADR
000371: 23,2001           55112                          TS       DESRET
000372: 23,2002           34752                          CAF      TWO
000373: 23,2003           55051                          TS       OPTIONX    +1
000374: 23,2004           36245                          CAF      SIX                                   #  OPTION CODE FOR V04N12
000375: 23,2005           55050                          TS       OPTIONX
000376:
000377: 23,2006           32037                 -5       CAF      V04N1272
000378: 23,2007           04616                          TC       BANKCALL                              #  R2     00001   LOCK-ON
000379: 23,2010           20353                          CADR     GOMARKFR
000380: 23,2011           15472                          TCF      ENDEXT                                #  V34
000381: 23,2012           12017                          TCF      +5                                    #  V33
000382: 23,2013           12006                          TCF      -5                                    #  V32
000383: 23,2014           34751                          CAF      BIT3
000384: 23,2015           05464                          TC       BLANKET
000385: 23,2016           05155                          TC       ENDOFJOB
000386:
000387: 23,2017           31051                 +5       CA       OPTIONX    +1
000388: 23,2020           74752                          MASK     BIT2
000389: 23,2021           10000                          CCS      A
000390: 23,2022           12026                          TCF      NOLOKON
000391: 23,2023           05504                          TC       UPFLAG
000392: 23,2024           00012                          ADRES    LOKONSW
000393: 23,2025           12034                          TCF      AURLKON1
000394:
000395: 23,2026           05516        NOLOKON           TC       DOWNFLAG                              #  IF NO LOCK-ON, SET BIT15 OF RADMADES TO
000396: 23,2027           00012                          ADRES    LOKONSW                               #  INDICATE THAT CONTINUOUS DESIGNATION IS
000397: 23,2030           05504                          TC       UPFLAG                                #  WANTED (TO BE TERMINATED BY V44.)
000398: 23,2031           00264                          ADRES    CDESFLAG
000399: 23,2032           05504                          TC       UPFLAG                                #  SET NO RR ANGLE MONITOR FLAG.
000400: 23,2033           00126                          ADRES    NORRMON                               #  DISABLE R25 RR GIMBAL MONITOR IN T4RUPT
000401: 23,2034           00003        AURLKON1          RELINT
000402: 23,2035           31112                          CA       DESRET
000403: 23,2036           14640                          TCF      BANKJUMP
000404:
000405: 23,2037           01014        V04N1272          VN       412
000406: 23,2040           77757        -LOKONFG          OCT      -20
000407:
000408: 43,2325                                          BANK     43
000409: 43,2000                                          SETLOC   EXTVERBS
000410: 43,2000                                          BANK
000411: 43,2325                                          COUNT*   $$/EXTVB
000412:
000413: 43,2325           02076        LRON              TC       TESTXACT
000414:
000415:                                                                                                 #  Page 278
000416: 43,2326           32365        DSP68             CAF      V06N68
000417: 43,2327           04616                          TC       BANKCALL
000418: 43,2330           20353                          CADR     GOMARKFR
000419: 43,2331           02363                          TC       B1+5OFF
000420: 43,2332           02354                          TC       SET57
000421: 43,2333           05155                          TC       ENDOFJOB
000422:
000423: 43,2334           04616        WAIT68            TC       BANKCALL
000424: 43,2335           01735                          CADR     2SECDELY
000425:
000426: 43,2336           34361                          CAF      OCT21
000427: 43,2337           71043                          MASK     EXTVBACT
000428: 43,2340           00006                          EXTEND
000429: 43,2341           15472                          BZF      ENDEXT
000430:
000431: 43,2342           74747                          MASK     BIT5
000432: 43,2343           10000                          CCS      A
000433: 43,2344           12326                          TCF      DSP68
000434:
000435: 43,2345           32365        DSP5068           CAF      V50N68
000436: 43,2346           04616                          TC       BANKCALL
000437: 43,2347           20361                          CADR     GOMARK3R   -1
000438: 43,2350           12363                          TCF      B1+5OFF
000439: 43,2351           12363                          TCF      B1+5OFF
000440: 43,2352           12357                          TCF      RESET57
000441:
000442: 43,2353           12334                          TCF      WAIT68
000443:
000444: 43,2354           05504        SET57             TC       UPFLAG
000445: 43,2355           00254                          ADRES    LRINH
000446:
000447: 43,2356           15563                          TCF      B5OFF
000448:
000449: 43,2357           05516        RESET57           TC       DOWNFLAG
000450: 43,2360           00254                          ADRES    LRINH
000451:
000452: 43,2361           34362                          CAF      OCT25
000453: 43,2362           05565                          TC       B5OFF      +2
000454:
000455: 43,2363           44361        B1+5OFF           CS       OCT21
000456: 43,2364           15564                          TCF      B5OFF      +1
000457:
000458: 43,2365     4361               OCT21             EQUALS   ND1
000459:
000460: 43,2365           01504        V06N68            VN       0668
000461: 43,2366  43,2365               V50N68            =        V06N68
000462:
000463: 43,2366           05516        LROFF             TC       DOWNFLAG                              #  INHIBIT INCORPORATION OF LR(?) DATA    V58
000464: 43,2367           00254                          ADRES    LRINH
000465: 43,2370           12117                          TCF      GOPIN
000466:
000467:                                                                                                 #  Page 279
000468: 43,2371  E5,1737                                 EBANK=   OGC
000469:
000470:                                                                                                 #  Page 280
000471:                                                                                                 #  IMUFINEK       VERB 42         DESCRIPTION
000472:                                                                                                 #         FINE ALIGN IMU
000473:
000474:                                                                                                 #         1.      REQUIRE EXT VERB DISPLAY AVAILABLE AND SET BUSY FLAG OR TURN ON OPER ERROR AND GO TO PINBRNCH.
000475:                                                                                                 #         2.      DISPLAY FLASHING V25,N93....LOAD DELTA GYRO ANGLES....
000476:                                                                                                 #                 RESPONSES
000477:                                                                                                 #                 A.      TERMINATE
000478:                                                                                                 #                         1.      RELEASE EXT VERB DISPLAY SYSTEM.
000479:                                                                                                 #                 B.      PROCEED OR ENTER
000480:                                                                                                 #                         1.      RE-DISPLAY VERB 42
000481:                                                                                                 #                         2.      EXECUTE IMUFINE (IMU FIVE ALIGN MODE SWITCHING).
000482:                                                                                                 #                         3.      EXECUTE IMUSTALL (ALLOW FOR DATA TRANSFER)
000483:                                                                                                 #                                 A.      FAILED
000484:                                                                                                 #                                         1.      RELEASE EXT VERB DISPLAY SYSTEM.
000485:                                                                                                 #                                 B.      GOOD
000486:                                                                                                 #                                         1.      EXECUTE IMUPULSE (TORQUE IRIGS).
000487:                                                                                                 #                                         2.      EXECUTE IMUSTALL AND RELEASE EXT VERB DISPLAY SYSTEM.
000488:
000489: 43,2371           02436        IMUFINEK          TC       CKMODCAD
000490: 43,2372           02076                          TC       TESTXACT                              #  FINE ALIGN WITH GYRO TORQUING.
000491: 43,2373           32420                          CAF      VNLODGYR                              #  CALL FOR LOAD OF GYRO COMMANDS
000492: 43,2374           04616                          TC       BANKCALL
000493: 43,2375           20334                          CADR     GOXDSPF
000494: 43,2376           05472                          TC       TERMEXTV
000495: 43,2377           02400                          TC       +1                                    #  PROCEED WITHOUT A LOAD
000496:
000497: 43,2400           32421                          CAF      IMUFINEV                              #  RE-DISPLAY OUR OWN VERB
000498: 43,2401           04616                          TC       BANKCALL
000499: 43,2402           20621                          CADR     EXDSPRET
000500:
000501: 43,2403           04616                          TC       BANKCALL                              #  CALL MODE SWITCH PROG
000502: 43,2404           17201                          CADR     IMUFINE
000503:
000504: 43,2405           04616                          TC       BANKCALL                              #  HIBERNATION
000505: 43,2406           17707                          CADR     IMUSTALL
000506: 43,2407           05472                          TC       ENDEXTVB
000507:
000508: 43,2410           32417        FINEK2            CAF      LGYROBIN                              #  PINBALL LEFT COMMANDS IN OGC REGISTERS
000509: 43,2411           04616                          TC       BANKCALL
000510: 43,2412           17314                          CADR     IMUPULSE
000511:
000512: 43,2413           04616                          TC       BANKCALL                              #  WAIT FOR PULSES TO GET OUT.
000513: 43,2414           17707                          CADR     IMUSTALL
000514: 43,2415           05472                          TC       ENDEXTVB
000515: 43,2416           05472                          TC       ENDEXTVB
000516:
000517: 43,2417           02737        LGYROBIN          ECADR    OGC
000518: 43,2420           06335        VNLODGYR          VN       2593
000519: 43,2421           12400        IMUFINEV          VN       4200
000520:
000521:                                                                                                 #  GOLOADLV       VERB 50         DESCRIPTION
000522:                                                                                                 #         AND OTHER PLEASE
000523:                                                                                                 #  Page 281
000524:                                                                                                 #         DO SOMETHING VERBS
000525:
000526:                                                                                                 #  PLEASE PERFORM, MARK, CALIBRATE, ETC.
000527:
000528:                                                                                                 #         1.      PRESSING ENTER ON DSKY INDICATES REQUESTED ACTION HAS BEEN PERFORMED, AND THE PROGRAM DOES THE
000529:                                                                                                 #                 SAME RECALL AS A COMPLETED LOAD.
000530:                                                                                                 #         2.      THE EXECUTION OF A VERB 33 (PROCEED WITHOUT DATA) INDICATES THE REQUESTED ACTION IS NOT DESIRED.
000531:
000532:                                                                                                 #  Moved to below the 2CADR a few lines below here --- RSB 2004.
000533:                                                                                                 # SBANK=  PINSUPER        # FOR LOADLV1 AND SHOWSUM CADR'S
000534:
000535: 43,2422           04433        GOLOADLV          TC       FLASHOFF
000536:
000537: 43,2423           34201                          CAF      PINSUPBT
000538: 43,2424           00006                          EXTEND
000539: 43,2425           01007                          WRITE    SUPERBNK
000540: 43,2426           04635                          TC       POSTJUMP
000541: 43,2427           62001                          CADR     LOADLV1
000542:
000543:                                                                                                 #  VERB 47 -- AGS INITIALIZATION -- R47.
000544:
000545:                                                                                                 #  SEE LOG SECTION AGS INITIALIZATION FOR OTHER PERTINENT REMARKS.
000546:
000547: 43,2430           02076        V47TXACT          TC       TESTXACT                              #  NO OTHER EXTVERB.
000548: 43,2431           34740                          CAF      PRIO4
000549: 43,2432           05105                          TC       FINDVAC
000550: 43,2433  E4,1600                                 EBANK=   AGSBUFF
000551: 43,2433           02005 64064                    2CADR    AGSINIT
000552:
000553: 43,2435           05155                          TC       ENDOFJOB
000554:
000555: 43,2436           31301        CKMODCAD          CA       MODECADR
000556: 43,2437           00006                          EXTEND
000557: 43,2440           16745                          BZF      TCQ
000558: 43,2441           02116                          TC       ALM/END                               #  SOMEBODY IS USING MODECADR SO EXIT
000559:
000560:                                                                                                 #  Page 282
000561:                                                                                                 #  ALINTIME       VERB 55         DESCRIPTION
000562:                                                                                                 #         REQUIRE P00 OR P00-.
000563:
000564:                                                                                                 #         1.      SET EXT VERB DISPLAY BUSY FLAG.
000565:                                                                                                 #         2.      DISPLAY FLASHING V25,N24 (LOAD DELTA TIME FOR AGC CLOCK.
000566:                                                                                                 #         3.      REQUIRE EXECUTION OF VERB 23.
000567:                                                                                                 #         4.      ADD DELTA TIME, RECEIVED FROM INPUT REGISTER, TO THE COMPUTER TIME.
000568:                                                                                                 #         5.      RELEASE EXT VERB DISPLAY SYSTEM.
000569:
000570:                                                                                                 #  Moved from the top of VERB 50 a few lines above here --- RSB 2004.
000571: 43,2442  40,2000                                 SBANK=   PINSUPER                              #  FOR LOADLV1 AND SHOWSUM CADR'S
000572:
000573: 43,2442           02076        ALINTIME          TC       TESTXACT
000574: 43,2443           04635                          TC       POSTJUMP                              #  NO ROOM IN 43
000575: 43,2444           64002                          CADR     R33
000576:
000577: 42,2002                                          BANK     42
000578: 42,2000                                          SETLOC   SBAND
000579: 42,2000                                          BANK
000580: 42,2002                                          COUNT*   $$/R33
000581:
000582: 42,2002           35021        R33               CAF      PRIO7
000583: 42,2003           05146                          TC       PRIOCHNG
000584: 42,2004           32034                          CAF      VNLODDT
000585: 42,2005           04616                          TC       BANKCALL
000586: 42,2006           20334                          CADR     GOXDSPF
000587: 42,2007           05472                          TC       ENDEXT                                #  TERMINATE
000588: 42,2010           05472                          TC       ENDEXT                                #  PROCEED
000589: 42,2011           42033                          CS       DEC23                                 #  DATA IN OR RESEQUENCE (UNLIKELY)
000590: 42,2012           60154                          AD       MPAC                                  #  RECALL LEFT VERB IN MPAC
000591: 42,2013           00006                          EXTEND
000592: 42,2014           12016                          BZF      UPDATIME                              #  GO AHEAD WITH UPDATE ONLY IF RECALL
000593: 42,2015           05472                          TC       ENDEXT                                #         WITH V23 (DATA IN).
000594:
000595: 42,2016           00004        UPDATIME          INHINT                                         #  DELTA TIME IS IN DSPTEM1, +1.
000596: 42,2017           34755                          CAF      ZERO
000597: 42,2020           54156                          TS       MPAC       +2                         #  NEEDED FOR TP AGREE
000598: 42,2021           54001                          TS       L                                     #  ZERO T1 + 2 WHILE ALIGNING.
000599: 42,2022           52025                          DXCH     TIME2
000600: 42,2023           52155                          DXCH     MPAC
000601: 42,2024           53051                          DXCH     DSPTEM2    +1                         #  INCREMENT
000602: 42,2025           20155                          DAS      MPAC
000603:
000604: 42,2026           07262                          TC       TPAGREE                               #  FORCE SIGN AGREEMENT.
000605: 42,2027           52155                          DXCH     MPAC                                  #  NEW CLOCK.
000606: 42,2030           20025                          DAS      TIME2
000607: 42,2031           00003                          RELINT
000608: 42,2032           05472        UPDTMEND          TC       ENDEXT
000609:
000610: 42,2033           00027        DEC23             DEC      23         B-14                       #  V 23
000611:
000612: 42,2034           06230        VNLODDT           VN       2524                                  #  V25N24 FOR LOAD DELTA TIME
000613:
000614:                                                                                                 #  Page 283
000615:                                                                                                 #  SET UP FOR RADAR SAMPLING.
000616:
000617: 42,2035                                          BANK     42
000618: 43,2000                                          SETLOC   EXTVERBS
000619: 43,2000                                          BANK
000620:
000621: 43,2445  E4,1600                                 EBANK=   RSTACK
000622:
000623: 43,2445                                          COUNT*   $$/R0477
000624:
000625: 43,2445           02700        R77               TC       RDRUSECK                              #  TRY TO AVOID THE 1210.
000626: 43,2446           30077                          CA       FLAGWRD3                              #  IS R04 RUNNING?
000627: 43,2447           74743                          MASK     R04FLBIT
000628: 43,2450           10000                          CCS      A
000629: 43,2451           02116                          TC       ALM/END                               #  YES.
000630: 43,2452           05504                          TC       UPFLAG
000631: 43,2453           00117                          ADRES    R77FLAG
000632: 43,2454           12461                          TCF      R04Z
000633:
000634: 43,2455           02700        R04               TC       RDRUSECK                              #  TRY TO AVOID THE 1210.
000635: 43,2456           02076                          TC       TESTXACT
000636: 43,2457           05504                          TC       UPFLAG
000637: 43,2460           00063                          ADRES    R04FLAG                               #  SET R04FLAG FOR ALARMS
000638:
000639: 43,2461           34741        R04Z              CAF      EBANK4
000640: 43,2462           54003                          TS       EBANK
000641: 43,2463           32676                          CAF      1SEC+1                                #  SAMPLE ONCE PER SECOND
000642: 43,2464           55777                          TS       RSAMPDT
000643: 43,2465           34755                          CAF      ZERO
000644: 43,2466           55776                          TS       RTSTLOC
000645: 43,2467           55575                          TS       RFAILCNT                              #  ZERO BAD SAMPLE COUNTER
000646:
000647: 43,2470           00004                          INHINT
000648: 43,2471           42677                          CS       LRPOSCAL                              #  INITIALIZE
000649: 43,2472           70110                          MASK     RADMODES                              #         BIT 9   LR RANGE LOW SCALE =0
000650: 43,2473           54110                          TS       RADMODES                              #         BIT 6   LR POS 1 =0
000651: 43,2474           32677                          CAF      LRPOSCAL                              #         BIT 3   RR RANGE LOW SCALE =0
000652: 43,2475           00006                          EXTEND
000653: 43,2476           02033                          RAND     CHAN33
000654: 43,2477           26110                          ADS      RADMODES
000655: 43,2500           00003                          RELINT
000656:
000657: 43,2501           40077                          CS       FLAGWRD3                              #  CHECK R04FLAG          R04 =1          R77 =0
000658: 43,2502           74743                          MASK     R04FLBIT
000659: 43,2503           10000                          CCS      A
000660: 43,2504           12633                          TCF      R04K
000661:
000662: 43,2505           34753                          CAF      ONE                                   #  INDICATES RENDEZVOUS DESIRED
000663: 43,2506           55051                          TS       OPTIONX    +1
000664: 43,2507           34751        R04A              CAF      BIT3                                  #  OPTION CODE FOR V04N12
000665:
000666:                                                                                                 #  Page 284
000667: 43,2510           55050                          TS       OPTIONX
000668: 43,2511           32673                          CAF      V04N12X
000669: 43,2512           04616                          TC       BANKCALL                              #         R2      00001   RENDEZVOUS RADAR
000670: 43,2513           20353                          CADR     GOMARKFR                              #                 00002   LANDING RADAR
000671: 43,2514           12641                          TCF      R04END                                #  V34
000672: 43,2515           12522                          TCF      +5                                    #  V33
000673: 43,2516           12511                          TCF      R04A       +2                         #  R2
000674: 43,2517           34751                          CAF      BIT3
000675: 43,2520           05464                          TC       BLANKET
000676: 43,2521           05155                          TC       ENDOFJOB
000677:
000678: 43,2522           31051                          CA       OPTIONX    +1                         #  SAVE DESIRED OPTION
000679: 43,2523           55773                          TS       RTSTDEX
000680:
000681: 43,2524           36245        R04X              CAF      SIX                                   #  RR OR LR DESIRED
000682: 43,2525           71773                          MASK     RTSTDEX
000683: 43,2526           10000                          CCS      A
000684: 43,2527           12635                          TCF      R04L                                  #  LANDING RADAR
000685: 43,2530           55775                          TS       RTSTBASE                              #  FOR RR BASE =0, MAX =1
000686:
000687: 43,2531           34752        R04B              CAF      BIT2                                  #  IS RR AUTO MODE DISCRETE PRESENT
000688: 43,2532           00006                          EXTEND
000689: 43,2533           02033                          RAND     CHAN33
000690: 43,2534           00006                          EXTEND
000691: 43,2535           12546                          BZF      R04C                                  #  YES
000692:
000693: 43,2536           32675                          CAF      201R04                                #  REQUEST SELECTION OF RR AUTO MODE
000694: 43,2537           55044                          TS       DSPTEM1
000695: 43,2540           32674                          CAF      V50N25X
000696: 43,2541           04616                          TC       BANKCALL
000697: 43,2542           20345                          CADR     GOMARK4
000698: 43,2543           12641                          TCF      R04END                                #  V34
000699: 43,2544           12531                          TCF      R04B                                  #  V33
000700: 43,2545           12536                          TCF      -7                                    #  E
000701:
000702: 43,2546           34736        R04C              CAF      BIT14                                 #  ENABLE RR AUTO TRACKER
000703: 43,2547           00006                          EXTEND
000704: 43,2550           05012                          WOR      CHAN12
000705:
000706: 43,2551           34752                          CAF      TWO
000707: 43,2552           55774                          TS       RTSTMAX                               #  FOR SEQUENTIAL STORAGE
000708:
000709: 43,2553           05203                          TC       WAITLIST
000710: 43,2554  E4,1600                                 EBANK=   RSTACK
000711: 43,2554           02003 52104                    2CADR    RADSAMP
000712:
000713: 43,2556           00003                          RELINT
000714:
000715: 43,2557           40077                          CS       FLAGWRD3                              #  CHECK R04FLAG          R04 =1          R77 =0
000716: 43,2560           74743                          MASK     R04FLBIT
000717:                                                                                                 #  Page 285
000718: 43,2561           10000                          CCS      A
000719: 43,2562           12117                          TCF      GOPIN                                 #  R77
000720:
000721: 43,2563           36245                          CAF      SIX                                   #  RR OR LR
000722: 43,2564           71773                          MASK     RTSTDEX
000723: 43,2565           10000                          CCS      A
000724: 43,2566           12603                          TCF      R04LR                                 #  LR
000725:
000726: 43,2567           32667        R04RR             CAF      V16N72                                #  DISPLAY RR CDU ANGLES (1/SEC)
000727: 43,2570           04616                          TC       BANKCALL                              #         R1 + XXX.XX DEG         TRUNNION
000728: 43,2571           20334                          CADR     GOMARKF                               #         R2 + XXX.XX DEG         SHAFT
000729: 43,2572           12641                          TCF      R04END                                #  V34    R3   BLANK
000730: 43,2573           12575                          TCF      +2                                    #  V33
000731: 43,2574           12567                          TCF      R04RR                                 #  V32
000732:
000733: 43,2575           32670                          CAF      V16N78                                #  DISPLAY RR RANGE AND RANGE RATE (1/SEC)
000734: 43,2576           04616                          TC       BANKCALL                              #         R1 +- XXX.XX NM         RANGE
000735: 43,2577           20334                          CADR     GOMARKF                               #         R2 +- XXXXX. FPS        RANGE RATE
000736: 43,2600           12641                          TCF      R04END                                #  V34    R3    BLANK
000737: 43,2601           12617                          TCF      R04Y                                  #  V33
000738: 43,2602           12567                          TCF      R04RR                                 #  V32
000739:
000740: 43,2603           32671        R04LR             CAF      V16N66                                #  DISPLAY LR RANGE AND POSITON (1/SEC)
000741: 43,2604           04616                          TC       BANKCALL                              #         R1 +- XXXXX, FT         LR RANGE
000742: 43,2605           20334                          CADR     GOMARKF                               #         R2 +  0000X.            POS. NO.
000743: 43,2606           12641                          TCF      R04END                                #  V34    R3    BLANK
000744: 43,2607           12611                          TCF      +2                                    #  V33
000745: 43,2610           12603                          TCF      R04LR                                 #  V32
000746:
000747: 43,2611           32672                          CAF      V16N67                                #  DISPLAY LR VELX, VELY, VELZ (1/SEC)
000748: 43,2612           04616                          TC       BANKCALL                              #         R1 +- XXXXX. FPS        LR V(X)
000749: 43,2613           20334                          CADR     GOMARKF                               #         R2 +- XXXXX. FPS        LR V(Y)
000750: 43,2614           12641                          TCF      R04END                                #  V34    R3 +- XXXXX. FPS        LR V(Z)
000751: 43,2615           12617                          TCF      R04Y                                  #  V33
000752: 43,2616           12603                          TCF      R04LR                                 #  V32
000753:
000754: 43,2617           34755        R04Y              CAF      ZERO                                  #  TO TERMINATE SAMPLING.
000755: 43,2620           55777                          TS       RSAMPDT
000756: 43,2621           04616                          TC       BANKCALL
000757: 43,2622           01735                          CADR     2SECDELY                              #  WAIT FOR LAST RADARUP
000758: 43,2623           32676                          CAF      1SEC+1                                #  SAMPLE ONCE PER SECOND
000759: 43,2624           55777                          TS       RSAMPDT
000760: 43,2625           34755                          CAF      ZERO                                  #  FOR STORING RESULTS
000761: 43,2626           55776                          TS       RTSTLOC
000762: 43,2627           11775                          CCS      RTSTBASE                              #  CHECK WHICH RADAR HAD BEEN SAMPLED
000763: 43,2630           44753                          CS       ONE                                   #  WAS LR
000764: 43,2631           64752                          AD       TWO                                   #  WAS RR
000765: 43,2632           12523                          TCF      R04X       -1
000766:
000767: 43,2633           34766        R04K              CAF      250MS+1                               #  SAMPLE 4 LR COMPONENTS PER SECOND.
000768:                                                                                                 #  Page 286
000769: 43,2634           55777                          TS       RSAMPDT
000770:
000771: 43,2635           34752        R04L              CAF      TWO
000772: 43,2636           55775                          TS       RTSTBASE                              #  FOR LR BASE =2, MAX =3
000773: 43,2637           36245                          CAF      SIX
000774: 43,2640           12552                          TCF      R04C       +4
000775: 43,2641           34755        R04END            CAF      ZERO                                  #  ZERO RSAMPDT
000776: 43,2642           55777                          TS       RSAMPDT                               #  TO TERMINATE SAMPLING
000777: 43,2643           34744                          CAF      BIT8                                  #  WAIT 1.28 SECONDS FOR POSSIBLE
000778: 43,2644           04616                          TC       BANKCALL                              #  PENDING RUPT.
000779: 43,2645           01736                          CADR     DELAYJOB
000780:
000781: 43,2646           00004                          INHINT
000782: 43,2647           44736                          CS       BIT14                                 #  DISABLE RR AUTO TRACKER.
000783: 43,2650           00006                          EXTEND
000784: 43,2651           03012                          WAND     CHAN12
000785:
000786: 43,2652           05516                          TC       DOWNFLAG
000787: 43,2653           00063                          ADRES    R04FLAG                               #  SIGNAL END OF R04.
000788:
000789: 43,2654           05472                          TC       ENDEXT
000790:
000791: 43,2655           34741        R77END            CAF      EBANK4                                #  TO TERMINATE SAMPLING
000792: 43,2656           54003                          TS       EBANK
000793: 43,2657           34755                          CAF      ZERO
000794: 43,2660           55777                          TS       RSAMPDT
000795: 43,2661           34746                          CAF      BIT6                                  #  WAIT 320 MS. FOR POSSIBLE
000796: 43,2662           04616                          TC       BANKCALL                              #  PENDING RUPT.
000797: 43,2663           01736                          CADR     DELAYJOB
000798:
000799: 43,2664           05516                          TC       DOWNFLAG
000800: 43,2665           00117                          ADRES    R77FLAG
000801: 43,2666           12117                          TCF      GOPIN
000802:
000803: 43,2667           04110        V16N72            VN       1672
000804: 43,2670           04116        V16N78            VN       1678
000805: 43,2671           04102        V16N66            VN       1666
000806: 43,2672           04103        V16N67            VN       1667
000807: 43,2673           01014        V04N12X           VN       412
000808: 43,2674           14431        V50N25X           VN       5025
000809: 43,2675           00201        201R04            OCT      00201
000810: 43,2676           00145        1SEC+1            DEC      101        B-14
000811: 43,2677     4766               250MS+1           EQUALS   CALLCODE
000812: 43,2677           00444        LRPOSCAL          OCT      444
000813:
000814:                                                                                                 #  Page 287
000815: 43,2700           40077        RDRUSECK          CS       FLAGWRD3                              #  IS R29 ON?
000816: 43,2701           74741                          MASK     NR29FBIT
000817: 43,2702           10000                          CCS      A
000818: 43,2703           02116                          TC       ALM/END                               #  YES
000819: 43,2704           30101                          CA       FLAGWRD5                              #  IS R77 RUNNING?
000820: 43,2705           74741                          MASK     R77FLBIT
000821: 43,2706           10000                          CCS      A
000822: 43,2707           02116                          TC       ALM/END                               #  YES.
000823: 43,2710           40103                          CS       FLAGWRD7                              #  IS SERVICER RUNNING AND HENCE POSSIBLY
000824: 43,2711           74746                          MASK     V37FLBIT                              #  R12 USING THE LR?
000825: 43,2712           10000                          CCS      A
000826: 43,2713           12720                          TCF      CHECKRR                               #  NO
000827: 43,2714           30107                          CA       FLGWRD11                              #  YES, IS R12 ON?
000828: 43,2715           74735                          MASK     LRBYBIT                               #  BIT 15
000829: 43,2716           00006                          EXTEND
000830: 43,2717           12116                          BZF      ALM/END                               #  YES
000831: 43,2720           40075        CHECKRR           CS       FLAGWRD1                              #  IS THE TRACK FLAG SET AND HENCE POSSIBLY
000832: 43,2721           74747                          MASK     TRACKBIT                              #  P20 USING THE RR?
000833: 43,2722           10000                          CCS      A
000834: 43,2723           00002                          TC       Q                                     #  NOT ALLOWED DURING P20
000835: 43,2724           02116                          TC       ALM/END                               #  P22 OR P25, (R65)
000836: 43,2725                                          COUNT*   $$/EXTVB
000837:
000838: 43,2725           02076        VB64              TC       TESTXACT                              #  IF DISPLAY SYS. NOT BUSY MAKE IT BUSY.
000839: 43,2726           34740                          CAF      PRIO4
000840: 43,2727           05105                          TC       FINDVAC
000841: 43,2730  E4,1600                                 EBANK=   ALPHASB
000842: 43,2730           03606 64104                    2CADR    SBANDANT                              #  CALC., DISPLAY S-BAND ANTENNA ANGLES.
000843:
000844: 43,2732           05155                          TC       ENDOFJOB
000845:
000846:                                                                                                 #  Page 288
000847:                                                                                                 #  IMUATTCK       VERB 43         DESCRIPTION
000848:                                                                                                 #         LOAD IMU ATTITUDE ERROR METERS
000849:
000850:                                                                                                 #         1.      REQUIRE P00 OR FRESH START.
000851:                                                                                                 #         2.      REQUIRE COARSE ALIGN ENABLE AND ZERO ICDU BITS OFF.
000852:                                                                                                 #         3.      REQUIRE THAT NEEDLES BE OFF.
000853:                                                                                                 #         4.      REQUEST LOAD OF N22 (VALUES TO BE DISPLAYED).
000854:                                                                                                 #         5.      ON PROCEED OR ENTER RE-DISPLAY V43 AND SEND PULSES.
000855:
000856: 43,2733           02121        IMUATTCK          TC       CHKP00H                               #  VB 76 -- LOAD IMU ATT. ERROR METERS
000857:
000858: 43,2734           34763                          CAF      BITS4&5                               #  SEE IF COARSE ALIGN ENABLE AND ZERO IMU
000859: 43,2735           00006                          EXTEND                                         #  CDUS BITS ARE ON
000860: 43,2736           02012                          RAND     CHAN12
000861: 43,2737           10000                          CCS      A
000862: 43,2740           12116                          TCF      ALM/END                               #  NOT ALLOWED IF IMU COARSE OR IMU ZERO ON
000863:
000864: 43,2741           34355                          CAF      BIT13-14                              #  BOTH BITS 13 AND 14 MUST BE 1
000865: 43,2742           00006                          EXTEND                                         #  INDICATING THE MODE SELECTED IS OFF.
000866: 43,2743           06031                          RXOR     CHAN31
000867: 43,2744           74355                          MASK     BIT13-14
000868: 43,2745           00006                          EXTEND
000869: 43,2746           12750                          BZF      +2                                    #  NEEDLES IS OFF.
000870: 43,2747           12116                          TCF      ALM/END                               #  EXIT.  NEEDLES IS ON.
000871:
000872: 43,2750           02076                          TC       TESTXACT
000873:
000874: 43,2751           32234                          CAF      VNLODCDU
000875: 43,2752           04616                          TC       BANKCALL
000876: 43,2753           20334                          CADR     GOXDSPF
000877: 43,2754           05472                          TC       ENDEXT                                #  V34
000878: 43,2755           02756                          TC       +1
000879: 43,2756           32771                          CAF      V43K                                  #  REDISPLAY OUR VERB.
000880: 43,2757           04616                          TC       BANKCALL
000881: 43,2760           20621                          CADR     EXDSPRET
000882: 43,2761           34746                          CAF      BIT6
000883: 43,2762           00006                          EXTEND
000884: 43,2763           05012                          WOR      CHAN12                                #  ENABLE ERROR COUNTERS.
000885: 43,2764           34752                          CAF      TWO
000886: 43,2765           05203                          TC       WAITLIST                              #  PUT OUT COMMANDS IN .32 SECONDS.
000887: 43,2766     0321                                 EBANK=   THETAD
000888: 43,2766           02035 64100                    2CADR    ATTCK2
000889:
000890: 43,2770           15472                          TCF      ENDEXT
000891:
000892: 42,2035                                          BANK     42
000893: 42,2000                                          SETLOC   PINBALL3                              #  SOMETHING IN B42.
000894: 42,2000                                          BANK
000895:
000896: 42,2035                                          COUNT*   $$/EXTVB
000897:                                                                                                 #  Page 289
000898: 42,2035           34752        ATTCK2            CAF      TWO                                   #  PUT OUT COMMANDS.
000899: 42,2036           54002                 +1       TS       Q                                     #  CDU WILL LIMIT EXCESS DATA.
000900: 42,2037           50000                          INDEX    A
000901: 42,2040           30321                          CA       THETAD
000902: 42,2041           00006                          EXTEND
000903: 42,2042           72053                          MP       ATTSCALE
000904: 42,2043           50002                          INDEX    Q
000905: 42,2044           56050                          XCH      CDUXCMD
000906: 42,2045           10002                          CCS      Q
000907: 42,2046           12036                          TCF      ATTCK2     +1
000908:
000909: 42,2047           37743                          CAF      13,14,15
000910: 42,2050           00006                          EXTEND
000911: 42,2051           05014                          WOR      CHAN14
000912: 42,2052           15261                          TCF      TASKOVER                              #  LEAVE ERROR COUNTERS ENABLED.
000913:
000914: 42,2053           03146        ATTSCALE          DEC      0.1
000915:
000916: 07,2666                                          BANK     7
000917: 43,2000                                          SETLOC   EXTVERBS
000918: 43,2000                                          BANK
000919:
000920: 43,2771                                          COUNT*   $$/EXTVB
000921:
000922: 43,2771           12600        V43K              VN       4300
000923:
000924:                                                                                                 #  V82PERF        VERB82          DESCRIPTION
000925:                                                                                                 #         REQUEST ORBIT PARAMETERS DISPLAY (R30)
000926:
000927:                                                                                                 #         1.      IF AVERAGE G IS OFF:
000928:                                                                                                 #                         FLASH DISPLAY V04N06.  R2 INDICATES WHICH SHIP'S STATE VECTOR IS
000929:                                                                                                 #                         TO BE UPDATED.  INITIAL CHOICE IS THIS SHIP (R2=1).  ASTRONAUT
000930:                                                                                                 #                         CAN CHANGE TO OTHER SHIP BY V22EXE, WHERE X NOT EQ I.
000931:                                                                                                 #                         SELECTED STATE VECTOR UPDATED BY THISPREC (OTHPREC).
000932:                                                                                                 #                         CALLS SR30.1 (WHICH CALLS TFFCONMU + TFFRP/RA) TO CALCULATE
000933:                                                                                                 #                         RPER (PERIGEE RADIUS), RAP0 (APOGEE RADIUS), HPER (PERIGEE
000934:                                                                                                 #                         HEIGHT ABOVE LAUNCH PAD OR LUNAR LANDING SITE), HAPO (APOGEE
000935:                                                                                                 #                         HEIGHT AS ABOVE), TPER (TIME TO PERIGEE), TFF (TIME TO
000936:                                                                                                 #                         INTERSECT 300 KFT ABOVE PAD OR 35KFT ABOVE LANDING SITE).
000937:                                                                                                 #                         FLASH MONITOR V16N44 (HAPO, HPER, TFF).  TFF IS -59M59S IF IT WAS
000938:                                                                                                 #                         NOT COMPUTABLE, OTHERWISE IT INCREMENTS ONCE PER SECOND.
000939:                                                                                                 #                         ASTRONAUT HAS OPTION TO MONITOR TPER BY KEYING IN N 32 E.
000940:                                                                                                 #                         DISPLAY IS IN HMS, IS NEGATIVE (AS WAS TFF), AND INCREMENTS
000941:                                                                                                 #                         ONCE PER SECOND ONLY IF TFF DISPLAY WAS -59M59S.
000942:
000943:                                                                                                 #         2.      IF AVERAGE G IS ON:
000944:                                                                                                 #                         CALLS SR30.1 APPROX EVERY TWO SECS.  STATE VECTOR IS ALWAYS
000945:                                                                                                 #                         FOR THIS VEHICLE.  V82 DOES NOT DISTURB STATE VECTOR.  RESULTS
000946:                                                                                                 #                         OF SR30.1 ARE RAPO, RPER, HAPO, HPER, TPER, TFF.
000947:                                                                                                 #                         FLASH MONITOR V16N44 (HAPO, HPER, TFF).
000948:                                                                                                 #                         IF MODE IS P11, THEN CALL DELRSPL SO ASTRONAUT CAN MONITOR
000949:                                                                                                 #                         RESULTS BY N50E.  SPLASH COMPUTATION DONE ONCE PER TWO SECS.
000950:
000951:                                                                                                 #  Page 290
000952: 43,2772           02076        V82PERF           TC       TESTXACT
000953:
000954: 43,2773           35021                          CAF      PRIO7                                 #  LESS THAN LAMBERT.  R30,V82
000955: 43,2774           05146                          TC       PRIOCHNG
000956: 43,2775           00006                          EXTEND
000957: 43,2776           33001                          DCA      V82CON
000958: 43,2777           05165                          TC       SUPDXCHZ                              #  V82CALL IN DIFF SUPERBANK FROM V82PERF
000959:
000960: 43,3000  E4,1716                                 EBANK=   HAPO
000961: 43,3000           03242 44104  V82CON            2CADR    V82CALL
000962:
000963:                                                                                                 #  VB83PERF       VERB 83         DESCRIPTION
000964:                                                                                                 #         REQUEST RENDEZVOUS PARAMETER DISPLAY (R31)
000965:
000966:                                                                                                 #         1.      SET EXT VERB DISPLAY BUSY FLAG.
000967:                                                                                                 #         2.      SCHEDULE R31CALL WITH PRIORITY 5.
000968:                                                                                                 #                 A.      DISPLAY
000969:                                                                                                 #                         R1      RANGE
000970:                                                                                                 #                         R2      RANGE RATE
000971:                                                                                                 #                         R3      THETA
000972:
000973: 43,3002           02076        V83PERF           TC       TESTXACT
000974:
000975: 43,3003           34752                          CAF      BIT2
000976: 43,3004           05203                          TC       WAITLIST
000977: 43,3005  E7,1611                                 EBANK=   TSTRT
000978: 43,3005           03737 60107                    2CADR    R31CALL
000979:
000980: 43,3007           05155                          TC       ENDOFJOB
000981:
000982:                                                                                                 #  VERB 89        DESCRIPTION     RENDEZVOUS FINAL ATTITUDE ROUTINE (R63)
000983:                                                                                                 #
000984:                                                                                                 #  CALLED BY VERB 89 ENTER DURING P00.  PRIO 10 IS USED.  CALCULATES AND
000985:                                                                                                 #  DISPLAYS FINAL FDAI BALL ANGLES TO POINT LM +X OR +Z AXIS AT CSM.
000986:
000987:                                                                                                 #  1. KEY IN V 89 E ONLY IF IN PROG 00.  IF NOT IN P00, OPERATOR ERROR AND
000988:                                                                                                 #  EXIT R63, OTHERWISE CONTINUE.
000989:
000990:                                                                                                 #  2. IF IN P00, DO IMU STATUS CHECK ROUTINE (R02BOTH).  IF IMU ON AND ITS
000991:                                                                                                 #  ORIENTATION KNOWN TO LGC,CONTINUE.
000992:
000993:                                                                                                 #  3. FLASH DISPLAY V 04 N 06.  R2 INDICATES WHICH SPACECRAFT AXIS IS TO
000994:                                                                                                 #  BE POINTED AT CSM.  INITIAL CHOICE IS PREFERRED (+Z) AXIS (R2=1).
000995:                                                                                                 #  ASTRONAUT CAN CHANGE TO (+X) AXIS (R2 NOT = 1) BY V 22 E 2 E.  CONTINUE
000996:                                                                                                 #  AFTER KEYING IN PROCEED.
000997:
000998:                                                                                                 #  4. BOTH VEHICLE STATE VECTORS UPDATED BY CONIC EQS.
000999:
001000:                                                                                                 #  5. HALF MAGNITUDE UNIT LOS VECTOR (IN STABLE MEMBER COORDINATES) AND
001001:                                                                                                 #  Page 291
001002:                                                                                                 #  HALF MAGNITUDE UNIT SPACECRAFT AXIS VECTOR (IN BODY COORDINATES)
001003:                                                                                                 #  PREPARED FOR VECPOINT.
001004:
001005:                                                                                                 #  6. GIMBAL ANGLES FROM VECPOINT TRANSFORMED INTO FDAI BALL ANGLES BY
001006:                                                                                                 #  BALLANGS.  FLASH DISPLAY V 06 N 18 AND AWAIT RESPONSE.
001007:
001008:                                                                                                 #  7.     RECYCLE -- RETURN TO STEP 4.
001009:                                                                                                 #         TERMINATE -- EXIT R63.
001010:                                                                                                 #         PROCEED -- RESET 3AXISFLG AND CALL R60LEM FOR ATTITUDE MANEUVER.
001011:
001012: 43,3010           02121        V89PERF           TC       CHKP00H
001013: 43,3011           02076                          TC       TESTXACT
001014: 43,3012           34737                          CAF      PRIO10
001015: 43,3013           05105                          TC       FINDVAC
001016: 43,3014  E4,1606                                 EBANK=   RONE
001017: 43,3014           02022 54104                    2CADR    V89CALL
001018:
001019: 43,3016           05155                          TC       ENDOFJOB
001020:
001021:                                                                                                 #  V90PERF        VERB 90         DESCRIPTION
001022:                                                                                                 #         REQUEST RENDEZVOUS OUT-OF-PLANE DISPLAY (R36)
001023:
001024:                                                                                                 #         1.      SET EXT VERB DISPLAY BUSY FLAG.
001025:                                                                                                 #         2.      SCHEDULE R36 CALL WITH PRIORITY 10
001026:                                                                                                 #                 A.      DISPLAY
001027:                                                                                                 #                         TIME OF EVENT -- HOURS, MINUTES, SECONDS
001028:                                                                                                 #                         Y       OUT-OF-PLANE POSITION -- NAUTICAL MILES
001029:                                                                                                 #                         YDOT    OUT-OF-PLANE VELOCITY -- FEET/SECOND
001030:                                                                                                 #                         PSI     ANGLE BTW LINE OF SIGHT AND FORWARD
001031:                                                                                                 #                                 DIRECTION VECTOR IN HORIZONTAL PLANE -- DEGREES
001032:
001033: 43,3017           02076        V90PERF           TC       TESTXACT
001034: 43,3020           35021                          CAF      PRIO7                                 #  R36,V90
001035: 43,3021           05105                          TC       FINDVAC
001036: 43,3022  E7,1441                                 EBANK=   TIG
001037: 43,3022           02642 10107                    2CADR    R36
001038:
001039: 43,3024           15155                          TCF      ENDOFJOB
001040:
001041:                                                                                                 #  MINIMP VERB 76         DESCRIPTION
001042:                                                                                                 #         MINIMUM IMPULSE MODE
001043:
001044:                                                                                                 #         1.      SET MINIMUM IMPULSE RHO MODE FLAG TO 1.
001045:
001046: 43,3025           05504        MINIMP            TC       UPFLAG                                #  SET PULSES = 1 (MIN. IMPULSE MODE)
001047: 43,3026           00303                          ADRES    PULSEFLG
001048: 43,3027           12117                          TCF      GOPIN                                 #  RETURN VIA PINBRNCH
001049:
001050:                                                                                                 #  NOMINIMP       VERB 77         DESCRIPTION
001051:                                                                                                 #         RATE COMMAND MODE
001052:
001053:                                                                                                 #         1.      SET MINIMUM IMPULSE RHO MODE FLAG TO 0.  (ZERO INDICATES NOT MINIMUM IMPULSE MODE.).
001054:                                                                                                 #         2.      MOVE CDUX, CDUY, CDUZ INTO CDUXD, CDUYD, CDUZD.
001055:                                                                                                 #  Page 292
001056:
001057: 43,3030           05516        NOMINIMP          TC       DOWNFLAG                              #  SET PULSES = 0 (NOT MINIMUM IMPULSE MODE
001058: 43,3031           00303                          ADRES    PULSEFLG
001059: 43,3032           00004                          INHINT
001060: 43,3033           04674                          TC       IBNKCALL
001061: 43,3034           40154                          CADR     ZATTEROR
001062: 43,3035           02117                          TC       GOPIN
001063:
001064:                                                                                                 #  Page 293
001065:                                                                                                 #  CREMANU        VERB 49         DESCRIPTION
001066:                                                                                                 #         START AUTOMATIC ATTITUDE MANEUVER
001067:
001068:                                                                                                 #         1.      REQUIRE PROGRAM 00 ACTIVE.
001069:                                                                                                 #         2.      SET EXT VERB DISPLAY BUSY FLAG.
001070:                                                                                                 #         3.      SCHEDULE R62DISP WITH PRIORITY 10.
001071:                                                                                                 #         4.      RELEASE EXT VERB DISPLAY.
001072:
001073:                                                                                                 #         R62DISP
001074:                                                                                                 #         1.      DISPLAY FLASHING V06,N22.
001075:                                                                                                 #                 RESPONSES
001076:                                                                                                 #                 A.      TERMINATE
001077:                                                                                                 #                         1.      GOTOP00H
001078:                                                                                                 #                 B.      PROCEED
001079:                                                                                                 #                         1.      SET 3AXISFLG TO INDICATE MANEUVER IS SPECIFIED BY 3 AXIS.
001080:                                                                                                 #                         2.      EXECUTE R60LEM (ATTITUDE MANEUVER).
001081:                                                                                                 #                 C.      ENTER
001082:                                                                                                 #                         1.      REPEAT FLASHING V06,N22.
001083:
001084: 43,3036           02121        CREWMANU          TC       CHKP00H                               #  DEMAND P00
001085:
001086: 43,3037           02076                          TC       TESTXACT
001087:
001088: 43,3040           34737                          CAF      PRIO10
001089: 43,3041           05105                          TC       FINDVAC
001090: 43,3042  E6,1675                                 EBANK=   BCDU
001091: 43,3042           02103 46106                    2CADR    R62DISP
001092:
001093: 43,3044           05155                          TC       ENDOFJOB
001094:
001095:                                                                                                 #  Page 294
001096:                                                                                                 #  TRMTRACK       VERB 56         DESCRIPTION
001097:                                                                                                 #         TERMINATE TRACKING (P20 AND P25).
001098:
001099:                                                                                                 #         1.      KNOCK DOWN RENDEZVOUS, TRACK, AND UPDATE FLAGS.
001100:                                                                                                 #         2.      REQUIRE P20 OR P25 NOT RUNNING ALONE OR GO TO GOGOP00H (REQUEST PROGRAM 00).
001101:                                                                                                 #         3.      SCHEDULE V56TOVAC WITH PRIORITY 30.
001102:
001103:                                                                                                 #         V56TOVAC
001104:                                                                                                 #         1.      EXECUTE INTSTALL (IF INTEGRATION IS RUNNING, STALL UNTIL IT IS FINISHED.)
001105:                                                                                                 #         2.      ZERO GROUP 2 TO HALT P20.
001106:                                                                                                 #         3.      TRANSFER CONTROL TO GOPROG2 (SOFTWARE RESTART).
001107:
001108: 43,3045           33065        TRMTRACK          CA       BITS9+7                               #  IS REND OR P25 FLAG ON
001109: 43,3046           70074                          MASK     FLAGWRD0
001110: 43,3047           00006                          EXTEND
001111: 43,3050           12117                          BZF      GOPIN                                 #  NO
001112:
001113: 43,3051           05516                          TC       DOWNFLAG
001114: 43,3052           00010                          ADRES    RNDVZFLG
001115:
001116: 43,3053           05516                          TC       DOWNFLAG
001117: 43,3054           00006                          ADRES    P25FLAG
001118:
001119: 43,3055           05516                          TC       DOWNFLAG                              #  ENSURE SEARCH FLAG IS OFF
001120: 43,3056           00037                          ADRES    SRCHOPTN
001121:
001122: 43,3057           34747                          CA       TRACKBIT                              #  IS TRACK FLAG ON?
001123: 43,3060           70075                          MASK     FLAGWRD1
001124: 43,3061           00006                          EXTEND
001125: 43,3062           12117                          BZF      GOPIN
001126:
001127: 43,3063           04635                          TC       POSTJUMP
001128: 43,3064           64054                          CADR     TRMTRAK1
001129:
001130: 43,3065           00500        BITS9+7           OCT      500
001131:
001132: 42,2000                                          SETLOC   SBAND                                 #  BANK 42
001133: 42,2000                                          BANK
001134:
001135: 42,2054                                          COUNT*   $$/EXTVB
001136:
001137: 42,2054           05516        TRMTRAK1          TC       DOWNFLAG
001138: 42,2055           00027                          ADRES    UPDATFLG                              #  UPDATE FLAG DOWN
001139: 42,2056           05516                          TC       DOWNFLAG
001140: 42,2057           00031                          ADRES    TRACKFLG                              #  TRACK FLAG DOWN
001141: 42,2060           05516                          TC       DOWNFLAG
001142: 42,2061           00007                          ADRES    IMUSE
001143:
001144: 42,2062           06042                          TC       INTPRET
001145: 42,2063           77624                          CALL
001146: 42,2064           27410                                   INTSTALL                              #  DON'T INTERRUPT INTEGRATION
001147:                                                                                                 #  Page 295
001148: 42,2065           77776                          EXIT
001149:
001150: 42,2066           05353                          TC       PHASCHNG
001151: 42,2067           00002                          OCT      2                                     #  KILL GROUP 2 TO HALT P20 ACTIVITY
001152:
001153: 42,2070           00004                          INHINT
001154: 42,2071           04674                          TC       IBNKCALL                              #  ZERO THE COMMANDED RATES TO STOP
001155: 42,2072           40166                          CADR     STOPRATE   MANEUVER
001156:
001157: 42,2073           04674                          TC       IBNKCALL
001158: 42,2074           40115                          CADR     RESTORDB
001159:
001160: 42,2075           06011                          TC       CLRADMOD                              #  CLEAR BITS 10 + 15 OF RADMODES.
001161:
001162: 42,2076           44736                          CS       BIT14                                 #  DISABLE LOCKON
001163: 42,2077           00006                          EXTEND
001164: 42,2100           03012                          WAND     CHAN12
001165: 42,2101           04635                          TC       POSTJUMP
001166: 42,2102           12766                          CADR     GOPROG2                               #  CAUSE RESTART.
001167:
001168:                                                                                                 #  DNEDUMP        VERB 74         DESCRIPTION
001169:                                                                                                 #         INITIALZE DOWN-TELEMETRY PROGRAM FOR ERASABLE MEMORY DUMP.
001170:
001171:                                                                                                 #         1.      SET EXT VERB DISPLAY BUSY FLAG.
001172:                                                                                                 #         2.      REPLACE CURRENT DOWNLIST WITH ERASABLE MEMORY.
001173:                                                                                                 #         3.      RELEASE EXT VERB DISPLAY.
001174:
001175: 43,2000                                          SETLOC   EXTVERBS
001176: 43,2000                                          BANK
001177:
001178: 43,3066                                          COUNT*   $$/EXTVB
001179:
001180: 43,3066     0400                                 EBANK=   400
001181: 43,3066           33071        DNEDUMP           CAF      LDNDUMPI
001182: 43,3067           54335                          TS       DNTMGOTO
001183: 43,3070           02117                          TC       GOPIN
001184:
001185: 43,3071  43,3066               V74               EQUALS   DNEDUMP
001186: 43,3071           03721        LDNDUMPI          REMADR   DNDUMPI
001187:
001188:                                                                                                 #  LEMVEC VERB 80         DESCRIPTION
001189:                                                                                                 #         UPDATE LEM STATE VECTOR
001190:                                                                                                 #                 RESET VHUPFLG TC 0
001191:
001192: 43,3072           05516        LEMVEC            TC       DOWNFLAG
001193: 43,3073           00026                          ADRES    VEHUPFLG                              #  VB 80 -- VEHUPFLG DOWN INDICATES LEM
001194:
001195: 43,3074           03077                          TC       NOUPDOWN
001196:
001197:                                                                                                 #  CSMVEC VERB 81         DESCRIPTION
001198:                                                                                                 #         UPDATE CSM STATE VECTOR
001199:                                                                                                 #  Page 296
001200:                                                                                                 #                 SET VEHUPFLG TO 1
001201:
001202: 43,3075           05504        CSMVEC            TC       UPFLAG
001203: 43,3076           00026                          ADRES    VEHUPFLG                              #  VB 81 -- VEHUPFLG UP INDICATES CSM
001204:
001205: 43,3077           05516        NOUPDOWN          TC       DOWNFLAG
001206: 43,3100           00030                          ADRES    NOUPFLAG
001207:
001208: 43,3101           12117                          TCF      GOPIN
001209:
001210:                                                                                                 #  UPDATOFF       VERB 95         DESCRIPTION
001211:                                                                                                 #         INHIBIT STATE VECTOR UPDATES BY INCORP
001212:                                                                                                 #                 SET NOUPFLAG TO 1
001213:
001214: 43,3102           05504        UPDATOFF          TC       UPFLAG                                #  VB 95 SET NOUPFLAG
001215: 43,3103           00030                          ADRES    NOUPFLAG
001216:
001217: 43,3104           02117                          TC       GOPIN
001218:                                                                                                 #  Page 297
001219:                                                                                                 #  SYSTEST        VERB 92         DESCRIPTION
001220:                                                                                                 #         OPERATE IMU PERFORMANCE TEST.
001221:
001222:                                                                                                 #         1.      REQUIRE PROGRAM 00 OR TURN ON OPERATOR ERROR.
001223:                                                                                                 #         2.      SET EXT VERB BUSY FLAG.
001224:
001225: 43,3105  E5,1417                                 EBANK=   QPLACE
001226:
001227: 43,3105           02121        SYSTEST           TC       CHKP00H                               #  DEMAND P00
001228:
001229: 43,3106           02076                          TC       TESTXACT
001230:
001231: 43,3107           37713                          CAF      PRIO22
001232: 43,3110           05105                          TC       FINDVAC
001233: 43,3111  E5,1417                                 EBANK=   QPLACE
001234: 43,3111  37,2000                                 SBANK=   IMUSUPER
001235: 43,3111           02002 76065                    2CADR    REDO
001236:
001237: 43,3113           05155                          TC       ENDOFJOB
001238:
001239:                                                                                                 #  VERB 93        CLEAR RENDWFLG, CAUSES W-MATRIX TO BE RE-INITIALIZE
001240:
001241: 43,3114           00004        WMATRXNG          INHINT
001242: 43,3115           44753                          CS       RENDWBIT
001243: 43,3116           70101                          MASK     FLAGWRD5
001244: 43,3117           54101                          TS       FLAGWRD5
001245:
001246: 43,3120           02117                          TC       GOPIN
001247:
001248: 43,3121  43,3121               GOSHOSUM          EQUALS   SHOWSUM
001249:
001250: 43,3121           02121        SHOWSUM           TC       CHKP00H                               #  *
001251: 43,3122           02076                          TC       TESTXACT                              #  *
001252: 43,3123           35021                          CAF      PRIO7                                 #  * ALLOW OTHER CHARINS.
001253: 43,3124           05146                          TC       PRIOCHNG                              #  *
001254: 43,3125           34753                          CAF      S+1                                   #  *
001255: 43,3126           55376                          TS       SKEEP6                                #  * SHOWSUM OPTION
001256: 43,3127           34755                          CAF      S+ZERO                                #  *
001257: 43,3130           55362                          TS       SMODE                                 #  * TURN OFF SELF-CHECK
001258: 43,3131           33272                          CA       SELFADRS                              #  *
001259: 43,3132           55361                          TS       SELFRET                               #  *
001260: 43,3133           03547                          TC       STSHOSUM                              #  * ENTER ROPECHK
001261: 43,3134           23372        SDISPLAY          LXCH     SKEEP2                                #  * BANK # FOR DISPLAY
001262: 43,3135           23373                          LXCH     SKEEP3                                #  * BUGGER WORD FOR DISPLAY
001263: 43,3136           33271        NOKILL            CA       ADRS1                                 #  *
001264: 43,3137           54156                          TS       MPAC       +2                         #  *
001265: 43,3140           33151                          CA       VNCON                                 #  * 0501
001266: 43,3141           04616                          TC       BANKCALL                              #  *
001267: 43,3142           20334                          CADR     GOXDSPF                               #  *
001268: 43,3143           03146                          TC       +3                                    #  *
001269: 43,3144           03660                          TC       NXTBNK                                #  *
001270:                                                                                                 #  Page 298
001271: 43,3145           03136                          TC       NOKILL                                #  *
001272: 43,3146           33272                          CA       SELFADRS
001273: 43,3147           55371                          TS       SKEEP1
001274:
001275: 43,3150           05472                          TC       ENDEXT                                #  *
001276: 43,3151           01201        VNCON             VN       501                                   #  *
001277: 43,3152           31376        ENDSUMS           CA       SKEEP6                                #  *
001278: 43,3153           00006                          EXTEND                                         #  *
001279: 43,3154           13363                          BZF      SELFCHK                               #  * ROPECHK, START SELFCHK AGAIN.
001280: 43,3155           03547                          TC       STSHOSUM                              #  * START SHOWSUM AGAIN.
001281:
001282:                                                                                                 #  Page 299
001283:                                                                                                 #  DAPDISP        VERB 48         DESCRIPTION
001284:                                                                                                 #         LOAD AUTO PILOT DATA
001285:
001286:                                                                                                 #         1.      REQUIRE EXT VERB DISPLAY AVAILABLE AND SET BUSY FLAG.
001287:                                                                                                 #         2.      EXECUTE DAPDATA1, DAPDATA2, AND DAPDATA3.
001288:                                                                                                 #         3.      RELEASE EXT VERB DISPLAY SYSTEM.
001289:
001290:                                                                                                 #  KEY
001291:                                                                                                 #  THE FOLLOWING IS A KEY TO THE 5 DIGITS OF THE DAP DATA CODE (N46)
001292:
001293:                                                                                                 #  DIGIT A -- VEHICLE CONFIGURATION
001294:                                                                                                 #         1 -- LM ALONE, ASCENT
001295:                                                                                                 #         2 -- LM ALONE, DESCENT
001296:                                                                                                 #         3 -- CSM AND LM DOCKED
001297:
001298:                                                                                                 #  DIGIT B -- ACCELERATION CODE
001299:                                                                                                 #         0 -- 2 JET TRANSLATION, RCS SYSTEM A PREFERRED
001300:                                                                                                 #         1 -- 2 JET TRANSLATION, RCS SYSTEM B PREFERRED
001301:                                                                                                 #         2 -- 4 JET TRANSLATION, RCS SYSTEM A PREFERRED (NOT MEANINGFUL)
001302:                                                                                                 #         3 -- 4 JET TRANSLATION, RCS SYSTEM B PREFERRED (NOT MEANINGFUL)
001303:
001304:                                                                                                 #  DIGIT C -- ACA SCALING
001305:                                                                                                 #         0 -- FINE
001306:                                                                                                 #         1 -- NORMAL
001307:
001308:                                                                                                 #  DIGIT D -- DEADBAND
001309:                                                                                                 #         0 -- 0.3 DEG
001310:                                                                                                 #         1 -- 1.0 DEG
001311:                                                                                                 #         2 -- 5.0 DEG
001312:                                                                                                 #       (3 -- 5.0 DEG BY DEFAULT)
001313:
001314:                                                                                                 #  DIGIT E -- MANEUVER RATE
001315:                                                                                                 #         0 -- 0.2 DEG/SEC
001316:                                                                                                 #         1 -- 0.5 DEG/SEC
001317:                                                                                                 #         2 -- 2.0 DEG/SEC
001318:                                                                                                 #         3 -- 10.0 DEG/SEC
001319:
001320: 43,3156           02076        DAPDISP           TC       TESTXACT
001321: 43,3157           35021                          CAF      PRIO7                                 #  R03
001322: 43,3160           05146                          TC       PRIOCHNG
001323: 43,3161           04635                          TC       POSTJUMP
001324: 43,3162           40004                          CADR     DAPDATA1
001325:
001326: 34,2000                                          BANK     34
001327: 20,2000                                          SETLOC   LOADDAP
001328: 20,2000                                          BANK
001329:
001330: 20,2004                                          COUNT*   $$/R03
001331:
001332: 20,2004  30,2000                                 SBANK=   LOWSUPER                              #  FOR SUBSEQUENT LOW 2CADR'S
001333:
001334: 20,2004           32114        DAPDATA1          CAF      BOOLSMSK                              #  SET DISPLAY ACCORDING TO DAPBOOL'S BITS.
001335: 20,2005           70111                          MASK     DAPBOOLS                              #  LM
001336:                                                                                                 #  Page 300
001337: 20,2006           55340                          TS       DAPDATR1                              #  LM
001338: 20,2007           40106                          CS       FLGWRD10                              #  SET BIT 14 TO BE COMPLEMENT OF APSFLAG.
001339: 20,2010           74737                          MASK     APSFLBIT
001340: 20,2011           10000                          CCS      A
001341: 20,2012           34736                          CAF      BIT14
001342: 20,2013           27340                          ADS      DAPDATR1
001343: 20,2014           31340        CHKDATA1          CAE      DAPDATR1                              #  IF BITS 13 AND 14 ARE BOTH ZERO, FORCE
001344: 20,2015           74355                          MASK     BIT13-14                              #         A ONE INTO BIT 13.
001345: 20,2016           00006                          EXTEND
001346: 20,2017           12034                          BZF      FORCEONE
001347: 20,2020           31340                          CAE      DAPDATR1                              #  ENSURE THAT NO ILLEGAL BITS SET BY CREW.
001348: 20,2021           72113        MSKDATR1          MASK     DSPLYMSK
001349: 20,2022           55340                          TS       DAPDATR1
001350: 20,2023           32112                          CAF      V01N46                                #  LM
001351: 20,2024           04616                          TC       BANKCALL
001352: 20,2025           20353                          CADR     GOXDSPFR
001353: 20,2026           15472                          TCF      ENDEXT                                #  V34E TERMINATE
001354: 20,2027           12037                          TCF      DPDAT1                                #  V33E PROCEED
001355: 20,2030           12014                          TCF      CHKDATA1                              #  E      NEW DATA        CHECK AND REDISPLAY
001356: 20,2031           36245                          CAF      REVCNT                                #  BITS 2 & 3:  BLANKS R2 & R3.
001357: 20,2032           05464                          TC       BLANKET
001358: 20,2033           15155                          TCF      ENDOFJOB
001359: 20,2034           34737        FORCEONE          CAF      BIT13
001360: 20,2035           27340                          ADS      DAPDATR1
001361: 20,2036           12021                          TCF      MSKDATR1
001362:
001363: 20,2037           00004        DPDAT1            INHINT                                         #  INHINT FOR SETTING OF FLAG BITS AND MASS
001364: 20,2040           44737                          CS       APSFLBIT                              #         ON BASIS OF DISPLAYED DAPDATR1.
001365: 20,2041           70106                          MASK     FLGWRD10
001366: 20,2042           54001                          TS       L                                     #  SET APSFLAG TO BE COMPLEMENT OF BIT 14
001367: 20,2043           41340                          CS       DAPDATR1
001368: 20,2044           74736                          MASK     BIT14
001369: 20,2045           10000                          CCS      A
001370: 20,2046           34737                          CAF      APSFLBIT
001371: 20,2047           60001                          AD       L
001372: 20,2050           54106                          TS       FLGWRD10
001373: 20,2051           41340                          CS       DAPDATR1                              #  SET BITS OF DAPBOOLS ON BASIS OF DISPLAY
001374: 20,2052           74355                          MASK     BIT13-14                              #         MASK OUT CSMDOCKD (BIT 13) UNLESS BOTH
001375: 20,2053           10000                          CCS      A                                     #         13 AND 14 ARE SET.
001376: 20,2054           44737                          CS       CSMDOCKD
001377: 20,2055           62114                          AD       BOOLSMSK
001378: 20,2056           71340                          MASK     DAPDATR1
001379: 20,2057           54001                          TS       L
001380: 20,2060           42114                          CS       BOOLSMSK
001381: 20,2061           70111                          MASK     DAPBOOLS
001382: 20,2062           60001                          AD       L
001383: 20,2063           54111                          TS       DAPBOOLS
001384: 20,2064           74737                          MASK     CSMDOCKD                              #  LOAD MASS IN ACCORDANCE WITH CSMDOCKD.
001385: 20,2065           10000                          CCS      A                                     #         MASS IS USUALLY OKAY, SO DO
001386: 20,2066           31327                          CAE      CSMMASS                               #         NOT TOUCH ITS LOW-ORDER PART.
001387:                                                                                                 #  Page 301
001388: 20,2067           61326                          AD       LEMMASS
001389: 20,2070           55243                          TS       MASS
001390: 20,2071           30111                          CAE      DAPBOOLS
001391: 20,2072           74741                          MASK     ACC4OR2X                              #  2 OR 4 JET X-TRANSLATION
001392: 20,2073           00006                          EXTEND                                         #  (BIT ACC4OR2X = 1 FOR 4 JETS)
001393: 20,2074           12101                          BZF      +5
001394: 20,2075           44735                          CS       BIT15
001395: 20,2076           70075                          MASK     FLAGWRD1                              #  CLEAR NJTSFLAG TO 0 FOR 4 JETS
001396: 20,2077           54075                          TS       FLAGWRD1
001397: 20,2100           12104                          TCF      +4
001398: 20,2101           40075                          CS       FLAGWRD1                              #  SET NJTSFLAG TO 1 FOR 2 JETS
001399: 20,2102           74735                          MASK     BIT15
001400: 20,2103           26075                          ADS      FLAGWRD1
001401: 20,2104           30111                          CA       DAPBOOLS                              #  SELECT DESIRED KALCMANU AUTOMATIC
001402: 20,2105           76250                          MASK     THREE                                 #  MANEUVER RATE
001403: 20,2106           60000                          DOUBLE                                         #  RATEINDX HAS TO BE 0,2,4,6 SINCE RATES
001404: 20,2107           55322                          TS       RATEINDX                              #  ARE DP
001405: 20,2110           04635                          TC       POSTJUMP
001406: 20,2111           02211                          CADR     STIKLOAD
001407:
001408: 20,2112           00256        V01N46            VN       0146
001409: 20,2113           33133        DSPLYMSK          OCT      33133
001410: 20,2114           13133        BOOLSMSK          OCT      13133
001411:
001412: 01,2211                                          BANK     01
001413: 01,2000                                          SETLOC   LOADDAP1
001414: 01,2000                                          BANK
001415:
001416: 01,2211                                          COUNT*   $$/R03
001417:
001418: 01,2211           35015        STIKLOAD          CAF      EBANK6
001419: 01,2212           54003                          TS       EBANK
001420: 01,2213  E6,1444                                 EBANK=   STIKSENS
001421: 01,2213           34745                          CA       RHCSCALE                              #  SET STICK SENSITIVITY TO CORRESPOND TO A
001422: 01,2214           70111                          MASK     DAPBOOLS                              #  MAXIMUM COMMANDED RATE (AT 42 COUNTS) OF
001423: 01,2215           10000                          CCS      A                                     #  20 D/S (NORMAL) OR 4 D/S (FINE), ACALED
001424: 01,2216           32340                          CA       NORMAL                                #  AT 45 D/S.
001425: 01,2217           62341                          AD       FINE
001426: 01,2220           55444                          TS       STIKSENS
001427: 01,2221           32343                          CA       -0.6D/S
001428: 01,2222           55476                          TS       -RATEDB                               #  LM-ONLY BREAKOUT LEVEL IS .6 D/S.
001429: 01,2223           34737                          CA       CSMDOCKD                              #  IF CSM-DOCKED, DIVIDE STICK SENSITIVITY
001430: 01,2224           70111                          MASK     DAPBOOLS                              #  BY 10.  NORMAL SCALING IS THEN 2 D/S AND
001431: 01,2225           00006                          EXTEND                                         #  FINE SCALING IS 0.4 D/S
001432: 01,2226           12235                          BZF      +7                                    #  BRANCH IF CSM IS NOT DOCKED.
001433: 01,2227           31444                          CA       STIKSENS
001434: 01,2230           00006                          EXTEND
001435: 01,2231           72342                          MP       1/10
001436: 01,2232           55444                          TS       STIKSENS
001437: 01,2233           32344                          CA       -0.3D/S                               #  CSM-DOCKED BREAKOUT LEVEL IS .3 D/S.
001438: 01,2234           55476                          TS       -RATEDB
001439:                                                                                                 #  Page 302
001440: 01,2235           00003                          RELINT
001441:
001442: 01,2236           32336        DAPDATA2          CAF      V0647
001443: 01,2237           04616                          TC       BANKCALL
001444: 01,2240           20353                          CADR     GOXDSPFR
001445: 01,2241           12247                          TCF      ENDR03                                #  V34E   TERMINATE. FIRST SET DB.  DO 1/ACCS
001446: 01,2242           12253                          TCF      DAPDAT2                               #  V33E   PROCEED
001447: 01,2243           12236                          TCF      DAPDATA2                              #         LOAD NEW DATA AND RECYCLE
001448: 01,2244           34751                          CAF      BIT3                                  #  BLANKS R3
001449: 01,2245           05464                          TC       BLANKET                               #                 LM
001450: 01,2246           15155                          TCF      ENDOFJOB
001451: 01,2247           00004        ENDR03            INHINT
001452: 01,2250           04674                          TC       IBNKCALL
001453: 01,2251           40115                          CADR     RESTORDB
001454: 01,2252           15472                          TCF      ENDEXT                                #  DOES RELINT
001455:
001456: 01,2253           40106        DAPDAT2           CS       FLGWRD10                              #  DETERMINE STAGE FROM APSFLAG
001457: 01,2254           74737                          MASK     APSFLBIT
001458: 01,2255           10000                          CCS      A
001459: 01,2256           32000                          CA       MINLMD
001460: 01,2257           62001                          AD       MINMINLM
001461: 01,2260           61326                          AD       LEMMASS                               #  LEMMASS MUST BE GREATER THAN EMPTY LEM
001462: 01,2261           00006                          EXTEND
001463: 01,2262           62236                          BZMF     DAPDATA2                              #  ASK FOR NEW MASSES
001464: 01,2263           30111                          CAE      DAPBOOLS
001465: 01,2264           74737                          MASK     CSMDOCKD
001466: 01,2265           00006                          EXTEND
001467: 01,2266           12274                          BZF      LEMALONE                              #  SKIP TEST ON CSMMASS IF NOT DOCKED.
001468: 01,2267           44741                          CS       MINCSM                                #  TEST CSM MASS
001469: 01,2270           61327                          AD       CSMMASS                               #  CSMMASS MUST BE GREATER THAN EMPTY CSM
001470: 01,2271           00006                          EXTEND
001471: 01,2272           62236                          BZMF     DAPDATA2                              #  ASK FOR NEW MASSES
001472: 01,2273           31327                          CAE      CSMMASS                               #  DOCKED:  MASS = CSMMASS + LEMMASS
001473: 01,2274           61326        LEMALONE          AD       LEMMASS                               #  LEM ALONE:  MASS = LEMMASS
001474: 01,2275           22007                          ZL
001475: 01,2276           53244                          DXCH     MASS
001476: 01,2277           00004                          INHINT
001477: 01,2300           04674                          TC       IBNKCALL                              #  SET DEADBANK AND COMPUTE MOMENTS OF
001478: 01,2301           40115                          CADR     RESTORDB                              #         INERTIA
001479: 01,2302           00003                          RELINT                                         #  PROCEED TO NOUN 48 (OR END).
001480:
001481: 01,2303           40106        DAPDATA3          CS       FLGWRD10
001482: 01,2304           74737                          MASK     APSFLBIT
001483: 01,2305           00006                          EXTEND                                         #  END ROUTINE IF LEM HAS STAGED.
001484: 01,2306           15472                          BZF      ENDEXT
001485: 01,2307           32337                          CAF      V06N48                                #  DISPLAY TRIM ANGLES AND REQUEST RESPONSE
001486: 01,2310           04616                          TC       BANKCALL
001487: 01,2311           20353                          CADR     GOXDSPFR
001488: 01,2312           05472                          TC       ENDEXT
001489: 01,2313           12320                          TCF      DPDAT3                                #  V33E GO DO TRIM (WAITLIST TO TRIMGIMB)
001490:
001491:                                                                                                 #  Page 303
001492: 01,2314           12307                          TCF      -5                                    #  LOAD NEW DATA AND RECYCLE
001493: 01,2315           34751                          CAF      BIT3
001494: 01,2316           05464                          TC       BLANKET                               #  BLANK R3
001495: 01,2317           15155                          TCF      ENDOFJOB
001496: 01,2320           34753        DPDAT3            CAF      BIT1
001497: 01,2321           05203                          TC       WAITLIST
001498: 01,2322  E6,1401                                 EBANK=   ROLLTIME
001499: 01,2322           03217 56066                    2CADR    TRIMGIMB
001500:
001501: 01,2324           15155                          TCF      ENDOFJOB                              #  DOES A RELINT
001502: 01,2325           32337        TRIMDONE          CAF      V50N48
001503: 01,2326           04616                          TC       BANKCALL                              #  TRIM IS FINISHED.  PLEASE TERMINATE R03
001504: 01,2327           20361                          CADR     GOMARK3R   -1
001505: 01,2330           05472                          TC       ENDEXT                                #  V34E TERMINATE
001506: 01,2331           05472                          TC       ENDEXT
001507: 01,2332           05472                          TC       ENDEXT
001508: 01,2333           36007                          CAF      OCT24                                 #  BIT5 TO CHANGE TO PERFORM, 3 TO BLANK 43
001509: 01,2334           05464                          TC       BLANKET
001510: 01,2335           15155                          TCF      ENDOFJOB
001511:
001512: 01,2336           01457        V0647             VN       0647
001513: 01,2337           01460        V06N48            VN       0648
001514:
001515: 01,2340  01,2337               V50N48            =        V06N48
001516:
001517: 01,2340           25101        NORMAL            DEC      .660214
001518:                                                                                                 #  NORMAL SCALING IS 20 D/S
001519: 01,2341           05220        FINE              DEC      .165054                               #  FINE STICK SCALING (4 D/S).
001520: 01,2342           03146        1/10              DEC      .1                                    #  FACTOR FOR CSM-DOCKED SCALING
001521: 01,2343           77445        -0.6D/S           DEC      -218       B-14
001522: 01,2344           77622        -0.3D/S           DEC      -109       B-14
001523:
001524:                                                                                                 #  Page 304
001525:                                                                                                 #  VERB 66        VEHICLES ARE ATTACHED. MOVE THIS VEHICLE STATE VECTOR TO
001526:                                                                                                 #                 OTHER VEHICLE STATE VECTOR.
001527:
001528:                                                                                                 #  USE SUBROUTINE GENTRAN.
001529:
001530: 07,2666                                          BANK     7
001531: 43,2000                                          SETLOC   EXTVERBS
001532: 43,2000                                          BANK
001533:
001534: 43,3163                                          COUNT*   $$/EXTVB
001535:
001536: 43,3163  E3,1626                                 EBANK=   RRECTHIS
001537:
001538: 43,3163           40104        ATTACHED          CS       FLAGWRD8
001539: 43,3164           74744                          MASK     SURFFBIT
001540: 43,3165           00006                          EXTEND
001541: 43,3166           12116                          BZF      ALM/END                               #  TURN ON OE AND EXIT IF SURFFLAG SET.
001542: 43,3167           34737                          CAF      PRIO10
001543: 43,3170           05105                          TC       FINDVAC
001544: 43,3171  E3,1626                                 EBANK=   RRECTHIS
001545:
001546: 43,3171           03174 66103                    2CADR    ATTACHIT
001547:
001548: 43,3173           05155                          TC       ENDOFJOB
001549:
001550: 43,3174           06042        ATTACHIT          TC       INTPRET
001551: 43,3175           77624                          CALL
001552: 43,3176           27410                                   INTSTALL
001553: 43,3177           43014                          SET      BON
001554: 43,3200           04063                                   MOONOTH
001555: 43,3201           04304                                   MOONTHIS
001556: 43,3202           67205                                   +3
001557: 43,3203           77614                          CLEAR
001558: 43,3204           04263                                   MOONOTH
001559: 43,3205           77776                          EXIT
001560: 43,3206           33231                          CAF      OCT51
001561: 43,3207           05544                          TC       GENTRAN
001562: 43,3210           01626                          ADRES    RRECTHIS                              #  OUR STATE VECTOR INTO OTHER VIA GENTRAN
001563: 43,3211           01554                          ADRES    RRECTOTH
001564:
001565: 43,3212           00003                          RELINT
001566: 43,3213           06042                          TC       INTPRET
001567: 43,3214           77624                          CALL                                           #  UPDATE R-OTHER, V-OTHER
001568: 43,3215           26757                                   PTOALEM
001569: 43,3216           45154                          LXA,2    CALL
001570: 43,3217           02030                                   PBODY
001571: 43,3220           26114                                   SVDWN1
001572: 43,3221           77776                          EXIT
001573:
001574: 43,3222           33232                          CAF      TCPINAD
001575:                                                                                                 #  Page 305
001576: 43,3223           50120                          INDEX    FIXLOC
001577: 43,3224           54052                          TS       QPRET
001578: 43,3225           04635                          TC       POSTJUMP
001579: 43,3226           27421                          CADR     INTWAKE                               #  FREE INTEGRATION AND EXIT.
001580:
001581: 43,3227           77634        TCPIN             RTB
001582: 43,3230           21051                                   PINBRNCH
001583:
001584: 43,3231           00051        OCT51             OCT      51
001585: 43,3232           67227        TCPINAD           CADR     TCPIN
001586:
001587:                                                                                                 #  VERB 96        SET QUITFLAT TO STOP INTEGRATION.
001588:
001589:                                                                                                 #         GO TO V37 WITH ERO TO CAUSE P00.
001590:                                                                                                 #                 STATEINT WILL CHECK QUITFLAG AND SKIP 1ST PASS,
001591:                                                                                                 #                         THUS ALLOWING A 10 MINUT PERIOD WITHOUT INTEGRATION.
001592:
001593: 43,3233           05504        VERB96            TC       UPFLAG                                #  QUITFLAG WILL CAUSE INTEGRATION TO EXIT
001594: 43,3234           00221                          ADRES    QUITFLAG                              #         AT NEXT TIMESTEP
001595:
001596: 43,3235           34755                          CAF      ZERO
001597: 43,3236           04635                          TC       POSTJUMP
001598: 43,3237           10040                          CADR     V37                                   #  GO TO P00
001599:
001600:                                                                                                 #  VERB 67:       DISPLAY OF W MATRIX
001601:
001602: 43,3240           02076        V67               TC       TESTXACT
001603: 43,3241           35017                          CAF      PRIO5
001604: 43,3242           05105                          TC       FINDVAC
001605: 43,3243  E4,1600                                 EBANK=   WWPOS
001606: 43,3243           02007 62064                    2CADR    V67CALL
001607:
001608: 43,3245           05155                          TC       ENDOFJOB
001609:
001610:                                                                                                 #  VERB 65        DISABLE U,V JETS DURING DPS BURNS
001611:
001612: 43,3246           05504        SNUFFOUT          TC       UPFLAG
001613: 43,3247           00115                          ADRES    SNUFFER
001614: 43,3250           02117                          TC       GOPIN
001615:
001616:                                                                                                 #  VERB 75        ENABLE U,V JETS DURING DPS BURNS
001617:
001618: 43,3251           05516        OUTSNUFF          TC       DOWNFLAG
001619: 43,3252           00115                          ADRES    SNUFFER
001620: 43,3253           02117                          TC       GOPIN
001621:
001622:                                                                                                 #  VERB 85        DISPLAY RR LOS AZIMUTH AND ELEVATION.
001623:
001624:                                                                                                 #  AZIMUTH IS THE ANGLE BETWEEN THE LOS AND THE X-Z NB PLANE, 0-90 DEG IN THE +Y HEMISPHERE,
001625:                                                                                                 #  360-270 DEG IN THE -Y HEMISPHERE.
001626:                                                                                                 #  Page 306
001627:                                                                                                 #
001628:                                                                                                 #  ELEVATION IS THE ANGLE BETWEEN +ZNB AND THE PROJECTIKON OF THE LOS INTO THE X-Z PLANE, 0-360 ABOUT +Y.
001629:
001630: 43,3254  E4,1600                                 EBANK=   RR-AZ
001631: 43,3254           02076        VERB85            TC       TESTXACT
001632: 43,3255           04635                          TC       POSTJUMP
001633: 43,3256           60000                          CADR     DSPRRLOS
001634:
001635: 40,2000                                          SETLOC   PINBALL1
001636: 40,2000                                          BANK
001637:
001638: 40,2000                                          COUNT*   $$/EXTVB
001639:
001640: 40,2000           35017        DSPRRLOS          CAF      PRIO5
001641: 40,2001           05105                          TC       FINDVAC
001642: 40,2002  E4,1600                                 EBANK=   RR-AZ
001643: 40,2002           02017 60104                    2CADR    RRLOSDSP
001644:
001645: 40,2004           34740                          CAF      PRIO4
001646: 40,2005           05146                          TC       PRIOCHNG
001647: 40,2006           32076                          CAF      V16N56
001648: 40,2007           04616                          TC       BANKCALL
001649: 40,2010           20353                          CADR     GOMARKFR
001650: 40,2011           05563                          TC       B5OFF
001651: 40,2012           05563                          TC       B5OFF
001652: 40,2013           05563                          TC       B5OFF
001653:
001654: 40,2014           34751                          CAF      BIT3
001655: 40,2015           05464                          TC       BLANKET
001656: 40,2016           05155                          TC       ENDOFJOB
001657:
001658: 40,2017           00006        RRLOSDSP          EXTEND
001659: 40,2020           30036                          DCA      CDUT
001660: 40,2021           52155                          DXCH     MPAC
001661: 40,2022           06042                          TC       INTPRET
001662: 40,2023           77624                          CALL
001663: 40,2024           46065                                   RRNBMPAC                              #  GET RR LOS IN BODY AXIS.
001664: 40,2025           00001                          STORE    0D                                    #  UNIT LOS
001665: 40,2026           14007                          STODL    6D
001666: 40,2027           06524                                   HI6ZEROS
001667: 40,2030           24011                          STOVL    8D
001668: 40,2031           00007                                   6D
001669: 40,2032           77656                          UNIT
001670: 40,2033           00007                          STORE    6D                                    #  UNIT OF LOS PROJ IN X-Z PLAND
001671: 40,2034           77641                          DOT
001672: 40,2035           06516                                   UNITZ
001673: 40,2036           24021                          STOVL    COSTH                                 #  16D
001674: 40,2037           06522                                   UNITX
001675: 40,2040           77641                          DOT
001676: 40,2041           00007                                   6D
001677: 40,2042           34023                          STCALL   SINTH                                 #  18D
001678:                                                                                                 #  Page 307
001679: 40,2043           47322                                   ARCTRIG
001680: 40,2044           43244                          BPL      DAD                                   #  INSURE DISPLAY OF 0-360 DEG.
001681: 40,2045           60047                                   +2
001682: 40,2046           06532                                   DPPOSMAX                              #  INTRODUCES AND ERROR OF B-28 REVS.
001683: 40,2047           26203                          STOVL    RR-ELEV
001684: 40,2050           00001                                   0D
001685: 40,2051           77641                          DOT
001686: 40,2052           06520                                   UNITY
001687: 40,2053           24023                          STOVL    SINTH
001688: 40,2054           00001                                   0D
001689: 40,2055           77641                          DOT
001690: 40,2056           00007                                   6D
001691: 40,2057           34021                          STCALL   COSTH
001692: 40,2060           47322                                   ARCTRIG
001693: 40,2061           43244                          BPL      DAD                                   #  INSURE DISPLAY OF 0-360 DEG.
001694: 40,2062           60064                                   +2
001695: 40,2063           06532                                   DPPOSMAX                              #  INTRODUCES AN ERROR OF B-28 REVS.
001696: 40,2064           02201                          STORE    RR-AZ
001697: 40,2065           77776                          EXIT
001698: 40,2066           34777                          CA       1SEC
001699: 40,2067           04616                          TC       BANKCALL
001700: 40,2070           01736                          CADR     DELAYJOB
001701:
001702: 40,2071           34747                          CA       BIT5
001703: 40,2072           71043                          MASK     EXTVBACT
001704: 40,2073           10000                          CCS      A
001705: 40,2074           02017                          TC       RRLOSDSP
001706: 40,2075           05472                          TC       ENDEXT
001707:
001708: 40,2076           04070        V16N56            VN       1656
001709:

End of include-file EXTENDED_VERBS.agc.  Parent file is MAIN.agc


