
Source Code


000002:                                                                                                  ## Copyright:   Public domain.
000003:                                                                                                  ## Filename:    EXTENDED_VERBS.agc
000004:                                                                                                  ## Purpose:     A section of Luminary 1C, revision 131.
000005:                                                                                                  ##              It is part of the source code for the Lunar Module's (LM)
000006:                                                                                                  ##              Apollo Guidance Computer (AGC) for Apollo 13.
000007:                                                                                                  ##              This file is intended to be a faithful transcription, except
000008:                                                                                                  ##              that the code format has been changed to conform to the
000009:                                                                                                  ##              requirements of the yaYUL assembler rather than the
000010:                                                                                                  ##              original YUL assembler.
000011:                                                                                                  ## Reference:   pp. 263-302
000012:                                                                                                  ## Contact:     Ron Burkey <info@sandroid.org>.
000013:                                                                                                  ## Website:     www.ibiblio.org/apollo/index.html
000014:                                                                                                  ## Mod history: 05/08/03 RSB.   Began transcribing.
000015:                                                                                                  ##              05/14/05 RSB    Corrected website reference above.
000016:                                                                                                  ##              2010-10-25 JL   Added missing # in comment.
000017:                                                                                                  ##              2011-05-07 JL   Flagged SBANK= workarounds for future removal.
000018:                                                                                                  ##              2017-01-06 RSB  Page numbers now agree with those on the
000019:                                                                                                  ##                              original harcopy, as opposed to the PDF page
000020:                                                                                                  ##                              numbers in 1701.pdf.
000021:


000023: 07,2666                                           BANK     7
000024: 43,2000                                           SETLOC   EXTVERBS
000025: 43,2000                                           BANK
000026:
000027: 43,2000  E5,1737                                  EBANK=   OGC
000028:
000029: 43,2000                                           COUNT*   $$/EXTVB
000030:
000031:                                                                                                  #  FAN-OUT
000032:
000033: 43,2000           50154        GOEXTVB            INDEX    MPAC                                  #  VERB-40 IS IN MPAC
000034: 43,2001           02002                           TC       LST2FAN                               #  FAN AS BEFROE.
000035:
000036: 43,2002           02126        LST2FAN            TC       VBZERO                                #  VB40 ZERO (USED WITH NOUN 20 OR 72 ONLY)
000037: 43,2003           02200                           TC       VBCOARK                               #  VB41 COARSE ALIGN (USED WITH NOUN 20 OR
000038:                                                                                                  #                                72 ONLY)
000039: 43,2004           02371                           TC       IMUFINEK                              #  VB42 FINE ALIGN IMU
000040: 43,2005           02733                           TC       IMUATTCK                              #  VB43 LOAD IMU ATTITUDE ERROR METERS.
000041: 43,2006           02305                           TC       RRDESEND                              #  VB44 TERMINATE CONTINUOUS DESIGNATE
000042: 43,2007           02116                           TC       ALM/END                               #  VB45 SPARE
000043: 43,2010           02116                           TC       ALM/END                               #  VB46 SPARE
000044: 43,2011           02430                           TC       V47TXACT                              #  VB47 AGS INITIALIZATION
000045: 43,2012           03156                           TC       DAPDISP                               #  VB48 LOAD A/P DATA
000046: 43,2013           13036                           TCF      CREWMANU                              #  VB49 START AUTOMATIC ATTITUDE MANEUVER
000047: 43,2014           02422                           TC       GOLOADLV                              #  VB50 PLEASE PERFORM
000048: 43,2015           02116                           TC       ALM/END                               #  VB51 SPARE
000049: 43,2016           02422                           TC       GOLOADLV                              #  VB52 PLEASE MARK X -- RETICLE.
000050: 43,2017           02422                           TC       GOLOADLV                              #  VB53 PLEASE MARK Y -- RETICLE.
000051: 43,2020           02422                           TC       GOLOADLV                              #  VB54 PLEASE MARK X OR Y RETICLE
000052: 43,2021           02442                           TC       ALINTIME                              #  VB55 ALIGN TIME
000053: 43,2022           03045                           TC       TRMTRACK                              #  VB56 TERMINATE TRACKING -- P20 + P25
000054: 43,2023           02325                           TC       LRON                                  #  VB57 PERMIT LANDING RADAR UPDATES
000055: 43,2024           02366                           TC       LROFF                                 #  VB58 INHIBIT LANDING RADAR UPDATES
000056: 43,2025           02147                           TC       LRPOS2K                               #  VB59 COMMAND LR TO POSITION 2
000057: 43,2026           02175                           TC       RATEDISP                              #  VB60 DISPLAY DAP ESTIMATED RATES
000058: 43,2027           02165                           TC       DAPATTER                              #  VB61 DISPLAY DAP ATTITUDE ERROR
000059: 43,2030           02170                           TC       TOTATTER                              #  VB62 DISPLAY TOTAL ATTITUDE ERROR
000060: 43,2031           02455                           TC       R04                                   #  VB63 SAMPLE RADAR ONCE PER SECOND
000061: 43,2032           02725                           TC       VB64                                  #  VB64 CALCULATE, DISPLAY S-BAND ANT ANGLES
000062: 43,2033           03246                           TC       SNUFFOUT                              #  VB65 DISABLE U,V JETS DURING DPS BURNS
000063: 43,2034           03163                           TC       ATTACHED                              #  VB66 ATTACHED         MOVE THIS TO OTHER STATE
000064: 43,2035           03240                           TC       V67                                   #  VB67 W MATRIX MONITOR
000065: 43,2036           02116                           TC       ALM/END                               #  VB68 SPARE
000066: 43,2037           02037        VERB69             TC       VERB69                                #  VB69 FORCE A HARDWARE RESTART
000067: 43,2040           03751                           TC       V70UPDAT                              #  VB70 UPDATE LIFTOFF TIME.
000068: 43,2041           03753                           TC       V71UPDAT                              #  VB71 UNIVERSAL UPDATE -- BLOCK ADDRESS
000069: 43,2042           03755                           TC       V72UPDAT                              #  VB72 UNIVERSAL UPDATE -- SINGLE ADDRESS
000070: 43,2043           03757                           TC       V73UPDAT                              #  VB73 UPDATE AGC TIME (OCTAL)
000071: 43,2044           03066                           TC       DNEDUMP                               #  VB74 INITIALIZE DOWN-TELEMETRY PROGRAM
000072:                                                                                                  #        FOR ERASABLE DUMP.
000073: 43,2045           03251                           TC       OUTSNUFF                              #  VB75 ENABLE U,V JETS DURING DPS BURNS.


000075: 43,2046           03025                           TC       MINIMP                                #  VB76 MINIMUM IMPULSE MODE
000076: 43,2047           03030                           TC       NOMINIMP                              #  VB77 RATE COMMAND MODE
000077: 43,2050           02445                           TC       R77                                   #  VB78 START LR SPURIOUS RETURN TEST
000078: 43,2051           02655                           TC       R77END                                #  VB79 TERMINATE LR SPURIOUS RETURN TEST
000079: 43,2052           03072                           TC       LEMVEC                                #  VB80 UPDATE LEM STATE VECTOR
000080: 43,2053           03075                           TC       CSMVEC                                #  VB81 UPDATE CSM STATE VECTOR
000081: 43,2054           02772                           TC       V82PERF                               #  VB82 REQUEST ORBIT PARAM DISPLAY (R30)
000082: 43,2055           03002                           TC       V83PERF                               #  VB83 REQUEST REND PARAM DISPLAY (R31)
000083: 43,2056           02116                           TC       ALM/END                               #  VB84 SPARE
000084: 43,2057           03254                           TC       VERB85                                #  VB85 DISPLAY RR LOS AZ AND ELEV
000085: 43,2060           02116                           TC       ALM/END                               #  VB86 SPARE
000086: 43,2061           02116                           TC       ALM/END                               #  VB87 SPARE
000087: 43,2062           02116                           TC       ALM/END                               #  VB88 SPARE
000088: 43,2063           03010                           TC       V89PERF                               #  VB89 ALIGN XORZ LEM AXIS ALONG LOS (R63)
000089: 43,2064           03017                           TC       V90PERF                               #  VB 90 OUT OF PLANE RENDEZVOUS DISPLAY
000090: 43,2065           03121                           TC       GOSHOSUM                              #  VB91 DISPLAY BANK SUM.
000091: 43,2066           03105                           TC       SYSTEST                               #  VB92 OPERAT IMU PERFORMANCE TEST.
000092: 43,2067           03114                           TC       WMATRXNG                              #  VB93 CLEAR RENDWFLG
000093: 43,2070           02116                           TC       ALM/END                               #  VB94 SPARE
000094: 43,2071           03102                           TC       UPDATOFF                              #  VB95 NO STATE VECTOR UPDATE ALLOWED
000095: 43,2072           03233                           TC       VERB96                                #  VB96 INTERRUPT INTEGRATION AND GO TO P00
000096: 43,2073           02422                           TC       GOLOADLV                              #  VB97 PLEASE VERIFY ENGINE FAILURE
000097: 43,2074           02116                           TC       ALM/END                               #  VB98 SPARE
000098: 43,2075           02422                           TC       GOLOADLV                              #  VB99 PLEASE ENABLE ENGINE
000099:
000100:                                                                                                  #  END OF EXTENDED VERB FAN
000101:
000102: 43,2076           11043        TESTXACT           CCS      EXTVBACT                              #  ARE EXTENDED VERBS BUSY
000103: 43,2077           02116                           TC       ALM/END                               #  YES, TURN ON OPERATOR LIGHT
000104: 43,2100           30100                           CA       FLAGWRD4                              #  ARE PRIORITY DISPLAYS USING DSKY
000105: 43,2101           72125                           MASK     OC24100
000106: 43,2102           10000                           CCS      A
000107: 43,2103           02116                           TC       ALM/END                               #  YES
000108: 43,2104           34362                           CAF      OCT25                                 #  SET BITS 1, 3, AND 5
000109: 43,2105           55043        SETXTACT           TS       EXTVBACT                              #  NO.  SET FLAG TO SHOW EXT VERB DISPLAY
000110:                                                                                                  #  SYSTEM BUSY
000111:
000112: 43,2106           30002                           CA       Q
000113: 43,2107           54155                           TS       MPAC       +1
000114:
000115: 43,2110           44752                           CS       TWO                                   #  BLANK EVERYTHING EXCEPT MM AND VERB
000116: 43,2111           04154                           TC       NVSUB
000117: 43,2112           02113                           TC       +1
000118: 43,2113           10067                           CCS      NEWJOB
000119: 43,2114           05122                           TC       CHANG1
000120:
000121: 43,2115           00155                           TC       MPAC       +1
000122:
000123: 43,2116     5472               TERMEXTV           EQUALS   ENDEXT


000125: 43,2116     5472               ENDEXTVB           EQUALS   ENDEXT
000126:
000127: 43,2116           04364        ALM/END            TC       FALTON                                #  TURN ON OPERATOR ERROR LIGHT
000128: 43,2117           04635        GOPIN              TC       POSTJUMP
000129: 43,2120           21051                           CADR     PINBRNCH
000130:
000131: 43,2121           31010        CHKP00H            CA       MODREG                                #  CHECK FOR P00 OR P00-.
000132: 43,2122           00006                           EXTEND
000133: 43,2123           16745                           BZF      TCQ
000134: 43,2124           02116                           TC       ALM/END
000135:
000136: 43,2125           24100        OC24100            OCT      24100
000137:


000139:                                                                                                  #  VBZERO        VERB 40         DESCRIPTION
000140:
000141:                                                                                                  #        1.      REQUIRE NOUN 20 (ICDU ANGLES) OR NOUN 72 (RCDU ANGLES).
000142:                                                                                                  #        2.      FOR N20, CHECK IMUCADR IN AN EFFORT TO AVOID A 1210 RESTART.
000143:                                                                                                  #                FOR N72, CHECK IF EITHER RADAR IS IN USE.
000144:                                                                                                  #        3.      EXECUTE THE CDU ZERO.
000145:                                                                                                  #        4.      STALL UNTIL THE ZERO IS DONE.
000146:                                                                                                  #        5.      DON'T DIFFERENTIATE BETWEEN A BAD OR GOOD RETURN.
000147:                                                                                                  #        6.      EXIT, RE-ESTABLISHING THE INTERRUPTED DISPLAY (IF ANY).
000148:
000149: 43,2126           02203        VBZERO             TC       OP/INERT
000150: 43,2127           02131                           TC       IMUZEROK                              #  RETURN HERE IF NOUN = ICDU(20)
000151: 43,2130           02140                           TC       RRZEROK                               #  RETURN HERE IF NOUN = RCDU(72)
000152: 43,2131           02436        IMUZEROK           TC       CKMODCAD
000153: 43,2132           04616                           TC       BANKCALL                              #  KEYBOARD REQ FOR ISS CDUZERO
000154: 43,2133           16705                           CADR     IMUZERO
000155:
000156: 43,2134           04616                           TC       BANKCALL                              #  STALL
000157: 43,2135           17707                           CADR     IMUSTALL
000158: 43,2136           02137                           TC       +1
000159:
000160: 43,2137           02117                           TC       GOPIN                                 #  IMUZERO
000161:
000162: 43,2140           02700        RRZEROK            TC       RDRUSECK
000163: 43,2141           04616                           TC       BANKCALL
000164: 43,2142           52354                           CADR     RRZERO
000165:
000166: 43,2143           04616        RWAITK             TC       BANKCALL
000167: 43,2144           17705                           CADR     RADSTALL
000168: 43,2145           12146                           TCF      +1
000169: 43,2146           02117                           TC       GOPIN                                 #  RRZERO
000170:
000171:                                                                                                  #  LRPOS2K       VERB 59         DESCRIPTION
000172:                                                                                                  #        COMMAND LANDING RADAR TO POSITION 2
000173:
000174:                                                                                                  #        1.      EXIT WITH OP ERROR IF SOMEONE IS USING EITHER RADAR.
000175:                                                                                                  #        2.      ALARM WITH CODE 523 IF POS 2 IS NOT INDICATED WITHIN
000176:                                                                                                  #                THE PRESCRIBED TIME.
000177:                                                                                                  #        3.      RE-ESTABLISH THE DISPLAYS.
000178:
000179: 43,2147           06042        LRPOS2K            TC       INTPRET
000180: 43,2150           77614                           BOFF                                           #  IF AVG G ON?
000181: 43,2151           03752                                    AVEGFLAG
000182: 43,2152           66161                                    LRPOS2K1                              #  NO
000183: 43,2153           77776                           EXIT                                           #  YES: IS P63 GOING?
000184: 43,2154           05321                           TC       CHECKMM
000185: 43,2155           00077                           DEC      63         B-14
000186: 43,2156           12162                           TCF      LRPOS2K1   +1                         #  NO: COMMAND LR TO POS2
000187: 43,2157           04616                           TC       BANKCALL
000188: 43,2160           53541                           CADR     V59GP63                               #  YES: GO SET UP HIGATE JOB
000189: 43,2161           77776        LRPOS2K1           EXIT


000191: 43,2162           02700                           TC       RDRUSECK                              #  CHECK USE OF LR
000192: 43,2163           04616                           TC       BANKCALL
000193: 43,2164           53531                           CADR     LRP2COMM                              #  COMMAND LR TO POS2
000194:
000195:                                                                                                  #  V61   VERB 61, DISPLAY DAP ATTITUDE ERRORS ON FDAI ATTITUDE ERROR NEEDLES.
000196:
000197: 43,2165           05516        DAPATTER           TC       DOWNFLAG
000198: 43,2166           00013                           ADRES    NEEDLFLG
000199: 43,2167           12172                           TCF      TOTATTER   +2
000200:
000201:                                                                                                  #  V62   VERB 62, DISPLAY TOTAL ATTITUDE ERRORS ON FDAI ATTITUDE ERROR NEEDLES.
000202:
000203: 43,2170           05504        TOTATTER           TC       UPFLAG
000204: 43,2171           00013                           ADRES    NEEDLFLG
000205: 43,2172           05516                 +2        TC       DOWNFLAG
000206: 43,2173           00000                           ADRES    NEED2FLG
000207: 43,2174           02117                           TC       GOPIN
000208:
000209:                                                                                                  #  V60   VERB 60, DISPLAY DAP ESTIMATED RATES ON FDAI ATTITUDE ERROR NEEDLES.
000210:
000211: 43,2175           05504        RATEDISP           TC       UPFLAG
000212: 43,2176           00000                           ADRES    NEED2FLG
000213: 43,2177           02117                           TC       GOPIN
000214:


000216:                                                                                                  #  VBCOARK       VERB 41         DESCRIPTION
000217:                                                                                                  #        COARSE ALIGN IMU OR RADAR
000218:
000219:                                                                                                  #        1.      REQUIRE NOUN 20 OR NOUN 72 OR TURN ON OPERATOR ERROR.
000220:                                                                                                  #        2.      REQUIRE EXT VERB DISPLAY SYS AVAILABLE OR TURN ON OPERATOR ERROR LIGHT AND GO TO PINBRNCH.
000221:                                                                                                  #                                *** CASE 1, NOUN 20 (ICDU ANGLES) ***
000222:                                                                                                  #        3.      SET EXT VERB DISPLAY ACTIVE FLAG.
000223:                                                                                                  #        4.      DISPLAY FLASHING V25,N22 (LOAD NEW ICDU ANGLES).
000224:                                                                                                  #                RESPONSES
000225:                                                                                                  #                A.      TERMINATE
000226:                                                                                                  #                        1.      RELEASE EXT VERB DISPLAY SYSTEM.
000227:                                                                                                  #                B.      PROCEED
000228:                                                                                                  #                        1.      COARSE ALIGN TO THE EXISTING THETAD'S (ICORK2).
000229:                                                                                                  #                C.      ENTER
000230:                                                                                                  #                        1.      COARSE ALIGN TO THE LOADED THETAD'S (ICORK2).
000231:                                                                                                  #  ICORK2
000232:                                                                                                  #        1.      RE-DISPLAY VERB 41.
000233:                                                                                                  #        2.      EXECUTE IMUCCARS (IMU COARSE ALIGN).
000234:                                                                                                  #        3.      EXECUTE IMUSTALL (ALLOW TIME FOR DATA TRANSFER).
000235:                                                                                                  #        4.      RELEASE EXT VERB DISPLAY SYSTEM.
000236:                                                                                                  #                        *** CASE 2, NOUN 72 (RCDU ANGLES) ***
000237:                                                                                                  #                EXIT WITH OP ERROR IF SOMEONE IS USING EITHER RADAD.
000238:                                                                                                  #        5.      DISPLAY FLASHING V24, N73 (LOAD NEW RR TRUNNION ANGLE AND NEW SHAFT ANGLE).
000239:                                                                                                  #                RESPONSES
000240:                                                                                                  #                A.      TERMINATE
000241:                                                                                                  #                        1.      RELEASE EXT VERB DISPLAY SYS.
000242:                                                                                                  #                B.      PROCEED OR ENTER
000243:                                                                                                  #                        1.      EXECUTE AURLOKON (ASK OPERATOR FOR LOCK-ON REQUIREMENTS).
000244:                                                                                                  #                        2.      RE-DISPLAY VERB 41
000245:                                                                                                  #                        3.      SCHEDULE RRDESK2 WITH PRIORITY 20.
000246:                                                                                                  #                        4.      RELEASE EXT VERB DISPLAY SYS.
000247:                                                                                                  #  AURLOKON
000248:                                                                                                  #        1.      FLASH V04 N12 R1 = 00006 R2 = 00002
000249:                                                                                                  #                RESPONSES
000250:                                                                                                  #                A.      TERMINATE
000251:                                                                                                  #                B.      PROCEED
000252:                                                                                                  #                        1.      RESET LOCK-ON SWITCH.
000253:                                                                                                  #                        2.      SET CONTINUOUS DESIGNATE FLAG
000254:                                                                                                  #                        3.      DISABLE R25
000255:                                                                                                  #                C.      V22 E 1 E, R1 = 00001, PROCEED
000256:                                                                                                  #                        1.      SET LOCK-ON SWITCH
000257:
000258: 43,2200           02203        VBCOARK            TC       OP/INERT
000259: 43,2201           02214                           TC       IMUCOARK                              #  RETURN HERE IF NOUN = ICDU (20)
000260: 43,2202           02236                           TC       RRDESNBK                              #  RETURN HERE IF NOUN = RCDU (72)
000261:
000262:                                                                                                  #  RETURNS TO L+1 IF IMU OR L+2 IF RR.
000263:
000264: 43,2203           46007        OP/INERT           CS       OCT24
000265: 43,2204           61001                           AD       NOUNREG
000266: 43,2205           00006                           EXTEND


000268: 43,2206           16745                           BZF      TCQ                                   #  IF = 20.
000269:
000270: 43,2207           62213                           AD       RRIMUDIF                              #  -52
000271: 43,2210           00006                           EXTEND
000272: 43,2211           16742                           BZF      Q+1
000273:
000274: 43,2212           02116                           TC       ALM/END                               #  ILLEGAL.
000275:
000276: 43,2213           77713        RRIMUDIF           DEC      -52        B-14                       #  THE IMU
000277: 43,2214           02436        IMUCOARK           TC       CKMODCAD
000278: 43,2215           02076                           TC       TESTXACT                              #  COARSE ALIGN FROM KEYBOARD.
000279: 43,2216           32234                           CAF      VNLODCDU                              #  CALL FOR THETAD LOAD
000280: 43,2217           04616                           TC       BANKCALL
000281: 43,2220           20334                           CADR     GOXDSPF
000282: 43,2221           05472                           TC       TERMEXTV
000283: 43,2222           12223                           TCF      +1
000284:
000285: 43,2223           32235        ICORK2             CAF      IMUCOARV                              #  RE-DISPLAY COARSE ALIGN VERB
000286: 43,2224           04616                           TC       BANKCALL
000287: 43,2225           20621                           CADR     EXDSPRET
000288:
000289: 43,2226           04616                           TC       BANKCALL                              #  CALL MODE SWITCHING PROG
000290: 43,2227           16771                           CADR     IMUCOARS
000291:
000292: 43,2230           04616                           TC       BANKCALL                              #  STALL
000293: 43,2231           17707                           CADR     IMUSTALL
000294: 43,2232           05472                           TC       ENDEXTVB
000295: 43,2233           05472                           TC       ENDEXTVB
000296:
000297: 43,2234           06226        VNLODCDU           VN       2522
000298: 43,2235           12200        IMUCOARV           VN       4100
000299:


000301:                                                                                                  #  DESIGNATE TO DESIRED GIMBAL ANGLES.
000302:
000303: 43,2236           02700        RRDESNBK           TC       RDRUSECK
000304: 43,2237           02076                           TC       TESTXACT
000305: 43,2240           42324                           CS       OCT41000                              #  TERMINATE PRESENT DESIGNATION
000306: 43,2241           00004                           INHINT                                         #  RELINT DONE IN GOXDSPF
000307: 43,2242           70110                           MASK     RADMODES
000308: 43,2243           54110                           TS       RADMODES
000309:
000310: 43,2244           32263                           CAF      VNLDRCDU                              #  ASK FOR GIMBAL ANGLES.
000311: 43,2245           04616                           TC       BANKCALL
000312: 43,2246           20334                           CADR     GOXDSPF
000313: 43,2247           05472                           TC       TERMEXTV
000314: 43,2250           12244                           TCF      -4                                    #  V33
000315:
000316: 43,2251           04616                           TC       BANKCALL                              #  ASK OP FOR LOCK ON REQUIREMENTS.
000317: 43,2252           46000                           CADR     AURLOKON
000318:
000319: 43,2253           32235                           CAF      OPTCOARV                              #  RE-DISPLAY OUR OWN VERB
000320: 43,2254           04616                           TC       BANKCALL
000321: 43,2255           20621                           CADR     EXDSPRET
000322:
000323: 43,2256           34736                           CAF      PRIO20
000324: 43,2257           05105                           TC       FINDVAC
000325: 43,2260  E7,1456                                  EBANK=   LOSCOUNT
000326: 43,2260           02264 66107                     2CADR    RRDESK2
000327:
000328: 43,2262           15472                           TCF      TERMEXTV                              #  FREES DISPLAY
000329:
000330: 43,2263           06111        VNLDRCDU           VN       2473
000331: 43,2264  43,2235               OPTCOARV           EQUALS   IMUCOARV                              #  DIFFERENT NOUNS.
000332:
000333: 43,2264           04616        RRDESK2            TC       BANKCALL
000334: 43,2265           52506                           CADR     RRDESNB
000335:
000336: 43,2266           02267                           TC       +1                                    #  DUMMY NEEDED SINCE DESRETRN DOES INCR
000337: 43,2267           30167                           CA       PRIORITY
000338: 43,2270           75004                           MASK     LOW9
000339: 43,2271           10000                           CCS      A
000340: 43,2272           50000                           INDEX    A
000341: 43,2273           54000                           TS       A                                     #  RELEASE THIS JOB'S VAC AREA.
000342: 43,2274           40000                           COM                                            #  INSURE ENDOFJOB DOES A NOVAC END (BZMF).
000343: 43,2275           26167                           ADS      PRIORITY
000344: 43,2276           04616                           TC       BANKCALL                              #  WAIT FOR COMPLETION OF DESIGNATE
000345: 43,2277           17705                           CADR     RADSTALL
000346: 43,2300           02302                           TC       +2                                    #  BADEND -- NO LOCKON OR OUT OF LIMITS
000347: 43,2301           05155                           TC       ENDOFJOB                              #  GOODEND -- LOCKON ACHIEVED
000348: 43,2302           05567                           TC       ALARM
000349: 43,2303           00503                           OCT      503                                   #  TURN ON ALARM LIGHT -- 503 DESIGNATE FAIL


000351: 43,2304           05155                           TC       ENDOFJOB
000352:
000353: 43,2305           10110        RRDESEND           CCS      RADMODES                              #  TERMINATE CONTINOUS DESIGNATE ONLY
000354: 43,2306           12117                           TCF      GOPIN
000355: 43,2307           12117                           TCF      GOPIN
000356: 43,2310           12311                           TCF      +1
000357: 43,2311           42324                           CS       OCT41000                              #  BEGDES GOES TO ENDRADAR
000358: 43,2312           00004                           INHINT                                         #  RELINT DONE IN DOWNFLAG
000359: 43,2313           70110                           MASK     RADMODES
000360: 43,2314           54110                           TS       RADMODES
000361: 43,2315           06011                           TC       CLRADMOD
000362: 43,2316           34777                           CAF      1SEC
000363: 43,2317           04616                           TC       BANKCALL
000364: 43,2320           01736                           CADR     DELAYJOB
000365: 43,2321           05516                           TC       DOWNFLAG                              #  ENABLE R25 GIMBAL MONITOR
000366: 43,2322           00126                           ADRES    NORRMON
000367: 43,2323           12117                           TCF      GOPIN
000368: 43,2324           41000        OCT41000           OCT      41000                                 #  CONTINOUS DESIGNATE -- DESIGNATE
000369:


000371: 23,2000                                           BANK     23
000372: 23,2000                                           SETLOC   EXTVB1
000373: 23,2000                                           BANK
000374: 23,2000                                           COUNT*   $$/EXTVB
000375:
000376: 23,2000           04645        AURLOKON           TC       MAKECADR
000377: 23,2001           55112                           TS       DESRET
000378: 23,2002           34752                           CAF      TWO
000379: 23,2003           55051                           TS       OPTIONX    +1
000380: 23,2004           36245                           CAF      SIX                                   #  OPTION CODE FOR V04N12
000381: 23,2005           55050                           TS       OPTIONX
000382:
000383: 23,2006           32037                 -5        CAF      V04N1272
000384: 23,2007           04616                           TC       BANKCALL                              #  R2    00001   LOCK-ON
000385: 23,2010           20353                           CADR     GOMARKFR
000386: 23,2011           15472                           TCF      ENDEXT                                #  V34
000387: 23,2012           12017                           TCF      +5                                    #  V33
000388: 23,2013           12006                           TCF      -5                                    #  V32
000389: 23,2014           34751                           CAF      BIT3
000390: 23,2015           05464                           TC       BLANKET
000391: 23,2016           05155                           TC       ENDOFJOB
000392:
000393: 23,2017           31051                 +5        CA       OPTIONX    +1
000394: 23,2020           74752                           MASK     BIT2
000395: 23,2021           10000                           CCS      A
000396: 23,2022           12026                           TCF      NOLOKON
000397: 23,2023           05504                           TC       UPFLAG
000398: 23,2024           00012                           ADRES    LOKONSW
000399: 23,2025           12034                           TCF      AURLKON1
000400:
000401: 23,2026           05516        NOLOKON            TC       DOWNFLAG                              #  IF NO LOCK-ON, SET BIT15 OF RADMADES TO
000402: 23,2027           00012                           ADRES    LOKONSW                               #  INDICATE THAT CONTINUOUS DESIGNATION IS
000403: 23,2030           05504                           TC       UPFLAG                                #  WANTED (TO BE TERMINATED BY V44.)
000404: 23,2031           00264                           ADRES    CDESFLAG
000405: 23,2032           05504                           TC       UPFLAG                                #  SET NO RR ANGLE MONITOR FLAG.
000406: 23,2033           00126                           ADRES    NORRMON                               #  DISABLE R25 RR GIMBAL MONITOR IN T4RUPT
000407: 23,2034           00003        AURLKON1           RELINT
000408: 23,2035           31112                           CA       DESRET
000409: 23,2036           14640                           TCF      BANKJUMP
000410:
000411: 23,2037           01014        V04N1272           VN       412
000412: 23,2040           77757        -LOKONFG           OCT      -20
000413:
000414: 43,2325                                           BANK     43
000415: 43,2000                                           SETLOC   EXTVERBS
000416: 43,2000                                           BANK
000417: 43,2325                                           COUNT*   $$/EXTVB
000418:
000419: 43,2325           02076        LRON               TC       TESTXACT
000420:


000422: 43,2326           32365        DSP68              CAF      V06N68
000423: 43,2327           04616                           TC       BANKCALL
000424: 43,2330           20353                           CADR     GOMARKFR
000425: 43,2331           02363                           TC       B1+5OFF
000426: 43,2332           02354                           TC       SET57
000427: 43,2333           05155                           TC       ENDOFJOB
000428:
000429: 43,2334           04616        WAIT68             TC       BANKCALL
000430: 43,2335           01735                           CADR     2SECDELY
000431:
000432: 43,2336           34361                           CAF      OCT21
000433: 43,2337           71043                           MASK     EXTVBACT
000434: 43,2340           00006                           EXTEND
000435: 43,2341           15472                           BZF      ENDEXT
000436:
000437: 43,2342           74747                           MASK     BIT5
000438: 43,2343           10000                           CCS      A
000439: 43,2344           12326                           TCF      DSP68
000440:
000441: 43,2345           32365        DSP5068            CAF      V50N68
000442: 43,2346           04616                           TC       BANKCALL
000443: 43,2347           20361                           CADR     GOMARK3R   -1
000444: 43,2350           12363                           TCF      B1+5OFF
000445: 43,2351           12363                           TCF      B1+5OFF
000446: 43,2352           12357                           TCF      RESET57
000447:
000448: 43,2353           12334                           TCF      WAIT68
000449:
000450: 43,2354           05504        SET57              TC       UPFLAG
000451: 43,2355           00254                           ADRES    LRINH
000452:
000453: 43,2356           15563                           TCF      B5OFF
000454:
000455: 43,2357           05516        RESET57            TC       DOWNFLAG
000456: 43,2360           00254                           ADRES    LRINH
000457:
000458: 43,2361           34362                           CAF      OCT25
000459: 43,2362           05565                           TC       B5OFF      +2
000460:
000461: 43,2363           44361        B1+5OFF            CS       OCT21
000462: 43,2364           15564                           TCF      B5OFF      +1
000463:
000464: 43,2365     4361               OCT21              EQUALS   ND1
000465:
000466: 43,2365           01504        V06N68             VN       0668
000467: 43,2366  43,2365               V50N68             =        V06N68
000468:
000469: 43,2366           05516        LROFF              TC       DOWNFLAG                              #  INHIBIT INCORPORATION OF LR(?) DATA   V58
000470: 43,2367           00254                           ADRES    LRINH
000471: 43,2370           12117                           TCF      GOPIN
000472:


000474: 43,2371  E5,1737                                  EBANK=   OGC
000475:


000477:                                                                                                  #  IMUFINEK      VERB 42         DESCRIPTION
000478:                                                                                                  #        FINE ALIGN IMU
000479:
000480:                                                                                                  #        1.      REQUIRE EXT VERB DISPLAY AVAILABLE AND SET BUSY FLAG OR TURN ON OPER ERROR AND GO TO PINBRNCH.
000481:                                                                                                  #        2.      DISPLAY FLASHING V25,N93....LOAD DELTA GYRO ANGLES....
000482:                                                                                                  #                RESPONSES
000483:                                                                                                  #                A.      TERMINATE
000484:                                                                                                  #                        1.      RELEASE EXT VERB DISPLAY SYSTEM.
000485:                                                                                                  #                B.      PROCEED OR ENTER
000486:                                                                                                  #                        1.      RE-DISPLAY VERB 42
000487:                                                                                                  #                        2.      EXECUTE IMUFINE (IMU FIVE ALIGN MODE SWITCHING).
000488:                                                                                                  #                        3.      EXECUTE IMUSTALL (ALLOW FOR DATA TRANSFER)
000489:                                                                                                  #                                A.      FAILED
000490:                                                                                                  #                                        1.      RELEASE EXT VERB DISPLAY SYSTEM.
000491:                                                                                                  #                                B.      GOOD
000492:                                                                                                  #                                        1.      EXECUTE IMUPULSE (TORQUE IRIGS).
000493:                                                                                                  #                                        2.      EXECUTE IMUSTALL AND RELEASE EXT VERB DISPLAY SYSTEM.
000494:
000495: 43,2371           02436        IMUFINEK           TC       CKMODCAD
000496: 43,2372           02076                           TC       TESTXACT                              #  FINE ALIGN WITH GYRO TORQUING.
000497: 43,2373           32420                           CAF      VNLODGYR                              #  CALL FOR LOAD OF GYRO COMMANDS
000498: 43,2374           04616                           TC       BANKCALL
000499: 43,2375           20334                           CADR     GOXDSPF
000500: 43,2376           05472                           TC       TERMEXTV
000501: 43,2377           02400                           TC       +1                                    #  PROCEED WITHOUT A LOAD
000502:
000503: 43,2400           32421                           CAF      IMUFINEV                              #  RE-DISPLAY OUR OWN VERB
000504: 43,2401           04616                           TC       BANKCALL
000505: 43,2402           20621                           CADR     EXDSPRET
000506:
000507: 43,2403           04616                           TC       BANKCALL                              #  CALL MODE SWITCH PROG
000508: 43,2404           17201                           CADR     IMUFINE
000509:
000510: 43,2405           04616                           TC       BANKCALL                              #  HIBERNATION
000511: 43,2406           17707                           CADR     IMUSTALL
000512: 43,2407           05472                           TC       ENDEXTVB
000513:
000514: 43,2410           32417        FINEK2             CAF      LGYROBIN                              #  PINBALL LEFT COMMANDS IN OGC REGISTERS
000515: 43,2411           04616                           TC       BANKCALL
000516: 43,2412           17314                           CADR     IMUPULSE
000517:
000518: 43,2413           04616                           TC       BANKCALL                              #  WAIT FOR PULSES TO GET OUT.
000519: 43,2414           17707                           CADR     IMUSTALL
000520: 43,2415           05472                           TC       ENDEXTVB
000521: 43,2416           05472                           TC       ENDEXTVB
000522:
000523: 43,2417           02737        LGYROBIN           ECADR    OGC
000524: 43,2420           06335        VNLODGYR           VN       2593
000525: 43,2421           12400        IMUFINEV           VN       4200
000526:
000527:                                                                                                  #  GOLOADLV      VERB 50         DESCRIPTION
000528:                                                                                                  #        AND OTHER PLEASE


000530:                                                                                                  #        DO SOMETHING VERBS
000531:
000532:                                                                                                  #  PLEASE PERFORM, MARK, CALIBRATE, ETC.
000533:
000534:                                                                                                  #        1.      PRESSING ENTER ON DSKY INDICATES REQUESTED ACTION HAS BEEN PERFORMED, AND THE PROGRAM DOES THE
000535:                                                                                                  #                SAME RECALL AS A COMPLETED LOAD.
000536:                                                                                                  #        2.      THE EXECUTION OF A VERB 33 (PROCEED WITHOUT DATA) INDICATES THE REQUESTED ACTION IS NOT DESIRED.
000537:


000541:
000542: 43,2422           04433        GOLOADLV           TC       FLASHOFF
000543:
000544: 43,2423           34201                           CAF      PINSUPBT
000545: 43,2424           00006                           EXTEND
000546: 43,2425           01007                           WRITE    SUPERBNK
000547: 43,2426           04635                           TC       POSTJUMP
000548: 43,2427           62001                           CADR     LOADLV1
000549:
000550:                                                                                                  #  VERB 47 -- AGS INITIALIZATION -- R47.
000551:
000552:                                                                                                  #  SEE LOG SECTION AGS INITIALIZATION FOR OTHER PERTINENT REMARKS.
000553:
000554: 43,2430           02076        V47TXACT           TC       TESTXACT                              #  NO OTHER EXTVERB.
000555: 43,2431           34740                           CAF      PRIO4
000556: 43,2432           05105                           TC       FINDVAC
000557: 43,2433  E4,1600                                  EBANK=   AGSBUFF
000558: 43,2433           02005 64064                     2CADR    AGSINIT
000559:
000560: 43,2435           05155                           TC       ENDOFJOB
000561:
000562: 43,2436           31301        CKMODCAD           CA       MODECADR
000563: 43,2437           00006                           EXTEND
000564: 43,2440           16745                           BZF      TCQ
000565: 43,2441           02116                           TC       ALM/END                               #  SOMEBODY IS USING MODECADR SO EXIT
000566:


000568:                                                                                                  #  ALINTIME      VERB 55         DESCRIPTION
000569:                                                                                                  #        REQUIRE P00 OR P00-.
000570:
000571:                                                                                                  #        1.      SET EXT VERB DISPLAY BUSY FLAG.
000572:                                                                                                  #        2.      DISPLAY FLASHING V25,N24 (LOAD DELTA TIME FOR AGC CLOCK.
000573:                                                                                                  #        3.      REQUIRE EXECUTION OF VERB 23.
000574:                                                                                                  #        4.      ADD DELTA TIME, RECEIVED FROM INPUT REGISTER, TO THE COMPUTER TIME.
000575:                                                                                                  #        5.      RELEASE EXT VERB DISPLAY SYSTEM.
000576:


000578: 43,2442  40,2000                                  SBANK=   PINSUPER                              #  FOR LOADLV1 AND SHOWSUM CADR'S


000580:
000581: 43,2442           02076        ALINTIME           TC       TESTXACT
000582: 43,2443           04635                           TC       POSTJUMP                              #  NO ROOM IN 43
000583: 43,2444           64002                           CADR     R33
000584:
000585: 42,2002                                           BANK     42
000586: 42,2000                                           SETLOC   SBAND
000587: 42,2000                                           BANK
000588: 42,2002                                           COUNT*   $$/R33
000589:
000590: 42,2002           35021        R33                CAF      PRIO7
000591: 42,2003           05146                           TC       PRIOCHNG
000592: 42,2004           32034                           CAF      VNLODDT
000593: 42,2005           04616                           TC       BANKCALL
000594: 42,2006           20334                           CADR     GOXDSPF
000595: 42,2007           05472                           TC       ENDEXT                                #  TERMINATE
000596: 42,2010           05472                           TC       ENDEXT                                #  PROCEED
000597: 42,2011           42033                           CS       DEC23                                 #  DATA IN OR RESEQUENCE (UNLIKELY)
000598: 42,2012           60154                           AD       MPAC                                  #  RECALL LEFT VERB IN MPAC
000599: 42,2013           00006                           EXTEND
000600: 42,2014           12016                           BZF      UPDATIME                              #  GO AHEAD WITH UPDATE ONLY IF RECALL
000601: 42,2015           05472                           TC       ENDEXT                                #        WITH V23 (DATA IN).
000602:
000603: 42,2016           00004        UPDATIME           INHINT                                         #  DELTA TIME IS IN DSPTEM1, +1.
000604: 42,2017           34755                           CAF      ZERO
000605: 42,2020           54156                           TS       MPAC       +2                         #  NEEDED FOR TP AGREE
000606: 42,2021           54001                           TS       L                                     #  ZERO T1 + 2 WHILE ALIGNING.
000607: 42,2022           52025                           DXCH     TIME2
000608: 42,2023           52155                           DXCH     MPAC
000609: 42,2024           53051                           DXCH     DSPTEM2    +1                         #  INCREMENT
000610: 42,2025           20155                           DAS      MPAC
000611:
000612: 42,2026           07262                           TC       TPAGREE                               #  FORCE SIGN AGREEMENT.
000613: 42,2027           52155                           DXCH     MPAC                                  #  NEW CLOCK.
000614: 42,2030           20025                           DAS      TIME2
000615: 42,2031           00003                           RELINT
000616: 42,2032           05472        UPDTMEND           TC       ENDEXT
000617:
000618: 42,2033           00027        DEC23              DEC      23         B-14                       #  V 23
000619:
000620: 42,2034           06230        VNLODDT            VN       2524                                  #  V25N24 FOR LOAD DELTA TIME
000621:


000623:                                                                                                  #  SET UP FOR RADAR SAMPLING.
000624:
000625: 42,2035                                           BANK     42
000626: 43,2000                                           SETLOC   EXTVERBS
000627: 43,2000                                           BANK
000628:
000629: 43,2445  E4,1600                                  EBANK=   RSTACK
000630:
000631: 43,2445                                           COUNT*   $$/R0477
000632:
000633: 43,2445           02700        R77                TC       RDRUSECK                              #  TRY TO AVOID THE 1210.
000634: 43,2446           30077                           CA       FLAGWRD3                              #  IS R04 RUNNING?
000635: 43,2447           74743                           MASK     R04FLBIT
000636: 43,2450           10000                           CCS      A
000637: 43,2451           02116                           TC       ALM/END                               #  YES.
000638: 43,2452           05504                           TC       UPFLAG
000639: 43,2453           00117                           ADRES    R77FLAG
000640: 43,2454           12461                           TCF      R04Z
000641:
000642: 43,2455           02700        R04                TC       RDRUSECK                              #  TRY TO AVOID THE 1210.
000643: 43,2456           02076                           TC       TESTXACT
000644: 43,2457           05504                           TC       UPFLAG
000645: 43,2460           00063                           ADRES    R04FLAG                               #  SET R04FLAG FOR ALARMS
000646:
000647: 43,2461           34741        R04Z               CAF      EBANK4
000648: 43,2462           54003                           TS       EBANK
000649: 43,2463           32676                           CAF      1SEC+1                                #  SAMPLE ONCE PER SECOND
000650: 43,2464           55777                           TS       RSAMPDT
000651: 43,2465           34755                           CAF      ZERO
000652: 43,2466           55776                           TS       RTSTLOC
000653: 43,2467           55575                           TS       RFAILCNT                              #  ZERO BAD SAMPLE COUNTER
000654:
000655: 43,2470           00004                           INHINT
000656: 43,2471           42677                           CS       LRPOSCAL                              #  INITIALIZE
000657: 43,2472           70110                           MASK     RADMODES                              #        BIT 9   LR RANGE LOW SCALE =0
000658: 43,2473           54110                           TS       RADMODES                              #        BIT 6   LR POS 1 =0
000659: 43,2474           32677                           CAF      LRPOSCAL                              #        BIT 3   RR RANGE LOW SCALE =0
000660: 43,2475           00006                           EXTEND
000661: 43,2476           02033                           RAND     CHAN33
000662: 43,2477           26110                           ADS      RADMODES
000663: 43,2500           00003                           RELINT
000664:
000665: 43,2501           40077                           CS       FLAGWRD3                              #  CHECK R04FLAG         R04 =1          R77 =0
000666: 43,2502           74743                           MASK     R04FLBIT
000667: 43,2503           10000                           CCS      A
000668: 43,2504           12633                           TCF      R04K
000669:
000670: 43,2505           34753                           CAF      ONE                                   #  INDICATES RENDEZVOUS DESIRED
000671: 43,2506           55051                           TS       OPTIONX    +1
000672: 43,2507           34751        R04A               CAF      BIT3                                  #  OPTION CODE FOR V04N12
000673:


000675: 43,2510           55050                           TS       OPTIONX
000676: 43,2511           32673                           CAF      V04N12X
000677: 43,2512           04616                           TC       BANKCALL                              #        R2      00001   RENDEZVOUS RADAR
000678: 43,2513           20353                           CADR     GOMARKFR                              #                00002   LANDING RADAR
000679: 43,2514           12641                           TCF      R04END                                #  V34
000680: 43,2515           12522                           TCF      +5                                    #  V33
000681: 43,2516           12511                           TCF      R04A       +2                         #  R2
000682: 43,2517           34751                           CAF      BIT3
000683: 43,2520           05464                           TC       BLANKET
000684: 43,2521           05155                           TC       ENDOFJOB
000685:
000686: 43,2522           31051                           CA       OPTIONX    +1                         #  SAVE DESIRED OPTION
000687: 43,2523           55773                           TS       RTSTDEX
000688:
000689: 43,2524           36245        R04X               CAF      SIX                                   #  RR OR LR DESIRED
000690: 43,2525           71773                           MASK     RTSTDEX
000691: 43,2526           10000                           CCS      A
000692: 43,2527           12635                           TCF      R04L                                  #  LANDING RADAR
000693: 43,2530           55775                           TS       RTSTBASE                              #  FOR RR        BASE =0, MAX =1
000694:
000695: 43,2531           34752        R04B               CAF      BIT2                                  #  IS RR AUTO MODE DISCRETE PRESENT
000696: 43,2532           00006                           EXTEND
000697: 43,2533           02033                           RAND     CHAN33
000698: 43,2534           00006                           EXTEND
000699: 43,2535           12546                           BZF      R04C                                  #  YES
000700:
000701: 43,2536           32675                           CAF      201R04                                #  REQUEST SELECTION OF RR AUTO MODE
000702: 43,2537           55044                           TS       DSPTEM1
000703: 43,2540           32674                           CAF      V50N25X
000704: 43,2541           04616                           TC       BANKCALL
000705: 43,2542           20345                           CADR     GOMARK4
000706: 43,2543           12641                           TCF      R04END                                #  V34
000707: 43,2544           12531                           TCF      R04B                                  #  V33
000708: 43,2545           12536                           TCF      -7                                    #  E
000709:
000710: 43,2546           34736        R04C               CAF      BIT14                                 #  ENABLE RR AUTO TRACKER
000711: 43,2547           00006                           EXTEND
000712: 43,2550           05012                           WOR      CHAN12
000713:
000714: 43,2551           34752                           CAF      TWO
000715: 43,2552           55774                           TS       RTSTMAX                               #  FOR SEQUENTIAL STORAGE
000716:
000717: 43,2553           05203                           TC       WAITLIST
000718: 43,2554  E4,1600                                  EBANK=   RSTACK
000719: 43,2554           02003 52104                     2CADR    RADSAMP
000720:
000721: 43,2556           00003                           RELINT
000722:
000723: 43,2557           40077                           CS       FLAGWRD3                              #  CHECK R04FLAG         R04 =1          R77 =0
000724: 43,2560           74743                           MASK     R04FLBIT


000726: 43,2561           10000                           CCS      A
000727: 43,2562           12117                           TCF      GOPIN                                 #  R77
000728:
000729: 43,2563           36245                           CAF      SIX                                   #  RR OR LR
000730: 43,2564           71773                           MASK     RTSTDEX
000731: 43,2565           10000                           CCS      A
000732: 43,2566           12603                           TCF      R04LR                                 #  LR
000733:
000734: 43,2567           32667        R04RR              CAF      V16N72                                #  DISPLAY RR CDU ANGLES (1/SEC)
000735: 43,2570           04616                           TC       BANKCALL                              #        R1 + XXX.XX DEG         TRUNNION
000736: 43,2571           20334                           CADR     GOMARKF                               #        R2 + XXX.XX DEG         SHAFT
000737: 43,2572           12641                           TCF      R04END                                #  V34   R3   BLANK
000738: 43,2573           12575                           TCF      +2                                    #  V33
000739: 43,2574           12567                           TCF      R04RR                                 #  V32
000740:
000741: 43,2575           32670                           CAF      V16N78                                #  DISPLAY RR RANGE AND RANGE RATE (1/SEC)
000742: 43,2576           04616                           TC       BANKCALL                              #        R1 +- XXX.XX NM         RANGE
000743: 43,2577           20334                           CADR     GOMARKF                               #        R2 +- XXXXX. FPS        RANGE RATE
000744: 43,2600           12641                           TCF      R04END                                #  V34   R3    BLANK
000745: 43,2601           12617                           TCF      R04Y                                  #  V33
000746: 43,2602           12567                           TCF      R04RR                                 #  V32
000747:
000748: 43,2603           32671        R04LR              CAF      V16N66                                #  DISPLAY LR RANGE AND POSITON (1/SEC)
000749: 43,2604           04616                           TC       BANKCALL                              #        R1 +- XXXXX, FT         LR RANGE
000750: 43,2605           20334                           CADR     GOMARKF                               #        R2 +  0000X.            POS. NO.
000751: 43,2606           12641                           TCF      R04END                                #  V34   R3    BLANK
000752: 43,2607           12611                           TCF      +2                                    #  V33
000753: 43,2610           12603                           TCF      R04LR                                 #  V32
000754:
000755: 43,2611           32672                           CAF      V16N67                                #  DISPLAY LR VELX, VELY, VELZ (1/SEC)
000756: 43,2612           04616                           TC       BANKCALL                              #        R1 +- XXXXX. FPS        LR V(X)
000757: 43,2613           20334                           CADR     GOMARKF                               #        R2 +- XXXXX. FPS        LR V(Y)
000758: 43,2614           12641                           TCF      R04END                                #  V34   R3 +- XXXXX. FPS        LR V(Z)
000759: 43,2615           12617                           TCF      R04Y                                  #  V33
000760: 43,2616           12603                           TCF      R04LR                                 #  V32
000761:
000762: 43,2617           34755        R04Y               CAF      ZERO                                  #  TO TERMINATE SAMPLING.
000763: 43,2620           55777                           TS       RSAMPDT
000764: 43,2621           04616                           TC       BANKCALL
000765: 43,2622           01735                           CADR     2SECDELY                              #  WAIT FOR LAST RADARUP
000766: 43,2623           32676                           CAF      1SEC+1                                #  SAMPLE ONCE PER SECOND
000767: 43,2624           55777                           TS       RSAMPDT
000768: 43,2625           34755                           CAF      ZERO                                  #  FOR STORING RESULTS
000769: 43,2626           55776                           TS       RTSTLOC
000770: 43,2627           11775                           CCS      RTSTBASE                              #  CHECK WHICH RADAR HAD BEEN SAMPLED
000771: 43,2630           44753                           CS       ONE                                   #  WAS LR
000772: 43,2631           64752                           AD       TWO                                   #  WAS RR
000773: 43,2632           12523                           TCF      R04X       -1
000774:
000775: 43,2633           34766        R04K               CAF      250MS+1                               #  SAMPLE 4 LR COMPONENTS PER SECOND.


000777: 43,2634           55777                           TS       RSAMPDT
000778:
000779: 43,2635           34752        R04L               CAF      TWO
000780: 43,2636           55775                           TS       RTSTBASE                              #  FOR LR        BASE =2, MAX =3
000781: 43,2637           36245                           CAF      SIX
000782: 43,2640           12552                           TCF      R04C       +4
000783: 43,2641           34755        R04END             CAF      ZERO                                  #  ZERO RSAMPDT
000784: 43,2642           55777                           TS       RSAMPDT                               #  TO TERMINATE SAMPLING
000785: 43,2643           34744                           CAF      BIT8                                  #  WAIT 1.28 SECONDS FOR POSSIBLE
000786: 43,2644           04616                           TC       BANKCALL                              #  PENDING RUPT.
000787: 43,2645           01736                           CADR     DELAYJOB
000788:
000789: 43,2646           00004                           INHINT
000790: 43,2647           44736                           CS       BIT14                                 #  DISABLE RR AUTO TRACKER.
000791: 43,2650           00006                           EXTEND
000792: 43,2651           03012                           WAND     CHAN12
000793:
000794: 43,2652           05516                           TC       DOWNFLAG
000795: 43,2653           00063                           ADRES    R04FLAG                               #  SIGNAL END OF R04.
000796:
000797: 43,2654           05472                           TC       ENDEXT
000798:
000799: 43,2655           34741        R77END             CAF      EBANK4                                #  TO TERMINATE SAMPLING
000800: 43,2656           54003                           TS       EBANK
000801: 43,2657           34755                           CAF      ZERO
000802: 43,2660           55777                           TS       RSAMPDT
000803: 43,2661           34746                           CAF      BIT6                                  #  WAIT 320 MS. FOR POSSIBLE
000804: 43,2662           04616                           TC       BANKCALL                              #  PENDING RUPT.
000805: 43,2663           01736                           CADR     DELAYJOB
000806:
000807: 43,2664           05516                           TC       DOWNFLAG
000808: 43,2665           00117                           ADRES    R77FLAG
000809: 43,2666           12117                           TCF      GOPIN
000810:
000811: 43,2667           04110        V16N72             VN       1672
000812: 43,2670           04116        V16N78             VN       1678
000813: 43,2671           04102        V16N66             VN       1666
000814: 43,2672           04103        V16N67             VN       1667
000815: 43,2673           01014        V04N12X            VN       412
000816: 43,2674           14431        V50N25X            VN       5025
000817: 43,2675           00201        201R04             OCT      00201
000818: 43,2676           00145        1SEC+1             DEC      101        B-14
000819: 43,2677     4766               250MS+1            EQUALS   CALLCODE
000820: 43,2677           00444        LRPOSCAL           OCT      444
000821:


000823: 43,2700           40077        RDRUSECK           CS       FLAGWRD3                              #  IS R29 ON?
000824: 43,2701           74741                           MASK     NR29FBIT
000825: 43,2702           10000                           CCS      A
000826: 43,2703           02116                           TC       ALM/END                               #  YES
000827: 43,2704           30101                           CA       FLAGWRD5                              #  IS R77 RUNNING?
000828: 43,2705           74741                           MASK     R77FLBIT
000829: 43,2706           10000                           CCS      A
000830: 43,2707           02116                           TC       ALM/END                               #  YES.
000831: 43,2710           40103                           CS       FLAGWRD7                              #  IS SERVICER RUNNING AND HENCE POSSIBLY
000832: 43,2711           74746                           MASK     V37FLBIT                              #  R12 USING THE LR?
000833: 43,2712           10000                           CCS      A
000834: 43,2713           12720                           TCF      CHECKRR                               #  NO
000835: 43,2714           30107                           CA       FLGWRD11                              #  YES, IS R12 ON?
000836: 43,2715           74735                           MASK     LRBYBIT                               #  BIT 15
000837: 43,2716           00006                           EXTEND
000838: 43,2717           12116                           BZF      ALM/END                               #  YES
000839: 43,2720           40075        CHECKRR            CS       FLAGWRD1                              #  IS THE TRACK FLAG SET AND HENCE POSSIBLY
000840: 43,2721           74747                           MASK     TRACKBIT                              #  P20 USING THE RR?
000841: 43,2722           10000                           CCS      A
000842: 43,2723           00002                           TC       Q                                     #  NOT ALLOWED DURING P20
000843: 43,2724           02116                           TC       ALM/END                               #  P22 OR P25, (R65)
000844: 43,2725                                           COUNT*   $$/EXTVB
000845:
000846: 43,2725           02076        VB64               TC       TESTXACT                              #  IF DISPLAY SYS. NOT BUSY MAKE IT BUSY.
000847: 43,2726           34740                           CAF      PRIO4
000848: 43,2727           05105                           TC       FINDVAC
000849: 43,2730  E4,1600                                  EBANK=   ALPHASB
000850: 43,2730           03606 64104                     2CADR    SBANDANT                              #  CALC., DISPLAY S-BAND ANTENNA ANGLES.
000851:
000852: 43,2732           05155                           TC       ENDOFJOB
000853:


000855:                                                                                                  #  IMUATTCK      VERB 43         DESCRIPTION
000856:                                                                                                  #        LOAD IMU ATTITUDE ERROR METERS
000857:
000858:                                                                                                  #        1.      REQUIRE P00 OR FRESH START.
000859:                                                                                                  #        2.      REQUIRE COARSE ALIGN ENABLE AND ZERO ICDU BITS OFF.
000860:                                                                                                  #        3.      REQUIRE THAT NEEDLES BE OFF.
000861:                                                                                                  #        4.      REQUEST LOAD OF N22 (VALUES TO BE DISPLAYED).
000862:                                                                                                  #        5.      ON PROCEED OR ENTER RE-DISPLAY V43 AND SEND PULSES.
000863:
000864: 43,2733           02121        IMUATTCK           TC       CHKP00H                               #  VB 76 -- LOAD IMU ATT. ERROR METERS
000865:
000866: 43,2734           34763                           CAF      BITS4&5                               #  SEE IF COARSE ALIGN ENABLE AND ZERO IMU
000867: 43,2735           00006                           EXTEND                                         #  CDUS BITS ARE ON
000868: 43,2736           02012                           RAND     CHAN12
000869: 43,2737           10000                           CCS      A
000870: 43,2740           12116                           TCF      ALM/END                               #  NOT ALLOWED IF IMU COARSE OR IMU ZERO ON
000871:
000872: 43,2741           34355                           CAF      BIT13-14                              #  BOTH BITS 13 AND 14 MUST BE 1
000873: 43,2742           00006                           EXTEND                                         #  INDICATING THE MODE SELECTED IS OFF.
000874: 43,2743           06031                           RXOR     CHAN31
000875: 43,2744           74355                           MASK     BIT13-14
000876: 43,2745           00006                           EXTEND
000877: 43,2746           12750                           BZF      +2                                    #  NEEDLES IS OFF.
000878: 43,2747           12116                           TCF      ALM/END                               #  EXIT.  NEEDLES IS ON.
000879:
000880: 43,2750           02076                           TC       TESTXACT
000881:
000882: 43,2751           32234                           CAF      VNLODCDU
000883: 43,2752           04616                           TC       BANKCALL
000884: 43,2753           20334                           CADR     GOXDSPF
000885: 43,2754           05472                           TC       ENDEXT                                #  V34
000886: 43,2755           02756                           TC       +1
000887: 43,2756           32771                           CAF      V43K                                  #  REDISPLAY OUR VERB.
000888: 43,2757           04616                           TC       BANKCALL
000889: 43,2760           20621                           CADR     EXDSPRET
000890: 43,2761           34746                           CAF      BIT6
000891: 43,2762           00006                           EXTEND
000892: 43,2763           05012                           WOR      CHAN12                                #  ENABLE ERROR COUNTERS.
000893: 43,2764           34752                           CAF      TWO
000894: 43,2765           05203                           TC       WAITLIST                              #  PUT OUT COMMANDS IN .32 SECONDS.
000895: 43,2766     0321                                  EBANK=   THETAD
000896: 43,2766           02035 64100                     2CADR    ATTCK2
000897:
000898: 43,2770           15472                           TCF      ENDEXT
000899:
000900: 42,2035                                           BANK     42
000901: 42,2000                                           SETLOC   PINBALL3                              #  SOMETHING IN B42.
000902: 42,2000                                           BANK
000903:
000904: 42,2035                                           COUNT*   $$/EXTVB


000906: 42,2035           34752        ATTCK2             CAF      TWO                                   #  PUT OUT COMMANDS.
000907: 42,2036           54002                 +1        TS       Q                                     #  CDU WILL LIMIT EXCESS DATA.
000908: 42,2037           50000                           INDEX    A
000909: 42,2040           30321                           CA       THETAD
000910: 42,2041           00006                           EXTEND
000911: 42,2042           72053                           MP       ATTSCALE
000912: 42,2043           50002                           INDEX    Q
000913: 42,2044           56050                           XCH      CDUXCMD
000914: 42,2045           10002                           CCS      Q
000915: 42,2046           12036                           TCF      ATTCK2     +1
000916:
000917: 42,2047           37743                           CAF      13,14,15
000918: 42,2050           00006                           EXTEND
000919: 42,2051           05014                           WOR      CHAN14
000920: 42,2052           15261                           TCF      TASKOVER                              #  LEAVE ERROR COUNTERS ENABLED.
000921:
000922: 42,2053           03146        ATTSCALE           DEC      0.1
000923:
000924: 07,2666                                           BANK     7
000925: 43,2000                                           SETLOC   EXTVERBS
000926: 43,2000                                           BANK
000927:
000928: 43,2771                                           COUNT*   $$/EXTVB
000929:
000930: 43,2771           12600        V43K               VN       4300
000931:
000932:                                                                                                  #  V82PERF       VERB82          DESCRIPTION
000933:                                                                                                  #        REQUEST ORBIT PARAMETERS DISPLAY (R30)
000934:
000935:                                                                                                  #        1.      IF AVERAGE G IS OFF:
000936:                                                                                                  #                        FLASH DISPLAY V04N06.  R2 INDICATES WHICH SHIP'S STATE VECTOR IS
000937:                                                                                                  #                        TO BE UPDATED.  INITIAL CHOICE IS THIS SHIP (R2=1).  ASTRONAUT
000938:                                                                                                  #                        CAN CHANGE TO OTHER SHIP BY V22EXE, WHERE X NOT EQ I.
000939:                                                                                                  #                        SELECTED STATE VECTOR UPDATED BY THISPREC (OTHPREC).
000940:                                                                                                  #                        CALLS SR30.1 (WHICH CALLS TFFCONMU + TFFRP/RA) TO CALCULATE
000941:                                                                                                  #                        RPER (PERIGEE RADIUS), RAP0 (APOGEE RADIUS), HPER (PERIGEE
000942:                                                                                                  #                        HEIGHT ABOVE LAUNCH PAD OR LUNAR LANDING SITE), HAPO (APOGEE
000943:                                                                                                  #                        HEIGHT AS ABOVE), TPER (TIME TO PERIGEE), TFF (TIME TO
000944:                                                                                                  #                        INTERSECT 300 KFT ABOVE PAD OR 35KFT ABOVE LANDING SITE).
000945:                                                                                                  #                        FLASH MONITOR V16N44 (HAPO, HPER, TFF).  TFF IS -59M59S IF IT WAS
000946:                                                                                                  #                        NOT COMPUTABLE, OTHERWISE IT INCREMENTS ONCE PER SECOND.
000947:                                                                                                  #                        ASTRONAUT HAS OPTION TO MONITOR TPER BY KEYING IN N 32 E.
000948:                                                                                                  #                        DISPLAY IS IN HMS, IS NEGATIVE (AS WAS TFF), AND INCREMENTS
000949:                                                                                                  #                        ONCE PER SECOND ONLY IF TFF DISPLAY WAS -59M59S.
000950:
000951:                                                                                                  #        2.      IF AVERAGE G IS ON:
000952:                                                                                                  #                        CALLS SR30.1 APPROX EVERY TWO SECS.  STATE VECTOR IS ALWAYS
000953:                                                                                                  #                        FOR THIS VEHICLE.  V82 DOES NOT DISTURB STATE VECTOR.  RESULTS
000954:                                                                                                  #                        OF SR30.1 ARE RAPO, RPER, HAPO, HPER, TPER, TFF.
000955:                                                                                                  #                        FLASH MONITOR V16N44 (HAPO, HPER, TFF).
000956:                                                                                                  #                        IF MODE IS P11, THEN CALL DELRSPL SO ASTRONAUT CAN MONITOR
000957:                                                                                                  #                        RESULTS BY N50E.  SPLASH COMPUTATION DONE ONCE PER TWO SECS.
000958:


000960: 43,2772           02076        V82PERF            TC       TESTXACT
000961:
000962: 43,2773           35021                           CAF      PRIO7                                 #  LESS THAN LAMBERT.  R30,V82
000963: 43,2774           05146                           TC       PRIOCHNG
000964: 43,2775           00006                           EXTEND
000965: 43,2776           33001                           DCA      V82CON
000966: 43,2777           05165                           TC       SUPDXCHZ                              #  V82CALL IN DIFF SUPERBANK FROM V82PERF
000967:
000968: 43,3000  E4,1716                                  EBANK=   HAPO
000969: 43,3000           03242 44104  V82CON             2CADR    V82CALL
000970:
000971:                                                                                                  #  VB83PERF      VERB 83         DESCRIPTION
000972:                                                                                                  #        REQUEST RENDEZVOUS PARAMETER DISPLAY (R31)
000973:
000974:                                                                                                  #        1.      SET EXT VERB DISPLAY BUSY FLAG.
000975:                                                                                                  #        2.      SCHEDULE R31CALL WITH PRIORITY 5.
000976:                                                                                                  #                A.      DISPLAY
000977:                                                                                                  #                        R1      RANGE
000978:                                                                                                  #                        R2      RANGE RATE
000979:                                                                                                  #                        R3      THETA
000980:
000981: 43,3002           02076        V83PERF            TC       TESTXACT
000982:
000983: 43,3003           34752                           CAF      BIT2
000984: 43,3004           05203                           TC       WAITLIST
000985: 43,3005  E7,1611                                  EBANK=   TSTRT
000986: 43,3005           03737 60107                     2CADR    R31CALL
000987:
000988: 43,3007           05155                           TC       ENDOFJOB
000989:
000990:                                                                                                  #  VERB 89       DESCRIPTION     RENDEZVOUS FINAL ATTITUDE ROUTINE (R63)
000991:                                                                                                  #
000992:                                                                                                  #  CALLED BY VERB 89 ENTER DURING P00.  PRIO 10 IS USED.  CALCULATES AND
000993:                                                                                                  #  DISPLAYS FINAL FDAI BALL ANGLES TO POINT LM +X OR +Z AXIS AT CSM.
000994:
000995:                                                                                                  #  1. KEY IN V 89 E ONLY IF IN PROG 00.  IF NOT IN P00, OPERATOR ERROR AND
000996:                                                                                                  #  EXIT R63, OTHERWISE CONTINUE.
000997:
000998:                                                                                                  #  2. IF IN P00, DO IMU STATUS CHECK ROUTINE (R02BOTH).  IF IMU ON AND ITS
000999:                                                                                                  #  ORIENTATION KNOWN TO LGC,CONTINUE.
001000:
001001:                                                                                                  #  3. FLASH DISPLAY V 04 N 06.  R2 INDICATES WHICH SPACECRAFT AXIS IS TO
001002:                                                                                                  #  BE POINTED AT CSM.  INITIAL CHOICE IS PREFERRED (+Z) AXIS (R2=1).
001003:                                                                                                  #  ASTRONAUT CAN CHANGE TO (+X) AXIS (R2 NOT = 1) BY V 22 E 2 E.  CONTINUE
001004:                                                                                                  #  AFTER KEYING IN PROCEED.
001005:
001006:                                                                                                  #  4. BOTH VEHICLE STATE VECTORS UPDATED BY CONIC EQS.
001007:
001008:                                                                                                  #  5. HALF MAGNITUDE UNIT LOS VECTOR (IN STABLE MEMBER COORDINATES) AND


001010:                                                                                                  #  HALF MAGNITUDE UNIT SPACECRAFT AXIS VECTOR (IN BODY COORDINATES)
001011:                                                                                                  #  PREPARED FOR VECPOINT.
001012:
001013:                                                                                                  #  6. GIMBAL ANGLES FROM VECPOINT TRANSFORMED INTO FDAI BALL ANGLES BY
001014:                                                                                                  #  BALLANGS.  FLASH DISPLAY V 06 N 18 AND AWAIT RESPONSE.
001015:
001016:                                                                                                  #  7.    RECYCLE -- RETURN TO STEP 4.
001017:                                                                                                  #        TERMINATE -- EXIT R63.
001018:                                                                                                  #        PROCEED -- RESET 3AXISFLG AND CALL R60LEM FOR ATTITUDE MANEUVER.
001019:
001020: 43,3010           02121        V89PERF            TC       CHKP00H
001021: 43,3011           02076                           TC       TESTXACT
001022: 43,3012           34737                           CAF      PRIO10
001023: 43,3013           05105                           TC       FINDVAC
001024: 43,3014  E4,1606                                  EBANK=   RONE
001025: 43,3014           02022 54104                     2CADR    V89CALL
001026:
001027: 43,3016           05155                           TC       ENDOFJOB
001028:
001029:                                                                                                  #  V90PERF       VERB 90         DESCRIPTION
001030:                                                                                                  #        REQUEST RENDEZVOUS OUT-OF-PLANE DISPLAY (R36)
001031:
001032:                                                                                                  #        1.      SET EXT VERB DISPLAY BUSY FLAG.
001033:                                                                                                  #        2.      SCHEDULE R36 CALL WITH PRIORITY 10
001034:                                                                                                  #                A.      DISPLAY
001035:                                                                                                  #                        TIME OF EVENT -- HOURS, MINUTES, SECONDS
001036:                                                                                                  #                        Y       OUT-OF-PLANE POSITION -- NAUTICAL MILES
001037:                                                                                                  #                        YDOT    OUT-OF-PLANE VELOCITY -- FEET/SECOND
001038:                                                                                                  #                        PSI     ANGLE BTW LINE OF SIGHT AND FORWARD
001039:                                                                                                  #                                DIRECTION VECTOR IN HORIZONTAL PLANE -- DEGREES
001040:
001041: 43,3017           02076        V90PERF            TC       TESTXACT
001042: 43,3020           35021                           CAF      PRIO7                                 #  R36,V90
001043: 43,3021           05105                           TC       FINDVAC
001044: 43,3022  E7,1441                                  EBANK=   TIG
001045: 43,3022           02642 10107                     2CADR    R36
001046:
001047: 43,3024           15155                           TCF      ENDOFJOB
001048:
001049:                                                                                                  #  MINIMP        VERB 76         DESCRIPTION
001050:                                                                                                  #        MINIMUM IMPULSE MODE
001051:
001052:                                                                                                  #        1.      SET MINIMUM IMPULSE RHO MODE FLAG TO 1.
001053:
001054: 43,3025           05504        MINIMP             TC       UPFLAG                                #  SET PULSES = 1 (MIN. IMPULSE MODE)
001055: 43,3026           00303                           ADRES    PULSEFLG
001056: 43,3027           12117                           TCF      GOPIN                                 #  RETURN VIA PINBRNCH
001057:
001058:                                                                                                  #  NOMINIMP      VERB 77         DESCRIPTION
001059:                                                                                                  #        RATE COMMAND MODE
001060:
001061:                                                                                                  #        1.      SET MINIMUM IMPULSE RHO MODE FLAG TO 0.  (ZERO INDICATES NOT MINIMUM IMPULSE MODE.).
001062:                                                                                                  #        2.      MOVE CDUX, CDUY, CDUZ INTO CDUXD, CDUYD, CDUZD.


001064:
001065: 43,3030           05516        NOMINIMP           TC       DOWNFLAG                              #  SET PULSES = 0 (NOT MINIMUM IMPULSE MODE
001066: 43,3031           00303                           ADRES    PULSEFLG
001067: 43,3032           00004                           INHINT
001068: 43,3033           04674                           TC       IBNKCALL
001069: 43,3034           40154                           CADR     ZATTEROR
001070: 43,3035           02117                           TC       GOPIN
001071:


001073:                                                                                                  #  CREMANU       VERB 49         DESCRIPTION
001074:                                                                                                  #        START AUTOMATIC ATTITUDE MANEUVER
001075:
001076:                                                                                                  #        1.      REQUIRE PROGRAM 00 ACTIVE.
001077:                                                                                                  #        2.      SET EXT VERB DISPLAY BUSY FLAG.
001078:                                                                                                  #        3.      SCHEDULE R62DISP WITH PRIORITY 10.
001079:                                                                                                  #        4.      RELEASE EXT VERB DISPLAY.
001080:
001081:                                                                                                  #        R62DISP
001082:                                                                                                  #        1.      DISPLAY FLASHING V06,N22.
001083:                                                                                                  #                RESPONSES
001084:                                                                                                  #                A.      TERMINATE
001085:                                                                                                  #                        1.      GOTOPOOH
001086:                                                                                                  #                B.      PROCEED
001087:                                                                                                  #                        1.      SET 3AXISFLG TO INDICATE MANEUVER IS SPECIFIED BY 3 AXIS.
001088:                                                                                                  #                        2.      EXECUTE R60LEM (ATTITUDE MANEUVER).
001089:                                                                                                  #                C.      ENTER
001090:                                                                                                  #                        1.      REPEAT FLASHING V06,N22.
001091:
001092: 43,3036           02121        CREWMANU           TC       CHKP00H                               #  DEMAND P00
001093:
001094: 43,3037           02076                           TC       TESTXACT
001095:
001096: 43,3040           34737                           CAF      PRIO10
001097: 43,3041           05105                           TC       FINDVAC
001098: 43,3042  E6,1675                                  EBANK=   BCDU
001099: 43,3042           02103 46106                     2CADR    R62DISP
001100:
001101: 43,3044           05155                           TC       ENDOFJOB
001102:


001104:                                                                                                  #  TRMTRACK      VERB 56         DESCRIPTION
001105:                                                                                                  #        TERMINATE TRACKING (P20 AND P25).
001106:
001107:                                                                                                  #        1.      KNOCK DOWN RENDEZVOUS, TRACK, AND UPDATE FLAGS.
001108:                                                                                                  #        2.      REQUIRE P20 OR P25 NOT RUNNING ALONE OR GO TO GOGOP00H (REQUEST PROGRAM 00).
001109:                                                                                                  #        3.      SCHEDULE V56TOVAC WITH PRIORITY 30.
001110:
001111:                                                                                                  #        V56TOVAC
001112:                                                                                                  #        1.      EXECUTE INTSTALL (IF INTEGRATION IS RUNNING, STALL UNTIL IT IS FINISHED.)
001113:                                                                                                  #        2.      ZERO GROUP 2 TO HALT P20.
001114:                                                                                                  #        3.      TRANSFER CONTROL TO GOPROG2 (SOFTWARE RESTART).
001115:
001116: 43,3045           33065        TRMTRACK           CA       BITS9+7                               #  IS REND OR P25 FLAG ON
001117: 43,3046           70074                           MASK     FLAGWRD0
001118: 43,3047           00006                           EXTEND
001119: 43,3050           12117                           BZF      GOPIN                                 #  NO
001120:
001121: 43,3051           05516                           TC       DOWNFLAG
001122: 43,3052           00010                           ADRES    RNDVZFLG
001123:
001124: 43,3053           05516                           TC       DOWNFLAG
001125: 43,3054           00006                           ADRES    P25FLAG
001126:
001127: 43,3055           05516                           TC       DOWNFLAG                              #  ENSURE SEARCH FLAG IS OFF
001128: 43,3056           00037                           ADRES    SRCHOPTN
001129:
001130: 43,3057           34747                           CA       TRACKBIT                              #  IS TRACK FLAG ON?
001131: 43,3060           70075                           MASK     FLAGWRD1
001132: 43,3061           00006                           EXTEND
001133: 43,3062           12117                           BZF      GOPIN
001134:
001135: 43,3063           04635                           TC       POSTJUMP
001136: 43,3064           64054                           CADR     TRMTRAK1
001137:
001138: 43,3065           00500        BITS9+7            OCT      500
001139:
001140: 42,2000                                           SETLOC   SBAND                                 #  BANK 42
001141: 42,2000                                           BANK
001142:
001143: 42,2054                                           COUNT*   $$/EXTVB
001144:
001145: 42,2054           05516        TRMTRAK1           TC       DOWNFLAG
001146: 42,2055           00027                           ADRES    UPDATFLG                              #  UPDATE FLAG DOWN
001147: 42,2056           05516                           TC       DOWNFLAG
001148: 42,2057           00031                           ADRES    TRACKFLG                              #  TRACK FLAG DOWN
001149: 42,2060           05516                           TC       DOWNFLAG
001150: 42,2061           00007                           ADRES    IMUSE
001151:
001152: 42,2062           06042                           TC       INTPRET
001153: 42,2063           77624                           CALL
001154: 42,2064           27410                                    INTSTALL                              #  DON'T INTERRUPT INTEGRATION


001156: 42,2065           77776                           EXIT
001157:
001158: 42,2066           05353                           TC       PHASCHNG
001159: 42,2067           00002                           OCT      2                                     #  KILL GROUP 2 TO HALT P20 ACTIVITY
001160:
001161: 42,2070           00004                           INHINT
001162: 42,2071           04674                           TC       IBNKCALL                              #  ZERO THE COMMANDED RATES TO STOP
001163: 42,2072           40166                           CADR     STOPRATE                              #  MANEUVER
001164:
001165: 42,2073           04674                           TC       IBNKCALL
001166: 42,2074           40115                           CADR     RESTORDB
001167:
001168: 42,2075           06011                           TC       CLRADMOD                              #  CLEAR BITS 10 + 15 OF RADMODES.
001169:
001170: 42,2076           44736                           CS       BIT14                                 #  DISABLE LOCKON
001171: 42,2077           00006                           EXTEND
001172: 42,2100           03012                           WAND     CHAN12
001173: 42,2101           04635                           TC       POSTJUMP
001174: 42,2102           12766                           CADR     GOPROG2                               #  CAUSE RESTART.
001175:
001176:                                                                                                  #  DNEDUMP       VERB 74         DESCRIPTION
001177:                                                                                                  #        INITIALZE DOWN-TELEMETRY PROGRAM FOR ERASABLE MEMORY DUMP.
001178:
001179:                                                                                                  #        1.      SET EXT VERB DISPLAY BUSY FLAG.
001180:                                                                                                  #        2.      REPLACE CURRENT DOWNLIST WITH ERASABLE MEMORY.
001181:                                                                                                  #        3.      RELEASE EXT VERB DISPLAY.
001182:
001183: 43,2000                                           SETLOC   EXTVERBS
001184: 43,2000                                           BANK
001185:
001186: 43,3066                                           COUNT*   $$/EXTVB
001187:
001188: 43,3066     0400                                  EBANK=   400
001189: 43,3066           33071        DNEDUMP            CAF      LDNDUMPI
001190: 43,3067           54335                           TS       DNTMGOTO
001191: 43,3070           02117                           TC       GOPIN
001192:
001193: 43,3071  43,3066               V74                EQUALS   DNEDUMP
001194: 43,3071           03721        LDNDUMPI           REMADR   DNDUMPI
001195:
001196:                                                                                                  #  LEMVEC        VERB 80         DESCRIPTION
001197:                                                                                                  #        UPDATE LEM STATE VECTOR
001198:                                                                                                  #                RESET VHUPFLG TC 0
001199:
001200: 43,3072           05516        LEMVEC             TC       DOWNFLAG
001201: 43,3073           00026                           ADRES    VEHUPFLG                              #  VB 80 -- VEHUPFLG DOWN INDICATES LEM
001202:
001203: 43,3074           03077                           TC       NOUPDOWN
001204:
001205:                                                                                                  #  CSMVEC        VERB 81         DESCRIPTION
001206:                                                                                                  #        UPDATE CSM STATE VECTOR


001208:                                                                                                  #                SET VEHUPFLG TO 1
001209:
001210: 43,3075           05504        CSMVEC             TC       UPFLAG
001211: 43,3076           00026                           ADRES    VEHUPFLG                              #  VB 81 -- VEHUPFLG UP INDICATES CSM
001212:
001213: 43,3077           05516        NOUPDOWN           TC       DOWNFLAG
001214: 43,3100           00030                           ADRES    NOUPFLAG
001215:
001216: 43,3101           12117                           TCF      GOPIN
001217:
001218:                                                                                                  #  UPDATOFF      VERB 95         DESCRIPTION
001219:                                                                                                  #        INHIBIT STATE VECTOR UPDATES BY INCORP
001220:                                                                                                  #                SET NOUPFLAG TO 1
001221:
001222: 43,3102           05504        UPDATOFF           TC       UPFLAG                                #  VB 95 SET NOUPFLAG
001223: 43,3103           00030                           ADRES    NOUPFLAG
001224:
001225: 43,3104           02117                           TC       GOPIN


001227:                                                                                                  #  SYSTEST       VERB 92         DESCRIPTION
001228:                                                                                                  #        OPERATE IMU PERFORMANCE TEST.
001229:
001230:                                                                                                  #        1.      REQUIRE PROGRAM 00 OR TURN ON OPERATOR ERROR.
001231:                                                                                                  #        2.      SET EXT VERB BUSY FLAG.
001232:
001233: 43,3105  E5,1417                                  EBANK=   QPLACE
001234:
001235: 43,3105           02121        SYSTEST            TC       CHKP00H                               #  DEMAND P00
001236:
001237: 43,3106           02076                           TC       TESTXACT
001238:
001239: 43,3107           37713                           CAF      PRIO22
001240: 43,3110           05105                           TC       FINDVAC
001241: 43,3111  E5,1417                                  EBANK=   QPLACE
001242: 43,3111  37,2000                                  SBANK=   IMUSUPER
001243: 43,3111           02002 76065                     2CADR    REDO
001244:
001245: 43,3113           05155                           TC       ENDOFJOB
001246:
001247:                                                                                                  #  VERB 93       CLEAR RENDWFLG, CAUSES W-MATRIX TO BE RE-INITIALIZE
001248:
001249: 43,3114           00004        WMATRXNG           INHINT
001250: 43,3115           44753                           CS       RENDWBIT
001251: 43,3116           70101                           MASK     FLAGWRD5
001252: 43,3117           54101                           TS       FLAGWRD5
001253:
001254: 43,3120           02117                           TC       GOPIN
001255:
001256: 43,3121  43,3121               GOSHOSUM           EQUALS   SHOWSUM
001257:
001258: 43,3121           02121        SHOWSUM            TC       CHKP00H                               #  *
001259: 43,3122           02076                           TC       TESTXACT                              #  *
001260: 43,3123           35021                           CAF      PRIO7                                 #  * ALLOW OTHER CHARINS.
001261: 43,3124           05146                           TC       PRIOCHNG                              #  *
001262: 43,3125           34753                           CAF      S+1                                   #  *
001263: 43,3126           55376                           TS       SKEEP6                                #  * SHOWSUM OPTION
001264: 43,3127           34755                           CAF      S+ZERO                                #  *
001265: 43,3130           55362                           TS       SMODE                                 #  * TURN OFF SELF-CHECK
001266: 43,3131           33272                           CA       SELFADRS                              #  *
001267: 43,3132           55361                           TS       SELFRET                               #  *
001268: 43,3133           03547                           TC       STSHOSUM                              #  * ENTER ROPECHK
001269: 43,3134           23372        SDISPLAY           LXCH     SKEEP2                                #  * BANK # FOR DISPLAY
001270: 43,3135           23373                           LXCH     SKEEP3                                #  * BUGGER WORD FOR DISPLAY
001271: 43,3136           33271        NOKILL             CA       ADRS1                                 #  *
001272: 43,3137           54156                           TS       MPAC       +2                         #  *
001273: 43,3140           33151                           CA       VNCON                                 #  * 0501
001274: 43,3141           04616                           TC       BANKCALL                              #  *
001275: 43,3142           20334                           CADR     GOXDSPF                               #  *
001276: 43,3143           03146                           TC       +3                                    #  *
001277: 43,3144           03660                           TC       NXTBNK                                #  *


001279: 43,3145           03136                           TC       NOKILL                                #  *
001280: 43,3146           33272                           CA       SELFADRS
001281: 43,3147           55371                           TS       SKEEP1
001282:
001283: 43,3150           05472                           TC       ENDEXT                                #  *
001284: 43,3151           01201        VNCON              VN       501                                   #  *
001285: 43,3152           31376        ENDSUMS            CA       SKEEP6                                #  *
001286: 43,3153           00006                           EXTEND                                         #  *
001287: 43,3154           13363                           BZF      SELFCHK                               #  * ROPECHK, START SELFCHK AGAIN.
001288: 43,3155           03547                           TC       STSHOSUM                              #  * START SHOWSUM AGAIN.
001289:


001291:                                                                                                  #  DAPDISP       VERB 48         DESCRIPTION
001292:                                                                                                  #        LOAD AUTO PILOT DATA
001293:
001294:                                                                                                  #        1.      REQUIRE EXT VERB DISPLAY AVAILABLE AND SET BUSY FLAG.
001295:                                                                                                  #        2.      EXECUTE DAPDATA1, DAPDATA2, AND DAPDATA3.
001296:                                                                                                  #        3.      RELEASE EXT VERB DISPLAY SYSTEM.
001297:
001298:                                                                                                  #  KEY
001299:                                                                                                  #  THE FOLLOWING IS A KEY TO THE 5 DIGITS OF THE DAP DATA CODE (N46)
001300:
001301:                                                                                                  #  DIGIT A -- VEHICLE CONFIGURATION
001302:                                                                                                  #        1 -- LM ALONE, ASCENT
001303:                                                                                                  #        2 -- LM ALONE, DESCENT
001304:                                                                                                  #        3 -- CSM AND LM DOCKED
001305:
001306:                                                                                                  #  DIGIT B -- ACCELERATION CODE
001307:                                                                                                  #        0 -- 2 JET TRANSLATION, RCS SYSTEM A PREFERRED
001308:                                                                                                  #        1 -- 2 JET TRANSLATION, RCS SYSTEM B PREFERRED
001309:                                                                                                  #        2 -- 4 JET TRANSLATION, RCS SYSTEM A PREFERRED (NOT MEANINGFUL)
001310:                                                                                                  #        3 -- 4 JET TRANSLATION, RCS SYSTEM B PREFERRED (NOT MEANINGFUL)
001311:
001312:                                                                                                  #  DIGIT C -- ACA SCALING
001313:                                                                                                  #        0 -- FINE
001314:                                                                                                  #        1 -- NORMAL
001315:
001316:                                                                                                  #  DIGIT D -- DEADBAND
001317:                                                                                                  #        0 -- 0.3 DEG
001318:                                                                                                  #        1 -- 1.0 DEG
001319:                                                                                                  #        2 -- 5.0 DEG
001320:                                                                                                  #       (3 -- 5.0 DEG BY DEFAULT)
001321:
001322:                                                                                                  #  DIGIT E -- MANEUVER RATE
001323:                                                                                                  #        0 -- 0.2 DEG/SEC
001324:                                                                                                  #        1 -- 0.5 DEG/SEC
001325:                                                                                                  #        2 -- 2.0 DEG/SEC
001326:                                                                                                  #        3 -- 10.0 DEG/SEC
001327:
001328: 43,3156           02076        DAPDISP            TC       TESTXACT
001329: 43,3157           35021                           CAF      PRIO7                                 #  R03
001330: 43,3160           05146                           TC       PRIOCHNG
001331: 43,3161           04635                           TC       POSTJUMP
001332: 43,3162           40004                           CADR     DAPDATA1
001333:
001334: 34,2000                                           BANK     34
001335: 20,2000                                           SETLOC   LOADDAP
001336: 20,2000                                           BANK
001337:
001338: 20,2004                                           COUNT*   $$/R03
001339:
001340: 20,2004  30,2000                                  SBANK=   LOWSUPER                              #  FOR SUBSEQUENT LOW 2CADR'S
001341:
001342: 20,2004           32114        DAPDATA1           CAF      BOOLSMSK                              #  SET DISPLAY ACCORDING TO DAPBOOL'S BITS.
001343: 20,2005           70111                           MASK     DAPBOOLS                              #  LM


001345: 20,2006           55340                           TS       DAPDATR1                              #  LM
001346: 20,2007           40106                           CS       FLGWRD10                              #  SET BIT 14 TO BE COMPLEMENT OF APSFLAG.
001347: 20,2010           74737                           MASK     APSFLBIT
001348: 20,2011           10000                           CCS      A
001349: 20,2012           34736                           CAF      BIT14
001350: 20,2013           27340                           ADS      DAPDATR1
001351: 20,2014           31340        CHKDATA1           CAE      DAPDATR1                              #  IF BITS 13 AND 14 ARE BOTH ZERO, FORCE
001352: 20,2015           74355                           MASK     BIT13-14                              #        A ONE INTO BIT 13.
001353: 20,2016           00006                           EXTEND
001354: 20,2017           12034                           BZF      FORCEONE
001355: 20,2020           31340                           CAE      DAPDATR1                              #  ENSURE THAT NO ILLEGAL BITS SET BY CREW.
001356: 20,2021           72113        MSKDATR1           MASK     DSPLYMSK
001357: 20,2022           55340                           TS       DAPDATR1
001358: 20,2023           32112                           CAF      V01N46                                #  LM
001359: 20,2024           04616                           TC       BANKCALL
001360: 20,2025           20353                           CADR     GOXDSPFR
001361: 20,2026           15472                           TCF      ENDEXT                                #  V34E TERMINATE
001362: 20,2027           12037                           TCF      DPDAT1                                #  V33E PROCEED
001363: 20,2030           12014                           TCF      CHKDATA1                              #  E     NEW DATA        CHECK AND REDISPLAY
001364: 20,2031           36245                           CAF      REVCNT                                #  BITS 2 & 3:  BLANKS R2 & R3.
001365: 20,2032           05464                           TC       BLANKET
001366: 20,2033           15155                           TCF      ENDOFJOB
001367: 20,2034           34737        FORCEONE           CAF      BIT13
001368: 20,2035           27340                           ADS      DAPDATR1
001369: 20,2036           12021                           TCF      MSKDATR1
001370:
001371: 20,2037           00004        DPDAT1             INHINT                                         #  INHINT FOR SETTING OF FLAG BITS AND MASS
001372: 20,2040           44737                           CS       APSFLBIT                              #        ON BASIS OF DISPLAYED DAPDATR1.
001373: 20,2041           70106                           MASK     FLGWRD10
001374: 20,2042           54001                           TS       L                                     #  SET APSFLAG TO BE COMPLEMENT OF BIT 14
001375: 20,2043           41340                           CS       DAPDATR1
001376: 20,2044           74736                           MASK     BIT14
001377: 20,2045           10000                           CCS      A
001378: 20,2046           34737                           CAF      APSFLBIT
001379: 20,2047           60001                           AD       L
001380: 20,2050           54106                           TS       FLGWRD10
001381: 20,2051           41340                           CS       DAPDATR1                              #  SET BITS OF DAPBOOLS ON BASIS OF DISPLAY
001382: 20,2052           74355                           MASK     BIT13-14                              #        MASK OUT CSMDOCKD (BIT 13) UNLESS BOTH
001383: 20,2053           10000                           CCS      A                                     #        13 AND 14 ARE SET.
001384: 20,2054           44737                           CS       CSMDOCKD
001385: 20,2055           62114                           AD       BOOLSMSK
001386: 20,2056           71340                           MASK     DAPDATR1
001387: 20,2057           54001                           TS       L
001388: 20,2060           42114                           CS       BOOLSMSK
001389: 20,2061           70111                           MASK     DAPBOOLS
001390: 20,2062           60001                           AD       L
001391: 20,2063           54111                           TS       DAPBOOLS
001392: 20,2064           74737                           MASK     CSMDOCKD                              #  LOAD MASS IN ACCORDANCE WITH CSMDOCKD.
001393: 20,2065           10000                           CCS      A                                     #        MASS IS USUALLY OKAY, SO DO
001394: 20,2066           31327                           CAE      CSMMASS                               #        NOT TOUCH ITS LOW-ORDER PART.


001396: 20,2067           61326                           AD       LEMMASS
001397: 20,2070           55243                           TS       MASS
001398: 20,2071           30111                           CAE      DAPBOOLS
001399: 20,2072           74741                           MASK     ACC4OR2X                              #  2 OR 4 JET X-TRANSLATION
001400: 20,2073           00006                           EXTEND                                         #  (BIT ACC4OR2X = 1 FOR 4 JETS)
001401: 20,2074           12101                           BZF      +5
001402: 20,2075           44735                           CS       BIT15
001403: 20,2076           70075                           MASK     FLAGWRD1                              #  CLEAR NJTSFLAG TO 0 FOR 4 JETS
001404: 20,2077           54075                           TS       FLAGWRD1
001405: 20,2100           12104                           TCF      +4
001406: 20,2101           40075                           CS       FLAGWRD1                              #  SET NJTSFLAG TO 1 FOR 2 JETS
001407: 20,2102           74735                           MASK     BIT15
001408: 20,2103           26075                           ADS      FLAGWRD1
001409: 20,2104           30111                           CA       DAPBOOLS                              #  SELECT DESIRED KALCMANU AUTOMATIC
001410: 20,2105           76250                           MASK     THREE                                 #  MANEUVER RATE
001411: 20,2106           60000                           DOUBLE                                         #  RATEINDX HAS TO BE 0,2,4,6 SINCE RATES
001412: 20,2107           55322                           TS       RATEINDX                              #  ARE DP
001413: 20,2110           04635                           TC       POSTJUMP
001414: 20,2111           02211                           CADR     STIKLOAD
001415:
001416: 20,2112           00256        V01N46             VN       0146
001417: 20,2113           33133        DSPLYMSK           OCT      33133
001418: 20,2114           13133        BOOLSMSK           OCT      13133
001419:
001420: 01,2211                                           BANK     01
001421: 01,2000                                           SETLOC   LOADDAP1
001422: 01,2000                                           BANK
001423:
001424: 01,2211                                           COUNT*   $$/R03
001425:
001426: 01,2211           35015        STIKLOAD           CAF      EBANK6
001427: 01,2212           54003                           TS       EBANK
001428: 01,2213  E6,1444                                  EBANK=   STIKSENS
001429: 01,2213           34745                           CA       RHCSCALE                              #  SET STICK SENSITIVITY TO CORRESPOND TO A
001430: 01,2214           70111                           MASK     DAPBOOLS                              #  MAXIMUM COMMANDED RATE (AT 42 COUNTS) OF
001431: 01,2215           10000                           CCS      A                                     #  20 D/S (NORMAL) OR 4 D/S (FINE), ACALED
001432: 01,2216           32340                           CA       NORMAL                                #  AT 45 D/S.
001433: 01,2217           62341                           AD       FINE
001434: 01,2220           55444                           TS       STIKSENS
001435: 01,2221           32343                           CA       -0.6D/S
001436: 01,2222           55476                           TS       -RATEDB                               #  LM-ONLY BREAKOUT LEVEL IS .6 D/S.
001437: 01,2223           34737                           CA       CSMDOCKD                              #  IF CSM-DOCKED, DIVIDE STICK SENSITIVITY
001438: 01,2224           70111                           MASK     DAPBOOLS                              #  BY 10.  NORMAL SCALING IS THEN 2 D/S AND
001439: 01,2225           00006                           EXTEND                                         #  FINE SCALING IS 0.4 D/S
001440: 01,2226           12235                           BZF      +7                                    #  BRANCH IF CSM IS NOT DOCKED.
001441: 01,2227           31444                           CA       STIKSENS
001442: 01,2230           00006                           EXTEND
001443: 01,2231           72342                           MP       1/10
001444: 01,2232           55444                           TS       STIKSENS
001445: 01,2233           32344                           CA       -0.3D/S                               #  CSM-DOCKED BREAKOUT LEVEL IS .3 D/S.
001446: 01,2234           55476                           TS       -RATEDB


001448: 01,2235           00003                           RELINT
001449:
001450: 01,2236           32336        DAPDATA2           CAF      V0647
001451: 01,2237           04616                           TC       BANKCALL
001452: 01,2240           20353                           CADR     GOXDSPFR
001453: 01,2241           12247                           TCF      ENDR03                                #  V34E  TERMINATE. FIRST SET DB.  DO 1/ACCS
001454: 01,2242           12253                           TCF      DAPDAT2                               #  V33E  PROCEED
001455: 01,2243           12236                           TCF      DAPDATA2                              #        LOAD NEW DATA AND RECYCLE
001456: 01,2244           34751                           CAF      BIT3                                  #  BLANKS R3
001457: 01,2245           05464                           TC       BLANKET                               #                LM
001458: 01,2246           15155                           TCF      ENDOFJOB
001459: 01,2247           00004        ENDR03             INHINT
001460: 01,2250           04674                           TC       IBNKCALL
001461: 01,2251           40115                           CADR     RESTORDB
001462: 01,2252           15472                           TCF      ENDEXT                                #  DOES RELINT
001463:
001464: 01,2253           40106        DAPDAT2            CS       FLGWRD10                              #  DETERMINE STAGE FROM APSFLAG
001465: 01,2254           74737                           MASK     APSFLBIT
001466: 01,2255           10000                           CCS      A
001467: 01,2256           32000                           CA       MINLMD
001468: 01,2257           62001                           AD       MINMINLM
001469: 01,2260           61326                           AD       LEMMASS                               #  LEMMASS MUST BE GREATER THAN EMPTY LEM
001470: 01,2261           00006                           EXTEND
001471: 01,2262           62236                           BZMF     DAPDATA2                              #  ASK FOR NEW MASSES
001472: 01,2263           30111                           CAE      DAPBOOLS
001473: 01,2264           74737                           MASK     CSMDOCKD
001474: 01,2265           00006                           EXTEND
001475: 01,2266           12274                           BZF      LEMALONE                              #  SKIP TEST ON CSMMASS IF NOT DOCKED.
001476: 01,2267           44741                           CS       MINCSM                                #  TEST CSM MASS
001477: 01,2270           61327                           AD       CSMMASS                               #  CSMMASS MUST BE GREATER THAN EMPTY CSM
001478: 01,2271           00006                           EXTEND
001479: 01,2272           62236                           BZMF     DAPDATA2                              #  ASK FOR NEW MASSES
001480: 01,2273           31327                           CAE      CSMMASS                               #  DOCKED:  MASS = CSMMASS + LEMMASS
001481: 01,2274           61326        LEMALONE           AD       LEMMASS                               #  LEM ALONE:  MASS = LEMMASS
001482: 01,2275           22007                           ZL
001483: 01,2276           53244                           DXCH     MASS
001484: 01,2277           00004                           INHINT
001485: 01,2300           04674                           TC       IBNKCALL                              #  SET DEADBANK AND COMPUTE MOMENTS OF
001486: 01,2301           40115                           CADR     RESTORDB                              #        INERTIA
001487: 01,2302           00003                           RELINT                                         #  PROCEED TO NOUN 48 (OR END).
001488:
001489: 01,2303           40106        DAPDATA3           CS       FLGWRD10
001490: 01,2304           74737                           MASK     APSFLBIT
001491: 01,2305           00006                           EXTEND                                         #  END ROUTINE IF LEM HAS STAGED.
001492: 01,2306           15472                           BZF      ENDEXT
001493: 01,2307           32337                           CAF      V06N48                                #  DISPLAY TRIM ANGLES AND REQUEST RESPONSE
001494: 01,2310           04616                           TC       BANKCALL
001495: 01,2311           20353                           CADR     GOXDSPFR
001496: 01,2312           05472                           TC       ENDEXT
001497: 01,2313           12320                           TCF      DPDAT3                                #  V33E GO DO TRIM (WAITLIST TO TRIMGIMB)
001498:


001500: 01,2314           12307                           TCF      -5                                    #  LOAD NEW DATA AND RECYCLE
001501: 01,2315           34751                           CAF      BIT3
001502: 01,2316           05464                           TC       BLANKET                               #  BLANK R3
001503: 01,2317           15155                           TCF      ENDOFJOB
001504: 01,2320           34753        DPDAT3             CAF      BIT1
001505: 01,2321           05203                           TC       WAITLIST
001506: 01,2322  E6,1401                                  EBANK=   ROLLTIME
001507: 01,2322           03217 56066                     2CADR    TRIMGIMB
001508:
001509: 01,2324           15155                           TCF      ENDOFJOB                              #  DOES A RELINT
001510: 01,2325           32337        TRIMDONE           CAF      V50N48
001511: 01,2326           04616                           TC       BANKCALL                              #  TRIM IS FINISHED.  PLEASE TERMINATE R03
001512: 01,2327           20361                           CADR     GOMARK3R   -1
001513: 01,2330           05472                           TC       ENDEXT                                #  V34E TERMINATE
001514: 01,2331           05472                           TC       ENDEXT
001515: 01,2332           05472                           TC       ENDEXT
001516: 01,2333           36007                           CAF      OCT24                                 #  BIT5 TO CHANGE TO PERFORM, 3 TO BLANK 43
001517: 01,2334           05464                           TC       BLANKET
001518: 01,2335           15155                           TCF      ENDOFJOB
001519:
001520: 01,2336           01457        V0647              VN       0647
001521: 01,2337           01460        V06N48             VN       0648
001522:
001523: 01,2340  01,2337               V50N48             =        V06N48
001524:
001525: 01,2340           25101        NORMAL             DEC      .660214
001526:                                                                                                  #  NORMAL SCALING IS 20 D/S
001527: 01,2341           05220        FINE               DEC      .165054                               #  FINE STICK SCALING (4 D/S).
001528: 01,2342           03146        1/10               DEC      .1                                    #  FACTOR FOR CSM-DOCKED SCALING
001529: 01,2343           77445        -0.6D/S            DEC      -218       B-14
001530: 01,2344           77622        -0.3D/S            DEC      -109       B-14
001531:


001533:                                                                                                  #  VERB 66       VEHICLES ARE ATTACHED. MOVE THIS VEHICLE STATE VECTOR TO
001534:                                                                                                  #                OTHER VEHICLE STATE VECTOR.
001535:
001536:                                                                                                  #  USE SUBROUTINE GENTRAN.
001537:
001538: 07,2666                                           BANK     7
001539: 43,2000                                           SETLOC   EXTVERBS
001540: 43,2000                                           BANK
001541:
001542: 43,3163                                           COUNT*   $$/EXTVB
001543:
001544: 43,3163  E3,1626                                  EBANK=   RRECTHIS
001545:
001546: 43,3163           40104        ATTACHED           CS       FLAGWRD8
001547: 43,3164           74744                           MASK     SURFFBIT
001548: 43,3165           00006                           EXTEND
001549: 43,3166           12116                           BZF      ALM/END                               #  TURN ON OE AND EXIT IF SURFFLAG SET.
001550: 43,3167           34737                           CAF      PRIO10
001551: 43,3170           05105                           TC       FINDVAC
001552: 43,3171  E3,1626                                  EBANK=   RRECTHIS
001553:
001554: 43,3171           03174 66103                     2CADR    ATTACHIT
001555:
001556: 43,3173           05155                           TC       ENDOFJOB
001557:
001558: 43,3174           06042        ATTACHIT           TC       INTPRET
001559: 43,3175           77624                           CALL
001560: 43,3176           27410                                    INTSTALL
001561: 43,3177           43014                           SET      BON
001562: 43,3200           04063                                    MOONOTH
001563: 43,3201           04304                                    MOONTHIS
001564: 43,3202           67205                                    +3
001565: 43,3203           77614                           CLEAR
001566: 43,3204           04263                                    MOONOTH
001567: 43,3205           77776                           EXIT
001568: 43,3206           33231                           CAF      OCT51
001569: 43,3207           05544                           TC       GENTRAN
001570: 43,3210           01626                           ADRES    RRECTHIS                              #  OUR STATE VECTOR INTO OTHER VIA GENTRAN
001571: 43,3211           01554                           ADRES    RRECTOTH
001572:
001573: 43,3212           00003                           RELINT
001574: 43,3213           06042                           TC       INTPRET
001575: 43,3214           77624                           CALL                                           #  UPDATE R-OTHER, V-OTHER
001576: 43,3215           26757                                    PTOALEM
001577: 43,3216           45154                           LXA,2    CALL
001578: 43,3217           02030                                    PBODY
001579: 43,3220           26114                                    SVDWN1
001580: 43,3221           77776                           EXIT
001581:
001582: 43,3222           33232                           CAF      TCPINAD


001584: 43,3223           50120                           INDEX    FIXLOC
001585: 43,3224           54052                           TS       QPRET
001586: 43,3225           04635                           TC       POSTJUMP
001587: 43,3226           27421                           CADR     INTWAKE                               #  FREE INTEGRATION AND EXIT.
001588:
001589: 43,3227           77634        TCPIN              RTB
001590: 43,3230           21051                                    PINBRNCH
001591:
001592: 43,3231           00051        OCT51              OCT      51
001593: 43,3232           67227        TCPINAD            CADR     TCPIN
001594:
001595:                                                                                                  #  VERB 96       SET QUITFLAT TO STOP INTEGRATION.
001596:
001597:                                                                                                  #        GO TO V37 WITH ERO TO CAUSE P00.
001598:                                                                                                  #                STATEINT WILL CHECK QUITFLAG AND SKIP 1ST PASS,
001599:                                                                                                  #                        THUS ALLOWING A 10 MINUT PERIOD WITHOUT INTEGRATION.
001600:
001601: 43,3233           05504        VERB96             TC       UPFLAG                                #  QUITFLAG WILL CAUSE INTEGRATION TO EXIT
001602: 43,3234           00221                           ADRES    QUITFLAG                              #        AT NEXT TIMESTEP
001603:
001604: 43,3235           34755                           CAF      ZERO
001605: 43,3236           04635                           TC       POSTJUMP
001606: 43,3237           10040                           CADR     V37                                   #  GO TO P00
001607:
001608:                                                                                                  #  VERB 67:      DISPLAY OF W MATRIX
001609:
001610: 43,3240           02076        V67                TC       TESTXACT
001611: 43,3241           35017                           CAF      PRIO5
001612: 43,3242           05105                           TC       FINDVAC
001613: 43,3243  E4,1600                                  EBANK=   WWPOS
001614: 43,3243           02007 62064                     2CADR    V67CALL
001615:
001616: 43,3245           05155                           TC       ENDOFJOB
001617:
001618:                                                                                                  #  VERB 65       DISABLE U,V JETS DURING DPS BURNS
001619:
001620: 43,3246           05504        SNUFFOUT           TC       UPFLAG
001621: 43,3247           00115                           ADRES    SNUFFER
001622: 43,3250           02117                           TC       GOPIN
001623:
001624:                                                                                                  #  VERB 75       ENABLE U,V JETS DURING DPS BURNS
001625:
001626: 43,3251           05516        OUTSNUFF           TC       DOWNFLAG
001627: 43,3252           00115                           ADRES    SNUFFER
001628: 43,3253           02117                           TC       GOPIN
001629:
001630:                                                                                                  #  VERB 85       DISPLAY RR LOS AZIMUTH AND ELEVATION.
001631:
001632:                                                                                                  #  AZIMUTH IS THE ANGLE BETWEEN THE LOS AND THE X-Z NB PLANE, 0-90 DEG IN THE +Y HEMISPHERE,
001633:                                                                                                  #  360-270 DEG IN THE -Y HEMISPHERE.


001635:                                                                                                  #
001636:                                                                                                  #  ELEVATION IS THE ANGLE BETWEEN +ZNB AND THE PROJECTIKON OF THE LOS INTO THE X-Z PLANE, 0-360 ABOUT +Y.
001637:
001638: 43,3254  E4,1600                                  EBANK=   RR-AZ
001639: 43,3254           02076        VERB85             TC       TESTXACT
001640: 43,3255           04635                           TC       POSTJUMP
001641: 43,3256           60000                           CADR     DSPRRLOS
001642:
001643: 40,2000                                           SETLOC   PINBALL1
001644: 40,2000                                           BANK
001645:
001646: 40,2000                                           COUNT*   $$/EXTVB
001647:
001648: 40,2000           35017        DSPRRLOS           CAF      PRIO5
001649: 40,2001           05105                           TC       FINDVAC
001650: 40,2002  E4,1600                                  EBANK=   RR-AZ
001651: 40,2002           02017 60104                     2CADR    RRLOSDSP
001652:
001653: 40,2004           34740                           CAF      PRIO4
001654: 40,2005           05146                           TC       PRIOCHNG
001655: 40,2006           32076                           CAF      V16N56
001656: 40,2007           04616                           TC       BANKCALL
001657: 40,2010           20353                           CADR     GOMARKFR
001658: 40,2011           05563                           TC       B5OFF
001659: 40,2012           05563                           TC       B5OFF
001660: 40,2013           05563                           TC       B5OFF
001661:
001662: 40,2014           34751                           CAF      BIT3
001663: 40,2015           05464                           TC       BLANKET
001664: 40,2016           05155                           TC       ENDOFJOB
001665:
001666: 40,2017           00006        RRLOSDSP           EXTEND
001667: 40,2020           30036                           DCA      CDUT
001668: 40,2021           52155                           DXCH     MPAC
001669: 40,2022           06042                           TC       INTPRET
001670: 40,2023           77624                           CALL
001671: 40,2024           46065                                    RRNBMPAC                              #  GET RR LOS IN BODY AXIS.
001672: 40,2025           00001                           STORE    0D                                    #  UNIT LOS
001673: 40,2026           14007                           STODL    6D
001674: 40,2027           06524                                    HI6ZEROS
001675: 40,2030           24011                           STOVL    8D
001676: 40,2031           00007                                    6D
001677: 40,2032           77656                           UNIT
001678: 40,2033           00007                           STORE    6D                                    #  UNIT OF LOS PROJ IN X-Z PLAND
001679: 40,2034           77641                           DOT
001680: 40,2035           06516                                    UNITZ
001681: 40,2036           24021                           STOVL    COSTH                                 #  16D
001682: 40,2037           06522                                    UNITX
001683: 40,2040           77641                           DOT
001684: 40,2041           00007                                    6D
001685: 40,2042           34023                           STCALL   SINTH                                 #  18D


001687: 40,2043           47322                                    ARCTRIG
001688: 40,2044           43244                           BPL      DAD                                   #  INSURE DISPLAY OF 0-360 DEG.
001689: 40,2045           60047                                    +2
001690: 40,2046           06532                                    DPPOSMAX                              #  INTRODUCES AND ERROR OF B-28 REVS.
001691: 40,2047           26203                           STOVL    RR-ELEV
001692: 40,2050           00001                                    0D
001693: 40,2051           77641                           DOT
001694: 40,2052           06520                                    UNITY
001695: 40,2053           24023                           STOVL    SINTH
001696: 40,2054           00001                                    0D
001697: 40,2055           77641                           DOT
001698: 40,2056           00007                                    6D
001699: 40,2057           34021                           STCALL   COSTH
001700: 40,2060           47322                                    ARCTRIG
001701: 40,2061           43244                           BPL      DAD                                   #  INSURE DISPLAY OF 0-360 DEG.
001702: 40,2062           60064                                    +2
001703: 40,2063           06532                                    DPPOSMAX                              #  INTRODUCES AN ERROR OF B-28 REVS.
001704: 40,2064           02201                           STORE    RR-AZ
001705: 40,2065           77776                           EXIT
001706: 40,2066           34777                           CA       1SEC
001707: 40,2067           04616                           TC       BANKCALL
001708: 40,2070           01736                           CADR     DELAYJOB
001709:
001710: 40,2071           34747                           CA       BIT5
001711: 40,2072           71043                           MASK     EXTVBACT
001712: 40,2073           10000                           CCS      A
001713: 40,2074           02017                           TC       RRLOSDSP
001714: 40,2075           05472                           TC       ENDEXT
001715:
001716: 40,2076           04070        V16N56             VN       1656
001717:

End of include-file EXTENDED_VERBS.agc.  Parent file is MAIN.agc


