
Source Code


000002:                                                                                                  #  Copyright:    Public domain.
000003:                                                                                                  #  Filename:     FIXED_FIXED_CONSTANT_POOL.agc
000004:                                                                                                  #  Purpose:      The main source file for Luminary 1C, revision 131.
000005:                                                                                                  #                It is part of the source code for the Lunar Module's (LM)
000006:                                                                                                  #                Apollo Guidance Computer (AGC) for Apollo 13 and Apollo 14.
000007:                                                                                                  #  Assembler:    yaYUL
000008:                                                                                                  #  Reference:    pp. 1094-1098 of 1729.pdf.
000009:                                                                                                  #  Contact:      Ron Burkey <info@sandroid.org>.
000010:                                                                                                  #  Website:      www.ibiblio.org/apollo/index.html
000011:                                                                                                  #  Mod history:  04/23/03 RSB.   Began.
000012:                                                                                                  #                05/14/05 RSB    Corrected website reference above.
000013:                                                                                                  #                2010-10-25 JL   Indentation fixes.
000014:
000015:                                                                                                  #  The contents of the "Luminary131" files, in general, are
000016:                                                                                                  #  transcribed from a scanned document obtained from MIT's website,
000017:                                                                                                  #  http://hrst.mit.edu/hrs/apollo/public/archive/1729.pdf.  Notations on this
000018:                                                                                                  #  document read, in part:
000019:
000020:                                                                                                  #        NASA Apollo LUMINARY 131 (1C) Program Source Code Listing.
000021:                                                                                                  #        MIT Instrumentation/Draper Laboratory -- 19 December 1969, 1742 pages.
000022:                                                                                                  #        This listing contains the flight program for the Lunar Module
000023:                                                                                                  #        as created by MIT's Draper Lab for the Apollo 13/14 moon missions.
000024:
000025:                                                                                                  #  Refer directly to the online document mentioned above for further information.
000026:                                                                                                  #  Please report any errors (relative to 1729.pdf) to info@sandroid.org.
000027:


000029:    4732                                           BLOCK    02
000030:    4732                                           COUNT*   $$/FCONS
000031:
000032:                                                                                                  #  THE FOLLOWING TABLE OF 18 VALUES IS INDEXED.  DO NOT INSERT OR REMOVE ANY QUANTITIES
000033:
000034:    4732           37777        DPOSMAX            OCT      37777                                 #  MUST PRECEDE POSMAX
000035:    4733           37777        POSMAX             OCT      37777
000036:
000037:    4734     4734               LIMITS             =        NEG1/2
000038:
000039:    4734           57777        NEG1/2             OCT      -20000                                #  USED BY SIN ROUTINE (MUST BE TWO
000040:                                                                                                  #  LOCATIONS IN FRONT OF BIT14)
000041:
000042:                                                                                                  #  BIT TABLE
000043:
000044:    4735           40000        BIT15              OCT      40000
000045:    4736           20000        BIT14              OCT      20000
000046:    4737           10000        BIT13              OCT      10000
000047:    4740           04000        BIT12              OCT      04000
000048:    4741           02000        BIT11              OCT      02000
000049:    4742           01000        BIT10              OCT      01000
000050:    4743           00400        BIT9               OCT      00400
000051:    4744           00200        BIT8               OCT      00200
000052:    4745           00100        BIT7               OCT      00100
000053:    4746           00040        BIT6               OCT      00040
000054:    4747           00020        BIT5               OCT      00020
000055:    4750           00010        BIT4               OCT      00010
000056:    4751           00004        BIT3               OCT      00004
000057:    4752           00002        BIT2               OCT      00002
000058:    4753           00001        BIT1               OCT      00001
000059:
000060:                                                                                                  #  DO NOT DESTROY THIS COMBINATION, SINCE IT IS USED IN DOUBLE PRECISION INSTRUCTIONS.
000061:    4754           77777        NEG0               OCT      -0                                    #  MUST PRECEDE ZERO
000062:    4755           00000        ZERO               OCT      0                                     #  MUST FOLLOW NEG0
000063:                                                                                                  #  BIT1          OCT     00001
000064:                                                                                                  #  NO.WDS        OCT     2               # INTERPRETER
000065:                                                                                                  #  OCTAL3        OCT     3               # INTERPRETER
000066:                                                                                                  #  R3D1          OCT     4               # PINBALL
000067:    4756           00005        FIVE               OCT      5
000068:                                                                                                  #  REVCNT        OCT     6               # INTERPRETER
000069:    4757           00007        SEVEN              OCT      7
000070:                                                                                                  #  BIT4          OCT     00010
000071:                                                                                                  #  R2D1          OCT     11              # PINBALL
000072:    4760     4320               OCT11              =        R2D1                                  #  P20S
000073:                                                                                                  #  BINCON        DEC     10              # PINBALL               (OCTAL 12)
000074:    4760           00013        ELEVEN             DEC      11         B-14
000075:                                                                                                  #  OCT14         OCT     14              # ALARM AND ABORT (FILLER)
000076:    4761           00015        OCT15              OCT      15
000077:                                                                                                  #  R1D1          OCT     16              # PINBALL
000078:    4762           00017        LOW4               OCT      17


000080:                                                                                                  #  BIT5          OCT     00020
000081:                                                                                                  #  NC1           OCT     21              # PINBALL
000082:                                                                                                  #  VD1           OCT     23              # PINBALL
000083:                                                                                                  #  OCT24         OCT     24              # SERVICE ROUTINES
000084:                                                                                                  #  MD1           OCT     25              # PINBALL
000085:    4763           00030        BITS4&5            OCT      30
000086:                                                                                                  #  OCT31         OCT     31              # SERVICE ROUTINES
000087:    4764           00033        OCT33              OCT      33
000088:                                                                                                  #  DEC27         =       OCT33
000089:    4765           00035        OCT35              OCT      35
000090:                                                                                                  #  DEC29         =       OCT35
000091:    4766           00032        CALLCODE           OCT      00032
000092:                                                                                                  #  LOW5          OCT     37              # PINBALL
000093:                                                                                                  #  33DEC         DEC     33              # PINBALL               (OCTAL 41)
000094:                                                                                                  #  34DEC         DEC     34              # PINBALL               (OCTAL 42)
000095:    4767           00045        TBUILDFX           DEC      37         B-14                       #  BUILDUP FOR CONVENIENCE IN DAPTESTING
000096:    4770           00046        TDECAYFX           DEC      38         B-14                       #  CONVENIENCE FOR DAPTESTING
000097:                                                                                                  #  BIT6          OCT     00040
000098:    4771           00050        OCT50              OCT      50
000099:    4772           00055        DEC45              DEC      45         B-14
000100:    4773           00060        SUPER011           OCT      60                                    #  BITS FOR SUPERBNK SETTING 011.
000101:    4774           00062        .5SEC              DEC      50         B-14
000102:                                                                                                  #  BIT7          OCT     00100
000103:
000104:    4775     4745               SUPER100           =        BIT7                                  #  BITS FOR SUPERBNK SETTING 100
000105:                                                                                                  #  (LAST 4K OF ROPE)
000106:    4775           00120        SUPER101           OCT      120                                   #  BITS FOR SUPERBNK SETTING 101
000107:                                                                                                  #  OCT121        OCT     121             # SERVICE ROUTINES
000108:                                                                                                  #  (FIRST 8K OF ACM)
000109:    4776           00140        SUPER110           OCT      140                                   #  BITS FOR SUPERBNK SETTING 110.
000110:                                                                                                  #  (LAST BK OF ACM)
000111:    4777           00144        1SEC               DEC      100        B-14
000112:                                                                                                  #  LOW7          OCT     177             # INTERPRETER
000113:                                                                                                  #  BIT8          OCT     00200
000114:                                                                                                  #  OT215         OCT     215             # ALARM AND ABORT
000115:                                                                                                  #  8,5           OCT     00220           # P20-P25 SUNDANCE
000116:    5000           00310        2SECS              DEC      200        B-14
000117:                                                                                                  #  LOW8          OCT     377             # PINBALL
000118:                                                                                                  #  BIT9          OCT     00400
000119:    5001           00401        GN/CCODE           OCT      00401                                 #  SET S/C CONTROL SWITCH TO G/N
000120:    5002           00454        3SECS              DEC      300        B-14
000121:    5003           00620        4SECS              DEC      400        B-14
000122:    5004           00777        LOW9               OCT      777
000123:                                                                                                  #  BIT10         OCT     01000
000124:                                                                                                  #  5.5DEGS       DEC     .03056          # P20-P25 SUNDANCE      (OCTAL 00765)
000125:                                                                                                  #  OCT1103       OCT     1103            # ALARM AND ABORT
000126:    5005           01124        C5/2               DEC      .0363551                              #                        (OCTAL 01124)
000127:    5006           01211        V05N09             VN       0509                                  #  (SAME AS OCTAL 1211)
000128:    5007           01400        OCT1400            OCT      01400
000129:    5010           01426        V06N22             VN       0622


000131:                                                                                                  #  MID5          OCT     1740            # PINBALL
000132:    5011           01776        BITS2-10           OCT      1776
000133:    5012           01777        LOW10              OCT      1777
000134:                                                                                                  #  BIT11         OCT     02000
000135:                                                                                                  #  2K+3          OCT     2003            # PINBALL
000136:    5013           02177        LOW7+2K            OCT      2177                                  #  OP CODE MASK + BANK 1 FBANK SETTING
000137:    5014           02400        EBANK5             OCT      02400
000138:    5015           03000        PRIO3              OCT      03000
000139:    5016           03400        EBANK7             OCT      03400
000140:                                                                                                  #  LOW11         OCT     3777            # PINBALL
000141:                                                                                                  #  BIT12         OCT     04000
000142:                                                                                                  #  RELTAB        OCT     04025           # T4RUPT
000143:    5017           05000        PRIO5              OCT      05000
000144:    5020           06000        PRIO6              OCT      06000
000145:    5021           07000        PRIO7              OCT      07000
000146:
000147:                                                                                                  #  BIT13         OCT     10000
000148:                                                                                                  #                OCT     10003           # T4RUPT        RELTAB +1D
000149:                                                                                                  #  13,7,2        OCT     10102           # P20-P25 SUNDANCE
000150:    5022           11000        PRIO11             OCT      11000
000151:                                                                                                  #  PRIO12        OCT     12000           # BANKCALL
000152:    5023           13000        PRIO13             OCT      13000
000153:    5024           14000        PRIO14             OCT      14000
000154:                                                                                                  #                OCT     14031           # T4RUPT        RELTAB +2D
000155:    5025           15000        PRIO15             OCT      15000
000156:    5026           16000        PRIO16             OCT      16000
000157:                                                                                                  #  85DEGS        DEC     .45556          # P20-P25 SUNDANCE      (OCTAL 16450)
000158:    5027           17000        PRIO17             OCT      17000
000159:    5030           17770        OCT17770           OCT      17770
000160:                                                                                                  #  BIT14         OCT     20000
000161:                                                                                                  #                OCT     20033           # T4RUPT        RELTAB +3D
000162:    5031           21000        PRIO21             OCT      21000
000163:
000164:    7713                                           BLOCK    03
000165:    7713                                           COUNT*   $$/FCONS
000166:
000167:    7713           22000        PRIO22             OCT      22000                                 #  SERVICE ROUTINES
000168:    7714           23000        PRIO23             OCT      23000
000169:    7715           24000        PRIO24             OCT      24000
000170:                                                                                                  #  5/8+1         OCT     24001           # SINGLE PRECISION SUBROUTINES
000171:                                                                                                  #                OCT     24017           # T4RUPT        RELTAB +4D
000172:    7716           25000        PRIO25             OCT      25000
000173:    7717           26000        PRIO26             OCT      26000
000174:    7720           27000        PRIO27             OCT      27000
000175:                                                                                                  #  CHRPRIO       OCT     30000           # PINBALL
000176:                                                                                                  #                OCT     30036           # T4RUPT        RELTAB +5D
000177:    7721           31000        PRIO31             OCT      31000
000178:    7722           31103        C1/2               DEC      .7853134                              #                        (OCTAL 31103)
000179:    7723           32000        PRIO32             OCT      32000
000180:    7724           33000        PRIO33             OCT      33000
000181:    7725           34000        PRIO34             OCT      34000
000182:                                                                                                  #                OCT     34034           # T4RUPT        RELTAB +6D


000184:    7726           35000        PRIO35             OCT      35000
000185:    7727           36000        PRIO36             OCT      36000
000186:    7730           37000        PRIO37             OCT      37000
000187:    7731           37401        63/64+1            OCT      37401
000188:                                                                                                  #  MID7          OCT     37600           # PINBALL
000189:    7732           37766        OCT37766           OCT      37766
000190:    7733           37774        OCT37774           OCT      37774
000191:    7734           37776        OCT37776           OCT      37776
000192:                                                                                                  #  DPOSMAX       OCT     37777
000193:                                                                                                  #  BIT15         OCT     40000
000194:                                                                                                  #  OCT40001      OCT     40001           # INTERPRETER (CS 1 INSTRUCTION)
000195:    7735           40014        DLOADCOD           OCT      40014
000196:    7736           40015        DLOAD*             OCT      40015
000197:                                                                                                  #                OCT     40023           # T4RUPT        RELTAB +7D
000198:    7737           40040        BIT15+6            OCT      40040
000199:    7740           40200        OCT40200           OCT      40200
000200:                                                                                                  #                OCT     44035           # T4RUPT        RELTAB +8D
000201:                                                                                                  #                OCT     50037           # T4RUPT        RELTAB +9D
000202:                                                                                                  #                OCT     54000           # T4RUPT        RELTAB +10D
000203:    7741           57777        -BIT14             OCT      57777
000204:                                                                                                  #  RELTAB11      OCT     60000           # T4RUPT
000205:    7742           65552        C3/2               DEC      -.3216147                             #                        (OCTAL 65552)
000206:    7743           70000        13,14,15           OCT      70000
000207:    7744           73777        -1/8               OCT      73777
000208:    7745           74000        HIGH4              OCT      74000
000209:    7746           74056        -ENDERAS           DEC      -2001      B-14                       #                        (OCTAL 74056)
000210:                                                                                                  #  HI5           OCT     76000           # PINBALL
000211:    7747           77700        HIGH9              OCT      77700
000212:                                                                                                  #  -ENDVAC       DEC     -45             # INTERPRETER           (OCTAL 77722)
000213:                                                                                                  #  -OCT10        OCT     -10             #                       (OCTAL 77767)
000214:                                                                                                  #  NEG4          DEC     -4              #                       (OCTAL 77773)
000215:    7750           77774        NEG3               DEC      -3         B-14
000216:    7751           77775        NEG2               OCT      77775
000217:    7752           77776        NEGONE             DEC      -1         B-14
000218:


000220:
000221:                                                                                                  #  DEFINED BY EQUALS
000222:
000223:                                                                                                  #  IT WOULD BE TO THE USERS ADVANTAGE TO OCCASIONALLY CHECK ANY OF THESE SYMBOLS IN ORDER TO PREVENT ANY
000224:                                                                                                  #  ACCIDENTAL DEFINITION CHANGES.
000225:
000226:    7753     7752               MINUS1             =        NEG1
000227:    7753     7752               NEG1               =        NEGONE
000228:    7753     4753               ONE                =        BIT1
000229:    7753     4752               TWO                =        BIT2
000230:    7753     6250               THREE              =        OCTAL3
000231:    7753     6250               LOW2               =        THREE
000232:    7753     4751               FOUR               =        BIT3
000233:    7753     6245               SIX                =        REVCNT
000234:    7753     4757               LOW3               =        SEVEN
000235:    7753     4750               EIGHT              =        BIT4
000236:    7753     4320               NINE               =        R2D1
000237:    7753     4363               TEN                =        BINCON
000238:    7753     4760               NOUTCON            =        ELEVEN
000239:    7753     4360               OCT23              =        VD1
000240:    7753     4362               OCT25              =        MD1
000241:    7753     4742               PRIO1              =        BIT10
000242:    7753     5007               EBANK3             =        OCT1400
000243:    7753     4741               PRIO2              =        BIT11
000244:    7753     4775               OCT120             =        SUPER101
000245:    7753     4776               OCT140             =        SUPER110
000246:    7753     4741               2K                 =        BIT11
000247:    7753     4741               EBANK4             =        BIT11
000248:    7753     4740               PRIO4              =        BIT12
000249:    7753     5015               EBANK6             =        PRIO3
000250:    7753     4737               QUARTER            =        BIT13
000251:    7753     4737               PRIO10             =        BIT13
000252:    7753     7666               OCT10001           =        CCSL
000253:    7753     4736               POS1/2             =        HALF
000254:    7753     4736               PRIO20             =        BIT14
000255:    7753     4736               HALF               =        BIT14
000256:    7753     4355               PRIO30             =        CHRPRIO
000257:    7753     4355               BIT13-14           =        PRIO30                                #  INTERPRETER USES IN PROCESSING STORECODE
000258:    7753     6474               OCT30002           =        TLOAD      +1
000259:    7753     7725               B12T14             =        PRIO34
000260:    7753     4735               NEGMAX             =        BIT15
000261:    7753     4735               VLOADCOD           =        BIT15
000262:    7753     6112               VLOAD*             =        OCT40001
000263:    7753     4101               OCT60000           =        RELTAB11
000264:    7753     4350               BANKMASK           =        HI5
000265:

End of include-file FIXED_FIXED_CONSTANT_POOL.agc.  Parent file is MAIN.agc


