
Source Code
000001:                                                                                                 #  Copyright:     Public domain.
000002:                                                                                                 #  Filename:      FIXED_FIXED_CONSTANT_POOL.agc
000003:                                                                                                 #  Purpose:       The main source file for Luminary 1C, revision 131.
000004:                                                                                                 #                 It is part of the source code for the Lunar Module's (LM)
000005:                                                                                                 #                 Apollo Guidance Computer (AGC) for Apollo 13 and Apollo 14.
000006:                                                                                                 #  Assembler:     yaYUL
000007:                                                                                                 #  Reference:     pp. 1094-1098 of 1729.pdf.
000008:                                                                                                 #  Contact:       Ron Burkey <info@sandroid.org>.
000009:                                                                                                 #  Website:       www.ibiblio.org/apollo/index.html
000010:                                                                                                 #  Mod history:   04/23/03 RSB.   Began.
000011:                                                                                                 #                 05/14/05 RSB    Corrected website reference above.
000012:
000013:                                                                                                 #  The contents of the "Luminary131" files, in general, are
000014:                                                                                                 #  transcribed from a scanned document obtained from MIT's website,
000015:                                                                                                 #  http://hrst.mit.edu/hrs/apollo/public/archive/1729.pdf.  Notations on this
000016:                                                                                                 #  document read, in part:
000017:
000018:                                                                                                 #         NASA Apollo LUMINARY 131 (1C) Program Source Code Listing.
000019:                                                                                                 #         MIT Instrumentation/Draper Laboratory -- 19 December 1969, 1742 pages.
000020:                                                                                                 #         This listing contains the flight program for the Lunar Module
000021:                                                                                                 #         as created by MIT's Draper Lab for the Apollo 13/14 moon missions.
000022:
000023:                                                                                                 #  Refer directly to the online document mentioned above for further information.
000024:                                                                                                 #  Please report any errors (relative to 1729.pdf) to info@sandroid.org.
000025:
000026:                                                                                                 #  Page 1094
000027:    4732                                          BLOCK    02
000028:    4732                                          COUNT*   $$/FCONS
000029:
000030:                                                                                                 #  THE FOLLOWING TABLE OF 18 VALUES IS INDEXED.  DO NOT INSERT OR REMOVE ANY QUANTITIES
000031:
000032:    4732           37777        DPOSMAX           OCT      37777                                 #  MUST PRECEDE POSMAX
000033:    4733           37777        POSMAX            OCT      37777
000034:
000035:    4734     4734               LIMITS            =        NEG1/2
000036:
000037:    4734           57777        NEG1/2            OCT      -20000                                #  USED BY SIN ROUTINE (MUST BE TWO
000038:                                                                                                 #  LOCATIONS IN FRONT OF BIT14)
000039:
000040:                                                                                                 #  BIT TABLE
000041:
000042:    4735           40000        BIT15             OCT      40000
000043:    4736           20000        BIT14             OCT      20000
000044:    4737           10000        BIT13             OCT      10000
000045:    4740           04000        BIT12             OCT      04000
000046:    4741           02000        BIT11             OCT      02000
000047:    4742           01000        BIT10             OCT      01000
000048:    4743           00400        BIT9              OCT      00400
000049:    4744           00200        BIT8              OCT      00200
000050:    4745           00100        BIT7              OCT      00100
000051:    4746           00040        BIT6              OCT      00040
000052:    4747           00020        BIT5              OCT      00020
000053:    4750           00010        BIT4              OCT      00010
000054:    4751           00004        BIT3              OCT      00004
000055:    4752           00002        BIT2              OCT      00002
000056:    4753           00001        BIT1              OCT      00001
000057:
000058:                                                                                                 #  DO NOT DESTROY THIS COMBINATION, SINCE IT IS USED IN DOUBLE PRECISION INSTRUCTIONS.
000059:    4754           77777        NEG0              OCT      -0                                    #  MUST PRECEDE ZERO
000060:    4755           00000        ZERO              OCT      0                                     #  MUST FOLLOW NEG0
000061:                                                                                                 #  BIT1           OCT     00001
000062:                                                                                                 #  NO.WDS OCT     2               # INTERPRETER
000063:                                                                                                 #  OCTAL3 OCT     3               # INTERPRETER
000064:                                                                                                 #  R3D1           OCT     4               # PINBALL
000065:    4756           00005        FIVE              OCT      5
000066:                                                                                                 #  REVCNT OCT     6               # INTERPRETER
000067:    4757           00007        SEVEN             OCT      7
000068:                                                                                                 #  BIT4           OCT     00010
000069:                                                                                                 #  R2D1           OCT     11              # PINBALL
000070:    4760     4320               OCT11             =        R2D1                                  #  P20S
000071:                                                                                                 #  BINCON DEC     10              # PINBALL               (OCTAL 12)
000072:    4760           00013        ELEVEN            DEC      11         B-14
000073:                                                                                                 #  OCT14          OCT     14              # ALARM AND ABORT (FILLER)
000074:    4761           00015        OCT15             OCT      15
000075:                                                                                                 #  R1D1           OCT     16              # PINBALL
000076:    4762           00017        LOW4              OCT      17
000077:                                                                                                 #  Page 1095
000078:                                                                                                 #  BIT5           OCT     00020
000079:                                                                                                 #  NC1            OCT     21              # PINBALL
000080:                                                                                                 #  VD1            OCT     23              # PINBALL
000081:                                                                                                 #  OCT24          OCT     24              # SERVICE ROUTINES
000082:                                                                                                 #  MD1            OCT     25              # PINBALL
000083:    4763           00030        BITS4&5           OCT      30
000084:                                                                                                 #  OCT31          OCT     31              # SERVICE ROUTINES
000085:    4764           00033        OCT33             OCT      33
000086:                                                                                                 #  DEC27          =       OCT33
000087:    4765           00035        OCT35             OCT      35
000088:                                                                                                 #  DEC29          =       OCT35
000089:    4766           00032        CALLCODE          OCT      00032
000090:                                                                                                 #  LOW5           OCT     37              # PINBALL
000091:                                                                                                 #  33DEC          DEC     33              # PINBALL               (OCTAL 41)
000092:                                                                                                 #  34DEC          DEC     34              # PINBALL               (OCTAL 42)
000093:    4767           00045        TBUILDFX          DEC      37         B-14                       #  BUILDUP FOR CONVENIENCE IN DAPTESTING
000094:    4770           00046        TDECAYFX          DEC      38         B-14                       #  CONVENIENCE FOR DAPTESTING
000095:                                                                                                 #  BIT6           OCT     00040
000096:    4771           00050        OCT50             OCT      50
000097:    4772           00055        DEC45             DEC      45         B-14
000098:    4773           00060        SUPER011          OCT      60                                    #  BITS FOR SUPERBNK SETTING 011.
000099:    4774           00062        .5SEC             DEC      50         B-14
000100:                                                                                                 #  BIT7           OCT     00100
000101:
000102:    4775     4745               SUPER100          =        BIT7                                  #  BITS FOR SUPERBNK SETTING 100
000103:                                                                                                 #  (LAST 4K OF ROPE)
000104:    4775           00120        SUPER101          OCT      120                                   #  BITS FOR SUPERBNK SETTING 101
000105:                                                                                                 #  OCT121 OCT     121             # SERVICE ROUTINES
000106:                                                                                                 #  (FIRST 8K OF ACM)
000107:    4776           00140        SUPER110          OCT      140                                   #  BITS FOR SUPERBNK SETTING 110.
000108:                                                                                                 #  (LAST BK OF ACM)
000109:    4777           00144        1SEC              DEC      100        B-14
000110:                                                                                                 #  LOW7           OCT     177             # INTERPRETER
000111:                                                                                                 #  BIT8           OCT     00200
000112:                                                                                                 #  OT215          OCT     215             # ALARM AND ABORT
000113:                                                                                                 #  8,5            OCT     00220           # P20-P25 SUNDANCE
000114:    5000           00310        2SECS             DEC      200        B-14
000115:                                                                                                 #  LOW8           OCT     377             # PINBALL
000116:                                                                                                 #  BIT9           OCT     00400
000117:    5001           00401        GN/CCODE          OCT      00401                                 #  SET S/C CONTROL SWITCH TO G/N
000118:    5002           00454        3SECS             DEC      300        B-14
000119:    5003           00620        4SECS             DEC      400        B-14
000120:    5004           00777        LOW9              OCT      777
000121:                                                                                                 #  BIT10          OCT     01000
000122:                                                                                                 #  5.5DEGS        DEC     .03056          # P20-P25 SUNDANCE      (OCTAL 00765)
000123:                                                                                                 #  OCT1103        OCT     1103            # ALARM AND ABORT
000124:    5005           01124        C5/2              DEC      .0363551                              #                         (OCTAL 01124)
000125:    5006           01211        V05N09            VN       0509                                  #  (SAME AS OCTAL 1211)
000126:    5007           01400        OCT1400           OCT      01400
000127:    5010           01426        V06N22            VN       0622
000128:                                                                                                 #  Page 1096
000129:                                                                                                 #  MID5           OCT     1740            # PINBALL
000130:    5011           01776        BITS2-10          OCT      1776
000131:    5012           01777        LOW10             OCT      1777
000132:                                                                                                 #  BIT11          OCT     02000
000133:                                                                                                 #  2K+3           OCT     2003            # PINBALL
000134:    5013           02177        LOW7+2K           OCT      2177                                  #  OP CODE MASK + BANK 1 FBANK SETTING
000135:    5014           02400        EBANK5            OCT      02400
000136:    5015           03000        PRIO3             OCT      03000
000137:    5016           03400        EBANK7            OCT      03400
000138:                                                                                                 #  LOW11          OCT     3777            # PINBALL
000139:                                                                                                 #  BIT12          OCT     04000
000140:                                                                                                 #  RELTAB OCT     04025           # T4RUPT
000141:    5017           05000        PRIO5             OCT      05000
000142:    5020           06000        PRIO6             OCT      06000
000143:    5021           07000        PRIO7             OCT      07000
000144:
000145:                                                                                                 #  BIT13          OCT     10000
000146:                                                                                                 #                 OCT     10003           # T4RUPT        RELTAB +1D
000147:                                                                                                 #  13,7,2 OCT     10102           # P20-P25 SUNDANCE
000148:    5022           11000        PRIO11            OCT      11000
000149:                                                                                                 #  PRIO12 OCT     12000           # BANKCALL
000150:    5023           13000        PRIO13            OCT      13000
000151:    5024           14000        PRIO14            OCT      14000
000152:                                                                                                 #                 OCT     14031           # T4RUPT        RELTAB +2D
000153:    5025           15000        PRIO15            OCT      15000
000154:    5026           16000        PRIO16            OCT      16000
000155:                                                                                                 #  85DEGS DEC     .45556          # P20-P25 SUNDANCE      (OCTAL 16450)
000156:    5027           17000        PRIO17            OCT      17000
000157:    5030           17770        OCT17770          OCT      17770
000158:                                                                                                 #  BIT14          OCT     20000
000159:                                                                                                 #                 OCT     20033           # T4RUPT        RELTAB +3D
000160:    5031           21000        PRIO21            OCT      21000
000161:
000162:    7713                                          BLOCK    03
000163:    7713                                          COUNT*   $$/FCONS
000164:
000165:    7713           22000        PRIO22            OCT      22000                                 #  SERVICE ROUTINES
000166:    7714           23000        PRIO23            OCT      23000
000167:    7715           24000        PRIO24            OCT      24000
000168:                                                                                                 #  5/8+1          OCT     24001           # SINGLE PRECISION SUBROUTINES
000169:                                                                                                 #                 OCT     24017           # T4RUPT        RELTAB +4D
000170:    7716           25000        PRIO25            OCT      25000
000171:    7717           26000        PRIO26            OCT      26000
000172:    7720           27000        PRIO27            OCT      27000
000173:                                                                                                 #  CHRPRIO        OCT     30000           # PINBALL
000174:                                                                                                 #                 OCT     30036           # T4RUPT        RELTAB +5D
000175:    7721           31000        PRIO31            OCT      31000
000176:    7722           31103        C1/2              DEC      .7853134                              #                         (OCTAL 31103)
000177:    7723           32000        PRIO32            OCT      32000
000178:    7724           33000        PRIO33            OCT      33000
000179:    7725           34000        PRIO34            OCT      34000
000180:                                                                                                 #                 OCT     34034           # T4RUPT        RELTAB +6D
000181:                                                                                                 #  Page 1097
000182:    7726           35000        PRIO35            OCT      35000
000183:    7727           36000        PRIO36            OCT      36000
000184:    7730           37000        PRIO37            OCT      37000
000185:    7731           37401        63/64+1           OCT      37401
000186:                                                                                                 #  MID7           OCT     37600           # PINBALL
000187:    7732           37766        OCT37766          OCT      37766
000188:    7733           37774        OCT37774          OCT      37774
000189:    7734           37776        OCT37776          OCT      37776
000190:                                                                                                 #  DPOSMAX        OCT     37777
000191:                                                                                                 #  BIT15          OCT     40000
000192:                                                                                                 #  OCT40001       OCT     40001           # INTERPRETER (CS 1 INSTRUCTION)
000193:    7735           40014        DLOADCOD          OCT      40014
000194:    7736           40015        DLOAD*            OCT      40015
000195:                                                                                                 #                 OCT     40023           # T4RUPT        RELTAB +7D
000196:    7737           40040        BIT15+6           OCT      40040
000197:    7740           40200        OCT40200          OCT      40200
000198:                                                                                                 #                 OCT     44035           # T4RUPT        RELTAB +8D
000199:                                                                                                 #                 OCT     50037           # T4RUPT        RELTAB +9D
000200:                                                                                                 #                 OCT     54000           # T4RUPT        RELTAB +10D
000201:    7741           57777        -BIT14            OCT      57777
000202:                                                                                                 #  RELTAB11       OCT     60000           # T4RUPT
000203:    7742           65552        C3/2              DEC      -.3216147                             #                         (OCTAL 65552)
000204:    7743           70000        13,14,15          OCT      70000
000205:    7744           73777        -1/8              OCT      73777
000206:    7745           74000        HIGH4             OCT      74000
000207:    7746           74056        -ENDERAS          DEC      -2001      B-14                       #                         (OCTAL 74056)
000208:                                                                                                 #  HI5            OCT     76000           # PINBALL
000209:    7747           77700        HIGH9             OCT      77700
000210:                                                                                                 #  -ENDVAC        DEC     -45             # INTERPRETER           (OCTAL 77722)
000211:                                                                                                 #  -OCT10 OCT     -10             #                       (OCTAL 77767)
000212:                                                                                                 #  NEG4           DEC     -4              #                       (OCTAL 77773)
000213:    7750           77774        NEG3              DEC      -3         B-14
000214:    7751           77775        NEG2              OCT      77775
000215:    7752           77776        NEGONE            DEC      -1         B-14
000216:
000217:                                                                                                 #  Page 1098
000218:
000219:                                                                                                 #  DEFINED BY EQUALS
000220:
000221:                                                                                                 #  IT WOULD BE TO THE USERS ADVANTAGE TO OCCASIONALLY CHECK ANY OF THESE SYMBOLS IN ORDER TO PREVENT ANY
000222:                                                                                                 #  ACCIDENTAL DEFINITION CHANGES.
000223:
000224:    7753     7752               MINUS1            =        NEG1
000225:    7753     7752               NEG1              =        NEGONE
000226:    7753     4753               ONE               =        BIT1
000227:    7753     4752               TWO               =        BIT2
000228:    7753     6250               THREE             =        OCTAL3
000229:    7753     6250               LOW2              =        THREE
000230:    7753     4751               FOUR              =        BIT3
000231:    7753     6245               SIX               =        REVCNT
000232:    7753     4757               LOW3              =        SEVEN
000233:    7753     4750               EIGHT             =        BIT4
000234:    7753     4320               NINE              =        R2D1
000235:    7753     4363               TEN               =        BINCON
000236:    7753     4760               NOUTCON           =        ELEVEN
000237:    7753     4360               OCT23             =        VD1
000238:    7753     4362               OCT25             =        MD1
000239:    7753     4742               PRIO1             =        BIT10
000240:    7753     5007               EBANK3            =        OCT1400
000241:    7753     4741               PRIO2             =        BIT11
000242:    7753     4775               OCT120            =        SUPER101
000243:    7753     4776               OCT140            =        SUPER110
000244:    7753     4741               2K                =        BIT11
000245:    7753     4741               EBANK4            =        BIT11
000246:    7753     4740               PRIO4             =        BIT12
000247:    7753     5015               EBANK6            =        PRIO3
000248:    7753     4737               QUARTER           =        BIT13
000249:    7753     4737               PRIO10            =        BIT13
000250:    7753     7666               OCT10001          =        CCSL
000251:    7753     4736               POS1/2            =        HALF
000252:    7753     4736               PRIO20            =        BIT14
000253:    7753     4736               HALF              =        BIT14
000254:    7753     4355               PRIO30            =        CHRPRIO
000255:    7753     4355               BIT13-14          =        PRIO30                                #  INTERPRETER USES IN PROCESSING STORECODE
000256:    7753     6474               OCT30002          =        TLOAD      +1
000257:    7753     7725               B12T14            =        PRIO34
000258:    7753     4735               NEGMAX            =        BIT15
000259:    7753     4735               VLOADCOD          =        BIT15
000260:    7753     6112               VLOAD*            =        OCT40001
000261:    7753     4101               OCT60000          =        RELTAB11
000262:    7753     4350               BANKMASK          =        HI5
000263:

End of include-file FIXED_FIXED_CONSTANT_POOL.agc.  Parent file is MAIN.agc


