
Source Code


000002:                                                                                                  ## Copyright:   Public domain.
000003:                                                                                                  ## Filename:    FLAGWORD_ASSIGNMENTS.agc
000004:                                                                                                  ## Purpose:     The main source file for Luminary 1C, revision 131.
000005:                                                                                                  ##              It is part of the source code for the Lunar Module's (LM)
000006:                                                                                                  ##              Apollo Guidance Computer (AGC) for Apollo 13.
000007:                                                                                                  ## Assembler:   yaYUL
000008:                                                                                                  ## Reference:   pp. 61-88
000009:                                                                                                  ## Contact:     Ron Burkey <info@sandroid.org>.
000010:                                                                                                  ## Website:     www.ibiblio.org/apollo/index.html
000011:                                                                                                  ## Mod history: 04/23/03 RSB.   Began.
000012:                                                                                                  ##              05/14/05 RSB    Corrected website reference above.
000013:                                                                                                  ##              05/17/09 RSB    Backported some Luminary 099 fixes pointed
000014:                                                                                                  ##                              out by Onno Hommes.
000015:                                                                                                  ##              2017-01-06 RSB  Page numbers now agree with those on the
000016:                                                                                                  ##                              original hardcopy, as opposed to the PDF page
000017:                                                                                                  ##                              numbers in 1701.pdf.
000018:                                                                                                  ##              2017-02-12 RSB  Proofed comment text using octopus/ProoferComments.
000019:                                                                                                  ##              2017-02-28 RSB  Fixed lingering typos.
000020:                                                                                                  ##              2017-03-02 RSB  Fixed comment-text bugs found whilst proofing
000021:                                                                                                  ##                              Luminary 116.  Also, P00HFLAG --> POOHFLAG, and
000022:                                                                                                  ##                              P00HBIT --> POOHBIT.
000023:                                                                                                  ##              2017-08-14 MAS  Fixed typos found while transcribing Zerlina 56.
000024:


000026:                                                                                                  #  FLAGWORDS 0-11        ARE DOWNLINKED AND CAN BE SET AND CLEARED BY UP-FLAG AND DOWN-FLAG INSTRUCTIONS IN THE
000027:                                                                                                  #                        INTERPRETER.  THESE WERE PREVIOUSLY LISTED UNDER "INTERPRETIVE SWITCH BIT ASSIGNMENTS" IN
000028:                                                                                                  #                        THE ERASABLE LOG SECTION.  FLAGWORDS 12 & 13 WEREPREVIOUSLY RADMODES AND DAPBOOLS AND
000029:                                                                                                  #                        ARE STILL DOWNLINKED UNDER THOSE NAMES.
000030:
000031:                                                                                                  #  ALPHABETICAL LIST OF FLAGWORDS
000032:
000033:                                                                                                  #  9             25              41                      61      COLUMN NO.
000034:                                                                                                  #  FLAGWORD      DEC. NUMBER     BIT AND FLAG            BIT NAME
000035:
000036:                                                                                                  #  ABTTGFLG      143             BIT 7 FLAG 9            ABTTGBIT
000037:                                                                                                  #  ACCOKFLG      207             BIT 3  FLAG 13          ACCSOKAY
000038:                                                                                                  #  ACC4-2FL      199             BIT 11 FLAG 13          ACC4OR2X
000039:                                                                                                  #  ACMODFLG      032             BIT 13 FLAG 2           ACMODBIT
000040:                                                                                                  #  ALTSCALE      186             BIT 9  FLAG 12          ALTSCBIT
000041:                                                                                                  #  ANTENFLG      183             BIT 12 FLAG 12          ANTENBIT
000042:                                                                                                  #  AORBSFLG      085             BIT 5 FLAG 5            AORBSYST
000043:                                                                                                  #  AORBTFLG      200             BIT 10 FLAG 13          AORBTRAN
000044:
000045:                                                                                                  #  APSESW        130             BIT 5  FLAG 8           APSESBIT
000046:                                                                                                  #  APSFLAG       152             BIT 13 FLAG 10          APSFLBIT
000047:                                                                                                  #  ASTNFLAG      108             BIT 12 FLAG 7           ASTNBIT
000048:                                                                                                  #  ATTFLAG       104             BIT 1  FLAG 6           ATTFLBIT
000049:                                                                                                  #  AUTOMODE      193             BIT 2  FLAG 12          AUTOMBIT
000050:                                                                                                  #  AUTR1FLG      209             BIT 1  FLAG 13          AUTRATE1
000051:                                                                                                  #  AUTR2FLG      208             BIT 2  FLAG 13          AUTRATE2
000052:                                                                                                  #  AUXFLAG       103             BIT 2  FLAG 6           AUXFLBIT
000053:                                                                                                  #  AVEGFLAG      115             BIT 5  FLAG 7           AVEGFBIT
000054:                                                                                                  #  AVEMIDSW      149             BIT 1  FLAG 9           AVEMDBIT
000055:                                                                                                  #  AVFLAG        040             BIT 5  FLAG 2           AVFLBIT
000056:                                                                                                  #  CALCMAN2      043             BIT 2  FLAG 2           CALC2BIT
000057:                                                                                                  #  CALCMAN3      042             BIT 3  FLAG 2           CALC3BIT
000058:
000059:                                                                                                  #  CDESFLAG      180             BIT 15 FLAG 12          CDESBIT
000060:                                                                                                  #  CMOONFLG      123             BIT 12 FLAG 8           CMOONBIT
000061:                                                                                                  #  COGAFLAG      131             BIT 4  FLAG 8           COGAFBIT
000062:                                                                                                  #  CSMDKFLG      197             BIT 13 FLAG 13          CSMDOCKD
000063:                                                                                                  #  CULTFLAG      053             BIT 7  FLAG 3           CULTBIT
000064:                                                                                                  #  DAPBOOLS                      FLGWRD13
000065:                                                                                                  #  DBSELFLG      206             BIT 4  FLAG 13          DBSELECT
000066:                                                                                                  #  DBSL2FLG      205             BIT 5 FLAG 13           DBSLECT2
000067:                                                                                                  #  DESIGFLG      185             BIT 10 FLAG 12          DESIGBIT
000068:                                                                                                  #  DIDFLAG       016             BIT 14 FLAG             DIDFLBIT
000069:                                                                                                  #  DIMOFLAG      059             BIT 1  FLAG 3           DIMOBIT
000070:                                                                                                  #  DMENFLG       081             BIT 9  FLAG 5           DMENFBIT


000072:                                                                                                  #  DRIFTDFL      202             BIT 8 FLAG 13           DRIFTBIT
000073:                                                                                                  #  DRIFTFLG      030             BIT 15 FLAG 2           DRFTBIT
000074:                                                                                                  #  DSKYFLAG      075             BIT 15 FLAG 5           DSKYFBIT
000075:                                                                                                  #  D6OR9FLG      058             BIT 2 FLAG 3            D6OR9BIT
000076:                                                                                                  #  ENGONFLG      083             BIT 7 FLAG 5            ENGONBIT
000077:                                                                                                  #  ERADFLAG      017             BIT 13 FLAG 1           ERADFBIT
000078:                                                                                                  #  ETPIFLAG      038             BIT 7 FLAG 2            ETPIBIT
000079:                                                                                                  #  FINALFLG      039             BIT 6 FLAG 2            FINALBIT
000080:                                                                                                  #  FLAGWRD0      (000-014)       (STATE +0)
000081:                                                                                                  #  FLAGWRD1      (015-029)       (STATE +1)
000082:                                                                                                  #  FLAGWRD2      (030-044)       (STATE +2)
000083:                                                                                                  #  FLAGWRD3      (045-059)       (STATE +3)
000084:                                                                                                  #  FLAGWRD4      (060-074)       (STATE +4)
000085:                                                                                                  #  FLAGWRD5      (075-089)       (STATE +5)
000086:                                                                                                  #  FLAGWRD6      (090-104)       (STATE +6)
000087:                                                                                                  #  FLAGWRD7      (105-119)       (STATE +7)
000088:                                                                                                  #  FLAGWRD8      (120-134)       (STATE +8D)
000089:                                                                                                  #  FLAGWRD9      (135-149)       (STATE +9D)
000090:                                                                                                  #  FLAP          142             BIT 8 FLAG 9            FLAPBIT
000091:                                                                                                  #  FLGWRD10      (150-164)       (STATE +10D)
000092:                                                                                                  #  FLGWRD11      (165-179)       (STATE +11D)
000093:                                                                                                  #  FLGWRD12      (180-194)       (STATE +12D)
000094:                                                                                                  #  FLGWRD13      (195-209)       (STATE +13D)
000095:                                                                                                  #  FLPC          138             BIT 12 FLAG 9           FLPCBIT
000096:                                                                                                  #  FLPI          139             BIT 11 FLAG 9           FLPIBIT
000097:                                                                                                  #  FLRCS         149             BIT 10 FLAG 9           FLRCSBIT
000098:                                                                                                  #  FLUNDISP      125             BIT 10 FLAG 8           FLUNDBIT
000099:                                                                                                  #  FLVR          136             BIT 14 FLAG 9           FLVRBIT
000100:                                                                                                  #  FREEFLAG      012             BIT 3 FLAG 0            FREEFBIT
000101:                                                                                                  #  FSPASFLG      005             BIT 10 FLAG 0           FSPASBIT
000102:                                                                                                  #  GLOKFAIL      046             BIT 14 FLAG 3           GLOKFBIT
000103:                                                                                                  #  GMBDRVSW      095             BIT 10 FLAG 6           GMBDRBIT
000104:                                                                                                  #  GUESSW        028             BIT 2 FLAG 1            GUESSBIT
000105:                                                                                                  #  HFLSHFLG      179             BIT 1 FLAG 11           HFLSHBIT
000106:                                                                                                  #  IDLEFLAG      113             BIT 7 FLAG 7            IDLEFBIT
000107:                                                                                                  #  IGNFLAG       107             BIT 13 FLAG 7           IGNFLBIT
000108:                                                                                                  #  IMPULSW       036             BIT 9 FLAG 2            IMPULBIT
000109:                                                                                                  #  IMUSE         007             BIT 8 FLAG 0            IMUSEBIT
000110:                                                                                                  #  INFINFLG      128             BIT 7 FLAG 8            INFINBIT
000111:                                                                                                  #  INITALGN      133             BIT 2 FLAG 8            INITABIT
000112:                                                                                                  #  INTFLAG       151             BIT 14 FLAG 10          INTFLBIT
000113:                                                                                                  #  INTYPFLG      056             BIT 4 FLAG 3            INTYPBIT
000114:                                                                                                  #  ITSWICH       105             BIT 15 FLAG 7           ITSWBIT
000115:                                                                                                  #  JSWITCH       001             BIT 14 FLAG 0           JSWCHBIT
000116:
000117:                                                                                                  #  LETABORT      141             BIT 9  FLAG 9           LETABBIT
000118:                                                                                                  #  LMOONFLG      124             BIT 11 FLAG 8           LMOONBIT
000119:                                                                                                  #  LOKONSW       010             BIT 5  FLAG 0           LOKONBIT
000120:                                                                                                  #  LOSCMFLG      033             BIT 12 FLAG 2           LOSCMBIT
000121:                                                                                                  #  LPOS2FLG      174             BIT 6 FLAG 11           LPOS2BIT
000122:                                                                                                  #  LRALTFLG      190             BIT 5  FLAG 12          LRALTBIT


000124:                                                                                                  #  LRBYPASS      165             BIT 15 FLAG 11          LRBYBIT
000125:                                                                                                  #  LRINH         172             BIT 8 FLAG 11           LRINHBIT
000126:                                                                                                  #  LRPOSFLG      189             BIT 6 FLAG 12           LRPOSBIT
000127:                                                                                                  #  LRVELFLG      187             BIT 8 FLAG 12           LRVELBIT
000128:                                                                                                  #  LUNAFLAG      048             BIT 12 FLAG 3           LUNABIT
000129:                                                                                                  #  MANUFLAG      106             BIT 14 FLAG 7           MANUFBIT
000130:                                                                                                  #  MGLVFLAG      088             BIT 2 FLAG 5            MGLVFBIT
000131:                                                                                                  #  MIDAVFLG      148             BIT 2 FLAG 9            MIDAVBIT
000132:                                                                                                  #  MIDFLAG       002             BIT 13 FLAG 0           MIDFLBIT
000133:                                                                                                  #  MID1FLAG      147             BIT 3 FLAG 9            MID1BIT
000134:                                                                                                  #  MKOVFLAG      072             BIT 3 FLAG 4            MKOVBIT
000135:                                                                                                  #  MOONFLAG      003             BIT 12 FLAG 0           MOONBIT
000136:                                                                                                  #  MRKIDFLG      060             BIT 15 FLAG 4           MRKIDBIT
000137:                                                                                                  #  MRKNVFLG      066             BIT 9 FLAG 4            MRKNVBIT
000138:                                                                                                  #  MRUPTFLG      070             BIT 5 FLAG 4            MRUPTBIT
000139:                                                                                                  #  MUNFLAG       097             BIT 8 FLAG 6            MUNFLBIT
000140:                                                                                                  #  MWAITFLG      064             BIT 11 FLAG 4           MWAITBIT
000141:                                                                                                  #  NEEDLFLG      011             BIT 4 FLAG 0            NEEDLBIT
000142:                                                                                                  #  NEED2FLG      000             BIT 15 FLAG 0           NEED2BIT
000143:                                                                                                  #  NEWIFLG       122             BIT 13 FLAG 8           NEWIBIT
000144:                                                                                                  #  NJETSFLG      015             BIT 15 FLAG             NJETSBIT
000145:                                                                                                  #  NODOFLAG      044             BIT 1 FLAG 2            NODOBIT
000146:                                                                                                  #  NOLRREAD      170             BIT 10 FLAG 11          NOLRRBIT
000147:                                                                                                  #  NORMSW        110             BIT 10 FLAG 7           NORMSBIT
000148:                                                                                                  #  NORRMON       086             BIT 4 FLAG 5            NORRMBIT
000149:                                                                                                  #  NOR29FLG      049             BIT 11 FLAG 3           NR29FBIT
000150:                                                                                                  #  NOTHROTL      078             BIT 12 FLAG 5           NOTHRBIT
000151:                                                                                                  #  NOUPFLAG      024             BIT 6 FLAG 1            NOUPFBIT
000152:                                                                                                  #  NO511FLG      177             BIT 3 FLAG 11           NO511BIT
000153:                                                                                                  #  NRMNVFLG      067             BIT 8 FLAG 4            NRMNVBIT
000154:                                                                                                  #  NRMIDFLG      062             BIT 13 FLAG 4           NRMIDBIT
000155:                                                                                                  #  NRUPTFLG      071             BIT 4 FLAG 4            NRUPTBIT
000156:                                                                                                  #  NTARGFLG      102             BIT 3 FLAG 6            NTARGBIT
000157:                                                                                                  #  NWAITFLG      065             BIT 10 FLAG 4           NWAITBIT
000158:                                                                                                  #  OLDESFLG      014             BIT 1 FLAG 0            OLDESBIT
000159:                                                                                                  #  ORBWFLAG      054             BIT 6 FLAG 3            ORBWFBIT
000160:                                                                                                  #  ORDERSW       129             BIT 6 FLAG 8            ORDERBIT
000161:                                                                                                  #  OURRCFLG      198             BIT 12 FLAG 13          OURRCBIT
000162:                                                                                                  #  PDSPFLAG      063             BIT 12 FLAG 4           PDSPFBIT
000163:                                                                                                  #  PFRATFLG      041             BIT 4 FLAG 2            PFRATBIT
000164:                                                                                                  #  PINBRFLG      069             BIT 6 FLAG 4            PINBRBIT
000165:                                                                                                  #  POOHFLAG      045             BIT 15 FLAG 3           POOHBIT
000166:                                                                                                  #  PRECIFLG      052             BIT 8 FLAG 3            PRECIBIT
000167:                                                                                                  #  PRIODFLG      061             BIT 14 FLAG 1           PRIODBIT
000168:                                                                                                  #  PRONVFLG      068             BIT 7 FLAG 4            PRONVBIT
000169:                                                                                                  #  PSTHIGAT      169             BIT 11 FLAG 11          PSTHIBIT
000170:                                                                                                  #  PULSEFLG      195             BIT 15 FLAG 13          PULSES
000171:                                                                                                  #  P21FLAG       004             BIT 11 FLAG 0           P21FLBIT
000172:                                                                                                  #  P25FLAG       006             BIT 9 FLAG 0            P25FLBIT
000173:                                                                                                  #  P7071FLG      137             BIT 13 FLAG 9           P7071BIT


000175:                                                                                                  #  QUITFLAG      145             BIT 5 FLAG 9            QUITBIT
000176:                                                                                                  #  RADMODES                      FLGWRD12
000177:                                                                                                  #  RASFLAG                       FLGWRD10
000178:                                                                                                  #  RCDUFAIL      188             BIT 7 FLAG 12           RCDUFBIT
000179:                                                                                                  #  RCDU0FLG      182             BIT 13 FLAG 12          RCDU0BIT
000180:                                                                                                  #  READRFLG      051             BIT 9 FLAG 3            READRBIT        EQUIVALENT FLAG NAME:  R04FLAG
000181:                                                                                                  #  READVEL       175             BIT 5 FLAG 11           READVBIT
000182:                                                                                                  #  REDFLAG       099             BIT 6 FLAG 6            REDFLBIT
000183:                                                                                                  #  REFSMFLG      047             BIT 13 FLAG 3           REFSMBIT
000184:                                                                                                  #  REINTFLG      158             BIT 7 FLAG 10           REINTBIT
000185:                                                                                                  #  REMODFLG      181             BIT 14 FLAG 12          REMODBIT
000186:                                                                                                  #  RENDWFLG      089             BIT 1 FLAG 5            RENDWBIT
000187:                                                                                                  #  REPOSMON      184             BIT 11 FLAG 12          REPOSBIT
000188:                                                                                                  #  RHCSCFLG      203             BIT 7 FLAG 13           RHCSCALE
000189:                                                                                                  #  RNDVZFLG      008             BIT 7 FLAG 0            RNDVZBIT
000190:                                                                                                  #  RNGEDATA      176             BIT 4 FLAG 11           RNGEDBIT
000191:                                                                                                  #  RNGSCFLG      080             BIT 10 FLAG 5           RNGSCBIT
000192:                                                                                                  #  RODFLAG       018             BIT 12 FLAG 1           RODFLBIT
000193:                                                                                                  #  ROTFLAG       144             BIT 6 FLAG 9            ROTFLBIT
000194:                                                                                                  #  RPQFLAG       120             BIT 15 FLAG 8           RPQFLBIT
000195:                                                                                                  #  RRDATAFL      191             BIT 4 FLAG 12           RRDATABT
000196:                                                                                                  #  RRNBSW        009             BIT 6 FLAG 0            RRNBBIT
000197:                                                                                                  #  RRRSFLAG      192             BIT 3 FLAG 12           RRRSBIT
000198:                                                                                                  #  RVSW          111             BIT 9 FLAG 7            RVSWBIT
000199:                                                                                                  #  R04FLAG       051             BIT 9 FLAG 3            R04FLBIT        EQUIVALENT FLAG NAME:  READRFLG
000200:                                                                                                  #  R10FLAG       013             BIT 2 FLAG 0            R10FLBIT
000201:                                                                                                  #  R61FLAG       020             BIT 10 FLAG 1           R61FLBIT
000202:                                                                                                  #  R77FLAG       079             BIT 11 FLAG 5           R77FLBIT
000203:                                                                                                  #  SLOPESW       027             BIT 3 FLAG 1            SLOPEBIT
000204:                                                                                                  #  SNUFFER       077             BIT 13 FLAG 5           SNUFFBIT
000205:                                                                                                  #  SOLNSW        087             BIT 3 FLAG 5            SOLNSBIT
000206:                                                                                                  #  SRCHOPTN      031             BIT 14 FLAG 2           SRCHOBIT
000207:                                                                                                  #  STATEFLG      055             BIT 5 FLAG 3            STATEBIT
000208:                                                                                                  #  STEERSW       034             BIT 11 FLAG 2           STEERBIT
000209:                                                                                                  #  SURFFLAG      127             BIT 8 FLAG 8            SURFFBIT
000210:                                                                                                  #  SWANDISP      109             BIT 11 FLAG 7           SWANDBIT
000211:                                                                                                  #  S32.1F1       090             BIT 15 FLAG 6           S32BIT1
000212:                                                                                                  #  S32.1F2       092             BIT 14 FLAG 6           S32BIT2
000213:                                                                                                  #  S32.1F3A      092             BIT 13 FLAG 6           S32BIT3A
000214:                                                                                                  #  S32.1S3B      093             BIT 12 FLAG 6           S32BIT3B
000215:                                                                                                  #  TFFSW         119             BIT 1 FLAG 7            TFFSWBIT
000216:                                                                                                  #  TRACKFLG      025             BIT 5 FLAG 1            TRACKBIT
000217:                                                                                                  #  TURNONFL      194             BIT 1 FLAG 12           TURNONBT
000218:                                                                                                  #  ULLAGFLG      204             BIT 6 FLAG 13           ULLAGER
000219:                                                                                                  #  UPDATFLG      023             BIT 7 FLAG 1            UPDATBIT
000220:                                                                                                  #  UPLOCKFL      116             BIT 4 FLAG 7            UPLOCBIT
000221:                                                                                                  #  USEQRFLG      196             BIT 14 FLAG 13          USEQRJTS
000222:                                                                                                  #  VEHUPFLG      022             BIT 8 FLAG 1            VEHUPBIT
000223:                                                                                                  #  VELDATA       173             BIT 7 FLAG 11           VELDABIT
000224:                                                                                                  #  VERIFLAG      117             BIT 3 FLAG 7            VERIFBIT


000226:                                                                                                  #  VFLAG         050             BIT 10 FLAG 3           VFLAGBIT
000227:                                                                                                  #  VFLSHFLG      178             BIT 2 FLAG 11           VFLSHBIT
000228:                                                                                                  #  VINTFLAG      057             BIT 3 FLAG 3            VINTFBIT
000229:                                                                                                  #  VXINH         168             BIT 12 FLAG 11          VXINHBIT
000230:                                                                                                  #  V37FLAG       114             BIT 6 FLAG 7            V37FLBIT
000231:                                                                                                  #  V67FLAG       112             BIT 8 FLAG 7            V67FLBIT
000232:                                                                                                  #  V82EMFLG      118             BIT 2 FLAG 7            V82EMBIT
000233:                                                                                                  #  XDELVFLG      037             BIT 8 FLAG 2            XDELVBIT
000234:                                                                                                  #  XDSPFLAG      074             BIT 1 FLAG 4            XDSPBIT
000235:                                                                                                  #  XORFLG        171             BIT 9 FLAG 11           XORFLBIT
000236:                                                                                                  #  XOVINFLG      201             BIT 9 FLAG 13           XOVINHIB
000237:                                                                                                  #  ZOOMFLAG      082             BIT 8 FLAG 5            ZOOMBIT
000238:                                                                                                  #  3AXISFLG      084             BIT 6 FLAG 5            3AXISBIT
000239:                                                                                                  #  360SW         134             BIT 1 FLAG 8            360SWBIT
000240:
000241:                                                                                                  #  ASSIGNMENT AND DESCRIPTION OF FLAGWORDS
000242:
000243: 26,2022     0074               FLAGWRD0           =        STATE      +0                         #  (000-014)
000244:
000245:                                                                                                  #        (SET)                   (RESET)
000246:
000247:                                                                                                  #  BIT 15 FLAG 0 (S)
000248: 26,2022                        NEED2FLG           =        000D                                  #        DISPLAY DAP RATES       CHECK BIT 4 OF THIS
000249: 26,2022     4735               NEED2BIT           =        BIT15                                 #        ON FDAI NEEDLES.        WORD FOR DISPLAY
000250:                                                                                                  #                                MODES (1 OR 2).
000251:
000252:                                                                                                  #  BIT 14 FLAG 0 (S)
000253: 26,2022                        JSWITCH            =        001D                                  #        INTEGRATION OF W        INTEGRATION OF STATE
000254: 26,2022     4736               JSWCHBIT           =        BIT14                                 #        MATRIX                  VECTOR
000255:
000256:                                                                                                  #  BIT 13 FLAG 0 (S)
000257: 26,2022                        MIDFLAG            =        002D                                  #        INTEGRATION WITH        INTEGRATION WITHOUT
000258:                                                                                                  #        SECONDARY BODY AND      SOLAR PERTURBATIONS
000259: 26,2022     4737               MIDFLBIT           =        BIT13                                 #        SOLAR PERTURBATIONS
000260:
000261:                                                                                                  #  BIT 12 FLAG 0 (L)
000262: 26,2022                        MOONFLAG           =        003D                                  #        MOON IS SPHERE OF       EARTH IS SPHERE OF
000263: 26,2022     4740               MOONBIT            =        BIT12                                 #        INFLUENCE               INFLUENCE
000264:
000265:                                                                                                  #  BIT 11 FLAG 0
000266: 26,2022                        P21FLAG            =        004D                                  #        USE BASE VECTORS        1ST PASS -- CALC-
000267: 26,2022     4741               P21FLBIT           =        BIT11                                 #        ALREADY CALCULATED      ULATE BASE VECTORS
000268:


000270:                                                                                                  #  BIT 10 FLAG 0
000271: 26,2022                        FSPASFLG           =        005D                                  #        FIRST PASS THROUGH      NOT FIRST PASS THRU
000272: 26,2022     4742               FSPASBIT           =        BIT10                                 #        REPOSITION ROUTINE      REPOSITION ROUTINE
000273:
000274:                                                                                                  #  BIT 9 FLAG 0  (S)
000275: 26,2022                        P25FLAG            =        006D                                  #        P25 OPERATING           P25 NOT OPERATING
000276: 26,2022     4743               P25FLBIT           =        BIT9
000277:
000278:                                                                                                  #  BIT 8 FLAG 0  (S)
000279: 26,2022                        IMUSE              =        007D                                  #        IMU IN USE              IMU NOT IN USE
000280: 26,2022     4744               IMUSEBIT           =        BIT8
000281:
000282:                                                                                                  #  BIT 7 FLAG 0  (S)
000283: 26,2022                        RNDVZFLG           =        008D                                  #        P20 RUNNING (RADAR      P20 NOT RUNNING
000284: 26,2022     4745               RNDVZBIT           =        BIT7                                  #        IN USE)
000285:
000286:                                                                                                  #  BIT 6 FLAG 0  (S)
000287: 26,2022                        RRNBSW             =        009D                                  #        RADAR TARGET IN RADAR TARGET IN
000288: 26,2022     4746               RRNBBIT            =        BIT6                                  #        NB COORDINATES  SM COORDINATES
000289:
000290:                                                                                                  #  BIT 5 FLAG 0  (S)
000291: 26,2022                        LOKONSW            =        010D                                  #        RADAR LOCK-ON           RADAR LOCK-ON NOT
000292: 26,2022     4747               LOKONBIT           =        BIT5                                  #        DESIRED                 DESIRED
000293:
000294:                                                                                                  #  BIT 4 FLAG 0  (S)
000295: 26,2022                        NEEDLFLG           =        011D                                  #        TOTAL ATTITUDE  A/P FOLLOWING
000296: 26,2022     4750               NEEDLBIT           =        BIT4                                  #        ERROR DISPLAYED ERROR DISPLAYED
000297:
000298:                                                                                                  #  BIT 3 FLAG 0
000299: 26,2022                        FREEFLAG           =        012D                                  #  (USED BY P51-53 TEMP IN MANY DIFFERENT
000300:                                                                                                  #  ROUTINES & BY LUNAR + SOLAR EPHEMERIDES)
000301: 26,2022     4751               FREEFBIT           =        BIT3
000302:
000303:                                                                                                  #  BIT 2 FLAG 0
000304: 26,2022                        R10FLAG            =        013D                                  #        R10 OUTPUTS DATA TO     BESIDES OUTPUT WHEN
000305: 26,2022     4752               R10FLBIT           =        BIT2                                  #        ALTITUDE & ALTITUDE     SET, R10 ALSO OUTPUT
000306:                                                                                                  #        RATE METERS ONLY        TO FORWARD & LATERAL
000307:                                                                                                  #                                VELOCITY CROSSPOINTR
000308:
000309:                                                                                                  #  BIT 1 FLAG 0  (L)
000310: 26,2022                        OLDESFLG           =        014D                                  #        R29 GYRO CMD LOOP       R29 GYRO CMD LOOP


000312: 26,2022     4753               OLDESBIT           =        BIT1                                  #        REQUESTED               NOT REQUESTED
000313:
000314: 26,2022     0075               FLAGWRD1           =        STATE      +1                         #  (015-029)
000315:
000316:                                                                                                  #        (SET)                   (RESET)
000317:
000318:                                                                                                  #  BIT 15 FLAG 1 (S)
000319: 26,2022                        NJETSFLG           =        015D                                  #        TWO JET RCS BURN        FOUR JET RCS BURN
000320: 26,2022     4735               NJETSBIT           =        BIT15
000321:
000322:                                                                                                  #  BIT 14 FLAG 1 (L)
000323: 26,2022                        DIDFLAG            =        016D                                  #        INERTIAL DATA IS        PERFORM DATA DISPLAY
000324: 26,2022     4736               DIDFLBIT           =        BIT14                                 #        AVAILABLE               INITIALIZATION FUNCS
000325:
000326:                                                                                                  #  BIT 13 FLAG 1 (S)
000327: 26,2022                        ERADFLAG           =        017D                                  #        COMPUTE REARTH          USE CONSTANT REARTH
000328: 26,2022     4737               ERADFBIT           =        BIT13                                 #        FISCHER ELLIPSOID       PAD RADIUS
000329:
000330:                                                                                                  #  BIT 12 FLAG 1
000331: 26,2022                        RODFLAG            =        018D                                  #        IF IN P66, NORMAL       IF IN P66, RE-INIT-
000332: 26,2022     4740               RODFLBIT           =        BIT12                                 #        OPERATION CONTINUES.    IALIZATION IS PER-
000333:                                                                                                  #        RESTART CLEARS FLAG     FORMED AND FLAG IS
000334:
000335:                                                                                                  #  BIT 11 FLAG 1
000336:                                                                                                  #                =       019D
000337:                                                                                                  #                =       BIT11
000338:
000339:                                                                                                  #  BIT 10 FLAG 1 (L)
000340: 26,2022                        R61FLAG            =        020D                                  #        RUN R61 LEM             RUN R65 LEM
000341: 26,2022     4742               R61FLBIT           =        BIT10
000342:
000343:                                                                                                  #  BIT 9 FLAG 1
000344:                                                                                                  #                =       021D
000345:                                                                                                  #                =       BIT9
000346:
000347:                                                                                                  #  BIT 8 FLAG 1  (S)
000348: 26,2022                        VEHUPFLG           =        022D                                  #        CSM STATE VECTOR        LEM STATE VECTOR
000349: 26,2022     4744               VEHUPBIT           =        BIT8                                  #        BEING UPDATED           BEING UPDATED
000350:
000351:                                                                                                  #  BIT 7 FLAG 1  (S)
000352: 26,2022                        UPDATFLG           =        023D                                  #        UPDATING BY MARKS       UPDATING BY MARKS
000353: 26,2022     4745               UPDATBIT           =        BIT7                                  #        ALLOWED                 NOT ALLOWED
000354:


000356:                                                                                                  #  BIT 6 FLAG 1  (S)
000357: 26,2022                        NOUPFLAG           =        024D                                  #        NEITHER CSM             EITHER STATE
000358:                                                                                                  #        NOR LM STATE VECTOR     VECTOR MAY BE
000359: 26,2022     4746               NOUPFBIT           =        BIT6                                  #        MAY BE UPDATED          UPDATED
000360:
000361:                                                                                                  #  BIT 5 FLAG 1  (S)
000362: 26,2022                        TRACKFLG           =        025D                                  #        TRACKING ALLOWED        TRACKING NOT ALLOWED
000363: 26,2022     4747               TRACKBIT           =        BIT5
000364:
000365:                                                                                                  #  BIT 4 FLAG 1
000366:                                                                                                  #                =       026D
000367:                                                                                                  #                =       BIT4
000368:
000369:                                                                                                  #  BIT 3 FLAG 1  (S)
000370: 26,2022                        SLOPESW            =        027D                                  #        ITERATE WITH BIAS       ITERATE WITH REGULAR
000371:                                                                                                  #        METHOD IN ITERATOR      FALSI METHOD IN
000372: 26,2022     4751               SLOPEBIT           =        BIT3                                  #                                ITERATOR
000373:
000374:                                                                                                  #  BIT 2 FLAG 1  (S)
000375: 26,2022                        GUESSW             =        028D                                  #        NO STARTING VALUE       STARTING VALUE FOR
000376: 26,2022     4752               GUESSBIT           =        BIT2                                  #        FOR ITERATION           ITERATION EXISTS
000377:
000378:                                                                                                  #  BIT 1 FLAG 1
000379:                                                                                                  #                =       029D
000380:
000381: 26,2022     0076               FLAGWRD2           =        STATE      +2                         #  (030-044)
000382:
000383:                                                                                                  #        (SET)                   (RESET)
000384:
000385:                                                                                                  #  BIT 15 FLAG 2 (S)
000386: 26,2022                        DRIFTFLG           =        030D                                  #        T3RUPT CALLS GYRO       T3RUPT DOES NO GYRO
000387: 26,2022     4735               DRFTBIT            =        BIT15                                 #        COMPENSATION            COMPENSATION
000388:
000389:                                                                                                  #  BIT 14 FLAG 2 (S)
000390: 26,2022                        SRCHOPTN           =        031D                                  #        RADAR IN AUTOMATIC      RADAR NOT IN AUTO-
000391: 26,2022     4736               SRCHOBIT           =        BIT14                                 #        SEARCH OPTION (R24)     MATIC SEARCH OPTION
000392:
000393:                                                                                                  #  BIT 13 FLAG 2 (S)
000394: 26,2022                        ACMODFLG           =        032D                                  #        MANUAL ACQUISITION      AUTO ACQUISITION
000395: 26,2022     4737               ACMODBIT           =        BIT13                                 #        BY RENDESVOUS RADAR     BY RENDESVOUS RADAR
000396:


000398:                                                                                                  #  BIT 12 FLAG 2 (S)
000399: 26,2022                        LOSCMFLG           =        033D                                  #        LINE OF SIGHT BEING     LINE OF SIGHT NOT
000400:                                                                                                  #        COMPUTED (R21)          BEING COMPUTED
000401: 26,2022     4740               LOSCMBIT           =        BIT12
000402:                                                                                                  #        IN R29 (L): RR GYRO     IN R29 (L): RR GYRO
000403:                                                                                                  #        CMD LOOP RUNNING        CMD LOOP OFF
000404:
000405:                                                                                                  #  BIT 11 FLAG 2 (S)
000406: 26,2022                        STEERSW            =        034D                                  #        SUFFICIENT THRUST       INSUFFICIENT THRUST
000407: 26,2022     4741               STEERBIT           =        BIT11                                 #        IS PRESENT              IS PRESENT
000408:
000409:                                                                                                  #  BIT 10 FLAG 2 (S)
000410: 26,2022                                           =        035D
000411: 26,2022                                           =        BIT10
000412:
000413:                                                                                                  #  BIT 9 FLAG 2 (S)
000414: 26,2022                        IMPULSW            =        036D                                  #        MINIMUM IMPULSE         STEERING BURN (NO
000415:                                                                                                  #        BURN (CUTOFF TIME       CUTOFF TIME YET
000416: 26,2022     4743               IMPULBIT           =        BIT9                                  #        SPECIFIED)              AVAILABLE)
000417:
000418:                                                                                                  #  BIT 8 FLAG 2 (S)
000419: 26,2022                        XDELVFLG           =        037D                                  #        EXTERNAL DELTAV VG      LAMBERT (AIMPOINT)
000420: 26,2022     4744               XDELVBIT           =        BIT8                                  #        COMPUTATION             VG COMPUTATION
000421:
000422:                                                                                                  #  BIT 7 FLAG 2 (S)
000423: 26,2022                        ETPIFLAG           =        038D                                  #        ELEVATION ANGLE         TPI TIME SUPPLIED
000424:                                                                                                  #        SUPPLIED FOR            FOR P34,74 TO COMPUT
000425: 26,2022     4745               ETPIBIT            =        BIT7                                  #        P34,74                  ELEVATION
000426:
000427:                                                                                                  #  BIT 6 FLAG 2 (S)
000428: 26,2022                        FINALFLG           =        039D                                  #        LAST PASS THROUGH       INTERIM PASS THROUGH
000429:                                                                                                  #        RENDEZVOUS PROGRAM      RENDEZVOUS PROGRAM
000430: 26,2022     4746               FINALBIT           =        BIT6                                  #        COMPUTATIONS            COMPUTATIONS
000431:
000432:                                                                                                  #  BIT 5 FLAG 2 (S)
000433: 26,2022                        AVFLAG             =        040D                                  #        LEM IS ACTIVE           CSM IS ACTIVE
000434: 26,2022     4747               AVFLBIT            =        BIT5                                  #        VEHICLE                 VEHICLE
000435:
000436:                                                                                                  #  BIT 4 FLAG 2 (S)
000437: 26,2022                        PFRATFLG           =        041D                                  #        PREFERRED ATTITUDE      PREFERRED ATTITUDE
000438: 26,2022     4750               PFRATBIT           =        BIT4                                  #        COMPUTED                NOT COMPUTED
000439:


000441:                                                                                                  #  BIT 3 FLAG 2 (S)
000442: 26,2022                        CALCMAN3           =        042D                                  #        NO FINAL ROLL           FINAL ROLL IS
000443: 26,2022     4751               CALC3BIT           =        BIT3                                  #                                NECESSARY
000444:
000445:                                                                                                  #  BIT 2 FLAG 2 (S)
000446: 26,2022                        CALCMAN2           =        043D                                  #        PERFORM MANEUVER        BYPASS STARTING
000447: 26,2022     4752               CALC2BIT           =        BIT2                                  #        STARTING PROCEDURE      PROCEDURE
000448:
000449:                                                                                                  #  BIT 1 FLAG 2 (S)
000450: 26,2022                        NODOFLAG           =        044D                                  #        V37 NOT PERMITTED       V37 PERMITTED
000451: 26,2022     4753               NODOBIT            =        BIT1
000452:
000453: 26,2022     0077               FLAGWRD3           =        STATE      +3                         #  (045-059)
000454:
000455:                                                                                                  #        (SET)                   (RESET)
000456:
000457:                                                                                                  #  BIT 15 FLAG 3
000458: 26,2022                        POOHFLAG           =        045D                                  #        INHIBIT BACKWARDS       ALLOW BACKWARDS
000459: 26,2022     4735               POOHBIT            =        BIT15                                 #        INTEGRATION             INTEGRATION
000460:
000461:                                                                                                  #  BIT 14 FLAG 3 (S)
000462: 26,2022                        GLOKFAIL           =        046D                                  #        GIMBAL LOCK HAS         NOT IN GIMBAL LOCK
000463: 26,2022     4736               GLOKFBIT           =        BIT14                                 #        OCCURRED
000464:
000465:                                                                                                  #  BIT 13 FLAG 3 *** PROTECTED FROM FRESH START ***
000466: 26,2022                        REFSMFLG           =        047D                                  #        REFSMMAT GOOD           REFSMMAT NO GOOD
000467: 26,2022     4737               REFSMBIT           =        BIT13
000468:
000469:                                                                                                  #  BIT 12 FLAG 3 (S)
000470: 26,2022                        LUNAFLAG           =        048D                                  #        LUNAR LAT-LONG          EARTH LAT-LONG
000471: 26,2022     4740               LUNABIT            =        BIT12
000472:
000473:                                                                                                  #  BIT 11 FLAG 3 (L)
000474: 26,2022                        NOR29FLG           =        049D                                  #        R29 NOT ALLOWED         R29 ALOWED (RR DES-
000475: 26,2022     4741               NR29FBIT           =        BIT11                                 #                                IGNATE, POWERED FLT)
000476:
000477:                                                                                                  #  BIT 10 FLAG 3 (S)
000478: 26,2022                        VFLAG              =        050D                                  #        LESS THAN TWO STARS     TWO STARS IN FIELD
000479: 26,2022     4742               VFLAGBIT           =        BIT10                                 #        IN FIELD OF VIEW        OF VIEW
000480:
000481:                                                                                                  #  BIT 9 FLAG 3  (S)


000483: 26,2022                        R04FLAG            =        051D                                  #        ALARM 521               ALARM 521 ALLOWED
000484:                                                                                                  #        SUPPRESSED
000485: 26,2022     4743               R04FLBIT           =        BIT9
000486:
000487:                                                                                                  #  BIT 9 FLAG 3  (L)
000488: 26,2022  0000063               READRFLG           =        R04FLAG                               #        READING RR DATA         NOT READING RR DATA
000489: 26,2022     4743               READRBIT           =        BIT9                                  #        PURSUANT TO R29         PURSUANT TO R29
000490:
000491:                                                                                                  #  BIT 8 FLAG 3  (S)
000492: 26,2022                        PRECIFLG           =        052D                                  #        NORMAL INTEGRATION      ENGAGES 4-TIME STEP
000493:                                                                                                  #        IN POO                  (POO) LOGIC IN INTE-
000494: 26,2022     4744               PRECIBIT           =        BIT8                                  #                                GRATION
000495:
000496:                                                                                                  #  BIT 7 FLAG 3  (S)
000497: 26,2022                        CULTFLAG           =        053D                                  #        STAR OCCULTED           STAR NOT OCCULTED
000498: 26,2022     4745               CULTBIT            =        BIT7
000499:
000500:                                                                                                  #  BIT 6 FLAG 3  (S)
000501: 26,2022                        ORBWFLAG           =        054D                                  #        W MATRIX VALID FOR      W MATRIX INVALID FOR
000502: 26,2022     4746               ORBWFBIT           =        BIT6                                  #        ORBITAL NAVIGATION      ORBITAL NAVIGATION
000503:
000504:                                                                                                  #  BIT 5 FLAG 3  (S)
000505: 26,2022                        STATEFLG           =        055D                                  #        PERMANENT STATE         PERMANENT STATE
000506: 26,2022     4747               STATEBIT           =        BIT5                                  #        VECTOR UPDATED          VECTOR NOT UPDATED
000507:
000508:                                                                                                  #  BIT 4 FLAG 3  (S)
000509: 26,2022                        INTYPFLG           =        056D                                  #        CONIC INTEGRATION       ENCKE INTEGRATION
000510: 26,2022     4750               INTYPBIT           =        BIT4
000511:
000512:                                                                                                  #  BIT 3 FLAG 3  (S)
000513: 26,2022                        VINTFLAG           =        057D                                  #        CSM STATE VECTOR        LEM STATE VECTOR
000514: 26,2022     4751               VINTFBIT           =        BIT3                                  #        BEING INTEGRATED        BEING INTEGRATED
000515:
000516:                                                                                                  #  BIT 2 FLAG 3 (S)
000517: 26,2022                        D6OR9FLG           =        058D                                  #        DIMENSION OF W IS 9     DIMENSION OF W IS 6
000518: 26,2022     4752               D6OR9BIT           =        BIT2                                  #        FOR INTEGRATION         FOR INTEGRATION
000519:
000520:                                                                                                  #  BIT 1 FLAG 3  (S)
000521: 26,2022                        DIM0FLAG           =        059D                                  #        W MATRIX IS TO BE       W MATRIX IS NOT TO
000522: 26,2022     4753               DIM0BIT            =        BIT1                                  #        USED                    BE USED
000523:


000525: 26,2022     0100               FLAGWRD4           =        STATE      +4                         #  (060-074)
000526:
000527:                                                                                                  #        (SET)                   (RESET)
000528:
000529:                                                                                                  #  BIT 15 FLAG 4 (S)
000530: 26,2022                        MRKIDFLG           =        060D                                  #        MARK DISPLAY IN         NO MARK DISPLAY IN
000531: 26,2022     4735               MRKIDBIT           =        BIT15                                 #        ENDIDLE                 ENDIDLE
000532:
000533:                                                                                                  #  BIT 14 FLAG 4 (S)
000534: 26,2022                        PRIODFLG           =        061D                                  #        PRIORITY DISPLAY IN     NO PRIORITY DISPLAY
000535: 26,2022     4736               PRIODBIT           =        BIT14                                 #        ENDIDLE                 IN ENDIDLE
000536:
000537:                                                                                                  #  BIT 13 FLAG 4 (S)
000538: 26,2022                        NRMIDFLG           =        062D                                  #        NORMAL DISPLAY IN       NO NORMAL DISPLAY
000539: 26,2022     4737               NRMIDBIT           =        BIT13                                 #        ENDIDLE                 IN ENDIDLE
000540:
000541:                                                                                                  #  BIT 12 FLAG 4 (S)
000542: 26,2022                        PDSPFLAG           =        063D                                  #        P20 SETS SO AS TO       LEAVE AS NORMAL DISP
000543:                                                                                                  #        TURN A NORMAL DIS-
000544: 26,2022     4740               PDSPFBIT           =        BIT12                                 #        PLAY INTO A PRIORITY
000545:                                                                                                  #        DISPLAY IN R60
000546:
000547:                                                                                                  #  BIT 11 FLAG 4 (S)
000548: 26,2022                        MWAITFLG           =        064D                                  #        HIGHER PRIORITY         NO HIGHER PRIORITY
000549:                                                                                                  #        DISPLAY OPERATING       DISPLAY OPERATING
000550: 26,2022     4741               MWAITBIT           =        BIT11                                 #        WHEN MARK DISPLAY       WHEN MARK DISPLAY
000551:                                                                                                  #        INITIATED               INITIATED
000552:
000553:                                                                                                  #  BIT 10 FLAG 4 (S)
000554: 26,2022                        NWAITFLG           =        065D                                  #        HIGHER PRIORITY         NO HIGHER PRIORITY
000555:                                                                                                  #        DISPLAY OPERATING       DISPLAY OPERATING
000556: 26,2022     4742               NWAITBIT           =        BIT10                                 #        WHEN NORMAL             WHEN NORMAL DISPLAY
000557:                                                                                                  #        DISPLAY INITIATED       INITIATED
000558:
000559:                                                                                                  #  BIT 9 FLAG 4  (S)
000560: 26,2022                        MRKNVFLG           =        066D                                  #        ASTRONAUT USING         ASTRONAUT NOT USING
000561:                                                                                                  #        KEYBOARD WHEN MARK      KEYBOARD WHEN MARK
000562: 26,2022     4743               MRKNVBIT           =        BIT9                                  #        DISPLAY INITIATED       DISPLAY INITIATED
000563:
000564:                                                                                                  #  BIT 8 FLAG 4  (S)
000565: 26,2022                        NRMNVFLG           =        067D                                  #        ASTRONAUT USING         ASTRONAUT NOT USING
000566:                                                                                                  #        KEYBOARD WHEN           KEYBOARD WHEN
000567: 26,2022     4744               NRMNVBIT           =        BIT8                                  #        NORMAL DISPLAY          NORMAL DISPLAY
000568:                                                                                                  #        INITIATED               INITIATED
000569:


000571:                                                                                                  #  BIT 7 FLAG 4  (S)
000572: 26,2022                        PRONVFLG           =        068D                                  #        ASTRONAUT USING         ASTRONAUT NOT USING
000573:                                                                                                  #        KEYBOARD WHEN           KEYBOARD WHEN
000574: 26,2022     4745               PRONVBIT           =        BIT7                                  #        PRIORITY DISPLAY        PRIORITY DISPLAY
000575:                                                                                                  #        INITIATED               INITIATED
000576:
000577:                                                                                                  #  BIT 6 FLAG 4  (S)
000578: 26,2022                        PINBRFLG           =        069D                                  #        ASTRONAUT HAS           ASTRONAUT HAS NOT
000579:                                                                                                  #        INTERFERED WITH         INTERFERED WITH
000580: 26,2022     4746               PINBRBIT           =        BIT6                                  #        EXISTING DISPLAY        EXISTING DISPLAY
000581:
000582:                                                                                                  #  BIT 5 FLAG 4  (S)
000583: 26,2022                        MRUPTFLG           =        070D                                  #        MARK DISPLAY            MARK DISPLAY NOT
000584:                                                                                                  #        INTERRUPTED BY          INTERRUPTED BY
000585: 26,2022     4747               MRUPTBIT           =        BIT5                                  #        PRIORITY DISPLAY        PRIORITY DISPLAY
000586:
000587:                                                                                                  #  BIT 4 FLAG 4  (S)
000588: 26,2022                        NRUPTFLG           =        071D                                  #        NORMAL DISPLAY          NORMAL DISPLAY NOT
000589:                                                                                                  #        INTERRUPTED BY          INTERRUPTED BY
000590: 26,2022     4750               NRUPTBIT           =        BIT4                                  #        PRIORITY OR MARK        PRIORITY OR MARK
000591:                                                                                                  #        DISPLAY                 DISPLAY
000592:
000593:                                                                                                  #  BIT 3 FLAG 4  (S)
000594: 26,2022                        MKOVFLAG           =        072D                                  #        MARK DISPLAY OVER       NO MARK DISPLAY OVER
000595: 26,2022     4751               MKOVBIT            =        BIT3                                  #        NORMAL                  NORMAL
000596:
000597:                                                                                                  #  BIT 2 FLAG 4
000598:                                                                                                  #                =       073D
000599:
000600:                                                                                                  #  BIT 1 FLAG 4  (S)
000601: 26,2022                        XDSPFLAG           =        074D                                  #        MARK DISPLAY NOT        NO SPECIAL MARK
000602: 26,2022     4753               XDSPBIT            =        BIT1                                  #        TO BE INTERRUPTED       INFORMATION
000603:
000604: 26,2022     0101               FLAGWRD5           =        STATE      +5                         #  (075-089)
000605:
000606:                                                                                                  #        (SET)                   (RESET)
000607:
000608:                                                                                                  #  BIT 15 FLAG 5 (S)
000609: 26,2022                        DSKYFLAG           =        075D                                  #        DISPLAYS SENT TO        NO DISPLAYS TO DSKY
000610: 26,2022     4735               DSKYFBIT           =        BIT15                                 #        DSKY
000611:
000612:                                                                                                  #  BIT 14 FLAG 5
000613:                                                                                                  #                =       076D
000614:                                                                                                  #                =       BIT14
000615:


000617:                                                                                                  #  BIT 13 FLAG 5 (S,L)
000618: 26,2022                        SNUFFER            =        077D                                  #        U,V JETS DISABLED       U,V JETS ENABLED
000619:                                                                                                  #        DURING DPS              DURING DPS
000620: 26,2022     4737               SNUFFBIT           =        BIT13                                 #        BURNS (V65)             BURNS (V75)
000621:
000622:                                                                                                  #  BIT 12 FLAG 5 (S)
000623: 26,2022                        NOTHROTL           =        078D                                  #        INHIBIT FULL            PERMIT FULL THROTTLE
000624: 26,2022     4740               NOTHRBIT           =        BIT12                                 #        THROTTLE
000625:
000626:                                                                                                  #  BIT 11 FLAG 5 (S,L)
000627: 26,2022                        R77FLAG            =        079D                                  #        R77 IS ON,              R77 IS NOT ON.
000628:                                                                                                  #        SUPPRESS ALL RADAR
000629:                                                                                                  #        ALARMS AND TRACKER
000630: 26,2022     4741               R77FLBIT           =        BIT11                                 #        FAILS
000631:
000632:                                                                                                  #  BIT 10 FLAG 5 (S)
000633: 26,2022                        RNGSCFLG           =        080D                                  #        SCALE CHANGE HAS        NO SCALE CHANGE HAS
000634:                                                                                                  #        OCCURRED DURING         OCCURRED DURING
000635: 26,2022     4742               RNGSCBIT           =        BIT10                                 #        RR READING              RR READING
000636:
000637:                                                                                                  #  BIT 9 FLAG 5  (S)
000638: 26,2022                        DMENFLG            =        081D                                  #        DIMENSION OF W IS 9     DIMENSION OF W IS 6
000639: 26,2022     4743               DMENFBIT           =        BIT9                                  #        FOR INCORPORATION       FOR INCORPORATION
000640:
000641:                                                                                                  #  BIT 8 FLAG 5  (S)
000642: 26,2022                        ZOOMFLAG           =        082D                                  #        THROTTLE-UP HAS         THROTTLE-UP HAS NOT
000643: 26,2022     4744               ZOOMBIT            =        BIT8                                  #        OCCURRED IN P63.        YET OCCURRED IN P63.
000644:
000645:                                                                                                  #  BIT 7 FLAG 5  (S)
000646: 26,2022                        ENGONFLG           =        083D                                  #        ENGINE TURNED ON        ENGINE TURNED OFF
000647: 26,2022     4745               ENGONBIT           =        BIT7                                  #
000648:
000649:                                                                                                  #  BIT 6 FLAG 5  (S)
000650: 26,2022                        3AXISFLG           =        084D                                  #        MANEUVER SPECIFIED      MANEUVER SPECIFIED
000651:                                                                                                  #        BY THREE AXES           BY ONE AXIS; R60
000652: 26,2022     4746               3AXISBIT           =        BIT6                                  #                                CALLS VECPOINT.
000653:
000654:                                                                                                  #  BIT 5 FLAG 5
000655: 26,2022                        AORBSFLG           =        085D                                  #        PREFER PAXIS JET        PREFER PAXIS JET
000656: 26,2022     4747               AORBSYST           =        BIT5                                  #        PAIRS 7,15 AND 8,16     PAIRS 4,12 AND 3,11
000657:


000659:                                                                                                  #  BIT 4 FLAG 5  (S)
000660: 26,2022                        NORRMON            =        086D                                  #        BYPASS RR GIMBAL        PERFORM
000661: 26,2022     4750               NORRMBIT           =        BIT4                                  #        MONITOR                 RR GIMBAL MONITOR
000662:
000663:                                                                                                  #  BIT 3 FLAG 5  (S)
000664: 26,2022                        SOLNSW             =        087D                                  #        LAMBERT DOES NOT        LAMBERT CONVERGES OR
000665:                                                                                                  #        CONVERGE,OR TIME-RAD    TIME-RADIUS NON
000666: 26,2022     4751               SOLNSBIT           =        BIT3                                  #        NEARLY CIRCULAR         CIRCULAR
000667:
000668:                                                                                                  #  BIT 2 FLAG 5  (S)
000669: 26,2022                        MGLVFLAG           =        088D                                  #        LOCAL VERTICAL          MIDDLE GIMBAL ANGLE
000670:                                                                                                  #        COORDINATES             COMPUTED
000671: 26,2022     4752               MGLVFBIT           =        BIT2                                  #        COMPUTED
000672:
000673:                                                                                                  #  BIT 1 FLAG 5  (S)
000674: 26,2022                        RENDWFLG           =        089D                                  #        W MATRIX VALID          W MATRIX INVALID
000675:                                                                                                  #        FOR RENDEZVOUS          FOR RENDEZVOUS
000676: 26,2022     4753               RENDWBIT           =        BIT1                                  #        NAVIGATION              NAVIGATION
000677:
000678: 26,2022     0102               FLAGWRD6           =        STATE      +6                         #  (090-104)
000679:
000680:                                                                                                  #        (SET)                   (RESET)
000681:
000682:                                                                                                  #  BIT 15 FLAG 6 (S)
000683: 26,2022                        S32.1F1            =        090D                                  #        DELTA V AT CSI TIME     DVT1 LESS THEN MAX
000684: 26,2022     4735               S32BIT1            =        BIT15                                 #        ONE EXCEEDS MAX
000685:
000686:                                                                                                  #  BIT 14 FLAG 6 (S)
000687: 26,2022                        S32.1F2            =        091D                                  #        FIRST PASS OF           REITERATION OF
000688: 26,2022     4736               S32BIT2            =        BIT14                                 #        NEWTON ITERATION        NEWTON
000689:
000690:                                                                                                  #  BIT 13 FLAG 6 (S)
000691: 26,2022                        S32.1F3A           =        092D                                  #  BIT 13 AND BIT 12 FUNCTION AS AN ORDERED
000692: 26,2022     4737               S32BIT3A           =        BIT13                                 #  PAIR (13,12) INDICATING THE POSSIBLE OC-
000693:                                                                                                  #  CURRANCE OF 2NEWTON ITERATIONS FOR S32.1
000694:                                                                                                  #  IN THE PROGRAM IN THE FOLLOWING ORDER:
000695:                                                                                                  #  BIT 12 FLAG 6                                   (0,1) (I.E.BIT 13 RESET, BIT 12 SET)
000696: 26,2022                        S32.1F3B           =        093D                                  #       = FIRST NEWTON ITERATION BEING DONE
000697: 26,2022     4740               S32BIT3B           =        BIT12                                 #  (0,0)= FIRST PASS OF SECOND NEWT.ITERAT.
000698:                                                                                                  #  (1,1)= 50 FT/SEC STAGE OF SEC. NEWT.ITER
000699:                                                                                                  #  (1,0)= REMAINDER OF SECOND NEWTON ITERA.
000700:


000702:                                                                                                  #  BIT 11 FLAG 6 (S)
000703:
000704:                                                                                                  #  BIT 10 FLAG 6 (S)
000705: 26,2022                        GMBDRVSW           =        095D                                  #        TRIMGIMB OVER           TRIMGIMB NOT OVER
000706: 26,2022     4742               GMBDRBIT           =        BIT10                                 #
000707:
000708:                                                                                                  #  BIT 9 FLAG 6
000709:                                                                                                  #                =       096D
000710:                                                                                                  #                =       BIT9
000711:
000712:                                                                                                  #  BIT 8 FLAG 6  (S)
000713: 26,2022                        MUNFLAG            =        097D                                  #        SERVICER CALLS          SERVICER CALLS
000714: 26,2022     4744               MUNFLBIT           =        BIT8                                  #        MUNRVG                  CALCRVG
000715:
000716:                                                                                                  #  BIT 7 FLAG 6  (L)
000717: 26,2022                                           =        098D
000718: 26,2022                                           =        BIT7
000719:
000720:                                                                                                  #  BIT 6 FLAG 6  (L)
000721: 26,2022                        REDFLAG            =        099D                                  #        LANDING SITE            LANDING SITE
000722:                                                                                                  #        REDESIGNATION           REDESIGNATION NOT
000723: 26,2022     4746               REDFLBIT           =        BIT6                                  #        PERMITTED               PERMITTED
000724:
000725:                                                                                                  #  BIT 5 FLAG 6
000726:                                                                                                  #                =       100D
000727:
000728:                                                                                                  #  BIT 4 FLAG 6
000729:                                                                                                  #                =       101D
000730:
000731:                                                                                                  #  BIT 3 FLAG 6  (S)
000732: 26,2022                        NTARGFLG           =        102D                                  #        ASTRONAUT DID           ASTRONAUT DID NOT
000733:                                                                                                  #        OVERWRITE DELTA         OVERWRITE DELTA
000734: 26,2022     4751               NTARGBIT           =        BIT3                                  #        VELOCITY AT TPI         VELOCITY
000735:                                                                                                  #        OR TPM (P34,35)
000736:
000737:                                                                                                  #  BIT 2 FLAG 6
000738: 26,2022                        AUXFLAG            =        103D                                  #        PROVIDING IDLEFLAG      SERVICER WILL SKIP
000739: 26,2022     4752               AUXFLBIT           =        BIT2                                  #        IS NOT SET, SERV-       DVMON ON ITS NEXT
000740:                                                                                                  #        ICER WILL EXERCISE      PASS EVEN IF THE
000741:                                                                                                  #        DVMON ON ITS NEXT       IDLEFLAG IS NOT SET.
000742:                                                                                                  #        PASS.                   IT WILL THEN SET
000743:                                                                                                  #                                AUXFLAG.
000744:


000746:                                                                                                  #  BIT 1 FLAG 6  (L)
000747: 26,2022                        ATTFLAG            =        104D                                  #        LEM ATTITUDE EXISTS     NO LEM ATTITUDE
000748:                                                                                                  #        IN MOON-FIXED           AVAILABLE IN MOON-
000749: 26,2022     4753               ATTFLBIT           =        BIT1                                  #        COORDINATES             FIXED COORDINATES
000750:
000751: 26,2022     0103               FLAGWRD7           =        STATE      +7                         #  (105-119)
000752:
000753:                                                                                                  #        (SET)                   (RESET)
000754:
000755:                                                                                                  #  BIT 15 FLAG 7 (S)
000756: 26,2022                        ITSWICH            =        105D                                  #        P34;TPI TIME TO BE      TPI HAS BEEN
000757: 26,2022     4735               ITSWBIT            =        BIT15                                 #        COMPUTED                COMPUTED
000758:
000759:                                                                                                  #  BIT 14 FLAG 7 (S)
000760: 26,2022                        MANUFLAG           =        106D                                  #        ATTITUDE MANEUVER       NO ATTITUDE MANEUVER
000761:                                                                                                  #        GOING DURING RR         DURING RR SEARCH
000762: 26,2022     4736               MANUFBIT           =        BIT14                                 #        SEARCH
000763:
000764:                                                                                                  #  BIT 13 FLAG 7 (S)
000765: 26,2022                        IGNFLAG            =        107D                                  #        TIG HAS ARRIVED         TIG HAS NOT ARRIVED
000766: 26,2022     4737               IGNFLBIT           =        BIT13                                 #
000767:
000768:                                                                                                  #  BIT 12 FLAG 7 (S)
000769: 26,2022                        ASTNFLAG           =        108D                                  #        ASTRONAUT HAS           ASTRONAUT HAS NOT
000770: 26,2022     4740               ASTNBIT            =        BIT12                                 #        OKAYED IGNITION         OKAYED IGNITION
000771:
000772:                                                                                                  #  BIT 11 FLAG 7 (L)
000773: 26,2022                        SWANDISP           =        109D                                  #        LANDING ANALOG          LANDING ANALOG
000774: 26,2022     4741               SWANDBIT           =        BIT11                                 #        DISPLAYS ENABLED        DISPLAYS SUPPRESSED
000775:
000776:                                                                                                  #  BIT 10 FLAG 7 (S)
000777: 26,2022                        NORMSW             =        110D                                  #        UNIT NORMAL INPUT       LAMBERT COMPUTES ITS
000778: 26,2022     4742               NORMSBIT           =        BIT10                                 #        TO LAMBERT              OWN UNIT NORMAL
000779:
000780:                                                                                                  #  BIT 9 FLAG 7  (S)
000781: 26,2022                        RVSW               =        111D                                  #        DO NOT COMPUTE          COMPUTE FINAL STATE
000782:                                                                                                  #        FINAL STATE VECTOR      VECTOR IN TIME-THETA
000783: 26,2022     4743               RVSWBIT            =        BIT9                                  #        IN TIME-THETA
000784:
000785:                                                                                                  #  BIT 8 FLAG 7  (S)
000786: 26,2022                        V67FLAG            =        112D                                  #        ASTRONAUT OVERWRITE     ASTRONAUT DOES NOT
000787:                                                                                                  #        W-MATRIX INITIAL        OVERWRITE W-MATRIX


000789: 26,2022     4744               V67FLBIT           =        BIT8                                  #        VALUES                  INITIAL VALUES
000790:
000791:                                                                                                  #  BIT 7 FLAG 7  (S)
000792: 26,2022                        IDLEFLAG           =        113D                                  #        NO DV MONITOR           CONNECT DV MONITOR
000793: 26,2022     4745               IDLEFBIT           =        BIT7                                  #
000794:
000795:                                                                                                  #  BIT 6 FLAG 7  (S)
000796: 26,2022                        V37FLAG            =        114D                                  #        AVERAGEG (SERVICER)     AVERAGEG (SERVICER)
000797: 26,2022     4746               V37FLBIT           =        BIT6                                  #        RUNNING                 OFF
000798:
000799:                                                                                                  #  BIT 5 FLAG 7  (S)
000800: 26,2022                        AVEGFLAG           =        115D                                  #        AVERAGEG (SERVICER)     AVERAGEG (SERVICER)
000801: 26,2022     4747               AVEGFBIT           =        BIT5                                  #        DESIRED                 NOT DESIRED
000802:
000803:                                                                                                  #  BIT 4 FLAG 7  (S)
000804: 26,2022                        UPLOCKFL           =        116D                                  #        K-KBAR-K FAIL           NO K-KBAR-K FAIL
000805: 26,2022     4750               UPLOCBIT           =        BIT4                                  #
000806:
000807:                                                                                                  #  BIT 3 FLAG 7  (S)
000808: 26,2022                        VERIFLAG           =        117D                                  #  CHANGED WHEN V33E OCCURS AT END OF P27
000809: 26,2022     4751               VERIFBIT           =        BIT3                                  #
000810:
000811:                                                                                                  #  BIT 2 FLAG 7  (L,C)
000812: 26,2022                        V82EMFLG           =        118D                                  #        MOON VICINITY           EARTH VICINITY
000813: 26,2022     4752               V82EMBIT           =        BIT2                                  #
000814:
000815:                                                                                                  #  BIT 1 FLAG 7  (S)
000816: 26,2022                        TFFSW              =        119D                                  #        CALCULATE TPERIGEE      CALCULATE TFF
000817: 26,2022     4753               TFFSWBIT           =        BIT1                                  #
000818:
000819: 26,2022     0104               FLAGWRD8           =        STATE      +8D                        #  (120-134)
000820:
000821:                                                                                                  #        (SET)                   (RESET)
000822:
000823:                                                                                                  #  BIT 15 FLAG 8 (S)
000824: 26,2022                        RPQFLAG            =        120D                                  #        RPQ NOT COMPUTED        RPQ COMPUTED
000825:                                                                                                  #        (RPQ = VECTOR BE-
000826: 26,2022     4735               RPQFLBIT           =        BIT15                                 #        TWEEN SECONDARY BODY
000827:                                                                                                  #        AND PRIMARY BODY
000828:
000829:                                                                                                  #  BIT 14 FLAG 8


000831:                                                                                                  #                =       121D
000832:                                                                                                  #                =       BIT14
000833:
000834:                                                                                                  #  BIT 13 FLAG 8 (S)
000835: 26,2022                        NEWIFLG            =        122D                                  #        FIRST PASS THROUGH      SUCCEEDING ITERATION
000836: 26,2022     4737               NEWIBIT            =        BIT13                                 #        INTEGRATION             OF INTEGRATION
000837:
000838:                                                                                                  #  BIT 12 FLAG 8 *** PROTECTED FROM FRESH START ***
000839: 26,2022                        CMOONFLG           =        123D                                  #        PERMANENT CSM STATE     PERMANENT CSM STATE
000840: 26,2022     4740               CMOONBIT           =        BIT12                                 #        IN LUNAR SPHERE         IN EARTH SPHERE
000841:
000842:                                                                                                  #  BIT 11 FLAG 8 *** PROTECTED FROM FRESH START ***
000843: 26,2022                        LMOONFLG           =        124D                                  #        PERMANENT LM STATE      PERMANENT LM STATE
000844: 26,2022     4741               LMOONBIT           =        BIT11                                 #        IN LUNAR SPHERE         IN EARTH SPHERE
000845:
000846:                                                                                                  #  BIT 10 FLAG 8 (L)
000847: 26,2022                        FLUNDISP           =        125D                                  #        CURRENT GUIDANCE        CURRENT GUIDANCE
000848: 26,2022     4742               FLUNDBIT           =        BIT10                                 #        DISPLAYS INHIBITED      DISPLAYS PERMITTED
000849:
000850:                                                                                                  #  BIT 9 FLAG 8  (L)
000851:                                                                                                  #                =       126D
000852:                                                                                                  #                =       BIT9
000853:
000854:                                                                                                  #  BIT 8 FLAG 8  *** PROTECTED FROM FRESH START ***
000855: 26,2022                        SURFFLAG           =        127D                                  #        LM ON LUNAR SURFACE     LM NOT ON LUNAR
000856: 26,2022     4744               SURFFBIT           =        BIT8                                  #                                SURFACE
000857:
000858:                                                                                                  #  BIT 7 FLAG 8  (S)
000859: 26,2022                        INFINFLG           =        128D                                  #        NO CONIC SOLUTION       CONIC SOLUTION
000860:                                                                                                  #        (CLOSURE THROUGH        EXISTS
000861: 26,2022     4745               INFINBIT           =        BIT7                                  #        INFINITY REQUIRED)
000862:
000863:                                                                                                  #  BIT 6 FLAG 8  (S)
000864: 26,2022                        ORDERSW            =        129D                                  #        ITERATOR USES 2ND       ITERATOR USES 1ST
000865: 26,2022     4746               ORDERBIT           =        BIT6                                  #        ORDER MINIMUM MODE      ORDER STANDARD MODE
000866:
000867:                                                                                                  #  BIT 5 FLAG 8  (S)
000868: 26,2022                        APSESW             =        130D                                  #        RDESIRED OUTSIDE        RDESIRED INSIDE
000869:                                                                                                  #        PERICENTER-APOCENTER    PERICENTER-APOCENTER
000870: 26,2022     4747               APSESBIT           =        BIT5                                  #        RANGE IN TIME-RADI      RANGE IN TIME-RADIUS
000871:


000873:                                                                                                  #  BIT 4 FLAG 8  (S)
000874: 26,2022                        COGAFLAG           =        131D                                  #        NO CONIC SOLUTION -     CONIC SOLUTION
000875:                                                                                                  #        TOO CLOSE TO RECTI-     EXISTS (COGA DOES NOT
000876: 26,2022     4750               COGAFBIT           =        BIT4                                  #        LINEAR (COGA OVRFLWS)   OVERFLOW)
000877:
000878:                                                                                                  #  BIT 3 FLAG 8
000879:                                                                                                  #                =       132D
000880:
000881:                                                                                                  #  BIT 2 FLAG 8  (L)
000882: 26,2022                        INITALGN           =        133D                                  #        INITIAL PASS THRU       SECOND PASS THRU P57
000883: 26,2022     4752               INITABIT           =        BIT2                                  #        P57                     (CHECK RESET-MILLARD)
000884:
000885:                                                                                                  #  BIT 1 FLAG 8  (S)
000886: 26,2022                        360SW              =        134D                                  #        TRANSFER ANGLE NEAR     TRANSFER ANGLE NOT
000887: 26,2022     4753               360SWBIT           =        BIT1                                  #        360 DEGREES             NEAR 360 DEGREES
000888:
000889: 26,2022     0105               FLAGWRD9           =        STATE      +9D                        #  (135-149)
000890:
000891:                                                                                                  #        (SET)                   (RESET)
000892:
000893:                                                                                                  #  BIT 15 FLAG 9
000894:                                                                                                  #                =       135D
000895:                                                                                                  #                =       BIT15
000896:
000897:                                                                                                  #  BIT 14 FLAG 9 (L)
000898: 26,2022                        FLVR               =        136D                                  #        VERTICAL RISE           NON-VERTICAL RISE
000899: 26,2022     4736               FLVRBIT            =        BIT14                                 #        (ASCENT GUIDANCE)
000900:
000901:                                                                                                  #  BIT 13 FLAG 9
000902: 26,2022                        P7071FLG           =        137D                                  #        P70 OR P71 IS USING     P12 IS USING THE
000903: 26,2022     4737               P7071BIT           =        BIT13                                 #        ASCENT GUID. EQS.       ASCENT GUID. EQS.
000904:
000905:                                                                                                  #  BIT 12 FLAG 9 (L)
000906: 26,2022                        FLPC               =        138D                                  #        NO POSITION CONTROL     POSITION CONTROL
000907: 26,2022     4740               FLPCBIT            =        BIT12                                 #        (ASCENT GUIDANCE)
000908:
000909:                                                                                                  #  BIT 11 FLAG 9 (L)
000910: 26,2022                        FLPI               =        139D                                  #        PRE-IGNITION PHASE      REGULAR GUIDANCE
000911: 26,2022     4741               FLPIBIT            =        BIT11                                 #        (ASCENT GUIDANCE)
000912:
000913:                                                                                                  #  BIT 10 FLAG 9 (L)
000914: 26,2022                        FLRCS              =        140D                                  #        RCS INJECTION MODE      MAIN ENGINE MODE


000916: 26,2022     4742               FLRCSBIT           =        BIT10                                 #        (ASCENT GUIDANCE)
000917:
000918:                                                                                                  #  BIT 9 FLAG 9  (L)
000919: 26,2022                        LETABORT           =        141D                                  #        ABORT PROGRAMS          ABORT PROGRAMS
000920: 26,2022     4743               LETABBIT           =        BIT9                                  #        ARE ENABLED             ARE NOT ENABLED
000921:
000922:                                                                                                  #  BIT 8 FLAG 9  (L)
000923: 26,2022                        FLAP               =        142D                                  #        APS CONTINUED ABORT     APS ABORT IS NOT A
000924:                                                                                                  #        AFTER DPS STAGING       CONTINUATION
000925: 26,2022     4744               FLAPBIT            =        BIT8                                  #        (ASCENT GUIDANCE)
000926:
000927:                                                                                                  #  BIT 7 FLAG 9  (L)
000928: 26,2022                        ABTTGFLG           =        143D                                  #        J2,K2 PARAMETERS        J1,K1 PARAMETERS
000929: 26,2022     4745               ABTTGBIT           =        BIT7                                  #        USED FOR ABORT          USED FOR ABORT
000930:                                                                                                  #        TARGETING               TARGETING
000931:
000932:                                                                                                  #  BIT 6 FLAG 9  (L)
000933: 26,2022                        ROTFLAG            =        144D                                  #        P70 AND P71 WILL        P70 AND P71 WILL NOT
000934: 26,2022     4746               ROTFLBIT           =        BIT6                                  #        FORCE VEHICLE           FORCE VEHICLE
000935:                                                                                                  #        ROTATION IN THE         ROTATION IN THE
000936:                                                                                                  #        PREFERRED DIRECTION.    PREFERRED DIRECTION
000937:
000938:                                                                                                  #  BIT 5 FLAG 9  (S)
000939: 26,2022                        QUITFLAG           =        145D                                  #        DISCONTINUE INTEGR.     CONTINUE INTEGRATION
000940: 26,2022     4747               QUITBIT            =        BIT5                                  #
000941:
000942:                                                                                                  #  BIT 4 FLAG 9
000943:                                                                                                  #                =       146D
000944:                                                                                                  #                =       BIT4
000945:
000946:                                                                                                  #  BIT 3 FLAG 9  (L)
000947: 26,2022                        MID1FLAG           =        147D                                  #        INTEGRATE TO TDEC       INTEGRATE TO THE
000948: 26,2022     4751               MID1FBIT           =        BIT3                                  #                                THEN-PRESENT TIME
000949:
000950:                                                                                                  #  BIT 2 FLAG 9  (L)
000951: 26,2022                        MIDAVFLG           =        148D                                  #        INTEGRATION ENTERED     INTEGRATION WAS
000952:                                                                                                  #        FROM ONE OF MIDTOAV     NOT ENTERED VIA
000953: 26,2022     4752               MIDAVBIT           =        BIT2                                  #        PORTALS                 MIDTOAV
000954:
000955:                                                                                                  #  BIT 1 FLAG 9  (S)
000956: 26,2022                        AVEMIDSW           =        149D                                  #        AVETOMID CALLING        NO AVETOMID W INTEGR
000957:                                                                                                  #        FOR W.MATRIX INTEGR     ALLOW SET UP RN,VN,
000958: 26,2022     4753               AVEMDBIT           =        BIT1                                  #        DONT WRITE OVER RN,     PIPTIME
000959:                                                                                                  #        VN,PIPTIME
000960:


000962: 26,2022     0106               RASFLAG            EQUALS   FLGWRD10                              #  WAS ONLY AN INSTALL-ERASTALL FLAG
000963:
000964: 26,2022     0106               FLGWRD10           =        STATE      +10D                       #  (150-164)
000965:
000966:                                                                                                  #        (SET)                   (RESET)
000967:
000968:                                                                                                  #  BIT 15 FLAG 10
000969:                                                                                                  #                =       150D
000970:
000971:                                                                                                  #  BIT 14 FLAG 10 (L,C)
000972: 26,2022                        INTFLAG            =        151D                                  #        INTEGRATION IN          INTEGRATION NOT IN
000973: 26,2022     4736               INTFLBIT           =        BIT14                                 #        PROGRESS                PROGRESS
000974:
000975:                                                                                                  #  BIT 13 FLAG 10 (S,L)
000976: 26,2022                        APSFLAG            =        152D                                  #        ASCENT STAGE            DESCENT STAGE
000977: 26,2022     4737               APSFLBIT           =        BIT13                                 #        *** PROTECTED FROM FRESH START ***
000978:
000979:                                                                                                  #  BIT 12 FLAG 10
000980:                                                                                                  #                =       153D
000981:
000982:                                                                                                  #  BIT 11 FLAG 10
000983:                                                                                                  #                =       154D
000984:
000985:                                                                                                  #  BIT 10 FLAG 10
000986:                                                                                                  #                =       155D
000987:
000988:                                                                                                  #  BIT 9 FLAG 10
000989:                                                                                                  #                =       156D
000990:
000991:                                                                                                  #  BIT 8 FLAG 10
000992:                                                                                                  #                =       157D
000993:
000994:                                                                                                  #  BIT 7 FLAG 10 (L,C)
000995: 26,2022                        REINTFLG           =        158D                                  #        INTEGRATION ROUTINE     INTEGRATION ROUTINE
000996: 26,2022     4745               REINTBIT           =        BIT7                                  #        TO BE RESTARTED         NOT TO BE RESTARTED
000997:
000998:                                                                                                  #  BIT 6 FLAG 10
000999:                                                                                                  #                =       159D


001001:
001002:                                                                                                  #  BIT 5 FLAG 10
001003:                                                                                                  #                =       160D
001004:
001005:                                                                                                  #  BIT 4 FLAG 10
001006:                                                                                                  #                =       161D
001007:
001008:                                                                                                  #  BIT 3 FLAG 10
001009:                                                                                                  #                =       162D
001010:
001011:                                                                                                  #  BIT 2 FLAG 10
001012:                                                                                                  #                =       163D
001013:
001014:                                                                                                  #  BIT 1 FLAG 10
001015:                                                                                                  #                =       164D
001016:
001017: 26,2022     0107               FLGWRD11           =        STATE      +11D                       #  (165-179)
001018:
001019:                                                                                                  #        (SET)                   (RESET)
001020:
001021:                                                                                                  #  BIT 15 FLAG 11 (L)(R12)
001022: 26,2022                        LRBYPASS           =        165D                                  #        BYPASS ALL LANDING      DO NOT BYPASS LR
001023: 26,2022     4735               LRBYBIT            =        BIT15                                 #        RADAR UPDATES           UPDATES
001024:
001025:                                                                                                  #  BIT 14 FLAG 11
001026:                                                                                                  #                =       166D
001027:                                                                                                  #                =       BIT14
001028:
001029:                                                                                                  #  = BIT 13 FLAG 11
001030:                                                                                                  #                =       167D
001031:                                                                                                  #                =       BIT13
001032:
001033:                                                                                                  #  BIT 12 FLAG 11 (L)(R12)
001034: 26,2022                        VXINH              =        168D                                  #        IF Z VELOCITY DATA      UPDATE X AXIS
001035:                                                                                                  #        UNREASONABLE,           VELOCITY
001036: 26,2022     4740               VXINHBIT           =        BIT12                                 #        BYPASS X VELOCITY
001037:                                                                                                  #        UPDATE ON NEXT PASS
001038:


001040:                                                                                                  #  BIT 11 FLAG 11 (L)(R12)
001041: 26,2022                        PSTHIGAT           =        169D                                  #        PAST HIGATE             PREHIGATE
001042: 26,2022     4741               PSTHIBIT           =        BIT11                                 #
001043:
001044:                                                                                                  #  BIT 10 FLAG 11 (L)(R12)
001045: 26,2022                        NOLRREAD           =        170D                                  #        LANDING RADAR           LR NOT REPOSITIONING
001046:                                                                                                  #        REPOSITIONING;
001047: 26,2022     4742               NOLRRBIT           =        BIT10                                 #        BYPASS UPDATE
001048:
001049:                                                                                                  #  BIT 9 FLAG 11 (L)(R12)
001050: 26,2022                        XORFLG             =        171D                                  #        BELOW LIMIT             ABOVE LIMIT DO
001051:                                                                                                  #        INHIBIT X AXIS          NOT INHIBIT
001052: 26,2022     4743               XORFLBIT           =        BIT9                                  #        OVERRIDE
001053:
001054:                                                                                                  #  BIT 8 FLAG 11
001055: 26,2022                        LRINH              =        172D                                  #        LANDING RADAR UP-       LR UPDATES INHIBITED
001056: 26,2022     4744               LRINHBIT           =        BIT8                                  #        DATES PERMITTED         BY ASTRONAUT
001057:                                                                                                  #        BY ASTRONAUT
001058:
001059:                                                                                                  #  BIT 7 FLAG 11 (L)(R12)
001060: 26,2022                        VELDATA            =        173D                                  #        LR VELOCITY             LR VELOCITY MEASURE
001061: 26,2022     4745               VELDABIT           =        BIT7                                  #        MEASUREMENT MADE        NOT MADE
001062:
001063:                                                                                                  #  BIT 6 FLAG 11 (L)(R12)
001064: 26,2022                        LPOS2FLG           =        174D                                  #        USE LR POSITION 2       USE LR POSITION 1
001065: 26,2022     4746               LPOS2BIT           =        BIT6                                  #        TRANSFORMATION          TRANSFORMATION
001066:
001067:                                                                                                  #  BIT 5 FLAG 11 (L)(R12)
001068: 26,2022                        READVEL            =        175D                                  #        OK TO READ LR           DO NOT READ LR
001069: 26,2022     4747               READVBIT           =        BIT5                                  #        VELOCITY DATA           VELOCITY DATA
001070:
001071:                                                                                                  #  BIT 4 FLAG 11 (L)(R12)
001072: 26,2022                        RNGEDATA           =        176D                                  #        LR ALTITUDE             LR ALTITUDE MEASURE
001073: 26,2022     4750               RNGEDBIT           =        BIT4                                  #        MEASUREMENT MADE        NOT MADE
001074:
001075:                                                                                                  #  BIT 3 FLAG 11
001076: 26,2022                        NO511FLG           =        177D                                  #        DO NOT TEST LR          TEST LR ANTENNA
001077: 26,2022     4751               NO511BIT           =        BIT3                                  #        ANTENNA POS IN R12      POS IN R12
001078:
001079:                                                                                                  #  BIT 2 FLAG 11 (L)(R12)
001080: 26,2022                        VFLSHFLG           =        178D                                  #        LR VELOCITY FAIL        LR VEL FAIL LAMP


001082:                                                                                                  #        LAMP SHOULD BE          SHOULDN'T FLASH
001083: 26,2022     4752               VFLSHBIT           =        BIT2                                  #        FLASHING
001084:
001085:                                                                                                  #  BIT 1 FLAG 11 (L)(R12)
001086: 26,2022                        HFLSHFLG           =        179D                                  #        LR ALTITUDE FAIL        LR ALTITUDE FAIL
001087: 26,2022     4753               HFLSHBIT           =        BIT1                                  #        LAMP SHOULD BE          LAMP SHOULD NOT BE
001088:                                                                                                  #        FLASHING                FLASHING
001089:
001090: 26,2022     0110               RADMODES           EQUALS   FLGWRD12                              #  RADAR FLAG WORD
001091:
001092: 26,2022     0110               FLGWRD12           =        STATE      +12D                       #  (180-194)     WAS RADMODES
001093:
001094:                                                                                                  #        (SET)                   (RESET)
001095:
001096:                                                                                                  #  BIT 15 FLAG 12
001097: 26,2022                        CDESFLAG           =        180D                                  #        CONTINUOUS DESIG-       LGC CHECKS FOR LOCK-
001098: 26,2022     4735               CDESBIT            =        BIT15                                 #        NATE. LGC COMMANDS      ON WHEN ANTENNA
001099:                                                                                                  #        RR REGARDLESS OF        BEING DESIGNATED
001100:                                                                                                  #        LOCK-ON
001101:
001102:                                                                                                  #  BIT 14 FLAG 12
001103: 26,2022                        REMODFLG           =        181D                                  #        CHANGE IN ANTENNA       NO REMODE REQUESTED
001104: 26,2022     4736               REMODBIT           =        BIT14                                 #        MODE BEEN REQUESTED     OR OCCURRING
001105:                                                                                                  #        I.E., REMODE
001106:
001107:                                                                                                  #  BIT 13 FLAG 12
001108: 26,2022                        RCDU0FLG           =        182D                                  #        RR CDU'S BEING          RR CDU'S NOT BEING
001109: 26,2022     4737               RCDU0BIT           =        BIT13                                 #        ZEROED                  ZEROED
001110:
001111:                                                                                                  #  BIT 12 FLAG 12
001112: 26,2022                        ANTENFLG           =        183D                                  #        RR ANTENNA MODE IS      RR ANTENNA IN MODE 1
001113: 26,2022     4740               ANTENBIT           =        BIT12                                 #        MODE 2
001114:
001115:                                                                                                  #  BIT 11 FLAG 12
001116: 26,2022                        REPOSMON           =        184D                                  #        REPOSITION MONITOR.     NO REPOSITION TAKING
001117: 26,2022     4741               REPOSBIT           =        BIT11                                 #        RR REPOSITION IS        PLACE
001118:                                                                                                  #        TAKING PLACE
001119:
001120:                                                                                                  #  BIT 10 FLAG 12
001121: 26,2022                        DESIGFLG           =        185D                                  #        RR DESIGNATE            RR DESIGNATE NOT
001122: 26,2022     4742               DESIGBIT           =        BIT10                                 #        REQUESTED OR IN         REQUESTED OR IN
001123:                                                                                                  #        PROGRESS                PROGRESS
001124:


001126:                                                                                                  #  BIT 9 FLAG 12
001127: 26,2022                        ALTSCALE           =        186D                                  #        LR ALTITUDE READING     LR ALTITUDE READING
001128: 26,2022     4743               ALTSCBIT           =        BIT9                                  #        IS ON HIGH SCALE        IS ON LOW SCALE
001129:
001130:                                                                                                  #  BIT 8 FLAG 12
001131: 26,2022                        LRVELFLG           =        187D                                  #        LR VELOCITY DATA        NO LR VELOCITY DATA
001132: 26,2022     4744               LRVELBIT           =        BIT8                                  #        FAIL                    FAIL
001133:
001134:                                                                                                  #  BIT 7 FLAG 12
001135: 26,2022                        RCDUFAIL           =        188D                                  #        RR CDU FAIL HAS         RR CDU FAIL OCCURRED
001136: 26,2022     4745               RCDUFBIT           =        BIT7                                  #        NOT OCCURRED
001137:
001138:                                                                                                  #  BIT 6 FLAG 12
001139: 26,2022                        LRPOSFLG           =        189D                                  #        LANDING RADAR           LR POSITION 1
001140: 26,2022     4746               LRPOSBIT           =        BIT6                                  #        POSITION 2
001141:
001142:                                                                                                  #  BIT 5 FLAG 12
001143: 26,2022                        LRALTFLG           =        190D                                  #        LR ALTITUDE DATA        NO LR ALTITUDE DATA
001144: 26,2022     4747               LRALTBIT           =        BIT5                                  #        FAIL.  COULD NOT BE     FAIL
001145:                                                                                                  #        READ SUCCESSFULLY.
001146:
001147:                                                                                                  #  BIT 4 FLAG 12
001148: 26,2022                        RRDATAFL           =        191D                                  #        RR DATA FAIL.           NO RR DATA FAIL.
001149: 26,2022     4750               RRDATABT           =        BIT4                                  #        DATA COULD NOT BE
001150:                                                                                                  #        READ SUCCESSFULLY
001151:
001152:                                                                                                  #  BIT 3 FLAG 12
001153: 26,2022                        RRRSFLAG           =        192D                                  #        RR RANGE READING        RR RANGE READING ON
001154: 26,2022     4751               RRRSBIT            =        BIT3                                  #        ON THE HIGH SCALE       THE LOW SCALE
001155:
001156:                                                                                                  #  BIT 2 FLAG 12
001157: 26,2022                        AUTOMODE           =        193D                                  #        RR NOT IN AUTO MODE.    RR IN AUTO MODE
001158: 26,2022     4752               AUTOMBIT           =        BIT2                                  #        AUTO MODE DISCRETE
001159:                                                                                                  #        IS NOT PRESENT
001160:
001161:                                                                                                  #  BIT 1 FLAG 12
001162: 26,2022                        TURNONFL           =        194D                                  #        RR TURN-ON SEQUENCE     NO RR TURN-ON
001163: 26,2022     4753               TURNONBT           =        BIT1                                  #        IN PROGRESS.  (ZERO     SEQUENCE IN PROGRESS
001164:                                                                                                  #        CDU'S, FIX ANTENNA
001165:                                                                                                  #        MODE)
001166:


001168: 26,2022     0111               DAPBOOLS           EQUALS   FLGWRD13                              #  DIGITAL AUTOPILOT FLAGWORD
001169:
001170: 26,2022     0111               FLGWRD13           =        STATE      +13D                       #  (195-209)     WAS DAPBOOLS
001171:
001172:                                                                                                  #        (SET)                   (RESET)
001173:
001174:                                                                                                  #  BIT 15 FLAG 13
001175: 26,2022                        PULSEFLG           =        195D                                  #        MINIMUM IMPULSE         NOT IN MINIMUM
001176: 26,2022     4735               PULSES             =        BIT15                                 #        COMMAND MODE IN         IMPULSE COMMAND MODE
001177:                                                                                                  #        "ATT HOLD" (V76)        (V77)
001178:
001179:                                                                                                  #  BIT 14 FLAG 13
001180: 26,2022                        USEQRFLG           =        196D                                  #        GIMBAL UNUSABLE.        TRIM GIMBAL MAY BE
001181: 26,2022     4736               USEQRJTS           =        BIT14                                 #        USE JETS ONLY.          USED.
001182:
001183:                                                                                                  #  BIT 13 FLAG 13
001184: 26,2022                        CSMDKFLG           =        197D                                  #        CSM DOCKED.  USE        CSM NOT DOCKED TO LM
001185: 26,2022     4737               CSMDOCKD           =        BIT13                                 #        BACKUP DAP
001186:
001187:                                                                                                  #  BIT 12 FLAG 13
001188: 26,2022                        OURRCFLG           =        198D                                  #        CURRENT DAP PASS        CURRENT DAP PASS IS
001189: 26,2022     4740               OURRCBIT           =        BIT12                                 #        IS RATE COMMAND         NOT RATE COMMAND
001190:
001191:                                                                                                  #  BIT 11 FLAG 13
001192: 26,2022                        ACC4-2FL           =        199D                                  #        4 JET X-AXIS TRANS-     2 JET X-AXIS TRANS-
001193: 26,2022     4741               ACC4OR2X           =        BIT11                                 #        LATION REQUESTED        LATION REQUESTED
001194:
001195:                                                                                                  #  BIT 10 FLAG 13
001196: 26,2022                        AORBTFLG           =        200D                                  #        B SYSTEM FOR X-         A SYSTEM FOR X-
001197: 26,2022     4742               AORBTRAN           =        BIT10                                 #        TRANSLATION             TRANSLATION PREFER'D
001198:
001199:                                                                                                  #  BIT 9 FLAG 13
001200: 26,2022                        XOVINFLG           =        201D                                  #        X-AXIS OVERRIDE         X-AXIS OVERRIDE OKAY
001201: 26,2022     4743               XOVINHIB           =        BIT9                                  #        LOCKED OUT
001202:
001203:                                                                                                  #  BIT 8 FLAG 13
001204: 26,2022                        DRIFTDFL           =        202D                                  #        ASSUME 0 OFFSET         USE OFFSET ACCELERA-
001205: 26,2022     4744               DRIFTBIT           =        BIT8                                  #        DRIFTING FLIGHT.        TION ESTIMATE
001206:


001208:                                                                                                  #  BIT 7 FLAG 13
001209: 26,2022                        RHCSCFLG           =        203D                                  #        NORMAL RHC SCALING      FINE RHC SCALING
001210: 26,2022     4745               RHCSCALE           =        BIT7                                  #        REQUESTED               REQUESTED
001211:
001212:                                                                                                  #  BIT 6 FLAG 13
001213: 26,2022                        ULLAGFLG           =        204D                                  #        ULLAGE REQUEST BY       NO INTERNAL ULLAGE
001214: 26,2022     4746               ULLAGER            =        BIT6                                  #        MISSION PROGRAM         REQUEST
001215:
001216:                                                                                                  #  BIT 5 FLAG 13
001217: 26,2022                        DBSL2FLG           =        205D                                  #        5 DEG DEADBAND          1 OR .3 DEG DEADBAND
001218: 26,2022     4747               DBSLECT2           =        BIT5                                  #        SELECTED BY CREW        SELECTED BY CREW
001219:                                                                                                  #                                (SEE BIT4 DAPBOOLS)
001220:
001221:                                                                                                  #  BIT 4 FLAG 13
001222: 26,2022                        DBSELFLG           =        206D                                  #        1 DEG DEADBAND          MIN DB SELECTED BY
001223: 26,2022     4750               DBSELECT           =        BIT4                                  #        SELECTED BY CREW        CREW (0.3 DEG)
001224:
001225:                                                                                                  #  BIT 3 FLAG 13
001226: 26,2022                        ACCOKFLG           =        207D                                  #        CONTROL AUTHORITY       RESTART OR FRESH ST.
001227: 26,2022     4751               ACCSOKAY           =        BIT3                                  #        VALUES FROM 1/ACCS      SINCE LAST 1/ACCS;
001228:                                                                                                  #        USABLE                  OUTPUTS SUSPECT.
001229:
001230:                                                                                                  #  BIT 2 FLAG 13
001231: 26,2022                        AUTR2FLG           =        208D                                  #  THESE FLAGS ARE USED TOGETHER TO INDICAT
001232: 26,2022     4752               AUTRATE2           =        BIT2                                  #  ASTRONAUT-CHOSEN KALCMANU MANEUVER RATES
001233:                                                                                                  #  (0,0)=(BIT2,BIT1)=    0.2 DEG/SEC
001234:                                                                                                  #  (0,1)=                0.5 DEG/SEC
001235:                                                                                                  #  BIT 1 FLAG 13
001236: 26,2022                        AUTR1FLG           =        209D                                  #  (1,0)=                2.0 DEG/SEC
001237: 26,2022     4753               AUTRATE1           =        BIT1                                  #  (1,1)=               10.0 DEG/SEC
001238:
001239:

End of include-file FLAGWORD_ASSIGNMENTS.agc.  Parent file is MAIN.agc


