
Source Code


000002:                                                                                                  ## Copyright:   Public domain.
000003:                                                                                                  ## Filename:    FLAGWORD_ASSIGNMENTS.agc
000004:                                                                                                  ## Purpose:     The main source file for Luminary 1C, revision 131.
000005:                                                                                                  ##              It is part of the source code for the Lunar Module's (LM)
000006:                                                                                                  ##              Apollo Guidance Computer (AGC) for Apollo 13.
000007:                                                                                                  ## Assembler:   yaYUL
000008:                                                                                                  ## Reference:   pp. 61-88
000009:                                                                                                  ## Contact:     Ron Burkey <info@sandroid.org>.
000010:                                                                                                  ## Website:     www.ibiblio.org/apollo/index.html
000011:                                                                                                  ## Mod history: 04/23/03 RSB.   Began.
000012:                                                                                                  ##              05/14/05 RSB    Corrected website reference above.
000013:                                                                                                  ##              05/17/09 RSB    Backported some Luminary 099 fixes pointed
000014:                                                                                                  ##                              out by Onno Hommes.
000015:                                                                                                  ##              2017-01-06 RSB  Page numbers now agree with those on the
000016:                                                                                                  ##                              original hardcopy, as opposed to the PDF page
000017:                                                                                                  ##                              numbers in 1701.pdf.
000018:                                                                                                  ##              2017-02-12 RSB  Proofed comment text using octopus/ProoferComments.
000019:                                                                                                  ##              2017-02-28 RSB  Fixed lingering typos.
000020:                                                                                                  ##              2017-03-02 RSB  Fixed comment-text bugs found whilst proofing
000021:                                                                                                  ##                              Luminary 116.  Also, P00HFLAG --> POOHFLAG, and
000022:                                                                                                  ##                              P00HBIT --> POOHBIT.
000023:


000025:                                                                                                  #  FLAGWORDS 0-11        ARE DOWNLINKED AND CAN BE SET AND CLEARED BY UP-FLAG AND DOWN-FLAG INSTRUCTIONS IN THE
000026:                                                                                                  #                        INTERPRETER.  THESE WERE PREVIOUSLY LISTED UNDER "INTERPRETIVE SWITCH BIT ASSIGNMENTS" IN
000027:                                                                                                  #                        THE ERASABLE LOG SECTION.  FLAGWORDS 12 & 13 WEREPREVIOUSLY RADMODES AND DAPBOOLS AND
000028:                                                                                                  #                        ARE STILL DOWNLINKED UNDER THOSE NAMES.
000029:
000030:                                                                                                  #  ALPHABETICAL LIST OF FLAGWORDS
000031:
000032:                                                                                                  #  9             25              41                      61      COLUMN NO.
000033:                                                                                                  #  FLAGWORD      DEC. NUMBER     BIT AND FLAG            BIT NAME
000034:
000035:                                                                                                  #  ABTTGFLG      143             BIT 7 FLAG 9            ABTTGBIT
000036:                                                                                                  #  ACCOKFLG      207             BIT 3  FLAG 13          ACCSOKAY
000037:                                                                                                  #  ACC4-2FL      199             BIT 11 FLAG 13          ACC4OR2X
000038:                                                                                                  #  ACMODFLG      032             BIT 13 FLAG 2           ACMODBIT
000039:                                                                                                  #  ALTSCALE      186             BIT 9  FLAG 12          ALTSCBIT
000040:                                                                                                  #  ANTENFLG      183             BIT 12 FLAG 12          ANTENBIT
000041:                                                                                                  #  AORBSFLG      085             BIT 5 FLAG 5            AORBSYST
000042:                                                                                                  #  AORBTFLG      200             BIT 10 FLAG 13          AORBTRAN
000043:
000044:                                                                                                  #  APSESW        130             BIT 5  FLAG 8           APSESBIT
000045:                                                                                                  #  APSFLAG       152             BIT 13 FLAG 10          APSFLBIT
000046:                                                                                                  #  ASTNFLAG      108             BIT 12 FLAG 7           ASTNBIT
000047:                                                                                                  #  ATTFLAG       104             BIT 1  FLAG 6           ATTFLBIT
000048:                                                                                                  #  AUTOMODE      193             BIT 2  FLAG 12          AUTOMBIT
000049:                                                                                                  #  AUTR1FLG      209             BIT 1  FLAG 13          AUTRATE1
000050:                                                                                                  #  AUTR2FLG      208             BIT 2  FLAG 13          AUTRATE2
000051:                                                                                                  #  AUXFLAG       103             BIT 2  FLAG 6           AUXFLBIT
000052:                                                                                                  #  AVEGFLAG      115             BIT 5  FLAG 7           AVEGFBIT
000053:                                                                                                  #  AVEMIDSW      149             BIT 1  FLAG 9           AVEMDBIT
000054:                                                                                                  #  AVFLAG        040             BIT 5  FLAG 2           AVFLBIT
000055:                                                                                                  #  CALCMAN2      043             BIT 2  FLAG 2           CALC2BIT
000056:                                                                                                  #  CALCMAN3      042             BIT 3  FLAG 2           CALC3BIT
000057:
000058:                                                                                                  #  CDESFLAG      180             BIT 15 FLAG 12          CDESBIT
000059:                                                                                                  #  CMOONFLG      123             BIT 12 FLAG 8           CMOONBIT
000060:                                                                                                  #  COGAFLAG      131             BIT 4  FLAG 8           COGAFBIT
000061:                                                                                                  #  CSMDKFLG      197             BIT 13 FLAG 13          CSMDOCKD
000062:                                                                                                  #  CULTFLAG      053             BIT 7  FLAG 3           CULTBIT
000063:                                                                                                  #  DAPBOOLS                      FLGWRD13
000064:                                                                                                  #  DBSELFLG      206             BIT 4  FLAG 13          DBSELECT
000065:                                                                                                  #  DBSL2FLG      205             BIT 5 FLAG 13           DBSLECT2
000066:                                                                                                  #  DESIGFLG      185             BIT 10 FLAG 12          DESIGBIT
000067:                                                                                                  #  DIDFLAG       016             BIT 14 FLAG             DIDFLBIT
000068:                                                                                                  #  DIMOFLAG      059             BIT 1  FLAG 3           DIMOBIT
000069:                                                                                                  #  DMENFLG       081             BIT 9  FLAG 5           DMENFBIT


000071:                                                                                                  #  DRIFTDFL      202             BIT 8 FLAG 13           DRIFTBIT
000072:                                                                                                  #  DRIFTFLG      030             BIT 15 FLAG 2           DRFTBIT
000073:                                                                                                  #  DSKYFLAG      075             BIT 15 FLAG 5           DSKYFBIT
000074:                                                                                                  #  D6OR9FLG      058             BIT 2 FLAG 3            D6OR9BIT
000075:                                                                                                  #  ENGONFLG      083             BIT 7 FLAG 5            ENGONBIT
000076:                                                                                                  #  ERADFLAG      017             BIT 13 FLAG 1           ERADFBIT
000077:                                                                                                  #  ETPIFLAG      038             BIT 7 FLAG 2            ETPIBIT
000078:                                                                                                  #  FINALFLG      039             BIT 6 FLAG 2            FINALBIT
000079:                                                                                                  #  FLAGWRD0      (000-014)       (STATE +0)
000080:                                                                                                  #  FLAGWRD1      (015-029)       (STATE +1)
000081:                                                                                                  #  FLAGWRD2      (030-044)       (STATE +2)
000082:                                                                                                  #  FLAGWRD3      (045-059)       (STATE +3)
000083:                                                                                                  #  FLAGWRD4      (060-074)       (STATE +4)
000084:                                                                                                  #  FLAGWRD5      (075-089)       (STATE +5)
000085:                                                                                                  #  FLAGWRD6      (090-104)       (STATE +6)
000086:                                                                                                  #  FLAGWRD7      (105-119)       (STATE +7)
000087:                                                                                                  #  FLAGWRD8      (120-134)       (STATE +8D)
000088:                                                                                                  #  FLAGWRD9      (135-149)       (STATE +9D)
000089:                                                                                                  #  FLAP          142             BIT 8 FLAG 9            FLAPBIT
000090:                                                                                                  #  FLGWRD10      (150-164)       (STATE +10D)
000091:                                                                                                  #  FLGWRD11      (165-179)       (STATE +11D)
000092:                                                                                                  #  FLGWRD12      (180-194)       (STATE +12D)
000093:                                                                                                  #  FLGWRD13      (195-209)       (STATE +13D)
000094:                                                                                                  #  FLPC          138             BIT 12 FLAG 9           FLPCBIT
000095:                                                                                                  #  FLPI          139             BIT 11 FLAG 9           FLPIBIT
000096:                                                                                                  #  FLRCS         149             BIT 10 FLAG 9           FLRCSBIT
000097:                                                                                                  #  FLUNDISP      125             BIT 10 FLAG 8           FLUNDBIT
000098:                                                                                                  #  FLVR          136             BIT 14 FLAG 9           FLVRBIT
000099:                                                                                                  #  FREEFLAG      012             BIT 3 FLAG 0            FREEFBIT
000100:                                                                                                  #  FSPASFLG      005             BIT 10 FLAG 0           FSPASBIT
000101:                                                                                                  #  GLOKFAIL      046             BIT 14 FLAG 3           GLOKFBIT
000102:                                                                                                  #  GMBDRVSW      095             BIT 10 FLAG 6           GMBDRBIT
000103:                                                                                                  #  GUESSW        028             BIT 2 FLAG 1            GUESSBIT
000104:                                                                                                  #  HFLSHFLG      179             BIT 1 FLAG 11           HFLSHBIT
000105:                                                                                                  #  IDLEFLAG      113             BIT 7 FLAG 7            IDLEFBIT
000106:                                                                                                  #  IGNFLAG       107             BIT 13 FLAG 7           IGNFLBIT
000107:                                                                                                  #  IMPULSW       036             BIT 9 FLAG 2            IMPULBIT
000108:                                                                                                  #  IMUSE         007             BIT 8 FLAG 0            IMUSEBIT
000109:                                                                                                  #  INFINFLG      128             BIT 7 FLAG 8            INFINBIT
000110:                                                                                                  #  INITALGN      133             BIT 2 FLAG 8            INITABIT
000111:                                                                                                  #  INTFLAG       151             BIT 14 FLAG 10          INTFLBIT
000112:                                                                                                  #  INTYPFLG      056             BIT 4 FLAG 3            INTYPBIT
000113:                                                                                                  #  ITSWICH       105             BIT 15 FLAG 7           ITSWBIT
000114:                                                                                                  #  JSWITCH       001             BIT 14 FLAG 0           JSWCHBIT
000115:
000116:                                                                                                  #  LETABORT      141             BIT 9  FLAG 9           LETABBIT
000117:                                                                                                  #  LMOONFLG      124             BIT 11 FLAG 8           LMOONBIT
000118:                                                                                                  #  LOKONSW       010             BIT 5  FLAG 0           LOKONBIT
000119:                                                                                                  #  LOSCMFLG      033             BIT 12 FLAG 2           LOSCMBIT
000120:                                                                                                  #  LPOS2FLG      174             BIT 6 FLAG 11           LPOS2BIT
000121:                                                                                                  #  LRALTFLG      190             BIT 5  FLAG 12          LRALTBIT


000123:                                                                                                  #  LRBYPASS      165             BIT 15 FLAG 11          LRBYBIT
000124:                                                                                                  #  LRINH         172             BIT 8 FLAG 11           LRINHBIT
000125:                                                                                                  #  LRPOSFLG      189             BIT 6 FLAG 12           LRPOSBIT
000126:                                                                                                  #  LRVELFLG      187             BIT 8 FLAG 12           LRVELBIT
000127:                                                                                                  #  LUNAFLAG      048             BIT 12 FLAG 3           LUNABIT
000128:                                                                                                  #  MANUFLAG      106             BIT 14 FLAG 7           MANUFBIT
000129:                                                                                                  #  MGLVFLAG      088             BIT 2 FLAG 5            MGLVFBIT
000130:                                                                                                  #  MIDAVFLG      148             BIT 2 FLAG 9            MIDAVBIT
000131:                                                                                                  #  MIDFLAG       002             BIT 13 FLAG 0           MIDFLBIT
000132:                                                                                                  #  MID1FLAG      147             BIT 3 FLAG 9            MID1BIT
000133:                                                                                                  #  MKOVFLAG      072             BIT 3 FLAG 4            MKOVBIT
000134:                                                                                                  #  MOONFLAG      003             BIT 12 FLAG 0           MOONBIT
000135:                                                                                                  #  MRKIDFLG      060             BIT 15 FLAG 4           MRKIDBIT
000136:                                                                                                  #  MRKNVFLG      066             BIT 9 FLAG 4            MRKNVBIT
000137:                                                                                                  #  MRUPTFLG      070             BIT 5 FLAG 4            MRUPTBIT
000138:                                                                                                  #  MUNFLAG       097             BIT 8 FLAG 6            MUNFLBIT
000139:                                                                                                  #  MWAITFLG      064             BIT 11 FLAG 4           MWAITBIT
000140:                                                                                                  #  NEEDLFLG      011             BIT 4 FLAG 0            NEEDLBIT
000141:                                                                                                  #  NEED2FLG      000             BIT 15 FLAG 0           NEED2BIT
000142:                                                                                                  #  NEWIFLG       122             BIT 13 FLAG 8           NEWIBIT
000143:                                                                                                  #  NJETSFLG      015             BIT 15 FLAG             NJETSBIT
000144:                                                                                                  #  NODOFLAG      044             BIT 1 FLAG 2            NODOBIT
000145:                                                                                                  #  NOLRREAD      170             BIT 10 FLAG 11          NOLRRBIT
000146:                                                                                                  #  NORMSW        110             BIT 10 FLAG 7           NORMSBIT
000147:                                                                                                  #  NORRMON       086             BIT 4 FLAG 5            NORRMBIT
000148:                                                                                                  #  NOR29FLG      049             BIT 11 FLAG 3           NR29FBIT
000149:                                                                                                  #  NOTHROTL      078             BIT 12 FLAG 5           NOTHRBIT
000150:                                                                                                  #  NOUPFLAG      024             BIT 6 FLAG 1            NOUPFBIT
000151:                                                                                                  #  NO511FLG      177             BIT 3 FLAG 11           NO511BIT
000152:                                                                                                  #  NRMNVFLG      067             BIT 8 FLAG 4            NRMNVBIT
000153:                                                                                                  #  NRMIDFLG      062             BIT 13 FLAG 4           NRMIDBIT
000154:                                                                                                  #  NRUPTFLG      071             BIT 4 FLAG 4            NRUPTBIT
000155:                                                                                                  #  NTARGFLG      102             BIT 3 FLAG 6            NTARGBIT
000156:                                                                                                  #  NWAITFLG      065             BIT 10 FLAG 4           NWAITBIT
000157:                                                                                                  #  OLDESFLG      014             BIT 1 FLAG 0            OLDESBIT
000158:                                                                                                  #  ORBWFLAG      054             BIT 6 FLAG 3            ORBWFBIT
000159:                                                                                                  #  ORDERSW       129             BIT 6 FLAG 8            ORDERBIT
000160:                                                                                                  #  OURRCFLG      198             BIT 12 FLAG 13          OURRCBIT
000161:                                                                                                  #  PDSPFLAG      063             BIT 12 FLAG 4           PDSPFBIT
000162:                                                                                                  #  PFRATFLG      041             BIT 4 FLAG 2            PFRATBIT
000163:                                                                                                  #  PINBRFLG      069             BIT 6 FLAG 4            PINBRBIT
000164:                                                                                                  #  POOHFLAG      045             BIT 15 FLAG 3           POOHBIT
000165:                                                                                                  #  PRECIFLG      052             BIT 8 FLAG 3            PRECIBIT
000166:                                                                                                  #  PRIODFLG      061             BIT 14 FLAG 1           PRIODBIT
000167:                                                                                                  #  PRONVFLG      068             BIT 7 FLAG 4            PRONVBIT
000168:                                                                                                  #  PSTHIGAT      169             BIT 11 FLAG 11          PSTHIBIT
000169:                                                                                                  #  PULSEFLG      195             BIT 15 FLAG 13          PULSES
000170:                                                                                                  #  P21FLAG       004             BIT 11 FLAG 0           P21FLBIT
000171:                                                                                                  #  P25FLAG       006             BIT 9 FLAG 0            P25FLBIT
000172:                                                                                                  #  P7071FLG      137             BIT 13 FLAG 9           P7071BIT


000174:                                                                                                  #  QUITFLAG      145             BIT 5 FLAG 9            QUITBIT
000175:                                                                                                  #  RADMODES                      FLGWRD12
000176:                                                                                                  #  RASFLAG                       FLGWRD10
000177:                                                                                                  #  RCDUFAIL      188             BIT 7 FLAG 12           RCDUFBIT
000178:                                                                                                  #  RCDU0FLG      182             BIT 13 FLAG 12          RCDU0BIT
000179:                                                                                                  #  READRFLG      051             BIT 9 FLAG 3            READRBIT        EQUIVALENT FLAG NAME:  R04FLAG
000180:                                                                                                  #  READVEL       175             BIT 5 FLAG 11           READVBIT
000181:                                                                                                  #  REDFLAG       099             BIT 6 FLAG 6            REDFLBIT
000182:                                                                                                  #  REFSMFLG      047             BIT 13 FLAG 3           REFSMBIT
000183:                                                                                                  #  REINTFLG      158             BIT 7 FLAG 10           REINTBIT
000184:                                                                                                  #  REMODFLG      181             BIT 14 FLAG 12          REMODBIT
000185:                                                                                                  #  RENDWFLG      089             BIT 1 FLAG 5            RENDWBIT
000186:                                                                                                  #  REPOSMON      184             BIT 11 FLAG 12          REPOSBIT
000187:                                                                                                  #  RHCSCFLG      203             BIT 7 FLAG 13           RHCSCALE
000188:                                                                                                  #  RNDVZFLG      008             BIT 7 FLAG 0            RNDVZBIT
000189:                                                                                                  #  RNGEDATA      176             BIT 4 FLAG 11           RNGEDBIT
000190:                                                                                                  #  RNGSCFLG      080             BIT 10 FLAG 5           RNGSCBIT
000191:                                                                                                  #  RODFLAG       018             BIT 12 FLAG 1           RODFLBIT
000192:                                                                                                  #  ROTFLAG       144             BIT 6 FLAG 9            ROTFLBIT
000193:                                                                                                  #  RPQFLAG       120             BIT 15 FLAG 8           RPQFLBIT
000194:                                                                                                  #  RRDATAFL      191             BIT 4 FLAG 12           RRDATABT
000195:                                                                                                  #  RRNBSW        009             BIT 6 FLAG 0            RRNBBIT
000196:                                                                                                  #  RRRSFLAG      192             BIT 3 FLAG 12           RRRSBIT
000197:                                                                                                  #  RVSW          111             BIT 9 FLAG 7            RVSWBIT
000198:                                                                                                  #  R04FLAG       051             BIT 9 FLAG 3            R04FLBIT        EQUIVALENT FLAG NAME:  READRFLG
000199:                                                                                                  #  R10FLAG       013             BIT 2 FLAG 0            R10FLBIT
000200:                                                                                                  #  R61FLAG       020             BIT 10 FLAG 1           R61FLBIT
000201:                                                                                                  #  R77FLAG       079             BIT 11 FLAG 5           R77FLBIT
000202:                                                                                                  #  SLOPESW       027             BIT 3 FLAG 1            SLOPEBIT
000203:                                                                                                  #  SNUFFER       077             BIT 13 FLAG 5           SNUFFBIT
000204:                                                                                                  #  SOLNSW        087             BIT 3 FLAG 5            SOLNSBIT
000205:                                                                                                  #  SRCHOPTN      031             BIT 14 FLAG 2           SRCHOBIT
000206:                                                                                                  #  STATEFLG      055             BIT 5 FLAG 3            STATEBIT
000207:                                                                                                  #  STEERSW       034             BIT 11 FLAG 2           STEERBIT
000208:                                                                                                  #  SURFFLAG      127             BIT 8 FLAG 8            SURFFBIT
000209:                                                                                                  #  SWANDISP      109             BIT 11 FLAG 7           SWANDBIT
000210:                                                                                                  #  S32.1F1       090             BIT 15 FLAG 6           S32BIT1
000211:                                                                                                  #  S32.1F2       092             BIT 14 FLAG 6           S32BIT2
000212:                                                                                                  #  S32.1F3A      092             BIT 13 FLAG 6           S32BIT3A
000213:                                                                                                  #  S32.1S3B      093             BIT 12 FLAG 6           S32BIT3B
000214:                                                                                                  #  TFFSW         119             BIT 1 FLAG 7            TFFSWBIT
000215:                                                                                                  #  TRACKFLG      025             BIT 5 FLAG 1            TRACKBIT
000216:                                                                                                  #  TURNONFL      194             BIT 1 FLAG 12           TURNONBT
000217:                                                                                                  #  ULLAGFLG      204             BIT 6 FLAG 13           ULLAGER
000218:                                                                                                  #  UPDATFLG      023             BIT 7 FLAG 1            UPDATBIT
000219:                                                                                                  #  UPLOCKFL      116             BIT 4 FLAG 7            UPLOCBIT
000220:                                                                                                  #  USEQRFLG      196             BIT 14 FLAG 13          USEQRJTS
000221:                                                                                                  #  VEHUPFLG      022             BIT 8 FLAG 1            VEHUPBIT
000222:                                                                                                  #  VELDATA       173             BIT 7 FLAG 11           VELDABIT
000223:                                                                                                  #  VERIFLAG      117             BIT 3 FLAG 7            VERIFBIT


000225:                                                                                                  #  VFLAG         050             BIT 10 FLAG 3           VFLAGBIT
000226:                                                                                                  #  VFLSHFLG      178             BIT 2 FLAG 11           VFLSHBIT
000227:                                                                                                  #  VINTFLAG      057             BIT 3 FLAG 3            VINTFBIT
000228:                                                                                                  #  VXINH         168             BIT 12 FLAG 11          VXINHBIT
000229:                                                                                                  #  V37FLAG       114             BIT 6 FLAG 7            V37FLBIT
000230:                                                                                                  #  V67FLAG       112             BIT 8 FLAG 7            V67FLBIT
000231:                                                                                                  #  V82EMFLG      118             BIT 2 FLAG 7            V82EMBIT
000232:                                                                                                  #  XDELVFLG      037             BIT 8 FLAG 2            XDELVBIT
000233:                                                                                                  #  XDSPFLAG      074             BIT 1 FLAG 4            XDSPBIT
000234:                                                                                                  #  XORFLG        171             BIT 9 FLAG 11           XORFLBIT
000235:                                                                                                  #  XOVINFLG      201             BIT 9 FLAG 13           XOVINHIB
000236:                                                                                                  #  ZOOMFLAG      082             BIT 8 FLAG 5            ZOOMBIT
000237:                                                                                                  #  3AXISFLG      084             BIT 6 FLAG 5            3AXISBIT
000238:                                                                                                  #  360SW         134             BIT 1 FLAG 8            360SWBIT
000239:
000240:                                                                                                  #  ASSIGNMENT AND DESCRIPTION OF FLAGWORDS
000241:
000242: 26,2022     0074               FLAGWRD0           =        STATE      +0                         #  (000-014)
000243:
000244:                                                                                                  #        (SET)                   (RESET)
000245:
000246:                                                                                                  #  BIT 15 FLAG 0 (S)
000247: 26,2022                        NEED2FLG           =        000D                                  #        DISPLAY DAP RATES       CHECK BIT 4 OF THIS
000248: 26,2022     4735               NEED2BIT           =        BIT15                                 #        ON FDAI NEEDLES.        WORD FOR DISPLAY
000249:                                                                                                  #                                MODES (1 OR 2).
000250:
000251:                                                                                                  #  BIT 14 FLAG 0 (S)
000252: 26,2022                        JSWITCH            =        001D                                  #        INTEGRATION OF W        INTEGRATION OF STATE
000253: 26,2022     4736               JSWCHBIT           =        BIT14                                 #        MATRIX                  VECTOR
000254:
000255:                                                                                                  #  BIT 13 FLAG 0 (S)
000256: 26,2022                        MIDFLAG            =        002D                                  #        INTEGRATION WITH        INTEGRATION WITHOUT
000257:                                                                                                  #        SECONDARY BODY AND      SOLAR PERTURBATIONS
000258: 26,2022     4737               MIDFLBIT           =        BIT13                                 #        SOLAR PERTURBATIONS
000259:
000260:                                                                                                  #  BIT 12 FLAG 0 (L)
000261: 26,2022                        MOONFLAG           =        003D                                  #        MOON IS SPHERE OF       EARTH IS SPHERE OF
000262: 26,2022     4740               MOONBIT            =        BIT12                                 #        INFLUENCE               INFLUENCE
000263:
000264:                                                                                                  #  BIT 11 FLAG 0
000265: 26,2022                        P21FLAG            =        004D                                  #        USE BASE VECTORS        1ST PASS -- CALC-
000266: 26,2022     4741               P21FLBIT           =        BIT11                                 #        ALREADY CALCULATED      ULATE BASE VECTORS
000267:


000269:                                                                                                  #  BIT 10 FLAG 0
000270: 26,2022                        FSPASFLG           =        005D                                  #        FIRST PASS THROUGH      NOT FIRST PASS THRU
000271: 26,2022     4742               FSPASBIT           =        BIT10                                 #        REPOSITION ROUTINE      REPOSITION ROUTINE
000272:
000273:                                                                                                  #  BIT 9 FLAG 0  (S)
000274: 26,2022                        P25FLAG            =        006D                                  #        P25 OPERATING           P25 NOT OPERATING
000275: 26,2022     4743               P25FLBIT           =        BIT9
000276:
000277:                                                                                                  #  BIT 8 FLAG 0  (S)
000278: 26,2022                        IMUSE              =        007D                                  #        IMU IN USE              IMU NOT IN USE
000279: 26,2022     4744               IMUSEBIT           =        BIT8
000280:
000281:                                                                                                  #  BIT 7 FLAG 0  (S)
000282: 26,2022                        RNDVZFLG           =        008D                                  #        P20 RUNNING (RADAR      P20 NOT RUNNING
000283: 26,2022     4745               RNDVZBIT           =        BIT7                                  #        IN USE)
000284:
000285:                                                                                                  #  BIT 6 FLAG 0  (S)
000286: 26,2022                        RRNBSW             =        009D                                  #        RADAR TARGET IN RADAR TARGET IN
000287: 26,2022     4746               RRNBBIT            =        BIT6                                  #        NB COORDINATES  SM COORDINATES
000288:
000289:                                                                                                  #  BIT 5 FLAG 0  (S)
000290: 26,2022                        LOKONSW            =        010D                                  #        RADAR LOCK-ON           RADAR LOCK-ON NOT
000291: 26,2022     4747               LOKONBIT           =        BIT5                                  #        DESIRED                 DESIRED
000292:
000293:                                                                                                  #  BIT 4 FLAG 0  (S)
000294: 26,2022                        NEEDLFLG           =        011D                                  #        TOTAL ATTITUDE  A/P FOLLOWING
000295: 26,2022     4750               NEEDLBIT           =        BIT4                                  #        ERROR DISPLAYED ERROR DISPLAYED
000296:
000297:                                                                                                  #  BIT 3 FLAG 0
000298: 26,2022                        FREEFLAG           =        012D                                  #  (USED BY P51-53 TEMP IN MANY DIFFERENT
000299:                                                                                                  #  ROUTINES & BY LUNAR + SOLAR EPHEMERIDES)
000300: 26,2022     4751               FREEFBIT           =        BIT3
000301:
000302:                                                                                                  #  BIT 2 FLAG 0
000303: 26,2022                        R10FLAG            =        013D                                  #        R10 OUTPUTS DATA TO     BESIDES OUTPUT WHEN
000304: 26,2022     4752               R10FLBIT           =        BIT2                                  #        ALTITUDE & ALTITUDE     SET, R10 ALSO OUTPUT
000305:                                                                                                  #        RATE METERS ONLY        TO FORWARD & LATERAL
000306:                                                                                                  #                                VELOCITY CROSSPOINTR
000307:
000308:                                                                                                  #  BIT 1 FLAG 0  (L)
000309: 26,2022                        OLDESFLG           =        014D                                  #        R29 GYRO CMD LOOP       R29 GYRO CMD LOOP


000311: 26,2022     4753               OLDESBIT           =        BIT1                                  #        REQUESTED               NOT REQUESTED
000312:
000313: 26,2022     0075               FLAGWRD1           =        STATE      +1                         #  (015-029)
000314:
000315:                                                                                                  #        (SET)                   (RESET)
000316:
000317:                                                                                                  #  BIT 15 FLAG 1 (S)
000318: 26,2022                        NJETSFLG           =        015D                                  #        TWO JET RCS BURN        FOUR JET RCS BURN
000319: 26,2022     4735               NJETSBIT           =        BIT15
000320:
000321:                                                                                                  #  BIT 14 FLAG 1 (L)
000322: 26,2022                        DIDFLAG            =        016D                                  #        INERTIAL DATA IS        PERFORM DATA DISPLAY
000323: 26,2022     4736               DIDFLBIT           =        BIT14                                 #        AVAILABLE               INITIALIZATION FUNCS
000324:
000325:                                                                                                  #  BIT 13 FLAG 1 (S)
000326: 26,2022                        ERADFLAG           =        017D                                  #        COMPUTE REARTH          USE CONSTANT REARTH
000327: 26,2022     4737               ERADFBIT           =        BIT13                                 #        FISCHER ELLIPSOID       PAD RADIUS
000328:
000329:                                                                                                  #  BIT 12 FLAG 1
000330: 26,2022                        RODFLAG            =        018D                                  #        IF IN P66, NORMAL       IF IN P66, RE-INIT-
000331: 26,2022     4740               RODFLBIT           =        BIT12                                 #        OPERATION CONTINUES.    IALIZATION IS PER-
000332:                                                                                                  #        RESTART CLEARS FLAG     FORMED AND FLAG IS
000333:
000334:                                                                                                  #  BIT 11 FLAG 1
000335:                                                                                                  #                =       019D
000336:                                                                                                  #                =       BIT11
000337:
000338:                                                                                                  #  BIT 10 FLAG 1 (L)
000339: 26,2022                        R61FLAG            =        020D                                  #        RUN R61 LEM             RUN R65 LEM
000340: 26,2022     4742               R61FLBIT           =        BIT10
000341:
000342:                                                                                                  #  BIT 9 FLAG 1
000343:                                                                                                  #                =       021D
000344:                                                                                                  #                =       BIT9
000345:
000346:                                                                                                  #  BIT 8 FLAG 1  (S)
000347: 26,2022                        VEHUPFLG           =        022D                                  #        CSM STATE VECTOR        LEM STATE VECTOR
000348: 26,2022     4744               VEHUPBIT           =        BIT8                                  #        BEING UPDATED           BEING UPDATED
000349:
000350:                                                                                                  #  BIT 7 FLAG 1  (S)
000351: 26,2022                        UPDATFLG           =        023D                                  #        UPDATING BY MARKS       UPDATING BY MARKS
000352: 26,2022     4745               UPDATBIT           =        BIT7                                  #        ALLOWED                 NOT ALLOWED
000353:


000355:                                                                                                  #  BIT 6 FLAG 1  (S)
000356: 26,2022                        NOUPFLAG           =        024D                                  #        NEITHER CSM             EITHER STATE
000357:                                                                                                  #        NOR LM STATE VECTOR     VECTOR MAY BE
000358: 26,2022     4746               NOUPFBIT           =        BIT6                                  #        MAY BE UPDATED          UPDATED
000359:
000360:                                                                                                  #  BIT 5 FLAG 1  (S)
000361: 26,2022                        TRACKFLG           =        025D                                  #        TRACKING ALLOWED        TRACKING NOT ALLOWED
000362: 26,2022     4747               TRACKBIT           =        BIT5
000363:
000364:                                                                                                  #  BIT 4 FLAG 1
000365:                                                                                                  #                =       026D
000366:                                                                                                  #                =       BIT4
000367:
000368:                                                                                                  #  BIT 3 FLAG 1  (S)
000369: 26,2022                        SLOPESW            =        027D                                  #        ITERATE WITH BIAS       ITERATE WITH REGULAR
000370:                                                                                                  #        METHOD IN ITERATOR      FALSI METHOD IN
000371: 26,2022     4751               SLOPEBIT           =        BIT3                                  #                                ITERATOR
000372:
000373:                                                                                                  #  BIT 2 FLAG 1  (S)
000374: 26,2022                        GUESSW             =        028D                                  #        NO STARTING VALUE       STARTING VALUE FOR
000375: 26,2022     4752               GUESSBIT           =        BIT2                                  #        FOR ITERATION           ITERATION EXISTS
000376:
000377:                                                                                                  #  BIT 1 FLAG 1
000378:                                                                                                  #                =       029D
000379:
000380: 26,2022     0076               FLAGWRD2           =        STATE      +2                         #  (030-044)
000381:
000382:                                                                                                  #        (SET)                   (RESET)
000383:
000384:                                                                                                  #  BIT 15 FLAG 2 (S)
000385: 26,2022                        DRIFTFLG           =        030D                                  #        T3RUPT CALLS GYRO       T3RUPT DOES NO GYRO
000386: 26,2022     4735               DRFTBIT            =        BIT15                                 #        COMPENSATION            COMPENSATION
000387:
000388:                                                                                                  #  BIT 14 FLAG 2 (S)
000389: 26,2022                        SRCHOPTN           =        031D                                  #        RADAR IN AUTOMATIC      RADAR NOT IN AUTO-
000390: 26,2022     4736               SRCHOBIT           =        BIT14                                 #        SEARCH OPTION (R24)     MATIC SEARCH OPTION
000391:
000392:                                                                                                  #  BIT 13 FLAG 2 (S)
000393: 26,2022                        ACMODFLG           =        032D                                  #        MANUAL ACQUISITION      AUTO ACQUISITION
000394: 26,2022     4737               ACMODBIT           =        BIT13                                 #        BY RENDESVOUS RADAR     BY RENDESVOUS RADAR
000395:


000397:                                                                                                  #  BIT 12 FLAG 2 (S)
000398: 26,2022                        LOSCMFLG           =        033D                                  #        LINE OF SIGHT BEING     LINE OF SIGHT NOT
000399:                                                                                                  #        COMPUTED (R21)          BEING COMPUTED
000400: 26,2022     4740               LOSCMBIT           =        BIT12
000401:                                                                                                  #        IN R29 (L): RR GYRO     IN R29 (L): RR GYRO
000402:                                                                                                  #        CMD LOOP RUNNING        CMD LOOP OFF
000403:
000404:                                                                                                  #  BIT 11 FLAG 2 (S)
000405: 26,2022                        STEERSW            =        034D                                  #        SUFFICIENT THRUST       INSUFFICIENT THRUST
000406: 26,2022     4741               STEERBIT           =        BIT11                                 #        IS PRESENT              IS PRESENT
000407:
000408:                                                                                                  #  BIT 10 FLAG 2 (S)
000409: 26,2022                                           =        035D
000410: 26,2022                                           =        BIT10
000411:
000412:                                                                                                  #  BIT 9 FLAG 2 (S)
000413: 26,2022                        IMPULSW            =        036D                                  #        MINIMUM IMPULSE         STEERING BURN (NO
000414:                                                                                                  #        BURN (CUTOFF TIME       CUTOFF TIME YET
000415: 26,2022     4743               IMPULBIT           =        BIT9                                  #        SPECIFIED)              AVAILABLE)
000416:
000417:                                                                                                  #  BIT 8 FLAG 2 (S)
000418: 26,2022                        XDELVFLG           =        037D                                  #        EXTERNAL DELTAV VG      LAMBERT (AIMPOINT)
000419: 26,2022     4744               XDELVBIT           =        BIT8                                  #        COMPUTATION             VG COMPUTATION
000420:
000421:                                                                                                  #  BIT 7 FLAG 2 (S)
000422: 26,2022                        ETPIFLAG           =        038D                                  #        ELEVATION ANGLE         TPI TIME SUPPLIED
000423:                                                                                                  #        SUPPLIED FOR            FOR P34,74 TO COMPUT
000424: 26,2022     4745               ETPIBIT            =        BIT7                                  #        P34,74                  ELEVATION
000425:
000426:                                                                                                  #  BIT 6 FLAG 2 (S)
000427: 26,2022                        FINALFLG           =        039D                                  #        LAST PASS THROUGH       INTERIM PASS THROUGH
000428:                                                                                                  #        RENDEZVOUS PROGRAM      RENDEZVOUS PROGRAM
000429: 26,2022     4746               FINALBIT           =        BIT6                                  #        COMPUTATIONS            COMPUTATIONS
000430:
000431:                                                                                                  #  BIT 5 FLAG 2 (S)
000432: 26,2022                        AVFLAG             =        040D                                  #        LEM IS ACTIVE           CSM IS ACTIVE
000433: 26,2022     4747               AVFLBIT            =        BIT5                                  #        VEHICLE                 VEHICLE
000434:
000435:                                                                                                  #  BIT 4 FLAG 2 (S)
000436: 26,2022                        PFRATFLG           =        041D                                  #        PREFERRED ATTITUDE      PREFERRED ATTITUDE
000437: 26,2022     4750               PFRATBIT           =        BIT4                                  #        COMPUTED                NOT COMPUTED
000438:


000440:                                                                                                  #  BIT 3 FLAG 2 (S)
000441: 26,2022                        CALCMAN3           =        042D                                  #        NO FINAL ROLL           FINAL ROLL IS
000442: 26,2022     4751               CALC3BIT           =        BIT3                                  #                                NECESSARY
000443:
000444:                                                                                                  #  BIT 2 FLAG 2 (S)
000445: 26,2022                        CALCMAN2           =        043D                                  #        PERFORM MANEUVER        BYPASS STARTING
000446: 26,2022     4752               CALC2BIT           =        BIT2                                  #        STARTING PROCEDURE      PROCEDURE
000447:
000448:                                                                                                  #  BIT 1 FLAG 2 (S)
000449: 26,2022                        NODOFLAG           =        044D                                  #        V37 NOT PERMITTED       V37 PERMITTED
000450: 26,2022     4753               NODOBIT            =        BIT1
000451:
000452: 26,2022     0077               FLAGWRD3           =        STATE      +3                         #  (045-059)
000453:
000454:                                                                                                  #        (SET)                   (RESET)
000455:
000456:                                                                                                  #  BIT 15 FLAG 3
000457: 26,2022                        POOHFLAG           =        045D                                  #        INHIBIT BACKWARDS       ALLOW BACKWARDS
000458: 26,2022     4735               POOHBIT            =        BIT15                                 #        INTEGRATION             INTEGRATION
000459:
000460:                                                                                                  #  BIT 14 FLAG 3 (S)
000461: 26,2022                        GLOKFAIL           =        046D                                  #        GIMBAL LOCK HAS         NOT IN GIMBAL LOCK
000462: 26,2022     4736               GLOKFBIT           =        BIT14                                 #        OCCURRED
000463:
000464:                                                                                                  #  BIT 13 FLAG 3 *** PROTECTED FROM FRESH START ***
000465: 26,2022                        REFSMFLG           =        047D                                  #        REFSMMAT GOOD           REFSMMAT NO GOOD
000466: 26,2022     4737               REFSMBIT           =        BIT13
000467:
000468:                                                                                                  #  BIT 12 FLAG 3 (S)
000469: 26,2022                        LUNAFLAG           =        048D                                  #        LUNAR LAT-LONG          EARTH LAT-LONG
000470: 26,2022     4740               LUNABIT            =        BIT12
000471:
000472:                                                                                                  #  BIT 11 FLAG 3 (L)
000473: 26,2022                        NOR29FLG           =        049D                                  #        R29 NOT ALLOWED         R29 ALOWED (RR DES-
000474: 26,2022     4741               NR29FBIT           =        BIT11                                 #                                IGNATE, POWERED FLT)
000475:
000476:                                                                                                  #  BIT 10 FLAG 3 (S)
000477: 26,2022                        VFLAG              =        050D                                  #        LESS THAN TWO STARS     TWO STARS IN FIELD
000478: 26,2022     4742               VFLAGBIT           =        BIT10                                 #        IN FIELD OF VIEW        OF VIEW
000479:
000480:                                                                                                  #  BIT 9 FLAG 3  (S)


000482: 26,2022                        R04FLAG            =        051D                                  #        ALARM 521               ALARM 521 ALLOWED
000483:                                                                                                  #        SUPPRESSED
000484: 26,2022     4743               R04FLBIT           =        BIT9
000485:
000486:                                                                                                  #  BIT 9 FLAG 3  (L)
000487: 26,2022  0000063               READRFLG           =        R04FLAG                               #        READING RR DATA         NOT READING RR DATA
000488: 26,2022     4743               READRBIT           =        BIT9                                  #        PURSUANT TO R29         PURSUANT TO R29
000489:
000490:                                                                                                  #  BIT 8 FLAG 3  (S)
000491: 26,2022                        PRECIFLG           =        052D                                  #        NORMAL INTEGRATION      ENGAGES 4-TIME STEP
000492:                                                                                                  #        IN POO                  (POO) LOGIC IN INTE-
000493: 26,2022     4744               PRECIBIT           =        BIT8                                  #                                GRATION
000494:
000495:                                                                                                  #  BIT 7 FLAG 3  (S)
000496: 26,2022                        CULTFLAG           =        053D                                  #        STAR OCCULTED           STAR NOT OCCULTED
000497: 26,2022     4745               CULTBIT            =        BIT7
000498:
000499:                                                                                                  #  BIT 6 FLAG 3  (S)
000500: 26,2022                        ORBWFLAG           =        054D                                  #        W MATRIX VALID FOR      W MATRIX INVALID FOR
000501: 26,2022     4746               ORBWFBIT           =        BIT6                                  #        ORBITAL NAVIGATION      ORBITAL NAVIGATION
000502:
000503:                                                                                                  #  BIT 5 FLAG 3  (S)
000504: 26,2022                        STATEFLG           =        055D                                  #        PERMANENT STATE         PERMANENT STATE
000505: 26,2022     4747               STATEBIT           =        BIT5                                  #        VECTOR UPDATED          VECTOR NOT UPDATED
000506:
000507:                                                                                                  #  BIT 4 FLAG 3  (S)
000508: 26,2022                        INTYPFLG           =        056D                                  #        CONIC INTEGRATION       ENCKE INTEGRATION
000509: 26,2022     4750               INTYPBIT           =        BIT4
000510:
000511:                                                                                                  #  BIT 3 FLAG 3  (S)
000512: 26,2022                        VINTFLAG           =        057D                                  #        CSM STATE VECTOR        LEM STATE VECTOR
000513: 26,2022     4751               VINTFBIT           =        BIT3                                  #        BEING INTEGRATED        BEING INTEGRATED
000514:
000515:                                                                                                  #  BIT 2 FLAG 3 (S)
000516: 26,2022                        D6OR9FLG           =        058D                                  #        DIMENSION OF W IS 9     DIMENSION OF W IS 6
000517: 26,2022     4752               D6OR9BIT           =        BIT2                                  #        FOR INTEGRATION         FOR INTEGRATION
000518:
000519:                                                                                                  #  BIT 1 FLAG 3  (S)
000520: 26,2022                        DIM0FLAG           =        059D                                  #        W MATRIX IS TO BE       W MATRIX IS NOT TO
000521: 26,2022     4753               DIM0BIT            =        BIT1                                  #        USED                    BE USED
000522:


000524: 26,2022     0100               FLAGWRD4           =        STATE      +4                         #  (060-074)
000525:
000526:                                                                                                  #        (SET)                   (RESET)
000527:
000528:                                                                                                  #  BIT 15 FLAG 4 (S)
000529: 26,2022                        MRKIDFLG           =        060D                                  #        MARK DISPLAY IN         NO MARK DISPLAY IN
000530: 26,2022     4735               MRKIDBIT           =        BIT15                                 #        ENDIDLE                 ENDIDLE
000531:
000532:                                                                                                  #  BIT 14 FLAG 4 (S)
000533: 26,2022                        PRIODFLG           =        061D                                  #        PRIORITY DISPLAY IN     NO PRIORITY DISPLAY
000534: 26,2022     4736               PRIODBIT           =        BIT14                                 #        ENDIDLE                 IN ENDIDLE
000535:
000536:                                                                                                  #  BIT 13 FLAG 4 (S)
000537: 26,2022                        NRMIDFLG           =        062D                                  #        NORMAL DISPLAY IN       NO NORMAL DISPLAY
000538: 26,2022     4737               NRMIDBIT           =        BIT13                                 #        ENDIDLE                 IN ENDIDLE
000539:
000540:                                                                                                  #  BIT 12 FLAG 4 (S)
000541: 26,2022                        PDSPFLAG           =        063D                                  #        P20 SETS SO AS TO       LEAVE AS NORMAL DISP
000542:                                                                                                  #        TURN A NORMAL DIS-
000543: 26,2022     4740               PDSPFBIT           =        BIT12                                 #        PLAY INTO A PRIORITY
000544:                                                                                                  #        DISPLAY IN R60
000545:
000546:                                                                                                  #  BIT 11 FLAG 4 (S)
000547: 26,2022                        MWAITFLG           =        064D                                  #        HIGHER PRIORITY         NO HIGHER PRIORITY
000548:                                                                                                  #        DISPLAY OPERATING       DISPLAY OPERATING
000549: 26,2022     4741               MWAITBIT           =        BIT11                                 #        WHEN MARK DISPLAY       WHEN MARK DISPLAY
000550:                                                                                                  #        INITIATED               INITIATED
000551:
000552:                                                                                                  #  BIT 10 FLAG 4 (S)
000553: 26,2022                        NWAITFLG           =        065D                                  #        HIGHER PRIORITY         NO HIGHER PRIORITY
000554:                                                                                                  #        DISPLAY OPERATING       DISPLAY OPERATING
000555: 26,2022     4742               NWAITBIT           =        BIT10                                 #        WHEN NORMAL             WHEN NORMAL DISPLAY
000556:                                                                                                  #        DISPLAY INITIATED       INITIATED
000557:
000558:                                                                                                  #  BIT 9 FLAG 4  (S)
000559: 26,2022                        MRKNVFLG           =        066D                                  #        ASTRONAUT USING         ASTRONAUT NOT USING
000560:                                                                                                  #        KEYBOARD WHEN MARK      KEYBOARD WHEN MARK
000561: 26,2022     4743               MRKNVBIT           =        BIT9                                  #        DISPLAY INITIATED       DISPLAY INITIATED
000562:
000563:                                                                                                  #  BIT 8 FLAG 4  (S)
000564: 26,2022                        NRMNVFLG           =        067D                                  #        ASTRONAUT USING         ASTRONAUT NOT USING
000565:                                                                                                  #        KEYBOARD WHEN           KEYBOARD WHEN
000566: 26,2022     4744               NRMNVBIT           =        BIT8                                  #        NORMAL DISPLAY          NORMAL DISPLAY
000567:                                                                                                  #        INITIATED               INITIATED
000568:


000570:                                                                                                  #  BIT 7 FLAG 4  (S)
000571: 26,2022                        PRONVFLG           =        068D                                  #        ASTRONAUT USING         ASTRONAUT NOT USING
000572:                                                                                                  #        KEYBOARD WHEN           KEYBOARD WHEN
000573: 26,2022     4745               PRONVBIT           =        BIT7                                  #        PRIORITY DISPLAY        PRIORITY DISPLAY
000574:                                                                                                  #        INITIATED               INITIATED
000575:
000576:                                                                                                  #  BIT 6 FLAG 4  (S)
000577: 26,2022                        PINBRFLG           =        069D                                  #        ASTRONAUT HAS           ASTRONAUT HAS NOT
000578:                                                                                                  #        INTERFERED WITH         INTERFERED WITH
000579: 26,2022     4746               PINBRBIT           =        BIT6                                  #        EXISTING DISPLAY        EXISTING DISPLAY
000580:
000581:                                                                                                  #  BIT 5 FLAG 4  (S)
000582: 26,2022                        MRUPTFLG           =        070D                                  #        MARK DISPLAY            MARK DISPLAY NOT
000583:                                                                                                  #        INTERRUPTED BY          INTERRUPTED BY
000584: 26,2022     4747               MRUPTBIT           =        BIT5                                  #        PRIORITY DISPLAY        PRIORITY DISPLAY
000585:
000586:                                                                                                  #  BIT 4 FLAG 4  (S)
000587: 26,2022                        NRUPTFLG           =        071D                                  #        NORMAL DISPLAY          NORMAL DISPLAY NOT
000588:                                                                                                  #        INTERRUPTED BY          INTERRUPTED BY
000589: 26,2022     4750               NRUPTBIT           =        BIT4                                  #        PRIORITY OR MARK        PRIORITY OR MARK
000590:                                                                                                  #        DISPLAY                 DISPLAY
000591:
000592:                                                                                                  #  BIT 3 FLAG 4  (S)
000593: 26,2022                        MKOVFLAG           =        072D                                  #        MARK DISPLAY OVER       NO MARK DISPLAY OVER
000594: 26,2022     4751               MKOVBIT            =        BIT3                                  #        NORMAL                  NORMAL
000595:
000596:                                                                                                  #  BIT 2 FLAG 4
000597:                                                                                                  #                =       073D
000598:
000599:                                                                                                  #  BIT 1 FLAG 4  (S)
000600: 26,2022                        XDSPFLAG           =        074D                                  #        MARK DISPLAY NOT        NO SPECIAL MARK
000601: 26,2022     4753               XDSPBIT            =        BIT1                                  #        TO BE INTERRUPTED       INFORMATION
000602:
000603: 26,2022     0101               FLAGWRD5           =        STATE      +5                         #  (075-089)
000604:
000605:                                                                                                  #        (SET)                   (RESET)
000606:
000607:                                                                                                  #  BIT 15 FLAG 5 (S)
000608: 26,2022                        DSKYFLAG           =        075D                                  #        DISPLAYS SENT TO        NO DISPLAYS TO DSKY
000609: 26,2022     4735               DSKYFBIT           =        BIT15                                 #        DSKY
000610:
000611:                                                                                                  #  BIT 14 FLAG 5
000612:                                                                                                  #                =       076D
000613:                                                                                                  #                =       BIT14
000614:


000616:                                                                                                  #  BIT 13 FLAG 5 (S,L)
000617: 26,2022                        SNUFFER            =        077D                                  #        U,V JETS DISABLED       U,V JETS ENABLED
000618:                                                                                                  #        DURING DPS              DURING DPS
000619: 26,2022     4737               SNUFFBIT           =        BIT13                                 #        BURNS (V65)             BURNS (V75)
000620:
000621:                                                                                                  #  BIT 12 FLAG 5 (S)
000622: 26,2022                        NOTHROTL           =        078D                                  #        INHIBIT FULL            PERMIT FULL THROTTLE
000623: 26,2022     4740               NOTHRBIT           =        BIT12                                 #        THROTTLE
000624:
000625:                                                                                                  #  BIT 11 FLAG 5 (S,L)
000626: 26,2022                        R77FLAG            =        079D                                  #        R77 IS ON,              R77 IS NOT ON.
000627:                                                                                                  #        SUPPRESS ALL RADAR
000628:                                                                                                  #        ALARMS AND TRACKER
000629: 26,2022     4741               R77FLBIT           =        BIT11                                 #        FAILS
000630:
000631:                                                                                                  #  BIT 10 FLAG 5 (S)
000632: 26,2022                        RNGSCFLG           =        080D                                  #        SCALE CHANGE HAS        NO SCALE CHANGE HAS
000633:                                                                                                  #        OCCURRED DURING         OCCURRED DURING
000634: 26,2022     4742               RNGSCBIT           =        BIT10                                 #        RR READING              RR READING
000635:
000636:                                                                                                  #  BIT 9 FLAG 5  (S)
000637: 26,2022                        DMENFLG            =        081D                                  #        DIMENSION OF W IS 9     DIMENSION OF W IS 6
000638: 26,2022     4743               DMENFBIT           =        BIT9                                  #        FOR INCORPORATION       FOR INCORPORATION
000639:
000640:                                                                                                  #  BIT 8 FLAG 5  (S)
000641: 26,2022                        ZOOMFLAG           =        082D                                  #        THROTTLE-UP HAS         THROTTLE-UP HAS NOT
000642: 26,2022     4744               ZOOMBIT            =        BIT8                                  #        OCCURRED IN P63.        YET OCCURRED IN P63.
000643:
000644:                                                                                                  #  BIT 7 FLAG 5  (S)
000645: 26,2022                        ENGONFLG           =        083D                                  #        ENGINE TURNED ON        ENGINE TURNED OFF
000646: 26,2022     4745               ENGONBIT           =        BIT7                                  #
000647:
000648:                                                                                                  #  BIT 6 FLAG 5  (S)
000649: 26,2022                        3AXISFLG           =        084D                                  #        MANEUVER SPECIFIED      MANEUVER SPECIFIED
000650:                                                                                                  #        BY THREE AXES           BY ONE AXIS; R60
000651: 26,2022     4746               3AXISBIT           =        BIT6                                  #                                CALLS VECPOINT.
000652:
000653:                                                                                                  #  BIT 5 FLAG 5
000654: 26,2022                        AORBSFLG           =        085D                                  #        PREFER PAXIS JET        PREFER PAXIS JET
000655: 26,2022     4747               AORBSYST           =        BIT5                                  #        PAIRS 7,15 AND 8,16     PAIRS 4,12 AND 3,11
000656:


000658:                                                                                                  #  BIT 4 FLAG 5  (S)
000659: 26,2022                        NORRMON            =        086D                                  #        BYPASS RR GIMBAL        PERFORM
000660: 26,2022     4750               NORRMBIT           =        BIT4                                  #        MONITOR                 RR GIMBAL MONITOR
000661:
000662:                                                                                                  #  BIT 3 FLAG 5  (S)
000663: 26,2022                        SOLNSW             =        087D                                  #        LAMBERT DOES NOT        LAMBERT CONVERGES OR
000664:                                                                                                  #        CONVERGE,OR TIME-RAD    TIME-RADIUS NON
000665: 26,2022     4751               SOLNSBIT           =        BIT3                                  #        NEARLY CIRCULAR         CIRCULAR
000666:
000667:                                                                                                  #  BIT 2 FLAG 5  (S)
000668: 26,2022                        MGLVFLAG           =        088D                                  #        LOCAL VERTICAL          MIDDLE GIMBAL ANGLE
000669:                                                                                                  #        COORDINATES             COMPUTED
000670: 26,2022     4752               MGLVFBIT           =        BIT2                                  #        COMPUTED
000671:
000672:                                                                                                  #  BIT 1 FLAG 5  (S)
000673: 26,2022                        RENDWFLG           =        089D                                  #        W MATRIX VALID          W MATRIX INVALID
000674:                                                                                                  #        FOR RENDEZVOUS          FOR RENDEZVOUS
000675: 26,2022     4753               RENDWBIT           =        BIT1                                  #        NAVIGATION              NAVIGATION
000676:
000677: 26,2022     0102               FLAGWRD6           =        STATE      +6                         #  (090-104)
000678:
000679:                                                                                                  #        (SET)                   (RESET)
000680:
000681:                                                                                                  #  BIT 15 FLAG 6 (S)
000682: 26,2022                        S32.1F1            =        090D                                  #        DELTA V AT CSI TIME     DVT1 LESS THEN MAX
000683: 26,2022     4735               S32BIT1            =        BIT15                                 #        ONE EXCEEDS MAX
000684:
000685:                                                                                                  #  BIT 14 FLAG 6 (S)
000686: 26,2022                        S32.1F2            =        091D                                  #        FIRST PASS OF           REITERATION OF
000687: 26,2022     4736               S32BIT2            =        BIT14                                 #        NEWTON ITERATION        NEWTON
000688:
000689:                                                                                                  #  BIT 13 FLAG 6 (S)
000690: 26,2022                        S32.1F3A           =        092D                                  #  BIT 13 AND BIT 12 FUNCTION AS AN ORDERED
000691: 26,2022     4737               S32BIT3A           =        BIT13                                 #  PAIR (13,12) INDICATING THE POSSIBLE OC-
000692:                                                                                                  #  CURRANCE OF 2NEWTON ITERATIONS FOR S32.1
000693:                                                                                                  #  IN THE PROGRAM IN THE FOLLOWING ORDER:
000694:                                                                                                  #  BIT 12 FLAG 6                                   (0,1) (I.E.BIT 13 RESET, BIT 12 SET)
000695: 26,2022                        S32.1F3B           =        093D                                  #       = FIRST NEWTON ITERATION BEING DONE
000696: 26,2022     4740               S32BIT3B           =        BIT12                                 #  (0,0)= FIRST PASS OF SECOND NEWT.ITERAT.
000697:                                                                                                  #  (1,1)= 50 FT/SEC STAGE OF SEC. NEWT.ITER
000698:                                                                                                  #  (1,0)= REMAINDER OF SECOND NEWTON ITERA.
000699:


000701:                                                                                                  #  BIT 11 FLAG 6 (S)
000702:
000703:                                                                                                  #  BIT 10 FLAG 6 (S)
000704: 26,2022                        GMBDRVSW           =        095D                                  #        TRIMGIMB OVER           TRIMGIMB NOT OVER
000705: 26,2022     4742               GMBDRBIT           =        BIT10                                 #
000706:
000707:                                                                                                  #  BIT 9 FLAG 6
000708:                                                                                                  #                =       096D
000709:                                                                                                  #                =       BIT9
000710:
000711:                                                                                                  #  BIT 8 FLAG 6  (S)
000712: 26,2022                        MUNFLAG            =        097D                                  #        SERVICER CALLS          SERVICER CALLS
000713: 26,2022     4744               MUNFLBIT           =        BIT8                                  #        MUNRVG                  CALCRVG
000714:
000715:                                                                                                  #  BIT 7 FLAG 6  (L)
000716: 26,2022                                           =        098D
000717: 26,2022                                           =        BIT7
000718:
000719:                                                                                                  #  BIT 6 FLAG 6  (L)
000720: 26,2022                        REDFLAG            =        099D                                  #        LANDING SITE            LANDING SITE
000721:                                                                                                  #        REDESIGNATION           REDESIGNATION NOT
000722: 26,2022     4746               REDFLBIT           =        BIT6                                  #        PERMITTED               PERMITTED
000723:
000724:                                                                                                  #  BIT 5 FLAG 6
000725:                                                                                                  #                =       100D
000726:
000727:                                                                                                  #  BIT 4 FLAG 6
000728:                                                                                                  #                =       101D
000729:
000730:                                                                                                  #  BIT 3 FLAG 6  (S)
000731: 26,2022                        NTARGFLG           =        102D                                  #        ASTRONAUT DID           ASTRONAUT DID NOT
000732:                                                                                                  #        OVERWRITE DELTA         OVERWRITE DELTA
000733: 26,2022     4751               NTARGBIT           =        BIT3                                  #        VELOCITY AT TPI         VELOCITY
000734:                                                                                                  #        OR TPM (P34,35)
000735:
000736:                                                                                                  #  BIT 2 FLAG 6
000737: 26,2022                        AUXFLAG            =        103D                                  #        PROVIDING IDLEFLAG      SERVICER WILL SKIP
000738: 26,2022     4752               AUXFLBIT           =        BIT2                                  #        IS NOT SET, SERV-       DVMON ON ITS NEXT
000739:                                                                                                  #        ICER WILL EXERCISE      PASS EVEN IF THE
000740:                                                                                                  #        DVMON ON ITS NEXT       IDLEFLAG IS NOT SET.
000741:                                                                                                  #        PASS.                   IT WILL THEN SET
000742:                                                                                                  #                                AUXFLAG.
000743:


000745:                                                                                                  #  BIT 1 FLAG 6  (L)
000746: 26,2022                        ATTFLAG            =        104D                                  #        LEM ATTITUDE EXISTS     NO LEM ATTITUDE
000747:                                                                                                  #        IN MOON-FIXED           AVAILABLE IN MOON-
000748: 26,2022     4753               ATTFLBIT           =        BIT1                                  #        COORDINATES             FIXED COORDINATES
000749:
000750: 26,2022     0103               FLAGWRD7           =        STATE      +7                         #  (105-119)
000751:
000752:                                                                                                  #        (SET)                   (RESET)
000753:
000754:                                                                                                  #  BIT 15 FLAG 7 (S)
000755: 26,2022                        ITSWICH            =        105D                                  #        R34;TPI TIME TO BE      TPI HAS BEEN
000756: 26,2022     4735               ITSWBIT            =        BIT15                                 #        COMPUTED                COMPUTED
000757:
000758:                                                                                                  #  BIT 14 FLAG 7 (S)
000759: 26,2022                        MANUFLAG           =        106D                                  #        ATTITUDE MANEUVER       NO ATTITUDE MANEUVER
000760:                                                                                                  #        GOING DURING RR         DURING RR SEARCH
000761: 26,2022     4736               MANUFBIT           =        BIT14                                 #        SEARCH
000762:
000763:                                                                                                  #  BIT 13 FLAG 7 (S)
000764: 26,2022                        IGNFLAG            =        107D                                  #        TIG HAS ARRIVED         TIG HAS NOT ARRIVED
000765: 26,2022     4737               IGNFLBIT           =        BIT13                                 #
000766:
000767:                                                                                                  #  BIT 12 FLAG 7 (S)
000768: 26,2022                        ASTNFLAG           =        108D                                  #        ASTRONAUT HAS           ASTRONAUT HAS NOT
000769: 26,2022     4740               ASTNBIT            =        BIT12                                 #        OKAYED IGNITION         OKAYED IGNITION
000770:
000771:                                                                                                  #  BIT 11 FLAG 7 (L)
000772: 26,2022                        SWANDISP           =        109D                                  #        LANDING ANALOG          LANDING ANALOG
000773: 26,2022     4741               SWANDBIT           =        BIT11                                 #        DISPLAYS ENABLED        DISPLAYS SUPPRESSED
000774:
000775:                                                                                                  #  BIT 10 FLAG 7 (S)
000776: 26,2022                        NORMSW             =        110D                                  #        UNIT NORMAL INPUT       LAMBERT COMPUTES ITS
000777: 26,2022     4742               NORMSBIT           =        BIT10                                 #        TO LAMBERT              OWN UNIT NORMAL
000778:
000779:                                                                                                  #  BIT 9 FLAG 7  (S)
000780: 26,2022                        RVSW               =        111D                                  #        DO NOT COMPUTE          COMPUTE FINAL STATE
000781:                                                                                                  #        FINAL STATE VECTOR      VECTOR IN TIME-THETA
000782: 26,2022     4743               RVSWBIT            =        BIT9                                  #        IN TIME-THETA
000783:
000784:                                                                                                  #  BIT 8 FLAG 7  (S)
000785: 26,2022                        V67FLAG            =        112D                                  #        ASTRONAUT OVERWRITE     ASTRONAUT DOES NOT
000786:                                                                                                  #        W-MATRIX INITIAL        OVERWRITE W-MATRIX


000788: 26,2022     4744               V67FLBIT           =        BIT8                                  #        VALUES                  INITIAL VALUES
000789:
000790:                                                                                                  #  BIT 7 FLAG 7  (S)
000791: 26,2022                        IDLEFLAG           =        113D                                  #        NO DV MONITOR           CONNECT DV MONITOR
000792: 26,2022     4745               IDLEFBIT           =        BIT7                                  #
000793:
000794:                                                                                                  #  BIT 6 FLAG 7  (S)
000795: 26,2022                        V37FLAG            =        114D                                  #        AVERAGEG (SERVICER)     AVERAGEG (SERVICER)
000796: 26,2022     4746               V37FLBIT           =        BIT6                                  #        RUNNING                 OFF
000797:
000798:                                                                                                  #  BIT 5 FLAG 7  (S)
000799: 26,2022                        AVEGFLAG           =        115D                                  #        AVERAGEG (SERVICER)     AVERAGEG (SERVICER)
000800: 26,2022     4747               AVEGFBIT           =        BIT5                                  #        DESIRED                 NOT DESIRED
000801:
000802:                                                                                                  #  BIT 4 FLAG 7  (S)
000803: 26,2022                        UPLOCKFL           =        116D                                  #        K-KBAR-K FAIL           NO K-KBAR-K FAIL
000804: 26,2022     4750               UPLOCBIT           =        BIT4                                  #
000805:
000806:                                                                                                  #  BIT 3 FLAG 7  (S)
000807: 26,2022                        VERIFLAG           =        117D                                  #  CHANGED WHEN V33E OCCURS AT END OF P27
000808: 26,2022     4751               VERIFBIT           =        BIT3                                  #
000809:
000810:                                                                                                  #  BIT 2 FLAG 7  (L,C)
000811: 26,2022                        V82EMFLG           =        118D                                  #        MOON VICINITY           EARTH VICINITY
000812: 26,2022     4752               V82EMBIT           =        BIT2                                  #
000813:
000814:                                                                                                  #  BIT 1 FLAG 7  (S)
000815: 26,2022                        TFFSW              =        119D                                  #        CALCULATE TPERIGEE      CALCULATE TFF
000816: 26,2022     4753               TFFSWBIT           =        BIT1                                  #
000817:
000818: 26,2022     0104               FLAGWRD8           =        STATE      +8D                        #  (120-134)
000819:
000820:                                                                                                  #        (SET)                   (RESET)
000821:
000822:                                                                                                  #  BIT 15 FLAG 8 (S)
000823: 26,2022                        RPQFLAG            =        120D                                  #        RPQ NOT COMPUTED        RPQ COMPUTED
000824:                                                                                                  #        (RPQ = VECTOR BE-
000825: 26,2022     4735               RPQFLBIT           =        BIT15                                 #        TWEEN SECONDARY BODY
000826:                                                                                                  #        AND PRIMARY BODY
000827:
000828:                                                                                                  #  BIT 14 FLAG 8


000830:                                                                                                  #                =       121D
000831:                                                                                                  #                =       BIT14
000832:
000833:                                                                                                  #  BIT 13 FLAG 8 (S)
000834: 26,2022                        NEWIFLG            =        122D                                  #        FIRST PASS THROUGH      SUCCEEDING ITERATION
000835: 26,2022     4737               NEWIBIT            =        BIT13                                 #        INTEGRATION             OF INTEGRATION
000836:
000837:                                                                                                  #  BIT 12 FLAG 8 *** PROTECTED FROM FRESH START ***
000838: 26,2022                        CMOONFLG           =        123D                                  #        PERMANENT CSM STATE     PERMANENT CSM STATE
000839: 26,2022     4740               CMOONBIT           =        BIT12                                 #        IN LUNAR SPHERE         IN EARTH SPHERE
000840:
000841:                                                                                                  #  BIT 11 FLAG 8 *** PROTECTED FROM FRESH START ***
000842: 26,2022                        LMOONFLG           =        124D                                  #        PERMANENT LM STATE      PERMANENT LM STATE
000843: 26,2022     4741               LMOONBIT           =        BIT11                                 #        IN LUNAR SPHERE         IN EARTH SPHERE
000844:
000845:                                                                                                  #  BIT 10 FLAG 8 (L)
000846: 26,2022                        FLUNDISP           =        125D                                  #        CURRENT GUIDANCE        CURRENT GUIDANCE
000847: 26,2022     4742               FLUNDBIT           =        BIT10                                 #        DISPLAYS INHIBITED      DISPLAYS PERMITTED
000848:
000849:                                                                                                  #  BIT 9 FLAG 8  (L)
000850:                                                                                                  #                =       126D
000851:                                                                                                  #                =       BIT9
000852:
000853:                                                                                                  #  BIT 8 FLAG 8  *** PROTECTED FROM FRESH START ***
000854: 26,2022                        SURFFLAG           =        127D                                  #        LM ON LUNAR SURFACE     LM NOT ON LUNAR
000855: 26,2022     4744               SURFFBIT           =        BIT8                                  #                                SURFACE
000856:
000857:                                                                                                  #  BIT 7 FLAG 8  (S)
000858: 26,2022                        INFINFLG           =        128D                                  #        NO CONIC SOLUTION       CONIC SOLUTION
000859:                                                                                                  #        (CLOSURE THROUGH        EXISTS
000860: 26,2022     4745               INFINBIT           =        BIT7                                  #        INFINITY REQUIRED)
000861:
000862:                                                                                                  #  BIT 6 FLAG 8  (S)
000863: 26,2022                        ORDERSW            =        129D                                  #        ITERATOR USES 2ND       ITERATOR USES 1ST
000864: 26,2022     4746               ORDERBIT           =        BIT6                                  #        ORDER MINIMUM MODE      ORDER STANDARD MODE
000865:
000866:                                                                                                  #  BIT 5 FLAG 8  (S)
000867: 26,2022                        APSESW             =        130D                                  #        RDESIRED OUTSIDE        RDESIRED INSIDE
000868:                                                                                                  #        PERICENTER-APOCENTER    PERICENTER-APOCENTER
000869: 26,2022     4747               APSESBIT           =        BIT5                                  #        RANGE IN TIME-RADI      RANGE IN TIME-RADIUS
000870:


000872:                                                                                                  #  BIT 4 FLAG 8  (S)
000873: 26,2022                        COGAFLAG           =        131D                                  #        NO CONIC SOLUTION -     CONIC SOLUTION
000874:                                                                                                  #        TOO CLOSE TO RECTI-     EXISTS (COGA DOES NOT
000875: 26,2022     4750               COGAFBIT           =        BIT4                                  #        LINEAR (COGA OVRFLWS)   OVERFLOW)
000876:
000877:                                                                                                  #  BIT 3 FLAG 8
000878:                                                                                                  #                =       132D
000879:
000880:                                                                                                  #  BIT 2 FLAG 8  (L)
000881: 26,2022                        INITALGN           =        133D                                  #        INITIAL PASS THRU       SECOND PASS THRU P57
000882: 26,2022     4752               INITABIT           =        BIT2                                  #        P57                     (CHECK RESET-MILLARD)
000883:
000884:                                                                                                  #  BIT 1 FLAG 8  (S)
000885: 26,2022                        360SW              =        134D                                  #        TRANSFER ANGLE NEAR     TRANSFER ANGLE NOT
000886: 26,2022     4753               360SWBIT           =        BIT1                                  #        360 DEGREES             NEAR 360 DEGREES
000887:
000888: 26,2022     0105               FLAGWRD9           =        STATE      +9D                        #  (135-149)
000889:
000890:                                                                                                  #        (SET)                   (RESET)
000891:
000892:                                                                                                  #  BIT 15 FLAG 9
000893:                                                                                                  #                =       135D
000894:                                                                                                  #                =       BIT15
000895:
000896:                                                                                                  #  BIT 14 FLAG 9 (L)
000897: 26,2022                        FLVR               =        136D                                  #        VERTICAL RISE           NON-VERTICAL RISE
000898: 26,2022     4736               FLVRBIT            =        BIT14                                 #        (ASCENT GUIDANCE)
000899:
000900:                                                                                                  #  BIT 13 FLAG 9
000901: 26,2022                        P7071FLG           =        137D                                  #        P70 OR P71 IS USING     P12 IS USING THE
000902: 26,2022     4737               P7071BIT           =        BIT13                                 #        ASCENT GUID. EQS.       ASCENT GUID. EQS.
000903:
000904:                                                                                                  #  BIT 12 FLAG 9 (L)
000905: 26,2022                        FLPC               =        138D                                  #        NO POSITION CONTROL     POSITION CONTROL
000906: 26,2022     4740               FLPCBIT            =        BIT12                                 #        (ASCENT GUIDANCE)
000907:
000908:                                                                                                  #  BIT 11 FLAG 9 (L)
000909: 26,2022                        FLPI               =        139D                                  #        PRE-IGNITION PHASE      REGULAR GUIDANCE
000910: 26,2022     4741               FLPIBIT            =        BIT11                                 #        (ASCENT GUIDANCE)
000911:
000912:                                                                                                  #  BIT 10 FLAG 9 (L)
000913: 26,2022                        FLRCS              =        140D                                  #        RCS INJECTION MODE      MAIN ENGINE MODE


000915: 26,2022     4742               FLRCSBIT           =        BIT10                                 #        (ASCENT GUIDANCE)
000916:
000917:                                                                                                  #  BIT 9 FLAG 9  (L)
000918: 26,2022                        LETABORT           =        141D                                  #        ABORT PROGRAMS          ABORT PROGRAMS
000919: 26,2022     4743               LETABBIT           =        BIT9                                  #        ARE ENABLED             ARE NOT ENABLED
000920:
000921:                                                                                                  #  BIT 8 FLAG 9  (L)
000922: 26,2022                        FLAP               =        142D                                  #        APS CONTINUED ABORT     APS ABORT IS NOT A
000923:                                                                                                  #        AFTER DPS STAGING       CONTINUATION
000924: 26,2022     4744               FLAPBIT            =        BIT8                                  #        (ASCENT GUIDANCE)
000925:
000926:                                                                                                  #  BIT 7 FLAG 9  (L)
000927: 26,2022                        ABTTGFLG           =        143D                                  #        J2,K2 PARAMETERS        J1,K1 PARAMETERS
000928: 26,2022     4745               ABTTGBIT           =        BIT7                                  #        USED FOR ABORT          USED FOR ABORT
000929:                                                                                                  #        TARGETING               TARGETING
000930:
000931:                                                                                                  #  BIT 6 FLAG 9  (L)
000932: 26,2022                        ROTFLAG            =        144D                                  #        P70 AND P71 WILL        P70 AND P71 WILL NOT
000933: 26,2022     4746               ROTFLBIT           =        BIT6                                  #        FORCE VEHICLE           FORCE VEHICLE
000934:                                                                                                  #        ROTATION IN THE         ROTATION IN THE
000935:                                                                                                  #        PREFERRED DIRECTION.    PREFERRED DIRECTION
000936:
000937:                                                                                                  #  BIT 5 FLAG 9  (S)
000938: 26,2022                        QUITFLAG           =        145D                                  #        DISCONTINUE INTEGR.     CONTINUE INTEGRATION
000939: 26,2022     4747               QUITBIT            =        BIT5                                  #
000940:
000941:                                                                                                  #  BIT 4 FLAG 9
000942:                                                                                                  #                =       146D
000943:                                                                                                  #                =       BIT4
000944:
000945:                                                                                                  #  BIT 3 FLAG 9  (L)
000946: 26,2022                        MID1FLAG           =        147D                                  #        INTEGRATE TO TDEC       INTEGRATE TO THE
000947: 26,2022     4751               MID1FBIT           =        BIT3                                  #                                THEN-PRESENT TIME
000948:
000949:                                                                                                  #  BIT 2 FLAG 9  (L)
000950: 26,2022                        MIDAVFLG           =        148D                                  #        INTEGRATION ENTERED     INTEGRATION WAS
000951:                                                                                                  #        FROM ONE OF MIDTOAV     NOT ENTERED VIA
000952: 26,2022     4752               MIDAVBIT           =        BIT2                                  #        PORTALS                 MIDTOAV
000953:
000954:                                                                                                  #  BIT 1 FLAG 9  (S)
000955: 26,2022                        AVEMIDSW           =        149D                                  #        AVETOMID CALLING        NO AVETOMID W INTEGR
000956:                                                                                                  #        FOR W.MATRIX INTEGR     ALLOW SET UP RM, VN.
000957: 26,2022     4753               AVEMDBIT           =        BIT1                                  #        DONT WRITE OVER RN,     PIPTIME
000958:                                                                                                  #        VN,PIPTIME
000959:


000961: 26,2022     0106               RASFLAG            EQUALS   FLGWRD10                              #  WAS ONLY AN INSTALL-ERASTALL FLAG
000962:
000963: 26,2022     0106               FLGWRD10           =        STATE      +10D                       #  (150-164)
000964:
000965:                                                                                                  #        (SET)                   (RESET)
000966:
000967:                                                                                                  #  BIT 15 FLAG 10
000968:                                                                                                  #                =       150D
000969:
000970:                                                                                                  #  BIT 14 FLAG 10 (L,C)
000971: 26,2022                        INTFLAG            =        151D                                  #        INTEGRATION IN          INTEGRATION NOT IN
000972: 26,2022     4736               INTFLBIT           =        BIT14                                 #        PROGRESS                PROGRESS
000973:
000974:                                                                                                  #  BIT 13 FLAG 10 (S,L)
000975: 26,2022                        APSFLAG            =        152D                                  #        ASCENT STAGE            DESCENT STAGE
000976: 26,2022     4737               APSFLBIT           =        BIT13                                 #        *** PROTECTED FROM FRESH START ***
000977:
000978:                                                                                                  #  BIT 12 FLAG 10
000979:                                                                                                  #                =       153D
000980:
000981:                                                                                                  #  BIT 11 FLAG 10
000982:                                                                                                  #                =       154D
000983:
000984:                                                                                                  #  BIT 10 FLAG 10
000985:                                                                                                  #                =       155D
000986:
000987:                                                                                                  #  BIT 9 FLAG 10
000988:                                                                                                  #                =       156D
000989:
000990:                                                                                                  #  BIT 8 FLAG 10
000991:                                                                                                  #                =       157D
000992:
000993:                                                                                                  #  BIT 7 FLAG 10 (L,C)
000994: 26,2022                        REINTFLG           =        158D                                  #        INTEGRATION ROUTINE     INTEGRATION ROUTINE
000995: 26,2022     4745               REINTBIT           =        BIT7                                  #        TO BE RESTARTED         NOT TO BE RESTARTED
000996:
000997:                                                                                                  #  BIT 6 FLAG 10
000998:                                                                                                  #                =       159D


001000:
001001:                                                                                                  #  BIT 5 FLAG 10
001002:                                                                                                  #                =       160D
001003:
001004:                                                                                                  #  BIT 4 FLAG 10
001005:                                                                                                  #                =       161D
001006:
001007:                                                                                                  #  BIT 3 FLAG 10
001008:                                                                                                  #                =       162D
001009:
001010:                                                                                                  #  BIT 2 FLAG 10
001011:                                                                                                  #                =       163D
001012:
001013:                                                                                                  #  BIT 1 FLAG 10
001014:                                                                                                  #                =       164D
001015:
001016: 26,2022     0107               FLGWRD11           =        STATE      +11D                       #  (165-179)
001017:
001018:                                                                                                  #        (SET)                   (RESET)
001019:
001020:                                                                                                  #  BIT 15 FLAG 11 (L)(R12)
001021: 26,2022                        LRBYPASS           =        165D                                  #        BYPASS ALL LANDING      DO NOT BYPASS LR
001022: 26,2022     4735               LRBYBIT            =        BIT15                                 #        RADAR UPDATES           UPDATES
001023:
001024:                                                                                                  #  BIT 14 FLAG 11
001025:                                                                                                  #                =       166D
001026:                                                                                                  #                =       BIT14
001027:
001028:                                                                                                  #  = BIT 13 FLAG 11
001029:                                                                                                  #                =       167D
001030:                                                                                                  #                =       BIT13
001031:
001032:                                                                                                  #  BIT 12 FLAG 11 (L)(R12)
001033: 26,2022                        VXINH              =        168D                                  #        IF Z VELOCITY DATA      UPDATE X AXIS
001034:                                                                                                  #        UNREASONABLE,           VELOCITY
001035: 26,2022     4740               VXINHBIT           =        BIT12                                 #        BYPASS X VELOCITY
001036:                                                                                                  #        UPDATE ON NEXT PASS
001037:


001039:                                                                                                  #  BIT 11 FLAG 11 (L)(R12)
001040: 26,2022                        PSTHIGAT           =        169D                                  #        PAST HIGATE             PREHIGATE
001041: 26,2022     4741               PSTHIBIT           =        BIT11                                 #
001042:
001043:                                                                                                  #  BIT 10 FLAG 11 (L)(R12)
001044: 26,2022                        NOLRREAD           =        170D                                  #        LANDING RADAR           LR NOT REPOSITIONING
001045:                                                                                                  #        REPOSITIONING;
001046: 26,2022     4742               NOLRRBIT           =        BIT10                                 #        BYPASS UPDATE
001047:
001048:                                                                                                  #  BIT 9 FLAG 11 (L)(R12)
001049: 26,2022                        XORFLG             =        171D                                  #        BELOW LIMIT             ABOVE LIMIT DO
001050:                                                                                                  #        INHIBIT X AXIS          NOT INHIBIT
001051: 26,2022     4743               XORFLBIT           =        BIT9                                  #        OVERRIDE
001052:
001053:                                                                                                  #  BIT 8 FLAG 11
001054: 26,2022                        LRINH              =        172D                                  #        LANDING RADAR UP-       LR UPDATES INHIBITED
001055: 26,2022     4744               LRINHBIT           =        BIT8                                  #        DATES PERMITTED         BY ASTRONAUT
001056:                                                                                                  #        BY ASTRONAUT
001057:
001058:                                                                                                  #  BIT 7 FLAG 11 (L)(R12)
001059: 26,2022                        VELDATA            =        173D                                  #        LR VELOCITY             LR VELOCITY MEASURE
001060: 26,2022     4745               VELDABIT           =        BIT7                                  #        MEASUREMENT MADE        NOT MADE
001061:
001062:                                                                                                  #  BIT 6 FLAG 11 (L)(R12)
001063: 26,2022                        LPOS2FLG           =        174D                                  #        USE LR POSITION 2       USE LR POSITION 1
001064: 26,2022     4746               LPOS2BIT           =        BIT6                                  #        TRANSFORMATION          TRANSFORMATION
001065:
001066:                                                                                                  #  BIT 5 FLAG 11 (L)(R12)
001067: 26,2022                        READVEL            =        175D                                  #        OK TO READ LR           DO NOT READ LR
001068: 26,2022     4747               READVBIT           =        BIT5                                  #        VELOCITY DATA           VELOCITY DATA
001069:
001070:                                                                                                  #  BIT 4 FLAG 11 (L)(R12)
001071: 26,2022                        RNGEDATA           =        176D                                  #        LR ALTITUDE             LR ALTITUDE MEASURE
001072: 26,2022     4750               RNGEDBIT           =        BIT4                                  #        MEASUREMENT MADE        NOT MADE
001073:
001074:                                                                                                  #  BIT 3 FLAG 11
001075: 26,2022                        NO511FLG           =        177D                                  #        DO NOT TEST LR          TEST LR ANTENNA
001076: 26,2022     4751               NO511BIT           =        BIT3                                  #        ANTENNA POS IN R12      POS IN R12
001077:
001078:                                                                                                  #  BIT 2 FLAG 11 (L)(R12)
001079: 26,2022                        VFLSHFLG           =        178D                                  #        LR VELOCITY FAIL        LR VEL FAIL LAMP


001081:                                                                                                  #        LAMP SHOULD BE          SHOULDN'T FLASH
001082: 26,2022     4752               VFLSHBIT           =        BIT2                                  #        FLASHING
001083:
001084:                                                                                                  #  BIT 1 FLAG 11 (L)(R12)
001085: 26,2022                        HFLSHFLG           =        179D                                  #        LR ALTITUDE FAIL        LR ALTITUDE FAIL
001086: 26,2022     4753               HFLSHBIT           =        BIT1                                  #        LAMP SHOULD BE          LAMP SHOULD NOT BE
001087:                                                                                                  #        FLASHING                FLASHING
001088:
001089: 26,2022     0110               RADMODES           EQUALS   FLGWRD12                              #  RADAR FLAG WORD
001090:
001091: 26,2022     0110               FLGWRD12           =        STATE      +12D                       #  (180-194)     WAS RADMODES
001092:
001093:                                                                                                  #        (SET)                   (RESET)
001094:
001095:                                                                                                  #  BIT 15 FLAG 12
001096: 26,2022                        CDESFLAG           =        180D                                  #        CONTINUOUS DESIG-       LGC CHECKS FOR LOCK-
001097: 26,2022     4735               CDESBIT            =        BIT15                                 #        NATE. LGC COMMANDS      ON WHEN ANTENNA
001098:                                                                                                  #        RR REGARDLESS OF        BEING DESIGNATED
001099:                                                                                                  #        LOCK-ON
001100:
001101:                                                                                                  #  BIT 14 FLAG 12
001102: 26,2022                        REMODFLG           =        181D                                  #        CHANGE IN ANTENNA       NO REMODE REQUESTED
001103: 26,2022     4736               REMODBIT           =        BIT14                                 #        MODE BEEN REQUESTED     OR OCCURRING
001104:                                                                                                  #        I.E., REMODE
001105:
001106:                                                                                                  #  BIT 13 FLAG 12
001107: 26,2022                        RCDU0FLG           =        182D                                  #        RR CDU'S BEING          RR CDU'S NOT BEING
001108: 26,2022     4737               RCDU0BIT           =        BIT13                                 #        ZEROED                  ZEROED
001109:
001110:                                                                                                  #  BIT 12 FLAG 12
001111: 26,2022                        ANTENFLG           =        183D                                  #        RR ANTENNA MODE IS      RR ANTENNA IN MODE 1
001112: 26,2022     4740               ANTENBIT           =        BIT12                                 #        MODE 2
001113:
001114:                                                                                                  #  BIT 11 FLAG 12
001115: 26,2022                        REPOSMON           =        184D                                  #        REPOSITION MONITOR.     NO REPOSITION TAKING
001116: 26,2022     4741               REPOSBIT           =        BIT11                                 #        RR REPOSITION IS        PLACE
001117:                                                                                                  #        TAKING PLACE
001118:
001119:                                                                                                  #  BIT 10 FLAG 12
001120: 26,2022                        DESIGFLG           =        185D                                  #        RR DESIGNATE            RR DESIGNATE NOT
001121: 26,2022     4742               DESIGBIT           =        BIT10                                 #        REQUESTED OR IN         REQUESTED OR IN
001122:                                                                                                  #        PROGRESS                PROGRESS
001123:


001125:                                                                                                  #  BIT 9 FLAG 12
001126: 26,2022                        ALTSCALE           =        186D                                  #        LR ALTITUDE READING     LR ALTITUDE READING
001127: 26,2022     4743               ALTSCBIT           =        BIT9                                  #        IS ON HIGH SCALE        IS ON LOW SCALE
001128:
001129:                                                                                                  #  BIT 8 FLAG 12
001130: 26,2022                        LRVELFLG           =        187D                                  #        LR VELOCITY DATA        NO LR VELOCITY DATA
001131: 26,2022     4744               LRVELBIT           =        BIT8                                  #        FAIL                    FAIL
001132:
001133:                                                                                                  #  BIT 7 FLAG 12
001134: 26,2022                        RCDUFAIL           =        188D                                  #        RR CDU FAIL HAS         RR CDU FAIL OCCURRED
001135: 26,2022     4745               RCDUFBIT           =        BIT7                                  #        NOT OCCURRED
001136:
001137:                                                                                                  #  BIT 6 FLAG 12
001138: 26,2022                        LRPOSFLG           =        189D                                  #        LANDING RADAR           LR POSITION 1
001139: 26,2022     4746               LRPOSBIT           =        BIT6                                  #        POSITION 2
001140:
001141:                                                                                                  #  BIT 5 FLAG 12
001142: 26,2022                        LRALTFLG           =        190D                                  #        LR ALTITUDE DATA        NO LR ALTITUDE DATA
001143: 26,2022     4747               LRALTBIT           =        BIT5                                  #        FAIL.  COULD NOT BE     FAIL
001144:                                                                                                  #        READ SUCCESSFULLY.
001145:
001146:                                                                                                  #  BIT 4 FLAG 12
001147: 26,2022                        RRDATAFL           =        191D                                  #        RR DATA FAIL.           NO RR DATA FAIL.
001148: 26,2022     4750               RRDATABT           =        BIT4                                  #        DATA COULD NOT BE
001149:                                                                                                  #        READ SUCCESSFULLY
001150:
001151:                                                                                                  #  BIT 3 FLAG 12
001152: 26,2022                        RRRSFLAG           =        192D                                  #        RR RANGE READING        RR RANGE READING ON
001153: 26,2022     4751               RRRSBIT            =        BIT3                                  #        ON THE HIGH SCALE       THE LOW SCALE
001154:
001155:                                                                                                  #  BIT 2 FLAG 12
001156: 26,2022                        AUTOMODE           =        193D                                  #        RR NOT IN AUTO MODE.    RR IN AUTO MODE
001157: 26,2022     4752               AUTOMBIT           =        BIT2                                  #        AUTO MODE DISCRETE
001158:                                                                                                  #        IS NOT PRESENT
001159:
001160:                                                                                                  #  BIT 1 FLAG 12
001161: 26,2022                        TURNONFL           =        194D                                  #        RR TURN-ON SEQUENCE     NO RR TURN-ON
001162: 26,2022     4753               TURNONBT           =        BIT1                                  #        IN PROGRESS.  (ZERO     SEQUENCE IN PROGRESS
001163:                                                                                                  #        CDU'S, FIX ANTENNA
001164:                                                                                                  #        MODE)
001165:


001167: 26,2022     0111               DAPBOOLS           EQUALS   FLGWRD13                              #  DIGITAL AUTOPILOT FLAGWORD
001168:
001169: 26,2022     0111               FLGWRD13           =        STATE      +13D                       #  (195-209)     WAS DAPBOOLS
001170:
001171:                                                                                                  #        (SET)                   (RESET)
001172:
001173:                                                                                                  #  BIT 15 FLAG 13
001174: 26,2022                        PULSEFLG           =        195D                                  #        MINIMUM IMPULSE         NOT IN MINIMUM
001175: 26,2022     4735               PULSES             =        BIT15                                 #        COMMAND MODE IN         IMPULSE COMMAND MODE
001176:                                                                                                  #        "ATT HOLD" (V76)        (V77)
001177:
001178:                                                                                                  #  BIT 14 FLAG 13
001179: 26,2022                        USEQRFLG           =        196D                                  #        GIMBAL UNUSABLE.        TRIM GIMBAL MAY BE
001180: 26,2022     4736               USEQRJTS           =        BIT14                                 #        USE JETS ONLY.          USED.
001181:
001182:                                                                                                  #  BIT 13 FLAG 13
001183: 26,2022                        CSMDKFLG           =        197D                                  #        CSM DOCKED.  USE        CSM NOT DOCKED TO LM
001184: 26,2022     4737               CSMDOCKD           =        BIT13                                 #        BACKUP DAP
001185:
001186:                                                                                                  #  BIT 12 FLAG 13
001187: 26,2022                        OURRCFLG           =        198D                                  #        CURRENT DAP PASS        CURRENT DAP PASS IS
001188: 26,2022     4740               OURRCBIT           =        BIT12                                 #        IS RATE COMMAND         NOT RATE COMMAND
001189:
001190:                                                                                                  #  BIT 11 FLAG 13
001191: 26,2022                        ACC4-2FL           =        199D                                  #        4 JET X-AXIS TRANS-     2 JET X-AXIS TRANS-
001192: 26,2022     4741               ACC4OR2X           =        BIT11                                 #        LATION REQUESTED        LATION REQUESTED
001193:
001194:                                                                                                  #  BIT 10 FLAG 13
001195: 26,2022                        AORBTFLG           =        200D                                  #        B SYSTEM FOR X-         A SYSTEM FOR X-
001196: 26,2022     4742               AORBTRAN           =        BIT10                                 #        TRANSLATION             TRANSLATION PREFER'D
001197:
001198:                                                                                                  #  BIT 9 FLAG 13
001199: 26,2022                        XOVINFLG           =        201D                                  #        X-AXIS OVERRIDE         X-AXIS OVERRIDE OKAY
001200: 26,2022     4743               XOVINHIB           =        BIT9                                  #        LOCKED OUT
001201:
001202:                                                                                                  #  BIT 8 FLAG 13
001203: 26,2022                        DRIFTDFL           =        202D                                  #        ASSUME 0 OFFSET         USE OFFSET ACCELERA-
001204: 26,2022     4744               DRIFTBIT           =        BIT8                                  #        DRIFTING FLIGHT.        TION ESTIMATE
001205:


001207:                                                                                                  #  BIT 7 FLAG 13
001208: 26,2022                        RHCSCFLG           =        203D                                  #        NORMAL RHC SCALING      FINE RHC SCALING
001209: 26,2022     4745               RHCSCALE           =        BIT7                                  #        REQUESTED               REQUESTED
001210:
001211:                                                                                                  #  BIT 6 FLAG 13
001212: 26,2022                        ULLAGFLG           =        204D                                  #        ULLAGE REQUEST BY       NO INTERNAL ULLAGE
001213: 26,2022     4746               ULLAGER            =        BIT6                                  #        MISSION PROGRAM         REQUEST
001214:
001215:                                                                                                  #  BIT 5 FLAG 13
001216: 26,2022                        DBSL2FLG           =        205D                                  #        5 DEG DEADBAND          1 OR .3 DEG DEADBAND
001217: 26,2022     4747               DBSLECT2           =        BIT5                                  #        SELECTED BY CREW        SELECTED BY CREW
001218:                                                                                                  #                                (SEE BIT4 DAPBOOLS)
001219:
001220:                                                                                                  #  BIT 4 FLAG 13
001221: 26,2022                        DBSELFLG           =        206D                                  #        1 DEG DEADBAND          MIN DB SELECTED BY
001222: 26,2022     4750               DBSELECT           =        BIT4                                  #        SELECTED BY CREW        CREW (0.3 DEG)
001223:
001224:                                                                                                  #  BIT 3 FLAG 13
001225: 26,2022                        ACCOKFLG           =        207D                                  #        CONTROL AUTHORITY       RESTART OR FRESH ST.
001226: 26,2022     4751               ACCSOKAY           =        BIT3                                  #        VALUES FROM 1/ACCS      SINCE LAST 1/ACCS;
001227:                                                                                                  #        USABLE                  OUTPUTS SUSPECT.
001228:
001229:                                                                                                  #  BIT 2 FLAG 13
001230: 26,2022                        AUTR2FLG           =        208D                                  #  THESE FLAGS ARE USED TOGETHER TO INDICAT
001231: 26,2022     4752               AUTRATE2           =        BIT2                                  #  ASTRONAUT-CHOSEN KALCMANU MANEUVER RATES
001232:                                                                                                  #  (0,0)=(BIT2,BIT1)=    0.2 DEG/SEC
001233:                                                                                                  #  (0,1)=                0.5 DEG/SEC
001234:                                                                                                  #  BIT 1 FLAG 13
001235: 26,2022                        AUTR1FLG           =        209D                                  #  (1,0)=                2.0 DEG/SEC
001236: 26,2022     4753               AUTRATE1           =        BIT1                                  #  (1,1)=               10.0 DEG/SEC
001237:
001238:

End of include-file FLAGWORD_ASSIGNMENTS.agc.  Parent file is MAIN.agc


