
Source Code


000002:                                                                                                  ## Copyright:   Public domain.
000003:                                                                                                  ## Filename:    FLAGWORD_ASSIGNMENTS.agc
000004:                                                                                                  ## Purpose:     The main source file for Luminary 1C, revision 131.
000005:                                                                                                  ##              It is part of the source code for the Lunar Module's (LM)
000006:                                                                                                  ##              Apollo Guidance Computer (AGC) for Apollo 13.
000007:                                                                                                  ## Assembler:   yaYUL
000008:                                                                                                  ## Reference:   pp. 61-88
000009:                                                                                                  ## Contact:     Ron Burkey <info@sandroid.org>.
000010:                                                                                                  ## Website:     www.ibiblio.org/apollo/index.html
000011:                                                                                                  ## Mod history: 04/23/03 RSB.   Began.
000012:                                                                                                  ##              05/14/05 RSB    Corrected website reference above.
000013:                                                                                                  ##              05/17/09 RSB    Backported some Luminary 099 fixes pointed
000014:                                                                                                  ##                              out by Onno Hommes.
000015:                                                                                                  ##              2017-01-06 RSB  Page numbers now agree with those on the
000016:                                                                                                  ##                              original harcopy, as opposed to the PDF page
000017:                                                                                                  ##                              numbers in 1701.pdf.
000018:


000020:                                                                                                  #  FLAGWORDS 0-11        ARE DOWNLINKED AND CAN BE SET AND CLEARED BY UP-FLAG AND DOWN-FLAG INSTRUCTIONS IN THE
000021:                                                                                                  #                        INTERPRETER.  THESE WERE PREVIOUSLY LISTED UNDER "INTERPRETIVE SWITCH BIT ASSIGNMENTS" IN
000022:                                                                                                  #                        THE ERASABLE LOG SECTION.  FLAGWORDS 12 & 13 WERE PREVIOUSLY RADMODES AND DAPBOOLS AND
000023:                                                                                                  #                        ARE STILL DOWNLINKED UNDER THOSE NAMES.
000024:
000025:                                                                                                  #  ALPHABETICAL LIST OF FLAGWORDS
000026:
000027:                                                                                                  #  9             25              41                      61      COLUMN NO.
000028:                                                                                                  #  FLAGWORD      DEC. NUMBER     BIT AND FLAG            BIT NAME
000029:
000030:                                                                                                  #  ABTTGFLG      143             BIT 7 FLAG 9            ABTTGBIT
000031:                                                                                                  #  ACCOKFLG      207             BIT 3 FLAG 13           ACCSOKAY
000032:                                                                                                  #  ACC4-2FL      199             BIT 11 FLAG 13          ACC4OR2X
000033:                                                                                                  #  ACMODFLG      032             BIT 13 FLAG 2           ACMODBIT
000034:                                                                                                  #  ALTSCALE      186             BIT 9 FLAG 12           ALTSCBIT
000035:                                                                                                  #  ANTENFLG      183             BIT 12 FLAG 12          ANTENBIT
000036:                                                                                                  #  AORBSFLG      085             BIT 5 FLAG 5            AORBSYST
000037:                                                                                                  #  AORBTFLG      200             BIT 10 FLAG 13          AORBTRAN
000038:                                                                                                  #  CDESFLAG      180             BIT 15 FLAG 12          CDESBIT
000039:                                                                                                  #  CMOONFLG      123             BIT 12 FLAG 8           CMOONBIT
000040:                                                                                                  #  COGAFLAG      131             BIT 4 FLAG 8            COGAFBIT
000041:                                                                                                  #  CSMDKFLG      197             BIT 13 FLAG 13          CSMDOCKD
000042:                                                                                                  #  CULTFLAG      053             BIT 7 FLAG 3            CULTBIT
000043:                                                                                                  #  DAPBOOLS                      FLGWRD13
000044:                                                                                                  #  DBSELFLG      206             BIT 4 FLAG 13           DBSELECT
000045:                                                                                                  #  DBSL2FLG      205             BIT 5 FLAG 13           DBSLECT2
000046:                                                                                                  #  DESIGFLG      185             BIT 10 FLAG 12          DESIGBIT
000047:                                                                                                  #  DIDFLAG       016             BIT 14 FLAG ?           DIDFLBIT
000048:                                                                                                  #  DIMOFLAG      059             BIT 1 FLAG 3            DIMOBIT
000049:                                                                                                  #  DMENFLG       081             BIT 9 FLAG 5            DMENFBIT


000051:                                                                                                  #  DRIFTDFL      202             BIT 8 FLAG 13           DRIFTBIT
000052:                                                                                                  #  DRIFTFLG      030             BIT 15 FLAG 2           DRFTBIT
000053:                                                                                                  #  DSKYFLAG      075             BIT 15 FLAG 5           DSKYFBIT
000054:                                                                                                  #  D6OR9FLG      058             BIT 2 FLAG 3            D6OR9BIT
000055:                                                                                                  #  ENGONFLG      083             BIT 7 FLAG 5            ENGONBIT
000056:                                                                                                  #  ERADFLAG      017             BIT 13 FLAG 1           ERADFBIT
000057:                                                                                                  #  ETPIFLAG      038             BIT 7 FLAG 2            ETPIBIT
000058:                                                                                                  #  FINALFLG      039             BIT 6 FLAG 2            FINALBIT
000059:                                                                                                  #  FLAGWRD0      (000-014)       (STATE +0)
000060:                                                                                                  #  FLAGWRD1      (015-029)       (STATE +1)
000061:                                                                                                  #  FLAGWRD2      (030-044)       (STATE +2)
000062:                                                                                                  #  FLAGWRD3      (045-059)       (STATE +3)
000063:                                                                                                  #  FLAGWRD4      (060-074)       (STATE +4)
000064:                                                                                                  #  FLAGWRD5      (075-089)       (STATE +5)
000065:                                                                                                  #  FLAGWRD6      (090-104)       (STATE +6)
000066:                                                                                                  #  FLAGWRD7      (105-119)       (STATE +7D)
000067:                                                                                                  #  FLAGWRD8      (120-134)       (STATE +8)
000068:                                                                                                  #  FLAGWRD9      (135-149)       (STATE +9D)
000069:                                                                                                  #  FLAP          142             BIT 8 FLAG 9            FLAPBIT
000070:                                                                                                  #  FLGWRD10      (150-164)       (STATE +10D)
000071:                                                                                                  #  FLGWRD11      (165-179)       (STATE +11D)
000072:                                                                                                  #  FLGWRD12      (180-194)       (STATE +12D)
000073:                                                                                                  #  FLGWRD13      (195-209)       (STATE +13D)
000074:                                                                                                  #  FLPC          138             BIT 12 FLAG 9           FLPCBIT
000075:                                                                                                  #  FLPI          139             BIT 11 FLAG 9           FLPIBIT
000076:                                                                                                  #  FLRCS         149             BIT 10 FLAG 9           FLRCSBIT
000077:                                                                                                  #  FLUNDISP      125             BIT 10 FLAG 8           FLUNDBIT
000078:                                                                                                  #  FLVR          136             BIT 14 FLAG 9           FLVRBIT
000079:                                                                                                  #  FREEFLAG      012             BIT 3 FLAG 0            FREEFBIT
000080:                                                                                                  #  FSPASFLG      005             BIT 10 FLAG 0           FSPASBIT
000081:                                                                                                  #  GLOKFAIL      046             BIT 14 FLAG 3           GLOKFBIT
000082:                                                                                                  #  GMBDRVSW      095             BIT 10 FLAG 6           GMBDRBIT
000083:                                                                                                  #  GUESSW        028             BIT 2 FLAG 1            GUESSBIT
000084:                                                                                                  #  HFLSHFLG      179             BIT 1 FLAG 11           HFLSHBIT
000085:                                                                                                  #  IDLEFLAG      113             BIT 7 FLAG 7            IDLEFBIT
000086:                                                                                                  #  IGNFLAG       107             BIT 13 FLAG 7           IGNFLBIT
000087:                                                                                                  #  IMPULSW       036             BIT 9 FLAG 2            IMPULBIT
000088:                                                                                                  #  IMUSE         007             BIT 8 FLAG 0            IMUSEBIT
000089:                                                                                                  #  INFINFLG      128             BIT 7 FLAG 8            INFINBIT
000090:                                                                                                  #  INITALGN      133             BIT 2 FLAG 8            INITABIT (garbled)
000091:                                                                                                  #  INTFLAG       151             BIT 14 FLAG 10          INTFLBIT (garbled)
000092:                                                                                                  #  INTYPFLG      056             BIT 4 FLAG 3            INTYPBIT (garbled)
000093:                                                                                                  #  ITSWICH       105             BIT 15 FLAG 7           ITSWBIT


000095:                                                                                                  #  LRBYPASS      165             BIT 15 FLAG 11          LRBYBIT
000096:                                                                                                  #  LRINH         172             BIT 8 FLAG 11           LRINHBIT
000097:                                                                                                  #  LRPOSFLG      189             BIT 6 FLAG 12           LRPOSBIT
000098:                                                                                                  #  LRVELFLG      187             BIT 8 FLAG 12           LRVELBIT
000099:                                                                                                  #  LUNAFLAG      048             BIT 12 FLAG 3           LUNABIT
000100:                                                                                                  #  MANUFLAG      106             BIT 14 FLAG 7           MANUFBIT
000101:                                                                                                  #  MGLVFLAG      088             BIT 2 FLAG 5            MGLVFBIT
000102:                                                                                                  #  MIDAVFLG      148             BIT 2 FLAG 9            MIDAVBIT
000103:                                                                                                  #  MIDFLAG       002             BIT 13 FLAG 0           MIDFLBIT
000104:                                                                                                  #  MID1FLAG      147             BIT 3 FLAG 9            MID1BIT
000105:                                                                                                  #  MKOVFLAG      072             BIT 3 FLAG 4            MKOVBIT
000106:                                                                                                  #  MOONFLAG      003             BIT 12 FLAG 0           MOONBIT
000107:                                                                                                  #  MRKIDFLG      060             BIT 15 FLAG 4           MRKIDBIT
000108:                                                                                                  #  MRKNVFLG      066             BIT 9 FLAG 4            MRKNVBIT
000109:                                                                                                  #  MRUPTFLG      070             BIT 5 FLAG 4            MRUPTBIT
000110:                                                                                                  #  MUNFLAG       097             BIT 8 FLAG 6            MUNFLBIT
000111:                                                                                                  #  MWAITFLG      064             BIT 11 FLAG 4           MWAITBIT
000112:                                                                                                  #  NEEDLFLG      011             BIT 4 FLAG 0            NEEDLBIT
000113:                                                                                                  #  NEED2FLG      000             BIT 15 FLAG 0           NEED2BIT
000114:                                                                                                  #  NEWIFLG       122             BIT 13 FLAG 8           NEWIBIT
000115:                                                                                                  #  NJETSFLG      015             BIT 15 FLAG ?           NJETSBIT
000116:                                                                                                  #  NODOFLAG      044             BIT 1 FLAG 2            NODOBIT
000117:                                                                                                  #  NOLRREAD      170             BIT 10 FLAG 11          NOLRRBIT
000118:                                                                                                  #  NORMSW        110             BIT 10 FLAG 7           NORMSBIT
000119:                                                                                                  #  NORRMON       086             BIT 4 FLAG 5            NORRMBIT
000120:                                                                                                  #  NOR29FLG      049             BIT 11 FLAG 3           NR29FBIT
000121:                                                                                                  #  NOTHROTL      078             BIT 12 FLAG 5           NOTHRBIT
000122:                                                                                                  #  NOUPFLAG      024             BIT 6 FLAG 1            NOUPFBIT
000123:                                                                                                  #  NO511FLG      177             BIT 3 FLAG 11           NO511BIT
000124:                                                                                                  #  NRMNVFLG      067             BIT 8 FLAG 4            NRMNVBIT
000125:                                                                                                  #  NRMIDFLG      062             BIT 13 FLAG 4           NRMIDBIT
000126:                                                                                                  #  NRUPTFLG      071             BIT 4 FLAG 4            NRUPTBIT
000127:                                                                                                  #  NTARGFLG      102             BIT 3 FLAG 6            NTARGBIT
000128:                                                                                                  #  NWAITFLG      065             BIT 10 FLAG 4           NWAITBIT
000129:                                                                                                  #  OLDESFLG      014             BIT 1 FLAG 0            OLDESBIT
000130:                                                                                                  #  ORBWFLAG      054             BIT 6 FLAG 3            ORBWFBIT
000131:                                                                                                  #  ORDERSW       129             BIT 6 FLAG 8            ORDERBIT
000132:                                                                                                  #  OURRCFLG      198             BIT 12 FLAG 13          OURRCBIT
000133:                                                                                                  #  PDSPFLAG      063             BIT 12 FLAG 4           PDSPFBIT
000134:                                                                                                  #  PFRATFLG      041             BIT 4 FLAG 2            PFRATBIT
000135:                                                                                                  #  PINBRFLG      069             BIT 6 FLAG 4            PINBRBIT
000136:                                                                                                  #  P00HFLAG      045             BIT 15 FLAG 3           P00HBIT
000137:                                                                                                  #  PRECIFLG      052             BIT 8 FLAG 3            PRECIBIT
000138:                                                                                                  #  PRIODFLG      061             BIT 14 FLAG 1           PRIODBIT
000139:                                                                                                  #  PRONVFLG      068             BIT 7 FLAG 4            PRONVBIT
000140:                                                                                                  #  PSTHIGAT      169             BIT 11 FLAG 11          PSTHIBIT
000141:                                                                                                  #  PULSEFLG      195             BIT 15 FLAG 13          PULSES
000142:                                                                                                  #  P21FLAG       004             BIT 11 FLAG 0           P21FLBIT
000143:                                                                                                  #  P25FLAG       006             BIT 9 FLAG 0            P25FLBIT
000144:                                                                                                  #  P7071FLG      137             BIT 13 FLAG 9           P7071BIT


000146:                                                                                                  #  QUITFLAG      145             BIT 5 FLAG 9            QUITBIT
000147:                                                                                                  #  RADMODES                      FLGWRD12
000148:                                                                                                  #  RASFLAG                       FLGWRD10
000149:                                                                                                  #  RCDUFAIL      188             BIT 7 FLAG 12           RCDUFBIT
000150:                                                                                                  #  RCDU0FLG      182             BIT 13 FLAG 12          RCDU0BIT
000151:                                                                                                  #  READRFLG      051             BIT 9 FLAG 3            READRBIT        EQUIVALENT FLAG NAME FOR R04FLAG
000152:                                                                                                  #  READVEL       175             BIT 5 FLAG 11           READVBIT
000153:                                                                                                  #  REDFLAG       099             BIT 6 FLAG 6            REDFLBIT
000154:                                                                                                  #  REFSMFLG      047             BIT 13 FLAG 3           REFSMBIT
000155:                                                                                                  #  REINTFLG      158             BIT 7 FLAG 10           REINTBIT
000156:                                                                                                  #  REMODFLG      181             BIT 14 FLAG 12          REMODBIT
000157:                                                                                                  #  RENDWFLG      089             BIT 1 FLAG 5            RENDWBIT
000158:                                                                                                  #  REPOSMON      184             BIT 11 FLAG 12          REPOSBIT
000159:                                                                                                  #  RHCSCFLG      203             BIT 7 FLAG 13           RHCSCALE
000160:                                                                                                  #  RNDVZFLG      008             BIT 7 FLAG 0            RNDVZBIT
000161:                                                                                                  #  RNGEDATA      176             BIT 4 FLAG 11           RNGEDBIT
000162:                                                                                                  #  RNGSCFLG      080             BIT 10 FLAG 5           RNGSCBIT
000163:                                                                                                  #  RODFLAG       018             BIT 12 FLAG 1           RODFLBIT
000164:                                                                                                  #  ROTFLAG       144             BIT 6 FLAG 9            ROTFLBIT
000165:                                                                                                  #  RPQFLAG       120             BIT 15 FLAG 8           RPQFLBIT
000166:                                                                                                  #  RRDATAFL      191             BIT 4 FLAG 12           RRDATABT
000167:                                                                                                  #  RRNBSW        009             BIT 6 FLAG 0            RRNBBIT
000168:                                                                                                  #  RRRSFLAG      192             BIT 3 FLAG 12           RRRSBIT
000169:                                                                                                  #  RVSW          111             BIT 9 FLAG 7            RVSWBIT
000170:                                                                                                  #  R04FLAG       051             BIT 9 FLAG 3            R04FLBIT        EQUIVALENT FLAG NAME:  READRFLG
000171:                                                                                                  #  R10FLAG       013             BIT 2 FLAG 0            R10FLBIT
000172:                                                                                                  #  R61FLAG       020             BIT 10 FLAG 1           R61FLBIT
000173:                                                                                                  #  R77FLAG       079             BIT 11 FLAG 5           R77FLBIT
000174:                                                                                                  #  SLOPESW       027             BIT 3 FLAG 1            SLOPEBIT
000175:                                                                                                  #  SNUFFER       077             BIT 13 FLAG 5           SNUFFBIT
000176:                                                                                                  #  SOLNSW        087             BIT 3 FLAG 5            SOLNSBIT
000177:                                                                                                  #  SRCHOPTN      031             BIT 14 FLAG 2           SRCHOBIT
000178:                                                                                                  #  STATEFLG      055             BIT 5 FLAG 3            STATEBIT
000179:                                                                                                  #  STEERSW       034             BIT 11 FLAG 2           STEERBIT
000180:                                                                                                  #  SURFFLAG      127             BIT 8 FLAG 8            SURFFBIT
000181:                                                                                                  #  SWANDISP      109             BIT 11 FLAG 7           SWANDBIT
000182:                                                                                                  #  S32.1F1       090             BIT 15 FLAG 6           S32BIT1
000183:                                                                                                  #  S32.1F2       091?            BIT 14 FLAG 6           S32BIT2
000184:                                                                                                  #  S32.1F3A      092             BIT 13 FLAG 6           S32BIT3A
000185:                                                                                                  #  S32.1F3B      093             BIT 12 FLAG 6           S32BIT3B
000186:                                                                                                  #  TFFSW         119             BIT 1 FLAG 7            TFFSWBIT
000187:                                                                                                  #  TRACKFLG      025             BIT 5 FLAG 1            TRACKBIT
000188:                                                                                                  #  TURNONFL      194             BIT 1 FLAG 12           TURNONBT
000189:                                                                                                  #  ULLAGFLG      204             BIT 6 FLAG 13           ULLAGER
000190:                                                                                                  #  UPDATFLG      023             BIT 7 FLAG 1            UPDATBIT
000191:                                                                                                  #  UPLOCKFL      116             BIT 4 FLAG 7            UPLOCBIT
000192:                                                                                                  #  USEQRFLG      196             BIT 14 FLAG 13          USEQRJTS
000193:                                                                                                  #  VEHUPFLG      022             BIT 8 FLAG 1            VEHUPBIT
000194:                                                                                                  #  VELDATA       173             BIT 7 FLAG 11           VELDABIT
000195:                                                                                                  #  VERIFLAG      117             BIT 3 FLAG 7            VERIFBIT


000197:                                                                                                  #  VFLAG         050             BIT 10 FLAG 3           VFLAGBIT
000198:                                                                                                  #  VFLSHFLG      178             BIT 2 FLAG 11           VFLSHBIT
000199:                                                                                                  #  VINTFLAG      057             BIT 3 FLAG 3            VINTFBIT
000200:                                                                                                  #  VXINH         168             BIT 12 FLAG 11          VXINHBIT
000201:                                                                                                  #  V37FLAG       114             BIT 6 FLAG 7            V37FLBIT
000202:                                                                                                  #  V67FLAG       112             BIT 8 FLAG 7            V67FLBIT
000203:                                                                                                  #  V82EMFLG      118             BIT 2 FLAG 7            V82EMBIT
000204:                                                                                                  #  XDELVFLG      037             BIT 8 FLAG 2            XDELVBIT
000205:                                                                                                  #  XDSPFLAG      074             BIT 1 FLAG 4            XDSPBIT
000206:                                                                                                  #  XORFLG        171             BIT 9 FLAG 11           XORFLBIT
000207:                                                                                                  #  XOVINFLG      201             BIT 9 FLAG 13           XOVINHIB
000208:                                                                                                  #  ZOOMFLAG      082             BIT 8 FLAG 5            ZOOMBIT
000209:                                                                                                  #  3AXISFLG      084             BIT 6 FLAG 5            3AXISBIT
000210:                                                                                                  #  360SW         134             BIT 1 FLAG 8            360SWBIT
000211:
000212:                                                                                                  #  ASSIGNMENT AND DESCRIPTION OF FLAGWORDS
000213:
000214: 26,2022     0074               FLAGWRD0           =        STATE      +0                         #  (000-014)
000215:
000216:                                                                                                  #        (SET)                   (RESET)
000217:
000218:                                                                                                  #  BIT 15 FLAG 0 (S)
000219: 26,2022                        NEED2FLG           =        000D                                  #        DISPLAY DAP RATES       CHECK BIT 4 OF THIS
000220: 26,2022     4735               NEED2BIT           =        BIT15                                 #        ON FDAI NEEDLES.        WORD FOR DISPLAY
000221:                                                                                                  #                                MODES (1 OR 2).
000222:
000223:                                                                                                  #  BIT 1 FLAG 0  (S)
000224: 26,2022                        JSWITCH            =        001D                                  #        INTEGRATION OF W        INTEGRATION OF STATE
000225: 26,2022     4736               JSWCHBIT           =        BIT14                                 #        MATRIX                  VECTOR
000226:
000227:                                                                                                  #  BIT 13 FLAG 0 (S)
000228: 26,2022                        MIDFLAG            =        002D                                  #        INTEGRATION WITH        INTEGRATION WITHOUT
000229:                                                                                                  #        SECONDARY BODY AND      SOLAR PERTURBATIONS
000230: 26,2022     4737               MIDFLBIT           =        BIT13                                 #        SOLAR PERTURBATIONS
000231:
000232:                                                                                                  #  BIT 12 FLAG 0 (L)
000233: 26,2022                        MOONFLAG           =        003D                                  #        MOON IS SPHERE OF       EARTH IS SPHERE OF
000234: 26,2022     4740               MOONBIT            =        BIT12                                 #        INFLUENCE               INFLUENCE
000235:
000236:                                                                                                  #  BIT 11 FLAG 0
000237: 26,2022                        P21FLAG            =        004D                                  #        USE BASE VECTORS        1ST PASS -- CALC-
000238: 26,2022     4741               P21FLBIT           =        BIT11                                 #        ALREADY CALCULATED      ULATE BASE VECTORS
000239:


000241:                                                                                                  #  BIT 10 FLAG 0
000242: 26,2022                        FSPASFLG           =        005D                                  #        FIRST PASS THROUGH      NOT FIRST PASS THRU
000243: 26,2022     4742               FSPASBIT           =        BIT10                                 #        REPOSITION ROUTINE      REPOSITION ROUTINE
000244:
000245:                                                                                                  #  BIT 9 FLAG 0  (S)
000246: 26,2022                        P25FLAG            =        006D                                  #        P25 OPERATING           P25 NOT OPERATING
000247: 26,2022     4743               P25FLBIT           =        BIT9
000248:
000249:                                                                                                  #  BIT 8 FLAG 0  (S)
000250: 26,2022                        IMUSE              =        007D                                  #        IMU IN USE              IMU NOT IN USE
000251: 26,2022     4744               IMUSEBIT           =        BIT8
000252:
000253:                                                                                                  #  BIT 7 FLAG 0  (S)
000254: 26,2022                        RNDVZFLG           =        008D                                  #        P20 RUNNING (RADAR      P20 NOT RUNNING
000255: 26,2022     4745               RNDVZBIT           =        BIT7                                  #        IN USE)
000256:
000257:                                                                                                  #  BIT 6 FLAG 0  (S)
000258: 26,2022                        RRNBSW             =        009D                                  #        RADAR TARGET IN RADAR TARGET IN
000259: 26,2022     4746               RRNBBIT            =        BIT6                                  #        NB COORDINATES  SM COORDINATES
000260:
000261:                                                                                                  #  BIT 5 FLAG 0  (S)
000262: 26,2022                        LOKONSW            =        010D                                  #        RADAR LOCK-ON           RADAR LOCK-ON NOT
000263: 26,2022     4747               LOKONBIT           =        BIT5                                  #        DESIRED                 DESIRED
000264:
000265:                                                                                                  #  BIT 4 FLAG 0  (S)
000266: 26,2022                        NEEDLFLG           =        011D                                  #        TOTAL ATTITUDE  A/P FOLLOWING
000267: 26,2022     4750               NEEDLBIT           =        BIT4                                  #        ERROR DISPLAYED ERROR DISPLAYED
000268:
000269:                                                                                                  #  BIT 3 FLAG 0
000270: 26,2022                        FREEFLAG           =        012D                                  #  (USED BY P51-53 TEMP IN MANY DIFFERENT
000271:                                                                                                  #  ROUTINES & BY LUNAR * SOLAR EPHEMERIDES)
000272: 26,2022     4751               FREEFBIT           =        BIT3
000273:
000274:                                                                                                  #  BIT 2 FLAG 0
000275: 26,2022                        R10FLAG            =        013D                                  #        R10 OUTPUTS DATA TO     BESIDES OUTPUT WHEN
000276: 26,2022     4752               R10FLBIT           =        BIT2                                  #        ALTITUDE & ALTITUDE     SET, R10 ALSO OUTPUT
000277:                                                                                                  #        RATE METERS ONLY        TO FORWARD & LATERAL
000278:                                                                                                  #                                VELOCITY CROSSPOINTER
000279:
000280:                                                                                                  #  BIT 1 FLAG 0  (L)
000281: 26,2022                        OLDESFLG           =        014D                                  #        R29 GYRO CMD LOOP       R29 GYRO CMD LOOP


000283: 26,2022     4753               OLDESBIT           =        BIT1                                  #        REQUESTED               NOT REQUESTED
000284:
000285: 26,2022     0075               FLAGWRD1           =        STATE      +1                         #  (015-029)
000286:
000287:                                                                                                  #        (SET)                   (RESET)
000288:
000289:                                                                                                  #  BIT 15 FLAG 1 (S)
000290: 26,2022                        NJETSFLG           =        015D                                  #        TWO JET RCS BURN        FOUR JET RCS BURN
000291: 26,2022     4735               NJETSBIT           =        BIT15
000292:
000293:                                                                                                  #  BIT 14 FLAG 1 (L)
000294: 26,2022                        DIDFLAG            =        016D                                  #        INERTIAL DATA IS        PERFORM DATA DISPLAY
000295: 26,2022     4736               DIDFLBIT           =        BIT14                                 #        AVAILABLE               INITIALIZATION FUNCS
000296:
000297:                                                                                                  #  BIT 13 FLAG 1 (S)
000298: 26,2022                        ERADFLAG           =        017D                                  #        COMPUTE REARTH          USE CONSTANT REARTH
000299: 26,2022     4737               ERADFBIT           =        BIT13                                 #        FISCHER ELLIPSOID       PAD RADIUS
000300:
000301:                                                                                                  #  BIT 12 FLAG 1
000302: 26,2022                        RODFLAG            =        018D                                  #        IF IN P66, NORMAL       IF IN P66, RE-INIT-
000303: 26,2022     4740               RODFLBIT           =        BIT12                                 #        OPERATION CONTINUES.    IALIZATION IS PER-
000304:                                                                                                  #        RESTART CLEARS FLAG     FORMED AND FLAG IS
000305:
000306:                                                                                                  #  BIT 11 FLAG 1
000307: 26,2022                                           =        019D
000308: 26,2022                                           =        BIT11
000309:
000310:                                                                                                  #  BIT 10 FLAG 1 (L)
000311: 26,2022                        R61FLAG            =        020D                                  #        RUN R61 LEM             RUN R65 LEM
000312: 26,2022     4742               R61FLBIT           =        BIT10
000313:
000314:                                                                                                  #  BIT 9 FLAG 1
000315: 26,2022                                           =        021D
000316: 26,2022                                           =        BIT9
000317:
000318:                                                                                                  #  BIT 8 FLAG 1  (S)
000319: 26,2022                        VEHUPFLG           =        022D                                  #        CSM STATE-VECTOR        LEM STATE VECTOR
000320: 26,2022     4744               VEHUPBIT           =        BIT8                                  #        BEING UPDATED           BEING UPDATED
000321:
000322:                                                                                                  #  BIT 7 FLAG 1  (S)
000323: 26,2022                        UPDATFLG           =        023D                                  #        UPDATING BY MARKS       UPDATING BY MARKS
000324: 26,2022     4745               UPDATBIT           =        BIT7                                  #        ALLOWED                 NOT ALLOWED
000325:


000327:                                                                                                  #  BIT 6 FLAG 1  (S)
000328: 26,2022                        NOUPFLAG           =        024D                                  #        NEITHER CSM             EITHER STATE
000329:                                                                                                  #        NOR LM STATE VECTOR     VECTOR MAY BE
000330: 26,2022     4746               NOUPFBIT           =        BIT6                                  #        MAY BE UPDATED          UPDATED
000331:
000332:                                                                                                  #  BIT 5 FLAG 1  (S)
000333: 26,2022                        TRACKFLG           =        025D                                  #        TRACKING ALLOWED        TRACKING NOT ALLOWED
000334: 26,2022     4747               TRACKBIT           =        BIT5
000335:
000336:                                                                                                  #  BIT 4 FLAG 1
000337: 26,2022                                           =        026D
000338: 26,2022                                           =        BIT4
000339:
000340:                                                                                                  #  BIT 3 FLAG 1  (S)
000341: 26,2022                        SLOPESW            =        027D                                  #        ITERATE WITH BIAS       ITERATE WITH REGULAR
000342:                                                                                                  #        METHOD IN ITERATOR      FALSI METHOD IN
000343: 26,2022     4751               SLOPEBIT           =        BIT3                                  #                                ITERATOR
000344:
000345:                                                                                                  #  BIT 2 FLAG 1  (S)
000346: 26,2022                        GUESSW             =        028D                                  #        NO STARTING VALUE       STARTING VALUE FOR
000347: 26,2022     4752               GUESSBIT           =        BIT2                                  #        FOR ITERATION           ITERATION EXISTS
000348:
000349:                                                                                                  #  BIT 1 FLAG 1
000350: 26,2022                                           =        029D
000351: 26,2022                                           =        BIT1
000352:
000353: 26,2022     0076               FLAGWRD2           =        STATE      +2                         #  (030-044)
000354:
000355:                                                                                                  #        (SET)                   (RESET)
000356:
000357:                                                                                                  #  BIT 15 FLAG 2 (S)
000358: 26,2022                        DRIFTFLG           =        030D                                  #        T3RUPT CALLS GYRO       T3RUPT DOES NO GYRO
000359: 26,2022     4735               DRFTBIT            =        BIT15                                 #        COMPENSATION            COMPENSATION
000360:
000361:                                                                                                  #  BIT 14 FLAG 2 (S)
000362: 26,2022                        SRCHOPTN           =        031D                                  #        RADAR IN AUTOMATIC      RADAR NOT IN AUTO-
000363: 26,2022     4736               SRCHOBIT           =        BIT14                                 #        SEARCH OPTION (R24)     MATIC SEARCH OPTION
000364:
000365:                                                                                                  #  BIT 13 FLAG 2 (S)
000366: 26,2022                        ACMODFLG           =        032D                                  #        MANUAL ACQUISITION      AUTO ACQUISITION
000367: 26,2022     4737               ACMODBIT           =        BIT13                                 #        BY RENDEZVOUS RADAR     BY RENDEZVOUS RADAR
000368:


000370:                                                                                                  #  BIT 12 FLAG 2 (S)
000371: 26,2022                        LOSCMFLG           =        033D                                  #        LINE OF SIGHT BEING     LINE OF SIGHT NOT
000372:                                                                                                  #        COMPUTED (R21)          BEING COMPUTED
000373: 26,2022     4740               LOSCMBIT           =        BIT12
000374:
000375:                                                                                                  #  BIT 11 FLAG 2 (S)
000376: 26,2022                        STEERSW            =        034D                                  #        SUFFICIENT THRUST       INSUFFICIENT THRUST
000377: 26,2022     4741               STEERBIT           =        BIT11                                 #        IS PRESENT              IS PRESENT
000378:
000379:                                                                                                  #  BIT 10 FLAG 2 (S)
000380: 26,2022                                           =        035D
000381: 26,2022                                           =        BIT10
000382:
000383:                                                                                                  #  BIT 9 FLAG 2 (S)
000384: 26,2022                        IMPULSW            =        036D                                  #        MINIMUM IMPULSE         STEERING BURN (NO
000385:                                                                                                  #        BURN (CUTOFF TIME       CUTOFF TIME YET
000386: 26,2022     4743               IMPULBIT           =        BIT9                                  #        SPECIFIED)              AVAILABLE)
000387:
000388:                                                                                                  #  BIT 8 FLAG 2 (S)
000389: 26,2022                        XDELVFLG           =        037D                                  #        EXTERNAL DELTAV VG      LAMBERT (AIMPOINT)
000390: 26,2022     4744               XDELVBIT           =        BIT8                                  #        COMPUTATION             VG COMPUTATION
000391:
000392:                                                                                                  #  BIT 7 FLAG 2 (S)
000393: 26,2022                        ETPIFLAG           =        038D                                  #        ELEVATION ANGLE         TPI TIME SUPPLIED
000394:                                                                                                  #        SUPPLIED FOR            FOR P34,74 TO COMPUTE
000395: 26,2022     4745               ETPIBIT            =        BIT7                                  #        P34,74                  ELEVATION
000396:
000397:                                                                                                  #  BIT 6 FLAG 2 (S)
000398: 26,2022                        FINALFLG           =        039D                                  #        LAST PASS THROUGH       INTERIM PASS THROUGH
000399:                                                                                                  #        RENDEZVOUS PROGRAM      RENDEZVOUS PROGRAM
000400: 26,2022     4746               FINALBIT           =        BIT6                                  #        COMPUTATIONS            COMPUTATIONS
000401:
000402:                                                                                                  #  BIT 5 FLAG 2 (S)
000403: 26,2022                        AVFLAG             =        040D                                  #        LEM IS ACTIVE           CSM IS ACTIVE
000404: 26,2022     4747               AVFLBIT            =        BIT5                                  #        VEHICLE                 VEHICLE
000405:
000406:                                                                                                  #  BIT 4 FLAG 2 (S)
000407: 26,2022                        PFRATFLG           =        041D                                  #        PREFERRED ATTITUDE      PREFERRED ATTITUDE
000408: 26,2022     4750               PFRATBIT           =        BIT4                                  #        COMPUTED                NOT COMPUTED
000409:


000411:                                                                                                  #  BIT 3 FLAG 2 (S)
000412: 26,2022                        CALCMAN3           =        042D                                  #        NO FINAL ROLL           FINAL ROLL IS
000413: 26,2022     4751               CALC3BIT           =        BIT3                                  #                                NECESSARY
000414:
000415:                                                                                                  #  BIT 2 FLAG 2 (S)
000416: 26,2022                        CALCMAN2           =        043D                                  #        PERFORM MANEUVER        BYPASS STARTING
000417: 26,2022     4752               CALC2BIT           =        BIT2                                  #        STARTING PROCEDURE      PROCEDURE
000418:
000419:                                                                                                  #  BIT 1 FLAG 2 (S)
000420: 26,2022                        NODOFLAG           =        044D                                  #        V37 NOT PERMITTED       V37 PERMITTED
000421: 26,2022     4753               NODOBIT            =        BIT1
000422:
000423: 26,2022     0077               FLAGWRD3           =        STATE      +3                         #  (045-059)
000424:
000425:                                                                                                  #        (SET)                   (RESET)
000426:
000427:                                                                                                  #  BIT 15 FLAG 3
000428: 26,2022                        P00HFLAG           =        045D                                  #        INHIBIT BACKWARDS       ALLOW BACKWARDS
000429: 26,2022     4735               P00HBIT            =        BIT15                                 #        INTEGRATION             INTEGRATION
000430:
000431:                                                                                                  #  BIT 14 FLAG 3 (S)
000432: 26,2022                        GLOKFAIL           =        046D                                  #        GIMBAL LOCK HAS         NOT IN GIMBAL LOCK
000433: 26,2022     4736               GLOKFBIT           =        BIT14                                 #        OCCURRED
000434:
000435:                                                                                                  #  BIT 13 FLAG 3 *** PROTECTED FROM FRESH START ***
000436: 26,2022                        REFSMFLG           =        047D                                  #        REFSMMAT GOOD           REFSMMAT NO GOOD
000437: 26,2022     4737               REFSMBIT           =        BIT13
000438:
000439:                                                                                                  #  BIT 12 FLAG 3 (S)
000440: 26,2022                        LUNAFLAG           =        048D                                  #        LUNAR LAT-LONG          EARTH LAT-LONG
000441: 26,2022     4740               LUNABIT            =        BIT12
000442:
000443:                                                                                                  #  BIT 11 FLAG 3 (L)
000444: 26,2022                        NOR29FLG           =        049D                                  #        R29 NOT ALLOWED         R29 ALLOWED (RR DES-
000445: 26,2022     4741               NR29FBIT           =        BIT11                                 #                                IGNATED POWERED FLT)
000446:
000447:                                                                                                  #  BIT 10 FLAG 3 (S)
000448: 26,2022                        VFLAG              =        050D                                  #        LESS THAN TWO STARS     TWO STARS IN FIELD
000449: 26,2022     4742               VFLAGBIT           =        BIT10                                 #        IN FIELD OF VIEW        OF VIEW
000450:
000451:                                                                                                  #  BIT 9 FLAG 3  (S)


000453: 26,2022                        R04FLAG            =        051D                                  #        ALARM 521               ALARM 521 ALLOWED
000454:                                                                                                  #        SUPPRESSED
000455: 26,2022     4743               R04FLBIT           =        BIT9
000456: 26,2022  0000063               READRFLG           =        R04FLAG                               #        READING RR DATA         NOT READING RR DATA
000457: 26,2022     4743               READRBIT           =        BIT9                                  #        PURSUANT TO R29         PURSUANT TO R29
000458:
000459:                                                                                                  #  BIT 8 FLAG 3  (S)
000460: 26,2022                        PRECIFLG           =        052D                                  #        NORMAL INTEGRATION      ENGAGES 4-TIME STEP
000461:                                                                                                  #        IN P00                  (P00) LOGIC IN INTE-
000462: 26,2022     4744               PRECIBIT           =        BIT8                                  #                                GRATION
000463:
000464:                                                                                                  #  BIT 7 FLAG 3  (S)
000465: 26,2022                        CULTFLAG           =        053D                                  #        STAR OCCULTED           STAR NOT OCCULTED
000466: 26,2022     4745               CULTBIT            =        BIT7
000467:
000468:                                                                                                  #  BIT 6 FLAG 3  (S)
000469: 26,2022                        ORBWFLAG           =        054D                                  #        W MATRIX VALID FOR      W MATRIX INVALID FOR
000470: 26,2022     4746               ORBWFBIT           =        BIT6                                  #        ORBITAL NAVIGATION      ORBITAL NAVIGATION
000471:
000472:                                                                                                  #  BIT 5 FLAG 3  (S)
000473: 26,2022                        STATEFLG           =        055D                                  #        PERMANENT STATE         PERMANENT STATE
000474: 26,2022     4747               STATEBIT           =        BIT5                                  #        VECTOR UPDATED          VECTOR NOT UPDATED
000475:
000476:                                                                                                  #  BIT 4 FLAG 3  (S)
000477: 26,2022                        INTYPFLG           =        056D                                  #        CONIC INTEGRATION       ENCKE INTEGRATION
000478: 26,2022     4750               INTYPBIT           =        BIT4
000479:
000480:                                                                                                  #  BIT 3 FLAG 3  (S)
000481: 26,2022                        VINTFLAG           =        057D                                  #        CSM STATE VECTOR        LEM STATE VECTOR
000482: 26,2022     4751               VINTFBIT           =        BIT3                                  #        BEING INTEGRATED        BEING INTEGRATED
000483:
000484:                                                                                                  #  BIT 2 FLAG 3 (S)
000485: 26,2022                        D6OR9FLG           =        058D                                  #        DIMENSION OF W IS 9     DIMENSION OF W IS 6
000486: 26,2022     4752               D6OR9BIT           =        BIT2                                  #        FOR INTEGRATION         FOR INTEGRATION
000487:
000488:                                                                                                  #  BIT 1 FLAG 3  (S)
000489: 26,2022                        DIM0FLAG           =        059D                                  #        W MATRIX IS TO BE       W MATRIX IS NOT TO
000490: 26,2022     4753               DIM0BIT            =        BIT1                                  #        USED                    USED
000491:


000493: 26,2022     0100               FLAGWRD4           =        STATE      +4                         #  (060-074)
000494:
000495:                                                                                                  #        (SET)                   (RESET)
000496:
000497:                                                                                                  #  BIT 15 FLAG 4 (S)
000498: 26,2022                        MRKIDFLG           =        060D                                  #        MARK DISPLAY IN         NO MARK DISPLAY IN
000499: 26,2022     4735               MRKIDBIT           =        BIT15                                 #        ENDIDLE                 ENDIDLE
000500:
000501:                                                                                                  #  BIT 14 FLAG 4 (S)
000502: 26,2022                        PRIODFLG           =        061D                                  #        PRIORITY DISPLAY IN     NO PRIORITY DISPLAY
000503: 26,2022     4736               PRIODBIT           =        BIT14                                 #        ENDIDLE                 IN ENDIDLE
000504:
000505:                                                                                                  #  BIT 13 FLAG 4 (S)
000506: 26,2022                        NRMIDFLG           =        062D                                  #        NORMAL DISPLAY IN       NO NORMAL DISPLAY
000507: 26,2022     4737               NRMIDBIT           =        BIT13                                 #        ENDIDLE                 IN ENDIDLE
000508:
000509:                                                                                                  #  BIT 12 FLAG 4 (S)
000510: 26,2022                        PDSPFLAG           =        063D                                  #        P20 SETS SO AS TO       LEAVE AS NORMAL DISP
000511:                                                                                                  #        TURN A NORMAL DIS-
000512: 26,2022     4740               PDSPFBIT           =        BIT12                                 #        PLAY INTO A PRIORITY
000513:                                                                                                  #        DISPLAY IN R60
000514:
000515:                                                                                                  #  BIT 11 FLAG 4 (S)
000516: 26,2022                        MWAITFLG           =        064D                                  #        HIGHER PRIORITY         NO HIGHER PRIORITY
000517:                                                                                                  #        DISPLAY OPERATING       DISPLAY OPERATING
000518: 26,2022     4741               MWAITBIT           =        BIT11                                 #        WHEN MARK               WHEN MARK DISPLAY
000519:                                                                                                  #        DISPLAY INITIATED       INITIATED
000520:
000521:                                                                                                  #  BIT 10 FLAG 4 (S)
000522: 26,2022                        NWAITFLG           =        065D                                  #        HIGHER PRIORITY         NO HIGHER PRIORITY
000523:                                                                                                  #        DISPLAY OPERATING       DISPLAY OPERATING
000524: 26,2022     4742               NWAITBIT           =        BIT10                                 #        WHEN NORMAL             WHEN NORMAL DISPLAY
000525:                                                                                                  #        DISPLAY INITIATED       INITIATED
000526:
000527:                                                                                                  #  BIT 9 FLAG 4  (S)
000528: 26,2022                        MRKNVFLG           =        066D                                  #        ASTRONAUT USING         ASTRONAUT NOT USING
000529:                                                                                                  #        KEYBOARD WHEN MARK      KEYBOARD WHEN MARK
000530: 26,2022     4743               MRKNVBIT           =        BIT9                                  #        DISPLAY INITIATED       DISPLAY INITIATED
000531:
000532:                                                                                                  #  BIT 8 FLAG 4  (S)
000533: 26,2022                        NRMNVFLG           =        067D                                  #        ASTRONAUT USING         ASTRONAUT NOT USING
000534:                                                                                                  #        KEYBOARD WHEN           KEYBOARD WHEN
000535: 26,2022     4744               NRMNVBIT           =        BIT8                                  #        NORMAL DISPLAY          NORMAL DISPLAY
000536:                                                                                                  #        INITIATED               INITIATED
000537:


000539:                                                                                                  #  BIT 7 FLAG 4  (S)
000540: 26,2022                        PRONVFLG           =        068D                                  #        ASTRONAUT USING         ASTRONAUT NOT USING
000541:                                                                                                  #        KEYBOARD WHEN           KEYBOARD WHEN
000542: 26,2022     4745               PRONVBIT           =        BIT7                                  #        PRIORITY DISPLAY        PRIORITY DISPLAY
000543:                                                                                                  #        INITIATED               INITIATED
000544:
000545:                                                                                                  #  BIT 6 FLAG 4  (S)
000546: 26,2022                        PINBRFLG           =        069D                                  #        ASTRONAUT HAS           ASTRONAUT HAS NOT
000547:                                                                                                  #        INTERFERED WITH         INTERFERED WITH
000548: 26,2022     4746               PINBRBIT           =        BIT6                                  #        EXISTING DISPLAY        EXISTING DISPLAY
000549:
000550:                                                                                                  #  BIT 5 FLAG 4  (S)
000551: 26,2022                        MRUPTFLG           =        070D                                  #        MARK DISPLAY            MARK DISPLAY NOT
000552:                                                                                                  #        INTERRUPTED BY          INTERRUPTED BY
000553: 26,2022     4747               MRUPTBIT           =        BIT5                                  #        PRIORITY DISPLAY        PRIORITY DISPLAY
000554:
000555:                                                                                                  #  BIT 4 FLAG 4  (S)
000556: 26,2022                        NRUPTFLG           =        071D                                  #        NORMAL DISPLAY          NORMAL DISPLAY NOT
000557:                                                                                                  #        INTERRUPTED BY          INTERRUPTED BY
000558: 26,2022     4750               NRUPTBIT           =        BIT4                                  #        PRIORITY OR MARK        PRIORITY OR MARK
000559:                                                                                                  #        DISPLAY                 DISPLAY
000560:
000561:                                                                                                  #  BIT 3 FLAG 4  (S)
000562: 26,2022                        MKOVFLAG           =        072D                                  #        MARK DISPLAY OVER       NO MARK DISPLAY OVER
000563: 26,2022     4751               MKOVBIT            =        BIT3                                  #        NORMAL                  NORMAL
000564:
000565:                                                                                                  #  BIT 2 FLAG 4
000566: 26,2022                                           =        073D
000567: 26,2022                                           =        BIT2
000568:
000569:                                                                                                  #  BIT 1 FLAG 4  (S)
000570: 26,2022                        XDSPFLAG           =        074D                                  #        MARK DISPLAY NOT        NO SPECIAL MARK
000571: 26,2022     4753               XDSPBIT            =        BIT1                                  #        TO BE INTERRUPTED       INFORMATION
000572:
000573: 26,2022     0101               FLAGWRD5           =        STATE      +5                         #  (075-089)
000574:
000575:                                                                                                  #        (SET)                   (RESET)
000576:
000577:                                                                                                  #  BIT 15 FLAG 5 (S)
000578: 26,2022                        DSKYFLAG           =        075D                                  #        DISPLAYS SENT TO        NO DISPLAYS TO DSKY
000579: 26,2022     4735               DSKYFBIT           =        BIT15                                 #        DSKY
000580:
000581:                                                                                                  #  BIT 14 FLAG 5
000582: 26,2022                                           =        076D
000583: 26,2022                                           =        BIT14
000584:


000586:                                                                                                  #  BIT 13 FLAG 5 (S,L)
000587: 26,2022                        SNUFFER            =        077D                                  #        U,V JETS DISABLED       U,V JETS ENABLED
000588:                                                                                                  #        DURING DPS              DURING DPS
000589: 26,2022     4737               SNUFFBIT           =        BIT13                                 #        BURNS (V65)             BURNS (V75)
000590:
000591:                                                                                                  #  BIT 12 FLAG 5 (S)
000592: 26,2022                        NOTHROTL           =        078D                                  #        INHIBIT FULL            PERMIT FULL THROTTLE
000593: 26,2022     4740               NOTHRBIT           =        BIT12                                 #        THROTTLE
000594:
000595:                                                                                                  #  BIT 11 FLAG 5 (S,L)
000596: 26,2022                        R77FLAG            =        079D                                  #        R77 IS ON,              R77 IS NOT ON.
000597:                                                                                                  #        SUPPRESS ALL RADAR
000598:                                                                                                  #        ALARMS AND TRACKER
000599: 26,2022     4741               R77FLBIT           =        BIT11                                 #        FAILS
000600:
000601:                                                                                                  #  BIT 10 FLAG 5 (S)
000602: 26,2022                        RNGSCFLG           =        080D                                  #        SCALE CHANGE HAS        NO SCALE CHANGE HAS
000603:                                                                                                  #        OCCURRED DURING         OCCURRED DURING
000604: 26,2022     4742               RNGSCBIT           =        BIT10                                 #        RR READING              RR READING
000605:
000606:                                                                                                  #  BIT 9 FLAG 5  (S)
000607: 26,2022                        DMENFLG            =        081D                                  #        DIMENSION OF W IS 9     DIMENSION OF W IS 6
000608: 26,2022     4743               DMENFBIT           =        BIT9                                  #        FOR INCORPORATION       FOR INCORPORATION
000609:
000610:                                                                                                  #  BIT 8 FLAG 5  (S)
000611: 26,2022                        ZOOMFLAG           =        082D                                  #        THROTTLE-UP HAS         THROTTLE-UP HAS NOT
000612: 26,2022     4744               ZOOMBIT            =        BIT8                                  #        OCCURRED IN P63.        YET OCCURRED IN P63
000613:
000614:                                                                                                  #  BIT 7 FLAG 5  (S)
000615: 26,2022                        ENGONFLG           =        083D                                  #        ENGINE TURNED ON        ENGINE TURNED OFF
000616: 26,2022     4745               ENGONBIT           =        BIT7                                  #
000617:
000618:                                                                                                  #  BIT 6 FLAG 5  (S)
000619: 26,2022                        3AXISFLG           =        084D                                  #        MANEUVER SPECIFIED      MANEUVER SPECIFIED
000620:                                                                                                  #        BY THREE AXES           BY ONE AXIS; R60
000621: 26,2022     4746               3AXISBIT           =        BIT6                                  #                                CALLS VECPOINT.
000622:
000623:                                                                                                  #  BIT 5 FLAG 5
000624: 26,2022                        AORBSFLG           =        085D                                  #        PREFER PAXIS JET        PREFER PAXIS JET
000625: 26,2022     4747               AORBSYST           =        BIT5                                  #        PAIRS 7,15 AND 8.16     PAIRS 4,12 AND 3,11
000626:


000628:                                                                                                  #  BIT 4 FLAG 5  (S)
000629: 26,2022                        NORRMON            =        086D                                  #        BYPASS RR GIMBAL        PERFORM
000630: 26,2022     4750               NORRMBIT           =        BIT4                                  #        MONITOR                 RR GIMBAL MONITOR
000631:
000632:                                                                                                  #  BIT 3 FLAG 5  (S)
000633: 26,2022                        SOLNSW             =        087D                                  #        LAMBERT DOES NOT        LAMBERT CONVERGES OR
000634:                                                                                                  #        CONVERGE, OR TIME-RAD   TIME-RADIUS NON-
000635: 26,2022     4751               SOLNSBIT           =        BIT3                                  #        NEARLY CIRCULAR         CIRCULAR
000636:
000637:                                                                                                  #  BIT 2 FLAG 5  (S)
000638: 26,2022                        MGLVFLAG           =        088D                                  #        LOCAL VERTICAL          MIDDLE GIMBAL ANGLE
000639:                                                                                                  #        COORDINATES             COMPUTED
000640: 26,2022     4752               MGLVFBIT           =        BIT2                                  #        COMPUTED
000641:
000642:                                                                                                  #  BIT 1 FLAG 5  (S)
000643: 26,2022                        RENDWFLG           =        089D                                  #        W MATRIX VALID          W MATRIX INVALID
000644:                                                                                                  #        FOR RENDEZVOUS          FOR RENDEZVOUS
000645: 26,2022     4753               RENDWBIT           =        BIT1                                  #        NAVIGATION              NAVIGATION
000646:
000647: 26,2022     0102               FLAGWRD6           =        STATE      +6                         #  (090-104)
000648:
000649:                                                                                                  #        (SET)                   (RESET)
000650:
000651:                                                                                                  #  BIT 15 FLAG 6 (S)
000652: 26,2022                        S32.1F1            =        090D                                  #        DELTA V AT CSI TIME     DVT1 LESS THAN MAX
000653: 26,2022     4735               S32BIT1            =        BIT15                                 #        ONE EXEEDS MAX
000654:
000655:                                                                                                  #  BIT 14 FLAG 6 (S)
000656: 26,2022                        S32.1F2            =        091D                                  #        FIRST PASS OF           REITERATION OF
000657: 26,2022     4736               S32BIT2            =        BIT14                                 #        NEWTON ITERATION        NEWTON
000658:
000659:                                                                                                  #  BIT 13 FLAG 6 (S)
000660: 26,2022                        S32.1F3A           =        092D                                  #  BIT 13 AND BIT 12 FUNCTION AS AN ORDERED
000661: 26,2022     4737               S32BIT3A           =        BIT13                                 #  PAIR (13,12) INDICATING THE POSSIBLE OC-
000662:                                                                                                  #  CURRENCE OF 2 NEWTON ITERATIONS FOR S32.1
000663:                                                                                                  #  IN THE PROGRAM IN THE FOLLOWING ORDER:
000664:                                                                                                  #  BIT 12 FLAG 6 (S)                             # (0,1) (I.E. BIT 13 RESET, BIT 12 SET)
000665: 26,2022                        S32.1F3B           =        093D                                  #       = FIRST NEWTON ITERATION BEING DONE
000666: 26,2022     4740               S32BIT3B           =        BIT12                                 #  (0,0)= FIRST PASS OF SECOND NEWTON ITERATION
000667:                                                                                                  #  (1,1)= 50 FT/SEC STAGE OF SECOND NEWTON ITERATION
000668:                                                                                                  #  (1,0)= REMAINDER OF SECOND NEWTON ITERATION
000669:


000671:                                                                                                  #  BIT 11 FLAG 6 (S)
000672: 26,2022                                           =        094D                                  #
000673: 26,2022                                           =        BIT11                                 #
000674:
000675:                                                                                                  #  BIT 10 FLAG 6 (S)
000676: 26,2022                        GMBDRVSW           =        095D                                  #        TRIMGIMB OVER           TRIMGIMB NOT OVER
000677: 26,2022     4742               GMBDRBIT           =        BIT10                                 #
000678:
000679:                                                                                                  #  BIT 9 FLAG 6
000680: 26,2022                                           =        096D
000681: 26,2022                                           =        BIT9                                  #
000682:
000683:                                                                                                  #  BIT 8 FLAG 6  (S)
000684: 26,2022                        MUNFLAG            =        097D                                  #        SERVICER CALLS          SERVICER CALLS
000685: 26,2022     4744               MUNFLBIT           =        BIT8                                  #        MUNRVG                  CALCRVG
000686:
000687:                                                                                                  #  BIT 7 FLAG 6  (L)
000688: 26,2022                                           =        098D                                  #
000689: 26,2022                                           =        BIT7                                  #
000690:
000691:                                                                                                  #  BIT 6 FLAG 6  (L)
000692: 26,2022                        REDFLAG            =        099D                                  #        LANDING SITE            LANDING SITE
000693:                                                                                                  #        REDESIGNATION           REDESIGNATION NOT
000694: 26,2022     4746               REDFLBIT           =        BIT6                                  #        PERMITTED               PERMITTED
000695:
000696:                                                                                                  #  BIT 5 FLAG 6
000697: 26,2022                                           =        100D                                  #
000698: 26,2022                                           =        BIT5
000699:
000700:                                                                                                  #  BIT 4 FLAG 6
000701: 26,2022                                           =        101D
000702: 26,2022                                           =        BIT4                                  #
000703:
000704:                                                                                                  #  BIT 3 FLAG 6  (S)
000705: 26,2022                        NTARGFLG           =        102D                                  #        ASTRONAUT DID           ASTRONAUT DID NOT
000706:                                                                                                  #        OVERWRITE DELTA         OVERWRITE DELTA
000707: 26,2022     4751               NTARGBIT           =        BIT3                                  #        VELOCITY AT TPI         VELOCITY
000708:                                                                                                  #        OR TPM (P34,35)
000709:
000710:                                                                                                  #  BIT 2 FLAG 6
000711: 26,2022                        AUXFLAG            =        103D                                  #        PROVIDING IDLEFLAG      SERVICER WILL SKIP
000712: 26,2022     4752               AUXFLBIT           =        BIT2                                  #        IS NOT SET, SERV-       DVMON ON ITS NEXT
000713:                                                                                                  #        ICER WILL EXERCISE      PASS EVEN IF THE
000714:                                                                                                  #        DVMON ON ITS NEXT       IDLEFLAG IS NOT SET.
000715:                                                                                                  #        PASS.                   IT WILL THEN SET
000716:                                                                                                  #                                AUXFLAG.
000717:


000719:                                                                                                  #  BIT 1 FLAG 6  (L)
000720: 26,2022                        ATTFLAG            =        104D                                  #        LEM ATTITUDE EXISTS     NO LEM ATTITUDE
000721:                                                                                                  #        IN MOON-FIXED           AVAILABLE IN MOON-
000722: 26,2022     4753               ATTFLBIT           =        BIT1                                  #        COORDINATES             FIXED COORDINATES
000723:
000724: 26,2022     0103               FLAGWRD7           =        STATE      +7                         #  (105-119)
000725:
000726:                                                                                                  #        (SET)                   (RESET)
000727:
000728:                                                                                                  #  BIT 15 FLAG 7 (S)
000729: 26,2022                        ITSWICH            =        105D                                  #        R34;TPI TIME TO BE      TPI HAS BEEN
000730: 26,2022     4735               ITSWBIT            =        BIT15                                 #        COMPUTED                COMPUTED
000731:
000732:                                                                                                  #  BIT 14 FLAG 7 (S)
000733: 26,2022                        MANUFLAG           =        106D                                  #        ATTITUDE MANEUVER       NO ATTITUDE MANEUVER
000734:                                                                                                  #        GOING DURING RR         DURING RR SEARCH
000735: 26,2022     4736               MANUFBIT           =        BIT14                                 #        SEARCH
000736:
000737:                                                                                                  #  BIT 13 FLAG 7 (S)
000738: 26,2022                        IGNFLAG            =        107D                                  #        TIG HAS ARRIVED         TIG HAS NOT ARRIVED
000739: 26,2022     4737               IGNFLBIT           =        BIT13                                 #
000740:
000741:                                                                                                  #  BIT 12 FLAG 7 (S)
000742: 26,2022                        ASTNFLAG           =        108D                                  #        ASTRONAUT HAS           ASTRONAUT HAS NOT
000743: 26,2022     4740               ASTNBIT            =        BIT12                                 #        OKAYED IGNITION         OKAYED IGNITION
000744:
000745:                                                                                                  #  BIT 11 FLAG 7 (L)
000746: 26,2022                        SWANDISP           =        109D                                  #        LANDING ANALOG          LANDING ANALOG
000747: 26,2022     4741               SWANDBIT           =        BIT11                                 #        DISPLAYS ENABLED        DISPLAYS SUPPRESSED
000748:
000749:                                                                                                  #  BIT 10 FLAG 7 (S)
000750: 26,2022                        NORMSW             =        110D                                  #        UNIT NORMAL INPUT       LAMBERT COMPUTES ITS
000751: 26,2022     4742               NORMSBIT           =        BIT10                                 #        TO LAMBERT              OWN UNIT NORMAL
000752:
000753:                                                                                                  #  BIT 9 FLAG 7  (S)
000754: 26,2022                        RVSW               =        111D                                  #        DO NOT COMPUTE          COMPUTE FINAL STATE
000755:                                                                                                  #        FINAL STATE VECTOR      VECTOR IN TIME-THETA
000756: 26,2022     4743               RVSWBIT            =        BIT9                                  #        IN TIME-DELTA
000757:
000758:                                                                                                  #  BIT 8 FLAG 7  (S)
000759: 26,2022                        V67FLAG            =        112D                                  #        ASTRONAUT OVERWRITE     ASTRONAUT DOES NOT


000761: 26,2022     4744               V67FLBIT           =        BIT8                                  #        VALUES                  INITIAL VALUES
000762:
000763:                                                                                                  #  BIT 7 FLAG 7  (S)
000764: 26,2022                        IDLEFLAG           =        113D                                  #        NO DV MONITOR           CONNECT DV MONITOR
000765: 26,2022     4745               IDLEFBIT           =        BIT7                                  #
000766:
000767:                                                                                                  #  BIT 6 FLAG 7  (S)
000768: 26,2022                        V37FLAG            =        114D                                  #        AVERAGEG (SERVICER)     AVERAGEG (SERVICER)
000769: 26,2022     4746               V37FLBIT           =        BIT6                                  #        RUNNING                 OFF
000770:
000771:                                                                                                  #  BIT 5 FLAG 7  (S)
000772: 26,2022                        AVEGFLAG           =        115D                                  #        AVERAGEG (SERVICER)     AVERAGEG (SERVICER)
000773: 26,2022     4747               AVEGFBIT           =        BIT5                                  #        DESIRED                 NOT DESIRED
000774:
000775:                                                                                                  #  BIT 4 FLAG 7  (S)
000776: 26,2022                        UPLOCKFL           =        116D                                  #        K-KBAR-K FAIL           NO K-KBAR-K FAIL
000777: 26,2022     4750               UPLOCBIT           =        BIT4                                  #
000778:
000779:                                                                                                  #  BIT 3 FLAG 7  (S)
000780: 26,2022                        VERIFLAG           =        117D                                  #  CHANGED WHEN V33E OCCURS AT END OF P27
000781: 26,2022     4751               VERIFBIT           =        BIT3                                  #
000782:
000783:                                                                                                  #  BIT 2 FLAG 7  (L,C)
000784: 26,2022                        V82EMFLG           =        118D                                  #        MOON VICINITY           EARTH VICINITY
000785: 26,2022     4752               V82EMBIT           =        BIT2                                  #
000786:
000787:                                                                                                  #  BIT 1 FLAG 7  (S)
000788: 26,2022                        TFFSW              =        119D                                  #        CALCULATE TPERIGEE      CALCULATE TFF
000789: 26,2022     4753               TFFSWBIT           =        BIT1                                  #
000790:
000791: 26,2022     0104               FLAGWRD8           =        STATE      +8D                        #  (120-134)
000792:
000793:                                                                                                  #        (SET)                   (RESET)
000794:
000795:                                                                                                  #  BIT 15 FLAG 8 (S)
000796: 26,2022                        RPQFLAG            =        120D                                  #        RPQ NOT COMPUTED        RPQ COMPUTED
000797:                                                                                                  #        (RPQ = VECTOR BE-
000798: 26,2022     4735               RPQFLBIT           =        BIT15                                 #        TWEEN SECONDARY BODY
000799:                                                                                                  #        AND PRIMARY BODY)
000800:
000801:                                                                                                  #  BIT 14 FLAG 8


000803: 26,2022                                           =        121D                                  #
000804: 26,2022                                           =        BIT14                                 #
000805:
000806:                                                                                                  #  BIT 13 FLAG 8 (S)
000807: 26,2022                        NEWIFLG            =        122D                                  #        FIRST PASS THROUGH      SUCCEEDING ITERATION
000808: 26,2022     4737               NEWIBIT            =        BIT13                                 #        INTEGRATION             OF INTEGRATION
000809:
000810:                                                                                                  #  BIT 12 FLAG 8 *** PROTECTED FROM FRESH START ***
000811: 26,2022                        CMOONFLG           =        123D                                  #        PERMANENT CSM STATE     PERMANENT CSM STATE
000812: 26,2022     4740               CMOONBIT           =        BIT12                                 #        IN LUNAR SPHERE         IN EARTH SPHERE
000813:
000814:                                                                                                  #  BIT 11 FLAG 8 *** PROTECTED FROM FRESH START ***
000815: 26,2022                        LMOONFLG           =        124D                                  #        PERMANENT LM STATE      PERMANENT LM STATE
000816: 26,2022     4741               LMOONBIT           =        BIT11                                 #        IN LUNAR SPHERE         IN EARTH SPHERE
000817:
000818:                                                                                                  #  BIT 10 FLAG 8 (L)
000819: 26,2022                        FLUNDISP           =        125D                                  #        CURRENT GUIDANCE        CURRENT GUIDANCE
000820: 26,2022     4742               FLUNDBIT           =        BIT10                                 #        DISPLAYS INHIBITED      DISPLAYS PERMITTED
000821:
000822:                                                                                                  #  BIT 9 FLAG 8  (L)
000823: 26,2022                                           =        126D                                  #
000824: 26,2022                                           =        BIT9                                  #
000825:
000826:                                                                                                  #  BIT 8 FLAG 8  *** PROTECTED FROM FRESH START ***
000827: 26,2022                        SURFFLAG           =        127D                                  #        LM ON LUNAR SURFACE     LM NOT ON LUNAR
000828: 26,2022     4744               SURFFBIT           =        BIT8                                  #                                SURFACE
000829:
000830:                                                                                                  #  BIT 7 FLAG 8  (S)
000831: 26,2022                        INFINFLG           =        128D                                  #        NO CONIC SOLUTION       CONIC SOLUTION
000832:                                                                                                  #        (CLOSURE THROUGH        EXISTS
000833: 26,2022     4745               INFINBIT           =        BIT7                                  #        INFINITY REQUIRED)
000834:
000835:                                                                                                  #  BIT 6 FLAG 8  (S)
000836: 26,2022                        ORDERSW            =        129D                                  #        ITERATOR USES 2ND       ITERATOR USES 1ST
000837: 26,2022     4746               ORDERBIT           =        BIT6                                  #        ORDER MINIMUM MODE      ORDER STANDARD MODE
000838:
000839:                                                                                                  #  BIT 5 FLAG 8  (S)
000840: 26,2022                        APSESW             =        130D                                  #        RDESIRED OUTSIDE        RDESIRED INSIDE
000841:                                                                                                  #        PERICENTER-APOCENTER    PERICENTER-APOCENTER
000842: 26,2022     4747               APSESBIT           =        BIT5                                  #        RANGE IN TIME-RADIUS    RANGE IN TIME-RADIUS
000843:


000845:                                                                                                  #  BIT 4 FLAG 8  (S)
000846: 26,2022                        COGAFLAG           =        131D                                  #        NO CONIC SOLUTION --    CONIC SOLUTION
000847:                                                                                                  #        TOO CLOSE TO RECTI-     EXISTS (COGA DOES NOT
000848: 26,2022     4750               COGAFBIT           =        BIT4                                  #        LINEAR (COGA OVERFLWS)  OVERFLOW)
000849:
000850:                                                                                                  #  BIT 3 FLAG 8  (S)
000851: 26,2022                                           =        132D
000852: 26,2022                                           =        BIT3                                  #
000853:
000854:                                                                                                  #  BIT 2 FLAG 8  (L)
000855: 26,2022                        INITALGN           =        133D                                  #        INITIAL PASS THRU       SECOND PASS THRU P57
000856: 26,2022     4752               INITABIT           =        BIT2                                  #        P57                     (CHECK RESET-MILLARD)
000857:
000858:                                                                                                  #  BIT 1 FLAG 8  (S)
000859: 26,2022                        360SW              =        134D                                  #        TRANSFER ANGLE NEAR     TRANSFER ANGLE NOT
000860: 26,2022     4753               360SWBIT           =        BIT1                                  #        360 DEGREES             NEAR 360 DEGREES
000861:
000862: 26,2022     0105               FLAGWRD9           =        STATE      +9D                        #  (135-149)
000863:
000864:                                                                                                  #        (SET)                   (RESET)
000865:
000866:                                                                                                  #  BIT 15 FLAG 9
000867: 26,2022                                           =        135D                                  #
000868: 26,2022                                           =        BIT15                                 #
000869:
000870:                                                                                                  #  BIT 14 FLAG 9 (L)
000871: 26,2022                        FLVR               =        136D                                  #        VERTICAL RISE           NON-VERTICAL RISE
000872: 26,2022     4736               FLVRBIT            =        BIT14                                 #        (ASCENT GUIDANCE)
000873:
000874:                                                                                                  #  BIT 13 FLAG 9
000875: 26,2022                        P7071FLG           =        137D                                  #        P70 OR P71 IS USING     P12 IS USING THE
000876: 26,2022     4737               P7071BIT           =        BIT13                                 #        ASCENT GUID. EQS.       ASCENT GUID. EQS.
000877:
000878:                                                                                                  #  BIT 12 FLAG 9 (L)
000879: 26,2022                        FLPC               =        138D                                  #        NO POSITION CONTROL     POSITION CONTROL
000880: 26,2022     4740               FLPCBIT            =        BIT12                                 #        (ASCENT GUIDANCE)
000881:
000882:                                                                                                  #  BIT 11 FLAG 9 (L)
000883: 26,2022                        FLPI               =        139D                                  #        PRE-IGNITION PHASE      REGULAR GUIDANCE
000884: 26,2022     4741               FLPIBIT            =        BIT11                                 #        (ASCENT GUIDANCE)
000885:
000886:                                                                                                  #  BIT 10 FLAG 9 (L)
000887: 26,2022                        FLRCS              =        140D                                  #        RCS INJECTION MODE      MAIN ENGINE MODE


000889: 26,2022     4742               FLRCSBIT           =        BIT10                                 #        (ASCENT GUIDANCE)
000890:
000891:                                                                                                  #  BIT 9 FLAG 9  (L)
000892: 26,2022                        LETABORT           =        141D                                  #        ABORT PROGRAMS          ABORT PROGRAMS
000893: 26,2022     4743               LETABBIT           =        BIT9                                  #        ARE ENABLED             ARE NOT ENABLED
000894:
000895:                                                                                                  #  BIT 8 FLAG 9  (L)
000896: 26,2022                        FLAP               =        142D                                  #        APS CONTINUED ABORT     APS ABORT IS NOT A
000897:                                                                                                  #        AFTER DPS STAGING       CONTINUATION
000898: 26,2022     4744               FLAPBIT            =        BIT8                                  #        (ASCENT GUIDANCE)
000899:
000900:                                                                                                  #  BIT 7 FLAG 9  (L)
000901: 26,2022                        ABTTGFLG           =        143D                                  #        J2,K2 PARAMETERS        J1,K1 PARAMETERS
000902: 26,2022     4745               ABTTGBIT           =        BIT7                                  #        USED FOR ABORT          USED FOR ABORT
000903:                                                                                                  #        TARGETING               TARGETING
000904:
000905:                                                                                                  #  BIT 6 FLAG 9  (L)
000906: 26,2022                        ROTFLAG            =        144D                                  #        P70 AND P71 WILL        P70 AND P71 WILL NOT
000907: 26,2022     4746               ROTFLBIT           =        BIT6                                  #        FORCE VEHICLE           FORCE VEHICLE
000908:                                                                                                  #        ROTATION IN THE         ROTATION IN THE
000909:                                                                                                  #        PREFERRED DIRECTION     PREFERRED DIRECTION
000910:
000911:                                                                                                  #  BIT 5 FLAG 9  (S)
000912: 26,2022                        QUITFLAG           =        145D                                  #        DISCONTINUE INTEGR.     CONTINUE INTEGRATION
000913: 26,2022     4747               QUITBIT            =        BIT5                                  #
000914:
000915:                                                                                                  #  BIT 4 FLAG 9
000916: 26,2022                                           =        146D                                  #
000917: 26,2022                                           =        BIT4                                  #
000918:
000919:                                                                                                  #  BIT 3 FLAG 9  (L)
000920: 26,2022                        MID1FLAG           =        147D                                  #        INTEGRAT TO TDEC        INTEGRATE TO THE
000921: 26,2022     4751               MID1FBIT           =        BIT3                                  #                                THEN-PRESENT TIME
000922:
000923:                                                                                                  #  BIT 2 FLAG 9  (L)
000924: 26,2022                        MIDAVFLG           =        148D                                  #        INTEGRATION ENTERED     INTEGRATION WAS
000925:                                                                                                  #        FROM ONE OF MIDTOAV     NOT ENTERED VIA
000926: 26,2022     4752               MIDAVBIT           =        BIT2                                  #        PORTALS                 MIDTOAV
000927:
000928:                                                                                                  #  BIT 1 FLAG 9  (S)
000929: 26,2022                        AVEMIDSW           =        149D                                  #        AVETOMID CALLING        NO AVETOMID W INTEGR
000930:                                                                                                  #        FOR W.MATRIX INTEGR     ALLOW SET UP RM, VN
000931: 26,2022     4753               AVEMDBIT           =        BIT1                                  #        DON'T WRITE OVER RN,    PIPTIME
000932:                                                                                                  #        VN,PIPTIME
000933:


000935: 26,2022     0106               RASFLAG            EQUALS   FLGWRD10                              #  WAS ONLY AN INSTALL-ERASTALL FLAG
000936:
000937: 26,2022     0106               FLGWRD10           =        STATE      +10D                       #  (150-164)
000938:
000939:                                                                                                  #        (SET)                   (RESET)
000940:
000941:                                                                                                  #  BIT 15 FLAG 10 (S)
000942: 26,2022                                           =        150D                                  #
000943: 26,2022                                           =        BIT15                                 #
000944:
000945:                                                                                                  #  BIT 14 FLAG 10 (L,C)
000946: 26,2022                        INTFLAG            =        151D                                  #        INTEGRATION IN          INTEGRATION NOT IN
000947: 26,2022     4736               INTFLBIT           =        BIT14                                 #        PROGRESS                PROGRESS
000948:
000949:                                                                                                  #  BIT 13 FLAG 10 (S,L) *** PROTECTED FROM FRESH START ***
000950: 26,2022                        APSFLAG            =        152D                                  #        ASCENT STAGE            DESCENT STAGE
000951: 26,2022     4737               APSFLBIT           =        BIT13                                 #
000952:
000953:                                                                                                  #  BIT 12 FLAG 10
000954: 26,2022                                           =        153D                                  #
000955: 26,2022                                           =        BIT12                                 #
000956:
000957:                                                                                                  #  BIT 11 FLAG 10
000958: 26,2022                                           =        154D                                  #
000959: 26,2022                                           =        BIT11                                 #
000960:
000961:                                                                                                  #  BIT 10 FLAG 10
000962: 26,2022                                           =        155D                                  #
000963: 26,2022                                           =        BIT10                                 #
000964:
000965:                                                                                                  #  BIT 9 FLAG 10
000966: 26,2022                                           =        156D                                  #
000967: 26,2022                                           =        BIT9                                  #
000968:
000969:                                                                                                  #  BIT 8 FLAG 10
000970: 26,2022                                           =        157D                                  #
000971: 26,2022                                           =        BIT8                                  #
000972:
000973:                                                                                                  #  BIT 7 FLAG 10 (L,C)
000974: 26,2022                        REINTFLG           =        158D                                  #        INTEGRATION ROUTINE     INTEGRATION ROUTINE
000975: 26,2022     4745               REINTBIT           =        BIT7                                  #        TO BE RESTARTED         NOT TO BE RESTARTED
000976:
000977:                                                                                                  #  BIT 6 FLAG 10
000978: 26,2022                                           =        159D


000980: 26,2022                                           =        BIT6                                  #
000981:
000982:                                                                                                  #  BIT 5 FLAG 10
000983: 26,2022                                           =        160D                                  #
000984: 26,2022                                           =        BIT5                                  #
000985:
000986:                                                                                                  #  BIT 4 FLAG 10
000987: 26,2022                                           =        161D                                  #
000988: 26,2022                                           =        BIT4                                  #
000989:
000990:                                                                                                  #  BIT 3 FLAG 10
000991: 26,2022                                           =        162D
000992: 26,2022                                           =        BIT3                                  #
000993:
000994:                                                                                                  #  BIT 2 FLAG 10
000995: 26,2022                                           =        163D                                  #
000996: 26,2022                                           =        BIT2                                  #
000997:
000998:                                                                                                  #  BIT 1 FLAG 10
000999: 26,2022                                           =        164D                                  #
001000: 26,2022                                           =        BIT1                                  #
001001:
001002: 26,2022     0107               FLGWRD11           =        STATE      +11D                       #  (165-179)
001003:
001004:                                                                                                  #        (SET)                   (RESET)
001005:
001006:                                                                                                  #  BIT 15 FLAG 11 (L)(R12)
001007: 26,2022                        LRBYPASS           =        165D                                  #        BYPASS ALL LANDING      DO NOT BYPASS LR
001008: 26,2022     4735               LRBYBIT            =        BIT15                                 #        RADAR UPDATES           UPDATES
001009:
001010:                                                                                                  #  BIT 14 FLAG 11
001011: 26,2022                                           =        166D                                  #
001012: 26,2022                                           =        BIT14                                 #
001013:
001014:                                                                                                  #  BIT 13 FLAG 11
001015: 26,2022                                           =        167D                                  #
001016: 26,2022                                           =        BIT13                                 #
001017:
001018:                                                                                                  #  BIT 12 FLAG 11 (L)(R12)
001019: 26,2022                        VXINH              =        168D                                  #        IF Z VELOCITY DATA      UPDATE X AXIS
001020:                                                                                                  #        UNREASONABLE,           VELOCITY
001021: 26,2022     4740               VXINHBIT           =        BIT12                                 #        BYPASS X VELOCITY
001022:                                                                                                  #        UPDATE ON NEXT PASS
001023:


001025:                                                                                                  #  BIT 11 FLAG 11 (L)(R12)
001026: 26,2022                        PSTHIGAT           =        169D                                  #        PAST HIGATE             PREHIGATE
001027: 26,2022     4741               PSTHIBIT           =        BIT11                                 #
001028:
001029:                                                                                                  #  BIT 10 FLAG 11 (L)(R12)
001030: 26,2022                        NOLRREAD           =        170D                                  #        LANDING RADAR           LR NOT REPOSITIONING
001031:                                                                                                  #        REPOSITIONING;
001032: 26,2022     4742               NOLRRBIT           =        BIT10                                 #        BYPASS UPDATE
001033:
001034:                                                                                                  #  BIT 9 FLAG 11 (L)(R12)
001035: 26,2022                        XORFLG             =        171D                                  #        BELOW LIMIT             ABOVE LIMIT DO
001036:                                                                                                  #        INHIBIT X AXIS          NOT INHIBIT
001037: 26,2022     4743               XORFLBIT           =        BIT9                                  #        OVERRIDE
001038:
001039:                                                                                                  #  BIT 8 FLAG 11
001040: 26,2022                        LRINH              =        172D                                  #        LANDING RADAR UP-       LR UPDATES INHIBITED
001041: 26,2022     4744               LRINHBIT           =        BIT8                                  #        DATES PERMITTED         BY ASTRONAUT
001042:                                                                                                  #        BY ASTRONAUT
001043:
001044:                                                                                                  #  BIT 7 FLAG 11 (L)(R12)
001045: 26,2022                        VELDATA            =        173D                                  #        LR VELOCITY             LR VELOCITY MEASURE
001046: 26,2022     4745               VELDABIT           =        BIT7                                  #        MEASUREMENT MADE        NOT MADE
001047:
001048:                                                                                                  #  BIT 6 FLAG 11 (L)(R12)
001049: 26,2022                        LPOS2FLG           =        174D                                  #        USE LR POSITION 2       USE LR POSITION 1
001050: 26,2022     4746               LPOS2BIT           =        BIT6                                  #        TRANSFORMATION          TRANSFORMATION
001051:
001052:                                                                                                  #  BIT 5 FLAG 11 (L)(R12)
001053: 26,2022                        READVEL            =        175D                                  #        OK TO READ LR           DO NOT READ LR
001054: 26,2022     4747               READVBIT           =        BIT5                                  #        VELOCITY DATA           VELOCITY DATA
001055:
001056:                                                                                                  #  BIT 4 FLAG 11 (L)(R12)
001057: 26,2022                        RNGEDATA           =        176D                                  #        LR ALTITUDE             LR ALTITUDE MEASURE
001058: 26,2022     4750               RNGEDBIT           =        BIT4                                  #        MEASUREMENT MADE        NOT MADE
001059:
001060:                                                                                                  #  BIT 3 FLAG 11
001061: 26,2022                        NO511FLG           =        177D                                  #        DO NOT TEST LR          TEST LR ANTENNA
001062: 26,2022     4751               NO511BIT           =        BIT3                                  #        ANTENNA POS IN R12      POS IN R12
001063:
001064:                                                                                                  #  BIT 2 FLAG 11 (L)(R12)
001065: 26,2022                        VFLSHFLG           =        178D                                  #        LR VELOCITY FAIL        LR VEL FAIL LAMP


001067: 26,2022     4752               VFLSHBIT           =        BIT2                                  #        FLASHING
001068:
001069:                                                                                                  #  BIT 1 FLAG 11 (L)(R12)
001070: 26,2022                        HFLSHFLG           =        179D                                  #        LR ALTITUDE FAIL        LR ALTITUDE FAIL
001071: 26,2022     4753               HFLSHBIT           =        BIT1                                  #        LAMP SHOULD BE          LAMP SHOULD NOT BE
001072:                                                                                                  #        FLASHING                FLASHING
001073:
001074: 26,2022     0110               RADMODES           EQUALS   FLGWRD12                              #  RADAR FLAG WORD
001075:
001076: 26,2022     0110               FLGWRD12           =        STATE      +12D                       #  (180-194)
001077:
001078:                                                                                                  #        (SET)                   (RESET)
001079:
001080:                                                                                                  #  BIT 15 FLAG 12
001081: 26,2022                        CDESFLAG           =        180D                                  #        CONTINUOUS DESIG-       LGC CHECKS FOR LOCK-
001082: 26,2022     4735               CDESBIT            =        BIT15                                 #        NATE, LGC COMMANDS      ON WHEN ANTENNA
001083:                                                                                                  #        RR REGARDLESS OF        BEING DESIGNATED
001084:                                                                                                  #        LOCK-ON
001085:
001086:                                                                                                  #  BIT 14 FLAG 12
001087: 26,2022                        REMODFLG           =        181D                                  #        CHANGE IN ANTENNA       NO REMODE REQUESTED
001088: 26,2022     4736               REMODBIT           =        BIT14                                 #        MODE BEEN REQUESTED     OR OCCURRING
001089:                                                                                                  #        I.E., REMODE
001090:
001091:                                                                                                  #  BIT 13 FLAG 12
001092: 26,2022                        RCDU0FLG           =        182D                                  #        RR CDU'S BEING          RR CDU'S NOT BEING
001093: 26,2022     4737               RCDU0BIT           =        BIT13                                 #        ZEROED                  ZEROED
001094:
001095:                                                                                                  #  BIT 12 FLAG 12
001096: 26,2022                        ANTENFLG           =        183D                                  #        RR ANTENNA MODE IS      RR ANTENNA IN MODE 1
001097: 26,2022     4740               ANTENBIT           =        BIT12                                 #        MODE 2
001098:
001099:                                                                                                  #  BIT 11 FLAG 12
001100: 26,2022                        REPOSMON           =        184D                                  #        REPOSITION MONITOR.     NO REPOSITION TAKING
001101: 26,2022     4741               REPOSBIT           =        BIT11                                 #        RR REPOSITION IS        PLACE
001102:                                                                                                  #        TAKING PLACE
001103:
001104:                                                                                                  #  BIT 10 FLAG 12
001105: 26,2022                        DESIGFLG           =        185D                                  #        RR DESIGNATE            RR DESIGNATE NOT
001106: 26,2022     4742               DESIGBIT           =        BIT10                                 #        REQUESTED OR IN         REQUESTED OR IN
001107:                                                                                                  #        PROGRESS                PROGRESS
001108:


001110:                                                                                                  #  BIT 9 FLAG 12
001111: 26,2022                        ALTSCALE           =        186D                                  #        LR ALTITUDE READING     LR ALTITUDE READING
001112: 26,2022     4743               ALTSCBIT           =        BIT9                                  #        IS ON HIGH SCALE        IS ON LOW SCALE
001113:
001114:                                                                                                  #  BIT 8 FLAG 12
001115: 26,2022                        LRVELFLG           =        187D                                  #        LR VELOCITY DATA        NO LR VELOCITY DATA
001116: 26,2022     4744               LRVELBIT           =        BIT8                                  #        FAIL                    FAIL
001117:
001118:                                                                                                  #  BIT 7 FLAG 12
001119: 26,2022                        RCDUFAIL           =        188D                                  #        RR CDU FAIL HAS         RR CDU FAIL OCCURRED
001120: 26,2022     4745               RCDUFBIT           =        BIT7                                  #        NOT OCCURRED
001121:
001122:                                                                                                  #  BIT 6 FLAG 12
001123: 26,2022                        LRPOSFLG           =        189D                                  #        LANDING RADAR           LR POSITION 1
001124: 26,2022     4746               LRPOSBIT           =        BIT6                                  #        POSITION 2
001125:
001126:                                                                                                  #  BIT 5 FLAG 12
001127: 26,2022                        LRALTFLG           =        190D                                  #        LR ALTITUDE DATA        NO LR ALTITUDE DATA
001128: 26,2022     4747               LRALTBIT           =        BIT5                                  #        FAIL.  COULD NOT BE     FAIL
001129:                                                                                                  #        READ SUCCESSFULLY.
001130:
001131:                                                                                                  #  BIT 4 FLAG 12
001132: 26,2022                        RRDATAFL           =        191D                                  #        RR DATA FAIL.           NO RR DATA FAIL
001133: 26,2022     4750               RRDATABT           =        BIT4                                  #        DATA COULD NOT BE
001134:                                                                                                  #        READ SUCCESSFULLY
001135:
001136:                                                                                                  #  BIT 3 FLAG 12
001137: 26,2022                        RRRSFLAG           =        192D                                  #        RR RANGE READING        RR RANGE READING ON
001138: 26,2022     4751               RRRSBIT            =        BIT3                                  #        ON THE HIGH SCALE       THE LOW SCALE
001139:
001140:                                                                                                  #  BIT 2 FLAG 12
001141: 26,2022                        AUTOMODE           =        193D                                  #        RR NOT IN AUTO MODE.    RR IN AUTO MODE
001142: 26,2022     4752               AUTOMBIT           =        BIT2                                  #        AUTO MODE DISCRETE
001143:                                                                                                  #        IS NOT PRESENT
001144:
001145:                                                                                                  #  BIT 1 FLAG 12
001146: 26,2022                        TURNONFL           =        194D                                  #        RR TURN-ON SEQUENCE     NO RR TURN-ON
001147: 26,2022     4753               TURNONBT           =        BIT1                                  #        IN PROGRESS.  (ZERO     SEQUENCE IN PROGRESS
001148:                                                                                                  #        CDU'S, FIX ANTENNA
001149:                                                                                                  #        MODE)
001150:


001152: 26,2022     0111               DAPBOOLS           EQUALS   FLGWRD13                              #  DIGITAL AUTOPILOT FLAGWORD
001153:
001154: 26,2022     0111               FLGWRD13           =        STATE      +13D                       #  (195-209)
001155:
001156:                                                                                                  #        (SET)                   (RESET)
001157:
001158:                                                                                                  #  BIT 15 FLAG 13
001159: 26,2022                        PULSEFLG           =        195D                                  #        MINIMUM IMPUSE          NOT IN MINIMUM
001160: 26,2022     4735               PULSES             =        BIT15                                 #        COMMAND MODE IN         IMPULSE COMMAND MODE
001161:                                                                                                  #        "ATT HOLD" (V76)        (V77)
001162:
001163:                                                                                                  #  BIT 14 FLAG 13
001164: 26,2022                        USEQRFLG           =        196D                                  #        GIMBAL UNUSABLE.        TRIM GIMBAL MAY BE
001165: 26,2022     4736               USEQRJTS           =        BIT14                                 #        USE JETS ONLY.          USED.
001166:
001167:                                                                                                  #  BIT 13 FLAG 13
001168: 26,2022                        CSMDKFLG           =        197D                                  #        CSM DOCKED.  USE        CSM NOT DOCKED TO LM
001169: 26,2022     4737               CSMDOCKD           =        BIT13                                 #        BACKUP DAP
001170:
001171:                                                                                                  #  BIT 12 FLAG 13
001172: 26,2022                        OURRCFLG           =        198D                                  #        CURRENT DAP PASS        CURRENT DAP PASS IS
001173: 26,2022     4740               OURRCBIT           =        BIT12                                 #        IS RATE COMMAND         NOT RATE COMMAND
001174:
001175:                                                                                                  #  BIT 11 FLAG 13
001176: 26,2022                        ACC4-2FL           =        199D                                  #        4 JET X-AXIS TRANS-     2 JET X-AXIS TRANS-
001177: 26,2022     4741               ACC4OR2X           =        BIT11                                 #        LATION REQUESTED        LATION REQUESTED
001178:
001179:                                                                                                  #  BIT 10 FLAG 13
001180: 26,2022                        AORBTFLG           =        200D                                  #        B SYSTEM FOR X-         A SYSTEM FOR X-
001181: 26,2022     4742               AORBTRAN           =        BIT10                                 #        TRANSLATION             TRANSLATION PREFER'D
001182:
001183:                                                                                                  #  BIT 9 FLAG 13
001184: 26,2022                        XOVINFLG           =        201D                                  #        X-AXIS OVERRIDE         X-AXIS OVERRIDE OKAY
001185: 26,2022     4743               XOVINHIB           =        BIT9                                  #        LOCKED OUT
001186:
001187:                                                                                                  #  BIT 8 FLAG 13
001188: 26,2022                        DRIFTDFL           =        202D                                  #        ASSUME 0 OFFSET         USE OFFSET ACCELERA-
001189: 26,2022     4744               DRIFTBIT           =        BIT8                                  #        DRIFTING FLIGHT         ION ESTIMATE
001190:


001192:                                                                                                  #  BIT 7 FLAG 13
001193: 26,2022                        RHCSCFLG           =        203D                                  #        NORMAL RHC SCALING      FINE RHC SCALING
001194: 26,2022     4745               RHCSCALE           =        BIT7                                  #        REQUESTED               REQUESTED
001195:
001196:                                                                                                  #  BIT 6 FLAG 13
001197: 26,2022                        ULLAGFLG           =        204D                                  #        ULLAGE REQUEST BY       NO INTERNAL ULLAGE
001198: 26,2022     4746               ULLAGER            =        BIT6                                  #        MISSION PROGRAM         REQUEST
001199:
001200:                                                                                                  #  BIT 5 FLAG 13
001201: 26,2022                        DBSL2FLG           =        205D                                  #        5 DEG DEADBAND          1 OR .3 DEG DEADBAND
001202: 26,2022     4747               DBSLECT2           =        BIT5                                  #        SELECTED BY CREW        SELECTED BY CREW
001203:                                                                                                  #                                (SEE BIT4 DAPBOOLS)
001204:
001205:                                                                                                  #  BIT 4 FLAG 13
001206: 26,2022                        DBSELFLG           =        206D                                  #        1 DEG DEADBAND          MIN DB SELECTED BY
001207: 26,2022     4750               DBSELECT           =        BIT4                                  #        SELECTED BY CREW        CREW (0.3 DEG)
001208:
001209:                                                                                                  #  BIT 3 FLAG 13
001210: 26,2022                        ACCOKFLG           =        207D                                  #        CONTROL AUTHORITY       RESTART OR FRESH ST.
001211: 26,2022     4751               ACCSOKAY           =        BIT3                                  #        VALUES FROM 1/ACCS      SINCE LAST 1/ACCS;
001212:                                                                                                  #        USABLE                  OUTPUTS SUSPECT.
001213:
001214:                                                                                                  #  BIT 2 FLAG 13
001215: 26,2022                        AUTR2FLG           =        208D                                  #  THESE FLAGS ARE USED TOGETHER TO INDICATE
001216: 26,2022     4752               AUTRATE2           =        BIT2                                  #  ASTRONAUT-CHOSEN KALCMANU MANEUVER RATES
001217:                                                                                                  #  (0,0)=(BIT2,BIT1)=    0.2 DEG/SEC
001218:                                                                                                  #  BIT 1 FLAG 13                                 # (0,1)=                0.5 DEG/SEC
001219: 26,2022                        AUTR1FLG           =        209D                                  #  (1,0)=                2.0 DEG/SEC
001220: 26,2022     4753               AUTRATE1           =        BIT1                                  #  (1,1)=               10.0 DEG/SEC
001221:
001222:

End of include-file FLAGWORD_ASSIGNMENTS.agc.  Parent file is MAIN.agc


