
Source Code
000001:                                                                                                 #  Copyright:     Public domain.
000002:                                                                                                 #  Filename:      FLAGWORD_ASSIGNMENTS.agc
000003:                                                                                                 #  Purpose:       The main source file for Luminary 1C, revision 131.
000004:                                                                                                 #                 It is part of the source code for the Lunar Module's (LM)
000005:                                                                                                 #                 Apollo Guidance Computer (AGC) for Apollo 13 and Apollo 14.
000006:                                                                                                 #  Assembler:     yaYUL
000007:                                                                                                 #  Reference:     pp. 66-93 of 1729.pdf.
000008:                                                                                                 #  Contact:       Ron Burkey <info@sandroid.org>.
000009:                                                                                                 #  Website:       www.ibiblio.org/apollo/index.html
000010:                                                                                                 #  Mod history:   04/23/03 RSB.   Began.
000011:                                                                                                 #                 05/14/05 RSB    Corrected website reference above.
000012:                                                                                                 #                 05/17/09 RSB    Backported some Luminary 099 fixes pointed
000013:                                                                                                 #                                 out by Onno Hommes.
000014:
000015:                                                                                                 #  The contents of the "Luminary131" files, in general, are
000016:                                                                                                 #  transcribed from a scanned document obtained from MIT's website,
000017:                                                                                                 #  http://hrst.mit.edu/hrs/apollo/public/archive/1729.pdf.  Notations on this
000018:                                                                                                 #  document read, in part:
000019:
000020:                                                                                                 #         NASA Apollo LUMINARY 131 (1C) Program Source Code Listing.
000021:                                                                                                 #         MIT Instrumentation/Draper Laboratory -- 19 December 1969, 1742 pages.
000022:                                                                                                 #         This listing contains the flight program for the Lunar Module
000023:                                                                                                 #         as created by MIT's Draper Lab for the Apollo 13/14 moon missions.
000024:
000025:                                                                                                 #  Refer directly to the online document mentioned above for further information.
000026:                                                                                                 #  Please report any errors (relative to 1729.pdf) to info@sandroid.org.
000027:
000028:                                                                                                 #  Page 66
000029:                                                                                                 #  FLAGWORDS 0-11 ARE DOWNLINKED AND CAN BE SET AND CLEARED BY UP-FLAG AND DOWN-FLAG INSTRUCTIONS IN THE
000030:                                                                                                 #                         INTERPRETER.  THESE WERE PREVIOUSLY LISTED UNDER "INTERPRETIVE SWITCH BIT ASSIGNMENTS" IN
000031:                                                                                                 #                         THE ERASABLE LOG SECTION.  FLAGWORDS 12 & 13 WERE PREVIOUSLY RADMODES AND DAPBOOLS AND
000032:                                                                                                 #                         ARE STILL DOWNLINKED UNDER THOSE NAMES.
000033:
000034:                                                                                                 #  ALPHABETICAL LIST OF FLAGWORDS
000035:
000036:                                                                                                 #  9              25              41                      61      COLUMN NO.
000037:                                                                                                 #  FLAGWORD       DEC. NUMBER     BIT AND FLAG            BIT NAME
000038:
000039:                                                                                                 #  ABTTGFLG       143             BIT 7 FLAG 9            ABTTGBIT
000040:                                                                                                 #  ACCOKFLG       207             BIT 3 FLAG 13           ACCSOKAY
000041:                                                                                                 #  ACC4-2FL       199             BIT 11 FLAG 13          ACC4OR2X
000042:                                                                                                 #  ACMODFLG       032             BIT 13 FLAG 2           ACMODBIT
000043:                                                                                                 #  ALTSCALE       186             BIT 9 FLAG 12           ALTSCBIT
000044:                                                                                                 #  ANTENFLG       183             BIT 12 FLAG 12          ANTENBIT
000045:                                                                                                 #  AORBSFLG       085             BIT 5 FLAG 5            AORBSYST
000046:                                                                                                 #  AORBTFLG       200             BIT 10 FLAG 13          AORBTRAN
000047:                                                                                                 #  CDESFLAG       180             BIT 15 FLAG 12          CDESBIT
000048:                                                                                                 #  CMOONFLG       123             BIT 12 FLAG 8           CMOONBIT
000049:                                                                                                 #  COGAFLAG       131             BIT 4 FLAG 8            COGAFBIT
000050:                                                                                                 #  CSMDKFLG       197             BIT 13 FLAG 13          CSMDOCKD
000051:                                                                                                 #  CULTFLAG       053             BIT 7 FLAG 3            CULTBIT
000052:                                                                                                 #  DAPBOOLS                       FLGWRD13
000053:                                                                                                 #  DBSELFLG       206             BIT 4 FLAG 13           DBSELECT
000054:                                                                                                 #  DBSL2FLG       205             BIT 5 FLAG 13           DBSLECT2
000055:                                                                                                 #  DESIGFLG       185             BIT 10 FLAG 12          DESIGBIT
000056:                                                                                                 #  DIDFLAG        016             BIT 14 FLAG ?           DIDFLBIT
000057:                                                                                                 #  DIMOFLAG       059             BIT 1 FLAG 3            DIMOBIT
000058:                                                                                                 #  DMENFLG        081             BIT 9 FLAG 5            DMENFBIT
000059:                                                                                                 #  Page 67
000060:                                                                                                 #  DRIFTDFL       202             BIT 8 FLAG 13           DRIFTBIT
000061:                                                                                                 #  DRIFTFLG       030             BIT 15 FLAG 2           DRFTBIT
000062:                                                                                                 #  DSKYFLAG       075             BIT 15 FLAG 5           DSKYFBIT
000063:                                                                                                 #  D6OR9FLG       058             BIT 2 FLAG 3            D6OR9BIT
000064:                                                                                                 #  ENGONFLG       083             BIT 7 FLAG 5            ENGONBIT
000065:                                                                                                 #  ERADFLAG       017             BIT 13 FLAG 1           ERADFBIT
000066:                                                                                                 #  ETPIFLAG       038             BIT 7 FLAG 2            ETPIBIT
000067:                                                                                                 #  FINALFLG       039             BIT 6 FLAG 2            FINALBIT
000068:                                                                                                 #  FLAGWRD0       (000-014)       (STATE +0)
000069:                                                                                                 #  FLAGWRD1       (015-029)       (STATE +1)
000070:                                                                                                 #  FLAGWRD2       (030-044)       (STATE +2)
000071:                                                                                                 #  FLAGWRD3       (045-059)       (STATE +3)
000072:                                                                                                 #  FLAGWRD4       (060-074)       (STATE +4)
000073:                                                                                                 #  FLAGWRD5       (075-089)       (STATE +5)
000074:                                                                                                 #  FLAGWRD6       (090-104)       (STATE +6)
000075:                                                                                                 #  FLAGWRD7       (105-119)       (STATE +7D)
000076:                                                                                                 #  FLAGWRD8       (120-134)       (STATE +8)
000077:                                                                                                 #  FLAGWRD9       (135-149)       (STATE +9D)
000078:                                                                                                 #  FLAP           142             BIT 8 FLAG 9            FLAPBIT
000079:                                                                                                 #  FLGWRD10       (150-164)       (STATE +10D)
000080:                                                                                                 #  FLGWRD11       (165-179)       (STATE +11D)
000081:                                                                                                 #  FLGWRD12       (180-194)       (STATE +12D)
000082:                                                                                                 #  FLGWRD13       (195-209)       (STATE +13D)
000083:                                                                                                 #  FLPC           138             BIT 12 FLAG 9           FLPCBIT
000084:                                                                                                 #  FLPI           139             BIT 11 FLAG 9           FLPIBIT
000085:                                                                                                 #  FLRCS          149             BIT 10 FLAG 9           FLRCSBIT
000086:                                                                                                 #  FLUNDISP       125             BIT 10 FLAG 8           FLUNDBIT
000087:                                                                                                 #  FLVR           136             BIT 14 FLAG 9           FLVRBIT
000088:                                                                                                 #  FREEFLAG       012             BIT 3 FLAG 0            FREEFBIT
000089:                                                                                                 #  FSPASFLG       005             BIT 10 FLAG 0           FSPASBIT
000090:                                                                                                 #  GLOKFAIL       046             BIT 14 FLAG 3           GLOKFBIT
000091:                                                                                                 #  GMBDRVSW       095             BIT 10 FLAG 6           GMBDRBIT
000092:                                                                                                 #  GUESSW 028             BIT 2 FLAG 1            GUESSBIT
000093:                                                                                                 #  HFLSHFLG       179             BIT 1 FLAG 11           HFLSHBIT
000094:                                                                                                 #  IDLEFLAG       113             BIT 7 FLAG 7            IDLEFBIT
000095:                                                                                                 #  IGNFLAG        107             BIT 13 FLAG 7           IGNFLBIT
000096:                                                                                                 #  IMPULSW        036             BIT 9 FLAG 2            IMPULBIT
000097:                                                                                                 #  IMUSE          007             BIT 8 FLAG 0            IMUSEBIT
000098:                                                                                                 #  INFINFLG       128             BIT 7 FLAG 8            INFINBIT
000099:                                                                                                 #  INITALGN       133             BIT 2 FLAG 8            INITABIT (garbled)
000100:                                                                                                 #  INTFLAG        151             BIT 14 FLAG 10          INTFLBIT (garbled)
000101:                                                                                                 #  INTYPFLG       056             BIT 4 FLAG 3            INTYPBIT (garbled)
000102:                                                                                                 #  ITSWICH        105             BIT 15 FLAG 7           ITSWBIT
000103:                                                                                                 #  Page 68
000104:                                                                                                 #  LRBYPASS       165             BIT 15 FLAG 11          LRBYBIT
000105:                                                                                                 #  LRINH          172             BIT 8 FLAG 11           LRINHBIT
000106:                                                                                                 #  LRPOSFLG       189             BIT 6 FLAG 12           LRPOSBIT
000107:                                                                                                 #  LRVELFLG       187             BIT 8 FLAG 12           LRVELBIT
000108:                                                                                                 #  LUNAFLAG       048             BIT 12 FLAG 3           LUNABIT
000109:                                                                                                 #  MANUFLAG       106             BIT 14 FLAG 7           MANUFBIT
000110:                                                                                                 #  MGLVFLAG       088             BIT 2 FLAG 5            MGLVFBIT
000111:                                                                                                 #  MIDAVFLG       148             BIT 2 FLAG 9            MIDAVBIT
000112:                                                                                                 #  MIDFLAG        002             BIT 13 FLAG 0           MIDFLBIT
000113:                                                                                                 #  MID1FLAG       147             BIT 3 FLAG 9            MID1BIT
000114:                                                                                                 #  MKOVFLAG       072             BIT 3 FLAG 4            MKOVBIT
000115:                                                                                                 #  MOONFLAG       003             BIT 12 FLAG 0           MOONBIT
000116:                                                                                                 #  MRKIDFLG       060             BIT 15 FLAG 4           MRKIDBIT
000117:                                                                                                 #  MRKNVFLG       066             BIT 9 FLAG 4            MRKNVBIT
000118:                                                                                                 #  MRUPTFLG       070             BIT 5 FLAG 4            MRUPTBIT
000119:                                                                                                 #  MUNFLAG        097             BIT 8 FLAG 6            MUNFLBIT
000120:                                                                                                 #  MWAITFLG       064             BIT 11 FLAG 4           MWAITBIT
000121:                                                                                                 #  NEEDLFLG       011             BIT 4 FLAG 0            NEEDLBIT
000122:                                                                                                 #  NEED2FLG       000             BIT 15 FLAG 0           NEED2BIT
000123:                                                                                                 #  NEWIFLG        122             BIT 13 FLAG 8           NEWIBIT
000124:                                                                                                 #  NJETSFLG       015             BIT 15 FLAG ?           NJETSBIT
000125:                                                                                                 #  NODOFLAG       044             BIT 1 FLAG 2            NODOBIT
000126:                                                                                                 #  NOLRREAD       170             BIT 10 FLAG 11          NOLRRBIT
000127:                                                                                                 #  NORMSW 110             BIT 10 FLAG 7           NORMSBIT
000128:                                                                                                 #  NORRMON        086             BIT 4 FLAG 5            NORRMBIT
000129:                                                                                                 #  NOR29FLG       049             BIT 11 FLAG 3           NR29FBIT
000130:                                                                                                 #  NOTHROTL       078             BIT 12 FLAG 5           NOTHRBIT
000131:                                                                                                 #  NOUPFLAG       024             BIT 6 FLAG 1            NOUPFBIT
000132:                                                                                                 #  NO511FLG       177             BIT 3 FLAG 11           NO511BIT
000133:                                                                                                 #  NRMNVFLG       067             BIT 8 FLAG 4            NRMNVBIT
000134:                                                                                                 #  NRMIDFLG       062             BIT 13 FLAG 4           NRMIDBIT
000135:                                                                                                 #  NRUPTFLG       071             BIT 4 FLAG 4            NRUPTBIT
000136:                                                                                                 #  NTARGFLG       102             BIT 3 FLAG 6            NTARGBIT
000137:                                                                                                 #  NWAITFLG       065             BIT 10 FLAG 4           NWAITBIT
000138:                                                                                                 #  OLDESFLG       014             BIT 1 FLAG 0            OLDESBIT
000139:                                                                                                 #  ORBWFLAG       054             BIT 6 FLAG 3            ORBWFBIT
000140:                                                                                                 #  ORDERSW        129             BIT 6 FLAG 8            ORDERBIT
000141:                                                                                                 #  OURRCFLG       198             BIT 12 FLAG 13          OURRCBIT
000142:                                                                                                 #  PDSPFLAG       063             BIT 12 FLAG 4           PDSPFBIT
000143:                                                                                                 #  PFRATFLG       041             BIT 4 FLAG 2            PFRATBIT
000144:                                                                                                 #  PINBRFLG       069             BIT 6 FLAG 4            PINBRBIT
000145:                                                                                                 #  P00HFLAG       045             BIT 15 FLAG 3           P00HBIT
000146:                                                                                                 #  PRECIFLG       052             BIT 8 FLAG 3            PRECIBIT
000147:                                                                                                 #  PRIODFLG       061             BIT 14 FLAG 1           PRIODBIT
000148:                                                                                                 #  PRONVFLG       068             BIT 7 FLAG 4            PRONVBIT
000149:                                                                                                 #  PSTHIGAT       169             BIT 11 FLAG 11          PSTHIBIT
000150:                                                                                                 #  PULSEFLG       195             BIT 15 FLAG 13          PULSES
000151:                                                                                                 #  P21FLAG        004             BIT 11 FLAG 0           P21FLBIT
000152:                                                                                                 #  P25FLAG        006             BIT 9 FLAG 0            P25FLBIT
000153:                                                                                                 #  P7071FLG       137             BIT 13 FLAG 9           P7071BIT
000154:                                                                                                 #  Page 69
000155:                                                                                                 #  QUITFLAG       145             BIT 5 FLAG 9            QUITBIT
000156:                                                                                                 #  RADMODES                       FLGWRD12
000157:                                                                                                 #  RASFLAG                        FLGWRD10
000158:                                                                                                 #  RCDUFAIL       188             BIT 7 FLAG 12           RCDUFBIT
000159:                                                                                                 #  RCDU0FLG       182             BIT 13 FLAG 12          RCDU0BIT
000160:                                                                                                 #  READRFLG       051             BIT 9 FLAG 3            READRBIT        EQUIVALENT FLAG NAME FOR R04FLAG
000161:                                                                                                 #  READVEL        175             BIT 5 FLAG 11           READVBIT
000162:                                                                                                 #  REDFLAG        099             BIT 6 FLAG 6            REDFLBIT
000163:                                                                                                 #  REFSMFLG       047             BIT 13 FLAG 3           REFSMBIT
000164:                                                                                                 #  REINTFLG       158             BIT 7 FLAG 10           REINTBIT
000165:                                                                                                 #  REMODFLG       181             BIT 14 FLAG 12          REMODBIT
000166:                                                                                                 #  RENDWFLG       089             BIT 1 FLAG 5            RENDWBIT
000167:                                                                                                 #  REPOSMON       184             BIT 11 FLAG 12          REPOSBIT
000168:                                                                                                 #  RHCSCFLG       203             BIT 7 FLAG 13           RHCSCALE
000169:                                                                                                 #  RNDVZFLG       008             BIT 7 FLAG 0            RNDVZBIT
000170:                                                                                                 #  RNGEDATA       176             BIT 4 FLAG 11           RNGEDBIT
000171:                                                                                                 #  RNGSCFLG       080             BIT 10 FLAG 5           RNGSCBIT
000172:                                                                                                 #  RODFLAG        018             BIT 12 FLAG 1           RODFLBIT
000173:                                                                                                 #  ROTFLAG        144             BIT 6 FLAG 9            ROTFLBIT
000174:                                                                                                 #  RPQFLAG        120             BIT 15 FLAG 8           RPQFLBIT
000175:                                                                                                 #  RRDATAFL       191             BIT 4 FLAG 12           RRDATABT
000176:                                                                                                 #  RRNBSW 009             BIT 6 FLAG 0            RRNBBIT
000177:                                                                                                 #  RRRSFLAG       192             BIT 3 FLAG 12           RRRSBIT
000178:                                                                                                 #  RVSW           111             BIT 9 FLAG 7            RVSWBIT
000179:                                                                                                 #  R04FLAG        051             BIT 9 FLAG 3            R04FLBIT        EQUIVALENT FLAG NAME:  READRFLG
000180:                                                                                                 #  R10FLAG        013             BIT 2 FLAG 0            R10FLBIT
000181:                                                                                                 #  R61FLAG        020             BIT 10 FLAG 1           R61FLBIT
000182:                                                                                                 #  R77FLAG        079             BIT 11 FLAG 5           R77FLBIT
000183:                                                                                                 #  SLOPESW        027             BIT 3 FLAG 1            SLOPEBIT
000184:                                                                                                 #  SNUFFER        077             BIT 13 FLAG 5           SNUFFBIT
000185:                                                                                                 #  SOLNSW 087             BIT 3 FLAG 5            SOLNSBIT
000186:                                                                                                 #  SRCHOPTN       031             BIT 14 FLAG 2           SRCHOBIT
000187:                                                                                                 #  STATEFLG       055             BIT 5 FLAG 3            STATEBIT
000188:                                                                                                 #  STEERSW        034             BIT 11 FLAG 2           STEERBIT
000189:                                                                                                 #  SURFFLAG       127             BIT 8 FLAG 8            SURFFBIT
000190:                                                                                                 #  SWANDISP       109             BIT 11 FLAG 7           SWANDBIT
000191:                                                                                                 #  S32.1F1        090             BIT 15 FLAG 6           S32BIT1
000192:                                                                                                 #  S32.1F2        091?            BIT 14 FLAG 6           S32BIT2
000193:                                                                                                 #  S32.1F3A       092             BIT 13 FLAG 6           S32BIT3A
000194:                                                                                                 #  S32.1F3B       093             BIT 12 FLAG 6           S32BIT3B
000195:                                                                                                 #  TFFSW          119             BIT 1 FLAG 7            TFFSWBIT
000196:                                                                                                 #  TRACKFLG       025             BIT 5 FLAG 1            TRACKBIT
000197:                                                                                                 #  TURNONFL       194             BIT 1 FLAG 12           TURNONBT
000198:                                                                                                 #  ULLAGFLG       204             BIT 6 FLAG 13           ULLAGER
000199:                                                                                                 #  UPDATFLG       023             BIT 7 FLAG 1            UPDATBIT
000200:                                                                                                 #  UPLOCKFL       116             BIT 4 FLAG 7            UPLOCBIT
000201:                                                                                                 #  USEQRFLG       196             BIT 14 FLAG 13          USEQRJTS
000202:                                                                                                 #  VEHUPFLG       022             BIT 8 FLAG 1            VEHUPBIT
000203:                                                                                                 #  VELDATA        173             BIT 7 FLAG 11           VELDABIT
000204:                                                                                                 #  VERIFLAG       117             BIT 3 FLAG 7            VERIFBIT
000205:                                                                                                 #  Page 70
000206:                                                                                                 #  VFLAG          050             BIT 10 FLAG 3           VFLAGBIT
000207:                                                                                                 #  VFLSHFLG       178             BIT 2 FLAG 11           VFLSHBIT
000208:                                                                                                 #  VINTFLAG       057             BIT 3 FLAG 3            VINTFBIT
000209:                                                                                                 #  VXINH          168             BIT 12 FLAG 11          VXINHBIT
000210:                                                                                                 #  V37FLAG        114             BIT 6 FLAG 7            V37FLBIT
000211:                                                                                                 #  V67FLAG        112             BIT 8 FLAG 7            V67FLBIT
000212:                                                                                                 #  V82EMFLG       118             BIT 2 FLAG 7            V82EMBIT
000213:                                                                                                 #  XDELVFLG       037             BIT 8 FLAG 2            XDELVBIT
000214:                                                                                                 #  XDSPFLAG       074             BIT 1 FLAG 4            XDSPBIT
000215:                                                                                                 #  XORFLG 171             BIT 9 FLAG 11           XORFLBIT
000216:                                                                                                 #  XOVINFLG       201             BIT 9 FLAG 13           XOVINHIB
000217:                                                                                                 #  ZOOMFLAG       082             BIT 8 FLAG 5            ZOOMBIT
000218:                                                                                                 #  3AXISFLG       084             BIT 6 FLAG 5            3AXISBIT
000219:                                                                                                 #  360SW          134             BIT 1 FLAG 8            360SWBIT
000220:
000221:                                                                                                 #  ASSIGNMENT AND DESCRIPTION OF FLAGWORDS
000222:
000223: 26,2022     0074               FLAGWRD0          =        STATE      +0                         #  (000-014)
000224:
000225:                                                                                                 #         (SET)                   (RESET)
000226:
000227:                                                                                                 #  BIT 15 FLAG 0  (S)
000228: 26,2022                        NEED2FLG          =        000D                                  #         DISPLAY DAP RATES       CHECK BIT 4 OF THIS
000229: 26,2022     4735               NEED2BIT          =        BIT15                                 #         ON FDAI NEEDLES.        WORD FOR DISPLAY
000230:                                                                                                 #                         MODES (1 OR 2).
000231:
000232:                                                                                                 #  BIT 1  FLAG 0  (S)
000233: 26,2022                        JSWITCH           =        001D                                  #         INTEGRATION OF W        INTEGRATION OF STATE
000234: 26,2022     4736               JSWCHBIT          =        BIT14                                 #         MATRIX                  VECTOR
000235:
000236:                                                                                                 #  BIT 13 FLAG 0  (S)
000237: 26,2022                        MIDFLAG           =        002D                                  #         INTEGRATION WITH        INTEGRATION WITHOUT
000238:                                                                                                 #         SECONDARY BODY AND      SOLAR PERTURBATIONS
000239: 26,2022     4737               MIDFLBIT          =        BIT13                                 #         SOLAR PERTURBATIONS
000240:
000241:                                                                                                 #  BIT 12 FLAG 0  (L)
000242: 26,2022                        MOONFLAG          =        003D                                  #         MOON IS SPHERE OF       EARTH IS SPHERE OF
000243: 26,2022     4740               MOONBIT           =        BIT12                                 #         INFLUENCE               INFLUENCE
000244:
000245:                                                                                                 #  BIT 11 FLAG 0
000246: 26,2022                        P21FLAG           =        004D                                  #         USE BASE VECTORS        1ST PASS -- CALC-
000247: 26,2022     4741               P21FLBIT          =        BIT11                                 #         ALREADY CALCULATED      ULATE BASE VECTORS
000248:
000249:                                                                                                 #  Page 71
000250:                                                                                                 #  BIT 10 FLAG 0
000251: 26,2022                        FSPASFLG          =        005D                                  #         FIRST PASS THROUGH      NOT FIRST PASS THRU
000252: 26,2022     4742               FSPASBIT          =        BIT10                                 #         REPOSITION ROUTINE      REPOSITION ROUTINE
000253:
000254:                                                                                                 #  BIT 9 FLAG 0   (S)
000255: 26,2022                        P25FLAG           =        006D                                  #         P25 OPERATING           P25 NOT OPERATING
000256: 26,2022     4743               P25FLBIT          =        BIT9
000257:
000258:                                                                                                 #  BIT 8 FLAG 0   (S)
000259: 26,2022                        IMUSE             =        007D                                  #         IMU IN USE              IMU NOT IN USE
000260: 26,2022     4744               IMUSEBIT          =        BIT8
000261:
000262:                                                                                                 #  BIT 7 FLAG 0   (S)
000263: 26,2022                        RNDVZFLG          =        008D                                  #         P20 RUNNING (RADAR      P20 NOT RUNNING
000264: 26,2022     4745               RNDVZBIT          =        BIT7                                  #         IN USE)
000265:
000266:                                                                                                 #  BIT 6 FLAG 0   (S)
000267: 26,2022                        RRNBSW            =        009D                                  #         RADAR TARGET IN RADAR TARGET IN
000268: 26,2022     4746               RRNBBIT           =        BIT6                                  #         NB COORDINATES  SM COORDINATES
000269:
000270:                                                                                                 #  BIT 5 FLAG 0   (S)
000271: 26,2022                        LOKONSW           =        010D                                  #         RADAR LOCK-ON           RADAR LOCK-ON NOT
000272: 26,2022     4747               LOKONBIT          =        BIT5                                  #         DESIRED                 DESIRED
000273:
000274:                                                                                                 #  BIT 4 FLAG 0   (S)
000275: 26,2022                        NEEDLFLG          =        011D                                  #         TOTAL ATTITUDE  A/P FOLLOWING
000276: 26,2022     4750               NEEDLBIT          =        BIT4                                  #         ERROR DISPLAYED ERROR DISPLAYED
000277:
000278:                                                                                                 #  BIT 3 FLAG 0
000279: 26,2022                        FREEFLAG          =        012D                                  #  (USED BY P51-53 TEMP IN MANY DIFFERENT
000280:                                                                                                 #  ROUTINES & BY LUNAR * SOLAR EPHEMERIDES)
000281: 26,2022     4751               FREEFBIT          =        BIT3
000282:
000283:                                                                                                 #  BIT 2 FLAG 0
000284: 26,2022                        R10FLAG           =        013D                                  #         R10 OUTPUTS DATA TO     BESIDES OUTPUT WHEN
000285: 26,2022     4752               R10FLBIT          =        BIT2                                  #         ALTITUDE & ALTITUDE     SET, R10 ALSO OUTPUT
000286:                                                                                                 #         RATE METERS ONLY        TO FORWARD & LATERAL
000287:                                                                                                 #                                 VELOCITY CROSSPOINTER
000288:
000289:                                                                                                 #  BIT 1 FLAG 0   (L)
000290: 26,2022                        OLDESFLG          =        014D                                  #         R29 GYRO CMD LOOP       R29 GYRO CMD LOOP
000291:                                                                                                 #  Page 72
000292: 26,2022     4753               OLDESBIT          =        BIT1                                  #         REQUESTED               NOT REQUESTED
000293:
000294: 26,2022     0075               FLAGWRD1          =        STATE      +1                         #  (015-029)
000295:
000296:                                                                                                 #         (SET)                   (RESET)
000297:
000298:                                                                                                 #  BIT 15 FLAG 1  (S)
000299: 26,2022                        NJETSFLG          =        015D                                  #         TWO JET RCS BURN        FOUR JET RCS BURN
000300: 26,2022     4735               NJETSBIT          =        BIT15
000301:
000302:                                                                                                 #  BIT 14 FLAG 1  (L)
000303: 26,2022                        DIDFLAG           =        016D                                  #         INERTIAL DATA IS        PERFORM DATA DISPLAY
000304: 26,2022     4736               DIDFLBIT          =        BIT14                                 #         AVAILABLE               INITIALIZATION FUNCS
000305:
000306:                                                                                                 #  BIT 13 FLAG 1  (S)
000307: 26,2022                        ERADFLAG          =        017D                                  #         COMPUTE REARTH          USE CONSTANT REARTH
000308: 26,2022     4737               ERADFBIT          =        BIT13                                 #         FISCHER ELLIPSOID       PAD RADIUS
000309:
000310:                                                                                                 #  BIT 12 FLAG 1
000311: 26,2022                        RODFLAG           =        018D                                  #         IF IN P66, NORMAL       IF IN P66, RE-INIT-
000312: 26,2022     4740               RODFLBIT          =        BIT12                                 #         OPERATION CONTINUES.    IALIZATION IS PER-
000313:                                                                                                 #         RESTART CLEARS FLAG     FORMED AND FLAG IS
000314:
000315:                                                                                                 #  BIT 11 FLAG 1
000316: 26,2022                                          =        019D
000317: 26,2022                                          =        BIT11
000318:
000319:                                                                                                 #  BIT 10 FLAG 1  (L)
000320: 26,2022                        R61FLAG           =        020D                                  #         RUN R61 LEM             RUN R65 LEM
000321: 26,2022     4742               R61FLBIT          =        BIT10
000322:
000323:                                                                                                 #  BIT 9 FLAG 1
000324: 26,2022                                          =        021D
000325: 26,2022                                          =        BIT9
000326:
000327:                                                                                                 #  BIT 8 FLAG 1   (S)
000328: 26,2022                        VEHUPFLG          =        022D                                  #         CSM STATE-VECTOR        LEM STATE VECTOR
000329: 26,2022     4744               VEHUPBIT          =        BIT8                                  #         BEING UPDATED           BEING UPDATED
000330:
000331:                                                                                                 #  BIT 7 FLAG 1   (S)
000332: 26,2022                        UPDATFLG          =        023D                                  #         UPDATING BY MARKS       UPDATING BY MARKS
000333: 26,2022     4745               UPDATBIT          =        BIT7                                  #         ALLOWED                 NOT ALLOWED
000334:
000335:                                                                                                 #  Page 73
000336:                                                                                                 #  BIT 6 FLAG 1   (S)
000337: 26,2022                        NOUPFLAG          =        024D                                  #         NEITHER CSM             EITHER STATE
000338:                                                                                                 #         NOR LM STATE VECTOR     VECTOR MAY BE
000339: 26,2022     4746               NOUPFBIT          =        BIT6                                  #         MAY BE UPDATED          UPDATED
000340:
000341:                                                                                                 #  BIT 5 FLAG 1   (S)
000342: 26,2022                        TRACKFLG          =        025D                                  #         TRACKING ALLOWED        TRACKING NOT ALLOWED
000343: 26,2022     4747               TRACKBIT          =        BIT5
000344:
000345:                                                                                                 #  BIT 4 FLAG 1
000346: 26,2022                                          =        026D
000347: 26,2022                                          =        BIT4
000348:
000349:                                                                                                 #  BIT 3 FLAG 1   (S)
000350: 26,2022                        SLOPESW           =        027D                                  #         ITERATE WITH BIAS       ITERATE WITH REGULAR
000351:                                                                                                 #         METHOD IN ITERATOR      FALSI METHOD IN
000352: 26,2022     4751               SLOPEBIT          =        BIT3                                  #                                 ITERATOR
000353:
000354:                                                                                                 #  BIT 2 FLAG 1   (S)
000355: 26,2022                        GUESSW            =        028D                                  #         NO STARTING VALUE       STARTING VALUE FOR
000356: 26,2022     4752               GUESSBIT          =        BIT2                                  #         FOR ITERATION           ITERATION EXISTS
000357:
000358:                                                                                                 #  BIT 1 FLAG 1
000359: 26,2022                                          =        029D
000360: 26,2022                                          =        BIT1
000361:
000362: 26,2022     0076               FLAGWRD2          =        STATE      +2                         #  (030-044)
000363:
000364:                                                                                                 #         (SET)                   (RESET)
000365:
000366:                                                                                                 #  BIT 15 FLAG 2  (S)
000367: 26,2022                        DRIFTFLG          =        030D                                  #         T3RUPT CALLS GYRO       T3RUPT DOES NO GYRO
000368: 26,2022     4735               DRFTBIT           =        BIT15                                 #         COMPENSATION            COMPENSATION
000369:
000370:                                                                                                 #  BIT 14 FLAG 2  (S)
000371: 26,2022                        SRCHOPTN          =        031D                                  #         RADAR IN AUTOMATIC      RADAR NOT IN AUTO-
000372: 26,2022     4736               SRCHOBIT          =        BIT14                                 #         SEARCH OPTION (R24)     MATIC SEARCH OPTION
000373:
000374:                                                                                                 #  BIT 13 FLAG 2  (S)
000375: 26,2022                        ACMODFLG          =        032D                                  #         MANUAL ACQUISITION      AUTO ACQUISITION
000376: 26,2022     4737               ACMODBIT          =        BIT13                                 #         BY RENDEZVOUS RADAR     BY RENDEZVOUS RADAR
000377:
000378:                                                                                                 #  Page 74
000379:                                                                                                 #  BIT 12 FLAG 2 (S)
000380: 26,2022                        LOSCMFLG          =        033D                                  #         LINE OF SIGHT BEING     LINE OF SIGHT NOT
000381:                                                                                                 #         COMPUTED (R21)          BEING COMPUTED
000382: 26,2022     4740               LOSCMBIT          =        BIT12
000383:
000384:                                                                                                 #  BIT 11 FLAG 2 (S)
000385: 26,2022                        STEERSW           =        034D                                  #         SUFFICIENT THRUST       INSUFFICIENT THRUST
000386: 26,2022     4741               STEERBIT          =        BIT11                                 #         IS PRESENT              IS PRESENT
000387:
000388:                                                                                                 #  BIT 10 FLAG 2 (S)
000389: 26,2022                                          =        035D
000390: 26,2022                                          =        BIT10
000391:
000392:                                                                                                 #  BIT 9 FLAG 2 (S)
000393: 26,2022                        IMPULSW           =        036D                                  #         MINIMUM IMPULSE         STEERING BURN (NO
000394:                                                                                                 #         BURN (CUTOFF TIME       CUTOFF TIME YET
000395: 26,2022     4743               IMPULBIT          =        BIT9                                  #         SPECIFIED)              AVAILABLE)
000396:
000397:                                                                                                 #  BIT 8 FLAG 2 (S)
000398: 26,2022                        XDELVFLG          =        037D                                  #         EXTERNAL DELTAV VG      LAMBERT (AIMPOINT)
000399: 26,2022     4744               XDELVBIT          =        BIT8                                  #         COMPUTATION             VG COMPUTATION
000400:
000401:                                                                                                 #  BIT 7 FLAG 2 (S)
000402: 26,2022                        ETPIFLAG          =        038D                                  #         ELEVATION ANGLE         TPI TIME SUPPLIED
000403:                                                                                                 #         SUPPLIED FOR            FOR P34,74 TO COMPUTE
000404: 26,2022     4745               ETPIBIT           =        BIT7                                  #         P34,74                  ELEVATION
000405:
000406:                                                                                                 #  BIT 6 FLAG 2 (S)
000407: 26,2022                        FINALFLG          =        039D                                  #         LAST PASS THROUGH       INTERIM PASS THROUGH
000408:                                                                                                 #         RENDEZVOUS PROGRAM      RENDEZVOUS PROGRAM
000409: 26,2022     4746               FINALBIT          =        BIT6                                  #         COMPUTATIONS            COMPUTATIONS
000410:
000411:                                                                                                 #  BIT 5 FLAG 2 (S)
000412: 26,2022                        AVFLAG            =        040D                                  #         LEM IS ACTIVE           CSM IS ACTIVE
000413: 26,2022     4747               AVFLBIT           =        BIT5                                  #         VEHICLE                 VEHICLE
000414:
000415:                                                                                                 #  BIT 4 FLAG 2 (S)
000416: 26,2022                        PFRATFLG          =        041D                                  #         PREFERRED ATTITUDE      PREFERRED ATTITUDE
000417: 26,2022     4750               PFRATBIT          =        BIT4                                  #         COMPUTED                NOT COMPUTED
000418:
000419:                                                                                                 #  Page 75
000420:                                                                                                 #  BIT 3 FLAG 2 (S)
000421: 26,2022                        CALCMAN3          =        042D                                  #         NO FINAL ROLL           FINAL ROLL IS
000422: 26,2022     4751               CALC3BIT          =        BIT3                                  #                                 NECESSARY
000423:
000424:                                                                                                 #  BIT 2 FLAG 2 (S)
000425: 26,2022                        CALCMAN2          =        043D                                  #         PERFORM MANEUVER        BYPASS STARTING
000426: 26,2022     4752               CALC2BIT          =        BIT2                                  #         STARTING PROCEDURE      PROCEDURE
000427:
000428:                                                                                                 #  BIT 1 FLAG 2 (S)
000429: 26,2022                        NODOFLAG          =        044D                                  #         V37 NOT PERMITTED       V37 PERMITTED
000430: 26,2022     4753               NODOBIT           =        BIT1
000431:
000432: 26,2022     0077               FLAGWRD3          =        STATE      +3                         #  (045-059)
000433:
000434:                                                                                                 #         (SET)                   (RESET)
000435:
000436:                                                                                                 #  BIT 15 FLAG 3
000437: 26,2022                        P00HFLAG          =        045D                                  #         INHIBIT BACKWARDS       ALLOW BACKWARDS
000438: 26,2022     4735               P00HBIT           =        BIT15                                 #         INTEGRATION             INTEGRATION
000439:
000440:                                                                                                 #  BIT 14 FLAG 3  (S)
000441: 26,2022                        GLOKFAIL          =        046D                                  #         GIMBAL LOCK HAS         NOT IN GIMBAL LOCK
000442: 26,2022     4736               GLOKFBIT          =        BIT14                                 #         OCCURRED
000443:
000444:                                                                                                 #  BIT 13 FLAG 3  *** PROTECTED FROM FRESH START ***
000445: 26,2022                        REFSMFLG          =        047D                                  #         REFSMMAT GOOD           REFSMMAT NO GOOD
000446: 26,2022     4737               REFSMBIT          =        BIT13
000447:
000448:                                                                                                 #  BIT 12 FLAG 3  (S)
000449: 26,2022                        LUNAFLAG          =        048D                                  #         LUNAR LAT-LONG          EARTH LAT-LONG
000450: 26,2022     4740               LUNABIT           =        BIT12
000451:
000452:                                                                                                 #  BIT 11 FLAG 3  (L)
000453: 26,2022                        NOR29FLG          =        049D                                  #         R29 NOT ALLOWED         R29 ALLOWED (RR DES-
000454: 26,2022     4741               NR29FBIT          =        BIT11                                 #                                 IGNATED POWERED FLT)
000455:
000456:                                                                                                 #  BIT 10 FLAG 3  (S)
000457: 26,2022                        VFLAG             =        050D                                  #         LESS THAN TWO STARS     TWO STARS IN FIELD
000458: 26,2022     4742               VFLAGBIT          =        BIT10                                 #         IN FIELD OF VIEW        OF VIEW
000459:
000460:                                                                                                 #  BIT 9 FLAG 3   (S)
000461:                                                                                                 #  Page 76
000462: 26,2022                        R04FLAG           =        051D                                  #         ALARM 521               ALARM 521 ALLOWED
000463:                                                                                                 #         SUPPRESSED
000464: 26,2022     4743               R04FLBIT          =        BIT9
000465: 26,2022  0000063               READRFLG          =        R04FLAG                               #         READING RR DATA         NOT READING RR DATA
000466: 26,2022     4743               READRBIT          =        BIT9                                  #         PURSUANT TO R29         PURSUANT TO R29
000467:
000468:                                                                                                 #  BIT 8 FLAG 3   (S)
000469: 26,2022                        PRECIFLG          =        052D                                  #         NORMAL INTEGRATION      ENGAGES 4-TIME STEP
000470:                                                                                                 #         IN P00                  (P00) LOGIC IN INTE-
000471: 26,2022     4744               PRECIBIT          =        BIT8                                  #                                 GRATION
000472:
000473:                                                                                                 #  BIT 7 FLAG 3   (S)
000474: 26,2022                        CULTFLAG          =        053D                                  #         STAR OCCULTED           STAR NOT OCCULTED
000475: 26,2022     4745               CULTBIT           =        BIT7
000476:
000477:                                                                                                 #  BIT 6 FLAG 3   (S)
000478: 26,2022                        ORBWFLAG          =        054D                                  #         W MATRIX VALID FOR      W MATRIX INVALID FOR
000479: 26,2022     4746               ORBWFBIT          =        BIT6                                  #         ORBITAL NAVIGATION      ORBITAL NAVIGATION
000480:
000481:                                                                                                 #  BIT 5 FLAG 3   (S)
000482: 26,2022                        STATEFLG          =        055D                                  #         PERMANENT STATE         PERMANENT STATE
000483: 26,2022     4747               STATEBIT          =        BIT5                                  #         VECTOR UPDATED          VECTOR NOT UPDATED
000484:
000485:                                                                                                 #  BIT 4 FLAG 3   (S)
000486: 26,2022                        INTYPFLG          =        056D                                  #         CONIC INTEGRATION       ENCKE INTEGRATION
000487: 26,2022     4750               INTYPBIT          =        BIT4
000488:
000489:                                                                                                 #  BIT 3 FLAG 3   (S)
000490: 26,2022                        VINTFLAG          =        057D                                  #         CSM STATE VECTOR        LEM STATE VECTOR
000491: 26,2022     4751               VINTFBIT          =        BIT3                                  #         BEING INTEGRATED        BEING INTEGRATED
000492:
000493:                                                                                                 #  BIT 2 FLAG 3 (S)
000494: 26,2022                        D6OR9FLG          =        058D                                  #         DIMENSION OF W IS 9     DIMENSION OF W IS 6
000495: 26,2022     4752               D6OR9BIT          =        BIT2                                  #         FOR INTEGRATION         FOR INTEGRATION
000496:
000497:                                                                                                 #  BIT 1 FLAG 3   (S)
000498: 26,2022                        DIM0FLAG          =        059D                                  #         W MATRIX IS TO BE       W MATRIX IS NOT TO
000499: 26,2022     4753               DIM0BIT           =        BIT1                                  #         USED                    USED
000500:
000501:                                                                                                 #  Page 77
000502: 26,2022     0100               FLAGWRD4          =        STATE      +4                         #  (060-074)
000503:
000504:                                                                                                 #         (SET)                   (RESET)
000505:
000506:                                                                                                 #  BIT 15 FLAG 4  (S)
000507: 26,2022                        MRKIDFLG          =        060D                                  #         MARK DISPLAY IN         NO MARK DISPLAY IN
000508: 26,2022     4735               MRKIDBIT          =        BIT15                                 #         ENDIDLE                 ENDIDLE
000509:
000510:                                                                                                 #  BIT 14 FLAG 4  (S)
000511: 26,2022                        PRIODFLG          =        061D                                  #         PRIORITY DISPLAY IN     NO PRIORITY DISPLAY
000512: 26,2022     4736               PRIODBIT          =        BIT14                                 #         ENDIDLE                 IN ENDIDLE
000513:
000514:                                                                                                 #  BIT 13 FLAG 4  (S)
000515: 26,2022                        NRMIDFLG          =        062D                                  #         NORMAL DISPLAY IN       NO NORMAL DISPLAY
000516: 26,2022     4737               NRMIDBIT          =        BIT13                                 #         ENDIDLE                 IN ENDIDLE
000517:
000518:                                                                                                 #  BIT 12 FLAG 4 (S)
000519: 26,2022                        PDSPFLAG          =        063D                                  #         P20 SETS SO AS TO       LEAVE AS NORMAL DISP
000520:                                                                                                 #         TURN A NORMAL DIS-
000521: 26,2022     4740               PDSPFBIT          =        BIT12                                 #         PLAY INTO A PRIORITY
000522:                                                                                                 #         DISPLAY IN R60
000523:
000524:                                                                                                 #  BIT 11 FLAG 4 (S)
000525: 26,2022                        MWAITFLG          =        064D                                  #         HIGHER PRIORITY         NO HIGHER PRIORITY
000526:                                                                                                 #         DISPLAY OPERATING       DISPLAY OPERATING
000527: 26,2022     4741               MWAITBIT          =        BIT11                                 #         WHEN MARK               WHEN MARK DISPLAY
000528:                                                                                                 #         DISPLAY INITIATED       INITIATED
000529:
000530:                                                                                                 #  BIT 10 FLAG 4 (S)
000531: 26,2022                        NWAITFLG          =        065D                                  #         HIGHER PRIORITY         NO HIGHER PRIORITY
000532:                                                                                                 #         DISPLAY OPERATING       DISPLAY OPERATING
000533: 26,2022     4742               NWAITBIT          =        BIT10                                 #         WHEN NORMAL             WHEN NORMAL DISPLAY
000534:                                                                                                 #         DISPLAY INITIATED       INITIATED
000535:
000536:                                                                                                 #  BIT 9 FLAG 4   (S)
000537: 26,2022                        MRKNVFLG          =        066D                                  #         ASTRONAUT USING         ASTRONAUT NOT USING
000538:                                                                                                 #         KEYBOARD WHEN MARK      KEYBOARD WHEN MARK
000539: 26,2022     4743               MRKNVBIT          =        BIT9                                  #         DISPLAY INITIATED       DISPLAY INITIATED
000540:
000541:                                                                                                 #  BIT 8 FLAG 4   (S)
000542: 26,2022                        NRMNVFLG          =        067D                                  #         ASTRONAUT USING         ASTRONAUT NOT USING
000543:                                                                                                 #         KEYBOARD WHEN           KEYBOARD WHEN
000544: 26,2022     4744               NRMNVBIT          =        BIT8                                  #         NORMAL DISPLAY          NORMAL DISPLAY
000545:                                                                                                 #         INITIATED               INITIATED
000546:
000547:                                                                                                 #  Page 78
000548:                                                                                                 #  BIT 7 FLAG 4   (S)
000549: 26,2022                        PRONVFLG          =        068D                                  #         ASTRONAUT USING         ASTRONAUT NOT USING
000550:                                                                                                 #         KEYBOARD WHEN           KEYBOARD WHEN
000551: 26,2022     4745               PRONVBIT          =        BIT7                                  #         PRIORITY DISPLAY        PRIORITY DISPLAY
000552:                                                                                                 #         INITIATED               INITIATED
000553:
000554:                                                                                                 #  BIT 6 FLAG 4   (S)
000555: 26,2022                        PINBRFLG          =        069D                                  #         ASTRONAUT HAS           ASTRONAUT HAS NOT
000556:                                                                                                 #         INTERFERED WITH         INTERFERED WITH
000557: 26,2022     4746               PINBRBIT          =        BIT6                                  #         EXISTING DISPLAY        EXISTING DISPLAY
000558:
000559:                                                                                                 #  BIT 5 FLAG 4   (S)
000560: 26,2022                        MRUPTFLG          =        070D                                  #         MARK DISPLAY            MARK DISPLAY NOT
000561:                                                                                                 #         INTERRUPTED BY          INTERRUPTED BY
000562: 26,2022     4747               MRUPTBIT          =        BIT5                                  #         PRIORITY DISPLAY        PRIORITY DISPLAY
000563:
000564:                                                                                                 #  BIT 4 FLAG 4   (S)
000565: 26,2022                        NRUPTFLG          =        071D                                  #         NORMAL DISPLAY          NORMAL DISPLAY NOT
000566:                                                                                                 #         INTERRUPTED BY          INTERRUPTED BY
000567: 26,2022     4750               NRUPTBIT          =        BIT4                                  #         PRIORITY OR MARK        PRIORITY OR MARK
000568:                                                                                                 #         DISPLAY                 DISPLAY
000569:
000570:                                                                                                 #  BIT 3 FLAG 4   (S)
000571: 26,2022                        MKOVFLAG          =        072D                                  #         MARK DISPLAY OVER       NO MARK DISPLAY OVER
000572: 26,2022     4751               MKOVBIT           =        BIT3                                  #         NORMAL                  NORMAL
000573:
000574:                                                                                                 #  BIT 2 FLAG 4
000575: 26,2022                                          =        073D
000576: 26,2022                                          =        BIT2
000577:
000578:                                                                                                 #  BIT 1 FLAG 4   (S)
000579: 26,2022                        XDSPFLAG          =        074D                                  #         MARK DISPLAY NOT        NO SPECIAL MARK
000580: 26,2022     4753               XDSPBIT           =        BIT1                                  #         TO BE INTERRUPTED       INFORMATION
000581:
000582: 26,2022     0101               FLAGWRD5          =        STATE      +5                         #  (075-089)
000583:
000584:                                                                                                 #         (SET)                   (RESET)
000585:
000586:                                                                                                 #  BIT 15 FLAG 5  (S)
000587: 26,2022                        DSKYFLAG          =        075D                                  #         DISPLAYS SENT TO        NO DISPLAYS TO DSKY
000588: 26,2022     4735               DSKYFBIT          =        BIT15                                 #         DSKY
000589:
000590:                                                                                                 #  BIT 14 FLAG 5
000591: 26,2022                                          =        076D
000592: 26,2022                                          =        BIT14
000593:
000594:                                                                                                 #  Page 79
000595:                                                                                                 #  BIT 13 FLAG 5  (S,L)
000596: 26,2022                        SNUFFER           =        077D                                  #         U,V JETS DISABLED       U,V JETS ENABLED
000597:                                                                                                 #         DURING DPS              DURING DPS
000598: 26,2022     4737               SNUFFBIT          =        BIT13                                 #         BURNS (V65)             BURNS (V75)
000599:
000600:                                                                                                 #  BIT 12 FLAG 5  (S)
000601: 26,2022                        NOTHROTL          =        078D                                  #         INHIBIT FULL            PERMIT FULL THROTTLE
000602: 26,2022     4740               NOTHRBIT          =        BIT12                                 #         THROTTLE
000603:
000604:                                                                                                 #  BIT 11 FLAG 5  (S,L)
000605: 26,2022                        R77FLAG           =        079D                                  #         R77 IS ON,              R77 IS NOT ON.
000606:                                                                                                 #         SUPPRESS ALL RADAR
000607:                                                                                                 #         ALARMS AND TRACKER
000608: 26,2022     4741               R77FLBIT          =        BIT11                                 #         FAILS
000609:
000610:                                                                                                 #  BIT 10 FLAG 5  (S)
000611: 26,2022                        RNGSCFLG          =        080D                                  #         SCALE CHANGE HAS        NO SCALE CHANGE HAS
000612:                                                                                                 #         OCCURRED DURING         OCCURRED DURING
000613: 26,2022     4742               RNGSCBIT          =        BIT10                                 #         RR READING              RR READING
000614:
000615:                                                                                                 #  BIT 9 FLAG 5   (S)
000616: 26,2022                        DMENFLG           =        081D                                  #         DIMENSION OF W IS 9     DIMENSION OF W IS 6
000617: 26,2022     4743               DMENFBIT          =        BIT9                                  #         FOR INCORPORATION       FOR INCORPORATION
000618:
000619:                                                                                                 #  BIT 8 FLAG 5   (S)
000620: 26,2022                        ZOOMFLAG          =        082D                                  #         THROTTLE-UP HAS         THROTTLE-UP HAS NOT
000621: 26,2022     4744               ZOOMBIT           =        BIT8                                  #         OCCURRED IN P63.        YET OCCURRED IN P63
000622:
000623:                                                                                                 #  BIT 7 FLAG 5   (S)
000624: 26,2022                        ENGONFLG          =        083D                                  #         ENGINE TURNED ON        ENGINE TURNED OFF
000625: 26,2022     4745               ENGONBIT          =        BIT7                                  #
000626:
000627:                                                                                                 #  BIT 6 FLAG 5   (S)
000628: 26,2022                        3AXISFLG          =        084D                                  #         MANEUVER SPECIFIED      MANEUVER SPECIFIED
000629:                                                                                                 #         BY THREE AXES           BY ONE AXIS; R60
000630: 26,2022     4746               3AXISBIT          =        BIT6                                  #                                 CALLS VECPOINT.
000631:
000632:                                                                                                 #  BIT 5 FLAG 5
000633: 26,2022                        AORBSFLG          =        085D                                  #         PREFER PAXIS JET        PREFER PAXIS JET
000634: 26,2022     4747               AORBSYST          =        BIT5                                  #         PAIRS 7,15 AND 8.16     PAIRS 4,12 AND 3,11
000635:
000636:                                                                                                 #  Page 80
000637:                                                                                                 #  BIT 4 FLAG 5   (S)
000638: 26,2022                        NORRMON           =        086D                                  #         BYPASS RR GIMBAL        PERFORM
000639: 26,2022     4750               NORRMBIT          =        BIT4                                  #         MONITOR                 RR GIMBAL MONITOR
000640:
000641:                                                                                                 #  BIT 3 FLAG 5   (S)
000642: 26,2022                        SOLNSW            =        087D                                  #         LAMBERT DOES NOT        LAMBERT CONVERGES OR
000643:                                                                                                 #         CONVERGE, OR TIME-RAD   TIME-RADIUS NON-
000644: 26,2022     4751               SOLNSBIT          =        BIT3                                  #         NEARLY CIRCULAR         CIRCULAR
000645:
000646:                                                                                                 #  BIT 2 FLAG 5   (S)
000647: 26,2022                        MGLVFLAG          =        088D                                  #         LOCAL VERTICAL          MIDDLE GIMBAL ANGLE
000648:                                                                                                 #         COORDINATES             COMPUTED
000649: 26,2022     4752               MGLVFBIT          =        BIT2                                  #         COMPUTED
000650:
000651:                                                                                                 #  BIT 1 FLAG 5   (S)
000652: 26,2022                        RENDWFLG          =        089D                                  #         W MATRIX VALID          W MATRIX INVALID
000653:                                                                                                 #         FOR RENDEZVOUS          FOR RENDEZVOUS
000654: 26,2022     4753               RENDWBIT          =        BIT1                                  #         NAVIGATION              NAVIGATION
000655:
000656: 26,2022     0102               FLAGWRD6          =        STATE      +6                         #  (090-104)
000657:
000658:                                                                                                 #         (SET)                   (RESET)
000659:
000660:                                                                                                 #  BIT 15 FLAG 6  (S)
000661: 26,2022                        S32.1F1           =        090D                                  #         DELTA V AT CSI TIME     DVT1 LESS THAN MAX
000662: 26,2022     4735               S32BIT1           =        BIT15                                 #         ONE EXEEDS MAX
000663:
000664:                                                                                                 #  BIT 14 FLAG 6  (S)
000665: 26,2022                        S32.1F2           =        091D                                  #         FIRST PASS OF           REITERATION OF
000666: 26,2022     4736               S32BIT2           =        BIT14                                 #         NEWTON ITERATION        NEWTON
000667:
000668:                                                                                                 #  BIT 13 FLAG 6  (S)
000669: 26,2022                        S32.1F3A          =        092D                                  #  BIT 13 AND BIT 12 FUNCTION AS AN ORDERED
000670: 26,2022     4737               S32BIT3A          =        BIT13                                 #  PAIR (13,12) INDICATING THE POSSIBLE OC-
000671:                                                                                                 #  CURRENCE OF 2 NEWTON ITERATIONS FOR S32.1
000672:                                                                                                 #  IN THE PROGRAM IN THE FOLLOWING ORDER:
000673:                                                                                                 #  BIT 12 FLAG 6  (S)                             # (0,1) (I.E. BIT 13 RESET, BIT 12 SET)
000674: 26,2022                        S32.1F3B          =        093D                                  #       = FIRST NEWTON ITERATION BEING DONE
000675: 26,2022     4740               S32BIT3B          =        BIT12                                 #  (0,0)= FIRST PASS OF SECOND NEWTON ITERATION
000676:                                                                                                 #  (1,1)= 50 FT/SEC STAGE OF SECOND NEWTON ITERATION
000677:                                                                                                 #  (1,0)= REMAINDER OF SECOND NEWTON ITERATION
000678:
000679:                                                                                                 #  Page 81
000680:                                                                                                 #  BIT 11 FLAG 6  (S)
000681: 26,2022                                          =        094D                                  #
000682: 26,2022                                          =        BIT11                                 #
000683:
000684:                                                                                                 #  BIT 10 FLAG 6  (S)
000685: 26,2022                        GMBDRVSW          =        095D                                  #         TRIMGIMB OVER           TRIMGIMB NOT OVER
000686: 26,2022     4742               GMBDRBIT          =        BIT10                                 #
000687:
000688:                                                                                                 #  BIT 9 FLAG 6
000689: 26,2022                                          =        096D
000690: 26,2022                                          =        BIT9                                  #
000691:
000692:                                                                                                 #  BIT 8 FLAG 6   (S)
000693: 26,2022                        MUNFLAG           =        097D                                  #         SERVICER CALLS          SERVICER CALLS
000694: 26,2022     4744               MUNFLBIT          =        BIT8                                  #         MUNRVG                  CALCRVG
000695:
000696:                                                                                                 #  BIT 7 FLAG 6   (L)
000697: 26,2022                                          =        098D                                  #
000698: 26,2022                                          =        BIT7                                  #
000699:
000700:                                                                                                 #  BIT 6 FLAG 6   (L)
000701: 26,2022                        REDFLAG           =        099D                                  #         LANDING SITE            LANDING SITE
000702:                                                                                                 #         REDESIGNATION           REDESIGNATION NOT
000703: 26,2022     4746               REDFLBIT          =        BIT6                                  #         PERMITTED               PERMITTED
000704:
000705:                                                                                                 #  BIT 5 FLAG 6
000706: 26,2022                                          =        100D                                  #
000707: 26,2022                                          =        BIT5
000708:
000709:                                                                                                 #  BIT 4 FLAG 6
000710: 26,2022                                          =        101D
000711: 26,2022                                          =        BIT4                                  #
000712:
000713:                                                                                                 #  BIT 3 FLAG 6   (S)
000714: 26,2022                        NTARGFLG          =        102D                                  #         ASTRONAUT DID           ASTRONAUT DID NOT
000715:                                                                                                 #         OVERWRITE DELTA         OVERWRITE DELTA
000716: 26,2022     4751               NTARGBIT          =        BIT3                                  #         VELOCITY AT TPI         VELOCITY
000717:                                                                                                 #         OR TPM (P34,35)
000718:
000719:                                                                                                 #  BIT 2 FLAG 6
000720: 26,2022                        AUXFLAG           =        103D                                  #         PROVIDING IDLEFLAG      SERVICER WILL SKIP
000721: 26,2022     4752               AUXFLBIT          =        BIT2                                  #         IS NOT SET, SERV-       DVMON ON ITS NEXT
000722:                                                                                                 #         ICER WILL EXERCISE      PASS EVEN IF THE
000723:                                                                                                 #         DVMON ON ITS NEXT       IDLEFLAG IS NOT SET.
000724:                                                                                                 #         PASS.                   IT WILL THEN SET
000725:                                                                                                 #                                 AUXFLAG.
000726:
000727:                                                                                                 #  Page 82
000728:                                                                                                 #  BIT 1 FLAG 6   (L)
000729: 26,2022                        ATTFLAG           =        104D                                  #         LEM ATTITUDE EXISTS     NO LEM ATTITUDE
000730:                                                                                                 #         IN MOON-FIXED           AVAILABLE IN MOON-
000731: 26,2022     4753               ATTFLBIT          =        BIT1                                  #         COORDINATES             FIXED COORDINATES
000732:
000733: 26,2022     0103               FLAGWRD7          =        STATE      +7                         #  (105-119)
000734:
000735:                                                                                                 #         (SET)                   (RESET)
000736:
000737:                                                                                                 #  BIT 15 FLAG 7  (S)
000738: 26,2022                        ITSWICH           =        105D                                  #         R34;TPI TIME TO BE      TPI HAS BEEN
000739: 26,2022     4735               ITSWBIT           =        BIT15                                 #         COMPUTED                COMPUTED
000740:
000741:                                                                                                 #  BIT 14 FLAG 7  (S)
000742: 26,2022                        MANUFLAG          =        106D                                  #         ATTITUDE MANEUVER       NO ATTITUDE MANEUVER
000743:                                                                                                 #         GOING DURING RR         DURING RR SEARCH
000744: 26,2022     4736               MANUFBIT          =        BIT14                                 #         SEARCH
000745:
000746:                                                                                                 #  BIT 13 FLAG 7  (S)
000747: 26,2022                        IGNFLAG           =        107D                                  #         TIG HAS ARRIVED         TIG HAS NOT ARRIVED
000748: 26,2022     4737               IGNFLBIT          =        BIT13                                 #
000749:
000750:                                                                                                 #  BIT 12 FLAG 7  (S)
000751: 26,2022                        ASTNFLAG          =        108D                                  #         ASTRONAUT HAS           ASTRONAUT HAS NOT
000752: 26,2022     4740               ASTNBIT           =        BIT12                                 #         OKAYED IGNITION         OKAYED IGNITION
000753:
000754:                                                                                                 #  BIT 11 FLAG 7  (L)
000755: 26,2022                        SWANDISP          =        109D                                  #         LANDING ANALOG          LANDING ANALOG
000756: 26,2022     4741               SWANDBIT          =        BIT11                                 #         DISPLAYS ENABLED        DISPLAYS SUPPRESSED
000757:
000758:                                                                                                 #  BIT 10 FLAG 7  (S)
000759: 26,2022                        NORMSW            =        110D                                  #         UNIT NORMAL INPUT       LAMBERT COMPUTES ITS
000760: 26,2022     4742               NORMSBIT          =        BIT10                                 #         TO LAMBERT              OWN UNIT NORMAL
000761:
000762:                                                                                                 #  BIT 9 FLAG 7   (S)
000763: 26,2022                        RVSW              =        111D                                  #         DO NOT COMPUTE          COMPUTE FINAL STATE
000764:                                                                                                 #         FINAL STATE VECTOR      VECTOR IN TIME-THETA
000765: 26,2022     4743               RVSWBIT           =        BIT9                                  #         IN TIME-DELTA
000766:
000767:                                                                                                 #  BIT 8 FLAG 7   (S)
000768: 26,2022                        V67FLAG           =        112D                                  #         ASTRONAUT OVERWRITE     ASTRONAUT DOES NOT
000769:                                                                                                 #  Page 83                                        #       W-MATRIX INITIAL        OVERWRITE W-MATRIX
000770: 26,2022     4744               V67FLBIT          =        BIT8                                  #         VALUES                  INITIAL VALUES
000771:
000772:                                                                                                 #  BIT 7 FLAG 7   (S)
000773: 26,2022                        IDLEFLAG          =        113D                                  #         NO DV MONITOR           CONNECT DV MONITOR
000774: 26,2022     4745               IDLEFBIT          =        BIT7                                  #
000775:
000776:                                                                                                 #  BIT 6 FLAG 7   (S)
000777: 26,2022                        V37FLAG           =        114D                                  #         AVERAGEG (SERVICER)     AVERAGEG (SERVICER)
000778: 26,2022     4746               V37FLBIT          =        BIT6                                  #         RUNNING                 OFF
000779:
000780:                                                                                                 #  BIT 5 FLAG 7   (S)
000781: 26,2022                        AVEGFLAG          =        115D                                  #         AVERAGEG (SERVICER)     AVERAGEG (SERVICER)
000782: 26,2022     4747               AVEGFBIT          =        BIT5                                  #         DESIRED                 NOT DESIRED
000783:
000784:                                                                                                 #  BIT 4 FLAG 7   (S)
000785: 26,2022                        UPLOCKFL          =        116D                                  #         K-KBAR-K FAIL           NO K-KBAR-K FAIL
000786: 26,2022     4750               UPLOCBIT          =        BIT4                                  #
000787:
000788:                                                                                                 #  BIT 3 FLAG 7   (S)
000789: 26,2022                        VERIFLAG          =        117D                                  #  CHANGED WHEN V33E OCCURS AT END OF P27
000790: 26,2022     4751               VERIFBIT          =        BIT3                                  #
000791:
000792:                                                                                                 #  BIT 2 FLAG 7   (L,C)
000793: 26,2022                        V82EMFLG          =        118D                                  #         MOON VICINITY           EARTH VICINITY
000794: 26,2022     4752               V82EMBIT          =        BIT2                                  #
000795:
000796:                                                                                                 #  BIT 1 FLAG 7   (S)
000797: 26,2022                        TFFSW             =        119D                                  #         CALCULATE TPERIGEE      CALCULATE TFF
000798: 26,2022     4753               TFFSWBIT          =        BIT1                                  #
000799:
000800: 26,2022     0104               FLAGWRD8          =        STATE      +8D                        #  (120-134)
000801:
000802:                                                                                                 #         (SET)                   (RESET)
000803:
000804:                                                                                                 #  BIT 15 FLAG 8  (S)
000805: 26,2022                        RPQFLAG           =        120D                                  #         RPQ NOT COMPUTED        RPQ COMPUTED
000806:                                                                                                 #         (RPQ = VECTOR BE-
000807: 26,2022     4735               RPQFLBIT          =        BIT15                                 #         TWEEN SECONDARY BODY
000808:                                                                                                 #         AND PRIMARY BODY)
000809:
000810:                                                                                                 #  BIT 14 FLAG 8
000811:                                                                                                 #  Page 84
000812: 26,2022                                          =        121D                                  #
000813: 26,2022                                          =        BIT14                                 #
000814:
000815:                                                                                                 #  BIT 13 FLAG 8  (S)
000816: 26,2022                        NEWIFLG           =        122D                                  #         FIRST PASS THROUGH      SUCCEEDING ITERATION
000817: 26,2022     4737               NEWIBIT           =        BIT13                                 #         INTEGRATION             OF INTEGRATION
000818:
000819:                                                                                                 #  BIT 12 FLAG 8  *** PROTECTED FROM FRESH START ***
000820: 26,2022                        CMOONFLG          =        123D                                  #         PERMANENT CSM STATE     PERMANENT CSM STATE
000821: 26,2022     4740               CMOONBIT          =        BIT12                                 #         IN LUNAR SPHERE         IN EARTH SPHERE
000822:
000823:                                                                                                 #  BIT 11 FLAG 8  *** PROTECTED FROM FRESH START ***
000824: 26,2022                        LMOONFLG          =        124D                                  #         PERMANENT LM STATE      PERMANENT LM STATE
000825: 26,2022     4741               LMOONBIT          =        BIT11                                 #         IN LUNAR SPHERE         IN EARTH SPHERE
000826:
000827:                                                                                                 #  BIT 10 FLAG 8  (L)
000828: 26,2022                        FLUNDISP          =        125D                                  #         CURRENT GUIDANCE        CURRENT GUIDANCE
000829: 26,2022     4742               FLUNDBIT          =        BIT10                                 #         DISPLAYS INHIBITED      DISPLAYS PERMITTED
000830:
000831:                                                                                                 #  BIT 9 FLAG 8   (L)
000832: 26,2022                                          =        126D                                  #
000833: 26,2022                                          =        BIT9                                  #
000834:
000835:                                                                                                 #  BIT 8 FLAG 8   *** PROTECTED FROM FRESH START ***
000836: 26,2022                        SURFFLAG          =        127D                                  #         LM ON LUNAR SURFACE     LM NOT ON LUNAR
000837: 26,2022     4744               SURFFBIT          =        BIT8                                  #                                 SURFACE
000838:
000839:                                                                                                 #  BIT 7 FLAG 8   (S)
000840: 26,2022                        INFINFLG          =        128D                                  #         NO CONIC SOLUTION       CONIC SOLUTION
000841:                                                                                                 #         (CLOSURE THROUGH        EXISTS
000842: 26,2022     4745               INFINBIT          =        BIT7                                  #         INFINITY REQUIRED)
000843:
000844:                                                                                                 #  BIT 6 FLAG 8   (S)
000845: 26,2022                        ORDERSW           =        129D                                  #         ITERATOR USES 2ND       ITERATOR USES 1ST
000846: 26,2022     4746               ORDERBIT          =        BIT6                                  #         ORDER MINIMUM MODE      ORDER STANDARD MODE
000847:
000848:                                                                                                 #  BIT 5 FLAG 8   (S)
000849: 26,2022                        APSESW            =        130D                                  #         RDESIRED OUTSIDE        RDESIRED INSIDE
000850:                                                                                                 #         PERICENTER-APOCENTER    PERICENTER-APOCENTER
000851: 26,2022     4747               APSESBIT          =        BIT5                                  #         RANGE IN TIME-RADIUS    RANGE IN TIME-RADIUS
000852:
000853:                                                                                                 #  Page 85
000854:                                                                                                 #  BIT 4 FLAG 8   (S)
000855: 26,2022                        COGAFLAG          =        131D                                  #         NO CONIC SOLUTION --    CONIC SOLUTION
000856:                                                                                                 #         TOO CLOSE TO RECTI-     EXISTS (COGA DOES NOT
000857: 26,2022     4750               COGAFBIT          =        BIT4                                  #         LINEAR (COGA OVERFLWS)  OVERFLOW)
000858:
000859:                                                                                                 #  BIT 3 FLAG 8   (S)
000860: 26,2022                                          =        132D
000861: 26,2022                                          =        BIT3                                  #
000862:
000863:                                                                                                 #  BIT 2 FLAG 8   (L)
000864: 26,2022                        INITALGN          =        133D                                  #         INITIAL PASS THRU       SECOND PASS THRU P57
000865: 26,2022     4752               INITABIT          =        BIT2                                  #         P57                     (CHECK RESET-MILLARD)
000866:
000867:                                                                                                 #  BIT 1 FLAG 8   (S)
000868: 26,2022                        360SW             =        134D                                  #         TRANSFER ANGLE NEAR     TRANSFER ANGLE NOT
000869: 26,2022     4753               360SWBIT          =        BIT1                                  #         360 DEGREES             NEAR 360 DEGREES
000870:
000871: 26,2022     0105               FLAGWRD9          =        STATE      +9D                        #  (135-149)
000872:
000873:                                                                                                 #         (SET)                   (RESET)
000874:
000875:                                                                                                 #  BIT 15 FLAG 9
000876: 26,2022                                          =        135D                                  #
000877: 26,2022                                          =        BIT15                                 #
000878:
000879:                                                                                                 #  BIT 14 FLAG 9  (L)
000880: 26,2022                        FLVR              =        136D                                  #         VERTICAL RISE           NON-VERTICAL RISE
000881: 26,2022     4736               FLVRBIT           =        BIT14                                 #         (ASCENT GUIDANCE)
000882:
000883:                                                                                                 #  BIT 13 FLAG 9
000884: 26,2022                        P7071FLG          =        137D                                  #         P70 OR P71 IS USING     P12 IS USING THE
000885: 26,2022     4737               P7071BIT          =        BIT13                                 #         ASCENT GUID. EQS.       ASCENT GUID. EQS.
000886:
000887:                                                                                                 #  BIT 12 FLAG 9  (L)
000888: 26,2022                        FLPC              =        138D                                  #         NO POSITION CONTROL     POSITION CONTROL
000889: 26,2022     4740               FLPCBIT           =        BIT12                                 #         (ASCENT GUIDANCE)
000890:
000891:                                                                                                 #  BIT 11 FLAG 9  (L)
000892: 26,2022                        FLPI              =        139D                                  #         PRE-IGNITION PHASE      REGULAR GUIDANCE
000893: 26,2022     4741               FLPIBIT           =        BIT11                                 #         (ASCENT GUIDANCE)
000894:
000895:                                                                                                 #  BIT 10 FLAG 9  (L)
000896: 26,2022                        FLRCS             =        140D                                  #         RCS INJECTION MODE      MAIN ENGINE MODE
000897:                                                                                                 #  Page 86
000898: 26,2022     4742               FLRCSBIT          =        BIT10                                 #         (ASCENT GUIDANCE)
000899:
000900:                                                                                                 #  BIT 9 FLAG 9   (L)
000901: 26,2022                        LETABORT          =        141D                                  #         ABORT PROGRAMS          ABORT PROGRAMS
000902: 26,2022     4743               LETABBIT          =        BIT9                                  #         ARE ENABLED             ARE NOT ENABLED
000903:
000904:                                                                                                 #  BIT 8 FLAG 9   (L)
000905: 26,2022                        FLAP              =        142D                                  #         APS CONTINUED ABORT     APS ABORT IS NOT A
000906:                                                                                                 #         AFTER DPS STAGING       CONTINUATION
000907: 26,2022     4744               FLAPBIT           =        BIT8                                  #         (ASCENT GUIDANCE)
000908:
000909:                                                                                                 #  BIT 7 FLAG 9   (L)
000910: 26,2022                        ABTTGFLG          =        143D                                  #         J2,K2 PARAMETERS        J1,K1 PARAMETERS
000911: 26,2022     4745               ABTTGBIT          =        BIT7                                  #         USED FOR ABORT          USED FOR ABORT
000912:                                                                                                 #         TARGETING               TARGETING
000913:
000914:                                                                                                 #  BIT 6 FLAG 9   (L)
000915: 26,2022                        ROTFLAG           =        144D                                  #         P70 AND P71 WILL        P70 AND P71 WILL NOT
000916: 26,2022     4746               ROTFLBIT          =        BIT6                                  #         FORCE VEHICLE           FORCE VEHICLE
000917:                                                                                                 #         ROTATION IN THE         ROTATION IN THE
000918:                                                                                                 #         PREFERRED DIRECTION     PREFERRED DIRECTION
000919:
000920:                                                                                                 #  BIT 5 FLAG 9   (S)
000921: 26,2022                        QUITFLAG          =        145D                                  #         DISCONTINUE INTEGR.     CONTINUE INTEGRATION
000922: 26,2022     4747               QUITBIT           =        BIT5                                  #
000923:
000924:                                                                                                 #  BIT 4 FLAG 9
000925: 26,2022                                          =        146D                                  #
000926: 26,2022                                          =        BIT4                                  #
000927:
000928:                                                                                                 #  BIT 3 FLAG 9   (L)
000929: 26,2022                        MID1FLAG          =        147D                                  #         INTEGRAT TO TDEC        INTEGRATE TO THE
000930: 26,2022     4751               MID1FBIT          =        BIT3                                  #                                 THEN-PRESENT TIME
000931:
000932:                                                                                                 #  BIT 2 FLAG 9   (L)
000933: 26,2022                        MIDAVFLG          =        148D                                  #         INTEGRATION ENTERED     INTEGRATION WAS
000934:                                                                                                 #         FROM ONE OF MIDTOAV     NOT ENTERED VIA
000935: 26,2022     4752               MIDAVBIT          =        BIT2                                  #         PORTALS                 MIDTOAV
000936:
000937:                                                                                                 #  BIT 1 FLAG 9   (S)
000938: 26,2022                        AVEMIDSW          =        149D                                  #         AVETOMID CALLING        NO AVETOMID W INTEGR
000939:                                                                                                 #         FOR W.MATRIX INTEGR     ALLOW SET UP RM, VN
000940: 26,2022     4753               AVEMDBIT          =        BIT1                                  #         DON'T WRITE OVER RN,    PIPTIME
000941:                                                                                                 #         VN,PIPTIME
000942:
000943:                                                                                                 #  Page 87
000944: 26,2022     0106               RASFLAG           EQUALS   FLGWRD10                              #  WAS ONLY AN INSTALL-ERASTALL FLAG
000945:
000946: 26,2022     0106               FLGWRD10          =        STATE      +10D                       #  (150-164)
000947:
000948:                                                                                                 #         (SET)                   (RESET)
000949:
000950:                                                                                                 #  BIT 15 FLAG 10 (S)
000951: 26,2022                                          =        150D                                  #
000952: 26,2022                                          =        BIT15                                 #
000953:
000954:                                                                                                 #  BIT 14 FLAG 10 (L,C)
000955: 26,2022                        INTFLAG           =        151D                                  #         INTEGRATION IN          INTEGRATION NOT IN
000956: 26,2022     4736               INTFLBIT          =        BIT14                                 #         PROGRESS                PROGRESS
000957:
000958:                                                                                                 #  BIT 13 FLAG 10 (S,L) *** PROTECTED FROM FRESH START ***
000959: 26,2022                        APSFLAG           =        152D                                  #         ASCENT STAGE            DESCENT STAGE
000960: 26,2022     4737               APSFLBIT          =        BIT13                                 #
000961:
000962:                                                                                                 #  BIT 12 FLAG 10
000963: 26,2022                                          =        153D                                  #
000964: 26,2022                                          =        BIT12                                 #
000965:
000966:                                                                                                 #  BIT 11 FLAG 10
000967: 26,2022                                          =        154D                                  #
000968: 26,2022                                          =        BIT11                                 #
000969:
000970:                                                                                                 #  BIT 10 FLAG 10
000971: 26,2022                                          =        155D                                  #
000972: 26,2022                                          =        BIT10                                 #
000973:
000974:                                                                                                 #  BIT 9 FLAG 10
000975: 26,2022                                          =        156D                                  #
000976: 26,2022                                          =        BIT9                                  #
000977:
000978:                                                                                                 #  BIT 8 FLAG 10
000979: 26,2022                                          =        157D                                  #
000980: 26,2022                                          =        BIT8                                  #
000981:
000982:                                                                                                 #  BIT 7 FLAG 10 (L,C)
000983: 26,2022                        REINTFLG          =        158D                                  #         INTEGRATION ROUTINE     INTEGRATION ROUTINE
000984: 26,2022     4745               REINTBIT          =        BIT7                                  #         TO BE RESTARTED         NOT TO BE RESTARTED
000985:
000986:                                                                                                 #  BIT 6 FLAG 10
000987: 26,2022                                          =        159D
000988:                                                                                                 #  Page 88
000989: 26,2022                                          =        BIT6                                  #
000990:
000991:                                                                                                 #  BIT 5 FLAG 10
000992: 26,2022                                          =        160D                                  #
000993: 26,2022                                          =        BIT5                                  #
000994:
000995:                                                                                                 #  BIT 4 FLAG 10
000996: 26,2022                                          =        161D                                  #
000997: 26,2022                                          =        BIT4                                  #
000998:
000999:                                                                                                 #  BIT 3 FLAG 10
001000: 26,2022                                          =        162D
001001: 26,2022                                          =        BIT3                                  #
001002:
001003:                                                                                                 #  BIT 2 FLAG 10
001004: 26,2022                                          =        163D                                  #
001005: 26,2022                                          =        BIT2                                  #
001006:
001007:                                                                                                 #  BIT 1 FLAG 10
001008: 26,2022                                          =        164D                                  #
001009: 26,2022                                          =        BIT1                                  #
001010:
001011: 26,2022     0107               FLGWRD11          =        STATE      +11D                       #  (165-179)
001012:
001013:                                                                                                 #         (SET)                   (RESET)
001014:
001015:                                                                                                 #  BIT 15 FLAG 11 (L)(R12)
001016: 26,2022                        LRBYPASS          =        165D                                  #         BYPASS ALL LANDING      DO NOT BYPASS LR
001017: 26,2022     4735               LRBYBIT           =        BIT15                                 #         RADAR UPDATES           UPDATES
001018:
001019:                                                                                                 #  BIT 14 FLAG 11
001020: 26,2022                                          =        166D                                  #
001021: 26,2022                                          =        BIT14                                 #
001022:
001023:                                                                                                 #  BIT 13 FLAG 11
001024: 26,2022                                          =        167D                                  #
001025: 26,2022                                          =        BIT13                                 #
001026:
001027:                                                                                                 #  BIT 12 FLAG 11 (L)(R12)
001028: 26,2022                        VXINH             =        168D                                  #         IF Z VELOCITY DATA      UPDATE X AXIS
001029:                                                                                                 #         UNREASONABLE,           VELOCITY
001030: 26,2022     4740               VXINHBIT          =        BIT12                                 #         BYPASS X VELOCITY
001031:                                                                                                 #         UPDATE ON NEXT PASS
001032:
001033:                                                                                                 #  Page 89
001034:                                                                                                 #  BIT 11 FLAG 11 (L)(R12)
001035: 26,2022                        PSTHIGAT          =        169D                                  #         PAST HIGATE             PREHIGATE
001036: 26,2022     4741               PSTHIBIT          =        BIT11                                 #
001037:
001038:                                                                                                 #  BIT 10 FLAG 11 (L)(R12)
001039: 26,2022                        NOLRREAD          =        170D                                  #         LANDING RADAR           LR NOT REPOSITIONING
001040:                                                                                                 #         REPOSITIONING;
001041: 26,2022     4742               NOLRRBIT          =        BIT10                                 #         BYPASS UPDATE
001042:
001043:                                                                                                 #  BIT 9 FLAG 11 (L)(R12)
001044: 26,2022                        XORFLG            =        171D                                  #         BELOW LIMIT             ABOVE LIMIT DO
001045:                                                                                                 #         INHIBIT X AXIS          NOT INHIBIT
001046: 26,2022     4743               XORFLBIT          =        BIT9                                  #         OVERRIDE
001047:
001048:                                                                                                 #  BIT 8 FLAG 11
001049: 26,2022                        LRINH             =        172D                                  #         LANDING RADAR UP-       LR UPDATES INHIBITED
001050: 26,2022     4744               LRINHBIT          =        BIT8                                  #         DATES PERMITTED         BY ASTRONAUT
001051:                                                                                                 #         BY ASTRONAUT
001052:
001053:                                                                                                 #  BIT 7 FLAG 11  (L)(R12)
001054: 26,2022                        VELDATA           =        173D                                  #         LR VELOCITY             LR VELOCITY MEASURE
001055: 26,2022     4745               VELDABIT          =        BIT7                                  #         MEASUREMENT MADE        NOT MADE
001056:
001057:                                                                                                 #  BIT 6 FLAG 11  (L)(R12)
001058: 26,2022                        LPOS2FLG          =        174D                                  #         USE LR POSITION 2       USE LR POSITION 1
001059: 26,2022     4746               LPOS2BIT          =        BIT6                                  #         TRANSFORMATION          TRANSFORMATION
001060:
001061:                                                                                                 #  BIT 5 FLAG 11  (L)(R12)
001062: 26,2022                        READVEL           =        175D                                  #         OK TO READ LR           DO NOT READ LR
001063: 26,2022     4747               READVBIT          =        BIT5                                  #         VELOCITY DATA           VELOCITY DATA
001064:
001065:                                                                                                 #  BIT 4 FLAG 11  (L)(R12)
001066: 26,2022                        RNGEDATA          =        176D                                  #         LR ALTITUDE             LR ALTITUDE MEASURE
001067: 26,2022     4750               RNGEDBIT          =        BIT4                                  #         MEASUREMENT MADE        NOT MADE
001068:
001069:                                                                                                 #  BIT 3 FLAG 11
001070: 26,2022                        NO511FLG          =        177D                                  #         DO NOT TEST LR          TEST LR ANTENNA
001071: 26,2022     4751               NO511BIT          =        BIT3                                  #         ANTENNA POS IN R12      POS IN R12
001072:
001073:                                                                                                 #  BIT 2 FLAG 11  (L)(R12)
001074: 26,2022                        VFLSHFLG          =        178D                                  #         LR VELOCITY FAIL        LR VEL FAIL LAMP
001075:                                                                                                 #  Page 90                                        #       LAMP SHOULD BE          SHOULDN'T FLASH
001076: 26,2022     4752               VFLSHBIT          =        BIT2                                  #         FLASHING
001077:
001078:                                                                                                 #  BIT 1 FLAG 11  (L)(R12)
001079: 26,2022                        HFLSHFLG          =        179D                                  #         LR ALTITUDE FAIL        LR ALTITUDE FAIL
001080: 26,2022     4753               HFLSHBIT          =        BIT1                                  #         LAMP SHOULD BE          LAMP SHOULD NOT BE
001081:                                                                                                 #         FLASHING                FLASHING
001082:
001083: 26,2022     0110               RADMODES          EQUALS   FLGWRD12                              #  RADAR FLAG WORD
001084:
001085: 26,2022     0110               FLGWRD12          =        STATE      +12D                       #  (180-194)
001086:
001087:                                                                                                 #         (SET)                   (RESET)
001088:
001089:                                                                                                 #  BIT 15 FLAG 12
001090: 26,2022                        CDESFLAG          =        180D                                  #         CONTINUOUS DESIG-       LGC CHECKS FOR LOCK-
001091: 26,2022     4735               CDESBIT           =        BIT15                                 #         NATE, LGC COMMANDS      ON WHEN ANTENNA
001092:                                                                                                 #         RR REGARDLESS OF        BEING DESIGNATED
001093:                                                                                                 #         LOCK-ON
001094:
001095:                                                                                                 #  BIT 14 FLAG 12
001096: 26,2022                        REMODFLG          =        181D                                  #         CHANGE IN ANTENNA       NO REMODE REQUESTED
001097: 26,2022     4736               REMODBIT          =        BIT14                                 #         MODE BEEN REQUESTED     OR OCCURRING
001098:                                                                                                 #         I.E., REMODE
001099:
001100:                                                                                                 #  BIT 13 FLAG 12
001101: 26,2022                        RCDU0FLG          =        182D                                  #         RR CDU'S BEING          RR CDU'S NOT BEING
001102: 26,2022     4737               RCDU0BIT          =        BIT13                                 #         ZEROED                  ZEROED
001103:
001104:                                                                                                 #  BIT 12 FLAG 12
001105: 26,2022                        ANTENFLG          =        183D                                  #         RR ANTENNA MODE IS      RR ANTENNA IN MODE 1
001106: 26,2022     4740               ANTENBIT          =        BIT12                                 #         MODE 2
001107:
001108:                                                                                                 #  BIT 11 FLAG 12
001109: 26,2022                        REPOSMON          =        184D                                  #         REPOSITION MONITOR.     NO REPOSITION TAKING
001110: 26,2022     4741               REPOSBIT          =        BIT11                                 #         RR REPOSITION IS        PLACE
001111:                                                                                                 #         TAKING PLACE
001112:
001113:                                                                                                 #  BIT 10 FLAG 12
001114: 26,2022                        DESIGFLG          =        185D                                  #         RR DESIGNATE            RR DESIGNATE NOT
001115: 26,2022     4742               DESIGBIT          =        BIT10                                 #         REQUESTED OR IN         REQUESTED OR IN
001116:                                                                                                 #         PROGRESS                PROGRESS
001117:
001118:                                                                                                 #  Page 91
001119:                                                                                                 #  BIT 9 FLAG 12
001120: 26,2022                        ALTSCALE          =        186D                                  #         LR ALTITUDE READING     LR ALTITUDE READING
001121: 26,2022     4743               ALTSCBIT          =        BIT9                                  #         IS ON HIGH SCALE        IS ON LOW SCALE
001122:
001123:                                                                                                 #  BIT 8 FLAG 12
001124: 26,2022                        LRVELFLG          =        187D                                  #         LR VELOCITY DATA        NO LR VELOCITY DATA
001125: 26,2022     4744               LRVELBIT          =        BIT8                                  #         FAIL                    FAIL
001126:
001127:                                                                                                 #  BIT 7 FLAG 12
001128: 26,2022                        RCDUFAIL          =        188D                                  #         RR CDU FAIL HAS         RR CDU FAIL OCCURRED
001129: 26,2022     4745               RCDUFBIT          =        BIT7                                  #         NOT OCCURRED
001130:
001131:                                                                                                 #  BIT 6 FLAG 12
001132: 26,2022                        LRPOSFLG          =        189D                                  #         LANDING RADAR           LR POSITION 1
001133: 26,2022     4746               LRPOSBIT          =        BIT6                                  #         POSITION 2
001134:
001135:                                                                                                 #  BIT 5 FLAG 12
001136: 26,2022                        LRALTFLG          =        190D                                  #         LR ALTITUDE DATA        NO LR ALTITUDE DATA
001137: 26,2022     4747               LRALTBIT          =        BIT5                                  #         FAIL.  COULD NOT BE     FAIL
001138:                                                                                                 #         READ SUCCESSFULLY.
001139:
001140:                                                                                                 #  BIT 4 FLAG 12
001141: 26,2022                        RRDATAFL          =        191D                                  #         RR DATA FAIL.           NO RR DATA FAIL
001142: 26,2022     4750               RRDATABT          =        BIT4                                  #         DATA COULD NOT BE
001143:                                                                                                 #         READ SUCCESSFULLY
001144:
001145:                                                                                                 #  BIT 3 FLAG 12
001146: 26,2022                        RRRSFLAG          =        192D                                  #         RR RANGE READING        RR RANGE READING ON
001147: 26,2022     4751               RRRSBIT           =        BIT3                                  #         ON THE HIGH SCALE       THE LOW SCALE
001148:
001149:                                                                                                 #  BIT 2 FLAG 12
001150: 26,2022                        AUTOMODE          =        193D                                  #         RR NOT IN AUTO MODE.    RR IN AUTO MODE
001151: 26,2022     4752               AUTOMBIT          =        BIT2                                  #         AUTO MODE DISCRETE
001152:                                                                                                 #         IS NOT PRESENT
001153:
001154:                                                                                                 #  BIT 1 FLAG 12
001155: 26,2022                        TURNONFL          =        194D                                  #         RR TURN-ON SEQUENCE     NO RR TURN-ON
001156: 26,2022     4753               TURNONBT          =        BIT1                                  #         IN PROGRESS.  (ZERO     SEQUENCE IN PROGRESS
001157:                                                                                                 #         CDU'S, FIX ANTENNA
001158:                                                                                                 #         MODE)
001159:
001160:                                                                                                 #  Page 92
001161: 26,2022     0111               DAPBOOLS          EQUALS   FLGWRD13                              #  DIGITAL AUTOPILOT FLAGWORD
001162:
001163: 26,2022     0111               FLGWRD13          =        STATE      +13D                       #  (195-209)
001164:
001165:                                                                                                 #         (SET)                   (RESET)
001166:
001167:                                                                                                 #  BIT 15 FLAG 13
001168: 26,2022                        PULSEFLG          =        195D                                  #         MINIMUM IMPUSE          NOT IN MINIMUM
001169: 26,2022     4735               PULSES            =        BIT15                                 #         COMMAND MODE IN         IMPULSE COMMAND MODE
001170:                                                                                                 #         "ATT HOLD" (V76)        (V77)
001171:
001172:                                                                                                 #  BIT 14 FLAG 13
001173: 26,2022                        USEQRFLG          =        196D                                  #         GIMBAL UNUSABLE.        TRIM GIMBAL MAY BE
001174: 26,2022     4736               USEQRJTS          =        BIT14                                 #         USE JETS ONLY.          USED.
001175:
001176:                                                                                                 #  BIT 13 FLAG 13
001177: 26,2022                        CSMDKFLG          =        197D                                  #         CSM DOCKED.  USE        CSM NOT DOCKED TO LM
001178: 26,2022     4737               CSMDOCKD          =        BIT13                                 #         BACKUP DAP
001179:
001180:                                                                                                 #  BIT 12 FLAG 13
001181: 26,2022                        OURRCFLG          =        198D                                  #         CURRENT DAP PASS        CURRENT DAP PASS IS
001182: 26,2022     4740               OURRCBIT          =        BIT12                                 #         IS RATE COMMAND         NOT RATE COMMAND
001183:
001184:                                                                                                 #  BIT 11 FLAG 13
001185: 26,2022                        ACC4-2FL          =        199D                                  #         4 JET X-AXIS TRANS-     2 JET X-AXIS TRANS-
001186: 26,2022     4741               ACC4OR2X          =        BIT11                                 #         LATION REQUESTED        LATION REQUESTED
001187:
001188:                                                                                                 #  BIT 10 FLAG 13
001189: 26,2022                        AORBTFLG          =        200D                                  #         B SYSTEM FOR X-         A SYSTEM FOR X-
001190: 26,2022     4742               AORBTRAN          =        BIT10                                 #         TRANSLATION             TRANSLATION PREFER'D
001191:
001192:                                                                                                 #  BIT 9 FLAG 13
001193: 26,2022                        XOVINFLG          =        201D                                  #         X-AXIS OVERRIDE         X-AXIS OVERRIDE OKAY
001194: 26,2022     4743               XOVINHIB          =        BIT9                                  #         LOCKED OUT
001195:
001196:                                                                                                 #  BIT 8 FLAG 13
001197: 26,2022                        DRIFTDFL          =        202D                                  #         ASSUME 0 OFFSET         USE OFFSET ACCELERA-
001198: 26,2022     4744               DRIFTBIT          =        BIT8                                  #         DRIFTING FLIGHT         ION ESTIMATE
001199:
001200:                                                                                                 #  Page 93
001201:                                                                                                 #  BIT 7 FLAG 13
001202: 26,2022                        RHCSCFLG          =        203D                                  #         NORMAL RHC SCALING      FINE RHC SCALING
001203: 26,2022     4745               RHCSCALE          =        BIT7                                  #         REQUESTED               REQUESTED
001204:
001205:                                                                                                 #  BIT 6 FLAG 13
001206: 26,2022                        ULLAGFLG          =        204D                                  #         ULLAGE REQUEST BY       NO INTERNAL ULLAGE
001207: 26,2022     4746               ULLAGER           =        BIT6                                  #         MISSION PROGRAM         REQUEST
001208:
001209:                                                                                                 #  BIT 5 FLAG 13
001210: 26,2022                        DBSL2FLG          =        205D                                  #         5 DEG DEADBAND          1 OR .3 DEG DEADBAND
001211: 26,2022     4747               DBSLECT2          =        BIT5                                  #         SELECTED BY CREW        SELECTED BY CREW
001212:                                                                                                 #                                 (SEE BIT4 DAPBOOLS)
001213:
001214:                                                                                                 #  BIT 4 FLAG 13
001215: 26,2022                        DBSELFLG          =        206D                                  #         1 DEG DEADBAND          MIN DB SELECTED BY
001216: 26,2022     4750               DBSELECT          =        BIT4                                  #         SELECTED BY CREW        CREW (0.3 DEG)
001217:
001218:                                                                                                 #  BIT 3 FLAG 13
001219: 26,2022                        ACCOKFLG          =        207D                                  #         CONTROL AUTHORITY       RESTART OR FRESH ST.
001220: 26,2022     4751               ACCSOKAY          =        BIT3                                  #         VALUES FROM 1/ACCS      SINCE LAST 1/ACCS;
001221:                                                                                                 #         USABLE                  OUTPUTS SUSPECT.
001222:
001223:                                                                                                 #  BIT 2 FLAG 13
001224: 26,2022                        AUTR2FLG          =        208D                                  #  THESE FLAGS ARE USED TOGETHER TO INDICATE
001225: 26,2022     4752               AUTRATE2          =        BIT2                                  #  ASTRONAUT-CHOSEN KALCMANU MANEUVER RATES
001226:                                                                                                 #  (0,0)=(BIT2,BIT1)=     0.2 DEG/SEC
001227:                                                                                                 #  BIT 1 FLAG 13                                  # (0,1)=                0.5 DEG/SEC
001228: 26,2022                        AUTR1FLG          =        209D                                  #  (1,0)=         2.0 DEG/SEC
001229: 26,2022     4753               AUTRATE1          =        BIT1                                  #  (1,1)=        10.0 DEG/SEC
001230:
001231:

End of include-file FLAGWORD_ASSIGNMENTS.agc.  Parent file is MAIN.agc


