
Source Code


000002:                                                                                                  ## Copyright:   Public domain.
000003:                                                                                                  ## Filename:    FLAGWORD_ASSIGNMENTS.agc
000004:                                                                                                  ## Purpose:     The main source file for Luminary 1C, revision 131.
000005:                                                                                                  ##              It is part of the source code for the Lunar Module's (LM)
000006:                                                                                                  ##              Apollo Guidance Computer (AGC) for Apollo 13.
000007:                                                                                                  ## Assembler:   yaYUL
000008:                                                                                                  ## Reference:   pp. 61-88
000009:                                                                                                  ## Contact:     Ron Burkey <info@sandroid.org>.
000010:                                                                                                  ## Website:     www.ibiblio.org/apollo/index.html
000011:                                                                                                  ## Mod history: 04/23/03 RSB.   Began.
000012:                                                                                                  ##              05/14/05 RSB    Corrected website reference above.
000013:                                                                                                  ##              05/17/09 RSB    Backported some Luminary 099 fixes pointed
000014:                                                                                                  ##                              out by Onno Hommes.
000015:                                                                                                  ##              2017-01-06 RSB  Page numbers now agree with those on the
000016:                                                                                                  ##                              original hardcopy, as opposed to the PDF page
000017:                                                                                                  ##                              numbers in 1701.pdf.
000018:                                                                                                  ##              2017-02-12 RSB  Proofed comment text using octopus/ProoferComments.
000019:                                                                                                  ##              2017-02-28 RSB  Fixed lingering typos.
000020:                                                                                                  ##              2017-03-02 RSB  Fixed comment-text bugs found whilst proofing
000021:                                                                                                  ##                              Luminary 116.  Also, P00HFLAG --> POOHFLAG, and
000022:                                                                                                  ##                              P00HBIT --> POOHBIT.
000023:                                                                                                  ##              2017-08-14 MAS  Fixed typos found while transcribing Zerlina 56.
000024:                                                                                                  ##              2021-05-30 ABS  Added empty page 89 fpr SUBRO output.
000025:


000027:                                                                                                  #  FLAGWORDS 0-11        ARE DOWNLINKED AND CAN BE SET AND CLEARED BY UP-FLAG AND DOWN-FLAG INSTRUCTIONS IN THE
000028:                                                                                                  #                        INTERPRETER.  THESE WERE PREVIOUSLY LISTED UNDER "INTERPRETIVE SWITCH BIT ASSIGNMENTS" IN
000029:                                                                                                  #                        THE ERASABLE LOG SECTION.  FLAGWORDS 12 & 13 WEREPREVIOUSLY RADMODES AND DAPBOOLS AND
000030:                                                                                                  #                        ARE STILL DOWNLINKED UNDER THOSE NAMES.
000031:
000032:                                                                                                  #  ALPHABETICAL LIST OF FLAGWORDS
000033:
000034:                                                                                                  #  9             25              41                      61      COLUMN NO.
000035:                                                                                                  #  FLAGWORD      DEC. NUMBER     BIT AND FLAG            BIT NAME
000036:
000037:                                                                                                  #  ABTTGFLG      143             BIT 7 FLAG 9            ABTTGBIT
000038:                                                                                                  #  ACCOKFLG      207             BIT 3  FLAG 13          ACCSOKAY
000039:                                                                                                  #  ACC4-2FL      199             BIT 11 FLAG 13          ACC4OR2X
000040:                                                                                                  #  ACMODFLG      032             BIT 13 FLAG 2           ACMODBIT
000041:                                                                                                  #  ALTSCALE      186             BIT 9  FLAG 12          ALTSCBIT
000042:                                                                                                  #  ANTENFLG      183             BIT 12 FLAG 12          ANTENBIT
000043:                                                                                                  #  AORBSFLG      085             BIT 5 FLAG 5            AORBSYST
000044:                                                                                                  #  AORBTFLG      200             BIT 10 FLAG 13          AORBTRAN
000045:
000046:                                                                                                  #  APSESW        130             BIT 5  FLAG 8           APSESBIT
000047:                                                                                                  #  APSFLAG       152             BIT 13 FLAG 10          APSFLBIT
000048:                                                                                                  #  ASTNFLAG      108             BIT 12 FLAG 7           ASTNBIT
000049:                                                                                                  #  ATTFLAG       104             BIT 1  FLAG 6           ATTFLBIT
000050:                                                                                                  #  AUTOMODE      193             BIT 2  FLAG 12          AUTOMBIT
000051:                                                                                                  #  AUTR1FLG      209             BIT 1  FLAG 13          AUTRATE1
000052:                                                                                                  #  AUTR2FLG      208             BIT 2  FLAG 13          AUTRATE2
000053:                                                                                                  #  AUXFLAG       103             BIT 2  FLAG 6           AUXFLBIT
000054:                                                                                                  #  AVEGFLAG      115             BIT 5  FLAG 7           AVEGFBIT
000055:                                                                                                  #  AVEMIDSW      149             BIT 1  FLAG 9           AVEMDBIT
000056:                                                                                                  #  AVFLAG        040             BIT 5  FLAG 2           AVFLBIT
000057:                                                                                                  #  CALCMAN2      043             BIT 2  FLAG 2           CALC2BIT
000058:                                                                                                  #  CALCMAN3      042             BIT 3  FLAG 2           CALC3BIT
000059:
000060:                                                                                                  #  CDESFLAG      180             BIT 15 FLAG 12          CDESBIT
000061:                                                                                                  #  CMOONFLG      123             BIT 12 FLAG 8           CMOONBIT
000062:                                                                                                  #  COGAFLAG      131             BIT 4  FLAG 8           COGAFBIT
000063:                                                                                                  #  CSMDKFLG      197             BIT 13 FLAG 13          CSMDOCKD
000064:                                                                                                  #  CULTFLAG      053             BIT 7  FLAG 3           CULTBIT
000065:                                                                                                  #  DAPBOOLS                      FLGWRD13
000066:                                                                                                  #  DBSELFLG      206             BIT 4  FLAG 13          DBSELECT
000067:                                                                                                  #  DBSL2FLG      205             BIT 5 FLAG 13           DBSLECT2
000068:                                                                                                  #  DESIGFLG      185             BIT 10 FLAG 12          DESIGBIT
000069:                                                                                                  #  DIDFLAG       016             BIT 14 FLAG             DIDFLBIT
000070:                                                                                                  #  DIMOFLAG      059             BIT 1  FLAG 3           DIMOBIT
000071:                                                                                                  #  DMENFLG       081             BIT 9  FLAG 5           DMENFBIT


000073:                                                                                                  #  DRIFTDFL      202             BIT 8 FLAG 13           DRIFTBIT
000074:                                                                                                  #  DRIFTFLG      030             BIT 15 FLAG 2           DRFTBIT
000075:                                                                                                  #  DSKYFLAG      075             BIT 15 FLAG 5           DSKYFBIT
000076:                                                                                                  #  D6OR9FLG      058             BIT 2 FLAG 3            D6OR9BIT
000077:                                                                                                  #  ENGONFLG      083             BIT 7 FLAG 5            ENGONBIT
000078:                                                                                                  #  ERADFLAG      017             BIT 13 FLAG 1           ERADFBIT
000079:                                                                                                  #  ETPIFLAG      038             BIT 7 FLAG 2            ETPIBIT
000080:                                                                                                  #  FINALFLG      039             BIT 6 FLAG 2            FINALBIT
000081:                                                                                                  #  FLAGWRD0      (000-014)       (STATE +0)
000082:                                                                                                  #  FLAGWRD1      (015-029)       (STATE +1)
000083:                                                                                                  #  FLAGWRD2      (030-044)       (STATE +2)
000084:                                                                                                  #  FLAGWRD3      (045-059)       (STATE +3)
000085:                                                                                                  #  FLAGWRD4      (060-074)       (STATE +4)
000086:                                                                                                  #  FLAGWRD5      (075-089)       (STATE +5)
000087:                                                                                                  #  FLAGWRD6      (090-104)       (STATE +6)
000088:                                                                                                  #  FLAGWRD7      (105-119)       (STATE +7)
000089:                                                                                                  #  FLAGWRD8      (120-134)       (STATE +8D)
000090:                                                                                                  #  FLAGWRD9      (135-149)       (STATE +9D)
000091:                                                                                                  #  FLAP          142             BIT 8 FLAG 9            FLAPBIT
000092:                                                                                                  #  FLGWRD10      (150-164)       (STATE +10D)
000093:                                                                                                  #  FLGWRD11      (165-179)       (STATE +11D)
000094:                                                                                                  #  FLGWRD12      (180-194)       (STATE +12D)
000095:                                                                                                  #  FLGWRD13      (195-209)       (STATE +13D)
000096:                                                                                                  #  FLPC          138             BIT 12 FLAG 9           FLPCBIT
000097:                                                                                                  #  FLPI          139             BIT 11 FLAG 9           FLPIBIT
000098:                                                                                                  #  FLRCS         149             BIT 10 FLAG 9           FLRCSBIT
000099:                                                                                                  #  FLUNDISP      125             BIT 10 FLAG 8           FLUNDBIT
000100:                                                                                                  #  FLVR          136             BIT 14 FLAG 9           FLVRBIT
000101:                                                                                                  #  FREEFLAG      012             BIT 3 FLAG 0            FREEFBIT
000102:                                                                                                  #  FSPASFLG      005             BIT 10 FLAG 0           FSPASBIT
000103:                                                                                                  #  GLOKFAIL      046             BIT 14 FLAG 3           GLOKFBIT
000104:                                                                                                  #  GMBDRVSW      095             BIT 10 FLAG 6           GMBDRBIT
000105:                                                                                                  #  GUESSW        028             BIT 2 FLAG 1            GUESSBIT
000106:                                                                                                  #  HFLSHFLG      179             BIT 1 FLAG 11           HFLSHBIT
000107:                                                                                                  #  IDLEFLAG      113             BIT 7 FLAG 7            IDLEFBIT
000108:                                                                                                  #  IGNFLAG       107             BIT 13 FLAG 7           IGNFLBIT
000109:                                                                                                  #  IMPULSW       036             BIT 9 FLAG 2            IMPULBIT
000110:                                                                                                  #  IMUSE         007             BIT 8 FLAG 0            IMUSEBIT
000111:                                                                                                  #  INFINFLG      128             BIT 7 FLAG 8            INFINBIT
000112:                                                                                                  #  INITALGN      133             BIT 2 FLAG 8            INITABIT
000113:                                                                                                  #  INTFLAG       151             BIT 14 FLAG 10          INTFLBIT
000114:                                                                                                  #  INTYPFLG      056             BIT 4 FLAG 3            INTYPBIT
000115:                                                                                                  #  ITSWICH       105             BIT 15 FLAG 7           ITSWBIT
000116:                                                                                                  #  JSWITCH       001             BIT 14 FLAG 0           JSWCHBIT
000117:
000118:                                                                                                  #  LETABORT      141             BIT 9  FLAG 9           LETABBIT
000119:                                                                                                  #  LMOONFLG      124             BIT 11 FLAG 8           LMOONBIT
000120:                                                                                                  #  LOKONSW       010             BIT 5  FLAG 0           LOKONBIT
000121:                                                                                                  #  LOSCMFLG      033             BIT 12 FLAG 2           LOSCMBIT
000122:                                                                                                  #  LPOS2FLG      174             BIT 6 FLAG 11           LPOS2BIT
000123:                                                                                                  #  LRALTFLG      190             BIT 5  FLAG 12          LRALTBIT


000125:                                                                                                  #  LRBYPASS      165             BIT 15 FLAG 11          LRBYBIT
000126:                                                                                                  #  LRINH         172             BIT 8 FLAG 11           LRINHBIT
000127:                                                                                                  #  LRPOSFLG      189             BIT 6 FLAG 12           LRPOSBIT
000128:                                                                                                  #  LRVELFLG      187             BIT 8 FLAG 12           LRVELBIT
000129:                                                                                                  #  LUNAFLAG      048             BIT 12 FLAG 3           LUNABIT
000130:                                                                                                  #  MANUFLAG      106             BIT 14 FLAG 7           MANUFBIT
000131:                                                                                                  #  MGLVFLAG      088             BIT 2 FLAG 5            MGLVFBIT
000132:                                                                                                  #  MIDAVFLG      148             BIT 2 FLAG 9            MIDAVBIT
000133:                                                                                                  #  MIDFLAG       002             BIT 13 FLAG 0           MIDFLBIT
000134:                                                                                                  #  MID1FLAG      147             BIT 3 FLAG 9            MID1BIT
000135:                                                                                                  #  MKOVFLAG      072             BIT 3 FLAG 4            MKOVBIT
000136:                                                                                                  #  MOONFLAG      003             BIT 12 FLAG 0           MOONBIT
000137:                                                                                                  #  MRKIDFLG      060             BIT 15 FLAG 4           MRKIDBIT
000138:                                                                                                  #  MRKNVFLG      066             BIT 9 FLAG 4            MRKNVBIT
000139:                                                                                                  #  MRUPTFLG      070             BIT 5 FLAG 4            MRUPTBIT
000140:                                                                                                  #  MUNFLAG       097             BIT 8 FLAG 6            MUNFLBIT
000141:                                                                                                  #  MWAITFLG      064             BIT 11 FLAG 4           MWAITBIT
000142:                                                                                                  #  NEEDLFLG      011             BIT 4 FLAG 0            NEEDLBIT
000143:                                                                                                  #  NEED2FLG      000             BIT 15 FLAG 0           NEED2BIT
000144:                                                                                                  #  NEWIFLG       122             BIT 13 FLAG 8           NEWIBIT
000145:                                                                                                  #  NJETSFLG      015             BIT 15 FLAG             NJETSBIT
000146:                                                                                                  #  NODOFLAG      044             BIT 1 FLAG 2            NODOBIT
000147:                                                                                                  #  NOLRREAD      170             BIT 10 FLAG 11          NOLRRBIT
000148:                                                                                                  #  NORMSW        110             BIT 10 FLAG 7           NORMSBIT
000149:                                                                                                  #  NORRMON       086             BIT 4 FLAG 5            NORRMBIT
000150:                                                                                                  #  NOR29FLG      049             BIT 11 FLAG 3           NR29FBIT
000151:                                                                                                  #  NOTHROTL      078             BIT 12 FLAG 5           NOTHRBIT
000152:                                                                                                  #  NOUPFLAG      024             BIT 6 FLAG 1            NOUPFBIT
000153:                                                                                                  #  NO511FLG      177             BIT 3 FLAG 11           NO511BIT
000154:                                                                                                  #  NRMNVFLG      067             BIT 8 FLAG 4            NRMNVBIT
000155:                                                                                                  #  NRMIDFLG      062             BIT 13 FLAG 4           NRMIDBIT
000156:                                                                                                  #  NRUPTFLG      071             BIT 4 FLAG 4            NRUPTBIT
000157:                                                                                                  #  NTARGFLG      102             BIT 3 FLAG 6            NTARGBIT
000158:                                                                                                  #  NWAITFLG      065             BIT 10 FLAG 4           NWAITBIT
000159:                                                                                                  #  OLDESFLG      014             BIT 1 FLAG 0            OLDESBIT
000160:                                                                                                  #  ORBWFLAG      054             BIT 6 FLAG 3            ORBWFBIT
000161:                                                                                                  #  ORDERSW       129             BIT 6 FLAG 8            ORDERBIT
000162:                                                                                                  #  OURRCFLG      198             BIT 12 FLAG 13          OURRCBIT
000163:                                                                                                  #  PDSPFLAG      063             BIT 12 FLAG 4           PDSPFBIT
000164:                                                                                                  #  PFRATFLG      041             BIT 4 FLAG 2            PFRATBIT
000165:                                                                                                  #  PINBRFLG      069             BIT 6 FLAG 4            PINBRBIT
000166:                                                                                                  #  POOHFLAG      045             BIT 15 FLAG 3           POOHBIT
000167:                                                                                                  #  PRECIFLG      052             BIT 8 FLAG 3            PRECIBIT
000168:                                                                                                  #  PRIODFLG      061             BIT 14 FLAG 1           PRIODBIT
000169:                                                                                                  #  PRONVFLG      068             BIT 7 FLAG 4            PRONVBIT
000170:                                                                                                  #  PSTHIGAT      169             BIT 11 FLAG 11          PSTHIBIT
000171:                                                                                                  #  PULSEFLG      195             BIT 15 FLAG 13          PULSES
000172:                                                                                                  #  P21FLAG       004             BIT 11 FLAG 0           P21FLBIT
000173:                                                                                                  #  P25FLAG       006             BIT 9 FLAG 0            P25FLBIT
000174:                                                                                                  #  P7071FLG      137             BIT 13 FLAG 9           P7071BIT


000176:                                                                                                  #  QUITFLAG      145             BIT 5 FLAG 9            QUITBIT
000177:                                                                                                  #  RADMODES                      FLGWRD12
000178:                                                                                                  #  RASFLAG                       FLGWRD10
000179:                                                                                                  #  RCDUFAIL      188             BIT 7 FLAG 12           RCDUFBIT
000180:                                                                                                  #  RCDU0FLG      182             BIT 13 FLAG 12          RCDU0BIT
000181:                                                                                                  #  READRFLG      051             BIT 9 FLAG 3            READRBIT        EQUIVALENT FLAG NAME:  R04FLAG
000182:                                                                                                  #  READVEL       175             BIT 5 FLAG 11           READVBIT
000183:                                                                                                  #  REDFLAG       099             BIT 6 FLAG 6            REDFLBIT
000184:                                                                                                  #  REFSMFLG      047             BIT 13 FLAG 3           REFSMBIT
000185:                                                                                                  #  REINTFLG      158             BIT 7 FLAG 10           REINTBIT
000186:                                                                                                  #  REMODFLG      181             BIT 14 FLAG 12          REMODBIT
000187:                                                                                                  #  RENDWFLG      089             BIT 1 FLAG 5            RENDWBIT
000188:                                                                                                  #  REPOSMON      184             BIT 11 FLAG 12          REPOSBIT
000189:                                                                                                  #  RHCSCFLG      203             BIT 7 FLAG 13           RHCSCALE
000190:                                                                                                  #  RNDVZFLG      008             BIT 7 FLAG 0            RNDVZBIT
000191:                                                                                                  #  RNGEDATA      176             BIT 4 FLAG 11           RNGEDBIT
000192:                                                                                                  #  RNGSCFLG      080             BIT 10 FLAG 5           RNGSCBIT
000193:                                                                                                  #  RODFLAG       018             BIT 12 FLAG 1           RODFLBIT
000194:                                                                                                  #  ROTFLAG       144             BIT 6 FLAG 9            ROTFLBIT
000195:                                                                                                  #  RPQFLAG       120             BIT 15 FLAG 8           RPQFLBIT
000196:                                                                                                  #  RRDATAFL      191             BIT 4 FLAG 12           RRDATABT
000197:                                                                                                  #  RRNBSW        009             BIT 6 FLAG 0            RRNBBIT
000198:                                                                                                  #  RRRSFLAG      192             BIT 3 FLAG 12           RRRSBIT
000199:                                                                                                  #  RVSW          111             BIT 9 FLAG 7            RVSWBIT
000200:                                                                                                  #  R04FLAG       051             BIT 9 FLAG 3            R04FLBIT        EQUIVALENT FLAG NAME:  READRFLG
000201:                                                                                                  #  R10FLAG       013             BIT 2 FLAG 0            R10FLBIT
000202:                                                                                                  #  R61FLAG       020             BIT 10 FLAG 1           R61FLBIT
000203:                                                                                                  #  R77FLAG       079             BIT 11 FLAG 5           R77FLBIT
000204:                                                                                                  #  SLOPESW       027             BIT 3 FLAG 1            SLOPEBIT
000205:                                                                                                  #  SNUFFER       077             BIT 13 FLAG 5           SNUFFBIT
000206:                                                                                                  #  SOLNSW        087             BIT 3 FLAG 5            SOLNSBIT
000207:                                                                                                  #  SRCHOPTN      031             BIT 14 FLAG 2           SRCHOBIT
000208:                                                                                                  #  STATEFLG      055             BIT 5 FLAG 3            STATEBIT
000209:                                                                                                  #  STEERSW       034             BIT 11 FLAG 2           STEERBIT
000210:                                                                                                  #  SURFFLAG      127             BIT 8 FLAG 8            SURFFBIT
000211:                                                                                                  #  SWANDISP      109             BIT 11 FLAG 7           SWANDBIT
000212:                                                                                                  #  S32.1F1       090             BIT 15 FLAG 6           S32BIT1
000213:                                                                                                  #  S32.1F2       092             BIT 14 FLAG 6           S32BIT2
000214:                                                                                                  #  S32.1F3A      092             BIT 13 FLAG 6           S32BIT3A
000215:                                                                                                  #  S32.1S3B      093             BIT 12 FLAG 6           S32BIT3B
000216:                                                                                                  #  TFFSW         119             BIT 1 FLAG 7            TFFSWBIT
000217:                                                                                                  #  TRACKFLG      025             BIT 5 FLAG 1            TRACKBIT
000218:                                                                                                  #  TURNONFL      194             BIT 1 FLAG 12           TURNONBT
000219:                                                                                                  #  ULLAGFLG      204             BIT 6 FLAG 13           ULLAGER
000220:                                                                                                  #  UPDATFLG      023             BIT 7 FLAG 1            UPDATBIT
000221:                                                                                                  #  UPLOCKFL      116             BIT 4 FLAG 7            UPLOCBIT
000222:                                                                                                  #  USEQRFLG      196             BIT 14 FLAG 13          USEQRJTS
000223:                                                                                                  #  VEHUPFLG      022             BIT 8 FLAG 1            VEHUPBIT
000224:                                                                                                  #  VELDATA       173             BIT 7 FLAG 11           VELDABIT
000225:                                                                                                  #  VERIFLAG      117             BIT 3 FLAG 7            VERIFBIT


000227:                                                                                                  #  VFLAG         050             BIT 10 FLAG 3           VFLAGBIT
000228:                                                                                                  #  VFLSHFLG      178             BIT 2 FLAG 11           VFLSHBIT
000229:                                                                                                  #  VINTFLAG      057             BIT 3 FLAG 3            VINTFBIT
000230:                                                                                                  #  VXINH         168             BIT 12 FLAG 11          VXINHBIT
000231:                                                                                                  #  V37FLAG       114             BIT 6 FLAG 7            V37FLBIT
000232:                                                                                                  #  V67FLAG       112             BIT 8 FLAG 7            V67FLBIT
000233:                                                                                                  #  V82EMFLG      118             BIT 2 FLAG 7            V82EMBIT
000234:                                                                                                  #  XDELVFLG      037             BIT 8 FLAG 2            XDELVBIT
000235:                                                                                                  #  XDSPFLAG      074             BIT 1 FLAG 4            XDSPBIT
000236:                                                                                                  #  XORFLG        171             BIT 9 FLAG 11           XORFLBIT
000237:                                                                                                  #  XOVINFLG      201             BIT 9 FLAG 13           XOVINHIB
000238:                                                                                                  #  ZOOMFLAG      082             BIT 8 FLAG 5            ZOOMBIT
000239:                                                                                                  #  3AXISFLG      084             BIT 6 FLAG 5            3AXISBIT
000240:                                                                                                  #  360SW         134             BIT 1 FLAG 8            360SWBIT
000241:
000242:                                                                                                  #  ASSIGNMENT AND DESCRIPTION OF FLAGWORDS
000243:
000244: 26,2022     0074               FLAGWRD0           =        STATE      +0                         #  (000-014)
000245:
000246:                                                                                                  #        (SET)                   (RESET)
000247:
000248:                                                                                                  #  BIT 15 FLAG 0 (S)
000249: 26,2022                        NEED2FLG           =        000D                                  #        DISPLAY DAP RATES       CHECK BIT 4 OF THIS
000250: 26,2022     4735               NEED2BIT           =        BIT15                                 #        ON FDAI NEEDLES.        WORD FOR DISPLAY
000251:                                                                                                  #                                MODES (1 OR 2).
000252:
000253:                                                                                                  #  BIT 14 FLAG 0 (S)
000254: 26,2022                        JSWITCH            =        001D                                  #        INTEGRATION OF W        INTEGRATION OF STATE
000255: 26,2022     4736               JSWCHBIT           =        BIT14                                 #        MATRIX                  VECTOR
000256:
000257:                                                                                                  #  BIT 13 FLAG 0 (S)
000258: 26,2022                        MIDFLAG            =        002D                                  #        INTEGRATION WITH        INTEGRATION WITHOUT
000259:                                                                                                  #        SECONDARY BODY AND      SOLAR PERTURBATIONS
000260: 26,2022     4737               MIDFLBIT           =        BIT13                                 #        SOLAR PERTURBATIONS
000261:
000262:                                                                                                  #  BIT 12 FLAG 0 (L)
000263: 26,2022                        MOONFLAG           =        003D                                  #        MOON IS SPHERE OF       EARTH IS SPHERE OF
000264: 26,2022     4740               MOONBIT            =        BIT12                                 #        INFLUENCE               INFLUENCE
000265:
000266:                                                                                                  #  BIT 11 FLAG 0
000267: 26,2022                        P21FLAG            =        004D                                  #        USE BASE VECTORS        1ST PASS -- CALC-
000268: 26,2022     4741               P21FLBIT           =        BIT11                                 #        ALREADY CALCULATED      ULATE BASE VECTORS
000269:


000271:                                                                                                  #  BIT 10 FLAG 0
000272: 26,2022                        FSPASFLG           =        005D                                  #        FIRST PASS THROUGH      NOT FIRST PASS THRU
000273: 26,2022     4742               FSPASBIT           =        BIT10                                 #        REPOSITION ROUTINE      REPOSITION ROUTINE
000274:
000275:                                                                                                  #  BIT 9 FLAG 0  (S)
000276: 26,2022                        P25FLAG            =        006D                                  #        P25 OPERATING           P25 NOT OPERATING
000277: 26,2022     4743               P25FLBIT           =        BIT9
000278:
000279:                                                                                                  #  BIT 8 FLAG 0  (S)
000280: 26,2022                        IMUSE              =        007D                                  #        IMU IN USE              IMU NOT IN USE
000281: 26,2022     4744               IMUSEBIT           =        BIT8
000282:
000283:                                                                                                  #  BIT 7 FLAG 0  (S)
000284: 26,2022                        RNDVZFLG           =        008D                                  #        P20 RUNNING (RADAR      P20 NOT RUNNING
000285: 26,2022     4745               RNDVZBIT           =        BIT7                                  #        IN USE)
000286:
000287:                                                                                                  #  BIT 6 FLAG 0  (S)
000288: 26,2022                        RRNBSW             =        009D                                  #        RADAR TARGET IN RADAR TARGET IN
000289: 26,2022     4746               RRNBBIT            =        BIT6                                  #        NB COORDINATES  SM COORDINATES
000290:
000291:                                                                                                  #  BIT 5 FLAG 0  (S)
000292: 26,2022                        LOKONSW            =        010D                                  #        RADAR LOCK-ON           RADAR LOCK-ON NOT
000293: 26,2022     4747               LOKONBIT           =        BIT5                                  #        DESIRED                 DESIRED
000294:
000295:                                                                                                  #  BIT 4 FLAG 0  (S)
000296: 26,2022                        NEEDLFLG           =        011D                                  #        TOTAL ATTITUDE  A/P FOLLOWING
000297: 26,2022     4750               NEEDLBIT           =        BIT4                                  #        ERROR DISPLAYED ERROR DISPLAYED
000298:
000299:                                                                                                  #  BIT 3 FLAG 0
000300: 26,2022                        FREEFLAG           =        012D                                  #  (USED BY P51-53 TEMP IN MANY DIFFERENT
000301:                                                                                                  #  ROUTINES & BY LUNAR + SOLAR EPHEMERIDES)
000302: 26,2022     4751               FREEFBIT           =        BIT3
000303:
000304:                                                                                                  #  BIT 2 FLAG 0
000305: 26,2022                        R10FLAG            =        013D                                  #        R10 OUTPUTS DATA TO     BESIDES OUTPUT WHEN
000306: 26,2022     4752               R10FLBIT           =        BIT2                                  #        ALTITUDE & ALTITUDE     SET, R10 ALSO OUTPUT
000307:                                                                                                  #        RATE METERS ONLY        TO FORWARD & LATERAL
000308:                                                                                                  #                                VELOCITY CROSSPOINTR
000309:
000310:                                                                                                  #  BIT 1 FLAG 0  (L)
000311: 26,2022                        OLDESFLG           =        014D                                  #        R29 GYRO CMD LOOP       R29 GYRO CMD LOOP


000313: 26,2022     4753               OLDESBIT           =        BIT1                                  #        REQUESTED               NOT REQUESTED
000314:
000315: 26,2022     0075               FLAGWRD1           =        STATE      +1                         #  (015-029)
000316:
000317:                                                                                                  #        (SET)                   (RESET)
000318:
000319:                                                                                                  #  BIT 15 FLAG 1 (S)
000320: 26,2022                        NJETSFLG           =        015D                                  #        TWO JET RCS BURN        FOUR JET RCS BURN
000321: 26,2022     4735               NJETSBIT           =        BIT15
000322:
000323:                                                                                                  #  BIT 14 FLAG 1 (L)
000324: 26,2022                        DIDFLAG            =        016D                                  #        INERTIAL DATA IS        PERFORM DATA DISPLAY
000325: 26,2022     4736               DIDFLBIT           =        BIT14                                 #        AVAILABLE               INITIALIZATION FUNCS
000326:
000327:                                                                                                  #  BIT 13 FLAG 1 (S)
000328: 26,2022                        ERADFLAG           =        017D                                  #        COMPUTE REARTH          USE CONSTANT REARTH
000329: 26,2022     4737               ERADFBIT           =        BIT13                                 #        FISCHER ELLIPSOID       PAD RADIUS
000330:
000331:                                                                                                  #  BIT 12 FLAG 1
000332: 26,2022                        RODFLAG            =        018D                                  #        IF IN P66, NORMAL       IF IN P66, RE-INIT-
000333: 26,2022     4740               RODFLBIT           =        BIT12                                 #        OPERATION CONTINUES.    IALIZATION IS PER-
000334:                                                                                                  #        RESTART CLEARS FLAG     FORMED AND FLAG IS
000335:
000336:                                                                                                  #  BIT 11 FLAG 1
000337:                                                                                                  #                =       019D
000338:                                                                                                  #                =       BIT11
000339:
000340:                                                                                                  #  BIT 10 FLAG 1 (L)
000341: 26,2022                        R61FLAG            =        020D                                  #        RUN R61 LEM             RUN R65 LEM
000342: 26,2022     4742               R61FLBIT           =        BIT10
000343:
000344:                                                                                                  #  BIT 9 FLAG 1
000345:                                                                                                  #                =       021D
000346:                                                                                                  #                =       BIT9
000347:
000348:                                                                                                  #  BIT 8 FLAG 1  (S)
000349: 26,2022                        VEHUPFLG           =        022D                                  #        CSM STATE VECTOR        LEM STATE VECTOR
000350: 26,2022     4744               VEHUPBIT           =        BIT8                                  #        BEING UPDATED           BEING UPDATED
000351:
000352:                                                                                                  #  BIT 7 FLAG 1  (S)
000353: 26,2022                        UPDATFLG           =        023D                                  #        UPDATING BY MARKS       UPDATING BY MARKS
000354: 26,2022     4745               UPDATBIT           =        BIT7                                  #        ALLOWED                 NOT ALLOWED
000355:


000357:                                                                                                  #  BIT 6 FLAG 1  (S)
000358: 26,2022                        NOUPFLAG           =        024D                                  #        NEITHER CSM             EITHER STATE
000359:                                                                                                  #        NOR LM STATE VECTOR     VECTOR MAY BE
000360: 26,2022     4746               NOUPFBIT           =        BIT6                                  #        MAY BE UPDATED          UPDATED
000361:
000362:                                                                                                  #  BIT 5 FLAG 1  (S)
000363: 26,2022                        TRACKFLG           =        025D                                  #        TRACKING ALLOWED        TRACKING NOT ALLOWED
000364: 26,2022     4747               TRACKBIT           =        BIT5
000365:
000366:                                                                                                  #  BIT 4 FLAG 1
000367:                                                                                                  #                =       026D
000368:                                                                                                  #                =       BIT4
000369:
000370:                                                                                                  #  BIT 3 FLAG 1  (S)
000371: 26,2022                        SLOPESW            =        027D                                  #        ITERATE WITH BIAS       ITERATE WITH REGULAR
000372:                                                                                                  #        METHOD IN ITERATOR      FALSI METHOD IN
000373: 26,2022     4751               SLOPEBIT           =        BIT3                                  #                                ITERATOR
000374:
000375:                                                                                                  #  BIT 2 FLAG 1  (S)
000376: 26,2022                        GUESSW             =        028D                                  #        NO STARTING VALUE       STARTING VALUE FOR
000377: 26,2022     4752               GUESSBIT           =        BIT2                                  #        FOR ITERATION           ITERATION EXISTS
000378:
000379:                                                                                                  #  BIT 1 FLAG 1
000380:                                                                                                  #                =       029D
000381:
000382: 26,2022     0076               FLAGWRD2           =        STATE      +2                         #  (030-044)
000383:
000384:                                                                                                  #        (SET)                   (RESET)
000385:
000386:                                                                                                  #  BIT 15 FLAG 2 (S)
000387: 26,2022                        DRIFTFLG           =        030D                                  #        T3RUPT CALLS GYRO       T3RUPT DOES NO GYRO
000388: 26,2022     4735               DRFTBIT            =        BIT15                                 #        COMPENSATION            COMPENSATION
000389:
000390:                                                                                                  #  BIT 14 FLAG 2 (S)
000391: 26,2022                        SRCHOPTN           =        031D                                  #        RADAR IN AUTOMATIC      RADAR NOT IN AUTO-
000392: 26,2022     4736               SRCHOBIT           =        BIT14                                 #        SEARCH OPTION (R24)     MATIC SEARCH OPTION
000393:
000394:                                                                                                  #  BIT 13 FLAG 2 (S)
000395: 26,2022                        ACMODFLG           =        032D                                  #        MANUAL ACQUISITION      AUTO ACQUISITION
000396: 26,2022     4737               ACMODBIT           =        BIT13                                 #        BY RENDESVOUS RADAR     BY RENDESVOUS RADAR
000397:


000399:                                                                                                  #  BIT 12 FLAG 2 (S)
000400: 26,2022                        LOSCMFLG           =        033D                                  #        LINE OF SIGHT BEING     LINE OF SIGHT NOT
000401:                                                                                                  #        COMPUTED (R21)          BEING COMPUTED
000402: 26,2022     4740               LOSCMBIT           =        BIT12
000403:                                                                                                  #        IN R29 (L): RR GYRO     IN R29 (L): RR GYRO
000404:                                                                                                  #        CMD LOOP RUNNING        CMD LOOP OFF
000405:
000406:                                                                                                  #  BIT 11 FLAG 2 (S)
000407: 26,2022                        STEERSW            =        034D                                  #        SUFFICIENT THRUST       INSUFFICIENT THRUST
000408: 26,2022     4741               STEERBIT           =        BIT11                                 #        IS PRESENT              IS PRESENT
000409:
000410:                                                                                                  #  BIT 10 FLAG 2 (S)
000411: 26,2022                                           =        035D
000412: 26,2022                                           =        BIT10
000413:
000414:                                                                                                  #  BIT 9 FLAG 2 (S)
000415: 26,2022                        IMPULSW            =        036D                                  #        MINIMUM IMPULSE         STEERING BURN (NO
000416:                                                                                                  #        BURN (CUTOFF TIME       CUTOFF TIME YET
000417: 26,2022     4743               IMPULBIT           =        BIT9                                  #        SPECIFIED)              AVAILABLE)
000418:
000419:                                                                                                  #  BIT 8 FLAG 2 (S)
000420: 26,2022                        XDELVFLG           =        037D                                  #        EXTERNAL DELTAV VG      LAMBERT (AIMPOINT)
000421: 26,2022     4744               XDELVBIT           =        BIT8                                  #        COMPUTATION             VG COMPUTATION
000422:
000423:                                                                                                  #  BIT 7 FLAG 2 (S)
000424: 26,2022                        ETPIFLAG           =        038D                                  #        ELEVATION ANGLE         TPI TIME SUPPLIED
000425:                                                                                                  #        SUPPLIED FOR            FOR P34,74 TO COMPUT
000426: 26,2022     4745               ETPIBIT            =        BIT7                                  #        P34,74                  ELEVATION
000427:
000428:                                                                                                  #  BIT 6 FLAG 2 (S)
000429: 26,2022                        FINALFLG           =        039D                                  #        LAST PASS THROUGH       INTERIM PASS THROUGH
000430:                                                                                                  #        RENDEZVOUS PROGRAM      RENDEZVOUS PROGRAM
000431: 26,2022     4746               FINALBIT           =        BIT6                                  #        COMPUTATIONS            COMPUTATIONS
000432:
000433:                                                                                                  #  BIT 5 FLAG 2 (S)
000434: 26,2022                        AVFLAG             =        040D                                  #        LEM IS ACTIVE           CSM IS ACTIVE
000435: 26,2022     4747               AVFLBIT            =        BIT5                                  #        VEHICLE                 VEHICLE
000436:
000437:                                                                                                  #  BIT 4 FLAG 2 (S)
000438: 26,2022                        PFRATFLG           =        041D                                  #        PREFERRED ATTITUDE      PREFERRED ATTITUDE
000439: 26,2022     4750               PFRATBIT           =        BIT4                                  #        COMPUTED                NOT COMPUTED
000440:


000442:                                                                                                  #  BIT 3 FLAG 2 (S)
000443: 26,2022                        CALCMAN3           =        042D                                  #        NO FINAL ROLL           FINAL ROLL IS
000444: 26,2022     4751               CALC3BIT           =        BIT3                                  #                                NECESSARY
000445:
000446:                                                                                                  #  BIT 2 FLAG 2 (S)
000447: 26,2022                        CALCMAN2           =        043D                                  #        PERFORM MANEUVER        BYPASS STARTING
000448: 26,2022     4752               CALC2BIT           =        BIT2                                  #        STARTING PROCEDURE      PROCEDURE
000449:
000450:                                                                                                  #  BIT 1 FLAG 2 (S)
000451: 26,2022                        NODOFLAG           =        044D                                  #        V37 NOT PERMITTED       V37 PERMITTED
000452: 26,2022     4753               NODOBIT            =        BIT1
000453:
000454: 26,2022     0077               FLAGWRD3           =        STATE      +3                         #  (045-059)
000455:
000456:                                                                                                  #        (SET)                   (RESET)
000457:
000458:                                                                                                  #  BIT 15 FLAG 3
000459: 26,2022                        POOHFLAG           =        045D                                  #        INHIBIT BACKWARDS       ALLOW BACKWARDS
000460: 26,2022     4735               POOHBIT            =        BIT15                                 #        INTEGRATION             INTEGRATION
000461:
000462:                                                                                                  #  BIT 14 FLAG 3 (S)
000463: 26,2022                        GLOKFAIL           =        046D                                  #        GIMBAL LOCK HAS         NOT IN GIMBAL LOCK
000464: 26,2022     4736               GLOKFBIT           =        BIT14                                 #        OCCURRED
000465:
000466:                                                                                                  #  BIT 13 FLAG 3 *** PROTECTED FROM FRESH START ***
000467: 26,2022                        REFSMFLG           =        047D                                  #        REFSMMAT GOOD           REFSMMAT NO GOOD
000468: 26,2022     4737               REFSMBIT           =        BIT13
000469:
000470:                                                                                                  #  BIT 12 FLAG 3 (S)
000471: 26,2022                        LUNAFLAG           =        048D                                  #        LUNAR LAT-LONG          EARTH LAT-LONG
000472: 26,2022     4740               LUNABIT            =        BIT12
000473:
000474:                                                                                                  #  BIT 11 FLAG 3 (L)
000475: 26,2022                        NOR29FLG           =        049D                                  #        R29 NOT ALLOWED         R29 ALOWED (RR DES-
000476: 26,2022     4741               NR29FBIT           =        BIT11                                 #                                IGNATE, POWERED FLT)
000477:
000478:                                                                                                  #  BIT 10 FLAG 3 (S)
000479: 26,2022                        VFLAG              =        050D                                  #        LESS THAN TWO STARS     TWO STARS IN FIELD
000480: 26,2022     4742               VFLAGBIT           =        BIT10                                 #        IN FIELD OF VIEW        OF VIEW
000481:
000482:                                                                                                  #  BIT 9 FLAG 3  (S)


000484: 26,2022                        R04FLAG            =        051D                                  #        ALARM 521               ALARM 521 ALLOWED
000485:                                                                                                  #        SUPPRESSED
000486: 26,2022     4743               R04FLBIT           =        BIT9
000487:
000488:                                                                                                  #  BIT 9 FLAG 3  (L)
000489: 26,2022  0000063               READRFLG           =        R04FLAG                               #        READING RR DATA         NOT READING RR DATA
000490: 26,2022     4743               READRBIT           =        BIT9                                  #        PURSUANT TO R29         PURSUANT TO R29
000491:
000492:                                                                                                  #  BIT 8 FLAG 3  (S)
000493: 26,2022                        PRECIFLG           =        052D                                  #        NORMAL INTEGRATION      ENGAGES 4-TIME STEP
000494:                                                                                                  #        IN POO                  (POO) LOGIC IN INTE-
000495: 26,2022     4744               PRECIBIT           =        BIT8                                  #                                GRATION
000496:
000497:                                                                                                  #  BIT 7 FLAG 3  (S)
000498: 26,2022                        CULTFLAG           =        053D                                  #        STAR OCCULTED           STAR NOT OCCULTED
000499: 26,2022     4745               CULTBIT            =        BIT7
000500:
000501:                                                                                                  #  BIT 6 FLAG 3  (S)
000502: 26,2022                        ORBWFLAG           =        054D                                  #        W MATRIX VALID FOR      W MATRIX INVALID FOR
000503: 26,2022     4746               ORBWFBIT           =        BIT6                                  #        ORBITAL NAVIGATION      ORBITAL NAVIGATION
000504:
000505:                                                                                                  #  BIT 5 FLAG 3  (S)
000506: 26,2022                        STATEFLG           =        055D                                  #        PERMANENT STATE         PERMANENT STATE
000507: 26,2022     4747               STATEBIT           =        BIT5                                  #        VECTOR UPDATED          VECTOR NOT UPDATED
000508:
000509:                                                                                                  #  BIT 4 FLAG 3  (S)
000510: 26,2022                        INTYPFLG           =        056D                                  #        CONIC INTEGRATION       ENCKE INTEGRATION
000511: 26,2022     4750               INTYPBIT           =        BIT4
000512:
000513:                                                                                                  #  BIT 3 FLAG 3  (S)
000514: 26,2022                        VINTFLAG           =        057D                                  #        CSM STATE VECTOR        LEM STATE VECTOR
000515: 26,2022     4751               VINTFBIT           =        BIT3                                  #        BEING INTEGRATED        BEING INTEGRATED
000516:
000517:                                                                                                  #  BIT 2 FLAG 3 (S)
000518: 26,2022                        D6OR9FLG           =        058D                                  #        DIMENSION OF W IS 9     DIMENSION OF W IS 6
000519: 26,2022     4752               D6OR9BIT           =        BIT2                                  #        FOR INTEGRATION         FOR INTEGRATION
000520:
000521:                                                                                                  #  BIT 1 FLAG 3  (S)
000522: 26,2022                        DIM0FLAG           =        059D                                  #        W MATRIX IS TO BE       W MATRIX IS NOT TO
000523: 26,2022     4753               DIM0BIT            =        BIT1                                  #        USED                    BE USED
000524:


000526: 26,2022     0100               FLAGWRD4           =        STATE      +4                         #  (060-074)
000527:
000528:                                                                                                  #        (SET)                   (RESET)
000529:
000530:                                                                                                  #  BIT 15 FLAG 4 (S)
000531: 26,2022                        MRKIDFLG           =        060D                                  #        MARK DISPLAY IN         NO MARK DISPLAY IN
000532: 26,2022     4735               MRKIDBIT           =        BIT15                                 #        ENDIDLE                 ENDIDLE
000533:
000534:                                                                                                  #  BIT 14 FLAG 4 (S)
000535: 26,2022                        PRIODFLG           =        061D                                  #        PRIORITY DISPLAY IN     NO PRIORITY DISPLAY
000536: 26,2022     4736               PRIODBIT           =        BIT14                                 #        ENDIDLE                 IN ENDIDLE
000537:
000538:                                                                                                  #  BIT 13 FLAG 4 (S)
000539: 26,2022                        NRMIDFLG           =        062D                                  #        NORMAL DISPLAY IN       NO NORMAL DISPLAY
000540: 26,2022     4737               NRMIDBIT           =        BIT13                                 #        ENDIDLE                 IN ENDIDLE
000541:
000542:                                                                                                  #  BIT 12 FLAG 4 (S)
000543: 26,2022                        PDSPFLAG           =        063D                                  #        P20 SETS SO AS TO       LEAVE AS NORMAL DISP
000544:                                                                                                  #        TURN A NORMAL DIS-
000545: 26,2022     4740               PDSPFBIT           =        BIT12                                 #        PLAY INTO A PRIORITY
000546:                                                                                                  #        DISPLAY IN R60
000547:
000548:                                                                                                  #  BIT 11 FLAG 4 (S)
000549: 26,2022                        MWAITFLG           =        064D                                  #        HIGHER PRIORITY         NO HIGHER PRIORITY
000550:                                                                                                  #        DISPLAY OPERATING       DISPLAY OPERATING
000551: 26,2022     4741               MWAITBIT           =        BIT11                                 #        WHEN MARK DISPLAY       WHEN MARK DISPLAY
000552:                                                                                                  #        INITIATED               INITIATED
000553:
000554:                                                                                                  #  BIT 10 FLAG 4 (S)
000555: 26,2022                        NWAITFLG           =        065D                                  #        HIGHER PRIORITY         NO HIGHER PRIORITY
000556:                                                                                                  #        DISPLAY OPERATING       DISPLAY OPERATING
000557: 26,2022     4742               NWAITBIT           =        BIT10                                 #        WHEN NORMAL             WHEN NORMAL DISPLAY
000558:                                                                                                  #        DISPLAY INITIATED       INITIATED
000559:
000560:                                                                                                  #  BIT 9 FLAG 4  (S)
000561: 26,2022                        MRKNVFLG           =        066D                                  #        ASTRONAUT USING         ASTRONAUT NOT USING
000562:                                                                                                  #        KEYBOARD WHEN MARK      KEYBOARD WHEN MARK
000563: 26,2022     4743               MRKNVBIT           =        BIT9                                  #        DISPLAY INITIATED       DISPLAY INITIATED
000564:
000565:                                                                                                  #  BIT 8 FLAG 4  (S)
000566: 26,2022                        NRMNVFLG           =        067D                                  #        ASTRONAUT USING         ASTRONAUT NOT USING
000567:                                                                                                  #        KEYBOARD WHEN           KEYBOARD WHEN
000568: 26,2022     4744               NRMNVBIT           =        BIT8                                  #        NORMAL DISPLAY          NORMAL DISPLAY
000569:                                                                                                  #        INITIATED               INITIATED
000570:


000572:                                                                                                  #  BIT 7 FLAG 4  (S)
000573: 26,2022                        PRONVFLG           =        068D                                  #        ASTRONAUT USING         ASTRONAUT NOT USING
000574:                                                                                                  #        KEYBOARD WHEN           KEYBOARD WHEN
000575: 26,2022     4745               PRONVBIT           =        BIT7                                  #        PRIORITY DISPLAY        PRIORITY DISPLAY
000576:                                                                                                  #        INITIATED               INITIATED
000577:
000578:                                                                                                  #  BIT 6 FLAG 4  (S)
000579: 26,2022                        PINBRFLG           =        069D                                  #        ASTRONAUT HAS           ASTRONAUT HAS NOT
000580:                                                                                                  #        INTERFERED WITH         INTERFERED WITH
000581: 26,2022     4746               PINBRBIT           =        BIT6                                  #        EXISTING DISPLAY        EXISTING DISPLAY
000582:
000583:                                                                                                  #  BIT 5 FLAG 4  (S)
000584: 26,2022                        MRUPTFLG           =        070D                                  #        MARK DISPLAY            MARK DISPLAY NOT
000585:                                                                                                  #        INTERRUPTED BY          INTERRUPTED BY
000586: 26,2022     4747               MRUPTBIT           =        BIT5                                  #        PRIORITY DISPLAY        PRIORITY DISPLAY
000587:
000588:                                                                                                  #  BIT 4 FLAG 4  (S)
000589: 26,2022                        NRUPTFLG           =        071D                                  #        NORMAL DISPLAY          NORMAL DISPLAY NOT
000590:                                                                                                  #        INTERRUPTED BY          INTERRUPTED BY
000591: 26,2022     4750               NRUPTBIT           =        BIT4                                  #        PRIORITY OR MARK        PRIORITY OR MARK
000592:                                                                                                  #        DISPLAY                 DISPLAY
000593:
000594:                                                                                                  #  BIT 3 FLAG 4  (S)
000595: 26,2022                        MKOVFLAG           =        072D                                  #        MARK DISPLAY OVER       NO MARK DISPLAY OVER
000596: 26,2022     4751               MKOVBIT            =        BIT3                                  #        NORMAL                  NORMAL
000597:
000598:                                                                                                  #  BIT 2 FLAG 4
000599:                                                                                                  #                =       073D
000600:
000601:                                                                                                  #  BIT 1 FLAG 4  (S)
000602: 26,2022                        XDSPFLAG           =        074D                                  #        MARK DISPLAY NOT        NO SPECIAL MARK
000603: 26,2022     4753               XDSPBIT            =        BIT1                                  #        TO BE INTERRUPTED       INFORMATION
000604:
000605: 26,2022     0101               FLAGWRD5           =        STATE      +5                         #  (075-089)
000606:
000607:                                                                                                  #        (SET)                   (RESET)
000608:
000609:                                                                                                  #  BIT 15 FLAG 5 (S)
000610: 26,2022                        DSKYFLAG           =        075D                                  #        DISPLAYS SENT TO        NO DISPLAYS TO DSKY
000611: 26,2022     4735               DSKYFBIT           =        BIT15                                 #        DSKY
000612:
000613:                                                                                                  #  BIT 14 FLAG 5
000614:                                                                                                  #                =       076D
000615:                                                                                                  #                =       BIT14
000616:


000618:                                                                                                  #  BIT 13 FLAG 5 (S,L)
000619: 26,2022                        SNUFFER            =        077D                                  #        U,V JETS DISABLED       U,V JETS ENABLED
000620:                                                                                                  #        DURING DPS              DURING DPS
000621: 26,2022     4737               SNUFFBIT           =        BIT13                                 #        BURNS (V65)             BURNS (V75)
000622:
000623:                                                                                                  #  BIT 12 FLAG 5 (S)
000624: 26,2022                        NOTHROTL           =        078D                                  #        INHIBIT FULL            PERMIT FULL THROTTLE
000625: 26,2022     4740               NOTHRBIT           =        BIT12                                 #        THROTTLE
000626:
000627:                                                                                                  #  BIT 11 FLAG 5 (S,L)
000628: 26,2022                        R77FLAG            =        079D                                  #        R77 IS ON,              R77 IS NOT ON.
000629:                                                                                                  #        SUPPRESS ALL RADAR
000630:                                                                                                  #        ALARMS AND TRACKER
000631: 26,2022     4741               R77FLBIT           =        BIT11                                 #        FAILS
000632:
000633:                                                                                                  #  BIT 10 FLAG 5 (S)
000634: 26,2022                        RNGSCFLG           =        080D                                  #        SCALE CHANGE HAS        NO SCALE CHANGE HAS
000635:                                                                                                  #        OCCURRED DURING         OCCURRED DURING
000636: 26,2022     4742               RNGSCBIT           =        BIT10                                 #        RR READING              RR READING
000637:
000638:                                                                                                  #  BIT 9 FLAG 5  (S)
000639: 26,2022                        DMENFLG            =        081D                                  #        DIMENSION OF W IS 9     DIMENSION OF W IS 6
000640: 26,2022     4743               DMENFBIT           =        BIT9                                  #        FOR INCORPORATION       FOR INCORPORATION
000641:
000642:                                                                                                  #  BIT 8 FLAG 5  (S)
000643: 26,2022                        ZOOMFLAG           =        082D                                  #        THROTTLE-UP HAS         THROTTLE-UP HAS NOT
000644: 26,2022     4744               ZOOMBIT            =        BIT8                                  #        OCCURRED IN P63.        YET OCCURRED IN P63.
000645:
000646:                                                                                                  #  BIT 7 FLAG 5  (S)
000647: 26,2022                        ENGONFLG           =        083D                                  #        ENGINE TURNED ON        ENGINE TURNED OFF
000648: 26,2022     4745               ENGONBIT           =        BIT7                                  #
000649:
000650:                                                                                                  #  BIT 6 FLAG 5  (S)
000651: 26,2022                        3AXISFLG           =        084D                                  #        MANEUVER SPECIFIED      MANEUVER SPECIFIED
000652:                                                                                                  #        BY THREE AXES           BY ONE AXIS; R60
000653: 26,2022     4746               3AXISBIT           =        BIT6                                  #                                CALLS VECPOINT.
000654:
000655:                                                                                                  #  BIT 5 FLAG 5
000656: 26,2022                        AORBSFLG           =        085D                                  #        PREFER PAXIS JET        PREFER PAXIS JET
000657: 26,2022     4747               AORBSYST           =        BIT5                                  #        PAIRS 7,15 AND 8,16     PAIRS 4,12 AND 3,11
000658:


000660:                                                                                                  #  BIT 4 FLAG 5  (S)
000661: 26,2022                        NORRMON            =        086D                                  #        BYPASS RR GIMBAL        PERFORM
000662: 26,2022     4750               NORRMBIT           =        BIT4                                  #        MONITOR                 RR GIMBAL MONITOR
000663:
000664:                                                                                                  #  BIT 3 FLAG 5  (S)
000665: 26,2022                        SOLNSW             =        087D                                  #        LAMBERT DOES NOT        LAMBERT CONVERGES OR
000666:                                                                                                  #        CONVERGE,OR TIME-RAD    TIME-RADIUS NON
000667: 26,2022     4751               SOLNSBIT           =        BIT3                                  #        NEARLY CIRCULAR         CIRCULAR
000668:
000669:                                                                                                  #  BIT 2 FLAG 5  (S)
000670: 26,2022                        MGLVFLAG           =        088D                                  #        LOCAL VERTICAL          MIDDLE GIMBAL ANGLE
000671:                                                                                                  #        COORDINATES             COMPUTED
000672: 26,2022     4752               MGLVFBIT           =        BIT2                                  #        COMPUTED
000673:
000674:                                                                                                  #  BIT 1 FLAG 5  (S)
000675: 26,2022                        RENDWFLG           =        089D                                  #        W MATRIX VALID          W MATRIX INVALID
000676:                                                                                                  #        FOR RENDEZVOUS          FOR RENDEZVOUS
000677: 26,2022     4753               RENDWBIT           =        BIT1                                  #        NAVIGATION              NAVIGATION
000678:
000679: 26,2022     0102               FLAGWRD6           =        STATE      +6                         #  (090-104)
000680:
000681:                                                                                                  #        (SET)                   (RESET)
000682:
000683:                                                                                                  #  BIT 15 FLAG 6 (S)
000684: 26,2022                        S32.1F1            =        090D                                  #        DELTA V AT CSI TIME     DVT1 LESS THEN MAX
000685: 26,2022     4735               S32BIT1            =        BIT15                                 #        ONE EXCEEDS MAX
000686:
000687:                                                                                                  #  BIT 14 FLAG 6 (S)
000688: 26,2022                        S32.1F2            =        091D                                  #        FIRST PASS OF           REITERATION OF
000689: 26,2022     4736               S32BIT2            =        BIT14                                 #        NEWTON ITERATION        NEWTON
000690:
000691:                                                                                                  #  BIT 13 FLAG 6 (S)
000692: 26,2022                        S32.1F3A           =        092D                                  #  BIT 13 AND BIT 12 FUNCTION AS AN ORDERED
000693: 26,2022     4737               S32BIT3A           =        BIT13                                 #  PAIR (13,12) INDICATING THE POSSIBLE OC-
000694:                                                                                                  #  CURRANCE OF 2NEWTON ITERATIONS FOR S32.1
000695:                                                                                                  #  IN THE PROGRAM IN THE FOLLOWING ORDER:
000696:                                                                                                  #  BIT 12 FLAG 6                                   (0,1) (I.E.BIT 13 RESET, BIT 12 SET)
000697: 26,2022                        S32.1F3B           =        093D                                  #       = FIRST NEWTON ITERATION BEING DONE
000698: 26,2022     4740               S32BIT3B           =        BIT12                                 #  (0,0)= FIRST PASS OF SECOND NEWT.ITERAT.
000699:                                                                                                  #  (1,1)= 50 FT/SEC STAGE OF SEC. NEWT.ITER
000700:                                                                                                  #  (1,0)= REMAINDER OF SECOND NEWTON ITERA.
000701:


000703:                                                                                                  #  BIT 11 FLAG 6 (S)
000704:
000705:                                                                                                  #  BIT 10 FLAG 6 (S)
000706: 26,2022                        GMBDRVSW           =        095D                                  #        TRIMGIMB OVER           TRIMGIMB NOT OVER
000707: 26,2022     4742               GMBDRBIT           =        BIT10                                 #
000708:
000709:                                                                                                  #  BIT 9 FLAG 6
000710:                                                                                                  #                =       096D
000711:                                                                                                  #                =       BIT9
000712:
000713:                                                                                                  #  BIT 8 FLAG 6  (S)
000714: 26,2022                        MUNFLAG            =        097D                                  #        SERVICER CALLS          SERVICER CALLS
000715: 26,2022     4744               MUNFLBIT           =        BIT8                                  #        MUNRVG                  CALCRVG
000716:
000717:                                                                                                  #  BIT 7 FLAG 6  (L)
000718: 26,2022                                           =        098D
000719: 26,2022                                           =        BIT7
000720:
000721:                                                                                                  #  BIT 6 FLAG 6  (L)
000722: 26,2022                        REDFLAG            =        099D                                  #        LANDING SITE            LANDING SITE
000723:                                                                                                  #        REDESIGNATION           REDESIGNATION NOT
000724: 26,2022     4746               REDFLBIT           =        BIT6                                  #        PERMITTED               PERMITTED
000725:
000726:                                                                                                  #  BIT 5 FLAG 6
000727:                                                                                                  #                =       100D
000728:
000729:                                                                                                  #  BIT 4 FLAG 6
000730:                                                                                                  #                =       101D
000731:
000732:                                                                                                  #  BIT 3 FLAG 6  (S)
000733: 26,2022                        NTARGFLG           =        102D                                  #        ASTRONAUT DID           ASTRONAUT DID NOT
000734:                                                                                                  #        OVERWRITE DELTA         OVERWRITE DELTA
000735: 26,2022     4751               NTARGBIT           =        BIT3                                  #        VELOCITY AT TPI         VELOCITY
000736:                                                                                                  #        OR TPM (P34,35)
000737:
000738:                                                                                                  #  BIT 2 FLAG 6
000739: 26,2022                        AUXFLAG            =        103D                                  #        PROVIDING IDLEFLAG      SERVICER WILL SKIP
000740: 26,2022     4752               AUXFLBIT           =        BIT2                                  #        IS NOT SET, SERV-       DVMON ON ITS NEXT
000741:                                                                                                  #        ICER WILL EXERCISE      PASS EVEN IF THE
000742:                                                                                                  #        DVMON ON ITS NEXT       IDLEFLAG IS NOT SET.
000743:                                                                                                  #        PASS.                   IT WILL THEN SET
000744:                                                                                                  #                                AUXFLAG.
000745:


000747:                                                                                                  #  BIT 1 FLAG 6  (L)
000748: 26,2022                        ATTFLAG            =        104D                                  #        LEM ATTITUDE EXISTS     NO LEM ATTITUDE
000749:                                                                                                  #        IN MOON-FIXED           AVAILABLE IN MOON-
000750: 26,2022     4753               ATTFLBIT           =        BIT1                                  #        COORDINATES             FIXED COORDINATES
000751:
000752: 26,2022     0103               FLAGWRD7           =        STATE      +7                         #  (105-119)
000753:
000754:                                                                                                  #        (SET)                   (RESET)
000755:
000756:                                                                                                  #  BIT 15 FLAG 7 (S)
000757: 26,2022                        ITSWICH            =        105D                                  #        P34;TPI TIME TO BE      TPI HAS BEEN
000758: 26,2022     4735               ITSWBIT            =        BIT15                                 #        COMPUTED                COMPUTED
000759:
000760:                                                                                                  #  BIT 14 FLAG 7 (S)
000761: 26,2022                        MANUFLAG           =        106D                                  #        ATTITUDE MANEUVER       NO ATTITUDE MANEUVER
000762:                                                                                                  #        GOING DURING RR         DURING RR SEARCH
000763: 26,2022     4736               MANUFBIT           =        BIT14                                 #        SEARCH
000764:
000765:                                                                                                  #  BIT 13 FLAG 7 (S)
000766: 26,2022                        IGNFLAG            =        107D                                  #        TIG HAS ARRIVED         TIG HAS NOT ARRIVED
000767: 26,2022     4737               IGNFLBIT           =        BIT13                                 #
000768:
000769:                                                                                                  #  BIT 12 FLAG 7 (S)
000770: 26,2022                        ASTNFLAG           =        108D                                  #        ASTRONAUT HAS           ASTRONAUT HAS NOT
000771: 26,2022     4740               ASTNBIT            =        BIT12                                 #        OKAYED IGNITION         OKAYED IGNITION
000772:
000773:                                                                                                  #  BIT 11 FLAG 7 (L)
000774: 26,2022                        SWANDISP           =        109D                                  #        LANDING ANALOG          LANDING ANALOG
000775: 26,2022     4741               SWANDBIT           =        BIT11                                 #        DISPLAYS ENABLED        DISPLAYS SUPPRESSED
000776:
000777:                                                                                                  #  BIT 10 FLAG 7 (S)
000778: 26,2022                        NORMSW             =        110D                                  #        UNIT NORMAL INPUT       LAMBERT COMPUTES ITS
000779: 26,2022     4742               NORMSBIT           =        BIT10                                 #        TO LAMBERT              OWN UNIT NORMAL
000780:
000781:                                                                                                  #  BIT 9 FLAG 7  (S)
000782: 26,2022                        RVSW               =        111D                                  #        DO NOT COMPUTE          COMPUTE FINAL STATE
000783:                                                                                                  #        FINAL STATE VECTOR      VECTOR IN TIME-THETA
000784: 26,2022     4743               RVSWBIT            =        BIT9                                  #        IN TIME-THETA
000785:
000786:                                                                                                  #  BIT 8 FLAG 7  (S)
000787: 26,2022                        V67FLAG            =        112D                                  #        ASTRONAUT OVERWRITE     ASTRONAUT DOES NOT
000788:                                                                                                  #        W-MATRIX INITIAL        OVERWRITE W-MATRIX


000790: 26,2022     4744               V67FLBIT           =        BIT8                                  #        VALUES                  INITIAL VALUES
000791:
000792:                                                                                                  #  BIT 7 FLAG 7  (S)
000793: 26,2022                        IDLEFLAG           =        113D                                  #        NO DV MONITOR           CONNECT DV MONITOR
000794: 26,2022     4745               IDLEFBIT           =        BIT7                                  #
000795:
000796:                                                                                                  #  BIT 6 FLAG 7  (S)
000797: 26,2022                        V37FLAG            =        114D                                  #        AVERAGEG (SERVICER)     AVERAGEG (SERVICER)
000798: 26,2022     4746               V37FLBIT           =        BIT6                                  #        RUNNING                 OFF
000799:
000800:                                                                                                  #  BIT 5 FLAG 7  (S)
000801: 26,2022                        AVEGFLAG           =        115D                                  #        AVERAGEG (SERVICER)     AVERAGEG (SERVICER)
000802: 26,2022     4747               AVEGFBIT           =        BIT5                                  #        DESIRED                 NOT DESIRED
000803:
000804:                                                                                                  #  BIT 4 FLAG 7  (S)
000805: 26,2022                        UPLOCKFL           =        116D                                  #        K-KBAR-K FAIL           NO K-KBAR-K FAIL
000806: 26,2022     4750               UPLOCBIT           =        BIT4                                  #
000807:
000808:                                                                                                  #  BIT 3 FLAG 7  (S)
000809: 26,2022                        VERIFLAG           =        117D                                  #  CHANGED WHEN V33E OCCURS AT END OF P27
000810: 26,2022     4751               VERIFBIT           =        BIT3                                  #
000811:
000812:                                                                                                  #  BIT 2 FLAG 7  (L,C)
000813: 26,2022                        V82EMFLG           =        118D                                  #        MOON VICINITY           EARTH VICINITY
000814: 26,2022     4752               V82EMBIT           =        BIT2                                  #
000815:
000816:                                                                                                  #  BIT 1 FLAG 7  (S)
000817: 26,2022                        TFFSW              =        119D                                  #        CALCULATE TPERIGEE      CALCULATE TFF
000818: 26,2022     4753               TFFSWBIT           =        BIT1                                  #
000819:
000820: 26,2022     0104               FLAGWRD8           =        STATE      +8D                        #  (120-134)
000821:
000822:                                                                                                  #        (SET)                   (RESET)
000823:
000824:                                                                                                  #  BIT 15 FLAG 8 (S)
000825: 26,2022                        RPQFLAG            =        120D                                  #        RPQ NOT COMPUTED        RPQ COMPUTED
000826:                                                                                                  #        (RPQ = VECTOR BE-
000827: 26,2022     4735               RPQFLBIT           =        BIT15                                 #        TWEEN SECONDARY BODY
000828:                                                                                                  #        AND PRIMARY BODY
000829:
000830:                                                                                                  #  BIT 14 FLAG 8


000832:                                                                                                  #                =       121D
000833:                                                                                                  #                =       BIT14
000834:
000835:                                                                                                  #  BIT 13 FLAG 8 (S)
000836: 26,2022                        NEWIFLG            =        122D                                  #        FIRST PASS THROUGH      SUCCEEDING ITERATION
000837: 26,2022     4737               NEWIBIT            =        BIT13                                 #        INTEGRATION             OF INTEGRATION
000838:
000839:                                                                                                  #  BIT 12 FLAG 8 *** PROTECTED FROM FRESH START ***
000840: 26,2022                        CMOONFLG           =        123D                                  #        PERMANENT CSM STATE     PERMANENT CSM STATE
000841: 26,2022     4740               CMOONBIT           =        BIT12                                 #        IN LUNAR SPHERE         IN EARTH SPHERE
000842:
000843:                                                                                                  #  BIT 11 FLAG 8 *** PROTECTED FROM FRESH START ***
000844: 26,2022                        LMOONFLG           =        124D                                  #        PERMANENT LM STATE      PERMANENT LM STATE
000845: 26,2022     4741               LMOONBIT           =        BIT11                                 #        IN LUNAR SPHERE         IN EARTH SPHERE
000846:
000847:                                                                                                  #  BIT 10 FLAG 8 (L)
000848: 26,2022                        FLUNDISP           =        125D                                  #        CURRENT GUIDANCE        CURRENT GUIDANCE
000849: 26,2022     4742               FLUNDBIT           =        BIT10                                 #        DISPLAYS INHIBITED      DISPLAYS PERMITTED
000850:
000851:                                                                                                  #  BIT 9 FLAG 8  (L)
000852:                                                                                                  #                =       126D
000853:                                                                                                  #                =       BIT9
000854:
000855:                                                                                                  #  BIT 8 FLAG 8  *** PROTECTED FROM FRESH START ***
000856: 26,2022                        SURFFLAG           =        127D                                  #        LM ON LUNAR SURFACE     LM NOT ON LUNAR
000857: 26,2022     4744               SURFFBIT           =        BIT8                                  #                                SURFACE
000858:
000859:                                                                                                  #  BIT 7 FLAG 8  (S)
000860: 26,2022                        INFINFLG           =        128D                                  #        NO CONIC SOLUTION       CONIC SOLUTION
000861:                                                                                                  #        (CLOSURE THROUGH        EXISTS
000862: 26,2022     4745               INFINBIT           =        BIT7                                  #        INFINITY REQUIRED)
000863:
000864:                                                                                                  #  BIT 6 FLAG 8  (S)
000865: 26,2022                        ORDERSW            =        129D                                  #        ITERATOR USES 2ND       ITERATOR USES 1ST
000866: 26,2022     4746               ORDERBIT           =        BIT6                                  #        ORDER MINIMUM MODE      ORDER STANDARD MODE
000867:
000868:                                                                                                  #  BIT 5 FLAG 8  (S)
000869: 26,2022                        APSESW             =        130D                                  #        RDESIRED OUTSIDE        RDESIRED INSIDE
000870:                                                                                                  #        PERICENTER-APOCENTER    PERICENTER-APOCENTER
000871: 26,2022     4747               APSESBIT           =        BIT5                                  #        RANGE IN TIME-RADI      RANGE IN TIME-RADIUS
000872:


000874:                                                                                                  #  BIT 4 FLAG 8  (S)
000875: 26,2022                        COGAFLAG           =        131D                                  #        NO CONIC SOLUTION -     CONIC SOLUTION
000876:                                                                                                  #        TOO CLOSE TO RECTI-     EXISTS (COGA DOES NOT
000877: 26,2022     4750               COGAFBIT           =        BIT4                                  #        LINEAR (COGA OVRFLWS)   OVERFLOW)
000878:
000879:                                                                                                  #  BIT 3 FLAG 8
000880:                                                                                                  #                =       132D
000881:
000882:                                                                                                  #  BIT 2 FLAG 8  (L)
000883: 26,2022                        INITALGN           =        133D                                  #        INITIAL PASS THRU       SECOND PASS THRU P57
000884: 26,2022     4752               INITABIT           =        BIT2                                  #        P57                     (CHECK RESET-MILLARD)
000885:
000886:                                                                                                  #  BIT 1 FLAG 8  (S)
000887: 26,2022                        360SW              =        134D                                  #        TRANSFER ANGLE NEAR     TRANSFER ANGLE NOT
000888: 26,2022     4753               360SWBIT           =        BIT1                                  #        360 DEGREES             NEAR 360 DEGREES
000889:
000890: 26,2022     0105               FLAGWRD9           =        STATE      +9D                        #  (135-149)
000891:
000892:                                                                                                  #        (SET)                   (RESET)
000893:
000894:                                                                                                  #  BIT 15 FLAG 9
000895:                                                                                                  #                =       135D
000896:                                                                                                  #                =       BIT15
000897:
000898:                                                                                                  #  BIT 14 FLAG 9 (L)
000899: 26,2022                        FLVR               =        136D                                  #        VERTICAL RISE           NON-VERTICAL RISE
000900: 26,2022     4736               FLVRBIT            =        BIT14                                 #        (ASCENT GUIDANCE)
000901:
000902:                                                                                                  #  BIT 13 FLAG 9
000903: 26,2022                        P7071FLG           =        137D                                  #        P70 OR P71 IS USING     P12 IS USING THE
000904: 26,2022     4737               P7071BIT           =        BIT13                                 #        ASCENT GUID. EQS.       ASCENT GUID. EQS.
000905:
000906:                                                                                                  #  BIT 12 FLAG 9 (L)
000907: 26,2022                        FLPC               =        138D                                  #        NO POSITION CONTROL     POSITION CONTROL
000908: 26,2022     4740               FLPCBIT            =        BIT12                                 #        (ASCENT GUIDANCE)
000909:
000910:                                                                                                  #  BIT 11 FLAG 9 (L)
000911: 26,2022                        FLPI               =        139D                                  #        PRE-IGNITION PHASE      REGULAR GUIDANCE
000912: 26,2022     4741               FLPIBIT            =        BIT11                                 #        (ASCENT GUIDANCE)
000913:
000914:                                                                                                  #  BIT 10 FLAG 9 (L)
000915: 26,2022                        FLRCS              =        140D                                  #        RCS INJECTION MODE      MAIN ENGINE MODE


000917: 26,2022     4742               FLRCSBIT           =        BIT10                                 #        (ASCENT GUIDANCE)
000918:
000919:                                                                                                  #  BIT 9 FLAG 9  (L)
000920: 26,2022                        LETABORT           =        141D                                  #        ABORT PROGRAMS          ABORT PROGRAMS
000921: 26,2022     4743               LETABBIT           =        BIT9                                  #        ARE ENABLED             ARE NOT ENABLED
000922:
000923:                                                                                                  #  BIT 8 FLAG 9  (L)
000924: 26,2022                        FLAP               =        142D                                  #        APS CONTINUED ABORT     APS ABORT IS NOT A
000925:                                                                                                  #        AFTER DPS STAGING       CONTINUATION
000926: 26,2022     4744               FLAPBIT            =        BIT8                                  #        (ASCENT GUIDANCE)
000927:
000928:                                                                                                  #  BIT 7 FLAG 9  (L)
000929: 26,2022                        ABTTGFLG           =        143D                                  #        J2,K2 PARAMETERS        J1,K1 PARAMETERS
000930: 26,2022     4745               ABTTGBIT           =        BIT7                                  #        USED FOR ABORT          USED FOR ABORT
000931:                                                                                                  #        TARGETING               TARGETING
000932:
000933:                                                                                                  #  BIT 6 FLAG 9  (L)
000934: 26,2022                        ROTFLAG            =        144D                                  #        P70 AND P71 WILL        P70 AND P71 WILL NOT
000935: 26,2022     4746               ROTFLBIT           =        BIT6                                  #        FORCE VEHICLE           FORCE VEHICLE
000936:                                                                                                  #        ROTATION IN THE         ROTATION IN THE
000937:                                                                                                  #        PREFERRED DIRECTION.    PREFERRED DIRECTION
000938:
000939:                                                                                                  #  BIT 5 FLAG 9  (S)
000940: 26,2022                        QUITFLAG           =        145D                                  #        DISCONTINUE INTEGR.     CONTINUE INTEGRATION
000941: 26,2022     4747               QUITBIT            =        BIT5                                  #
000942:
000943:                                                                                                  #  BIT 4 FLAG 9
000944:                                                                                                  #                =       146D
000945:                                                                                                  #                =       BIT4
000946:
000947:                                                                                                  #  BIT 3 FLAG 9  (L)
000948: 26,2022                        MID1FLAG           =        147D                                  #        INTEGRATE TO TDEC       INTEGRATE TO THE
000949: 26,2022     4751               MID1FBIT           =        BIT3                                  #                                THEN-PRESENT TIME
000950:
000951:                                                                                                  #  BIT 2 FLAG 9  (L)
000952: 26,2022                        MIDAVFLG           =        148D                                  #        INTEGRATION ENTERED     INTEGRATION WAS
000953:                                                                                                  #        FROM ONE OF MIDTOAV     NOT ENTERED VIA
000954: 26,2022     4752               MIDAVBIT           =        BIT2                                  #        PORTALS                 MIDTOAV
000955:
000956:                                                                                                  #  BIT 1 FLAG 9  (S)
000957: 26,2022                        AVEMIDSW           =        149D                                  #        AVETOMID CALLING        NO AVETOMID W INTEGR
000958:                                                                                                  #        FOR W.MATRIX INTEGR     ALLOW SET UP RN,VN,
000959: 26,2022     4753               AVEMDBIT           =        BIT1                                  #        DONT WRITE OVER RN,     PIPTIME
000960:                                                                                                  #        VN,PIPTIME
000961:


000963: 26,2022     0106               RASFLAG            EQUALS   FLGWRD10                              #  WAS ONLY AN INSTALL-ERASTALL FLAG
000964:
000965: 26,2022     0106               FLGWRD10           =        STATE      +10D                       #  (150-164)
000966:
000967:                                                                                                  #        (SET)                   (RESET)
000968:
000969:                                                                                                  #  BIT 15 FLAG 10
000970:                                                                                                  #                =       150D
000971:
000972:                                                                                                  #  BIT 14 FLAG 10 (L,C)
000973: 26,2022                        INTFLAG            =        151D                                  #        INTEGRATION IN          INTEGRATION NOT IN
000974: 26,2022     4736               INTFLBIT           =        BIT14                                 #        PROGRESS                PROGRESS
000975:
000976:                                                                                                  #  BIT 13 FLAG 10 (S,L)
000977: 26,2022                        APSFLAG            =        152D                                  #        ASCENT STAGE            DESCENT STAGE
000978: 26,2022     4737               APSFLBIT           =        BIT13                                 #        *** PROTECTED FROM FRESH START ***
000979:
000980:                                                                                                  #  BIT 12 FLAG 10
000981:                                                                                                  #                =       153D
000982:
000983:                                                                                                  #  BIT 11 FLAG 10
000984:                                                                                                  #                =       154D
000985:
000986:                                                                                                  #  BIT 10 FLAG 10
000987:                                                                                                  #                =       155D
000988:
000989:                                                                                                  #  BIT 9 FLAG 10
000990:                                                                                                  #                =       156D
000991:
000992:                                                                                                  #  BIT 8 FLAG 10
000993:                                                                                                  #                =       157D
000994:
000995:                                                                                                  #  BIT 7 FLAG 10 (L,C)
000996: 26,2022                        REINTFLG           =        158D                                  #        INTEGRATION ROUTINE     INTEGRATION ROUTINE
000997: 26,2022     4745               REINTBIT           =        BIT7                                  #        TO BE RESTARTED         NOT TO BE RESTARTED
000998:
000999:                                                                                                  #  BIT 6 FLAG 10
001000:                                                                                                  #                =       159D


001002:
001003:                                                                                                  #  BIT 5 FLAG 10
001004:                                                                                                  #                =       160D
001005:
001006:                                                                                                  #  BIT 4 FLAG 10
001007:                                                                                                  #                =       161D
001008:
001009:                                                                                                  #  BIT 3 FLAG 10
001010:                                                                                                  #                =       162D
001011:
001012:                                                                                                  #  BIT 2 FLAG 10
001013:                                                                                                  #                =       163D
001014:
001015:                                                                                                  #  BIT 1 FLAG 10
001016:                                                                                                  #                =       164D
001017:
001018: 26,2022     0107               FLGWRD11           =        STATE      +11D                       #  (165-179)
001019:
001020:                                                                                                  #        (SET)                   (RESET)
001021:
001022:                                                                                                  #  BIT 15 FLAG 11 (L)(R12)
001023: 26,2022                        LRBYPASS           =        165D                                  #        BYPASS ALL LANDING      DO NOT BYPASS LR
001024: 26,2022     4735               LRBYBIT            =        BIT15                                 #        RADAR UPDATES           UPDATES
001025:
001026:                                                                                                  #  BIT 14 FLAG 11
001027:                                                                                                  #                =       166D
001028:                                                                                                  #                =       BIT14
001029:
001030:                                                                                                  #  = BIT 13 FLAG 11
001031:                                                                                                  #                =       167D
001032:                                                                                                  #                =       BIT13
001033:
001034:                                                                                                  #  BIT 12 FLAG 11 (L)(R12)
001035: 26,2022                        VXINH              =        168D                                  #        IF Z VELOCITY DATA      UPDATE X AXIS
001036:                                                                                                  #        UNREASONABLE,           VELOCITY
001037: 26,2022     4740               VXINHBIT           =        BIT12                                 #        BYPASS X VELOCITY
001038:                                                                                                  #        UPDATE ON NEXT PASS
001039:


001041:                                                                                                  #  BIT 11 FLAG 11 (L)(R12)
001042: 26,2022                        PSTHIGAT           =        169D                                  #        PAST HIGATE             PREHIGATE
001043: 26,2022     4741               PSTHIBIT           =        BIT11                                 #
001044:
001045:                                                                                                  #  BIT 10 FLAG 11 (L)(R12)
001046: 26,2022                        NOLRREAD           =        170D                                  #        LANDING RADAR           LR NOT REPOSITIONING
001047:                                                                                                  #        REPOSITIONING;
001048: 26,2022     4742               NOLRRBIT           =        BIT10                                 #        BYPASS UPDATE
001049:
001050:                                                                                                  #  BIT 9 FLAG 11 (L)(R12)
001051: 26,2022                        XORFLG             =        171D                                  #        BELOW LIMIT             ABOVE LIMIT DO
001052:                                                                                                  #        INHIBIT X AXIS          NOT INHIBIT
001053: 26,2022     4743               XORFLBIT           =        BIT9                                  #        OVERRIDE
001054:
001055:                                                                                                  #  BIT 8 FLAG 11
001056: 26,2022                        LRINH              =        172D                                  #        LANDING RADAR UP-       LR UPDATES INHIBITED
001057: 26,2022     4744               LRINHBIT           =        BIT8                                  #        DATES PERMITTED         BY ASTRONAUT
001058:                                                                                                  #        BY ASTRONAUT
001059:
001060:                                                                                                  #  BIT 7 FLAG 11 (L)(R12)
001061: 26,2022                        VELDATA            =        173D                                  #        LR VELOCITY             LR VELOCITY MEASURE
001062: 26,2022     4745               VELDABIT           =        BIT7                                  #        MEASUREMENT MADE        NOT MADE
001063:
001064:                                                                                                  #  BIT 6 FLAG 11 (L)(R12)
001065: 26,2022                        LPOS2FLG           =        174D                                  #        USE LR POSITION 2       USE LR POSITION 1
001066: 26,2022     4746               LPOS2BIT           =        BIT6                                  #        TRANSFORMATION          TRANSFORMATION
001067:
001068:                                                                                                  #  BIT 5 FLAG 11 (L)(R12)
001069: 26,2022                        READVEL            =        175D                                  #        OK TO READ LR           DO NOT READ LR
001070: 26,2022     4747               READVBIT           =        BIT5                                  #        VELOCITY DATA           VELOCITY DATA
001071:
001072:                                                                                                  #  BIT 4 FLAG 11 (L)(R12)
001073: 26,2022                        RNGEDATA           =        176D                                  #        LR ALTITUDE             LR ALTITUDE MEASURE
001074: 26,2022     4750               RNGEDBIT           =        BIT4                                  #        MEASUREMENT MADE        NOT MADE
001075:
001076:                                                                                                  #  BIT 3 FLAG 11
001077: 26,2022                        NO511FLG           =        177D                                  #        DO NOT TEST LR          TEST LR ANTENNA
001078: 26,2022     4751               NO511BIT           =        BIT3                                  #        ANTENNA POS IN R12      POS IN R12
001079:
001080:                                                                                                  #  BIT 2 FLAG 11 (L)(R12)
001081: 26,2022                        VFLSHFLG           =        178D                                  #        LR VELOCITY FAIL        LR VEL FAIL LAMP


001083:                                                                                                  #        LAMP SHOULD BE          SHOULDN'T FLASH
001084: 26,2022     4752               VFLSHBIT           =        BIT2                                  #        FLASHING
001085:
001086:                                                                                                  #  BIT 1 FLAG 11 (L)(R12)
001087: 26,2022                        HFLSHFLG           =        179D                                  #        LR ALTITUDE FAIL        LR ALTITUDE FAIL
001088: 26,2022     4753               HFLSHBIT           =        BIT1                                  #        LAMP SHOULD BE          LAMP SHOULD NOT BE
001089:                                                                                                  #        FLASHING                FLASHING
001090:
001091: 26,2022     0110               RADMODES           EQUALS   FLGWRD12                              #  RADAR FLAG WORD
001092:
001093: 26,2022     0110               FLGWRD12           =        STATE      +12D                       #  (180-194)     WAS RADMODES
001094:
001095:                                                                                                  #        (SET)                   (RESET)
001096:
001097:                                                                                                  #  BIT 15 FLAG 12
001098: 26,2022                        CDESFLAG           =        180D                                  #        CONTINUOUS DESIG-       LGC CHECKS FOR LOCK-
001099: 26,2022     4735               CDESBIT            =        BIT15                                 #        NATE. LGC COMMANDS      ON WHEN ANTENNA
001100:                                                                                                  #        RR REGARDLESS OF        BEING DESIGNATED
001101:                                                                                                  #        LOCK-ON
001102:
001103:                                                                                                  #  BIT 14 FLAG 12
001104: 26,2022                        REMODFLG           =        181D                                  #        CHANGE IN ANTENNA       NO REMODE REQUESTED
001105: 26,2022     4736               REMODBIT           =        BIT14                                 #        MODE BEEN REQUESTED     OR OCCURRING
001106:                                                                                                  #        I.E., REMODE
001107:
001108:                                                                                                  #  BIT 13 FLAG 12
001109: 26,2022                        RCDU0FLG           =        182D                                  #        RR CDU'S BEING          RR CDU'S NOT BEING
001110: 26,2022     4737               RCDU0BIT           =        BIT13                                 #        ZEROED                  ZEROED
001111:
001112:                                                                                                  #  BIT 12 FLAG 12
001113: 26,2022                        ANTENFLG           =        183D                                  #        RR ANTENNA MODE IS      RR ANTENNA IN MODE 1
001114: 26,2022     4740               ANTENBIT           =        BIT12                                 #        MODE 2
001115:
001116:                                                                                                  #  BIT 11 FLAG 12
001117: 26,2022                        REPOSMON           =        184D                                  #        REPOSITION MONITOR.     NO REPOSITION TAKING
001118: 26,2022     4741               REPOSBIT           =        BIT11                                 #        RR REPOSITION IS        PLACE
001119:                                                                                                  #        TAKING PLACE
001120:
001121:                                                                                                  #  BIT 10 FLAG 12
001122: 26,2022                        DESIGFLG           =        185D                                  #        RR DESIGNATE            RR DESIGNATE NOT
001123: 26,2022     4742               DESIGBIT           =        BIT10                                 #        REQUESTED OR IN         REQUESTED OR IN
001124:                                                                                                  #        PROGRESS                PROGRESS
001125:


001127:                                                                                                  #  BIT 9 FLAG 12
001128: 26,2022                        ALTSCALE           =        186D                                  #        LR ALTITUDE READING     LR ALTITUDE READING
001129: 26,2022     4743               ALTSCBIT           =        BIT9                                  #        IS ON HIGH SCALE        IS ON LOW SCALE
001130:
001131:                                                                                                  #  BIT 8 FLAG 12
001132: 26,2022                        LRVELFLG           =        187D                                  #        LR VELOCITY DATA        NO LR VELOCITY DATA
001133: 26,2022     4744               LRVELBIT           =        BIT8                                  #        FAIL                    FAIL
001134:
001135:                                                                                                  #  BIT 7 FLAG 12
001136: 26,2022                        RCDUFAIL           =        188D                                  #        RR CDU FAIL HAS         RR CDU FAIL OCCURRED
001137: 26,2022     4745               RCDUFBIT           =        BIT7                                  #        NOT OCCURRED
001138:
001139:                                                                                                  #  BIT 6 FLAG 12
001140: 26,2022                        LRPOSFLG           =        189D                                  #        LANDING RADAR           LR POSITION 1
001141: 26,2022     4746               LRPOSBIT           =        BIT6                                  #        POSITION 2
001142:
001143:                                                                                                  #  BIT 5 FLAG 12
001144: 26,2022                        LRALTFLG           =        190D                                  #        LR ALTITUDE DATA        NO LR ALTITUDE DATA
001145: 26,2022     4747               LRALTBIT           =        BIT5                                  #        FAIL.  COULD NOT BE     FAIL
001146:                                                                                                  #        READ SUCCESSFULLY.
001147:
001148:                                                                                                  #  BIT 4 FLAG 12
001149: 26,2022                        RRDATAFL           =        191D                                  #        RR DATA FAIL.           NO RR DATA FAIL.
001150: 26,2022     4750               RRDATABT           =        BIT4                                  #        DATA COULD NOT BE
001151:                                                                                                  #        READ SUCCESSFULLY
001152:
001153:                                                                                                  #  BIT 3 FLAG 12
001154: 26,2022                        RRRSFLAG           =        192D                                  #        RR RANGE READING        RR RANGE READING ON
001155: 26,2022     4751               RRRSBIT            =        BIT3                                  #        ON THE HIGH SCALE       THE LOW SCALE
001156:
001157:                                                                                                  #  BIT 2 FLAG 12
001158: 26,2022                        AUTOMODE           =        193D                                  #        RR NOT IN AUTO MODE.    RR IN AUTO MODE
001159: 26,2022     4752               AUTOMBIT           =        BIT2                                  #        AUTO MODE DISCRETE
001160:                                                                                                  #        IS NOT PRESENT
001161:
001162:                                                                                                  #  BIT 1 FLAG 12
001163: 26,2022                        TURNONFL           =        194D                                  #        RR TURN-ON SEQUENCE     NO RR TURN-ON
001164: 26,2022     4753               TURNONBT           =        BIT1                                  #        IN PROGRESS.  (ZERO     SEQUENCE IN PROGRESS
001165:                                                                                                  #        CDU'S, FIX ANTENNA
001166:                                                                                                  #        MODE)
001167:


001169: 26,2022     0111               DAPBOOLS           EQUALS   FLGWRD13                              #  DIGITAL AUTOPILOT FLAGWORD
001170:
001171: 26,2022     0111               FLGWRD13           =        STATE      +13D                       #  (195-209)     WAS DAPBOOLS
001172:
001173:                                                                                                  #        (SET)                   (RESET)
001174:
001175:                                                                                                  #  BIT 15 FLAG 13
001176: 26,2022                        PULSEFLG           =        195D                                  #        MINIMUM IMPULSE         NOT IN MINIMUM
001177: 26,2022     4735               PULSES             =        BIT15                                 #        COMMAND MODE IN         IMPULSE COMMAND MODE
001178:                                                                                                  #        "ATT HOLD" (V76)        (V77)
001179:
001180:                                                                                                  #  BIT 14 FLAG 13
001181: 26,2022                        USEQRFLG           =        196D                                  #        GIMBAL UNUSABLE.        TRIM GIMBAL MAY BE
001182: 26,2022     4736               USEQRJTS           =        BIT14                                 #        USE JETS ONLY.          USED.
001183:
001184:                                                                                                  #  BIT 13 FLAG 13
001185: 26,2022                        CSMDKFLG           =        197D                                  #        CSM DOCKED.  USE        CSM NOT DOCKED TO LM
001186: 26,2022     4737               CSMDOCKD           =        BIT13                                 #        BACKUP DAP
001187:
001188:                                                                                                  #  BIT 12 FLAG 13
001189: 26,2022                        OURRCFLG           =        198D                                  #        CURRENT DAP PASS        CURRENT DAP PASS IS
001190: 26,2022     4740               OURRCBIT           =        BIT12                                 #        IS RATE COMMAND         NOT RATE COMMAND
001191:
001192:                                                                                                  #  BIT 11 FLAG 13
001193: 26,2022                        ACC4-2FL           =        199D                                  #        4 JET X-AXIS TRANS-     2 JET X-AXIS TRANS-
001194: 26,2022     4741               ACC4OR2X           =        BIT11                                 #        LATION REQUESTED        LATION REQUESTED
001195:
001196:                                                                                                  #  BIT 10 FLAG 13
001197: 26,2022                        AORBTFLG           =        200D                                  #        B SYSTEM FOR X-         A SYSTEM FOR X-
001198: 26,2022     4742               AORBTRAN           =        BIT10                                 #        TRANSLATION             TRANSLATION PREFER'D
001199:
001200:                                                                                                  #  BIT 9 FLAG 13
001201: 26,2022                        XOVINFLG           =        201D                                  #        X-AXIS OVERRIDE         X-AXIS OVERRIDE OKAY
001202: 26,2022     4743               XOVINHIB           =        BIT9                                  #        LOCKED OUT
001203:
001204:                                                                                                  #  BIT 8 FLAG 13
001205: 26,2022                        DRIFTDFL           =        202D                                  #        ASSUME 0 OFFSET         USE OFFSET ACCELERA-
001206: 26,2022     4744               DRIFTBIT           =        BIT8                                  #        DRIFTING FLIGHT.        TION ESTIMATE
001207:


001209:                                                                                                  #  BIT 7 FLAG 13
001210: 26,2022                        RHCSCFLG           =        203D                                  #        NORMAL RHC SCALING      FINE RHC SCALING
001211: 26,2022     4745               RHCSCALE           =        BIT7                                  #        REQUESTED               REQUESTED
001212:
001213:                                                                                                  #  BIT 6 FLAG 13
001214: 26,2022                        ULLAGFLG           =        204D                                  #        ULLAGE REQUEST BY       NO INTERNAL ULLAGE
001215: 26,2022     4746               ULLAGER            =        BIT6                                  #        MISSION PROGRAM         REQUEST
001216:
001217:                                                                                                  #  BIT 5 FLAG 13
001218: 26,2022                        DBSL2FLG           =        205D                                  #        5 DEG DEADBAND          1 OR .3 DEG DEADBAND
001219: 26,2022     4747               DBSLECT2           =        BIT5                                  #        SELECTED BY CREW        SELECTED BY CREW
001220:                                                                                                  #                                (SEE BIT4 DAPBOOLS)
001221:
001222:                                                                                                  #  BIT 4 FLAG 13
001223: 26,2022                        DBSELFLG           =        206D                                  #        1 DEG DEADBAND          MIN DB SELECTED BY
001224: 26,2022     4750               DBSELECT           =        BIT4                                  #        SELECTED BY CREW        CREW (0.3 DEG)
001225:
001226:                                                                                                  #  BIT 3 FLAG 13
001227: 26,2022                        ACCOKFLG           =        207D                                  #        CONTROL AUTHORITY       RESTART OR FRESH ST.
001228: 26,2022     4751               ACCSOKAY           =        BIT3                                  #        VALUES FROM 1/ACCS      SINCE LAST 1/ACCS;
001229:                                                                                                  #        USABLE                  OUTPUTS SUSPECT.
001230:
001231:                                                                                                  #  BIT 2 FLAG 13
001232: 26,2022                        AUTR2FLG           =        208D                                  #  THESE FLAGS ARE USED TOGETHER TO INDICAT
001233: 26,2022     4752               AUTRATE2           =        BIT2                                  #  ASTRONAUT-CHOSEN KALCMANU MANEUVER RATES
001234:                                                                                                  #  (0,0)=(BIT2,BIT1)=    0.2 DEG/SEC
001235:                                                                                                  #  (0,1)=                0.5 DEG/SEC
001236:                                                                                                  #  BIT 1 FLAG 13
001237: 26,2022                        AUTR1FLG           =        209D                                  #  (1,0)=                2.0 DEG/SEC
001238: 26,2022     4753               AUTRATE1           =        BIT1                                  #  (1,1)=               10.0 DEG/SEC
001239:


001242:

End of include-file FLAGWORD_ASSIGNMENTS.agc.  Parent file is MAIN.agc


