
Source Code
000001:                                                                                                 #  Copyright:     Public domain.
000002:                                                                                                 #  Filename:      FRESH_START_AND_RESTART.agc
000003:                                                                                                 #  Purpose:       A section of Luminary 1C, revision 131.
000004:                                                                                                 #                 It is part of the source code for the Lunar Module's (LM)
000005:                                                                                                 #                 Apollo Guidance Computer (AGC) for Apollo 13 and Apollo 14.
000006:                                                                                                 #                 This file is intended to be a faithful transcription, except
000007:                                                                                                 #                 that the code format has been changed to conform to the
000008:                                                                                                 #                 requirements of the yaYUL assembler rather than the
000009:                                                                                                 #                 original YUL assembler.
000010:                                                                                                 #  Reference:     pp. 218-243 of 1729.pdf.
000011:                                                                                                 #  Contact:       Ron Burkey <info@sandroid.org>.
000012:                                                                                                 #  Website:       www.ibiblio.org/apollo/index.html
000013:                                                                                                 #  Mod history:   05/06/03 RSB.   Began transcribing.
000014:                                                                                                 #                 05/14/05 RSB    Corrected website reference above.
000015:
000016:                                                                                                 #  Page 218
000017: 10,2000                                          BANK     10
000018: 05,2000                                          SETLOC   FRANDRES
000019: 05,2000                                          BANK
000020:
000021: 05,2447  E3,1400                                 EBANK=   LST1
000022:
000023: 05,2447                                          COUNT*   $$/START                              #  FRESH AND RESTART
000024: 05,2447           00004        SLAP1             INHINT                                         #  FRESH START.  COMES HERE FROM PINBALL.
000025: 05,2450           03105                          TC       STARTSUB                              #  SUBROUTINE DOES MOST OF THE WORK
000026:
000027: 05,2451           12456        STARTSW           TCF      SKIPSIM                               #  PATCH....TCF STARTSIM FOR SIMULATION
000028: 05,2452           34736        STARTSIM          CAF      BIT14
000029: 05,2453           05105                          TC       FINDVAC
000030: 05,2454           77777        SIM2CADR          OCT      77777                                 #  PATCH 2CADR (AND EBANK DESIGNATION) OF
000031: 05,2455           77777                          OCT      77777                                 #  SIMULATION START ADDRESS.
000032:
000033: 05,2456           31035        SKIPSIM           CA       DSPTAB     +11D                       #  TURN OFF ALL DSPTAB +11D LAMPS
000034: 05,2457           74771                          MASK     BITS4&6                               #  EXCEPT THE GIMBAL LOCK & NO ATT ONLY ON
000035: 05,2460           64735                          AD       BIT15                                 #  REQUESTED FRESH START.
000036: 05,2461           55035                          TS       DSPTAB     +11D
000037:
000038: 05,2462           34755                          CA       ZERO
000039: 05,2463           55365                          TS       ERCOUNT
000040: 05,2464           54375                          TS       FAILREG
000041: 05,2465           54376                          TS       FAILREG    +1
000042: 05,2466           54377                          TS       FAILREG    +2
000043: 05,2467           54320                          TS       REDOCTR
000044:
000045: 05,2470           44644                          CS       PRIO12
000046: 05,2471           55310                          TS       DSRUPTSW
000047:
000048: 05,2472           34736        DOFSTART          CAF      BIT14                                 #  INSURE ENGINE IS OFF.
000049: 05,2473           00006                          EXTEND
000050: 05,2474           01011                          WRITE    DSALMOUT
000051: 05,2475           44755                          CS       ZERO
000052: 05,2476           54055                          TS       THRUST
000053:
000054: 05,2477           34751        DOFSTRT1          CAF      FOUR
000055: 05,2500           55262                          TS       RCSFLAGS                              #  INITIALIZE ATTITUDE ERROR DISPLAYS.
000056: 05,2501           34355                          CA       PRIO30
000057: 05,2502           54366                          TS       RESTREG                               #  SUPER BANK PRIORITY FOR DISPLAYS.
000058:
000059: 05,2503           34755                          CA       ZERO
000060: 05,2504           55245                          TS       ABDELV                                #  DAP INITIALIZATION
000061: 05,2505           54371                          TS       NVSAVE
000062: 05,2506           55071                          TS       EBANKTEM
000063: 05,2507           55257                          TS       CH5MASK
000064: 05,2510           55260                          TS       CH6MASK
000065: 05,2511           55273                          TS       PVALVEST                              #  FOR RCS FAILURE MONITOR
000066:                                                                                                 #  Page 219
000067: 05,2512           55360                          TS       ERESTORE                              #  ***** MUST NOT BE REMOVED FROM DOFSTART
000068: 05,2513           55362                          TS       SMODE                                 #  ***** MUST NOT BE REMOVED FROM DOFSTART
000069: 05,2514           54333                          TS       DNLSTCOD                              #  SELECT P00 DOWNLIST
000070: 05,2515           55321                          TS       AGSWORD                               #  ALLOW AGS INITIALIZATION
000071: 05,2516           55501                          TS       UPSVFLAG                              #  ZERO UPDATE STATE VECTOR REQUEST FLAGWRD
000072: 05,2517           00006                          EXTEND
000073: 05,2520           01005                          WRITE    CHAN5                                 #  TURN OFF RCS JETS.
000074: 05,2521           00006                          EXTEND
000075: 05,2522           01006                          WRITE    CHAN6                                 #  TURN OFF RCS JETS.
000076: 05,2523           00006                          EXTEND
000077: 05,2524           01012                          WRITE    CHAN12
000078: 05,2525           00006                          EXTEND
000079: 05,2526           01013                          WRITE    CHAN13
000080: 05,2527           00006                          EXTEND
000081: 05,2530           01014                          WRITE    CHAN14
000082: 05,2531           41035                          CS       DSPTAB     +11D
000083: 05,2532           74771                          MASK     BITS4&6
000084: 05,2533           10000                          CCS      A
000085: 05,2534           02540                          TC       +4
000086: 05,2535           34771                          CA       BITS4&6
000087: 05,2536           00006                          EXTEND                                         #  THE IMU WAS IN COARSE ALIGN IN GIMBAL
000088: 05,2537           05012                          WOR      CHAN12                                #  LOCK, SO PUT IT BACK INTO COARSE ALIGN.
000089: 05,2540           02641                 +4       TC       MR.KLEAN
000090:
000091: 05,2541           44755                          CS       ZERO
000092: 05,2542           55010                          TS       MODREG
000093:
000094: 05,2543           33373                          CAF      IM30INIF                              #  FRESH START IMU INITIALIZATION
000095: 05,2544           55277                          TS       IMODES30
000096:
000097: 05,2545           33065                          CAF      MAXDB
000098: 05,2546           55343                          TS       DB
000099: 05,2547           34751                          CAF      FOUR
000100: 05,2550           55322                          TS       RATEINDX                              #  INITIALZE KALCMANU RATE
000101: 05,2551           33061                          CA       BOOLSTRT
000102: 05,2552           54111                          TS       DAPBOOLS
000103: 05,2553           35015                          CAF      EBANK6
000104: 05,2554           54003                          TS       EBANK
000105: 05,2555  E6,1400                                 EBANK=   HIASCENT
000106:
000107: 05,2555           33056                          CA       STIKSTRT
000108: 05,2556           55444                          TS       STIKSENS
000109: 05,2557           33057                          CA       RATESTRT
000110: 05,2560           55476                          TS       -RATEDB
000111: 05,2561           32000                          CAF      FULLAPS                               #  INITIALIZE MAXIMUM ASCENT MASS FOR USE
000112: 05,2562           55400                          TS       HIASCENT                              #    BY 1/ACCS UNTIL THE PAD LOAD IS DONE.
000113: 05,2563           33062                          CA       77001OCT                              #      LOAD DAP FILTER GAINS PAD LOAD.
000114: 05,2564           55403                          TS       DKTRAP                                #        TO BEST PRESENT ESTIMATE OF GOODIES
000115: 05,2565           55406                          TS       LMTRAP                                #  .14 DEG
000116: 05,2566           33063                          CA       60DEC
000117:                                                                                                 #  Page 220
000118: 05,2567           55405                          TS       DKKAOSN
000119: 05,2570           55410                          TS       LMKAOSN                               #  6 SEC GAIN FOR ALPHA
000120: 05,2571           34755                          CA       ZERO
000121: 05,2572           55407                          TS       LMOMEGAN                              #  UNITY GAIN
000122: 05,2573           34363                          CA       TEN
000123: 05,2574           55404                          TS       DKOMEGAN                              #  1 SEC GAIN FOR OMEGA
000124: 05,2575           34744                          CAF      BIT8                                  #  SET DOCKED DB TO 1.4 DEG.  MAY OVERWRITE
000125: 05,2576           55411                          TS       DKDB                                  #         WITH PAD LOAD.
000126: 05,2577           35026                          CAF      IM33INIT
000127: 05,2600           64746                          AD       BIT6                                  #  KEEP BOTH DAP AND ERROR-NEEDLES DISPLAY
000128: 05,2601           55300                          TS       IMODES33                              #         OFF UNTIL ICDU ZERO IS FINISHED.
000129:
000130: 05,2602           00006                          EXTEND                                         #  INITIALIZE SWITCHES ONLY ON FRESH START.
000131: 05,2603           33400                          DCA      SWINIT
000132: 05,2604           52075                          DXCH     STATE
000133: 05,2605           33401                          CA       SWINIT     +2
000134: 05,2606           54076                          TS       STATE      +2
000135: 05,2607           34737                          CA       REFSMBIT                              #  DO NOT ALTER REFSMFLG ON FRESH START.
000136: 05,2610           70077                          MASK     STATE      +3
000137: 05,2611           63402                          AD       SWINIT     +3
000138: 05,2612           54077                          TS       STATE      +3
000139: 05,2613           00006                          EXTEND
000140: 05,2614           33404                          DCA      SWINIT     +4
000141: 05,2615           52101                          DXCH     STATE      +4
000142: 05,2616           00006                          EXTEND
000143: 05,2617           33406                          DCA      SWINIT     +6
000144: 05,2620           52103                          DXCH     STATE      +6
000145: 05,2621           34744                          CA       SURFFBIT                              #  DO NOT ALTER   SURFFLAG ON FRESH START.
000146: 05,2622           64740                          AD       CMOONBIT                              #                 CMOONFLG
000147: 05,2623           64741                          AD       LMOONBIT                              #                 LMOONFLG
000148: 05,2624           70104                          MASK     STATE      +8D
000149: 05,2625           63407                          AD       SWINIT     +8D
000150: 05,2626           54104                          TS       STATE      +8D
000151: 05,2627           33410                          CA       SWINIT     +9D
000152: 05,2630           54105                          TS       STATE      +9D
000153: 05,2631           34737                          CA       APSFLBIT                              #  DO NOT ALTER APSFLAG ON FRESH START.
000154: 05,2632           70106                          MASK     STATE      +10D
000155: 05,2633           63411                          AD       SWINIT     +10D
000156: 05,2634           54106                          TS       STATE      +10D
000157: 05,2635           33412                          CAF      SWINIT     +11D
000158: 05,2636           54107                          TS       STATE      +11D
000159:
000160: 05,2637           04635        ENDRSTRT          TC       POSTJUMP                              #  NOW IN ANOTHER BANK.
000161: 05,2640           03211                          CADR     DUMMYJOB   +2                         #  PICKS UP AT RELINT.    (DON'T ZERO NEWJOB)
000162:
000163: 05,2641           00004        MR.KLEAN          INHINT
000164: 05,2642           00006                          EXTEND
000165: 05,2643           34755                          DCA      NEG0
000166: 05,2644           52754                          DXCH     -PHASE2
000167:
000168:                                                                                                 #  Page 221
000169: 05,2645           00006        P00KLEAN          EXTEND
000170: 05,2646           34755                          DCA      NEG0
000171: 05,2647           52760                          DXCH     -PHASE4
000172: 05,2650           00006        V37KLEAN          EXTEND
000173: 05,2651           34755                          DCA      NEG0
000174: 05,2652           52762                          DXCH     -PHASE5
000175: 05,2653           00006        ABTKLEAN          EXTEND
000176: 05,2654           34755                          DCA      NEG0
000177: 05,2655           52756                          DXCH     -PHASE3
000178: 05,2656           00006                          EXTEND
000179: 05,2657           34755                          DCA      NEG0
000180: 05,2660           52752                          DXCH     -PHASE1
000181: 05,2661           00006                          EXTEND
000182: 05,2662           34755                          DCA      NEG0
000183: 05,2663           52764                          DXCH     -PHASE6
000184: 05,2664           00002                          TC       Q
000185:
000186:                                                                                                 #  Page 222
000187:                                                                                                 #  COMES HERE FROM LOCATION 4000, GOJAM, RESTART ANY PROGRAMS WHICH MAY HAVE BEEN RUNNING AT THE TIME.
000188:
000189: 05,2665  E3,1400                                 EBANK=   LST1
000190: 05,2665           24320        GOPROG            INCR     REDOCTR                               #  ADVANCE RESTART COUNTER.
000191:
000192: 05,2666           22002                          LXCH     Q
000193: 05,2667           00006                          EXTEND
000194: 05,2670           04007                          ROR      SUPERBNK
000195: 05,2671           53433                          DXCH     RSBBQ
000196: 05,2672           31035                          CA       DSPTAB     +11D
000197: 05,2673           74750                          MASK     BIT4
000198: 05,2674           00006                          EXTEND
000199: 05,2675           12701                          BZF      +4
000200: 05,2676           64746                          AD       BIT6                                  #  SET ERROR COUNTER ENABLE
000201: 05,2677           00006                          EXTEND
000202: 05,2700           05012                          WOR      CHAN12                                #  ISS WAS IN COARSE ALIGN SO GO BACK TO
000203: 05,2701           03066        BUTTONS           TC       LIGHTSET
000204:
000205:                                                                                                 #  ERACHK TEMPORARILY STORES THE CONTENST OF TWO ERASABLE LOCATIONS, X
000206:                                                                                                 #  AND X+1 INTO SKEEP5 AND SKEEP6.  IT ALSO STORES X INTO SKEEP7 AND
000207:                                                                                                 #  ERESTORE.  IF ERASCHK IS INTERRUPTED BY A RESTART, C(ERESTORE) SHOULD
000208:                                                                                                 #  EQUAL C(SKEEP7), AND SHOULD BE A + NUMBER LESS THAN 2000 OCT.  OTHERWISE
000209:                                                                                                 #  C(ERESTORE) SHOULD EQUAL +0.
000210:
000211: 05,2702           34350                          CAF      HI5
000212: 05,2703           71360                          MASK     ERESTORE
000213: 05,2704           00006                          EXTEND
000214: 05,2705           12707                          BZF      +2                                    #  IF ERESTORE NOT = +0 OR +N LESS THAN 2K,
000215: 05,2706           13103                          TCF      NONAVKEY   +3                         #  DO FRESH START -- E MEMORY MIGHT BE BAD
000216: 05,2707           41360                          CS       ERESTORE
000217: 05,2710           00006                          EXTEND
000218: 05,2711           12726                          BZF      DORSTART                              #  = +0 CONTINUE WITH RESTART.
000219: 05,2712           61377                          AD       SKEEP7
000220: 05,2713           00006                          EXTEND
000221: 05,2714           12716                          BZF      +2                                    #  = SKEEP7, RESTORE E MEMORY.
000222: 05,2715           13103                          TCF      NONAVKEY   +3                         #  DO FRESH START -- E MEMORY MIGHT BE BAD
000223: 05,2716           31374                          CA       SKEEP4
000224: 05,2717           54003                          TS       EBANK                                 #  EBANK OF E MEMORY THAT WAS UNDER TEST.
000225: 05,2720           00006                          EXTEND                                         #  (NOT DXCH SINCE THIS MIGHT HAPPEN AGAIN)
000226: 05,2721           31376                          DCA      SKEEP5
000227: 05,2722           51377                          INDEX    SKEEP7
000228: 05,2723           52001                          DXCH     0000                                  #  E MEMORY RESTORED
000229: 05,2724           34755                          CA       ZERO
000230: 05,2725           55360                          TS       ERESTORE
000231: 05,2726           03105        DORSTART          TC       STARTSUB                              #  DO INITIALIZATION AFTER ERASE RESTORE.
000232:
000233: 05,2727           44736        SETINFL           CS       INTFLBIT
000234: 05,2730           70106                          MASK     FLGWRD10
000235: 05,2731           54106                          TS       FLGWRD10
000236:                                                                                                 #  Page 223
000237: 05,2732           33375                          CA       9,6,4                                 #  LEAVE PROG ALARM, GIMBAL LOCK, NO ATT
000238: 05,2733           71035                          MASK     DSPTAB     +11D                       #  LAMPS INTACT ON HARDWARE RESTART
000239: 05,2734           64735                          AD       BIT15
000240: 05,2735           57035                          XCH      DSPTAB     +11D
000241: 05,2736           33361                          CAF      IFAILINH                              #  LEAVE IMU FAILURE INHIBITS INTACT ON
000242: 05,2737           71277                          MASK     IMODES30                              #  HARDWARE RESTART, RESET ALL FAILURE
000243: 05,2740           63374                          AD       IM30INIR                              #  CODES.
000244: 05,2741           55277                          TS       IMODES30
000245:
000246: 05,2742           31321                          CA       AGSWORD                               #  BE SURE OF CORRECT DOWNLTST
000247: 05,2743           54333                          TS       DNLSTCOD
000248:
000249: 05,2744           34750                          CA       BIT4                                  #  TURN ON THROTTLE COUNTER
000250: 05,2745           00006                          EXTEND
000251: 05,2746           05014                          WOR      CHAN14                                #  TURN ON THRUST DRIVE
000252: 05,2747           40101                          CS       FLAGWRD5
000253: 05,2750           74745                          MASK     ENGONBIT
000254: 05,2751           10000                          CCS      A
000255: 05,2752           12757                          TCF      +5
000256: 05,2753           34737                          CAF      BIT13
000257: 05,2754           00006                          EXTEND
000258: 05,2755           05011                          WOR      DSALMOUT                              #  TURN ENGINE ON
000259: 05,2756           12773                          TCF      GOPROG3
000260: 05,2757           34736                 +5       CAF      BIT14
000261: 05,2760           00006                          EXTEND
000262: 05,2761           05011                          WOR      DSALMOUT                              #  TURN ENGINE OFF
000263: 05,2762           12773                          TCF      GOPROG3
000264:
000265: 05,2763           00004        ENEMA             INHINT
000266: 05,2764           03114                          TC       STARTSB1
000267: 05,2765           12767                          TCF      GOPROG2A
000268: 05,2766           03157        GOPROG2           TC       STARTSB2
000269: 05,2767           03066        GOPROG2A          TC       LIGHTSET
000270: 05,2770           43064                          CS       RSFLGBTS                              #  CLEAR BITS 7 AND 14.
000271: 05,2771           70106                          MASK     FLGWRD10
000272: 05,2772           54106                          TS       FLGWRD10
000273:
000274: 05,2773           34756        GOPROG3           CAF      NUMGRPS                               #  VERIFY PHASE TABLE AGREEMENTS
000275: 05,2774           54161        PCLOOP            TS       MPAC       +5
000276: 05,2775           60000                          DOUBLE
000277: 05,2776           00006                          EXTEND
000278: 05,2777           50000                          INDEX    A
000279: 05,3000           30752                          DCA      -PHASE1                               #  COMPLEMENT INTO A, DIRECT INTO L.
000280: 05,3001           00006                          EXTEND
000281: 05,3002           06001                          RXOR     LCHAN                                 #  RESULT MUST BE -0 FOR AGREEMENT.
000282: 05,3003           10000                          CCS      A
000283: 05,3004           13052                          TCF      PTBAD                                 #  RESTART FAILURE.
000284: 05,3005           13052                          TCF      PTBAD
000285: 05,3006           13052                          TCF      PTBAD
000286:                                                                                                 #  Page 224
000287: 05,3007           10161                          CCS      MPAC       +5                         #  PROCESS ALL RESTART GROUPS.
000288: 05,3010           12774                          TCF      PCLOOP
000289:
000290: 05,3011           54162                          TS       MPAC       +6                         #  SET TO +0.
000291: 05,3012           05315                          TC       MMDSPLAY                              #  DISPLAY MAJOR MODE
000292:
000293: 05,3013           00004                          INHINT                                         #  RELINT DONE IN MMDSPLAY
000294:
000295: 05,3014           44736                          CS       DIDFLBIT                              #  CLEAR DIDFLAG IN ORDER TO FORCE R10 TO
000296: 05,3015           70075                          MASK     FLAGWRD1                              #  RE-INITIALIZE ITSELF IF IT HAD BEEN
000297: 05,3016           54075                          TS       FLAGWRD1                              #  OPERATION AT THE TIME OF THE RESTART.
000298:
000299: 05,3017           44740                          CS       RODFLBIT                              #  CLEAR RODFLAG.  IF P66 IS IN OPERATION
000300: 05,3020           70075                          MASK     FLAGWRD1                              #         IT WILL RE-INITIALIZE ITSELF AND
000301: 05,3021           54075                          TS       FLAGWRD1                              #         CONTINUE.
000302:
000303: 05,3022           44741                          CS       P21FLBIT                              #  CLEAR P21 FLAG SO THAT P21 WILL COMPUTE
000304: 05,3023           70074                          MASK     FLAGWRD0                              #  NEW BASE STATE VECTORS.
000305: 05,3024           54074                          TS       FLAGWRD0
000306:
000307: 05,3025           34756                          CAF      NUMGRPS                               #  SEE IF ANY GROUPS RUNNING.
000308: 05,3026           54161        NXTRST            TS       MPAC       +5
000309: 05,3027           60000                          DOUBLE
000310: 05,3030           50000                          INDEX    A
000311: 05,3031           10752                          CCS      PHASE1
000312: 05,3032           13034                          TCF      PACTIVE                               #  PNZ -- GROUP ACTIVE.
000313: 05,3033           13041                          TCF      PINACT                                #  +0 -- GROUP NOT RUNNING.
000314:
000315: 05,3034           54154        PACTIVE           TS       MPAC
000316: 05,3035           24154                          INCR     MPAC                                  #  ABS OF PHASE.
000317: 05,3036           24162                          INCR     MPAC       +6                         #  INDICATE GROUP DEMANDS PRESENT.
000318: 05,3037           33060                          CA       RACTCADR
000319: 05,3040           04622                          TC       SWCALL                                #  MUST RETURN TO SWRETURN.
000320:
000321: 05,3041           10161        PINACT            CCS      MPAC       +5                         #  PROCESS ALL RESTART GROUPS.
000322: 05,3042           13026                          TCF      NXTRST
000323:
000324: 05,3043           10162                          CCS      MPAC       +6                         #  NO, CHECK PHASE ACTIVITY FLAG
000325: 05,3044           12637                          TCF      ENDRSTRT                              #  PHASE ACTIVE
000326: 05,3045           34735                          CAF      BIT15                                 #  IS MODE -0
000327: 05,3046           71010                          MASK     MODREG
000328: 05,3047           00006                          EXTEND
000329: 05,3050           16001                          BZF      GOTOP00H                              #  NO
000330: 05,3051           12637                          TCF      ENDRSTRT                              #  YES
000331: 05,3052           05567        PTBAD             TC       ALARM                                 #  SET ALARM TO SHOW PHASE TABLE FAILURE.
000332: 05,3053           01107                          OCT      1107
000333:
000334: 05,3054           12477                          TCF      DOFSTRT1
000335:                                                                                                 #  Page 225
000336:                                                                                                 #  DO NOT USE GOPROG2 OR ENEMA WITHOUT CONSULTING P00H PEOPLE.
000337:
000338: 05,3055     4737               OCT10000          =        BIT13
000339: 05,3055     4355               OCT30000          =        PRIO30
000340: 05,3055           07777        OCT7777           OCT      7777
000341: 05,3056           32321        STIKSTRT          DEC      0.825268                              #  20 D/S MAXIMUM COMPANDED RATE
000342: 05,3057           77445        RATESTRT          DEC      -218       B-14
000343: 05,3060           03527        RACTCADR          CADR     RESTARTS
000344: 05,3061           21322        BOOLSTRT          OCT      21322
000345: 05,3062           77001        77001OCT          OCT      77001                                 #  .14 DEG SCALED AT 4.5 DEG
000346: 05,3063           00074        60DEC             DEC      60         B-14
000347: 05,3064           20100        RSFLGBTS          OCT      20100
000348: 05,3065           03434        MAXDB             OCTAL    03434                                 #  5 DEG ATTITUDE DEADBAND, SCALED AT 45.
000349:
000350: 05,3066           34747        LIGHTSET          CAF      BIT5                                  #  CHECK FOR MARK REJECT AND ERROR RESET
000351: 05,3067           00006                          EXTEND
000352: 05,3070           02016                          RAND     NAVKEYIN
000353: 05,3071           00006                          EXTEND
000354: 05,3072           13100                          BZF      NONAVKEY                              #  NO MARK REJECT
000355: 05,3073           00006                          EXTEND
000356: 05,3074           00015                          READ     MNKEYIN                               #  CHECK IF KEYS 2M AND 5M ON
000357: 05,3075           63372                          AD       -ELR                                  #  MAIN DSKY KEYCODE (BITS 1-5)
000358: 05,3076           00006                          EXTEND
000359: 05,3077           13101                          BZF      +2
000360:
000361: 05,3100           00002        NONAVKEY          TC       Q
000362:
000363: 05,3101           03105                          TC       STARTSUB
000364: 05,3102           12472                          TCF      DOFSTART
000365: 05,3103           03105                 +3       TC       STARTSUB
000366: 05,3104           12477                          TCF      DOFSTRT1                              #  DO FRESH START BUT DON'T TOUCH ENGINE
000367:
000368:                                                                                                 #  Page 226
000369:                                                                                                 #  INITIALIZATION COMMON TO BOTH FRESH START AND RESTART.
000370:
000371: 05,3105  E6,1536                                 EBANK=   AOSQ
000372: 05,3105           33362        STARTSUB          CAF      LDNPHAS1                              #  SET POINTER SO NEXT 20MS DOWNRUPT WILL
000373: 05,3106           54335                          TS       DNTMGOTO                              #  CAUSE THE CURRENT DOWNLIST TO BE
000374:                                                                                                 #  INTERRUPTED AND START SENDING FROM THE
000375:                                                                                                 #  BEGINNING OF THE CURRENT DOWNLIST.
000376: 05,3107           34746                          CAF      BIT6
000377: 05,3110           00006                          EXTEND
000378: 05,3111           02033                          RAND     CHAN33
000379: 05,3112           63376                          AD       RMODINIT
000380: 05,3113           54110                          TS       RADMODES
000381:
000382: 05,3114           34733        STARTSB1          CAF      POSMAX
000383: 05,3115           54026                          TS       TIME3
000384: 05,3116           67751                          AD       MINUS2
000385: 05,3117           54027                          TS       TIME4
000386: 05,3120           67752                          AD       NEGONE
000387: 05,3121           54030                          TS       TIME5
000388:
000389: 05,3122           35015                          CAF      EBANK6
000390: 05,3123           54003                          TS       EBANK
000391:
000392: 05,3124           44737                          CS       BIT13                                 #  CAUSE DAPIDLER TO CALL 1/ACCS
000393: 05,3125           71262                          MASK     RCSFLAGS
000394: 05,3126           55262                          TS       RCSFLAGS                              #  ZERO BIT 13
000395: 05,3127           34733                          CAF      POSMAX                                #  DISABLE TIME6 CLOCK.  JUST IN CASE A T6
000396: 05,3130           55466                          TS       T6NEXT                                #         RUPT IS ALREADY IN THE PRIORITY CHAIN,
000397: 05,3131           00006                          EXTEND                                         #         ENSURE THAT ITS INPUTS WILL RENDER IT
000398: 05,3132           03013                          WAND     CHAN13                                #         INEFFECTUAL.
000399: 05,3133           34755                          CAF      ZERO
000400: 05,3134           55465                          TS       NXT6ADR
000401: 05,3135           55472                          TS       NEXTP
000402:
000403: 05,3136           44751                          CS       ACCSOKAY
000404: 05,3137           70111                          MASK     DAPBOOLS
000405: 05,3140           54111                          TS       DAPBOOLS
000406:
000407: 05,3141           00006                          EXTEND                                         #  SET T5RUPT FOR DAPIDLER PROGRAM.
000408: 05,3142           33360                          DCA      IDLEADR
000409: 05,3143           53264                          DXCH     T5ADR
000410:
000411: 05,3144           40107                          CS       FLGWRD11                              #  IF R12 IS PERMITTED, ENSURE THAT NEXT
000412: 05,3145           74735                          MASK     LRBYBIT                               #         RADAR READS ARE NOT USED
000413: 05,3146           00006                          EXTEND
000414: 05,3147           13157                          BZF      STARTSB2                              #  R12 OFF
000415:
000416: 05,3150           24006                          INCR     BBANK                                 #  SET EBANK TO 7
000417: 05,3151  E7,1674                                 EBANK=   STILBADH
000418: 05,3151           11674                          CCS      STILBADH                              #  IF STILBADH>0, NEXT READ WILL BE IGNORED
000419:                                                                                                 #  Page 227
000420: 05,3152           13154                          TCF      +2
000421: 05,3153           25674                          INCR     STILBADH                              #  SET STILBADH TO IGNORE NEXT READ
000422:
000423: 05,3154           11675                 +2       CCS      STILBADV
000424: 05,3155           13157                          TCF      STARTSB2                              #  IF STILBADV>0, NEXT READ WILL BE IGNORED
000425: 05,3156           25675                          INCR     STILBADV                              #  SET STILBADV TO IGNORE NEXT READ
000426:
000427: 05,3157           33371        STARTSB2          CAF      OCT30001                              #  DURING SOFTWARE RESTART, DO NOT DISTURB
000428: 05,3160           00006                          EXTEND                                         #  ENGINE ON, OFF AND ISS WARNING.
000429: 05,3161           03011                          WAND     DSALMOUT
000430:
000431: 05,3162           44743                          CS       READRBIT                              #  CLEAR READRFLG FOR R29
000432: 05,3163           70077                          MASK     FLAGWRD3
000433: 05,3164           54077                          TS       FLAGWRD3
000434:
000435: 05,3165           40077                          CS       FLAGWRD3                              #  DURING SOFTWARE RESTART, CLEAR TURNON,
000436: 05,3166           74741                          MASK     NR29FBIT                              #  REPOSITION, CDU ZERO AND REMODE BITS
000437: 05,3167           00006                          EXTEND                                         #  IN RADMODES, SINCE TASKS ASSOCIATED
000438: 05,3170           13172                          BZF      +2                                    #  WITH THESE BITS HAVE BEEN KILLED
000439: 05,3171           34742                          CAF      BIT10                                 #  ALSO IF R29 HAD BEEN REQUESTED.
000440: 05,3172           63365                          AD       OCT32001                              #  (NOR29FLG = 0) CLEAR BIT 10 RADMODES
000441: 05,3173           40000                          COM                                            #  TO MAKE R29 FORGET IT HAD STARTED
000442: 05,3174           70110                          MASK     RADMODES                              #  DESIGNATING
000443: 05,3175           54110                          TS       RADMODES
000444: 05,3176           33367                          CAF      OCT27470                              #  DURING SOFTWARE RESTART, DO NOT DISTURB
000445: 05,3177           00006                          EXTEND                                         #  IMU FLAGS.  (COARSE ALIGN ENABLE, ZERO
000446: 05,3200           03012                          WAND     CHAN12                                #  IMU CDUS, ENABLE IMU COUNTER) AND GIMBAL
000447:                                                                                                 #  TRIM DRIVES.  LEAVE RR LOCKON ENABLE
000448:                                                                                                 #  ALONE.
000449:
000450: 05,3201           44750                          CS       NORRMBIT                              #  ENABLE R25.
000451: 05,3202           70101                          MASK     FLAGWRD5
000452: 05,3203           54101                          TS       FLAGWRD5
000453:
000454: 05,3204           44741                          CS       R77FLBIT                              #  CLEAR R77FLAG
000455: 05,3205           70101                          MASK     FLAGWRD5
000456: 05,3206           54101                          TS       FLAGWRD5
000457: 05,3207           33370                          CAF      OCT74160                              #  DURING SOFTWARE RESTART, DO NOT DISTURB
000458: 05,3210           00006                          EXTEND                                         #  TELEMETRY FLAGS, RESET TRAP FLAGS, AND
000459: 05,3211           03013                          WAND     CHAN13                                #  ENABLE T6RUPT FLAG.
000460:
000461: 05,3212           34740                          CAF      BIT12                                 #  REENABLE RUPT10 (RUPT QUICKLY
000462: 05,3213           00006                          EXTEND                                         #         RESUMES EXCEPT DURING P64)
000463: 05,3214           05013                          WOR      CHAN13
000464:
000465: 05,3215           34746                          CAF      BIT6                                  #  DURING SOFTWARE RESTART, DO NOT DISTURB
000466: 05,3216           00006                          EXTEND                                         #  GYRO ENABLE FLAG.
000467: 05,3217           03014                          WAND     CHAN14
000468:
000469: 05,3220  E3,1400                                 EBANK=   LST1
000470:                                                                                                 #  Page 228
000471: 05,3220           35007                          CAF      STARTEB
000472: 05,3221           54003                          TS       EBANK                                 #  SET FOR E3
000473:
000474: 05,3222           34734                          CAF      NEG1/2                                #  INITIALIZE WAITLIST DELTA-TS.
000475: 05,3223           55407                          TS       LST1       +7
000476: 05,3224           55406                          TS       LST1       +6
000477: 05,3225           55405                          TS       LST1       +5
000478: 05,3226           55404                          TS       LST1       +4
000479: 05,3227           55403                          TS       LST1       +3
000480: 05,3230           55402                          TS       LST1       +2
000481: 05,3231           55401                          TS       LST1       +1
000482: 05,3232           55400                          TS       LST1
000483:
000484: 05,3233           45236                          CS       ENDTASK
000485: 05,3234           55410                          TS       LST2
000486: 05,3235           55412                          TS       LST2       +2
000487: 05,3236           55414                          TS       LST2       +4
000488: 05,3237           55416                          TS       LST2       +6
000489: 05,3240           55420                          TS       LST2       +8D
000490: 05,3241           55422                          TS       LST2       +10D
000491: 05,3242           55424                          TS       LST2       +12D
000492: 05,3243           55426                          TS       LST2       +14D
000493: 05,3244           55430                          TS       LST2       +16D
000494: 05,3245           45237                          CS       ENDTASK    +1
000495: 05,3246           55411                          TS       LST2       +1
000496: 05,3247           55413                          TS       LST2       +3
000497: 05,3250           55415                          TS       LST2       +5
000498: 05,3251           55417                          TS       LST2       +7
000499: 05,3252           55421                          TS       LST2       +9D
000500: 05,3253           55423                          TS       LST2       +11D
000501: 05,3254           55425                          TS       LST2       +13D
000502: 05,3255           55427                          TS       LST2       +15D
000503: 05,3256           55431                          TS       LST2       +17D
000504:
000505: 05,3257           44755                          CS       ZERO                                  #  MAKE ALL EXECUTIVE REGISTER SETS
000506: 05,3260           54167                          TS       PRIORITY                              #  AVAILABLE.
000507: 05,3261           54203                          TS       PRIORITY   +12D
000508: 05,3262           54217                          TS       PRIORITY   +24D
000509: 05,3263           54233                          TS       PRIORITY   +36D
000510: 05,3264           54247                          TS       PRIORITY   +48D
000511: 05,3265           54263                          TS       PRIORITY   +60D
000512: 05,3266           54277                          TS       PRIORITY   +72D
000513: 05,3267           54313                          TS       PRIORITY   +84D
000514:
000515: 05,3270           55310                          TS       DSRUPTSW
000516: 05,3271           54067                          TS       NEWJOB                                #  SHOWS NO ACTIVE JOBS.
000517:
000518: 05,3272           33364                          CAF      VAC1ADRC                              #  MAKE ALL VAC AREAS AVAILABLE.
000519: 05,3273           54400                          TS       VAC1USE
000520: 05,3274           63366                          AD       LTHVACA
000521:                                                                                                 #  Page 229
000522: 05,3275           54454                          TS       VAC2USE
000523: 05,3276           63366                          AD       LTHVACA
000524: 05,3277           54530                          TS       VAC3USE
000525: 05,3300           63366                          AD       LTHVACA
000526: 05,3301           54604                          TS       VAC4USE
000527: 05,3302           63366                          AD       LTHVACA
000528: 05,3303           54660                          TS       VAC5USE
000529:
000530: 05,3304           34363                          CAF      TEN
000531: 05,3305           54154        DSPOFF            TS       MPAC                                  #  R1, R2, R3
000532: 05,3306           44740                          CS       BIT12
000533: 05,3307           50154                          INDEX    MPAC
000534: 05,3310           55022                          TS       DSPTAB
000535: 05,3311           10154                          CCS      MPAC
000536: 05,3312           13305                          TCF      DSPOFF
000537:
000538: 05,3313           55323                          TS       DELAYLOC
000539: 05,3314           55324                          TS       DELAYLOC   +1
000540: 05,3315           55325                          TS       DELAYLOC   +2
000541: 05,3316           55073                          TS       R1SAVE
000542: 05,3317           54045                          TS       INLINK
000543: 05,3320           54775                          TS       DSPCNT
000544: 05,3321           55041                          TS       CADRSTOR
000545: 05,3322           55012                          TS       REQRET
000546: 05,3323           55014                          TS       CLPASS
000547: 05,3324           55011                          TS       DSPLOCK
000548: 05,3325           55017                          TS       MONSAVE                               #  KILL MONITOR
000549: 05,3326           55020                          TS       MONSAVE1
000550: 05,3327           55000                          TS       VERBREG
000551: 05,3330           55001                          TS       NOUNREG
000552: 05,3331           55042                          TS       DSPLIST
000553: 05,3332           55307                          TS       MARKSTAT
000554: 05,3333           55043                          TS       EXTVBACT                              #  MAKE EXTENDED VERBS AVAILABLE
000555: 05,3334           55301                          TS       IMUCADR
000556: 05,3335           55302                          TS       OPTCADR
000557: 05,3336           55303                          TS       RADCADR
000558: 05,3337           55304                          TS       ATTCADR
000559: 05,3340           55311                          TS       LGYRO
000560: 05,3341           54100                          TS       FLAGWRD4                              #  KILL INTERFACE DISPLAYS
000561: 05,3342           34760                          CAF      NOUTCON
000562: 05,3343           55015                          TS       NOUT
000563:
000564: 05,3344           44753                          CS       ONE
000565: 05,3345           55077                          TS       SAMPLIM
000566: 05,3346           34746                          CAF      BIT6
000567: 05,3347           71300                          MASK     IMODES33                              #  LEAVE BIT 6 UNCHANGED
000568: 05,3350           65026                          AD       IM33INIT                              #  NO PIP OR TM FAILS.  BIT6=0 IN THIS WORD.
000569: 05,3351           55300                          TS       IMODES33
000570:
000571: 05,3352           33363                          CAF      LESCHK                                #  SELF CHECK GO-TO REGISTER.
000572:                                                                                                 #  Page 230
000573: 05,3353           55361                          TS       SELFRET
000574:
000575: 05,3354           44360                          CS       VD1
000576: 05,3355           54776                          TS       DSPCOUNT
000577:
000578: 05,3356           00002                          TC       Q
000579: 05,3357  E6,1536                                 EBANK=   AOSQ
000580: 05,3357           02024 34066  IDLEADR           2CADR    DAPIDLER
000581:
000582: 05,3361           00435        IFAILINH          OCT      435
000583: 05,3362           03522        LDNPHAS1          GENADR   DNPHASE1
000584: 05,3363           03363        LESCHK            GENADR   SELFCHK
000585: 05,3364           00400        VAC1ADRC          ADRES    VAC1USE
000586: 05,3365           32001        OCT32001          OCT      32001
000587: 05,3366           00054        LTHVACA           DEC      44         B-14
000588:
000589: 05,3367           27470        OCT27470          OCT      27470
000590: 05,3370           74160        OCT74160          OCT      74160
000591: 05,3371           30001        OCT30001          OCT      30001
000592: 05,3372     5007               STARTEB           EQUALS   EBANK3
000593: 05,3372     4756               NUMGRPS           EQUALS   FIVE
000594: 05,3372           77755        -ELR              OCT      -22                                   #  -ERROR LIGHT RESET KEY CODE.
000595: 05,3373           37411        IM30INIF          OCT      37411                                 #  INHIBITS IMU FAIL FOR 5 SEC AND PIP ISSW
000596: 05,3374           37000        IM30INIR          OCT      37000
000597: 05,3375     5026               IM33INIT          =        PRIO16                                #  NO PIP OR TM FAIL SIGNALS.
000598: 05,3375           00450        9,6,4             OCT      450
000599: 05,3376           00102        RMODINIT          OCT      00102
000600: 05,3377           00000        SWINIT            OCT      0
000601: 05,3400           00000                          OCT      0
000602: 05,3401           00000                          OCT      0
000603: 05,3402           02000                          OCT      02000                                 #  BIT 11 = NOR29FLG
000604: 05,3403           00000                          OCT      0
000605: 05,3404           00000                          OCT      0
000606: 05,3405           00000                          OCT      0
000607: 05,3406           00100                          OCT      00100
000608:
000609: 05,3407           00000                          OCT      0
000610: 05,3410           00000                          OCT      0
000611: 05,3411           00000                          OCT      0
000612: 05,3412           40000                          OCT      40000                                 #  BIT 15 = LRBYPASS.
000613:
000614:                                                                                                 #  Page 231
000615:                                                                                                 #  PROGRAM NAME           GOTOP00H                ASSEMBLY SUNDANCE
000616:                                                                                                 #  LOG SECTION            FRESH START AND RESTART
000617:
000618:                                                                                                 #  FUNCTIONAL DESCRIPTION
000619:
000620:                                                                                                 #         FLASH V 38 ON DSKY MM CHANGE REQUEST
000621:
000622:                                                                                                 #  INPUT/OUTPUT INFORMATION
000623:
000624:                                                                                                 #         A. CALLING SEQUENCE                     TC GOTOP00H
000625:                                                                                                 #         B. ERASABLE INITIALIZATION              NONE
000626:                                                                                                 #         C. OUTPUT FLASH V 37 ON DSKY
000627:                                                                                                 #         D. DEBRIS                               L
000628:
000629:                                                                                                 #  PROGRAM ANALYSIS
000630:
000631:                                                                                                 #         A. SUBROUTINES CALLED                   PRIODSPR, LINUS
000632:                                                                                                 #         B. NORMAL EXIT                          TCF ENDOFJOB
000633:                                                                                                 #         C. ALARM AND ABORT EXITS                NONE
000634:
000635:    6001                                          BLOCK    03
000636:    6000                                          SETLOC   FFTAG5
000637:    6000                                          BANK
000638:
000639:    6001                                          COUNT*   $$/P00
000640:    6001           34764        GOTOP00H          CAF      OCT33                                 #  4.33 SPOT FOR GOP00FIX
000641:    6002           54001                          TS       L
000642:    6003           40000                          COM
000643:    6004           52760                          DXCH     -PHASE4
000644:
000645:    6005           04635                          TC       POSTJUMP
000646:    6006           10024                          CADR     GOP00FIX
000647:    6007           00024        OCT24             MM       20         B-14
000648:    6010           00031        OCT31             MM       25         B-14
000649:
000650: 20,2004                                          BANK     20
000651: 04,2000                                          SETLOC   VERB37
000652: 04,2000                                          BANK
000653:
000654: 04,2024                                          COUNT*   $$/P00                                #  VERB 37 AND P00 IN BANK 4.
000655: 04,2024           05516        GOP00FIX          TC       DOWNFLAG                              #  ALLOW X-AXIS OVERRIDE
000656: 04,2025           00311                          ADRES    XOVINFLG
000657:
000658: 04,2026           05516                          TC       DOWNFLAG                              #  INSURE THAT ULLAGE IS OFF
000659: 04,2027           00314                          ADRES    ULLAGFLG
000660:                                                                                                 #  Page 232
000661: 04,2030           05476                          TC       CLEARMRK   +2                         #  RELEASE MARK DISPLAY SYSTEM.
000662: 04,2031           32037                          CAF      V37N99
000663: 04,2032           04616                          TC       BANKCALL
000664: 04,2033           20477                          CADR     GOFLASH
000665: 04,2034           12031                          TCF      -3
000666: 04,2035           12031                          TCF      -4
000667: 04,2036           12031                          TCF      -5
000668:
000669: 04,2037           11343        V37N99            VN       3799
000670:
000671:                                                                                                 #  Page 233
000672:                                                                                                 #  PROGRAM NAME           V37                     ASSEMBLY SUNDANCE
000673:
000674:                                                                                                 #  LOG SECTION            FRESH START AND RESTART
000675:
000676:                                                                                                 #  FUNCTIONAL DESCRIPTION
000677:
000678:                                                                                                 #         1. CHECK IF NEW PROGRAM ALLOWED.  IF BIT 1 OF FLAGWRD2 (NODOFLAG) IS SET, AN ALARM 1520 IS CALLED.
000679:                                                                                                 #         2. CHECK FOR VALIDITY OF PROGRAM SELECTED.  IF AN INVALID PROGRAM IS SELECTED, THE OPERATOR ERROR LIGHT IS
000680:                                                                                                 #            SET AND CURRENT ACTIVITY, IF ANY, CONTINUE.
000681:                                                                                                 #         3. SERVICER IS TERMINATED IF IT HAS BEEN RUNNING.
000682:                                                                                                 #         4. INSTALL IS EXECUTED TO AVOID INTERRUPTING INTEGRATION.
000683:                                                                                                 #         5. THE ENGINE IS TURNED OFF AND THE DAP IS INITIALIZED FOR COAST.
000684:                                                                                                 #         6. TRACK AND UPDATE FLAGS ARE SET TO ZERO.
000685:                                                                                                 #         7. DISPLAY SYSTEM IS RELEASED.
000686:                                                                                                 #         8. THE FOLLOWING ARE PERFORMED FOR EACH OF THE THREE CASES.
000687:                                                                                                 #                 A. PROGRAM SELECTED IS P00
000688:                                                                                                 #                         1. RENDEZVOUS AND P25 FLAGS ARE RESET.  (KILL P20 AND P25)
000689:                                                                                                 #                         2. STATINT1 IS SCHEDULED BY SETTING RESTART GROUP 2.
000690:                                                                                                 #                         3. MAJOR MODE 00 IS STORED IN THE MODE REGISTER (MODREG).
000691:                                                                                                 #                         4. SUPERBANK 3 IS SELECTED.
000692:                                                                                                 #                         5. NODOFLAG IS RESET.
000693:                                                                                                 #                         6. ALL RESTART GROUPS EXCEPT GROUP2 ARE CLEARED. CONTROL IS TRANSFERRED TO RESTART PROGRAM (GOPROG2)
000694:                                                                                                 #                            WHICH CAUSES ALL CURRENT ACTIVITY TO BE DISCONTINUED AND A 9 MINUTE INTEGRATION CYCLE TO BE
000695:                                                                                                 #                            INITIATED.
000696:                                                                                                 #                 B. PROGRAM SELECTES IS P20 OR P25.
000697:                                                                                                 #                         1. IF THE CURRENT MAJOR MODE IS THE SAME AS THE SELECTED NEWPROGRAM.  THE PROGRAM IS RE-INITIALIZED
000698:                                                                                                 #                            VIA V37XEQ, ALL RESTART GROUPS, EXCEPT GROUP 4 ARE CLEARED.
000699:                                                                                                 #                         2. IF THE CURRENT MAJOR MODE IS NOT EQUAL TO THE NEW REQUEST, A CHECK IS MADE TO SEE IF THE REQUEST-
000700:                                                                                                 #                            ED MAJOR MODE HAS BEEN RUNNING THE BACKGROUND,
000701:                                                                                                 #                            AND IF IT HAS, NO NEW PROGRAM IS SCHEDULED, THE EXISTING
000702:                                                                                                 #                            P20 OR P25 IS RESTARTED TO CONTINUE, AND ITS MM IS SET.
000703:                                                                                                 #                         3. CONTROL IS TRANSFERRED TO GOPROG2.
000704:                                                                                                 #                 C. PROGRAM SELECTED IS NEITHER P00, P20, NOR P25
000705:                                                                                                 #                         1. V37XEQ IS SCHEDULED (AS A JOB) BY SETTING RESTART GROUP 4
000706:                                                                                                 #                         2. ALL CURRENT ACTIVITY EXCEPT RENDEZVOUS AND TRACKING IS DISCONTINUED BY CLEARING ALL RESTART
000707:                                                                                                 #                            GROUPS.  IF THE RENDEZVOUS OR THE P25 FLAG IS ON, GROUP2 IS NOT CLEARED, ALLOWING THESE PROGRAMS
000708:                                                                                                 #                            TO CONTINUE.
000709:
000710:                                                                                                 #  INPUT/OUTPUT INFORMATION
000711:
000712:                                                                                                 #         A. CALLING SEQUENCE
000713:                                                                                                 #                 CONTROL IS DIRECTED TO V37 BY THE VERBFAN ROUTINE.
000714:                                                                                                 #                 VERBFAN GOES TO C(VERBTAB+C(VERBREG)). VERB 37 = MMCHANG.
000715:                                                                                                 #                 MMCHANG EXECUTES A `TC POSTJUMP', CADR V37.
000716:
000717:                                                                                                 #         B. ERASABLE INITIALIZATION              NONE
000718:
000719:                                                                                                 #         C. OUTPUT
000720:                                                                                                 #  Page 234
000721:                                                                                                 #                 MAJOR MOD CHANGE
000722:
000723:                                                                                                 #         D. DEBRIS
000724:                                                                                                 #                 MMNUMBER, MPAC +1, MINDEX, BASETEMP +C(MINDEX), FLAGWRD0, FLAGWRD1, FLAGWRD2, MODREG, GOLOC -1,
000725:                                                                                                 #                 GOLOC, GOLOC +1, GOLOC +2, BASETEMP, -PHASE2, PHASE2, -PHASE4
000726:
000727:                                                                                                 #  PROGRAM ANALYSIS
000728:
000729:                                                                                                 #         A. SUBROUTINES CALLED
000730:                                                                                                 #                 ALARM, RELDSP, PINBRNCH, INTSTALL, ENGINOF2, ALLCOAST, V37KLEAN, GOPROG2, FALTON, FINDVAC, SUPERSW,
000731:                                                                                                 #                 DSPMM
000732:
000733:                                                                                                 #         B. NORMAL EXIT                          TC ENDOFJOB
000734:
000735:                                                                                                 #         C. ALARMS                               1520 (MAJOR MODE CHANGE NOT PERMITTED)
000736:
000737: 04,2040           54774        V37               TS       MMNUMBER                              #  SAVE MAJOR MODE
000738: 04,2041           34355                          CAF      PRIO30                                #  RESTART AT PINBALL PRIORITY
000739: 04,2042           54366                          TS       RESTREG
000740:
000741: 04,2043           31277                          CA       IMODES30                              #  IS IMU BEING INITIALIZED
000742: 04,2044           74746                          MASK     BIT6
000743: 04,2045           10000                          CCS      A
000744: 04,2046           12065                          TCF      CANTROD
000745:
000746: 04,2047           40774                          CS       MMNUMBER                              #  IS P70 REQUESTED?
000747: 04,2050           62403                          AD       DEC70
000748: 04,2051           00006                          EXTEND
000749: 04,2052           12376                          BZF      SETUP70                               #  YES
000750: 04,2053           64753                          AD       ONE                                   #  IS P71 REQUESTED?
000751: 04,2054           00006                          EXTEND
000752: 04,2055           12375                          BZF      SETUP71                               #  YES
000753:
000754: 04,2056           30774                          CA       MMNUMBER                              #  IS NEW REQUEST P00
000755: 04,2057           00006                          EXTEND
000756: 04,2060           12107                          BZF      ISSERVON                              #  YES, CHECK SERVICER STATUS
000757:
000758: 04,2061           40076                          CS       FLAGWRD2                              #  NO, IS NODO V37 FLAG SET
000759: 04,2062           74753                          MASK     NODOBIT
000760: 04,2063           10000                          CCS      A
000761: 04,2064           12072                          TCF      CHECKTAB                              #  NO
000762: 04,2065           05567        CANTROD           TC       ALARM
000763: 04,2066           01520                          OCT      1520
000764:
000765: 04,2067           04457        V37BAD            TC       RELDSP                                #  RELEASED DISPLAY FROM ASTRONAUT
000766:
000767: 04,2070           04635                          TC       POSTJUMP                              #  BRING BACK LAST NORMAL DISPLAY IF THERE
000768: 04,2071           21051                          CADR     PINBRNCH                              #  WAS ONE.  OTHERWISE DO AN EOJ.
000769:
000770: 04,2072           32470        CHECKTAB          CA       NOV37MM                               #  INDEX FOR MM TABLES.
000771:
000772:                                                                                                 #  Page 235
000773: 04,2073           54155        AGAINMM           TS       MPAC       +1
000774: 04,2074           50155                          NDX      MPAC       +1
000775: 04,2075           32437                          CA       PREMM1                                #  OBTAIN WHICH MM THIS IS FOR
000776: 04,2076           76077                          MASK     LOW7
000777: 04,2077           40000                          COM
000778: 04,2100           60774                          AD       MMNUMBER
000779: 04,2101           10000                          CCS      A
000780: 04,2102           10155                          CCS      MPAC       +1                         #  IF GR, SEE IF ANY MORE IN LIST
000781: 04,2103           12073                          TCF      AGAINMM                               #  YES, GET NEXT ONE
000782: 04,2104           12326                          TCF      V37NONO                               #  LAST TIME OR PASSED MM
000783:
000784: 04,2105           30155                          CA       MPAC       +1
000785: 04,2106           54773                          TS       MINDEX                                #  SAVE INDEX FOR LATER
000786:
000787: 04,2107           40103        ISSERVON          CS       FLAGWRD7                              #  V37 FLAG SET -- I.E., IS SERVICER GOING
000788: 04,2110           74746                          MASK     V37FLBIT
000789: 04,2111           10000                          CCS      A
000790: 04,2112           12132                          TCF      CANV37
000791:
000792: 04,2113           05516                          TC       DOWNFLAG                              #  YES, TURN OFF THE AVERAGE FLAG AND
000793: 04,2114           00163                          ADRES    AVEGFLAG                              #  WAIT FOR SERVICER TO RETURN TO V37RET
000794:
000795: 04,2115           15155                          TCF      ENDOFJOB
000796:
000797: 04,2116           40074        V37RET            CS       FLAGWRD0                              #  IS P20 PR 022 RUNNING?
000798: 04,2117           74745                          MASK     RNDVZBIT
000799: 04,2120           10000                          CCS      A
000800: 04,2121           12123                          TCF      +2                                    #  NO. CHECK FOR P25.
000801: 04,2122           12130                          TCF      2.7SPT                                #  YES. DO 2.7SPOT
000802: 04,2123           40074                          CS       FLAGWRD0                              #  IS P25 RUNNING?
000803: 04,2124           74743                          MASK     P25FLBIT
000804: 04,2125           10000                          CCS      A
000805: 04,2126           32372        2.0SPT            CA       OCT37667
000806: 04,2127           64747        2.11SPT           AD       BIT5
000807: 04,2130           62373        2.7SPT            AD       OCT40072
000808: 04,2131           05357                          TC       PHSCHNGA
000809:
000810: 04,2132           34755        CANV37            CAF      ZERO
000811: 04,2133           00006                          EXTEND
000812: 04,2134           01007                          WRITE    SUPERBNK
000813:
000814: 04,2135           32371                          CAF      R00AD
000815: 04,2136           54374                          TS       TEMPFLSH
000816:
000817: 04,2137           05353                          TC       PHASCHNG
000818: 04,2140           00014                          OCT      14
000819:
000820: 04,2141           06042        ROC               TC       INTPRET
000821:
000822: 04,2142           77624                          CALL                                           #  WAIT FOR INTEGRATION TO FINISH
000823:                                                                                                 #  Page 236
000824: 04,2143           27410                                   INTSTALL
000825: 04,2144           77776        DUMMYAD           EXIT
000826:
000827: 04,2145           05516                          TC       DOWNFLAG
000828: 04,2146           00124                          ADRES    3AXISFLG                              #  RESET 3-AXIT FLAG
000829:
000830: 04,2147           05516                          TC       DOWNFLAG
000831: 04,2150           00055                          ADRES    P00HFLAG
000832:
000833: 04,2151           34735                          CAF      LRBYBIT                               #  CLEAN UP THE R12 FLAGWORD.
000834: 04,2152           54107                          TS       FLGWRD11
000835:
000836: 04,2153           05516                          TC       DOWNFLAG                              #  INSURE THAT THE R04FLAG IS CLEAR.
000837: 04,2154           00063                          ADRES    R04FLAG
000838:
000839: 04,2155           05516                          TC       DOWNFLAG
000840: 04,2156           00056                          ADRES    GLOKFAIL                              #  FLAGWORD 3 BIT 14
000841:
000842: 04,2157           05516                          TC       DOWNFLAG                              #  INSURE MUNFLAG IS CLEAR.
000843: 04,2160           00141                          ADRES    MUNFLAG
000844:
000845: 04,2161           05516                          TC       DOWNFLAG                              #  RESET ABORT TARGETING FLAG (USE
000846: 04,2162           00217                          ADRES    ABTTGFLG                              #         PARAMETERS J1 AND KU)
000847:
000848: 04,2163           05516                          TC       DOWNFLAG                              #  ALLOW X-AXIS OVERRIDE.
000849: 04,2164           00311                          ADRES    XOVINFLG
000850: 04,2165           10774                          CCS      MMNUMBER                              #  IS THIS A P00H REQUEST
000851: 04,2166           12314                          TCF      NOUVEAU                               #  NO, PICK UP NEW PROGRAM
000852:
000853: 04,2167           04457        P00H              TC       RELDSP                                #  RELEASE DISPLAY SYSTEM
000854:
000855: 04,2170           35017                          CAF      PRIO5                                 #  SET VARIABLE RESTART PRIORITY FOR
000856: 04,2171           55055                          TS       PHSPRDT2                              #  P00 INTEGRATION.
000857:
000858: 04,2172           06011                          TC       CLRADMOD                              #  CLRADMOD DOES NA INHINT.
000859:
000860: 04,2173           44753                          CS       NODOBIT                               #  TURN OFF NODOFLAG.
000861: 04,2174           70076                          MASK     FLAGWRD2
000862: 04,2175           54076                          TS       FLAGWRD2
000863:
000864: 04,2176           34756                          CA       FIVE                                  #  SET RESTART FOR STATINT
000865: 04,2177           54001                          TS       L
000866: 04,2200           40000                          COM
000867: 04,2201           52754                          DXCH     -PHASE2
000868:
000869: 04,2202           42374                          CS       OCT700                                #  TURN OFF P20, P25, IMU IN USE FLAG
000870: 04,2203           70074                          MASK     FLAGWRD0
000871: 04,2204           54074                          TS       FLAGWRD0   REMDFLG
000872:
000873: 04,2205           34755                          CAF      DNLADP00
000874:                                                                                                 #  Page 237
000875: 04,2206           54333        SEUDOP00          TS       DNLSTCOD                              #  SET UP APPROPRIATE DOWNLIST CODE
000876: 04,2207           55321                          TS       AGSWORD                               #    (CURRENT LIST WILL BE COMPLETED BEFORE
000877:                                                                                                 #      NEW ONE IS STARTED)
000878:
000879: 04,2210           04674                          TC       IBNKCALL
000880: 04,2211           75561                          CADR     ENGINOF1
000881:
000882: 04,2212           04674                          TC       IBNKCALL                              #  INSLURE ALLCOAST.
000883: 04,2213           40205                          CADR     ALLCOAST                              #  DOES A RESTORDB.
000884:
000885: 04,2214           44775                          CS       OCT120                                #  TURN OFF TRACK, UPDATE FLAGS
000886: 04,2215           55071                          TS       EBANKTEM
000887: 04,2216           70075                          MASK     FLAGWRD1
000888: 04,2217           54075                          TS       FLAGWRD1
000889:
000890: 04,2220           04674                          TC       IBNKCALL                              #  KILL GROUPS 1,3,5,6
000891: 04,2221           12650                          CADR     V37KLEAN
000892:
000893: 04,2222           10774                          CCS      MMNUMBER                              #  IS IT P00H
000894: 04,2223           12232                          TCF      RENDV00                               #  NO
000895: 04,2224           04674        GOMOD             TC       IBNKCALL                              #  REDUNDANT EXCEPT FOR GROUP 4
000896: 04,2225           12645                          CADR     P00KLEAN
000897:
000898: 04,2226           30774                          CA       MMNUMBER
000899: 04,2227           55010                          TS       MODREG
000900:
000901: 04,2230           04635        GOGOPROG          TC       POSTJUMP
000902: 04,2231           12766                          CADR     GOPROG2
000903:
000904: 04,2232           41010        RENDV00           CS       MODREG                                #  IS CURRENT PROGRAM 22
000905: 04,2233           62332                          AD       OCT26
000906: 04,2234           00006                          EXTEND
000907: 04,2235           12254                          BZF      RESET22                               #  YES -- CLEAR RENDEZVOUS FLAG
000908:
000909: 04,2236           40774                          CS       MMNUMBER                              #  IS NE PROGRAM P22
000910: 04,2237           62332                          AD       OCT26
000911: 04,2240           00006                          EXTEND
000912: 04,2241           12254                          BZF      RESET22
000913:
000914: 04,2242           67751                          AD       NEG2                                  #  IS NEW PROGRAM = P20 OR P25
000915: 04,2243           00006                          EXTEND
000916: 04,2244           12266                          BZF      RENDN00                               #  YES
000917: 04,2245           64756                          AD       FIVE                                  #  25
000918: 04,2246           00006                          EXTEND
000919: 04,2247           12266                          BZF      RENDN00                               #  YES
000920:
000921: 04,2250           32330                          CA       OCT500                                #  NO, IS EITHER P20 OR P25 RUNNING
000922: 04,2251           70074                          MASK     FLAGWRD0
000923: 04,2252           10000                          CCS      A
000924:                                                                                                 #  Page 238
000925: 04,2253           12263                          TCF      P00FIZZ                               #  YES, LEAVE GROUP 2 TO PICK UP P20 OR P25
000926:
000927: 04,2254           42374        RESET22           CS       OCT700                                #  CLEAR RENDEZVOUS, P25
000928: 04,2255           70074                          MASK     FLAGWRD0                              #  AND IMU IN USE FLAGS
000929: 04,2256           54074                          TS       FLAGWRD0
000930: 04,2257           06011                          TC       CLRADMOD
000931:
000932: 04,2260           00006        KILL2             EXTEND                                         #  NO, KILL 2
000933: 04,2261           34755                          DCA      NEG0
000934: 04,2262           52754                          DXCH     -PHASE2
000935:
000936: 04,2263           32370        P00FIZZ           CAF      V37QCAD                               #  RESTART POINT FOR V37XEQ
000937: 04,2264           54374                          TS       TEMPFLSH
000938:
000939: 04,2265           12230                          TCF      GOGOPROG
000940:
000941: 04,2266           41010        RENDN00           CS       MODREG
000942: 04,2267           66007                          AD       OCT24
000943: 04,2270           00006                          EXTEND
000944: 04,2271           12260                          BZF      KILL2                                 #  P20 OR P25 ON TOP OF P20 OR P25 --
000945:
000946: 04,2272           64756                          AD       FIVE
000947: 04,2273           00006                          EXTEND
000948: 04,2274           12260                          BZF      KILL2
000949:
000950: 04,2275           32330                          CA       OCT500
000951: 04,2276           70074                          MASK     FLAGWRD0
000952: 04,2277           60774                          AD       MMNUMBER
000953: 04,2300           40000                          COM
000954: 04,2301           62333                          AD       P20REG                                #  IS IT 20 AND IS RENDEZVOUS FLAG ON
000955: 04,2302           00006                          EXTEND
000956: 04,2303           12310                          BZF      STATQUO                               #  YES
000957: 04,2304           62331                          AD       OCT305                                #  IS IT 25 AND IS P25 BIT ON
000958: 04,2305           00006                          EXTEND
000959: 04,2306           12310                          BZF      STATQUO                               #  YES, LEAVE AS IS
000960: 04,2307           12260                          TCF      KILL2
000961:
000962: 04,2310           40075        STATQUO           CS       FLAGWRD1                              #  SET TRACKFLAG
000963: 04,2311           74775                          MASK     OCT120                                #         UPDATE FLAG
000964: 04,2312           26075                          ADS      FLAGWRD1
000965:
000966: 04,2313           12224                          TCF      GOMOD
000967:
000968: 04,2314           32330        NOUVEAU           CAF      OCT500                                #  IS P20 OR P25 FLAG SET
000969: 04,2315           70074                          MASK     FLAGWRD0
000970: 04,2316           10000                          CCS      A
000971: 04,2317           12322                          TCF      +3                                    #  YES
000972: 04,2320           05516                          TC       DOWNFLAG                              #  NO, RESET IMUINUSE FLAG
000973: 04,2321           00007                          ADRES    IMUSE
000974:                                                                                                 #  Page 239
000975: 04,2322           50773                          INDEX    MINDEX
000976: 04,2323           32471                          CAF      DNLADMM1                              #  OBTAIN APPROPIRATE DOWNLIST ADDRESS
000977:
000978: 04,2324           00004                          INHINT
000979: 04,2325           12206                          TCF      SEUDOP00
000980:
000981: 04,2326           04364        V37NONO           TC       FALTON                                #  COME HERE IF MM REQUESTED DOESN'T EXIST
000982:
000983: 04,2327           12067                          TCF      V37BAD
000984:
000985: 04,2330     4750               OCT00010          EQUALS   BIT4
000986: 04,2330           00500        OCT500            OCT      500                                   #  BITS 7 AND 9
000987: 04,2331           00305        OCT305            OCT      305
000988: 04,2332           00026        OCT26             OCT      26
000989: 04,2333           00124        P20REG            OCT      124
000990:
000991: 04,2334           00004        V37XEQ            INHINT
000992: 04,2335           50773                          INDEX    MINDEX
000993: 04,2336           32437                          CAF      PREMM1                                #  OBTAIN PRIO, EBANK, AND MM
000994: 04,2337           55057                          TS       MMTEMP
000995: 04,2340           54020                          TS       CYR                                   #  SHIFT RIGHT TO BITS 14-10
000996:
000997: 04,2341           30020                          CA       CYR
000998: 04,2342           77730                          MASK     PRIO37
000999: 04,2343           55061                          TS       PHSPRDT4                              #  PRESET GROUP 4 RESTART PRIORITY
001000: 04,2344           54063                          TS       NEWPRIO                               #  STORE PRIO FOR SPVAC
001001:
001002: 04,2345           31057                          CA       MMTEMP                                #  OBTAIN EBANK -- BITS 8, 9, 10 OF MMTEMP.
001003: 04,2346           00006                          EXTEND
001004: 04,2347           74744                          MP       BIT8
001005: 04,2350           74757                          MASK     LOW3
001006: 04,2351           54001                          TS       L
001007:
001008: 04,2352           50773                          INDEX    MINDEX
001009: 04,2353           32406                          CAF      FCADRMM1
001010: 04,2354           55060                          TS       BASETEMP                              #  MAKE BBCON BY ADDING HI5 OR FCADR
001011: 04,2355           74350                          MASK     HI5
001012: 04,2356           26001                          ADS      L
001013:
001014: 04,2357           31060                          CA       BASETEMP                              #  OBTAIN GENADR PORTION OF 2CADR.
001015: 04,2360           75012                          MASK     LOW10
001016: 04,2361           64741                          AD       BIT11
001017:
001018: 04,2362           05116                          TC       SPVAC
001019:
001020: 04,2363           31057        V37XEQC           CA       MMTEMP                                #  UPON RETURN FROM FINDVAC PLACE THE
001021: 04,2364           76077                          MASK     LOW7                                  #  NEW MM IN MODREG (THE LOW 7 BITS OF
001022: 04,2365           05314                          TC       NEWMODEA                              #  PHSPRDT1)
001023:
001024: 04,2366           04457                          TC       RELDSP
001025:                                                                                                 #  Page 240
001026: 04,2367           05155                          TC       ENDOFJOB                              #  AND EXIT
001027:
001028: 04,2370     5650               NEG7              EQUALS   OCT77770
001029:
001030: 04,2370     1057               MMTEMP            EQUALS   PHSPRDT3
001031: 04,2370     1060               BASETEMP          EQUALS   TBASE4
001032: 04,2370           10337        V37QCAD           CADR     V37XEQ     +3
001033: 04,2371           10144        R00AD             CADR     DUMMYAD
001034: 04,2372           37667        OCT37667          OCT      37667
001035: 04,2373           40072        OCT40072          OCT      40072
001036: 04,2374           00700        OCT700            OCT      700
001037:
001038: 04,2375           36250        SETUP71           CAF      THREE
001039: 04,2376           54002        SETUP70           TS       Q
001040: 04,2377           00006                          EXTEND
001041: 04,2400           32405                          DCA      P70CADR
001042: 04,2401           60002                          AD       Q
001043: 04,2402           52006                          DTCB
001044:
001045: 04,2403           00106        DEC70             DEC      70         B-14
001046: 04,2404  E7,1520                                 EBANK=   R
001047: 04,2404           02067 42067  P70CADR           2CADR    P70
001048:
001049:                                                                                                 #  FOR VERB 37 TWO TABLES ARE MAINTAINED.  EACH TABLE HAS AN ETRY FOR EACH
001050:                                                                                                 #  MAJOR MODE THAT CAN BE STARTED FROM THE KEYBOARD.  THE ENTRIES ARE PUT
001051:                                                                                                 #  INTO THE TABLE WITH THE ENTRY FOR THE HIGHEST MAJOR MODE COMING FIRST,
001052:                                                                                                 #  TO THE LOWEST MAJOR MODE WHICH IS THE LAST ENTRY IN EACH TABLE.
001053:
001054:                                                                                                 #  THE FCADRMM TABLE CONTAINS THE FCADR OF THE STARTING JOB OF
001055:                                                                                                 #  THE MAJOR MODE.  FOR EXAMPLE,
001056:
001057:                                                                                                 #         FCADRMM1        FCADR   P79             # START OF P 79
001058:                                                                                                 #                         FCADR   PROG18          # START OF P 18
001059:                                                                                                 #                         FCADR   P01             # START OF P 01
001060:
001061:                                                                                                 #  NOTE:          THE FIRST ENTRY MUST BE LABELED FCADRMM1.
001062:                                                                                                 #  -----
001063:
001064: 04,2406           26207        FCADRMM1          FCADR    P76
001065: 04,2407           72641                          FCADR    P75
001066: 04,2410           72457                          FCADR    P74
001067: 04,2411           72225                          FCADR    P73
001068: 04,2412           72036                          FCADR    P72
001069: 04,2413           71271                          FCADR    LANDJUNK
001070: 04,2414           65000                          FCADR    P63LM
001071: 04,2415           33277                          FCADR    P57
001072: 04,2416           32050                          FCADR    PROG52
001073: 04,2417           31421                          FCADR    P51
001074: 04,2420           75442                          FCADR    P47LM
001075:                                                                                                 #  Page 241
001076: 04,2421           75414                          FCADR    P42LM
001077: 04,2422           75276                          FCADR    P41LM
001078: 04,2423           75153                          FCADR    P40LM
001079: 04,2424           72635                          FCADR    P35
001080: 04,2425           72455                          FCADR    P34
001081: 04,2426           72223                          FCADR    P33
001082: 04,2427           72034                          FCADR    P32
001083: 04,2430           72000                          FCADR    P30
001084: 04,2431           50400                          FCADR    PROG25
001085: 04,2432           50000                          FCADR    PROG22
001086: 04,2433           51506                          FCADR    PROG21
001087: 04,2434           50000                          FCADR    PROG20
001088: 04,2435           60061                          FCADR    P12LM
001089: 04,2436           77652                          FCADR    P06
001090:
001091:                                                                                                 #  THE PREMM TABLE CONTAINS THE E-BANK, MAJOR MODE, AND PRIORITY
001092:                                                                                                 #  INFORMATION, IT IS IN THE FOLLOWING FORM,
001093:
001094:                                                                                                 #         PPP PPE EEM MMM MMM
001095:
001096:                                                                                                 #         WHERE THE       7 M BITS CONTAIN THE MAJOR MODE NUMBER
001097:                                                                                                 #                         3 E BITS CONTAIN THE E-BANK NUMBER
001098:                                                                                                 #                         5 P BITS CONTAIN THE PRIORITY AT WHICH THE JOB IS
001099:                                                                                                 #                             TO BE STARTED
001100:
001101:                                                                                                 #         FOR EXAMPLE,
001102:
001103:                                                                                                 #                 PREMM1          OCT     67213           # PRIORITY      33
001104:                                                                                                 #                                                         # E-BANK        5
001105:                                                                                                 #                                                         # MAJOR MODE    11
001106:                                                                                                 #                                 OCT     25437           # PRIORITY      12
001107:                                                                                                 #                                                         # E-BANK        6
001108:                                                                                                 #                                                         # MAJOR MODE    31
001109:
001110:                                                                                                 #  NOTE:          THE FIRST ENTRY MUST BE LABELED PREMM1
001111:
001112: 04,2437           27714        PREMM1            OCT      27714                                 #  MM 76          EBANK 7         PRIO 13
001113: 04,2440           27713                          OCT      27713                                 #  MM 75          EBANK 7         PRIO 13
001114: 04,2441           27712                          OCT      27712                                 #  MM 74          EBANK 7         PRIO 13
001115: 04,2442           27711                          OCT      27711                                 #  MM 73          EBANK 7         PRIO 13
001116: 04,2443           27710                          OCT      27710                                 #  MM 72          EBANK 7         PRIO 13
001117: 04,2444           27704                          OCT      27704                                 #  MM 68          EBANK 7         PRIO 13
001118: 04,2445           27677                          OCT      27677                                 #  MM 63          EBANK 7         PRIO 13
001119: 04,2446           27271                          OCT      27271                                 #  MM 57          EBANK 5         PRIO 13
001120: 04,2447           27264                          OCT      27264                                 #  MM 52          EBANK 5         PRIO 13
001121: 04,2450           27263                          OCT      27263                                 #  MM 51          EBANK 5         PRIO 13
001122: 04,2451           27657                          OCT      27657                                 #  MM 47          EBANK 7         PRIO 13
001123: 04,2452           27652                          OCT      27652                                 #  MM 42          EBANK 7         PRIO 13
001124: 04,2453           27651                          OCT      27651                                 #  MM 41          EBANK 7         PRIO 13
001125: 04,2454           27650                          OCT      27650                                 #  MM 40          EBANK 7         PRIO 13
001126: 04,2455           27643                          OCT      27643                                 #  MM 35          EBANK 7         PRIO 13
001127: 04,2456           27642                          OCT      27642                                 #  MM 34          EBANK 7         PRIO 13
001128:                                                                                                 #  Page 242
001129: 04,2457           27641                          OCT      27641                                 #  MM 33          EBANK 7         PRIO 13
001130: 04,2460           27640                          OCT      27640                                 #  MM 32          EBANK 7         PRIO 13
001131: 04,2461           27636                          OCT      27636                                 #  MM 30          EBANK 7         PRIO 13
001132: 04,2462           27631                          OCT      27631                                 #  MM 25          EBANK 7         PRIO 13
001133: 04,2463           27626                          OCT      27626                                 #  MM 22          EBANK 7         PRIO 13
001134: 04,2464           27625                          OCT      27625                                 #  MM 21          EBANK 7         PRIO 13
001135: 04,2465           27624                          OCT      27624                                 #  MM 20          EBANK 7         PRIO 13
001136: 04,2466           27614                          OCT      27614                                 #  MM 12          EBANK 7         PRIO 13
001137: 04,2467           27006                          OCT      27006                                 #  MM 06          EBANK 4         PRIO 13
001138:
001139:                                                                                                 #  NOTE:          THE FOLLOWING CONSTANT IS THE NUMBER OF ENTRIES IN EACH OF
001140:                                                                                                 #  -----          THE ABOVE LISTS-1 (I.E., THE NUMBER OF MAJOR MODES (EXCEPT P00)
001141:                                                                                                 #                 THAT CAN BE CALLED FROM THE KEYBOARD MINUS ONE)
001142:
001143: 04,2470           00030        NOV37MM           DEC      24         B-14                       #  MM'S -1
001144:
001145: 04,2471           00002        DNLADMM1          ADRES    RENDEZVU                              #  P76
001146: 04,2472           00002                          ADRES    RENDEZVU                              #  P75
001147: 04,2473           00002                          ADRES    RENDEZVU                              #  P74
001148: 04,2474           00002                          ADRES    RENDEZVU                              #  P73
001149: 04,2475           00002                          ADRES    RENDEZVU                              #  P72
001150: 04,2476           00004                          ADRES    DESASCNT                              #  P68
001151: 04,2477           00004                          ADRES    DESASCNT                              #  P63
001152: 04,2500           00005                          ADRES    LUNRSALN                              #  P57
001153: 04,2501           00000                          ADRES    COSTALIN                              #  P52
001154: 04,2502           00000                          ADRES    COSTALIN                              #  P51
001155: 04,2503           00003                          ADRES    ORBMANUV                              #  P47
001156: 04,2504           00003                          ADRES    ORBMANUV                              #  P42
001157: 04,2505           00003                          ADRES    ORBMANUV                              #  P41
001158: 04,2506           00003                          ADRES    ORBMANUV                              #  P40
001159: 04,2507           00002                          ADRES    RENDEZVU                              #  P35
001160: 04,2510           00002                          ADRES    RENDEZVU                              #  P34
001161: 04,2511           00002                          ADRES    RENDEZVU                              #  P33
001162: 04,2512           00002                          ADRES    RENDEZVU                              #  P32
001163: 04,2513           00002                          ADRES    RENDEZVU                              #  P30
001164: 04,2514           00002                          ADRES    RENDEZVU                              #  P25
001165: 04,2515           00005                          ADRES    LUNRSALN                              #  P22
001166: 04,2516           00002                          ADRES    RENDEZVU                              #  P21
001167: 04,2517           00002                          ADRES    RENDEZVU                              #  P20
001168: 04,2520           00004                          ADRES    DESASCNT                              #  P12
001169: 04,2521           00000                          ADRES    COSTALIN                              #  P06
001170:
001171: 04,2522     4755               DNLADP00          =        ZERO
001172: 04,2522                        COSTALIN          =        0
001173: 04,2522                        AGSUPDAT          =        1
001174: 04,2522                        RENDEZVU          =        2
001175: 04,2522                        ORBMANUV          =        3
001176: 04,2522                        DESASCNT          =        4
001177: 04,2522                        LUNRSALN          =        5
001178:
001179: 13,2026                                          BANK     13
001180: 13,2000                                          SETLOC   INTINIT
001181: 13,2000                                          BANK
001182:
001183:                                                                                                 #  Page 243
001184: 13,2026                                          COUNT*   $$/INTIN
001185:
001186: 13,2026  E3,1554                                 EBANK=   RRECTCSM
001187:
001188:                                                                                                 #  THIS ROUTINE DOES THE P00 INTEGRATION
001189:
001190: 13,2026           43014        STATEUP           SET      BOF                                   #  EXTRAPOLATE CM STATE VECTOR
001191: 13,2027           01474                                   VINTFLAG
001192: 13,2030           04347                                   SURFFLAG                              #  ALSO 6X6 W-MATRIX IF LM ON LUNAR
001193: 13,2031           26036                                   DOINT                                 #         SURFACE AND W-MATRIX VALID
001194: 13,2032           43014                          BOF      SET                                   #         FOR RENDEZVOUS NAVIGATION.
001195: 13,2033           02756                                   RENDWFLG
001196: 13,2034           26036                                   DOINT
001197: 13,2035           01476                                   DIM0FLAG
001198: 13,2036           45014        DOINT             CLEAR    CALL
001199: 13,2037           01667                                   PRECIFLG                              #  ENGAGES 4-TIME STEP LOGIC IN INTEGRATION
001200: 13,2040           27133                                   INTEGRV                               #  WHEN MODREG = 0
001201:
001202: 13,2041           71214                          BON      DLOAD
001203: 13,2042           04307                                   SURFFLAG
001204: 13,2043           26063                                   NO-INT
001205: 13,2044           01571                                   TETCSM
001206: 13,2045           34041                          STCALL   TDEC1
001207: 13,2046           27410                                   INTSTALL
001208: 13,2047           45014                          CLEAR    CALL                                  #  EXTRAPOLATE LM STATE VECTOR
001209: 13,2050           01674                                   VINTFLAG
001210: 13,2051           26643                                   SETIFLGS
001211: 13,2052           77614                          BOF                                            #  ALSO 9X9 W-MATRIX IF W IS VALID
001212: 13,2053           02756                                   RENDWFLG
001213: 13,2054           26060                                   DOINT2
001214: 13,2055           43014                          SET      SET
001215: 13,2056           01476                                   DIM0FLAG
001216: 13,2057           01475                                   D6OR9FLG
001217: 13,2060           45014        DOINT2            SET      CALL
001218: 13,2061           01467                                   PRECIFLG                              #  DISENGAGE 4 TIME STEP LOGIC IN INTEG.
001219: 13,2062           27133                                   INTEGRV
001220: 13,2063           77614        NO-INT            CLRGO
001221: 13,2064           01236                                   NODOFLAG
001222: 13,2065           26631                                   ENDINT
001223:
001224:                                                                                                 #  THISVINT IS CALLED BY MIDTOAV1 AND 2
001225:
001226: 13,2066           43414        THISVINT          CLEAR    RVQ
001227: 13,2067           01674                                   VINTFLAG
001228:
001229:

End of include-file FRESH_START_AND_RESTART.agc.  Parent file is MAIN.agc


