
Source Code


000002:                                                                                                  ## Copyright:   Public domain.
000003:                                                                                                  ## Filename:    FRESH_START_AND_RESTART.agc
000004:                                                                                                  ## Purpose:     A section of Luminary 1C, revision 131.
000005:                                                                                                  ##              It is part of the source code for the Lunar Module's (LM)
000006:                                                                                                  ##              Apollo Guidance Computer (AGC) for Apollo 13.
000007:                                                                                                  ##              This file is intended to be a faithful transcription, except
000008:                                                                                                  ##              that the code format has been changed to conform to the
000009:                                                                                                  ##              requirements of the yaYUL assembler rather than the
000010:                                                                                                  ##              original YUL assembler.
000011:                                                                                                  ## Reference:   pp. 213-238
000012:                                                                                                  ## Contact:     Ron Burkey <info@sandroid.org>.
000013:                                                                                                  ## Website:     www.ibiblio.org/apollo/index.html
000014:                                                                                                  ## Mod history: 05/06/03 RSB.   Began transcribing.
000015:                                                                                                  ##              05/14/05 RSB    Corrected website reference above.
000016:                                                                                                  ##              2010-10-25 JL   Added missing # to comment. Indentation fixes.
000017:                                                                                                  ##              2017-01-06 RSB  Page numbers now agree with those on the
000018:                                                                                                  ##                              original harcopy, as opposed to the PDF page
000019:                                                                                                  ##                              numbers in 1701.pdf.
000020:                                                                                                  ##              2017-02-22 RSB  Proofed comment text using octopus/ProoferComments.
000021:                                                                                                  ##                              Changed P00H to POOH.
000022:                                                                                                  ##              2017-02-28 RSB  Fixed lingering typos.
000023:                                                                                                  ##              2017-03-02 RSB  P00HFLAG --> POOHFLAG.
000024:                                                                                                  ##              2017-03-13 RSB  Comment-text fixes noted in proofing Luminary 116.
000025:                                                                                                  ##                              GOP00FIX -> GOPOOFIX.
000026:                                                                                                  ##              2017-08-15 RSB  Comment-text fixes identified in proofing vs AP11ROPE.
000027:                                                                                                  ##              2017-08-19 MAS  Fixed label errors found transcribing Zerlina 56.
000028:                                                                                                  ##              2021-05-30 ABS  00 -> OO in various symbol names.
000029:                                                                                                  ##                              CANTROD -> CANTROO
000030:


000032: 10,2000                                           BANK     10
000033: 05,2000                                           SETLOC   FRANDRES
000034: 05,2000                                           BANK
000035:
000036: 05,2447  E3,1400                                  EBANK=   LST1
000037:
000038: 05,2447                                           COUNT*   $$/START                              #  FRESH AND RESTART
000039: 05,2447           00004        SLAP1              INHINT                                         #  FRESH START.  COMES HERE FROM PINBALL.
000040: 05,2450           03105                           TC       STARTSUB                              #  SUBROUTINE DOES MOST OF THE WORK.
000041:
000042: 05,2451           12456        STARTSW            TCF      SKIPSIM                               #  PATCH....TCF STARTSIM...FOR SIMULATION
000043: 05,2452           34736        STARTSIM           CAF      BIT14
000044: 05,2453           05105                           TC       FINDVAC
000045: 05,2454           77777        SIM2CADR           OCT      77777                                 #  PATCH 2CADR (AND EBANK DESIGNATION) OF
000046: 05,2455           77777                           OCT      77777                                 #  SIMULATION START ADDRESS.
000047:
000048: 05,2456           31035        SKIPSIM            CA       DSPTAB     +11D                       #  TURN OFF ALL DSPTAB +11D LAMPS
000049: 05,2457           74771                           MASK     BITS4&6                               #  EXCEPT THE GIMBAL LOCK & NO ATT ONLY ON
000050: 05,2460           64735                           AD       BIT15                                 #  REQUESTED FRESH START.
000051: 05,2461           55035                           TS       DSPTAB     +11D
000052:
000053: 05,2462           34755                           CA       ZERO
000054: 05,2463           55365                           TS       ERCOUNT
000055: 05,2464           54375                           TS       FAILREG
000056: 05,2465           54376                           TS       FAILREG    +1
000057: 05,2466           54377                           TS       FAILREG    +2
000058: 05,2467           54320                           TS       REDOCTR
000059:
000060: 05,2470           44644                           CS       PRIO12
000061: 05,2471           55310                           TS       DSRUPTSW
000062:
000063: 05,2472           34736        DOFSTART           CAF      BIT14                                 #  INSURE ENGINE IS OFF.
000064: 05,2473           00006                           EXTEND
000065: 05,2474           01011                           WRITE    DSALMOUT
000066: 05,2475           44755                           CS       ZERO
000067: 05,2476           54055                           TS       THRUST
000068:
000069: 05,2477           34751        DOFSTRT1           CAF      FOUR
000070: 05,2500           55262                           TS       RCSFLAGS                              #  INITIALIZE ATTITUDE ERROR DISPLAYS.
000071: 05,2501           34355                           CA       PRIO30
000072: 05,2502           54366                           TS       RESTREG                               #  SUPER BANK PRIORITY FOR DISPLAYS.
000073:
000074: 05,2503           34755                           CA       ZERO
000075: 05,2504           55245                           TS       ABDELV                                #  DAP INITIALIZATION
000076: 05,2505           54371                           TS       NVSAVE
000077: 05,2506           55071                           TS       EBANKTEM
000078: 05,2507           55257                           TS       CH5MASK
000079: 05,2510           55260                           TS       CH6MASK
000080: 05,2511           55273                           TS       PVALVEST                              #  FOR RCS FAILURE MONITOR


000082: 05,2512           55360                           TS       ERESTORE                              #  ***** MUST NOT BE REMOVED FROM DOFSTART
000083: 05,2513           55362                           TS       SMODE                                 #  ***** MUST NOT BE REMOVED FROM DOFSTART
000084: 05,2514           54333                           TS       DNLSTCOD                              #  SELECT POO DOWNLIST
000085: 05,2515           55321                           TS       AGSWORD                               #  ALLOW AGS INITIALIZATION
000086: 05,2516           55501                           TS       UPSVFLAG                              #  ZERO UPDATE STATE VECTOR REQUEST FLAGWRD
000087: 05,2517           00006                           EXTEND
000088: 05,2520           01005                           WRITE    CHAN5                                 #  TURN OFF RCS JETS.
000089: 05,2521           00006                           EXTEND
000090: 05,2522           01006                           WRITE    CHAN6                                 #  TURN OFF RCS JETS.
000091: 05,2523           00006                           EXTEND
000092: 05,2524           01012                           WRITE    CHAN12
000093: 05,2525           00006                           EXTEND
000094: 05,2526           01013                           WRITE    CHAN13
000095: 05,2527           00006                           EXTEND
000096: 05,2530           01014                           WRITE    CHAN14
000097: 05,2531           41035                           CS       DSPTAB     +11D
000098: 05,2532           74771                           MASK     BITS4&6
000099: 05,2533           10000                           CCS      A
000100: 05,2534           02540                           TC       +4
000101: 05,2535           34771                           CA       BITS4&6
000102: 05,2536           00006                           EXTEND                                         #  THE IMU WAS IN COARSE ALIGN IN GIMBAL
000103: 05,2537           05012                           WOR      CHAN12                                #  LOCK, SO PUT IT BACK INTO COARSE ALIGN.
000104: 05,2540           02641                 +4        TC       MR.KLEAN
000105:
000106: 05,2541           44755                           CS       ZERO
000107: 05,2542           55010                           TS       MODREG
000108:
000109: 05,2543           33373                           CAF      IM30INIF                              #  FRESH START IMU INITIALIZATION.
000110: 05,2544           55277                           TS       IMODES30
000111:
000112: 05,2545           33065                           CAF      MAXDB
000113: 05,2546           55343                           TS       DB
000114: 05,2547           34751                           CAF      FOUR
000115: 05,2550           55322                           TS       RATEINDX                              #  INITIALIZE KALCMANU RATE
000116: 05,2551           33061                           CA       BOOLSTRT
000117: 05,2552           54111                           TS       DAPBOOLS
000118: 05,2553           35015                           CAF      EBANK6
000119: 05,2554           54003                           TS       EBANK
000120: 05,2555  E6,1400                                  EBANK=   HIASCENT
000121:
000122: 05,2555           33056                           CA       STIKSTRT
000123: 05,2556           55444                           TS       STIKSENS
000124: 05,2557           33057                           CA       RATESTRT
000125: 05,2560           55476                           TS       -RATEDB
000126: 05,2561           32000                           CAF      FULLAPS                               #  INITIALIZE MAXIMUM ASCENT MASS FOR USE
000127: 05,2562           55400                           TS       HIASCENT                              #    BY 1/ACCS UNTIL THE PAD LOAD IS DONE.
000128: 05,2563           33062                           CA       77001OCT                              #      LOAD DAP FILTER GAINS PAD LOAD
000129: 05,2564           55403                           TS       DKTRAP                                #        TO BEST PRESENT ESTIMATE OF GOODIES
000130: 05,2565           55406                           TS       LMTRAP                                #  .14 DEG
000131: 05,2566           33063                           CA       60DEC


000133: 05,2567           55405                           TS       DKKAOSN
000134: 05,2570           55410                           TS       LMKAOSN                               #  6 SEC GAIN FOR ALPHA
000135: 05,2571           34755                           CA       ZERO
000136: 05,2572           55407                           TS       LMOMEGAN                              #  UNITY GAIN
000137: 05,2573           34363                           CA       TEN
000138: 05,2574           55404                           TS       DKOMEGAN                              #  1 SEC GAIN FOR OMEGA
000139: 05,2575           34744                           CAF      BIT8                                  #  SET DOCKED DB TO 1.4 DEG.  MAY OVERWRITE
000140: 05,2576           55411                           TS       DKDB                                  #        WITH PAD LOAD.
000141: 05,2577           35026                           CAF      IM33INIT
000142: 05,2600           64746                           AD       BIT6                                  #  KEEP BOTH DAP AND ERROR-NEEDLES DISPLAY
000143: 05,2601           55300                           TS       IMODES33                              #        OFF UNTIL ICDU ZERO IS FINISHED.
000144:
000145: 05,2602           00006                           EXTEND                                         #  INITIALIZE SWITCHES ONLY ON FRESH START.
000146: 05,2603           33400                           DCA      SWINIT
000147: 05,2604           52075                           DXCH     STATE
000148: 05,2605           33401                           CA       SWINIT     +2
000149: 05,2606           54076                           TS       STATE      +2
000150: 05,2607           34737                           CA       REFSMBIT                              #  DO NOT ALTER REFSMFLG ON FRESH START.
000151: 05,2610           70077                           MASK     STATE      +3
000152: 05,2611           63402                           AD       SWINIT     +3
000153: 05,2612           54077                           TS       STATE      +3
000154: 05,2613           00006                           EXTEND
000155: 05,2614           33404                           DCA      SWINIT     +4
000156: 05,2615           52101                           DXCH     STATE      +4
000157: 05,2616           00006                           EXTEND
000158: 05,2617           33406                           DCA      SWINIT     +6
000159: 05,2620           52103                           DXCH     STATE      +6
000160: 05,2621           34744                           CA       SURFFBIT                              #  DO NOT ALTER  SURFFLAG ON FRESH START.
000161: 05,2622           64740                           AD       CMOONBIT                              #                CMOONFLG
000162: 05,2623           64741                           AD       LMOONBIT                              #                LMOONFLG
000163: 05,2624           70104                           MASK     STATE      +8D
000164: 05,2625           63407                           AD       SWINIT     +8D
000165: 05,2626           54104                           TS       STATE      +8D
000166: 05,2627           33410                           CA       SWINIT     +9D
000167: 05,2630           54105                           TS       STATE      +9D
000168: 05,2631           34737                           CA       APSFLBIT                              #  DO NOT ALTER APSFLAG ON FRESH START.
000169: 05,2632           70106                           MASK     STATE      +10D
000170: 05,2633           63411                           AD       SWINIT     +10D
000171: 05,2634           54106                           TS       STATE      +10D
000172: 05,2635           33412                           CAF      SWINIT     +11D
000173: 05,2636           54107                           TS       STATE      +11D
000174:
000175: 05,2637           04635        ENDRSTRT           TC       POSTJUMP                              #  NOW IN ANOTHER BANK.
000176: 05,2640           03211                           CADR     DUMMYJOB   +2                         #  PICKS UP AT RELINT.   (DONT ZERO NEWJOB)
000177:
000178: 05,2641           00004        MR.KLEAN           INHINT
000179: 05,2642           00006                           EXTEND
000180: 05,2643           34755                           DCA      NEG0
000181: 05,2644           52754                           DXCH     -PHASE2
000182:


000184: 05,2645           00006        POOKLEAN           EXTEND
000185: 05,2646           34755                           DCA      NEG0
000186: 05,2647           52760                           DXCH     -PHASE4
000187: 05,2650           00006        V37KLEAN           EXTEND
000188: 05,2651           34755                           DCA      NEG0
000189: 05,2652           52762                           DXCH     -PHASE5
000190: 05,2653           00006        ABTKLEAN           EXTEND
000191: 05,2654           34755                           DCA      NEG0
000192: 05,2655           52756                           DXCH     -PHASE3
000193: 05,2656           00006                           EXTEND
000194: 05,2657           34755                           DCA      NEG0
000195: 05,2660           52752                           DXCH     -PHASE1
000196: 05,2661           00006                           EXTEND
000197: 05,2662           34755                           DCA      NEG0
000198: 05,2663           52764                           DXCH     -PHASE6
000199: 05,2664           00002                           TC       Q
000200:


000202:                                                                                                  #  COMES HERE FROM LOCATION 4000, GOJAM. RESTART ANY PROGRAMS WHICH MAY HAVE BEEN RUNNING AT THE TIME
000203:
000204: 05,2665  E3,1400                                  EBANK=   LST1
000205: 05,2665           24320        GOPROG             INCR     REDOCTR                               #  ADVANCE RESTART COUNTER.
000206:
000207: 05,2666           22002                           LXCH     Q
000208: 05,2667           00006                           EXTEND
000209: 05,2670           04007                           ROR      SUPERBNK
000210: 05,2671           53433                           DXCH     RSBBQ
000211: 05,2672           31035                           CA       DSPTAB     +11D
000212: 05,2673           74750                           MASK     BIT4
000213: 05,2674           00006                           EXTEND
000214: 05,2675           12701                           BZF      +4
000215: 05,2676           64746                           AD       BIT6                                  #  SET ERROR COUNTER ENABLE
000216: 05,2677           00006                           EXTEND


000218: 05,2700           05012                           WOR      CHAN12                                #  ISS WAS IN COARS ALIGN SO GO BACK TO
000219: 05,2701           03066        BUTTONS            TC       LIGHTSET
000220:
000221:                                                                                                  #  ERASCHK TEMPORARILY STORES THE CONTENTS OF TWO ERASABLE LOCATIONS, X
000222:                                                                                                  #  AND X+1 INTO SKEEP5 AND SKEEP6.  IT ALSO STORES X INTO SKEEP7 AND
000223:                                                                                                  #  ERESTORE.  IF ERASCHK IS INTERRUPTED BY A RESTART, C(ERESTORE) SHOULD
000224:                                                                                                  #  EQUAL C(SKEEP7), AND BE A + NUMBER LESS THAN 2000 OCT.  OTHERWISE
000225:                                                                                                  #  C(ERESTORE) SHOULD EQUAL +0.
000226:
000227: 05,2702           34350                           CAF      HI5
000228: 05,2703           71360                           MASK     ERESTORE
000229: 05,2704           00006                           EXTEND
000230: 05,2705           12707                           BZF      +2                                    #  IF ERESTORE NOT = +0 OR +N LESS THAN 2K,
000231: 05,2706           13103                           TCF      NONAVKEY   +3                         #  DO FRESH START - E MEMORY MIGHT BE BAD
000232: 05,2707           41360                           CS       ERESTORE
000233: 05,2710           00006                           EXTEND
000234: 05,2711           12726                           BZF      DORSTART                              #  = +0 CONTINUE WITH RESTART.
000235: 05,2712           61377                           AD       SKEEP7
000236: 05,2713           00006                           EXTEND
000237: 05,2714           12716                           BZF      +2                                    #  = SKEEP7, RESTORE E MEMORY.
000238: 05,2715           13103                           TCF      NONAVKEY   +3                         #  DO FRESH START - E MEMORY MIGHT BE BAD
000239: 05,2716           31374                           CA       SKEEP4
000240: 05,2717           54003                           TS       EBANK                                 #  EBANK OF E MEMORY THAT WAS UNDER TEST.
000241: 05,2720           00006                           EXTEND                                         #  (NOT DXCH SINCE THIS MIGHT HAPPEN AGAIN)
000242: 05,2721           31376                           DCA      SKEEP5
000243: 05,2722           51377                           INDEX    SKEEP7
000244: 05,2723           52001                           DXCH     0000                                  #  E MEMORY RESTORED.
000245: 05,2724           34755                           CA       ZERO
000246: 05,2725           55360                           TS       ERESTORE
000247: 05,2726           03105        DORSTART           TC       STARTSUB                              #  DO INITIALIZATION AFTER ERASE RESTORE.
000248:
000249: 05,2727           44736        SETINFL            CS       INTFLBIT
000250: 05,2730           70106                           MASK     FLGWRD10
000251: 05,2731           54106                           TS       FLGWRD10


000253: 05,2732           33375                           CA       9,6,4                                 #  LEAVE PROG ALARM, GIMBAL LOCK, NO ATT
000254: 05,2733           71035                           MASK     DSPTAB     +11D                       #  LAMPS INTACT ON HARDWARE RESTART
000255: 05,2734           64735                           AD       BIT15
000256: 05,2735           57035                           XCH      DSPTAB     +11D
000257: 05,2736           33361                           CAF      IFAILINH                              #  LEAVE IMU FAILURE INHIBITS INTACT ON
000258: 05,2737           71277                           MASK     IMODES30                              #  HARDWARE RESTART. RESET ALL FAILURE
000259: 05,2740           63374                           AD       IM30INIR                              #  CODES.
000260: 05,2741           55277                           TS       IMODES30
000261:
000262: 05,2742           31321                           CA       AGSWORD                               #  BE SURE OF CORRECT DOWNLIST
000263: 05,2743           54333                           TS       DNLSTCOD
000264:
000265: 05,2744           34750                           CA       BIT4                                  #  TURN ON THROTTLE COUNTER
000266: 05,2745           00006                           EXTEND
000267: 05,2746           05014                           WOR      CHAN14                                #  TURN ON THRUST DRIVE
000268: 05,2747           40101                           CS       FLAGWRD5
000269: 05,2750           74745                           MASK     ENGONBIT
000270: 05,2751           10000                           CCS      A
000271: 05,2752           12757                           TCF      +5
000272: 05,2753           34737                           CAF      BIT13
000273: 05,2754           00006                           EXTEND
000274: 05,2755           05011                           WOR      DSALMOUT                              #  TURN ENGINE ON
000275: 05,2756           12773                           TCF      GOPROG3
000276: 05,2757           34736                 +5        CAF      BIT14
000277: 05,2760           00006                           EXTEND
000278: 05,2761           05011                           WOR      DSALMOUT                              #  TURN ENGINE OFF.
000279: 05,2762           12773                           TCF      GOPROG3
000280:
000281: 05,2763           00004        ENEMA              INHINT
000282: 05,2764           03114                           TC       STARTSB1
000283: 05,2765           12767                           TCF      GOPROG2A
000284: 05,2766           03157        GOPROG2            TC       STARTSB2
000285: 05,2767           03066        GOPROG2A           TC       LIGHTSET
000286: 05,2770           43064                           CS       RSFLGBTS                              #  CLEAR BITS 7 AND 14.
000287: 05,2771           70106                           MASK     FLGWRD10
000288: 05,2772           54106                           TS       FLGWRD10
000289:
000290: 05,2773           34756        GOPROG3            CAF      NUMGRPS                               #  VERIFY PHASE TABLE AGREEMENTS
000291: 05,2774           54161        PCLOOP             TS       MPAC       +5
000292: 05,2775           60000                           DOUBLE
000293: 05,2776           00006                           EXTEND
000294: 05,2777           50000                           INDEX    A
000295: 05,3000           30752                           DCA      -PHASE1                               #  COMPLEMENT INTO A, DIRECT INTO L.
000296: 05,3001           00006                           EXTEND
000297: 05,3002           06001                           RXOR     LCHAN                                 #  RESULT MUST BE -0 FOR AGREEMENT.
000298: 05,3003           10000                           CCS      A
000299: 05,3004           13052                           TCF      PTBAD                                 #  RESTART FAILURE.
000300: 05,3005           13052                           TCF      PTBAD
000301: 05,3006           13052                           TCF      PTBAD


000303: 05,3007           10161                           CCS      MPAC       +5                         #  PROCESS ALL RESTART GROUPS.
000304: 05,3010           12774                           TCF      PCLOOP
000305:
000306: 05,3011           54162                           TS       MPAC       +6                         #  SET TO +0.
000307: 05,3012           05315                           TC       MMDSPLAY                              #  DISPLAY MAJOR MODE
000308:
000309: 05,3013           00004                           INHINT                                         #  RELINT DONE IN MMDSPLAY
000310:
000311: 05,3014           44736                           CS       DIDFLBIT                              #  CLEAR DIDFLAG IN ORDER TO FORCE R10 TO
000312: 05,3015           70075                           MASK     FLAGWRD1                              #  RE-INITIALIZE ITSELF IF IT HAD BEEN
000313: 05,3016           54075                           TS       FLAGWRD1                              #  OPERATING AT THE TIME OF THE RESTART.
000314:
000315: 05,3017           44740                           CS       RODFLBIT                              #  CLEAR RODFLAG.  IF P66 IS IN OPERATION
000316: 05,3020           70075                           MASK     FLAGWRD1                              #        IT WILL RE-INITIALIZE ITSELF AND
000317: 05,3021           54075                           TS       FLAGWRD1                              #        CONTINUE.
000318:
000319: 05,3022           44741                           CS       P21FLBIT                              #  CLEAR P21 FLAG SO THAT P21 WILL COMPUTE
000320: 05,3023           70074                           MASK     FLAGWRD0                              #  NEW BASE STATE VECTORS.
000321: 05,3024           54074                           TS       FLAGWRD0
000322:
000323: 05,3025           34756                           CAF      NUMGRPS                               #  SEE IF ANY GROUPS RUNNING.
000324: 05,3026           54161        NXTRST             TS       MPAC       +5
000325: 05,3027           60000                           DOUBLE
000326: 05,3030           50000                           INDEX    A
000327: 05,3031           10752                           CCS      PHASE1
000328: 05,3032           13034                           TCF      PACTIVE                               #  PNZ - GROUP ACTIVE.
000329: 05,3033           13041                           TCF      PINACT                                #  +0 - GROUP NOT RUNNING.
000330:
000331: 05,3034           54154        PACTIVE            TS       MPAC
000332: 05,3035           24154                           INCR     MPAC                                  #  ABS OF PHASE.
000333: 05,3036           24162                           INCR     MPAC       +6                         #  INDICATE GROUP DEMANDS PRESENT.
000334: 05,3037           33060                           CA       RACTCADR
000335: 05,3040           04622                           TC       SWCALL                                #  MUST RETURN TO SWRETURN.
000336:
000337: 05,3041           10161        PINACT             CCS      MPAC       +5                         #  PROCESS ALL RESTART GROUPS.
000338: 05,3042           13026                           TCF      NXTRST
000339:
000340: 05,3043           10162                           CCS      MPAC       +6                         #  NO, CHECK PHASE ACTIVITY FLAG
000341: 05,3044           12637                           TCF      ENDRSTRT                              #  PHASE ACTIVE
000342: 05,3045           34735                           CAF      BIT15                                 #  IS MODE -0
000343: 05,3046           71010                           MASK     MODREG
000344: 05,3047           00006                           EXTEND
000345: 05,3050           16001                           BZF      GOTOPOOH                              #  NO
000346: 05,3051           12637                           TCF      ENDRSTRT                              #  YES
000347: 05,3052           05567        PTBAD              TC       ALARM                                 #  SET ALARM TO SHOW PHASE TABLE FAILURE.
000348: 05,3053           01107                           OCT      1107
000349:
000350: 05,3054           12477                           TCF      DOFSTRT1
000351:
000352:                                                                                                  #  ******** ****** ******


000354:                                                                                                  #  DO NOT USE GOPROG2 OR ENEMA WITHOUT CONSULTING POOH PEOPLE
000355:
000356: 05,3055     4737               OCT10000           =        BIT13
000357: 05,3055     4355               OCT30000           =        PRIO30
000358: 05,3055           07777        OCT7777            OCT      7777
000359: 05,3056           32321        STIKSTRT           DEC      0.825268                              #  20 D/S MAXIMUM COMMANDED RATE
000360: 05,3057           77445        RATESTRT           DEC      -218       B-14
000361: 05,3060           03527        RACTCADR           CADR     RESTARTS
000362: 05,3061           21322        BOOLSTRT           OCT      21322
000363: 05,3062           77001        77001OCT           OCT      77001                                 #  .14 DEG SCALED AT 4.5 DEG
000364: 05,3063           00074        60DEC              DEC      60         B-14
000365: 05,3064           20100        RSFLGBTS           OCT      20100
000366: 05,3065           03434        MAXDB              OCTAL    03434                                 #  5 DEG ATTITUDE DEADBAND, SCALED AT 45.
000367:
000368: 05,3066           34747        LIGHTSET           CAF      BIT5                                  #  CHECK FOR MARK REJECT AND ERROR RESET
000369: 05,3067           00006                           EXTEND
000370: 05,3070           02016                           RAND     NAVKEYIN
000371: 05,3071           00006                           EXTEND
000372: 05,3072           13100                           BZF      NONAVKEY                              #  NO MARK REJECT
000373: 05,3073           00006                           EXTEND
000374: 05,3074           00015                           READ     MNKEYIN                               #  CHECK IF KEYS 2M AND 5M ON
000375: 05,3075           63372                           AD       -ELR                                  #  MAIN DSKY KEYCODE (BITS 1-5)
000376: 05,3076           00006                           EXTEND
000377: 05,3077           13101                           BZF      +2
000378:
000379: 05,3100           00002        NONAVKEY           TC       Q
000380:
000381: 05,3101           03105                           TC       STARTSUB
000382: 05,3102           12472                           TCF      DOFSTART
000383: 05,3103           03105                 +3        TC       STARTSUB
000384: 05,3104           12477                           TCF      DOFSTRT1                              #  DO FRESH START BUT DON'T TOUCH ENGINE
000385:


000387:                                                                                                  #  INITIALIZATION COMMON TO BOTH FRESH START AND RESTART.
000388:
000389: 05,3105  E6,1536                                  EBANK=   AOSQ
000390: 05,3105           33362        STARTSUB           CAF      LDNPHAS1                              #  SET POINTER SO NEXT 20MS DOWNRUPT WILL
000391: 05,3106           54335                           TS       DNTMGOTO                              #  CAUSE THE CURRENT DOWNLIST TO BE
000392:                                                                                                  #  INTERRUPTED AND START SENDING FROM THE
000393:                                                                                                  #  BEGINNING OF THE CURRENT DOWNLIST.
000394: 05,3107           34746                           CAF      BIT6
000395: 05,3110           00006                           EXTEND
000396: 05,3111           02033                           RAND     CHAN33
000397: 05,3112           63376                           AD       RMODINIT
000398: 05,3113           54110                           TS       RADMODES
000399:
000400: 05,3114           34733        STARTSB1           CAF      POSMAX
000401: 05,3115           54026                           TS       TIME3
000402: 05,3116           67751                           AD       MINUS2
000403: 05,3117           54027                           TS       TIME4
000404: 05,3120           67752                           AD       NEGONE
000405: 05,3121           54030                           TS       TIME5
000406:
000407: 05,3122           35015                           CAF      EBANK6
000408: 05,3123           54003                           TS       EBANK
000409:
000410: 05,3124           44737                           CS       BIT13                                 #  CAUSE DAPIDLER TO CALL 1/ACCS
000411: 05,3125           71262                           MASK     RCSFLAGS
000412: 05,3126           55262                           TS       RCSFLAGS                              #  ZERO BIT 13
000413: 05,3127           34733                           CAF      POSMAX                                #  DISABLE TIME6 CLOCK.  JUST IN CASE A T6
000414: 05,3130           55466                           TS       T6NEXT                                #        RUPT IS ALREADY IN THE PRIORITY CHAIN,
000415: 05,3131           00006                           EXTEND                                         #        ENSURE THAT IT'S INPUTS WILL RENDER IT
000416: 05,3132           03013                           WAND     CHAN13                                #        INEFFECTUAL.
000417: 05,3133           34755                           CAF      ZERO
000418: 05,3134           55465                           TS       NXT6ADR
000419: 05,3135           55472                           TS       NEXTP
000420:
000421: 05,3136           44751                           CS       ACCSOKAY
000422: 05,3137           70111                           MASK     DAPBOOLS
000423: 05,3140           54111                           TS       DAPBOOLS
000424:
000425: 05,3141           00006                           EXTEND                                         #  SET T5RUPT FOR DAPIDLER PROGRAM.
000426: 05,3142           33360                           DCA      IDLEADR
000427: 05,3143           53264                           DXCH     T5ADR
000428:
000429: 05,3144           40107                           CS       FLGWRD11                              #  IF R12 IS PERMITTED, ENSURE THAT NEXT
000430: 05,3145           74735                           MASK     LRBYBIT                               #        RADAR READS ARE NOT USED
000431: 05,3146           00006                           EXTEND
000432: 05,3147           13157                           BZF      STARTSB2                              #  R12 OFF
000433:
000434: 05,3150           24006                           INCR     BBANK                                 #  SET EBANK TO 7
000435: 05,3151  E7,1674                                  EBANK=   STILBADH
000436: 05,3151           11674                           CCS      STILBADH                              #  IF STILBADH>0, NEXT READ WILL BE IGNORED


000438: 05,3152           13154                           TCF      +2
000439: 05,3153           25674                           INCR     STILBADH                              #  SET STILBADH TO IGNORE NEXT READ
000440:
000441: 05,3154           11675                 +2        CCS      STILBADV
000442: 05,3155           13157                           TCF      STARTSB2                              #  IF STILBADV>0, NEXT READ WILL BE IGNORED
000443: 05,3156           25675                           INCR     STILBADV                              #  SET STILBADV TO IGNORE NEXT READ
000444:
000445: 05,3157           33371        STARTSB2           CAF      OCT30001                              #  DURING SOFTWARE RESTART, DO NOT DISTURB
000446: 05,3160           00006                           EXTEND                                         #  ENGINE ON, OFF AND ISS WARNING.
000447: 05,3161           03011                           WAND     DSALMOUT
000448:
000449: 05,3162           44743                           CS       READRBIT                              #  CLEAR READRFLG FOR R29.
000450: 05,3163           70077                           MASK     FLAGWRD3
000451: 05,3164           54077                           TS       FLAGWRD3
000452:
000453: 05,3165           40077                           CS       FLAGWRD3                              #  DURING SOFTWARE RESTART, CLEAR TURNON,
000454: 05,3166           74741                           MASK     NR29FBIT                              #  REPOSITION, CDU ZERO AND REMODE BITS
000455: 05,3167           00006                           EXTEND                                         #  IN RADMODES, SINCE TASKS ASSOCIATED
000456: 05,3170           13172                           BZF      +2                                    #  WITH THESE BITS HAVE BEEN KILLED
000457: 05,3171           34742                           CAF      BIT10                                 #  ALSO IF R29 HAD BEEN REQUESTED,
000458: 05,3172           63365                           AD       OCT32001                              #  (NOR29FLG = 0) CLEAR BIT 10 RADMODES
000459: 05,3173           40000                           COM                                            #  TO MAKE R29 FORGET IT HAD STARTED
000460: 05,3174           70110                           MASK     RADMODES                              #  DESIGNATING
000461: 05,3175           54110                           TS       RADMODES
000462: 05,3176           33367                           CAF      OCT27470                              #  DURING SOFTWARE RESTART, DO NOT DISTURB
000463: 05,3177           00006                           EXTEND                                         #  IMU FLAGS.  (COURSE ALIGN ENABLE, ZERO
000464: 05,3200           03012                           WAND     CHAN12                                #  IMU CDUS, ENABLE IMU COUNTER) AND GIMBAL
000465:                                                                                                  #  TRIM DRIVES.  LEAVE RR LOCKON ENABLE
000466:                                                                                                  #  ALONE.
000467:
000468: 05,3201           44750                           CS       NORRMBIT                              #  ENABLE R25.
000469: 05,3202           70101                           MASK     FLAGWRD5
000470: 05,3203           54101                           TS       FLAGWRD5
000471:
000472: 05,3204           44741                           CS       R77FLBIT                              #  CLEAR R77FLAG
000473: 05,3205           70101                           MASK     FLAGWRD5
000474: 05,3206           54101                           TS       FLAGWRD5
000475: 05,3207           33370                           CAF      OCT74160                              #  DURING SOFTWARE RESTART, DO NOT DUSTURB
000476: 05,3210           00006                           EXTEND                                         #  TELEMETRY FLAGS, RESET TRAP FLAGS, AND
000477: 05,3211           03013                           WAND     CHAN13                                #  ENABLE T6RUPT FLAG.
000478:
000479: 05,3212           34740                           CAF      BIT12                                 #  REENABLE RUPT10 (RUPT QUICKLY
000480: 05,3213           00006                           EXTEND                                         #        RESUMES EXCEPT DURING P64)
000481: 05,3214           05013                           WOR      CHAN13
000482:
000483: 05,3215           34746                           CAF      BIT6                                  #  DURING SOFTWARE RESTART, DO NOT DISTURB
000484: 05,3216           00006                           EXTEND                                         #  GYRO ENABLE FLAG.
000485: 05,3217           03014                           WAND     CHAN14
000486:
000487: 05,3220  E3,1400                                  EBANK=   LST1


000489: 05,3220           35007                           CAF      STARTEB
000490: 05,3221           54003                           TS       EBANK                                 #  SET FOR E3
000491:
000492: 05,3222           34734                           CAF      NEG1/2                                #  INITIALIZE WAITLIST DELTA-TS.
000493: 05,3223           55407                           TS       LST1       +7
000494: 05,3224           55406                           TS       LST1       +6
000495: 05,3225           55405                           TS       LST1       +5
000496: 05,3226           55404                           TS       LST1       +4
000497: 05,3227           55403                           TS       LST1       +3
000498: 05,3230           55402                           TS       LST1       +2
000499: 05,3231           55401                           TS       LST1       +1
000500: 05,3232           55400                           TS       LST1
000501:
000502: 05,3233           45236                           CS       ENDTASK
000503: 05,3234           55410                           TS       LST2
000504: 05,3235           55412                           TS       LST2       +2
000505: 05,3236           55414                           TS       LST2       +4
000506: 05,3237           55416                           TS       LST2       +6
000507: 05,3240           55420                           TS       LST2       +8D
000508: 05,3241           55422                           TS       LST2       +10D
000509: 05,3242           55424                           TS       LST2       +12D
000510: 05,3243           55426                           TS       LST2       +14D
000511: 05,3244           55430                           TS       LST2       +16D
000512: 05,3245           45237                           CS       ENDTASK    +1
000513: 05,3246           55411                           TS       LST2       +1
000514: 05,3247           55413                           TS       LST2       +3
000515: 05,3250           55415                           TS       LST2       +5
000516: 05,3251           55417                           TS       LST2       +7
000517: 05,3252           55421                           TS       LST2       +9D
000518: 05,3253           55423                           TS       LST2       +11D
000519: 05,3254           55425                           TS       LST2       +13D
000520: 05,3255           55427                           TS       LST2       +15D
000521: 05,3256           55431                           TS       LST2       +17D
000522:
000523: 05,3257           44755                           CS       ZERO                                  #  MAKE ALL EXECUTIVE REGISTER SETS
000524: 05,3260           54167                           TS       PRIORITY                              #  AVAILABLE.
000525: 05,3261           54203                           TS       PRIORITY   +12D
000526: 05,3262           54217                           TS       PRIORITY   +24D
000527: 05,3263           54233                           TS       PRIORITY   +36D
000528: 05,3264           54247                           TS       PRIORITY   +48D
000529: 05,3265           54263                           TS       PRIORITY   +60D
000530: 05,3266           54277                           TS       PRIORITY   +72D
000531: 05,3267           54313                           TS       PRIORITY   +84D
000532:
000533: 05,3270           55310                           TS       DSRUPTSW
000534: 05,3271           54067                           TS       NEWJOB                                #  SHOWS NO ACTIVE JOBS.
000535:
000536: 05,3272           33364                           CAF      VAC1ADRC                              #  MAKE ALL VAC AREAS AVAILABLE.
000537: 05,3273           54400                           TS       VAC1USE
000538: 05,3274           63366                           AD       LTHVACA


000540: 05,3275           54454                           TS       VAC2USE
000541: 05,3276           63366                           AD       LTHVACA
000542: 05,3277           54530                           TS       VAC3USE
000543: 05,3300           63366                           AD       LTHVACA
000544: 05,3301           54604                           TS       VAC4USE
000545: 05,3302           63366                           AD       LTHVACA
000546: 05,3303           54660                           TS       VAC5USE
000547:
000548: 05,3304           34363                           CAF      TEN
000549: 05,3305           54154        DSPOFF             TS       MPAC                                  #  R1,R2,R3).
000550: 05,3306           44740                           CS       BIT12
000551: 05,3307           50154                           INDEX    MPAC
000552: 05,3310           55022                           TS       DSPTAB
000553: 05,3311           10154                           CCS      MPAC
000554: 05,3312           13305                           TCF      DSPOFF
000555:
000556: 05,3313           55323                           TS       DELAYLOC
000557: 05,3314           55324                           TS       DELAYLOC   +1
000558: 05,3315           55325                           TS       DELAYLOC   +2
000559: 05,3316           55073                           TS       R1SAVE
000560: 05,3317           54045                           TS       INLINK
000561: 05,3320           54775                           TS       DSPCNT
000562: 05,3321           55041                           TS       CADRSTOR
000563: 05,3322           55012                           TS       REQRET
000564: 05,3323           55014                           TS       CLPASS
000565: 05,3324           55011                           TS       DSPLOCK
000566: 05,3325           55017                           TS       MONSAVE                               #  KILL MONITOR
000567: 05,3326           55020                           TS       MONSAVE1
000568: 05,3327           55000                           TS       VERBREG
000569: 05,3330           55001                           TS       NOUNREG
000570: 05,3331           55042                           TS       DSPLIST
000571: 05,3332           55307                           TS       MARKSTAT
000572: 05,3333           55043                           TS       EXTVBACT                              #  MAKE EXTENDED VERBS AVAILABLE
000573: 05,3334           55301                           TS       IMUCADR
000574: 05,3335           55302                           TS       OPTCADR
000575: 05,3336           55303                           TS       RADCADR
000576: 05,3337           55304                           TS       ATTCADR
000577: 05,3340           55311                           TS       LGYRO
000578: 05,3341           54100                           TS       FLAGWRD4                              #  KILL INTERFACE DISPLAYS
000579: 05,3342           34760                           CAF      NOUTCON
000580: 05,3343           55015                           TS       NOUT
000581:
000582: 05,3344           44753                           CS       ONE
000583: 05,3345           55077                           TS       SAMPLIM
000584: 05,3346           34746                           CAF      BIT6
000585: 05,3347           71300                           MASK     IMODES33                              #  LEAVE BIT 6 UNCHANGED
000586: 05,3350           65026                           AD       IM33INIT                              #  NO PIP OR TM FAILS.BIT6=0 IN THIS WORD.
000587: 05,3351           55300                           TS       IMODES33
000588:
000589: 05,3352           33363                           CAF      LESCHK                                #  SELF CHECK GO-TO REGISTER.


000591: 05,3353           55361                           TS       SELFRET
000592:
000593: 05,3354           44360                           CS       VD1
000594: 05,3355           54776                           TS       DSPCOUNT
000595:
000596: 05,3356           00002                           TC       Q
000597: 05,3357  E6,1536                                  EBANK=   AOSQ
000598: 05,3357           02024 34066  IDLEADR            2CADR    DAPIDLER
000599:
000600: 05,3361           00435        IFAILINH           OCT      435
000601: 05,3362           03522        LDNPHAS1           GENADR   DNPHASE1
000602: 05,3363           03363        LESCHK             GENADR   SELFCHK
000603: 05,3364           00400        VAC1ADRC           ADRES    VAC1USE
000604: 05,3365           32001        OCT32001           OCT      32001
000605: 05,3366           00054        LTHVACA            DEC      44         B-14
000606:
000607: 05,3367           27470        OCT27470           OCT      27470
000608: 05,3370           74160        OCT74160           OCT      74160
000609: 05,3371           30001        OCT30001           OCT      30001
000610: 05,3372     5007               STARTEB            EQUALS   EBANK3
000611: 05,3372     4756               NUMGRPS            EQUALS   FIVE
000612: 05,3372           77755        -ELR               OCT      -22                                   #  -ERROR LIGHT RESET KEY CODE.
000613: 05,3373           37411        IM30INIF           OCT      37411                                 #  INHIBITS IMU FAIL FOR 5 SEC AND PIP ISSW
000614: 05,3374           37000        IM30INIR           OCT      37000
000615: 05,3375     5026               IM33INIT           =        PRIO16                                #  NO PIP OR TM FAIL SIGNALS.
000616: 05,3375           00450        9,6,4              OCT      450
000617: 05,3376           00102        RMODINIT           OCT      00102
000618: 05,3377           00000        SWINIT             OCT      0
000619: 05,3400           00000                           OCT      0
000620: 05,3401           00000                           OCT      0
000621: 05,3402           02000                           OCT      02000                                 #  BIT 11 = NOR29FLG
000622: 05,3403           00000                           OCT      0
000623: 05,3404           00000                           OCT      0
000624: 05,3405           00000                           OCT      0
000625: 05,3406           00100                           OCT      00100
000626:
000627: 05,3407           00000                           OCT      0
000628: 05,3410           00000                           OCT      0
000629: 05,3411           00000                           OCT      0
000630: 05,3412           40000                           OCT      40000                                 #  BIT 15 = LRBYPASS.
000631:


000633:                                                                                                  #  PROGRAM NAME          GOTOPOOH                ASSEMBLY SUNDANCE
000634:                                                                                                  #  LOG SECTION           FRESH START AND RESTART
000635:
000636:                                                                                                  #  FUNCTIONAL DESCRIPTION
000637:
000638:                                                                                                  #        FLASH V 37 ON DSKY %MM CHANGE REQUEST "
000639:
000640:                                                                                                  #  INPUT/OUTPUT INFORMATION
000641:
000642:                                                                                                  #        A. CALLING SEQUENCE                     TC GOTOPOOH
000643:                                                                                                  #        B. ERASABLE INITIALIZATION              NONE
000644:                                                                                                  #        C. OUTPUT FLASH V 37 ON DSKY
000645:                                                                                                  #        D. DEBRIS                               L
000646:
000647:                                                                                                  #  PROGRAM ANALYSIS
000648:
000649:                                                                                                  #        A. SUBROUTINES CALLED                   PRIODSPR, LINUS
000650:                                                                                                  #        B. NORMAL EXIT                          TCF ENDOFJOB
000651:                                                                                                  #        C. ALARM AND ABORT EXITS                NONE
000652:
000653:    6001                                           BLOCK    03
000654:    6000                                           SETLOC   FFTAG5
000655:    6000                                           BANK
000656:
000657:    6001                                           COUNT*   $$/P00
000658:    6001           34764        GOTOPOOH           CAF      OCT33                                 #  4.33 SPOT FOR GOPOOFIX
000659:    6002           54001                           TS       L
000660:    6003           40000                           COM
000661:    6004           52760                           DXCH     -PHASE4
000662:
000663:    6005           04635                           TC       POSTJUMP
000664:    6006           10024                           CADR     GOPOOFIX
000665:    6007           00024        OCT24              MM       20         B-14
000666:    6010           00031        OCT31              MM       25         B-14
000667:
000668: 20,2004                                           BANK     20
000669: 04,2000                                           SETLOC   VERB37
000670: 04,2000                                           BANK
000671:
000672: 04,2024                                           COUNT*   $$/P00                                #  VERB 37 AND P00 IN BANK 4.
000673: 04,2024           05516        GOPOOFIX           TC       DOWNFLAG                              #  ALLOW X-AXIS OVERRIDE
000674: 04,2025           00311                           ADRES    XOVINFLG
000675:
000676: 04,2026           05516                           TC       DOWNFLAG                              #  INSURE THAT ULLAGE IS OFF
000677: 04,2027           00314                           ADRES    ULLAGFLG


000679: 04,2030           05476                           TC       CLEARMRK   +2                         #  RELEASE MARK DISPLAY SYSTEM.
000680: 04,2031           32037                           CAF      V37N99
000681: 04,2032           04616                           TC       BANKCALL
000682: 04,2033           20477                           CADR     GOFLASH
000683: 04,2034           12031                           TCF      -3
000684: 04,2035           12031                           TCF      -4
000685: 04,2036           12031                           TCF      -5
000686:
000687: 04,2037           11343        V37N99             VN       3799
000688:


000690:                                                                                                  #  PROGRAM NAME          V37                     ASSEMBLY SUNDANCE
000691:
000692:                                                                                                  #  LOG SECTION           FRESH START AND RESTART
000693:
000694:                                                                                                  #  FUNCTIONAL DESCRIPTION
000695:
000696:                                                                                                  #        1. CHECK IF NEW PROGRAM ALLOWED.  IF BIT 1 OF FLAGWRD2 (NODOFLAG) IS SET, AN ALARM 1520 IS CALLED.
000697:                                                                                                  #        2. CHECK FOR VALIDITY OF PROGRAM SELECTED.  IF AN INVALID PROGRAM IS SELECTED, THE OPERATOR ERROR LIGHT IS
000698:                                                                                                  #           SET AND CURRENT ACTIVITY, IF ANY, CONTINUES.
000699:                                                                                                  #        3. SERVICER IS TERMINATED IF IT HAS BEEN RUNNING.
000700:                                                                                                  #        4. INSTALL IS EXECUTED TO AVOID INTERRUPTING INTEGRATION.
000701:                                                                                                  #        5. THE ENGINE IS TURNED OFF AND THE DAP IS INITIALIZED FOR COAST.
000702:                                                                                                  #        6. TRACK AND UPDATE FLAGS ARE SET TO ZERO.
000703:                                                                                                  #        7. DISPLAY SYSTEM IS RELEASED.
000704:                                                                                                  #        8. THE FOLLOWING ARE PERFORMED FOR EACH OF THE THREE CASES.
000705:                                                                                                  #                A. PROGRAM SELECTED IS P00.
000706:                                                                                                  #                        1. RENDEZVOUS AND P25 FLAGS ARE RESET.  (KILL P20 AND P25)
000707:                                                                                                  #                        2. STATINT1 IS SCHEDULED BY SETTING RESTART GROUP 2.
000708:                                                                                                  #                        3. MAJOR MODE 00 IS STORED IN THE MODE REGISTER (MODREG).
000709:                                                                                                  #                        4. SUPERBANK 3 IS SELECTED.
000710:                                                                                                  #                        5. NODOFLAG IS RESET.
000711:                                                                                                  #                        6. ALL RESTART GROUPS EXCEPT GROUP2 ARE CLEARED. CONTROL IS TRANSFERRED TO RESTART PROGRAM (GOPROG2)
000712:                                                                                                  #                           WHICH CAUSES ALL CURRENT ACTIVITY TO BE DISCONTINUED AND A 9 MINUTE INTEGRATION CYCLE TO BE
000713:                                                                                                  #                           INITIATED.
000714:                                                                                                  #                B. PROGRAM SELECTED IS P20 OR P25.
000715:                                                                                                  #                        1. IF THE CURRENT MAJOR MODE IS THE SAME AS THE SELECTED NEWPROGRAM, THE PROGRAM IS RE-INITIALIZED
000716:                                                                                                  #                           VIA V37XEQ, ALL RESTART GROUPS, EXCEPT GROUP 4 ARE CLEARED.
000717:                                                                                                  #                        2. IF THE CURRENT MAJOR MODE IS NOT EQUAL TO THE NEW REQUEST, A CHECK IS MADE TO SEE IF THE REQUEST-
000718:                                                                                                  #                           ED MAJOR MODE HAS BEEN RUNNING IN THE BACKGROUND,
000719:                                                                                                  #                           AND IF IT HAS, NO NEW PROGRAM IS SCHEDULED, THE EXISTING
000720:                                                                                                  #                           P20 OR P25 IS RESTARTED TO CONTINUE, AND ITS MM IS SET.
000721:                                                                                                  #                        3. CONTROL IS TRANSFERRED TO GOPROG2.
000722:                                                                                                  #                C. PROGRAM SELECTED IS NEITHER P00, P20, NOR P25
000723:                                                                                                  #                        1. V37XEQ IS SCHEDULED (AS A JOB) BY SETTING RESTART GROUP 4
000724:                                                                                                  #                        2. ALL CURRENT ACTIVITY EXCEPT RENDEZVOUS AND TRACKING IS DISCONTINUED BY CLEARING ALL RESTART
000725:                                                                                                  #                           GROUPS.  IF THE RENDEZVOUS OR THE P25 FLAG IS ON, GROUP2 IS NOT CLEARED, ALLOWING THESE PROGRAMS
000726:                                                                                                  #                           TO CONTINUE.
000727:
000728:                                                                                                  #  INPUT/OUTPUT INFORMATION
000729:
000730:                                                                                                  #        A. CALLING SEQUENCE
000731:                                                                                                  #                CONTROL IS DIRECTED TO V37 BY THE VERBFAN ROUTINE.
000732:                                                                                                  #                VERBFAN GOES TO C(VERBTAB+C(VERBREG)). VERB 37 = MMCHANG.
000733:                                                                                                  #                MMCHANG EXECUTES A   TC POSTJUMP, CADR V37.
000734:
000735:                                                                                                  #        B. ERASABLE INITIALIZATION              NONE
000736:
000737:                                                                                                  #        C. OUTPUT


000739:                                                                                                  #                MAJOR MODE CHANGE
000740:
000741:                                                                                                  #        D. DEBRIS
000742:                                                                                                  #                MMNUMBER, MPAC +1, MINDEX, BASETEMP +C(MINDEX), FLAGWRD0, FLAGWRD1, FLAGWRD2, MODREG, GOLOC -1,
000743:                                                                                                  #                GOLOC, GOLOC +1, GOLOC +2, BASETEMP, -PHASE2, PHASE2, -PHASE4
000744:
000745:                                                                                                  #  PROGRAM ANALYSIS
000746:
000747:                                                                                                  #        A. SUBROUTINES CALLED
000748:                                                                                                  #                ALARM, RELDSP, PINBRNCH, INTSTALL, ENGINOF2, ALLCOAST, V37KLEAN, GOPROG2, FALTON, FINDVAC, SUPERSW,
000749:                                                                                                  #                DSPMM
000750:
000751:                                                                                                  #        B. NORMAL EXIT                          TC ENDOFJOB
000752:
000753:                                                                                                  #        C. ALARMS                               1520 (MAJOR MODE CHANGE NOT PERMITTED)
000754:
000755: 04,2040           54774        V37                TS       MMNUMBER                              #  SAVE MAJOR MODE
000756: 04,2041           34355                           CAF      PRIO30                                #  RESTART AT PINBALL PRIORITY
000757: 04,2042           54366                           TS       RESTREG
000758:
000759: 04,2043           31277                           CA       IMODES30                              #  IS IMU BEINB INITIALIZED
000760: 04,2044           74746                           MASK     BIT6
000761: 04,2045           10000                           CCS      A
000762: 04,2046           12065                           TCF      CANTROO
000763:
000764: 04,2047           40774                           CS       MMNUMBER                              #  IS P70 REQUESTED?
000765: 04,2050           62403                           AD       DEC70
000766: 04,2051           00006                           EXTEND
000767: 04,2052           12376                           BZF      SETUP70                               #  YES
000768: 04,2053           64753                           AD       ONE                                   #  IS P71 REQUESTED?
000769: 04,2054           00006                           EXTEND
000770: 04,2055           12375                           BZF      SETUP71                               #  YES
000771:
000772: 04,2056           30774                           CA       MMNUMBER                              #  IS NEW REQUEST POO
000773: 04,2057           00006                           EXTEND
000774: 04,2060           12107                           BZF      ISSERVON                              #  YES, CHECK SERVICER STATUS
000775:
000776: 04,2061           40076                           CS       FLAGWRD2                              #  NO, IS NODO V37 FLAG SET
000777: 04,2062           74753                           MASK     NODOBIT
000778: 04,2063           10000                           CCS      A
000779: 04,2064           12072                           TCF      CHECKTAB                              #  NO
000780: 04,2065           05567        CANTROO            TC       ALARM
000781: 04,2066           01520                           OCT      1520
000782:
000783: 04,2067           04457        V37BAD             TC       RELDSP                                #  RELEASES DISPLAY FROM ASTRONAUT
000784:
000785: 04,2070           04635                           TC       POSTJUMP                              #  BRING BACK LAST NORMAL DISPLAY IF THERE
000786: 04,2071           21051                           CADR     PINBRNCH                              #  WAS ONE.  OTHERWISE DO AN EOJ.
000787:
000788: 04,2072           32470        CHECKTAB           CA       NOV37MM                               #  INDEX FOR MM TABLES.
000789:


000791: 04,2073           54155        AGAINMM            TS       MPAC       +1
000792: 04,2074           50155                           NDX      MPAC       +1
000793: 04,2075           32437                           CA       PREMM1                                #  OBTAIN WHICH MM THIS IS FOR
000794: 04,2076           76077                           MASK     LOW7
000795: 04,2077           40000                           COM
000796: 04,2100           60774                           AD       MMNUMBER
000797: 04,2101           10000                           CCS      A
000798: 04,2102           10155                           CCS      MPAC       +1                         #  IF GR, SEE IF ANY MORE IN LIST
000799: 04,2103           12073                           TCF      AGAINMM                               #  YES, GET NEXT ONE
000800: 04,2104           12326                           TCF      V37NONO                               #  LAST TIME OR PASSED MM
000801:
000802: 04,2105           30155                           CA       MPAC       +1
000803: 04,2106           54773                           TS       MINDEX                                #  SAVE INDEX FOR LATER
000804:
000805: 04,2107           40103        ISSERVON           CS       FLAGWRD7                              #  V37 FLAG SET - I.E. IS SERVICER GOING
000806: 04,2110           74746                           MASK     V37FLBIT
000807: 04,2111           10000                           CCS      A
000808: 04,2112           12132                           TCF      CANV37                                #  NO
000809:
000810: 04,2113           05516                           TC       DOWNFLAG                              #  YES, TURN OFF THE AVERAGE FLAG AND
000811: 04,2114           00163                           ADRES    AVEGFLAG                              #  WAIT FOR SERVICER TO RETURN TO V37RET.
000812:
000813: 04,2115           15155                           TCF      ENDOFJOB
000814:
000815: 04,2116           40074        V37RET             CS       FLAGWRD0                              #  IS P20 OR P22 RUNNING?
000816: 04,2117           74745                           MASK     RNDVZBIT
000817: 04,2120           10000                           CCS      A
000818: 04,2121           12123                           TCF      +2                                    #  NO. CHECK FOR P25.
000819: 04,2122           12130                           TCF      2.7SPT                                #  YES. DO 2.7SPOT
000820: 04,2123           40074                           CS       FLAGWRD0                              #  IS P25 RUNNING?
000821: 04,2124           74743                           MASK     P25FLBIT
000822: 04,2125           10000                           CCS      A
000823: 04,2126           32372        2.0SPT             CA       OCT37667
000824: 04,2127           64747        2.11SPT            AD       BIT5
000825: 04,2130           62373        2.7SPT             AD       OCT40072
000826: 04,2131           05357                           TC       PHSCHNGA
000827:
000828: 04,2132           34755        CANV37             CAF      ZERO
000829: 04,2133           00006                           EXTEND
000830: 04,2134           01007                           WRITE    SUPERBNK
000831:
000832: 04,2135           32371                           CAF      ROOAD
000833: 04,2136           54374                           TS       TEMPFLSH
000834:
000835: 04,2137           05353                           TC       PHASCHNG
000836: 04,2140           00014                           OCT      14
000837:
000838: 04,2141           06042        ROO                TC       INTPRET
000839:
000840: 04,2142           77624                           CALL                                           #  WAIT FOR INTEGRATION TO FINISH


000842: 04,2143           27410                                    INTSTALL
000843: 04,2144           77776        DUMMYAD            EXIT
000844:
000845: 04,2145           05516                           TC       DOWNFLAG
000846: 04,2146           00124                           ADRES    3AXISFLG                              #  RESET 3-AXIS FLAG
000847:
000848: 04,2147           05516                           TC       DOWNFLAG
000849: 04,2150           00055                           ADRES    POOHFLAG
000850:
000851: 04,2151           34735                           CAF      LRBYBIT                               #  CLEAN UP THE R12 FLAGWORD.
000852: 04,2152           54107                           TS       FLGWRD11
000853:
000854: 04,2153           05516                           TC       DOWNFLAG                              #  INSURE THAT THE R04FLAG IS CLEAR.
000855: 04,2154           00063                           ADRES    R04FLAG
000856:
000857: 04,2155           05516                           TC       DOWNFLAG
000858: 04,2156           00056                           ADRES    GLOKFAIL                              #  FLAGWORD 3 BIT 14
000859:
000860: 04,2157           05516                           TC       DOWNFLAG                              #  INSURE MUNFLAG IS CLEAR.
000861: 04,2160           00141                           ADRES    MUNFLAG
000862:
000863: 04,2161           05516                           TC       DOWNFLAG                              #  RESET ABORT TARGETING FLAG (USE
000864: 04,2162           00217                           ADRES    ABTTGFLG                              #        PARAMETERS J1 AND KU)
000865:
000866: 04,2163           05516                           TC       DOWNFLAG                              #  ALLOW X-AXIS OVERRIDE.
000867: 04,2164           00311                           ADRES    XOVINFLG
000868: 04,2165           10774                           CCS      MMNUMBER                              #  IS THIS A POOH REQUEST
000869: 04,2166           12314                           TCF      NOUVEAU                               #  NO, PICK UP NEW PROGRAM
000870:
000871: 04,2167           04457        POOH               TC       RELDSP                                #  RELEASE DISPLAY SYSTEM
000872:
000873: 04,2170           35017                           CAF      PRIO5                                 #  SET VARIABLE RESTART PRIORITY FOR
000874: 04,2171           55055                           TS       PHSPRDT2                              #  P00 INTEGRATION.
000875:
000876: 04,2172           06011                           TC       CLRADMOD                              #  CLRADMOD DOES AN INHINT.
000877:
000878: 04,2173           44753                           CS       NODOBIT                               #  TURN OFF NODOFLAG.
000879: 04,2174           70076                           MASK     FLAGWRD2
000880: 04,2175           54076                           TS       FLAGWRD2
000881:
000882: 04,2176           34756                           CA       FIVE                                  #  SET RESTART FOR STATEINT1
000883: 04,2177           54001                           TS       L
000884: 04,2200           40000                           COM
000885: 04,2201           52754                           DXCH     -PHASE2
000886:
000887: 04,2202           42374                           CS       OCT700                                #  TURN OFF P20, P25, IMU IN USE FLAG
000888: 04,2203           70074                           MASK     FLAGWRD0
000889: 04,2204           54074                           TS       FLAGWRD0                              #                         RENDFLG
000890:
000891: 04,2205           34755                           CAF      DNLADP00


000893: 04,2206           54333        SEUDOPOO           TS       DNLSTCOD                              #  SET UP APPROPRIATE DOWNLIST CODE
000894: 04,2207           55321                           TS       AGSWORD                               #    (CURRENT LIST WILL BE COMPLETED BEFORE
000895:                                                                                                  #      NEW ONE IS STARTED)
000896:
000897: 04,2210           04674                           TC       IBNKCALL
000898: 04,2211           75561                           CADR     ENGINOF1
000899:
000900: 04,2212           04674                           TC       IBNKCALL                              #  INSURE ALLCOAST.
000901: 04,2213           40205                           CADR     ALLCOAST                              #  DOES A RESTORDB.
000902:
000903: 04,2214           44775                           CS       OCT120                                #  TURN OFF TRACK, UPDATE FLAGS
000904: 04,2215           55071                           TS       EBANKTEM
000905: 04,2216           70075                           MASK     FLAGWRD1
000906: 04,2217           54075                           TS       FLAGWRD1
000907:
000908: 04,2220           04674                           TC       IBNKCALL                              #  KILL GROUPS 1,3,5,6
000909: 04,2221           12650                           CADR     V37KLEAN
000910:
000911: 04,2222           10774                           CCS      MMNUMBER                              #  IS IT POOH
000912: 04,2223           12232                           TCF      RENDVOO                               #  NO
000913: 04,2224           04674        GOMOD              TC       IBNKCALL                              #  REDUNDANT EXCEPT FOR GROUP 4
000914: 04,2225           12645                           CADR     POOKLEAN
000915:
000916: 04,2226           30774                           CA       MMNUMBER
000917: 04,2227           55010                           TS       MODREG
000918:
000919: 04,2230           04635        GOGOPROG           TC       POSTJUMP
000920: 04,2231           12766                           CADR     GOPROG2
000921:
000922: 04,2232           41010        RENDVOO            CS       MODREG                                #  IS CURRENT PROGRAM 22
000923: 04,2233           62332                           AD       OCT26
000924: 04,2234           00006                           EXTEND
000925: 04,2235           12254                           BZF      RESET22                               #  YES - CLEAR RENDEZVOUS FLAG
000926:
000927: 04,2236           40774                           CS       MMNUMBER                              #  IS NEW PROGRAM P22
000928: 04,2237           62332                           AD       OCT26
000929: 04,2240           00006                           EXTEND
000930: 04,2241           12254                           BZF      RESET22
000931:
000932: 04,2242           67751                           AD       NEG2                                  #  IS NEW PROGRAM = P20 OR P25
000933: 04,2243           00006                           EXTEND
000934: 04,2244           12266                           BZF      RENDNOO                               #  YES
000935: 04,2245           64756                           AD       FIVE                                  #  25
000936: 04,2246           00006                           EXTEND
000937: 04,2247           12266                           BZF      RENDNOO                               #  YES
000938:
000939: 04,2250           32330                           CA       OCT500                                #  NO, IS EITHER P20 OR P25 RUNNING
000940: 04,2251           70074                           MASK     FLAGWRD0
000941: 04,2252           10000                           CCS      A


000943: 04,2253           12263                           TCF      POOFIZZ                               #  YES, LEAVE GROUP 2 TO PICK UP P20 OR P25
000944:
000945: 04,2254           42374        RESET22            CS       OCT700                                #  CLEAR RENDEZVOUS, P25
000946: 04,2255           70074                           MASK     FLAGWRD0                              #  AND IMU IN USE FLAGS
000947: 04,2256           54074                           TS       FLAGWRD0
000948: 04,2257           06011                           TC       CLRADMOD
000949:
000950: 04,2260           00006        KILL2              EXTEND                                         #  NO, KILL 2
000951: 04,2261           34755                           DCA      NEG0
000952: 04,2262           52754                           DXCH     -PHASE2
000953:
000954: 04,2263           32370        POOFIZZ            CAF      V37QCAD                               #  RESTART POINT FOR V37XEQ
000955: 04,2264           54374                           TS       TEMPFLSH
000956:
000957: 04,2265           12230                           TCF      GOGOPROG
000958:
000959: 04,2266           41010        RENDNOO            CS       MODREG
000960: 04,2267           66007                           AD       OCT24
000961: 04,2270           00006                           EXTEND
000962: 04,2271           12260                           BZF      KILL2                                 #  P20 OR P25 ON TOP OF P20 OR P25 -
000963:
000964: 04,2272           64756                           AD       FIVE
000965: 04,2273           00006                           EXTEND
000966: 04,2274           12260                           BZF      KILL2
000967:
000968: 04,2275           32330                           CA       OCT500
000969: 04,2276           70074                           MASK     FLAGWRD0
000970: 04,2277           60774                           AD       MMNUMBER
000971: 04,2300           40000                           COM
000972: 04,2301           62333                           AD       P20REG                                #  IS IT 20 AND IS RENDEZVOUS FLAG ON
000973: 04,2302           00006                           EXTEND
000974: 04,2303           12310                           BZF      STATQUO                               #  YES
000975: 04,2304           62331                           AD       OCT305                                #  IS IT 25 AND IS P25 BIT ON
000976: 04,2305           00006                           EXTEND
000977: 04,2306           12310                           BZF      STATQUO                               #  YES, LEAVE AS IS
000978: 04,2307           12260                           TCF      KILL2
000979:
000980: 04,2310           40075        STATQUO            CS       FLAGWRD1                              #  SET TRACKFLAG
000981: 04,2311           74775                           MASK     OCT120                                #        UPDATE FLAG
000982: 04,2312           26075                           ADS      FLAGWRD1
000983:
000984: 04,2313           12224                           TCF      GOMOD
000985:
000986: 04,2314           32330        NOUVEAU            CAF      OCT500                                #  IS P20 OR P25 FLAG SET
000987: 04,2315           70074                           MASK     FLAGWRD0
000988: 04,2316           10000                           CCS      A
000989: 04,2317           12322                           TCF      +3                                    #  YES
000990: 04,2320           05516                           TC       DOWNFLAG                              #  NO, RESET IMUINUSE FLAG
000991: 04,2321           00007                           ADRES    IMUSE


000993: 04,2322           50773                           INDEX    MINDEX
000994: 04,2323           32471                           CAF      DNLADMM1                              #  OBTAIN APPROPRIATE DOWNLIST ADDRESS
000995:
000996: 04,2324           00004                           INHINT
000997: 04,2325           12206                           TCF      SEUDOPOO
000998:
000999: 04,2326           04364        V37NONO            TC       FALTON                                #  COME HERE IF MM REQUESTED DOESNT EXIST
001000:
001001: 04,2327           12067                           TCF      V37BAD
001002:
001003: 04,2330     4750               OCT00010           EQUALS   BIT4
001004: 04,2330           00500        OCT500             OCT      500                                   #  BITS 7 AND 9
001005: 04,2331           00305        OCT305             OCT      305
001006: 04,2332           00026        OCT26              OCT      26
001007: 04,2333           00124        P20REG             OCT      124
001008:
001009: 04,2334           00004        V37XEQ             INHINT
001010: 04,2335           50773                           INDEX    MINDEX
001011: 04,2336           32437                           CAF      PREMM1                                #  OBTAIN PRIO, EBANK, AND MM
001012: 04,2337           55057                           TS       MMTEMP
001013: 04,2340           54020                           TS       CYR                                   #  SHIFT RIGHT TO BITS 14-10
001014:
001015: 04,2341           30020                           CA       CYR
001016: 04,2342           77730                           MASK     PRIO37
001017: 04,2343           55061                           TS       PHSPRDT4                              #  PRESET GROUP 4 RESTART PRIORITY
001018: 04,2344           54063                           TS       NEWPRIO                               #  STORE PRIO FOR SPVAC
001019:
001020: 04,2345           31057                           CA       MMTEMP                                #  OBTAIN EBANK - BITS 8, 9, 10 OF MMTEMP.
001021: 04,2346           00006                           EXTEND
001022: 04,2347           74744                           MP       BIT8
001023: 04,2350           74757                           MASK     LOW3
001024: 04,2351           54001                           TS       L
001025:
001026: 04,2352           50773                           INDEX    MINDEX
001027: 04,2353           32406                           CAF      FCADRMM1
001028: 04,2354           55060                           TS       BASETEMP                              #  MAKE BBCON BY ADDING HI5 OF FCADR
001029: 04,2355           74350                           MASK     HI5
001030: 04,2356           26001                           ADS      L
001031:
001032: 04,2357           31060                           CA       BASETEMP                              #  OBTAIN GENADR PORTION OF 2CADR.
001033: 04,2360           75012                           MASK     LOW10
001034: 04,2361           64741                           AD       BIT11
001035:
001036: 04,2362           05116                           TC       SPVAC
001037:
001038: 04,2363           31057        V37XEQC            CA       MMTEMP                                #  UPON RETURN FROM FINDVAC PLACE THE
001039: 04,2364           76077                           MASK     LOW7                                  #  NEW MM IN MODREG (THE LOW 7 BITS OF
001040: 04,2365           05314                           TC       NEWMODEA                              #  PHSPRDT1)
001041:
001042: 04,2366           04457                           TC       RELDSP                                #  RELEASE DISPLAY


001044: 04,2367           05155                           TC       ENDOFJOB                              #  AND EXIT
001045:
001046: 04,2370     5650               NEG7               EQUALS   OCT77770
001047:
001048: 04,2370     1057               MMTEMP             EQUALS   PHSPRDT3
001049: 04,2370     1060               BASETEMP           EQUALS   TBASE4
001050: 04,2370           10337        V37QCAD            CADR     V37XEQ     +3
001051: 04,2371           10144        ROOAD              CADR     DUMMYAD
001052: 04,2372           37667        OCT37667           OCT      37667
001053: 04,2373           40072        OCT40072           OCT      40072
001054: 04,2374           00700        OCT700             OCT      700
001055:
001056: 04,2375           36250        SETUP71            CAF      THREE
001057: 04,2376           54002        SETUP70            TS       Q
001058: 04,2377           00006                           EXTEND
001059: 04,2400           32405                           DCA      P70CADR
001060: 04,2401           60002                           AD       Q
001061: 04,2402           52006                           DTCB
001062:
001063: 04,2403           00106        DEC70              DEC      70         B-14
001064: 04,2404  E7,1520                                  EBANK=   R
001065: 04,2404           02067 42067  P70CADR            2CADR    P70
001066:
001067:                                                                                                  #  FOR VERB 37 TWO TABLES ARE MAINTAINED.  EACH TABLE HAS AN ENTRY FOR EACH
001068:                                                                                                  #  MAJOR MODE THAT CAN BE STARTED FROM THE KEYBOARD.  THE ENTRIES ARE PUT
001069:                                                                                                  #  INTO THE TABLE WITH THE ENTRY FOR THE HIGHEST MAJOR MODE COMING FIRST,
001070:                                                                                                  #  TO THE LOWEST MAJOR MODE WHICH IS THE LAST ENTRY IN EACH TABLE.
001071:
001072:                                                                                                  #  THE FCADRMM TABLE CONTAINS THE FCADR OF THE STARTING JOB OF
001073:                                                                                                  #  THE MAJOR MODE.  FOR EXAMPLE,
001074:
001075:                                                                                                  #        FCADRMM1        FCADR   P79             START OF P 79
001076:                                                                                                  #                        FCADR   PROG18          START OF P 18
001077:                                                                                                  #                        FCADR   P01             START OF P 01
001078:
001079:                                                                                                  #  NOTE,         THE FIRST ENTRY MUST BE LABLED FCADRMM1.
001080:                                                                                                  #  ----
001081:
001082: 04,2406           26207        FCADRMM1           FCADR    P76
001083: 04,2407           72641                           FCADR    P75
001084: 04,2410           72457                           FCADR    P74
001085: 04,2411           72225                           FCADR    P73
001086: 04,2412           72036                           FCADR    P72
001087: 04,2413           71271                           FCADR    LANDJUNK
001088: 04,2414           65000                           FCADR    P63LM
001089: 04,2415           33277                           FCADR    P57
001090: 04,2416           32050                           FCADR    PROG52
001091: 04,2417           31421                           FCADR    P51
001092: 04,2420           75442                           FCADR    P47LM


001094: 04,2421           75414                           FCADR    P42LM
001095: 04,2422           75276                           FCADR    P41LM
001096: 04,2423           75153                           FCADR    P40LM
001097: 04,2424           72635                           FCADR    P35
001098: 04,2425           72455                           FCADR    P34
001099: 04,2426           72223                           FCADR    P33
001100: 04,2427           72034                           FCADR    P32
001101: 04,2430           72000                           FCADR    P30
001102: 04,2431           50400                           FCADR    PROG25
001103: 04,2432           50000                           FCADR    PROG22
001104: 04,2433           51506                           FCADR    PROG21
001105: 04,2434           50000                           FCADR    PROG20
001106: 04,2435           60061                           FCADR    P12LM
001107: 04,2436           77652                           FCADR    P06
001108:
001109:                                                                                                  #  THE PREMM TABLE CONTAINS THE E-BANK, MAJOR MODE, AND PRIORITY
001110:                                                                                                  #  INFORMATION, IT IS IN THE FOLLOWING FORM,
001111:
001112:                                                                                                  #        PPP PPE EEM MMM MMM
001113:
001114:                                                                                                  #        WHERE THE       7 M BITS CONTAIN THE MAJOR MODE NUMBER
001115:                                                                                                  #                        3 E BITS CONTAIN THE E-BANK NUMBER
001116:                                                                                                  #                        5 P BITS CONTAIN THE PRIORITY AT WHICH THE JOB IS
001117:                                                                                                  #                            TO BE STARTED
001118:
001119:                                                                                                  #        FOR EXAMPLE,
001120:
001121:                                                                                                  #                PREMM1          OCT     67213           PRIORITY        33
001122:                                                                                                  #                                                        E-BANK           5
001123:                                                                                                  #                                                        MAJOR MODE      11
001124:                                                                                                  #                                OCT     25437           PRIORITY        12
001125:                                                                                                  #                                                        E-BANK           6
001126:                                                                                                  #                                                        MAJOR MODE      31
001127:
001128:                                                                                                  #  NOTE,     THE FIRST ENTRY MUST BE LABELED PREMM1
001129:
001130: 04,2437           27714        PREMM1             OCT      27714                                 #  MM 76         EBANK 7         PRIO 13
001131: 04,2440           27713                           OCT      27713                                 #  MM 75         EBANK 7         PRIO 13
001132: 04,2441           27712                           OCT      27712                                 #  MM 74         EBANK 7         PRIO 13
001133: 04,2442           27711                           OCT      27711                                 #  MM 73         EBANK 7         PRIO 13
001134: 04,2443           27710                           OCT      27710                                 #  MM 72         EBANK 7         PRIO 13
001135: 04,2444           27704                           OCT      27704                                 #  MM 68         EBANK 7         PRIO 13
001136: 04,2445           27677                           OCT      27677                                 #  MM 63         EBANK 7         PRIO 13
001137: 04,2446           27271                           OCT      27271                                 #  MM 57         EBANK 5         PRIO 13
001138: 04,2447           27264                           OCT      27264                                 #  MM 52         EBANK 5         PRIO 13
001139: 04,2450           27263                           OCT      27263                                 #  MM 51         EBANK 5         PRIO 13
001140: 04,2451           27657                           OCT      27657                                 #  MM 47         EBANK 7         PRIO 13
001141: 04,2452           27652                           OCT      27652                                 #  MM 42         EBANK 7         PRIO 13
001142: 04,2453           27651                           OCT      27651                                 #  MM 41         EBANK 7         PRIO 13
001143: 04,2454           27650                           OCT      27650                                 #  MM 40         EBANK 7         PRIO 13
001144: 04,2455           27643                           OCT      27643                                 #  MM 35         EBANK 7         PRIO 13
001145: 04,2456           27642                           OCT      27642                                 #  MM 34         EBANK 7         PRIO 13


001147: 04,2457           27641                           OCT      27641                                 #  MM 33         EBANK 7         PRIO 13
001148: 04,2460           27640                           OCT      27640                                 #  MM 32         EBANK 7         PRIO 13
001149: 04,2461           27636                           OCT      27636                                 #  MM 30         EBANK 7         PRIO 13
001150: 04,2462           27631                           OCT      27631                                 #  MM 25         EBANK 7         PRIO 13
001151: 04,2463           27626                           OCT      27626                                 #  MM 22         EBANK 7         PRIO 13
001152: 04,2464           27625                           OCT      27625                                 #  MM 21         EBANK 7         PRIO 13
001153: 04,2465           27624                           OCT      27624                                 #  MM 20         EBANK 7         PRIO 13
001154: 04,2466           27614                           OCT      27614                                 #  MM 12         EBANK 7         PRIO 13
001155: 04,2467           27006                           OCT      27006                                 #  MM 06         EBANK 4         PRIO 13
001156:
001157:                                                                                                  #  NOTE,         THE FOLLOWING CONSTANT IS THE NUMBER OF ENTRIES IN EACH OF
001158:                                                                                                  #  ----          THE ABOVE LISTS-1(IE, THE NUMBER OF MAJOR MODES(EXCEPT P00)
001159:                                                                                                  #                THAT CAN BE CALLED FROM THE KEYBOARD MINUS ONE)
001160:
001161: 04,2470           00030        NOV37MM            DEC      24         B-14                       #  MM'S -1
001162:
001163: 04,2471           00002        DNLADMM1           ADRES    RENDEZVU                              #  P76
001164: 04,2472           00002                           ADRES    RENDEZVU                              #  P75
001165: 04,2473           00002                           ADRES    RENDEZVU                              #  P74
001166: 04,2474           00002                           ADRES    RENDEZVU                              #  P73
001167: 04,2475           00002                           ADRES    RENDEZVU                              #  P72
001168: 04,2476           00004                           ADRES    DESASCNT                              #  P68
001169: 04,2477           00004                           ADRES    DESASCNT                              #  P63
001170: 04,2500           00005                           ADRES    LUNRSALN                              #  P57
001171: 04,2501           00000                           ADRES    COSTALIN                              #  P52
001172: 04,2502           00000                           ADRES    COSTALIN                              #  P51
001173: 04,2503           00003                           ADRES    ORBMANUV                              #  P47
001174: 04,2504           00003                           ADRES    ORBMANUV                              #  P42
001175: 04,2505           00003                           ADRES    ORBMANUV                              #  P41
001176: 04,2506           00003                           ADRES    ORBMANUV                              #  P40
001177: 04,2507           00002                           ADRES    RENDEZVU                              #  P35
001178: 04,2510           00002                           ADRES    RENDEZVU                              #  P34
001179: 04,2511           00002                           ADRES    RENDEZVU                              #  P33
001180: 04,2512           00002                           ADRES    RENDEZVU                              #  P32
001181: 04,2513           00002                           ADRES    RENDEZVU                              #  P30
001182: 04,2514           00002                           ADRES    RENDEZVU                              #  P25
001183: 04,2515           00005                           ADRES    LUNRSALN                              #  P22
001184: 04,2516           00002                           ADRES    RENDEZVU                              #  P21
001185: 04,2517           00002                           ADRES    RENDEZVU                              #  P20
001186: 04,2520           00004                           ADRES    DESASCNT                              #  P12
001187: 04,2521           00000                           ADRES    COSTALIN                              #  P06
001188:
001189: 04,2522     4755               DNLADP00           =        ZERO
001190: 04,2522                        COSTALIN           =        0
001191: 04,2522                        AGSUPDAT           =        1
001192: 04,2522                        RENDEZVU           =        2
001193: 04,2522                        ORBMANUV           =        3
001194: 04,2522                        DESASCNT           =        4
001195: 04,2522                        LUNRSALN           =        5
001196:
001197: 13,2026                                           BANK     13
001198: 13,2000                                           SETLOC   INTINIT
001199: 13,2000                                           BANK
001200:


001202: 13,2026                                           COUNT*   $$/INTIN
001203:
001204: 13,2026  E3,1554                                  EBANK=   RRECTCSM
001205:
001206:                                                                                                  #  THIS ROUTINE DOES THE POO INTEGRATION
001207:
001208: 13,2026           43014        STATEUP            SET      BOF                                   #  EXTRAPOLATE CM STATE VECTOR
001209: 13,2027           01474                                    VINTFLAG
001210: 13,2030           04347                                    SURFFLAG                              #  ALSO 6X6 W-MATRIX IF LM ON LUNAR
001211: 13,2031           26036                                    DOINT                                 #        SURFACE AND W-MATRIX VALID
001212: 13,2032           43014                           BOF      SET                                   #        FOR RENDEZVOUS NAVIGATION.
001213: 13,2033           02756                                    RENDWFLG
001214: 13,2034           26036                                    DOINT
001215: 13,2035           01476                                    DIM0FLAG
001216: 13,2036           45014        DOINT              CLEAR    CALL
001217: 13,2037           01667                                    PRECIFLG                              #  ENGAGES 4-TIME STEP LOGIC IN INTEGRATION
001218: 13,2040           27133                                    INTEGRV                               #  WHEN MODREG = 0
001219:
001220: 13,2041           71214                           BON      DLOAD
001221: 13,2042           04307                                    SURFFLAG
001222: 13,2043           26063                                    NO-INT
001223: 13,2044           01571                                    TETCSM
001224: 13,2045           34041                           STCALL   TDEC1
001225: 13,2046           27410                                    INTSTALL
001226: 13,2047           45014                           CLEAR    CALL                                  #  EXTRAPOLATE LM STATE VECTOR
001227: 13,2050           01674                                    VINTFLAG
001228: 13,2051           26643                                    SETIFLGS
001229: 13,2052           77614                           BOF                                            #  ALSO 9X9 W-MATRIX IF W IS VALID
001230: 13,2053           02756                                    RENDWFLG
001231: 13,2054           26060                                    DOINT2
001232: 13,2055           43014                           SET      SET
001233: 13,2056           01476                                    DIM0FLAG
001234: 13,2057           01475                                    D6OR9FLG
001235: 13,2060           45014        DOINT2             SET      CALL
001236: 13,2061           01467                                    PRECIFLG                              #  DISENGAGE 4 TIME STEP LOGIC IN INTEG.
001237: 13,2062           27133                                    INTEGRV
001238: 13,2063           77614        NO-INT             CLRGO
001239: 13,2064           01236                                    NODOFLAG
001240: 13,2065           26631                                    ENDINT
001241:
001242:                                                                                                  #  THISVINT IS CALLED BY MIDTOAV1 AND 2
001243:
001244: 13,2066           43414        THISVINT           CLEAR    RVQ
001245: 13,2067           01674                                    VINTFLAG
001246:
001247:

End of include-file FRESH_START_AND_RESTART.agc.  Parent file is MAIN.agc


