
Source Code
000001:                                                                                                 #  Copyright:     Public domain.
000002:                                                                                                 #  Filename:      GIMBAL_LOCK_AVOIDANCE.agc
000003:                                                                                                 #  Purpose:       A section of Luminary 1C, revision 131.
000004:                                                                                                 #                 It is part of the source code for the Lunar Module's (LM)
000005:                                                                                                 #                 Apollo Guidance Computer (AGC) for Apollo 13 and Apollo 14.
000006:                                                                                                 #                 This file is intended to be a faithful transcription, except
000007:                                                                                                 #                 that the code format has been changed to conform to the
000008:                                                                                                 #                 requirements of the yaYUL assembler rather than the
000009:                                                                                                 #                 original YUL assembler.
000010:                                                                                                 #  Reference:     p. 371 of 1729.pdf.
000011:                                                                                                 #  Contact:       Ron Burkey <info@sandroid.org>.
000012:                                                                                                 #  Website:       www.ibiblio.org/apollo/index.html
000013:                                                                                                 #  Mod history:   05/11/03 RSB.   Began transcribing.
000014:                                                                                                 #                 05/14/05 RSB    Corrected website reference above.
000015:
000016:                                                                                                 #  Page 371
000017: 15,2050                                          BANK     15
000018:
000019: 22,2000                                          SETLOC   KALCMON1
000020: 22,2000                                          BANK
000021:
000022:                                                                                                 #  DETECTING GIMBAL LOCK
000023: 22,2744  22,2744               LOCSKIRT          EQUALS   NOGIMLOC
000024:
000025: 22,2744           77614        NOGIMLOC          SET
000026: 22,2745           01074                                   CALCMAN3
000027: 22,2746           70740        WCALC             LXC,1    DLOAD*
000028: 22,2747           01322                                   RATEINDX                              #  CHOOSE THE DESIRED MANEUVER RATE
000029: 22,2750           04772                                   ARATE,1                               #  FROM A LIST OF FOUR
000030: 22,2751           45002                          SR4      CALL                                  #  COMPUTE THE INCREMENTAL ROTATION MATRIX
000031: 22,2752           44527                                   DELCOMP                               #  DEL CORRESPONDING TO A 1 SEC ROTATION
000032:                                                                                                 #  ABOUT COF
000033: 22,2753           74343                          DLOAD*   VXSC
000034: 22,2754           04772                                   ARATE,1
000035: 22,2755           03270                                   COF
000036: 22,2756           17325                          STODL    BRATE                                 #  COMPONENT MANEUVER RATES 45 DEG/SEC
000037: 22,2757           03335                                   AM
000038: 22,2760           55605                          DMP      DDV*
000039: 22,2761           05002                                   ANGLTIME
000040: 22,2762           04772                                   ARATE,1
000041: 22,2763           77661                          SR
000042: 22,2764           20606                                   5
000043: 22,2765           03333                          STORE    TM                                    #  MANEUVER EXECUTION TIME SCALED AS T2
000044: 22,2766           77614                          SETGO
000045: 22,2767           01035                                   CALCMAN2                              #  D(OFF) = CONTINUE MANEUVER
000046: 22,2770           45010                                   NEWANGL    +1                         #  1(ON) = START MANEUVER
000047:
000048:                                                                                                 #  THE FOUR SELECTABLE FREE FALL MANEUVER RATES SELECTED BY
000049:                                                                                                 #  LOADING RATEINDX WITH 0, 2, 4, 6, RESPECTIVELY
000050:
000051: 22,2771           00221 24255  ARATE             2DEC     .0088888888                            #  = 0.2 DEG/SEC
000052: 22,2773           00554 02660                    2DEC     .0222222222                            #  = 0.5 DEG/SEC
000053: 22,2775           02660 13301                    2DEC     .0888888888                            #  = 2.0 DEG/SEC
000054: 22,2777           16161 30707                    2DEC     .4444444444                            #  = 10.0 DEG/SEC
000055:
000056: 22,3001           00003 04000  ANGLTIME          2DEC     .0001907349                            #  = 100B-19 FUDGE FACTOR TO CONVERT
000057:                                                                                                 #  MANEUVER ANGLE TO MANEUVER TIME
000058:
000059:

End of include-file GIMBAL_LOCK_AVOIDANCE.agc.  Parent file is MAIN.agc


