
Source Code


000002:                                                                                                  ## Copyright:   Public domain.
000003:                                                                                                  ## Filename:    IMU_COMPENSATION_PACKAGE.agc
000004:                                                                                                  ## Purpose:     A section of Luminary 1C, revision 131.
000005:                                                                                                  ##              It is part of the source code for the Lunar Module's (LM)
000006:                                                                                                  ##              Apollo Guidance Computer (AGC) for Apollo 13.
000007:                                                                                                  ##              This file is intended to be a faithful transcription, except
000008:                                                                                                  ##              that the code format has been changed to conform to the
000009:                                                                                                  ##              requirements of the yaYUL assembler rather than the
000010:                                                                                                  ##              original YUL assembler.
000011:                                                                                                  ## Reference:   pp. 328-339
000012:                                                                                                  ## Contact:     Ron Burkey <info@sandroid.org>.
000013:                                                                                                  ## Website:     www.ibiblio.org/apollo/index.html
000014:                                                                                                  ## Mod history: 05/10/03 RSB.   Began transcribing.
000015:                                                                                                  ##              05/14/05 RSB    Corrected website reference above.
000016:                                                                                                  ##              2016-12-30 RSB  Backported BYRO->GYRO from Colossus 237.
000017:                                                                                                  ##                              (There's lots more that needs to be backported,
000018:                                                                                                  ##                              but I found this one particularly annoying.)
000019:                                                                                                  ##              2017-01-06 RSB  Page numbers now agree with those on the
000020:                                                                                                  ##                              original harcopy, as opposed to the PDF page
000021:                                                                                                  ##                              numbers in 1701.pdf.
000022:                                                                                                  ##              2017-02-23 RSB  Proofed comment text using octopus/ProoferComments.
000023:                                                                                                  ##              2017-03-07 RSB  Comment-text fixes noted in proofing Luminary 116.
000024:


000026: 07,2666                                           BANK     7
000027: 06,2000                                           SETLOC   IMUCOMP
000028: 06,2000                                           BANK
000029:
000030: 06,3271  E3,1460                                  EBANK=   NBDX
000031:
000032: 06,3271                                           COUNT*   $$/ICOMP
000033: 06,3271           33537        1/PIPA             CAF      LGCOMP                                #  SAVE EBANK OF CALLING PROGRAM
000034: 06,3272           56003                           XCH      EBANK
000035: 06,3273           54163                           TS       MODE
000036:
000037: 06,3274           11477                           CCS      GCOMPSW                               #  BYPASS IF GCOMPSW NEGATIVE
000038: 06,3275           13300                           TCF      +3
000039: 06,3276           13300                           TCF      +2
000040: 06,3277           13361                           TCF      IRIG1                                 #  RETURN
000041:
000042: 06,3300           34751        1/PIPA1            CAF      FOUR                                  #  PIPAZ, PIPAY, PIPAX
000043: 06,3301           54132                           TS       BUF        +2
000044:
000045: 06,3302           50132                           INDEX    BUF        +2
000046: 06,3303           31453                           CA       PIPASCF                               #  (P.P.M.) X 2(-9)
000047: 06,3304           00006                           EXTEND
000048: 06,3305           50132                           INDEX    BUF        +2
000049: 06,3306           70324                           MP       DELVX                                 #  (PP) X 2(+14) NOW (PIPA PULSES) X 2(+5)
000050: 06,3307           54002                           TS       Q                                     #  SAVE MAJOR PART
000051:
000052: 06,3310           30001                           CA       L                                     #  MINOR PART
000053: 06,3311           00006                           EXTEND
000054: 06,3312           74746                           MP       BIT6                                  #  SCALE 2(+9)   SHIFT RIGHT 9
000055:
000056: 06,3313           50132                           INDEX    BUF        +2
000057: 06,3314           54325                           TS       DELVX      +1                         #  FRACTIONAL PIPA PULSES SCALED 2(+14)
000058:
000059: 06,3315           30002                           CA       Q                                     #  MAJOR PART
000060: 06,3316           00006                           EXTEND
000061: 06,3317           74746                           MP       BIT6                                  #  SCALE 2(+9)   SHIFT RIGHT 9
000062: 06,3320           50132                           INDEX    BUF        +2
000063: 06,3321           20325                           DAS      DELVX                                 #  (PIPAI) + (PIPAI)(SFE)
000064:
000065: 06,3322           50132                           INDEX    BUF        +2
000066: 06,3323           41452                           CS       PIPABIAS                              #  (PIPA PULSES)/(CS) X 2(-3)                    *
000067: 06,3324           00006                           EXTEND
000068: 06,3325           71074                           MP       1/PIPADT                              #  (CS) X 2(+8) NOW (PIPA PULSES) X 2(+5)        *
000069: 06,3326           00006                           EXTEND
000070: 06,3327           74746                           MP       BIT6                                  #  SCALE 2(+9) SHIFT RIGHT 9                     *
000071: 06,3330           50132                           INDEX    BUF        +2
000072: 06,3331           20325                           DAS      DELVX                                 #  (PIPAI) + (PIPAI)(SFE) - (BIAS)(DELTAT)
000073:
000074: 06,3332           10132                           CCS      BUF        +2                         #  PIPAZ, PIPAY, PIPAX
000075: 06,3333           67752                           AD       NEG1
000076: 06,3334           13301                           TCF      1/PIPA1    +1


000078: 06,3335           13336                           NOOP                                           #  LESS THAN ZERO IMPOSSIBLE
000079:


000081: 06,3336           55477        IRIGCOMP           TS       GCOMPSW                               #  INDICATE COMMANDS 2 PULSES OR LESS.
000082: 06,3337           54130                           TS       BUF                                   #  INDEX COUNTER.  IRIGX, IRIGY, IRIGZ.
000083:
000084: 06,3340           03364                           TC       IRIGX                                 #  COMPENSATE ACCELERATION TERMS
000085:
000086: 06,3341           41460                           CS       NBDX                                  #  (GYRO PULSES)/(CS) X 2(-5)
000087: 06,3342           03462                           TC       DRIFTSUB                              #  -(NBOX)(DELTAT)       (GYRO PULSES) X 2(+14)
000088:
000089: 06,3343           03401                           TC       IRIGY                                 #  COMPENSATE ACCELERATION TERMS
000090:
000091: 06,3344           41461                           CS       NBDY                                  #  (GYRO PULSES)/(CS) X 2(-5)
000092: 06,3345           03462                           TC       DRIFTSUB                              #  -(NBDY)(DELTAT)       (GYRO PULSES) X 2(+14)
000093:
000094: 06,3346           03416                           TC       IRIGZ                                 #  COMPENSATE ACCELERATION TERMS
000095:
000096: 06,3347           31462                           CA       NBDZ                                  #  (GYRO PULSES)/(CS) X 2(-5)
000097: 06,3350           03462                           TC       DRIFTSUB                              #  +(NBDZ)(DELTAT)       (GYRO PULSES) X 2(+14)
000098:
000099: 06,3351           11477                           CCS      GCOMPSW                               #  ARE GYRO COMMANDS GREATER THAN 2 PULSES
000100: 06,3352           13354                           TCF      +2                                    #  YES   SEND OUT GYRO TORQUING COMMANDS.
000101: 06,3353           13361                           TCF      IRIG1                                 #  NO    RETURN
000102:
000103: 06,3354           35031                           CA       PRIO21                                #  PRIO GREATER THAN SERVICER
000104: 06,3355           05072                           TC       NOVAC                                 #  SEND OUT GYRO TORQUING COMMANDS.
000105: 06,3356  E3,1460                                  EBANK=   NBDX
000106: 06,3356           03515 14063                     2CADR    1/GYRO
000107:
000108: 06,3360           00003                           RELINT
000109: 06,3361           30163        IRIG1              CA       MODE                                  #  RESTORE CALLER S EBANK
000110: 06,3362           54003                           TS       EBANK
000111: 06,3363           14631                           TCF      SWRETURN
000112:


000114: 06,3364           00006        IRIGX              EXTEND
000115: 06,3365           22156                           QXCH     MPAC       +2                         #  SAVE Q
000116: 06,3366           00006                           EXTEND
000117: 06,3367           40325                           DCS      DELVX                                 #  (PIPA PULSES) X 2(+14)
000118: 06,3370           52155                           DXCH     MPAC
000119: 06,3371           31463                           CA       ADIAX                                 #  (GYRO PULSES)/(PIPA PULSE) X 2(-6)            *
000120: 06,3372           03433                           TC       GCOMPSUB                              #  -(ADIAX)(PIPAX)       (GYRO PULSES) X 2(+14)
000121:
000122: 06,3373           00006                           EXTEND                                         #
000123: 06,3374           40327                           DCS      DELVY                                 #        (PIPA PULSES) X 2(+14)
000124: 06,3375           52155                           DXCH     MPAC                                  #
000125: 06,3376           41466                           CS       ADSRAX                                #        (GYRO PULSES)/(PIPA PULSE) X 2(-6)      *
000126: 06,3377           03433                           TC       GCOMPSUB                              #        -(ADSRAX)(PIPAY)        (GYRO PULSES) X 2(+14)
000127:
000128:                                                                                                  #                EXTEND                  ***
000129:                                                                                                  #                DCS     DELVZ           ***     (PIPA PULSES) X 2(+14)
000130:                                                                                                  #                DXCH    MPAC            ***
000131:                                                                                                  #                CA      ADOAX           ***     (GYRO PULSES)/(PIPA PULSE) X 2(-6)      *
000132:                                                                                                  #                TC      GCOMPSUB        ***     -(ADOAX)(PIPAZ)         (GYRO PULSES) X 2(+14)
000133:
000134: 06,3400           00156                           TC       MPAC       +2
000135:
000136: 06,3401           00006        IRIGY              EXTEND
000137: 06,3402           22156                           QXCH     MPAC       +2                         #  SAVE Q
000138: 06,3403           00006                           EXTEND
000139: 06,3404           40327                           DCS      DELVY                                 #  (PIPA PULSES) X 2(+14)
000140: 06,3405           52155                           DXCH     MPAC
000141: 06,3406           31464                           CA       ADIAY                                 #  (GYRO PULSES)/(PIPA PULSE) X 2(-6)            *
000142: 06,3407           03433                           TC       GCOMPSUB                              #  -(ADIAY)(PIPAY)       (GYRO PULSES) X 2(+14)
000143:
000144: 06,3410           00006                           EXTEND
000145: 06,3411           40331                           DCS      DELVZ                                 #  (PIPA PULSES) X 2(+14)
000146: 06,3412           52155                           DXCH     MPAC
000147: 06,3413           41467                           CS       ADSRAY                                #  (GYRO PULSES)/(PIPA PULSE) X 2(-6)            *
000148: 06,3414           03433                           TC       GCOMPSUB                              #  +(ADSRAY)(PIPAZ)      (GYRO PULSES) X 2(+14)
000149:
000150:                                                                                                  #                EXTEND                  ***
000151:                                                                                                  #                DCS     DELVX           ***     (PIPA PULSES) X 2(+14)
000152:                                                                                                  #                DXCH    MPAC            ***
000153:                                                                                                  #                CA      ADOAY           ***     (GYRO PULSES)/(PIPA PULSE) X 2(-6)      *
000154:                                                                                                  #                TC      GCOMPSUB        ***     -(ADOAY)(PIPAX)   (GYRO PULSES) X 2(+14)
000155:
000156: 06,3415           00156                           TC       MPAC       +2
000157:
000158: 06,3416           00006        IRIGZ              EXTEND
000159: 06,3417           22156                           QXCH     MPAC       +2                         #  SAVE Q
000160: 06,3420           00006                           EXTEND
000161: 06,3421           40327                           DCS      DELVY                                 #  (PIPA PULSES) X 2(+14)
000162: 06,3422           52155                           DXCH     MPAC
000163: 06,3423           31470                           CA       ADSRAZ                                #  (GYRO PULSES)/(PIPA PULSE) X 2(-6)            *


000165: 06,3424           03433                           TC       GCOMPSUB                              #  -(ADSRAZ)(PIPAY)      (GYRO PULSES) X 2(+14)
000166:
000167: 06,3425           00006                           EXTEND
000168: 06,3426           40331                           DCS      DELVZ                                 #  (PIPA PULSES) X 2(+14)
000169: 06,3427           52155                           DXCH     MPAC
000170: 06,3430           31465                           CA       ADIAZ                                 #  (GYRO PULSES)/(PIPA PULSE) X 2(-6)            *
000171: 06,3431           03433                           TC       GCOMPSUB                              #  -(ADIAZ)(PIPAZ)       (GYRO PULSES) X 2(+14)
000172:
000173:                                                                                                  #                EXTEND                  ***
000174:                                                                                                  #                DCS     DELVX           ***     (PIPA PULSE) X 2(+14)
000175:                                                                                                  #                DXCH    MPAC            ***
000176:                                                                                                  #                CS      ADOAZ           ***     (GYRO PULSES)/(PIPA PULSE) X 2(-6)      *
000177:                                                                                                  #                TC      GCOMPSUB        ***     +(ADOAZ)(PIPAX) (GYRO PULSES) X 2(+14)
000178:
000179: 06,3432           00156                           TC       MPAC       +2
000180:


000182: 06,3433           56154        GCOMPSUB           XCH      MPAC                                  #  ADIA OR ADSRA COEFFICIENT ARRIVES IN A
000183: 06,3434           00006                           EXTEND                                         #  C(MPAC) = (PIPA PULSES) X 2(+14)
000184: 06,3435           70154                           MP       MPAC                                  #  (GYRO PULSES)/(PIPA PULSE) X 2(-6)            *
000185: 06,3436           52123                           DXCH     VBUF                                  #  NOW = (GYRO PULSES) X 2(+8)                   *
000186:
000187: 06,3437           30155                           CA       MPAC       +1                         #  MINOR PART PIPA PULSES
000188: 06,3440           00006                           EXTEND
000189: 06,3441           70154                           MP       MPAC                                  #  ADIA OR ADSRA
000190: 06,3442           54001                           TS       L
000191: 06,3443           34755                           CAF      ZERO
000192: 06,3444           20123                           DAS      VBUF                                  #  NOW = (GYRO PULSES) X 2(+8)                   *
000193:
000194: 06,3445           30122                           CA       VBUF                                  #  PARTIAL RESULT - MAJOR
000195: 06,3446           00006                           EXTEND
000196: 06,3447           74743                           MP       BIT9                                  #  SCALE 2(+6)   SHIFT RIGHT 6                   *
000197: 06,3450           50130                           INDEX    BUF                                   #  RESULT = (GYRO PULSES) X 2(+14)
000198: 06,3451           21472                           DAS      GCOMP                                 #  HI(ADIA)(PIPAI) OR HI(ADSRA)(PIPAI)
000199:
000200: 06,3452           30123                           CA       VBUF       +1                         #  PARTIAL RESULT - MINOR
000201: 06,3453           00006                           EXTEND
000202: 06,3454           74743                           MP       BIT9                                  #  SCALE 2(+6)   SHIFT RIGHT 6                   *
000203: 06,3455           54001                           TS       L
000204: 06,3456           34755                           CAF      ZERO
000205: 06,3457           50130                           INDEX    BUF                                   #  RESULT = (GYRO PULSES) X 2(+14)
000206: 06,3460           21472                           DAS      GCOMP                                 #  (ADIA)(PIPAI) OR (ADSRA)(PIPAI)
000207:
000208: 06,3461           00002                           TC       Q
000209:


000211: 06,3462           00006        DRIFTSUB           EXTEND
000212: 06,3463           22131                           QXCH     BUF        +1
000213:
000214: 06,3464           00006                           EXTEND                                         #  C(A) = NBD    (GYRO PULSES)/(CS) X 2(-5)
000215: 06,3465           71074                           MP       1/PIPADT                              #  (CS) X 2(+8)  NOW (GYRO PULSES) X 2(+3)
000216: 06,3466           22155                           LXCH     MPAC       +1                         #  SAVE FOR FRACTIONAL COMPENSATION
000217: 06,3467           00006                           EXTEND
000218: 06,3470           74750                           MP       BIT4                                  #  SCALE 2(+11)  SHIFT RIGHT 11
000219: 06,3471           50130                           INDEX    BUF
000220: 06,3472           21472                           DAS      GCOMP                                 #  HI(NBD)(DELTAT)       (GYRO PULSES) X 2(+14)
000221:
000222: 06,3473           30155                           CA       MPAC       +1                         #  NOW MINOR PART
000223: 06,3474           00006                           EXTEND
000224: 06,3475           74750                           MP       BIT4                                  #  SCALE 2(+11)          SHIFT RIGHT 11
000225: 06,3476           54001                           TS       L
000226: 06,3477           34755                           CAF      ZERO
000227: 06,3500           50130                           INDEX    BUF                                   #  ADD IN FRACTIONAL COMPENSATION
000228: 06,3501           21472                           DAS      GCOMP                                 #  (NBD)(DELTAT)         (GYRO PULSES) X 2(+14)
000229:
000230: 06,3502           34752        DRFTSUB2           CAF      TWO                                   #  PIPAX, PIPAY, PIPAZ
000231: 06,3503           60130                           AD       BUF
000232: 06,3504           56130                           XCH      BUF
000233: 06,3505           50000                           INDEX    A
000234: 06,3506           11471                           CCS      GCOMP                                 #  ARE GYRO COMMANDS 1 PULSE OR GREATER
000235: 06,3507           13511                           TCF      +2                                    #  YES
000236: 06,3510           00131                           TC       BUF        +1                         #  NO
000237:
000238: 06,3511           73561                           MASK     COMPCHK                               #  DEC -1
000239: 06,3512           10000                           CCS      A                                     #  ARE GYRO COMMANDS GREATER THAN 2 PULSES
000240: 06,3513           55477                           TS       GCOMPSW                               #  YES - SET GCOMPSW POSITIVE
000241: 06,3514           00131                           TC       BUF        +1                         #  NO
000242:


000244: 06,3515           34751        1/GYRO             CAF      FOUR                                  #  PIPAZ, PIPAY, PIPAX
000245: 06,3516           54130                           TS       BUF
000246:
000247: 06,3517           50130                           INDEX    BUF                                   #  SCALE GYRO COMMANDS FOR IMUPULSE
000248: 06,3520           31472                           CA       GCOMP      +1                         #  FRACTIONAL PULSES
000249: 06,3521           00006                           EXTEND
000250: 06,3522           74744                           MP       BIT8                                  #  SHIFT RIGHT 7
000251: 06,3523           50130                           INDEX    BUF
000252: 06,3524           55472                           TS       GCOMP      +1                         #  FRACTIONAL PULSES SCALED
000253:
000254: 06,3525           34755                           CAF      ZERO                                  #  SET GCOMP = 0 FOR DAS INSTRUCTION
000255: 06,3526           50130                           INDEX    BUF
000256: 06,3527           57471                           XCH      GCOMP                                 #  GYRO PULSES
000257: 06,3530           00006                           EXTEND
000258: 06,3531           74744                           MP       BIT8                                  #  SHIFT RIGHT 7
000259: 06,3532           50130                           INDEX    BUF
000260: 06,3533           21472                           DAS      GCOMP                                 #  ADD THESE TO FRACTIONAL PULSES ABOVE
000261:
000262: 06,3534           10130                           CCS      BUF                                   #  PIPAZ, PIPAY, PIPAX
000263: 06,3535           67752                           AD       NEG1
000264: 06,3536           13516                           TCF      1/GYRO     +1
000265: 06,3537           01471        LGCOMP             ECADR    GCOMP                                 #  LESS THAN ZERO IMPOSSIBLE
000266:
000267: 06,3540           33537                           CAF      LGCOMP
000268: 06,3541           04616                           TC       BANKCALL
000269: 06,3542           17314                           CADR     IMUPULSE                              #  CALL GYRO TORQUING ROUTINE
000270: 06,3543           04616                           TC       BANKCALL
000271: 06,3544           17707                           CADR     IMUSTALL                              #  WAIT FOR PULSES TO GET OUT
000272: 06,3545           15155                           TCF      ENDOFJOB                              #  TEMPORARY
000273:
000274: 06,3546           34751        GCOMP1             CAF      FOUR                                  #  PIPAZ, PIPAY, PIPAX
000275: 06,3547           54130                           TS       BUF
000276:
000277: 06,3550           50130                           INDEX    BUF                                   #  RESCALE
000278: 06,3551           31472                           CA       GCOMP      +1
000279: 06,3552           00006                           EXTEND
000280: 06,3553           74744                           MP       BIT8                                  #  SHIFT MINOR PART LEFT 7 - MAJOR PART = 0
000281: 06,3554           50130                           INDEX    BUF
000282: 06,3555           23472                           LXCH     GCOMP      +1                         #  BITS 8-14 OF MINOR PART WERE = 0
000283:
000284: 06,3556           10130                           CCS      BUF                                   #  PIPAZ, PIPAY, PIPAX
000285: 06,3557           67752                           AD       NEG1
000286: 06,3560           13547                           TCF      GCOMP1     +1
000287: 06,3561           77776        COMPCHK            DEC      -1         B-14                       #  LESS THAN ZERO IMPOSSIBLE
000288: 06,3562           15155                           TCF      ENDOFJOB
000289:


000291: 06,3563           11477        NBDONLY            CCS      GCOMPSW                               #  BYPASS IF GCOMPSW NEGATIVE
000292: 06,3564           13567                           TCF      +3
000293: 06,3565           13567                           TCF      +2
000294: 06,3566           15155                           TCF      ENDOFJOB
000295:
000296: 06,3567           00004                           INHINT
000297: 06,3570           10076                           CCS      FLAGWRD2                              #  PREREAD T3RUPT MAY COINCIDE
000298: 06,3571           15155                           TCF      ENDOFJOB
000299: 06,3572           15155                           TCF      ENDOFJOB
000300: 06,3573           13574                           TCF      +1
000301:
000302: 06,3574           30104                           CA       FLAGWRD8                              #  IF SURFACE FLAG IS SET, SET TEM1
000303: 06,3575           74744                           MASK     BIT8                                  #  POSITIVE SO THAT THE ACCELERATION TERMS
000304: 06,3576           54141                           TS       TEM1                                  #  WILL BE COMPENSATED.
000305: 06,3577           00006                           EXTEND
000306: 06,3600           13603                           BZF      +3                                    #  ARE WE ON THE SURFACE
000307:
000308: 06,3601           04674                           TC       IBNKCALL                              #  ON THE SURFACE
000309: 06,3602           77541                           CADR     PIPASR     +3                         #  READ PIPAS, BUT DO NOT SCALE THEM
000310:
000311: 06,3603           30025                           CA       TIME1                                 #  (CS) X 2(+14)
000312: 06,3604           57074                           XCH      1/PIPADT                              #  PREVIOUS TIME
000313: 06,3605           00003                           RELINT
000314: 06,3606           40000                           COM
000315: 06,3607           61074                           AD       1/PIPADT                              #  PRESENT TIME - PREVIOUS TIME
000316: 06,3610           64736        NBD2               AD       HALF                                  #  CORRECT FOR POSSIBLE TIME1 TICK
000317: 06,3611           64736                           AD       HALF
000318: 06,3612           56001                           XCH      L                                     #  IF TIME1 DID NOT TICK, REMOVE RESULTING
000319: 06,3613           56001                           XCH      L                                     #  OVERFLOW.
000320:
000321: 06,3614           00006        NBD3               EXTEND                                         #  C(A) = DELTAT         (CS) X 2(+14)
000322: 06,3615           74742                           MP       BIT10                                 #  SHIFT RIGHT 5
000323: 06,3616           52125                           DXCH     VBUF       +2
000324:
000325: 06,3617           34755                           CA       ZERO
000326: 06,3620           55477                           TS       GCOMPSW                               #  INDICATE COMMANDS 2 PULSES OR LESS.
000327: 06,3621           54130                           TS       BUF                                   #  INDEX X, Y, Z.
000328:
000329: 06,3622           10141                           CCS      TEM1                                  #  IF SURFACE FLAG IS SET,
000330: 06,3623           03364                           TC       IRIGX                                 #  COMPENSATE ACCELERATION TERMS.
000331:
000332: 06,3624           00006                           EXTEND
000333: 06,3625           30125                           DCA      VBUF       +2
000334: 06,3626           52155                           DXCH     MPAC                                  #  DELTAT NOW SCALED (CS) X 2(+19)
000335:
000336: 06,3627           41460                           CS       NBDX                                  #  (GYRO PULSES)/(CS) X 2(-5)
000337: 06,3630           03652                           TC       FBIASSUB                              #  -(NBOX)(DELTAT)       (GYRO PULSES) X 2(+14)
000338:
000339: 06,3631           10141                           CCS      TEM1                                  #  IF SURFACE FLAG IS SET,
000340: 06,3632           03401                           TC       IRIGY                                 #  COMPENSATE ACCELERATION TERMS.


000342: 06,3633           00006                           EXTEND
000343: 06,3634           40125                           DCS      VBUF       +2
000344: 06,3635           52155                           DXCH     MPAC                                  #  DELTAT SCALED (CS) X 2(+19)
000345: 06,3636           31461                           CA       NBDY                                  #  (GYRO PULSES)/(CS) X 2(-5)
000346: 06,3637           03652                           TC       FBIASSUB                              #  -(NBDY)(DELTAT)       (GYRO PULSES) X 2(+14)
000347:
000348: 06,3640           10141                           CCS      TEM1                                  #  IF SURFACE FLAG IS SET,
000349: 06,3641           03416                           TC       IRIGZ                                 #  COMPENSATE ACCELERATION TERMS
000350:
000351: 06,3642           00006                           EXTEND
000352: 06,3643           40125                           DCS      VBUF       +2
000353: 06,3644           52155                           DXCH     MPAC                                  #  DELTAT SCALED (CS) X 2(+19)
000354: 06,3645           41462                           CS       NBDZ                                  #  (GYRO PULSES)/(CS) X 2(-5)
000355: 06,3646           03652                           TC       FBIASSUB                              #  +(NBDZ)(DELTAT)       (GYRO PULSES) X 2(+14)
000356:
000357: 06,3647           11477                           CCS      GCOMPSW                               #  ARE GYRO COMMANDS GREATER THAN 2 PULSES
000358: 06,3650           13515                           TCF      1/GYRO                                #  YES
000359: 06,3651           15155                           TCF      ENDOFJOB                              #  NO
000360:


000362: 06,3652           56002        FBIASSUB           XCH      Q
000363: 06,3653           54131                           TS       BUF        +1
000364:
000365: 06,3654           30002                           CA       Q                                     #  NBD SCALED (GYRO PULSES)/(CS) X 2(-5)
000366: 06,3655           00006                           EXTEND
000367: 06,3656           70154                           MP       MPAC                                  #  DELTAT SCALED (CS) X 2(+19)
000368: 06,3657           50130                           INDEX    BUF
000369: 06,3660           21472                           DAS      GCOMP                                 #  HI(NBD)(DELTAT)       (GYRO PULSES) X 2(+14)
000370:
000371: 06,3661           30002                           CA       Q                                     #  NOW FRACTIONAL PART
000372: 06,3662           00006                           EXTEND
000373: 06,3663           70155                           MP       MPAC       +1
000374: 06,3664           54001                           TS       L
000375: 06,3665           34755                           CAF      ZERO
000376: 06,3666           50130                           INDEX    BUF
000377: 06,3667           21472                           DAS      GCOMP                                 #  (NBD)(DELTAT)         (GYRO PULSES) X 2(+14)
000378:
000379: 06,3670           13502                           TCF      DRFTSUB2                              #  CHECK MAGNITUDE OF COMPENSATION
000380:
000381: 06,3671           04616        LASTBIAS           TC       BANKCALL
000382: 06,3672           17270                           CADR     PIPUSE1
000383:
000384: 06,3673           11477                           CCS      GCOMPSW
000385: 06,3674           13677                           TCF      +3
000386: 06,3675           13677                           TCF      +2
000387: 06,3676           15155                           TCF      ENDOFJOB
000388:
000389: 06,3677           30104                           CA       FLAGWRD8                              #  IF SURFACE FLAG IS SET, SET TEM1
000390: 06,3700           74744                           MASK     SURFFBIT                              #  POSITIVE SO THAT THE ACCELERATION TERMS
000391: 06,3701           54141                           TS       TEM1                                  #  WILL BE COMPENSATED.
000392:
000393: 06,3702           37721                           CAF      PRIO31                                #  2 SECONDS SCALED (CS) X 2(+8)
000394: 06,3703           57074                           XCH      1/PIPADT
000395: 06,3704           40000                           COM
000396: 06,3705           61234                           AD       PIPTIME    +1
000397: 06,3706           13610                           TCF      NBD2
000398:
000399: 06,3707           33537        GCOMPZER           CAF      LGCOMP                                #  ROUTINE TO ZERO GCOMP BEFORE FIRST
000400: 06,3710           56003                           XCH      EBANK                                 #  CALL TO 1/PIPA
000401: 06,3711           54163                           TS       MODE
000402:
000403: 06,3712           34755                           CAF      ZERO
000404: 06,3713           55477                           TS       GCOMPSW
000405: 06,3714           55471                           TS       GCOMP
000406: 06,3715           55472                           TS       GCOMP      +1
000407: 06,3716           55473                           TS       GCOMP      +2
000408: 06,3717           55474                           TS       GCOMP      +3
000409: 06,3720           55475                           TS       GCOMP      +4


000411: 06,3721           55476                           TS       GCOMP      +5
000412:
000413: 06,3722           13361                           TCF      IRIG1                                 #  RESTORE EBANK AND RETURN
000414:

End of include-file IMU_COMPENSATION_PACKAGE.agc.  Parent file is MAIN.agc


