
Source Code
000001:                                                                                                 #  Copyright:     Public domain.
000002:                                                                                                 #  Filename:      IMU_COMPENSATION_PACKAGE.agc
000003:                                                                                                 #  Purpose:       A section of Luminary 1C, revision 131.
000004:                                                                                                 #                 It is part of the source code for the Lunar Module's (LM)
000005:                                                                                                 #                 Apollo Guidance Computer (AGC) for Apollo 13 and Apollo 14.
000006:                                                                                                 #                 This file is intended to be a faithful transcription, except
000007:                                                                                                 #                 that the code format has been changed to conform to the
000008:                                                                                                 #                 requirements of the yaYUL assembler rather than the
000009:                                                                                                 #                 original YUL assembler.
000010:                                                                                                 #  Reference:     pp. 333-344 of 1729.pdf.
000011:                                                                                                 #  Contact:       Ron Burkey <info@sandroid.org>.
000012:                                                                                                 #  Website:       www.ibiblio.org/apollo/index.html
000013:                                                                                                 #  Mod history:   05/10/03 RSB.   Began transcribing.
000014:                                                                                                 #                 05/14/05 RSB    Corrected website reference above.
000015:
000016:                                                                                                 #  Page 333
000017: 07,2666                                          BANK     7
000018: 06,2000                                          SETLOC   IMUCOMP
000019: 06,2000                                          BANK
000020:
000021: 06,3271  E3,1460                                 EBANK=   NBDX
000022:
000023: 06,3271                                          COUNT*   $$/ICOMP
000024: 06,3271           33537        1/PIPA            CAF      LGCOMP                                #  SAVE EBANK OF CALLING PROGRAM
000025: 06,3272           56003                          XCH      EBANK
000026: 06,3273           54163                          TS       MODE
000027:
000028: 06,3274           11477                          CCS      GCOMPSW                               #  BYPASS IF GCOMPSW NEGATIVE
000029: 06,3275           13300                          TCF      +3
000030: 06,3276           13300                          TCF      +2
000031: 06,3277           13361                          TCF      IRIG1                                 #  RETURN
000032:
000033: 06,3300           34751        1/PIPA1           CAF      FOUR                                  #  PIPAZ, PIPAY, PIPAX
000034: 06,3301           54132                          TS       BUF        +2
000035:
000036: 06,3302           50132                          INDEX    BUF        +2
000037: 06,3303           31453                          CA       PIPASCF                               #  (P.P.M.) X 2(-9)
000038: 06,3304           00006                          EXTEND
000039: 06,3305           50132                          INDEX    BUF        +2
000040: 06,3306           70324                          MP       DELVX                                 #  (PP) X 2(+14) NOW (PIPA PULSES) X 2(+5)
000041: 06,3307           54002                          TS       Q                                     #  SAVE MAJOR PART
000042:
000043: 06,3310           30001                          CA       L                                     #  MINOR PART
000044: 06,3311           00006                          EXTEND
000045: 06,3312           74746                          MP       BIT6                                  #  SCALE 2(+9)    SHIFT RIGHT 9
000046:
000047: 06,3313           50132                          INDEX    BUF        +2
000048: 06,3314           54325                          TS       DELVX      +1                         #  FRACTIONAL PIPA PULSES SCALED 2(+14)
000049:
000050: 06,3315           30002                          CA       Q                                     #  MAJOR PART
000051: 06,3316           00006                          EXTEND
000052: 06,3317           74746                          MP       BIT6                                  #  SCALE 2(+9)    SHIFT RIGHT 9
000053: 06,3320           50132                          INDEX    BUF        +2
000054: 06,3321           20325                          DAS      DELVX                                 #  (PIPAI) + (PIPAI)(SF)
000055:
000056: 06,3322           50132                          INDEX    BUF        +2
000057: 06,3323           41452                          CS       PIPABIAS                              #  (PIPA PULSES)/(CS) X 2(-3)                     *
000058: 06,3324           00006                          EXTEND
000059: 06,3325           71074                          MP       1/PIPADT                              #  (CS) X 2(+8) NOW (PIPA PULSES) X 2(+5) *
000060: 06,3326           00006                          EXTEND
000061: 06,3327           74746                          MP       BIT6                                  #  SCALE 2(+9) SHIFT RIGHT 9                      *
000062: 06,3330           50132                          INDEX    BUF        +2
000063: 06,3331           20325                          DAS      DELVX                                 #  (PIPAI) + (PIPAI)(SFE) - (BIAS)(DELTAT)
000064:
000065: 06,3332           10132                          CCS      BUF        +2                         #  PIPAZ, PIPAY, PIPAX
000066: 06,3333           67752                          AD       NEG1
000067: 06,3334           13301                          TCF      1/PIPA1    +1
000068:                                                                                                 #  Page 334
000069: 06,3335           13336                          NOOP                                           #  LESS THAN ZERO IMPOSSIBLE
000070:
000071:                                                                                                 #  Page 335
000072: 06,3336           55477        IRIGCOMP          TS       GCOMPSW                               #  INDICATE COMMANDS 2 PULSES OR LESS.
000073: 06,3337           54130                          TS       BUF                                   #  INDEX COUNTER.  IRIGX, IRIGY, IRIGZ.
000074:
000075: 06,3340           03364                          TC       IRIGX                                 #  COMPENSATE ACCELERATION TERMS
000076:
000077: 06,3341           41460                          CS       NBDX                                  #  (GYRO PULSES)/(CS) X 2(-5)
000078: 06,3342           03462                          TC       DRIFTSUB                              #  -(NBOX)(DELTAT)        (GYRO PULSES) X 2(+14)
000079:
000080: 06,3343           03401                          TC       IRIGY                                 #  COMPENSATE ACCELERATION TERMS
000081:
000082: 06,3344           41461                          CS       NBDY                                  #  (GYRO PULSES)/(CS) X 2(-5)
000083: 06,3345           03462                          TC       DRIFTSUB                              #  +(NBDY)(DELTAT)        (GYRO PULSES) X 2(+14)
000084:
000085: 06,3346           03416                          TC       IRIGZ                                 #  COMPENSATE ACCELERATION TERMS
000086:
000087: 06,3347           31462                          CA       NBDZ                                  #  (GYRO PULSES)/(CS) X 2(-5)
000088: 06,3350           03462                          TC       DRIFTSUB                              #  +(NBDZ)(DELTAT)        (GYRO PULSES) X 2(+14)
000089:
000090: 06,3351           11477                          CCS      GCOMPSW                               #  ARE GYRO COMMANDS GREATER THAN 2 PULSES
000091: 06,3352           13354                          TCF      +2                                    #  YES    SEND OUT GYRO TORQUING COMMANDS.
000092: 06,3353           13361                          TCF      IRIG1                                 #  NO     RETURN
000093:
000094: 06,3354           35031                          CA       PRIO21                                #  PRIO GREATER THAN SERVICER.
000095: 06,3355           05072                          TC       NOVAC                                 #  SEND OUT GYRO TORQUING COMMANDS.
000096: 06,3356  E3,1460                                 EBANK=   NBDX
000097: 06,3356           03515 14063                    2CADR    1/GYRO
000098:
000099: 06,3360           00003                          RELINT
000100: 06,3361           30163        IRIG1             CA       MODE                                  #  RESTORE CALLER'S EBANK
000101: 06,3362           54003                          TS       EBANK
000102: 06,3363           14631                          TCF      SWRETURN
000103:
000104:                                                                                                 #  Page 336
000105: 06,3364           00006        IRIGX             EXTEND
000106: 06,3365           22156                          QXCH     MPAC       +2                         #  SAVE Q
000107: 06,3366           00006                          EXTEND
000108: 06,3367           40325                          DCS      DELVX                                 #  (PIPA PULSES) X 2(+14)
000109: 06,3370           52155                          DXCH     MPAC
000110: 06,3371           31463                          CA       ADIAX                                 #  (GYRO PULSES)/(PIPA PULSE) X 2(-6)             *
000111: 06,3372           03433                          TC       GCOMPSUB                              #  -(ADIAX)(PIPAX)        (GYRO PULSES) X 2(+14)
000112:
000113: 06,3373           00006                          EXTEND                                         #
000114: 06,3374           40327                          DCS      DELVY                                 #         (PIPA PULSES) X 2(+14)
000115: 06,3375           52155                          DXCH     MPAC                                  #
000116: 06,3376           41466                          CS       ADSRAX                                #         (GYRO PULSES)/(PIPA PULSE) X 2(-6)      *
000117: 06,3377           03433                          TC       GCOMPSUB                              #         -(ADSRAX)(PIPAY)        (GYRO PULSES) X 2(+14)
000118:
000119:                                                                                                 #                 EXTEND                  # ***
000120:                                                                                                 #                 DCS     DELVY           # ***   (PIPA PULSES) X 2(+14)
000121:                                                                                                 #                 DXCH    MPAC            # ***
000122:                                                                                                 #                 CA      ADOAX           # ***   (GYRO PULSES)/(PIPA PULSE) X 2(-6)      *
000123:                                                                                                 #                 TC      GCOMPSUB        # ***   -(ADOAX)(PIPAZ)         (GYRO PULSES) X 2(+14)
000124:
000125: 06,3400           00156                          TC       MPAC       +2
000126:
000127: 06,3401           00006        IRIGY             EXTEND
000128: 06,3402           22156                          QXCH     MPAC       +2                         #  SAVE Q
000129: 06,3403           00006                          EXTEND
000130: 06,3404           40327                          DCS      DELVY                                 #  (PIPA PULSES) X 2(+14)
000131: 06,3405           52155                          DXCH     MPAC
000132: 06,3406           31464                          CA       ADIAY                                 #  (GYRO PULSES)/(PIPA PULSE) X 2(+14)            *
000133: 06,3407           03433                          TC       GCOMPSUB                              #  -(ADIAY)(PIPAY)        (GYRO PULSES) X 2(+14)
000134:
000135: 06,3410           00006                          EXTEND
000136: 06,3411           40331                          DCS      DELVZ                                 #  (PIPA PULSES) X 2(+14)
000137: 06,3412           52155                          DXCH     MPAC
000138: 06,3413           41467                          CS       ADSRAY                                #  (GYRO PULSES)/(PIPA PULSE) X 2(-6)             *
000139: 06,3414           03433                          TC       GCOMPSUB                              #  +(ADSRAY)(PIPAZ)       (GYRO PULSES) X 2(+14)
000140:
000141:                                                                                                 #                 EXTEND                  # ***
000142:                                                                                                 #                 DCS     DELVX           # ***   (PIPA PULSES) X 2(+14)
000143:                                                                                                 #                 DXCH    MPAC            # ***
000144:                                                                                                 #                 CA      ADOAY           # ***   (GYRO PULSES)/(PIPA PULS) X 2(-6)       *
000145:                                                                                                 #                 TC      GCOMPSUB        # ***   -(ADOAY)(/PIPAX)        (GYRO PULSES) X 2(+14)
000146:
000147: 06,3415           00156                          TC       MPAC       +2
000148:
000149: 06,3416           00006        IRIGZ             EXTEND
000150: 06,3417           22156                          QXCH     MPAC       +2                         #  SAVE Q
000151: 06,3420           00006                          EXTEND
000152: 06,3421           40327                          DCS      DELVY                                 #  (PIPA PULSES) X 2(-14)
000153: 06,3422           52155                          DXCH     MPAC
000154: 06,3423           31470                          CA       ADSRAZ                                #  (GYRO PULSES)/(PIPA PULSE) X 2(-6)             *
000155:                                                                                                 #  Page 337
000156: 06,3424           03433                          TC       GCOMPSUB                              #  -(ADSRAZ)(PIPAY)       (GYRO PULSES) X 2(+14)
000157:
000158: 06,3425           00006                          EXTEND
000159: 06,3426           40331                          DCS      DELVZ                                 #  (PIPA PULSES) X 2(+14)
000160: 06,3427           52155                          DXCH     MPAC
000161: 06,3430           31465                          CA       ADIAZ                                 #  (GYRO PULSES)/(PIPA PULSE) X 2(-6)             *
000162: 06,3431           03433                          TC       GCOMPSUB                              #  -(ADIAZ)(PIPAZ)        (GYRO PULSES) X 2(+14)
000163:
000164:                                                                                                 #                 EXTEND                  # ***
000165:                                                                                                 #                 DCS     DELVX           # ***   (PIPA PULSE) X 2(+14)
000166:                                                                                                 #                 DXCH    MPAC            # ***
000167:                                                                                                 #                 CS      ADOAZ           # ***   (GYRO PULSES)/(PIPA PULSE) X 2(-6)      *
000168:                                                                                                 #                 TC      GCOMPSUB        # ***   +(ADOAZ)(PIPAX) (GYRO PULSES) X 2(+14)
000169:
000170: 06,3432           00156                          TC       MPAC       +2
000171:
000172:                                                                                                 #  Page 338
000173: 06,3433           56154        GCOMPSUB          XCH      MPAC                                  #  ADIA OR ADSRA COEFFICIENT ARRIVES IN A
000174: 06,3434           00006                          EXTEND                                         #  C(MPAC) = (PIPA PULSES) X 2(+14)
000175: 06,3435           70154                          MP       MPAC                                  #  (GYRO PULSES)/(PIPA PULSE) X 2(-6)             *
000176: 06,3436           52123                          DXCH     VBUF                                  #  NOW = (GYRO PULSES) X 2(+8)                    *
000177:
000178: 06,3437           30155                          CA       MPAC       +1                         #  MINOR PART OF PIPA PULSES
000179: 06,3440           00006                          EXTEND
000180: 06,3441           70154                          MP       MPAC                                  #  ADIA OR ADSRA
000181: 06,3442           54001                          TS       L
000182: 06,3443           34755                          CAF      ZERO
000183: 06,3444           20123                          DAS      VBUF                                  #  NO = (BYRO PULSES) X 2(+8)                     *
000184:
000185: 06,3445           30122                          CA       VBUF                                  #  PARTIAL RESULT -- MAJOR
000186: 06,3446           00006                          EXTEND
000187: 06,3447           74743                          MP       BIT9                                  #  SCALE 2(+6)    SHIFT RIGHT 6                   *
000188: 06,3450           50130                          INDEX    BUF                                   #  RESULT = (BYRO PULSES) X 2(+14)
000189: 06,3451           21472                          DAS      GCOMP                                 #  HI(ADIA)(PIPAI) OR HI(ADSRA)(PIPAI)
000190:
000191: 06,3452           30123                          CA       VBUF       +1                         #  PARTIAL RESULT -- MINOR
000192: 06,3453           00006                          EXTEND
000193: 06,3454           74743                          MP       BIT9                                  #  SCALE 2(+6)    SHIFT RIGHT 6                   *
000194: 06,3455           54001                          TS       L
000195: 06,3456           34755                          CAF      ZERO
000196: 06,3457           50130                          INDEX    BUF                                   #  RESULT = (TYRO PULSES) X 2(+14)
000197: 06,3460           21472                          DAS      GCOMP                                 #  (ADIA)(PIPAI) OR (ADSRA)(PIPAI)
000198:
000199: 06,3461           00002                          TC       Q
000200:
000201:                                                                                                 #  Page 339
000202: 06,3462           00006        DRIFTSUB          EXTEND
000203: 06,3463           22131                          QXCH     BUF        +1
000204:
000205: 06,3464           00006                          EXTEND                                         #  C(A) = NBD     (GYRO PULSES)/(CS) X 2(-5)
000206: 06,3465           71074                          MP       1/PIPADT                              #  (CS) X 2(+8)   NO (GYRO PULSES) X 2(+3)
000207: 06,3466           22155                          LXCH     MPAC       +1                         #  SAVE FOR FRACTIONAL COMPENSATION
000208: 06,3467           00006                          EXTEND
000209: 06,3470           74750                          MP       BIT4                                  #  SCALE 2(+11)   SHIFT RIGHT 11
000210: 06,3471           50130                          INDEX    BUF
000211: 06,3472           21472                          DAS      GCOMP                                 #  HI(NBD)(DELTAT)        (GYRO PULSES) X 2(+14)
000212:
000213: 06,3473           30155                          CA       MPAC       +1                         #  NO MINOR PART
000214: 06,3474           00006                          EXTEND
000215: 06,3475           74750                          MP       BIT4                                  #  SCALE 2(+11)           SHIFT RIGHT 11
000216: 06,3476           54001                          TS       L
000217: 06,3477           34755                          CAF      ZERO
000218: 06,3500           50130                          INDEX    BUF                                   #  ADD IN FRACTIONAL COMPENSATION
000219: 06,3501           21472                          DAS      GCOMP                                 #  (NBD)(DELTAT)          (GYRO PULSES) X 2(+14)
000220:
000221: 06,3502           34752        DRFTSUB2          CAF      TWO                                   #  PIPAX, PIPAY, PIPAZ
000222: 06,3503           60130                          AD       BUF
000223: 06,3504           56130                          XCH      BUF
000224: 06,3505           50000                          INDEX    A
000225: 06,3506           11471                          CCS      GCOMP                                 #  ARE GYRO COMMANDS 1 PULSE OR GREATER
000226: 06,3507           13511                          TCF      +2                                    #  YES
000227: 06,3510           00131                          TC       BUF        +1                         #  NO
000228:
000229: 06,3511           73561                          MASK     COMPCHK                               #  DEC -1
000230: 06,3512           10000                          CCS      A                                     #  ARE GYRO COMMANDS GREATER THAN 2 PULSES
000231: 06,3513           55477                          TS       GCOMPSW                               #  YES -- SET GCOMPSW POSITIVE
000232: 06,3514           00131                          TC       BUF        +1                         #  NO
000233:
000234:                                                                                                 #  Page 340
000235: 06,3515           34751        1/GYRO            CAF      FOUR                                  #  PIPAZ, PIPAY, PIPAX
000236: 06,3516           54130                          TS       BUF
000237:
000238: 06,3517           50130                          INDEX    BUF                                   #  SCALE GYRO COMMANDS FOR IMUPULSE
000239: 06,3520           31472                          CA       GCOMP      +1                         #  FRACTIONAL PULSES
000240: 06,3521           00006                          EXTEND
000241: 06,3522           74744                          MP       BIT8                                  #  SHIFT RIGHT 7
000242: 06,3523           50130                          INDEX    BUF
000243: 06,3524           55472                          TS       GCOMP      +1                         #  FRACTIONAL PULSES SCALED
000244:
000245: 06,3525           34755                          CAF      ZERO                                  #  SET GCOMP = 0 FOR DAS INSTRUCTION
000246: 06,3526           50130                          INDEX    BUF
000247: 06,3527           57471                          XCH      GCOMP                                 #  GYRO PULSES
000248: 06,3530           00006                          EXTEND
000249: 06,3531           74744                          MP       BIT8                                  #  SHIFT RIGHT 7
000250: 06,3532           50130                          INDEX    BUF
000251: 06,3533           21472                          DAS      GCOMP                                 #  ADD THESE TO FRACTIONAL PULSES ABOVE
000252:
000253: 06,3534           10130                          CCS      BUF                                   #  PIPAZ, PIPAY, PIPAX
000254: 06,3535           67752                          AD       NEG1
000255: 06,3536           13516                          TCF      1/GYRO     +1
000256: 06,3537           01471        LGCOMP            ECADR    GCOMP                                 #  LESS THAN ZERO IMPOSSIBLE
000257:
000258: 06,3540           33537                          CAF      LGCOMP
000259: 06,3541           04616                          TC       BANKCALL
000260: 06,3542           17314                          CADR     IMUPULSE                              #  CALL GYRO TORQUING ROUTINE
000261: 06,3543           04616                          TC       BANKCALL
000262: 06,3544           17707                          CADR     IMUSTALL                              #  WAIT FOR PULSES TO GET OUT
000263: 06,3545           15155                          TCF      ENDOFJOB                              #  TEMPORARY
000264:
000265: 06,3546           34751        GCOMP1            CAF      FOUR                                  #  PIPAZ, PIPAY, PIPAX
000266: 06,3547           54130                          TS       BUF
000267:
000268: 06,3550           50130                          INDEX    BUF                                   #  RESCALE
000269: 06,3551           31472                          CA       GCOMP      +1
000270: 06,3552           00006                          EXTEND
000271: 06,3553           74744                          MP       BIT8                                  #  SHIFT MINOR PART LEFT 7 -- MAJOR PART = 0
000272: 06,3554           50130                          INDEX    BUF
000273: 06,3555           23472                          LXCH     GCOMP      +1                         #  BITS 8-14 OF MINOR PART WERE = 0
000274:
000275: 06,3556           10130                          CCS      BUF                                   #  PIPAZ, PIPAY, PIPAX
000276: 06,3557           67752                          AD       NEG1
000277: 06,3560           13547                          TCF      GCOMP1     +1
000278: 06,3561           77776        COMPCHK           DEC      -1         B-14                       #  LESS THAN ZERO IMPOSSIBLE
000279: 06,3562           15155                          TCF      ENDOFJOB
000280:
000281:                                                                                                 #  Page 341
000282: 06,3563           11477        NBDONLY           CCS      GCOMPSW                               #  BYPASS IF GCOMPSW NEGATIVE
000283: 06,3564           13567                          TCF      +3
000284: 06,3565           13567                          TCF      +2
000285: 06,3566           15155                          TCF      ENDOFJOB
000286:
000287: 06,3567           00004                          INHINT
000288: 06,3570           10076                          CCS      FLAGWRD2                              #  PREREAD T3RUPT MAY COINCIDE
000289: 06,3571           15155                          TCF      ENDOFJOB
000290: 06,3572           15155                          TCF      ENDOFJOB
000291: 06,3573           13574                          TCF      +1
000292:
000293: 06,3574           30104                          CA       FLAGWRD8                              #  IF SURFACE FLAG IS SET, SET TEM1
000294: 06,3575           74744                          MASK     BIT8                                  #  POSITIVE SO THA THT EH ACCELERATION TERMS
000295: 06,3576           54141                          TS       TEM1                                  #  WILL BE COMPENSATED.
000296: 06,3577           00006                          EXTEND
000297: 06,3600           13603                          BZF      +3                                    #  ARE WE ON THE SURFACE
000298:
000299: 06,3601           04674                          TC       IBNKCALL                              #  ON THE SURFACE
000300: 06,3602           77541                          CADR     PIPASR     +3                         #  READ PIPAS, BUT DO NOT SCALE THEM
000301:
000302: 06,3603           30025                          CA       TIME1                                 #  (CS) X 2(+14)
000303: 06,3604           57074                          XCH      1/PIPADT                              #  PREVIOUS TIME
000304: 06,3605           00003                          RELINT
000305: 06,3606           40000                          COM
000306: 06,3607           61074                          AD       1/PIPADT                              #  PRESENT TIME - PREVIOUS TIME
000307: 06,3610           64736        NBD2              AD       HALF                                  #  CORRECT FOR POSSIBLE TIME1 TICK
000308: 06,3611           64736                          AD       HALF
000309: 06,3612           56001                          XCH      L                                     #  IF TIME1 DID NOT DICK, REMOVE RESULTING
000310: 06,3613           56001                          XCH      L                                     #  OVERFLOW.
000311:
000312: 06,3614           00006        NBD3              EXTEND                                         #  C(A) = DELTAT          (CS) X 2(+14)
000313: 06,3615           74742                          MP       BIT10                                 #  SHIFT RIGHT 5
000314: 06,3616           52125                          DXCH     VBUF       +2
000315:
000316: 06,3617           34755                          CA       ZERO
000317: 06,3620           55477                          TS       GCOMPSW                               #  INDICATE COMMANDS 2 PULSES OR LESS.
000318: 06,3621           54130                          TS       BUF                                   #  INDEX X, Y, Z.
000319:
000320: 06,3622           10141                          CCS      TEM1                                  #  IF SURFACE FLAG IS SET,
000321: 06,3623           03364                          TC       IRIGX                                 #  COMPENSATE ACCELERATION TERMS.
000322:
000323: 06,3624           00006                          EXTEND
000324: 06,3625           30125                          DCA      VBUF       +2
000325: 06,3626           52155                          DXCH     MPAC                                  #  DELTAT NOW SCALED (CS) X 2(+19)
000326:
000327: 06,3627           41460                          CS       NBDX                                  #  (GYRO PULSES)/(CS) X 2(-5)
000328: 06,3630           03652                          TC       FBIASSUB                              #  -(NBOX)(DELTAT)        (GYRO PULSES) X 2(+14)
000329:
000330: 06,3631           10141                          CCS      TEM1                                  #  IF SURFACE FLAG IS SET,
000331: 06,3632           03401                          TC       IRIGY                                 #  COMPENSAGE ACCELERATION TERMS.
000332:                                                                                                 #  Page 342
000333: 06,3633           00006                          EXTEND
000334: 06,3634           40125                          DCS      VBUF       +2
000335: 06,3635           52155                          DXCH     MPAC                                  #  DELTAT SCALED (CS) X 2(+19)
000336: 06,3636           31461                          CA       NBDY                                  #  (BYRO PULSES)/(CS) X 2(-5)
000337: 06,3637           03652                          TC       FBIASSUB                              #  -(NBDY)(DELTAT)        (GYRO PULSES) X 2(+14)
000338:
000339: 06,3640           10141                          CCS      TEM1                                  #  IF SURFACE FLAG IS SET,
000340: 06,3641           03416                          TC       IRIGZ                                 #  COMPENSATE ACCELERATION TERMS
000341:
000342: 06,3642           00006                          EXTEND
000343: 06,3643           40125                          DCS      VBUF       +2
000344: 06,3644           52155                          DXCH     MPAC                                  #  DELTAT SCALED (CS) X 2(+19)
000345: 06,3645           41462                          CS       NBDZ                                  #  (GYRO PULSES)/(CS) X 2(-5)
000346: 06,3646           03652                          TC       FBIASSUB                              #  +(NBDZ)(DELTAT)        (GYRO PULSES) X 2(+14)
000347:
000348: 06,3647           11477                          CCS      GCOMPSW                               #  ARE GYRO COMMANDS GREATER THAN 2 PULSES
000349: 06,3650           13515                          TCF      1/GYRO                                #  YES
000350: 06,3651           15155                          TCF      ENDOFJOB                              #  NO
000351:
000352:                                                                                                 #  Page 343
000353: 06,3652           56002        FBIASSUB          XCH      Q
000354: 06,3653           54131                          TS       BUF        +1
000355:
000356: 06,3654           30002                          CA       Q                                     #  NBD SCALED (GYRO PULSES)/(CS) X 2(-5)
000357: 06,3655           00006                          EXTEND
000358: 06,3656           70154                          MP       MPAC                                  #  DELTAT SCALED (CS) X 2(+19)
000359: 06,3657           50130                          INDEX    BUF
000360: 06,3660           21472                          DAS      GCOMP                                 #  HI(NBD)(DELTAT)        (GYRO PULSES) X 2(+14)
000361:
000362: 06,3661           30002                          CA       Q                                     #  NO FRACTIONAL PART
000363: 06,3662           00006                          EXTEND
000364: 06,3663           70155                          MP       MPAC       +1
000365: 06,3664           54001                          TS       L
000366: 06,3665           34755                          CAF      ZERO
000367: 06,3666           50130                          INDEX    BUF
000368: 06,3667           21472                          DAS      GCOMP                                 #  (NBD)(DELTAT)          (GYRO PULSES) X 2(+14)
000369:
000370: 06,3670           13502                          TCF      DRFTSUB2                              #  CHECK MAGNITUDE OF COMPENSATION
000371:
000372: 06,3671           04616        LASTBIAS          TC       BANKCALL
000373: 06,3672           17270                          CADR     PIPUSE1
000374:
000375: 06,3673           11477                          CCS      GCOMPSW
000376: 06,3674           13677                          TCF      +3
000377: 06,3675           13677                          TCF      +2
000378: 06,3676           15155                          TCF      ENDOFJOB
000379:
000380: 06,3677           30104                          CA       FLAGWRD8                              #  IF SURFACE FLAG IS SET, SET TEM1
000381: 06,3700           74744                          MASK     SURFFBIT                              #  POSITIVE SO THAT THE ACCELERATION TERMS
000382: 06,3701           54141                          TS       TEM1                                  #  WILL BE COMPENSATED.
000383:
000384: 06,3702           37721                          CAF      PRIO31                                #  2 SECONDS SCALED (CS) X 2(+8)
000385: 06,3703           57074                          XCH      1/PIPADT
000386: 06,3704           40000                          COM
000387: 06,3705           61234                          AD       PIPTIME    +1
000388: 06,3706           13610                          TCF      NBD2
000389:
000390: 06,3707           33537        GCOMPZER          CAF      LGCOMP                                #  ROUTINE TO ZERO GCOMP BEFORE FIRST
000391: 06,3710           56003                          XCH      EBANK                                 #  CALL TO 1/PIPA
000392: 06,3711           54163                          TS       MODE
000393:
000394: 06,3712           34755                          CAF      ZERO
000395: 06,3713           55477                          TS       GCOMPSW
000396: 06,3714           55471                          TS       GCOMP
000397: 06,3715           55472                          TS       GCOMP      +1
000398: 06,3716           55473                          TS       GCOMP      +2
000399: 06,3717           55474                          TS       GCOMP      +3
000400: 06,3720           55475                          TS       GCOMP      +4
000401:                                                                                                 #  Page 344
000402: 06,3721           55476                          TS       GCOMP      +5
000403:
000404: 06,3722           13361                          TCF      IRIG1                                 #  RESTORE EBANK AND RETURN
000405:

End of include-file IMU_COMPENSATION_PACKAGE.agc.  Parent file is MAIN.agc


