
Source Code


000002:                                                                                                  ## Copyright:   Public domain.
000003:                                                                                                  ## Filename:    INFLIGHT_ALIGNMENT_ROUTINES.agc
000004:                                                                                                  ## Purpose:     A section of Luminary 1C, revision 131.
000005:                                                                                                  ##              It is part of the source code for the Lunar Module's (LM)
000006:                                                                                                  ##              Apollo Guidance Computer (AGC) for Apollo 13.
000007:                                                                                                  ##              This file is intended to be a faithful transcription, except
000008:                                                                                                  ##              that the code format has been changed to conform to the
000009:                                                                                                  ##              requirements of the yaYUL assembler rather than the
000010:                                                                                                  ##              original YUL assembler.
000011:                                                                                                  ## Reference:   pp. 1241-1250
000012:                                                                                                  ## Contact:     Ron Burkey <info@sandroid.org>.
000013:                                                                                                  ## Website:     www.ibiblio.org/apollo/index.html
000014:                                                                                                  ## Mod history: 06/03/03 RSB.   Began transcribing.
000015:                                                                                                  ##              05/14/05 RSB.   Corrected website reference above.
000016:                                                                                                  ##              2017-01-06 RSB  Page numbers now agree with those on the
000017:                                                                                                  ##                              original hardcopy, as opposed to the PDF page
000018:                                                                                                  ##                              numbers in 1701.pdf.
000019:                                                                                                  ##              2017-02-27 RSB  Proofed comment text using octopus/ProoferComments.
000020:


000022: 22,3773                                           BANK     22
000023: 23,2000                                           SETLOC   INFLIGHT
000024: 23,2000                                           BANK
000025:
000026: 23,3251  E5,1642                                  EBANK=   XSM
000027:
000028:                                                                                                  #  CALCGTA COMPUTES THE GYRO TORQUE ANGLES REQUIRED TO BRING THE STABLE MEMBER INTO THE DESIRED ORIENTATION.
000029:
000030:                                                                                                  #  THE INPUT IS THE DESIRED STABLE MEMBER COORDINATES REFERRED TO PRESENT STABLE MEMBER COORDINATES.  THE THREE
000031:                                                                                                  #  HALF-UNIT VECTORS ARE STORED AT XDC, YDC, AND ZDC.
000032:
000033:                                                                                                  #  THE OUTPUTS ARE THE THREE GYRO TORQUING ANGLES TO BE APPLIED TO THE Y, Z, AND X GYROS AND ARE STORED DP AT IGC,
000034:                                                                                                  #  MGC, AND OGC RESPECTIVELY.
000035:
000036: 23,3251                                           COUNT*   $$/INFLT
000037: 23,3251           71220        CALCGTA            ITA      DLOAD                                 #  PUSHDOWN 00-03, 16D-27D, 34D-37D
000038: 23,3252           00051                                    S2                                    #  XDC = (XD1 XD2 XD3)
000039: 23,3253           02665                                    XDC                                   #  YDC = (YD1 YD2 YD3)
000040: 23,3254           65325                           PDDL     PDDL                                  #  ZDC = (ZD1 ZD2 ZD3)
000041: 23,3255           06524                                    HI6ZEROS
000042: 23,3256           02671                                    XDC        +4
000043: 23,3257           55476                           DCOMP    VDEF
000044: 23,3260           77656                           UNIT
000045: 23,3261           14027                           STODL    ZPRIME                                #  ZP = UNIT(-XD3 0 XD1) = (ZP1 ZP2 ZP3)
000046: 23,3262           00027                                    ZPRIME
000047:
000048: 23,3263           77742                           SR1
000049: 23,3264           14023                           STODL    SINTH                                 #  SIN(IGC) = ZP1
000050: 23,3265           00033                                    ZPRIME     +4
000051: 23,3266           77742                           SR1
000052: 23,3267           34021                           STCALL   COSTH                                 #  COS(IGC) = ZP3
000053: 23,3270           47322                                    ARCTRIG
000054:
000055: 23,3271           16742                           STODL    IGC                                   #  Y GYRO TORQUING ANGLE   FRACTION OF REV.
000056: 23,3272           02667                                    XDC        +2
000057: 23,3273           77742                           SR1
000058: 23,3274           14023                           STODL    SINTH                                 #  SIN(MGC) = XD2
000059: 23,3275           00027                                    ZPRIME
000060:
000061: 23,3276           65205                           DMP      PDDL
000062: 23,3277           02671                                    XDC        +4                         #  PD00 = (ZP1)(XD3)
000063: 23,3300           00033                                    ZPRIME     +4
000064:
000065: 23,3301           45205                           DMP      DSU
000066: 23,3302           02665                                    XDC                                   #  MPAC = (ZP3)(XD1)
000067: 23,3303           77626                           STADR
000068: 23,3304           43756                           STCALL   COSTH                                 #  COS(MGC) = MPAC - PD00
000069: 23,3305           47322                                    ARCTRIG


000071: 23,3306           26744                           STOVL    MGC                                   #  Z GYRO TORQUING ANGLE   FRACTION OF REV.
000072: 23,3307           00027                                    ZPRIME
000073: 23,3310           77641                           DOT
000074: 23,3311           02701                                    ZDC
000075: 23,3312           24021                           STOVL    COSTH                                 #  COS(OGC) = ZP . ZDC
000076: 23,3313           00027                                    ZPRIME
000077: 23,3314           77641                           DOT
000078: 23,3315           02673                                    YDC
000079: 23,3316           34023                           STCALL   SINTH                                 #  SIN(OGC) = ZP . YDC
000080: 23,3317           47322                                    ARCTRIG
000081:
000082: 23,3320           36740                           STCALL   OGC                                   #  X GYRO TORQUING ANGLE   FRACTION OF REV.
000083: 23,3321           00051                                    S2
000084:


000086:                                                                                                  #  ARCTRIG COMPUTES AN ANGLE GIVEN THE SINE AND COSINE OF THIS ANGLE.
000087:
000088:                                                                                                  #  THE INPUTS ARE SIN/4 AND COS/4 STORED UP AT SINTH AND COSTH.
000089:
000090:                                                                                                  #  THE OUTPUT IS THE CALCULATED ANGLE BETWEEN +.5 AND -.5 REVOLUTIONS AND STORED AT THETA.  THE OUTPUT IS ALSO
000091:                                                                                                  #  AVAILABLE AT MPAC.
000092:
000093: 23,3322           51545        ARCTRIG            DLOAD    ABS                                   #  PUSHDOWN  16D-21D
000094: 23,3323           00023                                    SINTH
000095: 23,3324           50025                           DSU      BMN
000096: 23,3325           07536                                    QTSN45                                #  ABS(SIN/4) - SIN(45)/4
000097: 23,3326           47335                                    TRIG1                                 #  IF (-45,45) OR (135,-135)
000098:
000099: 23,3327           72545                           DLOAD    SL1                                   #  (45,135) OR (-135,-45)
000100: 23,3330           00021                                    COSTH
000101: 23,3331           75326                           ACOS     SIGN
000102: 23,3332           00023                                    SINTH
000103: 23,3333           00025                           STORE    THETA                                 #  X = ARCCOS(COS) WITH SIGN(SIN)
000104: 23,3334           77616                           RVQ
000105:
000106: 23,3335           72545        TRIG1              DLOAD    SL1                                   #  (-45,45) OR (135,-135)
000107: 23,3336           00023                                    SINTH
000108: 23,3337           77736                           ASIN
000109: 23,3340           14025                           STODL    THETA                                 #  X = ARCSIN(SIN) WITH SIGN(SIN)
000110: 23,3341           00021                                    COSTH
000111: 23,3342           77640                           BMN
000112: 23,3343           47346                                    TRIG2                                 #  IF (135,-135)
000113:
000114: 23,3344           43545                           DLOAD    RVQ
000115: 23,3345           00025                                    THETA                                 #  X = ARCSIN(SIN)   (-45,45)
000116:
000117: 23,3346           75345        TRIG2              DLOAD    SIGN                                  #  (135,-135)
000118: 23,3347           06522                                    HIDPHALF
000119: 23,3350           00023                                    SINTH
000120: 23,3351           77625                           DSU
000121: 23,3352           00025                                    THETA
000122: 23,3353           00025                           STORE    THETA                                 #  X = .5 WITH SIGN(SIN) - ARCSIN(SIN)
000123: 23,3354           77616                           RVQ                                            #        (+) - (+) OR (-) - (-)
000124:


000126:                                                                                                  #  SMNB, NBSM, AND AXISROT, WHICH USED TO APPEAR HERE, HAVE BEEN
000127:                                                                                                  #  COMBINED IN A ROUTINE CALLED AX*SR*T, WHICH APPEARS AMONG THE POWERED
000128:                                                                                                  #  FLIGHT SUBROUTINES.
000129:


000131:                                                                                                  #  CALCGA COMPUTES THE CDU DRIVING ANGLES REQUIRED TO BRING THE STABLE MEMBER INTO THE DESIRED ORIENTATION.
000132:
000133:                                                                                                  #  THE INPUTS ARE  1) THE NAVIGATION BASE COORDINATES REFERRED TO ANY COORDINATE SYSTEM.  THE THREE HALF-UNIT
000134:                                                                                                  #  VECTORS ARE STORED AT XNB, YNB, AND ZNB.  2) THE DESIRED STABLE MEMBER COORDINATES REFERRED TO THE SAME
000135:                                                                                                  #  COORDINATE SYSTEM ARE STORED AT XSM, YSM, AND ZSM.
000136:
000137:                                                                                                  #  THE OUTPUTS ARE THE THREE CDU DRIVING ANGLES AND ARE STORED SP AT THETAD, THETAD +1, AND THETAD +2.
000138:
000139: 23,3355           77601        CALCGA             SETPD                                          #  PUSHDOWN 00-05, 16D-21D, 34D-37D
000140: 23,3356           00001                                    0
000141: 23,3357           47375                           VLOAD    VXV
000142: 23,3360           02665                                    XNB                                   #  XNB = OGA (OUTER GIMBAL AXIS)
000143: 23,3361           02651                                    YSM                                   #  YSM = IGA (INNER GIMBAL AXIS)
000144: 23,3362           41456                           UNIT     PUSH                                  #  PD0 = UNIT(OGA X IGA) = MGA
000145:
000146: 23,3363           44041                           DOT      ITA
000147: 23,3364           02701                                    ZNB
000148: 23,3365           00051                                    S2
000149: 23,3366           24021                           STOVL    COSTH                                 #  COS(OG) = MGA . ZNB
000150: 23,3367           00001                                    0
000151: 23,3370           77641                           DOT
000152: 23,3371           02673                                    YNB
000153: 23,3372           34023                           STCALL   SINTH                                 #  SIN(OG) = MGA . YNB
000154: 23,3373           47322                                    ARCTRIG
000155: 23,3374           26740                           STOVL    OGC
000156: 23,3375           00001                                    0
000157:
000158: 23,3376           50235                           VXV      DOT                                   #  PROVISION FOR MG ANGLE OF 90 DEGREES
000159: 23,3377           02665                                    XNB
000160: 23,3400           02651                                    YSM
000161: 23,3401           77752                           SL1
000162: 23,3402           24021                           STOVL    COSTH                                 #  COS(MG) = IGA . (MGA X OGA)
000163: 23,3403           02651                                    YSM
000164: 23,3404           77641                           DOT
000165: 23,3405           02665                                    XNB
000166: 23,3406           34023                           STCALL   SINTH                                 #  SIN(MG) = IGA . OGA
000167: 23,3407           47322                                    ARCTRIG
000168: 23,3410           02744                           STORE    MGC
000169:
000170: 23,3411           45246                           ABS      DSU
000171: 23,3412           07540                                    .166...
000172: 23,3413           77644                           BPL
000173: 23,3414           47433                                    GIMLOCK1                              #  IF ANGLE GREATER THAN 60 DEGREES
000174:
000175: 23,3415           50375        CALCGA1            VLOAD    DOT
000176: 23,3416           02657                                    ZSM
000177: 23,3417           00001                                    0
000178: 23,3420           24021                           STOVL    COSTH                                 #  COS(IG) = ZSM . MGA
000179: 23,3421           02643                                    XSM


000181: 23,3422           45441                           DOT      STADR
000182: 23,3423           43754                           STCALL   SINTH                                 #  SIN(IG) = XSM . MGA
000183: 23,3424           47322                                    ARCTRIG
000184:
000185: 23,3425           26742                           STOVL    IGC
000186: 23,3426           02740                                    OGC
000187: 23,3427           77634                           RTB
000188: 23,3430           21621                                    V1STO2S
000189: 23,3431           34322                           STCALL   THETAD
000190: 23,3432           00051                                    S2
000191:
000192: 23,3433           77776        GIMLOCK1           EXIT
000193: 23,3434           05567                           TC       ALARM
000194: 23,3435           00401                           OCT      00401
000195: 23,3436           05504                           TC       UPFLAG                                #  GIMBAL LOCK HAS OCCURED
000196: 23,3437           00056                           ADRES    GLOKFAIL
000197:
000198: 23,3440           06042                           TC       INTPRET
000199: 23,3441           77650                           GOTO
000200: 23,3442           47415                                    CALCGA1
000201:


000203:                                                                                                  #  AXISGEN COMPUTES THE COORDINATES OF ONE COORDINATE SYSTEM REFERRED TO ANOTHER COORDINATE SYSTEM.
000204:
000205:                                                                                                  #  THE INPUTS ARE  1) THE STAR1 VECTOR REFERRED TO COORDINATE SYSTEM A STORED AT STARAD.  2) THE STAR2 VECTOR
000206:                                                                                                  #  REFERRED TO COORDINATE SYSTEM A STORED AT STARAD +6.  3) THE STAR1 VECTOR REFERRED TO COORDINATE SYSTEM B STORED
000207:                                                                                                  #  AT LOCATION 6 OF THE VAC AREA.  4) THE STAR2 VECTOR REFERRED TO COORDINATE SYSTEM B STORED AT LOCATION 12D OF
000208:                                                                                                  #  THE VAC AREA.
000209:
000210:                                                                                                  #  THE OUTPUT DEFINES COORDINATE SYSTEM A REFERRED TO COORDINATE SYSTEM B.  THE THREE HALF-UNIT VECTORS ARE STORED
000211:                                                                                                  #  AT LOCATIONS XDC, XDC +6, XDC +12D, AND STARAD, STARAD +6, STARAD +12D.
000212:
000213: 23,3443           66370        AXISGEN            AXT,1    SSP                                   #  PUSHDOWN 00-30D, 34D-37D
000214: 23,3444           02714                                    STARAD     +6
000215: 23,3445           00051                                    S1
000216: 23,3446           02700                                    STARAD     -6
000217:
000218: 23,3447           77601                           SETPD
000219: 23,3450           00001                                    0
000220: 23,3451           46773        AXISGEN1           VLOAD*   VXV*                                  #  06D   UA = S1
000221: 23,3452           02723                                    STARAD     +12D,1                     #        STARAD +00D     UB = S1
000222: 23,3453           02731                                    STARAD     +18D,1
000223: 23,3454           77656                           UNIT                                           #  12D   VA = UNIT(S1 X S2)
000224: 23,3455           06731                           STORE    STARAD     +18D,1                     #        STARAD +06D     VB = UNIT(S1 X S2)
000225: 23,3456           77773                           VLOAD*
000226: 23,3457           02723                                    STARAD     +12D,1
000227:
000228: 23,3460           76433                           VXV*     VSL1
000229: 23,3461           02731                                    STARAD     +18D,1                     #  18D   WA = UA X VA
000230: 23,3462           06737                           STORE    STARAD     +24D,1                     #        STARAD +12D     WB = UB X VB
000231:
000232: 23,3463           77700                           TIX,1
000233: 23,3464           47451                                    AXISGEN1
000234:
000235: 23,3465           66160                           AXC,1    SXA,1
000236: 23,3466           00006                                    6
000237: 23,3467           00036                                    30D
000238:
000239: 23,3470           66370                           AXT,1    SSP
000240: 23,3471           00022                                    18D
000241: 23,3472           00051                                    S1
000242: 23,3473           00006                                    6
000243:
000244: 23,3474           66374                           AXT,2    SSP
000245: 23,3475           00006                                    6
000246: 23,3476           00052                                    S2
000247: 23,3477           00002                                    2
000248:
000249: 23,3500           76720        AXISGEN2           XCHX,1   VLOAD*
000250: 23,3501           00036                                    30D                                   #  X1=-6 X2=+6   X1=-6 X2=+4     X1=-6 X2=+2
000251: 23,3502           00001                                    0,1
000252:


000254: 23,3503           62757                           VXSC*    PDVL*                                 #  J=(UA)(UB1)   J=(UA)(UB2)     J=(UA)(UB3)
000255: 23,3504           75062                                    STARAD     +6,2
000256: 23,3505           00007                                    6,1
000257: 23,3506           77757                           VXSC*
000258: 23,3507           75054                                    STARAD     +12D,2
000259: 23,3510           30031                           STOVL*   24D                                   #  K=(VA)(VB1)   J=(VA)(VB2)     J=(VA)(VB3)
000260: 23,3511           00015                                    12D,1
000261:
000262: 23,3512           53357                           VXSC*    VAD
000263: 23,3513           75046                                    STARAD     +18D,2                     #  L=(WA)(WB1)   J=(WA)(WB2)     J=(WA)(WB3)
000264: 23,3514           76455                           VAD      VSL1
000265: 23,3515           00031                                    24D
000266: 23,3516           53520                           XCHX,1   UNIT
000267: 23,3517           00036                                    30D
000268: 23,3520           06707                           STORE    XDC        +18D,1                     #  XDC = L+J+K   YDC = L+J+K     ZDC = L+J+K
000269:
000270: 23,3521           77700                           TIX,1
000271: 23,3522           47523                                    AXISGEN3
000272:
000273: 23,3523           77704        AXISGEN3           TIX,2
000274: 23,3524           47500                                    AXISGEN2
000275:
000276: 23,3525           77775                           VLOAD
000277: 23,3526           02665                                    XDC
000278: 23,3527           26707                           STOVL    STARAD
000279: 23,3530           02673                                    YDC
000280: 23,3531           26715                           STOVL    STARAD     +6
000281: 23,3532           02701                                    ZDC
000282: 23,3533           02723                           STORE    STARAD     +12D
000283:
000284: 23,3534           77616                           RVQ
000285:


000287: 23,3535           05520 26075  QTSN45             2DEC     .1768
000288: 23,3537           05252 25253  .166...            2DEC     .1666666667
000289:


End of include-file INFLIGHT_ALIGNMENT_ROUTINES.agc.  Parent file is MAIN.agc


