
Source Code


000002:                                                                                                  #  Copyright:    Public domain.
000003:                                                                                                  #  Filename:     INTER-BANK_COMMUNICATION.agc
000004:                                                                                                  #  Purpose:      A section of Luminary 1C, revision 131.
000005:                                                                                                  #                It is part of the source code for the Lunar Module's (LM)
000006:                                                                                                  #                Apollo Guidance Computer (AGC) for Apollo 13 and Apollo 14.
000007:                                                                                                  #                This file is intended to be a faithful transcription, except
000008:                                                                                                  #                that the code format has been changed to conform to the
000009:                                                                                                  #                requirements of the yaYUL assembler rather than the
000010:                                                                                                  #                original YUL assembler.
000011:                                                                                                  #  Reference:    pp. 997-1000 of 1729.pdf.
000012:                                                                                                  #  Contact:      Ron Burkey <info@sandroid.org>.
000013:                                                                                                  #  Website:      www.ibiblio.org/apollo/index.html
000014:                                                                                                  #  Mod history:  05/30/03 RSB.   Began transcribing.
000015:                                                                                                  #                05/14/05 RSB    Corrected website reference above.
000016:                                                                                                  #                2011-05-07 JL   Removed workaround.
000017:
000018:                                                                                                  #  Page 997
000019:                                                                                                  #  THE FOLLOWING ROUTINE CAN BE USED TO CALL A SUBROUTINE IN ANOTHER BANK. IN THE BANKCALL VERSION, THE
000020:                                                                                                  #  CADR OF THE SUBROUTINE IMMEDIATELY FOLLOWS THE TC BANKCALL INSTRUCTION, WITH C(A) AND C(L) PRESERVED.
000021:
000022:    4616                                           BLOCK    02
000023:    4616                                           COUNT*   $$/BANK
000024:    4616           52134        BANKCALL           DXCH     BUF2                                  #  SAVE INCOMING A,L.
000025:    4617           50002                           INDEX    Q                                     #  PICK UP CADR.
000026:    4620           30000                           CA       0
000027:    4621           24002                           INCR     Q                                     #  SO WE RETURN TO THE LOC. AFTER THE CADR.
000028:
000029:                                                                                                  #  SWCALL IS  IDENTICAL TO BANKCALL, EXCEPT THAT THE CADR ARRIVES IN A.
000030:
000031:    4622           54001        SWCALL             TS       L
000032:    4623           22004                           LXCH     FBANK                                 #  SWITCH BANKS, SAVING RETURN.
000033:    4624           75012                           MASK     LOW10                                 #  GET SUB-ADDRESS OF CADR.
000034:    4625           56002                           XCH      Q                                     #  A,L NOW CONTAINS DP RETURN.
000035:    4626           52134                           DXCH     BUF2                                  #  RESTORING INPUTS IF THIS IS A BANKCALL.
000036:    4627           50002                           INDEX    Q
000037:    4630           02000                           TC       10000
000038:
000039:    4631           56134        SWRETURN           XCH      BUF2       +1                         #  COMES HERE TO RETURN TO CALLER. C(A,L)
000040:    4632           56004                           XCH      FBANK                                 #  ARE PRESERVED FOR RETURN.
000041:    4633           56134                           XCH      BUF2       +1
000042:    4634           00133                           TC       BUF2
000043:
000044:                                                                                                  #  THE FOLLOWING ROUTINE CAN BE USED AS A UNILATERAL JUMP WITH C(A,L) PRESERVED AND THE CADR IMMEDIATELY
000045:                                                                                                  #  FOLLOWING THE TC POSTJUMP INSTRUCTION.
000046:
000047:    4635           56002        POSTJUMP           XCH      Q                                     #  SAVE INCOMING C(A).
000048:    4636           50000                           INDEX    A                                     #  GET CADR.
000049:    4637           30000                           CA       0
000050:
000051:                                                                                                  #  BANKJUMP IS THE SAME AS POSTJUMP, EXCEPT THAT THE CADR ARRIVES IN A.
000052:
000053:    4640           54004        BANKJUMP           TS       FBANK
000054:    4641           75012                           MASK     LOW10
000055:    4642           56002                           XCH      Q                                     #  RESTORING INPUT C(A) IF THIS WAS A
000056:    4643           50002        Q+10000            INDEX    Q                                     #  POSTJUMP.
000057:    4644           12000        PRIO12             TCF      10000                                 #  PRIO12 = TCF  10000 = 12000
000058:
000059:                                                                                                  #  Page 998
000060:                                                                                                  #  THE FOLLOWING ROUTINE GETS THE RETURN CADR SAVED BY SWCALL OR BANKCALL AND LEAVES IT IN A.
000061:
000062:    4645           35012        MAKECADR           CAF      LOW10
000063:    4646           70133                           MASK     BUF2
000064:    4647           60134                           AD       BUF2       +1
000065:    4650           00002                           TC       Q
000066:
000067:    4651           54135        SUPDACAL           TS       MPTEMP
000068:    4652           56004                           XCH      FBANK                                 #  SET FBANK FOR DATA.
000069:    4653           00006                           EXTEND
000070:    4654           04007                           ROR      SUPERBNK                              #  SAVE FBANK IN BITS 15-11, AND
000071:    4655           56135                           XCH      MPTEMP                                #  SUPERBANK IN BITS 7-5.
000072:    4656           75012                           MASK     LOW10
000073:    4657           56001                           XCH      L                                     #  SAVE REL. ADR. IN BANK, FETCH SUPERBITS
000074:    4660           00004                           INHINT                                         #  BECAUSE RUPT DOES NOT SAVE SUPERBANK.
000075:    4661           00006                           EXTEND
000076:    4662           01007                           WRITE    SUPERBNK                              #  SET SUPERBANK FOR DATA.
000077:    4663           50001                           INDEX    L
000078:    4664           32000                           CA       10000                                 #  PINBALL (FIX MEM DISP) PREVENTS DCA HERE
000079:    4665           56135                           XCH      MPTEMP                                #  SAVE 1ST WD, FETCH OLD FBANK AND SBANK.
000080:    4666           00006                           EXTEND
000081:    4667           01007                           WRITE    SUPERBNK                              #  RESTORE SUPERBANK.
000082:    4670           00003                           RELINT
000083:    4671           54004                           TS       FBANK                                 #  RESTORE FBANK.
000084:    4672           30135                           CA       MPTEMP                                #  RECOVER FIRST WORD OF DATA.
000085:    4673           00002                           RETURN                                         #  24 WDS. DATACALL 516 MU, SUPDACAL 432 MU
000086:
000087:                                                                                                  #  Page 999
000088:                                                                                                  #  THE FOLLOWING ROUTINES ARE IDENTICAL TO BANKCALL AND SWCALL EXCEPT THAT THEY ARE USED IN INTERRUPT.
000089:
000090:    4674           52073        IBNKCALL           DXCH     RUPTREG3                              #  USES RUPTREG3,4 FOR DP RETURN ADDRESS.
000091:    4675           50002                           INDEX    Q
000092:    4676           30000                           CAF      0
000093:    4677           24002                           INCR     Q
000094:
000095:    4700           54001        ISWCALLL           TS       L
000096:    4701           22004                           LXCH     FBANK
000097:    4702           75012                           MASK     LOW10
000098:    4703           56002                           XCH      Q
000099:    4704           52073                           DXCH     RUPTREG3
000100:    4705           50002                           INDEX    Q
000101:    4706           02000                           TC       10000
000102:
000103:    4707           56073        ISWRETRN           XCH      RUPTREG4
000104:    4710           56004                           XCH      FBANK
000105:    4711           56073                           XCH      RUPTREG4
000106:    4712           00072                           TC       RUPTREG3
000107:
000108:                                                                                                  #  2. USPRCADR ACCESSES INTERPRETIVE CODING IN OTHER THAN THE USER'S FBANK.  THE CALLING SEQUENCE IS AS FOLLOWS:
000109:                                                                                                  #        L       TC      USPRCADR
000110:                                                                                                  #        L+1     CADR    INTPRETX        # INTPRETX IS THE INTERPRETIVE CODING
000111:                                                                                                  #                                        # RETURN IS TO L+2
000112:
000113:    4713           54164        USPRCADR           TS       LOC                                   #  SAVE A
000114:    4714           34744                           CA       BIT8
000115:    4715           54023                           TS       EDOP                                  #  EXIT INSTRUCTION TO EDOP
000116:    4716           30006                           CA       BBANK
000117:    4717           54165                           TS       BANKSET                               #  USER'S BBANK TO BANKSET
000118:    4720           50002                           INDEX    Q
000119:    4721           30000                           CA       0
000120:    4722           54004                           TS       FBANK                                 #  INTERPRETIVE BANK TO FBANK
000121:    4723           75012                           MASK     LOW10                                 #  YIELDS INTERPRETIVE RELATIVE ADDRESS
000122:    4724           56002                           XCH      Q                                     #  INTERPRETIVE ADDRESS TO Q, FETCHING L+1
000123:    4725           56164                           XCH      LOC                                   #  L+1 TO LOC, RETRIEVING ORIGINAL A
000124:    4726           14643                           TCF      Q+10000
000125:
000126:                                                                                                  #  Page 1000
000127:                                                                                                  #  THERE ARE FOUR POSSIBLE SETTINGS FOR CHANNEL 07.  (CHANNEL 07 CONTAINS SUPERBANK SETTING.)
000128:
000129:                                                                                                  #                                        PSEUDO-FIXED    OCTAL PSEUDO
000130:                                                                                                  #  SUPERBANK     SETTING S-REG. VALUE    BANK NUMBERS    ADDRESSES
000131:                                                                                                  #  ---------     ------- ------------    ------------    ---------
000132:                                                                                                  #  SUPERBANK 3     OXX    2000 - 3777       30 - 37       70000 - 107777         (WHERE XX CAN BE ANYTHING AND
000133:                                                                                                  #                                                                                WILL USUALLY BE SEEN AS 11)
000134:                                                                                                  #  SUPERBANK 4     100    2000 - 3777       40 - 47      110000 - 127777         (AS FAR AS IT CAN BE SEEN,
000135:                                                                                                  #                                                                                ONLY BANKS 40-43 WILL EVER BE
000136:                                                                                                  #                                                                                AND ARE PRESENTLY AVAILABLE)
000137:                                                                                                  #  SUPERBANK 5     101    2000 - 3777       50 - 57      130000 - 147777         (PRESENTLY NOT AVAILABLE TO
000138:                                                                                                  #                                                                                THE USER)
000139:                                                                                                  #  SUPERBANK 6     110    2000 - 3777       60 - 67      150000 - 167777         (PRESENTLY NOT AVAILABLE TO
000140:                                                                                                  #                                                                                THE USER)
000141:                                                                                                  #  *** THIS ROUTINE MAY BE CALLED BY ANY PROGRAM LOCATED IN BANKS 00 - 27.  I.E., NO PROGRAM LIVING IN ANY
000142:                                                                                                  #  SUPERBANK SHOULD USE SUPERSW. ***
000143:
000144:                                                                                                  #  SUPERSW MAY BE CALLED IN THIS FASHION:
000145:                                                                                                  #        CAF     ABBCON          WHERE -- ABBCON  BBCON  SOMETHING --
000146:                                                                                                  #        TCR     SUPERSW         (THE SUPERBNK BITS ARE IN THE BBCON)
000147:                                                                                                  #        ...       ...
000148:                                                                                                  #         .         .
000149:                                                                                                  #         .         .
000150:                                                                                                  #  OR IN THIS FASHION:
000151:                                                                                                  #        CAF     SUPERSET        WHERE SUPERSET IS ONE OF THE FOUR AVAILABLE
000152:                                                                                                  #        TCR     SUPERSW         SUPERBANK BIT CONSTANTS:
000153:                                                                                                  #        ...       ...                   SUPER011 OCTAL  60
000154:                                                                                                  #         .         .                    SUPER100 OCTAL 100
000155:                                                                                                  #         .         .                    SUPER101 OCTAL 120
000156:                                                                                                  #                                        SUPER110 OCTAL 140
000157:
000158:    4727           00006        SUPERSW            EXTEND
000159:    4730           01007                           WRITE    SUPERBNK                              #  WRITE BITS 7-6-5 OF THE ACCUMULATOR INTO
000160:                                                                                                  #  CHANNEL 07
000161:    4731           00002                           TC       Q                                     #  TC TO INSTRUCTION FOLLOWING
000162:                                                                                                  #        TC SUPERSW
000163:

End of include-file INTER-BANK_COMMUNICATION.agc.  Parent file is MAIN.agc


