
Source Code
000001:                                                                                                 #  Copyright:     Public domain.
000002:                                                                                                 #  Filename:      INTEGRATION_INITIALIZATION.agc
000003:                                                                                                 #  Purpose:       A section of Luminary 1C, revision 131.
000004:                                                                                                 #                 It is part of the source code for the Lunar Module's (LM)
000005:                                                                                                 #                 Apollo Guidance Computer (AGC) for Apollo 13 and Apollo 14.
000006:                                                                                                 #                 This file is intended to be a faithful transcription, except
000007:                                                                                                 #                 that the code format has been changed to conform to the
000008:                                                                                                 #                 requirements of the yaYUL assembler rather than the
000009:                                                                                                 #                 original YUL assembler.
000010:                                                                                                 #  Reference:     pp. 1203-1224 of 1729.pdf.
000011:                                                                                                 #  Contact:       Ron Burkey <info@sandroid.org>.
000012:                                                                                                 #  Website:       www.ibiblio.org/apollo/index.html
000013:                                                                                                 #  Mod history:   06/02/03 RSB.   Began transcribing.
000014:                                                                                                 #                 05/14/05 RSB.   Corrected website reference above.
000015:
000016:                                                                                                 #  Page 1203
000017:                                                                                                 #  1.0 INTRODUCTION
000018:                                                                                                 #  ----------------
000019:
000020:                                                                                                 #  FROM A USER'S POINT OF VIEW, ORBITAL INTEGRATION IS ESSENTIALLY THE SAME AS THE 278 INTEGRATION
000021:                                                                                                 #  PROGRAM.  THE SAME ENTRANCES TO THE PROGRAM WILL BE MAINTAINED, THE SAME STALLING ROUTINE WILL BE USED AND
000022:                                                                                                 #  OUTPUT WILL STILL BE VIA THE PUSHLIST.  THE PRIMARY DIFFERENCES TO A USER INVOLVE THE ADDED CAPABILITY OF
000023:                                                                                                 #  TERMINATING INTEGRATION AT A SPECIFIC FINAL RADIUS AND THE DIFFERENCE IN STATE VECTOR SCALING INSIDE AND OUTSIDE
000024:                                                                                                 #  THE LUNAR SPHERE OF INFLUENCE.
000025:
000026:                                                                                                 #  IN ORDER TO MAKE THE CSM(LEM)PREC AND CSM(LEM)CONIC ENTRANCES SIMILAR TO FLIGHT 278, THE INTEGRATION PROGRAM
000027:                                                                                                 #  WILL ITSELF SET THE FINAL RADIUS (RFINAL) TO 0 SO THAT REACHING THE DESIRED TIME ONLY WILL TERMINATE
000028:                                                                                                 #  INTEGRATION.  THE DP REGISTER RFINAL MUST BE SET BY USERS OF INTEGRVS AND INTEGRV, AND MUST BE DONE AFTER THE
000029:                                                                                                 #  CALL TC INTSTALL.
000030:
000031:                                                                                                 #  WHEN THE LM IS ON THE LUNAR SURFACE (INDICATED BY LUNAR SURFACE FLAG SET) CALLS TO LEMCONIC, LEMPREC, AND
000032:                                                                                                 #  INTEGRV WITH VINFLAG = 0 WILL RESULT IN THE USE OF THE PLANETARY INERTIAL ORIENTATION SUBROUTINES TO PROVIDE
000033:                                                                                                 #  BOTH THE LM'S POSITION AND VELOCITY IN THE REFERENCE COORDINATE SYSTEM.
000034:                                                                                                 #  THE PROGRAM WILL PROVIDE OUTPUT AS IF INTEGRATION WAS USED.  THAT IS, THE PUSHLIST WILL BE SET AS NOTED BELOW AND
000035:                                                                                                 #  THE PERMANENT STATE VECTOR UPDATED WHEN SPECIFIED BY AN INTEGRV CALL.
000036:
000037:                                                                                                 #  USERS OF INTEGRVS DESIRING INTEGRATION (INTYPFLG = 0) SHOULD NOTE THAT THE OBLATENESS PERTURBATION COMPUTATION
000038:                                                                                                 #  IN LUNAR ORBIT IS TIME DEPENDENT.  THEREFORE, THE USER SHOULD SUPPLY AN INITIAL STATE VECTOR VALID AT SOME REAL
000039:                                                                                                 #  TIME AND THE DESIRED TIME (TDEC1) ALSO AT SOME REAL TIME.  FOR CONIC "INTEGRATION" THE USER MAY STILL USE ZERO
000040:                                                                                                 #  AS THE INITIAL TIME AND DELTA TIME AS THE DESIRED TIME.
000041:
000042:                                                                                                 #  2.0 CENTRAL DESCRIPTION
000043:                                                                                                 #  -----------------------
000044:
000045:                                                                                                 #  THE INTEGRATION PROGRAM OPERATES AS A CLOSED INTERPRETIVE SUBROUTINE AND PERFORMS THESE FUNCTIONS --
000046:                                                                                                 #         1) INTEGRATES (PRECISION OR CONIC) EITHER CSM OR LM STATE VECTOR
000047:                                                                                                 #         2) INTEGRATES THE W-MATRIX
000048:                                                                                                 #         3) PERMANENT OR TEMPORARY UPDATE OF THE STATE VECTOR
000049:
000050:                                                                                                 #  THERE ARE SIX ENTRANCES TO THE INTEGRATION PROGRAM.  FOUR OF THESE (CSMPREC, LEMPREC, CSMCONIC, LEMCONIC) SET
000051:                                                                                                 #  ALL THE FLAGS REQUIRED IN THE INTEGRATION PROGRAM ITSELF TO CAUSE THE PRECISION OR CONIC INTEGRATION (KEPLER) OF
000052:                                                                                                 #  THE LM OR CSM STATE VECTOR, AS THE NAMES SUGGEST.  ONE ENTRANCE (INTEGRVS) PERMITS THE CALLING PROGRAM TO
000053:                                                                                                 #  PROVIDE A STATE VECTOR TO BE INTEGRATED.  THE CALLING PROGRAM MUST SET THE FLAGS INDICATING (1) PRECISION OR
000054:                                                                                                 #  CONIC INTEGRATION, (2) IN OR OUT OF LUNAR SPHERE, (3) MIDCOURSE OR NOT, AND THE INTEGRATION PROGRAM COMPLETES
000055:                                                                                                 #  THE FLAG SETTING TO BYPASS W-MATRIX INTEGRATION.  THE LAST ENTRANCE (INTEGRV, USED IN GENERAL BY THE
000056:                                                                                                 #  NAVIGATION PROGRAMS) PERMITS THE CALLER TO SET FIVE FLAGS (NOT MOONFLAG OR MIDFLAG) BUT NOT TO INPUT A STATE
000057:                                                                                                 #  VECTOR.  ANY PROGRAM WHICH CALLS INTEGRVS OR INTEGRV MUST CALL INTSTALL BEFORE IT SETS THE INTEGRATION FLAGS
000058:                                                                                                 #  AND/OR STATE VECTOR.
000059:
000060:                                                                                                 #  THREE SETS OF 42 REGISTERS AND 2 FLAGS ARE USED FOR THE STATE VECTORS.  TWO SETS, WHICH MAY NOT BE OVERLAYED, ARE
000061:                                                                                                 #  USED FOR THE PERMANENT STATE VECTORS FOR THE CSM AND LM.  THE THIRD SET, WHICH MAY BE OVERLAYED WHEN INTEGRATION
000062:                                                                                                 #  IS NOT BEING DONE, IS USED IN THE COMPUTATIONS.
000063:                                                                                                 #  THE PERMANENT STATE VECTORS WILL BE PERIODICALLY UPDATED SO THAT THE VECTORS WILL NOT BE ODER THAN 4 TIMESTEPS.
000064:                                                                                                 #  THE PERMANENT STATE VECTORS WILL ALSO BE UPDATED WHENEVER THE W-MATRIX IS INTEGRATED OR WHEN A CALLER OF INTEGRV
000065:                                                                                                 #  SETS STATEFLG (THE NAVIGATION PROGRAMS P20, P22.)
000066:
000067:                                                                                                 #  Page 1204
000068:                                                                                                 #  APPENDIX B OF THE USERS' GUIDE LISTS THE STATE VECTOR QUANTITIES.
000069:
000070:                                                                                                 #  2.1 RESTARTS
000071:
000072:                                                                                                 #  PHASE CHANGES WILL BE MADE IN THE INTEGRATION PROGRAM ONLY FOR THE INTEGRV ENTRANCE (I.E., WHEN THE W-MATRIX IS
000073:                                                                                                 #  INTEGRATED OR PERMANENT STATE VECTOR IS UPDATED.)  THE GROUP NUMBER USED WILL BE THAT FOR THE P20-25 PROGRAMS
000074:                                                                                                 #  (I.E., GROUP2) WINCE THE INTEGRV ENTRANCE WILL ONLY BE USED BY THESE PROGRAMS.  IF A RESTART OCCURS DURING AN
000075:                                                                                                 #  INTEGRATION OF THE STATE VECTOR ONLY, THE RECOVERY WILL BE TO THE LAST PHASE IN THE CALLING PROGRAM.  CALLING
000076:                                                                                                 #  PROGRAMS WHICH USE THE INTEGRV OR INTEGRVS ENTRANCE OF INTEGRATION WHOULD ENSURE THAT IF PHASE CHANGING IS DONE
000077:                                                                                                 #  THAT IT IS PRIOR TO SETTING THE INTEGRATION INPUTS IN THE PUSHLIST.
000078:
000079:                                                                                                 #  THIS IS BECAUSE THE PUSHLIST IS LOST DURING A RESTART.
000080:
000081:                                                                                                 #  2.2 SCALING
000082:
000083:                                                                                                 #  THE INTEGRATION ROUTIEN WILL MAINTAIN THE PERMANENT MEMORY STATE VECTORS IN THE SCALING AND UNITS DEFINED IN
000084:                                                                                                 #  APPENDIX B OF THE USERS' GUIDE.  THE SCALING OF THE OUTPUT POSITION VECTOR DEPENDS ON THE ORIGIN OF THE COORDINATE
000085:                                                                                                 #  SYSTEM AT THE DESIRED INTEGRATION TIME.  THE COORDINATE SYSTEM TRANSFORMATION WILL BE DONE AUTOMATICALLY ON
000086:                                                                                                 #  MULTIPLE TIMESTEP ENCKE INTEGRATION ONLY.  THUS IT IS POSSIBLE TO HAVE OUTPUT FROM SUCCESSIVE INTEGRATIONS IN
000087:                                                                                                 #  DIFFERENT SCALING.
000088:
000089:                                                                                                 #  HOWEVER, RATT, VATT WILL ALWAYS BE SCALED THE SAME.
000090:
000091:                                                                                                 #  3.0 INPUT/OUTPUT
000092:                                                                                                 #  ----------------
000093:
000094:                                                                                                 #  PROGRAM INPUTS ARE THE FLAGS DESCRIBED IN APPENDIX A AND THE PERMANENT STATE VECTOR QUANTITIES DESCRIBED IN
000095:                                                                                                 #  APPENDIX B OF THE USERS' GUIDE, PLUS THE DESIRED TIME TO INTEGRATE TO IN TDEC1 (A PUSH LIST LOCATION).
000096:                                                                                                 #  FOR INTEGRVS, THE RCV,VCV,TET OR THE TEMPORARY STATE VECTOR MUST BE SET, PLUS MOONFLAG AND MIDFLAG
000097:
000098:                                                                                                 #  FOR SIMULATION THE FOLLOWING QUANTITIES MUST BE PRESET ---
000099:                                                                                                 #                                                                                 EARTH   MOON
000100:                                                                                                 #                                                                                  29      27
000101:                                                                                                 #         RRECTCSM(LEM)           RECTIFIED POSITION VECTOR       METERS          2       2
000102:
000103:                                                                                                 #                                                                                  7       5
000104:                                                                                                 #         VRECTCSM(LEM)           RECTIFIED VELOCITY VECTOR       M/CSEC          2       2
000105:
000106:                                                                                                 #                                                                                  28      28
000107:                                                                                                 #         TETCSM(LEM)             TIME STATE VECTOR IS VALID      CSEC            2       2
000108:                                                                                                 #                                 CUSTOMARILY 0, BUT NOT LUNAR
000109:                                                                                                 #                                 ORBIT DEPENDENCE ON REAL TIME.
000110:
000111:                                                                                                 #                                                                                  22      18
000112:                                                                                                 #         DELTAVCSM(LEM)          POSITION DEVIATION              METERS          2       2
000113:                                                                                                 #                                 0 IF TCCSM(LEM) = 0
000114:
000115:                                                                                                 #                                                                                  3       -1
000116:                                                                                                 #         NUVCSM(LEM)             VELOCITY DEVIATION              M/CSEC          2       2
000117:                                                                                                 #                                 0 IF TCCSM(LEM) = 0
000118:                                                                                                 #  Page 1205
000119:                                                                                                 #                                                                                  29      27
000120:                                                                                                 #         RCVSM(LEM)              CONIC POSITION                  METERS          2       2
000121:                                                                                                 #                                 EQUALS RRECTCSM(LEM) IF
000122:                                                                                                 #                                 TCCSM(LEM) = 0
000123:
000124:                                                                                                 #                                                                                  7       5
000125:                                                                                                 #         VCVCSM(LEM)             CONIC VELOCITY                  M/CSEC          2       2
000126:                                                                                                 #                                 EQUALS VRECTCSM(LEM) IF
000127:                                                                                                 #                                 TCCSM(LEM) = 0
000128:
000129:                                                                                                 #                                                                                  28      28
000130:                                                                                                 #         TCCSM(LEM)              TIME SINCE RECTIFICATION        CSECS           2       2
000131:                                                                                                 #                                 CUSTOMARILY 0
000132:
000133:                                                                                                 #                                                                  1/2             17      16
000134:                                                                                                 #         XKEPCSM(LEM)            RDOT OF KEPLER'S EQUATION       M               2       2
000135:                                                                                                 #                                 0 IF TCCSM(LEM) = 0
000136:
000137:                                                                                                 #         CMOONFLG                PERMANENT FLAGS CORRESPONDING                   0       0
000138:                                                                                                 #         CMIDFLAG                TO MOONFLAG AND MIDFLAG                         0,1     0,1
000139:                                                                                                 #         LMOONFLG                C = CSM, L = LM                                 0       0
000140:                                                                                                 #         LMIDFLG                                                                 0,1     0,1
000141:
000142:                                                                                                 #         SURFFLAG                LUNAR SURFACE FLAG                              0,1     0,1
000143:
000144:                                                                                                 #  IN ADDITION, IF (L)CMIDFLAG IS SET, THE INITIAL INPUT VALUES FOR LUNAR
000145:                                                                                                 #  SOLAR EPHEMERIDES SUBROUTINE AND PLANETARY INERTIAL ORIENTATION SUB-
000146:                                                                                                 #  ROUTINE MUST BE PRESET.
000147:
000148:                                                                                                 #  OUTPUT
000149:                                                                                                 #         AFTER EVERY CALL TO INTEGRATION
000150:                                                                                                 #                                                                         EARTH   MOON
000151:                                                                                                 #                                                                          29      29
000152:                                                                                                 #         0D      RATT    POSITION                        METERS          2       2
000153:
000154:                                                                                                 #                                                                          7       7
000155:                                                                                                 #         6D      VATT    VELOCITY                        M/CSEC          2       2
000156:
000157:                                                                                                 #                                                                          28      28
000158:                                                                                                 #         12D     TAT     TIME                                            2       2
000159:
000160:                                                                                                 #                                                                          29      27
000161:                                                                                                 #         14D     RATT1   POSITION                        METERS          2       2
000162:
000163:                                                                                                 #                                                                          7       5
000164:                                                                                                 #         20D     VATT1   VELOCITY                        M/CSEC          2       2
000165:
000166:                                                                                                 #                                                          3   2           36      30
000167:                                                                                                 #         26D     MU(P)   MU                              M /CS           2       2
000168:
000169:                                                                                                 #         X1              MUTABLE ENTRY                                   -2      -10D
000170:
000171:                                                                                                 #         X2              COORDINT
000172:                                                                                                 #         X2              COORDINATE SYSTEM ORIGIN                        0       2
000173:                                                                                                 #                         (THIS, NOT MOONFLAG, SHOULD BE
000174:                                                                                                 #  Page 1206
000175:                                                                                                 #                         USED TO DETERMINE ORIGIN.)
000176:
000177:                                                                                                 #  IN ADDITION TO THE ABOVE, THE PERMANENT STATE VECTOR IS UPDATED WHENEVER
000178:                                                                                                 #  STATEFLG WAS SET AND WHENEVER A W-MATRIX IS TO BE INTEGRATED.  THE PUSH
000179:                                                                                                 #  COUNTER IS SET TO 0 AND OVERFLOW IS CLEARED BEFORE RETURNING TO THE
000180:                                                                                                 #  CALLING PROGRAM.
000181:
000182:                                                                                                 #  4.0 CALLING SEQUENCES AND SAMPLE CODE
000183:                                                                                                 #  -------------------------------------
000184:
000185:                                                                                                 #         A) PRECISION ORBITAL INTEGRATION.  CSMPREC, LEMPREC ENTRANCES
000186:                                                                                                 #                 L-X     STORE TIME TO 96T5791T5 T 95 PUS L9ST (T4531)
000187:                                                                                                 #                 L       CALL
000188:                                                                                                 #                 L+1             CSMPREC (OR LEMPREC)
000189:                                                                                                 #                 L+2     RETURN
000190:                                                                                                 #            INPUT                                                           28
000191:                                                                                                 #                 TDEC1 (PD 32D) TIME TC INTEGRATE TO...CENTISECONDS SCALED 2
000192:                                                                                                 #            OUTPUT
000193:                                                                                                 #                 THE DATA LISTED IN SECTION 3.2 PLUS
000194:                                                                                                 #                 RQVV    POSITION VECTOR OF VEHICLE WITH RESPECT TO SECONDARY
000195:                                                                                                 #                 BODY... METERS B-29 ONLY IF MIDFLAG = DIM0FLAG = 1
000196:                                                                                                 #         B) CONIC INTEGRATION.  CSMCONIC, LEMCONIC ENTRANCES
000197:                                                                                                 #                 L-X     STORE TIME IN PUSH LIST (TDEC1)
000198:                                                                                                 #                 L       CALL
000199:                                                                                                 #                 L+1             CSMCONIC (OR LEMCONIC)
000200:                                                                                                 #            INPUT/OUTPUT
000201:                                                                                                 #                 SAME AS PRECISION INTEGRATION, EXCEPT RQVV NOT SET
000202:                                                                                                 #         C) INTEGRATE GIVEN STATE VECTOR.  INTEGRVS ENTRANCE
000203:                                                                                                 #                 CALL
000204:                                                                                                 #                                 INTSTALL
000205:                                                                                                 #                 VLOAD
000206:                                                                                                 #                                 POSITION VECTOR
000207:                                                                                                 #                 STODL           VCV
000208:                                                                                                 #                                 TIME STATE VECTOR VALID
000209:                                                                                                 #                 STODL           TET
000210:                                                                                                 #                                 FINAL RADIUS
000211:                                                                                                 #                 STORE           RFINAL
000212:                                                                                                 #                 SET(CLEAR)      SET(CLEAR)
000213:                                                                                                 #                                 INTYPFLAG
000214:                                                                                                 #                                 MOONFLAG
000215:                                                                                                 #                 SET(CLEAR)      DLOAD
000216:                                                                                                 #                                 DESIRED TIME
000217:                                                                                                 #                 STCALL          TDEC1
000218:                                                                                                 #                                 INTEGRVS
000219:                                                                                                 #           INPUT
000220:                                                                                                 #                 RCV     POSITION VECTOR                 METERS
000221:                                                                                                 #                 VCV     VELOCITY VECTOR                 M/CSEC
000222:                                                                                                 #                 TET     TIME OF STATE VECTOR (MAY = 0)  CSEC B-28
000223:                                                                                                 #  Page 1207
000224:                                                                                                 #                 TDEC1   TIME TO INTEGRATE TO            CSEC B-28 (PD 32D)
000225:                                                                                                 #                         (MAY BE INCREMENT IF TET=0)
000226:                                                                                                 #           OUTPUT
000227:                                                                                                 #                 SAME AS FOR PRECISION OR CONIC INTEGRATION,
000228:                                                                                                 #                 DEPENDING ON INTYPFLG.
000229:                                                                                                 #         D) INTEGRATE STATE VECTOR.  INTGRV ENTRANCE
000230:                                                                                                 #                 L-X     STORE TIME IN PUSH LIST (TDEC1) (MAY BE DONE AFTER CALL TO INTSTALL)
000231:                                                                                                 #                 L-8     CALL
000232:                                                                                                 #                 L-7
000233:                                                                                                 #                 L-6     SET(CLEAR)      SET(CLEAR)
000234:                                                                                                 #                 L-5                     VINTFLAG        1=CSM, 0=LM
000235:                                                                                                 #                 L-4                     INTYPFLAG       1=CONIC, 0=PRECISION
000236:                                                                                                 #                 L-3     SET(CLEAR)      SET(CLEAR)
000237:                                                                                                 #                 L-2                     DIM0FLAG        1=W-MATRIX, 0=NO W-MATRIX
000238:                                                                                                 #                 L-1                     D6OR9FLG        1=9X9, 0=6X6
000239:                                                                                                 #                 L       SET             DLOAD
000240:                                                                                                 #                 L+1                     STATEFLG        DESIRE PERMANENT UPDATE
000241:                                                                                                 #                 L+2                     FINAL RAD.      OF STATE VECTOR
000242:                                                                                                 #                 L+3     STCALL          RFINAL
000243:                                                                                                 #                 L+4                     INTEGRV
000244:                                                                                                 #                 L       CALL                            NORMAL USE -- WILL UPDATE STATE
000245:                                                                                                 #                 L+1                     INTEGRV         VECTOR IF DIM0FLAG=1. (STATEFLG IS
000246:                                                                                                 #                 L+2     RETURN                          ALWAYS RESET IN INTEGRATION AFTER
000247:                                                                                                 #                                                         IT USED.)
000248:                                                                                                 #           INPUT
000249:                                                                                                 #                 TDEC1 (PD 32D) TIME TO INTEGRATE TO     CSEC B-28
000250:                                                                                                 #           OUTPUT
000251:                                                                                                 #                 SAME AS FOR PRECISION OR CONIC INTEGRATION
000252:                                                                                                 #           THE PROGRAM WILL SET MOONFLAG, MIDFLAG DEPENDING ON
000253:                                                                                                 #           THE PERMANENT STATE VECTOR REPRESENTATION.
000254:
000255: 11,2404                                          BANK     11
000256: 13,2000                                          SETLOC   INTINIT
000257: 13,2000                                          BANK
000258: 13,2602  E3,1554                                 EBANK=   RRECTCSM
000259: 13,2602                                          COUNT*   $$/INTIN
000260: 13,2602           05353        STATEINT          TC       PHASCHNG
000261: 13,2603           00052                          OCT      00052
000262: 13,2604           35017                          CAF      PRIO5
000263: 13,2605           05105                          TC       FINDVAC
000264: 13,2606  E3,1554                                 EBANK=   RRECTCSM
000265: 13,2606           02611 26063                    2CADR    STATINT1
000266:
000267: 13,2610           05261                          TC       TASKOVER
000268: 13,2611           06042        STATINT1          TC       INTPRET
000269: 13,2612           47014                          BON      RTB
000270: 13,2613           04712                                   QUITFLAG                              #  KILL INTEGRATION UNTIL NEXT P00.
000271: 13,2614           26652                                   NOINT
000272: 13,2615           21574                                   LOADTIME
000273: 13,2616           00041                          STORE    TDEC1
000274:                                                                                                 #  Page 1208
000275: 13,2617           77624                          CALL
000276: 13,2620           27410                                   INTSTALL
000277: 13,2621           45014                          SET      CALL
000278: 13,2622           01076                                   NODOFLAG
000279: 13,2623           26643                                   SETIFLGS
000280: 13,2624           52014                          SET      GOTO
000281: 13,2625           01460                                   P00HFLAG
000282: 13,2626           26026                                   STATEUP
000283: 13,2627           00003 25140  600SECS           2DEC     60000      B-28
000284:
000285: 13,2631           77414        ENDINT            CLEAR    EXIT
000286: 13,2632           01672                                   STATEFLG
000287: 13,2633           05353                          TC       PHASCHNG
000288: 13,2634           20032                          OCT      20032
000289: 13,2635           00006                          EXTEND
000290: 13,2636           32630                          DCA      600SECS
000291: 13,2637           05277                          TC       LONGCALL
000292: 13,2640  E3,1626                                 EBANK=   RRECTHIS
000293: 13,2640           02602 26063                    2CADR    STATEINT
000294:
000295: 13,2642           05155                          TC       ENDOFJOB
000296: 13,2643           43014        SETIFLGS          SET      CLEAR
000297: 13,2644           01472                                   STATEFLG
000298: 13,2645           01673                                   INTYPFLG
000299: 13,2646           43014                          CLEAR    CLEAR
000300: 13,2647           01676                                   DIM0FLAG
000301: 13,2650           01675                                   D6OR9FLG
000302: 13,2651           77616                          RVQ
000303: 13,2652           77776        NOINT             EXIT
000304: 13,2653           05353                          TC       PHASCHNG
000305: 13,2654           00002                          OCT      00002
000306:
000307: 13,2655           05516                          TC       DOWNFLAG
000308: 13,2656           00221                          ADRES    QUITFLAG
000309: 13,2657           05155                          TC       ENDOFJOB
000310:
000311:                                                                                                 #  ATOPCSM TRANSFERS RRECT TO RRECT +41 TO RRECTCSM TO RRECTCSM +41
000312:
000313:                                                                                                 #  CALLING SEQUENCE
000314:                                                                                                 #         L       CALL
000315:                                                                                                 #         L+1             ATOPCSM
000316:
000317:                                                                                                 #  NORMAL EXIT AT L+2
000318:
000319: 13,2660           47020        ATOPCSM           STQ      RTB
000320: 13,2661           00051                                   S2
000321: 13,2662           26673                                   MOVEACSM
000322: 13,2663           45014                          SET      CALL
000323: 13,2664           04063                                   CMOONFLG
000324: 13,2665           26114                                   SVDWN1
000325:                                                                                                 #  Page 1209
000326: 13,2666           43014                          BON      CLRGO
000327: 13,2667           00303                                   MOONFLAG
000328: 13,2670           00051                                   S2
000329: 13,2671           04223                                   CMOONFLG
000330: 13,2672           00051                                   S2
000331: 13,2673           03035        MOVEACSM          TC       SETBANK
000332: 13,2674           55500                          TS       DIFEQCNT                              #  INITIALIZE INDEX
000333: 13,2675           51500                          INDEX    DIFEQCNT
000334: 13,2676           31502                          CA       RRECT
000335: 13,2677           51500                          INDEX    DIFEQCNT
000336: 13,2700           55554                          TS       RRECTCSM
000337: 13,2701           11500                          CCS      DIFEQCNT                              #  IS TRANSFER COMPLETE
000338: 13,2702           12674                          TCF      MOVEACSM   +1                         #  NO-LOOP
000339: 13,2703           06064                          TC       DANZIG                                #  COMPLETE -- RETURN
000340:
000341:                                                                                                 #  PTOACSM TRANSFERS RRECTCSM TO RRECTCSM +41 TO RRECT TO RRECT +41
000342:
000343:                                                                                                 #  CALLING SEQUENCE
000344:                                                                                                 #         L       CALL
000345:                                                                                                 #                         PTOACSM
000346:
000347:                                                                                                 #  NORMAL EXIT AT L+2
000348:
000349: 13,2704           43034        PTOACSM           RTB      BON
000350: 13,2705           26722                                   MOVEPCSM
000351: 13,2706           04303                                   CMOONFLG
000352: 13,2707           26715                                   SETMOON
000353: 13,2710           66214        CLRMOON           CLEAR    SSP
000354: 13,2711           00263                                   MOONFLAG
000355: 13,2712           02031                                   PBODY
000356: 13,2713           00000                                   0
000357: 13,2714           77616                          RVQ
000358: 13,2715           66214        SETMOON           SET      SSP
000359: 13,2716           00063                                   MOONFLAG
000360: 13,2717           02031                                   PBODY
000361: 13,2720           00002                                   2
000362: 13,2721           77616                          RVQ
000363: 13,2722           03035        MOVEPCSM          TC       SETBANK
000364: 13,2723           55500                          TS       DIFEQCNT
000365: 13,2724           51500                          INDEX    DIFEQCNT
000366: 13,2725           31554                          CA       RRECTCSM
000367: 13,2726           51500                          INDEX    DIFEQCNT
000368: 13,2727           55502                          TS       RRECT
000369: 13,2730           11500                          CCS      DIFEQCNT
000370: 13,2731           12723                          TCF      MOVEPCSM   +1
000371: 13,2732           06064                          TC       DANZIG
000372:
000373:                                                                                                 #  ATOPLEM TRANSFERS RRECT TO RRECT +41 TO RRECTLEM TO RRECTLEM +41
000374:                                                                                                 #  Page 1210
000375: 13,2733           47020        ATOPLEM           STQ      RTB
000376: 13,2734           00051                                   S2
000377: 13,2735           26746                                   MOVEALEM
000378: 13,2736           45014                          SET      CALL
000379: 13,2737           04064                                   LMOONFLG
000380: 13,2740           26070                                   SVDWN2
000381: 13,2741           43014                          BON      CLRGO
000382: 13,2742           00303                                   MOONFLAG
000383: 13,2743           00051                                   S2
000384: 13,2744           04224                                   LMOONFLG
000385: 13,2745           00051                                   S2
000386: 13,2746           03035        MOVEALEM          TC       SETBANK
000387: 13,2747           55500                          TS       DIFEQCNT
000388: 13,2750           51500                          INDEX    DIFEQCNT
000389: 13,2751           31502                          CA       RRECT
000390: 13,2752           51500                          INDEX    DIFEQCNT
000391: 13,2753           55626                          TS       RRECTLEM
000392: 13,2754           11500                          CCS      DIFEQCNT
000393: 13,2755           12747                          TCF      MOVEALEM   +1
000394: 13,2756           06064                          TC       DANZIG
000395:
000396:                                                                                                 #  PTOALEM TRANSFERS RRECTLEM TO RRECTLEM +41 TO RRECT TO RRECT +41
000397:
000398: 13,2757           47014        PTOALEM           BON      RTB
000399: 13,2760           04307                                   SURFFLAG
000400: 13,2761           27000                                   USEPIOS
000401: 13,2762           26767                                   MOVEPLEM
000402: 13,2763           52014                          BON      GOTO
000403: 13,2764           04304                                   LMOONFLG
000404: 13,2765           26715                                   SETMOON
000405: 13,2766           26710                                   CLRMOON
000406: 13,2767           03035        MOVEPLEM          TC       SETBANK
000407: 13,2770           55500                          TS       DIFEQCNT
000408: 13,2771           51500                          INDEX    DIFEQCNT
000409: 13,2772           31626                          CA       RRECTLEM
000410: 13,2773           51500                          INDEX    DIFEQCNT
000411: 13,2774           55502                          TS       RRECT
000412: 13,2775           11500                          CCS      DIFEQCNT
000413: 13,2776           12770                          TCF      MOVEPLEM   +1
000414: 13,2777           06064                          TC       DANZIG
000415:
000416: 13,3000           77201        USEPIOS           SETPD    VLOAD
000417: 13,3001           00001                                   0
000418: 13,3002           02023                                   RLS
000419: 13,3003           41525                          PDDL     PUSH
000420: 13,3004           00041                                   TDEC1
000421: 13,3005           15517                          STODL    TET
000422: 13,3006           27733                                   5/8
000423:                                                                                                 #  Page 1211
000424: 13,3007           77624                          CALL
000425: 13,3010           55716                                   RP-TO-R
000426: 13,3011           25535                          STOVL    RCV
000427: 13,3012           24001                                   ZUNIT
000428: 13,3013           14001                          STODL    0D
000429: 13,3014           01517                                   TET
000430: 13,3015           14007                          STODL    6D
000431: 13,3016           27733                                   5/8
000432: 13,3017           45014                          SET      CALL                                  #  NEEDED FOR SETTING X1 ON EXIT
000433: 13,3020           00063                                   MOONFLAG
000434: 13,3021           55716                                   RP-TO-R
000435: 13,3022           74235                          VXV      VXSC
000436: 13,3023           01535                                   RCV
000437: 13,3024           26001                                   OMEGMOON
000438: 13,3025           25543                          STOVL    VCV
000439: 13,3026           24007                                   ZEROVEC
000440: 13,3027           01521                          STORE    TDELTAV
000441: 13,3030           67174                          AXT,2    SXA,2
000442: 13,3031           00002                                   2
000443: 13,3032           02030                                   PBODY
000444: 13,3033           35527                          STCALL   TNUV
000445: 13,3034           27156                                   A-PCHK
000446: 13,3035           33041        SETBANK           CAF      INTBANK
000447: 13,3036           54006                          TS       BBANK
000448: 13,3037           33446                          CAF      FORTYONE
000449: 13,3040           00002                          TC       Q
000450: 13,3041  E3,1554                                 EBANK=   RRECTCSM
000451: 13,3041           26063        INTBANK           BBCON    INTEGRV
000452:
000453:                                                                                                 #  SPECIAL PURPOS ENTRIES TO ORBITAL INTEGRATION.  THESE ROUTINES PROVIDE ENTRANCES TO INTEGRATION WITH
000454:                                                                                                 #  APPROPRIATE SWITCHES SET OR CLEARED FOR TEH DESIRED INTEGRATION.
000455:
000456:                                                                                                 #  CSMPREC AND LEMPREC PERFORM ORBIT INTEGRATION BY THE ENCKE METHOD TO THE TIME INDICATED IN TDEC1.
000457:                                                                                                 #  ACCELERATIONS DUE TO OBLATENESS ARE INCLUDED.  NO W-MATRIX INT. IS DONE.
000458:                                                                                                 #  THE PERMANENT STATE VECTOR IS NOT UPDATED.
000459:
000460:                                                                                                 #  CSMCONIC AND LEMCONIC PERFORM ORBIT INTEG. BY KEPLER'S METHOD TO THE TIME INDICATED IN TDEC1.
000461:                                                                                                 #  NO DISTURBING ACCELERATIONS ARE INCLUDED.  IN THE PROGRAM FLOW THE GIVEN
000462:                                                                                                 #  STATE VECTOR IS RECTIFIED BEFORE SOLUTION OF KEPLER'S EQUATION.
000463:
000464:                                                                                                 #  THE ROUTINES ASSUME THAT THE CSM (LEM) STATE VECTOR IN P-MEM IS VALID.
000465:                                                                                                 #  SWITCHES SET PRIOR TO ENTRY TO THE MAIN INTEG. PROG ARE AS FOLLOWS:
000466:                                                                                                 #                         CSMPREC         CSMCONIC        LEMPREC         LEMCONIC
000467:                                                                                                 #         VINTFLAG        SET             SET             CLEAR           CLEAR
000468:                                                                                                 #         INTYPFLG        CLEAR           SET             CLEAR           SET
000469:                                                                                                 #         DIM0FLAG        CLEAR           CLEAR           CLEAR           CLEAR
000470:
000471:                                                                                                 #  CALLING SEQUENCE
000472:                                                                                                 #         L-X     STORE   TDEC1
000473:                                                                                                 #  Page 1212
000474:                                                                                                 #         L       CALL                    (STCALL TDEC1)
000475:                                                                                                 #         L+1             CSMPREC         (CSMCONIC, LEMPREC, LEMCONIC)
000476:
000477:                                                                                                 #  NORMAL EXIT TO L+2
000478:
000479:                                                                                                 #  SUBROUTINES CALLED
000480:                                                                                                 #         INTEGRV1
000481:                                                                                                 #         PRECOUT FOR CSMPREC AND LEMPREC
000482:                                                                                                 #         CONICOUT FOR CSMCONIC AND LEMCONIC
000483:
000484:                                                                                                 #  OUTPUT -- SEE PAGE 2 OF THIS LOG SECTION
000485:
000486:                                                                                                 #  INPUT
000487:                                                                                                 #         TDEC1           TIME TO INTEGRATE TO.  CSECS B-28
000488:
000489: 13,3042           45020        CSMPREC           STQ      CALL
000490: 13,3043           00046                                   X1
000491: 13,3044           27410                                   INTSTALL
000492: 13,3045           43130                          SXA,1    SET
000493: 13,3046           02102                                   IRETURN
000494: 13,3047           01474                                   VINTFLAG
000495:
000496: 13,3050           43014        IFLAGP            SET      CLEAR
000497: 13,3051           01467                                   PRECIFLG
000498: 13,3052           01676                                   DIM0FLAG
000499: 13,3053           77614                          CLRGO
000500: 13,3054           01633                                   INTYPFLG
000501: 13,3055           27135                                   INTEGRV1
000502: 13,3056           45020        LEMPREC           STQ      CALL
000503: 13,3057           00046                                   X1
000504: 13,3060           27410                                   INTSTALL
000505: 13,3061           43130                          SXA,1    CLRGO
000506: 13,3062           02102                                   IRETURN
000507: 13,3063           01634                                   VINTFLAG
000508: 13,3064           27050                                   IFLAGP
000509:
000510: 13,3065           45020        CSMCONIC          STQ      CALL
000511: 13,3066           00046                                   X1
000512: 13,3067           27410                                   INTSTALL
000513: 13,3070           43130                          SXA,1    SET
000514: 13,3071           02102                                   IRETURN
000515: 13,3072           01474                                   VINTFLAG
000516: 13,3073           43014        IFLAGC            CLEAR    SETGO
000517: 13,3074           01676                                   DIM0FLAG
000518: 13,3075           01433                                   INTYPFLG
000519: 13,3076           27135                                   INTEGRV1
000520: 13,3077           45020        LEMCONIC          STQ      CALL
000521: 13,3100           00046                                   X1
000522: 13,3101           27410                                   INTSTALL
000523: 13,3102           43130                          SXA,1    CLRGO
000524:                                                                                                 #  Page 1213
000525: 13,3103           02102                                   IRETURN
000526: 13,3104           01634                                   VINTFLAG
000527: 13,3105           27073                                   IFLAGC
000528:
000529: 13,3106           66214        INTEGRVS          SET      SSP
000530: 13,3107           01467                                   PRECIFLG
000531: 13,3110           02031                                   PBODY
000532: 13,3111           00000                                   0
000533: 13,3112           66214                          BOF      SSP
000534: 13,3113           00343                                   MOONFLAG
000535: 13,3114           27117                                   +3
000536: 13,3115           02031                                   PBODY
000537: 13,3116           00002                                   2
000538: 13,3117           77220                          STQ      VLOAD
000539: 13,3120           02102                                   IRETURN
000540: 13,3121           24007                                   ZEROVEC
000541: 13,3122           01521                          STORE    TDELTAV
000542: 13,3123           35527                          STCALL   TNUV
000543: 13,3124           27671                                   RECTIFY
000544: 13,3125           43014                          CLEAR    SET
000545: 13,3126           01676                                   DIM0FLAG
000546: 13,3127           04062                                   NEWIFLG
000547: 13,3130           77614                          SETGO
000548: 13,3131           04020                                   RPQFLAG
000549: 13,3132           27147                                   ALOADED
000550:
000551:                                                                                                 #  INTEGRV IS AN ENTRY TO ORBIT INTEGRATION WHICH PERMITS THE CALLER,
000552:                                                                                                 #  NORMALLY THE NAVIGATION PROGRAM, TO SET THE INTEG. FLAGS.  THE ROUTINE
000553:                                                                                                 #  IS ENTERED AT INTEGRV1 BY CSMPREC ET. AL. AND AT ALOADED BY INTEGRVS.
000554:                                                                                                 #  THE ROUTINE SETS UP A-MEMORY IF ENTERED AT INTEGRV,1 AND SETS THE INTEG.
000555:                                                                                                 #  PROGRAM FOR PRECISION OR CONIC.
000556:
000557:                                                                                                 #  THE CALLER MUST FIRST CALL INTSTALL TO CHECK IF INTEG. IS IN USE BEFORE
000558:                                                                                                 #  SETTING ANY FLAGS.
000559:
000560:                                                                                                 #  THE FLAGS WHICH SHOULD BE SET OR CLEARED ARE
000561:                                                                                                 #         VINTFLAG        (IGNORED WHEN ENTERED FROM INTEGRVS)
000562:                                                                                                 #         INTYPFLG
000563:                                                                                                 #         DIM0FLAG
000564:                                                                                                 #         D6OR9FLG
000565:
000566:                                                                                                 #  CALLING SEQUENCE
000567:                                                                                                 #         L-X     CALL
000568:                                                                                                 #         L-Y             INTSTALL
000569:                                                                                                 #         L-1     SET OR CLEAR ALL FOUR FLAGS.  ALSO CAN SET STATEFLG IF DESIRED
000570:                                                                                                 #                 AND DIM0FLAG IS CLEAR.
000571:                                                                                                 #         L       CALL
000572:                                                                                                 #         L+1             INTEGRV
000573:
000574:                                                                                                 #  INITIALIZATION
000575:                                                                                                 #         FLAGS AS ABOVE
000576:                                                                                                 #         STORE TIME TO INTEGRATE TO IN TDEC1
000577:
000578:                                                                                                 #  OUTPUT
000579:                                                                                                 #         RATT    AS
000580:                                                                                                 #  Page 1214
000581:                                                                                                 #         VATT          DEFINED
000582:                                                                                                 #         TAT                     BEFORE
000583:
000584: 13,3133           77620        INTEGRV           STQ
000585: 13,3134           02102                                   IRETURN
000586: 13,3135           43014        INTEGRV1          SET      SET
000587: 13,3136           04060                                   RPQFLAG
000588: 13,3137           04062                                   NEWIFLG
000589: 13,3140           77731        INTEGRV2          SSP
000590: 13,3141           00053                                   QPRET
000591: 13,3142           27147                                   ALOADED
000592: 13,3143           52014                          BON      GOTO
000593: 13,3144           01714                                   VINTFLAG
000594: 13,3145           26704                                   PTOACSM
000595: 13,3146           26757                                   PTOALEM
000596: 13,3147           77745        ALOADED           DLOAD
000597: 13,3150           00041                                   TDEC1
000598: 13,3151           01115                          STORE    TDEC
000599: 13,3152           52014                          BOFF     GOTO
000600: 13,3153           01753                                   INTYPFLG
000601: 13,3154           27256                                   TESTLOOP
000602: 13,3155           27242                                   RVCON
000603: 13,3156           77414        A-PCHK            BOF      EXIT
000604: 13,3157           01752                                   STATEFLG
000605: 13,3160           27177                                   RECTOUT
000606: 13,3161           05353                          TC       PHASCHNG
000607: 13,3162           04022                          OCT      04022
000608: 13,3163           05504                          TC       UPFLAG                                #  PHASE CHANGE HAS OCCURRED BETWEEN
000609: 13,3164           00236                          ADRES    REINTFLG                              #  INTSTALL AND INTWAKE
000610: 13,3165           06042                          TC       INTPRET
000611: 13,3166           77731                          SSP
000612: 13,3167           00053                                   QPRET
000613: 13,3170           27175                                   PHEXIT
000614: 13,3171           52014                          BON      GOTO
000615: 13,3172           01714                                   VINTFLAG
000616: 13,3173           26660                                   ATOPCSM
000617: 13,3174           26733                                   ATOPLEM
000618: 13,3175           77624        PHEXIT            CALL
000619: 13,3176           11210                                   GRP2PC
000620: 13,3177           45001        RECTOUT           SETPD    CALL
000621: 13,3200           00001                                   0
000622: 13,3201           27671                                   RECTIFY
000623: 13,3202           53775                          VLOAD    VSL*
000624: 13,3203           01503                                   RRECT
000625: 13,3204           57576                                   0,2
000626: 13,3205           53715                          PDVL     VSL*                                  #  RATT TO PD0
000627: 13,3206           01511                                   VRECT
000628: 13,3207           57576                                   0,2
000629: 13,3210           63325                          PDDL     PDVL                                  #  VATT TO PD6    TAT TO PD12
000630:                                                                                                 #  Page 1215
000631: 13,3211           01517                                   TET
000632: 13,3212           01503                                   RRECT
000633: 13,3213           64715                          PDVL     PDDL*
000634: 13,3214           01511                                   VRECT
000635: 13,3215           51770                                   MUEARTH,2
000636: 13,3216           76006                          PUSH     AXT,1
000637: 13,3217           77765                          DEC      -10        B-14
000638: 13,3220           76014                          BON      AXT,1
000639: 13,3221           00303                                   MOONFLAG
000640: 13,3222           27224                                   +2
000641: 13,3223           77775                          DEC      -2         B-14
000642: 13,3224           40001        INTEXIT           SETPD    BOV
000643: 13,3225           00001                                   0
000644: 13,3226           27227                                   +1
000645: 13,3227           43014                          CLEAR    CLEAR
000646: 13,3230           04676                                   AVEMIDSW                              #  ALLOW UPDATE OF DOWNLINK STATE VECTOR
000647: 13,3231           01667                                   PRECIFLG
000648: 13,3232           77614                          CLEAR
000649: 13,3233           01672                                   STATEFLG
000650: 13,3234           77535                          SLOAD    EXIT
000651: 13,3235           02103                                   IRETURN
000652: 13,3236           30154                          CA       MPAC
000653: 13,3237           50120                          INDEX    FIXLOC
000654: 13,3240           54052                          TS       QPRET
000655: 13,3241           03421                          TC       INTWAKE
000656:
000657:                                                                                                 #  RVCON SETS UP ORBIT INTEGRATION TO DO A CONIC SOLUTION FOR POSITION AND
000658:                                                                                                 #  VELOCITY FOR THE INTERVAL (TET-TDEC)
000659:
000660: 13,3242           45345        RVCON             DLOAD    DSU
000661: 13,3243           01115                                   TDEC
000662: 13,3244           01517                                   TET
000663: 13,3245           36074                          STCALL   TAU.
000664: 13,3246           27671                                   RECTIFY
000665: 13,3247           77624                          CALL
000666: 13,3250           22404                                   KEPPREP
000667: 13,3251           43345                          DLOAD    DAD
000668: 13,3252           01551                                   TC
000669: 13,3253           01517                                   TET
000670: 13,3254           35517                          STCALL   TET
000671: 13,3255           27177                                   RECTOUT
000672:
000673:                                                                                                 #  Page 1216
000674: 13,3256           43014        TESTLOOP          BOF      CLRGO
000675: 13,3257           04752                                   QUITFLAG
000676: 13,3260           27263                                   +3
000677: 13,3261           01632                                   STATEFLG
000678: 13,3262           27224                                   INTEXIT                               #  STOP INTEGRATION
000679: 13,3263           73001                 +3       SETPD    LXA,2
000680: 13,3264           00013                                   10D
000681: 13,3265           02030                                   PBODY
000682: 13,3266           51575                          VLOAD    ABVAL
000683: 13,3267           01535                                   RCV
000684: 13,3270           43006                          PUSH     CLEAR                                 #  RC TO 10D
000685: 13,3271           00262                                   MIDFLAG
000686: 13,3272           50023                          DSU*     BMN                                   #  MIDFLAG=0 IF R G.T. RMP
000687: 13,3273           53755                                   RME,2
000688: 13,3274           27277                                   +3
000689: 13,3275           77614                          SET
000690: 13,3276           00062                                   MIDFLAG
000691: 13,3277           41345        NORFINAL          DLOAD    DMP
000692: 13,3300           00013                                   10D
000693: 13,3301           00043                                   34D
000694: 13,3302           55762                          SR1R     DDV*
000695: 13,3303           51770                                   MUEARTH,2
000696: 13,3304           41366                          SQRT     DMP
000697: 13,3305           25762                                   .3D
000698: 13,3306           40442                          SR3      SR4                                   #  DT IS TRUNCATED TO A MULTIPLE
000699: 13,3307           54345                          DLOAD    SL
000700: 13,3310           00155                                   MPAC
000701: 13,3311           20220                                   15D                                   #         OF 128 CSECS.
000702: 13,3312           40006                          PUSH     BOV
000703: 13,3313           27340                                   MAXDT
000704: 13,3314           50021                          BDSU     BMN
000705: 13,3315           27407                                   DT/2MAX
000706: 13,3316           27340                                   MAXDT
000707: 13,3317           45345        DT/2COMP          DLOAD    DSU
000708: 13,3320           01115                                   TDEC
000709: 13,3321           01517                                   TET
000710: 13,3322           54234                          RTB      SL
000711: 13,3323           21613                                   SGNAGREE
000712: 13,3324           20211                                   8D
000713: 13,3325           02076                          STORE    DT/2                                  #  B-19
000714: 13,3326           51400                          BOV      ABS
000715: 13,3327           27344                                   GETMAXDT
000716: 13,3330           50025                          DSU      BMN                                   #  IS TIME TO INTEG. TO GR THAN MAXTIME
000717: 13,3331           00015                                   12D
000718: 13,3332           27350                                   P00HCHK
000719: 13,3333           75345        USEMAXDT          DLOAD    SIGN
000720: 13,3334           00015                                   12D
000721: 13,3335           02076                                   DT/2
000722:                                                                                                 #  Page 1217
000723: 13,3336           36076                          STCALL   DT/2
000724: 13,3337           27350                                   P00HCHK
000725: 13,3340           65345        MAXDT             DLOAD    PDDL                                  #  EXCHANGE DT/2MAX WITH COMPUTED MAX.
000726: 13,3341           27407                                   DT/2MAX
000727: 13,3342           77650                          GOTO
000728: 13,3343           27317                                   DT/2COMP
000729: 13,3344           77634        GETMAXDT          RTB
000730: 13,3345           21713                                   SIGNMPAC
000731: 13,3346           36076                          STCALL   DT/2
000732: 13,3347           27333                                   USEMAXDT
000733: 13,3350           51545        P00HCHK           DLOAD    ABS
000734: 13,3351           02076                                   DT/2
000735: 13,3352           50025                          DSU      BMN
000736: 13,3353           27405                                   DT/2MIN
000737: 13,3354           27156                                   A-PCHK
000738: 13,3355           43014                          BOFF     BON                                   #  NO BACKWARDS INTEGRATION
000739: 13,3356           01740                                   P00HFLAG                              #  WHEN IN P00
000740: 13,3357           23311                                   TIMESTEP
000741: 13,3360           01707                                   PRECIFLG
000742: 13,3361           23311                                   TIMESTEP
000743: 13,3362           45345                          DLOAD    DSU
000744: 13,3363           02076                                   DT/2
000745: 13,3364           00015                                   12D
000746: 13,3365           43040                          BMN      BOFCLR
000747: 13,3366           27156                                   A-PCHK
000748: 13,3367           04242                                   NEWIFLG
000749: 13,3370           23311                                   TIMESTEP
000750: 13,3371           45345                          DLOAD    DSU
000751: 13,3372           01115                                   TDEC
000752: 13,3373           01517                                   TET
000753: 13,3374           77640                          BMN                                            #  NO BACKWARD INTEGRATION
000754: 13,3375           27224                                   INTEXIT
000755: 13,3376           40525                          PDDL     SR4
000756: 13,3377           02076                                   DT/2                                  #  IS 4(DT) LS (TDEC - TET)
000757: 13,3400           44322                          SR2R     BDSU
000758: 13,3401           52040                          BMN      GOTO
000759: 13,3402           27224                                   INTEXIT
000760: 13,3403           23311                                   TIMESTEP
000761: 13,3404           00000 01400  DT/2MIN           2DEC     3          B-20
000762: 13,3406           14152 00000  DT/2MAX           2DEC     4000       E2         B-20
000763:
000764: 13,3410           77776        INTSTALL          EXIT
000765: 13,3411           30106                          CA       RASFLAG
000766: 13,3412           73462                          MASK     INTBITAB                              #  IS THIS STALL AREA FREE
000767: 13,3413           00006                          EXTEND
000768: 13,3414           13454                          BZF      OKTOGRAB                              #  YES
000769: 13,3415           33461                          CAF      WAKESTAL
000770: 13,3416           05133                          TC       JOBSLEEP
000771: 13,3417           77776        INTWAKE0          EXIT
000772:                                                                                                 #  Page 1218
000773: 13,3420           13441                          TCF      INTWAKE1
000774:
000775: 13,3421           40106        INTWAKE           CS       RASFLAG                               #  IS THIS INTSTALLED ROUTINE TO BE
000776: 13,3422           74745                          MASK     REINTBIT                              #         RESTARTED
000777: 13,3423           10000                          CCS      A
000778: 13,3424           03441                          TC       INTWAKE1                              #  NO
000779:
000780: 13,3425           50120                          INDEX    FIXLOC
000781: 13,3426           30052                          CA       QPRET
000782: 13,3427           55054                          TS       TBASE2                                #  YES, DON'T RESTART WITH SOMEONE ELSE'S Q
000783:
000784: 13,3430           05353                          TC       PHASCHNG
000785: 13,3431           04022                          OCT      04022
000786:
000787: 13,3432           31054                          CA       TBASE2
000788: 13,3433           50120                          INDEX    FIXLOC
000789: 13,3434           54052                          TS       QPRET
000790:
000791: 13,3435           34745                          CAF      REINTBIT
000792: 13,3436           70106                          MASK     RASFLAG
000793: 13,3437           00006                          EXTEND
000794: 13,3440           13457                          BZF      GOBAC                                 #  DON'T INTWAKE IF WE CAME HERE VIA RESTART
000795:
000796: 13,3441           33461        INTWAKE1          CAF      WAKESTAL
000797: 13,3442           00004                          INHINT
000798: 13,3443           05137                          TC       JOBWAKE
000799: 13,3444           10064                          CCS      LOCCTR
000800: 13,3445           13441                          TCF      INTWAKE1
000801: 13,3446           00051        FORTYONE          DEC      41         B-14
000802: 13,3447           43462                          CS       INTBITAB
000803: 13,3450           70106                          MASK     RASFLAG
000804: 13,3451           54106                          TS       RASFLAG                               #  RELEASE STALL AREA
000805: 13,3452           00003                          RELINT
000806: 13,3453           13457                          TCF      GOBAC
000807: 13,3454           34736        OKTOGRAB          CAF      INTFLBIT
000808: 13,3455           00004                          INHINT
000809: 13,3456           26106                          ADS      RASFLAG
000810: 13,3457           06042        GOBAC             TC       INTPRET
000811: 13,3460           77616                          RVQ
000812: 13,3461           27411        WAKESTAL          CADR     INTSTALL   +1
000813: 13,3462           20100        INTBITAB          OCT      20100
000814:
000815:                                                                                                 #  Page 1219
000816:                                                                                                 #  AVETOMID
000817:
000818:                                                                                                 #  THIS ROUTINE PERFORMS THE TRANSITION FROM A THRUSTING PHASE TO THE COAST
000819:                                                                                                 #  PHASE BY INITIALIZING THIS VEHICLE'S PERMANENT STATE VECTOR WITH THE
000820:                                                                                                 #  VALUES LEFT BY THE AVERAGEG ROUTINE IN RN,VN,PIPTIME.
000821:
000822:                                                                                                 #  BEFORE THIS IS DONE THE W-MATRIX, IF ITS VALID (OR WFLAG OR RENDWFLT IS
000823:                                                                                                 #  SET) IS INTEGRATED FORWARD TO PIPTIME WITH THE PRE-THRUST STATE VECTOR.
000824:
000825:                                                                                                 #  IN ADDITION, THE OTHER VEHICLE IS INTEGRATED (PERMANENT) TO PIPTIME.
000826:
000827:                                                                                                 #  FINALLY TRKMKCNT IS ZEROED.
000828:
000829: 13,2000                                          SETLOC   INTINIT
000830: 13,2000                                          BANK
000831:
000832: 13,3463                                          COUNT*   $$/INTIN
000833: 13,3463           43020        AVETOMID          STQ      BON
000834: 13,3464           02772                                   EGRESS
000835: 13,3465           02716                                   RENDWFLG
000836: 13,3466           27532                                   INT/W                                 #  W-MATRIX VALID, GO INTEGRATE IT
000837: 13,3467           77614                          BON
000838: 13,3470           01711                                   ORBWFLAG
000839: 13,3471           27532                                   INT/W                                 #  W-MATRIX VALID, GO INTEGRATE IT.
000840:
000841: 13,3472           45145        OTHERS            DLOAD    CALL                                  #  GET SET FOR OTHER VEHICLE INTEGRATION
000842: 13,3473           01234                                   PIPTIME                               #  DESIRED TIME
000843: 13,3474           27410                                   INTSTALL
000844: 13,3475           45014                          SET      CALL
000845: 13,3476           01474                                   VINTFLAG                              #  CM
000846: 13,3477           26643                                   SETIFLGS                              #  SETS UP NONE W-MAT. PERMANENT INTEG.
000847: 13,3500           34041                          STCALL   TDEC1
000848: 13,3501           27133                                   INTEGRV
000849:
000850: 13,3502           45174                          AXT,2    CALL                                  #  NOW MOVE PROPERLY SCALE RN,UN AS WELL AS
000851: 13,3503           00002                                   2                                     #  PIPTIME TO INTEGRATION ERASABLES.
000852: 13,3504           27410                                   INTSTALL
000853: 13,3505           77014                          BON      AXT,2
000854: 13,3506           04304                                   MOONTHIS
000855: 13,3507           27511                                   +2
000856: 13,3510           00000                                   0
000857: 13,3511           53775                          VLOAD    VSR*
000858: 13,3512           01220                                   RN
000859: 13,3513           57176                                   0,2
000860: 13,3514           01503                          STORE    RRECT
000861: 13,3515           15535                          STODL    RCV
000862: 13,3516           01234                                   PIPTIME
000863: 13,3517           25517                          STOVL    TET
000864: 13,3520           01226                                   VN
000865:                                                                                                 #  Page 1220
000866: 13,3521           45057                          VSR*     CALL
000867: 13,3522           57176                                   0,2
000868: 13,3523           27705                                   MINIRECT                              #  FINISH SETTING UP STATE VECTOR
000869: 13,3524           66234                          RTB      SSP
000870: 13,3525           26746                                   MOVATHIS                              #  PUT TEMP STATE VECTOR INTO PERMANENT
000871: 13,3526           03463                                   TRKMKCNT
000872: 13,3527           00000                                   0
000873: 13,3530           77650                          GOTO
000874: 13,3531           47230                                   FAZAB5
000875:
000876: 13,3532           45145        INT/W             DLOAD    CALL
000877: 13,3533           01234                                   PIPTIME                               #  INTEGRATE W THRU BURN
000878: 13,3534           27410                                   INTSTALL
000879: 13,3535           43014                          SET      SET
000880: 13,3536           01476                                   DIM0FLAG                              #  DO W-MATRIX
000881: 13,3537           04476                                   AVEMIDSW                              #  SO WON'T CLOBBER RN,VN,PIPTIME
000882: 13,3540           43014                          SET      CLEAR
000883: 13,3541           01475                                   D6OR9FLG                              #  9X9 FOR LM
000884: 13,3542           01674                                   VINTFLAG                              #  LM
000885: 13,3543           34041                          STCALL   TDEC1
000886: 13,3544           27133                                   INTEGRV
000887: 13,3545           77650                          GOTO
000888: 13,3546           27472                                   OTHERS                                #  NOW GO DO THE OTHER VEHICLE
000889:
000890:                                                                                                 #  Page 1221
000891:                                                                                                 #  MIDTOAV1
000892:
000893:                                                                                                 #  THIS ROUTINE INTEGRATES (PRECISION) TO THE TIME SPECIFIED IN TDEC1.
000894:                                                                                                 #  IF, AT THE END OF AN INTEGRATION TIME STEP, CURRENT TIME PLUS A DELTA
000895:                                                                                                 #  TIME (SEE TIMEDELT.....BASED ON THE COMPUTATION TIME FOR ONE TIME STEP)
000896:                                                                                                 #  IS GREATER THAN THE DESIRED TIME, ALARM 1703 IS SET AND THE INTEGRATION
000897:                                                                                                 #  IS DONE TO THE CURRENT TIME.
000898:                                                                                                 #  RETURN IS IN BASIC TO THE RETURN ADDRESS PLUS ONE.
000899:
000900:                                                                                                 #  IF THE INTEGRATION IS FINISHED TO THE DESIRED TIME, RETURN IS IN BASIC
000901:                                                                                                 #  TO THE RETURN ADDRESS.
000902:
000903:                                                                                                 #  IN EITHER CASE, BEFORE RETURNING, THE EXTRAPOLATED STATE VECTOR IS TRANSFERRED
000904:                                                                                                 #  FROM R,VATT TO R,VN1 -- PIPTIME1 IS SET TO THE FINISHING INTEGRATION
000905:                                                                                                 #  TIME AND MPAC IS SET TO THE DELTA TIME --
000906:                                                                                                 #                         TAT MINUS CURRENT TIME
000907:
000908:                                                                                                 #  MIDTOAV2
000909:
000910:                                                                                                 #  THIS ROUTINE INTEGRATES THIS VEHICLE'S STATE VECTOR TO THE CURRENT TIME.
000911:                                                                                                 #  NO INPUTS ARE REQUIRED OF THE CALLER.  RETURN IS IN BASIC TO THE RETURN
000912:                                                                                                 #  ADDRESS WITH THE ABOVE TRANSFERS TO R,VN1 -- PIPTIME1 -- AND MPAC DONE
000913:
000914: 13,3547  E7,1744                                 EBANK=   IRETURN1
000915: 13,3547           43020        MIDTOAV2          STQ      CLRGO                                 #  INTEGRATE TO PRESENT TIME PLUS TIMEDELT
000916: 13,3550           03744                                   IRETURN1
000917: 13,3551           04634                                   MID1FLAG
000918: 13,3552           27566                                   ENTMID2
000919:
000920: 13,3553           43020        MIDTOAV1          STQ      SET                                   #  INTEGRATE TO TDEC1
000921: 13,3554           03744                                   IRETURN1
000922: 13,3555           04474                                   MID1FLAG
000923: 13,3556           43234                          RTB      DAD                                   #  INITIAL CHECK, IS TDEC1 IN THE FUTURE
000924: 13,3557           21574                                   LOADTIME
000925: 13,3560           27670                                   TIMEDELT
000926: 13,3561           51021                          BDSU     BPL
000927: 13,3562           00041                                   TDEC1
000928: 13,3563           27572                                   ENTMID1                               #  Y5S
000929: 13,3564           77624                          CALL
000930: 13,3565           27656                                   NOTIME                                #  NO, SET ALARM, SWITCH TO MIDTOAV2
000931:
000932: 13,3566           43234        ENTMID2           RTB      DAD
000933: 13,3567           21574                                   LOADTIME
000934: 13,3570           27670                                   TIMEDELT
000935: 13,3571           00041                          STORE    TDEC1
000936:
000937: 13,3572           77624        ENTMID1           CALL
000938: 13,3573           27410                                   INTSTALL
000939: 13,3574           45014                          CLEAR    CALL
000940:                                                                                                 #  Page 1222
000941: 13,3575           01676                                   DIM0FLAG                              #  NO W-MATRIX
000942: 13,3576           26066                                   THISVINT
000943: 13,3577           43014                          CLEAR    SET
000944: 13,3600           01673                                   INTYPFLG
000945: 13,3601           04475                                   MIDAVFLG                              #  LET INTEG. KNOW THE CALL IS FOR MIDTOAV.
000946: 13,3602           77624                          CALL
000947: 13,3603           27133                                   INTEGRV                               #  GO INTEGRATE
000948: 13,3604           77214                          CLEAR    VLOAD
000949: 13,3605           04675                                   MIDAVFLG
000950: 13,3606           00001                                   RATT
000951: 13,3607           27545                          STOVL    RN1
000952: 13,3610           00007                                   VATT
000953: 13,3611           17553                          STODL    VN1
000954: 13,3612           00015                                   TAT
000955: 13,3613           03561                          STORE    PIPTIME1
000956: 13,3614           66134                          SXA,2    SXA,1
000957: 13,3615           02777                                   RTX2
000958: 13,3616           02776                                   RTX1
000959: 13,3617           77776                          EXIT
000960:
000961: 13,3620           00004                          INHINT
000962: 13,3621           00006                          EXTEND
000963: 13,3622           40025                          DCS      TIME2
000964: 13,3623           20155                          DAS      MPAC
000965: 13,3624           07262                          TC       TPAGREE
000966:
000967: 13,3625           31744                          CA       IRETURN1
000968: 13,3626           04640                          TC       BANKJUMP
000969: 13,3627           47014        CKMID2            BOF      RTB
000970: 13,3630           04754                                   MID1FLAG
000971: 13,3631           27646                                   MID2
000972: 13,3632           21574                                   LOADTIME
000973: 13,3633           44215                          DAD      BDSU
000974: 13,3634           27670                                   TIMEDELT
000975: 13,3635           01115                                   TDEC
000976: 13,3636           45044                          BPL      CALL
000977: 13,3637           27256                                   TESTLOOP                              #  YES
000978: 13,3640           27656                                   NOTIME
000979:
000980: 13,3641           43234        TIMEINC           RTB      DAD
000981: 13,3642           21574                                   LOADTIME
000982: 13,3643           27670                                   TIMEDELT
000983: 13,3644           35115                          STCALL   TDEC
000984: 13,3645           27256                                   TESTLOOP
000985:
000986: 13,3646           45345        MID2              DLOAD    DSU
000987: 13,3647           01115                                   TDEC
000988: 13,3650           01517                                   TET
000989: 13,3651           45246                          ABS      DSU
000990: 13,3652           27666                                   3CSECS
000991:
000992:                                                                                                 #  Page 1223
000993: 13,3653           52040                          BMN      GOTO
000994: 13,3654           27156                                   A-PCHK
000995: 13,3655           27641                                   TIMEINC
000996:
000997: 13,3656           77414        NOTIME            CLEAR    EXIT                                  #  TOO LATE
000998: 13,3657           04674                                   MID1FLAG
000999: 13,3660           25744                          INCR     IRETURN1                              #  SET ERROR EXIT (CALLOC +2)
001000: 13,3661           05567                          TC       ALARM                                 #  INSUFFICIENT TIME FOR INTEGRATION --
001001: 13,3662           01703                          OCT      1703                                  #         TIG WILL BE SLIPPED...
001002: 13,3663           06042                          TC       INTPRET
001003: 13,3664           77616                          RVQ
001004:
001005: 13,3665           00000 00003  3CSECS            2DEC     3          B-28
001006: 13,3667           00000 03720  TIMEDELT          2DEC     2000       B-28
001007:
001008: 27,3361                                          BANK     27
001009: 04,2000                                          SETLOC   UPDATE2
001010: 04,2000                                          BANK
001011: 04,3131     1166                                 EBANK=   INTWAKUQ
001012:
001013: 04,3131                                          COUNT*   $$/INTIN
001014:
001015: 04,3131     1166               INTWAKUQ          =        INTWAK1Q                              #  TEMPORARY UNTIL NAME OF INTWAK1Q IS CHNG
001016:
001017: 04,3131           00003        INTWAKEU          RELINT
001018: 04,3132           00006                          EXTEND
001019: 04,3133           23166                          QXCH     INTWAKUQ                              #  SAVE Q FOR RETURN
001020:
001021: 04,3134           06042                          TC       INTPRET
001022:
001023: 04,3135           53135                          SLOAD    BZE                                   #  IS THIS A CSM/LEM STATE VECTOR UPDATE
001024: 04,3136           01502                                   UPSVFLAG                              #  REQUEST.  IF NOT GO TO INTWAKUP.
001025: 04,3137           11176                                   INTWAKUP
001026:
001027: 04,3140           77775                          VLOAD                                          #  MOVE PRECT(6) AND VRECT(6) INTO
001028: 04,3141           01503                                   RRECT                                 #         RCV(6) AND VCV(6) RESPECTIVELY.
001029: 04,3142           25535                          STOVL    RCV
001030: 04,3143           01511                                   VRECT                                 #  NOW GO TO `RECTIFY +13D' TO
001031: 04,3144           77624                          CALL                                           #  STORE VRECT INTO VCV AND ZERO OUT
001032: 04,3145           27706                                   RECTIFY    +13D                       #  TDELTAV(6),TNUV(6),TC(2), AND XKEP(2)
001033: 04,3146           51535                          SLOAD    ABS                                   #  COMPARE ABSOLUTE VALUE OF `UPSVFLAG'
001034: 04,3147           01502                                   UPSVFLAG                              #  TO `UPDATE MOON STATE VECTOR CODE'
001035: 04,3150           53025                          DSU      BZE                                   #  TO DETERMINE WHETHER THE STATE VECTOR TO
001036: 04,3151           11207                                   UPMNSVCD                              #  BE UPDATED IS IN THE EARTH OR LUNAR
001037: 04,3152           11157                                   INTWAKEM                              #  SPHERE OF INFLUENCE........
001038: 04,3153           43174                          AXT,2    CLRGO                                 #  EARTH SPHERE OF INFLUENCE.
001039: 04,3154           00000                          DEC      0          B-14
001040: 04,3155           00223                                   MOONFLAG
001041:                                                                                                 #  Page 1224
001042: 04,3156           11162                                   INTWAKEC
001043: 04,3157           43174        INTWAKEM          AXT,2    SET                                   #  LUNAR SPHERE OF INFLUENCE.
001044: 04,3160           00002                          DEC      2          B-14
001045: 04,3161           00063                                   MOONFLAG
001046: 04,3162           50135        INTWAKEC          SLOAD    BMN                                   #  COMMON CODING AFTER X2 INITIALIZED AND
001047:                                                                                                 #  MOONFLAG SET (OR CLEARED).
001048: 04,3163           01502                                   UPSVFLAG                              #  IS THIS A REQUEST FOR A LEM OR CSM
001049: 04,3164           11172                                   INTWAKLM                              #         STATE VECTOR UPDATE......
001050: 04,3165           77624                          CALL                                           #  UPDATE CSM STATE VECTOR
001051: 04,3166           26660                                   ATOPCSM
001052:
001053: 04,3167           52014                          CLEAR    GOTO
001054: 04,3170           01671                                   ORBWFLAG
001055: 04,3171           11174                                   INTWAKEX
001056:
001057: 04,3172           77624        INTWAKLM          CALL                                           #  UPDATE LM STATE VECTOR
001058: 04,3173           26733                                   ATOPLEM
001059:
001060: 04,3174           77614        INTWAKEX          CLEAR
001061: 04,3175           02676                                   RENDWFLG
001062:
001063: 04,3176           45131        INTWAKUP          SSP      CALL                                  #  REMOVE `UPDATE STATE VECTOR INDICATOR'
001064: 04,3177           01502                                   UPSVFLAG
001065: 04,3200           00000                                   0
001066: 04,3201           27417                                   INTWAKE0                              #  RELEASE `GRAB' OF ORBIT INTEG.
001067: 04,3202           77776                          EXIT
001068:
001069: 04,3203           05353                          TC       PHASCHNG
001070: 04,3204           04026                          OCT      04026
001071: 04,3205           01166                          TC       INTWAKUQ
001072:
001073: 04,3206           00002        UPMNSVCD          OCT      2
001074: 04,3207           00000                          OCT      0
001075:
001076: 04,3210           77420        GRP2PC            STQ      EXIT
001077: 04,3211           02711                                   GRP2SVQ
001078: 04,3212           05353                          TC       PHASCHNG
001079: 04,3213           04022                          OCT      04022
001080: 04,3214           06042                          TC       INTPRET
001081: 04,3215           77650                          GOTO
001082: 04,3216           02711                                   GRP2SVQ
001083:

End of include-file INTEGRATION_INITIALIZATION.agc.  Parent file is MAIN.agc


