
Source Code
000001:                                                                                                 #  Copyright:     Public domain.
000002:                                                                                                 #  Filename:      INTERPRETIVE_CONSTANT.agc
000003:                                                                                                 #  Purpose:       A section of Luminary 1C, revision 131.
000004:                                                                                                 #                 It is part of the source code for the Lunar Module's (LM)
000005:                                                                                                 #                 Apollo Guidance Computer (AGC) for Apollo 13 and Apollo 14.
000006:                                                                                                 #                 This file is intended to be a faithful transcription, except
000007:                                                                                                 #                 that the code format has been changed to conform to the
000008:                                                                                                 #                 requirements of the yaYUL assembler rather than the
000009:                                                                                                 #                 original YUL assembler.
000010:                                                                                                 #  Reference:     pp. 1099-1100 of 1729.pdf.
000011:                                                                                                 #  Contact:       Ron Burkey <info@sandroid.org>.
000012:                                                                                                 #  Website:       www.ibiblio.org/apollo/index.html
000013:                                                                                                 #  Mod history:   05/31/03 RSB.   Began transcribing.
000014:                                                                                                 #                 05/14/05 RSB    Corrected website reference above
000015:
000016:                                                                                                 #  Page 1099
000017: 23,2000                                          SETLOC   INTPRET1
000018: 23,2000                                          BANK
000019:
000020: 23,2513                                          COUNT*   $$/ICONS
000021: 23,2513           10000 00000  DP1/4TH           2DEC     .25
000022: 23,2515           00000 00000  UNITZ             2DEC     0          B-28
000023: 23,2517           00000 00000  UNITY             2DEC     0          B-28
000024: 23,2521           20000 00000  UNITX             2DEC     .5
000025: 23,2523           00000 00000  ZEROVECS          2DEC     0          B-28
000026: 23,2525           00000 00000                    2DEC     0          B-28
000027: 23,2527           00000 00000                    2DEC     0          B-28
000028:
000029: 23,2531  23,2521               DPHALF            =        UNITX
000030: 23,2531           37777        DPPOSMAX          OCT      37777
000031: 23,2532           37777                          OCT      37777
000032:
000033:                                                                                                 #  Page 1100
000034:                                                                                                 #  INTERPRETIVE CONSTANTS IN THE OTHER HALF-MEMORY
000035:
000036: 12,2000                                          SETLOC   INTPRET2
000037: 12,2000                                          BANK
000038:
000039: 12,2000                                          COUNT*   $$/ICONS
000040: 12,2000           00000 00000  ZUNIT             2DEC     0          B-28
000041: 12,2002           00000 00000  YUNIT             2DEC     0          B-28
000042: 12,2004           20000 00000  XUNIT             2DEC     .5
000043: 12,2006           00000 00000  ZEROVEC           2DEC     0          B-28
000044: 12,2010           00000 00000                    2DEC     0          B-28
000045: 12,2012           00000 00000                    2DEC     0          B-28
000046:
000047: 12,2014           77777                          OCT      77777                                 #  -0, -6, -12 MUST REMAIN IN THIS ORDER
000048: 12,2015           77771        DFC-6             DEC      -6         B-14
000049: 12,2016           77763        DFC-12            DEC      -12        B-14
000050: 12,2017           37777 37777  LODPMAX           2OCT     3777737777                            #  THESE TWO CONSTANTS MUS REMAIN
000051: 12,2021           37777 37777  LODPMAX1          2OCT     3777737777                            #  ADJACENT AND THE SAME FOR INTEGRATION
000052:
000053: 12,2023  12,2006               ZERODP            =        ZEROVEC
000054: 12,2023  12,2004               HALFDP            =        XUNIT
000055:
000056:

End of include-file INTERPRETIVE_CONSTANT.agc.  Parent file is MAIN.agc


