
Source Code


000002:                                                                                                  ## Copyright:   Public domain.
000003:                                                                                                  ## Filename:    INTER-BANK_COMMUNICATION.agc
000004:                                                                                                  ## Purpose:     A section of Luminary 1C, revision 131.
000005:                                                                                                  ##              It is part of the source code for the Lunar Module's (LM)
000006:                                                                                                  ##              Apollo Guidance Computer (AGC) for Apollo 13.
000007:                                                                                                  ##              This file is intended to be a faithful transcription, except
000008:                                                                                                  ##              that the code format has been changed to conform to the
000009:                                                                                                  ##              requirements of the yaYUL assembler rather than the
000010:                                                                                                  ##              original YUL assembler.
000011:                                                                                                  ## Reference:   pp. 992-995
000012:                                                                                                  ## Contact:     Ron Burkey <info@sandroid.org>.
000013:                                                                                                  ## Website:     www.ibiblio.org/apollo/index.html
000014:                                                                                                  ## Mod history: 05/30/03 RSB.   Began transcribing.
000015:                                                                                                  ##              05/14/05 RSB    Corrected website reference above.
000016:                                                                                                  ##              2011-05-07 JL   Removed workaround.
000017:                                                                                                  ##              2017-01-06 RSB  Page numbers now agree with those on the
000018:                                                                                                  ##                              original hardcopy, as opposed to the PDF page
000019:                                                                                                  ##                              numbers in 1701.pdf.
000020:                                                                                                  ##              2017-02-26 RSB  Proofed comment text using octopus/ProoferComments.
000021:                                                                                                  ##              2017-03-13 RSB  Comment-text fixes noted in proofing Luminary 116.
000022:                                                                                                  ##              2017-03-17 RSB  Comment-text fixes identified in diff'ing
000023:                                                                                                  ##                              Luminary 99 vs Comanche 55.
000024:


000026:                                                                                                  #  THE FOLLOWING ROUTINE CAN BE USED TO CALL A SUBROUTINE IN ANOTHER BANK. IN THE BANKCALL VERSION, THE
000027:                                                                                                  #  CADR OF THE SUBROUTINE IMMEDIATELY FOLLOWS THE TC BANKCALL INSTRUCTION, WITH C(A) AND C(L) PRESERVED.
000028:
000029:    4616                                           BLOCK    02
000030:    4616                                           COUNT*   $$/BANK
000031:    4616           52134        BANKCALL           DXCH     BUF2                                  #  SAVE INCOMING A,L.
000032:    4617           50002                           INDEX    Q                                     #  PICK UP CADR.
000033:    4620           30000                           CA       0
000034:    4621           24002                           INCR     Q                                     #  SO WE RETURN TO THE LOC. AFTER THE CADR.
000035:
000036:                                                                                                  #  SWCALL IS  IDENTICAL TO BANKCALL, EXCEPT THAT THE CADR ARRIVES IN A.
000037:
000038:    4622           54001        SWCALL             TS       L
000039:    4623           22004                           LXCH     FBANK                                 #  SWITCH BANKS, SAVING RETURN.
000040:    4624           75012                           MASK     LOW10                                 #  GET SUB-ADDRESS OF CADR.
000041:    4625           56002                           XCH      Q                                     #  A,L NOW CONTAINS DP RETURN.
000042:    4626           52134                           DXCH     BUF2                                  #  RESTORING INPUTS IF THIS IS A BANKCALL.
000043:    4627           50002                           INDEX    Q
000044:    4630           02000                           TC       10000                                 #  SETTING Q TO SWRETURN.
000045:
000046:    4631           56134        SWRETURN           XCH      BUF2       +1                         #  COMES HERE TO RETURN TO CALLER. C(A,L)
000047:    4632           56004                           XCH      FBANK                                 #  ARE PRESERVED FOR RETURN.
000048:    4633           56134                           XCH      BUF2       +1
000049:    4634           00133                           TC       BUF2
000050:
000051:                                                                                                  #  THE FOLLOWING ROUTINE CAN BE USED AS A UNILATERAL JUMP WITH C(A,L) PRESERVED AND THE CADR IMMEDIATELY
000052:                                                                                                  #  FOLLOWING THE TC POSTJUMP INSTRUCTION.
000053:
000054:    4635           56002        POSTJUMP           XCH      Q                                     #  SAVE INCOMING C(A).
000055:    4636           50000                           INDEX    A                                     #  GET CADR.
000056:    4637           30000                           CA       0
000057:
000058:                                                                                                  #  BANKJUMP IS THE SAME AS POSTJUMP, EXCEPT THAT THE CADR ARRIVES IN A.
000059:
000060:    4640           54004        BANKJUMP           TS       FBANK
000061:    4641           75012                           MASK     LOW10
000062:    4642           56002                           XCH      Q                                     #  RESTORING INPUT C(A) IF THIS WAS A
000063:    4643           50002        Q+10000            INDEX    Q                                     #  POSTJUMP.
000064:    4644           12000        PRIO12             TCF      10000                                 #  PRIO12 = TCF  10000 = 12000
000065:


000067:                                                                                                  #  THE FOLLOWING ROUTINE GETS THE RETURN CADR SAVED BY SWCALL OR BANKCALL AND LEAVES IT IN A.
000068:
000069:    4645           35012        MAKECADR           CAF      LOW10
000070:    4646           70133                           MASK     BUF2
000071:    4647           60134                           AD       BUF2       +1
000072:    4650           00002                           TC       Q
000073:
000074:    4651           54135        SUPDACAL           TS       MPTEMP
000075:    4652           56004                           XCH      FBANK                                 #  SET FBANK FOR DATA.
000076:    4653           00006                           EXTEND
000077:    4654           04007                           ROR      SUPERBNK                              #  SAVE FBANK IN BITS 15-11, AND
000078:    4655           56135                           XCH      MPTEMP                                #  SUPERBANK IN BITS 7-5.
000079:    4656           75012                           MASK     LOW10
000080:    4657           56001                           XCH      L                                     #  SAVE REL. ADR. IN BANK, FETCH SUPERBITS.
000081:    4660           00004                           INHINT                                         #  BECAUSE RUPT DOES NOT SAVE SUPERBANK.
000082:    4661           00006                           EXTEND
000083:    4662           01007                           WRITE    SUPERBNK                              #  SET SUPERBANK FOR DATA.
000084:    4663           50001                           INDEX    L
000085:    4664           32000                           CA       10000                                 #  PINBALL (FIX MEM DISP) PREVENTS DCA HERE
000086:    4665           56135                           XCH      MPTEMP                                #  SAVE 1ST WD, FETCH OLD FBANK AND SBANK.
000087:    4666           00006                           EXTEND
000088:    4667           01007                           WRITE    SUPERBNK                              #  RESTORE SUPERBANK.
000089:    4670           00003                           RELINT
000090:    4671           54004                           TS       FBANK                                 #  RESTORE FBANK.
000091:    4672           30135                           CA       MPTEMP                                #  RECOVER FIRST WORD OF DATA.
000092:    4673           00002                           RETURN                                         #  24 WDS. DATACALL 516 MU, SUPDACAL 432 MU
000093:


000095:                                                                                                  #  THE FOLLOWING ROUTINES ARE IDENTICAL TO BANKCALL AND SWCALL EXCEPT THAT THEY ARE USED IN INTERRUPT.
000096:
000097:    4674           52073        IBNKCALL           DXCH     RUPTREG3                              #  USES RUPTREG3,4 FOR DP RETURN ADDRESS.
000098:    4675           50002                           INDEX    Q
000099:    4676           30000                           CAF      0
000100:    4677           24002                           INCR     Q
000101:
000102:    4700           54001        ISWCALLL           TS       L
000103:    4701           22004                           LXCH     FBANK
000104:    4702           75012                           MASK     LOW10
000105:    4703           56002                           XCH      Q
000106:    4704           52073                           DXCH     RUPTREG3
000107:    4705           50002                           INDEX    Q
000108:    4706           02000                           TC       10000
000109:
000110:    4707           56073        ISWRETRN           XCH      RUPTREG4
000111:    4710           56004                           XCH      FBANK
000112:    4711           56073                           XCH      RUPTREG4
000113:    4712           00072                           TC       RUPTREG3
000114:
000115:                                                                                                  #  2. USPRCADR ACCESSES INTERPRETIVE CODING IN OTHER THAN THE USER'S FBANK.  THE CALLING SEQUENCE IS AS FOLLOWS:
000116:                                                                                                  #        L       TC      USPRCADR
000117:                                                                                                  #        L+1     CADR    INTPRETX        INTPRETX IS THE INTERPRETIVE CODING
000118:                                                                                                  #                                        RETURN IS TO L+2
000119:
000120:    4713           54164        USPRCADR           TS       LOC                                   #  SAVE A
000121:    4714           34744                           CA       BIT8
000122:    4715           54023                           TS       EDOP                                  #  EXIT INSTRUCTION TO EDOP
000123:    4716           30006                           CA       BBANK
000124:    4717           54165                           TS       BANKSET                               #  USER'S BBANK TO BANKSET
000125:    4720           50002                           INDEX    Q
000126:    4721           30000                           CA       0
000127:    4722           54004                           TS       FBANK                                 #  INTERPRETIVE BANK TO FBANK
000128:    4723           75012                           MASK     LOW10                                 #  YIELDS INTERPRETIVE RELATIVE ADDRESS
000129:    4724           56002                           XCH      Q                                     #  INTERPRETIVE ADDRESS TO Q, FETCHING L+1
000130:    4725           56164                           XCH      LOC                                   #  L+1 TO LOC, RETRIEVING ORIGINAL A
000131:    4726           14643                           TCF      Q+10000
000132:


000134:                                                                                                  #  THERE ARE FOUR POSSIBLE SETTINGS FOR CHANNEL 07.  (CHANNEL 07 CONTAINS THE SUPERBANK SETTING.)
000135:
000136:                                                                                                  #                                        PSEUDO-FIXED    OCTAL PSEUDO
000137:                                                                                                  #  SUPERBANK     SETTING S-REG. VALUE    BANK NUMBERS    ADDRESSES
000138:                                                                                                  #  ----------    ------- ------------     ------------    ------------
000139:                                                                                                  #  SUPERBANK 3     0XX    2000 - 3777       30 - 37       70000 - 107777         (WHERE XX CAN BE ANYTHING AND
000140:                                                                                                  #                                                                                WILL USUALLY BE SEEN AS 11)
000141:                                                                                                  #  SUPERBANK 4     100    2000 - 3777       40 - 47      110000 - 127777         (AS FAR AS IT CAN BE SEEN,
000142:                                                                                                  #                                                                                ONLY BANKS 40-43 WILL EVER BE
000143:                                                                                                  #                                                                                AND ARE PRESENTLY AVAILABLE)
000144:                                                                                                  #  SUPERBANK 5     101    2000 - 3777       50 - 57      130000 - 147777         (PRESENTLY NOT AVAILABLE TO
000145:                                                                                                  #                                                                                THE USER)
000146:                                                                                                  #  SUPERBANK 6     110    2000 - 3777       60 - 67      150000 - 167777         (PRESENTLY NOT AVAILABLE TO
000147:                                                                                                  #                                                                                THE USER)
000148:                                                                                                  #  *** THIS ROUTINE MAY BE CALLED BY ANY PROGRAM LOCATED IN BANKS 00 - 27.  I.E., NO PROGRAM LIVING IN ANY
000149:                                                                                                  #  SUPERBANK SHOULD USE SUPERSW. ***
000150:
000151:                                                                                                  #  SUPERSW MAY BE CALLED IN THIS FASHION:
000152:                                                                                                  #        CAF     ABBCON          WHERE -- ABBCON  BBCON  SOMETHIN --
000153:                                                                                                  #        TCR     SUPERSW         (THE SUPERBNK BITS ARE IN THE BBCON)
000154:                                                                                                  #        ...       ...
000155:                                                                                                  #         .         .
000156:                                                                                                  #         .         .
000157:                                                                                                  #  OR IN THIS FASHION:
000158:                                                                                                  #        CAF     SUPERSET        WHERE SUPERSET IS ONE OF THE FOUR AVAILABLE
000159:                                                                                                  #        TCR     SUPERSW         SUPERBANK BIT CONSTANTS:
000160:                                                                                                  #        ...       ...                   SUPER011 OCTAL  60
000161:                                                                                                  #         .         .                    SUPER100 OCTAL 100
000162:                                                                                                  #         .         .                    SUPER101 OCTAL 120
000163:                                                                                                  #                                        SUPER110 OCTAL 140
000164:
000165:    4727           00006        SUPERSW            EXTEND
000166:    4730           01007                           WRITE    SUPERBNK                              #  WRITE BITS 7-6-5 OF THE ACCUMULATOR INTO
000167:                                                                                                  #  CHANNEL 07
000168:    4731           00002                           TC       Q                                     #  TC TO INSTRUCTION FOLLOWING
000169:                                                                                                  #        TC SUPERSW
000170:

End of include-file INTER-BANK_COMMUNICATION.agc.  Parent file is MAIN.agc


