
Source Code


000002:                                                                                                  ## Copyright:   Public domain.
000003:                                                                                                  ## Filename:    INTERPRETIVE_CONSTANT.agc
000004:                                                                                                  ## Purpose:     A section of Luminary 1C, revision 131.
000005:                                                                                                  ##              It is part of the source code for the Lunar Module's (LM)
000006:                                                                                                  ##              Apollo Guidance Computer (AGC) for Apollo 13.
000007:                                                                                                  ##              This file is intended to be a faithful transcription, except
000008:                                                                                                  ##              that the code format has been changed to conform to the
000009:                                                                                                  ##              requirements of the yaYUL assembler rather than the
000010:                                                                                                  ##              original YUL assembler.
000011:                                                                                                  ## Reference:   pp. 1094-1095
000012:                                                                                                  ## Contact:     Ron Burkey <info@sandroid.org>.
000013:                                                                                                  ## Website:     www.ibiblio.org/apollo/index.html
000014:                                                                                                  ## Mod history: 05/31/03 RSB.   Began transcribing.
000015:                                                                                                  ##              05/14/05 RSB    Corrected website reference above
000016:                                                                                                  ##              2017-01-06 RSB  Page numbers now agree with those on the
000017:                                                                                                  ##                              original harcopy, as opposed to the PDF page
000018:                                                                                                  ##                              numbers in 1701.pdf.
000019:                                                                                                  ##              2017-02-27 RSB  Proofed comment text using octopus/ProoferComments.
000020:


000022: 23,2000                                           SETLOC   INTPRET1
000023: 23,2000                                           BANK
000024:
000025: 23,2513                                           COUNT*   $$/ICONS
000026: 23,2513           10000 00000  DP1/4TH            2DEC     .25
000027: 23,2515           00000 00000  UNITZ              2DEC     0          B-28
000028: 23,2517           00000 00000  UNITY              2DEC     0          B-28
000029: 23,2521           20000 00000  UNITX              2DEC     .5
000030: 23,2523           00000 00000  ZEROVECS           2DEC     0          B-28
000031: 23,2525           00000 00000                     2DEC     0          B-28
000032: 23,2527           00000 00000                     2DEC     0          B-28
000033:
000034: 23,2531  23,2521               DPHALF             =        UNITX
000035: 23,2531           37777        DPPOSMAX           OCT      37777
000036: 23,2532           37777                           OCT      37777
000037:


000039:                                                                                                  #  INTERPRETIVE CONSTANTS IN THE OTHER HALF-MEMORY
000040:
000041: 12,2000                                           SETLOC   INTPRET2
000042: 12,2000                                           BANK
000043:
000044: 12,2000                                           COUNT*   $$/ICONS
000045: 12,2000           00000 00000  ZUNIT              2DEC     0          B-28
000046: 12,2002           00000 00000  YUNIT              2DEC     0          B-28
000047: 12,2004           20000 00000  XUNIT              2DEC     .5
000048: 12,2006           00000 00000  ZEROVEC            2DEC     0          B-28
000049: 12,2010           00000 00000                     2DEC     0          B-28
000050: 12,2012           00000 00000                     2DEC     0          B-28
000051:
000052: 12,2014           77777                           OCT      77777                                 #  -0, -6, -12 MUST REMAIN IN THIS ORDER
000053: 12,2015           77771        DFC-6              DEC      -6         B-14
000054: 12,2016           77763        DFC-12             DEC      -12        B-14
000055: 12,2017           37777 37777  LODPMAX            2OCT     3777737777                            #  THESE TWO CONSTANTS MUST REMAIN
000056: 12,2021           37777 37777  LODPMAX1           2OCT     3777737777                            #  ADJACENT AND THE SAME FOR INTEGRATION
000057:
000058: 12,2023  12,2006               ZERODP             =        ZEROVEC
000059: 12,2023  12,2004               HALFDP             =        XUNIT
000060:
000061:

End of include-file INTERPRETIVE_CONSTANTS.agc.  Parent file is MAIN.agc


