
Source Code


000002:                                                                                                  #  Copyright:    Public domain.
000003:                                                                                                  #  Filename:     INTERRUT_LEAD_INS.agc
000004:                                                                                                  #  Purpose:      This is the interrupt table for Luminary 1C, revision 131.
000005:                                                                                                  #                It is part of the source code for the Lunar Module's (LM)
000006:                                                                                                  #                Apollo Guidance Computer (AGC) for Apollo 13 and Apollo 14.
000007:                                                                                                  #                This file is intended to be a faithful transcription, except
000008:                                                                                                  #                that the code format has been changed to conform to the
000009:                                                                                                  #                requirements of the yaYUL assembler rather than the
000010:                                                                                                  #                original YUL assembler.
000011:                                                                                                  #  Reference:    pp. 160-161 of 1729.pdf.
000012:                                                                                                  #  Contact:      Ron Burkey <info@sandroid.org>.
000013:                                                                                                  #  Website:      www.ibiblio.org/apollo/index.html
000014:                                                                                                  #  Mod history:  04/11/03 RSB.   Began transcribing.
000015:                                                                                                  #                05/14/05 RSB    Corrected website reference above.
000016:


000018:    4000                                           SETLOC   4000
000019:
000020:    4000                                           COUNT*   $$/RUPTS                              #  FIX-FIX LEAD INS
000021:    4000           00004                           INHINT                                         #  GO
000022:    4001           34054                           CAF      GOBB
000023:    4002           56006                           XCH      BBANK
000024:    4003           12665                           TCF      GOPROG
000025:
000026:    4004           52011                           DXCH     ARUPT                                 #  T6RUPT
000027:    4005           00006                           EXTEND
000028:    4006           34056                           DCA      T6ADR
000029:    4007           52006                           DTCB
000030:
000031:    4010           52011                           DXCH     ARUPT                                 #  T5RUPT -- AUTOPILOT
000032:    4011           00006                           EXTEND
000033:    4012           31264                           DCA      T5ADR
000034:    4013           52006                           DTCB
000035:
000036:    4014           52011                           DXCH     ARUPT                                 #  T3RUPT
000037:    4015           34057                           CAF      T3RPTBB
000038:    4016           56006                           XCH      BBANK
000039:    4017           13410                           TCF      T3RUPT
000040:
000041:    4020           52011                           DXCH     ARUPT                                 #  T4RUPT
000042:    4021           34064                           CAF      T4RPTBB
000043:    4022           56006                           XCH      BBANK
000044:    4023           12000                           TCF      T4RUPT
000045:
000046:    4024           52011                           DXCH     ARUPT                                 #  KEYRUPT1
000047:    4025           34060                           CAF      KEYRPTBB
000048:    4026           56006                           XCH      BBANK
000049:    4027           13253                           TCF      KEYRUPT1
000050:
000051:    4030           52011                           DXCH     ARUPT                                 #  KEYRUPT2
000052:    4031           34061                           CAF      MKRUPTBB
000053:    4032           56006                           XCH      BBANK
000054:    4033           12332                           TCF      MARKRUPT
000055:
000056:    4034           52011                           DXCH     ARUPT                                 #  UPRUPT
000057:    4035           34060                           CAF      UPRPTBB
000058:    4036           56006                           XCH      BBANK
000059:    4037           13276                           TCF      UPRUPT
000060:
000061:    4040           52011                           DXCH     ARUPT                                 #  DOWNRUPT
000062:    4041           34062                           CAF      DWNRPTBB
000063:    4042           56006                           XCH      BBANK
000064:    4043           13505                           TCF      DODOWNTM
000065:
000066:    4044           52011                           DXCH     ARUPT                                 #  RADAR RUPT
000067:    4045           34063                           CAF      RDRPTBB


000069:    4046           56006                           XCH      BBANK
000070:    4047           13157                           TCF      RADAREAD
000071:
000072:    4050           52011                           DXCH     ARUPT                                 #  RUPT10 IS USED ONLY BY LANDING GUIDANCE
000073:    4051           34065                           CA       RUPT10BB
000074:    4052           56006                           XCH      BBANK
000075:    4053           12302                           TCF      PITFALL
000076:
000077:    4054  E3,1400                                  EBANK=   LST1                                  #  RESTART USES E0,E3
000078:    4054           12103        GOBB               BBCON    GOPROG
000079:
000080:    4055  E6,1464                                  EBANK=   PERROR
000081:    4055           02117 36106  T6ADR              2CADR    DOT6RUPT
000082:
000083:    4057  E3,1400                                  EBANK=   LST1
000084:    4057           02103        T3RPTBB            BBCON    T3RUPT
000085:
000086:    4060     0073                                  EBANK=   KEYTEMP1
000087:    4060           10100        KEYRPTBB           BBCON    KEYRUPT1
000088:
000089:    4061  E7,1404                                  EBANK=   AOTAZ
000090:    4061           16107        MKRUPTBB           BBCON    MARKRUPT
000091:
000092:    4062     4060               UPRPTBB            =        KEYRPTBB
000093:
000094:    4062     0340                                  EBANK=   DNTMBUFF
000095:    4062           12100        DWNRPTBB           BBCON    DODOWNTM
000096:
000097:    4063  E7,1453                                  EBANK=   TTOGO
000098:    4063           52107        RDRPTBB            BBCON    RADAREAD
000099:
000100:    4064  E6,1414                                  EBANK=   M11
000101:    4064           14106        T4RPTBB            BBCON    T4RUPT
000102:
000103:    4065  E7,1444                                  EBANK=   ELVIRA
000104:    4065           22107        RUPT10BB           BBCON    PITFALL
000105:

End of include-file INTERRUPT_LEAD_INS.agc.  Parent file is MAIN.agc


