
Source Code


000002:                                                                                                  ## Copyright:   Public domain.
000003:                                                                                                  ## Filename:    INTERPRETER.agc
000004:                                                                                                  ## Purpose:     A section of Luminary 1C, revision 131.
000005:                                                                                                  ##              It is part of the source code for the Lunar Module's (LM)
000006:                                                                                                  ##              Apollo Guidance Computer (AGC) for Apollo 13.
000007:                                                                                                  ##              This file is intended to be a faithful transcription, except
000008:                                                                                                  ##              that the code format has been changed to conform to the
000009:                                                                                                  ##              requirements of the yaYUL assembler rather than the
000010:                                                                                                  ##              original YUL assembler.
000011:                                                                                                  ## Reference:   pp. 996-1088
000012:                                                                                                  ## Contact:     Ron Burkey <info@sandroid.org>.
000013:                                                                                                  ## Website:     www.ibiblio.org/apollo/index.html
000014:                                                                                                  ## Mod history: 05/06/03 RSB.   Began transcribing.
000015:                                                                                                  ##              11/24/03 RSB.   Made some obvious corrections to the comments.
000016:                                                                                                  ##              05/14/05 RSB.   Corrected website reference above.
000017:                                                                                                  ##              2010-10-25 JL   Indentation fixes.
000018:                                                                                                  ##              2011-05-07 JL   Removed workarounds.
000019:                                                                                                  ##              2017-01-06 RSB  Page numbers now agree with those on the
000020:                                                                                                  ##                              original harcopy, as opposed to the PDF page
000021:                                                                                                  ##                              numbers in 1701.pdf.
000022:                                                                                                  ##              2017-01-28 RSB  Back-ported some comment-text fixes made in Luminary 69.
000023:


000025:                                                                                                  #  SECTION 1:  DISPATCHER
000026:
000027:                                                                                                  #  ENTRY TO THE INTERPRETER.  INTPRET SETS LOC TO THE FIRST INSTRUCTION, BANKSET TO THE BBANK OF THE
000028:                                                                                                  #  OBJECT INTERPRETIVE PROGRAM, AND INTBIT15 TO THE BIT15 CONTENTS OF FBANK.  INTERPRETIVE PROGRAMS MAY BE IN
000029:                                                                                                  #  VIRTUALLY ALL BANKS PRESENT UNDER ANY SUPER-BANK SETTING, WITH THE RESTRICTION THAT PROGRAMS IN HIGH BANKS
000030:                                                                                                  #  (BIT15 OF FBANK = 1) DO NOT REFER TO LOWBANKS, AND VICE-VERSA.  THE INTERPRETER DOES NOT SWITCH SUPERBANKS.
000031:                                                                                                  #  E-BANK SWITCHING OCCURS WHENEVER GENERAL ERASABLE (100-3777) IS ADDRESSED.
000032:
000033:    6042                                           BLOCK    03
000034:
000035:    6042                                           COUNT*   $$/INTER
000036:    6042           00003        INTPRET            RELINT
000037:    6043           00006                           EXTEND                                         #  SET LOC TO THE WORD FOLLOWING THE TC.
000038:    6044           22164                           QXCH     LOC
000039:    6045           30006                 +2        CA       BBANK                                 #  INTERPRETIVE BRANCHES FINISH HERE.
000040:    6046           54165                           TS       BANKSET
000041:    6047           74735                           MASK     BIT15                                 #  GET 15TH BIT FOR INDEXABLE ADDRESSES.
000042:    6050           54115                           TS       INTBIT15
000043:
000044:    6051           54023                           TS       EDOP                                  #  MAKE SURE NO INSTRUCTIONS LEFT OVER
000045:
000046:    6052           16073                           TCF      NEWOPS                                #  PICK UP OP CODE PAIR AND BEGIN.
000047:
000048:    6053           22006        INTRSM             LXCH     BBANK                                 #  RESUME SUSPENDED INTERPRETIVE JOB
000049:    6054           16045                           TCF      INTPRET    +3
000050:
000051:                                                                                                  #  DLOAD LOADS MPAC, MPAC +1, LEAVING ZERO IN MPAC +2.
000052:
000053:    6055           00006        DLOAD              EXTEND
000054:    6056           50116                           INDEX    ADDRWD
000055:    6057           30001                           DCA      0                                     #  LOAD DP C(C(ADDRWD)) INT MPAC,MPAC +1
000056:    6060           52155        SLOAD2             DXCH     MPAC
000057:    6061           34755                           CAF      ZERO                                  #  ZERO MPAC +2
000058:


000060:                                                                                                  #  AT THE END OF MOST INSTRUCTIONS, CONTROL IS GIVEN TO DANZIG TO DISPATCH THE NEXT OPERATION.
000061:
000062:    6062           54156                           TS       MPAC       +2                         #  AND DECLARE DP MODE
000063:
000064:    6063           54163        NEWMODE            TS       MODE                                  #  PROLOGUE FOR MODE-CHANGING INSTRUCTIONS.
000065:
000066:    6064           30165        DANZIG             CA       BANKSET                               #  SET BBANK BEFORE TESTING NEWJOB SO THAT
000067:    6065           54006                           TS       BBANK                                 #  IT MAY BE SAVED DIRECTLY BY CHANJOB.
000068:
000069:    6066           10023        NOIBNKSW           CCS      EDOP                                  #  SEE IF AN ORDER CODE IS LEFT OVER FROM
000070:    6067           16102                           TCF      OPJUMP                                #  THE LAST PAIR RETRIEVED.  IF SO, EXECUTE.
000071:                                                                                                  #  EDOP IS SET TO ZERO ON ITS RE-EDITIING.
000072:
000073:    6070           10067                           CCS      NEWJOB                                #  SEE IF A JOB OF HIGHER PRIORITY IS
000074:    6071           15126                           TCF      CHANG2                                #  PRESENT, AND IF SO, CHANGE JOBS.
000075:
000076:    6072           24164                           INCR     LOC                                   #  ADVANCE THE LOCATION COUNTER.
000077:
000078:                                                                                                  #  ITRACE (1) REFERS TO "NEWOPS"
000079:    6073           50164        NEWOPS             INDEX    LOC                                   #  ENTRY TO BEGIN BY PICKING OP CODE PAIR.
000080:    6074           30000                           CA       0                                     #  MAY BE AN OPCODE PAIR OR A STORE CODE.
000081:    6075           10000                           CCS      A                                     #  TEST SIGN AND GET DABS(A).
000082:    6076           16365                           TCF      DOSTORE                               #  PROCESS STORE CODE.
000083:
000084:    6077           00177        LOW7               OCT      177
000085:
000086:    6100           54023                           TS       EDOP                                  #  OP CODE PAIR.  LEAVE THE OTHER IN EDOP
000087:    6101           76077                           MASK     LOW7                                  #  WHERE CCS EDOP WILL HONOR IT NEXT.
000088:
000089:    6102           54020        OPJUMP             TS       CYR                                   #  LOWWD ENTERS HERE IF A RIGHT-HAND OP
000090:    6103           10020                           CCS      CYR                                   #  CODE IS TO BE PROCESSED.  TEST PREFICES.
000091:    6104           16252                           TCF      OPJUMP2                               #  TEST SECOND PREFIX BIT.
000092:
000093:    6105           16746                           TCF      EXIT                                  #  +0 OP CODE IS EXIT
000094:


000096:                                                                                                  #  PROCESS ADDRESSES WHICH MAY BE DIRECT, INDEXED, OR REFERENCE THE PUSHDOWN LIST.
000097:
000098:    6106           74753        ADDRESS            MASK     BIT1                                  #  SEE IF ADDRESS IS INDEXED.  CYR CONTAINED
000099:    6107           10000                           CCS      A                                     #  400XX, SO BIT 1 IS NOW AS IT WAS IN CYR.
000100:    6110           16151                           TCF      INDEX                                 #  FORM INDEXED ADDRESS.
000101:
000102:    6111           50164        DIRADRES           INDEX    LOC                                   #  LOOK AHEAD TO NEXT WORD TO SEE IF
000103:    6112           40001        OCT40001           CS       1                                     #  ADDRESS IS GIVEN.
000104:    6113           10000                           CCS      A
000105:    6114           16220                           TCF      PUSHUP                                #  IF NOT.
000106:
000107:    6115           77773        NEG4               DEC      -4         B-14
000108:
000109:    6116           24164                           INCR     LOC                                   #  IF SO, TO SHOW WE PICKED UP A WORD.
000110:    6117           54116                           TS       ADDRWD
000111:


000113:                                                                                                  #  FINAL DIGESTION OF DIRECT ADDRESSES OF OP CODES WITH 01 PREFIX IS DONE HERE.   IN EACH CASE, THE
000114:                                                                                                  #  REQUIRED 12-BIT SUB-ADDRESS IS LEFT IN ADDRWD, WITH ANY REQUIRED E OR F BANK SWITCHING DONE.  ADDRESSES LESS
000115:                                                                                                  #  THAN 45D ARE TAKEN TO BE RELATIVE TO THE WORK AREA.  THE OP CODE IS NOW IN BITS 1-5 OF CYR WITH BIT 14 = 1.
000116:
000117:    6120           66254                           AD       -ENDVAC                               #  SEE IF ADDRESS RELATIVE TO WORK AREA.
000118:    6121           10000                           CCS      A
000119:    6122           67746                           AD       -ENDERAS                              #  IF NOT, SEE IF IN GENERAL ERASABLE.
000120:    6123           16130                           TCF      IERASTST
000121:
000122:    6124           30120        NETZERO            CA       FIXLOC                                #  IF SO, LEAVE THE MODIFIED ADDRESS IN
000123:    6125           26116                           ADS      ADDRWD                                #  ADDRWD AND DISPATCH.
000124:    6126           50020        ITR15              INDEX    CYR                                   #  THIS INDEX MAKES THE NEXT INSTRUCTION
000125:    6127           76276                           7        INDJUMP    -1                         #  TCF INDJUMP + OP, EDITING CYR.
000126:
000127:    6130           00006        IERASTST           EXTEND
000128:    6131           66141                           BZMF     GEADDR                                #  GO PROCESS GENERAL-ERASABLE ADDRESS.
000129:
000130:    6132           75012                           MASK     LOW10                                 #  FIXED BANK ADDRESS. RESTORE AND ADD B15.
000131:    6133           65012                           AD       LOW10                                 #  SWITCH BANKS AND LEAVE SUBADDRESS IN
000132:    6134           56116                           XCH      ADDRWD                                #  ADDRWD FOR OPERAND RETRIEVAL. (THIS
000133:    6135           60115                           AD       INTBIT15                              #  METHOD PRECLUDES USE OF THE LAST
000134:    6136           54004                           TS       FBANK                                 #  LOCATION IN EACH FBANK.)
000135:    6137           50020        ITR12              INDEX    CYR
000136:    6140           76276                           7        INDJUMP    -1
000137:
000138:    6141           74357        GEADDR             MASK     LOW8
000139:    6142           65007                           AD       OCT1400
000140:    6143           56116                           XCH      ADDRWD
000141:    6144           54003                           TS       EBANK
000142:    6145           50020        ITR10              INDEX    CYR
000143:    6146           76276                           7        INDJUMP    -1
000144:


000146:                                                                                                  #  THE FOLLOWING ROUTINE PROCESSES INTERPRETIVE INDEXED ADDRESSES.  AN INTERPRETER INDEX REGISTER MAY
000147:                                                                                                  #  CONTAIN THE ADDRESS OF ANY ERASABLE REGISTER (0-42 BEING RELATIVE TO THE VAC AREA) OR ANY INTERPRETIVE PROGRAM
000148:                                                                                                  #  BANK, OR ANY INTEGER IN THAT RANGE.
000149:
000150:    6147           37736        DODLOAD*           CAF      DLOAD*                                #  STODL* COMES HERE TO PROCESS LOAD ADR.
000151:    6150           54020                           TS       CYR                                   #  (STOVL* ENTERS HERE).
000152:
000153:    6151           30120        INDEX              CA       FIXLOC                                #  SET UP INDEX LOCATION.
000154:    6152           54130                           TS       INDEXLOC
000155:    6153           24164                           INCR     LOC                                   #  (ADDRESS ALWAYS GIVEN).
000156:    6154           50164                           INDEX    LOC
000157:    6155           40000                           CS       0
000158:    6156           10000                           CCS      A                                     #  INDEX 2 IF ADDRESS STORED COMPLEMENTED.
000159:    6157           24130                           INCR     INDEXLOC
000160:    6160           16161                           NOOP
000161:
000162:    6161           54116                           TS       ADDRWD                                #  14 BIT ADDRESS TO ADDRWD.
000163:    6162           77745                           MASK     HIGH4                                 #  IF ADDRESS GREATER THAN 2K, ADD INTBIT15
000164:    6163           00006                           EXTEND
000165:    6164           16167                           BZF      INDEX2
000166:    6165           30115                           CA       INTBIT15
000167:    6166           26116                           ADS      ADDRWD
000168:
000169:    6167           50130        INDEX2             INDEX    INDEXLOC
000170:    6170           40046                           CS       X1
000171:    6171           26116                           ADS      ADDRWD                                #  DO AUGMENT, IGNORING AND CORRECTING OVF.
000172:
000173:    6172           77747                           MASK     HIGH9                                 #  SEE IF ADDRESS IS IN WORK AREA.
000174:    6173           00006                           EXTEND
000175:    6174           16207                           BZF      INDWORK
000176:    6175           77745                           MASK     HIGH4                                 #  SEE IF IN FIXED BANK.
000177:    6176           00006                           EXTEND
000178:    6177           16211                           BZF      INDERASE
000179:
000180:    6200           30116                           CA       ADDRWD                                #  IN FIXED -- SWITCH BANKS AND CREATE
000181:    6201           54004                           TS       FBANK                                 #  SUB-ADDRESS
000182:    6202           75012                           MASK     LOW10
000183:    6203           64741                           AD       2K
000184:    6204           54116                           TS       ADDRWD
000185:    6205           50020        ITR11              INDEX    CYR
000186:    6206           36276                           3        INDJUMP    -1
000187:
000188:    6207           30120        INDWORK            CA       FIXLOC                                #  MAKE ADDRWD RELATIVE TO WORK AREA.
000189:    6210           16215                           TCF      ITR13      -1
000190:
000191:    6211           35007        INDERASE           CA       OCT1400
000192:    6212           56116                           XCH      ADDRWD
000193:    6213           54003                           TS       EBANK
000194:    6214           74357                           MASK     LOW8
000195:    6215           26116                 -1        ADS      ADDRWD


000197:    6216           50020        ITR13              INDEX    CYR
000198:    6217           36276                           3        INDJUMP    -1
000199:


000201:                                                                                                  #  PUSH-UP ROUTINES.  WHEN NO OPERAND ADDRESS IS GIVEN, THE APPROPRIATE OPERAND IS TAKEN FROM THE PUSH-DOWN
000202:                                                                                                  #  LIST.  IN MOST CASES THE MODE OF THE RESULT (VECTOR OR SCALAR) OF THE LAST ARTGHMETIC OPERATION PERFORMED
000203:                                                                                                  #  IS THE SAME AS THE TYPE OF OPERAND DESIRED (ALL ADD/SUBTRACT ETC.).  EXCEPTIONS TO THIS GENERAL RULE ARE LISTED
000204:                                                                                                  #  BELOW (NOTE THAT IN EVERY CASE THE MODE REGISTER IS LEFT INTACT):
000205:
000206:                                                                                                  #        1.      VXSC AND V/SC WANT THE OPPOSITE TYPE OF OPERAND, E.G., IF THE LAST OPERATION YIELDED A VECTOR
000207:                                                                                                  #                RESULT, VXSC WANTS A SCALAR.
000208:
000209:                                                                                                  #        2.      THE LOAD CODES SHOULD LOAD THE ACCUMULATOR INDEPENDENT OF THE RESULT OF THE LAST OPERATION.  THIS
000210:                                                                                                  #                INCLUDES VLOAD, DLOAD, TLOAD, PDDL, AND PDVL (NO PUSHUP WITH SLOAD).
000211:
000212:                                                                                                  #        3.      SOME ARITHMETIC OPERATIONS REQUIRE A STANDARD TYPE OF OPERAND REGARDLESS OF THE PREVIOUS OPERATION.
000213:                                                                                                  #                THIS INCLUDES SIGN WANTING DP AND TAD REQUIRING TP.
000214:
000215:    6220           34360        PUSHUP             CAF      OCT23                                 #  IF THE LOW 5 BITS OF CYR ARE LESS THAN
000216:    6221           70020                           MASK     CYR                                   #  20, THIS OP REQUIRES SPECIAL ATTENTION.
000217:    6222           66225                           AD       -OCT10                                #  (NO -0).
000218:    6223           10000                           CCS      A
000219:    6224           16236                           TCF      REGUP                                 #  FOR ALL CODES GREATEER THAN OCT 7.
000220:
000221:    6225           77767        -OCT10             OCT      -10
000222:
000223:    6226           66115                           AD       NEG4                                  #  WE NOW HAVE 7 -- OP CODE (MOD4).  SEE IF
000224:    6227           10000                           CCS      A                                     #  THE OP CODE (MOD4) IS THREE (REVERSE).
000225:    6230           50000                           INDEX    A                                     #  NO -- THE MODE IS DEFINITE.  PICK UP THE
000226:    6231           46247                           CS       NO.WDS
000227:    6232           16240                           TCF      REGUP      +2
000228:
000229:    6233           50163                           INDEX    MODE                                  #  FOR VXSC AND V/SC WE WANT THE REQUIRED
000230:    6234           46245                           CS       REVCNT                                #  PUSHLOC DECREMENT WITHOUT CHANGING THE
000231:    6235           16240                           TCF      REGUP      +2                         #  MODE AT THE IS TIME.
000232:
000233:    6236           50163        REGUP              INDEX    MODE                                  #  MOST ALL OP CODES PUSHUP HERE.
000234:    6237           46247                           CS       NO.WDS
000235:    6240           26166                 +2        ADS      PUSHLOC
000236:    6241           54116                           TS       ADDRWD
000237:    6242           50020        ITR14              INDEX    CYR
000238:    6243           76276                           7        INDJUMP    -1                         #  (THE INDEX MAKES THIS A TCF.)
000239:
000240:    6244           00002                           OCT      2                                     #  REVERSE PUSHUP DECREMENT. VECTOR TAKES 2
000241:    6245           00006        REVCNT             OCT      6                                     #  WORDS, SCALAR TAKES 6.
000242:    6246           00006                           OCT      6
000243:    6247           00002        NO.WDS             OCT      2                                     #  CONVENTIONAL DECREMENT IS 6 WORDS VECTOR
000244:    6250           00003        OCTAL3             OCT      3                                     #  2 IN DP, AND 3 IN TP.
000245:    6251           00006                           OCT      6
000246:


000248:                                                                                                  #  TEST THE SECOND PREFIX BIT TO SEE IF THIS IS A MISCELLANEOUS OR A UNARY/SHORT SHIFT OPERATION.
000249:
000250:    6252           10020        OPJUMP2            CCS      CYR                                   #  TEST SECOND PREFIX BIT.
000251:    6253           16266                           TCF      OPJUMP3                               #  TEST THIRD BIT TO SEE IF UNARY OR SHIFT
000252:
000253:    6254           77722        -ENDVAC            DEC      -45        B-14
000254:
000255:                                                                                                  #  THE FOLLOWING ROUTINE PROCESSES ADDRESSES OF SUFFIX CLASS 10.  THEY ARE BASICALLY WORK AREA ADDRESSES
000256:                                                                                                  #  IN THE RANGE 0-52, ERASABLE ECADR CONSTANTS FROM 100-3777, AND FCADRS ABOVE THAT.  ALL 15 BITS ARE AVAILABLE
000257:                                                                                                  #  IN CONTRAST TO SUFFIX 1, IN WHICH ONLY THE LOW ORDER 14 ARE AVAILABLE.
000258:
000259:    6255           24164        15BITADR           INCR     LOC                                   #  (ENTRY HERE FROM STCALL).
000260:    6256           50164                           INDEX    LOC                                   #  PICK UP ADDRESS WORD.
000261:    6257           30000                           CA       0
000262:    6260           54117                           TS       POLISH                                #  WE MAY NEED A SUBADDRESS LATER.
000263:
000264:    6261           35013                           CAF      LOW7+2K                               #  THESE INSTRUCTIONS ARE IN BANK 1.
000265:    6262           54004                           TS       FBANK
000266:    6263           70020                           MASK     CYR
000267:    6264           50000        ITR7               INDEX    A
000268:    6265           16337                           TCF      MISCJUMP
000269:


000271:                                                                                                  #  COMPLETE THE DISPATCHING OF UNARY AND SHORT SHIFT OPERATIONS.
000272:
000273:    6266           54004        OPJUMP3            TS       FBANK                                 #  CALL IN BANK 0 (BIT5S 11-15 OF A ARE 0.)
000274:
000275:    6267           10020                           CCS      CYR                                   #  TEST THIRD PREFIX BIT.
000276:    6270           50000                           INDEX    A                                     #  THE DECREMENTED UNARY CODE IS IN BITS
000277:    6271           12000                           TCF      UNAJUMP                               #  1-4 OF A (ZERO, EXIT, HAS BEEN DETECTED)
000278:
000279:    6272           10163                           CCS      MODE                                  #  IT'S A SHORT SHIFT CODE.  SEE IF PRESENT
000280:    6273           12017                           TCF      SHORTT                                #  SCALAR OR VECTOR.
000281:    6274           12017                           TCF      SHORTT
000282:    6275           12121                           TCF      SHORTV                                #  CALLS THE APPROPRIATE ROUTINE.
000283:
000284:    6276     4350               FBANKMSK           EQUALS   BANKMASK
000285:    6276           00122        LVBUF              ADRES    VBUF
000286:


000288:                                                                                                  #  THE FOLLOWING IS THE JUMP TABLE FOR OP CODES WHICH MAY HAVE INDEXABLE ADDRESSES OR MAY PUSH UP.
000289:
000290:    6277           16510        INDJUMP            TCF      VLOAD                                 #  00 -- LOAD MPAC WITH A VECTOR.
000291:    6300           17074                           TCF      TAD                                   #  01 -- TRIPLE PRECISION ADD TO MPAC.
000292:    6301           17660                           TCF      SIGN                                  #  02 -- COMPLEMENT MPAC (V OR SC) IF X NEG.
000293:    6302           17404                           TCF      VXSC                                  #  03 -- VECTOR TIMES SCALAR.
000294:    6303           16706                           TCF      CGOTO                                 #  04 -- COMPUTED GO TO.
000295:    6304           16473                           TCF      TLOAD                                 #  05 -- LOAD MPAC WITH TRIPLE PRECISION.
000296:    6305           16055                           TCF      DLOAD                                 #  06 -- LOAD MPAC WITH A DP SCALAR.
000297:    6306           17627                           TCF      V/SC                                  #  07 -- VECTOR DIVIDED BY A SCALAR.
000298:
000299:    6307           16504                           TCF      SLOAD                                 #  10 -- LOAD MPACIN SINGLE PRECISION.
000300:    6310           16623                           TCF      SSP                                   #  11 -- SET SINGLE PRECISION INTO X.
000301:    6311           16526                           TCF      PDDL                                  #  12 -- PUSH DOWN MPAC AND RE-LOAD IN DP.
000302:    6312           17337                           TCF      MXV                                   #  13 -- MATRIX POST-MULTIPLIED BY VECTOR.
000303:    6313           16562                           TCF      PDVL                                  #  14 -- PUSH DOWN AND VECTORLOAD.
000304:    6314           16631                           TCF      CCALL                                 #  15 -- COMPUTED CALL.
000305:    6315           17342                           TCF      VXM                                   #  16 -- MATRIX PRE-MULTIPLIED BY VECTOR.
000306:    6316           17621                           TCF      TSLC                                  #  17 -- NORMALIZE MPAC (SCALAR ONLY).
000307:
000308:    6317           17577                           TCF      DMPR                                  #  20 -- DP MULTIPLY AND ROUND.
000309:    6320           17602                           TCF      DDV                                   #  21 -- DP DIVIDE BY.
000310:    6321           17606                           TCF      BDDV                                  #  22 -- DP DIVIDE INTO.
000311:    6322           17624                           TCF      GSHIFT                                #  23 -- GENERAL SHIFT INSTRUCTION
000312:    6323           16754                           TCF      VAD                                   #  24 -- VECTOR ADD.
000313:    6324           16752                           TCF      VSU                                   #  25 -- VECTOR SUBTRACT.
000314:    6325           17041                           TCF      BVSU                                  #  26 -- VECTOR SUBTRACT FROM.
000315:    6326           17334                           TCF      DOT                                   #  27 -- VECTOR DOT PRODUCT.
000316:
000317:    6327           17463                           TCF      VXV                                   #  30 -- VECTOR CROSS PRODUCT.
000318:    6330           17430                           TCF      VPROJ                                 #  31 -- VECTOR PROJECTION.
000319:    6331           17010                           TCF      DSU                                   #  32 -- DP SUBTRACT.
000320:    6332           17065                           TCF      BDSU                                  #  33 -- DP SUBTRACT FROM.
000321:    6333           17000                           TCF      DAD                                   #  34 -- DP ADD.
000322:    6334           16334                           TCF      +0                                    #  35 -- AVAILABLE
000323:    6335           17575                           TCF      DMP1                                  #  36 -- DP MULTIPLY.
000324:    6336           17616                           TCF      SETPD                                 #  37 -- SET PUSH DOWN POINTER (DIRECT ONLY)
000325:
000326:                                                                                                  #  CODES 10 AND 14 MUST NOT PUSH UP. CODE 04 MAY BE USED FOR VECTOR DECLARE BEFORE PUSHUP IF DESIRED.
000327:


000329:                                                                                                  #  THE FOLLOWING JUMP TABLE APPLIES TO INDEX, BRANCH, AND MISCELLANEOUS INSTRUCTIONS.
000330:
000331:    6337           12345        MISCJUMP           TCF      AXT                                   #  00 -- ADDRESS TO INDEX TRUE.
000332:    6340           12352                           TCF      AXC                                   #  01 -- ADDRESS TO INDEX COMPLEMENTED.
000333:    6341           12355                           TCF      LXA                                   #  02 -- LOAD INDEX FROM ERASABLE.
000334:    6342           12361                           TCF      LXC                                   #  03 -- LOAD INDEX FROM COMPLEMENT OF ERAS.
000335:    6343           12365                           TCF      SXA                                   #  04 -- STORE INDEX IN ERASABLE.
000336:    6344           12373                           TCF      XCHX                                  #  05 -- EXCHANGE INDEX WITH ERASABLE.
000337:    6345           12407                           TCF      INCR                                  #  06 -- INCREMENT INDEX REGISTER.
000338:    6346           12416                           TCF      TIX                                   #  07 -- TRANSFER ON INDEX.
000339:
000340:    6347           12401                           TCF      XAD                                   #  10 -- INDEX REGISTER ADD FROM ERASABLE.
000341:    6350           12412                           TCF      XSU                                   #  11 -- INDEX SUBTRACT FROM ERASABLE.
000342:    6351           12470                           TCF      BZE/GOTO                              #  12 -- BRANCH ZERO AND GOTO
000343:    6352           12475                           TCF      BPL/BMN                               #  13 -- BRANCH PLUS AND BRANCH MINUS.
000344:    6353           12450                           TCF      RTB/BHIZ                              #  14 -- RETURN TO BASIC AND BRANCH HI ZERO.
000345:    6354           12510                           TCF      CALL/ITA                              #  15 -- CALL AND STORE QPRET.
000346:    6355           12517                           TCF      SW/                                   #  16 -- SWITCH INSTRUCTIONS AND AVAILABLE.
000347:    6356           12460                           TCF      BOV(B)                                #  17 -- BRANCH ON OVERFLOW TO BASIC OR INT.
000348:


000350:    6357                                           COUNT*   $$/INTER
000351: 00,2000                                           BANK     0                                     #  00 -- EXIT -- DETECTED EARLIER.
000352: 00,2000           13207        UNAJUMP            TCF      SQRT                                  #  01 -- SQUARE ROOT.
000353: 00,2001           13530                           TCF      SINE                                  #  02 -- SIN.
000354: 00,2002           13517                           TCF      COSINE                                #  03 -- COS.
000355: 00,2003           13610                           TCF      ARCSIN                                #  04 -- ARC SIN.
000356: 00,2004           13612                           TCF      ARCCOS                                #  05 -- ARC COS.
000357: 00,2005           13174                           TCF      DSQ                                   #  06 -- DP SQUARE.
000358: 00,2006           12116                           TCF      ROUND                                 #  07 -- ROUND TO DP.
000359:
000360: 00,2007           17673                           TCF      COMP                                  #  10 -- COMPLEMENT VECTOR OR SCALAR
000361: 00,2010           13232                           TCF      VDEF                                  #  11 -- VECTOR DEFINE.
000362: 00,2011           13023                           TCF      UNIT                                  #  12 -- UNIT VECTOR.
000363: 00,2012           13176                           TCF      ABVALABS                              #  13 -- LENGTH OF VECTOR OR MAG OF SCALAR.
000364: 00,2013           13245                           TCF      VSQ                                   #  14 -- SQUARE OF LENGTH OF VECTOR.
000365: 00,2014           16357                           TCF      STADR                                 #  15 -- PUSH UP ON STORE CODE.
000366: 00,2015           13274                           TCF      RVQ                                   #  16 -- RETURN VIA QPRET.
000367: 00,2016           13247                           TCF      PUSH                                  #  17 -- PUSH MPAC DOWN.
000368:


000370:                                                                                                  #  SECTION 2     LOAD AND STORE PACKAGE.
000371:
000372:                                                                                                  #  A SET OF EIGHT STORE CODES IS PROVIDED AS THE PRIMARY METHOD OF STORING THE MULTI-PURPOSE
000373:                                                                                                  #  ACCUMULATOR (MPAC).  IF IN THE DANZIG SECTION LOC REFERS TO AN ALGEBRAICALLY POSITIVE WORD, IT IS TAKEN AS A
000374:                                                                                                  #  STORE CODE WITH A CORRESPONDING ERASABLE ADDRESS.  MOST OF THESE CODES ARE TWO ADDRESS, SPECIFYING THAT THE WORD
000375:                                                                                                  #  FOLLOWING THE STORE CODE IS TO BE USED AS AN ADDRESS FROM WHICH TO RE-LOAD MPAC.  FOUR OPTIONS ARE AVAILABLE:
000376:
000377:                                                                                                  #        1. STORE        STORE MPAC.  THE E ADDRESS MAY BE INDEXED.
000378:                                                                                                  #        2. STODL        STORE MPAC AND RE-LOAD IT IN DP WITH THE NEXT ADDRESS (THE LOAD MAY BE INDEXED).
000379:                                                                                                  #        3. STOVL        STORE MPAC AND RE-LOAD A VECTOR (AS ABOVE).
000380:                                                                                                  #        4. STCALL       STORE AND DO A CALL (BOTH ADDRESES MUST BE DIRECT HERE).
000381:
000382:                                                                                                  #  STODL AND STOVL WILL TAKE FROM THE PUSH-DOWN LIST IF NO LOAD ADDRESS IS GIVEN.
000383:
000384:    6357                                           BLOCK    3
000385:
000386:    6357                                           COUNT*   $$/INTER
000387:    6357           30165        STADR              CA       BANKSET                               #  THE STADR CODE (PUSHUP UP ON STORE
000388:    6360           54004                           TS       FBANK                                 #  ADDRESS) ENTERS HERE.
000389:    6361           24164                           INCR     LOC
000390:    6362           50164        ITR1               INDEX    LOC                                   #  THE STORECODE WAS STORED COMPLEMENTED TO
000391:    6363           40000                           CS       0                                     #  MAKE IT LOOK LIKE AN OPCODE PAIR.
000392:    6364           67752                           AD       NEGONE                                #  (YUL CAN'T REMOVE 1 BECAUSE OF EARLY CCS)
000393:
000394:    6365           54116        DOSTORE            TS       ADDRWD
000395:    6366           74356                           MASK     LOW11                                 #  ENTRY FROM DISPATCHER.  SAVE THE ARASABLE
000396:    6367           56116                           XCH      ADDRWD                                #  ADDRESS AND JUMP ON THE STORE CODE NO.
000397:    6370           77725                           MASK     B12T14
000398:    6371           00006                           EXTEND
000399:    6372           74747                           MP       BIT5                                  #  EACH TRANSFER VECTOR ENTRY IS TWO WORDS.
000400:    6373           50000                           INDEX    A
000401:    6374           16375                           TCF      STORJUMP
000402:


000404:                                                                                                  #  STORE CODE JUMP TABLE.  CALLS THE APPROPRIATE STORING ROUTINE AND EXITS TO DANZIG OR TO ADDRESS WITH
000405:                                                                                                  #  A SUPPLIED OPERATION CODE.
000406:
000407:                                                                                                  #  STORE STORE,1 AND STORE,2 RETURN TO DANZIG, THUS RESETTING THE EBANK TO ITS STATE AT INTPRET.
000408:
000409:    6375           06425        STORJUMP           TC       STORE                                 #  STORE.
000410:    6376           16064                           TCF      DANZIG                                #  PICK UP NEW OP CODE(S).
000411:    6377           06417                           TC       STORE,1
000412:    6400           16064                           TCF      DANZIG
000413:    6401           06422                           TC       STORE,2
000414:    6402           16064                           TCF      DANZIG
000415:
000416:    6403           06425                           TC       STORE                                 #  STODL.
000417:    6404           16463                           TCF      DODLOAD
000418:
000419:    6405           06425                           TC       STORE                                 #  STODL WITH INDEXED LOAD ADDRESS.
000420:    6406           16147                           TCF      DODLOAD*
000421:
000422:    6407           06425                           TC       STORE                                 #  STOVL.
000423:    6410           16466                           TCF      DOVLOAD
000424:
000425:    6411           06425                           TC       STORE                                 #  STOVL WITH INDEXED LOAD ADDRESS.
000426:    6412           16471                           TCF      DOVLOAD*
000427:    6413           06425                           TC       STORE                                 #  STOTC.
000428:    6414           34766                           CAF      CALLCODE
000429:    6415           54020                           TS       CYR
000430:    6416           16255                           TCF      15BITADR                              #  GET A 15 BIT ADDRESS.
000431:


000433:                                                                                                  #  STORE CODE ADDRESS PROCESSOR.
000434:
000435:    6417           50120        STORE,1            INDEX    FIXLOC
000436:    6420           40046                           CS       X1
000437:    6421           16424                           TCF      PRESTORE
000438:
000439:    6422           50120        STORE,2            INDEX    FIXLOC
000440:    6423           40047                           CS       X2
000441:    6424           26116        PRESTORE           ADS      ADDRWD                                #  RESULTANT ADDRESS IS IN ERASABLE.
000442:
000443:    6425           40116        STORE              CS       ADDRWD
000444:    6426           64772                           AD       DEC45
000445:    6427           10000                           CCS      A                                     #  DOES THE ADDRESS POINT TO THE WORK AREA?
000446:    6430           30120                           CA       FIXLOC                                #  YES.
000447:    6431           16436                           TCF      AHEAD5
000448:    6432           35007                           CA       OCT1400                               #  NO.  SET EBANK & MAKE UP SUBADDRESS.
000449:    6433           56116                           XCH      ADDRWD
000450:    6434           54003                           TS       EBANK
000451:    6435           74357                           MASK     LOW8
000452:    6436           26116        AHEAD5             ADS      ADDRWD
000453:


000455:                                                                                                  #  STORING ROUTINES.  STORE DP, TP, OR VECTOR AS INDICATED BY MODE.
000456:
000457:    6437           00006        STARTSTO           EXTEND                                         #  MPAC,+1 MUST BE STORED IN ANY EVENT.
000458:                                                                                                  #  ITRACE (5) REFERS TO "STARTSTO".
000459:    6440           30155                           DCA      MPAC
000460:    6441           50116                           INDEX    ADDRWD
000461:    6442           52001                           DXCH     0
000462:
000463:    6443           10163                           CCS      MODE
000464:    6444           16457                           TCF      TSTORE
000465:    6445           00002                           TC       Q
000466:
000467:    6446           00006        VSTORE             EXTEND
000468:    6447           30160                           DCA      MPAC       +3
000469:    6450           50116                           INDEX    ADDRWD
000470:    6451           52003                           DXCH     2
000471:
000472:    6452           00006                           EXTEND
000473:    6453           30162                           DCA      MPAC       +5
000474:    6454           50116                           INDEX    ADDRWD
000475:    6455           52005                           DXCH     4
000476:    6456           00002                           TC       Q
000477:
000478:    6457           30156        TSTORE             CA       MPAC       +2
000479:    6460           50116                           INDEX    ADDRWD
000480:    6461           54002                           TS       2
000481:    6462           00002                           TC       Q
000482:


000484:                                                                                                  #  ROUTINES TO BEGIN PROCESSING OF THE SECOND ADDRES ASSOCIATED WITH ALL STORE-TYPE CODES EXCEPT STORE
000485:                                                                                                  #  ITSELF.
000486:
000487:    6463           37735        DODLOAD            CAF      DLOADCOD
000488:    6464           54020                           TS       CYR
000489:    6465           16111                           TCF      DIRADRES                              #  GO GET A DIRECT ADDRESS.
000490:
000491:    6466           34735        DOVLOAD            CAF      VLOADCOD
000492:    6467           54020                           TS       CYR
000493:    6470           16111                           TCF      DIRADRES
000494:
000495:    6471           36112        DOVLOAD*           CAF      VLOAD*
000496:    6472           16150                           TCF      DODLOAD*   +1                         #  PROLOGUE TO INDEX ROUTINE.
000497:


000499:                                                                                                  #  THE FOLLOWING LOAD INSTRUCTIONS ARE PROVIDED FOR LOADING THE MULTI-PURPOSE ACCUMULATOR MPAC.
000500:
000501:    6473           50116        TLOAD              INDEX    ADDRWD
000502:    6474           30002                           CA       2                                     #  LOAD A TRIPLE PRECISION ARGUMENT INTO
000503:    6475           54156                           TS       MPAC       +2                         #  THE FIRST THREE MPAC REGISTERS, WITH THE
000504:    6476           00006                           EXTEND                                         #  CONTENTS OF THE OTHER FOUR IRRELEVANT.
000505:    6477           50116                           INDEX    ADDRWD
000506:    6500           30001                           DCA      0
000507:    6501           52155                           DXCH     MPAC
000508:    6502           34753        TMODE              CAF      ONE
000509:    6503           16063                           TCF      NEWMODE                               #  DECLEARE TRIPLE PRECISION MODE.
000510:
000511:    6504           22007        SLOAD              ZL                                             #  LOAD A SINGLE PRECISION NUMBER INTO
000512:    6505           50116                           INDEX    ADDRWD                                #  MPAC, SETTING MPAC+1,2 TO ZERO.  THE
000513:    6506           30000                           CA       0                                     #  CONTENTS OF THE REMAINING MPAC REGISTERS
000514:    6507           16060                           TCF      SLOAD2                                #  ARE IRRELEVANT.
000515:
000516:    6510           00006        VLOAD              EXTEND                                         #  LOAD A DOUBLE PRECISION VECTOR INTO
000517:    6511           50116                           INDEX    ADDRWD                                #  MPAC,+1, MPAC+3,4, AND MPAC+5,6.  THE
000518:    6512           30001                           DCA      0                                     #  CONTENTS OF MPAC +2 ARE IRRELEVANT.
000519:    6513           52155                           DXCH     MPAC
000520:
000521:    6514           00006        ENDVLOAD           EXTEND                                         #  PDVL COMES HERE TO FINISH UP FOR DP, TP.
000522:    6515           50116                           INDEX    ADDRWD
000523:    6516           30003                           DCA      2
000524:    6517           52160                           DXCH     MPAC       +3
000525:
000526:    6520           00006                 +4        EXTEND                                         #  TPDVL FINISHES HERE.
000527:    6521           50116                           INDEX    ADDRWD
000528:    6522           30005                           DCA      4
000529:    6523           52162                           DXCH     MPAC       +5
000530:
000531:    6524           44753        VMODE              CS       ONE                                   #  DECLARE VECTOR MODE.
000532:    6525           16063                           TCF      NEWMODE
000533:


000535:                                                                                                  #  THE FOLLOWING INSTRUCTIONS ARE PROVIDED FOR STORING OPERANDS IN THE PUSHDOWN LIST:
000536:                                                                                                  #        1.      PUSH            PUSHDOWN AND NO LOAD.
000537:                                                                                                  #        2.      PDDL            PUSHDOWN AND DOUBLE PRECISION LOAD.
000538:                                                                                                  #        3.      PDVL            PUSHDOWN AND VECTOR LOAD.
000539:
000540:    6526           00006        PDDL               EXTEND
000541:    6527           50116                           INDEX    ADDRWD                                #  LOAD MPAC,+1, PUSHING THE FORMER
000542:    6530           30001                           DCA      0                                     #  CONTENTS DOWN.
000543:    6531           52155                           DXCH     MPAC
000544:    6532           50166                           INDEX    PUSHLOC
000545:    6533           52001                           DXCH     0
000546:
000547:    6534           50163                           INDEX    MODE                                  #  ADVANCE THE PUSHDOWN POINTER APPRO-
000548:    6535           36247                           CAF      NO.WDS                                #  PRIATELY.
000549:    6536           26166                           ADS      PUSHLOC
000550:
000551:    6537           10163                           CCS      MODE
000552:    6540           16555                           TCF      ENDTPUSH
000553:    6541           16553                           TCF      ENDDPUSH
000554:
000555:    6542           54163                           TS       MODE                                  #  NOW DP.
000556:    6543           54156        ENDVPUSH           TS       MPAC       +2
000557:    6544           52160                           DXCH     MPAC       +3                         #  PUSH DOWN THE REST OF THE VECTOR HERE.
000558:    6545           50166                           INDEX    PUSHLOC
000559:    6546           51775                           DXCH     0          -4
000560:
000561:    6547           52162                           DXCH     MPAC       +5
000562:    6550           50166                           INDEX    PUSHLOC
000563:    6551           51777                           DXCH     0          -2
000564:
000565:    6552           16064                           TCF      DANZIG
000566:
000567:    6553           54156        ENDDPUSH           TS       MPAC       +2                         #  SET MPAC +2 TO ZERO AND EXIT ON DP.
000568:    6554           16064                           TCF      DANZIG
000569:
000570:    6555           54163        ENDTPUSH           TS       MODE
000571:    6556           56156                           XCH      MPAC       +2                         #  ON TRIPLE, SET MPAC +2 TO ZERO, PUSHING
000572:    6557           50166                 +2        INDEX    PUSHLOC                               #  DOWN THE OLD CONTENTS
000573:    6560           53777                           TS       0          -1
000574:    6561           16064                           TCF      DANZIG
000575:


000577:                                                                                                  #  PDVL -- PUSHDOWN AND VECTOR LOAD
000578:
000579:    6562           00006        PDVL               EXTEND                                         #  RELOAD MPAC AND PUSH DOWN ITS CONTENTS.
000580:    6563           50116                           INDEX    ADDRWD
000581:    6564           30001                           DCA      0
000582:    6565           52155                           DXCH     MPAC
000583:    6566           50166                           INDEX    PUSHLOC
000584:    6567           52001                           DXCH     0
000585:
000586:    6570           50163                           INDEX    MODE                                  #  ADVANCE THE PUSHDOWN POINTER.
000587:    6571           36247                           CAF      NO.WDS
000588:    6572           26166                           ADS      PUSHLOC
000589:
000590:    6573           10163                           CCS      MODE                                  #  TEST PAST MODE.
000591:    6574           16613                           TCF      TPDVL
000592:    6575           16514                           TCF      ENDVLOAD                              #  JUST LOAD LAST FOUR REGISTERS ON DP.
000593:
000594:    6576           00006        VPDVL              EXTEND                                         #  PUSHDOWN AND RE-LOAD LAST TWO COMPONENTS
000595:    6577           50116                           INDEX    ADDRWD
000596:    6600           30003                           DCA      2
000597:    6601           52160                           DXCH     MPAC       +3
000598:    6602           50166                           INDEX    PUSHLOC
000599:    6603           51775                           DXCH     0          -4
000600:
000601:    6604           00006                           EXTEND
000602:    6605           50116                           INDEX    ADDRWD
000603:    6606           30005                           DCA      4
000604:    6607           52162                           DXCH     MPAC       +5
000605:    6610           50166                           INDEX    PUSHLOC
000606:    6611           51777                           DXCH     0          -2
000607:
000608:    6612           16064                           TCF      DANZIG
000609:
000610:    6613           00006        TPDVL              EXTEND                                         #  ON TP, WE MUST LOAD THE Y COMPONENT
000611:    6614           50116                           INDEX    ADDRWD                                #  BEFORE STORING MPAC +2 IN CASE THIS IS A
000612:    6615           30003                           DCA      2                                     #  PUSHUP.
000613:    6616           52160                           DXCH     MPAC       +3
000614:
000615:    6617           30156                           CA       MPAC       +2
000616:    6620           50166                           INDEX    PUSHLOC                               #  IN DP.
000617:    6621           53777                           TS       0          -1
000618:    6622           16520                           TCF      ENDVLOAD   +4
000619:
000620:                                                                                                  #  SSP (STORE SINGLE PRECISION) IS EXECUTED HERE.
000621:
000622:    6623           24164        SSP                INCR     LOC                                   #  PICK UP THE WORD FOLLOWING THE GIVEN
000623:    6624           50164                           INDEX    LOC                                   #  ADDRESS AND STORE IT AT X.
000624:    6625           30000                           CA       0
000625:    6626           50116        STORE1             INDEX    ADDRWD                                #  SOME INDEX AND MISCELLANEOUS OPS END
000626:    6627           54000                           TS       0                                     #  HERE.


000628:    6630           16064                           TCF      DANZIG
000629:


000631:                                                                                                  #  SEQUENCE CHANGING AND SUBROUTINE CALLING OPTIONS.
000632:
000633:                                                                                                  #  THE FOLLOWING OPERATIONS ARE AVAILABLE FOR SEQUENCING CHANGING, BRANCHING, AND CALLING SUBROUTINES:
000634:                                                                                                  #        1.      GOTO            GO TO.
000635:                                                                                                  #        2.      CALL            CALL SUBROUTINE SETTING QPRET.
000636:                                                                                                  #        3.      CGOTO           COMPUTED GO TO.
000637:                                                                                                  #        4.      CCALL           COMPUTED CALL.
000638:                                                                                                  #        7.      BPL             BRANCH IF MPAC POSITIVE OR ZERO.
000639:                                                                                                  #        8.      BZE             BRANCH IF MPAC ZERO.
000640:                                                                                                  #        9.      BMN             BRANCH IF MPAC NEGATIVE NON-ZERO.
000641:
000642:    6631           24164        CCALL              INCR     LOC                                   #  MAINTAIN LOC FOR QPRET COMPUTATION
000643:    6632           50164                           INDEX    LOC
000644:    6633           30000                           CAF      0                                     #  GET BASE ADDRESS OF CADR LIST.
000645:    6634           50116                           INDEX    ADDRWD
000646:    6635           60000                           AD       0                                     #  ADD INCREMENT.
000647:    6636           54004                           TS       FBANK                                 #  SELECT DESIRED CADR.
000648:    6637           75012                           MASK     LOW10
000649:    6640           50000                           INDEX    A
000650:    6641           32000                           CAF      10000
000651:    6642           54117                           TS       POLISH
000652:
000653:    6643           30165        CALL               CA       BANKSET                               #  FOR ANY OF THE CALL OPTIONS, MAKE UP THE
000654:    6644           74350                           MASK     BANKMASK                              #  ADDRESS OF THE NEXT OP-CODE PAIR/STORE
000655:    6645           64350                           AD       BANKMASK                              #  CODE AND LEAVE IT IN QPRET.  NOTE THAT
000656:    6646           60164                           AD       LOC                                   #  BANKMASK = -(2000 - 1).
000657:    6647           50120                           INDEX    FIXLOC
000658:    6650           54052                           TS       QPRET
000659:
000660:    6651           30117        GOTO               CA       POLISH                                #  BASIC BRANCHING SEQUENCE.
000661:    6652           77745                 +1        MASK     HIGH4
000662:    6653           00006                           EXTEND
000663:    6654           16665                           BZF      GOTOERS                               #  SEE IF ADDRESS POINTS TO FIXED OR ERAS.
000664:    6655           30165                 +4        CA       BANKSET                               #  SET EBANK PART OF BBANK.  NEXT, SET UP
000665:    6656           54006                           TS       BBANK                                 #  FBANK.  THE COMBINATION IS PICKED UP &
000666:    6657           30117                           CA       POLISH                                #  PUT INTO BANKSET AT INTPRET +2.
000667:    6660           54004                           TS       FBANK
000668:    6661           75012                           MASK     LOW10
000669:    6662           64741                           AD       2K
000670:    6663           54164                           TS       LOC
000671:    6664           16045                           TCF      INTPRET    +3
000672:
000673:    6665  E3,1400                                  EBANK=   1400                                  #  SO YUL DOESN'T CUSS THE "CA 1400" BELOW.
000674:
000675:    6665           30117        GOTOERS            CA       POLISH                                #  THE GIVEN ADDRESS IS IN ERASABLE -- SEE
000676:    6666           66254                           AD       -ENDVAC                               #  IF RELATIVE TO THE WORK ARA.
000677:    6667           10000                           CCS      A
000678:    6670           30117                           CA       POLISH                                #  GENERAL ERASABLE.
000679:    6671           16700                           TCF      GOTOGE
000680:


000682:    6672           30120                           CA       FIXLOC                                #  WORK AREA.
000683:    6673           60117                           AD       POLISH
000684:    6674           50000                           INDEX    A                                     #  USE THE GIVEN ADDRESS AS THE ADDRESS OF
000685:    6675           30000                           CA       0                                     #  THE BRANCH ADDRESS.
000686:    6676           54117                           TS       POLISH
000687:    6677           16652                           TCF      GOTO       +1                         #  ALLOWS ARBITRARY INDIRECTNESS LEVELS.
000688:
000689:    6700           54003        GOTOGE             TS       EBANK
000690:    6701           74357                           MASK     LOW8
000691:    6702           50000                           INDEX    A                                     #  USE THE GIVEN ADDRESS AS THE ADDRESS OF
000692:    6703           31400                           CA       1400                                  #  THE BRANCH ADDRESS.
000693:    6704           54117                           TS       POLISH
000694:    6705           16652                           TCF      GOTO       +1
000695:
000696:    6706           50164        CGOTO              INDEX    LOC                                   #  COMPUTED GO TO.  PICK UP ADDRESS OF CADR
000697:    6707           30001                           CA       1                                     #  LIST
000698:    6710           50116                           INDEX    ADDRWD                                #  ADD MODIFIER.
000699:    6711           60000                           AD       0
000700:    6712           54004                           TS       FBANK                                 #  SELECT GOTO ADDRESS
000701:    6713           75012                           MASK     LOW10
000702:    6714           50000                           INDEX    A
000703:    6715           32000                           CA       10000
000704:    6716           54117                           TS       POLISH
000705:    6717           16652                           TCF      GOTO       +1                         #  WITH ADDRESS IN A.
000706:
000707:    6720           30165        SWBRANCH           CA       BANKSET                               #  SWITCH INSTRUCTIONS WHICH ELECT TO
000708:    6721           54004                           TS       FBANK                                 #  BRANCH COME HERE TO DO SO.
000709:    6722           50164                           INDEX    LOC
000710:    6723           30001                           CA       1
000711:    6724           54117                           TS       POLISH
000712:    6725           16652                           TCF      GOTO       +1
000713:


000715:                                                                                                  #  TRIPLE PRECISION BRANCHING ROUTINE.  IF CALLING TC IS AT L, RETURN IS AS FOLLOWS:
000716:                                                                                                  #        L+1     IF MPAC IS GREATER THAN ZERO.
000717:                                                                                                  #        L+2     IF MPAC IS EQUAL TO +0 OR -0.
000718:                                                                                                  #        L+3     IF MPAC IS LESS THAN ZERO.
000719:
000720:    6726           10154        BRANCH             CCS      MPAC
000721:    6727           00002                           TC       Q
000722:    6730           16732                           TCF      +2                                    #  ON ZERO.
000723:    6731           16744                           TCF      NEG
000724:
000725:    6732           10155                           CCS      MPAC       +1
000726:    6733           00002                           TC       Q
000727:    6734           16736                           TCF      +2
000728:    6735           16744                           TCF      NEG
000729:
000730:    6736           10156                           CCS      MPAC       +2
000731:    6737           00002                           TC       Q
000732:    6740           16742                           TCF      +2
000733:    6741           16744                           TCF      NEG
000734:
000735:    6742           50002        Q+1                INDEX    Q
000736:    6743           00001                           TC       1
000737:
000738:    6744           50002        NEG                INDEX    Q                                     #  IF FIRST NON-ZERO REGISTER WAS NEGATIVE.
000739:    6745           00002                           TC       2
000740:
000741:    6746     6744               Q+2                =        NEG
000742:
000743:                                                                                                  #  ITRACE (3) REFERS TO "EXIT".
000744:
000745:    6746           30165        EXIT               CA       BANKSET                               #  RESTORE USER'S BANK SETTING, AND LEAVE
000746:    6747           54006                           TS       BBANK                                 #  INTERPRETIVE MODE.
000747:    6750           50164                           INDEX    LOC
000748:    6751           00001                           TC       1
000749:


000751:                                                                                                  #  SECTION 3 -- ADD/SUBTRACT PACKAGE.
000752:
000753:                                                                                                  #  THE FOLLOWING OPERATIONS ARE PROVIDED FOR ADDING TO AND SUBTRACTING FROM THE MULTI-PURPOSE ACCUMULATOR
000754:                                                                                                  #  MPAC:
000755:                                                                                                  #        1.      DAD     DOUBLE PRECISION ADD.
000756:                                                                                                  #        2.      DSU     DOUBLE PRECISION SUBTRACT.
000757:                                                                                                  #        3.      BDSU    DOUBLE PRECISION SUBTRACT FROM.
000758:                                                                                                  #        4.      TAD     TRIPLE PRECISION ADD.
000759:                                                                                                  #        5.      VAD     VECTOR ADD.
000760:                                                                                                  #        6.      VSU     VECTOR SUBTRACT.
000761:                                                                                                  #        7.      BVSU    VECTOR SUBTRACT FROM.
000762:                                                                                                  #  THE INTERPRETIVE OVERFLOW INDICATOR OVFIND IS SET NON-ZERO IF OVERFLOW OCCURS IN ANY OF THE ABOVE.
000763:
000764:    6752           34735        VSU                CAF      BIT15                                 #  CHANGES 0 TO DCS.
000765:    6753           16755                           TCF      +2
000766:
000767:    6754           34355        VAD                CAF      PRIO30                                #  CHANGES 0 TO DCA.
000768:    6755           26116                           ADS      ADDRWD
000769:    6756           00006                           EXTEND
000770:    6757           50116                           INDEX    ADDRWD
000771:    6760           00003                           READ     HISCALAR                              #  DCA 2 OR DCS 2
000772:    6761           20160                           DAS      MPAC       +3
000773:    6762           00006                           EXTEND                                         #  CHECK OVERFLOW.
000774:    6763           16765                           BZF      +2
000775:    6764           07017                           TC       OVERFLWY
000776:
000777:    6765           00006                           EXTEND
000778:    6766           50116                           INDEX    ADDRWD
000779:    6767           00005                           READ     CHAN5                                 #  DCA 4 OR DCS 4
000780:    6770           20162                           DAS      MPAC       +5
000781:    6771           00006                           EXTEND
000782:    6772           16774                           BZF      +2
000783:    6773           07014                           TC       OVERFLWZ
000784:
000785:    6774           00006                           EXTEND
000786:    6775           50116                           INDEX    ADDRWD
000787:    6776           00001                           READ     LCHAN                                 #  DCA 0 OR DCS 0
000788:    6777           17003                           TCF      ENDVXV
000789:
000790:    7000           00006        DAD                EXTEND
000791:    7001           50116                           INDEX    ADDRWD
000792:    7002           30001                           DCA      0
000793:    7003           20155        ENDVXV             DAS      MPAC                                  #  VXV FINISHES HERE.
000794:    7004           00006                           EXTEND
000795:    7005           16064                           BZF      DANZIG
000796:


000798:    7006           07022        SETOVF             TC       OVERFLOW
000799:    7007           16064                           TCF      DANZIG
000800:


000802:    7010           00006        DSU                EXTEND
000803:    7011           50116                           INDEX    ADDRWD
000804:    7012           40001                           DCS      0
000805:    7013           17003                           TCF      ENDVXV
000806:
000807:    7014           54001        OVERFLWZ           TS       L                                     #  ENTRY FOR THIRD COMPONENT.
000808:    7015           34756                           CAF      FIVE
000809:    7016           17021                           TCF      +3
000810:
000811:    7017           54001        OVERFLWY           TS       L                                     #  ENTRY FOR SECOND COMPONENT.
000812:    7020           36250                           CAF      THREE
000813:    7021           56001                           XCH      L
000814:
000815:    7022           50000        OVERFLOW           INDEX    A                                     #  ENTRY FOR 1ST COMP OR DP (L=0).
000816:    7023           44734                           CS       LIMITS                                #  PICK UP POSMAX OR NEGMAX.
000817:    7024           54130                           TS       BUF
000818:    7025           00006                           EXTEND
000819:    7026           24000                           AUG      A
000820:    7027           50001                           INDEX    L
000821:    7030           26155                           ADS      MPAC       +1
000822:    7031           54007                           TS       7
000823:    7032           34755                           CAF      ZERO
000824:    7033           60130                           AD       BUF
000825:    7034           50001                           INDEX    L
000826:    7035           26154                           ADS      MPAC
000827:    7036           54007                           TS       7
000828:    7037           00002                           TC       Q                                     #  NO OVERFLOW EXIT.
000829:    7040           17155                           TCF      SETOVF2                               #  SET OVFIND AND EXIT.
000830:
000831:    7041           00006        BVSU               EXTEND
000832:    7042           50116                           INDEX    ADDRWD
000833:    7043           30003                           DCA      2
000834:    7044           52160                           DXCH     MPAC       +3
000835:    7045           00006                           EXTEND
000836:    7046           40001                           DCOM
000837:    7047           20160                           DAS      MPAC       +3
000838:    7050           00006                           EXTEND
000839:    7051           17053                           BZF      +2
000840:    7052           07017                           TC       OVERFLWY
000841:
000842:    7053           00006                           EXTEND
000843:    7054           50116                           INDEX    ADDRWD
000844:    7055           30005                           DCA      4
000845:    7056           52162                           DXCH     MPAC       +5
000846:    7057           00006                           EXTEND
000847:    7060           40001                           DCOM
000848:    7061           20162                           DAS      MPAC       +5
000849:    7062           00006                           EXTEND
000850:    7063           17065                           BZF      +2
000851:    7064           07014                           TC       OVERFLWZ
000852:


000854:    7065           00006        BDSU               EXTEND
000855:    7066           50116                           INDEX    ADDRWD
000856:    7067           30001                           DCA      0
000857:    7070           52155                           DXCH     MPAC
000858:    7071           00006                           EXTEND
000859:    7072           40001                           DCOM
000860:    7073           17003                           TCF      ENDVXV
000861:


000863:                                                                                                  #  TRIPLE PRECISION ADD ROUTINE.
000864:
000865:    7074           00006        TAD                EXTEND
000866:    7075           50116                           INDEX    ADDRWD
000867:    7076           30002                           DCA      1                                     #  ADD MINOR PARTS FIRST.
000868:    7077           20156                           DAS      MPAC       +1
000869:    7100           50116                           INDEX    ADDRWD
000870:    7101           60000                           AD       0
000871:    7102           60154                           AD       MPAC
000872:    7103           54154                           TS       MPAC
000873:    7104           16064                           TCF      DANZIG
000874:
000875:    7105           17006                           TCF      SETOVF                                #  SET OVFIND IF SUCH OCCURS.
000876:


000878:                                                                                                  #  ARITHMETIC SUBROUTINES REQUIRED IN FIXED-FIXED.
000879:                                                                                                  #        1.  DMPSUB      DOUBLE PRECISION MULTIPLY, MULTIPLY THE CONTENTS OF MPAC,+1 BY THE DP WORD WHOSE ADDRESS
000880:                                                                                                  #                        IS IN ADDRWD AND LEAVE A TRIPLE-PRECISION RESULT IN MPAC.
000881:                                                                                                  #        2.  ROUNDSUB    ROUND THE TRIPLE PRECISION CONTENTS OF MPAC TO DOUBLE PRECISION.
000882:                                                                                                  #        3.  DOTSUB      TAKE THE DOT PRODUCT OF THE VECTOR IN MPAC AND THE VECTOR WHOSE ADDRESS IS IN ADDRWD
000883:                                                                                                  #                        AND LEAVE THE TRIPLE PRECISION RESULT IN MPAC.
000884:                                                                                                  #        4.  POLY        USING THE CONTENTS OF MPAC AS A DP ARGUMENT, EVALUATE THE POLYNOMIAL WHOSE DEGREE AND
000885:                                                                                                  #                        COEFFICIENTS IMMEDIATELY FOLLOW THE TC POLY INSTRUCTION (SEE ROUTINE FOR DETAILS).
000886:
000887:    7106           50002        DMP                INDEX    Q                                     #  BASIC SUBROUTINE FOR USE BY PINBALL, ETC
000888:    7107           30000                           CAF      0
000889:    7110           24002                           INCR     Q
000890:    7111           54116                 -1        TS       ADDRWD                                #  (PROLOGUE FOR SETTING ADDRWD.)
000891:
000892:    7112           50116        DMPSUB             INDEX    ADDRWD                                #  GET MINOR PART OF OPERAND AT C(ADDRWD).
000893:    7113           30001                           CA       1
000894:    7114           54156                           TS       MPAC       +2                         #  THIS WORKS FOR SQUARING MPAC AS WELL.
000895:    7115           34755                           CAF      ZERO                                  #  SET MPAC +1 TO ZERO SO WE CAN ACCUMULATE
000896:    7116           56155                           XCH      MPAC       +1                         #  THE PARTIAL PRODUCTS WITH DAS
000897:    7117           54135                           TS       MPTEMP                                #  INSTRUCTIONS.
000898:    7120           00006                           EXTEND
000899:    7121           70156                           MP       MPAC       +2                         #  MINOR OF MPAC X MINOR OF C(ADDRWD).
000900:
000901:    7122           56156                           XCH      MPAC       +2                         #  DISCARD MINOR PART OF ABOVE RESULT AND
000902:    7123           00006                           EXTEND                                         #  FORM MAJOR OF MPAC X MINOR OF C(ADDRWD).
000903:    7124           70154                           MP       MPAC
000904:    7125           20156                           DAS      MPAC       +1                         #  GUARANTEED NO OVERFLOW.
000905:
000906:    7126           50116                           INDEX    ADDRWD                                #  GET MAJOR PART OF ARGUMENT AT C(ADDRWD).
000907:    7127           30000                           CA       0
000908:    7130           56135                           XCH      MPTEMP                                #  SAVE AND BRING OUT MINOR OF MPAC.
000909:    7131           00006        DMPSUB2            EXTEND
000910:    7132           70135                           MP       MPTEMP                                #  MAJOR OF C(ADDRWD) X MINOR OF MPAC.
000911:    7133           20156                           DAS      MPAC       +1                         #  ACCUMULATE, SETTING A TO NET OVERFLOW.
000912:
000913:    7134           56154                           XCH      MPAC                                  #  SETTING MPAC TO 0 OR +-1.
000914:    7135           00006                           EXTEND
000915:    7136           70135                           MP       MPTEMP                                #  MAJOR OF MPAC X MAJOR OF C(ADDRWD).
000916:    7137           20155                           DAS      MPAC                                  #  GUARANTEED NO OVERFLOW.
000917:    7140           00002                           TC       Q                                     #  49 MCT = .573 MS. INCLUDING RETURN.
000918:


000920:                                                                                                  #  ROUND MPAC TO DOUBLE PRECISION, SETTING OVFIND ON THE RARE EVENT OF OVERFLOW.
000921:
000922:    7141           34755        ROUNDSUB           CAF      ZERO                                  #  SET MPAC +2 = 0 FOR SCALARS AND CHANGE
000923:    7142           54163                 +1        TS       MODE                                  #  MODE TO DP.
000924:
000925:    7143           56156        VROUND             XCH      MPAC       +2                         #  BUT WE NEEDN'T TAKE THE TIME FOR VECTORS.
000926:    7144           60000                           DOUBLE
000927:    7145           54001                           TS       L
000928:    7146           00002                           TC       Q
000929:
000930:    7147           60155                           AD       MPAC       +1                         #  ADD ROUDING BIT IF MPAC +2 WAS GREATER
000931:    7150           54155                           TS       MPAC       +1                         #  THAN .5 IN MAGNITUDE.
000932:    7151           00002                           TC       Q
000933:
000934:    7152           60154                           AD       MPAC                                  #  PROPAGATE INTERFLOW.
000935:    7153           54154                           TS       MPAC
000936:    7154           00002                           TC       Q
000937:
000938:    7155           54121        SETOVF2            TS       OVFIND                                #  (RARE).
000939:    7156           00002                           TC       Q
000940:


000942:                                                                                                  #  THE DOT PRODUCT SUBROUTINE USUALLY FORMS THE DOT PRODUCT OF THE VECTOR IN MPAC WITH A STANDARD SIX
000943:                                                                                                  #  REGISTER VECTOR WHOSE ADDRESS IS IN ADDRWD.  IN THIS CASE C(DOTINC) ARE SET TO 2.   VXM, HOWEVER, SETS C(DOTINC) TO
000944:                                                                                                  #  6 SO THAT DOTSUB DOTS MPAC WITH A COLUMN VECTOR OF THE MATRIX IN QUESTION IN THIS CASE.
000945:
000946:    7157           34752        PREDOT             CAF      TWO                                   #  PROLOGUE TO SET DOTINC TO 2.
000947:    7160           54136                           TS       DOTINC
000948:
000949:    7161           00006        DOTSUB             EXTEND
000950:    7162           22137                           QXCH     DOTRET                                #  SAVE RETURN
000951:    7163           07112                           TC       DMPSUB                                #  DOT X COMPONENTS.
000952:    7164           52160                           DXCH     MPAC       +3                         #  POSITION Y COMPONENT OF MPAC FOR
000953:    7165           52155                           DXCH     MPAC                                  #  MULTIPLICATION WHILE SAVING RESULT IN
000954:    7166           52131                           DXCH     BUF                                   #  THREE WORD BUFFER, BUF.
000955:    7167           30156                           CA       MPAC       +2
000956:    7170           54132                           TS       BUF        +2
000957:
000958:    7171           30136                           CA       DOTINC                                #  ADVANCE ADDRWD TO Y COMPONENT OF
000959:    7172           26116                           ADS      ADDRWD                                #  OTHER ARGUMENT.
000960:    7173           07112                           TC       DMPSUB
000961:    7174           52156                           DXCH     MPAC       +1                         #  ACCUMULATE PARTIAL PRODUCTS.
000962:    7175           20132                           DAS      BUF        +1
000963:    7176           60154                           AD       MPAC
000964:    7177           60130                           AD       BUF
000965:    7200           54130                           TS       BUF
000966:    7201           17203                           TCF      +2
000967:    7202           54121                           TS       OVFIND                                #  IF OVERFLOW OCCURS.
000968:
000969:    7203           52162                           DXCH     MPAC       +5                         #  MULTIPLY Z COMPONENTS.
000970:    7204           52155                           DXCH     MPAC
000971:    7205           30136                           CA       DOTINC
000972:    7206           26116                           ADS      ADDRWD
000973:    7207           07112                           TC       DMPSUB
000974:    7210           52132        ENDDOT             DXCH     BUF        +1                         #  LEAVE FINAL ACCUMULATION IN MPAC.
000975:    7211           20156                           DAS      MPAC       +1
000976:    7212           60154                           AD       MPAC
000977:    7213           60130                           AD       BUF
000978:    7214           54154                           TS       MPAC
000979:    7215           00137                           TC       DOTRET
000980:
000981:    7216           07022                           TC       OVERFLOW                              #  ON OVERFLOW HERE.
000982:    7217           00137                           TC       DOTRET
000983:


000985:                                                                                                  #  DOUBLE PRECISION POLYNOMIAL EVALUATOR
000986:                                                                                                  #                                  N        N-1
000987:                                                                                                  #        THIS ROUTINE EVALUATES A X  + A   X    + ... + A  X + A  LEAVING THE DP RESULT IN MPAC ON EXIT.
000988:                                                                                                  #                                N      N-1              1      0
000989:
000990:                                                                                                  #  THE ROUTINE HAS TWO ENTRIES
000991:
000992:                                                                                                  #        1       ENTRY THRU POWRSERS.  THE COEFFICIENTS MAY BE EITHER IN FIXED OR ERASABLE E.  THE CALL IS BY
000993:                                                                                                  #                TC POWRSERS, AND THE RETURN IS TO LOC(TC POWRSERS)+1.  THE ENTERING DATA MUST BE AS FOLLOWS:
000994:                                                                                                  #                        A       SP      LOC-3           ADDRESS FOR REFERENCING COEF TABLE
000995:                                                                                                  #                        L       SP      N-1             N IS THE DEGREE OF THE POWER SERIES
000996:                                                                                                  #                        MPAC    DP      X               ARGUMENT
000997:                                                                                                  #                        LOC-2N  DP      A(0)
000998:                                                                                                  #                                ...
000999:                                                                                                  #                        LOC     DP      A(N)
001000:
001001:                                                                                                  #        2.      ENTRY THRU POLY.  THE CALL TO POLY AND THE ENTERING DATA MUST BE AS FOLLOWS
001002:                                                                                                  #                        MPAC            DP              X               ARGUMENT
001003:                                                                                                  #                        LOC             TC              POLY
001004:                                                                                                  #                        LOC+1           DP              A(0)
001005:                                                                                                  #                                        ...
001006:                                                                                                  #                        LOC+2N+2        DP              A(N)            RETURN IS TO LOC+2N+4
001007:
001008:    7220           00006        POWRSERS           EXTEND
001009:    7221           22141                           QXCH     POLYRET                               #  RETURN ADDRESS
001010:    7222           54117                           TS       POLISH                                #  POWER SERIES ADDRESS
001011:    7223           22140                           LXCH     POLYCNT                               #  N-1 TO COUNTER
001012:    7224           17235                           TCF      POLYCOM                               #  SKIP SET UP BY POLY
001013:
001014:    7225           50002        POLY               INDEX    Q
001015:    7226           30000                           CAF      0
001016:    7227           54140                           TS       POLYCNT                               #  N-1 TO COUNTER
001017:    7230           60000                           DOUBLE
001018:    7231           60002                           AD       Q
001019:    7232           54117                           TS       POLISH                                #  L(A(N))-3 TO POLISH
001020:    7233           64756                           AD       FIVE
001021:    7234           54141                           TS       POLYRET                               #  STORE RETURN ADDRESS
001022:
001023:    7235           36276        POLYCOM            CAF      LVBUF                                 #  INCOMING X WILL BE MOVED TO VBUF, SO
001024:    7236           54116                           TS       ADDRWD                                #  SET ADDRWD SO DMPSUB WILL MPY BY VBUF.
001025:
001026:    7237           00006                           EXTEND
001027:    7240           50117                           INDEX    POLISH
001028:    7241           30004                           DCA      3
001029:


001031:    7242           52155                           DXCH     MPAC                                  #  LOAD A(N) INTO MPAC
001032:    7243           52123                           DXCH     VBUF                                  #  SAVING X IN VBUF
001033:    7244           17250                           TCF      POLY2
001034:
001035:    7245           54140        POLYLOOP           TS       POLYCNT                               #  SAVE DECREMENTD LOOP COUNTER
001036:    7246           44752                           CS       TWO
001037:    7247           26117                           ADS      POLISH                                #  REGRESS COEFFICIENT POINTER
001038:
001039:    7250           07112        POLY2              TC       DMPSUB                                #  MULTIPLY BY X
001040:    7251           00006                           EXTEND
001041:    7252           50117                           INDEX    POLISH
001042:    7253           30002                           DCA      1                                     #  ADD IN NEXT COEFFICIENT
001043:    7254           20155                           DAS      MPAC                                  #  USER'S RESPONSIBILITY TO ASSURE NO OVFLOW
001044:
001045:    7255           10140                           CCS      POLYCNT
001046:    7256           17245                           TCF      POLYLOOP
001047:    7257           00141                           TC       POLYRET                               #  RETURN CALLER
001048:


001050:                                                                                                  #  MISCELLANEOUS MULTI-PRECISION ROUTINES REQUIRED IN FIXED-FIXED BUT NOT USED BY THE INTERPRETER.
001051:
001052:    7260           34755        DPAGREE            CAF      ZERO                                  #  DOUBLE PRECISION ENTRY --
001053:    7261           54156                           TS       MPAC       +2                         #  ZERO LOW-ORDER WORD
001054:
001055:    7262           22002        TPAGREE            LXCH     Q                                     #  FORCE SIGN AGREEMENT AMONG THE TRIPLE
001056:    7263           06726                           TC       BRANCH                                #  PRECISION CONTENTS OF MPAC.  RETURNING
001057:    7264           17270                           TCF      ARG+                                  #  WITH SIGNUM OF THE INPUT IN A.
001058:    7265           17310                           TCF      ARGZERO
001059:
001060:    7266           44733                           CS       POSMAX                                #  IF NEGATIVE.
001061:    7267           17271                           TCF      +2
001062:
001063:    7270           34733        ARG+               CAF      POSMAX
001064:    7271           54002                           TS       Q
001065:    7272           00006                           EXTEND
001066:    7273           24000                           AUG      A                                     #  FORMS +-1.0.
001067:    7274           60156                           AD       MPAC       +2
001068:    7275           54156                           TS       MPAC       +2
001069:    7276           34755                           CAF      ZERO
001070:    7277           60002                           AD       Q
001071:    7300           60155                           AD       MPAC       +1
001072:    7301           54155                           TS       MPAC       +1
001073:    7302           34755                           CAF      ZERO
001074:    7303           60002                           AD       Q                                     #  Q STILL HAS POSMAX OR NEGMAX IN IT.
001075:    7304           60154                           AD       MPAC
001076:    7305           54154        ARGZERO2           TS       MPAC                                  #  ALWAYS SKIPPING UNLESS ARGZERO.
001077:    7306           54155                           TS       MPAC       +1
001078:    7307           00001                           TC       L                                     #  RETURN VIA L.
001079:
001080:    7310           54156        ARGZERO            TS       MPAC       +2                         #  SET ALL THREE MPAC REGISTERS TO ZERO.
001081:    7311           17305                           TCF      ARGZERO2
001082:
001083:                                                                                                  #  SHORTMP MULTIPLIES THE TP CONTENTS OF MPAC BY THE SINGLE PRECISION NUMBER ARRIVING IN A.
001084:
001085:    7312           54135        SHORTMP            TS       MPTEMP
001086:    7313           00006                           EXTEND
001087:    7314           70156                           MP       MPAC       +2
001088:    7315           54156                           TS       MPAC       +2
001089:    7316           34755        SHORTMP2           CAF      ZERO                                  #  SO SUBSEQUENT DAS WILL WORK.
001090:    7317           56155                           XCH      MPAC       +1
001091:    7320           17131                           TCF      DMPSUB2
001092:


001094:                                                                                                  #  DMPNSUB MULTIPLIES THE DP FRACTION ARRIVING IN MPAC BY THE SP
001095:                                                                                                  #  INTEGER ARRIVING IN A.  THE DP PRODUCT DEPARTS BOTH IN MPAC AND IN
001096:                                                                                                  #  A AND L.  NOTE THAT DMPNSUB NORMALLY INCREASES THE MAGNITUDE OF THE
001097:                                                                                                  #  CONTENTS OF MPAC.  THE CUSTOMER MUST INSURE THAT B(A) X B(MPAC,MPAC+1)
001098:                                                                                                  #  AND B(A) X B(MPAC) ARE LESS THAN 1 IN MAGNITUDE, WHERE B, AS IS OBVIOUS,
001099:                                                                                                  #  INDICATES THE ARRIVING CONTENTS.
001100:
001101:    7321           54135        DMPNSUB            TS       DMPNTEMP
001102:    7322           00006                           EXTEND
001103:    7323           70155                           MP       MPAC       +1
001104:    7324           52155                           DXCH     MPAC                                  #  LOW PRODUCT TO MPAC, HIGH FACTOR TO A
001105:    7325           00006                           EXTEND
001106:    7326           70135                           MP       DMPNTEMP
001107:    7327           30001                           CA       L
001108:    7330           26154                           ADS      MPAC                                  #  COMPLETING THE PRODUCT IN MPAC
001109:    7331           00006                           EXTEND
001110:    7332           30155                           DCA      MPAC                                  #  BRINGING THE PRODUCT INTO A AND L
001111:    7333           00002                           TC       Q
001112:


001114:                                                                                                  #  MISCELLANEOUS VECTOR OPERATIONS.  INCLUDED HERE ARE THE FOLLOWING.
001115:                                                                                                  #        1.      DOT     DP VECTOR DOT PRODUCT.
001116:                                                                                                  #        2.      VXV     DP VECTOR CROSS PRODUCT.
001117:                                                                                                  #        3.      VXSC    DP VECTOR TIMES SCALAR.
001118:                                                                                                  #        4.      V/SC    DP VECTOR DIVIDED BY SCALAR.
001119:                                                                                                  #        5.      VPROJ   DP VECTOR PROJECTION.  ( (MPAC.X)MPAC ).
001120:                                                                                                  #        6.      VXM     DP VECTOR POST-MULTIPLIED BY MATRIX.
001121:                                                                                                  #        7.      MXV     DP VECTOR PRE-MULTIPLIED BY MATRIX.
001122:
001123:    7334           07157        DOT                TC       PREDOT                                #  DO THE DOT PRODUCT AND EXIT, CHANGING
001124:    7335           34755        DMODE              CAF      ZERO                                  #  THE MODE TO DP SCALAR.
001125:    7336           16063                           TCF      NEWMODE
001126:
001127:    7337           34752        MXV                CAF      TWO                                   #  SET UP MATINC AND DOTINC FOR ROW
001128:    7340           54140                           TS       MATINC                                #  VECTORS.
001129:    7341           17345                           TCF      VXM/MXV                               #  GO TO COMMON PORTION.
001130:
001131:    7342           44363        VXM                CS       TEN                                   #  SET MATINC AND DOTINC TO REFER TO MATRIX
001132:    7343           54140                           TS       MATINC                                #  AS THREE COLUMN VECTORS.
001133:    7344           36245                           CAF      SIX
001134:


001136:                                                                                                  #  COMMON PORTION OF MXV AND VXM.
001137:
001138:    7345           54136        VXM/MXV            TS       DOTINC
001139:
001140:                                                                                                  #  ITRACE (2) REFERS TO "VXM/MXV".
001141:
001142:    7346           07535                           TC       MPACVBUF                              #  SAVE VECTOR IN MPAC FOR FURTHER USE.
001143:
001144:    7347           07161                           TC       DOTSUB                                #  GO DOT TO GET X COMPONENT OF ANSWER.
001145:    7350           00006                           EXTEND
001146:    7351           30123                           DCA      VBUF                                  #  MOVE MPAC VECTOR BACK INTO MPAC, SAVING
001147:    7352           52155                           DXCH     MPAC                                  #  NEW X COMPONENT IN BUF2.
001148:    7353           52134                           DXCH     BUF2
001149:    7354           00006                           EXTEND
001150:    7355           30125                           DCA      VBUF       +2
001151:    7356           52160                           DXCH     MPAC       +3
001152:    7357           00006                           EXTEND
001153:    7360           30127                           DCA      VBUF       +4
001154:    7361           52162                           DXCH     MPAC       +5
001155:    7362           30140                           CA       MATINC                                #  INITIALIZE ADDRWD FOR NEXT DOT PRODUCT.
001156:    7363           26116                           ADS      ADDRWD                                #  FORMS HAS ADDRESS OF NEXT COLUMN(ROW).
001157:
001158:    7364           07161                           TC       DOTSUB
001159:    7365           52123                           DXCH     VBUF                                  #  MORE GIVEN VECTOR BACK TO MPAC, SAVING Y
001160:    7366           52155                           DXCH     MPAC                                  #  COMPONENT OF ANSWER IN VBUF +2.
001161:    7367           52125                           DXCH     VBUF       +2
001162:    7370           52160                           DXCH     MPAC       +3
001163:    7371           52127                           DXCH     VBUF       +4
001164:    7372           52162                           DXCH     MPAC       +5
001165:    7373           30140                           CA       MATINC                                #  FORM ADDRESS OF LAST COLUMN OR ROW.
001166:    7374           26116                           ADS      ADDRWD
001167:
001168:    7375           07161                           TC       DOTSUB
001169:    7376           52134                           DXCH     BUF2                                  #  ANSWER NOW COMPLETE. PUT COMPONENTS INTO
001170:    7377           52155                           DXCH     MPAC                                  #  PROPER MPAC REGISTERS.
001171:    7400           52162                           DXCH     MPAC       +5
001172:    7401           52125                           DXCH     VBUF       +2
001173:    7402           52160                           DXCH     MPAC       +3
001174:    7403           16064                           TCF      DANZIG                                #  EXIT.
001175:


001177:                                                                                                  #  VXSC -- VECTOR TIMES SCALAR.
001178:
001179:    7404           10163        VXSC               CCS      MODE                                  #  TEST PRESENT MODE.
001180:    7405           17433                           TCF      DVXSC                                 #  SEPARATE ROUTINE WHEN SCALAR IS IN MPAC.
001181:    7406           17433                           TCF      DVXSC
001182:
001183:    7407           07112        VVXSC              TC       DMPSUB                                #  COMPUTE X COMPONENT
001184:    7410           07143                           TC       VROUND                                #  AND ROUND IT.
001185:    7411           52160                           DXCH     MPAC       +3                         #  PUT Y COMPONENT INTO MPAC SAVING MPAC IN
001186:    7412           52155                           DXCH     MPAC                                  #  MPAC +3.
001187:    7413           52160                           DXCH     MPAC       +3
001188:
001189:    7414           07112                           TC       DMPSUB                                #  DO SAME FOR Y AND Z COMPONENTS.
001190:    7415           07143                           TC       VROUND
001191:    7416           52162                           DXCH     MPAC       +5
001192:    7417           52155                           DXCH     MPAC
001193:    7420           52162                           DXCH     MPAC       +5
001194:
001195:    7421           07112                           TC       DMPSUB
001196:    7422           07143                           TC       VROUND
001197:    7423           52155        VROTATEX           DXCH     MPAC                                  #  EXIT USED TO RESTORE MPAC AFTER THIS
001198:    7424           52162                           DXCH     MPAC       +5                         #  TYPE OF ROTATION.  CALLED BY VECTOR SHIFT
001199:    7425           52160                           DXCH     MPAC       +3                         #  RIGHT, V/SC, ETC.
001200:    7426           52155                           DXCH     MPAC
001201:    7427           16064                           TCF      DANZIG
001202:


001204:                                                                                                  #  DP VECTOR PROJECTION ROUTINE.
001205:
001206:    7430           07157        VPROJ              TC       PREDOT                                #  (MPAC.X)MPAC IS COMPUTED AND LEFT IN
001207:    7431           44751                           CS       FOUR                                  #  MPAC.  DO DOT AND FALL INTO DVXSC.
001208:    7432           26116                           ADS      ADDRWD
001209:
001210:                                                                                                  #  VXSC WHEN SCALAR ARRIVES IN MPAC AND VECTOR IS AT X.
001211:
001212:    7433           00006        DVXSC              EXTEND                                         #  SAVE SCALAR IN MPAC +3 AND GET X
001213:    7434           30155                           DCA      MPAC                                  #  COMPONENT OF ANWER.
001214:    7435           52160                           DXCH     MPAC       +3
001215:    7436           07112                           TC       DMPSUB
001216:    7437           07143                           TC       VROUND
001217:
001218:    7440           34752                           CAF      TWO                                   #  ADVANCE ADDRWD TO Y COMPONENT OF X.
001219:    7441           26116                           ADS      ADDRWD
001220:    7442           00006                           EXTEND
001221:    7443           30160                           DCA      MPAC       +3                         #  PUT SCALAR BACK INTO MPAC AND SAVE
001222:    7444           52155                           DXCH     MPAC                                  #  X RESULT IN MPAC +5.
001223:    7445           52162                           DXCH     MPAC       +5
001224:    7446           07112                           TC       DMPSUB
001225:    7447           07143                           TC       VROUND
001226:
001227:    7450           34752                           CAF      TWO
001228:    7451           26116                           ADS      ADDRWD                                #  TO Z COMPONENT.
001229:    7452           52160                           DXCH     MPAC       +3                         #  BRING SCALAR BACK, PUTTING Y RESULT IN
001230:    7453           52155                           DXCH     MPAC                                  #  THE PROPER PLACE.
001231:    7454           52160                           DXCH     MPAC       +3
001232:    7455           07112                           TC       DMPSUB
001233:    7456           07143                           TC       VROUND
001234:
001235:    7457           52155                           DXCH     MPAC                                  #  PUT Z COMPONENT IN PROPER PLACE, ALSO
001236:    7460           52162                           DXCH     MPAC       +5                         #  POSITIONING X.
001237:    7461           52155                           DXCH     MPAC
001238:
001239:    7462           16524                           TCF      VMODE                                 #  MODE HAS CHANGED TO VECTOR.
001240:


001242:                                                                                                  #  VECTOR CROSS PRODUCT ROUTINE CALCULATES (X M -M M ,X M -X M ,X M -X M ) WHERE M IS THE VECTOR IN
001243:                                                                                                  #                                            3 2  2 3  1 3  3 1  2 1  1 2
001244:                                                                                                  #  MPAC AND X THE VECTOR AT THE GIVEN ADDRESS.
001245:
001246:    7463           00006        VXV                EXTEND
001247:    7464           30162                           DCA      MPAC       +5                         #  FORM UP M3X1, LEAVING M1 IN VBUF.
001248:    7465           52155                           DXCH     MPAC
001249:    7466           52123                           DXCH     VBUF
001250:    7467           07112                           TC       DMPSUB                                #  BY X1.
001251:
001252:    7470           00006                           EXTEND
001253:    7471           40160                           DCS      MPAC       +3                         #  CALCULATE -X1M2, SAVING X1M3 IN VBUF +2.
001254:    7472           52155                           DXCH     MPAC
001255:    7473           52125                           DXCH     VBUF       +2
001256:    7474           07112                           TC       DMPSUB
001257:
001258:    7475           34752                           CAF      TWO                                   #  ADVANCE ADDRWD TO X2.
001259:    7476           26116                           ADS      ADDRWD
001260:    7477           00006                           EXTEND
001261:    7500           40162                           DCS      MPAC       +5                         #  PREPARE TO GET -X2M3, SAVING -X1M2 IN
001262:    7501           52155                           DXCH     MPAC                                  #  MPAC +5.
001263:    7502           52162                           DXCH     MPAC       +5
001264:    7503           07112                           TC       DMPSUB
001265:
001266:    7504           00006                           EXTEND
001267:    7505           30123                           DCA      VBUF                                  #  GET X2M1, SAVING -X2M3 IN VBUF +4.
001268:    7506           52155                           DXCH     MPAC
001269:    7507           52127                           DXCH     VBUF       +4
001270:    7510           07112                           TC       DMPSUB
001271:
001272:    7511           34752                           CAF      TWO                                   #  ADVANCE ADDRWD TO X3.
001273:    7512           26116                           ADS      ADDRWD
001274:    7513           00006                           EXTEND
001275:    7514           40123                           DCS      VBUF                                  #  GET -X3M1, ADDING X2M1 TO MPAC +5 TO
001276:    7515           52155                           DXCH     MPAC                                  #  COMPLETE THE Z COMPONENT OF THE ANSWER.
001277:    7516           20162                           DAS      MPAC       +5
001278:
001279:    7517           00006                           EXTEND
001280:    7520           17522                           BZF      +2
001281:    7521           07014                           TC       OVERFLWZ
001282:
001283:    7522           07112                           TC       DMPSUB
001284:    7523           52125                           DXCH     VBUF       +2                         #  MOVE X1M3 TO MPAC +3 SETTING UP FOR X3M2
001285:    7524           52160                           DXCH     MPAC       +3                         #  AND ADD -X3M1 TO MPAC +3 TO COMPLETE THE
001286:    7525           52155                           DXCH     MPAC                                  #  Y COMPONENT OF THE RESULT.
001287:    7526           20160                           DAS      MPAC       +3
001288:
001289:    7527           00006                           EXTEND
001290:    7530           17532                           BZF      +2


001292:    7531           07017                           TC       OVERFLWY
001293:
001294:    7532           07112                           TC       DMPSUB
001295:    7533           52127                           DXCH     VBUF       +4                         #  GO ADD -X2M3 TO X3M2 TO COMPLETE THE X
001296:    7534           17003                           TCF      ENDVXV                                #  COMPONENT (TAIL END OF DAD).
001297:
001298:                                                                                                  #  THE MPACVBUF SUBROUTINE SAVES THE VECTOR IN MPAC IN VBUF WITHOUT CLOBBERING MPAC.
001299:
001300:    7535           00006        MPACVBUF           EXTEND                                         #  CALLED BY MXV, VXM, AND UNIT.
001301:    7536           30155                           DCA      MPAC
001302:    7537           52123                           DXCH     VBUF
001303:    7540           00006                           EXTEND
001304:    7541           30160                           DCA      MPAC       +3
001305:    7542           52125                           DXCH     VBUF       +2
001306:    7543           00006                           EXTEND
001307:    7544           30162                           DCA      MPAC       +5
001308:    7545           52127                           DXCH     VBUF       +4
001309:    7546           00002                           TC       Q                                     #  RETURN TO CALLER.
001310:
001311:                                                                                                  #  DOUBLE PRECISION SIGN AGREE ROUTINE.  ARRIVE WITH INPUT IN A+L.  OUTPUT IS IN A + L.
001312:
001313:    7547           10000        ALSIGNAG           CCS      A                                     #  TEST UPPER PART.
001314:    7550           17554                           TCF      UPPOS                                 #  IT IS POSITIVE
001315:    7551           00002                           TC       Q                                     #  ZERO
001316:    7552           17564                           TCF      UPNEG                                 #  NEGATIVE
001317:    7553           00002                           TC       Q                                     #  ZERO
001318:
001319:    7554           56001        UPPOS              XCH      L                                     #  SAVE DECREMENTED UPPER PART.
001320:    7555           64736                           AD       HALF
001321:    7556           64736                           AD       HALF
001322:    7557           54000                           TS       A                                     #  SKIPS ON OVERFLOW
001323:    7560           17562                           TCF      +2
001324:    7561           24001                           INCR     L                                     #  RESTORE UPPER TO ORIGINAL VALUE
001325:    7562           56001                           XCH      L                                     #  SWAP A + L BANCK.
001326:    7563           00002                           TC       Q
001327:
001328:    7564           56001        UPNEG              XCH      L                                     #  SAVE COMPLEMENTED + DECREMENTED UPPER PT
001329:    7565           64735                           AD       NEGMAX
001330:    7566           67752                           AD       NEGONE
001331:    7567           54000                           TS       A
001332:    7570           17572                           TCF      +2                                    #  DON'T INCREMENT IF NO OVERFLOW.
001333:    7571           24001                           INCR     L
001334:    7572           56001                           XCH      L
001335:    7573           40000                           COM                                            #  MAKE NEGATIVE AGAIN.
001336:    7574           00002                           TC       Q
001337:


001339:                                                                                                  #  INTERPRETIVE INSTRUCTIONS WHOSE EXECUTION CONSISTS OF PRINCIPALLY CALLING SUBROUTINES.
001340:
001341:    7575           07112        DMP1               TC       DMPSUB                                #  DMP INSTRUCTIONS
001342:    7576           16064                           TCF      DANZIG
001343:
001344:    7577           07112        DMPR               TC       DMPSUB
001345:    7600           07142                           TC       ROUNDSUB   +1                         #  (C(A) = +0).
001346:    7601           16064                           TCF      DANZIG
001347:
001348:    7602           00006        DDV                EXTEND
001349:    7603           50116                           INDEX    ADDRWD                                #  MOVE DIVIDENT INTO BUF.
001350:    7604           30001                           DCA      0
001351:    7605           17612                           TCF      BDDV       +4
001352:
001353:    7606           00006        BDDV               EXTEND                                         #  MOVE DIVISOR INTO MPAC SAVING MPAC, THE
001354:    7607           50116                           INDEX    ADDRWD                                #  DIVIDEND, IN BUF.
001355:    7610           30001                           DCA      0
001356:    7611           52155                           DXCH     MPAC
001357:    7612           52131                 +4        DXCH     BUF
001358:    7613           34755                           CAF      ZERO                                  #  DIVIDE ROUTINES IN BANK 0.
001359:    7614           54004                           TS       FBANK
001360:    7615           12353                           TCF      DDV/BDDV
001361:
001362:    7616           30116        SETPD              CA       ADDRWD                                #  MUST SET TO WORK AREA, OR EBANK TROUBLE.
001363:    7617           54166                           TS       PUSHLOC
001364:    7620           16066                           TCF      NOIBNKSW                              #  NO FBANK SWITCH REQUIRED.
001365:
001366:    7621           34755        TSLC               CAF      ZERO                                  #  SHIFTING ROUTINES LOCATED IN BANK 00.
001367:    7622           54004                           TS       FBANK
001368:    7623           12172                           TCF      TSLC2
001369:
001370:    7624           36077        GSHIFT             CAF      LOW7                                  #  USED AS MASK AT GENSHIFT. THIS PROCESSES
001371:    7625           54004                           TS       FBANK                                 #  ANY SHIFT INSTRUCTION (EXCEPT TSLC) WITH
001372:    7626           12214                           TCF      GENSHIFT                              #  AN ADDRESS (ROUTINES IN BANK 0).
001373:


001375:                                                                                                  #  THE FOLLOWING IS THE PROLOGUE TO V/SC.  IF THE PRESENT MODE IS VECTOR, IT SAVES THE SCALAR AT X IN BUF
001376:                                                                                                  #  AND CALLES THE V/SC ROUTINE IN BANK 0.  IF THE PRESENT MODE IS SCALAR, IT MOVES THE VECTOR AT X INTO MPAC, SAVING
001377:                                                                                                  #  THE SCALAR IN MPAC IN BUF BEFORE CALLING THE V/SC ROUTINE IN BANK 0.
001378:
001379:    7627           10163        V/SC               CCS      MODE
001380:    7630           17641                           TCF      DV/SC                                 #  MOVE VECTOR INTO MPAC.
001381:    7631           17641                           TCF      DV/SC
001382:
001383:    7632           00006        VV/SC              EXTEND
001384:    7633           50116                           INDEX    ADDRWD
001385:    7634           30001                           DCA      0
001386:    7635           52131        V/SC1              DXCH     BUF                                   #  IN BOTH CASES, VECTOR IS NOW IN MPAC AND
001387:    7636           34755                           CAF      ZERO                                  #  SCALAR IN BUF.
001388:    7637           54004                           TS       FBANK
001389:    7640           12654                           TCF      V/SC2
001390:
001391:    7641           00006        DV/SC              EXTEND
001392:    7642           50116                           INDEX    ADDRWD
001393:    7643           30003                           DCA      2
001394:    7644           52160                           DXCH     MPAC       +3
001395:    7645           00006                           EXTEND
001396:    7646           50116                           INDEX    ADDRWD
001397:    7647           30005                           DCA      4
001398:    7650           52162                           DXCH     MPAC       +5
001399:
001400:    7651           44753                           CS       ONE                                   #  CHANGE MODE TO VECTOR.
001401:    7652           54163                           TS       MODE
001402:
001403:    7653           00006                           EXTEND
001404:    7654           50116                           INDEX    ADDRWD
001405:    7655           30001                           DCA      0
001406:    7656           52155                           DXCH     MPAC
001407:    7657           17635                           TCF      V/SC1
001408:


001410:                                                                                                  #  SIGN AND COMPLEMENT INSTRUCTIONS.
001411:
001412:    7660           50116        SIGN               INDEX    ADDRWD                                #  CALL COMP INSTRUCTION IF WORD AT X IS
001413:    7661           10000                           CCS      0                                     #  NEGATIVE NON-ZERO.
001414:    7662           16064                           TCF      DANZIG
001415:    7663           17665                           TCF      +2
001416:    7664           17673                           TCF      COMP                                  #  DO THE COMPLEMENT.
001417:
001418:    7665           50116                           INDEX    ADDRWD
001419:    7666           10001        CCSL               CCS      1
001420:    7667           16064                           TCF      DANZIG
001421:    7670           16064                           TCF      DANZIG
001422:    7671           17673                           TCF      COMP
001423:    7672           16064                           TCF      DANZIG
001424:    7673           00006        COMP               EXTEND                                         #  COMPLEMENT DP MPAC IN EVERY CASE.
001425:    7674           40155                           DCS      MPAC
001426:    7675           52155                           DXCH     MPAC
001427:
001428:    7676           10163                           CCS      MODE                                  #  EITHER COMPLEMENT MPAC +3 OR THE REST OF
001429:    7677           17710                           TCF      DCOMP                                 #  THE VECTOR ACCUMULATOR.
001430:    7700           17710                           TCF      DCOMP
001431:
001432:    7701           00006                           EXTEND                                         #  VECTOR COMPLEMENT.
001433:    7702           40160                           DCS      MPAC       +3
001434:    7703           52160                           DXCH     MPAC       +3
001435:    7704           00006                           EXTEND
001436:    7705           40162                           DCS      MPAC       +5
001437:    7706           52162                           DXCH     MPAC       +5
001438:    7707           16064                           TCF      DANZIG
001439:
001440:    7710           40156        DCOMP              CS       MPAC       +2
001441:    7711           54156                           TS       MPAC       +2
001442:    7712           16064                           TCF      DANZIG
001443:


001445:                                                                                                  #  THE FOLLOWING SHORT SHIFT CODES REQUIRE NO ADDRESS WORD:
001446:                                                                                                  #        1.      SR1 TO SR4      SCALAR SHIFT RIGHT.
001447:                                                                                                  #        2.      SR1R TO SR4R    SCALAR SHIFT RIGHT AND ROUND.
001448:                                                                                                  #        3.      SL1 TO SL4      SCALAR SHIFT LEFT.
001449:                                                                                                  #        4.      SL1R TO SL4R    SCALAR SHIFT LEFT AND ROUND.
001450:                                                                                                  #        5.      VSR1 TO VSR8    VECTOR SHIFT RIGHT (ALWAYS ROUNDS).
001451:                                                                                                  #        6.      VSL1 TO VSL8    VECTOR SHIFT LEFT (NEVER ROUNDS).
001452:                                                                                                  #  THE FOLLOWING CODES REQUIRE AND ADDRESS WHICH MAY BE INDEXED:*
001453:                                                                                                  #        1.      SR              SCALAR SHIFT RIGHT.
001454:                                                                                                  #        2.      SRR             SCALAR SHIFT RIGHT AND ROUND.
001455:                                                                                                  #        3.      SL              SCALAR SHIFT LEFT.
001456:                                                                                                  #        4.      SLR             SCALAR SHIFT LEFT AND ROUND.
001457:                                                                                                  #        5.      VSR             VECTOR SHIFT RIGHT.
001458:                                                                                                  #        6.      VSL             VECTOR SHIFT LEFT.
001459:                                                                                                  #  * IF THE ADDRESS IS INDEXED, AND THE INDEX MODIFICATION RESULTS IN A NEGATIVE SHIFT COUNT, A SHIFT OF THE
001460:                                                                                                  #  ABSOLUTE VALUE OF THE COUNT IS DONE IN THE OPPOSITE DIRECTION.
001461:
001462: 00,2017                                           BANK     00
001463:
001464: 00,2017                                           COUNT*   $$/INTER
001465: 00,2017           36245        SHORTT             CAF      SIX                                   #  SCALAR SHORT SHIFTS COME HERE.  THE SHIFT
001466: 00,2020           70020                           MASK     CYR                                   #  COUNT-1 IS NOW IN BITS 2-3 OF CYR.  THE
001467: 00,2021           54021                           TS       SR                                    #  ROUNDING BIT IS IN BIT1 AT THIS POINT.
001468:
001469: 00,2022           10020                           CCS      CYR                                   #  SEE IF RIGHT OR LEFT SHIFT DESIRED.
001470: 00,2023           12101                           TCF      TSSL                                  #  SHIFT LEFT.
001471:
001472: 00,2024           00024        SRDDV              DEC      20         B-14                       #  MPTEMP SETTING FOR SR BEFORE DDV.
001473:
001474: 00,2025           50021        TSSR               INDEX    SR                                    #  GET SHIFTING BIT.
001475: 00,2026           34736                           CAF      BIT14
001476: 00,2027           54135                           TS       MPTEMP
001477:
001478: 00,2030           10020                           CCS      CYR                                   #  SEE IF A ROUND IS DESIRED.
001479: 00,2031           02050        RIGHTR             TC       MPACSRND                              #  YES -- SHIFT RIGHT AND ROUND.
001480: 00,2032           16063                           TCF      NEWMODE                               #  SET MODE TO DP (C(A) = 0).
001481: 00,2033           30135        MPACSHR            CA       MPTEMP                                #  DO A TRIPLE PRECISION SHIFT RIGHT.
001482: 00,2034           00006                           EXTEND
001483: 00,2035           70156                           MP       MPAC       +2
001484: 00,2036           54156                 +3        TS       MPAC       +2                         #  (EXIT FROM SQRT AND ABVAL).
001485: 00,2037           30135                           CA       MPTEMP
001486: 00,2040           00006                           EXTEND
001487: 00,2041           70154                           MP       MPAC                                  #  SHIFT MAJOR PART INTO A,L AND PLACE IN


001489: 00,2042           52155                           DXCH     MPAC                                  #  MPAC,+1.
001490: 00,2043           30135                           CA       MPTEMP
001491: 00,2044           00006                           EXTEND
001492: 00,2045           70001                           MP       L                                     #  ORIGINAL C(MPAC +1).
001493: 00,2046           20156                           DAS      MPAC       +1                         #  GUARANTEED NO OVERFLOW.
001494: 00,2047           16064                           TCF      DANZIG
001495:
001496:                                                                                                  #  MPAC SHIFT RIGHT AND ROUND SUBROUTINES
001497:
001498: 00,2050           30156        MPACSRND           CA       MPAC       +2                         #  WE HAVE TO DO ALL THREE MULTIPLIES SINCE
001499: 00,2051           00006                           EXTEND                                         #  MPAC +1 AND MPAC +2 MIGHT HAVE SIGN
001500: 00,2052           70135                           MP       MPTEMP                                #  DISAGREEMENT WITH A SHIFT RIGHT OF L.
001501: 00,2053           56155                           XCH      MPAC       +1
001502: 00,2054           00006                           EXTEND
001503: 00,2055           70135                           MP       MPTEMP
001504: 00,2056           56155                           XCH      MPAC       +1                         #  TRIAL MINOR PART.
001505: 00,2057           60001                           AD       L
001506:
001507: 00,2060           60000        VSHR2              DOUBLE                                         #  (FINISH VECTOR COMPONENT SHIFT RIGHT
001508: 00,2061           54156                           TS       MPAC       +2                         #  AND ROUND.)
001509: 00,2062           12064                           TCF      +2
001510: 00,2063           26155                           ADS      MPAC       +1                         #  GUARANTEED NO OVERFLOW.
001511:
001512: 00,2064           34755                           CAF      ZERO
001513: 00,2065           54156                           TS       MPAC       +2
001514: 00,2066           56154                           XCH      MPAC                                  #  SETTING TO ZERO SO FOLLOWING DAS WORKS.
001515: 00,2067           00006                           EXTEND
001516: 00,2070           70135                           MP       MPTEMP
001517: 00,2071           20155                           DAS      MPAC                                  #  AGAIN NO OVERFLOW.
001518: 00,2072           00002                           TC       Q
001519:
001520: 00,2073           30135        VSHRRND            CA       MPTEMP                                #  ENTRY TO SHIFT RIGHT AND ROUND MPAC WHEN
001521: 00,2074           00006                           EXTEND                                         #  MPAC CONTAINS A VECTOR COMPONENT.
001522: 00,2075           70155                           MP       MPAC       +1
001523: 00,2076           54155                           TS       MPAC       +1
001524: 00,2077           56001                           XCH      L
001525: 00,2100           12060                           TCF      VSHR2                                 #  GO ADD ONE IF NECESSARY AND FINISH.
001526:


001528:                                                                                                  #  ROUTINE FOR SHORT SCALAR SHIFT LEFT (AND MAYBE ROUND).
001529:
001530: 00,2101           30021        TSSL               CA       SR                                    #  GET SHIFT COUNT FOR SR.
001531: 00,2102           54135                 +1        TS       MPTEMP
001532:
001533: 00,2103           00006                 +2        EXTEND                                         #  ENTRY HERE FROM SL FOR SCALARS.
001534: 00,2104           30156                           DCA      MPAC       +1                         #  SHIFTING LEFT ONE PLACE AT A TIME IS
001535: 00,2105           20156                           DAS      MPAC       +1                         #  FASTER THAN DOING THE WHOLE SHIFT WITH
001536: 00,2106           60154                           AD       MPAC                                  #  MULTIPLIES ASSUMING THAT FREQUENCY OF
001537: 00,2107           60154                           AD       MPAC                                  #  SHIFT COUNTS GOES DOWN RAPIDLY AS A
001538: 00,2110           54154                           TS       MPAC                                  #  FUNCTION OF THEIR MAGNITUDE.
001539: 00,2111           12113                           TCF      +2
001540: 00,2112           54121                           TS       OVFIND                                #  OVERFLOW.  (LEAVES OVERFLOW-CORRECTED
001541:                                                                                                  #  RESULT ANYWAY).
001542: 00,2113           10135                           CCS      MPTEMP                                #  LOOP ON DECREMENTED SHIFT COUNT.
001543: 00,2114           12102                           TCF      TSSL       +1
001544:
001545: 00,2115           10020                           CCS      CYR                                   #  SEE IF ROUND WANTED.
001546: 00,2116           07141        ROUND              TC       ROUNDSUB                              #  YES -- ROUND AND EXIT.
001547: 00,2117           16064                           TCF      DANZIG                                #  SL LEAVES A ZERO IN CYR FOR NO ROUND.
001548: 00,2120           16064                           TCF      DANZIG                                #  NO -- EXIT IMMEDIATELY
001549:


001551:                                                                                                  #  VECTOR SHIFTING ROUTINES.
001552:
001553: 00,2121           34757        SHORTV             CAF      LOW3                                  #  SAVE 3 BIT SHIFT COUNT -- 1 WITHOUT
001554: 00,2122           70020                           MASK     CYR                                   #  EDITING CYR.
001555: 00,2123           54135                           TS       MPTEMP
001556: 00,2124           10020                           CCS      CYR                                   #  SEE IF LEFT OR RIGHT SHIFT.
001557: 00,2125           12145                           TCF      VSSL                                  #  VECTOR SHIFT LEFT.
001558: 00,2126           00176        OCT176             OCT      176                                   #  USED IN PROCESSED SHIFTS WITH - COUNT.
001559:
001560: 00,2127           50135        VSSR               INDEX    MPTEMP                                #  (ENTRY FROM SR).  PICK UP SHIFTING BIT.
001561: 00,2130           34736                           CAF      BIT14                                 #  MPTEMP CONTAINS THE SHIFT COUNT - 1.
001562: 00,2131           54135                           TS       MPTEMP
001563: 00,2132           02073                           TC       VSHRRND                               #  SHIFT X COMPONENT.
001564:
001565: 00,2133           52155                           DXCH     MPAC                                  #  SWAP X AND Y COMPONENTS.
001566: 00,2134           52160                           DXCH     MPAC       +3
001567: 00,2135           52155                           DXCH     MPAC
001568: 00,2136           02073                           TC       VSHRRND                               #  SHIFT Y COMPONENT.
001569:
001570: 00,2137           52155                           DXCH     MPAC                                  #  SWAP Y AND Z COMPONENTS.
001571: 00,2140           52162                           DXCH     MPAC       +5
001572: 00,2141           52155                           DXCH     MPAC
001573: 00,2142           02073                           TC       VSHRRND                               #  SHIFT Z COMPONENT.
001574:
001575: 00,2143           17423                           TCF      VROTATEX                              #  RESTORE COMPONENTS TO PROPER PLACES.
001576:


001578:                                                                                                  #  VECTOR SHIFT LEFT -- DONE ONE PLACE AT A TIME.
001579:
001580: 00,2144           54135                 -1        TS       MPTEMP                                #  SHIFTING LOOP.
001581:
001582: 00,2145           00006        VSSL               EXTEND
001583: 00,2146           30155                           DCA      MPAC
001584: 00,2147           20155                           DAS      MPAC
001585: 00,2150           00006                           EXTEND
001586: 00,2151           12153                           BZF      +2
001587: 00,2152           07022                           TC       OVERFLOW
001588:
001589: 00,2153           00006                           EXTEND
001590: 00,2154           30160                           DCA      MPAC       +3
001591: 00,2155           20160                           DAS      MPAC       +3
001592: 00,2156           00006                           EXTEND
001593: 00,2157           12161                           BZF      +2
001594: 00,2160           07017                           TC       OVERFLWY
001595:
001596: 00,2161           00006                           EXTEND
001597: 00,2162           30162                           DCA      MPAC       +5
001598: 00,2163           20162                           DAS      MPAC       +5
001599: 00,2164           00006                           EXTEND
001600: 00,2165           12167                           BZF      +2
001601: 00,2166           07014                           TC       OVERFLWZ
001602:
001603: 00,2167           10135                           CCS      MPTEMP                                #  LOOP ON DECREMENTED SHIFT COUNTER.
001604: 00,2170           12144                           TCF      VSSL       -1
001605: 00,2171           16064                           TCF      DANZIG                                #  EXIT.
001606:


001608:                                                                                                  #  TSLC -- TRIPLE SHIFT LEFT AND COUNT.  SHIFTS MPAC LEFT UNTIL GREATER THAN .5 IN MAGNITUDE, LEAVING
001609:                                                                                                  #  THE COMPLEMENT OF THE NUMBER OF SHIFTS REQUIRED IN X.
001610:
001611: 00,2172           54135        TSLC2              TS       MPTEMP                                #  START BY ZEROING SHIFT COUNT (IN A NOW).
001612: 00,2173           06726                           TC       BRANCH                                #  EXIT WITH NO SHIFTING IF ARGUMENT ZERO.
001613: 00,2174           12176                           TCF      +2
001614: 00,2175           12212                           TCF      ENDTSLC                               #  STORES ZERO SHIFT COUNT IN THIS CASE.
001615:
001616: 00,2176           07262                           TC       TPAGREE                               #  MAY CAUSE UPSHIFT OF ONE EXTRA PLACE.
001617:
001618: 00,2177           30154                           CA       MPAC                                  #  BEGIN NORMALIZATION LOOP.
001619: 00,2200           12207                           TCF      TSLCTEST
001620:
001621: 00,2201           24135        TSLCLOOP           INCR     MPTEMP                                #  INCREMENT SHIFT COUNTER.
001622: 00,2202           00006                           EXTEND
001623: 00,2203           30156                           DCA      MPAC       +1
001624: 00,2204           20156                           DAS      MPAC       +1
001625: 00,2205           60154                           AD       MPAC
001626: 00,2206           26154                           ADS      MPAC
001627: 00,2207           60000        TSLCTEST           DOUBLE                                         #  SEE IF (ANOTHER) SHIFT IS REQUIRED
001628: 00,2210           54000                           OVSK
001629: 00,2211           12201                           TCF      TSLCLOOP                              #  YES -- INCREMENT COUNT AND SHIFT AGAIN.
001630:
001631: 00,2212           40135        ENDTSLC            CS       MPTEMP
001632: 00,2213           16626                           TCF      STORE1                                #  STORE SHIFT COUNT AND RETURN TO DANZIG.
001633:


001635:                                                                                                  #  THE FOLLOWING ROUTINE PROCESSES THE GENERAL SHIFT INSTRUCTIONS SR, SRR, SL, AND SLR.
001636:                                                                                                  #  THE GIVEN ADDRESS IS DECODED AS FOLLOWS:
001637:                                                                                                  #        BITS 1-7        SHIFT COUNT (SUBADDRESS) LESS THAN 125 DECIMAL.
001638:                                                                                                  #        BIT 8           PSEUDO SIGN BIT (DETECTS CHANGE IN SIGN IN INDEXED SHIFTS).
001639:                                                                                                  #        BIT 9           0 FOR LEFT SHIFT, AND 1 FOR RIGHT SHIFT.
001640:                                                                                                  #        BIT 10          1 FOR TERMINAL ROUND ON SCALAR SHIFTS, 0 OTHERWISE
001641:                                                                                                  #        BITS 11-13      0.
001642:                                                                                                  #        BIT 14          1.
001643:                                                                                                  #        BIT 15          0.
001644:                                                                                                  #  THE ABOVE ENCODING IS DONE BY THE YUL SYSTEM.
001645:
001646: 00,2214           70116        GENSHIFT           MASK     ADDRWD                                #  GET SHIFT COUNT, TESTING FOR ZERO.
001647: 00,2215           10000                           CCS      A                                     #  (ARRIVES WITH C(A) = LOW7).
001648: 00,2216           12224                           TCF      GENSHFT2                              #  IF NON-ZERO, PROCEED WITH DECREMENTED CT
001649:
001650: 00,2217           34742                           CAF      BIT10                                 #  ZERO SHIFT COUNT.  NO SHIFTS NEEDED BUT
001651: 00,2220           70116                           MASK     ADDRWD                                #  WE MIGHT HAVE TO ROUND MPAC ON SLR AND
001652: 00,2221           10000                           CCS      A                                     #  SRR (SCALAR ONLY).
001653: 00,2222           07141                           TC       ROUNDSUB
001654: 00,2223           16064                           TCF      DANZIG
001655:
001656: 00,2224           54135        GENSHFT2           TS       MPTEMP                                #  DECREMENTED SHIFT COUNT TO MPTEMP.
001657: 00,2225           34744                           CAF      BIT8                                  #  TEST MEANING OF LOW SEVEN BIT COUNT IN
001658: 00,2226           00006                           EXTEND                                         #  MPTEMP NOW.
001659: 00,2227           70116                           MP       ADDRWD
001660: 00,2230           76250                           MASK     LOW2                                  #  JUMPS ON SHIFT DIRECTION (BIT8) AND
001661: 00,2231           50000                           INDEX    A
001662: 00,2232           12233                           TCF      +1                                    #  ORIGINAL SHIFT DIRECTION (BIT 9)
001663: 00,2233           12332                           TCF      RIGHT-                                #  NEGATIVE SHIFT COUNT FOR SL OR SLR.
001664: 00,2234           12342                           TCF      LEFT                                  #  SL OR SLR.
001665: 00,2235           12336                           TCF      LEFT-                                 #  NEGATIVE SHIFT COUNT WITH SR OR SRR.
001666:


001668:                                                                                                  #  GENERAL SHIFT RIGHT
001669:
001670: 00,2236           10163        RIGHT              CCS      MODE                                  #  SET IF VECTOR OR SCALAR.
001671: 00,2237           12277                           TCF      GENSCR
001672: 00,2240           12277                           TCF      GENSCR
001673:
001674: 00,2241           30135                           CA       MPTEMP                                #  SEE IF SHIFT COUNT LESS THAN 14D.
001675: 00,2242           63733        VRIGHT2            AD       NEG12
001676: 00,2243           00006                           EXTEND
001677: 00,2244           62127                           BZMF     VSSR                                  #  IF SO, BRANCH AND SHIFT IMMEDIATELY.
001678:
001679: 00,2245           67752                           AD       NEGONE                                #  IF NOT, REDUCE MPTEMP BY A TOTAL OF 14.
001680: 00,2246           54135                           TS       MPTEMP                                #  AND DO A SHIFT RIGHT AND ROUND BY 14.
001681: 00,2247           34755                           CAF      ZERO                                  #  THE ROUND AT THIS STAGE MAY INTRODUCE A
001682: 00,2250           54001                           TS       L                                     #  ONE BIT ERROR IN A SHIFT RIGHT 15D.
001683: 00,2251           56154                           XCH      MPAC
001684: 00,2252           56155                           XCH      MPAC       +1
001685: 00,2253           02272                           TC       SETROUND                              #  X COMPONENT NOW SHIFTED, SO MAKE UP THE
001686: 00,2254           20155                           DAS      MPAC                                  #  ROUNDING QUANTITY (0 IN A AND 0 OR +-1
001687:                                                                                                  #  IN L).
001688: 00,2255           56157                           XCH      MPAC       +3                         #  REPEAT THE ABOVE PROCESS FOR Y AND Z/
001689: 00,2256           56160                           XCH      MPAC       +4
001690: 00,2257           02272                           TC       SETROUND
001691: 00,2260           20160                           DAS      MPAC       +3                         #  NO OVERFLOW ON THESE ADDS.
001692:
001693: 00,2261           56161                           XCH      MPAC       +5
001694: 00,2262           56162                           XCH      MPAC       +6
001695: 00,2263           02272                           TC       SETROUND
001696: 00,2264           20162                           DAS      MPAC       +5
001697:
001698: 00,2265           10135                           CCS      MPTEMP                                #  SEE IF DONE, DOING FINAL DECREMENT.
001699: 00,2266           54135                           TS       MPTEMP
001700: 00,2267           12242                           TCF      VRIGHT2
001701: 00,2270           04604        BIASLO             DEC      .2974      B-1                        #  SQRT CONSTANT
001702:
001703: 00,2271           16064                           TCF      DANZIG
001704:
001705: 00,2272           60000        SETROUND           DOUBLE                                         #  MAKES UP ROUNDING QUANTITY FROM ARRIVING
001706: 00,2273           54156                           TS       MPAC       +2                         #  C(A).  L IS ZERO INITIALLY.
001707: 00,2274           34755                           CAF      ZERO
001708: 00,2275           56001                           XCH      L
001709: 00,2276           00002                           TC       Q                                     #  RETURN AND DO THE DAS, RESETTING L TO 0.
001710:


001712:                                                                                                  #  PROCESS SR AND SRR FOR SCALARS.
001713:
001714: 00,2277           30135        GENSCR             CA       MPTEMP                                #  SEE IF THE ORIGINAL SHIFT COUNT WAS LESS
001715: 00,2300           63733                 +1        AD       NEG12                                 #  THAN 14D.
001716: 00,2301           00006                           EXTEND
001717: 00,2302           62322                           BZMF     DOSSHFT                               #  DO THE SHIFT IMMEDIATELY IF SO.
001718:
001719: 00,2303           67752                 +4        AD       NEGONE                                #  IF NOT, DECREMENT SHIFT COUNT BY 14D AND
001720: 00,2304           54135                           TS       MPTEMP                                #  SHIFT MPAC RIGHT 14 PLACES.
001721: 00,2305           34755                           CAF      ZERO
001722: 00,2306           56154                           XCH      MPAC
001723: 00,2307           56155                           XCH      MPAC       +1
001724: 00,2310           54156                           TS       MPAC       +2
001725: 00,2311           10135                           CCS      MPTEMP                                #  SEE IF FINISHED, DO FINAL DECREMENT.
001726: 00,2312           54135                           TS       MPTEMP
001727: 00,2313           02300                           TC       GENSCR     +1
001728: 00,2314           22650        SLOPEHI            DEC      .5884                                 #  SQRT CONSTANT.
001729: 00,2315           34742                           CAF      BIT10                                 #  FINISHED WITH SHIFT.  SEE IF ROUND
001730: 00,2316           70116                           MASK     ADDRWD                                #  WANTED.
001731: 00,2317           10000                           CCS      A
001732: 00,2320           07141                           TC       ROUNDSUB
001733: 00,2321           16064                           TCF      DANZIG                                #  DO SO AND/OR EXIT.
001734:
001735: 00,2322           50135        DOSSHFT            INDEX    MPTEMP                                #  PICK UP SHIFTING BIT.
001736: 00,2323           34736                           CAF      BIT14
001737: 00,2324           54135                           TS       MPTEMP
001738: 00,2325           34742                           CAF      BIT10                                 #  SEE IF TERMINAL ROUND DESIRED.
001739: 00,2326           70116                           MASK     ADDRWD
001740: 00,2327           10000                           CCS      A
001741: 00,2330           12031                           TCF      RIGHTR                                #  YES.
001742: 00,2331           12033                           TCF      MPACSHR                               #  JUST SHIFT RIGHT.
001743:


001745:                                                                                                  #  PROCESS THE RIGHT- (SL(R) WITH A NEGATIVE COUNT), LEFT-, AND LEFT OPTIONS.
001746:
001747: 00,2332           40135        RIGHT-             CS       MPTEMP                                #  GET ABSOLUTE VALUE - 1 OF SHIFT COUNT
001748: 00,2333           62126                           AD       OCT176                                #  UNDERSTANDING THAT BIT8 (PSEUDO-SIGN)
001749: 00,2334           54135                           TS       MPTEMP                                #  WAS 1 INITIALLY.
001750: 00,2335           12236                           TCF      RIGHT                                 #  DO NORMAL SHIFT RIGHT.
001751:
001752: 00,2336           42126        LEFT-              CS       OCT176                                #  SAME PROLOGUE TO LEFT FOR INDEXED RIGHT
001753: 00,2337           60135                           AD       MPTEMP                                #  SHIFT WHOSE NET SHIFT COUNT IS NEGATIVE
001754: 00,2340           40000                           COM
001755: 00,2341           54135                           TS       MPTEMP
001756:
001757: 00,2342           10163        LEFT               CCS      MODE                                  #  SINCE LEFT SHIFTING IS DONE ONE PLACE AT
001758: 00,2343           12346                           TCF      GENSCL                                #  A TIME, NO COMPARISON WITH 14 NEED BE
001759: 00,2344           12346                           TCF      GENSCL                                #  DONE.  FOR SCALARS, SEE IF TERMINAL ROUND
001760: 00,2345           12145                           TCF      VSSL                                  #  DESIRED.  FOR VECTORS, SHIFT IMMEDIATELY.
001761:
001762: 00,2346           40116        GENSCL             CS       ADDRWD                                #  PUT ROUNDING BIT (BIT 10 OF ADDRWD) INTO
001763: 00,2347           00006                           EXTEND                                         #  BIT 15 OF CYR WHERE THE ROUNDING BIT OF
001764: 00,2350           74746                           MP       BIT6                                  #  A SHORT SHIFT LEFT WOULD BE
001765: 00,2351           54020                           TS       CYR
001766: 00,2352           12103                           TCF      TSSL       +2                         #  DO THE SHIFT.
001767:


001769:                                                                                                  #  SCALAR DIVISION INSTRUCTIONS, DDV AND BDDV, ARE EXECUTED HERE.  AT THIS POINT, THE DIVIDEND IS IN MPAC
001770:                                                                                                  #  AND THE DIVISOR IS IN BUF.
001771:
001772: 00,2353           44753        DDV/BDDV           CS       ONE                                   #  INITIALIZATION
001773: 00,2354           54136                           TS       DVSIGN                                #  +-1 FOR POSITIVE QUOTIENT -- -0 FOR NEG.
001774: 00,2355           54137                           TS       DVNORMCT                              #  DIVIDENT NORMALIZATION COUNT.
001775: 00,2356           54140                           TS       MAXDVSW                               #  NEAR-ONE DIVIDE FLAG.
001776:
001777: 00,2357           10130                           CCS      BUF                                   #  FORCE BUF POSITIVE WITH THE MAJOR PART
001778: 00,2360           12516                           TCF      BUFPOS                                #  NON-ZERO.
001779: 00,2361           12363                           TCF      +2
001780: 00,2362           12531                           TCF      BUFNEG
001781:
001782: 00,2363           54156        BUFZERO            TS       MPAC       +2                         #  ZERO THIS.
001783: 00,2364           07262                           TC       TPAGREE                               #  FORCE SIGN AGREEMENT BEFORE OVERFLOW
001784:
001785: 00,2365           10154                           CCS      MPAC                                  #  TEST TO SEE IF MPAC NON-ZERO.  (TOO BIG)
001786: 00,2366           12414                           TCF      OVF+                                  #  MAJOR PART OF DIVIDEND IS POSITIVE NON-0
001787: 00,2367           12371                           TCF      +2
001788: 00,2370           12413                           TCF      OVF+       -1                         #  MAJOR PART OF DIVIDEND IS NEG. NON-ZERO
001789:
001790: 00,2371           56131                           XCH      BUF        +1                         #  SHIFT DIVIDENT AND DIVISOR LEFT 14
001791: 00,2372           56130                           XCH      BUF
001792: 00,2373           56155                           XCH      MPAC       +1
001793: 00,2374           56154                           XCH      MPAC
001794: 00,2375           10130                           CCS      BUF                                   #  TRY AGAIN ON FORMER MINOR PART.
001795: 00,2376           12422                           TCF      BUF+
001796: 00,2377           12401                           TCF      +2                                    #  OVERFLOW ON ZERO DIVISOR.
001797: 00,2400           12416                           TCF      BUF-
001798:
001799: 00,2401           40154                           CS       MPAC                                  #  SIGN OF MPAC DETERMINES SIGN OF RESULT.
001800: 00,2402           00006        SGNDVOVF           EXTEND
001801: 00,2403           62405                           BZMF     +2
001802: 00,2404           24136                           INCR     DVSIGN                                #  NEGMAX IN MPAC PERHAPS.
001803: 00,2405           34733        DVOVF              CAF      POSMAX                                #  ON DIVISION OVERFLOW OF ANY SORT, SET
001804: 00,2406           54154                           TS       MPAC                                  #  SET DP MPAC TO +-POSMAX.
001805: 00,2407           02630                           TC       FINALDV    +3
001806: 00,2410           34753                           CAF      ONE                                   #  SET OVEFLOW INDICATOR AND EXIT.
001807: 00,2411           54121                           TS       OVFIND
001808: 00,2412           06064                           TC       DANZIG
001809:
001810: 00,2413           24136                 -1        INCR     DVSIGN
001811: 00,2414           40131        OVF+               CS       BUF        +1                         #  LOAD LOWER ORDER PART OF DIVISOR.
001812: 00,2415           12402                           TCF      SGNDVOVF                              #  GET SIGN OF RESULT.
001813:
001814: 00,2416           00006        BUF-               EXTEND                                         #  IF BUF IS NEGATIVE, COMPLEMENT IT AND
001815: 00,2417           40131                           DCS      BUF                                   #  MAINTAIN DVSIGN FOR FINAL QUOTIENT SIGN.
001816: 00,2420           52131                           DXCH     BUF
001817: 00,2421           24136                           INCR     DVSIGN                                #  NOW -0.
001818:


001820: 00,2422           10154        BUF+               CCS      MPAC                                  #  FORCE MPAC POSITIVE, CHECKING FOR ZERO
001821: 00,2423           12437                           TCF      MPAC+                                 #  DIVIDEND IN THE PROCESS.
001822: 00,2424           12426                           TCF      +2
001823: 00,2425           12433                           TCF      MPAC-
001824: 00,2426           10155                           CCS      MPAC       +1
001825: 00,2427           12437                           TCF      MPAC+
001826: 00,2430           16064                           TCF      DANZIG                                #  EXIT IMMEDIATELY ON ZERO DIVIDEND.
001827: 00,2431           12433                           TCF      MPAC-
001828: 00,2432           16064                           TCF      DANZIG
001829:
001830: 00,2433           00006        MPAC-              EXTEND                                         #  FORCE MPAC POSITIVE AS BUF IN BUF-.
001831: 00,2434           40155                           DCS      MPAC
001832: 00,2435           52155                           DXCH     MPAC
001833: 00,2436           24136                           INCR     DVSIGN                                #  NOW +1 OR -0.
001834:


001836: 00,2437           40154        MPAC+              CS       MPAC                                  #  CHECK FOR DIVISION OVERFLOW.  IF THE
001837: 00,2440           67752                           AD       NEGONE                                #  MAJOR PART OF THE DIVIDEND IS LESS THAN
001838: 00,2441           60130                           AD       BUF                                   #  THE MAJOR PART OF THE DIVISOR BY AT
001839: 00,2442           10000                           CCS      A                                     #  LEAST TWO, WE CAN PROCEED IMMEDIATELY
001840: 00,2443           12505                           TCF      DVNORM                                #  WITHOUT NORMALIZATION PRODUCING A DVMAX.
001841: 00,2444           60001        -1/2+2             OCT      60001                                 #  USED IN SQRTSUB.
001842:
001843: 00,2445           12446                           TCF      +1                                    #  IF THE ABOVE DOES NOT HOLD, FORCE SIGN
001844: 00,2446           34736                           CAF      HALF                                  #  AGREEMENT IN NUMERATOR AND DENOMINATOR
001845: 00,2447           60000                           DOUBLE                                         #  TO FACILITATE OVERFLOW AND NEAR-ONE
001846: 00,2450           60155                           AD       MPAC       +1                         #  CHECKING.
001847: 00,2451           54155                           TS       MPAC       +1
001848: 00,2452           34755                           CAF      ZERO
001849: 00,2453           64733                           AD       POSMAX
001850: 00,2454           26154                           ADS      MPAC
001851:
001852: 00,2455           34736                           CAF      HALF                                  #  SAME FOR BUF.
001853: 00,2456           60000                           DOUBLE
001854: 00,2457           60131                           AD       BUF        +1
001855: 00,2460           54131                           TS       BUF        +1
001856: 00,2461           34755                           CAF      ZERO
001857: 00,2462           64733                           AD       POSMAX
001858: 00,2463           26130                           ADS      BUF
001859:
001860: 00,2464           40154                           CS       MPAC                                  #  CHECK MAGNITUDE OF SIGN-CORRECTED
001861: 00,2465           60130                           AD       BUF                                   #  OPERANDS.
001862: 00,2466           10000                           CCS      A
001863: 00,2467           12505                           TCF      DVNORM                                #  DIVIDE OK -- WILL NOT BECOME MAXOV CASE.
001864: 00,2470           00133        LBUF2              ADRES    BUF2
001865: 00,2471           12405                           TCF      DVOVF                                 #  DIVISOR NOT LESS THAN DIVIDEND -- OVF.
001866:
001867: 00,2472           54140                           TS       MAXDVSW                               #  IF THE MAJOR PARTS OF THE DIVIDEND AND
001868: 00,2473           40155                           CS       MPAC       +1                         #  DIVISOR ARE EQUAL, A SPECIAL APPROXIMA-
001869: 00,2474           60131                           AD       BUF        +1                         #  TION IS USED (PROVIDED THE DIVISION IS
001870: 00,2475           00006                           EXTEND                                         #  POSSIBLE, OF COURSE).
001871: 00,2476           62405                           BZMF     DVOVF
001872: 00,2477           12505                           TCF      DVNORM                                #  IF NO OVERFLOW.
001873:


001875: 00,2500           00006        BUFNORM            EXTEND                                         #  ADD -1 TO AUGMENT SHIFT COUNT AND SHIFT
001876: 00,2501           24137                           AUG      DVNORMCT                              #  LEFT ONE PLACE.
001877: 00,2502           00006                           EXTEND
001878: 00,2503           30131                           DCA      BUF
001879: 00,2504           20131                           DAS      BUF
001880:
001881: 00,2505           30130        DVNORM             CA       BUF                                   #  SEE IF DIVISOR NORMALIZED YET.
001882: 00,2506           60000                           DOUBLE
001883: 00,2507           54000                           OVSK
001884: 00,2510           12500                           TCF      BUFNORM                               #  NO -- SHIFT LEFT ONE AND TRY AGAIN.
001885:
001886: 00,2511           52155                           DXCH     MPAC                                  #  CALL DIVIDEND NORMALIZATION SEQUENCE
001887: 00,2512           50137                           INDEX    DVNORMCT                              #  PRIOR TO DOING THE DIVIDE.
001888: 00,2513           02565                           TC       MAXTEST
001889:
001890: 00,2514           54156                           TS       MPAC       +2                         #  RETURNS WITH DIVISION DONE AND C(A) = 0.
001891: 00,2515           16064                           TCF      DANZIG
001892:
001893: 00,2516           10000        BUFPOS             CCS      A
001894: 00,2517           12422                           TCF      BUF+                                  #  TO BUF+ IF BUF IS GREATER THAN +1.
001895:
001896: 00,2520           40131                           CS       BUF        +1                         #  IF BUF IS +1, FORCING SIGN AGREEMENT
001897: 00,2521           00006                           EXTEND                                         #  MAY CAUSE BUF TO BECOME ZERO.
001898: 00,2522           62422                           BZMF     BUF+                                  #  BRANCH IF SIGNS AGREE.
001899:
001900: 00,2523           34736                           CA       HALF                                  #  SIGNS DISAGREE.  FORCE AGREEMENT.
001901: 00,2524           60000                 +6        DOUBLE
001902: 00,2525           26131                           ADS      BUF        +1
001903: 00,2526           34755                           CA       ZERO
001904: 00,2527           54130                           TS       BUF
001905: 00,2530           12363                           TCF      BUFZERO
001906:
001907: 00,2531           10000        BUFNEG             CCS      A
001908: 00,2532           12416                           TCF      BUF-                                  #  TO BUF- IF BUF IS LESS THAN -1.
001909:
001910: 00,2533           30131                           CA       BUF        +1                         #  IF BUF IS -1, FORCING SIGN AGREEMENT
001911: 00,2534           00006                           EXTEND                                         #  MAY CAUSE BUF TO BECOME ZERO.
001912: 00,2535           62416                           BZMF     BUF-                                  #  BRANCH IF SIGNS AGREE.
001913:
001914: 00,2536           44736                           CS       HALF                                  #  SIGNS DISAGREE.  FORCE AGREEMENT.
001915: 00,2537           12524                           TCF      BUFPOS     +6
001916:


001918:                                                                                                  #  THE FOLLOWING ARE PROLOGUES TO SHIFT THE DIVIDEND ARRIVING IN A AND L BEFORE THE DIVIDE.
001919:
001920: 00,2540           22021                 -21D      LXCH     SR                                    #  SPECIAL PROLOGUE FOR UNIT WHEN THE
001921: 00,2541           00006                           EXTEND                                         #  LENGTH OF THE ARGUMENT WAS NOT LESS THAN
001922: 00,2542           74736                           MP       HALF                                  #  .5.  IN THIS CASE, EACH COMPONENT MUST BE
001923: 00,2543           56001                           XCH      L                                     #  SHIFTED RIGHT ONE TO PRODUCE A HALF-UNIT
001924: 00,2544           60021                           AD       SR                                    #  VECTOR.
001925: 00,2545           56001                           XCH      L
001926: 00,2546           12571                           TCF      GENDDV     +1                         #  WITH DP DIVIDEND IN A,L.
001927:
001928: 00,2547           20001                           DDOUBL                                         #  PROLOGUE WHICH NORMALIZES THE DIVIDEND
001929: 00,2550           20001                           DDOUBL                                         #  WHEN IT IS KNOWN THAT NO DIVISION
001930: 00,2551           20001                           DDOUBL                                         #  OVEFLOW WILL OCCUR.
001931: 00,2552           20001                           DDOUBL
001932: 00,2553           20001                           DDOUBL
001933: 00,2554           20001                           DDOUBL
001934: 00,2555           20001                           DDOUBL
001935: 00,2556           20001                           DDOUBL
001936: 00,2557           20001                           DDOUBL
001937: 00,2560           20001                           DDOUBL
001938: 00,2561           20001                           DDOUBL
001939: 00,2562           20001                           DDOUBL
001940: 00,2563           20001                           DDOUBL
001941: 00,2564           52155                           DXCH     MPAC
001942:
001943: 00,2565           10140        MAXTEST            CCS      MAXDVSW                               #  0 IF MAJORS MIGHT BE =, -1 OTHERWISE.
001944: 00,2566           06552        BIASHI             DEC      .4192      B-1                        #  SQRT CONSTANTS.
001945:
001946: 00,2567           12642                           TCF      MAXDV                                 #  CHECK TO SEE IF THAY ARE NOW EQUAL.
001947:


001949:                                                                                                  #  THE FOLLOWING IS A GENERAL PURPOSE DOUBLE PRECISION DIVISION ROUTINE.  IT DIVIDES MPAC BY BUF AND LEAVES
001950:                                                                                                  #  THE RESULT IN MPAC.  THE FOLLOWING CONDITIONS MUST BE SATISFIED:
001951:
001952:                                                                                                  #        1.      THE DIVISOR (BUF) MUST BE POSITIVE AND NOT LESS THAN .5.
001953:
001954:                                                                                                  #        2.      THE DIVIDEND (MPAC) MUST BE POSITIVE WITH THE MAJOR PART OF MPAC STRICTLY LESS THAN THAT OF BUF
001955:                                                                                                  #                (A SPECIAL APPROXIMATION, MAXDV, IS USED WHEN THE MAJOR PARTS ARE EQUAL).
001956:
001957:                                                                                                  #  UNDERSTANDING THAT A/B = Q + S(R/B) WHERE S = 2(-14) AND Q AND R ARE QUOTIENT AND REMAINDER, RESPEC-
001958:                                                                                                  #  TIVELY, THE FOLLOWING APPROXIMATION IS OBTAINED BY MULTIPLYING ABOVE AND BELOW BY C - SD AND NEGLECTING TERMS OF
001959:                                                                                                  #  ORDER S-SQUARED (POSSIBLY INTRODUCING ERROR INTO THE LOW TWO BITS OF THE RESULT).  SIGN AGREEMENT IS UNNECESSARY.
001960:
001961:                                                                                                  #        A + SB .      (R - CD)                                             A + SB
001962:                                                                                                  #        ------ = Q + S(------) WHERE Q AND R ARE QUOTIENT AND REMAINDER OF ------ RESPECTIVELY.
001963:                                                                                                  #        C + SD        (  C   }                                                C
001964:
001965: 00,2570           52155        GENDDV             DXCH     MPAC                                  #  WE NEED A AND B ONLY FOR FIRST DV.
001966: 00,2571           00006                 +1        EXTEND                                         #  (SPECIAL UNIT PROLOGUE ENTERS HERE).
001967: 00,2572           10130                           DV       BUF                                   #  A NOW CONTAINS Q AND L, R.
001968: 00,2573           52155                           DXCH     MPAC
001969:
001970: 00,2574           40154                           CS       MPAC                                  #  FORM DIVIDEND FOR MINOR PART OF RESULT.
001971: 00,2575           00006                           EXTEND
001972: 00,2576           70131                           MP       BUF        +1
001973: 00,2577           60155                           AD       MPAC       +1                         #  OVERFLOW AT THIS POINT IS POSITIVE SINCE
001974: 00,2600           54000                           OVSK                                           #  R IS POSITIVE IN EVERY CASE.
001975: 00,2601           12606                           TCF      +5
001976:
001977: 00,2602           00006                           EXTEND                                         #  OVERFLOW CAN BE REMOVED BY SUBTRACTING C
001978: 00,2603           60130                           SU       BUF                                   #  (BUF) ONCE SINCE R IS ALWAYS LESS THAN C
001979: 00,2604           24154                           INCR     MPAC                                  #  IN THIS CASE.  INCR COMPENSATES SUBTRACT.
001980: 00,2605           12610                           TCF      +DOWN                                 #  (SINCE C(A) IS STILL POSITIVE).
001981:
001982: 00,2606           00006                 +5        EXTEND                                         #  C(A) CAN BE MADE LESS THAN C IN MAGNI-
001983: 00,2607           62620                           BZMF     -UP                                   #  TUDE BY DIMINISHING IT BY C (SINCE C IS
001984:                                                                                                  #  NOT LESS THAN .5) UNLESS C(A) = 0.
001985:


001987: 00,2610           00006        +DOWN              EXTEND
001988: 00,2611           60130                           SU       BUF                                   #  IF POSITIVE, REDUCE ONLY IF NECESSARY
001989: 00,2612           00006                           EXTEND                                         #  SINCE THE COMPENSATING INCR MIGHT CAUSE
001990: 00,2613           12616                           BZF      +3                                    #  OVERFLOW.
001991: 00,2614           00006                           EXTEND                                         #  DON'T SUBTRACT UNLESS RESULT IS POSITIVE
001992: 00,2615           62624                           BZMF     ENDMAXDV                              #  OR ZERO.
001993:
001994: 00,2616           24154                 +3        INCR     MPAC                                  #  KEEP SUBTRACT HERE AND COMPENSATE.
001995: 00,2617           12625                           TCF      FINALDV
001996:
001997: 00,2620           00006        -UP                EXTEND                                         #  IF ZERO, SET MINOR PART OF RESULT TO
001998: 00,2621           12630                           BZF      FINALDV    +3                         #  ZERO.
001999:
002000: 00,2622           00006                           EXTEND                                         #  IF NEGATIVE, ADD C TO A, SUBTRACTING ONE
002001: 00,2623           26154                           DIM      MPAC                                  #  TO COMPENSATE.  DIM IS OK HERE SINCE THE
002002: 00,2624           60130        ENDMAXDV           AD       BUF                                   #  MAJOR PART NEVER GOES NEGATIVE.
002003:


002005: 00,2625           22007        FINALDV            ZL                                             #  DO DV TO OBTAIN MINOR PART OF RESULT.
002006: 00,2626           00006                           EXTEND
002007: 00,2627           10130                           DV       BUF
002008: 00,2630           54155                 +3        TS       MPAC       +1
002009:
002010: 00,2631           10136                           CCS      DVSIGN                                #  LEAVE RESULT POSITIVE UNLESS C(DVSIGN).
002011: 00,2632           00002                           TC       Q
002012: 00,2633           00002                           TC       Q
002013: 00,2634           00002                           TC       Q
002014:
002015: 00,2635           00006                           EXTEND
002016: 00,2636           40155                           DCS      MPAC
002017: 00,2637           52155                           DXCH     MPAC
002018: 00,2640           34755                           CAF      ZERO                                  #  SO WE ALWAYS RETURN WITH C(A) = 0.
002019: 00,2641           00002                           TC       Q
002020:


002022:                                                                                                  #  IF THE MAJOR PARTS OF THE DIVISOR AND DIVIDEND ARE EQUAL, BUT THE MINOR PARTS ARE SUCH THAT THE
002023:                                                                                                  #  DIVIDEND IS STRICTLY LESS THAN THE DIVISOR IN MAGNITUDE, THE FOLLOWING APPROXIMATION IS USED.  THE ASSUMPTIONS
002024:                                                                                                  #  ARE THE SAME AS THE GENERAL ROUTINE WITH THE ADDITION THAT SIGN AGREEMENT IS NECESSARY (B, C, & D POSITIVE).
002025:
002026:                                                                                                  #        C + SB .          (C + B - D)
002027:                                                                                                  #        ------ = 37777 + S(---------)
002028:                                                                                                  #        C + SD            (    C    )
002029:
002030:                                                                                                  #  THE DIVISION MAY BE PERFORMED IMMEDIATELY SINCE B IS STRICTLY LESS THAN D AND C IS NOT LESS THAN .5.
002031:
002032: 00,2642           40154        MAXDV              CS       MPAC                                  #  SEE IF MAXDV CASE STILL HOLDS AFTER
002033: 00,2643           60130                           AD       BUF                                   #  NORMALIZATION.
002034: 00,2644           00006                           EXTEND
002035: 00,2645           12647                           BZF      +2
002036: 00,2646           12570                           TCF      GENDDV                                #  MPAC NOW LESS THAN BUFF -- DIVIDE AS USUAL.
002037:
002038: 00,2647           34733                 +2        CAF      POSMAX                                #  SET MAJOR PART OF RESULT.
002039: 00,2650           54154                           TS       MPAC
002040:
002041: 00,2651           40131                           CS       BUF        +1                         #  FORM DIVIDEND OF MINOR PART OF RESULT.
002042: 00,2652           60155                           AD       MPAC       +1
002043: 00,2653           12624                           TCF      ENDMAXDV                              #  GO ADD C AND DO DIVIDE, ATTACHING SIGN
002044:                                                                                                  #  BEFORE EXITING.
002045:


002047:                                                                                                  #  VECTOR DIVIDED BY SCALAR, V/SC, IS EXECUTED HERE.  THE VECTOR IS NOW IN MPAC WITH SCALAR IN BUF.
002048:
002049: 00,2654           44753        V/SC2              CS       ONE                                   #  INITIALIZE DIVIDEND NORMALIZATION COUNT
002050: 00,2655           54137                           TS       DVNORMCT                              #  AND DIVISION SIGN REGISTER.
002051: 00,2656           54127                           TS       VBUF       +5
002052:
002053: 00,2657           03010                           TC       VECAGREE                              #  FORCE SIGN AGREEMENT IN VECTOR
002054:
002055: 00,2660           52131                           DXCH     BUF
002056: 00,2661           07547                           TC       ALSIGNAG                              #  SIGN AGREE BUF
002057: 00,2662           52131                           DXCH     BUF
002058: 00,2663           10130                           CCS      BUF                                   #  FORCE DIVISOR POSITIVE WITH MAJOR PART
002059: 00,2664           12721                           TCF      /BUF+                                 #  NON-ZERO (IF POSSIBLE).
002060: 00,2665           12667                           TCF      +2
002061: 00,2666           12715                           TCF      /BUF-
002062:
002063: 00,2667           56131                           XCH      BUF        +1                         #  SHIFT VECTOR AND SCALAR LEFT 14.
002064: 00,2670           56130                           XCH      BUF
002065: 00,2671           56155                           XCH      MPAC       +1
002066: 00,2672           56154                           XCH      MPAC
002067: 00,2673           00006                           EXTEND                                         #  CHECK FOR OVERFLOW IN EACH CASE.
002068: 00,2674           12676                           BZF      +2
002069: 00,2675           12405                           TCF      DVOVF
002070:
002071: 00,2676           56160                           XCH      MPAC       +4
002072: 00,2677           56157                           XCH      MPAC       +3
002073: 00,2700           00006                           EXTEND
002074: 00,2701           12703                           BZF      +2
002075: 00,2702           12405                           TCF      DVOVF
002076:
002077: 00,2703           56162                           XCH      MPAC       +6
002078: 00,2704           56161                           XCH      MPAC       +5
002079: 00,2705           00006                           EXTEND
002080: 00,2706           12710                           BZF      +2
002081: 00,2707           12405                           TCF      DVOVF
002082:
002083: 00,2710           10130                           CCS      BUF
002084: 00,2711           12721                           TCF      /BUF+
002085: 00,2712           12405                           TCF      DVOVF                                 #  ZERO DIVISOR - OVERFLOW.
002086: 00,2713           12715                           TCF      /BUF-
002087: 00,2714           12405                           TCF      DVOVF
002088:
002089: 00,2715           00006        /BUF-              EXTEND                                         #  ON NEGATIVE, COMPLEMENT BUF AND MAINTAIN
002090: 00,2716           40131                           DCS      BUF                                   #  DVSIGN IN VBUF +5.
002091: 00,2717           52131                           DXCH     BUF
002092: 00,2720           24127                           INCR     VBUF       +5
002093:


002095: 00,2721           00006        /BUF+              EXTEND
002096: 00,2722           30131                           DCA      BUF                                   #  LEAVE ABS(ORIG DIVISOR) IN BUF2
002097: 00,2723           52134                           DXCH     BUF2                                  #  FOR OVERFLOW TESTING
002098: 00,2724           12732                           TCF      /NORM                                 #  NORMALIZE DIVISOR IN BUF.
002099:
002100: 00,2725           00006        /NORM2             EXTEND                                         #  IF LESS THAN .5, AUGMENT DVNORMCT AND
002101: 00,2726           24137                           AUG      DVNORMCT                              #  DOUBLE DIVISOR.
002102: 00,2727           00006                           EXTEND
002103: 00,2730           30131                           DCA      BUF
002104: 00,2731           20131                           DAS      BUF
002105:
002106: 00,2732           30130        /NORM              CA       BUF                                   #  SEE IF DIVISOR NORMALIZED.
002107: 00,2733           60000                           DOUBLE
002108: 00,2734           54000                           OVSK
002109: 00,2735           12725                           TCF      /NORM2                                #  DOUBLE AND TRY AGAIN IF NOT.
002110:
002111: 00,2736           02750                           TC       V/SCDV                                #  DO X COMPONENT DIVIDE.
002112: 00,2737           52160                           DXCH     MPAC       +3                         #  SUPPLY ARGUMENTS IN USUAL SEQUENCE.
002113: 00,2740           52155                           DXCH     MPAC
002114: 00,2741           52160                           DXCH     MPAC       +3
002115:
002116: 00,2742           02750                           TC       V/SCDV                                #  Y COMPONENT.
002117: 00,2743           52162                           DXCH     MPAC       +5
002118: 00,2744           52155                           DXCH     MPAC
002119: 00,2745           52162                           DXCH     MPAC       +5
002120:
002121: 00,2746           02750                           TC       V/SCDV                                #  Z COMPONENT.
002122: 00,2747           17423                           TCF      VROTATEX                              #  GO RE-ARRANGE COMPONENTS BEFORE EXIT.
002123:


002125:                                                                                                  #  SUBROUTINE USED BY V/SC TO DIVIDE VECTOR COMPONENT IN MPAC,+1 BY THE SCALAR GIVEN IN BUF.
002126:
002127: 00,2750           30127        V/SCDV             CA       VBUF       +5                         #  REFLECTS SIGN OF SCALAR.
002128: 00,2751           54136                           TS       DVSIGN
002129:
002130: 00,2752           10154                           CCS      MPAC                                  #  FORCE MPAC POSITIVE, EXITING ON ZERO.
002131: 00,2753           12767                           TCF      /MPAC+
002132: 00,2754           12756                           TCF      +2
002133: 00,2755           12763                           TCF      /MPAC-
002134:
002135: 00,2756           10155                           CCS      MPAC       +1
002136: 00,2757           12767                           TCF      /MPAC+
002137: 00,2760           00002                           TC       Q
002138: 00,2761           12763                           TCF      /MPAC-
002139: 00,2762           00002                           TC       Q
002140:
002141: 00,2763           00006        /MPAC-             EXTEND                                         #  USUAL COMPLEMENTING AND SETTING OF SIGN.
002142: 00,2764           40155                           DCS      MPAC
002143: 00,2765           52155                           DXCH     MPAC
002144: 00,2766           24136                           INCR     DVSIGN
002145:
002146: 00,2767           44753        /MPAC+             CS       ONE                                   #  INITIALIZE NEAR-ONE SWITCH.
002147: 00,2770           54140                           TS       MAXDVSW
002148:
002149: 00,2771           40154                           CS       MPAC                                  #  CHECK POSSIBLE OVERFLOW.
002150: 00,2772           60133                           AD       BUF2                                  #  UNNORMALIZED INPUT DIVISOR.
002151: 00,2773           10000                           CCS      A
002152: 00,2774           13004                           TCF      DDVCALL                               #  NOT NEAR-ONE
002153: 00,2775           12777                           TCF      +2                                    #  +0 IS JUST POSSIBLE
002154: 00,2776           12405                           TCF      DVOVF                                 #  NO HOPE
002155: 00,2777           54140                           TS       MAXDVSW                               #  SIGNAL POSSIBLE NEAR-ONE CASE
002156: 00,3000           40155                           CS       MPAC       +1                         #  SEE IF DIVISION CAN BE DONE
002157: 00,3001           60134                           AD       BUF2       +1
002158: 00,3002           00006                           EXTEND
002159: 00,3003           62405                           BZMF     DVOVF
002160:
002161: 00,3004           52155        DDVCALL            DXCH     MPAC                                  #  CALL PRE-DIVIDE NORMALIZATION.
002162: 00,3005           50137                           INDEX    DVNORMCT
002163: 00,3006           12565                           TCF      MAXTEST
002164:


002166: 00,3007           32506        SLOPELO            DEC      .8324
002167:
002168: 00,3010           56002        VECAGREE           XCH      Q                                     #  SAVE Q IN A
002169: 00,3011           52155                           DXCH     MPAC
002170: 00,3012           07547                           TC       ALSIGNAG                              #  SIGNAGREE MPAC
002171: 00,3013           52155                           DXCH     MPAC
002172: 00,3014           52160                           DXCH     MPAC       +3
002173: 00,3015           07547                           TC       ALSIGNAG                              #  SIGN AGREE MPAC +3
002174: 00,3016           52160                           DXCH     MPAC       +3
002175: 00,3017           52162                           DXCH     MPAC       +5
002176: 00,3020           07547                           TC       ALSIGNAG                              #  SIGNAGREE MPAC +5
002177: 00,3021           52162                           DXCH     MPAC       +5
002178: 00,3022           00000                           TC       A
002179:


002181:                                                                                                  #  THE FOLLOWING ROUTINE EXECUTES THE UNIT INSTRUCTION, WHICH TAKES THE UNIT OF THE VECTOR IN MPAC.
002182:
002183: 00,3023           03010        UNIT               TC       VECAGREE                              #  FORCE SIGN AGREEMENT IN VECTOR
002184: 00,3024           07535                           TC       MPACVBUF                              #  SAVE ARGUMENT IN VBUF
002185: 00,3025           34755                           CAF      ZERO                                  #  MUST SENSE OVERFLOW IN FOLLOWING DOT.
002186: 00,3026           56121                           XCH      OVFIND
002187: 00,3027           54141                           TS       TEM1
002188: 00,3030           03317                           TC       VSQSUB                                #  DOT MPAC WITH ITSELF.
002189: 00,3031           30141                           CA       TEM1
002190: 00,3032           56121                           XCH      OVFIND
002191: 00,3033           00006                           EXTEND
002192: 00,3034           13036                           BZF      +2
002193: 00,3035           12405                           TCF      DVOVF
002194: 00,3036           00006                           EXTEND
002195: 00,3037           30155                           DCA      MPAC                                  #  LEAVE THE SQUARE OF THE LENGTH OF THE
002196: 00,3040           50120                           INDEX    FIXLOC                                #  ARGUMENT IN LVSQUARE.
002197: 00,3041           52043                           DXCH     LVSQUARE
002198:
002199: 00,3042           03343                           TC       SQRTSUB                               #  GO TAKE THE NORMALIZED SQUARE ROOT.
002200:
002201: 00,3043           10154                           CCS      MPAC                                  #  CHECK FOR UNIT OVERFLOW.
002202: 00,3044           13051                           TCF      +5                                    #  MPAC IS NOT LESS THAN .5 UNLESS
002203: 00,3045           54001                           TS       L
002204: 00,3046           50120                           INDEX    FIXLOC
002205: 00,3047           52045                           DXCH     LV
002206: 00,3050           12405                           TCF      DVOVF                                 #  INPUT TO SQRTSUB WAS 0.
002207:
002208: 00,3051           44317                           CS       FOURTEEN                              #  SEE IF THE INPUT WAS SO SMALL THAT THE
002209: 00,3052           60135                           AD       MPTEMP                                #  FIRST TWO REGISTERS OF THE SQUARE WERE 0
002210: 00,3053           10000                           CCS      A
002211: 00,3054           40000                           COM                                            #  IF SO, SAVE THE NEGATIVE OF THE SHIFT
002212: 00,3055           13133                           TCF      SMALL                                 #  COUNT -15D.
002213:
002214: 00,3056           13065                           TCF      LARGE                                 #  (THIS IS USUALLY THE CASE.)
002215:
002216: 00,3057           44761                           CS       THIRTEEN                              #  IF THE SHIFT COUNT WAS EXACTLY 14, SET
002217: 00,3060           54135                           TS       MPTEMP                                #  THE PRE-DIVIDE NORM COUNT TO -13D.
002218:
002219: 00,3061           30154                           CA       MPAC                                  #  SHIFT THE LENGTH RIGHT 14 BEFORE STORING
002220: 00,3062           54001        SMALL2             TS       L                                     #  (SMALL EXITS TO THIS POINT).
002221: 00,3063           34755                           CAF      ZERO
002222: 00,3064           13112                           TCF      LARGE2                                #  GO TO STORE LENGTH AND PROCEED.
002223:
002224: 00,3065           10135        LARGE              CCS      MPTEMP                                #  MOST ALL CASES COME HERE.
002225: 00,3066           13074                           TCF      LARGE3                                #  SEE IF NO NORMALIZATION WAS REQUIRED BY
002226: 00,3067           42024                           CS       SRDDV                                 #  SQRT, AND IF SO, SET UP FOR A SHIFT
002227: 00,3070           54135                           TS       MPTEMP                                #  RIGHT 1 BEFORE DIVIDING TO PRODUCE
002228: 00,3071           00006                           EXTEND                                         #  THE DESIRED HALF UNIT VECTOR.
002229: 00,3072           30155                           DCA      MPAC


002231: 00,3073           13112                           TCF      LARGE2
002232:


002234: 00,3074           40000        LARGE3             COM                                            #  LEAVE NEGATIVE OF SHIFT COUNT-1 FOR
002235: 00,3075           54135                           TS       MPTEMP                                #  PREDIVIDE LEFT SHIFT.
002236:
002237: 00,3076           40000                           COM                                            #  PICK UP REQUIRED SHIFTING BIT TO UNNORM-
002238: 00,3077           50000                           INDEX    A                                     #  ALIZE THE SQRT RESULT.
002239: 00,3100           34736                           CAF      BIT14
002240: 00,3101           54130                           TS       BUF
002241: 00,3102           00006                           EXTEND
002242: 00,3103           70155                           MP       MPAC       +1
002243: 00,3104           56130                           XCH      BUF
002244: 00,3105           00006                           EXTEND                                         #  (UNNORMALIZE THE SQRT FOR LV).
002245: 00,3106           70154                           MP       MPAC
002246: 00,3107           56001                           XCH      L
002247: 00,3110           60130                           AD       BUF
002248: 00,3111           56001                           XCH      L
002249:
002250: 00,3112           50120        LARGE2             INDEX    FIXLOC
002251: 00,3113           52045                           DXCH     LV                                    #  LENGTH NOW STORED IN WORK AREA.
002252:
002253: 00,3114           44753                           CS       ONE
002254: 00,3115           54140                           TS       MAXDVSW                               #  NO MAXDV CASES IN UNIT.
002255:
002256: 00,3116           52123                           DXCH     VBUF                                  #  PREPARE X COMPONENT FOR DIVIDE, SETTING
002257: 00,3117           52155                           DXCH     MPAC                                  #  LENGTH OF VECTOR AS DIVISOR IN BUF.
002258: 00,3120           52131                           DXCH     BUF
002259: 00,3121           03151                           TC       UNITDV
002260:
002261: 00,3122           52125                           DXCH     VBUF       +2                         #  DO Y AND Z IN USUAL FASHION SO WE CAN
002262: 00,3123           52155                           DXCH     MPAC                                  #  EXIT THROUGH VROTATEX.
002263: 00,3124           52160                           DXCH     MPAC       +3
002264: 00,3125           03151                           TC       UNITDV
002265:
002266: 00,3126           52127                           DXCH     VBUF       +4
002267: 00,3127           52155                           DXCH     MPAC
002268: 00,3130           52162                           DXCH     MPAC       +5
002269: 00,3131           03151                           TC       UNITDV
002270: 00,3132           17423                           TCF      VROTATEX                              #  AND EXIT.
002271:


002273:                                                                                                  #  IF THE LENGTH OF THE ARGUMENT VECTOR WAS LESS THAN 2(-28), EACH COMPONENT MUST BE SHIFTED LEFT AT LEAST
002274:                                                                                                  #  14 PLACES BEFORE TEH DIVIDE, NOTE THAT IN THIS CASE, THE MAJOR PART OF EACH COMPONENT IS ZERO.
002275:
002276: 00,3133           54135        SMALL              TS       MPTEMP                                #  NEGATIVE OF PRE-DIVIDE SHIFT COUNT.
002277:
002278: 00,3134           34755                           CAF      ZERO                                  #  SHIFT EACH COMPONENT LEFT 14.
002279: 00,3135           56123                           XCH      VBUF       +1
002280: 00,3136           56122                           XCH      VBUF
002281: 00,3137           56125                           XCH      VBUF       +3
002282: 00,3140           56124                           XCH      VBUF       +2
002283: 00,3141           56127                           XCH      VBUF       +5
002284: 00,3142           56126                           XCH      VBUF       +4
002285:
002286: 00,3143           40135                           CS       MPTEMP
002287: 00,3144           50000                           INDEX    A
002288: 00,3145           34736                           CAF      BIT14
002289: 00,3146           00006                           EXTEND
002290: 00,3147           70154                           MP       MPAC
002291: 00,3150           13062                           TCF      SMALL2
002292:
002293: 00,3151     4761               THIRTEEN           =        OCT15
002294: 00,3151     4317               FOURTEEN           =        OCT16
002295: 00,3151     4317               OCT16              =        R1D1
002296:


002298:                                                                                                  #  THE FOLLOWING ROUTINE SETS UP THE CALL TO THE DIVIDE ROUTINES.
002299:
002300: 00,3151           10154        UNITDV             CCS      MPAC                                  #  FORCE MPAC POSITIVE IF POSSIBLE, SETTING
002301: 00,3152           13170                           TCF      UMPAC+                                #  DVSIGN ACCORDING TO THE SIGN OF MPAC
002302: 00,3153           13155                           TCF      +2                                    #  SINCE THE DIVISOR IS ALWAYS POSITIVE
002303: 00,3154           13162                           TCF      UMPAC-                                #  HERE.
002304:
002305: 00,3155           10155                           CCS      MPAC       +1
002306: 00,3156           13170                           TCF      UMPAC+
002307: 00,3157           00002                           TC       Q                                     #  EXIT IMMEDIATELY ON ZERO.
002308: 00,3160           13162                           TCF      UMPAC-
002309: 00,3161           00002                           TC       Q
002310:
002311: 00,3162           44755        UMPAC-             CS       ZERO                                  #  IF NEGATIVE, SET -0 IN DVSIGN FOR FINAL
002312: 00,3163           54136                           TS       DVSIGN                                #  COMPLEMENT.
002313: 00,3164           00006                           EXTEND
002314: 00,3165           40155                           DCS      MPAC                                  #  PICK UP ABSOLUTE VALUE OF ARG AND JUMP.
002315: 00,3166           50135                           INDEX    MPTEMP
002316: 00,3167           12564                           TCF      MAXTEST    -1
002317:
002318: 00,3170           54136        UMPAC+             TS       DVSIGN                                #  SET DVSIGN FOR POSITIVE QUOTIENT.
002319: 00,3171           52155                           DXCH     MPAC
002320: 00,3172           50135                           INDEX    MPTEMP
002321: 00,3173           12564                           TCF      MAXTEST    -1
002322:


002324:                                                                                                  #  MISCELLANEOUS UNARY OPERATIONS.
002325:
002326: 00,3174           03300        DSQ                TC       DSQSUB                                #  SQUARE THE DP CONTENTS OF MPAC.
002327: 00,3175           16064                           TCF      DANZIG
002328:
002329: 00,3176           10163        ABVALABS           CCS      MODE                                  #  ABVAL OR ABS INSTRUCTION.
002330: 00,3177           13226                           TCF      ABS                                   #  DO ABS ON SCALAR.
002331: 00,3200           13226                           TCF      ABS
002332:
002333: 00,3201           03317        ABVAL              TC       VSQSUB                                #  DOT MPAC WITH ITSELF.
002334: 00,3202           22163                           LXCH     MODE                                  #  MODE IS NOW DP (L ZERO AFTER DAS).
002335:
002336: 00,3203           00006                           EXTEND                                         #  STORE SQUARE OF LENGTH IN WORK AREA.
002337: 00,3204           30155                           DCA      MPAC
002338: 00,3205           50120                           INDEX    FIXLOC
002339: 00,3206           52043                           DXCH     LVSQUARE
002340:


002342:                                                                                                  #  PROGRAM DESCRIPTION -- SUBROUTINE SQRT
002343:
002344:                                                                                                  #  FUNCTIONAL DESCRIPTION -- DOUBLE PRECISION SQUARE ROOT ROUTINE
002345:                                                                                                  #        THIS PROGRAM TAKES THE SQUARE ROOT OF THE 27 OR 28 MOST SIGNIFICANT BITS IN THE TRIPLE PRECISION SET OF
002346:                                                                                                  #        NUMBERS -- MPAC, MPAC+1, AND MPAC+2.  THE ROOT IS RETURNED DOUBLE PRECISION IN MPAC AND MPAC+1.
002347:
002348:                                                                                                  #  WARNING -- THIS SUBROUTINE USES A TRIPLE PRECISION INPUT.  THE PROGRAMMER MUST ASSURE THE CONTENTS OF MPAC+2
002349:                                                                                                  #        ESPECIALLY IF THE CONTENTS OF MPAC IS SMALL OR ZERO.  FOR DETAILS SEE STG MEMO NO.949.
002350:
002351:                                                                                                  #  CALLING SEQUENCE -- IN INTERPRETIVE MODE, I.E., FOLLOWING `TC INTPRET', `SQRT', NO ADDRESS IS ALLOWED.
002352:                                                                                                  #        INPUT SCALING: THE BINARY POINT IS ASSUMED TO THE RIGHT OF BIT 15.  THE ANSWER IS RETURNED WITH THE SAME SCALING.
002353:
002354:                                                                                                  #  SUBROUTINES -- GENSCR, MPACSHR, SQRTSUB, ABORT
002355:
002356:                                                                                                  #  ABORT EXIT MODE -- ABORTS ON NEGATIVE INPUT -1.2X10E-4 (77775 OCTAL) OR LESS.
002357:                                                                                                  #        DISPLAYS ERROR CODE 1302
002358:                                                                                                  #                TC      ABORT
002359:                                                                                                  #                OCT     1302
002360:
002361:                                                                                                  #  DEBRIS -- LOCATIONS BUF, MPTEMP, ADDRWD ARE USED
002362:
002363: 00,3207           03343        SQRT               TC       SQRTSUB                               #  TAKE THE SQUARE ROOT OF MPAC.
002364: 00,3210           10135                           CCS      MPTEMP                                #  RETURNED NORMALIZED SQUARE ROOT.  SEE IF
002365: 00,3211           13213                           TCF      +2                                    #  ANY UN-NORMALIZATION REQUIRED AND EXIT
002366: 00,3212           16064                           TCF      DANZIG                                #  IF NOT.
002367:
002368: 00,3213           63733                           AD       NEG12                                 #  A RIGHT SHIFT OF MORE THAN 13 COULD BE
002369: 00,3214           00006                           EXTEND                                         #  REQUIRED IF INPUT WAS ZERO IN MPAC,+1.
002370: 00,3215           63221                           BZMF     SQRTSHFT                              #  GOES HERE IN MOST CASES.
002371: 00,3216           22007                           ZL                                             #  IF A LONG SHIFT IS REQUIRED, GO TO
002372: 00,3217           22116                           LXCH     ADDRWD                                #  GENERAL RIGHT SHIFT ROUTINES.
002373: 00,3220           12303                           TCF      GENSCR     +4                         #  ADDRWD WAS ZERO TO PREVENT ROUND.
002374:
002375: 00,3221           50135        SQRTSHFT           INDEX    MPTEMP                                #  SELECT SHIFTING BIT AND EXIT THROUGH
002376: 00,3222           34735                           CAF      BIT15                                 #  SHIFT ROUTINES.
002377: 00,3223           54135                           TS       MPTEMP
002378: 00,3224           34755                           CAF      ZERO                                  #  TO ZERO MPAC +2 IN THE PROCESS.
002379: 00,3225           12036                           TCF      MPACSHR    +3
002380:
002381: 00,3226           06726        ABS                TC       BRANCH                                #  TEST SIGN OF MPAC AND COMPLEMENT IF
002382: 00,3227           16064                           TCF      DANZIG
002383: 00,3230           16064                           TCF      DANZIG
002384: 00,3231           17673                           TCF      COMP
002385:


002387: 00,3232           44751        VDEF               CS       FOUR                                  #  VECTOR DEFINE -- ESSENTIALLY TREATS
002388: 00,3233           26166                           ADS      PUSHLOC                               #  SCALAR IN MPAC AS X COMPONENT, PUSHES UP
002389: 00,3234           00006                           EXTEND                                         #  FOR Y AND THEN AGAIN FOR Z.
002390: 00,3235           50000                           INDEX    A
002391: 00,3236           30003                           DCA      2
002392: 00,3237           52160                           DXCH     MPAC       +3
002393: 00,3240           00006                           EXTEND
002394: 00,3241           50166                           INDEX    PUSHLOC
002395: 00,3242           30001                           DCA      0
002396: 00,3243           52162                           DXCH     MPAC       +5
002397: 00,3244           16524                           TCF      VMODE                                 #  MODE IS NON VECTOR.
002398:
002399: 00,3245           03317        VSQ                TC       VSQSUB                                #  DOT MPAC WITH ITSELF.
002400: 00,3246           17335                           TCF      DMODE                                 #  MODE IS NOW DP.
002401:
002402: 00,3247           00006        PUSH               EXTEND                                         #  PUSH DOWN MPAC LEAVING IT LOADED.
002403: 00,3250           30155                           DCA      MPAC
002404: 00,3251           50166                           INDEX    PUSHLOC                               #  PUSH DOWN FIRST TWO REGISTERS IN EACH
002405: 00,3252           52001                           DXCH     0
002406:
002407: 00,3253           50163                           INDEX    MODE                                  #  INCREMENT PUSHDOWN POINTER.
002408: 00,3254           36247                           CAF      NO.WDS
002409: 00,3255           26166                           ADS      PUSHLOC
002410:
002411: 00,3256           10163                           CCS      MODE
002412: 00,3257           13272                           TCF      TPUSH                                 #  PUSH DOWN MPAC +2.
002413: 00,3260           16064                           TCF      DANZIG                                #  DONE FOR DP.
002414:
002415: 00,3261           00006                           EXTEND                                         #  ON VECTOR, PUSH DOWN Y AND Z COMPONENTS.
002416: 00,3262           30160                           DCA      MPAC       +3
002417: 00,3263           50166                           INDEX    PUSHLOC
002418: 00,3264           51775                           DXCH     0          -4
002419: 00,3265           00006                           EXTEND
002420: 00,3266           30162                           DCA      MPAC       +5
002421: 00,3267           50166                           INDEX    PUSHLOC
002422: 00,3270           51777                           DXCH     0          -2
002423: 00,3271           16064                           TCF      DANZIG
002424:
002425: 00,3272           30156        TPUSH              CA       MPAC       +2
002426: 00,3273           16557                           TCF      ENDTPUSH   +2
002427:
002428: 00,3274           50120        RVQ                INDEX    FIXLOC                                #  RVQ -- RETURN IVA QPRET.
002429: 00,3275           30052                           CA       QPRET
002430: 00,3276           54117                           TS       POLISH
002431: 00,3277           16655                           TCF      GOTO       +4                         #  (ASSUME QPRET POINTS TO FIXED ONLY.)
002432:


002434:                                                                                                  #  THE FOLLOWING SUBROUTINES ARE USED IN SQUARING MPAC, IN BOTH THE SCALAR AND VECTOR SENSE.  THEY ARE
002435:                                                                                                  #  SPECIAL CASES OF DMPSUB AND DOTSUB, PUT IN TO SAVE SOME TIME.
002436:
002437: 00,3300           30155        DSQSUB             CA       MPAC       +1                         #  SQUARES THE SCALAR CONTENTS OF MPAC.
002438: 00,3301           00006                           EXTEND
002439: 00,3302           70000                           SQUARE
002440: 00,3303           54156                           TS       MPAC       +2
002441: 00,3304           34755                           CAF      ZERO                                  #  FORM 2(CROSS TERM).
002442: 00,3305           56155                           XCH      MPAC       +1
002443: 00,3306           00006                           EXTEND
002444: 00,3307           70154                           MP       MPAC
002445: 00,3310           20001                           DDOUBL                                         #  AND MAYBE OVEFLOW.
002446: 00,3311           20156                           DAS      MPAC       +1                         #  AND SET A TO NET OVERFLOW.
002447: 00,3312           56154                           XCH      MPAC
002448: 00,3313           00006                           EXTEND
002449: 00,3314           70000                           SQUARE
002450: 00,3315           20155                           DAS      MPAC
002451: 00,3316           00002                           TC       Q
002452:
002453: 00,3317           00006        VSQSUB             EXTEND                                         #  DOTS THE VECTOR IN MPAC WITH ITSELF.
002454: 00,3320           22137                           QXCH     DOTRET
002455: 00,3321           03300                           TC       DSQSUB                                #  SQUARE THE X COMPONENT.
002456: 00,3322           52160                           DXCH     MPAC       +3
002457: 00,3323           52155                           DXCH     MPAC
002458: 00,3324           52131                           DXCH     BUF                                   #  SO WE CAN END IN DOTSUB.
002459: 00,3325           30156                           CA       MPAC       +2
002460: 00,3326           54132                           TS       BUF        +2
002461:
002462: 00,3327           03300                           TC       DSQSUB                                #  SQUARE Y COMPONENT.
002463: 00,3330           52156                           DXCH     MPAC       +1
002464: 00,3331           20132                           DAS      BUF        +1
002465: 00,3332           60154                           AD       MPAC
002466: 00,3333           60130                           AD       BUF
002467: 00,3334           54130                           TS       BUF
002468: 00,3335           13337                           TCF      +2
002469: 00,3336           54121                           TS       OVFIND                                #  IF OVERFLOW.
002470:
002471: 00,3337           52162                           DXCH     MPAC       +5
002472: 00,3340           52155                           DXCH     MPAC
002473: 00,3341           03300                           TC       DSQSUB                                #  SQUARE Z COMPONENT.
002474: 00,3342           17210                           TCF      ENDDOT                                #  END AS IN DOTSUB.
002475:


002477:                                                                                                  #  DOUBLE PRECISION SQUARE ROOT ROUTINE.  TAKE THE SQUARE ROOT OF THE TRIPLE PRECISION (MPAC +2 USED ONLY
002478:                                                                                                  #  IN NORMALIZATION) CONTENTS OF MPAC AND LEAVE THE NORMALIZED RESULT IN MPAC (C(MPAC) GREATER THAN OR EQUAL TO
002479:                                                                                                  #  .5).  THE RIGHT SHIFT COUNT (TC UNNORMALIZE) IS LEFT IN MPTEMP.
002480:
002481: 00,3343           34755        SQRTSUB            CAF      ZERO                                  #  START BY ZEROING RIGHT SHIFT COUNT.
002482: 00,3344           54135                           TS       MPTEMP
002483:
002484: 00,3345           10154                           CCS      MPAC                                  #  CHECK FOR POSITIVE ARGUMENT, SHIFTING
002485: 00,3346           13405                           TCF      SMPAC+                                #  FIRST SIGNIFICANT MPAC REGISTER INTO
002486: 00,3347           13351                           TCF      +2                                    #  MPAC ITSELF.
002487: 00,3350           13373                           TCF      SQRTNEG                               #  SEE IF MAG OF ARGUMENT LESS THAN 10(-4).
002488:
002489: 00,3351           56156                           XCH      MPAC       +2                         #  MPAC IS ZERO -- SHIFT LEFT 14.
002490: 00,3352           56155                           XCH      MPAC       +1
002491: 00,3353           54154                           TS       MPAC
002492: 00,3354           34757                           CAF      SEVEN                                 #  AUGMENT RIGHT SHIFT COUNTER.
002493: 00,3355           54135                           TS       MPTEMP
002494:
002495: 00,3356           10154                           CCS      MPAC                                  #  SEE IF MPAC NOW PNZ.
002496: 00,3357           13405                           TCF      SMPAC+
002497: 00,3360           13362                           TCF      +2
002498: 00,3361           13376                           TCF      ZEROANS                               #  NEGATIVE BUT LESS THAN 10(-4) IN MAG.
002499:
002500: 00,3362           56155                           XCH      MPAC       +1                         #  XERO -- SHIFT LEFT 14 AGAIN.
002501: 00,3363           54154                           TS       MPAC
002502: 00,3364           34757                           CAF      SEVEN                                 #  AUGMENT RIGHT SHIFT COUNTER.
002503: 00,3365           26135                           ADS      MPTEMP
002504:
002505: 00,3366           10154                           CCS      MPAC
002506: 00,3367           13405                           TCF      SMPAC+
002507: 00,3370           00002                           TC       Q                                     #  SQRT(0) = 0.
002508: 00,3371           13376                           TCF      ZEROANS
002509: 00,3372           13453                           TCF      FIXROOT                               #  DO NOT LEAVE SQRTSUB WITH -0 IN MPAC.
002510:
002511: 00,3373           10000        SQRTNEG            CCS      A                                     #  ARGUMENT IS NEGATIVE, BUT SEE IF SIGN-
002512: 00,3374           13402                           TCF      SQRTABRT                              #  CORRECTED ARGUMENT IS LESS THAN 10(-4)
002513:
002514: 00,3375           10155                           CCS      MPAC       +1                         #  IN MAGNITUDE.  IF SO, CALL ANSWER ZERO.
002515: 00,3376           34755        ZEROANS            CAF      ZERO                                  #  FORCE ANSWER TO ZERO HERE.
002516: 00,3377           13453                           TCF      FIXROOT
002517: 00,3400           13402                           TCF      SQRTABRT
002518: 00,3401           13453                           TCF      FIXROOT
002519:
002520: 00,3402           52165        SQRTABRT           DXCH     LOC
002521: 00,3403           05716                           TC       POODOO1
002522: 00,3404           21302                           OCT      21302
002523:
002524: 00,3405           62444        SMPAC+             AD       -1/2+2                                #  SEE IF ARGUMENT GREATER THAN OR EQUAL TO


002526: 00,3406           00006                           EXTEND                                         #  .5.
002527: 00,3407           63456                           BZMF     SRTEST                                #  IF SO, SEE IF LESS THAN .25.
002528:
002529: 00,3410           52155                           DXCH     MPAC                                  #  WE WILL TAKE THE SQUARE ROOT OF MPAC/2.
002530: 00,3411           22021                           LXCH     SR                                    #  SHIFT RIGHT 1 AND GO TO THE SQRT ROUTINE
002531: 00,3412           00006                           EXTEND
002532: 00,3413           74736                           MP       HALF
002533: 00,3414           52155                           DXCH     MPAC
002534: 00,3415           56021                           XCH      SR
002535: 00,3416           26155                           ADS      MPAC       +1                         #  GUARANTEED NO OVERFLOW.
002536:
002537: 00,3417           32314        ARGHI              CAF      SLOPEHI                               #  ARGUMENT BETWEEN .25 AND .5, GET A
002538: 00,3420           00006                           EXTEND                                         #  LINEAR APPROXIMATION FOR THIS RANGE.
002539: 00,3421           70154                           MP       MPAC
002540: 00,3422           62566                           AD       BIASHI                                #  X0/2 = (MPAC/2)(SLOPHI) + BIASHI/2.
002541:
002542: 00,3423           54130                 +4        TS       BUF                                   #  X0/2 (ARGLO ENTERS HERE).
002543: 00,3424           30154                           CA       MPAC                                  #  SINGLE-PRECISION THROUGHOUT.
002544: 00,3425           22007                           ZL
002545: 00,3426           00006                           EXTEND
002546: 00,3427           10130                           DV       BUF                                   #  (MPAC/2)/(X0/2)
002547: 00,3430           00006                           EXTEND
002548: 00,3431           74736                           MP       HALF
002549: 00,3432           26130                           ADS      BUF                                   #  X1 = X0/2 + .5(MPAX/2)/(X0/2)
002550:
002551: 00,3433           00006                           EXTEND
002552: 00,3434           74736                           MP       HALF                                  #  FORM UP X1/2.
002553: 00,3435           52155                           DXCH     MPAC                                  #  SAVE AND BRING OUT ARGUMENT.
002554: 00,3436           00006                           EXTEND                                         #  TAKE DP QUOTIENT WITH X1.
002555: 00,3437           10130                           DV       BUF
002556: 00,3440           54131                           TS       BUF        +1                         #  SAVE MAJOR PART OF QUOTIENT.
002557: 00,3441           34755                           CAF      ZERO                                  #  FORM MINOR PART OF QUOTIENT USING
002558: 00,3442           56001                           XCH      L                                     #  (REMAINDER,0).
002559: 00,3443           00006                           EXTEND
002560: 00,3444           10130                           DV       BUF
002561: 00,3445           54001                           TS       L                                     #  IN PREPARATION FOR DAS.
002562: 00,3446           30131                           CA       BUF        +1
002563: 00,3447           20155                           DAS      MPAC                                  #  X2 = X1/2 + (MPAC/2)X1
002564:
002565: 00,3450           00006                           EXTEND                                         #  OVERFLOWS IF ARG. NEAR POSMAX.
002566: 00,3451           13455                           BZF      TCQBNK00
002567: 00,3452           34733                           CAF      POSMAX
002568: 00,3453           54154        FIXROOT            TS       MPAC
002569: 00,3454           54155                           TS       MPAC       +1
002570: 00,3455           00002        TCQBNK00           TC       Q                                     #  RETURN TO CALLER TO UNNORMALIZE, ETC.
002571:


002573: 00,3456           64737        SRTEST             AD       QUARTER                               #  ARGUMENT WAS LESS THAN .5, SEE IF LESS
002574: 00,3457           00006                           EXTEND                                         #  THAN .25.
002575: 00,3460           63502                           BZMF     SQRTNORM                              #  IF SO, BEGIN NORMALIZATION.
002576:
002577: 00,3461           52155                           DXCH     MPAC                                  #  IF BETWEEN .5 AND .25, SHIFT RIGHT 1 AND
002578: 00,3462           22021                           LXCH     SR                                    #  START AT ARGLO.
002579: 00,3463           00006                           EXTEND
002580: 00,3464           74736                           MP       HALF
002581: 00,3465           52155                           DXCH     MPAC
002582: 00,3466           56021                           XCH      SR
002583: 00,3467           26155                           ADS      MPAC       +1                         #  NO OVERFLOW.
002584:
002585: 00,3470           33007        ARGLO              CAF      SLOPELO                               #  (NORMALIZED) ARGUMENT BETWEEN .125 AND
002586: 00,3471           00006                           EXTEND                                         #  .25
002587: 00,3472           70154                           MP       MPAC
002588: 00,3473           62270                           AD       BIASLO
002589: 00,3474           13423                           TCF      ARGHI      +4                         #  BEGIN SQUARE ROOT.
002590:
002591: 00,3475           00006        SQRTNM2            EXTEND                                         #  SHIFT LEFT 2 AND INCREMENT RIGHT SHIFT
002592: 00,3476           30156                           DCA      MPAC       +1                         #  COUNT (FOR TERMINAL UNNORMALIZATION).
002593: 00,3477           20156                           DAS      MPAC       +1
002594: 00,3500           60154                           AD       MPAC
002595: 00,3501           26154                           ADS      MPAC                                  #  (NO OVERFLOW).
002596:
002597: 00,3502           24135        SQRTNORM           INCR     MPTEMP                                #  FIRST TIME THROUGH, JUST SHIFT LEFT 1
002598: 00,3503           00006                           EXTEND                                         #  (PUTS IN EFFECTIVE RIGHT SHIFT SINCE
002599: 00,3504           30156                           DCA      MPAC       +1                         #  WE WANT MPAC/2).
002600: 00,3505           20156                           DAS      MPAC       +1
002601: 00,3506           60154                           AD       MPAC
002602: 00,3507           26154                           ADS      MPAC                                  #  (AGAIN NO OVERFLOW).
002603: 00,3510           60000                           DOUBLE
002604: 00,3511           54022                           TS       CYL
002605:
002606: 00,3512           10022        NORMTEST           CCS      CYL                                   #  SEE IF ARGUMENT NOW NORMALIZED AT
002607: 00,3513           10022                           CCS      CYL                                   #  GREATER THAN .125.
002608: 00,3514           13475                           TCF      SQRTNM2                               #  NO -- SHIFT LEFT 2 MORE AND TRY AGAIN.
002609: 00,3515           13417                           TCF      ARGHI                                 #  YES -- NOW BETWEEN .5 AND .25.
002610: 00,3516           13470                           TCF      ARGLO                                 #  ARGUMENT NOW BETWEEN .25 AND .125.
002611:


002613:                                                                                                  #  TRIGONOMETRIC FUNCTION PACKAGE.
002614:                                                                                                  #        THE FOLLOWING TRIGONOMETRIC FUNCTIONS ARE AVAIALABLE AS INTERPRETIVE OPERATIONS:
002615:                                                                                                  #        1.      SIN             COMPUTES (1/2)SINE(2 PI MPAC).
002616:                                                                                                  #        2.      COS             COMPUTES (1/2)COSINE(2 PI MPAC).
002617:                                                                                                  #        3.      ASIN            COMPUTES (1/2PI)ARCSINE(2 MPAC).
002618:                                                                                                  #        4.      ACOS            COMPUTES (1/2PI)ARCCOSINE(2 MPAC).
002619:
002620:                                                                                                  #  SIN-ASIN AND COS-ACOS ARE MUTUALLY INVERSE, I.E., SIN(ASIN(X)) = X.
002621:
002622: 00,3517           06726        COSINE             TC       BRANCH                                #  FINDS COSINE USING THE IDENTITY
002623: 00,3520           13523                           TCF      +3                                    #  COS(X) = SIN(PI/2 - ABS(X)).
002624: 00,3521           13526                           TCF      PRESINE
002625: 00,3522           13526                           TCF      PRESINE
002626:
002627: 00,3523           00006                 +3        EXTEND
002628: 00,3524           40155                           DCS      MPAC
002629: 00,3525           52155                           DXCH     MPAC
002630:
002631: 00,3526           34737        PRESINE            CAF      QUARTER                               #  PI/2 SCALED.
002632: 00,3527           26154                           ADS      MPAC
002633:
002634: 00,3530           52155        SINE               DXCH     MPAC                                  #  DOUBLE ARGUMENT.
002635: 00,3531           20001                           DDOUBL
002636: 00,3532           54000                           OVSK                                           #  SEE IF OVERFLOW PRESENT.
002637: 00,3533           13536                           TCF      +3                                    #  IF NOT, ARGUMENT OK AS IS.
002638:
002639: 00,3534           00006                           EXTEND                                         #  IF SO, WE LOST (OR GAINED) PI, SO
002640: 00,3535           40001                           DCOM                                           #  COMPLEMENT MPAC USING THE IDENTITY
002641:                                                                                                  #  SIN(X-(+)PI) = SIN(-X).
002642: 00,3536           52155                 +3        DXCH     MPAC
002643: 00,3537           30154                           CA       MPAC                                  #  SEE IF ARGUMENT GREATER THAN .5 IN
002644: 00,3540           60000                           DOUBLE                                         #  MAGNITUDE.  IF SO, REDUCE IT TO LESS THAN
002645: 00,3541           54001                           TS       L                                     #  .5 (+-PI/2 SCALED) AS FOLLOWS:
002646: 00,3542           13553                           TCF      SN1
002647:
002648: 00,3543           50000                           INDEX    A                                     #  IF POSITIVE, FORM PI - X, IF NEGATIVE
002649: 00,3544           34735                           CAF      NEG1/2     +1                         #  USE -PI -X.
002650: 00,3545           60000                           DOUBLE
002651: 00,3546           00006                           EXTEND
002652: 00,3547           60154                           SU       MPAC                                  #  GUARANTEED NO OVERFLOW.
002653: 00,3550           54154                           TS       MPAC
002654: 00,3551           40155                           CS       MPAC       +1
002655: 00,3552           54155                           TS       MPAC       +1
002656:


002658: 00,3553           00006        SN1                EXTEND                                         #  SET UP TO EVALUATE HASTINGS POLYNOMIAL
002659: 00,3554           30155                           DCA      MPAC
002660: 00,3555           52134                           DXCH     BUF2
002661: 00,3556           03300                           TC       DSQSUB                                #  SQUARE MPAC.
002662:
002663: 00,3557           07225                           TC       POLY                                  #  EVALUATE FOURTH ORDER POLYNOMIAL.
002664: 00,3560           00003                           DEC      3          B-14
002665: 00,3561           14441 37325                     2DEC     +.3926990796
002666: 00,3563           53250 60764                     2DEC     -.6459637111
002667: 00,3565           12146 21276                     2DEC     +.318758717
002668: 00,3567           75466 71471                     2DEC     -.074780249
002669: 00,3571           00236 32757                     2DEC     +.009694988
002670:
002671: 00,3573           32470                           CAF      LBUF2                                 #  MULTIPLY BY ARGUMENT AND SHIFT LEFT 2.
002672: 00,3574           07111                           TC       DMPSUB     -1
002673:
002674: 00,3575           00006                           EXTEND
002675: 00,3576           30156                           DCA      MPAC       +1
002676: 00,3577           20156                           DAS      MPAC       +1
002677: 00,3600           60154                           AD       MPAC
002678: 00,3601           26154                           ADS      MPAC                                  #  NEITHER SHIFT OVERFLOWS.
002679: 00,3602           00006                           EXTEND
002680: 00,3603           30156                           DCA      MPAC       +1
002681: 00,3604           20156                           DAS      MPAC       +1
002682: 00,3605           60154                           AD       MPAC
002683: 00,3606           26154                           ADS      MPAC
002684: 00,3607           16064                           TCF      DANZIG
002685:


002687:                                                                                                  #  ARCSIN/ARCCOS ROUTINE.
002688:
002689: 00,3610           33631        ARCSIN             CAF      LASINEX                               #  COMPUTE ARCSIN BY USING THE IDENTITY
002690: 00,3611           13613                           TCF      +2                                    #  ARCSIN(X) = PI/2 - ARCCOS(X).
002691:
002692: 00,3612           33713        ARCCOS             CAF      LDANZIG                               #  (EXITS IMMEDIATELY).
002693: 00,3613           54136                           TS       ESCAPE
002694: 00,3614           06726                           TC       BRANCH                                #  TEST SIGN OF INPUT.
002695: 00,3615           13625                           TCF      ACOSST                                #  START IMMEDIATELY IF POSITIVE.
002696: 00,3616           13731                           TCF      ACOSZERO                              #  ARCCOS(0) = PI/2 = .25.
002697: 00,3617           00006                           EXTEND                                         #  IF NEGATIVE, USE THE IDENTITY
002698: 00,3620           40155                           DCS      MPAC                                  #  ARCCOS(X) = PI - ARCCOS(-X), FORCING
002699: 00,3621           52155                           DXCH     MPAC                                  #  ARGUMENT POSITIVE.
002700: 00,3622           33734                           CAF      TCSUBTR                               #  SET EXIT TO DO ABOVE BEFROE
002701: 00,3623           56136                           XCH      ESCAPE                                #  ARCSIN/ARCCOS CONSIDERATIONS.
002702: 00,3624           54137                           TS       ESCAPE2
002703:
002704: 00,3625           44736        ACOSST             CS       HALF                                  #  TEST MAGNITUDE OF INPUT.
002705: 00,3626           60154                           AD       MPAC
002706: 00,3627           10000                           CCS      A
002707: 00,3630           13721                           TCF      ACOSOVF                               #  THIS IS PROBABLY AN OVERFLOW CASE.
002708:
002709: 00,3631           13707        LASINEX            TCF      ASINEX
002710:
002711: 00,3632           13642                           TCF      ACOSST2                               #  NO OVERFLOW -- PROCEED.
002712:
002713: 00,3633           10155                           CCS      MPAC       +1                         #  IF MAJOR PART IS .5, CALL ANSWER 0
002714: 00,3634           34755                           CAF      ZERO                                  #  UNLESS MINOR PART NEGATIVE.
002715: 00,3635           13637                           TCF      ACOS=0
002716:
002717: 00,3636           13642                           TCF      ACOSST2
002718:
002719: 00,3637           54155        ACOS=0             TS       MPAC       +1
002720: 00,3640           54154                           TS       MPAC
002721: 00,3641           00136                           TC       ESCAPE
002722:
002723: 00,3642           00006        ACOSST2            EXTEND                                         #  NOW THAT ARGUMENT IS IN PROPER RANGE,
002724: 00,3643           40155                           DCS      MPAC                                  #  BEGIN COMPUTATION.  USE HASTINGS
002725: 00,3644           64736                           AD       HALF                                  #  APPROXIMATION ARCCOS(X) = SQRT(1-X)P(X)
002726: 00,3645           52155                           DXCH     MPAC                                  #  IN A SCALED VERSION WHERE P(X) IS A
002727: 00,3646           52134                           DXCH     BUF2                                  #  SEVENTH ORDER POLYNOMIAL.
002728:
002729: 00,3647           03343                           TC       SQRTSUB                               #  RETURNS WITH NORMALIZED SQUARE ROOT.
002730:
002731: 00,3650           10135                           CCS      MPTEMP                                #  SEE IF UN-NORMALIZATION REQUIRED.
002732: 00,3651           13714                           TCF      ACOSSHR
002733:


002735: 00,3652           52155        ACOS3              DXCH     MPAC                                  #  SET UP FOR POLYNOMIAL EVALUATION.
002736: 00,3653           52134                           DXCH     BUF2
002737: 00,3654           52155                           DXCH     MPAC
002738:
002739: 00,3655           07225                           TC       POLY
002740: 00,3656           00006                           DEC      6          B-14
002741: 00,3657           13240 23630                     2DEC     +.353553385                            #  COEFFICIENTS ARE C 2(+I)/PISQRT(2) WHERE
002742: 00,3661           74721 47775                     2DEC*    -.0483017006 B+1*                       #  I
002743: 00,3663           02440 20237                     2DEC*    +.0200273085 B+2*                       #  WEHRE C STANDS FOR ORIGINAL COEFFS.
002744: 00,3665           75067 70742                     2DEC*    -.0112931863 B+3*
002745: 00,3667           03436 26756                     2DEC*    +.00695311612 B+4*
002746: 00,3671           74037 57640                     2DEC*    -.00384617957 B+5*
002747: 00,3673           03046 07143                     2DEC*    +.001501297736 B+6*
002748: 00,3675           76654 42244                     2DEC*    -.000284160334 B+7*
002749:
002750: 00,3677           32470                           CAF      LBUF2                                 #  DO FINAL MULTIPLY AND GO TO ANY
002751: 00,3700           07111                           TC       DMPSUB     -1                         #  EPILOGUE SEQUENCES.
002752: 00,3701           00136                           TC       ESCAPE
002753:
002754: 00,3702           00006        SUBTR              EXTEND                                         #  EPILOGUE FOR NEGATIVE INPUTS TO ARCCOS.
002755: 00,3703           40155                           DCS      MPAC
002756: 00,3704           64736                           AD       HALF                                  #  FORMS PI - ARCCOS(-X) = ARCCOS(X).
002757: 00,3705           52155                           DXCH     MPAC
002758: 00,3706           00137                           TC       ESCAPE2                               #  GO TO POSSIBLE ARCSIN EPILOGUE.
002759:
002760: 00,3707           00006        ASINEX             EXTEND
002761: 00,3710           40155                           DCS      MPAC                                  #  ARCSIN EPILOGUE -- GET ARCSIN(X)
002762: 00,3711           64737                           AD       QUARTER                               #  = PI/2 - ARCCOS(X).
002763: 00,3712           52155                           DXCH     MPAC
002764: 00,3713           16064        LDANZIG            TCF      DANZIG
002765:


002767: 00,3714           50000        ACOSSHR            INDEX    A                                     #  THE SHIFT RIGHT IS LESS THAN 14 SINCE
002768: 00,3715           34736                           CAF      BIT14                                 #  THE INPUT WAS NON-ZERO DP.
002769: 00,3716           54135                           TS       MPTEMP
002770: 00,3717           02073                           TC       VSHRRND                               #  DP SHIFT RIGHT AND ROUND.
002771: 00,3720           13652                           TCF      ACOS3                                 #  PROCEED.
002772:
002773: 00,3721           00006        ACOSOVF            EXTEND                                         #  IF MAJOR PART WAS ONLY 1 MORE THAN .5,
002774: 00,3722           13637                           BZF      ACOS=0                                #  CALL ANSWER ZERO.
002775:
002776: 00,3723           00006        ACOSABRT           EXTEND                                         #  IF OVERFLOW, CALL ANSWER ZERO BUT
002777: 00,3724           30165                           DCA      LOC                                   #  SOUND AN ALARM.
002778: 00,3725           05722                           TC       ALARM1
002779: 00,3726           01301                           OCT      1301
002780:
002781: 00,3727           34755                           CAF      ZERO
002782: 00,3730           13637                           TCF      ACOS=0
002783:
002784: 00,3731           34737        ACOSZERO           CAF      QUARTER                               #  ACOS(0) = PI/2.
002785: 00,3732           13640                           TCF      ACOS=0     +1                         #  SET MPAC AND EXIT VIA ESCAPE.
002786:
002787: 00,3733           77763        NEG12              DEC      -12        B-14
002788: 00,3734           13702        TCSUBTR            TCF      SUBTR
002789:


002791:                                                                                                  #  THE FOLLOWING INSTRUCTIONS ARE AVAILABLE FOR SETTING, MODIFYING, AND BRANCHING ON INDEX REGISTERS:
002792:                                                                                                  #        1.      AXT     ADDRESS TO INDEX TRUE.
002793:                                                                                                  #        1.      AXC     ADDRESS TO INDEX COMPLEMENTED.
002794:                                                                                                  #        3.      LXA     LOAD INDEX FROM ERASABLE.
002795:                                                                                                  #        4.      LXC     LOAD INDEX COMPLEMENTED FROM ERASABLE.
002796:                                                                                                  #        5.      SCA     STORE INDEX IN ERASABLE.
002797:                                                                                                  #        6.      XCHX    EXCHANGE INDEX REGISTER WITH ERASABLE.
002798:                                                                                                  #        7.      INCR    INCREMENT INDEX REGISTER.
002799:                                                                                                  #        8.      XAD     ERASABLE ERASABLE ADD TO INDEX REGISTER.
002800:                                                                                                  #        9.      XSU     ERASABLE SUBTRACT FROM INDEX REGISTER.
002801:                                                                                                  #        10.     TIX     BRANCH ON INDEX REGISTER AND DECREMENT.
002802:
002803: 01,2345                                           BANK     01
002804:
002805: 01,2345                                           COUNT*   $$/INTER
002806: 01,2345           02442        AXT                TC       TAGSUB                                #  SELECT APPROPRIATE INDEX REGISTER.
002807: 01,2346           30117                           CA       POLISH
002808: 01,2347           50130        XSTORE             INDEX    INDEXLOC                              #  CONTAINS C(FIXLOC) OR C(FIXLOC)+1
002809: 01,2350           54046                           TS       X1
002810: 01,2351           16064                           TCF      DANZIG
002811:
002812: 01,2352           02442        AXC                TC       TAGSUB
002813: 01,2353           40117                           CS       POLISH
002814: 01,2354           02347                           TC       XSTORE
002815:
002816: 01,2355           02430        LXA                TC       15ADRERS                              #  LOAD INDEX REGISTER FROM ERASABLE.
002817: 01,2356           50117                           INDEX    POLISH
002818: 01,2357           30000                           CA       0
002819: 01,2360           12347                           TCF      XSTORE
002820:
002821: 01,2361           02430        LXC                TC       15ADRERS                              #  LOAD NDX REG FROM ERASABLE COMPLEMENTED.
002822: 01,2362           50117                           INDEX    POLISH
002823: 01,2363           40000                           CS       0
002824: 01,2364           12347                           TCF      XSTORE
002825:
002826: 01,2365           02430        SXA                TC       15ADRERS                              #  STORE INDEX REGISTER IN ERASABLE.
002827: 01,2366           50130                           INDEX    INDEXLOC
002828: 01,2367           30046                           CA       X1
002829: 01,2370           50117        MSTORE1            INDEX    POLISH
002830: 01,2371           54000                           TS       0
002831: 01,2372           16064                           TCF      DANZIG
002832:


002834: 01,2373           02430        XCHX               TC       15ADRERS                              #  EXCHANGE INDEX REGISTER WITH ERASABLE.
002835: 01,2374           50117                           INDEX    POLISH
002836: 01,2375           30000                           CA       0
002837: 01,2376           50130                           INDEX    INDEXLOC
002838: 01,2377           56046                           XCH      X1
002839: 01,2400           12370                           TCF      MSTORE1
002840:
002841: 01,2401           02430        XAD                TC       15ADRERS                              #  ADD ERASABLE TO INDEX REGISTER.
002842: 01,2402           50117                           INDEX    POLISH
002843: 01,2403           30000                           CA       0
002844: 01,2404           50130        XAD2               INDEX    INDEXLOC
002845: 01,2405           26046                           ADS      X1                                    #  IGNORING OVERFLOWS.
002846: 01,2406           16064                           TCF      DANZIG
002847:
002848: 01,2407           02442        INCR               TC       TAGSUB                                #  INCREMENT INDEX REGISTER.
002849: 01,2410           30117                           CA       POLISH
002850: 01,2411           12404                           TCF      XAD2
002851:
002852: 01,2412           02430        XSU                TC       15ADRERS                              #  SUBTRACT ERASABLE FROM INDEX REGISTER.
002853: 01,2413           50117                           INDEX    POLISH
002854: 01,2414           40000                           CS       0
002855: 01,2415           12404                           TCF      XAD2
002856:
002857: 01,2416           02442        TIX                TC       TAGSUB                                #  BRANCH AND DECREMENT ON INDEX.
002858: 01,2417           50130                           INDEX    INDEXLOC
002859: 01,2420           40050                           CS       S1
002860: 01,2421           50130                           INDEX    INDEXLOC
002861: 01,2422           60046                           AD       X1
002862: 01,2423           00006                           EXTEND                                         #  NO OPERATION IF DECREMENTED INDEX IS
002863: 01,2424           66064                           BZMF     DANZIG                                #  NEGATIVE OR ZERO.
002864:
002865: 01,2425           50130        DOTIXBR            INDEX    INDEXLOC
002866: 01,2426           56046                           XCH      X1                                    #  IGNORING OVERFLOWS.
002867:
002868: 01,2427           16651                           TCF      GOTO                                  #  DO THE BRANCH USING THE CADR IN POLISH.
002869:


002871:                                                                                                  #  SUBROUTINE TO CONVERT AN ERASABLE ADDRESS (11 BITS) TO AN EBANK SETTING AND SUBADDRESS.
002872:
002873: 01,2430           40117        15ADRERS           CS       POLISH
002874: 01,2431           64772                           AD       DEC45
002875: 01,2432           10000                           CCS      A                                     #  DOES THE ADDRESS POINT TO THE WORK AREA?
002876: 01,2433           30120                           CA       FIXLOC                                #  YES.  ADD FIXLOC.  EBANK OK AS IS.
002877: 01,2434           12441                           TCF      +5
002878:
002879: 01,2435           35007                           CA       OCT1400                               #  NO. SET EBANK & MAKE UP SUBADDRESS.
002880: 01,2436           56117                           XCH      POLISH
002881: 01,2437           54003                           TS       EBANK
002882: 01,2440           74357                           MASK     LOW8
002883: 01,2441           26117                 +5        ADS      POLISH                                #  FALL INTO TAGSUB, AND RETURN VIA Q.
002884:
002885:                                                                                                  #  SUBROUTINE WHICH SETS THE ADDRESS OF THE SPECIFIED INDEX IN INDEXLOC.  (ACTUALLY, THE ADDRESS -38D.)
002886:
002887: 01,2442           30120        TAGSUB             CA       FIXLOC
002888: 01,2443           54130                           TS       INDEXLOC
002889:
002890: 01,2444           10020                           CCS      CYR                                   #  BIT 15 SPECIFIES INDEX.
002891: 01,2445           24130                           INCR     INDEXLOC                              #  0 MEANS USE X2.
002892: 01,2446           00002                           TC       Q
002893: 01,2447           00002                           TC       Q                                     #  1 FOR X1.
002894:


002896:                                                                                                  #  MISCELLANEOUS OPERATION CODES WITH DIRECT ADDRESSES.  INCLUDED HERE ARE:
002897:                                                                                                  #        1.      ITA     STORE CPRET (RETURN ADDRESS) IN ERASABLE.
002898:                                                                                                  #        2.      CALL    CALL A SUBROUTINE, LEAVING RETURN IN QPRET.
002899:                                                                                                  #        3.      RTB     RETURN TO BASIC LANGUAGE AT THE GIVEN ADDRESS.
002900:                                                                                                  #        4.      BHIZ    BRANCH IF THE HIGHORDER OF MPAC IS ZERO (SINGLE PRECISION).
002901:                                                                                                  #        5.      BOV     BRANCH ON OVERFLOW.
002902:                                                                                                  #        6.      GOTO    SIMPLE SEQUENCE CHANGE.
002903:
002904: 01,2450           10020        RTB/BHIZ           CCS      CYR
002905: 01,2451           30117        RTB                CA       POLISH
002906: 01,2452           04621                           TC       SWCALL     -1                         #  SO A "TC Q" FROM ROUTINE LEADS TO DANZIG
002907:
002908: 01,2453           10154        BHIZ               CCS      MPAC
002909: 01,2454           16064                           TCF      DANZIG
002910: 01,2455           16651                           TCF      GOTO
002911: 01,2456           16064                           TCF      DANZIG
002912: 01,2457           16651                           TCF      GOTO
002913:
002914: 01,2460           10121        BOV(B)             CCS      OVFIND                                #  BRANCH ON OVERFLOW TO BASIC OR INTERP.
002915: 01,2461           12463                           TCF      +2
002916: 01,2462           16064                           TCF      DANZIG
002917: 01,2463           54121                           TS       OVFIND
002918: 01,2464           10020                           CCS      CYR
002919: 01,2465           12451                           TCF      RTB                                   #  IF BASIC.
002920: 01,2466           00360        B5TOBB             OCT      360
002921: 01,2467           16651                           TCF      GOTO
002922:


002924: 01,2470           10020        BZE/GOTO           CCS      CYR                                   #  SEE WHICH OP-CODE IS DESIRED.
002925: 01,2471           06726                           TC       BRANCH                                #  DO BZE.
002926: 01,2472           16064                           TCF      DANZIG
002927: 01,2473           16651                           TCF      GOTO                                  #  DO GOTO.
002928: 01,2474           16064                           TCF      DANZIG
002929:
002930: 01,2475           10020        BPL/BMN            CCS      CYR
002931: 01,2476           12504                           TCF      BPL
002932: 01,2477           12000        5B10               DEC      5          B+10                       #  SHIFTS OP CODE IN SWITCH INSTRUCTION ADR
002933:
002934: 01,2500           06726                           TC       BRANCH                                #  DO BMN
002935: 01,2501           16064                           TCF      DANZIG
002936: 01,2502           16064                           TCF      DANZIG
002937: 01,2503           16651                           TCF      GOTO                                  #  ONLY IF NNZ.
002938:
002939: 01,2504           06726        BPL                TC       BRANCH
002940: 01,2505           16651                           TCF      GOTO                                  #  IF POSITIVE OR ZERO.
002941: 01,2506           16651                           TCF      GOTO
002942: 01,2507           16064                           TCF      DANZIG
002943:
002944: 01,2510           10020        CALL/ITA           CCS      CYR
002945: 01,2511           16643                           TCF      CALL
002946:
002947: 01,2512           05675                           TC       CCSHOLE
002948: 01,2513           02430                           TC       15ADRERS                              #  STORE QPRET.  (TAGSUB AFTER 15ADRERS IS
002949: 01,2514           50120                           INDEX    FIXLOC                                #  SLOW IN THIS CASE, BUT SAVES STORAGE.)
002950: 01,2515           30052                           CA       QPRET
002951: 01,2516           12370                           TCF      MSTORE1
002952:


002954:                                                                                                  #  THE FOLLOWING OPERATIONS ARE AVAILABLE FOR ALTERING AND TESTING INTERPRETATIVE SWITCHES:
002955:                                                                                                  #        00      BONSET          SET A SWITCH AND DO A GOTO IF IT WAS ON.
002956:                                                                                                  #        01      SETGO           SET A SWITCH AND DO A GOTO.
002957:                                                                                                  #        02      BOFSET          SET A SWITCH AND DOA GOTO IF IT WAS OFF
002958:                                                                                                  #        03      SET             SET A SWITCH.
002959:                                                                                                  #        04      BONINV          INVERT A SWITCH AND BRANCH IF IT WAS ON.
002960:                                                                                                  #        05      INVGO           INVERT A SWITCH AND DO A GOTO.
002961:                                                                                                  #        06      BOFINV          INVERT A SWITCH AND BRANCH IF IT WAS OFF
002962:                                                                                                  #        07      INVERT          INVERT A SWITCH.
002963:                                                                                                  #        10      BONCLR          CLEAR A SWITCH AND BRANCH IF IT WAS ON.
002964:                                                                                                  #        11      CLRGO           CLEAR A SWITCH AND DO A GOTO.
002965:                                                                                                  #        12      BOFCLR          CLEAR A SWITCH AND BRANCH IF IT WAS OFF.
002966:                                                                                                  #        13      CLEAR           CLEAR A SWITCH.
002967:                                                                                                  #        14      BON             BRANCH IF A SWITCH WAS ON.
002968:                                                                                                  #        16      BOFF            BRANCH IF A SWITCH WAS OFF.
002969:                                                                                                  #  THE ADDRESS SUPPLIED WITH THE SWITCH INSTRUCTION IS INTERPRETED AS FOLLOWS:
002970:                                                                                                  #        BITS 1-4        SWITCH BIT NUMBER (1-15).
002971:                                                                                                  #        BITS 5-8        SWITCH OPERATION NUMBER
002972:                                                                                                  #        BITS 9-         SWITCH WORD NUMBER (UP TO 64 SWITCH WORDS).
002973:                                                                                                  #  THE ADDRESS ITSELF IS MADE UP BY THE YUL SYSTEM ASSEMBLER.  THE BRANCH INSTRUCTIONS REQUIRE TWO
002974:                                                                                                  #  ADDRESSES, THE SECOND TAKEN AS THE DIRECT (OR INDIRECT IF IN ERASABLE) ADDRESS OF THE BRANCH.
002975:
002976: 01,2517           34762        SWITCHES           CAF      LOW4                                  #  LEAVE THE SWITCH BIT IN SWBIT.
002977: 01,2520           70117                           MASK     POLISH
002978: 01,2521           50000                           INDEX    A
002979: 01,2522           34735                           CAF      BIT15                                 #  (NUMBER FROM LEFT TO RIGHT.)
002980: 01,2523           54131                           TS       SWBIT
002981:
002982: 01,2524           34745                           CAF      BIT7                                  #  LEAVE THE SWITCH NUMBER IN SWWORD.
002983: 01,2525           00006                           EXTEND
002984: 01,2526           70117                           MP       POLISH
002985: 01,2527           54130                           TS       SWWORD
002986:
002987: 01,2530           00004                           INHINT                                         #  DURING SWITCH CHANGE SO RUPT CAN USE TOO
002988: 01,2531           50000                           INDEX    A                                     #  LEAVE THE SWITCH WORD ITSELF IN L.
002989: 01,2532           30074                           CA       STATE
002990: 01,2533           54002                           TS       Q                                     #  Q WILL BE USED AS A CHANNEL.


002992: 01,2534           34741                           CAF      BIT11
002993: 01,2535           00006                           EXTEND                                         #  DISPATCH SWITCH BIT OPERATION AS IN BITS
002994: 01,2536           70117                           MP       POLISH                                #  7-8 OF POLISH.
002995: 01,2537           72577                           MASK     B3TOB4                                #  GETS 4X2-BIT CODE.
002996: 01,2540           50000                           INDEX    A
002997: 01,2541           12542                           TCF      +1
002998:
002999: 01,2542           30131                 +1        CA       SWBIT                                 #  00 -- SET SWITCH IN QUESTION.
003000: 01,2543           00006                           EXTEND
003001: 01,2544           04002                           ROR      QCHAN
003002: 01,2545           12554                           TCF      SWSTORE
003003:
003004: 01,2546           30131                 +5        CA       SWBIT                                 #  01 -- INVERT SWITCH.
003005: 01,2547           00006                           EXTEND
003006: 01,2550           06002                           RXOR     QCHAN
003007: 01,2551           12554                           TCF      SWSTORE
003008:
003009: 01,2552           40131                 +9D       CS       SWBIT                                 #  10 -- CLEAR.
003010: 01,2553           70002                           MASK     Q
003011: 01,2554           50130        SWSTORE            INDEX    SWWORD
003012: 01,2555           54074                           TS       STATE                                 #  NEW SWITCH WORD.
003013:


003015: 01,2556           00003                 +13D      RELINT                                         #  11 -- NOOP.
003016: 01,2557           34737                           CAF      BIT13
003017: 01,2560           00006                           EXTEND                                         #  DISPATCH SEQUENCE CHANGING OR BRANCING
003018: 01,2561           70117                           MP       POLISH                                #  CODE.
003019: 01,2562           72577                           MASK     B3TOB4
003020: 01,2563           50000                           INDEX    A
003021: 01,2564           12565                           TCF      +1                                    #  ORIGINALLY STORED IN BITS 5-6
003022:
003023: 01,2565           40002                 +1        CS       Q                                     #  00 -- BRANCH IF ON.
003024: 01,2566           70131        TEST               MASK     SWBIT
003025: 01,2567           10000                           CCS      A
003026: 01,2570           12600                           TCF      SWSKIP
003027:
003028: 01,2571           16720                 +5        TCF      SWBRANCH                              #  01 -- GO TO.
003029:
003030: 01,2572           12600                           TCF      SWSKIP                                #  HERE ONLY ON BIT 15.
003031:
003032: 01,2573           05675                           TC       CCSHOLE
003033: 01,2574           05675                           TC       CCSHOLE
003034:
003035: 01,2575           30002                 +9D       CA       Q                                     #  10 -- BRANCH IF OFF.
003036: 01,2576           12566                           TCF      TEST
003037:
003038: 01,2577           00014        B3TOB4             OCT      0014
003039: 01,2600           24164        SWSKIP             INCR     LOC
003040:
003041: 01,2601  01,2517               SW/                EQUALS   SWITCHES
003042:
003043: 01,2601           16064                 +13D      TCF      DANZIG                                #  11 -- NOOP.
003044:

End of include-file INTERPRETER.agc.  Parent file is MAIN.agc


