
Source Code
000001:                                                                                                 #  Copyright:     Public domain.
000002:                                                                                                 #  Filename:      INTER-BANK_COMMUNICATION.agc
000003:                                                                                                 #  Purpose:       A section of Luminary 1C, revision 131.
000004:                                                                                                 #                 It is part of the source code for the Lunar Module's (LM)
000005:                                                                                                 #                 Apollo Guidance Computer (AGC) for Apollo 13 and Apollo 14.
000006:                                                                                                 #                 This file is intended to be a faithful transcription, except
000007:                                                                                                 #                 that the code format has been changed to conform to the
000008:                                                                                                 #                 requirements of the yaYUL assembler rather than the
000009:                                                                                                 #                 original YUL assembler.
000010:                                                                                                 #  Reference:     pp. 997-1000 of 1729.pdf.
000011:                                                                                                 #  Contact:       Ron Burkey <info@sandroid.org>.
000012:                                                                                                 #  Website:       www.ibiblio.org/apollo/index.html
000013:                                                                                                 #  Mod history:   05/30/03 RSB.   Began transcribing.
000014:                                                                                                 #                 05/14/05 RSB    Corrected website reference above.
000015:
000016:                                                                                                 #  Page 997
000017:                                                                                                 #  THE FOLLOWING ROUTINE CAN BE USED TO CALL A SUBROUTINE IN ANOTHER BANK. IN THE BANKCALL VERSION, THE
000018:                                                                                                 #  CADR OF THE SUBROUTINE IMMEDIATELY FOLLOWS THE TC BANKCALL INSTRUCTION, WITH C(A) AND C(L) PRESERVED.
000019:
000020:    4616                                          BLOCK    02
000021:    4616                                          COUNT*   $$/BANK
000022:    4616           52134        BANKCALL          DXCH     BUF2                                  #  SAVE INCOMING A,L.
000023:    4617           50002                          INDEX    Q                                     #  PICK UP CADR.
000024:    4620           30000                          CA       0
000025:    4621           24002                          INCR     Q                                     #  SO WE RETURN TO THE LOC. AFTER THE CADR.
000026:
000027:                                                                                                 #  SWCALL IS  IDENTICAL TO BANKCALL, EXCEPT THAT THE CADR ARRIVES IN A.
000028:
000029:    4622           54001        SWCALL            TS       L
000030:    4623           22004                          LXCH     FBANK                                 #  SWITCH BANKS, SAVING RETURN.
000031:    4624           75012                          MASK     LOW10                                 #  GET SUB-ADDRESS OF CADR.
000032:    4625           56002                          XCH      Q                                     #  A,L NOW CONTAINS DP RETURN.
000033:    4626           52134                          DXCH     BUF2                                  #  RESTORING INPUTS IF THIS IS A BANKCALL.
000034:    4627           50002                          INDEX    Q
000035:    4630           02000                          TC       10000
000036:
000037:    4631           56134        SWRETURN          XCH      BUF2       +1                         #  COMES HERE TO RETURN TO CALLER. C(A,L)
000038:    4632           56004                          XCH      FBANK                                 #  ARE PRESERVED FOR RETURN.
000039:    4633           56134                          XCH      BUF2       +1
000040:    4634           00133                          TC       BUF2
000041:
000042:                                                                                                 #  THE FOLLOWING ROUTINE CAN BE USED AS A UNILATERAL JUMP WITH C(A,L) PRESERVED AND THE CADR IMMEDIATELY
000043:                                                                                                 #  FOLLOWING THE TC POSTJUMP INSTRUCTION.
000044:
000045:    4635           56002        POSTJUMP          XCH      Q                                     #  SAVE INCOMING C(A).
000046:    4636           50000                          INDEX    A                                     #  GET CADR.
000047:    4637           30000                          CA       0
000048:
000049:                                                                                                 #  BANKJUMP IS THE SAME AS POSTJUMP, EXCEPT THAT THE CADR ARRIVES IN A.
000050:
000051:    4640           54004        BANKJUMP          TS       FBANK
000052:    4641           75012                          MASK     LOW10
000053:    4642           56002                          XCH      Q                                     #  RESTORING INPUT C(A) IF THIS WAS A
000054:    4643           50002        Q+10000           INDEX    Q                                     #  POSTJUMP.
000055:    4644           12000        PRIO12            TCF      10000                                 #  PRIO12 = TCF   10000 = 12000
000056:
000057:                                                                                                 #  Page 998
000058:                                                                                                 #  THE FOLLOWING ROUTINE GETS THE RETURN CADR SAVED BY SWCALL OR BANKCALL AND LEAVES IT IN A.
000059:
000060:    4645           35012        MAKECADR          CAF      LOW10
000061:    4646           70133                          MASK     BUF2
000062:    4647           60134                          AD       BUF2       +1
000063:    4650           00002                          TC       Q
000064:
000065:    4651           54135        SUPDACAL          TS       MPTEMP
000066:    4652           56004                          XCH      FBANK                                 #  SET FBANK FOR DATA.
000067:    4653           00006                          EXTEND
000068:    4654           04007                          ROR      SUPERBNK                              #  SAVE FBANK IN BITS 15-11, AND
000069:    4655           56135                          XCH      MPTEMP                                #  SUPERBANK IN BITS 7-5.
000070:    4656           75012                          MASK     LOW10
000071:    4657           56001                          XCH      L                                     #  SAVE REL. ADR. IN BANK, FETCH SUPERBITS
000072:    4660           00004                          INHINT                                         #  BECAUSE RUPT DOES NOT SAVE SUPERBANK.
000073:    4661           00006                          EXTEND
000074:    4662           01007                          WRITE    SUPERBNK                              #  SET SUPERBANK FOR DATA.
000075:    4663           50001                          INDEX    L
000076:    4664           32000                          CA       10000                                 #  PINBALL (FIX MEM DISP) PREVENTS DCA HERE
000077:    4665           56135                          XCH      MPTEMP                                #  SAVE 1ST WD, FETCH OLD FBANK AND SBANK.
000078:    4666           00006                          EXTEND
000079:    4667           01007                          WRITE    SUPERBNK                              #  RESTORE SUPERBANK.
000080:    4670           00003                          RELINT
000081:    4671           54004                          TS       FBANK                                 #  RESTORE FBANK.
000082:    4672           30135                          CA       MPTEMP                                #  RECOVER FIRST WORD OF DATA.
000083:    4673           00002                          RETURN                                         #  24 WDS. DATACALL 516 MU, SUPDACAL 432 MU
000084:
000085:                                                                                                 #  Page 999
000086:                                                                                                 #  THE FOLLOWING ROUTINES ARE IDENTICAL TO BANKCALL AND SWCALL EXCEPT THAT THEY ARE USED IN INTERRUPT.
000087:
000088:    4674           52073        IBNKCALL          DXCH     RUPTREG3                              #  USES RUPTREG3,4 FOR DP RETURN ADDRESS.
000089:    4675           50002                          INDEX    Q
000090:                                                                                                 #  Was CAF --- RSB 2004
000091:    4676           30000                          CA       0
000092:    4677           24002                          INCR     Q
000093:
000094:    4700           54001        ISWCALLL          TS       L
000095:    4701           22004                          LXCH     FBANK
000096:    4702           75012                          MASK     LOW10
000097:    4703           56002                          XCH      Q
000098:    4704           52073                          DXCH     RUPTREG3
000099:    4705           50002                          INDEX    Q
000100:    4706           02000                          TC       10000
000101:
000102:    4707           56073        ISWRETRN          XCH      RUPTREG4
000103:    4710           56004                          XCH      FBANK
000104:    4711           56073                          XCH      RUPTREG4
000105:    4712           00072                          TC       RUPTREG3
000106:
000107:                                                                                                 #  2. USPRCADR ACCESSES INTERPRETIVE CODING IN OTHER THAN THE USER'S FBANK.  THE CALLING SEQUENCE IS AS FOLLOWS:
000108:                                                                                                 #         L       TC      USPRCADR
000109:                                                                                                 #         L+1     CADR    INTPRETX        # INTPRETX IS THE INTERPRETIVE CODING
000110:                                                                                                 #                                         # RETURN IS TO L+2
000111:
000112:    4713           54164        USPRCADR          TS       LOC                                   #  SAVE A
000113:    4714           34744                          CA       BIT8
000114:    4715           54023                          TS       EDOP                                  #  EXIT INSTRUCTION TO EDOP
000115:    4716           30006                          CA       BBANK
000116:    4717           54165                          TS       BANKSET                               #  USER'S BBANK TO BANKSET
000117:    4720           50002                          INDEX    Q
000118:    4721           30000                          CA       0
000119:    4722           54004                          TS       FBANK                                 #  INTERPRETIVE BANK TO FBANK
000120:    4723           75012                          MASK     LOW10                                 #  YIELDS INTERPRETIVE RELATIVE ADDRESS
000121:    4724           56002                          XCH      Q                                     #  INTERPRETIVE ADDRESS TO Q, FETCHING L+1
000122:    4725           56164                          XCH      LOC                                   #  L+1 TO LOC, RETRIEVING ORIGINAL A
000123:    4726           14643                          TCF      Q+10000
000124:
000125:                                                                                                 #  Page 1000
000126:                                                                                                 #  THERE ARE FOUR POSSIBLE SETTINGS FOR CHANNEL 07.  (CHANNEL 07 CONTAINS SUPERBANK SETTING.)
000127:
000128:                                                                                                 #                                         PSEUDO-FIXED    OCTAL PSEUDO
000129:                                                                                                 #  SUPERBANK      SETTING S-REG. VALUE    BANK NUMBERS    ADDRESSES
000130:                                                                                                 #  ---------      ------- ------------    ------------    ---------
000131:                                                                                                 #  SUPERBANK 3      OXX    2000 - 3777       30 - 37       70000 - 107777         (WHERE XX CAN BE ANYTHING AND
000132:                                                                                                 #                                                                                 WILL USUALLY BE SEEN AS 11)
000133:                                                                                                 #  SUPERBANK 4      100    2000 - 3777       40 - 47      110000 - 127777         (AS FAR AS IT CAN BE SEEN,
000134:                                                                                                 #                                                                                 ONLY BANKS 40-43 WILL EVER BE
000135:                                                                                                 #                                                                                 AND ARE PRESENTLY AVAILABLE)
000136:                                                                                                 #  SUPERBANK 5      101    2000 - 3777       50 - 57      130000 - 147777         (PRESENTLY NOT AVAILABLE TO
000137:                                                                                                 #                                                                                 THE USER)
000138:                                                                                                 #  SUPERBANK 6      110    2000 - 3777       60 - 67      150000 - 167777         (PRESENTLY NOT AVAILABLE TO
000139:                                                                                                 #                                                                                 THE USER)
000140:                                                                                                 #  *** THIS ROUTINE MAY BE CALLED BY ANY PROGRAM LOCATED IN BANKS 00 - 27.  I.E., NO PROGRAM LIVING IN ANY
000141:                                                                                                 #  SUPERBANK SHOULD USE SUPERSW. ***
000142:
000143:                                                                                                 #  SUPERSW MAY BE CALLED IN THIS FASHION:
000144:                                                                                                 #         CAF     ABBCON          WHERE -- ABBCON  BBCON  SOMETHING --
000145:                                                                                                 #         TCR     SUPERSW         (THE SUPERBNK BITS ARE IN THE BBCON)
000146:                                                                                                 #         ...       ...
000147:                                                                                                 #          .         .
000148:                                                                                                 #          .         .
000149:                                                                                                 #  OR IN THIS FASHION:
000150:                                                                                                 #         CAF     SUPERSET        WHERE SUPERSET IS ONE OF THE FOUR AVAILABLE
000151:                                                                                                 #         TCR     SUPERSW         SUPERBANK BIT CONSTANTS:
000152:                                                                                                 #         ...       ...                   SUPER011 OCTAL  60
000153:                                                                                                 #          .         .                    SUPER100 OCTAL 100
000154:                                                                                                 #          .         .                    SUPER101 OCTAL 120
000155:                                                                                                 #                                         SUPER110 OCTAL 140
000156:
000157:    4727           00006        SUPERSW           EXTEND
000158:    4730           01007                          WRITE    SUPERBNK                              #  WRITE BITS 7-6-5 OF THE ACCUMULATOR INTO
000159:                                                                                                 #  CHANNEL 07
000160:    4731           00002                          TC       Q                                     #  TC TO INSTRUCTION FOLLOWING
000161:                                                                                                 #         TC SUPERSW
000162:

End of include-file INTER-BANK_COMMUNICATION.agc.  Parent file is MAIN.agc


