
Source Code


000002:                                                                                                  ## Copyright:   Public domain.
000003:                                                                                                  ## Filename:    INTEGRATION_INITIALIZATION.agc
000004:                                                                                                  ## Purpose:     A section of Luminary 1C, revision 131.
000005:                                                                                                  ##              It is part of the source code for the Lunar Module's (LM)
000006:                                                                                                  ##              Apollo Guidance Computer (AGC) for Apollo 13.
000007:                                                                                                  ##              This file is intended to be a faithful transcription, except
000008:                                                                                                  ##              that the code format has been changed to conform to the
000009:                                                                                                  ##              requirements of the yaYUL assembler rather than the
000010:                                                                                                  ##              original YUL assembler.
000011:                                                                                                  ## Reference:   pp. 1198-1219
000012:                                                                                                  ## Contact:     Ron Burkey <info@sandroid.org>.
000013:                                                                                                  ## Website:     www.ibiblio.org/apollo/index.html
000014:                                                                                                  ## Mod history: 06/02/03 RSB.   Began transcribing.
000015:                                                                                                  ##              05/14/05 RSB.   Corrected website reference above.
000016:                                                                                                  ##              2010-10-25 JL   Indentation fixes.
000017:                                                                                                  ##              2017-01-06 RSB  Page numbers now agree with those on the
000018:                                                                                                  ##                              original hardcopy, as opposed to the PDF page
000019:                                                                                                  ##                              numbers in 1701.pdf.
000020:                                                                                                  ##              2017-02-27 RSB  Proofed comment text using octopus/ProoferComments.
000021:                                                                                                  ##              2017-03-01 RSB  Fixed lingering comment-text typos.
000022:                                                                                                  ##              2017-03-02 RSB  P00HFLAG --> POOHFLAG.
000023:                                                                                                  ##              2017-03-13 RSB  Comment-text fixes noted in proofing Luminary 116.
000024:                                                                                                  ##              2017-03-15 RSB  Comment-text fixes identified in 5-way
000025:                                                                                                  ##                              side-by-side diff of Luminary 69/99/116/131/210.
000026:                                                                                                  ##              2017-08-19 MAS  Fixed comment errors found transcribing Zerlina 56.
000027:


000029:                                                                                                  #  1.0 INTRODUCTION
000030:                                                                                                  #  ----------------
000031:
000032:                                                                                                  #  FROM A USERS POINT OF VIEW, ORBITAL INTEGRATION IS ESSENTIALLY THE SAME AS THE 278 INTEGRATION
000033:                                                                                                  #  PROGRAM.  THE SAME ENTRANCES TO THE PROGRAM WILL BE MAINTAINED, THE SAME STALLING ROUTINE WILL BE USED AND
000034:                                                                                                  #  OUTPUT WILL STILL BE VIA THE PUSHLIST.  THE PRIMARY DIFFERENCES TO A USER INVOLVE THE ADDED CAPABILITY OF
000035:                                                                                                  #  TERMINATING INTEGRATION AT A SPECIFIC FINAL RADIUS AND THE DIFFERENCE IN STATE VECTOR SCALING INSIDE AND OUT-
000036:                                                                                                  #  SIDE THE LUNAR SPHERE OF INFLUENCE.
000037:
000038:                                                                                                  #  IN ORDER TO MAKE THE CSM(LEM)PREC AND CSM(LEM)CONIC ENTRANCES SIMILAR TO FLIGHT 278, THE INTEGRATION PROGRAM
000039:                                                                                                  #  WILL ITSELF SET THE FINAL RADIUS (RFINAL) TO 0 SO THAT REACHING THE DESIRED TIME ONLY WILL TERMINATE
000040:                                                                                                  #  INTEGRATION.  THE DP REGISTER RFINAL MUST BE SET BY USERS OF INTEGRVS AND INTEGRV, AND MUST BE DONE AFTER THE
000041:                                                                                                  #  CALL TC INTSTALL.
000042:
000043:                                                                                                  #  WHEN THE LM IS ON THE LUNAR SURFACE (INDICATED BY LUNAR SURFACE FLAG SET) CALLS TO LEMCONIC, LEMPREC, AND
000044:                                                                                                  #  INTEGRV WITH VINFLAG = 0 WILL RESULT IN THE USE OF THE PLANETARY INERTIAL ORIENTATION SUBROUTINES TO PROVIDE
000045:                                                                                                  #  BOTH THE LMS POSITION AND VELOCITY IN THE REFERENCE COORDINATE SYSTEM.
000046:                                                                                                  #  THE PROGRAM WILL PROVIDE OUTPUT AS IF INTEGRATION WAS USED.  THAT IS, THE PUSHLIST WILL BE SET AS NOTED BELOW AND
000047:                                                                                                  #  THE PERMANENT STATE VECTOR UPDATED WHEN SPECIFIED BY AN INTEGRV CALL.
000048:
000049:                                                                                                  #  USERS OF INTEGRVS DESIRING INTEGRATION (INTYPFLG = 0) SHOULD NOTE THAT THE OBLATENESS PERTURBATION COMPUTATION
000050:                                                                                                  #  IN LUNAR ORBIT IS TIME DEPENDENT.  THEREFORE, THE USER SHOULD SUPPLY AN INITIAL STATE VECTOR VALID AT SOME REAL
000051:                                                                                                  #  TIME AND THE DESIRED TIME (TDEC1) ALSO AT SOME REAL TIME.  FOR CONIC ,,INTEGRATION,, THE USER MAY STILL USE ZERO
000052:                                                                                                  #  AS THE INITIAL TIME AND DELTA TIME AS THE DESIRED TIME.
000053:
000054:                                                                                                  #  2.0 GENERAL DESCRIPTION
000055:                                                                                                  #  -----------------------
000056:
000057:                                                                                                  #  THE INTEGRATION PROGRAM OPERATES AS A CLOSED INTERPRETIVE SUBROUTINE AND PERFORMS THESE FUNCTIONS---
000058:                                                                                                  #        1) INTEGRATES (PRECISION OR CONIC) EITHER CSM OR LM STATE VECTOR
000059:                                                                                                  #        2) INTEGRATES THE W-MATRIX
000060:                                                                                                  #        3) PERMANENT OR TEMPORARY UPDATE OF THE STATE VECTOR
000061:
000062:                                                                                                  #  THERE ARE SIX ENTRANCES TO THE INTEGRATION PROGRAM.  FOUR OF THESE (CSMPREC, LEMPREC, CSMCONIC, LEMCONIC) SET
000063:                                                                                                  #  ALL THE FLAGS REQUIRED IN THE INTEGRATION PROGRAM ITSELF TO CAUSE THE PRECISION OR CONIC INTEGRATION (KEPLER) OF
000064:                                                                                                  #  THE LM OR CSM STATE VECTOR, AS THE NAMES SUGGEST.  ONE ENTRANCE (INTEGRVS) PERMITS THE CALLING PROGRAM TO
000065:                                                                                                  #  PROVIDE A STATE VECTOR TO BE INTEGRATED.  THE CALLING PROGRAM MUST SET THE FLAGS INDICATING (1) PRECISION OR
000066:                                                                                                  #  CONIC INTEGRATION, (2) IN OR OUT OF LUNAR SPHERE, (3) MIDCOURSE OR NOT, AND THE INTEGRATION PROGRAM COMPLETES
000067:                                                                                                  #  THE FLAG SETTING TO BYPASS W-MATRIX INTEGRATION.  THE LAST ENTRANCE (INTEGRV, USED IN GENERAL BY THE
000068:                                                                                                  #  NAVIGATION PROGRAMS) PERMITS THE CALLER TO SET FIVE FLAGS (NOT MOONFLAG OR MIDFLAG) BUT NOT TO INPUT A STATE
000069:                                                                                                  #  VECTOR.  ANY PROGRAM WHICH CALLS INTEGRVS OR INTEGRV MUST CALL INTSTALL BEFORE IT SETS THE INTEGRATION FLAGS
000070:                                                                                                  #  AND/OR STATE VECTOR.
000071:
000072:                                                                                                  #  THREE SETS OF 42 REGISTERS AND 2 FLAGS ARE USED FOR THE STATE VECTORS.  TWO SETS, WHICH MAY NOT BE OVERLAYED, ARE
000073:                                                                                                  #  USED FOR THE PERMANENT STATE VECTORS FOR THE CSM AND LM.  THE THIRD SET, WHICH MAY BE OVERLAYED WHEN INTEGRATION
000074:                                                                                                  #  IS NOT BEING DONE, IS USED IN THE COMPUTATIONS.
000075:                                                                                                  #  THE PERMANENT STATE VECTORS WILL BE PERIODICALLY UPDATED SO THAT THE VECTORS WILL NOT BE OLDER THAN 4 TIMESTEPS.
000076:                                                                                                  #  THE PERMANENT STATE VECTORS WILL ALSO BE UPDATED WHENEVER THE W-MATRIX IS INTEGRATED OR WHEN A CALLER OF INTEGRV
000077:                                                                                                  #  SETS STATEFLG (THE NAVIGATION PROGRAMS P20, P22.)
000078:


000080:                                                                                                  #  APPENDIX B OF THE USERS GUIDE LISTS THE STATE VECTOR QUANTITIES.
000081:
000082:                                                                                                  #  2.1 RESTARTS
000083:
000084:                                                                                                  #  PHASE CHANGES WILL BE MADE IN THE INTEGRATION PROGRAM ONLY FOR THE INTEGRV ENTRANCE (I.E., WHEN THE W-MATRIX IS
000085:                                                                                                  #  INTEGRATED OR PERMANENT STATE VECTOR IS UPDATED.)  THE GROUP NUMBER USED WILL BE THAT FOR THE P20-25 PROGRAMS
000086:                                                                                                  #  (I.E., GROUP2) SINCE THE INTEGRV ENTRANCE WILL ONLY BE USED BY THESE PROGRAMS.  IF A RESTART OCCURS DURING AN
000087:                                                                                                  #  INTEGRATION OF THE STATE VECTOR ONLY, THE RECOVERY WILL BE TO THE LAST PHASE IN THE CALLING PROGRAM.  CALLING
000088:                                                                                                  #  PROGRAMS WHICH USE THE INTEGRV OR INTEGRVS ENTRANCE OF INTEGRATION SHOULD ENSURE THAT IF PHASE CHANGING IS DONE
000089:                                                                                                  #  THAT IT IS PRIOR TO SETTING THE INTEGRATION INPUTS IN THE PUSHLIST.
000090:
000091:                                                                                                  #  THIS IS BECAUSE THE PUSHLIST IS LOST DURING A RESTART.
000092:
000093:                                                                                                  #  2.2 SCALING
000094:
000095:                                                                                                  #  THE INTEGRATION ROUTINE WILL MAINTAIN THE PERMANENT MEMORY STATE VECTORS IN THE SCALING AND UNITS DEFINED IN
000096:                                                                                                  #  APPENDIX B OF THE USERS GUIDE.  THE SCALING OF THE OUTPUT POSITION VECTOR DEPENDS ON THE ORIGIN OF THE COORDINATE
000097:                                                                                                  #  SYSTEM AT THE DESIRED INTEGRATION TIME.  THE COORDINATE SYSTEM TRANSFORMATION WILL BE DONE AUTOMATICALLY ON
000098:                                                                                                  #  MULTIPLE TIMESTEP ENCKE INTEGRATION ONLY.  THUS IT IS POSSIBLE TO HAVE OUTPUT FROM SUCCESSIVE INTEGRATIONS IN
000099:                                                                                                  #  DIFFERENT SCALING.
000100:
000101:                                                                                                  #  HOWEVER, RATT, VATT WILL ALWAYS BE SCALED THE SAME.
000102:
000103:                                                                                                  #  3.0 INPUT/OUTPUT
000104:                                                                                                  #  ----------------
000105:
000106:                                                                                                  #  PROGRAM INPUTS ARE THE FLAGS DESCRIBED IN APPENDIX A AND THE PERMANENT STATE VECTOR QUANTITIES DESCRIBED IN AP-
000107:                                                                                                  #  PENDIX B OF THE USERS GUIDE, PLUS THE DESIRED TIME TO INTEGRATE TO IN TDEC1 (A PUSH LIST LOCATION).
000108:                                                                                                  #  FOR INTEGRVS, THE RCV,VCV,TET OF THE TEMPORARY STATE VECTOR MUST BE SET, PLUS MOONFLAG AND MIDFLAG
000109:
000110:                                                                                                  #  FOR SIMULATION THE FOLLOWING QUANTITIES MUST BE PRESET ---
000111:                                                                                                  #                                                                                EARTH   MOON
000112:                                                                                                  #                                                                                 29      27
000113:                                                                                                  #        RRECTCSM(LEM)   -       RECTIFIED POSITION VECTOR       METERS          2       2
000114:
000115:                                                                                                  #                                                                                 7       5
000116:                                                                                                  #        VRECTCSM(LEM)   -       RECTIFIED VELOCITY VECTOR       M/CSEC          2       2
000117:
000118:                                                                                                  #                                                                                 28      28
000119:                                                                                                  #        TETCSM(LEM)     -       TIME STATE VECTOR IS VALID      CSEC            2       2
000120:                                                                                                  #                                CUSTOMARILY 0, BUT NOTE LUNAR
000121:                                                                                                  #                                ORBIT DEPENDENCE ON REAL TIME.
000122:
000123:                                                                                                  #                                                                                 22      18
000124:                                                                                                  #        DELTAVCSM(LEM)  -       POSITION DEVIATION              METERS          2       2
000125:                                                                                                  #                                0 IF TCCSM(LEM) = 0
000126:
000127:                                                                                                  #                                                                                 3       -1
000128:                                                                                                  #        NUVCSM(LEM)     -       VELOCITY DEVIATION              M/CSEC          2       2
000129:                                                                                                  #                                0 IF TCCSM(LEM) = 0


000131:                                                                                                  #                                                                                 29      27
000132:                                                                                                  #        RCVCSM(LEM)     -       CONIC POSITION                  METERS          2       2
000133:                                                                                                  #                                EQUALS RRECTCSM(LEM) IF
000134:                                                                                                  #                                TCCSM(LEM) = 0
000135:
000136:                                                                                                  #                                                                                 7       5
000137:                                                                                                  #        VCVCSM(LEM)     -       CONIC VELOCITY                  M/CSEC          2       2
000138:                                                                                                  #                                EQUALS VRECTCSM(LEM) IF
000139:                                                                                                  #                                TCCSM(LEM) = 0
000140:
000141:                                                                                                  #                                                                                 28      28
000142:                                                                                                  #        TCCSM(LEM)      -       TIME SINCE RECTIFICATION        CSECS           2       2
000143:                                                                                                  #                                CUSTOMARILY 0
000144:
000145:                                                                                                  #                                                                 1/2             17      16
000146:                                                                                                  #        XKEPCSM(LEM)    -       ROOT OF KEPLERS EQUATION        M               2       2
000147:                                                                                                  #                                0 IF TCCSM(LEM) = 0
000148:
000149:                                                                                                  #        CMOONFLG        -       PERMANENT FLAGS CORRESPONDING                   0       0
000150:                                                                                                  #        CMIDFLAG                TO MOONFLAG AND MIDFLAG                         0,1     0,1
000151:                                                                                                  #        LMOONFLG                C = CSM, L = LM                                 0       0
000152:                                                                                                  #        LMIDFLG                                                                 0,1     0,1
000153:
000154:                                                                                                  #        SURFFLAG        -       LUNAR SURFACE FLAG                              0,1     0,1
000155:
000156:                                                                                                  #  IN ADDITION, IF (L)CMIDFLAG IS SET, THE INITIAL INPUT VALUES FOR LUNAR
000157:                                                                                                  #  SOLAR EPHEMERIDES SUBROUTINE AND PLANETARY INERTIAL ORIENTATION SUB-
000158:                                                                                                  #  ROUTINE MUST BE PRESET.
000159:
000160:                                                                                                  #  OUTPUT
000161:                                                                                                  #        AFTER EVERY CALL TO INTEGRATION
000162:                                                                                                  #                                                                        EARTH   MOON
000163:                                                                                                  #                                                                         29      29
000164:                                                                                                  #        0D      RATT    POSITION                        METERS          2       2
000165:
000166:                                                                                                  #                                                                         7       7
000167:                                                                                                  #        6D      VATT    VELOCITY                        M/CSEC          2       2
000168:
000169:                                                                                                  #                                                                         28      28
000170:                                                                                                  #        12D     TAT     TIME                                            2       2
000171:
000172:                                                                                                  #                                                                         29      27
000173:                                                                                                  #        14D     RATT1   POSITION                        METERS          2       2
000174:
000175:                                                                                                  #                                                                         7       5
000176:                                                                                                  #        20D     VATT1   VELOCITY                        M/CSEC          2       2
000177:
000178:                                                                                                  #                                                         3   2           36      30
000179:                                                                                                  #        26D     MU(P)   MU                              M /CS           2       2
000180:
000181:                                                                                                  #        X1              MUTABLE ENTRY                                   -2      -10D
000182:
000183:                                                                                                  #        X2              COORDINT
000184:                                                                                                  #        X2              COORDINATE SYSTEM ORIGEN                        0       2
000185:                                                                                                  #                        (THIS, NOT MOONFLAG, SHOULD BE


000187:                                                                                                  #                        USED TO DETERMINE ORIGIN.)
000188:
000189:                                                                                                  #  IN ADDITION TO THE ABOVE, THE PERMANENT STATE VECTOR IS UPDATED WHENEVER
000190:                                                                                                  #  STATEFLG WAS SET AND WHENEVER A W-MATRIX IS TO BE INTEGRATED.  THE PUSH
000191:                                                                                                  #  COUNTER IS SET TO 0 AND OVERFLOW IS CLEARED BEFORE RETURNING TO THE
000192:                                                                                                  #  CALLING PROGRAM.
000193:
000194:                                                                                                  #  4.0 CALLING SEQUENCES AND SAMPLE CODE
000195:                                                                                                  #  -------------------------------------
000196:
000197:                                                                                                  #        A) PRECISION ORBITAL INTEGRATION.  CSMPREC, LEMPREC ENTRANCES
000198:                                                                                                  #                L-X     STORE TIME TO 95T5791T5 T 95 PUS L9ST (T4531)
000199:                                                                                                  #                L       CALL
000200:                                                                                                  #                L+1             CSMPREC (OR LEMPREC)
000201:                                                                                                  #                L+2     RETURN
000202:                                                                                                  #           INPUT                                                           28
000203:                                                                                                  #                TDEC1 (PD 32D) TIME TO INTEGRATE TO...CENTISECONDS SCALED 2
000204:                                                                                                  #           OUTPUT
000205:                                                                                                  #                THE DATA LISTED IN SECTION 3.0 PLUS
000206:                                                                                                  #                RQVV    POSITION VECTOR OF VEHICLE WITH RESPECT TO SECONDARY
000207:                                                                                                  #                BODY... METERS B-29 ONLY IF MIDFLAG = DIMOFLAG = 1
000208:                                                                                                  #        B) CONIC INTEGRATION.  CSMCONIC, LEMCONIC ENTRANCES
000209:                                                                                                  #                L-X     STORE TIME IN PUSH LIST (TDEC1)
000210:                                                                                                  #                L       CALL
000211:                                                                                                  #                L+1             CSMCONIC (OR LEMCONIC)
000212:                                                                                                  #           INPUT/OUTPUT
000213:                                                                                                  #                SAME AS PRECISION INTEGRATION, EXCEPT RQVV NOT SET
000214:                                                                                                  #        C) INTEGRATE GIVEN STATE VECTOR.  INTEGRVS ENTRANCE
000215:                                                                                                  #                CALL
000216:                                                                                                  #                                INTSTALL
000217:                                                                                                  #                VLOAD
000218:                                                                                                  #                                POSITION VECTOR
000219:                                                                                                  #                STOVL           RCV
000220:                                                                                                  #                                VELOCITY VECTOR
000221:                                                                                                  #                STODL           VCV
000222:                                                                                                  #                                TIME STATE VECTOR VALID
000223:                                                                                                  #                STODL           TET
000224:                                                                                                  #                                FINAL RADIUS
000225:                                                                                                  #                STORE           RFINAL
000226:                                                                                                  #                SET(CLEAR)      SET(CLEAR)
000227:                                                                                                  #                                INTYPFLAG
000228:                                                                                                  #                                MOONFLAG
000229:                                                                                                  #                SET(CLEAR)      DLOAD
000230:                                                                                                  #                                DESIRED TIME
000231:                                                                                                  #                STCALL          TDEC1
000232:                                                                                                  #                                INTEGRVS
000233:                                                                                                  #          INPUT
000234:                                                                                                  #                RCV     POSITION VECTOR                 METERS
000235:                                                                                                  #                VCV     VELOCITY VECTOR                 M/CSEC
000236:                                                                                                  #                TET     TIME OF STATE VECTOR (MAY = 0)  CSEC B-28


000238:                                                                                                  #                TDEC1   TIME TO INTEGRATE TO            CSEC B-28 (PD 32D)
000239:                                                                                                  #                        (MAY BE INCREMENT IF TET=0)
000240:                                                                                                  #          OUTPUT
000241:                                                                                                  #                SAME AS FOR PRECISION OR CONIC INTEGRATION,
000242:                                                                                                  #                DEPENDING ON INTYPFLG.
000243:                                                                                                  #        D) INTEGRATE STATE VECTOR.  INTGRV ENTRANCE
000244:                                                                                                  #                L-X     STORE TIME IN PUSH LIST (TDEC1) (MAY BE DONE AFTER CALL TO INTSTALL)
000245:                                                                                                  #                L-8     CALL
000246:                                                                                                  #                L-7
000247:                                                                                                  #                L-6     SET(CLEAR)      SET(CLEAR)
000248:                                                                                                  #                L-5                     VINTFLAG        1=CSM, 0=LM
000249:                                                                                                  #                L-4                     INTYPFLAG       1=CONIC, 0=PRECISION
000250:                                                                                                  #                L-3     SET(CLEAR)      SET(CLEAR)
000251:                                                                                                  #                L-2                     DIMOFLAG        1=W-MATRIX, 0=NO W-MATRIX
000252:                                                                                                  #                L-1                     D6OR9FLG        1=9X9, 0=6X6
000253:                                                                                                  #                L       SET             DLOAD
000254:                                                                                                  #                L+1                     STATEFLG        DESIRE PERMANENT UPDATE
000255:                                                                                                  #                L+2                     FINAL RAD.      OF STATE VECTOR
000256:                                                                                                  #                L+3     STCALL          RFINAL
000257:                                                                                                  #                L+4                     INTEGRV
000258:                                                                                                  #                L       CALL                            NORMAL USE -- WILL UPDATE STATE
000259:                                                                                                  #                L+1                     INTEGRV         VECTOR IF DIMOFLAG=1. (STATEFLG IS
000260:                                                                                                  #                L+2     RETURN                          ALWAYS RESET IN INTEGRATION AFTER
000261:                                                                                                  #                                                        IT IS USED.)
000262:                                                                                                  #          INPUT
000263:                                                                                                  #                TDEC1 (PD 32D) TIME TO INTEGRATE TO     CSEC B-28
000264:                                                                                                  #          OUTPUT
000265:                                                                                                  #                SAME AS FOR PRECISION OR CONIC INTEGRATION
000266:                                                                                                  #          THE PROGRAM WILL SET MOONFLAG, MIDFLAG DEPENDING ON
000267:                                                                                                  #          THE PERMANENT STATE VECTOR REPRESENTATION.
000268:
000269: 11,2404                                           BANK     11
000270: 13,2000                                           SETLOC   INTINIT
000271: 13,2000                                           BANK
000272: 13,2602  E3,1554                                  EBANK=   RRECTCSM
000273: 13,2602                                           COUNT*   $$/INTIN
000274: 13,2602           05353        STATEINT           TC       PHASCHNG
000275: 13,2603           00052                           OCT      00052
000276: 13,2604           35017                           CAF      PRIO5
000277: 13,2605           05105                           TC       FINDVAC
000278: 13,2606  E3,1554                                  EBANK=   RRECTCSM
000279: 13,2606           02611 26063                     2CADR    STATINT1
000280:
000281: 13,2610           05261                           TC       TASKOVER
000282: 13,2611           06042        STATINT1           TC       INTPRET
000283: 13,2612           47014                           BON      RTB
000284: 13,2613           04712                                    QUITFLAG                              #  KILL INTEGRATION UNTIL NEXT POO.
000285: 13,2614           26652                                    NOINT
000286: 13,2615           21574                                    LOADTIME
000287: 13,2616           00041                           STORE    TDEC1


000289: 13,2617           77624                           CALL
000290: 13,2620           27410                                    INTSTALL
000291: 13,2621           45014                           SET      CALL
000292: 13,2622           01076                                    NODOFLAG
000293: 13,2623           26643                                    SETIFLGS
000294: 13,2624           52014                           SET      GOTO
000295: 13,2625           01460                                    POOHFLAG
000296: 13,2626           26026                                    STATEUP
000297: 13,2627           00003 25140  600SECS            2DEC     60000      B-28
000298:
000299: 13,2631           77414        ENDINT             CLEAR    EXIT
000300: 13,2632           01672                                    STATEFLG
000301: 13,2633           05353                           TC       PHASCHNG
000302: 13,2634           20032                           OCT      20032
000303: 13,2635           00006                           EXTEND
000304: 13,2636           32630                           DCA      600SECS
000305: 13,2637           05277                           TC       LONGCALL
000306: 13,2640  E3,1626                                  EBANK=   RRECTHIS
000307: 13,2640           02602 26063                     2CADR    STATEINT
000308:
000309: 13,2642           05155                           TC       ENDOFJOB
000310: 13,2643           43014        SETIFLGS           SET      CLEAR
000311: 13,2644           01472                                    STATEFLG
000312: 13,2645           01673                                    INTYPFLG
000313: 13,2646           43014                           CLEAR    CLEAR
000314: 13,2647           01676                                    DIM0FLAG
000315: 13,2650           01675                                    D6OR9FLG
000316: 13,2651           77616                           RVQ
000317: 13,2652           77776        NOINT              EXIT
000318: 13,2653           05353                           TC       PHASCHNG
000319: 13,2654           00002                           OCT      00002
000320:
000321: 13,2655           05516                           TC       DOWNFLAG
000322: 13,2656           00221                           ADRES    QUITFLAG
000323: 13,2657           05155                           TC       ENDOFJOB
000324:
000325:                                                                                                  #  ATOPCSM TRANSFERS RRECT TO RRECT +41 TO RRECTCSM TO RRECTCSM +41
000326:
000327:                                                                                                  #  CALLING SEQUENCE
000328:                                                                                                  #        L       CALL
000329:                                                                                                  #        L+1             ATOPCSM
000330:
000331:                                                                                                  #  NORMAL EXIT AT L+2
000332:
000333: 13,2660           47020        ATOPCSM            STQ      RTB
000334: 13,2661           00051                                    S2
000335: 13,2662           26673                                    MOVEACSM
000336: 13,2663           45014                           SET      CALL
000337: 13,2664           04063                                    CMOONFLG
000338: 13,2665           26114                                    SVDWN1


000340: 13,2666           43014                           BON      CLRGO
000341: 13,2667           00303                                    MOONFLAG
000342: 13,2670           00051                                    S2
000343: 13,2671           04223                                    CMOONFLG
000344: 13,2672           00051                                    S2
000345: 13,2673           03035        MOVEACSM           TC       SETBANK
000346: 13,2674           55500                           TS       DIFEQCNT                              #  INITIALIZE INDEX
000347: 13,2675           51500                           INDEX    DIFEQCNT
000348: 13,2676           31502                           CA       RRECT
000349: 13,2677           51500                           INDEX    DIFEQCNT
000350: 13,2700           55554                           TS       RRECTCSM
000351: 13,2701           11500                           CCS      DIFEQCNT                              #  IS TRANSFER COMPLETE
000352: 13,2702           12674                           TCF      MOVEACSM   +1                         #  NO-LOOP
000353: 13,2703           06064                           TC       DANZIG                                #  COMPLETE - RETURN
000354:
000355:                                                                                                  #  PTOACSM TRANSFERS RRECTCSM TO RRECTCSM +41 TO RRECT TO RRECT +41
000356:
000357:                                                                                                  #  CALLING SEQUENCE
000358:                                                                                                  #        L       CALL
000359:                                                                                                  #                        PTOACSM
000360:
000361:                                                                                                  #  NORMAL EXIT AT L+2
000362:
000363: 13,2704           43034        PTOACSM            RTB      BON
000364: 13,2705           26722                                    MOVEPCSM
000365: 13,2706           04303                                    CMOONFLG
000366: 13,2707           26715                                    SETMOON
000367: 13,2710           66214        CLRMOON            CLEAR    SSP
000368: 13,2711           00263                                    MOONFLAG
000369: 13,2712           02031                                    PBODY
000370: 13,2713           00000                                    0
000371: 13,2714           77616                           RVQ
000372: 13,2715           66214        SETMOON            SET      SSP
000373: 13,2716           00063                                    MOONFLAG
000374: 13,2717           02031                                    PBODY
000375: 13,2720           00002                                    2
000376: 13,2721           77616                           RVQ
000377: 13,2722           03035        MOVEPCSM           TC       SETBANK
000378: 13,2723           55500                           TS       DIFEQCNT
000379: 13,2724           51500                           INDEX    DIFEQCNT
000380: 13,2725           31554                           CA       RRECTCSM
000381: 13,2726           51500                           INDEX    DIFEQCNT
000382: 13,2727           55502                           TS       RRECT
000383: 13,2730           11500                           CCS      DIFEQCNT
000384: 13,2731           12723                           TCF      MOVEPCSM   +1
000385: 13,2732           06064                           TC       DANZIG
000386:
000387:                                                                                                  #  ATOPLEM TRANSFERS RRECT TO RRECT +41 TO RRECTLEM TO RRECTLEM +41


000389: 13,2733           47020        ATOPLEM            STQ      RTB
000390: 13,2734           00051                                    S2
000391: 13,2735           26746                                    MOVEALEM
000392: 13,2736           45014                           SET      CALL
000393: 13,2737           04064                                    LMOONFLG
000394: 13,2740           26070                                    SVDWN2
000395: 13,2741           43014                           BON      CLRGO
000396: 13,2742           00303                                    MOONFLAG
000397: 13,2743           00051                                    S2
000398: 13,2744           04224                                    LMOONFLG
000399: 13,2745           00051                                    S2
000400: 13,2746           03035        MOVEALEM           TC       SETBANK
000401: 13,2747           55500                           TS       DIFEQCNT
000402: 13,2750           51500                           INDEX    DIFEQCNT
000403: 13,2751           31502                           CA       RRECT
000404: 13,2752           51500                           INDEX    DIFEQCNT
000405: 13,2753           55626                           TS       RRECTLEM
000406: 13,2754           11500                           CCS      DIFEQCNT
000407: 13,2755           12747                           TCF      MOVEALEM   +1
000408: 13,2756           06064                           TC       DANZIG
000409:
000410:                                                                                                  #  PTOALEM TRANSFERS RRECTLEM TO RRECTLEM +41 TO RRECT TO RRECT +41
000411:
000412: 13,2757           47014        PTOALEM            BON      RTB
000413: 13,2760           04307                                    SURFFLAG
000414: 13,2761           27000                                    USEPIOS
000415: 13,2762           26767                                    MOVEPLEM
000416: 13,2763           52014                           BON      GOTO
000417: 13,2764           04304                                    LMOONFLG
000418: 13,2765           26715                                    SETMOON
000419: 13,2766           26710                                    CLRMOON
000420: 13,2767           03035        MOVEPLEM           TC       SETBANK
000421: 13,2770           55500                           TS       DIFEQCNT
000422: 13,2771           51500                           INDEX    DIFEQCNT
000423: 13,2772           31626                           CA       RRECTLEM
000424: 13,2773           51500                           INDEX    DIFEQCNT
000425: 13,2774           55502                           TS       RRECT
000426: 13,2775           11500                           CCS      DIFEQCNT
000427: 13,2776           12770                           TCF      MOVEPLEM   +1
000428: 13,2777           06064                           TC       DANZIG
000429:
000430: 13,3000           77201        USEPIOS            SETPD    VLOAD
000431: 13,3001           00001                                    0
000432: 13,3002           02023                                    RLS
000433: 13,3003           41525                           PDDL     PUSH
000434: 13,3004           00041                                    TDEC1
000435: 13,3005           15517                           STODL    TET
000436: 13,3006           27733                                    5/8


000438: 13,3007           77624                           CALL
000439: 13,3010           55716                                    RP-TO-R
000440: 13,3011           25535                           STOVL    RCV
000441: 13,3012           24001                                    ZUNIT
000442: 13,3013           14001                           STODL    0D
000443: 13,3014           01517                                    TET
000444: 13,3015           14007                           STODL    6D
000445: 13,3016           27733                                    5/8
000446: 13,3017           45014                           SET      CALL                                  #  NEEDED FOR SETTING X1 ON EXIT
000447: 13,3020           00063                                    MOONFLAG
000448: 13,3021           55716                                    RP-TO-R
000449: 13,3022           74235                           VXV      VXSC
000450: 13,3023           01535                                    RCV
000451: 13,3024           26001                                    OMEGMOON
000452: 13,3025           25543                           STOVL    VCV
000453: 13,3026           24007                                    ZEROVEC
000454: 13,3027           01521                           STORE    TDELTAV
000455: 13,3030           67174                           AXT,2    SXA,2
000456: 13,3031           00002                                    2
000457: 13,3032           02030                                    PBODY
000458: 13,3033           35527                           STCALL   TNUV
000459: 13,3034           27156                                    A-PCHK
000460: 13,3035           33041        SETBANK            CAF      INTBANK
000461: 13,3036           54006                           TS       BBANK
000462: 13,3037           33446                           CAF      FORTYONE
000463: 13,3040           00002                           TC       Q
000464: 13,3041  E3,1554                                  EBANK=   RRECTCSM
000465: 13,3041           26063        INTBANK            BBCON    INTEGRV
000466:
000467:                                                                                                  #  SPECIAL PURPOSE ENTRIES TO ORBITAL INTEGRATION.  THESE ROUTINES PROVIDE ENTRANCES TO INTEGRATION WITH
000468:                                                                                                  #  APPROPRIATE SWITCHES SET OR CLEARED FOR THE DESIRED INTEGRATION.
000469:
000470:                                                                                                  #  CSMPREC AND LEMPREC PERFORM ORBIT INTEGRATION BY THE ENCKE METHOD TO THE TIME INDICATED IN TDEC1
000471:                                                                                                  #  ACCELERATIONS DUE TO OBLATENESS ARE INCLUDED.  NO W-MATRIX INT. IS DONE.
000472:                                                                                                  #  THE PERMANENT STATE VECTOR IS NOT UPDATED.
000473:
000474:                                                                                                  #  CSMCONIC AND LEMCONIC PERFORM ORBIT INTEG. BY KEPLERS METHOD TO THE TIME INDICATED IN TDEC1
000475:                                                                                                  #  NO DISTURBING ACCELERATIONS ARE INCLUDED.  IN THE PROGRAM FLOW THE GIVEN
000476:                                                                                                  #  STATE VECTOR IS RECTIFIED BEFORE SOLUTION OF KEPLERS EQUATION
000477:
000478:                                                                                                  #  THE ROUTINES ASSUME THAT THE CSM (LEM) STATE VECTOR IN P-MEM IS VALID.
000479:                                                                                                  #  SWITCHES SET PRIOR TO ENTRY TO THE MAIN INTEG. PROG ARE AS FOLLOWS
000480:                                                                                                  #                        CSMPREC         CSMCONIC        LEMPREC         LEMCONIC
000481:                                                                                                  #        VINTFLAG        SET             SET             CLEAR           CLEAR
000482:                                                                                                  #        INTYPFLG        CLEAR           SET             CLEAR           SET
000483:                                                                                                  #        DIM0FLAG        CLEAR           CLEAR           CLEAR           CLEAR
000484:
000485:                                                                                                  #  CALLING SEQUENCE
000486:                                                                                                  #        L-X     STORE   TDEC1


000488:                                                                                                  #        L       CALL                    (STCALL TDEC1)
000489:                                                                                                  #        L+1             CSMPREC         (CSMCONIC, LEMPREC, LEMCONIC)
000490:
000491:                                                                                                  #  NORMAL EXIT TO L+2
000492:
000493:                                                                                                  #  SUBROUTINES CALLED
000494:                                                                                                  #        INTEGRV1
000495:                                                                                                  #        PRECOUT FOR CSMPREC AND LEMPREC
000496:                                                                                                  #        CONICOUT FOR CSMCONIC AND LEMCONIC
000497:
000498:                                                                                                  #  OUTPUT - SEE PAGE 2 OF THIS LOG SECTION
000499:
000500:                                                                                                  #  INPUT
000501:                                                                                                  #        TDEC1           TIME TO INTEGRATE TO.  CSECS B-28
000502:
000503: 13,3042           45020        CSMPREC            STQ      CALL
000504: 13,3043           00046                                    X1
000505: 13,3044           27410                                    INTSTALL
000506: 13,3045           43130                           SXA,1    SET
000507: 13,3046           02102                                    IRETURN
000508: 13,3047           01474                                    VINTFLAG
000509:
000510: 13,3050           43014        IFLAGP             SET      CLEAR
000511: 13,3051           01467                                    PRECIFLG
000512: 13,3052           01676                                    DIM0FLAG
000513: 13,3053           77614                           CLRGO
000514: 13,3054           01633                                    INTYPFLG
000515: 13,3055           27135                                    INTEGRV1
000516: 13,3056           45020        LEMPREC            STQ      CALL
000517: 13,3057           00046                                    X1
000518: 13,3060           27410                                    INTSTALL
000519: 13,3061           43130                           SXA,1    CLRGO
000520: 13,3062           02102                                    IRETURN
000521: 13,3063           01634                                    VINTFLAG
000522: 13,3064           27050                                    IFLAGP
000523:
000524: 13,3065           45020        CSMCONIC           STQ      CALL
000525: 13,3066           00046                                    X1
000526: 13,3067           27410                                    INTSTALL
000527: 13,3070           43130                           SXA,1    SET
000528: 13,3071           02102                                    IRETURN
000529: 13,3072           01474                                    VINTFLAG
000530: 13,3073           43014        IFLAGC             CLEAR    SETGO
000531: 13,3074           01676                                    DIM0FLAG
000532: 13,3075           01433                                    INTYPFLG
000533: 13,3076           27135                                    INTEGRV1
000534: 13,3077           45020        LEMCONIC           STQ      CALL
000535: 13,3100           00046                                    X1
000536: 13,3101           27410                                    INTSTALL
000537: 13,3102           43130                           SXA,1    CLRGO


000539: 13,3103           02102                                    IRETURN
000540: 13,3104           01634                                    VINTFLAG
000541: 13,3105           27073                                    IFLAGC
000542:
000543: 13,3106           66214        INTEGRVS           SET      SSP
000544: 13,3107           01467                                    PRECIFLG
000545: 13,3110           02031                                    PBODY
000546: 13,3111           00000                                    0
000547: 13,3112           66214                           BOF      SSP
000548: 13,3113           00343                                    MOONFLAG
000549: 13,3114           27117                                    +3
000550: 13,3115           02031                                    PBODY
000551: 13,3116           00002                                    2
000552: 13,3117           77220                           STQ      VLOAD
000553: 13,3120           02102                                    IRETURN
000554: 13,3121           24007                                    ZEROVEC
000555: 13,3122           01521                           STORE    TDELTAV
000556: 13,3123           35527                           STCALL   TNUV
000557: 13,3124           27671                                    RECTIFY
000558: 13,3125           43014                           CLEAR    SET
000559: 13,3126           01676                                    DIM0FLAG
000560: 13,3127           04062                                    NEWIFLG
000561: 13,3130           77614                           SETGO
000562: 13,3131           04020                                    RPQFLAG
000563: 13,3132           27147                                    ALOADED
000564:
000565:                                                                                                  #  INTEGRV IS AN ENTRY TO ORBIT INTEGRATION WHICH PERMITS THE CALLER,
000566:                                                                                                  #  NORMALLY THE NAVIGATION PROGRAM, TO SET THE INTEG. FLAGS.  THE ROUTINE
000567:                                                                                                  #  IS ENTERED AT INTEGRV1 BY CSMPREC ET. AL. AND AT ALOADED BY INTEGRVS.
000568:                                                                                                  #  THE ROUTINE SETS UP A-MEMORY IF ENTERED AT INTEGRV,1 AND SETS THE INTEG.
000569:                                                                                                  #  PROGRAM FOR PRECISION OR CONIC
000570:
000571:                                                                                                  #  THE CALLER MUST FIRST CALL INTSTALL TO CHECK IF INTEG. IS IN USE BEFORE
000572:                                                                                                  #  SETTING ANY FLAGS.
000573:
000574:                                                                                                  #  THE FLAGS WHICH SHOULD BE SET OR CLEARED ARE
000575:                                                                                                  #        VINTFLAG        (IGNORED WHEN ENTERED FROM INTEGRVS)
000576:                                                                                                  #        INTYPFLG
000577:                                                                                                  #        DIM0FLAG
000578:                                                                                                  #        D6OR9FLG
000579:
000580:                                                                                                  #  CALLING SEQUENCE
000581:                                                                                                  #        L-X     CALL
000582:                                                                                                  #        L-Y             INTSTALL
000583:                                                                                                  #        L-1     SET OR CLEAR ALL FOUR FLAGS.  ALSO CAN SET STATEFLG IF DESIRED
000584:                                                                                                  #                AND DIM0FLAG IS CLEAR.
000585:                                                                                                  #        L       CALL
000586:                                                                                                  #        L+1             INTEGRV
000587:
000588:                                                                                                  #  INITIALIZATION
000589:                                                                                                  #        FLAGS AS ABOVE
000590:                                                                                                  #        STORE TIME TO INTEGRATE TO IN TDEC1
000591:
000592:                                                                                                  #  OUTPUT
000593:                                                                                                  #        RATT    AS


000595:                                                                                                  #        VATT          DEFINED
000596:                                                                                                  #        TAT                     BEFORE
000597:
000598: 13,3133           77620        INTEGRV            STQ
000599: 13,3134           02102                                    IRETURN
000600: 13,3135           43014        INTEGRV1           SET      SET
000601: 13,3136           04060                                    RPQFLAG
000602: 13,3137           04062                                    NEWIFLG
000603: 13,3140           77731        INTEGRV2           SSP
000604: 13,3141           00053                                    QPRET
000605: 13,3142           27147                                    ALOADED
000606: 13,3143           52014                           BON      GOTO
000607: 13,3144           01714                                    VINTFLAG
000608: 13,3145           26704                                    PTOACSM
000609: 13,3146           26757                                    PTOALEM
000610: 13,3147           77745        ALOADED            DLOAD
000611: 13,3150           00041                                    TDEC1
000612: 13,3151           01115                           STORE    TDEC
000613: 13,3152           52014                           BOFF     GOTO
000614: 13,3153           01753                                    INTYPFLG
000615: 13,3154           27256                                    TESTLOOP
000616: 13,3155           27242                                    RVCON
000617: 13,3156           77414        A-PCHK             BOF      EXIT
000618: 13,3157           01752                                    STATEFLG
000619: 13,3160           27177                                    RECTOUT
000620: 13,3161           05353                           TC       PHASCHNG
000621: 13,3162           04022                           OCT      04022
000622: 13,3163           05504                           TC       UPFLAG                                #  PHASE CHANGE HAS OCCURRED BETWEEN
000623: 13,3164           00236                           ADRES    REINTFLG                              #  INTSTALL AND INTWAKE
000624: 13,3165           06042                           TC       INTPRET
000625: 13,3166           77731                           SSP
000626: 13,3167           00053                                    QPRET
000627: 13,3170           27175                                    PHEXIT
000628: 13,3171           52014                           BON      GOTO
000629: 13,3172           01714                                    VINTFLAG
000630: 13,3173           26660                                    ATOPCSM
000631: 13,3174           26733                                    ATOPLEM
000632: 13,3175           77624        PHEXIT             CALL
000633: 13,3176           11210                                    GRP2PC
000634: 13,3177           45001        RECTOUT            SETPD    CALL
000635: 13,3200           00001                                    0
000636: 13,3201           27671                                    RECTIFY
000637: 13,3202           53775                           VLOAD    VSL*
000638: 13,3203           01503                                    RRECT
000639: 13,3204           57576                                    0,2
000640: 13,3205           53715                           PDVL     VSL*                                  #  RATT TO PD0
000641: 13,3206           01511                                    VRECT
000642: 13,3207           57576                                    0,2
000643: 13,3210           63325                           PDDL     PDVL                                  #  VATT TO PD6   TAT TO PD12


000645: 13,3211           01517                                    TET
000646: 13,3212           01503                                    RRECT
000647: 13,3213           64715                           PDVL     PDDL*
000648: 13,3214           01511                                    VRECT
000649: 13,3215           51770                                    MUEARTH,2
000650: 13,3216           76006                           PUSH     AXT,1
000651: 13,3217           77765                           DEC      -10        B-14
000652: 13,3220           76014                           BON      AXT,1
000653: 13,3221           00303                                    MOONFLAG
000654: 13,3222           27224                                    +2
000655: 13,3223           77775                           DEC      -2         B-14
000656: 13,3224           40001        INTEXIT            SETPD    BOV
000657: 13,3225           00001                                    0
000658: 13,3226           27227                                    +1
000659: 13,3227           43014                           CLEAR    CLEAR
000660: 13,3230           04676                                    AVEMIDSW                              #  ALLOW UPDATE OF DOWNLINK STATE VECTOR
000661: 13,3231           01667                                    PRECIFLG
000662: 13,3232           77614                           CLEAR
000663: 13,3233           01672                                    STATEFLG
000664: 13,3234           77535                           SLOAD    EXIT
000665: 13,3235           02103                                    IRETURN
000666: 13,3236           30154                           CA       MPAC
000667: 13,3237           50120                           INDEX    FIXLOC
000668: 13,3240           54052                           TS       QPRET
000669: 13,3241           03421                           TC       INTWAKE
000670:
000671:                                                                                                  #  RVCON SETS UP ORBIT INTEGRATION TO DO A CONIC SOLUTION FOR POSITION AND
000672:                                                                                                  #  VELOCITY FOR THE INTERVAL (TET-TDEC)
000673:
000674: 13,3242           45345        RVCON              DLOAD    DSU
000675: 13,3243           01115                                    TDEC
000676: 13,3244           01517                                    TET
000677: 13,3245           36074                           STCALL   TAU.
000678: 13,3246           27671                                    RECTIFY
000679: 13,3247           77624                           CALL
000680: 13,3250           22404                                    KEPPREP
000681: 13,3251           43345                           DLOAD    DAD
000682: 13,3252           01551                                    TC
000683: 13,3253           01517                                    TET
000684: 13,3254           35517                           STCALL   TET
000685: 13,3255           27177                                    RECTOUT
000686:


000688:                                                                                                  #  TESTLOOP
000689:
000690: 13,3256           43014        TESTLOOP           BOF      CLRGO
000691: 13,3257           04752                                    QUITFLAG
000692: 13,3260           27263                                    +3
000693: 13,3261           01632                                    STATEFLG
000694: 13,3262           27224                                    INTEXIT                               #  STOP INTEGRATION
000695: 13,3263           73001                 +3        SETPD    LXA,2
000696: 13,3264           00013                                    10D
000697: 13,3265           02030                                    PBODY
000698: 13,3266           51575                           VLOAD    ABVAL
000699: 13,3267           01535                                    RCV
000700: 13,3270           43006                           PUSH     CLEAR                                 #  RC TO 10D
000701: 13,3271           00262                                    MIDFLAG
000702: 13,3272           50023                           DSU*     BMN                                   #  MIDFLAG=0 IF R G.T. RMP
000703: 13,3273           53755                                    RME,2
000704: 13,3274           27277                                    +3
000705: 13,3275           77614                           SET
000706: 13,3276           00062                                    MIDFLAG
000707: 13,3277           41345        NORFINAL           DLOAD    DMP
000708: 13,3300           00013                                    10D
000709: 13,3301           00043                                    34D
000710: 13,3302           55762                           SR1R     DDV*
000711: 13,3303           51770                                    MUEARTH,2
000712: 13,3304           41366                           SQRT     DMP
000713: 13,3305           25762                                    .3D
000714: 13,3306           40442                           SR3      SR4                                   #  DT IS TRUNCATED TO A MULTIPLE
000715: 13,3307           54345                           DLOAD    SL
000716: 13,3310           00155                                    MPAC
000717: 13,3311           20220                                    15D                                   #        OF 128 CSECS.
000718: 13,3312           40006                           PUSH     BOV
000719: 13,3313           27340                                    MAXDT
000720: 13,3314           50021                           BDSU     BMN
000721: 13,3315           27407                                    DT/2MAX
000722: 13,3316           27340                                    MAXDT
000723: 13,3317           45345        DT/2COMP           DLOAD    DSU
000724: 13,3320           01115                                    TDEC
000725: 13,3321           01517                                    TET
000726: 13,3322           54234                           RTB      SL
000727: 13,3323           21613                                    SGNAGREE
000728: 13,3324           20211                                    8D
000729: 13,3325           02076                           STORE    DT/2                                  #  B-19
000730: 13,3326           51400                           BOV      ABS
000731: 13,3327           27344                                    GETMAXDT
000732: 13,3330           50025                           DSU      BMN                                   #  IS TIME TO INTEG. TO GR THAN MAXTIME
000733: 13,3331           00015                                    12D
000734: 13,3332           27350                                    P00HCHK
000735: 13,3333           75345        USEMAXDT           DLOAD    SIGN
000736: 13,3334           00015                                    12D
000737: 13,3335           02076                                    DT/2


000739: 13,3336           36076                           STCALL   DT/2
000740: 13,3337           27350                                    P00HCHK
000741: 13,3340           65345        MAXDT              DLOAD    PDDL                                  #  EXCHANGE DT/2MAX WITH COMPUTED MAX.
000742: 13,3341           27407                                    DT/2MAX
000743: 13,3342           77650                           GOTO
000744: 13,3343           27317                                    DT/2COMP
000745: 13,3344           77634        GETMAXDT           RTB
000746: 13,3345           21713                                    SIGNMPAC
000747: 13,3346           36076                           STCALL   DT/2
000748: 13,3347           27333                                    USEMAXDT
000749: 13,3350           51545        P00HCHK            DLOAD    ABS
000750: 13,3351           02076                                    DT/2
000751: 13,3352           50025                           DSU      BMN
000752: 13,3353           27405                                    DT/2MIN
000753: 13,3354           27156                                    A-PCHK
000754: 13,3355           43014                           BOFF     BON                                   #  NO BACKWARDS INTEGRATION
000755: 13,3356           01740                                    POOHFLAG                              #  WHEN IN POO
000756: 13,3357           23311                                    TIMESTEP
000757: 13,3360           01707                                    PRECIFLG
000758: 13,3361           23311                                    TIMESTEP
000759: 13,3362           45345                           DLOAD    DSU
000760: 13,3363           02076                                    DT/2
000761: 13,3364           00015                                    12D
000762: 13,3365           43040                           BMN      BOFCLR
000763: 13,3366           27156                                    A-PCHK
000764: 13,3367           04242                                    NEWIFLG
000765: 13,3370           23311                                    TIMESTEP
000766: 13,3371           45345                           DLOAD    DSU
000767: 13,3372           01115                                    TDEC
000768: 13,3373           01517                                    TET
000769: 13,3374           77640                           BMN                                            #  NO BACKWARD INTEGRATION
000770: 13,3375           27224                                    INTEXIT
000771: 13,3376           40525                           PDDL     SR4
000772: 13,3377           02076                                    DT/2                                  #  IS 4(DT) LS (TDEC - TET)
000773: 13,3400           44322                           SR2R     BDSU                                  #  NO
000774: 13,3401           52040                           BMN      GOTO
000775: 13,3402           27224                                    INTEXIT
000776: 13,3403           23311                                    TIMESTEP
000777: 13,3404           00000 01400  DT/2MIN            2DEC     3          B-20
000778: 13,3406           14152 00000  DT/2MAX            2DEC     4000       E2         B-20
000779:
000780: 13,3410           77776        INTSTALL           EXIT
000781: 13,3411           30106                           CA       RASFLAG
000782: 13,3412           73462                           MASK     INTBITAB                              #  IS THIS STALL AREA FREE
000783: 13,3413           00006                           EXTEND
000784: 13,3414           13454                           BZF      OKTOGRAB                              #  YES
000785: 13,3415           33461                           CAF      WAKESTAL
000786: 13,3416           05133                           TC       JOBSLEEP
000787: 13,3417           77776        INTWAKE0           EXIT


000789: 13,3420           13441                           TCF      INTWAKE1
000790:
000791: 13,3421           40106        INTWAKE            CS       RASFLAG                               #  IS THIS INTSTALLED ROUTINE TO BE
000792: 13,3422           74745                           MASK     REINTBIT                              #        RESTARTED
000793: 13,3423           10000                           CCS      A
000794: 13,3424           03441                           TC       INTWAKE1                              #  NO
000795:
000796: 13,3425           50120                           INDEX    FIXLOC
000797: 13,3426           30052                           CA       QPRET
000798: 13,3427           55054                           TS       TBASE2                                #  YES, DONT RESTART WITH SOMEONE ELSES Q
000799:
000800: 13,3430           05353                           TC       PHASCHNG
000801: 13,3431           04022                           OCT      04022
000802:
000803: 13,3432           31054                           CA       TBASE2
000804: 13,3433           50120                           INDEX    FIXLOC
000805: 13,3434           54052                           TS       QPRET
000806:
000807: 13,3435           34745                           CAF      REINTBIT
000808: 13,3436           70106                           MASK     RASFLAG
000809: 13,3437           00006                           EXTEND
000810: 13,3440           13457                           BZF      GOBAC                                 #  DONT INTWAKE IF WE CAME HERE VIA RESTART
000811:
000812: 13,3441           33461        INTWAKE1           CAF      WAKESTAL
000813: 13,3442           00004                           INHINT
000814: 13,3443           05137                           TC       JOBWAKE
000815: 13,3444           10064                           CCS      LOCCTR
000816: 13,3445           13441                           TCF      INTWAKE1
000817: 13,3446           00051        FORTYONE           DEC      41         B-14
000818: 13,3447           43462                           CS       INTBITAB
000819: 13,3450           70106                           MASK     RASFLAG
000820: 13,3451           54106                           TS       RASFLAG                               #  RELEASE STALL AREA
000821: 13,3452           00003                           RELINT
000822: 13,3453           13457                           TCF      GOBAC
000823: 13,3454           34736        OKTOGRAB           CAF      INTFLBIT
000824: 13,3455           00004                           INHINT
000825: 13,3456           26106                           ADS      RASFLAG
000826: 13,3457           06042        GOBAC              TC       INTPRET
000827: 13,3460           77616                           RVQ
000828: 13,3461           27411        WAKESTAL           CADR     INTSTALL   +1
000829: 13,3462           20100        INTBITAB           OCT      20100
000830:


000832:                                                                                                  #  AVETOMID
000833:
000834:                                                                                                  #  THIS ROUTINE PERFORMS THE TRANSITION FROM A THRUSTING PHASE TO THE COAST
000835:                                                                                                  #  PHASE BY INITIALIZING THIS VEHICLES PERMANENT STATE VECTOR WITH THE
000836:                                                                                                  #  VALUES LEFT BY THE AVERAGEG ROUTINE IN RN,VN,PIPTIME.
000837:
000838:                                                                                                  #  BEFORE THIS IS DONE THE W-MATRIX, IF ITS VALID (OR WFLAG OR RENDWFLG IS
000839:                                                                                                  #  SET) IS INTEGRATED FORWARD TO PIPTIME WITH THE PRE-THRUST STATE VECTOR.
000840:
000841:                                                                                                  #  IN ADDITION, THE OTHER VEHICLE IS INTEGRATED (PERMANENT) TO PIPTIME.
000842:
000843:                                                                                                  #  FINALLY TRKMKCNT IS ZEROED
000844:
000845: 13,2000                                           SETLOC   INTINIT
000846: 13,2000                                           BANK
000847:
000848: 13,3463                                           COUNT*   $$/INTIN
000849: 13,3463           43020        AVETOMID           STQ      BON
000850: 13,3464           02772                                    EGRESS
000851: 13,3465           02716                                    RENDWFLG
000852: 13,3466           27532                                    INT/W                                 #  W-MATRIX VALID, GO INTEGRATE IT
000853: 13,3467           77614                           BON
000854: 13,3470           01711                                    ORBWFLAG
000855: 13,3471           27532                                    INT/W                                 #  W-MATRIX VALID, GO INTEGRATE IT
000856:
000857: 13,3472           45145        OTHERS             DLOAD    CALL                                  #  GET SET FOR OTHER VEHICLE INTEGRATION
000858: 13,3473           01234                                    PIPTIME                               #  DESIRED TIME
000859: 13,3474           27410                                    INTSTALL
000860: 13,3475           45014                           SET      CALL
000861: 13,3476           01474                                    VINTFLAG                              #  CM
000862: 13,3477           26643                                    SETIFLGS                              #  SETS UP NONE W-MAT. PERMANENT INTEG.
000863: 13,3500           34041                           STCALL   TDEC1
000864: 13,3501           27133                                    INTEGRV
000865:
000866: 13,3502           45174                           AXT,2    CALL                                  #  NOW MOVE PROPERLY SCALE RN,UN AS WELL AS
000867: 13,3503           00002                                    2                                     #  PIPTIME TO INTEGRATION ERASABLES.
000868: 13,3504           27410                                    INTSTALL
000869: 13,3505           77014                           BON      AXT,2
000870: 13,3506           04304                                    MOONTHIS
000871: 13,3507           27511                                    +2
000872: 13,3510           00000                                    0
000873: 13,3511           53775                           VLOAD    VSR*
000874: 13,3512           01220                                    RN
000875: 13,3513           57176                                    0,2
000876: 13,3514           01503                           STORE    RRECT
000877: 13,3515           15535                           STODL    RCV
000878: 13,3516           01234                                    PIPTIME
000879: 13,3517           25517                           STOVL    TET
000880: 13,3520           01226                                    VN


000882: 13,3521           45057                           VSR*     CALL
000883: 13,3522           57176                                    0,2
000884: 13,3523           27705                                    MINIRECT                              #  FINISH SETTING UP STATE VECTOR
000885: 13,3524           66234                           RTB      SSP
000886: 13,3525           26746                                    MOVATHIS                              #  PUT TEMP STATE VECTOR INTO PERMANENT
000887: 13,3526           03463                                    TRKMKCNT
000888: 13,3527           00000                                    0
000889: 13,3530           77650                           GOTO
000890: 13,3531           47230                                    FAZAB5
000891:
000892: 13,3532           45145        INT/W              DLOAD    CALL
000893: 13,3533           01234                                    PIPTIME                               #  INTEGRATE W THRU BURN
000894: 13,3534           27410                                    INTSTALL
000895: 13,3535           43014                           SET      SET
000896: 13,3536           01476                                    DIM0FLAG                              #  DO W-MATRIX
000897: 13,3537           04476                                    AVEMIDSW                              #  SO WONT CLOBBER RN,VN,PIPTIME
000898: 13,3540           43014                           SET      CLEAR
000899: 13,3541           01475                                    D6OR9FLG                              #  9X9 FOR LM
000900: 13,3542           01674                                    VINTFLAG                              #  LM
000901: 13,3543           34041                           STCALL   TDEC1
000902: 13,3544           27133                                    INTEGRV
000903: 13,3545           77650                           GOTO
000904: 13,3546           27472                                    OTHERS                                #  NOW GO DO THE OTHER VEHICLE
000905:


000907:                                                                                                  #  MIDTOAV1
000908:
000909:                                                                                                  #  THIS ROUTINE INTEGRATES (PRECISION) TO THE TIME SPECIFIED IN TDEC1.
000910:                                                                                                  #  IF, AT THE END OF AN INTEGRATION TIME STEP, CURRENT TIME PLUS A DELTA
000911:                                                                                                  #  TIME (SEE TIMEDELT.....BASED ON THE COMPUTATUON TIME FOR ONE TIME STEP)
000912:                                                                                                  #  IS GREATER THAN THE DESIRED TIME, ALARM 1703 IS SET AND THE INTEGRATION
000913:                                                                                                  #  IS DONE TO THE CURRENT TIME.
000914:                                                                                                  #  RETURN IS IN BASIC TO THE RETURN ADDRESS PLUS ONE.
000915:
000916:                                                                                                  #  IF THE INTEGRATION IS FINISHED TO THE DESIRED TIME, RETURN IS IN BASIC
000917:                                                                                                  #  TO THE RETURN ADDRESS
000918:
000919:                                                                                                  #  IN EITHER CASE , BEFORE RETURNING, THE EXTRAPOLATED STATE VECTOR IS TRAN
000920:                                                                                                  #  FERRED FROM R,VATT TO R,VN1-PIPTIME1 IS SET TO THE FINISHING INTEGRA-
000921:                                                                                                  #  TION TIME AND MPAC IS SET TO THE DELTA TIME---
000922:                                                                                                  #                        TAT MINUS CURRENT TIME.
000923:
000924:                                                                                                  #  MIDTOAV2
000925:
000926:                                                                                                  #  THIS ROUTINE INTEGRATES THIS VEHICLES STATE VECTOR TO THE CURRENT TIME.
000927:                                                                                                  #  NO INPUTS ARE REQUIRED OF THE CALLER.  RETURN IS IN BASIC TO THE RETURN
000928:                                                                                                  #  ADDRESS WITH THE ABOVE TRANSFERS TO R,VN1-PIPTIME1-AND MPAC DONE
000929:
000930: 13,3547  E7,1744                                  EBANK=   IRETURN1
000931: 13,3547           43020        MIDTOAV2           STQ      CLRGO                                 #  INTEGRATE TO PRESENT TIME PLUS TIMEDELT
000932: 13,3550           03744                                    IRETURN1
000933: 13,3551           04634                                    MID1FLAG
000934: 13,3552           27566                                    ENTMID2
000935:
000936: 13,3553           43020        MIDTOAV1           STQ      SET                                   #  INTEGRATE TO TDEC1
000937: 13,3554           03744                                    IRETURN1
000938: 13,3555           04474                                    MID1FLAG
000939: 13,3556           43234                           RTB      DAD                                   #  INITIAL CHECK, IS TDEC1 IN THE FUTURE
000940: 13,3557           21574                                    LOADTIME
000941: 13,3560           27670                                    TIMEDELT
000942: 13,3561           51021                           BDSU     BPL
000943: 13,3562           00041                                    TDEC1
000944: 13,3563           27572                                    ENTMID1                               #  Y5S
000945: 13,3564           77624                           CALL
000946: 13,3565           27656                                    NOTIME                                #  NO, SET ALARM, SWITCH TO MIDTOAV2
000947:
000948: 13,3566           43234        ENTMID2            RTB      DAD
000949: 13,3567           21574                                    LOADTIME
000950: 13,3570           27670                                    TIMEDELT
000951: 13,3571           00041                           STORE    TDEC1
000952:
000953: 13,3572           77624        ENTMID1            CALL
000954: 13,3573           27410                                    INTSTALL
000955: 13,3574           45014                           CLEAR    CALL


000957: 13,3575           01676                                    DIM0FLAG                              #  NO W-MATRIX
000958: 13,3576           26066                                    THISVINT
000959: 13,3577           43014                           CLEAR    SET
000960: 13,3600           01673                                    INTYPFLG
000961: 13,3601           04475                                    MIDAVFLG                              #  LET INTEG. KNOW THE CALL IS FOR MIDTOAV.
000962: 13,3602           77624                           CALL
000963: 13,3603           27133                                    INTEGRV                               #  GO INTEGRATE
000964: 13,3604           77214                           CLEAR    VLOAD
000965: 13,3605           04675                                    MIDAVFLG
000966: 13,3606           00001                                    RATT
000967: 13,3607           27545                           STOVL    RN1
000968: 13,3610           00007                                    VATT
000969: 13,3611           17553                           STODL    VN1
000970: 13,3612           00015                                    TAT
000971: 13,3613           03561                           STORE    PIPTIME1
000972: 13,3614           66134                           SXA,2    SXA,1
000973: 13,3615           02777                                    RTX2
000974: 13,3616           02776                                    RTX1
000975: 13,3617           77776                           EXIT
000976:
000977: 13,3620           00004                           INHINT
000978: 13,3621           00006                           EXTEND
000979: 13,3622           40025                           DCS      TIME2
000980: 13,3623           20155                           DAS      MPAC
000981: 13,3624           07262                           TC       TPAGREE
000982:
000983: 13,3625           31744                           CA       IRETURN1
000984: 13,3626           04640                           TC       BANKJUMP
000985: 13,3627           47014        CKMID2             BOF      RTB
000986: 13,3630           04754                                    MID1FLAG
000987: 13,3631           27646                                    MID2
000988: 13,3632           21574                                    LOADTIME
000989: 13,3633           44215                           DAD      BDSU
000990: 13,3634           27670                                    TIMEDELT
000991: 13,3635           01115                                    TDEC
000992: 13,3636           45044                           BPL      CALL
000993: 13,3637           27256                                    TESTLOOP                              #  YES
000994: 13,3640           27656                                    NOTIME
000995:
000996: 13,3641           43234        TIMEINC            RTB      DAD
000997: 13,3642           21574                                    LOADTIME
000998: 13,3643           27670                                    TIMEDELT
000999: 13,3644           35115                           STCALL   TDEC
001000: 13,3645           27256                                    TESTLOOP
001001:
001002: 13,3646           45345        MID2               DLOAD    DSU
001003: 13,3647           01115                                    TDEC
001004: 13,3650           01517                                    TET
001005: 13,3651           45246                           ABS      DSU
001006: 13,3652           27666                                    3CSECS
001007:


001009: 13,3653           52040                           BMN      GOTO
001010: 13,3654           27156                                    A-PCHK
001011: 13,3655           27641                                    TIMEINC
001012:
001013: 13,3656           77414        NOTIME             CLEAR    EXIT                                  #  TOO LATE
001014: 13,3657           04674                                    MID1FLAG
001015: 13,3660           25744                           INCR     IRETURN1                              #  SET ERROR EXIT (CALLOC +2)
001016: 13,3661           05567                           TC       ALARM                                 #  INSUFFICIENT TIME FOR INTEGRATION --
001017: 13,3662           01703                           OCT      1703                                  #        TIG WILL BE SLIPPED...
001018: 13,3663           06042                           TC       INTPRET
001019: 13,3664           77616                           RVQ
001020:
001021: 13,3665           00000 00003  3CSECS             2DEC     3          B-28
001022: 13,3667           00000 03720  TIMEDELT           2DEC     2000       B-28
001023:
001024: 27,3361                                           BANK     27
001025: 04,2000                                           SETLOC   UPDATE2
001026: 04,2000                                           BANK
001027: 04,3131     1166                                  EBANK=   INTWAKUQ
001028:
001029: 04,3131                                           COUNT*   $$/INTIN
001030:
001031: 04,3131     1166               INTWAKUQ           =        INTWAK1Q                              #  TEMPORARY UNTIL NAME OF INTWAK1Q IS CHNG
001032:
001033: 04,3131           00003        INTWAKEU           RELINT
001034: 04,3132           00006                           EXTEND
001035: 04,3133           23166                           QXCH     INTWAKUQ                              #  SAVE Q FOR RETURN
001036:
001037: 04,3134           06042                           TC       INTPRET
001038:
001039: 04,3135           53135                           SLOAD    BZE                                   #  IS THIS A CSM/LEM STATE VECTOR UPDATE
001040: 04,3136           01502                                    UPSVFLAG                              #  REQUEST.  IF NOT GO TO INTWAKUP.
001041: 04,3137           11176                                    INTWAKUP
001042:
001043: 04,3140           77775                           VLOAD                                          #  MOVE RRECT(6) AND VRECT(6) INTO
001044: 04,3141           01503                                    RRECT                                 #        RCV(6) AND VCV(6) RESPECTIVELY.
001045: 04,3142           25535                           STOVL    RCV
001046: 04,3143           01511                                    VRECT                                 #  NOW GO TO 'RECTIFY +13D' TO
001047: 04,3144           77624                           CALL                                           #  STORE VRECT INTO VCV AND ZERO OUT
001048: 04,3145           27706                                    RECTIFY    +13D                       #  TDELTAV(6),TNUV(6),TC(2) AND XKEP(2)
001049: 04,3146           51535                           SLOAD    ABS                                   #  COMPARE ABSOLUTE VALUE OF 'UPSVFLAG'
001050: 04,3147           01502                                    UPSVFLAG                              #  TO 'UPDATE MOON STATE VECTOR CODE'
001051: 04,3150           53025                           DSU      BZE                                   #  TO DETERMINE WHETHER THE STATE VECTOR TO
001052: 04,3151           11207                                    UPMNSVCD                              #  BE UPDATED IS IN THE EARTH OR LUNAR
001053: 04,3152           11157                                    INTWAKEM                              #  SPHERE OF INFLUENCE.........
001054: 04,3153           43174                           AXT,2    CLRGO                                 #  EARTH SPHERE OF INFLUENCE.
001055: 04,3154           00000                           DEC      0          B-14
001056: 04,3155           00223                                    MOONFLAG


001058: 04,3156           11162                                    INTWAKEC
001059: 04,3157           43174        INTWAKEM           AXT,2    SET                                   #  LUNAR SPHERE OF INFLUENCE.
001060: 04,3160           00002                           DEC      2          B-14
001061: 04,3161           00063                                    MOONFLAG
001062: 04,3162           50135        INTWAKEC           SLOAD    BMN                                   #  COMMON CODING AFTER X2 INITIALIZED AND
001063:                                                                                                  #  MOONFLAG SET (OR CLEARED).
001064: 04,3163           01502                                    UPSVFLAG                              #  IS THIS A REQUEST FOR A LEM OR CSM
001065: 04,3164           11172                                    INTWAKLM                              #        STATE VECTOR UPDATE......
001066: 04,3165           77624                           CALL                                           #  UPDATE CSM STATE VECTOR
001067: 04,3166           26660                                    ATOPCSM
001068:
001069: 04,3167           52014                           CLEAR    GOTO
001070: 04,3170           01671                                    ORBWFLAG
001071: 04,3171           11174                                    INTWAKEX
001072:
001073: 04,3172           77624        INTWAKLM           CALL                                           #  UPDATE LM STATE VECTOR
001074: 04,3173           26733                                    ATOPLEM
001075:
001076: 04,3174           77614        INTWAKEX           CLEAR
001077: 04,3175           02676                                    RENDWFLG
001078:
001079: 04,3176           45131        INTWAKUP           SSP      CALL                                  #  REMOVE :UPDATE STATE VECTOR INDICATOR:
001080: 04,3177           01502                                    UPSVFLAG
001081: 04,3200           00000                                    0
001082: 04,3201           27417                                    INTWAKE0                              #  RELEASE :GRAB: OF ORBIT INTEG
001083: 04,3202           77776                           EXIT
001084:
001085: 04,3203           05353                           TC       PHASCHNG
001086: 04,3204           04026                           OCT      04026
001087: 04,3205           01166                           TC       INTWAKUQ
001088:
001089: 04,3206           00002        UPMNSVCD           OCT      2
001090: 04,3207           00000                           OCT      0
001091:
001092: 04,3210           77420        GRP2PC             STQ      EXIT
001093: 04,3211           02711                                    GRP2SVQ
001094: 04,3212           05353                           TC       PHASCHNG
001095: 04,3213           04022                           OCT      04022
001096: 04,3214           06042                           TC       INTPRET
001097: 04,3215           77650                           GOTO
001098: 04,3216           02711                                    GRP2SVQ
001099:

End of include-file INTEGRATION_INITIALIZATION.agc.  Parent file is MAIN.agc


