
Source Code
000001:                                                                                                 #  Copyright:     Public domain.
000002:                                                                                                 #  Filename:      INTERRUT_LEAD_INS.agc
000003:                                                                                                 #  Purpose:       This is the interrupt table for Luminary 1C, revision 131.
000004:                                                                                                 #                 It is part of the source code for the Lunar Module's (LM)
000005:                                                                                                 #                 Apollo Guidance Computer (AGC) for Apollo 13 and Apollo 14.
000006:                                                                                                 #                 This file is intended to be a faithful transcription, except
000007:                                                                                                 #                 that the code format has been changed to conform to the
000008:                                                                                                 #                 requirements of the yaYUL assembler rather than the
000009:                                                                                                 #                 original YUL assembler.
000010:                                                                                                 #  Reference:     pp. 160-161 of 1729.pdf.
000011:                                                                                                 #  Contact:       Ron Burkey <info@sandroid.org>.
000012:                                                                                                 #  Website:       www.ibiblio.org/apollo/index.html
000013:                                                                                                 #  Mod history:   04/11/03 RSB.   Began transcribing.
000014:                                                                                                 #                 05/14/05 RSB    Corrected website reference above.
000015:
000016:                                                                                                 #  Page 160
000017:    4000                                          SETLOC   4000
000018:
000019:    4000                                          COUNT*   $$/RUPTS                              #  FIX-FIX LEAD INS
000020:    4000           00004                          INHINT                                         #  GO
000021:    4001           34054                          CAF      GOBB
000022:    4002           56006                          XCH      BBANK
000023:    4003           12665                          TCF      GOPROG
000024:
000025:    4004           52011                          DXCH     ARUPT                                 #  T6RUPT
000026:    4005           00006                          EXTEND
000027:    4006           34056                          DCA      T6ADR
000028:    4007           52006                          DTCB
000029:
000030:    4010           52011                          DXCH     ARUPT                                 #  T5RUPT -- AUTOPILOT
000031:    4011           00006                          EXTEND
000032:    4012           31264                          DCA      T5ADR
000033:    4013           52006                          DTCB
000034:
000035:    4014           52011                          DXCH     ARUPT                                 #  T3RUPT
000036:    4015           34057                          CAF      T3RPTBB
000037:    4016           56006                          XCH      BBANK
000038:    4017           13410                          TCF      T3RUPT
000039:
000040:    4020           52011                          DXCH     ARUPT                                 #  T4RUPT
000041:    4021           34064                          CAF      T4RPTBB
000042:    4022           56006                          XCH      BBANK
000043:    4023           12000                          TCF      T4RUPT
000044:
000045:    4024           52011                          DXCH     ARUPT                                 #  KEYRUPT1
000046:    4025           34060                          CAF      KEYRPTBB
000047:    4026           56006                          XCH      BBANK
000048:    4027           13253                          TCF      KEYRUPT1
000049:
000050:    4030           52011                          DXCH     ARUPT                                 #  KEYRUPT2
000051:    4031           34061                          CAF      MKRUPTBB
000052:    4032           56006                          XCH      BBANK
000053:    4033           12332                          TCF      MARKRUPT
000054:
000055:    4034           52011                          DXCH     ARUPT                                 #  UPRUPT
000056:    4035           34060                          CAF      UPRPTBB
000057:    4036           56006                          XCH      BBANK
000058:    4037           13276                          TCF      UPRUPT
000059:
000060:    4040           52011                          DXCH     ARUPT                                 #  DOWNRUPT
000061:    4041           34062                          CAF      DWNRPTBB
000062:    4042           56006                          XCH      BBANK
000063:    4043           13505                          TCF      DODOWNTM
000064:
000065:    4044           52011                          DXCH     ARUPT                                 #  RADAR RUPT
000066:    4045           34063                          CAF      RDRPTBB
000067:                                                                                                 #  Page 161
000068:    4046           56006                          XCH      BBANK
000069:    4047           13157                          TCF      RADAREAD
000070:
000071:    4050           52011                          DXCH     ARUPT                                 #  RUPT10 IS USED ONLY BY LANDING GUIDANCE
000072:    4051           34065                          CA       RUPT10BB
000073:    4052           56006                          XCH      BBANK
000074:    4053           12302                          TCF      PITFALL
000075:
000076:    4054  E3,1400                                 EBANK=   LST1                                  #  RESTART USES E0,E3
000077:    4054           12103        GOBB              BBCON    GOPROG
000078:
000079:    4055  E6,1464                                 EBANK=   PERROR
000080:    4055           02117 36106  T6ADR             2CADR    DOT6RUPT
000081:
000082:    4057  E3,1400                                 EBANK=   LST1
000083:    4057           02103        T3RPTBB           BBCON    T3RUPT
000084:
000085:    4060     0073                                 EBANK=   KEYTEMP1
000086:    4060           10100        KEYRPTBB          BBCON    KEYRUPT1
000087:
000088:    4061  E7,1404                                 EBANK=   AOTAZ
000089:    4061           16107        MKRUPTBB          BBCON    MARKRUPT
000090:
000091:    4062     4060               UPRPTBB           =        KEYRPTBB
000092:
000093:    4062     0340                                 EBANK=   DNTMBUFF
000094:    4062           12100        DWNRPTBB          BBCON    DODOWNTM
000095:
000096:    4063  E7,1453                                 EBANK=   TTOGO
000097:    4063           52107        RDRPTBB           BBCON    RADAREAD
000098:
000099:    4064  E6,1414                                 EBANK=   M11
000100:    4064           14106        T4RPTBB           BBCON    T4RUPT
000101:
000102:    4065  E7,1444                                 EBANK=   ELVIRA
000103:    4065           22107        RUPT10BB          BBCON    PITFALL
000104:

End of include-file INTERRUPT_LEAD_INS.agc.  Parent file is MAIN.agc


