
Source Code


000002:                                                                                                  ## Copyright:   Public domain.
000003:                                                                                                  ## Filename:    KALCMANU_STEERING.agc
000004:                                                                                                  ## Purpose:     A section of Luminary 1C, revision 131.
000005:                                                                                                  ##              It is part of the source code for the Lunar Module's (LM)
000006:                                                                                                  ##              Apollo Guidance Computer (AGC) for Apollo 13.
000007:                                                                                                  ##              This file is intended to be a faithful transcription, except
000008:                                                                                                  ##              that the code format has been changed to conform to the
000009:                                                                                                  ##              requirements of the yaYUL assembler rather than the
000010:                                                                                                  ##              original YUL assembler.
000011:                                                                                                  ## Reference:   pp. 367-371
000012:                                                                                                  ## Contact:     Ron Burkey <info@sandroid.org>.
000013:                                                                                                  ## Website:     www.ibiblio.org/apollo/index.html
000014:                                                                                                  ## Mod history: 05/11/03 RSB    Began transcribing.
000015:                                                                                                  ##              05/14/05 RSB    Corrected website reference above.
000016:                                                                                                  ##              2011-05-07 JL   Removed workarounds.
000017:                                                                                                  ##              2017-01-06 RSB  Page numbers now agree with those on the
000018:                                                                                                  ##                              original harcopy, as opposed to the PDF page
000019:                                                                                                  ##                              numbers in 1701.pdf.
000020:                                                                                                  ##              2017-01-28 RSB  WTIH -> WITH.
000021:                                                                                                  ##              2017-02-23 RSB  Proofed comment text using octopus/ProoferComments.
000022:                                                                                                  ##              2017-02-28 RSB  Fixed lingering typos.
000023:                                                                                                  ##              2017-03-17 RSB  Comment-text fixes identified in diff'ing
000024:                                                                                                  ##                              Luminary 99 vs Comanche 55.
000025:


000027:                                                                                                  #  GENERATION OF STEERING COMMANDS FOR DIGITAL AUTOPILOT FREE FALL MANEUVERS
000028:
000029:                                                                                                  #  NEW COMMANDS WILL BE GENERATED EVERY ONE SECOND DURING THE MANEUVER
000030:
000031: 22,3003  E6,1706                                  EBANK=   TTEMP
000032:
000033: 22,3003           04616        NEWDELHI           TC       BANKCALL                              #  CHECK FOR AUTO STABILIZATION
000034: 22,3004           54266                           CADR     ISITAUTO                              #  ONLY
000035: 22,3005           10000                           CCS      A
000036: 22,3006           12730                           TCF      NOGO       -2
000037: 22,3007           06042        NEWANGL            TC       INTPRET
000038: 22,3010           75160                           AXC,1    AXC,2
000039: 22,3011           03245                                    MIS                                   #  COMPUTE THE NEW MATRIX FROM S/C TO
000040: 22,3012           02230                                    KEL                                   #  STABLE MEMBER AXES
000041: 22,3013           77624                           CALL
000042: 22,3014           44312                                    MXM3
000043: 22,3015           45575                           VLOAD    STADR
000044: 22,3016           50515                           STOVL    MIS        +12D                       #  CALCULATE NEW DESIRED CDU ANGLES
000045: 22,3017           77626                           STADR
000046: 22,3020           50523                           STOVL    MIS        +6D
000047: 22,3021           77626                           STADR
000048: 22,3022           74531                           STORE    MIS
000049: 22,3023           45160                           AXC,1    CALL
000050: 22,3024           03245                                    MIS
000051: 22,3025           44654                                    DCMTOCDU                              #  PICK UP THE NEW CDU ANGLES FROM MATRIX
000052: 22,3026           77634                           RTB
000053: 22,3027           21621                                    V1STO2S
000054: 22,3030           03303                           STORE    NCDU                                  #  NEW CDU ANGLES
000055: 22,3031           77414                           BONCLR   EXIT
000056: 22,3032           01215                                    CALCMAN2
000057: 22,3033           45122                                    MANUSTAT                              #  TO START MANEUVER
000058: 22,3034           34752                           CAF      TWO                                   #        +0 OTHERWISE
000059: 22,3035           55261        INCRDCDU           TS       SPNDX
000060: 22,3036           51261                           INDEX    SPNDX
000061: 22,3037           31675                           CA       BCDU                                  #  INITIAL CDU ANGLES
000062: 22,3040           00006                           EXTEND                                         #  OR PREVIOUS DESIRED CDU ANGLES
000063: 22,3041           51261                           INDEX    SPNDX
000064: 22,3042           21702                           MSU      NCDU
000065: 22,3043           00006                           EXTEND
000066: 22,2000                                           SETLOC   KALCMON1
000067: 22,2000                                           BANK
000068:
000069: 22,3044           73121                           MP       DT/TAU
000070: 22,3045           10000                           CCS      A                                     #  CONVERT TO 2S COMPLEMENT
000071: 22,3046           64753                           AD       ONE
000072: 22,3047           13051                           TCF      +2
000073: 22,3050           40000                           COM
000074: 22,3051           51261                           INDEX    SPNDX
000075: 22,3052           55637                           TS       DELDCDU                               #  ANGLE INCREMENTS TO BE ADDED TO
000076: 22,3053           51261                           INDEX    SPNDX                                 #  CDUXD, CDUYD, CDUZD EVERY TENTH SECOND


000078: 22,3054           31702                           CA       NCDU                                  #  BY LEM DAP
000079: 22,3055           51261                           INDEX    SPNDX
000080: 22,3056           57675                           XCH      BCDU
000081: 22,3057           51261                           INDEX    SPNDX
000082: 22,3060           55634                           TS       CDUXD
000083: 22,3061           11261                           CCS      SPNDX
000084: 22,3062           13035                           TCF      INCRDCDU                              #  LOOP FOR THREE AXES
000085:
000086: 22,3063           00003                           RELINT
000087:
000088:                                                                                                  #  COMPARE PRESENT TIME WITH TIME TO TERMINATE MANEUVER
000089:
000090: 22,3064           03075        TMANUCHK           TC       TIMECHK
000091: 22,3065           13170                           TCF      CONTMANU
000092: 22,3066           34753                           CAF      ONE
000093: 22,3067           00004        MANUSTAL           INHINT                                         #  END MAJOR PART OF MANEUVER WITHIN 1 SEC
000094: 22,3070           05203                           TC       WAITLIST                              #  UNDER WAITLIST CALL TO MANUSTOP
000095: 22,3071  E6,1706                                  EBANK=   TTEMP
000096: 22,3071           03213 44066                     2CADR    MANUSTOP
000097:
000098: 22,3073           00003                           RELINT
000099: 22,3074           15155                           TCF      ENDOFJOB
000100:
000101: 22,3075           00006        TIMECHK            EXTEND
000102: 22,3076           40025                           DCS      TIME2
000103: 22,3077           53707                           DXCH     TTEMP
000104: 22,3100           00006                           EXTEND
000105: 22,3101           31733                           DCA      TM
000106: 22,3102           21707                           DAS      TTEMP
000107: 22,3103           11706                           CCS      TTEMP
000108: 22,3104           00002                           TC       Q
000109: 22,3105           13107                           TCF      +2
000110: 22,3106           13117                           TCF      2NDRETRN
000111: 22,3107           11707                           CCS      TTEMP      +1
000112: 22,3110           00002                           TC       Q
000113: 22,3111           13113                           TCF      MANUOFF
000114: 22,3112           40000                           COM
000115: 22,3113           63166        MANUOFF            AD       ONESEK     +1
000116: 22,3114           00006                           EXTEND
000117: 22,3115           63117                           BZMF     2NDRETRN
000118: 22,3116           24002                           INCR     Q
000119: 22,3117           24002        2NDRETRN           INCR     Q
000120: 22,3120           00002                           TC       Q
000121:
000122: 22,3121           03146        DT/TAU             DEC      .1
000123:
000124: 22,3122           77776        MANUSTAT           EXIT                                           #  INITIALIZATION ROUTINE
000125: 22,3123           00006                           EXTEND                                         #  FOR AUTOMATIC MANEUVERS
000126: 22,3124           30025                           DCA      TIME2


000128: 22,3125           21733                           DAS      TM                                    #  TM+T0         MANEUVER COMPLETION TIME
000129: 22,3126           00006                           EXTEND
000130: 22,3127           43166                           DCS      ONESEK
000131: 22,3130           21733                           DAS      TM                                    #  (TM+T0)-1
000132: 22,3131           00004                           INHINT
000133: 22,3132           34752                           CAF      TWO
000134: 22,3133           55700        RATEBIAS           TS       KSPNDX
000135: 22,3134           60000                           DOUBLE
000136: 22,3135           55701                           TS       KDPNDX
000137: 22,3136           50000                           INDEX    A
000138: 22,3137           31724                           CA       BRATE
000139: 22,3140           51700                           INDEX    KSPNDX                                #  STORE MANEUVER RATE IN
000140: 22,3141           55642                           TS       OMEGAPD                               #  OMEGAPD, OMEGAQD, OMEGARD
000141: 22,3142           00006                           EXTEND
000142: 22,3143           63145                           BZMF     +2                                    #  COMPUTE ATTITUDE ERROR
000143: 22,3144           40000                           COM                                            #  OFFSET = (WX)ABS(WX)/2AJX
000144: 22,3145           00006                           EXTEND                                         #  WHERE AJX= 2-JET ACCELERATION
000145: 22,3146           73167                           MP       BIASCALE                              #  = -1/16
000146: 22,3147           00006                           EXTEND
000147: 22,3150           51701                           INDEX    KDPNDX
000148: 22,3151           71724                           MP       BRATE
000149: 22,3152           00006                           EXTEND
000150: 22,3153           51700                           INDEX    KSPNDX
000151: 22,3154           11530                           DV       1JACC                                 #  = AJX  $ 90 DEG/SEC-SEC
000152: 22,3155           51700                           INDEX    KSPNDX
000153: 22,3156           55274                           TS       DELPEROR                              #       $ 180 DEG
000154: 22,3157           11700                           CCS      KSPNDX
000155: 22,3160           13133                           TCF      RATEBIAS
000156:
000157: 22,3161           30025                           CA       TIME1
000158: 22,3162           63166                           AD       ONESEK     +1
000159: 22,3163           57705                           XCH      NEXTIME
000160: 22,3164           13034                           TCF      INCRDCDU   -1
000161:
000162: 22,3165           00000        ONESEK             DEC      0          B-14
000163: 22,3166           00144                           DEC      100        B-14
000164:
000165: 22,3167           75777        BIASCALE           OCT      75777                                 #  = -1/16
000166:
000167: 22,3170           40025        CONTMANU           CS       TIME1                                 #  RESET FOR NEXT DCDU UPDATE
000168: 22,3171           61705                           AD       NEXTIME
000169: 22,3172           10000                           CCS      A
000170: 22,3173           64753                           AD       ONE
000171: 22,3174           13177                           TCF      MANUCALL
000172: 22,3175           64735                           AD       NEGMAX
000173: 22,3176           40000                           COM
000174: 22,3177           00004        MANUCALL           INHINT                                         #  CALL FOR NEXT UPDATE VIA WAITLIST
000175: 22,3200           05203                           TC       WAITLIST
000176: 22,3201  E6,1706                                  EBANK=   TTEMP
000177: 22,3201           03206 44066                     2CADR    UPDTCALL


000179: 22,3203           33166                           CAF      ONESEK     +1                         #  INCREMENT TIME FOR NEXT UPDATE
000180: 22,3204           27705                           ADS      NEXTIME
000181: 22,3205           15155                           TCF      ENDOFJOB
000182:
000183: 22,3206           37717        UPDTCALL           CAF      PRIO26                                #  SATELLITE PROGRAM TO CALL FOR UPDATE
000184: 22,3207           05105                           TC       FINDVAC                               #  OF STEERING COMMANDS
000185: 22,3210  E6,1706                                  EBANK=   TTEMP
000186: 22,3210           03003 44066                     2CADR    NEWDELHI
000187:
000188: 22,3212           05261                           TC       TASKOVER
000189:


000191:                                                                                                  #  ROUTINE FOR TERMINATING AUTOMATIC MANEUVERS
000192:
000193: 22,3213           34755        MANUSTOP           CAF      ZERO                                  #  ZERO MANEUVER RATES
000194: 22,3214           55641                           TS       DELDCDU2
000195: 22,3215           55644                           TS       OMEGARD
000196: 22,3216           55276                           TS       DELREROR
000197: 22,3217           55640                           TS       DELDCDU1
000198: 22,3220           55643                           TS       OMEGAQD
000199: 22,3221           55275                           TS       DELQEROR
000200: 22,3222           30323                           CA       CPSI                                  #  SET DESIRED GIMBAL ANGLES TO
000201: 22,3223           55636                           TS       CDUZD                                 #  DESIRED FINAL GIMBAL ANGLES
000202: 22,3224           30322                           CA       CTHETA
000203: 22,3225           55635                           TS       CDUYD
000204: 22,3226           30321        ENDROLL            CA       CPHI                                  #  NO FINAL YAW
000205: 22,3227           55634                           TS       CDUXD
000206: 22,3230           34755                           CAF      ZERO
000207: 22,3231           55642                           TS       OMEGAPD                               #  I.E. MANEUVER DID NOT GO THRU
000208: 22,3232           55637                           TS       DELDCDU                               #  GIMBAL LOCK ORIGINALLY
000209: 22,3233           55274                           TS       DELPEROR
000210: 22,3234           31306        GOODMANU           CA       ATTPRIO                               #  RESTORE USERS PRIO
000211: 22,3235           54063                           TS       NEWPRIO
000212:
000213: 22,3236           34755                           CA       ZERO                                  #  ZERO ATTCADR
000214: 22,3237           53305                           DXCH     ATTCADR
000215:
000216: 22,3240           05116                           TC       SPVAC                                 #  RETURN TO USER
000217:
000218: 22,3241           05261                           TC       TASKOVER
000219:
000220:

End of include-file KALCMANU_STEERING.agc.  Parent file is MAIN.agc


