
Source Code


000002:                                                                                                  #  Copyright:    Public domain.
000003:                                                                                                  #  Filename:     KALMAN_FILTER.agc
000004:                                                                                                  #  Purpose:      A section of Luminary 1C, revision 131.
000005:                                                                                                  #                It is part of the source code for the Lunar Module's (LM)
000006:                                                                                                  #                Apollo Guidance Computer (AGC) for Apollo 13 and Apollo 14.
000007:                                                                                                  #                This file is intended to be a faithful transcription, except
000008:                                                                                                  #                that the code format has been changed to conform to the
000009:                                                                                                  #                requirements of the yaYUL assembler rather than the
000010:                                                                                                  #                original YUL assembler.
000011:                                                                                                  #  Reference:    pp. 1467-1468 of 1729.pdf.
000012:                                                                                                  #  Contact:      Ron Burkey <info@sandroid.org>.
000013:                                                                                                  #  Website:      www.ibiblio.org/apollo/index.html
000014:                                                                                                  #  Mod history:  06/08/03 RSB.   Began transcribing.
000015:                                                                                                  #                05/14/05 RSB    Corrected website reference above
000016:
000017:                                                                                                  #  Page 1467
000018: ???????  E6,1522                                  EBANK=   NO.UJETS
000019: 16,3645                                           BANK     16
000020: 16,2000                                           SETLOC   DAPS1
000021: 16,2000                                           BANK
000022:
000023: 16,3645                                           COUNT*   $$/DAP
000024:
000025: 16,3645           34752        RATELOOP           CA       TWO
000026: 16,3646           55743                           TS       DAPTEMP6
000027: 16,3647           60000                           DOUBLE
000028: 16,3650           54002                           TS       Q
000029: 16,3651           51743                           INDEX    DAPTEMP6
000030: 16,3652           11524                           CCS      TJP
000031: 16,3653           13655                           TCF      +2
000032: 16,3654           13674                           TCF      LOOPRATE
000033: 16,3655           63735                           AD       -100MST6
000034: 16,3656           00006                           EXTEND
000035: 16,3657           63713                           BZMF     SMALLTJU
000036: 16,3660           51743                           INDEX    DAPTEMP6
000037: 16,3661           11524                           CCS      TJP
000038: 16,3662           33735                           CA       -100MST6
000039: 16,3663           13665                           TCF      +2
000040: 16,3664           43735                           CS       -100MST6
000041: 16,3665           51743                           INDEX    DAPTEMP6
000042: 16,3666           27524                           ADS      TJP
000043: 16,3667           51743                           INDEX    DAPTEMP6
000044: 16,3670           11524                           CCS      TJP
000045: 16,3671           43621                           CS       -100MS                                #  0.1 AT 1
000046: 16,3672           13674                           TCF      +2
000047: 16,3673           33621                           CA       -100MS
000048: 16,3674           00006        LOOPRATE           EXTEND
000049: 16,3675           51743                           INDEX    DAPTEMP6
000050: 16,3676           71521                           MP       NO.PJETS
000051: 16,3677           30001                           CA       L
000052: 16,3700           51743                           INDEX    DAPTEMP6
000053: 16,3701           55736                           TS       DAPTEMP1                              #  SIGNED TORQUE AT 1 JET-SEC FOR FILTER
000054: 16,3702           00006                           EXTEND
000055: 16,3703           74742                           MP       BIT10                                 #  RESCALE TO 32; ONE BIT ABOUT 2 JET-MSEC
000056: 16,3704           00006                           EXTEND
000057: 16,3705           63736                           BZMF     NEGTORK
000058: 16,3706           50002        STORTORK           INDEX    Q                                     #  INCREMENT DOWNLIST REGISTER.
000059: 16,3707           27513                           ADS      DOWNTORK                              #        NOTE:  NOT INITIALIZED; OVERFLOWS.
000060:
000061: 16,3710           11743                           CCS      DAPTEMP6
000062: 16,3711           13646                           TCF      RATELOOP   +1
000063: 16,3712           13722                           TCF      ROTORQUE
000064: 16,3713           34755        SMALLTJU           CA       ZERO
000065: 16,3714           51743                           INDEX    DAPTEMP6
000066: 16,3715           57524                           XCH      TJP
000067: 16,3716           00006                           EXTEND
000068:                                                                                                  #  Page 1468
000069: 16,3717           74760                           MP       ELEVEN                                #  10.24 PLUS
000070: 16,3720           30001                           CA       L
000071: 16,3721           13674                           TCF      LOOPRATE
000072: 16,3722           31737        ROTORQUE           CA       DAPTEMP2
000073: 16,3723           61740                           AD       DAPTEMP3
000074: 16,3724           00006                           EXTEND
000075: 16,3725           71532                           MP       1JACCR
000076: 16,3726           55746                           TS       JETRATER
000077: 16,3727           41740                           CS       DAPTEMP3
000078: 16,3730           61737                           AD       DAPTEMP2
000079: 16,3731           00006                           EXTEND
000080: 16,3732           71531                           MP       1JACCQ
000081: 16,3733           55745                           TS       JETRATEQ
000082: 16,3734           12316                           TCF      BACKP
000083: 16,3735           77537        -100MST6           DEC      -160       B-14
000084:
000085: 16,3736           40000        NEGTORK            COM
000086: 16,3737           24002                           INCR     Q
000087: 16,3740           13706                           TCF      STORTORK
000088:
000089:

End of include-file KALMAN_FILTER.agc.  Parent file is MAIN.agc


