
Source Code


000002:                                                                                                  #  Copyright:    Public domain.
000003:                                                                                                  #  Filename:     LATITUDE_LONGITUDE_SUBROUTINES.agc
000004:                                                                                                  #  Purpose:      A section of Luminary 1C, revision 131.
000005:                                                                                                  #                It is part of the source code for the Lunar Module's (LM)
000006:                                                                                                  #                Apollo Guidance Computer (AGC) for Apollo 13 and Apollo 14.
000007:                                                                                                  #                This file is intended to be a faithful transcription, except
000008:                                                                                                  #                that the code format has been changed to conform to the
000009:                                                                                                  #                requirements of the yaYUL assembler rather than the
000010:                                                                                                  #                original YUL assembler.
000011:                                                                                                  #  Reference:    pp. 1132-1138 of 1729.pdf.
000012:                                                                                                  #  Contact:      Ron Burkey <info@sandroid.org>.
000013:                                                                                                  #  Website:      www.ibiblio.org/apollo/index.html
000014:                                                                                                  #  Mod history:  05/31/03 RSB.   Began transcribing.
000015:                                                                                                  #                05/14/05 RSB    Corrected website reference above.
000016:                                                                                                  #                2011-01-05 JL   Fixed indentation of RVQ instruction.
000017:
000018:                                                                                                  #  Page 1132
000019:                                                                                                  #  SUBROUTINE TO CONVERT RAD VECTOR AT GIVEN TIME TO LAT,LONG AND ALT
000020:
000021:                                                                                                  #  CALLING SEQUENCE
000022:                                                                                                  #        L-1     CALL
000023:                                                                                                  #        L               LAT-LONG
000024:
000025:                                                                                                  #  SUBROUTINES USED
000026:                                                                                                  #        R-TO-RP, ARCTAN, SFTGAMMA, SETRE
000027:
000028:                                                                                                  #  ERASABLE INIT. REQ.
000029:                                                                                                  #        AXO, -AYO, AZO, TEPHEM (SET AT LAUNCH TIME)
000030:                                                                                                  #        ALPHAV = POSITION VECTOR METERS B-29
000031:                                                                                                  #        MPAC -- TIME (CSECS B-28)
000032:                                                                                                  #        ERADFLAG =1, TO COMPUTE EARTH RADIUS, =0 FOR FIXED EARTH RADIUS
000033:                                                                                                  #        LUNAFLAG=0 FOR EARTH, 1 FOR MOON
000034:
000035:                                                                                                  #  OUTPUT
000036:                                                                                                  #        LATITUDE IN LAT         (REVS. B-0)
000037:                                                                                                  #        LONGITUDE IN LONG       (REVS. B-0)
000038:                                                                                                  #        ALTITUDE IN ALT METERS  B-29
000039:
000040: 30,3766                                           BANK     30
000041: 13,2000                                           SETLOC   LATLONG
000042: 13,2000                                           BANK
000043:
000044: 13,2347                                           COUNT*   $$/LT-LG
000045: 13,2347  E4,1431                                  EBANK=   ALPHAV
000046: 13,2347           40220        LAT-LONG           STQ      SETPD
000047: 13,2350           03674                                    INCORPEX
000048: 13,2351           00001                                    0D
000049: 13,2352           24007                           STOVL    6D                                    #  SAVE TIME IN 6-7D FOR R-TO-RP
000050: 13,2353           02032                                    ALPHAV
000051: 13,2354           51406                           PUSH     ABVAL                                 #  0-5D= R FOR R-TO-RP
000052: 13,2355           16070                           STODL    ALPHAM                                #  ABS. VALUE OF R FOR ALT FORMULA BELOW
000053: 13,2356           24007                                    ZEROVEC                               #  SET MPAC=0 FOR EARTH, NON-ZERO FOR MOON
000054: 13,2357           71414                           BOFF     COS                                   #  USE COS(0) TO GET NON-ZERO IN MPAC
000055: 13,2360           01743                                    LUNAFLAG                              #  0=EARTH, 1=MOON
000056: 13,2361           26362                                    CALLRTRP
000057: 13,2362           77624        CALLRTRP           CALL
000058: 13,2363           51700                                    R-TO-RP                               #  RP VECTOR CONVERTED FROM R B-29
000059: 13,2364           77656                           UNIT                                           #  UNIT RP B-1
000060: 13,2365           36032                           STCALL   ALPHAV                                #  U2= 1/2 CINL FOR SETRE SUBR BELOW
000061: 13,2366           26546                                    SETGAMMA                              #        SET GAMMA=B2/A2 FOR EARTH, =1 FOR MOON
000062: 13,2367           77624                           CALL                                           #        SCALED B-1.
000063: 13,2370           26556                                    SETRE                                 #  CALC RE METERS B-29
000064: 13,2371           63545                           DLOAD    DSQ
000065: 13,2372           02032                                    ALPHAV
000066: 13,2373           63525                           PDDL     DSQ
000067: 13,2374           02034                                    ALPHAV     +2
000068: 13,2375           75415                           DAD      SQRT
000069:                                                                                                  #  Page 1133
000070: 13,2376           76405                           DMP      SL1R
000071: 13,2377           00011                                    GAMRP
000072: 13,2400           14021                           STODL    COSTH                                 #  COS(LAT) B-1
000073: 13,2401           02036                                    ALPHAV     +4
000074: 13,2402           34023                           STCALL   SINTH                                 #  SIN(LAT) B-1
000075: 13,2403           26506                                    ARCTAN
000076: 13,2404           15120                           STODL    LAT                                   #  LAT B0
000077: 13,2405           02032                                    ALPHAV
000078: 13,2406           14021                           STODL    COSTH                                 #  COS(LONG) B-1
000079: 13,2407           02034                                    ALPHAV     +2
000080: 13,2410           34023                           STCALL   SINTH                                 #  SIN(LONG) B-1
000081: 13,2411           26506                                    ARCTAN
000082: 13,2412           15122                           STODL    LONG                                  #  LONG. REVS B-0 IN RANGE -1/2 TO 1/2
000083: 13,2413           02070                                    ALPHAM
000084: 13,2414           77625                           DSU                                            #  ALT= R-RE METERS B-29
000085: 13,2415           03673                                    ERADM
000086: 13,2416           35124                           STCALL   ALT                                   #  EXIT WITH ALT METERS B-29
000087: 13,2417           03674                                    INCORPEX
000088:                                                                                                  #  Page 1134
000089:                                                                                                  #  SUBROUTINE TO CONVERT LAT,LONG.ALT AT GIVEN TIME TO RADIUS VECTOR
000090:
000091:                                                                                                  #  CALLING SEQUENCE
000092:                                                                                                  #        L-1     CALL
000093:                                                                                                  #        L               LALOTORV
000094:
000095:                                                                                                  #  SUBROUTINES USED
000096:                                                                                                  #        SETGAMMA, SETRE, RP-TO-R
000097:
000098:                                                                                                  #  ERASABLE INIT. REQ.
000099:                                                                                                  #        AXO, AYO, AZO, TEPHEM SET AT LAUNCH TIME
000100:                                                                                                  #        LAT -- LATITUDE         (REVS B0)
000101:                                                                                                  #        LONG -- LONGITUDE       (REVS B0)
000102:                                                                                                  #        ALT -- ALTITUDE         (METERS) B-29
000103:                                                                                                  #        MPAC -- TIME            (CSECS B-28)
000104:                                                                                                  #        ERADFLAG =1 TO COMPUTE EARTH RADIUS, =0 FOR FIXED EARTH RADIUS
000105:                                                                                                  #        LUNAFLAG=0 FOR EARTH, 1 FOR MOON
000106:
000107:                                                                                                  #  OUTPUT
000108:                                                                                                  #        R-VECTOR IN ALPHAV      (METERS B-29)
000109:
000110: 13,2420           40220        LALOTORV           STQ      SETPD                                 #  LAT,LONG,ALT TO R VECTOR
000111: 13,2421           03674                                    INCORPEX
000112: 13,2422           00001                                    0D
000113: 13,2423           34007                           STCALL   6D                                    #  6-7D= TIME FOR RP-TO-R
000114: 13,2424           26546                                    SETGAMMA                              #  GAMMA=B2/A2 FOR EARTH, 1 FOR MOON B-1
000115: 13,2425           73545                           DLOAD    SIN                                   #            COS(LONG)COS(LAT) IN MPAC
000116: 13,2426           01120                                    LAT                                   #  UNIT RP = SIN(LONG)COS(LAT)    2-3D
000117: 13,2427           65275                           DMPR     PDDL                                  #  PD 2      GAMMA*SIN(LAT)       0-1D
000118: 13,2430           00011                                    GAMRP
000119: 13,2431           01120                                    LAT                                   #      0-1D= GAMMA*SIN(LAT) B-2
000120: 13,2432           65346                           COS      PDDL                                  #  PD4 2-3D= COS(LAT) B-1 TEMPORARILY
000121: 13,2433           01122                                    LONG
000122: 13,2434           57356                           SIN      DMPR                                  #  PD 2
000123: 13,2435           71525                           PDDL     COS                                   #  PD 4 2-3D = SIN(LONG)COS(LAT) B-2
000124: 13,2436           01120                                    LAT
000125: 13,2437           71525                           PDDL     COS                                   #  PD 6 4-5D = COS(LAT) B-1 TEMPORARILY
000126: 13,2440           01122                                    LONG
000127: 13,2441           55475                           DMPR     VDEF                                  #  PD4 MPAC= COS(LONG)COS(LAT) B-2
000128: 13,2442           41456                           UNIT     PUSH                                  #  0-5D= UNIT RP FOR RP-TO-R SUBR.
000129: 13,2443           36032                           STCALL   ALPHAV                                #  ALPHAV +4= SINL FOR SETRE SUBR.
000130: 13,2444           26556                                    SETRE                                 #  RE METERS B-29
000131: 13,2445           43145                           DLOAD    BOFF                                  #  SET MPAC=0 FOR EARTH, NON-ZERO IN MPAC
000132: 13,2446           24007                                    ZEROVEC
000133: 13,2447           01743                                    LUNAFLAG
000134: 13,2450           26452                                    CALLRPRT
000135: 13,2451           77746                           COS                                            #  USE COS(0) TO GET NON-ZERO IN MPAC
000136: 13,2452           77624        CALLRPRT           CALL
000137: 13,2453           55716                                    RP-TO-R                               #  EXIT WITH UNIT R VECTOR IN MPAC
000138: 13,2454           16032                           STODL    ALPHAV
000139: 13,2455           03673                                    ERADM
000140:                                                                                                  #  Page 1135
000141: 13,2456           74215                           DAD      VXSC                                  #  (RE + ALT)(UNIT R) METERS B-30
000142: 13,2457           01124                                    ALT
000143: 13,2460           02032                                    ALPHAV
000144: 13,2461           77772                           VSL1                                           #  R METERS B-29
000145: 13,2462           36032                           STCALL   ALPHAV                                #  EXIT WITH R IN METERS B-29
000146: 13,2463           03674                                    INCORPEX
000147:
000148:                                                                                                  #  SUBROUTINE TO COMPUTE EARTH RADIUS
000149:
000150:                                                                                                  #  INPUT
000151:                                                                                                  #        1/2 SIN LAT IN ALPHAV +4
000152:
000153:                                                                                                  #  OUTPUT
000154:                                                                                                  #        EARTH RADIUS IN ERADM AND MPAC (METERS B-29)
000155:
000156: 13,2464           63545        GETERAD            DLOAD    DSQ
000157: 13,2465           02036                                    ALPHAV     +4                         #  SIN**2(L)
000158: 13,2466           44352                           SL1      BDSU
000159: 13,2467           24005                                    DP1/2                                 #  COS**2(L)
000160: 13,2470           44275                           DMPR     BDSU
000161: 13,2471           26505                                    EE
000162: 13,2472           24005                                    DP1/2
000163: 13,2473           75465                           BDDV     SQRT
000164: 13,2474           26501                                    B2XSC
000165: 13,2475           77622                           SR4R
000166: 13,2476           03673                           STORE    ERADM
000167: 13,2477           77616                           RVQ
000168:
000169:                                                                                                  #  THE FOLLOWING CONSTANTS WERE COMPUTED WITH A=6378166, B=6356784 METERS
000170:                                                                                                  #  B2XSC = B**2 SCALED B-51
000171:                                                                                                  #  B2/A2 = B**2/A**2 SCALED B-1
000172:                                                                                                  #  EE = (1-B**2/A**2) SCALED B-0
000173:
000174: 13,2500           00446 00305  B2XSC              2DEC     .0179450689                            #  B**2 SCALED B-51
000175: 13,2502  12,2004               DP1/2              =        XUNIT
000176: 13,2502           17711 05254  B2/A2              2DEC     .9933064884 B-1                        #  GAMMA= B**2/A**2 B-1
000177: 13,2504           00155 25250  EE                 2DEC     6.6935116  E-3                        #  (1-B**2/A**2) B-0
000178:
000179:                                                                                                  #  Page 1136
000180:                                                                                                  #  ARCTAN SUBROUTINE
000181:
000182:                                                                                                  #  CALLING SEQUENCE
000183:                                                                                                  #        SIN THETA IN SINTH B-1
000184:                                                                                                  #        COS THETA IN COSTH B-1
000185:                                                                                                  #        CALL ARCTAN
000186:
000187:                                                                                                  #  OUTPUT
000188:                                                                                                  #        ARCTAN THETA IN MPAC AND THETA B-0 IN RANGE -1/2 TO +1/2
000189:
000190: 13,2506           77600        ARCTAN             BOV
000191: 13,2507           26510                                    CLROVFLW
000192: 13,2510           63545        CLROVFLW           DLOAD    DSQ
000193: 13,2511           00023                                    SINTH
000194: 13,2512           63525                           PDDL     DSQ
000195: 13,2513           00021                                    COSTH
000196: 13,2514           77615                           DAD
000197: 13,2515           75454                           BZE      SQRT
000198: 13,2516           26534                                    ARCTANXX                              #  ATAN=0/0.  SET THETA=0
000199: 13,2517           40065                           BDDV     BOV
000200: 13,2520           00023                                    SINTH
000201: 13,2521           26541                                    ATAN=90
000202: 13,2522           67542                           SR1      ASIN
000203: 13,2523           00025                           STORE    THETA
000204: 13,2524           50125                           PDDL     BMN
000205: 13,2525           00021                                    COSTH
000206: 13,2526           26530                                    NEGCOS
000207: 13,2527           43545                           DLOAD    RVQ
000208: 13,2530           57545        NEGCOS             DLOAD    DCOMP
000209: 13,2531           43244                           BPL      DAD
000210: 13,2532           26536                                    NEGOUT
000211: 13,2533           24005                                    DP1/2
000212: 13,2534           00025        ARCTANXX           STORE    THETA
000213: 13,2535           77616                           RVQ
000214:
000215: 13,2536           52025        NEGOUT             DSU      GOTO
000216: 13,2537           24005                                    DP1/2
000217: 13,2540           26534                                    ARCTANXX
000218: 13,2541           75345        ATAN=90            DLOAD    SIGN
000219: 13,2542           11003                                    LODP1/4
000220: 13,2543           00023                                    SINTH
000221: 13,2544           00025                           STORE    THETA
000222: 13,2545           77616                           RVQ
000223:
000224: 13,2546  12,2006               2DZERO             =        DPZERO
000225:
000226:                                                                                                  #  Page 1137
000227:                                                                                                  #  ***** SETGAMMA SUBROUTINE *****
000228:                                                                                                  #  SUBROUTINE TO SET GAMMA FOR THE LAT-LONG AND LALOTORV SUBROUTINES
000229:
000230:                                                                                                  #  GAMMA = B**2/A**2 FOR EARTH (B-1)
000231:                                                                                                  #  GAMMA = 1 FOR MOON (B-1)
000232:
000233:                                                                                                  #  CALLING SEQUENCE
000234:                                                                                                  #        L       CALL
000235:                                                                                                  #        L+1             SETGAMMA
000236:
000237:                                                                                                  #  INPUT
000238:                                                                                                  #        LUNAFLAG=0 FOR EARTH, =1 FOR MOON
000239:
000240:                                                                                                  #  OUTPUT
000241:                                                                                                  #        GAMMA IN GAMRP (B-1)
000242:
000243: 13,2546           43145        SETGAMMA           DLOAD    BOFF                                  #  BRANCH FOR EARTH
000244: 13,2547           26503                                    B2/A2                                 #  EARTH GAMMA
000245: 13,2550           01743                                    LUNAFLAG
000246: 13,2551           26554                                    SETGMEX
000247: 13,2552           77735                           SLOAD
000248: 13,2553           24005                                    1B1                                   #  MOON GAMMA
000249: 13,2554           00011        SETGMEX            STORE    GAMRP
000250: 13,2555           77616                           RVQ
000251: 13,2556                        GAMRP              =        8D
000252:
000253:                                                                                                  #  Page 1138
000254:                                                                                                  #  ***** SETRE SUBROUTINE *****
000255:                                                                                                  #  SUBROUTINE TO SET RE (EARTH OR MOON RADIUS)
000256:
000257:                                                                                                  #        RE = RM FOR MOON
000258:                                                                                                  #        RE = RREF FOR FIXED EARTH RADIUS OR COMPUTED RF FOR FISCHER ELLIPSOID
000259:
000260:                                                                                                  #  CALLING SEQUENCE
000261:                                                                                                  #        L       CALL
000262:                                                                                                  #        L+1             SETRE
000263:
000264:                                                                                                  #  SUBROUTINES USED
000265:                                                                                                  #        CETERAD
000266:
000267:                                                                                                  #  INPUT
000268:                                                                                                  #        ERADFLAG = 0 FOR FIXED RE, 1 FOR COMPUTED RE
000269:                                                                                                  #        ALPHAV +4 = 1/2 SINL IF GETERAD IS CALLED
000270:                                                                                                  #        LUNAFLAG = 0 FOR EARTH, =1 FOR MOON
000271:
000272:                                                                                                  #  OUTPUT
000273:                                                                                                  #        ERADM = 504RM FOR MOON (METERS B-29)
000274:                                                                                                  #        ERADM = ERAD OR COMPUTED RE FOR EARTH (METERS B-29)
000275:
000276: 13,2556           71220        SETRE              STQ      DLOAD
000277: 13,2557           00051                                    SETREX
000278: 13,2560           10003                                    504RM
000279: 13,2561           71214                           BON      DLOAD                                 #  BRANCH FOR MOON
000280: 13,2562           01703                                    LUNAFLAG
000281: 13,2563           26573                                    TSTRLSRM
000282: 13,2564           10001                                    ERAD
000283: 13,2565           45014                           BOFF     CALL                                  #  ERADFLAG=0 FOR FIXED RE, 1 FOR COMPUTED
000284: 13,2566           00742                                    ERADFLAG
000285: 13,2567           26571                                    SETRXX
000286: 13,2570           26464                                    GETERAD
000287: 13,2571           37673        SETRXX             STCALL   ERADM                                 #  EXIT WITH RE OR RM METERS B-29
000288: 13,2572           00051                                    SETREX
000289: 13,2573           77214        TSTRLSRM           BON      VLOAD                                 #  ERADFLAG=0, SET R0=RLS
000290: 13,2574           00702                                    ERADFLAG                              #          =1      40=RM
000291: 13,2575           26571                                    SETRXX
000292: 13,2576           02023                                    RLS
000293: 13,2577           64446                           ABVAL    SR2R                                  #  SCALE FROM B-27 TO B-29
000294: 13,2600           77650                           GOTO
000295: 13,2601           26571                                    SETRXX
000296: 13,2602  0000051               SETREX             =        S2
000297:
000298:

End of include-file LATITUDE_LONGITUDE_SUBROUTINES.agc.  Parent file is MAIN.agc


