
Source Code


000002:                                                                                                  ## Copyright:   Public domain.
000003:                                                                                                  ## Filename:    LUNAR_AND_SOLAR_EPHEMERIDES_SUBROUTINES.agc
000004:                                                                                                  ## Purpose:     A section of Luminary 1C, revision 131.
000005:                                                                                                  ##              It is part of the source code for the Lunar Module's (LM)
000006:                                                                                                  ##              Apollo Guidance Computer (AGC) for Apollo 13.
000007:                                                                                                  ##              This file is intended to be a faithful transcription, except
000008:                                                                                                  ##              that the code format has been changed to conform to the
000009:                                                                                                  ##              requirements of the yaYUL assembler rather than the
000010:                                                                                                  ##              original YUL assembler.
000011:                                                                                                  ## Reference:   pp. 978-981
000012:                                                                                                  ## Contact:     Ron Burkey <info@sandroid.org>.
000013:                                                                                                  ## Website:     www.ibiblio.org/apollo/index.html
000014:                                                                                                  ## Mod history: 05/29/03 RSB.   Began transcribing.
000015:                                                                                                  ##              05/14/05 RSB    Corrected website reference above.
000016:                                                                                                  ##              2017-01-06 RSB  Page numbers now agree with those on the
000017:                                                                                                  ##                              original hardcopy, as opposed to the PDF page
000018:                                                                                                  ##                              numbers in 1701.pdf.
000019:                                                                                                  ##              2017-02-26 RSB  Proofed comment text using octopus/ProoferComments.
000020:                                                                                                  ##              2017-03-13 RSB  Comment-text fixes noted in proofing Luminary 116.
000021:                                                                                                  ##              2017-08-26 MAS  Fixed comment-text errors found while transcribing Zerlina 56.
000022:


000024:                                                                                                  #  NAME - LSPOS - LOCATE SUN AND MOON                    DATE - 25 OCT 67
000025:                                                                                                  #  MOD NO.1
000026:                                                                                                  #  MOD BY NEVILLE                                        ASSEMBLY SUNDANCE
000027:
000028:                                                                                                  #  FUNCTIONAL DESCRIPTION
000029:
000030:                                                                                                  #  COMPUTES UNIT POSITION VECTOR OF THE SUN AND MOON IN THE BASIC REFERENCE SYSTEM.  THE SUN VECTOR S IS
000031:                                                                                                  #  LOCATED VIA TWO ANGLES.  THE FIRST ANGLE (OBLIQUITY) IS THE ANGLE BETWEEN THE EARTH EQUATOR AND THE ECLIPTIC. THE
000032:                                                                                                  #  SECOND ANGLE IS THE LONGITUDE OF THE SUN MEASURED IN THE ECLIPTIC.
000033:                                                                                                  #  THE POSITION VECTOR OF THE SUN IS
000034:                                                                                                  #        -
000035:                                                                                                  #        S = (COS(LOS), COS(OBL)*SIN(LOS), SIN(OBL)*SIN(LOS)), WHERE
000036:
000037:                                                                                                  #        LOS = LOS +LOS *T-(C *SIN(2PI*T)/365.24 +C *COS(2PI*T)/365.24)
000038:                                                                                                  #                 0    R     0                     1
000039:                                                                                                  #        LOS  (RAD) IS THE LONGITUDE OF THE SUN FOR MIDNIGHT JUNE 30TH OF THE PARTICULAR YEAR.
000040:                                                                                                  #           0
000041:                                                                                                  #        LOS  (RAD/DAY) IS THE MEAN RATE FOR THE PARTICULAR YEAR.
000042:                                                                                                  #           R
000043:
000044:                                                                                                  #  LOS  AND LOS  ARE STORED AS LOSC AND LOSR IN RATESP.
000045:                                                                                                  #     0        R
000046:                                                                                                  #  COS(OBL) AND SIN(OBL) ARE STORED IN THE MATRIX KONMAT.
000047:
000048:                                                                                                  #  T, TIME MEASURED IN DAYS (24 HOURS), IS STORED IN TIMEP.
000049:
000050:                                                                                                  #  C  AND C  ARE FUDGE FACTORS TO MINIMIZE THE DEVIATION.  THEY ARE STORED AS ONE CONSTANT (CMOD), SINCE
000051:                                                                                                  #   0      1                               2  2 1/2
000052:                                                                                                  #  C *SIN(X)+C *COS(X) CAN BE WRITTEN AS (C +C )   *SIN(X+PHI), WHERE PHI=ARCTAN(C /C ).
000053:                                                                                                  #   0         1                            0  1                                   1  0
000054:
000055:                                                                                                  #  THE MOON IS LOCATED VIA FOUR ANGLES. THE FIRST IS THE OBLIQUITY. THE SECOND IS THE MEAN LONGITUDE OF THE MOON,
000056:                                                                                                  #  MEASURED IN THE ECLIPTIC FROM THE MEAN EQUINOX TO THE MEAN ASCENDING NODE OF THE LUNAR ORBIT, AND THEN ALONG THE
000057:                                                                                                  #  ORBIT.  THE THIRD ANGLE IS THE ANGLE BETWEEN THE ECLIPTIC AND THE LUNAR ORBIT.  THE FOURTH ANGLE IS THE LONGITUDE
000058:                                                                                                  #  OF THE NODE OF THE MOON, MEASURED IN THE LUNAR ORBIT.  LET THESE ANGLES BE OBL,LOM,IM, AND LON RESPECTIVELY.
000059:
000060:                                                                                                  #  THE SIMPLIFIED POSITION VECTOR OF THE MOON IS
000061:                                                                                                  #        -
000062:                                                                                                  #        M=(COS(LOM), COS(OBL)*SIN(LOM)-SIN(OBL)*SIN(IM)*SIN(LOM-LON), SIN(OBL)*SIN(LOM)+COS(OBL)*SIN(IM)*SIN(LOM-LON))
000063:
000064:                                                                                                  #  WHERE
000065:                                                                                                  #        LOM=LOM +LOM *T-(A *SIN 2PI*T/27.5545+A *COS(2PI*T/27.5545)+B *SIN 2PI*T/32+B *COS(2PI*T/32)), AND
000066:                                                                                                  #               0    R     0                    1                     0               1
000067:                                                                                                  #        LON=LON +LON
000068:                                                                                                  #               0    R
000069:                                                                                                  #  A , A , B  AND B  ARE STORED AS AMOD AND BMOD (SEE DESCRIPTION OF CMOD, ABOVE).  COS(OBL), SIN(OBL)*SIN(IM),
000070:                                                                                                  #   0   1   0      1
000071:                                                                                                  #  SIN(OBL), AND COS(OBL)*SIN(IM) ARE STORED IN KONMAT AS K1, K2, K3  AND K4, RESPECTIVELY.  LOM , LOM , LON , LON
000072:                                                                                                  #  ARE STORED AS LOMO, LOMR, LONO, AND LONR IN RATESP.                                          0     R     0     R
000073:
000074:                                                                                                  #  THE THREE PHIS ARE STORED AS AARG, BARG, AND CARG(SUN).  ALL CONSTANTS ARE UPDATED BY YEAR.
000075:
000076:                                                                                                  #  CALLING SEQUENCE


000078:                                                                                                  #        CALL LSPOS.  RETURN IS VIA CPRET.
000079:
000080:                                                                                                  #  ALARMS OR ABORTS
000081:                                                                                                  #        NONE
000082:
000083:                                                                                                  #  ERASABLE INITIALIZATION REQUIRED
000084:                                                                                                  #        TEPHEM - TIME FROM MIDNIGHT 1 JULY PRECEDING THE LAUNCH TO THE TIME OF THE LAUNCH (WHEN THE AGC CLOCK WENT
000085:                                                                                                  #        TO ZERO).  TEPHEM IS TP WITH UNITS OF CENTI-SECONDS.
000086:
000087:                                                                                                  #        TIME2 AND TIME1 ARE IN MPAC AND MPAC +1 WHEN PROGRAM IS CALLED.
000088:
000089:                                                                                                  #  OUTPUT
000090:                                                                                                  #        UNIT POSITIONAL VECTOR OF SUN IN VSUN.  (SCALED B-1)
000091:                                                                                                  #        UNIT POSITIONAL VECTOR OF MOON IN VMOON.  (SCALED B-1)
000092:
000093:                                                                                                  #  SUBROUTINES USED
000094:                                                                                                  #        NONE
000095:
000096:                                                                                                  #  DEBRIS
000097:                                                                                                  #        CURRENT CORE SET, WORK AREA AND FREEFLAG
000098:
000099: 04,2773                                           BANK     04
000100: 15,2000                                           SETLOC   EPHEM
000101: 15,2000                                           BANK
000102:
000103: 15,3647  E5,1714                                  EBANK=   VSUN
000104: 15,3647                                           COUNT*   $$/EPHEM
000105: 15,3647  15,3647               LUNPOS             EQUALS   LSPOS
000106:
000107: 15,3647           54201        LSPOS              SETPD    SR
000108: 15,3650           00001                                    0
000109: 15,3651           20617                                    14D                                   #  TP
000110: 15,3652           56371                           TAD      DDV
000111: 15,3653           01707                                    TEPHEM                                #  TIME OF LAUNCH
000112: 15,3654           12024                                    CSTODAY                               #  24 HOURS-8640000 CENTI-SECS/DAY B-33
000113: 15,3655           00031                           STORE    TIMEP                                 #  T IN DAYS
000114: 15,3656           77170                           AXT,1    AXT,2
000115: 15,3657           00000                                    0
000116: 15,3660           00000                                    0
000117: 15,3661           77614                           CLEAR
000118: 15,3662           00274                                    FREEFLAG                              #  SWITCH BIT
000119: 15,3663           77745        POSITA             DLOAD
000120: 15,3664           12004                                    KONMAT     +2                         #  ZEROS
000121: 15,3665           00027                           STORE    GTMP
000122: 15,3666           40745        POSITB             DLOAD    DMP*
000123: 15,3667           00031                                    TIMEP                                 #  T
000124: 15,3670           12050                                    VAL67      +4,1                       #  1/27 OR 1/32 OR 1/365


000126: 15,3671           42661                           SL       DAD*
000127: 15,3672           20211                                    8D
000128: 15,3673           12046                                    VAL67      +2,1                       #  AARG
000129: 15,3674           40756                           SIN      DMP*                                  #  SIN(T/27+PHI) OR T/32 OR T/365
000130: 15,3675           12044                                    VAL67,1                               #  (A0**2+A1**2)**1/2 SIN(X+PHIA)
000131: 15,3676           62015                           DAD      INCR,1                                #  PLUS
000132: 15,3677           00027                                    GTMP                                  #  (B0**2+B1**2)**1/2 SIN(X+PHIB)
000133: 15,3700           77771                           DEC      -6         B-14
000134: 15,3701           00027                           STORE    GTMP                                  #  OR (C0**2+C1**2)**1/2 SIN(X+PHIC)
000135: 15,3702           77614                           BOFSET
000136: 15,3703           00054                                    FREEFLAG
000137: 15,3704           33666                                    POSITB
000138: 15,3705           40745        POSITD             DLOAD    DMP*
000139: 15,3706           00031                                    TIMEP                                 #  T
000140: 15,3707           65747                                    RATESP,2                              #  LOMR,LOSR,LONR
000141: 15,3710           42661                           SL       DAD*
000142: 15,3711           20206                                    5D
000143: 15,3712           65741                                    RATESP     +6,2                       #  LOMO,LOSO,LONO
000144: 15,3713           77625                           DSU
000145: 15,3714           00027                                    GTMP
000146: 15,3715           10021                           STORE    STMP,2                                #  LOM,LOS,LON
000147: 15,3716           63135                           SLOAD    INCR,2
000148: 15,3717           00050                                    X2
000149: 15,3720           77775                           DEC      -2         B-14
000150: 15,3721           53015                           DAD      BZE
000151: 15,3722           12026                                    RCB-13                                #  PLUS 2
000152: 15,3723           33753                                    POSITE                                #  2ND
000153: 15,3724           77644                           BPL
000154: 15,3725           33663                                    POSITA                                #  1ST
000155: 15,3726           45345        POSITF             DLOAD    DSU                                   #  3RD
000156: 15,3727           00021                                    STMP                                  #  LOM
000157: 15,3730           00025                                    STMP       +4                         #  LON
000158: 15,3731           65356                           SIN      PDDL                                  #  SIN(LOM-LON)
000159: 15,3732           00021                                    STMP
000160: 15,3733           65356                           SIN      PDDL                                  #  SIN LOM
000161: 15,3734           00021                                    STMP
000162: 15,3735           55546                           COS      VDEF                                  #  COS LOM
000163: 15,3736           53521                           MXV      UNIT
000164: 15,3737           12002                                    KONMAT                                #  K1,K2,K3,K4,
000165: 15,3740           02723                           STORE    VMOON
000166: 15,3741           65345                           DLOAD    PDDL
000167: 15,3742           12004                                    KONMAT     +2                         #  ZERO
000168: 15,3743           00023                                    STMP       +2
000169: 15,3744           65356                           SIN      PDDL                                  #  SIN LOS
000170: 15,3745           00023                                    STMP       +2
000171: 15,3746           55546                           COS      VDEF                                  #  COS LOS
000172: 15,3747           53521                           MXV      UNIT
000173: 15,3750           12002                                    KONMAT
000174: 15,3751           02715                           STORE    VSUN
000175: 15,3752           77616                           RVQ


000177: 15,3753           77745        POSITE             DLOAD
000178: 15,3754           12004                                    KONMAT     +2                         #  ZEROS
000179: 15,3755           00027                           STORE    GTMP
000180: 15,3756           77650                           GOTO
000181: 15,3757           33705                                    POSITD
000182: 05,2000                                           SETLOC   EPHEM1
000183: 05,2000                                           BANK
000184:
000185: 05,3505                                           COUNT*   $$/EPHEM
000186: 05,3505                        STMP               EQUALS   16D
000187: 05,3505                        GTMP               EQUALS   22D
000188: 05,3505                        TIMEP              EQUALS   24D
000189:

End of include-file LUNAR_AND_SOLAR_EPHEMERIDES_SUBROUTINES.agc.  Parent file is MAIN.agc


