
Source Code


000002:                                                                                                  ## Copyright:   Public domain.
000003:                                                                                                  ## Filename:    LUNAR_LANDING_GUIDANCE_EQUATIONS.agc
000004:                                                                                                  ## Purpose:     A section of Luminary 1C, revision 131.
000005:                                                                                                  ##              It is part of the source code for the Lunar Module's (LM)
000006:                                                                                                  ##              Apollo Guidance Computer (AGC) for Apollo 13.
000007:                                                                                                  ##              This file is intended to be a faithful transcription, except
000008:                                                                                                  ##              that the code format has been changed to conform to the
000009:                                                                                                  ##              requirements of the yaYUL assembler rather than the
000010:                                                                                                  ##              original YUL assembler.
000011:                                                                                                  ## Reference:   pp. 793-822
000012:                                                                                                  ## Contact:     Ron Burkey <info@sandroid.org>.
000013:                                                                                                  ## Website:     www.ibiblio.org/apollo/index.html
000014:                                                                                                  ## Mod history: 05/24/03 RSB.   Began transcribing.
000015:                                                                                                  ##              05/14/05 RSB    Corrected website reference above.
000016:                                                                                                  ##              2011-05-07 JL   Remove workaround.
000017:                                                                                                  ##              2017-01-06 RSB  Page numbers now agree with those on the
000018:                                                                                                  ##                              original hardcopy, as opposed to the PDF page
000019:                                                                                                  ##                              numbers in 1701.pdf.
000020:                                                                                                  ##              2017-02-25 RSB  Proofed comment text using octopus/ProoferComments.
000021:                                                                                                  ##              2017-03-01 RSB  Fixed lingering typos.
000022:


000024: 31,2361  E7,1621                                  EBANK=   E2DPS
000025: 31,2361                                           COUNT*   $$/F2DPS
000026:
000027:                                                                                                  #  ****************************************************************************************************************
000028:                                                                                                  #  LUNAR LANDING FLIGHT SEQUENCE TABLES
000029:                                                                                                  #  ****************************************************************************************************************
000030:
000031:                                                                                                  #  FLIGHT SEQUENCE TABLES ARE ARRANGED BY FUNCTION.   THEY ARE REFERENCED USING AS AN INDEX THE REGISTER WCHPHASE:
000032:                                                                                                  #        WCHPHASE = -1 ---> IGNALG
000033:                                                                                                  #        WCHPHASE =  0 ---> BRAKQUAD
000034:                                                                                                  #        WCHPHASE =  1 ---> APPRQUAD
000035:                                                                                                  #        WCHPHASE =  2 ---> VERTICAL
000036:
000037:                                                                                                  #  ***************************************************************************************************************
000038:
000039:                                                                                                  #  ROUTINES FOR STARTING NEW GUIDANCE PHASES:
000040:
000041: 31,2361           12573                           TCF      TTFINCR                               #  IGNALG
000042: 31,2362           12573        NEWPHASE           TCF      TTFINCR                               #  BRAKQUAD
000043: 31,2363           12556                           TCF      STARTP64                              #  APPRQUAD
000044: 31,2364           12547                           TCF      P65START                              #  VERTICAL
000045:
000046:                                                                                                  #  PRE-GUIDANCE COMPUTATIONS:
000047:
000048: 31,2365           12753                           TCF      CALCRGVG                              #  IGNALG
000049: 31,2366           12763        PREGUIDE           TCF      RGVGCALC                              #  BRAKQUAD
000050: 31,2367           12654                           TCF      REDESIG                               #  APPRQUAD
000051: 31,2370           12763                           TCF      RGVGCALC                              #  VERTICAL
000052:
000053:                                                                                                  #  GUIDANCE EQUATIONS:
000054:
000055: 31,2371           13026                           TCF      TTF/8CL                               #  IGNALG
000056: 31,2372           13026        WHATGUID           TCF      TTF/8CL                               #  BRAKQUAD
000057: 31,2373           13026                           TCF      TTF/8CL                               #  APPRQUAD
000058: 31,2374           13503                           TCF      VERTGUID                              #  VERTICAL
000059:
000060:                                                                                                  #  POST GUIDANCE EQUATION COMPUTATIONS:
000061:
000062: 31,2375           13225                           TCF      CGCALC                                #  IGNALG
000063: 31,2376           13212        AFTRGUID           TCF      EXTLOGIC                              #  BRAKQUAD
000064: 31,2377           13212                           TCF      EXTLOGIC                              #  APPRQUAD
000065: 31,2400           13400                           TCF      STEER?                                #  VERTICAL
000066:


000068:                                                                                                  #  WINDOW VECTOR COMPUTATIONS:
000069:
000070: 31,2401           13275                           TCF      EXGSUB                                #  IGNALG
000071: 31,2402           13316        WHATEXIT           TCF      EXBRAK                                #  BRAKQUAD
000072: 31,2403           13324                           TCF      EXNORM                                #  APPRQUAD
000073:
000074:                                                                                                  #  DISPLAY ROUTINES:
000075:
000076: 31,2404           13437        WHATDISP           TCF      P63DISPS                              #  BRAKQUAD
000077: 31,2405           13442                           TCF      P64DISPS                              #  APPRQUAD
000078: 31,2406           13471                           TCF      VERTDISP                              #  VERTICAL
000079:
000080:                                                                                                  #  ALARM ROUTINE FOR TTF COMPUTATION:
000081:
000082: 31,2407           13672                           TCF      1406P00                               #  IGNALG
000083: 31,2410           13674        WHATALM            TCF      1406ALM                               #  BRAKQUAD
000084: 31,2411           13674                           TCF      1406ALM                               #  APPRQUAD
000085:
000086:                                                                                                  #  INDICES FOR REFERENCING TARGET PARAMETERS:
000087:
000088: 31,2412           00000                           OCT      0                                     #  IGNALG
000089: 31,2413           00000        TARGTDEX           OCT      0                                     #  BRAKQUAD
000090: 31,2414           00034                           OCT      34                                    #  APPRQUAD
000091:
000092:                                                                                                  #  ***************************************************************************************************************
000093:                                                                                                  #  ENTRY POINTS:  ?GUIDSUB FOR THE IGNITION ALGORITHM, LUNLAND FOR SERVOUT
000094:                                                                                                  #  ***************************************************************************************************************
000095:
000096:                                                                                                  #  IGNITION ALGORITHM ENTRY:  DELIVERS N PASSES OF QUADRATIC QUIDANCE
000097:
000098: 31,2415           77776        ?GUIDSUB           EXIT
000099: 31,2416           34752                           CAF      TWO                                   #  N = 3
000100: 31,2417           55647                           TS       NGUIDSUB
000101: 31,2420           12531                           TCF      GUILDRET   +2
000102:
000103: 31,2421           55647        GUIDSUB            TS       NGUIDSUB                              #  ON SUCEEDING PASSES SKIP TTFINCR
000104: 31,2422           12753                           TCF      CALCRGVG
000105:
000106:                                                                                                  #  NORMAL ENTRY:  CONTROL COMES HERE FROM SERVOUT
000107:
000108: 31,2423           05353        LUNLAND            TC       PHASCHNG
000109: 31,2424           00035                           OCT      00035                                 #  GROUP 5:  RETAIN ONLY PIPA TASK
000110: 31,2425           30101                           CA       FLAGWRD5                              #  HAS THROTTLE-UP COME YET?
000111: 31,2426           74744                           MASK     ZOOMBIT
000112: 31,2427           00006                           EXTEND
000113: 31,2430           13431                           BZF      DISPEXIT   +3                         #  NO:  DO DISPLAYS ONLY


000115: 31,2431           05353                           TC       PHASCHNG                              #  YES:  DO GUIDANCE
000116: 31,2432           05023                           OCT      05023
000117: 31,2433           20000                           OCT      20000
000118:
000119:                                                                                                  #  ****************************************************************************************************************
000120:                                                                                                  #  GUILDENSTERN:  AUTO-MODES MONITOR (R13)
000121:                                                                                                  #  ****************************************************************************************************************
000122:
000123: 31,2434                                           COUNT*   $$/R13
000124:
000125:                                                                                                  #  THE PHILOSOPHY OF GUILDENSTERN:  ON EVERY APPEARANCE OF THE ATTITUDE-HOLD DISCRETE CHECK TO SEE IF THE ROD SWITCH
000126:                                                                                                  #  HAS BEEN CLICKED.  IF SO, SELECT P66.  IF THE DAP IS IN AUTO AND THE                                     PRESENT
000127:                                                                                                  #  9PROGRAM IN PROGRESS IS P66, CHECK FOR A
000128:                                                                                                  #  RESTART. IF ONE HAS OCCURED RE-INITIALIZE P66 AND CONTINUE OTHERWISE YOUCONTINUE WITH PRESENT DATA IN P66.TO
000129:                                                                                                  #  SELECT P66 THE ATTITUDE-HOLD DISCRETE MUST BE PRESENT AND THE ROD SWITCH MUST HAVE BEEN CLICKED. OTHERWISE THE
000130:                                                                                                  #  AUTOMATIC LANDING WILL CONTINUE.
000131:
000132: 31,2434           41010        GUILDEN            CS       MODREG                                #  ARE WE IN P66?  (EVEN THO WE ARE IN AUTO
000133: 31,2435           62452                           AD       DEC66                                 #  DAP)
000134: 31,2436           00006                           EXTEND
000135: 31,2437           12522                           BZF      RESTART?                              #  YES:  GO SE IF THERE HAS BEEN A RESTART
000136:
000137: 31,2440           34737                           CAF      BIT13                                 #  NO:  IS UN-ATTITUDE-HOLD DISCRETE HERE?
000138: 31,2441           00006                           EXTEND
000139: 31,2442           02031                           RAND     CHAN31
000140: 31,2443           10000                           CCS      A
000141: 31,2444           12527                           TCF      GUILDRET                              #  YES:  ALL'S WELL, OR AT LEAST AUTOMATIC
000142:
000143: 31,2445           31746                           CA       RODCOUNT                              #  NO:  HAS ROD SWITCH BEEN CLICKED
000144: 31,2446           00006                           EXTEND
000145: 31,2447           12527                           BZF      GUILDRET                              #  NO:  CONTINUE WITH THE AUTOMATIC LANDING
000146:
000147: 31,2450           03677        STARTP66           TC       FASTCHNG                              #  YES
000148: 31,2451           05311                           TC       NEWMODEX
000149: 31,2452           00102        DEC66              DEC      66         B-14
000150: 31,2453           00006                           EXTEND
000151: 31,2454           31474                           DCA      HDOTDISP                              #  SET DESIRED ALTITUDE RATE = CURRENT
000152: 31,2455           53645                           DXCH     VDGVERT                               #        ALTITUDE RATE.
000153: 31,2456           06042        STRTP66A           TC       INTPRET
000154: 31,2457           41535                           SLOAD    PUSH
000155: 31,2460           01457                                    PBIASZ
000156: 31,2461           41535                           SLOAD    PUSH
000157: 31,2462           01455                                    PBIASY
000158: 31,2463           55535                           SLOAD    VDEF
000159: 31,2464           01453                                    PBIASX
000160: 31,2465           43161                           VXSC     SET
000161: 31,2466           25532                                    BIASFACT
000162: 31,2467           00463                                    RODFLAG
000163: 31,2470           26621                           STOVL    VBIAS
000164: 31,2471           01254                                    TEMX
000165: 31,2472           77676                           VCOMP


000167: 31,2473           27764                           STOVL    OLDPIPAX
000168: 31,2474           06524                                    ZEROVECS
000169: 31,2475           17767                           STODL    DELVROD
000170: 31,2476           02540                                    RODSCALE
000171: 31,2477           17757                           STODL    RODSCAL1
000172: 31,2500           01234                                    PIPTIME
000173: 31,2501           03760                           STORE    LASTTPIP
000174: 31,2502           77776                           EXIT
000175: 31,2503           34755                           CAF      ZERO
000176: 31,2504           55620                           TS       FCOLD
000177: 31,2505           55610                           TS       FWEIGHT
000178: 31,2506           55611                           TS       FWEIGHT    +1
000179: 31,2507           34752                           CAF      TWO                                   #  WCHPHASE = 2 ---> VERTICAL: P65,P66,P67
000180: 31,2510           55647                           TS       WCHVERT
000181: 31,2511           55621                           TS       WCHPHOLD
000182: 31,2512           55346                           TS       WCHPHASE
000183: 31,2513           04616                           TC       BANKCALL                              #  TEMPORARY, I HOPE HOPE HOPE
000184: 31,2514           40166                           CADR     STOPRATE                              #  TEMPORARY, I HOPE HOPE HOPE
000185: 31,2515           05516                           TC       DOWNFLAG                              #  PERMIT X-AXIS OVERRIDE
000186: 31,2516           00311                           ADRES    XOVINFLG
000187: 31,2517           05516                           TC       DOWNFLAG
000188: 31,2520           00143                           ADRES    REDFLAG
000189: 31,2521           13503                           TCF      VERTGUID
000190:
000191: 31,2522           30075        RESTART?           CA       FLAGWRD1                              #  HAS THERE BEEN A RESTART?
000192: 31,2523           74740                           MASK     RODFLBIT
000193: 31,2524           00006                           EXTEND
000194: 31,2525           12456                           BZF      STRTP66A                              #  YES.  REINITIALIZE BUT LEAVE VDGVERT AS
000195:                                                                                                  #        IS.
000196:
000197: 31,2526           13503                           TCF      VERTGUID                              #  NO: CONTINUE WITH R.O.D.
000198:
000199:                                                                                                  #  ****************************************************************************************************************
000200:                                                                                                  #  INITIALIZATION FOR THIS PASS
000201:                                                                                                  #  ****************************************************************************************************************
000202:
000203: 31,2527                                           COUNT*   $$/F2DPS
000204:
000205: 31,2527           34755        GUILDRET           CAF      ZERO
000206: 31,2530           55746                           TS       RODCOUNT
000207:
000208: 31,2531           00006                 +2        EXTEND
000209: 31,2532           31625                           DCA      TPIP
000210: 31,2533           53574                           DXCH     TPIPOLD
000211:
000212: 31,2534           03677                           TC       FASTCHNG
000213:
000214: 31,2535           00006                           EXTEND
000215: 31,2536           31561                           DCA      PIPTIME1
000216: 31,2537           53625                           DXCH     TPIP


000218: 31,2540           00006                           EXTEND
000219: 31,2541           31643                           DCA      TTF/8
000220: 31,2542           53553                           DXCH     TTF/8TMP
000221:
000222: 31,2543           11623                           CCS      FLPASS0
000223: 31,2544           12573                           TCF      TTFINCR
000224:
000225: 31,2545           51346        BRSPOT1            INDEX    WCHPHASE
000226: 31,2546           12362                           TCF      NEWPHASE
000227:
000228:                                                                                                  #  ****************************************************************************************************************
000229:                                                                                                  #  ROUTINES TO START NEW PHASES
000230:                                                                                                  #  ****************************************************************************************************************
000231:
000232: 31,2547           05311        P65START           TC       NEWMODEX
000233: 31,2550           00101                           DEC      65         B-14
000234: 31,2551           34755                           CAF      ZERO
000235: 31,2552           55647                           TS       WCHVERT
000236: 31,2553           05516                           TC       DOWNFLAG                              #  PERMIT X-AXIS OVERRIDE
000237: 31,2554           00311                           ADRES    XOVINFLG
000238: 31,2555           12573                           TCF      TTFINCR
000239:
000240: 31,2556           05311        STARTP64           TC       NEWMODEX
000241: 31,2557           00100                           DEC      64         B-14
000242: 31,2560           31425                           CA       DELTTFAP                              #  AUGMENT TTF/8
000243: 31,2561           27552                           ADS      TTF/8TMP
000244: 31,2562           00004                           INHINT
000245: 31,2563           06022                           TC       C13STALL
000246: 31,2564           34740                           CA       BIT12                                 #  ENABLE RUPT10
000247: 31,2565           00006                           EXTEND
000248: 31,2566           05013                           WOR      CHAN13
000249: 31,2567           33707                           CAF      P64DB
000250: 31,2570           55343                           TS       DB
000251: 31,2571           05516                           TC       DOWNFLAG                              #  INITIALIZE REDESIGNATION FLAG
000252: 31,2572           00143                           ADRES    REDFLAG
000253:
000254:                                                                                                  #                (CONTINUE TO TTFINCR)
000255:
000256:                                                                                                  #  ****************************************************************************************************************
000257:                                                                                                  #  INCREMENT TTF/8, UPDATE LAND FOR LUNAR ROTATION, DO OTHER USEFUL THINGS
000258:                                                                                                  #  ****************************************************************************************************************
000259:
000260:                                                                                                  #        TTFINCR COMPUTATIONS ARE AS FOLLOWS :-
000261:                                                                                                  #                TTF/8 UPDATED FOR TIME SINCE LAST PASS:
000262:                                                                                                  #                        TTF/8 = TTF/8 + (TPIP - TPIPOLD)/8
000263:                                                                                                  #                LANDING SITE VECTOR UPDATED FOR LUNAR ROTATION:


000265:                                                                                                  #                        -                  -      -                      -
000266:                                                                                                  #                        LAND = /LAND/ UNIT(LAND - LAND(TPIP - TPIPOLD) * WM)
000267:                                                                                                  #                SLANT RANGE TO LANDING SITE, FOR DISPLAY:
000268:                                                                                                  #                                         -      -
000269:                                                                                                  #                        RANGEDSP = ABVAL(LAND - R)
000270:
000271: 31,2573           06042        TTFINCR            TC       INTPRET
000272: 31,2574           45345                           DLOAD    DSU
000273: 31,2575           03625                                    TPIP
000274: 31,2576           03574                                    TPIPOLD
000275: 31,2577           41461                           SLR      PUSH                                  #  SHIFT SCALES DELTA TIME TO 2(17) CSECS
000276: 31,2600           21214                                    11D
000277: 31,2601           47361                           VXSC     VXV
000278: 31,2602           03635                                    LAND
000279: 31,2603           02325                                    WM
000280: 31,2604           47045                           BVSU     RTB
000281: 31,2605           03635                                    LAND
000282: 31,2606           21727                                    NORMUNIT
000283: 31,2607           76561                           VXSC     VSL1
000284: 31,2610           02333                                    /LAND/
000285: 31,2611           17545                           STODL    LANDTEMP
000286: 31,2612           77776                           EXIT
000287:
000288: 31,2613           52155                           DXCH     MPAC
000289: 31,2614           21553                           DAS      TTF/8TMP                              #  NOW HAVE INCREMENTED TTF/8 IN TTF/8TMP
000290:
000291: 31,2615           03677                           TC       FASTCHNG
000292:
000293: 31,2616           00006                           EXTEND
000294: 31,2617           31553                           DCA      TTF/8TMP
000295: 31,2620           53643                           DXCH     TTF/8
000296:
000297: 31,2621           03643                           TC       TDISPSET
000298:
000299: 31,2622           37721                           CAF      PRIO31                                #  TEMPORARILY OVER-PRIO CHARIN
000300: 31,2623           05146                           TC       PRIOCHNG
000301:
000302: 31,2624           06042                           TC       INTPRET
000303: 31,2625           53375                           VLOAD    VAD                                   #  ADD IN CORRECTION FROM NOUN 69
000304: 31,2626           03545                                    LANDTEMP
000305: 31,2627           02635                                    DLAND
000306: 31,2630           03635                           STORE    LAND
000307: 31,2631           77646                           ABVAL                                          #  RECOMPUTE /LAND/
000308: 31,2632           02333                           STORE    /LAND/
000309: 31,2633           77776                           EXIT
000310:
000311: 31,2634           03677                           TC       FASTCHNG                              #  SINCE REDESIG MAY CHANGE LANDTEMP


000313: 31,2635           35014                           CAF      EBANK5
000314: 31,2636  E5,1634                                  EBANK=   DLAND
000315: 31,2636           54003                           TS       EBANK
000316: 31,2637           34755                           CAF      ZERO                                  #  ZERO N 69 REGISTERS
000317: 31,2640           55634                           TS       DLAND
000318: 31,2641           55635                           TS       DLAND      +1
000319: 31,2642           55636                           TS       DLAND      +2
000320: 31,2643           55637                           TS       DLAND      +3
000321: 31,2644           55640                           TS       DLAND      +4
000322: 31,2645           55641                           TS       DLAND      +5
000323: 31,2646           35016                           CAF      EBANK7
000324: 31,2647  E7,1666                                  EBANK=   TREDES
000325: 31,2647           54003                           TS       EBANK
000326:
000327: 31,2650           34736                           CAF      PRIO20
000328: 31,2651           05146                           TC       PRIOCHNG
000329:
000330: 31,2652           51346        BRSPOT2            INDEX    WCHPHASE
000331: 31,2653           12366                           TCF      PREGUIDE
000332:
000333:                                                                                                  #  ****************************************************************************************************************
000334:                                                                                                  #  LANDING SITE PERTURBATION EQUATIONS
000335:                                                                                                  #  ****************************************************************************************************************
000336:
000337: 31,2654           30102        REDESIG            CA       FLAGWRD6                              #  IS REDFLAG SET?
000338: 31,2655           74746                           MASK     REDFLBIT
000339: 31,2656           00006                           EXTEND
000340: 31,2657           12763                           BZF      RGVGCALC                              #  NO:  SKIP REDESIGNATION LOGIC
000341:
000342: 31,2660           31666                           CA       TREDES                                #  YES:  HAS TREDES REACHED ZERO?
000343: 31,2661           00006                           EXTEND
000344: 31,2662           12763                           BZF      RGVGCALC                              #  YES:  SKIP REDESIGNATION LOGIC
000345:
000346: 31,2663           00004                           INHINT
000347: 31,2664           31446                           CA       ELINCR1
000348: 31,2665           55554                           TS       ELINCR
000349: 31,2666           31445                           CA       AZINCR1
000350: 31,2667           55556                           TS       AZINCR
000351: 31,2670           03677                           TC       FASTCHNG
000352:
000353: 31,2671           34755                           CA       ZERO
000354: 31,2672           55446                           TS       ELINCR1
000355: 31,2673           55445                           TS       AZINCR1
000356: 31,2674           55555                           TS       ELINCR     +1
000357: 31,2675           55557                           TS       AZINCR     +1
000358:
000359: 31,2676           30120                           CA       FIXLOC                                #  SET PD TO 0
000360: 31,2677           54166                           TS       PUSHLOC
000361:
000362: 31,2700           06042                           TC       INTPRET


000364: 31,2701           52375                           VLOAD    VSU
000365: 31,2702           03635                                    LAND
000366: 31,2703           03521                                    R                                     #                  -      -
000367: 31,2704           41434                           RTB      PUSH                                  #  PUSH DOWN UNIT (LAND - R)
000368: 31,2705           21727                                    NORMUNIT
000369: 31,2706           76435                           VXV      VSL1
000370: 31,2707           02154                                    YNBPIP                                #                     -          -      -
000371: 31,2710           65361                           VXSC     PDDL                                  #  PUSH DOWN - ELINCR(YNB * UNIT(LAND - R))
000372: 31,2711           03555                                    ELINCR
000373: 31,2712           03557                                    AZINCR
000374: 31,2713           52361                           VXSC     VSU
000375: 31,2714           02154                                    YNBPIP
000376: 31,2715           41455                           VAD      PUSH                                  #  RESULTING VECTOR IS 1/2 REAL SIZE
000377:
000378: 31,2716           45345                           DLOAD    DSU                                   #  MAKE SURE REDESIGNATION IS NOT
000379: 31,2717           00001                                    0                                     #        TOO CLOSE TO THE HORIZON
000380: 31,2720           05660                                    DEPRCRIT
000381: 31,2721           71240                           BMN      DLOAD
000382: 31,2722           62725                                    REDES1
000383: 31,2723           05660                                    DEPRCRIT
000384: 31,2724           00001                           STORE    0
000385: 31,2725           45345        REDES1             DLOAD    DSU
000386: 31,2726           03635                                    LAND
000387: 31,2727           03521                                    R
000388: 31,2730           74271                           DDV      VXSC
000389: 31,2731           00001                                    0
000390: 31,2732           53455                           VAD      UNIT
000391: 31,2733           03521                                    R
000392: 31,2734           76561                           VXSC     VSL1
000393: 31,2735           02333                                    /LAND/
000394: 31,2736           03545                           STORE    LANDTEMP
000395: 31,2737           77776                           EXIT                                           #  LOOKANGL WILL BE COMPUTED AT RGVGCALC
000396:
000397: 31,2740           03677                           TC       FASTCHNG
000398:
000399: 31,2741           00006                           EXTEND
000400: 31,2742           31545                           DCA      LANDTEMP
000401: 31,2743           53635                           DXCH     LAND
000402: 31,2744           00006                           EXTEND
000403: 31,2745           31547                           DCA      LANDTEMP   +2
000404: 31,2746           53637                           DXCH     LAND       +2
000405: 31,2747           00006                           EXTEND
000406: 31,2750           31551                           DCA      LANDTEMP   +4
000407: 31,2751           53641                           DXCH     LAND       +4
000408:
000409: 31,2752           12763                           TCF      RGVGCALC
000410:
000411:                                                                                                  #  ****************************************************************************************************************
000412:                                                                                                  #  COMPUTE STATE IN GUIDANCE COORDINATES
000413:                                                                                                  #  ****************************************************************************************************************


000415:
000416:                                                                                                  #        RGVGCALC COMPUTATIONS ARE AS FOLLOWS:-
000417:
000418:                                                                                                  #                VELOCITY RELATIVE TO THE SURFACE:
000419:
000420:                                                                                                  #                        -         -   -   -
000421:                                                                                                  #                        ANGTERM = V + R * WM
000422:
000423:                                                                                                  #                STATE IN GUIDANCE COORDINATES:
000424:
000425:                                                                                                  #                        -     *   -   -
000426:                                                                                                  #                        RGU = CG (R - LAND)
000427:
000428:                                                                                                  #                        -     *   -   -    -
000429:                                                                                                  #                        VGU = CG (V - WM * R)
000430:
000431:                                                                                                  #                DEPRESSION ANGLE FOR DISPLAY:
000432:
000433:                                                                                                  #                                               -   -     -
000434:                                                                                                  #                        LOOKANGL = ARCSIN(UNIT(R - LAND).XMBPIP)
000435:
000436: 31,2753           06042        CALCRGVG           TC       INTPRET                               #  IN IGNALG, COMPUTE V FROM INTEGRATION
000437: 31,2754           64375                           VLOAD    MXV                                   #        OUTPUT AND TRIM CORRECTION TERM
000438: 31,2755           00025                                    VATT1                                 #        COMPUTED LAST PASS AND LEFT IN UNFC/2
000439: 31,2756           01734                                    REFSMMAT
000440: 31,2757           53362                           VSR1     VAD
000441: 31,2760           03253                                    UNFC/2
000442: 31,2761           03527                           STORE    V
000443: 31,2762           77776                           EXIT
000444:
000445: 31,2763           06042        RGVGCALC           TC       INTPRET                               #  ENTER HERE TO RECOMPUTE RG AND VG
000446: 31,2764           47375                           VLOAD    VXV
000447: 31,2765           03521                                    R
000448: 31,2766           02325                                    WM
000449: 31,2767           70455                           VAD      VSR2                                  #  RESCALE TO UNITS OF 2(9) M/CS
000450: 31,2770           03527                                    V
000451: 31,2771           02265                           STORE    ANGTERM
000452: 31,2772           77721                           MXV
000453: 31,2773           02575                                    CG                                    #  NO SHIFT SINCE ANGTERM IS DOUBLE SIZED
000454: 31,2774           27627                           STOVL    VGU
000455: 31,2775           03521                                    R                                     #            -   -
000456: 31,2776           41451                           VSU      PUSH                                  #  PUSH DOWN R - LAND
000457: 31,2777           03635                                    LAND
000458: 31,3000           76521                           MXV      VSL1
000459: 31,3001           02575                                    CG
000460: 31,3002           02627                           STORE    RGU
000461: 31,3003           77646                           ABVAL
000462: 31,3004           26617                           STOVL    RANGEDSP
000463: 31,3005           50234                           RTB      DOT                                   #  NOW IN MPAC IS SINE(LOOKANGL)/4
000464: 31,3006           21727                                    NORMUNIT
000465: 31,3007           02146                                    XNBPIP


000467: 31,3010           77776                           EXIT
000468:
000469: 31,3011           30120                           CA       FIXLOC                                #  RESET PUSH DOWN POINTER
000470: 31,3012           54166                           TS       PUSHLOC
000471:
000472: 31,3013           30154                           CA       MPAC                                  #  COMPUTE LOOKANGL ITSELF
000473: 31,3014           60000                           DOUBLE
000474: 31,3015           04616                           TC       BANKCALL
000475: 31,3016           61663                           CADR     SPARCSIN   -1
000476: 31,3017           63713                           AD       1/2DEG
000477: 31,3020           61356                           AD       ELBIAS                                #  BIAS LPD ANGLE FOR WINDOW BENDING
000478: 31,3021           00006                           EXTEND
000479: 31,3022           73712                           MP       180DEGS
000480: 31,3023           55667                           TS       LOOKANGL                              #  LOOKANGL FOR DISPLAY DURING P64
000481:
000482: 31,3024           51346        BRSPOT3            INDEX    WCHPHASE
000483: 31,3025           12372                           TCF      WHATGUID
000484:
000485:                                                                                                  #  ****************************************************************************************************************
000486:                                                                                                  #  TTF/8 COMPUTATION
000487:                                                                                                  #  ****************************************************************************************************************
000488:
000489: 31,3026           03636        TTF/8CL            TC       INTPRETX
000490: 31,3027           77743                           DLOAD*
000491: 31,3030           02431                                    JDG2TTF,1
000492: 31,3031           23571                           STODL*   TABLTTF    +6                         #  A(3) = 8 JDG  TO TABLTTF
000493: 31,3032           02427                                    ADG2TTF,1                             #              2
000494: 31,3033           17567                           STODL    TABLTTF    +4                         #  A(2) = 6 ADG  TO TABLTTF
000495: 31,3034           03633                                    VGU        +4                         #              2
000496: 31,3035           42605                           DMP      DAD*
000497: 31,3036           05656                                    3/4DP
000498: 31,3037           02425                                    VDG2TTF,1
000499: 31,3040           23565                           STODL*   TABLTTF    +2                         #  A(1) = (6 VGU  + 18 VDG )/8 TO TABLTTF
000500: 31,3041           02407                                    RDG        +4,1                       #               2         2
000501: 31,3042           41225                           DSU      DMP
000502: 31,3043           02633                                    RGU        +4
000503: 31,3044           05654                                    3/8DP
000504: 31,3045           03563                           STORE    TABLTTF                               #  A(0) = -24 (RGU  - RDG )/64 TO TABLTTF
000505: 31,3046           77776                           EXIT                                           #                 2      2
000506:
000507: 31,3047           34744                           CA       BIT8
000508: 31,3050           55572                           TS       TABLTTF    +10                        #  FRACTIONAL PRECISION FOR TTF TO TABLE
000509:
000510: 31,3051           00006                           EXTEND
000511: 31,3052           31643                           DCA      TTF/8
000512: 31,3053           52155                           DXCH     MPAC                                  #  LOADS TTF/8 (INITIAL GUESS) INTO MPAC
000513: 31,3054           34752                           CAF      TWO                                   #  DEGREE - ONE
000514: 31,3055           54001                           TS       L
000515: 31,3056           33705                           CAF      TABLTTFL
000516: 31,3057           03512                           TC       ROOTPSRS                              #  YIELDS TTF/8 IN MPAC


000518: 31,3060           51346                           INDEX    WCHPHASE
000519: 31,3061           12410                           TCF      WHATALM
000520:
000521: 31,3062           00006                           EXTEND                                         #  GOOD RETURN
000522: 31,3063           30155                           DCA      MPAC                                  #  FETCH TTF/8 KEEPING IT IN MPAC
000523: 31,3064           53643                           DXCH     TTF/8                                 #  CORRECTED TTF/8
000524:
000525: 31,3065           03643                           TC       TDISPSET
000526:
000527:                                                                                                  #                (CONTINUE TO QUADGUID)
000528:
000529:                                                                                                  #  ****************************************************************************************************************
000530:                                                                                                  #  MAIN GUIDANCE EQUATION
000531:                                                                                                  #  ****************************************************************************************************************
000532:
000533:                                                                                                  #        AS PUBLISHED:-
000534:                                                                                                  #                              -     -        -     -
000535:                                                                                                  #                -     -     6(VDG + VG)   12(RDG - RG)
000536:                                                                                                  #                ACG = ADG + ----------- + ------------
000537:                                                                                                  #                                TTF        (TTF)(TTF)
000538:                                                                                                  #        AS HERE PROGRAMMED:-
000539:                                                                                                  #                             -     -
000540:                                                                                                  #                      3 (1/4(RDG - RG)   -     - )
000541:                                                                                                  #                      - (------------- + VDG + VG)
000542:                                                                                                  #                -     4 (    TTF/8               )   -
000543:                                                                                                  #                ACG = ---------------------------- + ADG
000544:                                                                                                  #                                  TTF/8
000545:
000546: 31,3066           41642        QUADGUID           CS       TTF/8
000547: 31,3067           61426                           AD       LEADTIME                              #  LEADTIME IS A NEGATIVE NUMBER
000548: 31,3070           64733                           AD       POSMAX                                #  SAFEGUARD THE COMPUTATIONS THAT FOLLOW
000549: 31,3071           54001                           TS       L                                     #        BY FORCING -TTF*LEADTIME > OR - ZERO
000550: 31,3072           40001                           CS       L
000551: 31,3073           60001                           AD       L
000552: 31,3074           22007                           ZL
000553: 31,3075           00006                           EXTEND
000554: 31,3076           11642                           DV       TTF/8
000555: 31,3077           54130                           TS       BUF                                   #  - RATIO OF LAG-DIMINISHED TTF TO TTF
000556: 31,3100           00006                           EXTEND
000557: 31,3101           70000                           SQUARE
000558: 31,3102           54131                           TS       BUF        +1
000559: 31,3103           60130                           AD       BUF
000560: 31,3104           56131                           XCH      BUF        +1                         #  RATIO SQUARED - RATIO
000561: 31,3105           60131                           AD       BUF        +1
000562: 31,3106           54154                           TS       MPAC                                  #  COEFFICIENT FOR VGU TERM
000563: 31,3107           60131                           AD       BUF        +1


000565: 31,3110           50120                           INDEX    FIXLOC
000566: 31,3111           54032                           TS       26D                                   #  COEFFICIENT FOR RDG-RGU TERM
000567: 31,3112           60131                           AD       BUF        +1
000568: 31,3113           50120                           INDEX    FIXLOC
000569: 31,3114           54034                           TS       28D                                   #  COEFFICIENT FOR VDG TERM
000570: 31,3115           60130                           AD       BUF
000571: 31,3116           64733                           AD       POSMAX
000572: 31,3117           60131                           AD       BUF        +1
000573: 31,3120           60131                           AD       BUF        +1
000574: 31,3121           50120                           INDEX    FIXLOC
000575: 31,3122           54036                           TS       30D                                   #  COEFFICIENT FOR ADG TERM
000576:
000577: 31,3123           34755                           CAF      ZERO
000578: 31,3124           54163                           TS       MODE
000579:
000580: 31,3125           03636                           TC       INTPRETX
000581: 31,3126           65361                           VXSC     PDDL
000582: 31,3127           03627                                    VGU
000583: 31,3130           00035                                    28D
000584: 31,3131           62757                           VXSC*    PDVL*
000585: 31,3132           02411                                    VDG,1
000586: 31,3133           02403                                    RDG,1
000587: 31,3134           70251                           VSU      V/SC
000588: 31,3135           02627                                    RGU
000589: 31,3136           03643                                    TTF/8
000590: 31,3137           74342                           VSR2     VXSC
000591: 31,3140           00033                                    26D
000592: 31,3141           53255                           VAD      VAD
000593: 31,3142           74341                           V/SC     VXSC
000594: 31,3143           03643                                    TTF/8
000595: 31,3144           05656                                    3/4DP
000596: 31,3145           73725                           PDDL     VXSC*
000597: 31,3146           00037                                    30D
000598: 31,3147           02417                                    ADG,1
000599: 31,3150           77655                           VAD
000600: 31,3151           76505        AFCCALC1           VXM      VSL1                                  #  VERTGUID COMES HERE
000601: 31,3152           02575                                    CG
000602: 31,3153           70315                           PDVL     V/SC
000603: 31,3154           01236                                    GDT/2
000604: 31,3155           05652                                    GSCALE
000605: 31,3156           45445                           BVSU     STADR
000606: 31,3157           74524                           STORE    UNFC/2                                #  UNFC/2 NEED NOT BE UNITIZED
000607: 31,3160           77646                           ABVAL
000608: 31,3161           17464        AFCCALC2           STODL    /AFC/                                 #  MAGNITUDE OF AFC FOR THROTTLE
000609: 31,3162           03253                                    UNFC/2                                #  VERTICAL COMPONENT
000610: 31,3163           65316                           DSQ      PDDL
000611: 31,3164           03255                                    UNFC/2     +2                         #  OUT-OF-PLANE
000612: 31,3165           65316                           DSQ      PDDL
000613: 31,3166           05650                                    HIGHESTF
000614: 31,3167           63471                           DDV      DSQ


000616: 31,3170           01244                                    MASS                                  #                         2    2     2
000617: 31,3171           45225                           DSU      DSU                                   #  AMAXHORIZ = SQRT(ATOTAL - A   - A  )
000618: 31,3172           71244                           BPL      DLOAD                                 #                             1     0
000619: 31,3173           63175                                    AFCCALC3
000620: 31,3174           06524                                    ZEROVECS
000621: 31,3175           43366        AFCCALC3           SQRT     DAD
000622: 31,3176           03257                                    UNFC/2     +4
000623: 31,3177           44244                           BPL      BDSU
000624: 31,3200           63203                                    AFCCLEND
000625: 31,3201           03257                                    UNFC/2     +4
000626: 31,3202           03257                           STORE    UNFC/2     +4
000627: 31,3203           77776        AFCCLEND           EXIT
000628: 31,3204           03677                           TC       FASTCHNG
000629:
000630: 31,3205           31346                           CA       WCHPHASE                              #  PREPARE FOR PHASE SWITCHING LOGIC
000631: 31,3206           55621                           TS       WCHPHOLD
000632: 31,3207           25623                           INCR     FLPASS0                               #  INCREMENT PASS COUNTER
000633:
000634: 31,3210           51346        BRSPOT4            INDEX    WCHPHASE
000635: 31,3211           12376                           TCF      AFTRGUID
000636:
000637:                                                                                                  #  ****************************************************************************************************************
000638:                                                                                                  #  NEW PHASE NOW?
000639:                                                                                                  #  ****************************************************************************************************************
000640:
000641: 31,3212           51346        EXTLOGIC           INDEX    WCHPHASE                              #  IS TTF NEARER ZERO THAN CRITERION?
000642: 31,3213           31423                           CA       TENDBRAK
000643: 31,3214           61642                           AD       TTF/8
000644: 31,3215           00006                           EXTEND
000645: 31,3216           63225                           BZMF     CGCALC                                #  NO
000646:
000647: 31,3217           03677                           TC       FASTCHNG                              #  YES:  INCREMENT WCHPHASE, ZERO FLPASS0
000648:
000649: 31,3220           31621                           CA       WCHPHOLD
000650: 31,3221           64753                           AD       ONE
000651: 31,3222           55346                           TS       WCHPHASE
000652: 31,3223           34755                           CAF      ZERO
000653: 31,3224           55623                           TS       FLPASS0
000654:
000655:                                                                                                  #                (CONTINUE TO CGCALC)
000656:
000657:                                                                                                  #  ***************************************************************************************************************
000658:                                                                                                  #  ERECT GUIDANCE-STABLE MEMBER TRANSFORMATION MATRIX
000659:                                                                                                  #  ***************************************************************************************************************
000660:
000661: 31,3225           35014        CGCALC             CAF      EBANK5
000662: 31,3226           54003                           TS       EBANK
000663: 31,3227  E5,1435                                  EBANK=   TCGIBRAK
000664: 31,3227           00006                           EXTEND
000665: 31,3230           51346                           INDEX    WCHPHASE


000667: 31,3231           52413                           INDEX    TARGTDEX
000668: 31,3232           31435                           DCA      TCGFBRAK
000669: 31,3233           24006                           INCR     BBANK
000670: 31,3234           24006                           INCR     BBANK
000671: 31,3235  E7,1642                                  EBANK=   TTF/8
000672: 31,3235           61642                           AD       TTF/8
000673: 31,3236           56001                           XCH      L
000674: 31,3237           61642                           AD       TTF/8
000675: 31,3240           10000                           CCS      A
000676: 31,3241           10001                           CCS      L
000677: 31,3242           13273                           TCF      EXITSPOT
000678: 31,3243           13273                           TCF      EXITSPOT
000679: 31,3244           13245                           NOOP
000680:
000681: 31,3245           03636                           TC       INTPRETX
000682: 31,3246           53575                           VLOAD    UNIT
000683: 31,3247           03635                                    LAND
000684: 31,3250           16575                           STODL    CG
000685: 31,3251           03643                                    TTF/8
000686: 31,3252           74203                           DMP*     VXSC
000687: 31,3253           02433                                    GAINBRAK,1                            #  NUMERO MYSTERIOSO
000688: 31,3254           02265                                    ANGTERM
000689: 31,3255           77655                           VAD
000690: 31,3256           03635                                    LAND
000691: 31,3257           47051                           VSU      RTB
000692: 31,3260           03521                                    R
000693: 31,3261           21727                                    NORMUNIT
000694: 31,3262           47035                           VXV      RTB
000695: 31,3263           03635                                    LAND
000696: 31,3264           21727                                    NORMUNIT
000697: 31,3265           26603                           STOVL    CG         +6                         #  SECOND ROW
000698: 31,3266           02575                                    CG
000699: 31,3267           76435                           VXV      VSL1
000700: 31,3270           02603                                    CG         +6
000701: 31,3271           02611                           STORE    CG         +14
000702: 31,3272           77776                           EXIT
000703:
000704: 31,3273           51621        EXITSPOT           INDEX    WCHPHOLD
000705: 31,3274           12402                           TCF      WHATEXIT
000706:
000707:                                                                                                  #  ****************************************************************************************************************
000708:                                                                                                  #  ROUTINES FOR EXITING FROM LANDING GUIDANCE
000709:                                                                                                  #  ****************************************************************************************************************
000710:
000711:                                                                                                  #  1.    EXGSUB IS THE RETURN WHEN GUIDSUB IS CALLED BY THE IGNITION ALGORITHM.
000712:                                                                                                  #  2.    EXBRAK IN THE EXIT USED DURING THE BRAKING PHASE.  IN THIS CASE UNIT(R) IS THE WINDOW POINTING VECTOR.
000713:                                                                                                  #  3.    EXNORM IS THE EXIT USED AT OTHER TIMES DURING THE BURN.


000715:                                                                                                  #  (EXOVFLOW IS A SUBROUTINE OF EXBRAK AND EXNORM CALLED WHEN OVERFLOW OCCURRED ANYWHERE IN GUIDANCE.)
000716:
000717: 31,3275           06042        EXGSUB             TC       INTPRET                               #  COMPUTE TRIM VELOCITY CORRECTION TERM
000718: 31,3276           47175                           VLOAD    RTB
000719: 31,3277           03253                                    UNFC/2
000720: 31,3300           21727                                    NORMUNIT
000721: 31,3301           74361                           VXSC     VXSC
000722: 31,3302           03423                                    ZOOMTIME
000723: 31,3303           22001                                    TRIMACCL
000724: 31,3304           03253                           STORE    UNFC/2
000725: 31,3305           77776                           EXIT
000726:
000727: 31,3306           11647                           CCS      NGUIDSUB
000728: 31,3307           12421                           TCF      GUIDSUB
000729: 31,3310           11646                           CCS      NIGNLOOP
000730: 31,3311           13314                           TCF      +3
000731: 31,3312           05567                           TC       ALARM
000732: 31,3313           01412                           OCT      01412
000733:
000734: 31,3314           04635                 +3        TC       POSTJUMP
000735: 31,3315           65104                           CADR     DDUMCALC
000736:
000737: 31,3316           06042        EXBRAK             TC       INTPRET
000738: 31,3317           77775                           VLOAD
000739: 31,3320           03537                                    UNIT/R/
000740: 31,3321           03261                           STORE    UNWC/2
000741: 31,3322           77776                           EXIT
000742: 31,3323           13400                           TCF      STEER?
000743:
000744: 31,3324           06042        EXNORM             TC       INTPRET
000745: 31,3325           52375                           VLOAD    VSU
000746: 31,3326           03635                                    LAND
000747: 31,3327           03521                                    R
000748: 31,3330           77634                           RTB
000749: 31,3331           21727                                    NORMUNIT
000750: 31,3332           03261                           STORE    UNWC/2                                #  UNIT(LAND - R) IS TENTATIVE CHOICE
000751: 31,3333           50235                           VXV      DOT
000752: 31,3334           02146                                    XNBPIP
000753: 31,3335           02603                                    CG         +6
000754: 31,3336           77776                           EXIT                                           #  WITH PROJ IN MPAC 1/8 REAL SIZE
000755:
000756: 31,3337           40154                           CS       MPAC                                  #  GET COEFFICIENT FOR CG +14
000757: 31,3340           63714                           AD       PROJMAX
000758: 31,3341           64733                           AD       POSMAX
000759: 31,3342           54130                           TS       BUF
000760: 31,3343           40130                           CS       BUF
000761: 31,3344           26130                           ADS      BUF                                   #  RESULT IS 0 IF PROJMAX - PROJ NEGATIVE
000762:
000763: 31,3345           43715                           CS       PROJMIN                               #  GET COEFFICIENT FOR UNIT(LAND - R)
000764: 31,3346           60154                           AD       MPAC


000766: 31,3347           64733                           AD       POSMAX
000767: 31,3350           54131                           TS       BUF        +1
000768: 31,3351           40131                           CS       BUF        +1
000769: 31,3352           26131                           ADS      BUF        +1                         #  RESULT IS 0 IF PROJ - PROJMIN NEGATIVE
000770:
000771: 31,3353           34751                           CAF      FOUR
000772: 31,3354           76245        UNWCLOOP           MASK     SIX
000773: 31,3355           54002                           TS       Q
000774: 31,3356           35014                           CA       EBANK5
000775: 31,3357           54003                           TS       EBANK
000776: 31,3360  E5,1574                                  EBANK=   CG
000777: 31,3360           30130                           CA       BUF
000778: 31,3361           00006                           EXTEND
000779: 31,3362           50002                           INDEX    Q
000780: 31,3363           71610                           MP       CG         +14
000781: 31,3364           24006                           INCR     BBANK
000782: 31,3365  E6,1660                                  EBANK=   UNWC/2
000783: 31,3365           50002                           INDEX    Q
000784: 31,3366           53661                           DXCH     UNWC/2
000785: 31,3367           00006                           EXTEND
000786: 31,3370           70131                           MP       BUF        +1
000787: 31,3371           50002                           INDEX    Q
000788: 31,3372           21661                           DAS      UNWC/2
000789: 31,3373           10002                           CCS      Q
000790: 31,3374           13354                           TCF      UNWCLOOP
000791:
000792: 31,3375           31773                           CA       AZBIAS                                #  SET OUTER GIMBAL
000793: 31,3376           55677                           TS       OGABIAS                               #        ANGLE BIAS FOR WINDOW BENDING
000794:
000795: 31,3377           24006                           INCR     BBANK
000796: 31,3400  E7,1612                                  EBANK=   PIF
000797:
000798: 31,3400           30076        STEER?             CA       FLAGWRD2                              #  IF STEERSW DOWN NO OUTPUTS
000799: 31,3401           74741                           MASK     STEERBIT
000800: 31,3402           00006                           EXTEND
000801: 31,3403           13411                           BZF      RATESTOP
000802:
000803: 31,3404           30121        EXVERT             CA       OVFIND                                #  IF OVERFLOW ANYWHERE IN GUIDANCE
000804: 31,3405           00006                           EXTEND                                         #        DON'T CALL THROTTLE OR FINDCDUW
000805: 31,3406           13421                           BZF      +13
000806:
000807: 31,3407           05567        EXOVFLOW           TC       ALARM                                 #  SOUND THE ALARM NON-ABORTIVELY.
000808: 31,3410           01410                           OCT      01410
000809:
000810: 31,3411           34737        RATESTOP           CAF      BIT13                                 #  ARE WE IN ATTITUDE-HOLD?
000811: 31,3412           00006                           EXTEND
000812: 31,3413           02031                           RAND     CHAN31
000813: 31,3414           00006                           EXTEND
000814: 31,3415           13426                           BZF      DISPEXIT                              #  YES


000816: 31,3416           04616                           TC       BANKCALL                              #  NO:  DO A STOPRATE
000817: 31,3417           40166                           CADR     STOPRATE
000818:
000819: 31,3420           13426                           TCF      DISPEXIT
000820:
000821: 31,3421           02144        GDLMP1             TC       THROTTLE
000822: 31,3422           06042                           TC       INTPRET
000823: 31,3423           77624                           CALL
000824: 31,3424           61100                                    FINDCDUW   -2
000825: 31,3425           77776                           EXIT
000826:
000827:                                                                                                  #                (CONTINUE TO DISPEXIT)
000828:
000829:                                                                                                  #  ****************************************************************************************************************
000830:                                                                                                  #  GUIDANCE LOOP DISPLAYS
000831:                                                                                                  #  ****************************************************************************************************************
000832:
000833: 31,3426           00006        DISPEXIT           EXTEND                                         #  KILL GROUP 3:  DISPLAYS WILL BE
000834: 31,3427           34755                           DCA      NEG0                                  #        RESTORED BY NEXT GUIDANCE CYCLE
000835: 31,3430           52756                           DXCH     -PHASE3
000836:
000837: 31,3431  31,3431               ENDLLJOB           =        DISPEXIT   +3
000838:
000839: 31,3431           40104                 +3        CS       FLAGWRD8                              #  IF FLUNDISP IS SET, NO DISPLAY THIS PASS
000840: 31,3432           74742                           MASK     FLUNDBIT
000841: 31,3433           00006                           EXTEND
000842: 31,3434           15155                           BZF      ENDOFJOB
000843:
000844: 31,3435           51621                           INDEX    WCHPHOLD
000845: 31,3436           12404                           TCF      WHATDISP
000846:
000847: 31,3437           33716        P63DISPS           CAF      V06N63
000848: 31,3440           04616        DISPCOMN           TC       BANKCALL
000849: 31,3441           20466                           CADR     REGODSP
000850:
000851: 31,3442           31666        P64DISPS           CA       TREDES                                #  HAS TREDES REACHED ZERO?
000852: 31,3443           00006                           EXTEND
000853: 31,3444           13465                           BZF      RED-OVER                              #  YES: CLEAR REDESIGNATION FLAG
000854:
000855: 31,3445           40102                           CS       FLAGWRD6                              #  NO:  IS REDFLAG SET?
000856: 31,3446           74746                           MASK     REDFLBIT
000857: 31,3447           00006                           EXTEND
000858: 31,3450           13467                           BZF      REDES-OK                              #  YES:  DO STATIC DISPLAY
000859:
000860: 31,3451           33717                           CAF      V06N64                                #  OTHERWISE USE FLASHING DISPLAY
000861: 31,3452           04616                           TC       BANKCALL
000862: 31,3453           20460                           CADR     REFLASH
000863: 31,3454           16001                           TCF      GOTOPOOH                              #  TERMINATE


000865: 31,3455           13457                           TCF      P64CEED                               #  PROCEED       PERMIT REDESIGNATIONS
000866: 31,3456           13442                           TCF      P64DISPS                              #  RECYCLE
000867:
000868: 31,3457           34755        P64CEED            CAF      ZERO
000869: 31,3460           55446                           TS       ELINCR1
000870: 31,3461           55445                           TS       AZINCR1
000871:
000872: 31,3462           05504                           TC       UPFLAG                                #  ENABLE REDESIGNATION LOGIC
000873: 31,3463           00143                           ADRES    REDFLAG
000874:
000875: 31,3464           15155                           TCF      ENDOFJOB
000876:
000877: 31,3465           05516        RED-OVER           TC       DOWNFLAG
000878: 31,3466           00143                           ADRES    REDFLAG
000879: 31,3467           33717        REDES-OK           CAF      V06N64
000880: 31,3470           13440                           TCF      DISPCOMN
000881:
000882: 31,3471           33720        VERTDISP           CAF      V06N60
000883: 31,3472           04616                           TC       BANKCALL
000884: 31,3473           20460                           CADR     REFLASH
000885: 31,3474           16001                           TCF      GOTOPOOH                              #  TERMINATE
000886: 31,3475           13477                           TCF      STOPFIRE                              #  PROCEED
000887: 31,3476           13477                           TCF      STOPFIRE                              #  V32E
000888:
000889: 31,3477           00004        STOPFIRE           INHINT
000890: 31,3500           04616                           TC       BANKCALL
000891: 31,3501           40154                           CADR     ZATTEROR
000892: 31,3502           15155                           TCF      ENDOFJOB
000893:
000894:                                                                                                  #  ****************************************************************************************************************
000895:                                                                                                  #  GUIDANCE FOR P65
000896:                                                                                                  #  ****************************************************************************************************************
000897:
000898: 31,3503           11647        VERTGUID           CCS      WCHVERT
000899: 31,3504           13510                           TCF      P66VERT                               #  +0
000900:
000901:
000902:                                                                                                  #        THE P65 GUIDANCE EQUATION IS AS FOLLOWS:-
000903:                                                                                                  #                      -      -
000904:                                                                                                  #                      V2FG - VGU
000905:                                                                                                  #                ACG = ----------
000906:                                                                                                  #                        TAUVERT
000907:
000908: 31,3505           06042        P65VERT            TC       INTPRET
000909: 31,3506           77650                           GOTO
000910: 31,3507           65272                                    P65VERTA


000912:
000913:                                                                                                  #  ****************************************************************************************************************
000914:                                                                                                  #  GUIDANCE FOR P66
000915:                                                                                                  #  ****************************************************************************************************************
000916:
000917: 31,3510           04635        P66VERT            TC       POSTJUMP
000918: 31,3511           65300                           CADR     P66VERTA
000919:
000920: 32,2000                                           SETLOC   P66LOC
000921: 32,2000                                           BANK
000922: 32,3265                                           COUNT*   $$/F2DPS
000923:
000924: 32,3265           37713        RODTASK            CAF      PRIO22
000925: 32,3266           05105                           TC       FINDVAC
000926: 32,3267  E7,1515                                  EBANK=   DVCNTR
000927: 32,3267           03305 64067                     2CADR    RODCOMP
000928:
000929: 32,3271           15261                           TCF      TASKOVER
000930:
000931: 32,3272           52375        P65VERTA           VLOAD    VSU
000932: 32,3273           02511                                    V2FG
000933: 32,3274           03627                                    VGU
000934: 32,3275           52141                           V/SC     GOTO
000935: 32,3276           02517                                    TAUVERT
000936: 32,3277           63151                                    AFCCALC1
000937:
000938: 32,3300           05353        P66VERTA           TC       PHASCHNG                              #  TERMINATE GROUP 3.
000939: 32,3301           00003                           OCT      00003
000940:
000941: 32,3302           34777                           CAF      1SEC
000942: 32,3303           05173                           TC       TWIDDLE
000943: 32,3304           03265                           ADRES    RODTASK
000944:
000945: 32,3305           00004        RODCOMP            INHINT
000946: 32,3306           34755                           CAF      ZERO
000947: 32,3307           57746                           XCH      RODCOUNT
000948: 32,3310           00006                           EXTEND
000949: 32,3311           71756                           MP       RODSCAL1
000950: 32,3312           21645                           DAS      VDGVERT                               #  UPDATE DESIRED ALTITUDE RATE.
000951:
000952: 32,3313           00006                           EXTEND                                         #  SET OLDPIPAX,Y,Z = PIPAX,Y,Z
000953: 32,3314           30040                           DCA      PIPAX
000954: 32,3315           53764                           DXCH     OLDPIPAX
000955: 32,3316           52071                           DXCH     RUPTREG1                              #  SET RUPTREG1,2,3 = OLDPIPAX,Y,Z
000956: 32,3317           30041                           CA       PIPAZ
000957: 32,3320           57765                           XCH      OLDPIPAZ
000958: 32,3321           56072                           XCH      RUPTREG3
000959:
000960: 32,3322           00006                           EXTEND                                         #  SHAPSHOT TIME OF PIPA READING.
000961: 32,3323           30025                           DCA      TIME2
000962: 32,3324           53762                           DXCH     THISTPIP


000964: 32,3325           31763                           CA       OLDPIPAX
000965: 32,3326           61157                           AD       PIPATMPX
000966: 32,3327           54154                           TS       MPAC                                  #  MPAC(X) = PIPAX + PIPATMPX
000967: 32,3330           31764                           CA       OLDPIPAY
000968: 32,3331           61160                           AD       PIPATMPY
000969: 32,3332           54157                           TS       MPAC       +3                         #  MPAC(Y) = PIPAY + PIPATMPY
000970: 32,3333           31765                           CA       OLDPIPAZ
000971: 32,3334           61161                           AD       PIPATMPZ
000972: 32,3335           54161                           TS       MPAC       +5                         #  MPAC(Z) = PIPAZ + PIPATMPZ
000973:
000974: 32,3336           41763                           CS       OLDPIPAX
000975: 32,3337           61253                           AD       TEMX
000976: 32,3340           60070                           AD       RUPTREG1
000977: 32,3341           55766                           TS       DELVROD
000978: 32,3342           41764                           CS       OLDPIPAY
000979: 32,3343           61254                           AD       TEMY
000980: 32,3344           60071                           AD       RUPTREG2
000981: 32,3345           55770                           TS       DELVROD    +2
000982: 32,3346           41765                           CS       OLDPIPAZ
000983: 32,3347           61255                           AD       TEMZ
000984: 32,3350           60072                           AD       RUPTREG3
000985: 32,3351           55772                           TS       DELVROD    +4
000986:
000987: 32,3352           34755                           CAF      ZERO
000988: 32,3353           54155                           TS       MPAC       +1                         #  ZERO LO-ORDER MPAC COMPONENTS
000989: 32,3354           54160                           TS       MPAC       +4
000990: 32,3355           54162                           TS       MPAC       +6
000991: 32,3356           55253                           TS       TEMX                                  #  ZERO TEMX, TEMY, AND TEMZ SO WE WILL
000992: 32,3357           55254                           TS       TEMY                                  #        KNOW WHEN READACCS CHANGES THEM.
000993: 32,3360           55255                           TS       TEMZ
000994: 32,3361           44753                           CS       ONE
000995: 32,3362           54163                           TS       MODE
000996: 32,3363           06042                           TC       INTPRET
000997: 32,3364           65361        ITRPNT1            VXSC     PDDL                                  #  SCALE MPAC TO M/CS *2(-7) AND PUSH    (6)
000998: 32,3365           26022                                    KPIP1
000999: 32,3366           03762                                    THISTPIP
001000: 32,3367           77625                           DSU
001001: 32,3370           01234                                    PIPTIME
001002: 32,3371           00037                           STORE    30D                                   #  30-31D CONTAINS TIME IN CS SINCE PIPTIME
001003: 32,3372           63271                           DDV      PDVL                                  #                                        (8)
001004: 32,3373           27110                                    4SEC(28)
001005: 32,3374           01236                                    GDT/2
001006: 32,3375           74251                           VSU      VXSC                                  #                                        (6)
001007: 32,3376           02621                                    VBIAS
001008: 32,3377           53352                           VSL2     VAD
001009: 32,3400           03527                                    V
001010: 32,3401           45455                           VAD      STADR                                 #                                        (0)
001011: 32,3402           53746                           STOVL    24D                                   #  STORE UPDATED VELOCITY IN 24-29D
001012: 32,3403           03521                                    R
001013: 32,3404           77656                           UNIT


001015: 32,3405           00017                           STORE    14D
001016: 32,3406           72441                           DOT      SL1
001017: 32,3407           00031                                    24D
001018: 32,3410           17474                           STODL    HDOTDISP                              #  UPDATE ALTITUDE RATE FOR NOUN 60
001019: 32,3411           00037                                    30D
001020: 32,3412           41261                           SL       DMP
001021: 32,3413           20214                                    11D
001022: 32,3414           03474                                    HDOTDISP
001023: 32,3415           45215                           DAD      DSU
001024: 32,3416           00045                                    36D
001025: 32,3417           02333                                    /LAND/
001026: 32,3420           17775                           STODL    HCALC1                                #  UPDATE ALTITUDE FOR NOUN 60
001027: 32,3421           03474                                    HDOTDISP
001028: 32,3422           56221                           BDSU     DDV
001029: 32,3423           03645                                    VDGVERT
001030: 32,3424           02541                                    TAUROD
001031: 32,3425           51515                           PDVL     ABVAL                                 #                                (2)
001032: 32,3426           01236                                    GDT/2
001033: 32,3427           60471                           DDV      SR2
001034: 32,3430           05652                                    GSCALE
001035: 32,3431           00025                           STORE    20D
001036: 32,3432           77615                           DAD                                            #                                (0)
001037: 32,3433           45115                           PDVL     CALL                                  #                                (2)
001038: 32,3434           06522                                    UNITX
001039: 32,3435           47663                                    CDU*NBSM
001040: 32,3436           77641                           DOT
001041: 32,3437           00017                                    14D
001042: 32,3440           00027                           STORE    22D
001043: 32,3441           45465                           BDDV     STADR                                 #                                (0)
001044: 32,3442           50313                           STOVL    /AFC/
001045: 32,3443           03767                                    DELVROD
001046: 32,3444           53361                           VXSC     VAD
001047: 32,3445           26022                                    KPIP1
001048: 32,3446           02621                                    VBIAS
001049: 32,3447           65246                           ABVAL    PDDL                                  #                                (2)
001050: 32,3450           03762                                    THISTPIP
001051: 32,3451           65225                           DSU      PDDL                                  #                                (4)
001052: 32,3452           03760                                    LASTTPIP
001053: 32,3453           03762                                    THISTPIP
001054: 32,3454           17760                           STODL    LASTTPIP                              #                                (2)
001055: 32,3455           55271                           DDV      BDDV                                  #                                (0)
001056: 32,3456           25530                                    SHFTFACT
001057: 32,3457           41325                           PDDL     DMP                                   #                                (2)
001058: 32,3460           03611                                    FWEIGHT
001059: 32,3461           25527                                    BIT1H
001060: 32,3462           56271                           DDV      DDV
001061: 32,3463           01244                                    MASS
001062: 32,3464           22006                                    SCALEFAC
001063: 32,3465           65215                           DAD      PDDL                                  #                                (4)
001064: 32,3466           00001                                    0D


001066: 32,3467           00025                                    20D
001067: 32,3470           45271                           DDV      DSU                                   #                                (2)
001068: 32,3471           00027                                    22D
001069: 32,3472           43205                           DMP      DAD
001070: 32,3473           02543                                    LAG/TAU
001071: 32,3474           03464                                    /AFC/
001072: 32,3475           56325                           PDDL     DDV                                   #                                (4)
001073: 32,3476           02547                                    MAXFORCE
001074: 32,3477           01244                                    MASS
001075: 32,3500           56325                           PDDL     DDV                                   #                                (6)
001076: 32,3501           02545                                    MINFORCE
001077: 32,3502           01244                                    MASS
001078: 32,3503           44206                           PUSH     BDSU                                  #                                (8)
001079: 32,3504           00003                                    2D
001080: 32,3505           71240                           BMN      DLOAD                                 #                                (6)
001081: 32,3506           65514                                    AFCSPOT
001082: 32,3507           41545                           DLOAD    PUSH                                  #                                (6)
001083: 32,3510           51021                           BDSU     BPL
001084: 32,3511           00003                                    2D
001085: 32,3512           65514                                    AFCSPOT
001086: 32,3513           77745                           DLOAD                                          #                                (4)
001087: 32,3514           77745        AFCSPOT            DLOAD                                          #                                (2), (4), OR (6)
001088: 32,3515           77601                           SETPD                                          #                                (2)
001089: 32,3516           00003                                    2D
001090: 32,3517           17464                           STODL    /AFC/                                 #                                (0)
001091: 32,3520           77776        ITRPNT2            EXIT
001092: 32,3521           52155                           DXCH     MPAC                                  #  MPAC = MEASURED ACCELERATION.
001093: 32,3522           04616                           TC       BANKCALL
001094: 32,3523           62147                           CADR     THROTTLE   +3
001095: 32,3524           04616                           TC       BANKCALL                              #  PUT UP V06N60 DISPLAY BUT AVOID PHASCHNG
001096: 32,3525           63431                           CADR     DISPEXIT   +3
001097:
001098: 32,3526           00001        BIT1H              OCT      00001
001099: 32,3527           00000 04000  SHFTFACT           2DEC     1          B-17
001100: 32,3531           00000 05075  BIASFACT           2DEC     655.36     B-26
001101:
001102:                                                                                                  #  ****************************************************************************************************************
001103:                                                                                                  #  REDESIGNATOR TRAP
001104:                                                                                                  #  ****************************************************************************************************************
001105:
001106: 11,2302                                           BANK     11
001107: 11,2000                                           SETLOC   F2DPS*11
001108: 11,2000                                           BANK
001109:
001110: 11,2302                                           COUNT*   $$/F2DPS
001111:
001112: 11,2302           56016        PITFALL            XCH      BANKRUPT
001113: 11,2303           00006                           EXTEND
001114: 11,2304           22012                           QXCH     QRUPT


001116: 11,2305           05321                           TC       CHECKMM                               #  IF NOT IN P64, NO REASON TO CONTINUE
001117: 11,2306           00100                           DEC      64         B-14
001118: 11,2307           15270                           TCF      RESUME
001119:
001120: 11,2310           00006                           EXTEND
001121: 11,2311           00031                           READ     CHAN31
001122: 11,2312           40000                           COM
001123: 11,2313           72401                           MASK     ALL4BITS
001124: 11,2314           55444                           TS       ELVIRA
001125: 11,2315           34752                           CAF      TWO
001126: 11,2316           55443                           TS       ZERLINA
001127: 11,2317           34756                           CAF      FIVE
001128: 11,2320           05173                           TC       TWIDDLE
001129: 11,2321           02326                           ADRES    REDESMON
001130: 11,2322           15270                           TCF      RESUME
001131:
001132:                                                                                                  #  REDESIGNATION MONITOR (INITIATED BY PITFALL)
001133:
001134: 11,2323           55443        PREMON1            TS       ZERLINA
001135: 11,2324           34757        PREMON2            CAF      SEVEN
001136: 11,2325           05224                           TC       VARDELAY
001137: 11,2326           00006        REDESMON           EXTEND
001138: 11,2327           00031                           READ     31
001139: 11,2330           40000                           COM
001140: 11,2331           72401                           MASK     ALL4BITS
001141: 11,2332           57444                           XCH      ELVIRA
001142: 11,2333           54001                           TS       L
001143: 11,2334           11444                           CCS      ELVIRA                                #  DO ANY BITS APPEAR THIS PASS?
001144: 11,2335           12324                           TCF      PREMON2                               #  Y:    CONTINUE MONITOR
001145: 11,2336           10001                           CCS      L                                     #  N:    ANY LAST PASS?
001146: 11,2337           12347                           TCF      COUNT'EM                              #        Y:      COUNT 'EM, RESET RUPT, TERMINATE
001147: 11,2340           11443                           CCS      ZERLINA                               #        N:      HAS ZERLINA REACHED ZERO YET?
001148: 11,2341           12323                           TCF      PREMON1                               #                N:      DIMINISH ZERLINA, CONTINUE
001149: 11,2342           06022        RESETRPT           TC       C13STALL                              #                Y:      RESET RUPT, TERMINATE
001150: 11,2343           34740                           CAF      BIT12
001151: 11,2344           00006                           EXTEND
001152: 11,2345           05013                           WOR      CHAN13
001153: 11,2346           15261                           TCF      TASKOVER
001154:
001155: 11,2347           34737        COUNT'EM           CAF      BIT13                                 #  ARE WE IN ATTITUDE-HOLD?
001156: 11,2350           00006                           EXTEND
001157: 11,2351           02031                           RAND     CHAN31
001158: 11,2352           00006                           EXTEND
001159: 11,2353           12342                           BZF      RESETRPT                              #  YES: SKIP REDESIGNATION LOGIC.
001160: 11,2354           30001                           CA       L                                     #  NO
001161: 11,2355           74746                           MASK     -AZBIT


001163: 11,2356           10000                           CCS      A
001164: 11,2357           42402        -AZ                CS       AZEACH
001165: 11,2360           27445                           ADS      AZINCR1
001166: 11,2361           30001                           CA       L
001167: 11,2362           74747                           MASK     +AZBIT
001168: 11,2363           10000                           CCS      A
001169: 11,2364           32402        +AZ                CA       AZEACH
001170: 11,2365           27445                           ADS      AZINCR1
001171: 11,2366           30001                           CA       L
001172: 11,2367           74753                           MASK     -ELBIT
001173: 11,2370           10000                           CCS      A
001174: 11,2371           42403        -EL                CS       ELEACH
001175: 11,2372           27446                           ADS      ELINCR1
001176: 11,2373           30001                           CA       L
001177: 11,2374           74752                           MASK     +ELBIT
001178: 11,2375           10000                           CCS      A
001179: 11,2376           32403        +EL                CA       ELEACH
001180: 11,2377           27446                           ADS      ELINCR1
001181: 11,2400           12342                           TCF      RESETRPT
001182:
001183:                                                                                                  #  THESE EQUIVALENCIES ARE BASED ON GSOP CHAPTER 4, REVISION 16 OF P64LM
001184:
001185: 11,2401     4752               +ELBIT             =        BIT2                                  #  -PITCH
001186: 11,2401     4753               -ELBIT             =        BIT1                                  #  +PITCH
001187: 11,2401     4747               +AZBIT             =        BIT5
001188: 11,2401     4746               -AZBIT             =        BIT6
001189:
001190: 11,2401           00063        ALL4BITS           OCT      00063
001191: 11,2402           01074        AZEACH             DEC      .03491                                #  2 DEGREES
001192: 11,2403           00217        ELEACH             DEC      .00873                                #  1/2 DEGREE
001193:
001194:                                                                                                  #  ****************************************************************************************************************
001195:                                                                                                  #  R.O.D. TRAP
001196:                                                                                                  #  ************************************************************************
001197:
001198: 23,2000                                           SETLOC   RODTRAP


001200: 23,2000                                           BANK
001201: 23,2455                                           COUNT*   $$/F2DPS                              #  ****************************************
001202:
001203: 23,2455           74745        DESCBITS           MASK     BIT7                                  #  COME HERE FROM MARKRUPT CODING WITH BIT
001204: 23,2456           10000                           CCS      A                                     #        7 OR 6 OF CHANNEL 16 IN A; BIT 7 MEANS
001205: 23,2457           44752                           CS       TWO                                   #        - RATE INCREMENT, BIT 6 + INCREMENT
001206: 23,2460           64753                           AD       ONE
001207: 23,2461           27746                           ADS      RODCOUNT
001208: 23,2462           15270                           TCF      RESUME                                #  TRAP IS RESET WHEN SWITCH IS RELEASED
001209:
001210: 31,3512                                           BANK     31
001211: 31,2000                                           SETLOC   F2DPS*31
001212: 31,2000                                           BANK
001213:
001214: 31,3512                                           COUNT*   $$/F2DPS
001215:
001216:                                                                                                  #  ****************************************************************************************************************
001217:                                                                                                  #  DOUBLE PRECISION ROOT FINDER SUBROUTINE (BY ALLAN KLUMPP)
001218:                                                                                                  #  ****************************************************************************************************************
001219:
001220:                                                                                                  #                                                       N        N-1
001221:                                                                                                  #        ROOTPSRS FINDS ONE ROOT OF THE POWER SERIES A X  + A   X    + ... + A X + A
001222:                                                                                                  #                                                     N      N-1              1     0
001223:                                                                                                  #  USING NEWTON'S METHOD STARTING WITH AN INITIAL GUESS FOR THE ROOT.  THE ENTERING DATA MUST BE AS FOLLOWS:
001224:                                                                                                  #        A       SP      LOC-3           ADRES FOR REFERENCING PWR COF TABL
001225:                                                                                                  #        L       SP      N-1             N IS THE DEGREE OF THE POWER SERIES
001226:                                                                                                  #        MPAC    DP      X               INITIAL GUESS FOR ROOT
001227:                                                                                                  #        LOC-2N  DP      A(0)
001228:                                                                                                  #                ...
001229:                                                                                                  #        LOC     DP      A(N)
001230:                                                                                                  #        LOC+2   SP      PRECROOT         PREC RQD OF ROOT (AS FRACT OF 1ST GUESS)
001231:
001232:                                                                                                  #  THE DP RESULT IS LEFT IN MPAC UPON EXIT, AND A SP COUNT OF THE ITERATIONS TO CONVERGENCE IS LEFT IN MPAC+2.
001233:                                                                                                  #  RETURN IS NORMALLY TO LOC(TC ROOTPSRS)+3.  IF ROOTPSRS FAILS TO CONVERGE IN 8 PASSES, RETURN IS TO LOC+1 AND
001234:                                                                                                  #  OUTPUTS ARE NOT TO BE TRUSTED.
001235:
001236:                                                                                                  #  PRECAUTION:  ROOTPSRS MAKES NO CHECKS FOR OVERFLOW OR FOR IMPROPER USAGE.  IMPROPER USAGE COULD
001237:                                                                                                  #  PRECLUDE CONVERGENCE OR REQUIRE EXCESSIVE ITERATIONS.  AS A SPECIFIC EXAMPLE, ROOTPSRS FORMS A DERIVATIVE
001238:                                                                                                  #  COEFFICIENT TABLE BY MULTIPLYING EACH A(I) BY I, WHERE I RANGES FROM 1 TO N.  IF AN ELEMENT OF THE DERIVATIVE
001239:                                                                                                  #  COEFFICIENT TABLE = 1 OR >1 IN MAGNITUDE, ONLY THE EXCESS IS RETAINED.  ROOTPSRS MAY CONVERGE ON THE CORRECT
001240:                                                                                                  #  ROOT NONETHELESS, BUT IT MAY TAKE AN EXCESSIVE NUMBER OF ITERATIONS.  THEREFORE THE USER SHOULD RECOGNIZE:
001241:                                                                                                  #        1.  USER'S RESPONSIBILITY TO ASSURE THAT I X A(I) < 1 IN MAGNITUDE FOR ALL I.
001242:                                                                                                  #        2.  USER'S RESPONSIBILITY TO ASSURE OVERFLOW WILL NOT OCCUR IN EVALUATING EITHER THE RESIDUAL OR THE DERIVATIVE
001243:                                                                                                  #            POWER SERIES.  THIS OVERFLOW WOULD BE PRODUCED BY SUBROUTINE POWRSERS, CALLED BY ROOTPSRS, AND MIGHT NOT


001245:                                                                                                  #            PRECLUDE EVENTUAL CONVERGENCE.
001246:                                                                                                  #        3.  AT PRESENT, ERASABLE LOCATIONS ARE RESERVED ONLY FOR N UP TO 5.  AN N IN EXCESS OF 5 WILL PRODUCE CHAOS.
001247:                                                                                                  #            ALL ERASABLES USED BY ROOTPSRS ARE UNSWITCHED LOCATED IN THE REGION FROM MPAC-33 OCT TO MPAC+7.
001248:                                                                                                  #        4.  THE ITERATION COUNT RETURNED IN MPAC+2 MAY BE USED TO DETECT ABNORMAL PERFORMANCE.
001249:
001250:                                                                                                  #  STORE ENTERING DATA, INITLIZE ERASABLES
001251: 31,3512           00006        ROOTPSRS           EXTEND
001252: 31,3513           22132                           QXCH     RETROOT                               #  RETURN ADRES
001253: 31,3514           54117                           TS       PWRPTR                                #  PWR TABL POINTER
001254: 31,3515           52160                           DXCH     MPAC       +3                         #  PWR TABL ADRES, N-1
001255: 31,3516           33635                           CA       DERTABLL
001256: 31,3517           54141                           TS       DERPTR                                #  DER TABL POINTER
001257: 31,3520           54161                           TS       MPAC       +5                         #  DER TABL ADRES
001258: 31,3521           10160                           CCS      MPAC       +4                         #  NO POWER SERIES OF DEGREE 1 OR LESS
001259: 31,3522           54162                           TS       MPAC       +6                         #  N-2
001260: 31,3523           34755                           CA       ZERO                                  #  MODE USED AS ITERATION COUNTER.  MODE
001261: 31,3524           54163                           TS       MODE                                  #  MUST BE POS SO ABS WON'T COMP MPAC+3 ETC
001262:
001263:                                                                                                  #  COMPUTE CRITERION TO STOP ITERATING
001264: 31,3525           00006                           EXTEND
001265: 31,3526           30155                           DCA      MPAC                                  #  FETCH ROOT GUESS, KEEPING IT IN MPAC
001266: 31,3527           52127                           DXCH     ROOTPS                                #  AND IN ROOTPS
001267: 31,3530           50157                           INDEX    MPAC       +3                         #  PWR TABL ADRES
001268: 31,3531           30005                           CA       5                                     #  PRECROOT TO A
001269: 31,3532           07312                           TC       SHORTMP                               #  YIELDS DP PRODUCT IN MPAC
001270: 31,3533           04713                           TC       USPRCADR
001271: 31,3534           01226                           CADR     ABS                                   #  YIELDS ABVAL OF CRITERION ON DX IN MPAC
001272: 31,3535           52155                           DXCH     MPAC
001273: 31,3536           52125                           DXCH     DXCRIT                                #  CRITERION
001274:
001275:                                                                                                  #  SET UP DER COF TABL
001276: 31,3537           00006                           EXTEND
001277: 31,3540           50117                           INDEX    PWRPTR
001278: 31,3541           30004                           DCA      3
001279: 31,3542           52155                           DXCH     MPAC                                  #  A(N) TO MPAC
001280:
001281: 31,3543           30160                           CA       MPAC       +4                         #  N-1 TO A
001282:
001283: 31,3544           54140        DERCLOOP           TS       PWRCNT                                #  LOOP COUNTER
001284: 31,3545           64753                           AD       ONE
001285: 31,3546           07321                           TC       DMPNSUB                               #  YIELDS DERCOF = I X A(I) IN MPAC
001286: 31,3547           00006                           EXTEND
001287: 31,3550           50117                           INDEX    PWRPTR
001288: 31,3551           30002                           DCA      1
001289: 31,3552           52155                           DXCH     MPAC                                  #  A(I-1) TO MPAC, FETCHING DERCOF


001291: 31,3553           50141                           INDEX    DERPTR
001292: 31,3554           52004                           DXCH     3                                     #  DERCOF TO DER TABL
001293: 31,3555           44752                           CS       TWO
001294: 31,3556           26117                           ADS      PWRPTR                                #  DECREMENT PWR POINTER
001295: 31,3557           44752                           CS       TWO
001296: 31,3560           26141                           ADS      DERPTR                                #  DECREMENT DER POINTER
001297: 31,3561           10140                           CCS      PWRCNT
001298: 31,3562           13544                           TCF      DERCLOOP
001299:
001300:                                                                                                  #  CONVERGE ON ROOT
001301: 31,3563           00006        ROOTLOOP           EXTEND
001302: 31,3564           30127                           DCA      ROOTPS                                #  FETCH CURRENT ROOT
001303: 31,3565           52155                           DXCH     MPAC                                  #  LEAVE IN MPAC
001304: 31,3566           00006                           EXTEND
001305: 31,3567           30162                           DCA      MPAC       +5                         #  LOAD A, L WITH DER TABL ADRES, N-2
001306: 31,3570           07220                           TC       POWRSERS                              #  YIELDS DERIVATIVE IN MPAC
001307:
001308: 31,3571           00006                           EXTEND
001309: 31,3572           30127                           DCA      ROOTPS
001310: 31,3573           52155                           DXCH     MPAC                                  #  CURRENT ROOT TO MPAC, FETCHING DERIVTIVE
001311: 31,3574           52131                           DXCH     BUF                                   #  LEAVE DERIVATIVE IN BUF AS DIVISOR
001312: 31,3575           00006                           EXTEND
001313: 31,3576           30160                           DCA      MPAC       +3                         #  LOAD A, L WITH PWR TABL ADRES, N-1
001314: 31,3577           07220                           TC       POWRSERS                              #  YIELDS RESIDUAL IN MPAC
001315:
001316: 31,3600           04713                           TC       USPRCADR
001317: 31,3601           00353                           CADR     DDV/BDDV                              #  YIELDS -DX IN MPAC
001318:
001319: 31,3602           00006                           EXTEND
001320: 31,3603           40155                           DCS      MPAC                                  #  FETCH DX, LEAVING -DX IN MPAC
001321: 31,3604           20127                           DAS      ROOTPS                                #  CORRECTED ROOT NOW IN ROOTPS
001322:
001323: 31,3605           04713                           TC       USPRCADR
001324: 31,3606           01226                           CADR     ABS                                   #  YIELDS ABS(DX) IN MPAC
001325: 31,3607           00006                           EXTEND
001326: 31,3610           40125                           DCS      DXCRIT
001327: 31,3611           20155                           DAS      MPAC                                  #  ABS(DX)-ABS(DXCRIT) IN MPAC
001328:
001329: 31,3612           30163                           CA       MODE
001330: 31,3613           74750                           MASK     BIT4                                  #  KLUMPP SAYS GIVE UP AFTER EIGHT PASSES
001331: 31,3614           10000                           CCS      A
001332: 31,3615           00132        BADROOT            TC       RETROOT
001333:
001334: 31,3616           24163                           INCR     MODE                                  #  INCREMENT ITERATION COUNTER
001335: 31,3617           10154                           CCS      MPAC                                  #  TEST HI ORDER DX
001336: 31,3620           13563                           TCF      ROOTLOOP
001337: 31,3621           13623                           TCF      TESTLODX
001338: 31,3622           13627                           TCF      ROOTSTOR
001339: 31,3623           10155        TESTLODX           CCS      MPAC       +1                         #  TEST LO ORDER DX


001341: 31,3624           13563                           TCF      ROOTLOOP
001342: 31,3625           13627                           TCF      ROOTSTOR
001343: 31,3626           13627                           TCF      ROOTSTOR
001344: 31,3627           52127        ROOTSTOR           DXCH     ROOTPS
001345: 31,3630           52155                           DXCH     MPAC
001346: 31,3631           30163                           CA       MODE
001347: 31,3632           54156                           TS       MPAC       +2                         #  STORE SP ITERATION COUNT IN MPAC+2
001348: 31,3633           50132                           INDEX    RETROOT
001349: 31,3634           10002                           TCF      2
001350:
001351: 31,3635           00147        DERTABLL           ADRES    DERCOFN    -3
001352:
001353:                                                                                                  #  ****************************************************************************************************************
001354:                                                                                                  #  TRASHY LITTLE SUBROUTINES
001355:                                                                                                  #  ****************************************************************************************************************
001356:
001357: 31,3636           51346        INTPRETX           INDEX    WCHPHASE                              #  SET X1 ON THE WAY TO THE INTERPRETER
001358: 31,3637           42413                           CS       TARGTDEX
001359: 31,3640           50120                           INDEX    FIXLOC
001360: 31,3641           54046                           TS       X1
001361: 31,3642           16042                           TCF      INTPRET
001362:
001363: 31,3643           31642        TDISPSET           CA       TTF/8
001364: 31,3644           00006                           EXTEND
001365: 31,3645           74750                           MP       TSCALINV
001366: 31,3646           53476                           DXCH     TTFDISP
001367:
001368: 31,3647           35014                           CA       EBANK5                                #  TREDES BECOMES ZERO TWO PASSES
001369: 31,3650           54003                           TS       EBANK                                 #        BEFORE TCGFAPPR IS REACHED
001370: 31,3651  E5,1470                                  EBANK=   TCGFAPPR
001371: 31,3651           31470                           CA       TCGFAPPR
001372: 31,3652           24006                           INCR     BBANK
001373: 31,3653           24006                           INCR     BBANK
001374: 31,3654  E7,1642                                  EBANK=   TTF/8
001375: 31,3654           61642                           AD       TTF/8
001376: 31,3655           00006                           EXTEND
001377: 31,3656           73711                           MP       TREDESCL
001378: 31,3657           63706                           AD       -DEC103
001379: 31,3660           64735                           AD       NEGMAX
001380: 31,3661           54001                           TS       L
001381: 31,3662           40001                           CS       L
001382: 31,3663           60001                           AD       L
001383: 31,3664           63710                           AD       +DEC99
001384: 31,3665           64733                           AD       POSMAX
001385: 31,3666           55666                           TS       TREDES
001386: 31,3667           41666                           CS       TREDES
001387: 31,3670           27666                           ADS      TREDES
001388: 31,3671           00002                           TC       Q
001389:


001391: 31,3672           05642        1406P00            TC       POODOO
001392: 31,3673           21406                           OCT      21406
001393: 31,3674           05567        1406ALM            TC       ALARM
001394: 31,3675           01406                           OCT      01406
001395: 31,3676           13411                           TCF      RATESTOP
001396:
001397:                                                                                                  #  ****************************************************************************************************************
001398:                                                                                                  #  SPECIALIZED "PHASCHNG" SUBROUTINE
001399:                                                                                                  #  ****************************************************************************************************************
001400:
001401: 31,3677  E3,1440                                  EBANK=   PHSNAME2
001402: 31,3677           35007        FASTCHNG           CA       EBANK3                                #  SPECIALIZED 'PHASCHNG' ROUTINE
001403: 31,3700           56003                           XCH      EBANK
001404: 31,3701           52002                           DXCH     L
001405: 31,3702           55442                           TS       PHSNAME3
001406: 31,3703           22003                           LXCH     EBANK
001407: 31,3704  E7,1621                                  EBANK=   E2DPS
001408: 31,3704           00000                           TC       A
001409:
001410:                                                                                                  #  ****************************************************************************************************************
001411:                                                                                                  #  PARAMETER TABLE INDIRECT ADDRESSES
001412:                                                                                                  #  ****************************************************************************************************************
001413:
001414: 31,3705  E5,1402               RDG                =        RBRFG
001415: 31,3705  E5,1410               VDG                =        VBRFG
001416: 31,3705  E5,1416               ADG                =        ABRFG
001417: 31,3705  E5,1424               VDG2TTF            =        VBRFG*
001418: 31,3705  E5,1426               ADG2TTF            =        ABRFG*
001419: 31,3705  E5,1430               JDG2TTF            =        JBRFG*
001420:
001421:                                                                                                  #  ****************************************************************************************************************
001422:                                                                                                  #  LUNAR LANDING CONSTANTS
001423:                                                                                                  #  ***************************************************************************************************************
001424:
001425: 31,3705           01565        TABLTTFL           ADRES    TABLTTF    +3                         #  ADDRESS FOR REFERENCING TTF TABLE
001426: 31,3706     4740               TTFSCALE           =        BIT12
001427: 31,3706     4750               TSCALINV           =        BIT4
001428: 31,3706           77630        -DEC103            DEC      -103       B-14
001429: 31,3707           00155        P64DB              OCT      00155                                 #  0.3 DEGREES SCALED AT CDU SCALING


001431: 31,3710           00143        +DEC99             DEC      +99        B-14
001432: 31,3711           75340        TREDESCL           DEC      -.08
001433: 31,3712           00264        180DEGS            DEC      +180       B-14
001434: 31,3713           00056        1/2DEG             DEC      +.00278
001435: 31,3714           01542        PROJMAX            DEC      .42262     B-3                        #  SIN(25')/8 TO COMPARE WITH PROJ
001436: 31,3715           01022        PROJMIN            DEC      .25882     B-3                        #  SIN(15')/8 TO COMPARE WITH PROJ
001437: 31,3716           01477        V06N63             VN       0663                                  #  P63
001438: 31,3717           01500        V06N64             VN       0664                                  #  P64
001439: 31,3720           01474        V06N60             VN       0660                                  #  P65, P66, P67
001440:
001441: 22,3647                                           BANK     22
001442: 22,2000                                           SETLOC   LANDCNST
001443: 22,2000                                           BANK
001444: 22,3647                                           COUNT*   $$/F2DPS
001445:
001446: 22,3647           00021 14161  HIGHESTF           2DEC     4.34546769 B-12
001447: 22,3651           01440 00000  GSCALE             2DEC     100        B-11
001448: 22,3653           14000 00000  3/8DP              2DEC     .375
001449: 22,3655           30000 00000  3/4DP              2DEC     .750
001450: 22,3657           77534 45074  DEPRCRIT           2DEC     -.02       B-1
001451:
001452:                                                                                                  #  ****************************************************************************************************************
001453:                                                                                                  #  ****************************************************************************************************************

End of include-file LUNAR_LANDING_GUIDANCE_EQUATIONS.agc.  Parent file is MAIN.agc


