
Source Code


000002:                                                                                                  #  Copyright:    Public domain.
000003:                                                                                                  #  Filename:     P-AXIS_RCS_AUTOPILOT.agc
000004:                                                                                                  #  Purpose:      A section of Luminary 1C, revision 131.
000005:                                                                                                  #                It is part of the source code for the Lunar Module's (LM)
000006:                                                                                                  #                Apollo Guidance Computer (AGC) for Apollo 13 and Apollo 14.
000007:                                                                                                  #                This file is intended to be a faithful transcription, except
000008:                                                                                                  #                that the code format has been changed to conform to the
000009:                                                                                                  #                requirements of the yaYUL assembler rather than the
000010:                                                                                                  #                original YUL assembler.
000011:                                                                                                  #  Reference:    pp. 1418-1438 of 1729.pdf.
000012:                                                                                                  #  Contact:      Ron Burkey <info@sandroid.org>.
000013:                                                                                                  #  Website:      www.ibiblio.org/apollo/index.html
000014:                                                                                                  #  Mod history:  06/07/03 RSB.   Began transcribing.
000015:                                                                                                  #                05/14/05 RSB    Corrected website reference above.
000016:                                                                                                  #                2010-10-25 JL   Added missing # in comment. Indentation fixes.
000017:
000018:                                                                                                  #  Page 1418
000019: 16,2213                                           BANK     16
000020: 16,2000                                           SETLOC   DAPS1
000021: 16,2000                                           BANK
000022:
000023: 16,2213  E6,1464                                  EBANK=   PERROR
000024: 16,2213                                           COUNT*   $$/DAPP
000025:
000026:                                                                                                  #  THE FOLLOWING T5RUPT ENTRY BEGINS THE PROGRAM WHICH CONTROLS THE P-AXIS ACTION OF THE LEM USING THE RCS JETS.
000027:                                                                                                  #  THE NOMINAL TIME BETWEEN THE P-AXIS RUPTS IS 100 MS IN ALL NON-IDLING MODES OF THE DAP.
000028:
000029: 16,2213           37732        PAXIS              CA       MS100
000030: 16,2214           26030                           ADS      TIME5                                 #  *** NECESSARY IN ORDER TO ALLOW
000031:                                                                                                  #  SYNCHRONIZATION WITH OTHER INTERRUPTS ***
000032:
000033: 16,2215           22016                           LXCH     BANKRUPT                              #  INTERRUPT LEAD IN (CONTINUED)
000034: 16,2216           00006                           EXTEND
000035: 16,2217           22012                           QXCH     QRUPT
000036:
000037:                                                                                                  #  CHECK IF DAP PASS IS PERMISSIBLE
000038:
000039: 16,2220           11756                           CCS      DAPZRUPT                              #  IF DAPZRUPT POSITIVE, DAP (JASK) IS
000040: 16,2221           05624                           TC       BAILOUT                               #  STILL IN PROGRESS AND A RESTART IS
000041: 16,2222           32000                           OCT      32000                                 #  CALLED FOR.  IT IS NEVER ZERO
000042:
000043: 16,2223           02000                           TC       CHEKBITS                              #  RETUR IS TC I+1 IF DAP SHOULD STAY ON.
000044:
000045: 16,2224           30032                           CA       CDUX                                  #  READ AND STORE CDU'S
000046: 16,2225           55747                           TS       DAPTREG4
000047: 16,2226           30033                           CA       CDUY
000048: 16,2227           55750                           TS       DAPTREG5
000049: 16,2230           30034                           CA       CDUZ
000050: 16,2231           55751                           TS       DAPTREG6
000051:
000052:                                                                                                  #  ***** KALCMANU-DAP AND "RATE-HOLD"-DAP INTERFACE *****
000053:
000054:                                                                                                  #  THE FOLLOWING SECTION IS EXECUTED EVERY 100 MS (10 TIMES A SECOND) WITHIN THE P-AXIS REACTION CONTROL SYSTEM
000055:                                                                                                  #  AUTOPILOT (WHENEVER THE DAP IS IN OPERATION).
000056:
000057: 16,2232           31634                           CA       CDUXD
000058: 16,2233           00006                           EXTEND
000059: 16,2234           21637                           MSU      DELCDUX
000060: 16,2235           02256                           TC       1STOTWOS
000061: 16,2236           55634                           TS       CDUXD
000062: 16,2237           31635                           CA       CDUYD
000063: 16,2240           00006                           EXTEND
000064: 16,2241           21640                           MSU      DELCDUY
000065: 16,2242           02256                           TC       1STOTWOS
000066: 16,2243           55635                           TS       CDUYD
000067: 16,2244           31636                           CA       CDUZD
000068: 16,2245           00006                           EXTEND
000069: 16,2246           21641                           MSU      DELCDUZ
000070:                                                                                                  #  Page 1419
000071: 16,2247           02256                           TC       1STOTWOS
000072: 16,2250           55636                           TS       CDUZD
000073: 16,2251           00006                           EXTEND                                         #  DIMINISH MANUAL CONTROL DIRECT RATE
000074: 16,2252           27445                           DIM      TCP                                   #  TIME COUNTERS.
000075: 16,2253           00006                           EXTEND
000076: 16,2254           27457                           DIM      TCQR
000077:
000078:                                                                                                  #  RATFLOOP COMPUTES JETRATEQ, JRATER, AND 1JACC*NO. PJEETS IN ITEMP1.
000079:                                                                                                  #  RETURNS TO BACKP.
000080:
000081:                                                                                                  #  JETRATE = 1JACC*NO.PJETS*TJP                  (NOTE TJ IS THE TIME FIRED DURING CSP)
000082:                                                                                                  #  JETRATEQ = 1JACCQ(TJU*NO.UJETS - TJV*NO.VJETS)
000083:                                                                                                  #  JETRATER = 1JACCR(TJU*NO.UJETS + TJV*NO.VJETS)
000084:
000085: 16,2255           12647                           TCF      PAXFILT                               #  PROCEEDS TO RATELOOP AFTER SUPERJOB
000086: 16,2256           10000        1STOTWOS           CCS      A
000087: 16,2257           64753                           AD       ONE
000088: 16,2260           00002                           TC       Q
000089: 16,2261           40000                           CS       A
000090: 16,2262           00002                           TC       Q
000091: 16,2263           00006        SUBDIVDE           EXTEND                                         #  OVERFLOW PROTECTION ROUTINE TO GIVE
000092: 16,2264           71740                           MP       DAPTEMP3                              #  POSMAX OR NEGMAX IF THE DIVIDE WOULD
000093: 16,2265           21427                           DAS      OMEGAU                                #  OVERFLOW
000094:
000095: 16,2266           00006                 +3        EXTEND
000096: 16,2267           31427                           DCA      OMEGAU
000097: 16,2270           53743                           DXCH     DAPTEMP5
000098: 16,2271           11426                           CCS      OMEGAU
000099: 16,2272           12274                           TCF      +2
000100: 16,2273           12304                           TCF      DIVIDER
000101: 16,2274           62315                           AD       -OCT630
000102: 16,2275           00006                           EXTEND
000103: 16,2276           62304                           BZMF     DIVIDER
000104:
000105: 16,2277           11426                           CCS      OMEGAU
000106: 16,2300           34733                           CA       POSMAX                                #  45 DEG/SEC
000107: 16,2301           00002                           TC       Q
000108: 16,2302           44733                           CS       POSMAX
000109: 16,2303           00002                           TC       Q
000110:
000111: 16,2304           53427        DIVIDER            DXCH     OMEGAU
000112: 16,2305           00006                           EXTEND
000113: 16,2306           11747                           DV       DAPTREG4
000114: 16,2307           00002                           TC       Q
000115:
000116: 16,2310           54007        OVERSUB            TS       7                                     #  RETURNS A UNCHANGED OR LIMITED TO
000117: 16,2311           00002                           TC       Q                                     #  POSMAX OR NEGMAX IF A HAS OVERFLOW
000118: 16,2312           50000                           INDEX    A
000119: 16,2313           44734                           CS       BIT15      -1
000120:                                                                                                  #  Page 1420
000121: 16,2314           00002                           TC       Q
000122:
000123: 16,2315           77147        -OCT630            OCT      77147
000124:
000125: 16,2316           31736        BACKP              CA       DAPTEMP1
000126: 16,2317           00006                           EXTEND
000127: 16,2320           71530                           MP       1JACC
000128: 16,2321           55744                           TS       JETRATE
000129:
000130:                                                                                                  #  BEGINNING OF THE RATE DERIVATION
000131:                                                                                                  #        OMEGAP,Q,R      BODY RATES SCALED AT PI/4
000132:                                                                                                  #        TRAPEDP,Q,R     BODY ANGLE ERRORS FROM PREDICTED ANGLE (PI/40)
000133:                                                                                                  #        NP(QR)TRAPS     NUMBER OF TIMES ANGLE ERROR HAS BEEN ACCUMULATED
000134:                                                                                                  #        AOSQ(R)TERM     CHANGE IN RATE DUE TO OFFSET ACCELERATION.  (PI/4)
000135:                                                                                                  #        JETRATE,Q,R     CHANGE IN RATE DUE TO JET ACCELERATION.  (PI/4)
000136:                                                                                                  #        TRAPSIZE        NEGATIVE LIMIT OF MAGNITUDE OF TRAEDP, ETC.
000137:                                                                                                  #        OMEGAU          DP-TEMPORARY STORAGE
000138:                                                                                                  #  OMEGA = OMEGA + JETRATE + AOSTERM (+TRAPED/NTRAPS IF TRAPED BIG)
000139:
000140: 16,2322           31747                           CAE      DAPTREG4                              #  CDUX IS STORED HERE
000141: 16,2323           54001                           TS       L
000142: 16,2324           00006                           EXTEND
000143: 16,2325           21440                           MSU      OLDXFORP                              #  SCALED AT PI
000144: 16,2326           23440                           LXCH     OLDXFORP
000145: 16,2327           55736                           TS       DAPTEMP1
000146: 16,2330           33624                           CA       1/40
000147: 16,2331           55747                           TS       DAPTREG4
000148: 16,2332           41744                           CS       JETRATE
000149: 16,2333           00006                           EXTEND
000150: 16,2334           74736                           MP       BIT14
000151: 16,2335           27430                           ADS      TRAPEDP
000152: 16,2336           31745                           CA       JETRATEQ
000153: 16,2337           61544                           AD       AOSQTERM
000154: 16,2340           00006                           EXTEND
000155: 16,2341           77741                           MP       -BIT14
000156: 16,2342           27431                           ADS      TRAPEDQ
000157: 16,2343           31746                           CA       JETRATER
000158: 16,2344           61545                           AD       AOSRTERM
000159: 16,2345           00006                           EXTEND
000160: 16,2346           77741                           MP       -BIT14
000161: 16,2347           27432                           ADS      TRAPEDR
000162:
000163: 16,2350           31750                           CA       DAPTREG5                              #  CDUY IS STORED HERE
000164: 16,2351           54001                           TS       L
000165: 16,2352           00006                           EXTEND
000166: 16,2353           21441                           MSU      OLDYFORP                              #  SCALED AT PI
000167: 16,2354           23441                           LXCH     OLDYFORP
000168: 16,2355           55737                           TS       DAPTEMP2
000169: 16,2356           00006                           EXTEND
000170: 16,2357           71414                           MP       M11                                   #  M11 SCALED AT 1
000171:                                                                                                  #  Page 1421
000172: 16,2360           61736                           AD       DAPTEMP1
000173: 16,2361           53427                           DXCH     OMEGAU
000174:
000175: 16,2362           02266                           TC       SUBDIVDE   +3                         #  RETURNS WITH CDU-RATE AT PI/4
000176:
000177: 16,2363           00006                           EXTEND
000178: 16,2364           61421                           SU       OMEGAP
000179: 16,2365           27430                           ADS      TRAPEDP
000180: 16,2366           02310                           TC       OVERSUB
000181: 16,2367           55430                           TS       TRAPEDP
000182: 16,2370           00006                           EXTEND
000183: 16,2371           31743                           DCA      DAPTEMP5
000184: 16,2372           21447                           DAS      DXERROR
000185: 16,2373           41454                           CS       PLAST
000186: 16,2374           00006                           EXTEND
000187: 16,2375           73624                           MP       1/40
000188: 16,2376           21447                           DAS      DXERROR                               #  MANUAL MODE X-ATTITUDE ERROR (DP)
000189: 16,2377           31751                           CA       DAPTREG6                              #  CDUZ IS STORED HERE
000190: 16,2400           54001                           TS       L
000191: 16,2401           00006                           EXTEND
000192: 16,2402           21442                           MSU      OLDZFORQ
000193: 16,2403           55740                           TS       DAPTEMP3
000194: 16,2404           23442                           LXCH     OLDZFORQ
000195: 16,2405           31415                           CA       M21
000196: 16,2406           00006                           EXTEND
000197: 16,2407           71737                           MP       DAPTEMP2
000198: 16,2410           53427                           DXCH     OMEGAU
000199: 16,2411           31417                           CA       M22
000200: 16,2412           02263                           TC       SUBDIVDE
000201:
000202: 16,2413           00006                           EXTEND
000203: 16,2414           61422                           SU       OMEGAQ
000204: 16,2415           27431                           ADS      TRAPEDQ
000205: 16,2416           02310                           TC       OVERSUB
000206: 16,2417           55431                           TS       TRAPEDQ
000207: 16,2420           00006                           EXTEND
000208: 16,2421           31743                           DCA      DAPTEMP5
000209: 16,2422           21451                           DAS      DYERROR
000210: 16,2423           41455                           CS       QLAST
000211: 16,2424           00006                           EXTEND
000212: 16,2425           73624                           MP       1/40
000213: 16,2426           21451                           DAS      DYERROR                               #  MANUAL MODE Y-ATTITUDE ERROR (DP)
000214: 16,2427           31416                           CA       M31
000215: 16,2430           00006                           EXTEND
000216: 16,2431           71737                           MP       DAPTEMP2
000217: 16,2432           53427                           DXCH     OMEGAU
000218: 16,2433           31420                           CA       M32
000219:
000220: 16,2434           02263                           TC       SUBDIVDE
000221:                                                                                                  #  Page 1422
000222: 16,2435           00006                           EXTEND
000223: 16,2436           61423                           SU       OMEGAR
000224: 16,2437           27432                           ADS      TRAPEDR
000225: 16,2440           02310                           TC       OVERSUB
000226: 16,2441           55432                           TS       TRAPEDR                               #  TRAPEDS HAVE ALL BEEN COMPUTED
000227:
000228: 16,2442           00006                           EXTEND
000229: 16,2443           31743                           DCA      DAPTEMP5
000230: 16,2444           21453                           DAS      DZERROR
000231: 16,2445           41456                           CS       RLAST
000232: 16,2446           00006                           EXTEND
000233: 16,2447           73624                           MP       1/40
000234: 16,2450           21453                           DAS      DZERROR                               #  MANUAL MODE Z-ATTITUDE ERROR (DP)
000235: 16,2451           30111                           CA       DAPBOOLS                              #  PICK UP PAD LOADED STATE ESTIMATOR GAINS
000236: 16,2452           74737                           MASK     CSMDOCKD
000237: 16,2453           00006                           EXTEND
000238: 16,2454           12462                           BZF      LMONLY
000239: 16,2455           00006                           EXTEND                                         #  DOCKED
000240: 16,2456           31405                           DCA      DKOMEGAN
000241: 16,2457           53750                           DXCH     DAPTREG4
000242: 16,2460           31403                           CA       DKTRAP
000243: 16,2461           12466                           TCF      +5
000244: 16,2462           00006        LMONLY             EXTEND                                         #  UNDOCKED
000245: 16,2463           31410                           DCA      LMOMEGAN
000246: 16,2464           53750                           DXCH     DAPTREG4
000247: 16,2465           31406                           CA       LMTRAP
000248: 16,2466           55751                 +5        TS       DAPTREG6
000249: 16,2467           11430                           CCS      TRAPEDP
000250: 16,2470           12472                           TCF      +2
000251: 16,2471           12507                           TCF      SMALPDIF
000252: 16,2472           61751                           AD       DAPTREG6                              #  TRAPSIZE > ABOUT 77001 %-1.4DEG/SEC"
000253: 16,2473           00006                           EXTEND
000254: 16,2474           62507                           BZMF     SMALPDIF
000255: 16,2475           22007                           ZL
000256: 16,2476           23430                           LXCH     TRAPEDP
000257: 16,2477           34755                           CA       ZERO
000258: 16,2500           00006                           EXTEND
000259: 16,2501           11433                           DV       NPTRAPS
000260: 16,2502           27421                           ADS      OMEGAP
000261: 16,2503           02310                           TC       OVERSUB
000262: 16,2504           55421                           TS       OMEGAP
000263: 16,2505           31747                           CA       DAPTREG4                              #  ABOUT 10 OR 0 FOR DOCKED OR UNDOCKED
000264: 16,2506           55433                           TS       NPTRAPS
000265: 16,2507           25433        SMALPDIF           INCR     NPTRAPS
000266: 16,2510           31744        P-RATE             CA       JETRATE
000267: 16,2511           27421                           ADS      OMEGAP
000268: 16,2512           02310                           TC       OVERSUB
000269: 16,2513           55421                           TS       OMEGAP
000270:
000271: 16,2514           11431                           CCS      TRAPEDQ
000272:                                                                                                  #  Page 1423
000273: 16,2515           12517                           TCF      +2
000274: 16,2516           12544                           TCF      Q-RATE
000275: 16,2517           61751                           AD       DAPTREG6                              #  TRAPSIZE > ABOUT 77001 %-1.4DEG/SEC"
000276: 16,2520           00006                           EXTEND
000277: 16,2521           62544                           BZMF     Q-RATE
000278: 16,2522           22007                           ZL
000279: 16,2523           23431                           LXCH     TRAPEDQ
000280: 16,2524           34755                           CA       ZERO
000281: 16,2525           00006                           EXTEND
000282: 16,2526           11434                           DV       NQTRAPS
000283: 16,2527           55736                           TS       DAPTEMP1                              #  SAVE FOR OFFSET ESTIMATE
000284: 16,2530           27422                           ADS      OMEGAQ
000285: 16,2531           02310                           TC       OVERSUB
000286: 16,2532           55422                           TS       OMEGAQ
000287: 16,2533           31747                           CA       DAPTREG4                              #  ABOUT 10 OR 0 FOR DOCKED OR UNDOCKED
000288: 16,2534           57434                           XCH      NQTRAPS
000289: 16,2535           61750                           AD       DAPTREG5                              #  KAOS > ABOUT 60D %N/N_60"
000290: 16,2536           57736                           XCH      DAPTEMP1
000291: 16,2537           00006                           EXTEND
000292: 16,2540           74756                           MP       FIVE
000293: 16,2541           00006                           EXTEND
000294: 16,2542           11736                           DV       DAPTEMP1
000295: 16,2543           27536                           ADS      AOSQ
000296: 16,2544           25434        Q-RATE             INCR     NQTRAPS
000297: 16,2545           31745                           CA       JETRATEQ
000298: 16,2546           61544                           AD       AOSQTERM
000299: 16,2547           27422                           ADS      OMEGAQ
000300: 16,2550           02310                           TC       OVERSUB
000301: 16,2551           55422                           TS       OMEGAQ
000302:
000303: 16,2552           11432                           CCS      TRAPEDR
000304: 16,2553           12555                           TCF      +2
000305: 16,2554           12602                           TCF      R-RATE
000306: 16,2555           61751                           AD       DAPTREG6                              #  TRAPSIZE > ABOUT 77001 %-1.4DEG/SEC"
000307: 16,2556           00006                           EXTEND
000308: 16,2557           62602                           BZMF     R-RATE
000309: 16,2560           22007                           ZL
000310: 16,2561           23432                           LXCH     TRAPEDR
000311: 16,2562           34755                           CA       ZERO
000312: 16,2563           00006                           EXTEND
000313: 16,2564           11435                           DV       NRTRAPS
000314: 16,2565           55737                           TS       DAPTEMP2                              #  SAVE FOR OFFSET ESTIMATE
000315: 16,2566           27423                           ADS      OMEGAR
000316: 16,2567           02310                           TC       OVERSUB
000317: 16,2570           55423                           TS       OMEGAR
000318: 16,2571           31747                           CA       DAPTREG4                              #  ABOUT 10 OR 0 FOR DOCKED OR UNDOCKED
000319: 16,2572           57435                           XCH      NRTRAPS
000320: 16,2573           61750                           AD       DAPTREG5                              #  KAOS > ABOUT 60D %N/N_60"
000321: 16,2574           57737                           XCH      DAPTEMP2
000322: 16,2575           00006                           EXTEND
000323:                                                                                                  #  Page 1424
000324: 16,2576           74756                           MP       FIVE
000325: 16,2577           00006                           EXTEND
000326: 16,2600           11737                           DV       DAPTEMP2
000327: 16,2601           27540                           ADS      AOSR
000328: 16,2602           25435        R-RATE             INCR     NRTRAPS
000329: 16,2603           31746                           CA       JETRATER
000330: 16,2604           61545                           AD       AOSRTERM
000331: 16,2605           27423                           ADS      OMEGAR
000332: 16,2606           02310                           TC       OVERSUB
000333: 16,2607           55423                           TS       OMEGAR
000334:
000335:                                                                                                  #  END OF RATE DERIVATION
000336:                                                                                                  #        BEGIN OFFSET ESTIMATER
000337:                                                                                                  #                IN POWERED FLIGHT, AOSTASK WILL BE CALLED EVERY 2 SECONDS.
000338:                                                                                                  #                        AOS = AOS + K*SUMRATE
000339:
000340: 16,2610           40111                           CS       DAPBOOLS
000341: 16,2611           74744                           MASK     DRIFTBIT
000342: 16,2612           10000                           CCS      A
000343: 16,2613           12624                           TCF      WORKTIME
000344: 16,2614           55424                           TS       ALPHAQ                                #  ZERO THE OFFSET ACCELERATION VALUES.
000345: 16,2615           55425                           TS       ALPHAR
000346: 16,2616           55544                           TS       AOSQTERM
000347: 16,2617           55545                           TS       AOSRTERM
000348: 16,2620           55536                           TS       AOSQ
000349: 16,2621           55540                           TS       AOSR
000350: 16,2622           12667                           TCF      PRETIMCK
000351: 16,2623           00074        KAOS               DEC      60         B-14
000352: 16,2624           31510        WORKTIME           CA       QACCDOT
000353: 16,2625           00006                           EXTEND
000354: 16,2626           74766                           MP       CALLCODE                              #  OCTAL 00032 IS DECIMAL .1 AT 2(6).
000355: 16,2627           21537                           DAS      AOSQ
000356: 16,2630           31536                           CA       AOSQ
000357: 16,2631           55424                           TS       ALPHAQ
000358: 16,2632           00006                           EXTEND
000359: 16,2633           73622                           MP       200MS                                 #  .2 AT 1
000360: 16,2634           55544                           TS       AOSQTERM
000361: 16,2635           31512                           CA       RACCDOT
000362: 16,2636           00006                           EXTEND
000363: 16,2637           74766                           MP       CALLCODE                              #  OCTAL 00032 IS DECIMAL .1 AT 2(6).
000364: 16,2640           21541                           DAS      AOSR
000365: 16,2641           31540                           CA       AOSR
000366: 16,2642           55425                           TS       ALPHAR
000367: 16,2643           00006                           EXTEND
000368: 16,2644           73622                           MP       200MS                                 #  .2 AT 1
000369: 16,2645           55545                           TS       AOSRTERM
000370: 16,2646           12667                           TCF      PRETIMCK
000371:
000372:                                                                                                  #  Page 1425
000373: 16,2647           34747        PAXFILT            CA       CALLGMBL                              #  EXECUTE ACDT+C12, IF NEEDED.
000374: 16,2650           71262                           MASK     RCSFLAGS
000375: 16,2651           10000                           CCS      A                                     #  CALLGMBL IS NOT BIT15, SO THIS TEST IS
000376: 16,2652           03742                           TC       ACDT+C12                              #  VALID.
000377:
000378: 16,2653           52011                           DXCH     ARUPT
000379: 16,2654           53753                           DXCH     DAPARUPT
000380: 16,2655           32666                           CA       SUPERJOB                              #  SETTING UP THE SUPERJOB
000381: 16,2656           56017                           XCH      BRUPT
000382: 16,2657           22012                           LXCH     QRUPT
000383: 16,2660           53755                           DXCH     DAPBQRPT
000384: 16,2661           32665                           CA       SUPERADR
000385: 16,2662           52016                           DXCH     ZRUPT
000386: 16,2663           53757                           DXCH     DAPZRUPT
000387: 16,2664           15275                           TCF      NOQBRSM    +1                         #  RELINT (JUST IN CASE) AND RESUME, IN THE
000388:                                                                                                  #        FORM OF A JASK, AT SUPERJOB.
000389:
000390: 16,2665           02667        SUPERADR           GENADR   SUPERJOB   +1
000391:
000392:                                                                                                  #  COUNT DOWN GIMBAL DRIVE TIMERS AND TURN OFF DRIVES IF REQUIRED.
000393:
000394: 16,2666           13645        SUPERJOB           TCF      RATELOOP
000395: 16,2667           11631        PRETIMCK           CCS      QGIMTIMR
000396: 16,2670           12710                           TCF      DECQTIMR                              #  POSITIVE -- COUNTING DOWN
000397: 16,2671           12714                           TCF      TURNOFFQ                              #  NEGATIVE -- DRIVE SHOULD BE ENDED
000398: 16,2672           11633        CHKRTIMR           CCS      RGIMTIMR                              #  NEGATIVE -- INACTIVE
000399: 16,2673           12712                           TCF      DECRTIMR                              #  (NEG ZERO -- IMPOSSIBLE)
000400: 16,2674           12724                           TCF      TURNOFFR                              #  REPEATED (ABOVE) FOR R AXIS.
000401:
000402: 16,2675           00006                           EXTEND                                         #  DECREMENT DOCKED JET INHIBITION COUNTERS
000403: 16,2676           27766                           DIM      PJETCTR
000404: 16,2677           00006                           EXTEND
000405: 16,2700           27767                           DIM      UJETCTR
000406: 16,2701           00006                           EXTEND
000407: 16,2702           27770                           DIM      VJETCTR
000408: 16,2703           34740                           CA       BIT12
000409: 16,2704           71262                           MASK     RCSFLAGS
000410: 16,2705           00006                           EXTEND
000411: 16,2706           12734                           BZF      SKIPPAXS
000412: 16,2707           02740                           TC       CHKVISFZ
000413: 16,2710           55631        DECQTIMR           TS       QGIMTIMR                              #  COUNT TIMERS DOWN TO POS ZERO.
000414: 16,2711           12672                           TCF      CHKRTIMR
000415: 16,2712           55633        DECRTIMR           TS       RGIMTIMR
000416: 16,2713           12675                           TCF      CHKRTIMR   +3
000417:
000418: 16,2714           55501        TURNOFFQ           TS       NEGUQ                                 #  HALT DRIVES.
000419: 16,2715           55510                           TS       QACCDOT
000420: 16,2716           45007                           CS       QGIMBITS
000421: 16,2717           00006                           EXTEND
000422:                                                                                                  #  Page 1426
000423: 16,2720           03012                           WAND     CHAN12
000424: 16,2721           34735                           CAF      NEGMAX
000425: 16,2722           55631                           TS       QGIMTIMR
000426: 16,2723           12672                           TCF      CHKRTIMR
000427: 16,2724           55503        TURNOFFR           TS       NEGUR
000428: 16,2725           55512                           TS       RACCDOT
000429: 16,2726           45020                           CS       RGIMBITS
000430: 16,2727           00006                           EXTEND
000431: 16,2730           03012                           WAND     CHAN12
000432: 16,2731           34735                           CAF      NEGMAX
000433: 16,2732           55633                           TS       RGIMTIMR
000434: 16,2733           12675                           TCF      CHKRTIMR   +3
000435: 16,2734     5007               QGIMBITS           EQUALS   OCT1400                               #  BITS 9 AND 10 (OF CHANNEL 12).
000436: 16,2734     5020               RGIMBITS           EQUALS   PRIO6                                 #  BITS 11 AND 12 (OF CHANNEL 12).
000437:
000438: 16,2734           41262        SKIPPAXS           CS       RCSFLAGS
000439: 16,2735           74740                           MASK     BIT12
000440: 16,2736           27262                           ADS      RCSFLAGS                              #  BIT 12 SET TO 1.
000441: 16,2737           13630                           TCF      QRAXIS                                #  GO TO QRAXIS OR TO CTS.
000442:
000443:                                                                                                  #  Y-X TRANSLATION
000444:
000445:                                                                                                  #  INPUT:        BITS 9-12 OF CH31 (FROM TRANSLATION CONTROLLER)
000446:
000447:                                                                                                  #  OUTPUT:       NEXTP
000448:                                                                                                  #                NEXTP IS THE CHANNEL 6 CODE OF JETS FOR THE DESIRED TRANSLATION.
000449:                                                                                                  #                IF THERE ARE FAILURES IN THE DESIRED POLICY, THEN
000450:                                                                                                  #                (1) FOR DIAGONAL TRANS:         UNFAILED PAIR
000451:                                                                                                  #                                                ALARM (IF NO PAIR)
000452:                                                                                                  #                (2) FOR PRINCIPAL TRANS:        TRY TO TACK WITH DIAGONAL PAIRS
000453:                                                                                                  #                                                ALARM (IF DIAGONAL PAIRS ARE FAILED)
000454:
000455: 16,2740           00006        CHKVISFZ           EXTEND
000456: 16,2741           00031                           READ     CHAN31
000457: 16,2742           40000                           CS       A
000458: 16,2743           73617                           MASK     07400OCT
000459: 16,2744           00006                           EXTEND
000460: 16,2745           13014                           BZF      TSNEXTP
000461: 16,2746           00006                           EXTEND
000462: 16,2747           74745                           MP       BIT7
000463: 16,2750           50000                           INDEX    A
000464: 16,2751           33576                           CA       INDXYZ
000465: 16,2752           55743                           TS       ROTINDEX
000466: 16,2753           36245        TRYUORV            CA       SIX
000467: 16,2754           03555                           TC       SELECTYZ
000468: 16,2755           46245                           CS       SIX
000469: 16,2756           61742                           AD       NUMBERT
000470: 16,2757           00006                           EXTEND
000471:                                                                                                  #  Page 1427
000472: 16,2760           13013                           BZF      TSNEXTP    -1
000473: 16,2761           44756                           CS       FIVE
000474: 16,2762           61743                           AD       ROTINDEX
000475: 16,2763           00006                           EXTEND
000476: 16,2764           63002                           BZMF     ALTERYZ
000477: 16,2765           41742                           CS       NUMBERT
000478: 16,2766           64751                           AD       FOUR
000479: 16,2767           00006                           EXTEND
000480: 16,2770           63013                           BZMF     TSNEXTP    -1
000481: 16,2771           05567        ABORTYZ            TC       ALARM
000482: 16,2772           02001                           OCT      02001
000483: 16,2773           34753                           CA       BIT1                                  #  INVERT BIT 1 OF RCSFLAGS.
000484: 16,2774           23262                           LXCH     RCSFLAGS
000485: 16,2775           00006                           EXTEND
000486: 16,2776           06001                           RXOR     1
000487: 16,2777           55262                           TS       RCSFLAGS
000488: 16,3000           34755                           CA       ZERO
000489: 16,3001           13014                           TCF      TSNEXTP
000490: 16,3002           34753        ALTERYZ            CA       BIT1                                  #  INVERT BIT 1 OF RCSFLAGS.
000491: 16,3003           23262                           LXCH     RCSFLAGS
000492: 16,3004           00006                           EXTEND
000493: 16,3005           06001                           RXOR     1
000494: 16,3006           55262                           TS       RCSFLAGS
000495: 16,3007           74753                           MASK     BIT1
000496: 16,3010           64751                           AD       FOUR
000497: 16,3011           27743                           ADS      ROTINDEX
000498: 16,3012           12753                           TCF      TRYUORV
000499: 16,3013           31740                           CA       POLYTEMP
000500: 16,3014           55472        TSNEXTP            TS       NEXTP
000501:
000502:                                                                                                  #  STATE LOGIC
000503:                                                                                                  #        CHECK IN ORDER:         IF ON
000504:                                                                                                  #        LPDPHASE                GO TO PURGENCY
000505:                                                                                                  #        PULSES                  MINIMUM PULSE LOTIC
000506:                                                                                                  #        DETENT(BIT15 CH31)      RATE COMMAND
000507:                                                                                                  #        GOTO TO PURGENCY
000508:
000509: 16,3015           34737                           CA       BIT13                                 #  CHECK STICK IF IN ATT. HOLD.
000510: 16,3016           00006                           EXTEND
000511: 16,3017           02031                           RAND     CHAN31
000512: 16,3020           00006                           EXTEND
000513: 16,3021           13027                           BZF      MANMODE
000514:
000515: 16,3022           30111                           CA       DAPBOOLS
000516: 16,3023           74743                           MASK     XOVINHIB
000517: 16,3024           10000                           CCS      A
000518: 16,3025           13467                           TCF      PURGENCY                              #  ATTITUDE STEER DURING VISIBILITY PHASE
000519:
000520: 16,3026           13071                           TCF      DETENTCK
000521: 16,3027           34735        MANMODE            CA       PULSES                                #  PULSES IS ONE FOR PULSE MODE
000522: 16,3030           70111                           MASK     DAPBOOLS
000523:                                                                                                  #  Page 1428
000524: 16,3031           00006                           EXTEND
000525: 16,3032           13071                           BZF      DETENTCK                              #  BRANCH FOR RATE COMMAND
000526:
000527: 16,3033           34755                           CA       ZERO
000528: 16,3034           55464                           TS       PERROR
000529:
000530:                                                                                                  #  MINIMUM IMPULSE MODE
000531:
000532: 16,3035           30032                           CA       CDUX
000533: 16,3036           55634                           TS       CDUXD
000534:
000535: 16,3037           11460                           CCS      OLDPMIN
000536: 16,3040           13054                           TCF      CHECKP
000537:
000538: 16,3041           34751        FIREP              CA       BIT3
000539: 16,3042           00006                           EXTEND
000540: 16,3043           02031                           RAND     CHAN31
000541: 16,3044           00006                           EXTEND
000542: 16,3045           13064                           BZF      +XMIN
000543:
000544: 16,3046           34750                           CA       BIT4
000545: 16,3047           00006                           EXTEND
000546: 16,3050           02031                           RAND     CHAN31
000547: 16,3051           00006                           EXTEND
000548: 16,3052           13062                           BZF      -XMIN
000549:
000550: 16,3053           13446                           TCF      JETSOFF
000551:
000552: 16,3054           00006        CHECKP             EXTEND
000553: 16,3055           00031                           READ     CHAN31
000554: 16,3056           40000                           CS       A
000555: 16,3057           75741                           MASK     OCT14
000556: 16,3060           55460                           TS       OLDPMIN
000557: 16,3061           13446                           TCF      JETSOFF
000558:
000559: 16,3062           44363        -XMIN              CS       TEN                                   #  ANYTHING LESS THAN 14MS. CORRECTED
000560: 16,3063           13065                           TCF      +2                                    #        IN JET SELECTION ROUTINE
000561: 16,3064           34363        +XMIN              CA       TEN
000562: 16,3065           55524                           TS       TJP
000563: 16,3066           34753                           CA       ONE
000564: 16,3067           55460                           TS       OLDPMIN
000565: 16,3070           13354                           TCF      PJETSLEC   -6
000566:
000567:                                                                                                  #                                        MANUAL RATE COMMAND MODE
000568:                                                                                                  #                                        ========================
000569:                                                                                                  #                                          BY ROBERT F. STENGEL
000570:
000571:                                                                                                  #  THIS MODE PROVIDES RCAH MANUAL CONTROL THRU 2 CONTROL LAWS:  1) DIRECT RATE AND 2) PSEUDO-AUTO.
000572:                                                                                                  #  THE DIRECT RATE MODE AFFORDS IMMEDIATE CONTROL WITHOUT OVERSHOOT.  THE PSEUDO-AUTO MODE PROVIDES PRECISE
000573:                                                                                                  #  RATE CONTROL AND ATTITUDE HOLD.
000574:
000575:                                                                                                  #  Page 1429
000576:                                                                                                  #  IN DIRECT RATE, JETS ARE FIRED WHEN STICK POSITION CHANGES BY A FIXED NUMBER OF INCREMENTS IN ONE DAP CYCLE.
000577:                                                                                                  #  THE `BREAKOUT LEVEL' IS .6 D/S FOR LM-ONLY AND .3 D/S FOR CSM-DOCKED.  THIS LAW NULLS THE RATE ERROR TO WITHIN
000578:                                                                                                  #  THE `TARGET DEADBAND', WHICH EQUALS THE BREAKOUT LEVEL.
000579:
000580:                                                                                                  #  IN PSEUDO-AUTO, BODY-FIXED RATE AND ATTITUDE ERRORS ARE SUPPLIED TO TJETLAW, WHICH EXERCISES CONTROL.
000581:                                                                                                  #  CONTROL SWITCHES FROM DIRECT RATE TO PSEUDO-AUTO IF THE TARGET DB IS ACHIEVED OR IF TIME IN (1) EXCEEDS 4 SEC.
000582:                                                                                                  #  IF THE INITIAL COMMAND DOES NOT EXCEED THE BREAKOUT LEVEL, CONTROL GOES TO PSEUDO-AUTO IMMEDIATELY.
000583:
000584:                                                                                                  #  SINCE P-AXIS CONTROL IS SEPARATE FROM Q,R AXES CONTROL, IT IS POSSIBLE TO USE (1) IN P-AXIS AND (2) IN Q,R AXES,
000585:                                                                                                  #  OR VICE VERSA.  THIS ALLOWS A DEGREE OF ATTITUDE HOLD IN UNCONTROLLED AXES.  DUE TO U,V CONTROL, HOWEVER, Q AND
000586:                                                                                                  #  R AXES ARE COUPLED AND MUST USE TEH SAME CONTROL LAW.
000587:
000588:                                                                                                  #  HAND CONTROLLER COMMANDS ARE SCALED BY A LINEAR/QUADRATIC LAW.  FOR THE LM-ALONE, MAXIMUM COMMANDED RATES ARE 20
000589:                                                                                                  #  AND 4 D/S IN NORMAL AND FINE SCALING; HOWEVER, STICK SENSITIVITY AT ZERO COUNTS (OBTAINED AT A STICK DEFLECTION
000590:                                                                                                  #  OF 2 DEGREES FROM THE CENTERED POSITION) IS .5 OR .1 D/S PER DEGREE.  NORMAL AND FINE SCALINGS FOR THE CSM-DOCKED
000591:                                                                                                  #  CASE IS AUTOMATICALLY SET TO 1/10 THE ABOVE VALUES.  SCALING IS DETERMINED IN ROUTINE 3.
000592:
000593:                                                                                                  #  ZEROENBL      ENABLES COUNTERS SO THEY CAN BE READ NEXT TIME
000594:                                                                                                  #  JUSTOUT       FIRST DETECTION OF OUT OF DETENT (BY OURRCBIT)
000595:
000596: 16,3071           00006        DETENTCK           EXTEND
000597: 16,3072           00031                           READ     CHAN31
000598: 16,3073           55443                           TS       CH31TEMP
000599: 16,3074           74735                           MASK     BIT15                                 #  CHECK OUT-OF-DETENT BIT.
000600: 16,3075           00006                           EXTEND
000601: 16,3076           13223                           BZF      RHCMOVED                              #  BRANCH IF OUT OF DETENT.
000602: 16,3077           34740                           CAF      OURRCBIT                              #  IN DETENT.  CHECK THE RATE COMMAND BIT.
000603: 16,3100           70111                           MASK     DAPBOOLS
000604: 16,3101           00006                           EXTEND
000605: 16,3102           13467                           BZF      PURGENCY                              #  BRANCH IF NOT IN RATE COMMAND LAST PASS.
000606:
000607:                                                                                                  #  ................................................................................
000608:
000609: 16,3103           34743                           CA       BIT9                                  #  JUST IN DETENT??
000610: 16,3104           71262                           MASK     RCSFLAGS
000611: 16,3105           00006                           EXTEND
000612: 16,3106           13120                           BZF      RUTH
000613: 16,3107           34737                           CAF      BIT13                                 #  CHECK FOR ATTITUDE HOLD.
000614: 16,3110           00006                           EXTEND
000615: 16,3111           02031                           RAND     CHAN31
000616: 16,3112           00006                           EXTEND
000617: 16,3113           13220                           BZF      RATEDAMP                              #  BRANCH IF IN ATTITUDE HOLD.
000618:
000619: 16,3114           45014                           CS       BITS9,11                              #  IN AUTO.
000620: 16,3115           71262                           MASK     RCSFLAGS                              #  (X-AXIS OVERRIDE)
000621: 16,3116           55262                           TS       RCSFLAGS                              #  ZERO ORBIT (BIT 11) AND JUST-IN BIT (9).
000622: 16,3117           13220                           TCF      RATEDAMP
000623:
000624: 16,3120           31262        RUTH               CA       RCSFLAGS
000625: 16,3121           74742                           MASK     PBIT                                  #  IN ATTITUDE HOLD.
000626: 16,3122           00006                           EXTEND
000627: 16,3123           13125                           BZF      +2                                    #  BRANCH IF P-RATE DAMPING IS FINISHED.
000628: 16,3124           13220                           TCF      RATEDAMP
000629:
000630:                                                                                                  #  Page 1430
000631: 16,3125           31262                           CA       RCSFLAGS
000632: 16,3126           74741                           MASK     QRBIT
000633: 16,3127           00006                           EXTEND
000634: 16,3130           13134                           BZF      RATEDONE                              #  BRANCH IF Q,R RATE DAMPING IS FINISHED.
000635: 16,3131           13220                           TCF      RATEDAMP
000636:
000637:                                                                                                  #  ============================================
000638:
000639: 16,3132     4753               1/10SEC            =        BIT1
000640: 16,3132     4771               40CYC              =        OCT50
000641: 16,3132           74777        PQRBIT             OCT      74777
000642: 16,3133     5014               BITS9,11           EQUALS   EBANK5
000643: 16,3133           00056        LINRATP            DEC      46         B-14
000644:
000645:                                                                                                  #  ============================================
000646:
000647: 16,3134           44740        RATEDONE           CS       OURRCBIT                              #  MANUAL COMMAND AND DAMPING COMPLETED IN
000648: 16,3135           00004                           INHINT                                         #  ALL AXES.
000649: 16,3136           70111                           MASK     DAPBOOLS
000650: 16,3137           54111                           TS       DAPBOOLS
000651:
000652:                                                                                                  #  READ CDUS INTO CDU DESIRED REGISTERS
000653:
000654: 16,3140           34737                           CAF      BIT13
000655: 16,3141           00006                           EXTEND
000656: 16,3142           02031                           RAND     CHAN31
000657: 16,3143           00006                           EXTEND
000658: 16,3144           13150                           BZF      +4
000659: 16,3145           30032                           CA       CDUX                                  #  (X-AXIS OVERRIDE)
000660: 16,3146           55634                           TS       CDUXD
000661: 16,3147           03152                           TC       +3
000662: 16,3150           04674                           TC       IBNKCALL
000663: 16,3151           40154                           FCADR    ZATTEROR
000664: 16,3152           00003                           RELINT
000665: 16,3153           13467                           TCF      PURGENCY
000666:
000667: 16,3154           55464                           TS       PERROR
000668: 16,3155           34740        JUSTOUT            CA       OURRCBIT                              #  INITIALIZATION -- FIRST MANUAL PASS.
000669: 16,3156           26111                           ADS      DAPBOOLS
000670: 16,3157           34755                           CA       ZERO
000671: 16,3160           55446                           TS       DXERROR
000672: 16,3161           55447                           TS       DXERROR    +1
000673: 16,3162           55450                           TS       DYERROR
000674: 16,3163           55451                           TS       DYERROR    +1
000675: 16,3164           55452                           TS       DZERROR
000676: 16,3165           55453                           TS       DZERROR    +1
000677: 16,3166           55454                           TS       PLAST
000678: 16,3167           55455                           TS       QLAST
000679: 16,3170           55456                           TS       RLAST
000680: 16,3171           54042                           TS       Q-RHCCTR
000681: 16,3172           54044                           TS       R-RHCCTR
000682: 16,3173           33132                           CA       PQRBIT
000683: 16,3174           71262                           MASK     RCSFLAGS
000684: 16,3175           55262                           TS       RCSFLAGS                              #  BITS 10 AND 11 OF RCSFLAGS ARE 0.
000685:                                                                                                  #  Page 1431
000686: 16,3176           03201                           TC       ZEROENBL
000687: 16,3177           00003                           RELINT
000688: 16,3200           13446                           TCF      JETSOFF
000689: 16,3201           22044        ZEROENBL           LXCH     R-RHCCTR
000690: 16,3202           30042                           CA       Q-RHCCTR
000691: 16,3203           53463                           DXCH     SAVEHAND
000692: 16,3204           34755                           CA       ZERO
000693: 16,3205           54043                           TS       P-RHCCTR
000694: 16,3206           54042                           TS       Q-RHCCTR
000695: 16,3207           54044                           TS       R-RHCCTR
000696: 16,3210           00004                           INHINT
000697: 16,3211           00006                           EXTEND
000698: 16,3212           23265                           QXCH     C13QSAV
000699: 16,3213           06022                           TC       C13STALL
000700:
000701: 16,3214           33623                           CA       BITS8,9
000702: 16,3215           00006                           EXTEND
000703: 16,3216           05013                           WOR      CHAN13                                #  COUNTERS ZEROED AND ENABLED
000704: 16,3217           01265                           TC       C13QSAV
000705:
000706: 16,3220           34755        RATEDAMP           CA       ZERO
000707: 16,3221           54043                           TS       P-RHCCTR
000708: 16,3222           13232                           TCF      RATERROR
000709:
000710: 16,3223           41262        RHCMOVED           CS       RCSFLAGS                              #  SET JUSTIN BIT TO 1
000711: 16,3224           74743                           MASK     BIT9
000712: 16,3225           27262                           ADS      RCSFLAGS
000713: 16,3226           34740                           CA       OURRCBIT                              #  P CONTROL
000714: 16,3227           70111                           MASK     DAPBOOLS
000715: 16,3230           00006                           EXTEND
000716: 16,3231           13154                           BZF      JUSTOUT    -1
000717: 16,3232           30032        RATERROR           CA       CDUX                                  #  FINDCDUW REQUIRES THAT CDUXD=CDUX DURING
000718: 16,3233           55634                           TS       CDUXD                                 #  X-AXIS OVERRIDE
000719: 16,3234           10043                           CCS      P-RHCCTR
000720: 16,3235           13240                           TCF      +3
000721: 16,3236           13240                           TCF      +2
000722: 16,3237           13240                           TCF      +1
000723: 16,3240           60000                           DOUBLE                                         #  LINEAR/QUADRATIC CONTROLLER SCALING
000724: 16,3241           60000                           DOUBLE                                         #  (SEE EXPLANATION OF Q,R-AXES RCS
000725: 16,3242           63133                           AD       LINRATP                               #  AUTOPILOT)
000726: 16,3243           00006                           EXTEND
000727: 16,3244           70043                           MP       P-RHCCTR
000728: 16,3245           30001                           CA       L
000729: 16,3246           00006                           EXTEND
000730: 16,3247           71444                           MP       STIKSENS
000731: 16,3250           57454                           XCH      PLAST
000732: 16,3251           40000                           COM
000733: 16,3252           61454                           AD       PLAST
000734: 16,3253           55736                           TS       DAPTEMP1
000735: 16,3254           03201                           TC       ZEROENBL                              #  INTERVAL.  ZERO AND ENABLE ACA COUNTERS.
000736:                                                                                                  #  Page 1432
000737: 16,3255           00003                           RELINT
000738: 16,3256           41454                           CS       PLAST
000739: 16,3257           61421                           AD       OMEGAP
000740: 16,3260           55427                           TS       EDOTP
000741: 16,3261           11736                           CCS      DAPTEMP1                              #  IF P COMMAND CHANGE EXCEEDS BREAKOUT
000742: 16,3262           13265                           TCF      +3                                    #  LEVEL, GO TO DIRECT RATE CONTROL.  IF NOT
000743: 16,3263           13273                           TCF      +8D                                   #  CHECK FOR DIRECT RATE CONTROL LAST TIME.
000744: 16,3264           13265                           TCF      +1
000745: 16,3265           61476                           AD       -RATEDB
000746: 16,3266           00006                           EXTEND
000747: 16,3267           63273                           BZMF     +4
000748: 16,3270           34771                           CA       40CYC
000749: 16,3271           55445                           TS       TCP
000750: 16,3272           03304                           TC       PEGI
000751: 16,3273           31262                           CA       RCSFLAGS                              #  CHECK FOR DIRECT RATE COMMAND LAST TIME.
000752: 16,3274           74742                           MASK     PBIT
000753: 16,3275           00006                           EXTEND
000754: 16,3276           13300                           BZF      +2
000755: 16,3277           03304                           TC       PEGI                                  #  TO PURE RATE COMMAND
000756: 16,3300           31446                           CA       DXERROR                               #  PSEUDO-AUTO CONTROL.
000757: 16,3301           55751                           TS       E                                     #  X-ATTITUDE ERROR (SP)
000758: 16,3302           55464                           TS       PERROR                                #  LOAD P-AXIS ERROR FOR MODE1 FDAI DISPLAY
000759: 16,3303           03473                           TC       PURGENCY   +4
000760: 16,3304           30032        PEGI               CA       CDUX                                  #  DIRECT RATE CONTROL.
000761: 16,3305           55634                           TS       CDUXD
000762: 16,3306           34755                           CA       ZERO
000763: 16,3307           55446                           TS       DXERROR
000764: 16,3310           55447                           TS       DXERROR    +1
000765: 16,3311           55464                           TS       PERROR                                #  ZERO P-AXIS ERROR FOR MODE1 FDAI DISPLAY
000766: 16,3312           11427                           CCS      EDOTP
000767: 16,3313           03316                           TC       +3
000768: 16,3314           03316                           TC       +2
000769: 16,3315           03316                           TC       +1
000770: 16,3316           55736                           TS       ABSEDOTP
000771: 16,3317           61476                           AD       TARGETDB
000772: 16,3320           00006                           EXTEND                                         #  IF RATE ERROR IS LESS THAN DEADBANK,
000773: 16,3321           63331                           BZMF     LAST                                  #  FIRE, AN SWITCH TO PSEUDO-AUTO.
000774: 16,3322           31445                           CA       TCP
000775: 16,3323           00006                           EXTEND                                         #  IF TIME IN RATE COMMAND EXCEEDS 4 SEC.
000776: 16,3324           63331                           BZMF     LAST
000777: 16,3325           41262                           CS       RCSFLAGS
000778: 16,3326           74742                           MASK     PBIT
000779: 16,3327           27262                           ADS      RCSFLAGS                              #  BIT 10 IS 1.
000780: 16,3330           13334                           TCF      +4
000781: 16,3331           44742        LAST               CS       PBIT
000782: 16,3332           71262                           MASK     RCSFLAGS
000783: 16,3333           55262                           TS       RCSFLAGS                              #  BIT 10 IS 0.
000784: 16,3334           41427                           CS       EDOTP
000785: 16,3335           00006                           EXTEND
000786: 16,3336           71550                           MP       1/ANETP                               #  1/2JTACC SCALED AT 2EXP(7)/PI
000787:                                                                                                  #  Page 1433
000788: 16,3337           20001                           DAS      A
000789: 16,3340           02310                           TC       OVERSUB
000790: 16,3341           00006                           EXTEND
000791: 16,3342           77721                           MP       25/32                                 #  A CONTAINS TJET SCALED AT 2EXP(4)(16/25)
000792: 16,3343           55524                           TS       TJP                                   #  4.JET TIME
000793: 16,3344           31736                           CA       ABSEDOTP
000794: 16,3345           61475                           AD       -2JETLIM                              #  COMPARING DELTA RATE WITH 2 JET LIMIT
000795: 16,3346           00006                           EXTEND
000796: 16,3347           63352                           BZMF     +3
000797:
000798: 16,3350           36245                           CA       SIX
000799: 16,3351           13361                           TCF      +8D
000800: 16,3352           31524                           CA       TJP
000801: 16,3353           27524                           ADS      TJP
000802:
000803:                                                                                                  #  GOES TO PJETSLEC FOR TWO JETS
000804:                                                                                                  #  P-JET-SELECTION-ROUTINE (ROTATION)
000805:
000806:                                                                                                  #  INPUT:        NUMBERT         4,5,6 FOR WHICH PAIR OR 4 JETS
000807:                                                                                                  #                TJP             + FOR +P ROTATION
000808:
000809:                                                                                                  #  OUTPUT:       CHANNEL 6
000810:                                                                                                  #                PJUMPADR        FOR P-AXIS SKIP
000811:                                                                                                  #                (JTLST CALL)    (SMALL TJP)
000812:
000813:                                                                                                  #  ORDER OF POLICIES TRIED IN CASE OF FAILURE.
000814:                                                                                                  #        +P      -P
000815:                                                                                                  #        7,15    8,16
000816:                                                                                                  #        4,12    3,11
000817:                                                                                                  #        4,7     8,11
000818:                                                                                                  #        7,12    11,16
000819:                                                                                                  #        12,15   3,16
000820:                                                                                                  #        4,15    3,8
000821:                                                                                                  #        ALARM   ALARM
000822:
000823: 16,3354           34747                           CA       AORBSYST
000824: 16,3355           70101                           MASK     FLAGWRD5
000825: 16,3356           10000                           CCS      A
000826: 16,3357           34753                           CA       ONE
000827: 16,3360           64751                           AD       FOUR
000828: 16,3361           55742                           TS       NUMBERT
000829: 16,3362           34753        PJETSLEC           CA       ONE
000830: 16,3363           54001                           TS       L
000831: 16,3364           11524                           CCS      TJP
000832: 16,3365           13372                           TCF      +5
000833: 16,3366           13446                           TCF      JETSOFF
000834: 16,3367           13371                           TCF      +2
000835: 16,3370           13446                           TCF      JETSOFF
000836: 16,3371           22007                           ZL
000837: 16,3372           64753                           AD       ONE
000838: 16,3373           55736                           TS       ABSTJ
000839:                                                                                                  #  Page 1434
000840: 16,3374           23743                           LXCH     ROTINDEX
000841: 16,3375           03535                           TC       SELECTP
000842: 16,3376           46245                           CS       SIX
000843: 16,3377           61742                           AD       NUMBERT
000844: 16,3400           00006                           EXTEND
000845: 16,3401           13403                           BZF      +2
000846:
000847: 16,3402           44752                           CS       TWO
000848: 16,3403           64751                           AD       FOUR
000849: 16,3404           55521                           TS       NO.PJETS
000850: 16,3405           31740                           CA       POLYTEMP
000851: 16,3406           05744                           TC       WRITEP
000852: 16,3407           41736                           CS       ABSTJ
000853: 16,3410           63616                           AD       +150MST6
000854: 16,3411           00006                           EXTEND
000855: 16,3412           63630                           BZMF     QRAXIS                                #  GO TO QRAXIS OR TO GTS.
000856:
000857: 16,3413           63576                           AD       -136MST6
000858: 16,3414           00006                           EXTEND
000859: 16,3415           63422                           BZMF     +5
000860:
000861: 16,3416           27736                           ADS      ABSTJ
000862: 16,3417           51743                           INDEX    ROTINDEX
000863: 16,3420           33625                           CA       MINTIMES
000864: 16,3421           55524                           TS       TJP
000865:
000866: 16,3422           31736                           CA       ABSTJ
000867: 16,3423           22007                           ZL
000868: 16,3424           00004                           INHINT
000869: 16,3425           53471                           DXCH     T6FURTHA
000870: 16,3426           04674                           TC       IBNKCALL
000871: 16,3427           37143                           CADR     JTLST
000872: 16,3430           44740                           CS       BIT12
000873: 16,3431           71262                           MASK     RCSFLAGS
000874: 16,3432           55262                           TS       RCSFLAGS                              #  BIT 12 SET TO 0.
000875: 16,3433           03435                           TC       ALTSYST
000876: 16,3434           13630                           TCF      QRAXIS
000877:
000878: 16,3435           30101        ALTSYST            CA       FLAGWRD5                              #  ALTERNATE P-AXIS JETS
000879: 16,3436           54001                           TS       L
000880: 16,3437           34747                           CA       AORBSYST
000881: 16,3440           00006                           EXTEND
000882: 16,3441           06001                           RXOR     LCHAN
000883: 16,3442           54101                           TS       FLAGWRD5
000884: 16,3443           00003                           RELINT
000885: 16,3444           00002                           TC       Q
000886:
000887: 16,3445           03435        DKALT              TC       ALTSYST
000888:
000889: 16,3446           05743        JETSOFF            TC       WRITEP     -1
000890:                                                                                                  #  Page 1435
000891: 16,3447           34755                           CA       ZERO
000892: 16,3450           55524                           TS       TJP
000893: 16,3451           13630                           TCF      QRAXIS
000894:
000895:                                                                                                  #  (NOTE -- M13 = 1 IDENTICALLY IMPLIES NULL MULTIPLICATION.)
000896:
000897: 16,3452           30033        CALCPERR           CA       CDUY                                  #  P-ERROR CALCULATION.
000898: 16,3453           00006                           EXTEND
000899: 16,3454           21635                           MSU      CDUYD                                 #  CDU VALUE -- ANGLE DESIRED (Y-AXIS)
000900: 16,3455           00006                           EXTEND
000901: 16,3456           71414                           MP       M11                                   #  (CDUY-CDUYD)M1 SCALED AT PI RADIANS
000902: 16,3457           57751                           XCH      E                                     #  SAVE FIRST TERM (OF TWO)
000903: 16,3460           30032                           CA       CDUX                                  #  THIRD COMPONENT
000904: 16,3461           00006                           EXTEND
000905: 16,3462           21634                           MSU      CDUXD                                 #  CDU VALUE -- ANGLE DESIRED (X-AXIS)
000906:                                                                                                  #                EXTEND
000907:                                                                                                  #                MP      M13
000908: 16,3463           61274                           AD       DELPEROR                              #  KALCMANU INTERFACE ERROR.
000909: 16,3464           27751                           ADS      E                                     #  SAVE SUM OF TERMS.  COULD BE OVERFLOW.
000910: 16,3465           57464                           XCH      PERROR                                #  SAVE P-ERROR FOR EIGHT-BALL DISPLAY.
000911: 16,3466           00002                           TC       Q                                     #  RETURN TO CALLER
000912:
000913:                                                                                                  #  P-AXIS URGENCY FUNCTION CALCULATION.
000914:
000915: 16,3467           03452        PURGENCY           TC       CALCPERR                              #  CALCULATE P-AXIS ERRORS.
000916: 16,3470           41642                           CS       OMEGAPD                               #  THIS CODING IS COMMON TO BOTH LM DAP AND
000917: 16,3471           61421                           AD       OMEGAP                                #  SPS-BACKUP MODE.
000918: 16,3472           55427                           TS       EDOTP                                 #  EDOTP = OMEGAP - OMEGAPD AT PI/4 RAD/SEC
000919:
000920: 16,3473           44753                           CS       ONE
000921: 16,3474           55505                           TS       AXISCTR
000922: 16,3475           30111                           CA       DAPBOOLS
000923: 16,3476           74737                           MASK     CSMDOCKD
000924: 16,3477           00006                           EXTEND
000925: 16,3500           13511                           BZF      HEADTJET
000926: 16,3501           00004                           INHINT                                         #  IF CSMDOCKD = 1, GOT TO DOCKED RCS LOGIC
000927: 16,3502           04674                           TC       IBNKCALL
000928: 16,3503           43736                           CADR     SPSRCS
000929:
000930: 16,3504           31524                           CA       TJP
000931: 16,3505           00006                           EXTEND
000932: 16,3506           13445                           BZF      DKALT                                 #  IF TJP = ZERO, CHANGE AORBSYST.
000933: 16,3507           00003                           RELINT
000934: 16,3510           13354                           TCF      PJETSLEC   -6                         #  SELECT AORBSYST AND USE TWO JETS.
000935: 16,3511           34755        HEADTJET           CA       ZERO
000936: 16,3512           55500                           TS       SENSETYP
000937: 16,3513           00004                           INHINT
000938: 16,3514           04674                           TC       IBNKCALL
000939: 16,3515           37304                           CADR     TJETLAW
000940: 16,3516           00003                           RELINT
000941:                                                                                                  #  Page 1436
000942: 16,3517           41740                           CS       FIREFCT
000943: 16,3520           63534                           AD       -FOURDEG
000944: 16,3521           00006                           EXTEND
000945: 16,3522           63354                           BZMF     PJETSLEC   -6
000946: 16,3523           11524                           CCS      TJP
000947: 16,3524           13526                           TCF      +2
000948: 16,3525           13446                           TCF      JETSOFF
000949: 16,3526           63533                           AD       -160MST6
000950: 16,3527           00006                           EXTEND
000951: 16,3530           63354                           BZMF     PJETSLEC   -6
000952: 16,3531           36245                           CA       SIX
000953: 16,3532           13361                           TCF      PJETSLEC   -1
000954: 16,3533           77377        -160MST6           DEC      -256       B-14
000955: 16,3534           75117        -FOURDEG           DEC      -.08888
000956:
000957:                                                                                                  #  Page 1437
000958:                                                                                                  #  JET POLICY CONTSTRUCTION SUBROUTINE
000959:
000960:                                                                                                  #  INPUT:        ROTINDEX, NUMBERT
000961:
000962:                                                                                                  #  OUTPUT:       POLYTEMP (JET POLICY)
000963:
000964:                                                                                                  #  THIS SUBROUTINE SELECT A SUBSET OF THE DESIRED JETS WHICH HAS NO FAILURE
000965:
000966: 16,3535           36245        SELECTP            CA       SIX
000967: 16,3536           55741                           TS       TEMPNUM
000968: 16,3537           51742                           INDEX    NUMBERT
000969: 16,3540           33567                           CA       TYPEP
000970: 16,3541           51743                           INDEX    ROTINDEX
000971: 16,3542           73560                           MASK     JETSALL
000972: 16,3543           55740                           TS       POLYTEMP
000973: 16,3544           71260                           MASK     CH6MASK
000974: 16,3545           10000                           CCS      A
000975: 16,3546           13550                           TCF      +2
000976: 16,3547           00002                           TC       Q
000977: 16,3550           11741                           CCS      TEMPNUM
000978: 16,3551           13555                           TCF      +4
000979: 16,3552           05567                           TC       ALARM
000980: 16,3553           02003                           OCT      02003
000981: 16,3554           13446                           TCF      JETSOFF                               #  ********** TCF ALARMJET **********
000982: 16,3555           55742        SELECTYZ           TS       NUMBERT
000983: 16,3556           13536                           TCF      SELECTP    +1
000984: 16,3557           12773                 -1        TCF      ABORTYZ    +2
000985: 16,3560           00252        JETSALL            OCT      00252
000986: 16,3561           00125                           OCT      00125                                 #  +P
000987: 16,3562           00140                           OCT      00140                                 #  -Y
000988: 16,3563           00006                           OCT      00006                                 #  -Z
000989: 16,3564           00220                           OCT      00220                                 #  +Y
000990: 16,3565           00011                           OCT      00011                                 #  +Z
000991: 16,3566           00151                           OCT      00151                                 #  +V
000992: 16,3567           00146        TYPEP              OCT      00146                                 #  -U
000993: 16,3570           00226                           OCT      00226                                 #  -V
000994: 16,3571           00231                           OCT      00231                                 #  +U
000995: 16,3572           00151                           OCT      00151                                 #  +V
000996: 16,3573           00132                           OCT      00132                                 #  1-3
000997: 16,3574           00245                           OCT      00245                                 #  2-4
000998: 16,3575           00377                           OCT      00377                                 #  ALL
000999: 16,3576  16,3576               INDXYZ             =        -136MST6
001000: 16,3576           77445        -136MST6           DEC      -218       B-14
001001: 16,3577           00004                           DEC      4          B-14
001002: 16,3600           00002                           DEC      2          B-14
001003: 16,3601           07776                           OCT      07776
001004: 16,3602           00005                           DEC      5          B-14
001005: 16,3603           00011                           DEC      9          B-14
001006: 16,3604           00012                           DEC      10         B-14
001007: 16,3605           07776                           OCT      07776
001008: 16,3606           00003                           DEC      3          B-14
001009:                                                                                                  #  Page 1438
001010: 16,3607           00010                           DEC      8          B-14
001011: 16,3610           00007                           DEC      7          B-14
001012: 16,3611           07776                           OCT      07776                                 #  THESE INDEXES OF MASK JETSALL WILL
001013: 16,3612           07776                           OCT      07776                                 #  CHANGE THE INSTRUCTION AT SELECTP +4
001014: 16,3613           07776                           OCT      07776                                 #  TO BE         TC JETSALL -1
001015: 16,3614           07776                           OCT      07776                                 #  ONLY USED FOR TRANSLATION FAILURE
001016: 16,3615           07776                           OCT      07776
001017: 16,3616           00360        +150MST6           DEC      240        B-14
001018: 16,3617           07400        07400OCT           OCT      07400
001019:
001020:                                                                                                  #  T-JET LAW FIXED CONSTANTS
001021:
001022: 16,3620           00266        NORMSCL            OCT      266
001023: 16,3621           74631        -100MS             DEC      -.1
001024: 16,3622           06315        200MS              DEC      .2
001025: 16,3623     7721               25/32              =        PRIO31                                #  (DEC .78125)
001026: 16,3623           00600        BITS8,9            OCTAL    00600
001027: 16,3624           00632        1/40               DEC      .02500
001028: 16,3625           77751        MINTIMES           DEC      -22        B-14
001029: 16,3626           00026                           DEC      22         B-14
001030: 16,3627           02734        PSKIPADR           GENADR   SKIPPAXS
001031:
001032:                                                                                                  #  GOES TO Q,R-AXES RCS AUTOPILOT
001033:
001034: 16,3630           41644        QRAXIS             CS       OMEGARD
001035: 16,3631           61423                           AD       OMEGAR
001036: 16,3632           02310                           TC       OVERSUB
001037: 16,3633           55437                           TS       EDOTR
001038: 16,3634           41643                           CS       OMEGAQD
001039: 16,3635           61422                           AD       OMEGAQ
001040: 16,3636           02310                           TC       OVERSUB
001041: 16,3637           55436                           TS       EDOTQ
001042: 16,3640           00006                           EXTEND
001043: 16,3641           33644                           DCA      QERRCALL
001044: 16,3642           52006                           DTCB
001045:
001046: 16,3643  E6,1536                                  EBANK=   AOSQ
001047: 16,3643           02124 36106  QERRCALL           2CADR    CALLQERR

End of include-file P-AXIS_RCS_AUTOPILOT.agc.  Parent file is MAIN.agc


