
Source Code
000001:                                                                                                 #  Copyright:     Public domain.
000002:                                                                                                 #  Filename:      P12.agc
000003:                                                                                                 #  Purpose:       A section of Luminary 1C, revision 131.
000004:                                                                                                 #                 It is part of the source code for the Lunar Module's (LM)
000005:                                                                                                 #                 Apollo Guidance Computer (AGC) for Apollo 13 and Apollo 14.
000006:                                                                                                 #                 This file is intended to be a faithful transcription, except
000007:                                                                                                 #                 that the code format has been changed to conform to the
000008:                                                                                                 #                 requirements of the yaYUL assembler rather than the
000009:                                                                                                 #                 original YUL assembler.
000010:                                                                                                 #  Reference:     pp. 836-840 of 1729.pdf.
000011:                                                                                                 #  Contact:       Ron Burkey <info@sandroid.org>.
000012:                                                                                                 #  Website:       www.ibiblio.org/apollo/index.html
000013:                                                                                                 #  Mod history:   05/26/03 RSB.   Began transcribing.
000014:                                                                                                 #                 05/14/05 RSB    Corrected website reference above.
000015:
000016:                                                                                                 #  Page 836
000017: 24,3700                                          BANK     24
000018: 30,2000                                          SETLOC   P12
000019: 30,2000                                          BANK
000020:
000021: 30,2061  E7,1515                                 EBANK=   DVCNTR
000022: 30,2061                                          COUNT*   $$/P12
000023:
000024: 30,2061           05353        P12LM             TC       PHASCHNG
000025: 30,2062           04024                          OCT      04024
000026:
000027: 30,2063           04616                          TC       BANKCALL
000028: 30,2064           11233                          CADR     R02BOTH                               #  CHECK THE STATUS OF THE IMU
000029: 30,2065           06011                          TC       CLRADMOD                              #  INITIALIZE RADMODES FOR R29
000030: 30,2066           36000                          CAF      THRESH2                               #  INITIALIZE DVMON
000031: 30,2067           55250                          TS       DVTHRUSH
000032: 30,2070           34751                          CAF      FOUR
000033: 30,2071           55515                          TS       DVCNTR
000034:
000035: 30,2072           34755                          CA       ZERO
000036: 30,2073           55462                          TS       TRKMKCNT                              #  SHOW THAT R29 DOWNLINK DATA IS NOT READY
000037:
000038: 30,2074           33022                          CAF      V06N33A
000039: 30,2075           04616                          TC       BANKCALL                              #  FLASH TIG
000040: 30,2076           20477                          CADR     GOFLASH
000041: 30,2077           16001                          TCF      GOTOP00H
000042: 30,2100           12102                          TCF      +2                                    #  PROCEED
000043: 30,2101           12074                          TCF      -5                                    #  ENTER
000044:
000045: 30,2102           05353                          TC       PHASCHNG
000046: 30,2103           04024                          OCT      04024
000047:
000048: 30,2104           06042                          TC       INTPRET
000049: 30,2105           43014                          SET      SET
000050: 30,2106           03067                                   MUNFLAG
000051: 30,2107           06464                                   ACC4-2FL
000052: 30,2110           43014                          SET      CLEAR
000053: 30,2111           00075                                   R10FLAG
000054: 30,2112           00270                                   RNDVZFLG
000055: 30,2113           43014                          SET      SET
000056: 30,2114           04464                                   FLPI
000057: 30,2115           04461                                   FLVR
000058: 30,2116           77624                          CALL                                           #  INITIALZE WM AND /LAND/
000059: 30,2117           71343                                   GUIDINIT
000060: 30,2120           77624                          CALL
000061: 30,2121           60251                                   P12INIT
000062: 30,2122           77745        P12LMB            DLOAD
000063: 30,2123           25740                                   (TGO)A                                #  SET TGO TO AN INITIAL NOMINAL VALUE.
000064: 30,2124           17517                          STODL    TGO
000065:                                                                                                 #  Page 837
000066: 30,2125           03442                                   TIG
000067: 30,2126           34041                          STCALL   TDEC1
000068: 30,2127           27056                                   LEMPREC                               #  ROTATE THE STATE VECTORS TO THE
000069: 30,2130           64375                          VLOAD    MXV                                   #  IGNITION TIME.
000070: 30,2131           00007                                   VATT
000071: 30,2132           01734                                   REFSMMAT
000072: 30,2133           77772                          VSL1
000073: 30,2134           27601                          STOVL    V1S                                   #  COMPUTE V1S = VEL(TIG)*2(-7) M/CS.
000074: 30,2135           00001                                   RATT
000075: 30,2136           52521                          MXV      VSL6
000076: 30,2137           01734                                   REFSMMAT
000077: 30,2140           37521                          STCALL   R                                     #  COMPUTE R = POS(TIG)*2(-24) M.
000078: 30,2141           67067                                   MUNGRAV                               #  COMPUTE GDT1/2(TIG)*2(-T)M/CS.
000079: 30,2142           53575                          VLOAD    UNIT
000080: 30,2143           03521                                   R
000081: 30,2144           37537                          STCALL   UNIT/R/                               #  COMPUTE UNIT/R/ FOR YCOMP.
000082: 30,2145           57313                                   YCOMP
000083: 30,2146           57461                          SR       DCOMP
000084: 30,2147           20606                                   5D
000085: 30,2150           17643                          STODL    XRANGE                                #  INITIALIZE XRANGE FOR NOUN 76
000086: 30,2151           31367                                   VINJNOM
000087: 30,2152           16277                          STODL    ZDOTD
000088: 30,2153           31371                                   RDOTDNOM
000089: 30,2154           02273                          STORE    RDOTD
000090: 30,2155           77776                          EXIT
000091:
000092: 30,2156           05353                          TC       PHASCHNG
000093: 30,2157           04024                          OCT      04024
000094:
000095: 30,2160           33021        NEWLOAD           CAF      V06N76                                #  FLASH CROSS-RANGE, AND APOLUNE VALUES.
000096: 30,2161           04616                          TC       BANKCALL
000097: 30,2162           20477                          CADR     GOFLASH
000098: 30,2163           16001                          TCF      GOTOP00H
000099: 30,2164           12166                          TCF      +2                                    #  PROCEED
000100: 30,2165           12160                          TCF      NEWLOAD                               #  ENTER NEW DATA.
000101:
000102: 30,2166           32314                          CAF      P12ADRES
000103: 30,2167           55455                          TS       WHICH
000104:
000105: 30,2170           05353                          TC       PHASCHNG
000106: 30,2171           04024                          OCT      04024
000107:
000108: 30,2172           06042                          TC       INTPRET
000109: 30,2173           54345                          DLOAD    SL
000110: 30,2174           03643                                   XRANGE
000111: 30,2175           20206                                   5D
000112: 30,2176           77615                          DAD
000113: 30,2177           02335                                   Y
000114: 30,2200           27633                          STOVL    YCO
000115: 30,2201           03537                                   UNIT/R/
000116:                                                                                                 #  Page 838
000117: 30,2202           53361                          VXSC     VAD
000118: 30,2203           31365                                   49FPS
000119: 30,2204           03601                                   V1S
000120: 30,2205           03527                          STORE    V                                     #  V(TIPOVER) = V(IGN) + 57FPS (UNIT/R/)
000121: 30,2206           72441                          DOT      SL1
000122: 30,2207           03537                                   UNIT/R/
000123: 30,2210           27474                          STOVL    RDOT                                  #  RDOT = 2(-7)
000124: 30,2211           03537                                   UNIT/R/
000125: 30,2212           53435                          VXV      UNIT
000126: 30,2213           03720                                   QAXIS
000127: 30,2214           37726                          STCALL   ZAXIS1
000128: 30,2215           60315                                   ASCENT
000129: 30,2216           77745        P12RET            DLOAD
000130: 30,2217           02361                                   ATP                                   #  ATP(2)*2(18)
000131: 30,2220           65316                          DSQ      PDDL
000132: 30,2221           02355                                   ATY                                   #  ATY(2)*2(18)
000133: 30,2222           43316                          DSQ      DAD
000134: 30,2223           75454                          BZE      SQRT
000135: 30,2224           60230                                   YAWDUN
000136: 30,2225           55352                          SL1      BDDV
000137: 30,2226           02355                                   ATY
000138: 30,2227           77736                          ARCSIN
000139: 30,2230           26363        YAWDUN            STOVL    YAW
000140: 30,2231           03253                                   UNFC/2
000141: 30,2232           50256                          UNIT     DOT
000142: 30,2233           03537                                   UNIT/R/
000143: 30,2234           65552                          SL1      ARCCOS
000144: 30,2235           77676                          DCOMP
000145: 30,2236           02365                          STORE    PITCH
000146: 30,2237           77776                          EXIT
000147: 30,2240           05353                          TC       PHASCHNG
000148: 30,2241           04024                          OCT      04024
000149:
000150: 30,2242           00004                          INHINT
000151: 30,2243           04674                          TC       IBNKCALL
000152: 30,2244           40143                          CADR     PFLITEDB
000153: 30,2245           05516                          TC       DOWNFLAG
000154: 30,2246           00213                          ADRES    FLPI
000155:
000156: 30,2247           04635                          TC       POSTJUMP
000157: 30,2250           74130                          CADR     BURNBABY
000158:
000159: 30,2251           77745        P12INIT           DLOAD                                          #  INITIALIZE ENGINE DATA.  USED FOR P12 AND
000160: 30,2252           16013                                   (1/DV)A                               #  P71.
000161: 30,2253           03641                          STORE    1/DV3
000162: 30,2254           03637                          STORE    1/DV2
000163: 30,2255           17635                          STODL    1/DV1
000164: 30,2256           16017                                   (AT)A
000165: 30,2257           16263                          STODL    AT
000166: 30,2260           16021                                   (TBUP)A
000167:                                                                                                 #  Page 839
000168: 30,2261           16271                          STODL    TBUP
000169: 30,2262           34013                                   ATDECAY
000170: 30,2263           54276                          DCOMP    SL
000171: 30,2264           20214                                   11D
000172: 30,2265           02267                          STORE    TTO
000173: 30,2266           57535                          SLOAD    DCOMP
000174: 30,2267           26001                                   APSVEX
000175: 30,2270           77702                          SR2
000176: 30,2271           02265                          STORE    VE
000177: 30,2272           43414                          BOFF     RVQ
000178: 30,2273           04747                                   FLAP
000179: 30,2274           60275                                   COMMINIT
000180: 30,2275           43345        COMMINIT          DLOAD    DAD                                   #  INITIALIZE TARGET DATA.  USED BY P12, P70
000181: 30,2276           25736                                   HINJECT                               #  AND P71 IF IT DOES NOT FOLLOW P70.
000182: 30,2277           02333                                   /LAND/
000183: 30,2300           17631                          STODL    RCO
000184: 30,2301           06524                                   HI6ZEROS
000185: 30,2302           03654                          STORE    TXO
000186: 30,2303           03633                          STORE    YCO
000187: 30,2304           26275                          STOVL    YDOTD
000188: 30,2305           01563                                   VRECTCSM
000189: 30,2306           64235                          VXV      MXV
000190: 30,2307           01555                                   RRECTCSM
000191: 30,2310           01734                                   REFSMMAT
000192: 30,2311           77656                          UNIT
000193: 30,2312           03720                          STORE    QAXIS
000194: 30,2313           77616                          RVQ
000195:
000196: 30,2314           02024        P12ADRES          REMADR   P12TABLE
000197:
000198: 34,2000                                          SETLOC   ASENT8
000199: 34,2000                                          BANK
000200: 34,3343                                          COUNT*   $$/P12
000201:
000202: 34,3343           40220        GUIDINIT          STQ      SETPD
000203: 34,3344           01163                                   TEMPR60
000204: 34,3345           00001                                   0D
000205: 34,3346           41575                          VLOAD    PUSH
000206: 34,3347           06516                                   UNITZ
000207: 34,3350           41434                          RTB      PUSH
000208: 34,3351           21574                                   LOADTIME
000209: 34,3352           77624                          CALL
000210: 34,3353           55716                                   RP-TO-R
000211: 34,3354           74321                          MXV      VXSC
000212: 34,3355           01734                                   REFSMMAT
000213: 34,3356           16027                                   MOONRATE
000214: 34,3357           26325                          STOVL    WM
000215: 34,3360           02023                                   RLS
000216: 34,3361           52446                          ABVAL    SL3
000217: 34,3362           36333                          STCALL   /LAND/
000218:                                                                                                 #  Page 840
000219: 34,3363           01163                                   TEMPR60
000220:
000221: 34,3364           00046 07374  49FPS             2DEC     .149352    B-6                        #  EXPECTED RDOT AT TIPOVER
000222: 34,3366           04145 15527  VINJNOM           2DEC     16.7924    B-7                        #  5509.5 FPS(APO=30NM WITH RDOT=19.5FPS)
000223: 34,3370           00007 23346  RDOTDNOM          2DEC     .059436    B-7                        #  19.5 FPS
000224:
000225:

End of include-file P12.agc.  Parent file is MAIN.agc


