
Source Code


000002:                                                                                                  ## Copyright:   Public domain.
000003:                                                                                                  ## Filename:    P20-P25.agc
000004:                                                                                                  ## Purpose:     A section of Luminary 1C, revision 131.
000005:                                                                                                  ##              It is part of the source code for the Lunar Module's (LM)
000006:                                                                                                  ##              Apollo Guidance Computer (AGC) for Apollo 13.
000007:                                                                                                  ##              This file is intended to be a faithful transcription, except
000008:                                                                                                  ##              that the code format has been changed to conform to the
000009:                                                                                                  ##              requirements of the yaYUL assembler rather than the
000010:                                                                                                  ##              original YUL assembler.
000011:                                                                                                  ## Reference:   pp. 496-618
000012:                                                                                                  ## Contact:     Ron Burkey <info@sandroid.org>.
000013:                                                                                                  ## Website:     www.ibiblio.org/apollo/index.html
000014:                                                                                                  ## Mod history: 05/15/03 RSB.   Began transcribing.
000015:                                                                                                  ##              12/01/03 RSB.   Entered/corrected the previously-missing code from
000016:                                                                                                  ##                              the bottom of p. 595 using a replacement scan
000017:                                                                                                  ##                              provided by Gary Neff.
000018:                                                                                                  ##              05/14/05 RSB    Corrected website reference above.
000019:                                                                                                  ##              2010-10-25 JL   Fixed p583 page number.
000020:                                                                                                  ##              2011-05-07 JL   Removed workarounds.
000021:                                                                                                  ##              2017-01-06 RSB  Page numbers now agree with those on the
000022:                                                                                                  ##                              original harcopy, as opposed to the PDF page
000023:                                                                                                  ##                              numbers in 1701.pdf.
000024:                                                                                                  ##              2017-01-28 RSB  WTIH -> WITH.
000025:                                                                                                  ##              2017-02-24 RSB  Proofed comment text using octopus/ProoferComments.
000026:                                                                                                  ##              2017-02-28 RSB  Fixed lingering typos.
000027:                                                                                                  ##              2017-03-07 RSB  Comment-text error-fixes noted in proofing Luminary 116.
000028:


000030:                                                                                                  #  RENDEZVOUS NAVIGATION PROGRAM 20
000031:
000032:                                                                                                  #  PROGRAM DESCRIPTION
000033:
000034:                                                                                                  #        MOD NO - 2
000035:                                                                                                  #        BY P. VOLANTE
000036:
000037:                                                                                                  #  FUNCTIONAL DESCRIPTION
000038:
000039:                                                                                                  #        THE PURPOSE OF THIS PROGRAM IS TO CONTROL THE RENDEZVOUS RADAR FROM
000040:                                                                                                  #        STARTUP THROUGH ACQUISITION AND LOCKON TO THE CSM AND TO UPDATE EITHER
000041:                                                                                                  #        THE LM OR CSM STATE VECTOR (AS SPECIFIED BY THE ASTRONAUT BY DSKY ENTRY)
000042:                                                                                                  #        ON THE BASIS OF THE RR TRACKING DATA.
000043:
000044:                                                                                                  #  CALLING SEQUENCE -
000045:
000046:                                                                                                  #        ASTRONAUT REQUEST THROUGH DSKY V37E20E
000047:
000048:                                                                                                  #  SUBROUTINES CALLED
000049:
000050:                                                                                                  #        R02BOTH (IMU STATUS CHECK)                      FLAGUP
000051:                                                                                                  #        GOFLASH (PINBALL-DISPLAY)                       FLAGDOWN
000052:                                                                                                  #        R23LEM  (MANUAL ACQUISITION)                    BANKCALL
000053:                                                                                                  #        LS201   (LOS DETERMINATION)                     TASKOVER
000054:                                                                                                  #        LS202   (RANGE LIMIT TEST)
000055:                                                                                                  #        R61LEM  (PREFERRED TRACKING ATTITUDE)
000056:                                                                                                  #        R21LEM  (RR DESIGNATE)                          ENDOFJOB
000057:                                                                                                  #        R22LEM  (DATA READ)                             GOPERF1
000058:                                                                                                  #        R31LEM  (RENDEZVOUS PARAMETER DISPLAY)
000059:                                                                                                  #        PRIOLARM (PRIORITY DISPLAY)
000060:
000061:                                                                                                  #  NORMAL EXIT MODES -
000062:
000063:                                                                                                  #        P20 MAY BE TERMINATED IN TWO WAYS - ASTRONAUT SELECTION OF IDLING
000064:                                                                                                  #        PROGRAM (P00) BY KEYING V37E00E OR BY KEYING IN V56E
000065:
000066:                                                                                                  #  ALARM OR ABORT EXIT MODES -
000067:
000068:                                                                                                  #        RANGE GREATER THAN 400 NM DISPLAY
000069:
000070:                                                                                                  #  OUTPUT
000071:
000072:                                                                                                  #        TRKMKCNT = NO OF RENDEZVOUS TRACKING MARKS TAKEN (COUNTER)
000073:
000074:                                                                                                  #  ERASABLE INITIALIZATION REQUIRED
000075:
000076:                                                                                                  #  FLAGS SET + RESET
000077:
000078:                                                                                                  #        SRCHOPT, RNDVZFLG, ACMODFLG, VEHUPFLG, UPDATFLG, TRACKFLG,
000079:
000080:                                                                                                  #  DEBRIS
000081:
000082:                                                                                                  #        CENTRALS - A,Q,L
000083:
000084: 25,2073  30,2000                                  SBANK=   LOWSUPER                              #  FOR LOW 2CADR'S.
000085:
000086: 33,2045                                           BANK     33
000087: 24,2000                                           SETLOC   P20S
000088: 24,2000                                           BANK
000089:
000090: 24,2000  E7,1456                                  EBANK=   LOSCOUNT
000091: 24,2000                                           COUNT*   $$/P20
000092: 24,2000  24,2000               PROG22             =        PROG20
000093: 24,2000           05327        PROG20             TC       2PHSCHNG
000094: 24,2001           00004                           OCT      4
000095: 24,2002           05022                           OCT      05022
000096: 24,2003           26000                           OCT      26000                                 #  PRIORITY 26
000097: 24,2004           02670                           TC       LUNSFCHK                              #  CHECK IF ON LUNAR SURFACE


000099: 24,2005           02007                           TC       ORBCHGO                               #  YES
000100: 24,2006           02036                           TC       PROG20A    -2                         #  NO - CONTINUE WITH P20
000101: 24,2007           05504        ORBCHGO            TC       UPFLAG                                #  SET VEHUPFLG - CSM STATE
000102: 24,2010           00026                           ADRES    VEHUPFLG                              #  VECTOR TO BE UPDATED
000103: 24,2011           34753                           CAF      ONE                                   #  SET R2 FOR OPTION CSM WILL NOT
000104: 24,2012           55144                           TS       OPTION2                               #  CHANGE PRESENT ORBIT
000105: 24,2013           34363                           CAF      OCT00012
000106: 24,2014           04616                           TC       BANKCALL                              #  DISPLAY ASSUMED CSM ORBIT OPTION
000107: 24,2015           20634                           CADR     GOPERF4
000108: 24,2016           06001                           TC       GOTOPOOH                              #  TERMINATE
000109: 24,2017           02021                           TC       ORBCHG1                               #  PROCEED VALUE OF ASSUMED OPTION OK
000110: 24,2020           02013                           TC       -5                                    #  R2 LOADED THRU DSKY
000111: 24,2021           44753        ORBCHG1            CS       ONE
000112: 24,2022           61144                           AD       OPTION2
000113: 24,2023           00006                           EXTEND
000114: 24,2024           12040                           BZF      PROG20A
000115: 24,2025           32311                           CAF      V06N33*
000116: 24,2026           04616                           TC       BANKCALL                              #  FLASH VERB-NOUN TO REQUEST ESTIMATED
000117: 24,2027           20477                           CADR     GOFLASH                               #  TIME OF LAUNCH
000118: 24,2030           06001                           TC       GOTOPOOH                              #  TERMINATE
000119: 24,2031           02033                           TC       ORBCHG2                               #  PROCEED VALUES OK
000120: 24,2032           02025                           TC       -5                                    #  TIME LOADED THRU DSKY
000121: 24,2033           06042        ORBCHG2            TC       INTPRET
000122: 24,2034           77650                           GOTO
000123: 24,2035           64217                                    ORBCHG3
000124:
000125: 32,2217                                           BANK     32
000126: 32,2000                                           SETLOC   P20S4
000127: 32,2000                                           BANK
000128: 32,2217                                           COUNT*   $$/P20
000129:
000130: 32,2217           77624        ORBCHG3            CALL
000131: 32,2220           27410                                    INTSTALL
000132: 32,2221           77745                           DLOAD
000133: 32,2222           03442                                    TIG
000134: 32,2223           03661                           STORE    LNCHTM
000135: 32,2224           00041                           STORE    TDEC1                                 #  ESTIMATED LAUNCH TIME
000136: 32,2225           43014                           CLEAR    CLEAR
000137: 32,2226           01674                                    VINTFLAG                              #  LM INTEGRATION
000138: 32,2227           01673                                    INTYPFLG                              #  PRECISION - ENCKE
000139: 32,2230           43014                           CLEAR    CLEAR
000140: 32,2231           01676                                    DIM0FLAG                              #  NO W-MATRIX
000141: 32,2232           01675                                    D6OR9FLG
000142: 32,2233           77624                           CALL
000143: 32,2234           27133                                    INTEGRV                               #  PLANETARY INERTIAL ORIENTATION
000144: 32,2235           77624                           CALL
000145: 32,2236           11210                                    GRP2PC
000146: 32,2237           77775                           VLOAD
000147: 32,2240           00017                                    RATT1
000148: 32,2241           17631                           STODL    RSUBL                                 #  SAVE LM POSITION
000149: 32,2242           00015                                    TAT


000151: 32,2243           34041                           STCALL   TDEC1
000152: 32,2244           27410                                    INTSTALL
000153: 32,2245           43014                           SET      CLEAR
000154: 32,2246           01474                                    VINTFLAG                              #  CSM INTEGRATION
000155: 32,2247           01673                                    INTYPFLG
000156: 32,2250           43014                           CLEAR    BOFF
000157: 32,2251           01676                                    DIM0FLAG
000158: 32,2252           02756                                    RENDWFLG                              #  W MATRIX VALID
000159: 32,2253           64257                                    NOWMATX                               #  NO
000160: 32,2254           43014                           SET      SET                                   #  YES - SET FOR W MATRIX
000161: 32,2255           01476                                    DIM0FLAG
000162: 32,2256           01475                                    D6OR9FLG
000163: 32,2257           77624        NOWMATX            CALL
000164: 32,2260           27133                                    INTEGRV                               #  CSM INTEGRATION
000165: 32,2261           77624                           CALL
000166: 32,2262           11210                                    GRP2PC
000167: 32,2263           77775                           VLOAD
000168: 32,2264           00025                                    VATT1
000169: 32,2265           25761                           STOVL    VSUBC                                 #  SAVE CSM VELOCITY
000170: 32,2266           00017                                    RATT1
000171: 32,2267           01101                           STORE    RSUBC                                 #  SAVE CSM POSITION
000172: 32,2270           53435                           VXV      UNIT                                  #  COMPUTE NORMAL TO CSM ORBITAL PLANE
000173: 32,2271           01761                                    VSUBC                                 #  NSUB1=UNIT(R(CM) CROSS V(CM)
000174: 32,2272           24025                           STOVL    20D                                   #  SAVE NSUB1
000175: 32,2273           03631                                    RSUBL                                 #  COMPUTE ESTIMATED ORBITAL
000176: 32,2274           53435                           VXV      UNIT                                  #  PLANE CHANGE
000177: 32,2275           00025                                    20D                                   #  UCSM = UNIT(R(LM) CROSS NSUB1)
000178: 32,2276           27637                           STOVL    UCSM
000179: 32,2277           01101                                    RSUBC                                 #  COMPUTE ANGLE BETWEEN UCSM
000180: 32,2300           50256                           UNIT     DOT                                   #  AND RSUBC
000181: 32,2301           03637                                    UCSM                                  #  COS A = UCSM DOT UNIT (R(CM))
000182: 32,2302           77752                           SL1
000183: 32,2303           02732                           STORE    CSTH                                  #  SAVE DOE TIME-THETA SUBROUTINE
000184: 32,2304           44316                           DSQ      BDSU                                  #  COMPUTE SINE A
000185: 32,2305           06514                                    ONEB-2
000186: 32,2306           77766                           SQRT
000187: 32,2307           26730                           STOVL    SNTH                                  #  SAVE FOR TIME-THETA SUBROUTINE
000188: 32,2310           01101                                    RSUBC                                 #  POSITION OF CSM AT EST. LAUNCH
000189: 32,2311           26655                           STOVL    RVEC                                  #  TIME FOR TIME-THETA   B-27
000190: 32,2312           01761                                    VSUBC                                 #  VELOCITY OF CSM AT EST. LAUNCH
000191: 32,2313           77676                           VCOMP
000192: 32,2314           02744                           STORE    VVEC                                  #  TIME FOR TIME THETA   B-5
000193: 32,2315           45014                           CLEAR    CALL
000194: 32,2316           03666                                    RVSW
000195: 32,2317           24732                                    TIMETHET
000196: 32,2320           77676                           VCOMP
000197: 32,2321           03645                           STORE    NEWVEL                                #  TERMINAL VELOCITY OF CSM
000198: 32,2322           77745                           DLOAD
000199: 32,2323           00037                                    T
000200: 32,2324           27663                           STOVL    TRANSTM                               #  TRANSFER TIME


000202: 32,2325           03645                                    NEWVEL
000203: 32,2326           77646                           ABVAL
000204: 32,2327           24025                           STOVL    20D
000205: 32,2330           00001                                    0D
000206: 32,2331           03653                           STORE    NEWPOS                                #  TERMINAL POSITION OF CSM
000207: 32,2332           53435                           VXV      UNIT                                  #  COMPUTE NORMAL TO CSM ORBITAL PLANE
000208: 32,2333           03631                                    RSUBL                                 #  NSUB2 = UNIT(NEWPOS CROSS R(LM))
000209: 32,2334           53435                           VXV      UNIT                                  #  ROTATE TERMINAL VEL INTO DESIRED
000210: 32,2335           03653                                    NEWPOS                                #  ORBITAL PLANE
000211: 32,2336           76561                           VXSC     VSL1                                  #  VSUBC = ABVAL(NEWVEL) $ UNIT( NSUB2
000212: 32,2337           00025                                    20D
000213: 32,2340           37665                           STCALL   NCSMVEL                               #  NEW CSM VELOCITY
000214: 32,2341           11210                                    GRP2PC
000215: 32,2342           77624                           CALL
000216: 32,2343           27410                                    INTSTALL
000217: 32,2344           44345                           DLOAD    BDSU
000218: 32,2345           03663                                    TRANSTM                               #  LAUNCH TIME - TRANSFER TIME
000219: 32,2346           03661                                    LNCHTM
000220: 32,2347           25517                           STOVL    TET
000221: 32,2350           03653                                    NEWPOS
000222: 32,2351           01535                           STORE    RCV
000223: 32,2352           25503                           STOVL    RRECT
000224: 32,2353           03665                                    NCSMVEL
000225: 32,2354           35511                           STCALL   VRECT
000226: 32,2355           27705                                    MINIRECT
000227: 32,2356           45174                           AXT,2    CALL
000228: 32,2357           00002                                    2
000229: 32,2360           26660                                    ATOPCSM
000230: 32,2361           77624                           CALL
000231: 32,2362           27417                                    INTWAKE0
000232: 32,2363           77776                           EXIT
000233: 32,2364           04616                           TC       BANKCALL
000234: 32,2365           50040                           CADR     PROG20A
000235:
000236: 24,2036                                           BANK     24
000237: 24,2000                                           SETLOC   P20S
000238: 24,2000                                           BANK
000239: 24,2036                                           COUNT*   $$/P20
000240:
000241: 24,2036           05516                           TC       DOWNFLAG                              #  RESET VEHUPFLG - LM STATE VECTOR
000242: 24,2037           00026                           ADRES    VEHUPFLG                              #  TO BE UPDATED
000243: 24,2040           04616        PROG20A            TC       BANKCALL
000244: 24,2041           11233                           CADR     R02BOTH
000245: 24,2042           05504                           TC       UPFLAG
000246: 24,2043           00027                           ADRES    UPDATFLG                              #  SET UPDATE FLAG
000247: 24,2044           05504                           TC       UPFLAG
000248: 24,2045           00031                           ADRES    TRACKFLG                              #  SET TRACK FLAG
000249: 24,2046           05504                           TC       UPFLAG
000250: 24,2047           00010                           ADRES    RNDVZFLG                              #  SET RENDEZVOUS FLAG
000251: 24,2050           05516                           TC       DOWNFLAG
000252: 24,2051           00037                           ADRES    SRCHOPTN                              #  INSURE SEARCH OPTION OFF


000254: 24,2052           05516                           TC       DOWNFLAG                              #  ALSO MANUAL ACQUISITION FLAG RESET
000255: 24,2053           00040                           ADRES    ACMODFLG
000256: 24,2054           05516                           TC       DOWNFLAG                              #  TURN OFF R04FLAG TO ENSURE GETTING
000257: 24,2055           00063                           ADRES    R04FLAG                               #  ALARM 521 IF CANT READ RADAR
000258: 24,2056           05516                           TC       DOWNFLAG                              #  ENSURE R25 GIMBAL MONITOR IS ENABLED
000259: 24,2057           00126                           ADRES    NORRMON                               #  (RESET NORRMON FLAG)
000260: 24,2060           05516                           TC       DOWNFLAG                              #  RESET LOS BEING COMPUTED FLAG
000261: 24,2061           00041                           ADRES    LOSCMFLG
000262: 24,2062           06011                           TC       CLRADMOD
000263: 24,2063           05353        P20LEM1            TC       PHASCHNG
000264: 24,2064           04022                           OCT      04022
000265: 24,2065           34755                           CAF      ZERO                                  #  ZERO MARK COUNTER
000266: 24,2066           55462                           TS       MARKCTR
000267: 24,2067           06042                           TC       INTPRET                               #  LOS DETERMINATION ROUTINE
000268: 24,2070           77634                           RTB
000269: 24,2071           21574                                    LOADTIME
000270: 24,2072           34041                           STCALL   TDEC1
000271: 24,2073           51256                                    LPS20.1
000272: 24,2074           77624                           CALL
000273: 24,2075           53570                                    LPS20.2                               #  TEST RANGE R/UTINE
000274: 24,2076           77776                           EXIT
000275: 24,2077           50154                           INDEX    MPAC
000276: 24,2100           02101                           TC       +1
000277: 24,2101           02111                           TC       P20LEMA                               #  NORMAL RETURN WITHIN 400 N M
000278: 24,2102           32305        526ALARM           CAF      ALRM526                               #  ERROR EXIT - RANGE > 400 N. MI.
000279: 24,2103           04616                           TC       BANKCALL
000280: 24,2104           21563                           CADR     PRIOLARM
000281: 24,2105           06025                           TC       GOTOV56                               #  TERMINATE EXITS P20 VIA V56 CODING
000282: 24,2106           02102                           TC       -4                                    #  PROC (ILLEGAL
000283: 24,2107           02063                           TC       P20LEM1                               #  ENTER RECYCLE
000284: 24,2110           05155                           TC       ENDOFJOB
000285:
000286: 24,2111           05353        P20LEMA            TC       PHASCHNG
000287: 24,2112           04022                           OCT      04022
000288: 24,2113           02670                           TC       LUNSFCHK                              #  CHECK LUNAR SURFACE FLAG (P22 FLAG)
000289: 24,2114           02117                           TC       P20LEMB
000290: 24,2115           04616                           TC       BANKCALL
000291: 24,2116           46116                           CADR     R61LEM                                #  PREFERRED TRACKING ATTITUDE ROUTINE
000292: 24,2117           05353        P20LEMB            TC       PHASCHNG
000293: 24,2120           05022                           OCT      05022                                 #  RESTART AT PRIORITY 10 TO ALLOW V37
000294: 24,2121           10000                           OCT      10000                                 #  REQUESTED PROGRAM TO RUN FIRST
000295: 24,2122           37717                           CAF      PRIO26                                #  RESTORE PRIORITY 26
000296: 24,2123           05146                           TC       PRIOCHNG
000297: 24,2124           30075                           CA       FLAGWRD1                              #  IS THE TRACK FLAG SET
000298: 24,2125           74747                           MASK     TRACKBIT
000299: 24,2126           00006                           EXTEND
000300: 24,2127           12232                           BZF      P20LEMWT                              #  BRANCH - NO - WAIT FOR IT TO BE SET
000301: 24,2130           34752        P20LEMB7           CAF      BIT2                                  #  IS RR AUTO MODE DISCRETE PRESENT
000302: 24,2131           00006                           EXTEND


000304: 24,2132           02033                           RAND     CHAN33
000305: 24,2133           00006                           EXTEND
000306: 24,2134           12170                           BZF      P20LEMB3                              #  YES - DO AUTOMATIC ACQUISITION (R21)
000307:
000308: 24,2135           46007        P20LEMB5           CS       OCT24                                 #  RADAR NOT IN AUTO CHECK IF
000309: 24,2136           61010                           AD       MODREG                                #  MAJOR MODE IS 20
000310: 24,2137           00006                           EXTEND
000311: 24,2140           12153                           BZF      P20LEMB6                              #  BRANCH - YES-OK TO DO PLEASE PERFORM
000312:
000313: 24,2141           67751                           AD       NEG2                                  #  ALSO CHECK FOR P22
000314: 24,2142           00006                           EXTEND
000315: 24,2143           12153                           BZF      P20LEMB6                              #  BRANCH - YES OK TO DO PLEASE PERFORM
000316: 24,2144           32307                           CAF      ALRM514                               #  TRACK FLAG SET - FLASH PRIORITY ALARM 514 -
000317: 24,2145           04616                           TC       BANKCALL                              #  RADAR GOES OUT OF AUTO MODE WHILE IN USE
000318: 24,2146           21563                           CADR     PRIOLARM
000319: 24,2147           06025                           TC       GOTOV56                               #  TERMINATE EXITS VIA V56
000320: 24,2150           02117                           TC       P20LEMB                               #  PROCEED AND ENTER BOTH GO BACK
000321: 24,2151           02117                           TC       P20LEMB                               #  TO CHECK AUTO MODE AGAIN
000322: 24,2152           05155                           TC       ENDOFJOB
000323: 24,2153           32306        P20LEMB6           CAF      OCT201                                #  REQUEST RR AUTO MODE SELECTION
000324: 24,2154           04616                           TC       BANKCALL
000325: 24,2155           20624                           CADR     GOPERF1
000326: 24,2156           06025                           TC       GOTOV56                               #  TERMINATE EXITS P20 VIA V56 CODING
000327: 24,2157           02117                           TC       P20LEMB                               #  PROCEED CHECKS AUTO MODE DISCRETE AGAIN
000328: 24,2160           02670                           TC       LUNSFCHK                              #  ENTER INDICATES MANUAL ACQUISITION (R23)
000329: 24,2161           02166                           TC       P20LEMB2                              #  YES - R23 NOT ALLOWED - TURN ON OPR ERROR
000330: 24,2162           03137                           TC       R23LEM                                #  NO - DO MANUAL ACQUISITION
000331:
000332: 24,2163           05504        P20LEMB1           TC       UPFLAG                                #  RETURN FROM R23 - LOCKON ACHIEVED
000333: 24,2164           00040                           ADRES    ACMODFLG                              #  SET MANUAL FLAG AND GO BACK TO CHECK
000334: 24,2165           02117                           TC       P20LEMB                               #  RR AUTO MODE
000335:
000336: 24,2166           04364        P20LEMB2           TC       FALTON                                #  TURNS ON OPERATOR ERROR LIGHT ON DSKY
000337: 24,2167           02117                           TC       P20LEMB                               #  AND GOES BACK TO CHECK AUTO MODE
000338:
000339: 24,2170           40110        P20LEMB3           CS       RADMODES                              #  ARE RR CDUS BEING ZEROED
000340: 24,2171           74737                           MASK     RCDU0BIT
000341: 24,2172           00006                           EXTEND
000342: 24,2173           12205                           BZF      P20LEMB4                              #  BRANCH - YES - WAIT
000343: 24,2174           34355                           CAF      BIT13-14                              #  IS SEARCH OR MANUAL ACQUISITION FLAG SET
000344: 24,2175           70076                           MASK     FLAGWRD2
000345: 24,2176           00006                           EXTEND
000346: 24,2177           12211                           BZF      P20LEMC3                              #  ZERO MEANS AUTOMATIC RR ACQUISTION
000347: 24,2200           05516                           TC       DOWNFLAG                              #  RESET TO AUTO MODE
000348: 24,2201           00037                           ADRES    SRCHOPTN


000350: 24,2202           05516                           TC       DOWNFLAG
000351: 24,2203           00040                           ADRES    ACMODFLG
000352: 24,2204           02232                           TC       P20LEMWT                              #  WAIT 2.5 SECONDS THEN GO TO RR DATA READ
000353:
000354: 24,2205           32304        P20LEMB4           CAF      250DEC
000355: 24,2206           04616                           TC       BANKCALL                              #  WAIT 2.5 SECONDS WHILE RR CDUS ARE BEING
000356: 24,2207           01736                           CADR     DELAYJOB                              #  ZEROED - THEN GO BACK AND CHECK AGAIN
000357: 24,2210           02170                           TC       P20LEMB3
000358:
000359: 24,2211           06042        P20LEMC3           TC       INTPRET
000360: 24,2212           77634                           RTB
000361: 24,2213           21574                                    LOADTIME
000362: 24,2214           34041                           STCALL   TDEC1
000363: 24,2215           50312                                    UPPSV
000364: 24,2216           77776        P20LEMC4           EXIT
000365: 24,2217           05353        P20LEMC            TC       PHASCHNG
000366: 24,2220           04022                           OCT      04022
000367: 24,2221           30074                           CAE      FLAGWRD0                              #  IS THE RENDEZVOUS FLAG SET
000368: 24,2222           74745                           MASK     RNDVZBIT
000369: 24,2223           00006                           EXTEND
000370: 24,2224           15155                           BZF      ENDOFJOB                              #  NO - EXIT P20
000371: 24,2225           30075                           CAE      FLAGWRD1                              #  IS TRACK FLAG SET (BIT 5 FLAGWORD 1)
000372: 24,2226           74747                           MASK     TRACKBIT
000373: 24,2227           00006                           EXTEND
000374: 24,2230           12264                           BZF      P20LEMD                               #  BRANCH - TRACK FLAG NOT ON - WAIT 15 SECONDS
000375: 24,2231           02675        P20LEMF            TC       R21LEM
000376:
000377: 24,2232           32304        P20LEMWT           CAF      250DEC
000378: 24,2233           05173                           TC       TWIDDLE                               #  USE INSTEAD OF WAITLIST SINCE SAME BANK
000379: 24,2234           02244                           ADRES    P20LEMC1                              #  WAIT 2.5 SECONDS
000380: 24,2235           30075                           CAE      FLAGWRD1                              #  IS TRACK FLAG SET
000381: 24,2236           74747                           MASK     TRACKBIT
000382: 24,2237           00006                           EXTEND
000383: 24,2240           15155                           BZF      ENDOFJOB                              #  NO - EXIT WITHOUT DOING 2.7 PHASE CHANGE
000384: 24,2241           05353        P20LMWT1           TC       PHASCHNG
000385: 24,2242           40072                           OCT      40072
000386: 24,2243           05155                           TC       ENDOFJOB
000387:
000388: 24,2244           30074        P20LEMC1           CAE      FLAGWRD0                              #  IS RENDEZVOUS FLAG SET
000389: 24,2245           74745                           MASK     RNDVZBIT
000390: 24,2246           00006                           EXTEND
000391: 24,2247           15261                           BZF      TASKOVER                              #  NO - EXIT P20/R22
000392: 24,2250           30075                           CAE      FLAGWRD1                              #  IS TRACK FLAG SET
000393: 24,2251           74747                           MASK     TRACKBIT
000394: 24,2252           00006                           EXTEND
000395: 24,2253           12261                           BZF      P20LEMC2                              #  NO - DONT SCHEDULE R22 JOB


000397: 24,2254           37717                           CAF      PRIO26                                #  YES - SCHEDULE R22 JOB (RR DATA READ)
000398: 24,2255           05105                           TC       FINDVAC
000399: 24,2256  E7,1456                                  EBANK=   LOSCOUNT
000400: 24,2256           02631 50067                     2CADR    R22LEM42
000401:
000402: 24,2260           05261                           TC       TASKOVER
000403:
000404: 24,2261           05221        P20LEMC2           TC       FIXDELAY                              #  TRACK FLAG NOT SET, WAIT 15 SECONDS
000405: 24,2262           02734                           DEC      1500       B-14                       #  AND CHECK AGAIN
000406:
000407: 24,2263           02244                           TC       P20LEMC1
000408:
000409: 24,2264           32667        P20LEMD            CAF      1500DEC
000410: 24,2265           05173                           TC       TWIDDLE                               #  WAITLIST FOR 15 SECONDS
000411: 24,2266           02270                           ADRES    P20LEMD1
000412: 24,2267           05155                           TC       ENDOFJOB
000413:
000414: 24,2270           30075        P20LEMD1           CAE      FLAGWRD1                              #  IS TRACK FLAG SET
000415: 24,2271           74747                           MASK     TRACKBIT
000416: 24,2272           10000                           CCS      A
000417: 24,2273           12277                           TCF      P20LEMD2                              #  YES - SCHEDULE DESIGNATE JOB
000418: 24,2274           05221                           TC       FIXDELAY                              #  NO - WAIT 15 SECONDS
000419: 24,2275           02734                           DEC      1500       B-14
000420: 24,2276           02270                           TC       P20LEMD1
000421:
000422: 24,2277           37717        P20LEMD2           CAF      PRIO26                                #  SCHEDULE JOB TO DO R21
000423: 24,2300           05105                           TC       FINDVAC
000424: 24,2301  E7,1456                                  EBANK=   LOSCOUNT
000425: 24,2301           02211 50067                     2CADR    P20LEMC3                              #  START AT PERM.  MEMORY INTEGRATION
000426:
000427: 24,2303           05261                           TC       TASKOVER
000428:
000429: 24,2304           00372        250DEC             DEC      250        B-14
000430: 24,2305           00526        ALRM526            OCT      00526
000431: 24,2306           00201        OCT201             OCT      00201
000432: 24,2307           00514        ALRM514            OCT      514
000433: 24,2310           00074        MAXTRIES           DEC      60         B-14
000434: 24,2311     4363               OCT00012           EQUALS   BINCON
000435: 24,2311  23,2513               ONEB-2             EQUALS   DP1/4TH
000436: 24,2311           01441        V06N33*            VN       0633
000437: 24,2312           45020        UPPSV              STQ      CALL                                  #  UPDATES PERMANENT STATE VECTORS
000438: 24,2313           01757                                    LS21X                                 #        TO PRESENT TIME
000439: 24,2314           27410                                    INTSTALL
000440: 24,2315           77624                           CALL
000441: 24,2316           26643                                    SETIFLGS
000442: 24,2317           43014                           BOF      SET                                   #  IF W-MATRIX INVALID, DONT INTEGRATE IT


000444: 24,2320           02756                                    RENDWFLG
000445: 24,2321           50332                                    UPPSV1
000446: 24,2322           01476                                    DIM0FLAG                              #  SET DIMOFLAG TO INTEGRATE W-MATRIX
000447: 24,2323           43014                           BON      SET
000448: 24,2324           04307                                    SURFFLAG                              #  IF ON LUNAR SURFACE W IS 6X6
000449: 24,2325           50327                                    UPPSV5
000450: 24,2326           01475                                    D6OR9FLG                              #  OTHERWISE 9X9
000451: 24,2327           77614        UPPSV5             BOF
000452: 24,2330           00747                                    VEHUPFLG
000453: 24,2331           50364                                    UPPSV3
000454: 24,2332           77614        UPPSV1             SET
000455: 24,2333           01474                                    VINTFLAG
000456: 24,2334           77624                           CALL
000457: 24,2335           27133                                    INTEGRV
000458: 24,2336           77624                           CALL                                           #  GROUP 2 PHASE CHANGE
000459: 24,2337           11210                                    GRP2PC                                #  TO PROTECT INTEGRATION
000460: 24,2340           77624                           CALL
000461: 24,2341           27410                                    INTSTALL
000462: 24,2342           43145                           DLOAD    CLEAR                                 #  GET TETCSM TO STORE IN TDEC FOR LM INT.
000463: 24,2343           01571                                    TETCSM
000464: 24,2344           01674                                    VINTFLAG
000465: 24,2345           77624        UPPSV4             CALL                                           #  INTEGRATE OTHER VEHICLE
000466: 24,2346           26643                                    SETIFLGS                              #        WITHOUT W-MATRIX
000467: 24,2347           34041                           STCALL   TDEC1
000468: 24,2350           27133                                    INTEGRV
000469: 24,2351           77214                           BOFF     VLOAD
000470: 24,2352           04347                                    SURFFLAG
000471: 24,2353           50216                                    P20LEMC4
000472: 24,2354           01661                                    RCVLEM
000473: 24,2355           77742                           VSR2
000474: 24,2356           26352                           STOVL    LMPOS
000475: 24,2357           01667                                    VCVLEM
000476: 24,2360           77742                           VSR2
000477: 24,2361           02360                           STORE    LMVEL
000478: 24,2362           77650                           GOTO
000479: 24,2363           01757                                    LS21X
000480:
000481: 24,2364           45014        UPPSV3             CLEAR    CALL
000482: 24,2365           01674                                    VINTFLAG
000483: 24,2366           27133                                    INTEGRV
000484: 24,2367           77624                           CALL
000485: 24,2370           11210                                    GRP2PC
000486: 24,2371           77624                           CALL
000487: 24,2372           27410                                    INTSTALL
000488: 24,2373           71214                           SET      DLOAD
000489: 24,2374           01474                                    VINTFLAG
000490: 24,2375           01643                                    TETLEM                                #  GET TETLEM TO STORE IN TDEC FOR CSM INT.
000491: 24,2376           77650                           GOTO
000492: 24,2377           50345                                    UPPSV4


000494: 24,2400  E7,1456                                  EBANK=   LOSCOUNT
000495: 24,2400                                           COUNT*   $$/P22
000496:


000498:                                                                                                  #  PROGRAM DESCRIPTION
000499:
000500:                                                                                                  #        PREFERRED TRACKING ATTITUDE PROGRAM P25
000501:                                                                                                  #        MOD NO - 3
000502:                                                                                                  #        BY P. VOLANTE
000503:
000504:                                                                                                  #  FUNCTIONAL DESCRIPTION
000505:
000506:                                                                                                  #        THE PURPOSE OF THIS PROGRAM IS TO COMPUTE THE PREFERRED TRACKING
000507:                                                                                                  #        ATTITUDE OF THE LM TO CONTINUOUSLY POINT THE LM TRACKING BEACON AT THE
000508:                                                                                                  #        CSM AND TO PERFORM THE MANEUVER TO THE PREFERRED TRACKING ATTITUDE AND
000509:                                                                                                  #        CONTINUOUSLY MAINTAIN THIS ATTITUDE WITHIN PRESCRIBED LIMITS
000510:
000511:                                                                                                  #  CALLING SEQUENCE -
000512:
000513:                                                                                                  #        ASTRONAUT REQUEST THROUGH DSKY V37E25E
000514:
000515:                                                                                                  #  SUBROUTINES CALLED -
000516:
000517:                                                                                                  #        BANKCALL                                        FLAGUP
000518:                                                                                                  #        R02BOTH (IMU STATUS CHECK)                      ENDOFJOB
000519:                                                                                                  #        R61LEM  (PREF TRK ATT ROUT)                     WAITLIST
000520:                                                                                                  #        TASKOVER                                        FINDVAC
000521:
000522:                                                                                                  #  NORMAL EXIT MODES -
000523:
000524:                                                                                                  #        P25 MAY BE TERMINATED IN TWO WAYS - ASTRONAUT SELECTION OF IDLING
000525:                                                                                                  #        PROGRAM (P00) BY KEYING V37E00E OR BY KEYING IN V56E
000526:
000527:                                                                                                  #  ALARM OR ABORT EXIT MODES -
000528:
000529:                                                                                                  #        NONE
000530:
000531:                                                                                                  #  OUTPUT
000532:
000533:                                                                                                  #  ERASABLE INITIALIZATION REQUIRED
000534:
000535:                                                                                                  #  FLAGS SET + RESET
000536:
000537:                                                                                                  #        TRACKFLG, P25FLAG
000538:
000539:                                                                                                  #  DEBRIS
000540:
000541:                                                                                                  #        NONE
000542:
000543: 24,2400  E7,1456                                  EBANK=   LOSCOUNT
000544: 24,2400                                           COUNT*   $$/P25
000545: 24,2400           05327        PROG25             TC       2PHSCHNG
000546: 24,2401           00004                           OCT      4                                     #  MAKE GROUP 4 INACTIVE (VERB 37)
000547: 24,2402           05022                           OCT      05022
000548: 24,2403           26000                           OCT      26000                                 #  PRIORITY 26
000549:
000550: 24,2404           04616                           TC       BANKCALL
000551: 24,2405           11233                           CADR     R02BOTH                               #  IMU STATUS CHECK
000552: 24,2406           05504                           TC       UPFLAG
000553: 24,2407           00031                           ADRES    TRACKFLG                              #  SET TRACK FLAG
000554: 24,2410           05504                           TC       UPFLAG
000555: 24,2411           00006                           ADRES    P25FLAG                               #  SET P25FLAG
000556: 24,2412           05516                           TC       DOWNFLAG
000557: 24,2413           00010                           ADRES    RNDVZFLG
000558: 24,2414           05353        P25LEM1            TC       PHASCHNG
000559: 24,2415           04022                           OCT      04022
000560: 24,2416           34743                           CAF      P25FLBIT
000561: 24,2417           70074                           MASK     STATE                                 #  IS P25FLAG SET
000562: 24,2420           00006                           EXTEND
000563: 24,2421           15155                           BZF      ENDOFJOB
000564: 24,2422           34747                           CAF      TRACKBIT                              #  IS TRACKFLAG SET?


000566: 24,2423           70075                           MASK     STATE      +1
000567: 24,2424           00006                           EXTEND
000568: 24,2425           12433                           BZF      P25LMWT1                              #  NO - SKIP PHASE CHANGE AND WAIT 1 MINUTE
000569: 24,2426           34757                           CAF      SEVEN                                 #  CALL R65 - FINE PREFERRED
000570: 24,2427           55745                           TS       R65CNTR
000571: 24,2430           04616                           TC       BANKCALL                              #  TRACKING ATTITUDE ROUTINE
000572: 24,2431           46123                           CADR     R65LEM
000573: 24,2432           02414                           TC       P25LEM1                               #  THEN GO CHECK FLAGS
000574: 24,2433           32444        P25LMWT1           CAF      60SCNDS
000575: 24,2434           05173                           TC       TWIDDLE                               #  WAIT ONE MINUTE THEN CHECK AGAIN
000576: 24,2435           02437                           ADRES    P25LEM2
000577: 24,2436           05155                           TC       ENDOFJOB
000578: 24,2437           35024        P25LEM2            CAF      PRIO14
000579: 24,2440           05105                           TC       FINDVAC
000580: 24,2441  E7,1456                                  EBANK=   LOSCOUNT
000581: 24,2441           02414 50067                     2CADR    P25LEM1
000582:
000583: 24,2443           05261                           TC       TASKOVER
000584: 24,2444           13560        60SCNDS            DEC      6000       B-14
000585:


000587:                                                                                                  #  DATA READ ROUTINE 22 (LEM)
000588:                                                                                                  #  PROGRAM DESCRIPTION
000589:
000590:                                                                                                  #        MOD NO - 2
000591:                                                                                                  #        BY P VOLANTE
000592:
000593:                                                                                                  #  FUNCTIONAL DESCRIPTION
000594:
000595:                                                                                                  #        TO PROCESS AUTOMATIC RR MARK DATA TO UPDATE THE STATE VECTOR OF EITHER
000596:                                                                                                  #        LM OR CSM AS DEFINED IN THE RENDEZVOUS NAVIGATION PROGRAM (P20)
000597:
000598:                                                                                                  #  CALLING SEQUENCE -
000599:
000600:                                                                                                  #        TC      BANKCALL
000601:                                                                                                  #        CADR    R22LEM
000602:
000603:                                                                                                  #  SUBROUTINES CALLED -
000604:
000605:                                                                                                  #        LSR22.1         GOFLASH         WAITLIST
000606:                                                                                                  #        LSR22.2         PRIOLARM        BANKCALL
000607:                                                                                                  #        LSR22.3         R61LEM
000608:
000609:                                                                                                  #  NORMAL EXIT MODES -
000610:
000611:                                                                                                  #        R22 WILL CONTINUE TO RECYCLE, UPDATING STATE VECTORS WITH RADAR DATA
000612:                                                                                                  #        UNTIL P20 CEASES TO OPERATE (RENDEZVOUS FLAG SET TO ZERO) AT WHICH TIME
000613:                                                                                                  #        R22 WILL TERMINATE SELF.
000614:
000615:                                                                                                  #  ALARM OR ABORT EXIT MODES -
000616:
000617:                                                                                                  #        PRIORITY ALARM
000618:                                                                                                  #        PRIORITY ALARM 525 LOS NOT WITHIN 3 DEGREE LIMIT
000619:
000620:                                                                                                  #  OUTPUT
000621:
000622:                                                                                                  #        SEE OUTPUT FROM LSR22.3
000623:
000624:                                                                                                  #  ERASABLE INITIALIZATION REQUIRED
000625:
000626:                                                                                                  #        SEE LSR22.1, LSR22.2, LSR22.3
000627:
000628:                                                                                                  #  FLAGS SET + RESET
000629:
000630:                                                                                                  #        NOANGFLG
000631:
000632:                                                                                                  #  DEBRIS
000633:
000634:                                                                                                  #        SEE LSR22.1, LSR22.2, LSR22.3
000635:
000636: 24,2445  E7,1737                                  EBANK=   LRS22.1X
000637: 24,2445                                           COUNT*   $$/R22
000638: 24,2445           05353        R22LEM             TC       PHASCHNG
000639: 24,2446           04022                           OCT      04022
000640: 24,2447           34745                           CAF      RNDVZBIT                              #  IS RENDESVOUS FLAG SET?
000641: 24,2450           70074                           MASK     STATE
000642: 24,2451           00006                           EXTEND
000643: 24,2452           15155                           BZF      ENDOFJOB                              #  NO - EXIT R22 AND P20
000644: 24,2453           34747                           CAF      TRACKBIT                              #  IS TRACKFLAG SET?
000645: 24,2454           70075                           MASK     STATE      +1
000646: 24,2455           00006                           EXTEND
000647: 24,2456           12640                           BZF      R22WAIT                               #  NO WAIT
000648: 24,2457           34736        R22LEM12           CAF      BIT14                                 #  IS RR AUTO TRACK ENABLE DISCRETE STILL
000649: 24,2460           00006                           EXTEND                                         #  ON (A MONITOR REPOSITION BY R25 CLEARS IT
000650: 24,2461           02012                           RAND     CHAN12
000651: 24,2462           00006                           EXTEND
000652: 24,2463           12111                           BZF      P20LEMA                               #  NO - RETURN TO P20
000653: 24,2464           34752                           CAF      BIT2                                  #  YES
000654: 24,2465           00006                           EXTEND                                         #  IS RR AUTO MODE DISCRETE PRESENT
000655: 24,2466           02033                           RAND     CHAN33


000657: 24,2467           00006                           EXTEND
000658: 24,2470           12472                           BZF      +2                                    #  YES CONTINUE
000659: 24,2471           02135                           TC       P20LEMB5                              #  NO - SET IT
000660: 24,2472           40110                           CS       RADMODES                              #  ARE RR CDUS BEING ZEROED
000661: 24,2473           74737                           MASK     RCDU0BIT
000662: 24,2474           00006                           EXTEND
000663: 24,2475           12631                           BZF      R22LEM42                              #  CDUS BEING ZEROED
000664: 24,2476           05353                           TC       PHASCHNG                              #  IF A RESTART OCCURS,AN EXTRA RADAR
000665: 24,2477           00152                           OCT      00152                                 #  READING IS TAKEN, SO BAD DATA ISN'T USED
000666: 24,2500           04616                           TC       BANKCALL                              #  YES READ DATA + CALCULATE LOS
000667: 24,2501           64366                           CADR     LRS22.1                               #  DATA READ SUBROUTINE
000668: 24,2502           50154                           INDEX    MPAC
000669: 24,2503           02504                           TC       +1
000670: 24,2504           02525                           TC       R22LEM2                               #  NORMAL RETURN (GOOD DATA)
000671: 24,2505           02217                           TC       P20LEMC                               #  COULD NOT READ RADAR - TRY TO REDESIGNATE
000672: 24,2506           32664                           CAF      ALRM525                               #  RR LOS NOT WITHIN 3 DEGREES (ALARM)
000673: 24,2507           04616                           TC       BANKCALL
000674: 24,2510           21563                           CADR     PRIOLARM
000675: 24,2511           06025                           TC       GOTOV56                               #  TERMINATE EXITS P20 VIA V56 CODING
000676: 24,2512           02515                           TC       R22LEM1                               #  PROC (DISPLAY DELTA THETA)
000677: 24,2513           02506                           TC       -5                                    #  ENTER (ILLEGAL OPTION)
000678: 24,2514           05155                           TC       ENDOFJOB
000679:
000680: 24,2515           05353        R22LEM1            TC       PHASCHNG
000681: 24,2516           04022                           OCT      04022
000682: 24,2517           32665                           CAF      V06N05                                #  DISPLAY DELTA THETA
000683: 24,2520           04616                           TC       BANKCALL
000684: 24,2521           20510                           CADR     PRIODSP
000685: 24,2522           06025                           TC       GOTOV56                               #  TERMINATE EXITS P20 VIA V56 CODING
000686: 24,2523           02525                           TC       R22LEM2                               #  PROC (OK CONTINUE)
000687: 24,2524           02217                           TC       P20LEMC                               #  ENTER (RECYCLE)
000688: 24,2525           05353        R22LEM2            TC       PHASCHNG
000689: 24,2526           04022                           OCT      04022
000690: 24,2527           02670                           TC       LUNSFCHK                              #  CHECK IF ON LUNAR SURFACE (P22FLAG SET)
000691: 24,2530           02545                           TC       R22LEM3                               #  YES - BYPASS FLAG CHECKS AND LRS22.2
000692: 24,2531           30075                           CA       FLAGWRD1                              #  IS TRACK FLAG SET
000693: 24,2532           74747                           MASK     TRACKBIT
000694: 24,2533           00006                           EXTEND
000695: 24,2534           12640                           BZF      R22WAIT                               #  NO - WAIT
000696: 24,2535           04616                           TC       BANKCALL                              #  YES
000697: 24,2536           51334                           CADR     LRS22.2                               #  CHECKS RR BORESIGHT WITHIN 30 DEG OF +Z
000698: 24,2537           50154                           INDEX    MPAC
000699: 24,2540           02541                           TC       +1
000700: 24,2541           02545                           TC       R22LEM3                               #  NORMAL RETURN (LOS WITHIN 30 OF Z-AXIS)
000701: 24,2542           04616                           TC       BANKCALL
000702: 24,2543           46116                           CADR     R61LEM
000703: 24,2544           02640                           TC       R22WAIT                               #  NOT WITHIN 30 DEG OF Z-AXIS
000704: 24,2545           40075        R22LEM3            CS       FLAGWRD1                              #  SHOULD WE BYPASS STATE VECTOR UPDATE
000705: 24,2546           74746                           MASK     NOUPFBIT                              #  (IS NO UPDATE FLAG SET?)


000707: 24,2547           00006                           EXTEND
000708: 24,2550           12631                           BZF      R22LEM42                              #  BRANCH - YES
000709: 24,2551           30075                           CA       FLAGWRD1                              #  IS UPDATE FLAG SET
000710: 24,2552           74745                           MASK     UPDATBIT
000711: 24,2553           00006                           EXTEND
000712: 24,2554           12631                           BZF      R22LEM42                              #  UPDATE FLAG NOT SET
000713: 24,2555           37717                           CAF      PRIO26                                #  INSURE HIGH PRIO IN RESTART
000714: 24,2556           55055                           TS       PHSPRDT2
000715:
000716: 24,2557           06042                           TC       INTPRET
000717: 24,2560           77650                           GOTO
000718: 24,2561           54416                                    LSR22.3
000719: 24,2562           77776        R22LEM93           EXIT                                           #  NORMAL EXIT FROM LSR22.3
000720: 24,2563           05353                           TC       PHASCHNG                              #  PHASE CHANGE TO PROTECT AGAINST
000721: 24,2564           04022                           OCT      04022                                 #  CONFLICT WITH GRP2PC ERASEABLE
000722: 24,2565           12624                           TCF      R22LEM44
000723: 24,2566           77776        R22LEM96           EXIT
000724: 24,2567           34755                           CAF      ZERO                                  #  SET N49FLAG = ZERO TO INDICATE
000725: 24,2570           55746                           TS       N49FLAG                               #  V06 N49 DISPLAY HASNT BEEN ANSWERED
000726: 24,2571           05353                           TC       PHASCHNG
000727: 24,2572           04022                           OCT      04022                                 #  TO PROTECT DISPLAY
000728: 24,2573           37720                           CAF      PRIO27                                #  PROTECT DISPLAY
000729: 24,2574           05072                           TC       NOVAC
000730: 24,2575  E7,1746                                  EBANK=   N49FLAG
000731: 24,2575           02645 50067                     2CADR    N49DSP
000732:
000733: 24,2577           06042                           TC       INTPRET
000734: 24,2600           77735                           SLOAD
000735: 24,2601           03747                                    N49FLAG
000736: 24,2602           50054                           BZE      BMN                                   #  LOOP TO CHECK IF FLAG
000737: 24,2603           50600                                    -3                                    #  SETTING CHANGED - BRANCH - NO
000738: 24,2604           50612                                    R22LEM7                               #  PROCEED
000739: 24,2605           77650                           GOTO                                           #  DISPLAY ANSWERED BY RECYCLE - INCORPORATE
000740: 24,2606           03675                                    LGRET                                 #        NEXT MEASUREMENT
000741: 24,2607           44752        V34TON49           CS       TWO
000742: 24,2610           55746                           TS       N49FLAG
000743: 24,2611           05155                           TC       ENDOFJOB
000744: 24,2612           77776        R22LEM7            EXIT
000745: 24,2613           31746                           CA       N49FLAG                               #  WAS ANSWER TO DISPLAY PRO OR TERM
000746: 24,2614           64752                           AD       TWO
000747: 24,2615           00006                           EXTEND
000748: 24,2616           12445                           BZF      R22LEM                                #  BRANCH - TERM - TAKE ANOTHER RR READING
000749: 24,2617           06042                           TC       INTPRET
000750: 24,2620           77624                           CALL
000751: 24,2621           11210                                    GRP2PC                                #  PHASE CHANGE AND
000752: 24,2622           77650                           GOTO                                           #  GO TO INCORPORATE DATA.
000753: 24,2623           55431                                    ASTOK
000754: 24,2624           25462        R22LEM44           INCR     MARKCTR                               #  INCREMENT COUNT OF MARKS INCORPORATED.
000755: 24,2625           02670                           TC       LUNSFCHK                              #  ARE WE ON LUNAR SURFACE
000756: 24,2626           02642                           TC       R22LEM46                              #  YES - WAIT 2 SECONDS


000758: 24,2627           34756                           CA       FIVE                                  #  NOT ON LUNAR SURFACE
000759: 24,2630           02634                           TC       R22LEM45                              #  R65COUNTER = 5
000760: 24,2631           02670        R22LEM42           TC       LUNSFCHK                              #  CHECK IF ON LUNAR SURFACE (P22FLAG SET)
000761: 24,2632           02642                           TC       R22LEM46                              #  YES - WAIT 2 SECONDS
000762: 24,2633           34752                           CA       TWO                                   #  NO - SET R65COUNTER = 2
000763: 24,2634           55745        R22LEM45           TS       R65CNTR
000764: 24,2635           04616                           TC       BANKCALL
000765: 24,2636           46123                           CADR     R65LEM                                #  FINE PREFERRED TRACKING ATTITUDE
000766: 24,2637           02445                           TC       R22LEM
000767: 24,2640           32667        R22WAIT            CAF      1500DEC
000768: 24,2641           02233                           TC       P20LEMWT   +1
000769:
000770: 24,2642           04616        R22LEM46           TC       BANKCALL
000771: 24,2643           01735                           CADR     2SECDELY                              #  WAIT 2 SECONDS AND TAKE ANOTHER MARK
000772: 24,2644           02445                           TC       R22LEM
000773:
000774: 24,2645           32666        N49DSP             CAF      V06N49NB
000775: 24,2646           04616                           TC       BANKCALL                              #  EXCESSIVE STATE VECTOR UPDATE - FLASH
000776: 24,2647           20510                           CADR     PRIODSP                               #  VERB 06 NOUN 49 R1=DELTA R, R2=DELTA V
000777: 24,2650           02607                           TC       V34TON49                              #  TERMINATE - SET N49FLAG = -2
000778: 24,2651           44753                           CS       ONE                                   #  PROCEED - N49FLAG = -1
000779: 24,2652           55746                           TS       N49FLAG                               #  RECYCLE - N49FLAG = + VALUE
000780: 24,2653           05155                           TC       ENDOFJOB
000781: 24,2654           05353        R22RSTRT           TC       PHASCHNG                              #  IF A RESTART OCCURS WHILE READING RADAR
000782: 24,2655           00152                           OCT      00152                                 #  COME HERE TO TAKE A RANGE-RATE READING
000783: 24,2656           04616                           TC       BANKCALL                              #  WHICH ISNT USED TO PREVENT TAKING A BAD
000784: 24,2657           53112                           CADR     RRRDOT                                #  READING AND TRYING TO INCORPORATE THE
000785: 24,2660           04616                           TC       BANKCALL                              #  BAD DATA
000786: 24,2661           17705                           CADR     RADSTALL                              #  WAIT FOR READ COMPLETE
000787: 24,2662           02217                           TC       P20LEMC                               #  COULD NOT READ RADAR - TRY TO REDESIGNATE
000788: 24,2663           02445                           TC       R22LEM                                #  READ SUCCESSFUL - CONTINUE AT R22
000789:
000790: 24,2664           00525        ALRM525            OCT      00525
000791: 24,2665           01405        V06N05             VN       00605
000792: 24,2666           01461        V06N49NB           VN       00649
000793: 24,2667           02734        1500DEC            DEC      1500       B-14
000794:
000795:                                                                                                  #  LUNSFCHK - CLOSED SUBROUTINE TO CHECK IF ON LUNAR SURFACE (P22FLAG)
000796:                                                                                                  #        RETURNS TO CALLER +1 IF P22FLAG SET
000797:                                                                                                  #                TO CALLER +2 IF P22FLAG NOT SET
000798:
000799: 24,2670                                           COUNT*   $$/P22
000800: 24,2670           40104        LUNSFCHK           CS       FLAGWRD8                              #  CHECK IF ON LUNAR SURFACE
000801: 24,2671           74744                           MASK     SURFFBIT                              #  IS SURFFLAG SET?
000802: 24,2672           10000                           CCS      A                                     #  BRANCH - P22FLAG SET
000803: 24,2673           24002                           INCR     Q                                     #  NOT SET
000804: 24,2674           00002                           TC       Q                                     #  RETURN
000805:


000807:                                                                                                  #  RR DESIGNATE ROUTINE (R21LEM)
000808:                                                                                                  #  PROGRAM DESCRIPTION
000809:
000810:                                                                                                  #        MOD NO - 2
000811:                                                                                                  #        BY P VOLANTE
000812:
000813:                                                                                                  #  FUNCTIONAL DESCRIPTION
000814:
000815:                                                                                                  #        TO POINT THE RENDEZVOUS RADAR AT THE CSM UNTIL AUTOMATIC ACQUISITION
000816:                                                                                                  #        OF THE CSM IS ACCOMPLISHED BY THE RADAR.  ROUTINE IS CALLED BY P20.
000817:
000818:                                                                                                  #  CALLING SEQUENCE -
000819:
000820:                                                                                                  #        TC      BANKCALL
000821:                                                                                                  #        CADR    R21LEM
000822:
000823:                                                                                                  #  SUBROUTINES CALLED -
000824:
000825:                                                                                                  #        FINDVAC         FLAGUP          ENDOFJOB        PRIOLARM
000826:                                                                                                  #        NOVAC           INTPRET         LPS20.1         PHASCHNG
000827:                                                                                                  #        WAITLIST        JOBSLEEP        JOBWAKE         FLAGDOWN
000828:                                                                                                  #        TASKOVER        BANKCALL        RADSTALL        RRDESSM
000829:
000830:                                                                                                  #  NORMAL EXIT MODES
000831:                                                                                                  #
000832:                                                                                                  #        WHEN LOCK-ON IS ACHIEVED, BRANCH WILL BE TO P20 WHERE R22 (DATA READ
000833:                                                                                                  #        WILL BE SELECTED OR A NEED FOR A MANEUVER (BRANCH TO P20LEMA)
000834:
000835:                                                                                                  #  ALARM OR ABORT EXIT MODES -
000836:
000837:                                                                                                  #        PRIORITY ALARM 503 WHEN LOCK-ON HASN:T BEEN ACHIEVED AFTER 30SECS -
000838:                                                                                                  #        THIS REQUIRES ASTRONAUT INTERFACE- SELECTION OF SEARCH OPTION OF
000839:                                                                                                  #        ACQUISITION
000840:
000841:                                                                                                  #  OUTPUT
000842:
000843:                                                                                                  #        SEE LPS20.1, RRDESSM
000844:
000845:                                                                                                  #  ERASABLE INITIALIZATION REQUIRED
000846:
000847:                                                                                                  #        RRTARGET, RADMODES ARE USED BY LPS20.1 AND RRDESSM
000848:
000849:                                                                                                  #  FLAGS SET + RESET
000850:
000851:                                                                                                  #        LOSCMFLG        LOKONSW
000852:
000853:                                                                                                  #  DEBRIS
000854:
000855:                                                                                                  #        SEE LPS20.1, RRSESSM
000856:
000857: 24,2675  E7,1456                                  EBANK=   LOSCOUNT
000858: 24,2675                                           COUNT*   $$/R21
000859: 24,2675           44736        R21LEM             CS       BIT14                                 #  REMOVE RR SELF TRACK ENABLE
000860: 24,2676           00006                           EXTEND
000861: 24,2677           03012                           WAND     CHAN12
000862: 24,2700           02670                           TC       LUNSFCHK
000863: 24,2701           02706                           TC       R21LEM5
000864: 24,2702           34755                           CAF      ZERO                                  #  COMMAND ANTENNA TO MODE CENTER
000865: 24,2703           55106                           TS       TANG                                  #  IF NOT ON SURFACE - MODE 1 - (T=0,S=0)
000866: 24,2704           55107                           TS       TANG       +1
000867: 24,2705           02716                           TC       R21LEM6
000868: 24,2706           34740        R21LEM5            CAF      BIT12
000869: 24,2707           70110                           MASK     RADMODES
000870: 24,2710           10000                           CCS      A
000871: 24,2711           02726                           TC       R21LEM10
000872: 24,2712           34735                           CAF      BIT15
000873: 24,2713           55106                           TS       TANG
000874: 24,2714           44736                           CS       HALF
000875: 24,2715           55107                           TS       TANG       +1
000876:


000878: 24,2716           05516        R21LEM6            TC       DOWNFLAG
000879: 24,2717           00012                           ADRES    LOKONSW
000880: 24,2720           04616                           TC       BANKCALL
000881: 24,2721           52506                           CADR     RRDESNB
000882: 24,2722           02723                           TC       +1
000883: 24,2723           04616                           TC       BANKCALL
000884: 24,2724           17705                           CADR     RADSTALL
000885: 24,2725           02761                           TC       R21-503                               #  BAD RETURN FROM DESIGNATE - ISSUE ALARM
000886: 24,2726           05504        R21LEM10           TC       UPFLAG
000887: 24,2727           00041                           ADRES    LOSCMFLG                              #  EVERY FOURTH PASS THRU DODES
000888: 24,2730           32310                           CAF      MAXTRIES                              #  ALLOW 60 PASSES (APPROX 45 SECONDS)
000889: 24,2731           55113                           TS       DESCOUNT                              #  TO DESIGNATE AND LOCK ON
000890: 24,2732           36250        R21LEM2            CAF      THREE
000891: 24,2733           55456                           TS       LOSCOUNT
000892: 24,2734           06042        R21LEM1            TC       INTPRET
000893: 24,2735           43234                           RTB      DAD
000894: 24,2736           21574                                    LOADTIME
000895: 24,2737           11122                                    HALFSEC                               #  EXTRAPOLATE TO PRESENT TIME + .5 SEC.
000896: 24,2740           34041                           STCALL   TDEC1                                 #  LOS DETERMINATION ROUTINE
000897: 24,2741           51256                                    LPS20.1
000898: 24,2742           77776                           EXIT
000899: 24,2743           05504        R21LEM3            TC       UPFLAG                                #  SET LOKONSW TO RADAR - ON DESIRED
000900: 24,2744           00012                           ADRES    LOKONSW
000901: 24,2745           05516                           TC       DOWNFLAG
000902: 24,2746           00126                           ADRES    NORRMON
000903: 24,2747           06042                           TC       INTPRET
000904: 24,2750           77624                           CALL                                           #  INPUT (RRTARGET UPDATED BY LPS20.1)
000905: 24,2751           52404                                    RRDESSM                               #  DESIGNATE ROUTINE
000906: 24,2752           77776                           EXIT
000907: 24,2753           03002                           TC       R21LEM4                               #  LOS NOT IN MODE 2 COVERAGE
000908:                                                                                                  #  ON LUNAR SURFACE
000909: 24,2754           02111                           TC       P20LEMA                               #  VEHICLE MANEUVER REQUIRED.
000910: 24,2755           04616                           TC       BANKCALL                              #  NO VEHICLE MANEUVER REQUIRED
000911: 24,2756           17705                           CADR     RADSTALL                              #  WAIT FOR DESIGNATE COMPLETE - LOCKON OR
000912: 24,2757           02761                           TC       +2                                    #  BAD END - LOCKON NOT ACHIEVED IN 60 TRIES
000913: 24,2760           02770                           TC       R21END                                #  EXIT ROUTINE RETURN TO P20 (LOCK-ON)
000914: 24,2761           33000        R21-503            CAF      ALRM503                               #  ISSUE ALARM 503
000915: 24,2762           04616                           TC       BANKCALL
000916: 24,2763           21563                           CADR     PRIOLARM
000917: 24,2764           06025                           TC       GOTOV56                               #  TERMINATE EXITS P20 VIA V56 CODING
000918: 24,2765           02775                           TC       R21SRCH                               #  PROC
000919: 24,2766           02211                           TC       P20LEMC3
000920: 24,2767           05155                           TC       ENDOFJOB
000921: 24,2770           05516        R21END             TC       DOWNFLAG
000922: 24,2771           00041                           ADRES    LOSCMFLG                              #  RESET LOSCMFLG
000923: 24,2772           02670                           TC       LUNSFCHK                              #  ARE WE ON LUNAR SURFACE
000924: 24,2773           02232                           TC       P20LEMWT                              #  YES - BYPASS V50 N 72 DISPLAY
000925: 24,2774           03123                           TC       R21DISP                               #  PUT UP VERIFY MAIN LOBE LOCKON DISPLAY
000926: 24,2775           05353        R21SRCH            TC       PHASCHNG
000927: 24,2776           04022                           OCT      04022


000929: 24,2777           03210                           TC       R24LEM                                #  SEARCH ROUTINE
000930: 24,3000           00503        ALRM503            OCT      00503
000931: 24,3001           00527        ALRM527            OCT      527
000932:
000933: 24,3002           32310        R21LEM4            CAF      MAXTRIES                              #  SET UP COUNTER FOR
000934: 24,3003           55423                           TS       REPOSCNT                              #  60 PASSES (APPROX 600 SECS.)
000935: 24,3004           05504                           TC       UPFLAG
000936: 24,3005           00005                           ADRES    FSPASFLG                              #  SET FIRST PASS FLAG
000937: 24,3006           05516                           TC       DOWNFLAG                              #  RESET LOS BEING
000938: 24,3007           00041                           ADRES    LOSCMFLG                              #  COMPUTED FLAG
000939: 24,3010           06042                           TC       INTPRET
000940: 24,3011           77634        R21LEM12           RTB
000941: 24,3012           21574                                    LOADTIME
000942: 24,3013           77615        R21LEM00           DAD
000943: 24,3014           11120                                    TENSEC                                #  TIME T = T + 10 SECS.
000944: 24,3015           03425                           STORE    REPOSTM                               #  SAVE FOR LONGCALL AND UPPSV
000945: 24,3016           34041                           STCALL   TDEC1
000946: 24,3017           51256                                    LPS20.1                               #  COMPUTE LOS AT TIME T
000947: 24,3020           77624                           CALL
000948: 24,3021           52404                                    RRDESSM
000949: 24,3022           77776                           EXIT
000950: 24,3023           03035                           TC       R21LEM13                              #  LOS NOT IN MODE 2 COVERAGE
000951: 24,3024           05155                           TC       ENDOFJOB                              #  VEHICLE MANEUVER REQUIRED
000952: 24,3025           06032                           TC       KILLTASK
000953: 24,3026           52604                           CADR     BEGDES
000954: 24,3027           06042                           TC       INTPRET
000955: 24,3030           43014                           BOF      CLRGO
000956: 24,3031           00345                                    FSPASFLG                              #  FIRST PASS THRU REPOSITION
000957: 24,3032           51045                                    R21LEMB                               #  NO - GO TO CONTINUOUS DESIGNATE
000958: 24,3033           00225                                    FSPASFLG                              #  YES - RESET FIRST PASS FLAG
000959: 24,3034           51042                                    R21LEM50
000960: 24,3035           11423        R21LEM13           CCS      REPOSCNT                              #  HAVE WE TRIED 60 TIMES?
000961: 24,3036           03040                           TC       R21LEM7                               #  NO - ADD 10 SECS.  RECOMPUTE LOS
000962: 24,3037           03107                           TC       R21LEM11                              #  YES - PUT OUT ALARM 530
000963: 24,3040           55423        R21LEM7            TS       REPOSCNT
000964: 24,3041           06042                           TC       INTPRET
000965: 24,3042           52145        R21LEM50           DLOAD    GOTO
000966: 24,3043           03425                                    REPOSTM
000967: 24,3044           51013                                    R21LEM00
000968: 24,3045           77745        R21LEMB            DLOAD
000969: 24,3046           03425                                    REPOSTM
000970: 24,3047           34041                           STCALL   TDEC1
000971: 24,3050           50312                                    UPPSV
000972: 24,3051           77776                           EXIT
000973: 24,3052           05504                           TC       UPFLAG                                #  SET RADMODES BIT 15 FOR
000974: 24,3053           00264                           ADRES    CDESFLAG                              #  CONTINUOUS DESIGNATION
000975: 24,3054           05516                           TC       DOWNFLAG
000976: 24,3055           00012                           ADRES    LOKONSW
000977: 24,3056           05504                           TC       UPFLAG


000979: 24,3057           00126                           ADRES    NORRMON
000980: 24,3060           04616                           TC       BANKCALL
000981: 24,3061           52506                           CADR     RRDESNB
000982: 24,3062           03063                           TC       +1
000983: 24,3063           06042                           TC       INTPRET
000984: 24,3064           44234                           RTB      BDSU
000985: 24,3065           21574                                    LOADTIME                              #  COMPUTE DELTA TIME
000986: 24,3066           03425                                    REPOSTM                               #  FOR LONGCALL
000987: 24,3067           03427                           STORE    DELTATM
000988: 24,3070           77776                           EXIT
000989: 24,3071           00006                           EXTEND
000990: 24,3072           31427                           DCA      DELTATM
000991: 24,3073           05277                           TC       LONGCALL
000992: 24,3074  E7,1456                                  EBANK=   LOSCOUNT
000993: 24,3074           03077 50067                     2CADR    R21LEM9
000994:
000995: 24,3076           05155                           TC       ENDOFJOB
000996: 24,3077           06032        R21LEM9            TC       KILLTASK
000997: 24,3100           52613                           CADR     STDESIG
000998: 24,3101           06011                           TC       CLRADMOD
000999: 24,3102           37717                           CAF      PRIO26
001000: 24,3103           05105                           TC       FINDVAC
001001: 24,3104  E7,1456                                  EBANK=   LOSCOUNT
001002: 24,3104           02726 50067                     2CADR    R21LEM10
001003:
001004: 24,3106           05261                           TC       TASKOVER
001005: 24,3107           33116        R21LEM11           CAF      ALRM530                               #  ALARM 530 - LOS NOT IN COVERAGE
001006: 24,3110           04616                           TC       BANKCALL                              #  AFTER TRYING TO DESIGNATE FOR
001007: 24,3111           21563                           CADR     PRIOLARM                              #  600 SECS.
001008: 24,3112           06025                           TC       GOTOV56
001009: 24,3113           06025                           TC       GOTOV56
001010: 24,3114           06025                           TC       GOTOV56
001011: 24,3115           05155                           TC       ENDOFJOB
001012: 24,3116           00530        ALRM530            OCT      00530
001013: 24,3117           00000 01750  TENSEC             2DEC     1000       B-28
001014:
001015: 24,3121           00000 00062  HALFSEC            2DEC     50         B-28
001016:
001017: 24,3123           05353        R21DISP            TC       PHASCHNG
001018: 24,3124           04022                           OCT      04022
001019: 24,3125           33136                           CAF      V06N72PV                              #  FLASH V 50 N 72 - PLEASE PERFORM RR
001020: 24,3126           04616                           TC       BANKCALL                              #  MAIN LOBE LOCKON VERIFICATION
001021: 24,3127           20711                           CADR     GOPERF2R
001022: 24,3130           06025                           TC       GOTOV56                               #  TERMINATE EXITS VIA V 56
001023: 24,3131           02232                           TC       P20LEMWT                              #  PROCEED CONTINUES TO R22
001024: 24,3132           03125                           TC       -5                                    #  ENTER ILLEGAL
001025: 24,3133           34745                           CAF      BIT7
001026: 24,3134           05464                           TC       LINUS                                 #  SET BITS TO MAKE THIS A PRIORITY DISPLAY
001027: 24,3135           05155                           TC       ENDOFJOB
001028:


001030: 24,3136           01510        V06N72PV           VN       00672
001031:


001033:                                                                                                  #  MANUAL ACQUISITION ROUTINE R23LEM
001034:                                                                                                  #  PROGRAM DESCRIPTION
001035:
001036:                                                                                                  #        MOD NO - 2
001037:                                                                                                  #        BY P VOLANTE
001038:
001039:                                                                                                  #  FUNCTIONAL DESCRIPTION
001040:
001041:                                                                                                  #        TO ACQUIRE THE CSM BY MANUAL OPERATION OF THE RENDEZVOUS RADAR
001042:
001043:                                                                                                  #  CALLING SEQUENCE -
001044:
001045:                                                                                                  #        TC      R23LEM
001046:
001047:                                                                                                  #  SUBROUTINES CALLED
001048:
001049:                                                                                                  #        BANKCALL        R61LEM
001050:                                                                                                  #        SETMINDB        GOPERF1
001051:
001052:                                                                                                  #  NORMAL EXIT MODES -
001053:
001054:                                                                                                  #        IN RESPONSE TO THE GOPERF1      ,SELECTION OF ENTER WILL RECYCLE R23
001055:                                                                                                  #                                        ,SELECTION OF PROC WILL CONTINUE R23
001056:                                                                                                  #                                        ,SELECTION OF TERM WILL TERMINATE R23 + P20
001057:
001058:                                                                                                  #  ALARM OR ABORT EXIT MODES -
001059:
001060:                                                                                                  #        SEE NORMAL EXIT MODES ABOVE
001061:
001062:                                                                                                  #  OUTPUT
001063:
001064:                                                                                                  #        N.A.
001065:
001066:                                                                                                  #  ERASABLE INITIALIZATION REQUIRED -
001067:
001068:                                                                                                  #        ACMODFLG MUST BE SET TO 1 (MANUAL MODE)
001069:
001070: 24,3137     1142                                  EBANK=   GENRET
001071: 24,3137                                           COUNT*   $$/R23
001072: 24,3137           05504        R23LEM             TC       UPFLAG                                #  SET NO ANGLE MONITOR FLAG
001073: 24,3140           00126                           ADRES    NORRMON
001074: 24,3141           00004                           INHINT
001075: 24,3142           04674                           TC       IBNKCALL                              #  SELECT MINIMUM DEADBAND
001076: 24,3143           40141                           CADR     SETMINDB
001077: 24,3144           00003                           RELINT
001078: 24,3145           34736        R23LEM1            CAF      BIT14                                 #  ENABLE TRACKER
001079: 24,3146           00006                           EXTEND
001080: 24,3147           05012                           WOR      CHAN12
001081: 24,3150           33207                           CAF      OCT205
001082: 24,3151           04616                           TC       BANKCALL
001083: 24,3152           20624                           CADR     GOPERF1
001084: 24,3153           03200                           TC       R23LEM2                               #  TERMINATE
001085: 24,3154           03156                           TC       R23LEM11                              #  PROCEDE
001086: 24,3155           03203                           TC       R23LEM3                               #  ENTER - DO ANOTHER MANUVER
001087: 24,3156           00004        R23LEM11           INHINT
001088: 24,3157           04523                           TC       RRLIMCHK                              #  YES - CHECK IF ANTENNA IS WITHIN LIMITS
001089: 24,3160           00035                           ADRES    CDUT
001090: 24,3161           03170                           TC       OUTOFLIM                              #  NOT WITHIN LIMITS
001091: 24,3162           04674                           TC       IBNKCALL                              #  RESTORE DEADBAND TO
001092: 24,3163           40115                           CADR     RESTORDB                              #  ASTRONAUT SELECTED VALUE
001093: 24,3164           00003                           RELINT
001094: 24,3165           05516                           TC       DOWNFLAG                              #  CLEAR NO ANGLE MONITOR FLAG
001095: 24,3166           00126                           ADRES    NORRMON
001096: 24,3167           02163                           TC       P20LEMB1                              #  RADAR IS LOCKED ON CONTINUE IN P20
001097: 24,3170           00003        OUTOFLIM           RELINT


001099: 24,3171           33206                           CAF      OCT501PV
001100: 24,3172           04616                           TC       BANKCALL                              #  ISSUE ALARM - RR ANTENNA NOT WITHIN
001101: 24,3173           21563                           CADR     PRIOLARM                              #  LIMITS
001102: 24,3174           03200                           TC       R23LEM2                               #  TERMINATE - EXIT R23 TO R00 (GO TO POOH)
001103: 24,3175           03171                           TC       OUTOFLIM   +1                         #  PROCEED ILLEGAL
001104: 24,3176           03203                           TC       R23LEM3                               #  RECYCLE - DO ANOTHER MANUVER
001105: 24,3177           05155                           TC       ENDOFJOB
001106: 24,3200           05516        R23LEM2            TC       DOWNFLAG                              #  CLEAR NO ANGLE MONITOR FLAG
001107: 24,3201           00126                           ADRES    NORRMON
001108: 24,3202           06025                           TC       GOTOV56                               #  AND EXIT VIA V56
001109: 24,3203           04616        R23LEM3            TC       BANKCALL
001110: 24,3204           46116                           CADR     R61LEM
001111: 24,3205           03145                           TC       R23LEM1
001112:
001113: 24,3206           00501        OCT501PV           OCT      501
001114: 24,3207           00205        OCT205             OCT      205
001115:


001117:                                                                                                  #  SEARCH ROUTINE R24LEM
001118:                                                                                                  #  PROGRAM DESCRIPTION
001119:
001120:                                                                                                  #        MOD NO - 2
001121:                                                                                                  #        BY P. VOLANTE
001122:
001123:                                                                                                  #  FUNCTIONAL DESCRIPTION
001124:
001125:                                                                                                  #        TO ACQUIRE THE CSM BY A SEARCH PATTERN WHEN THE RENDEZVOUS RADAR HAS
001126:                                                                                                  #        FAILED TO ACQUIRE THE CSM IN THE AUTOMATIC TRACKING MODE AND TO ALLOW
001127:                                                                                                  #        THE ASTRONAUT TO CONFIRM THAT REACQUISITION HAS NOT BEEN BY SIDELOBE.
001128:
001129:                                                                                                  #  CALLING SEQUENCE
001130:
001131:                                                                                                  #        CAF     PRIONN
001132:                                                                                                  #        TC      FINDVAC
001133:                                                                                                  #        EBANK=  DATAGOOD
001134:                                                                                                  #        2CADR   R24LEM
001135:
001136:                                                                                                  #  SUBROUTINES CALLED
001137:
001138:                                                                                                  #        FLAGUP          FLAGDOWN        BANKCALL
001139:                                                                                                  #        R61LEM          GOFLASHR        FINDVAC
001140:                                                                                                  #        ENDOFJOB        NOVAC           LSR24.1
001141:
001142:                                                                                                  #  NORMAL EXIT MODES -
001143:
001144:                                                                                                  #        ASTRONAUT RESPONSE TO DISPLAY OF OMEGA AND DATAGOOD.  HE CAN EITHER
001145:                                                                                                  #        REJECT BY TERMINATING (SEARCH OPTION AND RESELECTING P20) OR ACCEPT BY
001146:                                                                                                  #        PROCEEDING (EXIT ROUTINE AND RETURN TO AUTO MODE IN P20)
001147:
001148:                                                                                                  #  ALARM OR ABORT EXIT MODES -
001149:
001150:                                                                                                  #        SEE NORMAL EXIT MODES ABOVE
001151:
001152:                                                                                                  #  OUTPUT -
001153:
001154:                                                                                                  #        SEE OUTPUT FROM LSR24.1 + R61LEM
001155:
001156:                                                                                                  #  ERASABLE INITIALIZATION REQUIRED
001157:
001158:                                                                                                  #        SEE INPUT FOR LSR24.1
001159:
001160:                                                                                                  #  FLAGS SET + RESET
001161:
001162:                                                                                                  #        SRCHOPT, ACMODFLG
001163:
001164: 24,3210  E7,1733                                  EBANK=   DATAGOOD
001165: 24,3210                                           COUNT*   $$/R24
001166: 24,3210           05504        R24LEM             TC       UPFLAG
001167: 24,3211           00037                           ADRES    SRCHOPTN                              #  SET SRCHOPT FLAG
001168: 24,3212           05516                           TC       DOWNFLAG                              #  RESET LOS BEING COMPUTED FLAG TO MAKE
001169: 24,3213           00041                           ADRES    LOSCMFLG                              #  SURE DODES DOESN'T GO TO R21
001170: 24,3214           34755        R24LEM1            CAF      ZERO
001171: 24,3215           55733                           TS       DATAGOOD                              #  ZERO OUT DATA INDICATOR
001172: 24,3216           55734                           TS       OMEGAD                                #  ZERO OMEGA DISPLAY REGS
001173: 24,3217           55735                           TS       OMEGAD     +1                         #  ZERO OMEGA DISPLAY REGS
001174: 24,3220           05353        R24LEM2            TC       PHASCHNG
001175: 24,3221           04022                           OCT      04022
001176: 24,3222           33255                           CAF      V16N80
001177: 24,3223           04616                           TC       BANKCALL
001178: 24,3224           20505                           CADR     PRIODSPR
001179: 24,3225           06025                           TC       GOTOV56
001180: 24,3226           03232                           TC       R24END                                #  PROCEED EXIT R24 TO P20LEM1
001181:
001182: 24,3227           03236                           TC       R24LEM3                               #  RECYCLE - CALL R61 TO MANEUVER S/C


001184: 24,3230           04616                           TC       BANKCALL
001185: 24,3231           55442                           CADR     LRS24.1
001186: 24,3232           06032        R24END             TC       KILLTASK
001187: 24,3233           55643                           CADR     CALLDGCH
001188: 24,3234           06011                           TC       CLRADMOD                              #  CLEAR BITS 10 & 15 OF RADMODES.
001189: 24,3235           12063                           TCF      P20LEM1                               #  AND GO TO 400 MI. RANGE CHECK IN P20.
001190:
001191:    6011                                           BLOCK    3
001192:    6000                                           SETLOC   FFTAG6
001193:    6000                                           BANK
001194:    6011                                           COUNT*   $$/R24
001195:
001196:    6011           46021        CLRADMOD           CS       BIT10+15
001197:    6012           00004                           INHINT
001198:    6013           70110                           MASK     RADMODES
001199:    6014           54110                           TS       RADMODES
001200:    6015           44752                           CS       BIT2                                  #  DISABLE RR ERROR COUNTERS
001201:    6016           00006                           EXTEND
001202:    6017           03012                           WAND     CHAN12                                #  USER WILL RELINT
001203:
001204:    6020           00002                           TC       Q
001205:
001206:    6021           41000        BIT10+15           OCT      41000
001207:
001208: 24,3236                                           BANK     24
001209: 24,2000                                           SETLOC   P20S
001210: 24,2000                                           BANK
001211: 24,3236                                           COUNT*   $$/R24
001212:
001213: 24,3236           05353        R24LEM3            TC       PHASCHNG
001214: 24,3237           04022                           OCT      04022
001215: 24,3240           06032                           TC       KILLTASK
001216: 24,3241           55643                           CADR     CALLDGCH                              #  KILL WAITLIST FOR NEXT POINT IN PATTERN
001217: 24,3242           06011                           TC       CLRADMOD                              #  CLEAR BITS 10 + 15 OF RADMODES
001218: 24,3243           34774                           CAF      .5SEC
001219: 24,3244           04616                           TC       BANKCALL                              #  WAIT FOR DESIGNATE LOOP TO DIE
001220: 24,3245           01736                           CADR     DELAYJOB
001221: 24,3246           02670                           TC       LUNSFCHK                              #  CHECK IF ON LUNAR SURFACE
001222: 24,3247           03252                           TC       R24LEM4                               #  YES - DONT DO ATTITUDE MANEUVER
001223: 24,3250           04616                           TC       BANKCALL                              #  CALL R61 TO DO PREFERRED TRACKING
001224: 24,3251           46116                           CADR     R61LEM                                #  ATTITUDE MANEUVER
001225: 24,3252           34755        R24LEM4            CAF      ZERO                                  #  ZERO OUT RADCADR (WHICH WAS SET BY
001226: 24,3253           55303                           TS       RADCADR                               #  ENDRADAR WHEN DESIGNATE STOPPED) SO THAT
001227:                                                                                                  #  RRDESSM WILL RETURN TO CALLER
001228: 24,3254           03220                           TC       R24LEM2                               #  AND GO BACK TO PUT UP V16 N80 DISPLAY
001229:
001230: 24,3255           04120        V16N80             VN       01680
001231:


001233:                                                                                                  #  PREFERRED TRACKING ATTITUDE ROUTINE R61LEM
001234:                                                                                                  #  PROGRAM DESCRIPTION
001235:
001236:                                                                                                  #        MOD NO: 3               DATE: 4-11-67
001237:                                                                                                  #        MOD BY: P VOLANTE  SDC
001238:
001239:                                                                                                  #  FUNCTIONAL DESCRIPTION -
001240:
001241:                                                                                                  #        TO COMPUTE THE PREFERRED TRACKING ATTITUDE OF THE LM TO ENABLE RR
001242:                                                                                                  #        TRACKING OF THE CSM AND TO PERFORM THE MANEUVER TO THE PREFERRED
001243:                                                                                                  #        ATTITUDE.
001244:
001245:                                                                                                  #  CALLING SEQUENCE -
001246:
001247:                                                                                                  #        TC      BANKCALL
001248:                                                                                                  #        CADR    R61LEM
001249:
001250:                                                                                                  #  SUBROUTINES CALLED
001251:
001252:                                                                                                  #        LPS20.1         VECPOINT
001253:                                                                                                  #        KALCMAN3
001254:
001255:                                                                                                  #  NORMAL EXIT MODES -
001256:
001257:                                                                                                  #        NORMAL RETURN IS TO CALLER + 1
001258:
001259:                                                                                                  #  ALARM OR ABORT EXIT MODES -
001260:
001261:                                                                                                  #        TERMINATE P20 + R61 BY BRANCHING TO P20END IF BOTH TRACKFLAG +
001262:                                                                                                  #        RENDEZVOUS FLAG ARE NOT SET.
001263:
001264:                                                                                                  #  OUTPUT -
001265:
001266:                                                                                                  #        SEE OUTPUT FOR LPS20.1 + ATTITUDE MANEUVER ROUTINE (R60)
001267:
001268:                                                                                                  #  ERASABLE INITIALIZATION REQUIRED
001269:
001270:                                                                                                  #        GENRET USED TO SAVE Q FOR RETURN
001271:
001272:                                                                                                  #  FLAGS SET + RESET
001273:
001274:                                                                                                  #        3AXISFLG
001275:
001276:                                                                                                  #  DEBRIS
001277:
001278:                                                                                                  #        SEE SUBROUTINES
001279:
001280: 23,2000                                           SETLOC   R61
001281: 23,2000                                           BANK
001282: 23,2116  E7,1456                                  EBANK=   LOSCOUNT
001283: 23,2116                                           COUNT*   $$/R61
001284: 23,2116           04645        R61LEM             TC       MAKECADR
001285: 23,2117           55142                           TS       GENRET
001286: 23,2120           05504                           TC       UPFLAG                                #  SET R61 FLAG
001287: 23,2121           00024                           ADRES    R61FLAG
001288: 23,2122           02152                           TC       R61C+L02
001289: 23,2123           04645        R65LEM             TC       MAKECADR
001290: 23,2124           55142                           TS       GENRET
001291: 23,2125           05516                           TC       DOWNFLAG                              #  RESET R61 FLAG
001292: 23,2126           00024                           ADRES    R61FLAG
001293: 23,2127           34750        R61C+L01           CAF      BIT4                                  #  BYPASS RADAR READING IF DATA
001294: 23,2130           00006                           EXTEND                                         #  GOOD NOT PRESENT
001295: 23,2131           02033                           RAND     CHAN33
001296: 23,2132           10000                           CCS      A
001297: 23,2133           12152                           TCF      R61C+L02                              #  NO DATA GOOD
001298: 23,2134           05504                           TC       UPFLAG


001300: 23,2135           00063                           ADRES    R04FLAG                               #  PREVENT 521 ALM
001301: 23,2136           04616                           TC       BANKCALL                              #  READ RR RANGE AND RDOT
001302: 23,2137           53112                           CADR     RRRDOT                                #        EVERY R65 PASS (3 TIMES
001303: 23,2140           04616                           TC       BANKCALL                              #        BEFORE FIRST MARK, ONCE
001304: 23,2141           17705                           CADR     RADSTALL                              #        DURING ANY MARK PROCESSING.
001305: 23,2142           12143                           NOOP
001306: 23,2143           04616                           TC       BANKCALL
001307: 23,2144           53114                           CADR     RRRANGE
001308: 23,2145           04616                           TC       BANKCALL
001309: 23,2146           17705                           CADR     RADSTALL
001310: 23,2147           12150                           NOOP
001311: 23,2150           05516                           TC       DOWNFLAG
001312: 23,2151           00063                           ADRES    R04FLAG
001313: 23,2152           34747        R61C+L02           CAF      TRACKBIT                              #  TRACKFLAG
001314: 23,2153           70075                           MASK     STATE      +1
001315: 23,2154           00006                           EXTEND
001316: 23,2155           12314                           BZF      R65WAIT                               #  NOT SET
001317: 23,2156           06042        R61C+L03           TC       INTPRET
001318: 23,2157           77775                           VLOAD
001319: 23,2160           06516                                    HIUNITZ
001320: 23,2161           03765                           STORE    SCAXIS                                #  TRACK AXIS UNIT VECTOR
001321: 23,2162           43234        R61LEM1            RTB      DAD
001322: 23,2163           21574                                    LOADTIME                              #  EXTRAPOLATE FORWARD TO CENTER
001323: 23,2164           15712                                    3SECONDS                              #  SIX SECOND PERIOD.
001324: 23,2165           34041                           STCALL   TDEC1
001325: 23,2166           51256                                    LPS20.1                               #  LOS DETERMINATION + VEH ATTITUDE
001326: 23,2167           77775                           VLOAD
001327: 23,2170           01101                                    RRTARGET
001328: 23,2171           03773                           STORE    POINTVSM
001329: 23,2172           45034                           RTB      CALL                                  #  GET DESIRED CDU'S FOR VECPNT1
001330: 23,2173           46322                                    READCDUD
001331: 23,2174           56032                                    VECPNT1                               #  COMPUTES FINAL ANGLES FROM PRESENT CDUDS
001332: 23,2175           00322                           STORE    CPHI                                  #  STORE FINAL ANGLES - CPHI, CTHETA, CPSI
001333: 23,2176           77776                           EXIT
001334: 23,2177           05353                           TC       PHASCHNG
001335: 23,2200           04022                           OCT      04022
001336: 23,2201           34747                           CAF      TRACKBIT                              #  IS TRACK FLAG SET
001337: 23,2202           70075                           MASK     FLAGWRD1
001338: 23,2203           00006                           EXTEND
001339: 23,2204           12314                           BZF      R65WAIT
001340: 23,2205           04616                           TC       BANKCALL
001341: 23,2206           54261                           CADR     G+N,AUTO                              #  CHECK FOR AUTO MODE
001342: 23,2207           10000                           CCS      A
001343: 23,2210           02302                           TC       R61C+L04                              #  NOT IN AUTO
001344: 23,2211           06042                           TC       INTPRET
001345: 23,2212           45175                           VLOAD    CALL
001346: 23,2213           01101                                    RRTARGET
001347: 23,2214           47650                                    CDU*SMNB
001348: 23,2215           45345                           DLOAD    DSU                                   #  GET PHI - ARCCOS OF Z-COMPONENT OF LOS
001349: 23,2216           00162                                    MPAC       +5


001351: 23,2217           06320                                    COS15DEG
001352: 23,2220           77440        R61LEM2            BMN      EXIT                                  #  BRANCH - PHI > 15 DEGREES
001353: 23,2221           46236                                    R61C+L05                              #  PHI GRE 10DEG
001354: 23,2222  E6,1634                                  EBANK=   CDUXD
001355: 23,2222           35015                           CAF      EBANK6
001356: 23,2223           54003                           TS       EBANK
001357: 23,2224           00004                           INHINT
001358: 23,2225           00006                           EXTEND
001359: 23,2226           30322                           DCA      CPHI
001360: 23,2227           53635                           DXCH     CDUXD
001361: 23,2230           30323                           CA       CPSI
001362: 23,2231           55636                           TS       CDUZD
001363: 23,2232           00003                           RELINT
001364: 23,2233  E7,1456                                  EBANK=   LOSCOUNT
001365: 23,2233           35016                           CAF      EBANK7
001366: 23,2234           54003                           TS       EBANK
001367: 23,2235           02261                           TC       R61C+L06
001368: 23,2236           77776        R61C+L05           EXIT
001369: 23,2237           00004                           INHINT
001370: 23,2240           04674                           TC       IBNKCALL
001371: 23,2241           40154                           FCADR    ZATTEROR
001372: 23,2242           04674                           TC       IBNKCALL
001373: 23,2243           40141                           FCADR    SETMINDB                              #  REDUCE ATTITUDE ERROR
001374: 23,2244           05516                           TC       DOWNFLAG
001375: 23,2245           00124                           ADRES    3AXISFLG
001376: 23,2246           05504                           TC       UPFLAG
001377: 23,2247           00077                           ADRES    PDSPFLAG                              #  SET PRIORITY DISPLAY FLAG
001378: 23,2250           04616                           TC       BANKCALL
001379: 23,2251           54123                           CADR     R60LEM
001380: 23,2252           00004                           INHINT
001381: 23,2253           04674                           TC       IBNKCALL
001382: 23,2254           40115                           FCADR    RESTORDB
001383: 23,2255           05353                           TC       PHASCHNG
001384: 23,2256           04022                           OCT      04022
001385: 23,2257           05516                           TC       DOWNFLAG
001386: 23,2260           00077                           ADRES    PDSPFLAG                              #  RESET PRIORITY DISPLAY FLAG
001387: 23,2261           30075        R61C+L06           CA       FLAGWRD1
001388: 23,2262           74742                           MASK     R61FLBIT
001389: 23,2263           10000                           CCS      A
001390: 23,2264           02305                           TC       R61C+L4
001391: 23,2265           11745                           CCS      R65CNTR
001392: 23,2266           02270                           TC       +2
001393: 23,2267           02305                           TC       R61C+L4                               #  R65CNTR = 0 - EXIT ROUTINE
001394: 23,2270           55745                           TS       R65CNTR
001395: 23,2271           32321                           CAF      06SEC
001396: 23,2272           05173                           TC       TWIDDLE
001397: 23,2273           02275                           ADRES    R61C+L2
001398: 23,2274           05155                           TC       ENDOFJOB
001399: 23,2275           37717        R61C+L2            CAF      PRIO26
001400: 23,2276           05105                           TC       FINDVAC


001402: 23,2277  E7,1456                                  EBANK=   LOSCOUNT
001403: 23,2277           02127 46067                     2CADR    R61C+L01
001404:
001405: 23,2301           05261                           TC       TASKOVER
001406: 23,2302           04616        R61C+L04           TC       BANKCALL                              #  TO CONVERT ANGLES TO FDAI
001407: 23,2303           54272                           CADR     BALLANGS
001408: 23,2304           02261                           TC       R61C+L06
001409: 23,2305           31142        R61C+L4            CAE      GENRET
001410: 23,2306           14640                           TCF      BANKJUMP                              #  EXIT R61
001411: 23,2307           32316        R61C+L1            CAF      BIT7+9PV                              #  IS RENDEZVOUS OR P25FLAG SET
001412: 23,2310           70074                           MASK     STATE
001413: 23,2311           00006                           EXTEND
001414: 23,2312           15155                           BZF      ENDOFJOB                              #  NO - EXIT ROUTINE AND PROGRAM.
001415: 23,2313           02261                           TC       R61C+L06                              #  YES EXIT ROUTINE
001416: 23,2314           04635        R65WAIT            TC       POSTJUMP
001417: 23,2315           50232                           CADR     P20LEMWT
001418:
001419: 23,2316           00500        BIT7+9PV           OCT      00500
001420: 23,2317           17350 34602  COS15DEG           2DEC     0.96593    B-1
001421:
001422: 23,2321           01130        06SEC              DEC      600        B-14
001423: 23,2322                        PHI                EQUALS   20D
001424: 23,2322           00004        READCDUD           INHINT                                         #  READS DESIRED CDU'S AND STORES IN
001425: 23,2323           35015                           CAF      EBANK6                                #  MPAC TP EXITS WITH MODE SET TO TP
001426: 23,2324           56003                           XCH      EBANK
001427: 23,2325           54070                           TS       RUPTREG1
001428: 23,2326  E6,1634                                  EBANK=   CDUXD
001429: 23,2326           31634                           CA       CDUXD
001430: 23,2327           54154                           TS       MPAC
001431: 23,2330           00006                           EXTEND
001432: 23,2331           31636                           DCA      CDUYD
001433: 23,2332           52156                           DXCH     MPAC       +1
001434: 23,2333           30070                           CA       RUPTREG1
001435: 23,2334           54003                           TS       EBANK
001436: 23,2335           00003                           RELINT
001437: 23,2336           16502                           TCF      TMODE
001438:
001439:    4512                                           BLOCK    02
001440:    4000                                           SETLOC   RADARFF
001441:    4000                                           BANK
001442:
001443:    4512  E7,1456                                  EBANK=   LOSCOUNT
001444:    4512                                           COUNT*   $$/RRSUB
001445:


001447:                                                                                                  #  THE FOLLOWING SUBROUTINE RETURNS TO CALLER +2 IF THE ABSOLUTE VALUE OF VALUE OF C(A) IS GREATER THAN THE
001448:                                                                                                  #  NEGATIVE OF THE NUMBER AT CALLER +1.  OTHERWISE IT RETURNS TO CALLER +3.  MAY BE CALLED IN RUPT OR UNDER EXEC.
001449:
001450:    4512           00006        MAGSUB             EXTEND
001451:    4513           64515                           BZMF     +2
001452:    4514           14516                           TCF      +2
001453:    4515           40000                           COM
001454:
001455:    4516           50002                           INDEX    Q
001456:    4517           60000                           AD       0
001457:    4520           00006                           EXTEND
001458:    4521           66744                           BZMF     Q+2                                   #  ABS(A) <= CONST GO TO L+1
001459:    4522           16742                           TCF      Q+1                                   #  ABS(A) > CONST GO TO L+2
001460:


001462:                                                                                                  #  PROGRAM NAME_ RRLIMCHK                        ARE IN THE LIMITS OF THE CURRENT MODE.
001463:
001464:                                                                                                  #  FUNCTIONAL DESCRIPTION_
001465:
001466:                                                                                                  #        RRLIMCHK CHECKS RR DESIRED GIMBAL ANGLES TO SEE IF THEY ARE WITHIN
001467:                                                                                                  #        THE LIMITS OF THE CURRENT MODE.  INITIALLY THE DESIRED TRUNNION AND
001468:                                                                                                  #        SHAFT ANGLES ARE STORED IN ITEMP1 AND ITEMP2.  THE CURRENT RR
001469:                                                                                                  #        ANTENNAE MODE (RADMODES BIT 12) IS CHECKED WHICH IS = 0 FOR
001470:                                                                                                  #        MODE 1 AND =1 FOR MODE 2.
001471:
001472:                                                                                                  #        MODE 1 - THE TRUNNION ANGLE IS CHECKED AT MAGSUB TO SEE IF IT IS
001473:                                                                                                  #        BETWEEN -55 AND +55 DEGREES.  IF NOT, RETURN TO L +2.  IF WITHIN LIMITS,
001474:                                                                                                  #        THE SHAFT ANGLE IS CHECKED TO SEE IF IT IS BETWEEN -70 AND +59 DEGREES.
001475:                                                                                                  #        IF NOT, RETURN TO L +2.  IF IN LIMITS, RETURN TO L +3.
001476:
001477:                                                                                                  #        MODE 2 - THE SHAFT ANGLE IS CHECKED AT MAGSUB TO SEE IF IT IS
001478:                                                                                                  #        BETWEEN -139 AND -25 DEGREES.  IF NOT, RETURN TO L +2.  IF WITHIN
001479:                                                                                                  #        LIMITS, THE TRUNNION ANGLE IS CHECKED TO SEE IF IT IS BETWEEN +125
001480:                                                                                                  #        AND -125 (+235) DEGREES.  IF NOT, RETURN TO L +2.  IF IN LIMITS, RETURN
001481:                                                                                                  #        TO L +3.
001482:
001483:                                                                                                  #  CALLING SEQUENCE:
001484:
001485:                                                                                                  #        L  TC  RRLIMCHK (WITH INTERRUPT INHIBITED)
001486:                                                                                                  #        L  +1  ADRES  T,S  (DESIRED TRUNNION ANGLE ADDRESS)
001487:
001488:                                                                                                  #  ERASABLE INITIALIZATION REQUIRED:
001489:
001490:                                                                                                  #        RADMODES, MODEA, MODEB (OR DESIRED TRUNNION AND SHAFT
001491:                                                                                                  #        ANGLES ELSEWHERE IN CONSECUTIVE LOCATIONS - UNSWITCHED ERASABLE OR
001492:                                                                                                  #        CURRENT EBANK).
001493:
001494:                                                                                                  #  SUBROUTINES CALLED_   MAGSUB
001495:
001496:                                                                                                  #  JOBS OR TASKS INITIATED_  NONE
001497:
001498:                                                                                                  #  ALARMS_  NONE
001499:
001500:                                                                                                  #  EXIT_         L + 2   (EITHER OR BOTH ANGLES NOT WITHIN LIMITS OF CURRENT MODE)
001501:                                                                                                  #                L + 3   (BOTH ANGLES WITHIN LIMITS OF CURRENT MODE)
001502:
001503:    4523           00006        RRLIMCHK           EXTEND
001504:    4524           50002                           INDEX    Q
001505:    4525           50000                           INDEX    0
001506:    4526           30001                           DCA      0
001507:    4527           24002                           INCR     Q
001508:    4530           52062                           DXCH     ITEMP1
001509:    4531           22002                           LXCH     Q                                     #  L(CALLER +2) TO L.
001510:
001511:    4532           34740                           CAF      ANTENBIT                              #  SEE WHICH MODE RR IS IN.
001512:    4533           70110                           MASK     RADMODES
001513:    4534           10000                           CCS      A
001514:    4535           14550                           TCF      MODE2CHK
001515:
001516:    4536           30061                           CA       ITEMP1                                #  MODE 1 IS DEFINED AS


001518:    4537           04512                           TC       MAGSUB                                #        1. ABS(T) L 55 DEGS.
001519:    4540           66161                           DEC      -.30555                               #        2. ABS(S + 5.5 DEGS) L 64.5 DEGS
001520:    4541           00001                           TC       L                                     #                (SHAFT LIMITS AT +59, -70 DEGS)
001521:
001522:    4542           34562                           CAF      5.5DEGS
001523:    4543           60062                           AD       ITEMP2                                #  S
001524:    4544           04512                           TC       MAGSUB
001525:    4545           64420                           DEC      -.35833                               #  64.5 DEGS
001526:    4546           00001                           TC       L
001527:    4547           04560                           TC       RRLIMOK                               #  IN LIMITS.
001528:
001529:    4550           34563        MODE2CHK           CAF      82DEGS                                #  MODE 2 IS DEFINED AS
001530:    4551           60062                           AD       ITEMP2                                #        1. ABS(T) G 125 DEGS.
001531:    4552           04512                           TC       MAGSUB                                #        2. ABS(S + 82 DEGS) L 57 DEGS
001532:    4553           65673                           DEC      -.31667                               #                (SHAFT LIMITS AT -25, -139 DEGS)
001533:    4554           00001                           TC       L
001534:
001535:    4555           30061                           CA       ITEMP1
001536:    4556           04512                           TC       MAGSUB
001537:    4557           51615                           DEC      -.69444                               #  125 DEGS
001538:
001539:    4560           50001        RRLIMOK            INDEX    L
001540:    4561           00001                           TC       L                                     #  ( = TC 1 )
001541:
001542:    4562           00765        5.5DEGS            DEC      .03056
001543:    4563           16450        82DEGS             DEC      .45556
001544:


001546:                                                                                                  #  PROGRAM NAME_ SETTRKF                                                 . IF EITHER:
001547:
001548:                                                                                                  #  FUNCTIONAL DESCRIPTION_
001549:                                                                                                  #        SETTRKF UPDATES THE TRACKER FAIL LAMP ON THE DSKY.              HER THE ALT OR VEL INFORMATION.
001550:                                                                                                  #        INITIALLY THE LAMP TEST FLAG (IMODES33 BIT 1) IS CHECKED.
001551:                                                                                                  #        IF A LAMP TEST IS IN PROGRESS, THE PROGRAM EXITS TO L +1.
001552:                                                                                                  #        IF NO LAMP TEST THE FOLLOWING IS CHECKED SEQUENTIALLY_
001553:                                                                                                  #                1) RR CDU:S BEING ZEROED, RR CDU OK, AND RR NOT IN
001554:                                                                                                  #                   AUTO MODE (RADMODES BITS 13, 7, 2).
001555:                                                                                                  #                2) LR VEL DATA FAIL AND NO LR POS DATA (RADMODES BITS
001556:                                                                                                  #                   8,5)
001557:                                                                                                  #                3) NO RR DATA (RADMODES BIT 4)
001558:                                                                                                  #        THE ABSENCE OF ALL THREE SIMULTANEOUSLY IN (1), THE PRESENCE OF BOTH
001559:                                                                                                  #        IN (2), AND THE PRESENCE OF (3) RESULTS IN EITHER THE TRACKER FAIL
001560:                                                                                                  #        LAMP (DSPTAB +11D BIT 8) BEING TURNED ON OR LEFT ON. OTHERWISE,
001561:                                                                                                  #        THE TRACKER FAIL LAMP IS TURNED OFF OR IS LEFT OFF. THEREFORE, THE
001562:                                                                                                  #        TRACKER FAIL LAMP IS TURNED ON IF_
001563:                                                                                                  #                A) RR CDU FAILED WITH RR IN AUTO MODE AND RR CDU'S NOT BEING ZEROED.
001564:                                                                                                  #                B) N SAMPLES OF LR DATA COULD NOT BE TAKEN IN 2N TRIES WITH
001565:                                                                                                  #                   EITHER THE ALT OR VEL INFORMATION
001566:                                                                                                  #                C) N SAMPLES OF RR DATA COULD NOT BE OBTAINED FROM 2N TRIES
001567:                                                                                                  #                   WITH EITHER THE AL
001568:
001569:                                                                                                  #  CALLING SEQUENCE:
001570:
001571:                                                                                                  #        L       TC      SETTRKF
001572:
001573:                                                                                                  #  ERASABLE INITIALIZATION REQUIRED:  IMODES33, RADMODES, DSPTAB +11D
001574:
001575:                                                                                                  #  SUBROUTINES CALLED_  NONE
001576:
001577:                                                                                                  #  JOBS OR TASKS INITIATED_  NONE
001578:
001579:                                                                                                  #  ALARMS_  TRACKER FAIL LAMP
001580:
001581:                                                                                                  #  EXIT_  L +1 (ALWAYS)                  ED.
001582:
001583:    4564           34753        SETTRKF            CAF      BIT1                                  #  NO ACTION IF DURING LAMP TEST.
001584:    4565           71300                           MASK     IMODES33
001585:    4566           10000                           CCS      A
001586:    4567           00002                           TC       Q
001587:
001588:    4570           34744        RRTRKF             CA       BIT8
001589:    4571           54001                           TS       L
001590:
001591:    4572           34615                           CAF      13,7,2                                #  SEE IF CDU FAILED.
001592:    4573           70110                           MASK     RADMODES
001593:    4574           00006                           EXTEND
001594:    4575           14601                           BZF      TRKFLON                               #  CONDITION 3 ABOVE.
001595:
001596:    4576           34750        RRCHECK            CAF      RRDATABT                              #  SEE IF RR DATA FAILED.
001597:    4577           70110                           MASK     RADMODES


001599:    4600           10000                           CCS      A
001600:    4601           30001        TRKFLON            CA       L
001601:    4602           61035                           AD       DSPTAB     +11D                       #  HALF ADD DESIRED AND PRESENT STATES.
001602:    4603           70001                           MASK     L
001603:    4604           00006                           EXTEND
001604:    4605           16745                           BZF      TCQ                                   #  NO CHANGE.
001605:
001606:    4606           31035        FLIP               CA       DSPTAB     +11D                       #  CANT USE LXCH DSPTAB +11D (RESTART PROB)
001607:    4607           00006                           EXTEND
001608:    4610           06001                           RXOR     LCHAN
001609:    4611           74733                           MASK     POSMAX
001610:    4612           64735                           AD       BIT15
001611:    4613           55035                           TS       DSPTAB     +11D
001612:    4614           00002                           TC       Q
001613:
001614:    4615           10102        13,7,2             OCT      10102
001615:    4616                        ENDRMODF           EQUALS
001616:


001618:                                                                                                  #  PROGRAM NAME_  RRTURNON
001619:
001620:                                                                                                  #  FUNCTIONAL DESCRIPTION_
001621:
001622:                                                                                                  #        RRTURNON IS THE TURN-ON SEQUENCE WHICH, ALONG WITH
001623:                                                                                                  #        RRZEROSB, ZEROS THE CDU:S AND DETERMINES THE RR MODE.
001624:                                                                                                  #        INITIALLY, CONTROL IS TRANSFERRED TO RRZEROSB FOR THE
001625:                                                                                                  #        ACTUAL TURN-ON SEQUENCE.  UPON RETURN THE PROGRAM
001626:                                                                                                  #        WAITS 1 SECOND BEFORE REMOVING THE TURN-ON FLAG
001627:                                                                                                  #        (RADMODES BIT1) SO THE REPOSITION ROUTINE WON:T
001628:                                                                                                  #        INITIATE PROGRAM ALARM 00501.  A CHECK IS THEN MADE
001629:                                                                                                  #        TO SEE IF A PROGRAM IS USING THE RR (STATE BIT 7).  IF
001630:                                                                                                  #        SO, THE PROGRAM EXITS TO ENDRADAR SO THAT THE RR CDU
001631:                                                                                                  #        FAIL FLAG (RADMODES BIT 7) CAN BE CHECKED BEFORE
001632:                                                                                                  #        RETURNING TO THE WAITING PROGRAM.  IF NOT, THE PROGRAM EXITS
001633:                                                                                                  #        TC TASKOVER.
001634:
001635:                                                                                                  #  CALLING SEQUENCE:  WAITLIST TASK FROM RRAUTCHK IF THE RR POWER ON AUTO
001636:                                                                                                  #  BIT (CHAN 33 BIT 2) CHANGES TO 0 AND NO PROGRAM WAS USING
001637:                                                                                                  #  THE RR (STATE BIT 7).
001638:
001639:                                                                                                  #  ERASABLE INITIALIZATION REQUIRED:
001640:
001641:                                                                                                  #        RADMODES, STATE
001642:
001643:                                                                                                  #  SUBROUTINES CALLED_  RRZEROSB, FIXDELAY, TASKOVER, ENDRADAR
001644:
001645:                                                                                                  #  JOBS OR TASKS INITIATED_
001646:                                                                                                  #
001647:                                                                                                  #        NONE
001648:
001649:                                                                                                  #  ALARMS_  NONE (SEE RRZEROSB)
001650:
001651:                                                                                                  #  EXIT_  TASKOVER, ENDRADAR (WAITING PROGRAM)
001652:
001653: 24,3256                                           BANK     24
001654: 25,2000                                           SETLOC   P20S1
001655: 25,2000                                           BANK
001656:
001657: 25,2073  E7,1456                                  EBANK=   LOSCOUNT
001658: 25,2073                                           COUNT*   $$/RSUB
001659: 25,2073           02102        RRTURNON           TC       RRZEROSB
001660: 25,2074           05221                           TC       FIXDELAY                              #  WAIT 1 SEC BEFORE REMOVING TURN ON FLAG
001661: 25,2075           00144                           DEC      100        B-14                       #  SO A MONITOR REPOSITION WONT ALARM.
001662: 25,2076           44753                           CS       TURNONBT
001663: 25,2077           70110                           MASK     RADMODES
001664: 25,2100           54110                           TS       RADMODES
001665: 25,2101           15261                           TCF      TASKOVER


001667:                                                                                                  #  PROGRAM NAME_  RRZEROSB
001668:
001669:                                                                                                  #  FUNCTIONAL DESCRIPTION_
001670:
001671:                                                                                                  #        RRZEROSB IS A CLOSED SUBROUTINE TO ZERO THE RR CDU:S,
001672:                                                                                                  #        DETERMINE THE RR MODE, AND TURNS ON THE TRACKER FAIL
001673:                                                                                                  #        LAMP IF REQUIRED.  INITIALLY THE RR CDU ZERO BIT (CHAN 12
001674:                                                                                                  #        BIT 1) IS SET.  FOLLOWING A 20 MILLISECOND WAIT, THE LGC
001675:                                                                                                  #        RR CDU COUNTERS (OPTY, OPTX) ARE SET = 0 AFTER
001676:                                                                                                  #        WHICH THE RR CDU ZERO DISCRETE (CHAN 12 BIT 1) IS
001677:                                                                                                  #        REMOVED.  A 4 SECOND WAIT IS SET TO ALL THE RR CDU'S
001678:                                                                                                  #        TO REPEAT THE ACTUAL TRUNNION AND SHAFT ANGLES.  THE
001679:                                                                                                  #        RR CDU ZERO FLAG (RADMODES BIT 13) IS REMOVED.  THE
001680:                                                                                                  #        CONTENTS OF OPTY IS THEN CHECKED TO SEE IF THE TRUNNION
001681:                                                                                                  #        ANGLE IS LESS THAN 90 DEGREES.  IF NOT, BIT 12 OF
001682:                                                                                                  #        RADMODES IS SET = 1 TO INDICATE RR ANTENNA MODE 2.
001683:                                                                                                  #        IF LESS THAN 90 DEGREES, BIT 12 OF RADMODES IS SET = 0 TO
001684:                                                                                                  #        INDICATE RR ANTENNA MODE 1.  SETTRKF IS THEN CALLED TO
001685:                                                                                                  #        SEE IF THE TRACKER FAIL LAMP SHOULD BE TURNED ON.
001686:
001687:                                                                                                  #  CALLING SEQUENCE:  L  TC  RRZEROSB  (FROM RRTURNON AND RRZERO)
001688:
001689:                                                                                                  #  ERASABLE INITIALIZATION REQUIRED:
001690:
001691:                                                                                                  #        RADMODES (BIT 13 SET), DSPTAB +11D
001692:
001693:                                                                                                  #  SUBROUTINES CALLED_  FIXDELAY, MAGSUB, SETTRKF
001694:
001695:                                                                                                  #  JOBS OR TASKS INITIATED_
001696:
001697:                                                                                                  #        NONE
001698:
001699:                                                                                                  #  ALARMS_  TRACKER FAIL
001700:
001701:                                                                                                  #  EXIT_  L +1 (ALWAYS)
001702:
001703: 25,2102           00006        RRZEROSB           EXTEND
001704: 25,2103           23312                           QXCH     RRRET
001705: 25,2104           34753                           CAF      BIT1                                  #  BIT 13 OF RADMODES MUST BE SET BEFORE
001706: 25,2105           00006                           EXTEND                                         #  COMING HERE.
001707: 25,2106           05012                           WOR      CHAN12                                #  TURN ON ZERO RR CDU
001708: 25,2107           05221                           TC       FIXDELAY
001709: 25,2110           00002                           DEC      2          B-14
001710:
001711: 25,2111           34755                           CAF      ZERO
001712: 25,2112           54035                           TS       CDUT
001713: 25,2113           54036                           TS       CDUS
001714: 25,2114           44753                           CS       ONE                                   #  REMOVE ZEROING BIT.
001715: 25,2115           00006                           EXTEND
001716: 25,2116           03012                           WAND     CHAN12
001717: 25,2117           05221                           TC       FIXDELAY
001718: 25,2120           01750                           DEC      1000       B-14                       #  RESET FAIL INHIBIT IN 10 SECS - D.281
001719:
001720: 25,2121           44737                           CS       RCDU0BIT                              #  REMOVE ZEROING IN PROCESS BIT.


001722: 25,2122           70110                           MASK     RADMODES
001723: 25,2123           54110                           TS       RADMODES
001724:
001725: 25,2124           30035                           CA       CDUT
001726: 25,2125           04512                           TC       MAGSUB
001727: 25,2126           57777                           DEC      -.5
001728: 25,2127           12132                           TCF      +3                                    #  IF MODE 2.
001729:
001730: 25,2130           34755                           CAF      ZERO
001731: 25,2131           12133                           TCF      +2
001732: 25,2132           34740                           CAF      ANTENBIT
001733: 25,2133           56110                           XCH      RADMODES
001734: 25,2134           77744                           MASK     -BIT12
001735: 25,2135           26110                           ADS      RADMODES
001736:
001737: 25,2136           04564                           TC       SETTRKF                               #  TRACKER LAMP MIGHT GO ON NOW.
001738:
001739: 25,2137           01312                           TC       RRRET                                 #  DONE.
001740:
001741: 25,2140     7744               -BIT12             EQUALS   -1/8                                  #  IN SPROOT
001742:


001744:                                                                                                  #  PROGRAM NAME_  DORREPOS
001745:
001746:                                                                                                  #  FUNCTIONAL DESCRIPTION_
001747:
001748:                                                                                                  #        DORREPOS IS A SEQUENCE OF TASKS TO DRIVE THE RENDEZVOUS RADAR
001749:                                                                                                  #        TO A SAFE POSITION.  INIITALLY SETRRECR IS CALLED WHERE THE RR
001750:                                                                                                  #        ERROR COUNTERS (CHAN 12 BIT 2) ARE ENABLED AND LASTYCMD
001751:                                                                                                  #        AND LASTXCMD SET = 0 TO INDICATE THE DIFFERENCE BETWEEN THE
001752:                                                                                                  #        DESIRED STATE AND PRESENT STATE OF THE COMMANDS.  THE RR
001753:                                                                                                  #        TURN-ON FLAG (RADMODES BIT 1) IS CHECKED AND IF NOT PRESENT,
001754:                                                                                                  #        PROGRAM ALARM 00501 IS REQUESTED BEFORE CONTINUING.  IN EITHER
001755:                                                                                                  #        CASE, FOLLOWING A 20 MILLISECOND WAIT THE PROGRAM CHECKS THE CURRENT
001756:                                                                                                  #        RR ANTENNA MODE (RADMODES BIT 12).  RRTONLY IS THEN CALLED
001757:                                                                                                  #        TO DRIVE THE TRUNNION ANGLE TO 0 DEGREES IF IN MODE 1 AND TO 180
001758:                                                                                                  #        DEGREES IF IN MODE 2.  UPON RETURN, THE CURRENT RR ANTENNA
001759:                                                                                                  #        MODE (RADMODES BIT 12) IS AGAIN CHECKED.  RRSONLY IS THEN
001760:                                                                                                  #        CALLED TO DRIVE THE SHAFT ANGLE TO 0 DEGREES IF IN MODE 1 AND TO
001761:                                                                                                  #        -90 DEGREES IF IN MODE 2.  IF DURING RRTONLY OR RRSONLY A
001762:                                                                                                  #        REMODE HAS BEEN REQUESTED (RADMODES BIT 14), AND ALWAYS
001763:                                                                                                  #        FOLLOWING COMPLETION OF RRSONLY, CONTROL IS TRANSFERRED TO
001764:                                                                                                  #        REPOSRPT.  HERE THE REPOSITION FLAG (RADMODES BIT 11) IS
001765:                                                                                                  #        REMOVED.  A CHECK IS THEN MADE ON THE DESIGNATE FLAG (RADMODES
001766:                                                                                                  #        BIT 10).  IF PRESENT, CONTROL IS TRANSFERRED TO BEGDES.  IF NOT PRESENT
001767:                                                                                                  #        INDICATING NO FURTHER ANTENNA CONTROL REQUIRED, THE RR ERROR
001768:                                                                                                  #        COUNTER BIT (CHAN 12 BIT 2) IS REMOVED AND THE ROUTINE EXITS TO
001769:                                                                                                  #        TASKOVER.
001770:
001771:                                                                                                  #  CALLING SEQUENCE:
001772:
001773:                                                                                                  #        WAITLIST CALL FROM RRGIMON IF TRUNNION AND SHAFT CDU ANGLES
001774:                                                                                                  #        NOT WITHIN LIMITS OF CURRENT MODE.
001775:
001776:                                                                                                  #  ERASABLE INITIALIZATION REQUIRED:
001777:
001778:                                                                                                  #        RADMODES
001779:
001780:                                                                                                  #  SUBROUTINES CALLED_
001781:
001782:                                                                                                  #        RRTONLY, RRSONLY, BEGDES (EXIT)
001783:
001784:                                                                                                  #  JOBS OR TASKS INITIATED_
001785:
001786:                                                                                                  #        NONE
001787:
001788:                                                                                                  #  ALARMS_  NONE
001789:
001790:                                                                                                  #  EXIT_  TASKOVER, BEGDES
001791:
001792: 25,2140           02167        DORREPOS           TC       SETRRECR                              #  SET UP RR CDU ERROR COUNTERS.
001793:
001794:                                                                                                  #  ALARM 501 DELETED IN DANCE 279 PER PCR 97.
001795:
001796: 25,2141           05221                           TC       FIXDELAY
001797: 25,2142           00002                           DEC      2          B-14
001798:
001799: 25,2143           34740                           CAF      ANTENBIT                              #  MANEUVER TRUNNION ANGLE TO NOMINAL POS.


001801: 25,2144           70110                           MASK     RADMODES
001802: 25,2145           10000                           CCS      A
001803: 25,2146           34735                           CAF      BIT15                                 #  0 FOR MODE 1 AND 180 FOR MODE 2.
001804: 25,2147           02252                           TC       RRTONLY
001805:
001806: 25,2150           34740                           CAF      ANTENBIT                              #  NOW PUT SHAFT IN RIGHT POSITION
001807: 25,2151           70110                           MASK     RADMODES
001808: 25,2152           10000                           CCS      A
001809: 25,2153           44736                           CS       HALF                                  #  -90 FOR MODE 2.
001810: 25,2154           02255                           TC       RRSONLY
001811:
001812: 25,2155           44741        REPOSRPT           CS       REPOSBIT                              #  RETURNS HERE FROM RR1AXIS IF REMODE
001813:                                                                                                  #  REQUESTED DURING REPOSITION.
001814: 25,2156           70110                           MASK     RADMODES                              #  REMOVE REPOSITION BIT.
001815: 25,2157           54110                           TS       RADMODES
001816: 25,2160           74742                           MASK     DESIGBIT                              #  SEE IF SOMEONE IS WAITING TO DESIGNATE.
001817: 25,2161           10000                           CCS      A
001818: 25,2162           12604                           TCF      BEGDES
001819: 25,2163           44752                           CS       BIT2                                  #  IF NO FURTHER ANTENNA CONTROL REQUIRED,
001820: 25,2164           00006                           EXTEND                                         #  REMOVE ERROR COUNTER ENABLE.
001821: 25,2165           03012                           WAND     CHAN12
001822: 25,2166           15261                           TCF      TASKOVER
001823:
001824: 25,2167           34752        SETRRECR           CAF      BIT2                                  #  SET UP RR ERROR COUNTERS.
001825: 25,2170           00006                           EXTEND
001826: 25,2171           02012                           RAND     CHAN12
001827: 25,2172           10000                           CCS      A                                     #  DO NOT CLEAR LAST COMMAND IF
001828: 25,2173           00002                           TC       Q                                     #  ERROR COUNTERS ARE ENABLED.
001829:
001830: 25,2174           54112                           TS       LASTYCMD
001831: 25,2175           54113                           TS       LASTXCMD
001832: 25,2176           34752                           CAF      BIT2
001833: 25,2177           00006                           EXTEND
001834: 25,2200           05012                           WOR      CHAN12                                #  ENABLE RR CDU ERROR COUNTERS.
001835: 25,2201           00002                           TC       Q


001837:                                                                                                  #  PROGRAM NAME_  REMODE                                                 IVES SHAFT TO -45, AND FINALLY DRIVES
001838:
001839:                                                                                                  #  FUNCTIONAL DESCRIPTION_                                               S DONE WITH SINGLE AXIS ROTATIONS (SEE
001840:                                                                                                  #        REMODE IS THE GENERAL REMODING SUBROUTINE.  IT DRIVES THE
001841:                                                                                                  #        TRUNNION ANGLE TO 0 DEGREES IF THE CURRENT MODE IS MODE 1,
001842:                                                                                                  #        180 DEGREES FOR MODE 2, THEN DRIVES THE SHAFT ANGLE TO -45
001843:                                                                                                  #        DEGREES, AND FINALLY DRIVES THE TRUNNION ANGLE TO -130 DEGREES,
001844:                                                                                                  #        TO PLACE THE RR IN MODE 2, -50 DEGREES FOR MODE 1, BEFORE
001845:                                                                                                  #        INITIATING 2-AXIS CONTROL.  ALL REMODING IS DONE WITH SINGLE
001846:                                                                                                  #        AXIS ROTATIONS (RR1AXIS).  INITIALLY THE RR ANTENNA MODE FLAG
001847:                                                                                                  #        (RADMODES BIT 12) IS CHECKED.  CONTROL IS THEN TRANSFERRED TO
001848:                                                                                                  #        RRTONLY TO DRIVE THR TRUNNION ANGLE TO 0 DEGREES IF IN MODE 1
001849:                                                                                                  #        OR 180 DEGREES IF IN MODE 2.  RRSONLY IS THEN CALLED TO DRIVE
001850:                                                                                                  #        THE SHAFT ANGLE TO -45 DEGREES. THE RR ANTENNA MODE FLAG
001851:                                                                                                  #        (RADMODES BIT 12) IS CHECKED AGAIN.  CONTROL IS AGAIN
001852:                                                                                                  #        TRANSFERRED TO RRTONLY TO DRIVE THE TRUNNION ANGLE TO -130
001853:                                                                                                  #        DEGREES TO PLACE THE RR IN MODE 2 IF CURRENTLY IN MODE 1 OR TO
001854:                                                                                                  #        -50 DEGREES IF IN MODE 2 TO PLACE THE RR IN MODE 1.  RMODINV
001855:                                                                                                  #        IS THEN CALLED TO SET RADMODES BIT 12 TO INDICATE THE NEW
001856:                                                                                                  #        RR ANTENNA MODE.  THE REMODE FLAG (RADMODES BIT 14)
001857:                                                                                                  #        IS REMOVED TO INDICATE THAT REMODING IS COMPLETE.  THE PROGRAM
001858:                                                                                                  #        THEN EXITS TO STDESIG TO BEGIN 2-AXIS CONTROL.
001859:
001860:                                                                                                  #  CALLING SEQUENCE:
001861:
001862:                                                                                                  #        FROM BEGDES WHEN REMODE FLAG (RADMODES BIT 14) IS SET.
001863:                                                                                                  #        THIS FLAG MAY BE SET IN RRDESSM AND RRDESNB IF RRLIMCHK
001864:                                                                                                  #        DETERMINES THAT THE DESIRED ANGLES ARE WITHIN THE LIMITS OF THE
001865:                                                                                                  #        OTHER MODE.
001866:
001867:                                                                                                  #  ERASABLE INITIALIZATION REQUIRED:
001868:
001869:                                                                                                  #        RADMODES
001870:
001871:                                                                                                  #  SUBROUTINES CALLED_
001872:
001873:                                                                                                  #        RRTONLY, RRSONLY, RMODINV (ACTUALLY PART OF)
001874:
001875:                                                                                                  #  JOBS OR TASKS INITIATED_
001876:
001877:                                                                                                  #        NONE
001878:
001879:                                                                                                  #  ALARMS_  NONE
001880:
001881:                                                                                                  #  EXIT_  STDESIG
001882:
001883: 25,2202           34740        REMODE             CAF      ANTENBIT                              #  DRIVE TRUNNION TO 0 (180)
001884: 25,2203           70110                           MASK     RADMODES                              #  (ERROR COUNTER ALREADY ENABLED)
001885: 25,2204           10000                           CCS      A
001886: 25,2205           34735                           CAF      BIT15
001887: 25,2206           02252                           TC       RRTONLY
001888:
001889: 25,2207           37743                           CAF      -45DEGSR
001890: 25,2210           02255                           TC       RRSONLY


001892: 25,2211           40110                           CS       RADMODES
001893: 25,2212           74740                           MASK     ANTENBIT
001894: 25,2213           10000                           CCS      A
001895: 25,2214           32243                           CAF      -80DEGSR                              #  GO TO T = -130 (-50).
001896: 25,2215           62242                           AD       -50DEGSR
001897: 25,2216           02252                           TC       RRTONLY
001898:
001899: 25,2217           40110                           CS       RADMODES
001900: 25,2220           74740                           MASK     ANTENBIT
001901: 25,2221           10000                           CCS      A
001902: 25,2222           34735                           CAF      BIT15                                 #  GO TO T = -180 (+0).
001903: 25,2223           02252                           TC       RRTONLY
001904:
001905: 25,2224           40110                           CS       RADMODES                              #  GO TO S = -90 (+0).
001906: 25,2225           74740                           MASK     ANTENBIT
001907: 25,2226           10000                           CCS      A
001908: 25,2227           44736                           CS       HALF
001909: 25,2230           02255                           TC       RRSONLY
001910:
001911: 25,2231           02244                           TC       RMODINV
001912: 25,2232           44736                           CS       REMODBIT                              #  END OF REMODE.
001913: 25,2233           70110                           MASK     RADMODES
001914: 25,2234           54110                           TS       RADMODES
001915:
001916: 25,2235           34742                           CAF      DESIGBIT                              #  WAS REMODE CALLED DURING DESIGNATE?
001917: 25,2236           70110                           MASK     RADMODES                              #  (BIT10 RADMODES = 1)
001918: 25,2237           00006                           EXTEND
001919: 25,2240           13560                           BZF      RGOODEND                              #  NO - RETURN TO CALLER WAITING IN RADSTALL
001920: 25,2241           02613                           TC       STDESIG                               #  YES - RETURN TO DESIGNATE
001921: 25,2242     7743               -45DEGSR           =        13,14,15
001922: 25,2242           67070        -50DEGSR           DEC      -.27778
001923: 25,2243           61615        -80DEGSR           DEC      -.44444
001924:
001925: 25,2244           22110        RMODINV            LXCH     RADMODES                              #  INVERT THE MODE STATUS.
001926: 25,2245           34740                           CAF      ANTENBIT
001927: 25,2246           00006                           EXTEND
001928: 25,2247           06001                           RXOR     LCHAN
001929: 25,2250           54110                           TS       RADMODES
001930: 25,2251           00002                           TC       Q
001931:


001933:                                                                                                  #  PROGRAM NAMES_        RRTONLY, RRSONLY
001934:
001935:                                                                                                  #  FUNCTIONAL DESCRIPTION_
001936:
001937:                                                                                                  #        RRTONLY AND RRSONLY ARE SUBROUTINES FOR DOING SINGLE AXIS
001938:                                                                                                  #        RRMANEUVERS FOR REMODE AND REPOSITION.  IT DRIVES TO
001939:                                                                                                  #        WITHIN 1 DEGREE.  INITIALLY, AT RR1AX2, THE REMODE AND REPOSITION
001940:                                                                                                  #        FLAGS (RADMODES BITS 14, 11) ARE CHECKED.  IF BOTH EXIST,
001941:                                                                                                  #        THE PROGRAM EXITS TO REPOSRPT (SEE DORREPOS).  THIS INDICATES
001942:                                                                                                  #        THAT SOMEONE POSSIBLY REQUESTED A DESIGNATE (RADMODES BIT 10)
001943:                                                                                                  #        WHICH REQUIRES A REMODE (RADMODES BIT 14) AND THAT A
001944:                                                                                                  #        REPOSITION IS IN PROGRESS (RADMODES BIT 11).  IF NONE
001945:                                                                                                  #        OR ONLY ONE OF THE FLAGS EXIST, REMODE OR REPOSITION, MAGSUB
001946:                                                                                                  #        IS CALLED TO SEE IF THE APPROPRIATE ANGLE IS WITHIN 1 DEGREE.  IF YES,
001947:                                                                                                  #        CONTROL RETURNS TO THE CALLING ROUTINE.  IF NOT, CONTROL IS
001948:                                                                                                  #        TRANSFERRED TO RROUT FOR SINGLE AXIS MANEUVERS WITH THE OTHER
001949:                                                                                                  #        ANGLE SET = 0.  FOLLOWING A .5 SECOND WAIT, THE ABOVE PROCEDURE IS
001950:                                                                                                  #        REPEATED.
001951:
001952:                                                                                                  #  CALLING SEQUENCE:     L-1     CAF     *ANGLE*         (DESIRED ANGLE SCALED PI)
001953:                                                                                                  #                        L       TC      RRTONLY         (TRUNNION ONLY)
001954:                                                                                                  #                        RRSONLY                         (SHAFT ONLY)
001955:                                                                                                  #                        RRTONLY IS CALLED BY PREPOS29;
001956:                                                                                                  #                        RRTONLY AND RRSONLY ARE CALLED BY DORREPOS AND REMODE
001957:
001958:                                                                                                  #  ERASABLE INITIALIZATION REQUIRED:
001959:
001960:                                                                                                  #        C(A) = DESIRED ANGLE, RADMODES
001961:
001962:                                                                                                  #  SUBROUTINES CALLED_
001963:
001964:                                                                                                  #        FIXDELAY, REPOSRPT, MAGSUB, RROUT
001965:
001966:                                                                                                  #  JOBS OR TASKS INITIATED_
001967:
001968:                                                                                                  #        NONE
001969:
001970:                                                                                                  #  ALARMS_  NONE
001971:
001972:                                                                                                  #  EXIT_ REPOSRPT (REMODE AND REPOSITION FLAGS PRESENT - RADMODES
001973:                                                                                                  #        BITS 14, 11)
001974:                                                                                                  #        L+1 (ANGLE WITHIN ONE DEGREE OR RR OUT OF AUTO MODE)
001975:
001976: 25,2252           55313        RRTONLY            TS       RDES                                  #  DESIRED TRUNION ANGLE.
001977: 25,2253           34755                           CAF      ZERO
001978: 25,2254           12257                           TCF      RR1AXIS
001979:
001980: 25,2255           55313        RRSONLY            TS       RDES                                  #  SHAFT COMMANDS ARE UNRESOLVED SINCE THIS
001981: 25,2256           34753                           CAF      ONE                                   #  ROUTINE ENTERED ONLY WHEN T = 0 OR 180.
001982:
001983: 25,2257           55314        RR1AXIS            TS       RRINDEX
001984: 25,2260           00006                           EXTEND
001985: 25,2261           23312                           QXCH     RRRET
001986: 25,2262           12265                           TCF      RR1AX2
001987:


001989: 25,2263           05221        NXTRR1AX           TC       FIXDELAY
001990: 25,2264           00062                           DEC      50         B-14                       #  2 SAMPLES PER SECOND.
001991:
001992: 25,2265           40110        RR1AX2             CS       RADMODES                              #  IF SOMEONE REQUESTES AS DESIGNATE WHICH
001993: 25,2266           77713                           MASK     PRIO22                                #  REQUIRES A REMODE AND A REPOSITION IS IN
001994: 25,2267           00006                           EXTEND                                         #  PROGRESS, INTERRUPT IT AND START THE
001995: 25,2270           12155                           BZF      REPOSRPT                              #  REMODE IMMEDIATELY.
001996:
001997: 25,2271           31313                           CA       RDES
001998: 25,2272           00006                           EXTEND
001999: 25,2273           51314                           INDEX    RRINDEX
002000: 25,2274           20035                           MSU      CDUT
002001: 25,2275           54061                           TS       ITEMP1                                #  SAVE ERROR SIGNAL.
002002: 25,2276           00006                           EXTEND
002003: 25,2277           72316                           MP       RRSPGAIN                              #  TRIES TO NULL .7 OF ERROR OVER NEXT .5
002004: 25,2300           54001                           TS       L
002005: 25,2301           30110                           CA       RADMODES
002006: 25,2302           74752                           MASK     AUTOMBIT
002007: 25,2303           56061                           XCH      ITEMP1                                #  STORE RR-OUT-OF-AUTO-MODE BIT.
002008: 25,2304           04512                           TC       MAGSUB                                #  SEE IF WITHIN ONE DEGREE.
002009: 25,2305           77644                           DEC      -.00555                               #  SCALED IN HALF-REVS.
002010:
002011: 25,2306           10061                           CCS      ITEMP1                                #  NO.  IF RR OUT OF AUTO MODE, EXIT.
002012: 25,2307           01312                           TC       RRRET                                 #  RETURN TO CALLER.
002013:
002014: 25,2310           11314                           CCS      RRINDEX                               #  COMMAND FOR OTHER AXIS IS ZERO.
002015: 25,2311           12313                           TCF      +2                                    #  SETTING A TO 0.
002016: 25,2312           56001                           XCH      L
002017: 25,2313           53355                           DXCH     TRUNNCMD
002018: 25,2314           02317                           TC       RROUT
002019:
002020: 25,2315           12263                           TCF      NXTRR1AX                              #  COME BACK IN .5 SECONDS.
002021:
002022: 25,2316           22715        RRSPGAIN           DEC      .59062                                #  NULL .7 ERROR IN .5 SEC.
002023:


002025:                                                                                                  #  PROGRAM NAME_  RROUT                                          RROR COUNTER SCALING. RROUT LIMITS THEM
002026:
002027:                                                                                                  #  FUNCTIONAL DESCRIPTION_
002028:
002029:                                                                                                  #        RROUT RECEIVES RR GYRO COMMANDS IN TANG, TANG +1 IN RR
002030:                                                                                                  #        ERROR COUNTER SCALING.  RROUT THEN LIMITS THEM AND
002031:                                                                                                  #        GENERATES COMMANDS TO THE CDU TO ADJUST THE ERROR COUNTERS
002032:                                                                                                  #        TO THE DESIRED VALUES.  INITIALLY MAGSUB CHECKS THE MAGNITUDE OF
002033:                                                                                                  #        THE COMMAND (SHAFT ON 1ST PASS) TO SEE IF IT IS GREATER THAN
002034:                                                                                                  #        384 PULSES.  IF NOT, CONTROL IS TRANSFERRED TO RROUTLIM TO
002035:                                                                                                  #        LIMIT THE COMMAND TO +384 OR -384 PULSES.  THE DIFFERENCE IS
002036:                                                                                                  #        THEN CALCULATED BETWEEN THE DESIRED STATE AND THE PRESENT STATE OF
002037:                                                                                                  #        THE ERROR COUNTER AS RECORDED IN LASTYCMD AND LASTXCMD.
002038:                                                                                                  #        THE RESULT IS STORED IN OPTXCMD (1ST PASS) AND OPTYCMD (2ND
002039:                                                                                                  #        PASS).  FOLLOWING THE SECOND PASS, FOR THE TRUNNION COMMAND, THE
002040:                                                                                                  #        OCDUT AND OCDUS ERROR COUNTER DRIVE BITS (CHAN 14 BITS 12, 11)
002041:                                                                                                  #        ARE SET.  THIS PROGRAM THEN EXITS TO THE CALLING PROGRAM.
002042:
002043:                                                                                                  #  CALLING SEQUENCE:
002044:                                                                                                  #
002045:                                                                                                  #        L TC RROUT (WITH RUPT INHIBITED) RROUT IS CALLED BY
002046:                                                                                                  #        RRTONLY, RRSONLY, AND DODES
002047:
002048:                                                                                                  #  ERASABLE INITIALIZATION REQUIRED:
002049:
002050:                                                                                                  #        TANG, TANG +1 (DESIRED COMMANDS), LASTYCMD, LASTXCMD
002051:                                                                                                  #        (1ST PASS = 0), RR ERROR COUNTER ENAGLE SET (CHAN 12 BIT 2).
002052:
002053:                                                                                                  #  SUBROUTINES CALLED_
002054:
002055:                                                                                                  #        MAGSUB
002056:
002057:                                                                                                  #  JOBS OR TASKS INITIATED_
002058:
002059:                                                                                                  #        NONE
002060:
002061:                                                                                                  #  ALARMS_  NONE
002062:
002063:                                                                                                  #  EXIT_  L+1 (ALWAYS)                                           SIRED VALUES. RUPT MUST BE INHIBITED.
002064:
002065: 25,2317           22002        RROUT              LXCH     Q                                     #  SAVE RETURN.
002066: 25,2320           34753                           CAF      ONE                                   #  LOOP TWICE.
002067: 25,2321           54062        RROUT2             TS       ITEMP2
002068: 25,2322           50000                           INDEX    A
002069: 25,2323           31354                           CA       TRUNNCMD
002070: 25,2324           54061                           TS       ITEMP1                                #  SAVE SIGN OF COMMAND FOR LIMITING.
002071:
002072: 25,2325           04512                           TC       MAGSUB                                #  SEE IF WITHIN LMITS.
002073: 25,2326           77177        -RRLIMIT           DEC      -384       B-14
002074: 25,2327           12346                           TCF      RROUTLIM                              #  LIMIT COMMAND TO MAG OF 384.
002075:
002076: 25,2330           30061        SETRRCTR           CA       ITEMP1                                #  COUNT OUT DIFFERENCE BETWEEN DESIRED
002077: 25,2331           50062                           INDEX    ITEMP2                                #  STATE AND PRESENT STATE AS RECORDED IN
002078: 25,2332           56112                           XCH      LASTYCMD                              #  LASTYCMD AND LASTXCMD
002079: 25,2333           40000                           COM


002081: 25,2334           60061                           AD       ITEMP1
002082: 25,2335           64754                           AD       NEG0                                  #  PREVENT +0 IN OUTCOUNTER
002083: 25,2336           50062                           INDEX    ITEMP2
002084: 25,2337           54053                           TS       CDUTCMD
002085:
002086: 25,2340           10062                           CCS      ITEMP2                                #  PROCESS BOTH INPUTS.
002087: 25,2341           12321                           TCF      RROUT2
002088:
002089: 25,2342           35020                           CAF      PRIO6                                 #  ENABLE COUNTERS.
002090: 25,2343           00006                           EXTEND
002091: 25,2344           05014                           WOR      CHAN14                                #  PUT ON CDU DRIVES S AND T
002092: 25,2345           00001                           TC       L                                     #  RETURN.
002093:
002094: 25,2346           10061        RROUTLIM           CCS      ITEMP1                                #  LIMIT COMMAND TO ABS VAL OF 384.
002095: 25,2347           42326                           CS       -RRLIMIT
002096: 25,2350           12352                           TCF      +2
002097: 25,2351           32326                           CA       -RRLIMIT
002098: 25,2352           54061                           TS       ITEMP1
002099: 25,2353           12331                           TCF      SETRRCTR   +1
002100:


002102:                                                                                                  #  ROUTINE TO ZERO THE RR CDUS AND DETERMINE THE ANTENNA MODE.
002103:
002104: 25,2354           32403        RRZERO             CAF      BIT11+1                               #  SEE IF MONITOR REPOSITION OR NOT IN AUTO
002105: 25,2355           70110                           MASK     RADMODES                              #  IF SO, DONT RE-ZERO CDUS.
002106: 25,2356           10000                           CCS      A
002107: 25,2357           13513                           TCF      RADNOOP                               #  (IMMEDIATE TASK TO RGOODEND).
002108:
002109: 25,2360           00004                           INHINT
002110: 25,2361           44737                           CS       RCDU0BIT                              #  SET FLAG TO SHOW ZEROING IN PROGRESS.
002111: 25,2362           70110                           MASK     RADMODES
002112: 25,2363           64737                           AD       RCDU0BIT
002113: 25,2364           54110                           TS       RADMODES
002114:
002115: 25,2365           34753                           CAF      ONE
002116: 25,2366           05203                           TC       WAITLIST
002117: 25,2367  E7,1456                                  EBANK=   LOSCOUNT
002118: 25,2367           02401 52067                     2CADR    RRZ2
002119:
002120: 25,2371           40110                           CS       RADMODES                              #  SEE IF IN AUTO MODE.
002121: 25,2372           74752                           MASK     AUTOMBIT
002122: 25,2373           10000                           CCS      A
002123: 25,2374           12377                           TCF      ROADBACK
002124: 25,2375           05567                           TC       ALARM                                 #  AUTO DISCRETE NOT PRESENT - TRYING
002125: 25,2376           00510                           OCT      510
002126: 25,2377           00003        ROADBACK           RELINT
002127: 25,2400           14631                           TCF      SWRETURN
002128:
002129: 25,2401           02102        RRZ2               TC       RRZEROSB                              #  COMMON TO TURNON AND RRZERO.
002130: 25,2402           13551                           TCF      ENDRADAR
002131:
002132: 25,2403           02001        BIT11+1            OCT      02001
002133:


002135:                                                                                                  #  PROGRAM NAME_  RRDESSM                                                R (HALF-UNIT) IN RRTARGET. REMODES IF
002136:
002137:                                                                                                  #  FUNCTIONAL DESCRIPTION:
002138:
002139:                                                                                                  #        THIS INTERPRETIVE ROUTINE WILL DESIGNATE, IF DESIRED ANGLES ARE
002140:                                                                                                  #        WITHIN THE LIMITS OF EITHER MODE, TO A LINE-OF SIGHT (LOS) VECTOR
002141:                                                                                                  #        (HALF-UNIT) KNOWN WITH RESPECT TO THE STABLE MEMBER PRESENT
002142:                                                                                                  #        ORIENTATION.  INITIALLY THE IMU CDU:S ARE READ AND CONTROL
002143:                                                                                                  #        TRANSFERRED TO SMNB TO TRANSFORM THE LOS VECTOR FROM STABLE
002144:                                                                                                  #        MEMBER TO NAVIGATION BASE COORDINATES (SEE STG MEMO -699)
002145:                                                                                                  #        RRANGLES IS THEN CALLED TO CALCULATE THE RR GIMBAL ANGLES,
002146:                                                                                                  #        TRUNNION AND SHAFT, FOR BOTH THE PRESENT AND ALTERNATE MODE.
002147:                                                                                                  #        RRLIMCHK IS CALLED TO SEE IF THE ANGLES CALCULATED FOR THE
002148:                                                                                                  #        PRESENT MODE ARE WITHIN LIMITS.  IF WITHIN LIMITS, THE RETURN
002149:                                                                                                  #        LOCATION IS INCREMENTED, INASMUCH AS NO VEHICLE MANEUVER IS
002150:                                                                                                  #        REQUIRED, BEFORE EXITING TO STARTDES.  IF NOT WITHIN LIMITS OF THE
002151:                                                                                                  #        CURRENT MODE, TRYSWS IS CALLED.  FOLLOWING INVERTING OF THE RR
002152:                                                                                                  #        ANTENNA MODE FLAG (RADMODES BIT 12), RRLIMCHK IS CALLED
002153:                                                                                                  #        TO SEE IF THE ANGLES CALCULATED FOR THE ALTERNATE MODE ARE WITHIN
002154:                                                                                                  #        LIMITS.  IF YES, THE RR ANTENNA MODE FLAG IS AGAIN INVERTED,
002155:                                                                                                  #        THE REMODE FLAG (RADMODES BIT 14) SET, AND THE RETURN LOCATION
002156:                                                                                                  #        INCREMENTED, TO INDICATE NO VEHICLE MANEUVER IS REQUIRED, BEFORE
002157:                                                                                                  #        EXITING TO STARTDES.  IF THESE ANGLES ARE NOT WITHIN LIMITS
002158:                                                                                                  #        OF THE ALTERNATE MODE, THE RR ANTENNA MODE FLAG (RADMODES
002159:                                                                                                  #        BIT 12) IS INVERTED BEFORE RETURNING DIRECTLY TO THE CALLING PROGRAM
002160:                                                                                                  #        TO INDICATE THAT A VEHICLE MANEUVER IS REQUIRED.
002161:
002162:                                                                                                  #  CALLING SEQUENCE:
002163:
002164:                                                                                                  #        L       STCALL  RRTARGET        (LOS HALF-UNIT VECTOR IN SM COORDINATES)
002165:                                                                                                  #        L+1     RRDESSM
002166:                                                                                                  #        L+2     BASIC                   (VEHICLE MANEUVER REQUIRED)
002167:                                                                                                  #        L+3     BASIC                   (NO VEHICLE MANEUVER REQUIRED)
002168:
002169:                                                                                                  #  ERASABLE INITIALIZATION REQUIRED:
002170:
002171:                                                                                                  #        RRTARGET, RADMODES
002172:
002173:                                                                                                  #  SUBROUTINES CALLED_
002174:
002175:                                                                                                  #        READCDUS, SMNB, RRANGLES, RRLIMCHK, TRYSWS (ACTUALLY
002176:                                                                                                  #        PART OF), RMODINV
002177:
002178:                                                                                                  #  JOBS OR TASKS INITIATED_
002179:
002180:                                                                                                  #        NONE
002181:
002182:                                                                                                  #  ALARMS_  NONE
002183:
002184:                                                                                                  #  EXIT_  L+2 (NEITHER SET OF ANGLES ARE WITHIN LIMITS OF RELATED MODE)
002185:                                                                                                  #  STARTDES (DESIGNATE POSSIBLE AT PRESENT VEHICLE ATTITUDE-RETURNS
002186:                                                                                                  #  TO L+3 FROM STARTDES)                                                 CAN BE DONE IN PRESENT VEH ATTITUDE.
002187:
002188: 25,2404           43020        RRDESSM            STQ      CLEAR
002189: 25,2405           01112                                    DESRET


002191: 25,2406           00271                                    RRNBSW
002192: 25,2407           77624                           CALL                                           #  COMPUTES SINES AND COSINES, ORDER Y Z X
002193: 25,2410           47541                                    CDUTRIG
002194: 25,2411           45175                           VLOAD    CALL                                  #  LOAD VECTOR AND CALL TRANSFORMATION
002195: 25,2412           01101                                    RRTARGET
002196: 25,2413           47673                                    *SMNB*
002197:
002198: 25,2414           77624                           CALL                                           #  GET RR GIMBAL ANGLES IN PRESENT AND
002199: 25,2415           26133                                    RRANGLES                              #  ALTERNATE MODE.
002200: 25,2416           77776                           EXIT
002201:
002202: 25,2417           00004                           INHINT
002203: 25,2420           04523                           TC       RRLIMCHK
002204: 25,2421           01106                           ADRES    MODEA                                 #  CONFIGURATION FOR CURRENT MODE.
002205: 25,2422           02425                           TC       +3                                    #  NOT IN CURRENT MODE
002206: 25,2423           25112        OKDESSM            INCR     DESRET                                #  INCREMENT SAYS NO VEHICLE MANEUVER REQ.
002207: 25,2424           02443                           TC       STARTDES                              #  SHOW DESIGNATE REQUIRED
002208: 25,2425           40104                           CS       FLAGWRD8
002209: 25,2426           74744                           MASK     SURFFBIT                              #  CHECK IF ON LUNAR SURFACE (SURFFLAG=P22F
002210: 25,2427           00006                           EXTEND
002211: 25,2430           12467                           BZF      NORDSTAL                              #  BRANCH - YES - CANNOT DESIGNATE IN MODE 2
002212: 25,2431           02472                           TC       TRYSWS
002213:
002214: 25,2432           40104        LUNDESCH           CS       FLAGWRD8                              #  OVERFLOW RETURN FROM RRANGLES
002215: 25,2433           74744                           MASK     SURFFBIT                              #  CHECK IF ON LUNAR SURFACE
002216: 25,2434           00006                           EXTEND
002217: 25,2435           12467                           BZF      NORDSTAL                              #  BRANCH - YES - RETURN TO CALLER - ALARM 527
002218: 25,2436           30074                           CA       STATE
002219: 25,2437           74745                           MASK     RNDVZBIT
002220: 25,2440           10000                           CCS      A                                     #  TEST RNDVZFLG.
002221: 25,2441           02502                           TC       NODESSM                               #  NOT ON MOON - CALL FOR ATTITUDE MANEUVER
002222: 25,2442           15155                           TCF      ENDOFJOB                              #  ... BUT NOT IN R29.
002223:


002225:                                                                                                  #  PROGRAM NAME_  STARTDES                                                       STORED AS A HALF-UNIT VECTOR IN RRTARGET
002226:
002227:                                                                                                  #  FUNCTIONAL DESCRIPTION_                                                       CKON IS DESIRED. BIT14 OF RADMODES IS
002228:                                                                                                  #        STARTDES IS ENTERED WHEN WE ARE READY TO BEGIN DESIGNATION.             OR REPOSITION OPERATION. IN THIS
002229:                                                                                                  #        BIT 14 OF RADMODES IS ALREADY SET IF A REMODE IS REQUIRED.              THE REPOSITION WILL BE INTERRUPTED.
002230:                                                                                                  #        AT THIS TIME, THE RR ANTENNA MAY BE IN A REPOSITION                     GINS.
002231:                                                                                                  #        OPERATION.  IN THIS CASE, IF A REMODE IS REQUIRED IT MAY HAVE
002232:                                                                                                  #        ALREADY BEGUN BUT IN ANY CASE THE REPOSITION WILL BE INTERRUPTED.
002233:                                                                                                  #        OTHERWISE, THE REPOSITION WILL BE COMPLETED BEFORE 2-AXIS
002234:                                                                                                  #        DESIGNATION BEGINS.  INITIALLY DESCOUNT IS SET = 60 TO INDICATE
002235:                                                                                                  #        THAT 30 SECONDS WILL BE ALLOWED FOR THE RR DATA GOOD INBIT
002236:                                                                                                  #        (CHAN 33 BIT 4) IF LOCK-ON IS DESIRED (STATE BIT 5).  BIT 10
002237:                                                                                                  #        OF RADMODES IS SET TO SHOW THAT A DESIGNATE IS REQUIRED.
002238:                                                                                                  #        THE REPOSITION FLAG (RADMODES BIT 11) IS CHECKED.  IF SET,
002239:                                                                                                  #        THE PROGRAM EXITS TO L+3 OF THE CALLING PROGRAM (SEE RRDESSM
002240:                                                                                                  #        AND RRDESNB).  THE PROGRAM WILL BEGIN DESIGNATING TO THE DESIRED
002241:                                                                                                  #        ANGLES FOLLOWING THE REPOSITION OR REMODE IF ONE WAS
002242:                                                                                                  #        REQUESTED.  IF THE REPOSITION FLAG IS NOT SET, SETRRECR IS CALLED
002243:                                                                                                  #        WHICH SETS THE RR ERROR COUNTER ENABLE BIT (CHAN 12 BIT 2)
002244:                                                                                                  #        AND SETS LASTYCMD AND LASTXCMD = 0 TO INDICATE THE
002245:                                                                                                  #        DIFFERENCE BETWEEN THE PRESENT AND DESIRED STATE OF THE ERROR
002246:                                                                                                  #        COUNTERS.  A 20 MILLISECOND WAITLIST CALL IS SET FOR BEGDES
002247:                                                                                                  #        AFTER WHICH THE PROGRAM EXITS TO L+3 OF THE CALLING PROGRAM.
002248:
002249:                                                                                                  #  CALLING SEQUENCE:
002250:
002251:                                                                                                  #        FROM RRDESSM AND RRDESNB WHEN ANGLES WITHIN LIMITS.
002252:
002253:                                                                                                  #  ERASABLE INITIALIZATION REQUIRED:
002254:
002255:                                                                                                  #        RADMODES, (SEE DODES)
002256:
002257:                                                                                                  #  SUBROUTINES CALLED_
002258:
002259:                                                                                                  #        SETRRECR, WAITLIST
002260:
002261:                                                                                                  #  JOBS OR TASKS INITIATED_
002262:
002263:                                                                                                  #        BEGDES
002264:
002265:                                                                                                  #  ALARMS_  NONE
002266:
002267:                                                                                                  #  EXIT_ L+3 OF CALLING PROGRAM (SEE RRDESSM)
002268:                                                                                                  #        L+2 OF CALLING PROGRAM (SEE RRDESNB)
002269:
002270: 25,2443           25112        STARTDES           INCR     DESRET
002271: 25,2444           40110                           CS       RADMODES
002272: 25,2445           74742                           MASK     DESIGBIT
002273: 25,2446           26110                           ADS      RADMODES
002274: 25,2447           74741                           MASK     REPOSBIT                              #  SEE IF REPOSITIONING IN PROGRESS.
002275: 25,2450           10000                           CCS      A
002276: 25,2451           12457                           TCF      DESRETRN                              #  ECTR ALREADY SET UP.
002277:
002278: 25,2452           02167                           TC       SETRRECR                              #  SET UP ERROR COUNTERS.


002280: 25,2453           34752                           CAF      TWO
002281: 25,2454           05203                           TC       WAITLIST
002282: 25,2455  E7,1456                                  EBANK=   LOSCOUNT
002283: 25,2455           02604 52067                     2CADR    BEGDES
002284:
002285: 25,2457           31303        DESRETRN           CA       RADCADR                               #  FIRST PASS THRU DESIGNATE
002286: 25,2460           00006                           EXTEND
002287: 25,2461           12463                           BZF      DESRTRN                               #  YES   SET EXIT
002288: 25,2462           05155                           TC       ENDOFJOB                              #  NO
002289: 25,2463           00003        DESRTRN            RELINT
002290: 25,2464           25112                           INCR     DESRET
002291: 25,2465           31112                           CA       DESRET
002292: 25,2466           14640                           TCF      BANKJUMP
002293:
002294: 25,2467           34755        NORDSTAL           CAF      ZERO                                  #  ZERO RADCADR TO WIPE OUT ANYONE
002295: 25,2470           55303                           TS       RADCADR                               #  WAITING IN RADSTALL SINCE WE ARE NOW
002296: 25,2471           12463                           TCF      DESRTRN                               #  RETURNING TO P20 AND MAY DO NEW RADSTALL
002297:


002299:                                                                                                  #  SEE IF RRDESSM CAN BE ACCOMPLISHED AFTER A REMODE.
002300:
002301: 25,2472           02244        TRYSWS             TC       RMODINV                               #  (NOTE RUPT INHIBIT)
002302: 25,2473           04523                           TC       RRLIMCHK                              #  TRY DIFFERENT MODE.
002303: 25,2474           01110                           ADRES    MODEB
002304: 25,2475           12502                           TCF      NODESSM                               #  VEHICLE MANEUVER REQUIRED.
002305:
002306: 25,2476           02244                           TC       RMODINV                               #  RESET BIT12
002307: 25,2477           34736                           CAF      REMODBIT                              #  SET FLAG FOR REMODE.
002308: 25,2500           26110                           ADS      RADMODES
002309:
002310: 25,2501           12423                           TCF      OKDESSM
002311:
002312: 25,2502           02244        NODESSM            TC       RMODINV                               #  RE-INVERT MODE AND RETURN
002313: 25,2503           25112                           INCR     DESRET                                #  TO CALLER +2
002314: 25,2504           12467                           TCF      NORDSTAL
002315:
002316: 25,2505           00074        MAXTRYS            DEC      60         B-14
002317:


002319:                                                                                                  #  DESIGNATE TO SPECIFIC RR GIMBAL ANGLES (INDEPENDENT OF VEHICLE MOTION).  ENTER WITH DESIRED ANGLES IN
002320:                                                                                                  #  TANG AND TANG +1.
002321:
002322: 25,2506           04645        RRDESNB            TC       MAKECADR
002323: 25,2507           55112                           TS       DESRET
002324:
002325: 25,2510           05516                           TC       DOWNFLAG                              #  RESET FLAG TO PREVENT DODES FROM GOING
002326: 25,2511           00041                           ADRES    LOSCMFLG                              #  BACK TO R21
002327: 25,2512           32505                           CA       MAXTRYS                               #  SET TIME LIMIT COUNTER
002328: 25,2513           55113                           TS       DESCOUNT                              #  FOR DESIGNATE
002329: 25,2514           00004                           INHINT                                         #  SEE IF CURRENT MODE OK.
002330: 25,2515           02551                           TC       RRLIMNB                               #  DO SPECIAL V41 LIMIT CHECK
002331: 25,2516           01106                           ADRES    TANG
002332: 25,2517           12534                           TCF      TRYSWN                                #  SEE IF IN OTHER MODE.
002333:
002334: 25,2520           00003        OKDESNB            RELINT
002335: 25,2521           00006                           EXTEND
002336: 25,2522           31107                           DCA      TANG
002337: 25,2523           53753                           DXCH     TANGNB
002338: 25,2524           06042                           TC       INTPRET
002339:
002340: 25,2525           77624                           CALL                                           #  GET LOS IN NB COORDS.
002341: 25,2526           46041                                    RRNB
002342: 25,2527           01101                           STORE    RRTARGET
002343:
002344: 25,2530           77414                           SET      EXIT
002345: 25,2531           00071                                    RRNBSW
002346:
002347: 25,2532           00004                           INHINT
002348: 25,2533           12444                           TCF      STARTDES   +1
002349: 25,2534           02244        TRYSWN             TC       RMODINV                               #  SEE IF OTHER MODE WILL DO.
002350: 25,2535           02551                           TC       RRLIMNB                               #  DO SPECIAL V41 LIMIT CHECK
002351: 25,2536           01106                           ADRES    TANG
002352: 25,2537           12544                           TCF      NODESNB                               #  NOT POSSIBLE.
002353:
002354: 25,2540           02244                           TC       RMODINV
002355: 25,2541           34736                           CAF      REMODBIT                              #  CALL FOR REMODE.
002356: 25,2542           26110                           ADS      RADMODES
002357: 25,2543           12520                           TCF      OKDESNB
002358:
002359: 25,2544           02244        NODESNB            TC       RMODINV                               #  REINVERT MODE BIT.
002360: 25,2545           05567                           TC       ALARM                                 #  BAD INPUT ANGLES.
002361: 25,2546           00502                           OCT      502
002362: 25,2547           06011                           TC       CLRADMOD
002363: 25,2550           05155                           TC       ENDOFJOB                              #  AVOID 503 ALARM.
002364:
002365: 25,2551           50002        RRLIMNB            INDEX    Q                                     #  THIS ROUTINE IS IDENTICAL TO RRLIMCHK
002366: 25,2552           30000                           CAF      0                                     #  EXCEPT THAT THE MODE 1 SHAFT LOWER
002367: 25,2553           24002                           INCR     Q                                     #  LIMIT IS -85 INSTEAD OF -70 DEGREES
002368: 25,2554           00006                           EXTEND


002370: 25,2555           50000                           INDEX    A                                     #  READ GIMBAL ANGLES INTO ITEMP STORAGE
002371: 25,2556           30001                           DCA      0
002372: 25,2557           52062                           DXCH     ITEMP1
002373: 25,2560           22002                           LXCH     Q                                     #  L(CALLER +2) TO L
002374:
002375: 25,2561           34740                           CAF      ANTENBIT                              #  SEE WHICH MODE RR IS IN.
002376: 25,2562           70110                           MASK     RADMODES
002377: 25,2563           10000                           CCS      A
002378: 25,2564           14550                           TCF      MODE2CHK                              #  MODE 2 CAN USE RRLIMCHK CODING
002379: 25,2565           30061                           CA       ITEMP1
002380: 25,2566           04512                           TC       MAGSUB                                #  MODE 1 IS DEFINED AS
002381: 25,2567           66161                           DEC      -.30555                               #  1.    ABS(T) L 55 DEGS
002382: 25,2570           00001                           TC       L                                     #  2     SHAFT LIMITS AT +59, -85 DEGS
002383:
002384: 25,2571           30062                           CA       ITEMP2                                #  LOAD SHAFT ANGLE
002385: 25,2572           00006                           EXTEND
002386: 25,2573           62601                           BZMF     NEGSHAFT                              #  IF NEGATIVE SHAFT ANGLE, ADD 20.5 DEGS
002387: 25,2574           64562                           AD       5.5DEGS
002388: 25,2575           04512        SHAFTLIM           TC       MAGSUB
002389: 25,2576           64420                           DEC      -.35833                               #  64.5 DEGREES
002390: 25,2577           00001                           TC       L                                     #  NOT IN LIMITS
002391: 25,2600           04560                           TC       RRLIMOK                               #  IN LIMITS
002392: 25,2601           62603        NEGSHAFT           AD       20.5DEGS                              #  MAKE NEGATIVE SHAFT LIMIT -85 DEGREES
002393: 25,2602           12575                           TCF      SHAFTLIM
002394:
002395: 25,2603           03512        20.5DEGS           DEC      .11389
002396:


002398:                                                                                                  #  PROGRAM NAME_  BEGDES
002399:
002400:                                                                                                  #  FUNCTIONAL DESCRIPTION_
002401:                                                                                                  #        BEGDES CHECKS VARIOUS DESIGNATE REQUESTS AND REQUESTS THE
002402:                                                                                                  #        ACTUAL RR DESIGNATION.  INITIALLY A CHECK IS MADE TO SEE IF A
002403:                                                                                                  #        REMODE (RADMODES BIT 14) IS REQUESTED OR IN PROGRESS.  IF SO,
002404:                                                                                                  #        CONTROL IS TRANSFERRED TO STDESIG AFTER ROUTINE REMODE IS
002405:                                                                                                  #        EXECUTED.  IF NO REMODE, STDESIG IS IMMEDIATELY CALLED WHERE
002406:                                                                                                  #        FIRST THE REPOSITION FLAG (RADMODES BIT 11) IS CHECKED.  IF
002407:                                                                                                  #        PRESENT, THE DESIGNATE FLAG (RADMODES BIT 10) IS REMOVED
002408:                                                                                                  #        AFTER WHICH THE PROGRAM EXITS TO RDBADEND.  IF THE REPOSITION
002409:                                                                                                  #        FLAG IS NOT PRESENT, THE CONTINUOUS DESIGNATE FLAG (RADMODES
002410:                                                                                                  #        BIT 15) IS CHECKED.  IF PRESENT, ON EXECUTIVE CALL IS IMMEDIATELY
002411:                                                                                                  #        MADE FOR DODES AFTER WHICH A .5 SECOND WAIT IS INITIATED BEFORE
002412:                                                                                                  #        REPEATING AT STDESIG.  IF THE RR SEARCH ROUTINE (LRS24.1) IS DESIGNATING
002413:                                                                                                  #        TO A NEW POINT (NEWPTFLG SET) THE CURRENT DESIGNATE TASK IS TERMINATED.
002414:                                                                                                  #        IF CONTINUOUS DESIGNATE IS NOT WANTED, THE DESIGNATE FLAG (RADMODES
002415:                                                                                                  #        BIT 10) IS CHECKED.  IF NOT PRESENT, THE PROGRAM EXITS TO ENDRADAR TO
002416:                                                                                                  #        CHECK RR CDU FAIL BEFORE RETURNING TO THE CALLING PROGRAM.  IF DESIGNATE
002417:                                                                                                  #        IS STILL REQUIRED, DESCOUNT IS CHECKED TO SEE IF THE 30 SECONDS HAS
002418:                                                                                                  #        EXPIRED BEFORE RECEIVING THE RR DATA GOOD (CHAN 33 BIT 4)
002419:                                                                                                  #        SIGNAL.  IF OUT OF TIME, PROGRAM ALARM 00503 IS REQUESTED, THE
002420:                                                                                                  #        RR AUTO TRACKER ENABLE AND RR ERROR COUNTER ENABLE
002421:                                                                                                  #        (CHAN 12 BITS 14,2) BITS REMOVED, AND THE DESIGNATE FLAG
002422:                                                                                                  #        (RADMODES BIT 10) REMOVED BEFORE EXITING TO RDBADEND.  IF
002423:                                                                                                  #        TIME HAS NOT EXPIRED, DESCOUNT IS DECREMENTED, THE
002424:                                                                                                  #        EXECUTIVE CALL MADE FOR DODES, AND A .5 SECOND WAIT INITIATED
002425:                                                                                                  #        BEFORE REPEATING THIS PROCEDURE AT STDESIG.
002426:
002427:                                                                                                  #  CALLING SEQUENCE:
002428:
002429:                                                                                                  #        WAITLIST CALL FROM STARTDES
002430:                                                                                                  #        TCF BEGDES FROM DORREPOS
002431:                                                                                                  #        TC STDESIG RETURNING, FROM REMODE
002432:
002433:                                                                                                  #  ERASABLE INITIALIZATION REQUIRED:
002434:                                                                                                  #        DESCOUNT, RADMODES
002435:
002436:                                                                                                  #  SUBROUTINES CALLED_
002437:                                                                                                  #        ENDRADAR, FINDMAC
002438:
002439:                                                                                                  #  JOBS OR TASKS INITIATED_  DODES
002440:
002441:                                                                                                  #  ALARMS_  PROGRAM ALARM 00503 (30 SECONDS HAVE EXPIRED) WITH NO RR DATA
002442:                                                                                                  #  GOOD (CHAN 33 BIT 4) RECEIVED WHEN LOCK-ON (STATE BIT 5) WAS REQUESTED.
002443:
002444:                                                                                                  #  EXIT_         TASKOVER (SEARCH PATTERN DESIGNATING TO NEW POINT)
002445:                                                                                                  #                ENDRADAR (NO DESIGNATE - RADMODES BIT 10)
002446:                                                                                                  #                RDBADEND (REPOSITION OR 30 SECONDS EXPIRED)
002447:
002448: 25,2604           40110        BEGDES             CS       RADMODES


002450: 25,2605           74736                           MASK     REMODBIT
002451: 25,2606           10000                           CCS      A
002452: 25,2607           02613                           TC       STDESIG
002453: 25,2610           02202                           TC       REMODE
002454: 25,2611           05221        DESLOOP            TC       FIXDELAY                              #  2 SAMPLES PER SECOND.
002455: 25,2612           00062                           DEC      50         B-14
002456:
002457: 25,2613           34741        STDESIG            CAF      REPOSBIT
002458: 25,2614           70110                           MASK     RADMODES                              #  SEE IF GIMBAL LIMIT MONITOR HAS FOUND US
002459: 25,2615           10000                           CCS      A                                     #  OUT OF BOUNDS.  IF SO, THIS BIT SHOWS A
002460: 25,2616           12634                           TCF      BADDES                                #  REPOSITION TO BE IN PROGRESS.
002461:
002462: 25,2617           10110                           CCS      RADMODES                              #  SEE IF CONTINUOUS DESIGNATE WANTED.
002463: 25,2620           12623                           TCF      +3                                    #  IF SO, DONT CHECK BIT 10 TO SEE IF IN
002464: 25,2621           12623                           TCF      +2                                    #  LIMITS BUT GO RIGHT TO FINDVAC ENTRY.
002465: 25,2622           12640                           TCF      MOREDES    +1
002466:
002467: 25,2623           40110                           CS       RADMODES                              #  IF NON-CONTINUOUS, SEE IF END OF
002468: 25,2624           74742                           MASK     DESIGBIT                              #  PROBLEM (DATA GOOD IF LOCK-ON WANTED OR
002469: 25,2625           10000                           CCS      A                                     #  WITHIN LIMITS IF NOT).  IF SO, EXIT AFTER
002470: 25,2626           13551                           TCF      ENDRADAR                              #  CHECKING RR CDU FAIL.
002471:
002472: 25,2627           11113        STDESIG1           CCS      DESCOUNT                              #  SEE IF THE TIME LIMIT HAS EXPIRED
002473: 25,2630           12637                           TCF      MOREDES
002474:
002475: 25,2631           42645                           CS       B14+B2                                #  IF OUT OF TIME, REMOVE ECR ENABLE + TRKR
002476: 25,2632           00006                           EXTEND
002477: 25,2633           03012                           WAND     CHAN12
002478: 25,2634           05516        BADDES             TC       DOWNFLAG
002479: 25,2635           00271                           ADRES    DESIGFLG
002480: 25,2636           13565                           TCF      RDBADEND
002481:
002482: 25,2637           55113        MOREDES            TS       DESCOUNT
002483: 25,2640           37717                           CAF      PRIO26                                #  UPDATE GYRO TORQUE COMMANDS.
002484: 25,2641           05105                           TC       FINDVAC
002485: 25,2642  E7,1456                                  EBANK=   LOSCOUNT
002486: 25,2642           02646 52067                     2CADR    DODES
002487:
002488: 25,2644           12611                           TCF      DESLOOP
002489:
002490: 25,2645           20002        B14+B2             OCT      20002
002491:


002493:                                                                                                  #  PROGRAM NAME_  DODES
002494:
002495:                                                                                                  #  FUNCTIONAL DESCRIPTION_
002496:
002497:                                                                                                  #        DODES CALCULATES AND REQUESTS ISSUANCE OF RR GYRO TORQUE
002498:                                                                                                  #        COMMANDS.  INITIALLY THE CURRENT RR CDU ANGLES ARE STORED AND
002499:                                                                                                  #        THE LOS HALF-UNIT VECTOR TRANSFORMED FROM STABLE MEMBER TO
002500:                                                                                                  #        NAVIGATION BASE COORDINATES VIA SMNB IF NECESSARY.  THE
002501:                                                                                                  #        SHAFT AND TRUNNION COMMANDS ARE THEN CALCULATED AS FOLLOWS_
002502:                                                                                                  #                + SHAFT = LOS . (COS(S), 0, -SIN(S))  (DOT PRODUCT)
002503:                                                                                                  #                - TRUNNION = LOS . (SIN(T)SIN(S), COS(T), SIN(T)COS(S))
002504:                                                                                                  #        THE SIGN OF THE SHAFT COMMAND IS THEN REVERSED IF IN MODE 2
002505:                                                                                                  #        (RADMODES BIT 12) BECAUSE A RELAY IN THE RR REVERSES THE
002506:                                                                                                  #        POLARITY OF THE COMMAND.  AT RRSCALUP EACH COMMAND IS
002507:                                                                                                  #        SCALED AND IF EITHER, OR BOTH, OF THE COMMANDS IS GREATER THAN
002508:                                                                                                  #        .5 DEGREES, MPAC +1 IS SET POSITIVE.  IF A CONTINUOUS DESIGNATE
002509:                                                                                                  #        (RADMODES BIT 15) IS DESIRED AND THE SEARCH ROUTINE IS NOT OPERATING,
002510:                                                                                                  #        THE RR AUTO TRACKER ENABLE BIT (CHAN 12 BIT 14) IS CLEARED AND RROUT
002511:                                                                                                  #        CALLED TO PUT OUT THE COMMANDS PROVIDED NO REPOSITION (RADMODES BIT 11)
002512:                                                                                                  #        IS IN PROGRESS.  IF A CONTINUOUS DESIGNATE AND THE SEARCH ROUTINE IS
002513:                                                                                                  #        OPERATING (SRCHOPT FLAG SET) THE TRACK ENABLE IS NOT CLEARED.  IF NO
002514:                                                                                                  #        CONTINUOUS DESIGNATE AND BOTH COMMANDS ARE NOT LESS THAN .5 DEGREES AS
002515:                                                                                                  #        INDICATED BY MPAC +1, THE RR AUTO TRACKER ENABLE BIT (CHAN 12 BIT 14) IS
002516:                                                                                                  #        CLEARED AND RROUT CALLED TO PUT OUT THE COMMANDS PROVIDED NO REPOSITION
002517:                                                                                                  #        (RADMODES BIT 11) IS IN PROGRESS.  IF BOTH COMMANDS ARE LESS THAN .5
002518:                                                                                                  #        DEGREES AS INDICATED BY MPAC+1, THE RR AUTO TRACKER ENABLE BIT
002519:                                                                                                  #        (CHAN 12 BIT 14) IS CLEARED AND RROUT CALLED TO PUT OUT THE
002520:                                                                                                  #        COMMANDS PROVIDED NO REPOSITION (RADMODES BIT 11) IS IN
002521:                                                                                                  #        PROGRESS.  IF BOTH COMMANDS ARE LESS THAN .5 DEGREES, THE
002522:                                                                                                  #        LOCK-ON FLAG (STATE BIT 5) IS CHECKED.  IF NOT PRESENT, THE
002523:                                                                                                  #        DESIGNATE FLAG (RADMODES BIT 10) IS CLEARED, THE RR ERROR
002524:                                                                                                  #        COUNTER ENABLE BIT (CHAN 12 BIT 2) IS CLEARED, AND ENDOFJOB
002525:                                                                                                  #        CALLED.  IF LOCK-ON IS DESIRED, THE RR AUTO TRACKER (CHAN 12
002526:                                                                                                  #        BIT 14) IS ENABLED FOLLOWED BY A CHECK OF THE RECEIPT OF THE
002527:                                                                                                  #        RR DATA GOOD (CHAN 33 BIT 4) SIGNAL.  IF RR DATA GOOD
002528:                                                                                                  #        PRESENT, THE DESIGNATE FLAG (RADMODES BIT 10) IS CLEARED,
002529:                                                                                                  #        THE RR ERROR COUNTER ENABLE BIT (CHAN 12 BIT 2) IS CLEARED,
002530:                                                                                                  #        AND ENDOFJOB CALLED.  IF RR DATA GOOD IS NOT PRESENT, RROUT
002531:                                                                                                  #        IS CALLED TO PUT OUT THE COMMANDS PROVIDED NO REPOSITION
002532:                                                                                                  #        (RADMODES BIT 11) IS IN PROGRESS AFTER WHICH THE JOB IS TERMINATED
002533:                                                                                                  #        VIA ENDOFJOB.
002534:
002535:                                                                                                  #  CALLING SEQUENCE:
002536:
002537:                                                                                                  #        EXECUTIVE CALL EVERY .5 SECONDS FROM BEGDES.
002538:
002539:                                                                                                  #  ERASABLE INITIALIZATION REQUIRED:
002540:
002541:                                                                                                  #        RRTARGET (HALF-UNIT LOS VECTOR IN EITHER SM OR NB COORDINATES),
002542:                                                                                                  #        LOKONSW (STATE BIT 5), RRNBSW (STATE BIT 6), RADMODES
002543:
002544:                                                                                                  #  SUBROUTINES CALLED_
002545:
002546:                                                                                                  #        READCDUS, SMNB, CDULOGIC, MAGSUB, RROUT


002548:
002549:                                                                                                  #  JOBS OR TASKS INITIATED_
002550:
002551:                                                                                                  #        NONE
002552:
002553:                                                                                                  #  ALARMS_  NONE
002554:
002555:                                                                                                  #  EXIT_  ENDOFJOB (ALWAYS)
002556:
002557: 25,2646           00006        DODES              EXTEND
002558: 25,2647           30036                           DCA      CDUT
002559: 25,2650           53107                           DXCH     TANG
002560:
002561: 25,2651           06042                           TC       INTPRET
002562:
002563: 25,2652           77201                           SETPD    VLOAD
002564: 25,2653           00001                                    0
002565: 25,2654           01101                                    RRTARGET
002566: 25,2655           74214                           BON      VXSC
002567: 25,2656           00311                                    RRNBSW
002568: 25,2657           52671                                    DONBRD                                #  TARGET IN NAV-BASE COORDINATES
002569: 25,2660           01767                                    MLOSV                                 #  MULTIPLY UNIT LOS BY MAGNITUDE
002570: 25,2661           63372                           VSL1     PDVL
002571: 25,2662           01761                                    LOSVEL
002572: 25,2663           53361                           VXSC     VAD                                   #  ADD ONE SECOND RELATIVE VELOCITY TO LOS
002573: 25,2664           13101                                    MCTOMS
002574: 25,2665           45056                           UNIT     CALL
002575: 25,2666           47541                                    CDUTRIG
002576: 25,2667           77624                           CALL
002577: 25,2670           47673                                    *SMNB*
002578:
002579: 25,2671           14041        DONBRD             STODL    32D
002580: 25,2672           01110                                    TANG       +1
002581: 25,2673           41434                           RTB      PUSH                                  #  SHAFT COMMAND = V(32D).(COS(S), 0,
002582: 25,2674           21577                                    CDULOGIC                              #        (-SIN(S)).
002583: 25,2675           65356                           SIN      PDDL                                  #  SIN(S) TO 0 AND COS(S) TO 2.
002584: 25,2676           41546                           COS      PUSH
002585: 25,2677           65205                           DMP      PDDL
002586: 25,2700           00041                                    32D
002587: 25,2701           00045                                    36D
002588: 25,2702           44205                           DMP      BDSU
002589: 25,2703           00001                                    0
002590: 25,2704           77626                           STADR
002591: 25,2705           76667                           STORE    TANG       +1                         #  SHAFT COMMAND
002592:
002593: 25,2706           47135                           SLOAD    RTB
002594: 25,2707           01107                                    TANG
002595: 25,2710           21577                                    CDULOGIC
002596: 25,2711           71406                           PUSH     COS                                   #  COS(T) TO 4.
002597: 25,2712           73525                           PDDL     SIN
002598: 25,2713           41206                           PUSH     DMP                                   #  SIN(T) TO 6.
002599: 25,2714           00003                                    2


002601: 25,2715           65352                           SL1      PDDL                                  #  DEFINE VECTOR U =     (SIN(T)SIN(S))
002602: 25,2716           00005                                    4                                     #                        (   COS(T)   )
002603: 25,2717           41325                           PDDL     DMP                                   #                        (SIN(T)COS(S))
002604: 25,2720           00007                                    6
002605: 25,2721           00001                                    0
002606: 25,2722           55552                           SL1      VDEF
002607: 25,2723           77441                           DOT      EXIT                                  #  DOT U WITH LOS TO GET TRUNNION COMMAND.
002608: 25,2724           00041                                    32D
002609:


002611:                                                                                                  #  AT THIS POINT WE HAVE A ROTATION VECTOR IN DISH AXES LYING IN THE TS PLANE.  CONVERT THIS TO A
002612:                                                                                                  #  COMMANDED RATE AND ENABLE THE TRACKER IF WE ARE WITHIN .5 DEGREES OF THE TARGET.
002613:
002614: 25,2725           40154                           CS       MPAC                                  #  DOT WAS NEGATIVE OF DESIRED ANGLE.
002615: 25,2726           00006                           EXTEND
002616: 25,2727           73075                           MP       RDESGAIN                              #  SCALING ON INPUT ANGLE WAS 4 RADIANS.
002617: 25,2730           55354                           TS       TRUNNCMD                              #  TRUNNION COMMAND FOR RROUT
002618: 25,2731           40110                           CS       RADMODES                              #  A RELAY IN THE RR REVERSES POLARITY OF
002619: 25,2732           74740                           MASK     BIT12                                 #  THE SHAFT COMMANDS IN MODE 2 SO THAT A
002620: 25,2733           00006                           EXTEND                                         #  POSITIVE TORQUE APPLIED TO THE SHAFT
002621: 25,2734           12737                           BZF      +3                                    #  GYRO CAUSES A POSITIVE CHANGE IN THE
002622: 25,2735           31107                           CA       TANG       +1                         #  SHAFT ANGLE.  COMPENSATE FOR THIS SWITCH
002623: 25,2736           12740                           TCF      +2                                    #  BY CHANGING THE POLARITY OF OUR COMMAND.
002624: 25,2737           41107                 +3        CS       TANG       +1
002625: 25,2740           00006                           EXTEND
002626: 25,2741           73075                           MP       RDESGAIN                              #  SCALING ON INPUT ANGLE WAS 4 RADIANS.
002627: 25,2742           55355                           TS       SHAFTCMD                              #  SHAFT COMMAND FOR RROUT
002628: 25,2743           06042                           TC       INTPRET
002629:
002630: 25,2744           41345                           DLOAD    DMP
002631: 25,2745           00003                                    2                                     #  COS(S).
002632: 25,2746           00005                                    4                                     #  COS(T).
002633: 25,2747           65352                           SL1      PDDL                                  #  Z COMPONENT OF URR.
002634: 25,2750           65276                           DCOMP    PDDL                                  #  Y COMPONENT = -SIN(T).
002635: 25,2751           00001                                    0                                     #  SIN(S).
002636: 25,2752           72405                           DMP      SL1
002637: 25,2753           00005                                    4                                     #  COS(T).
002638: 25,2754           43066                           VDEF     BON                                   #  FORM URR IN NB AXES.
002639: 25,2755           00311                                    RRNBSW                                #  BYPASS NBSM CONVERSION IN VERB 41.
002640: 25,2756           52761                                    +3
002641: 25,2757           77624                           CALL
002642: 25,2760           47675                                    *NBSM*                                #  GET URR IN SM AXES.
002643: 25,2761           77441                           DOT      EXIT
002644: 25,2762           01101                                    RRTARGET                              #  GET COSINE OF ANGLE BETWEEN RR AND LOS.
002645:
002646: 25,2763           00006                           EXTEND
002647: 25,2764           43077                           DCS      COS1/2DG
002648: 25,2765           20155                           DAS      MPAC                                  #  DIFFERENCE OF COSINES, SCALED B-2.
002649: 25,2766           10154                           CCS      MPAC
002650: 25,2767           34755                           CA       ZERO                                  #  IF COS ERROR BIGGER, ERROR IS SMALLER.
002651: 25,2770           12772                           TCF      +2
002652: 25,2771           34753                           CA       ONE
002653: 25,2772           54155                           TS       MPAC       +1                         #  ZERO IF RR IS POINTED OK, ONE IF NOT.


002655:                                                                                                  #  SEE IF TRACKER SHOULD BE ENABLED OR DISABLED.
002656:
002657: 25,2773           10110                           CCS      RADMODES                              #  IF CONTINUOUS DESIGNATE WANTED, PUT OUT
002658: 25,2774           12777                           TCF      SIGNLCHK                              #  COMMANDS WITHOUT CHECKING MAGNITUDE OF
002659: 25,2775           12777                           TCF      SIGNLCHK                              #  ERROR SIGNALS
002660: 25,2776           13027                           TCF      DORROUT
002661: 25,2777           10155        SIGNLCHK           CCS      MPAC       +1                         #  SEE IF BOTH AXES WERE WITHIN .5 DEGS.
002662: 25,3000           13010                           TCF      DGOODCHK
002663: 25,3001           40074                           CS       STATE                                 #  IF WITHIN LIMITS AND NO LOCK-ON WANTED,
002664: 25,3002           74747                           MASK     LOKONBIT                              #  PROBLEM IS FINISHED.
002665: 25,3003           10000                           CCS      A
002666: 25,3004           13015                           TCF      RRDESDUN
002667:
002668: 25,3005           34736                           CAF      BIT14                                 #  ENABLE THE TRACKER.
002669: 25,3006           00006                           EXTEND
002670: 25,3007           05012                           WOR      CHAN12
002671:
002672: 25,3010           34750        DGOODCHK           CAF      BIT4                                  #  SEE IF DATA GOOD RECEIVED YET
002673: 25,3011           00006                           EXTEND
002674: 25,3012           02033                           RAND     CHAN33
002675: 25,3013           10000                           CCS      A
002676: 25,3014           13027                           TCF      DORROUT
002677:
002678: 25,3015           44742        RRDESDUN           CS       BIT10                                 #  WHEN PROBLEM DONE, REMOVE BIT 10 SO NEXT
002679: 25,3016           70110                           MASK     RADMODES                              #  WAITLIST TASK WE WILL GO TO RGOODEND.
002680: 25,3017           00004                           INHINT
002681: 25,3020           54110                           TS       RADMODES
002682:
002683: 25,3021           05516                           TC       DOWNFLAG                              #  RESET LOSCMFLG TO PREVENT A
002684: 25,3022           00041                           ADRES    LOSCMFLG                              #  RECOMPUTATION OF LOS AFTER DATA GOOD
002685: 25,3023           44752                           CS       BIT2                                  #  TURN OFF ENABLE RR ERROR COUNTER
002686: 25,3024           00006                           EXTEND
002687: 25,3025           03012                           WAND     CHAN12
002688: 25,3026           15155                           TCF      ENDOFJOB                              #  WITH ECTR DISABLED.
002689:
002690: 25,3027           30076        DORROUT            CA       FLAGWRD2                              #  IF BOTH LOSCMFLAG AND SEARCH FLAG ARE
002691: 25,3030           77715                           MASK     BIT12,14                              #  ZERO, BYPASS VELOCITY ADJUSTMENT TO LOS
002692: 25,3031           00006                           EXTEND
002693: 25,3032           13051                           BZF      NOTP20
002694: 25,3033           06042                           TC       INTPRET
002695: 25,3034           74375                           VLOAD    VXSC                                  #  MULTIPLY UNIT LOS BY MAGNITUDE
002696: 25,3035           01101                                    RRTARGET
002697: 25,3036           01767                                    MLOSV
002698: 25,3037           41572                           VSL1     PUSH
002699: 25,3040           74375                           VLOAD    VXSC                                  #  ADD .5 SEC. OF VELOCITY
002700: 25,3041           01761                                    LOSVEL                                #  TO LOS VECTOR
002701: 25,3042           13101                                    MCTOMS
002702: 25,3043           53362                           VSR1     VAD
002703: 25,3044           77656                           UNIT
002704: 25,3045           15101                           STODL    RRTARGET                              #  STORE VELOCITY-CORRECTED LOS (UNIT)


002706: 25,3046           00045                                    36D
002707: 25,3047           01767                           STORE    MLOSV                                 #  AND STORE MAGNITUDE
002708: 25,3050           77776                           EXIT
002709: 25,3051           00004        NOTP20             INHINT
002710: 25,3052           40110                           CS       RADMODES                              #  PUT OUT COMMAND UNLESS MONITOR
002711: 25,3053           74741                           MASK     REPOSBIT                              #  REPOSITION HAS TAKEN OVER.
002712: 25,3054           10000                           CCS      A
002713: 25,3055           02317                           TC       RROUT
002714:
002715: 25,3056           30076                           CA       FLAGWRD2
002716: 25,3057           74740                           MASK     LOSCMBIT                              #  IF LOSCMFLG NOT SET, DON'T TEST
002717: 25,3060           00006                           EXTEND                                         #  LOS COUNTER
002718: 25,3061           15155                           BZF      ENDOFJOB
002719: 25,3062           11456                           CCS      LOSCOUNT                              #  TEST LOS COUNTER TO SEE IF TIME TO GET
002720: 25,3063           03073                           TC       DODESEND                              #  A NEW LOS
002721: 25,3064           06032                           TC       KILLTASK                              #  YES - KILL TASK WHICH SCHEDULES DODES
002722: 25,3065           52613                           CADR     DESLOOP    +2
002723: 25,3066           00003                           RELINT
002724: 25,3067           10067                           CCS      NEWJOB
002725: 25,3070           05122                           TC       CHANG1
002726: 25,3071           04616                           TC       BANKCALL
002727: 25,3072           50732                           CADR     R21LEM2
002728:
002729: 25,3073           55456        DODESEND           TS       LOSCOUNT
002730: 25,3074           05155                           TC       ENDOFJOB
002731:
002732: 25,3075           21122        RDESGAIN           DEC      .53624                                #  TRIES TO NULL .5 ERROR IN .5 SEC.
002733: 25,3076     7715               BIT12,14           EQUALS   PRIO24                                #  OCT 24000
002734: 25,3076           07777 33005  COS1/2DG           2DEC     .999961923 B-2                        #  COSINE OF 0.5 DEGREES.
002735: 25,3100           00310 00000  MCTOMS             2DEC     100        B-13
002736:


002738:                                                                                                  #  RADAR READ INITIALIZATION
002739:
002740:                                                                                                  #  RADAR DATA ARE READ BY A BANKCALL FOR THE APPROPRIATE LEAD-IN BELOW.
002741:
002742: 25,3102           03122        LRALT              TC       INITREAD   -1                         #  ONE SAMPLE PER READING.
002743: 25,3103           00017        ALLREAD            OCT      17
002744:
002745: 25,3104           03123        LRVELZ             TC       INITREAD
002746: 25,3105           00016                           OCT      16
002747:
002748: 25,3106           03123        LRVELY             TC       INITREAD
002749: 25,3107           00015                           OCT      15
002750:
002751: 25,3110           03123        LRVELX             TC       INITREAD
002752: 25,3111           00014                           OCT      14
002753:
002754: 25,3112           03122        RRRDOT             TC       INITREAD   -1
002755: 25,3113           00012                           OCT      12
002756:
002757: 25,3114           03122        RRRANGE            TC       INITREAD   -1
002758: 25,3115           00011                           OCT      11
002759:
002760:                                                                                                  #  LRVEL IS THE ENTRY TO THE LR VELOCITY READ ROUTINE WHEN 5 SAMPLES ARE
002761:                                                                                                  #  WANTED.  ENTER WITH C(A)= 0,2,4 FOR LRVELZ,LRVELY,LRVELX RESP.
002762:
002763: 25,3116           55104        LRVEL              TS       TIMEHOLD                              #  STORE VBEAM INDEX HERE MOMENTARILY
002764: 25,3117           34756                           CAF      FIVE                                  #  SPECIFY FIVE SAMPLES
002765: 25,3120           51104                           INDEX    TIMEHOLD
002766: 25,3121           13104                           TCF      LRVELZ
002767:


002769: 25,3122           34753                 -1        CAF      ONE                                   #  ENTRY TO TAKE ONLY 1 SAMPLE.
002770: 25,3123           00004        INITREAD           INHINT
002771:
002772: 25,3124           55104                           TS       TIMEHOLD                              #  GET DT OF MIDPOINT OF NOMINAL SAMPLING
002773: 25,3125           00006                           EXTEND                                         #  INTERVAL (ASSUMES NO BAD SAMPLES WILL BE
002774: 25,3126           74751                           MP       BIT3                                  #  ENCOUNTERED).
002775: 25,3127           53105                           DXCH     TIMEHOLD
002776:
002777: 25,3130           10000                           CCS      A
002778: 25,3131           55110                           TS       NSAMP
002779: 25,3132           64753                           AD       ONE
002780:                                                                                                  #  INSERT FOLLOWING INSTRUCTION TO GET 2N TRIES FOR N SAMPLES.
002781:                                                                                                  #                DOUBLE
002782: 25,3133           55077                           TS       SAMPLIM
002783:
002784: 25,3134           33156                           CAF      DGBITS                                #  READ CURRENT VALUE OF DATA GOOD BITS.
002785: 25,3135           00006                           EXTEND
002786: 25,3136           02033                           RAND     CHAN33
002787: 25,3137           55112                           TS       OLDATAGD
002788:
002789: 25,3140           43103                           CS       ALLREAD
002790: 25,3141           00006                           EXTEND
002791: 25,3142           03013                           WAND     CHAN13                                #  REMOVE ALL RADAR BITS
002792:
002793: 25,3143           50002                           INDEX    Q
002794: 25,3144           30000                           CAF      0
002795: 25,3145           04674                           TC       IBNKCALL
002796: 25,3146           36000                           CADR     RADSTART
002797:
002798: 25,3147           00006                           EXTEND
002799: 25,3150           30025                           DCA      TIME2
002800: 25,3151           21105                           DAS      TIMEHOLD                              #  TIME OF NOMINAL MIDPOINT.
002801:
002802: 25,3152           34755                           CAF      ZERO
002803: 25,3153           54001                           TS       L
002804: 25,3154           53101                           DXCH     SAMPLSUM
002805: 25,3155           12377                           TCF      ROADBACK
002806:
002807: 25,3156           00230        DGBITS             OCT      230
002808:


002810:                                                                                                  #  RADAR RUPT READER
002811:
002812:                                                                                                  #  THIS ROUTINE STARTS FROM A RADARUPT.  IT READS THE DATA & LOTS MORE.
002813:
002814: 25,2000                                           SETLOC   RADARUPT
002815: 25,2000                                           BANK
002816:
002817: 25,3157                                           COUNT*   $$/RRUPT
002818: 25,3157           00006        RADAREAD           EXTEND                                         #  MUST SAVE SBANK BECAUSE OF RUPT EXITS
002819: 25,3160           04007                           ROR      SUPERBNK                              #  VIA TASKOVER (BADEND OR GOODEND.
002820: 25,3161           54016                           TS       BANKRUPT
002821: 25,3162           00006                           EXTEND
002822: 25,3163           22012                           QXCH     QRUPT
002823:
002824: 25,3164           00006                           EXTEND
002825: 25,3165           31454                           DCA      TTOGO                                 #  LOAD TIME TO TIG
002826: 25,3166           53272                           DXCH     TTOTIG                                #  FOR R65 RADAR READING.
002827:
002828: 25,3167           34757                           CAF      SEVEN
002829: 25,3170           00006                           EXTEND
002830: 25,3171           02013                           RAND     CHAN13
002831: 25,3172           55332                           TS       DNINDEX
002832: 25,3173           00006                           EXTEND                                         #  IF RADAR SELECT BITS ZERO, DO NOT STORE
002833: 25,3174           13200                           BZF      TRYCOUNT                              #  DATA FOR DOWNLIST (ERASABLE PROBLEMS)
002834: 25,3175           30046                           CA       RNRAD
002835: 25,3176           51332                           INDEX    DNINDEX
002836: 25,3177           55327                           TS       DNRRANGE   -1
002837: 25,3200           11077        TRYCOUNT           CCS      SAMPLIM
002838: 25,3201           13223                           TCF      PLENTY
002839: 25,3202           13206                           TCF      NOMORE
002840: 25,3203           05567                           TC       ALARM
002841: 25,3204           00520                           OCT      520
002842: 25,3205           05270                           TC       RESUME
002843:
002844: 25,3206           30107        NOMORE             CA       FLGWRD11                              #  IS LRBYPASS SET?
002845: 25,3207           74735                           MASK     LRBYBIT
002846: 25,3210           00006                           EXTEND
002847: 25,3211           13220                           BZF      BADRAD                                #  NO.  R12 IS ON -- BYPASS 521 ALARM.
002848:
002849: 25,3212           40077                           CS       FLAGWRD3                              #  CHECK R04FLAG.
002850: 25,3213           74743                           MASK     R04FLBIT                              #  IF 1, R04 IS RUNNING.  DO NOT ALARM-
002851: 25,3214           00006                           EXTEND
002852: 25,3215           13220                           BZF      BADRAD
002853:
002854: 25,3216           05567                           TC       ALARM                                 #  P20 WANTS THE ALARM.
002855: 25,3217           00521                           OCT      521
002856: 25,3220           44753        BADRAD             CS       ONE
002857: 25,3221           55077                           TS       SAMPLIM
002858: 25,3222           03563                           TC       RDBADEND   -2
002859: 25,3223           55077        PLENTY             TS       SAMPLIM


002861: 25,3224           34751                           CAF      BIT3
002862: 25,3225           00006                           EXTEND
002863: 25,3226           02013                           RAND     CHAN13                                #  TO FIND OUT WHICH RADAR
002864: 25,3227           00006                           EXTEND
002865: 25,3230           13277                           BZF      RENDRAD
002866:
002867: 25,3231           03365                           TC       R77CHECK                              #  R77 QUITS HERE.
002868: 25,3232           36250        VELCHK             CAF      BIN3                                  #  = 00003 OCT
002869: 25,3233           00006                           EXTEND
002870: 25,3234           06013                           RXOR     CHAN13                                #  RESET ACTIVITY BIT
002871: 25,3235           76250                           MASK     BIN3
002872: 25,3236           00006                           EXTEND
002873: 25,3237           13273                           BZF      LRHEIGHT                              #  TAKE A LR RANGE READING
002874:
002875: 25,3240           34733                           CAF      POSMAX
002876: 25,3241           70046                           MASK     RNRAD
002877: 25,3242           62000                           AD       LVELBIAS
002878: 25,3243           54001                           TS       L
002879: 25,3244           30046                           CAE      RNRAD
002880: 25,3245           60000                           DOUBLE
002881: 25,3246           74753                           MASK     BIT1
002882: 25,3247           52064                           DXCH     ITEMP3
002883:
002884: 25,3250           34744                           CAF      BIT8                                  #  DATA GOOD ISNT CHECKED UNTIL AFTER READ-
002885: 25,3251           03425                           TC       DGCHECK                               #  ING DATA SO SOME RADAR TESTS WILL WORK
002886:                                                                                                  #  INDEPENDENT OF DATA GOOD.
002887:
002888: 25,3252           11110                           CCS      NSAMP
002889: 25,3253           03263                           TC       NOEND
002890: 25,3254           44753        GOODRAD            CS       ONE
002891: 25,3255           55077                           TS       SAMPLIM
002892: 25,3256           40061                           CS       ITEMP1                                #  WHEN ENOUGH GOOD DATA HAS BEEN GATHERED,
002893: 25,3257           70110                           MASK     RADMODES                              #  RESET DATA FAIL FLAGS FOR SETTRKF.
002894: 25,3260           54110                           TS       RADMODES
002895: 25,3261           03612                           TC       RADLITES                              #  LAMPS MAY GO OFF IF DATA JUST GOOD.
002896: 25,3262           03556                           TC       RGOODEND   -2
002897:
002898: 25,3263           55110        NOEND              TS       NSAMP
002899: 25,3264           11077        RESAMPLE           CCS      SAMPLIM                               #  SEE IF ANY MORE TRIES SHOULD BE MADE.
002900: 25,3265           13267                           TCF      +2
002901: 25,3266           13444                           TCF      DATAFAIL                              #  N SAMPLES NOT AVAILABLE.
002902: 25,3267           34750                           CAF      BIT4                                  #  RESET ACTIVITY BIT.
002903: 25,3270           04674                           TC       IBNKCALL
002904: 25,3271           36000                           CADR     RADSTART
002905:
002906: 25,3272           05270                           TC       RESUME
002907:
002908: 25,3273           34747        LRHEIGHT           CAF      BIT5
002909: 25,3274           54061                           TS       ITEMP1                                #  (POSITION OF DATA GOOD BIT IN CHAN 33)


002911: 25,3275           34743                           CAF      BIT9
002912: 25,3276           03321                           TC       SCALECHK   -1
002913:
002914: 25,3277           34741        RENDRAD            CAF      REPOSBIT                              #  MAKE SURE ANTENNA HAS NOT GONE OUT OF
002915: 25,3300           70110                           MASK     RADMODES                              #  LIMITS.
002916: 25,3301           10000                           CCS      A
002917: 25,3302           13220                           TCF      BADRAD
002918:
002919: 25,3303           40110                           CS       RADMODES                              #  BE SURE RR CDU HASNT FAILED.
002920: 25,3304           74745                           MASK     RCDUFBIT
002921: 25,3305           10000                           CCS      A
002922: 25,3306           13220                           TCF      BADRAD
002923:
002924: 25,3307           34750                           CAF      BIT4                                  #  SEE IF DATA HAS BEEN GOOD.
002925: 25,3310           54061                           TS       ITEMP1                                #  (POSITION OF DATA GOOD BIT IN CHAN 33)
002926:
002927: 25,3311           34753                           CAF      BIT1                                  #  SEE IF RR RDOT.
002928: 25,3312           00006                           EXTEND
002929: 25,3313           02013                           RAND     CHAN13
002930: 25,3314           54002                           TS       Q                                     #  FOR LATER TESTING.
002931: 25,3315           10000                           CCS      A
002932: 25,3316           13320                           TCF      +2
002933: 25,3317           13332                           TCF      RADIN                                 #  NO SCALE CHECK FOR RR RDOT.
002934: 25,3320           34751                           CAF      BIT3
002935: 25,3321           54001                           TS       L
002936:
002937: 25,3322           00006        SCALECHK           EXTEND
002938: 25,3323           02033                           RAND     CHAN33                                #  SCALE STATUS NOW
002939: 25,3324           56001                           XCH      L
002940: 25,3325           70110                           MASK     RADMODES                              #  SCALE STATUS BEFORE
002941: 25,3326           00006                           EXTEND
002942: 25,3327           06001                           RXOR     LCHAN                                 #  SEE IF THEY DIFFER
002943: 25,3330           10000                           CCS      A
002944: 25,3331           03351                           TC       SCALCHNG                              #  THEY DIFFER
002945:
002946: 25,3332           34733        RADIN              CAF      POSMAX
002947: 25,3333           70046                           MASK     RNRAD
002948: 25,3334           54064                           TS       ITEMP4
002949:
002950: 25,3335           30046                           CAE      RNRAD
002951: 25,3336           60000                           DOUBLE
002952: 25,3337           74753                           MASK     BIT1
002953: 25,3340           54063                           TS       ITEMP3
002954:
002955: 25,3341           10002                           CCS      Q                                     #  SEE IF RR RDOT.
002956: 25,3342           13403                           TCF      SCALADJ                               #  NO, BUT SCALE CHANGING MAY BE NEEDED.
002957:
002958: 25,3343           00006                           EXTEND                                         #  IF RR RANGE RATE, THROW OUT BIAS.
002959: 25,3344           42002                           DCS      RDOTBIAS
002960: 25,3345           20064        DASAMPL            DAS      ITEMP3


002962: 25,3346           30061        DGCHECK2           CA       ITEMP1                                #  SEE THAT DATA HAS BEEN GOOD BEFORE AND
002963: 25,3347           03426                           TC       DGCHECK    +1                         #  AFTER TAKING SAMPLE.
002964: 25,3350           03254                           TC       GOODRAD
002965:
002966: 25,3351           22110        SCALCHNG           LXCH     RADMODES
002967: 25,3352           64753                           AD       BIT1
002968: 25,3353           00006                           EXTEND
002969: 25,3354           06001                           RXOR     LCHAN
002970: 25,3355           54110                           TS       RADMODES
002971: 25,3356           33156                           CAF      DGBITS                                #  UPDATE LAST VALUE OF DATA GOOD BITS.
002972: 25,3357           00006                           EXTEND
002973: 25,3360           02033                           RAND     CHAN33
002974: 25,3361           55112                           TS       OLDATAGD
002975: 25,3362           05504                           TC       UPFLAG                                #  SET RNGSCFLG
002976: 25,3363           00120                           ADRES    RNGSCFLG                              #  FOR LRS24.1
002977: 25,3364           13220                           TCF      BADRAD
002978:
002979:                                                                                                  #  R77 MUST IGNORE DATA FAILS SO AS NOT TO DISTURB THE ASTRONAUT.
002980:
002981: 25,3365           40101        R77CHECK           CS       FLAGWRD5
002982: 25,3366           74741                           MASK     R77FLBIT
002983: 25,3367           10000                           CCS      A
002984: 25,3370           00002                           TC       Q                                     #  NOT R77
002985: 25,3371           43402                           CS       BITS5,8                               #  UPDATE LR DATA GOOD BITS IN RADMODES
002986: 25,3372           70110                           MASK     RADMODES
002987: 25,3373           54001                           TS       L
002988: 25,3374           33402                           CA       BITS5,8
002989: 25,3375           00006                           EXTEND
002990: 25,3376           02033                           RAND     CHAN33
002991: 25,3377           60001                           AD       L
002992: 25,3400           54110                           TS       RADMODES
002993: 25,3401           03556                           TC       RGOODEND   -2
002994: 25,3402           00220        BITS5,8            OCT      220
002995:


002997:                                                                                                  #  THE FOLLOWING ROUTINE INCORPORATES RR RANGE AND LR ALT SCALE INFORMATION AND LEAVES DATA AT LO SCALE.
002998:
002999: 25,3403           10001        SCALADJ            CCS      L                                     #  L HAS SCALE INBIT FOR THIS RADAR.
003000: 25,3404           13406                           TCF      +2                                    #  ON HIGH SCALE.
003001: 25,3405           13346                           TCF      DGCHECK2
003002:
003003: 25,3406           31332                           CA       DNINDEX
003004: 25,3407           74751                           MASK     BIT3
003005: 25,3410           10000                           CCS      A
003006: 25,3411           13420                           TCF      LRSCK
003007:
003008: 25,3412           52064                           DXCH     ITEMP3
003009: 25,3413           20001                           DDOUBL
003010: 25,3414           20001                           DDOUBL
003011: 25,3415           20001                           DDOUBL
003012: 25,3416           52064                           DXCH     ITEMP3
003013:
003014: 25,3417           13346                           TCF      DGCHECK2
003015:
003016: 25,3420           00006        LRSCK              EXTEND
003017: 25,3421           30064                           DCA      ITEMP3
003018: 25,3422           20001                           DDOUBL
003019: 25,3423           20001                           DDOUBL
003020: 25,3424           13345                           TCF      DASAMPL
003021:
003022: 25,3425           54061        DGCHECK            TS       ITEMP1                                #  UPDATE DATA GOOD BIT IN OLDATAGD AND
003023: 25,3426           00006                           EXTEND                                         #  MAKE SURE IT WAS ON BEFORE AND AFTER THE
003024: 25,3427           02033                           RAND     CHAN33                                #  SAMPLE WAS TAKEN BEFORE RETURNING.  IF
003025: 25,3430           54001                           TS       L                                     #  NOT, GOES TO RESAMPLE TO TRY AGAIN.  IF
003026: 25,3431           40061                           CS       ITEMP1                                #  MAX NUMBER OF TRIES HAS BEEN REACHED,
003027: 25,3432           71112                           MASK     OLDATAGD                              #  THE BIT CORRESPONDING TO THE DATA GOOD
003028: 25,3433           60001                           AD       L                                     #  WHICH FAILED TO APPEAR IS IN ITEMP1 AND
003029: 25,3434           57112                           XCH      OLDATAGD                              #  CAN BE USED TO SET RADMODES WHICH VIA
003030: 25,3435           70061                           MASK     ITEMP1                                #  SETTRKF SETS THE TRACKER FAIL LAMP.
003031: 25,3436           60001                           AD       L
003032: 25,3437           10000                           CCS      A                                     #  SHOULD BOTH BE ZERO.
003033: 25,3440           03264                           TC       RESAMPLE
003034: 25,3441           52064                           DXCH     ITEMP3                                #  IF DATA GOOD BEFORE AND AFTER, ADD TO
003035: 25,3442           21101                           DAS      SAMPLSUM                              #  ACCUMULATION.
003036: 25,3443           00002                           TC       Q
003037:
003038: 25,3444           40061        DATAFAIL           CS       ITEMP1                                #  IN THE ABOVE CASE, SET RADMODES BIT
003039: 25,3445           70110                           MASK     RADMODES                              #  SHOWING SOME RADAR DATA FAILED.
003040: 25,3446           60061                           AD       ITEMP1
003041: 25,3447           54110                           TS       RADMODES
003042:
003043: 25,3450           52064                           DXCH     ITEMP3                                #  IF WE HAVE BEEN UNABLE TO GATHER N
003044: 25,3451           53101                           DXCH     SAMPLSUM                              #  SAMPLES, USE LAST ONE ONLY.


003046: 25,3452           03612                           TC       RADLITES
003047: 25,3453           13206                           TCF      NOMORE
003048:


003050:                                                                                                  #  CODING TO PROTECT CHANNEL 13 WILL RADAR READ IS IN CRITICAL PERIOD
003051:
003052: 17,2000                                           SETLOC   C13BANK
003053: 17,2000                                           BANK
003054:
003055: 17,2000           54002        RADSTART           TS       Q
003056: 17,2001           00006                 +1        EXTEND
003057: 17,2002           00004                           READ     LOSCALAR                              #  READ PRESENT TIME
003058: 17,2003           54001                           TS       L
003059:
003060: 17,2004           74346                           MASK     LOW5                                  #  ONLY THE LOW 5 BITS MATTER
003061: 17,2005           40000                           COM
003062: 17,2006           64746                           AD       BIT6                                  #  COMPUTE DELTA TIME TO NEXT T5 TICK
003063: 17,2007           74346                           MASK     LOW5
003064: 17,2010           55270                           TS       RADDEL
003065:
003066: 17,2011           67751                           AD       NEG2                                  #  IF A TICKING OF T5 IS NEAR, WAIT UNTIL
003067: 17,2012           00006                           EXTEND                                         #  IT HAS TICKED.  THE MAX DELAY HERE WILL
003068: 17,2013           62001                           BZMF     RADSTART   +1                         #  BE 937.5 MICROSECONDS
003069:
003070: 17,2014           30002                           CA       Q
003071: 17,2015           00006                           EXTEND                                         #  IT IS SAFE TO SET THE ACTIVITY BIT NOW
003072: 17,2016           05013                           WOR      CHAN13                                #  BECAUSE OF THE ABOVE LOOP
003073:
003074: 17,2017           40001                           CS       L
003075: 17,2020           55267                           TS       RADTIME                               #  SAVE NEGATIVE TIME OF READ
003076: 17,2021           04707                           TC       ISWRETRN
003077:
003078: 17,2022           55266        C13STAL1           TS       C13FSAV
003079:
003080: 17,2023           34750                           CA       BIT4
003081: 17,2024           00006                           EXTEND
003082: 17,2025           02013                           RAND     CHAN13
003083: 17,2026           00006                           EXTEND
003084: 17,2027           12050                           BZF      TCQSTAL                               #  IF NO RADAR ACTIVITY, RETURN
003085:
003086: 17,2030           12031        C13SLOOP           NOOP                                           #  *** NECESSARY TO PREVENT A TC TRAP ***
003087: 17,2031           00006                           EXTEND
003088: 17,2032           00004                           READ     LOSCALAR
003089: 17,2033           61267                           AD       RADTIME                               #  COMPUTE DELTA T SINCE LAST RADAR READ
003090: 17,2034           64736                           AD       HALF
003091: 17,2035           64736                           AD       HALF                                  #  CORRECT FOR TIME OVERFLOW
003092: 17,2036           56001                           XCH      L
003093:
003094: 17,2037           32053                           CA       90MSCALR
003095: 17,2040           61270                           AD       RADDEL
003096: 17,2041           00006                           EXTEND
003097: 17,2042           60001                           SU       L


003099: 17,2043           00006                           EXTEND
003100: 17,2044           62050                           BZMF     TCQSTAL                               #  FORBIDDEN ZONE IS PAST, RETURN
003101:
003102: 17,2045           62054                           AD       -DTSCALR
003103: 17,2046           00006                           EXTEND
003104: 17,2047           62030                           BZMF     C13SLOOP                              #  IN THE FORBIDDEN PERIOD, LOOP UNTIL O.K.
003105:
003106: 17,2050           22002        TCQSTAL            LXCH     Q                                     #  ALL IS WELL, RETURN
003107: 17,2051           31266                           CA       C13FSAV
003108: 17,2052           52005                           DTCF
003109:
003110: 17,2053           00440        90MSCALR           OCT      440                                   #  90 MILLISEC IN SCALAR
003111: 17,2054           77754        -DTSCALR           OCT      77754                                 #  -5.9375 MS IN SCALAR
003112:
003113:    6000                                           SETLOC   FFTAG6
003114:    6000                                           BANK
003115:
003116:    6022           37727        C13STALL           CAF      PRIO36                                #  PRIO36 = 36000 = FCADR (17,2000)
003117:    6023           56004                           XCH      FBANK
003118:    6024           12022                           TCF      C13STAL1
003119:


003121:                                                                                                  #  THIS ROUTINE CHANGES THE LR POSITION, AND CHECKS THAT IT GOT THERE.
003122:
003123: 25,2000                                           SETLOC   P20S1
003124: 25,2000                                           BANK
003125:
003126: 25,3454                                           COUNT*   $$/RSUB
003127: 25,3454           00004        LRPOS2             INHINT
003128:
003129: 25,3455           40110                           CS       RADMODES
003130: 25,3456           74746                           MASK     LRPOSBIT                              #  SHOW DESIRED LR POSITION IS 2
003131: 25,3457           26110                           ADS      RADMODES
003132:
003133: 25,3460           34745                           CAF      BIT7
003134: 25,3461           00006                           EXTEND
003135: 25,3462           02033                           RAND     CHAN33                                #  SEE IF ALREADY THERE.
003136: 25,3463           00006                           EXTEND
003137: 25,3464           13513                           BZF      RADNOOP
003138:
003139: 25,3465           34737                           CAF      BIT13
003140: 25,3466           00006                           EXTEND
003141: 25,3467           05012                           WOR      CHAN12                                #  COMMAND TO POSITION 2
003142: 25,3470           33530                           CAF      6SECS                                 #  START SCANNING FOR INBIT AFTER 7 SECS.
003143: 25,3471           05203                           TC       WAITLIST
003144: 25,3472  E7,1456                                  EBANK=   LOSCOUNT
003145: 25,3472           03526 52067                     2CADR    LRPOSCAN
003146:
003147: 25,3474           02377                           TC       ROADBACK
003148:
003149: 25,3475           55077        LRPOSNXT           TS       SAMPLIM
003150: 25,3476           05221                           TC       FIXDELAY                              #  SCAN ONCE PER SECOND 15 TIMES MAX AFTER
003151: 25,3477           00144                           DEC      100        B-14                       #  INITIAL DELAY OF 7 SECONDS.
003152:
003153: 25,3500           34745                           CAF      BIT7                                  #  SEE IF LR POS2 IS ON
003154: 25,3501           00006                           EXTEND
003155: 25,3502           02033                           RAND     CHAN33
003156: 25,3503           00006                           EXTEND
003157: 25,3504           13520                           BZF      LASTLRDT                              #  IF THERE, WAIT FINAL SECOND FOR BOUNCE.
003158:
003159: 25,3505           11077                           CCS      SAMPLIM                               #  SEE IF MAX TIME UP.
003160: 25,3506           13475                           TCF      LRPOSNXT
003161:
003162: 25,3507           44737                           CS       BIT13                                 #  IF TIME UP, DISABLE COMMAND AND ALARM.
003163: 25,3510           00006                           EXTEND
003164: 25,3511           03012                           WAND     CHAN12
003165: 25,3512           13565                           TCF      RDBADEND
003166:
003167: 25,3513           34753        RADNOOP            CAF      ONE                                   #  NO FURTHER ACTION REQUESTED.
003168: 25,3514           05203                           TC       WAITLIST
003169: 25,3515  E7,1456                                  EBANK=   LOSCOUNT
003170: 25,3515           03560 52067                     2CADR    RGOODEND


003172: 25,3517           02377                           TC       ROADBACK
003173:
003174: 25,3520           35000        LASTLRDT           CA       2SECS                                 #  WAIT TWO SECONDS AFTER RECEIPT OF INBIT
003175: 25,3521           05224                           TC       VARDELAY                              #  TO WAIT FOR ANTENNA BOUNCE TO DIE OUT.
003176:
003177: 25,3522           44737                           CS       BIT13                                 #  REMOVE COMMAND
003178: 25,3523           00006                           EXTEND
003179: 25,3524           03012                           WAND     CHAN12
003180: 25,3525           13560                           TCF      RGOODEND
003181:
003182: 25,3526           34317        LRPOSCAN           CAF      FOURTEEN                              #  SET UP FOR 15 SAMPLES.
003183: 25,3527           13475                           TCF      LRPOSNXT
003184: 25,3530           01130        6SECS              DEC      600        B-14
003185:
003186: 25,3531           03454        LRP2COMM           TC       LRPOS2
003187: 25,3532           04616                           TC       BANKCALL
003188: 25,3533           17705                           CADR     RADSTALL
003189: 25,3534           03536                           TC       LP2ALM
003190: 25,3535           13547                           TCF      GOPINNER
003191:
003192: 25,3536           05567        LP2ALM             TC       ALARM
003193: 25,3537           00523                           OCT      523
003194: 25,3540           13547                           TCF      GOPINNER
003195:
003196: 25,3541           35016        V59GP63            CA       EBANK7
003197: 25,3542           54003                           TS       EBANK
003198: 25,3543  E7,1427                                  EBANK=   RPCRTIME
003199: 25,3543           34733                           CA       POSMAX
003200: 25,3544           55427                           TS       RPCRTIME
003201: 25,3545           44736                           CS       BIT14
003202: 25,3546           55430                           TS       RPCRTQSW
003203: 25,3547           04635        GOPINNER           TC       POSTJUMP
003204: 25,3550           21051                           CADR     PINBRNCH
003205:


003207:                                                                                                  #  SEQUENCES TO TERMINATE RR OPERATIONS.
003208:
003209: 25,3551           34745        ENDRADAR           CAF      RCDUFBIT                              #  PROLOG TO CHECK RR CDU FAIL BEFORE END.
003210: 25,3552           70110                           MASK     RADMODES
003211: 25,3553           10000                           CCS      A
003212: 25,3554           13560                           TCF      RGOODEND
003213: 25,3555           13565                           TCF      RDBADEND
003214: 25,3556           44755                 -2        CS       ZERO                                  #  RGOODEND WHEN NOT UNDER WAITLIST CONTROL
003215: 25,3557           54332                           TS       RUPTAGN
003216:
003217: 25,3560           34752        RGOODEND           CAF      TWO
003218: 25,3561           04635                           TC       POSTJUMP
003219: 25,3562           17656                           CADR     GOODEND
003220:
003221: 25,3563           44755                 -2        CS       ZERO                                  #  RDBADEND WHEN NOT UNDER WAITLIST.
003222: 25,3564           54332                           TS       RUPTAGN
003223: 25,3565           34752        RDBADEND           CAF      TWO
003224: 25,3566           04635                           TC       POSTJUMP
003225: 25,3567           17653                           CADR     BADEND
003226:
003227: 25,3570     6250               BIN3               EQUALS   THREE
003228:


003230:                                                                                                  #  PROGRAM NAME_  LPS20.1 VECTOR EXTRAPOLATION AND LOS COMPUTATION
003231:                                                                                                  #  MOD. NO. 2    BY J.D. COYNE   SDC     DATE 12-7-66
003232:
003233:                                                                                                  #  FUNCTIONAL DESCRIPTION_
003234:                                                                                                  #        1)      EXTRAPOLATE THE LEM AND CSM VECTORS IN ACCORDANCE WITH THE TIME REFERED TO IN CALLER + 1.
003235:                                                                                                  #        2)      COMPUTES THE LOS VECTOR TO THE CSM, CONVERTS IT TO STABLE MEMBER COORDINATES AND STORES IT IN RRTARGET.
003236:                                                                                                  #        3)      COMPUTES THE MAGNITUDE OF THE LOS VECTOR AND STORES IT IN MLOSV
003237:
003238:                                                                                                  #  CALLING SEQUENCE      CALL
003239:                                                                                                  #                                LPS20.1
003240:
003241:                                                                                                  #  SUBROUTINES CALLED_
003242:                                                                                                  #        LEMPREC, CSMPREC
003243:
003244:                                                                                                  #  NORMAL EXIT_  RETURN TO CALLER + 2
003245:
003246:                                                                                                  #  ERROR EXITS_  NONE
003247:
003248:                                                                                                  #  ALARMS_  NONE
003249:
003250:                                                                                                  #  OUTPUT_
003251:                                                                                                  #        LOS VECTOR (HALF UNIT) IN SM COORDINATES STORED IN RRTARGET
003252:                                                                                                  #        MAGNITUDE OF THE LOS VECTOR (METERS SCALED B-29) STORED IN MSLOV
003253:                                                                                                  #        RRNBSW CLEARED
003254:
003255:                                                                                                  #  INITIALIZED ERASEABLE
003256:                                                                                                  #        TDEC1 MUST CONTAIN THE TIME FOR EXTRAPOLATION
003257:                                                                                                  #        SEE ORBITAL INTEGRATION ROUTINE
003258:
003259:                                                                                                  #  DEBRIS_
003260:                                                                                                  #        MPAC DESTROYED BY THIS ROUTINE
003261:
003262: 23,2337                                           BANK     23
003263: 24,2000                                           SETLOC   P20S
003264: 24,2000                                           BANK


003266: 24,3256                                           COUNT*   $$/LPS20
003267:
003268: 24,3256           43020        LPS20.1            STQ      BOFF
003269: 24,3257           01757                                    LS21X
003270: 24,3260           01343                                    LOSCMFLG                              #  LOSCMFLG = 0 MEANS NOT CALLED BY R21
003271: 24,3261           51265                                    LMINT                                 #  SO CALL LEMCONIC TO GET LM STATE
003272: 24,3262           77614                           BON                                            #  IF IN R21 AND ON LUNAR SURFACE
003273: 24,3263           04307                                    SURFFLAG                              #  DON'T CALL LEMCONIC
003274: 24,3264           51275                                    CSMINT
003275: 24,3265           77624        LMINT              CALL
003276: 24,3266           27077                                    LEMCONIC                              #  EXTRAPOLATE LEM
003277: 24,3267           77775                           VLOAD
003278: 24,3270           00001                                    RATT
003279: 24,3271           26352                           STOVL    LMPOS                                 #  SAVE LM POSITION B-29
003280: 24,3272           00007                                    VATT
003281: 24,3273           16360                           STODL    LMVEL                                 #  SAVE LM VELOCITY B-7
003282: 24,3274           00015                                    TAT
003283: 24,3275           34041        CSMINT             STCALL   TDEC1
003284: 24,3276           27065                                    CSMCONIC                              #  EXTRAPOLATE CSM
003285: 24,3277           52375                           VLOAD    VSU                                   #  COMPUTE RELATIVE VELOCITY V(CSM) - V(LM)
003286: 24,3300           00007                                    VATT
003287: 24,3301           02360                                    LMVEL
003288: 24,3302           76521                           MXV      VSL1
003289: 24,3303           01734                                    REFSMMAT
003290: 24,3304           77776                           EXIT
003291: 24,3305           06032                           TC       KILLTASK                              #  KILL THE TASK WHICH CALLS DODES SINCE
003292: 24,3306           52613                           CADR     DESLOOP    +2                         #  STORING INTO ERASEABLES DODES USES
003293: 24,3307           06042                           TC       INTPRET
003294: 24,3310           25761                           STOVL    LOSVEL
003295: 24,3311           00001                                    RATT
003296: 24,3312           43051                           VSU      BOFF
003297: 24,3313           02352                                    LMPOS
003298: 24,3314           00350                                    RNDVZFLG
003299: 24,3315           51322                                    NOTSHIFT
003300: 24,3316           77604                           BOVB
003301: 24,3317           57754                                    TCDANZIG
003302: 24,3320           77661                           VSL
003303: 24,3321           20212                                    9D
003304: 24,3322           41056        NOTSHIFT           UNIT     BOVB                                  #  IF OVERFLOW, RANGE MUST BE GREATER
003305: 24,3323           50102                                    526ALARM                              #  THAN 400 N. M.
003306: 24,3324           76521                           MXV      VSL1
003307: 24,3325           01734                                    REFSMMAT                              #  CONVERT TO STABLE MEMBER
003308: 24,3326           15101                           STODL    RRTARGET
003309: 24,3327           00045                                    36D                                   #  SAVE MAGNITUDE OF LOS VECTOR FOR
003310: 24,3330           01767                           STORE    MLOSV                                 #  VELOCITY CORRECTION IN DESIGNATE
003311: 24,3331           77614                           CLRGO
003312: 24,3332           00231                                    RRNBSW
003313: 24,3333           01757                                    LS21X
003314:


003316:                                                                                                  #  PROGRAM NAME_  LPS20.2  400 NM RANGE CHECK
003317:                                                                                                  #  MOD. NO. 2    BY J.D. COYNE   SDC     DATE 12-7-66
003318:
003319:                                                                                                  #  FUNCTIONAL DESCRIPTION_
003320:                                                                                                  #        COMPARES THE MAGNITUDE OF THE LOS VECTOR TO 400 NM
003321:
003322:                                                                                                  #  CALLING SEQUENCE      CALL
003323:                                                                                                  #                                LPS20.2
003324:
003325:                                                                                                  #  SUBROUTINES CALLED_  NONE
003326:
003327:                                                                                                  #  NORMAL EXIT_  RETURN TO CALLER +1, MPAC EQ 0 (RANGE 400NM OR LESS.)
003328:
003329:                                                                                                  #  ERROR EXITS_  RETURN TO CALLER +1, MPAC EQ 1 (RANGE GREATER THAN 400NM)
003330:
003331:                                                                                                  #  ALARMS_  NONE
003332:
003333:                                                                                                  #  OUTPUT_  NONE
003334:
003335:                                                                                                  #  INITIALIZED ERASEABLE_
003336:                                                                                                  #        PDL 36D MUST CONTAIN THE MAGNITUDE OF THE VECTOR
003337:
003338:                                                                                                  #  DEBRIS
003339:                                                                                                  #        MPAC DESTROYED BY THIS ROUTINE
003340:
003341: 25,2000                                           SETLOC   P20S1
003342: 25,2000                                           BANK
003343: 25,3570                                           COUNT*   $$/LPS20
003344:
003345: 25,3570           45345        LPS20.2            DLOAD    DSU
003346: 25,3571           01767                                    MLOSV                                 #  MAGNITUDE OF LOS
003347: 25,3572           13603                                    FHNM                                  #  OVER 400NM  _
003348: 25,3573           77644                           BPL
003349: 25,3574           53577                                    TOFAR
003350: 25,3575           43535                           SLOAD    RVQ
003351: 25,3576           06524                                    ZERO/SP
003352: 25,3577           43535        TOFAR              SLOAD    RVQ
003353: 25,3600           13602                                    ONE/SP
003354: 25,3601           00001        ONE/SP             DEC      1          B-14


003356: 25,3602           26467 00000  FHNM               2DEC     740800     B-20                       #  400 NAUTICAL MILES IN METERS B-20
003357:


003359:                                                                                                  #  PROGRAM NAME:  LRS22.1 (DATA READ SUBROUTINE 1)
003360:                                                                                                  #  MOD. NO.: 1           BY: P. VOLANTE  SDC             DATE:  11-15-66
003361:
003362:                                                                                                  #  FUNCTIONAL DESCRIPTION
003363:                                                                                                  #        1)      READS RENDEZVOUS RADAR RANGE AND RANGE-RATE, TRUNION AND SHAFT ANGLES, THREE CDU VALUES AND TIME.  CONVERTS THIS
003364:                                                                                                  #                DATA AND LEAVES IT FOR THE MEASUREMENT INCORPORATION ROUTINE (LSR22.3).  CHECKS FOR THE RR DATA GOOD DISCRETE, FOR
003365:                                                                                                  #                RR REPOSITION AND RR CDU FAIL
003366:                                                                                                  #        2)      COMPARES RADAR LOS WITH LOS COMPUTED FROM STATE VECTORS TO SEE IF THEY ARE WITHIN THREE DEGREES
003367:
003368:                                                                                                  #  CALLING SEQUENCE:  BANKCALL FOR LRS22.1
003369:
003370:                                                                                                  #  SUBROUTINES CALLED:
003371:                                                                                                  #        RRRDOT          LPS20.1
003372:                                                                                                  #        RRRANGE         BANKCALL
003373:                                                                                                  #        RADSTALL        CDULOGIC
003374:                                                                                                  #        RRNB            SMNB
003375:
003376:                                                                                                  #  NORMAL EXIT:  RETURN TO CALLER+1 WITH MPAC SET TO +0
003377:
003378:                                                                                                  #  ERROR EXITS:  RETURN TO CALLER+1 WITH ERROR CODE STORED IN MPAC AS FOLLOWS:
003379:                                                                                                  #        00001 - ERROR EXIT 1 - RR DATA NO GOOD (NO RR DATA GOOD DISCRETE OR RR CDU FAIL OR RR REPOSITION)
003380:                                                                                                  #        00002 - ERROR EXIT 2 - RR LOS NOT WITHIN THREE DEGREES OF LOS COMPUTED FROM STATE VECTORS
003381:
003382:                                                                                                  #  ALARMS:  521 - COULD NOT READ RADAR DATA (RR DATA GOOD DISCRETE NOT PRESENT BEFORE AND AFTER READING THE RADAR)
003383:                                                                                                  #        (THIS ALARM IS ISSUED BY THE RADAREAD SUBROUTINE WHICH IS ENTERED FROM A RADARUPT)
003384:
003385:                                                                                                  #  OUTPUT:  RRLOSVEC - THE RR LINE-OF-SIGHT VECTOR (USED BY LRS22.2) - A HALF-UNIT VECTOR
003386:                                                                                                  #        RM - THE RR RANGE READING (TO THE CSM) DP, IN METERS SCALED B-29 (USED BY LRS22.2 AND LRS22.3)
003387:
003388:                                                                                                  #        ALL OF THE FOLLOWING OUTPUTS ARE USED BY LRS22.3:
003389:                                                                                                  #                RDOTM - THE RR RANGE-RATE READING, DP, IN METERS PER CENTISECOND, SCALED B-7
003390:                                                                                                  #                RRTRUN - RR TRUNION ANGLE, DP, IN REVOLUTIONS, SCALED B0
003391:                                                                                                  #                RRSHAFT - RR SHAFT ANGLE, DP, IN REVOLUTIONS, SCALED B0
003392:                                                                                                  #                AIG,AMG,ADG - THE CDU ANGLES, THREE SP WORDS
003393:                                                                                                  #                MKTIME - THE TIME OF THE RR READING, DP, IN CENTISECONDS
003394:
003395:                                                                                                  #  ERASABLE INITIALIZATION REQUIRED:
003396:                                                                                                  #        RNRAD, THE RADAR READ COUNTER FROM WHICH IS OBTAINED:


003398:                                                                                                  #                1) RR RANGE SCALED 9.38 FT. PER BIT ON THE LOW SCALE AND 75.04 FT. PER BIT ON THE HIGH SCALE
003399:                                                                                                  #                2) RR RANGE RATE, SCALED .6278 FT./SEC. PER BIT
003400:                                                                                                  #        THE CDU ANGLES FROM CDUX, CDUY, CDUZ AND TIME1 AND TIME2
003401:
003402:                                                                                                  #  DEBRIS:  LRS22.1X, A, L, Q, PUSHLIST
003403:
003404: 32,2366                                           BANK     32
003405: 32,2000                                           SETLOC   LRS22
003406: 32,2000                                           BANK
003407: 32,2366                                           COUNT*   $$/LRS22
003408:
003409: 32,2366           04645        LRS22.1            TC       MAKECADR
003410: 32,2367           55737                           TS       LRS22.1X
003411: 32,2370           05516                           TC       DOWNFLAG
003412: 32,2371           00120                           ADRES    RNGSCFLG
003413: 32,2372           00004                           INHINT
003414: 32,2373           34751                           CAF      BIT3
003415: 32,2374           00006                           EXTEND                                         #  GET RR RANGE SCALE
003416: 32,2375           02033                           RAND     CHAN33                                #  FROM CHANNEL 33 BIT 3
003417: 32,2376           54001                           TS       L
003418: 32,2377           44751                           CS       RRRSBIT
003419: 32,2400           70110                           MASK     RADMODES
003420: 32,2401           60001                           AD       L
003421: 32,2402           54110                           TS       RADMODES
003422: 32,2403           00003                           RELINT
003423: 32,2404           04616        READRDOT           TC       BANKCALL
003424: 32,2405           53112                           CADR     RRRDOT                                #  READ RANGE-RATE (ONE SAMPLE)
003425: 32,2406           04616                           TC       BANKCALL
003426: 32,2407           17705                           CADR     RADSTALL                              #  WAIT FOR DATA READ COMPLETION
003427: 32,2410           12543                           TCF      EREXIT1                               #  COULD NOT READ RADAR-ERROR EXIT 1
003428:
003429: 32,2411           00004                           INHINT                                         #  NO INTERRUPTS WHILE READING TIME AND CDU
003430: 32,2412           53105                           DXCH     TIMEHOLD                              #  SET MARK TIME EQUAL TO THE MID-POINT
003431: 32,2413           52162                           DXCH     MPAC       +5                         #  TEMP BUFFER FOR DOWNLINK
003432: 32,2414           53101                           DXCH     SAMPLSUM                              #  SAVE RANGE-RATE READING
003433: 32,2415           53747                           DXCH     RDOTMSAV
003434: 32,2416           00006                           EXTEND
003435: 32,2417           30034                           DCA      CDUY                                  #  SAVE ICDU ANGLES
003436: 32,2420           52160                           DXCH     MPAC       +3                         #  TEMP BUFFER FOR DOWNLINK
003437: 32,2421           30032                           CA       CDUX
003438: 32,2422           54156                           TS       MPAC       +2                         #  TEMP BUFFER FOR DOWNLINK
003439: 32,2423           00006                           EXTEND
003440: 32,2424           30025                           DCA      TIME2                                 #  SAVE TIME
003441: 32,2425           52155                           DXCH     MPAC                                  #  SAVE TIME OF CDY READINGS IN MPAC
003442: 32,2426           00006                           EXTEND
003443: 32,2427           30036                           DCA      CDUT                                  #  SAVE TRUNION AND SHAFT ANGLES FOR RRNB
003444: 32,2430           53107                           DXCH     TANG


003446: 32,2431           00003                           RELINT
003447: 32,2432           04616                           TC       BANKCALL
003448: 32,2433           53114                           CADR     RRRANGE                               #  READ RR RANGE (ONE SAMPLE)
003449: 32,2434           04616                           TC       BANKCALL
003450: 32,2435           17705                           CADR     RADSTALL                              #  WAIT FOR READ COMPLETE
003451: 32,2436           02537                           TC       CHEXERR                               #  CHECK FOR ERRORS DURING READ
003452: 32,2437           00004                           INHINT                                         #  COPY CYCLE FOR MARK DATA ON DOWNLINK
003453: 32,2440           00006                           EXTEND
003454: 32,2441           31331                           DCA      DNRRANGE                              #  RANGE, RANGE RATE (RAW DATA)
003455: 32,2442           53761                           DXCH     RANGRDOT
003456: 32,2443           52162                           DXCH     MPAC       +5
003457: 32,2444           53755                           DXCH     MKTIME                                #  MARK TIME
003458: 32,2445           52160                           DXCH     MPAC       +3
003459: 32,2446           53460                           DXCH     AIG                                   #  CDUY, CDUZ
003460: 32,2447           00006                           EXTEND
003461: 32,2450           31107                           DCA      TANG                                  #  PRESERVE TANG
003462: 32,2451           53753                           DXCH     TANGNB                                #  TRUNNION AND SHAFT ANGLES
003463: 32,2452           30156                           CA       MPAC       +2
003464: 32,2453           55461                           TS       AOG                                   #  CDUX
003465: 32,2454           06042                           TC       INTPRET
003466: 32,2455           14025                           STODL    20D                                   #  SAVE TIME OF CDU READINGS IN 20D
003467: 32,2456           03747                                    RDOTMSAV                              #  CONVERT RDOT UNITS AND SCALING
003468: 32,2457           57261                           SL       DMPR                                  #  START WITH READING SCALED B-28, -.6278
003469: 32,2460           20217                                    14D                                   #  FT./SECOND PER BIT
003470: 32,2461           24002                                    RDOTCONV                              #  END WITH METERS/CENTISECOND, B-7
003471: 32,2462           03751                           STORE    RDOTM
003472: 32,2463           47135                           SLOAD    RTB
003473: 32,2464           01107                                    TANG                                  #  GET TRUNION ANGLE
003474: 32,2465           21577                                    CDULOGIC                              #  CONVERT TO DP ONES COMP. IN REVOLUTIONS
003475: 32,2466           03734                           STORE    RRTRUN                                #  AND SAVE FOR TMI ROUTINE (LSR22.3)
003476: 32,2467           47135                           SLOAD    RTB
003477: 32,2470           01110                                    TANG       +1                         #  DITTO FOR SHAFT ANGLE
003478: 32,2471           21577                                    CDULOGIC
003479: 32,2472           17736                           STODL    RRSHAFT
003480: 32,2473           01101                                    SAMPLSUM
003481: 32,2474           66405                           DMP      SL2R                                  #  CONVERT UNITS AND SCALING DP RANGE
003482: 32,2475           24004                                    RANGCONV                              #  PER BIT, END WITH METERS, SCALED -29
003483: 32,2476           37757                           STCALL   RM
003484: 32,2477           46041                                    RRNB                                  #  COMPUTE RADAR LOS USING RRNB
003485: 32,2500           17741                           STODL    RRBORSIT                              #  AND SAVE
003486: 32,2501           00025                                    20D
003487: 32,2502           34041                           STCALL   TDEC1                                 #  GET STATE VECTOR LOS AT TIME OF CDU READ
003488: 32,2503           51256                                    LPS20.1
003489: 32,2504           77776                           EXIT
003490: 32,2505           31457                           CA       AIG                                   #  STORE IMU CDU ANGLES AT MARKTIME
003491: 32,2506           54765                           TS       CDUSPOT                               #  IN CDUSPOT FOR TRG*SMNB
003492: 32,2507           31460                           CA       AMG
003493: 32,2510           54767                           TS       CDUSPOT    +2
003494: 32,2511           31461                           CA       AOG
003495: 32,2512           54771                           TS       CDUSPOT    +4


003497: 32,2513           06042                           TC       INTPRET
003498: 32,2514           45175                           VLOAD    CALL                                  #  LOAD VECTOR AND CALL TRANSFORMATION
003499: 32,2515           01101                                    RRTARGET
003500: 32,2516           47653                                    TRG*SMNB                              #  ROTATE LOS AT MARKTIME FROM SM TO NB.
003501: 32,2517           77641                           DOT                                            #  DOT WITH RADAR LOS TO GET ANGLE
003502: 32,2520           03741                                    RRBORSIT
003503: 32,2521           65552                           SL1      ACOS                                  #  BETWEEN THEM
003504: 32,2522           01045                           STORE    DSPTEM1                               #  STORE FOR POSSIBLE DISPLAY
003505: 32,2523           50025                           DSU      BMN                                   #  IS IT LESS THAN 3 DEGREES
003506: 32,2524           24547                                    THREEDEG
003507: 32,2525           64532                                    NORMEXIT                              #  YES - NORMAL EXIT
003508:
003509: 32,2526           77776                           EXIT                                           #  ERROR EXIT 2
003510: 32,2527           34752                           CAF      BIT2                                  #  SET ERROR CODE
003511: 32,2530           54154                           TS       MPAC
003512: 32,2531           12535                           TCF      OUT22.1
003513:
003514: 32,2532           77776        NORMEXIT           EXIT                                           #  NORMAL EXIT - SET MPAC EQUAL ZERO
003515: 32,2533           34755                           CAF      ZERO
003516: 32,2534           54154                           TS       MPAC
003517: 32,2535           31737        OUT22.1            CAE      LRS22.1X                              #  EXIT FROM LRS22.1
003518: 32,2536           04640                           TC       BANKJUMP
003519: 32,2537           30101        CHEXERR            CAE      FLAGWRD5
003520: 32,2540           74742                           MASK     RNGSCBIT
003521: 32,2541           10000                           CCS      A                                     #  CHECK IF RANGE SCALE CHANGED
003522: 32,2542           12404                           TCF      READRDOT                              #  YES - TAKE ANOTHER READING
003523:
003524: 32,2543           34753        EREXIT1            CA       BIT1                                  #  SET ERROR CODE
003525: 32,2544           54154                           TS       MPAC
003526: 32,2545           02535                           TC       OUT22.1
003527: 32,2546           00210 21042  THREEDEG           2DEC     .008333333                            #  THREE DEGREES, SCALED REVS, B0
003528:
003529: 32,2550     1100               RRLOSVEC           EQUALS   RRTARGET
003530:


003532:                                                                                                  #  PROGRAM NAME - LRS22.2 (DATA READ SUBROUTINE 2)
003533:                                                                                                  #  MOD. NO.: 1           BY: P VOLANTE  SDC              DATE   4-11-67
003534:
003535:                                                                                                  #  FUNCTIONAL DESCRIPTION-
003536:                                                                                                  #        2)  CHECKS IF THE RR LOS (I.E. THE RADAR BORESIGHT VECTOR) IS WITHIN 30 DEGREES OF THE LM +Z AXIS
003537:
003538:                                                                                                  #  CALLING SEQUENCE -  BANKCALL FOR LRS22.2
003539:
003540:                                                                                                  #  SUBROUTINES CALLED:  G+N, AUTO   SETMAXDB
003541:
003542:                                                                                                  #  NORMAL EXIT - RETURN TO CALLER WITH MPAC SET TO +0 (VIA SWRETURN)
003543:
003544:                                                                                                  #  ERROR EXIT -  RETURN TO CALLER WITH MPAC SET TO 00001 - RADAR LOS NOT WITHIN 30 DEGREES OF LM +Z AXIS
003545:
003546:                                                                                                  #  ALARMS - NONE                                                 IN THE AUTO MODE
003547:
003548:                                                                                                  #  ERASABLE INITIALIZATION REQUIRED -
003549:                                                                                                  #        RRLOSVEC - THE RR LINE-OF-SIGHT VECTOR - A HALF UNIT VECTOR COMPUTED BY LRS22.1
003550:                                                                                                  #        RM - RR RANGE, METERS B-29, FROM LRS22.1
003551:                                                                                                  #        BIT 14 CHANNEL 31 - INDICATES AUTOPILOT IS IN AUTO MODE
003552:
003553:                                                                                                  #  DEBRIS - A,L,Q MPAC - PUSHLIST AND PUSHLOC ARE NOT CHANGED BY THIS ROUTINE
003554:
003555: 24,2000                                           SETLOC   P20S
003556: 24,2000                                           BANK
003557: 24,3334           04645        LRS22.2            TC       MAKECADR
003558: 24,3335           55737                           TS       LRS22.1X
003559: 24,3336           06042                           TC       INTPRET
003560:                                                                                                  #  CHECK IF RR LOS IS WITHIN 30 DEG OF
003561: 24,3337           65545        30DEGCHK           DLOAD    ACOS                                  #  THE SPACECRAFT +Z AXIS
003562: 24,3340           03745                                    RRBORSIT   +4                         #  BY TAKING ARCCOS OF Z-COMP. OF THE RR
003563:                                                                                                  #  LOS VECTOR, A HALF UNIT VECTOR
003564:                                                                                                  #  IN NAV BASE AXES)
003565: 24,3341           50025                           DSU      BMN
003566: 24,3342           11356                                    30DEG
003567: 24,3343           51350                                    OKEXIT                                #  NORMAL EXIT - WITHIN 30 DEG.
003568: 24,3344           77776                           EXIT                                           #  ERROR EXIT - NOT WITHIN 30 DEG.
003569: 24,3345           34753                           CAF      BIT1                                  #  SET ERROR CODE IN MPAC
003570: 24,3346           54154                           TS       MPAC
003571: 24,3347           13353                           TCF      OUT22.2
003572: 24,3350           77776        OKEXIT             EXIT                                           #  NORMAL EXIT - SET MPAC = ZERO
003573:


003575: 24,3351           34755                           CAF      ZERO
003576: 24,3352           54154                           TS       MPAC
003577: 24,3353           31737        OUT22.2            CAE      LRS22.1X
003578: 24,3354           04640                           TC       BANKJUMP
003579:
003580: 24,3355           02525 12525  30DEG              2DEC     .083333333                            #  THIRTY DEGREES, SCALED REVS, B0
003581:


003583:                                                                                                  #  PROGRAM NAME - LSR22.3                                DATE - 29 MAY 1967
003584:                                                                                                  #  MOD. NO 3                                             LOG SECTION - P20-25
003585:                                                                                                  #  MOD. BY - DANFORTH                                    ASSEMBLY LEMP20S REV 10
003586:
003587:                                                                                                  #  FUNCTIONAL DESCRIPTION
003588:                                                                                                  #        THIS ROUTINE COMPUTES THE B-VECTORS AND DELTA Q FOR EACH OF THE QUANTITIES MEASURED BY THE RENDEZVOUS
003589:                                                                                                  #        RADAR.  (RANGE, RANGE RATE, SHAFT AND TRUNNION ANGLES).  THE ROUTINE CALLS THE INCORP1 AND INCORP2 ROUTINES
003590:                                                                                                  #        WHICH COMPUTE THE DEVIATIONS AND CORRECT THE STATE VECTOR.
003591:
003592:                                                                                                  #  CALLING SEQUENCE
003593:                                                                                                  #        THIS ROUTINE IS PART OF P20 RENDEZVOUS NAVIGATION FOR THE LM COMPUTER ONLY.  THE ROUTINE IS ENTERED FROM
003594:                                                                                                  #        R22 LEM ONLY AND RETURNS DIRECTLY TO R22LEM FOLLOWING SUCCESSFUL INCORPORATION OF MEASURED DATA.  IF THE
003595:                                                                                                  #        COMPUTED STATE VECTOR DEVIATIONS EXCEED THE MAXIMUM PERMITTED.  THE ROUTINE RETURNS TO R22LEM TO DISPLAY
003596:                                                                                                  #        THE DEVIATIONS.  IF THE ASTRONAUT ACCEPTS THE DATA R22LEM RETURNS TO LSR22.3 TO INCORPORATE THE
003597:                                                                                                  #        DEVIATIONS INTO THE STATE VECTOR.  IF THE ASTRONAUT REJECTS THE DEVIATIONS, NO MORE MEASUREMENTS ARE
003598:                                                                                                  #        PROCESSED FOR THIS MARK, I.E.,  R22LEM GETS THE NEXT MARK.
003599:
003600:                                                                                                  #  SUBROUTINES CALLED
003601:                                                                                                  #        WLINIT          LGCUPDTE        INTEGRV         INCORP1         ARCTAN
003602:                                                                                                  #        GETULC          RARARANG        INCORP2         NBSM            INTSTALL
003603:
003604:                                                                                                  #  OUTPUT
003605:                                                                                                  #        CORRECTED LM OR CSM STATE VECTOR (PERMANENT)
003606:                                                                                                  #        NUMBER OF MARKS INCORPORATED IN MARKCTR
003607:                                                                                                  #        MAGNITUDE OF POSITION DEVIATION (FOR DISPLAY) IN R22DISP METERS B-29
003608:                                                                                                  #        MAGNITUDE OF VELOCITY DEVIATION (FOR DISPLAY) IN R22DISP +2 M/CSEC B-7
003609:                                                                                                  #        UPDATED W-MATRIX
003610:
003611:                                                                                                  #  ERASABLE INITIALIZATION REQUIRED
003612:                                                                                                  #        LM AND CSM STATE VECTORS
003613:                                                                                                  #        W-MATRIX
003614:                                                                                                  #        MARK TIME IN MKTIME
003615:                                                                                                  #        RADAR RANGE IN RM METERS B-29
003616:                                                                                                  #                RANGE RATE IN RDOTM METERS/CSES B-7
003617:                                                                                                  #                SHAFT ANGLE IN RRSHAFT REVS. B0
003618:                                                                                                  #                TRUNNION ANGLE IN RRTRUN REVS. B0
003619:                                                                                                  #        GIMBAL ANGLES   INNER IN AIG
003620:                                                                                                  #                        MIDDLE IN AMG
003621:                                                                                                  #                        OUTER IN ACG
003622:                                                                                                  #        REFSMMAT
003623:                                                                                                  #        RENDWFLG
003624:                                                                                                  #        NOANGFLG
003625:                                                                                                  #        VEHUPFLG
003626:
003627:                                                                                                  #  DEBRIS
003628:                                                                                                  #        PUSHLIST -- ALL
003629:                                                                                                  #        MX, MY, MZ (VECTORS)


003631:                                                                                                  #        ULC, RXZ, SINTHETA, LGRET, RDRET, BVECTOR, W.IND, X78T
003632:
003633: 13,2207                                           BANK     13
003634: 26,2000                                           SETLOC   P20S3
003635: 26,2000                                           BANK
003636:
003637: 26,2416  E7,1456                                  EBANK=   LOSCOUNT
003638: 26,2416                                           COUNT*   $$/LSR22
003639: 26,2416           77624        LSR22.3            CALL
003640: 26,2417           11210                                    GRP2PC
003641: 26,2420           43014                           BON      SET
003642: 26,2421           04307                                    SURFFLAG                              #  ARE WE ON LUNAR SURFACE
003643: 26,2422           55200                                    LSR22.4                               #  YES
003644: 26,2423           02466                                    DMENFLG
003645: 26,2424           45014                           BOFF     CALL
003646: 26,2425           00747                                    VEHUPFLG
003647: 26,2426           54460                                    DOLEM
003648: 26,2427           27410                                    INTSTALL
003649: 26,2430           45014                           CLEAR    CALL                                  #  LM PRECISION INTEGRATION
003650: 26,2431           01674                                    VINTFLAG
003651: 26,2432           26643                                    SETIFLGS
003652: 26,2433           77624                           CALL
003653: 26,2434           55242                                    INTGRCAL
003654: 26,2435           77624                           CALL
003655: 26,2436           11210                                    GRP2PC
003656: 26,2437           77624                           CALL
003657: 26,2440           27410                                    INTSTALL
003658: 26,2441           43014                           CLEAR    BOFF
003659: 26,2442           01676                                    DIM0FLAG
003660: 26,2443           02756                                    RENDWFLG
003661: 26,2444           54450                                    NOTWCSM
003662: 26,2445           43014                           SET      SET                                   #  CSM WITH W-MATRIX INTEGRATION
003663: 26,2446           01476                                    DIM0FLAG
003664: 26,2447           01475                                    D6OR9FLG
003665: 26,2450           43014        NOTWCSM            SET      CLEAR
003666: 26,2451           01474                                    VINTFLAG
003667: 26,2452           01673                                    INTYPFLG
003668: 26,2453           45014                           SET      CALL
003669: 26,2454           01472                                    STATEFLG
003670: 26,2455           55242                                    INTGRCAL
003671: 26,2456           77650                           GOTO
003672: 26,2457           54510                                    MARKTEST
003673: 26,2460           77624        DOLEM              CALL
003674: 26,2461           27410                                    INTSTALL
003675: 26,2462           45014                           SET      CALL
003676: 26,2463           01474                                    VINTFLAG
003677: 26,2464           26643                                    SETIFLGS
003678: 26,2465           77624                           CALL
003679: 26,2466           55242                                    INTGRCAL


003681: 26,2467           77624                           CALL
003682: 26,2470           11210                                    GRP2PC
003683: 26,2471           77624                           CALL
003684: 26,2472           27410                                    INTSTALL
003685: 26,2473           43014                           CLEAR    BOFF
003686: 26,2474           01676                                    DIM0FLAG
003687: 26,2475           02756                                    RENDWFLG
003688: 26,2476           54502                                    NOTWLEM
003689: 26,2477           43014                           SET      SET                                   #  LM WITH W-MATRIX INTEGRATION
003690: 26,2500           01476                                    DIM0FLAG
003691: 26,2501           01475                                    D6OR9FLG
003692: 26,2502           43014        NOTWLEM            CLEAR    CLEAR
003693: 26,2503           01673                                    INTYPFLG
003694: 26,2504           01674                                    VINTFLAG
003695: 26,2505           45014                           SET      CALL
003696: 26,2506           01472                                    STATEFLG
003697: 26,2507           55242                                    INTGRCAL
003698: 26,2510           45014        MARKTEST           BON      CALL                                  #  HAS W-MATRIX BEEN INVALIDATED
003699: 26,2511           02716                                    RENDWFLG                              #  HAS W-MATRIX BEEN INVALIDATED
003700: 26,2512           54514                                    RANGEBQ
003701: 26,2513           55251                                    WLINIT                                #  YES - REINITIALIZE
003702: 26,2514           77414        RANGEBQ            BON      EXIT                                  #  DON'T CALL R65 IF ON SURFACE
003703: 26,2515           04307                                    SURFFLAG
003704: 26,2516           54524                                    RANGEBQ1
003705: 26,2517           34755                           CA       ZERO
003706: 26,2520           55745                           TS       R65CNTR
003707: 26,2521           04616                           TC       BANKCALL
003708: 26,2522           46123                           CADR     R65LEM
003709: 26,2523           06042                           TC       INTPRET
003710: 26,2524           43174        RANGEBQ1           AXT,2    BON                                   #  CLEAR X2
003711: 26,2525           00000                                    0
003712: 26,2526           04304                                    LMOONFLG                              #  IS MOON SPHERE OF INFLUENCE
003713: 26,2527           54532                                    SETX2                                 #  YES.  STORE ZERO IN SCALSHFT REGISTER
003714: 26,2530           77714                           INCR,2
003715: 26,2531           00002                                    2
003716: 26,2532           45134        SETX2              SXA,2    CALL
003717: 26,2533           03720                                    SCALSHFT                              #  0 - MOON.  2 - EARTH
003718: 26,2534           11210                                    GRP2PC
003719: 26,2535           66170                           AXT,1    SXA,1                                 #  STORE RANGE CODE (1) FOR R3 IN NOUN 49
003720: 26,2536           00001                                    1
003721: 26,2537           01356                                    WHCHREAD
003722: 26,2540           54335                           SLOAD    SR                                    #  GET SINGLE PRECISION RVARMIN (B-12)
003723: 26,2541           01775                                    RVARMIN                               #  SHIFT TO TRIPLE PRECISION (B-40)
003724: 26,2542           20635                                    28D
003725: 26,2543           77634                           RTB
003726: 26,2544           21634                                    TPMODE                                #  AND SAVE IN 20D
003727: 26,2545           00025                           STORE    20D
003728: 26,2546           77624                           CALL                                           #  BEGIN COMPUTING THE B-VECTORS, DELTAQ
003729: 26,2547           55333                                    GETULC                                #  B-VECTORS FOR RANGE
003730: 26,2550           57414                           BON      VCOMP                                 #  B0, COMP. IF LM BEING CORRECTED


003732: 26,2551           00707                                    VEHUPFLG
003733: 26,2552           54553                                    +1
003734: 26,2553           27525                           STOVL    BVECTOR
003735: 26,2554           06524                                    ZEROVECS
003736: 26,2555           03533                           STORE    BVECTOR    +6                         #  B1
003737: 26,2556           17541                           STODL    BVECTOR    +12D                       #  B2
003738: 26,2557           00045                                    36D
003739: 26,2560           44257                           SRR*     BDSU
003740: 26,2561           56174                                    2,2                                   #  SHIFT FROM EARTH/MOON SPHERE TO B-29
003741: 26,2562           03757                                    RM                                    #  RM - (MAGNITUDE RCSM-RLM)
003742: 26,2563           77657                           SLR*
003743: 26,2564           56574                                    2,2                                   #  SHIFT TO EARTH/MOON SPHERE
003744: 26,2565           17547                           STODL    DELTAQ                                #  EARTH B-29.  MOON B-27
003745: 26,2566           00045                                    36D                                   #  RLC B-29/B-27
003746: 26,2567           63501                           NORM     DSQ                                   #  NORMALIZE AND SQUARE
003747: 26,2570           00047                                    X1
003748: 26,2571           53605                           DMP      SR*
003749: 26,2572           01771                                    RANGEVAR                              #  MULTIPLY BY RANGEVAR (B12) THEN
003750: 26,2573           20577                                    0          -2,1                       #  UNNORMALIZE
003751: 26,2574           53657                           SR*      SR*
003752: 26,2575           20601                                    0,1
003753: 26,2576           57176                                    0,2
003754: 26,2577           47057                           SR*      RTB
003755: 26,2600           57176                                    0,2
003756: 26,2601           21634                                    TPMODE
003757: 26,2602           02707                           STORE    VARIANCE                              #  B-40
003758: 26,2603           76276                           DCOMP    TAD
003759: 26,2604           00025                                    20D                                   #  B-40
003760: 26,2605           72240                           BMN      TLOAD
003761: 26,2606           54611                                    QOK
003762: 26,2607           00025                                    20D                                   #  B-40
003763: 26,2610           02707                           STORE    VARIANCE
003764: 26,2611           77624        QOK                CALL
003765: 26,2612           55401                                    LGCUPDTE
003766:
003767: 26,2613           45131                           SSP      CALL
003768: 26,2614           01357                                    WHCHREAD
003769: 26,2615           00002                           DEC      2          B-14                       #  STORE R-RATE CODE (2) FOR R3 IN NOUN 49
003770: 26,2616           11210                                    GRP2PC
003771: 26,2617           77624                           CALL                                           #  B-VECTOR, DELTAQ FOR RANGE RATE
003772: 26,2620           55333                                    GETULC
003773: 26,2621           53725                           PDDL     SR*                                   #  GET RLC SCALED B-29/B-27
003774: 26,2622           00045                                    36D                                   #  AND SHIFT TO B-23
003775: 26,2623           57202                                    0          -4,2
003776: 26,2624           24045                           STOVL    36D                                   #  THEN STORE BACK IN 36D
003777: 26,2625           57414                           BON      VCOMP                                 #  B1, COMP. IF LM BEING CORRECTED
003778: 26,2626           00707                                    VEHUPFLG
003779: 26,2627           54630                                    +1
003780: 26,2630           77761                           VXSC
003781: 26,2631           00045                                    36D                                   #  B1 = RLC (B-24/B-22)


003783: 26,2632           27533                           STOVL    BVECTOR    +6
003784: 26,2633           01653                                    NUVLEM
003785: 26,2634           53257                           VSR*     VAD
003786: 26,2635           57170                                    6,2                                   #  SHIFT FOR EARTH/MOON SPHERE
003787: 26,2636           01667                                    VCVLEM                                #  EARTH B-7. MOON B-5
003788: 26,2637           53715                           PDVL     VSR*                                  #  VL TO PD6
003789: 26,2640           01601                                    NUVCSM
003790: 26,2641           57170                                    6,2                                   #  SHIFT FOR EARTH/MOON SPHERE
003791: 26,2642           52255                           VAD      VSU
003792: 26,2643           01615                                    VCVCSM
003793: 26,2644           50315                           PDVL     DOT                                   #  VC - VL = VLC TO PD6
003794: 26,2645           00001                                    0
003795: 26,2646           00007                                    6
003796: 26,2647           53606                           PUSH     SRR*                                  #  RDOT B-8/B-6 TO PD12
003797: 26,2650           56174                                    2,2                                   #  SHIFT FROM EARTH/MOON SPHERE TO B-8
003798: 26,2651           57316                           DSQ      DMPR                                  #  RDOT**2 B-16 X RATEVAR B12
003799: 26,2652           01773                                    RATEVAR
003800: 26,2653           02707                           STORE    VARIANCE
003801: 26,2654           54335                           SLOAD    SR
003802: 26,2655           01776                                    VVARMIN                               #  GET SINGLE PRECISION VVARMIN (B+12)
003803: 26,2656           20621                                    16D                                   #  SHIFT TO DP (B-4)
003804: 26,2657           00031                           STORE    24D                                   #  AND SAVE IN 24D
003805: 26,2660           50025                           DSU      BMN                                   #  IS MIN. VARIANCE > COMPUTED VARIANCE
003806: 26,2661           02707                                    VARIANCE
003807: 26,2662           54666                                    VOK                                   #  BRANCH - NO
003808: 26,2663           77745                           DLOAD                                          #  YES - USE MINIMUM VARIANCE
003809: 26,2664           00031                                    24D
003810: 26,2665           02707                           STORE    VARIANCE
003811: 26,2666           60545        VOK                DLOAD    SR2                                   #  RDOT (PD12) FROM B-8/B-6
003812: 26,2667           53725                           PDDL     SLR*                                  #  TO B-10/B-8
003813: 26,2670           03751                                    RDOTM                                 #  SHIFT TO EARTH/MOON SPHERE
003814: 26,2671           56577                                    0          -1,2                       #  B-7 TO B-10/B-8
003815: 26,2672           77625                           DSU
003816: 26,2673           77675                           DMPR
003817: 26,2674           00045                                    36D
003818: 26,2675           27547                           STOVL    DELTAQ                                #  B-33
003819: 26,2676           00001                                    0                                     #  NOW GET B0
003820: 26,2677           47235                           VXV      VXV                                   #  (ULC X VLC) X ULC
003821: 26,2700           57414                           BON      VCOMP                                 #  B0, COMP. IF LM BEING CORRECTED
003822: 26,2701           00707                                    VEHUPFLG
003823: 26,2702           54703                                    +1
003824: 26,2703           77657                           VSR*
003825: 26,2704           57200                                    0          -2,2                       #  SCALED B-5
003826: 26,2705           27525                           STOVL    BVECTOR
003827: 26,2706           06524                                    ZEROVECS
003828: 26,2707           00025                           STORE    20D                                   #  ZERO OUT 20 TO 25 IN PUSHLIST
003829: 26,2710           27541                           STOVL    BVECTOR    +12D
003830: 26,2711           03525                                    BVECTOR
003831: 26,2712           60246                           ABVAL    NORM                                  #  LOAD B0, GET MAGNITUDE AND NORMALIZE
003832: 26,2713           00025                                    20D                                   #  SHIFT COUNT IN 20D


003834: 26,2714           51575                           VLOAD    ABVAL
003835: 26,2715           03533                                    BVECTOR    +6D                        #  LOAD B1, GET MAGNITUDE AND NORMALIZE
003836: 26,2716           71301                           NORM     DLOAD
003837: 26,2717           00027                                    22D                                   #  SHIFT COUNT IN 22D
003838: 26,2720           00027                                    22D                                   #  FIND WHICH SHIFT IS SMALLER
003839: 26,2721           50025                           DSU      BMN                                   #  BRANCH - B0 HAS SMALLER SHIFT COUNT
003840: 26,2722           00025                                    20D
003841: 26,2723           54727                                    VOK1
003842: 26,2724           52150                           LXA,1    GOTO
003843: 26,2725           00026                                    22D                                   #  LOAD X2 WITH THE SMALLER SHIFT COUNT
003844: 26,2726           54731                                    VOK2
003845: 26,2727           77750        VOK1               LXA,1
003846: 26,2730           00024                                    20D
003847: 26,2731           53775        VOK2               VLOAD    VSL*                                  #  THEN ADJUST B0, B1, DELTAQ AND VARIANCE
003848: 26,2732           03525                                    BVECTOR                               #  WITH THI SSHIFT COUNT
003849: 26,2733           20201                                    0,1
003850: 26,2734           27525                           STOVL    BVECTOR
003851: 26,2735           03533                                    BVECTOR    +6
003852: 26,2736           77657                           VSL*
003853: 26,2737           20201                                    0,1
003854: 26,2740           17533                           STODL    BVECTOR    +6
003855: 26,2741           03547                                    DELTAQ
003856: 26,2742           77657                           SL*
003857: 26,2743           20201                                    0,1
003858: 26,2744           03547                           STORE    DELTAQ
003859: 26,2745           53745                           DLOAD    SL*                                   #  GET RLC AND ADJUST FOR SCALE SHIFT
003860: 26,2746           00045                                    36D
003861: 26,2747           20200                                    0          -1,1
003862: 26,2750           41316                           DSQ      DMP                                   #  MULTIPLY RLC**2 BY VARIANCE
003863: 26,2751           02707                                    VARIANCE
003864: 26,2752           47012                           SL4      RTB                                   #  SHIFT TO CONFORM TO BVECTORS AND DELTAQ
003865: 26,2753           21634                                    TPMODE
003866: 26,2754           36707                           STCALL   VARIANCE                              #  AND STORE TP VARIANCE
003867: 26,2755           55401                                    LGCUPDTE
003868:
003869: 26,2756           77624                           CALL
003870: 26,2757           11210                                    GRP2PC
003871: 26,2760           77414                           BON      EXIT                                  #  ARE ANGLES TO BE DONE
003872: 26,2761           04307                                    SURFFLAG
003873: 26,2762           55176                                    RENDEND                               #  NO
003874: 26,2763  E7,1457                                  EBANK=   AIG
003875: 26,2763           33332        MXMYMZ             CAF      AIGBANK
003876: 26,2764           54006                           TS       BBANK
003877: 26,2765           31457                           CA       AIG                                   #  YES, COMPUTE  MX, MY, MZ
003878: 26,2766           54765                           TS       CDUSPOT
003879: 26,2767           31460                           CA       AMG
003880: 26,2770           54767                           TS       CDUSPOT    +2
003881: 26,2771           31461                           CA       AOG
003882: 26,2772           54771                           TS       CDUSPOT    +4                         #  GIMBL ANGLES NOW IN CDUSPOT FOR TRG*NBSM
003883: 26,2773           06042                           TC       INTPRET


003885: 26,2774           45175                           VLOAD    CALL
003886: 26,2775           06522                                    UNITX
003887: 26,2776           47666                                    TRG*NBSM
003888: 26,2777           76505                           VXM      VSL1
003889: 26,3000           01734                                    REFSMMAT
003890: 26,3001           27677                           STOVL    MX
003891: 26,3002           06520                                    UNITY
003892: 26,3003           77624                           CALL
003893: 26,3004           47675                                    *NBSM*
003894: 26,3005           76505                           VXM      VSL1
003895: 26,3006           01734                                    REFSMMAT
003896: 26,3007           27705                           STOVL    MY
003897: 26,3010           06516                                    UNITZ
003898: 26,3011           77624                           CALL
003899: 26,3012           47675                                    *NBSM*
003900: 26,3013           76505                           VXM      VSL1
003901: 26,3014           01734                                    REFSMMAT
003902: 26,3015           37713        SHAFTBQ            STCALL   MZ
003903: 26,3016           55361                                    RADARANG
003904: 26,3017           77331                           SSP      VLOAD                                 #  STORE SHAFT CODE (3) FOR R3 IN NOUN 49
003905: 26,3020           01357                                    WHCHREAD
003906: 26,3021           00003                           DEC      3          B-14
003907: 26,3022           03724                                    ULC
003908: 26,3023           72441                           DOT      SL1
003909: 26,3024           03677                                    MX
003910: 26,3025           24023                           STOVL    SINTH                                 #  18D
003911: 26,3026           03724                                    ULC
003912: 26,3027           72441                           DOT      SL1
003913: 26,3030           03713                                    MZ
003914: 26,3031           34021                           STCALL   COSTH                                 #  16D
003915: 26,3032           26506                                    ARCTAN
003916: 26,3033           41221                           BDSU     DMP
003917: 26,3034           03736                                    RRSHAFT
003918: 26,3035           15441                                    2PI/8
003919: 26,3036           41472                           SL3R     PUSH
003920: 26,3037           52545                           DLOAD    SL3
003921: 26,3040           01701                                    X789
003922: 26,3041           44257                           SRR*     BDSU                                  #  SHIFT FROM -5/-3 TO B0
003923: 26,3042           56176                                    0,2
003924: 26,3043           53605                           DMP      SRR*
003925: 26,3044           03722                                    RXZ
003926: 26,3045           21601                                    0,1                                   #  SHIFT TO EARTH/MOON SPHERE
003927: 26,3046           27547                           STOVL    DELTAQ                                #  EARTH B-29.  MOON B-27
003928: 26,3047           03724                                    ULC
003929: 26,3050           76435                           VXV      VSL1
003930: 26,3051           03705                                    MY
003931: 26,3052           77656                           UNIT
003932: 26,3053           57414                           BOFF     VCOMP                                 #  B0, COMP. IF CSM BEING CORRECTED
003933: 26,3054           00747                                    VEHUPFLG
003934: 26,3055           55056                                    +1


003936: 26,3056           27525                           STOVL    BVECTOR
003937: 26,3057           06524                                    ZEROVECS
003938: 26,3060           03533                           STORE    BVECTOR    +6
003939: 26,3061           17541                           STODL    BVECTOR    +12D
003940: 26,3062           03722                                    RXZ
003941: 26,3063           53657                           SR*      SRR*                                  #  SHIFT FROM EARTH/MOON SPHERE TO B-25
003942: 26,3064           20577                                    0          -2,1
003943: 26,3065           56176                                    0,2
003944: 26,3066           03541                           STORE    BVECTOR    +12D
003945: 26,3067           77735                           SLOAD
003946: 26,3070           02011                                    SHAFTVAR
003947: 26,3071           41215                           DAD      DMP
003948: 26,3072           15436                                    IMUVAR                                #  RAD**2 B12
003949: 26,3073           03722                                    RXZ
003950: 26,3074           41257                           SRR*     DMP
003951: 26,3075           21601                                    0,1                                   #  SHIFT TO EARTH/MOON SPHERE
003952: 26,3076           03722                                    RXZ
003953: 26,3077           53657                           SR*      SR*
003954: 26,3100           20577                                    0          -2,1
003955: 26,3101           57176                                    0,2
003956: 26,3102           47057                           SR*      RTB
003957: 26,3103           57176                                    0,2
003958: 26,3104           21634                                    TPMODE                                #  STORE VARIANCE TRIPLE PRECISION
003959: 26,3105           36707                           STCALL   VARIANCE                              #  B-40
003960: 26,3106           55401                                    LGCUPDTE
003961:
003962: 26,3107           77624                           CALL
003963: 26,3110           11210                                    GRP2PC
003964: 26,3111           77624        TRUNBQ             CALL
003965: 26,3112           55361                                    RADARANG
003966: 26,3113           77331                           SSP      VLOAD                                 #  STORE TRUNNION CODE (4) FOR R3 IN N49
003967: 26,3114           01357                                    WHCHREAD
003968: 26,3115           00004                           DEC      4          B-14
003969: 26,3116           03724                                    ULC
003970: 26,3117           76435                           VXV      VSL1
003971: 26,3120           03705                                    MY
003972: 26,3121           76435                           VXV      VSL1                                  #  (ULC X MY) X ULC
003973: 26,3122           03724                                    ULC
003974: 26,3123           57414                           BOFF     VCOMP                                 #  B0, COMP. IF CSM BEING CORRECTED
003975: 26,3124           00747                                    VEHUPFLG
003976: 26,3125           55126                                    +1
003977: 26,3126           27525                           STOVL    BVECTOR
003978: 26,3127           06524                                    ZEROVECS
003979: 26,3130           03533                           STORE    BVECTOR    +6
003980: 26,3131           17541                           STODL    BVECTOR    +12D
003981: 26,3132           03722                                    RXZ
003982: 26,3133           53657                           SR*      SRR*                                  #  SHIFT FROM EARTH/MOON SPHERE TO B-25
003983: 26,3134           20577                                    0          -2,1
003984: 26,3135           56176                                    0,2
003985: 26,3136           03543                           STORE    BVECTOR    +14D


003987: 26,3137           77735                           SLOAD
003988: 26,3140           02012                                    TRUNVAR
003989: 26,3141           41215                           DAD      DMP
003990: 26,3142           15436                                    IMUVAR
003991: 26,3143           03722                                    RXZ
003992: 26,3144           41257                           SRR*     DMP
003993: 26,3145           21601                                    0,1                                   #  SHIFT TO EARTH/MOON SPHERE
003994: 26,3146           03722                                    RXZ
003995: 26,3147           53657                           SR*      SR*
003996: 26,3150           20577                                    0          -2,1
003997: 26,3151           57176                                    0,2
003998: 26,3152           47057                           SR*      RTB
003999: 26,3153           57176                                    0,2
004000: 26,3154           21634                                    TPMODE                                #  STORE VARIANCE TRIPLE PRECISION
004001: 26,3155           16707                           STODL    VARIANCE
004002: 26,3156           03732                                    SINTHETA
004003: 26,3157           44336                           ASIN     BDSU                                  #  SIN THETA IN PD6
004004: 26,3160           03734                                    RRTRUN
004005: 26,3161           56405                           DMP      SL3R
004006: 26,3162           15441                                    2PI/8
004007: 26,3163           52525                           PDDL     SL3
004008: 26,3164           01703                                    X789       +2
004009: 26,3165           44257                           SRR*     BDSU                                  #  SHIFT FROM -5/-3 TO B0
004010: 26,3166           56176                                    0,2
004011: 26,3167           53605                           DMP      SRR*
004012: 26,3170           03722                                    RXZ
004013: 26,3171           21601                                    0,1
004014: 26,3172           37547                           STCALL   DELTAQ                                #  EARTH B-29.  MOON B-27
004015: 26,3173           55401                                    LGCUPDTE
004016: 26,3174           77624                           CALL
004017: 26,3175           11210                                    GRP2PC
004018: 26,3176           77650        RENDEND            GOTO
004019: 26,3177           50562                                    R22LEM93
004020:
004021:                                                                                                  #  FUNCTIONAL DESCRIPTION
004022:                                                                                                  #        LSR22.4 IS THE ENTRY TO PERFORM LUNAR SURFACE NAVIGATION FOR THE LM
004023:                                                                                                  #        COMPUTER ONLY.  THIS ROUTINE COMPUTES THE B-VECTORS AND DELTA Q FOR RANGE
004024:                                                                                                  #        AND RANGE RATE MEASURED BY THE RENDEZVOUS RADAR
004025:
004026:                                                                                                  #  SUBROUTINES CALLED
004027:                                                                                                  #        INSTALL         LGCUPDTE        INCORP1         RP-TO-R
004028:                                                                                                  #        INTEGRV         GETULC          INCORP2
004029:
004030:                                                                                                  #  OUTPUT
004031:                                                                                                  #        CORRECTED CSM STATE VECTOR (PERMANENT)
004032:                                                                                                  #        NUMBER OF MARKS INCORPORATED IN MARKCTR
004033:                                                                                                  #        MAGNITUDE OF POSITION DEVIATION (FOR DISPLAY) IN R22 DISP METERS B-29
004034:                                                                                                  #        MAGNITUDE OF VELOCITY DEVIATION (FOR DISPLAY) IN R22DISP +2 M/CSEC B-7
004035:                                                                                                  #        UPDATED W-MATRIX


004037:
004038:                                                                                                  #  ERASABLE INITIALIZATION REQUIRED
004039:                                                                                                  #        LM AND CSM STATE VECTORS
004040:                                                                                                  #        W-MATRIX
004041:                                                                                                  #        MARK TIME IN MKTIME
004042:                                                                                                  #        RADAR RANGE IN RM METERS B-29
004043:                                                                                                  #        RANGE RATE IN RDOTM METERS/CSEC B-7
004044:                                                                                                  #        VEHUPFLG
004045:
004046: 26,3200           77624        LSR22.4            CALL
004047: 26,3201           27410                                    INTSTALL
004048: 26,3202           43014                           SET      CLEAR
004049: 26,3203           01472                                    STATEFLG
004050: 26,3204           01674                                    VINTFLAG                              #  CALL TO GET LM POS + VEL IN REF COORD.
004051: 26,3205           77624                           CALL
004052: 26,3206           55242                                    INTGRCAL
004053: 26,3207           77624                           CALL
004054: 26,3210           11210                                    GRP2PC
004055: 26,3211           45014                           CLEAR    CALL
004056: 26,3212           02666                                    DMENFLG                               #  SET MATRIX SIZE TO 6X6 FOR INCORP
004057: 26,3213           27410                                    INTSTALL
004058: 26,3214           46145                           DLOAD    BHIZ                                  #  IS THIS FIRST TIME THROUGH
004059: 26,3215           03463                                    MARKCTR
004060: 26,3216           55231                                    INITWMX6                              #  YES, INITIALIZE 6X6 W-MATRIX
004061: 26,3217           43014                           CLEAR    SET
004062: 26,3220           01675                                    D6OR9FLG
004063: 26,3221           01476                                    DIM0FLAG
004064: 26,3222           43014                           SET      CLEAR
004065: 26,3223           01474                                    VINTFLAG
004066: 26,3224           01673                                    INTYPFLG
004067: 26,3225           77624                           CALL
004068: 26,3226           55242                                    INTGRCAL
004069: 26,3227           77650                           GOTO
004070: 26,3230           54514                                    RANGEBQ
004071:
004072: 26,3231           77624        INITWMX6           CALL
004073: 26,3232           55251                                    WLINIT                                #  INITIALIZE W-MATRIX
004074: 26,3233           45014                           SET      CALL
004075: 26,3234           01474                                    VINTFLAG
004076: 26,3235           26643                                    SETIFLGS
004077: 26,3236           77624                           CALL
004078: 26,3237           55242                                    INTGRCAL
004079: 26,3240           77650                           GOTO
004080: 26,3241           54514                                    RANGEBQ
004081:
004082:                                                                                                  #  THIS ROUTINE CLEARS RFINAL (DP) AND CALLS INTEGRV
004083:
004084: 26,3242           71220        INTGRCAL           STQ      DLOAD
004085: 26,3243           03675                                    IGRET
004086: 26,3244           03755                                    MKTIME


004088: 26,3245           34041                           STCALL   TDEC1
004089: 26,3246           27133                                    INTEGRV
004090: 26,3247           77650                           GOTO
004091: 26,3250           03675                                    IGRET
004092:
004093:                                                                                                  #  THIS ROUTINE INITIALIZES THE W-MATRIX BY ZEROING ALL W THEN SETTING
004094:                                                                                                  #  DIAGONAL ELEMENTS TO INITIAL STORED VALUES.
004095:
004096: 26,3251  E5,1400                                  EBANK=   W
004097: 26,3251           77776        WLINIT             EXIT
004098: 26,3252           33331                           CAF      WBANK
004099: 26,3253           54006                           TS       BBANK
004100: 26,3254           33437                           CAF      WSIZE
004101: 26,3255           55256                           TS       W.IND
004102: 26,3256           34755                           CAF      ZERO
004103:
004104: 26,3257           51256                           INDEX    W.IND
004105: 26,3260           55400                           TS       W
004106: 26,3261           11256                           CCS      W.IND
004107: 26,3262           03255                           TC       -5
004108: 26,3263           33332                           CAF      AIGBANK                               #  RESTORE EBANK 7
004109: 26,3264           54006                           TS       BBANK
004110: 26,3265           06042                           TC       INTPRET
004111: 26,3266           67214                           BON      SLOAD                                 #  IF ON LUNAR SURFACE, INITIALIZE WITH
004112: 26,3267           04307                                    SURFFLAG                              #  WSURFPOS AND WSURFVEL INSTEAD OF
004113: 26,3270           55274                                    WLSRFPOS                              #  WRENDPOS AND WRENDVEL
004114: 26,3271           02001                                    WRENDPOS
004115: 26,3272           77650                           GOTO
004116: 26,3273           55276                                    WPOSTORE
004117: 26,3274           77735        WLSRFPOS           SLOAD
004118: 26,3275           02007                                    WSURFPOS
004119: 26,3276           77661        WPOSTORE           SR                                             #  SHIFT TO B-19 SCALE
004120: 26,3277           20606                                    5
004121: 26,3300           02401                           STORE    W
004122: 26,3301           02411                           STORE    W          +8D
004123: 26,3302           02421                           STORE    W          +16D
004124: 26,3303           67214                           BON      SLOAD
004125: 26,3304           04307                                    SURFFLAG
004126: 26,3305           55311                                    WLSRFVEL
004127: 26,3306           02002                                    WRENDVEL
004128: 26,3307           77650                           GOTO
004129: 26,3310           55313                                    WVELSTOR
004130: 26,3311           77735        WLSRFVEL           SLOAD
004131: 26,3312           02010                                    WSURFVEL
004132: 26,3313           02511        WVELSTOR           STORE    W          +72D
004133: 26,3314           02521                           STORE    W          +80D
004134: 26,3315           02531                           STORE    W          +88D
004135: 26,3316           77735                           SLOAD
004136: 26,3317           02003                                    WSHAFT
004137: 26,3320           02621                           STORE    W          +144D
004138: 26,3321           77735                           SLOAD


004140: 26,3322           02004                                    WTRUN
004141: 26,3323           02631                           STORE    W          +152D
004142: 26,3324           66214                           SET      SSP                                   #  SET RENDWFLG - W-MATRIX VALID
004143: 26,3325           02476                                    RENDWFLG
004144: 26,3326           03463                                    MARKCTR                               #  SET MARK COUNTER EQUAL ZERO
004145: 26,3327           00000                                    0
004146: 26,3330           77616                           RVQ
004147:
004148: 26,3331  E5,1400                                  EBANK=   W
004149: 26,3331           54065        WBANK              BBCON    WLINIT
004150: 26,3332  E7,1457                                  EBANK=   AIG
004151: 26,3332           54067        AIGBANK            BBCON    LSR22.3
004152:
004153:                                                                                                  #  GETULC
004154:
004155:                                                                                                  #  THIS SUBROUTINE COMPUTES THE RELATIVE POSITION VECTOR BETWEEN THE CSM
004156:                                                                                                  #  AND THE LM, LEAVING THE UNIT VECTOR IN THE PUSHLIST AND MPAC AND THE
004157:                                                                                                  #  MAGNITUDE IN 36D.
004158:
004159: 26,3333           77201        GETULC             SETPD    VLOAD
004160: 26,3334           00001                                    0
004161: 26,3335           01645                                    DELTALEM
004162: 26,3336           77754                           LXA,2
004163: 26,3337           03720                                    SCALSHFT                              #  LOAD X2 WITH SCALE SHIFT
004164: 26,3340           53257                           VSR*     VAD
004165: 26,3341           57165                                    9D,2                                  #  SHIFT FOR EARTH/MOON SPHERE
004166: 26,3342           01661                                    RCVLEM
004167: 26,3343           53715                           PDVL     VSR*
004168: 26,3344           01573                                    DELTACSM
004169: 26,3345           57165                                    9D,2                                  #  SHIFT FOR EARTH/MOON SPHERE
004170: 26,3346           52255                           VAD      VSU
004171: 26,3347           01607                                    RCVCSM
004172: 26,3350           41434                           RTB      PUSH                                  #  USE NORMUNIT TO PRESERVE ACCURACY
004173: 26,3351           21725                                    NORMUNX1
004174: 26,3352           17724                           STODL    ULC
004175: 26,3353           00045                                    36D
004176: 26,3354           77657                           SL*                                            #  ADJUST MAGNITUDE FROM NORMUNIT
004177: 26,3355           20201                                    0,1
004178: 26,3356           24045                           STOVL    36D                                   #  ULC IN PD0 AND MPAC,RLC IN 36D
004179: 26,3357           03724                                    ULC
004180: 26,3360           77616                           RVQ
004181:
004182:                                                                                                  #  RADARANG
004183:
004184:                                                                                                  #  THIS SUBROUTINE COMPUTES SINTHETA = -ULC DOT MY
004185:                                                                                                  #  RXZ = (SQRT (1-SINTHETA**2))RLC
004186:                                                                                                  #  OUTPUT
004187:                                                                                                  #        ULC IN ULC, PD0
004188:                                                                                                  #        RLC IN PD36D
004189:                                                                                                  #        SIN THETA IN SINTHETA AND PD6
004190:                                                                                                  #        RXZ NORM IN RXZ (N IN X1)


004192:
004193: 26,3361           45020        RADARANG           STQ      CALL
004194: 26,3362           03675                                    RDRET
004195: 26,3363           55333                                    GETULC
004196: 26,3364           50276                           VCOMP    DOT
004197: 26,3365           03705                                    MY
004198: 26,3366           41572                           SL1R     PUSH                                  #  SIN THETA TO PD6
004199: 26,3367           03732                           STORE    SINTHETA
004200: 26,3370           44316                           DSQ      BDSU
004201: 26,3371           06514                                    DP1/4TH                               #  1-(SIN THETA)**2
004202: 26,3372           41366                           SQRT     DMP
004203: 26,3373           00045                                    36D
004204: 26,3374           60352                           SL1      NORM
004205: 26,3375           00047                                    X1                                    #  SET SHIFT COUNTER IN X1
004206: 26,3376           03722                           STORE    RXZ
004207: 26,3377           77650                           GOTO                                           #  EXIT
004208: 26,3400           03675                                    RDRET
004209: 26,3401           45020        LGCUPDTE           STQ      CALL
004210: 26,3402           03675                                    LGRET
004211: 26,3403           46533                                    INCORP1
004212: 26,3404           51575                           VLOAD    ABVAL
004213: 26,3405           02673                                    DELTAX     +6
004214: 26,3406           53754                           LXA,2    SRR*
004215: 26,3407           03720                                    SCALSHFT                              #  0 - MOON.  2 - EARTH
004216: 26,3410           56174                                    2,2                                   #  SET VEL DISPLAY TO B-7
004217: 26,3411           24317                           STOVL    R22DISP    +2
004218: 26,3412           02665                                    DELTAX
004219: 26,3413           53646                           ABVAL    SRR*
004220: 26,3414           56174                                    2,2                                   #  SET POS DISPLAY TO B-29
004221: 26,3415           00315                           STORE    R22DISP
004222: 26,3416           54335                           SLOAD    SR
004223: 26,3417           02005                                    RMAX
004224: 26,3420           20613                                    10D
004225: 26,3421           50025                           DSU      BMN
004226: 26,3422           00315                                    R22DISP
004227: 26,3423           50566                                    R22LEM96                              #  GO DISPLAY
004228: 26,3424           45335                           SLOAD    DSU
004229: 26,3425           02006                                    VMAX
004230: 26,3426           00317                                    R22DISP    +2                         #  VMAX MINUS VEL. DEVIATION
004231: 26,3427           77640                           BMN
004232: 26,3430           50566                                    R22LEM96                              #  GO DISPLAY
004233: 26,3431           77624        ASTOK              CALL
004234: 26,3432           46745                                    INCORP2
004235: 26,3433           77650                           GOTO
004236: 26,3434           03675                                    LGRET
004237: 26,3435           00103 03370  IMUVAR             2DEC     1          E-6        B12             #  RAD**2
004238:
004239: 26,3437           00241        WSIZE              DEC      161        B-14
004240: 26,3440           31103 36652  2PI/8              2DEC     3.141592653 B-2
004241:
004242: 26,3442  E7,1456                                  EBANK=   LOSCOUNT
004243:


004245:                                                                                                  #  PROGRAM NAME LRS24.1          RR SEARCH ROUTINE
004246:                                                                                                  #  MOD NO  0                     BY P VOLANTE  SDC               DATE 1-15-67
004247:
004248:                                                                                                  #  FUNCTIONAL DESCRIPTION
004249:
004250:                                                                                                  #  DRIVES THE RENDEZVOUS RADAR IN A HEXAGONAL SEARCH PATTERN ABOUT THE LOS TO THE CSM (COMPUTED FROM THE CSM AND LM
004251:                                                                                                  #  STATE VECTORS) CHECKING FOR THE DATA GOOD DISCRETE AND MONITORING THE ANGLE BETWEEN THE RADAR BORESIGHT AND THE
004252:                                                                                                  #  LM +Z AXIS.  IF THIS ANGLE EXCEEDS 30 DEGREES THE PREFERRED TRACKING ATTITUDE ROUTINE IS CALLED TO PERFORM AN
004253:                                                                                                  #  ATTITUDE MANEUVER.
004254:
004255:                                                                                                  #  CALLING SEQUENCE - BANKCALL FOR LRS24.1
004256:
004257:                                                                                                  #  SUBROUTINES CALLED
004258:
004259:                                                                                                  #        LEMCONIC        R61LEM
004260:                                                                                                  #        CSMCONIC        RRDESSM
004261:                                                                                                  #        JOBDELAY        FLAGDOWN
004262:                                                                                                  #        WAITLIST        FLAGUP
004263:                                                                                                  #        RRNB            BANKCALL
004264:
004265:                                                                                                  #  EXIT - TO ENDOFJOB WHEN THE SEARCH FLAG (SRCHOPT) IS NOT SET
004266:
004267:                                                                                                  #  OUTPUT
004268:
004269:                                                                                                  #        DATAGOOD (SP) - FOR DISPLAY IN R1 -     00000 INDICATES NO LOCKON
004270:                                                                                                  #                                                11111 INDICATES LOCKON ACHIEVED
004271:                                                                                                  #        OMEGAD (SP)   - FOR DISPLAY IN R2 -     ANGLE BETWEEN RR BORESIGNT VECTOR AND THE SPACECRAFT +Z AXIS
004272:
004273:                                                                                                  #  ERASABLE INITIALIZATION REQUIRED
004274:
004275:                                                                                                  #        SEARCH FLAG MUST BE SET
004276:                                                                                                  #        LM AND CSM STATE VECTORS AND REFSMMAT MATRIX
004277:
004278:                                                                                                  #  DEBRIS
004279:
004280:                                                                                                  #        RLMSRCH         UXVECT
004281:                                                                                                  #        VXRLM           UYVECT
004282:                                                                                                  #        LOSDESRD        NSRCHPNT
004283:                                                                                                  #        DATAGOOD        OMEGAD
004284:                                                                                                  #        MPAC            PUSHLIST
004285:
004286: 26,3442                                           COUNT*   $$/LRS24
004287: 26,3442           34755        LRS24.1            CAF      ZERO
004288: 26,3443           55736                           TS       NSRCHPNT                              #  SET SEARCH PATTERN POINT COUNTER TO ZERO
004289: 26,3444           34736        CHKSRCH            CAF      BIT14                                 #  ISSUE AUTO TRACK ENABLE TO RADAR
004290: 26,3445           00006                           EXTEND


004292: 26,3446           05012                           WOR      CHAN12
004293: 26,3447           34736                           CAF      SRCHOBIT                              #  CHECK IF SEARCH STILL REQUESTED
004294: 26,3450           70076                           MASK     FLAGWRD2                              #  (SRCHOPT FLAG SET)
004295: 26,3451           00006                           EXTEND
004296: 26,3452           15155                           BZF      ENDOFJOB                              #  NO-TERMINATE JOB
004297:
004298: 26,3453           33713                           CAF      6SECONDS                              #  SCHEDULE TASK TO DRIVE RADAR TO NEXT PT.
004299: 26,3454           00004                           INHINT
004300: 26,3455           05203                           TC       WAITLIST                              #  IN 6 SECONDS
004301: 26,3456  E7,1456                                  EBANK=   LOSCOUNT
004302: 26,3456           03643 54067                     2CADR    CALLDGCH
004303:
004304: 26,3460           00003                           RELINT
004305: 26,3461           40110                           CS       RADMODES                              #  IS REMODE IN PROGRESS
004306: 26,3462           74736                           MASK     REMODBIT
004307: 26,3463           00006                           EXTEND
004308: 26,3464           15155                           BZF      ENDOFJOB                              #  YES - WAIT SIX SECONDS
004309: 26,3465           06042                           TC       INTPRET
004310:
004311: 26,3466           43234                           RTB      DAD                                   #  COMPUTE LOS AT PRESENT TIME + 1.5 SEC.
004312: 26,3467           21574                                    LOADTIME
004313: 26,3470           15715                                    1.5SECS
004314: 26,3471           34041        LRS24.11           STCALL   TDEC1
004315: 26,3472           27077                                    LEMCONIC                              #  EXTRAPOLATE LM STATE VECTOR
004316: 26,3473           77775                           VLOAD
004317: 26,3474           00001                                    RATT
004318: 26,3475           27676                           STOVL    RLMSRCH                               #  SAVE LEM POSITION
004319: 26,3476           00007                                    VATT
004320: 26,3477           17740                           STODL    SAVLEMV                               #  SAVE LEM VELOCITY
004321: 26,3500           00015                                    TAT
004322: 26,3501           34041                           STCALL   TDEC1                                 #  EXTRAPOLATE CSM STATE VECTOR
004323: 26,3502           27065                                    CSMCONIC                              #  EXTRAPOLATE CSM STATE VECTOR
004324: 26,3503           52375                           VLOAD    VSU                                   #  LOS VECTOR = R(CSM) - R(LM)
004325: 26,3504           00001                                    RATT
004326: 26,3505           03676                                    RLMSRCH
004327: 26,3506           77656                           UNIT
004328: 26,3507           27712                           STOVL    LOSDESRD                              #  STORE DESIRED LOS
004329: 26,3510           00007                                    VATT                                  #  COMPUTE UNIT(V(CM) CROSS R(CM))
004330: 26,3511           47256                           UNIT     VXV
004331: 26,3512           00001                                    RATT
004332: 26,3513           77656                           UNIT
004333: 26,3514           03704                           STORE    VXRCM
004334: 26,3515           52375                           VLOAD    VSU
004335: 26,3516           00007                                    VATT
004336: 26,3517           03740                                    SAVLEMV
004337: 26,3520           76521                           MXV      VSL1                                  #  CONVERT FROM REFERENCE TO STABLE MEMBER
004338: 26,3521           01734                                    REFSMMAT
004339: 26,3522           03740                           STORE    SAVLEMV                               #  VLC = V(CSM) - V(LM)
004340: 26,3523           53135                           SLOAD    BZE                                   #  CHECK IF N=0


004342: 26,3524           03737                                    NSRCHPNT
004343: 26,3525           55636                                    DESGLOS                               #  YES - DESIGNATE ALONG LOS
004344: 26,3526           53025                           DSU      BZE                                   #  IS N=1
004345: 26,3527           15711                                    ONEOCT                                #  YES - CALCULATE X AND Y AXES OF
004346: 26,3530           55623                                    CALCXY                                #  SEARCH PATTERN COORDINATE SYSTEM
004347: 26,3531           77775                           VLOAD                                          #  NO - ROTATE X-Y AXES TO NEXT SEARCH POINT
004348: 26,3532           03720                                    UXVECT
004349: 26,3533           24015                           STOVL    UXVECTPR                              #  SAVE ORIGINAL X AND Y VECTORS
004350: 26,3534           03726                                    UYVECT                                #  UXPRIME = ORIGINAL UX
004351: 26,3535           00023                           STORE    UYVECTPR                              #  UYPRIME = ORIGINAL UY
004352: 26,3536           77761                           VXSC
004353: 26,3537           15705                                    SIN60DEG                              #  UX = (COS 60) UXPR + (SIN 60) UYPR
004354: 26,3540           27720                           STOVL    UXVECT
004355: 26,3541           00015                                    UXVECTPR
004356: 26,3542           53361                           VXSC     VAD
004357: 26,3543           06522                                    COS60DEG
004358: 26,3544           03720                                    UXVECT
004359: 26,3545           77656                           UNIT
004360: 26,3546           27720                           STOVL    UXVECT
004361: 26,3547           00015                                    UXVECTPR                              #  UY = (-SIN 60) UXPR + (COS 60) UYPR
004362: 26,3550           77761                           VXSC
004363: 26,3551           15705                                    SIN60DEG
004364: 26,3552           27726                           STOVL    UYVECT
004365: 26,3553           00023                                    UYVECTPR
004366: 26,3554           52361                           VXSC     VSU
004367: 26,3555           06522                                    COS60DEG
004368: 26,3556           03726                                    UYVECT
004369: 26,3557           77656                           UNIT
004370: 26,3560           03726                           STORE    UYVECT
004371: 26,3561           53361        OFFCALC            VXSC     VAD                                   #  OFFSET VECTOR = K(UY)
004372: 26,3562           15707                                    OFFSTFAC                              #  LOS VECTOR + OFFSET VECTOR DEFINES
004373: 26,3563           03712                                    LOSDESRD                              #  DESIRED POINT IN SEARCH PATTERN
004374: 26,3564           64256                           UNIT     MXV
004375: 26,3565           01734                                    REFSMMAT                              #  CONVERT TO STABLE MEMBER COORDINATES
004376: 26,3566           77772                           VSL1
004377: 26,3567           25101        CONTDESG           STOVL    RRTARGET
004378: 26,3570           03740                                    SAVLEMV
004379: 26,3571           01761                           STORE    LOSVEL
004380: 26,3572           77776                           EXIT
004381: 26,3573           00004                           INHINT
004382: 26,3574           06032                           TC       KILLTASK                              #  KILL ANY PRESENTLY WAITLISTED TASK
004383: 26,3575           52613                           CADR     DESLOOP    +2                         #  WHICH WOULD DESIGNATE TO THE LAST
004384:                                                                                                  #  POINT IN THE PATTERN
004385: 26,3576           44735        CONTDES2           CS       CDESBIT
004386: 26,3577           70110                           MASK     RADMODES                              #  SET BIT 15 OF RADMODES TO INDICATE
004387: 26,3600           64735                           AD       CDESBIT                               #  A CONTINUOUS DESIGNATE WANTED.
004388: 26,3601           54110                           TS       RADMODES
004389: 26,3602           06042                           TC       INTPRET
004390:
004391: 26,3603           77624                           CALL


004393: 26,3604           52404                                    RRDESSM                               #  DESIGNATE RADAR TO RRTARGET VECTOR
004394:
004395: 26,3605           77776                           EXIT
004396: 26,3606           03675                           TC       LIMALARM                              #  LOS NOT IN MODE 2 COVERAGE (P22)
004397: 26,3607           03675                           TC       LIMALARM                              #  VEHICLE MANEUVER REQUIRED (P20)
004398:
004399:                                                                                                  #  COMPUTE OMEGA,ANGLE BETWEEN RR LOS AND
004400:                                                                                                  #  SPACECRAFT +Z AXIS
004401: 26,3610           00006        OMEGCALC           EXTEND
004402: 26,3611           30036                           DCA      CDUT
004403: 26,3612           53753                           DXCH     TANGNB
004404: 26,3613           06042                           TC       INTPRET
004405: 26,3614           77624                           CALL
004406: 26,3615           46041                                    RRNB
004407: 26,3616           65545                           DLOAD    ACOS                                  #  OMEGA IS ARCCOSINE OF Z-COMPONENT OF
004408: 26,3617           00045                                    36D                                   #  VECTOR COMPUTED BY RRNB (LEFT AT 32D)
004409: 26,3620           03735                           STORE    OMEGDISP                              #  STORE FOR DISPLAY IN R2
004410: 26,3621           77776                           EXIT
004411: 26,3622           05155                           TC       ENDOFJOB


004413:                                                                                                  #  CALCULATE X AND Y VECTORS FOR SEARCH PATTERN COORDINATE SYSTEM
004414:
004415: 26,3623           47375        CALCXY             VLOAD    VXV
004416: 26,3624           03704                                    VXRCM
004417: 26,3625           03712                                    LOSDESRD
004418: 26,3626           77656                           UNIT
004419: 26,3627           27720                           STOVL    UXVECT                                #  UX = (VLM X RLM) X LOS
004420: 26,3630           03712                                    LOSDESRD
004421: 26,3631           53435                           VXV      UNIT
004422: 26,3632           03720                                    UXVECT
004423: 26,3633           03726                           STORE    UYVECT                                #  UY = LOS X UX
004424: 26,3634           77650                           GOTO
004425: 26,3635           55561                                    OFFCALC
004426:
004427: 26,3636           64375        DESGLOS            VLOAD    MXV                                   #  WHEN N= 0,DESIGNATE ALONG LOS
004428: 26,3637           03712                                    LOSDESRD
004429: 26,3640           01734                                    REFSMMAT                              #  CONVERT LOS FROM REFERENCE TO SM COORDS
004430: 26,3641           52172                           VSL1     GOTO
004431: 26,3642           55567                                    CONTDESG
004432:
004433: 26,3643           30074        CALLDGCH           CAE      FLAGWRD0                              #  IS RENDEZVOUS FLAG SET
004434: 26,3644           74745                           MASK     RNDVZBIT
004435: 26,3645           00006                           EXTEND
004436: 26,3646           15261                           BZF      TASKOVER                              #  NO - EXIT R24
004437: 26,3647           37716                           CAF      PRIO25                                #  YES - SCHEDULE JOB TO DRIVE RADAR TO NEXT
004438: 26,3650           05105                           TC       FINDVAC                               #  POINT IN SEARCH PATTERN
004439: 26,3651  E7,1675                                  EBANK=   RLMSRCH
004440: 26,3651           03654 54067                     2CADR    DATGDCHK
004441:
004442: 26,3653           05261                           TC       TASKOVER
004443:
004444: 26,3654           34750        DATGDCHK           CAF      BIT4
004445: 26,3655           00006                           EXTEND                                         #  CHECK IF DATA GOOD DISCRETE PRESENT
004446: 26,3656           02033                           RAND     CHAN33
004447: 26,3657           00006                           EXTEND
004448: 26,3660           13667                           BZF      STORE1S                               #  YES - GO TO STORE 11111 FOR DISPLAY IN R1
004449: 26,3661           46245                           CS       SIX
004450: 26,3662           61736                           AD       NSRCHPNT                              #  IS N GREATER THAN 6
004451: 26,3663           00006                           EXTEND
004452: 26,3664           13442                           BZF      LRS24.1                               #  YES - RESET N = 0 AND START AROUND AGAIN
004453: 26,3665           25736                           INCR     NSRCHPNT                              #  NO - SET N = N+1 AN GO TO
004454: 26,3666           13444                           TCF      CHKSRCH                               #  NEXT POINT IN PATTERN
004455:
004456: 26,3667           33703        STORE1S            CAF      ALL1S                                 #  STORE 11111 FOR DISPLAY IN R1
004457: 26,3670           55733                           TS       DATAGOOD


004459: 26,3671           00004                           INHINT
004460: 26,3672           06032                           TC       KILLTASK                              #  DELETE DESIGNATE TASK FROM
004461: 26,3673           52613                           CADR     DESLOOP    +2                         #  WAITLIST USING KILLTASK
004462: 26,3674           05155                           TC       ENDOFJOB
004463:
004464: 26,3675           05567        LIMALARM           TC       ALARM                                 #  ISSUE ALARM 527 - LOS NOT IN MODE2
004465: 26,3676           00527                           OCT      527                                   #  COVERAGE IN P22 OR VEHICLE MANEUVER
004466: 26,3677           00004                           INHINT                                         #  REQUIRED IN P20
004467: 26,3700           06032                           TC       KILLTASK                              #  KILL WAITLIST CALL FOR NEXT
004468: 26,3701           55643                           CADR     CALLDGCH                              #  POINT IN SEARCH PATTERN
004469: 26,3702           05155                           TC       ENDOFJOB
004470:
004471: 26,3703           25547        ALL1S              DEC      11111      B-14
004472: 26,3704           33555 01106  SIN60DEG           2DEC     .86603
004473: 26,3706  23,2521               COS60DEG           =        DPHALF                                #  (2DEC .50)
004474: 26,3706                        UXVECTPR           EQUALS   12D                                   #  PREVIOUS
004475: 26,3706                        UYVECTPR           EQUALS   18D
004476: 26,3706                        RLMUNIT            EQUALS   12D
004477: 26,3706           01642 11045  OFFSTFAC           2DEC     0.05678                               #  TANGENT OF 3.25 DEGREES
004478: 26,3710           00001        ONEOCT             OCT      00001                                 #  **** NOTE - THESE TWO CONSTANTS MUST ****
004479: 26,3711           00000 00454  3SECONDS           2DEC     300        B-28                       #  **** BE IN THIS ORDER BECAUSE         ****
004480:                                                                                                  #  **** ONEOCT NEEDS A LOWER ORDER       ****
004481:                                                                                                  #  **** WORD OF ZEROES                   ****
004482: 26,3713           01130        6SECONDS           DEC      600        B-14
004483: 26,3714           00000 00226  1.5SECS            2DEC     150        B-28
004484:
004485: 26,3716  23,2523               ZERO/SP            EQUALS   HI6ZEROS
004486:
004487:    4616                                           BLOCK    02
004488:    6000                                           SETLOC   FFTAG5
004489:    6000                                           BANK
004490:    6025                                           COUNT*   $$/P20
004491:    6025           00006        GOTOV56            EXTEND                                         #  P20 TERMINATES BY GOTOV56 INSTEAD OF
004492:    6026           36031                           DCA      VB56CADR                              #  GOTOPOOH
004493:    6027           15165                           TCF      SUPDXCHZ
004494:    6030  E7,1471                                  EBANK=   WHOCARES
004495:    6030           03045 66107  VB56CADR           2CADR    TRMTRACK
004496:


004498:                                                                                                  #  PROGRAM NAME: R29     (RENDEZVOUS RADAR DESIGNATE DURING POWERED FLIGHT)
004499:                                                                                                  #  MOD NO. 2     BY H. BLAIR-SMITH       JULY 2, 1968.
004500:
004501:                                                                                                  #  FUNCTIONAL DESCRIPTION:
004502:
004503:                                                                                                  #        DESIGNATES THE RENDEZVOUS RADAR TOWARD THE COMPUTED LOS TO THE CSM, WITH THE CHIEF OBJECTIVE OF OBTAINING RANGE
004504:                                                                                                  #        AND RANGE RATE DATA AT 2-SECOND INTERVALS FOR TRANSMISSION TO THE GROUND.  WHEN THE RR IS WITHIN .5 DEGREE OF
004505:                                                                                                  #        THE COMPUTED LOS, TRACKING IS ENABLED, AND DESIGNATION CONTINUES UNTIL THE DATA-GOOD DISCRETE IS RECEIVED.  AT
004506:                                                                                                  #        THAT POINT, DESIGNATION CEASES AND A RADAR-READING ROUTINE TAKES OVER, PREPARING A CONSISTENT SET OF DATA FOR
004507:                                                                                                  #        DOWN TELEMETRY.  THE SET INCLUDES RANGE, RANGE RATE, MARK TIME, TWO RR CDU ANGLES, THREE IMUCDU ANGLES, AND AN
004508:                                                                                                  #        INDICATOR WHICH IS 1 WHEN THE SET IS CONSISTENT AND 0 OTHERWISE.  THE INDICATOR IS IN TRKMKCNT.
004509:
004510:                                                                                                  #  CALLING SEQUENCE:  BEGUN EVERY 2 SECONDS AS AN INTEGRAL PART OF SERVICER
004511:
004512:                                                                                                  #  SUBROUTINES CALLED:
004513:
004514:                                                                                                  #        REMODE          RRTONLY
004515:                                                                                                  #        UNIT            MPACVBUF
004516:                                                                                                  #        QUICTRIG        AX*SR*T
004517:                                                                                                  #        SPSIN           SPCOS
004518:                                                                                                  #        SETRRECR        RROUT
004519:                                                                                                  #        RRRDOT          RRRANGE
004520:
004521:                                                                                                  #  EXIT:  TO NOR29NOW, IN SERVICER.
004522:
004523:                                                                                                  #  OUTPUT:  (ALL FOR DOWNLINK)
004524:
004525:                                                                                                  #        RM              RDOTM           (RAW)
004526:                                                                                                  #        AIG             AMG
004527:                                                                                                  #        AOG             TRKMKCNT        TRKMKCNT = 00001 IF SET IS CONSISTENT,
004528:                                                                                                  #        TANGNB          TANGNB +1       OTHERWISE TRKMKCNT = 00000.
004529:                                                                                                  #        MKTIME


004531:
004532:                                                                                                  #  ERASABLE INITIALIZATION REQUIRED:
004533:
004534:                                                                                                  #        NCR29FLG        READRFLG                (TO 1 AND 0 BY FRESH START) (RESET NOR29FLG TO LET SERVICER RUN R29)
004535:                                                                                                  #        PIPTIME         RADMODES (BIT 10)       (BIT SET TO 0 BY FRESH START)
004536:                                                                                                  #        R(CSM)          V(CSM)
004537:                                                                                                  #        R               V                       (PIPTIME THRU V BY AVE G IN SERVICER)
004538:
004539:                                                                                                  #  DEBRIS:
004540:
004541:                                                                                                  #        RADMODES (BIT 10)
004542:                                                                                                  #        LOSSM           LOSVDT/4                (= RRTARGET & LOSVEL)
004543:                                                                                                  #        SAVECDUT        OLDESFLG                (SAVECDUT = MLOSV)
004544:                                                                                                  #        LOSCMFLG        READRFLG
004545:
004546:                                                                                                  #  ALARMS:  NONE.
004547:
004548:                                                                                                  #  COMPONENT JOBS AND TASKS:
004549:
004550:                                                                                                  #        INITIALIZING, IF RR IS FOUND TO BE IN MODE 1:  JOB R29REMOJ AND TASK REMODE:  ALWAYS: TASK PREPOS29.
004551:                                                                                                  #        DESIGNATING:  TASK BEGDES29 & JOB R29DODES.
004552:                                                                                                  #        RADAR READING:  TASK R29READ AND JOB R29RDJOB.  ALL JOBS ARE NOVAC TYPE.
004553:
004554: 33,2045                                           BANK     33
004555: 33,2000                                           SETLOC   R29/SERV
004556: 33,2000                                           BANK
004557:
004558: 33,2045                                           COUNT*   $$/r29
004559:
004560: 33,2045     5014               NR29&RDR           EQUALS   EBANK5
004561:


004563:                                                                                                  #  SERVICER COMES TO R29 FROM "R29?" IF NOR29FLG, READRFLG, RRREMODE, RRCDUZRO, RRREPOS, AND DISPLAY-INERTIAL-DATA
004564:                                                                                                  #  ARE ALL RESET, AND THE RR IS IN LGC MODE (OFTEN CONFUSINGLY CALLED AUTO MODE).
004565:
004566: 33,2045           40110        R29                CS       RADMODES
004567: 33,2046           74742                           MASK     DESIGBIT
004568: 33,2047           00006                           EXTEND
004569: 33,2050           12123                           BZF      R29.LOS                               #  BRANCH IF DESIGNATION IS ALREADY ON.
004570:
004571: 33,2051           00004                           INHINT
004572: 33,2052           26110                           ADS      RADMODES                              #  SHOW THAT DESIGNATION IS NOW ON.
004573: 33,2053           44736                           CS       BIT14
004574: 33,2054           00006                           EXTEND
004575: 33,2055           03012                           WAND     CHAN12                                #  REMOVE RR TRACK ENABLE DISCRETE.
004576: 33,2056           44740                           CS       LOSCMBIT
004577: 33,2057           70076                           MASK     FLAGWRD2
004578: 33,2060           54076                           TS       FLAGWRD2                              #  CLEAR LOSCMFLG TO SHOW DES. LOOP IS OFF.
004579: 33,2061           44753                           CS       OLDESBIT
004580: 33,2062           70074                           MASK     STATE
004581: 33,2063           54074                           TS       STATE                                 #  SHOW THAT DES. LOOP IS NOT REQUESTED.
004582: 33,2064           04616                           TC       BANKCALL
004583: 33,2065           52167                           CADR     SETRRECR                              #  ENABLE RR ERROR COUNTERS.
004584: 33,2066           34740                           CA       ANTENBIT
004585: 33,2067           70110                           MASK     RADMODES
004586: 33,2070           10000                           CCS      A                                     #  TEST RR MODE BIT.
004587: 33,2071           12104                           TCF      SETPRPOS                              #  MODE 2.
004588:
004589: 33,2072           35031                           CA       PRIO21                                #  MODE 1:  MUST REMODE.
004590: 33,2073           05072                           TC       NOVAC
004591: 33,2074  E7,1456                                  EBANK=   LOSCOUNT
004592: 33,2074           02113 66067                     2CADR    R29REM0J                              #  NEEDS OWN JOB TO RADSTALL IN.
004593:
004594: 33,2076           44742                           CS       DESIGBIT
004595: 33,2077           70110                           MASK     RADMODES                              #  CLEAR DESIGNATE FLAG IN RADMODES
004596: 33,2100           54110                           TS       RADMODES                              #  BEFORE CALLING REMODE
004597: 33,2101           34736                           CA       REMODBIT
004598: 33,2102           26110                           ADS      RADMODES                              #  SHOW THAT REMODING IS ON.
004599: 33,2103           12573                           TCF      NOR29NOW                              #  CONTINUE SERVICER FUNCTIONS.
004600:
004601: 33,2104           34753        SETPRPOS           CA       ONE
004602: 33,2105           05203                           TC       WAITLIST
004603: 33,2106  E7,1456                                  EBANK=   LOSCOUNT
004604: 33,2106           03604 52067                     2CADR    PREPOS29                              #  TASK TO SET TRUNNION ANGLE TO -180 DEG.
004605:
004606: 33,2110           34741                           CA       REPOSBIT
004607: 33,2111           26110                           ADS      RADMODES                              #  SHOW THAT REPOSITIONING IS ON.
004608: 33,2112           12573                           TCF      NOR29NOW
004609:


004611:                                                                                                  #  FORCE RENDEZVOUS RADAR INTO MODE 2.
004612:
004613: 33,2113           34753        R29REM0J           CA       ONE
004614: 33,2114           05203                           TC       WAITLIST
004615: 33,2115  E7,1456                                  EBANK=   LOSCOUNT
004616: 33,2115           02202 52067                     2CADR    REMODE                                #  REMODE MUST RUN AS A TASK.
004617:
004618: 33,2117           04616                           TC       BANKCALL                              #  WAIT FOR END OF REMODING.
004619: 33,2120           17705                           CADR     RADSTALL
004620:
004621: 33,2121           15155                           TCF      ENDOFJOB                              #  BAD EXIT CAN'T HAPPEN.
004622: 33,2122           15155                           TCF      ENDOFJOB
004623:
004624:                                                                                                  #  TASK TO PREPOSITION THE RR TRUNNION ANGLE TO -180 DEG.
004625:
004626: 25,2000                                           SETLOC   R29S1
004627: 25,2000                                           BANK
004628:
004629: 25,3604           34735        PREPOS29           CA       NEGMAX                                #  -180 DEG.
004630: 25,3605           02252                           TC       RRTONLY                               #  DRIVE TRUNNION CDU.
004631: 25,3606           44741                           CS       REPOSBIT                              #  SHOW THAT REPOSITIONING IS OFF.
004632: 25,3607           70110                           MASK     RADMODES
004633: 25,3610           54110                           TS       RADMODES
004634: 25,3611           15261                           TCF      TASKOVER
004635:
004636:                                                                                                  #  COMPUTE LINE-OF-SIGHT AND LOS VELOCITY, AND PASS THEM TO THE R29DODES LOOP.
004637:
004638: 33,2045                                           SETLOC   R29
004639: 33,2045                                           BANK
004640:
004641: 33,2123           00006        R29.LOS            EXTEND
004642: 33,2124           41234                           DCS      PIPTIME
004643: 33,2125           52155                           DXCH     MPAC
004644: 33,2126           00006                           EXTEND
004645: 33,2127           30025                           DCA      TIME2
004646: 33,2130           20155                           DAS      MPAC                                  #  (MPAC) = T-PIPTIME, SCALED B-28.
004647: 33,2131           54163                           TS       MODE                                  #  SET MODE TO DOUBLE PRECISION.
004648: 33,2132           30155                           CA       MPAC       +1
004649: 33,2133           00006                           EXTEND
004650: 33,2134           74740                           MP       BIT12
004651: 33,2135           52155                           DXCH     MPAC                                  #  T-PIPTIME NOW SCALED B-17.
004652: 33,2136           06042                           TC       INTPRET


004654:                                                                                                  #  LOSCMFLG = 0 MEANS THAT THE DESIGNATION IS READY FOR NEW DATA.  SETTING LOSCMFLG MAKES IT GO AWAY SO SETUP29D CAN
004655:                                                                                                  #  START IT UP WHEN THE DATA IS IN PLACE.
004656: 33,2137           52315                           PDVL     VSU                                   #  PUSH DOWN T-PIPTIME.
004657: 33,2140           01726                                    V(CSM)
004658: 33,2141           03527                                    V                                     #  LOSVEL = V(CSM) - V.
004659: 33,2142           74325                           PDDL     VXSC                                  #  SWAP LOSVEL FOR T-PIPTIME, MULTIPLY THEM
004660: 33,2143           52255                           VAD      VSU                                   #        AND ADD THE RESULT TO R(CSM) - R TO GET
004661: 33,2144           01720                                    R(CSM)                                #        AN UP-TO-DATE LOS VECTOR IN SM AXES.
004662: 33,2145           03521                                    R
004663: 33,2146           77414                           BOFSET   EXIT                                  #  (BOFSET DOES ITS THING INHINTED.)
004664: 33,2147           01043                                    LOSCMFLG                              #  IF DESIGNATE LOOP IS OFF, CHANGE LOSCM-
004665: 33,2150           66152                                    SETUP29D                              #  FLG TO ON AND GO TO SET UP NEW DATA.
004666: 33,2151           12573                           TCF      NOR29NOW                              #  IF DES. LOOP IS ON, LET IT USE OLD DATA.
004667:
004668: 33,2152           25101        SETUP29D           STOVL    LOSSM                                 #  LINE-OF-SIGHT VECTOR, STABLE MEMBER AXES
004669: 33,2153           00001                                    0
004670: 33,2154           77761                           VXSC
004671: 33,2155           26177                                    .5SECB17
004672: 33,2156           01761                           STORE    LOSVDT/4                              #  1/2 SECOND'S WORTH OF LOS VELOCITY.
004673: 33,2157           77414                           CLEAR    EXIT
004674: 33,2160           01263                                    LOSCMFLG                              #  LET R29DLOOP USE NEW DATA.
004675:
004676: 33,2161           40074                           CS       STATE
004677: 33,2162           74753                           MASK     OLDESBIT
004678: 33,2163           00006                           EXTEND
004679: 33,2164           12573                           BZF      NOR29NOW                              #  BRANCH IF R29 DES. LOOP IS REQUESTED.
004680: 33,2165           00004                           INHINT
004681: 33,2166           26074                           ADS      STATE                                 #  OTHERWISE REQUEST IT NOW.
004682:
004683: 33,2167           11055                           CCS      PIPCTR                                #  SEE IF TASK SHOULD BE OFFSET ONE SECOND.
004684: 33,2170           44776                           CS       SUPER110                              #  -96D +100D = 4.
004685: 33,2171           64777                           AD       1SEC                                  #  0 +100D = 100D.
004686: 33,2172           05203                           TC       WAITLIST
004687: 33,2173  E7,1456                                  EBANK=   LOSCOUNT
004688: 33,2173           03357 50067                     2CADR    BEGDES29                              #  START BEGDES29 TASK ASAP.
004689:
004690: 33,2175           12573                           TCF      NOR29NOW                              #  RELINT AND CONTINUE SERVICER FUNCTIONS.
004691:
004692: 33,2176           00006 10000  .5SECB17           2DEC     50         B-17
004693:


004695:                                                                                                  #  R29 DESIGNATE JOB AND TASK MACHINERY.  TASK RECURS EVERY .5 SEC UNTIL DESIGNATE IS CALLED OFF; IT MAY WAIT FOR A
004696:                                                                                                  #  CENTISECOND OR TWO IF IT COMES UP WHILE SETUP29D IS SUPPLYING NEW DATA.
004697:
004698: 24,3357                                           BANK     24
004699: 24,2000                                           SETLOC   P20S
004700: 24,2000                                           BANK
004701:
004702: 24,3357                                           COUNT*   $$/R29
004703:
004704: 24,3357           35031        BEGDES29           CAF      PRIO21
004705: 24,3360           05072                           TC       NOVAC
004706: 24,3361  E3,1760                                  EBANK=   LOSVDT/4
004707: 24,3361           02550 64063                     2CADR    R29DODES                              #  START R29DODES JOB TWICE A SECOND.
004708:
004709: 24,3363           34774        R29DLOOP           CAF      .5SEC
004710: 24,3364           05224                           TC       VARDELAY
004711:
004712: 24,3365           40110                           CS       RADMODES
004713: 24,3366           74742                           MASK     DESIGBIT
004714: 24,3367           10000                           CCS      A
004715: 24,3370           15261                           TCF      TASKOVER                              #  QUIT IF DESIGNATION IS CALLED OFF.
004716:
004717: 24,3371           40076                           CS       FLAGWRD2
004718: 24,3372           74740                           MASK     LOSCMBIT
004719: 24,3373           00006                           EXTEND
004720: 24,3374           13377                           BZF      +3                                    #  BRANCH IF SETUP29D'S SUPPLYING NEW DATA.
004721: 24,3375           26076                           ADS      FLAGWRD2                              #  SET LOSCMFLG:  SHOW THAT DES. LOOP IS ON.
004722: 24,3376           13357                           TCF      BEGDES29
004723:
004724: 24,3377           34753                           CA       ONE
004725: 24,3400           13364                           TCF      R29DLOOP   +1                         #  WAIT A CENTISECOND FOR NEW DATA.


004727:                                                                                                  #  R29DODES:  RR DESIGNATION LOOP FOR R29
004728:
004729:                                                                                                  #  THIS ROUTINE DOES MUCH THE SAME THING AS DODES, BUT A GREAT DEAL FASTER.  IT TAKES THE NON-UNITIZED LOS VECTOR
004730:                                                                                                  #  IN STABLE MEMBER COORDINATES (LOSSM) AND A DELTA-LOS IN SM AXES (LOSVDT/4) WHICH IS 1/2 SEC TIMES LOS VELOCITY,
004731:                                                                                                  #  AND DEVELOPS THE SHAFT AND TRUNNION COMMANDS USING SINGLE PRECISION AS MUCH AS POSSIBLE, AND INTERPRETIVE NOT AT
004732:                                                                                                  #  ALL.  THE UNIT(LOSSM + LOSVEL * 1 SEC) IS COMPUTED IN DP AND TRANSFORMED TO NAV BASE COORDINATES IN DOUBLE PRE-
004733:                                                                                                  #  CISION (USING SP SINES AND COSINES OF CDU ANGLES), AND THE REST IS DONE IN SP.
004734:
004735:                                                                                                  #  THE FUNCTIONAL DIFFERENCE IS THAT R29DODES ALWAYS CLEARS LOSCMFLG WHEN IT ENDS, AND IT STARTS UP THE R29READ
004736:                                                                                                  #  TASK WHEN LOCK-ON IS ACHIEVED.
004737:
004738: 32,2550                                           BANK     32
004739: 32,2000                                           SETLOC   F2DPS*32
004740: 32,2000                                           BANK
004741:
004742: 32,2550                                           COUNT*   $$/R29
004743: 32,2550  E3,1760                                  EBANK=   LOSVDT/4
004744:
004745: 32,2550           34753        R29DODES           CA       ONE
004746: 32,2551           55106                           TS       TANG                                  #  INDICATE 1ST PASS THRU VECTOR LOOP.
004747: 32,2552           34756                           CA       FIVE
004748:
004749: 32,2553           10000        R29DVBEG           CCS      A                                     #  COUNT DOWN BY TWOS IN VECTOR LOOP.
004750: 32,2554           54002                           TS       Q
004751: 32,2555           11106                           CCS      TANG
004752: 32,2556           12564                           TCF      R29DPAS1                              #  DO THIS ON 1ST PASS THRU LOOP.
004753:
004754: 32,2557           00006                           EXTEND                                         #  (A "PASS" HERE MEANS 3 TIMES AROUND).
004755: 32,2560           50002                           INDEX    Q
004756: 32,2561           31761                           DCA      LOSVDT/4
004757: 32,2562           50002                           INDEX    Q
004758: 32,2563           21101                           DAS      LOSSM                                 #  ADVANCE LOS VECTOR 1/2 SECOND.
004759:
004760: 32,2564           00006        R29DPAS1           EXTEND
004761: 32,2565           50002                           INDEX    Q
004762: 32,2566           31101                           DCA      LOSSM
004763: 32,2567           50002                           INDEX    Q                                     #  MOVE CURRENT LOS (1ST PASS) OR LOS PRO-
004764: 32,2570           52156                           DXCH     MPAC       +1                         #  JECTED 1/2 SEC AHEAD (2ND PASS).
004765: 32,2571           11106                           CCS      TANG
004766: 32,2572           12600                           TCF      R29DVEND                              #  BUG OUT HERE IN 1ST PASS.
004767:
004768: 32,2573           00006                           EXTEND
004769: 32,2574           50002                           INDEX    Q
004770: 32,2575           31761                           DCA      LOSVDT/4
004771: 32,2576           50002                           INDEX    Q
004772: 32,2577           20156                           DAS      MPAC       +1                         #  PROJECT LOS 1 SECOND AHEAD (2ND PASS).
004773:
004774: 32,2600           10002        R29DVEND           CCS      Q
004775: 32,2601           12553                           TCF      R29DVBEG                              #  BRANCH TO CONTINUE VECTOR LOOP.
004776:


004778:                                                                                                  #  UNITIZE AND TRANSFORM TO NAV BASE AXES THE PRESENT LOS (1ST PASS) OR THE 1-SEC PROJECTED LOS (2ND PASS).
004779:
004780: 32,2602           52156                           DXCH     MPAC       +1
004781: 32,2603           52155                           DXCH     MPAC
004782: 32,2604           32776                           CA       R29FXLOC                              #  = ADRES INTB15 + -34D
004783: 32,2605           54120                           TS       FIXLOC
004784: 32,2606           04713                           TC       USPRCADR                              #  WITH FIXLOC ARMED FOR LENGTH AND LENGTH
004785: 32,2607           01023                           CADR     UNIT                                  #  SQUARED, BORROW UNITIZING ROUTINE.
004786: 32,2610           07535                           TC       MPACVBUF                              #  MOVE UNIT(LOS) TO AX*SR*T ARG AREA.
004787:
004788: 32,2611           11106                           CCS      TANG
004789: 32,2612           12614                           TCF      +2
004790: 32,2613           12630                           TCF      GOTANGLS                              #  GET CDU ANGLES ONLY AFTER 1ST PASS.
004791: 32,2614           00004                           INHINT                                         #  ENSURE CONSISTENT CDU READINGS.
004792: 32,2615           00006                           EXTEND
004793: 32,2616           30036                           DCA      CDUT
004794: 32,2617           53767                           DXCH     SAVECDUT                              #  TRUNNION AND SHAFT ANGLES.
004795: 32,2620           30033                           CA       CDUY
004796: 32,2621           54765                           TS       CDUSPOT
004797: 32,2622           30034                           CA       CDUZ
004798: 32,2623           54767                           TS       CDUSPOT    +2
004799: 32,2624           30032                           CA       CDUX
004800: 32,2625           54771                           TS       CDUSPOT    +4                         #  CDU ANGLES IN FUNNY ORDER FOR AX*SR*T.
004801: 32,2626           04616                           TC       BANKCALL
004802: 32,2627           47617                           CADR     QUICTRIG                              #  GET SINES AND COSINES OF CDU ANGLES.
004803:
004804: 32,2630           46250        GOTANGLS           CS       THREE
004805: 32,2631           04616                           TC       BANKCALL
004806: 32,2632           47677                           CADR     AX*SR*T                               #  TRANSFORM UNIT LOS TO NB AXES (ULOSNB).
004807:
004808: 32,2633           11106                           CCS      TANG
004809: 32,2634           12636                           TCF      +2
004810: 32,2635           12703                           TCF      R29DPAS2                              #  GO TO RR COMMAND COMP. AFTER 2ND PASS.
004811:


004813:                                                                                                  #  COMPUTE COSINE OF THE ANGLE BETWEEN THE PRESENT LOS AND THE RR BORESIGHT VECTOR, AND SET THE SELFTRACK ENABLE IF
004814:                                                                                                  #  THE COSINE IS APPROXIMATELY COS(.5 DEG) OR GREATER (I.E. SMALLER ANGLE).
004815:
004816: 32,2636           00004                           INHINT
004817: 32,2637           55106                           TS       TANG                                  #  INDICATE 2ND PASS THRU VECTOR LOOP.
004818: 32,2640           31766                           CA       SAVECDUT
004819: 32,2641           05032                           TC       SPCOS
004820: 32,2642           54166                           TS       PUSHLOC                               #  PUSHLOC = COS T.
004821: 32,2643           41766                           CS       SAVECDUT
004822: 32,2644           05033                           TC       SPSIN
004823: 32,2645           54163                           TS       MODE                                  #  MODE = -SIN T.
004824: 32,2646           00006                           EXTEND
004825: 32,2647           70124                           MP       VBUF       +2                         #  FORM - SIN T ULOSNBY.
004826: 32,2650           52155                           DXCH     MPAC
004827: 32,2651           31767                           CA       SAVECDUT   +1
004828: 32,2652           05033                           TC       SPSIN
004829: 32,2653           55766                           TS       SAVECDUT                              #  SAVECDUT NOW = SIN S.
004830: 32,2654           00006                           EXTEND
004831: 32,2655           70166                           MP       PUSHLOC
004832: 32,2656           00006                           EXTEND
004833: 32,2657           70122                           MP       VBUF                                  #  FORM SIN S COS T ULOSNBX.
004834: 32,2660           20155                           DAS      MPAC
004835: 32,2661           31767                           CA       SAVECDUT   +1
004836: 32,2662           05032                           TC       SPCOS
004837: 32,2663           55767                           TS       SAVECDUT   +1                         #  SAVECDUT +1 NOW = COS S.
004838: 32,2664           00006                           EXTEND
004839: 32,2665           70166                           MP       PUSHLOC
004840: 32,2666           00006                           EXTEND
004841: 32,2667           70126                           MP       VBUF       +4                         #  FORM COS S COS T ULOSNBZ.
004842: 32,2670           20155                           DAS      MPAC                                  #  COS(ERROR) = ULOSNB . (SIN S COS T,
004843: 32,2671           00006                           EXTEND                                         #  -SIN T, COS S COS T).
004844: 32,2672           30155                           DCA      MPAC
004845: 32,2673           20155        TESTCOS            DAS      MPAC                                  #  (ULOSNB IN VBUF WAS A HALF-UNIT VECTOR).
004846: 32,2674           10000                           CCS      A                                     #  TEST FOR + OVERFLOW, NONE, OR MINUS.
004847: 32,2675           34736                           CA       BIT14
004848: 32,2676           12677                           NOOP
004849: 32,2677           00006                           EXTEND
004850: 32,2700           05012                           WOR      CHAN12                                #  IF PLUS OVERFLOW, SET SELFTRACK ENABLE.
004851: 32,2701           00003                           RELINT
004852: 32,2702           12552                           TCF      R29DVBEG   -1                         #  MAKE 2ND PASS THRU VECTOR LOOP.
004853:


004855:                                                                                                  #  COMPUTE SHAFT AND TRUNNION COMMANDS TO NULL HALF THE ERROR IN HALF A SECOND.
004856:
004857: 32,2703           31767        R29DPAS2           CA       SAVECDUT   +1
004858: 32,2704           00006                           EXTEND
004859: 32,2705           70122                           MP       VBUF                                  #  FORM COS S ULOSNB'X.
004860: 32,2706           53107                           DXCH     TANG
004861: 32,2707           41766                           CS       SAVECDUT
004862: 32,2710           00006                           EXTEND
004863: 32,2711           70126                           MP       VBUF       +4                         #  FORM - SIN S ULOSNB'Z.
004864: 32,2712           21107                           DAS      TANG                                  #  RAW SHAFT CMD = ULOSNB' . (COS S, 0,
004865: 32,2713           40163                           CS       MODE                                  #  - SIN S)
004866: 32,2714           00006                           EXTEND
004867: 32,2715           71766                           MP       SAVECDUT
004868: 32,2716           00006                           EXTEND
004869: 32,2717           70122                           MP       VBUF                                  #  FORM SIN T SIN S ULOSNB'X.
004870: 32,2720           52155                           DXCH     MPAC
004871: 32,2721           30166                           CA       PUSHLOC
004872: 32,2722           00006                           EXTEND
004873: 32,2723           70124                           MP       VBUF       +2                         #  FORM COS T ULOSNB'Y.
004874: 32,2724           20155                           DAS      MPAC
004875: 32,2725           40163                           CS       MODE
004876: 32,2726           00006                           EXTEND
004877: 32,2727           71767                           MP       SAVECDUT   +1
004878: 32,2730           00006                           EXTEND
004879: 32,2731           70126                           MP       VBUF       +4                         #  FORM SIN T COS S ULOSNB'Z.
004880: 32,2732           20155                           DAS      MPAC                                  #  RAW TRUNNION CMD = ULOSNB'.
004881: 32,2733           30154                           CA       MPAC                                  #  (SIN S SIN T, COS T, SIN S COS T).
004882: 32,2734           00006                           EXTEND
004883: 32,2735           72777                           MP       RR29GAIN
004884: 32,2736           55354                           TS       TRUNNCMD
004885: 32,2737           31106                           CA       TANG
004886: 32,2740           00006                           EXTEND
004887: 32,2741           72777                           MP       RR29GAIN
004888: 32,2742           55355                           TS       SHAFTCMD                              #  STORE REFINED SHAFT COMMAND FOR RROUT
004889:


004891:                                                                                                  #  WHETHER OR NOT TRACKING WAS ENABLED THIS TIME, CHECK ON RR DATA-GOOD.  IF PRESENT, STOP DESIGNATING AND START
004892:                                                                                                  #  READING DATA FROM THE RENDEZVOUS RADAR.
004893:
004894: 32,2743           34750        DGOOD?             CAF      BIT4
004895: 32,2744           00006                           EXTEND
004896: 32,2745           02033                           RAND     CHAN33                                #  GET RR DATA-GOOD BIT.
004897: 32,2746           00004                           INHINT                                         #  (MAINLY FOR RROUT).
004898: 32,2747           00006                           EXTEND
004899: 32,2750           12754                           BZF      R29LOKON                              #  BRANCH IF DATA-GOOD IS PRESENT.
004900:
004901: 32,2751           04616                           TC       BANKCALL
004902: 32,2752           52317                           CADR     RROUT                                 #  DATA-GOOD IS ABSENT, SO SEND COMMANDS.
004903: 32,2753           12772                           TCF      END29DOD
004904:
004905: 32,2754           44742        R29LOKON           CS       DESIGBIT
004906: 32,2755           70110                           MASK     RADMODES
004907: 32,2756           54110                           TS       RADMODES                              #  SHOW THAT DESIGNATION IS OVER.
004908: 32,2757           44752                           CS       BIT2
004909: 32,2760           00006                           EXTEND
004910: 32,2761           03012                           WAND     CHAN12                                #  DISABLE RR ERROR COUNTERS.
004911: 32,2762           34743                           CA       READRBIT
004912: 32,2763           26077                           ADS      FLAGWRD3                              #  SHOW THAT READING HAS BEEN REQUESTED.
004913: 32,2764           11055                           CCS      PIPCTR                                #  SEE IF TASK SHOULD BE OFFSET 1 SEC.
004914: 32,2765           44776                           CS       SUPER110                              #  -96D + 100D = 4.
004915: 32,2766           64777                           AD       1SEC                                  #  0 + 100D = 100D.
004916: 32,2767           05203                           TC       WAITLIST
004917: 32,2770  E7,1456                                  EBANK=   LOSCOUNT
004918: 32,2770           03401 50067                     2CADR    R29READ                               #  START READING TASK AND JOB.
004919:
004920: 32,2772           44740        END29DOD           CS       LOSCMBIT
004921: 32,2773           70076                           MASK     FLAGWRD2
004922: 32,2774           54076                           TS       FLAGWRD2                              #  ALWAYS CLEAR LOSCMFLG.
004923: 32,2775           15155                           TCF      ENDOFJOB
004924:
004925: 32,2776           00052        R29FXLOC           ADRES    INTB15+    -34D
004926: 32,2777           56655        RR29GAIN           DEC      -.53624
004927: 32,3000  E3,1760               LOSVDT/4           EQUALS   LOSVEL
004928: 32,3000     1100               LOSSM              EQUALS   RRTARGET
004929: 32,3000  E3,1766               SAVECDUT           EQUALS   MLOSV
004930:


004932:                                                                                                  #  RR READING IS SET UP BY R29DODES WHEN IT DETECTS RR LOCK-ON.
004933:
004934: 24,3401                                           BANK     24
004935: 24,2000                                           SETLOC   P20S
004936: 24,2000                                           BANK
004937:
004938: 24,3401                                           COUNT*   $$/R29
004939:
004940: 24,3401  E7,1456                                  EBANK=   LOSCOUNT
004941:
004942: 24,3401           37717        R29READ            CAF      PRIO26                                #  CALLED BY WAITLIST.
004943: 24,3402           05072                           TC       NOVAC
004944: 24,3403  E7,1456                                  EBANK=   LOSCOUNT
004945: 24,3403           03414 50067                     2CADR    R29RDJOB                              #  START JOB TO READ AND DOWNLINK FOR R29.
004946:
004947: 24,3405           35000                           CA       2SECS
004948: 24,3406           05224                           TC       VARDELAY
004949:
004950: 24,3407           30077                           CA       FLAGWRD3                              #  2 SECONDS LATER, SEE IF READING IS STILL
004951: 24,3410           74743                           MASK     READRBIT                              #  ALLOWED (NO TRACKER FAIL ETC.)
004952: 24,3411           10000                           CCS      A
004953: 24,3412           13401                           TCF      R29READ                               #  IT'S OK:  CALL IT AGAIN.
004954: 24,3413           15261                           TCF      TASKOVER                              #  IT AIN'T:  WAIT FOR REDESIGNATE.
004955:
004956: 24,3414           30077        R29RDJOB           CA       FLAGWRD3                              #  CALLED VIA NOVAC.
004957: 24,3415           74741                           MASK     NR29FBIT
004958: 24,3416           10000                           CCS      A                                     #  TEST "NOR29FLG".
004959: 24,3417           13501                           TCF      ENDR29RD                              #  R29 OVER, EXIT WITH RR STILL LOCKED ON
004960: 24,3420           30110                           CA       RADMODES
004961: 24,3421           74752                           MASK     AUTOMBIT
004962: 24,3422           10000                           CCS      A                                     #  TEST RR-NOT-IN-AUTO-MODE BIT.
004963: 24,3423           13476                           TCF      ENDRRD29                              #  ASTRO TOOK RR OUT OF AUTO MODE.
004964:
004965: 24,3424           04616                           TC       BANKCALL
004966: 24,3425           53112                           CADR     RRRDOT                                #  INITIATE READING OF RANGE RATE.
004967: 24,3426           04616                           TC       BANKCALL
004968: 24,3427           17705                           CADR     RADSTALL                              #  GO TO SLEEP UNTIL IT'S READY.
004969: 24,3430           13476                           TCF      ENDRRD29                              #  BAD READ; REDESIGNATE.
004970:


004972:                                                                                                  #  R29 RADAR READING CONTINUED.
004973:
004974: 24,3431           53105                           DXCH     TIMEHOLD
004975: 24,3432           52155                           DXCH     MPAC                                  #  TIME OF RR READING, FOR DOWNLINK.
004976: 24,3433           00004                           INHINT                                         #  BE SURE OF 5 CONSISTENT CDU ANGLES.
004977: 24,3434           00006                           EXTEND
004978: 24,3435           30036                           DCA      CDUT
004979: 24,3436           52157                           DXCH     MPAC       +2                         #  RRCDU ANGLES AT RR READ, FOR DOWNLINK.
004980: 24,3437           00006                           EXTEND
004981: 24,3440           30034                           DCA      CDUY
004982: 24,3441           52161                           DXCH     MPAC       +4                         #  MPAC'S 7 WORDS ARE BUFFER FOR COPYCYCLE.
004983: 24,3442           30032                           CA       CDUX
004984: 24,3443           54162                           TS       MPAC       +6                         #  IMUCDU ANGLES AT RR READ, FOR DOWNLINK.
004985:
004986: 24,3444           04616        R29RANGE           TC       BANKCALL
004987: 24,3445           53114                           CADR     RRRANGE                               #  INITIATE READING OF RR RANGE.
004988: 24,3446           04616                           TC       BANKCALL
004989: 24,3447           17705                           CADR     RADSTALL                              #  GO TO SLEEP UNTIL IT'S READY.
004990: 24,3450           13467                           TCF      R29RRR?                               #  BAD READ OR SCALE CHANGE ... WHICH?
004991:
004992: 24,3451           00004                           INHINT
004993: 24,3452           53331                           DXCH     DNRRANGE                              #  COPYCYCLE TO LAY OUT NEW R29 DOWNLINK.
004994: 24,3453           53757                           DXCH     RM
004995: 24,3454           52155                           DXCH     MPAC
004996: 24,3455           53755                           DXCH     MKTIME
004997: 24,3456           52157                           DXCH     MPAC       +2
004998: 24,3457           53753                           DXCH     TANGNB
004999: 24,3460           52161                           DXCH     MPAC       +4
005000: 24,3461           53460                           DXCH     AIG
005001: 24,3462           30162                           CA       MPAC       +6
005002: 24,3463           55461                           TS       AOG
005003: 24,3464           34753                           CA       ONE
005004: 24,3465           55462                           TS       TRKMKCNT                              #  SHOW THAT DOWNLINK DATA IS CONSISTENT.
005005: 24,3466           15155                           TCF      ENDOFJOB
005006:
005007: 24,3467           40101        R29RRR?            CS       FLAGWRD5
005008: 24,3470           74742                           MASK     BIT10
005009: 24,3471           10000                           CCS      A                                     #  WAS IT A SCALE CHANGE (REAL OR PHONY)?
005010: 24,3472           13476                           TCF      ENDRRD29                              #  NO, A BAD READ; REDESIGNATE.
005011: 24,3473           05516                           TC       DOWNFLAG
005012: 24,3474           00120                           ADRES    RNGSCFLG
005013: 24,3475           13444                           TCF      R29RANGE                              #  YES; CLEAR FLAG AND READ AGAIN.
005014:
005015: 24,3476           44736        ENDRRD29           CS       BIT14                                 #  TROUBLE MADE US COME HERE TO LEAVE THE
005016: 24,3477           00006                           EXTEND                                         #  RR-READING MODE.  DISCREDIT DOWNTEL
005017: 24,3500           03012                           WAND     CHAN12
005018: 24,3501           34755        ENDR29RD           CA       ZERO
005019: 24,3502           55462                           TS       TRKMKCNT
005020: 24,3503           05516                           TC       DOWNFLAG
005021:


005023: 24,3504           00063                           ADRES    READRFLG
005024: 24,3505           15155                           TCF      ENDOFJOB
005025:


005027:                                                                                                  #  W-MATRIX MONITOR
005028:
005029: 31,2007                                           BANK     31
005030: 31,2000                                           SETLOC   VB67
005031: 31,2000                                           BANK
005032: 31,2007                                           COUNT*   $$/EXTVB
005033:
005034: 31,2007  E4,1600                                  EBANK=   WWPOS
005035:
005036: 31,2007           06042        V67CALL            TC       INTPRET
005037: 31,2010           77624                           CALL
005038: 31,2011           62120                                    V67WW
005039: 31,2012           77776                           EXIT
005040: 31,2013           00006                           EXTEND                                         #  SAVE THE PRESENT N99 VALUES FOR
005041: 31,2014           31601                           DCA      WWPOS                                 #  COMPARISON AFTER THE DISPLAY
005042: 31,2015           53607                           DXCH     WWBIAS     +2
005043: 31,2016           00006                           EXTEND
005044: 31,2017           31603                           DCA      WWVEL
005045: 31,2020           53611                           DXCH     WWBIAS     +4
005046: 31,2021           00006                           EXTEND
005047: 31,2022           31605                           DCA      WWBIAS
005048: 31,2023           53613                           DXCH     WWBIAS     +6
005049: 31,2024           32143        V06N99DS           CAF      V06N99
005050: 31,2025           04616                           TC       BANKCALL
005051: 31,2026           20334                           CADR     GOXDSPF
005052: 31,2027           15472                           TCF      ENDEXT
005053: 31,2030           12032                           TCF      V6N99PRO
005054: 31,2031           12024                           TCF      V06N99DS
005055: 31,2032           22007        V6N99PRO           ZL
005056: 31,2033           34756                           CA       FIVE
005057: 31,2034           54002        N99LOOP            TS       Q
005058: 31,2035           50002                           INDEX    Q
005059: 31,2036           41600                           CS       WWPOS
005060: 31,2037           50002                           INDEX    Q
005061: 31,2040           61606                           AD       WWPOS      +6
005062: 31,2041           26001                           ADS      L
005063: 31,2042           10002                           CCS      Q                                     #  THE SUM OF ALL DIFFERENCES MUST BE ZERO.
005064: 31,2043           12034                           TCF      N99LOOP
005065: 31,2044           22000                           LXCH     A
005066: 31,2045           00006                           EXTEND
005067: 31,2046           12051                           BZF      V06N9933
005068: 31,2047           05504                           TC       UPFLAG
005069: 31,2050           00160                           ADRES    V67FLAG
005070:
005071: 31,2051           06042        V06N9933           TC       INTPRET
005072: 31,2052           77414                           BON      EXIT
005073: 31,2053           03707                                    V67FLAG
005074: 31,2054           62056                                    +2
005075: 31,2055           15472                           TCF      ENDEXT
005076: 31,2056           77745                           DLOAD


005078: 31,2057           02201                                    WWPOS
005079: 31,2060           72412                           SL4      SL1
005080: 31,2061           14001                           STODL    0D
005081: 31,2062           02203                                    WWVEL
005082: 31,2063           14003                           STODL    2D
005083: 31,2064           02205                                    WWBIAS
005084: 31,2065           77661                           SL                                             #  SHIFT FROM NOUN SCALING (B-5) TO
005085: 31,2066           20213                                    10D                                   #  INTERNAL SCALING (B+5)
005086: 31,2067           00005                           STORE    4D
005087: 31,2070           72014                           BON      LXA,1
005088: 31,2071           04307                                    SURFFLAG
005089: 31,2072           62102                                    V67SURF
005090: 31,2073           00000                                    0D
005091: 31,2074           72130                           SXA,1    LXA,1
005092: 31,2075           02000                                    WRENDPOS
005093: 31,2076           00002                                    2D
005094: 31,2077           52130                           SXA,1    GOTO
005095: 31,2100           02001                                    WRENDVEL
005096: 31,2101           62110                                    V67CLRF
005097: 31,2102           66150        V67SURF            LXA,1    SXA,1
005098: 31,2103           00000                                    0D
005099: 31,2104           02006                                    WSURFPOS
005100: 31,2105           66150                           LXA,1    SXA,1
005101: 31,2106           00002                                    2D
005102: 31,2107           02007                                    WSURFVEL
005103: 31,2110           66150        V67CLRF            LXA,1    SXA,1
005104: 31,2111           00004                                    4D
005105: 31,2112           02003                                    WTRUN
005106: 31,2113           77730                           SXA,1
005107: 31,2114           02002                                    WSHAFT
005108: 31,2115           77414                           CLEAR    EXIT
005109: 31,2116           02676                                    RENDWFLG
005110: 31,2117           15472                           TCF      ENDEXT
005111: 31,2120           40020        V67WW              STQ      BOV
005112: 31,2121           00051                                    S2
005113: 31,2122           62123                                    +1
005114: 31,2123           45014                           CLEAR    CALL
005115: 31,2124           03667                                    V67FLAG
005116: 31,2125           27410                                    INTSTALL
005117: 31,2126           71331                           SSP      DLOAD
005118: 31,2127           00051                                    S1
005119: 31,2130           00006                           DEC      6          B-14
005120: 31,2131           06524                                    ZEROVECS
005121: 31,2132           02201                           STORE    WWPOS
005122: 31,2133           02203                           STORE    WWVEL
005123: 31,2134           02205                           STORE    WWBIAS
005124: 31,2135           77770                           AXT,1
005125: 31,2136           00066                           DEC      54         B-14
005126: 31,2137           47573        NXPOSVEL           VLOAD*   VSQ
005127: 31,2140           02467                                    W          +54D,1


005129: 31,2141           77650                           GOTO
005130: 31,2142           60002                                    ADDPOS
005131: 31,2143           01543        V06N99             VN       0699
005132:
005133: 30,2000                                           SETLOC   VB67A
005134: 30,2000                                           BANK
005135: 30,2002                                           COUNT*   $$/EXTVB
005136:
005137: 30,2002           77615        ADDPOS             DAD
005138: 30,2003           02201                                    WWPOS
005139: 30,2004           02201                           STORE    WWPOS
005140: 30,2005           47573                           VLOAD*   VSQ
005141: 30,2006           02555                                    W          +108D,1
005142: 30,2007           77615                           DAD
005143: 30,2010           02203                                    WWVEL
005144: 30,2011           02203                           STORE    WWVEL
005145: 30,2012           47573                           VLOAD*   VSQ
005146: 30,2013           02643                                    W          +162D,1
005147: 30,2014           77615                           DAD
005148: 30,2015           02205                                    WWBIAS
005149: 30,2016           02205                           STORE    WWBIAS
005150: 30,2017           75500                           TIX,1    SQRT
005151: 30,2020           62137                                    NXPOSVEL
005152: 30,2021           77661                           SR                                             #  SHIFT FROM INTERNAL SCALING (B+5) TO
005153: 30,2022           20613                                    10D                                   #  NOUN SCALING (B-5)
005154: 30,2023           16205                           STODL    WWBIAS
005155: 30,2024           02203                                    WWVEL
005156: 30,2025           77766                           SQRT
005157: 30,2026           16203                           STODL    WWVEL
005158: 30,2027           02201                                    WWPOS
005159: 30,2030           77766                           SQRT
005160: 30,2031           02201                           STORE    WWPOS
005161: 30,2032           52000                           BOV      GOTO
005162: 30,2033           60035                                    +2
005163: 30,2034           60042                                    V67XXX
005164: 30,2035           77745                           DLOAD
005165: 30,2036           06532                                    DPPOSMAX
005166: 30,2037           02201                           STORE    WWPOS
005167: 30,2040           02203                           STORE    WWVEL
005168: 30,2041           02205                           STORE    WWBIAS
005169: 30,2042           45345        V67XXX             DLOAD    DSU
005170: 30,2043           02201                                    WWPOS
005171: 30,2044           20060                                    FT99999
005172: 30,2045           71240                           BMN      DLOAD
005173: 30,2046           60051                                    +3
005174: 30,2047           20060                                    FT99999
005175: 30,2050           02201                           STORE    WWPOS
005176: 30,2051           66150                           LXA,1    SXA,1
005177: 30,2052           00051                                    S2
005178: 30,2053           00052                                    QPRET


005180: 30,2054           77776                           EXIT
005181: 30,2055           04635                           TC       POSTJUMP
005182: 30,2056           27421                           CADR     INTWAKE
005183:
005184: 30,2057           01670 17000  FT99999            2DEC     30479      B-19
005185:


005187: 25,3612                                           BANK     25
005188: 25,2000                                           SETLOC   RADARUPT
005189: 25,2000                                           BANK
005190: 25,3612                                           COUNT*   $$/RRUPT
005191:
005192: 25,3612  E7,1456                                  EBANK=   LOSCOUNT
005193:
005194: 25,3612           44747        RADLITES           CS       BIT5
005195: 25,3613           60061                           AD       ITEMP1
005196: 25,3614           10000                           CCS      A
005197: 25,3615           44753                           CS       ONE
005198: 25,3616           13646                           TCF      VLIGHT
005199:
005200: 25,3617           14570                           TCF      RRTRKF
005201:
005202: 25,3620           54065        HLIGHT             TS       ITEMP5                                #  ZERO ITEMP5 FOR H INDEX
005203:
005204: 25,3621           34747                           CA       HLITE
005205: 25,3622           54001                           TS       L
005206:
005207: 25,3623           34747                           CA       LRALTBIT
005208: 25,3624           70110        BOTHLITS           MASK     RADMODES
005209: 25,3625           10000                           CCS      A
005210: 25,3626           13640                           TCF      ONLITES
005211:
005212: 25,3627           30107                           CA       FLGWRD11
005213: 25,3630           50065                           INDEX    ITEMP5
005214: 25,3631           74753                           MASK     HFLSHBIT
005215: 25,3632           10000                           CCS      A
005216: 25,3633           14570                           TCF      RRTRKF
005217:
005218: 25,3634           00006        LITIT              EXTEND
005219: 25,3635           22066                           QXCH     ITEMP6
005220: 25,3636           04602                           TC       TRKFLON    +1
005221:
005222: 25,3637           00066                           TC       ITEMP6
005223:
005224: 25,3640           50065        ONLITES            INDEX    ITEMP5
005225: 25,3641           44753                           CS       HFLSHBIT
005226: 25,3642           70107                           MASK     FLGWRD11
005227: 25,3643           54107                           TS       FLGWRD11
005228:
005229: 25,3644           30001                           CA       L
005230: 25,3645           13634                           TCF      LITIT
005231: 25,3646           54065        VLIGHT             TS       ITEMP5
005232: 25,3647           34751                           CA       VLITE
005233: 25,3650           54001                           TS       L
005234: 25,3651           34744                           CA       BIT8
005235: 25,3652           13624                           TCF      BOTHLITS
005236:


005238: 25,3653     4747               HLITE              EQUALS   BIT5
005239: 25,3653     4751               VLITE              EQUALS   BIT3
005240:

End of include-file P20-P25.agc.  Parent file is MAIN.agc


