
Source Code


000002:                                                                                                  #  Copyright:    Public domain.
000003:                                                                                                  #  Filename:     P40-P47.agc
000004:                                                                                                  #  Purpose:      A section of Luminary 1C, revision 131.
000005:                                                                                                  #                It is part of the source code for the Lunar Module's (LM)
000006:                                                                                                  #                Apollo Guidance Computer (AGC) for Apollo 13 and Apollo 14.
000007:                                                                                                  #                This file is intended to be a faithful transcription, except
000008:                                                                                                  #                that the code format has been changed to conform to the
000009:                                                                                                  #                requirements of the yaYUL assembler rather than the
000010:                                                                                                  #                original YUL assembler.
000011:                                                                                                  #  Reference:    pp. 752-784 of 1729.pdf.
000012:                                                                                                  #  Contact:      Ron Burkey <info@sandroid.org>.
000013:                                                                                                  #  Website:      www.ibiblio.org/apollo
000014:                                                                                                  #  Mod history:  05/24/03 RSB.   Began transcribing.
000015:                                                                                                  #                2010-01-05 JL   Fixed indentation of STADR instruction.
000016:
000017:                                                                                                  #  Page 752
000018:                                                                                                  #  PROGRAM DESCRIPTION: F40BOTH          DECEMBER 22, 1966
000019:                                                                                                  #  MOD 03 BY PETER ADLER                 MARCH 3, 1967
000020:                                                                                                  #  CALLED VIA JOB FROM V37E
000021:
000022:                                                                                                  #  FUNCTIONAL DESCRIPTION
000023:                                                                                                  #        1)      TO COMPUTE A PREFERRED IMU ORIENTATION AND A PREFERRED VEHICLE ATTITUDE FOR A LM DPS
000024:                                                                                                  #                THRUSTING MANEUVER.
000025:                                                                                                  #  (There is no item #2 in the original program listing --- RSB 2003.)
000026:                                                                                                  #        3)      TO DO THE VEHICLE MANEUVER TO THE THRUSTING ATTITUDE.
000027:                                                                                                  #        4)      TO CONTROL THE PGNCS DURING COUNTDOWN, IGNITION, THRUSTING, AND THRUST TERMINATION OF A
000028:                                                                                                  #                PGNCS CONTROLLED DPS MANEUVER.
000029:                                                                                                  #        5)      IN POSTBURN --- ZERO RENDEZVOUS COUNTER, MAINTAIN VG CALCULATIONS FOR POSSIBLE RCS MANEUVER,
000030:                                                                                                  #                SET MAXIMUM DEADBAND IN DAP, RESET STEERLAW CSTEER TO ZERO.
000031:                                                                                                  #        NOTE:   P42, WHICH IS IN THIS LOG SECTION, DOES THE SAME FOR AN APS BURN, AND AP41 DOES 1-3 FOR
000032:                                                                                                  #                RCS PLUS DISPLAYS PARAMETERS FOR MANUAL CONTROL.
000033:
000034:                                                                                                  #  SUBROUTINES USED
000035:                                                                                                  #        R02             IMU STATUS CHECK
000036:                                                                                                  #        S40.1           COMPUTATION OF THRUST DIRECTION
000037:                                                                                                  #        S40.13          LENGTH OF BURN
000038:                                                                                                  #        S40.2,3         PREFERRED IMU ORIENTATION
000039:                                                                                                  #        S40.8           X PRODUCT STEERING
000040:                                                                                                  #        S40.9           LAMBERT VTOGAIN
000041:                                                                                                  #        R60LEM          ATTITUDE MANEUVER
000042:                                                                                                  #        LEMPREC         EXTRAPOLATE STATE VECTOR
000043:                                                                                                  #        PREREAD         AVERAGE G, SERVICER
000044:                                                                                                  #        ALLCOAST        DAP COASTING INITIALIZATION
000045:                                                                                                  #        CLOKTASK        ERGO CLOCKJOB -- COUNT DOWN
000046:                                                                                                  #        PHASCHANG, INTPRET, FLAGUP, FLAGDOWN, WAITLIST, LONGCALL, GOFLASH, GOFLASHR, GOPERF1, ALARM,
000047:                                                                                                  #        PRIOLARM, GOTOP00H, ENDOFJOB, BANKCALL, SETMAXDB, SETMINDB, CHECKMM, FLATOUT, OUTFLAT,
000048:                                                                                                  #        KILLTASK, SGNAGREE, TPAGREE, ETC.
000049:
000050:                                                                                                  #  RESTARTS VIA GROUP 4
000051:
000052:                                                                                                  #  DISPLAYS
000053:                                                                                                  #        V50N25  203 A/P TO PGNCS, AUTO-THROTTLE MODE, AUTO ATTITUDE CONTROL
000054:                                                                                                  #        V06N40  TTI, VG, DELTAVM (DISPLAYED ONCE/SECOND BY CLOKTASK)
000055:                                                                                                  #        V50N99  PLEASE PERFORM ENGINE ON ENABLE
000056:                                                                                                  #        V06N40  TG (TIME TO GO TO CUTOFF), VG, DELTAVM -- ONCE/SECOND
000057:                                                                                                  #        V16N40  FINAL VALUES OF TG, VG, DELTAVM
000058:                                                                                                  #        V16N85  COMP OF VG (BODY AXES) FOR POSS. RCS MANUAL MANEUVER
000059:                                                                                                  #        V05N09  POSSIBLE ALARMS
000060:                                                                                                  #        V50N07  PLEASE SELECT P00
000061:
000062:                                                                                                  #  Page 753
000063:                                                                                                  #        VIA R30
000064:
000065:                                                                                                  #        V06N44  HAPO, PERI, TFF
000066:                                                                                                  #        V06N35  TIME TO PERIGEE, HMS
000067:
000068:                                                                                                  #  ALARM OR ABORT EXIT MODES
000069:                                                                                                  #        PROGRAM ALARM, FLASHING DISPLAY OF ALARM CODE 1706 IF P40 SELECTED WITH DESCENT UNIT STAGED.
000070:                                                                                                  #        V34E (TERMINATE) IS THE ONLY RESPONSE ACCEPTED.  TC GOTOP00H.
000071:
000072:                                                                                                  #        PROGRAM ALARM, FLASH CODE 1703:  TIG LESS THAN 45 SECS AWAY.  V34E= GOTOP00H OR V33E= SLIP
000073:                                                                                                  #        TIG BY 45 SECS.
000074:
000075:                                                                                                  #  ERASABLE INITIALIZATION
000076:
000077:                                                                                                  #  DEBRIS
000078:
000079:                                                                                                  #  OUTPUT
000080:                                                                                                  #        SEE SUBROUTINES E.G.:  S40.1, S40.2,3, S40.13, S40.8, S40.9, TRIMGIMB
000081:                                                                                                  #        XDELVFLG = 1 FOR EXT DELV COMPUTATION
000082:                                                                                                  #                 = 0 FOR AIMPT (LAMBERT COMP
000083:
000084: ???????                                           COUNT*   $$/P40
000085: ???????  E7,1455                                  EBANK=   WHICH
000086:
000087: 36,3153                                           BANK     36
000088: 36,2000                                           SETLOC   P40S
000089: 36,2000                                           BANK
000090:
000091: 36,3153           05353        P40LM              TC       PHASCHNG
000092: 36,3154           04024                           OCT      04024
000093:
000094: 36,3155           33137                           CAF      P40ADRES                              #  INITIALIZATION FOR BURNBABY
000095: 36,3156           55455                           TS       WHICH
000096:
000097: 36,3157           30106                           CA       FLGWRD10
000098: 36,3160           74737                           MASK     APSFLBIT
000099: 36,3161           10000                           CCS      A
000100: 36,3162           13125                           TCF      P40ALM
000101: 36,3163           04616                           TC       BANKCALL                              #  GO DO IMU STATUS CHECK ROUTINE.
000102: 36,3164           11233                           CADR     R02BOTH
000103:
000104: 36,3165           40111                           CS       DAPBOOLS                              #  INITIALIZE DVMON
000105: 36,3166           74737                           MASK     CSMDOCKD
000106: 36,3167           10000                           CCS      A
000107: 36,3170           32022                           CAF      THRESH1
000108: 36,3171           62023                           AD       THRESH3
000109: 36,3172           55250                           TS       DVTHRUSH
000110: 36,3173           34751                           CAF      FOUR
000111: 36,3174           55515                           TS       DVCNTR
000112:                                                                                                  #  Page 754
000113: 36,3175           06042                           TC       INTPRET                               #  LOAD CONSTANTS FOR DPS BURN
000114: 36,3176           43175                           VLOAD    CLEAR                                 #  LOAD F, MDOT, TDECAY
000115: 36,3177           34001                                    FDPS
000116: 36,3200           02663                                    NOTHROTL
000117: 36,3201           03735                           STORE    F
000118: 36,3202           77735                           SLOAD
000119: 36,3203           26002                                    DPSVEX
000120: 36,3204           70476        P40IN              DCOMP    SR1
000121: 36,3205           37743                           STCALL   VEX                                   #  LOAD EXHAUST VELOCITY FOR TGO COMP.
000122: 36,3206           56246                                    S40.1                                 #  COMPUTES UT AND VGTIG
000123: 36,3207           77624                           CALL
000124: 36,3210           56413                                    S40.2,3                               #  COMPUTES PREFERRED IMU ORIENTATION
000125: 36,3211           77776                           EXIT
000126:
000127: 36,3212           00004                           INHINT
000128: 36,3213           04674                           TC       IBNKCALL
000129: 36,3214           40143                           CADR     PFLITEDB                              #  ZERO ATTITUDE ERRORS, SET DB TO ONE DEG.
000130:
000131: 36,3215           03217                           TC       P40SXT4
000132:
000133:                                                                                                  #        ********************************
000134:
000135: 36,3216           12130                           TCF      BURNBABY
000136:
000137:                                                                                                  #        ********************************
000138:
000139: 36,3217           00006        P40SXT4            EXTEND
000140: 36,3220           23141                           QXCH     P40/RET
000141: 36,3221           00003        P41MANU            RELINT
000142:
000143: 36,3222           05516                           TC       DOWNFLAG                              #  CLEAR 3AXISFLG -- R60 USE VECPOINT.
000144: 36,3223           00124                           ADRES    3AXISFLG
000145:
000146: 36,3224           04616                           TC       BANKCALL
000147: 36,3225           54123                           CADR     R60LEM                                #  DO ATTITUDE MANEUVER ROUTINE
000148: 36,3226           01141                           TC       P40/RET
000149:
000150: 36,3227  E7,1462                                  EBANK=   TRKMKCNT
000151: 36,3227           30005        POSTBURN           CA       Z
000152: 36,3230           55162                           TS       DISPDEX
000153: 36,3231           00006                           EXTEND
000154: 36,3232           32060                           DCA      ACADN85
000155: 36,3233           53252                           DXCH     AVEGEXIT
000156: 36,3234           33764                           CAF      V16N40
000157: 36,3235           04616                           TC       BANKCALL
000158: 36,3236           20636                           CADR     GOFLASHR
000159: 36,3237           03262                           TC       TERM40
000160: 36,3240           13245                           TCF      TIGNOW
000161: 36,3241           03227                           TC       POSTBURN
000162:                                                                                                  #  Page 755
000163: 36,3242           05353        P40PHS1            TC       PHASCHNG
000164: 36,3243           00014                           OCT      00014
000165: 36,3244           15155                           TCF      ENDOFJOB
000166:
000167: 36,3245           00004        TIGNOW             INHINT
000168: 36,3246           04674                           TC       IBNKCALL
000169: 36,3247           40154                           CADR     ZATTEROR
000170: 36,3250           04674                           TC       IBNKCALL
000171: 36,3251           40141                           CADR     SETMINDB
000172: 36,3252           00003                           RELINT
000173: 36,3253           33765                           CAF      V16N85B
000174: 36,3254           04616                           TC       BANKCALL
000175: 36,3255           20463                           CADR     REFLASHR
000176: 36,3256           03262                           TC       TERM40
000177: 36,3257           13262                           TCF      TERM40
000178: 36,3260           03253                           TC       -5
000179:
000180: 36,3261           13242                           TCF      P40PHS1
000181:
000182: 36,3262           00006        TERM40             EXTEND
000183: 36,3263           32110                           DCA      SERVCADR
000184: 36,3264           53252                           DXCH     AVEGEXIT
000185: 36,3265           34755                           CAF      ZERO
000186: 36,3266           55462                           TS       TRKMKCNT                              #  ZERO RENDZVS CNTERS
000187: 36,3267           30005                           CA       Z
000188: 36,3270           55162                           TS       DISPDEX
000189: 36,3271           00004                           INHINT
000190: 36,3272           04674                           TC       IBNKCALL
000191: 36,3273           40115                           CADR     RESTORDB
000192: 36,3274           00003                           RELINT
000193: 36,3275           06001                           TC       GOTOP00H
000194:
000195: 36,3276  E7,1455                                  EBANK=   WHICH
000196: 36,3276                                           COUNT*   $$/P41
000197: 36,3276           33140        P41LM              CAF      P41ADRES                              #  INITIALIZATION FOR BURNBABY
000198: 36,3277           55455                           TS       WHICH
000199:
000200: 36,3300           04616                           TC       BANKCALL
000201: 36,3301           11233                           CADR     R02BOTH
000202:
000203: 36,3302           06042                           TC       INTPRET                               #  BOTH LM
000204:                                                                                                  #  In the original program listing, the following line has a hand-written notation in the
000205:                                                                                                  #  label field which appears to be "rrPIN" or "PPPIN". I don't claim to know that this means,
000206:                                                                                                  #  but I present it for your delectation.---RSB 2003.
000207: 36,3303           71214                           BON      DLOAD                                 #  IF NJETSFLAG IS SET, LOAD Z JET F
000208: 36,3304           00700                                    NJETSFLG
000209: 36,3305           75311                                    P41FJET1
000210: 36,3306           34017                                    FRCS4                                 #  IF NJETSFLG IS CLEAR, LOAD 4 JET F
000211:
000212: 36,3307           37735        P41FJET            STCALL   F
000213: 36,3310           75314                                    P41IN
000214: 36,3311           77745        P41FJET1           DLOAD
000215:                                                                                                  #  Page 756
000216: 36,3312           34021                                    FRCS2
000217: 36,3313           03735                           STORE    F
000218:
000219: 36,3314           77624        P41IN              CALL
000220: 36,3315           56246                                    S40.1                                 #  BOTH
000221: 36,3316           77624        P41NORM            CALL
000222: 36,3317           56413                                    S40.2,3                               #  CALCULATE PREFERRED IMU ORIENTATION AND
000223: 36,3320           77776                           EXIT                                           #  SET PFRATFLG.
000224:
000225: 36,3321           00004                           INHINT
000226: 36,3322           04674                           TC       IBNKCALL
000227: 36,3323           40154                           CADR     ZATTEROR                              #  ZERO ATTITUDE ERRORS
000228: 36,3324           04674                           TC       IBNKCALL
000229: 36,3325           40141                           CADR     SETMINDB                              #  SET 0.3 DEGREE DEADBAND
000230: 36,3326           03217                           TC       P40SXT4
000231:
000232: 36,3327           06042                           TC       INTPRET
000233: 36,3330           45175                           VLOAD    CALL                                  #  TRANSFORM VELOCITY-TO-BE-GAINED AT TIG
000234: 36,3331           03701                                    VGTIG                                 #  FROM REFERENCE COORDINATES TO LM BODY-
000235: 36,3332           57267                                    S41.1                                 #  AXIS COORDINATES FOR V16N85 DISPLAY.
000236: 36,3333           03502                           STORE    VGBODY                                #  (SCALED AT 2 (+7) METERS/CENTISECOND)
000237: 36,3334           77776                           EXIT
000238:
000239: 36,3335           33765                           CAF      V16N85B
000240: 36,3336           04616                           TC       BANKCALL
000241: 36,3337           20447                           CADR     GODSPRET
000242:
000243: 36,3340           35017                           CAF      PRIO5
000244: 36,3341           55162                           TS       DISPDEX                               #  FOR SAFETY ONLY
000245: 36,3342           05105                           TC       FINDVAC
000246: 36,3343  E7,1700                                  EBANK=   VGPREV
000247: 36,3343           03365 74067                     2CADR    DYNMDISP
000248:
000249: 36,3345           05327                           TC       2PHSCHNG
000250: 36,3346           00076                           OCT      00076                                 #  GROUP 6 RESTARTS AT REDO6.7
000251: 36,3347           04024                           OCT      04024                                 #  GROUP 4 RESTARTS HERE
000252:
000253:                                                                                                  #        ********************************
000254:
000255: 36,3350           12137                           TCF      B*RNB*B*
000256:
000257:                                                                                                  #        ********************************
000258:
000259: 36,3351           34777        BLNKWAIT           CAF      1SEC
000260: 36,3352           04616                           TC       BANKCALL
000261: 36,3353           01736                           CADR     DELAYJOB
000262:
000263: 36,3354           31162        REDO6.7            CA       DISPDEX                               #  ON A RESTART, DO NOT PUT UP DISPLAY IF
000264: 36,3355           64752                           AD       TWO                                   #  BLANKING (BETWEEN TIG-35 AND TIG-30)
000265:
000266:                                                                                                  #        ********************************
000267:                                                                                                  #  Page 757
000268:
000269: 36,3356           00006                           EXTEND
000270: 36,3357           13351                           BZF      BLNKWAIT
000271:
000272: 36,3360           33765                           CAF      V16N85B
000273: 36,3361           04616                           TC       BANKCALL
000274: 36,3362           20447                           CADR     GODSPRET
000275:
000276: 36,3363           35017                           CAF      PRIO5
000277: 36,3364           05146                           TC       PRIOCHNG
000278:
000279: 36,3365           31162        DYNMDISP           CA       DISPDEX                               #  A NON-POSITIVE DISPDEX INDICATES PAST
000280: 36,3366           00006                           EXTEND                                         #  TIG-35, SO SERVICER WILL BE DOING THE
000281: 36,3367           65155                           BZMF     ENDOFJOB                              #  UPDATING OF NOUN 85.  STOP DYNMDISP.
000282: 36,3370           06042                           TC       INTPRET
000283: 36,3371           45175                           VLOAD    CALL
000284: 36,3372           03701                                    VGPREV
000285: 36,3373           57267                                    S41.1
000286: 36,3374           03502                           STORE    VGBODY
000287: 36,3375           77776                           EXIT
000288: 36,3376           34777                           CAF      1SEC
000289: 36,3377           04616                           TC       BANKCALL
000290: 36,3400           01736                           CADR     DELAYJOB
000291: 36,3401           13365                           TCF      DYNMDISP
000292:
000293: 36,3402           06042        CALCN85            TC       INTPRET
000294: 36,3403           77624                           CALL
000295: 36,3404           75615                                    UPDATEVG
000296: 36,3405           45175                           VLOAD    CALL
000297: 36,3406           03701                                    VGPREV
000298: 36,3407           57267                                    S41.1
000299: 36,3410           03502                           STORE    VGBODY
000300: 36,3411           77776                           EXIT
000301: 36,3412           04635                           TC       POSTJUMP
000302: 36,3413           65746                           CADR     SERVEXIT
000303:
000304: 36,3414                                           COUNT*   $$/P42
000305: 36,3414  E7,1455                                  EBANK=   WHICH
000306:
000307: 36,3414           05353        P42LM              TC       PHASCHNG
000308: 36,3415           04024                           OCT      04024
000309:
000310: 36,3416           33141                           CAF      P42ADRES                              #  INITIALIZATION FOR BURNBABY.
000311: 36,3417           55455                           TS       WHICH
000312:
000313: 36,3420           40106                           CS       FLGWRD10
000314: 36,3421           74737                           MASK     APSFLBIT
000315: 36,3422           10000                           CCS      A
000316: 36,3423           03125                           TC       P40ALM
000317: 36,3424           04616        P42STAGE           TC       BANKCALL
000318:                                                                                                  #  Page 758
000319: 36,3425           11233                           CADR     R02BOTH
000320: 36,3426           36000                           CAF      THRESH2                               #  INITIALIZE DVMON
000321: 36,3427           55250                           TS       DVTHRUSH
000322: 36,3430           34751                           CAF      FOUR
000323: 36,3431           55515                           TS       DVCNTR
000324:
000325: 36,3432           06042                           TC       INTPRET
000326: 36,3433           77214                           SET      VLOAD                                 #  LOAD FAPS, MDOTAPS, AND ATDECAY INTO
000327: 36,3434           01072                                    AVFLAG                                #  F, MDOT, AND TDECAY BY VECTOR LOAD.
000328: 36,3435           34007                                    FAPS
000329: 36,3436           03735                           STORE    F
000330: 36,3437           52135                           SLOAD    GOTO
000331: 36,3440           26001                                    APSVEX
000332: 36,3441           75204                                    P40IN
000333:
000334: 36,3442  E7,1455                                  EBANK=   WHICH
000335:
000336: 36,3442                                           COUNT*   $$/P47
000337: 36,3442           04616        P47LM              TC       BANKCALL
000338: 36,3443           11233                           CADR     R02BOTH
000339: 36,3444           06042                           TC       INTPRET
000340: 36,3445           77624                           CALRB
000341: 36,3446           27547                                    MIDTOAV2
000342:
000343: 36,3447           30155                           CA       MPAC       +1
000344: 36,3450           05173                           TC       TWIDDLE
000345: 36,3451           03453                           ADRES    STARTP47
000346:
000347: 36,3452           15155                           TCF      ENDOFJOB
000348:
000349: 36,3453           05353        STARTP47           TC       PHASCHNG
000350: 36,3454           05014                           OCT      05014
000351: 36,3455           77777                           OCT      77777
000352:
000353: 36,3456           00006                           EXTEND
000354: 36,3457           33770                           DCA      ACADN83
000355: 36,3460           53252                           DXCH     AVEGEXIT
000356: 36,3461           34736                           CAF      PRIO20
000357: 36,3462           05105                           TC       FINDVAC
000358: 36,3463  E7,1622                                  EBANK=   DELVIMU
000359: 36,3463           03517 74067                     2CADR    P47BODY
000360:
000361: 36,3465           12344                           TCF      REDO4.2                               #  CHECKS PHASE 5 AND GOES TO PREREAD
000362:                                                                                                  #  SEE TIG-30 IN BURNBABY
000363:
000364: 36,3466           06042        CALCN83            TC       INTPRET
000365: 36,3467           53375                           VLOAD    VAD
000366: 36,3470           03502                                    DELVCTL
000367: 36,3471           03527                                    DELVREF
000368: 36,3472           03656                           STORE    DELVSIN                               #  TEMP STORAGE FOR RESTARTS
000369:                                                                                                  #  Page 759
000370: 36,3473           77624                           CALL
000371: 36,3474           57267                                    S41.1
000372: 36,3475           03623                           STORE    DELVIMU
000373: 36,3476           77776                           EXIT
000374: 36,3477           05353                           TC       PHASCHNG
000375: 36,3500           10035                           OCT      10035                                 #  REREADAC AND HERE
000376:
000377: 36,3501           06042                           TC       INTPRET
000378: 36,3502           77775                           VLOAD
000379: 36,3503           03656                                    DELVSIN
000380: 36,3504           03502                           STORE    DELVCTL
000381: 36,3505           77776                           EXIT
000382:
000383: 36,3506           04635                           TC       POSTJUMP
000384: 36,3507           65746                           CADR     SERVEXIT
000385:
000386: 36,3510           33766        P47BOD             CAF      V1683
000387: 36,3511           04616                           TC       BANKCALL
000388: 36,3512           20636                           CADR     GOFLASHR
000389: 36,3513           06001                           TC       GOTOP00H
000390: 36,3514           06001                           TC       GOTOP00H
000391:
000392: 36,3515           13517                           TCF      P47BODY
000393:
000394: 36,3516           13242                           TCF      P40PHS1
000395:
000396: 36,3517           06042        P47BODY            TC       INTPRET
000397: 36,3520           77775                           VLOAD
000398: 36,3521           06524                                    HI6ZEROS
000399: 36,3522           03623                           STORE    DELVIMU
000400: 36,3523           03502                           STORE    DELVCTL
000401: 36,3524           77776                           EXIT
000402: 36,3525           03510                           TC       P47BOD
000403:
000404: 36,3526                                           COUNT*   $$/P40
000405: 36,3526           31517        IMPLBURN           CA       TGO        +1
000406: 36,3527           03741                           TC       GETDT
000407: 36,3530           05173                           TC       TWIDDLE
000408: 36,3531           03546                           ADRES    ENGOFTSK
000409: 36,3532           05516                           TC       DOWNFLAG                              #  TURN OFF IGNFLAG
000410: 36,3533           00153                           ADRES    IGNFLAG
000411: 36,3534           05516                           TC       DOWNFLAG                              #  TURN OFF ASTNFLG
000412: 36,3535           00154                           ADRES    ASTNFLAG
000413: 36,3536           05516                           TC       DOWNFLAG                              #  TURN OFF IMPULSW
000414: 36,3537           00044                           ADRES    IMPULSW
000415: 36,3540           05353                           TC       PHASCHNG                              #  RESTART PROTECT ENGOFTSK (ENGINOFF)
000416: 36,3541           40114                           OCT      40114
000417:
000418: 36,3542           05221                           TC       FIXDELAY                              #  WAIT HALF A SECOND
000419: 36,3543           00062                           DEC      50         B-14
000420:                                                                                                  #  Page 760
000421: 36,3544           02657                           TC       NOULLAGE                              #  TURN OFF ULLAGE
000422:
000423: 36,3545           05261                           TC       TASKOVER
000424:
000425: 36,3546           04674        ENGOFTSK           TC       IBNKCALL                              #  THIS CODING ALLOWS ENGINOFF ET AL TO BE
000426: 36,3547           75551                           CADR     ENGINOFF                              #  USED BOTH BY WAITLIST AND BY TC IBNKCALL
000427: 36,3550           05261                           TC       TASKOVER
000428:
000429: 36,3551           34644        ENGINOFF           CAF      PRIO12                                #  MUST BE LOWER PRIO THAN CLOCKJOB
000430: 36,3552           05105                           TC       FINDVAC
000431: 36,3553  E7,1462                                  EBANK=   TRKMKCNT
000432: 36,3553           03227 74067                     2CADR    POSTBURN
000433:
000434: 36,3555           34753        ENGINOF2           CAF      BIT1
000435: 36,3556           05203                           TC       WAITLIST
000436: 36,3557  E6,1422                                  EBANK=   OMEGAQ
000437: 36,3557           03612 74066                     2CADR    COASTSET
000438:
000439: 36,3561           40103        ENGINOF1           CS       FLAGWRD7                              #  SET THE IDLE BIT.
000440: 36,3562           74745                           MASK     IDLEFBIT
000441: 36,3563           26103                           ADS      FLAGWRD7
000442:
000443: 36,3564           02657                           TC       NOULLAGE
000444:
000445: 36,3565           00006        ENGINOF4           EXTEND
000446: 36,3566           30025                           DCA      TIME2
000447: 36,3567           53342                           DXCH     TEVENT
000448:
000449: 36,3570           44745        ENGINOF3           CS       ENGONBIT                              #  INSURE ENGONFLG IS CLEAR.
000450: 36,3571           70101                           MASK     FLAGWRD5
000451: 36,3572           54101                           TS       FLAGWRD5
000452: 36,3573           44355                           CS       PRIO30                                #  ENGINOF3 IS USED AS A PRE-ENGINE ARM
000453: 36,3574           00006                           EXTEND                                         #  SUBROUTINE.
000454: 36,3575           02011                           RAND     DSALMOUT
000455: 36,3576           64736                           AD       PRIO20                                #  TURN OFF THE ENGINE -- DPS OR APS
000456: 36,3577           00006                           EXTEND
000457: 36,3600           01011                           WRITE    DSALMOUT
000458:
000459: 36,3601           40111                           CS       DAPBOOLS                              #  TURN OFF TRIM GIMBAL
000460: 36,3602           74736                           MASK     USEQRJTS
000461: 36,3603           26111                           ADS      DAPBOOLS
000462:
000463: 36,3604           44737                           CS       HIRTHROT                              #  ZERO AUTO-THROTTLE WHENEVER THE ENGINE
000464: 36,3605           54055                           TS       THRUST                                #  IS TURNED OFF.
000465: 36,3606           34750                           CAF      BIT4                                  #  THE HARDWARE DOES SO ONLY WHEN THE
000466: 36,3607           00006                           EXTEND                                         #  ENGINE IS DISARMED.
000467: 36,3610           05014                           WOR      CHAN14
000468:
000469: 36,3611           04707                           TC       ISWRETRN
000470:                                                                                                  #  Page 761
000471: 36,3612           04674        COASTSET           TC       IBNKCALL                              #  DO DAP COASTING INITIALIZATION
000472: 36,3613           40205                           CADR     ALLCOAST
000473: 36,3614           05261                           TC       TASKOVER
000474:
000475: 36,3615  E6,1422                                  EBANK=   OMEGAQ
000476: 36,3615           45020        UPDATEVG           STQ      CALL
000477: 36,3616           03665                                    QTEMP1
000478: 36,3617           56447                                    S40.8                                 #  X-PRODUCT STEERING
000479: 36,3620           43014                           BON      BON
000480: 36,3621           01307                                    XDELVFLG
000481: 36,3622           03665                                    QTEMP1
000482: 36,3623           03705                                    NORMSW
000483: 36,3624           75637                                    180SETUP
000484: 36,3625           45345                           DLOAD    DSU
000485: 36,3626           01234                                    PIPTIME
000486: 36,3627           03763                                    TIGSAVE
000487: 36,3630           50025                           DSU      BMN
000488: 36,3631           03432                                    TNEWA
000489: 36,3632           75662                                    GETRANS
000490: 36,3633           43345                           DLOAD    DAD
000491: 36,3634           03763                                    TIGSAVE
000492: 36,3635           03432                                    TNEWA
000493: 36,3636           03765                           STORE    TIGSAVEP
000494: 36,3637           77776        180SETUP           EXIT
000495: 36,3640           10754                           CCS      PHASE2
000496: 36,3641           13667                           TCF      NO.9
000497: 36,3642           34737                           CAF      PRIO10
000498: 36,3643           00004                           INHINT
000499: 36,3644           05105                           TC       FINDVAC
000500: 36,3645  E7,1706                                  EBANK=   VG
000501: 36,3645           02707 56067                     2CADR    S40.9                                 #  LAMBERT VTOGAIN
000502:
000503: 36,3647           05327                           TC       2PHSCHNG
000504: 36,3650           00172                           OCT      00172                                 #  2.17SPOT FOR S40.9
000505: 36,3651           10035                           OCT      10035                                 #  HERE AND REREADAC AFTER RESTART
000506:
000507: 36,3652           06042        ENDSTEER           TC       INTPRET
000508: 36,3653           77745                           DLOAD
000509: 36,3654           03765                                    TIGSAVEP
000510: 36,3655           27763                           STOVL    TIGSAVE
000511: 36,3656           01220                                    RN
000512: 36,3657           26323                           STOVL    RINIT
000513: 36,3660           01226                                    VN
000514: 36,3661           02331                           STORE    VINIT
000515: 36,3662           45345        GETRANS            DLOAD    DSU
000516: 36,3663           03631                                    TPASS4
000517: 36,3664           01234                                    PIPTIME
000518: 36,3665           37452                           STCALL   DELLT4
000519: 36,3666           03665                                    QTEMP1
000520:
000521:                                                                                                  #  Page 762
000522: 36,3667           06042        NO.9               TC       INTPRET
000523: 36,3670           77650                           GOTO
000524: 36,3671           03665                                    QTEMP1
000525: 36,3672           06042        STEERING           TC       INTPRET
000526:
000527: 36,3673           77624                           CALL
000528: 36,3674           75615                                    UPDATEVG
000529: 36,3675           77776                           EXIT
000530:
000531: 36,3676  E7,1515                                  EBANK=   DVCNTR
000532: 36,3676           00004        NSTEER             INHINT
000533: 36,3677           35016                           CA       EBANK7
000534: 36,3700           54003                           TS       EBANK
000535: 36,3701           40076                           CS       FLAGWRD2                              #  CHECK IMPULSE SWITCH.  IT IS SET EITHER
000536: 36,3702           74743                           MASK     IMPULBIT                              #  BY S40.13 IF TBURN<6 SECS OR BY S40.8 IF
000537: 36,3703           10000                           CCS      A                                     #  STEERING IS ALMOST DONE.
000538:
000539: 36,3704           13711                           TCF      +5                                    #  IMPULSW = 0   EXIT
000540: 36,3705           40103                           CS       FLAGWRD7                              #  IMPULSW = 1   WHY?  CHECK IDLEFLAG
000541: 36,3706           74745                           MASK     IDLEFBIT                              #        (IDLEFLAG = 0 --> DVMON ON)
000542: 36,3707           10000                           CCS      A
000543: 36,3710           13713                           TCF      +3                                    #  DVMON ON --> THRUSTING --> IMPULSW VIA S40.8
000544: 36,3711           04635                           TC       POSTJUMP                              #  DVMON OFF --> IMPULSW ON VIA S40.13 --> EXIT
000545: 36,3712           65746                           CADR     SERVEXIT
000546:
000547: 36,3713           04674                           TC       IBNKCALL
000548: 36,3714           40166                           CADR     STOPRATE
000549:
000550: 36,3715           05516                           TC       DOWNFLAG                              #  TURN OFF IMPULSW
000551: 36,3716           00044                           ADRES    IMPULSW
000552:
000553: 36,3717           05504                           TC       UPFLAG
000554: 36,3720           00161                           ADRES    IDLEFLAG                              #  TURN OFF DVMON
000555:
000556: 36,3721           00004                           INHINT
000557: 36,3722           00006                           EXTEND
000558: 36,3723           31442                           DCA      TIG
000559: 36,3724           52155                           DXCH     MPAC
000560: 36,3725           00006                           EXTEND
000561: 36,3726           40025                           DCS      TIME2
000562: 36,3727           20155                           DAS      MPAC
000563: 36,3730           07262                           TC       TPAGREE
000564: 36,3731           30155                           CAE      MPAC       +1
000565: 36,3732           03741                           TC       GETDT
000566: 36,3733           05173                           TC       TWIDDLE
000567: 36,3734           03546                           ADRES    ENGOFTSK
000568: 36,3735           05327                           TC       2PHSCHNG
000569: 36,3736           40114                           OCT      40114                                 #  ENGOFTSK (ENGINOFF)
000570: 36,3737           00035                           OCT      00035                                 #  SERVICER -- REREADAC
000571:                                                                                                  #  Page 763
000572: 36,3740           15155                           TCF      ENDOFJOB
000573:
000574: 36,3741           10000        GETDT              CCS      A
000575: 36,3742           13745                           TCF      +3
000576: 36,3743           13745                           TCF      +2
000577: 36,3744           34755                           CAF      ZERO
000578: 36,3745           64753                           AD       ONE
000579: 36,3746           56001                           XCH      L
000580: 36,3747           34755                           CAF      ZERO
000581: 36,3750           53517                           DXCH     TGO
000582: 36,3751           31517                           CA       TGO        +1
000583: 36,3752           00002                           TC       Q
000584:
000585:                                                                                                  #  **************************************
000586:
000587: 36,3753           00000        SEC15DP            OCT      00000                                 #  DON'T SEPARATE
000588: 36,3754           02734        SEC15              DEC      1500       B-14                       #  DON'T SEPARATE
000589: 36,3755           00000 05670  SEC30DP            2DEC     3000       B-28
000590: 36,3757           00000        SEC45DP            OCT      00000                                 #  DON'T MOVE FROM JUST BEFORE SEC45
000591: 36,3760           10624        SEC45              DEC      4500       B-14
000592: 36,3761           00000        5SECDP             OCT      00000                                 #  DON'T MOVE FROM JUST BEFORE 5SEC
000593: 36,3762           00764        5SEC               DEC      500        B-14
000594: 36,3763           05050        26SECS             DEC      2600       B-14
000595: 36,3764           04050        V16N40             VN       1640
000596: 36,3765           04125        V16N85B            VN       1685
000597: 36,3766           04123        V1683              VN       1683
000598: 36,3767     4777               SEC01              =        1SEC
000599: 36,3767  36,2057               ACADN85            =        P41TABLE   +2
000600:
000601: 36,3767  E7,1622                                  EBANK=   DELVIMU
000602: 36,3767           03466 74067  ACADN83            2CADR    CALCN83
000603:
000604:                                                                                                  #  ******************************************
000605:                                                                                                  #  Page 764
000606:                                                                                                  #  PROGRAM DESCRIPTION: S40.1            DATE: 15 NOV 66
000607:                                                                                                  #  MOD N02                               LOG SECTION P40-P47
000608:                                                                                                  #  MOD BY ZELDIN AND ADAPTED BY TALAYCO
000609:
000610:                                                                                                  #  FUNCTIONAL DESCRIPTION
000611:                                                                                                  #        COMPUTE INITIAL THRUST DIRECTION(UT) AND INITIAL VALUE OF VG
000612:                                                                                                  #        VECTOR(VGTIG).
000613:
000614:                                                                                                  #  CALLING SEQUENCE
000615:                                                                                                  #        L       CALL
000616:                                                                                                  #        L+1             S40.1
000617:
000618:                                                                                                  #  NORMAL EXIT MODE
000619:                                                                                                  #        AT L+2 OF CALLING SEQUENCE (GOTO L+2) NORMAL RETURN OR
000620:                                                                                                  #        ERROR RETURN IF NOSOFLAG =1
000621:
000622:                                                                                                  #  SUBROUTINES CALLED
000623:                                                                                                  #        LEMPREC
000624:                                                                                                  #        INITVEL
000625:                                                                                                  #        CALCGRAV
000626:                                                                                                  #        MIDGIM
000627:
000628:                                                                                                  #  ALARM OR ABORT EXIT MODES
000629:                                                                                                  #        L+2 OF CALLING SEQUENCE, UNSOLVABLE CONIC IF NOSOFLAG=1
000630:
000631:                                                                                                  #  ERASABLE INITIALIZATION REQUIRED
000632:                                                                                                  #        WEIGHT/G        ANTICIPATED VEHICLE MASS        DP B16 KGM
000633:                                                                                                  #        XDELVFLG        1=DELTA-V MANEUVER, 0=AIMPT STEER
000634:                                                                                                  #        F               THRUST FOR ENGINE USED
000635:                                                                                                  #    IF DELTA-V MANEUVER:
000636:                                                                                                  #        DELVSIN         SPECIFIED DELTA-V REQUIRED IN
000637:                                                                                                  #                        INERTIAL COORDS. OF ACTIVE VEHICLE
000638:                                                                                                  #                        AT TIME OF IGNITION             VECTOR B7 M/CS
000639:                                                                                                  #        DELVSAB         MAG. OF DELVSIN                 DP B7 M/CS
000640:                                                                                                  #        RTIG            POSITION AT TIME OF IGNITION    VECTOR B29 M
000641:                                                                                                  #        VTIG            VELOCITY AT TIME OF IGNITION    VECTOR B7 M/CS.
000642:                                                                                                  #    IF AIMPT STEER:
000643:                                                                                                  #        TIG             TIME OF IGNITION                DP B28 CS
000644:                                                                                                  #        RTARG           POSITION TARGET TIME            VECTOR B29 M
000645:                                                                                                  #        CSTEER          C FOR STEER LAW                 DP B2
000646:                                                                                                  #        DLTARG          TARGET TIME-IGNITION TIME       DP B28 CS
000647:
000648:                                                                                                  #  OUTPUT
000649:                                                                                                  #        UT              DESIRED THRUST DIRECTION        VECT. B2 M/(CS.CS)
000650:                                                                                                  #        VGTIG           INITIAL VALUE OF VELOCITY
000651:                                                                                                  #                        TO BE GAINED (INERT. COORD.)    VECTOR B7 M/CS
000652:                                                                                                  #        DELVLVC         VGTIG IN LOC. VERT. COORDS.     B7 M/CS
000653:                                                                                                  #        BDT             V REQUIRED AT TIG -V REQUIRED AT (TIG-2SEC)
000654:                                                                                                  #        -GDT            FOR S40.13                      VECT B7 M/CS
000655:                                                                                                  #        RTIG            CALC IN S40.1B (AIMPT) FOR S40.2,3      VECTOR B27M
000656:                                                                                                  #                        POSITION AT TIME OF IGNITION
000657:
000658:                                                                                                  #  DEBRIS        QTEMP1
000659:                                                                                                  #                MPAC, QPRET
000660:                                                                                                  #                PUSHLIST
000661:
000662: 14,2347                                           BANK     14
000663: 27,2000                                           SETLOC   P40S1
000664: 27,2000                                           BANK
000665:                                                                                                  #  Page 765
000666: 27,2246                                           COUNT*   $$/S40.1
000667: 27,2246           71220        S40.1              STQ      DLOAD
000668: 27,2247           03632                                    QTEMP
000669: 27,2250           03442                                    TIG
000670: 27,2251           03763                           STORE    TIGSAVE
000671: 27,2252           77614        DELVTEST           BOFF
000672: 27,2253           01347                                    XDELVFLG
000673: 27,2254           56336                                    S40.1B
000674: 27,2255           77201        CALCTHET           SETPD    VLOAD
000675: 27,2256           00001                                    0
000676: 27,2257           03650                                    VTIG
000677: 27,2260           02331                           STORE    VINIT
000678: 27,2261           53435                           VXV      UNIT
000679: 27,2262           03642                                    RTIG
000680: 27,2263           27673                           STOVL    UT                                    #  UP IN UT
000681: 27,2264           03642                                    RTIG
000682: 27,2265           02323                           STORE    RINIT
000683: 27,2266           65236                           VSQ      PDDL
000684: 27,2267           00045                                    36D
000685: 27,2270           56205                           DMP      DDV
000686: 27,2271           16412                                    THETACON
000687: 27,2272           41205                           DMP      DMP
000688: 27,2273           03664                                    DELVSAB
000689: 27,2274           01244                                    WEIGHT/G
000690: 27,2275           77671                           DDV
000691: 27,2276           03735                                    F
000692: 27,2277           24017                           STOVL    14D
000693: 27,2300           03656                                    DELVSIN
000694:
000695: 27,2301           74241                           DOT      VXSC
000696: 27,2302           03673                                    UT
000697: 27,2303           03673                                    UT
000698: 27,2304           41552                           VSL2     PUSH                                  #  (DELTAV.UP)UP SCALED AT 2(+7) P.D.L. 0
000699: 27,2305           65245                           BVSU     PDDL                                  #  DELTA VP SCALED AT 2(+7) P.D.L. 6
000700: 27,2306           03656                                    DELVSIN
000701: 27,2307           00017                                    14D
000702: 27,2310           63356                           SIN      PDVL
000703: 27,2311           00007                                    6D
000704: 27,2312           53435                           VXV      UNIT
000705: 27,2313           03673                                    UT
000706: 27,2314           45561                           VXSC     STADR
000707: 27,2315           50076                           STOVL    VGTIG                                 #  UNIT(VP X UP)SIN(THETAT/2) IN VGTIG.
000708: 27,2316           65256                           UNIT     PDDL                                  #  UNIT(DELTA VP) IN P.D.L. 6
000709: 27,2317           00017                                    14D
000710: 27,2320           74346                           COS      VXSC
000711: 27,2321           74255                           VAD      VXSC
000712: 27,2322           03701                                    VGTIG
000713: 27,2323           00045                                    36D
000714: 27,2324           53352                           VSL2     VAD
000715: 27,2325           77626                           STADR
000716:                                                                                                  #  Page 766
000717: 27,2326           74076                           STORE    VGTIG                                 #  VG IGNITION SCALED AT 2(+7) M/CS
000718:
000719: 27,2327           77656                           UNIT
000720: 27,2330           27673                           STOVL    UT                                    #  THRUST DIRECTION SCALED AT 2(+1)
000721: 27,2331           03701                                    VGTIG
000722: 27,2332           45006                           PUSH     CALL
000723: 27,2333           15741                                    GET.LVC                               #  VGTIG IN LV COOR AT 2(+7) M/CS IN DELVLVC
000724: 27,2334           77650                           GOTO
000725: 27,2335           03632                                    QTEMP
000726: 27,2336           77745        S40.1B             DLOAD
000727: 27,2337           03442                                    TIG
000728: 27,2340           00041                           STORE    TDEC1
000729: 27,2341           77621                           BDSU
000730: 27,2342           03631                                    TPASS4
000731: 27,2343           37452                           STCALL   DELLT4                                #  INTERCEPT TIME -- TIG.
000732: 27,2344           27056                                    LEMPREC
000733: 27,2345           40375                           VLOAD    SETPD                                 #  LOAD STATE VECTOR AT TIG FOR INITVEL.
000734: 27,2346           00001                                    RATT
000735: 27,2347           00001                                    0
000736: 27,2350           03642                           STORE    RTIG
000737: 27,2351           02323                           STORE    RINIT
000738: 27,2352           77656                           UNIT
000739: 27,2353           27537                           STOVL    UNIT/R/
000740: 27,2354           00007                                    VATT
000741: 27,2355           03650                           STORE    VTIG
000742: 27,2356           02331                           STORE    VINIT
000743: 27,2357           65345                           DLOAD    PDDL                                  #  NUMIT = 0
000744: 27,2360           06524                                    ZEROVECS
000745: 27,2361           16406                                    EPS1
000746: 27,2362           43214                           BOFF     DAD
000747: 27,2363           03745                                    NORMSW
000748: 27,2364           56366                                    SMALLEPS
000749: 27,2365           16410                                    EPS2                                  #  EPSILON4 = 10 DEGREES OR 45 DEGREES.
000750: 27,2366           66006        SMALLEPS           PUSH     SXA,1
000751: 27,2367           02776                                    RTX1
000752: 27,2370           45134                           SXA,2    CALL
000753: 27,2371           02777                                    RTX2
000754: 27,2372           22000                                    INITVEL
000755: 27,2373           41575                           VLOAD    PUSH
000756: 27,2374           02366                                    DELVEET3                              #  VGTIG = VR-VN.
000757: 27,2375           03701                           STORE    VGTIG
000758: 27,2376           77656                           UNIT                                           #  UT = UNIT (VGTIG)
000759: 27,2377           17673                           STODL    UT
000760: 27,2400           00045                                    36D
000761: 27,2401           37664                           STCALL   VGDISP                                #  CONVERT VGTIG (IN PUSHLIST) TO LOCAL
000762: 27,2402           15741                                    GET.LVC                               #  VERTICAL COORDINATES.
000763: 27,2403           77650                           GOTO
000764: 27,2404           03632                                    QTEMP
000765:
000766: 27,2405           00707 03434  EPS1               2DEC*    2.777777778 E-2*                       #  10 DEGREES AT 1 REVOLUTION
000767:                                                                                                  #  Page 767
000768: 27,2407           03070 34344  EPS2               2DEC*    9.722222222 E-2*                       #  35 DEGREES AT 1 REVOLUTION.
000769: 27,2411           00024 13714  THETACON           2DEC     .31830989  B-8
000770:
000771:                                                                                                  #  Page 768
000772:                                                                                                  #  SUBROUTINE NAME:  S40.2,3             MOD. NO. 3, DATE APRIL 4, 1967
000773:                                                                                                  #  MODIFICATION BY:  JONATHON D. ADDELSTON (ADAMS ASSOCIATES)
000774:                                                                                                  #  MOD. NO. 4:  JULY 18, 1967: PETER ADLER (MIT/IL)
000775:                                                                                                  #  MOD. NO. 5:  OCTOBER 18, 1967:  PETER ADLER (MIT/IL)
000776:                                                                                                  #  ORIGINALLY BY:  SAYDEAN ZELDIN (MIT INSTRUMENTATION LAB) AND RICHARD TALAYCO (SYSTEM DELVELOPMENT CORP)
000777:
000778:                                                                                                  #  S40.2,3 COMPUTES "POINTVSM" WHICH IS THE HALF-UNIT DESIRED THRUST VECTOR IN STABLE-MEMBER COORDINATES FROM "UT"
000779:                                                                                                  #  WHICH IS THE SAME VECTOR IN REFERENCE COORDINATES.  IT DETERMINES THE CORRECT VALUES FOR "SCAXIS" USING THE +X
000780:                                                                                                  #  AXIS FOR DPS, APS, AND RCS BURNS.  THE "WINGS-LEVEL HEADS-UP" LM ORIENTATION IS THEN COMPUTED IN REFERENCE
000781:                                                                                                  #  COORDINATES.  THESE VECTORS ALSO DEFINE THE "PREFERRED IMU ORIENTATION".  UPON COMPLETION OF THIS CALCULATION,
000782:                                                                                                  #  THE "PREFERRED ATTITUDE COMPUTED" FLAG IS SET (PFRATFLG).
000783:
000784:                                                                                                  #  CALLING SEQUENCE:
000785:                                                                                                  #        L       CALL                    # INTERPRETIVE CALL.
000786:                                                                                                  #        L +1            S40.2,3
000787:                                                                                                  #        L +2    (RETURN)                # GIMBAL ANGLE VECTOR IN MPAC.
000788:
000789:                                                                                                  #  SUBROUTINES CALLED:  NONE.
000790:
000791:                                                                                                  #  NORMAL RETURN:  L +2 (SEE CALLING SEQUENCE ABOVE).
000792:
000793:                                                                                                  #  ALARM/ABORT MODES:  NONE.
000794:
000795:                                                                                                  #  INPUT:
000796:                                                                                                  #        1.      REFSMMAT        MATRIX FROM REFERENCE TO STABLE-MEMBER COORDINATES SCALED AT 2.
000797:                                                                                                  #        2.      UT              HALF-UNIT DESIRED THRUST DIRECTION.
000798:                                                                                                  #        3.      RTIG            POSITION AT TIG IN REFERENCE COORDINATES.
000799:
000800:                                                                                                  #  OUTPUT:
000801:                                                                                                  #        1.      `XSCREF'        WINGS-LEVEL HEADS-UP LM ORIENTATION
000802:                                                                                                  #                `YSCREF'        IN REFERENCE COORDINATES
000803:                                                                                                  #                `ZSCREF'        (PREFERRED IMU ORIENTATION).
000804:                                                                                                  #        2.      POINTVSM        DESIRED THRUST DIRECTION IN STABLE-MEMBER COORDINATES.
000805:                                                                                                  #        3.      SCAXIS          HALF-UNIT OF AXIS TO ALIGN IN STABLE-MEMBER COORDINATES.
000806:                                                                                                  #        4.      PFRATFLG        INTERPRETIVE FLAG.  ON: PREFERRED ORIENTATION COMPUTED; OFF: NOT COMPUTED.
000807:
000808:                                                                                                  #  DEBRIS:  NONE
000809:                                                                                                  #  Page 769
000810:
000811: 27,2413                                           COUNT*   $$/S40.2
000812: 27,2413           77775        S40.2,3            VLOAD                                          #  UT:  DESIRED THRUST DIRECTION (HALF-UNIT)
000813: 27,2414           03673                                    UT                                    #  (PUT INTO TOP OF PUSH-DOWN-LIST.)
000814: 27,2415           76521                           MXV      VSL1                                  #  TRANSFORM THRUST DIRECTION TO STABLE-
000815: 27,2416           01734                                    REFSMMAT                              #  MEMBER FROM REFERENCE COORDS (RESCALE).
000816: 27,2417           27773                           STOVL    POINTVSM                              #  SAVE FOR "VECPOINT" ROUTINE (LEMMANU).
000817: 27,2420           06522                                    UNITX                                 #  SCAXIS SET TO +X, FOR P40 AND P42 AND
000818: 27,2421           27765                           STOVL    SCAXIS                                #  FOR P41 IF RCS NOT -X,+Y,-Y,+Z,-Z.
000819: 27,2422           03673                                    UT                                    #  ASSUME +X BURN ALWAYS, EVEN FOR RCS.
000820: 27,2423           03607        PLUSX              STORE    XSCREF                                #  XSCREF = UT (DESIRED THRUST DIRECTION)
000821: 27,2424           53435                           VXV      UNIT                                  #  RTIG = POSITION AT TIME-OF-IGNITION.
000822: 27,2425           03642                                    RTIG                                  #  YSCREF = UNIT(UT X RTIG)
000823: 27,2426           46125                           PDDL     BHIZ
000824: 27,2427           00045                                    36D                                   #  TEST MAGNITUDE OF UT X RTIG
000825: 27,2430           56441                                    FIXY                                  #  IF SMALL, USE UT X VTIG AS YSC
000826: 27,2431           45575        STORY              VLOAD    STADR
000827: 27,2432           74162                           STORE    YSCREF
000828: 27,2433           76435                           VXV      VSL1                                  #  COMPUTE (YSCREF X XCREF), BUT FOR A
000829: 27,2434           03607                                    XSCREF                                #  RIGHT HANDED SYSTEM, NEED (X CROSS Y).
000830: 27,2435           77676                           VCOMP                                          #  ZSCREF = - (YSCREF X XSCREF)
000831: 27,2436           03623                           STORE    ZSCREF                                #         = + (XSCREF X YSCREF)
000832:
000833: 27,2437           43414                           SET      RVQ
000834: 27,2440           01073                                    PFRATFLG
000835: 27,2441           47375        FIXY               VLOAD    VXV                                   #  IN THIS CASE,
000836: 27,2442           03607                                    XSCREF                                #  YSCREF = UNIT(XSCREF X VTIG)
000837: 27,2443           03650                                    VTIG
000838: 27,2444           41456                           UNIT     PUSH
000839: 27,2445           77650                           GOTO
000840: 27,2446           56431                                    STORY
000841:                                                                                                  #  Page 770
000842:                                                                                                  #  SUBROUTINE S40.8
000843:                                                                                                  #  MODIFIED APRIL 3, 1968 BY PETER ADLER, MIT/IL
000844:
000845:                                                                                                  #  DESCRIPTION
000846:                                                                                                  #        S40.8 UPDATES THE VELOCITY-TO-BE-GAINED VECTOR, VG, (AND FOR LAMBERT TARGETTED BURNS ALSO EXTRAPOLATES VG
000847:                                                                                                  #        USING THE BDT VECTOR) COMPUTES THE TIME FOR ISSUING THE ENGINE OFF COMMAND, TGO, AND CALLS THE ROUTINE
000848:                                                                                                  #        "FINDCDUW", WHICH GENERATES STEERING COMMANDS FOR THE DAP.
000849:
000850:                                                                                                  #  CALLING SEQUENCE
000851:                                                                                                  #        L-1     CALL
000852:                                                                                                  #        L               S40.8
000853:                                                                                                  #        L+1                     INTERPRETIVE RETURN
000854:
000855:                                                                                                  #  ALARM
000856:                                                                                                  #        IF VG.DELVREF IS NEGATIVE (VG AND DELVREF OVER 90 DEGREES APART), BYPASS TGO AND STEERING COMPUTATIONS
000857:                                                                                                  #        AND SET ALARM 1407.  RETURN TO CALLER NORMALLY.
000858:
000859:                                                                                                  #  INPUT AND INITIALIZATION
000860:                                                                                                  #        VGPREV          REFERENCE       2(7) M/CS
000861:                                                                                                  #        DELVREF         REFERENCE       2(7) M/CS
000862:                                                                                                  #        BDT             REFERENCE       2(7) M/CS
000863:                                                                                                  #        TDECAY          TAIL-OFF TIME   2(28) CS
000864:                                                                                                  #        XDELVFLG        1 = EXTERNAL DELTA-V; 0 = LAMBERT (AIMPOINT)
000865:                                                                                                  #        STEERSW         1 = DO STEERING AND TGO COMPUTATIONS; 0 = VG UPDATE ONLY
000866:                                                                                                  #        FIRSTFLG        1 = GONE TO LAMBERT AT LEAST ONCE; 0 = HAVEN'T GONE TO LAMBERT YET.
000867:
000868:                                                                                                  #  NOTE:  VGTIG EQUALS VGPREV
000869:
000870:                                                                                                  #  OUTPUT
000871:                                                                                                  #        STEERSW         SEE INPUT
000872:                                                                                                  #        INPULSW         1 = ENGINE OFF IN TGO CENTISECONDS; 0 = CONTINUE BURN
000873:                                                                                                  #        TGO             TIME TO CUT-OFF 2(28) CS
000874:                                                                                                  #        SEE FINDCDUW FOR STEERING OUTPUTS.
000875:
000876:                                                                                                  #  SUBROUTINE CALLED
000877:                                                                                                  #        FINDCDUW
000878:
000879:                                                                                                  #  DEBRIS
000880:                                                                                                  #        MPACS, PUSHLIST
000881:
000882: 27,2447                                           COUNT*   $$/S40.8
000883:                                                                                                  #  Page 771
000884: 27,2447           77614        S40.8              BOF                                            #  GENERATE VR IF NOT EXTERNAL DELTA-V BURN
000885: 27,2450           01347                                    XDELVFLG
000886: 27,2451           56731                                    RASTEER1
000887: 27,2452           52375                           VLOAD    VSU
000888: 27,2453           03701                                    VGPREV
000889: 27,2454           03527                                    DELVREF
000890: 27,2455           03707        VGAIN*             STORE    VG                                    #  VELOCITY TO BE GAINED SCALED AT (7) M/CS
000891: 27,2456           76521                           MXV      VSL1
000892: 27,2457           01734                                    REFSMMAT
000893: 27,2460           03253                           STORE    UNFC/2
000894: 27,2461           51575        BDTOK              VLOAD    ABVAL
000895: 27,2462           03707                                    VG
000896: 27,2463           03664                           STORE    VGDISP
000897: 27,2464           77201        TGDCALC            SETPD    VLOAD
000898: 27,2465           00001                                    0
000899: 27,2466           03707                                    VG
000900: 27,2467           27701                           STOVL    VGPREV
000901: 27,2470           03527                                    DELVREF
000902: 27,2471           57414                           BOFF     VCOMP
000903: 27,2472           01344                                    STEERSW
000904: 27,2473           00052                                    QPRET
000905: 27,2474           77656                           UNIT
000906: 27,2475           41441                           DOT      PUSH
000907: 27,2476           03707                                    VG
000908: 27,2477           56244                           BPL      DDV
000909: 27,2500           56526                                    ALARMIT                               #  DELV IS MORE THAN 90 DEGREES FROM VG.
000910: 27,2501           03743                                    VEX
000911: 27,2502           41215                           DAD      DMP
000912: 27,2503           06522                                    DPHALF
000913: 27,2504           56261                           SR       DDV
000914: 27,2505           20613                                    10D
000915: 27,2506           00045                                    36D
000916: 27,2507           43205                           DMP      DAD
000917: 27,2510           16535                                    -FOURDT
000918: 27,2511           03741                                    TDECAY
000919: 27,2512           03517                           STORE    TGO
000920: 27,2513           77615                           DAD
000921: 27,2514           01234                                    PIPTIME
000922: 27,2515           17442                           STODL    TIG
000923: 27,2516           03517                                    TGO
000924: 27,2517           51025                           DSU      BPL
000925: 27,2520           16537                                    FOURSECS                              #  400 CS
000926: 27,2521           61100                                    FINDCDUW   -2
000927: 27,2522           43014                           SET      CLRGO
000928: 27,2523           01066                                    IMPULSW
000929: 27,2524           01224                                    STEERSW
000930: 27,2525           00052                                    QPRET
000931:
000932: 27,2526           77776        ALARMIT            EXIT
000933:
000934:                                                                                                  #  Page 772
000935: 27,2527           05567                           TC       ALARM
000936: 27,2530           01407                           OCT      01407
000937: 27,2531           06042                           TC       INTPRET
000938: 27,2532           77650                           GOTO                                           #  SKIP TGO COMPUTATION BUT CALL FINDCDUW.
000939: 27,2533           61100                                    FINDCDUW   -2                         #  FINDCDUW WILL EXIT TO UPDATEVG +3.
000940:
000941: 27,2534           77715 77777  -FOURDT            2DEC     -800       B-18                       #  -4 (200 CS.) B(-18)
000942: 27,2536           00000 00620  FOURSECS           2DEC     400        B-28                       #  400 CS SCALED AT 2(+28) CS
000943: 27,2540  E7,1742               2VEXHUST           =        VEX
000944:
000945:                                                                                                  #  Page 773
000946:                                                                                                  #  NAME:                 S40.13 -- TIMEBURN
000947:
000948:                                                                                                  #  FUNCTION              (1) DETERMINE WHETHER A GIVEN COMBINATION OF VELOCITY TO
000949:                                                                                                  #                        BE GAINED AND ENGINE CHOICE RESULT IN A BURN TIME
000950:                                                                                                  #                        SUFFICIENT TO ALLOW STEERING AT THE VEHICLE DURING THE
000951:                                                                                                  #                        BURN
000952:                                                                                                  #                        (2) THE MAGNITUDE OF THE RESULTING BURN TIME -- IF IT
000953:                                                                                                  #                        IS SHORT -- AND THE ASSOCIATED TIME OF THE ENGINE OFF
000954:                                                                                                  #                        SIGNAL
000955:
000956:                                                                                                  #  CALLING SEQUENCE      VIA FINDVAC AS A NEW JOB
000957:
000958:                                                                                                  #  INPUT                 VGTIG -- VELOCITY TO BE GAINED VECTOR (METERS/CS) AT +7
000959:                                                                                                  #                        WEIGHT/G -- MASS OF VEHICLE IN KGM AT +16
000960:                                                                                                  #                        F -- APS ENGINE THRUST IN M.NEWTONS AT +7
000961:                                                                                                  #                                AND ALSO FOR RCS ENGINE
000962:                                                                                                  #                        MDOT -- RATE OF DECREASE OF VEHICLE MASS DURING ENGINE
000963:                                                                                                  #                                BURN IN KILOGRAMS/CS AT +3.  THIS SCALING MAY
000964:                                                                                                  #                                REQUIRE MODIFICATION FOR SATURN BURNS.
000965:                                                                                                  #                        ENG1FLAG -- SWITCH TO DECIDE WHETHER APS OR DPS ENGINE IS USED
000966:                                                                                                  #                                =0      DPS
000967:                                                                                                  #                                =1      APS
000968:
000969:                                                                                                  #  OUTPUT                IMPULSW         ZERO FOR STEERING
000970:                                                                                                  #                                        ONE FOR ATTITUDE HOLD
000971:                                                                                                  #                        NOTHROTL        ZERO FOR THROTTLING
000972:                                                                                                  #                                        ONE TO INHIBIT THROTTLING
000973:                                                                                                  #                        TGO             TIME TO BURN IN CS
000974:                                                                                                  #                        THE QUANTITY M.NEWTON = 10000 NEWTONS WILL BE USED TO EXPRESS
000975:                                                                                                  #                        FORCE.
000976:
000977: 27,2540  E7,1516                                  EBANK=   TGO
000978: 27,2540                                           COUNT*   $$/40.13
000979: 27,2540           06042        S40.13             TC       INTPRET
000980: 27,2541           43001                           SETPD    CLEAR
000981: 27,2542           00001                                    00D
000982: 27,2543           01266                                    IMPULSW                               #  ASSUME NO STEERING UNTIL FOUND OTHERWISE
000983: 27,2544           51575                           VLOAD    ABVAL
000984: 27,2545           03701                                    VGTIG                                 #  VELOCITY TO BE GAINED AT +7
000985: 27,2546           41325                           PDDL     DMP                                   #  00D = MAG OF VGTIG AT +7
000986: 27,2547           21006                                    4SEC(17)                              #  CORRECT VG FOR 4 SECS OF 2 JET ULLAGE
000987: 27,2550           34021                                    FRCS2
000988: 27,2551           72471                           DDV      SL1                                   #  SCALE
000989: 27,2552           01244                                    WEIGHT/G
000990: 27,2553           41421                           BDSU     PUSH
000991: 27,2554           43014                           BOFF     SET
000992: 27,2555           05342                                    APSFLAG
000993: 27,2556           56626                                    S40.13D                               #  FOR DPS ENGINE
000994: 27,2557           02463                                    NOTHROTL
000995: 27,2560           56345                           DLOAD    DDV                                   #  00D = MAG OF VGTIG CORRECTED
000996:                                                                                                  #  In the following line in the original program listing, +24 is crossed
000997:                                                                                                  #  out and +23 written in by hand.---RSB 2003
000998: 27,2561           16001                                    K1VAL                                 #  M.NEWTONS-CS AT +23
000999: 27,2562           01244                                    WEIGHT/G
001000: 27,2563           50021                           BDSU     BMN
001001:                                                                                                  #  Page 774
001002: 27,2564           00001                                    00D
001003: 27,2565           56610                                    S40.131                               #  TGO LESS THAN 100 CS
001004: 27,2566           41325                           PDDL     DMP                                   #  02D = TEMP1 AT +7
001005: 27,2567           03737                                    MDOT
001006:
001007:                                                                                                  #  MDOT REPRESENTS THE RATE OF DECREAS OF VEHICLE MASS DURING ENGINE
001008:                                                                                                  #  BURN IN KILOGRAMS/CS.  WHEN SATURN IS USED, THE SCALING MAY
001009:                                                                                                  #  REQUIRE ADJUSTMENT.
001010:
001011: 27,2570           16700                                    3.5SEC                                #  350 CS AT +14
001012: 27,2571           65221                           BDSU     PDDL
001013: 27,2572           01244                                    WEIGHT/G
001014: 27,2573           03735                                    F
001015: 27,2574           60405                           DMP      SR2                                   #  SCALE
001016: 27,2575           16702                                    5SECS
001017: 27,2576           41471                           DDV      PUSH                                  #  04D = TEMP2
001018: 27,2577           51021                           BDSU     BPL
001019: 27,2600           00003                                    02D
001020: 27,2601           56626                                    S40.13D
001021: 27,2602           55345                           DLOAD    BDDV
001022: 27,2603           43205                           DMP      DAD
001023: 27,2604           16702                                    5SECS
001024: 27,2605           16676                                    1SEC2D                                #  100 CS AT +14
001025: 27,2606           77650                           GOTO
001026: 27,2607           56616                                    S40.132
001027: 27,2610           41345        S40.131            DLOAD    DMP
001028: 27,2611           01244                                    WEIGHT/G
001029:                                                                                                  #  In the following line in the original program listing, PUSH is
001030:                                                                                                  #  hand-circled.---RSB 2003
001031: 27,2612           41542                           SR1      PUSH
001032: 27,2613           56215                           DAD      DDV
001033: 27,2614           16003                                    K2VAL                                 #  M.NEWTON CS AT +24
001034: 27,2615           16005                                    K3VAL                                 #  M.NEWTON (garbled) AT +10
001035: 27,2616           77414        S40.132            SET      EXIT
001036: 27,2617           01066                                    IMPULSW
001037: 27,2620           07262        S40.132*           TC       TPAGREE
001038: 27,2621           30154                           CA       MPAC
001039:                                                                                                  #  In the following line in the original program listing,
001040:                                                                                                  #  TS TGO +1 is hand-written in the comment area.---RSB 2003
001041: 27,2622           56001                           XCH      L
001042: 27,2623           34755                           CA       ZERO
001043:                                                                                                  #  In the original program listing, TS TGO is hand-written,
001044:                                                                                                  #  seemingly between CA ZERO and DXCH TGO.---RSB 2003.
001045: 27,2624           53517                           DXCH     TGO
001046: 27,2625           12650                           TCF      S40.134
001047:
001048: 27,2626           41345        S40.13D            DLOAD    DMP                                   #  FOR DPS ENGINE
001049: 27,2627           00001                                    00D
001050: 27,2630           01244                                    WEIGHT/G
001051: 27,2631           43006                           PUSH     BON
001052: 27,2632           05302                                    APSFLAG
001053: 27,2633           56671                                    APSTGO
001054: 27,2634           43071                           DDV      CLEAR
001055: 27,2635           16007                                    S40.136
001056: 27,2636           02663                                    NOTHROTL
001057: 27,2637           41400                           BOV      PUSH
001058:                                                                                                  #  Page 775
001059: 27,2640           56653                                    S40.130V
001060: 27,2641           51025        S40.127            DSU      BPL
001061: 27,2642           16704                                    6SEC                                  #  600.0 CS AT +14
001062: 27,2643           56661                                    S40.138
001063: 27,2644           52015                           DAD      GOTO
001064: 27,2645           16704                                    6SEC
001065: 27,2646           56616                                    S40.132
001066: 27,2647           77776        S40.133            EXIT
001067: 27,2650           05353        S40.134            TC       PHASCHNG
001068: 27,2651           00003                           OCT      00003
001069: 27,2652           05155                           TC       ENDOFJOB
001070: 27,2653           40545        S40.130V           DLOAD    SR4                                   #  RECOMPUTED TGO IN TIMER UNITS
001071: 27,2654           77671                           DDV
001072: 27,2655           16011                                    S40.136_                              #  S40.136 SHIFTED LEFT 10
001073: 27,2656           03517                           STORE    TGO
001074: 27,2657           77776                           EXIT
001075: 27,2660           12650                           TCF      S40.134                               #  REJOIN COMMON CODING FOR RESTART PROTECT
001076:
001077: 27,2661           51025        S40.138            DSU      BPL
001078: 27,2662           16706                                    89SECS
001079: 27,2663           56666                                    STORETGO
001080: 27,2664           77614                           SET
001081: 27,2665           02463                                    NOTHROTL
001082: 27,2666           77745        STORETGO           DLOAD                                          #  LOAD TGO AT 2(14)
001083: 27,2667           77776                           EXIT
001084: 27,2670           12620                           TCF      S40.132*
001085:
001086: 27,2671           62471        APSTGO             DDV      SL2
001087: 27,2672           34007                                    FAPS
001088: 27,2673           77650                           GOTO
001089: 27,2674           56667                                    STORETGO   +1
001090: 27,2675           00144 00000  1SEC2D             2DEC     100.0      B-14                       #  100.0 CS AT +14
001091: 27,2677           01274 00000  3.5SEC             2DEC     350.0      B-13                       #  350 CS AT +13
001092: 27,2701           00764 00000  5SECS              2DEC     500.0      B-14                       #  500.0 CS AT +14
001093: 27,2703           01130 00000  6SEC               2DEC     600.0      B-14                       #  600.0 CS AT +14
001094: 27,2705           21304 00000  89SECS             2DEC     8900.0     B-14
001095:
001096:                                                                                                  #  FUNCTION              (1) GENERATES REQUIRED VELOCITY AND VELOCITY-TO-BE-GAINED
001097:                                                                                                  #                        VECTORS FOR USE DURING AIMPOINT MANEUVERS EVERY TWO
001098:                                                                                                  #                        COMPUTATION CYCLES (4 SECONDS).
001099:                                                                                                  #                        (2) UPDATES THE B VECTOR WHICH IS USED IN THE FINAL
001100:                                                                                                  #                        CALCULATION OF EXTRAPOLATING THE VELOCITY-TO-BE-GAINED
001101:                                                                                                  #                        THROUGH ONE 2-SECOND INTERVAL INTO THE FUTURE.
001102:
001103:                                                                                                  #  CALLING SEQUENCE      VIA FINDVAC AS NEW JOB.
001104:
001105:                                                                                                  #  INPUT                 RN      ACTIVE VEHICLE RADIUS VECTOR IN METERS AT +29
001106:                                                                                                  #                        VN      ACTIVE VEHICLE VELOCITY VECTOR IN METERS/CS AT +7
001107:                                                                                                  #  Page 776
001108:                                                                                                  #                        VPREV   LAST COMPUTED VELOCITY REQUIRED VECTOR IN
001109:                                                                                                  #                                METERS/CS AT +7.
001110:                                                                                                  #                        TIG     TIME OF IGNITION IN CS AT +28.
001111:                                                                                                  #                        DLTARG  COMPUTATION CYCLE INTERVAL = 200 CS AT +28.
001112:                                                                                                  #                        PIPTIME TIME OF RN AND VN IN CS AT +28.
001113:                                                                                                  #                        GDT/2   HALF OF VELOCITY GAINED IN DELTA T TIME DUE TO
001114:                                                                                                  #                                ACELERATION OF GRAVITY IN METERS/CS AT +7.
001115:                                                                                                  #                        DELVREF CHANGE IN VELOCITY DURING LAST 2 SEC IN
001116:                                                                                                  #                                METERS/CS AT +7.
001117:
001118:                                                                                                  #  OUTPUT                VGPREV  VELOCITY TO BE GAINED VECTOR IN METERS/CS AT +7.
001119:                                                                                                  #                        VGDISP  MAG OF VGPREV FOR DISPLAY PURPOSES.
001120:                                                                                                  #                        VRPREV  VELOCTY REQUIRED VECTOR IN METERS/CS AT +7.
001121:                                                                                                  #                        BDT     B VECTOR IN METERS/CS AT +7.
001122:
001123:                                                                                                  #  SUBROUTINES USED      INITVEL
001124:
001125: 27,2707  E7,1700                                  EBANK=   VGPREV
001126: 27,2707                                           COUNT*   $$/S40.9
001127: 27,2707           06042        S40.9              TC       INTPRET
001128: 27,2710           77601                           SETPD
001129: 27,2711           00001                                    00D
001130: 27,2712           71214                           SET      DLOAD
001131: 27,2713           01072                                    AVFLAG                                #  SET AVFLAG FOR LEM ACTIVE
001132: 27,2714           06524                                    HI6ZEROS
001133: 27,2715           77725                           PDDL
001134: 27,2716           16406                                    EPS1
001135: 27,2717           43214                           BOFF     DAD                                   #  EPSILON4 = 10 OR 45 DEGREES.
001136: 27,2720           03745                                    NORMSW
001137: 27,2721           56723                                    EPSSMALL
001138: 27,2722           16410                                    EPS2
001139: 27,2723           45006        EPSSMALL           PUSH     CALL
001140: 27,2724           22002                                    HAVEGUES
001141: 27,2725           77776        ENDS40.9           EXIT
001142: 27,2726           05353                           TC       PHASCHNG
001143: 27,2727           00002                           OCT      2
001144: 27,2730           15155                           TCF      ENDOFJOB
001145:
001146: 27,2731           51575        RASTEER1           VLOAD    ABVAL
001147: 27,2732           01220                                    RN
001148: 27,2733           53744                           LXC,2    SL*
001149: 27,2734           02777                                    RTX2
001150: 27,2735           57576                                    0,2
001151: 27,2736           27715                           STOVL    RMAG
001152: 27,2737           03444                                    RTARG
001153: 27,2740           47051                           VSU      RTB
001154: 27,2741           01220                                    RN
001155: 27,2742           21725                                    NORMUNX1
001156: 27,2743           17656                           STODL    IC
001157: 27,2744           00045                                    36D                                   #  C(36D) = ABVAL(C)
001158: 27,2745           53674                           XAD,2    SL*
001159: 27,2746           00046                                    X1
001160:                                                                                                  #  Page 777
001161: 27,2747           57576                                    0,2
001162: 27,2750           00037                           STORE    30D
001163: 27,2751           41301                           NORM     DMP
001164: 27,2752           00050                                    X2
001165: 27,2753           03715                                    RMAG
001166: 27,2754           57101                           NORM     XAD,2
001167: 27,2755           00047                                    X1
001168: 27,2756           00046                                    X1
001169: 27,2757           77734                           SXA,2
001170: 27,2760           03766                                    MUSCALE
001171: 27,2761           17725                           STODL    R1C
001172: 27,2762           00037                                    30D
001173: 27,2763           65342                           SR1      PDDL
001174: 27,2764           03715                                    RMAG
001175: 27,2765           65342                           SR1      PDDL
001176: 27,2766           03723                                    RTMAG
001177: 27,2767           43342                           SR1      DAD
001178: 27,2770           45415                           DAD      STADR
001179: 27,2771           74044                           STORE    SS                                    #  SS = (R1 + R2 + C)/2
001180: 27,2772           41225                           DSU      DMP
001181: 27,2773           00037                                    30D
001182: 27,2774           03721                                    MU/A
001183: 27,2775           77621                           BDSU
001184: 27,2776           03717                                    MUASTEER
001185:                                                                                                  #  In the original program listing, the following line has a hand-written
001186:                                                                                                  #  comment which appears to be something like
001187:                                                                                                  #              (S - C) u
001188:                                                                                                  #        ( u - --------- )
001189:                                                                                                  #                 2 a
001190:                                                                                                  #  where `u' represents a lower-case Greek MU.  Other similar handwritten
001191:                                                                                                  #  comments are included below without further apology.---RSB 2003.
001192: 27,2777           45325                           PDDL     DSU
001193: 27,3000           03733                                    SS
001194: 27,3001           03715                                    RMAG                                  #  (S-R) is written in by hand.
001195: 27,3002           70501                           NORM     SR1
001196: 27,3003           00047                                    X1                                    #    (S - R)       u (S - C)
001197: 27,3004           41271                           DDV      DMP                                   #  2 ------- ( u - --------- )
001198: 27,3005           03725                                    R1C                                   #      R C            2 a
001199: 27,3006           53664                           XSU,2    SL*
001200: 27,3007           00046                                    X1
001201: 27,3010           57575                                    1,2
001202: 27,3011           77754                           LXA,2                                          #         2 (S - R)      u (S - C)
001203: 27,3012           03766                                    MUSCALE                               #  SQRT ( --------- (u - --------- ) )
001204: 27,3013           75366                           SQRT     SIGN                                  #            R C            2 a
001205: 27,3014           02673                                    GEOMSGN                               #  (GEOMSGN = SGNA)
001206: 27,3015           00041                           STORE    32D                                   #  + OR - A
001207:                                                                                                  #                   2 (S - R)      u (S - C)
001208:                                                                                                  #  A = SGNA (SQRT ( --------- (u - ---------) ) )
001209:                                                                                                  #                      R C            2 a
001210: 27,3016           41345                           DLOAD    DMP
001211: 27,3017           03733                                    SS
001212: 27,3020           03721                                    MU/A                                  #      u S
001213: 27,3021           77621                           BDSU                                           #  u - ___
001214: 27,3022           03717                                    MUASTEER                              #      2 a
001215: 27,3023           45325                           PDDL     DSU
001216: 27,3024           03733                                    SS
001217: 27,3025           03723                                    RTMAG
001218: 27,3026           70501                           NORM     SR1
001219: 27,3027           00047                                    X1                                    #  2 (S - R T)       u S
001220: 27,3030           41271                           DDV      DMP                                   #  ----------- ( u - --- )
001221:                                                                                                  #      R C           2 a
001222:                                                                                                  #  Page 778
001223: 27,3031           03725                                    R1C
001224: 27,3032           53664                           XSU,2    SL*
001225: 27,3033           00046                                    X1
001226: 27,3034           57575                                    1,2
001227: 27,3035           65366                           SQRT     PDDL                                  #  -B (NO SIGN)
001228: 27,3036           03733                                    SS
001229: 27,3037           56225                           DSU      DDV
001230: 27,3040           00037                                    30D
001231: 27,3041           03733                                    SS
001232: 27,3042           41566                           SQRT     PUSH
001233: 27,3043           67542                           SR1      ASIN                                  #  ASIN ( SQRT (S-C)/S ) )
001234: 27,3044           65205                           DMP      PDDL
001235: 27,3045           17216                                    2PI+3
001236: 27,3046           56325                           PDDL     DDV
001237: 27,3047           00037                                    30D
001238: 27,3050           03733                                    SS
001239: 27,3051           77600                           BOV                                            #  SQRT (C/S) SQRT ( (S-C)/S )
001240: 27,3052           57053                                    +1
001241: 27,3053           41366                           SQRT     DMP                                   #  SQRT(C/S) SQRT((S-C)/S) = (1/S) SQRT(C(S-C))
001242: 27,3054           44242                           SR3      BDSU
001243: 27,3055           65365                           SIGN     PDDL
001244: 27,3056           02673                                    GEOMSGN                               #  SGNA( ARCSIN( SQRT((S-C)/S) ) - (1/S) SQRT(C(S-C)) )
001245: 27,3057           17216                                    2PI+3
001246: 27,3060           45302                           SR2      DSU                                   #  (C/S) (PI/2 - SGNA(                           ) )
001247: 27,3061           65205                           DMP      PDDL
001248: 27,3062           03733                                    SS
001249: 27,3063           03733                                    SS                                    #                    3
001250: 27,3064           75442                           SR3      SQRT                                  #  S SQRT(S) = SQRT(S )
001251: 27,3065           77605                           DMP
001252: 27,3066           52525                           PDDL     SL3                                   #         3
001253: 27,3067           03717                                    MUASTEER                              #        S
001254: 27,3070           55366                           SQRT     BDDV                                  #  SQRT(---)
001255: 27,3071           43225                           DSU      DAD                                   #       2 u
001256: 27,3072           03631                                    TPASS4                                #  TMIN ENERGY
001257: 27,3073           01234                                    PIPTIME
001258: 27,3074           14037                           STODL    30D                                   #  (t  - t  )
001259: 27,3075           77765                           SIGN                                           #    M    2
001260: 27,3076           00037                                    30D                                   #  B WITH SIGN
001261: 27,3077           00037                           STORE    30D
001262: 27,3100           77214                           BON      VLOAD
001263: 27,3101           03705                                    NORMSW
001264: 27,3102           57123                                    180MESS
001265: 27,3103           03656                                    IC
001266: 27,3104           53451                           VSU      UNIT
001267: 27,3105           03537                                    UNIT/R/
001268: 27,3106           63361                           VXSC     PDVL                                  #  UNCM
001269: 27,3107           00037                                    30D                                   #  B UNCM
001270: 27,3110           03656                                    IC
001271: 27,3111           53455                           VAD      UNIT
001272: 27,3112           03537                                    UNIT/R/                               #  VNC
001273:                                                                                                  #  Page 779
001274: 27,3113           53361        GETVRVG1           VXSC     VAD
001275: 27,3114           00041                                    32D                                   #  A UNCP
001276: 27,3115           53744        GETVRVG2           LXC,2    VSR*
001277: 27,3116           02777                                    RTX2
001278: 27,3117           57177                                    0          -1,2
001279: 27,3120           02337                           STORE    VIPRIME
001280: 27,3121           77650                           GOTO
001281: 27,3122           57166                                    ASTREND    -2
001282: 27,3123           50375        180MESS            VLOAD    DOT
001283: 27,3124           03656                                    IC
001284: 27,3125           03537                                    UNIT/R/
001285: 27,3126           77240                           BMN      VLOAD
001286: 27,3127           57146                                    NEGPROD
001287: 27,3130           03656                                    IC
001288: 27,3131           63362                           VSR1     PDVL
001289: 27,3132           03537                                    UNIT/R/
001290: 27,3133           53362                           VSR1     VAD
001291: 27,3134           77656                           UNIT
001292: 27,3135           57406                           PUSH     VCOMP                                 #  FOR A
001293: 27,3136           75235                           VXV      SIGN
001294: 27,3137           02674                                    UN
001295: 27,3140           02673                                    GEOMSGN
001296: 27,3141           74256                           UNIT     VXSC
001297: 27,3142           00037                                    30D
001298: 27,3143           77715                           PDVL                                           #  UNIT(IC-IR)   +-B
001299: 27,3144           77650                           GOTO
001300: 27,3145           57113                                    GETVRVG1
001301: 27,3146           74575        NEGPROD            VLOAD    VSR1
001302: 27,3147           03537                                    UNIT/R/
001303: 27,3150           74515                           PDVL     VSR1
001304: 27,3151           03656                                    IC
001305: 27,3152           53451                           VSU      UNIT
001306: 27,3153           77606                           PUSH
001307: 27,3154           75235                           VXV      SIGN
001308: 27,3155           02674                                    UN                                    #  FOR B
001309: 27,3156           02673                                    GEOMSGN
001310: 27,3157           74256                           UNIT     VXSC
001311: 27,3160           00041                                    32D
001312: 27,3161           77715                           PDVL
001313: 27,3162           53361                           VXSC     VAD
001314: 27,3163           00037                                    30D
001315: 27,3164           77650                           GOTO
001316: 27,3165           57115                                    GETVRVG2
001317: 27,3166           77651                           VSU
001318: 27,3167           03553                                    VN1
001319: 27,3170           02366        ASTREND            STORE    DELVEET3
001320: 27,3171           53135        FIRSTTME           SLOAD    BZE
001321: 27,3172           03000                                    RTX2
001322: 27,3173           57177                                    GETGOBL
001323: 27,3174           52175                           VLOAD    GOTO                                  #  NO OBLATENESS COMP IF IN MOON SPHERE
001324:                                                                                                  #  Page 780
001325: 27,3175           02366                                    DELVEET3
001326: 27,3176           57212                                    NOGOBL
001327:                                                                                                  #  In the original program listing, VLOAD UNIT RN below is circled, and connected to the
001328:                                                                                                  #  comment after 34D ("34D = /RN/ etc.") with an arrow.---RSB 2003.
001329: 27,3177           53575        GETGOBL            VLOAD    UNIT                                  #  CALCULATE OBLATENESS TERM.
001330: 27,3200           01220                                    RN
001331: 27,3201           45345                           DLOAD    DSU
001332: 27,3202           01234                                    PIPTIME                               #               2
001333: 27,3203           03512                                    GOBLTIME                              #  G    = -(MU/R )(UNITGOBL)(T-TIG)
001334: 27,3204           56205                           DMP      DDV                                   #   OBL
001335: 27,3205           16023                                    EARTHMU
001336: 27,3206           00043                                    34D                                   #  34D = /RN/ (2) FROM UNIT OPERATION.
001337: 27,3207           53361                           VXSC     VAD
001338: 27,3210           03521                                    UNITGOBL
001339: 27,3211           02366                                    DELVEET3                              #  OUTPUT FROM INITVEL VG = VR - VN
001340: 27,3212           02366        NOGOBL             STORE    DELVEET3                              #  VG = VR + GOBL - VN
001341: 27,3213           77650                           GOTO
001342: 27,3214           56455                                    VGAIN*
001343:
001344: 27,3215           31103 36652  2PI+3              2DEC     3.141592653 B-2
001345:
001346:                                                                                                  #  Page 781
001347:                                                                                                  #  TRIMGIMB      (FORMERLY S40.6)
001348:                                                                                                  #  MOD 0         24 FEB 67       PETER ADLER
001349:
001350:                                                                                                  #  FUNCTION:
001351:                                                                                                  #        TRIMS DPS ENGINE TO MINIMIZE THRUST/CG OFFSET.  ENGINE IS GIMBALLED TO FULL + PITCH AND + ROLL (TO LOCK)
001352:                                                                                                  #        FOR REFERENCE AND IS THEN BROUGHT BACK TO TRIM POSITION BY RUNNING FOR THE PROPER TIMES (TO BE
001353:                                                                                                  #        SPECIFIED BY GAEC) IN - PITCH AND - ROLL.
001354:
001355:                                                                                                  #  CALLING SEQUENCE:
001356:                                                                                                  #        VIA WAITLIST FROM R03
001357:
001358:                                                                                                  #  INPUT:
001359:                                                                                                  #        PITTIME         TIME TO RUN FROM FULL + PITCH TO TRIM (CS)
001360:                                                                                                  #        ROLLTIME        TIME TO RUN FROM FULL + ROLL TO TRIM (CS)
001361:
001362:                                                                                                  #  SUBROUTINES USED:
001363:                                                                                                  #        WAITLIST, FIXDELAY, VARDELAY, FLAGUP, FLAGDOWN, NOVAC
001364:
001365: 27,3217                                           COUNT*   $$/S40.6
001366: 27,3217  E6,1401                                  EBANK=   ROLLTIME                              #  OCTAL MASKS: PRIO5=05000 EBANK5=02400
001367:
001368: 27,3217           05516        TRIMGIMB           TC       DOWNFLAG                              #  GMBDRVSW FLAG IS SET WHEN EITHER ROLL OR
001369: 27,3220           00137                           ADRES    GMBDRVSW                              #  PITCH IS COMPLETED, WHICHEVER IS FIRST.
001370:
001371: 27,3221           45017                           CS       PRIO5                                 #  TURN OFF - PITCH, - ROLL, IF ON.
001372: 27,3222           00006                           EXTEND
001373: 27,3223           03012                           WAND     CHAN12
001374: 27,3224           35014                           CAF      EBANK5                                #  TURN ON + PITCH, + ROLL.
001375: 27,3225           00006                           EXTEND
001376: 27,3226           05012                           WOR      CHAN12
001377: 27,3227           05221                           TC       FIXDELAY                              #  WAIT ONE MINUT TO MAKE SURE ENGINE IS
001378: 27,3230           13560                           DEC      6000       B-14                       #  AT FULL + PITCH AND FULL + ROLL
001379: 27,3231           45014                           CS       EBANK5                                #  TURN OFF + PITCH, + ROLL.
001380: 27,3232           00006                           EXTEND
001381: 27,3233           03012                           WAND     CHAN12
001382: 27,3234           35017                           CAF      PRIO5                                 #  TURN ON - PITCH, - ROLL.
001383: 27,3235           00006                           EXTEND
001384: 27,3236           05012                           WOR      CHAN12
001385: 27,3237           31402                           CAE      PITTIME                               #  GET TIME TO SHUT OFF - PITCH AND SET UP
001386: 27,3240           05173                           TC       TWIDDLE                               #  TWIDDLE-TASK TO TURN IT OFF THEN
001387: 27,3241           03260                           ADRES    PITCHOFF
001388:
001389: 27,3242           31401                           CAE      ROLLTIME                              #  GET TIME TO SHUT OFF - ROLL AND GO AWAY
001390: 27,3243           05224                           TC       VARDELAY                              #  UNTIL THEN
001391: 27,3244           44740                           CS       BIT12
001392: 27,3245           00006                           EXTEND
001393: 27,3246           03012                           WAND     CHAN12                                #  SHUT OFF ROLL
001394: 27,3247           30102        ROLLOVER           CA       FLAGWRD6                              #  IF HERE INLINE (ROLL DONE) IS PITCH DONE
001395: 27,3250           74742                           MASK     GMBDRBIT                              #  IF HERE FROM PITCHOFF, IS ROLL DONE?
001396: 27,3251           00006                           EXTEND
001397: 27,3252           13264                           BZF      PITCHOFF   +4                         #  NO.  SET FLAG, ROLL OR PITCH DONE.
001398: 27,3253           34737                           CAF      PRIO10                                #  RETURN TO R03.
001399: 27,3254           05072                           TC       NOVAC
001400: 27,3255  E7,1471                                  EBANK=   WHOCARES
001401:                                                                                                  #  Page 782
001402: 27,3255           02325 02067                     2CADR    TRIMDONE
001403:
001404: 27,3257           05261                           TC       TASKOVER
001405: 27,3260           44742        PITCHOFF           CS       BIT10
001406: 27,3261           00006                           EXTEND
001407: 27,3262           03012                           WAND     CHAN12                                #  SHUT OFF PITCH
001408: 27,3263           13247                           TCF      ROLLOVER                              #  SEE IF ROLL HAS FINISHED ALSO.
001409: 27,3264           05504                           TC       UPFLAG                                #  ROLL DONE; OR PITCH DONE; BUT NOT BOTH.
001410: 27,3265           00137                           ADRES    GMBDRVSW
001411: 27,3266           05261                           TC       TASKOVER
001412:
001413:                                                                                                  #  Page 783
001414:                                                                                                  #  SUBROUTINE NAME:  S41.1       MOD. NO. 0      DATE: FEBRUARY 28, 1967
001415:                                                                                                  #  MOD. NO. 1    DATE: JANUARY 23, 1968, BY PETER ADLER (MIT/IL)
001416:
001417:                                                                                                  #  AUTHOR: JONATHON D. ADDLESTON (ADAMS ASSOCIATES)
001418:
001419:                                                                                                  #  S41.1 PERFORMS THE COORDINATE SYSTEM TRANSFORMATION FROM THE REFERENCE FRAME TO THE BODY OF THE LM.
001420:                                                                                                  #  SPECIFICALLY, IT IS USED TO TRANSFORM A VELOCITY (SCALED AT 2(+7) METERS/CENTISECOND) FROM REFERENCE TO LM AXIS
001421:                                                                                                  #  COORDINATES.  FIRST THE VECTOR IS TRANSFORMED TO THE STABLE MEMBER COORDINATES BY THE MATRIX REFSMMAT.  THIS
001422:                                                                                                  #  LEAVES THE VECTOR IN MPAC, SCALED AT 2(+8) METERS/CENTISECOND.  THEN
001423:                                                                                                  #  THE SUBROUTINE CDUTRIG IS CALLED TO SET UP THE DOUBLE-PRECISION CDU VECTOR ALONG WITH ITS SINES AND COSINES.
001424:                                                                                                  #  THE VECTOR IS THEN TRANSFORMED FROM STABLE MEMBER COORDINATES TO SPACECRAFT (OR LM) COORDINATES BY THE
001425:                                                                                                  #  SUBROUTINE *SMNB*.  FINALLY, THE VECTOR IS RESCALED TO 2(+7) METERS/CENTISECOND, AND CONTROL IS RETURNED BO THE
001426:                                                                                                  #  CALLER WITH C(MPAC) = VELOCITY(LM).
001427:
001428:                                                                                                  #  CALLING SEQUENCE:
001429:                                                                                                  #        L       VLOAD   CALL
001430:                                                                                                  #        L +1            VELOCITY(REF)           # SCALED AT 2(+7) M/CS IN REFERENCE COORDS.
001431:                                                                                                  #        L +2            S41.1
001432:                                                                                                  #        L +3    STORE   VELOCITY(LM)            # SCALED AT 2(+7) M/CS IN LM BODY AXIS SYS.
001433:
001434:                                                                                                  #  SUBROUTINES CALLED:
001435:                                                                                                  #        1.      CDUTRIG,
001436:                                                                                                  #                        WHICH CALLS CDULOGIC.
001437:                                                                                                  #        2.      *SMNB*
001438:
001439:                                                                                                  #  NORMAL RETURN:  L +3 (SEE CALLING SEQUENCE, ABOVE.)
001440:
001441:                                                                                                  #  ALARM/ABORT MODES:  NONE.
001442:
001443:                                                                                                  #  RESTART PROTECTION:  NONE.
001444:
001445:                                                                                                  #  Page 784
001446:                                                                                                  #  INPUT:
001447:                                                                                                  #        1.      REFSMMAT.
001448:                                                                                                  #        2.      CDUX, CDUY, CDUZ.
001449:                                                                                                  #        3.      VELOCITY (REF) IN MPAC.
001450:
001451:                                                                                                  #  OUTPUT:
001452:                                                                                                  #        1.      CSUSPCT:        DOUBLE PRECISION CDU VECTOR, ORDERED Y,Z,X.
001453:                                                                                                  #        2.      SINCDU:         HALF SINES OF CDUSPCT COMPONENTS
001454:                                                                                                  #        3.      COSCDU:         HALF COSINES OF CDUSPOT COMPONENTS.
001455:                                                                                                  #        4.      MPAC:           VELOCITY(LM) (SCALED AT 2(+7) METERS/CENTISECOND)
001456:
001457:                                                                                                  #  DEBRIS:  NONE.
001458:
001459:                                                                                                  #  CHECKOUT STATUS:  CODED
001460:
001461: 27,3267                                           COUNT*   $$/S41.1
001462: 27,3267           76521        S41.1              MXV      VSL1                                  #  CONVERT VECTOR IN MPAC FROM REF AT 2(+7)
001463: 27,3270           01734                                    REFSMMAT                              #  TO SM AND RESCALE DUE TO HALF-UNIT MATRIX
001464: 27,3271           77650                           GOTO                                           #  CONVERT TO BODY AT 2(+7) USING PRESENT
001465: 27,3272           47650                                    CDU*SMNB                              #  CDU ANGLES.  CDU*SMNB WILL RETURN
001466:                                                                                                  #  VIA RVQ TO THE CALLER OF S41.1.

End of include-file P40-P47.agc.  Parent file is MAIN.agc


