
Source Code


000002:                                                                                                  ## Copyright:   Public domain.
000003:                                                                                                  ## Filename:    P40-P47.agc
000004:                                                                                                  ## Purpose:     A section of Luminary 1C, revision 131.
000005:                                                                                                  ##              It is part of the source code for the Lunar Module's (LM)
000006:                                                                                                  ##              Apollo Guidance Computer (AGC) for Apollo 13.
000007:                                                                                                  ##              This file is intended to be a faithful transcription, except
000008:                                                                                                  ##              that the code format has been changed to conform to the
000009:                                                                                                  ##              requirements of the yaYUL assembler rather than the
000010:                                                                                                  ##              original YUL assembler.
000011:                                                                                                  ## Reference:   pp. 747-779
000012:                                                                                                  ## Contact:     Ron Burkey <info@sandroid.org>.
000013:                                                                                                  ## Website:     www.ibiblio.org/apollo
000014:                                                                                                  ## Mod history: 05/24/03 RSB.   Began transcribing.
000015:                                                                                                  ##              2010-01-05 JL   Fixed indentation of STADR instruction.
000016:                                                                                                  ##              2016-12-01 RSB  There were a number of "modern" comments about hand-written
000017:                                                                                                  ##                              notations, which I had added back in 2003, but whiche never
000018:                                                                                                  ##                              got converted to ##-style.  However, after having changed them
000019:                                                                                                  ##                              to ##-style, they no longer worked properly after being rendered
000020:                                                                                                  ##                              to html, so they had to be considerably reworked to fix that.
000021:                                                                                                  ##              2017-01-06 RSB  Page numbers now agree with those on the
000022:                                                                                                  ##                              original harcopy, as opposed to the PDF page
000023:                                                                                                  ##                              numbers in 1701.pdf.
000024:                                                                                                  ##              2017-02-25 RSB  Proofed comment text using octopus/ProoferComments.
000025:                                                                                                  ##              2017-02-28 RSB  Fixed lingering typos.
000026:


000028:                                                                                                  #  PROGRAM DESCRIPTION  F40BOTH          DECEMBER 22, 1966
000029:                                                                                                  #  MOD 03 BY PETER ADLER                 MARCH 3, 1967
000030:                                                                                                  #  CALLED VIA JOB FROM V37E
000031:
000032:                                                                                                  #  FUNCTIONAL DESCRIPTION
000033:                                                                                                  #        1)      TO COMPUTE A PREFERRED IMU ORIENTATION AND A PREFERRED VEHICLE ATTITUDE FOR A LM DPS
000034:                                                                                                  #                THRUSTING MANEUVER.


000036:                                                                                                  #        3)      TO DO THE VEHICLE MANEUVER TO THE THRUSTING ATTITUDE.
000037:                                                                                                  #        4)      TO CONTROL THE PGNCS DURING COUNTDOWN, IGNITION, THRUSTING, AND THRUST TERMINATION OF A
000038:                                                                                                  #                PGNCS CONTROLLED DPS MANEUVER.
000039:                                                                                                  #        5)      IN POSTBURN -- ZERO RENDEZVOUS COUNTER, MAINTAIN VG CALCULATIONS FOR POSSIBLE RCS MANEUVER,
000040:                                                                                                  #                SET MAXIMUM DEADBAND IN DAP, RESET STEERLAW CSTEER TO ZERO.
000041:                                                                                                  #        NOTE:   P42, WHICH IS IN THIS LOG SECTION, DOES THE SAME FOR AN APS BURN, AND P41 DOES 1-3 FOR
000042:                                                                                                  #                RCS PLUS DISPLAYS PARAMETERS FOR MANUAL CONTROL.
000043:
000044:                                                                                                  #  SUBROUTINES USED
000045:                                                                                                  #        R02             IMU STATUS CHECK
000046:                                                                                                  #        S40.1           COMPUTATION OF THRUST DIRECTION
000047:                                                                                                  #        S40.13          LENGTH OF BURN
000048:                                                                                                  #        S40.2,3         PREFERRED IMU ORIENTATION
000049:                                                                                                  #        S40.8           X PRODUCT STEERING
000050:                                                                                                  #        S40.9           LAMBERT VTOGAIN
000051:                                                                                                  #        R60LEM          ATTITUDE MANEUVER
000052:                                                                                                  #        LEMPREC         EXTRAPOLATE STATE VECTOR
000053:                                                                                                  #        PREREAD         AVERAGE G, SERVICER
000054:                                                                                                  #        ALLCOAST        DAP COASTING INITIALIZATION
000055:                                                                                                  #        CLOKTASK        ERGO CLOCKJOB -- COUNT DOWN
000056:                                                                                                  #        PHASCHNG, INTPRET, FLAGUP, FLAGDOWN, WAITLIST, LONGCALL, GOFLASH, GOFLASHR, GOPERF1, ALARM,
000057:                                                                                                  #        PRIOLARM, GOTOPOOH, ENDOFJOB, BANKCALL, SETMAXDB, SETMINDB, CHECKMM, FLATOUT, OUTFLAT,
000058:                                                                                                  #        KILLTASK, SGNAGREE, TPAGREE, ETC.
000059:
000060:                                                                                                  #  RESTARTS VIA GROUP 4
000061:
000062:                                                                                                  #  DISPLAYS
000063:                                                                                                  #        V50N25  203 A/P TO PGNCS, AUTO THROTTLE MODE, AUTO ATTITUDE CONTROL
000064:                                                                                                  #        V06N40  TTI, VG, DELTAVM (DISPLAYED ONCE/SECOND BY CLOKTASK)
000065:                                                                                                  #        V50N99  PLEASE PERFORM ENGINE ON ENABLE
000066:                                                                                                  #        V06N40  TG (TIME TO GO TO CUTOFF), VG, DELTAVM -- ONCE/SECOND
000067:                                                                                                  #        V16N40  FINAL VALUES OF TG, VG, DELTAVM
000068:                                                                                                  #        V16N85  COMP OF VG (BODY AXES) FOR POSS. RCS MANUAL MANEUVER
000069:                                                                                                  #        V05N09  POSSIBLE ALARMS
000070:                                                                                                  #        V50N07  PLEASE SELECT P00
000071:


000073:                                                                                                  #        VIA R30
000074:
000075:                                                                                                  #        V06N44  HAPO, PERI, TFF
000076:                                                                                                  #        V06N35  TIME TO PERIGEE, HMS
000077:
000078:                                                                                                  #  ALARM OR ABORT EXIT MODES
000079:                                                                                                  #        PROGRAM ALARM, FLASHING DISPLAY OF ALARM CODE 1706 IF P40 SELECTED WITH DESCENT UNIT STAGED.
000080:                                                                                                  #        V34E (TERMINATE) IS THE ONLY RESPONSE ACCEPTED.  TC GOTOPOOH.
000081:
000082:                                                                                                  #        PROGRAM ALARM, FLASH CODE 1703:  TIG LESS THAN 45 SECS AWAY.  V34E= GOTOPOOH OR V33E= SLIP
000083:                                                                                                  #        TIG BY 45 SECS.
000084:
000085:                                                                                                  #  ERASABLE INITIALIZATION
000086:
000087:                                                                                                  #  DEBRIS
000088:
000089:                                                                                                  #  OUTPUT
000090:                                                                                                  #        SEE SUBROUTINES E.G.:  S40.1, S40.2,3, S40.13, S40.8, S40.9, TRIMGIMB
000091:                                                                                                  #        XDELVFLG = 1 FOR EXT DELV COMPUTATION
000092:                                                                                                  #                 = 0 FOR AIMPT (LAMBERT) COMP
000093:
000094: 27,2246                                           COUNT*   $$/P40
000095: 27,2246  E7,1455                                  EBANK=   WHICH
000096:
000097: 36,3153                                           BANK     36
000098: 36,2000                                           SETLOC   P40S
000099: 36,2000                                           BANK
000100:
000101: 36,3153           05353        P40LM              TC       PHASCHNG
000102: 36,3154           04024                           OCT      04024
000103:
000104: 36,3155           33137                           CAF      P40ADRES                              #  INITIALIZATION FOR BURNBABY.
000105: 36,3156           55455                           TS       WHICH
000106:
000107: 36,3157           30106                           CA       FLGWRD10
000108: 36,3160           74737                           MASK     APSFLBIT
000109: 36,3161           10000                           CCS      A
000110: 36,3162           13125                           TCF      P40ALM
000111: 36,3163           04616                           TC       BANKCALL                              #  GO DO IMU STATUS CHECK ROUTINE.
000112: 36,3164           11233                           CADR     R02BOTH
000113:
000114: 36,3165           40111                           CS       DAPBOOLS                              #  INITIALIZE DVMON
000115: 36,3166           74737                           MASK     CSMDOCKD
000116: 36,3167           10000                           CCS      A
000117: 36,3170           32022                           CAF      THRESH1
000118: 36,3171           62023                           AD       THRESH3
000119: 36,3172           55250                           TS       DVTHRUSH
000120: 36,3173           34751                           CAF      FOUR
000121: 36,3174           55515                           TS       DVCNTR


000123: 36,3175           06042                           TC       INTPRET                               #  LOAD CONSTANTS FOR DPS BURN
000124: 36,3176           43175                           VLOAD    CLEAR                                 #  LOAD F, MDOT, TDECAY
000125: 36,3177           34001                                    FDPS
000126: 36,3200           02663                                    NOTHROTL
000127: 36,3201           03735                           STORE    F
000128: 36,3202           77735                           SLOAD
000129: 36,3203           26002                                    DPSVEX
000130: 36,3204           70476        P40IN              DCOMP    SR1
000131: 36,3205           37743                           STCALL   VEX                                   #  LOAD EXHAUST VELOCITY FOR TGO COMP.
000132: 36,3206           56246                                    S40.1                                 #  COMPUTES UT AND VGTIG
000133: 36,3207           77624                           CALL
000134: 36,3210           56413                                    S40.2,3                               #  COMPUTES PREFERRED IMU ORIENTATION
000135: 36,3211           77776                           EXIT
000136:
000137: 36,3212           00004                           INHINT
000138: 36,3213           04674                           TC       IBNKCALL
000139: 36,3214           40143                           CADR     PFLITEDB                              #  ZERO ATTITUDE ERRORS, SET DB TO ONE DEG.
000140:
000141: 36,3215           03217                           TC       P40SXT4
000142:
000143:                                                                                                  #        ***********************
000144:
000145: 36,3216           12130                           TCF      BURNBABY
000146:
000147:                                                                                                  #        ***********************
000148:
000149: 36,3217           00006        P40SXT4            EXTEND
000150: 36,3220           23141                           QXCH     P40/RET
000151: 36,3221           00003        P41MANU            RELINT
000152:
000153: 36,3222           05516                           TC       DOWNFLAG                              #  CLEAR 3AXISFLG -- R60 WILL USE VECPOINT.
000154: 36,3223           00124                           ADRES    3AXISFLG
000155:
000156: 36,3224           04616                           TC       BANKCALL
000157: 36,3225           54123                           CADR     R60LEM                                #  DO ATTITUDE MANEUVER ROUTINE
000158: 36,3226           01141                           TC       P40/RET
000159:
000160: 36,3227  E7,1462                                  EBANK=   TRKMKCNT
000161: 36,3227           30005        POSTBURN           CA       Z
000162: 36,3230           55162                           TS       DISPDEX
000163: 36,3231           00006                           EXTEND
000164: 36,3232           32060                           DCA      ACADN85
000165: 36,3233           53252                           DXCH     AVEGEXIT
000166: 36,3234           33764                           CAF      V16N40
000167: 36,3235           04616                           TC       BANKCALL
000168: 36,3236           20636                           CADR     GOFLASHR
000169: 36,3237           03262                           TC       TERM40
000170: 36,3240           13245                           TCF      TIGNOW
000171: 36,3241           03227                           TC       POSTBURN


000173: 36,3242           05353        P40PHS1            TC       PHASCHNG
000174: 36,3243           00014                           OCT      00014
000175: 36,3244           15155                           TCF      ENDOFJOB
000176:
000177: 36,3245           00004        TIGNOW             INHINT
000178: 36,3246           04674                           TC       IBNKCALL
000179: 36,3247           40154                           CADR     ZATTEROR
000180: 36,3250           04674                           TC       IBNKCALL
000181: 36,3251           40141                           CADR     SETMINDB
000182: 36,3252           00003                           RELINT
000183: 36,3253           33765                           CAF      V16N85B
000184: 36,3254           04616                           TC       BANKCALL
000185: 36,3255           20463                           CADR     REFLASHR
000186: 36,3256           03262                           TC       TERM40
000187: 36,3257           13262                           TCF      TERM40
000188: 36,3260           03253                           TC       -5
000189:
000190: 36,3261           13242                           TCF      P40PHS1
000191:
000192: 36,3262           00006        TERM40             EXTEND
000193: 36,3263           32110                           DCA      SERVCADR
000194: 36,3264           53252                           DXCH     AVEGEXIT
000195: 36,3265           34755                           CAF      ZERO
000196: 36,3266           55462                           TS       TRKMKCNT                              #  ZERO RENDZVS CNTERS
000197: 36,3267           30005                           CA       Z
000198: 36,3270           55162                           TS       DISPDEX
000199: 36,3271           00004                           INHINT
000200: 36,3272           04674                           TC       IBNKCALL
000201: 36,3273           40115                           CADR     RESTORDB
000202: 36,3274           00003                           RELINT
000203: 36,3275           06001                           TC       GOTOPOOH
000204:
000205: 36,3276  E7,1455                                  EBANK=   WHICH
000206: 36,3276                                           COUNT*   $$/P41
000207: 36,3276           33140        P41LM              CAF      P41ADRES                              #  INITIALIZATION FOR BURNBABY
000208: 36,3277           55455                           TS       WHICH
000209:
000210: 36,3300           04616                           TC       BANKCALL
000211: 36,3301           11233                           CADR     R02BOTH
000212:
000213: 36,3302           06042                           TC       INTPRET                               #  BOTH LM


000216: 36,3303           71214                           BON      DLOAD                                 #  IF NJETSFLAG IS SET, LOAD Z JET F
000217: 36,3304           00700                                    NJETSFLG
000218: 36,3305           75311                                    P41FJET1
000219: 36,3306           34017                                    FRCS4                                 #  IF NJETSFLAG IS CLEAR, LOAD 4 JET F
000220:
000221: 36,3307           37735        P41FJET            STCALL   F
000222: 36,3310           75314                                    P41IN
000223: 36,3311           77745        P41FJET1           DLOAD


000225: 36,3312           34021                                    FRCS2
000226: 36,3313           03735                           STORE    F
000227:
000228: 36,3314           77624        P41IN              CALL
000229: 36,3315           56246                                    S40.1                                 #  BOTH
000230: 36,3316           77624        P41NORM            CALL
000231: 36,3317           56413                                    S40.2,3                               #  CALCULATE PREFERRED IMU ORIENTATION AND
000232: 36,3320           77776                           EXIT                                           #  SET PFRATFLG.
000233:
000234: 36,3321           00004                           INHINT
000235: 36,3322           04674                           TC       IBNKCALL
000236: 36,3323           40154                           CADR     ZATTEROR                              #  ZERO ATTITUDE ERRORS
000237: 36,3324           04674                           TC       IBNKCALL
000238: 36,3325           40141                           CADR     SETMINDB                              #  SET 0.3 DEGREE DEADBAND
000239: 36,3326           03217                           TC       P40SXT4
000240:
000241: 36,3327           06042                           TC       INTPRET
000242: 36,3330           45175                           VLOAD    CALL                                  #  TRANSFORM VELOCITY-TO-BE-GAINED AT TIG
000243: 36,3331           03701                                    VGTIG                                 #  FROM REFERENCE COORDINATES TO LM BODY-
000244: 36,3332           57267                                    S41.1                                 #  AXIS COORDINATES FOR V16N85 DISPLAY.
000245: 36,3333           03502                           STORE    VGBODY                                #  (SCALED AT 2 (+7) METERS/CENTISECOND)
000246: 36,3334           77776                           EXIT
000247:
000248: 36,3335           33765                           CAF      V16N85B
000249: 36,3336           04616                           TC       BANKCALL
000250: 36,3337           20447                           CADR     GODSPRET
000251:
000252: 36,3340           35017                           CAF      PRIO5
000253: 36,3341           55162                           TS       DISPDEX                               #  FOR SAFETY ONLY
000254: 36,3342           05105                           TC       FINDVAC
000255: 36,3343  E7,1700                                  EBANK=   VGPREV
000256: 36,3343           03365 74067                     2CADR    DYNMDISP
000257:
000258: 36,3345           05327                           TC       2PHSCHNG
000259: 36,3346           00076                           OCT      00076                                 #  GROUP 6 RESTARTS AT REDO6.7
000260: 36,3347           04024                           OCT      04024                                 #  GROUP 4 RESTARTS HERE
000261:
000262:                                                                                                  #        ***********************
000263:
000264: 36,3350           12137                           TCF      B*RNB*B*
000265:
000266:                                                                                                  #        ***********************
000267:
000268: 36,3351           34777        BLNKWAIT           CAF      1SEC
000269: 36,3352           04616                           TC       BANKCALL
000270: 36,3353           01736                           CADR     DELAYJOB
000271:
000272: 36,3354           31162        REDO6.7            CA       DISPDEX                               #  ON A RESTART, DO NOT PUT UP DISPLAY IF
000273: 36,3355           64752                           AD       TWO                                   #  BLANKING (BETWEEN TIG-35 AND TIG-30)
000274:
000275:                                                                                                  #        ***********************


000277:
000278: 36,3356           00006                           EXTEND
000279: 36,3357           13351                           BZF      BLNKWAIT
000280:
000281: 36,3360           33765                           CAF      V16N85B
000282: 36,3361           04616                           TC       BANKCALL
000283: 36,3362           20447                           CADR     GODSPRET
000284:
000285: 36,3363           35017                           CAF      PRIO5
000286: 36,3364           05146                           TC       PRIOCHNG
000287:
000288: 36,3365           31162        DYNMDISP           CA       DISPDEX                               #  A NON-POSITIVE DISPDEX INDICATES PAST
000289: 36,3366           00006                           EXTEND                                         #  TIG-35, SO SERVICER WILL BE DOING THE
000290: 36,3367           65155                           BZMF     ENDOFJOB                              #  UPDATING OF NOUN 85.  STOP DYNMDISP.
000291: 36,3370           06042                           TC       INTPRET
000292: 36,3371           45175                           VLOAD    CALL
000293: 36,3372           03701                                    VGPREV
000294: 36,3373           57267                                    S41.1
000295: 36,3374           03502                           STORE    VGBODY
000296: 36,3375           77776                           EXIT
000297: 36,3376           34777                           CAF      1SEC
000298: 36,3377           04616                           TC       BANKCALL
000299: 36,3400           01736                           CADR     DELAYJOB
000300: 36,3401           13365                           TCF      DYNMDISP
000301:
000302: 36,3402           06042        CALCN85            TC       INTPRET
000303: 36,3403           77624                           CALL
000304: 36,3404           75615                                    UPDATEVG
000305: 36,3405           45175                           VLOAD    CALL
000306: 36,3406           03701                                    VGPREV
000307: 36,3407           57267                                    S41.1
000308: 36,3410           03502                           STORE    VGBODY
000309: 36,3411           77776                           EXIT
000310: 36,3412           04635                           TC       POSTJUMP
000311: 36,3413           65746                           CADR     SERVEXIT
000312:
000313: 36,3414                                           COUNT*   $$/P42
000314: 36,3414  E7,1455                                  EBANK=   WHICH
000315:
000316: 36,3414           05353        P42LM              TC       PHASCHNG
000317: 36,3415           04024                           OCT      04024
000318:
000319: 36,3416           33141                           CAF      P42ADRES                              #  INITIALIZATION FOR BURNBABY.
000320: 36,3417           55455                           TS       WHICH
000321:
000322: 36,3420           40106                           CS       FLGWRD10
000323: 36,3421           74737                           MASK     APSFLBIT
000324: 36,3422           10000                           CCS      A
000325: 36,3423           03125                           TC       P40ALM
000326: 36,3424           04616        P42STAGE           TC       BANKCALL


000328: 36,3425           11233                           CADR     R02BOTH
000329: 36,3426           36000                           CAF      THRESH2                               #  INITIALIZE DVMON
000330: 36,3427           55250                           TS       DVTHRUSH
000331: 36,3430           34751                           CAF      FOUR
000332: 36,3431           55515                           TS       DVCNTR
000333:
000334: 36,3432           06042                           TC       INTPRET
000335: 36,3433           77214                           SET      VLOAD                                 #  LOAD FAPS, MDOTAPS, AND ATDECAY INTO
000336: 36,3434           01072                                    AVFLAG                                #  F, MDOT, AND TDECAY BY VECTOR LOAD.
000337: 36,3435           34007                                    FAPS
000338: 36,3436           03735                           STORE    F
000339: 36,3437           52135                           SLOAD    GOTO
000340: 36,3440           26001                                    APSVEX
000341: 36,3441           75204                                    P40IN
000342:
000343: 36,3442  E7,1455                                  EBANK=   WHICH
000344:
000345: 36,3442                                           COUNT*   $$/P47
000346: 36,3442           04616        P47LM              TC       BANKCALL
000347: 36,3443           11233                           CADR     R02BOTH
000348: 36,3444           06042                           TC       INTPRET
000349: 36,3445           77624                           CALRB
000350: 36,3446           27547                                    MIDTOAV2
000351:
000352: 36,3447           30155                           CA       MPAC       +1
000353: 36,3450           05173                           TC       TWIDDLE
000354: 36,3451           03453                           ADRES    STARTP47
000355:
000356: 36,3452           15155                           TCF      ENDOFJOB
000357:
000358: 36,3453           05353        STARTP47           TC       PHASCHNG
000359: 36,3454           05014                           OCT      05014
000360: 36,3455           77777                           OCT      77777
000361:
000362: 36,3456           00006                           EXTEND
000363: 36,3457           33770                           DCA      ACADN83
000364: 36,3460           53252                           DXCH     AVEGEXIT
000365: 36,3461           34736                           CAF      PRIO20
000366: 36,3462           05105                           TC       FINDVAC
000367: 36,3463  E7,1622                                  EBANK=   DELVIMU
000368: 36,3463           03517 74067                     2CADR    P47BODY
000369:
000370: 36,3465           12344                           TCF      REDO4.2                               #  CHECKS PHASE 5 AND GOES TO PREREAD
000371:                                                                                                  #  SEE TIG-30 IN BURNBABY.
000372:
000373: 36,3466           06042        CALCN83            TC       INTPRET
000374: 36,3467           53375                           VLOAD    VAD
000375: 36,3470           03502                                    DELVCTL
000376: 36,3471           03527                                    DELVREF
000377: 36,3472           03656                           STORE    DELVSIN                               #  TEMP STORAGE FOR RESTARTS


000379: 36,3473           77624                           CALL
000380: 36,3474           57267                                    S41.1
000381: 36,3475           03623                           STORE    DELVIMU
000382: 36,3476           77776                           EXIT
000383: 36,3477           05353                           TC       PHASCHNG
000384: 36,3500           10035                           OCT      10035                                 #  REREADAC AND HERE
000385:
000386: 36,3501           06042                           TC       INTPRET
000387: 36,3502           77775                           VLOAD
000388: 36,3503           03656                                    DELVSIN
000389: 36,3504           03502                           STORE    DELVCTL
000390: 36,3505           77776                           EXIT
000391:
000392: 36,3506           04635                           TC       POSTJUMP
000393: 36,3507           65746                           CADR     SERVEXIT
000394:
000395: 36,3510           33766        P47BOD             CAF      V1683
000396: 36,3511           04616                           TC       BANKCALL
000397: 36,3512           20636                           CADR     GOFLASHR
000398: 36,3513           06001                           TC       GOTOPOOH
000399: 36,3514           06001                           TC       GOTOPOOH
000400:
000401: 36,3515           13517                           TCF      P47BODY
000402:
000403: 36,3516           13242                           TCF      P40PHS1
000404:
000405: 36,3517           06042        P47BODY            TC       INTPRET
000406: 36,3520           77775                           VLOAD
000407: 36,3521           06524                                    HI6ZEROS
000408: 36,3522           03623                           STORE    DELVIMU
000409: 36,3523           03502                           STORE    DELVCTL
000410: 36,3524           77776                           EXIT
000411: 36,3525           03510                           TC       P47BOD
000412:
000413: 36,3526                                           COUNT*   $$/P40
000414: 36,3526           31517        IMPLBURN           CA       TGO        +1
000415: 36,3527           03741                           TC       GETDT
000416: 36,3530           05173                           TC       TWIDDLE
000417: 36,3531           03546                           ADRES    ENGOFTSK
000418: 36,3532           05516                           TC       DOWNFLAG                              #  TURN OFF IGNFLAG
000419: 36,3533           00153                           ADRES    IGNFLAG
000420: 36,3534           05516                           TC       DOWNFLAG                              #  TURN OFF ASTNFLG
000421: 36,3535           00154                           ADRES    ASTNFLAG
000422: 36,3536           05516                           TC       DOWNFLAG                              #  TURN OFF IMPULSW
000423: 36,3537           00044                           ADRES    IMPULSW
000424: 36,3540           05353                           TC       PHASCHNG                              #  RESTART PROTECT ENGOFTSK (ENGINOFF)
000425: 36,3541           40114                           OCT      40114
000426:
000427: 36,3542           05221                           TC       FIXDELAY                              #  WAIT HALF A SECOND
000428: 36,3543           00062                           DEC      50         B-14


000430: 36,3544           02657                           TC       NOULLAGE                              #  TURN OFF ULLAGE
000431:
000432: 36,3545           05261                           TC       TASKOVER
000433:
000434: 36,3546           04674        ENGOFTSK           TC       IBNKCALL                              #  THIS CODING ALLOWS ENGINOFF ET AL TO BE
000435: 36,3547           75551                           CADR     ENGINOFF                              #  USED BOTH BY WAITLIST AND BY TC IBNKCALL
000436: 36,3550           05261                           TC       TASKOVER
000437:
000438: 36,3551           34644        ENGINOFF           CAF      PRIO12                                #  MUST BE LOWER PRIO THAN CLOCKJOB
000439: 36,3552           05105                           TC       FINDVAC
000440: 36,3553  E7,1462                                  EBANK=   TRKMKCNT
000441: 36,3553           03227 74067                     2CADR    POSTBURN
000442:
000443: 36,3555           34753        ENGINOF2           CAF      BIT1
000444: 36,3556           05203                           TC       WAITLIST
000445: 36,3557  E6,1422                                  EBANK=   OMEGAQ
000446: 36,3557           03612 74066                     2CADR    COASTSET
000447:
000448: 36,3561           40103        ENGINOF1           CS       FLAGWRD7                              #  SET THE IDLE BIT.
000449: 36,3562           74745                           MASK     IDLEFBIT
000450: 36,3563           26103                           ADS      FLAGWRD7
000451:
000452: 36,3564           02657                           TC       NOULLAGE
000453:
000454: 36,3565           00006        ENGINOF4           EXTEND
000455: 36,3566           30025                           DCA      TIME2
000456: 36,3567           53342                           DXCH     TEVENT
000457:
000458: 36,3570           44745        ENGINOF3           CS       ENGONBIT                              #  INSURE ENGONFLG IS CLEAR.
000459: 36,3571           70101                           MASK     FLAGWRD5
000460: 36,3572           54101                           TS       FLAGWRD5
000461: 36,3573           44355                           CS       PRIO30                                #  ENGINOF3 IS USED AS A PRE-ENGINE ARM
000462: 36,3574           00006                           EXTEND                                         #  SUBROUTINE.
000463: 36,3575           02011                           RAND     DSALMOUT
000464: 36,3576           64736                           AD       PRIO20                                #  TURN OFF THE ENGINE - DPS OR APS
000465: 36,3577           00006                           EXTEND
000466: 36,3600           01011                           WRITE    DSALMOUT
000467:
000468: 36,3601           40111                           CS       DAPBOOLS                              #  TURN OFF TRIM GIMBAL
000469: 36,3602           74736                           MASK     USEQRJTS
000470: 36,3603           26111                           ADS      DAPBOOLS
000471:
000472: 36,3604           44737                           CS       HIRTHROT                              #  ZERO AUTO-THROTTLE WHENEVER THE ENGINE
000473: 36,3605           54055                           TS       THRUST                                #  IS TURNED OFF.
000474: 36,3606           34750                           CAF      BIT4                                  #  THE HARDWARE DOES SO ONLY WHEN THE
000475: 36,3607           00006                           EXTEND                                         #  ENGINE IS DISARMED.
000476: 36,3610           05014                           WOR      CHAN14
000477:
000478: 36,3611           04707                           TC       ISWRETRN


000480: 36,3612           04674        COASTSET           TC       IBNKCALL                              #  DO DAP COASTING INITIALIZATION
000481: 36,3613           40205                           CADR     ALLCOAST
000482: 36,3614           05261                           TC       TASKOVER
000483:
000484: 36,3615  E6,1422                                  EBANK=   OMEGAQ
000485: 36,3615           45020        UPDATEVG           STQ      CALL
000486: 36,3616           03665                                    QTEMP1
000487: 36,3617           56447                                    S40.8                                 #  X-PRODUCT STEERING
000488: 36,3620           43014                           BON      BON
000489: 36,3621           01307                                    XDELVFLG
000490: 36,3622           03665                                    QTEMP1
000491: 36,3623           03705                                    NORMSW
000492: 36,3624           75637                                    180SETUP
000493: 36,3625           45345                           DLOAD    DSU
000494: 36,3626           01234                                    PIPTIME
000495: 36,3627           03763                                    TIGSAVE
000496: 36,3630           50025                           DSU      BMN
000497: 36,3631           03432                                    TNEWA
000498: 36,3632           75662                                    GETRANS
000499: 36,3633           43345                           DLOAD    DAD
000500: 36,3634           03763                                    TIGSAVE
000501: 36,3635           03432                                    TNEWA
000502: 36,3636           03765                           STORE    TIGSAVEP
000503: 36,3637           77776        180SETUP           EXIT
000504: 36,3640           10754                           CCS      PHASE2
000505: 36,3641           13667                           TCF      NO.9
000506: 36,3642           34737                           CAF      PRIO10
000507: 36,3643           00004                           INHINT
000508: 36,3644           05105                           TC       FINDVAC
000509: 36,3645  E7,1706                                  EBANK=   VG
000510: 36,3645           02707 56067                     2CADR    S40.9                                 #  LAMBERT VTOGAIN
000511:
000512: 36,3647           05327                           TC       2PHSCHNG
000513: 36,3650           00172                           OCT      00172                                 #  2.17SPOT FOR S40.9
000514: 36,3651           10035                           OCT      10035                                 #  HERE AND REREADAC AFTER RESTART
000515:
000516: 36,3652           06042        ENDSTEER           TC       INTPRET
000517: 36,3653           77745                           DLOAD
000518: 36,3654           03765                                    TIGSAVEP
000519: 36,3655           27763                           STOVL    TIGSAVE
000520: 36,3656           01220                                    RN
000521: 36,3657           26323                           STOVL    RINIT
000522: 36,3660           01226                                    VN
000523: 36,3661           02331                           STORE    VINIT
000524: 36,3662           45345        GETRANS            DLOAD    DSU
000525: 36,3663           03631                                    TPASS4
000526: 36,3664           01234                                    PIPTIME
000527: 36,3665           37452                           STCALL   DELLT4
000528: 36,3666           03665                                    QTEMP1
000529:


000531: 36,3667           06042        NO.9               TC       INTPRET
000532: 36,3670           77650                           GOTO
000533: 36,3671           03665                                    QTEMP1
000534: 36,3672           06042        STEERING           TC       INTPRET
000535:
000536: 36,3673           77624                           CALL
000537: 36,3674           75615                                    UPDATEVG
000538: 36,3675           77776                           EXIT
000539:
000540: 36,3676  E7,1515                                  EBANK=   DVCNTR
000541: 36,3676           00004        NSTEER             INHINT
000542: 36,3677           35016                           CA       EBANK7
000543: 36,3700           54003                           TS       EBANK
000544: 36,3701           40076                           CS       FLAGWRD2                              #  CHECK IMPULSE SWITCH.  IT IS SET EITHER
000545: 36,3702           74743                           MASK     IMPULBIT                              #  BY S40.13 IF TBURN<6 SECS OR BY S40.8 IF
000546: 36,3703           10000                           CCS      A                                     #  STEERING IS ALMOST DONE.
000547:
000548: 36,3704           13711                           TCF      +5                                    #  IMPULSW = 0   EXIT
000549: 36,3705           40103                           CS       FLAGWRD7                              #  IMPULSW = 1   WHY?  CHECK IDLEFLAG
000550: 36,3706           74745                           MASK     IDLEFBIT                              #        (IDLEFLAG = 0 --> DVMON ON)
000551: 36,3707           10000                           CCS      A
000552: 36,3710           13713                           TCF      +3                                    #  DVMON ON --> THRUSTING --> IMPULSW VIA S40.8
000553: 36,3711           04635                           TC       POSTJUMP                              #  DVMON OFF --> IMPULSW ON VIA S40.13 --> EXIT
000554: 36,3712           65746                           CADR     SERVEXIT
000555:
000556: 36,3713           04674                           TC       IBNKCALL
000557: 36,3714           40166                           CADR     STOPRATE
000558:
000559: 36,3715           05516                           TC       DOWNFLAG                              #  TURN OFF IMPULSW
000560: 36,3716           00044                           ADRES    IMPULSW
000561:
000562: 36,3717           05504                           TC       UPFLAG
000563: 36,3720           00161                           ADRES    IDLEFLAG                              #  TURN OFF DVMON
000564:
000565: 36,3721           00004                           INHINT
000566: 36,3722           00006                           EXTEND
000567: 36,3723           31442                           DCA      TIG
000568: 36,3724           52155                           DXCH     MPAC
000569: 36,3725           00006                           EXTEND
000570: 36,3726           40025                           DCS      TIME2
000571: 36,3727           20155                           DAS      MPAC
000572: 36,3730           07262                           TC       TPAGREE
000573: 36,3731           30155                           CAE      MPAC       +1
000574: 36,3732           03741                           TC       GETDT
000575: 36,3733           05173                           TC       TWIDDLE
000576: 36,3734           03546                           ADRES    ENGOFTSK
000577: 36,3735           05327                           TC       2PHSCHNG
000578: 36,3736           40114                           OCT      40114                                 #  ENGOFTSK (ENGINOFF)
000579: 36,3737           00035                           OCT      00035                                 #  SERVICER -- REREADAC


000581: 36,3740           15155                           TCF      ENDOFJOB
000582:
000583: 36,3741           10000        GETDT              CCS      A
000584: 36,3742           13745                           TCF      +3
000585: 36,3743           13745                           TCF      +2
000586: 36,3744           34755                           CAF      ZERO
000587: 36,3745           64753                           AD       ONE
000588: 36,3746           56001                           XCH      L
000589: 36,3747           34755                           CAF      ZERO
000590: 36,3750           53517                           DXCH     TGO
000591: 36,3751           31517                           CA       TGO        +1
000592: 36,3752           00002                           TC       Q
000593:
000594:                                                                                                  #  ************************************************************************
000595:
000596: 36,3753           00000        SEC15DP            OCT      00000                                 #  DON'T SEPARATE
000597: 36,3754           02734        SEC15              DEC      1500       B-14                       #  DON'T SEPARATE
000598: 36,3755           00000 05670  SEC30DP            2DEC     3000       B-28
000599: 36,3757           00000        SEC45DP            OCT      00000                                 #  DON'T MOVE FROM JUST BEFORE SEC45
000600: 36,3760           10624        SEC45              DEC      4500       B-14
000601: 36,3761           00000        5SECDP             OCT      00000                                 #  DON'T MOVE FROM JUST BEFORE 5SEC
000602: 36,3762           00764        5SEC               DEC      500        B-14
000603: 36,3763           05050        26SECS             DEC      2600       B-14
000604: 36,3764           04050        V16N40             VN       1640
000605: 36,3765           04125        V16N85B            VN       1685
000606: 36,3766           04123        V1683              VN       1683
000607: 36,3767     4777               SEC01              =        1SEC
000608: 36,3767  36,2057               ACADN85            =        P41TABLE   +2
000609:
000610: 36,3767  E7,1622                                  EBANK=   DELVIMU
000611: 36,3767           03466 74067  ACADN83            2CADR    CALCN83
000612:
000613:                                                                                                  #  *************************************************


000615:                                                                                                  #  PROGRAM DESCRIPTION  S40.1            DATE15NOV66
000616:                                                                                                  #  MOD N02                               LOG SECTION P40-P47
000617:                                                                                                  #  MOD BY ZELDIN AND ADAPTED BY TALAYCO
000618:
000619:                                                                                                  #  FUNCTIONAL DESCRIPTION
000620:                                                                                                  #        COMPUTE INITIAL THRUST DIRECTION(UT) AND INITIAL VALUE OF VG
000621:                                                                                                  #        VECTOR(VGTIG).
000622:
000623:                                                                                                  #  CALLING SEQUENCE
000624:                                                                                                  #        L       CALL
000625:                                                                                                  #        L+1             S40.1
000626:
000627:                                                                                                  #  NORMAL EXIT MODE
000628:                                                                                                  #        AT L+2 OF CALLING SEQUENCE (GOTO L+2) NORMAL RETURN OR
000629:                                                                                                  #        ERROR RETURN IF NOSOFLAG =1
000630:
000631:                                                                                                  #  SUBROUTINES CALLED
000632:                                                                                                  #        LEMPREC
000633:                                                                                                  #        INITVEL
000634:                                                                                                  #        CALCGRAV
000635:                                                                                                  #        MIDGIM
000636:
000637:                                                                                                  #  ALARM OR ABORT EXIT MODES
000638:                                                                                                  #        L+2 OF CALLING SEQUENCE, UNSOLVABLE CONIC IF NOSOFLAG=1
000639:
000640:                                                                                                  #  ERASABLE INITIALIZATION REQUIRED
000641:                                                                                                  #        WEIGHT/G        ANTICIPATED VEHICLE MASS        DP B16 KGM
000642:                                                                                                  #        XDELVFLG        1=DELTA-V MANEUVER, 0=AIMPT STEER
000643:                                                                                                  #        F               THRUST FOR ENGINE USED
000644:                                                                                                  #    IF DELTA-V MANEUVER
000645:                                                                                                  #        DELVSIN         SPECIFIED DELTA-V REQUIRED IN
000646:                                                                                                  #                        INERTIAL COORDS. OF ACTIVE VEHICLE
000647:                                                                                                  #                        AT TIME OF IGNITION             VECTOR B7 M/CS
000648:                                                                                                  #        DELVSAB         MAG. OF DELVSIN                 DP B7 M/CS
000649:                                                                                                  #        RTIG            POSITION AT TIME OF IGNITION    VECTOR B29 M
000650:                                                                                                  #        VTIG            VELOCITY AT TIME OF IGNITION    VECTOR B7 M/CS
000651:                                                                                                  #    IF AIMPT STEER
000652:                                                                                                  #        TIG             TIME OF IGNITION                DP B28 CS
000653:                                                                                                  #        RTARG           POSITION TARGET TIME            VECTOR B29 M
000654:                                                                                                  #        CSTEER          C FOR STEER LAW                 DP B2
000655:                                                                                                  #        DLTARG          TARGET TIME-IGNITION TIME       DP B28 CS
000656:
000657:                                                                                                  #  OUTPUT
000658:                                                                                                  #        UT              DESIRED THRUST DIRECTION        VECT. B2 M/(CS.CS)
000659:                                                                                                  #        VGTIG           INITIAL VALUE OF VELOCITY
000660:                                                                                                  #                        TO BE GAINED (INERT. COORD.)    VECTOR B7 M/CS
000661:                                                                                                  #        DELVLVC         VGTIG IN LOC. VERT. COORDS.     B7 M/CS
000662:                                                                                                  #        BDT             V REQUIRED AT TIG -V REQUIRED AT (TIG-2SEC)
000663:                                                                                                  #        -GDT            FOR S40.13                      VECT B7 M/CS
000664:                                                                                                  #        RTIG            CALC IN S40.1B (AIMPT) FOR S40.2,3      VECTOR B29M
000665:                                                                                                  #                        POSITION AT TIME OF IGNITION
000666:
000667:                                                                                                  #  DEBRIS        QTEMP1
000668:                                                                                                  #                MPAC, QPRET
000669:                                                                                                  #                PUSHLIST
000670:
000671: 14,2347                                           BANK     14
000672: 27,2000                                           SETLOC   P40S1
000673: 27,2000                                           BANK


000675: 27,2246                                           COUNT*   $$/S40.1
000676: 27,2246           71220        S40.1              STQ      DLOAD
000677: 27,2247           03632                                    QTEMP
000678: 27,2250           03442                                    TIG
000679: 27,2251           03763                           STORE    TIGSAVE
000680: 27,2252           77614        DELVTEST           BOFF
000681: 27,2253           01347                                    XDELVFLG
000682: 27,2254           56336                                    S40.1B
000683: 27,2255           77201        CALCTHET           SETPD    VLOAD
000684: 27,2256           00001                                    0
000685: 27,2257           03650                                    VTIG
000686: 27,2260           02331                           STORE    VINIT
000687: 27,2261           53435                           VXV      UNIT
000688: 27,2262           03642                                    RTIG
000689: 27,2263           27673                           STOVL    UT                                    #  UP IN UT
000690: 27,2264           03642                                    RTIG
000691: 27,2265           02323                           STORE    RINIT
000692: 27,2266           65236                           VSQ      PDDL
000693: 27,2267           00045                                    36D
000694: 27,2270           56205                           DMP      DDV
000695: 27,2271           16412                                    THETACON
000696: 27,2272           41205                           DMP      DMP
000697: 27,2273           03664                                    DELVSAB
000698: 27,2274           01244                                    WEIGHT/G
000699: 27,2275           77671                           DDV
000700: 27,2276           03735                                    F
000701: 27,2277           24017                           STOVL    14D
000702: 27,2300           03656                                    DELVSIN
000703:
000704: 27,2301           74241                           DOT      VXSC
000705: 27,2302           03673                                    UT
000706: 27,2303           03673                                    UT
000707: 27,2304           41552                           VSL2     PUSH                                  #  (DELTAV.UP)UP SCALED AT 2(+7) P.D.L. 0
000708: 27,2305           65245                           BVSU     PDDL                                  #  DELTA VP SCALED AT 2(+7) P.D.L. 6
000709: 27,2306           03656                                    DELVSIN
000710: 27,2307           00017                                    14D
000711: 27,2310           63356                           SIN      PDVL
000712: 27,2311           00007                                    6D
000713: 27,2312           53435                           VXV      UNIT
000714: 27,2313           03673                                    UT
000715: 27,2314           45561                           VXSC     STADR
000716: 27,2315           50076                           STOVL    VGTIG                                 #  UNIT(VP X UP)SIN(THETAT/2) IN VGTIG.
000717: 27,2316           65256                           UNIT     PDDL                                  #  UNIT(DELTA VP) IN P.D.L. 6
000718: 27,2317           00017                                    14D
000719: 27,2320           74346                           COS      VXSC
000720: 27,2321           74255                           VAD      VXSC
000721: 27,2322           03701                                    VGTIG
000722: 27,2323           00045                                    36D
000723: 27,2324           53352                           VSL2     VAD
000724: 27,2325           77626                           STADR


000726: 27,2326           74076                           STORE    VGTIG                                 #  VG IGNITION SCALED AT 2(+7) M/CS
000727:
000728: 27,2327           77656                           UNIT
000729: 27,2330           27673                           STOVL    UT                                    #  THRUST DIRECTION SCALED AT 2(+1)
000730: 27,2331           03701                                    VGTIG
000731: 27,2332           45006                           PUSH     CALL
000732: 27,2333           15741                                    GET.LVC                               #  VGTIG IN LV COOR AT 2(+7) M/CS IN DELVLVC
000733: 27,2334           77650                           GOTO
000734: 27,2335           03632                                    QTEMP
000735: 27,2336           77745        S40.1B             DLOAD
000736: 27,2337           03442                                    TIG
000737: 27,2340           00041                           STORE    TDEC1
000738: 27,2341           77621                           BDSU
000739: 27,2342           03631                                    TPASS4
000740: 27,2343           37452                           STCALL   DELLT4                                #  INTERCEPT TIME - TIG.
000741: 27,2344           27056                                    LEMPREC
000742: 27,2345           40375                           VLOAD    SETPD                                 #  LOAD STATE VECTOR AT TIG FOR INITVEL.
000743: 27,2346           00001                                    RATT
000744: 27,2347           00001                                    0
000745: 27,2350           03642                           STORE    RTIG
000746: 27,2351           02323                           STORE    RINIT
000747: 27,2352           77656                           UNIT
000748: 27,2353           27537                           STOVL    UNIT/R/
000749: 27,2354           00007                                    VATT
000750: 27,2355           03650                           STORE    VTIG
000751: 27,2356           02331                           STORE    VINIT
000752: 27,2357           65345                           DLOAD    PDDL                                  #  NUMIT = 0
000753: 27,2360           06524                                    ZEROVECS
000754: 27,2361           16406                                    EPS1
000755: 27,2362           43214                           BOFF     DAD
000756: 27,2363           03745                                    NORMSW
000757: 27,2364           56366                                    SMALLEPS
000758: 27,2365           16410                                    EPS2                                  #  EPSILON4 = 10 DEGREES OR 45 DEGREES.
000759: 27,2366           66006        SMALLEPS           PUSH     SXA,1
000760: 27,2367           02776                                    RTX1
000761: 27,2370           45134                           SXA,2    CALL
000762: 27,2371           02777                                    RTX2
000763: 27,2372           22000                                    INITVEL
000764: 27,2373           41575                           VLOAD    PUSH
000765: 27,2374           02366                                    DELVEET3                              #  VGTIG = VR-VN.
000766: 27,2375           03701                           STORE    VGTIG
000767: 27,2376           77656                           UNIT                                           #  UT = UNIT (VGTIG)
000768: 27,2377           17673                           STODL    UT
000769: 27,2400           00045                                    36D
000770: 27,2401           37664                           STCALL   VGDISP                                #  CONVERT VGTIG (IN PUSHLIST) TO LOCAL
000771: 27,2402           15741                                    GET.LVC                               #  VERTICAL COORDINATES.
000772: 27,2403           77650                           GOTO
000773: 27,2404           03632                                    QTEMP
000774:
000775: 27,2405           00707 03434  EPS1               2DEC*    2.777777778 E-2*                       #  10 DEGREES AT 1 REVOLUTION.


000777: 27,2407           03070 34344  EPS2               2DEC*    9.722222222 E-2*                       #  35 DEGREES AT 1 REVOLUTION.
000778: 27,2411           00024 13714  THETACON           2DEC     .31830989  B-8
000779:


000781:                                                                                                  #  SUBROUTINE NAME:  S40.2,3             MOD. NO. 3 DATE: APRIL 4, 1967
000782:                                                                                                  #  MODIFICATION BY:  JONATHAN D. ADDELSTON (ADAMS ASSOCIATES)
000783:                                                                                                  #  MOD. NO. 4:  JULY 18, 1967: PETER ADLER (MIT/IL)
000784:                                                                                                  #  MOD. NO. 5:  OCTOBER 18, 1967:  PETER ADLER (MIT/IL)
000785:                                                                                                  #  ORIGINALLY BY:  SAYDEAN ZELDIN (MIT INSTRUMENTATION LAB) AND RICHARD TALAYCO (SYSTEM DEVELOPMENT CORP)
000786:
000787:                                                                                                  #  S40.2,3 COMPUTES "POINTVSM" WHICH IS THE HALF-UNIT DESIRED THRUST VECTOR IN STABLE-MEMBER COORDINATES FROM "UT"
000788:                                                                                                  #  WHICH IS THE SAME VECTOR IN REFERENCE COORDINATES.  IT DETERMINES THE CORRECT VALUES FOR "SCAXIS" USING THE +X
000789:                                                                                                  #  AXIS FOR DPS, APS, AND RCS BURNS.  THE "WINGS-LEVEL HEADS-UP" LM ORIENTATION IS THEN COMPUTED IN REFERENCE
000790:                                                                                                  #  COORDINATES.  THESE VECTORS ALSO DEFINE THE "PREFERRED IMU ORIENTATION".  UPON COMPLETION OF THIS CALCULATION,
000791:                                                                                                  #  THE "PREFERRED ATTITUDE COMPUTED" FLAG IS SET (PFRATFLG).
000792:
000793:                                                                                                  #  CALLING SEQUENCE:
000794:                                                                                                  #        L       CALL                    INTERPRETIVE CALL.
000795:                                                                                                  #        L +1            S40.2,3
000796:                                                                                                  #        L +2    (RETURN)                GIMBAL ANGLE VECTOR IN MPAC.
000797:
000798:                                                                                                  #  SUBROUTINES CALLED:  NONE.
000799:
000800:                                                                                                  #  NORMAL RETURN:  L +2 (SEE CALLING SEQUENCE ABOVE).
000801:
000802:                                                                                                  #  ALARM/ABORT MODES:  NONE.
000803:
000804:                                                                                                  #  INPUT:
000805:                                                                                                  #        1.      REFSMMAT        MATRIX FROM REFERENCE TO STABLE-MEMBER COORDINATES SCALED AT 2.
000806:                                                                                                  #        2.      UT              HALF-UNIT DESIRED THRUST DIRECTION.
000807:                                                                                                  #        3.      RTIG            POSITION AT TIG IN REFERENCE COORDINATES.
000808:
000809:                                                                                                  #  OUTPUT:
000810:                                                                                                  #        1.      :XSCREF:        WINGS-LEVEL HEADS-UP LM ORIENTATION
000811:                                                                                                  #                :YSCREF:        IN REFERENCE COORDINATES
000812:                                                                                                  #                :ZSCREF:        (PREFERRED IMU ORIENTATION).
000813:                                                                                                  #        2.      POINTVSM        DESIRED THRUST DIRECTION IN STABLE-MEMBER COORDINATES.
000814:                                                                                                  #        3.      SCAXIS          HALF-UNIT OF AXIS TO ALIGN IN STABLE-MEMBER COORDINATES.
000815:                                                                                                  #        4.      PFRATFLG        INTERPRETIVE FLAG.  ON: PREFERRED ORIENTATION COMPUTED; OFF: NOT COMPUTED.
000816:
000817:                                                                                                  #  DEBRIS:  NONE.


000819:
000820: 27,2413                                           COUNT*   $$/S40.2
000821: 27,2413           77775        S40.2,3            VLOAD                                          #  UT:  DESIRED THRUST DIRECTION (HALF-UNIT)
000822: 27,2414           03673                                    UT                                    #  (PUT INTO TOP OF PUSH-DOWN-LIST.)
000823: 27,2415           76521                           MXV      VSL1                                  #  TRANSFORM THRUST DIRECTION TO STABLE-
000824: 27,2416           01734                                    REFSMMAT                              #  MEMBER FROM REFERENCE COORDS (RESCALE).
000825: 27,2417           27773                           STOVL    POINTVSM                              #  SAVE FOR "VECPOINT" ROUTINE (LEMMANU).
000826: 27,2420           06522                                    UNITX                                 #  SCAXIS SET TO +X, FOR P40 AND P42 AND
000827: 27,2421           27765                           STOVL    SCAXIS                                #  FOR P41 IF RCS NOT -X,+Y,-Y,+Z,-Z.
000828:
000829: 27,2422           03673                                    UT                                    #  ASSUME +X BURN ALWAYS, EVEN FOR RCS.
000830: 27,2423           03607        PLUSX              STORE    XSCREF                                #  XSCREF = UT (DESIRED THRUST DIRECTION.)
000831: 27,2424           53435                           VXV      UNIT                                  #  RTIG = POSITION AT TIME-OF-IGNITION.
000832: 27,2425           03642                                    RTIG                                  #  YSCREF = UNIT(UT X RTIG)
000833: 27,2426           46125                           PDDL     BHIZ
000834: 27,2427           00045                                    36D                                   #  TEST MAGNITUDE OF UT X RTIG
000835: 27,2430           56441                                    FIXY                                  #  IF SMALL, USE UT X VTIG AS YSC
000836: 27,2431           45575        STORY              VLOAD    STADR
000837: 27,2432           74162                           STORE    YSCREF
000838: 27,2433           76435                           VXV      VSL1                                  #  COMPUTE (YSCREF X XSCREF),BUT FOR A
000839: 27,2434           03607                                    XSCREF                                #  RIGHT HANDED SYSTEM, NEED (X CROSS Y).
000840: 27,2435           77676                           VCOMP                                          #  ZSCREF = - (YSCREF X XSCREF)
000841: 27,2436           03623                           STORE    ZSCREF                                #         = + (XSCREF X YSCREF)
000842:
000843: 27,2437           43414                           SET      RVQ
000844: 27,2440           01073                                    PFRATFLG
000845: 27,2441           47375        FIXY               VLOAD    VXV                                   #  IN THIS CASE,
000846: 27,2442           03607                                    XSCREF                                #  YSCREF = UNIT(XSCREF X VTIG)
000847: 27,2443           03650                                    VTIG
000848: 27,2444           41456                           UNIT     PUSH
000849: 27,2445           77650                           GOTO
000850: 27,2446           56431                                    STORY


000852:                                                                                                  #  SUBROUTINE S40.8
000853:                                                                                                  #  MODIFIED APRIL 3, 1968  BY  PETER ADLER   MIT/IL
000854:
000855:                                                                                                  #  DESCRIPTION
000856:                                                                                                  #        S40.8 UPDATES THE VELOCITY-TO-BE-GAINED VECTOR, VG, (AND FOR LAMBERT TARGETTED BURNS ALSO EXTRAPOLATES VG
000857:                                                                                                  #        USING THE BDT VECTOR) COMPUTES THE TIME FOR ISSUING THE ENGINE OFF COMMAND, TGO, AND CALLS THE ROUTINE
000858:                                                                                                  #        "FINDCDUW", WHICH GENERATES STEERING COMMANDS FOR THE DAP.
000859:
000860:                                                                                                  #  CALLING SEQUENCE
000861:                                                                                                  #        L-1     CALL
000862:                                                                                                  #        L               S40.8
000863:                                                                                                  #        L+1                     INTERPRETIVE RETURN
000864:
000865:                                                                                                  #  ALARM
000866:                                                                                                  #        IF VG.DELVREF IS NEGATIVE (VG AND DELVREF OVER 90 DEGREES APART), BYPASS TGO AND STEERING COMPUTATIONS
000867:                                                                                                  #        AND SET ALARM 1407.  RETURN TO CALLER NORMALLY.
000868:
000869:                                                                                                  #  INPUT AND INITIALIZATION
000870:                                                                                                  #        VGPREV          REFERENCE       2(7) M/CS
000871:                                                                                                  #        DELVREF         REFERENCE       2(7) M/CS
000872:                                                                                                  #        BDT             REFERENCE       2(7) M/CS
000873:                                                                                                  #        TDECAY          TAIL-OFF TIME   2(28) CS
000874:                                                                                                  #        XDELVFLG        1 = EXTERNAL DELTA-V; 0 = LAMBERT (AIMPOINT)
000875:                                                                                                  #        STEERSW         1 = DO STEERING AND TGO COMPUTATIONS; 0 = VG UPDATE ONLY
000876:                                                                                                  #        FIRSTFLG        1 = GONE TO LAMBERT AT LEAST ONCE; 0 = HAVEN'T GONE TO LAMBERT YET
000877:
000878:                                                                                                  #  NOTE:  VGTIG EQUALS VGPREV
000879:
000880:                                                                                                  #  OUTPUT
000881:                                                                                                  #        STEERSW         SEE INPUT
000882:                                                                                                  #        INPULSW         1 = ENGINE OFF IN TGO CENTISECONDS; 0 = CONTINUE BURN
000883:                                                                                                  #        TGO             TIME TO CUT-OFF 2(28) CS
000884:                                                                                                  #        SEE FINDCDUW FOR STEERING OUTPUTS.
000885:
000886:                                                                                                  #  SUBROUTINE CALLED
000887:                                                                                                  #        FINDCDUW
000888:
000889:                                                                                                  #  DEBRIS
000890:                                                                                                  #        MPACS, PUSHLIST
000891:
000892: 27,2447                                           COUNT*   $$/S40.8


000894: 27,2447           77614        S40.8              BOF                                            #  GENERATE VR IF NOT EXTERNAL DELTA-V BURN
000895: 27,2450           01347                                    XDELVFLG
000896: 27,2451           56731                                    RASTEER1
000897: 27,2452           52375                           VLOAD    VSU
000898: 27,2453           03701                                    VGPREV
000899: 27,2454           03527                                    DELVREF
000900: 27,2455           03707        VGAIN*             STORE    VG                                    #  VELOCITY TO BE GAINED SCALED AT (7) M/CS
000901: 27,2456           76521                           MXV      VSL1
000902: 27,2457           01734                                    REFSMMAT
000903: 27,2460           03253                           STORE    UNFC/2
000904: 27,2461           51575        BDTOK              VLOAD    ABVAL
000905: 27,2462           03707                                    VG
000906: 27,2463           03664                           STORE    VGDISP
000907: 27,2464           77201        TGDCALC            SETPD    VLOAD
000908: 27,2465           00001                                    0
000909: 27,2466           03707                                    VG
000910: 27,2467           27701                           STOVL    VGPREV
000911: 27,2470           03527                                    DELVREF
000912: 27,2471           57414                           BOFF     VCOMP
000913: 27,2472           01344                                    STEERSW
000914: 27,2473           00052                                    QPRET
000915: 27,2474           77656                           UNIT
000916: 27,2475           41441                           DOT      PUSH
000917: 27,2476           03707                                    VG
000918: 27,2477           56244                           BPL      DDV
000919: 27,2500           56526                                    ALARMIT                               #  DELV IS MORE THAN 90 DEGREES FROM VG.
000920: 27,2501           03743                                    VEX
000921: 27,2502           41215                           DAD      DMP
000922: 27,2503           06522                                    DPHALF
000923: 27,2504           56261                           SR       DDV
000924: 27,2505           20613                                    10D
000925: 27,2506           00045                                    36D
000926: 27,2507           43205                           DMP      DAD
000927: 27,2510           16535                                    -FOURDT
000928: 27,2511           03741                                    TDECAY
000929: 27,2512           03517                           STORE    TGO
000930: 27,2513           77615                           DAD
000931: 27,2514           01234                                    PIPTIME
000932: 27,2515           17442                           STODL    TIG
000933: 27,2516           03517                                    TGO
000934: 27,2517           51025                           DSU      BPL
000935: 27,2520           16537                                    FOURSECS                              #  400 CS
000936: 27,2521           61100                                    FINDCDUW   -2
000937: 27,2522           43014                           SET      CLRGO
000938: 27,2523           01066                                    IMPULSW
000939: 27,2524           01224                                    STEERSW
000940: 27,2525           00052                                    QPRET
000941:
000942: 27,2526           77776        ALARMIT            EXIT
000943:


000945: 27,2527           05567                           TC       ALARM
000946: 27,2530           01407                           OCT      01407
000947: 27,2531           06042                           TC       INTPRET
000948: 27,2532           77650                           GOTO                                           #  SKIP TGO COMPUTATION BUT CALL FINDCDUW.
000949: 27,2533           61100                                    FINDCDUW   -2                         #  FINDCDUW WILL EXIT TO UPDATEVG +3.
000950:
000951: 27,2534           77715 77777  -FOURDT            2DEC     -800       B-18                       #  -4 (200 CS.) B(-18)
000952: 27,2536           00000 00620  FOURSECS           2DEC     400        B-28                       #  400 CS SCALED AT 2(+28) CS
000953: 27,2540  E7,1742               2VEXHUST           =        VEX
000954:


000956:                                                                                                  #  NAME                  S40.13 - TIMEBURN
000957:
000958:                                                                                                  #  FUNCTION              (1) DETERMINE WHETHER A GIVEN COMBINATION OF VELOCITY TO
000959:                                                                                                  #                        BE GAINED AND ENGINE CHOICE RESULT IN A BURN TIME
000960:                                                                                                  #                        SUFFICIENT TO ALLOW STEERING AT THE VEHICLE DURING THE
000961:                                                                                                  #                        BURN
000962:                                                                                                  #                        (2) THE MAGNITUDE OF THE RESULTING BURN TIME -- IF IT
000963:                                                                                                  #                        IS SHORT -- AND THE ASSOCIATED TIME OF THE ENGINE OFF
000964:                                                                                                  #                        SIGNAL
000965:
000966:                                                                                                  #  CALLING SEQUENCE      VIA FINDVAC AS A NEW JOB
000967:
000968:                                                                                                  #  INPUT                 VGTIG VELOCITY TO BE GAINED VECTOR (METERS/CS) AT +7
000969:                                                                                                  #                        WEIGHT/G MASS OF VEHICLE IN KGM AT +16
000970:                                                                                                  #                        F  APS ENGINE THRUST IN M.NEWTONS AT +7
000971:                                                                                                  #                        AND ALSO FOR RCS ENGINE
000972:                                                                                                  #                        MDOT RATE OF DECREASE OF VEHICLE MASS DURING ENGINE
000973:                                                                                                  #                        BURN IN KILOGRAMS/CS AT +3.  THIS SCALING MAY
000974:                                                                                                  #                        REQUIRE MODIFICATION FOR SATURN BURNS.
000975:                                                                                                  #                ENG1FLAG    SWITCH TO DECIDE WHETHER APS OR DPS ENGINE IS USED
000976:                                                                                                  #                                =0      DPS
000977:                                                                                                  #                                =1      APS
000978:
000979:                                                                                                  #  OUTPUT                IMPULSW         ZERO FOR STEERING
000980:                                                                                                  #                                        ONE FOR ATTITUDE HOLD
000981:                                                                                                  #                        NOTHROTL        ZERO FOR THROTTLING
000982:                                                                                                  #                                        ONE TO INHIBIT THROTTLING
000983:                                                                                                  #                        TGO             TIME TO BURN IN CS
000984:                                                                                                  #                        THE QUANTITY M.NEWTON = 10000 NEWTONS WILL BE USED TO EXPRESS
000985:                                                                                                  #                        FORCE
000986:
000987: 27,2540  E7,1516                                  EBANK=   TGO
000988: 27,2540                                           COUNT*   $$/40.13
000989: 27,2540           06042        S40.13             TC       INTPRET
000990: 27,2541           43001                           SETPD    CLEAR
000991: 27,2542           00001                                    00D
000992: 27,2543           01266                                    IMPULSW                               #  ASSUME NO STEERING UNTIL FOUND OTHERWISE
000993: 27,2544           51575                           VLOAD    ABVAL
000994: 27,2545           03701                                    VGTIG                                 #  VELOCITY TO BE GAINED AT +7
000995: 27,2546           41325                           PDDL     DMP                                   #  00D = MAG OF VGTIG AT +7
000996: 27,2547           21006                                    4SEC(17)                              #  CORRECT VG FOR 4 SECS OF 2 JET ULLAGE
000997: 27,2550           34021                                    FRCS2
000998: 27,2551           72471                           DDV      SL1                                   #  SCALE
000999: 27,2552           01244                                    WEIGHT/G
001000: 27,2553           41421                           BDSU     PUSH
001001: 27,2554           43014                           BOFF     SET
001002: 27,2555           05342                                    APSFLAG
001003: 27,2556           56626                                    S40.13D                               #  FOR DPS ENGINE
001004: 27,2557           02463                                    NOTHROTL
001005: 27,2560           56345                           DLOAD    DDV                                   #  00D = MAG OF VGTIG CORRECTED


001008: 27,2561           16001                                    K1VAL                                 #  M.NEWTONS-CS AT +24
001009: 27,2562           01244                                    WEIGHT/G
001010: 27,2563           50021                           BDSU     BMN


001012: 27,2564           00001                                    00D
001013: 27,2565           56610                                    S40.131                               #  TGO LESS THAN 100 CS
001014: 27,2566           41325                           PDDL     DMP                                   #  02D = TEMP1 AT +7
001015: 27,2567           03737                                    MDOT
001016:
001017:                                                                                                  #  MDOT REPRESENTS THE RATE OF DECREASE OF VEHICLE MASS DURING ENGINE
001018:                                                                                                  #  BURN IN KILOGRAMS/CS.  WHEN SATURN IS USED, THE SCALING MAY
001019:                                                                                                  #  REQUIRE ADJUSTMENT
001020:
001021: 27,2570           16700                                    3.5SEC                                #  350 CS AT +14
001022: 27,2571           65221                           BDSU     PDDL
001023: 27,2572           01244                                    WEIGHT/G
001024: 27,2573           03735                                    F
001025: 27,2574           60405                           DMP      SR2                                   #  SCALE
001026: 27,2575           16702                                    5SECS
001027: 27,2576           41471                           DDV      PUSH                                  #  04D = TEMP2
001028: 27,2577           51021                           BDSU     BPL
001029: 27,2600           00003                                    02D
001030: 27,2601           56626                                    S40.13D
001031: 27,2602           55345                           DLOAD    BDDV
001032: 27,2603           43205                           DMP      DAD
001033: 27,2604           16702                                    5SECS
001034: 27,2605           16676                                    1SEC2D                                #  100 CS AT +14
001035: 27,2606           77650                           GOTO
001036: 27,2607           56616                                    S40.132
001037: 27,2610           41345        S40.131            DLOAD    DMP
001038: 27,2611           01244                                    WEIGHT/G


001041: 27,2612           41542                           SR1      PUSH
001042: 27,2613           56215                           DAD      DDV
001043: 27,2614           16003                                    K2VAL                                 #  M.NEWTON CS AT +24


001048: 27,2615           16005                                    K3VAL                                 #  M.NEWTON CS AT +10
001049: 27,2616           77414        S40.132            SET      EXIT
001050: 27,2617           01066                                    IMPULSW
001051: 27,2620           07262        S40.132*           TC       TPAGREE
001052: 27,2621           30154                           CA       MPAC


001055: 27,2622           56001                           XCH      L
001056: 27,2623           34755                           CA       ZERO


001059: 27,2624           53517                           DXCH     TGO
001060: 27,2625           12650                           TCF      S40.134
001061:
001062: 27,2626           41345        S40.13D            DLOAD    DMP                                   #  FOR DPS ENGINE
001063: 27,2627           00001                                    00D
001064: 27,2630           01244                                    WEIGHT/G
001065: 27,2631           43006                           PUSH     BON
001066: 27,2632           05302                                    APSFLAG
001067: 27,2633           56671                                    APSTGO
001068: 27,2634           43071                           DDV      CLEAR
001069: 27,2635           16007                                    S40.136
001070: 27,2636           02663                                    NOTHROTL
001071: 27,2637           41400                           BOV      PUSH


001073: 27,2640           56653                                    S40.130V
001074: 27,2641           51025        S40.127            DSU      BPL
001075: 27,2642           16704                                    6SEC                                  #  600.0 CS AT +14
001076: 27,2643           56661                                    S40.138
001077: 27,2644           52015                           DAD      GOTO
001078: 27,2645           16704                                    6SEC
001079: 27,2646           56616                                    S40.132
001080: 27,2647           77776        S40.133            EXIT
001081: 27,2650           05353        S40.134            TC       PHASCHNG
001082: 27,2651           00003                           OCT      00003
001083: 27,2652           05155                           TC       ENDOFJOB
001084: 27,2653           40545        S40.130V           DLOAD    SR4                                   #  RECOMPUTE TGO IN TIME2 UNITS
001085: 27,2654           77671                           DDV
001086: 27,2655           16011                                    S40.136_                              #  S40.136 SHIFTED LEFT 10
001087: 27,2656           03517                           STORE    TGO
001088: 27,2657           77776                           EXIT
001089: 27,2660           12650                           TCF      S40.134                               #  REJOIN COMMON CODING FOR RESTART PROTECT
001090:
001091: 27,2661           51025        S40.138            DSU      BPL
001092: 27,2662           16706                                    89SECS
001093: 27,2663           56666                                    STORETGO
001094: 27,2664           77614                           SET
001095: 27,2665           02463                                    NOTHROTL
001096: 27,2666           77745        STORETGO           DLOAD                                          #  LOAD TGO AT 2(14)
001097: 27,2667           77776                           EXIT
001098: 27,2670           12620                           TCF      S40.132*
001099:
001100: 27,2671           62471        APSTGO             DDV      SL2
001101: 27,2672           34007                                    FAPS
001102: 27,2673           77650                           GOTO
001103: 27,2674           56667                                    STORETGO   +1
001104: 27,2675           00144 00000  1SEC2D             2DEC     100.0      B-14                       #  100.0 CS AT +14
001105: 27,2677           01274 00000  3.5SEC             2DEC     350.0      B-13                       #  350 CS AT +13
001106: 27,2701           00764 00000  5SECS              2DEC     500.0      B-14                       #  500.0 CS AT +14
001107: 27,2703           01130 00000  6SEC               2DEC     600.0      B-14                       #  600.0 CS AT +14
001108: 27,2705           21304 00000  89SECS             2DEC     8900.0     B-14
001109:
001110:                                                                                                  #  FUNCTION              (1) GENERATES REQUIRED VELOCITY AND VELOCITY-TO-BE-GAINED
001111:                                                                                                  #                        VECTORS FOR USE DURING AIMPOINT MANEUVERS EVERY TWO
001112:                                                                                                  #                        COMPUTATION CYCLES (4 SECONDS).
001113:                                                                                                  #                        (2) UPDATES THE B VECTOR WHICH IS USED IN THE FINAL
001114:                                                                                                  #                        CALCULATION OF EXTRAPOLATING THE VELOCITY-TO-BE-GAINED
001115:                                                                                                  #                        THROUGH ONE 2-SECOND INTERVAL INTO THE FUTURE.
001116:
001117:                                                                                                  #  CALLING SEQ VIA FINDVAC AS NEW JOB.
001118:
001119:                                                                                                  #  INPUT                 RN      - ACTIVE VEHICLE RADIUS VECTOR IN METERS AT +29.
001120:                                                                                                  #                        VN      - ACTIVE VEHICLE VELOCITY VECTOR IN METERS/CS AT +7


001122:                                                                                                  #                        VRPREV  - LAST COMPUTED VELOCITY REQUIRED VECTOR IN
001123:                                                                                                  #                                  METERS/CS AT +7.
001124:                                                                                                  #                        TIG     - TIME OF IGNITION IN CS AT +28.
001125:                                                                                                  #                        DLTARG  - COMPUTATION CYCLE INTERVAL = 200 CS AT +28.
001126:                                                                                                  #                        PIPTIME - TIME OF RN AND VN IN CS AT +28.
001127:                                                                                                  #                        GDT/2   - HALF OF VELOCITY GAINED IN DELTA T TIME DUE TO
001128:                                                                                                  #                                  ACCERERATION OF GRAVITY IN METERS/CS AT +7.
001129:                                                                                                  #                        DELVREF - CHANGE IN VELOCITY DURING LAST 2 SEC IN
001130:                                                                                                  #                                  METERS/CS AT +7.
001131:
001132:                                                                                                  #  OUTPUT                VGPREV  - VELOCITY TO BE GAINED VECTOR IN METERS/CS AT +7.
001133:                                                                                                  #                        VGDISP  - MAG OF VGPREV FOR DISPLAY PURPOSES.
001134:                                                                                                  #                        VRPREV  - VELOCITY REQUIRED VECTOR IN METERS/CS AT +7.
001135:                                                                                                  #                        BDT     - B VECTOR IN METERS/CS AT +7.
001136:
001137:                                                                                                  #  SUBROUTINES USED      -       INITVEL
001138:
001139: 27,2707  E7,1700                                  EBANK=   VGPREV
001140: 27,2707                                           COUNT*   $$/S40.9
001141: 27,2707           06042        S40.9              TC       INTPRET
001142: 27,2710           77601                           SETPD
001143: 27,2711           00001                                    00D
001144: 27,2712           71214                           SET      DLOAD
001145: 27,2713           01072                                    AVFLAG                                #  SET AVFLAG FOR LEM ACTIVE
001146: 27,2714           06524                                    HI6ZEROS
001147: 27,2715           77725                           PDDL
001148: 27,2716           16406                                    EPS1
001149: 27,2717           43214                           BOFF     DAD                                   #  EPSILON4 = 10 OR 45 DEGREES.
001150: 27,2720           03745                                    NORMSW
001151: 27,2721           56723                                    EPSSMALL
001152: 27,2722           16410                                    EPS2
001153: 27,2723           45006        EPSSMALL           PUSH     CALL
001154: 27,2724           22002                                    HAVEGUES
001155: 27,2725           77776        ENDS40.9           EXIT
001156: 27,2726           05353                           TC       PHASCHNG
001157: 27,2727           00002                           OCT      2
001158: 27,2730           15155                           TCF      ENDOFJOB
001159:
001160: 27,2731           51575        RASTEER1           VLOAD    ABVAL
001161: 27,2732           01220                                    RN
001162: 27,2733           53744                           LXC,2    SL*
001163: 27,2734           02777                                    RTX2
001164: 27,2735           57576                                    0,2
001165: 27,2736           27715                           STOVL    RMAG
001166: 27,2737           03444                                    RTARG
001167: 27,2740           47051                           VSU      RTB
001168: 27,2741           01220                                    RN
001169: 27,2742           21725                                    NORMUNX1
001170: 27,2743           17656                           STODL    IC
001171: 27,2744           00045                                    36D                                   #  C(36D) = ABVAL(C)
001172: 27,2745           53674                           XAD,2    SL*
001173: 27,2746           00046                                    X1


001175: 27,2747           57576                                    0,2
001176: 27,2750           00037                           STORE    30D
001177: 27,2751           41301                           NORM     DMP
001178: 27,2752           00050                                    X2
001179: 27,2753           03715                                    RMAG
001180: 27,2754           57101                           NORM     XAD,2
001181: 27,2755           00047                                    X1
001182: 27,2756           00046                                    X1
001183: 27,2757           77734                           SXA,2
001184: 27,2760           03766                                    MUSCALE
001185: 27,2761           17725                           STODL    R1C
001186: 27,2762           00037                                    30D
001187: 27,2763           65342                           SR1      PDDL
001188: 27,2764           03715                                    RMAG
001189: 27,2765           65342                           SR1      PDDL
001190: 27,2766           03723                                    RTMAG
001191: 27,2767           43342                           SR1      DAD
001192: 27,2770           45415                           DAD      STADR
001193: 27,2771           74044                           STORE    SS                                    #  SS = (R1 + R2 + C)/2
001194: 27,2772           41225                           DSU      DMP
001195: 27,2773           00037                                    30D
001196: 27,2774           03721                                    MU/A
001197: 27,2775           77621                           BDSU
001198: 27,2776           03717                                    MUASTEER


001210: 27,2777           45325                           PDDL     DSU
001211: 27,3000           03733                                    SS


001213: 27,3001           03715                                    RMAG
001214: 27,3002           70501                           NORM     SR1
001215: 27,3003           00047                                    X1


001221: 27,3004           41271                           DDV      DMP
001222: 27,3005           03725                                    R1C
001223: 27,3006           53664                           XSU,2    SL*
001224: 27,3007           00046                                    X1
001225: 27,3010           57575                                    1,2
001226: 27,3011           77754                           LXA,2
001227: 27,3012           03766                                    MUSCALE


001233: 27,3013           75366                           SQRT     SIGN


001235: 27,3014           02673                                    GEOMSGN
001236: 27,3015           00041                           STORE    32D                                   #  + OR - A


001242: 27,3016           41345                           DLOAD    DMP
001243: 27,3017           03733                                    SS
001244: 27,3020           03721                                    MU/A


001250: 27,3021           77621                           BDSU
001251: 27,3022           03717                                    MUASTEER
001252: 27,3023           45325                           PDDL     DSU
001253: 27,3024           03733                                    SS
001254: 27,3025           03723                                    RTMAG
001255: 27,3026           70501                           NORM     SR1
001256: 27,3027           00047                                    X1


001262: 27,3030           41271                           DDV      DMP
001263:


001265: 27,3031           03725                                    R1C
001266: 27,3032           53664                           XSU,2    SL*
001267: 27,3033           00046                                    X1
001268: 27,3034           57575                                    1,2
001269: 27,3035           65366                           SQRT     PDDL                                  #  -B (NO SIGN)
001270: 27,3036           03733                                    SS
001271: 27,3037           56225                           DSU      DDV
001272: 27,3040           00037                                    30D
001273: 27,3041           03733                                    SS
001274: 27,3042           41566                           SQRT     PUSH


001276: 27,3043           67542                           SR1      ASIN
001277: 27,3044           65205                           DMP      PDDL
001278: 27,3045           17216                                    2PI+3
001279: 27,3046           56325                           PDDL     DDV
001280: 27,3047           00037                                    30D
001281: 27,3050           03733                                    SS


001283: 27,3051           77600                           BOV
001284: 27,3052           57053                                    +1


001286: 27,3053           41366                           SQRT     DMP
001287: 27,3054           44242                           SR3      BDSU


001289: 27,3055           65365                           SIGN     PDDL
001290: 27,3056           02673                                    GEOMSGN
001291: 27,3057           17216                                    2PI+3


001293: 27,3060           45302                           SR2      DSU
001294: 27,3061           65205                           DMP      PDDL
001295: 27,3062           03733                                    SS
001296: 27,3063           03733                                    SS


001298: 27,3064           75442                           SR3      SQRT
001299: 27,3065           77605                           DMP
001300: 27,3066           52525                           PDDL     SL3
001301: 27,3067           03717                                    MUASTEER


001309: 27,3070           55366                           SQRT     BDDV
001310: 27,3071           43225                           DSU      DAD
001311: 27,3072           03631                                    TPASS4
001312: 27,3073           01234                                    PIPTIME


001314: 27,3074           14037                           STODL    30D
001315: 27,3075           77765                           SIGN
001316: 27,3076           00037                                    30D                                   #  B WITH SIGN
001317: 27,3077           00037                           STORE    30D
001318: 27,3100           77214                           BON      VLOAD
001319: 27,3101           03705                                    NORMSW
001320: 27,3102           57123                                    180MESS
001321: 27,3103           03656                                    IC
001322: 27,3104           53451                           VSU      UNIT
001323: 27,3105           03537                                    UNIT/R/


001325: 27,3106           63361                           VXSC     PDVL


001327: 27,3107           00037                                    30D
001328: 27,3110           03656                                    IC
001329: 27,3111           53455                           VAD      UNIT


001331: 27,3112           03537                                    UNIT/R/


001333:


001335: 27,3113           53361        GETVRVG1           VXSC     VAD
001336: 27,3114           00041                                    32D
001337: 27,3115           53744        GETVRVG2           LXC,2    VSR*
001338: 27,3116           02777                                    RTX2
001339: 27,3117           57177                                    0          -1,2
001340: 27,3120           02337                           STORE    VIPRIME
001341: 27,3121           77650                           GOTO
001342: 27,3122           57166                                    ASTREND    -2
001343: 27,3123           50375        180MESS            VLOAD    DOT
001344: 27,3124           03656                                    IC
001345: 27,3125           03537                                    UNIT/R/
001346: 27,3126           77240                           BMN      VLOAD
001347: 27,3127           57146                                    NEGPROD
001348: 27,3130           03656                                    IC
001349: 27,3131           63362                           VSR1     PDVL
001350: 27,3132           03537                                    UNIT/R/
001351: 27,3133           53362                           VSR1     VAD
001352: 27,3134           77656                           UNIT
001353: 27,3135           57406                           PUSH     VCOMP                                 #  FOR A
001354: 27,3136           75235                           VXV      SIGN
001355: 27,3137           02674                                    UN
001356: 27,3140           02673                                    GEOMSGN
001357: 27,3141           74256                           UNIT     VXSC
001358: 27,3142           00037                                    30D
001359: 27,3143           77715                           PDVL                                           #  UNIT(IC-IR)   +-B
001360: 27,3144           77650                           GOTO
001361: 27,3145           57113                                    GETVRVG1
001362: 27,3146           74575        NEGPROD            VLOAD    VSR1
001363: 27,3147           03537                                    UNIT/R/
001364: 27,3150           74515                           PDVL     VSR1
001365: 27,3151           03656                                    IC
001366: 27,3152           53451                           VSU      UNIT
001367: 27,3153           77606                           PUSH
001368: 27,3154           75235                           VXV      SIGN
001369: 27,3155           02674                                    UN                                    #  FOR B
001370: 27,3156           02673                                    GEOMSGN
001371: 27,3157           74256                           UNIT     VXSC
001372: 27,3160           00041                                    32D
001373: 27,3161           77715                           PDVL
001374: 27,3162           53361                           VXSC     VAD
001375: 27,3163           00037                                    30D
001376: 27,3164           77650                           GOTO
001377: 27,3165           57115                                    GETVRVG2
001378: 27,3166           77651                           VSU
001379: 27,3167           03553                                    VN1
001380: 27,3170           02366        ASTREND            STORE    DELVEET3
001381: 27,3171           53135        FIRSTTME           SLOAD    BZE
001382: 27,3172           03000                                    RTX2
001383: 27,3173           57177                                    GETGOBL
001384: 27,3174           52175                           VLOAD    GOTO                                  #  NO OBLATENESS COMP IF IN MOON SPHERE


001386: 27,3175           02366                                    DELVEET3
001387: 27,3176           57212                                    NOGOBL


001390: 27,3177           53575        GETGOBL            VLOAD    UNIT                                  #  CALCULATE OBLATENESS TERM.
001391: 27,3200           01220                                    RN
001392: 27,3201           45345                           DLOAD    DSU
001393: 27,3202           01234                                    PIPTIME                               #               2
001394: 27,3203           03512                                    GOBLTIME                              #  G    = -(MU/R )(UNITGOBL)(T-TIG)
001395: 27,3204           56205                           DMP      DDV                                   #   OBL
001396: 27,3205           16023                                    EARTHMU
001397: 27,3206           00043                                    34D                                   #  34D = /RN/ (2) FROM UNIT OPERATION.
001398: 27,3207           53361                           VXSC     VAD
001399: 27,3210           03521                                    UNITGOBL
001400: 27,3211           02366                                    DELVEET3                              #  OUTPUT FROM INITVEL VG = VR - VN
001401: 27,3212           02366        NOGOBL             STORE    DELVEET3                              #  VG = VR + GOBL - VN
001402: 27,3213           77650                           GOTO
001403: 27,3214           56455                                    VGAIN*
001404:
001405: 27,3215           31103 36652  2PI+3              2DEC     3.141592653 B-2
001406:


001408:                                                                                                  #  TRIMGIMB      (FORMERLY S40.6)
001409:                                                                                                  #  MOD 0         24 FEB 67       PETER ADLER
001410:
001411:                                                                                                  #  FUNCTION:
001412:                                                                                                  #        TRIMS DPS ENGINE TO MINIMIZE THRUST/CG OFFSET.  ENGINE IS GIMBALLED TO FULL + PITCH AND + ROLL (TO LOCK)
001413:                                                                                                  #        FOR REFERENCE AND IS THEN BROUGHT BACK TO TRIM POSITION BY RUNNING FOR THE PROPER TIMES (TO BE
001414:                                                                                                  #        SPECIFIED BY GAEC) IN - PITCH AND - ROLL.
001415:
001416:                                                                                                  #  CALLING SEQUENCE:
001417:                                                                                                  #        VIA WAITLIST FROM R03
001418:
001419:                                                                                                  #  INPUT:
001420:                                                                                                  #        PITTIME         TIME TO RUN FROM FULL + PITCH TO TRIM (CS)
001421:                                                                                                  #        ROLLTIME        TIME TO RUN FROM FULL + ROLL TO TRIM (CS)
001422:
001423:                                                                                                  #  SUBROUTINES USED:
001424:                                                                                                  #        WAITLIST, FIXDELAY, VARDELAY, FLAGUP, FLAGDOWN, NOVAC
001425:
001426: 27,3217                                           COUNT*   $$/S40.6
001427: 27,3217  E6,1401                                  EBANK=   ROLLTIME                              #  OCTAL MASKS: PRIO5=05000 EBANK5=02400
001428:
001429: 27,3217           05516        TRIMGIMB           TC       DOWNFLAG                              #  GMBDRVSW FLAG IS SET WHEN EITHER ROLL OR
001430: 27,3220           00137                           ADRES    GMBDRVSW                              #  PITCH IS COMPLETED, WHICHEVER IS FIRST.
001431:
001432: 27,3221           45017                           CS       PRIO5                                 #  TURN OFF - PITCH, - ROLL, IF ON.
001433: 27,3222           00006                           EXTEND
001434: 27,3223           03012                           WAND     CHAN12
001435: 27,3224           35014                           CAF      EBANK5                                #  TURN ON + PITCH, + ROLL.
001436: 27,3225           00006                           EXTEND
001437: 27,3226           05012                           WOR      CHAN12
001438: 27,3227           05221                           TC       FIXDELAY                              #  WAIT ONE MINUTE TO MAKE SURE ENGINE IS
001439: 27,3230           13560                           DEC      6000       B-14                       #  AT FULL + PITCH AND FULL + ROLL
001440: 27,3231           45014                           CS       EBANK5                                #  TURN OFF + PITCH, + ROLL.
001441: 27,3232           00006                           EXTEND
001442: 27,3233           03012                           WAND     CHAN12
001443: 27,3234           35017                           CAF      PRIO5                                 #  TURN ON - PITCH, - ROLL.
001444: 27,3235           00006                           EXTEND
001445: 27,3236           05012                           WOR      CHAN12
001446: 27,3237           31402                           CAE      PITTIME                               #  GET TIME TO SHUT OFF - PITCH AND SET UP
001447: 27,3240           05173                           TC       TWIDDLE                               #  TWIDDLE-TASK TO TURN IT OFF THEN
001448: 27,3241           03260                           ADRES    PITCHOFF
001449:
001450: 27,3242           31401                           CAE      ROLLTIME                              #  GET TIME TO SHUT OFF - ROLL AND GO AWAY
001451: 27,3243           05224                           TC       VARDELAY                              #  UNTIL THEN
001452: 27,3244           44740                           CS       BIT12
001453: 27,3245           00006                           EXTEND
001454: 27,3246           03012                           WAND     CHAN12                                #  SHUT OFF ROLL
001455: 27,3247           30102        ROLLOVER           CA       FLAGWRD6                              #  IF HERE INLINE (ROLL DONE) IS PITCH DONE
001456: 27,3250           74742                           MASK     GMBDRBIT                              #  IF HERE FROM PITCHOFF, IS ROLL DONE?
001457: 27,3251           00006                           EXTEND
001458: 27,3252           13264                           BZF      PITCHOFF   +4                         #  NO.  SET FLAG, ROLL OR PITCH DONE.
001459: 27,3253           34737                           CAF      PRIO10                                #  RETURN TO R03
001460: 27,3254           05072                           TC       NOVAC
001461: 27,3255  E7,1471                                  EBANK=   WHOCARES


001463: 27,3255           02325 02067                     2CADR    TRIMDONE
001464:
001465: 27,3257           05261                           TC       TASKOVER
001466: 27,3260           44742        PITCHOFF           CS       BIT10
001467: 27,3261           00006                           EXTEND
001468: 27,3262           03012                           WAND     CHAN12                                #  SHUT OFF PITCH
001469: 27,3263           13247                           TCF      ROLLOVER                              #  SEE IF ROLL HAS FINISHED ALSO.
001470: 27,3264           05504                           TC       UPFLAG                                #  ROLL DONE; OR PITCH DONE; BUT NOT BOTH.
001471: 27,3265           00137                           ADRES    GMBDRVSW
001472: 27,3266           05261                           TC       TASKOVER
001473:


001475:                                                                                                  #  SUBROUTINE NAME:  S41.1       MOD. NO. 0      DATE: FEBRUARY 28, 1967
001476:                                                                                                  #  MOD. NO. 1    DATE: JANUARY 23, 1968, BY PETER ADLER (MIT/IL)
001477:
001478:                                                                                                  #  AUTHOR: JONATHAN D. ADDELSTON (ADAMS ASSOCIATES)
001479:
001480:                                                                                                  #  S41.1 PERFORMS THE COORDINATE SYSTEM TRANFORMATION FROM THE REFERENCE FRAME TO THE BODY OF THE LM.
001481:                                                                                                  #  SPECIFICALLY, IT IS USED TO TRANSFORM A VELOCITY (SCALED AT 2(+7) METERS/CENTISECOND) FROM REFERENCE TO LM AXIS
001482:                                                                                                  #  COORDINATES.  FIRST THE VECTOR IS TRANSFORMED TO THE STABLE MEMBER COORDINATES BY THE MATRIX REFSMMAT.  THIS
001483:                                                                                                  #  LEAVES THE VECTOR IN MPAC, SCALED AT 2(+8) METERS/CENTISECOND.  THEN
001484:                                                                                                  #  THE SUBROUTINE CDUTRIG IS CALLED TO SET UP THE DOUBLE-PRECISION CDU VECTOR ALONG WITH ITS SINES AND COSINES.
001485:                                                                                                  #  THE VECTOR IS THEN TRANSFORMED FROM STABLE MEMBER COORDINATES TO SPACECRAFT (OR LM) COORDINATES BY THE
001486:                                                                                                  #  SUBROUTINE *SMNB*.  FINALLY, THE VECTOR IS RESCALED TO 2(+7) METERS/CENTISECOND, AND CONTROL IS RETURNED TO THE
001487:                                                                                                  #  CALLER WITH C(MPAC) = VELOCITY(LM).
001488:
001489:                                                                                                  #  CALLING SEQUENCE:
001490:                                                                                                  #        L       VLOAD   CALL
001491:                                                                                                  #        L +1            VELOCITY(REF)           SCALED AT 2(+7) M/CS IN REFERENCE COORDS.
001492:                                                                                                  #        L +2            S41.1
001493:                                                                                                  #        L +3    STORE   VELOCITY(LM)            SCALED AT 2(+7) M/CS IN LM BODY AXIS SYS.
001494:
001495:                                                                                                  #  SUBROUTINES CALLED:
001496:                                                                                                  #        1.      CDUTRIG,
001497:                                                                                                  #                        WHICH CALLS CDULOGIC.
001498:                                                                                                  #        2.      *SMNB*
001499:
001500:                                                                                                  #  NORMAL RETURN:  L +3 (SEE CALLING SEQUENCE, ABOVE.)
001501:
001502:                                                                                                  #  ALARM/ABORT MODES:  NONE.
001503:
001504:                                                                                                  #  RESTART PROTECTION:  NONE.
001505:


001507:                                                                                                  #  INPUT:
001508:                                                                                                  #        1.      REFSMMAT.
001509:                                                                                                  #        2.      CDUX, CDUY, CDUZ.
001510:                                                                                                  #        3.      VELOCITY (REF) IN MPAC.
001511:
001512:                                                                                                  #  OUTPUT:
001513:                                                                                                  #        1.      CDUSPCT:        DOUBLE PRECISION CDU VECTOR, ORDERED Y,Z,X.
001514:                                                                                                  #        2.      SINCDU:         HALF SINES OF CDUSPCT COMPONENTS.
001515:                                                                                                  #        3.      COSCDU:         HALF COSINES OF CDUSPOT COMPONENTS.
001516:                                                                                                  #        4.      MPAC:           VELOCITY(LM) (SCALED AT 2(+7) METERS/CENTISECOND)
001517:
001518:                                                                                                  #  DEBRIS:  NONE.
001519:
001520:                                                                                                  #  CHECKOUT STATUS:  CODED.
001521:
001522: 27,3267                                           COUNT*   $$/S41.1
001523: 27,3267           76521        S41.1              MXV      VSL1                                  #  CONVERT VECTOR IN MPAC FROM REF AT 2(+7)
001524: 27,3270           01734                                    REFSMMAT                              #  TO SM AND RESCALE DUE TO HALFUNIT MATRIX
001525: 27,3271           77650                           GOTO                                           #  CONVERT TO BODY AT 2(+7) USING PRESENT
001526: 27,3272           47650                                    CDU*SMNB                              #  CDU ANGLES.  CDU*SMNB WILL RETURN
001527:                                                                                                  #  VIA RVQ TO THE CALLER OF S41.1

End of include-file P40-P47.agc.  Parent file is MAIN.agc


