
Source Code


000002:                                                                                                  ## Copyright:   Public domain.
000003:                                                                                                  ## Filename:    P70-P71.agc
000004:                                                                                                  ## Purpose:     A section of Luminary 1C, revision 131.
000005:                                                                                                  ##              It is part of the source code for the Lunar Module's (LM)
000006:                                                                                                  ##              Apollo Guidance Computer (AGC) for Apollo 13.
000007:                                                                                                  ##              This file is intended to be a faithful transcription, except
000008:                                                                                                  ##              that the code format has been changed to conform to the
000009:                                                                                                  ##              requirements of the yaYUL assembler rather than the
000010:                                                                                                  ##              original YUL assembler.
000011:                                                                                                  ## Reference:   pp. 823-830
000012:                                                                                                  ## Contact:     Ron Burkey <info@sandroid.org>.
000013:                                                                                                  ## Website:     www.ibiblio.org/apollo
000014:                                                                                                  ## Mod history: 05/26/03 RSB.   Began transcribing.
000015:                                                                                                  ##              2017-01-06 RSB  Page numbers now agree with those on the
000016:                                                                                                  ##                              original hardcopy, as opposed to the PDF page
000017:                                                                                                  ##                              numbers in 1701.pdf.
000018:                                                                                                  ##              2017-02-26 RSB  Proofed comment text using octopus/ProoferComments.
000019:                                                                                                  ##              2017-03-01 RSB  Fixed lingering typos.
000020:                                                                                                  ##              2017-03-14 RSB  Comment-text fixes noted in proofing Luminary 116.
000021:


000023: 21,2006                                           BANK     21
000024: 21,2000                                           SETLOC   R11
000025: 21,2000                                           BANK
000026:
000027: 21,2006  E7,1515                                  EBANK=   DVCNTR
000028: 21,2006                                           COUNT*   $$/R11
000029:
000030: 21,2006           40103        R10,R11            CS       FLAGWRD7                              #  IS SERVICER STILL RUNNING?
000031: 21,2007           74747                           MASK     AVEGFBIT
000032: 21,2010           10000                           CCS      A
000033: 21,2011           15261                           TCF      TASKOVER                              #  LET AVGEND TAKE CARE OF GROUP 2.
000034: 21,2012           11055                           CCS      PIPCTR
000035: 21,2013           12015                           TCF      +2
000036: 21,2014           12125                           TCF      LRHTASK                               #  LAST PASS. CALL LRHTASK.
000037: 21,2015           55714                 +2        TS       PIPCTR1
000038:
000039: 21,2016  E7,1714               PIPCTR1            =        LADQSAVE
000040: 21,2016     1055               PIPCTR             =        PHSPRDT2
000041: 21,2016           36010                           CAF      OCT31
000042: 21,2017           05173                           TC       TWIDDLE
000043: 21,2020           02006                           ADRES    R10,R11
000044: 21,2021           34753        R10,R11A           CAF      HFLSHBIT
000045: 21,2022           70107        FLASHH?            MASK     FLGWRD11
000046: 21,2023           00006                           EXTEND
000047: 21,2024           12030                           BZF      FLASHV?                               #  H FLASH OFF, SO LEAVE ALONE
000048:
000049: 21,2025           34747                           CA       HLITE
000050: 21,2026           54001                           TS       L
000051: 21,2027           04606                           TC       FLIP                                  #  FLIP H LITE
000052:
000053: 21,2030           34752        FLASHV?            CA       VFLSHBIT                              #  VFLASHBIT MUST BE BIT 2.
000054: 21,2031           70107                           MASK     FLGWRD11
000055: 21,2032           00006                           EXTEND
000056: 21,2033           12037                           BZF      10,11                                 #  VFLASH OFF
000057:
000058: 21,2034           34751                           CA       VLITE
000059: 21,2035           54001                           TS       L
000060: 21,2036           04606                           TC       FLIP                                  #  FLIP V LITE
000061:
000062: 21,2037           30105        10,11              CA       FLAGWRD9                              #  IS THE LETABORT FLAG SET ?
000063: 21,2040           74743                           MASK     LETABBIT
000064: 21,2041           00006                           EXTEND
000065: 21,2042           12145                           BZF      LANDISP                               #  NO. PROCEED TO R10.
000066:
000067: 21,2043           41010        P71NOW?            CS       MODREG                                #  YES.  ARE WE IN P71 NOW?
000068: 21,2044           62104                           AD       1DEC71
000069: 21,2045           00006                           EXTEND
000070: 21,2046           12145                           BZF      LANDISP                               #  YES.  PROCEED TO R10.


000072: 21,2047           00006                           EXTEND                                         #  NO. IS AN ABORT STAGE COMMANDED?
000073: 21,2050           00030                           READ     CHAN30
000074: 21,2051           40000                           COM
000075: 21,2052           54001                           TS       L
000076: 21,2053           74750                           MASK     BIT4
000077: 21,2054           10000                           CCS      A
000078: 21,2055           12073                           TCF      P71A                                  #  YES.
000079:
000080: 21,2056           41010        P70NOW?            CS       MODREG                                #  NO. ARE WE IN P70 NOW?
000081: 21,2057           62103                           AD       1DEC70
000082: 21,2060           00006                           EXTEND
000083: 21,2061           12145                           BZF      LANDISP                               #  YES.  PROCEED TO R10.
000084:
000085: 21,2062           30001                           CA       L                                     #  NO.  IS AN ABORT COMMANDED?
000086: 21,2063           74753                           MASK     BIT1
000087: 21,2064           10000                           CCS      A
000088: 21,2065           12070                           TCF      P70A                                  #  YES.
000089: 21,2066           12145                           TCF      LANDISP                               #  NO.  PROCEED TO R10.
000090:
000091: 21,2067                                           COUNT*   $$/P70
000092:
000093: 21,2067           02105        P70                TC       LEGAL?
000094: 21,2070           44755        P70A               CS       ZERO
000095: 21,2071           12074                           TCF      +3
000096: 21,2072           02105        P71                TC       LEGAL?
000097: 21,2073           34752        P71A               CAF      TWO
000098: 21,2074           54002                 +3        TS       Q
000099: 21,2075           00004                           INHINT
000100: 21,2076           00006                           EXTEND
000101: 21,2077           32102                           DCA      CNTABTAD
000102: 21,2100           52006                           DTCB
000103:
000104: 21,2101  E7,1515                                  EBANK=   DVCNTR
000105: 21,2101           03413 12067  CNTABTAD           2CADR    CONTABRT
000106:
000107: 21,2103           00106        1DEC70             DEC      70         B-14
000108: 21,2104           00107        1DEC71             DEC      71         B-14
000109:
000110: 05,3413                                           BANK     05
000111: 05,2000                                           SETLOC   ABORTS1
000112: 05,2000                                           BANK
000113: 05,3413                                           COUNT*   $$/P70
000114:
000115: 05,3413           33416        CONTABRT           CAF      ABRTJADR
000116: 05,3414           54017                           TS       BRUPT
000117: 05,3415           50017                           RESUME
000118:
000119: 05,3416           13417        ABRTJADR           TCF      ABRTJASK
000120: 05,3417           33477        ABRTJASK           CAF      OCTAL27
000121:


000123: 05,3420           60002                           AD       Q
000124: 05,3421           54001                           TS       L
000125: 05,3422           40000                           COM
000126: 05,3423           52760                           DXCH     -PHASE4
000127: 05,3424           50002                           INDEX    Q
000128: 05,3425           33476                           CAF      MODE70
000129: 05,3426           55010                           TS       MODREG
000130:
000131: 05,3427           55162                           TS       DISPDEX                               #  INSURE DISPDEX IS POSITIVE.
000132:
000133: 05,3430           10002                           CCS      Q                                     #  SET APSFLAG IF P71.
000134: 05,3431           40106                           CS       FLGWRD10                              #  SET APSFLAG PRIOR TO THE ENEMA.
000135: 05,3432           74737                           MASK     APSFLBIT
000136: 05,3433           26106                           ADS      FLGWRD10
000137: 05,3434           43501                           CS       DAPBITS                               #  DAPBITS = OCT 40640 = BITS 6,8,9,15
000138: 05,3435           70111                           MASK     DAPBOOLS                              #  RESET ULLAGE,DRIFT,XOVRIINH, AND PULSES
000139: 05,3436           54111                           TS       DAPBOOLS
000140:
000141: 05,3437           33502                           CAF      1DEGDB                                #  INSURE DAP DEADBAND IS SET TO 1 DEGREE
000142: 05,3440           55343                           TS       DB
000143:
000144: 05,3441           40101                           CS       FLAGWRD5                              #  SET ENGONFLG.
000145: 05,3442           74745                           MASK     ENGONBIT
000146: 05,3443           26101                           ADS      FLAGWRD5
000147:
000148: 05,3444           44355                           CS       PRIO30                                #  INSURE THAT THE ENGINE IS ON, IF ARMED.
000149: 05,3445           00006                           EXTEND
000150: 05,3446           02011                           RAND     DSALMOUT
000151: 05,3447           64737                           AD       BIT13
000152: 05,3450           00006                           EXTEND
000153: 05,3451           01011                           WRITE    DSALMOUT
000154:
000155: 05,3452           34735                           CAF      LRBYBIT                               #  TERMINATE R12.
000156: 05,3453           54107                           TS       FLGWRD11
000157:
000158: 05,3454           40074                           CS       FLAGWRD0                              #  SET R10FLAG TO SUPPRESS OUTPUTS TO THE
000159: 05,3455           74752                           MASK     R10FLBIT                              #  CROSS-POINTER DISPLAY.
000160: 05,3456           26074                           ADS      FLAGWRD0                              #  THE FOLLOWING ENEMA WILL REMOVE THE
000161:                                                                                                  #  DISPLAY INERTIAL DATA OUTBIT.
000162:
000163: 05,3457           00006                           EXTEND                                         #  LOAD TEVENT FOR THE DOWNLINK.
000164: 05,3460           30025                           DCA      TIME2
000165: 05,3461           53342                           DXCH     TEVENT
000166:
000167: 05,3462           00006                           EXTEND
000168: 05,3463           33475                           DCA      SVEXITAD
000169: 05,3464           53252                           DXCH     AVGEXIT
000170:
000171: 05,3465           02653                           TC       ABTKLEAN                              #  KILL GROUPS 1,3, AND 6.


000173: 05,3466           36250                           CAF      THREE                                 #  SET UP 4.3SPOT FOR GOABORT
000174: 05,3467           54001                           TS       L
000175: 05,3470           40000                           COM
000176: 05,3471           52760                           DXCH     -PHASE4
000177:
000178: 05,3472           04635                           TC       POSTJUMP
000179: 05,3473           12763                           CADR     ENEMA
000180:
000181: 05,3474  E7,1515                                  EBANK=   DVCNTR
000182: 05,3474           03746 64067  SVEXITAD           2CADR    SERVEXIT
000183:
000184: 05,3476           00106        MODE70             DEC      70         B-14
000185: 05,3477           00027        OCTAL27            OCT      27
000186: 05,3500           00107        MODE71             DEC      71         B-14
000187:
000188: 05,3501           40640        DAPBITS            OCT      40640
000189:
000190: 05,3502           00554        1DEGDB             OCT      00554
000191: 32,3533                                           BANK     32
000192: 32,2000                                           SETLOC   ABORTS
000193: 32,2000                                           BANK
000194:
000195: 32,3533                                           COUNT*   $$/P70
000196:
000197: 32,3533           34751        GOABORT            CAF      FOUR
000198: 32,3534           55515                           TS       DVCNTR
000199:
000200: 32,3535           33743                           CAF      WHICHADR
000201: 32,3536           55455                           TS       WHICH
000202:
000203: 32,3537           06042                           TC       INTPRET
000204: 32,3540           43014                           CLEAR    CLEAR
000205: 32,3541           04665                                    FLRCS
000206: 32,3542           04265                                    FLUNDISP
000207: 32,3543           43014                           CLEAR    SET
000208: 32,3544           03670                                    IDLEFLAG
000209: 32,3545           06464                                    ACC4-2FL
000210: 32,3546           45014                           SET      CALL
000211: 32,3547           04462                                    P7071FLG
000212: 32,3550           61071                                    INITCDUW
000213: 32,3551           77776                           EXIT
000214:
000215: 32,3552           05321                           TC       CHECKMM
000216: 32,3553           00106        70DEC              DEC      70         B-14
000217: 32,3554           13667                           TCF      P71RET
000218:
000219: 32,3555           06042        P70INIT            TC       INTPRET
000220: 32,3556           77624                           CALL
000221: 32,3557           65716                                    TGOCOMP
000222: 32,3560           54345                           DLOAD    SL


000224: 32,3561           34003                                    MDOTDPS
000225: 32,3562           20205                                    4D
000226: 32,3563           77665                           BDDV
000227: 32,3564           01244                                    MASS
000228: 32,3565           16271                           STODL    TBUP
000229: 32,3566           01244                                    MASS
000230: 32,3567           70471                           DDV      SR1
000231: 32,3570           16015                                    K(1/DV)
000232: 32,3571           03635                           STORE    1/DV1
000233: 32,3572           03637                           STORE    1/DV2
000234: 32,3573           03641                           STORE    1/DV3
000235: 32,3574           77665                           BDDV
000236: 32,3575           25742                                    K(AT)
000237: 32,3576           16263                           STODL    AT
000238: 32,3577           34015                                    100PCTTO
000239: 32,3600           02267                           STORE    TTO
000240: 32,3601           57535                           SLOAD    DCOMP
000241: 32,3602           26002                                    DPSVEX
000242: 32,3603           77702                           SR2
000243: 32,3604           36265                           STCALL   VE
000244: 32,3605           60275                                    COMMINIT
000245: 32,3606           77745        INJTARG            DLOAD
000246: 32,3607           02567                                    ABTRDOT
000247: 32,3610           36273                           STCALL   RDOTD                                 #  INITIALIZE RDOTD.
000248: 32,3611           57313                                    YCOMP                                 #  COMPUTE Y
000249: 32,3612           45246                           ABS      DSU
000250: 32,3613           02565                                    YLIM                                  #  /Y/-DYMAX
000251: 32,3614           75240                           BMN      SIGN                                  #  IF <0, XR<.5DEG, LEAVE YCO AT 0
000252: 32,3615           65620                                    YOK                                   #  IF >0, FIX SIGN OF DEFICIT, THIS IS YCO.
000253: 32,3616           02335                                    Y
000254: 32,3617           03633                           STORE    YCO
000255: 32,3620           45345        YOK                DLOAD    DSU
000256: 32,3621           03633                                    YCO
000257: 32,3622           02335                                    Y
000258: 32,3623           77661                           SR
000259: 32,3624           20606                                    5D
000260: 32,3625           03643                           STORE    XRANGE
000261: 32,3626           45014                           SET      CALL
000262: 32,3627           04461                                    FLVR
000263: 32,3630           71554                                    THETCOMP
000264: 32,3631           51025                           DSU      BPL
000265: 32,3632           02561                                    THETCRIT
000266: 32,3633           65637                                    +4
000267: 32,3634           52175                           VLOAD    GOTO
000268: 32,3635           02551                                    J1PARM
000269: 32,3636           65642                                    STORPARM
000270: 32,3637           43175                 +4        VLOAD    SET                                   #  IF J2 IS USED, SET THE
000271: 32,3640           02555                                    J2PARM                                #  ABORT TARGETING FLAG
000272: 32,3641           04470                                    ABTTGFLG
000273: 32,3642           16621        STORPARM           STODL    JPARM


000275: 32,3643           03631                                    RCO
000276: 32,3644           02625                           STORE    RP
000277: 32,3645           77414                           SET      EXIT
000278: 32,3646           04471                                    ROTFLAG
000279:
000280: 32,3647           03725        UPTHROT            TC       THROTUP
000281:
000282: 32,3650           05353                           TC       PHASCHNG
000283: 32,3651           04024                           OCT      04024
000284:
000285: 32,3652           05504                           TC       UPFLAG
000286: 32,3653           00216                           ADRES    FLAP
000287:
000288: 32,3654           04616        UPTHROT1           TC       BANKCALL                              #  VERIFY THAT THE PANEL SWITCHES
000289: 32,3655           73707                           CADR     P40AUTO                               #  ARE PROPERLY SET.
000290:
000291: 32,3656           03725                           TC       THROTUP
000292:
000293: 32,3657           35027                           CAF      PRIO17                                #  LET SERVICER FINISH BEFORE CONNECTING
000294: 32,3660           05146                           TC       PRIOCHNG                              #        ASCENT GUIDANCE EQUATIONS.
000295:
000296: 32,3661           00006                           EXTEND
000297: 32,3662           33745                           DCA      ATMAGAD
000298: 32,3663           53252                           DXCH     AVGEXIT
000299:
000300: 32,3664           05353        GRP4OFF            TC       PHASCHNG                              #  TERMINATE USE OF GROUP 4.
000301: 32,3665           00004                           OCT      00004
000302:
000303: 32,3666           15155                           TCF      ENDOFJOB
000304:
000305: 32,3667           05516        P71RET             TC       DOWNFLAG
000306: 32,3670           00215                           ADRES    LETABORT
000307:
000308: 32,3671           36000                           CAF      THRESH2                               #  SET DVMON THRESHOLD TO THE ASCENT VALUE.
000309: 32,3672           55250                           TS       DVTHRUSH
000310:
000311: 32,3673           06042                           TC       INTPRET
000312: 32,3674           77624                           CALL
000313: 32,3675           60251                                    P12INIT
000314: 32,3676           45014                           BON      CALL
000315: 32,3677           04707                                    FLAP
000316: 32,3700           65704                                    OLDTIME
000317: 32,3701           65716                                    TGOCOMP                               #  IF FLAP=0, TGO=T-TIG
000318: 32,3702           77650                           GOTO
000319: 32,3703           65606                                    INJTARG
000320: 32,3704           72545        OLDTIME            DLOAD    SL1                                   #  IF FLAP=1,TGO=2 TGO
000321: 32,3705           03517                                    TGO
000322: 32,3706           03502                           STORE    TGO1
000323: 32,3707           77776                           EXIT
000324:


000326: 32,3710           05353                           TC       PHASCHNG
000327: 32,3711           04024                           OCT      04024
000328:
000329: 32,3712           00006                           EXTEND
000330: 32,3713           31502                           DCA      TGO1
000331: 32,3714           53517                           DXCH     TGO
000332: 32,3715           13654                           TCF      UPTHROT1
000333:
000334: 32,3716  E7,1501               TGO1               =        VGBODY
000335:
000336:                                                                                                  #  ************************************************************************
000337:
000338: 21,2105                                           BANK     21
000339: 21,2000                                           SETLOC   R11
000340: 21,2000                                           BANK
000341: 21,2105                                           COUNT*   $$/P70
000342:
000343: 21,2105           40774        LEGAL?             CS       MMNUMBER                              #  IS THE DESIRED PGM ALREADY IN PROGRESS?
000344: 21,2106           61010                           AD       MODREG
000345: 21,2107           00006                           EXTEND
000346: 21,2110           12121                           BZF      ABORTALM
000347:
000348: 21,2111           40105                           CS       FLAGWRD9                              #  ARE THE ABORTS ENABLED?
000349: 21,2112           74743                           MASK     LETABBIT
000350: 21,2113           10000                           CCS      A
000351: 21,2114           12121                           TCF      ABORTALM
000352:
000353: 21,2115           30103                           CA       FLAGWRD7                              #  IS SERVICER ON THE AIR?
000354: 21,2116           74747                           MASK     AVEGFBIT
000355: 21,2117           10000                           CCS      A
000356: 21,2120           00002                           TC       Q                                     #  YES. ALL IS WELL.
000357: 21,2121           04364        ABORTALM           TC       FALTON
000358: 21,2122           04457                           TC       RELDSP
000359: 21,2123           04635                           TC       POSTJUMP
000360: 21,2124           21051                           CADR     PINBRNCH
000361:
000362: 32,3716                                           BANK     32
000363: 32,2000                                           SETLOC   ABORTS
000364: 32,2000                                           BANK
000365:
000366: 32,3716                                           COUNT*   $$/P70
000367:
000368:                                                                                                  #  ************************************************************************
000369:
000370: 32,3716           45234        TGOCOMP            RTB      DSU
000371: 32,3717           21574                                    LOADTIME
000372: 32,3720           03442                                    TIG
000373: 32,3721           77661                           SL
000374: 32,3722           20214                                    11D
000375: 32,3723           03517                           STORE    TGO


000377: 32,3724           77616                           RVQ
000378:
000379:                                                                                                  #  ************************************************************************
000380:
000381: 32,3725           34737        THROTUP            CAF      BIT13
000382: 32,3726           54055                           TS       THRUST
000383: 32,3727           34750                           CAF      BIT4
000384: 32,3730           00006                           EXTEND
000385: 32,3731           05014                           WOR      CHAN14
000386: 32,3732           00002                           TC       Q
000387:
000388:                                                                                                  #  ************************************************************************
000389:
000390: 32,3733           00000 01750  10SECS             2DEC     1000       B-28
000391: 32,3735           00021 33400  HINJECT            2DEC     18288      B-24                       #  60,000 FEET EXPRESSED IN METERS.
000392: 32,3737           11021 00000  (TGO)A             2DEC     37000      B-17
000393: 32,3741           00507 25605  K(AT)              2DEC     .02                                   #  SCALING CONSTANT
000394: 32,3743           02114        WHICHADR           REMADR   ABRTABLE
000395:
000396:                                                                                                  #  ************************************************************************
000397:
000398: 32,3744  E7,1515                                  EBANK=   DVCNTR
000399: 32,3744           03372 70067  ATMAGAD            2CADR    ATMAG

End of include-file P70-P71.agc.  Parent file is MAIN.agc


