
Source Code


000002:                                                                                                  ## Copyright:   Public domain.
000003:                                                                                                  ## Filename:    PHASE_TABLE_MAINTENANCE.agc
000004:                                                                                                  ## Purpose:     A section of Luminary 1C, revision 131.
000005:                                                                                                  ##              It is part of the source code for the Lunar Module's (LM)
000006:                                                                                                  ##              Apollo Guidance Computer (AGC) for Apollo 13.
000007:                                                                                                  ##              This file is intended to be a faithful transcription, except
000008:                                                                                                  ##              that the code format has been changed to conform to the
000009:                                                                                                  ##              requirements of the yaYUL assembler rather than the
000010:                                                                                                  ##              original YUL assembler.
000011:                                                                                                  ## Reference:   pp. 1286-1294
000012:                                                                                                  ## Contact:     Ron Burkey <info@sandroid.org>.
000013:                                                                                                  ## Website:     www.ibiblio.org/apollo
000014:                                                                                                  ## Mod history: 06/05/03 RSB.   Began transcribing.
000015:                                                                                                  ##              2011-05-07 JL   Removed workaround. Flagged SBANK= workaround
000016:                                                                                                  ##                              for future removal.
000017:                                                                                                  ##              2017-01-06 RSB  Page numbers now agree with those on the
000018:                                                                                                  ##                              original harcopy, as opposed to the PDF page
000019:                                                                                                  ##                              numbers in 1701.pdf.
000020:                                                                                                  ##              2017-01-28 RSB  Back-ported some comment-text fixes from Luminary 69.
000021:


000023:                                                                                                  #  SUBROUTINE TO UPDATE THE PROGRAM NUMBER DISPLAY ON THE DSKY.
000024:
000025: 43,3751                                           COUNT*   $$/PHASE
000026:    5311                                           BLOCK    02
000027:    4000                                           SETLOC   FFTAG1
000028:    4000                                           BANK
000029:
000030:    5311           50002        NEWMODEX           INDEX    Q                                     #  UPDATE MODREG.  ENTRY FOR MODE IN FIXED.
000031:    5312           30000                           CAF      0
000032:    5313           24002                           INCR     Q
000033:
000034:    5314           55010        NEWMODEA           TS       MODREG                                #  ENTRY FOR MODE IN A.
000035:    5315           35320        MMDSPLAY           CAF      +3                                    #  DISPLAY MAJOR MODE.
000036:    5316           22006        PREBJUMP           LXCH     BBANK                                 #  PUTS BBANK IN L
000037:    5317           14640                           TCF      BANKJUMP                              #  PUTS Q INTO A
000038:    5320           20213                           CADR     SETUPDSP
000039:
000040:                                                                                                  #  RETURN TO CALLER +3 IF MODE = THAT AT CALLER +1.  OTHERWISE RETURN TO CALLER +2.
000041:
000042:    5321           50002        CHECKMM            INDEX    Q
000043:    5322           40000                           CS       0
000044:    5323           61010                           AD       MODREG
000045:    5324           00006                           EXTEND
000046:    5325           16744                           BZF      Q+2
000047:    5326           16742                           TCF      Q+1                                   #  NO MATCH
000048:
000049:    5327     6745               TCQ                =        Q+2        +1
000050:
000051: 14,3775                                           BANK     14
000052: 10,2000                                           SETLOC   PHASETAB
000053: 10,2000                                           BANK
000054:
000055: 10,2213                                           COUNT*   $$/PHASE
000056: 10,2213           00004        SETUPDSP           INHINT
000057: 10,2214           52071                           DXCH     RUPTREG1                              #  SAVE CALLER'S RETURN 2CADR
000058: 10,2215           34355                           CAF      PRIO30                                #        EITHER A TASK OR JOB CAN COME TO
000059: 10,2216           05072                           TC       NOVAC                                 #        NEWMODE X
000060: 10,2217     1010                                  EBANK=   MODREG
000061: 10,2217           03577 60102                     2CADR    DSPMMJOB
000062:
000063: 10,2221           52071                           DXCH     RUPTREG1
000064: 10,2222           00003                           RELINT
000065: 10,2223           52006                           DXCH     Z                                     #  RETURN
000066:
000067: 10,2224  40,3577               DSPMMJOB           EQUALS   DSPMMJB
000068:
000069:    5327                                           BLOCK    02
000070:    4000                                           SETLOC   FFTAG1
000071:    4000                                           BANK


000073:                                                                                                  #  PHASCHNG IS THE MAIN WAY OF MAKING PHASE CHANGES FOR RESTARTS.  THERE ARE THREE FORMS OF PHASCHNG, KNOWN AS TYPE
000074:                                                                                                  #  A, TYPE B, AND TYPE C.  THEY ARE ALL CALLED AS FOLLOWS, WHERE OCT XXXXX CONTAINS THE PHASE INFORMATION,
000075:                                                                                                  #                TC      PHASCHNG
000076:                                                                                                  #                OCT     XXXXX
000077:                                                                                                  #  TYPE A IS CONCERNED WITH FIXED PHAS CHANGES, THAT IS, PHASE INFORMATION THAT IS STORED PERMANENTLY.  THESE
000078:                                                                                                  #  OPTIONS ARE, WEHRE G STANDS FOR A GROUP AND .X FOR THE PHASE,
000079:                                                                                                  #        G.0             INACTIVE, WILL NOT PERMIT A GROUP G RESTART
000080:                                                                                                  #        G.1             WILL CAUSE THE LAST DISPLAY TO BE REACTIVATED, USED MAINLY IN MANNED FLIGHTS
000081:                                                                                                  #        G.EVEN          A DOUBLE TABLE RESTART, CAN CAUSE ANY COMBINATION OF TWO JOBS, TASKS, AND/OR
000082:                                                                                                  #                        LONGCALL TO BE RESTARTED.
000083:                                                                                                  #        G.ODD NOT .1    A SINGLE TABLE RESTART, CAN CAUSE EITHER A JOB, TASK, OR LONGCALL RESTART.
000084:
000085:                                                                                                  #  THIS INFORMATION IS PUT INTO THE OCTAL WORD AFTER TC PHASCHNG AS FOLLOWS
000086:                                                                                                  #        TL0 00P PPP PPP GGG
000087:                                                                                                  #  WHERE EACH LETTER OR NUMBER STANTS FOR A BIT.  THE G'S STAND FOR THE GROUP, OCTAL 1-7, THE P'S FOR THE PHASE,
000088:                                                                                                  #  OCTAL 0 - 127.  0'S MUST BE 0.  IF ONE WISHES TO HAVE THE TBASE OF GROUP G TO BE SET AT THIS TIME,
000089:                                                                                                  #  T IS SET TO 1, OTHERWISE IT IS SET TO 0.  SIMILARLY IF ONE WISHES TO SET LONGBASE, THEN L IS SET TO 1, OTHERWISE
000090:                                                                                                  #  IT IS SET TO 0.  SOME EXAMLES,
000091:                                                                                                  #                TC      PHASCHNG        # THIS WILL CAUSE GROUP 3 TO BE SET TO 0,
000092:                                                                                                  #                OCT     00003           # MAKING GROUP 3 INACTIVE
000093:
000094:                                                                                                  #                TC      PHASCHNG        # IF A RESTART OCCURS THIS WOULD CAUSE
000095:                                                                                                  #                OCT     00012           # GROUP 2 TO RESTART THE LAST DISPLAY
000096:
000097:                                                                                                  #                TC      PHASCHNG        # THIS SETS THE TBASE OF GROUP 4 AND IN
000098:                                                                                                  #                OCT     40064           # CASE OF A RESTART WOULD START UP THE TWO
000099:                                                                                                  #                                        # THINGS LOCATED IN THE DOUBLE 4.6 RESTART
000100:                                                                                                  #                                        # LOCATION.
000101:
000102:                                                                                                  #                TC      PHASCHNG        # THIS SETS LONGBASE AND UPON A RESTART
000103:                                                                                                  #                OCT     20135           # CAUSES 5.13 TO BE RESTARTED (SINCE
000104:                                                                                                  #                                        # LONGBASE WAS SET THIS SINGLE ENTRY
000105:                                                                                                  #                                        # SHOULD BE A LONGCALL)
000106:
000107:                                                                                                  #                TC      PHASCHNG        # SINCE BOTH TBASE4 AND LONGBASE ARE SET,
000108:                                                                                                  #                OCT     60124           # 4.12 SHOULD CONTAIN BOTH A TASK AND A
000109:                                                                                                  #                                        # LONGCALL TO BE RESTARTED
000110:
000111:                                                                                                  #  TYPE C PHASCHNG CONTAINS THE VARIABLE TYPE OF PHASCHNG INFORMATION.  INSTEAD OF THE INFORMATION BEING IN A
000112:                                                                                                  #  PERMANENT FORM, ONE STORES THE DESIRED RESTART INFORMATION IN A VARIABLE LOCATION.  THE BITS ARE AS FOLLOWS,
000113:                                                                                                  #        TL0 1AD XXX CJW GGG
000114:                                                                                                  #  WHERE EACH LETTER OR NUMBER STANDS FOR A BIT.  THE G'S STAND FOR THE GROUP, OCTAL 1 - 7.  IF THE RESTART IS TO
000115:                                                                                                  #  BE BY WAITLIST, W IS SET TO 1, IF IT IS A JOB, J IS SET TO 1, IF IT IS A LONGCALL, C IS SET TO 1.  ONLY ONE OF
000116:                                                                                                  #  THESE THREE BITS MAY BE SET.  X'S ARE IGNORED, 1 MUST BE 1, AND 0 MUST BE 0.  AGAIN T STANDS FOR THE TBASE,


000118:                                                                                                  #  AND L FOR LONGBASE.  THE BITS A AND D ARE CONCERNED WITH THE VARIABLE INFORMATION.  IF D IS SET TO 1, A PRIORITY
000119:                                                                                                  #  OR DELTA TIME WILL BE READ FROM THE NEXT LOCATION AFTER THE OCTAL INFORMATION., IF THIS IS TO BE INDIRECT, THAT
000120:                                                                                                  #  IS, THE NAME OF A LOCATION CONTAINING THE INFORMATION (DELTA TIME ONLY), THEN THIS IS GIVEN AS THE -GENADR OF
000121:                                                                                                  #  THAT LOCATION WHICH CONTAINS THE DELTA TIME.  IF THE OLD PRIORITY OR DELTA TIME IS TO BE USED, THAT WHICH IS
000122:                                                                                                  #  ALREADY IN THE VARIABLE STORAGE, THEN D IS SET TO 0.  NEXT THE A BIT IS USED.  IF IT IS SET TO 0, THE ADDRESS
000123:                                                                                                  #  THAT WOULD BE RESTARTED DURING A RESTART IS THE NEXT LOCATION AFTER THE PHASE INFORMATION, THAT IS, EITHER
000124:                                                                                                  #  (TC PHASCHNG) +2 OR +3, DEPENDING ON WHETHER D HAD BEEN SET OR NOT.  IF A IS SET TO 1, THEN THE ADDRESS THAT
000125:                                                                                                  #  WOULD BE RESTARTED IS THE 2CADR THAT IS READ FROM THE NEXT TWO LOCATION.  EXAMPLES,
000126:                                                                                                  #        AD      TC      PHASCHNG        # THIS WOULD CAUSE LOCATION AD +3 TO BE
000127:                                                                                                  #        AD+1    OCT     05023           # RESTARTED BY GROUP THREE WITH A PRIORITY
000128:                                                                                                  #        AD+2    OCT     23000           # OF 23.  NOTE UPON RETURNING IT WOULD
000129:                                                                                                  #        AD+3                            # ALSO GO TO AD+3
000130:
000131:                                                                                                  #        AD      TC      PHASCHNG        # GROUP 1 WOULD CAUSE CALLCALL TO BE
000132:                                                                                                  #        AD+1    OCT     27441           # BE STARTED AS A LONGCALL FROM THE TIME
000133:                                                                                                  #        AD+2    -GENADR DELTIME         # STORED IN LONGBASE (LONGBASE WAS SET) BY
000134:                                                                                                  #        AD+3    2CADR   CALLCALL        # A DELTA TIME STORED IN DELTIME.  THE
000135:                                                                                                  #        AD+4                            # BBCON OF THE 2CADR SHOULD CONTAIN THE E
000136:                                                                                                  #        AD+5                            # BANK OF DELTIME.  PHASCHNG RETURNS TO
000137:                                                                                                  #                                        # LOCATION AD+5
000138:
000139:                                                                                                  #  NOTE THAT IF A VARIABLE PRIORITY IS GIVEN FOR A JOB, THE JOB WILL BE RESTARTED AS A NOVAC IF THE PRIORITY IS
000140:                                                                                                  #  NEGATIVE, AS A FINDVAC IF TEH PRIORITY IS POSITIVE.
000141:
000142:                                                                                                  #  TYPE B PHASCHNG IS A COMBINATION OF VARIABLE AND FIXED PHASE CHANGES.  IT WILL START UP A JOB AS INDICATED
000143:                                                                                                  #  BELOW AND ALSO START UP ONE FIXED RESTART, THAT IS EITHER AN G.1 OR A G.ODD OR THE FIRST ENTRY OF G.EVEN
000144:                                                                                                  #  DOUBLE ENTRY.  THE BIT INFORMATION IS AS FOLLOW,
000145:                                                                                                  #        TL1 DAP PPP PPP GGG
000146:                                                                                                  #  WHERE EACH LETTER OR NUMBER STANDS FOR A BIT.  THE G'S STAND FOR THE GROUP, OCTAL 1 - 7, THE P'S FOR THE FIXED
000147:                                                                                                  #  PHASE INFORMATION, OCTAL 0 - 127.  1 MUST BE 1.  AND AGAIN T STANDS FOR THE TBASE AND L FOR LONGBASE.  D THIS
000148:                                                                                                  #  TIME STANDS ONLY FOR PRIORITY SINCE THIS WILL BE CONSIDERED A JOB, AND IT MUST BE GIVEN DIRECTLY IF GIVEN.
000149:                                                                                                  #  AGAIN A STANDS FOR THE ADDRESS OF THE LOCATION TO BE RESTARTED, 1 IF THE 2CADR IS GIVEN, OR 0 IF IT IS TO BE
000150:                                                                                                  #  THE NEXT LOCATION.  (THE RETURN LOCATION OF PHASCHNG) EXAMPLES,
000151:                                                                                                  #        AD      TC      PHASCHNG        # TBASE IS SET AND A RESTART CAUSE GROUP 3
000152:                                                                                                  #        AD+1    OCT     56043           # TO START THE JOB AJOBAJOB WITH PRIORITY
000153:                                                                                                  #        AD+2    OCT     31000           # 31 AND THE FIRST ENTRY OF 3.4SPOT (WE CAN
000154:                                                                                                  #        AD+3    2CADR   AJOBAJOB        # ASSUME IT IS A TASK SINCE WE SET TBASE3)
000155:                                                                                                  #        AD+4                            # UPON RETURN FROM PHASCHNG CONTROL WOULD
000156:                                                                                                  #        AD+5                            # GO TO AD+5
000157:
000158:                                                                                                  #        AD      TC      PHASCHNG        # UPON A RESTART THE LAST DISPLAY WOULD BE
000159:                                                                                                  #        AD+1    OCT     10015           # RESTARTED AND A JOB WITH THE PREVIOUSLY
000160:                                                                                                  #        AD+2                            # STORED PRIORITY WOULD BE BEGUN AT AD+2
000161:                                                                                                  #                                        # BY MEANS OF GROUP 5


000163:                                                                                                  #  THE NOVAC-FINDVAC CHOICE FOR JOBS HOLDS HERE ALSO -- NEGATIVE PRIORITY CAUSES A NOVAC CALL, POSITIVE A FINDVAC.
000164:
000165:                                                                                                  #  SUMMARY OF BITS:
000166:                                                                                                  #        TYPE A          TL0 00P PPP PPP GGG
000167:                                                                                                  #        TYPE B          TL1 DAP PPP PPP GGG
000168:                                                                                                  #        TYPE C          TL0 1AD XXX CJW GGG
000169:


000171:                                                                                                  #  2PHSCHNG IS USED WHEN ONE WISHES TO START UP A GROUP OR CHANGE A GROUP WHILE UNDER THE CONTROL OF A DIFFERENT
000172:                                                                                                  #  GROUP.  FOR EXAMPLE, CHANGE THE PHASE OF GROUP 3 WHILE THE PORTION OF THE PROGRAM IS UNDER GROUP 5.  ALL 2PHSCHNG
000173:                                                                                                  #  CALLS ARE MADE IN THE FOLLOWING MANNER,
000174:                                                                                                  #                TC      2PHSCHNG
000175:                                                                                                  #                OCT     XXXXX
000176:                                                                                                  #                OCT     YYYYY
000177:                                                                                                  #  WHERE OCT XXXXX MUST BE OF TYPE A AND OCT YYYYY MAY BE OF EITHER TYPE A OR TYPE B OR TYPE C.  THERE IS ONE
000178:                                                                                                  #  DIFFERENCE --- NOTE: IF LONGBASE IS TO BE SET THIS INFORMATION IS GIVEN IN THE OCT YYYYY INFORMATION, IT WILL
000179:                                                                                                  #  BE DISREGARDED IF GIVEN WITH THE OCT XXXXX INFORMATION.  A COUPLE OF EXAMPLES MAY HELP,
000180:                                                                                                  #        AD      TC      2PHACHNG        # SET TBASE3 AND IF A RESTART OCCURS START
000181:                                                                                                  #        AD+1    OCT     40083           # THE TWO ENTRIES IN 3.8 TABLE LOCATION
000182:                                                                                                  #        AD+2    OCT     05025           # THIS IS OF TYPE C, SET THE JOB TO BE
000183:                                                                                                  #        AD+3    OCT     18000           # TO BE LOCATION AD+4, WITH A PRIORITY 18,
000184:                                                                                                  #        AD+4                            # FOR GROUP 5 PHASE INFORMATION.
000185:


000187:    5327  40,2000                                  SBANK=   PINSUPER


000189:
000190:    5327                                           COUNT*   $$/PHASE
000191:    5327           00004        2PHSCHNG           INHINT                                         #  THE ENTRY FOR A DOUBLE PHASE CHANGE
000192:    5330           50002                           NDX      Q
000193:    5331           30000                           CA       0
000194:    5332           24002                           INCR     Q
000195:    5333           54072                           TS       TEMPP2
000196:
000197:    5334           74757                           MASK     OCT7
000198:    5335           60000                           DOUBLE
000199:    5336           54071                           TS       TEMPG2
000200:
000201:    5337           30072                           CA       TEMPP2
000202:    5340           75030                           MASK     OCT17770                              #  NEED ONLY 1770, BUT WHY GET A NEW CONST.
000203:    5341           00006                           EXTEND
000204:    5342           74740                           MP       BIT12
000205:    5343           56072                           XCH      TEMPP2
000206:
000207:    5344           74735                           MASK     BIT15
000208:    5345           54066                           TS       TEMPSW2                               #  INDICATES WHETHER TO SET TBASE OR NOT
000209:
000210:    5346           50002                           INDEX    Q
000211:    5347           30000                           CA       0
000212:    5350           24002                           INCR     Q
000213:    5351           54065                           TS       TEMPSW
000214:
000215:    5352           15363                           TCF      PHASJUMP
000216:
000217:    5353           00004        PHASCHNG           INHINT                                         #  NORMAL PHASCHNG ENTRY POINT.
000218:    5354           50002                           INDEX    Q
000219:    5355           30000                           CA       0
000220:    5356           24002                           INCR     Q
000221:    5357           00004        PHSCHNGA           INHINT                                         #  FIRST OCTAL PARAMETER IN A.


000223:    5360           54065                           TS       TEMPSW
000224:    5361           34753                           CA       ONE
000225:    5362           54066                           TS       TEMPSW2
000226:    5363           00006        PHASJUMP           EXTEND
000227:    5364           35367                           DCA      ADRPCHN2                              #  OFF TO SWITCHED BANK
000228:    5365           52006                           DTCB
000229:
000230:    5366  E3,1400                                  EBANK=   LST1
000231:    5366           02224 20103  ADRPCHN2           2CADR    PHSCHNG2
000232:
000233:    5370           22073        ONEORTWO           LXCH     TEMPBBCN
000234:    5371           22006                           LXCH     BBANK
000235:    5372           22073                           LXCH     TEMPBBCN
000236:
000237:    5373           75024                           MASK     OCT14000                              #  SEE WHAT KIND OF PHASE CHANGE IT IS
000238:    5374           10000                           CCS      A
000239:    5375           17753                           TCF      CHECKB                                #  IT IS OF TYPE `B'.
000240:
000241:    5376           30062                           CA       TEMPP
000242:    5377           74745                           MASK     BIT7
000243:    5400           10000                           CCS      A                                     #  SHALL WE USE THE OLD PRIORITY
000244:    5401           15423                           TCF      GETPRIO                               #  NO GET A NEW PRIORITY (OR DELTA T)
000245:
000246:    5402           50061        OLDPRIO            NDX      TEMPG                                 #  USE THE OLD PRIORITY (OR DELTA T)
000247:    5403           31051                           CA       PHSPRDT1   -2
000248:    5404           54070                           TS       TEMPPR
000249:
000250:    5405           30062        CON1               CA       TEMPP                                 #  SEE IF A 2CADR IS GIVEN
000251:    5406           74744                           MASK     BIT8
000252:    5407           10000                           CCS      A
000253:    5410           15427                           TCF      GETNEWNM
000254:
000255:    5411           30002                           CA       Q
000256:    5412           54063                           TS       TEMPNM
000257:    5413           30006                           CA       BB
000258:    5414           00006                           EXTEND                                         #  PICK UP USER'S SUPERBANK
000259:    5415           04007                           ROR      SUPERBNK
000260:    5416           54064                           TS       TEMPBB
000261:
000262:    5417           35422        TOCON2             CA       CON2ADR                               #  BACK TO SWITCHED BANK
000263:    5420           22073                           LXCH     TEMPBBCN
000264:    5421           52006                           DTCB
000265:
000266:    5422           02312        CON2ADR            GENADR   CON2
000267:
000268:    5423           50002        GETPRIO            NDX      Q                                     #  DON'T CARE IF DIRECT OR INDIRECT
000269:    5424           30000                           CA       0                                     #  LEAVE THAT DECISION TO RESTARTS
000270:    5425           24002                           INCR     Q                                     #  OBTAIN RETURN ADDRESS


000272:    5426           15404                           TCF      CON1       -1
000273:
000274:    5427           00006        GETNEWNM           EXTEND
000275:    5430           50002                           INDEX    Q
000276:    5431           30001                           DCA      0
000277:    5432           52064                           DXCH     TEMPNM
000278:    5433           34752                           CA       TWO
000279:    5434           26002                           ADS      Q                                     #  OBTAIN RETURN ADDRESS
000280:
000281:    5435           15417                           TCF      TOCON2
000282:
000283:    5436     5024               OCT14000           EQUALS   PRIO14
000284:    5436     0061               TEMPG              EQUALS   ITEMP1
000285:    5436     0062               TEMPP              EQUALS   ITEMP2
000286:    5436     0063               TEMPNM             EQUALS   ITEMP3
000287:    5436     0064               TEMPBB             EQUALS   ITEMP4
000288:    5436     0065               TEMPSW             EQUALS   ITEMP5
000289:    5436     0066               TEMPSW2            EQUALS   ITEMP6
000290:    5436     0070               TEMPPR             EQUALS   RUPTREG1
000291:    5436     0071               TEMPG2             EQUALS   RUPTREG2
000292:    5436     0072               TEMPP2             EQUALS   RUPTREG3
000293:
000294:    5436     0073               TEMPBBCN           EQUALS   RUPTREG4
000295:    5436  0000006               BB                 EQUALS   BBANK
000296:
000297: 14,3775                                           BANK     14
000298: 10,2000                                           SETLOC   PHASETAB
000299: 10,2000                                           BANK
000300:
000301: 10,2224  E3,1436                                  EBANK=   PHSNAME1
000302: 10,2224                                           COUNT*   $$/PHASE
000303: 10,2224           22073        PHSCHNG2           LXCH     TEMPBBCN
000304: 10,2225           30065                           CA       TEMPSW
000305: 10,2226           74757                           MASK     OCT7
000306: 10,2227           60000                           DOUBLE
000307: 10,2230           54061                           TS       TEMPG
000308:
000309: 10,2231           30065                           CA       TEMPSW
000310: 10,2232           75030                           MASK     OCT17770
000311: 10,2233           00006                           EXTEND
000312: 10,2234           74740                           MP       BIT12
000313: 10,2235           54062                           TS       TEMPP
000314:
000315: 10,2236           30065                           CA       TEMPSW
000316: 10,2237           74101                           MASK     OCT60000
000317: 10,2240           56065                           XCH      TEMPSW
000318: 10,2241           75024                           MASK     OCT14000
000319: 10,2242           10000                           CCS      A


000321: 10,2243           15370                           TCF      ONEORTWO
000322:
000323: 10,2244           30062                           CA       TEMPP                                 #  START STORING THE PHASE INFORMATION
000324: 10,2245           50061                           NDX      TEMPG
000325: 10,2246           54750                           TS       PHASE1     -2
000326:
000327: 10,2247           10066        BELOW1             CCS      TEMPSW2                               #  IS IT A PHASCHNG OR A 2PHSCHNG
000328: 10,2250           12264                           TCF      BELOW2                                #  IT:S A PHASCHNG
000329:
000330: 10,2251           12252                           TCF      +1                                    #  IT:S A 2PHSCHNG
000331: 10,2252           40072                           CS       TEMPP2
000332: 10,2253           22072                           LXCH     TEMPP2
000333: 10,2254           50071                           NDX      TEMPG2
000334: 10,2255           52750                           DXCH     -PHASE1    -2
000335:
000336: 10,2256           10066                           CCS      TEMPSW2
000337: 10,2257           12260                           NOOP                                           #  CAN:T GET HERE
000338: 10,2260           12264                           TCF      BELOW2
000339:
000340: 10,2261           40025                           CS       TIME1
000341: 10,2262           50071                           NDX      TEMPG2
000342: 10,2263           55050                           TS       TBASE1     -2
000343:
000344: 10,2264           10065        BELOW2             CCS      TEMPSW                                #  SEE IF WE SHOULD SET TBASE OR LONGBASE
000345: 10,2265           12300                           TCF      BELOW3                                #  SET LONGBASE ONLY
000346: 10,2266           12303                           TCF      BELOW4                                #  SET NEITHER
000347:
000348: 10,2267           40025                           CS       TIME1                                 #  SET TBASE TO BEGIN WITH
000349: 10,2270           50061                           NDX      TEMPG
000350: 10,2271           55050                           TS       TBASE1     -2
000351:
000352: 10,2272           30065                           CA       TEMPSW                                #  SHALL WE NOW SET LONGBASE
000353: 10,2273           62276                           AD       BIT14COM
000354: 10,2274           10000                           CCS      A
000355: 10,2275           12276                           NOOP                                           #  ***** CAN'T GET HERE *****
000356: 10,2276           17777        BIT14COM           OCT      17777                                 #  ***** CAN'T GET HERE *****
000357: 10,2277           12303                           TCF      BELOW4                                #  NO WE NEED ONLY SET TBASE
000358:
000359: 10,2300           00006        BELOW3             EXTEND                                         #  SET LONGBASE
000360: 10,2301           30025                           DCA      TIME2
000361: 10,2302           53151                           DXCH     LONGBASE
000362:
000363: 10,2303           40062        BELOW4             CS       TEMPP                                 #  AND STORE THE FINAL PART OF THE PHASE
000364: 10,2304           50061                           NDX      TEMPG
000365: 10,2305           54747                           TS       -PHASE1    -2
000366:
000367: 10,2306           30002                           CA       Q
000368: 10,2307           22073                           LXCH     TEMPBBCN
000369: 10,2310           00003                           RELINT
000370: 10,2311           52006                           DTCB


000372: 10,2312           22073        CON2               LXCH     TEMPBBCN
000373:
000374: 10,2313           30062                           CA       TEMPP
000375: 10,2314           50061                           NDX      TEMPG
000376: 10,2315           54750                           TS       PHASE1     -2
000377:
000378: 10,2316           30070                           CA       TEMPPR
000379: 10,2317           50061                           NDX      TEMPG
000380: 10,2320           55051                           TS       PHSPRDT1   -2
000381:
000382: 10,2321           00006                           EXTEND
000383: 10,2322           30064                           DCA      TEMPNM
000384: 10,2323           50061                           NDX      TEMPG
000385: 10,2324           53435                           DXCH     PHSNAME1   -2
000386:
000387: 10,2325           12247                           TCF      BELOW1
000388:
000389:    7753                                           BLOCK    03
000390:    6000                                           SETLOC   FFTAG6
000391:    6000                                           BANK
000392:
000393:    7753                                           COUNT*   $$/PHASE
000394:    7753           74740        CHECKB             MASK     BIT12                                 #  SINCE THIS IS OF TYPE 8, THIS BIT WOULD
000395:    7754           10000                           CCS      A                                     #  BE HERE IF WE ARE TO GET A NEW PRIORITY
000396:    7755           15423                           TCF      GETPRIO                               #  IT IS, SO GET NEW PRIORITY
000397:
000398:    7756           15402                           TCF      OLDPRIO                               #  IT ISN'T, USE THE OLD PRIORITY.
000399:
000400:

End of include-file PHASE_TABLE_MAINTENANCE.agc.  Parent file is MAIN.agc


