
Source Code


000002:                                                                                                  ## Copyright:   Public domain.
000003:                                                                                                  ## Filename:    PINBALL_GAME_BUTTONS_AND_LIGHTS.agc
000004:                                                                                                  ## Purpose:     A section of Luminary 1C, revision 131.
000005:                                                                                                  ##              It is part of the source code for the Lunar Module's (LM)
000006:                                                                                                  ##              Apollo Guidance Computer (AGC) for Apollo 13.
000007:                                                                                                  ##              This file is intended to be a faithful transcription, except
000008:                                                                                                  ##              that the code format has been changed to conform to the
000009:                                                                                                  ##              requirements of the yaYUL assembler rather than the
000010:                                                                                                  ##              original YUL assembler.
000011:                                                                                                  ## Reference:   pp. 392-475
000012:                                                                                                  ## Contact:     Ron Burkey <info@sandroid.org>.
000013:                                                                                                  ## Website:     www.ibiblio.org/apollo
000014:                                                                                                  ## Mod history: 05/11/03 RSB.   Began transcribing.
000015:                                                                                                  ##              05/14/03 RSB.   First draft completed.
000016:                                                                                                  ##              06/06/03 RSB.   Fixed a bunch of typos in the comments.
000017:                                                                                                  ##              2010-10-25 JL   Fixed directive (COUNT# -> COUNT* on p446).
000018:                                                                                                  ##              2017-01-06 RSB  Page numbers now agree with those on the
000019:                                                                                                  ##                              original harcopy, as opposed to the PDF page
000020:                                                                                                  ##                              numbers in 1701.pdf.
000021:                                                                                                  ##              2017-01-28 RSB  WTIH -> WITH.
000022:                                                                                                  ##              2017-02-08 RSB  Comment-text fixes noted while proofing Artemis 72.
000023:                                                                                                  ##              2017-02-23 RSB  CHKP00H -> CHKPOOH
000024:                                                                                                  ##              2017-02-23 RSB  Proofed comment text using octopus/ProoferComments.
000025:                                                                                                  ##                              Removed various half-baked (or even fully-baked)
000026:                                                                                                  ##                              "modern" comments by me.
000027:                                                                                                  ##              2017-02-28 RSB  Fixed lingering typos.
000028:                                                                                                  ##              2017-03-08 RSB  Comment-text fixes noted in proofing Luminary 116.
000029:                                                                                                  ##                              Changed DSPOCTWO to DSPOCTWD.
000030:                                                                                                  ##              2017-03-16 RSB  Comment-text fixes identified in 5-way
000031:                                                                                                  ##                              side-by-side diff of Luminary 69/99/116/131/210.
000032:                                                                                                  ##                              Changed 360-CDUD to 360-CDUO.
000033:                                                                                                  ##              2017-03-17 RSB  Comment-text fixes identified in diff'ing
000034:                                                                                                  ##                              Luminary 99 vs Comanche 55.
000035:


000037:                                                                                                  #  PROGRAM NAME - KEYBOARD AND DISPLAY PROGRAM
000038:                                                                                                  #  MOD NO - 4            DATE - 27 APRIL 1967            ASSEMBLY - PINDANCE REV 18
000039:                                                                                                  #  MOD BY - FILENE
000040:                                                                                                  #  LOG SECTION - PINBALL GAME BUTTONS AND LIGHTS
000041:
000042:                                                                                                  #  FUNCTIONAL DESCRIPTION-
000043:
000044:                                                                                                  #  THE KEYBOARD AND DISPLAY SYSTEM PROGRAM OPERATES UNDER EXECUTIVE
000045:                                                                                                  #  CONTROL AND PROCESSES INFORMATION EXCHANGED BETWEEN THE AGC AND THE
000046:                                                                                                  #  COMPUTER OPERATOR.  THE INPUTS TO THE PROGRAM ARE FROM THE KEYBOARD,
000047:                                                                                                  #  FROM INTERNAL PROGRAMS, AND FROM THE UPLINK.
000048:
000049:                                                                                                  #  THE LANGUAGE OF COMMUNICATION WITH THE PROGRAM IS A PAIR OF WORDS
000050:                                                                                                  #  KNOWN AS VERB AND NOUN.  EACH OF THESE IS REPRESENTED BY A 2 CHARACTER
000051:                                                                                                  #  DECIMAL NUMBER.  THE VERB CODE INDICATES WHAT ACTION IS TO BE TAKEN, THE
000052:                                                                                                  #  NOUN CODE INDICATES TO WHAT THIS ACTION IS APPLIED.  NOUNS USUALLY
000053:                                                                                                  #  REFER TO A GROUP OF ERASABLE REGISTERS.
000054:
000055:                                                                                                  #  VERBS ARE GROUPED INTO DISPLAYS, LOADS, MONITORS (DISPLAYS THAT ARE
000056:                                                                                                  #  UPDATED ONCE PER SECOND), SPECIAL FUNCTIONS, AND EXTENDED VERBS (THESE
000057:                                                                                                  #  ARE OUTSIDE OF THE DOMAIN OF PINBALL AND CAN BE FOUND UNDER LOG SECTION
000058:                                                                                                  #  :EXTENDED VERBS:).
000059:
000060:                                                                                                  #  A LIST OF VERBS AND NOUNS IS GIVEN IN LOG SECTION :ASSEMBLY AND
000061:                                                                                                  #  OPERATION INFORMATION:.
000062:
000063:                                                                                                  #  CALLING SEQUENCES -
000064:
000065:                                                                                                  #  KEYBOARD:
000066:                                                                                                  #  EACH DEPRESSION OF A KEYBOARD BUTTON ACTIVATES INTERRUPT KEYRUPT1
000067:                                                                                                  #  AND PLACES THE 5 BIT KEY CODE INTO CHANNEL 15.  KEYRUPT1 PLACES THE KEY
000068:                                                                                                  #  CODE INTO MPAC, ENTERS AN EXECUTIVE REQUEST FOR THE KEYBOARD AND DISPLAY
000069:                                                                                                  #  PROGRAM (AT :CHARIN:), AND EXECUTES A RESUME.
000070:
000071:                                                                                                  #  UPLINK:
000072:                                                                                                  #  EACH WORD RECEIVED BY THE UPLINK ACTIVATES INTERRUPT UPRUPT WHICH
000073:                                                                                                  #  PLACES THE 5 BIT KEY CODE INTO MPAC, ENTERS AN EXECUTIVE REQUEST FOR THE
000074:                                                                                                  #  KEYBOARD AND DISPLAY PROGRAM (AT :CHARIN:) AND EXECUTES A RESUME.
000075:
000076:                                                                                                  #  INTERNAL PROGRAMS:
000077:                                                                                                  #  INTERNAL PROGRAMS CALL PINBALL AT :NVSUB: WITH THE DESIRED VERB/NOUN
000078:                                                                                                  #  CODE IN A (LOW 7 BITS FOR NOUN, NEXT 7 BITS FOR VERB).  DETAILS
000079:                                                                                                  #  DESCRIBED ON REMARKS CARDS JUST BEFORE :NVSUB: AND :NVSBWAIT: (SEE
000080:                                                                                                  #  SYMBOL TABLE FOR PAGE NUMBERS).
000081:
000082:                                                                                                  #  NORMAL EXIT MODES -
000083:
000084:                                                                                                  #        IF PINBALL WAS CALLED BY EXTERNAL ACTION, THERE ARE FOUR EXITS:
000085:                                                                                                  #                1)      ALL BUT (2), (3), AND (4) EXIT DIRECTLY TO ENDOFJOB.
000086:                                                                                                  #                2)      EXTENDED VERBS GO TO THE EXTENDED VERB FAN AS PART OF THE


000088:                                                                                                  #                        PINBALL EXECUTIVE JOB WITH PRIORITY 30000.  IT IS THE
000089:                                                                                                  #                        RESPONSIBILITY OF THE EXTENDED VERB CALLED TO EVENTUALLY
000090:                                                                                                  #                        CHANGE PRIORITY (IF NECESSARY) AND DO AN ENDOFJOB.
000091:                                                                                                  #                        ALSO PINBALL IS A NOVAC JOB.  EBANK SET FOR COMMON.
000092:                                                                                                  #                3)      VERB 37.  CHANGE OF PROGRAM (MAJOR MODE) CALLS :V37: IN THE
000093:                                                                                                  #                        SERVICE ROUTINES AS PART OF THE PINBALL EXEC JOB WITH PRIO
000094:                                                                                                  #                        30000.  THE NEW PROGRAM CODE (MAJOR MODE) IS LEFT IN A.
000095:                                                                                                  #                4)      KEY RELEASE BUTTON CALLS :PINBRNCH: IN THE DISPLAY INTERFACE
000096:                                                                                                  #                        ROUTINES AS PART OF THE PINBALL EXEC JOB WITH PRIO 30000 IF
000097:                                                                                                  #                        THE KEY RELEASE LIGHT IS OFF AND :CADRSTOR: IS NOT +0.
000098:
000099:                                                                                                  #  IF PINBALL WAS CALLED BY INTERNAL PROGRAMS, EXIT FROM PINBALL IS BACK
000100:                                                                                                  #  TO CALLING ROUTINE.  DETAILS DESCRIBED IN REMARKS CARDS JUST BEFORE
000101:                                                                                                  #  :NVSUB: AND :NVSBWAIT: (SEE SYMBOL TABLE FOR PAGE NUMBERS).
000102:
000103:                                                                                                  #  ALARM OR ABORT EXIT MODES -
000104:
000105:                                                                                                  #        EXTERNAL INITIATION:
000106:                                                                                                  #                IF SOME IMPROPER SEQUENCE OF KEY CODES IS DETECTED, THE OPERATOR
000107:                                                                                                  #                ERROR LIGHT IS TURNED ON AND EXIT IS TO :ENDOFJOB:.
000108:
000109:                                                                                                  #        INTERNAL PROGRAM INITIATION:
000110:                                                                                                  #                IF AN ILLEGAL V/N COMBINATION IS ATTEMPTED, AN ABORT IS CAUSED
000111:                                                                                                  #                (WITH OCTAL 01501).
000112:                                                                                                  #                IF A SECOND ATTEMPT IS MADE TO GO TO SLEEP IN PINBALL, AN ABORT IS
000113:                                                                                                  #                CAUSED (WITH OCTAL 01206).  THERE ARE TWO WAYS TO GO TO SLEEP IN PINBALL:
000114:                                                                                                  #                1)      ENDIDLE OR DATAWAIT.
000115:                                                                                                  #                2)      NVSBWAIT, PRENVBSY, OR NVSUBUSY.
000116:
000117:                                                                                                  #  CONDITIONS LEADING TO THE ABOVE ARE DESCRIBED IN FORTHCOMING MIT/IL
000118:                                                                                                  #  E-REPORT DESCRIBING KEYBOARD AND DISPLAY OPERATION FOR 278.
000119:
000120:                                                                                                  #  OUTPUT -
000121:
000122:                                                                                                  #  INFORMATION TO BE SENT TO THE DISPLAY PANEL IS LEFT IN THE :DSPTAB:
000123:                                                                                                  #  BUFFERS REGISTERS (UNDER EXEC CONTROL).  :DSPOUT: (A PART OF T4RUPT)
000124:                                                                                                  #  HANDLES THE PLACING OF THE :DSPTAB: INFORMATION INTO OUTPUT CHANNEL 10
000125:                                                                                                  #  IN INTERRUPT.
000126:
000127:                                                                                                  #  ERASABLE INITIALIZATION -
000128:
000129:                                                                                                  #  FRESH START AND RESTART INITIALIZE THE NECESSARY E REGISTERS FOR
000130:                                                                                                  #  PINBALL IN :STARTSUB:.  REGISTERS ARE:  DSPTAB BUFFER, CADRSTOR,
000131:                                                                                                  #  REQRET, CLPASS, DSPLOCK, MONSAVE, MONSAVE1, VERBREG, NOUNREG, DSPLIST,
000132:                                                                                                  #  DSPCOUNT, NOUT.
000133:
000134:                                                                                                  #  A COMPLETE LIST OF ALL THE ERASABLES (BOTH RESERVED AND TEMPORARIES) FOR


000136:                                                                                                  #  PINBALL IS GIVEN BELOW.
000137:
000138:                                                                                                  #  THE FOLLOWING ARE OF GENERAL INTEREST -
000139:
000140:                                                                                                  #  REMARKS CARDS PRECEDE THE REFERENCED SYMBOL DEFINITION.  SEE SYMBOL
000141:                                                                                                  #  TABLE TO FIND APPROPRIATE PAGE NUMBERS.
000142:
000143:                                                                                                  #        NVSUB           CALLING POINT FOR INTERNAL USE OF PINBALL.
000144:                                                                                                  #                        OF RELATED INTEREST     NVSBWAIT
000145:                                                                                                  #                                                NVSUBUSY
000146:                                                                                                  #                                                PRENVBSY
000147:
000148:                                                                                                  #        ENDIDLE         ROUTINE FOR INTERNAL PROGRAMS WISHING TO GO TO SLEEP WHILE
000149:                                                                                                  #                        AWAITING OPERATORS RESPONSE.
000150:
000151:                                                                                                  #        DSPMM           ROUTINE BY WHICH AN INTERNAL PROGRAM MAY DISPLAY A DECIMAL
000152:                                                                                                  #                        PROGRAM CODE (MAJOR MODE) IN THE PROGRAM (MAJOR MODE) LIGHTS.
000153:                                                                                                  #                        (DSPMM DOES NOT DISPLAY DIRECTLY BUT ENTERS EXEC REQUEST
000154:                                                                                                  #                        FOR DSPMMJB WITH PRIO 30000 AND RETURNS TO CALLER.)
000155:
000156:                                                                                                  #        BLANKSUB        ROUTINE BY WHICH AN INTERNAL PROGRAM MAY BLANK ANY
000157:                                                                                                  #                        COMBINATION OF THE DISPLAY REGISTERS R1, R2, R3.
000158:
000159:                                                                                                  #        JAMTERM         ROUTINES BY WHICH AN INTERNAL PROGRAM MAY PERFORM THE
000160:                                                                                                  #        JAMPROC         TERMINATE (V 34) OR PROCEED (V33) FUNCTION.
000161:
000162:                                                                                                  #        MONITOR         VERBS FOR PERIODIC (1 PER SEC) DISPLAY.
000163:
000164:                                                                                                  #        PLEASE PERFORM, PLEASE MARK SITUATIONS
000165:                                                                                                  #                REMARKS DESCRIBING HOW AN INTERNAL ROUTINE SHOULD HANDLE
000166:                                                                                                  #                THESE SITUATIONS CAN BE FOUND JUST BEFORE :NVSUB: (SEE
000167:                                                                                                  #                SYMBOL TABLE FOR PAGE NUMBER).
000168:
000169:                                                                                                  #        THE NOUN TABLE FORMAT IS DESCRIBED ON A PAGE OF REMARKS CARDS JUST
000170:                                                                                                  #        BEFORE :DSPABC: (SEE SYMBOL TABLE FOR PAGE NUMBER).
000171:
000172:                                                                                                  #        THE NOUN TABLES THEMSELVES ARE FOUND IN LOG SECTION :PINBALL NOUN
000173:                                                                                                  #        TABLES:.
000174:
000175:                                                                                                  #  FOR FURTHER DETAILS ABOUT OPERATION OF THE KEYBOARD AND DISPLAY SYSTEM
000176:                                                                                                  #  PROGRAM, SEE THE MISSION PLAN AND/OR MIT/IL E-2129
000177:                                                                                                  #  DESCRIBING KEYBOARD AND DISPLAY OPERATION FOR 278.
000178:
000179:                                                                                                  #  THE FOLLOWING QUOTATION IS PROVIDED THROUGH THE COURTESY OF THE AUTHORS.
000180:
000181:                                                                                                  #        ::IT WILL BE PROVED TO THY FACE THAT THOU HAST MEN ABOUT THEE THAT
000182:                                                                                                  #        USUALLY TALK OF A NOUN AND A VERB, AND SUCH ABOMINABLE WORDS AS NO


000184:                                                                                                  #        CHRISTIAN EAR CAN ENDURE TO HEAR.::
000185:                                                                                                  #                                        HENRY 6, ACT 2, SCENE 4
000186:
000187:                                                                                                  #  THE FOLLOWING ASSIGNMENTS FOR PINBALL ARE MADE ELSEWHERE
000188:
000189:
000190:                                                                                                  #  RESERVED FOR PINBALL EXECUTIVE ACTION
000191:
000192:                                                                                                  # DSPCOUNT       ERASE                   DISPLAY POSITION INDICATOR
000193:                                                                                                  # DECBRNCH       ERASE                   +DEC, -DEC, OCT INDICATOR
000194:                                                                                                  # VERBREG        ERASE                   VERB CODE
000195:                                                                                                  # NOUNREG        ERASE                   NOUN CODE
000196:                                                                                                  # XREG           ERASE                   R1 INPUT BUFFER
000197:                                                                                                  # YREG           ERASE                   R2 INPUT BUFFER
000198:                                                                                                  # ZREG           ERASE                   R3 INPUT BUFFER
000199:                                                                                                  # XREGLP         ERASE                   LO PART OF XREG (FOR DEC CONV ONLY)
000200:                                                                                                  # YREGLP         ERASE                   LO PART OF YREG (FOR DEC CONV ONLY)
000201:                                                                                                  # HITEMOUT       =       YREGLP          TEMP FOR DISPLAY OF HRS,MIN,SEC
000202:                                                                                                  #                                                 MUST = LOTEMOUT-1.
000203:                                                                                                  # ZREGLP         ERASE                   LO PART OF ZREG (FOR DEC CONV ONLY)
000204:                                                                                                  # LOTEMOUT       =       ZREGLP          TEMP FOR DISPLAY OF HRS,MIN,SEC
000205:                                                                                                  #                                                 MUST = HITEMOUT+1.
000206:                                                                                                  # MODREG         ERASE                   MODE CODE
000207:                                                                                                  # DSPLOCK        ERASE                   KEYBOARD/SUBROUTINE CALL INTERLOCK
000208:                                                                                                  # REQRET         ERASE                   RETURN REGISTER FOR LOAD
000209:                                                                                                  # LOADSTAT       ERASE                   STATUS INDICATOR FOR LOADTST
000210:                                                                                                  # CLPASS         ERASE                   PASS INDICATOR CLEAR
000211:                                                                                                  # NOUT           ERASE                   ACTIVITY COUNTER FOR DSPTAB
000212:                                                                                                  # NOUNCADR       ERASE                   MACHINE CADR FOR NOUN
000213:                                                                                                  # MONSAVE        ERASE                   N/V CODE FOR MONITOR. (= MONSAVE1-1)
000214:                                                                                                  # MONSAVE1       ERASE                   NOUNCADR FOR MONITOR (MATBS) =MONSAVE +1
000215:                                                                                                  # MONSAVE2       ERASE                   NVMONOPT OPTIONS
000216:                                                                                                  # DSPTAB         ERASE   +13D            0-10, DISPLAY PANEL BUFFER. 11-13, C RELAYS
000217:                                                                                                  # CADRSTOR       ERASE                   ENDIDLE STORAGE
000218:                                                                                                  # NVQTEM         ERASE                   NVSUB STORAGE FOR CALLING ADDRESS
000219:                                                                                                  #                                        MUST = NVBNKTEM-1
000220:                                                                                                  # NVBNKTEM       ERASE                   NVSUB STORAGE FOR CALLING BANK
000221:                                                                                                  #                                        MUST = NVQTEM+1
000222:                                                                                                  # VERBSAVE       ERASE                   NEEDED FOR RECYCLE
000223:                                                                                                  # DSPLIST        ERASE                   WAITING REG FOR DSP SYST INTERNAL USE
000224:                                                                                                  # EXTVBACT       REASE                   EXTENDED VERB ACTIVITY INTERLOCK
000225:                                                                                                  # DSPTEM1        ERASE   +2              BUFFER STORAGE AREA 1 (MOSTLY FOR TIME)
000226:                                                                                                  # DSPTEM2        ERASE   +2              BUFFER STORAGE AREA 2 (MOSTLY FOR DEG)
000227:
000228:                                                                                                  #  END OF ERASABLES RESERVED FOR PINBALL EXECUTIVE ACTION
000229:                                                                                                  #  TEMPORARIES FOR PINBALL EXECUTIVE ACTION


000231:                                                                                                  # DSEXIT         =       INTB15+         RETURN FOR DSPIN
000232:                                                                                                  # EXITEM         =       INTB15+         RETURN FOR SCALE FACTOR ROUTINE SELECT
000233:                                                                                                  # BLANKRET       =       INTB15+         RETURN FOR 2BLANK
000234:
000235:                                                                                                  # WRDRET         =       INTBIT15        RETURN FOR 5BLANK
000236:                                                                                                  # WDRET          =       INTBIT15        RETURN FOR DSPWD
000237:                                                                                                  # DECRET         =       INTBIT15        RETURN FOR PUTCOM(DEC LOAD)
000238:                                                                                                  # 21/22REG       =       INTBIT15        TEMP FOR CHARIN
000239:
000240:                                                                                                  # UPDATRET       =       POLISH          RETURN FOR UPDATNN, UPDATVB
000241:                                                                                                  # CHAR           =       POLISH          TEMP FOR CHARIN
000242:                                                                                                  # ERCNT          =       POLISH          COUNTER FOR ERROR LIGHT RESET
000243:                                                                                                  # DECOUNT        =       POLISH          COUNTER FOR SCALING AND DISPLAY (DEC)
000244:
000245:                                                                                                  # SGNON          =       VBUF            TEMP FOR +,- ON
000246:                                                                                                  # NOUNTEM        =       VBUF            COUNTER FOR MIXNOUN FETCH
000247:                                                                                                  # DISTEM         =       VBUF            COUNTER FOR OCTAL DISPLAY VERBS
000248:                                                                                                  # DECTEM         =       VBUF            COUNTER FOR FETCH (DEC DISPLAY VERBS)
000249:
000250:                                                                                                  # SGNOFF         =       VBUF +1         TEMP FOR +,- ON
000251:                                                                                                  # NVTEMP         =       VBUF +1         TEMP FOR NVSUB
000252:                                                                                                  # SFTEMP1        =       VBUF +1         STORAGE FOR SF CONST HI PART (=SFTEMP2-1)
000253:                                                                                                  # HITEMIN        =       VBUF +1         TEMP FOR LOAD OF HRS,MIN,SEC
000254:                                                                                                  #                                        MUST = LOTEMIN-1.
000255:                                                                                                  # CODE           =       VBUF +2         FOR DSPIN
000256:                                                                                                  # SFTEMP2        =       VBUF +2         STORAGE FOR SF CONST LO PART (=SFTEMP1+1)
000257:                                                                                                  # LOTEMIN        =       VBUF +2         TEMP FOR LOAD OF HRS,MIN,SEC
000258:                                                                                                  #                                        MUST = HITEMIN+1.
000259:                                                                                                  # MIXTEMP        =       VBUF +3         FOR MIXNOUN DATA
000260:                                                                                                  # SIGNRET        =       VBUF +3         RETURN FOR +,- ON
000261:
000262:                                                                                                  #  ALSO MIXTEMP+1 = VBUF+4, MIXTEMP+2 = VBUF+5.
000263:
000264:                                                                                                  # ENTRET         =       DOTINC          EXIT FROM ENTER
000265:
000266:                                                                                                  # WDCNT          =       DOTRET          CHAR COUNTER FOR DSPWD
000267:                                                                                                  # INREL          =       DOTRET          INPUT BUFFER SELECTOR ( X,Y,Z, REG )
000268:
000269:                                                                                                  # DSPMMTEM       =       MATINC          DSPCOUNT SAVE FOR DSPMM
000270:                                                                                                  # MIXBR          =       MATINC          INDICATOR FOR MIXED OR NORMAL NOUN
000271:
000272:                                                                                                  # TEM1           ERASE                   EXEC TEMP
000273:                                                                                                  # DSREL          =       TEM1            REL ADDRESS FOR DSPIN
000274:
000275:                                                                                                  # TEM2           ERASE                   EXEC TEMP
000276:                                                                                                  # DSMAG          =       TEM2            MAGNITUDE STORE FOR DSPIN
000277:                                                                                                  # IDADDTEM       =       TEM2            MIXNOUN INDIRECT ADDRESS STORAGE
000278:
000279:                                                                                                  # TEM3           ERASE                   EXEC TEMP
000280:                                                                                                  # COUNT          =       TEM3            FOR DSPIN


000282:                                                                                                  # TEM4           ERASE                   EXEC TEMP
000283:                                                                                                  # LSTPTR         =       TEM4            LIST POINTER FOR GRABUSY
000284:                                                                                                  # RELRET         =       TEM4            RETURN FOR RELDSP
000285:                                                                                                  # FREERET        =       TEM4            RETURN FOR FREEDSP
000286:                                                                                                  # DSPWDRET       =       TEM4            RETURN FOR DSPSIGN
000287:                                                                                                  # SEPSCRET       =       TEM4            RETURN FOR SEPSEC
000288:                                                                                                  # SEPMNRET       =       TEM4            RETURN FOR SEPMIN
000289:                                                                                                  # TEM5           ERASE                   EXEC TEMP
000290:                                                                                                  # NOUNADD        =       TEM5            TEMP STORAGE FOR NOUN ADDRESS
000291:                                                                                                  # NNADTEM        ERASE                   TEMP FOR NOUN ADDRESS TABLE ENTRY
000292:                                                                                                  # NNTYPTEM       ERASE                   TEMP FOR NOUN TYPE TABLE ENTRY
000293:                                                                                                  # IDAD1TEM       ERASE                   TEMP FOR INDIR ADRESS TABLE ENTRY (MIXNN)
000294:                                                                                                  #                                        MUST = IDAD2TEM-1, = IDAD3TEM-2.
000295:                                                                                                  # IDAD2TEM       ERASE                   TEMP FOR INDIR ADRESS TABLE ENTRY (MIXNN)
000296:                                                                                                  #                                        MUST = IDAD1TEM+1, = IDAD3TEM-1.
000297:                                                                                                  # IDAD3TEM       ERASE                   TEMP FOR INDIR ADRESS TABLE ENTRY (MIXNN)
000298:                                                                                                  #                                        MUST = IDAD1TEM+2, = IDAD2TEM+1.
000299:                                                                                                  # RUTMXTEM       ERASE                   TEMP FOR SF ROUT TABLE ENTRY (MIXNN ONLY)
000300:
000301:                                                                                                  #  END OF TEMPORARIES FOR PINBALL EXECUTIVE ACTION
000302:
000303:                                                                                                  #  ADDITIONAL TEMPORARIES FOR PINBALL EXECUTIVE ACTION
000304:
000305:                                                                                                  #        MPAC, THRU MPAC +6
000306:                                                                                                  #        BUF, +1, +2
000307:                                                                                                  #        BUF2, +1, +2
000308:                                                                                                  #        MPTEMP
000309:                                                                                                  #        ADDRWD
000310:
000311:                                                                                                  #  END OF ADDITIONAL TEMPS FOR PINBALL EXEC ACTION
000312:
000313:                                                                                                  #  RESERVED FOR PINBALL INTERRUPT ACTION
000314:
000315:                                                                                                  # DSPCNT         ERASE                   COUNTER FOR DSPOUT
000316:                                                                                                  # UPLOCK         ERASE                   BIT1 = UPLINK INTERLOCK (ACTIVATED BY
000317:                                                                                                  #                                        RECEPTION OF A BAD MESSAGE IN UPLINK)
000318:
000319:                                                                                                  #  END OF ERASABLES RESERVED FOR PINBALL INTERRUPT ACTION
000320:
000321:                                                                                                  #  TEMPORARIES FOR PINBALL INTERRUPT ACTION
000322:
000323:                                                                                                  # KEYTEMP1       =       WAITEXIT        TEMP FOR KEYRUPT, UPRUPT
000324:                                                                                                  # DSRUPTEM       =       WAITEXIT        TEMP FOR DSPOUT
000325:                                                                                                  # KEYTEMP2       =       RUPTAGN         TEMP FOR KEYRUPT, UPRUPT
000326:
000327:                                                                                                  #  END OF TEMPORARIES FOR PINBALL INTERRUPT ACTION
000328:


000330:                                                                                                  #  THE INPUT CODES ASSUMED FOR THE KEYBOARD ARE,
000331:                                                                                                  #        0               10000
000332:                                                                                                  #        1               00001
000333:                                                                                                  #        9               01001
000334:                                                                                                  #        VERB            10001
000335:                                                                                                  #        ERROR RES       10010
000336:                                                                                                  #        KEY RLSE        11001
000337:                                                                                                  #        +               11010
000338:                                                                                                  #        -               11011
000339:                                                                                                  #        ENTER           11100
000340:                                                                                                  #        CLEAR           11110
000341:                                                                                                  #        NOUN            11111
000342:
000343:                                                                                                  #  OUTPUT FORMAT FOR DISPLAY PANEL.  SET OUT0 TO AAAABCCCCCDDDDD.
000344:                                                                                                  #  A-S   SELECT A RELAYWORD.  THIS DETERMINES WHICH PAIR OF CHARACTERS ARE
000345:                                                                                                  #        ENERGIZED.
000346:                                                                                                  #  B     FOR SPECIAL RELAYS SUCH AS SIGNS ETC.
000347:                                                                                                  #  C-S   5 BIT RELAY CODE FOR LEFT CHAR OF PAIR SELECTED BY RELAYWORD
000348:                                                                                                  #  D-S   5 BIT RELAY CODE FOR RIGHT CHAR OF PAIR SELECTED BY RELAYWORD.
000349:
000350:                                                                                                  #  THE PANEL APPEARS AS FOLLOWS,
000351:                                                                                                  #        MD1             MD2 (MAJOR MODE)
000352:                                                                                                  #        VD1             VD2 (VERB)                      ND1             ND2 (NOUN)
000353:                                                                                                  #        R1D1            R1D2            R1D3            R1D4            R1D5 (R1)
000354:                                                                                                  #        R2D1            R2D2            R2D3            R2D4            R2D5 (R2)
000355:                                                                                                  #        R3D1            R3D2            R3D3            R3D4            R3D5 (R3)
000356:
000357:                                                                                                  #  EACH OF THESE IS GIVEN A DSPCOUNT NUMBER FOR USE WITHIN COMPUTATION ONLY
000358:
000359:                                                                                                  #        MD1     25              R2D1    11              ALL ARE OCTAL
000360:                                                                                                  #        MD2     24              R2D2    10
000361:                                                                                                  #        VD1     23              R2D3    7
000362:                                                                                                  #        VD2     22              R2D4    6
000363:                                                                                                  #        ND1     21              R2D5    5
000364:                                                                                                  #        ND2     20              R3D1    4
000365:                                                                                                  #        R1D1    16              R3D2    3
000366:                                                                                                  #        R1D2    15              R3D3    2
000367:                                                                                                  #        R1D3    14              R3D4    1
000368:                                                                                                  #        R1D4    13              R3D5    0
000369:                                                                                                  #        R1D5    12
000370:
000371:                                                                                                  #  THERE IS AN 11 REGISTER TABLE (DSPTAB) FOR THE DISPLAY PANEL.
000372:
000373:                                                                                                  #        DSPTAB          RELAYWD         BIT11           BITS 10-6       BITS 5-1
000374:                                                                                                  #        RELADD
000375:                                                                                                  #        10              1011                            MD1 (25)        MD2 (24)
000376:                                                                                                  #        9               1010                            VD1 (23)        VD2 (22)
000377:                                                                                                  #        8               1001                            ND1 (21)        ND2 (20)
000378:                                                                                                  #        7               1000                                            R1D1 (16)


000380:                                                                                                  #        6               0111            +R1             R1D2 (15)       R1D3 (14)
000381:                                                                                                  #        5               0110            -R1             R1D4 (13)       R1D5 (12)
000382:                                                                                                  #        4               0101            +R2             R2D1 (11)       R2D2 (10)
000383:                                                                                                  #        3               0100            -R2             R2D3 (7)        R2D4 (6)
000384:                                                                                                  #        2               0011                            R2D5 (5)        R3D1 (4)
000385:                                                                                                  #        1               0010            +R3             R3D2 (3)        R3D3 (2)
000386:                                                                                                  #        0               0001            -R3             R3D4 (1)        R3D5 (0)
000387:                                                                                                  #                        0000        NO RELAYWORD
000388:
000389:                                                                                                  #  THE 5 BIT OUTPUT RELAY CODES ARE:
000390:
000391:                                                                                                  #        BLANK   00000
000392:                                                                                                  #        0       10101
000393:                                                                                                  #        1       00011
000394:                                                                                                  #        2       11001
000395:                                                                                                  #        3       11011
000396:                                                                                                  #        4       01111
000397:                                                                                                  #        5       11110
000398:                                                                                                  #        6       11100
000399:                                                                                                  #        7       10011
000400:                                                                                                  #        8       11101
000401:                                                                                                  #        9       11111
000402:
000403:                                                                                                  #  OUTPUT BITS USED BY PINBALL:
000404:
000405:                                                                                                  #        KEY RELEASE LIGHT       -       BIT 5 OF CHANNEL 11
000406:                                                                                                  #        VERB/NOUN FLASH         -       BIT 6 OF CHANNEL 11
000407:                                                                                                  #        OPERATOR ERROR LIGHT    -       BIT 7 OF CHANNEL 11
000408:


000410:                                                                                                  #  START OF EXECUTIVE SECTION OF PINBALL
000411:
000412: 40,2077                                           BANK     40
000413: 40,2000                                           SETLOC   PINBALL1
000414: 40,2000                                           BANK
000415:
000416: 40,2077                                           COUNT*   $$/PIN
000417: 40,2077           34753        CHARIN             CAF      ONE                                   #  BLOCK DISPLAY SYST
000418: 40,2100           57011                           XCH      DSPLOCK                               #  MAKE DSP SYST BUSY, BUT SAVE OLD
000419: 40,2101           54115                           TS       21/22REG                              #  C(DSPLOCK) FOR ERROR LIGHT RESET.
000420: 40,2102           11041                           CCS      CADRSTOR                              #  ALL KEYS EXCEPT ER TURN ON KR LITE IF
000421: 40,2103           02105                           TC       +2                                    #  CADRSTOR IS FULL.  THIS REMINDS OPERATOR
000422: 40,2104           02112                           TC       CHARIN2                               #  TO RE-ESTABLISH A FLASHING DISPLAY
000423: 40,2105           42156                           CS       ELRCODE1                              #  WHICH HE HAS OBSCURED WITH DISPLAYS OF
000424: 40,2106           60154                           AD       MPAC                                  #  HIS OWN (SEE REMARKS PRECEDING ROUTINE
000425: 40,2107           00006                           EXTEND                                         #  VBRELDSP).
000426: 40,2110           12112                           BZF      CHARIN2
000427: 40,2111           04374                           TC       RELDSPON
000428: 40,2112           56154        CHARIN2            XCH      MPAC
000429: 40,2113           54117                           TS       CHAR
000430: 40,2114           50000                           INDEX    A
000431: 40,2115           02116                           TC       +1                                    #    INPUT CODE      FUNCTION
000432: 40,2116           03470                           TC       CHARALRM                              #        0
000433: 40,2117           02175                           TC       NUM                                   #        1
000434: 40,2120           02175                           TC       NUM                                   #        2
000435: 40,2121           02175                           TC       NUM                                   #        3
000436: 40,2122           02175                           TC       NUM                                   #        4
000437: 40,2123           02175                           TC       NUM                                   #        5
000438: 40,2124           02175                           TC       NUM                                   #        6
000439: 40,2125           02175                           TC       NUM                                   #        7
000440: 40,2126           02161                           TC       89TEST                                #        10              8
000441: 40,2127           02161                           TC       89TEST                                #        11              9
000442: 40,2130           03470                           TC       CHARALRM                              #        12
000443: 40,2131           03470                           TC       CHARALRM                              #        13
000444: 40,2132           03470                           TC       CHARALRM                              #        14
000445: 40,2133           03470                           TC       CHARALRM                              #        15
000446: 40,2134           03470                           TC       CHARALRM                              #        16
000447: 40,2135           03470                           TC       CHARALRM                              #        17
000448: 40,2136           02173                           TC       NUM        -2                         #        20              0
000449: 40,2137           02354                           TC       VERB                                  #        21              VERB
000450: 40,2140           03646                           TC       ERROR                                 #        22              ERROR LIGHT RESET
000451: 40,2141           03470                           TC       CHARALRM                              #        23
000452: 40,2142           03470                           TC       CHARALRM                              #        24
000453: 40,2143           03470                           TC       CHARALRM                              #        25
000454: 40,2144           03470                           TC       CHARALRM                              #        26
000455: 40,2145           03470                           TC       CHARALRM                              #        27
000456: 40,2146           03470                           TC       CHARALRM                              #        30
000457: 40,2147           03524                           TC       VBRELDSP                              #        31              KEY RELEASE
000458: 40,2150           02407                           TC       POSGN                                 #        32              +


000460: 40,2151           02374                           TC       NEGSGN                                #        33              -
000461: 40,2152           02157                           TC       ENTERJMP                              #        34              ENTER
000462: 40,2153           03470                           TC       CHARALRM                              #        35
000463: 40,2154           02467                           TC       CLEAR                                 #        36              CLEAR
000464: 40,2155           02370                           TC       NOUN                                  #        37              NOUN
000465:
000466: 40,2156           00022        ELRCODE1           OCT      22
000467: 40,2157           04635        ENTERJMP           TC       POSTJUMP
000468: 40,2160           62002                           CADR     ENTER
000469:
000470: 40,2161           10776        89TEST             CCS      DSPCOUNT
000471: 40,2162           02166                           TC       +4                                    #  +
000472: 40,2163           02166                           TC       +3                                    #  +0
000473: 40,2164           05155                           TC       ENDOFJOB                              #  - BLOCK DATA IN IF DSPCOUNT IS - OR -0
000474: 40,2165           05155                           TC       ENDOFJOB                              #  -0
000475: 40,2166           36250                           CAF      THREE
000476: 40,2167           70777                           MASK     DECBRNCH
000477: 40,2170           10000                           CCS      A
000478: 40,2171           02175                           TC       NUM                                   #  IF DECBRNCH IS +, 8 OR 9 OK
000479: 40,2172           03470                           TC       CHARALRM                              #  IF DECBRNCH IS +0, REJECT 8 OR 9
000480:
000481:                                                                                                  #  NUM ASSEMBLES OCTAL 3 BITS AT A TIME.  FOR DECIMAL IT CONVERTS INCOMING
000482:                                                                                                  #  WORD AS A FRACTION, KEEPING RESULTS TO DP.
000483:                                                                                                  #  OCTAL RESULTS ARE LEFT IN XREG, YREG, OR ZREG.  HI PART OF DEC IN XREG,
000484:                                                                                                  #  YREG, ZREG.  THE LOW PARTS IN XREGLP, YREGLP, OR ZREGLP)
000485:                                                                                                  #  DECBRNCH IS LEFT AT +0 FOR OCT, +1 FOR + DEC, +2 FOR - DEC.
000486:                                                                                                  #  IF DSPCOUNT WAS LEFT -, NO MORE DATA IS ACCEPTED.
000487:
000488: 40,2173           34755                           CAF      ZERO
000489: 40,2174           54117                           TS       CHAR
000490: 40,2175           10776        NUM                CCS      DSPCOUNT
000491: 40,2176           02202                           TC       +4                                    #  +
000492: 40,2177           02202                           TC       +3                                    #  +0
000493: 40,2200           02201                           TC       +1                                    #  -BLOCK DATA IN IF DSPCOUNT IS -
000494: 40,2201           05155                           TC       ENDOFJOB                              #  -0
000495: 40,2202           02324                           TC       GETINREL
000496: 40,2203           11014                           CCS      CLPASS                                #  IF CLPASS IS + OR +0, MAKE IT +0.
000497: 40,2204           34755                           CAF      ZERO
000498: 40,2205           55014                           TS       CLPASS
000499: 40,2206           02207                           TC       +1
000500: 40,2207           50117                           INDEX    CHAR
000501: 40,2210           34066                           CAF      RELTAB
000502: 40,2211           74346                           MASK     LOW5
000503: 40,2212           54124                           TS       CODE
000504: 40,2213           30776                           CA       DSPCOUNT
000505: 40,2214           54143                           TS       COUNT
000506: 40,2215           03356                           TC       DSPIN
000507: 40,2216           36250                           CAF      THREE


000509: 40,2217           70777                           MASK     DECBRNCH
000510: 40,2220           10000                           CCS      A                                     #  +0, OCTAL.  +1, + DEC.  +2, - DEC.
000511: 40,2221           02232                           TC       DECTOBIN                              #  +
000512: 40,2222           50137                           INDEX    INREL                                 #  +0 OCTAL
000513: 40,2223           57000                           XCH      VERBREG
000514: 40,2224           54022                           TS       CYL
000515: 40,2225           40022                           CS       CYL
000516: 40,2226           40022                           CS       CYL
000517: 40,2227           56022                           XCH      CYL
000518: 40,2230           60117                           AD       CHAR
000519: 40,2231           02247                           TC       ENDNMTST
000520: 40,2232           50137        DECTOBIN           INDEX    INREL
000521: 40,2233           57000                           XCH      VERBREG
000522: 40,2234           54154                           TS       MPAC                                  #  SUM X 2EXP-14 IN MPAC
000523: 40,2235           34755                           CAF      ZERO
000524: 40,2236           54155                           TS       MPAC       +1
000525: 40,2237           34363                           CAF      TEN                                   #  10 X 2EXP-14
000526: 40,2240           07312                           TC       SHORTMP                               #  10SUM X 2EXP-28 IN MPAC, MPAC+1
000527: 40,2241           56155                           XCH      MPAC       +1
000528: 40,2242           60117                           AD       CHAR
000529: 40,2243           54155                           TS       MPAC       +1
000530: 40,2244           02247                           TC       ENDNMTST                              #  NO OF
000531: 40,2245           26154                           ADS      MPAC                                  #  OF MUST BE 5TH CHAR
000532: 40,2246           02265                           TC       DECEND
000533: 40,2247           50137        ENDNMTST           INDEX    INREL
000534: 40,2250           55000                           TS       VERBREG
000535: 40,2251           40776                           CS       DSPCOUNT
000536: 40,2252           50137                           INDEX    INREL
000537: 40,2253           62315                           AD       CRITCON
000538: 40,2254           00006                           EXTEND
000539: 40,2255           12257                           BZF      ENDNUM                                #  -0, DSPCOUNT = CRITCON
000540: 40,2256           02312                           TC       MORNUM                                #  -, DSPCOUNT G/ CRITCON
000541: 40,2257           36250        ENDNUM             CAF      THREE
000542: 40,2260           70777                           MASK     DECBRNCH
000543: 40,2261           10000                           CCS      A
000544: 40,2262           02265                           TC       DECEND
000545: 40,2263           40776        ENDALL             CS       DSPCOUNT                              #  BLOCK NUMIN BY PLACING DSPCOUNT
000546: 40,2264           02313                           TC       MORNUM     +1                         #  NEGATIVELY
000547: 40,2265           44753        DECEND             CS       ONE
000548: 40,2266           60137                           AD       INREL
000549: 40,2267           00006                           EXTEND
000550: 40,2270           62263                           BZMF     ENDALL                                #  IF INREL=0,1 (VBREG,NNREG), LEAVE WHOLE
000551: 40,2271           07106                           TC       DMP                                   #  IF INREL=2,3,4 (R1,R2,R3), CONVERT TO FRAC
000552:                                                                                                  #  MULT SUM X 2EXP-28 IN MPAC, MPAC+1 BY
000553: 40,2272           02322                           ADRES    DECON                                 #  2EXP14/10EXP5. GIVES (SUM/10EXP5)X2EXP-14
000554: 40,2273           36250                           CAF      THREE                                 #  IN MPAC, +1, +2.
000555: 40,2274           70777                           MASK     DECBRNCH
000556: 40,2275           50000                           INDEX    A
000557: 40,2276           02276                           TC       +0
000558: 40,2277           02303                           TC       +DECSGN


000560: 40,2300           00006                           EXTEND                                         #  - CASE
000561: 40,2301           40156                           DCS      MPAC       +1
000562: 40,2302           52156                           DXCH     MPAC       +1
000563: 40,2303           56156        +DECSGN            XCH      MPAC       +2
000564: 40,2304           50137                           INDEX    INREL
000565: 40,2305           55003                           TS       XREGLP     -2
000566: 40,2306           56155                           XCH      MPAC       +1
000567: 40,2307           50137                           INDEX    INREL
000568: 40,2310           55000                           TS       VERBREG
000569: 40,2311           02263                           TC       ENDALL
000570: 40,2312           10776        MORNUM             CCS      DSPCOUNT                              #  DECREMENT DSPCOUNT
000571: 40,2313           54776                           TS       DSPCOUNT
000572: 40,2314           05155                           TC       ENDOFJOB
000573:
000574: 40,2315           00022        CRITCON            OCT      22                                    #  (DEC 18)
000575: 40,2316           00020                           OCT      20                                    #  (DEC 16)
000576: 40,2317           00012                           OCT      12                                    #  (DEC 10)
000577: 40,2320           00005                           OCT      5
000578: 40,2321           00000                           OCT      0
000579:
000580: 40,2322           05174 13261  DECON              2DEC     1          E-5        B14             #  2EXP14/10EXP5 = .16384 DEC
000581:
000582:                                                                                                  #  GETINREL GETS PROPER DATA REG REL ADDRESS FOR CURRENT C(DSPCOUNT) AND
000583:                                                                                                  #  PUTS IN INTO INREL.  +0 VERBREG, 1 NOUNREG, 2 XREG, 3 YREG, 4 ZREG.
000584:
000585: 40,2324           50776        GETINREL           INDEX    DSPCOUNT
000586: 40,2325           32330                           CAF      INRELTAB
000587: 40,2326           54137                           TS       INREL                                 #  (A TEMP, REG)
000588: 40,2327           00002                           TC       Q
000589:
000590: 40,2330           00004        INRELTAB           OCT      4                                     #  R3D5 (DSPCOUNT = 0)
000591: 40,2331           00004                           OCT      4                                     #  R3D4           =(1)
000592: 40,2332           00004                           OCT      4                                     #  R3D3           =(2)
000593: 40,2333           00004                           OCT      4                                     #  R3D2           =(3)
000594: 40,2334           00004                           OCT      4                                     #  R3D1           =(4)
000595: 40,2335           00003                           OCT      3                                     #  R2D5           =(5)
000596: 40,2336           00003                           OCT      3                                     #  R2D4           =(6)
000597: 40,2337           00003                           OCT      3                                     #  R2D3           =(7)
000598: 40,2340           00003                           OCT      3                                     #  R2D2           =(8D)
000599: 40,2341           00003                           OCT      3                                     #  R2D1           =(9D)
000600: 40,2342           00002                           OCT      2                                     #  R1D5           =(10D)
000601: 40,2343           00002                           OCT      2                                     #  R1D4           =(11D)
000602: 40,2344           00002                           OCT      2                                     #  R1D3           =(12D)
000603: 40,2345           00002                           OCT      2                                     #  R1D2           =(13D)
000604: 40,2346           00002                           OCT      2                                     #  R1D1           =(14D)
000605: 40,2347           05675                           TC       CCSHOLE                               #  NO DSPCOUNT NUMBER = 15D
000606: 40,2350           00001                           OCT      1                                     #  ND2            =(16D)
000607: 40,2351           00001                           OCT      1                                     #  ND1            =(17D)


000609: 40,2352           00000                           OCT      0                                     #  VD2            =(18D)
000610: 40,2353           00000                           OCT      0                                     #  VD1            =(19D)
000611:
000612: 40,2354           34755        VERB               CAF      ZERO
000613: 40,2355           55000                           TS       VERBREG
000614: 40,2356           34360                           CAF      VD1
000615: 40,2357           54776        NVCOM              TS       DSPCOUNT
000616: 40,2360           02601                           TC       2BLANK
000617: 40,2361           34753                           CAF      ONE
000618: 40,2362           54777                           TS       DECBRNCH                              #  SET FOR DEC V/N CODE
000619: 40,2363           34755                           CAF      ZERO
000620: 40,2364           55012                           TS       REQRET                                #  SET FOR ENTPAS0
000621: 40,2365           34217                           CAF      ENDINST                               #  IF DSPALARM OCCURS BEFORE FIRST ENTPAS0
000622: 40,2366           54136                           TS       ENTRET                                #  OR NVSUB, ENTRET MUST ALREADY BE SET
000623:                                                                                                  #  TO TC ENDOFJOB
000624: 40,2367           05155                           TC       ENDOFJOB
000625: 40,2370           34755        NOUN               CAF      ZERO
000626: 40,2371           55001                           TS       NOUNREG
000627: 40,2372           34361                           CAF      ND1                                   #  ND1, OCT 21 (DEC 17)
000628: 40,2373           02357                           TC       NVCOM
000629:
000630: 40,2374           02446        NEGSGN             TC       SIGNTEST
000631: 40,2375           02433                           TC       -ON
000632: 40,2376           34752                           CAF      TWO
000633: 40,2377           50137        BOTHSGN            INDEX    INREL                                 #  SET DEC COMP BIT TO 1 (IN DECBRNCH)
000634: 40,2400           64745                           AD       BIT7                                  #  BIT 5 FOR R1, BIT 4 FOR R2,
000635: 40,2401           26777                           ADS      DECBRNCH                              #  BIT 3 FOR R3.
000636: 40,2402           11014        FIXCLPAS           CCS      CLPASS                                #  IF CLPASS IS + OR +0, MAKE IT +0.
000637: 40,2403           34755                           CAF      ZERO
000638: 40,2404           55014                           TS       CLPASS
000639: 40,2405           02406                           TC       +1
000640: 40,2406           05155                           TC       ENDOFJOB
000641:
000642: 40,2407           02446        POSGN              TC       SIGNTEST
000643: 40,2410           02413                           TC       +ON
000644: 40,2411           34753                           CAF      ONE
000645: 40,2412           02377                           TC       BOTHSGN
000646:
000647: 40,2413           22002        +ON                LXCH     Q
000648: 40,2414           02324                           TC       GETINREL
000649: 40,2415           50137                           INDEX    INREL
000650: 40,2416           32441                           CAF      SGNTAB     -2
000651: 40,2417           54123                           TS       SGNOFF
000652: 40,2420           64753                           AD       ONE
000653: 40,2421           54122                           TS       SGNON
000654: 40,2422           34755        SGNCOM             CAF      ZERO
000655: 40,2423           54124                           TS       CODE
000656: 40,2424           56123                           XCH      SGNOFF


000658: 40,2425           03440                           TC       11DSPIN
000659: 40,2426           34741                           CAF      BIT11
000660: 40,2427           54124                           TS       CODE
000661: 40,2430           56122                           XCH      SGNON
000662: 40,2431           03440                           TC       11DSPIN
000663: 40,2432           00001                           TC       L
000664: 40,2433           22002        -ON                LXCH     Q
000665: 40,2434           02324                           TC       GETINREL
000666: 40,2435           50137                           INDEX    INREL
000667: 40,2436           32441                           CAF      SGNTAB     -2
000668: 40,2437           54122                           TS       SGNON
000669: 40,2440           64753                           AD       ONE
000670: 40,2441           54123                           TS       SGNOFF
000671: 40,2442           02422                           TC       SGNCOM
000672:
000673: 40,2443           00005        SGNTAB             OCT      5                                     #  -R1
000674: 40,2444           00003                           OCT      3                                     #  -R2
000675: 40,2445           00000                           OCT      0                                     #  -R3
000676:
000677: 40,2446           22002        SIGNTEST           LXCH     Q                                     #  ALLOWS +,- ONLY WHEN DSPCOUNT=R1D1,
000678: 40,2447           36250                           CAF      THREE                                 #  R2D1, OR R3D1.  ALLOWS ONLY FIRST OF
000679: 40,2450           70777                           MASK     DECBRNCH                              #  CONSECUTIVE +/- CHARACTERS.
000680: 40,2451           10000                           CCS      A                                     #  IF LOW2 BITS OF DECBRNCH NOT= 0, SIGN
000681: 40,2452           05155                           TC       ENDOFJOB                              #  FOR THIS WORD ALREADY IN.  REJECT.
000682: 40,2453           44317                           CS       R1D1
000683: 40,2454           02462                           TC       SGNTST1
000684: 40,2455           44320                           CS       R2D1
000685: 40,2456           02462                           TC       SGNTST1
000686: 40,2457           44321                           CS       R3D1
000687: 40,2460           02462                           TC       SGNTST1
000688: 40,2461           05155                           TC       ENDOFJOB                              #  NO MATCH FOUND.  SIGN ILLEGAL
000689: 40,2462           60776        SGNTST1            AD       DSPCOUNT
000690: 40,2463           00006                           EXTEND
000691: 40,2464           12466                           BZF      +2                                    #  MATCH FOUND
000692: 40,2465           00002                           TC       Q
000693: 40,2466           00001                           TC       L                                     #  SIGN LEGAL
000694:
000695:                                                                                                  #  CLEAR BLANKS WHICH R1, R2, R3 IS CURRENT OR LAST TO BE DISPLAYED(PERTINE
000696:                                                                                                  #  NT XREG,YREG,ZREG IS CLEARED). SUCCESSIVE CLEARS TAKE CARE OF EACH RX
000697:                                                                                                  #  L/ RC UNTIL R1 IS DONE.  THEN NO FURTHER ACTION
000698:
000699:                                                                                                  #  THE SINGLE COMPONENT LOAD VERBS ALLOW ONLY THE SINGLE RC THAT IS
000700:                                                                                                  #  APPROPRIATE TO BE CLEARED.
000701:
000702:                                                                                                  #  CLPASS        +0 PASS0, CAN BE BACKED UP
000703:                                                                                                  #                +NZ HIPASS, CAN BE BACKED UP
000704:                                                                                                  #                -NZ PASS0, CANNOT BE BACKED UP


000706: 40,2467           10776        CLEAR              CCS      DSPCOUNT
000707: 40,2470           64753                           AD       ONE
000708: 40,2471           02473                           TC       +2
000709: 40,2472           64753                           AD       ONE
000710: 40,2473           50000                           INDEX    A                                     #  DO NOT CHANGE DSPCOUNT BECAUSE MAY LATER
000711: 40,2474           32330                           CAF      INRELTAB                              #  FAIL LEGALTST.
000712: 40,2475           54137                           TS       INREL                                 #  MUST SET INREL, EVEN FOR HIPASS.
000713: 40,2476           11014                           CCS      CLPASS
000714: 40,2477           02505                           TC       CLPASHI                               #  +
000715: 40,2500           02502                           TC       +2                                    #  +0    IF CLPASS IS +0 OR -, IT IS PASS0
000716: 40,2501           02502                           TC       +1                                    #  -
000717: 40,2502           30137                           CA       INREL
000718: 40,2503           02527                           TC       LEGALTST
000719: 40,2504           02522                           TC       CLEAR1
000720: 40,2505           10137        CLPASHI            CCS      INREL
000721: 40,2506           54137                           TS       INREL
000722: 40,2507           02527                           TC       LEGALTST
000723: 40,2510           32577                           CAF      DOUBLK     +2                         #  +3 TO - NUMBER. BACKS DATA REQUESTS.
000724: 40,2511           27012                           ADS      REQRET
000725: 40,2512           30137                           CA       INREL
000726: 40,2513           54125                           TS       MIXTEMP                               #  TEMP STORAGE FOR INREL
000727: 40,2514           00006                           EXTEND
000728: 40,2515           27000                           DIM      VERBREG                               #  DECREMENT VERB AND RE-DISPLAY
000729: 40,2516           04616                           TC       BANKCALL
000730: 40,2517           62342                           CADR     UPDATVB
000731: 40,2520           30125                           CA       MIXTEMP
000732: 40,2521           54137                           TS       INREL                                 #  RESTORE INREL
000733: 40,2522           02525        CLEAR1             TC       CLR5
000734: 40,2523           25014                           INCR     CLPASS                                #  ONLY IF CLPASS IS + OR +0,
000735: 40,2524           05155                           TC       ENDOFJOB                              #  SET FOR HIGHER PASS.
000736: 40,2525           22002        CLR5               LXCH     Q                                     #  USES 5BLANK BUT AVOIDS ITS TC GETINREL
000737: 40,2526           02540                           TC       5BLANK     +2
000738: 40,2527           67751        LEGALTST           AD       NEG2
000739: 40,2530           10000                           CCS      A
000740: 40,2531           00002                           TC       Q                                     #  LEGAL         INREL G/2
000741: 40,2532           05675                           TC       CCSHOLE
000742: 40,2533           05155                           TC       ENDOFJOB                              #  ILLEGAL       INREL=0,1
000743: 40,2534           00002                           TC       Q                                     #  LEGAL         INREL=2
000744:
000745:                                                                                                  #  5BLANK BLANKS 5 CHAR DISPLAY WORD IN R1, R2, OR R3. IT ALSO ZEROES XREG,
000746:                                                                                                  #  YREG, OR ZREG.PLACE ANY + DSPCOUNT NUMBER FOR PERTINENT RC INTO DSPCOUNT
000747:                                                                                                  #  DSPCOUNT IS LEFT SET TO LEFT MOST DSP NUMB FOR RC JUST BLANKED.
000748:
000749: 40,2535           54776                           TS       DSPCOUNT                              #  NEEDED FOR BLANKSUB
000750: 40,2536           22002        5BLANK             LXCH     Q
000751: 40,2537           02324                           TC       GETINREL
000752: 40,2540           34755                           CAF      ZERO
000753: 40,2541           50137                           INDEX    INREL
000754: 40,2542           55000                           TS       VERBREG                               #  ZERO X, Y, Z REG.


000756: 40,2543           50137                           INDEX    INREL
000757: 40,2544           55003                           TS       XREGLP     -2
000758: 40,2545           54124                           TS       CODE
000759: 40,2546           50137                           INDEX    INREL                                 #  ZERO PERTINENT DEC COMP BIT.
000760: 40,2547           44745                           CS       BIT7                                  #  PROTECT OTHERS
000761: 40,2550           70777                           MASK     DECBRNCH
000762: 40,2551           72600                           MASK     BRNCHCON                              #  ZERO LOW 2 BITS.
000763: 40,2552           54777                           TS       DECBRNCH
000764: 40,2553           50137                           INDEX    INREL
000765: 40,2554           32570                           CAF      SINBLANK   -2                         #  BLANK ISOLATED CHAR SEPARATELY
000766: 40,2555           54143                           TS       COUNT
000767: 40,2556           03356                           TC       DSPIN
000768: 40,2557           50137        5BLANK1            INDEX    INREL
000769: 40,2560           32573                           CAF      DOUBLK     -2
000770: 40,2561           54776                           TS       DSPCOUNT
000771: 40,2562           02601                           TC       2BLANK
000772: 40,2563           44752                           CS       TWO
000773: 40,2564           26776                           ADS      DSPCOUNT
000774: 40,2565           02601                           TC       2BLANK
000775: 40,2566           50137                           INDEX    INREL
000776: 40,2567           34315                           CAF      R1D1       -2
000777: 40,2570           54776                           TS       DSPCOUNT                              #  SET DSPCOUNT TO LEFT MOST DSP NUMBER
000778: 40,2571           00001                           TC       L                                     #  OF REG. JUST BLANKED
000779:
000780: 40,2572           00016        SINBLANK           OCT      16                                    #  DEC 14
000781: 40,2573           00005                           OCT      5
000782: 40,2574           00004                           OCT      4
000783: 40,2575           00015        DOUBLK             OCT      15                                    #  DEC 13
000784: 40,2576           00011                           OCT      11                                    #  DEC 9
000785: 40,2577           00003                           OCT      3
000786:
000787: 40,2600           77774        BRNCHCON           OCT      77774
000788:
000789:                                                                                                  #  2BLANK BLANKS TWO CHAR. PLACE DSP NUMBER OF LEFT CHAR OF THE PAIR INTO
000790:                                                                                                  #  DSPCOUNT.  THIS NUMBER IS LEFT IN DSPCOUNT
000791:
000792: 40,2601           30776        2BLANK             CA       DSPCOUNT
000793: 40,2602           54021                           TS       SR
000794: 40,2603           42614                           CS       BLANKCON
000795: 40,2604           00004                           INHINT
000796: 40,2605           50021                           INDEX    SR
000797: 40,2606           57022                           XCH      DSPTAB
000798: 40,2607           00006                           EXTEND
000799: 40,2610           62612                           BZMF     +2                                    #  IF OLD CONTENTS -, NOUT OK
000800: 40,2611           25015                           INCR     NOUT                                  #  IF OLD CONTENTS +, +1 TO NOUT
000801: 40,2612           00003                           RELINT                                         #  IF -, NOUT OK
000802: 40,2613           00002                           TC       Q
000803: 40,2614           04000        BLANKCON           OCT      4000
000804:


000806:                                                                                                  #  ENTER PASS 0 IS THE EXECUTE FUNCTION.  HIGHER ORDER ENTERS ARE TO LOAD
000807:                                                                                                  #  DATA.  THE SIGN OF REQRET DETERMINES THE PASS, + FOR PASS 0, - FOR HIGHER
000808:                                                                                                  #  PASSES.
000809:
000810:                                                                                                  #  MACHINE CADR TO BE SPECIFIED (MCTBS) NOUNS DESIRE AN ECADR TO BE LOADED
000811:                                                                                                  #  WHEN USED WITH LOAD VERBS, MONITOR VERBS, OR DISPLAY VERBS (EXCEPT
000812:                                                                                                  #  VERB = FIXED MEMORY DISPLAY, WHICH REQUIRES AN FCADR).
000813:
000814: 41,2000                                           BANK     41
000815: 41,2000                                           SETLOC   PINBALL2
000816: 41,2000                                           BANK
000817:
000818: 41,2000                                           COUNT*   $$/PIN
000819: 41,2000           03557        NVSUBB             TC       NVSUB1                                #  STANDARD LEAD INS.  DONT MOVE.
000820: 41,2001           03020        LOADLV1            TC       LOADLV
000821:
000822:                                                                                                  #  END OF STANDARD LEAD INS.
000823:
000824: 41,2002           34755        ENTER              CAF      ZERO
000825: 41,2003           55014                           TS       CLPASS
000826: 41,2004           34217                           CAF      ENDINST
000827: 41,2005           54136                           TS       ENTRET
000828: 41,2006           11012                           CCS      REQRET
000829: 41,2007           02035                           TC       ENTPAS0                               #  IF +, PASS 0
000830: 41,2010           02035                           TC       ENTPAS0                               #  IF +, PASS 0
000831: 41,2011           02012                           TC       +1                                    #  IF -, NOT PASS 0
000832: 41,2012           32033        ENTPASHI           CAF      MMADREF
000833: 41,2013           61012                           AD       REQRET                                #  IF L/ 2 CHAR IN FOR MM CODE, ALARM
000834: 41,2014           00006                           EXTEND                                         #  AND RECYCLE(DECIDE AT MMCHANG+1).
000835: 41,2015           12027                           BZF      ACCEPTWD
000836: 41,2016           36250                           CAF      THREE                                 #  IF DEC, ALARM IF L/ 5 CHAR IN FOR DATA,
000837: 41,2017           70777                           MASK     DECBRNCH                              #  BUT LEAVE REQRET - AND FLASH ON, SO
000838: 41,2020           10000                           CCS      A                                     #  OPERATOR CAN SUPPLY MISSING NUMERICAL
000839: 41,2021           02023                           TC       +2                                    #  CHARACTERS AND CONTINUE.
000840: 41,2022           02027                           TC       ACCEPTWD                              #  OCTAL.  ANY NUMBER OF CHAR OK.
000841: 41,2023           10776                           CCS      DSPCOUNT
000842: 41,2024           02353                           TC       GODSPALM                              #  LESS THAN 5 CHAR DEC(DSPCOUNT IS +)
000843: 41,2025           02353                           TC       GODSPALM                              #  LESS THAN 5 CHAR DEC(DSPCOUNT IS +)
000844: 41,2026           02027                           TC       +1                                    #  5 CHAR IN (DSPCOUNT IS -)
000845: 41,2027           41012        ACCEPTWD           CS       REQRET                                #  5 CHAR IN (DSPCOUNT IS -)
000846: 41,2030           55012                           TS       REQRET                                #  SET REQRET +.
000847: 41,2031           04433                           TC       FLASHOFF
000848: 41,2032           01012                           TC       REQRET
000849:
000850: 41,2033     0136               ENTEXIT            =        ENTRET
000851:
000852: 41,2033           03444        MMADREF            ADRES    MMCHANG    +1                         #  ASSUMES TC REQMM AT MMCHANG.
000853:


000855: 41,2034           00034        LOWVERB            DEC      28         B-14                       #  LOWER VERB THAT AVOIDS NOUN TEST.
000856:
000857: 41,2035           34755        ENTPAS0            CAF      ZERO                                  #  NOUN VERB SUB ENTERS HERE
000858: 41,2036           54777                           TS       DECBRNCH
000859: 41,2037           44360                           CS       VD1                                   #  BLOCK FURTHER NUM CHAR, SO THAT STRAY
000860: 41,2040           54776                           TS       DSPCOUNT                              #  CHAR DO NOT GET INTO VERB OR NOUN LTS.
000861: 41,2041           41000        TESTVB             CS       VERBREG                               #  IF VERB IS G/E LOWVB, SKIP NOUN TEST.
000862: 41,2042           55040                           TS       VERBSAVE                              #  SAVE VERB FOR POSSIBLE RECYCLE.
000863: 41,2043           62034                           AD       LOWVERB                               #  LOWVERB - VB
000864: 41,2044           00006                           EXTEND
000865: 41,2045           62133                           BZMF     VERBFAN                               #  VERB G/ E LOWVERB
000866: 41,2046           00006        TESTNN             EXTEND                                         #  VERB L/ LOWVERB
000867: 41,2047           32114                           DCA      LODNNLOC                              #  SWITCH BANKS TO NOUN TABLE READING
000868: 41,2050           52006                           DXCH     Z                                     #  ROUTINE.
000869: 41,2051           50140                           INDEX    MIXBR
000870: 41,2052           02052                           TC       +0
000871: 41,2053           02055                           TC       +2                                    #  NORMAL
000872: 41,2054           02221                           TC       MIXNOUN                               #  MIXED
000873: 41,2055           10146                           CCS      NNADTEM                               #  NORMAL
000874: 41,2056           02131                           TC       VERBFAN    -2                         #        NORMAL  IF +
000875: 41,2057           02353                           TC       GODSPALM                              #  NOT IN USE    IF +0
000876: 41,2060           02064                           TC       REQADD                                #  SPECIFY MACHINE CADR IF -
000877: 41,2061           25016                           INCR     NOUNCADR                              #  AUGMENT MACHINE CADR IF -0
000878: 41,2062           04311                           TC       SETNADD                               #  ECADR FROM NOUNCADR. SETS EB, NOUNADD.
000879: 41,2063           02120                           TC       INTMCTBS   +2
000880: 41,2064           34735        REQADD             CAF      BIT15                                 #  SET CLPASS FOR PASS 0 ONLY
000881: 41,2065           55014                           TS       CLPASS
000882: 41,2066           44217                           CS       ENDINST                               #  TEST IF REACHED HERE FROM INTERNAL OR
000883: 41,2067           60136                           AD       ENTEXIT                               #        FROM EXTERNAL
000884: 41,2070           00006                           EXTEND
000885: 41,2071           12073                           BZF      +2                                    #  EXTERNAL MACH CADR TO BE SPECIFIED
000886: 41,2072           02116                           TC       INTMCTBS
000887: 41,2073           02311                           TC       REQDATZ                               #  EXTERNAL MACH CADR TO BE SPECIFIED
000888: 41,2074           10777                           CCS      DECBRNCH                              #  ALARM AND RECYCLE IF DECIMAL USED
000889: 41,2075           04145                           TC       ALMCYCLE                              #  FOR MCTBS.
000890: 41,2076           44360                           CS       VD1                                   #  OCTAL USED OK
000891: 41,2077           54776                           TS       DSPCOUNT                              #  BLOCK NUM CHAR IN
000892: 41,2100           11041                           CCS      CADRSTOR
000893: 41,2101           02104                           TC       +3                                    #  EXTERNAL MCTBS DISPLAY WILL LEAVE FLASH
000894: 41,2102           02105                           TC       USEADD                                #  ON IF ENDIDLE NOT = +0.
000895: 41,2103           02104                           TC       +1
000896: 41,2104           04427                           TC       FLASHON
000897: 41,2105           57004        USEADD             XCH      ZREG
000898: 41,2106           04303                           TC       SETNCADR                              #  ECADR INTO NOUNCADR.  SET EB, NOUNADD.
000899: 41,2107           00006                           EXTEND
000900: 41,2110           32114                           DCA      LODNNLOC                              #  SWITCH BANKS TO NOUN TABLE READING
000901: 41,2111           52006                           DXCH     Z                                     #  ROUTINE.
000902: 41,2112           02133                           TC       VERBFAN
000903:
000904: 41,2113     0776                                  EBANK=   DSPCOUNT


000906: 41,2113           02103 64101  LODNNLOC           2CADR    LODNNTAB
000907:
000908: 41,2115           77772        NEG5               OCT      77772
000909:
000910: 41,2116           30156        INTMCTBS           CA       MPAC       +2                         #  INTERNAL MACH CADR TO BE SPECIFIED.
000911: 41,2117           04303                           TC       SETNCADR                              #  ECADR INTO NOUNCADR.  SET EB, NOUNADD.
000912: 41,2120           44756                           CS       FIVE                                  #  NVSUB CALL LEFT CADR IN MPAC+2 FOR MACH
000913: 41,2121           61000                           AD       VERBREG                               #  CADR TO BE SPECIFIED.
000914: 41,2122           00006                           EXTEND
000915: 41,2123           12133                           BZF      VERBFAN                               #  DONT DISPLAY CADR IF VB = 05.
000916: 41,2124           34321                           CAF      R3D1                                  #  VB NOT = 05.  DISPLAY CADR.
000917: 41,2125           54776                           TS       DSPCOUNT
000918: 41,2126           31016                           CA       NOUNCADR
000919: 41,2127           03410                           TC       DSPOCTWD
000920: 41,2130           02133                           TC       VERBFAN
000921:
000922: 41,2131           64753                           AD       ONE
000923: 41,2132           04303                           TC       SETNCADR                              #  ECADR INTO NOUNCADR.  SETS EB, NOUNADD.
000924: 41,2133           42145        VERBFAN            CS       LST2CON
000925: 41,2134           61000                           AD       VERBREG                               #  VERB - LST2CON
000926: 41,2135           10000                           CCS      A
000927: 41,2136           64753                           AD       ONE                                   #  VERB G/ LST2CON
000928: 41,2137           02141                           TC       +2
000929: 41,2140           02146                           TC       VBFANDIR                              #  VERB L/ LST2CON
000930: 41,2141           54154                           TS       MPAC
000931: 41,2142           04457                           TC       RELDSP                                #  RELEASE DISPLAY SYST
000932: 41,2143           04635                           TC       POSTJUMP                              #  GO TO GOEXTVB WITH VB-40 IN MPAC.
000933: 41,2144           66000                           CADR     GOEXTVB
000934: 41,2145           00050        LST2CON            DEC      40         B-14                       #  FIRST LIST2 VERB (EXTENDED VERB)
000935:
000936: 41,2146           51000        VBFANDIR           INDEX    VERBREG
000937: 41,2147           32151                           CAF      VERBTAB
000938: 41,2150           04640                           TC       BANKJUMP
000939:
000940: 41,2151           62353        VERBTAB            CADR     GODSPALM                              #  VB00 ILLEGAL
000941: 41,2152           62367                           CADR     DSPA                                  #  VB01 DISPLAY OCT COMP 1 (R1)
000942: 41,2153           62375                           CADR     DSPB                                  #  VB02 DISPLAY OCT COMP 2 (R1)
000943: 41,2154           62402                           CADR     DSPC                                  #  VB03 DISPLAY OCT COMP 3 (R1)
000944: 41,2155           62362                           CADR     DSPAB                                 #  VB04 DISPLAY OCT COMP 1,2 (R1,R2)
000945: 41,2156           62355                           CADR     DSPABC                                #  VB05 DISPLAY OCT COMP 1,2,3 (R1,R2,R3)
000946: 41,2157           62525                           CADR     DECDSP                                #  VB06 DECIMAL DISPLAY
000947: 41,2160           61025                           CADR     DSPDPDEC                              #  VB07 DP DECIMAL DISPLAY (R1,R2)
000948: 41,2161           62353                           CADR     GODSPALM                              #  VB08 SPARE
000949: 41,2162           62353                           CADR     GODSPALM                              #  VB09 SPARE
000950: 41,2163           61454                           CADR     DSPALARM                              #  VB10 SPARE
000951: 41,2164           63255                           CADR     MONITOR                               #  VB11 MONITOR OCT COMP 1 (R1)
000952: 41,2165           63255                           CADR     MONITOR                               #  VB12 MONITOR OCT COMP 2 (R1)
000953: 41,2166           63255                           CADR     MONITOR                               #  VB13 MONITOR OCT COMP 3 (R1)
000954: 41,2167           63255                           CADR     MONITOR                               #  VB14 MONITOR OCT COMP 1,2 (R1,R2)


000956: 41,2170           63255                           CADR     MONITOR                               #  VB15 MONITOR OCT COMP 1,2,3 (R1,R2,R3)
000957: 41,2171           63255                           CADR     MONITOR                               #  VB16 MONITOR DECIMAL
000958: 41,2172           63255                           CADR     MONITOR                               #  VB17 MONITOR DP DEC (R1,R2)
000959: 41,2173           62353                           CADR     GODSPALM                              #  VB18 SPARE
000960: 41,2174           62353                           CADR     GODSPALM                              #  VB19 SPARE
000961: 41,2175           62353                           CADR     GODSPALM                              #  VB20 SPARE
000962: 41,2176           62755                           CADR     ALOAD                                 #  VB21 LOAD COMP 1 (R1)
000963: 41,2177           62766                           CADR     BLOAD                                 #  VB22 LOAD COMP 2 (R2)
000964: 41,2200           63003                           CADR     CLOAD                                 #  VB23 LOAD COMP 3 (R3)
000965: 41,2201           62726                           CADR     ABLOAD                                #  VB24 LOAD COMP 1,2 (R1,R2)
000966: 41,2202           62622                           CADR     ABCLOAD                               #  VB25 LOAD COMP 1,2,3 (R1,R2,R3)
000967: 41,2203           62353                           CADR     GODSPALM                              #  VB26 SPARE
000968: 41,2204           63400                           CADR     DSPFMEM                               #  VB27 FIXED MEMORY DISPLAY
000969:                                                                                                  #  THE FOLLOWING VERBS MAKE NO NOUN TEST
000970: 41,2205           62353                           CADR     GODSPALM                              #  VB28 SPARE
000971: 41,2206           62353                           CADR     GODSPALM                              #  VB29 SPARE
000972: 41,2207           63501        REQEXLQC           CADR     VBRQEXEC                              #  VB30 REQUEST EXECUTIVE
000973: 41,2210           63525                           CADR     VBRQWAIT                              #  VB31 REQUEST WAITLIST
000974: 41,2211           61521                           CADR     VBRESEQ                               #  VB32 RESEQUENCE
000975: 41,2212           61476                           CADR     VBPROC                                #  VB33 PROCEED WITHOUT DATA
000976: 41,2213           61504                           CADR     VBTERM                                #  VB34 TERMINATE CURRENT TEST OR LOAD REQ
000977: 41,2214           63626                           CADR     VBTSTLTS                              #  VB35 TEST LIGHTS
000978: 41,2215           12447                           CADR     SLAP1                                 #  VB36 FRESH START
000979: 41,2216           63443                           CADR     MMCHANG                               #  VB37 CHANGE MAJOR MODE
000980: 41,2217           62353                           CADR     GODSPALM                              #  VB38 SPARE
000981: 41,2220           62353                           CADR     GODSPALM                              #  VB39 SPARE
000982:
000983:                                                                                                  #  THE LIST2 VERBFAN IS LOCATED IN THE EXTENDED VERB BANK.


000985:                                                                                                  #  NNADTAB CONTAINS A RELATIVE ADDRESS, IDADDREL (IN LOW 10 BITS), REFERRING
000986:                                                                                                  #  TO WHERE 3 CONSECUTIVE ADDRESSES ARE STORED (IN IDADDTAB).
000987:                                                                                                  #  MIXNOUN GETS DATA AND STORES IN MIXTEMP,+1,+2.  IT SETS NOUNADD FOR
000988:                                                                                                  #  MIXTEMP.
000989:
000990: 41,2221           10146        MIXNOUN            CCS      NNADTEM
000991: 41,2222           02226                           TC       +4                                    #  + IN USE
000992: 41,2223           02353                           TC       GODSPALM                              #  +0 NOT IN USE
000993: 41,2224           02226                           TC       +2                                    #  - IN USE
000994: 41,2225           02226                           TC       +1                                    #  -0 IN USE
000995: 41,2226           46245                           CS       SIX
000996: 41,2227           61000                           AD       VERBREG
000997: 41,2230           00006                           EXTEND
000998: 41,2231           62233                           BZMF     +2                                    #  VERB L/E 6
000999: 41,2232           02133                           TC       VERBFAN                               #  AVOID MIXNOUN SWAP IF VB NOT = DISPLAY
001000: 41,2233           34752                           CAF      TWO
001001: 41,2234           54117        MIXNN1             TS       DECOUNT
001002: 41,2235           62260                           AD       MIXAD
001003: 41,2236           54145                           TS       NOUNADD                               #  SET NOUNADD TO MIXTEMP +K
001004: 41,2237           50117                           INDEX    DECOUNT                               #  GET IDADDTAB ENTRY FOR COMPONENT K
001005: 41,2240           30150                           CA       IDAD1TEM                              #  OF NOUN.
001006: 41,2241           54122                           TS       NOUNTEM
001007:                                                                                                  #  TEST FOR DP (FOR OCT DISPLAY).  IF SO, GET
001008:                                                                                                  #        MINOR PART ONLY.
001009: 41,2242           03057                           TC       SFRUTMIX                              #  GET SF ROUT NUMBER IN A
001010: 41,2243           02261                           TC       DPTEST
001011: 41,2244           02246                           TC       MIXNN2                                #  NO DP
001012: 41,2245           24122                           INCR     NOUNTEM                               #  DP GET MINOR PART
001013: 41,2246           30122        MIXNN2             CA       NOUNTEM
001014: 41,2247           74356                           MASK     LOW11                                 #  ESUBK (NO DP) OR (ESUBK)+1      FOR DP
001015: 41,2250           04313                           TC       SETEBANK                              #  SET EBANK, LEAVE EADRES IN A.
001016: 41,2251           50000                           INDEX    A                                     #  PICK UP C(ESUBK) NOT DP
001017: 41,2252           30000                           CA       0                                     #  OR C((ESUBK)+1) FOR DP MINOR PART
001018: 41,2253           50145                           INDEX    NOUNADD
001019: 41,2254           56000                           XCH      0                                     #  STORE IN MIXTEM + K
001020: 41,2255           10117                           CCS      DECOUNT
001021: 41,2256           02234                           TC       MIXNN1
001022: 41,2257           02133                           TC       VERBFAN
001023:
001024: 41,2260           00125        MIXAD              TC       MIXTEMP
001025:
001026:                                                                                                  #  DPTEST        ENTER WITH SF ROUT NUMBER IN A.
001027:                                                                                                  #                RETURNS TO L+1 IF NO DP.
001028:                                                                                                  #                RETURNS TO L+2 IF DP.
001029:
001030: 41,2261           50000        DPTEST             INDEX    A
001031: 41,2262           12263                           TCF      +1
001032: 41,2263           00002                           TC       Q                                     #  OCTAL ONLY NO DP
001033: 41,2264           00002                           TC       Q                                     #  FRACT NO DP


001035: 41,2265           00002                           TC       Q                                     #  DEG NO DP
001036: 41,2266           00002                           TC       Q                                     #  ARITH NO DP
001037: 41,2267           12303                           TCF      DPTEST1                               #  DP1OUT
001038: 41,2270           12303                           TCF      DPTEST1                               #  DP2OUT
001039: 41,2271           00002                           TC       Q                                     #  LRPOSOUT NO DP (DATA IN CHANNEL 33)
001040: 41,2272           12303                           TCF      DPTEST1                               #  DP3OUT
001041: 41,2273           00002                           TC       Q                                     #  HMS NO DP
001042: 41,2274           00002                           TC       Q                                     #  M/S NO DP
001043: 41,2275           12303                           TCF      DPTEST1                               #  DP4OUT
001044: 41,2276           00002                           TC       Q                                     #  ARITH1 NO DP
001045: 41,2277           00002                           TC       Q                                     #  2INTOUT NO DP TO GET HI PART IN MPAC
001046: 41,2300           00002                           TC       Q                                     #  360-CDU NO DP
001047: 41,2301           00002                           TC       Q                                     #  RRANGOUT NO DP
001048: 41,2302           00002                           TC       Q                                     #  RRDOTOUT NO DP
001049: 41,2303           50002        DPTEST1            INDEX    Q
001050: 41,2304           00001                           TC       1                                     #  RETURN TO L+2
001051:
001052: 41,2305           34317        REQDATX            CAF      R1D1
001053: 41,2306           12312                           TCF      REQCOM
001054: 41,2307           34320        REQDATY            CAF      R2D1
001055: 41,2310           12312                           TCF      REQCOM
001056: 41,2311           34321        REQDATZ            CAF      R3D1
001057: 41,2312           54776        REQCOM             TS       DSPCOUNT
001058: 41,2313           40002                           CS       Q
001059: 41,2314           55012                           TS       REQRET
001060: 41,2315           04616                           TC       BANKCALL
001061: 41,2316           60536                           CADR     5BLANK
001062: 41,2317           04427                           TC       FLASHON
001063: 41,2320           00136        ENDRQDAT           TC       ENTEXIT
001064:
001065: 41,2321           55001                           TS       NOUNREG
001066: 41,2322           56002        UPDATNN            XCH      Q
001067: 41,2323           54117                           TS       UPDATRET
001068: 41,2324           00006                           EXTEND
001069: 41,2325           32114                           DCA      LODNNLOC                              #  SWITCH BANKS TO NOUN TABLE READING
001070: 41,2326           52006                           DXCH     Z                                     #  ROUTINE.
001071: 41,2327           10146                           CCS      NNADTEM
001072: 41,2330           64753                           AD       ONE                                   #  NORMAL
001073: 41,2331           12334                           TCF      PUTADD
001074: 41,2332           12335                           TCF      PUTADD     +1                         #  MCTBS         DONT CHANGE NOUNADD
001075: 41,2333           12335                           TCF      PUTADD     +1                         #  MCTBI         DONT CHANGE NOUNADD
001076: 41,2334           04303        PUTADD             TC       SETNCADR                              #  ECADR INTO NOUNCADR.  SETS EB, NOUNADD.
001077: 41,2335           34361                           CAF      ND1
001078: 41,2336           54776                           TS       DSPCOUNT
001079: 41,2337           31001                           CA       NOUNREG
001080: 41,2340           12347                           TCF      UPDAT1
001081:
001082: 41,2341           55000                           TS       VERBREG
001083: 41,2342           56002        UPDATVB            XCH      Q


001085: 41,2343           54117                           TS       UPDATRET
001086: 41,2344           34360                           CAF      VD1
001087: 41,2345           54776                           TS       DSPCOUNT
001088: 41,2346           31000                           CA       VERBREG
001089: 41,2347           04635        UPDAT1             TC       POSTJUMP                              #  CANT USE SWCALL TO GO TO DSPDECVN,SINCE
001090: 41,2350           61353                           CADR     GOVNUPDT                              #  UPDATVB CAN ITSELF BE CALLED BY SWCALL.
001091: 41,2351           00117                           TC       UPDATRET
001092:
001093: 41,2352           04145        GOALMCYC           TC       ALMCYCLE                              #  NEEDED BECAUSE BANKJUMP CANT HANDLE F/F.
001094:
001095: 41,2353           04635        GODSPALM           TC       POSTJUMP
001096: 41,2354           61454                           CADR     DSPALARM
001097:


001099:                                                                                                  #  NOUN TABLES
001100:
001101:                                                                                                  #  NOUN CODE L/40, NORMAL NOUN CASE.  NOUN CODE G/E 40, MIXED NOUN CASE.
001102:                                                                                                  #  FOR NORMAL CASE, NNADTAB CONTAINS ONE ECADR FOR EACH NOUN.
001103:                                                                                                  #  +0 INDICATES NOUN NOT USED.  - ENTRY INDICATES MACHINE CADR (E OR F) TO
001104:                                                                                                  #  BE SPECIFIED.  -1 INDICATES CHANNEL TO BE SPECIFIED.  -0 INDICATES AUGMENT
001105:                                                                                                  #  OF LAST MACHINE CADR SUPPLIED.
001106:
001107:                                                                                                  #  FOR MIXED CASE, NNADTAB CONTAINS ONE INDIRECT ADDRESS (IDADDREL) IN LOW
001108:                                                                                                  #  10 BITS, AND THE COMPONENT CODE NUMBER IN THE HIGH 5 BITS.
001109:
001110:                                                                                                  #  NNTYPTAB IS A PACKED TABLE OF THE FORM MMMMMNNNNNPPPPP.
001111:
001112:                                                                                                  #  FOR THE NORMAL CASE,  M-S ARE THE COMPONENT CODE NUMBER.
001113:                                                                                                  #                        N-S ARE THE SF ROUTINE CODE NUMBER.
001114:                                                                                                  #                        P-S ARE THE SF CONSTANT CODE NUMBER.
001115:
001116:                                                                                                  #  MIXED CASE,           M-S ARE THE SF CONSTANT3 CODE NUMBER    3 COMPONENT CASE
001117:                                                                                                  #                        N-S ARE THE SF CONSTANT2 CODE NUMBER
001118:                                                                                                  #                        P-S ARE THE SF CONSTANT1 CODE NUMBER
001119:                                                                                                  #                        N-S ARE THE SF CONSTANT2 CODE NUMBER    2 COMPONENT CASE
001120:                                                                                                  #                        P-S ARE THE SF CONSTANT1 CODE NUMBER
001121:                                                                                                  #                        P-S ARE THE SF CONSTANT1 CODE NUMBER    1 COMPONENT CASE
001122:
001123:                                                                                                  #  THERE IS ALSO AN INDIRECT ADDRESS TABLE (IDADDTAB) FOR MIXED CASE ONLY.
001124:                                                                                                  #  EACH ENTRY CONTAINS ONE ECADR.  IDADDREL IS THE RELATIVE ADDRESS OF
001125:                                                                                                  #  THE FIRST OF THESE ENTRIES.
001126:                                                                                                  #  THERE IS ONE ENTRY IN THIS TABLE FOR EACH COMPONENT OF A MIXED NOUN
001127:                                                                                                  #  THEY ARE LISTED IN ORDER OF ASCENDING K.
001128:
001129:                                                                                                  #  THERE IS ALSO A SCALE FACTOR ROUTINE NUMBER TABLE (RUTMXTAB) FOR MIXED
001130:                                                                                                  #  CASE ONLY.  THERE IS ONE ENTRY PER MIXED NOUN.  THE FORM IS,
001131:
001132:                                                                                                  #        QQQQQRRRRRSSSSS
001133:
001134:                                                                                                  #  Q-S ARE THE SF ROUTINE 3 CODE NUMBER          3 COMPONENT CASE
001135:                                                                                                  #  R-S ARE THE SF ROUTINE 2 CODE NUMBER
001136:                                                                                                  #  S-S ARE THE SF ROUTINE 1 CODE NUMBER
001137:                                                                                                  #  R-S ARE THE SF ROUTINE 2 CODE NUMBER          2 COMPONENT CASE
001138:                                                                                                  #  S-S ARE THE SF ROUTINE 1 CODE NUMBER
001139:
001140:                                                                                                  #  IN OCTAL DISPLAY AND LOAD (OCT OR DEC) VERBS, EXCLUDE USE OF VERBS WHOSE
001141:                                                                                                  #  COMPONENT NUMBER IS GREATER THAN THE NUMBER OF COMPONENTS IN NOUN.
001142:                                                                                                  #  (ALL MACHINE ADDRESS TO BE SPECIFIED NOUNS ARE 3 COMPONENT.)
001143:
001144:                                                                                                  #  IN MULTI-COMPONENT LOAD VERBS, NO MIXING OF OCTAL AND DECIMAL DATA
001145:                                                                                                  #  COMPONENT WORDS IS ALLOWED.  ALARM IF VIOLATION.
001146:
001147:                                                                                                  #  IN DECIMAL LOADS OF DATA, 5 NUMERICAL CHARACTERS MUST BE KEYED IN
001148:                                                                                                  #  BEFORE EACH ENTER.  IF NOT, ALARM.
001149:


001151:                                                                                                  #  DISPLAY VERBS
001152:
001153: 41,2355           44752        DSPABC             CS       TWO
001154: 41,2356           02426                           TC       COMPTEST
001155: 41,2357           50145                           INDEX    NOUNADD
001156: 41,2360           40002                           CS       2
001157: 41,2361           56132                           XCH      BUF        +2
001158: 41,2362           44753        DSPAB              CS       ONE
001159: 41,2363           02426                           TC       COMPTEST
001160: 41,2364           50145                           INDEX    NOUNADD
001161: 41,2365           40001                           CS       1
001162: 41,2366           56131                           XCH      BUF        +1
001163: 41,2367           02445        DSPA               TC       DECTEST
001164: 41,2370           02470                           TC       TSTFORDP
001165: 41,2371           50145                           INDEX    NOUNADD
001166: 41,2372           40000                           CS       0
001167: 41,2373           56130        DSPCOM1            XCH      BUF
001168: 41,2374           02407                           TC       DSPCOM2
001169: 41,2375           44753        DSPB               CS       ONE
001170: 41,2376           02441                           TC       DCOMPTST
001171: 41,2377           50145                           INDEX    NOUNADD
001172: 41,2400           40001                           CS       1
001173: 41,2401           02373                           TC       DSPCOM1
001174: 41,2402           44752        DSPC               CS       TWO
001175: 41,2403           02441                           TC       DCOMPTST
001176: 41,2404           50145                           INDEX    NOUNADD
001177: 41,2405           40002                           CS       2
001178: 41,2406           02373                           TC       DSPCOM1
001179: 41,2407           44752        DSPCOM2            CS       TWO                                   #  A B C AB ABC
001180: 41,2410           61000                           AD       VERBREG                               #  -1 -0 +1 +2 +3   IN A
001181: 41,2411           10000                           CCS      A                                     #  +0 +0 +0 +1 +2    IN A AFTER CCS
001182: 41,2412           02415                           TC       DSPCOM3
001183: 41,2413           00136                           TC       ENTEXIT
001184: 41,2414           02415                           TC       +1
001185: 41,2415           54122        DSPCOM3            TS       DISTEM                                #  +0,+1,+2 INTO DISTEM
001186: 41,2416           50000                           INDEX    A
001187: 41,2417           34317                           CAF      R1D1
001188: 41,2420           54776                           TS       DSPCOUNT
001189: 41,2421           50122                           INDEX    DISTEM
001190: 41,2422           40130                           CS       BUF
001191: 41,2423           03410                           TC       DSPOCTWD
001192: 41,2424           56122                           XCH      DISTEM
001193: 41,2425           02411                           TC       DSPCOM2    +2
001194:
001195:                                                                                                  #  COMPTEST ALARMS IF COMPONENT NUMBER OF VERB (LOAD OR OCT DISPLAY) IS
001196:                                                                                                  #  GREATER THAN THE HIGHEST COMPONENT NUMBER OF NOUN.
001197:
001198: 41,2426           54123        COMPTEST           TS       SFTEMP1                               #  - VERB COMP
001199: 41,2427           22002                           LXCH     Q
001200: 41,2430           02517        COMPTST1           TC       GETCOMP
001201: 41,2431           04331                           TC       LEFT5
001202: 41,2432           76250                           MASK     THREE                                 #  NOUN COMP


001204: 41,2433           60123                           AD       SFTEMP1                               #  NOUN COMP - VERB COMP
001205: 41,2434           10000                           CCS      A
001206: 41,2435           00001                           TC       L                                     #  NOUN COMP G/ VERB COMP
001207: 41,2436           05675                           TC       CCSHOLE
001208: 41,2437           02353                           TC       GODSPALM                              #  NOUN COMP L/ VERB COMP
001209: 41,2440           00001        NDCMPTST           TC       L                                     #  NOUN COMP = VERB COMP
001210:
001211:                                                                                                  #  DCOMPTST ALARMS IF DECIMAL ONLY BIT (BIT4 OF COMP CODE NUMBER) = 1.
001212:                                                                                                  #  IF NOT, IT PERFORMS REGULAR COMPTEST.
001213:
001214: 41,2441           54123        DCOMPTST           TS       SFTEMP1                               #  - VERB COMP
001215: 41,2442           22002                           LXCH     Q
001216: 41,2443           02445                           TC       DECTEST
001217: 41,2444           02430                           TC       COMPTST1
001218:
001219: 41,2445           00006        DECTEST            EXTEND                                         #  ALARMS IF DEC ONLY BIT = 1 (BIT4 OF COMP
001220: 41,2446           22156                           QXCH     MPAC       +2                         #  CODE NUMBER).  RETURNS IF NOT.
001221: 41,2447           02517                           TC       GETCOMP
001222: 41,2450           74736                           MASK     BIT14
001223: 41,2451           10000                           CCS      A
001224: 41,2452           02353                           TC       GODSPALM
001225: 41,2453           00156                           TC       MPAC       +2
001226:
001227: 41,2454           22002        DCTSTCYC           LXCH     Q                                     #  ALARMS AND RECYCLES IF DEC ONLY BIT = 1
001228: 41,2455           02517                           TC       GETCOMP                               #  (BIT4 OF COMP CODE NUMBER). RETURNS
001229: 41,2456           74736                           MASK     BIT14                                 #  IF NOT.  USED BY LOAD VERBS.
001230: 41,2457           10000                           CCS      A
001231: 41,2460           04145                           TC       ALMCYCLE
001232: 41,2461           00001                           TC       L
001233:
001234:                                                                                                  #  NOUNTEST ALARMS IF NO-LOAD BIT (BIT5 OF COMP CODE NUMBER) = 1.
001235:                                                                                                  #  IF NOT, IT RETURNS.
001236:
001237: 41,2462           22002        NOUNTEST           LXCH     Q
001238: 41,2463           02517                           TC       GETCOMP
001239: 41,2464           10000                           CCS      A
001240: 41,2465           00001                           TC       L
001241: 41,2466           00001                           TC       L
001242: 41,2467           02353                           TC       GODSPALM
001243:
001244: 41,2470           22002        TSTFORDP           LXCH     Q                                     #  TEST FOR DP.  IF SO, GET MINOR PART ONLY.
001245: 41,2471           30146                           CA       NNADTEM
001246: 41,2472           64753                           AD       ONE                                   #  IF NNADTEM = -1, CHANNEL TO BE SPECIFIED
001247: 41,2473           00006                           EXTEND
001248: 41,2474           12506                           BZF      CHANDSP
001249: 41,2475           50140                           INDEX    MIXBR
001250: 41,2476           02476                           TC       +0
001251: 41,2477           02501                           TC       +2                                    #  NORMAL


001253: 41,2500           00001                           TC       L                                     #  MIXED CASE ALREADY HANDLED IN MIXNOUN
001254: 41,2501           03051                           TC       SFRUTNOR
001255: 41,2502           02261                           TC       DPTEST
001256: 41,2503           00001                           TC       L                                     #  NO DP
001257: 41,2504           24145                           INCR     NOUNADD                               #  DP    E+1 INTO NOUNADD FOR MINOR PART.
001258: 41,2505           00001                           TC       L
001259:
001260: 41,2506           31016        CHANDSP            CA       NOUNCADR
001261: 41,2507           75004                           MASK     LOW9
001262: 41,2510           00006                           EXTEND
001263: 41,2511           50000                           INDEX    A
001264: 41,2512           00000                           READ     0
001265: 41,2513           40000                           CS       A
001266: 41,2514           12373                           TCF      DSPCOM1
001267:
001268: 41,2515           00147        COMPICK            ADRES    NNTYPTEM
001269: 41,2516           00146                           ADRES    NNADTEM
001270:
001271: 41,2517           50140        GETCOMP            INDEX    MIXBR                                 #        NORMAL                          MIXED
001272: 41,2520           32514                           CAF      COMPICK    -1                         #        ADRES NNTYPTEM                  ADRES NNADTEM
001273: 41,2521           50000                           INDEX    A
001274: 41,2522           30000                           CA       0                                     #        C(NNTYPTEM)                     C(NNADTEM)
001275: 41,2523           74350                           MASK     HI5                                   #        GET HI5 OF NNTYPTAB (NORM)      OF NNADTAB (MIX)
001276: 41,2524           00002                           TC       Q
001277:
001278: 41,2525           02517        DECDSP             TC       GETCOMP
001279: 41,2526           04331                           TC       LEFT5
001280: 41,2527           76250                           MASK     THREE
001281: 41,2530           54117                           TS       DECOUNT                               #  COMP NUMBER INTO DECOUNT
001282: 41,2531           54122        DSPDCGET           TS       DECTEM                                #  PICKS UP DATA
001283: 41,2532           60145                           AD       NOUNADD                               #  DECTEM 1COMP +0, 2COMP +1, 3COMP +2
001284: 41,2533           50000                           INDEX    A
001285: 41,2534           40000                           CS       0
001286: 41,2535           50122                           INDEX    DECTEM
001287: 41,2536           57002                           XCH      XREG                                  #  CANT USE BUF SINCE DMP USES IT.
001288: 41,2537           10122                           CCS      DECTEM
001289: 41,2540           02531                           TC       DSPDCGET                              #  MORE TO GET
001290: 41,2541           34755        DSPDCPUT           CAF      ZERO                                  #  DISPLAYS DATA
001291: 41,2542           54155                           TS       MPAC       +1                         #  DECOUNT 1COMP +0, 2COMP +1, 3COMP +2
001292: 41,2543           54156                           TS       MPAC       +2
001293: 41,2544           50117                           INDEX    DECOUNT
001294: 41,2545           34317                           CAF      R1D1
001295: 41,2546           54776                           TS       DSPCOUNT
001296: 41,2547           50117                           INDEX    DECOUNT
001297: 41,2550           41002                           CS       XREG
001298: 41,2551           54154                           TS       MPAC
001299: 41,2552           03072                           TC       SFCONUM                               #  2X (SF CON NUMB) IN A


001301: 41,2553           54123                           TS       SFTEMP1
001302: 41,2554           00006                           EXTEND                                         #  SWITCH BANKS TO SF CONSTANT TABLE
001303: 41,2555           32567                           DCA      GTSFOUTL                              #        READING ROUTINE.
001304: 41,2556           52006                           DXCH     Z                                     #  LOADS SFTEMP1, SFTEMP2.
001305: 41,2557           50140                           INDEX    MIXBR
001306: 41,2560           02560                           TC       +0
001307: 41,2561           02564                           TC       DSPSFNOR
001308: 41,2562           03057                           TC       SFRUTMIX
001309: 41,2563           02577                           TC       DECDSP3
001310:
001311: 41,2564           03051        DSPSFNOR           TC       SFRUTNOR
001312: 41,2565           02577                           TC       DECDSP3
001313:
001314: 41,2566     0776                                  EBANK=   DSPCOUNT
001315: 41,2566           02141 64101  GTSFOUTL           2CADR    GTSFOUT
001316:
001317: 41,2570           04616        DSPDCEND           TC       BANKCALL                              #  ALL SFOUT ROUTINES END HERE
001318: 41,2571           61262                           CADR     DSPDECWD
001319: 41,2572           10117                           CCS      DECOUNT
001320: 41,2573           02575                           TC       +2
001321: 41,2574           00136                           TC       ENTEXIT
001322: 41,2575           54117                           TS       DECOUNT
001323: 41,2576           02541                           TC       DSPDCPUT                              #  MORE TO DISPLAY
001324:
001325: 41,2577           50000        DECDSP3            INDEX    A
001326: 41,2600           32602                           CAF      SFOUTABR
001327: 41,2601           04640                           TC       BANKJUMP
001328:
001329: 41,2602           61452        SFOUTABR           CADR     PREDSPAL                              #  ALARM IF DEC DISP WITH OCTAL ONLY NOUN
001330: 41,2603           62570                           CADR     DSPDCEND
001331: 41,2604           60615                           CADR     DEGOUTSF
001332: 41,2605           60733                           CADR     ARTOUTSF
001333: 41,2606           60744                           CADR     DP1OUTSF
001334: 41,2607           60751                           CADR     DP2OUTSF
001335: 41,2610           60635                           CADR     LRPOSOUT
001336: 41,2611           60753                           CADR     DP3OUTSF
001337: 41,2612           65230                           CADR     HMSOUT
001338: 41,2613           65303                           CADR     M/SOUT
001339: 41,2614           60751                           CADR     DP2OUTSF
001340: 41,2615           60740                           CADR     AROUT1SF
001341: 41,2616           60766                           CADR     2INTOUT
001342: 41,2617           60623                           CADR     360-CDUO
001343: 41,2620           60645                           CADR     RRANGOUT
001344: 41,2621           60662                           CADR     RRDOTOUT
001345: 41,2622                        ENDRTOUT           EQUALS
001346:


001348:                                                                                                  #  THE FOLLOWING IS ATYPICAL SF ROUTINE.  IT USES MPAC.  LEAVES RESU
001349:                                                                                                  #  LTS IN MPAC, MPAC+1.  ENDS WITH TC DSPDCEND
001350:
001351: 40,2615                                           SETLOC   BLANKCON   +1
001352:
001353: 40,2615                                           COUNT*   $$/PIN
001354:                                                                                                  #  DEGOUTSF SCALES BY .18 THE LOW 14 BITS OF ANGLE, ADDING .18 FOR
001355:                                                                                                  #  NUMBERS IN THE NEGATIVE (AGC) RANGE.
001356:
001357: 40,2615           34755        DEGOUTSF           CAF      ZERO
001358: 40,2616           54156                           TS       MPAC       +2                         #  SET INDEX FOR FULL SCALE
001359: 40,2617           02706                           TC       FIXRANGE
001360: 40,2620           02622                           TC       +2                                    #  NO AUGMENT NEEDED (SFTEMP1 AND 2 ARE 0)
001361: 40,2621           02701                           TC       SETAUG                                #  SET AUGMENTER ACCORDING TO C(MPAC +2)
001362: 40,2622           02717                           TC       DEGCOM
001363:
001364:                                                                                                  #  360-CDUO COMPUTES 360-CDU ANGLE IN MPAC, STORES RESULT IN MPAC AND
001365:                                                                                                  #  GOES TO DEGOUTSF.
001366:
001367: 40,2623           02625        360-CDUO           TC       360-CDU
001368: 40,2624           02615                           TC       DEGOUTSF
001369:
001370: 40,2625           30154        360-CDU            CA       MPAC
001371: 40,2626           74733                           MASK     POSMAX                                #  IF ANGLE IS 0 OR 180 DEGREES, DO NOTHING
001372: 40,2627           00006                           EXTEND
001373: 40,2630           12634                           BZF      360-CDUE
001374: 40,2631           40154                           CS       MPAC                                  #  COMPUTE 360 DEGREES MINUS ANGLE
001375: 40,2632           64753                           AD       ONE
001376: 40,2633           54154                           TS       MPAC
001377: 40,2634           00002        360-CDUE           TC       Q
001378:
001379:                                                                                                  #  LRPOSOUT DISPLAYS +0,1,2, OR 3 (WHOLE) FOR CHANNEL 33,BITS 7-6 = 11,10,
001380:                                                                                                  #  01,00 RESPECTIVELY.
001381:
001382: 40,2635           00006        LRPOSOUT           EXTEND
001383: 40,2636           00033                           READ     CHAN33
001384: 40,2637           00006                           EXTEND
001385: 40,2640           74742                           MP       BIT10                                 #  BITS 7-6 TO BITS 2-1
001386: 40,2641           40000                           COM
001387: 40,2642           76250                           MASK     THREE
001388: 40,2643           54154                           TS       MPAC
001389: 40,2644           02733                           TC       ARTOUTSF                              #  DISPLAY AS WHOLE
001390:
001391:                                                                                                  #  RRANGOUT AND RRDOTOUT CONVERT RR RANGE AND RANGE RATE FROM SP 15 BIT
001392:                                                                                                  #  MAGNITUDE TO DP AND THEN SCALE FOR DISPLAY.
001393:
001394: 40,2645           02671        RRANGOUT           TC       RRSPTODP                              #  CONVERT TO DP.
001395: 40,2646           40110                           CS       RADMODES                              #  BIT 3 OF FLAG12 = HI SCALE
001396: 40,2647           74751                           MASK     BIT3


001398: 40,2650           10000                           CCS      A
001399: 40,2651           02657                           TC       SCALELO                               #  DATA IS IN LO SCALE.
001400: 40,2652           52155                           DXCH     MPAC                                  #  DATA IS IN HI SCALE, MP BY 8.
001401: 40,2653           20001                           DAS      A
001402: 40,2654           20001                           DAS      A
001403: 40,2655           20001                           DAS      A
001404: 40,2656           52155                           DXCH     MPAC
001405: 40,2657           07106        SCALELO            TC       DMP                                   #  SCALE FOR DISPLAY,
001406: 40,2660           00123                           ADRES    SFTEMP1
001407: 40,2661           02745                           TC       L14/OUT                               #  AND GO TO ARITHDP1.
001408:
001409: 40,2662           02671        RRDOTOUT           TC       RRSPTODP                              #  CONVERT TO DP.
001410: 40,2663           00006                           EXTEND
001411: 40,2664           42670                           DCS      BIASRDOT                              #  SUBTRACT BIAS OF 17000 COUNTS.
001412: 40,2665           20155                           DAS      MPAC
001413: 40,2666           02657                           TC       SCALELO                               #  SCALE FOR DISPLAY.
001414: 40,2667           00001 01150  BIASRDOT           2DEC     17000      B-28
001415:
001416: 40,2671           34733        RRSPTODP           CAF      POSMAX                                #  CONVERT SP 15 BIT MAG TO DP.
001417: 40,2672           70154                           MASK     MPAC
001418: 40,2673           54155                           TS       MPAC       +1
001419: 40,2674           30154                           CA       MPAC
001420: 40,2675           60000                           DOUBLE
001421: 40,2676           74753                           MASK     BIT1
001422: 40,2677           54154                           TS       MPAC
001423: 40,2700           00002                           TC       Q
001424:
001425: 40,2701           00006        SETAUG             EXTEND                                         #  LOADS SFTEMP1 AND SFTEMP2 WITH THE
001426: 40,2702           50156                           INDEX    MPAC       +2                         #  DP AUGMENTER CONSTANT
001427: 40,2703           32730                           DCA      DEGTAB
001428: 40,2704           52124                           DXCH     SFTEMP1
001429: 40,2705           00002                           TC       Q
001430:
001431: 40,2706           10154        FIXRANGE           CCS      MPAC                                  #  IF MPAC IS + RETURN TO L+1
001432: 40,2707           00002                           TC       Q                                     #  IF MPAC IS - RETURN TO L+2 AFTER
001433: 40,2710           00002                           TC       Q                                     #  MASKING OUT THE SIGN BIT
001434: 40,2711           12712                           TCF      +1
001435: 40,2712           44735                           CS       BIT15
001436: 40,2713           70154                           MASK     MPAC
001437: 40,2714           54154                           TS       MPAC
001438: 40,2715           50002                           INDEX    Q
001439: 40,2716           00001                           TC       1
001440:
001441: 40,2717           00006        DEGCOM             EXTEND                                         #  LOADS MULTIPLIER, DOES SHORTMP, AND
001442: 40,2720           50156                           INDEX    MPAC       +2                         #  ADDS AUGMENTER.
001443: 40,2721           32730                           DCA      DEGTAB
001444: 40,2722           52155                           DXCH     MPAC                                  #  ADJUSTED ANGLE IN A
001445: 40,2723           07312                           TC       SHORTMP
001446: 40,2724           52124                           DXCH     SFTEMP1


001448: 40,2725           20155                           DAS      MPAC
001449: 40,2726           02736                           TC       SCOUTEND
001450:
001451: 40,2727           05605        DEGTAB             OCT      05605                                 #  HI PART OF    .18
001452: 40,2730           03656                           OCT      03656                                 #  LOW PART OF   .18
001453: 40,2731           16314                           OCT      16314                                 #  HI PART OF    .45
001454: 40,2732           31463                           OCT      31463                                 #  LO PART OF    .45
001455:
001456: 40,2733           52124        ARTOUTSF           DXCH     SFTEMP1                               #  ASSUMES POINT AT LEFT OF DP SFCON
001457: 40,2734           52155                           DXCH     MPAC
001458: 40,2735           04415                           TC       PRSHRTMP                              #  IF C(A) = -0, SHORTMP FAILS TO GIVE -0.
001459: 40,2736           04635        SCOUTEND           TC       POSTJUMP
001460: 40,2737           62570                           CADR     DSPDCEND
001461:
001462: 40,2740           52124        AROUT1SF           DXCH     SFTEMP1                               #  ASSUMES POINT BETWEEN HI AND LO PARTS OF
001463: 40,2741           52155                           DXCH     MPAC                                  #  DP SFCON.  SHIFTS RESULTS LEFT 14, BY
001464: 40,2742           04415                           TC       PRSHRTMP                              #  TAKING RESULTS FROM MPAC+1, MPAC+2.
001465: 40,2743           02745                           TC       L14/OUT
001466:
001467: 40,2744           02757        DP1OUTSF           TC       DPOUT                                 #  SCALES MPAC, MPAC +1 BY DP SCALE FACTOR
001468: 40,2745           56156        L14/OUT            XCH      MPAC       +2                         #  IN SFTEMP1, SFTEMP2.  THEN SCALE RESULT
001469: 40,2746           56155                           XCH      MPAC       +1                         #  BY B14.
001470: 40,2747           54154                           TS       MPAC
001471: 40,2750           02736                           TC       SCOUTEND
001472:
001473: 40,2751           02757        DP2OUTSF           TC       DPOUT                                 #  SCALES MPAC, MPAC +1 BY DP SCALE FACTOR
001474: 40,2752           02736                           TC       SCOUTEND
001475:
001476: 40,2753           02757        DP3OUTSF           TC       DPOUT                                 #  ASSUMES POINT BETWEEN BITS 7-8 OF HIGH
001477: 40,2754           36245                           CAF      SIX                                   #  LEFT BY 7, ROUNDS MPAC+2 INTO MPAC+1.
001478: 40,2755           03207                           TC       TPLEFTN                               #  SHIFT LEFT 7.
001479: 40,2756           02736                           TC       SCOUTEND
001480:
001481: 40,2757     0162               MPAC+6             =        MPAC       +6                         #  USE MPAC +6 INSTEAD OF OVFIND
001482:
001483: 40,2757           56002        DPOUT              XCH      Q
001484: 40,2760           54162                           TS       MPAC+6
001485: 40,2761           03003                           TC       READLO                                #  GET FRESH DATA FOR BOTH HI AND LO.
001486: 40,2762           07262                           TC       TPAGREE                               #  MAKE DP DATA AGREE
001487: 40,2763           07106                           TC       DMP
001488: 40,2764           00123                           ADRES    SFTEMP1
001489: 40,2765           00162                           TC       MPAC+6
001490:
001491:                                                                                                  #  THE FOLLOWING ROUTINE DISPLAYS TWO CONTIGUOUS SP POSITIVE INTEGERS
001492:                                                                                                  #  AS TWO POSITIVE DECIMAL INTEGERS IN RXD1-RXD2 AND RXD4-RXD5 (RXD3 IS
001493:                                                                                                  #  BLANKED).  THE INTEGER IN THE LOWER NUMBERED ADDRESS IS DISPLAYED IN


001495:                                                                                                  #  RXD1-RXD2.
001496:
001497: 40,2766           02536        2INTOUT            TC       5BLANK                                #  TO BLANK RXD3
001498: 40,2767           02413                           TC       +ON                                   #  TURN ON + SIGN
001499: 40,2770           30154                           CA       MPAC
001500: 40,2771           03342                           TC       DSPDECVN                              #  DISPLAY 1ST INTEGER (LIKE VERB AND NOUN)
001501: 40,2772           46250                           CS       THREE
001502: 40,2773           50117                           INDEX    DECOUNT
001503: 40,2774           64317                           AD       R1D1                                  #  RXD4
001504: 40,2775           54776                           TS       DSPCOUNT
001505: 40,2776           03003                           TC       READLO                                #  GET 2ND INTEGER
001506: 40,2777           30155                           CA       MPAC       +1
001507: 40,3000           03342                           TC       DSPDECVN                              #  DISPLAY 2ND INTEGER (LIKE VERB AND NOUN)
001508: 40,3001           04635                           TC       POSTJUMP
001509: 40,3002           62572                           CADR     DSPDCEND   +2
001510:
001511:                                                                                                  #  READLO PICKS UP FRESHDATA FOR BOTH HI AND LO AND LEAVES IT IN
001512:                                                                                                  #  MPAC, MPAC+1.  THIS IS NEEDED FOR TIME DISPLAY.  IT ZEROES MPAC+2, BUT
001513:                                                                                                  #  DOES NOT FORCE TPAGREE.
001514:
001515: 40,3003           56002        READLO             XCH      Q
001516: 40,3004           54144                           TS       TEM4
001517: 40,3005           50140                           INDEX    MIXBR
001518: 40,3006           03006                           TC       +0
001519: 40,3007           03023                           TC       RDLONOR
001520: 40,3010           50117                           INDEX    DECOUNT
001521: 40,3011           30150                           CA       IDAD1TEM                              #  GET IDADDTAB ENTRY FOR COMP K OF NOUN.
001522: 40,3012           74356                           MASK     LOW11                                 #  E SUBK
001523: 40,3013           04313                           TC       SETEBANK                              #  SET EB, LEAVE EADRES IN A.
001524: 40,3014           00006        READLO1            EXTEND                                         #  MIXED                         NORMAL
001525: 40,3015           50000                           INDEX    A                                     #  C(ESUBK)                      C(E)
001526: 40,3016           30001                           DCA      0                                     #  C((E SUBK)+1)                 C(E+1)
001527: 40,3017           52155                           DXCH     MPAC
001528: 40,3020           34755                           CAF      ZERO
001529: 40,3021           54156                           TS       MPAC       +2
001530: 40,3022           00144                           TC       TEM4
001531:
001532: 40,3023           30145        RDLONOR            CA       NOUNADD                               #  E
001533: 40,3024           03014        ENDRDLO            TC       READLO1
001534:
001535: 42,3230                                           BANK     42
001536: 42,2000                                           SETLOC   PINBALL3
001537: 42,2000                                           BANK
001538:
001539: 42,3230                                           COUNT*   $$/PIN
001540: 42,3230           04616        HMSOUT             TC       BANKCALL                              #  READ FRESH DATA FOR HI AND LO INTO MPAC,
001541: 42,3231           61003                           CADR     READLO                                #  MPAC+1.
001542: 42,3232           07262                           TC       TPAGREE                               #  MAKE DP DATA AGREE


001544: 42,3233           03417                           TC       SEPSECNR                              #  LEAVE FRACT SEC/60 IN MPAC, MPAC+1.  LEAVE
001545:                                                                                                  #  WHOLE MIN IN BIT13 OF LOTEMOUT AND ABOVE
001546: 42,3234           07106                           TC       DMP                                   #  USE ONLY FRACT SEC/60 MOD 60
001547: 42,3235           03271                           ADRES    SECON2                                #  MULT BY .06
001548: 42,3236           34321                           CAF      R3D1                                  #  GIVES CENTI-SEC/10EXP5 MOD 60
001549: 42,3237           54776                           TS       DSPCOUNT
001550: 42,3240           04616                           TC       BANKCALL                              #  DISPLAY SEC MOD 60
001551: 42,3241           61262                           CADR     DSPDECWD
001552: 42,3242           03435                           TC       SEPMIN                                #  REMOVE REST OF SECONDS
001553: 42,3243           33273                           CAF      MINCON2                               #  LEAVE FRACT MIN/60 IN MPAC+1.  LEAVE
001554: 42,3244           56154                           XCH      MPAC                                  #  WHOLE HOURS IN MPAC.
001555: 42,3245           55006                           TS       HITEMOUT                              #  SAVE WHOLE HOURS.
001556: 42,3246           33274                           CAF      MINCON2    +1
001557: 42,3247           56155                           XCH      MPAC       +1                         #  USE ONLY FRACT MIN/60 MOD 60
001558: 42,3250           04415                           TC       PRSHRTMP                              #  IF C(A) = -0, SHORTMP FAILS TO GIVE -0.
001559:                                                                                                  #  MULT BY .0006
001560: 42,3251           34320                           CAF      R2D1                                  #  GIVES MIN/10EXP5 MOD 60
001561: 42,3252           54776                           TS       DSPCOUNT
001562: 42,3253           04616                           TC       BANKCALL                              #  DISPLAY MIN MOD 60
001563: 42,3254           61262                           CADR     DSPDECWD
001564: 42,3255           00006                           EXTEND                                         #  MINUTES, SECONDS HAVE BEEN REMOVED
001565: 42,3256           33300                           DCA      HRCON1
001566: 42,3257           52155                           DXCH     MPAC
001567: 42,3260           31006                           CA       HITEMOUT                              #  USE WHOLE HOURS
001568: 42,3261           04415                           TC       PRSHRTMP                              #  IF C(A) = -0, SHORTMP FAILS TO GIVE -0.
001569:                                                                                                  #  MULT BY .16384
001570: 42,3262           34317                           CAF      R1D1                                  #  GIVES HOURS/10EXP5
001571: 42,3263           54776                           TS       DSPCOUNT
001572: 42,3264           04616                           TC       BANKCALL                              #  USE REGULAR DSPDECWD, WITH ROUND OFF.
001573: 42,3265           61262                           CADR     DSPDECWD
001574: 42,3266           00136                           TC       ENTEXIT
001575:
001576: 42,3267           25660 31742  SECON1             2DEC*    1.666666666 E-4        B12*            #  2EXP12/6000
001577: 42,3271           01727        SECON2             OCT      01727                                 #  .06 FOR SECONDS DISPLAY
001578: 42,3272           01217                           OCT      01217
001579: 42,3273           00011        MINCON2            OCT      00011                                 #  .0006 FOR MINUTES DISLPAY
001580: 42,3274           32445                           OCT      32445
001581: 42,3275           02104        MINCON1            OCT      02104                                 #  .066..66 UPPED BY 2EXP-28
001582: 42,3276           10422                           OCT      10422
001583: 42,3277           05174 13261  HRCON1             2DEC     .16384
001584: 42,3301           00000                           OCT      00000
001585: 42,3302           00062        RNDCON             OCT      00062                                 #  .5 SEC
001586:
001587: 42,3303           04616        M/SOUT             TC       BANKCALL                              #  READ FRESH DATA FOR HI AND LO INTO MPAC,
001588: 42,3304           61003                           CADR     READLO                                #  MPAC+1.
001589: 42,3305           07262                           TC       TPAGREE                               #  MAKE DP DATA AGREE
001590: 42,3306           10154                           CCS      MPAC                                  #  IF MAG OF (MPAC, MPAC+1) G/ 59 M 59 S,


001592: 42,3307           03311                           TC       +2                                    #  DISPLAY 59B59, WITH PROPER SIGN.
001593: 42,3310           03342                           TC       M/SNORM                               #  MPAC = +0.  L/ 59M58.5S
001594: 42,3311           63377                           AD       M/SCON1                               #  - HI PART OF (59M58.5S) +1 FOR CCS
001595: 42,3312           10000                           CCS      A                                     #  MAG OF MPAC - HI PART OF (59M58.5S)
001596: 42,3313           03326                           TC       M/SLIMIT                              #  G/ 59M58.5S
001597: 42,3314           03342                           TC       M/SNORM                               #  ORIGINAL MPAC = -0.  L/59M58.5S
001598: 42,3315           03342                           TC       M/SNORM                               #  L/ 59M58.5S
001599: 42,3316           10155                           CCS      MPAC       +1                         #  MAG OF MPAC = HI PART OF 59M58.5S
001600: 42,3317           03321                           TC       +2
001601: 42,3320           03342                           TC       M/SNORM                               #  MPAC+1 = +0.  L/ 59M58.5S
001602: 42,3321           63400                           AD       M/SCON2                               #  - LO PART OF (59M58.5S) +1 FOR CCS
001603: 42,3322           10000                           CCS      A                                     #  MAG OF MPAC+1 - LO PART OF (59M58.5S)
001604: 42,3323           03326                           TC       M/SLIMIT                              #  G/ 59M58.5S
001605: 42,3324           03342                           TC       M/SNORM                               #  ORIGINAL MPAC+1 = -0.  L/ 59M58.5S
001606: 42,3325           03342                           TC       M/SNORM                               #  L/ 59M58.5S
001607: 42,3326           10154        M/SLIMIT           CCS      MPAC                                  #  = 59M58.5S    LIMIT
001608: 42,3327           33402                           CAF      M/SCON3                               #  MPAC CANNOT BE +/- 0 AT THIS POINT.
001609: 42,3330           03337                           TC       +LIMIT                                #  FORCE MPAC, MPAC+1 TO +/- 59M59.5S
001610: 42,3331           43402                           CS       M/SCON3
001611: 42,3332           54154                           TS       MPAC                                  #  WILL DISPLAY 59M59S IN DSPDECNR
001612: 42,3333           43403                           CS       M/SCON3    +1
001613: 42,3334           54155        LIMITCOM           TS       MPAC       +1
001614: 42,3335           33401                           CAF      NORMADR                               #  SET RETURN TO M/SNORM+1.
001615: 42,3336           03420                           TC       SEPSECNR   +1
001616: 42,3337           54154        +LIMIT             TS       MPAC
001617: 42,3340           33403                           CAF      M/SCON3    +1
001618: 42,3341           03334                           TC       LIMITCOM
001619: 42,3342           03404        M/SNORM            TC       SEPSEC                                #  LEAVE FRACT SEC/60 IN MPAC,MPAC+1.  LEAVE
001620:                                                                                                  #  WHOLE MIN IN BIT13 OF LOTEMOUT AND ABOVE
001621: 42,3343           33375                           CAF      HISECON                               #  USE ONLY FRACT SEC/60 MOD 60
001622: 42,3344           07312                           TC       SHORTMP                               #  MULT BY .6 + 2EXP-14
001623: 42,3345           46250                           CS       THREE                                 #  GIVES SEC/100 MOD 60
001624: 42,3346           26776                           ADS      DSPCOUNT                              #  DSPCOUNT ALREADY SET TO RXD1
001625: 42,3347           04616                           TC       BANKCALL                              #  DISPLAY SEC MOD 60 IN D4D5.
001626: 42,3350           61322                           CADR     DSPDC2NR
001627: 42,3351           34755                           CAF      ZERO
001628: 42,3352           54124                           TS       CODE
001629: 42,3353           44752                           CS       TWO
001630: 42,3354           50117                           INDEX    DECOUNT
001631: 42,3355           64317                           AD       R1D1                                  #  RXD3
001632: 42,3356           54143                           TS       COUNT
001633: 42,3357           04616                           TC       BANKCALL                              #  BLANK MIDDLE CHAR
001634: 42,3360           61356                           CADR     DSPIN
001635: 42,3361           03435                           TC       SEPMIN                                #  REMOVE REST OF SECONDS
001636: 42,3362           56155                           XCH      MPAC       +1                         #  LEAVE FRACT MIN/60 IN MPAC+1
001637: 42,3363           00006                           EXTEND                                         #  USE ONLY FRACT MIN/60 MOD 60
001638: 42,3364           73376                           MP       HIMINCON                              #  MULT BY .6 + 2EXP-7
001639: 42,3365           52155                           DXCH     MPAC                                  #  GIVES MIN/100 MOD 60
001640: 42,3366           50117                           INDEX    DECOUNT
001641: 42,3367           34317                           CAF      R1D1                                  #  RXD1


001643: 42,3370           54776                           TS       DSPCOUNT
001644: 42,3371           04616                           TC       BANKCALL                              #  DISPLAY MIN MOD 60 IN D1D2.
001645: 42,3372           61322                           CADR     DSPDC2NR
001646: 42,3373           04635                           TC       POSTJUMP
001647: 42,3374           62572                           CADR     DSPDCEND   +2
001648:
001649: 42,3375           23147        HISECON            OCT      23147                                 #  .6 + 2EXP-14
001650: 42,3376           23346        HIMINCON           OCT      23346                                 #  .6 + 2EXP-7
001651:
001652: 42,3377           77753        M/SCON1            OCT      77753                                 #  - HI PART OF (59M58.5S) +1
001653: 42,3400           41126        M/SCON2            OCT      41126                                 #  - LO PART OF (59M58.5S) +1
001654: 42,3401           03343        NORMADR            ADRES    M/SNORM    +1
001655: 42,3402           00025        M/SCON3            OCT      00025                                 #  59M 59.5S
001656: 42,3403           37016                           OCT      37016
001657:
001658: 42,3404           10155        SEPSEC             CCS      MPAC       +1                         #  IF +, ROUND BY ADDING .5 SEC
001659: 42,3405           13414                           TCF      POSEC                                 #  IF -, ROUND BY SUBTRACTING .5 SEC
001660: 42,3406           13414                           TCF      POSEC                                 #  FINDS TIME IN MPAC, MPAC+1
001661: 42,3407           13410                           TCF      +1                                    #  ROUNDS OFF BY +/- .5 SEC
001662: 42,3410           00006                           EXTEND                                         #  LEAVES WHOLE MIN IN BIT13 OF
001663: 42,3411           43302                           DCS      RNDCON     -1                         #  LOTEMOUT AND ABOVE.
001664: 42,3412           20155        SEPSEC1            DAS      MPAC                                  #  LEAVES FRACT SEC/60 IN MPAC, MPAC+1.
001665: 42,3413           13417                           TCF      SEPSECNR
001666: 42,3414           00006        POSEC              EXTEND
001667: 42,3415           33302                           DCA      RNDCON     -1
001668: 42,3416           13412                           TCF      SEPSEC1
001669: 42,3417           56002        SEPSECNR           XCH      Q                                     #  THIS ENTRY AVOIDS ROUNDING BY .5 SEC
001670: 42,3420           54144                           TS       SEPSCRET
001671: 42,3421           07106                           TC       DMP                                   #  MULT BY 2EXP12/6000
001672: 42,3422           03267                           ADRES    SECON1                                #  GIVES FRACT SEC/60 IN BIT12 OF MPAC+1
001673: 42,3423           00006                           EXTEND                                         #  AND BELOW.
001674: 42,3424           30155                           DCA      MPAC                                  #  SAVE MINUTES AND HOURS
001675: 42,3425           53007                           DXCH     HITEMOUT
001676: 42,3426           04404                           TC       TPSL1
001677: 42,3427           04404                           TC       TPSL1                                 #  GIVES FRACT SEC/60 IN MPAC+1, MPAC+2.
001678: 42,3430           34755                           CAF      ZERO
001679: 42,3431           56156                           XCH      MPAC       +2                         #  LEAVE FRACT SEC/60 IN MPAC, MPAC+1.
001680: 42,3432           56155                           XCH      MPAC       +1
001681: 42,3433           56154                           XCH      MPAC
001682: 42,3434           00144                           TC       SEPSCRET
001683:
001684: 42,3435           56002        SEPMIN             XCH      Q                                     #  FINDS WHOLE MINUTES IN BIT13
001685: 42,3436           54144                           TS       SEPMNRET                              #  OF LOTEMOUT AND ABOVE.
001686: 42,3437           31007                           CA       LOTEMOUT                              #  REMOVES REST OF SECONDS.
001687: 42,3440           00006                           EXTEND                                         #  LEAVES FRACT MIN/60 IN MPAC+1.
001688: 42,3441           74751                           MP       BIT3                                  #  LEAVES WHOLE HOURS IN MPAC.
001689: 42,3442           00006                           EXTEND                                         #  SR 12, THROW AWAY LP.
001690: 42,3443           74737                           MP       BIT13                                 #  SR 2, TAKE FROM LP. = SL 12.


001692: 42,3444           22155                           LXCH     MPAC       +1                         #  THIS FORCES BITS 12-1 TO 0 IF +,
001693:                                                                                                  #  FORCES BITS 12-1 TO 1 IF -.
001694: 42,3445           31006                           CA       HITEMOUT
001695: 42,3446           54154                           TS       MPAC
001696: 42,3447           07106                           TC       DMP                                   #  MULT BY 1/15
001697: 42,3450           03275                           ADRES    MINCON1                               #  GIVES FRACT MIN/60 IN MPAC+1.
001698: 42,3451           00144        ENDSPMIN           TC       SEPMNRET                              #  GIVES WHOLE HOURS IN MPAC.
001699:
001700:                                                                                                  #  THIS IS A SPECIAL PURPOSE VERB FOR DISPLAYING A DOUBLE PRECISION AGC
001701:                                                                                                  #  WORD AS 10 DECIMAL DIGITS ON THE AGC DISPLAY PANEL.  IT CAN BE USED WITH
001702:                                                                                                  #  ANY NOUN, EXCEPT MIXED NOUNS.  IT DISPLAYS THE CONTENTS
001703:                                                                                                  #  OF THE REGISTER NOUNADD IS POINTING TO.  IF USED WITH NOUNS WHICH ARE
001704:                                                                                                  #  INHERENTLY NOT DP SUCH AS THE CDU COUNTERS THE DISPLAY WILL BE GARBAGE.
001705:                                                                                                  #  DISPLAY IS IN R1 AND R2 ONLY WITH THE SIGN IN R1.
001706:
001707: 40,3025                                           SETLOC   ENDRDLO    +1
001708:
001709: 40,3025                                           COUNT*   $$/PIN
001710: 40,3025           50140        DSPDPDEC           INDEX    MIXBR
001711: 40,3026           03026                           TC       +0
001712: 40,3027           03031                           TC       +2                                    #  NORMAL NOUN
001713: 40,3030           03454                           TC       DSPALARM
001714: 40,3031           00006                           EXTEND
001715: 40,3032           50145                           INDEX    NOUNADD
001716: 40,3033           30001                           DCA      0
001717: 40,3034           52155                           DXCH     MPAC
001718: 40,3035           34317                           CAF      R1D1
001719: 40,3036           54776                           TS       DSPCOUNT
001720: 40,3037           34755                           CAF      ZERO
001721: 40,3040           54156                           TS       MPAC       +2
001722: 40,3041           07262                           TC       TPAGREE
001723: 40,3042           03327                           TC       DSP2DEC
001724: 40,3043           00136        ENDDPDEC           TC       ENTEXIT
001725:


001727:                                                                                                  #  LOAD VERBS            IF ALARM CONDITION IS DETECTED DURING EXECUTE,
001728:                                                                                                  #  CHECK FAIL LIGHT IS TURNED ON AND ENDOFJOB.  IF ALARM CONDITION IS
001729:                                                                                                  #  DETECTED DURING ENTER OF DATA, CHECK FAIL IS TURNED ON AND IT RECYCLES
001730:                                                                                                  #  TO EXECUTE OF ORIGINAL LOAD VERB.  RECYCLE CAUSED BY          1) DECIMAL MACHINE
001731:                                                                                                  #  CADR          2) MIXTURE OF OCTAL/DECIMAL DATA        3) OCTAL DATA INTO DECIMAL
001732:                                                                                                  #  ONLY NOUN     4) DEC DATA INTO OCT ONLY NOUN          5) DATA TOO LARGE FOR SCALE
001733:                                                                                                  #  6) FEWER THAN 3 DATA WORDS LOADED FOR HRS, MIN, SEC NOUN.8(2)-(6) ALARM
001734:                                                                                                  #  AND RECYCLE OCCUR AT FINAL ENTER OF SET. (1) ALARM AND RECYCLE OCCUR AT
001735:                                                                                                  #  ENTER OF CADR.
001736:
001737: 41,2622                                           SETLOC   ENDRTOUT
001738:
001739: 41,2622                                           COUNT*   $$/PIN
001740: 41,2622           44752        ABCLOAD            CS       TWO
001741: 41,2623           02426                           TC       COMPTEST
001742: 41,2624           02462                           TC       NOUNTEST                              #  TEST IF NOUN CAN BE LOADED.
001743: 41,2625           33031                           CAF      VBSP1LD
001744: 41,2626           02341                           TC       UPDATVB    -1
001745: 41,2627           02305                           TC       REQDATX
001746: 41,2630           33032                           CAF      VBSP2LD
001747: 41,2631           02341                           TC       UPDATVB    -1
001748: 41,2632           02307                           TC       REQDATY
001749: 41,2633           33033                           CAF      VBSP3LD
001750: 41,2634           02341                           TC       UPDATVB    -1
001751: 41,2635           02311                           TC       REQDATZ
001752:
001753: 41,2636           46245        PUTXYZ             CS       SIX                                   #  TEST THAT THE 3 DATA WORDS LOADED ARE
001754: 41,2637           03034                           TC       ALLDC/OC                              #  ALL DEC OR ALL OCT.
001755: 41,2640           00006                           EXTEND
001756: 41,2641           32114                           DCA      LODNNLOC                              #  SWITCH BANKS TO NOUN TABLE READING
001757: 41,2642           52006                           DXCH     Z                                     #  ROUTINE.
001758: 41,2643           34755                           CAF      ZERO                                  #  X COMP
001759: 41,2644           03120                           TC       PUTCOM
001760: 41,2645           50145                           INDEX    NOUNADD
001761: 41,2646           54000                           TS       0
001762: 41,2647           34753                           CAF      ONE                                   #  Y COMP
001763: 41,2650           03120                           TC       PUTCOM
001764: 41,2651           50145                           INDEX    NOUNADD
001765: 41,2652           54001                           TS       1
001766: 41,2653           34752                           CAF      TWO                                   #  Z COMP
001767: 41,2654           03120                           TC       PUTCOM
001768: 41,2655           50145                           INDEX    NOUNADD
001769: 41,2656           54002                           TS       2
001770: 41,2657           44757                           CS       SEVEN                                 #  IF NOUN 7 HAS JUST BEEN LOADED, SET
001771: 41,2660           61001                           AD       NOUNREG                               #  FLAG BITS AS SPECIFIED.
001772: 41,2661           00006                           EXTEND
001773: 41,2662           12664                           BZF      +2
001774: 41,2663           03020                           TC       LOADLV


001776: 41,2664           00004                           INHINT
001777: 41,2665           44763                           CS       OCT30                                 #  IS IT A CHANNEL (30 OR UNDER)
001778: 41,2666           61002                           AD       XREG
001779: 41,2667           00006                           EXTEND
001780: 41,2670           62700                           BZMF     CHANBITS                              #  YES
001781:
001782: 41,2671           31002                           CA       XREG                                  #  ECADR OF ERASABLE CELL
001783: 41,2672           04304                           TC       SETNCADR   +1                         #  SET EBANK, NOUNADD
001784:
001785: 41,2673           50145                           INDEX    NOUNADD
001786: 41,2674           30000                           CA       0
001787: 41,2675           54001                           TS       L
001788: 41,2676           34753                           CAF      ONE
001789: 41,2677           55002                           TS       XREG                                  #  MAKE IT LOOK LIKE A CHANNEL FOR A WHILE
001790:
001791: 41,2700           64361        CHANBITS           AD       OCT21
001792: 41,2701           00006                           EXTEND
001793: 41,2702           12724                           BZF      BITSOFF2                              #  DONT TOUCH CHAN7 (SUPERBANK)
001794:
001795: 41,2703           31004                           CA       ZREG
001796: 41,2704           00006                           EXTEND
001797: 41,2705           62713                           BZMF     BITSOFF                               #  R3 IS ZERO FOR OFF, NONZERO FOR ON
001798:
001799: 41,2706           31003                           CA       YREG
001800: 41,2707           00006                           EXTEND
001801: 41,2710           51002                           INDEX    XREG
001802: 41,2711           05000                           WOR      0
001803: 41,2712           12717                           TCF      BITSOFF1
001804:
001805: 41,2713           41003        BITSOFF            CS       YREG
001806: 41,2714           00006                           EXTEND
001807: 41,2715           51002                           INDEX    XREG
001808: 41,2716           03000                           WAND     0
001809:
001810: 41,2717           11002        BITSOFF1           CCS      XREG                                  #  WAS IT REALLY A CHANNEL
001811: 41,2720           10000                           CCS      A
001812: 41,2721           12724                           TCF      BITSOFF2                              #  YES
001813:
001814: 41,2722           50145                           INDEX    NOUNADD
001815: 41,2723           22000                           LXCH     0
001816:
001817: 41,2724           00003        BITSOFF2           RELINT
001818: 41,2725           03020                           TC       LOADLV
001819:
001820: 41,2726     4763               OCT30              =        BITS4&5
001821: 41,2726           44753        ABLOAD             CS       ONE
001822: 41,2727           02426                           TC       COMPTEST
001823: 41,2730           02462                           TC       NOUNTEST                              #  TEST IF NOUN CAN BE LOADED.
001824: 41,2731           33031                           CAF      VBSP1LD
001825: 41,2732           02341                           TC       UPDATVB    -1


001827: 41,2733           02305                           TC       REQDATX
001828: 41,2734           33032                           CAF      VBSP2LD
001829: 41,2735           02341                           TC       UPDATVB    -1
001830: 41,2736           02307                           TC       REQDATY
001831: 41,2737           44756        PUTXY              CS       FIVE                                  #  TEST THAT THE 2 DATA WORDS LOADED ARE
001832: 41,2740           03034                           TC       ALLDC/OC                              #  ALL DEC OR ALL OCT.
001833: 41,2741           00006                           EXTEND
001834: 41,2742           32114                           DCA      LODNNLOC                              #  SWITCH BANKS TO NOUN TABLE READING
001835: 41,2743           52006                           DXCH     Z                                     #  ROUTINE.
001836: 41,2744           34755                           CAF      ZERO                                  #  X COMP
001837: 41,2745           03120                           TC       PUTCOM
001838: 41,2746           50145                           INDEX    NOUNADD
001839: 41,2747           54000                           TS       0
001840: 41,2750           34753                           CAF      ONE                                   #  Y COMP
001841: 41,2751           03120                           TC       PUTCOM
001842: 41,2752           50145                           INDEX    NOUNADD
001843: 41,2753           54001                           TS       1
001844: 41,2754           03020                           TC       LOADLV
001845:
001846: 41,2755           02305        ALOAD              TC       REQDATX
001847: 41,2756           00006                           EXTEND
001848: 41,2757           32114                           DCA      LODNNLOC                              #  SWITCH BANKS TO NOUN TABLE READING
001849: 41,2760           52006                           DXCH     Z                                     #  ROUTINE.
001850: 41,2761           34755                           CAF      ZERO                                  #  X COMP
001851: 41,2762           03120                           TC       PUTCOM
001852: 41,2763           50145                           INDEX    NOUNADD
001853: 41,2764           54000                           TS       0
001854: 41,2765           03020                           TC       LOADLV
001855:
001856: 41,2766           44753        BLOAD              CS       ONE
001857: 41,2767           02426                           TC       COMPTEST
001858: 41,2770           34735                           CAF      BIT15                                 #  SET CLPASS FOR PASS0 ONLY
001859: 41,2771           55014                           TS       CLPASS
001860: 41,2772           02307                           TC       REQDATY
001861: 41,2773           00006                           EXTEND
001862: 41,2774           32114                           DCA      LODNNLOC                              #  SWITCH BANKS TO NOUN TABLE READING
001863: 41,2775           52006                           DXCH     Z                                     #  ROUTINE.
001864: 41,2776           34753                           CAF      ONE
001865: 41,2777           03120                           TC       PUTCOM
001866: 41,3000           50145                           INDEX    NOUNADD
001867: 41,3001           54001                           TS       1
001868: 41,3002           03020                           TC       LOADLV
001869:
001870: 41,3003           44752        CLOAD              CS       TWO
001871: 41,3004           02426                           TC       COMPTEST
001872: 41,3005           34735                           CAF      BIT15                                 #  SET CLPASS FOR PASS0 ONLY
001873: 41,3006           55014                           TS       CLPASS
001874: 41,3007           02311                           TC       REQDATZ
001875: 41,3010           00006                           EXTEND
001876: 41,3011           32114                           DCA      LODNNLOC                              #  SWITCH BANKS TO NOUN TABLE READING


001878: 41,3012           52006                           DXCH     Z                                     #  ROUTINE.
001879: 41,3013           34752                           CAF      TWO
001880: 41,3014           03120                           TC       PUTCOM
001881: 41,3015           50145                           INDEX    NOUNADD
001882: 41,3016           54002                           TS       2
001883: 41,3017           03020                           TC       LOADLV
001884:
001885: 41,3020           34755        LOADLV             CAF      ZERO
001886: 41,3021           54777                           TS       DECBRNCH
001887: 41,3022           44755                           CS       ZERO
001888: 41,3023           55013                           TS       LOADSTAT
001889: 41,3024           04457                           TC       RELDSP                                #  RELEASE FOR PRIORITY DISPLAY PROBLEM.
001890: 41,3025           44360                           CS       VD1                                   #  TO BLOCK NUMERICAL CHARACTERS AND
001891: 41,3026           54776                           TS       DSPCOUNT                              #  CLEARS AFTER A COMPLETED LOAD
001892: 41,3027           04635                           TC       POSTJUMP                              #  AFTER COMPLETED LOAD, GO TO RECALTST
001893: 41,3030           61612                           CADR     RECALTST                              #  TO SEE IF THERE IS RECALL FROM ENDIDLE.
001894:
001895: 41,3031           00025        VBSP1LD            DEC      21         B-14                       #  VB21 = ALOAD
001896: 41,3032           00026        VBSP2LD            DEC      22         B-14                       #  VB22 = BLOAD
001897: 41,3033           00027        VBSP3LD            DEC      23         B-14                       #  VB23 = CLOAD
001898:
001899: 41,3034           54117        ALLDC/OC           TS       DECOUNT                               #  TESTS THAT DATA WORDS LOADED ARE EITHER
001900: 41,3035           40777                           CS       DECBRNCH                              #  ALL DEC OR ALL OCT.  ALARMS IF NOT.
001901: 41,3036           54021                           TS       SR
001902: 41,3037           40021                           CS       SR
001903: 41,3040           40021                           CS       SR                                    #  SHIFTED RIGHT 2
001904: 41,3041           10000                           CCS      A                                     #  DEC COMP BITS IN LOW 3
001905: 41,3042           13044                           TCF      +2                                    #  SOME ONES IN LOW 3
001906: 41,3043           00002                           TC       Q                                     #  ALL ZEROS.  ALL OCTAL.   OK
001907: 41,3044           60117                           AD       DECOUNT                               #  DEC COMP = 7 FOR 3COMP, =6 FOR 2COMP
001908: 41,3045           00006                           EXTEND                                         #  (BUT IT HAS BEEN DECREMENTED BY CCS)
001909: 41,3046           13050                           BZF      +2                                    #  MUST MATCH 6 FOR 3COMP, 5 FOR 2COMP.
001910: 41,3047           04145                           TC       ALMCYCLE                              #  ALARM AND RECYCLE.
001911: 41,3050           00002        GOQ                TC       Q                                     #  ALL REQUIRED ARE DEC.  OK
001912:
001913: 41,3051           56002        SFRUTNOR           XCH      Q                                     #  GETS SF ROUTINE NUMBER FOR NORMAL CASE
001914: 41,3052           54114                           TS       EXITEM                                #  CANT USE L FOR RETURN.  TSTFORDP USES L.
001915: 41,3053           34347                           CAF      MID5
001916: 41,3054           70147                           MASK     NNTYPTEM
001917: 41,3055           04322                           TC       RIGHT5
001918: 41,3056           00114                           TC       EXITEM                                #  SF ROUTINE NUMBER IN A
001919:
001920: 41,3057           56002        SFRUTMIX           XCH      Q                                     #  GETS SF ROUTINE NUMBER FOR MIXED CASE
001921: 41,3060           54114                           TS       EXITEM
001922: 41,3061           50117                           INDEX    DECOUNT
001923: 41,3062           33111                           CAF      DISPLACE                              #  PUT TC GOQ, TC RIGHT5, OR TC LEFT5 IN L
001924: 41,3063           54001                           TS       L
001925: 41,3064           50117                           INDEX    DECOUNT


001927: 41,3065           34346                           CAF      LOW5                                  #  LOW5, MID5, OR HI5 IN A
001928: 41,3066           70153                           MASK     RUTMXTEM                              #  GET HI5, MID5, OR LOW5 OF RUTMXTAB ENTRY
001929: 41,3067           50001                           INDEX    L
001930: 41,3070           00000                           TC       0
001931:
001932:                                                                                                  #  DO TC GOQ(DECOUNT=0), DO TC RIGHT5(DECOUNT=1), DO TC LEFT5(DECOUNT=2).
001933:
001934: 41,3071           00114        SFRET1             TC       EXITEM                                #  SF ROUTINE NUMBER IN A
001935:
001936: 41,3072           56002        SFCONUM            XCH      Q                                     #  GETS 2X(SF CONSTANT NUMBER)
001937: 41,3073           54114                           TS       EXITEM
001938: 41,3074           50140                           INDEX    MIXBR
001939: 41,3075           03075                           TC       +0
001940: 41,3076           03114                           TC       CONUMNOR                              #  NORMAL NOUN
001941: 41,3077           50117                           INDEX    DECOUNT                               #  MIXED NOUN
001942: 41,3100           33111                           CAF      DISPLACE
001943: 41,3101           54001                           TS       L                                     #  PUT TC GOQ, TC RIGHT5, OR TC LEFT5 IN L
001944: 41,3102           50117                           INDEX    DECOUNT
001945: 41,3103           34346                           CAF      LOW5
001946: 41,3104           70147                           MASK     NNTYPTEM
001947: 41,3105           50001                           INDEX    L
001948: 41,3106           00000                           TC       0
001949:
001950:                                                                                                  #  DO TC GOQ(DECOUNT=0), DO TC RIGHT5(DECOUNT=1), DO TC LEFT5(DECOUNT=2).
001951:
001952: 41,3107           60000        SFRET              DOUBLE                                         #  2X(SF CONSTANT NUMBER) IN A
001953: 41,3110           00114                           TC       EXITEM
001954:
001955: 41,3111           03050        DISPLACE           TC       GOQ
001956: 41,3112           04322                           TC       RIGHT5
001957: 41,3113           04331                           TC       LEFT5
001958:
001959: 41,3114           34346        CONUMNOR           CAF      LOW5                                  #  NORMAL NOUN ALWAYS GETS LOW5 OF
001960: 41,3115           70147                           MASK     NNTYPTEM                              #  NNTYPTAB FOR SF CONUM.
001961: 41,3116           60000                           DOUBLE
001962: 41,3117           00114                           TC       EXITEM                                #  2X(SF CONSTANT NUMBER) IN A
001963:
001964: 41,3120           54117        PUTCOM             TS       DECOUNT
001965: 41,3121           56002                           XCH      Q
001966: 41,3122           54115                           TS       DECRET
001967: 41,3123           34755                           CAF      ZERO
001968: 41,3124           54162                           TS       MPAC+6
001969: 41,3125           50117                           INDEX    DECOUNT
001970: 41,3126           57005                           XCH      XREGLP
001971: 41,3127           54155                           TS       MPAC       +1
001972: 41,3130           50117                           INDEX    DECOUNT
001973: 41,3131           57002                           XCH      XREG
001974: 41,3132           54154                           TS       MPAC
001975: 41,3133           50140                           INDEX    MIXBR
001976: 41,3134           03134                           TC       +0
001977: 41,3135           03162                           TC       PUTNORM                               #  NORMAL NOUN
001978:
001979:                                                                                                  #  IF MIXNOUN, PLACE ADDRESS FOR COMPONENT K INTO NOUNADD, SET EBANK BITS.
001980:
001981: 41,3136           50117                           INDEX    DECOUNT                               #  GET IDADDTAB ENTRY FOR COMPONENT K


001983: 41,3137           30150                           CA       IDAD1TEM                              #        OF NOUN.
001984: 41,3140           74356                           MASK     LOW11                                 #  (ECADR)SUBK FOR CURRENT COMP OF NOUN
001985: 41,3141           04303                           TC       SETNCADR                              #  ECADR INTO NOUNCADR.  SETS EB, NOUNADD.
001986: 41,3142           00006                           EXTEND                                         #  C(NOUNADD) IN A UPON RETURN
001987: 41,3143           60117                           SU       DECOUNT                               #  PLACE (ESUBK)-K INTO NOUNADD
001988: 41,3144           54145                           TS       NOUNADD
001989: 41,3145           10777                           CCS      DECBRNCH
001990: 41,3146           03217                           TC       PUTDECSF                              #  + DEC
001991: 41,3147           02454                           TC       DCTSTCYC                              #  +0 OCTAL
001992: 41,3150           03057                           TC       SFRUTMIX                              #  TEST IF DEC ONLY BIT = 1.  IF SO,
001993: 41,3151           02261                           TC       DPTEST                                #  ALARM AND RECYCLE.  IF NOT, CONTINUE.
001994: 41,3152           03200                           TC       PUTCOM2                               #  NO DP
001995:                                                                                                  #  TEST FOR DP SCALE FOR OCT LOAD.  IF SO,
001996:                                                                                                  #  +0 INTO MAJOR PART.  SET NOUNADD FOR
001997:                                                                                                  #  LOADING OCTAL WORD INTO MINOR PART.
001998: 41,3153           24145        PUTDPCOM           INCR     NOUNADD                               #  DP (ESUBK)-K+1 OR E+1
001999: 41,3154           30145                           CA       NOUNADD                               #  NOUNADD NOW SET FOR MINOR PART
002000: 41,3155           26117                           ADS      DECOUNT                               #  (ESUBK)+1 OR E+1 INTO DECOUNT
002001: 41,3156           34755                           CAF      ZERO                                  #  NOUNADD SET FOR MINOR PART
002002: 41,3157           50117                           INDEX    DECOUNT
002003: 41,3160           53777                           TS       0          -1                         #  ZERO MAJOR PART(ESUBK OR E)
002004: 41,3161           03200                           TC       PUTCOM2
002005:
002006: 41,3162           04311        PUTNORM            TC       SETNADD                               #  ECADR FROM NOUNCADR.  SETS EB, NOUNADD.
002007: 41,3163           10777                           CCS      DECBRNCH
002008: 41,3164           03217                           TC       PUTDECSF                              #  + DEC
002009: 41,3165           02454                           TC       DCTSTCYC                              #  +0 OCTAL
002010: 41,3166           03051                           TC       SFRUTNOR                              #  TEST IF DEC ONLY BIT = 1.  IF SO,
002011: 41,3167           02261                           TC       DPTEST                                #  ALARM AND RECYCLE.  IF NOT, CONTINUE.
002012: 41,3170           03174                           TC       PUTCOM2    -4                         #  NO DP
002013: 41,3171           34755                           CAF      ZERO                                  #  DP
002014: 41,3172           54117                           TS       DECOUNT
002015: 41,3173           03153                           TC       PUTDPCOM
002016:
002017: 41,3174           30146                           CA       NNADTEM
002018: 41,3175           64753                           AD       ONE                                   #  IF NNADTEM = -1, CHANNEL TO BE SPECIFIED
002019: 41,3176           00006                           EXTEND
002020: 41,3177           13204                           BZF      CHANLOAD
002021: 41,3200           56154        PUTCOM2            XCH      MPAC
002022: 41,3201           00115                           TC       DECRET
002023:
002024: 41,3202     0776                                  EBANK=   DSPCOUNT
002025: 41,3202           02147 64101  GTSFINLC           2CADR    GTSFIN
002026:
002027: 41,3204           44757        CHANLOAD           CS       SEVEN                                 #  DONT LOAD CHAN 7.  (IT = SUPERBANK).
002028: 41,3205           61016                           AD       NOUNCADR
002029: 41,3206           00006                           EXTEND
002030: 41,3207           13020                           BZF      LOADLV


002032: 41,3210           31016                           CA       NOUNCADR
002033: 41,3211           75004                           MASK     LOW9
002034: 41,3212           56154                           XCH      MPAC
002035: 41,3213           00006                           EXTEND
002036: 41,3214           50154                           INDEX    MPAC
002037: 41,3215           01000                           WRITE    0
002038: 41,3216           03020                           TC       LOADLV
002039:
002040:                                                                                                  #  PUTDECSF FINDS MIXBR AND DECOUNT STILL SET FROM PUTCOM
002041:
002042: 41,3217           03072        PUTDECSF           TC       SFCONUM                               #  2X(SF CON NUMB) IN A
002043: 41,3220           54123                           TS       SFTEMP1
002044: 41,3221           00006                           EXTEND                                         #  SWITCH BANKS TO SF CONSTANT TABLE
002045: 41,3222           33203                           DCA      GTSFINLC                              #  READING ROUTINE.
002046: 41,3223           52006                           DXCH     Z                                     #  LOADS SFTEMP1, SFTEMP2.
002047: 41,3224           50140                           INDEX    MIXBR
002048: 41,3225           03225                           TC       +0
002049: 41,3226           03231                           TC       PUTSFNOR
002050: 41,3227           03057                           TC       SFRUTMIX
002051: 41,3230           03232                           TC       PUTDCSF2
002052: 41,3231           03051        PUTSFNOR           TC       SFRUTNOR
002053:
002054: 41,3232           50000        PUTDCSF2           INDEX    A
002055: 41,3233           33235                           CAF      SFINTABR
002056: 41,3234           04640                           TC       BANKJUMP                              #  SWITCH BANKS FOR EXPANSHION ROOM
002057: 41,3235           62352        SFINTABR           CADR     GOALMCYC                              #  ALARM AND RECYCLE IF DEC LOAD
002058:                                                                                                  #  WITH OCTAL ONLY NOUN.
002059: 41,3236           61142                           CADR     BINROUND
002060: 41,3237           61044                           CADR     DEGINSF
002061: 41,3240           61132                           CADR     ARTHINSF
002062: 41,3241           61150                           CADR     DPINSF
002063: 41,3242           61175                           CADR     DPINSF2
002064: 41,3243           61454                           CADR     DSPALARM                              #  LRPOSOUT CANT BE LOADED.
002065: 41,3244           61150                           CADR     DPINSF                                #  SAME AS ARITHDP1
002066: 41,3245           65452                           CADR     HMSIN
002067: 41,3246           61454                           CADR     DSPALARM                              #  MIN/SEC CANT BE LOADED.
002068: 41,3247           61202                           CADR     DPINSF4
002069: 41,3250           61145                           CADR     ARTIN1SF
002070: 41,3251           61454                           CADR     DSPALARM                              #  2INTOUT CANT BE LOADED.
002071: 41,3252           61044                           CADR     DEGINSF                               #  TESTS AT END FOR 360-CDU
002072: 41,3253           61454                           CADR     DSPALARM                              #  RRANGOUT CANT BE LOADED.
002073: 41,3254           61454                           CADR     DSPALARM                              #  RRDOTOUT CANT BE LOADED.
002074: 41,3255                        ENDRUTIN           EQUALS
002075:
002076:                                                                                                  #  SCALE FACTORS FOR THOSE ROUTINES NEEDING THEM ARE AVAILABLE IN SFTEMP1.
002077:                                                                                                  #  ALL SFIN ROUTINES USE MPAC MPAC+1.  LEAVE RESULT IN A.  END WITH TC DECRET


002079:
002080: 40,3044                                           SETLOC   ENDDPDEC   +1
002081:
002082: 40,3044                                           COUNT*   $$/PIN
002083:                                                                                                  #  DEGINSF APPLIES 1000/180 = 5.55555(10) = 5.43434(8)
002084:
002085: 40,3044           07106        DEGINSF            TC       DMP                                   #  SF ROUTINE FOR DEC DEGREES
002086: 40,3045           03130                           ADRES    DEGCON1                               #  MULT BY 5.5 5(10)X2EXP-3
002087: 40,3046           10155                           CCS      MPAC       +1                         #  THIS ROUNDS OFF MPAC+1 BEFORE SHIFT
002088: 40,3047           34741                           CAF      BIT11                                 #  LEFT 3, AND CAUSES 360.00 TO OF/UF
002089: 40,3050           03052                           TC       +2                                    #  WHEN SHIFTED LEFT AND ALARM.
002090: 40,3051           44741                           CS       BIT11
002091: 40,3052           60155                           AD       MPAC       +1
002092: 40,3053           03221                           TC       2ROUND     +2
002093: 40,3054           04404                           TC       TPSL1                                 #  LEFT 1
002094: 40,3055           04404        DEGINSF2           TC       TPSL1                                 #  LEFT 2
002095: 40,3056           03230                           TC       TESTOFUF
002096: 40,3057           04404                           TC       TPSL1                                 #  RETURNS IF NO OF/UF (LEFT3)
002097: 40,3060           10154                           CCS      MPAC
002098: 40,3061           03065                           TC       SIGNFIX                               #  IF +, GO TO SIGNFIX
002099: 40,3062           03065                           TC       SIGNFIX                               #  IF +0, GO TO SIGNFIX
002100: 40,3063           40000                           COM                                            #  IF -, USE -MAGNITUDE +1
002101: 40,3064           54154                           TS       MPAC                                  #  IF -0, USE +0
002102: 40,3065           10162        SIGNFIX            CCS      MPAC+6
002103: 40,3066           03124                           TC       SGNTO1                                #  IF OVERFLOW
002104: 40,3067           03077                           TC       ENDSCALE                              #  NO OVERFLOW/UNDERFLOW
002105: 40,3070           10154                           CCS      MPAC                                  #  IF UF FORCE SIGN TO 0 EXCEPT -180
002106: 40,3071           05675                           TC       CCSHOLE
002107: 40,3072           03122                           TC       NEG180
002108: 40,3073           03074                           TC       +1
002109: 40,3074           56154                           XCH      MPAC
002110: 40,3075           74733                           MASK     POSMAX
002111: 40,3076           54154                           TS       MPAC
002112: 40,3077           50140        ENDSCALE           INDEX    MIXBR                                 #  IF ROUTINE NO. IS NOT CDU DEGREES,
002113: 40,3100           03100                           TC       +0                                    #  THEN THIS IS 360 - CDU DEGREES
002114: 40,3101           03104                           TC       +3                                    #  AND ANGLE IN MPAC MUST BE REPLACED
002115: 40,3102           03114                           TC       SFMIXCAL                              #  BY 360 DEGREES MINUS ITSELF.
002116: 40,3103           03105        MIXBACK            TC       +2
002117: 40,3104           03117                           TC       SFNORCAL
002118: 40,3105           40000        NORBACK            CS       A
002119: 40,3106           64752                           AD       BIT2
002120: 40,3107           00006                           EXTEND
002121: 40,3110           13112                           BZF      +2
002122: 40,3111           02625                           TC       360-CDU
002123: 40,3112           04635        ENDSCAL1           TC       POSTJUMP
002124: 40,3113           63200                           CADR     PUTCOM2
002125:
002126: 40,3114           04616        SFMIXCAL           TC       BANKCALL
002127: 40,3115           63057                           CADR     SFRUTMIX
002128: 40,3116           03103                           TC       MIXBACK


002130: 40,3117           04616        SFNORCAL           TC       BANKCALL
002131: 40,3120           63051                           CADR     SFRUTNOR
002132: 40,3121           03105                           TC       NORBACK
002133:
002134: 40,3122           44733        NEG180             CS       POSMAX
002135: 40,3123           03076                           TC       ENDSCALE   -1
002136:
002137: 40,3124           40154        SGNTO1             CS       MPAC                                  #  IF OF FORCE SIGN TO 1
002138: 40,3125           74733                           MASK     POSMAX
002139: 40,3126           40000                           CS       A
002140: 40,3127           03076                           TC       ENDSCALE   -1
002141:
002142: 40,3130           26161 30707  DEGCON1            2DEC     5.555555555 B-3
002143:
002144: 40,3132           07106        ARTHINSF           TC       DMP                                   #  SCALES MPAC, +1 BY SFTEMP1, SFTEMP2.
002145: 40,3133           00123                           ADRES    SFTEMP1                               #  ASSUMES POINT BETWEEN HI AND LO PARTS
002146: 40,3134           56156                           XCH      MPAC       +2                         #  OF SFCON.  SHIFTS RESULTS LEFT BY 14.
002147: 40,3135           56155                           XCH      MPAC       +1                         #  (BY TAKING RESULTS FROM MPAC+1, MPAC+2)
002148: 40,3136           56154                           XCH      MPAC
002149: 40,3137           00006                           EXTEND
002150: 40,3140           13142                           BZF      BINROUND
002151: 40,3141           04145                           TC       ALMCYCLE                              #  TOO LARGE A LOAD.  ALARM AND RECYCLE.
002152: 40,3142           03217        BINROUND           TC       2ROUND
002153: 40,3143           03230                           TC       TESTOFUF
002154: 40,3144           03112                           TC       ENDSCAL1                              #  RETURNS IF NO OF/UF
002155:
002156: 40,3145           07106        ARTIN1SF           TC       DMP                                   #  SCALES MPAC, +1 BY SFTEMP1, SFTEMP2.
002157: 40,3146           00123                           ADRES    SFTEMP1                               #  ROUNDS MPAC+1 INTO MPAC.
002158: 40,3147           03142                           TC       BINROUND
002159:
002160: 40,3150           07106        DPINSF             TC       DMP                                   #  SCALES MPAC, MPAC +1 BY SFTEMP1,
002161: 40,3151           00123                           ADRES    SFTEMP1                               #  SFTEMP2.  STORES LOW PART OF RESULT
002162: 40,3152           56156                           XCH      MPAC       +2                         #  IN (E SUBK) +1 OR E+1
002163: 40,3153           60000                           DOUBLE
002164: 40,3154           54156                           TS       MPAC       +2
002165: 40,3155           34755                           CAF      ZERO
002166: 40,3156           60155                           AD       MPAC       +1
002167: 40,3157           03221                           TC       2ROUND     +2
002168: 40,3160           03230                           TC       TESTOFUF
002169: 40,3161           50140                           INDEX    MIXBR                                 #  RETURNS IF NO OF/UF
002170: 40,3162           03162                           TC       +0
002171: 40,3163           03173                           TC       DPINORM
002172: 40,3164           30117                           CA       DECOUNT                               #  MIXED NOUN
002173: 40,3165           60145        DPINCOM            AD       NOUNADD                               #        MIXED           NORMAL
002174: 40,3166           54002                           TS       Q                                     #        E SUBK          E
002175: 40,3167           56155                           XCH      MPAC       +1
002176: 40,3170           50002                           INDEX    Q
002177: 40,3171           54001                           TS       1                                     #  PLACE LOW PART IN


002179: 40,3172           03112                           TC       ENDSCAL1                              #        (E SUBK) +1     MIXED
002180:
002181: 40,3173           34755        DPINORM            CAF      ZERO                                  #        E +1            NORMAL
002182: 40,3174           03165                           TC       DPINCOM
002183:
002184: 40,3175           07106        DPINSF2            TC       DMP                                   #  ASSUMES POINT BETWEEN BITS 7-8 OF HIGH
002185: 40,3176           00123                           ADRES    SFTEMP1                               #  PART OF SF CONST.  DPINSF2 SHIFTS RESULTS
002186: 40,3177           36245                           CAF      SIX                                   #  LEFT BY 7, ROUNDS MPAC+2 INTO MPAC+1
002187: 40,3200           03207                           TC       TPLEFTN                               #  SHIFT LEFT 7.
002188: 40,3201           03152                           TC       DPINSF     +2
002189:
002190: 40,3202           07106        DPINSF4            TC       DMP                                   #  ASSUMES POINT BETWEEN BITS 11-12 OF HIGH
002191: 40,3203           00123                           ADRES    SFTEMP1                               #  PART OF SF CONST.  DPINSF2 SHIFTS RESULTS
002192: 40,3204           34752                           CAF      TWO                                   #  LEFT BY 3, ROUNDS MPAC+2 INTO MPAC+1.
002193: 40,3205           03207                           TC       TPLEFTN                               #  SHIFT LEFT 3.
002194: 40,3206           03152                           TC       DPINSF     +2
002195:
002196: 40,3207           56002        TPLEFTN            XCH      Q                                     #  SHIFTS MPAC, +1, +2 LEFT N.  SETS OVFIND
002197: 40,3210           54124                           TS       SFTEMP2                               #  TO +1 FOR OF, -1 FOR UF.
002198: 40,3211           56002                           XCH      Q                                     #  CALL WITH N-1 IN A.
002199: 40,3212           54123        LEFTNCOM           TS       SFTEMP1                               #        LOOP TIME .37 MSEC.
002200: 40,3213           04404                           TC       TPSL1
002201: 40,3214           10123                           CCS      SFTEMP1
002202: 40,3215           03212                           TC       LEFTNCOM
002203: 40,3216           00124                           TC       SFTEMP2
002204:
002205: 40,3217           56155        2ROUND             XCH      MPAC       +1
002206: 40,3220           60000                           DOUBLE
002207: 40,3221           54155                           TS       MPAC       +1
002208: 40,3222           00002                           TC       Q                                     #  IF MPAC+1 DOES NOT OF/UF
002209: 40,3223           60154                           AD       MPAC
002210: 40,3224           54154                           TS       MPAC
002211: 40,3225           00002                           TC       Q                                     #  IF MPAC DOES NOT OF/UF
002212: 40,3226           54162                           TS       MPAC+6
002213: 40,3227           00002        24NDEND            TC       Q
002214:
002215: 40,3230           10162        TESTOFUF           CCS      MPAC+6                                #  RETURNS IF NO OF/UF
002216: 40,3231           04145                           TC       ALMCYCLE                              #  OF    ALARM AND RECYCLE.
002217: 40,3232           00002                           TC       Q
002218: 40,3233           04145                           TC       ALMCYCLE                              #  UF    ALARM AND RECYCLE.
002219:
002220: 42,3452                                           SETLOC   ENDSPMIN   +1
002221:
002222: 42,3452                                           COUNT*   $$/PIN


002224: 42,3452           03573        HMSIN              TC       ALL3DEC                               #  IF ALL 3 WORDS WERE NOT LOADED, ALARM.
002225: 42,3453           07106                           TC       DMP                                   #  XREG, XREGLP (=HOURS) WERE ALREADY PUT
002226: 42,3454           03534                           ADRES    WHOLECON                              #  INTO MPAC, MPAC+1.
002227: 42,3455           03543                           TC       RND/TST                               #  ROUND OFF TO WHOLE HRS IN MPAC+1.
002228: 42,3456           34755                           CAF      ZERO                                  #  ALARM IF MPAC NON ZERO (G/ 16383).
002229: 42,3457           54156                           TS       MPAC       +2
002230: 42,3460           33536                           CAF      HRCON
002231: 42,3461           54154                           TS       MPAC
002232: 42,3462           33537                           CAF      HRCON      +1
002233: 42,3463           56155                           XCH      MPAC       +1
002234: 42,3464           07312                           TC       SHORTMP
002235: 42,3465           03554                           TC       MPACTST                               #  ALARM IF MPAC NON ZERO (G/ 745)
002236: 42,3466           52156                           DXCH     MPAC       +1                         #  STORE HOURS CONTRIBUTION
002237: 42,3467           52124                           DXCH     HITEMIN
002238: 42,3470           31003                           CA       YREG                                  #  PUT YREG, YREGLP INTO MPAC, +1.
002239: 42,3471           23006                           LXCH     YREGLP
002240: 42,3472           52155                           DXCH     MPAC
002241: 42,3473           07106                           TC       DMP
002242: 42,3474           03534                           ADRES    WHOLECON
002243: 42,3475           03543                           TC       RND/TST                               #  ROUND OFF TO WHOLE MIN IN MPAC+1
002244: 42,3476           43541                           CS       59MIN                                 #  ALARM IF MPAC NON ZERO (G/16383)
002245: 42,3477           03561                           TC       SIZETST                               #  ALARM IF MPAC+1 G/ 59MIN
002246: 42,3500           56155                           XCH      MPAC       +1
002247: 42,3501           00006                           EXTEND
002248: 42,3502           73540                           MP       MINCON                                #  LEAVES MINUTES CONTRIBUTION IN A,L
002249: 42,3503           20124                           DAS      HITEMIN                               #  ADD IN MINUTES CONTRIBUTION
002250: 42,3504           00006                           EXTEND                                         #  IF THIS DAS OVERFLOWS, G/ 745 HR, 39MIN
002251: 42,3505           13507                           BZF      +2
002252: 42,3506           04145                           TC       ALMCYCLE
002253: 42,3507           31004                           CA       ZREG                                  #  PUT ZREG, ZREGLP INTO MPAC, +1.
002254: 42,3510           23007                           LXCH     ZREGLP
002255: 42,3511           52155                           DXCH     MPAC
002256: 42,3512           07106                           TC       DMP
002257: 42,3513           03534                           ADRES    WHOLECON
002258: 42,3514           03543                           TC       RND/TST                               #  ROUND OFF TO WHOLE CENTI-SEC IN MPAC+1
002259: 42,3515           43542                           CS       59.99SEC                              #  ALARM IF MPAC NON ZERO (G/163.83 SEC)
002260: 42,3516           03561                           TC       SIZETST                               #  ALARM IF MPAC+1 G/59.99 SEC
002261: 42,3517           52124                           DXCH     HITEMIN                               #  ADD IN SECONDS CONTRIBUTION
002262: 42,3520           20155                           DAS      MPAC                                  #  IF THIS DAS OVERFLOWS,
002263: 42,3521           00006                           EXTEND                                         #  G/ 745 HR, 39 MIN, 14.55 SEC.
002264: 42,3522           13524                           BZF      +2
002265: 42,3523           04145                           TC       ALMCYCLE                              #  ALARM AND RECYCLE
002266: 42,3524           34755                           CAF      ZERO
002267: 42,3525           54156                           TS       MPAC       +2
002268: 42,3526           07262                           TC       TPAGREE
002269: 42,3527           52155                           DXCH     MPAC
002270: 42,3530           50145                           INDEX    NOUNADD
002271: 42,3531           52001                           DXCH     0
002272: 42,3532           04635                           TC       POSTJUMP
002273: 42,3533           63020                           CADR     LOADLV
002274:


002276: 42,3534           00006        WHOLECON           OCT      00006                                 #  (10EXP5/2EXP14)2EXP14
002277: 42,3535           03240                           OCT      03240
002278: 42,3536           00025        HRCON              OCT      00025                                 #  1 HOUR IN CENTI-SEC
002279: 42,3537           37100                           OCT      37100
002280: 42,3540           13560        MINCON             OCT      13560                                 #  1 MINUTE IN CENTI-SEC
002281: 42,3541           00073        59MIN              OCT      00073                                 #  59 AS WHOLE
002282: 42,3542           13557        59.99SEC           OCT      13557                                 #  5999 CENTI-SEC
002283:
002284: 42,3543           56156        RND/TST            XCH      MPAC       +2                         #  ROUNDS MPAC+2 INTO MPAC+1.
002285: 42,3544           60000                           DOUBLE                                         #  ALARMS IF MPAC NOT 0
002286: 42,3545           54156                           TS       MPAC       +2
002287: 42,3546           34755                           CAF      ZERO
002288: 42,3547           60155                           AD       MPAC       +1
002289: 42,3550           54155                           TS       MPAC       +1
002290: 42,3551           34755                           CAF      ZERO
002291: 42,3552           60154                           AD       MPAC                                  #  CANT OVFLOW
002292: 42,3553           56154                           XCH      MPAC
002293: 42,3554           10154        MPACTST            CCS      MPAC                                  #  ALARM IF MPAC NON ZERO
002294: 42,3555           04145                           TC       ALMCYCLE                              #  ALARM AND RECYCLE.
002295: 42,3556           00002                           TC       Q
002296: 42,3557           04145                           TC       ALMCYCLE                              #  ALARM AND RECYCLE.
002297: 42,3560           00002                           TC       Q
002298:
002299: 42,3561           54156        SIZETST            TS       MPAC       +2                         #  CALLED WITH - CON IN A
002300: 42,3562           10155                           CCS      MPAC       +1                         #  GET MAG OF MPAC+1
002301: 42,3563           64753                           AD       ONE
002302: 42,3564           13566                           TCF      +2
002303: 42,3565           64753                           AD       ONE
002304: 42,3566           60156                           AD       MPAC       +2
002305: 42,3567           00006                           EXTEND                                         #  MAG OF MPAC+1 - CON
002306: 42,3570           63572                           BZMF     +2
002307: 42,3571           04145                           TC       ALMCYCLE                              #  MAG OF MPAC+1 G/ CON.  ALARM AND RECYCLE.
002308: 42,3572           00002                           TC       Q                                     #  MAG OF MPAC+1 L/= CON
002309:
002310:                                                                                                  #  ALL3DEC TESTS THAT ALL 3 WORDS ARE LOADED IN DEC (FOR HMSIN).
002311:                                                                                                  #  ALARM IF NOT.  (TEST THAT BITS 3,4,5 OF DECBRNCH ARE ALL = 1)
002312:
002313: 42,3573           43600        ALL3DEC            CS       OCT34BAR                              #  GET BITS 3,4,5 IN A
002314: 42,3574           70777                           MASK     DECBRNCH                              #  GET BITS 3,4,5 OF DECBRNCH IN A
002315: 42,3575           63600                           AD       OCT34BAR                              #  BITS 3,4,5 OF DECBRNCH MUST ALL = 1
002316: 42,3576           10000                           CCS      A
002317: 42,3577           03603                           TC       FORCEV25
002318: 42,3600           77743        OCT34BAR           OCT      77743
002319: 42,3601           03603                           TC       FORCEV25
002320: 42,3602           00002                           TC       Q
002321:
002322: 42,3603           46010        FORCEV25           CS       OCT31                                 #  FORCE VERB 25 TO BE EXECUTED BY RECYCLE
002323: 42,3604           55040                           TS       VERBSAVE                              #  IN CASE OPERATOR EXECUTED A LOWER LOAD


002325: 42,3605           04145                           TC       ALMCYCLE                              #  VERB.  ALARM AND RECYCLE.
002326: 42,3606                        ENDHMSS            EQUALS
002327:


002329:                                                                                                  #  MONITOR ALLOWS OTHER KEYBOARD ACTIVITY.  IT IS ENDED BY VERB TERMINATE,
002330:                                                                                                  #  VERB PROCEED WITHOUT DATA, VERB RESEQUENCE,
002331:                                                                                                  #  ANOTHER MONITOR, OR ANY NVSUB CALL THAT PASSES THE DSPLOCK (PROVIDED
002332:                                                                                                  #  THAT THE OPERATOR HAS SOMEHOW ALLOWED THE ENDING OF A MONITOR WHICH
002333:                                                                                                  #  HE HAS INITIATED THROUGH THE KEYBOARD).
002334:
002335:                                                                                                  #  MONITOR ACTION IS SUSPENDED, BUT NOT ENDED, BY ANY KEYBOARD ACTION,
002336:                                                                                                  #  EXCEPT ERROR LIGHT RESET.  IT BEGINS AGAIN WHEN KEY RELEASE IS PERFORMED.
002337:                                                                                                  #  MONITOR SAVES THE NOUN AND APPROPRIATE DISPLAY VERB IN MONSAVE.  IT SAVES
002338:                                                                                                  #  NOUNCADR IN MONSAVE1, IF NOUN = MACHINE CADR TO BE SPECIFIED.  BIT 15 OF
002339:                                                                                                  #  MONSAVE1 IS THE KILL MONITOR SIGNAL (KILLER BIT).  BIT 14 OF MONSAVE1
002340:                                                                                                  #  INDICATES THE CURRENT MONITOR WAS EXTERNALLY INITIATED (EXTERNAL
002341:                                                                                                  #  MONITOR BIT).  IT IS TURNED OFF BY RELDSP AND KILMONON.
002342:
002343:                                                                                                  #  MONSAVE INDICATES IF MONITOR IS ON (+=ON, +0=OFF)
002344:                                                                                                  #  IF MONSAVE IS +, MONITOR ENTERS NO REQUEST, BUT TURNS KILLER BIT OFF.
002345:                                                                                                  #  IF MONSAVE IS +0, MONITOR ENTERS REQUEST AND TURNS KILLER BIT OFF.
002346:
002347:                                                                                                  #  NVSUB (IF EXTERNAL MONITOR BIT IS OFF), VB=PROCEED WITHOUT DATA,
002348:                                                                                                  #  VB=RESEQUENCE, AND VB=TERMINATE TURN KILL MONITOR BIT ON.
002349:
002350:                                                                                                  #  IF KILLER BIT IS ON, MONREQ ENTERS NO FURTHER REQUESTS, ZEROS MONSAVE
002351:                                                                                                  #  AND MONSAVE1 (TURNING OFF KILLER BIT AND EXTERNAL MONITOR BIT).
002352:
002353:                                                                                                  #  MONITOR DOSENT TEST FOR MATBS SINCE NVSUB CAN HANDLE INTERNAL MATBS NOW
002354:
002355: 41,3255                                           SETLOC   ENDRUTIN
002356:
002357: 41,3255                                           COUNT*   $$/PIN
002358: 41,3255           43264        MONITOR            CS       BIT15/14
002359: 41,3256           71016                           MASK     NOUNCADR
002360: 41,3257           54155        MONIT1             TS       MPAC       +1                         #  TEMP STORAGE
002361: 41,3260           40136                           CS       ENTEXIT
002362: 41,3261           64217                           AD       ENDINST
002363: 41,3262           10000                           CCS      A
002364: 41,3263           03272                           TC       MONIT2
002365: 41,3264           60000        BIT15/14           OCT      60000
002366: 41,3265           03272                           TC       MONIT2
002367: 41,3266           34736                           CAF      BIT14                                 #  EXTERNALLY INITIATED MONITOR,
002368: 41,3267           26155                           ADS      MPAC       +1                         #  SET BIT 14 FOR MONSAVE1.
002369: 41,3270           34755                           CAF      ZERO
002370: 41,3271           55021                           TS       MONSAVE2                              #  ZERO NVMONOPT OPTIONS
002371: 41,3272           36077        MONIT2             CAF      LOW7
002372: 41,3273           71000                           MASK     VERBREG
002373: 41,3274           04331                           TC       LEFT5
002374: 41,3275           54022                           TS       CYL
002375: 41,3276           40022                           CS       CYL
002376: 41,3277           56022                           XCH      CYL
002377: 41,3300           61001                           AD       NOUNREG
002378: 41,3301           54154                           TS       MPAC                                  #  TEMP STORAGE
002379: 41,3302           34755                           CAF      ZERO


002381: 41,3303           55011                           TS       DSPLOCK                               #  +0 INTO DSPLOCK SO MONITOR CAN RUN.
002382: 41,3304           11041                           CCS      CADRSTOR                              #  TURN OFF KR LITE IF CADRSTOR AND DSPLIST
002383: 41,3305           03307                           TC       +2                                    #  ARE BOTH EMPTY.  (LITE COMES ON IF NEW
002384: 41,3306           04502                           TC       RELDSP1                               #  MONITOR IS KEYED IN OVER OLD MONITOR.)
002385: 41,3307           00004                           INHINT
002386: 41,3310           11017                           CCS      MONSAVE
002387: 41,3311           03316                           TC       +5                                    #  IF MONSAVE WAS +, NO REQUEST
002388: 41,3312           34753                           CAF      ONE                                   #  IF MONSAVE WAS 0, REQUEST MONREQ
002389: 41,3313           05203                           TC       WAITLIST
002390: 41,3314     0776                                  EBANK=   DSPCOUNT
002391: 41,3314           03322 62101                     2CADR    MONREQ
002392:
002393: 41,3316           52155                           DXCH     MPAC                                  #  PLACE MONITOR VERB AND NOUN INTO MONSAVE
002394: 41,3317           53020                           DXCH     MONSAVE                               #  ZERO THE KILL MONITOR BIT
002395: 41,3320           00003                           RELINT                                         #  SET UP EXTERNAL MONITOR BIT
002396: 41,3321           00136                           TC       ENTRET
002397:
002398: 41,3322           04400        MONREQ             TC       LODSAMPT                              #  CALLED BY WAITLIST
002399: 41,3323           11020                           CCS      MONSAVE1                              #  TIME IS SNATCHED IN RUPT FOR NOUN 65
002400: 41,3324           03330                           TC       +4                                    #  IF KILLER BIT = 0, ENTER REQUESTS
002401: 41,3325           03330                           TC       +3                                    #  IF KILLER BIT = 0, ENTER REQUESTS
002402: 41,3326           03341                           TC       KILLMON                               #  IF KILLER BIT = 1, NO REQUESTS
002403: 41,3327           03341                           TC       KILLMON                               #  IF KILLER BIT = 1, NO REQUESTS
002404: 41,3330           33345                           CAF      MONDEL
002405: 41,3331           05203                           TC       WAITLIST                              #  ENTER WAITLIST REQUEST FOR MONREQ
002406: 41,3332     0776                                  EBANK=   DSPCOUNT
002407: 41,3332           03322 62101                     2CADR    MONREQ
002408:
002409: 41,3334           34355                           CAF      CHRPRIO
002410: 41,3335           05072                           TC       NOVAC                                 #  ENTER EXEC REQUEST FOR MONDO
002411: 41,3336     0776                                  EBANK=   DSPCOUNT
002412: 41,3336           03346 62101                     2CADR    MONDO
002413:
002414: 41,3340           05261                           TC       TASKOVER
002415:
002416: 41,3341           34755        KILLMON            CAF      ZERO                                  #  ZERO MONSAVE AND TURN KILLER BIT OFF
002417: 41,3342           55017                           TS       MONSAVE
002418: 41,3343           55020                           TS       MONSAVE1                              #  TURN OFF KILL MONITOR BIT.
002419: 41,3344           05261                           TC       TASKOVER                              #  TURN OFF EXTERNAL MONITOR BIT.
002420: 41,3345           00144        MONDEL             OCT      144                                   #  FOR 1 SEC MONITOR INTERVALS
002421:
002422: 41,3346           11020        MONDO              CCS      MONSAVE1                              #  CALLED BY EXEC
002423: 41,3347           03353                           TC       +4                                    #  IF KILLER BIT = 0, CONTINUE
002424: 41,3350           03353                           TC       +3                                    #  IF KILLER BIT = 0, CONTINUE
002425: 41,3351           05155                           TC       ENDOFJOB                              #  IN CASE TERMINATE CAME SINCE LAST MONREQ
002426: 41,3352           05155                           TC       ENDOFJOB                              #  IN CASE TERMINATE CAME SINCE LAST MONREQ
002427: 41,3353           11011                           CCS      DSPLOCK
002428: 41,3354           03376                           TC       MONBUSY                               #  NVSUB IS BUSY


002430: 41,3355           36077                           CAF      LOW7
002431: 41,3356           71017                           MASK     MONSAVE
002432: 41,3357           02321                           TC       UPDATNN    -1                         #  PLACE NOUN INTO NOUNREG AND DISPLAY IT
002433: 41,3360           34144                           CAF      MID7
002434: 41,3361           71017                           MASK     MONSAVE                               #  CHANGE MONITOR VERB TO DISPLAY VERB
002435: 41,3362           63374                           AD       MONREF                                #  -DEC10, STARTING IN BIT8
002436: 41,3363           54023                           TS       EDOP                                  #  RIGHT 7
002437: 41,3364           30023                           CA       EDOP
002438: 41,3365           55000                           TS       VERBREG
002439: 41,3366           33375                           CAF      MONBACK                               #  SET RETURN TO PASTEVB AFTER DATA DISPLAY
002440: 41,3367           54136                           TS       ENTRET
002441: 41,3370           43264                           CS       BIT15/14
002442: 41,3371           71020                           MASK     MONSAVE1                              #  PUT ECADR INTO MPAC +2.  INTMCTBS WILL
002443: 41,3372           54156                           TS       MPAC       +2                         #  DISPLAY IT AND SET NOUNCADR, NOUNADD,
002444: 41,3373           02046        ENDMONDO           TC       TESTNN                                #  EBANK.
002445:
002446:    4124                                           BLOCK    2
002447:
002448:    4000                                           SETLOC   FFTAG8
002449:    4000                                           BANK
002450:
002451:    4124                                           COUNT*   $$/PIN
002452:    4124           34144        PASTEVB            CAF      MID7
002453:    4125           71021                           MASK     MONSAVE2                              #  NVMONOPT PASTE OPTION
002454:    4126           00006                           EXTEND
002455:    4127           14131                           BZF      +2
002456:    4130           04132                           TC       PASTEOPT                              #  PASTE PLEASE VERB FOR NVMONOPT
002457:    4131           31017                           CA       MONSAVE                               #  PASTE MONITOR VERB - PASTE OPTION IS 0
002458:    4132           54023        PASTEOPT           TS       EDOP                                  #  RIGHT 7
002459:    4133           30023                           CA       EDOP                                  #  PLACE MONITOR VERB OR PLEASE VERB INTO
002460:    4134           04616                           TC       BANKCALL                              #        VERBREG AND DISPLAY IT.
002461:    4135           62341                           CADR     UPDATVB    -1
002462:    4136           34755                           CAF      ZERO                                  #  ZERO REQRET SO THAT PASTED VERBS CAN
002463:    4137           55012                           TS       REQRET                                #        BE EXECUTED BY OPERATOR.
002464:    4140           31021                           CA       MONSAVE2
002465:    4141           04255                           TC       BLANKSUB                              #  PROCESS NVMONOPT BLANK OPTION IF ANY
002466:    4142           04143                           TC       +1
002467:    4143           05155        ENDPASTE           TC       ENDOFJOB
002468:
002469:    4144           37600        MID7               OCT      37600
002470:
002471: 41,3374                                           SETLOC   ENDMONDO   +1
002472: 41,3374                                           COUNT*   $$/PIN
002473: 41,3374           75377        MONREF             OCT      75377                                 #  -DEC10, STARTING IN BIT8
002474: 41,3375           04124        MONBACK            ADRES    PASTEVB
002475:
002476: 41,3376           04374        MONBUSY            TC       RELDSPON                              #  TURN KEY RELEASE LIGHT
002477: 41,3377           05155                           TC       ENDOFJOB


002479:                                                                                                  #  DSPFMEM IS USED TO DISPLAY (IN OCTAL) ANY FIXED REGISTER.
002480:                                                                                                  #  IT IS USED WITH NOUN = MACHINE CADR TO BE SPECIFIED.  THE FCADR OF THE
002481:                                                                                                  #  DESIRED LOCATION IS THEN PUNCHED IN.  IT HANDLES F/F (FCADR 4000-7777)
002482:                                                                                                  #
002483:                                                                                                  #  FOR BANKS L/E 27, THIS IS ENOUGH.
002484:
002485:                                                                                                  #  FOR BANKS G/E 30, THE THIRD COMPONENT OF NOUN 26 (PRIO, ADRES, BBCON)
002486:                                                                                                  #  MUST BE PRELOADED WITH THE DESIRED SUPERBANK BITS (BITS 5,6,7).
002487:                                                                                                  #        V23N26 SHOULD BE USED.
002488:
002489:                                                                                                  #  SUMMARY
002490:                                                                                                  #  FOR BANKS L/E 27,                             V27N01E(FCADR)E
002491:                                                                                                  #  FOR BANKS G/E 30,     V23N26E(SUPERBITS)E     V27N01E(FCADR)E
002492:
002493: 41,3400           34317        DSPFMEM            CAF      R1D1                                  #  IF F/F, DATACALL USES BANK 02 OR 03.
002494: 41,3401           54776                           TS       DSPCOUNT
002495: 41,3402           31046                           CA       DSPTEM1    +2                         #  SUPERBANK BITS WERE PRELOADED INTO
002496: 41,3403           54001                           TS       L                                     #  3RD COMPONENT OF NOUN 26.
002497: 41,3404           31016                           CA       NOUNCADR                              #  ORIGINAL FCADR LOADED STILL IN NOUNCADR.
002498: 41,3405           04651                           TC       SUPDACAL                              #  CALL WITH FCADR IN A, SUPERBITS IN L.
002499: 41,3406           03410                           TC       DSPOCTWD
002500: 41,3407           05155        ENDSPF             TC       ENDOFJOB
002501:


002503:                                                                                                  #  WORD DISPLAY ROUTINES
002504: 40,3234                                           SETLOC   TESTOFUF   +4
002505: 40,3234                                           COUNT*   $$/PIN
002506:
002507: 40,3234           56002        DSPSIGN            XCH      Q
002508: 40,3235           54144                           TS       DSPWDRET
002509: 40,3236           10154                           CCS      MPAC
002510: 40,3237           03247                           TC       +8D
002511: 40,3240           03247                           TC       +7
002512: 40,3241           64753                           AD       ONE
002513: 40,3242           54154                           TS       MPAC
002514: 40,3243           02433                           TC       -ON
002515: 40,3244           40155                           CS       MPAC       +1
002516: 40,3245           54155                           TS       MPAC       +1
002517: 40,3246           00144                           TC       DSPWDRET
002518: 40,3247           02413                           TC       +ON
002519: 40,3250           00144                           TC       DSPWDRET
002520:
002521: 40,3251           00006        DSPRND             EXTEND                                         #  ROUND BY 5 EXP-6
002522: 40,3252           33315                           DCA      DECROUND   -1
002523: 40,3253           20155                           DAS      MPAC
002524: 40,3254           00006                           EXTEND
002525: 40,3255           13261                           BZF      +4
002526: 40,3256           00006                           EXTEND
002527: 40,3257           34733                           DCA      DPOSMAX
002528: 40,3260           52155                           DXCH     MPAC
002529: 40,3261           00002                           TC       Q
002530:
002531:                                                                                                  #  DSPDECWD CONVERTS C(MPAC,MPAC+1) INTO A SIGN AND 5 CHAR DECIMAL
002532:                                                                                                  #  STARTING IN LOC SPECIFIED IN DSPCOUNT.  IT ROUNDS BY 5 EXP-6.
002533:
002534: 40,3262           56002        DSPDECWD           XCH      Q
002535: 40,3263           54115                           TS       WDRET
002536: 40,3264           03234                           TC       DSPSIGN
002537: 40,3265           03251                           TC       DSPRND
002538: 40,3266           34751                           CAF      FOUR
002539: 40,3267           54137        DSPDCWD1           TS       WDCNT
002540: 40,3270           34363                           CAF      BINCON
002541: 40,3271           07312                           TC       SHORTMP
002542: 40,3272           50154        TRACE1             INDEX    MPAC
002543: 40,3273           34066                           CAF      RELTAB
002544: 40,3274           74346                           MASK     LOW5
002545: 40,3275           54124                           TS       CODE
002546: 40,3276           34755                           CAF      ZERO
002547: 40,3277           56156                           XCH      MPAC       +2
002548: 40,3300           56155                           XCH      MPAC       +1
002549: 40,3301           54154                           TS       MPAC
002550: 40,3302           56776                           XCH      DSPCOUNT
002551: 40,3303           54143        TRACE1S            TS       COUNT
002552: 40,3304           10000                           CCS      A                                     #  DECREMENT DSPCOUNT EXCEPT AT +0


002554: 40,3305           54776                           TS       DSPCOUNT
002555: 40,3306           03356                           TC       DSPIN
002556: 40,3307           10137                           CCS      WDCNT
002557: 40,3310           03267                           TC       DSPDCWD1
002558: 40,3311           44360                           CS       VD1
002559: 40,3312           54776                           TS       DSPCOUNT
002560: 40,3313           00115                           TC       WDRET
002561:
002562: 40,3314           00000                           OCT      00000
002563: 40,3315           02476        DECROUND           OCT      02476
002564:
002565:                                                                                                  #  DSPDECNR CONVERTS C(MPAC,MPAC+1) INTO A SIGN AND 5 CHAR DECIMAL
002566:                                                                                                  #  STARTING IN LOC SPECIFIED IN DSPCOUNT.  IT DOES NOT ROUND
002567:
002568: 40,3316           56002        DSPDECNR           XCH      Q
002569: 40,3317           54115                           TS       WDRET
002570: 40,3320           03234                           TC       DSPSIGN
002571: 40,3321           03266                           TC       DSPDCWD1   -1
002572:
002573:                                                                                                  #  DSPDC2NR CONVERTS C(MPAC,MPAC+1) INTO A SIGN AND 2 CHAR DECIMAL
002574:                                                                                                  #  STARTING IN LOC SPECIFIED IN DSPCOUNT.  IT DOES NOT ROUND
002575:
002576: 40,3322           56002        DSPDC2NR           XCH      Q
002577: 40,3323           54115                           TS       WDRET
002578: 40,3324           03234                           TC       DSPSIGN
002579: 40,3325           34753                           CAF      ONE
002580: 40,3326           03267                           TC       DSPDCWD1
002581:
002582:                                                                                                  #  DSP2DEC CONVERTS C(MPAC) AND C(MPAC+1) INTO A SIGN AND 10 CHAR DECIMAL
002583:                                                                                                  #  STARTING IN THE LOC SPECIFIED IN DSPCOUNT.
002584:
002585: 40,3327           56002        DSP2DEC            XCH      Q
002586: 40,3330           54115                           TS       WDRET
002587: 40,3331           34755                           CAF      ZERO
002588: 40,3332           54124                           TS       CODE
002589: 40,3333           36250                           CAF      THREE
002590: 40,3334           03440                           TC       11DSPIN                               #  -R2 OFF
002591: 40,3335           34751                           CAF      FOUR
002592: 40,3336           03440                           TC       11DSPIN                               #  +R2 OFF
002593: 40,3337           03234                           TC       DSPSIGN
002594: 40,3340           34320                           CAF      R2D1
002595: 40,3341           03267        END2DEC            TC       DSPDCWD1
002596:
002597:                                                                                                  #  DSPDECVN DISPLAYS C(A) UPON ENTRY AS A 2 CHAR DECIMAL BEGINNING IN THE
002598:                                                                                                  #  DSP LOC SPECIFIED IN DSPCOUNT.
002599:
002600:                                                                                                  #  C(A) SHOULD BE IN FORM N X 2EXP-14.  THIS IS SCALED TO FORM N/100 BEFORE
002601:                                                                                                  #  DISPLAY CONVERSION.
002602:


002604: 40,3342           00006        DSPDECVN           EXTEND
002605: 40,3343           73352                           MP       VNDSPCON                              #  MULT BY .01
002606: 40,3344           22154                           LXCH     MPAC                                  #  TAKE RESULTS FROM L. (MULT BY 2EXP14).
002607: 40,3345           34755                           CAF      ZERO
002608: 40,3346           54155                           TS       MPAC       +1
002609: 40,3347           56002                           XCH      Q
002610: 40,3350           54115                           TS       WDRET
002611: 40,3351           03325                           TC       DSPDC2NR   +3                         #  NO SIGN, NO ROUND, 2 CHAR
002612:
002613: 40,3352           00244        VNDSPCON           OCT      00244                                 #  .01 ROUNDED UP
002614:
002615: 40,3353           03342        GOVNUPDT           TC       DSPDECVN                              #  THIS IS NOT FOR GENERAL USE.  REALLY PART
002616: 40,3354           04635                           TC       POSTJUMP                              #  OF UPDATVB.
002617: 40,3355           62351                           CADR     UPDAT1     +2
002618:
002619: 40,3356                        ENDECVN            EQUALS
002620:
002621: 41,3410                                           SETLOC   ENDSPF     +1
002622: 41,3410                                           COUNT*   $$/PIN
002623:
002624:                                                                                                  #  DSPOCTWD DISPLAYS C(A) UPON ENTRY AS A 5 CHAR OCT STARTING IN THE DSP
002625:                                                                                                  #  CHAR SPECIFIED IN DSPCOUNT.  IT STOPS AFTER 5 CHAR HAVE BEEN DISPLAYED.
002626:
002627: 41,3410           54022        DSPOCTWD           TS       CYL
002628: 41,3411           56002                           XCH      Q
002629: 41,3412           54115                           TS       WDRET                                 #  MUST USE SAME RETURN AS DSP2BIT.
002630: 41,3413           34736                           CAF      BIT14                                 #  TO BLANK SIGNS
002631: 41,3414           26776                           ADS      DSPCOUNT
002632: 41,3415           34751                           CAF      FOUR
002633: 41,3416           54137        WDAGAIN            TS       WDCNT
002634: 41,3417           40022                           CS       CYL
002635: 41,3420           40022                           CS       CYL
002636: 41,3421           40022                           CS       CYL
002637: 41,3422           40000                           CS       A
002638: 41,3423           74757                           MASK     DSPMSK
002639: 41,3424           50000                           INDEX    A
002640: 41,3425           34066                           CAF      RELTAB
002641: 41,3426           74346                           MASK     LOW5
002642: 41,3427           54124                           TS       CODE
002643: 41,3430           56776                           XCH      DSPCOUNT
002644: 41,3431           54143                           TS       COUNT
002645: 41,3432           10000                           CCS      A                                     #  DECREMENT DSPCOUNT EXCEPT AT +0
002646: 41,3433           54776                           TS       DSPCOUNT
002647: 41,3434           04635                           TC       POSTJUMP
002648: 41,3435           61446                           CADR     DSPOCTIN
002649: 41,3436           10137        OCTBACK            CCS      WDCNT
002650: 41,3437           03416                           TC       WDAGAIN                               #  +
002651: 41,3440           44360        DSPLV              CS       VD1                                   #  TO BLOCK NUMERICAL CHARACTERS, CLEARS,
002652: 41,3441           54776                           TS       DSPCOUNT                              #  AND SIGNS AFTER A COMPLETED DISPLAY.


002654: 41,3442           00115                           TC       WDRET
002655:
002656: 41,3443     4757               DSPMSK             =        SEVEN
002657:
002658:                                                                                                  #  FOR DSPIN PLACE 0/25 OCT INTO COUNT, 5 BIT RELAY CODE INTO CODE.  BOTH
002659:                                                                                                  #  ARE DESTROYED.  IF BIT14 OF COUNT IS 1, SIGN IS BLANKED WITH LEFT CHAR.
002660:                                                                                                  #  FOR DSPIN1 PLACE 0,1 INTO BIT11 OF CODE, 2 INTO COUNT, REL ADDRESS OF
002661:                                                                                                  #  DSPTAB ENTRY INTO DSREL.
002662:
002663: 40,3356                                           SETLOC   ENDECVN
002664:
002665: 40,3356                                           COUNT*   $$/PIN
002666: 40,3356           56002        DSPIN              XCH      Q                                     #  CANT USE L FOR RETURN, SINCE MANYOF THE
002667: 40,3357           54114                           TS       DSEXIT                                #  ROUTINES CALLING DSPIN USE L AS RETURN.
002668: 40,3360           34346                           CAF      LOW5
002669: 40,3361           70143                           MASK     COUNT
002670: 40,3362           54021                           TS       SR
002671: 40,3363           56021                           XCH      SR
002672: 40,3364           54141                           TS       DSREL
002673: 40,3365           34753                           CAF      BIT1
002674: 40,3366           70143                           MASK     COUNT
002675: 40,3367           10000                           CCS      A
002676: 40,3370           03372                           TC       +2                                    #  LEFT IF COUNT IS ODD
002677: 40,3371           03402                           TC       DSPIN1     -1                         #  RIGHT IF COUNT IS EVEN
002678: 40,3372           56124                           XCH      CODE
002679: 40,3373           04340                           TC       SLEFT5                                #  DOES NOT USE CYL
002680: 40,3374           54124                           TS       CODE
002681: 40,3375           34736                           CAF      BIT14
002682: 40,3376           70143                           MASK     COUNT
002683: 40,3377           10000                           CCS      A
002684: 40,3400           34752                           CAF      TWO                                   #  BIT14 = 1, BLANK SIGN
002685: 40,3401           64753                           AD       ONE                                   #  BIT14 = 0, LEAVE SIGN ALONE
002686: 40,3402           54143                           TS       COUNT                                 #  +0 INTO COUNT FOR RIGHT
002687:                                                                                                  #  +1 INTO COUNT FOR LEFT (SIGN LEFT ALONE)
002688:                                                                                                  #  +3 INTO COUNT FOR LEFT (TO BLANK SIGN)
002689: 40,3403           00004        DSPIN1             INHINT
002690: 40,3404           50141                           INDEX    DSREL
002691: 40,3405           11022                           CCS      DSPTAB
002692: 40,3406           03410                           TC       +2                                    #  IF +
002693: 40,3407           05675                           TC       CCSHOLE
002694: 40,3410           64753                           AD       ONE                                   #  IF -
002695: 40,3411           54142                           TS       DSMAG
002696: 40,3412           50143                           INDEX    COUNT
002697: 40,3413           73434                           MASK     DSMSK
002698: 40,3414           00006                           EXTEND
002699: 40,3415           60124                           SU       CODE
002700: 40,3416           00006                           EXTEND
002701: 40,3417           13432                           BZF      DSLV                                  #  SAME
002702: 40,3420           50143        DFRNT              INDEX    COUNT


002704: 40,3421           43434                           CS       DSMSK                                 #  MASK WITH 77740, 76037, 75777, OR 74037
002705: 40,3422           70142                           MASK     DSMAG
002706: 40,3423           60124                           AD       CODE
002707: 40,3424           40000                           CS       A
002708: 40,3425           50141                           INDEX    DSREL
002709: 40,3426           57022                           XCH      DSPTAB
002710: 40,3427           00006                           EXTEND
002711: 40,3430           63432                           BZMF     DSLV                                  #  DSPTAB ENTRY WAS -
002712: 40,3431           25015                           INCR     NOUT                                  #  DSPTAB ENTRY WAS +
002713: 40,3432           00003        DSLV               RELINT
002714: 40,3433           00114                           TC       DSEXIT
002715:
002716: 40,3434           00037        DSMSK              OCT      37
002717: 40,3435           01740                           OCT      1740
002718: 40,3436           02000                           OCT      2000
002719: 40,3437           03740                           OCT      3740
002720:
002721:                                                                                                  #  FOR 11DSPIN, PUT REL ADDRESSS OF DSPTAB ENTRY INTO A, 1 IN BIT11 OR 0 IN
002722:                                                                                                  #  BIT11 OF CODE.
002723:
002724: 40,3440           54141        11DSPIN            TS       DSREL
002725: 40,3441           34752                           CAF      TWO
002726: 40,3442           54143                           TS       COUNT
002727: 40,3443           56002                           XCH      Q                                     #  MUST USE SAME RETURN AS DSPIN
002728: 40,3444           54114                           TS       DSEXIT
002729: 40,3445           03403                           TC       DSPIN1
002730:
002731: 40,3446           03356        DSPOCTIN           TC       DSPIN                                 #  SO DSPOCTWD DOESNT USE SWCALL
002732: 40,3447           33451                           CAF      +2
002733: 40,3450           04640                           TC       BANKJUMP
002734: 40,3451           63436        ENDSPOCT           CADR     OCTBACK
002735:
002736:                                                                                                  #  DSPALARM FINDS TC NVSUBEND IN ENTRET FOR NVSUB INITIATED ROUTINES.
002737:                                                                                                  #  ABORT WITH 01501.
002738:
002739:                                                                                                  #  DSPALARM FINDS TC ENDOFJOB IN ENTRET FOR KEYBOARD INITIATED ROUTINES.
002740:                                                                                                  #  DO TC ENTRET.
002741:
002742: 40,3452           44360        PREDSPAL           CS       VD1
002743: 40,3453           54776                           TS       DSPCOUNT
002744: 40,3454           43475        DSPALARM           CS       NVSBENDL
002745: 40,3455           60136                           AD       ENTEXIT
002746: 40,3456           00006                           EXTEND
002747: 40,3457           13472                           BZF      CHARALRM   +2
002748: 40,3460           43474                           CS       MONADR                                #  IF THIS IS A MONITOR, KILL IT
002749: 40,3461           60136                           AD       ENTEXIT
002750: 40,3462           00006                           EXTEND
002751: 40,3463           13465                           BZF      +2


002753: 40,3464           03470                           TC       CHARALRM
002754: 40,3465           04204                           TC       KILMONON
002755: 40,3466           04364                           TC       FALTON
002756: 40,3467           04124                           TC       PASTEVB                               #  PUT MONITOR VERB BACK IN VERBREG
002757: 40,3470           04364        CHARALRM           TC       FALTON                                #  NOT NVSUB INITIATED. TURN ON OPR ERROR
002758: 40,3471           05155                           TC       ENDOFJOB
002759: 40,3472           05642                           TC       POODOO
002760: 40,3473           21501                           OCT      21501
002761: 40,3474           04124        MONADR             GENADR   PASTEVB
002762: 40,3475           04202        NVSBENDL           TC       NVSUBEND
002763:
002764:                                                                                                  #  ALMCYCLE TURNS ON CHECK FAIL LIGHT, REDISPLAYS THE ORIGINAL VERB THAT
002765:                                                                                                  #  WAS EXECUTED, AND RECYCLES TO EXECUTE THE ORIGINAL VERB/NOUN COMBINATION
002766:                                                                                                  #  THAT WAS LAST EXECUTED.  USED FOR BAD DATA DURING LOAD VERBS AND BY
002767:                                                                                                  #  MCTBS.  ALSO BY MMCHANG IF 2 NUMERICAL CHARACTERS WERE NOT PUNCHED IN
002768:                                                                                                  #  FOR MM CODE.
002769:
002770:    4145                                           SETLOC   MID7       +1
002771:    4145                                           COUNT*   $$/PIN
002772:    4145           04364        ALMCYCLE           TC       FALTON                                #  TURN ON CHECK FAIL LIGHT.
002773:    4146           41040                           CS       VERBSAVE                              #  GET ORIGINAL VERB THAT WAS EXECUTED
002774:    4147           55012                           TS       REQRET                                #  SET FOR ENTPAS0
002775:    4150           04616                           TC       BANKCALL                              #  PUTS ORIGINAL VERB INTO VERBREG AND
002776:    4151           62341                           CADR     UPDATVB    -1                         #  DISPLAYS IT IN VERB LIGHTS.
002777:    4152           04635                           TC       POSTJUMP
002778:    4153           62002        ENDALM             CADR     ENTER
002779:
002780:                                                                                                  #  MMCHANG USES NOUN DISPLAY UNTIL ENTER.  THEN IT USES MODE DISP.
002781:                                                                                                  #  IT GOES TO MODROUT WITH THE NEW MM CODE IN A, BUT NOT DISPLAYED IN
002782:                                                                                                  #  MM LIGHTS.
002783:
002784:                                                                                                  #  IT DEMANDS 2 NUMERICAL CHARACTERS BE PUNCHED IN FOR NEW MM CODE.
002785:                                                                                                  #  IF NOT, IT RECYCLES.
002786:
002787: 41,3443                                           SETLOC   DSPLV      +3
002788: 41,3443                                           COUNT*   $$/PIN
002789: 41,3443           03465        MMCHANG            TC       REQMM                                 #  ENTPASHI ASSUMES THE TC REQMM AT MMCHANG
002790:                                                                                                  #  IF THIS MOVES AT ALL, MUST CHANGE
002791:                                                                                                  #  MMADREF AT ENTPASHI.
002792: 41,3444           34747                           CAF      BIT5                                  #  OCT20 = ND2.
002793: 41,3445           60776                           AD       DSPCOUNT                              #  DSPCOUNT MUST = -ND2.
002794: 41,3446           00006                           EXTEND                                         #  DEMAND THAT 2 NUM CHAR WERE PUNCHED IN.
002795: 41,3447           13451                           BZF      +2
002796: 41,3450           04145                           TC       ALMCYCLE                              #  DSPCOUNT NOT= -ND2.  ALARM AND RECYCLE.
002797: 41,3451           34755                           CAF      ZERO                                  #  DSPCOUNT = -ND2.
002798: 41,3452           57001                           XCH      NOUNREG
002799: 41,3453           54154                           TS       MPAC
002800: 41,3454           34361                           CAF      ND1
002801: 41,3455           54776                           TS       DSPCOUNT


002803: 41,3456           04616                           TC       BANKCALL
002804: 41,3457           60601                           CADR     2BLANK
002805: 41,3460           44360                           CS       VD1                                   #  BLOCK NUM CHAR IN
002806: 41,3461           54776                           TS       DSPCOUNT
002807: 41,3462           30154                           CA       MPAC
002808: 41,3463           04635                           TC       POSTJUMP
002809: 41,3464           10040                           CADR     MODROUTB                              #  GO THRU STANDARD LOC.
002810:
002811: 41,3465  04,2040               MODROUTB           =        V37
002812: 41,3465           40002        REQMM              CS       Q
002813: 41,3466           55012                           TS       REQRET
002814: 41,3467           34361                           CAF      ND1
002815: 41,3470           54776                           TS       DSPCOUNT
002816: 41,3471           34755                           CAF      ZERO
002817: 41,3472           55001                           TS       NOUNREG
002818: 41,3473           04616                           TC       BANKCALL
002819: 41,3474           60601                           CADR     2BLANK
002820: 41,3475           04427                           TC       FLASHON
002821: 41,3476           34753                           CAF      ONE
002822: 41,3477           54777                           TS       DECBRNCH                              #  SET FOR DEC
002823: 41,3500           00136                           TC       ENTEXIT
002824:
002825:                                                                                                  #  VBRQEXEC ENTERS REQUEST TO EXEC FOR ANY ADDRESS WITH ANY PRIORITY.
002826:                                                                                                  #  IT DOES ENDOFJOB AFTER ENTERING REQUEST.  DISPLAY SYST IS RELEASED.
002827:                                                                                                  #  IT ASSUMES NOUN 26 HAS BEEN PRELOADED WITH
002828:                                                                                                  #        COMPONENT 1     PRIORITY (BITS 10-14) BIT1=0 FOR NOVAC, BIT1=1 FOR FINDVAC.
002829:                                                                                                  #        COMPONENT 2     JOB ADRES (12 BIT)
002830:                                                                                                  #        COMPONENT 3     BBCON
002831:
002832: 41,3501           34753        VBRQEXEC           CAF      BIT1
002833: 41,3502           71044                           MASK     DSPTEM1
002834: 41,3503           10000                           CCS      A
002835: 41,3504           03523                           TC       SETVAC                                #  IF BIT1 = 1, FINDVAC
002836: 41,3505           34351                           CAF      TCNOVAC                               #  IF BIT1 = 0, NOVAC
002837: 41,3506           54154        REQEX1             TS       MPAC                                  #  TC NOVAC OR TC FINDVAC INTO MPAC
002838: 41,3507           44753                           CS       BIT1
002839: 41,3510           71044                           MASK     DSPTEM1
002840: 41,3511           54160                           TS       MPAC       +4                         #  PRIO INTO MPAC+4 AS A TEMP
002841: 41,3512           04457        REQUESTC           TC       RELDSP
002842: 41,3513           34217                           CA       ENDINST
002843: 41,3514           54157                           TS       MPAC       +3                         #  TC ENDOFJOB INTO MPAC+3
002844: 41,3515           00006                           EXTEND
002845: 41,3516           31046                           DCA      DSPTEM1    +1                         #  JOB ADRES INTO MPAC+1
002846: 41,3517           52156                           DXCH     MPAC       +1                         #  BBCON INTO MPAC+2
002847: 41,3520           30160                           CA       MPAC       +4                         #  PRIO IN A
002848: 41,3521           00004                           INHINT
002849: 41,3522           00154                           TC       MPAC


002851: 41,3523           34354        SETVAC             CAF      TCFINDVC
002852: 41,3524           03506                           TC       REQEX1
002853:
002854:                                                                                                  #  VBRQWAIT ENTERS REQUEST TO WAITLIST FOR ANY ADDRESS WITH ANY DELAY.
002855:                                                                                                  #  IT DOES ENDOFJOB AFTER ENTERING REQUEST.  DISPLAY SYST IS RELEASED.
002856:                                                                                                  #  IT ASSUMES NOUN 26 HAS BEEN PRELOADED WITH
002857:                                                                                                  #        COMPONENT 1     DELAY (LOW BITS)
002858:                                                                                                  #        COMPONENT 2     TASK ADRES (12 BIT)
002859:                                                                                                  #        COMPONENT 3     BBCON
002860:
002861: 41,3525           34352        VBRQWAIT           CAF      TCWAIT
002862: 41,3526           54154                           TS       MPAC                                  #  TC WAITLIST INTO MPAC
002863: 41,3527           31044                           CA       DSPTEM1                               #  TIME DELAY
002864: 41,3530           03511        ENDRQWT            TC       REQUESTC   -1
002865:
002866:                                                                                                  #  REQUESTC WILL PUT TASK ADRES INTO MPAC+1, BBCON INTO MPAC+2,
002867:                                                                                                  #  TC ENDOFJOB INTO MPAC+3.  IT WILL TAKE TIME DELAY OUT OF MPAC+4 AND
002868:                                                                                                  #  LEAVE IT IN A, INHINT AND TC MPAC.
002869:
002870: 40,3476                                           SETLOC   NVSBENDL   +1
002871: 40,3476                                           COUNT*   $$/PIN
002872: 40,3476           34753        VBPROC             CAF      ONE                                   #  PROCEED WITHOUT DATA
002873: 40,3477           55013                           TS       LOADSTAT
002874: 40,3500           04204                           TC       KILMONON                              #  TURN ON KILL MONITOR BIT
002875: 40,3501           04457                           TC       RELDSP
002876: 40,3502           04433                           TC       FLASHOFF
002877: 40,3503           03612                           TC       RECALTST                              #  SEE IF THERE IS ANY RECALL FROM ENDIDLE
002878:
002879: 40,3504           44753        VBTERM             CS       ONE
002880: 40,3505           03477                           TC       VBPROC     +1                         #  TERM VERB SETS LOADSTAT NEG
002881:
002882:                                                                                                  #  PROCKEY PERFORMS THE SAME FUNCTION AS VBPROC.  IT MUST BE CALLED UNDER
002883:                                                                                                  #  EXECUTIVE CONTROL, WITH CHRPRIO.
002884:
002885: 40,3506           41000        PROCKEY            CS       VERBREG                               #  DONT ALLOW PROCEED DURING LOAD.
002886: 40,3507           63523                           AD       VBSP2LD*                              #  DEC 22
002887: 40,3510           00006                           EXTEND
002888: 40,3511           26000                           DIM      A
002889: 40,3512           00006                           EXTEND
002890: 40,3513           13470                           BZF      CHARALRM
002891: 40,3514           34755        PROCKEY1           CAF      ZERO                                  #  SET REQRET FOR ENTER PASS 0.
002892: 40,3515           55012                           TS       REQRET
002893: 40,3516           44360                           CS       VD1                                   #  BLOCK NUMERICAL CHARACTERS, SIGNS, CLEAR
002894: 40,3517           54776                           TS       DSPCOUNT
002895: 40,3520           03476                           TC       VBPROC
002896:
002897:                                                                                                  #  VBRESEQ WAKES ENDIDLE AT SAME LINE AS FINAL ENTER OF LOAD (L+3).


002899:                                                                                                  #  (MAIN USE IS INTENDED AS RESPONSE TO INTERNALLY INITIATED FLASHING
002900:                                                                                                  #  DISPLAYS IN ENDIDLE.  SHOULD NOT BE USED WITH LOAD VERBS, PLEASE PERFORM,
002901:                                                                                                  #  OR PLEASE MARK VERBS BECAUSE THEY ALREADY USE L+3 IN ANOTHER CONTEXT.)
002902:
002903: 40,3521           44755        VBRESEQ            CS       ZERO                                  #  MAKE IT LOOK LIKE DATA IN.
002904: 40,3522           03477                           TC       VBPROC     +1
002905:
002906: 40,3523           00026        VBSP2LD*           DEC      22         B-14                       #  VB22 = BLOAD
002907:
002908:                                                                                                  #  FLASH IS TURNED OFF BY PROCEED WITHOUT DATA, TERMINATE, RESEQUENCE,
002909:                                                                                                  #  END OF LOAD.


002911:
002912:                                                                                                  #  KEY RELEASE ROUTINE
002913:
002914:                                                                                                  #  THIS ROUTINE ALWAYS TURNS OFF THE UPACT LIGHT AND ALWAYS CLEARS DSPLOCK.
002915:
002916:                                                                                                  #  THE HIGHEST PRIORITY FUNCTION OF THE KEY RELEASE BUTTON IS THE
002917:                                                                                                  #  UNSUSPENDING OF A SUSPENDED MONITOR WHICH WAS EXTERNALLY INITIATED.
002918:                                                                                                  #  THIS FUNCTION IS ACCOMPLISHED BY CLEARING DSPLOCK AND TURNING OFF
002919:                                                                                                  #  THE KEY RELEASE LIGHT IF BOTH DSPLIST AND CADRSTOR ARE EMPTY.
002920:
002921:                                                                                                  #  IF NO SUCH MONITOR EXISTS, THEN RELDSP IS EXECUTED TO CLEAR DSPLOCK
002922:                                                                                                  #  AND THE EXTERNAL MONITOR BIT (FREEING THE DISPLAY SYSTEM FOR INTERNAL
002923:                                                                                                  #  USE), TURN OFF THE KEY RELEASE LIGHT, AND WAKE UP ANY JOB IN DSPLIST.
002924:
002925:                                                                                                  #  IN ADDITION IF THERE IS A JOB IN ENDIDLE, THEN CONTROL IS TRANSFERRED
002926:                                                                                                  #  TO PINBRNCH (IN DISPLAY INTERFACE ROUTINE) TO RE-EXECUTE THE SERIES OF
002927:                                                                                                  #  NVSUB CALLS ETC. THAT PRECEDED THE ENDIDLE CALL STILL AWAITING RESPONSE.
002928:                                                                                                  #  THIS FEATURE IS INTENDED FOR USE WHEN THE OPERATOR HAS BEEN REQUESTED TO
002929:                                                                                                  #  RESPOND TO SOME INTERNAL ACTION THAT USED ENDIDLE, BUT HE HAS WRITTEN
002930:                                                                                                  #  OVER THE INFORMATION ON THE DISPLAY PANEL BY SOME DISPLAYS OF HIS OWN
002931:                                                                                                  #  INITIATION WHICH DO NOT SERVE AS RESPONSES.  HITTING KEYRLSE WILL
002932:                                                                                                  #  RE-ESTABLISH THE DISPLAYS TO THE STATE THEY WERE IN BEFORE HE OBSCURED
002933:                                                                                                  #  THEM, SO THAT HE CAN SEE THE WAITING REQUEST.  THIS WORKS ONLY FOR
002934:                                                                                                  #  INTERNAL PROGRAMS THAT USED ENDIDLE THROUGH MARGARETS DISPLAY
002935:                                                                                                  #  SUBROUTINES.
002936:
002937: 40,3524           44751        VBRELDSP           CS       BIT3
002938: 40,3525           00006                           EXTEND
002939: 40,3526           03011                           WAND     DSALMOUT                              #  TURN OFF UPACT LITE
002940: 40,3527           10115                           CCS      21/22REG                              #  OLD DSPLOCK
002941: 40,3530           34736                           CAF      BIT14
002942: 40,3531           71020                           MASK     MONSAVE1                              #  EXTERNAL MONITOR BIT (EMB)
002943: 40,3532           10000                           CCS      A
002944: 40,3533           03542                           TC       UNSUSPEN                              #  OLD DSPLOCK AND EMB BOTH 1, UNSUSPEND.
002945: 40,3534           04457        TSTLTS4            TC       RELDSP                                #  NOT UNSUSPENDING EXTERNAL MONITOR,
002946: 40,3535           11041                           CCS      CADRSTOR                              #        RELEASE DISPLAY SYSTEM AND
002947: 40,3536           03540                           TC       +2                                    #        DO RE-ESTABLISH IF CADRSTOR IS FULL.
002948: 40,3537           05155                           TC       ENDOFJOB
002949: 40,3540           04635                           TC       POSTJUMP
002950: 40,3541           21051                           CADR     PINBRNCH
002951: 40,3542           34755        UNSUSPEN           CAF      ZERO                                  #  EXTERNAL MONITOR IS SUSPENDED,
002952: 40,3543           55011                           TS       DSPLOCK                               #        JUST UNSUSPEND IT BY CLEARING DSPLOCK.
002953: 40,3544           11041                           CCS      CADRSTOR                              #        TURN KEY RELEASE LIGHT OFF IF BOTH
002954: 40,3545           05155                           TC       ENDOFJOB                              #        CADRSTOR AND DSPLIST ARE EMPTY.
002955: 40,3546           04502                           TC       RELDSP1
002956: 40,3547           05155                           TC       ENDOFJOB
002957:
002958: 40,3550                        ENDRELDS           EQUALS
002959:


002961:                                                                                                  #  NVSUB IS USED FOR SUBROUTINE CALLS FROM WITHIN COMPUTER.  IT CAN BE
002962:                                                                                                  #  USED TO CALL THE COMBINATION OF ANY DISPLAY, LOAD, OR MONITOR VERB
002963:                                                                                                  #  TOGETHER WITH ANY NOUN AVAILABLE TO THE KEYBOARD.
002964:                                                                                                  #  PLACE 0VVVVVVVNNNNNNN INTO A.
002965:                                                                                                  #  V-S ARE THE 7 BIT VERB CODE.  N-S ARE THE 7 BIT NOUN CODE.
002966:
002967:                                                                                                  #  IF NVSUB IS CALLED WITH THE FOLLOWING NEGATIVE NUMBERS (RATHER THAN THE
002968:                                                                                                  #  VERB-NOUN CODE) IN A, THEN THE DISPLAY IS BLANKED AS FOLLOWS-
002969:                                                                                                  #  -4 FULL BLANK, -3 LEAVE MODE, -2 LEAVE MODE AND VERB, -1 BLANK R-S ONLY
002970:
002971:                                                                                                  #  NVSUB CAN BE USED WITH MACH CADR TO BE SPEC BY PLACING THE CADR INTO
002972:                                                                                                  #  MPAC+2 BEFORE THE STANDARD NVSUB CALL.
002973:
002974:                                                                                                  #  NVSUB RETURNS TO 2+ CALLING LOC AFTER PERFORMING TASK, IF DISPLAY
002975:                                                                                                  #  SYSTEM IS AVAILABLE.  THE NEW NOUN AND VERB CODES ARE DISPLAYED.
002976:                                                                                                  #  IF V:S =0, THE NEW NOUN CODE IS DISPLAYED ONLY (RETURN WITH NO FURTHER
002977:                                                                                                  #  ACTION).  IF N-S =0, THE NEW VERB CODE IS DISPLAYED ONLY (RETURN WITH NO
002978:                                                                                                  #  FURTHER ACTION).
002979:
002980:                                                                                                  #  IT RETURNS TO 1+ CALLING LOC WITHOUT PERFORMING TASK, IF DISPLAY
002981:                                                                                                  #  SYSTEM IS BLOCKED (NOTHING IS DISPLAYED IN THIS CASE).
002982:                                                                                                  #  IT DOES TC ABORT (WITH OCT 01501) IF IT ENCOUNTERS A DISPLAY PROGRAM
002983:                                                                                                  #  ALARM CONDITION BEFORE RETURN TO CALLER.
002984:
002985:                                                                                                  #  THE DISPLAY SYSTEM IS BLOCKED BY THE DEPRESSION OF ANY
002986:                                                                                                  #  KEY, EXCEPT ERROR LIGHT RESET
002987:                                                                                                  #  IT IS RELEASED BY THE KEY RELEASE BUTTON, ALL EXTENDED VERBS,
002988:                                                                                                  #  PROCEED WITHOUT DATA, TERMINATE, RESEQUENCE, INITIALIZE EXECUTIVE,
002989:                                                                                                  #  RECALL PART OF RECALTST IF ENDIDLE WAS USED,
002990:                                                                                                  #  VB = REQUEST EXECUTIVE, VB = REQUEST WAITLIST,
002991:                                                                                                  #  MONITOR SET UP.
002992:
002993:                                                                                                  #  THE DISPLAY SYSTEM IS ALSO BLOCKED BY THE EXTERNAL MONITOR BIT, WHICH
002994:                                                                                                  #  INDICATES AN EXTERNALLY INITIATED MONITOR IS RUNNING (SEE MONITOR)
002995:
002996:                                                                                                  #  A NVSUB CALL THAT PASSES DSPLOCK AND THE EXTERNAL MONITOR BIT ENDS OLD
002997:                                                                                                  #  MONITOR.
002998:
002999:                                                                                                  #  DSPLOCK IS THE INTERLOCK FOR USE OF KEYBOARD AND DISPLAY SYSTEM WHICH
003000:                                                                                                  #  LOCKS OUT INTERNAL USE WHENEVER THERE IS EXTERNAL KEYBOARD ACTION.
003001:
003002:                                                                                                  #  NVSUB SHOULD BE USED TWICE IN SUCCESSION FOR :PLEASE PERFORM: SITUATIONS
003003:                                                                                                  #  (SIMILARLY FOR PLEASE MARK).  FIRST PLACE THE CODED NUMBER FOR WHAT
003004:                                                                                                  #  ACTION IS DESIRED OF OPERATOR INTO THEREGISTERS REFERRED TO BY THE
003005:                                                                                                  #  :CHECKLIST: NOUN.  GO TO NVSUB WITH A DISPLAY VERB AND THE :CHECKLIST:
003006:                                                                                                  #  NOUN.  GO TO NVSUB AGAIN WITH THE :PLEASE PERFORM: VERB AND ZEROS IN THE
003007:                                                                                                  #  LOW 7 BITS.  THIS :PASTES UP: THE :PLEASE PERFORM: VERB INTO THE VERB
003008:                                                                                                  #  LIGHTS.
003009:
003010:                                                                                                  #  NVMONOPT IS AN ENTRY SIMILAR TO NVSUB, BUT REQUIRING AN ADDITIONAL


003012:                                                                                                  #  PARAMETER IN L.  IT SHOULD BE USED ONLY WITH A MONITOR VERB-NOUN CODE IN
003013:                                                                                                  #  A.  AFTER EACH MONITOR DISPLAY A *PLEASE* VERB WILL BE PASTED IN THE VERB
003014:                                                                                                  #  LIGHTS OR DATA WILL BE BLANKED (OR BOTH) ACCORDING TO THE OPTIONS
003015:                                                                                                  #  SPECIFIED IN L.  IF BITS 8-14 OF L ARE OTHER THAN ZERO, THEN THEY WILL
003016:                                                                                                  #  BE INTERPRETED AS A VERB CODE AND PASTED IN THE VERB LIGHTS.  (THIS VERB
003017:                                                                                                  #  CODE SHOULD DESIGNATE ONE OF THE *PLEASE* VERBS.)  IF BITS 1-3 OF L ARE
003018:                                                                                                  #  OTHER THAN ZERO, THEN THEY WILL BE USED TO BLANK DATA BY BEING FED TO
003019:                                                                                                  #  BLANKSUB.  IF NVMONOPT IS USED WITH A VERB OTHER THAN A MONITOR VERB,
003020:                                                                                                  #  THE PARAMETER IN L HAS NO EFFECT.
003021:
003022:                                                                                                  #  NVSUB IN FIXED-FIXED PLACES 2+CALLING LOC INTO NVQTEM, TC NVSUBEND INTO
003023:                                                                                                  #  ENTRET.  (THIS WILL RESTORE OLD CALLING BANK BITS)
003024:
003025:    4154                                           SETLOC   ENDALM     +1
003026:
003027:    4154                                           COUNT*   $$/PIN
003028:    4154           22007        NVSUB              LXCH     7                                     #  ZERO NVMONOPT OPTIONS
003029:    4155           54123        NVMONOPT           TS       NVTEMP
003030:    4156           34736                           CAF      BIT14
003031:    4157           71020                           MASK     MONSAVE1                              #  EXTERNAL MONITOR BIT
003032:    4160           61011                           AD       DSPLOCK
003033:    4161           10000                           CCS      A
003034:    4162           00002                           TC       Q                                     #  DSP SYST BLOCKED.  RET TO 1+ CALLING LOC
003035:    4163           34753                           CAF      ONE                                   #  DSP SYST AVAILABLE
003036:    4164           60002        NVSBCOM            AD       Q
003037:    4165           55036                           TS       NVQTEM                                #  2+ CALLING LOC INTO NVQTEM
003038:    4166           23021                           LXCH     MONSAVE2                              #  STORE NVMONOPT OPTIONS
003039:    4167           04204                           TC       KILMONON                              #  TURN ON KILL MONITOR BIT
003040:    4170           34201        NVSUBCOM           CAF      NVSBBBNK
003041:
003042:    4171           56006                           XCH      BBANK
003043:    4172           00006                           EXTEND                                         #  SAVE OLD SUPERBITS
003044:    4173           04007                           ROR      SUPERBNK
003045:    4174           55037                           TS       NVBNKTEM
003046:    4175           34201                           CAF      PINSUPBT
003047:    4176           00006                           EXTEND
003048:    4177           01007                           WRITE    SUPERBNK
003049:    4200           02000                           TC       NVSUBB                                #  GO TO NVSUB1 THRU STANDARD LOC
003050:    4201     0776                                  EBANK=   DSPCOUNT
003051:    4201           62101        NVSBBBNK           BBCON    NVSUB1
003052:
003053:    4202     4201               PINSUPBT           =        NVSBBBNK                              #  CONTAINS THE PINBALL SUPERBITS.
003054:
003055:    4202           53037        NVSUBEND           DXCH     NVQTEM                                #  NVBNKTEM MUST = NVQTEM+1
003056:    4203           05165                           TC       SUPDXCHZ                              #  DTCB WITH SUPERBIT SWITCHING
003057:
003058: 41,3531                                           SETLOC   ENDRQWT    +1
003059:
003060: 41,3531                                           COUNT*   $$/PIN
003061:
003062:                                                                                                  #  BLANKDSP BLANKS DISPLAY ACCORDING TO OPTION NUMBER IN NVTEMP AS FOLLOWS


003064:                                                                                                  #  -4 FULL BLANK, -3 LEAVE MODE, -2 LEAVE MODE AND VERB, -1 BLANK R-S ONLY
003065:
003066: 41,3531           64757        BLANKDSP           AD       SEVEN                                 #  7,8,9, OR 10 (A HAD 0,1,2,OR 3)
003067: 41,3532           00004                           INHINT
003068: 41,3533           54124                           TS       CODE                                  #  BLANK SPECIFIED DSPTABS
003069: 41,3534           44740                           CS       BIT12
003070: 41,3535           50124                           INDEX    CODE
003071: 41,3536           57022                           XCH      DSPTAB
003072: 41,3537           10000                           CCS      A
003073: 41,3540           25015                           INCR     NOUT
003074: 41,3541           03542                           TC       +1
003075: 41,3542           10124                           CCS      CODE
003076: 41,3543           03533                           TC       BLANKDSP   +2
003077: 41,3544           00003                           RELINT
003078: 41,3545           50123                           INDEX    NVTEMP
003079: 41,3546           03553                           TC       +5
003080: 41,3547           03550                           TC       +1                                    #  NVTEMP HAS    -4 (NEVER TOUCH MODREG)
003081: 41,3550           55000                           TS       VERBREG                               #                -3
003082: 41,3551           55001                           TS       NOUNREG                               #                -2
003083: 41,3552           55014                           TS       CLPASS                                #                -1
003084: 41,3553           44360                           CS       VD1
003085: 41,3554           54776                           TS       DSPCOUNT
003086: 41,3555           04433                           TC       FLASHOFF                              #  PROTECT AGAINST INVISIBLE FLASH
003087: 41,3556           03601                           TC       ENTSET     -2                         #  ZEROS REQRET
003088:
003089: 41,3557           33603        NVSUB1             CAF      ENTSET                                #  IN BANK
003090: 41,3560           54136                           TS       ENTRET                                #  SET RETURN TO NVSUBEND
003091: 41,3561           10123                           CCS      NVTEMP                                #  WHAT NOW
003092: 41,3562           03566                           TC       +4                                    #  NORMAL NVSUB CALL (EXECUTE VN OR PASTE)
003093: 41,3563           02353                           TC       GODSPALM
003094: 41,3564           03531                           TC       BLANKDSP                              #  BLANK DISPLAY AS SPECIFIED
003095: 41,3565           02353                           TC       GODSPALM
003096: 41,3566           36077                           CAF      LOW7
003097: 41,3567           70123                           MASK     NVTEMP
003098: 41,3570           54157                           TS       MPAC       +3                         #  TEMP FOR NOUN (CANT USE MPAC. DSPDECVN
003099: 41,3571           30123                           CA       NVTEMP                                #                USES MPAC, +1, +2
003100: 41,3572           54023                           TS       EDOP                                  #  RIGHT 7
003101: 41,3573           30023                           CA       EDOP
003102: 41,3574           54160                           TS       MPAC       +4                         #  TEMP FOR VERB (CANT USE MPAC+1.  DSPDECVN
003103:                                                                                                  #                USES MPAC, +1, +2).
003104: 41,3575           10157                           CCS      MPAC       +3                         #  TEST NOUN
003105: 41,3576           03604                           TC       NVSUB2                                #  IF NOUN NOT +0, GO ON
003106: 41,3577           30160                           CA       MPAC       +4
003107: 41,3600           02341                           TC       UPDATVB    -1                         #  IF NOUN = +0, DISPLAY VERB.  THEN RETURN
003108: 41,3601           34755                           CAF      ZERO                                  #  ZERO REQRET SO THAT PASTED VERBS CAN
003109: 41,3602           55012                           TS       REQRET                                #  BE EXECUTED BY OPERATOR.
003110: 41,3603           04202        ENTSET             TC       NVSUBEND
003111: 41,3604           10160        NVSUB2             CCS      MPAC       +4                         #  TEST VERB
003112: 41,3605           03611                           TC       +4                                    #  IF VERB NOT +0, GO ON
003113: 41,3606           30157                           CA       MPAC       +3


003115: 41,3607           02321                           TC       UPDATNN    -1                         #  IF VERB = +0, DISPLAY NOUN.  THEN RETURN
003116: 41,3610           04202                           TC       NVSUBEND
003117: 41,3611           30156                           CA       MPAC       +2                         #  TEMP FOR MACH CADR TO BE SPEC. (DSPDECVN
003118: 41,3612           54161                           TS       MPAC       +5                         #        USES MPAC, +1, +2)
003119: 41,3613           30160                           CA       MPAC       +4
003120: 41,3614           02341                           TC       UPDATVB    -1                         #  IF BOTH NOUN AND VERB NOT +0, DISPLAY
003121: 41,3615           30157                           CA       MPAC       +3                         #  BOTH AND GO TO ENTPAS0.
003122: 41,3616           02321                           TC       UPDATNN    -1
003123: 41,3617           34755                           CAF      ZERO
003124: 41,3620           55013                           TS       LOADSTAT                              #  SET FOR WAITING FOR DATA CONDITION
003125: 41,3621           55014                           TS       CLPASS
003126: 41,3622           55012                           TS       REQRET                                #  SET REQRET FOR PASS 0.
003127: 41,3623           30161                           CA       MPAC       +5                         #  RESTORES MACH CADR TO BE SPEC TO MPAC+2
003128: 41,3624           54156                           TS       MPAC       +2                         #  FOR USE IN INTMCTBS (IN ENTPAS0).
003129: 41,3625           02035        ENDNVSB1           TC       ENTPAS0
003130:
003131:                                                                                                  #  IF INTERNAL MACH CADR TO BE SPECIFIED, MPAC+2 WILL BE PLACED INTO
003132:                                                                                                  #  NOUNCADR IN ENTPAS0 (INTMCTBS).
003133:
003134:    4204                                           SETLOC   NVSUBEND   +2
003135:    4204                                           COUNT*   $$/PIN
003136:                                                                                                  #  FORCE BIT 15 OF MONSAVE1 TO 1.
003137:    4204           34735        KILMONON           CAF      BIT15                                 #        THIS IS THE KILL MONITOR BIT.
003138:    4205           55020                           TS       MONSAVE1                              #  TURN OFF BIT 14, THE EXTERNAL
003139:                                                                                                  #        MONITOR BIT.
003140:    4206           00002                           TC       Q
003141:
003142:                                                                                                  #  LOADSTAT      +0      INACTIVE (WAITING FOR DATA).  SET BY NVSUB
003143:                                                                                                  #                +1      PROCEED NO DATA.  SET BY SPECIAL VERB
003144:                                                                                                  #                -1      TERMINATE   SET BY SPECIAL VERB
003145:                                                                                                  #                -0      DATA IN         SET BY END OF LOAD ROUTINE
003146:                                                                                                  #                        OR RESEQUENCE   SET BY VERB 32
003147:
003148:                                                                                                  #  L TC ENDIDLE (FIXED FIXED)
003149:                                                                                                  #  ROUTINES THAT REQUEST LOADS THROUGH NVSUB SHOULD USE ENDIDLE WHILE
003150:                                                                                                  #  WAITING FOR THE DATA TO BE LOADED.  ENDIDLE PUTS CURRENT JOB TO SLEEP.
003151:                                                                                                  #  ENDIDLE CANNOT BE CALLED FROM ERASABLE OR F/F MEMORY,
003152:                                                                                                  #  SINCE JOB SLEEP AND JOBWAKE CAN HANDLE ONLY FIXED BANKS.
003153:                                                                                                  #  RECALTST TESTS LOADSTAT AND WAKES JOB UP TO,
003154:                                                                                                  #        L+1     FOR TERMINATE
003155:                                                                                                  #        L+2     FOR PROCEED WITHOUT DATA
003156:                                                                                                  #        L+3     FOR DATA IN, OR RESEQUENCE
003157:                                                                                                  #  IT DOES NOTHING IF LOADSTAT INDICATES WAITING FOR DATA.
003158:
003159:                                                                                                  #  ENDIDLE ABORTS (WITH CODE 01206) IF A SECOND JOB ATTEMPTS TO GO TO SLEEP


003161:                                                                                                  #  IN PINBALL.  IN PARTICULAR, IF AN ATTEMPT IS MADE TO GO TO ENDIDLE WHEN
003162:                                                                                                  #        1)      CADRSTOR NOT= +0.  THIS IS THE CASE WHERE THE CAPACITY OF ENDIDLE IS
003163:                                                                                                  #                EXCEEDED.  (+-NZ INDICATE A JOB IS ALREADY ASLEEP DUE TO ENDIDLE.)
003164:                                                                                                  #        2)      DSPLIST NOT= +0.  THIS INDICATES A JOB IS ALREADY ASLEEP DUE TO
003165:                                                                                                  #                NVSUBUSY.
003166:
003167:    4207           22002        ENDIDLE            LXCH     Q                                     #  RETURN ADDRESS INTO L.
003168:    4210           04220                           TC       ISCADR+0                              #  ABORT IF CADRSTOR NOT= +0
003169:    4211           04224                           TC       ISLIST+0                              #  ABORT IF DSPLIST NOT= +0
003170:    4212           30001                           CA       L                                     #  DONT SET DSPLOCK TO 1 SO CAN USE
003171:    4213           75012                           MASK     LOW10                                 #  ENDIDLE WITH NVSUB INITIATED MONITOR.
003172:    4214           60004                           AD       FBANK                                 #  SAME STRATEGY FOR CADR AS MAKECADR.
003173:    4215           55041                           TS       CADRSTOR
003174:    4216           05133                           TC       JOBSLEEP
003175:
003176:    4217           05155        ENDINST            TC       ENDOFJOB
003177:
003178:    4220           11041        ISCADR+0           CCS      CADRSTOR                              #  ABORTS (CODE 01206) IF CADRSTOR NOT= +0.
003179:    4221           04227                           TC       DSPABORT                              #  RETURNS IF CADRSTOR = +0.
003180:    4222           00002                           TC       Q
003181:    4223           04227                           TC       DSPABORT
003182:
003183:    4224           11042        ISLIST+0           CCS      DSPLIST                               #  ABORTS (CODE 01206) IF DSPLIST NOT= +0.
003184:    4225           04227                           TC       DSPABORT                              #  RETURNS IF DSPLIST = +0.
003185:    4226           00002                           TC       Q
003186:    4227           05624        DSPABORT           TC       BAILOUT
003187:    4230           31206                           OCT      31206
003188:
003189:                                                                                                  #  JAMTERM ALLOWS PROGRAMS TO PERFORM THE TERMINATE FUNCTION.
003190:                                                                                                  #  IT DOES ENDOFJOB.
003191:
003192:    4231           34201        JAMTERM            CAF      PINSUPBT
003193:    4232           00006                           EXTEND
003194:    4233           01007                           WRITE    SUPERBNK
003195:    4234           34242                           CAF      34DEC
003196:    4235           55012                           TS       REQRET                                #  LEAVE ENTER SET FOR ENTPASS0.
003197:    4236           44360                           CS       VD1
003198:    4237           54776                           TS       DSPCOUNT
003199:    4240           04635                           TC       POSTJUMP
003200:    4241           61504                           CADR     VBTERM
003201:
003202:    4242           00042        34DEC              DEC      34         B-14
003203:
003204:                                                                                                  #  JAMPROC ALLOWS PROGRAMS TO PERFORM THE PROCEED/PROCEED WITHOUT DATA
003205:                                                                                                  #  FUNCTION.  IT DOES ENDOFJOB.
003206:
003207:    4243           34201        JAMPROC            CAF      PINSUPBT


003209:    4244           00006                           EXTEND
003210:    4245           01007                           WRITE    SUPERBNK
003211:    4246           34254                           CAF      33DEC
003212:    4247           55012                           TS       REQRET                                #  LEAVE ENTER SET FOR ENTPASS0.
003213:    4250           44360                           CS       VD1
003214:    4251           54776                           TS       DSPCOUNT
003215:    4252           04635                           TC       POSTJUMP
003216:    4253           61476                           CADR     VBPROC
003217:
003218:    4254           00041        33DEC              DEC      33         B-14
003219:
003220:                                                                                                  #  BLANKSUB BLANKS ANY COMBINATION OF R1, R2, R3.
003221:                                                                                                  #  CALL WITH BLANKING CODE IN A.
003222:                                                                                                  #  BIT1=1 BLANKS R1, BIT2=1 BLANKS R2, BIT3=1 BLANKS R3.
003223:                                                                                                  #  ANY COMBINATION OF THESE BITS IS ACCEPTED.
003224:
003225:                                                                                                  #  DSPCOUNT IS RESTORED TO STATE IT WAS IN BEFORE BLANKSUB WAS EXECUTED.
003226:
003227:    4255           74757        BLANKSUB           MASK     SEVEN
003228:    4256           54123                           TS       NVTEMP                                #  STORE BLANKING CODE IN NVTEMP.
003229:    4257           34736                           CAF      BIT14
003230:    4260           71020                           MASK     MONSAVE1                              #  EXTERNAL MONITOR BIT
003231:    4261           61011                           AD       DSPLOCK
003232:    4262           10000                           CCS      A
003233:    4263           00002                           TC       Q                                     #  DSP SYST BLOCKED.  RET TO 1+ CALLING LOC
003234:    4264           24002                           INCR     Q                                     #  DSP SYST AVAILABLE
003235:                                                                                                  #  SET RETURN FOR 2+ CALLING LOC
003236:    4265           10123                           CCS      NVTEMP
003237:    4266           14270                           TCF      +2
003238:    4267           00002                           TC       Q                                     #  NOTHING TO BLANK.  RET TO 2+ CALLING LOC
003239:    4270           22002                           LXCH     Q                                     #  SET RETURN FOR 2 + CALLING LOC
003240:    4271           34302                           CAF      BLNKBBNK
003241:    4272           56006                           XCH      BBANK
003242:    4273           00006                           EXTEND
003243:    4274           04007                           ROR      SUPERBNK                              #  SAVE OLD SUPERBITS.
003244:    4275           52131                           DXCH     BUF
003245:    4276           34201                           CAF      PINSUPBT
003246:    4277           00006                           EXTEND
003247:    4300           01007                           WRITE    SUPERBNK
003248:    4301           03550                           TC       BLNKSUB1
003249:
003250:    4302     0776                                  EBANK=   DSPCOUNT
003251:    4302           60101        BLNKBBNK           BBCON    BLNKSUB1
003252:    4303                        ENDBLFF            EQUALS
003253:
003254: 40,3550                                           SETLOC   ENDRELDS
003255: 40,3550                                           COUNT*   $$/PIN
003256: 40,3550           30776        BLNKSUB1           CA       DSPCOUNT                              #  SAVE OLD DSPCOUNT FOR LATER RESTORATION
003257: 40,3551           54132                           TS       BUF        +2


003259: 40,3552           34753                           CAF      BIT1                                  #  TEST BIT1.  SEE IF R1 TO BE BLANKED.
003260: 40,3553           03572                           TC       TESTBIT
003261: 40,3554           34317                           CAF      R1D1
003262: 40,3555           02535                           TC       5BLANK     -1
003263: 40,3556           34752                           CAF      BIT2                                  #  TEST BIT2.  SEE IF R2 TO BE BLANKED.
003264: 40,3557           03572                           TC       TESTBIT
003265: 40,3560           34320                           CAF      R2D1
003266: 40,3561           02535                           TC       5BLANK     -1
003267: 40,3562           34751                           CAF      BIT3                                  #  TEST BIT3.  SEE IF R3 TO BE BLANKED.
003268: 40,3563           03572                           TC       TESTBIT
003269: 40,3564           34321                           CAF      R3D1
003270: 40,3565           02535                           TC       5BLANK     -1
003271: 40,3566           30132                           CA       BUF        +2                         #  RESTORE DSPCOUNT TO STATE IT HAD
003272: 40,3567           54776                           TS       DSPCOUNT                              #        BEFORE BLANKSUB.
003273: 40,3570           52131                           DXCH     BUF                                   #  CALL L+2 DIRECTLY.
003274: 40,3571           05166                           TC       SUPDXCHZ   +1                         #  DTCB WITH SUPERBIT SWITCHING
003275:
003276: 40,3572           70123        TESTBIT            MASK     NVTEMP                                #  NVTEMP CONTAINS BLANKING CODE.
003277: 40,3573           10000                           CCS      A
003278: 40,3574           00002                           TC       Q                                     #  IF CURRENT BIT = 1, RETURN TO L+1.
003279: 40,3575           50002                           INDEX    Q                                     #  IF CURRENT BIT = 0, RETURN TO L+3.
003280: 40,3576           00002                           TC       2
003281:
003282: 40,3577                        ENDBSUB1           EQUALS
003283:
003284:                                                                                                  #  DSPMM DOES NOT DISPLAY MODREG DIRECTLY.  IT PUTS IN EXEC REQUEST WITH
003285:                                                                                                  #  PRIO 30000 FOR DSPMMJB AND RETURNS TO CALLER.
003286:
003287:                                                                                                  #  IF MODREG CONTAINS -0, DSPMMJB BLANKS THE MODE LIGHTS.
003288:
003289:                                                                                                  #  DSPMM MUST BE IN BANK 27 OR LOWER, SO IT CAN BE CALLED VIA BANKCALL.
003290:
003291: 07,2666                                           BANK     7
003292: 04,2000                                           SETLOC   PINBALL4
003293: 04,2000                                           BANK
003294:
003295: 04,2622                                           COUNT*   $$/PIN
003296: 04,2622           56002        DSPMM              XCH      Q
003297: 04,2623           54154                           TS       MPAC
003298: 04,2624           00004                           INHINT
003299: 04,2625           34355                           CAF      CHRPRIO
003300: 04,2626           05072                           TC       NOVAC
003301: 04,2627     0776                                  EBANK=   DSPCOUNT
003302: 04,2627           03577 60101                     2CADR    DSPMMJB
003303:
003304: 04,2631           00003                           RELINT
003305: 04,2632           00154        ENDSPMM            TC       MPAC
003306:
003307:                                                                                                  #  DSPMM PLACE MAJOR MODE CODE INTO MODREG


003309:
003310: 40,3577                                           SETLOC   ENDBSUB1
003311:
003312: 40,3577                                           COUNT*   $$/PIN
003313: 40,3577           34362        DSPMMJB            CAF      MD1                                   #  GETS HERE THRU DSPMM
003314: 40,3600           56776                           XCH      DSPCOUNT
003315: 40,3601           54140                           TS       DSPMMTEM                              #  SAVE DSPCOUNT
003316: 40,3602           11010                           CCS      MODREG
003317: 40,3603           64753                           AD       ONE
003318: 40,3604           03342                           TC       DSPDECVN                              #  IF MODREG IS + OR +0, DISPLAY MODREG
003319: 40,3605           03607                           TC       +2                                    #  IF MODREG IS -NZ, DO NOTHING
003320: 40,3606           02601                           TC       2BLANK                                #  IF MODREG IS -0, BLANK MM
003321: 40,3607           56140                           XCH      DSPMMTEM                              #  RESTORE DSPCOUNT
003322: 40,3610           54776                           TS       DSPCOUNT
003323: 40,3611           05155                           TC       ENDOFJOB
003324:
003325:                                                                                                  #  RECALTST IS ENTERED DIRECTLY AFTER DATA IS LOADED (OR RESEQUENCE VERB IS
003326:                                                                                                  #  EXECUTED), TERMINATE VERB IS EXECUTED, OR PROCEED WITHOUT DATA VERB IS
003327:                                                                                                  #  EXECUTED.  IT WAKES UP JOB THAT DID TC ENDIDLE.
003328:                                                                                                  #
003329:                                                                                                  #  IF CADRSTOR NOT= +0, IT PUTS +0 INTO DSPLOCK, AND TURNS OFF KEY RLSE
003330:                                                                                                  #  LIGHT IF DSPLIST IS EMPTY (LEAVES KEY RLSE LIGHT ALONE IF NOT EMPTY).
003331:
003332: 40,3612           11041        RECALTST           CCS      CADRSTOR
003333: 40,3613           03615                           TC       RECAL1
003334: 40,3614           05155                           TC       ENDOFJOB                              #  NORMAL EXIT IF KEYBOARD INITIATED
003335: 40,3615           34755        RECAL1             CAF      ZERO
003336: 40,3616           57041                           XCH      CADRSTOR
003337: 40,3617           00004                           INHINT
003338: 40,3620           05137                           TC       JOBWAKE
003339: 40,3621           11013                           CCS      LOADSTAT
003340: 40,3622           03644                           TC       DOPROC                                #  + PROCEED WITHOUT DATA
003341: 40,3623           05155                           TC       ENDOFJOB                              #  PATHALOGICAL CASE EXIT
003342: 40,3624           03642                           TC       DOTERM                                #  - TERMINATE
003343: 40,3625           34752                           CAF      TWO                                   #  -0 DATA IN OR RESEQUENCE
003344: 40,3626           50064        RECAL2             INDEX    LOCCTR
003345: 40,3627           60164                           AD       LOC                                   #  LOC IS + FOR BASIC JOBS
003346: 40,3630           50064                           INDEX    LOCCTR
003347: 40,3631           54164                           TS       LOC
003348: 40,3632           31001                           CA       NOUNREG                               #  SAVE VERB IN MPAC, NOUN IN MPAC+1 AT
003349: 40,3633           54001                           TS       L                                     #  TIME OF RESPONSE TO ENDIDLE FOR
003350: 40,3634           31000                           CA       VERBREG                               #  POSSIBLE LATER TESTING BY JOB THAT HAS
003351: 40,3635           50064                           INDEX    LOCCTR                                #  BEEN WAKED UP.
003352: 40,3636           52155                           DXCH     MPAC
003353: 40,3637           00003                           RELINT
003354: 40,3640           04457        RECAL3             TC       RELDSP
003355: 40,3641           05155                           TC       ENDOFJOB
003356:
003357: 40,3642           34755        DOTERM             CAF      ZERO
003358: 40,3643           03626                           TC       RECAL2


003360: 40,3644           34753        DOPROC             CAF      ONE
003361: 40,3645           03626                           TC       RECAL2
003362:


003364:                                                                                                  #  MISCELLANEOUS SERVICE ROUTINES IN FIXED/FIXED
003365:
003366:    4303                                           SETLOC   ENDBLFF
003367:
003368:    4303                                           COUNT*   $$/PIN
003369:
003370:                                                                                                  #  SETNCADR      E CADR ARRIVES IN A.  IT IS STORED IN NOUNCADR.  EBANK BITS
003371:                                                                                                  #                ARE SET.  E ADRES IS DERIVED AND PUT INTO NOUNADD.
003372:
003373:    4303           55016        SETNCADR           TS       NOUNCADR                              #  STORE ECADR
003374:    4304           54003                           TS       EBANK                                 #  SET EBANK BITS
003375:    4305           74357                           MASK     LOW8
003376:    4306           65007                           AD       OCT1400
003377:    4307           54145                           TS       NOUNADD                               #  PUT E ADRES INTO NOUNADD
003378:    4310           00002                           TC       Q
003379:
003380:                                                                                                  #  SETNADD       GETS E CADR FROM NOUNCADR, SETS EBANK BITS, DERIVES
003381:                                                                                                  #                E ADRES AND PUTS IT INTO NOUNADD.
003382:
003383:    4311           31016        SETNADD            CA       NOUNCADR
003384:    4312           14304                           TCF      SETNCADR   +1
003385:
003386:                                                                                                  #  SETEBANK      E CADR ARRIVES IN A.  EBANK BITS ARE SET.  E ADRES IS
003387:                                                                                                  #                DERIVED AND LEFT IN A.
003388:
003389:    4313           54003        SETEBANK           TS       EBANK                                 #  SET EBANK BITS
003390:    4314           74357                           MASK     LOW8
003391:    4315           65007                           AD       OCT1400                               #  E ADRES LEFT IN A
003392:    4316           00002                           TC       Q
003393:
003394:    4317           00016        R1D1               OCT      16                                    #  THESE 3 CONSTANTS FORM A PACKED TABLE.
003395:    4320           00011        R2D1               OCT      11                                    #  DONT SEPARATE.
003396:    4321           00004        R3D1               OCT      4
003397:
003398:    4322           54020        RIGHT5             TS       CYR
003399:    4323           40020                           CS       CYR
003400:    4324           40020                           CS       CYR
003401:    4325           40020                           CS       CYR
003402:    4326           40020                           CS       CYR
003403:    4327           56020                           XCH      CYR
003404:    4330           00002                           TC       Q
003405:
003406:    4331           54022        LEFT5              TS       CYL
003407:    4332           40022                           CS       CYL
003408:    4333           40022                           CS       CYL
003409:    4334           40022                           CS       CYL
003410:    4335           40022                           CS       CYL


003412:    4336           56022                           XCH      CYL
003413:    4337           00002                           TC       Q
003414:
003415:    4340           60000        SLEFT5             DOUBLE
003416:    4341           60000                           DOUBLE
003417:    4342           60000                           DOUBLE
003418:    4343           60000                           DOUBLE
003419:    4344           60000                           DOUBLE
003420:    4345           00002                           TC       Q
003421:
003422:    4346           00037        LOW5               OCT      37                                    #  THESE 3 CONSTANTS FORM A PACKED TABLE.
003423:    4347           01740        MID5               OCT      1740                                  #  DONT SEPARATE.
003424:    4350           76000        HI5                OCT      76000                                 #  MUST STAY HERE
003425:
003426:    4351           05072        TCNOVAC            TC       NOVAC
003427:    4352           05203        TCWAIT             TC       WAITLIST
003428:    4353           05261        TCTSKOVR           TC       TASKOVER
003429:    4354           05105        TCFINDVC           TC       FINDVAC
003430:
003431:    4355           30000        CHRPRIO            OCT      30000                                 #  EXEC PRIORITY OF CHARIN
003432:
003433:    4356           03777        LOW11              OCT      3777
003434:    4357     4356               B12-1              EQUALS   LOW11
003435:    4357           00377        LOW8               OCT      377
003436:
003437:    4360           00023        VD1                OCT      23                                    #  THESE 3 CONSTANTS FORM A PACKED TABLE.
003438:    4361           00021        ND1                OCT      21                                    #  DONT SEPARATE.
003439:    4362           00025        MD1                OCT      25
003440:
003441:    4363           00012        BINCON             DEC      10         B-14
003442:
003443:    4364           34745        FALTON             CA       BIT7                                  #  TURN ON OPERATOR ERROR LIGHT
003444:    4365           00006                           EXTEND
003445:    4366           05011                           WOR      DSALMOUT                              #  BIT 7 OF CHANNEL 11
003446:    4367           00002                           TC       Q
003447:
003448:    4370           44745        FALTOF             CS       BIT7                                  #  TURN OFF OPERATOR ERROR LIGHT
003449:    4371           00006                           EXTEND
003450:    4372           03011                           WAND     DSALMOUT                              #  BIT 7 OF CHANNEL 11
003451:    4373           00002                           TC       Q
003452:
003453:    4374           34747        RELDSPON           CAF      BIT5                                  #  TURN ON KEY RELEASE LIGHT
003454:    4375           00006                           EXTEND
003455:    4376           05011                           WOR      DSALMOUT                              #  BIT 5 OF CHANNEL 11
003456:    4377           00002                           TC       Q
003457:


003459:    4400           00006        LODSAMPT           EXTEND
003460:    4401           30025                           DCA      TIME2
003461:    4402           52014                           DXCH     SAMPTIME
003462:    4403           00002                           TC       Q
003463:
003464:    4404           00006        TPSL1              EXTEND                                         #  SHIFTS MPAC, +1, +2 LEFT 1
003465:    4405           30156                           DCA      MPAC       +1                         #  LEAVES OVFIND SET TO +/- 1 FOR OF/UF
003466:    4406           20156                           DAS      MPAC       +1
003467:    4407           60154                           AD       MPAC
003468:    4410           26154                           ADS      MPAC
003469:    4411           54007                           TS       7                                     #  TS A DOES NOT CHANGE A ON OF/UF.
003470:    4412           00002                           TC       Q                                     #  NO NET OF/UF
003471:    4413           54162                           TS       MPAC+6                                #  MPAC +6 SET TO +/- 1 FOR OF/UF
003472:    4414           00002                           TC       Q
003473:
003474:                                                                                                  #  IF MPAC, +1 ARE EACH +NZ OR +0 AND C(A)=-0, SHORTMP WRONGLY GIVES +0.
003475:                                                                                                  #  IF MPAC, +1 ARE EACH -NZ OR -0 AND C(A)=+0, SHORTMP WRONGLY GIVES +0.
003476:                                                                                                  #  PRSHRTMP FIXES FIRST CASE ONLY, BY MERELY TESTING C(A) AND IF IT = -0,
003477:                                                                                                  #  SETTING RESULT TO -0.
003478:
003479:                                                                                                  #  (DO NOT USE PRSHRTMP UNLESS MPAC, +1 ARE EACH +NZ OR +0, AS THEY ARE
003480:                                                                                                  #  WHEN THEY CONTAIN THE SF CONSTANTS.)
003481:
003482:    4415           54135        PRSHRTMP           TS       MPTEMP
003483:    4416           10000                           CCS      A
003484:    4417           30135                           CA       MPTEMP                                #  C(A) +, DO REGULAR SHORTMP
003485:    4420           17313                           TCF      SHORTMP    +1                         #  C(A) +0, DO REGULAR SHORTMP
003486:    4421           14417                           TCF      -2                                    #  C(A) -, DO REGULAR SHORTMP
003487:    4422           44755                           CS       ZERO                                  #  C(A) -0, FORCE RESULT TO -0 AND RETURN.
003488:    4423           54154                           TS       MPAC
003489:    4424           54155                           TS       MPAC       +1
003490:    4425           54156                           TS       MPAC       +2
003491:    4426           00002                           TC       Q
003492:
003493:    4427           34746        FLASHON            CAF      BIT6                                  #  TURN ON V/N FLASH
003494:    4430           00006                           EXTEND                                         #  BIT 6 OF CHANNEL 11
003495:    4431           05011                           WOR      DSALMOUT
003496:    4432           00002                           TC       Q
003497:
003498:    4433           44746        FLASHOFF           CS       BIT6                                  #  TURN OFF V/N FLASH
003499:    4434           00006                           EXTEND
003500:    4435           03011                           WAND     DSALMOUT                              #  BIT 6 OF CHANNEL 11
003501:    4436           00002                           TC       Q
003502:


003504:                                                                                                  #  INTERNAL USE OF KEYBOARD AND DISPLAY PROGRAM
003505:
003506:                                                                                                  #  USER MUST SCHEDULE CALLS TO NVSUB SO THAT THERE IS NO CONFLICT OF USE OR
003507:                                                                                                  #  CONFUSION TO OPERATOR.  THE OLD GRABLOCK (INTERNAL/INTERNAL INTERLOCK)
003508:                                                                                                  #  HAS BEEN REMOVED AND THE INTERNAL USER NO LONGER HAS THE PROTECTION THIS
003509:                                                                                                  #  OFFERED.
003510:
003511:                                                                                                  #  THERE ARE TWO WAYS A JOB CAN BE PUT TO SLEEP BY THE KEYBOARD + DISPLAY
003512:                                                                                                  #  PROGRAM.      1)      BY ENDIDLE
003513:                                                                                                  #                2)      BY NVSUBUSY
003514:                                                                                                  #  THE BASIC CONVENTION IS THAT ONLY ONE JOB WILL BE PERMITTED ASLEEP VIA
003515:                                                                                                  #  THE KEYBOARD + DISPLAY PROGRAM AT A TIME.  IF A JOB ATTEMPTS TO GO TO
003516:                                                                                                  #  SLEEP BY MEANS OF (1) OR (2) AND THERE IS ALREADY AJOB ASLEEP THAT WAS
003517:                                                                                                  #  PUT TO SLEEP BY (1) OR (2), THEN AN ABORT IS CAUSED.
003518:
003519:                                                                                                  #  THE CALLING SEQUENCE FOR NVSUB IS
003520:                                                                                                  #                        CAF             V/N
003521:                                                                                                  #        L               TC              NVSUB
003522:                                                                                                  #        L+1             RETURN HERE IF OPERATOR HAS INTERVENED
003523:                                                                                                  #        L+2             RETURN HERE AFTER EXECUTION
003524:
003525:                                                                                                  #  A ROUTINE CALLED NVSUBUSY IS PROVIDED (USE IS OPTIONAL) TO PUT
003526:                                                                                                  #  YOUR JOB TO SLEEP UNTIL THE OPERATOR RELEASES THE KEYBOARD + DISPLAY
003527:                                                                                                  #  SYSTEM.  NVSUBUSY ALSO TURNS ON THE KEY RELEASE LIGHT.
003528:                                                                                                  #  NVSUBUSY CANNOT BE CALLED FROM ERASABLE OR F/F MEMORY,
003529:                                                                                                  #  SINCE JOBSLEEP AND JOBWAKE CAN HANDLE ONLY FIXED BANKS.
003530:
003531:                                                                                                  #  THE CALLING SEQUENCE IS
003532:                                                                                                  #        CAF     WAKEFCADR
003533:                                                                                                  #        TC      NVSUBUSY
003534:
003535:
003536:                                                                                                  #  .
003537:
003538:
003539:                                                                                                  #  NVSUBUSY IS INTENDED FOR USE WHEN AN INTERNAL PROGRAM FINDS THE OPERATOR
003540:                                                                                                  #  IS USING THE KEYBOARD + DISPLAY PROGRAM (BY HIS OWN INITIATION). IT IS
003541:                                                                                                  #  NOT INTENDED FOR USE WHEN ONE INTERNAL PROGRAM FINDS ANOTHER INTERNAL
003542:                                                                                                  #  PROGRAM USING THE KEYBOARD + DISPLAY PROGRAM.
003543:
003544:                                                                                                  #  NVSUBUSY ABORTS (WITH CODE 01206) IF A SECOND JOB ATTEMPTS TO GO TO
003545:                                                                                                  #  SLEEP IN PINBALL.  IN PARTICULAR, IF AN ATTEMPT IS MADE TO GO TO NVSUBUSY
003546:                                                                                                  #  WHEN
003547:
003548:                                                                                                  #        1)      DSPLIST NOT= +0.  THIS IS THE CASE WHERE THE CAPACITY OF THE DSPLIST
003549:                                                                                                  #                IS EXCEEDED.
003550:                                                                                                  #        2)      CADRSTOR NOT= +0.  THIS INDICATES THAT A JOB IS ALREADY USING


003552:                                                                                                  #  ENDIDLE.  (+-NZ INDICATE A JOB IS ALREADY ASLEEP DUE TO ENDIDLE.)
003553:
003554:    4437           44444        PRENVBSY           CS       2K+3                                  #  SPECIAL ENTRANCE FOR ROUTINES IN FIXED
003555:    4440           60002                           AD       Q                                     #  BANKS ONLY DESIRING THE FCADR OF (LOC
003556:    4441           60004                           AD       FBANK                                 #  FROM WHICH THE TC PRENVBSY WAS DONE) -2
003557:    4442           04635        NVSUBUSY           TC       POSTJUMP                              #  TO BE ENTERED.
003558:    4443           10633                           CADR     NVSUBSY1
003559:    4444           02003        2K+3               OCT      2003
003560:
003561:                                                                                                  #  NVSUBSY1 MUST BE IN BANK 27 OR LOWER, SO IT WILL PUT CALLER TO SLEEP
003562:                                                                                                  #  WITH HIS PROPER SUPERBITS.
003563:
003564: 04,2633                                           SETLOC   ENDSPMM    +1
003565: 04,2633                                           COUNT*   $$/PIN
003566: 04,2633           54001        NVSUBSY1           TS       L
003567: 04,2634           04220                           TC       ISCADR+0                              #  ABORT IF CADRSTOR NOT= +0.
003568: 04,2635           04224                           TC       ISLIST+0                              #  ABORT IF DSPLIST NOT= +0.
003569: 04,2636           04374                           TC       RELDSPON
003570: 04,2637           30001                           CA       L
003571: 04,2640           55042                           TS       DSPLIST
003572: 04,2641           05133        ENDNVBSY           TC       JOBSLEEP
003573:
003574:                                                                                                  #  NVSBWAIT IS A SPECIAL ENTRANCE FOR ROUTINES IN FIXED BANKS ONLY. IF
003575:                                                                                                  #  SYSTEM IS NOT BUSY, IT EXECUTES V/N AND RETURNS TO L+1 (L= LOC FROM
003576:                                                                                                  #  WHICH THE TC NVSBWAIT WAS DONE).  IF SYSTEM IS BUSY, IT PUTS CALLING JOB
003577:                                                                                                  #  TO SLEEP WITH L-1 GOING INTO LIST FOR EVENTUAL WAKING UP WHEN SYSTEM
003578:                                                                                                  #  IS NOT BUSY.
003579:
003580:    4445                                           SETLOC   NVSUBUSY   +3
003581:    4445                                           COUNT*   $$/PIN
003582:    4445           22007        NVSBWAIT           LXCH     7                                     #  ZERO NVMONOPT OPTIONS
003583:    4446           54123                           TS       NVTEMP
003584:    4447           34736                           CAF      BIT14
003585:    4450           71020                           MASK     MONSAVE1                              #  EXTERNAL MONITOR BIT
003586:    4451           61011                           AD       DSPLOCK
003587:    4452           10000                           CCS      A
003588:    4453           14455                           TCF      NVSBWT1                               #  BUSY
003589:    4454           14164                           TCF      NVSBCOM                               #  FREE. NVSUB WILL SAVE L+1 FOR RETURN
003590:                                                                                                  #  AFTER EXECUTION.
003591:    4455           24002        NVSBWT1            INCR     Q                                     #  L+2.  PRENVBSY WILL PUT L-1 INTO LIST AND
003592:    4456           14437                           TCF      PRENVBSY                              #  GO TO SLEEP.
003593:
003594:                                                                                                  #  RELDSP IS USED BY VBPROC, VBTERM, VBRQEXEC, VBRQWAIT, VBRELDSP, EXTENDED
003595:                                                                                                  #  VERB DISPATCHER, VBRESEQ, RECALTST.
003596:
003597:                                                                                                  #  RELDSP1 IS USED BY MONITOR SET UP, VBRELDSP.
003598:
003599:    4457           56002        RELDSP             XCH      Q                                     #  SET DSPLOCK TO +0, TURN RELDSP LIGHT
003600:    4460           54144                           TS       RELRET                                #  OFF, SEARCH DSPLIST
003601:    4461           44736                           CS       BIT14


003603:    4462           00004                           INHINT
003604:    4463           71020                           MASK     MONSAVE1
003605:    4464           55020                           TS       MONSAVE1                              #  TURN OFF EXTERNAL MONITOR BIT
003606:    4465           11042                           CCS      DSPLIST
003607:    4466           04470                           TC       +2
003608:    4467           04473                           TC       RELDSP2                               #  LIST EMPTY
003609:    4470           34755                           CAF      ZERO
003610:    4471           57042                           XCH      DSPLIST
003611:    4472           05137                           TC       JOBWAKE
003612:    4473           00003        RELDSP2            RELINT
003613:    4474           44747                           CS       BIT5                                  #  TURN OFF KEY RELEASE LIGHT
003614:    4475           00006                           EXTEND                                         #  (BIT 5 OF CHANNEL 11)
003615:    4476           03011                           WAND     DSALMOUT
003616:    4477           34755                           CAF      ZERO
003617:    4500           55011                           TS       DSPLOCK
003618:    4501           00144                           TC       RELRET
003619:    4502           56002        RELDSP1            XCH      Q                                     #  SET DSPLOCK TO +0.  NO DSPLIST SEARCH.
003620:    4503           54144                           TS       RELRET                                #  TURN KEY RLSE LIGHT OFF IF DSPLIST IS
003621:                                                                                                  #  EMPTY.  LEAVE KEY RLSE LIGHT ALONE IF
003622:                                                                                                  #  DSPLIST IS NOT EMPTY.
003623:    4504           11042                           CCS      DSPLIST
003624:    4505           04507                           TC       +2                                    #  +     NOT EMPTY.  LEAVE KEY RLSE LIGHT ALONE
003625:    4506           04473                           TC       RELDSP2                               #  +0    EMPTY.  TURN OFF KEY RLSE LIGHT
003626:    4507           34755                           CAF      ZERO                                  #  -     NOT EMPTY.  LEAVE KEY RLSE LIGHT ALONE
003627:    4510           55011                           TS       DSPLOCK
003628:    4511           00144                           TC       RELRET
003629:
003630:    4512                        ENDPINBF           EQUALS
003631:


003633:                                                                                                  #  PINTEST IS NEEDED FOR AUTO CHECK OF PINBALL.
003634:
003635:    4512  43,2002               PINTEST            EQUALS   LST2FAN
003636:


003638:                                                                                                  #  VBTSTLTS TURNS ON ALL DISPLAY PANEL LIGHTS.  AFTER 5 SEC, IT TURNS
003639:                                                                                                  #  OFF THE CAUTION AND STATUS LIGHTS.
003640:
003641: 41,3626                                           SETLOC   ENDNVSB1   +1
003642:
003643: 41,3626                                           COUNT*   $$/PIN
003644: 41,3626           00004        VBTSTLTS           INHINT
003645: 41,3627           04616                           TC       BANKCALL                              #  OPP ERR IF NOT IN POO
003646: 41,3630           66121                           CADR     CHKPOOH
003647: 41,3631           44753                           CS       BIT1                                  #  SET BIT 1 OF IMODES33 SO IMUMON WONT
003648: 41,3632           71300                           MASK     IMODES33                              #  TURN OUT ANY LAMPS.
003649: 41,3633           64753                           AD       BIT1
003650: 41,3634           55300                           TS       IMODES33
003651:
003652: 41,3635           33674                           CAF      TSTCON1                               #  TURN ON UPLINK ACTIVITY, TEMP, KEY RLSE,
003653: 41,3636           00006                           EXTEND                                         #  V/N FLASH, OPERATOR ERROR.
003654: 41,3637           05011                           WOR      DSALMOUT
003655: 41,3640           33675                           CAF      TSTCON2                               #  TURN ON NO ATT, GIMBAL LOCK, TRACKER,
003656: 41,3641           55035                           TS       DSPTAB     +11D                       #  PROG ALM.
003657: 41,3642           06022                           TC       C13STALL
003658: 41,3643           34742                           CAF      BIT10                                 #  TURN ON TEST ALARM OUTBIT
003659: 41,3644           00006                           EXTEND
003660: 41,3645           05013                           WOR      CHAN13
003661: 41,3646           34363                           CAF      TEN
003662: 41,3647           54117        TSTLTS1            TS       ERCNT
003663: 41,3650           43672                           CS       FULLDSP
003664: 41,3651           50117                           INDEX    ERCNT
003665: 41,3652           55022                           TS       DSPTAB
003666: 41,3653           10117                           CCS      ERCNT
003667: 41,3654           03647                           TC       TSTLTS1
003668: 41,3655           43673                           CS       FULLDSP1
003669: 41,3656           55023                           TS       DSPTAB     +1                         #  TURN ON 3 PLUS SIGNS
003670: 41,3657           55026                           TS       DSPTAB     +4
003671: 41,3660           55030                           TS       DSPTAB     +6
003672: 41,3661           34760                           CAF      ELEVEN
003673: 41,3662           55015                           TS       NOUT
003674: 41,3663           00003                           RELINT
003675: 41,3664           33677                           CAF      SHOLTS
003676: 41,3665           00004                           INHINT
003677: 41,3666           05203                           TC       WAITLIST
003678: 41,3667     1022                                  EBANK=   DSPTAB
003679: 41,3667           03700 62102                     2CADR    TSTLTS2
003680:
003681: 41,3671           05155                           TC       ENDOFJOB                              #  DSPLOCK IS LEFT BUSY (FROM KEYBOARD
003682:                                                                                                  #  ACTION) UNTIL TSTLTS3 TO INSURE THAT
003683:                                                                                                  #  LIGHTS TEST WILL BE SEEN.
003684:
003685: 41,3672           05675        FULLDSP            OCT      05675                                 #  DISPLAY ALL 8:S
003686: 41,3673           07675        FULLDSP1           OCT      07675                                 #  DISPLAY ALL 8:S AND +
003687:


003689: 41,3674           00175        TSTCON1            OCT      00175
003690:                                                                                                  #  UPLINK ACTIVITY, TEMP, KEY RLSE,
003691:                                                                                                  #  V/N FLASH, OPERATOR ERROR.
003692: 41,3675           40674        TSTCON2            OCT      40674                                 #  DSPTAB+11D BITS 3,4,5,6,8,9. LR LITES,
003693:                                                                                                  #  NO ATT, GIMBAL LOCK, TRACKER, PROG ALM.
003694: 41,3676           00115        TSTCON3            OCT      0115                                  #  CHAN 11 BITS 1,3, 4, 7.
003695:                                                                                                  #  UPLINK ACTIVITY, TEMP, OPERATOR ERROR.
003696: 41,3677           00764        SHOLTS             OCT      764                                   #  5 SEC
003697:
003698: 41,3700           34355        TSTLTS2            CAF      CHRPRIO                               #  CALLED BY WAITLIST
003699: 41,3701           05072                           TC       NOVAC
003700: 41,3702     1022                                  EBANK=   DSPTAB
003701: 41,3702           03705 62102                     2CADR    TSTLTS3
003702:
003703: 41,3704           05261                           TC       TASKOVER
003704:
003705: 41,3705           43676        TSTLTS3            CS       TSTCON3                               #  CALLED BY EXECUTIVE
003706: 41,3706           00004                           INHINT
003707: 41,3707           00006                           EXTEND                                         #  TURN OFF UPLINK ACTIVITY, TEMP,
003708: 41,3710           03011                           WAND     DSALMOUT                              #  OPERATOR ERROR.
003709: 41,3711           06022                           TC       C13STALL
003710: 41,3712           44742                           CS       BIT10                                 #  TURN OFF TEST ALARM OUTBIT
003711: 41,3713           00006                           EXTEND
003712: 41,3714           03013                           WAND     CHAN13
003713: 41,3715           34750                           CAF      BIT4                                  #  MAKE NO ATT FOLLOW BIT 4 OF CHANNEL 12
003714: 41,3716           00006                           EXTEND                                         #        (NO ATT LIGHT ON IF IN COARSE ALIGN)
003715: 41,3717           02012                           RAND     CHAN12
003716: 41,3720           64735                           AD       BIT15                                 #  TURN OFF AUTO, HOLD, FREE, SPARE,
003717: 41,3721           55035                           TS       DSPTAB     +11D                       #  GIMBAL LOCK, SPARE, TRACKER, PROG ALM
003718: 41,3722           43745                           CS       13-11,1                               #  SET BITS TO INDICATE ALL LAMPS OUT. TEST
003719: 41,3723           71300                           MASK     IMODES33                              #  LIGHTS COMPLETE.
003720: 41,3724           65026                           AD       PRIO16
003721: 41,3725           55300                           TS       IMODES33
003722:
003723: 41,3726           43747                           CS       OCT55000
003724: 41,3727           71277                           MASK     IMODES30
003725: 41,3730           65025                           AD       PRIO15                                #  15000.
003726: 41,3731           55277                           TS       IMODES30
003727:
003728: 41,3732           43746                           CS       RFAILS2
003729: 41,3733           70110                           MASK     RADMODES
003730: 41,3734           64745                           AD       RCDUFBIT
003731: 41,3735           54110                           TS       RADMODES
003732:
003733: 41,3736           00003                           RELINT
003734:
003735: 41,3737           04616                           TC       BANKCALL                              #  REDISPLAY C(MODREG)
003736: 41,3740           10622                           CADR     DSPMM


003738: 41,3741           04204                           TC       KILMONON                              #  TURN ON KILL MONITOR BIT.
003739: 41,3742           04433                           TC       FLASHOFF                              #  TURN OFF V/N FLASH.
003740: 41,3743           04635                           TC       POSTJUMP                              #  DOES RELDSP AND GOES TO PINBRNCH IF
003741: 41,3744           61534                           CADR     TSTLTS4                               #  ENDIDLE IS AWAITING OPERATOR RESPONSE.
003742: 41,3745           16001        13-11,1            OCT      16001
003743: 41,3746           00330        RFAILS2            OCT      330                                   #  RADAR CDU AND DATA FAIL FLAGS.
003744: 41,3747           55000        OCT55000           OCT      55000
003745: 41,3750                        ENDPINS2           EQUALS
003746:


003748:                                                                                                  #  ERROR LIGHT RESET (RSET) TURNS OFF,
003749:                                                                                                  #  UPLINK ACTIVITY, AUTO, HOLD, FREE, OPERATOR ERROR,
003750:                                                                                                  #  PROG ALM, TRACKER FAIL.
003751:
003752:                                                                                                  #  LEAVES GIMBAL LOCK AND NO ATT ALONE.
003753:                                                                                                  #
003754:                                                                                                  #  IT ALSO ZEROES THE :TEST ALARM: OUT BIT, WHICH TURNS OFF STBY, RESTART.
003755:                                                                                                  #  IT ALSO SETS :CAUTION RESET: TO 1.
003756:                                                                                                  #  IT ALSO FORCES BIT 12 OF ALL DSPTAB ENTRIES TO 1.
003757:
003758: 40,3646                                           SETLOC   DOPROC     +2
003759: 40,3646                                           COUNT*   $$/PIN
003760: 40,3646           56115        ERROR              XCH      21/22REG                              #  RESTORE ORIGINAL C(DSPLOCK).  THUS ERROR
003761: 40,3647           55011                           TS       DSPLOCK                               #  LIGHT RESET LEAVES DSPLOCK UNCHANGED.
003762: 40,3650           00004                           INHINT
003763: 40,3651           34742                           CAF      BIT10                                 #  TURN ON :CAUTION RESET: OUTBIT
003764: 40,3652           00006                           EXTEND
003765: 40,3653           05011                           WOR      DSALMOUT                              #  BIT10 CHAN 11
003766: 40,3654           33735                           CAF      GL+NOATT                              #  LEAVE GIMBAL LOCK AND NO ATT INTACT,
003767: 40,3655           71035                           MASK     DSPTAB     +11D                       #  TURNING OFF AUTO, HOLD, FREE,
003768: 40,3656           64735                           AD       BIT15                                 #  PROG ALARM, AND TRACKER.
003769: 40,3657           55035                           TS       DSPTAB     +11D
003770: 40,3660           45026                           CS       PRIO16                                #  RESET FAIL BITS WHICH GENERATE PROG
003771: 40,3661           71300                           MASK     IMODES33                              #  ALARM SO THAT IF THE FAILURE STILL
003772: 40,3662           65026                           AD       PRIO16                                #  EXISTS, THE ALARM WILL COME BACK.
003773: 40,3663           55300                           TS       IMODES33
003774: 40,3664           44742                           CS       BIT10
003775: 40,3665           71277                           MASK     IMODES30
003776: 40,3666           64742                           AD       BIT10
003777: 40,3667           55277                           TS       IMODES30
003778:
003779: 40,3670           43734                           CS       RFAILS
003780: 40,3671           70110                           MASK     RADMODES
003781: 40,3672           64745                           AD       RCDUFBIT
003782: 40,3673           54110                           TS       RADMODES
003783:
003784: 40,3674           06022                           TC       C13STALL
003785: 40,3675           44742                           CS       BIT10                                 #  TURN OFF :TEST ALARM: OUTBIT.
003786: 40,3676           00006                           EXTEND
003787: 40,3677           03013                           WAND     CHAN13
003788: 40,3700           43733                           CS       ERCON                                 #  TURN OFF UPLINK ACTIVITY,
003789: 40,3701           00006                           EXTEND                                         #  OPERATOR ERROR.
003790: 40,3702           03011                           WAND     DSALMOUT
003791: 40,3703           34363        TSTAB              CAF      BINCON                                #  (DEC 10)
003792: 40,3704           54117                           TS       ERCNT                                 #  ERCNT = COUNT
003793: 40,3705           00004                           INHINT
003794: 40,3706           50117                           INDEX    ERCNT
003795: 40,3707           11022                           CCS      DSPTAB
003796: 40,3710           64753                           AD       ONE
003797: 40,3711           03716                           TC       ERPLUS
003798: 40,3712           64753                           AD       ONE
003799: 40,3713           40000        ERMINUS            CS       A


003801: 40,3714           73736                           MASK     NOTBIT12
003802: 40,3715           03721                           TC       ERCOM
003803: 40,3716           40000        ERPLUS             CS       A
003804: 40,3717           73736                           MASK     NOTBIT12
003805: 40,3720           40000                           CS       A                                     #  MIGHT WANT TO RESET CLPASS, DECBRNCH,
003806: 40,3721           50117        ERCOM              INDEX    ERCNT                                 #  ETC.
003807: 40,3722           55022                           TS       DSPTAB
003808: 40,3723           00003                           RELINT
003809: 40,3724           10117                           CCS      ERCNT
003810: 40,3725           03704                           TC       TSTAB      +1
003811: 40,3726           34755                           CAF      ZERO
003812: 40,3727           54375                           TS       FAILREG
003813: 40,3730           54376                           TS       FAILREG    +1
003814: 40,3731           55357                           TS       SFAIL
003815: 40,3732           05155                           TC       ENDOFJOB
003816:
003817: 40,3733           00104        ERCON              OCT      104                                   #  CHAN 11 BITS 3,7.
003818:                                                                                                  #  UPLINK ACTIVITY, AND OPERATOR ERROR.
003819: 40,3734           00330        RFAILS             OCT      330                                   #  RADAR CDU AND DATA FAIL FLAGS.
003820: 40,3735           00050        GL+NOATT           OCT      00050                                 #  NO ATT AND GIMBAL LOCK LAMPS
003821: 40,3736           73777        NOTBIT12           OCT      73777
003822:
003823: 40,3737                        ENDPINS1           EQUALS
003824:
003825: 40,3737  30,2000                                  SBANK=   LOWSUPER
003826:

End of include-file PINBALL_GAME__BUTTONS_AND_LIGHTS.agc.  Parent file is MAIN.agc


