
Source Code


000002:                                                                                                  ## Copyright:   Public domain.
000003:                                                                                                  ## Filename:    POWERED_FLIGHT_SUBROUTINES.agc
000004:                                                                                                  ## Purpose:     A section of Luminary 1C, revision 131.
000005:                                                                                                  ##              It is part of the source code for the Lunar Module's (LM)
000006:                                                                                                  ##              Apollo Guidance Computer (AGC) for Apollo 13.
000007:                                                                                                  ##              This file is intended to be a faithful transcription, except
000008:                                                                                                  ##              that the code format has been changed to conform to the
000009:                                                                                                  ##              requirements of the yaYUL assembler rather than the
000010:                                                                                                  ##              original YUL assembler.
000011:                                                                                                  ## Reference:   pp. 1251-1259
000012:                                                                                                  ## Contact:     Ron Burkey <info@sandroid.org>.
000013:                                                                                                  ## Website:     www.ibiblio.org/apollo/index.html
000014:                                                                                                  ## Mod history: 06/03/03 RSB.   Began transcribing.
000015:                                                                                                  ##              05/14/05 RSB    Corrected website reference above.
000016:                                                                                                  ##              2010-10-25 JL   Indentation fixes.
000017:                                                                                                  ##              2017-01-06 RSB  Page numbers now agree with those on the
000018:                                                                                                  ##                              original hardcopy, as opposed to the PDF page
000019:                                                                                                  ##                              numbers in 1701.pdf.
000020:                                                                                                  ##              2017-02-27 RSB  Proofed comment text using octopus/ProoferComments.
000021:                                                                                                  ##              2017-03-01 RSB  Fixed lingering comment-text typos.
000022:


000024: 14,3775                                           BANK     14                                    #  SAME FBANK AS THE FINDCDUD SUB-PROGRAM
000025: 23,2000                                           SETLOC   POWFLITE
000026: 23,2000                                           BANK
000027:
000028: 23,3541     0142                                  EBANK=   DEXDEX
000029: 23,3541                                           COUNT*   $$/POWFL
000030:
000031:                                                                                                  #  CDUTRIG, CDUTRIG1, CDUTRIG2, AND CD*TR*GS ALL COMPUTE THE SINES AND
000032:                                                                                                  #  COSINES OF THREE 2'S COMPLEMENT ANGLES AND PLACE THE RESULT, DOUBLE
000033:                                                                                                  #  PRECISION, IN THE SAME ORDER AS THE INPUTS, AT SINCDU AND COSCDU.  AN
000034:                                                                                                  #  ADDITIONAL OUTPUT IS THE 1'S COMPLEMENT ANGLES AT CDUSPOT.  THESE
000035:                                                                                                  #  ROUTINES GO OUT OF THEIR WAY TO LEAVE THE MPAC AREA AS THEY FIND IT.
000036:                                                                                                  #  EXCEPT FOR THE GENERALLY UNIMPORTANT MPAC +2.  THEY DIFFER ONLY IN
000037:                                                                                                  #  WHERE THEY GET THE ANGLES, AND IN METHOD OF CALLING.
000038:
000039:                                                                                                  #  CDUTRIG (AND CDUTRIG1, WHICH CAN BE CALLED IN BASIC) COMPUTE THE
000040:                                                                                                  #  SINES AND COSINES FROM THE CURRENT CONTENTS OF THE CDU REGISTERS.
000041:                                                                                                  #  THE CONTENTS OF CDUTEMP, ETC., ARE NOT TOUCHED SO THAT THEY MAY
000042:                                                                                                  #  CONTINUE TO FORM A CONSISTENT SET WITH THE LATEST PIPA READINGS.
000043:
000044:                                                                                                  #  CDUTRIG1 IS LIKE CDUTRIG EXCEPT THAT IT CAN BE CALLED IN BASIC.
000045:
000046:                                                                                                  #  CD*TR*GS FINDS CDU VALUES IN CDUSPOT RATHER THAN IN CDUTEMP.  THIS
000047:                                                                                                  #  ALLOWS USERS TO MAKE TRANSFORMATIONS USING ARBITRARY ANGLES, OR REAL
000048:                                                                                                  #  ANGLES IN AN ORDER OTHER THAN X Y Z.  A CALL TO THIS ROUTINE IS
000049:                                                                                                  #  NECESSARY IN PREPARATION FOR A CALL TO AX*SR*T IN EITHER OF ITS TWO
000050:                                                                                                  #  MODES (SMNB OR NBSM).  SINCE AX*SR*T EXPECTS TO FIND THE SINES AND
000051:                                                                                                  #  COSINES IN THE ORDER Y Z X THE ANGLES MUST HAVE BEEN PLACED IN CDUSPOT
000052:                                                                                                  #  IN THIS ORDER.  CD*TR*GS NEED NOT BE REPEATED WHEN AX*SR*T IS CALLED
000053:                                                                                                  #  MORE THAN ONCE, PROVIDED THE ANGLES HAVE NOT CHANGED.  NOTE THAT SINCE
000054:                                                                                                  #  IT CLOBBERS BUF2 (IN THE SINE AND COSINE ROUTINES) CD*TR*GS CANNOT BE
000055:                                                                                                  #  CALLED USING BANKCALL.  SORRY.
000056:
000057:                                                                                                  #  CD*TR*G IS LIKE CD*TR*GS EXCEPT THAT IT CAN BE CALLED IN
000058:                                                                                                  #  INTERPRETIVE.
000059:
000060: 23,3541           77776        CDUTRIG            EXIT
000061: 23,3542           03551                           TC       CDUTRIGS
000062: 23,3543           06042                           TC       INTPRET
000063: 23,3544           77616                           RVQ
000064:
000065: 23,3545           77776        CD*TR*G            EXIT
000066: 23,3546           03557                           TC       CD*TR*GS
000067: 23,3547           06042                           TC       INTPRET
000068: 23,3550           77616                           RVQ
000069:
000070: 23,3551           30032        CDUTRIGS           CA       CDUX
000071: 23,3552           54771                           TS       CDUSPOT    +4
000072: 23,3553           30033                           CA       CDUY
000073: 23,3554           54765                           TS       CDUSPOT


000075: 23,3555           30034                           CA       CDUZ
000076: 23,3556           54767                           TS       CDUSPOT    +2
000077:
000078: 23,3557           00006        CD*TR*GS           EXTEND
000079: 23,3560           22142                           QXCH     TEM2
000080: 23,3561           34751                           CAF      FOUR
000081: 23,3562           76245        TR*GL**P           MASK     SIX                                   #  MAKE IT EVEN AND SMALLER
000082: 23,3563           54143                           TS       TEM3
000083: 23,3564           50143                           INDEX    TEM3
000084: 23,3565           30765                           CA       CDUSPOT
000085: 23,3566           52155                           DXCH     MPAC                                  #  STORING 2'S COMP ANGLE, LOADING MPAC
000086: 23,3567           52127                           DXCH     VBUF       +4                         #  STORING MPAC FOR LATER RESTORATION
000087: 23,3570           04713                           TC       USPRCADR
000088: 23,3571           21577                           CADR     CDULOGIC
000089: 23,3572           00006                           EXTEND
000090: 23,3573           30155                           DCA      MPAC
000091: 23,3574           50143                           INDEX    TEM3
000092: 23,3575           52766                           DXCH     CDUSPOT                               #  STORING 1'S COMPLEMENT ANGLE
000093: 23,3576           04713                           TC       USPRCADR
000094: 23,3577           01517                           CADR     COSINE
000095: 23,3600           52155                           DXCH     MPAC
000096: 23,3601           50143                           INDEX    TEM3
000097: 23,3602           52744                           DXCH     COSCDU                                #  STORING COSINE
000098: 23,3603           00006                           EXTEND
000099: 23,3604           50143                           INDEX    TEM3
000100: 23,3605           30766                           DCA      CDUSPOT                               #  LOADING 1'S COMPLEMENT ANGLE
000101: 23,3606           04713                           TC       USPRCADR
000102: 23,3607           01531                           CADR     SINE       +1                         #  SINE +1 EXPECTS ARGUMENT IN A AND L
000103: 23,3610           52127                           DXCH     VBUF       +4                         #  BRINGING UP PRIOR MPAC TO BE RESTORED
000104: 23,3611           52155                           DXCH     MPAC
000105: 23,3612           50143                           INDEX    TEM3
000106: 23,3613           52736                           DXCH     SINCDU
000107: 23,3614           10143                           CCS      TEM3
000108: 23,3615           13562                           TCF      TR*GL**P
000109: 23,3616           00142                           TC       TEM2


000111:                                                                                                  #  ****************************************************************************************************************
000112:                                                                                                  #  QUICTRIG, INTENDED FOR QUIDANCE CYCLE USE WHERE TIME IS CRITICAL, IS A MUCH FASTER VERSION OF CD*TR*GS.
000113:                                                                                                  #  QUICTRIG COMPUTES AND STORES THE SINES AND COSINES OF THE 2'S COMPLEMENT ANGLES AT CDUSPOT, CDUSPOT +2,
000114:                                                                                                  #  AND CDUSPOT +4.  UNLIKE CD*TR*GS, QUICTRIG DOES NOT LEAVE THE 1'S COMPLEMENT VERSIONS OF THE ANGLES IN
000115:                                                                                                  #  CDUSPOT.  QUICTRIG'S EXECUTION TIME IS 4.1 MS;  THIS IS 10 TIMES AS FAST AS CD*TR*GS.  QUICTRIG MAY BE
000116:                                                                                                  #  CALLED FROM INTERPRETIVE AS AN RTB OP-CODE, OR FROM BASIC VIA BANKCALL OR IBNKCALL.
000117:
000118: 23,3617           00004        QUICTRIG           INHINT                                         #  INHINT SINCE DAP USES THE SAME TEMPS
000119: 23,3620           00006                           EXTEND
000120: 23,3621           22061                           QXCH     ITEMP1
000121: 23,3622           34751                           CAF      FOUR
000122: 23,3623           76245                 +4        MASK     SIX
000123: 23,3624           54062                           TS       ITEMP2
000124: 23,3625           50062                           INDEX    ITEMP2
000125: 23,3626           30765                           CA       CDUSPOT
000126: 23,3627           05033                           TC       SPSIN
000127: 23,3630           00006                           EXTEND
000128: 23,3631           74736                           MP       BIT14                                 #  SCALE DOWN TO MATCH INTERPRETER OUTPUTS
000129: 23,3632           50062                           INDEX    ITEMP2
000130: 23,3633           52736                           DXCH     SINCDU
000131: 23,3634           50062                           INDEX    ITEMP2
000132: 23,3635           30765                           CA       CDUSPOT
000133: 23,3636           05032                           TC       SPCOS
000134: 23,3637           00006                           EXTEND
000135: 23,3640           74736                           MP       BIT14
000136: 23,3641           50062                           INDEX    ITEMP2
000137: 23,3642           52744                           DXCH     COSCDU
000138: 23,3643           10062                           CCS      ITEMP2
000139: 23,3644           13623                           TCF      QUICTRIG   +4
000140: 23,3645           30061                           CA       ITEMP1
000141: 23,3646           00003                           RELINT
000142: 23,3647           00000                           TC       A
000143:


000145:                                                                                                  #  ****************************************************************************************************************
000146:                                                                                                  #  THESE INTERFACE ROUTINES MAKE IT POSSIBLE TO CALL AX*SR*T, ETC., IN
000147:                                                                                                  #  INTERPRETIVE.  LATER, WHERE POSSIBLE, THEY WILL BE ELIMINATED.
000148:
000149:                                                                                                  #  THESE INTERFACE ROUTINES ARE PERMANENT.  ALL RESTORE USER'S EBANK
000150:                                                                                                  #  SETTING. ALL ARE STRICT INTERPRETIVE SUBROUTINES, CALLED USING "CALL",
000151:                                                                                                  #  RETURNING VIA QPRET.  ALL EXPECT AND RETURN THE VECTOR TO BE TRANSFOR-
000152:                                                                                                  #  MED INTERPRETER-STYLE IN MPAC; COMPONENTS AT MPAC, MPAC +3, AND MPAC +5.
000153:
000154:                                                                                                  #  TRG*SMNB AND TRG*NBSM BOTH EXPECT TO SEE THE 2'S COMPLEMENT ANGLES
000155:                                                                                                  #  AT CDUSPOT (ORDER Y Z X, AT CDUSPOT, CDUSPOT +2, AND CDUSPOT +4; ODD
000156:                                                                                                  #  LOCATIONS NEED NOT BE ZEROED).  TRG*NBSM DOES THE NB TO SM TRANSFOR-
000157:                                                                                                  #  MATION; TRG*SMNB, VICE VERSA.
000158:
000159:                                                                                                  #  CDU*NBSM DOES ITS TRANSFORMATION USING THE PRESENT CONTENTS OF
000160:                                                                                                  #  THE CDL COUNTERS.  OTHERWISE IT IS LIKE TRG*NBSM.
000161:
000162:                                                                                                  #  CDU*SMNB IS THE COMPLEMENT OF CDU*NBSM.
000163:
000164: 23,3650           77776        CDU*SMNB           EXIT
000165: 23,3651           03551                           TC       CDUTRIGS
000166: 23,3652           13655                           TCF      C*MM*N1
000167:
000168: 23,3653           77776        TRG*SMNB           EXIT
000169: 23,3654           03557                           TC       CD*TR*GS
000170: 23,3655           07535        C*MM*N1            TC       MPACVBUF                              #  AX*SR*T EXPECTS VECTOR IN VBUF
000171: 23,3656           46250                           CS       THREE                                 #  SIGNAL FOR SM TO NB TRANSFORMATION
000172: 23,3657           03677        C*MM*N2            TC       AX*SR*T
000173: 23,3660           06042                           TC       INTPRET
000174: 23,3661           43575                           VLOAD    RVQ
000175: 23,3662           00123                                    VBUF
000176:
000177: 23,3663           77776        CDU*NBSM           EXIT
000178: 23,3664           03551                           TC       CDUTRIGS
000179: 23,3665           13670                           TCF      C*MM*N3
000180:
000181: 23,3666           77776        TRG*NBSM           EXIT
000182: 23,3667           03557                           TC       CD*TR*GS
000183: 23,3670           07535        C*MM*N3            TC       MPACVBUF                              #  FOR AX*SR*T
000184: 23,3671           36250                           CA       THREE                                 #  SIGNAL FOR NB TO SM TRANSFORMATION
000185: 23,3672           13657                           TCF      C*MM*N2
000186:
000187:                                                                                                  #  *NBSM* AND *SMNB* EXPECT TO SEE THE SINES AND COSINES (AT SINCDU
000188:                                                                                                  #  AND COSCDU) RATHER THAN THE ANGLES THEMSELVES.  OTHERWISE THEY ARE
000189:                                                                                                  #  LIKE TRG*NBSM AND TRG*SMNB.
000190:
000191:                                                                                                  #  NOTE THAT JUST AS CD*TR*GS NEED BE CALLED ONLY ONCE FOR EACH SERIES
000192:                                                                                                  #  OF TRANSFORMATIONS USING THE SAME ANGLES, SO TOO ONLY ONE OF TRG*NBSM


000194:                                                                                                  #  AND TRG*SMNB NEED BE CALLED FOR EACH SERIES.  FOR SUBSEQUENT TRANSFOR-
000195:                                                                                                  #  MATIONS USE *NBSM* AND *SMNB*.
000196:
000197: 23,3673           77776        *SMNB*             EXIT
000198: 23,3674           13655                           TCF      C*MM*N1
000199:
000200: 23,3675           77776        *NBSM*             EXIT
000201: 23,3676           13670                           TCF      C*MM*N3
000202:
000203:                                                                                                  #  AX*SR*T COMBINES THE OLD SMNB AND NBSM.  FOR THE NB TO SM
000204:                                                                                                  #  TRANSFORMATION, ENTER WITH +3 IN A.  FOR SM TO NB, ENTER WITH -3.
000205:                                                                                                  #  THE VECTOR TO BE TRANSFORMED ARRIVES, AND IS RETURNED, IN VBUF.
000206:                                                                                                  #  AX*SR*T EXPECTS TO FIND THE SINES AND COSINES OF THE ANGLES OF ROTATION
000207:                                                                                                  #  AT SINCDU AND COSCDU, IN THE ORDER Y Z X.  A CALL TO CD*TR*GS, WITH
000208:                                                                                                  #  THE 2'S COMPLEMENT ANGLES (ORDER Y Z X) AT CDUSPOT, WILL TAKE CARE OF
000209:                                                                                                  #  THIS.  HERE IS A SAMPLE CALLING SEQUENCE:-
000210:                                                                                                  #                TC      CDUTRIGS
000211:                                                                                                  #                CS      THREE           ("CA THREE" FOR NBSM)
000212:                                                                                                  #                TC      AX*SR*T
000213:                                                                                                  #  THE CALL TO CD*TR*GS NEED NOT BE REPEATED, WHEN AX*SR*T IS CALLED MORE
000214:                                                                                                  #  THAN ONCE, UNLESS THE ANGLES HAVE CHANGED.
000215:
000216:                                                                                                  #  AX*SR*T IS GUARANTEED SAFE ONLY FOR VECTORS OF MAGNITUDE LESS THAN
000217:                                                                                                  #  UNITY.  A LOOK AT THE CASE IN WHICH A VECTOR OF GREATER MAGNITUDE
000218:                                                                                                  #  HAPPENS TO LIE ALONG AN AXIS OF THE SYSTEM TO WHICH IT IS TO BE TRANS-
000219:                                                                                                  #  FORMED CONVINCES ONE THAT THIS IS A RESTRICTION WHICH MUST BE ACCEPTED.
000220:
000221: 23,3677           54142        AX*SR*T            TS       DEXDEX                                #  WHERE IT BECOMES THE INDEX OF INDEXES
000222: 23,3700           00006                           EXTEND
000223: 23,3701           22145                           QXCH     RTNSAVER
000224:
000225: 23,3702           10142        R*TL**P            CCS      DEXDEX                                #                +3 --> 0        -3 --> 2
000226: 23,3703           40142                           CS       DEXDEX                                #  THUS:         +2 --> 1        -2 --> 1
000227: 23,3704           66250                           AD       THREE                                 #                +1 --> 2        -1 --> 0
000228: 23,3705           00006                           EXTEND
000229: 23,3706           50000                           INDEX    A
000230: 23,3707           33766                           DCA      INDEXI
000231: 23,3710           52144                           DXCH     DEXI
000232:
000233: 23,3711           34753                           CA       ONE
000234: 23,3712           54130                           TS       BUF
000235: 23,3713           00006                           EXTEND
000236: 23,3714           50143                           INDEX    DEX1
000237: 23,3715           40123                           DCS      VBUF
000238: 23,3716           13720                           TCF      LOOP1                                 #  REALLY BE A SUBTRACT, AND VICE VERSA
000239:
000240: 23,3717           52131        LOOP2              DXCH     BUF                                   #  LOADING VECTOR COMPONENT, STORING INDEX


000242: 23,3720           52155        LOOP1              DXCH     MPAC
000243: 23,3721           33764                           CA       SINSLOC
000244: 23,3722           60143                           AD       DEX1
000245: 23,3723           54116                           TS       ADDRWD
000246:
000247: 23,3724           07112                           TC       DMPSUB                                #  MULTIPLY BY SIN(CDUANGLE)
000248: 23,3725           10142                           CCS      DEXDEX
000249: 23,3726           52155                           DXCH     MPAC                                  #  NBSM CASE
000250: 23,3727           13732                           TCF      +3
000251: 23,3730           00006                           EXTEND                                         #  SMNB CASE
000252: 23,3731           40155                           DCS      MPAC
000253: 23,3732           52160                           DXCH     TERM1TMP
000254:
000255: 23,3733           36245                           CA       SIX                                   #  SINCDU AND COSCDU (EACH 6 WORDS) MUST
000256: 23,3734           26116                           ADS      ADDRWD                                #        BE CONSECUTIVE AND IN THAT ORDER
000257:
000258: 23,3735           00006                           EXTEND
000259: 23,3736           50130                           INDEX    BUF
000260: 23,3737           50143                           INDEX    DEX1
000261: 23,3740           30123                           DCA      VBUF
000262: 23,3741           52155                           DXCH     MPAC
000263: 23,3742           07112                           TC       DMPSUB                                #  MULTIPLY BY COS(CDUANGLE)
000264: 23,3743           52155                           DXCH     MPAC
000265: 23,3744           20160                           DAS      TERM1TMP
000266: 23,3745           52160                           DXCH     TERM1TMP
000267: 23,3746           20001                           DDOUBL
000268: 23,3747           50130                           INDEX    BUF
000269: 23,3750           50143                           INDEX    DEX1
000270: 23,3751           52123                           DXCH     VBUF
000271: 23,3752           52131                           DXCH     BUF                                   #  LOADING INDEX, STORING VECTOR COMPONENT
000272: 23,3753           10000                           CCS      A                                     #  'CAUSE THAT'S WHERE THE INDEX NOW IS
000273: 23,3754           13717                           TCF      LOOP2
000274:
000275: 23,3755           00006                           EXTEND
000276: 23,3756           26142                           DIM      DEXDEX                                #  DECREMENT MAGNITUDE PRESERVING SIGN
000277:
000278: 23,3757           10142        TSTPOINT           CCS      DEXDEX                                #  ONLY THE BRANCHING FUNCTION IS USED
000279: 23,3760           13702                           TCF      R*TL**P
000280: 23,3761           00145                           TC       RTNSAVER
000281: 23,3762           13702                           TCF      R*TL**P
000282: 23,3763           00145                           TC       RTNSAVER
000283:
000284: 23,3764           00735        SINSLOC            ADRES    SINCDU                                #  FOR USE IN SETTING ADDRWD
000285:
000286: 23,3765           00004        INDEXI             DEC      4          B-14                       #  **********   DON'T   **********
000287: 23,3766           00002                           DEC      2          B-14                       #  **********   TOUCH   **********
000288: 23,3767           00000                           DEC      0          B-14                       #  **********   THESE   **********


000290: 23,3770           00004                           DEC      4          B-14                       #  ********** CONSTANTS **********
000291:
000292:                                                                                                  #  ****************************************************************************************************************
000293:
000294: 10,2030                                           BANK     10
000295: 10,2000                                           SETLOC   FLESHLOC
000296: 10,2000                                           BANK
000297: 10,2030                                           COUNT*   $$/POWFL
000298:
000299:                                                                                                  #  ROUTINE FLESHPOT COMPUTES THE BODY-STABLE MEMBER TRANSFORMATION MATRIX (COMMONLY CALLED XNB) AND STORES
000300:                                                                                                  #  IT IN THE LOCATIONS SPECIFIED BY THE ECADR ENTERING IN A.
000301:
000302: 10,2030           77776        CALCSMSC           EXIT
000303: 10,2031           04616                           TC       BANKCALL
000304: 10,2032           20036                           CADR     FLESHPOT   -1
000305: 10,2033           06042                           TC       INTPRET
000306: 10,2034           77616                           RVQ
000307:
000308: 10,2035           02664        XNBECADR           ECADR    XNB
000309:
000310: 10,2036           32035                 -1        CAF      XNBECADR
000311:
000312: 10,2037           54142        FLESHPOT           TS       TEM2
000313: 10,2040           56003                           XCH      EBANK
000314: 10,2041           56142                           XCH      TEM2
000315: 10,2042           74357                           MASK     LOW8
000316: 10,2043           65007                           AD       OCT1400
000317: 10,2044           54141                           TS       TEM1
000318:
000319: 10,2045           00006                           EXTEND
000320: 10,2046           30744                           DCA      COSCDUY
000321: 10,2047           52155                           DXCH     MPAC
000322: 10,2050           07106                           TC       DMP
000323: 10,2051           00745                           ADRES    COSCDUZ
000324: 10,2052           52155                           DXCH     MPAC
000325: 10,2053           20001                           DDOUBL
000326: 10,2054           50141                           INDEX    TEM1
000327: 10,2055           52001                           DXCH     0                                     #  = COSY COSZ
000328:
000329: 10,2056           00006                           EXTEND
000330: 10,2057           30740                           DCA      SINCDUZ
000331: 10,2060           50141                           INDEX    TEM1
000332: 10,2061           52003                           DXCH     2                                     #  = SINZ
000333:
000334: 10,2062           00006                           EXTEND
000335: 10,2063           40736                           DCS      SINCDUY
000336: 10,2064           52155                           DXCH     MPAC
000337: 10,2065           07112                           TC       DMPSUB                                #  ADDRWD SET TO COSCDUZ


000339: 10,2066           52155                           DXCH     MPAC
000340: 10,2067           20001                           DDOUBL
000341: 10,2070           50141                           INDEX    TEM1
000342: 10,2071           52005                           DXCH     4                                     #  = - SINY COSZ
000343:
000344: 10,2072           00006                           EXTEND
000345: 10,2073           40742                           DCS      SINCDUX
000346: 10,2074           52155                           DXCH     MPAC
000347: 10,2075           07112                           TC       DMPSUB                                #  ADDRWD SET TO COSCDUZ STILL
000348: 10,2076           52155                           DXCH     MPAC
000349: 10,2077           20001                           DDOUBL
000350: 10,2100           52160                           DXCH     MPAC       +3
000351:
000352: 10,2101           00006                           EXTEND
000353: 10,2102           40742                           DCS      SINCDUX
000354: 10,2103           52155                           DXCH     MPAC
000355: 10,2104           07106                           TC       DMP
000356: 10,2105           00737                           ADRES    SINCDUZ
000357: 10,2106           00006                           EXTEND
000358: 10,2107           40155                           DCS      MPAC
000359: 10,2110           52162                           DXCH     MPAC       +5
000360: 10,2111           07106                           TC       DMP
000361: 10,2112           00735                           ADRES    SINCDUY
000362: 10,2113           52155                           DXCH     MPAC
000363: 10,2114           20001                           DDOUBL
000364: 10,2115           20001                           DDOUBL
000365: 10,2116           52162                           DXCH     MPAC       +5
000366:
000367: 10,2117           52155                           DXCH     MPAC
000368: 10,2120           07106                           TC       DMP
000369: 10,2121           00743                           ADRES    COSCDUY
000370: 10,2122           52155                           DXCH     MPAC
000371: 10,2123           20001                           DDOUBL
000372: 10,2124           20001                           DDOUBL
000373: 10,2125           52131                           DXCH     BUF
000374:
000375: 10,2126           00006                           EXTEND
000376: 10,2127           30744                           DCA      COSCDUY
000377: 10,2130           52155                           DXCH     MPAC
000378: 10,2131           07106                           TC       DMP
000379: 10,2132           00747                           ADRES    COSCDUX
000380: 10,2133           52155                           DXCH     MPAC
000381: 10,2134           20001                           DDOUBL
000382: 10,2135           20162                           DAS      MPAC       +5
000383:
000384: 10,2136           00006                           EXTEND
000385: 10,2137           30736                           DCA      SINCDUY
000386: 10,2140           52155                           DXCH     MPAC
000387: 10,2141           07112                           TC       DMPSUB                                #  ADDRWD SET TO COSCDUX
000388: 10,2142           52155                           DXCH     MPAC
000389:


000391: 10,2143           20001                           DDOUBL
000392: 10,2144           20131                           DAS      BUF
000393:
000394: 10,2145           52131                           DXCH     BUF
000395: 10,2146           52155                           DXCH     MPAC
000396:
000397: 10,2147           00006                           EXTEND
000398: 10,2150           30155                           DCA      MPAC
000399: 10,2151           50141                           INDEX    TEM1
000400: 10,2152           52015                           DXCH     14                                    #  = SINY COSX + SINX SINZ COSY
000401:
000402: 10,2153           00006                           EXTEND
000403: 10,2154           30160                           DCA      MPAC       +3
000404: 10,2155           50141                           INDEX    TEM1
000405: 10,2156           52017                           DXCH     16                                    #  = - SINX COSZ
000406:
000407: 10,2157           00006                           EXTEND
000408: 10,2160           30162                           DCA      MPAC       +5
000409: 10,2161           50141                           INDEX    TEM1
000410: 10,2162           52021                           DXCH     20                                    #  = COSX COSY - SINX SINY SINZ
000411:
000412: 10,2163           30141                           CA       TEM1
000413: 10,2164           54116                           TS       ADDRWD
000414: 10,2165           00006                           EXTEND
000415: 10,2166           30006                           DCA      Z
000416: 10,2167           64751                           AD       FOUR
000417: 10,2170           52165                           DXCH     LOC
000418: 10,2171           34744                           CAF      BIT8
000419: 10,2172           54023                           TS       EDOP
000420: 10,2173           17463                           TCF      VXV
000421: 10,2174           52155                           DXCH     MPAC
000422: 10,2175           20001                           DDOUBL
000423: 10,2176           50141                           INDEX    TEM1
000424: 10,2177           52007                           DXCH     6
000425:
000426: 10,2200           52160                           DXCH     MPAC       +3
000427: 10,2201           20001                           DDOUBL
000428: 10,2202           50141                           INDEX    TEM1
000429: 10,2203           52011                           DXCH     10
000430:
000431: 10,2204           52162                           DXCH     MPAC       +5
000432: 10,2205           20001                           DDOUBL
000433: 10,2206           50141                           INDEX    TEM1
000434: 10,2207           52013                           DXCH     12
000435:
000436: 10,2210           30142                           CA       TEM2
000437: 10,2211           54003                           TS       EBANK
000438: 10,2212           14631                           TCF      SWRETURN
000439:

End of include-file POWERED_FLIGHT_SUBROUTINES.agc.  Parent file is MAIN.agc


