
Source Code
000001:                                                                                                 #  Copyright:     Public domain.
000002:                                                                                                 #  Filename:      R60_62.agc
000003:                                                                                                 #  Purpose:       A section of Luminary 1C, revision 131.
000004:                                                                                                 #                 It is part of the source code for the Lunar Module's (LM)
000005:                                                                                                 #                 Apollo Guidance Computer (AGC) for Apollo 13 and Apollo 14.
000006:                                                                                                 #                 This file is intended to be a faithful transcription, except
000007:                                                                                                 #                 that the code format has been changed to conform to the
000008:                                                                                                 #                 requirements of the yaYUL assembler rather than the
000009:                                                                                                 #                 original YUL assembler.
000010:                                                                                                 #  Reference:     pp. 481-494 of 1729.pdf.
000011:                                                                                                 #  Contact:       Ron Burkey <info@sandroid.org>.
000012:                                                                                                 #  Website:       www.ibiblio.org/apollo/index.html
000013:                                                                                                 #  Mod history:   05/14/03 RSB.   Began transcribing.
000014:                                                                                                 #                 05/14/05 RSB    Corrected website reference above.
000015:
000016:                                                                                                 #  Page 481
000017:                                                                                                 #  MOD NO: 0                              DATE: 1 MAY 1968
000018:                                                                                                 #  MOD BY: DIGITAL DEVEL GROUP            LOG SECTION R60,R62
000019:
000020:                                                                                                 #  FUNCTIONAL DESCRIPTION:
000021:
000022:                                                                                                 #  CALLED AS A GENERAL SUBROUTINE TO MANEUVER THE LM TO A SPECIFIED
000023:                                                                                                 #  ATTITUDE.
000024:
000025:                                                                                                 #  1. IF THE 3-AXIS FLAG IS NOT SET THE FINAL CDU ANGLES ARE
000026:                                                                                                 #  CALCULATED (VECPOINT).
000027:
000028:                                                                                                 #  2. THE FDAI BALL ANGLES (NOUN 18) ARE CALCULATED (BALLANGS).
000029:
000030:                                                                                                 #  3. REQUEST FLASHING DISPLAY V50 N18 PLEASE PERFORM AUTO MANEUVER.
000031:
000032:                                                                                                 #  4. IF PRIORITY DISPLAY FLAG IS SET TO A PHASECHANGE.  THEN AWAIT
000033:                                                                                                 #  ASTRONAUT RESPONSE.
000034:
000035:                                                                                                 #  5. DISPLAY RESPONSE RETURNS.
000036:
000037:                                                                                                 #         A.      ENTER -- RESET 3-AXIS FLAG AND RETURN TO CLIENT.
000038:
000039:                                                                                                 #         B.      TERMINATE -- IF IN P00 GO TO STEP 5A.  OTHERWISE CHECK IF R61 IS
000040:                                                                                                 #                 THE CALLING PROGRAM.  IF IN R61 AN EXIT IS MADE TO GOTOV56.  IF
000041:                                                                                                 #                 NOT IN R61 AND EXIT IS DONE VIA GOTOP00H.
000042:
000043:                                                                                                 #         C.      PROCEED -- CONTINUE WITH PROGRAM AT STEP 6.
000044:
000045:                                                                                                 #  6. IF THE 3-AXIS FLAG IS NOT SET, THE FINAL CDU ANGLES ARE CALCULATED
000046:                                                                                                 #  (VECPOINT).
000047:
000048:                                                                                                 #  7. THE FDAI BALL ANGLES (NOUN 18) ARE CALCULATED (BALLANGS).
000049:
000050:                                                                                                 #  8. IF THE G+N SWITCH IS NOT SET GO BACK TO STEP 3.
000051:                                                                                                 #
000052:                                                                                                 #  9. IF THE AUTO SWITCH IS NOT SET GO BACK TO STEP 3.
000053:
000054:                                                                                                 #  10. NON-FLASHING DISPLAY V06N18 (FDAI ANGLES).
000055:
000056:                                                                                                 #  11. DO A PHASE-CHANGE.
000057:
000058:                                                                                                 #  12. DO A MANEUVER CALCULATION AND ICDU DRIVE ROUTINE TO ACHIEVE FINAL
000059:                                                                                                 #  GIMBAL ANGLES (GOMANUR).
000060:
000061:                                                                                                 #  13. AT END OF MANEUVER TO TO STEP 3.
000062:
000063:                                                                                                 #         IF SATISFACTORY MANEUVER STEP 5A EXITS R60.
000064:                                                                                                 #         FOR FURTHER ADJUSTMENT OF THE VEHICLE ATTITUDE ABOUT THE
000065:                                                                                                 #         DESIRED VECTOR, THE ROUTINE MAY BE PERFORMED AGAIN STARTING AT
000066:                                                                                                 #  Page 482
000067:                                                                                                 #         STEP 5C.
000068:
000069:                                                                                                 #  CALLING SEQUENCE:      TC      BANKCALL
000070:                                                                                                 #                         CADR    R60LEM
000071:
000072:                                                                                                 #  ERASABLE INITIALIZATION REQUIRED:      SCAXIS, POINTVSM (FOR VECPOINT)
000073:                                                                                                 #                                         3AXISFLG.
000074:
000075:                                                                                                 #  SUBROUTINES CALLED:    VECPOINT, BALLANGS, GOPERF24, LINUS, GOSPER,
000076:                                                                                                 #                         GOMANUR, DOWNFLAG, PHASCHNG, UPFLAG
000077:
000078:                                                                                                 #  NORMAL EXIT MODES:     CAE     TEMPR60         (CALLER'S RETURN ADDRESS)
000079:                                                                                                 #                         TC      BANKJUMP
000080:
000081:                                                                                                 #  ALARMS: NONE
000082:
000083:                                                                                                 #  OUTPUT: NONE
000084:
000085:                                                                                                 #  DEBRIS: CPHI, CTHETA, CPSI, 3AXISFLG, TBASE2
000086:
000087: 34,2000                                          BANK     34
000088: 26,2000                                          SETLOC   MANUVER
000089: 26,2000                                          BANK
000090:
000091: 26,2123     1163                                 EBANK=   TEMPR60
000092:
000093: 26,2123                                          COUNT*   $$/R06
000094: 26,2123           04645        R60LEM            TC       MAKECADR
000095: 26,2124           55163                          TS       TEMPR60
000096:
000097: 26,2125           34746        REDOMANN          CAF      3AXISBIT
000098: 26,2126           70101                          MASK     FLAGWRD5                              #  IS 3-AXIS FLAG SET
000099: 26,2127           10000                          CCS      A
000100: 26,2130           12136                          TCF      TOBALL                                #  YES
000101: 26,2131           06042                          TC       INTPRET
000102: 26,2132           77624                          CALL
000103: 26,2133           56040                                   VECPOINT                              #  TO COMPUTE FINAL ANGLES
000104: 26,2134           00322                          STORE    CPHI                                  #  STORE FINAL ANGLES -- CPHI, CTHETA, CPSI
000105: 26,2135           77776                          EXIT
000106:
000107: 26,2136           05504        TOBALL            TC       UPFLAG                                #  INSURE THAT TOTAL ATTITUDE ERRORS ARE
000108: 26,2137           00013                          ADRES    NEEDLFLG                              #  DISPLAYED ON FDAI ERROR NEEDLES
000109: 26,2140           05516                          TC       DOWNFLAG
000110: 26,2141           00000                          ADRES    NEED2FLG
000111: 26,2142           04616                          TC       BANKCALL
000112: 26,2143           54272                          CADR     BALLANGS                              #  TO CONVERT ANGLES TO FDAI
000113: 26,2144           32260        TOBALLA           CAF      V06N18
000114: 26,2145           04616                          TC       BANKCALL
000115:                                                                                                 #  Page 483
000116: 26,2146           20711                          CADR     GOPERF2R                              #  DISPLAY PLEASE PERFORM AUTO MANEUVER
000117: 26,2147           02246                          TC       R61TEST
000118: 26,2150           02154                          TC       REDOMANC                              #  PROCEED
000119: 26,2151           02201                          TC       ENDMANU1                              #  ENTER I.E., FINISHED WITH R60
000120: 26,2152           02205                          TC       CHKLINUS                              #  TO CHECK FOR PRIORITY DISPLAYS
000121: 26,2153           05155                          TC       ENDOFJOB
000122:
000123: 26,2154           34746        REDOMANC          CAF      3AXISBIT
000124: 26,2155           70101                          MASK     FLAGWRD5                              #  IS 3-AXIS FLAG SET
000125: 26,2156           10000                          CCS      A
000126: 26,2157           12165                          TCF      TOBALLC                               #  YES
000127: 26,2160           06042                          TC       INTPRET
000128: 26,2161           77624                          CALL
000129: 26,2162           56040                                   VECPOINT                              #  TO COMPUTE FINAL ANGLES
000130: 26,2163           00322                          STORE    CPHI                                  #  STORE ANGLES
000131: 26,2164           77776                          EXIT
000132:
000133: 26,2165           04616        TOBALLC           TC       BANKCALL
000134: 26,2166           54272                          CADR     BALLANGS                              #  TO CONVERT ANGLES TO FDAI
000135: 26,2167           02261                          TC       G+N,AUTO                              #  CHECK AUTO MODE
000136: 26,2170           10000                          CCS      A
000137: 26,2171           12144                          TCF      TOBALLA                               #  NOT AUTO, GO REREQUEST AUTO MANEUVER.
000138:
000139: 26,2172           32260        AUTOMANV          CAF      V06N18                                #  STATIC DISPLAY DURING AUTO MANEUVER
000140: 26,2173           04616                          TC       BANKCALL
000141: 26,2174           20452                          CADR     GODSPR
000142: 26,2175           02205                          TC       CHKLINUS                              #  TO CHECK FOR PRIORITY DISPLAYS
000143:
000144: 26,2176           04616        STARTMNV          TC       BANKCALL                              #  PERFORM MANEUVER VIA KALCMANU
000145: 26,2177           17741                          CADR     GOMANUR
000146:
000147: 26,2200           12144        ENDMANUV          TCF      TOBALLA                               #  FINISHED MANEUVER.
000148: 26,2201           05516        ENDMANU1          TC       DOWNFLAG                              #  RESET 3-AXIS FLAG
000149: 26,2202           00124                          ADRES    3AXISFLG
000150: 26,2203           31163                          CAE      TEMPR60
000151: 26,2204           04640                          TC       BANKJUMP
000152:
000153: 26,2205           40100        CHKLINUS          CS       FLAGWRD4
000154: 26,2206           74740                          MASK     PDSPFBIT                              #  IS PRIORITY DISPLAY FLAG SET?
000155: 26,2207           10000                          CCS      A
000156: 26,2210           00002                          TC       Q                                     #  NO -- EXIT
000157: 26,2211           30002                          CA       Q
000158: 26,2212           54156                          TS       MPAC       +2                         #  SAVE RETURN
000159: 26,2213           46250                          CS       THREE                                 #  OBTAIN LOCATION FOR RESTART
000160: 26,2214           60133                          AD       BUF2                                  #  HOLD Q OF LAST DISPLAY
000161: 26,2215           55054                          TS       TBASE2
000162:
000163: 26,2216           05353                          TC       PHASCHNG
000164: 26,2217           00132                          OCT      00132
000165:                                                                                                 #  Page 484
000166: 26,2220           34745                          CAF      BIT7
000167: 26,2221           05464                          TC       LINUS                                 #  GO SET BITS FOR PRIORITY DISPLAY
000168: 26,2222           00156                          TC       MPAC       +2
000169:
000170: 26,2223           37717        RELINUS           CAF      PRIO26                                #  RESTORE ORIGINAL PRIORITY
000171: 26,2224           05146                          TC       PRIOCHNG
000172:
000173: 26,2225           34747                          CAF      TRACKBIT                              #  DON'T CONTINUE R60 UNLESS TRACKFLAG ON.
000174: 26,2226           70075                          MASK     FLAGWRD1
000175: 26,2227           10000                          CCS      A
000176: 26,2230           12243                          TCF      RER60
000177:
000178: 26,2231           34745                          CAF      RNDVZBIT                              #  IS IT P20?
000179: 26,2232           70074                          MASK     FLAGWRD0
000180: 26,2233           10000                          CCS      A
000181: 26,2234           02240                          TC       +4                                    #  YES
000182: 26,2235           05353                          TC       PHASCHNG                              #  NO, MUST BE P25, SET 2.11 SPOT
000183: 26,2236           40112                          OCT      40112
000184:
000185: 26,2237           05155                          TC       ENDOFJOB
000186:
000187: 26,2240           05353                          TC       PHASCHNG                              #  SET 2.7 SPOT FOR P20
000188: 26,2241           40072                          OCT      40072
000189:
000190: 26,2242           05155                          TC       ENDOFJOB
000191:
000192: 26,2243           05504        RER60             TC       UPFLAG                                #  SET PRIO DISPLAY FLAG AFTER RESTART
000193: 26,2244           00077                          ADRES    PDSPFLAG
000194:
000195: 26,2245           01054                          TC       TBASE2
000196:
000197: 26,2246           31010        R61TEST           CA       MODREG                                #  IF WE ARE IN P00 IT MUST BE V49 OR V89
000198: 26,2247           00006                          EXTEND
000199: 26,2250           12201                          BZF      ENDMANU1                              #  THUS WE GO TO ENDEXT VIA USER
000200:
000201: 26,2251           30100                          CA       FLAGWRD4                              #  ARE WE IN R61 (P20 OR garbled)
000202: 26,2252           74740                          MASK     PDSPFBIT
000203: 26,2253           00006                          EXTEND
000204: 26,2254           16001                          BZF      GOTOP00H                              #  NO
000205: 26,2255           06025                          TC       GOTOV56                               #  YES
000206:
000207: 26,2256           20100        BIT14+7           OCT      20100
000208: 26,2257           00203        OCT203            OCT      203
000209: 26,2260           01422        V06N18            VN       0618
000210:
000211:                                                                                                 #  SUBROUTINE TO CHECK FOR G+N CONTROL, AUTO STABILIZATION
000212:
000213:                                                                                                 #  RETURNS WITH C(A) = +  IF NOT SET FOR G+N, AUTO
000214:                                                                                                 #  RETURNS WITH C(A) = +0 IF SWITCHES ARE SET
000215:
000216: 26,2261           00006        G+N,AUTO          EXTEND
000217:                                                                                                 #  Page 485
000218: 26,2262           00030                          READ     CHAN30
000219: 26,2263           74742                          MASK     BIT10
000220: 26,2264           10000                          CCS      A
000221: 26,2265           00002                          TC       Q                                     #  NOT IN G+N     C(A) = -
000222: 26,2266           00006        ISITAUTO          EXTEND                                         #  CHECK FOR AUTO MODE
000223: 26,2267           00031                          READ     CHAN31
000224: 26,2270           74736                          MASK     BIT14
000225: 26,2271           00002                          TC       Q                                     #  (+) = NOT IN AUTO, (+0) = AOK
000226:
000227:                                                                                                 #  Page 486
000228:                                                                                                 #  PROGRAM DESCRIPTION BALLANGS
000229:                                                                                                 #  MOD NO.                                LOG SECTION R60,R62
000230:                                                                                                 #  WRITTEN BY RAMA M. AIYAWAR
000231:
000232:                                                                                                 #  FUNCTIONAL DESCRIPTION
000233:
000234:                                                                                                 #         COMPUTES LM FDAI BALL DISPLAY ANGLES
000235:
000236:                                                                                                 #  CALLING SEQUENCE
000237:
000238:                                                                                                 #         TC      BALLANGS
000239:
000240:                                                                                                 #  NORMAL EXIT MODE
000241:
000242:                                                                                                 #         TC      BALLEXIT        # (SAVED Q)
000243:
000244:                                                                                                 #  ALARM OR EXIT MODE:    NIL
000245:
000246:                                                                                                 #  SUBROUTINES CALLED
000247:
000248:                                                                                                 #         CD*TR*G
000249:                                                                                                 #         ARCTAN
000250:
000251:                                                                                                 #  INPUT
000252:
000253:                                                                                                 #         CPHI,CTHETA,CPSI ARE THE ANGLES CORRESPONDING TO AOG, AIG, AMG.  THEY ARE
000254:                                                                                                 #         SP,2'S COMPLEMENT SCALED TO HALF REVOLUTION.
000255:
000256:                                                                                                 #  OUTPUT
000257:
000258:                                                                                                 #         FDAIX, FDAIY, FDAIZ ARE THE REQUIRED BALL ANGLES SCALED TO HALF REVOLUTION
000259:                                                                                                 #         SP,2'S COMPEMENT.
000260:
000261:                                                                                                 #         THESE ANGLES WILL BE DISPLAYED AS DEGREES AND HUNDREDTHS, IN THE ORDER ROLL, PITCH, YAW, USING NOUNS 18 & 19.
000262:
000263:                                                                                                 #  ERASABLE INITIALIZATION REQUIRED
000264:
000265:                                                                                                 #         CPHI, CTHETA, CPSI      EACH AN SP REGISTER
000266:
000267:                                                                                                 #  DEBRIS
000268:
000269:                                                                                                 #         A,L,Q,MPAC,SINCDU,COSCDU,PUSHLIST,BALLEXIT
000270:
000271:                                                                                                 #  NOMENCLATURE:  CPHI, CTHETA, & CPSI REPRESENT THE OUTER, INNER, AND MIDDLE GIMBAL ANGLES, RESPECTIVELY; OR
000272:                                                                                                 #                 EQUIVALENTLY, CDUX, CDUY, AND CDUZ.
000273:
000274:                                                                                                 #  NOTE:  ARCTAN CHECKS FOR OVERFLOW AND SHOULD BE ABLE TO HANDLE ANY SINGULARITIES.
000275:
000276: 26,2000                                          SETLOC   BAWLANGS
000277: 26,2000                                          BANK
000278:
000279: 26,2272                                          COUNT*   $$/BALL
000280: 26,2272           04645        BALLANGS          TC       MAKECADR
000281: 26,2273           55337                          TS       BALLEXIT
000282: 26,2274           30321                          CA       CPHI
000283:                                                                                                 #  Page 487
000284: 26,2275           54771                          TS       CDUSPOT    +4
000285: 26,2276           30322                          CA       CTHETA
000286: 26,2277           54765                          TS       CDUSPOT
000287: 26,2300           30323                          CA       CPSI
000288: 26,2301           54767                          TS       CDUSPOT    +2
000289:
000290: 26,2302           06042                          TC       INTPRET
000291: 26,2303           45001                          SETPD    CALL
000292: 26,2304           00001                                   0D
000293: 26,2305           47545                                   CD*TR*G
000294:
000295: 26,2306           41345                          DLOAD    DMP
000296: 26,2307           00742                                   SINCDUX                               #  SIN (OGA)
000297: 26,2310           00746                                   COSCDUZ                               #  COS (MGA)
000298:
000299: 26,2311           57552                          SL1      DCOMP                                 #  SCALE
000300: 26,2312           65336                          ARCSIN   PDDL                                  #  YAW = ARCSIN(-SXCZ) INTO 0 PD
000301: 26,2313           00740                                   SINCDUZ
000302: 26,2314           14023                          STODL    SINTH                                 #  (SINTH = 18D IN PD)
000303: 26,2315           00746                                   COSCDUZ
000304: 26,2316           72405                          DMP      SL1                                   #  RESCALE
000305: 26,2317           00750                                   COSCDUX
000306: 26,2320           34021                          STCALL   COSTH                                 #  (COSTH = 16D IN PD)
000307: 26,2321           26506                                   ARCTAN
000308: 26,2322           41325                          PDDL     DMP                                   #  ROLL = ARCTAN(SZ/CZCX) INTO 2 PD
000309: 26,2323           00740                                   SINCDUZ
000310: 26,2324           00742                                   SINCDUX
000311: 26,2325           41512                          SL2      PUSH                                  #  SXSZ INTO 4 PD
000312: 26,2326           65205                          DMP      PDDL                                  #  SXSZCY INTO 4 PD
000313: 26,2327           00744                                   COSCDUY
000314: 26,2330           65205                          DMP      PDDL                                  #  SXSZSY INTO 6 PD
000315: 26,2331           00736                                   SINCDUY
000316: 26,2332           00750                                   COSCDUX
000317: 26,2333           72405                          DMP      SL1                                   #  CXCY
000318: 26,2334           00744                                   COSCDUY
000319: 26,2335           45425                          DSU      STADR                                 #  PULL UP FORM 6 PD
000320: 26,2336           63756                          STODL    COSTH                                 #  COSTH = CXCY - SXSZSY
000321: 26,2337           00736                                   SINCDUY
000322: 26,2340           72405                          DMP      SL1
000323: 26,2341           00750                                   COSCDUX                               #  CXSY
000324: 26,2342           45415                          DAD      STADR                                 #  PULL UP FORM 4 PD
000325: 26,2343           43754                          STCALL   SINTH                                 #  SINTH = CXSY + SXSZCY
000326: 26,2344           26506                                   ARCTAN                                #  RETURNS WITH D(MPAC) = PITCH
000327: 26,2345           55525                          PDDL     VDEF                                  #  PITCH INTO 2 PD, ROLL INTO MPAC FROM 2 PD
000328: 26,2346           77634                          RTB                                            #  VDEF MAKES V(MPAC) = ROLL, PITCH, YAW
000329: 26,2347           21621                                   V1STO2S
000330: 26,2350           02345                          STORE    FDAIX                                 #  MODE IS TP
000331: 26,2351           77776                          EXIT
000332:
000333: 26,2352           31337        ENDBALL           CA       BALLEXIT
000334:
000335:                                                                                                 #  Page 488
000336: 26,2353           04640                          TC       BANKJUMP
000337:
000338:                                                                                                 #  Page 489
000339:                                                                                                 #  PROGRAM DESCRIPTION -- VECPOINT
000340:
000341:                                                                                                 #  THIS INTERPRETIVE SUBROUTINE MAY BE USED TO POINT A SPACECRAFT AXIS IN A DESIRED DIRECTION.  THE AXIS
000342:                                                                                                 #  TO BE POINTED MUST APPEAR AS A HALF UNIT DOUBLE PRECISION VECTOR IN SUCCESSIVE LOCATIONS OF ERASABLE MEMORY
000343:                                                                                                 #  BEGINNING WITH THE LOCATION CALLED SCAXIS.  THE COMPONENTS OF THIS VECTOR ARE GIVEN IN SPACECRAFT COORDINATES.
000344:                                                                                                 #  THE DIRECTION IN WHICH THIS AXIS IS TO BE POINTED MUST APPEAR AS A HALF UNIT DOUBLE PRECISION VECTOR IN
000345:                                                                                                 #  SUCCESSIVE LOCATIONS OF ERASABLE MEMORY BEGINNING WITH THE ADDRESS CALLED POINTVSM.  THE COMPONENTS OF THIS
000346:                                                                                                 #  VECTOR ARE GIVEN IN STABLE MEMBER COORDINATES.  WITH THIS INFORMTION VECPOINT COMPUTES A SET OF THREE GIMBAL
000347:                                                                                                 #  ANGLES (2'S COMPLEMENT) CORRESPONDING TO THE CROSS-PRODUCT ROTATION BETWEEN SCAXIS AND POINTVSM AND STORES THEM
000348:                                                                                                 #  IN T(MPAC) BEFORE RETURNING TO THE CALLER.
000349:
000350:                                                                                                 #  THIS ROTATION, HOWEVER, MAY BRING THE S/C INTO GIMBAL LOCK.  WHEN POINTING A VECTOR IN THE Y-Z PLANE,
000351:                                                                                                 #  THE TRANSPONDER AXIS, OR THE AOT FOR THE LEM, THE PROGRAM WILL CORRECT THIS PROGLEM BY ROTATING THE CROSS-
000352:                                                                                                 #  PRODUCT ATTITUDE ABOUT POINTVSM BY A FIXED AMOUNT SUFFICIENT TO ROTATE THE DESIRED S/C ATTITUDE OUT OF GIMBAL
000353:                                                                                                 #  LOCK.  IF THE AXIS TO BE POINTED IS MORE THAN 40.6 DEGREES BUT LESS THAN 60.5 DEG FROM THE +X (OR -X) AXIS,
000354:                                                                                                 #  THE ADDITIONAL ROTATION TO AVOID GIMBAL LOCK IS 35 DEGREES.  IF THE AXIS IS MORE THAN 60.5 DEGREES FROM +X (OR -X)
000355:                                                                                                 #  THE ADDITIONAL ROTATION IS 35 DEGREES.  THE GIMBAL ANGLES CORRESPONDING TO THIS ATTITUDE ARE THEN COMPUTED AND
000356:                                                                                                 #  STORED AS 2'S COMPLEMENT ANGLES N T(MPAC) BEFORE RETURNING TO THE CALLER.
000357:
000358:                                                                                                 #  WHEN POINTING THE X-AXIS, OR THE THRUST VECTOR, OR ANY VECTOR WITHIN 40.6 DEG OF THE X-AXIS, VECPOINT
000359:                                                                                                 #  CANNOT CORRECT FOR A CROSS-PRODUCT ROTATION INTO GIMBAL LOCK.  IN THIS CASE A PLATFORM REALIGNMENT WOULD BE
000360:                                                                                                 #  REQUIRED TO POINT THE VECTOR IN THE DESIRED DIRECTION.  AT PRESENT NO INDICATION IS GIVEN FOR THIS SITUATION
000361:                                                                                                 #  EXCEPT THAT THE FINAL MIDDLE GIMBAL ANGLE IN MPAC +2 IS GREATER THAN 59 DEGREES.
000362:
000363:                                                                                                 #  CALLING SEQUENCE
000364:
000365:                                                                                                 #         1)      LOAD SCAXIS, POINTVSM
000366:                                                                                                 #         2)      CALL
000367:                                                                                                 #                         VECPOINT
000368:
000369:                                                                                                 #  RETURNS WITH
000370:
000371:                                                                                                 #         1)      DESIRED OUTER GIMBAL ANGLE IN MPAC
000372:                                                                                                 #         2)      DESIRED INNER GIMBAL ANGLE IN MPAC +1
000373:                                                                                                 #         3)      DESIRED MIDDLE GIMBAL ANGLE IN MPAC +2
000374:
000375:                                                                                                 #  ERASABLES USED --
000376:
000377:                                                                                                 #         1)      SCAXIS          6
000378:                                                                                                 #         2)      POINTVSM        6
000379:                                                                                                 #         3)      MIS             18
000380:                                                                                                 #         4)      DEL             18
000381:                                                                                                 #         5)      COF             6
000382:                                                                                                 #         6)      VECQTEMP        1
000383:                                                                                                 #         7)      ALL OF VAC AREA 43
000384:
000385:                                                                                                 #                         TOTAL   99
000386:
000387: 27,2000                                          SETLOC   VECPT
000388: 27,2000                                          BANK
000389:                                                                                                 #  Page 490
000390: 27,2032                                          COUNT*   $$/VECPT
000391:
000392: 27,2032  E6,1675                                 EBANK=   BCDU
000393:
000394: 27,2032           40020        VECPNT1           STQ      BOV                                   #  THIS ENTRY USES DESIRED CDUS
000395: 27,2033           03324                                   VECQTEMP                              #  NOT PRESENT -- ENTER WITH CDUD'S IN MPAC
000396: 27,2034           56035                                   VECPNT2
000397: 27,2035           52164        VECPNT2           AXC,2    GOTO
000398: 27,2036           03245                                   MIS
000399: 27,2037           56046                                   STORANG
000400: 27,2040           40020        VECPOINT          STQ      BOV                                   #  SAVE RETURN ADDRESS
000401: 27,2041           03324                                   VECQTEMP
000402: 27,2042           56043                                   VECLEAR                               #  AND CLEAR OVFIND
000403: 27,2043           47164        VECLEAR           AXC,2    RTB
000404: 27,2044           03245                                   MIS                                   #  READ THE PRESENT CDU ANGLES AND
000405: 27,2045           44403                                   READCDUK                              #  STORE THEM IN PD25, 26, 27
000406: 27,2046           34032        STORANG           STCALL   25D
000407: 27,2047           44410                                   CDUTODCM                              #  S/C AXES TO STABLE MEMBER AXES (MIS)
000408: 27,2050           61375                          VLOAD    VXM
000409: 27,2051           03773                                   POINTVSM                              #  RESOLVE THE POINTING DIRECTION VF INTO
000410: 27,2052           03246                                   MIS                                   #  INITIAL S/C AXES (VF = POINTVSM)
000411: 27,2053           77656                          UNIT
000412: 27,2054           00035                          STORE    28D
000413:                                                                                                 #  PD 28 29 30 31 32 33
000414: 27,2055           53435                          VXV      UNIT                                  #  TAKE THE CROSS PRODUCT VF X VI
000415: 27,2056           03765                                   SCAXIS                                #  WHERE VI = SCAXIS
000416: 27,2057           57400                          BOV      VCOMP
000417: 27,2060           56170                                   PICKAXIS
000418: 27,2061           17270                          STODL    COF                                   #  CHECK MAGNITUDE
000419: 27,2062           00045                                   36D                                   #  OF CROSS PRODUCT
000420: 27,2063           50025                          DSU      BMN                                   #  VECTOR, IF LESS
000421: 27,2064           14415                                   DPB-14                                #  THAN B-14 ASSUME
000422: 27,2065           56170                                   PICKAXIS                              #  UNIT OPERATION
000423: 27,2066           50375                          VLOAD    DOT                                   #  INVALID.
000424: 27,2067           03765                                   SCAXIS
000425: 27,2070           00035                                   28D
000426: 27,2071           65552                          SL1      ARCCOS
000427: 27,2072           77624        COMPMATX          CALL                                           #  NO COMPUTE THE TRANSFORMATION FROM
000428: 27,2073           44527                                   DELCOMP                               #  FINAL S/C AXES TO INITIAL S/C AXES MFI
000429: 27,2074           75160                          AXC,1    AXC,2
000430: 27,2075           03245                                   MIS                                   #  COMPUTE THE TRANSFORMATION FROM FINAL
000431: 27,2076           02230                                   KEL                                   #  S/C AXES TO STABLE MEMBER AXES
000432: 27,2077           77624                          CALL                                           #  MFS = MIS MFI
000433: 27,2100           44312                                   MXM3                                  #  (IN PD LIST)
000434:
000435: 27,2101           51545                          DLOAD    ABS
000436: 27,2102           00007                                   6                                     #  MFS6 = SIN(CPSI)
000437: 27,2103           50025                          DSU      BMN
000438: 27,2104           14402                                   SINGIMLC                              #  = SIN(59 DEGS)
000439: 27,2105           56160                                   FINDGIMB                              #  /CPSI/ LESS THAN 59 DEGS.
000440:                                                                                                 #  Page 491
000441:                                                                                                 #  I.E., DESIRED ATTITUDE NOT IN GIMBAL LOCK
000442:
000443: 27,2106           51545                          DLOAD    ABS                                   #  CHECK TO SEE IF WE ARE POINTING
000444: 27,2107           03765                                   SCAXIS                                #  THE THRUST AXIS
000445: 27,2110           51025                          DSU      BPL
000446: 27,2111           14404                                   SINVEC1                               #  SIN 49.4 DEGS
000447: 27,2112           56160                                   FINDGIMB                              #  IF SO, WE ARE TRYING TO POINT IT INTO
000448: 27,2113           77775                          VLOAD                                          #  GIMBAL LOCK, ABORT COULD GO HERE
000449: 27,2114           77626                          STADR
000450: 27,2115           50515                          STOVL    MIS        +12D
000451: 27,2116           77626                          STADR                                          #  STORE MFS (IN PD LIST) IN MIS
000452: 27,2117           50523                          STOVL    MIS        +6
000453: 27,2120           77626                          STADR
000454: 27,2121           50531                          STOVL    MIS
000455: 27,2122           03254                                   MIS        +6                         #  INNER GIMBAL AXIS IN FINAL S/C AXES
000456: 27,2123           57444                          BPL      VCOMP                                 #  LOCATE THE IG AXIS DIRECTION CLOSEST TO
000457: 27,2124           56125                                   IGSAMEX                               #  FINAL X S/C AXIS
000458:
000459: 27,2125           50035        IGSAMEX           VXV      BMN                                   #  FIND THE SHORTEST WAY OF ROTATING THE
000460: 27,2126           03765                                   SCAXIS                                #  S/C OUT OF GIMBAL LOCK BY A ROTATION
000461: 27,2127           56134                                   U=SCAXIS                              #  ABOUT +- SCAXIS, I.E., IF  (IG (SGN MFS3)
000462:                                                                                                 #  X SCAXIS . XF) LESS THAN Q, U = SCAXIS
000463:                                                                                                 #  OTHERWISE U = -SCAXIS.
000464:
000465: 27,2130           57575                          VLOAD    VCOMP
000466: 27,2131           03765                                   SCAXIS
000467: 27,2132           37270                          STCALL   COF                                   #  ROTATE ABOUT -SCAXIS
000468: 27,2133           56137                                   CHEKAXIS
000469: 27,2134           77775        U=SCAXIS          VLOAD
000470: 27,2135           03765                                   SCAXIS
000471: 27,2136           03270                          STORE    COF                                   #  ROTATE ABOUT + SCAXIS
000472: 27,2137           51545        CHEKAXIS          DLOAD    ABS
000473: 27,2140           03765                                   SCAXIS                                #  SEE IF WE ARE POINTING THE AOT
000474: 27,2141           51025                          DSU      BPL
000475: 27,2142           14406                                   SINVEC2                               #  SIN 29.5 DEGS
000476: 27,2143           56147                                   PICKANG1                              #  IF SO, ROTATE 50 DEGS ABOUT +- SCAXIS
000477: 27,2144           52145                          DLOAD    GOTO                                  #  IF NOT, MUST BE POINTING THE TRANSPONDER
000478: 27,2145           14412                                   VECANG2                               #  OR SOME VECTOR IN THE Y, OR Z PLANE
000479: 27,2146           56151                                   COMPMFSN                              #  IN THIS CASE ROTATE 35 DEGS TO GET OUT
000480:                                                                                                 #  OF GIMBAL LOCK (VECANG2 garbled)
000481: 27,2147           77745        PICKANG1          DLOAD
000482: 27,2150           14410                                   VECANG1                               #  =.50 DEGS.
000483: 27,2151           77624        COMPMFSN          CALL
000484: 27,2152           44527                                   DELCOMP                               #  COMPUTE THE ROTATION ABOUT SCAXIS TO
000485: 27,2153           75160                          AXC,1    AXC,2                                 #  BRING MFS OUT OF GIMBAL LOCK
000486: 27,2154           03245                                   MIS
000487: 27,2155           02230                                   KEL
000488: 27,2156           77624                          CALL                                           #  COMPUTE THE NEW TRANSFORMATION FROM
000489: 27,2157           44312                                   MXM3                                  #  DESIRED S/C AXES TO STABLE MEMBER AXES
000490:                                                                                                 #  WHICH WILL ALIGN VI WITH VF AND AVOID
000491:                                                                                                 #  Page 492
000492:                                                                                                 #  GIMBAL LOCK
000493: 27,2160           45160        FINDGIMB          AXC,1    CALL
000494: 27,2161           00000                                   0                                     #  EXTRACT THE COMMANDED CDU ANGLES FROM
000495: 27,2162           44654                                   DCMTOCDU                              #  THIS MATRIX
000496: 27,2163           40234                          RTB      SETPD
000497: 27,2164           21621                                   V1STO2S                               #  CONVERT TO 2'S COMPLEMENT
000498: 27,2165           00001                                   0
000499: 27,2166           77650                          GOTO
000500: 27,2167           03324                                   VECQTEMP                              #  RETURN TO CALLER
000501:
000502: 27,2170           50375        PICKAXIS          VLOAD    DOT                                   #  IF VF X VI = 0, FIND VF, VI
000503: 27,2171           00035                                   28D
000504: 27,2172           03765                                   SCAXIS
000505: 27,2173           72240                          BMN      TLOAD
000506: 27,2174           54354                                   ROT180
000507: 27,2175           00032                                   25D
000508: 27,2176           77650                          GOTO                                           #  IF VF = VI, CDU DESIRED = PRESENT CDU
000509: 27,2177           03324                                   VECQTEMP                              #  PRESETN CDU ANGLES
000510:
000511: 35,2000                                          BANK     35
000512: 26,2000                                          SETLOC   MANUVER1
000513: 26,2000                                          BANK
000514: 26,2354           47375        ROT180            VLOAD    VXV                                   #  IF VF, VI ANTI-PARALLEL, 180 DEG ROTATION
000515: 26,2355           03254                                   MIS        +6                         #  IS REQUIRED.  Y STABLE MEMBER AXIS IN
000516: 26,2356           06522                                   HIDPHALF                              #  INITIAL S/C AXES.
000517: 26,2357           47256                          UNIT     VXV                                   #  FIND Y(SM) X X(I)
000518: 26,2360           03765                                   SCAXIS                                #  FIND UNIT(VI X UNIT(Y(SM) X X(I)))
000519: 26,2361           40056                          UNIT     BOV                                   #  I.E., PICK A VECTOR IN THE PLANE OF X(I),
000520: 26,2362           54376                                   PICKX                                 #  Y(SM) PERPENDICULAR TO VI
000521: 26,2363           17270                          STODL    COF
000522: 26,2364           00045                                   36D                                   #  CHECK MAGNITUDE
000523: 26,2365           50025                          DSU      BMN                                   #  OF THIS VECTOR.
000524: 26,2366           14415                                   DPB-14                                #  IF LESS THAN B-14,
000525: 26,2367           54376                                   PICKX                                 #  PICK X-AXIS.
000526: 26,2370           77775                          VLOAD
000527: 26,2371           03270                                   COF
000528: 26,2372           17270        XROT              STODL    COF
000529: 26,2373           06522                                   HIDPHALF
000530: 26,2374           77650                          GOTO
000531: 26,2375           56072                                   COMPMATX
000532: 26,2376           52175        PICKX             VLOAD    GOTO                                  #  PICK THE XAXIS IN THIS CASE
000533: 26,2377           06522                                   HIDPHALF
000534: 26,2400           54372                                   XROT
000535: 26,2401           15555 35172  SINGIMLC          2DEC     .4285836003                            #  = SIN(59)
000536: 26,2403           14113 36326  SINVEC1           2DEC     .3796356537                            #  = SIN(49.4)
000537: 26,2405           07701 35703  SINVEC2           2DEC     .2462117800                            #  = SIN(29.5)
000538: 26,2407           04343 21616  VECANG1           2DEC     .1388888889                            #  = 50 DEGREES
000539:                                                                                                 #  Page 493
000540: 26,2411           03070 34344  VECANG2           2DEC     .09722222222                            #  = 35 DEGREES
000541:
000542: 26,2413           00000        1BITDP            OCT      0                                     #  KEEP THIS BEFORE DPB(-14)
000543: 26,2414           00001        DPB-14            OCT      00001
000544: 26,2415           00000                          OCT      00000
000545:
000546:                                                                                                 #  Page 494
000547:                                                                                                 #  ROUTINE FOR INITIATING AUTOMATIC MANEUVER VIA KEYBOARD (V49)
000548:
000549: 34,2000                                          BANK     34
000550: 23,2000                                          SETLOC   R62
000551: 23,2000                                          BANK
000552: 23,2103  E6,1675                                 EBANK=   BCDU
000553:
000554: 23,2103                                          COUNT*   $$/R62
000555:
000556: 23,2103  23,2103               R62DISP           EQUALS   R62FLASH
000557:
000558: 23,2103           35010        R62FLASH          CAF      V06N22                                #  FLASH V06N22 AND
000559: 23,2104           04616                          TC       BANKCALL                              #  ICDU ANGLES
000560: 23,2105           20477                          CADR     GOFLASH
000561: 23,2106           15472                          TCF      ENDEXT                                #  TERMINATE
000562: 23,2107           12111                          TCF      GOMOVE                                #  PROCEED
000563: 23,2110           12103                          TCF      R62FLASH                              #  ENTER
000564:
000565:                                                                                                 #  ASTRONAUT MAY LOAD NEW ICDUS AT THIS
000566:                                                                                                 #  POINT.
000567: 23,2111           05504        GOMOVE            TC       UPFLAG                                #  SET FOR 3-AXIS MANEUVER
000568: 23,2112           00124                          ADRES    3AXISFLG
000569:
000570: 23,2113           04616                          TC       BANKCALL
000571: 23,2114           54123                          CADR     R60LEM
000572: 23,2115           15472                          TCF      ENDEXT                                #  END R62
000573:

End of include-file R60_62.agc.  Parent file is MAIN.agc


