
Source Code
000001:                                                                                                 #  Copyright:     Public domain.
000002:                                                                                                 #  Filename:      RADAR_LEADIN_ROUTINES.agc
000003:                                                                                                 #  Purpose:       A section of Luminary 1C, revision 131.
000004:                                                                                                 #                 It is part of the source code for the Lunar Module's (LM)
000005:                                                                                                 #                 Apollo Guidance Computer (AGC) for Apollo 13 and Apollo 14.
000006:                                                                                                 #                 This file is intended to be a faithful transcription, except
000007:                                                                                                 #                 that the code format has been changed to conform to the
000008:                                                                                                 #                 requirements of the yaYUL assembler rather than the
000009:                                                                                                 #                 original YUL assembler.
000010:                                                                                                 #  Reference:     pp. 499-500 of 1729.pdf.
000011:                                                                                                 #  Contact:       Ron Burkey <info@sandroid.org>.
000012:                                                                                                 #  Website:       www.ibiblio.org/apollo/index.html
000013:                                                                                                 #  Mod history:   05/14/03 RSB.   Began transcribing.
000014:                                                                                                 #                 05/14/05 RSB    Corrected website reference above.
000015:
000016:                                                                                                 #  Page 499
000017: 25,2003                                          BANK     25
000018: 25,2000                                          SETLOC   RRLEADIN
000019: 25,2000                                          BANK
000020:
000021: 25,2003  E4,1600                                 EBANK=   RSTACK
000022:
000023:                                                                                                 #  RADAR SAMPLING LOOP.
000024: 25,2003                                          COUNT*   $$/RLEAD
000025: 25,2003           11777        RADSAMP           CCS      RSAMPDT                               #  TIMES NORMAL ONCE PER SECOND SAMLING
000026: 25,2004           12006                          TCF      +2
000027: 25,2005           15261                          TCF      TASKOVER                              #  +0 INSERTED MANUALLY TERMINATES TEST.
000028:
000029: 25,2006           05203                          TC       WAITLIST
000030: 25,2007  E4,1600                                 EBANK=   RSTACK
000031: 25,2007           02003 52064                    2CADR    RADSAMP
000032:
000033: 25,2011           37716                          CAF      PRIO25
000034: 25,2012           05072                          TC       NOVAC
000035: 25,2013  E4,1600                                 EBANK=   RSTACK
000036: 25,2013           02023 52064                    2CADR    DORSAMP
000037:
000038: 25,2015           34736                          CAF      BIT14                                 #  FOR CYCLIC SAMPLING, RTSTDEX=
000039: 25,2016           00006                          EXTEND                                         #  RTSTLOC/2 + RTSTBASE
000040: 25,2017           71776                          MP       RTSTLOC
000041: 25,2020           61775                          AD       RTSTBASE                              #  0 FOR RR, 2 FOR LR.
000042: 25,2021           55773                          TS       RTSTDEX
000043: 25,2022           15261                          TCF      TASKOVER
000044:
000045:                                                                                                 #  DO THE ACTUAL RADAR SAMPLE.
000046:
000047: 25,2023           02060        DORSAMP           TC       VARADAR                               #  SELECTS VARIABLE RADAR CHANNEL.
000048: 25,2024           04616                          TC       BANKCALL
000049: 25,2025           17705                          CADR     RADSTALL
000050:
000051: 25,2026           25575                          INCR     RFAILCNT                              #  ADVANCE FAIL COUNTER BUT ACCEPT BAD DATA
000052:
000053: 25,2027           00004        DORSAMP2          INHINT
000054: 25,2030           30101                          CA       FLAGWRD5                              #  DON'T UPDATE RSTACK IF IN R77.
000055: 25,2031           74741                          MASK     R77FLBIT
000056: 25,2032           10000                          CCS      A
000057: 25,2033           12050                          TCF      R77IN
000058:
000059: 25,2034           53101                          DXCH     SAMPLSUM
000060: 25,2035           51776                          INDEX    RTSTLOC
000061: 25,2036           53601                          DXCH     RSTACK
000062:
000063: 25,2037           30110                          CA       RADMODES
000064: 25,2040           00006                          EXTEND
000065: 25,2041           06033                          RXOR     CHAN33
000066:                                                                                                 #  Page 500
000067: 25,2042           74746                          MASK     BIT6
000068: 25,2043           00006                          EXTEND
000069: 25,2044           12050                          BZF      R77IN
000070:
000071: 25,2045           05567                          TC       ALARM
000072: 25,2046           00522                          OCT      522
000073: 25,2047           25575                          INCR     RFAILCNT
000074:
000075: 25,2050           41776        R77IN             CS       RTSTLOC                               #  CYCLE RTSTLOC
000076: 25,2051           61774                          AD       RTSTMAX
000077: 25,2052           00006                          EXTEND
000078: 25,2053           12056                          BZF      +3
000079: 25,2054           31776                          CA       RTSTLOC
000080: 25,2055           64752                          AD       TWO                                   #  STORAGE IS DP
000081: 25,2056           55776                          TS       RTSTLOC
000082: 25,2057           15155                          TCF      ENDOFJOB                              #  CONTINUOUS SAMPLING AND 2N TRIES -- GONE.
000083:
000084:                                                                                                 #  VARIABLE RADAR DATA CALLER FOR ONE MEASUREMENT ONLY.
000085:
000086: 25,2060           34753        VARADAR           CAF      ONE                                   #  WILL BE SENT TO RADAR ROUTINE IN A BY
000087: 25,2061           54133                          TS       BUF2                                  #  SWCALL
000088: 25,2062           51773                          INDEX    RTSTDEX
000089: 25,2063           32065                          CAF      RDRLOCS
000090: 25,2064           14622                          TCF      SWCALL                                #  NOT TOUCHING 0.
000091:
000092: 25,2065           53114        RDRLOCS           CADR     RRRANGE                               #  = 0
000093: 25,2066           53112                          CADR     RRRDOT                                #  = 1
000094: 25,2067           53110                          CADR     LRVELX                                #  = 2
000095: 25,2070           53106                          CADR     LRVELY                                #  = 3
000096: 25,2071           53104                          CADR     LRVELZ                                #  = 4
000097: 25,2072           53102                          CADR     LRALT                                 #  = 5
000098:
000099:

End of include-file RADAR_LEADIN_ROUTINES.agc.  Parent file is MAIN.agc


