
Source Code


000002:                                                                                                  #  Copyright:    Public domain.
000003:                                                                                                  #  Filename:     RCS_FAILURE_MONITOR.agc
000004:                                                                                                  #  Purpose:      RCS FAILURE MONITOR code for for Luminary 1C, revision 131.
000005:                                                                                                  #                It is part of the source code for the Lunar Module's (LM)
000006:                                                                                                  #                Apollo Guidance Computer (AGC) for Apollo 13 and Apollo 14.
000007:                                                                                                  #                This file is intended to be a faithful transcription, except
000008:                                                                                                  #                that the code format has been changed to conform to the
000009:                                                                                                  #                requirements of the yaYUL assembler rather than the
000010:                                                                                                  #                original YUL assembler.
000011:                                                                                                  #  Reference:    pp. 197-199 of 1729.pdf.
000012:                                                                                                  #  Contact:      Ron Burkey <info@sandroid.org>.
000013:                                                                                                  #  Website:      www.ibiblio.org/apollo/index.html
000014:                                                                                                  #  Mod history:  05/05/03 RSB.   Began transcribing.
000015:                                                                                                  #                05/14/05 RSB    Corrected website references above.
000016:
000017:                                                                                                  #  Page 197
000018:                                                                                                  #  PROGRAM DESCRIPTION:
000019:
000020:                                                                                                  #  AUTHOR: J. S. MILLER
000021:
000022:                                                                                                  #  MODIFIED 6 MARCH 1968 BY P. S. WEISSMAN TO SET UP JOB FOR 1/ACCS WHEN THE MASKS ARE CHANGED.
000023:
000024:                                                                                                  #  THIS ROUTINE IS ATTACHED TO T4RUPT, AND IS ENTERED EVERY 480 MS.  ITS FUNCTION IS TO EXAMINE THE LOW 8 BITS
000025:                                                                                                  #  OF CHANNEL 32 TO SEE IF ANY ISOLATION-VALVE CLOSURE BITS HAVE APPEARED OR DISAPPEARED (THE CREW IS WARNED OF JET
000026:                                                                                                  #  FAILURES BY LAMPS LIT BY THE GRUMMAN FAILURE-DETECTION CIRCUITRY; THEY MAY RESPOND BY OPERATING SWITCHES WHICH
000027:                                                                                                  #  ISOLATE PARIS OF JETS FROM THE PROPELLANT TANKS AND SET BITS IN CHANNEL 32).  iN THE EVENT THAT CHANNEL 32 BITS
000028:                                                                                                  #  DIFFER FROM `PVALVEST', THE RECORD OF ACTIONS TAKEN BY THIS ROUTINE, THE APPROPRIATE BITS IN `CH5MASK' &
000029:                                                                                                  #  `CH6MASK', USED BY THE DAP JET-SELECTION LOGIC, ARE UPDATED, AS IS `PVALVEST'.  TO SPEED UP & SHORTEN THE
000030:                                                                                                  #  ROUTINE, NO MORE THAN ONE CHANGE IS ACCEPTED PER ENTRY.  THE HIGHEST-NUMBERED BIT IN CHANNEL 32 WHICH REQUIRES
000031:                                                                                                  #  ACTION IS THE ONE PROCESSED.
000032:
000033:                                                                                                  #  THE CODING IN THE FAILURE MONITOR HAS BEEN WRITTEN SO AS TO HAVE ALMOST COMPLETE RESTART PROTECTION.  FOR
000034:                                                                                                  #  EXAMPLE, NO ASSUMPTION IS MADE WHEN SETTING A `CH5MASK' BIT TO 1 THAT THE PREVIOUS STATE IS 0, ALTHOUGH IT OF
000035:                                                                                                  #  COURSE SHOULD BE.  ONE CASE WHICH MAY BE SEEN TO EVADE PROTECTION IS THE OCCURRENCE OF A RESTART AFTER UPDATING
000036:                                                                                                  #  ONE OR BOTH DAP MASK-WORDS BUT BEFORE UPDATING `PVALVEST', COUPLED WITH A CHANGE IN TEH VALVE-BIT BACK TO ITS
000037:                                                                                                  #  FORMER STATE.  THE CONSEQUENCE OF THIS IS THAT THE NEXT ENTRY WOULD NOT SEE THE CHANGE INCOMPLETELY INCORP-
000038:                                                                                                  #  ORATED BY THE LAST PASS (BECAUSE IT WENT AWAY AT JUST THE RIGHT TIME), BUT THE DAP MASK-WORDS WILL BE INCORRECT.
000039:                                                                                                  #  THIS COMBINATION OF EVENTS SEEMS QUITE REMOTE, BUT NOT IMPOSSIBLE UNLESS THE CREW OPERATES THE SWITCHES AT HALF-
000040:                                                                                                  #  SECOND INTERVALS OR LONGER.  IN ANY EVENT, A DISAGREEMENT BETWEEN REALITY AND THE DAP MASKS WILL BE CUREED IF
000041:                                                                                                  #  THE MISINTERPRETED SWITCH IS REVERSED AND THEN RESTORED TO ITS CORRECT POSITION (SLOWLY).
000042:
000043:                                                                                                  #  CALLING SEQUENCE:
000044:
000045:                                                                                                  #        TCF     RCSMONIT                # (IN INTERRUPT MODE, EVERY 480 MS.)
000046:
000047:                                                                                                  #  EXIT: TCF RCSMONEX (ALL PATHS EXIT VIA SUCH AN INSTRUCTION)
000048:
000049: ???????     5270               RCSMONEX           EQUALS   RESUME
000050:
000051:                                                                                                  #  ERASABLE INITIALIZATION REQUIRED:
000052:
000053:                                                                                                  #        VIA FRESH START:        PVALVEST        =       +0      (ALL JETS ENABLED)
000054:                                                                                                  #                                CH5MASK,CH6MASK =       +0      (ALL JETS OK)
000055:
000056:                                                                                                  #  OUTPUT:       CH5MASK 7 CH6MASK UPDATED (1'S WHERE JETS NOT TO BE USED, IN CHANNEL 5 & 6 FORMAT)
000057:                                                                                                  #                PVALTEST UPDATED (1'S WHEN VALVE CLOSURES HAVE BEEN TRANSLATED INTO CH5MASK & CH6MASK; CHAN 32 FORMAT)
000058:                                                                                                  #                JOB TO DO 1/ACCS.
000059:
000060:                                                                                                  #  DEBRIS:  A, L, AND Q AND DEBRIS OF NOVAC.
000061:
000062:                                                                                                  #  SUBROUTINE CALLED:  NOVAC.
000063:
000064: ???????     1257                                  EBANK=   CH5MASK
000065:
000066: 23,2000                                           BANK     23
000067: 06,2000                                           SETLOC   RCSMONT
000068: 06,2000                                           BANK
000069:                                                                                                  #  Page 198
000070: 06,3164                                           COUNT*   $$/T4RCS
000071:
000072: 06,3164           44755        RCSMONIT           CS       ZERO
000073: 06,3165           00006                           EXTEND
000074: 06,3166           06032                           RXOR     CHAN32                                #  PICK UP + INVERT INVERTED CHANNEL 32.
000075: 06,3167           74357                           MASK     LOW8                                  #  KEEP JET-FAIL BITS ONLY.
000076: 06,3170           54002                           TS       Q
000077:
000078: 06,3171           41273                           CS       PVALVEST
000079: 06,3172           70002                           MASK     Q                                     #  FORM PC + PC.
000080: 06,3173           54001                           TS       L                                     #        (P = PREVIOUS ISOLATION VALVE STATE,
000081: 06,3174           40002                           CS       Q                                     #         C = CURRENT VALVE STATE (CH32)).
000082: 06,3175           71273                           MASK     PVALVEST
000083: 06,3176           26001                           ADS      L                                     #  RESULT NZ INDICATES ACTION REQUIRED.
000084:
000085: 06,3177           00006                           EXTEND
000086: 06,3200           15270                           BZF      RCSMONEX                              #  QUIT IF NO ACTION REQUIRED.
000087:
000088: 06,3201           00006                           EXTEND
000089: 06,3202           74745                           MP       BIT7                                  #  MOVE BITS 8-1 OF A TO 14-7 OF L.
000090: 06,3203           56001                           XCH      L                                     #  XERO TO L IN THE PROCESS.
000091:
000092: 06,3204           24001                 -3        INCR     L
000093: 06,3205           60000                           DOUBLE                                         #  BOUND TO GET OVERFLOW IN THIS LOOP,
000094: 06,3206           54000                           OVSK                                           #  SINCE WE ASSURED INITIAL NZ IN A.
000095: 06,3207           13204                           TCF      -3
000096:
000097: 06,3210           50001                           INDEX    L
000098: 06,3211           34743                           CA       BIT8       -1                         #  SAVE THE RELEVANT BIT (8-1).
000099: 06,3212           54002                           TS       Q
000100: 06,3213           71273                           MASK     PVALVEST                              #  LOOK AT PREVIOUS VALVE STATE BIT.
000101: 06,3214           10000                           CCS      A
000102: 06,3215           13231                           TCF      VOPENED                               #  THE VALVE HAS JUST BEEN OPENED.
000103:
000104: 06,3216           41257                           CS       CH5MASK                               #  THE VALVE HAS JUST BEEN CLOSED.
000105: 06,3217           50001                           INDEX    L
000106: 06,3220           73250                           MASK     5FAILTAB
000107: 06,3221           27257                           ADS      CH5MASK                               #  SET INHIBIT BIT FOR CHANNEL 5 JET.
000108:
000109: 06,3222           41260                           CS       CH6MASK
000110: 06,3223           50001                           INDEX    L
000111: 06,3224           73260                           MASK     6FAILTAB
000112: 06,3225           27260                           ADS      CH6MASK                               #  SET INGIBIT BIT FOR CHANNEL 6 JET
000113:
000114: 06,3226           30002                           CA       Q
000115: 06,3227           27273                           ADS      PVALVEST                              #  RECORD ACTION TAKEN.
000116:
000117: 06,3230           13244                           TCF      1/ACCFIX                              #  SET UP 1/ACCJOB AND EXIT.
000118:
000119:                                                                                                  #  Page 199
000120: 06,3231           50001        VOPENED            INDEX    L                                     #  A VALVE HAS JUST BEEN OPENED.
000121: 06,3232           43250                           CS       5FAILTAB
000122: 06,3233           71257                           MASK     CH5MASK
000123: 06,3234           55257                           TS       CH5MASK                               #  REMOVE INHIBIT BIT FOR CHANNEL 5 JET.
000124:
000125: 06,3235           50001                           INDEX    L
000126: 06,3236           43260                           CS       6FAILTAB
000127: 06,3237           71260                           MASK     CH6MASK
000128: 06,3240           55260                           TS       CH6MASK                               #  REMOVE INHIBIT BIT FOR CHANNEL 6 JET.
000129:
000130: 06,3241           40002                           CS       Q
000131: 06,3242           71273                           MASK     PVALVEST
000132: 06,3243           55273                           TS       PVALVEST                              #  RECORD ACTION TAKEN.
000133:
000134: 06,3244           37720        1/ACCFIX           CAF      PRIO27                                #  SET UP 1/ACCS SO THAT THE SWITCH CURVES
000135: 06,3245           05072                           TC       NOVAC                                 #        FOR TJETLAW CAN BE MODIFIED IF CH5MASK
000136: 06,3246  E6,1536                                  EBANK=   AOSQ                                  #        HAS BEEN ALTERED.
000137: 06,3246           03652 42106                     2CADR    1/ACCJOB
000138:
000139: 06,3250           15270                           TCF      RCSMONEX                              #  EXIT.
000140:
000141: 06,3251                        5FAILTAB           EQUALS   -1                                    #  CH 5 JET BIT CORRESPONDING TO CH 32 BIT:
000142: 06,3251           00040                           OCT      00040                                 #  8
000143: 06,3252           00020                           OCT      00020                                 #  7
000144: 06,3253           00100                           OCT      00100                                 #  6
000145: 06,3254           00200                           OCT      00200                                 #  5
000146: 06,3255           00010                           OCT      00010                                 #  4
000147: 06,3256           00001                           OCT      00001                                 #  3
000148: 06,3257           00004                           OCT      00004                                 #  2
000149: 06,3260           00002                           OCT      00002                                 #  1
000150:
000151: 06,3261                        6FAILTAB           EQUALS   -1                                    #  CH 6 JET BIT CORRESPONDING TO CH 32 BIT:
000152: 06,3261           00010                           OCT      00010                                 #  8
000153: 06,3262           00020                           OCT      00020                                 #  7
000154: 06,3263           00004                           OCT      00004                                 #  6
000155: 06,3264           00200                           OCT      00200                                 #  5
000156: 06,3265           00001                           OCT      00001                                 #  4
000157: 06,3266           00002                           OCT      00002                                 #  3
000158: 06,3267           00040                           OCT      00040                                 #  2
000159: 06,3270           00100                           OCT      00100                                 #  1
000160:
000161:

End of include-file RCS_FAILURE_MONITOR.agc.  Parent file is MAIN.agc


