
Source Code
000001:                                                                                                 #  Copyright:     Public domain.
000002:                                                                                                 #  Filename:      RCS_FAILURE_MONITOR.agc
000003:                                                                                                 #  Purpose:       RCS FAILURE MONITOR code for for Luminary 1C, revision 131.
000004:                                                                                                 #                 It is part of the source code for the Lunar Module's (LM)
000005:                                                                                                 #                 Apollo Guidance Computer (AGC) for Apollo 13 and Apollo 14.
000006:                                                                                                 #                 This file is intended to be a faithful transcription, except
000007:                                                                                                 #                 that the code format has been changed to conform to the
000008:                                                                                                 #                 requirements of the yaYUL assembler rather than the
000009:                                                                                                 #                 original YUL assembler.
000010:                                                                                                 #  Reference:     pp. 197-199 of 1729.pdf.
000011:                                                                                                 #  Contact:       Ron Burkey <info@sandroid.org>.
000012:                                                                                                 #  Website:       www.ibiblio.org/apollo/index.html
000013:                                                                                                 #  Mod history:   05/05/03 RSB.   Began transcribing.
000014:                                                                                                 #                 05/14/05 RSB    Corrected website references above.
000015:
000016:                                                                                                 #  Page 197
000017:                                                                                                 #  PROGRAM DESCRIPTION:
000018:
000019:                                                                                                 #  AUTHOR: J. S. MILLER
000020:
000021:                                                                                                 #  MODIFIED 6 MARCH 1968 BY P. S. WEISSMAN TO SET UP JOB FOR 1/ACCS WHEN THE MASKS ARE CHANGED.
000022:
000023:                                                                                                 #  THIS ROUTINE IS ATTACHED TO T4RUPT, AND IS ENTERED EVERY 480 MS.  ITS FUNCTION IS TO EXAMINE THE LOW 8 BITS
000024:                                                                                                 #  OF CHANNEL 32 TO SEE IF ANY ISOLATION-VALVE CLOSURE BITS HAVE APPEARED OR DISAPPEARED (THE CREW IS WARNED OF JET
000025:                                                                                                 #  FAILURES BY LAMPS LIT BY THE GRUMMAN FAILURE-DETECTION CIRCUITRY; THEY MAY RESPOND BY OPERATING SWITCHES WHICH
000026:                                                                                                 #  ISOLATE PARIS OF JETS FROM THE PROPELLANT TANKS AND SET BITS IN CHANNEL 32).  iN THE EVENT THAT CHANNEL 32 BITS
000027:                                                                                                 #  DIFFER FROM `PVALVEST', THE RECORD OF ACTIONS TAKEN BY THIS ROUTINE, THE APPROPRIATE BITS IN `CH5MASK' &
000028:                                                                                                 #  `CH6MASK', USED BY THE DAP JET-SELECTION LOGIC, ARE UPDATED, AS IS `PVALVEST'.  TO SPEED UP & SHORTEN THE
000029:                                                                                                 #  ROUTINE, NO MORE THAN ONE CHANGE IS ACCEPTED PER ENTRY.  THE HIGHEST-NUMBERED BIT IN CHANNEL 32 WHICH REQUIRES
000030:                                                                                                 #  ACTION IS THE ONE PROCESSED.
000031:
000032:                                                                                                 #  THE CODING IN THE FAILURE MONITOR HAS BEEN WRITTEN SO AS TO HAVE ALMOST COMPLETE RESTART PROTECTION.  FOR
000033:                                                                                                 #  EXAMPLE, NO ASSUMPTION IS MADE WHEN SETTING A `CH5MASK' BIT TO 1 THAT THE PREVIOUS STATE IS 0, ALTHOUGH IT OF
000034:                                                                                                 #  COURSE SHOULD BE.  ONE CASE WHICH MAY BE SEEN TO EVADE PROTECTION IS THE OCCURRENCE OF A RESTART AFTER UPDATING
000035:                                                                                                 #  ONE OR BOTH DAP MASK-WORDS BUT BEFORE UPDATING `PVALVEST', COUPLED WITH A CHANGE IN TEH VALVE-BIT BACK TO ITS
000036:                                                                                                 #  FORMER STATE.  THE CONSEQUENCE OF THIS IS THAT THE NEXT ENTRY WOULD NOT SEE THE CHANGE INCOMPLETELY INCORP-
000037:                                                                                                 #  ORATED BY THE LAST PASS (BECAUSE IT WENT AWAY AT JUST THE RIGHT TIME), BUT THE DAP MASK-WORDS WILL BE INCORRECT.
000038:                                                                                                 #  THIS COMBINATION OF EVENTS SEEMS QUITE REMOTE, BUT NOT IMPOSSIBLE UNLESS THE CREW OPERATES THE SWITCHES AT HALF-
000039:                                                                                                 #  SECOND INTERVALS OR LONGER.  IN ANY EVENT, A DISAGREEMENT BETWEEN REALITY AND THE DAP MASKS WILL BE CUREED IF
000040:                                                                                                 #  THE MISINTERPRETED SWITCH IS REVERSED AND THEN RESTORED TO ITS CORRECT POSITION (SLOWLY).
000041:
000042:                                                                                                 #  CALLING SEQUENCE:
000043:
000044:                                                                                                 #         TCF     RCSMONIT                # (IN INTERRUPT MODE, EVERY 480 MS.)
000045:
000046:                                                                                                 #  EXIT: TCF RCSMONEX (ALL PATHS EXIT VIA SUCH AN INSTRUCTION)
000047:
000048: 06,3164     5270               RCSMONEX          EQUALS   RESUME
000049:
000050:                                                                                                 #  ERASABLE INITIALIZATION REQUIRED:
000051:
000052:                                                                                                 #         VIA FRESH START:        PVALVEST        =       +0      (ALL JETS ENABLED)
000053:                                                                                                 #                                 CH5MASK,CH6MASK =       +0      (ALL JETS OK)
000054:
000055:                                                                                                 #  OUTPUT:        CH5MASK 7 CH6MASK UPDATED (1'S WHERE JETS NOT TO BE USED, IN CHANNEL 5 & 6 FORMAT)
000056:                                                                                                 #                 PVALTEST UPDATED (1'S WHEN VALVE CLOSURES HAVE BEEN TRANSLATED INTO CH5MASK & CH6MASK; CHAN 32 FORMAT)
000057:                                                                                                 #                 JOB TO DO 1/ACCS.
000058:
000059:                                                                                                 #  DEBRIS:  A, L, AND Q AND DEBRIS OF NOVAC.
000060:
000061:                                                                                                 #  SUBROUTINE CALLED:  NOVAC.
000062:
000063: 06,3164     1257                                 EBANK=   CH5MASK
000064:
000065: 23,2000                                          BANK     23
000066: 06,2000                                          SETLOC   RCSMONT
000067: 06,2000                                          BANK
000068:                                                                                                 #  Page 198
000069: 06,3164                                          COUNT*   $$/T4RCS
000070:
000071: 06,3164           44755        RCSMONIT          CS       ZERO
000072: 06,3165           00006                          EXTEND
000073: 06,3166           06032                          RXOR     CHAN32                                #  PICK UP + INVERT INVERTED CHANNEL 32.
000074: 06,3167           74357                          MASK     LOW8                                  #  KEEP JET-FAIL BITS ONLY.
000075: 06,3170           54002                          TS       Q
000076:
000077: 06,3171           41273                          CS       PVALVEST
000078: 06,3172           70002                          MASK     Q                                     #  FORM PC + PC.
000079: 06,3173           54001                          TS       L                                     #         (P = PREVIOUS ISOLATION VALVE STATE,
000080: 06,3174           40002                          CS       Q                                     #          C = CURRENT VALVE STATE (CH32)).
000081: 06,3175           71273                          MASK     PVALVEST
000082: 06,3176           26001                          ADS      L                                     #  RESULT NZ INDICATES ACTION REQUIRED.
000083:
000084: 06,3177           00006                          EXTEND
000085: 06,3200           15270                          BZF      RCSMONEX                              #  QUIT IF NO ACTION REQUIRED.
000086:
000087: 06,3201           00006                          EXTEND
000088: 06,3202           74745                          MP       BIT7                                  #  MOVE BITS 8-1 OF A TO 14-7 OF L.
000089: 06,3203           56001                          XCH      L                                     #  XERO TO L IN THE PROCESS.
000090:
000091: 06,3204           24001                 -3       INCR     L
000092: 06,3205           60000                          DOUBLE                                         #  BOUND TO GET OVERFLOW IN THIS LOOP,
000093: 06,3206           54000                          OVSK                                           #  SINCE WE ASSURED INITIAL NZ IN A.
000094: 06,3207           13204                          TCF      -3
000095:
000096: 06,3210           50001                          INDEX    L
000097: 06,3211           34743                          CA       BIT8       -1                         #  SAVE THE RELEVANT BIT (8-1).
000098: 06,3212           54002                          TS       Q
000099: 06,3213           71273                          MASK     PVALVEST                              #  LOOK AT PREVIOUS VALVE STATE BIT.
000100: 06,3214           10000                          CCS      A
000101: 06,3215           13231                          TCF      VOPENED                               #  THE VALVE HAS JUST BEEN OPENED.
000102:
000103: 06,3216           41257                          CS       CH5MASK                               #  THE VALVE HAS JUST BEEN CLOSED.
000104: 06,3217           50001                          INDEX    L
000105: 06,3220           73250                          MASK     5FAILTAB
000106: 06,3221           27257                          ADS      CH5MASK                               #  SET INHIBIT BIT FOR CHANNEL 5 JET.
000107:
000108: 06,3222           41260                          CS       CH6MASK
000109: 06,3223           50001                          INDEX    L
000110: 06,3224           73260                          MASK     6FAILTAB
000111: 06,3225           27260                          ADS      CH6MASK                               #  SET INGIBIT BIT FOR CHANNEL 6 JET
000112:
000113: 06,3226           30002                          CA       Q
000114: 06,3227           27273                          ADS      PVALVEST                              #  RECORD ACTION TAKEN.
000115:
000116: 06,3230           13244                          TCF      1/ACCFIX                              #  SET UP 1/ACCJOB AND EXIT.
000117:
000118:                                                                                                 #  Page 199
000119: 06,3231           50001        VOPENED           INDEX    L                                     #  A VALVE HAS JUST BEEN OPENED.
000120: 06,3232           43250                          CS       5FAILTAB
000121: 06,3233           71257                          MASK     CH5MASK
000122: 06,3234           55257                          TS       CH5MASK                               #  REMOVE INHIBIT BIT FOR CHANNEL 5 JET.
000123:
000124: 06,3235           50001                          INDEX    L
000125: 06,3236           43260                          CS       6FAILTAB
000126: 06,3237           71260                          MASK     CH6MASK
000127: 06,3240           55260                          TS       CH6MASK                               #  REMOVE INHIBIT BIT FOR CHANNEL 6 JET.
000128:
000129: 06,3241           40002                          CS       Q
000130: 06,3242           71273                          MASK     PVALVEST
000131: 06,3243           55273                          TS       PVALVEST                              #  RECORD ACTION TAKEN.
000132:
000133: 06,3244           37720        1/ACCFIX          CAF      PRIO27                                #  SET UP 1/ACCS SO THAT THE SWITCH CURVES
000134: 06,3245           05072                          TC       NOVAC                                 #         FOR TJETLAW CAN BE MODIFIED IF CH5MASK
000135: 06,3246  E6,1536                                 EBANK=   AOSQ                                  #         HAS BEEN ALTERED.
000136: 06,3246           03652 42106                    2CADR    1/ACCJOB
000137:
000138: 06,3250           15270                          TCF      RCSMONEX                              #  EXIT.
000139:
000140: 06,3251                        5FAILTAB          EQUALS   -1                                    #  CH 5 JET BIT CORRESPONDING TO CH 32 BIT:
000141: 06,3251           00040                          OCT      00040                                 #  8
000142: 06,3252           00020                          OCT      00020                                 #  7
000143: 06,3253           00100                          OCT      00100                                 #  6
000144: 06,3254           00200                          OCT      00200                                 #  5
000145: 06,3255           00010                          OCT      00010                                 #  4
000146: 06,3256           00001                          OCT      00001                                 #  3
000147: 06,3257           00004                          OCT      00004                                 #  2
000148: 06,3260           00002                          OCT      00002                                 #  1
000149:
000150: 06,3261                        6FAILTAB          EQUALS   -1                                    #  CH 6 JET BIT CORRESPONDING TO CH 32 BIT:
000151: 06,3261           00010                          OCT      00010                                 #  8
000152: 06,3262           00020                          OCT      00020                                 #  7
000153: 06,3263           00004                          OCT      00004                                 #  6
000154: 06,3264           00200                          OCT      00200                                 #  5
000155: 06,3265           00001                          OCT      00001                                 #  4
000156: 06,3266           00002                          OCT      00002                                 #  3
000157: 06,3267           00040                          OCT      00040                                 #  2
000158: 06,3270           00100                          OCT      00100                                 #  1
000159:
000160:

End of include-file RCS_FAILURE_MONITOR.agc.  Parent file is MAIN.agc


