
Source Code


000002:                                                                                                  ## Copyright:   Public domain.
000003:                                                                                                  ## Filename:    RESTART_TABLES.agc
000004:                                                                                                  ## Purpose:     A section of Luminary 1C, revision 131.
000005:                                                                                                  ##              It is part of the source code for the Lunar Module's (LM)
000006:                                                                                                  ##              Apollo Guidance Computer (AGC) for Apollo 13.
000007:                                                                                                  ##              This file is intended to be a faithful transcription, except
000008:                                                                                                  ##              that the code format has been changed to conform to the
000009:                                                                                                  ##              requirements of the yaYUL assembler rather than the
000010:                                                                                                  ##              original YUL assembler.
000011:                                                                                                  ## Reference:   pp. 239-244
000012:                                                                                                  ## Contact:     Ron Burkey <info@sandroid.org>.
000013:                                                                                                  ## Website:     www.ibiblio.org/apollo/index.html
000014:                                                                                                  ## Mod history: 05/06/03 RSB.   Began transcribing.
000015:                                                                                                  ##              05/14/05 RSB    Corrected website references above.
000016:                                                                                                  ##              2017-01-06 RSB  Page numbers now agree with those on the
000017:                                                                                                  ##                              original harcopy, as opposed to the PDF page
000018:                                                                                                  ##                              numbers in 1701.pdf.
000019:                                                                                                  ##              2017-02-08 RSB  Comment-text fixes identified while proofing Artemis 72.
000020:                                                                                                  ##              2017-02-20 RSB  Proofed comment text using octopus/ProoferComments.
000021:                                                                                                  ##              2017-03-01 RSB  Restored a period which was present in both Luminary 116
000022:                                                                                                  ##                              and 210, and was therefore presumably missing due to a
000023:                                                                                                  ##                              printer problem.
000024:                                                                                                  ##              2017-03-13 RSB  GOP00FIX -> GOPOOFIX.
000025:


000027:                                                                                                  #  RESTART TABLES
000028:                                                                                                  #  ------------------
000029:
000030:                                                                                                  #  THERE ARE TWO FORMS OF RESTART TABLES FOR EACH GROUP.  THEY ARE KNOWN AS THE EVEN RESTART TABLES AND THE ODD
000031:                                                                                                  #  RESTART TABLES.  THE ODD TABLES HAVE ONLY ONE ENTRY OF THREE LOCATIONS WHILE THE EVEN TABLES HAVE TWO ENTRIES
000032:                                                                                                  #  EACH USING THREE LOCATIONS.  THE INFORMATION AS TO WHETHER IT IS A JOB, WAITLIST, OR A LONGCALL IS GIVEN BY THE
000033:                                                                                                  #  WAY THINGS ARE PUT IN TO THE TABLES.
000034:
000035:                                                                                                  #  A JOB HAS ITS PRIORITY STORED IN PRDTTAB OF THE CORRECT PHASE SPOT - A POSITIVE PRIORITY INDICATES A
000036:                                                                                                  #  FINDVAC JOB, A NEGATIVE PRIORITY A NOVAC.  THE 2CADR OF THE JOB IS STORED IN THE CADRTAB.
000037:                                                                                                  #  FOR EXAMPLE,
000038:
000039:                                                                                                  #                5.7SPOT         OCT     23000
000040:                                                                                                  #                                2CADR   SOMEJOB
000041:


000045:                                                                                                  #  A RESTART OF GROUP 5 WITH PHASE SEVEN WOULD THEN CAUSE SOMEJOB TO BE RESTARTED AS A FINDVAC WITH PRIORITY 23.
000046:
000047:                                                                                                  #                5.5SPOT         OCT     -23000
000048:                                                                                                  #                                2CADR   ANYJOB
000049:
000050:                                                                                                  #  HERE A RESTART OF GROUP 5 WITH PHASE 7 WOULD CAUSE ANYJOB TO BE RESTARTED AS A NOVAC WITH PRIORITY 23.
000051:                                                                                                  #  A LONGCALL HAS ITS GENADR OF ITS 2CADR STORED NEGATIVELY AND ITS BBCON STORED POSITIVELY.  IN ITS PRDTTAB IS
000052:                                                                                                  #  PLACED THE LOCATION OF A DP REGISTER THAT CONTAINS THE DELTA TIME THAT LONGCALL HAD BEEN ORIGINALLY STARTED
000053:                                                                                                  #  WITH.  EXAMPLE,
000054:
000055:                                                                                                  #                3.6SPOT         GENADR  DELTAT
000056:                                                                                                  #                                -GENADR LONGTASK
000057:                                                                                                  #                                BBCON   LONGTASK
000058:                                                                                                  #                                OCT     31000
000059:                                                                                                  #                                2CADR   JOBAGAIN
000060:
000061:                                                                                                  #  THIS WOULD START UP LONGTASK AT THE APPROPRIATE TIME, OR IMMEDIATELY IF THE TIME HAD ALREADY PASSED.  IT SHOULD
000062:                                                                                                  #  BE NOTED THAT IF DELTAT IS IN A SWITCHED E BANK, THIS INFORMATOIN SHOULD BE IN THE BBCON OF THE 2CADR OF THE
000063:                                                                                                  #  TASK.  FROM ABOVE, WE SEE THAT THE SECOND PART O FTHIS PHASE WOULD BE STARTED AS A JOB WITH A PRIORITY OF 31.
000064:
000065:                                                                                                  #  WAITLIST CALLS ARE IDENTIFIED BY THE FACT THAT THEIR 2CADR IS STORED NEGATIVELY.  IF PRDTTAB OF THE PHASE SPOT
000066:                                                                                                  #  IS POSITIVE, THEN IT CONTAINS THE DELTA TIME, IF PRDTTAB IS NEGATIVE THEN IT IS THE -GENADR OF AN ERASABLE
000067:                                                                                                  #  LOCATION CONTAINING THE DELTA TIME, THAT IS, THE TIME IS STORED INDIRECTLY.  IT SHOULD BE NOTED AS ABOVE, THAT
000068:                                                                                                  #  IF THE TIME IS STORED INDIRECTLY, THE BBCON MUST CONTAIN THE NECESSARY E BANK INFORMATION IF APPLICABLE.  WITH
000069:                                                                                                  #  WAITLIST WE HAVE ONE FURTHER OPTION, IF -0 IS STORED IN PRDTTAB, IT WILL CAUSE AN IMMEDIATE RESTART OF THE
000070:                                                                                                  #  TASK.  EXAMPLES,
000071:
000072:                                                                                                  #                                OCT     77777           THIS WILL CAUSE AN IMMEDIATE RESTART
000073:                                                                                                  #                                -2CADR  ATASK           OF THE TASK :ATASK:
000074:                                                                                                  #
000075:                                                                                                  #                                DEC     200             IF THE TIME OF THE 2 SECONDS SINCE DUMMY
000076:                                                                                                  #                                -2CADR  DUMMY           WAS PUT ON WAITLIST IS UP, IT WILL BEGIN
000077:                                                                                                  #                                                        IN 10 MS, OTHERWISE IT WILL BEGIN WHEN
000078:                                                                                                  #                                                        IT NORMALLY WOULD HAVE BEGUN.


000080:                                                                                                  #                                -GENADR DTIME           WHERE DTIME CONTAINS THE DELTA TIME
000081:                                                                                                  #                                -2CADR  TASKTASK        OTHERWISE THIS IS AS ABOVE
000082:
000083:                                                                                                  #  ***** NOW THE TABLES THEMSELVES *****
000084:
000085: 01,2002                                           BANK     01
000086: 01,2000                                           SETLOC   RESTART
000087: 01,2000                                           BANK
000088:
000089: 01,2002                        PRDTTAB            EQUALS   12000                                 #  USED TO FIND THE PRIORITY OR DELTATIME
000090: 01,2002                        CADRTAB            EQUALS   12001                                 #  THIS AND THE NEXT RELATIVE LOC CONTAIN
000091:                                                                                                  #  RESTART 2CADR
000092:
000093: 01,2002                                           COUNT*   $$/RSTAB                              #  TABLES IN BANK 1.
000094: 01,2002           00010        SIZETAB            TC       1.2SPOT    -12006
000095: 01,2003           00020                           TC       1.3SPOT    -12004
000096: 01,2004           00010                           TC       2.2SPOT    -12006
000097: 01,2005           00026                           TC       2.3SPOT    -12004
000098: 01,2006           00010                           TC       3.2SPOT    -12006
000099: 01,2007           00056                           TC       3.3SPOT    -12004
000100: 01,2010           00062                           TC       4.2SPOT    -12006
000101: 01,2011           00072                           TC       4.3SPOT    -12004
000102: 01,2012           00145                           TC       5.2SPOT    -12006
000103: 01,2013           00163                           TC       5.3SPOT    -12004
000104: 01,2014           00010                           TC       6.2SPOT    -12006
000105: 01,2015           00174                           TC       6.3SPOT    -12004
000106: 01,2016           21000        1.2SPOT            OCT      21000                                 #  A DUMMY EXAMPLE TO BE REPLACED AS SOON
000107: 01,2017     0074                                  EBANK=   STATE
000108: 01,2017           05155 04060                     2CADR    ENDOFJOB                              #  AS THERE IS A LEGITIMATE 1.2SPOT
000109:
000110: 01,2021           00144                           DEC      100        B-14
000111: 01,2022     0074                                  EBANK=   STATE
000112: 01,2022           05261 04060                     2CADR    TASKOVER
000113:
000114:                                                                                                  #  ANY MORE GROUP 1.EVEN RESTART VALUES SHOULD GO HERE
000115:
000116: 01,2024           76300        1.3SPOT            -GENADR  SAVET-30
000117: 01,2025  E7,1515                                  EBANK=   DVCNTR
000118: 01,2025           75427 03710                     -2CADR   ULLGTASK
000119:
000120: 01,2027           32000        1.5SPOT            OCT      32000
000121: 01,2030  E7,1654                                  EBANK=   HMEAS
000122: 01,2030           03630 66067                     2CADR    REREPOS
000123:
000124:                                                                                                  #  ANY MORE GROUP 1.ODD RESTART VALUES SHOULD GO HERE
000125:
000126: 01,2032  01,2016               2.2SPOT            EQUALS   1.2SPOT
000127:
000128:                                                                                                  #  ANY MORE GROUP 2.EVEN RESTART VALUES SHOULD GO HERE
000129:
000130: 01,2032           02627        2.3SPOT            GENADR   600SECS


000132: 01,2033           75175                           -GENADR  STATEINT
000133: 01,2034  E3,1554                                  EBANK=   RRECTCSM
000134: 01,2034           26063                           BBCON    STATEINT
000135:
000136: 01,2035           05000        2.5SPOT            OCT      05000
000137: 01,2036  E3,1554                                  EBANK=   RRECTCSM
000138: 01,2036           02611 26063                     2CADR    STATINT1
000139:
000140: 01,2040           02734        2.7SPOT            DEC      1500       B-14
000141: 01,2041  E7,1456                                  EBANK=   LOSCOUNT
000142: 01,2041           75533 27710                     -2CADR   P20LEMC1
000143:
000144: 01,2043           14000        2.11SPOT           OCT      14000
000145: 01,2044  E7,1762                                  EBANK=   P21TIME
000146: 01,2044           02414 50067                     2CADR    P25LEM1
000147:
000148: 01,2046           10000        2.13SPOT           OCT      10000
000149: 01,2047  E7,1456                                  EBANK=   LOSCOUNT
000150: 01,2047           02223 54067                     2CADR    RELINUS
000151:
000152: 01,2051           26000        2.15SPOT           OCT      26000
000153: 01,2052  E7,1456                                  EBANK=   LOSCOUNT
000154: 01,2052           02654 50067                     2CADR    R22RSTRT
000155:
000156: 01,2054           77777        2.17SPOT           OCT      77777
000157: 01,2055  E7,1700                                  EBANK=   VGPREV
000158: 01,2055           75436 03710                     -2CADR   REDO2.17
000159:
000160: 01,2057           00031        2.21SPOT           DEC      25         B-14
000161: 01,2060  E7,1515                                  EBANK=   DVCNTR
000162: 01,2060           75771 35710                     -2CADR   R10,R11
000163:
000164:                                                                                                  #  ANY MORE GROUP 2.ODD RESTART VALUES SHOULD GO HERE.
000165:
000166: 01,2062  01,2016               3.2SPOT            EQUALS   1.2SPOT
000167:
000168:                                                                                                  #  ANY MORE GROUP 3.EVEN RESTART VALUES SHOULD GO HERE
000169:
000170: 01,2062           76355        3.3SPOT            -GENADR  ZOOMTIME
000171: 01,2063  E7,1515                                  EBANK=   DVCNTR
000172: 01,2063           74110 05710                     -2CADR   ZOOM
000173:
000174: 01,2065           20000        3.5SPOT            OCT      20000
000175: 01,2066  E7,1453                                  EBANK=   TTOGO
000176: 01,2066           02540 56067                     2CADR    S40.13
000177:
000178:                                                                                                  #  ANY MORE GROUP 3.ODD RESTART VALUES SHOULD GO HERE
000179:
000180: 01,2070           04704        4.2SPOT            DEC      2500       B-14
000181: 01,2071  E7,1453                                  EBANK=   TTOGO


000183: 01,2071           75423 03710                     -2CADR   TIG-5
000184:
000185: 01,2073           77777                           OCT      77777
000186: 01,2074  E7,1453                                  EBANK=   TTOGO
000187: 01,2074           75433 03710                     -2CADR   REDO4.2
000188:
000189:                                                                                                  #  ANY MORE GROUP 4.EVEN RESTART VALUES SHOULD GO HERE
000190:
000191: 01,2076           25000        4.3SPOT            OCT      25000
000192: 01,2077  E7,1515                                  EBANK=   DVCNTR
000193: 01,2077           03533 64067                     2CADR    GOABORT
000194:
000195: 01,2101           00062        4.5SPOT            DEC      50         B-14
000196: 01,2102  E7,1453                                  EBANK=   TTOGO
000197: 01,2102           75211 03710                     -2CADR   ULLAGOFF
000198:
000199: 01,2104           00764        4.7SPOT            DEC      500        B-14
000200: 01,2105  E7,1515                                  EBANK=   DVCNTR
000201: 01,2105           75370 03710                     -2CADR   TIG-0
000202:
000203: 01,2107           76260        4.11SPOT           -GENADR  TGO        +1
000204: 01,2110  E7,1515                                  EBANK=   DVCNTR
000205: 01,2110           74231 03710                     -2CADR   ENGOFTSK
000206:
000207: 01,2112           12000        4.13SPOT           OCT      12000
000208: 01,2113  E7,1462                                  EBANK=   TRKMKCNT
000209: 01,2113           03227 74067                     2CADR    POSTBURN
000210:
000211: 01,2115           00764        4.15SPOT           DEC      500        B-14
000212: 01,2116  E7,1453                                  EBANK=   TTOGO
000213: 01,2116           75477 03710                     -2CADR   TIG-30
000214:
000215: 01,2120           77777        4.17SPOT           OCT      77777
000216: 01,2121  E7,1515                                  EBANK=   DVCNTR
000217: 01,2121           75423 03710                     -2CADR   TIG-5
000218:
000219: 01,2123           13000        4.21SPOT           OCT      13000
000220: 01,2124  E5,1730                                  EBANK=   STAR
000221: 01,2124           03012 30065                     2CADR    R51.1      +1
000222:
000223: 01,2126           77777        4.23SPOT           OCT      77777
000224: 01,2127  E7,1515                                  EBANK=   DVCNTR
000225: 01,2127           75345 03710                     -2CADR   IGNITION
000226:
000227: 01,2131           01477        4.25SPOT           GENADR   SAVET-30
000228: 01,2132           75535                           -GENADR  TIG-35
000229: 01,2133  E7,1477                                  EBANK=   SAVET-30
000230: 01,2133           74067                           BBCON    TIG-35
000231:


000233: 01,2134           52777        4.27SPOT           OCT      52777
000234: 01,2135  E7,1515                                  EBANK=   DVCNTR
000235: 01,2135           02070 42067                     2CADR    P70A
000236:
000237: 01,2137           52777        4.31SPOT           OCT      52777
000238: 01,2140  E7,1515                                  EBANK=   DVCNTR
000239: 01,2140           02073 42067                     2CADR    P71A
000240:
000241: 01,2142           46777        4.33SPOT           OCT      46777
000242: 01,2143  E7,1515                                  EBANK=   DVCNTR
000243: 01,2143           02024 10067                     2CADR    GOPOOFIX
000244:
000245: 01,2145           46777        4.35SPOT           OCT      46777
000246: 01,2146  E7,1515                                  EBANK=   DVCNTR
000247: 01,2146           05655 04067                     2CADR    GOPOODOO
000248:
000249: 01,2150           52777        4.37SPOT           OCT      52777
000250: 01,2151  E7,1455                                  EBANK=   WHICH
000251: 01,2151           02575 74067                     2CADR    COMFAIL
000252:
000253:                                                                                                  #  ANY MORE 4.ODD RESTART VALUES SHOULD GO HERE.
000254: 01,2153           22000        5.2SPOT            OCT      22000
000255: 01,2154  E7,1515                                  EBANK=   DVCNTR
000256: 01,2154           02463 46067                     2CADR    NORMLIZE
000257:
000258: 01,2156           00310                           DEC      200        B-14
000259: 01,2157  E7,1515                                  EBANK=   DVCNTR
000260: 01,2157           74166 01710                     -2CADR   REREADAC
000261:
000262: 01,2161           00310        5.4SPOT            DEC      200        B-14
000263: 01,2162  E7,1515                                  EBANK=   DVCNTR
000264: 01,2162           74166 01710                     -2CADR   REREADAC
000265:
000266: 01,2164           20000                           OCT      20000
000267: 01,2165  E7,1515                                  EBANK=   DVCNTR
000268: 01,2165           02206 66067                     2CADR    SERVICER
000269:
000270:                                                                                                  #  ANY MORE GROUP 5.EVEN RESTART VALUES SHOULD GO HERE
000271:
000272: 01,2167           00310        5.3SPOT            DEC      200        B-14
000273: 01,2170  E7,1515                                  EBANK=   DVCNTR
000274: 01,2170           74166 01710                     -2CADR   REREADAC
000275:
000276: 01,2172           77777        5.5SPOT            OCT      77777
000277: 01,2173  E7,1515                                  EBANK=   DVCNTR
000278: 01,2173           74326 01710                     -2CADR   REDO5.5
000279:


000281: 01,2175           77777        5.7SPOT            OCT      77777
000282: 01,2176  E7,1515                                  EBANK=   DVCNTR
000283: 01,2176           74361 01710                     -2CADR   BIBIBIAS
000284:
000285:                                                                                                  #  ANY MORE GROUP 5.ODD RESTART VALUES SHOULD GO HERE
000286:
000287: 01,2200  01,2016               6.2SPOT            EQUALS   1.2SPOT
000288: 01,2200           00144        6.3SPOT            DEC      100        B-14
000289: 01,2201  E7,1441                                  EBANK=   TIG
000290: 01,2201           75054 03710                     -2CADR   CLOKTASK
000291:
000292: 01,2203           30000        6.5SPOT            OCT      30000                                 #  PROTECT INCREMENTING OF TIME2,TIME1 BY
000293: 01,2204  E3,1706                                  EBANK=   TEPHEM                                #  P27(UPDATE PROGRAM) VIA V70 OR V73.
000294: 01,2204           03557 10063                     2CADR    TIMEDIDR
000295:
000296: 01,2206           17000        6.7SPOT            OCT      17000
000297: 01,2207  E7,1700                                  EBANK=   VGPREV
000298: 01,2207           03354 74067                     2CADR    REDO6.7
000299:
000300:

End of include-file RESTART_TABLES.agc.  Parent file is MAIN.agc


