
Source Code


000002:                                                                                                  ## Copyright:   Public domain.
000003:                                                                                                  ## Filename:    RESTART_TABLES.agc
000004:                                                                                                  ## Purpose:     A section of Luminary 1C, revision 131.
000005:                                                                                                  ##              It is part of the source code for the Lunar Module's (LM)
000006:                                                                                                  ##              Apollo Guidance Computer (AGC) for Apollo 13.
000007:                                                                                                  ##              This file is intended to be a faithful transcription, except
000008:                                                                                                  ##              that the code format has been changed to conform to the
000009:                                                                                                  ##              requirements of the yaYUL assembler rather than the
000010:                                                                                                  ##              original YUL assembler.
000011:                                                                                                  ## Reference:   pp. 239-244
000012:                                                                                                  ## Contact:     Ron Burkey <info@sandroid.org>.
000013:                                                                                                  ## Website:     www.ibiblio.org/apollo/index.html
000014:                                                                                                  ## Mod history: 05/06/03 RSB.   Began transcribing.
000015:                                                                                                  ##              05/14/05 RSB    Corrected website references above.
000016:                                                                                                  ##              2017-01-06 RSB  Page numbers now agree with those on the
000017:                                                                                                  ##                              original harcopy, as opposed to the PDF page
000018:                                                                                                  ##                              numbers in 1701.pdf.
000019:


000021:                                                                                                  #  RESTART TABLES
000022:                                                                                                  #  --------------
000023:
000024:                                                                                                  #  THERE ARE TWO FORMS OF RESTART TABLES FOR EACH GROUP.  THEY ARE KNOWN AS THE EVEN RESTART TABLES AND THE ODD
000025:                                                                                                  #  RESTART TABLES.  THE ODD TABLES HAVE ONLY ONE ENTRY OF THREE LOCATIONS WHILE THE EVEN TABLES HAVE TWO ENTRIES
000026:                                                                                                  #  EACH USING THREE LOCATIONS.  THE INFORMATION AS TO WHETHER IT IS A JOB, WAITLIST, OR A LONGCALL IS GIVEN BY THE
000027:                                                                                                  #  WAY THINGS ARE PUT IN TO THE TABLES.
000028:
000029:                                                                                                  #  A JOB HAS ITS PRIORITY STORED IN A PRDTTAB OF THE CORRECT PHASE SPOT -- A POSITIVE PRIORITY INDICATES A
000030:                                                                                                  #  FINDVAC JOB, A NEGATIVE PRIORITY A NOVAC.  THE 2CADR OF THE JOB IS STORED IN THE CADRTAB.
000031:                                                                                                  #  FOR EXAMPLE,
000032:
000033:                                                                                                  #                5.7SPOT         OCT     23000
000034:                                                                                                  #                                2CADR   SOMEJOB
000035:
000036:                                                                                                  #  A RESTART OF GROUP 5 WITH PHASE SEVEN WOULD THEN CAUSE SOMEJOB TO BE RESTARTED AS A FINDVAC WITH PRIORITY 23
000037:                                                                                                  #  A LONGCALL HAS ITS GENADR OF ITS 2CDR STORED NEGATIVELY AND ITS BBCON STORED POSITIVELY.  IN ITS PRDTTAB IS
000038:                                                                                                  #  PLACED THE LOCATION OF A DP REGISTER THAT CONTAINS THE DELTA TIME THAT LONGCALL HAD BEEN ORIGINALLY STARTED
000039:                                                                                                  #  WITH.  EXAMPLE,
000040:
000041:                                                                                                  #                3.6SPOT         GENADR  DELTAT
000042:                                                                                                  #                                -GENADR LONGTASK
000043:                                                                                                  #                                BBCON   LONGTASK
000044:                                                                                                  #                                OCT     31000
000045:                                                                                                  #                                2CADR   JOBAGAIN
000046:
000047:                                                                                                  #  THIS WOULD START UP LONGTASK AT THE APPROPRIATE TIME, OR IMMEDIATELY IF THE TIME HAD ALREADY PASSED.  IT SHOULD
000048:                                                                                                  #  BE NOTED THAT IF DELTAT IS IN A SWITCHED E BANK, THIS INFORMATION SHOULDD BE IN THE BBCON OF THE 2CADR OF THE
000049:                                                                                                  #  TASK.  FROM ABOVE, WE SEE THAT THE SECOND PART O FTHIS PHASE WOULD BE STARTED AS A JOB WITH A PRIORITY OF 31.
000050:
000051:                                                                                                  #  WAITLIST CALLS ARE IDENTIFIED BY THE FCT THAT THEIR 2CADR IS STORED NEGATIVELY.  IF PRDTTAB OF THE PHASE SPOT
000052:                                                                                                  #  IS POSITIVE, THEN IT CONTAINS THE DELTA TIME, IF PRDTTAB IS NEGATIVE THEN IT IS THE -GENADR OF AN ERASABLE
000053:                                                                                                  #  IF THE TIME IS STORED INDIRECTLY, THE BBCON MUST CONTAIN THE NECESSARY E BANK INFORMATION IF APPLICABLE.  WITH
000054:                                                                                                  #  WAITLIST WE HAVE ONE FURTHER OPTION, IF -0 IS STORED IN PRDTTAB, IT WILL CAUSE AN IMMEDIATE RESTART OF THE
000055:                                                                                                  #  TASK.  EXAMPLES,
000056:
000057:                                                                                                  #                                OCT     77777           # THIS WILL CAUSE AN IMMEDIATE RESTART
000058:                                                                                                  #                                -2CADR  ATASK           # OF THE TASK :ATASK:
000059:                                                                                                  #
000060:                                                                                                  #                                DEC     200             # IF THE TIME OF THE 2 SECONDS SINCE DUMMY
000061:                                                                                                  #                                -2CADR  DUMMY           # WAS PUT ON THE WAITLIST IS UP, IT WILL BEGIN
000062:                                                                                                  #                                                        # IN 10 MS, OTHERWISE IT WILL BEGIN WHEN
000063:                                                                                                  #                                                        # IT NORMALLY WOULD HAVE BEGUN.


000065:                                                                                                  #                                -GENADR DTIME           # WHERE DTIME CONTAINS THE DELTA TIME
000066:                                                                                                  #                                -2CADR  TASKTASK        # OTHERWISE THIS IS AS ABOVE
000067:
000068:                                                                                                  #  ***** NOW THE TABLES THEMSELVES *****
000069:
000070: 01,2002                                           BANK     01
000071: 01,2000                                           SETLOC   RESTART
000072: 01,2000                                           BANK
000073:
000074: 01,2002                        PRDTTAB            EQUALS   12000                                 #  USED TO FIND THE PRIORITY OR DELTATIME
000075: 01,2002                        CADRTAB            EQUALS   12001                                 #  THIS AND THE NEXT RELATIVE LOC CONTAIN
000076:                                                                                                  #  RESTART 2CADR
000077:
000078: 01,2002                                           COUNT*   $$/RSTAB                              #  TABLES IN BANK 1
000079: 01,2002           00010        SIZETAB            TC       1.2SPOT    -12006
000080: 01,2003           00020                           TC       1.3SPOT    -12004
000081: 01,2004           00010                           TC       2.2SPOT    -12006
000082: 01,2005           00026                           TC       2.3SPOT    -12004
000083: 01,2006           00010                           TC       3.2SPOT    -12006
000084: 01,2007           00056                           TC       3.3SPOT    -12004
000085: 01,2010           00062                           TC       4.2SPOT    -12006
000086: 01,2011           00072                           TC       4.3SPOT    -12004
000087: 01,2012           00145                           TC       5.2SPOT    -12006
000088: 01,2013           00163                           TC       5.3SPOT    -12004
000089: 01,2014           00010                           TC       6.2SPOT    -12006
000090: 01,2015           00174                           TC       6.3SPOT    -12004
000091: 01,2016           21000        1.2SPOT            OCT      21000                                 #  A DUMMY EXAMPLE TO BE REPLACED AS SOON
000092: 01,2017     0074                                  EBANK=   STATE
000093: 01,2017           05155 04060                     2CADR    ENDOFJOB                              #  AS THERE IS A LEGITIMATE 1.2SPOT
000094:
000095: 01,2021           00144                           DEC      100        B-14
000096: 01,2022     0074                                  EBANK=   STATE
000097: 01,2022           05261 04060                     2CADR    TASKOVER
000098:
000099:                                                                                                  #  ANY MORE GROUP 1.EVEN RESTART VALUES SHOULD GO HERE.
000100:
000101: 01,2024           76300        1.3SPOT            -GENADR  SAVET-30
000102: 01,2025  E7,1515                                  EBANK=   DVCNTR
000103: 01,2025           75427 03710                     -2CADR   ULLGTASK
000104:
000105: 01,2027           32000        1.5SPOT            OCT      32000
000106: 01,2030  E7,1654                                  EBANK=   HMEAS
000107: 01,2030           03630 66067                     2CADR    REREPOS
000108:
000109:                                                                                                  #  ANY MORE GROUP 1.ODD RESTART VALUES SHOULD GO HERE.
000110:
000111: 01,2032  01,2016               2.2SPOT            EQUALS   1.2SPOT
000112:
000113:                                                                                                  #  ANY MORE GROUP 2.EVEN RESTART VALUES SHOULD GO HERE
000114:
000115: 01,2032           02627        2.3SPOT            GENADR   600SECS


000117: 01,2033           75175                           -GENADR  STATEINT
000118: 01,2034  E3,1554                                  EBANK=   RRECTCSM
000119: 01,2034           26063                           BBCON    STATEINT
000120:
000121: 01,2035           05000        2.5SPOT            OCT      05000
000122: 01,2036  E3,1554                                  EBANK=   RRECTCSM
000123: 01,2036           02611 26063                     2CADR    STATINT1
000124:
000125: 01,2040           02734        2.7SPOT            DEC      1500       B-14
000126: 01,2041  E7,1456                                  EBANK=   LOSCOUNT
000127: 01,2041           75533 27710                     -2CADR   P20LEMC1
000128:
000129: 01,2043           14000        2.11SPOT           OCT      14000
000130: 01,2044  E7,1762                                  EBANK=   P21TIME
000131: 01,2044           02414 50067                     2CADR    P25LEM1
000132:
000133: 01,2046           10000        2.13SPOT           OCT      10000
000134: 01,2047  E7,1456                                  EBANK=   LOSCOUNT
000135: 01,2047           02223 54067                     2CADR    RELINUS
000136:
000137: 01,2051           26000        2.15SPOT           OCT      26000
000138: 01,2052  E7,1456                                  EBANK=   LOSCOUNT
000139: 01,2052           02654 50067                     2CADR    R22RSTRT
000140:
000141: 01,2054           77777        2.17SPOT           OCT      77777
000142: 01,2055  E7,1700                                  EBANK=   VGPREV
000143: 01,2055           75436 03710                     -2CADR   REDO2.17
000144:
000145: 01,2057           00031        2.21SPOT           DEC      25         B-14
000146: 01,2060  E7,1515                                  EBANK=   DVCNTR
000147: 01,2060           75771 35710                     -2CADR   R10,R11
000148:
000149:                                                                                                  #  ANY MORE GROUP 2.ODD RESTART VALUES SHOULD GO HERE.
000150:
000151: 01,2062  01,2016               3.2SPOT            EQUALS   1.2SPOT
000152:
000153:                                                                                                  #  ANY MORE GROUP 3.EVEN RESTART VALUES SHOULD GO HERE
000154:
000155: 01,2062           76355        3.3SPOT            -GENADR  ZOOMTIME
000156: 01,2063  E7,1515                                  EBANK=   DVCNTR
000157: 01,2063           74110 05710                     -2CADR   ZOOM
000158:
000159: 01,2065           20000        3.5SPOT            OCT      20000
000160: 01,2066  E7,1453                                  EBANK=   TTOGO
000161: 01,2066           02540 56067                     2CADR    S40.13
000162:
000163:                                                                                                  #  ANY MORE GROUP 3.ODD RESTART VALUES SHOULD GO HERE
000164:
000165: 01,2070           04704        4.2SPOT            DEC      2500       B-14
000166: 01,2071  E7,1453                                  EBANK=   TTOGO


000168: 01,2071           75423 03710                     -2CADR   TIG-5
000169:
000170: 01,2073           77777                           OCT      77777
000171: 01,2074  E7,1453                                  EBANK=   TTOGO
000172: 01,2074           75433 03710                     -2CADR   REDO4.2
000173:
000174:                                                                                                  #  ANY MORE GROUP 4.EVEN RESTART VALUES SHOULD GO HERE
000175:
000176: 01,2076           25000        4.3SPOT            OCT      25000
000177: 01,2077  E7,1515                                  EBANK=   DVCNTR
000178: 01,2077           03533 64067                     2CADR    GOABORT
000179:
000180: 01,2101           00062        4.5SPOT            DEC      50         B-14
000181: 01,2102  E7,1453                                  EBANK=   TTOGO
000182: 01,2102           75211 03710                     -2CADR   ULLAGOFF
000183:
000184: 01,2104           00764        4.7SPOT            DEC      500        B-14
000185: 01,2105  E7,1515                                  EBANK=   DVCNTR
000186: 01,2105           75370 03710                     -2CADR   TIG-0
000187:
000188: 01,2107           76260        4.11SPOT           -GENADR  TGO        +1
000189: 01,2110  E7,1515                                  EBANK=   DVCNTR
000190: 01,2110           74231 03710                     -2CADR   ENGOFTSK
000191:
000192: 01,2112           12000        4.13SPOT           OCT      12000
000193: 01,2113  E7,1462                                  EBANK=   TRKMKCNT
000194: 01,2113           03227 74067                     2CADR    POSTBURN
000195:
000196: 01,2115           00764        4.15SPOT           DEC      500        B-14
000197: 01,2116  E7,1453                                  EBANK=   TTOGO
000198: 01,2116           75477 03710                     -2CADR   TIG-30
000199:
000200: 01,2120           77777        4.17SPOT           OCT      77777
000201: 01,2121  E7,1515                                  EBANK=   DVCNTR
000202: 01,2121           75423 03710                     -2CADR   TIG-5
000203:
000204: 01,2123           13000        4.21SPOT           OCT      13000
000205: 01,2124  E5,1730                                  EBANK=   STAR
000206: 01,2124           03012 30065                     2CADR    R51.1      +1
000207:
000208: 01,2126           77777        4.23SPOT           OCT      77777
000209: 01,2127  E7,1515                                  EBANK=   DVCNTR
000210: 01,2127           75345 03710                     -2CADR   IGNITION
000211:
000212: 01,2131           01477        4.25SPOT           GENADR   SAVET-30
000213: 01,2132           75535                           -GENADR  TIG-35
000214: 01,2133  E7,1477                                  EBANK=   SAVET-30
000215: 01,2133           74067                           BBCON    TIG-35
000216:


000218: 01,2134           52777        4.27SPOT           OCT      52777
000219: 01,2135  E7,1515                                  EBANK=   DVCNTR
000220: 01,2135           02070 42067                     2CADR    P70A
000221:
000222: 01,2137           52777        4.31SPOT           OCT      52777
000223: 01,2140  E7,1515                                  EBANK=   DVCNTR
000224: 01,2140           02073 42067                     2CADR    P71A
000225:
000226: 01,2142           46777        4.33SPOT           OCT      46777
000227: 01,2143  E7,1515                                  EBANK=   DVCNTR
000228: 01,2143           02024 10067                     2CADR    GOP00FIX
000229:
000230: 01,2145           46777        4.35SPOT           OCT      46777
000231: 01,2146  E7,1515                                  EBANK=   DVCNTR
000232: 01,2146           05655 04067                     2CADR    GOPOODOO
000233:
000234: 01,2150           52777        4.37SPOT           OCT      52777
000235: 01,2151  E7,1455                                  EBANK=   WHICH
000236: 01,2151           02575 74067                     2CADR    COMFAIL
000237:
000238:                                                                                                  #  ANY MORE 4.ODD RESTART VALUES SHOULD GO HERE.
000239: 01,2153           22000        5.2SPOT            OCT      22000
000240: 01,2154  E7,1515                                  EBANK=   DVCNTR
000241: 01,2154           02463 46067                     2CADR    NORMLIZE
000242:
000243: 01,2156           00310                           DEC      200        B-14
000244: 01,2157  E7,1515                                  EBANK=   DVCNTR
000245: 01,2157           74166 01710                     -2CADR   REREADAC
000246:
000247: 01,2161           00310        5.4SPOT            DEC      200        B-14
000248: 01,2162  E7,1515                                  EBANK=   DVCNTR
000249: 01,2162           74166 01710                     -2CADR   REREADAC
000250:
000251: 01,2164           20000                           OCT      20000
000252: 01,2165  E7,1515                                  EBANK=   DVCNTR
000253: 01,2165           02206 66067                     2CADR    SERVICER
000254:
000255:                                                                                                  #  ANY MORE GROUP 5.EVEN RESTART VALUES SHOULD GO HERE
000256:
000257: 01,2167           00310        5.3SPOT            DEC      200        B-14
000258: 01,2170  E7,1515                                  EBANK=   DVCNTR
000259: 01,2170           74166 01710                     -2CADR   REREADAC
000260:
000261: 01,2172           77777        5.5SPOT            OCT      77777
000262: 01,2173  E7,1515                                  EBANK=   DVCNTR
000263: 01,2173           74326 01710                     -2CADR   REDO5.5
000264:


000266: 01,2175           77777        5.7SPOT            OCT      77777
000267: 01,2176  E7,1515                                  EBANK=   DVCNTR
000268: 01,2176           74361 01710                     -2CADR   BIBIBIAS
000269:
000270:                                                                                                  #  ANY MORE GROUP 5.ODD RESTART VALUES SHOULD GO HERE
000271:
000272: 01,2200  01,2016               6.2SPOT            EQUALS   1.2SPOT
000273: 01,2200           00144        6.3SPOT            DEC      100        B-14
000274: 01,2201  E7,1441                                  EBANK=   TIG
000275: 01,2201           75054 03710                     -2CADR   CLOKTASK
000276:
000277: 01,2203           30000        6.5SPOT            OCT      30000                                 #  PROTECT INCREMENTING OF TIME2,TIME1 BY
000278: 01,2204  E3,1706                                  EBANK=   TEPHEM                                #  P27(UPDATE PROGRAM) VIA V70 OR V73
000279: 01,2204           03557 10063                     2CADR    TIMEDIDR
000280:
000281: 01,2206           17000        6.7SPOT            OCT      17000
000282: 01,2207  E7,1700                                  EBANK=   VGPREV
000283: 01,2207           03354 74067                     2CADR    REDO6.7
000284:
000285:

End of include-file RESTART_TABLES.agc.  Parent file is MAIN.agc


