
Source Code


000002:                                                                                                  ## Copyright:   Public domain.
000003:                                                                                                  ## Filename:    RTB_OP_CODES.agc
000004:                                                                                                  ## Purpose:     A section of Luminary 1C, revision 131.
000005:                                                                                                  ##              It is part of the source code for the Lunar Module's (LM)
000006:                                                                                                  ##              Apollo Guidance Computer (AGC) for Apollo 13 and Apollo 14.
000007:                                                                                                  ##              This file is intended to be a faithful transcription, except
000008:                                                                                                  ##              that the code format has been changed to conform to the
000009:                                                                                                  ##              requirements of the yaYUL assembler rather than the
000010:                                                                                                  ##              original YUL assembler.
000011:                                                                                                  ## Reference:   pp. 1394-1399 of 1729.pdf.
000012:                                                                                                  ## Contact:     Ron Burkey <info@sandroid.org>.
000013:                                                                                                  ## Website:     www.ibiblio.org/apollo/index.html
000014:                                                                                                  ## Mod history: 06/07/03 RSB.   Began transcribing.
000015:                                                                                                  ##              05/14/05 RSB    Corrected website references above.
000016:


000018: 22,3773                                           BANK     22
000019: 10,2000                                           SETLOC   RTBCODES
000020: 10,2000                                           BANK
000021:
000022: 10,3574  E5,1664                                  EBANK=   XNB
000023: 10,3574                                           COUNT*   $$/RTB
000024:
000025:                                                                                                  #  LOAD TIME2, TIME1 INTO MPAC:
000026:
000027: 10,3574           00006        LOADTIME           EXTEND
000028: 10,3575           30025                           DCA      TIME2
000029: 10,3576           16060                           TCF      SLOAD2
000030:
000031:                                                                                                  #  CONVERT THE SINGLE PRECISION 2'S COMPLEMENT NUMBER ARRIVING IN MPAC (SCALED IN HALF-REVOLUTIONS) TO A
000032:                                                                                                  #  DP 1'S COMPLEMENT NUMBER SCALED IN REVOLUTIONS.
000033:
000034: 10,3577           10154        CDULOGIC           CCS      MPAC
000035: 10,3600           34755                           CAF      ZERO
000036: 10,3601           13604                           TCF      +3
000037: 10,3602           13603                           NOOP
000038: 10,3603           44736                           CS       HALF
000039:
000040: 10,3604           54155                           TS       MPAC       +1
000041: 10,3605           34755                           CAF      ZERO
000042: 10,3606           56154                           XCH      MPAC
000043: 10,3607           00006                           EXTEND
000044: 10,3610           74736                           MP       HALF
000045: 10,3611           20155                           DAS      MPAC
000046: 10,3612           16064                           TCF      DANZIG                                #  MODE IS ALREADY AT DOUBLE-PRECISION
000047:
000048:                                                                                                  #  FORCE TP SIGN AGREEMENT IN MPAC:
000049:
000050: 10,3613           07262        SGNAGREE           TC       TPAGREE
000051: 10,3614           16064                           TCF      DANZIG
000052:
000053:                                                                                                  #  CONVERT THE DP 1'S COMPLEMENT ANGLE SCALED IN REVOLUTIONS TO A SINGLE PRECISION 2'S COMPLEMENT ANGLE
000054:                                                                                                  #  SCALED IN HALF-REVOLUTIONS.
000055:
000056: 10,3615           03645        1STO2S             TC       1TO2SUB
000057: 10,3616           34755                           CAF      ZERO
000058: 10,3617           54155                           TS       MPAC       +1
000059: 10,3620           16063                           TCF      NEWMODE
000060:
000061:                                                                                                  #  DO 1STO2S ON A VECTOR OF ANGLES:
000062:
000063: 10,3621           03645        V1STO2S            TC       1TO2SUB                               #  ANSWER ARRIVES IN A AND MPAC.
000064:
000065: 10,3622           52162                           DXCH     MPAC       +5
000066: 10,3623           52155                           DXCH     MPAC
000067: 10,3624           03645                           TC       1TO2SUB


000069: 10,3625           54156                           TS       MPAC       +2
000070:
000071: 10,3626           52160                           DXCH     MPAC       +3
000072: 10,3627           52155                           DXCH     MPAC
000073: 10,3630           03645                           TC       1TO2SUB
000074: 10,3631           54155                           TS       MPAC       +1
000075:
000076: 10,3632           30161                           CA       MPAC       +5
000077: 10,3633           54154                           TS       MPAC
000078:
000079: 10,3634           34753        TPMODE             CAF      ONE                                   #  MODE IS TP.
000080: 10,3635           16063                           TCF      NEWMODE
000081:
000082:                                                                                                  #  V1STO2S FOR 2 COMPONENT VECTOR. USED BY RR.
000083:
000084: 10,3636           03645        2V1STO2S           TC       1TO2SUB
000085: 10,3637           52160                           DXCH     MPAC       +3
000086: 10,3640           52155                           DXCH     MPAC
000087: 10,3641           03645                           TC       1TO2SUB
000088: 10,3642           54001                           TS       L
000089: 10,3643           30157                           CA       MPAC       +3
000090: 10,3644           16060                           TCF      SLOAD2
000091:
000092:                                                                                                  #  SUBROUTINE TO DO DOUBLING AND 1'S TO 2'S CONVERSION:
000093:
000094: 10,3645           52155        1TO2SUB            DXCH     MPAC                                  #  FINAL MPAC +1 UNSPECIFIED.
000095: 10,3646           20001                           DDOUBL
000096: 10,3647           10000                           CCS      A
000097: 10,3650           64753                           AD       ONE
000098: 10,3651           13653                           TCF      +2
000099: 10,3652           40000                           COM                                            #  THIS WAS REVERSE OF MSU.
000100:
000101: 10,3653           54154                           TS       MPAC                                  #  AND SKIP ON OVERFLOW.
000102: 10,3654           00002                           TC       Q
000103:
000104: 10,3655           50000                           INDEX    A                                     #  OVERFLOW UNCORRECT AND IN MSU.
000105: 10,3656           34734                           CAF      LIMITS
000106: 10,3657           26154                           ADS      MPAC
000107: 10,3660           00002                           TC       Q
000108:
000109:                                                                                                  #  THE FOLLOWING ROUTINE INCREMENTS IN 2'S COMPLEMENT THE REGISTER WHOSE ADDRESS IS IN BUF BY THE 1'S COMPL.
000110:                                                                                                  #  QUANTITY FOUND IN TEM2.  THIS MAY BE USED TO INCRMENT DESIRED IMU AND OPTICS CDU ANGLES OR ANY OTHER 2'S COMPL.
000111:                                                                                                  #  (+0 UNEQUAL TO -0) QUANTITY.  MAY BE CALLED BY BANKCALL/SWCALL.
000112:
000113: 10,3661           54142        CDUINC             TS       TEM2                                  #  1'S COMPL. QUANT. ARRIVES IN ACC.  STORE IT
000114: 10,3662           50130                           INDEX    BUF
000115: 10,3663           10000                           CCS      0                                     #  CHANGE 2'S COMPLE. ANGEL (IN BUF) INTO 1'S
000116: 10,3664           64753                           AD       ONE
000117: 10,3665           13671                           TCF      +4
000118: 10,3666           64753                           AD       ONE


000120: 10,3667           64753                           AD       ONE                                   #  OVEFLOW HERE IF 2'S COMPL. IS 180 DEG.
000121: 10,3670           40000                           COM
000122:
000123: 10,3671           60142                           AD       TEM2                                  #  SULT MOVES FROM 2ND TO 3D QUAD. (OR BACK)
000124: 10,3672           10000                           CCS      A                                     #  BACK TO 2'S COMPL.
000125: 10,3673           64753                           AD       ONE
000126: 10,3674           13676                           TCF      +2
000127: 10,3675           40000                           COM
000128: 10,3676           54142                           TS       TEM2                                  #  STORE 14-BIT QUANTITY WITH PRESENT SIGN
000129: 10,3677           13703                           TCF      +4
000130: 10,3700           50000                           INDEX    A                                     #  SIGN.
000131: 10,3701           34734                           CAF      LIMITS                                #  FIX IT, BY ADDING IN 37777 OR 40000
000132: 10,3702           60142                           AD       TEM2
000133:
000134: 10,3703           50130                           INDEX    BUF
000135: 10,3704           54000                           TS       0                                     #  STORE NEW ANGLE IN 2'S COMPLEMENT.
000136: 10,3705           00002                           TC       Q
000137:


000139:                                                                                                  #  RTB TO TORQUE GYROS, EXCEPT FOR THE CALL TO IMUSTALL.  ECADR OF COMMANDS ARRIVES IN X1.
000140:
000141: 10,3706           50120        PULSEIMU           INDEX    FIXLOC                                #  ADDRESS OF GYRO COMMANDS SHOULD BE IN X1
000142: 10,3707           30046                           CA       X1
000143: 10,3710           04616                           TC       BANKCALL
000144: 10,3711           17314                           CADR     IMUPULSE
000145: 10,3712           16064                           TCF      DANZIG
000146:


000148:                                                                                                  #  THE SUBROUTINE SIGNMPAC SETS C(MPAC, MPAC +1) TO SIGN(MPAC).
000149:                                                                                                  #  FOR THIS, ONLY THE CONTENTS OF MPAC ARE EXAMINED.  ALSO +0 YIELDS POSMAX AND -0 YIELDS NEGMAX.
000150:
000151:                                                                                                  #  ENTRY MAY BE BY EITHER OF THE FOLLOWING:
000152:                                                                                                  #        1.      LIMIT THE SIZE OF MPAC ON INTERPRETIVE OVERFLOW:
000153:                                                                                                  #                ENTRY:          BOVB
000154:                                                                                                  #                                        SIGNMPAC
000155:                                                                                                  #        2.      GENERATE IN MPAC THE SIGNUM FUNCTION OF MPAC:
000156:                                                                                                  #                ENTRY:          RTB
000157:                                                                                                  #                                        SIGNMPAC
000158:                                                                                                  #  IN EITHER CASE, RETURN IS TO TEH NEXT INTERPRETIVE INSTRUCTION IN THE CALLING SEQUENCE.
000159:
000160: 10,3713           00006        SIGNMPAC           EXTEND
000161: 10,3714           34733                           DCA      DPOSMAX
000162: 10,3715           52155                           DXCH     MPAC
000163: 10,3716           10000                           CCS      A
000164: 10,3717           34755        DPMODE             CAF      ZERO                                  #  SETS MPAC +2 TO ZERO IN THE PROCESS
000165: 10,3720           16062                           TCF      SLOAD2     +2
000166: 10,3721           13722                           TCF      +1
000167: 10,3722           00006                           EXTEND
000168: 10,3723           44733                           DCS      DPOSMAX
000169: 10,3724           16060                           TCF      SLOAD2
000170:
000171:                                                                                                  #  RTB OP CODE NORMUNIT IS LIKE INTERPRETIVE INSTRUCTION UNIT, EXCEPT THAT IT CAN BE DEPENDED ON NOT TO BLOW
000172:                                                                                                  #  UP WHEN THE VECTOR BEING UNITIZED IS VERY SAMLL -- IT WILL BLOW UP WHEN ALL COMPONENT ARE ZERO.  IF NORMUNIT
000173:                                                                                                  #  IS USED AND THE UPPER ORDER HALVES OF ALL COMPONENTS ARE ERO, THE MAGNITUDE RETURNS IN 36D WILL BE TOO LARGE
000174:                                                                                                  #  BY A FACTOR OF 2(13) AND THE SQURED MAGNITUDE RETURNED ATE 34D WILL BE TOO BIG BY A FACTOR OF 2(26).
000175:
000176: 10,3725           34753        NORMUNX1           CAF      ONE
000177: 10,3726           13730                           TCF      NORMUNIT   +1
000178: 10,3727           34755        NORMUNIT           CAF      ZERO
000179: 10,3730           60120                           AD       FIXLOC
000180: 10,3731           54156                           TS       MPAC       +2
000181: 10,3732           04616                           TC       BANKCALL                              #  GET SIGN AGREEMENT IN ALL COMPONENTS
000182: 10,3733           01010                           CADR     VECAGREE
000183: 10,3734           10154                           CCS      MPAC
000184: 10,3735           13771                           TCF      NOSHIFT
000185: 10,3736           13740                           TCF      +2
000186: 10,3737           13771                           TCF      NOSHIFT
000187: 10,3740           10157                           CCS      MPAC       +3
000188: 10,3741           13771                           TCF      NOSHIFT
000189: 10,3742           13744                           TCF      +2
000190: 10,3743           13771                           TCF      NOSHIFT
000191: 10,3744           10161                           CCS      MPAC       +5
000192: 10,3745           13771                           TCF      NOSHIFT
000193: 10,3746           13750                           TCF      +2
000194: 10,3747           13771                           TCF      NOSHIFT


000196: 10,3750           30155                           CA       MPAC       +1                         #  SHIFT ALL COMPONENTS LEFT 13
000197: 10,3751           00006                           EXTEND
000198: 10,3752           74736                           MP       BIT14
000199: 10,3753           20155                           DAS      MPAC                                  #  DAS GAINS A LITTLE ACCURACY
000200: 10,3754           30160                           CA       MPAC       +4
000201: 10,3755           00006                           EXTEND
000202: 10,3756           74736                           MP       BIT14
000203: 10,3757           20160                           DAS      MPAC       +3
000204: 10,3760           30162                           CA       MPAC       +6
000205: 10,3761           00006                           EXTEND
000206: 10,3762           74736                           MP       BIT14
000207: 10,3763           20162                           DAS      MPAC       +5
000208: 10,3764           34761                           CAF      THIRTEEN
000209: 10,3765           50156                           INDEX    MPAC       +2
000210: 10,3766           54045                           TS       37D
000211: 10,3767           04635        OFFTUNIT           TC       POSTJUMP
000212: 10,3770           01024                           CADR     UNIT       +1                         #  SKIP THE "TC VECAGREE" DONE AT UNIT
000213:
000214: 10,3771           34755        NOSHIFT            CAF      ZERO
000215: 10,3772           13765                           TCF      OFFTUNIT   -2
000216:
000217:                                                                                                  #  RTB VECSGNAG ... FORCES SIGN AGREEMENT OF VECTOR IN MPAC.
000218:
000219: 10,3773           04616        VECSGNAG           TC       BANKCALL
000220: 10,3774           01010                           CADR     VECAGREE
000221: 10,3775           06064                           TC       DANZIG
000222:
000223:                                                                                                  #  *** END OF SKIPPER .101 ***
000224:
000225:

End of include-file RTB_OP_CODES.agc.  Parent file is MAIN.agc


