
Source Code


000002:                                                                                                  ## Copyright:   Public domain.
000003:                                                                                                  ## Filename:    RTB_OP_CODES.agc
000004:                                                                                                  ## Purpose:     A section of Luminary 1C, revision 131.
000005:                                                                                                  ##              It is part of the source code for the Lunar Module's (LM)
000006:                                                                                                  ##              Apollo Guidance Computer (AGC) for Apollo 13.
000007:                                                                                                  ##              This file is intended to be a faithful transcription, except
000008:                                                                                                  ##              that the code format has been changed to conform to the
000009:                                                                                                  ##              requirements of the yaYUL assembler rather than the
000010:                                                                                                  ##              original YUL assembler.
000011:                                                                                                  ## Reference:   pp. 1389-1394
000012:                                                                                                  ## Contact:     Ron Burkey <info@sandroid.org>.
000013:                                                                                                  ## Website:     www.ibiblio.org/apollo/index.html
000014:                                                                                                  ## Mod history: 06/07/03 RSB.   Began transcribing.
000015:                                                                                                  ##              05/14/05 RSB    Corrected website references above.
000016:                                                                                                  ##              2017-01-06 RSB  Page numbers now agree with those on the
000017:                                                                                                  ##                              original hardcopy, as opposed to the PDF page
000018:                                                                                                  ##                              numbers in 1701.pdf.
000019:                                                                                                  ##              2017-02-28 RSB  Proofed comment text using octopus/ProoferComments.
000020:


000022: 22,3773                                           BANK     22
000023: 10,2000                                           SETLOC   RTBCODES
000024: 10,2000                                           BANK
000025:
000026: 10,3574  E5,1664                                  EBANK=   XNB
000027: 10,3574                                           COUNT*   $$/RTB
000028:
000029:                                                                                                  #  LOAD TIME2, TIME1 INTO MPAC:
000030:
000031: 10,3574           00006        LOADTIME           EXTEND
000032: 10,3575           30025                           DCA      TIME2
000033: 10,3576           16060                           TCF      SLOAD2
000034:
000035:                                                                                                  #  CONVERT THE SINGLE PRECISION 2'S COMPLEMENT NUMBER ARRIVING IN MPAC (SCALED IN HALF-REVOLUTIONS) TO A
000036:                                                                                                  #  DP 1'S COMPLEMENT NUMBER SCALED IN REVOLUTIONS.
000037:
000038: 10,3577           10154        CDULOGIC           CCS      MPAC
000039: 10,3600           34755                           CAF      ZERO
000040: 10,3601           13604                           TCF      +3
000041: 10,3602           13603                           NOOP
000042: 10,3603           44736                           CS       HALF
000043:
000044: 10,3604           54155                           TS       MPAC       +1
000045: 10,3605           34755                           CAF      ZERO
000046: 10,3606           56154                           XCH      MPAC
000047: 10,3607           00006                           EXTEND
000048: 10,3610           74736                           MP       HALF
000049: 10,3611           20155                           DAS      MPAC
000050: 10,3612           16064                           TCF      DANZIG                                #  MODE IS ALREADY AT DOUBLE-PRECISION
000051:
000052:                                                                                                  #  FORCE TP SIGN AGREEMENT IN MPAC:
000053:
000054: 10,3613           07262        SGNAGREE           TC       TPAGREE
000055: 10,3614           16064                           TCF      DANZIG
000056:
000057:                                                                                                  #  CONVERT THE DP 1'S COMPLEMENT ANGLE SCALED IN REVOLUTIONS TO A SINGLE PRECISION 2'S COMPLEMENT ANGLE
000058:                                                                                                  #  SCALED IN HALF-REVOLUTIONS.
000059:
000060: 10,3615           03645        1STO2S             TC       1TO2SUB
000061: 10,3616           34755                           CAF      ZERO
000062: 10,3617           54155                           TS       MPAC       +1
000063: 10,3620           16063                           TCF      NEWMODE
000064:
000065:                                                                                                  #  DO 1STO2S ON A VECTOR OF ANGLES:
000066:
000067: 10,3621           03645        V1STO2S            TC       1TO2SUB                               #  ANSWER ARRIVES IN A AND MPAC.
000068:
000069: 10,3622           52162                           DXCH     MPAC       +5
000070: 10,3623           52155                           DXCH     MPAC
000071: 10,3624           03645                           TC       1TO2SUB


000073: 10,3625           54156                           TS       MPAC       +2
000074:
000075: 10,3626           52160                           DXCH     MPAC       +3
000076: 10,3627           52155                           DXCH     MPAC
000077: 10,3630           03645                           TC       1TO2SUB
000078: 10,3631           54155                           TS       MPAC       +1
000079:
000080: 10,3632           30161                           CA       MPAC       +5
000081: 10,3633           54154                           TS       MPAC
000082:
000083: 10,3634           34753        TPMODE             CAF      ONE                                   #  MODE IS TP.
000084: 10,3635           16063                           TCF      NEWMODE
000085:
000086:                                                                                                  #  V1STO2S FOR 2 COMPONENT VECTOR. USED BY RR.
000087:
000088: 10,3636           03645        2V1STO2S           TC       1TO2SUB
000089: 10,3637           52160                           DXCH     MPAC       +3
000090: 10,3640           52155                           DXCH     MPAC
000091: 10,3641           03645                           TC       1TO2SUB
000092: 10,3642           54001                           TS       L
000093: 10,3643           30157                           CA       MPAC       +3
000094: 10,3644           16060                           TCF      SLOAD2
000095:
000096:                                                                                                  #  SUBROUTINE TO DO DOUBLING AND 1'S TO 2'S CONVERSION:
000097:
000098: 10,3645           52155        1TO2SUB            DXCH     MPAC                                  #  FINAL MPAC +1 UNSPECIFIED.
000099: 10,3646           20001                           DDOUBL
000100: 10,3647           10000                           CCS      A
000101: 10,3650           64753                           AD       ONE
000102: 10,3651           13653                           TCF      +2
000103: 10,3652           40000                           COM                                            #  THIS WAS REVERSE OF MSU.
000104:
000105: 10,3653           54154                           TS       MPAC                                  #  AND SKIP ON OVERFLOW.
000106: 10,3654           00002                           TC       Q
000107:
000108: 10,3655           50000                           INDEX    A                                     #  OVERFLOW UNCORRECT AND IN MSU.
000109: 10,3656           34734                           CAF      LIMITS
000110: 10,3657           26154                           ADS      MPAC
000111: 10,3660           00002                           TC       Q
000112:
000113:                                                                                                  #  THE FOLLOWING ROUTINE INCREMENTS IN 2S COMPLEMENT THE REGISTER WHOSE ADDRESS IS IN BUF BY THE 1S COMPL.
000114:                                                                                                  #  QUANTITY FOUND IN TEM2.  THIS MAY BE USED TO INCREMENT DESIRED IMU AND OPTICS CDU ANGLES OR ANY OTHER 2S COMPL.
000115:                                                                                                  #  (+0 UNEQUAL TO -0) QUANTITY.  MAY BE CALLED BY BANKCALL/SWCALL.
000116:
000117: 10,3661           54142        CDUINC             TS       TEM2                                  #  1S COMPL. QUANT. ARRIVES IN ACC.  STORE IT
000118: 10,3662           50130                           INDEX    BUF
000119: 10,3663           10000                           CCS      0                                     #  CHANGE 2S COMPL. ANGLE(IN BUF)INTO 1S
000120: 10,3664           64753                           AD       ONE
000121: 10,3665           13671                           TCF      +4
000122: 10,3666           64753                           AD       ONE


000124: 10,3667           64753                           AD       ONE                                   #  OVERFLOW HERE IF 2S COMPL. IS 180 DEG.
000125: 10,3670           40000                           COM
000126:
000127: 10,3671           60142                           AD       TEM2                                  #  SULT MOVES FROM 2ND TO 3D QUAD. (OR BACK)
000128: 10,3672           10000                           CCS      A                                     #  BACK TO 2S COMPL.
000129: 10,3673           64753                           AD       ONE
000130: 10,3674           13676                           TCF      +2
000131: 10,3675           40000                           COM
000132: 10,3676           54142                           TS       TEM2                                  #  STORE 14BIT QUANTITY WITH PRESENT SIGN
000133: 10,3677           13703                           TCF      +4
000134: 10,3700           50000                           INDEX    A                                     #  SIGN.
000135: 10,3701           34734                           CAF      LIMITS                                #  FIX IT, BY ADDING IN 37777 OR 40000
000136: 10,3702           60142                           AD       TEM2
000137:
000138: 10,3703           50130                           INDEX    BUF
000139: 10,3704           54000                           TS       0                                     #  STORE NEW ANGLE IN 2S COMPLEMENT.
000140: 10,3705           00002                           TC       Q
000141:


000143:                                                                                                  #  RTB TO TORQUE GYROS, EXCEPT FOR THE CALL TO IMUSTALL.  ECADR OF COMMANDS ARRIVES IN X1.
000144:
000145: 10,3706           50120        PULSEIMU           INDEX    FIXLOC                                #  ADDRESS OF GYRO COMMANDS SHOULD BE IN X1
000146: 10,3707           30046                           CA       X1
000147: 10,3710           04616                           TC       BANKCALL
000148: 10,3711           17314                           CADR     IMUPULSE
000149: 10,3712           16064                           TCF      DANZIG
000150:


000152:                                                                                                  #  THE SUBROUTINE  SIGNMPAC  SETS C(MPAC, MPAC +1) TO SIGN(MPAC).
000153:                                                                                                  #  FOR THIS, ONLY THE CONTENTS OF MPAC ARE EXAMINED.  ALSO +0 YIELDS POSMAX AND -0 YIELDS NEGMAX.
000154:
000155:                                                                                                  #  ENTRY MAY BE BY EITHER OF THE FOLLOWING:
000156:                                                                                                  #        1.      LIMIT THE SIZE OF MPAC ON INTERPRETIVE OVERFLOW:
000157:                                                                                                  #                ENTRY:          BOVB
000158:                                                                                                  #                                        SIGNMPAC
000159:                                                                                                  #        2.      GENERATE IN MPAC THE SIGNUM FUNCTION OF MPAC:
000160:                                                                                                  #                ENTRY:          RTB
000161:                                                                                                  #                                        SIGNMPAC
000162:                                                                                                  #  IN EITHER CASE, RETURN IS TO THE NEXT INTERPRETIVE INSTRUCTION IN THE CALLING SEQUENCE.
000163:
000164: 10,3713           00006        SIGNMPAC           EXTEND
000165: 10,3714           34733                           DCA      DPOSMAX
000166: 10,3715           52155                           DXCH     MPAC
000167: 10,3716           10000                           CCS      A
000168: 10,3717           34755        DPMODE             CAF      ZERO                                  #  SETS MPAC +2 TO ZERO IN THE PROCESS
000169: 10,3720           16062                           TCF      SLOAD2     +2
000170: 10,3721           13722                           TCF      +1
000171: 10,3722           00006                           EXTEND
000172: 10,3723           44733                           DCS      DPOSMAX
000173: 10,3724           16060                           TCF      SLOAD2
000174:
000175:                                                                                                  #  RTB OP CODE NORMUNIT IS LIKE INTERPRETIVE INSTRUCTION UNIT, EXCEPT THAT IT CAN BE DEPENDED ON NOT TO BLOW
000176:                                                                                                  #  UP WHEN THE VECTOR BEING UNITIZED IS VERY SMALL -- IT WILL BLOW UP WHEN ALL COMPONENTS ARE ZERO.  IF NORMUNIT
000177:                                                                                                  #  IS USED AND THE UPPER ORDER HALVES OF ALL COMPONENTS ARE ZERO, THE MAGNITUDE RETURNED IN 36D WILL BE TOO LARGE
000178:                                                                                                  #  BY A FACTOR OF 2(13) AND THE SQUARED MAGNITUDE RETURNED AT 34D WILL BE TOO BIG BY A FACTOR OF 2(26).
000179:
000180: 10,3725           34753        NORMUNX1           CAF      ONE
000181: 10,3726           13730                           TCF      NORMUNIT   +1
000182: 10,3727           34755        NORMUNIT           CAF      ZERO
000183: 10,3730           60120                           AD       FIXLOC
000184: 10,3731           54156                           TS       MPAC       +2
000185: 10,3732           04616                           TC       BANKCALL                              #  GET SIGN AGREEMENT IN ALL COMPONENTS
000186: 10,3733           01010                           CADR     VECAGREE
000187: 10,3734           10154                           CCS      MPAC
000188: 10,3735           13771                           TCF      NOSHIFT
000189: 10,3736           13740                           TCF      +2
000190: 10,3737           13771                           TCF      NOSHIFT
000191: 10,3740           10157                           CCS      MPAC       +3
000192: 10,3741           13771                           TCF      NOSHIFT
000193: 10,3742           13744                           TCF      +2
000194: 10,3743           13771                           TCF      NOSHIFT
000195: 10,3744           10161                           CCS      MPAC       +5
000196: 10,3745           13771                           TCF      NOSHIFT
000197: 10,3746           13750                           TCF      +2
000198: 10,3747           13771                           TCF      NOSHIFT


000200: 10,3750           30155                           CA       MPAC       +1                         #  SHIFT ALL COMPONENTS LEFT 13
000201: 10,3751           00006                           EXTEND
000202: 10,3752           74736                           MP       BIT14
000203: 10,3753           20155                           DAS      MPAC                                  #  DAS GAINS A LITTLE ACCURACY
000204: 10,3754           30160                           CA       MPAC       +4
000205: 10,3755           00006                           EXTEND
000206: 10,3756           74736                           MP       BIT14
000207: 10,3757           20160                           DAS      MPAC       +3
000208: 10,3760           30162                           CA       MPAC       +6
000209: 10,3761           00006                           EXTEND
000210: 10,3762           74736                           MP       BIT14
000211: 10,3763           20162                           DAS      MPAC       +5
000212: 10,3764           34761                           CAF      THIRTEEN
000213: 10,3765           50156                           INDEX    MPAC       +2
000214: 10,3766           54045                           TS       37D
000215: 10,3767           04635        OFFTUNIT           TC       POSTJUMP
000216: 10,3770           01024                           CADR     UNIT       +1                         #  SKIP THE "TC VECAGREE" DONE AT UNIT
000217:
000218: 10,3771           34755        NOSHIFT            CAF      ZERO
000219: 10,3772           13765                           TCF      OFFTUNIT   -2
000220:
000221:                                                                                                  #  RTB VECSGNAG ... FORCES SIGN AGREEMENT OF VECTOR IN MPAC.
000222:
000223: 10,3773           04616        VECSGNAG           TC       BANKCALL
000224: 10,3774           01010                           CADR     VECAGREE
000225: 10,3775           06064                           TC       DANZIG
000226:
000227:

End of include-file RTB_OP_CODES.agc.  Parent file is MAIN.agc


