
Source Code


000002:                                                                                                  #  Copyright:    Public domain.
000003:                                                                                                  #  Filename:     S-BAND_ANTENNA_FOR_LM.agc
000004:                                                                                                  #  Purpose:      A section of Luminary 1C, revision 131.
000005:                                                                                                  #                It is part of the source code for the Lunar Module's (LM)
000006:                                                                                                  #                Apollo Guidance Computer (AGC) for Apollo 13 and Apollo 14.
000007:                                                                                                  #                This file is intended to be a faithful transcription, except
000008:                                                                                                  #                that the code format has been changed to conform to the
000009:                                                                                                  #                requirements of the yaYUL assembler rather than the
000010:                                                                                                  #                original YUL assembler.
000011:                                                                                                  #  Reference:    pp. 495-498 of 1729.pdf.
000012:                                                                                                  #  Contact:      Ron Burkey <info@sandroid.org>.
000013:                                                                                                  #  Website:      www.ibiblio.org/apollo/index.html
000014:                                                                                                  #  Mod history:  05/14/03 RSB.   Began transcribing.
000015:                                                                                                  #                05/14/05 RSB    Corrected website references above.
000016:
000017:                                                                                                  #  Page 495
000018:                                                                                                  #  SUBROUTINE NAME: R05 -- S-BAND ANTENNA FOR LM
000019:
000020:                                                                                                  #  MOD0 BY T. JAMES
000021:                                                                                                  #  MOD1 BY P. SHAKIR
000022:
000023:                                                                                                  #  FUNCTIONAL DESCRIPTION
000024:
000025:                                                                                                  #  THE S-BAND ANTENNA ROUTINE, R05, COMPUTES AND DISPLAYS THE PITCH AND
000026:                                                                                                  #  YAW ANTENNA GIMBAL ANGLES REQUIRED TO POINT THE LM STEERABLE ANTENNA
000027:                                                                                                  #  TOWARDS THE CENTER OF THE EARTH.  THIS ROUTINE IS SELECTED BY THE ASTRO-
000028:                                                                                                  #  NAUT VIA DSKY ENTRY DURING COASTING FLIGHT OR WHEN THE LM IS ON THE MOON
000029:                                                                                                  #  SURFACE.  THE EARTH OR MOON REFERENCE COORDINATE SYSTEM IS USED DEPENDING
000030:                                                                                                  #  ON WHETHER THE LM IS ABOUT TO ENTER OR HAS ALREADY ENTERED THE MOON
000031:                                                                                                  #  SPHERE OF INFLUENCE, RESPECTIVELY.  CAN BE CALLED ANY TIME EXCEPT WHEN
000032:                                                                                                  #  ANOTHER EXTENDED VERB IS IN USE.  DISPLAY IS MEANINGLESS WITH IMU OFF.
000033:
000034:                                                                                                  #  TO CALL SUBROUTINE, ASTRONAUT KEYS IN V 64 E
000035:
000036:                                                                                                  #  SUBROUTINES CALLED ---
000037:                                                                                                  #        INTPRET
000038:                                                                                                  #        LOADTIME
000039:                                                                                                  #        LEMCONIC
000040:                                                                                                  #        LUNPOS
000041:                                                                                                  #        CDUTRIG
000042:                                                                                                  #        *SMNB*
000043:                                                                                                  #        BANKCALL
000044:                                                                                                  #        B50OFF
000045:                                                                                                  #        ENDOFJOB
000046:                                                                                                  #        BLANKRET
000047:
000048:                                                                                                  #  RETURNS WITH
000049:                                                                                                  #        PITCH ANGLE IN PITCHANG         REV. B0
000050:                                                                                                  #        YAW ANGLE IN YAWANG             REV. B0
000051:
000052:                                                                                                  #  ERASABLES USED
000053:                                                                                                  #        PITCHANG
000054:                                                                                                  #        YAWANG
000055:                                                                                                  #        RLM
000056:                                                                                                  #        VAC AREA
000057:
000058: 41,3750                                           BANK     41
000059: 42,2000                                           SETLOC   SBAND
000060: 42,2000                                           BANK
000061:
000062: 42,3606  E7,1471                                  EBANK=   WHOCARES
000063: 42,3606                                           COUNT*   $$/R05
000064: 42,3606           06042        SBANDANT           TC       INTPRET
000065:                                                                                                  #  Page 496
000066: 42,3607           47001                           SETPD    RTB
000067: 42,3610           00001                                    0D
000068: 42,3611           21574                                    LOADTIME                              #  PICK UP CURRENT TIME
000069: 42,3612           34041                           STCALL   TDEC1                                 #  ADVANCE INTEGRATION TO TIME IN TDEC1
000070: 42,3613           27077                                    LEMCONIC                              #  USING CONIC INTEGRATION
000071: 42,3614           46135                           SLOAD    BHIZ
000072: 42,3615           00050                                    X2                                    #  X2 =0 EARTH SPHERE, X2 =2 MOON SPHERE
000073: 42,3616           65634                                    CONV4
000074: 42,3617           77775                           VLOAD
000075: 42,3620           00001                                    RATT
000076: 42,3621           16205                           STODL    RLM
000077: 42,3622           00015                                    TAT
000078: 42,3623           77624        CONV3              CALL
000079: 42,3624           33647                                    LUNPOS                                #  UNIT POSITION VECTOR FROM EARTH TO MOON
000080: 42,3625           74375                           VLOAD    VXSC
000081: 42,3626           02723                                    VMOON
000082: 42,3627           24001                                    REMDIST                               #  MEAN DISTANCE FROM EARTH TO MOON
000083: 42,3630           53372                           VSL1     VAD
000084: 42,3631           02205                                    RLM
000085: 42,3632           77650                           GOTO
000086: 42,3633           65636                                    CONV5
000087: 42,3634           77775        CONV4              VLOAD
000088: 42,3635           00001                                    RATT                                  #  UE = -UNIT(RATT)              EARTH SPHERE
000089: 42,3636           53401        CONV5              SETPD    UNIT                                  #  UE = -UNIT(REM)(UEM)          MOON SPHERE
000090: 42,3637           00001                                    0D                                    #  SET PL POINTER TO 0
000091: 42,3640           45076                           VCOMP    CALL
000092: 42,3641           47541                                    CDUTRIG                               #  COMPUTE SINES AND COSINES OF CDU ANGLES
000093: 42,3642           76521                           MXV      VSL1                                  #  TRANSFORM REF. COORDINATE SYSTEM TO
000094: 42,3643           01734                                    REFSMMAT                              #  STABLE MEMBER B-1 X B-1 X B+1 = B-1
000095: 42,3644           71206                           PUSH     DLOAD                                 #  8D
000096: 42,3645           06524                                    HI6ZEROS
000097: 42,3646           02201                           STORE    PITCHANG
000098: 42,3647           26203                           STOVL    YAWANG                                #  ZERO OUT ANGLES
000099: 42,3650           77624                           CALL
000100: 42,3651           47673                                    *SMNB*
000101: 42,3652           16205                           STODL    RLM                                   #  PRE-MULTIPLY RLM BY (NBSA) MATRIX(B0) (garbled)
000102: 42,3653           02207                                    RLM        +2
000103: 42,3654           45206                           PUSH     DSU
000104: 42,3655           02205                                    RLM
000105: 42,3656           77605                           DMP
000106: 42,3657           25767                                    1OVSQRT2
000107: 42,3660           16207                           STODL    RLM        +2
000108: 42,3661           41215                           DAD      DMP
000109: 42,3662           02205                                    RLM
000110: 42,3663           25767                                    1OVSQRT2
000111: 42,3664           26205                           STOVL    RLM                                   #  R B-1
000112: 42,3665           02205                                    RLM
000113: 42,3666           63256                           UNIT     PDVL
000114: 42,3667           02205                                    RLM
000115: 42,3670           72431                           VPROJ    VSL2                                  #  PROJECTION OF R ONTO LM XZ PLANE.
000116:                                                                                                  #  Page 497
000117: 42,3671           06520                                    HIUNITY
000118: 42,3672           40045                           BVSU     BOV                                   #  CLEAR OVERFLOW INDICATOR IF ON
000119: 42,3673           02205                                    RLM
000120: 42,3674           65675                                    COVCNV
000121: 42,3675           40056        COVCNV             UNIT     BOV                                   #  EXIT ON OVERFLOW
000122: 42,3676           65743                                    SBANDEX
000123: 42,3677           47206                           PUSH     VXV                                   #  URP VECTOR B-1
000124: 42,3700           06516                                    HIUNITZ
000125: 42,3701           57572                           VSL1     VCOMP                                 #  UZ X URP = -(URP X UZ)
000126: 42,3702           02205                           STORE    RLM                                   #  X VEC B-1
000127: 42,3703           63241                           DOT      PDVL                                  #  SGN(X.UY) UNSCALED
000128: 42,3704           06520                                    HIUNITY
000129: 42,3705           02205                                    RLM
000130: 42,3706           75246                           ABVAL    SIGN
000131: 42,3707           77736                           ASIN                                           #  ASIN((SGN(X.UY))ABV(X))       REV B0
000132: 42,3710           26201                           STOVL    PITCHANG
000133: 42,3711           00007                                    URP
000134: 42,3712           51041                           DOT      BPL
000135: 42,3713           06516                                    HIUNITZ
000136: 42,3714           65721                                    NOADJUST                              #  YES, -90 TO +90
000137: 42,3715           45345                           DLOAD    DSU
000138: 42,3716           06522                                    HIDPHALF
000139: 42,3717           02201                                    PITCHANG
000140: 42,3720           02201                           STORE    PITCHANG
000141: 42,3721           47375        NOADJUST           VLOAD    VXV
000142: 42,3722           00001                                    UR                                    #  Z = (UR X URP)
000143: 42,3723           00007                                    URP
000144: 42,3724           77772                           VSL1
000145: 42,3725           16205                           STODL    RLM                                   #  Z VEC B-1
000146: 42,3726           02201                                    PITCHANG
000147: 42,3727           74356                           SIN      VXSC
000148: 42,3730           06516                                    HIUNITZ
000149: 42,3731           71525                           PDDL     COS
000150: 42,3732           02201                                    PITCHANG
000151: 42,3733           52361                           VXSC     VSU
000152: 42,3734           06522                                    HIUNITX                               #  (UX COS ALPHA) - (UZ SIN ALPHA)
000153: 42,3735           63241                           DOT      PDVL                                  #  YAW.Z
000154: 42,3736           02205                                    RLM
000155: 42,3737           02205                                    RLM
000156: 42,3740           75246                           ABVAL    SIGN
000157: 42,3741           77736                           ASIN
000158: 42,3742           02203                           STORE    YAWANG
000159: 42,3743           77776        SBANDEX            EXIT
000160: 42,3744           31043                           CA       EXTVBACT
000161: 42,3745           74747                           MASK     BIT5                                  #  IS BIT5 STILL ON
000162: 42,3746           00006                           EXTEND
000163: 42,3747           15472                           BZF      ENDEXT                                #  NO
000164: 42,3750           35017                           CAF      PRIO5
000165: 42,3751           05146                           TC       PRIOCHNG
000166: 42,3752           33765                           CAF      V06N51                                #  DISPLAY ANGLES
000167:                                                                                                  #  Page 498
000168: 42,3753           04616                           TC       BANKCALL
000169: 42,3754           20353                           CADR     GOMARKFR
000170: 42,3755           05563                           TC       B5OFF                                 #  TERMINATE
000171: 42,3756           05563                           TC       B5OFF                                 #  PROCEED
000172: 42,3757           05155                           TC       ENDOFJOB                              #  RECYCLE
000173: 42,3760           34751                           CAF      BIT3                                  #  IMMEDIATE RETURN
000174: 42,3761           05464                           TC       BLANKET                               #  BLANK R3
000175: 42,3762           34740                           CAF      PRIO4
000176: 42,3763           05146                           TC       PRIOCHNG
000177: 42,3764           03606                           TC       SBANDANT                              #  YES, CONTINUE DISPLAYING ANGLES.
000178: 42,3765           01463        V06N51             VN       0651
000179: 42,3766           26501 07463  1OVSQRT2           2DEC     .7071067815                            #  1/SQRT(2)
000180:
000181: 42,3770                        UR                 EQUALS   0D
000182: 42,3770                        URP                EQUALS   6D
000183: 42,3770  30,2000                                  SBANK=   LOWSUPER
000184:
000185:                                                                                                  #  END OF LEMONAID.104 ***
000186:

End of include-file S-BAND_ANTENNA_FOR_LM.agc.  Parent file is MAIN.agc


