
Source Code


000002:                                                                                                  #  Copyright:    Public domain.
000003:                                                                                                  #  Filename:     SERVICE_ROUTINES.agc
000004:                                                                                                  #  Purpose:      A section of Luminary 1C, revision 131.
000005:                                                                                                  #                It is part of the source code for the Lunar Module's (LM)
000006:                                                                                                  #                Apollo Guidance Computer (AGC) for Apollo 13 and Apollo 14.
000007:                                                                                                  #                This file is intended to be a faithful transcription, except
000008:                                                                                                  #                that the code format has been changed to conform to the
000009:                                                                                                  #                requirements of the yaYUL assembler rather than the
000010:                                                                                                  #                original YUL assembler.
000011:                                                                                                  #  Reference:    pp. 1371-1377 of 1729.pdf.
000012:                                                                                                  #  Contact:      Ron Burkey <info@sandroid.org>.
000013:                                                                                                  #  Website:      www.ibiblio.org/apollo/index.html
000014:                                                                                                  #  Mod history:  06/06/03 RSB.   Began transcribing.
000015:                                                                                                  #                05/14/05 RSB    Corrected website references above.
000016:
000017:                                                                                                  #  Page 1371
000018: 10,3545                                           BANK     10
000019: 10,2000                                           SETLOC   DISPLAYS
000020: 10,2000                                           BANK
000021: 10,3545                                           COUNT*   $$/DSPLA
000022:
000023: 10,3545           00004        UPENT2             INHINT
000024: 10,3546           75650                           MASK     OCT77770
000025: 10,3547           54001                           TS       L
000026: 10,3550           40100                           CS       FLAGWRD4
000027: 10,3551           70001                           MASK     L
000028: 10,3552           26100                           ADS      FLAGWRD4
000029: 10,3553           00003        JOIN               RELINT
000030: 10,3554           16742                           TCF      Q+1
000031:
000032: 10,3555           00004        DOWNENT2           INHINT
000033: 10,3556           75650                           MASK     OCT77770
000034: 10,3557           40000                           COM
000035: 10,3560           70100                           MASK     FLAGWRD4
000036: 10,3561           54100                           TS       FLAGWRD4
000037: 10,3562           13553                           TCF      JOIN
000038:
000039: 10,3563     4757               OCT7               EQUALS   SEVEN
000040:
000041:                                                                                                  #  Page 1372
000042:                                                                                                  #  UPFLAG AND DOWNFLAG ARE ENTIRELY GENERAL FLAG SETTING AND CLEARING SUBROUTINES.  USING THEM, WHETHER OR
000043:                                                                                                  #  NOT IN INTERRUPT, ONE MAY SET OR CLEAR ANY SINGLE, NAMED BIT IN ANY ERASABLE REGISTER, SUBJECT OF COURSE TO
000044:                                                                                                  #  EBANK SETTING.  A "NAMED" BIT, AS THE WORD IS USED HERE, IS ANY BIT WITH A NAME FORMALLY ASSIGNED BY THE YUL
000045:                                                                                                  #  ASSEMBLER.
000046:
000047:                                                                                                  #  AT PRESENT THE ONLY NAMED BITS ARE THOSE IN THE FLAGWORDS.  ASSEMBLER CHANGES WILL MAKE IT POSSIBLE TO
000048:                                                                                                  #  NAME ANY BIT IN ERASABLE MEMORY.
000049:
000050:                                                                                                  #  CALLING SEQUENCES ARE AS FOLLOWS --
000051:                                                                                                  #                TC      UPFLAG                  TC      DOWNFLAG
000052:                                                                                                  #                ADRES   NAME OF FLAG            ADRES   NAME OF FLAG
000053:
000054:                                                                                                  #  RETURN IS TO THE LOCATION FOLLOWING THE "ADRES" ABOUT .58 MS AFTER THE "TC".
000055:                                                                                                  #  UPON RETURN A CONTAINS THE CURRENT FLAGWRD SETTING.
000056:
000057:    5504                                           BLOCK    02
000058:    4000                                           SETLOC   FFTAG1
000059:    4000                                           BANK
000060:    5504                                           COUNT*   $$/FLAG
000061:
000062:    5504           30002        UPFLAG             CA       Q
000063:    5505           05522                           TC       DEBIT
000064:    5506           40000                           COM                                            #  +(15 - BIT)
000065:    5507           00006                           EXTEND
000066:    5510           04001                           ROR      LCHAN                                 #  SET BIT
000067:    5511           50061        COMFLAG            INDEX    ITEMP1
000068:    5512           54074                           TS       FLAGWRD0
000069:    5513           22063                           LXCH     ITEMP3
000070:    5514           00003                           RELINT
000071:    5515           00001                           TC       L
000072:
000073:    5516           30002        DOWNFLAG           CA       Q
000074:    5517           05522                           TC       DEBIT
000075:    5520           70001                           MASK     L                                     #  RESET BIT
000076:    5521           15511                           TCF      COMFLAG
000077:
000078:    5522           64753        DEBIT              AD       ONE                                   #  CET DE BITS
000079:    5523           00004                           INHINT
000080:    5524           54063                           TS       ITEMP3
000081:    5525           34762                           CA       LOW4                                  #  DEC15
000082:    5526           54061                           TS       ITEMP1
000083:    5527           50063                           INDEX    ITEMP3
000084:    5530           27777                           CA       0          -1                         #  ADRES
000085:    5531           54001                           TS       L
000086:    5532           34755                           CA       ZERO
000087:                                                                                                  #  Page 1373
000088:    5533           00006                           EXTEND
000089:    5534           10061                           DV       ITEMP1                                #  A = FLAGWRD, L = (15 - BIT)
000090:    5535           52062                           DXCH     ITEMP1
000091:    5536           50061                           INDEX    ITEMP1
000092:    5537           30074                           CA       FLAGWRD0
000093:    5540           54001                           TS       L                                     #  CURRENT STATE
000094:    5541           50062                           INDEX    ITEMP2
000095:    5542           44735                           CS       BIT15                                 #  -(15 - BIT)
000096:    5543           00002                           TC       Q
000097:
000098:                                                                                                  #  Page 1374
000099:                                                                                                  #  DELAYJOB -- A GENERAL ROUTINE TO DELAY A JOB A SPECIFIC AMOUNT OF TIME BEFORE PICKING UP AGAIN.
000100:
000101:                                                                                                  #  ENTRANCE REQUIREMENTS ...
000102:                                                                                                  #                CAF     DT              # DELAY JOB FOR DT CENTISECS
000103:                                                                                                  #                TC      BANKCALL
000104:                                                                                                  #                CADR    DELAYJOB
000105:
000106: 06,3772                                           BANK     06
000107: 00,2000                                           SETLOC   DLAYJOB
000108: 00,2000                                           BANK
000109:
000110:                                                                                                  #  THIS MUST REMAIN IN BANK 0 ****************************************
000111:
000112: 00,3735                                           COUNT*   $$/DELAY
000113: 00,3735           35000        2SECDELY           CAF      2SECS
000114: 00,3736           00004        DELAYJOB           INHINT
000115: 00,3737           54002                           TS       Q                                     #  STORE DELAY DT IN Q FOR DLY -1 IN
000116: 00,3740           34752                           CAF      DELAYNUM                              #  WAITLIST
000117: 00,3741           54070        DELLOOP            TS       RUPTREG1
000118: 00,3742           50000                           INDEX    A
000119: 00,3743           31323                           CA       DELAYLOC                              #  IS THIS DELAYLOC AVAILABLE
000120: 00,3744           00006                           EXTEND
000121: 00,3745           13753                           BZF      OK2DELAY                              #  YES
000122:
000123: 00,3746           10070                           CCS      RUPTREG1                              #  NO, TRY NEXT DELAYLOC
000124: 00,3747           13741                           TCF      DELLOOP
000125:
000126: 00,3750           52134                           DXCH     BUF2
000127: 00,3751           05706                           TC       BAILOUT1                              #  NO AVAILABLE LOCS.
000128: 00,3752           31104                           OCT      31104
000129:
000130: 00,3753           33773        OK2DELAY           CA       TCSLEEP                               #  SET WAITLIST IMMEDIATE RETURN
000131: 00,3754           54061                           TS       WAITEXIT
000132:
000133: 00,3755           30004                           CA       FBANK
000134: 00,3756           60070                           AD       RUPTREG1                              #  STORE BBANK FOR TASK CALL
000135: 00,3757           54001                           TS       L
000136:
000137: 00,3760           33774                           CAF      WAKECAD                               #  STORE CADR FOR TASK CALL
000138: 00,3761           15211                           TCF      DLY2       -1                         #  DLY IS IN WAITLIST ROUTINE
000139:
000140: 00,3762           04645        TCGETCAD           TC       MAKECADR                              #  GET CALLER'S FCADR
000141:
000142: 00,3763           50070                           INDEX    RUPTREG1
000143: 00,3764           55323                           TS       DELAYLOC                              #  SAVE DELAY CADRS
000144:
000145: 00,3765           05133                           TC       JOBSLEEP
000146:
000147: 00,3766           34755        WAKER              CAF      ZERO
000148: 00,3767           50006                           INDEX    BBANK
000149:                                                                                                  #  Page 1375
000150: 00,3770           57323                           XCH      DELAYLOC                              #  MAKE DELAYLOC AVAILABLE
000151: 00,3771           05137                           TC       JOBWAKE
000152:
000153: 00,3772           05261                           TC       TASKOVER
000154:
000155: 00,3773           03760        TCSLEEP            GENADR   TCGETCAD   -2
000156: 00,3774           03766        WAKECAD            GENADR   WAKER
000157:
000158:                                                                                                  #  Page 1376
000159:                                                                                                  #  GENTRAN, A BLOCK TRANSFER ROUTINE
000160:                                                                                                  #  WRITTEN BY D. EYLES
000161:                                                                                                  #  MOD 1 BY KERNAN                               UTILITYM REV 17 11/18/67
000162:                                                                                                  #  MOD 2 BY SCHULENBERG -- (REMOVE RELINT) -- SKIPPER REV 4 2/28/68
000163:
000164:                                                                                                  #  THIS ROUTINE IS USEFUL FOR TRANSFERRING N CONSECUTIVE ERASABLE OR FIXED QUANTITIES TO SOME OTHER N
000165:                                                                                                  #  CONSECUTIVE ERASABLE LOCATIONS.  IF BOTH BLOCKS OF DATA ARE IN SWITCHABLE EBANKS, THEY MUST BE IN THE SAME ONE.
000166:
000167:                                                                                                  #  GENTRAN IS CALLABLE IN A JOB AS WELL AS A RUPT.  THE CALLING SEQUENCE IS:
000168:                                                                                                  #        I       CA      N-1             # NUMBER OF QUANTITIES MINUS ONE.
000169:                                                                                                  #        I +1    TC      GENTRAN         # IN FIXED-FIXED.
000170:                                                                                                  #        I +2    ADRES   L               # STARTING ADRES OF DATA TO BE MOVED.
000171:                                                                                                  #        I +3    ADRES   M               # STARTING ADRES OF DUPLICATION BLOCK.
000172:                                                                                                  #        I +4                            # RETURNS HERE.
000173:
000174:                                                                                                  #  GENTRAN TAKES 25 MCT'S (300 MICROSECONDS) PER ITEM + 5 MCT'S (60 MICS) FOR ENTERING AND EXITING.
000175:                                                                                                  #  A, L, AND ITEMP1 ARE NOT PRESERVED.
000176:
000177:    5544                                           BLOCK    02
000178:    4000                                           SETLOC   FFTAG4
000179:    4000                                           BANK
000180:
000181:    5544     0061                                  EBANK=   ITEMP1
000182:
000183:    5544                                           COUNT*   $$/TRAN
000184:
000185:    5544           00004        GENTRAN            INHINT
000186:    5545           54061                           TS       ITEMP1                                #  SAVE N-1
000187:    5546           50002                           INDEX    Q                                     #  C(Q) = ADRES L.
000188:    5547           60000                           AD       0                                     #  ADRES (L + N - 1).
000189:    5550           50000                           INDEX    A
000190:    5551           30000                           CA       0                                     #  C(ABOVE).
000191:    5552           54001                           TS       L                                     #  SAVE DATA.
000192:    5553           30061                           CA       ITEMP1
000193:    5554           50002                           INDEX    Q
000194:    5555           60001                           AD       1                                     #  ADRES (M + N - 1).
000195:    5556           50000                           INDEX    A
000196:    5557           22000                           LXCH     0                                     #  STUFF IT.
000197:    5560           10061                           CCS      ITEMP1                                #  LOOP UNTIL N-1 = 0.
000198:    5561           15545                           TCF      GENTRAN    +1
000199:    5562           16744                           TCF      Q+2                                   #  RETURN TO CALLER.
000200:
000201:                                                                                                  #  Page 1377
000202:                                                                                                  #  B5OFF         ZERO BIT 5 OF EXTVBACK, WHICH IS SET BY TESTXACT.
000203:                                                                                                  #  MAY BE USED AS NEEDED BY ANY EXTENDED VERB WHICH HAS DONE TESTXACT
000204:
000205:    5563                                           COUNT*   $$/EXTVB
000206:
000207:    5563           44747        B5OFF              CS       BIT5
000208:    5564           71043                           MASK     EXTVBACT
000209:    5565           55043                           TS       EXTVBACT
000210:    5566           05155                           TC       ENDOFJOB
000211:
000212:
000213:

End of include-file SERVICE_ROUTINES.agc.  Parent file is MAIN.agc


