
Source Code
000001:                                                                                                 #  Copyright:     Public domain.
000002:                                                                                                 #  Filename:      SERVICE_ROUTINES.agc
000003:                                                                                                 #  Purpose:       A section of Luminary 1C, revision 131.
000004:                                                                                                 #                 It is part of the source code for the Lunar Module's (LM)
000005:                                                                                                 #                 Apollo Guidance Computer (AGC) for Apollo 13 and Apollo 14.
000006:                                                                                                 #                 This file is intended to be a faithful transcription, except
000007:                                                                                                 #                 that the code format has been changed to conform to the
000008:                                                                                                 #                 requirements of the yaYUL assembler rather than the
000009:                                                                                                 #                 original YUL assembler.
000010:                                                                                                 #  Reference:     pp. 1371-1377 of 1729.pdf.
000011:                                                                                                 #  Contact:       Ron Burkey <info@sandroid.org>.
000012:                                                                                                 #  Website:       www.ibiblio.org/apollo/index.html
000013:                                                                                                 #  Mod history:   06/06/03 RSB.   Began transcribing.
000014:                                                                                                 #                 05/14/05 RSB    Corrected website references above.
000015:
000016:                                                                                                 #  Page 1371
000017: 10,3545                                          BANK     10
000018: 10,2000                                          SETLOC   DISPLAYS
000019: 10,2000                                          BANK
000020: 10,3545                                          COUNT*   $$/DSPLA
000021:
000022: 10,3545           00004        UPENT2            INHINT
000023: 10,3546           75650                          MASK     OCT77770
000024: 10,3547           54001                          TS       L
000025: 10,3550           40100                          CS       FLAGWRD4
000026: 10,3551           70001                          MASK     L
000027: 10,3552           26100                          ADS      FLAGWRD4
000028: 10,3553           00003        JOIN              RELINT
000029: 10,3554           16742                          TCF      Q+1
000030:
000031: 10,3555           00004        DOWNENT2          INHINT
000032: 10,3556           75650                          MASK     OCT77770
000033: 10,3557           40000                          COM
000034: 10,3560           70100                          MASK     FLAGWRD4
000035: 10,3561           54100                          TS       FLAGWRD4
000036: 10,3562           13553                          TCF      JOIN
000037:
000038: 10,3563     4757               OCT7              EQUALS   SEVEN
000039:
000040:                                                                                                 #  Page 1372
000041:                                                                                                 #  UPFLAG AND DOWNFLAG ARE ENTIRELY GENERAL FLAG SETTING AND CLEARING SUBROUTINES.  USING THEM, WHETHER OR
000042:                                                                                                 #  NOT IN INTERRUPT, ONE MAY SET OR CLEAR ANY SINGLE, NAMED BIT IN ANY ERASABLE REGISTER, SUBJECT OF COURSE TO
000043:                                                                                                 #  EBANK SETTING.  A "NAMED" BIT, AS THE WORD IS USED HERE, IS ANY BIT WITH A NAME FORMALLY ASSIGNED BY THE YUL
000044:                                                                                                 #  ASSEMBLER.
000045:
000046:                                                                                                 #  AT PRESENT THE ONLY NAMED BITS ARE THOSE IN THE FLAGWORDS.  ASSEMBLER CHANGES WILL MAKE IT POSSIBLE TO
000047:                                                                                                 #  NAME ANY BIT IN ERASABLE MEMORY.
000048:
000049:                                                                                                 #  CALLING SEQUENCES ARE AS FOLLOWS --
000050:                                                                                                 #                 TC      UPFLAG                  TC      DOWNFLAG
000051:                                                                                                 #                 ADRES   NAME OF FLAG            ADRES   NAME OF FLAG
000052:
000053:                                                                                                 #  RETURN IS TO THE LOCATION FOLLOWING THE "ADRES" ABOUT .58 MS AFTER THE "TC".
000054:                                                                                                 #  UPON RETURN A CONTAINS THE CURRENT FLAGWRD SETTING.
000055:
000056:    5504                                          BLOCK    02
000057:    4000                                          SETLOC   FFTAG1
000058:    4000                                          BANK
000059:    5504                                          COUNT*   $$/FLAG
000060:
000061:    5504           30002        UPFLAG            CA       Q
000062:    5505           05522                          TC       DEBIT
000063:    5506           40000                          COM                                            #  +(15 - BIT)
000064:    5507           00006                          EXTEND
000065:    5510           04001                          ROR      LCHAN                                 #  SET BIT
000066:    5511           50061        COMFLAG           INDEX    ITEMP1
000067:    5512           54074                          TS       FLAGWRD0
000068:    5513           22063                          LXCH     ITEMP3
000069:    5514           00003                          RELINT
000070:    5515           00001                          TC       L
000071:
000072:    5516           30002        DOWNFLAG          CA       Q
000073:    5517           05522                          TC       DEBIT
000074:    5520           70001                          MASK     L                                     #  RESET BIT
000075:    5521           15511                          TCF      COMFLAG
000076:
000077:    5522           64753        DEBIT             AD       ONE                                   #  CET DE BITS
000078:    5523           00004                          INHINT
000079:    5524           54063                          TS       ITEMP3
000080:    5525           34762                          CA       LOW4                                  #  DEC15
000081:    5526           54061                          TS       ITEMP1
000082:    5527           50063                          INDEX    ITEMP3
000083:    5530           27777                          CA       0          -1                         #  ADRES
000084:    5531           54001                          TS       L
000085:    5532           34755                          CA       ZERO
000086:                                                                                                 #  Page 1373
000087:    5533           00006                          EXTEND
000088:    5534           10061                          DV       ITEMP1                                #  A = FLAGWRD, L = (15 - BIT)
000089:    5535           52062                          DXCH     ITEMP1
000090:    5536           50061                          INDEX    ITEMP1
000091:    5537           30074                          CA       FLAGWRD0
000092:    5540           54001                          TS       L                                     #  CURRENT STATE
000093:    5541           50062                          INDEX    ITEMP2
000094:    5542           44735                          CS       BIT15                                 #  -(15 - BIT)
000095:    5543           00002                          TC       Q
000096:
000097:                                                                                                 #  Page 1374
000098:                                                                                                 #  DELAYJOB -- A GENERAL ROUTINE TO DELAY A JOB A SPECIFIC AMOUNT OF TIME BEFORE PICKING UP AGAIN.
000099:
000100:                                                                                                 #  ENTRANCE REQUIREMENTS ...
000101:                                                                                                 #                 CAF     DT              # DELAY JOB FOR DT CENTISECS
000102:                                                                                                 #                 TC      BANKCALL
000103:                                                                                                 #                 CADR    DELAYJOB
000104:
000105: 06,3772                                          BANK     06
000106: 00,2000                                          SETLOC   DLAYJOB
000107: 00,2000                                          BANK
000108:
000109:                                                                                                 #  THIS MUST REMAIN IN BANK 0 ****************************************
000110:
000111: 00,3735                                          COUNT*   $$/DELAY
000112: 00,3735           35000        2SECDELY          CAF      2SECS
000113: 00,3736           00004        DELAYJOB          INHINT
000114: 00,3737           54002                          TS       Q                                     #  STORE DELAY DT IN Q FOR DLY -1 IN
000115: 00,3740           34752                          CAF      DELAYNUM                              #  WAITLIST
000116: 00,3741           54070        DELLOOP           TS       RUPTREG1
000117: 00,3742           50000                          INDEX    A
000118: 00,3743           31323                          CA       DELAYLOC                              #  IS THIS DELAYLOC AVAILABLE
000119: 00,3744           00006                          EXTEND
000120: 00,3745           13753                          BZF      OK2DELAY                              #  YES
000121:
000122: 00,3746           10070                          CCS      RUPTREG1                              #  NO, TRY NEXT DELAYLOC
000123: 00,3747           13741                          TCF      DELLOOP
000124:
000125: 00,3750           52134                          DXCH     BUF2
000126: 00,3751           05706                          TC       BAILOUT1                              #  NO AVAILABLE LOCS.
000127: 00,3752           31104                          OCT      31104
000128:
000129: 00,3753           33773        OK2DELAY          CA       TCSLEEP                               #  SET WAITLIST IMMEDIATE RETURN
000130: 00,3754           54061                          TS       WAITEXIT
000131:
000132: 00,3755           30004                          CA       FBANK
000133: 00,3756           60070                          AD       RUPTREG1                              #  STORE BBANK FOR TASK CALL
000134: 00,3757           54001                          TS       L
000135:
000136: 00,3760           33774                          CAF      WAKECAD                               #  STORE CADR FOR TASK CALL
000137: 00,3761           15211                          TCF      DLY2       -1                         #  DLY IS IN WAITLIST ROUTINE
000138:
000139: 00,3762           04645        TCGETCAD          TC       MAKECADR                              #  GET CALLER'S FCADR
000140:
000141: 00,3763           50070                          INDEX    RUPTREG1
000142: 00,3764           55323                          TS       DELAYLOC                              #  SAVE DELAY CADRS
000143:
000144: 00,3765           05133                          TC       JOBSLEEP
000145:
000146: 00,3766           34755        WAKER             CAF      ZERO
000147: 00,3767           50006                          INDEX    BBANK
000148:                                                                                                 #  Page 1375
000149: 00,3770           57323                          XCH      DELAYLOC                              #  MAKE DELAYLOC AVAILABLE
000150: 00,3771           05137                          TC       JOBWAKE
000151:
000152: 00,3772           05261                          TC       TASKOVER
000153:
000154: 00,3773           03760        TCSLEEP           GENADR   TCGETCAD   -2
000155: 00,3774           03766        WAKECAD           GENADR   WAKER
000156:
000157:                                                                                                 #  Page 1376
000158:                                                                                                 #  GENTRAN, A BLOCK TRANSFER ROUTINE
000159:                                                                                                 #  WRITTEN BY D. EYLES
000160:                                                                                                 #  MOD 1 BY KERNAN                                UTILITYM REV 17 11/18/67
000161:                                                                                                 #  MOD 2 BY SCHULENBERG -- (REMOVE RELINT) -- SKIPPER REV 4 2/28/68
000162:
000163:                                                                                                 #  THIS ROUTINE IS USEFUL FOR TRANSFERRING N CONSECUTIVE ERASABLE OR FIXED QUANTITIES TO SOME OTHER N
000164:                                                                                                 #  CONSECUTIVE ERASABLE LOCATIONS.  IF BOTH BLOCKS OF DATA ARE IN SWITCHABLE EBANKS, THEY MUST BE IN THE SAME ONE.
000165:
000166:                                                                                                 #  GENTRAN IS CALLABLE IN A JOB AS WELL AS A RUPT.  THE CALLING SEQUENCE IS:
000167:                                                                                                 #         I       CA      N-1             # NUMBER OF QUANTITIES MINUS ONE.
000168:                                                                                                 #         I +1    TC      GENTRAN         # IN FIXED-FIXED.
000169:                                                                                                 #         I +2    ADRES   L               # STARTING ADRES OF DATA TO BE MOVED.
000170:                                                                                                 #         I +3    ADRES   M               # STARTING ADRES OF DUPLICATION BLOCK.
000171:                                                                                                 #         I +4                            # RETURNS HERE.
000172:
000173:                                                                                                 #  GENTRAN TAKES 25 MCT'S (300 MICROSECONDS) PER ITEM + 5 MCT'S (60 MICS) FOR ENTERING AND EXITING.
000174:                                                                                                 #  A, L, AND ITEMP1 ARE NOT PRESERVED.
000175:
000176:    5544                                          BLOCK    02
000177:    4000                                          SETLOC   FFTAG4
000178:    4000                                          BANK
000179:
000180:    5544     0061                                 EBANK=   ITEMP1
000181:
000182:    5544                                          COUNT*   $$/TRAN
000183:
000184:    5544           00004        GENTRAN           INHINT
000185:    5545           54061                          TS       ITEMP1                                #  SAVE N-1
000186:    5546           50002                          INDEX    Q                                     #  C(Q) = ADRES L.
000187:    5547           60000                          AD       0                                     #  ADRES (L + N - 1).
000188:    5550           50000                          INDEX    A
000189:    5551           30000                          CA       0                                     #  C(ABOVE).
000190:    5552           54001                          TS       L                                     #  SAVE DATA.
000191:    5553           30061                          CA       ITEMP1
000192:    5554           50002                          INDEX    Q
000193:    5555           60001                          AD       1                                     #  ADRES (M + N - 1).
000194:    5556           50000                          INDEX    A
000195:    5557           22000                          LXCH     0                                     #  STUFF IT.
000196:    5560           10061                          CCS      ITEMP1                                #  LOOP UNTIL N-1 = 0.
000197:    5561           15545                          TCF      GENTRAN    +1
000198:    5562           16744                          TCF      Q+2                                   #  RETURN TO CALLER.
000199:
000200:                                                                                                 #  Page 1377
000201:                                                                                                 #  B5OFF          ZERO BIT 5 OF EXTVBACK, WHICH IS SET BY TESTXACT.
000202:                                                                                                 #  MAY BE USED AS NEEDED BY ANY EXTENDED VERB WHICH HAS DONE TESTXACT
000203:
000204:    5563                                          COUNT*   $$/EXTVB
000205:
000206:    5563           44747        B5OFF             CS       BIT5
000207:    5564           71043                          MASK     EXTVBACT
000208:    5565           55043                          TS       EXTVBACT
000209:    5566           05155                          TC       ENDOFJOB
000210:
000211:
000212:

End of include-file SERVICE_ROUTINES.agc.  Parent file is MAIN.agc


