
Source Code


000002:                                                                                                  ## Copyright:   Public domain.
000003:                                                                                                  ## Filename:    SERVICE_ROUTINES.agc
000004:                                                                                                  ## Purpose:     A section of Luminary 1C, revision 131.
000005:                                                                                                  ##              It is part of the source code for the Lunar Module's (LM)
000006:                                                                                                  ##              Apollo Guidance Computer (AGC) for Apollo 13.
000007:                                                                                                  ##              This file is intended to be a faithful transcription, except
000008:                                                                                                  ##              that the code format has been changed to conform to the
000009:                                                                                                  ##              requirements of the yaYUL assembler rather than the
000010:                                                                                                  ##              original YUL assembler.
000011:                                                                                                  ## Reference:   pp. 1366-1372
000012:                                                                                                  ## Contact:     Ron Burkey <info@sandroid.org>.
000013:                                                                                                  ## Website:     www.ibiblio.org/apollo/index.html
000014:                                                                                                  ## Mod history: 06/06/03 RSB.   Began transcribing.
000015:                                                                                                  ##              05/14/05 RSB    Corrected website references above.
000016:                                                                                                  ##              2017-01-06 RSB  Page numbers now agree with those on the
000017:                                                                                                  ##                              original hardcopy, as opposed to the PDF page
000018:                                                                                                  ##                              numbers in 1701.pdf.
000019:                                                                                                  ##              2017-02-28 RSB  Proofed comment text using octopus/ProoferComments.
000020:                                                                                                  ##              2017-03-01 RSB  Fixed lingering comment-text typos.
000021:


000023: 10,3545                                           BANK     10
000024: 10,2000                                           SETLOC   DISPLAYS
000025: 10,2000                                           BANK
000026: 10,3545                                           COUNT*   $$/DSPLA
000027:
000028: 10,3545           00004        UPENT2             INHINT
000029: 10,3546           75650                           MASK     OCT77770
000030: 10,3547           54001                           TS       L
000031: 10,3550           40100                           CS       FLAGWRD4
000032: 10,3551           70001                           MASK     L
000033: 10,3552           26100                           ADS      FLAGWRD4
000034: 10,3553           00003        JOIN               RELINT
000035: 10,3554           16742                           TCF      Q+1
000036:
000037: 10,3555           00004        DOWNENT2           INHINT
000038: 10,3556           75650                           MASK     OCT77770
000039: 10,3557           40000                           COM
000040: 10,3560           70100                           MASK     FLAGWRD4
000041: 10,3561           54100                           TS       FLAGWRD4
000042: 10,3562           13553                           TCF      JOIN
000043:
000044: 10,3563     4757               OCT7               EQUALS   SEVEN
000045:


000047:                                                                                                  #  UPFLAG AND DOWNFLAG ARE ENTIRELY GENERAL FLAG SETTING AND CLEARING SUBROUTINES.  USING THEM, WHETHER OR
000048:                                                                                                  #  NOT IN INTERRUPT, ONE MAY SET OR CLEAR ANY SINGLE, NAMED BIT IN ANY ERASABLE REGISTER, SUBJECT OF COURSE TO
000049:                                                                                                  #  EBANK SETTING.  A "NAMED" BIT, AS THE WORD IS USED HERE, IS ANY BIT WITH A NAME FORMALLY ASSIGNED BY THE YUL
000050:                                                                                                  #  ASSEMBLER.
000051:
000052:                                                                                                  #  AT PRESENT THE ONLY NAMED BITS ARE THOSE IN THE FLAGWORDS.  ASSEMBLER CHANGES WILL MAKE IT POSSIBLE TO
000053:                                                                                                  #  NAME ANY BIT IN ERASABLE MEMORY.
000054:
000055:                                                                                                  #  CALLING SEQUENCES ARE AS FOLLOWS:-
000056:                                                                                                  #                TC      UPFLAG                  TC      DOWNFLAG
000057:                                                                                                  #                ADRES   NAME OF FLAG            ADRES   NAME OF FLAG
000058:
000059:                                                                                                  #  RETURN IS TO THE LOCATION FOLLOWING THE "ADRES" ABOUT .58 MS AFTER THE "TC".
000060:                                                                                                  #  UPON RETURN A CONTAINS THE CURRENT FLAGWRD SETTING.
000061:
000062:    5504                                           BLOCK    02
000063:    4000                                           SETLOC   FFTAG1
000064:    4000                                           BANK
000065:    5504                                           COUNT*   $$/FLAG
000066:
000067:    5504           30002        UPFLAG             CA       Q
000068:    5505           05522                           TC       DEBIT
000069:    5506           40000                           COM                                            #  +(15 - BIT)
000070:    5507           00006                           EXTEND
000071:    5510           04001                           ROR      LCHAN                                 #  SET BIT
000072:    5511           50061        COMFLAG            INDEX    ITEMP1
000073:    5512           54074                           TS       FLAGWRD0
000074:    5513           22063                           LXCH     ITEMP3
000075:    5514           00003                           RELINT
000076:    5515           00001                           TC       L
000077:
000078:    5516           30002        DOWNFLAG           CA       Q
000079:    5517           05522                           TC       DEBIT
000080:    5520           70001                           MASK     L                                     #  RESET BIT
000081:    5521           15511                           TCF      COMFLAG
000082:
000083:    5522           64753        DEBIT              AD       ONE                                   #  CET DE BITS
000084:    5523           00004                           INHINT
000085:    5524           54063                           TS       ITEMP3
000086:    5525           34762                           CA       LOW4                                  #  DEC15
000087:    5526           54061                           TS       ITEMP1
000088:    5527           50063                           INDEX    ITEMP3
000089:    5530           27777                           CA       0          -1                         #  ADRES
000090:    5531           54001                           TS       L
000091:    5532           34755                           CA       ZERO


000093:    5533           00006                           EXTEND
000094:    5534           10061                           DV       ITEMP1                                #  A = FLAGWRD, L = (15 - BIT)
000095:    5535           52062                           DXCH     ITEMP1
000096:    5536           50061                           INDEX    ITEMP1
000097:    5537           30074                           CA       FLAGWRD0
000098:    5540           54001                           TS       L                                     #  CURRENT STATE
000099:    5541           50062                           INDEX    ITEMP2
000100:    5542           44735                           CS       BIT15                                 #  -(15 - BIT)
000101:    5543           00002                           TC       Q
000102:


000104:                                                                                                  #  DELAYJOB - A GENERAL ROUTINE TO DELAY A JOB A SPECIFIC AMOUNT OF TIME BEFORE PICKING UP AGAIN.
000105:
000106:                                                                                                  #  ENTRANCE REQUIREMENTS ...
000107:                                                                                                  #                CAF     DT              DELAY JOB FOR DT CENTISECS
000108:                                                                                                  #                TC      BANKCALL
000109:                                                                                                  #                CADR    DELAYJOB
000110:
000111: 06,3772                                           BANK     06
000112: 00,2000                                           SETLOC   DLAYJOB
000113: 00,2000                                           BANK
000114:
000115:                                                                                                  #  THIS MUST REMAIN IN BANK 0 *****************************************
000116:
000117: 00,3735                                           COUNT*   $$/DELAY
000118: 00,3735           35000        2SECDELY           CAF      2SECS
000119: 00,3736           00004        DELAYJOB           INHINT
000120: 00,3737           54002                           TS       Q                                     #  STORE DELAY DT IN Q FOR DLY -1 IN
000121: 00,3740           34752                           CAF      DELAYNUM                              #  WAITLIST
000122: 00,3741           54070        DELLOOP            TS       RUPTREG1
000123: 00,3742           50000                           INDEX    A
000124: 00,3743           31323                           CA       DELAYLOC                              #  IS THIS DELAYLOC AVAILABLE
000125: 00,3744           00006                           EXTEND
000126: 00,3745           13753                           BZF      OK2DELAY                              #  YES
000127:
000128: 00,3746           10070                           CCS      RUPTREG1                              #  NO, TRY NEXT DELAYLOC
000129: 00,3747           13741                           TCF      DELLOOP
000130:
000131: 00,3750           52134                           DXCH     BUF2
000132: 00,3751           05706                           TC       BAILOUT1                              #  NO AVAILABLE LOCS.
000133: 00,3752           31104                           OCT      31104
000134:
000135: 00,3753           33773        OK2DELAY           CA       TCSLEEP                               #  SET WAITLIST IMMEDIATE RETURN
000136: 00,3754           54061                           TS       WAITEXIT
000137:
000138: 00,3755           30004                           CA       FBANK
000139: 00,3756           60070                           AD       RUPTREG1                              #  STORE BBANK FOR TASK CALL
000140: 00,3757           54001                           TS       L
000141:
000142: 00,3760           33774                           CAF      WAKECAD                               #  STORE CADR FOR TASK CALL
000143: 00,3761           15211                           TCF      DLY2       -1                         #  DLY IS IN WAITLIST ROUTINE
000144:
000145: 00,3762           04645        TCGETCAD           TC       MAKECADR                              #  GET CALLERS FCADR
000146:
000147: 00,3763           50070                           INDEX    RUPTREG1
000148: 00,3764           55323                           TS       DELAYLOC                              #  SAVE DELAY CADRS
000149:
000150: 00,3765           05133                           TC       JOBSLEEP
000151:
000152: 00,3766           34755        WAKER              CAF      ZERO
000153: 00,3767           50006                           INDEX    BBANK


000155: 00,3770           57323                           XCH      DELAYLOC                              #  MAKE DELAYLOC AVAILABLE
000156: 00,3771           05137                           TC       JOBWAKE
000157:
000158: 00,3772           05261                           TC       TASKOVER
000159:
000160: 00,3773           03760        TCSLEEP            GENADR   TCGETCAD   -2
000161: 00,3774           03766        WAKECAD            GENADR   WAKER
000162:


000164:                                                                                                  #  GENTRAN, A BLOCK TRANSFER ROUTINE.
000165:                                                                                                  #  WRITTEN BY D. EYLES
000166:                                                                                                  #  MOD 1 BY KERNAN                               UTILITYM REV 17 11/18/67
000167:                                                                                                  #  MOD 2 BY SCHULENBERG    (REMOVE RELINT)    SKIPPER REV 4 2/28/68
000168:
000169:                                                                                                  #  THIS ROUTINE IS USEFULL FOR TRANSFERING N CONSECUTIVE ERASABLE OR FIXED QUANTITIES TO SOME OTHER N
000170:                                                                                                  #  CONSECUTIVE ERASABLE LOCATIONS.  IF BOTH BLOCKS OF DATA ARE IN SWITCHABLE EBANKS, THEY MUST BE IN THE SAME ONE.
000171:
000172:                                                                                                  #  GENTRAN IS CALLABLE IN A JOB AS WELL AS A RUPT.  THE CALLING SEQUENCE IS:
000173:                                                                                                  #        I       CA      N-1             # OF QUANTITIES MINUS ONE.
000174:                                                                                                  #        I +1    TC      GENTRAN         IN FIXED-FIXED.
000175:                                                                                                  #        I +2    ADRES   L               STARTING ADRES OF DATA TO BE MOVED.
000176:                                                                                                  #        I +3    ADRES   M               STARTING ADRES OF DUPLICATION BLOCK.
000177:                                                                                                  #        I +4                            RETURNS HERE.
000178:
000179:                                                                                                  #  GENTRAN TAKES 25 MCT'S (300 MICROSECONDS) PER ITEM + 5 MCT'S (60 MICS) FOR ENTERING AND EXITING.
000180:                                                                                                  #  A, L AND ITEMP1 ARE NOT PRESERVED.
000181:
000182:    5544                                           BLOCK    02
000183:    4000                                           SETLOC   FFTAG4
000184:    4000                                           BANK
000185:
000186:    5544     0061                                  EBANK=   ITEMP1
000187:
000188:    5544                                           COUNT*   $$/TRAN
000189:
000190:    5544           00004        GENTRAN            INHINT
000191:    5545           54061                           TS       ITEMP1                                #  SAVE N-1.
000192:    5546           50002                           INDEX    Q                                     #  C(Q) = ADRES L.
000193:    5547           60000                           AD       0                                     #  ADRES (L + N - 1).
000194:    5550           50000                           INDEX    A
000195:    5551           30000                           CA       0                                     #  C(ABOVE).
000196:    5552           54001                           TS       L                                     #  SAVE DATA.
000197:    5553           30061                           CA       ITEMP1
000198:    5554           50002                           INDEX    Q
000199:    5555           60001                           AD       1                                     #  ADRES (M + N - 1).
000200:    5556           50000                           INDEX    A
000201:    5557           22000                           LXCH     0                                     #  STUFF IT.
000202:    5560           10061                           CCS      ITEMP1                                #  LOOP UNTIL N-1 = 0.
000203:    5561           15545                           TCF      GENTRAN    +1
000204:    5562           16744                           TCF      Q+2                                   #  RETURN TO CALLER.
000205:


000207:                                                                                                  #  B5OFF         ZERO BIT 5 OF EXTVBACK, WHICH IS SET BY TESTXACT.
000208:                                                                                                  #  MAY BE USED AS NEEDED BY ANY EXTENDED VERB WHICH HAS DONE TESTXACT
000209:
000210:    5563                                           COUNT*   $$/EXTVB
000211:
000212:    5563           44747        B5OFF              CS       BIT5
000213:    5564           71043                           MASK     EXTVBACT
000214:    5565           55043                           TS       EXTVBACT
000215:    5566           05155                           TC       ENDOFJOB
000216:
000217:
000218:

End of include-file SERVICE_ROUTINES.agc.  Parent file is MAIN.agc


