
Source Code


000002:                                                                                                  ## Copyright:   Public domain.
000003:                                                                                                  ## Filename:    SERVICER.agc
000004:                                                                                                  ## Purpose:     A section of Luminary 1C, revision 131.
000005:                                                                                                  ##              It is part of the source code for the Lunar Module's (LM)
000006:                                                                                                  ##              Apollo Guidance Computer (AGC) for Apollo 13.
000007:                                                                                                  ##              This file is intended to be a faithful transcription, except
000008:                                                                                                  ##              that the code format has been changed to conform to the
000009:                                                                                                  ##              requirements of the yaYUL assembler rather than the
000010:                                                                                                  ##              original YUL assembler.
000011:                                                                                                  ## Reference:   pp. 852-890
000012:                                                                                                  ## Contact:     Ron Burkey <info@sandroid.org>.
000013:                                                                                                  ## Website:     www.ibiblio.org/apollo/index.html
000014:                                                                                                  ## Mod history: 05/27/03 RSB.   Began transcribing.
000015:                                                                                                  ##              05/14/05 RSB    Corrected website references above.
000016:                                                                                                  ##              2010-08-24 JL   Fixed page numbers.
000017:                                                                                                  ##              2010-10-25 JL   Indentation fixes.
000018:                                                                                                  ##              2017-01-06 RSB  Page numbers now agree with those on the
000019:                                                                                                  ##                              original harcopy, as opposed to the PDF page
000020:                                                                                                  ##                              numbers in 1701.pdf.
000021:                                                                                                  ##              2017-02-26 RSB  Proofed comment text using octopus/ProoferComments.
000022:                                                                                                  ##              2017-03-01 RSB  Fixed lingering typos.
000023:                                                                                                  ##              2017-03-14 RSB  Comment-text fixes noted in proofing Luminary 116.
000024:                                                                                                  ##              2017-03-16 RSB  Comment-text fixes identified in 5-way
000025:                                                                                                  ##                              side-by-side diff of Luminary 69/99/116/131/210.
000026:


000028: 37,3410                                           BANK     37
000029: 37,2000                                           SETLOC   SERV1
000030: 37,2000                                           BANK
000031:
000032: 37,3410  E7,1515                                  EBANK=   DVCNTR
000033:
000034:                                                                                                  #  *************************************   PREREAD   **************************************************************
000035:
000036: 37,3410                                           COUNT*   $$/SERV
000037:
000038: 37,3410           34757        PREREAD            CAF      SEVEN                                 #  5.7 SPOT TO SKIP LASTBIAS AFTER
000039: 37,3411           03527                           TC       GNUFAZE5                              #  RESTART.
000040: 37,3412           35031                           CAF      PRIO21
000041: 37,3413           05072                           TC       NOVAC
000042: 37,3414  E3,1460                                  EBANK=   NBDX
000043: 37,3414           03671 14063                     2CADR    LASTBIAS                              #  DO LAST GYRO COMPENSATION IN FREE FALL
000044:
000045: 37,3416           03541        BIBIBIAS           TC       PIPASR     +3                         #  CLEAR + READ PIPS LAST TIME IN FRE5+F133
000046:                                                                                                  #  DO NOT DESTROY VALUE OF PIPTIME1
000047:
000048: 37,3417           40103                           CS       FLAGWRD7
000049: 37,3420           74773                           MASK     SUPER011                              #  SET V37FLAG AND AVEGFLAG (BITS 5 AND 6
000050: 37,3421           26103                           ADS      FLAGWRD7                              #        OF FLAGWRD7)
000051:
000052: 37,3422           44735                           CS       DRFTBIT
000053: 37,3423           70076                           MASK     FLAGWRD2                              #  RESET DRIFTFLAG
000054: 37,3424           54076                           TS       FLAGWRD2
000055:
000056: 37,3425           34751                           CAF      FOUR                                  #  INITIALIZE DV MONITOR
000057: 37,3426           55256                           TS       PIPAGE
000058:
000059: 37,3427           37713                           CAF      PRIO22
000060: 37,3430           05105                           TC       FINDVAC                               #  TO FIRST ENTRY TO AVERAGE G.
000061: 37,3431  E7,1515                                  EBANK=   DVCNTR
000062: 37,3431           02463 46067                     2CADR    NORMLIZE
000063:
000064: 37,3433           34752                           CA       TWO                                   #  5.2SPOT FOR REREADAC AND NORMLIZE
000065: 37,3434           03523        GOREADAX           TC       GNUTFAZ5
000066: 37,3435           35000                           CA       2SECS                                 #  WAIT TWO SECONDS FOR READACCS
000067: 37,3436           05224                           TC       VARDELAY
000068:


000070:                                                                                                  #  *************************************   READACCS   *************************************************************
000071:
000072: 37,3437           43535        READACCS           CS       OCT37771                              #  THIS PIECE OF CODING ATTEMPTS TO
000073: 37,3440           60030                           AD       TIME5                                 #  SYNCHRONIZE READACCS WITH THE DIGITAL
000074: 37,3441           10000                           CCS      A                                     #  AUTOPILOT SO THAT A PAXIS RUPT WILL
000075: 37,3442           44753                           CS       ONE                                   #  OCCUR APPROXIMATELY 70 MILLISECONDS
000076: 37,3443           13445                           TCF      +2                                    #  FOLLOWING THE READACCS RUPT.  THE 70 MS
000077: 37,3444           34753                           CA       ONE                                   #  OFFSET WAS CHOSEN SO THAT THE PAXIS
000078: 37,3445           26030                 +2        ADS      TIME5                                 #  RUPT WOULD NOT OCCUR SIMULTANEOUSLY
000079:                                                                                                  #  WITH ANY OF THE 8 SUBSEQUENT R10,R11
000080:                                                                                                  #  INTERRUPTS -- THUS MINIMIZING THE POSS-
000081:                                                                                                  #  IBILITY OF LOSING DOWNRUPTS.
000082:
000083: 37,3446           03536                           TC       PIPASR                                #  READ THE PIPAS.
000084:
000085: 37,3447           34756        PIPSDONE           CA       FIVE
000086: 37,3450           03527                           TC       GNUFAZE5
000087: 37,3451           34753        REDO5.5            CAF      ONE
000088: 37,3452           55256                           TS       PIPAGE
000089:
000090: 37,3453           34736                           CA       PRIO20
000091: 37,3454           05105                           TC       FINDVAC
000092: 37,3455  E7,1515                                  EBANK=   DVCNTR
000093: 37,3455           02206 66067                     2CADR    SERVICER                              #  SET UP SERVICER JOB
000094:
000095: 37,3457           34743                           CA       BIT9
000096: 37,3460           00006                           EXTEND
000097: 37,3461           05011                           WOR      DSALMOUT                              #  TURN ON TEST CONNECTOR OUTBIT
000098:
000099: 37,3462           30103                           CA       FLAGWRD7
000100: 37,3463           74747                           MASK     AVEGFBIT
000101: 37,3464           00006                           EXTEND
000102: 37,3465           13515                           BZF      AVEGOUT                               #  AVEGFLAG DOWN - SET UP FINAL EXIT
000103:
000104: 37,3466           30102                           CA       FLAGWRD6
000105: 37,3467           74744                           MASK     MUNFLBIT
000106: 37,3470           00006                           EXTEND
000107: 37,3471           13513                           BZF      MAKEACCS                              #  MUNFLAG CLEAR - BYPASS LR AND DISP.
000108:
000109: 37,3472           10754                           CCS      PHASE2
000110: 37,3473           13513                           TCF      MAKEACCS                              #  PHASE 2 ACTIVATED - AVOID MULTIPLE R10.
000111:
000112: 37,3474           34757                           CAF      SEVEN                                 #  SET PIPCTR FOR 4X/SEC RATE.
000113: 37,3475           55055                           TS       PIPCTR
000114:
000115: 37,3476           40025                           CS       TIME1                                 #  SET TBASE2 .05 SECONDS IN THE PAST.
000116: 37,3477           64756                           AD       FIVE
000117: 37,3500           64734                           AD       NEG1/2
000118: 37,3501           64734                           AD       NEG1/2
000119: 37,3502           57054                           XCH      TBASE2


000121: 37,3503           34361                           CAF      DEC17                                 #  2.21SPOT FOR R10,R11
000122: 37,3504           54001                           TS       L
000123: 37,3505           40000                           COM
000124: 37,3506           52754                           DXCH     -PHASE2
000125:
000126: 37,3507           36007                           CAF      OCT24                                 #  FIRST R10,R11 IN .200 SECONDS.
000127: 37,3510           05203                           TC       WAITLIST
000128: 37,3511  E7,1536                                  EBANK=   UNIT/R/
000129: 37,3511           02006 42067                     2CADR    R10,R11
000130:
000131: 37,3513           34751        MAKEACCS           CA       FOUR
000132: 37,3514           13434                           TCF      GOREADAX                              #  DO PHASE CHANGE AND RECALL READACCS
000133:
000134: 37,3515           00006        AVEGOUT            EXTEND
000135: 37,3516           33534                           DCA      AVOUTCAD                              #  SET UP FINAL SERVICER EXIT
000136: 37,3517           53252                           DXCH     AVGEXIT
000137:
000138: 37,3520           34751                           CA       FOUR                                  #  SET 5.4 SPOT FOR REREADAC AND SERVICER
000139: 37,3521           03523                           TC       GNUTFAZ5                              #  IF REREADAC IS CALLED, IT WILL EXIT
000140: 37,3522           05261                           TC       TASKOVER                              #  END TASK WITHOUT CALLING READACCS
000141:
000142: 37,3523           54001        GNUTFAZ5           TS       L                                     #  SAVE INPUT IN L
000143: 37,3524           40025                           CS       TIME1
000144: 37,3525           55062                           TS       TBASE5                                #  SET TBASE5
000145: 37,3526           13530                           TCF      +2
000146:
000147: 37,3527           54001        GNUFAZE5           TS       L                                     #  SAVE INPUT IN L
000148: 37,3530           40001                           CS       L                                     #  -PHASE IN A, PHASE IN L
000149: 37,3531           52762                           DXCH     -PHASE5                               #  SET -PHASE5,PHASE5
000150: 37,3532           00002                           TC       Q
000151:
000152: 37,3533  E7,1515                                  EBANK=   DVCNTR
000153: 37,3533           03661 44067  AVOUTCAD           2CADR    AVGEND
000154:
000155: 37,3535           37771        OCT37771           OCT      37771
000156:
000157: 33,2206                                           BANK     33
000158: 33,2000                                           SETLOC   SERVICES
000159: 33,2000                                           BANK
000160:
000161: 33,2206                                           COUNT*   $$/SERV
000162:


000164:                                                                                                  #  *************************************   SERVICER   *************************************************************
000165:
000166: 33,2206           05353        SERVICER           TC       PHASCHNG                              #  RESTART REREADAC + SERVICER
000167: 33,2207           16035                           OCT      16035
000168: 33,2210           20000                           OCT      20000
000169: 33,2211  E7,1515                                  EBANK=   DVCNTR
000170: 33,2211           02217 66067                     2CADR    GETABVAL
000171:
000172: 33,2213           37721                           CAF      PRIO31                                #  INITIALIZE 1/PIPADT IN CASE RESTART HAS
000173: 33,2214           55074                           TS       1/PIPADT                              #  CAUSED LASTBIAS TO BE SKIPPED.
000174:
000175: 33,2215           04616                           TC       BANKCALL                              #  PIPA COMPENSATION CALL
000176: 33,2216           15271                           CADR     1/PIPA
000177:
000178: 33,2217           06042        GETABVAL           TC       INTPRET
000179: 33,2220           51575                           VLOAD    ABVAL
000180: 33,2221           00325                                    DELV
000181: 33,2222           77776                           EXIT
000182: 33,2223           30154                           CA       MPAC
000183: 33,2224           55245                           TS       ABDELV                                #  ABDELV = CM/SEC*2(-14).
000184: 33,2225           00006                           EXTEND
000185: 33,2226           72020                           MP       KPIP
000186: 33,2227           53514                           DXCH     ABDVCONV                              #  ABDVCONV = M/CS * 2(-5).
000187: 33,2230           00006                           EXTEND
000188: 33,2231           31244                           DCA      MASS
000189: 33,2232           53571                           DXCH     MASS1                                 #  INITIALIZE MASS1 IN CASE WE SKIP MASSMON
000190: 33,2233           40104        MASSMON            CS       FLAGWRD8                              #  ARE WE ON THE SURFACE?
000191: 33,2234           74744                           MASK     SURFFBIT
000192: 33,2235           00006                           EXTEND
000193: 33,2236           12254                           BZF      MOONSPOT                              #  YES:  BYPASS MASS MESS
000194: 33,2237           30106                           CA       FLGWRD10                              #  NO:  WHICH VEX SHOULD BE USED?
000195: 33,2240           74737                           MASK     APSFLBIT
000196: 33,2241           10000                           CCS      A
000197: 33,2242           00006                           EXTEND                                         #  IF EXTEND IS EXECUTED, APSVEX --> A,
000198: 33,2243           32001                           DCA      APSVEX                                #        OTHERWISE DPSVEX --> A
000199: 33,2244           54002                           TS       Q
000200:
000201: 33,2245           00006                           EXTEND
000202: 33,2246           31514                           DCA      ABDVCONV
000203: 33,2247           00006                           EXTEND
000204: 33,2250           10002        OCT10002           DV       Q                                     #  WHERE APPROPRIATE VEX RESIDES
000205: 33,2251           00006                           EXTEND
000206: 33,2252           71243                           MP       MASS
000207: 33,2253           21571                           DAS      MASS1
000208:
000209: 33,2254           32021        MOONSPOT           CA       KPIP1                                 #  TP MPAC = ABDELV AT 2(14) CM/SEC
000210: 33,2255           07312                           TC       SHORTMP                               #  MULTIPLY BY KPIP1 TO GET


000212: 33,2256           52155                           DXCH     MPAC                                  #  ABDELV AT 2(7) M/CS
000213: 33,2257           21510                           DAS      DVTOTAL                               #  UPDATE DVTOTAL FOR DISPLAY
000214:
000215: 33,2260           02440                           TC       TMPTOSPT
000216:
000217: 33,2261           04616                           TC       BANKCALL
000218: 33,2262           47617                           CADR     QUICTRIG
000219:
000220: 33,2263           32414                           CAF      XNBPIPAD
000221: 33,2264           04616                           TC       BANKCALL
000222: 33,2265           20037                           CADR     FLESHPOT
000223: 33,2266           06042                           TC       INTPRET
000224: 33,2267           45014        AVERAGEG           BON      CALL
000225: 33,2270           03307                                    MUNFLAG
000226: 33,2271           66771                                    RVBOTH
000227: 33,2272           66735                                    CALCRVG
000228: 33,2273           77776                           EXIT
000229: 33,2274           03512        GOSERV             TC       QUIKFAZ5
000230:
000231: 33,2275           02423        COPYCYCL           TC       COPYCYC
000232:
000233:                                                                                                  #                CA      ZERO            A IS ZERO ON RETURN FROM COPYCYC
000234: 33,2276           55157                           TS       PIPATMPX                              #  STILL UNDER INHINT
000235: 33,2277           55160                           TS       PIPATMPY
000236: 33,2300           55161                           TS       PIPATMPZ
000237:
000238: 33,2301           44741                           CS       STEERBIT                              #  CLEAR STEERSW PRIOR TO DVMON.
000239: 33,2302           70076                           MASK     FLAGWRD2
000240: 33,2303           54076                           TS       FLAGWRD2
000241:
000242: 33,2304           34745                           CAF      IDLEFBIT                              #  IS THE IDLE FLAG SET?
000243: 33,2305           70103                           MASK     FLAGWRD7
000244: 33,2306           10000                           CCS      A
000245: 33,2307           12342                           TCF      NODVMON1                              #  IDLEFLAG = 1, HENCE SET AUXFLAG TO 0.
000246:
000247: 33,2310           40102                           CS       FLAGWRD6
000248: 33,2311           74752                           MASK     AUXFLBIT
000249: 33,2312           10000                           CCS      A
000250: 33,2313           12346                           TCF      NODVMON2                              #  AUXFLAG = 0, HENCE SET AUXFLAG TO 1.
000251:
000252: 33,2314           41250        DVMON              CS       DVTHRUSH
000253: 33,2315           61245                           AD       ABDELV
000254: 33,2316           00006                           EXTEND
000255: 33,2317           62352                           BZMF     LOTHRUST
000256:
000257: 33,2320           40076                           CS       FLAGWRD2                              #  SET STEERSW.
000258: 33,2321           74741                           MASK     STEERBIT
000259: 33,2322           26076                           ADS      FLAGWRD2
000260:
000261: 33,2323           34753        DVCNTSET           CAF      ONE                                   #  ALLOW TWO PASSES MAXIMUM NOW THAT


000263: 33,2324           55515                           TS       DVCNTR                                #  THRUST HAS BEEN DETECTED.
000264:
000265: 33,2325           30106                           CA       FLGWRD10                              #  BRANCH IF APSFLAG IS SET.
000266: 33,2326           74737                           MASK     APSFLBIT
000267: 33,2327           10000                           CCS      A
000268: 33,2330           12375                           TCF      USEJETS
000269:
000270: 33,2331           34743                           CA       BIT9                                  #  CHECK GIMBAL FAIL BIT
000271: 33,2332           00006                           EXTEND
000272: 33,2333           02032                           RAND     CHAN32
000273: 33,2334           00006                           EXTEND
000274: 33,2335           12375                           BZF      USEJETS
000275:
000276: 33,2336           44736        USEGTS             CS       USEQRJTS
000277: 33,2337           70111                           MASK     DAPBOOLS
000278: 33,2340           54111                           TS       DAPBOOLS
000279: 33,2341           12400                           TCF      SERVOUT
000280:
000281: 33,2342           44752        NODVMON1           CS       AUXFLBIT                              #  SET AUXFLAG TO 0.
000282: 33,2343           70102                           MASK     FLAGWRD6
000283: 33,2344           54102                           TS       FLAGWRD6
000284: 33,2345           12375                           TCF      USEJETS
000285: 33,2346           40102        NODVMON2           CS       FLAGWRD6                              #  SET AUXFLAG TO 1.
000286: 33,2347           74752                           MASK     AUXFLBIT
000287: 33,2350           26102                           ADS      FLAGWRD6
000288: 33,2351           12375                           TCF      USEJETS
000289:
000290: 33,2352           03512        LOTHRUST           TC       QUIKFAZ5
000291: 33,2353           11515                           CCS      DVCNTR
000292: 33,2354           12366                           TCF      DECCNTR
000293:
000294: 33,2355           10760                           CCS      PHASE4                                #  COMFAIL JOB ACTIVE?
000295: 33,2356           12400                           TCF      SERVOUT                               #  YES   WON'T NEED ANOTHER.
000296:
000297: 33,2357           05353                           TC       PHASCHNG                              #  4.37SPOT FOR COMFAIL.
000298: 33,2360           00374                           OCT      00374
000299:
000300: 33,2361           37716                           CAF      PRIO25
000301: 33,2362           05072                           TC       NOVAC
000302: 33,2363  E7,1455                                  EBANK=   WHICH
000303: 33,2363           02575 74067                     2CADR    COMFAIL
000304:
000305: 33,2365           12400                           TCF      SERVOUT
000306:
000307: 33,2366           55570        DECCNTR            TS       DVCNTR1
000308: 33,2367           03512                           TC       QUIKFAZ5
000309: 33,2370           31570                           CA       DVCNTR1
000310: 33,2371           55515                           TS       DVCNTR
000311: 33,2372           00004                           INHINT
000312: 33,2373           04674                           TC       IBNKCALL                              #  IF THRUST IS LOW, NO STEERING IS DONE


000314: 33,2374           40166                           CADR     STOPRATE                              #  AND THE DESIRED RATES ARE SET TO ZERO.
000315: 33,2375           40111        USEJETS            CS       DAPBOOLS
000316: 33,2376           74736                           MASK     USEQRJTS
000317: 33,2377           26111                           ADS      DAPBOOLS
000318: 33,2400           00003        SERVOUT            RELINT
000319: 33,2401           04616                           TC       BANKCALL
000320: 33,2402           40463                           CADR     1/ACCS
000321:
000322: 33,2403           30167                           CA       PRIORITY
000323: 33,2404           75004                           MASK     LOW9
000324: 33,2405           54166                           TS       PUSHLOC
000325: 33,2406           22007                           ZL
000326: 33,2407           52121                           DXCH     FIXLOC                                #  FIXLOC AND OVFIND
000327:
000328: 33,2410           03512                           TC       QUIKFAZ5
000329: 33,2411           00006                           EXTEND                                         #  EXIT TO SELECTED ROUTINE WHETHER THERE
000330: 33,2412           31252                           DCA      AVGEXIT                               #  IS THRUST OR NOT.  THE STATE OF STEERSW
000331: 33,2413           52006                           DXCH     Z                                     #  WILL CONVEY THIS INFORMATION.
000332:
000333: 33,2414           02145        XNBPIPAD           ECADR    XNBPIP
000334:
000335: 32,3746                                           BANK     32
000336: 22,2000                                           SETLOC   SERV2
000337: 22,2000                                           BANK
000338: 22,3661                                           COUNT*   $$/SERV
000339:
000340: 22,3661           31234        AVGEND             CA       PIPTIME    +1                         #  FINAL AVERAGE G EXIT
000341: 22,3662           55074                           TS       1/PIPADT                              #  SET UP FREE FALL GYRO COMPENSATION.
000342:
000343: 22,3663           05504                           TC       UPFLAG                                #  SET DRIFT FLAG.
000344: 22,3664           00036                           ADRES    DRIFTFLG
000345:
000346: 22,3665           04616                           TC       BANKCALL
000347: 22,3666           17301                           CADR     PIPFREE
000348:
000349: 22,3667           44743                           CS       BIT9
000350: 22,3670           00006                           EXTEND
000351: 22,3671           03011                           WAND     DSALMOUT
000352:
000353: 22,3672           05327                           TC       2PHSCHNG
000354: 22,3673           00005                           OCT      5                                     #  GROUP 5 OFF
000355: 22,3674           05022                           OCT      05022                                 #  GROUP 2 ON
000356: 22,3675           20000                           OCT      20000
000357:
000358: 22,3676           06042                           TC       INTPRET
000359: 22,3677           43014                           SET      CLEAR
000360: 22,3700           01464                                    NOR29FLG                              #  SHUT OFF R29 WHEN SERVICER ENDS.
000361: 22,3701           03664                                    SWANDISP                              #  SHUT OFF R10 WHEN SERVICER ENDS.
000362: 22,3702           45014                           CLEAR    CALL                                  #  RESET MUNFLAG.
000363: 22,3703           03267                                    MUNFLAG


000365: 22,3704           27463                                    AVETOMID
000366: 22,3705           77414                           CLEAR    EXIT
000367: 22,3706           03671                                    V37FLAG
000368: 22,3707           04635        AVERTRN            TC       POSTJUMP
000369: 22,3710           10116                           CADR     V37RET
000370:
000371: 22,3711  22,3707               OUTGOAVE           =        AVERTRN
000372: 22,3711  E7,1570               DVCNTR1            =        MASS1
000373:


000375: 27,2000                                           SETLOC   SERV3
000376: 27,2000                                           BANK
000377: 27,3322                                           COUNT*   $$/SERV
000378:
000379: 27,3322           00006        SERVIDLE           EXTEND                                         #  DISCONNECT SERVICER FROM ALL GUIDANCE
000380: 27,3323           33360                           DCA      SVEXTADR
000381: 27,3324           53252                           DXCH     AVGEXIT
000382:
000383: 27,3325           40103                           CS       FLAGWRD7                              #  DISCONNECT THE DELTA-V MONITOR
000384: 27,3326           74745                           MASK     IDLEFBIT
000385: 27,3327           26103                           ADS      FLAGWRD7
000386:
000387: 27,3330           34735                           CAF      LRBYBIT                               #  TERMINATE R12 IF RUNNING.
000388: 27,3331           54107                           TS       FLGWRD11
000389:
000390: 27,3332           00006                           EXTEND
000391: 27,3333           34755                           DCA      NEG0
000392: 27,3334           52752                           DXCH     -PHASE1
000393:
000394: 27,3335           30102                           CA       FLAGWRD6                              #  DO NOT TURN OFF PHASE 2 IF MUNFLAG SET.
000395: 27,3336           74744                           MASK     MUNFLBIT
000396: 27,3337           10000                           CCS      A
000397: 27,3340           13344                           TCF      +4
000398:
000399: 27,3341           00006                           EXTEND
000400: 27,3342           34755                           DCA      NEG0
000401: 27,3343           52754                           DXCH     -PHASE2
000402:
000403: 27,3344           00006                 +4        EXTEND
000404: 27,3345           34755                           DCA      NEG0
000405: 27,3346           52756                           DXCH     -PHASE3
000406:
000407: 27,3347           00006                           EXTEND
000408: 27,3350           34755                           DCA      NEG0
000409: 27,3351           52764                           DXCH     -PHASE6
000410:
000411: 27,3352           34764                           CAF      OCT33                                 #  4.33SPOT FOR GOPOOFIX
000412: 27,3353           54001                           TS       L
000413: 27,3354           40000                           COM
000414: 27,3355           52760                           DXCH     -PHASE4
000415:
000416: 27,3356           15634                           TCF      WHIMPER                               #  PERFORM A SOFTWARE RESTART AND PROCEED
000417:                                                                                                  #  TO GOTOPOOH WHILE SERVICER CONTINUES TO
000418:                                                                                                  #  RUN, ALBEIT IN A GROUND STATE WHERE
000419:                                                                                                  #  ONLY STATE-VECTOR DEPENDENT FUNCTIONS
000420:                                                                                                  #  ARE MAINTAINED.
000421:
000422: 27,3357  E7,1515                                  EBANK=   DVCNTR


000424: 27,3357           03746 64067  SVEXTADR           2CADR    SERVEXIT
000425:
000426: 32,3746                                           BANK     32
000427: 32,2000                                           SETLOC   SERV
000428: 32,2000                                           BANK
000429: 32,3746                                           COUNT*   $$/SERV
000430:
000431: 32,3746           05353        SERVEXIT           TC       PHASCHNG
000432: 32,3747           00035                           OCT      00035
000433:
000434: 32,3750           15155                           TCF      ENDOFJOB
000435:
000436: 23,2463                                           BANK     23
000437: 23,2000                                           SETLOC   NORMLIZ
000438: 23,2000                                           BANK
000439:
000440: 23,2463                                           COUNT*   $$/SERV
000441:


000443:                                                                                                  #  NORMLIZE AND COPYCYCL
000444:
000445: 23,2463           06042        NORMLIZE           TC       INTPRET
000446: 23,2464           43175                           VLOAD    BOFF
000447: 23,2465           03545                                    RN1
000448: 23,2466           03347                                    MUNFLAG
000449: 23,2467           66415                                    NORMLIZ1
000450: 23,2470           64252                           VSL6     MXV
000451: 23,2471           01734                                    REFSMMAT
000452: 23,2472           37521                           STCALL   R
000453: 23,2473           67067                                    MUNGRAV
000454: 23,2474           76575                           VLOAD    VSL1
000455: 23,2475           03553                                    VN1
000456: 23,2476           77721                           MXV
000457: 23,2477           01734                                    REFSMMAT
000458: 23,2500           27527                           STOVL    V
000459: 23,2501           01726                                    V(CSM)
000460: 23,2502           53435                           VXV      UNIT
000461: 23,2503           01720                                    R(CSM)
000462: 23,2504           03720                           STORE    UHYP
000463: 23,2505           77776        ASCSPOT            EXIT
000464: 23,2506           00006                           EXTEND                                         #  MAKE SURE GOUP 2 IS OFF.
000465: 23,2507           34755                           DCA      NEG0
000466: 23,2510           52754                           DXCH     -PHASE2
000467:
000468: 23,2511           04635                           TC       POSTJUMP
000469: 23,2512           66420                           CADR     NORMLIZ2
000470:
000471: 33,2415                                           BANK     33
000472: 33,2000                                           SETLOC   SERVICES
000473: 33,2000                                           BANK
000474: 33,2415                                           COUNT*   $$/SERV
000475:
000476: 33,2415           77624        NORMLIZ1           CALL
000477: 33,2416           66667                                    CALCGRAV
000478: 33,2417           77776                           EXIT
000479:
000480: 33,2420           32437        NORMLIZ2           CA       EIGHTEEN
000481: 33,2421           02424                           TC       COPYCYC    +1                         #  DO NOT COPY MASS IN NORMLIZE
000482: 33,2422           05155                           TC       ENDOFJOB
000483:
000484: 33,2423           36007        COPYCYC            CA       OCT24                                 #  DEC 20
000485: 33,2424           00004                 +1        INHINT
000486: 33,2425           77752                 +2        MASK     NEG1                                  #  REDUCE BY 1 IF ODD
000487: 33,2426           54061                           TS       ITEMP1
000488: 33,2427           00006                           EXTEND
000489: 33,2430           50061                           INDEX    ITEMP1
000490: 33,2431           31545                           DCA      RN1
000491: 33,2432           50061                           INDEX    ITEMP1


000493: 33,2433           53220                           DXCH     RN
000494: 33,2434           10061                           CCS      ITEMP1
000495: 33,2435           12425                           TCF      COPYCYC    +2
000496: 33,2436           00002                           TC       Q                                     #  RETURN UNDER INHINT
000497:
000498: 33,2437           00022        EIGHTEEN           DEC      18         B-14
000499:


000501:                                                                                                  #  ******************* PIPA READER ********************
000502:                                                                                                  #  MOD NO. 00  BY D. LICKLY  DEC.9 1966
000503:
000504:                                                                                                  #  FUNCTIONAL DESCRIPTION
000505:                                                                                                  #        SUBROUTINE TO READ PIPA COUNTERS, TRYING TO BE VERY CAREFUL SO THAT IT WILL BE RESTARTABLE.
000506:                                                                                                  #        PIPA READINGS ARE STORED IN THE VECTOR DELV.  THE HIGH ORDER PART OF EACH COMPONENT CONTAINS THE PIPA READING,
000507:                                                                                                  #        RESTARTS BEGIN AT REREADAC.
000508:
000509:                                                                                                  #        AT THE END OF THE PIPA READER THE CDUS ARE READ AND STORED AS A
000510:                                                                                                  #        VECTOR IN CDUTEMP.  THE HIGH ORDER PART OF EACH COMPONENT CONTAINS
000511:                                                                                                  #        THE CDU READING IN 2S COMP IN THE ORDER CDUX,Y,Z.  THE THRUST
000512:                                                                                                  #        VECTOR ESTIMATOR IN FINDCDUD REQUIRES THE CDUS BE READ AT PIPTIME.
000513:
000514:                                                                                                  #  CALLING SEQUENCE AND EXIT
000515:                                                                                                  #        CALL VIA TC, ISWCALL, ETC.
000516:                                                                                                  #        EXIT IS VIA Q.
000517:
000518:                                                                                                  #  INPUT
000519:                                                                                                  #        INPUT IS THROUGH THE COUNTERS PIPAX, PIPAY, PIPAZ, AND TIME2.
000520:
000521:                                                                                                  #  OUTPUT
000522:                                                                                                  #        HIGH ORDER COMPONENTS OF THE VECTOR DELV CONTAIN THE PIPA READINGS.
000523:                                                                                                  #        PIPTIME CONTAINS TIME OF PIPA READING.
000524:
000525:                                                                                                  #  DEBRIS (ERASABLE LOCATIONS DESTROYED BY PROGRAM)
000526:                                                                                                  #        TEMX    TEMY    TEMZ    PIPAGE
000527:
000528: 37,3536                                           BANK     37
000529: 37,2000                                           SETLOC   SERV1
000530: 37,2000                                           BANK
000531:
000532: 37,3536                                           COUNT*   $$/SERV
000533:
000534: 37,3536           00006        PIPASR             EXTEND


000536: 37,3537           30025                           DCA      TIME2
000537: 37,3540           53561                           DXCH     PIPTIME1                              #  CURRENT TIME POSITIVE VALUE
000538: 37,3541           44755                 +3        CS       ZERO                                  #  INITIALIZE THESE AT NEG. ZERO.
000539: 37,3542           55253                           TS       TEMX
000540: 37,3543           55254                           TS       TEMY
000541: 37,3544           55255                           TS       TEMZ
000542:
000543: 37,3545           34755                           CA       ZERO
000544: 37,3546           54330                           TS       DELVZ
000545: 37,3547           54331                           TS       DELVZ      +1
000546: 37,3550           54326                           TS       DELVY
000547: 37,3551           54327                           TS       DELVY      +1
000548: 37,3552           54325                           TS       DELVX      +1
000549: 37,3553           55256                           TS       PIPAGE                                #  SHOW PIPA READING IN PROGRESS
000550:
000551: 37,3554           00006        REPIP1             EXTEND
000552: 37,3555           40040                           DCS      PIPAX                                 #  X AND Y PIPS READ
000553: 37,3556           53254                           DXCH     TEMX
000554: 37,3557           52040                           DXCH     PIPAX                                 #  PIPAS SET TO NEG ZERO AS READ.
000555: 37,3560           54324                           TS       DELVX
000556: 37,3561           22326                           LXCH     DELVY
000557:
000558: 37,3562           40041        REPIP3             CS       PIPAZ                                 #  REPEAT PROCESS FOR Z PIP
000559: 37,3563           57255                           XCH      TEMZ
000560: 37,3564           56041                           XCH      PIPAZ
000561: 37,3565           54330        DODELVZ            TS       DELVZ
000562:
000563: 37,3566           00006        REPIP4             EXTEND                                         #  COMPUTE GUIDANCE PERIOD
000564: 37,3567           31561                           DCA      PIPTIME1
000565: 37,3570           53247                           DXCH     PGUIDE
000566: 37,3571           00006                           EXTEND
000567: 37,3572           41234                           DCS      PIPTIME
000568: 37,3573           21247                           DAS      PGUIDE
000569:
000570: 37,3574           30032                           CA       CDUX                                  #  READ CDUS INTO HIGH ORDER CDUTEMPS
000571: 37,3575           55154                           TS       CDUTEMPX
000572: 37,3576           30033                           CA       CDUY
000573: 37,3577           55155                           TS       CDUTEMPY
000574: 37,3600           30034                           CA       CDUZ
000575: 37,3601           55156                           TS       CDUTEMPZ
000576: 37,3602           30324                           CA       DELVX
000577: 37,3603           55157                           TS       PIPATMPX
000578: 37,3604           30326                           CA       DELVY
000579: 37,3605           55160                           TS       PIPATMPY
000580: 37,3606           30330                           CA       DELVZ
000581: 37,3607           55161                           TS       PIPATMPZ
000582:
000583: 37,3610           00002                           TC       Q
000584:


000586: 37,3611           11256        REREADAC           CCS      PIPAGE
000587: 37,3612           13437                           TCF      READACCS                              #  PIP READING NOT STARTED.  GO TO BEGINNING
000588:
000589: 37,3613           33651                           CAF      DONEADR                               #  SET UP RETURN FROM PIPASR
000590: 37,3614           54002                           TS       Q
000591:
000592: 37,3615           10330                           CCS      DELVZ
000593: 37,3616           13566                           TCF      REPIP4                                #  Z DONE, GO DO CDUS
000594: 37,3617           13622                           TCF      +3                                    #  Z NOT DONE, CHECK Y.
000595: 37,3620           13566                           TCF      REPIP4
000596: 37,3621           13566                           TCF      REPIP4
000597:
000598: 37,3622           22007                           ZL
000599: 37,3623           10326                           CCS      DELVY
000600: 37,3624           13627                           TCF      +3
000601: 37,3625           13636                           TCF      CHKTEMX                               #  Y NOT DONE, CHECK X.
000602: 37,3626           13627                           TCF      +1
000603: 37,3627           22041                           LXCH     PIPAZ                                 #  Y DONE, ZERO Z PIP.
000604:
000605: 37,3630           11255                           CCS      TEMZ
000606: 37,3631           41255                           CS       TEMZ                                  #  TEMZ NOT = -0, CONTAINS -PIPAZ VALUE.
000607: 37,3632           13565                           TCF      DODELVZ
000608: 37,3633           13631                           TCF      -2
000609: 37,3634           22330                           LXCH     DELVZ                                 #  TEMZ = -0, L HAS ZPIP VALUE.
000610: 37,3635           13566                           TCF      REPIP4
000611:
000612: 37,3636           11253        CHKTEMX            CCS      TEMX                                  #  HAS THIS CHANGED
000613: 37,3637           41253                           CS       TEMX                                  #  YES
000614: 37,3640           13643                           TCF      +3                                    #  YES
000615: 37,3641           13637                           TCF      -2                                    #  YES
000616: 37,3642           13554                           TCF      REPIP1                                #  NO
000617: 37,3643           54324                           TS       DELVX
000618:
000619: 37,3644           41254                           CS       TEMY
000620: 37,3645           54326                           TS       DELVY
000621:
000622: 37,3646           44755                           CS       ZERO                                  #  ZERO X AND Y PIPS
000623: 37,3647           52040                           DXCH     PIPAX                                 #  L STILL ZERO FROM ABOVE
000624:
000625: 37,3650           13562                           TCF      REPIP3
000626:
000627: 37,3651           03447        DONEADR            GENADR   PIPSDONE
000628:


000630: 33,2440                                           BANK     33
000631: 33,2000                                           SETLOC   SERVICES
000632: 33,2000                                           BANK
000633:
000634: 33,2440                                           COUNT*   $$/SERV
000635:
000636: 33,2440           31155        TMPTOSPT           CA       CDUTEMPY                              #  THIS SUBROUTINE, CALLED BY AN RTB FROM
000637: 33,2441           54765                           TS       CDUSPOTY                              #  INTERPRETIVE, LOADS THE CDUS CORRESPON-
000638: 33,2442           31156                           CA       CDUTEMPZ                              #  DING TO PIPTIME INTO THE CDUSPOT VECTOR.
000639: 33,2443           54767                           TS       CDUSPOTZ
000640: 33,2444           31154                           CA       CDUTEMPX
000641: 33,2445           54771                           TS       CDUSPOTX
000642: 33,2446           00002                           TC       Q
000643:
000644:                                                                                                  #  LRHTASK IS A WAITLIST TASK SET BY READACCS DURING THE DESCENT BRAKING
000645:                                                                                                  #  PHASE WHEN THE ALT TO THE LUNAR SURFACE IS LESS THAN 25,000 FT.  THIS
000646:                                                                                                  #  TASK CLEARS THE ALTITUDE MEASUREMENT MADE DISCRETE AND INITIATES THE
000647:                                                                                                  #  LANDING RADAR MEASUREMENT JOB (LRHJOB) TO TAKE A ALTITUDE MEASUREMENT
000648:                                                                                                  #  50 MS PRIOR TO THE NEXT READACCS TASK.
000649:
000650: 21,2125                                           BANK     21
000651: 21,2000                                           SETLOC   R10
000652: 21,2000                                           BANK
000653:
000654: 21,2125                                           COUNT*   $$/SERV
000655:
000656: 21,2125           40107        LRHTASK            CS       FLGWRD11
000657: 21,2126           74735                           MASK     LRBYBIT
000658: 21,2127           00006                           EXTEND
000659: 21,2130           12141                           BZF      GRP2OFF                               #  LR BYPASS SET - BYPASS ALL LR READING.
000660:
000661: 21,2131           40107                           CS       FLGWRD11
000662: 21,2132           74742                           MASK     NOLRRBIT                              #  IS LR READ INHIBITED?
000663: 21,2133           00006                           EXTEND
000664: 21,2134           12141                           BZF      GRP2OFF                               #  YES.  BYPASS LR READ.
000665:
000666: 21,2135           37723                           CA       PRIO32                                #  LR READ OK   SET JOB TO DO IT
000667: 21,2136           05072                           TC       NOVAC                                 #  ABOUT 50 MS PRIOR TO PIPA READ
000668: 21,2137  E7,1654                                  EBANK=   HMEAS
000669: 21,2137           03571 70067                     2CADR    LRHJOB
000670:
000671: 21,2141           00006        GRP2OFF            EXTEND
000672: 21,2142           34755                           DCA      NEG0
000673: 21,2143           52754                           DXCH     -PHASE2
000674: 21,2144           12021                           TCF      R10,R11A
000675:
000676: 33,2447                                           BANK     33
000677: 33,2000                                           SETLOC   SERVICES
000678: 33,2000                                           BANK


000680: 33,2447                                           COUNT*   $$/SERV
000681:
000682:                                                                                                  #  HIGATASK IS ENTERED APPROXIMATELY 6 SECS PRIOR TO HIGATE DURING THE
000683:                                                                                                  #  DESCENT PHASE.  HIGATASK SETS THE HIGATE FLAG (BIT11) AND THE LR INHIBIT
000684:                                                                                                  #  FLAG (BIT10) IN LRSTAT.  THE HIGATJOB IS SET UP TO REPOSITION THE LR
000685:                                                                                                  #  ANTENNA FROM POSITION 1 TO POSITION 2.  IF THE REPOSITIONING IS
000686:                                                                                                  #  SUCCESSFUL THE ALT BEAM AND VELOCITY BEAMS ARE TRANSFORMED TO THE NEW
000687:                                                                                                  #  ORIENTATION IN NB COORDINATES AND STORED IN ERASABLE.
000688:
000689: 33,2447           05353        HIGATASK           TC       PHASCHNG
000690: 33,2450           00051                           OCT      51
000691:
000692: 33,2451           37723                           CA       PRIO32
000693: 33,2452           05105                           TC       FINDVAC
000694: 33,2453  E7,1654                                  EBANK=   HMEAS
000695: 33,2453           03634 66067                     2CADR    HIGATJOB
000696:
000697: 33,2455           40107                           CS       FLGWRD11
000698: 33,2456           75015                           MASK     PRIO3
000699: 33,2457           26107                           ADS      FLGWRD11
000700: 33,2460           12546                           TCF      CONTSERV   +1
000701:


000703:                                                                                                  #  MUNRETRN IS THE RETURN LOC FROM SPECIAL AVE G ROUTINE (MUNRVG)
000704:
000705: 33,2461           77776        MUNRETRN           EXIT
000706:
000707: 33,2462           40107                           CS       FLGWRD11
000708: 33,2463           74735                           MASK     LRBYBIT
000709: 33,2464           00006                           EXTEND
000710: 33,2465           12551                           BZF      COPYCYC1                              #  BYPASS LR LOGIC IF BIT15 IS SET.
000711:
000712: 33,2466           40107                           CS       FLGWRD11                              #  CHECK IF AT 30000 FT
000713: 33,2467           74743                           MASK     XORFLBIT
000714: 33,2470           00006                           EXTEND
000715: 33,2471           12506                           BZF      R12
000716:
000717: 33,2472           00006        30KCHK             EXTEND
000718: 33,2473           33113                           DCA      1-30KFT
000719: 33,2474           52155                           DXCH     MPAC
000720: 33,2475           00006                           EXTEND
000721: 33,2476           31535                           DCA      HCALC
000722: 33,2477           20155                           DAS      MPAC
000723:
000724: 33,2500           10000                           CCS      A
000725: 33,2501           12506                           TCF      R12                                   #  ALTITUDE > 30KFT
000726: 33,2502           05504                           TC       UPFLAG                                #  ALTITUDE < 30KFT SET X-AXIS OVERRIDE
000727: 33,2503           00311                           ADRES    XOVINFLG
000728: 33,2504           05504                           TC       UPFLAG
000729: 33,2505           00253                           ADRES    XORFLG
000730:
000731: 33,2506           40107        R12                CS       FLGWRD11
000732: 33,2507           74742                           MASK     NOLRRBIT
000733: 33,2510           00006                           EXTEND
000734: 33,2511           12545                           BZF      CONTSERV
000735:
000736: 33,2512           40107                           CS       FLGWRD11
000737: 33,2513           74751                           MASK     NO511BIT
000738: 33,2514           00006                           EXTEND
000739: 33,2515           13115                           BZF      UPDATCHK                              #  IF N0511BIT SET, DO NOT CHECK OR POSITION
000740:
000741: 33,2516           40107        HITEST             CS       FLGWRD11
000742: 33,2517           74741                           MASK     PSTHIBIT
000743: 33,2520           00006                           EXTEND
000744: 33,2521           12540                           BZF      POS2CHK
000745: 33,2522           31642        HIGATCHK           CA       TTF/8                                 #  IS TTF > CRITERION?  (TTF IS NEGATIVE)
000746: 33,2523           61427                           AD       RPCRTIME
000747: 33,2524           00006                           EXTEND
000748: 33,2525           62536                           BZMF     POS1CHK                               #  NO
000749:
000750: 33,2526           34741                           CA       EBANK4                                #  MUST SWITCH EBANKS
000751: 33,2527           56003                           XCH      EBANK
000752: 33,2530           54001                           TS       L                                     #  SAVE IN L


000754: 33,2531  E4,1545                                  EBANK=   XNBPIP
000755: 33,2531           41545                           CS       XNBPIP                                #  UXBXP IN GSOP CH5
000756: 33,2532  E7,1515                                  EBANK=   DVCNTR
000757: 33,2532           22003                           LXCH     EBANK                                 #  RESTORE EBANK
000758: 33,2533           61430                           AD       RPCRTQSW                              #  QSW - UXBXP
000759: 33,2534           00006                           EXTEND
000760: 33,2535           62447                           BZMF     HIGATASK                              #  IF UXBXP > QSW, THEN REPOSITION
000761:
000762: 33,2536           34746        POS1CHK            CAF      BIT6
000763: 33,2537           12541                           TCF      +2
000764:
000765: 33,2540           34745        POS2CHK            CAF      BIT7
000766: 33,2541           03674                           TC       POSTST
000767: 33,2542           13115                           TCF      UPDATCHK                              #  LR IN RIGHT POSITION - CONTINUE
000768:
000769: 33,2543           05567        LRPOSALM           TC       ALARM                                 #  LR NOT IN PROPER POS-ALARM-BYPASS UPDATE
000770: 33,2544           00511                           OCT      511                                   #  AND CONTINUE SERVICER
000771: 33,2545           00004        CONTSERV           INHINT
000772: 33,2546           43111                           CS       BITS4-7
000773: 33,2547           70107                           MASK     FLGWRD11                              #  CLEAR LR MEASUREMENT MADE DISCRETES.
000774: 33,2550           54107                           TS       FLGWRD11
000775:


000777: 33,2551           03512        COPYCYC1           TC       QUIKFAZ5
000778:
000779: 33,2552           30077        R297               CA       FLAGWRD3
000780: 33,2553           75014                           MASK     NR29&RDR
000781: 33,2554           10000                           CCS      A                                     #  IS NOR29FLG OR READRFLG SET?
000782: 33,2555           12567                           TCF      R29NODES                              #  YES, SO DON'T DESIGNATE.
000783:
000784: 33,2556           30110                           CA       RADMODES                              #  NO, SO R29 IS CALLED FOR.
000785: 33,2557           72250                           MASK     OCT10002                              #  IS THE RR NOT ZEROING ITS CDUS, AND
000786: 33,2560           10000                           CCS      A                                     #  IS THE RENDEZVOUS RADAR IN AUTO MODE?
000787: 33,2561           12567                           TCF      R29NODES                              #  NO, SO DON'T DESIGNATE.
000788:
000789: 33,2562           30110                           CA       RADMODES
000790: 33,2563           77713                           MASK     PRIO22
000791: 33,2564           10000                           CCS      A                                     #  IS RR REPOSITIONING OR REMODING?
000792: 33,2565           12573                           TCF      NOR29NOW                              #  YES; COME BACK IN 2 SECONDS & TRY AGAIN.
000793:
000794: 33,2566           12045                           TCF      R29
000795:
000796: 33,2567           00004        R29NODES           INHINT                                         #  R29 NOT ALLOWED THIS CYCLE.
000797: 33,2570           44742                           CS       DESIGBIT                              #  SHOW THAT DESIGNATION IS OFF.
000798: 33,2571           70110                           MASK     RADMODES
000799: 33,2572           54110                           TS       RADMODES
000800:
000801: 33,2573           06042        NOR29NOW           TC       INTPRET                               #  INTPRET DOES A RELINT.
000802: 33,2574           51575                           VLOAD    ABVAL                                 #  MPAC = ABVAL( NEW SM. POSITION VECTOR )
000803: 33,2575           03573                                    R1S
000804: 33,2576           45206                           PUSH     DSU                                   #                                (2)
000805: 33,2577           02333                                    /LAND/
000806: 33,2600           03535                           STORE    HCALC                                 #  NEW HCALC*2(24)M.
000807: 33,2601           03775                           STORE    HCALC1
000808: 33,2602           47075                           DMPR     RTB
000809: 33,2603           26026                                    ALTCONV
000810: 33,2604           21613                                    SGNAGREE
000811: 33,2605           27742                           STOVL    ALTBITS                               #  ALTITUDE FOR R10 IN BIT UNITS.
000812: 33,2606           03537                                    UNIT/R/
000813: 33,2607           53435                           VXV      UNIT
000814: 33,2610           03720                                    UHYP
000815: 33,2611           27726                           STOVL    UHZP                                  #  DOWNRANGE HALF-UNIT VECTOR FOR R10.
000816: 33,2612           03573                                    R1S
000817: 33,2613           60505                           VXM      VSR4
000818: 33,2614           01734                                    REFSMMAT
000819: 33,2615           27545                           STOVL    RN1                                   #  TEMP. REF. POSITION VECTOR*2(29)M.
000820: 33,2616           03601                                    V1S
000821: 33,2617           76505                           VXM      VSL1
000822: 33,2620           01734                                    REFSMMAT
000823: 33,2621           27553                           STOVL    VN1                                   #  TEMP. REF. VELOCITY VECTOR*2(7)M/CS.
000824: 33,2622           03537                                    UNIT/R/
000825: 33,2623           51435                           VXV      ABVAL


000827: 33,2624           03601                                    V1S
000828: 33,2625           63552                           SL1      DSQ
000829: 33,2626           77671                           DDV
000830: 33,2627           47075                           DMPR     RTB
000831: 33,2630           26030                                    ARCONV1
000832: 33,2631           21613                                    SGNAGREE
000833: 33,2632           77776        COPYCYC2           EXIT                                           #  LEAVE ALTITUDE RATE COMPENSATION IN MPAC
000834: 33,2633           00004                           INHINT
000835: 33,2634           31536                           CA       UNIT/R/                               #  UPDATE RUNIT FOR R10.
000836: 33,2635           55743                           TS       RUNIT
000837: 33,2636           31540                           CA       UNIT/R/    +2
000838: 33,2637           55744                           TS       RUNIT      +1
000839: 33,2640           31542                           CA       UNIT/R/    +4
000840: 33,2641           55745                           TS       RUNIT      +2
000841: 33,2642           30154                           CA       MPAC                                  #  LOAD NEW DALTRATE FOR R10.
000842: 33,2643           55716                           TS       DALTRATE
000843:
000844: 33,2644           00006                           EXTEND
000845: 33,2645           31573                           DCA      R1S
000846: 33,2646           53521                           DXCH     R
000847: 33,2647           00006                           EXTEND
000848: 33,2650           31575                           DCA      R1S        +2
000849: 33,2651           53523                           DXCH     R          +2
000850: 33,2652           00006                           EXTEND
000851: 33,2653           31577                           DCA      R1S        +4
000852: 33,2654           53525                           DXCH     R          +4
000853: 33,2655           00006                           EXTEND
000854: 33,2656           31601                           DCA      V1S
000855: 33,2657           53527                           DXCH     V
000856: 33,2660           00006                           EXTEND
000857: 33,2661           31603                           DCA      V1S        +2
000858: 33,2662           53531                           DXCH     V          +2
000859: 33,2663           00006                           EXTEND
000860: 33,2664           31605                           DCA      V1S        +4
000861: 33,2665           53533                           DXCH     V          +4
000862:
000863: 33,2666           12275                           TCF      COPYCYCL                              #  COMPLETE THE COYPCYCL.
000864:


000866:                                                                                                  #  *********************************************************************************************************
000867:
000868: 33,2667           41456        CALCGRAV           UNIT     PUSH                                  #  SAVE UNIT/R/ IN PUSHLIST      (18)
000869: 33,2670           03537                           STORE    UNIT/R/
000870: 33,2671           67340                           LXC,1    SLOAD                                 #  RTX2 = 0 IF EARTH ORBIT, =2 IF LUNAR.
000871: 33,2672           02777                                    RTX2
000872: 33,2673           03000                                    RTX2
000873: 33,2674           50076                           DCOMP    BMN
000874: 33,2675           66724                                    CALCGRV1
000875: 33,2676           50375                           VLOAD    DOT                                   #                                (12)
000876: 33,2677           06516                                    UNITZ
000877: 33,2700           03537                                    UNIT/R/
000878: 33,2701           41552                           SL1      PUSH                                  #                                (14)
000879: 33,2702           44316                           DSQ      BDSU
000880: 33,2703           26766                                    DP1/20
000881: 33,2704           56325                           PDDL     DDV
000882: 33,2705           26040                                    RESQ
000883: 33,2706           00043                                    34D                                   #  (RN)SQ
000884: 33,2707           00041                           STORE    32D                                   #  TEMP FOR (RE/RN)SQ
000885: 33,2710           41205                           DMP      DMP
000886: 33,2711           26042                                    20J
000887: 33,2712           65361                           VXSC     PDDL
000888: 33,2713           03537                                    UNIT/R/
000889: 33,2714           41205                           DMP      DMP
000890: 33,2715           26044                                    2J
000891: 33,2716           00041                                    32D
000892: 33,2717           76561                           VXSC     VSL1
000893: 33,2720           06516                                    UNITZ
000894: 33,2721           45455                           VAD      STADR
000895: 33,2722           74256                           STORE    UNITGOBL
000896: 33,2723           41455                           VAD      PUSH                                  #  MPAC = UNIT GRAVITY VECTOR.   (18)
000897: 33,2724           60345        CALCGRV1           DLOAD    NORM                                  #  PERFORM A NORMALIZATION ON RMAGSQ IN
000898: 33,2725           00043                                    34D                                   #  ORDER TO BE ABLE TO SCALE THE MU FOR
000899: 33,2726           00050                                    X2                                    #  MAXIMUM PRECISION.
000900: 33,2727           53663                           BDDV*    SLR*
000901: 33,2730           26032                                    -MUDT,1
000902: 33,2731           56623                                    0          -21D,2
000903: 33,2732           45561                           VXSC     STADR
000904: 33,2733           74214                           STORE    GDT1/2                                #  SCALED AT 2(+7) M/CS
000905: 33,2734           77616                           RVQ
000906:
000907: 33,2735           61375        CALCRVG            VLOAD    VXM
000908: 33,2736           00325                                    DELV
000909: 33,2737           01734                                    REFSMMAT
000910: 33,2740           76561                           VXSC     VSL1
000911: 33,2741           26022                                    KPIP1
000912: 33,2742           03527                           STORE    DELVREF
000913: 33,2743           41562                           VSR1     PUSH
000914: 33,2744           41455                           VAD      PUSH                                  #  (DV-OLDGDT)/2 TO PD SCALED AT 2(+7)M/CS


000916: 33,2745           01236                                    GDT/2
000917: 33,2746           65255                           VAD      PDDL                                  #                                        (18)
000918: 33,2747           01226                                    VN
000919: 33,2750           01247                                    PGUIDE
000920: 33,2751           74261                           SL       VXSC
000921: 33,2752           20207                                    6D
000922: 33,2753           44055                           VAD      STQ
000923: 33,2754           01220                                    RN
000924: 33,2755           00037                                    31D
000925: 33,2756           37545                           STCALL   RN1                                   #  TEMP STORAGE OF RN SCALED 2(+29) M
000926: 33,2757           66667                                    CALCGRAV
000927:
000928: 33,2760           53255                           VAD      VAD
000929: 33,2761           77655                           VAD
000930: 33,2762           01226                                    VN
000931: 33,2763           37553                           STCALL   VN1                                   #  TEMP STORAGE OF VN SCALED 2(+7) M/CS
000932: 33,2764           00037                                    31D
000933:
000934: 33,2765           01463 06315  DP1/20             2DEC     0.05
000935: 33,2767           00010 00000  SHIFT11            2DEC     1          B-11
000936:


000938:                                                                                                  #  ****************************************************************************************************************
000939:                                                                                                  #  MUNRVG IS A SPECIAL AVERAGE G INTEGRATION ROUTINE USED BY THRUSTING
000940:                                                                                                  #  PROGRAMS WHICH FUNCTION IN THE VICINITY OF AN ASSUMED SPHERICAL MOON.
000941:                                                                                                  #  THE INPUT AND OUTPUT QUANTITIES ARE REFERENCED TO THE STABLE MEMBER
000942:                                                                                                  #  COORDINATE SYSTEM.
000943:
000944: 33,2771           41575        RVBOTH             VLOAD    PUSH
000945: 33,2772           02317                                    G(CSM)
000946: 33,2773           65255                           VAD      PDDL
000947: 33,2774           01726                                    V(CSM)
000948: 33,2775           01247                                    PGUIDE
000949: 33,2776           74271                           DDV      VXSC
000950: 33,2777           26770                                    SHIFT11
000951: 33,3000           77655                           VAD
000952: 33,3001           01720                                    R(CSM)
000953: 33,3002           37573                           STCALL   R1S
000954: 33,3003           67067                                    MUNGRAV
000955: 33,3004           53255                           VAD      VAD
000956: 33,3005           01726                                    V(CSM)
000957: 33,3006           77626                           STADR
000958: 33,3007           74176                           STORE    V1S
000959: 33,3010           77776                           EXIT
000960: 33,3011           03512                           TC       QUIKFAZ5
000961: 33,3012           06042                           TC       INTPRET
000962: 33,3013           77775                           VLOAD
000963: 33,3014           03563                                    GDT1/2
000964: 33,3015           26317                           STOVL    G(CSM)
000965: 33,3016           03573                                    R1S
000966: 33,3017           25720                           STOVL    R(CSM)
000967: 33,3020           03601                                    V1S
000968: 33,3021           01726                           STORE    V(CSM)
000969: 33,3022           77776                           EXIT
000970: 33,3023           03512                           TC       QUIKFAZ5
000971: 33,3024           06042                           TC       INTPRET
000972: 33,3025           74375        MUNRVG             VLOAD    VXSC
000973: 33,3026           00325                                    DELV
000974: 33,3027           26024                                    KPIP2
000975: 33,3030           53206                           PUSH     VAD                                   #  1ST PUSH:  DELV IN UNITS OF 2(8) M/CS
000976: 33,3031           01236                                    GDT/2
000977: 33,3032           53206                           PUSH     VAD                                   #  2ND PUSH:  (DELV + GDT)/2, UNITS OF 2(7)
000978: 33,3033           03527                                    V                                     #                                        (12)
000979: 33,3034           56325                           PDDL     DDV
000980: 33,3035           01247                                    PGUIDE
000981: 33,3036           26770                                    SHIFT11
000982: 33,3037           77761                           VXSC
000983: 33,3040           77655                           VAD
000984: 33,3041           03521                                    R
000985: 33,3042           37573                           STCALL   R1S                                   #  STORE R SCALED AT 2(+24) M.
000986: 33,3043           67067                                    MUNGRAV


000988: 33,3044           53255                           VAD      VAD
000989: 33,3045           77655                           VAD                                            #                                        (0)
000990: 33,3046           03527                                    V
000991: 33,3047           03601                           STORE    V1S                                   #  STORE V SCALED AT 2(+7) M/CS.
000992: 33,3050           77646                           ABVAL
000993: 33,3051           27472                           STOVL    ABVEL                                 #  STORE SPEED FOR LR AND DISPLAYS.
000994: 33,3052           03537                                    UNIT/R/
000995: 33,3053           72441                           DOT      SL1
000996: 33,3054           03601                                    V1S
000997: 33,3055           27474                           STOVL    HDOTDISP                              #  HDOT = V. UNIT(R)*2(7) M/CS.
000998: 33,3056           03573                                    R1S
000999: 33,3057           72435                           VXV      VSL2
001000: 33,3060           02325                                    WM
001001: 33,3061           17734                           STODL    DELVS                                 #  LUNAR ROTATION CORRECTION TERM*2(5)M/CS.
001002: 33,3062           00045                                    36D
001003: 33,3063           77625                           DSU
001004: 33,3064           02333                                    /LAND/
001005: 33,3065           37535                           STCALL   HCALC                                 #  FOR NOW, DISPLAY WHETHER POS OR NEG
001006: 33,3066           66461                                    MUNRETRN
001007: 33,3067           77656        MUNGRAV            UNIT                                           #  AT 36D HAVE ABVAL(R), AT 34D R.R
001008: 33,3070           17537                           STODL    UNIT/R/
001009: 33,3071           00043                                    34D
001010: 33,3072           55261                           SL       BDDV
001011: 33,3073           20207                                    6D
001012: 33,3074           26036                                    -MUDTMUN
001013: 33,3075           74205                           DMP      VXSC
001014: 33,3076           26770                                    SHIFT11
001015: 33,3077           03537                                    UNIT/R/
001016: 33,3100           03563                           STORE    GDT1/2                                #  1/2GDT SCALED AT 2(7) M/CS.
001017: 33,3101           77616                           RVQ
001018:
001019: 33,3102           00303        1.95SECS           DEC      195        B-14
001020: 33,3103           00014 20000  2SEC(18)           2DEC     200        B-18
001021: 33,3105           00000 00310  2SEC(28)           2OCT     0000000310                            #  2SEC AT 2(28)
001022: 33,3107           00000 00620  4SEC(28)           2DEC     400        B-28
001023: 33,3111           00110        BITS4-7            OCT      110
001024: 33,3112           37767 02200  1-30KFT            2DEC     16768072   B-24                       #  DPPOSMAX-30KFT
001025: 33,3114           04445        6KFT/SEC           DEC      18.288     B-7                        #  6000 FT/SEC AT 2(7) M/CS
001026:


001028: 33,3115           34742        UPDATCHK           CAF      NOLRRBIT                              #  SEE IF LR UPDATE INHIBITED.
001029: 33,3116           70107                           MASK     FLGWRD11
001030: 33,3117           10000                           CCS      A
001031: 33,3120           12545                           TCF      CONTSERV                              #  IT IS - NO LR UPDATE
001032: 33,3121           34750                           CAF      RNGEDBIT                              #  NO INHIBIT - SEE ALT MEAS. THIS CYCLE.
001033: 33,3122           70107                           MASK     FLGWRD11
001034: 33,3123           00006                           EXTEND
001035: 33,3124           13250                           BZF      VMEASCHK                              #  NO ALT MEAS THIS CYCLE - CHECK FOR VEL
001036:
001037: 33,3125           30120        POSUPDAT           CA       FIXLOC                                #  SET PUSHLIST TO ZERO
001038: 33,3126           54166                           TS       PUSHLOC
001039:
001040: 33,3127           06042                           TC       INTPRET
001041: 33,3130           61375                           VLOAD    VXM
001042: 33,3131           02273                                    HBEAMNB
001043: 33,3132           02146                                    XNBPIP                                #  HBEAM SM AT 2(2)
001044: 33,3133           72515                           PDVL     VSL2                                  #  STORE HBEAM IN PD 0-5
001045: 33,3134           03601                                    V1S                                   #  SCALE V AT 2(5) M/CS
001046: 33,3135           50255                           VAD      DOT
001047: 33,3136           03734                                    DELVS                                 #  V RELATIVE TO SURFACE AT 2(5) M/CS
001048: 33,3137           00001                                    0D                                    #  V ALONG HBEAM AT 2(7) M/CS
001049: 33,3140           77405                           DMP      EXIT
001050: 33,3141           01352                                    RADSKAL                               #  SCALE TO RADAR COUNTS X 5
001051:
001052: 33,3142           40110                           CS       FLGWRD12                              #  TEST LR ALTITUDE SCALE FACTOR
001053: 33,3143           74743                           MASK     ALTSCBIT
001054: 33,3144           00006                           EXTEND
001055: 33,3145           13150                           BZF      +3                                    #  BRANCH IF HIGH SCALE
001056:
001057: 33,3146           31353                           CA       SKALSKAL                              #  RESCALE IF LOW SCALE
001058: 33,3147           07312                           TC       SHORTMP
001059:
001060: 33,3150           06042                 +3        TC       INTPRET
001061: 33,3151           54215                           DAD      SL                                    #  CORRECT HMEAS FOR DOPPLER EFFECT
001062: 33,3152           03655                                    HMEAS
001063: 33,3153           20210                                    7D
001064: 33,3154           74205                           DMP      VXSC                                  #  SLANT RANGE AT 2(21), PUSH UP FOR HBEAM
001065: 33,3155           26011                                    HSCAL                                 #  SLANT RANGE VECTOR AT 2(23) M
001066: 33,3156           45241                           DOT      DSU
001067: 33,3157           03537                                    UNIT/R/                               #  ALTITUDE AT 2(24) M
001068: 33,3160           03535                                    HCALC                                 #  DELTA H AT 2(24) M
001069: 33,3161           03665                           STORE    DELTAH
001070: 33,3162           77776                           EXIT
001071:
001072: 33,3163           30107                           CA       FLGWRD11
001073: 33,3164           74741                           MASK     PSTHIBIT
001074: 33,3165           00006                           EXTEND                                         #  DO NOT PERFORM DATA REASONABLENESS TEST
001075: 33,3166           13203                           BZF      NOREASON                              #  UNTIL AFTER HIGATE


001077: 33,3167           06042                           TC       INTPRET
001078: 33,3170           45246                           ABS      DSU
001079: 33,3171           02521                                    DELQFIX                               #  ABS(DELTAH) - DQFIX   50 FT NOM
001080: 33,3172           45252                           SL3      DSU                                   #  SCALE TO 2(21)
001081: 33,3173           03535                                    HCALC                                 #  ABS(DELTAH) - (50 + HCALC/8) AT 2(21)
001082: 33,3174           77776                           EXIT
001083:
001084: 33,3175           25670                           INCR     LRLCTR
001085: 33,3176           06726                           TC       BRANCH
001086: 33,3177           13520                           TCF      HFAIL                                 #  DELTA H TOO LARGE
001087: 33,3200           13520                           TCF      HFAIL                                 #  DELTA H TOO LARGE
001088: 33,3201           05516                           TC       DOWNFLAG                              #  TURN OFF ALT FAIL LAMP
001089: 33,3202           00263                           ADRES    HFLSHFLG
001090:
001091: 33,3203           40107        NOREASON           CS       FLGWRD11
001092: 33,3204           74744                           MASK     LRINHBIT
001093: 33,3205           10000                           CCS      A
001094: 33,3206           13250                           TCF      VMEASCHK                              #  UPDATE INHIBITED - TEST VELOCITY ANYWAY
001095:
001096: 33,3207           06042                           TC       INTPRET                               #  DO POSITION UPDATE
001097: 33,3210           40545                           DLOAD    SR4
001098: 33,3211           03535                                    HCALC                                 #  RESCALE H TO 2(28)M
001099: 33,3212           77776                           EXIT
001100: 33,3213           00006                           EXTEND
001101: 33,3214           31665                           DCA      DELTAH                                #  STORE DELTAH IN MPAC AND
001102: 33,3215           52155                           DXCH     MPAC                                  #  BRING HCALC INTO A,L
001103: 33,3216           07547                           TC       ALSIGNAG
001104: 33,3217           00006                           EXTEND                                         #  IF HIGH PART OF HCALC IS NON ZERO, THEN
001105: 33,3220           13222                           BZF      +2                                    #  HCALC > HMAX,
001106: 33,3221           13250                           TCF      VMEASCHK                              #  SO UPDATE IS BYPASSED
001107: 33,3222           54156                           TS       MPAC       +2                         #        FOR LATER SHORTMP
001108:
001109: 33,3223           40001                           CS       L                                     #  -H AT 2(14) M
001110: 33,3224           61420                           AD       LRHMAX                                #  HMAX - H
001111: 33,3225           00006                           EXTEND
001112: 33,3226           63250                           BZMF     VMEASCHK                              #  IF H >HMAX, BYPASS UPDATE
001113: 33,3227           00006                           EXTEND
001114: 33,3230           71421                           MP       LRWH                                  #  WH(HMAX - H)
001115: 33,3231           00006                           EXTEND
001116: 33,3232           11420                           DV       LRHMAX                                #  WH(1 - H/HMAX)
001117: 33,3233           54135                           TS       MPTEMP
001118: 33,3234           07316                           TC       SHORTMP2                              #  DELTAH (WH)(1 - H/HMAX) IN MPAC
001119: 33,3235           06042                           TC       INTPRET                               #  MODE IS DP FROM ABOVE
001120: 33,3236           77752                           SL1
001121: 33,3237           53361                           VXSC     VAD
001122: 33,3240           03537                                    UNIT/R/                               #  DELTAR = DH(WH)(1 - H/HMAX) UNIT/R/
001123: 33,3241           03573                                    R1S
001124: 33,3242           37657                           STCALL   GNUR
001125: 33,3243           67067                                    MUNGRAV
001126: 33,3244           77776                           EXIT


001128: 33,3245           03512                           TC       QUIKFAZ5
001129:
001130: 33,3246           34755                           CA       ZERO
001131: 33,3247           03474        RUPDATED           TC       GNURVST
001132:
001133: 33,3250           03512        VMEASCHK           TC       QUIKFAZ5                              #  RESTART AT NEXT LOCATION
001134: 33,3251           40107                           CS       FLGWRD11
001135: 33,3252           74745                           MASK     VELDABIT                              #  IS V READING AVAILABLE?
001136: 33,3253           10000                           CCS      A
001137: 33,3254           13454                           TCF      VALTCHK                               #  NO   SEE IF V READING TO BE TAKEN
001138:
001139: 33,3255           41651        VELUPDAT           CS       VSELECT                               #  PROCESS VELOCITY DATA
001140: 33,3256           54001                           TS       L
001141: 33,3257           26001                           ADS      L                                     #  -2 VSELECT IN L
001142: 33,3260           60001                           AD       L
001143: 33,3261           60001                           AD       L                                     #  -6 VSELECT IN A
001144: 33,3262           50120                           INDEX    FIXLOC
001145: 33,3263           52047                           DXCH     X1                                    #  X1 = -6 VSELECT, X2 = -2 VSELECT
001146:
001147: 33,3264           34741                           CA       EBANK4
001148: 33,3265           54003                           TS       EBANK
001149: 33,3266  E4,1654                                  EBANK=   LRXCDU
001150:
001151: 33,3266           31655                           CA       LRYCDU                                #  STORE LRCDUS IN CDUSPOTS
001152: 33,3267           54765                           TS       CDUSPOT
001153: 33,3270           31656                           CA       LRZCDU
001154: 33,3271           54767                           TS       CDUSPOT    +2
001155: 33,3272           31654                           CA       LRXCDU
001156: 33,3273           54771                           TS       CDUSPOT    +4
001157:
001158: 33,3274           04616                           TC       BANKCALL
001159: 33,3275           47617                           CADR     QUICTRIG                              #  GET SINES AND COSINES FOR NBSM
001160:
001161: 33,3276           30120                           CA       FIXLOC
001162: 33,3277           54166                           TS       PUSHLOC                               #  SET PD TO ZERO
001163:
001164: 33,3300           06042                           TC       INTPRET
001165: 33,3301           45173                           VLOAD*   CALL
001166: 33,3302           02231                                    VZBEAMNB,1                            #  CONVERT VBEAM FROM NB TO SM
001167: 33,3303           47675                                    *NBSM*
001168: 33,3304           54325                           PDDL     SL                                    #  STORE IN PD 0-5
001169: 33,3305           03653                                    VMEAS                                 #  LOAD VELOCITY MEASUREMENT
001170: 33,3306           20215                                    12D
001171: 33,3307           41403                           DMP*     PUSH                                  #  SCALE TO M/CS AT 2(6)
001172: 33,3310           51764                                    VZSCAL,2                              #  AND STORE IN PD 6-7
001173: 33,3311           77776                           EXIT
001174: 33,3312           44753                           CS       ONE
001175: 33,3313           54163                           TS       MODE                                  #  CHANGE STORE MODE TO VECTOR
001176:
001177: 33,3314           31657                           CA       PIPTEM                                #  STORE DELV IN MPAC


001179: 33,3315           22007                           ZL
001180: 33,3316           52155                           DXCH     MPAC
001181:
001182: 33,3317           31660                           CA       PIPTEM     +1
001183: 33,3320           22007                           ZL
001184: 33,3321           52160                           DXCH     MPAC       +3
001185:
001186: 33,3322           31661                           CA       PIPTEM     +2
001187: 33,3323           22007                           ZL
001188: 33,3324           52162                           DXCH     MPAC       +5
001189:
001190: 33,3325           35016                           CA       EBANK7
001191: 33,3326           54003                           TS       EBANK                                 #  RESTORE EBANK 7
001192: 33,3327  E7,1515                                  EBANK=   DVCNTR
001193: 33,3327           06042                           TC       INTPRET
001194: 33,3330           65361                           VXSC     PDDL
001195: 33,3331           26022                                    KPIP1                                 #  SCALE DELV TO 2(7) M/CS AND PUSH
001196: 33,3332           02253                                    LRVTIME                               #  TIME OF DELV AT 2(28) CS
001197: 33,3333           56225                           DSU      DDV
001198: 33,3334           01234                                    PIPTIME                               #  TU - T(N-1)
001199: 33,3335           27106                                    2SEC(28)
001200: 33,3336           76561                           VXSC     VSL1                                  #  G(N-1)(TU - T(N-1))
001201: 33,3337           01236                                    GDT/2                                 #  SCALED AT 2(7) M/CS
001202: 33,3340           53255                           VAD      VAD                                   #  PUSH UP FOR DELV
001203: 33,3341           03527                                    V                                     #  VU = V(N-1) + DELVU + G(N-1) DTU
001204: 33,3342           53352                           VSL2     VAD                                   #  SCALE TO 2(5) M/CS AND SUBTRACT
001205: 33,3343           03734                                    DELVS                                 #        MOON ROTATION.
001206: 33,3344           51406                           PUSH     ABVAL                                 #  STORE IN PD
001207: 33,3345           43202                           SR4      DAD                                   #  ABS(VM)/8 + VELBIAS AT 2(6)
001208: 33,3346           03372                                    VELBIAS
001209: 33,3347           24025                           STOVL    20D                                   #  STORE IN 20D AND PICK UP VM
001210: 33,3350           44241                           DOT      BDSU                                  #  V(EST) AT 2(6)
001211: 33,3351           00001                                    0                                     #  DELTAV = VMEAS - V(EST)
001212: 33,3352           51406                           PUSH     ABS
001213: 33,3353           77425                           DSU      EXIT                                  #  ABS(DV) - (7.5 + ABS(VM)/8))
001214: 33,3354           00025                                    20D
001215:
001216: 33,3355           25672                           INCR     LRMCTR
001217: 33,3356           06726                           TC       BRANCH
001218: 33,3357           13535                           TCF      VFAIL                                 #  DELTA V TOO LARGE     ALARM
001219: 33,3360           13535                           TCF      VFAIL                                 #  DELTA V TOO LARGE     ALARM
001220:
001221: 33,3361           05516                           TC       DOWNFLAG                              #  TURN OFF VEL FAIL LAMP
001222: 33,3362           00262                           ADRES    VFLSHFLG
001223:
001224: 33,3363           30107                           CA       FLGWRD11
001225: 33,3364           74740                           MASK     VXINHBIT
001226: 33,3365           00006                           EXTEND
001227: 33,3366           13375                           BZF      VUPDAT                                #  IF VX INHIBIT RESET, INCORPORATE DATA.


001229: 33,3367           05516                           TC       DOWNFLAG
001230: 33,3370           00250                           ADRES    VXINH                                 #  RESET VX INHIBIT
001231:
001232: 33,3371           31651                           CA       VSELECT
001233: 33,3372           67751                           AD       NEG2                                  #  IF VSELECT = 2 (X AXIS),
001234: 33,3373           00006                           EXTEND                                         #  BYPASS UPDATE
001235: 33,3374           13454                           BZF      ENDVDAT
001236:
001237: 33,3375           40107        VUPDAT             CS       FLGWRD11
001238: 33,3376           74744                           MASK     LRINHBIT
001239: 33,3377           10000                           CCS      A
001240: 33,3400           13454                           TCF      VALTCHK                               #  UPDATE INHIBITED
001241:
001242: 33,3401           54155                           TS       MPAC       +1
001243:
001244: 33,3402           31471                           CA       ABVEL                                 #  STORE E7 ERASABLES NEEDED IN TEMPS
001245: 33,3403           54130                           TS       ABVEL*
001246: 33,3404           31651                           CA       VSELECT
001247: 33,3405           54131                           TS       VSELECT*
001248: 33,3406           35014                           CA       EBANK5
001249: 33,3407           54003                           TS       EBANK                                 #  CHANGE EBANKS
001250:
001251: 33,3410  E5,1527                                  EBANK=   LRVF
001252: 33,3410           41527                           CS       LRVF
001253: 33,3411           60130                           AD       ABVEL*                                #  IF V < VF, USE WVF
001254: 33,3412           00006                           EXTEND
001255: 33,3413           63426                           BZMF     USEVF
001256:
001257: 33,3414           40130                           CS       ABVEL*
001258: 33,3415           61526                           AD       LRVMAX                                #  VMAX - V
001259: 33,3416           00006                           EXTEND
001260: 33,3417           63431                           BZMF     WSTOR      -1                         #  IF V > VMAX, W = 0
001261:
001262: 33,3420           00006                           EXTEND
001263: 33,3421           50131                           INDEX    VSELECT*
001264: 33,3422           71530                           MP       LRWVZ                                 #  WV(VMAX - V)
001265:
001266: 33,3423           00006                           EXTEND
001267: 33,3424           11526                           DV       LRVMAX                                #  WV( 1 - V/VMAX )
001268: 33,3425           13432                           TCF      WSTOR
001269:
001270: 33,3426           50131        USEVF              INDEX    VSELECT*
001271: 33,3427           31533                           CA       LRWVFZ                                #  USE APPROPRIATE CONSTANT WEIGHT
001272: 33,3430           13432                           TCF      WSTOR
001273:
001274: 33,3431           34755                 -1        CA       ZERO
001275: 33,3432           54154        WSTOR              TS       MPAC
001276: 33,3433           44745                           CS       BIT7                                  #  (=64D)
001277: 33,3434           61010                           AD       MODREG
001278: 33,3435           00006                           EXTEND


001280: 33,3436           63441                           BZMF     +3                                    #  IF IN P65,P66,P67, USE ANOTHER CONSTANT
001281:
001282: 33,3437           31536                           CA       LRWVFF
001283: 33,3440           54154                           TS       MPAC
001284:
001285: 33,3441           35016                 +3        CA       EBANK7
001286: 33,3442           54003                           TS       EBANK                                 #  CHANGE EBANKS
001287:
001288: 33,3443  E7,1471                                  EBANK=   ABVEL
001289: 33,3443           06042                           TC       INTPRET
001290: 33,3444           74205                           DMP      VXSC                                  #  W(DELTA V)(VBEAMSM) UP 6-7, 0-5
001291: 33,3445           77655                           VAD
001292: 33,3446           03601                                    V1S                                   #  ADD WEIGHTED DELTA V TO VELOCITY
001293: 33,3447           03657                           STORE    GNUV
001294: 33,3450           77776                           EXIT
001295:
001296: 33,3451           03512                           TC       QUIKFAZ5                              #  DO NOT RE-UPDATE
001297:
001298: 33,3452           36245                           CA       SIX
001299: 33,3453           03474        VUPDATED           TC       GNURVST                               #  STORE NEW VELOCITY VECTOR
001300: 33,3454  33,3454               ENDVDAT            =        VALTCHK
001301:
001302: 33,3454           03512        VALTCHK            TC       QUIKFAZ5                              #  DO NOT REPEAT ABOVE
001303:
001304: 33,3455           34747                           CAF      READVBIT                              #  TEST READVEL TO SEE IF VELOCITY READING
001305: 33,3456           70107                           MASK     FLGWRD11                              #  IS DESIRED.
001306: 33,3457           10000                           CCS      A
001307: 33,3460           13467                           TCF      READV                                 #  TES - READ VELOCITY
001308: 33,3461           41471                           CS       ABVEL                                 #  NO - SEE IF VELOCITY < 6000 FT/SEC
001309: 33,3462           63114                           AD       6KFT/SEC
001310: 33,3463           00006                           EXTEND
001311: 33,3464           62545                           BZMF     CONTSERV                              #  V > 6000 FT/SEC.  DO NOT READ VELOCITY.
001312:
001313: 33,3465           05504                           TC       UPFLAG                                #  V < 6000 FT/SEC.  SET READVEL AND READ.
001314: 33,3466           00257                           ADRES    READVEL
001315:
001316: 33,3467           37723        READV              CAF      PRIO32                                #  SET UP JOB TO READ VELOCITY BEAMS.
001317: 33,3470           05072                           TC       NOVAC
001318: 33,3471  E7,1654                                  EBANK=   HMEAS
001319: 33,3471           03556 66067                     2CADR    LRVJOB
001320:
001321: 33,3473           12545                           TCF      CONTSERV                              #  CONTINUE WITH SERVICER
001322:
001323: 33,3474           54130        GNURVST            TS       BUF                                   #  STORE GNUR (=GNUV) IN R1S OR V1S
001324: 33,3475           00006                           EXTEND                                         #  A = 0 FOR R, A = 6 FOR V
001325: 33,3476           31657                           DCA      GNUR
001326: 33,3477           50130                           INDEX    BUF
001327: 33,3500           53573                           DXCH     R1S
001328: 33,3501           00006                           EXTEND


001330: 33,3502           31661                           DCA      GNUR       +2
001331: 33,3503           50130                           INDEX    BUF
001332: 33,3504           53575                           DXCH     R1S        +2
001333: 33,3505           00006                           EXTEND
001334: 33,3506           31663                           DCA      GNUR       +4
001335: 33,3507           50130                           INDEX    BUF
001336: 33,3510           53577                           DXCH     R1S        +4
001337: 33,3511           00002                           TC       Q
001338:
001339: 33,3512           35007        QUIKFAZ5           CA       EBANK3
001340: 33,3513           56003                           XCH      EBANK                                 #  SET EBANK 3
001341: 33,3514           52002                           DXCH     L                                     #  Q TO A, A TO L
001342: 33,3515  E3,1446                                  EBANK=   PHSNAME5
001343: 33,3515           55446                           TS       PHSNAME5
001344: 33,3516           22003                           LXCH     EBANK
001345: 33,3517  E7,1515                                  EBANK=   DVCNTR
001346: 33,3517           00000                           TC       A
001347:
001348: 33,3520           41671        HFAIL              CS       LRRCTR
001349: 33,3521           00006                           EXTEND
001350: 33,3522           13532                           BZF      NORLITE                               #  IF R = 0, DO NOT TURN ON TRK FAIL
001351: 33,3523           61670                           AD       LRLCTR
001352: 33,3524           77750                           MASK     NEG3
001353: 33,3525           00006                           EXTEND                                         #  IF L-R LT 4, DO NOT TURN ON TRK FAIL
001354: 33,3526           13530                           BZF      +2
001355: 33,3527           13532                           TCF      NORLITE
001356:
001357: 33,3530           05504                           TC       UPFLAG                                #  AND SET BIT TO TURN ON TRACKER FAIL LITE
001358: 33,3531           00263                           ADRES    HFLSHFLG
001359:
001360: 33,3532           31670        NORLITE            CA       LRLCTR
001361: 33,3533           55671                           TS       LRRCTR                                #  SET R = L
001362:
001363: 33,3534           13250                           TCF      VMEASCHK
001364:
001365: 33,3535           41673        VFAIL              CS       LRSCTR                                #  DELTA Q LARGE
001366: 33,3536           00006                           EXTEND                                         #  IF S = 0, DO NOT TURN ON TRACKER FAIL
001367: 33,3537           13547                           BZF      NOLITE
001368: 33,3540           61672                           AD       LRMCTR                                #  M-S
001369: 33,3541           77750                           MASK     NEG3                                  #  TEST FOR M-S > 3
001370: 33,3542           00006                           EXTEND                                         #  IF M-S > 3, THEN TWO OR MORE OF THE
001371: 33,3543           13545                           BZF      +2                                    #        LAST FOUR V READINGS WERE BAD,
001372: 33,3544           13547                           TCF      NOLITE                                #        SO TURN ON VELOCITY FAIL LIGHT
001373:
001374: 33,3545           05504                           TC       UPFLAG                                #  AND SET BIT TO TURN ON TRACKER FAIL LITE
001375: 33,3546           00262                           ADRES    VFLSHFLG
001376:


001378: 33,3547           31672        NOLITE             CA       LRMCTR                                #  SET S = M
001379: 33,3550           55673                           TS       LRSCTR
001380:
001381: 33,3551           11651                           CCS      VSELECT                               #  TEST FOR Z COMPONENT
001382: 33,3552           13454                           TCF      ENDVDAT                               #  NOT Z, DO NOT SET VX INHIBIT
001383:
001384: 33,3553           05504                           TC       UPFLAG                                #  Z COMPONENT - SET FLAG TO SKIP X
001385: 33,3554           00250                           ADRES    VXINH                                 #  COMPONENT, AS ERROR MAY BE DUE TO CROSS
001386: 33,3555           13454                           TCF      ENDVDAT                               #  LOBE LOCK UP NOT DETECTED ON X AXIS.
001387:


001389:                                                                                                  #  ********************************************************************************************************
001390:                                                                                                  #  LRVJOB IS SET WHEN THE LEM IS BELOW 15000 FT DURING THE LANDING PHASE
001391:                                                                                                  #  THIS JOB INITIALIZES THE LANDING RADAR READ ROUTINE FOR 5 VELOCITY
001392:                                                                                                  #  SAMPLES AND GOES TO SLEEP WHILE THE SAMPLING IS DONE-ABOUT 500 MS.
001393:                                                                                                  #  WITH A GOODEND RETURN THE DATA IS STORED IN VMEAS AND BIT7 OF LRSTAT
001394:                                                                                                  #  IS SET.  THE GIMBAL ANGLES ARE READ ABOUT MIDWAY IN THE SAMPLING .
001395:
001396: 33,3556     4361               170MS              EQUALS   ND1
001397:
001398: 33,3556           34361        LRVJOB             CA       170MS                                 #  SET TASK TO READ CDUS + PIPAS
001399: 33,3557           05203                           TC       WAITLIST
001400: 33,3560  E4,1652                                  EBANK=   LRVTIME
001401: 33,3560           03632 70064                     2CADR    RDGIMS
001402:
001403: 33,3562           11651                           CCS      VSELECT                               #  SEQUENCE LR VEL BEAM SELECTOR
001404: 33,3563           13565                           TCF      +2
001405: 33,3564           34752                           CAF      TWO                                   #  IF ZERO-RESET TO TWO
001406: 33,3565           60000                           DOUBLE                                         #  2XVSELECT USED FOR VBEAM INDEX IN LRVEL
001407: 33,3566           04616                           TC       BANKCALL                              #  GO INITIALIZE LR VEL READ ROUTINE
001408: 33,3567           53116                           CADR     LRVEL
001409: 33,3570           04616                           TC       BANKCALL                              #  PUT LRVJOB TO SLEEP ABOUT 500 MS
001410: 33,3571           17705                           CADR     RADSTALL
001411: 33,3572           13625                           TCF      VBAD
001412: 33,3573           11675                           CCS      STILBADV                              #  IS DATA GOOD JUST PRESENT?
001413: 33,3574           13626                           TCF      VSTILBAD                              #  JUST GOOD - MUST WAIT 4 SECONDS.
001414:
001415: 33,3575           00004                           INHINT
001416: 33,3576           00006                           EXTEND                                         #  GOOD RETURN-STOW AWAY VMEAS
001417: 33,3577           31101                           DCA      SAMPLSUM
001418: 33,3600           53653                           DXCH     VMEAS
001419: 33,3601           34741                           CA       EBANK4                                #  FOR DOWNLINK
001420: 33,3602           54003                           TS       EBANK
001421: 33,3603  E4,1652                                  EBANK=   LRVTIME
001422:
001423: 33,3603           00006                           EXTEND
001424: 33,3604           31653                           DCA      LRVTIME
001425: 33,3605           53740                           DXCH     LRVTIMDL
001426: 33,3606           00006                           EXTEND
001427: 33,3607           31655                           DCA      LRXCDU
001428: 33,3610           53735                           DXCH     LRXCDUDL
001429: 33,3611           31656                           CA       LRZCDU
001430: 33,3612           55736                           TS       LRZCDUDL
001431: 33,3613           35016                           CA       EBANK7
001432: 33,3614           54003                           TS       EBANK
001433: 33,3615  E7,1651                                  EBANK=   VSELECT
001434:
001435: 33,3615           40107                           CS       FLGWRD11                              #  SET BIT TO INDICATE VELOCITY
001436: 33,3616           74745                           MASK     VELDABIT                              #  MEASUREMENT MADE.


001438: 33,3617           26107                           ADS      FLGWRD11
001439: 33,3620           11651        ENDLRV             CCS      VSELECT                               #  UPDATE VSELECT
001440: 33,3621           13623                           TCF      +2
001441: 33,3622           34752                           CA       TWO
001442: 33,3623           55651                           TS       VSELECT
001443: 33,3624           15155                           TCF      ENDOFJOB
001444:
001445: 33,3625           34752        VBAD               CAF      TWO                                   #  SET STILBAD TO WAIT 4 SECONDS
001446: 33,3626           55675        VSTILBAD           TS       STILBADV
001447: 33,3627           13620                           TCF      ENDLRV
001448:
001449:                                                                                                  #  LRHJOB IS SET BY LRHTASK WHEN LEM IS BELOW 25000 FT.  THIS JOB
001450:                                                                                                  #  INITIALIZES THE LR READ ROUTINE FOR AN ALT MEASUREMENT AND GOES TO
001451:                                                                                                  #  SLEEP WHILE THE SAMPLING IS DONE-ABOUT 95 MS.  WITH A GOODEND RETURN
001452:                                                                                                  #  THE ALT DATA IS STORED IN HMEAS AND BIT7 OF LRSTAT IS SET.
001453:
001454: 34,3571                                           BANK     34
001455: 34,2000                                           SETLOC   R12STUFF
001456: 34,2000                                           BANK
001457:
001458: 34,3571                                           COUNT*   $$/SERV
001459:
001460: 34,3571           04616        LRHJOB             TC       BANKCALL                              #  INITIATE LR ALT MEASUREMENT
001461: 34,3572           53102                           CADR     LRALT
001462: 34,3573           04616                           TC       BANKCALL                              #  LRHJOB TO SLEEP ABOUT 95MS
001463: 34,3574           17705                           CADR     RADSTALL
001464: 34,3575           13620                           TCF      HBAD
001465: 34,3576           11674                           CCS      STILBADH                              #  IS DATA GOOD JUST PRESENT?
001466: 34,3577           13630                           TCF      HSTILBAD                              #  JUST GOOD - MUST WAIT 4 SECONDS.
001467:
001468: 34,3600           00004                           INHINT
001469: 34,3601           00006                           EXTEND
001470: 34,3602           31101                           DCA      SAMPLSUM                              #  GOOD RETURN-STORE AWAY LRH DATA
001471: 34,3603           53655                           DXCH     HMEAS                                 #  LRH DATA 1.079 FT/BIT
001472: 34,3604           00006                           EXTEND                                         #  FOR DOWNLINK
001473: 34,3605           31561                           DCA      PIPTIME1
001474: 34,3606           53755                           DXCH     MKTIME
001475:
001476: 34,3607           00006                           EXTEND
001477: 34,3610           31156                           DCA      CDUTEMPY                              #  CDUY,Z = AIG,AMG
001478: 34,3611           53460                           DXCH     AIG
001479:
001480: 34,3612           31154                           CA       CDUTEMPX                              #  CDUX = AOG
001481: 34,3613           55461                           TS       AOG
001482:
001483: 34,3614           40107                           CS       FLGWRD11                              #  SET BIT TO INDICATE RANGE
001484: 34,3615           74750                           MASK     RNGEDBIT                              #  MEASUREMENT MADE.
001485: 34,3616           26107                           ADS      FLGWRD11
001486: 34,3617           05155        ENDLRH             TC       ENDOFJOB                              #  TERMINATE LRHJOB
001487:


001489: 34,3620           30101        HBAD               CA       FLAGWRD5
001490: 34,3621           74742                           MASK     RNGSCBIT                              #  IS BAD RETURN DUE TO SCALE CHANGE?
001491: 34,3622           00006                           EXTEND
001492: 34,3623           13627                           BZF      HSTILBAD   -1                         #  NO   RESET HSTILBAD
001493: 34,3624           05516                           TC       DOWNFLAG                              #  YES   RESET SCALE CHANGE BIT AND IGNORE
001494: 34,3625           00120                           ADRES    RNGSCFLG
001495: 34,3626           05155                           TC       ENDOFJOB
001496:
001497: 34,3627           34752                           CAF      TWO                                   #  SET STILBAD TO WAIT 4 SECONDS
001498: 34,3630           55674        HSTILBAD           TS       STILBADH
001499: 34,3631           05155                           TC       ENDOFJOB
001500:
001501: 34,3632                                           BANK     34
001502: 34,2000                                           SETLOC   SERV4
001503: 34,2000                                           BANK
001504:
001505: 34,3632                                           COUNT*   $$/SERV
001506:
001507:                                                                                                  #  RDGIMS IS A TASK SET UP BY LRVJOB TO PICK UP THE IMU CDUS AND TIME
001508:                                                                                                  #  AT ABOUT THE MIDPOINT OF THE LR VEL READ ROUTINE WHEN 5 VEL SAMPLES
001509:                                                                                                  #  ARE SPECIFIED.
001510:
001511: 34,3632  E4,1652                                  EBANK=   LRVTIME
001512: 34,3632           00006        RDGIMS             EXTEND
001513: 34,3633           30025                           DCA      TIME2                                 #  PICK UP TIME2, TIME1
001514: 34,3634           53653                           DXCH     LRVTIME                               #        AND SAVE IN LRVTIME
001515:
001516: 34,3635           00006                           EXTEND
001517: 34,3636           30033                           DCA      CDUX                                  #  PICK UP CDUX AND CDUY
001518: 34,3637           53655                           DXCH     LRXCDU                                #        AND SAVE IN LRXCDU AND LRYCDU
001519:
001520: 34,3640           30034                           CA       CDUZ
001521: 34,3641           55656                           TS       LRZCDU                                #  SAVE CDUZ IN LRZCDU
001522:
001523: 34,3642           30037                           CA       PIPAX
001524: 34,3643           55657                           TS       PIPTEM                                #  SAVE PIPAX IN PIPTEM
001525:
001526: 34,3644           00006                           EXTEND
001527: 34,3645           30041                           DCA      PIPAY                                 #  PICK UP PIPAY AND PIPAZ
001528: 34,3646           53661                           DXCH     PIPTEM     +1                         #        AND SAVE IN PIPTEM +1 AND PIPTEM +2
001529: 34,3647           05261                           TC       TASKOVER
001530:
001531: 33,3630                                           BANK     33
001532: 33,2000                                           SETLOC   SERVICES
001533: 33,2000                                           BANK
001534:
001535: 33,3630                                           COUNT*   $$/SERV
001536:
001537: 33,3630  E7,1515                                  EBANK=   DVCNTR


001539:                                                                                                  #  HIGATJOB IS SET APPROXIMATELY 6 SECONDS PRIOR TO HIGH GATE DURING
001540:                                                                                                  #  THE DESCENT BURN PHASE OF LUNAR LANDING.  THIS JOB INITIATES THE
001541:                                                                                                  #  LANDING RADAR REPOSITIONING ROUTINE AND GOES TO SLEEP UNTIL THE
001542:                                                                                                  #  LR ANTENNA MOVES FROM POSITION 1 TO POSITION 2.  IF THE LR ANTENNA
001543:                                                                                                  #  ACHIEVES POSITION 2 WITHIN 22 SECONDS THE ALTITUDE AND VELOCITY
001544:                                                                                                  #  BEAM VECTORS ARE RECOMPUTED TO REFLECT THE NEW ORIENTATION WITH
001545:                                                                                                  #  RESPECT TO THE NB.  BIT10 OF LRSTAT IS CLEARED TO ALLOW LR
001546:                                                                                                  #  MEASUREMENTS AND THE JOB TERMINATES.
001547:
001548: 33,3630           00004        REREPOS            INHINT
001549: 33,3631           40107                           CS       FLGWRD11
001550: 33,3632           75015                           MASK     PRIO3
001551: 33,3633           26107                           ADS      FLGWRD11
001552:
001553: 33,3634           04616        HIGATJOB           TC       BANKCALL                              #  START LRPOS2 JOB
001554: 33,3635           53454                           CADR     LRPOS2
001555: 33,3636           04616                           TC       BANKCALL                              #  PUT HIGATJOB TO SLEEP UNTIL JOB IS DONE
001556: 33,3637           17705                           CADR     RADSTALL
001557: 33,3640           13653                           TCF      POSALARM                              #  BAD END ALARM
001558:
001559: 33,3641           37714        POSGOOD            CA       PRIO23                                #  REDUCE PRIORITY FOR INTERPRETIVE COMPS.
001560: 33,3642           05146                           TC       PRIOCHNG
001561:
001562: 33,3643           03717                           TC       SETPOS2                               #  LR IN POS2 - SET UP TRANSFORMATIONS
001563:
001564: 33,3644           05504                           TC       UPFLAG
001565: 33,3645           00256                           ADRES    LPOS2FLG
001566: 33,3646           05516        ENDPOS             TC       DOWNFLAG
001567: 33,3647           00252                           ADRES    NOLRREAD                              #  RESET NOLRREAD FLAG TO ENABLE LR READING
001568: 33,3650           05353        LRRESTRT           TC       PHASCHNG
001569:
001570: 33,3651           00001                           OCT      1
001571: 33,3652           05155                           TC       ENDOFJOB
001572:
001573: 33,3653           33757        POSALARM           CA       OCT523
001574: 33,3654           04616                           TC       BANKCALL
001575: 33,3655           21563                           CADR     PRIOLARM                              #  FLASH ALARM CODE
001576: 33,3656           13650                           TCF      LRRESTRT                              #  V34-TERMINATE R12 (NOLRRBIT SET)
001577: 33,3657           13662                           TCF      P1CHK                                 #  PROCEED
001578: 33,3660           13670                           TCF      P2CHK                                 #  V32E
001579: 33,3661           05155                           TC       ENDOFJOB
001580:
001581: 33,3662           05504        P1CHK              TC       UPFLAG
001582: 33,3663           00261                           ADRES    NO511FLG
001583: 33,3664           34746                           CA       BIT6
001584: 33,3665           03674                           TC       POSTST
001585: 33,3666           03646                           TC       ENDPOS
001586: 33,3667           13641                           TCF      POSGOOD                               #  NOT POS1-CHANGE TO POS2
001587:
001588: 33,3670           34745        P2CHK              CA       BIT7


001590: 33,3671           03674                           TC       POSTST
001591: 33,3672           13641                           TCF      POSGOOD
001592: 33,3673           13653                           TCF      POSALARM
001593: 33,3674           00006        POSTST             EXTEND
001594: 33,3675           02033                           RAND     CHAN33
001595: 33,3676           00006                           EXTEND
001596: 33,3677           16745                           BZF      TCQ
001597: 33,3700           16742                           TCF      Q+1
001598: 33,3701           04645        SETPOS1            TC       MAKECADR                              #  MUST BE CALLED BY BANKCALL
001599: 33,3702           55656                           TS       LRADRET1                              #  SAVE RETURN CADR, SINCE BUF2 CLOBBERED
001600:
001601: 33,3703           34752                           CAF      TWO
001602: 33,3704           55674                           TS       STILBADH                              #  INITIALIZE STILBAD
001603: 33,3705           55675                           TS       STILBADV                              #  INITIALIZE STILBAD
001604:
001605: 33,3706           34755                           CA       ZERO                                  #  INDEX FOR LRALPHA, LRBETA IN POS 1.
001606: 33,3707           55670                           TS       LRLCTR                                #  SET L,M,R, ANS S TO ZERO
001607: 33,3710           55672                           TS       LRMCTR
001608: 33,3711           55671                           TS       LRRCTR
001609: 33,3712           55673                           TS       LRSCTR
001610: 33,3713           55651                           TS       VSELECT                               #  INITIALIZE VSELECT
001611:
001612: 33,3714           03720                           TC       SETPOS                                #  CONTINUE WITH COMPUTATIONS
001613:
001614: 33,3715           31656                           CA       LRADRET1
001615: 33,3716           04640                           TC       BANKJUMP                              #  RETURN TO CALLER
001616:
001617: 33,3717           34752        SETPOS2            CA       TWO                                   #  INDEX FOR POS2
001618: 33,3720           56002        SETPOS             XCH      Q                                     #  SAVE INDEX IN Q
001619: 33,3721           55650                           TS       LRADRET                               #  SAVE RETURN
001620:
001621: 33,3722           35014                           CA       EBANK5
001622: 33,3723           54003                           TS       EBANK
001623: 33,3724  E5,1522                                  EBANK=   LRALPHA
001624:
001625: 33,3724           00006                           EXTEND
001626: 33,3725           50002                           INDEX    Q
001627: 33,3726           31523                           DCA      LRALPHA                               #  LRALPHA IN A, LRBETA IN L
001628: 33,3727           54771                           TS       CDUSPOT    +4                         #  ROTATION ABOUT X
001629: 33,3730           22765                           LXCH     CDUSPOT                               #  ROTATION ABOUT Y
001630: 33,3731           34755                           CA       ZERO
001631: 33,3732           54767                           TS       CDUSPOT    +2                         #  ZERO ROTATION ABOUT Z.
001632:
001633: 33,3733           35016                           CA       EBANK7
001634: 33,3734           54003                           TS       EBANK
001635: 33,3735  E7,1650                                  EBANK=   LRADRET
001636:
001637: 33,3735           06042                           TC       INTPRET
001638: 33,3736           45175                           VLOAD    CALL


001640: 33,3737           06520                                    UNITY                                 #  CONVERT UNITY(ANTENNA) TO NB
001641: 33,3740           47653                                    TRG*SMNB
001642: 33,3741           26237                           STOVL    VYBEAMNB
001643: 33,3742           06522                                    UNITX                                 #  CONVERT UNITX(ANTENNA) TO NB
001644: 33,3743           77624                           CALL
001645: 33,3744           47673                                    *SMNB*
001646: 33,3745           02245                           STORE    VXBEAMNB
001647: 33,3746           76435                           VXV      VSL1
001648: 33,3747           02237                                    VYBEAMNB
001649: 33,3750           26231                           STOVL    VZBEAMNB                              #  Z = X * Y
001650: 33,3751           26003                                    HBEAMANT
001651: 33,3752           77624                           CALL
001652: 33,3753           47673                                    *SMNB*                                #  CONVERT TO NB
001653: 33,3754           02273                           STORE    HBEAMNB
001654: 33,3755           77776                           EXIT
001655:
001656: 33,3756           01650                           TC       LRADRET
001657:
001658: 33,3757           00523        OCT523             OCT      00523

End of include-file SERVICER.agc.  Parent file is MAIN.agc


