
Source Code


000002:                                                                                                  ## Copyright:   Public domain.
000003:                                                                                                  ## Filename:    SERVICE_ROUTINES.agc
000004:                                                                                                  ## Purpose:     A section of Luminary 1C, revision 131.
000005:                                                                                                  ##              It is part of the source code for the Lunar Module's (LM)
000006:                                                                                                  ##              Apollo Guidance Computer (AGC) for Apollo 13.
000007:                                                                                                  ##              This file is intended to be a faithful transcription, except
000008:                                                                                                  ##              that the code format has been changed to conform to the
000009:                                                                                                  ##              requirements of the yaYUL assembler rather than the
000010:                                                                                                  ##              original YUL assembler.
000011:                                                                                                  ## Reference:   pp. 1366-1372
000012:                                                                                                  ## Contact:     Ron Burkey <info@sandroid.org>.
000013:                                                                                                  ## Website:     www.ibiblio.org/apollo/index.html
000014:                                                                                                  ## Mod history: 06/06/03 RSB.   Began transcribing.
000015:                                                                                                  ##              05/14/05 RSB    Corrected website references above.
000016:                                                                                                  ##              2017-01-06 RSB  Page numbers now agree with those on the
000017:                                                                                                  ##                              original harcopy, as opposed to the PDF page
000018:                                                                                                  ##                              numbers in 1701.pdf.
000019:


000021: 10,3545                                           BANK     10
000022: 10,2000                                           SETLOC   DISPLAYS
000023: 10,2000                                           BANK
000024: 10,3545                                           COUNT*   $$/DSPLA
000025:
000026: 10,3545           00004        UPENT2             INHINT
000027: 10,3546           75650                           MASK     OCT77770
000028: 10,3547           54001                           TS       L
000029: 10,3550           40100                           CS       FLAGWRD4
000030: 10,3551           70001                           MASK     L
000031: 10,3552           26100                           ADS      FLAGWRD4
000032: 10,3553           00003        JOIN               RELINT
000033: 10,3554           16742                           TCF      Q+1
000034:
000035: 10,3555           00004        DOWNENT2           INHINT
000036: 10,3556           75650                           MASK     OCT77770
000037: 10,3557           40000                           COM
000038: 10,3560           70100                           MASK     FLAGWRD4
000039: 10,3561           54100                           TS       FLAGWRD4
000040: 10,3562           13553                           TCF      JOIN
000041:
000042: 10,3563     4757               OCT7               EQUALS   SEVEN
000043:


000045:                                                                                                  #  UPFLAG AND DOWNFLAG ARE ENTIRELY GENERAL FLAG SETTING AND CLEARING SUBROUTINES.  USING THEM, WHETHER OR
000046:                                                                                                  #  NOT IN INTERRUPT, ONE MAY SET OR CLEAR ANY SINGLE, NAMED BIT IN ANY ERASABLE REGISTER, SUBJECT OF COURSE TO
000047:                                                                                                  #  EBANK SETTING.  A "NAMED" BIT, AS THE WORD IS USED HERE, IS ANY BIT WITH A NAME FORMALLY ASSIGNED BY THE YUL
000048:                                                                                                  #  ASSEMBLER.
000049:
000050:                                                                                                  #  AT PRESENT THE ONLY NAMED BITS ARE THOSE IN THE FLAGWORDS.  ASSEMBLER CHANGES WILL MAKE IT POSSIBLE TO
000051:                                                                                                  #  NAME ANY BIT IN ERASABLE MEMORY.
000052:
000053:                                                                                                  #  CALLING SEQUENCES ARE AS FOLLOWS --
000054:                                                                                                  #                TC      UPFLAG                  TC      DOWNFLAG
000055:                                                                                                  #                ADRES   NAME OF FLAG            ADRES   NAME OF FLAG
000056:
000057:                                                                                                  #  RETURN IS TO THE LOCATION FOLLOWING THE "ADRES" ABOUT .58 MS AFTER THE "TC".
000058:                                                                                                  #  UPON RETURN A CONTAINS THE CURRENT FLAGWRD SETTING.
000059:
000060:    5504                                           BLOCK    02
000061:    4000                                           SETLOC   FFTAG1
000062:    4000                                           BANK
000063:    5504                                           COUNT*   $$/FLAG
000064:
000065:    5504           30002        UPFLAG             CA       Q
000066:    5505           05522                           TC       DEBIT
000067:    5506           40000                           COM                                            #  +(15 - BIT)
000068:    5507           00006                           EXTEND
000069:    5510           04001                           ROR      LCHAN                                 #  SET BIT
000070:    5511           50061        COMFLAG            INDEX    ITEMP1
000071:    5512           54074                           TS       FLAGWRD0
000072:    5513           22063                           LXCH     ITEMP3
000073:    5514           00003                           RELINT
000074:    5515           00001                           TC       L
000075:
000076:    5516           30002        DOWNFLAG           CA       Q
000077:    5517           05522                           TC       DEBIT
000078:    5520           70001                           MASK     L                                     #  RESET BIT
000079:    5521           15511                           TCF      COMFLAG
000080:
000081:    5522           64753        DEBIT              AD       ONE                                   #  CET DE BITS
000082:    5523           00004                           INHINT
000083:    5524           54063                           TS       ITEMP3
000084:    5525           34762                           CA       LOW4                                  #  DEC15
000085:    5526           54061                           TS       ITEMP1
000086:    5527           50063                           INDEX    ITEMP3
000087:    5530           27777                           CA       0          -1                         #  ADRES
000088:    5531           54001                           TS       L
000089:    5532           34755                           CA       ZERO


000091:    5533           00006                           EXTEND
000092:    5534           10061                           DV       ITEMP1                                #  A = FLAGWRD, L = (15 - BIT)
000093:    5535           52062                           DXCH     ITEMP1
000094:    5536           50061                           INDEX    ITEMP1
000095:    5537           30074                           CA       FLAGWRD0
000096:    5540           54001                           TS       L                                     #  CURRENT STATE
000097:    5541           50062                           INDEX    ITEMP2
000098:    5542           44735                           CS       BIT15                                 #  -(15 - BIT)
000099:    5543           00002                           TC       Q
000100:


000102:                                                                                                  #  DELAYJOB -- A GENERAL ROUTINE TO DELAY A JOB A SPECIFIC AMOUNT OF TIME BEFORE PICKING UP AGAIN.
000103:
000104:                                                                                                  #  ENTRANCE REQUIREMENTS ...
000105:                                                                                                  #                CAF     DT              # DELAY JOB FOR DT CENTISECS
000106:                                                                                                  #                TC      BANKCALL
000107:                                                                                                  #                CADR    DELAYJOB
000108:
000109: 06,3772                                           BANK     06
000110: 00,2000                                           SETLOC   DLAYJOB
000111: 00,2000                                           BANK
000112:
000113:                                                                                                  #  THIS MUST REMAIN IN BANK 0 ****************************************
000114:
000115: 00,3735                                           COUNT*   $$/DELAY
000116: 00,3735           35000        2SECDELY           CAF      2SECS
000117: 00,3736           00004        DELAYJOB           INHINT
000118: 00,3737           54002                           TS       Q                                     #  STORE DELAY DT IN Q FOR DLY -1 IN
000119: 00,3740           34752                           CAF      DELAYNUM                              #  WAITLIST
000120: 00,3741           54070        DELLOOP            TS       RUPTREG1
000121: 00,3742           50000                           INDEX    A
000122: 00,3743           31323                           CA       DELAYLOC                              #  IS THIS DELAYLOC AVAILABLE
000123: 00,3744           00006                           EXTEND
000124: 00,3745           13753                           BZF      OK2DELAY                              #  YES
000125:
000126: 00,3746           10070                           CCS      RUPTREG1                              #  NO, TRY NEXT DELAYLOC
000127: 00,3747           13741                           TCF      DELLOOP
000128:
000129: 00,3750           52134                           DXCH     BUF2
000130: 00,3751           05706                           TC       BAILOUT1                              #  NO AVAILABLE LOCS.
000131: 00,3752           31104                           OCT      31104
000132:
000133: 00,3753           33773        OK2DELAY           CA       TCSLEEP                               #  SET WAITLIST IMMEDIATE RETURN
000134: 00,3754           54061                           TS       WAITEXIT
000135:
000136: 00,3755           30004                           CA       FBANK
000137: 00,3756           60070                           AD       RUPTREG1                              #  STORE BBANK FOR TASK CALL
000138: 00,3757           54001                           TS       L
000139:
000140: 00,3760           33774                           CAF      WAKECAD                               #  STORE CADR FOR TASK CALL
000141: 00,3761           15211                           TCF      DLY2       -1                         #  DLY IS IN WAITLIST ROUTINE
000142:
000143: 00,3762           04645        TCGETCAD           TC       MAKECADR                              #  GET CALLER'S FCADR
000144:
000145: 00,3763           50070                           INDEX    RUPTREG1
000146: 00,3764           55323                           TS       DELAYLOC                              #  SAVE DELAY CADRS
000147:
000148: 00,3765           05133                           TC       JOBSLEEP
000149:
000150: 00,3766           34755        WAKER              CAF      ZERO
000151: 00,3767           50006                           INDEX    BBANK


000153: 00,3770           57323                           XCH      DELAYLOC                              #  MAKE DELAYLOC AVAILABLE
000154: 00,3771           05137                           TC       JOBWAKE
000155:
000156: 00,3772           05261                           TC       TASKOVER
000157:
000158: 00,3773           03760        TCSLEEP            GENADR   TCGETCAD   -2
000159: 00,3774           03766        WAKECAD            GENADR   WAKER
000160:


000162:                                                                                                  #  GENTRAN, A BLOCK TRANSFER ROUTINE
000163:                                                                                                  #  WRITTEN BY D. EYLES
000164:                                                                                                  #  MOD 1 BY KERNAN                               UTILITYM REV 17 11/18/67
000165:                                                                                                  #  MOD 2 BY SCHULENBERG -- (REMOVE RELINT) -- SKIPPER REV 4 2/28/68
000166:
000167:                                                                                                  #  THIS ROUTINE IS USEFUL FOR TRANSFERRING N CONSECUTIVE ERASABLE OR FIXED QUANTITIES TO SOME OTHER N
000168:                                                                                                  #  CONSECUTIVE ERASABLE LOCATIONS.  IF BOTH BLOCKS OF DATA ARE IN SWITCHABLE EBANKS, THEY MUST BE IN THE SAME ONE.
000169:
000170:                                                                                                  #  GENTRAN IS CALLABLE IN A JOB AS WELL AS A RUPT.  THE CALLING SEQUENCE IS:
000171:                                                                                                  #        I       CA      N-1             # NUMBER OF QUANTITIES MINUS ONE.
000172:                                                                                                  #        I +1    TC      GENTRAN         # IN FIXED-FIXED.
000173:                                                                                                  #        I +2    ADRES   L               # STARTING ADRES OF DATA TO BE MOVED.
000174:                                                                                                  #        I +3    ADRES   M               # STARTING ADRES OF DUPLICATION BLOCK.
000175:                                                                                                  #        I +4                            # RETURNS HERE.
000176:
000177:                                                                                                  #  GENTRAN TAKES 25 MCT'S (300 MICROSECONDS) PER ITEM + 5 MCT'S (60 MICS) FOR ENTERING AND EXITING.
000178:                                                                                                  #  A, L, AND ITEMP1 ARE NOT PRESERVED.
000179:
000180:    5544                                           BLOCK    02
000181:    4000                                           SETLOC   FFTAG4
000182:    4000                                           BANK
000183:
000184:    5544     0061                                  EBANK=   ITEMP1
000185:
000186:    5544                                           COUNT*   $$/TRAN
000187:
000188:    5544           00004        GENTRAN            INHINT
000189:    5545           54061                           TS       ITEMP1                                #  SAVE N-1
000190:    5546           50002                           INDEX    Q                                     #  C(Q) = ADRES L.
000191:    5547           60000                           AD       0                                     #  ADRES (L + N - 1).
000192:    5550           50000                           INDEX    A
000193:    5551           30000                           CA       0                                     #  C(ABOVE).
000194:    5552           54001                           TS       L                                     #  SAVE DATA.
000195:    5553           30061                           CA       ITEMP1
000196:    5554           50002                           INDEX    Q
000197:    5555           60001                           AD       1                                     #  ADRES (M + N - 1).
000198:    5556           50000                           INDEX    A
000199:    5557           22000                           LXCH     0                                     #  STUFF IT.
000200:    5560           10061                           CCS      ITEMP1                                #  LOOP UNTIL N-1 = 0.
000201:    5561           15545                           TCF      GENTRAN    +1
000202:    5562           16744                           TCF      Q+2                                   #  RETURN TO CALLER.
000203:


000205:                                                                                                  #  B5OFF         ZERO BIT 5 OF EXTVBACK, WHICH IS SET BY TESTXACT.
000206:                                                                                                  #  MAY BE USED AS NEEDED BY ANY EXTENDED VERB WHICH HAS DONE TESTXACT
000207:
000208:    5563                                           COUNT*   $$/EXTVB
000209:
000210:    5563           44747        B5OFF              CS       BIT5
000211:    5564           71043                           MASK     EXTVBACT
000212:    5565           55043                           TS       EXTVBACT
000213:    5566           05155                           TC       ENDOFJOB
000214:
000215:
000216:

End of include-file SERVICE_ROUTINES.agc.  Parent file is MAIN.agc


