
Source Code


000002:                                                                                                  ## Copyright:   Public domain.
000003:                                                                                                  ## Filename:    SERVICE_ROUTINES.agc
000004:                                                                                                  ## Purpose:     A section of Luminary 1C, revision 131.
000005:                                                                                                  ##              It is part of the source code for the Lunar Module's (LM)
000006:                                                                                                  ##              Apollo Guidance Computer (AGC) for Apollo 13.
000007:                                                                                                  ##              This file is intended to be a faithful transcription, except
000008:                                                                                                  ##              that the code format has been changed to conform to the
000009:                                                                                                  ##              requirements of the yaYUL assembler rather than the
000010:                                                                                                  ##              original YUL assembler.
000011:                                                                                                  ## Reference:   pp. 1366-1372
000012:                                                                                                  ## Contact:     Ron Burkey <info@sandroid.org>.
000013:                                                                                                  ## Website:     www.ibiblio.org/apollo/index.html
000014:                                                                                                  ## Mod history: 06/06/03 RSB.   Began transcribing.
000015:                                                                                                  ##              05/14/05 RSB    Corrected website references above.
000016:                                                                                                  ##              2017-01-06 RSB  Page numbers now agree with those on the
000017:                                                                                                  ##                              original hardcopy, as opposed to the PDF page
000018:                                                                                                  ##                              numbers in 1701.pdf.
000019:                                                                                                  ##              2017-02-28 RSB  Proofed comment text using octopus/ProoferComments.
000020:                                                                                                  ##              2017-03-01 RSB  Fixed lingering comment-text typos.
000021:                                                                                                  ##              2017-03-14 RSB  Comment-text fixes noted in proofing Luminary 116.
000022:                                                                                                  ##              2017-03-16 RSB  Comment-text fixes identified in 5-way
000023:                                                                                                  ##                              side-by-side diff of Luminary 69/99/116/131/210.
000024:


000026: 10,3545                                           BANK     10
000027: 10,2000                                           SETLOC   DISPLAYS
000028: 10,2000                                           BANK
000029: 10,3545                                           COUNT*   $$/DSPLA
000030:
000031: 10,3545           00004        UPENT2             INHINT
000032: 10,3546           75650                           MASK     OCT77770
000033: 10,3547           54001                           TS       L
000034: 10,3550           40100                           CS       FLAGWRD4
000035: 10,3551           70001                           MASK     L
000036: 10,3552           26100                           ADS      FLAGWRD4
000037: 10,3553           00003        JOIN               RELINT
000038: 10,3554           16742                           TCF      Q+1
000039:
000040: 10,3555           00004        DOWNENT2           INHINT
000041: 10,3556           75650                           MASK     OCT77770
000042: 10,3557           40000                           COM
000043: 10,3560           70100                           MASK     FLAGWRD4
000044: 10,3561           54100                           TS       FLAGWRD4
000045: 10,3562           13553                           TCF      JOIN
000046:
000047: 10,3563     4757               OCT7               EQUALS   SEVEN
000048:


000050:                                                                                                  #  UPFLAG AND DOWNFLAG ARE ENTIRELY GENERAL FLAG SETTING AND CLEARING SUBROUTINES.  USING THEM, WHETHER OR
000051:                                                                                                  #  NOT IN INTERRUPT, ONE MAY SET OR CLEAR ANY SINGLE, NAMED BIT IN ANY ERASABLE REGISTER, SUBJECT OF COURSE TO
000052:                                                                                                  #  EBANK SETTING.  A "NAMED" BIT, AS THE WORD IS USED HERE, IS ANY BIT WITH A NAME FORMALLY ASSIGNED BY THE YUL
000053:                                                                                                  #  ASSEMBLER.
000054:
000055:                                                                                                  #  AT PRESENT THE ONLY NAMED BITS ARE THOSE IN THE FLAGWORDS.  ASSEMBLER CHANGES WILL MAKE IT POSSIBLE TO
000056:                                                                                                  #  NAME ANY BIT IN ERASABLE MEMORY.
000057:
000058:                                                                                                  #  CALLING SEQUENCES ARE AS FOLLOWS:-
000059:                                                                                                  #                TC      UPFLAG                  TC      DOWNFLAG
000060:                                                                                                  #                ADRES   NAME OF FLAG            ADRES   NAME OF FLAG
000061:
000062:                                                                                                  #  RETURN IS TO THE LOCATION FOLLOWING THE "ADRES" ABOUT .58 MS AFTER THE "TC".
000063:                                                                                                  #  UPON RETURN A CONTAINS THE CURRENT FLAGWRD SETTING.
000064:
000065:    5504                                           BLOCK    02
000066:    4000                                           SETLOC   FFTAG1
000067:    4000                                           BANK
000068:    5504                                           COUNT*   $$/FLAG
000069:
000070:    5504           30002        UPFLAG             CA       Q
000071:    5505           05522                           TC       DEBIT
000072:    5506           40000                           COM                                            #  +(15 - BIT)
000073:    5507           00006                           EXTEND
000074:    5510           04001                           ROR      LCHAN                                 #  SET BIT
000075:    5511           50061        COMFLAG            INDEX    ITEMP1
000076:    5512           54074                           TS       FLAGWRD0
000077:    5513           22063                           LXCH     ITEMP3
000078:    5514           00003                           RELINT
000079:    5515           00001                           TC       L
000080:
000081:    5516           30002        DOWNFLAG           CA       Q
000082:    5517           05522                           TC       DEBIT
000083:    5520           70001                           MASK     L                                     #  RESET BIT
000084:    5521           15511                           TCF      COMFLAG
000085:
000086:    5522           64753        DEBIT              AD       ONE                                   #  GET DE BITS
000087:    5523           00004                           INHINT
000088:    5524           54063                           TS       ITEMP3
000089:    5525           34762                           CA       LOW4                                  #  DEC15
000090:    5526           54061                           TS       ITEMP1
000091:    5527           50063                           INDEX    ITEMP3
000092:    5530           27777                           CA       0          -1                         #  ADRES
000093:    5531           54001                           TS       L
000094:    5532           34755                           CA       ZERO


000096:    5533           00006                           EXTEND
000097:    5534           10061                           DV       ITEMP1                                #  A = FLAGWRD, L = (15 - BIT)
000098:    5535           52062                           DXCH     ITEMP1
000099:    5536           50061                           INDEX    ITEMP1
000100:    5537           30074                           CA       FLAGWRD0
000101:    5540           54001                           TS       L                                     #  CURRENT STATE
000102:    5541           50062                           INDEX    ITEMP2
000103:    5542           44735                           CS       BIT15                                 #  -(15 - BIT)
000104:    5543           00002                           TC       Q
000105:


000107:                                                                                                  #  DELAYJOB - A GENERAL ROUTINE TO DELAY A JOB A SPECIFIC AMOUNT OF TIME BEFORE PICKING UP AGAIN.
000108:
000109:                                                                                                  #  ENTRANCE REQUIREMENTS ...
000110:                                                                                                  #                CAF     DT              DELAY JOB FOR DT CENTISECS
000111:                                                                                                  #                TC      BANKCALL
000112:                                                                                                  #                CADR    DELAYJOB
000113:
000114: 06,3772                                           BANK     06
000115: 00,2000                                           SETLOC   DLAYJOB
000116: 00,2000                                           BANK
000117:
000118:                                                                                                  #  THIS MUST REMAIN IN BANK 0 *****************************************
000119:
000120: 00,3735                                           COUNT*   $$/DELAY
000121: 00,3735           35000        2SECDELY           CAF      2SECS
000122: 00,3736           00004        DELAYJOB           INHINT
000123: 00,3737           54002                           TS       Q                                     #  STORE DELAY DT IN Q FOR DLY -1 IN
000124: 00,3740           34752                           CAF      DELAYNUM                              #  WAITLIST
000125: 00,3741           54070        DELLOOP            TS       RUPTREG1
000126: 00,3742           50000                           INDEX    A
000127: 00,3743           31323                           CA       DELAYLOC                              #  IS THIS DELAYLOC AVAILABLE
000128: 00,3744           00006                           EXTEND
000129: 00,3745           13753                           BZF      OK2DELAY                              #  YES
000130:
000131: 00,3746           10070                           CCS      RUPTREG1                              #  NO, TRY NEXT DELAYLOC
000132: 00,3747           13741                           TCF      DELLOOP
000133:
000134: 00,3750           52134                           DXCH     BUF2
000135: 00,3751           05706                           TC       BAILOUT1                              #  NO AVAILABLE LOCS.
000136: 00,3752           31104                           OCT      31104
000137:
000138: 00,3753           33773        OK2DELAY           CA       TCSLEEP                               #  SET WAITLIST IMMEDIATE RETURN
000139: 00,3754           54061                           TS       WAITEXIT
000140:
000141: 00,3755           30004                           CA       FBANK
000142: 00,3756           60070                           AD       RUPTREG1                              #  STORE BBANK FOR TASK CALL
000143: 00,3757           54001                           TS       L
000144:
000145: 00,3760           33774                           CAF      WAKECAD                               #  STORE CADR FOR TASK CALL
000146: 00,3761           15211                           TCF      DLY2       -1                         #  DLY IS IN WAITLIST ROUTINE
000147:
000148: 00,3762           04645        TCGETCAD           TC       MAKECADR                              #  GET CALLERS FCADR
000149:
000150: 00,3763           50070                           INDEX    RUPTREG1
000151: 00,3764           55323                           TS       DELAYLOC                              #  SAVE DELAY CADRS
000152:
000153: 00,3765           05133                           TC       JOBSLEEP
000154:
000155: 00,3766           34755        WAKER              CAF      ZERO
000156: 00,3767           50006                           INDEX    BBANK


000158: 00,3770           57323                           XCH      DELAYLOC                              #  MAKE DELAYLOC AVAILABLE
000159: 00,3771           05137                           TC       JOBWAKE
000160:
000161: 00,3772           05261                           TC       TASKOVER
000162:
000163: 00,3773           03760        TCSLEEP            GENADR   TCGETCAD   -2
000164: 00,3774           03766        WAKECAD            GENADR   WAKER
000165:


000167:                                                                                                  #  GENTRAN, A BLOCK TRANSFER ROUTINE.
000168:                                                                                                  #  WRITTEN BY D. EYLES
000169:                                                                                                  #  MOD 1 BY KERNAN                               UTILITYM REV 17 11/18/67
000170:                                                                                                  #  MOD 2 BY SCHULENBERG    (REMOVE RELINT)    SKIPPER REV 4 2/28/68
000171:
000172:                                                                                                  #  THIS ROUTINE IS USEFULL FOR TRANSFERING N CONSECUTIVE ERASABLE OR FIXED QUANTITIES TO SOME OTHER N
000173:                                                                                                  #  CONSECUTIVE ERASABLE LOCATIONS.  IF BOTH BLOCKS OF DATA ARE IN SWITCHABLE EBANKS, THEY MUST BE IN THE SAME ONE.
000174:
000175:                                                                                                  #  GENTRAN IS CALLABLE IN A JOB AS WELL AS A RUPT.  THE CALLING SEQUENCE IS:
000176:                                                                                                  #        I       CA      N-1             # OF QUANTITIES MINUS ONE.
000177:                                                                                                  #        I +1    TC      GENTRAN         IN FIXED-FIXED.
000178:                                                                                                  #        I +2    ADRES   L               STARTING ADRES OF DATA TO BE MOVED.
000179:                                                                                                  #        I +3    ADRES   M               STARTING ADRES OF DUPLICATION BLOCK.
000180:                                                                                                  #        I +4                            RETURNS HERE.
000181:
000182:                                                                                                  #  GENTRAN TAKES 25 MCT'S (300 MICROSECONDS) PER ITEM + 5 MCT'S (60 MICS) FOR ENTERING AND EXITING.
000183:                                                                                                  #  A, L AND ITEMP1 ARE NOT PRESERVED.
000184:
000185:    5544                                           BLOCK    02
000186:    4000                                           SETLOC   FFTAG4
000187:    4000                                           BANK
000188:
000189:    5544     0061                                  EBANK=   ITEMP1
000190:
000191:    5544                                           COUNT*   $$/TRAN
000192:
000193:    5544           00004        GENTRAN            INHINT
000194:    5545           54061                           TS       ITEMP1                                #  SAVE N-1.
000195:    5546           50002                           INDEX    Q                                     #  C(Q) = ADRES L.
000196:    5547           60000                           AD       0                                     #  ADRES (L + N - 1).
000197:    5550           50000                           INDEX    A
000198:    5551           30000                           CA       0                                     #  C(ABOVE).
000199:    5552           54001                           TS       L                                     #  SAVE DATA.
000200:    5553           30061                           CA       ITEMP1
000201:    5554           50002                           INDEX    Q
000202:    5555           60001                           AD       1                                     #  ADRES (M + N - 1).
000203:    5556           50000                           INDEX    A
000204:    5557           22000                           LXCH     0                                     #  STUFF IT.
000205:    5560           10061                           CCS      ITEMP1                                #  LOOP UNTIL N-1 = 0.
000206:    5561           15545                           TCF      GENTRAN    +1
000207:    5562           16744                           TCF      Q+2                                   #  RETURN TO CALLER.
000208:


000210:                                                                                                  #  B5OFF         ZERO BIT 5 OF EXTVBACT, WHICH IS SET BY TESTXACT.
000211:                                                                                                  #  MAY BE USED AS NEEDED BY ANY EXTENDED VERB WHICH HAS DONE TESTXACT
000212:
000213:    5563                                           COUNT*   $$/EXTVB
000214:
000215:    5563           44747        B5OFF              CS       BIT5
000216:    5564           71043                           MASK     EXTVBACT
000217:    5565           55043                           TS       EXTVBACT
000218:    5566           05155                           TC       ENDOFJOB
000219:
000220:
000221:

End of include-file SERVICE_ROUTINES.agc.  Parent file is MAIN.agc


