
Source Code


000002:                                                                                                  ## Copyright:   Public domain.
000003:                                                                                                  ## Filename:    SINGLE_PRECISION_SUBROUTINES.agc
000004:                                                                                                  ## Purpose:     A section of Luminary 1C, revision 131.
000005:                                                                                                  ##              It is part of the source code for the Lunar Module's (LM)
000006:                                                                                                  ##              Apollo Guidance Computer (AGC) for Apollo 13.
000007:                                                                                                  ##              This file is intended to be a faithful transcription, except
000008:                                                                                                  ##              that the code format has been changed to conform to the
000009:                                                                                                  ##              requirements of the yaYUL assembler rather than the
000010:                                                                                                  ##              original YUL assembler.
000011:                                                                                                  ## Reference:   p. 1096
000012:                                                                                                  ## Contact:     Ron Burkey <info@sandroid.org>.
000013:                                                                                                  ## Website:     www.ibiblio.org/apollo/index.html
000014:                                                                                                  ## Mod history: 05/31/03 RSB.   Began transcribing.
000015:                                                                                                  ##              05/14/05 RSB    Corrected website references above.
000016:                                                                                                  ##              2017-01-06 RSB  Page numbers now agree with those on the
000017:                                                                                                  ##                              original harcopy, as opposed to the PDF page
000018:                                                                                                  ##                              numbers in 1701.pdf.
000019:                                                                                                  ##              2017-02-27 RSB  Proofed comment text using octopus/ProoferComments.
000020:


000022:    5032                                           BLOCK    02
000023:
000024:                                                                                                  #  SINGLE PRECISION SINE AND COSINE
000025:
000026:    5032                                           COUNT*   $$/INTER
000027:    5032           64736        SPCOS              AD       HALF                                  #  ARGUMENTS SCALED AT PI
000028:    5033           55075        SPSIN              TS       TEMK
000029:    5034           15036                           TCF      SPT
000030:    5035           41075                           CS       TEMK
000031:    5036           60000        SPT                DOUBLE
000032:    5037           55075                           TS       TEMK
000033:    5040           15051                           TCF      POLLEY
000034:    5041           57075                           XCH      TEMK
000035:    5042           51075                           INDEX    TEMK
000036:    5043           64734                           AD       LIMITS
000037:    5044           40000                           COM
000038:    5045           61075                           AD       TEMK
000039:    5046           55075                           TS       TEMK
000040:    5047           15051                           TCF      POLLEY
000041:    5050           15067                           TCF      ARG90
000042:    5051           00006        POLLEY             EXTEND
000043:    5052           71075                           MP       TEMK
000044:    5053           55076                           TS       SQ
000045:    5054           00006                           EXTEND
000046:    5055           75005                           MP       C5/2
000047:    5056           67742                           AD       C3/2
000048:    5057           00006                           EXTEND
000049:    5060           71076                           MP       SQ
000050:    5061           67722                           AD       C1/2
000051:    5062           00006                           EXTEND
000052:    5063           71075                           MP       TEMK
000053:    5064           20001                           DDOUBL
000054:    5065           55075                           TS       TEMK
000055:    5066           00002                           TC       Q
000056:    5067           50000        ARG90              INDEX    A
000057:    5070           44734                           CS       LIMITS
000058:    5071           00002                           TC       Q                                     #  RESULT SCALED AT 1
000059:
000060:

End of include-file SINGLE_PRECISION_SUBROUTINES.agc.  Parent file is MAIN.agc


