
Source Code
000001:                                                                                                 #  Copyright:     Public domain.
000002:                                                                                                 #  Filename:      SINGLE_PRECISION_SUBROUTINES.agc
000003:                                                                                                 #  Purpose:       A section of Luminary 1C, revision 131.
000004:                                                                                                 #                 It is part of the source code for the Lunar Module's (LM)
000005:                                                                                                 #                 Apollo Guidance Computer (AGC) for Apollo 13 and Apollo 14.
000006:                                                                                                 #                 This file is intended to be a faithful transcription, except
000007:                                                                                                 #                 that the code format has been changed to conform to the
000008:                                                                                                 #                 requirements of the yaYUL assembler rather than the
000009:                                                                                                 #                 original YUL assembler.
000010:                                                                                                 #  Reference:     p. 1101 of 1729.pdf.
000011:                                                                                                 #  Contact:       Ron Burkey <info@sandroid.org>.
000012:                                                                                                 #  Website:       www.ibiblio.org/apollo/index.html
000013:                                                                                                 #  Mod history:   05/31/03 RSB.   Began transcribing.
000014:                                                                                                 #                 05/14/05 RSB    Corrected website references above.
000015:
000016:                                                                                                 #  Page 1101
000017:    5032                                          BLOCK    02
000018:
000019:                                                                                                 #  SINGLE PRECISION SINE AND COSINE
000020:
000021:    5032                                          COUNT*   $$/INTER
000022:    5032           64736        SPCOS             AD       HALF                                  #  ARGUMENTS SCALED AT PI
000023:    5033           55075        SPSIN             TS       TEMK
000024:    5034           15036                          TCF      SPT
000025:    5035           41075                          CS       TEMK
000026:    5036           60000        SPT               DOUBLE
000027:    5037           55075                          TS       TEMK
000028:    5040           15051                          TCF      POLLEY
000029:    5041           57075                          XCH      TEMK
000030:    5042           51075                          INDEX    TEMK
000031:    5043           64734                          AD       LIMITS
000032:    5044           40000                          COM
000033:    5045           61075                          AD       TEMK
000034:    5046           55075                          TS       TEMK
000035:    5047           15051                          TCF      POLLEY
000036:    5050           15067                          TCF      ARG90
000037:    5051           00006        POLLEY            EXTEND
000038:    5052           71075                          MP       TEMK
000039:    5053           55076                          TS       SQ
000040:    5054           00006                          EXTEND
000041:    5055           75005                          MP       C5/2
000042:    5056           67742                          AD       C3/2
000043:    5057           00006                          EXTEND
000044:    5060           71076                          MP       SQ
000045:    5061           67722                          AD       C1/2
000046:    5062           00006                          EXTEND
000047:    5063           71075                          MP       TEMK
000048:    5064           20001                          DDOUBL
000049:    5065           55075                          TS       TEMK
000050:    5066           00002                          TC       Q
000051:    5067           50000        ARG90             INDEX    A
000052:    5070           44734                          CS       LIMITS
000053:    5071           00002                          TC       Q                                     #  RESULT SCALED AT 1.
000054:
000055:

End of include-file SINGLE_PRECISION_SUBROUTINES.agc.  Parent file is MAIN.agc


