
Source Code


000002:                                                                                                  ## Copyright:   Public domain.
000003:                                                                                                  ## Filename:    SPS_BACK-UP_RCS_CONTROL.agc
000004:                                                                                                  ## Purpose:     A section of Luminary 1C, revision 131.
000005:                                                                                                  ##              It is part of the source code for the Lunar Module's (LM)
000006:                                                                                                  ##              Apollo Guidance Computer (AGC) for Apollo 13.
000007:                                                                                                  ##              This file is intended to be a faithful transcription, except
000008:                                                                                                  ##              that the code format has been changed to conform to the
000009:                                                                                                  ##              requirements of the yaYUL assembler rather than the
000010:                                                                                                  ##              original YUL assembler.
000011:                                                                                                  ## Reference:   pp. 1499-1502
000012:                                                                                                  ## Contact:     Ron Burkey <info@sandroid.org>.
000013:                                                                                                  ## Website:     www.ibiblio.org/apollo/index.html
000014:                                                                                                  ## Mod history: 06/08/03 RSB.   Began transcribing.
000015:                                                                                                  ##              05/14/05 RSB    Corrected website reference above.
000016:                                                                                                  ##              2010-10-25 JL   Indentation fixes.
000017:                                                                                                  ##              2017-01-06 RSB  Page numbers now agree with those on the
000018:                                                                                                  ##                              original hardcopy, as opposed to the PDF page
000019:                                                                                                  ##                              numbers in 1701.pdf.
000020:                                                                                                  ##              2017-02-28 RSB  Proofed comment text using octopus/ProoferComments.
000021:                                                                                                  ##              2017-03-14 RSB  Comment-text fixes noted in proofing Luminary 116.
000022:


000024:                                                                                                  #  PROGRAM NAME:         SPSRCS
000025:                                                                                                  #  AUTHOR:               EDGAR M. OSHIKA (AC ELECTRONICS)
000026:                                                                                                  #  MODIFIED:             TO RETURN TO ALL AXES VIA Q BY P. S. WEISSMAN, OCT 7, 1968
000027:                                                                                                  #  MODIFIED TO IMPROVE BENDING STABILITY BY G. KALAN, FEB. 14, 1969
000028:
000029:                                                                                                  #  FUNCTIONAL DESCRIPTION:
000030:                                                                                                  #        THIS PROGRAM CONTROLS THE FIRING OF ALL RCS JETS IN THE DOCKED CONFIGURATION ACCORDING TO THE FOLLOWING PHASE
000031:                                                                                                  #        PLANE LOGIC.
000032:
000033:                                                                                                  #        1. JET SENSE TEST (SPSRCS)
000034:                                                                                                  #                IF JETS ARE FIRING NEGATIVELY, SET OLDSENSE NEGATIVE AND CONTINUE
000035:                                                                                                  #                IF JETS ARE FIRING POSITIVELY, SET OLDSENSE POSITIVE AND CONTINUE
000036:                                                                                                  #                IF JETS ARE NOT FIRING, SET OLDSENSE TO ZERO AND GO TO OUTER RATE LIMIT TEST
000037:
000038:                                                                                                  #        2. RATE DEAD BAND TEST
000039:                                                                                                  #                IF JETS ARE FIRING NEGATIVELY AND RATE IS GREATER THAN TARGET RATE, LEAVE
000040:                                                                                                  #                JETS ON AND GO TO INHIBITION LOGIC.  OTHERWISE, CONTINUE.
000041:                                                                                                  #                IF JETS ARE FIRING POSITIVELY AND RATE IS LESS THAN TARGET RATE, LEAVE
000042:                                                                                                  #                JETS ON AND GO TO INHIBITION LOGIC.  OTHERWISE, CONTINUE.
000043:
000044:                                                                                                  #        3. OUTER RATE LIMIT TEST (SPSSTART)
000045:                                                                                                  #                IF MAGNITUDE OF EDOT IS GREATER THAN 1.73 DEG/SEC SET JET FIRING TIME
000046:                                                                                                  #                TO REDUCE RATE AND GO TO INHIBITION LOGIC.  OTHERWISE, CONTINUE.
000047:
000048:                                                                                                  #        4. COAST ZONE TEST
000049:                                                                                                  #                IF STATE (E,EDOT) IS BELOW LINE E + 4 X EDOT > -1.4 DEG AND EDOT IS LESS THAN 1.30 DEG/SEC SET JET TIME POSI-
000050:                                                                                                  #                TIVE AND CONTINUE.  OTHERWISE, SET JET FIRING TIME TO ZERO AND CONTINUE.
000051:                                                                                                  #                IF STATE IS ABOVE LINE E + 4 X EDOT > +1.4 DEG AND EDOT IS GREATER THAN -1.30 DEG/SEC, SET JET TIME NEGATIVE
000052:                                                                                                  #                AND CONTINUE.  OTHERWISE, SET JET FIRING TIME TO ZERO AND CONTINUE.
000053:
000054:                                                                                                  #        5. INHIBITION LOGIC
000055:                                                                                                  #                IF OLDSENSE IS NON-ZERO:
000056:                                                                                                  #                        A) RETURN IF JET TIME HAS SAME SIGN AS OLDSENSE
000057:                                                                                                  #                        B) SET INHIBITION COUNTER* AND RETURN IF JET TIME IS ZERO
000058:                                                                                                  #                        C) SET INHIBITION COUNTER,* SET JET TIME TO ZERO AND RETURN IF SIGN
000059:                                                                                                  #                           OF JET TIME IS OPPOSITE TO THAT OF OLDSENSE
000060:                                                                                                  #                IF OLDSENSE IS ZERO:
000061:                                                                                                  #                        A) RETURN IF INHIBITION COUNTER IS NOT POSITIVE
000062:                                                                                                  #                        B) SET JET TIME TO ZERO AND RETURN IF INHIBITION COUNTER IS POSITIVE
000063:                                                                                                  #                *NOTE: INHIBITION COUNTERS CAN BE SET TO 4 OR 10 FOR THE P,AND UV AXES,
000064:                                                                                                  #                RESPECTIVELY, IN SPSRCS.  THEY ARE DECREMENTED BY ONE AT THE BEGINNING OF


000066:                                                                                                  #                EACH DAP PASS.
000067:
000068:                                                                                                  #        THE MINIMUM PULSE WIDTH OF THIS CONTROLLER IS DETERMINED BY THE REPETITION RATE AT WHICH THIS ROUTINE IS CALLED
000069:                                                                                                  #        AND IS NOMINALLY 100 MS FOR ALL AXES IN DRIFTING FLIGHT.  DURING POWERED FLIGHT THE MINIMUM IS 100 MS FOR THE
000070:                                                                                                  #        P AXIS AND 200 MS FOR THE CONTROL OF THE U AND V AXES.
000071:
000072:                                                                                                  #  CALLING SEQUENCE:
000073:                                                                                                  #                INHINT
000074:                                                                                                  #                TC      IBNKCALL
000075:                                                                                                  #                CADR    SPSRCS
000076:
000077:                                                                                                  #  EXIT:
000078:                                                                                                  #                TC      Q
000079:
000080:                                                                                                  #  ALARM/ABORT MODE:     NONE
000081:
000082:                                                                                                  #  SUBROUTINES CALLED:   NONE
000083:
000084:                                                                                                  #  INPUT:                E, EDOT
000085:                                                                                                  #                        TJP, TJV, TJU           TJ MUST NOT BE NEGATIVE ZERO
000086:
000087:                                                                                                  #  OUTPUT:               TJP, TJV, TJU
000088:
000089: 21,3655                                           BANK     21
000090: 21,2000                                           SETLOC   DAPS4
000091: 21,2000                                           BANK
000092:
000093: 21,3655                                           COUNT*   $$/DAPBU
000094:
000095: 21,3655  E6,1525                                  EBANK=   TJU
000096: 21,3655           00632        RATELIM2           OCT      00632                                 #  1.125 DEG/SEC
000097: 21,3656           34736        POSTHRST           CA       HALF
000098:
000099: 21,3657           51505                           NDX      AXISCTR
000100: 21,3660           55525                           TS       TJU
000101: 21,3661           11744                           CCS      OLDSENSE
000102: 21,3662           13702                           TCF      POSCHECK                              #  JETS FIRING POSITIVELY
000103: 21,3663           13705                           TCF      CTRCHECK                              #  JETS OFF.  CHECK INHIBITION CTR
000104: 21,3664           51505        NEGCHECK           INDEX    AXISCTR                               #  JETS FIRING NEGATIVELY
000105: 21,3665           41525                           CS       TJU
000106: 21,3666           10000                           CCS      A
000107: 21,3667           00002                           TC       Q                                     #  RETURN
000108: 21,3670           13672                           TCF      +2
000109: 21,3671           13672                           TCF      +1                                    #  JETS COMMANDED OFF.  SET CTR AND RETURN
000110: 21,3672           51505        SETCTR             INDEX    AXISCTR                               #  JET FIRING REVERSAL COMMANDED.  SET CTR,
000111: 21,3673           33714                           CA       UTIME                                 #  SET JET TIME TO ZERO,AND RETURN


000113: 21,3674           51505                           INDEX    AXISCTR
000114: 21,3675           55767                           TS       UJETCTR
000115: 21,3676           34755        ZAPTJ              CA       ZERO
000116: 21,3677           51505                           INDEX    AXISCTR
000117: 21,3700           55525                           TS       TJU
000118: 21,3701           00002                           TC       Q
000119: 21,3702           51505        POSCHECK           INDEX    AXISCTR
000120: 21,3703           31525                           CA       TJU
000121: 21,3704           13666                           TCF      NEGCHECK   +2
000122: 21,3705           51505        CTRCHECK           INDEX    AXISCTR                               #  CHECK JET INHIBITION COUNTER
000123: 21,3706           11767                           CCS      UJETCTR
000124: 21,3707           13711                           TCF      +2
000125: 21,3710           00002                           TC       Q                                     #  CTR IS NOT POSITIVE.  RETURN
000126: 21,3711           13676                           TCF      ZAPTJ                                 #  CTR IS POSITIVE.  INHIBIT FIRINGS
000127: 21,3712           00002                           TC       Q                                     #  CTR IS NOT POSITIVE.  RETURN
000128: 21,3713           00004                           OCT      00004
000129: 21,3714           00012        UTIME              OCT      00012
000130: 21,3715           00012                           OCT      00012
000131: 21,3716  E6,1744               OLDSENSE           EQUALS   DAPTREG1
000132: 21,3716           44753        NEGFIRE            CS       ONE                                   #  JETS FIRING NEGATIVELY
000133: 21,3717           55744                           TS       OLDSENSE
000134: 21,3720           31427                           CA       EDOT
000135: 21,3721           13725                           TCF      +4
000136: 21,3722           34753        PLUSFIRE           CA       ONE
000137: 21,3723           55744                           TS       OLDSENSE
000138: 21,3724           41427                           CS       EDOT                                  #  RATE DEAD BAND TEST
000139: 21,3725           22000                           LXCH     A
000140: 21,3726           40111                           CS       DAPBOOLS                              #  IF DRIFTBIT = 1, USE ZERO TARGET RATE
000141: 21,3727           74744                           MASK     DRIFTBIT                              #  IF DRIFTBIT = 0, USE 0.10 RATE TARGET
000142: 21,3730           10000                           CCS      A
000143: 21,3731           34767                           CA       RATEDB1
000144: 21,3732           60001                           AD       L
000145: 21,3733           00006                           EXTEND
000146: 21,3734           63744                           BZMF     SPSSTART
000147: 21,3735           13661                           TCF      POSTHRST   +3
000148:
000149: 21,3736           51505        SPSRCS             INDEX    AXISCTR                               #  JET SENSE TEST
000150: 21,3737           11525                           CCS      TJU
000151: 21,3740           13722                           TCF      PLUSFIRE                              #  JETS FIRING POSITIVELY
000152: 21,3741           13743                           TCF      +2
000153: 21,3742           13716                           TCF      NEGFIRE                               #  JETS FIRING NEGATIVELY
000154: 21,3743           55744                           TS       OLDSENSE                              #  JETS OFF
000155: 21,3744           31427        SPSSTART           CA       EDOT                                  #  OUTER RATE LIMIT TEST
000156: 21,3745           00006                           EXTEND
000157: 21,3746           74766                           MP       RATELIM1
000158: 21,3747           10000                           CCS      A
000159: 21,3750           13767                           TCF      NEGTHRST                              #  OUTER RATE LIMIT EXCEEDED
000160: 21,3751           13753                           TCF      +2
000161: 21,3752           13656                           TCF      POSTHRST                              #  OUTER RATE LIMIT EXCEEDED
000162: 21,3753           31427                           CA       EDOT                                  #  COAST ZONE TEST


000164: 21,3754           61751                           AD       E
000165: 21,3755           00006                           EXTEND
000166: 21,3756           71411                           MP       DKDB                                  #  PAD LOADED DEADBAND.  FRESHSTART: 1.4 DEG
000167: 21,3757           00006                           EXTEND
000168: 21,3760           13775                           BZF      TJZERO
000169:
000170: 21,3761           00006                           EXTEND
000171: 21,3762           63771                           BZMF     +7
000172: 21,3763           31427                           CA       EDOT
000173: 21,3764           63655                           AD       RATELIM2
000174: 21,3765           00006                           EXTEND
000175: 21,3766           63775                           BZMF     TJZERO
000176: 21,3767           44736        NEGTHRST           CS       HALF
000177: 21,3770           13657                           TCF      POSTHRST   +1
000178: 21,3771           43655                 +7        CS       RATELIM2
000179: 21,3772           61427                           AD       EDOT
000180: 21,3773           00006                           EXTEND
000181: 21,3774           63656                           BZMF     POSTHRST
000182: 21,3775           34755        TJZERO             CA       ZERO
000183: 21,3776           13657                           TCF      POSTHRST   +1
000184:
000185: 21,3777     4766               RATELIM1           =        CALLCODE                              #  = 00032, CORRESPONDING TO 1.73 DEG/SEC
000186: 21,3777     4767               RATEDB1            =        TBUILDFX                              #  = 00045, CORRESPONDS TO 0.101 DEG/SEC

End of include-file SPS_BACK-UP_RCS_CONTROL.agc.  Parent file is MAIN.agc


