
Source Code
000001:                                                                                                 #  Copyright:     Public domain.
000002:                                                                                                 #  Filename:      SYSTEM_TEST_STANDARD_LEAD_INS.agc
000003:                                                                                                 #  Purpose:       A section of Luminary 1C, revision 131.
000004:                                                                                                 #                 It is part of the source code for the Lunar Module's (LM)
000005:                                                                                                 #                 Apollo Guidance Computer (AGC) for Apollo 13 and Apollo 14.
000006:                                                                                                 #                 This file is intended to be a faithful transcription, except
000007:                                                                                                 #                 that the code format has been changed to conform to the
000008:                                                                                                 #                 requirements of the yaYUL assembler rather than the
000009:                                                                                                 #                 original YUL assembler.
000010:                                                                                                 #  Reference:     pp. 377-379 of 1729.pdf.
000011:                                                                                                 #  Contact:       Ron Burkey <info@sandroid.org>.
000012:                                                                                                 #  Website:       www.ibiblio.org/apollo/index.html
000013:                                                                                                 #  Mod history:   05/11/03 RSB.   Began transcribing.
000014:                                                                                                 #                 05/14/05 RSB    Corrected website reference above.
000015:
000016:                                                                                                 #  Page 377
000017: 22,3242  E5,1642                                 EBANK=   XSM
000018:
000019: 33,2045                                          BANK     33
000020: 04,2000                                          SETLOC   E/PROG
000021: 04,2000                                          BANK
000022:
000023: 04,2562                                          COUNT*   $$/P07
000024:
000025:                                                                                                 #  SPECIAL PROGRAMS TO EASE THE PANGS OF ERASABLE MEMORY PROGRAMS.
000026:
000027:                                                                                                 #  E/BKCALL       FOR DOING BANKCALLS FROM AND RETURNING TO ERASABLE.
000028:
000029:                                                                                                 #  THIS ROUTINE IS CALLABLE FROM ERASABLE RO FIXED.  LIKE BANKCALL, HOWEVER, SWITCHING BETWEEN S3 AND S4
000030:                                                                                                 #  IS NOT POSSIBLE.
000031:
000032:                                                                                                 #  THE CALLING SEQUENCE IS
000033:
000034:                                                                                                 #         TC      BANKCALL
000035:                                                                                                 #         CADR    E/BKCALL
000036:                                                                                                 #         CADR    ROUTINE         # WHERE TO WANT TO GO IN FIXED.
000037:                                                                                                 #         RETURN HERE FROM DISPLAY TERMINATE, BADD STALL OR TC Q.
000038:                                                                                                 #         RETURN HERE FROM DISPLAY PROCEED OR GOOD RETURN FROM STALL.
000039:                                                                                                 #         RETURN HERE FROM DISPLAY ENTER OR RECYCLE.
000040:
000041:                                                                                                 #  THIS ROUTINE REQUIRES TWO ERASABLES (EBUF2, +1) IN UNSWITCHED WHICH ARE UNSHARED BY INTERRUPTS AND
000042:                                                                                                 #  OTHER EMEMORY PROGRAMS.
000043:
000044:                                                                                                 #  A + L ARE PRESERVED THROUGH BANKCALL AND E/BKCALL.
000045:
000046: 04,2562           52134        E/BKCALL          DXCH     BUF2                                  #  SAVE A,L AND GET DP RETURN
000047: 04,2563           53167                          DXCH     EBUF2                                 #  SAVE DP RETURN.
000048: 04,2564           25166                          INCR     EBUF2                                 #  RETURN +1 BECAUSE DOUBLE CADR.
000049: 04,2565           30006                          CA       BBANK
000050: 04,2566           75012                          MASK     LOW10                                 #  GET CURRENT EBANK.  (SBANK SOMEDAY)
000051: 04,2567           27167                          ADS      EBUF2      +1                         #  FORM BBCON.  (WAS FBANK)
000052: 04,2570           51166                          NDX      EBUF2
000053: 04,2571           27777                          CA       0          -1                         #  GET CADR OF ROUTINE.
000054: 04,2572           04622                          TC       SWCALL                                #  GO TO ROUTINE, SETTING Q TO SWRETURN
000055:                                                                                                 #  AND RESTORING A + L.
000056: 04,2573           02577                          TC       +4                                    #  TX Q, V34, OR BADD STALL RETURN.
000057: 04,2574           02576                          TC       +2                                    #  PROCEED OR GOOD STALL RETURN.
000058: 04,2575           25166                          INCR     EBUF2                                 #  ENTER OR RECYCLE RETURN
000059: 04,2576           25166                          INCR     EBUF2
000060: 04,2577           53167        E/SWITCH          DXCH     EBUF2
000061: 04,2600           52006                          DTCB
000062:
000063:                                                                                                 #  Page 378
000064:                                                                                                 #  E/CALL FOR CALLING A FIXED MEMORY INTERPRETIVE SUBROUTINE FROM ERASABLE AND RETURNING TO ERASABLE.
000065:
000066:                                                                                                 #  THE CALLING SEQUENCE IS...
000067:
000068:                                                                                                 #         RTB
000069:                                                                                                 #                 E/CALL
000070:                                                                                                 #         CADR    ROUTINE                 # THE INTERPRETIVE SUBROUTINE YOU WANT
000071:                                                                                                 #                                         # RETURNS HERE IN INTERPRETIVE.
000072:
000073: 04,2601           22164        E/CALL            LXCH     LOC                                   #  ADRES -1 OF CADR.
000074: 04,2602           50001                          INDEX    L
000075: 04,2603           30001                          CA       L                                     #  CADR IN A.
000076: 04,2604           24001                          INCR     L
000077: 04,2605           24001                          INCR     L                                     #  RETURN ADRES IN L.
000078: 04,2606           53167                          DXCH     EBUF2                                 #  STORE CADR AND RETURN
000079: 04,2607           06042                          TC       INTPRET
000080: 04,2610           77624                          CALL
000081: 04,2611           01166                                   EBUF2                                 #  INDIRECTLY EXECUTE ROUTING.  IT MUST
000082: 04,2612           77776                          EXIT                                           #  LEAVE VIA RVQ OR EQUIVALENT.
000083: 04,2613           23167                          LXCH     EBUF2      +1                         #  PICK UP RETURN.
000084: 04,2614           16044                          TCF      INTPRET    +2                         #  SET LOC AND RETURN TO CALLER.
000085:
000086:                                                                                                 #  Page 379
000087:                                                                                                 #  E/JOBWAK       FOR WAKING UP ERASABLE MEMORY JOBS.
000088:
000089:                                                                                                 #  THIS ROUTINE MUST BE CALLED IN INTERRUPT OR WITH INTERRUPTS INHIBITED.
000090:
000091:                                                                                                 #  THE CALLING SEQUENCE IS
000092:
000093:                                                                                                 #         INHINT
000094:                                                                                                 #         ...
000095:                                                                                                 #         CA      WAKEADR         # ADDRESS OF SLEEPING JOB
000096:                                                                                                 #         TC      IBNKCALL
000097:                                                                                                 #         CADR    E/JOBWAK
000098:                                                                                                 #         ...                     # RETURNS HERE
000099:                                                                                                 #         RELINT                  # IF YOU DID AND INHINT
000100:
000101: 33,2045                                          BANK     33
000102: 04,2000                                          SETLOC   E/PROG
000103: 04,2000                                          BANK
000104:
000105: 04,2615                                          COUNT*   $$/P07
000106:
000107: 04,2615           05137        E/JOBWAK          TC       JOBWAKE                               #  ARRIVE WITH ADRES IN A (?garbled)
000108: 04,2616           44741                          CS       BIT11
000109: 04,2617           50064                          NDX      LOCCTR
000110: 04,2620           26164                          ADS      LOC                                   #  KNOCK FIXED MEMORY BIT OUT OF ADRES.
000111: 04,2621           00072                          TC       RUPTREG3                              #  RETURN
000112:

End of include-file SYSTEM_TEST_STANDARD_LEAD_INS.agc.  Parent file is MAIN.agc


