
Source Code


000002:                                                                                                  #  Copyright:    Public domain.
000003:                                                                                                  #  Filename:     SYSTEM_TEST_STANDARD_LEAD_INS.agc
000004:                                                                                                  #  Purpose:      A section of Luminary 1C, revision 131.
000005:                                                                                                  #                It is part of the source code for the Lunar Module's (LM)
000006:                                                                                                  #                Apollo Guidance Computer (AGC) for Apollo 13 and Apollo 14.
000007:                                                                                                  #                This file is intended to be a faithful transcription, except
000008:                                                                                                  #                that the code format has been changed to conform to the
000009:                                                                                                  #                requirements of the yaYUL assembler rather than the
000010:                                                                                                  #                original YUL assembler.
000011:                                                                                                  #  Reference:    pp. 377-379 of 1729.pdf.
000012:                                                                                                  #  Contact:      Ron Burkey <info@sandroid.org>.
000013:                                                                                                  #  Website:      www.ibiblio.org/apollo/index.html
000014:                                                                                                  #  Mod history:  05/11/03 RSB.   Began transcribing.
000015:                                                                                                  #                05/14/05 RSB    Corrected website reference above.
000016:
000017:                                                                                                  #  Page 377
000018: ???????  E5,1642                                  EBANK=   XSM
000019:
000020: 33,2045                                           BANK     33
000021: 04,2000                                           SETLOC   E/PROG
000022: 04,2000                                           BANK
000023:
000024: 04,2562                                           COUNT*   $$/P07
000025:
000026:                                                                                                  #  SPECIAL PROGRAMS TO EASE THE PANGS OF ERASABLE MEMORY PROGRAMS.
000027:
000028:                                                                                                  #  E/BKCALL      FOR DOING BANKCALLS FROM AND RETURNING TO ERASABLE.
000029:
000030:                                                                                                  #  THIS ROUTINE IS CALLABLE FROM ERASABLE RO FIXED.  LIKE BANKCALL, HOWEVER, SWITCHING BETWEEN S3 AND S4
000031:                                                                                                  #  IS NOT POSSIBLE.
000032:
000033:                                                                                                  #  THE CALLING SEQUENCE IS
000034:
000035:                                                                                                  #        TC      BANKCALL
000036:                                                                                                  #        CADR    E/BKCALL
000037:                                                                                                  #        CADR    ROUTINE         # WHERE TO WANT TO GO IN FIXED.
000038:                                                                                                  #        RETURN HERE FROM DISPLAY TERMINATE, BADD STALL OR TC Q.
000039:                                                                                                  #        RETURN HERE FROM DISPLAY PROCEED OR GOOD RETURN FROM STALL.
000040:                                                                                                  #        RETURN HERE FROM DISPLAY ENTER OR RECYCLE.
000041:
000042:                                                                                                  #  THIS ROUTINE REQUIRES TWO ERASABLES (EBUF2, +1) IN UNSWITCHED WHICH ARE UNSHARED BY INTERRUPTS AND
000043:                                                                                                  #  OTHER EMEMORY PROGRAMS.
000044:
000045:                                                                                                  #  A + L ARE PRESERVED THROUGH BANKCALL AND E/BKCALL.
000046:
000047: 04,2562           52134        E/BKCALL           DXCH     BUF2                                  #  SAVE A,L AND GET DP RETURN
000048: 04,2563           53167                           DXCH     EBUF2                                 #  SAVE DP RETURN.
000049: 04,2564           25166                           INCR     EBUF2                                 #  RETURN +1 BECAUSE DOUBLE CADR.
000050: 04,2565           30006                           CA       BBANK
000051: 04,2566           75012                           MASK     LOW10                                 #  GET CURRENT EBANK.  (SBANK SOMEDAY)
000052: 04,2567           27167                           ADS      EBUF2      +1                         #  FORM BBCON.  (WAS FBANK)
000053: 04,2570           51166                           NDX      EBUF2
000054: 04,2571           27777                           CA       0          -1                         #  GET CADR OF ROUTINE.
000055: 04,2572           04622                           TC       SWCALL                                #  GO TO ROUTINE, SETTING Q TO SWRETURN
000056:                                                                                                  #  AND RESTORING A + L.
000057: 04,2573           02577                           TC       +4                                    #  TX Q, V34, OR BADD STALL RETURN.
000058: 04,2574           02576                           TC       +2                                    #  PROCEED OR GOOD STALL RETURN.
000059: 04,2575           25166                           INCR     EBUF2                                 #  ENTER OR RECYCLE RETURN
000060: 04,2576           25166                           INCR     EBUF2
000061: 04,2577           53167        E/SWITCH           DXCH     EBUF2
000062: 04,2600           52006                           DTCB
000063:
000064:                                                                                                  #  Page 378
000065:                                                                                                  #  E/CALL        FOR CALLING A FIXED MEMORY INTERPRETIVE SUBROUTINE FROM ERASABLE AND RETURNING TO ERASABLE.
000066:
000067:                                                                                                  #  THE CALLING SEQUENCE IS...
000068:
000069:                                                                                                  #        RTB
000070:                                                                                                  #                E/CALL
000071:                                                                                                  #        CADR    ROUTINE                 # THE INTERPRETIVE SUBROUTINE YOU WANT
000072:                                                                                                  #                                        # RETURNS HERE IN INTERPRETIVE.
000073:
000074: 04,2601           22164        E/CALL             LXCH     LOC                                   #  ADRES -1 OF CADR.
000075: 04,2602           50001                           INDEX    L
000076: 04,2603           30001                           CA       L                                     #  CADR IN A.
000077: 04,2604           24001                           INCR     L
000078: 04,2605           24001                           INCR     L                                     #  RETURN ADRES IN L.
000079: 04,2606           53167                           DXCH     EBUF2                                 #  STORE CADR AND RETURN
000080: 04,2607           06042                           TC       INTPRET
000081: 04,2610           77624                           CALL
000082: 04,2611           01166                                    EBUF2                                 #  INDIRECTLY EXECUTE ROUTING.  IT MUST
000083: 04,2612           77776                           EXIT                                           #  LEAVE VIA RVQ OR EQUIVALENT.
000084: 04,2613           23167                           LXCH     EBUF2      +1                         #  PICK UP RETURN.
000085: 04,2614           16044                           TCF      INTPRET    +2                         #  SET LOC AND RETURN TO CALLER.
000086:
000087:                                                                                                  #  Page 379
000088:                                                                                                  #  E/JOBWAK      FOR WAKING UP ERASABLE MEMORY JOBS.
000089:
000090:                                                                                                  #  THIS ROUTINE MUST BE CALLED IN INTERRUPT OR WITH INTERRUPTS INHIBITED.
000091:
000092:                                                                                                  #  THE CALLING SEQUENCE IS
000093:
000094:                                                                                                  #        INHINT
000095:                                                                                                  #        ...
000096:                                                                                                  #        CA      WAKEADR         # ADDRESS OF SLEEPING JOB
000097:                                                                                                  #        TC      IBNKCALL
000098:                                                                                                  #        CADR    E/JOBWAK
000099:                                                                                                  #        ...                     # RETURNS HERE
000100:                                                                                                  #        RELINT                  # IF YOU DID AND INHINT
000101:
000102: 33,2045                                           BANK     33
000103: 04,2000                                           SETLOC   E/PROG
000104: 04,2000                                           BANK
000105:
000106: 04,2615                                           COUNT*   $$/P07
000107:
000108: 04,2615           05137        E/JOBWAK           TC       JOBWAKE                               #  ARRIVE WITH ADRES IN A (?garbled)
000109: 04,2616           44741                           CS       BIT11
000110: 04,2617           50064                           NDX      LOCCTR
000111: 04,2620           26164                           ADS      LOC                                   #  KNOCK FIXED MEMORY BIT OUT OF ADRES.
000112: 04,2621           00072                           TC       RUPTREG3                              #  RETURN
000113:

End of include-file SYSTEM_TEST_STANDARD_LEAD_INS.agc.  Parent file is MAIN.agc


