
Source Code


000002:                                                                                                  ## Copyright:   Public domain.
000003:                                                                                                  ## Filename:    T4RUPT_PROGRAM.agc
000004:                                                                                                  ## Purpose:     An interrupt service routine for Luminary 1C, revision 131.
000005:                                                                                                  ##              It is part of the source code for the Lunar Module's (LM)
000006:                                                                                                  ##              Apollo Guidance Computer (AGC) for Apollo 13.
000007:                                                                                                  ##              This file is intended to be a faithful transcription, except
000008:                                                                                                  ##              that the code format has been changed to conform to the
000009:                                                                                                  ##              requirements of the yaYUL assembler rather than the
000010:                                                                                                  ##              original YUL assembler.
000011:                                                                                                  ## Reference:   pp. 157-191
000012:                                                                                                  ## Contact:     Ron Burkey <info@sandroid.org>.
000013:                                                                                                  ## Website:     www.ibiblio.org/apollo/index.html
000014:                                                                                                  ## Mod history: 04/11/03 RSB.   Began transcribing.
000015:                                                                                                  ##              05/05/03 RSB.   Draft finished.
000016:                                                                                                  ##              05/14/05 RSB    Corrected website reference above
000017:                                                                                                  ##              2010-10-25 JL   Indentation fixes. Added missing p190 comment.
000018:                                                                                                  ##              2017-01-06 RSB  Page numbers now agree with those on the
000019:                                                                                                  ##                              original harcopy, as opposed to the PDF page
000020:                                                                                                  ##                              numbers in 1701.pdf.
000021:                                                                                                  ##              2017-01-26 RSB  Back-ported comment-text fixes found while
000022:                                                                                                  ##                              proofing corresponding Luminary 69 file.
000023:                                                                                                  ##              2017-01-28 RSB  WTIH -> WITH.
000024:                                                                                                  ##              2017-02-08 RSB  Comment-text fixes identified while proofing Artemis 72.
000025:                                                                                                  ##              2017-02-12 RSB  Proofed comment text using octopus/ProoferComments.
000026:                                                                                                  ##              2017-02-28 RSB  Fixed lingering typos.
000027:


000029: 12,2000                                           BANK     12
000030: 06,2000                                           SETLOC   T4RUP
000031: 06,2000                                           BANK
000032:
000033: 06,2000  E6,1414                                  EBANK=   M11
000034: 06,2000                                           COUNT*   $$/T4RPT
000035: 06,2000           54016        T4RUPT             TS       BANKRUPT
000036:
000037: 06,2001           00006                           EXTEND
000038: 06,2002           22012                           QXCH     QRUPT
000039:
000040: 06,2003           11310                           CCS      DSRUPTSW                              #  GOES 7(-1)0 AROUND AND AROUND
000041: 06,2004           12010                           TCF      NORMT4     +1
000042: 06,2005           12007                           TCF      NORMT4
000043:
000044: 06,2006           12134                           TCF      QUIKDSP
000045:
000046: 06,2007           34757        NORMT4             CAF      SEVEN
000047: 06,2010           54070                           TS       RUPTREG1
000048: 06,2011           55310                           TS       DSRUPTSW
000049:
000050:    4066                                           BLOCK    02
000051:    4000                                           SETLOC   FFTAG10
000052:    4000                                           BANK
000053:
000054:    4066                                           COUNT*   $$/T4RPT
000055:    4066     7732               100MRUPT           =        OCT37766                              #  (DEC 16374)
000056:
000057:                                                                                                  #  RELTAB IS A PACKED TABLE. RELAYWORD CODE IN UPPER 4 BITS, RELAY CODE
000058:                                                                                                  #  IN LOWER 5 BITS.
000059:    4066           04025        RELTAB             OCT      04025
000060:    4067           10003                           OCT      10003
000061:    4070           14031                           OCT      14031
000062:    4071           20033                           OCT      20033
000063:    4072           24017                           OCT      24017
000064:    4073           30036                           OCT      30036
000065:    4074           34034                           OCT      34034
000066:    4075           40023                           OCT      40023
000067:    4076           44035                           OCT      44035
000068:    4077           50037                           OCT      50037
000069:    4100           54000                           OCT      54000
000070:    4101           60000        RELTAB11           OCT      60000
000071:


000073:                                                                                                  #  SWITCHED-BANK PORTION.
000074:
000075: 12,2000                                           BANK     12
000076: 06,2000                                           SETLOC   T4RUP
000077: 06,2000                                           BANK
000078:
000079: 06,2012                                           COUNT*   $$/T4RPT
000080: 06,2012           11035        CDRVE              CCS      DSPTAB     +11D
000081: 06,2013           02063                           TC       DSPOUT
000082: 06,2014           02063                           TC       DSPOUT
000083:
000084: 06,2015           57035                           XCH      DSPTAB     +11D
000085: 06,2016           74356                           MASK     LOW11
000086: 06,2017           55035                           TS       DSPTAB     +11D
000087: 06,2020           64101                           AD       RELTAB11
000088: 06,2021           00006                           EXTEND
000089: 06,2022           01010                           WRITE    OUT0
000090: 06,2023           02071                           TC       HANG20
000091:


000093:                                                                                                  #  DSPOUT PROGRAM. PUTS OUT DISPLAYS.
000094:
000095: 06,2024           55015        DSPOUTSB           TS       NOUT
000096: 06,2025           44755                           CS       ZERO
000097: 06,2026           54073                           TS       DSRUPTEM                              #  SET TO -0 FOR 1ST PASS THRU OSPTAB
000098: 06,2027           56775                           XCH      DSPCNT
000099: 06,2030           64754                           AD       NEG0                                  #  TO PREVENT +0
000100: 06,2031           54775                           TS       DSPCNT
000101: 06,2032           50775        DSPSCAN            INDEX    DSPCNT
000102: 06,2033           11022                           CCS      DSPTAB
000103: 06,2034           10775                           CCS      DSPCNT                                #  IF DSPTAB ENTRY +, SKIP
000104: 06,2035           12030                           TCF      DSPSCAN    -2                         #  IF DSPCNT +, TRY AGAIN
000105: 06,2036           12047                           TCF      DSPLAY                                #  IF DSPTAB ENTRY -, DISPLAY
000106: 06,2037           00012        TABLNTH            OCT      12                                    #  DEC 10   LENGTH OF DSPTAB
000107: 06,2040           10073                           CCS      DSRUPTEM                              #  IF DSRUPTEM=+0, 2ND PASS THRU DSPTAB
000108: 06,2041           37764        120MRUPT           DEC      16372      B-14                       #  (DSPCNT = 0).  +0 INTO NOUT.
000109: 06,2042           55015                           TS       NOUT
000110: 06,2043           00002                           TC       Q
000111: 06,2044           54073                           TS       DSRUPTEM                              #  IF DSRUPTEM=-0, 1ST PASS THRU DSPTAB
000112: 06,2045           32037                           CAF      TABLNTH                               #  (DSPCNT=0).+0 INTO DSRUPTEM. PASS AGAIN
000113: 06,2046           12031                           TCF      DSPSCAN    -1
000114:
000115: 06,2047           64753        DSPLAY             AD       ONE
000116: 06,2050           50775                           INDEX    DSPCNT
000117: 06,2051           55022                           TS       DSPTAB                                #  REPLACE POSITIVELY
000118: 06,2052           74356                           MASK     LOW11                                 #  REMOVE BITS 12 TO 15
000119: 06,2053           54073                           TS       DSRUPTEM
000120: 06,2054           34350                           CAF      HI5
000121: 06,2055           50775                           INDEX    DSPCNT
000122: 06,2056           74066                           MASK     RELTAB                                #  PICK UP BITS 12 TO 15 OF RELTAB ENTRY
000123: 06,2057           60073                           AD       DSRUPTEM
000124: 06,2060           00006                           EXTEND
000125: 06,2061           01010                           WRITE    OUT0
000126:
000127: 06,2062           16742                           TCF      Q+1
000128:
000129: 06,2063           10101        DSPOUT             CCS      FLAGWRD5                              #  IS DSKY FLAG ON
000130: 06,2064           34755                           CAF      ZERO                                  #  NO
000131: 06,2065           12130                           TCF      NODSPOUT                              #  NO
000132: 06,2066           11015                           CCS      NOUT                                  #  YES
000133: 06,2067           02024                           TC       DSPOUTSB
000134: 06,2070           12130                           TCF      NODSPOUT                              #  NO DISPLAY REQUESTS
000135:
000136: 06,2071           42171        HANG20             CS       14,11,9
000137: 06,2072           27310                           ADS      DSRUPTSW
000138:
000139: 06,2073           37734                           CAF      20MRUPT
000140:
000141: 06,2074           54027        SETTIME4           TS       TIME4
000142:


000144:                                                                                                  #  THE STATUS OF THE PROCEED PUSHBUTTON IS MONITORED EVERY 120 MILLISECONDS VIA THE CHANNEL 32 BIT 14 INBIT.
000145:                                                                                                  #  THE STATE OF THIS INBIT IS COMPARED WITH ITS STATE DURING THE PREVIOUS T4RUPT AND IS PROCESSED AS FOLLOWS.
000146:                                                                                                  #        IF PREV ON AND NOW ON   - BYPASS
000147:                                                                                                  #        IF PREV ON AND NOW OFF  - UPDATE IMODES33
000148:                                                                                                  #        IF PREV OFF AND NOW ON  - UPDATE IMODES33 AND PROCESS VIA PINBALL
000149:                                                                                                  #        IF PREV OFF AND NOW OFF - BYPASS
000150:                                                                                                  #  THE LOGIC EMPLOYED REQUIRES ONLY 9 MCT (APPROX. 108 MICROSECONDS) OF COMPUTER TIME WHEN NO CHANGES OCCUR.
000151:
000152: 06,2075           31300        PROCEEDE           CA       IMODES33                              #  MONITIOR FOR PROCEED BUTTON
000153: 06,2076           00006                           EXTEND
000154: 06,2077           06032                           RXOR     CHAN32
000155: 06,2100           74736                           MASK     BIT14
000156: 06,2101           00006                           EXTEND
000157: 06,2102           12116                           BZF      T4JUMP                                #  NO CHANGE
000158:
000159: 06,2103           23300                           LXCH     IMODES33
000160: 06,2104           00006                           EXTEND
000161: 06,2105           06001                           RXOR     LCHAN
000162: 06,2106           55300                           TS       IMODES33                              #  UPDATE IMODES33
000163: 06,2107           74736                           MASK     BIT14
000164: 06,2110           10000                           CCS      A
000165: 06,2111           12116                           TCF      T4JUMP                                #  WAS ON - NOW OFF
000166:
000167: 06,2112           34355                           CAF      CHRPRIO                               #  WAS OFF - NOW ON
000168: 06,2113           05072                           TC       NOVAC
000169: 06,2114     0776                                  EBANK=   DSPCOUNT
000170: 06,2114           03506 60101                     2CADR    PROCKEY
000171:


000173:                                                                                                  #  JUMP TO APPROPRIATE ONCE-PER SECOND (.96 SEC ACTUALLY) ACTIVITY
000174:
000175: 06,2116           50070        T4JUMP             INDEX    RUPTREG1
000176: 06,2117           12120                           TCF      +1
000177:
000178: 06,2120           03164                           TC       RCSMONIT
000179: 06,2121           13006                           TCF      RRAUTCHK
000180: 06,2122           12172                           TCF      IMUMON
000181: 06,2123           13140                           TCF      DAPT4S
000182: 06,2124           03164                           TC       RCSMONIT
000183: 06,2125           13006                           TCF      RRAUTCHK
000184: 06,2126           12172                           TCF      IMUMON
000185: 06,2127           13140                           TCF      DAPT4S
000186:
000187: 06,2130     7734               20MRUPT            =        OCT37776                              #  (DEC 16382)
000188:


000190:                                                                                                  #  ADDITIONAL ROUTINES FOR 20MS. KEYBOARD ACTIVITY
000191:
000192: 06,2130           00006        NODSPOUT           EXTEND
000193: 06,2131           01010                           WRITE    OUT0
000194:
000195: 06,2132           32041                           CAF      120MRUPT                              # SET FOR NEXT CCRIVE
000196: 06,2133           12074                           TCF      SETTIME4
000197:
000198: 06,2134           34736        QUIKDSP            CAF      BIT14
000199: 06,2135           71310                           MASK     DSRUPTSW
000200: 06,2136           00006                           EXTEND
000201: 06,2137           12165                           BZF      QUIKOFF                               #  WROTE LAST TIME, NOW TURN OFF RELAYS.
000202:
000203: 06,2140           11015                           CCS      NOUT
000204: 06,2141           02024                           TC       DSPOUTSB
000205: 06,2142           12152                           TCF      NODSPY                                #  NOUT=0 OR BAD RETURN FROM DSPOUTSB
000206: 06,2143           44736                           CS       BIT14                                 #  GOOD RETURN (WE DISPLAYED SOMETHING)
000207: 06,2144           27310        QUIKRUPT           ADS      DSRUPTSW
000208:
000209: 06,2145           37734                           CAF      20MRUPT
000210: 06,2146           54027                           TS       TIME4
000211:
000212: 06,2147           34743                           CAF      BIT9
000213: 06,2150           27310                           ADS      DSRUPTSW
000214:
000215: 06,2151           05270                           TC       RESUME
000216:
000217: 06,2152           00006        NODSPY             EXTEND
000218: 06,2153           01010                           WRITE    OUT0
000219:
000220: 06,2154           37734        SYNCT4             CAF      20MRUPT
000221: 06,2155           26027                           ADS      TIME4
000222:
000223: 06,2156           34743                           CAF      BIT9
000224: 06,2157           27310                           ADS      DSRUPTSW
000225:
000226: 06,2160           11310                           CCS      DSRUPTSW
000227: 06,2161           05270                           TC       RESUME
000228: 06,2162           37737        OCT37737           OCT      37737
000229: 06,2163           02154                           TC       SYNCT4
000230: 06,2164           05270                           TC       RESUME
000231:
000232: 06,2165           00006        QUIKOFF            EXTEND
000233: 06,2166           01010                           WRITE    OUT0
000234: 06,2167           34736                           CAF      BIT14                                 #  RESET DSRUPTSW TO SEND DISPLAY NEXT PASS
000235: 06,2170           12144                           TCF      QUIKRUPT
000236:
000237: 06,2171           22400        14,11,9            OCT      22400
000238:


000240:                                                                                                  #  PROGRAM NAME:  IMUMON
000241:
000242:                                                                                                  #  FUNCTIONAL DESCRIPTION:  THIS PROGRAM IS ENTERED EVERY 480 MS.  IT DETECTS CHANGES OF THE IMU STATUS BITS IN
000243:                                                                                                  #  CHANNEL 30 AND CALLS THE APPROPRIATE SUBROUTINES.  THE BITS PROCESSED AND THEIR RELEVANT SUBROUTINES ARE:
000244:
000245:                                                                                                  #        FUNCTION                BIT     SUBROUTINE CALLED
000246:                                                                                                  #        --------                ---     -----------------
000247:                                                                                                  #        TEMP IN LIMITS           15     TLIM
000248:                                                                                                  #        ISS TURN-ON REQUEST      14     ITURNON
000249:                                                                                                  #        IMU FAIL                 13     IMUFAIL (SETISSW)
000250:                                                                                                  #        IMU CDU FAIL             12     ICDUFAIL (SETISSW)
000251:                                                                                                  #        IMU CAGE                 11     IMUCAGE
000252:                                                                                                  #        IMU OPERATE               9     IMUOP
000253:
000254:                                                                                                  #  THE LAST SAMPLED STATE OF THESE BITS IS LEFT IN IMODES30.  ALSO, EACH SUBROUTINE CALLED FINDS THE NEW
000255:                                                                                                  #  VALUE OF THE BIT IN A, WITH Q SET TO THE PROPER RETURN LOCATION, NXTIFAIL.
000256:
000257:                                                                                                  #  CALLING SEQUENCE:  T4RUPT EVERY 480 MILLISECONDS.
000258:
000259:                                                                                                  #  JOBS OR TASKS INITIATED:  NONE.
000260:
000261:                                                                                                  #  SUBROUTINES CALLED:  TLIM, ITURNON, SETISSW, IMUCAGE, IMUOP.
000262:
000263:                                                                                                  #  ERASABLE INITIALIZATION:
000264:                                                                                                  #        FRESH START OR RESTART WITH NO GROUPS ACTIVE:  C(IMODES30) = OCT 37411.
000265:                                                                                                  #        RESTART WITH ACTIVE GROUPS:     C(IMODES30) = (B(IMODES30)AND(OCT 00035)) PLUS OCT 37400.
000266:                                                                                                  #                                        THIS LEAVES IMU FAIL BITS INTACT.
000267:
000268:                                                                                                  #  ALARMS:  NONE.
000269:
000270:                                                                                                  #  EXIT:  TNONTEST.
000271:
000272:                                                                                                  #  OUTPUT:  UPDATED IMODES30 WITH CHANGES PROCESSED BY APPROPRIATE SUBROUTINE.
000273:
000274: 06,2172           31277        IMUMON             CA       IMODES30                              #  SEE IF THERE HAS BEEN A CHANGE IN THE
000275: 06,2173           00006                           EXTEND                                         #  RELEVANT BITS OF CHAN 30.
000276: 06,2174           06030                           RXOR     CHAN30
000277: 06,2175           72761                           MASK     30RDMSK
000278: 06,2176           00006                           EXTEND
000279: 06,2177           12227                           BZF      TNONTEST                              #  NO CHANGE IN STATUS.
000280:
000281: 06,2200           54070                           TS       RUPTREG1                              #  SAVE BITS WHICH HAVE CHANGED.
000282: 06,2201           23277                           LXCH     IMODES30                              #  UPDATE IMODES30.
000283: 06,2202           00006                           EXTEND
000284: 06,2203           06001                           RXOR     LCHAN
000285: 06,2204           55277                           TS       IMODES30
000286:
000287: 06,2205           44753                           CS       ONE
000288: 06,2206           56070                           XCH      RUPTREG1
000289: 06,2207           00006                           EXTEND


000291: 06,2210           62514                           BZMF     TLIM                                  #  CHANGE IN IMU TEMP.
000292: 06,2211           12213                           TCF      NXTIFBIT                              #  BEGIN BIT SCAN.
000293:
000294: 06,2212           64753                 -1        AD       ONE                                   #  (RE-ENTERS HERE FROM NXTIFAIL.)
000295: 06,2213           24070        NXTIFBIT           INCR     RUPTREG1                              #  ADVANCE BIT POSITION NUMBER.
000296: 06,2214           60000                 +1        DOUBLE
000297: 06,2215           54000                           TS       A                                     #  SKIP IF OVERFLOW.
000298: 06,2216           12213                           TCF      NXTIFBIT                              #  LOOK FOR BIT.
000299:
000300: 06,2217           56071                           XCH      RUPTREG2                              #  SAVE OVERFLOW-CORRECTED DATA.
000301: 06,2220           50070                           INDEX    RUPTREG1                              #  SELECT NEW VALUE OF THIS BIT.
000302: 06,2221           34736                           CAF      BIT14
000303: 06,2222           71277                           MASK     IMODES30
000304: 06,2223           50070                           INDEX    RUPTREG1
000305: 06,2224           02755                           TC       IFAILJMP
000306:
000307: 06,2225           10071        NXTIFAIL           CCS      RUPTREG2                              #  PROCESS ANY ADDITIONAL CHANGES.
000308: 06,2226           12212                           TCF      NXTIFBIT   -1
000309:


000311:                                                                                                  #  PROGRAM NAME:  TNONTEST.
000312:
000313:                                                                                                  #  FUNCTIONAL DESCRIPTION:  THIS PROGRAM HONORS REQUESTS FOR ISS INITIALIZATION.  ISS TURN-ON (CHANNEL 30 BIT 14)
000314:                                                                                                  #  AND ISS OPERATE (CHANNEL 30 BIT 9) REQUESTS ARE TREATED AS A PAIR AND PROCESSING TAKES PLACE .480 SECONDS
000315:                                                                                                  #  AFTER EITHER ONE APPEARS.  THIS INITIALIZATION TAKES ON ONE OF THE FOLLOWING THREE FORMS:
000316:
000317:                                                                                                  #        1) ISS TURN-ON:  IN THIS SITUATION THE COMPUTER IS OPERATING WHEN THE ISS IS TURNED ON.  NOMINALLY,
000318:                                                                                                  #        BOTH ISS TURN-ON AND ISS OPERATE APPEAR.  THE PLATFORM IS CAGED FOR 90 SECONDS AND THE ICDU'S ZEROED
000319:                                                                                                  #        SO THAT AT THE END OF THE PROCESS THE GIMBAL LOCK MONITOR WILL FUNCTION PROPERLY.
000320:
000321:                                                                                                  #        2) ICDU INITIALIZATION:  IN THIS CASE THE COMPUTER WAS PROBABLY TURNED ON WITH THE ISS IN OPERATE OR
000322:                                                                                                  #        A FRESH START WAS DONE WITH THE ISS IN OPERATE.  IN THIS CASE ONLY ISS OPERATE IS ON.  THE ICDU'S ARE
000323:                                                                                                  #        ZEROED SO THE GIMBAL LOCK MONITOR WILL FUNCTION.  AN EXCEPTION IS IF THE ISS IS IN GIMBAL LOCK AFTER
000324:                                                                                                  #        A RESTART, THE ICDU'S WILL NOT BE ZEROED.
000325:
000326:                                                                                                  #        3) RESTART WITH RESTARTABLE PROGRAM USING THE IMU:  IN THIS CASE, NO INITIALIZATION TAKES PLACE SINCE
000327:                                                                                                  #        IT IS ASSUMED THAT THE USING PROGRAM DID THE INITIALIZATION AND THEREFORE T4RUPT SHOULD NOT INTERFERE.
000328:
000329:                                                                                                  #  IMODES30 BIT 7 IS SET = 1 BY THE FIRST BIT (CHANNEL 30 BIT 14 OR 9) WHICH ARRIVES.  FOLLOWING THIS, TNONTEST IS
000330:                                                                                                  #  ENTERED, FINDS BIT 7 = 1 BUT BIT 8 = 0, SO IT SETS BIT 8 = 1 AND EXITS.  THE NEXT TIME IT FINDS BIT 8 = 1 AND
000331:                                                                                                  #  PROCEEDS, SETTING BITS 8 AND 7 = 0.  AT PROCTNON, IF ISS TURN-ON REQUEST IS PRESENT, THE ISS IS CAGED (ZERO +
000332:                                                                                                  #  COARSE).  IF ISS OPERATE IS NOT PRESENT PROGRAM ALARM 00213 IS ISSUED.  AT THE END OF A 90 SECOND CAGE, BIT 2
000333:                                                                                                  #  OF IMODES30 IS TESTED.  IF IT IS = 1, ISS TURN-ON WAS NOT PRESENT FOR THE ENTIRE 90 SECONDS.  IN THAT CASE, IF
000334:                                                                                                  #  THE ISS TURN-ON REQUEST IS PRESENT THE 90 SECOND WAIT IS REPEATED.  OTHERWISE NO ACTION OCCURS UNLESS A PROGRAM
000335:                                                                                                  #  WAS WAITING FOR THE INITIALIZATION IN WHICH CASE THE PROGRAM IS GIVEN AN IMUSTALL ERROR RETURN.  IF THE DELAY
000336:                                                                                                  #  WENT PROPERLY, THE ISS DELAY CLTBIT IS SENT AND THE ICDU'S ZEROED.  A TASK IS INITIATED TO REMOVE THE PIPA FAIL
000337:                                                                                                  #  INHIBIT BIT IN 10.24 SECONDS.  IF A MISSION PROGRAM WAS WAITING IT IS INFORMED VIA ENDIMU.
000338:
000339:                                                                                                  #  AT PROCTNON, IF ONLY ISS OPERATE IS PRESENT (OPONLY), THE CDU'S ARE ZEROED UNLESS THE PLATFORM IS IN COARSE
000340:                                                                                                  #  ALIGN (= GIMBAL LOCK HERE) OR A MISSION PROGRAM IS USING THE IMU (IMUSEFLG = 1).
000341:
000342:                                                                                                  #  CALLING SEQUENCE:  T4RUPT EVERY 480 MILLISECONDS AFTER IMUMON.
000343:
000344:                                                                                                  #  JOBS OR TASKS INITIATED:  1) ENDTNON, 90 SECONDS AFTER CAGING STARTED.  2) ISSUP, 4 SECONDS AFTER CAGING DONE.
000345:                                                                                                  #        3) PFAILOK, 10.24 SECONDS AFTER INITIALIZATION COMPLETED.  4) UNZ2, 320 MILLISECONDS AFTER ZEROING
000346:                                                                                                  #        STARTED.
000347:
000348:                                                                                                  #  SUBROUTINES CALLED: CAGESUB, CAGESUB2, ZEROICDU, ENDIMU, IMUBAD, NOATTOFF, SETISSW, VARDELAY.
000349:
000350:                                                                                                  #  ERASABLE INITIALIZATION:  SEE IMUMON.
000351:
000352:                                                                                                  #  ALARMS:  PROGRAM ALARM 00213 IF ISS TURN-ON REQUESTED WITHOUT ISS OPERATE.
000353:
000354:                                                                                                  #  EXIT:  ENDTNON EXITS TO C33TEST.  TASKS HAVING TO DO WITH INITIALIZATION EXIT AS FOLLOWS:  MISSION PROGRAM
000355:                                                                                                  #  WAITING AND INITIALIZATION COMPLETE, EXIT TO ENDIMU, MISSION PROGRAM WAITING AND INITIALIZATION FAILED, EXIT TO
000356:                                                                                                  #  IMUBAD, IMU NOT IN USE, EXIT TO TASKOVER.
000357:
000358:                                                                                                  #  OUTPUT:  ISS INITIALIZED.
000359:
000360: 06,2227           41277        TNONTEST           CS       IMODES30                              #  AFTER PROCESSING ALL CHANGES, SEE IF IT


000362: 06,2230           74745                           MASK     BIT7                                  #  IS TIME TO ACT ON A TURN-ON SEQUENCE.
000363: 06,2231           10000                           CCS      A
000364: 06,2232           12374                           TCF      C33TEST                               #  NO - EXAMINE CHANNEL 33.
000365:
000366: 06,2233           34744                           CAF      BIT8                                  #  SEE IF FIRST SAMPLE OR SECOND.
000367: 06,2234           71277                           MASK     IMODES30
000368: 06,2235           10000                           CCS      A
000369: 06,2236           12242                           TCF      PROCTNON                              #  REACT AFTER SECOND SAMPLE.
000370:
000371: 06,2237           34744                           CAF      BIT8                                  #  IF FIRST SAMPLE, SET BIT TO REACT NEXT
000372: 06,2240           27277                           ADS      IMODES30                              #  TIME.
000373: 06,2241           12374                           TCF      C33TEST
000374:
000375:                                                                                                  #  PROCESS IMU TURN-ON REQUESTS AFTER WAITING 1 SAMPLE FOR ALL SIGNALS TO ARRIVE.
000376:
000377: 06,2242           42777        PROCTNON           CS       BITS7&8
000378: 06,2243           71277                           MASK     IMODES30
000379: 06,2244           55277                           TS       IMODES30
000380: 06,2245           74736                           MASK     BIT14                                 #  SEE IF TURN-ON REQUEST.
000381: 06,2246           10000                           CCS      A
000382: 06,2247           12347                           TCF      OPONLY                                #  OPERATE ON ONLY.
000383:
000384: 06,2250           41277                           CS       IMODES30                              #  IF TURN-ON REQUEST, WE SHOULD HAVE IMU
000385: 06,2251           74743                           MASK     BIT9                                  #  OPERATE.
000386: 06,2252           10000                           CCS      A
000387: 06,2253           12256                           TCF      +3
000388:
000389: 06,2254           05567                           TC       ALARM                                 #  ALARM IF NOT.
000390: 06,2255           00213                           OCT      213
000391:
000392: 06,2256           02735                 +3        TC       CAGESUB
000393: 06,2257           33005                           CAF      90SECS
000394: 06,2260           05203                           TC       WAITLIST
000395: 06,2261  E6,1414                                  EBANK=   M11
000396: 06,2261           02266 14106                     2CADR    ENDTNON
000397:
000398: 06,2263           12374                           TCF      C33TEST
000399:
000400: 06,2264           33005        RETNON             CAF      90SECS
000401: 06,2265           05224                           TC       VARDELAY
000402:
000403: 06,2266           44752        ENDTNON            CS       BIT2                                  #  RESET TURN-ON REQUEST FAIL BIT.
000404: 06,2267           71277                           MASK     IMODES30
000405: 06,2270           57277                           XCH      IMODES30
000406: 06,2271           74752                           MASK     BIT2                                  #  IF IT WAS OFF, SEND ISS DELAY COMPLETE.
000407: 06,2272           00006                           EXTEND
000408: 06,2273           12306                           BZF      ENDTNON2
000409:
000410: 06,2274           34736                           CAF      BIT14                                 #  IF IT WAS ON AND TURN-ON REQUEST NOW


000412: 06,2275           71277                           MASK     IMODES30                              #  PRESENT, RE-ENTER 90 SEC DELAY IN WL.
000413: 06,2276           00006                           EXTEND
000414: 06,2277           12264                           BZF      RETNON
000415:
000416: 06,2300           40074                           CS       FLAGWRD0                              #  IF IT IS NOT ON NOW, SEE IF A PROG WAS
000417: 06,2301           74744                           MASK     IMUSEBIT                              #  WAITING.
000418: 06,2302           10000                           CCS      A
000419: 06,2303           15261                           TCF      TASKOVER
000420: 06,2304           04635                           TC       POSTJUMP
000421: 06,2305           17630                           CADR     IMUBAD                                #  UNSUCCESSFUL TURN-ON.
000422:
000423: 06,2306           34735        ENDTNON2           CAF      BIT15                                 #  SEND ISS DELAY COMPLETE.
000424: 06,2307           00006                           EXTEND
000425: 06,2310           05012                           WOR      CHAN12
000426:
000427: 06,2311           04674                           TC       IBNKCALL                              #  TURN OFF NO ATT LAMP.
000428: 06,2312           17257                           CADR     NOATTOFF
000429:
000430: 06,2313           05457        UNZ2               TC       ZEROICDU
000431:
000432: 06,2314           44763                           CS       BITS4&5                               #  REMOVE ZERO AND COARSE.
000433: 06,2315           00006                           EXTEND
000434: 06,2316           03012                           WAND     CHAN12
000435:
000436: 06,2317           34741                           CAF      BIT11                                 #  WAIT 10 SECS FOR CTRS TO FIND GIMBALS
000437: 06,2320           05224                           TC       VARDELAY
000438:
000439: 06,2321           42774        ISSUP              CS       OCT54                                 #  REMOVE CAGING, IMU FAIL INHIBIT, AND
000440: 06,2322           71277                           MASK     IMODES30                              #  ICDUFAIL INHIBIT FLAGS.
000441: 06,2323           55277                           TS       IMODES30
000442:
000443: 06,2324           44746                           CS       BIT6                                  #  ENABLE DAP
000444:
000445: 06,2325           71300                           MASK     IMODES33
000446: 06,2326           55300                           TS       IMODES33
000447:
000448: 06,2327           40076                           CS       FLAGWRD2                              #  TEST DRIFTFLG: IF ON, DO NOTHING BECAUSE
000449: 06,2330           74735                           MASK     DRFTBIT                               #  IMUCOMP SHOULD BE ALL SET UP (RESTART
000450: 06,2331           00006                           EXTEND                                         #  WITH IMUSE DOWN).  IF OFF, SET DRIFTFLG
000451: 06,2332           12336                           BZF      +4                                    #  AND 1/PIPADT TO GET FREEFALL IMUCOMP
000452: 06,2333           26076                           ADS      FLAGWRD2                              #  GOING (FRESH START OR ISS TURN-ON).
000453: 06,2334           30025                           CA       TIME1
000454: 06,2335           57074                           XCH      1/PIPADT                              #  CANNOT GET HERE IF RESTART WITH IMUSE UP
000455:
000456: 06,2336           02703                           TC       SETISSW                               #  ISS WARNING MIGHT HAVE BEEN INHIBITED.
000457:
000458: 06,2337           44735                           CS       BIT15                                 #  REMOVE IMU DELAY COMPLETE DISCRETE.
000459: 06,2340           00006                           EXTEND
000460: 06,2341           03012                           WAND     CHAN12
000461:
000462: 06,2342           35003                           CAF      4SECS                                 #  DONT ENABLE PROG ALARM ON PIP FAIL FOR


000464: 06,2343           05203                           TC       WAITLIST                              #  ANOTHER 4 SECS.
000465: 06,2344  E3,1474                                  EBANK=   CDUIND
000466: 06,2344           03245 16103                     2CADR    PFAILOK
000467:
000468: 06,2346           15261                           TCF      TASKOVER
000469:
000470: 06,2347           34750        OPONLY             CAF      BIT4                                  #  IF OPERATE ON ONLY, AND WE ARE IN COARSE
000471: 06,2350           00006                           EXTEND                                         #  ALIGN, DONT ZERO THE CDUS BECAUSE WE
000472: 06,2351           02012                           RAND     CHAN12                                #  MIGHT BE IN GIMBAL LOCK
000473: 06,2352           10000                           CCS      A
000474: 06,2353           12374                           TCF      C33TEST
000475:
000476: 06,2354           34744                           CAF      IMUSEBIT                              #  OTHERWISE, ZERO THE COUNTERS.
000477: 06,2355           70074                           MASK     FLAGWRD0                              #  UNLESS SOMEONE IS USING THE IMU.
000478: 06,2356           10000                           CCS      A
000479: 06,2357           12374                           TCF      C33TEST
000480:
000481: 06,2360           02746                           TC       CAGESUB2                              #  SET TURNON FLAGS.
000482:
000483: 06,2361           04674        ISSZERO            TC       IBNKCALL                              #  TURN OFF NO ATT LAMP
000484: 06,2362           17257                           CADR     NOATTOFF                              #  IMU CAGE OFF ENTRY
000485:
000486: 06,2363           34747                           CAF      BIT5                                  #  ISS CDU ZERO
000487: 06,2364           00006                           EXTEND
000488: 06,2365           05012                           WOR      CHAN12
000489:
000490: 06,2366           05457                           TC       ZEROICDU
000491: 06,2367           34746                           CAF      BIT6                                  #  WAIT 300 MS FOR AGS TO RECEIVE SIGNAL.
000492: 06,2370           05203                           TC       WAITLIST
000493: 06,2371  E6,1414                                  EBANK=   M11
000494: 06,2371           02313 14106                     2CADR    UNZ2
000495:
000496: 06,2373           12374                           TCF      C33TEST
000497:


000499:                                                                                                  #  PROGRAM NAME:  C33TEST
000500:
000501:                                                                                                  #  FUNCTIONAL DESCRIPTION:  THIS PROGRAM MONITORS THREE FLIP-FLOP INBITS OF CHANNEL 33 AND CALLS THE APPROPRIATE
000502:                                                                                                  #  SUBROUTINE TO PROCESS A CHANGE.  IT IS ANALOGOUS TO IMUMON, WHICH MONITORS CHANNEL 30, EXCEPT THAT IT READS
000503:                                                                                                  #  CHANNEL 33 WITH A WAND INSTRUCTION BECAUSE A 'WRITE' PULSE IS REQUIRED TO RESET THE FLIP-FLOPS.  THE BITS
000504:                                                                                                  #  PROCESSED AND THE SUBROUTINES CALLED ARE:
000505:                                                                                                  #        BIT     FUNCTION                SUBROUTINE
000506:                                                                                                  #        ---     --------                ----------
000507:                                                                                                  #         13     PIPA FAIL               PIPFAIL
000508:                                                                                                  #         12     DOWNLINK TOO FAST       DNTMFAST
000509:                                                                                                  #         11     UPLINK TOO FAST         UPTMFAST
000510:
000511:                                                                                                  #  UPON ENTRY TO THE SUBROUTINE, THE NEW BIT STATE IS IN A.
000512:
000513:                                                                                                  #  CALLING SEQUENCE:  EVERY 480 MILLISECONDS AFTER TNONTEST.
000514:
000515:                                                                                                  #  JOBS OR TASKS INITIATED:  NONE.
000516:
000517:                                                                                                  #  SUBROUTINES CALLED:  PIPFAIL, DNTMFAST AND UPTMFAST ON BIT CHANGES.
000518:
000519:                                                                                                  #  ERASABLE INITIALIZATION:  C(IMODES33) = OCT 16000 ON A FRESH START OR RESTART, THEREFORE, THESE ALARMS WILL
000520:                                                                                                  #  REAPPEAR IF THE CONDITIONS PERSIST.
000521:
000522:                                                                                                  #  ALARMS:  NONE.
000523:
000524:                                                                                                  #  EXIT:  GLOCKMON.
000525:
000526:                                                                                                  #  OUTPUT:  UPDATED BITS 13, 12 AND 11 OF IMODES33 WITH CHANGES PROCESSED.
000527:
000528: 06,2374           31300        C33TEST            CA       IMODES33                              #  SEE IF RELEVANT CHAN33 BITS HAVE
000529: 06,2375           75026                           MASK     33RDMSK
000530: 06,2376           54001                           TS       L                                     #  CHANGED.
000531: 06,2377           35026                           CAF      33RDMSK
000532: 06,2400           00006                           EXTEND
000533: 06,2401           03033                           WAND     CHAN33                                #  RESETS FLIP-FLOP INPUTS
000534: 06,2402           00006                           EXTEND
000535: 06,2403           06001                           RXOR     LCHAN
000536: 06,2404           00006                           EXTEND
000537: 06,2405           12434                           BZF      GLOCKMON                              #  ON NO CHANGE.
000538:
000539: 06,2406           54070                           TS       RUPTREG1                              #  SAVE BITS WHICH HAVE CHANGED.
000540: 06,2407           23300                           LXCH     IMODES33
000541: 06,2410           00006                           EXTEND
000542: 06,2411           06001                           RXOR     LCHAN
000543: 06,2412           55300                           TS       IMODES33                              #  UPDATED IMODES33.
000544:
000545: 06,2413           34755                           CAF      ZERO
000546: 06,2414           56070                           XCH      RUPTREG1
000547: 06,2415           60000                           DOUBLE


000549: 06,2416           12421                           TCF      NXTIBT     +1                         #  SCAN FOR BIT CHANGES.
000550:
000551: 06,2417           64753                 -1        AD       ONE
000552: 06,2420           24070        NXTIBT             INCR     RUPTREG1
000553: 06,2421           60000                 +1        DOUBLE
000554: 06,2422           54000                           TS       A                                     #  (CODING IDENTICAL TO CHAN 30).
000555: 06,2423           12420                           TCF      NXTIBT
000556:
000557: 06,2424           56071                           XCH      RUPTREG2
000558: 06,2425           50070                           INDEX    RUPTREG1                              #  GET NEW VALUE OF BIT WHICH CHANGED.
000559: 06,2426           34737                           CAF      BIT13
000560: 06,2427           71300                           MASK     IMODES33
000561: 06,2430           50070                           INDEX    RUPTREG1
000562: 06,2431           02763                           TC       C33JMP
000563: 06,2432           10071        NXTFL33            CCS      RUPTREG2                              #  PROCESS POSSIBLE ADDITIONAL CHANGES.
000564: 06,2433           12417                           TCF      NXTIBT     -1
000565:


000567:                                                                                                  #  PROGRAM NAME:  GLOCKMON
000568:
000569:                                                                                                  #  FUNCTIONAL DESCRIPTION:  THIS PROGRAM MONITORS THE CDUZ COUNTER TO DETERMINE WHETHER THE ISS IS IN GIMBAL LOCK
000570:                                                                                                  #  AND TAKES ACTION IF IT IS.  THREE REGIONS OF MIDDLE GIMBAL ANGLE (MGA) ARE USED:
000571:
000572:                                                                                                  #        1) ABS(MGA) LESS THAN OR EQUAL TO 70 DEGREES - NORMAL MODE.
000573:                                                                                                  #        2) ABS(MGA) GREATER THAN 70 DEGREES AND LESS THAN OR EQUAL TO 85 DEGREES - GIMBAL LOCK LAMP TURNED ON.
000574:                                                                                                  #        3) ABS(MGA) GREATER THAN 85 DEGREES - ISS PUT IN COARSE ALIGN AND NO ATT LAMP TURNED ON.
000575:
000576:                                                                                                  #  CALLING SEQUENCE:  EVERY 480 MILLISECONDS AFTER C33TEST.
000577:
000578:                                                                                                  #  JOBS OR TASKS INITIATED:  NONE.
000579:
000580:                                                                                                  #  SUBROUTINES CALLED:   1) SETCOARS WHEN ABS(MGA) GREATER THAN 85 DEGREES AND ISS NOT IN COARSE ALIGN.
000581:                                                                                                  #                        2) LAMPTEST BEFORE TURNING OFF GIMBAL LOCK LAMP.
000582:
000583:                                                                                                  #  ERASABLE INITIALIZATION:
000584:                                                                                                  #                1) FRESH START OR RESTART WITH NO GROUPS ACTIVE:  C(CDUZ) = 0, IMODES30 BIT 6 = 0, IMODES33 BIT 1 = 0.
000585:                                                                                                  #                2) RESTART WITH GROUPS ACTIVE:  SAME AS FRESH START EXCEPT C(CDUZ) NOT CHANGED SO GIMBAL MONITOR
000586:                                                                                                  #                                                PROCEEDS AS BEFORE.
000587:
000588:                                                                                                  #  ALARMS:       1) MGA REGION (2) CAUSES GIMBAL LOCK LAMP TO BE LIT.
000589:                                                                                                  #                2) MGA REGION (3) CAUSES THE ISS TO BE PUT IN COARSE ALIGN AND THE NO ATT LAMP TO BE LIT IF EITHER NOT
000590:                                                                                                  #                   SO ALREADY.
000591:
000592: 06,2434           10034        GLOCKMON           CCS      CDUZ
000593: 06,2435           12441                           TCF      GLOCKCHK                              #  SEE IF MAGNITUDE OF MGA IS GREATER THAN
000594: 06,2436           12465                           TCF      SETGLOCK                              #  70 DEGREES.
000595: 06,2437           12441                           TCF      GLOCKCHK
000596: 06,2440           12465                           TCF      SETGLOCK
000597:
000598: 06,2441           62512        GLOCKCHK           AD       -70DEGS
000599: 06,2442           00006                           EXTEND
000600: 06,2443           62464                           BZMF     SETGLOCK   -1                         #  NO LOCK.
000601:
000602: 06,2444           62513                           AD       -15DEGS                               #  SEE IF ABS(MGA) GREATER THAN 85 DEGREES.
000603: 06,2445           00006                           EXTEND
000604: 06,2446           62462                           BZMF     NOGIMRUN
000605:
000606: 06,2447           34750                           CAF      BIT4                                  #  IF SO, SYSTEM SHOULD BE IN COARSE ALIGN
000607: 06,2450           00006                           EXTEND                                         #  TO PREVENT GIMBAL RUNAWAY.
000608: 06,2451           02012                           RAND     CHAN12
000609: 06,2452           10000                           CCS      A
000610: 06,2453           12462                           TCF      NOGIMRUN
000611:
000612: 06,2454           04674                           TC       IBNKCALL
000613: 06,2455           17135                           CADR     SETCOARS
000614:
000615: 06,2456           36245                           CAF      SIX                                   #  ENABLE ISS ERROR COUNTERS IN 60 MS
000616: 06,2457           05203                           TC       WAITLIST


000618: 06,2460  E3,1474                                  EBANK=   CDUIND
000619: 06,2460           03131 16103                     2CADR    CA+ECE
000620:
000621: 06,2462           34746        NOGIMRUN           CAF      BIT6                                  #  TURN ON GIMBAL LOCK LAMP.
000622: 06,2463           12465                           TCF      SETGLOCK
000623:
000624: 06,2464           34755                 -1        CAF      ZERO
000625: 06,2465           61035        SETGLOCK           AD       DSPTAB     +11D                       #  SEE IF PRESENT STATE OF GIMBAL LOCK LAMP
000626: 06,2466           74746                           MASK     BIT6                                  #  AGREES WITH DESIRED STATE BY HALF ADDING
000627: 06,2467           00006                           EXTEND                                         #  THE TWO.
000628: 06,2470           15270                           BZF      GLOCKOK                               #  OK AS IS.
000629:
000630: 06,2471           71035                           MASK     DSPTAB     +11D                       #  IF OFF, DONT TURN ON IF IMU BEING CAGED.
000631: 06,2472           10000                           CCS      A
000632: 06,2473           12507                           TCF      GLAMPTST                              #  TURN OFF UNLESS LAMP TEST IN PROGRESS.
000633:
000634: 06,2474           34746                           CAF      BIT6
000635: 06,2475           71277                           MASK     IMODES30
000636: 06,2476           10000                           CCS      A
000637: 06,2477           15270                           TCF      GLOCKOK
000638:
000639: 06,2500           41035        GLINVERT           CS       DSPTAB     +11D                       #  INVERT GIMBAL LOCK LAMP.
000640: 06,2501           74746                           MASK     BIT6
000641: 06,2502           64735                           AD       BIT15                                 #  TO INDICATE CHANGE IN DSPTAB +11D.
000642: 06,2503           57035                           XCH      DSPTAB     +11D
000643: 06,2504           72162                           MASK     OCT37737
000644: 06,2505           27035                           ADS      DSPTAB     +11D
000645: 06,2506           15270                           TCF      GLOCKOK
000646:
000647: 06,2507           02766        GLAMPTST           TC       LAMPTEST                              #  TURN OFF UNLESS LAMP TEST IN PROGRESS.
000648: 06,2510           15270                           TCF      GLOCKOK
000649: 06,2511           12500                           TCF      GLINVERT
000650:
000651: 06,2512           63434        -70DEGS            DEC      -.38888                               #  -70 DEGREES SCALED IN HALF-REVOLUTIONS.
000652: 06,2513           75252        -15DEGS            DEC      -.08333
000653:


000655:                                                                                                  #  PROGRAM NAME:  TLIM.
000656:
000657:                                                                                                  #  FUNCTIONAL DESCRIPTION:  THIS PROGRAM MAINTAINS THE TEMP LAMP (BIT 4 OF CHANNEL 11) ON THE DSKY TO AGREE WITH
000658:                                                                                                  #  THE TEMP SIGNAL FROM THE ISS (BIT 15 OF CHANNEL 30).  HOWEVER, THE LIGHT WILL NOT BE TURNED OFF IF A LAMP TEST
000659:                                                                                                  #  IS IN PROGRESS.
000660:
000661:                                                                                                  #  CALLING SEQUENCE:  CALLED BY IMUMON ON A CHANGE OF BIT 15 OF CHANNEL 30.
000662:
000663:                                                                                                  #  JOBS OR TASKS INITIATED:  NONE.
000664:
000665:                                                                                                  #  SUBROUTINES CALLED:  LAMPTEST.
000666:
000667:                                                                                                  #  ERASABLE INITIALIZATION:  FRESH START AND RESTART TURN THE TEMP LAMP OFF.
000668:
000669:                                                                                                  #  ALARMS:  TEMP LAMP TURNED ON WHEN IMU TEMP GOES OUT OF LIMITS.
000670:
000671:                                                                                                  #  EXIT:  NXTIFAIL.
000672:
000673:                                                                                                  #  OUTPUT:  SERVICE OF TEMP LAMP.                  IN A, EXCEPT FOR TLIM.
000674:
000675: 06,2514           74733        TLIM               MASK     POSMAX                                #  REMOVE BIT FROM WORD OF CHANGES AND SET
000676: 06,2515           54071                           TS       RUPTREG2                              #  DSKY TEMP LAMP ACCORDINGLY.
000677:
000678: 06,2516           11277                           CCS      IMODES30
000679: 06,2517           12525                           TCF      TEMPOK
000680: 06,2520           12525                           TCF      TEMPOK
000681:
000682: 06,2521           34750                           CAF      BIT4                                  #  TURN ON LAMP.
000683: 06,2522           00006                           EXTEND
000684: 06,2523           05011                           WOR      DSALMOUT
000685: 06,2524           12225                           TCF      NXTIFAIL
000686:
000687: 06,2525           02766        TEMPOK             TC       LAMPTEST                              #  IF TEMP NOW OK, DONT TURN OFF LAMP IF
000688: 06,2526           12225                           TCF      NXTIFAIL                              #  LAMP TEST IN PROGRESS.
000689:
000690: 06,2527           44750                           CS       BIT4
000691: 06,2530           00006                           EXTEND
000692: 06,2531           03011                           WAND     DSALMOUT                              #  TURN OFF LAMP
000693: 06,2532           12225                           TCF      NXTIFAIL
000694:


000696:                                                                                                  #  PROGRAM NAME:  ITURNON.
000697:
000698:                                                                                                  #  FUNCTIONAL DESCRIPTION:  THIS PROGRAM IS CALLED BY IMUMON WHEN A CHANGE OF BIT 14 OF CHANNEL 30 (ISS TURN-ON
000699:                                                                                                  #  REQUEST) IS DETECTED.  UPON ENTRY, ITURNON CHECKS IF A TURN-ON DELAY SEQUENCE HAS FAILED, AND IF SO, IT EXITS.
000700:                                                                                                  #  IF NOT, IT CHECKS WHETHER THE TURN-ON REQUEST CHANGE IS TO ON OR OFF.  IF ON, IT SETS BIT7 OF IMODES30 TO 1 SO
000701:                                                                                                  #  THAT TNONTEST WILL INITIATE THE ISS INITIALIZATION SEQUENCE.  IF OFF, THE TURN-ON DELAY SIGNAL, CHANNEL 12 BIT
000702:                                                                                                  #  15, IS CHECKED AND IF IT IS ON, ITURNON EXITS.  IF THE DELAY SIGNAL IS OFF, PROGRAM ALARM 00207 IS ISSUED, BIT 2
000703:                                                                                                  #  OF IMODES30 IS SET TO 1 AND THE PROGRAM EXITS.
000704:
000705:                                                                                                  #  THE SETTING OF BIT 2 OF IMODES30 (ISS DELAY SEQUENCE FAIL) INHIBITS THIS ROUTINE AND IMUOP FROM
000706:                                                                                                  #  PROCESSING ANY CHANGES.  THIS BIT WILL BE RESET BY THE ENDTNON ROUTINE WHEN THE CURRENT 90 SECOND DELAY PERIOD
000707:                                                                                                  #  ENDS.
000708:
000709:                                                                                                  #  CALLING SEQUENCE:  FROM IMUMOM WHEN ISS TURN-ON REQUEST CHANGES STATE.
000710:
000711:                                                                                                  #  JOBS OR TASKS INITIATED:  NONE.
000712:
000713:                                                                                                  #  SUBROUTINES CALLED:  ALARM, IF THE ISS TURN-ON REQUEST IS NOT PRESENT FOR 90 SECONDS.
000714:
000715:                                                                                                  #  ERASABLE INITIALIZATION:  FRESH START AND RESTART SET BIT 15 OF CHANNEL 12 AND BITS 2 AND 7 OF IMODES30 TO 0,
000716:                                                                                                  #  AND BIT 14 OF IMODES30 TO 1.
000717:
000718:                                                                                                  #  ALARMS: PROGRAM ALARM 00207 IS ISSUED IF THE ISS TURN-ON REQUEST SIGNAL IS NOT PRESENT FOR 90 SECONDS.
000719:
000720:                                                                                                  #  EXIT:  NXTIFAIL.
000721:
000722:                                                                                                  #  OUTPUT:  BIT 7 OF IMODES30 TO START ISS INITIALIZATION, OR BIT 2 OF IMODES30 AND PROGRAM ALARM 00207 TO INDICATE
000723:                                                                                                  #  A FAILED TURN-ON SEQUENCE.
000724:
000725: 06,2533           34752        ITURNON            CAF      BIT2                                  #  IF DELAY REQUEST HAS GONE OFF
000726: 06,2534           71277                           MASK     IMODES30                              #  PREMATURELY, DO NOT PROCESS ANY CHANGES
000727: 06,2535           10000                           CCS      A                                     #  UNTIL THE CURRENT 90 SEC WAIT EXPIRES.
000728: 06,2536           12225                           TCF      NXTIFAIL
000729:
000730: 06,2537           34736                           CAF      BIT14                                 #  SEE IF JUST ON OR OFF.
000731: 06,2540           71277                           MASK     IMODES30
000732: 06,2541           00006                           EXTEND
000733: 06,2542           12556                           BZF      ITURNON2                              #  IF JUST ON.
000734:
000735: 06,2543           34735                           CAF      BIT15
000736: 06,2544           00006                           EXTEND                                         #  SEE IF DELAY PRESENT DISCRETE HAS BEEN
000737: 06,2545           02012                           RAND     CHAN12                                #  SENT.  IF SO, ACTION COMPLETE
000738: 06,2546           00006                           EXTEND
000739: 06,2547           12551                           BZF      +2
000740: 06,2550           12225                           TCF      NXTIFAIL
000741:
000742: 06,2551           34752                           CAF      BIT2                                  #  IF NOT, SET BIT TO INDICATE REQUEST NOT
000743: 06,2552           27277                           ADS      IMODES30                              #  PRESENT FOR FULL DURATION.
000744: 06,2553           05567                           TC       ALARM
000745: 06,2554           00207                           OCT      207
000746: 06,2555           12225                           TCF      NXTIFAIL
000747:


000749: 06,2556           41277        ITURNON2           CS       IMODES30                              #  SET BIT7 TO INDICATE WAIT OF 1 SAMPLE
000750: 06,2557           74745                           MASK     BIT7
000751: 06,2560           27277                           ADS      IMODES30
000752: 06,2561           32564                           CAF      RRINIT
000753: 06,2562           54110                           TS       RADMODES
000754: 06,2563           12225                           TCF      NXTIFAIL
000755:
000756: 06,2564           00102        RRINIT             OCT      00102
000757:


000759:                                                                                                  #  PROGRAM NAME:  IMUCAGE.
000760:
000761:                                                                                                  #  FUNCTIONAL DESCRIPTION:  THIS PROGRAM PROCESSES CHANGES OF THE IMUCAGE INBIT, CHANNEL 30 BIT 11.  IF THE BIT
000762:                                                                                                  #  CHANGES TO 0 (CAGE BUTTON PRESSED), THE ISS IS CAGED (ICDU ZERO + COARSE ALIGN + NO ATT LAMP) UNTIL THE
000763:                                                                                                  #  ASTRONAUT SELECTS ANOTHER PROGRAM TO ALIGN THE ISS.  ANY PULSE TRAINS TO THE ICDU'S AND GYRO'S ARE TERMINATED,
000764:                                                                                                  #  THE ASSOCIATED OUTCOUNTERS ARE ZEROED AND THE GYRO'S ARE DE-SELECTED.  NO ACTION OCCURS WHEN THE BUTTON IS
000765:                                                                                                  #  RELEASED (INBIT CHANGES TO 1).
000766:
000767:                                                                                                  #  CALLING SEQUENCE:  BY IMUMON WHEN IMU CAGE BIT CHANGES.
000768:
000769:                                                                                                  #  JOBS OR TASKS INITIATED:  NONE.
000770:
000771:                                                                                                  #  SUBROUTINES CALLED:  CAGESUB.
000772:
000773:                                                                                                  #  ERASABLE INITIALIZATION:  FRESH START AND RESTART SET BIT 11 OF IMODES30 TO 1.
000774:
000775:                                                                                                  #  ALARMS: NONE.
000776:
000777:                                                                                                  #  EXIT:  NXTIFAIL.
000778:
000779:                                                                                                  #  OUTPUT:  ISS CAGED, COUNTERS ZEROED, PULSE TRAINS TERMINATED AND NO ATT LAMP LIT.
000780:
000781: 06,2565           10000        IMUCAGE            CCS      A                                     #  NO ACTION IF GOING OFF.
000782: 06,2566           12361                           TCF      ISSZERO
000783: 06,2567           43002                           CS       OCT77000                              #  TERMINATE ICDU, RCDU, GYRO PULSE TRAINS
000784: 06,2570           00006                           EXTEND
000785: 06,2571           03014                           WAND     CHAN14
000786:
000787: 06,2572           42776                           CS       OCT272                                #  KNOCK DOWN DISPLAY INERTIAL DATA, IMU
000788: 06,2573           00006                           EXTEND                                         #  ERROR COUNTER ENABLE, ZERO ICDU, COARSE
000789: 06,2574           03012                           WAND     CHAN12                                #  ALIGN ENABLE, RR ERROR COUNTER ENABLE
000790:
000791: 06,2575           44745                           CS       ENGONBIT                              #  INSURE ENGONFLG IS CLEAR.
000792: 06,2576           70101                           MASK     FLAGWRD5
000793: 06,2577           54101                           TS       FLAGWRD5
000794: 06,2600           44355                           CS       PRIO30                                #  TURN ENGINE OFF.
000795: 06,2601           00006                           EXTEND
000796: 06,2602           02011                           RAND     DSALMOUT
000797: 06,2603           64736                           AD       BIT14
000798: 06,2604           00006                           EXTEND
000799: 06,2605           01011                           WRITE    DSALMOUT                              #  FORCE BIT14=1, BIT13=0.
000800:
000801: 06,2606           02743                           TC       CAGESUB1
000802:
000803: 06,2607           04674                           TC       IBNKCALL                              #  KNOCK DOWN TRACK, REFSMMAT, DRIFT FLAGS
000804: 06,2610           17166                           CADR     RNDREFDR
000805:
000806: 06,2611           44755                           CS       ZERO
000807: 06,2612           54050                           TS       CDUXCMD
000808: 06,2613           54051                           TS       CDUYCMD


000810: 06,2614           54052                           TS       CDUZCMD
000811: 06,2615           54047                           TS       GYROCMD
000812:
000813: 06,2616           43001                           CS       OCT740                                #  HAVING WAITED AT LEAST 27 MCT FROM
000814: 06,2617           00006                           EXTEND                                         #  GYRO PULSE TRAIN TERMINATION, WE CAN
000815: 06,2620           03014                           WAND     CHAN14                                #  DE-SELECT THE GYROS
000816: 06,2621           12225                           TCF      NXTIFAIL
000817:


000819:                                                                                                  #  PROGRAM NAME:  IMUOP.
000820:
000821:                                                                                                  #  FUNCTIONAL DESCRIPTION:  THIS PROGRAM PROCESSES CHANGES IN THE ISS OPERATE DISCRETE, BIT 9 OF CHANNEL 30.
000822:                                                                                                  #  IF THE INBIT CHANGES TO 0, INDICATING ISS ON, IMUOP GENERALLY SETS BIT 7 OF IMODES30 TO 1 TO REQUEST ISS
000823:                                                                                                  #  INITIALIZATION VIA TNONTEST.  AN EXCEPTION IS DURING A FAILED ISS DELAY DURING WHICH BIT 2 OF IMODES30 IS SET
000824:                                                                                                  #  TO 1 AND NO FURTHER INITIALIZATION IS REQUIRED.  WHEN THE INBIT CHANGES TO 1, INDICATING ISS OFF, IMUSEFLG IS
000825:                                                                                                  #  TESTED TO SEE IF ANY PROGRAM WAS USING THE ISS.  IF SO, PROGRAM ALARM 00214 IS ISSUED.
000826:
000827:                                                                                                  #  CALLING SEQUENCE:  BY IMUMON WHEN BIT 9 OF CHANNEL 30 CHANGES.
000828:
000829:                                                                                                  #  JOBS OR TASKS INITIATED:  NONE.
000830:                                                                                                  #
000831:                                                                                                  #  SUBROUTINES CALLED:  ALARM, IF ISS IS TURNED OFF WHILE IN USE.
000832:
000833:                                                                                                  #  ERASABLE INITIALIZATION:  ON FRESH START AND RESTART, BIT 9 OF IMODES30 IS SET TO 1 EXCEPT WHEN THE GIMBAL LOCK
000834:                                                                                                  #  LAMP IS ON, IN WHICH CASE IT IS SET TO 0.  THIS PREVENTS ICDU ZERO BY TNONTEST WITH THE ISS IN GIMBAL LOCK.
000835:
000836:                                                                                                  #  ALARMS:  PROGRAM ALARM 00214 IF THE ISS IS TURNED OFF WHILE IN USE.
000837:
000838:                                                                                                  #  EXIT:  NXTIFAIL.
000839:
000840:                                                                                                  #  OUTPUT:  ISS INITIALIZATION REQUEST (IMODES30 BIT 7) OR PROGRAM ALARM 00214.
000841:
000842: 06,2622           00006        IMUOP              EXTEND
000843: 06,2623           12643                           BZF      IMUOP2
000844:
000845: 06,2624           41300                           CS       IMODES33                              #  DISABLE DAP
000846: 06,2625           74746                           MASK     BIT6
000847: 06,2626           27300                           ADS      IMODES33
000848:
000849: 06,2627           04674                           TC       IBNKCALL                              #  KNOCK DOWN TRACK, REFSMMAT, DRIFT FLAGS
000850: 06,2630           17166                           CADR     RNDREFDR
000851:
000852: 06,2631           42777                           CS       BITS7&8                               #  KNOCK DOWN RENDEZVOUS, IMUUSE FLAGS
000853: 06,2632           70074                           MASK     FLAGWRD0
000854: 06,2633           56074                           XCH      FLAGWRD0                              #  IF GOING OFF, ALARM IF PROG USING IMU.
000855: 06,2634           40000                           COM
000856: 06,2635           74744                           MASK     IMUSEFLG
000857: 06,2636           10000                           CCS      A
000858: 06,2637           12225                           TCF      NXTIFAIL
000859:
000860: 06,2640           05567                           TC       ALARM
000861: 06,2641           00214                           OCT      214
000862: 06,2642           12225                           TCF      NXTIFAIL
000863:
000864: 06,2643           34752        IMUOP2             CAF      BIT2                                  #  SEE IF FAILED ISS TURN-ON SEQ IN PROG.
000865: 06,2644           71277                           MASK     IMODES30
000866: 06,2645           10000                           CCS      A
000867: 06,2646           12225                           TCF      NXTIFAIL                              #  IF SO, DONT PROCESS UNTIL PRESENT 90
000868: 06,2647           12556                           TCF      ITURNON2                              #  SECONDS EXPIRES.
000869:


000871:                                                                                                  #  PROGRAM NAME:  PIPFAIL
000872:
000873:                                                                                                  #  FUNCTIONAL DESCRIPTION:  THIS PROGRAM PROCESSES CHANGES OF BIT 13 OF CHANNEL 33, PIPA FAIL.  IT SETS BIT 10 OF
000874:                                                                                                  #  IMODES30 TO AGREE.  IT CALLS SETISSW IN CASE A PIPA FAIL NECESSITATES AN ISS WARNING.  IF NOT, I.E., IMODES30
000875:                                                                                                  #  BIT 1 = 1, AND A PIPA FAIL IS PRESENT AND THE ISS IS NOT BEING INITIALIZED, PROGRAM ALARM 00212 IS ISSUED.
000876:
000877:                                                                                                  #  CALLING SEQUENCE:  BY C33TEST ON CHANGES OF CHANNEL 33 BIT 13.
000878:
000879:                                                                                                  #  JOBS OR TASKS INITIATED:  NONE.
000880:
000881:                                                                                                  #  SUBROUTINES CALLED:  1) SETISSW, AND 2) ALARM (SEE FUNCTIONAL DESCRIPTION).
000882:
000883:                                                                                                  #  ERASABLE INITIALIZATION:  SEE IMUMON FOR INITIALIZATION OF IMODES30.  THE RELAVANT BITS ARE 5, 7, 8, 9, AND 10.
000884:
000885:                                                                                                  #  ALARMS:  PROGRAM ALARM 00212 IF PIPA FAIL IS PRESENT BUT NEITHER ISS WARNING IS TO BE ISSUED NOR THE ISS IS
000886:                                                                                                  #  BEING INITIALIZED.
000887:
000888:                                                                                                  #  EXIT:  NXTFL33.
000889:
000890:                                                                                                  #  OUTPUT:  PROGRAM ALARM 00212 AND ISS WARNING MAINTENANCE.
000891:
000892: 06,2650           10000        PIPFAIL            CCS      A                                     #  SET BIT10 IN IMODES30 SO ALL ISS WARNING
000893: 06,2651           34742                           CAF      BIT10                                 #  INFO IS IN ONE REGISTER.
000894: 06,2652           57277                           XCH      IMODES30
000895: 06,2653           73004                           MASK     -BIT10
000896: 06,2654           27277                           ADS      IMODES30
000897:
000898: 06,2655           02703                           TC       SETISSW
000899:
000900: 06,2656           41277                           CS       IMODES30                              #  IF PIP FAIL DOESNT LIGHT ISS WARNING, DO
000901: 06,2657           74753                           MASK     BIT1                                  #  A PROGRAM ALARM IF IMU OPERATING BUT NOT
000902: 06,2660           10000                           CCS      A                                     #  CAGED OR BEING TURNED ON.
000903: 06,2661           12432                           TCF      NXTFL33
000904:
000905: 06,2662           31277                           CA       IMODES30
000906: 06,2663           73000                           MASK     OCT1720
000907: 06,2664           10000                           CCS      A
000908: 06,2665           12432                           TCF      NXTFL33                               #  ABOVE CONDITION NOT MET.
000909:
000910: 06,2666           05567                           TC       ALARM
000911: 06,2667           00212                           OCT      212
000912: 06,2670           12432                           TCF      NXTFL33
000913:


000915:                                                                                                  #  PROGRAM NAMES:  DNTMFAST, UPTMFAST
000916:
000917:                                                                                                  #  FUNCTIONAL DESCRIPTION:  THESE PROGRAMS PROCESS CHANGES OF BITS 12 AND 11 OF CHANNEL 33.  IF A BIT CHANGES TO A
000918:                                                                                                  #  0, A PROGRAM ALARM IS ISSUED.  THE ALARMS ARE:
000919:
000920:                                                                                                  #        BIT     ALARM   CAUSE
000921:                                                                                                  #        ---     -----   -----
000922:                                                                                                  #         12     01105   DOWNLINK TOO FAST
000923:                                                                                                  #         11     01106   UPLINK TOO FAST
000924:
000925:                                                                                                  #  CALLING SEQUENCE:  BY C33TEST ON A BIT CHANGE.
000926:
000927:                                                                                                  #  SUBROUTINES CALLED:  ALARM, IF A BIT CHANGES TO A 0.
000928:
000929:                                                                                                  #  ERASABLE INITIALIZATION:  FRESH START OR RESTART, BITS 12 AND 11 OF IMODES33 ARE SET TO 1.
000930:
000931:                                                                                                  #  ALARMS:  SEE FUNCTIONAL DESCRIPTION.
000932:
000933:                                                                                                  #  EXIT:  NXTFL33.
000934:
000935:                                                                                                  #  OUTPUT:  PROGRAM ALARM ON A BIT CHANGE TO 0.
000936:
000937: 06,2671           10000        DNTMFAST           CCS      A                                     #  DO PROG ALARM IF TM TOO FAST.
000938: 06,2672           12432                           TCF      NXTFL33
000939:
000940: 06,2673           05567                           TC       ALARM
000941: 06,2674           01105                           OCT      1105
000942: 06,2675           12432                           TCF      NXTFL33
000943:
000944: 06,2676           10000        UPTMFAST           CCS      A                                     #  SAME AS DNLINK TOO FAST WITH DIFFERENT
000945: 06,2677           12432                           TCF      NXTFL33                               #  ALARM CODE.
000946:
000947: 06,2700           05567                           TC       ALARM
000948: 06,2701           01106                           OCT      1106
000949: 06,2702           12432                           TCF      NXTFL33
000950:


000952:                                                                                                  #  PROGRAM NAME:  SETISSW
000953:
000954:                                                                                                  #  FUNCTIONAL DESCRIPTION:  THIS PROGRAM TURNS THE ISS WARNING LAMP ON AND OFF (CHANNEL 11 BIT 1 = 1 FOR ON,
000955:                                                                                                  #  0 FOR OFF) DEPENDING ON THE STATUS OF IMODES30 BITS 13 (IMU FAIL) AND 4 (INHIBIT IMU FAIL), 12 (ICDU FAIL) AND
000956:                                                                                                  #  3 (INHIBIT ICDU FAIL), AND 10 (PIPA FAIL) AND 1 (INHIBIT PIPA FAIL).  THE LAMP IS LEFT ON IF A LAMP TEST IS IN
000957:                                                                                                  #  PROGRESS.
000958:
000959:                                                                                                  #  CALLING SEQUENCE:  CALLED BY IMUMON ON CHANGES TO IMU FAIL AND ICDU FAIL.  CALLED BY IFAILCK AND PFAILOK UPON
000960:                                                                                                  #  REMOVAL OF THE FAIL INHIBITS.  CALLED BY PIPFAIL WHEN THE PIPA FAIL DISCRETE CHANGES.  IT IS CALLED BY PIPUSE
000961:                                                                                                  #  SINCE THE PIPA FAIL PROGRAM ALARM MAY NECESSITATE AN ISS WARNING, AND LIKEWISE BY PIPFREE WHEN THE ALARM DEPARTS
000962:                                                                                                  #  AND IT IS CALLED BY IMUZERO3 AND ISSUP AFTER THE FAIL INHIBITS HAVE BEEN REMOVED.
000963:
000964:                                                                                                  #  JOBS OR TASKS INITIATED:  NONE.
000965:
000966:                                                                                                  #  SUBROUTINES CALLED:  NONE.
000967:
000968:                                                                                                  #  ERASABLE INITIALIZATION:
000969:
000970:                                                                                                  #        1) IMODES30 - SEE IMUMON.
000971:                                                                                                  #        2) IMODES33 BIT 1 = 0 (LAMP TEST NOT IN PROGRESS).
000972:
000973:                                                                                                  #  ALARMS:  ISS WARNING.
000974:
000975:                                                                                                  #  THE FOLLOWING PROGRAM ALARMS WILL SHOW WHICH FAILURE CAUSED THE ISS WARN
000976:                                                                                                  #        PROGRAM ALARM 00777     PIPA FAIL
000977:                                                                                                  #        PROGRAM ALARM 03777     ICDU FAIL
000978:                                                                                                  #        PROGRAM ALARM 04777     ICDU   PIPA FAILS
000979:                                                                                                  #        PROGRAM ALARM 07777     IMU FAIL
000980:                                                                                                  #        PROGRAM ALARM 10777     IMU, PIPA FAILS
000981:                                                                                                  #        PROGRAM ALARM 13777     IMU, ICDU FAILS
000982:                                                                                                  #        PROGRAM ALARM 14777     IMU, ICDU, PIPA FAILS
000983:
000984:                                                                                                  #  EXIT: VIA Q.
000985:
000986:                                                                                                  #  OUTPUT: ISS WARNING LAMP SET PROPERLY.
000987:
000988: 06,2703           34761        SETISSW            CAF      OCT15                                 #  SET ISS WARNING USING THE FAIL BITS IN
000989: 06,2704           71277                           MASK     IMODES30                              #  BITS 13, 12, AND 10 OF IMODES30 AND THE
000990: 06,2705           00006                           EXTEND                                         #  FAILURE INHIBIT BITS IN POSITIONS
000991: 06,2706           74742                           MP       BIT10                                 #  4, 3, AND 1.
000992: 06,2707           31277                           CA       IMODES30
000993: 06,2710           00006                           EXTEND
000994: 06,2711           04001                           ROR      LCHAN                                 #  0 INDICATES FAILURE
000995: 06,2712           40000                           COM
000996: 06,2713           75025                           MASK     OCT15000
000997: 06,2714           10000                           CCS      A
000998: 06,2715           12726                           TCF      ISSWON                                #  FAILURE.
000999:
001000: 06,2716           34753        ISSWOFF            CAF      BIT1                                  #  DONT TURN OFF ISS WARNING IF LAMP TEST
001001: 06,2717           71300                           MASK     IMODES33                              #  IN PROGRESS.


001003: 06,2720           10000                           CCS      A
001004: 06,2721           00002                           TC       Q
001005:
001006: 06,2722           44753                           CS       BIT1
001007: 06,2723           00006                           EXTEND
001008: 06,2724           03011                           WAND     DSALMOUT
001009: 06,2725           00002                           TC       Q
001010:
001011: 06,2726           00006        ISSWON             EXTEND
001012: 06,2727           22066                           QXCH     ITEMP6
001013: 06,2730           05734                           TC       VARALARM                              #  TELL EVERYONE WHAT CAUSED THE ISS WARNING
001014: 06,2731           34753                           CAF      BIT1
001015: 06,2732           00006                           EXTEND
001016: 06,2733           05011                           WOR      DSALMOUT
001017: 06,2734           00066                           TC       ITEMP6
001018:
001019: 06,2735           43003        CAGESUB            CS       BITS6&15                              #  SET OUTBITS AND INTERNAL FLAGS FOR
001020: 06,2736           00006                           EXTEND                                         #  SYSTEM TURN-ON OR CAGE.  DISABLE THE
001021: 06,2737           03012                           WAND     CHAN12                                #  ERROR COUNTER AND REMOVE IMU DELAY COMP.
001022: 06,2740           34763                           CAF      BITS4&5                               #  SEND ZERO AND COARSE.
001023: 06,2741           00006                           EXTEND
001024: 06,2742           05012                           WOR      CHAN12
001025:
001026: 06,2743           41035        CAGESUB1           CS       DSPTAB     +11D                       #  TURN ON NO ATT LAMP
001027: 06,2744           72773                           MASK     OC40010
001028: 06,2745           27035                           ADS      DSPTAB     +11D
001029:
001030: 06,2746           41277        CAGESUB2           CS       IMODES30                              #  SET FLAGS TO INDICATE CAGING OR TURN-ON
001031: 06,2747           72775                           MASK     OCT75                                 #  AND INHIBIT ALL ISS WARNING INFO
001032: 06,2750           27277                           ADS      IMODES30
001033:
001034: 06,2751           41300                           CS       IMODES33                              #  DISABLE DAP AUTO AND HOLD MODES
001035: 06,2752           74746                           MASK     BIT6
001036: 06,2753           27300                           ADS      IMODES33
001037:
001038: 06,2754           00002                           TC       Q
001039:
001040: 06,2755  06,2703               IMUFAIL            EQUALS   SETISSW
001041: 06,2755  06,2703               ICDUFAIL           EQUALS   SETISSW
001042:


001044:                                                                                                  #  JUMP TABLES AND CONSTANTS.
001045:
001046: 06,2755           12533        IFAILJMP           TCF      ITURNON                               #  CHANNEL 30 DISPATCH.
001047: 06,2756           12703                           TCF      IMUFAIL
001048: 06,2757           12703                           TCF      ICDUFAIL
001049: 06,2760           12565                           TCF      IMUCAGE
001050: 06,2761           76400        30RDMSK            OCT      76400                                 #  (BIT 10 NOT SAMPLED HERE).
001051: 06,2762           12622                           TCF      IMUOP
001052:
001053: 06,2763           12650        C33JMP             TCF      PIPFAIL                               #  CHANNEL 33 DISPATCH.
001054: 06,2764           12671                           TCF      DNTMFAST
001055: 06,2765           12676                           TCF      UPTMFAST
001056:
001057:                                                                                                  #  SUBROUTINE TO SKIP IF LAMP TEST NOT IN PROGRESS.
001058:
001059: 06,2766           41300        LAMPTEST           CS       IMODES33                              #  BIT 1 OF IMODES33 = 1 IF LAMP TEST IN
001060: 06,2767           74753                           MASK     BIT1                                  #  PROGRESS.
001061: 06,2770           10000                           CCS      A
001062: 06,2771           24002                           INCR     Q
001063: 06,2772           00002                           TC       Q
001064:
001065: 06,2773     5026               33RDMSK            EQUALS   PRIO16
001066: 06,2773           40010        OC40010            OCT      40010
001067: 06,2774           00054        OCT54              OCT      54
001068: 06,2775           00075        OCT75              OCT      75
001069: 06,2776           00272        OCT272             OCT      00272
001070: 06,2777           00300        BITS7&8            OCT      300
001071: 06,3000           01720        OCT1720            OCT      1720
001072: 06,3001           00740        OCT740             OCT      00740
001073: 06,3002     5025               OCT15000           EQUALS   PRIO15
001074: 06,3002           77000        OCT77000           OCT      77000
001075: 06,3003           40040        BITS6&15           OCT      40040
001076: 06,3004           76777        -BIT10             OCT      -1000
001077:
001078: 06,3005           21450        90SECS             DEC      9000       B-14
001079: 06,3006     5741               120MS              =        OCT14                                 #  (DEC12)
001080: 06,3006     5270               GLOCKOK            EQUALS   RESUME
001081:


001083:                                                                                                  #  PROGRAM NAME_  RRAUTCHK
001084:
001085:                                                                                                  #  FUNCTIONAL DESCRIPTION
001086:                                                                                                  #  RRAUTCHK IS THE RENDEZVOUS RADAR INBIT MONITOR.  INITIALLY THE RR
001087:                                                                                                  #  POWER ON AUTO (CHAN 33 BIT 2) INBIT IS CHECKED.  IF NO CHANGE, THE
001088:                                                                                                  #  PROGRAM EXITS TO RRCDUCHK.  IF A CHANGE, RADMODES IS UPDATED
001089:                                                                                                  #  AND A CHECK MADE IF RR POWER HAS JUST COME ON.  IF JUST OFF, A CHECK
001090:                                                                                                  #  IS MADE TO SEE IF A PROGRAM WAS USING THE RR (STATE BIT 7).  IF NO,
001091:                                                                                                  #  THE PROGRAM EXITS TO RRCDUCHK.  IF YES, PROGRAM ALARM 00514
001092:                                                                                                  #  IS REQUESTED BEFORE EXITING TO RRCDUCHK.  IF RR POWER HAS JUST COME
001093:                                                                                                  #  ON, A CHECK IS MADE TO SEE IF A PROGRAM WAS USING THE RR (STATE BIT 7).
001094:                                                                                                  #  IF YES, THE PROGRAM EXITS TO RRCDUCHK WITHOUT REQUESTING THE TURN-ON
001095:                                                                                                  #  SEQUENCE.  IF NO, RADMODES IS UPDATED TO INDICATE RR CDU ZERO AND
001096:                                                                                                  #  RR TURN-ON SEQUENCE (BITS 13, 1).  A 10 MILLISECOND WAITLIST CALL
001097:                                                                                                  #  IS THEN SET FOR RRTURNON BEFORE THE PROGRAM EXITS TO NORRGMON.
001098:
001099:                                                                                                  #  CALLING SEQUENCE_
001100:                                                                                                  #  T4RUPT EVERY 480 MILLISECONDS
001101:
001102:                                                                                                  #  ERASABLE INITIALIZATION REQUIRED_
001103:                                                                                                  #  RADMODES, STATE
001104:
001105:                                                                                                  #  SUBROUTINES CALLED_
001106:                                                                                                  #  WAITLIST
001107:
001108:                                                                                                  #  JOBS OR TASKS INITIATED_
001109:                                                                                                  #  RRTURNON
001110:
001111:                                                                                                  #  ALARMS_  PROGRAM ALARM 00514 - RADAR GOES OUT OF AUTO MODE WHILE BEING
001112:                                                                                                  #  USED
001113:
001114:                                                                                                  #  EXIT_  RRCDUCHK, NORRGMON
001115:
001116: 06,3006           30110        RRAUTCHK           CA       RADMODES                              #  SEE IF CHANGE IN RR AUTO MODE BIT.
001117: 06,3007           00006                           EXTEND
001118: 06,3010           06033                           RXOR     CHAN33
001119: 06,3011           74752                           MASK     AUTOMBIT
001120: 06,3012           00006                           EXTEND
001121: 06,3013           13037                           BZF      RRCDUCHK
001122:
001123: 06,3014           22110                           LXCH     RADMODES                              #  UPDATE RADMODES.
001124: 06,3015           00006                           EXTEND
001125: 06,3016           06001                           RXOR     LCHAN
001126: 06,3017           73033                           MASK     OCT05776                              #  CLR CONT. DES., REMODE, REPOS, CDUZERO,
001127: 06,3020           54110                           TS       RADMODES                              #  AND TURNON BITS.
001128: 06,3021           74752                           MASK     BIT2                                  #  SEE IF JUST ON.
001129: 06,3022           10000                           CCS      A
001130: 06,3023           13034                           TCF      RRCDUCHK   -3                         #  OFF.  GO DISABLE RR CDU ERROR COUNTERS.
001131: 06,3024           37666                           CA       OCT10001                              #  SET RRCDUZRO AND TURNON BITS.
001132: 06,3025           26110                           ADS      RADMODES
001133:


001135: 06,3026           34753                           CAF      ONE
001136: 06,3027           05203                           TC       WAITLIST
001137: 06,3030  E7,1456                                  EBANK=   LOSCOUNT
001138: 06,3030           02073 52107                     2CADR    RRTURNON
001139:
001140: 06,3032           13126                           TCF      NORRGMON
001141:
001142: 06,3033           05776        OCT05776           OCT      5776
001143:


001145:                                                                                                  #  PROGRAM NAME_ RRCDUCHK
001146:
001147:                                                                                                  #  FUNCTIONAL DESCRIPTION_
001148:                                                                                                  #  RRCDUCHK CHECKS FOR RR CDU FAIL (CHAN 30 BIT 7).  INITIALLY THE
001149:                                                                                                  #  RR CDU FAIL BIT IS SAMPLED (CHAN 30 BIT 7).  IF NO CHANGE, THE
001150:                                                                                                  #  PROGRAM EXITS TO RRGIMON.  IF A CHANGE, THE RR AUTO MODE
001151:                                                                                                  #  (RADMODES BIT 2) BIT IS CHECKED.  IF NOT IN RR AUTO MODE, THE
001152:                                                                                                  #  PROGRAM EXITS TO NORRGMON.  IF IN AUTO MODE, RADMODES BIT 7
001153:                                                                                                  #  (RR CDU OK) IS UPDATED AND IF P-20 IS OPERATING PROGRAM ALARM 00515 IS
001154:                                                                                                  #  REQUESTED.  CONTROL IS TRANSFERRED TO SETTRKF TO UPDATE
001155:                                                                                                  #  THE TRACKER FAIL LAMP (DSPTAB+11D BIT 8).  CONTROL RETURNS TO
001156:                                                                                                  #  RRGIMON.
001157:
001158:                                                                                                  #  CALLING SEQUENCE_
001159:                                                                                                  #  EVERY 480 MILLISECONDS FROM RRAUTCHK (VIA T4RUPT) UNLESS A
001160:                                                                                                  #  TURN-ON SEQUENCE HAS JUST BEEN INITIATED.
001161:
001162:                                                                                                  #  ERASABLE INITIALIZATION REQUIRED_
001163:                                                                                                  #  RADMODES
001164:
001165:                                                                                                  #  SUBROUTINES CALLED_
001166:                                                                                                  #  SETTRKF
001167:
001168:                                                                                                  #  JOBS OR TASKS INITIATED_
001169:                                                                                                  #  NONE
001170:
001171:                                                                                                  #  ALARMS_
001172:                                                                                                  #  TRACKER FAIL
001173:                                                                                                  #  PROGRAM ALARM 00515 - RRCDU FAIL DURING P-20
001174:
001175:                                                                                                  #  EXIT_
001176:                                                                                                  #  RRGIMON, NORRGMON
001177:
001178: 06,3034           44752                 -3        CS       BIT2
001179: 06,3035           00006                           EXTEND
001180: 06,3036           03012                           WAND     CHAN12                                #  AT TURNON, DISABLE CDU ERROR COUNTERS.
001181:
001182: 06,3037           30110        RRCDUCHK           CA       RADMODES                              #  LAST SAMPLED BIT IN RADMODES.
001183: 06,3040           00006                           EXTEND
001184: 06,3041           06030                           RXOR     CHAN30
001185: 06,3042           74745                           MASK     RCDUFBIT
001186: 06,3043           00006                           EXTEND
001187: 06,3044           13071                           BZF      RRGIMON
001188:
001189: 06,3045           34752                           CAF      AUTOMBIT                              #  IF RR NOT IN AUTO MODE, DON'T CHANGE BIT
001190: 06,3046           70110                           MASK     RADMODES                              #  7 OF RADMODES.  IF THIS WERE NOT DONE,
001191: 06,3047           10000                           CCS      A                                     #  THE TRACKER FAIL MIGHT COME ON WHEN
001192: 06,3050           13126                           TCF      NORRGMON                              #  JUST READING LR DATA.
001193:
001194: 06,3051           34745                           CAF      RCDUFBIT                              #  SET BIT 7 OF RADMODES FOR SETTRKF.


001196: 06,3052           22110                           LXCH     RADMODES                              #  UPDATE RADMODES.
001197: 06,3053           00006                           EXTEND
001198: 06,3054           06001                           RXOR     L
001199: 06,3055           54110                           TS       RADMODES
001200:
001201: 06,3056           30110                           CA       RADMODES                              #  DID RR CDU FAIL
001202: 06,3057           74615                           MASK     13,7,2                                #  CDU ZERO+ CDUFAIL+ RR AUTO
001203: 06,3060           10000                           CCS      A
001204: 06,3061           13070                           TCF      TRKFLCDU                              #  NO
001205: 06,3062           40074                           CS       FLAGWRD0                              #  RNDVFLG P20 OR P22 OPERATING
001206: 06,3063           74745                           MASK     RNDVZBIT
001207: 06,3064           10000                           CCS      A
001208: 06,3065           13070                           TCF      TRKFLCDU                              #  NO
001209: 06,3066           05567                           TC       ALARM                                 #  YES
001210: 06,3067           00515                           OCT      00515
001211: 06,3070           04564        TRKFLCDU           TC       SETTRKF                               #  UPDATE TRACKER FAIL LAMP ON DSKY.
001212:


001214:                                                                                                  #  PROGRAM NAME_  RRGIMON                                                E AUTO MODE EXCEPT WHEN THE RR CDUS ARE
001215:
001216:                                                                                                  #  FUNCTIONAL DESCRIPTION_                                               TTER IS INITIATED BY THIS MONITOR WHEN
001217:                                                                                                  #  RRGIMON IS THE RR GIMBAL LIMIT MONITOR.  INITIALLY THE FOLLOWING IS   ED TO DRIVE THE GIMBALS TO T = 0 AND
001218:                                                                                                  #  CHECKED_  REMODE, RR CDU:S BEING ZEROED, REPOSITION, AND RR
001219:                                                                                                  #  NOT IN AUTO MODE (RADMODES BITS 14, 13, 11 2).  IF ANY OF THESE
001220:                                                                                                  #  EXIST THE PROGRAM EXITS TO GPMATRIX.  IF NONT ARE PRESENT RRLIMCHK
001221:                                                                                                  #  IS CALLED TO SEE IF THE PRESENT RR CDU ANGLES (OPTY, OPTX) ARE WITHIN
001222:                                                                                                  #  THE LIMITS OF THE CURRENT MODE.  IF WITHIN LIMITS, THE PROGRAM EXITS
001223:                                                                                                  #  TO NORRGMON.  IF NOT WITHIN LIMITS, THE REPOSITION FLAG (RADMODES
001224:                                                                                                  #  BIT 11) IS SET, THE RR AUTO TRACKER AND RR ERROR COUNTER
001225:                                                                                                  #  (CHAN 12 BITS 14, 2) ARE DISABLED, AND A 20 MILLISECOND WAITLIST
001226:                                                                                                  #  CALL IS SET FOR DORREPOS AFTER WHICH THE PROGRAM EXITS TO NORRGMON.
001227:
001228:                                                                                                  #  CALLING SEQUENCE_
001229:                                                                                                  #  EVERY 480 MILLISECONDS FROM RRCDUCHK (VIA T4RUPT) UNLESS TURN-ON
001230:                                                                                                  #  HAS JUST BEEN INITIATED VIA RRAUTCHK OR IF THERE HAS BEEN A CHANGE IN
001231:                                                                                                  #  THE RR CDU FAIL BIT (CHAN 30 BIT 7) AND THE RR IS NOT IN THE AUTO MODE
001232:                                                                                                  #  (RADMODES BIT 2).
001233:
001234:                                                                                                  #  ERASABLE INITIALIZATION_  RADMODES
001235:
001236:                                                                                                  #  SUBROUTINES CALLED_
001237:                                                                                                  #  RRLIMCHK, WAITLIST
001238:
001239:                                                                                                  #  JOBS OR TASKS INITIATED_
001240:                                                                                                  #  DORREPOS
001241:
001242:                                                                                                  #  ALARMS_
001243:                                                                                                  #  NONE
001244:
001245:                                                                                                  #  EXIT_
001246:                                                                                                  #  NORRGMON
001247:
001248: 06,3071           30101        RRGIMON            CAE      FLAGWRD5                              #  IS NO ANGLE MONITOR FLAG SET
001249: 06,3072           74750                           MASK     NORRMBIT
001250: 06,3073           10000                           CCS      A
001251: 06,3074           13126                           TCF      NORRGMON                              #  YES - SKIP LIMIT CHECK
001252: 06,3075           40103                           CS       FLAGWRD7                              #  IS SERVICER RUNNING?
001253: 06,3076           74747                           MASK     AVEGFBIT
001254: 06,3077           10000                           CCS      A
001255: 06,3100           13105                           TCF      +5                                    #  NO. DO R25
001256: 06,3101           30102                           CA       FLAGWRD6                              #  YES. IS MUNFLAG SET?
001257: 06,3102           74744                           MASK     MUNFLBIT
001258: 06,3103           10000                           CCS      A
001259: 06,3104           13126                           TCF      NORRGMON                              #  YES. DON'T DO R25
001260: 06,3105           33135                 +5        CAF      OCT32002                              #  INHIBIT BY REMODE, ZEROING, MONITOR.
001261: 06,3106           70110                           MASK     RADMODES                              #  OR RR NOT IN AUTO.
001262: 06,3107           10000                           CCS      A
001263: 06,3110           13126                           TCF      NORRGMON


001265: 06,3111           04523                           TC       RRLIMCHK                              #  SET IF ANGLES IN LIMITS.
001266: 06,3112           00035                           ADRES    CDUT
001267:
001268: 06,3113           13115                           TCF      MONREPOS
001269:
001270: 06,3114           13126                           TCF      NORRGMON                              #  (ADDITIONAL CODING MAY GO HERE).
001271:
001272: 06,3115           34741        MONREPOS           CAF      REPOSBIT                              #  SET FLAG TO SHOW REPOSITION IN PROGRESS.
001273: 06,3116           26110                           ADS      RADMODES
001274:
001275: 06,3117           43136                           CS       OCT20002                              #  DISABLE TRACKER AND ERROR COUNTER.
001276: 06,3120           00006                           EXTEND
001277: 06,3121           03012                           WAND     CHAN12
001278:
001279: 06,3122           34752                           CAF      TWO
001280: 06,3123           05203                           TC       WAITLIST
001281: 06,3124  E7,1456                                  EBANK=   LOSCOUNT
001282: 06,3124           02140 52107                     2CADR    DORREPOS
001283:
001284: 06,3126           30110        NORRGMON           CA       RADMODES                              #  IF SELECT SWITCH IS NOT IN LGC, SEND RR
001285: 06,3127           74752                           MASK     AUTOMBIT                              #  CDU ZERO BIT TO PREVENT MEMORY CYCLE
001286: 06,3130           10000                           CCS      A                                     #  SNATCHING BY MANIC RR CDUS.  BIT2 OF
001287: 06,3131           13132                           NOOP                                           #  RADMODES AGREES WITH BIT2 OF CHANNEL
001288: 06,3132           00006                           EXTEND                                         #  33. FOR THIS CODING, WHICH ASSUMES
001289: 06,3133           05012                           WOR      CHAN12                                #  AUTOMBIT = BIT2, THANKS TO HUGH B-S
001290: 06,3134           13140                           TCF      ENDRRMON
001291:
001292: 06,3135  06,3140               ENDRRMON           EQUALS   DAPT4S
001293:
001294: 06,3135           32002        OCT32002           OCT      32002
001295: 06,3136           20002        OCT20002           OCT      20002
001296: 06,3137           02100        OCT02100           OCT      02100                                 #  P20, P22 MASK BITS
001297:


001299:                                                                                                  #  PROGRAM NAME:  GPMATRIX (DAPT4S) MCD. NO. 2 DATE: OCTOBER 27, 1966
001300:
001301:                                                                                                  #  AUTHOR:  JONATHAN D. ADDELSTON (ADAMS ASSOCIATES)
001302:
001303:                                                                                                  #  MODIFIED:  7FEB. 1968 BY P. S. WEISSMAN TO DELETE COMPUTATION OF MR12 AND MR13, WHICH ARE NO LONGER REQIURED.
001304:
001305:                                                                                                  #  THIS PROGRAM CALCULATES ALL THE SINGLE-PRECISION MATRIX ELEMENTS WHICH ARE USED BY LEM DAP TO TRANSFORM VECTORS
001306:                                                                                                  #  FROM GIMBAL TO PILOT (BODY) AXES AND BACK AGAIN.  THESE ELEMENTS ARE USED EXCLUSIVELY BY BASIC LANGUAGE ROUTINES
001307:                                                                                                  #  AND THEREFORE ARE NOT ARRAYED FOR USE BY INTERPRETIVE PROGRAMS.
001308:
001309:                                                                                                  #  CALLING SEQUENCE:  GPMATRIX IS TRANSFERRED TO FROM DAPT4S AND IS THUS EXECUTED 4 TIMES A SECOND BY T4RUPT.
001310:                                                                                                  #  DAPT4S IS LISTED IN T4JUMP TABLE TWICE EXPLICITLY AND ALSO OCCURS AFTER RRAUTCHK (WHICH IS ALSO LISTED TWICE).
001311:
001312:                                                                                                  #  SUBROUTINES CALLED: SPSIN, SPCOS.
001313:
001314:                                                                                                  #  NORMAL EXIT MODE:  TCF RESUME
001315:
001316:                                                                                                  #  ALARM AND ABORT MODES:  NONE.
001317:
001318:                                                                                                  #  INPUT: CDUX, CDUY, CDUZ.
001319:
001320:                                                                                                  #  OUTPUT:  M11, M21, M31, M22, M32.
001321:
001322:                                                                                                  #  AOG = CDUX, AIG = CDUY, AMG = CDUZ: MNEMONIC IS: OIM = XYZ
001323:
001324:                                                                                                  #                *       *       SIN(MG)                 0                       1       *
001325:                                                                                                  #                M   =   *       COS(MG)COS(OG)          SIN(OG)                 0       *
001326:                                                                                                  #                 GP     *      -COS(MG)SIN(OG)          COS(OG)                 0       *
001327:
001328:                                                                                                  #                *       *       0                       COS(OG)/COS(MG)        -SIN(OG)/COS(MG)         *
001329:                                                                                                  #                M   =   *       0                       SIN(OG)                 COS(OG)                 *
001330:                                                                                                  #                 PG     *       1                      -SIN(MG)COS(OG)/COS(MG)  SIN(MG)SIN(OG)/COS(MG)  *
001331:
001332: 06,3140  E6,1414                                  EBANK=   M11
001333: 06,3140  06,3140               DAPT4S             EQUALS   GPMATRIX
001334:
001335:                                                                                                  #  T4RUPT DAP LOGIC:
001336:
001337: 06,3140           30034        GPMATRIX           CAE      CDUZ                                  #  SINGLE ENTRY POINT
001338: 06,3141           05033                           TC       SPSIN                                 #  SIN(CDUZ) = SIN(MG)
001339: 06,3142           55414                           TS       M11                                   #  SCALED AT 1
001340:
001341: 06,3143           30034                           CAE      CDUZ
001342: 06,3144           05032                           TC       SPCOS                                 #  COS(CDUZ) = COS(MG)
001343: 06,3145           54061                           TS       COSMG                                 #  SCALED AT 1 (ONLY A FACTOR)
001344:
001345: 06,3146           30032                           CAE      CDUX
001346: 06,3147           05033                           TC       SPSIN                                 #  SIN(CDUX) = SIN(OG)
001347: 06,3150           55417                           TS       M22                                   #  SCALED AT 1 (ALSO IS MR22)
001348:
001349: 06,3151           41417                           CS       M22


001351: 06,3152           00006                           EXTEND
001352: 06,3153           70061                           MP       COSMG                                 #  -SIN(OG)COS(MG)
001353: 06,3154           55416                           TS       M31                                   #  SCALED AT 1
001354:
001355: 06,3155           30032                           CAE      CDUX
001356: 06,3156           05032                           TC       SPCOS                                 #  COS(CDUX) = COS(OG)
001357: 06,3157           55420                           TS       M32                                   #  SCALED AT 1 (ALSO IS MR23)
001358:
001359: 06,3160           00006                           EXTEND
001360: 06,3161           70061                           MP       COSMG                                 #  COS(OG)COS(MG)
001361: 06,3162           55415                           TS       M21                                   #  SCALED AT 1
001362:
001363: 06,3163           05270                           TC       RESUME
001364:
001365: 06,3164     5270               ENDDAPT4           EQUALS   RESUME
001366:

End of include-file T4RUPT_PROGRAM.agc.  Parent file is MAIN.agc


